{
  "address": "0x745191edcBfdae12C9C484B2C5ECC72681b8373e",
  "abi": [
    {
      "anonymous": false,
      "inputs": [
        {
          "indexed": true,
          "internalType": "address",
          "name": "owner",
          "type": "address"
        },
        {
          "indexed": true,
          "internalType": "uint256",
          "name": "tokenId",
          "type": "uint256"
        },
        {
          "indexed": false,
          "internalType": "uint256",
          "name": "amount",
          "type": "uint256"
        }
      ],
      "name": "BackerRewardsClaimed",
      "type": "event"
    },
    {
      "anonymous": false,
      "inputs": [
        {
          "indexed": true,
          "internalType": "address",
          "name": "owner",
          "type": "address"
        },
        {
          "indexed": false,
          "internalType": "uint256",
          "name": "maxInterestDollarsEligible",
          "type": "uint256"
        }
      ],
      "name": "BackerRewardsSetMaxInterestDollarsEligible",
      "type": "event"
    },
    {
      "anonymous": false,
      "inputs": [
        {
          "indexed": true,
          "internalType": "address",
          "name": "owner",
          "type": "address"
        },
        {
          "indexed": false,
          "internalType": "uint256",
          "name": "totalInterestReceived",
          "type": "uint256"
        }
      ],
      "name": "BackerRewardsSetTotalInterestReceived",
      "type": "event"
    },
    {
      "anonymous": false,
      "inputs": [
        {
          "indexed": true,
          "internalType": "address",
          "name": "owner",
          "type": "address"
        },
        {
          "indexed": false,
          "internalType": "uint256",
          "name": "totalRewards",
          "type": "uint256"
        },
        {
          "indexed": false,
          "internalType": "uint256",
          "name": "totalRewardPercentOfTotalGFI",
          "type": "uint256"
        }
      ],
      "name": "BackerRewardsSetTotalRewards",
      "type": "event"
    },
    {
      "anonymous": false,
      "inputs": [
        {
          "indexed": true,
          "internalType": "address",
          "name": "who",
          "type": "address"
        },
        {
          "indexed": false,
          "internalType": "address",
          "name": "configAddress",
          "type": "address"
        }
      ],
      "name": "GoldfinchConfigUpdated",
      "type": "event"
    },
    {
      "anonymous": false,
      "inputs": [
        {
          "indexed": false,
          "internalType": "address",
          "name": "account",
          "type": "address"
        }
      ],
      "name": "Paused",
      "type": "event"
    },
    {
      "anonymous": false,
      "inputs": [
        {
          "indexed": true,
          "internalType": "bytes32",
          "name": "role",
          "type": "bytes32"
        },
        {
          "indexed": true,
          "internalType": "address",
          "name": "account",
          "type": "address"
        },
        {
          "indexed": true,
          "internalType": "address",
          "name": "sender",
          "type": "address"
        }
      ],
      "name": "RoleGranted",
      "type": "event"
    },
    {
      "anonymous": false,
      "inputs": [
        {
          "indexed": true,
          "internalType": "bytes32",
          "name": "role",
          "type": "bytes32"
        },
        {
          "indexed": true,
          "internalType": "address",
          "name": "account",
          "type": "address"
        },
        {
          "indexed": true,
          "internalType": "address",
          "name": "sender",
          "type": "address"
        }
      ],
      "name": "RoleRevoked",
      "type": "event"
    },
    {
      "anonymous": false,
      "inputs": [
        {
          "indexed": false,
          "internalType": "address",
          "name": "account",
          "type": "address"
        }
      ],
      "name": "Unpaused",
      "type": "event"
    },
    {
      "inputs": [],
      "name": "DEFAULT_ADMIN_ROLE",
      "outputs": [
        {
          "internalType": "bytes32",
          "name": "",
          "type": "bytes32"
        }
      ],
      "stateMutability": "view",
      "type": "function"
    },
    {
      "inputs": [],
      "name": "OWNER_ROLE",
      "outputs": [
        {
          "internalType": "bytes32",
          "name": "",
          "type": "bytes32"
        }
      ],
      "stateMutability": "view",
      "type": "function"
    },
    {
      "inputs": [],
      "name": "PAUSER_ROLE",
      "outputs": [
        {
          "internalType": "bytes32",
          "name": "",
          "type": "bytes32"
        }
      ],
      "stateMutability": "view",
      "type": "function"
    },
    {
      "inputs": [
        {
          "internalType": "address",
          "name": "owner",
          "type": "address"
        }
      ],
      "name": "__BaseUpgradeablePausable__init",
      "outputs": [],
      "stateMutability": "nonpayable",
      "type": "function"
    },
    {
      "inputs": [],
      "name": "__PauserPausable__init",
      "outputs": [],
      "stateMutability": "nonpayable",
      "type": "function"
    },
    {
      "inputs": [
        {
          "internalType": "address",
          "name": "owner",
          "type": "address"
        },
        {
          "internalType": "contract GoldfinchConfig",
          "name": "_config",
          "type": "address"
        }
      ],
      "name": "__initialize__",
      "outputs": [],
      "stateMutability": "nonpayable",
      "type": "function"
    },
    {
      "inputs": [
        {
          "internalType": "uint256",
          "name": "_interestPaymentAmount",
          "type": "uint256"
        }
      ],
      "name": "allocateRewards",
      "outputs": [],
      "stateMutability": "nonpayable",
      "type": "function"
    },
    {
      "inputs": [],
      "name": "config",
      "outputs": [
        {
          "internalType": "contract GoldfinchConfig",
          "name": "",
          "type": "address"
        }
      ],
      "stateMutability": "view",
      "type": "function"
    },
    {
      "inputs": [
        {
          "internalType": "bytes32",
          "name": "role",
          "type": "bytes32"
        }
      ],
      "name": "getRoleAdmin",
      "outputs": [
        {
          "internalType": "bytes32",
          "name": "",
          "type": "bytes32"
        }
      ],
      "stateMutability": "view",
      "type": "function"
    },
    {
      "inputs": [
        {
          "internalType": "bytes32",
          "name": "role",
          "type": "bytes32"
        },
        {
          "internalType": "uint256",
          "name": "index",
          "type": "uint256"
        }
      ],
      "name": "getRoleMember",
      "outputs": [
        {
          "internalType": "address",
          "name": "",
          "type": "address"
        }
      ],
      "stateMutability": "view",
      "type": "function"
    },
    {
      "inputs": [
        {
          "internalType": "bytes32",
          "name": "role",
          "type": "bytes32"
        }
      ],
      "name": "getRoleMemberCount",
      "outputs": [
        {
          "internalType": "uint256",
          "name": "",
          "type": "uint256"
        }
      ],
      "stateMutability": "view",
      "type": "function"
    },
    {
      "inputs": [
        {
          "internalType": "bytes32",
          "name": "role",
          "type": "bytes32"
        },
        {
          "internalType": "address",
          "name": "account",
          "type": "address"
        }
      ],
      "name": "grantRole",
      "outputs": [],
      "stateMutability": "nonpayable",
      "type": "function"
    },
    {
      "inputs": [
        {
          "internalType": "bytes32",
          "name": "role",
          "type": "bytes32"
        },
        {
          "internalType": "address",
          "name": "account",
          "type": "address"
        }
      ],
      "name": "hasRole",
      "outputs": [
        {
          "internalType": "bool",
          "name": "",
          "type": "bool"
        }
      ],
      "stateMutability": "view",
      "type": "function"
    },
    {
      "inputs": [],
      "name": "isAdmin",
      "outputs": [
        {
          "internalType": "bool",
          "name": "",
          "type": "bool"
        }
      ],
      "stateMutability": "view",
      "type": "function"
    },
    {
      "inputs": [],
      "name": "maxInterestDollarsEligible",
      "outputs": [
        {
          "internalType": "uint256",
          "name": "",
          "type": "uint256"
        }
      ],
      "stateMutability": "view",
      "type": "function"
    },
    {
      "inputs": [],
      "name": "pause",
      "outputs": [],
      "stateMutability": "nonpayable",
      "type": "function"
    },
    {
      "inputs": [],
      "name": "paused",
      "outputs": [
        {
          "internalType": "bool",
          "name": "",
          "type": "bool"
        }
      ],
      "stateMutability": "view",
      "type": "function"
    },
    {
      "inputs": [
        {
          "internalType": "uint256",
          "name": "tokenId",
          "type": "uint256"
        }
      ],
      "name": "poolTokenClaimableRewards",
      "outputs": [
        {
          "internalType": "uint256",
          "name": "",
          "type": "uint256"
        }
      ],
      "stateMutability": "view",
      "type": "function"
    },
    {
      "inputs": [
        {
          "internalType": "address",
          "name": "",
          "type": "address"
        }
      ],
      "name": "pools",
      "outputs": [
        {
          "internalType": "uint256",
          "name": "accRewardsPerPrincipalDollar",
          "type": "uint256"
        }
      ],
      "stateMutability": "view",
      "type": "function"
    },
    {
      "inputs": [
        {
          "internalType": "bytes32",
          "name": "role",
          "type": "bytes32"
        },
        {
          "internalType": "address",
          "name": "account",
          "type": "address"
        }
      ],
      "name": "renounceRole",
      "outputs": [],
      "stateMutability": "nonpayable",
      "type": "function"
    },
    {
      "inputs": [
        {
          "internalType": "bytes32",
          "name": "role",
          "type": "bytes32"
        },
        {
          "internalType": "address",
          "name": "account",
          "type": "address"
        }
      ],
      "name": "revokeRole",
      "outputs": [],
      "stateMutability": "nonpayable",
      "type": "function"
    },
    {
      "inputs": [
        {
          "internalType": "uint256",
          "name": "_maxInterestDollarsEligible",
          "type": "uint256"
        }
      ],
      "name": "setMaxInterestDollarsEligible",
      "outputs": [],
      "stateMutability": "nonpayable",
      "type": "function"
    },
    {
      "inputs": [
        {
          "internalType": "address",
          "name": "poolAddress",
          "type": "address"
        },
        {
          "internalType": "uint256",
          "name": "tokenId",
          "type": "uint256"
        }
      ],
      "name": "setPoolTokenAccRewardsPerPrincipalDollarAtMint",
      "outputs": [],
      "stateMutability": "nonpayable",
      "type": "function"
    },
    {
      "inputs": [
        {
          "internalType": "uint256",
          "name": "_totalInterestReceived",
          "type": "uint256"
        }
      ],
      "name": "setTotalInterestReceived",
      "outputs": [],
      "stateMutability": "nonpayable",
      "type": "function"
    },
    {
      "inputs": [
        {
          "internalType": "uint256",
          "name": "_totalRewards",
          "type": "uint256"
        }
      ],
      "name": "setTotalRewards",
      "outputs": [],
      "stateMutability": "nonpayable",
      "type": "function"
    },
    {
      "inputs": [
        {
          "internalType": "uint256",
          "name": "",
          "type": "uint256"
        }
      ],
      "name": "tokens",
      "outputs": [
        {
          "internalType": "uint256",
          "name": "rewardsClaimed",
          "type": "uint256"
        },
        {
          "internalType": "uint256",
          "name": "accRewardsPerPrincipalDollarAtMint",
          "type": "uint256"
        }
      ],
      "stateMutability": "view",
      "type": "function"
    },
    {
      "inputs": [],
      "name": "totalInterestReceived",
      "outputs": [
        {
          "internalType": "uint256",
          "name": "",
          "type": "uint256"
        }
      ],
      "stateMutability": "view",
      "type": "function"
    },
    {
      "inputs": [],
      "name": "totalRewardPercentOfTotalGFI",
      "outputs": [
        {
          "internalType": "uint256",
          "name": "",
          "type": "uint256"
        }
      ],
      "stateMutability": "view",
      "type": "function"
    },
    {
      "inputs": [],
      "name": "totalRewards",
      "outputs": [
        {
          "internalType": "uint256",
          "name": "",
          "type": "uint256"
        }
      ],
      "stateMutability": "view",
      "type": "function"
    },
    {
      "inputs": [],
      "name": "unpause",
      "outputs": [],
      "stateMutability": "nonpayable",
      "type": "function"
    },
    {
      "inputs": [],
      "name": "updateGoldfinchConfig",
      "outputs": [],
      "stateMutability": "nonpayable",
      "type": "function"
    },
    {
      "inputs": [
        {
          "internalType": "uint256",
          "name": "tokenId",
          "type": "uint256"
        }
      ],
      "name": "withdraw",
      "outputs": [],
      "stateMutability": "nonpayable",
      "type": "function"
    },
    {
      "inputs": [
        {
          "internalType": "uint256[]",
          "name": "tokenIds",
          "type": "uint256[]"
        }
      ],
      "name": "withdrawMultiple",
      "outputs": [],
      "stateMutability": "nonpayable",
      "type": "function"
    }
  ],
  "transactionHash": "0xfe4130a42fbb41d7aed4da760f41008ef0f38d6a4bc68935acdc37da54641e67",
  "args": [],
  "solcInputHash": "ccc98fd8226eea26f3f19fdeeee195a9",
  "bytecode": "0x608060405234801561001057600080fd5b50612a80806100206000396000f3fe608060405234801561001057600080fd5b50600436106101bb5760003560e01c80636efbe643116100fa578063a4063dbc1161009d578063a4063dbc1461035a578063b6db75a01461036d578063b6f8fd4014610375578063ca15c87314610388578063ccf5a9711461039b578063d547741f146103a3578063e58378bb146103b6578063e5b79106146103be578063e63ab1e9146103d1576101bb565b80636efbe643146102e157806379502c55146102f45780638456cb591461030957806387f5769e146103115780639010d07c1461031957806391d148541461032c578063927356751461033f578063a217fddf14610352576101bb565b80632f2ff15d116101625780632f2ff15d1461025a57806336568abe1461026d578063369dfa84146102805780633f4ba83a146102935780634f64b2be1461029b5780634f92a728146102bc578063526d81f6146102c45780635c975abb146102cc576101bb565b8063097616a3146101c05780630c9dbe94146101d55780630e15561a146101f3578063242a7286146101fb578063248a9ca31461020e5780632879e4de1461022157806328fc33c7146102345780632e1a7d4d14610247575b600080fd5b6101d36101ce366004612192565b6103d9565b005b6101dd610512565b6040516101ea91906123dd565b60405180910390f35b6101dd610519565b6101d36102093660046122bc565b610520565b6101dd61021c3660046122bc565b610595565b6101d361022f3660046122bc565b6105ad565b6101d36102423660046122bc565b610617565b6101d36102553660046122bc565b6106dd565b6101d36102683660046122d4565b610b96565b6101d361027b3660046122d4565b610bda565b6101dd61028e3660046122bc565b610c1c565b6101d3610d5a565b6102ae6102a93660046122bc565b610d9a565b6040516101ea9291906129e7565b6101d3610db4565b6101d3610e62565b6102d4610eec565b6040516101ea91906123d2565b6101d36102ef366004612202565b610ef5565b6102fc611114565b6040516101ea91906123a5565b6101d3611124565b6101dd611162565b6102fc6103273660046122f8565b611169565b6102d461033a3660046122d4565b61118a565b6101d361034d3660046122bc565b6111a2565b6101dd6112c7565b6101dd610368366004612192565b6112cc565b6102d46112df565b6101d36103833660046121ca565b611300565b6101dd6103963660046122bc565b6113e6565b6101dd6113fd565b6101d36103b13660046122d4565b611404565b6101dd61143e565b6101d36103cc36600461222d565b611450565b6101dd61149b565b600054610100900460ff16806103f257506103f26114ad565b80610400575060005460ff16155b6104255760405162461bcd60e51b815260040161041c90612879565b60405180910390fd5b600054610100900460ff16158015610450576000805460ff1961ff0019909116610100171660011790555b6001600160a01b0382166104765760405162461bcd60e51b815260040161041c9061279e565b61047e6114b3565b610486611534565b61048e6115c0565b6104a6600080516020612a0b83398151915283610bd0565b6104be600080516020612a2b83398151915283610bd0565b6104e4600080516020612a2b833981519152600080516020612a0b83398151915261164f565b6104fc600080516020612a0b8339815191528061164f565b801561050e576000805461ff00191690555b5050565b6101c75481565b6101c45481565b6105286112df565b6105445760405162461bcd60e51b815260040161041c906128f0565b6101c5819055610552611664565b6001600160a01b03167fbd23f227ee01d5b74d28337b4aa192bdb10824b0f2ad21e725a2f08af91ec81b8260405161058a91906123dd565b60405180910390a250565b6000818152606560205260409020600201545b919050565b6105b56112df565b6105d15760405162461bcd60e51b815260040161041c906128f0565b6101c68190556105df611664565b6001600160a01b03167feabaa681e9990f0da888d0feb7ec727809a7e832013b120a9a248ba6b16d5f448260405161058a91906123dd565b6101c35461062d906001600160a01b0316611668565b6001600160a01b031663b5ada6d8610643611664565b6040518263ffffffff1660e01b815260040161065f91906123a5565b60206040518083038186803b15801561067757600080fd5b505afa15801561068b573d6000803e3d6000fd5b505050506040513d601f19601f820116820180604052508101906106af919061229c565b6106cb5760405162461bcd60e51b815260040161041c9061267b565b80156106da576106da81611673565b50565b60006106e882610c1c565b60008381526101c860205260408120546101c35492935091610712906001600160a01b0316611668565b905061071c61215a565b60405163463d31d760e11b81526001600160a01b03831690638c7a63ae906107489088906004016123dd565b60a06040518083038186803b15801561076057600080fd5b505afa158015610774573d6000803e3d6000fd5b505050506040513d601f19601f820116820180604052508101906107989190612319565b80516101c354919250906107b4906001600160a01b0316611668565b6001600160a01b031663b5ada6d8826040518263ffffffff1660e01b81526004016107df91906123a5565b60206040518083038186803b1580156107f757600080fd5b505afa15801561080b573d6000803e3d6000fd5b505050506040513d601f19601f8201168201806040525081019061082f919061229c565b61084b5760405162461bcd60e51b815260040161041c9061267b565b6040516331a9108f60e11b81526001600160a01b03841690636352211e906108779089906004016123dd565b60206040518083038186803b15801561088f57600080fd5b505afa1580156108a3573d6000803e3d6000fd5b505050506040513d601f19601f820116820180604052508101906108c791906121ae565b6001600160a01b0316336001600160a01b0316146108f75760405162461bcd60e51b815260040161041c906127d3565b6000819050806001600160a01b0316635c975abb6040518163ffffffff1660e01b815260040160206040518083038186803b15801561093557600080fd5b505afa158015610949573d6000803e3d6000fd5b505050506040513d601f19601f8201168201806040525081019061096d919061229c565b1561098a5760405162461bcd60e51b815260040161041c9061284b565b6000829050806001600160a01b03166347195e136040518163ffffffff1660e01b815260040160206040518083038186803b1580156109c857600080fd5b505afa1580156109dc573d6000803e3d6000fd5b505050506040513d601f19601f82011682018060405250810190610a0091906121ae565b6001600160a01b03166381c17a156040518163ffffffff1660e01b815260040160206040518083038186803b158015610a3857600080fd5b505afa158015610a4c573d6000803e3d6000fd5b505050506040513d601f19601f82011682018060405250810190610a70919061229c565b15610a8d5760405162461bcd60e51b815260040161041c906125c6565b610a978688611785565b60008981526101c860205260409020556101c354610b4390610ac1906001600160a01b03166117aa565b6040516331a9108f60e11b81526001600160a01b03881690636352211e90610aed908d906004016123dd565b60206040518083038186803b158015610b0557600080fd5b505afa158015610b19573d6000803e3d6000fd5b505050506040513d601f19601f82011682018060405250810190610b3d91906121ae565b896117b5565b87610b4c611664565b6001600160a01b03167f999239c1f24bf85f910f36990b41859efd8ac66cded6e95ba0aef922b9cc571889604051610b8491906123dd565b60405180910390a35050505050505050565b600082815260656020526040902060020154610bb49061033a611664565b610bd05760405162461bcd60e51b815260040161041c906124c8565b61050e82826117f1565b610be2611664565b6001600160a01b0316816001600160a01b031614610c125760405162461bcd60e51b815260040161041c9061293b565b61050e828261185a565b6101c3546000908190610c37906001600160a01b0316611668565b9050610c4161215a565b60405163463d31d760e11b81526001600160a01b03831690638c7a63ae90610c6d9087906004016123dd565b60a06040518083038186803b158015610c8557600080fd5b505afa158015610c99573d6000803e3d6000fd5b505050506040513d601f19601f82011682018060405250810190610cbd9190612319565b60008581526101c8602090815260408083206001015484516001600160a01b031684526101c99092528220549293509091610cf7916118c3565b90506000610d1c610d06611905565b60008881526101c8602052604090205490611911565b9050610d50610d29611905565b610d4a83610d4486610d3e896040015161194b565b90611911565b906118c3565b9061196a565b9695505050505050565b610d74600080516020612a2b83398151915261033a611664565b610d905760405162461bcd60e51b815260040161041c906125f8565b610d986119ac565b565b6101c8602052600090815260409020805460019091015482565b610dbc6112df565b610dd85760405162461bcd60e51b815260040161041c906128f0565b6101c354610dee906001600160a01b0316611a18565b6101c380546001600160a01b0319166001600160a01b0392909216919091179055610e17611664565b6101c3546040516001600160a01b03928316927f7c76c17de59691df2ef36af3938c91f69cd18ad27f67a54a38e38686f0b40c4992610e58929116906123a5565b60405180910390a2565b600054610100900460ff1680610e7b5750610e7b6114ad565b80610e89575060005460ff16155b610ea55760405162461bcd60e51b815260040161041c90612879565b600054610100900460ff16158015610ed0576000805460ff1961ff0019909116610100171660011790555b610ed8611534565b80156106da576000805461ff001916905550565b60975460ff1690565b6101c354610f0b906001600160a01b0316611a98565b6001600160a01b0316610f1c611664565b6001600160a01b031614610f425760405162461bcd60e51b815260040161041c906128c7565b6101c354610f58906001600160a01b0316611668565b6001600160a01b031663b5ada6d8836040518263ffffffff1660e01b8152600401610f8391906123a5565b60206040518083038186803b158015610f9b57600080fd5b505afa158015610faf573d6000803e3d6000fd5b505050506040513d601f19601f82011682018060405250810190610fd3919061229c565b610fef5760405162461bcd60e51b815260040161041c9061267b565b60008181526101c860205260409020600101541561100c5761050e565b6101c354600090611025906001600160a01b0316611668565b905061102f61215a565b60405163463d31d760e11b81526001600160a01b03831690638c7a63ae9061105b9086906004016123dd565b60a06040518083038186803b15801561107357600080fd5b505afa158015611087573d6000803e3d6000fd5b505050506040513d601f19601f820116820180604052508101906110ab9190612319565b905080600001516001600160a01b0316846001600160a01b0316146110e25760405162461bcd60e51b815260040161041c9061247b565b516001600160a01b031660009081526101c960209081526040808320548584526101c890925290912060010155505050565b6101c3546001600160a01b031681565b61113e600080516020612a2b83398151915261033a611664565b61115a5760405162461bcd60e51b815260040161041c906125f8565b610d98611ab0565b6101c65481565b60008281526065602052604081206111819083611b09565b90505b92915050565b60008281526065602052604081206111819083611b15565b6111aa6112df565b6111c65760405162461bcd60e51b815260040161041c906128f0565b6101c48190556101c3546000906111e5906001600160a01b03166117aa565b6001600160a01b03166318160ddd6040518163ffffffff1660e01b815260040160206040518083038186803b15801561121d57600080fd5b505afa158015611231573d6000803e3d6000fd5b505050506040513d601f19601f82011682018060405250810190611255919061238d565b90506112726064610d3e83610d4a61126b611905565b8790611911565b6101c75561127e611664565b6001600160a01b03167fa75d65370da375e8498bef76d6c105c80386c2d14e939f1c680da7f9a411c609836101c7546040516112bb9291906129e7565b60405180910390a25050565b600081565b6101c96020526000908152604090205481565b60006112fb600080516020612a0b83398151915261033a611664565b905090565b600054610100900460ff168061131957506113196114ad565b80611327575060005460ff16155b6113435760405162461bcd60e51b815260040161041c90612879565b600054610100900460ff1615801561136e576000805460ff1961ff0019909116610100171660011790555b6001600160a01b0383161580159061138e57506001600160a01b03821615155b6113aa5760405162461bcd60e51b815260040161041c90612545565b6113b3836103d9565b6101c380546001600160a01b0319166001600160a01b03841617905580156113e1576000805461ff00191690555b505050565b600081815260656020526040812061118490611b2a565b6101c55481565b6000828152606560205260409020600201546114229061033a611664565b610c125760405162461bcd60e51b815260040161041c906126ed565b600080516020612a0b83398151915281565b8061146d5760405162461bcd60e51b815260040161041c90612767565b60005b818110156113e15761149383838381811061148757fe5b905060200201356106dd565b600101611470565b600080516020612a2b83398151915281565b303b1590565b600054610100900460ff16806114cc57506114cc6114ad565b806114da575060005460ff16155b6114f65760405162461bcd60e51b815260040161041c90612879565b600054610100900460ff16158015610ed8576000805460ff1961ff00199091166101001716600117905580156106da576000805461ff001916905550565b600054610100900460ff168061154d575061154d6114ad565b8061155b575060005460ff16155b6115775760405162461bcd60e51b815260040161041c90612879565b600054610100900460ff161580156115a2576000805460ff1961ff0019909116610100171660011790555b6097805460ff1916905580156106da576000805461ff001916905550565b600054610100900460ff16806115d957506115d96114ad565b806115e7575060005460ff16155b6116035760405162461bcd60e51b815260040161041c90612879565b600054610100900460ff1615801561162e576000805460ff1961ff0019909116610100171660011790555b60c9805460ff1916600117905580156106da576000805461ff001916905550565b60009182526065602052604090912060020155565b3390565b600061118482611a98565b6101c6546101c5546116848261194b565b1061168f57506106da565b6000611699611664565b905060006116a684611b35565b6001600160a01b03831660008181526101c960209081526040808320815163dd0ec24160e01b81529151959650879590949263dd0ec2419260048082019391829003018186803b1580156116f957600080fd5b505afa15801561170d573d6000803e3d6000fd5b505050506040513d601f19601f82011682018060405250810190611731919061238d565b905080611743575050505050506106da565b61176c6117646117528361194b565b610d4a61175d611905565b8890611911565b835490611785565b82556117788688611785565b6101c65550505050505050565b6000828201838110156111815760405162461bcd60e51b815260040161041c90612644565b600061118482611d0b565b6113e18383836040518060400160405280601881526020017704661696c656420746f207472616e736665722045524332360441b815250611d23565b60008281526065602052604090206118099082611df5565b1561050e57611816611664565b6001600160a01b0316816001600160a01b0316837f2f8788117e7eff1d82e926ec794901d17c78024a50270940304540a733656f0d60405160405180910390a45050565b60008281526065602052604090206118729082611e0a565b1561050e5761187f611664565b6001600160a01b0316816001600160a01b0316837ff6391f5c32d9c69d2a47ea670b442974b53935d1edc7fd64eb21e047a839171b60405160405180910390a45050565b600061118183836040518060400160405280601e81526020017f536166654d6174683a207375627472616374696f6e206f766572666c6f770000815250611e1f565b670de0b6b3a764000090565b60008261192057506000611184565b8282028284828161192d57fe5b04146111815760405162461bcd60e51b815260040161041c9061280a565b6000611184611958611e4b565b610d4a611963611905565b8590611911565b600061118183836040518060400160405280601a81526020017f536166654d6174683a206469766973696f6e206279207a65726f000000000000815250611e52565b60975460ff166119ce5760405162461bcd60e51b815260040161041c90612517565b6097805460ff191690557f5db9ee0a495bf2e6ff9c91a7834c1ba4fdd244a5e8aa4e537bd38aeae4b073aa611a01611664565b604051611a0e91906123a5565b60405180910390a1565b60006001600160a01b03821663b93f9b0a600b5b6040518263ffffffff1660e01b8152600401611a4891906123dd565b60206040518083038186803b158015611a6057600080fd5b505afa158015611a74573d6000803e3d6000fd5b505050506040513d601f19601f8201168201806040525081019061118491906121ae565b60006001600160a01b03821663b93f9b0a600c611a2c565b60975460ff1615611ad35760405162461bcd60e51b815260040161041c9061273d565b6097805460ff191660011790557f62e78cea01bee320cd4e420270b5ea74000d11b0c9f74754ebdbfc544b05a258611a01611664565b60006111818383611e89565b6000611181836001600160a01b038416611ece565b600061118482611ee6565b6101c3546000908190611b50906001600160a01b03166117aa565b6001600160a01b03166318160ddd6040518163ffffffff1660e01b815260040160206040518083038186803b158015611b8857600080fd5b505afa158015611b9c573d6000803e3d6000fd5b505050506040513d601f19601f82011682018060405250810190611bc0919061238d565b90506000611bcd8461194b565b90506000611bdd6101c65461194b565b90506000611bea82611eea565b90506000611c11611c0c611bfd8661202b565b611c068661202b565b90611785565b61194b565b90506101c554811115611c2457506101c5545b6000611c3383610d4484611eea565b90506000611c436101c554611eea565b905060008111611c655760405162461bcd60e51b815260040161041c906126a2565b6000611c95611c72611905565b610d4a8a610d3e6064610d4a88610d4a6101c7548c61191190919063ffffffff16565b90506000611cd3611ca4611905565b610d4a8b610d3e6064610d4a89610d4a6101c754610d3e611cce611cc6611905565b600190611911565b611eea565b9050611cdf8186611911565b8210611cfd5760405162461bcd60e51b815260040161041c9061298a565b509998505050505050505050565b60006001600160a01b03821663b93f9b0a6012611a2c565b6001600160a01b038316611d495760405162461bcd60e51b815260040161041c9061258f565b60405163a9059cbb60e01b81526000906001600160a01b0386169063a9059cbb90611d7a90879087906004016123b9565b602060405180830381600087803b158015611d9457600080fd5b505af1158015611da8573d6000803e3d6000fd5b505050506040513d601f19601f82011682018060405250810190611dcc919061229c565b90508181611ded5760405162461bcd60e51b815260040161041c91906123e6565b505050505050565b6000611181836001600160a01b03841661204a565b6000611181836001600160a01b038416612094565b60008184841115611e435760405162461bcd60e51b815260040161041c91906123e6565b505050900390565b620f424090565b60008183611e735760405162461bcd60e51b815260040161041c91906123e6565b506000838581611e7f57fe5b0495945050505050565b81546000908210611eac5760405162461bcd60e51b815260040161041c90612439565b826000018281548110611ebb57fe5b9060005260206000200154905092915050565b60009081526001919091016020526040902054151590565b5490565b600081611ef9575060006105a8565b816001600160801b8210611f125760809190911c9060401b5b600160401b8210611f285760409190911c9060201b5b6401000000008210611f3f5760209190911c9060101b5b620100008210611f545760109190911c9060081b5b6101008210611f685760089190911c9060041b5b60108210611f7b5760049190911c9060021b5b60088210611f875760011b5b6001818581611f9257fe5b048201901c90506001818581611fa457fe5b048201901c90506001818581611fb657fe5b048201901c90506001818581611fc857fe5b048201901c90506001818581611fda57fe5b048201901c90506001818581611fec57fe5b048201901c90506001818581611ffe57fe5b048201901c9050600081858161201057fe5b0490508082106120205780612022565b815b95945050505050565b600061118461204361203b611e4b565b610d4a611905565b839061196a565b60006120568383611ece565b61208c57508154600181810184556000848152602080822090930184905584548482528286019093526040902091909155611184565b506000611184565b6000818152600183016020526040812054801561215057835460001980830191908101906000908790839081106120c757fe5b90600052602060002001549050808760000184815481106120e457fe5b60009182526020808320909101929092558281526001898101909252604090209084019055865487908061211457fe5b60019003818190600052602060002001600090559055866001016000878152602001908152602001600020600090556001945050505050611184565b6000915050611184565b6040518060a0016040528060006001600160a01b03168152602001600081526020016000815260200160008152602001600081525090565b6000602082840312156121a3578081fd5b8135611181816129f5565b6000602082840312156121bf578081fd5b8151611181816129f5565b600080604083850312156121dc578081fd5b82356121e7816129f5565b915060208301356121f7816129f5565b809150509250929050565b60008060408385031215612214578182fd5b823561221f816129f5565b946020939093013593505050565b6000806020838503121561223f578182fd5b823567ffffffffffffffff80821115612256578384fd5b818501915085601f830112612269578384fd5b813581811115612277578485fd5b866020808302850101111561228a578485fd5b60209290920196919550909350505050565b6000602082840312156122ad578081fd5b81518015158114611181578182fd5b6000602082840312156122cd578081fd5b5035919050565b600080604083850312156122e6578182fd5b8235915060208301356121f7816129f5565b6000806040838503121561230a578182fd5b50508035926020909101359150565b600060a0828403121561232a578081fd5b60405160a0810181811067ffffffffffffffff82111715612349578283fd5b6040528251612357816129f5565b80825250602083015160208201526040830151604082015260608301516060820152608083015160808201528091505092915050565b60006020828403121561239e578081fd5b5051919050565b6001600160a01b0391909116815260200190565b6001600160a01b03929092168252602082015260400190565b901515815260200190565b90815260200190565b6000602080835283518082850152825b81811015612412578581018301518582016040015282016123f6565b818111156124235783604083870101525b50601f01601f1916929092016040019392505050565b60208082526022908201527f456e756d657261626c655365743a20696e646578206f7574206f6620626f756e604082015261647360f01b606082015260800190565b6020808252602d908201527f506f6f6c41646472657373206d75737420657175616c20506f6f6c546f6b656e60408201526c20706f6f6c206164647265737360981b606082015260800190565b6020808252602f908201527f416363657373436f6e74726f6c3a2073656e646572206d75737420626520616e60408201526e0818591b5a5b881d1bc819dc985b9d608a1b606082015260800190565b60208082526014908201527314185d5cd8589b194e881b9bdd081c185d5cd95960621b604082015260600190565b6020808252602a908201527f4f776e657220616e6420636f6e666967206164647265737365732063616e6e6f6040820152697420626520656d70747960b01b606082015260800190565b6020808252601a908201527f43616e27742073656e6420746f207a65726f2061646472657373000000000000604082015260600190565b602080825260189082015277506f6f6c206973206c617465206f6e207061796d656e747360401b604082015260600190565b6020808252602c908201527f4d75737420686176652070617573657220726f6c6520746f20706572666f726d60408201526b103a3434b99030b1ba34b7b760a11b606082015260800190565b6020808252601b908201527f536166654d6174683a206164646974696f6e206f766572666c6f770000000000604082015260600190565b6020808252600d908201526c496e76616c696420706f6f6c2160981b604082015260600190565b6020808252602b908201527f6d6178496e746572657374446f6c6c617273456c696769626c65206d7573742060408201526a6e6f74206265207a65726f60a81b606082015260800190565b60208082526030908201527f416363657373436f6e74726f6c3a2073656e646572206d75737420626520616e60408201526f2061646d696e20746f207265766f6b6560801b606082015260800190565b60208082526010908201526f14185d5cd8589b194e881c185d5cd95960821b604082015260600190565b6020808252601e908201527f546f6b656e73496473206c656e677468206d757374206e6f7420626520300000604082015260600190565b6020808252818101527f4f776e65722063616e6e6f7420626520746865207a65726f2061646472657373604082015260600190565b6020808252601a908201527f4d757374206265206f776e6572206f6620506f6f6c546f6b656e000000000000604082015260600190565b60208082526021908201527f536166654d6174683a206d756c7469706c69636174696f6e206f766572666c6f6040820152607760f81b606082015260800190565b602080825260149082015273141bdbdb081dda5d1a191c985dc81c185d5cd95960621b604082015260600190565b6020808252602e908201527f436f6e747261637420696e7374616e63652068617320616c726561647920626560408201526d195b881a5b9a5d1a585b1a5e995960921b606082015260800190565b6020808252600f908201526e496e76616c69642073656e6465722160881b604082015260600190565b6020808252602b908201527f4d75737420686176652061646d696e20726f6c6520746f20706572666f726d2060408201526a3a3434b99030b1ba34b7b760a91b606082015260800190565b6020808252602f908201527f416363657373436f6e74726f6c3a2063616e206f6e6c792072656e6f756e636560408201526e103937b632b9903337b91039b2b63360891b606082015260800190565b6020808252603d908201527f6e657747726f7373526577617264732063616e6e6f742062652067726561746560408201527f72207468656e20746865206d6178206766692070657220646f6c6c6172000000606082015260800190565b918252602082015260400190565b6001600160a01b03811681146106da57600080fdfeb19546dff01e856fb3f010c267a7b1c60363cf8a4664e21cc89c26224620214e65d7a28e3265b37a6474929f336521b332c1681b933f6cb9f3376673440d862aa26469706673582212201590f384fc4af2b0b73cfe7299611759afc464a223b7a67fb19d2fb92e0f0d2a64736f6c634300060c0033",
  "devdoc": {
    "kind": "dev",
    "methods": {
      "allocateRewards(uint256)": {
        "params": {
          "_interestPaymentAmount": "The amount of total dollars the interest payment, expects 10^6 value"
        }
      },
      "getRoleAdmin(bytes32)": {
        "details": "Returns the admin role that controls `role`. See {grantRole} and {revokeRole}. To change a role's admin, use {_setRoleAdmin}."
      },
      "getRoleMember(bytes32,uint256)": {
        "details": "Returns one of the accounts that have `role`. `index` must be a value between 0 and {getRoleMemberCount}, non-inclusive. Role bearers are not sorted in any particular way, and their ordering may change at any point. WARNING: When using {getRoleMember} and {getRoleMemberCount}, make sure you perform all queries on the same block. See the following https://forum.openzeppelin.com/t/iterating-over-elements-on-enumerableset-in-openzeppelin-contracts/2296[forum post] for more information."
      },
      "getRoleMemberCount(bytes32)": {
        "details": "Returns the number of accounts that have `role`. Can be used together with {getRoleMember} to enumerate all bearers of a role."
      },
      "grantRole(bytes32,address)": {
        "details": "Grants `role` to `account`. If `account` had not been already granted `role`, emits a {RoleGranted} event. Requirements: - the caller must have ``role``'s admin role."
      },
      "hasRole(bytes32,address)": {
        "details": "Returns `true` if `account` has been granted `role`."
      },
      "pause()": {
        "details": "Pauses all functions guarded by Pause See {Pausable-_pause}. Requirements: - the caller must have the PAUSER_ROLE."
      },
      "paused()": {
        "details": "Returns true if the contract is paused, and false otherwise."
      },
      "poolTokenClaimableRewards(uint256)": {
        "params": {
          "tokenId": "Pool token id"
        },
        "returns": {
          "_0": "The amount of GFI claimable"
        }
      },
      "renounceRole(bytes32,address)": {
        "details": "Revokes `role` from the calling account. Roles are often managed via {grantRole} and {revokeRole}: this function's purpose is to provide a mechanism for accounts to lose their privileges if they are compromised (such as when a trusted device is misplaced). If the calling account had been granted `role`, emits a {RoleRevoked} event. Requirements: - the caller must be `account`."
      },
      "revokeRole(bytes32,address)": {
        "details": "Revokes `role` from `account`. If `account` had been granted `role`, emits a {RoleRevoked} event. Requirements: - the caller must have ``role``'s admin role."
      },
      "setMaxInterestDollarsEligible(uint256)": {
        "params": {
          "_maxInterestDollarsEligible": "The amount of interest dollars eligible for GFI rewards, expects 10^18 value"
        }
      },
      "setPoolTokenAccRewardsPerPrincipalDollarAtMint(address,uint256)": {
        "params": {
          "tokenId": "Pool token id"
        }
      },
      "setTotalInterestReceived(uint256)": {
        "params": {
          "_totalInterestReceived": "The amount of interest the protocol has received to date, expects 10^6 value"
        }
      },
      "setTotalRewards(uint256)": {
        "params": {
          "_totalRewards": "The amount of GFI rewards available, expects 10^18 value"
        }
      },
      "unpause()": {
        "details": "Unpauses the contract See {Pausable-_unpause}. Requirements: - the caller must have the Pauser role"
      },
      "withdraw(uint256)": {
        "params": {
          "tokenId": "Pool token id"
        }
      },
      "withdrawMultiple(uint256[])": {
        "params": {
          "tokenIds": "Array of pool token id"
        }
      }
    },
    "version": 1
  },
  "userdoc": {
    "kind": "user",
    "methods": {
      "allocateRewards(uint256)": {
        "notice": "Calculates the accRewardsPerPrincipalDollar for a given pool, when a interest payment is received by the protocol"
      },
      "poolTokenClaimableRewards(uint256)": {
        "notice": "Calculate the gross available gfi rewards for a PoolToken"
      },
      "setMaxInterestDollarsEligible(uint256)": {
        "notice": "Set the max dollars across the entire protocol that are eligible for GFI rewards"
      },
      "setPoolTokenAccRewardsPerPrincipalDollarAtMint(address,uint256)": {
        "notice": "When a pool token is minted for multiple drawdowns, set accRewardsPerPrincipalDollarAtMint to the current accRewardsPerPrincipalDollar price"
      },
      "setTotalInterestReceived(uint256)": {
        "notice": "Set the total interest received to date. This should only be called once on contract deploy."
      },
      "setTotalRewards(uint256)": {
        "notice": "Set the total gfi rewards and the % of total GFI"
      },
      "withdraw(uint256)": {
        "notice": "PoolToken request to withdraw all allocated rewards"
      },
      "withdrawMultiple(uint256[])": {
        "notice": "PoolToken request to withdraw multiple PoolTokens allocated rewards"
      }
    },
    "version": 1
  },
  "storageLayout": {
    "storage": [
      {
        "astId": 151,
        "contract": "contracts/rewards/BackerRewards.sol:BackerRewards",
        "label": "initialized",
        "offset": 0,
        "slot": "0",
        "type": "t_bool"
      },
      {
        "astId": 154,
        "contract": "contracts/rewards/BackerRewards.sol:BackerRewards",
        "label": "initializing",
        "offset": 1,
        "slot": "0",
        "type": "t_bool"
      },
      {
        "astId": 219,
        "contract": "contracts/rewards/BackerRewards.sol:BackerRewards",
        "label": "______gap",
        "offset": 0,
        "slot": "1",
        "type": "t_array(t_uint256)50_storage"
      },
      {
        "astId": 144,
        "contract": "contracts/rewards/BackerRewards.sol:BackerRewards",
        "label": "__gap",
        "offset": 0,
        "slot": "51",
        "type": "t_array(t_uint256)50_storage"
      },
      {
        "astId": 264,
        "contract": "contracts/rewards/BackerRewards.sol:BackerRewards",
        "label": "_roles",
        "offset": 0,
        "slot": "101",
        "type": "t_mapping(t_bytes32,t_struct(RoleData)260_storage)"
      },
      {
        "astId": 509,
        "contract": "contracts/rewards/BackerRewards.sol:BackerRewards",
        "label": "__gap",
        "offset": 0,
        "slot": "102",
        "type": "t_array(t_uint256)49_storage"
      },
      {
        "astId": 4429,
        "contract": "contracts/rewards/BackerRewards.sol:BackerRewards",
        "label": "_paused",
        "offset": 0,
        "slot": "151",
        "type": "t_bool"
      },
      {
        "astId": 4518,
        "contract": "contracts/rewards/BackerRewards.sol:BackerRewards",
        "label": "__gap",
        "offset": 0,
        "slot": "152",
        "type": "t_array(t_uint256)49_storage"
      },
      {
        "astId": 4527,
        "contract": "contracts/rewards/BackerRewards.sol:BackerRewards",
        "label": "_notEntered",
        "offset": 0,
        "slot": "201",
        "type": "t_bool"
      },
      {
        "astId": 4568,
        "contract": "contracts/rewards/BackerRewards.sol:BackerRewards",
        "label": "__gap",
        "offset": 0,
        "slot": "202",
        "type": "t_array(t_uint256)49_storage"
      },
      {
        "astId": 11937,
        "contract": "contracts/rewards/BackerRewards.sol:BackerRewards",
        "label": "__gap1",
        "offset": 0,
        "slot": "251",
        "type": "t_array(t_uint256)50_storage"
      },
      {
        "astId": 11941,
        "contract": "contracts/rewards/BackerRewards.sol:BackerRewards",
        "label": "__gap2",
        "offset": 0,
        "slot": "301",
        "type": "t_array(t_uint256)50_storage"
      },
      {
        "astId": 11945,
        "contract": "contracts/rewards/BackerRewards.sol:BackerRewards",
        "label": "__gap3",
        "offset": 0,
        "slot": "351",
        "type": "t_array(t_uint256)50_storage"
      },
      {
        "astId": 11949,
        "contract": "contracts/rewards/BackerRewards.sol:BackerRewards",
        "label": "__gap4",
        "offset": 0,
        "slot": "401",
        "type": "t_array(t_uint256)50_storage"
      },
      {
        "astId": 28045,
        "contract": "contracts/rewards/BackerRewards.sol:BackerRewards",
        "label": "config",
        "offset": 0,
        "slot": "451",
        "type": "t_contract(GoldfinchConfig)17304"
      },
      {
        "astId": 28061,
        "contract": "contracts/rewards/BackerRewards.sol:BackerRewards",
        "label": "totalRewards",
        "offset": 0,
        "slot": "452",
        "type": "t_uint256"
      },
      {
        "astId": 28063,
        "contract": "contracts/rewards/BackerRewards.sol:BackerRewards",
        "label": "maxInterestDollarsEligible",
        "offset": 0,
        "slot": "453",
        "type": "t_uint256"
      },
      {
        "astId": 28065,
        "contract": "contracts/rewards/BackerRewards.sol:BackerRewards",
        "label": "totalInterestReceived",
        "offset": 0,
        "slot": "454",
        "type": "t_uint256"
      },
      {
        "astId": 28067,
        "contract": "contracts/rewards/BackerRewards.sol:BackerRewards",
        "label": "totalRewardPercentOfTotalGFI",
        "offset": 0,
        "slot": "455",
        "type": "t_uint256"
      },
      {
        "astId": 28071,
        "contract": "contracts/rewards/BackerRewards.sol:BackerRewards",
        "label": "tokens",
        "offset": 0,
        "slot": "456",
        "type": "t_mapping(t_uint256,t_struct(BackerRewardsTokenInfo)28059_storage)"
      },
      {
        "astId": 28075,
        "contract": "contracts/rewards/BackerRewards.sol:BackerRewards",
        "label": "pools",
        "offset": 0,
        "slot": "457",
        "type": "t_mapping(t_address,t_struct(BackerRewardsInfo)28054_storage)"
      }
    ],
    "types": {
      "t_address": {
        "encoding": "inplace",
        "label": "address",
        "numberOfBytes": "20"
      },
      "t_array(t_bytes32)dyn_storage": {
        "base": "t_bytes32",
        "encoding": "dynamic_array",
        "label": "bytes32[]",
        "numberOfBytes": "32"
      },
      "t_array(t_uint256)49_storage": {
        "base": "t_uint256",
        "encoding": "inplace",
        "label": "uint256[49]",
        "numberOfBytes": "1568"
      },
      "t_array(t_uint256)50_storage": {
        "base": "t_uint256",
        "encoding": "inplace",
        "label": "uint256[50]",
        "numberOfBytes": "1600"
      },
      "t_bool": {
        "encoding": "inplace",
        "label": "bool",
        "numberOfBytes": "1"
      },
      "t_bytes32": {
        "encoding": "inplace",
        "label": "bytes32",
        "numberOfBytes": "32"
      },
      "t_contract(GoldfinchConfig)17304": {
        "encoding": "inplace",
        "label": "contract GoldfinchConfig",
        "numberOfBytes": "20"
      },
      "t_mapping(t_address,t_struct(BackerRewardsInfo)28054_storage)": {
        "encoding": "mapping",
        "key": "t_address",
        "label": "mapping(address => struct BackerRewards.BackerRewardsInfo)",
        "numberOfBytes": "32",
        "value": "t_struct(BackerRewardsInfo)28054_storage"
      },
      "t_mapping(t_bytes32,t_struct(RoleData)260_storage)": {
        "encoding": "mapping",
        "key": "t_bytes32",
        "label": "mapping(bytes32 => struct AccessControlUpgradeSafe.RoleData)",
        "numberOfBytes": "32",
        "value": "t_struct(RoleData)260_storage"
      },
      "t_mapping(t_bytes32,t_uint256)": {
        "encoding": "mapping",
        "key": "t_bytes32",
        "label": "mapping(bytes32 => uint256)",
        "numberOfBytes": "32",
        "value": "t_uint256"
      },
      "t_mapping(t_uint256,t_struct(BackerRewardsTokenInfo)28059_storage)": {
        "encoding": "mapping",
        "key": "t_uint256",
        "label": "mapping(uint256 => struct BackerRewards.BackerRewardsTokenInfo)",
        "numberOfBytes": "32",
        "value": "t_struct(BackerRewardsTokenInfo)28059_storage"
      },
      "t_struct(AddressSet)4204_storage": {
        "encoding": "inplace",
        "label": "struct EnumerableSet.AddressSet",
        "members": [
          {
            "astId": 4203,
            "contract": "contracts/rewards/BackerRewards.sol:BackerRewards",
            "label": "_inner",
            "offset": 0,
            "slot": "0",
            "type": "t_struct(Set)4024_storage"
          }
        ],
        "numberOfBytes": "64"
      },
      "t_struct(BackerRewardsInfo)28054_storage": {
        "encoding": "inplace",
        "label": "struct BackerRewards.BackerRewardsInfo",
        "members": [
          {
            "astId": 28053,
            "contract": "contracts/rewards/BackerRewards.sol:BackerRewards",
            "label": "accRewardsPerPrincipalDollar",
            "offset": 0,
            "slot": "0",
            "type": "t_uint256"
          }
        ],
        "numberOfBytes": "32"
      },
      "t_struct(BackerRewardsTokenInfo)28059_storage": {
        "encoding": "inplace",
        "label": "struct BackerRewards.BackerRewardsTokenInfo",
        "members": [
          {
            "astId": 28056,
            "contract": "contracts/rewards/BackerRewards.sol:BackerRewards",
            "label": "rewardsClaimed",
            "offset": 0,
            "slot": "0",
            "type": "t_uint256"
          },
          {
            "astId": 28058,
            "contract": "contracts/rewards/BackerRewards.sol:BackerRewards",
            "label": "accRewardsPerPrincipalDollarAtMint",
            "offset": 0,
            "slot": "1",
            "type": "t_uint256"
          }
        ],
        "numberOfBytes": "64"
      },
      "t_struct(RoleData)260_storage": {
        "encoding": "inplace",
        "label": "struct AccessControlUpgradeSafe.RoleData",
        "members": [
          {
            "astId": 257,
            "contract": "contracts/rewards/BackerRewards.sol:BackerRewards",
            "label": "members",
            "offset": 0,
            "slot": "0",
            "type": "t_struct(AddressSet)4204_storage"
          },
          {
            "astId": 259,
            "contract": "contracts/rewards/BackerRewards.sol:BackerRewards",
            "label": "adminRole",
            "offset": 0,
            "slot": "2",
            "type": "t_bytes32"
          }
        ],
        "numberOfBytes": "96"
      },
      "t_struct(Set)4024_storage": {
        "encoding": "inplace",
        "label": "struct EnumerableSet.Set",
        "members": [
          {
            "astId": 4019,
            "contract": "contracts/rewards/BackerRewards.sol:BackerRewards",
            "label": "_values",
            "offset": 0,
            "slot": "0",
            "type": "t_array(t_bytes32)dyn_storage"
          },
          {
            "astId": 4023,
            "contract": "contracts/rewards/BackerRewards.sol:BackerRewards",
            "label": "_indexes",
            "offset": 0,
            "slot": "1",
            "type": "t_mapping(t_bytes32,t_uint256)"
          }
        ],
        "numberOfBytes": "64"
      },
      "t_uint256": {
        "encoding": "inplace",
        "label": "uint256",
        "numberOfBytes": "32"
      }
    }
  }
}