{
  "abi": [
    {
      "inputs": [
        {
          "internalType": "uint256",
          "name": "paymentAmount",
          "type": "uint256"
        },
        {
          "internalType": "uint256",
          "name": "balance",
          "type": "uint256"
        },
        {
          "internalType": "uint256",
          "name": "interestOwed",
          "type": "uint256"
        },
        {
          "internalType": "uint256",
          "name": "principalOwed",
          "type": "uint256"
        }
      ],
      "name": "allocatePayment",
      "outputs": [
        {
          "components": [
            {
              "internalType": "uint256",
              "name": "interestPayment",
              "type": "uint256"
            },
            {
              "internalType": "uint256",
              "name": "principalPayment",
              "type": "uint256"
            },
            {
              "internalType": "uint256",
              "name": "additionalBalancePayment",
              "type": "uint256"
            }
          ],
          "internalType": "struct Accountant.PaymentAllocation",
          "name": "",
          "type": "tuple"
        }
      ],
      "stateMutability": "pure",
      "type": "function"
    },
    {
      "inputs": [],
      "name": "blocksPerDay",
      "outputs": [
        {
          "internalType": "uint256",
          "name": "",
          "type": "uint256"
        }
      ],
      "stateMutability": "view",
      "type": "function"
    },
    {
      "inputs": [],
      "name": "blocksPerYear",
      "outputs": [
        {
          "internalType": "uint256",
          "name": "",
          "type": "uint256"
        }
      ],
      "stateMutability": "view",
      "type": "function"
    },
    {
      "inputs": [
        {
          "internalType": "uint256",
          "name": "balance",
          "type": "uint256"
        },
        {
          "internalType": "uint256",
          "name": "interestApr",
          "type": "uint256"
        },
        {
          "internalType": "uint256",
          "name": "termInDays",
          "type": "uint256"
        },
        {
          "internalType": "uint256",
          "name": "paymentPeriodInDays",
          "type": "uint256"
        }
      ],
      "name": "calculateAnnuityPayment",
      "outputs": [
        {
          "internalType": "uint256",
          "name": "",
          "type": "uint256"
        }
      ],
      "stateMutability": "pure",
      "type": "function"
    },
    {
      "inputs": [
        {
          "internalType": "contract CreditLine",
          "name": "cl",
          "type": "CreditLine"
        },
        {
          "internalType": "uint256",
          "name": "blockNumber",
          "type": "uint256"
        }
      ],
      "name": "calculateInterestAccrued",
      "outputs": [
        {
          "internalType": "uint256",
          "name": "",
          "type": "uint256"
        }
      ],
      "stateMutability": "view",
      "type": "function"
    },
    {
      "inputs": [
        {
          "internalType": "contract CreditLine",
          "name": "cl",
          "type": "CreditLine"
        },
        {
          "internalType": "uint256",
          "name": "blockNumber",
          "type": "uint256"
        }
      ],
      "name": "calculateInterestAndPrincipalAccrued",
      "outputs": [
        {
          "internalType": "uint256",
          "name": "",
          "type": "uint256"
        },
        {
          "internalType": "uint256",
          "name": "",
          "type": "uint256"
        }
      ],
      "stateMutability": "view",
      "type": "function"
    },
    {
      "inputs": [
        {
          "internalType": "contract CreditLine",
          "name": "cl",
          "type": "CreditLine"
        },
        {
          "internalType": "uint256",
          "name": "periodPayment",
          "type": "uint256"
        },
        {
          "internalType": "uint256",
          "name": "interestAccrued",
          "type": "uint256"
        },
        {
          "internalType": "uint256",
          "name": "blockNumber",
          "type": "uint256"
        }
      ],
      "name": "calculatePrincipalAccrued",
      "outputs": [
        {
          "internalType": "uint256",
          "name": "",
          "type": "uint256"
        }
      ],
      "stateMutability": "view",
      "type": "function"
    },
    {
      "inputs": [],
      "name": "interestDecimals",
      "outputs": [
        {
          "internalType": "uint256",
          "name": "",
          "type": "uint256"
        }
      ],
      "stateMutability": "view",
      "type": "function"
    }
  ],
  "address": "0xfE1D0b29B39f65A4AdBEE209B5DDfb95201837eF",
  "args": [],
  "solcInputHash": "0x11d99a924620504468e7f0d73d2c7b532c9e3d68c6d8c4192a844319e4d7ab54",
  "bytecode": "0x611177610026600b82828239805160001a60731461001957fe5b30600052607381538281f3fe73000000000000000000000000000000000000000030146080604052600436106100925760003560e01c8063567d1ebf11610065578063567d1ebf146100fc578063a385fb9614610104578063d7cc2a031461010c578063e6092ca61461012c57610092565b8063030293b2146100975780630f12fd2b146100c057806346784971146100d35780634cfea68a146100f4575b600080fd5b6100aa6100a5366004610fda565b61013f565b6040516100b79190611112565b60405180910390f35b6100aa6100ce366004610faf565b610287565b6100e66100e1366004610faf565b61040d565b6040516100b792919061111b565b6100aa610605565b6100aa61060b565b6100aa610617565b61011f61011a36600461102c565b61061e565b6040516100b791906110f1565b6100aa61013a36600461102c565b6106b0565b600080856001600160a01b03166399dd8df36040518163ffffffff1660e01b815260040160206040518083038186803b15801561017b57600080fd5b505afa15801561018f573d6000803e3d6000fd5b505050506040513d601f19601f820116820180604052508101906101b39190611014565b611680029050600061023584886001600160a01b031663f90ce5ba6040518163ffffffff1660e01b815260040160206040518083038186803b1580156101f857600080fd5b505afa15801561020c573d6000803e3d6000fd5b505050506040513d601f19601f820116820180604052508101906102309190611014565b6107a5565b90506000610249858363ffffffff6107bd16565b9050600061025782856107ff565b90506000610265828a610892565b9050610277818963ffffffff6107bd16565b955050505050505b949350505050565b6000806102c783856001600160a01b031663f90ce5ba6040518163ffffffff1660e01b815260040160206040518083038186803b1580156101f857600080fd5b905060006102db848363ffffffff6107bd16565b905060006103e8670de0b6b3a76400006103dc886001600160a01b031663b39699926040518163ffffffff1660e01b815260040160206040518083038186803b15801561032757600080fd5b505afa15801561033b573d6000803e3d6000fd5b505050506040513d601f19601f8201168201806040525081019061035f9190611014565b896001600160a01b031663b69ef8a86040518163ffffffff1660e01b815260040160206040518083038186803b15801561039857600080fd5b505afa1580156103ac573d6000803e3d6000fd5b505050506040513d601f19601f820116820180604052508101906103d09190611014565b9063ffffffff61093f16565b9063ffffffff61098216565b9050610401622014806103dc838563ffffffff61093f16565b93505050505b92915050565b60008060006105d9856001600160a01b031663b69ef8a86040518163ffffffff1660e01b815260040160206040518083038186803b15801561044e57600080fd5b505afa158015610462573d6000803e3d6000fd5b505050506040513d601f19601f820116820180604052508101906104869190611014565b866001600160a01b031663b39699926040518163ffffffff1660e01b815260040160206040518083038186803b1580156104bf57600080fd5b505afa1580156104d3573d6000803e3d6000fd5b505050506040513d601f19601f820116820180604052508101906104f79190611014565b876001600160a01b03166348e6f2966040518163ffffffff1660e01b815260040160206040518083038186803b15801561053057600080fd5b505afa158015610544573d6000803e3d6000fd5b505050506040513d601f19601f820116820180604052508101906105689190611014565b886001600160a01b03166399dd8df36040518163ffffffff1660e01b815260040160206040518083038186803b1580156105a157600080fd5b505afa1580156105b5573d6000803e3d6000fd5b505050506040513d601f19601f8201168201806040525081019061013a9190611014565b905060006105e78686610287565b905060006105f78784848961013f565b919791965090945050505050565b61168081565b670de0b6b3a764000081565b6220148081565b610626610f8e565b84600061063385836107a5565b9050610645828263ffffffff6107bd16565b9150600061065385846107a5565b9050610665838263ffffffff6107bd16565b92506000610679888363ffffffff6107bd16565b9050600061068785836107a5565b604080516060810182529586526020860194909452928401929092525090979650505050505050565b6000808284816106bc57fe5b04905060006106cb60016109c4565b905060006106e187670de0b6b3a76400006107ff565b905060006106f9826106f461016d6109c4565b6109f7565b9050600061070f8261070a896109c4565b610a4a565b905060006107266107208684610a80565b87610ab3565b9050600061073d8661073888856109f7565b610b43565b905080600f0b6000141561076357868c8161075457fe5b0497505050505050505061027f565b600061076f84836109f7565b9050600061078582670de0b6b3a7640000610892565b670de0b6b3a76400009e029d909d049d9c50505050505050505050505050565b60008183106107b457816107b6565b825b9392505050565b60006107b683836040518060400160405280601e81526020017f536166654d6174683a207375627472616374696f6e206f766572666c6f770000815250610b76565b60008161080b57600080fd5b60008084121561082057836000039350600190505b60008312156108325760009290920391155b600061083e8585610ba2565b9050811561086c576001607f1b816001600160801b0316111561086057600080fd5b60000391506104079050565b60016001607f1b03816001600160801b0316111561088957600080fd5b91506104079050565b6000600f83900b60016001607f1b031914156108db576002600160c01b031982121580156108c45750600160c01b8213155b6108cd57600080fd5b506000819003603f1b610407565b6000600f84900b8113156108f457836000039350600190505b60008312156109065760009290920391155b60006109128585610cec565b9050811561092b57600160ff1b81111561086057600080fd5b6001600160ff1b0381111561088957600080fd5b60008261094e57506000610407565b8282028284828161095b57fe5b04146107b65760405162461bcd60e51b8152600401610979906110b0565b60405180910390fd5b60006107b683836040518060400160405280601a81526020017f536166654d6174683a206469766973696f6e206279207a65726f000000000000815250610d54565b6000677fffffffffffffff1982121580156109e75750677fffffffffffffff8213155b6109f057600080fd5b5060401b90565b600081600f0b60001415610a0a57600080fd5b600082600f0b604085600f0b901b81610a1f57fe5b05905060016001607f1b03198112801590610a41575060016001607f1b038113155b6107b657600080fd5b6000600f83810b9083900b0260401d60016001607f1b03198112801590610a41575060016001607f1b038113156107b657600080fd5b6000600f83810b9083900b0160016001607f1b03198112801590610a41575060016001607f1b038113156107b657600080fd5b60008080600f85900b8113610ada57610ad3603f86600f0b901b85610d8b565b9150610afe565b610af4603f866000036001600160801b0316901b85610d8b565b9150506001831615155b603f82901c91508015610b27576001607f1b821115610b1c57600080fd5b506000039050610407565b60016001607f1b03821115610b3b57600080fd5b509050610407565b6000600f82810b9084900b0360016001607f1b03198112801590610a41575060016001607f1b038113156107b657600080fd5b60008184841115610b9a5760405162461bcd60e51b8152600401610979919061105d565b505050900390565b600081610bae57600080fd5b60006001600160c01b038411610bd35782604085901b81610bcb57fe5b049050610cd8565b60c084811c6401000000008110610bec576020918201911c5b620100008110610bfe576010918201911c5b6101008110610c0f576008918201911c5b60108110610c1f576004918201911c5b60048110610c2f576002918201911c5b60028110610c3e576001820191505b60bf820360018603901c6001018260ff0387901b81610c5957fe5b0492506001600160801b03831115610c7057600080fd5b608085901c83026001600160801b038616840260c088901c604089901b82811015610c9c576001820391505b608084901b92900382811015610cb3576001820391505b829003608084901c8214610cc357fe5b888181610ccc57fe5b04870196505050505050505b6001600160801b038111156107b657600080fd5b600081610cfb57506000610407565b600083600f0b1215610d0c57600080fd5b600f83900b6001600160801b038316810260401c90608084901c026001600160c01b03811115610d3b57600080fd5b60401b8119811115610d4c57600080fd5b019392505050565b60008183610d755760405162461bcd60e51b8152600401610979919061105d565b506000838581610d8157fe5b0495945050505050565b600081610d9d57506001607f1b610407565b82610daa57506000610407565b600083600160801b8110610dc0576080918201911c5b680100000000000000008110610dd8576040918201911c5b6401000000008110610dec576020918201911c5b620100008110610dfe576010918201911c5b6101008110610e0f576008918201911c5b60108110610e1f576004918201911c5b60048110610e2f576002918201911c5b60028110610e3e576001820191505b607e1982016000811315610e625780866000821215610e5957fe5b901c9550610e77565b80600003866000821215610e7257fe5b901b95505b6001607f1b60005b8615610f45576001871615610ee75760001990960195908702908201600160ff1b8210610eb55760809190911c90600101610ebd565b607f82901c91505b607e19811215610ed557600095505050505050610407565b60808112610ee257600080fd5b610f40565b96800296600196871c969290921b91600160ff1b8810610f1357608088901c9750600183019250610f1b565b607f88901c97505b607e19831215610f3357600095505050505050610407565b60808312610f4057600080fd5b610e7f565b6000811315610f645780826000821215610f5b57fe5b901b9150610f82565b6000811215610f825780600003826000821215610f7d57fe5b901c91505b50935061040792505050565b60405180606001604052806000815260200160008152602001600081525090565b60008060408385031215610fc1578182fd5b8235610fcc81611129565b946020939093013593505050565b60008060008060808587031215610fef578182fd5b8435610ffa81611129565b966020860135965060408601359560600135945092505050565b600060208284031215611025578081fd5b5051919050565b60008060008060808587031215611041578384fd5b5050823594602084013594506040840135936060013592509050565b6000602080835283518082850152825b818110156110895785810183015185820160400152820161106d565b8181111561109a5783604083870101525b50601f01601f1916929092016040019392505050565b60208082526021908201527f536166654d6174683a206d756c7469706c69636174696f6e206f766572666c6f6040820152607760f81b606082015260800190565b81518152602080830151908201526040918201519181019190915260600190565b90815260200190565b918252602082015260400190565b6001600160a01b038116811461113e57600080fd5b5056fea2646970667358221220b1ff652fbf7d9b1726407f85d43c2b47e0c7c205a1469e3d1cb8ec15758821ba64736f6c63430006080033",
  "devdoc": {
    "methods": {}
  },
  "userdoc": {
    "methods": {}
  },
  "storageLayout": {
    "storage": [],
    "types": null
  },
  "gasEstimates": {
    "creation": {
      "codeDepositCost": "894200",
      "executionCost": "957",
      "totalCost": "895157"
    },
    "external": {
      "allocatePayment(uint256,uint256,uint256,uint256)": "infinite",
      "blocksPerDay()": "279",
      "blocksPerYear()": "234",
      "calculateAnnuityPayment(uint256,uint256,uint256,uint256)": "infinite",
      "calculateInterestAccrued(CreditLine,uint256)": "infinite",
      "calculateInterestAndPrincipalAccrued(CreditLine,uint256)": "infinite",
      "calculatePrincipalAccrued(CreditLine,uint256,uint256,uint256)": "infinite",
      "interestDecimals()": "212"
    }
  }
}