{
  "abi": [
    {
      "anonymous": false,
      "inputs": [
        {
          "indexed": true,
          "internalType": "address",
          "name": "previousOwner",
          "type": "address"
        },
        {
          "indexed": true,
          "internalType": "address",
          "name": "newOwner",
          "type": "address"
        }
      ],
      "name": "OwnershipTransferred",
      "type": "event"
    },
    {
      "inputs": [
        {
          "internalType": "address payable",
          "name": "creditLineAddress",
          "type": "address"
        },
        {
          "internalType": "uint256",
          "name": "amount",
          "type": "uint256"
        }
      ],
      "name": "addCollateral",
      "outputs": [],
      "stateMutability": "payable",
      "type": "function"
    },
    {
      "inputs": [
        {
          "internalType": "address",
          "name": "creditLineAddress",
          "type": "address"
        }
      ],
      "name": "assessCreditLine",
      "outputs": [],
      "stateMutability": "nonpayable",
      "type": "function"
    },
    {
      "inputs": [],
      "name": "blocksPerDay",
      "outputs": [
        {
          "internalType": "uint256",
          "name": "",
          "type": "uint256"
        }
      ],
      "stateMutability": "view",
      "type": "function"
    },
    {
      "inputs": [
        {
          "internalType": "address",
          "name": "_borrower",
          "type": "address"
        },
        {
          "internalType": "uint256",
          "name": "_limit",
          "type": "uint256"
        },
        {
          "internalType": "uint256",
          "name": "_interestApr",
          "type": "uint256"
        },
        {
          "internalType": "uint256",
          "name": "_minCollateralPercent",
          "type": "uint256"
        },
        {
          "internalType": "uint256",
          "name": "_paymentPeriodInDays",
          "type": "uint256"
        },
        {
          "internalType": "uint256",
          "name": "_termInDays",
          "type": "uint256"
        }
      ],
      "name": "createCreditLine",
      "outputs": [],
      "stateMutability": "nonpayable",
      "type": "function"
    },
    {
      "inputs": [
        {
          "internalType": "uint256",
          "name": "amount",
          "type": "uint256"
        },
        {
          "internalType": "address",
          "name": "creditLineAddress",
          "type": "address"
        }
      ],
      "name": "drawdown",
      "outputs": [],
      "stateMutability": "nonpayable",
      "type": "function"
    },
    {
      "inputs": [
        {
          "internalType": "address",
          "name": "borrowerAddress",
          "type": "address"
        }
      ],
      "name": "getBorrowerCreditLines",
      "outputs": [
        {
          "internalType": "address[]",
          "name": "",
          "type": "address[]"
        }
      ],
      "stateMutability": "view",
      "type": "function"
    },
    {
      "inputs": [
        {
          "internalType": "address",
          "name": "underwriterAddress",
          "type": "address"
        }
      ],
      "name": "getUnderwriterCreditLines",
      "outputs": [
        {
          "internalType": "address[]",
          "name": "",
          "type": "address[]"
        }
      ],
      "stateMutability": "view",
      "type": "function"
    },
    {
      "inputs": [],
      "name": "owner",
      "outputs": [
        {
          "internalType": "address",
          "name": "",
          "type": "address"
        }
      ],
      "stateMutability": "view",
      "type": "function"
    },
    {
      "inputs": [
        {
          "internalType": "address",
          "name": "creditLineAddress",
          "type": "address"
        },
        {
          "internalType": "uint256",
          "name": "amount",
          "type": "uint256"
        }
      ],
      "name": "pay",
      "outputs": [],
      "stateMutability": "payable",
      "type": "function"
    },
    {
      "inputs": [],
      "name": "poolAddress",
      "outputs": [
        {
          "internalType": "address",
          "name": "",
          "type": "address"
        }
      ],
      "stateMutability": "view",
      "type": "function"
    },
    {
      "inputs": [
        {
          "internalType": "address payable",
          "name": "creditLineAddress",
          "type": "address"
        },
        {
          "internalType": "uint256",
          "name": "amount",
          "type": "uint256"
        }
      ],
      "name": "prepay",
      "outputs": [],
      "stateMutability": "payable",
      "type": "function"
    },
    {
      "inputs": [],
      "name": "renounceOwnership",
      "outputs": [],
      "stateMutability": "nonpayable",
      "type": "function"
    },
    {
      "inputs": [
        {
          "internalType": "address",
          "name": "newPoolAddress",
          "type": "address"
        }
      ],
      "name": "setPoolAddress",
      "outputs": [
        {
          "internalType": "address",
          "name": "",
          "type": "address"
        }
      ],
      "stateMutability": "nonpayable",
      "type": "function"
    },
    {
      "inputs": [
        {
          "internalType": "address",
          "name": "underwriterAddress",
          "type": "address"
        },
        {
          "internalType": "uint256",
          "name": "limit",
          "type": "uint256"
        }
      ],
      "name": "setUnderwriterGovernanceLimit",
      "outputs": [],
      "stateMutability": "nonpayable",
      "type": "function"
    },
    {
      "inputs": [
        {
          "internalType": "address",
          "name": "newOwner",
          "type": "address"
        }
      ],
      "name": "transferOwnership",
      "outputs": [],
      "stateMutability": "nonpayable",
      "type": "function"
    },
    {
      "inputs": [
        {
          "internalType": "address",
          "name": "",
          "type": "address"
        }
      ],
      "name": "underwriters",
      "outputs": [
        {
          "internalType": "uint256",
          "name": "governanceLimit",
          "type": "uint256"
        }
      ],
      "stateMutability": "view",
      "type": "function"
    }
  ],
  "address": "0x094884359AffcD3383679621dCf71c8ba10e1f09",
  "args": [],
  "solcInputHash": "0x55bfb9192561568c3d658d66c09f605107f1e594c986e1c5789904c067cde7c3",
  "bytecode": "0x60806040523480156200001157600080fd5b50600062000024620000c860201b60201c565b9050806000806101000a81548173ffffffffffffffffffffffffffffffffffffffff021916908373ffffffffffffffffffffffffffffffffffffffff1602179055508073ffffffffffffffffffffffffffffffffffffffff16600073ffffffffffffffffffffffffffffffffffffffff167f8be0079c531659141344cd1fd0a4f28419497f9722a3daafe3b4186f6b6457e060405160405180910390a350620000d0565b600033905090565b61517d80620000e06000396000f3fe6080604052600436106200010a5760003560e01c8063844a28c31162000097578063e9e15b4f1162000061578063e9e15b4f146200034f578063f2fde38b1462000393578063f3b7d81514620003c1578063f5c7e0e214620003e1576200010a565b8063844a28c314620002775780638da5cb5b14620002bb578063c26ff93614620002eb578063c4076876146200032f576200010a565b80635c08085311620000d95780635c08085314620001cb5780636d75b9ee14620001f9578063715018a614620002195780637d5336421462000233576200010a565b80630e4645ef146200010f5780631755ff21146200013d578063440c41bb146200016d5780634cfea68a146200019b575b600080fd5b3480156200011c57600080fd5b506200013b600480360381019062000135919062002f64565b6200040f565b005b3480156200014a57600080fd5b5062000155620004fb565b604051620001649190620035d9565b60405180910390f35b3480156200017a57600080fd5b50620001996004803603810190620001939190620030bf565b62000521565b005b348015620001a857600080fd5b50620001b3620009ae565b604051620001c291906200390b565b60405180910390f35b348015620001d857600080fd5b50620001f76004803603810190620001f1919062002fa5565b620009b4565b005b62000217600480360381019062000211919062002f23565b62000c35565b005b3480156200022657600080fd5b506200023162000e0b565b005b3480156200024057600080fd5b506200025f600480360381019062000259919062002ecb565b62000f65565b6040516200026e91906200390b565b60405180910390f35b3480156200028457600080fd5b50620002a360048036038101906200029d919062002ecb565b62000f83565b604051620002b2919062003747565b60405180910390f35b348015620002c857600080fd5b50620002d362001055565b604051620002e29190620035d9565b60405180910390f35b348015620002f857600080fd5b5062000317600480360381019062000311919062002ecb565b6200107e565b60405162000326919062003747565b60405180910390f35b6200034d600480360381019062000347919062002f64565b62001150565b005b3480156200035c57600080fd5b506200037b600480360381019062000375919062002ecb565b6200152e565b6040516200038a9190620035d9565b60405180910390f35b348015620003a057600080fd5b50620003bf6004803603810190620003b9919062002ecb565b62001612565b005b620003df6004803603810190620003d9919062002f23565b620017de565b005b348015620003ee57600080fd5b506200040d600480360381019062000407919062002ecb565b620019b4565b005b6200041962001e27565b73ffffffffffffffffffffffffffffffffffffffff166000809054906101000a900473ffffffffffffffffffffffffffffffffffffffff1673ffffffffffffffffffffffffffffffffffffffff1614620004aa576040517f08c379a0000000000000000000000000000000000000000000000000000000008152600401620004a190620038c7565b60405180910390fd5b6000600260008473ffffffffffffffffffffffffffffffffffffffff1673ffffffffffffffffffffffffffffffffffffffff1681526020019081526020016000209050818160000181905550505050565b600160009054906101000a900473ffffffffffffffffffffffffffffffffffffffff1681565b60008190503373ffffffffffffffffffffffffffffffffffffffff168173ffffffffffffffffffffffffffffffffffffffff16637df1f1b96040518163ffffffff1660e01b815260040160206040518083038186803b1580156200058457600080fd5b505afa15801562000599573d6000803e3d6000fd5b505050506040513d601f19601f82011682018060405250810190620005bf919062002ef7565b73ffffffffffffffffffffffffffffffffffffffff161462000618576040517f08c379a00000000000000000000000000000000000000000000000000000000081526004016200060f9062003883565b60405180910390fd5b62000624838262001e2f565b62000666576040517f08c379a00000000000000000000000000000000000000000000000000000000081526004016200065d90620038e9565b60405180910390fd5b60008173ffffffffffffffffffffffffffffffffffffffff1663b69ef8a86040518163ffffffff1660e01b815260040160206040518083038186803b158015620006af57600080fd5b505afa158015620006c4573d6000803e3d6000fd5b505050506040513d601f19601f82011682018060405250810190620006ea919062003093565b14156200082a578073ffffffffffffffffffffffffffffffffffffffff1663fb9eb990620007188362001f53565b6040518263ffffffff1660e01b81526004016200073691906200390b565b602060405180830381600087803b1580156200075157600080fd5b505af115801562000766573d6000803e3d6000fd5b505050506040513d601f19601f820116820180604052508101906200078c919062003093565b508073ffffffffffffffffffffffffffffffffffffffff16637957dda3620007b48362002008565b6040518263ffffffff1660e01b8152600401620007d291906200390b565b602060405180830381600087803b158015620007ed57600080fd5b505af115801562000802573d6000803e3d6000fd5b505050506040513d601f19601f8201168201806040525081019062000828919062003093565b505b600080620008398343620021dc565b915091506000620008d5868573ffffffffffffffffffffffffffffffffffffffff1663b69ef8a86040518163ffffffff1660e01b815260040160206040518083038186803b1580156200088b57600080fd5b505afa158015620008a0573d6000803e3d6000fd5b505050506040513d601f19601f82011682018060405250810190620008c6919062003093565b620023ad90919063ffffffff16565b9050620008e58482858562002405565b620008ef62002784565b73ffffffffffffffffffffffffffffffffffffffff166323b872dd600160009054906101000a900473ffffffffffffffffffffffffffffffffffffffff1633896040518463ffffffff1660e01b81526004016200094f939291906200369d565b602060405180830381600087803b1580156200096a57600080fd5b505af11580156200097f573d6000803e3d6000fd5b505050506040513d601f19601f82011682018060405250810190620009a591906200303b565b50505050505050565b61168081565b6000600260003373ffffffffffffffffffffffffffffffffffffffff1673ffffffffffffffffffffffffffffffffffffffff16815260200190815260200160002090506000600360008973ffffffffffffffffffffffffffffffffffffffff1673ffffffffffffffffffffffffffffffffffffffff168152602001908152602001600020905062000a468783620027ae565b62000a88576040517f08c379a000000000000000000000000000000000000000000000000000000000815260040162000a7f906200383f565b60405180910390fd5b600088888888888860405162000a9e9062002da9565b62000aaf96959493929190620036da565b604051809103906000f08015801562000acc573d6000803e3d6000fd5b5090508073ffffffffffffffffffffffffffffffffffffffff16633059b7c6600160009054906101000a900473ffffffffffffffffffffffffffffffffffffffff166040518263ffffffff1660e01b815260040162000b2c9190620035d9565b600060405180830381600087803b15801562000b4757600080fd5b505af115801562000b5c573d6000803e3d6000fd5b5050505082600101819080600181540180825580915050600190039060005260206000200160009091909190916101000a81548173ffffffffffffffffffffffffffffffffffffffff021916908373ffffffffffffffffffffffffffffffffffffffff16021790555081600001819080600181540180825580915050600190039060005260206000200160009091909190916101000a81548173ffffffffffffffffffffffffffffffffffffffff021916908373ffffffffffffffffffffffffffffffffffffffff160217905550505050505050505050565b600082905062000c4462002784565b73ffffffffffffffffffffffffffffffffffffffff166323b872dd3385856040518463ffffffff1660e01b815260040162000c8293929190620035f6565b602060405180830381600087803b15801562000c9d57600080fd5b505af115801562000cb2573d6000803e3d6000fd5b505050506040513d601f19601f8201168201806040525081019062000cd891906200303b565b50600062000d71838373ffffffffffffffffffffffffffffffffffffffff1663c98c05b76040518163ffffffff1660e01b815260040160206040518083038186803b15801562000d2757600080fd5b505afa15801562000d3c573d6000803e3d6000fd5b505050506040513d601f19601f8201168201806040525081019062000d62919062003093565b620023ad90919063ffffffff16565b90508173ffffffffffffffffffffffffffffffffffffffff166361cfbca1826040518263ffffffff1660e01b815260040162000dae91906200390b565b602060405180830381600087803b15801562000dc957600080fd5b505af115801562000dde573d6000803e3d6000fd5b505050506040513d601f19601f8201168201806040525081019062000e04919062003093565b5050505050565b62000e1562001e27565b73ffffffffffffffffffffffffffffffffffffffff166000809054906101000a900473ffffffffffffffffffffffffffffffffffffffff1673ffffffffffffffffffffffffffffffffffffffff161462000ea6576040517f08c379a000000000000000000000000000000000000000000000000000000000815260040162000e9d90620038c7565b60405180910390fd5b600073ffffffffffffffffffffffffffffffffffffffff166000809054906101000a900473ffffffffffffffffffffffffffffffffffffffff1673ffffffffffffffffffffffffffffffffffffffff167f8be0079c531659141344cd1fd0a4f28419497f9722a3daafe3b4186f6b6457e060405160405180910390a360008060006101000a81548173ffffffffffffffffffffffffffffffffffffffff021916908373ffffffffffffffffffffffffffffffffffffffff160217905550565b60026020528060005260406000206000915090508060000154905081565b6060600260008373ffffffffffffffffffffffffffffffffffffffff1673ffffffffffffffffffffffffffffffffffffffff1681526020019081526020016000206001018054806020026020016040519081016040528092919081815260200182805480156200104957602002820191906000526020600020905b8160009054906101000a900473ffffffffffffffffffffffffffffffffffffffff1673ffffffffffffffffffffffffffffffffffffffff168152602001906001019080831162000ffe575b50505050509050919050565b60008060009054906101000a900473ffffffffffffffffffffffffffffffffffffffff16905090565b6060600360008373ffffffffffffffffffffffffffffffffffffffff1673ffffffffffffffffffffffffffffffffffffffff1681526020019081526020016000206000018054806020026020016040519081016040528092919081815260200182805480156200114457602002820191906000526020600020905b8160009054906101000a900473ffffffffffffffffffffffffffffffffffffffff1673ffffffffffffffffffffffffffffffffffffffff1681526020019060010190808311620010f9575b50505050509050919050565b60008290506200115f62002784565b73ffffffffffffffffffffffffffffffffffffffff1663c34e584133846040518363ffffffff1660e01b81526004016200119b92919062003670565b60206040518083038186803b158015620011b457600080fd5b505afa158015620011c9573d6000803e3d6000fd5b505050506040513d601f19601f82011682018060405250810190620011ef91906200303b565b62001231576040517f08c379a000000000000000000000000000000000000000000000000000000000815260040162001228906200381d565b60405180910390fd5b6000806000620012458486436001620027e9565b92509250925060008311156200141c576200125f62002784565b73ffffffffffffffffffffffffffffffffffffffff166323b872dd3388866040518463ffffffff1660e01b81526004016200129d9392919062003633565b602060405180830381600087803b158015620012b857600080fd5b505af1158015620012cd573d6000803e3d6000fd5b505050506040513d601f19601f82011682018060405250810190620012f391906200303b565b508373ffffffffffffffffffffffffffffffffffffffff166361cfbca1620013a6858773ffffffffffffffffffffffffffffffffffffffff1663c98c05b76040518163ffffffff1660e01b815260040160206040518083038186803b1580156200135c57600080fd5b505afa15801562001371573d6000803e3d6000fd5b505050506040513d601f19601f8201168201806040525081019062001397919062003093565b620023ad90919063ffffffff16565b6040518263ffffffff1660e01b8152600401620013c491906200390b565b602060405180830381600087803b158015620013df57600080fd5b505af1158015620013f4573d6000803e3d6000fd5b505050506040513d601f19601f820116820180604052508101906200141a919062003093565b505b6000821115620014a1576200143062002784565b73ffffffffffffffffffffffffffffffffffffffff166364de8a0733846040518363ffffffff1660e01b81526004016200146c92919062003670565b600060405180830381600087803b1580156200148757600080fd5b505af11580156200149c573d6000803e3d6000fd5b505050505b60008111156200152657620014b562002784565b73ffffffffffffffffffffffffffffffffffffffff1663bcfa41ba33836040518363ffffffff1660e01b8152600401620014f192919062003670565b600060405180830381600087803b1580156200150c57600080fd5b505af115801562001521573d6000803e3d6000fd5b505050505b505050505050565b60006200153a62001e27565b73ffffffffffffffffffffffffffffffffffffffff166000809054906101000a900473ffffffffffffffffffffffffffffffffffffffff1673ffffffffffffffffffffffffffffffffffffffff1614620015cb576040517f08c379a0000000000000000000000000000000000000000000000000000000008152600401620015c290620038c7565b60405180910390fd5b81600160006101000a81548173ffffffffffffffffffffffffffffffffffffffff021916908373ffffffffffffffffffffffffffffffffffffffff16021790559050919050565b6200161c62001e27565b73ffffffffffffffffffffffffffffffffffffffff166000809054906101000a900473ffffffffffffffffffffffffffffffffffffffff1673ffffffffffffffffffffffffffffffffffffffff1614620016ad576040517f08c379a0000000000000000000000000000000000000000000000000000000008152600401620016a490620038c7565b60405180910390fd5b600073ffffffffffffffffffffffffffffffffffffffff168173ffffffffffffffffffffffffffffffffffffffff16141562001720576040517f08c379a00000000000000000000000000000000000000000000000000000000081526004016200171790620037d9565b60405180910390fd5b8073ffffffffffffffffffffffffffffffffffffffff166000809054906101000a900473ffffffffffffffffffffffffffffffffffffffff1673ffffffffffffffffffffffffffffffffffffffff167f8be0079c531659141344cd1fd0a4f28419497f9722a3daafe3b4186f6b6457e060405160405180910390a3806000806101000a81548173ffffffffffffffffffffffffffffffffffffffff021916908373ffffffffffffffffffffffffffffffffffffffff16021790555050565b6000829050620017ed62002784565b73ffffffffffffffffffffffffffffffffffffffff166323b872dd3385856040518463ffffffff1660e01b81526004016200182b93929190620035f6565b602060405180830381600087803b1580156200184657600080fd5b505af11580156200185b573d6000803e3d6000fd5b505050506040513d601f19601f820116820180604052508101906200188191906200303b565b5060006200191a838373ffffffffffffffffffffffffffffffffffffffff1663ca3152e56040518163ffffffff1660e01b815260040160206040518083038186803b158015620018d057600080fd5b505afa158015620018e5573d6000803e3d6000fd5b505050506040513d601f19601f820116820180604052508101906200190b919062003093565b620023ad90919063ffffffff16565b90508173ffffffffffffffffffffffffffffffffffffffff166341f1a126826040518263ffffffff1660e01b81526004016200195791906200390b565b602060405180830381600087803b1580156200197257600080fd5b505af115801562001987573d6000803e3d6000fd5b505050506040513d601f19601f82011682018060405250810190620019ad919062003093565b5050505050565b60008190508073ffffffffffffffffffffffffffffffffffffffff1663500b245e6040518163ffffffff1660e01b815260040160206040518083038186803b15801562001a0057600080fd5b505afa15801562001a15573d6000803e3d6000fd5b505050506040513d601f19601f8201168201806040525081019062001a3b919062003093565b43101562001a4a575062001e24565b600080600062001b60848573ffffffffffffffffffffffffffffffffffffffff1663ca3152e56040518163ffffffff1660e01b815260040160206040518083038186803b15801562001a9b57600080fd5b505afa15801562001ab0573d6000803e3d6000fd5b505050506040513d601f19601f8201168201806040525081019062001ad6919062003093565b8673ffffffffffffffffffffffffffffffffffffffff1663500b245e6040518163ffffffff1660e01b815260040160206040518083038186803b15801562001b1d57600080fd5b505afa15801562001b32573d6000803e3d6000fd5b505050506040513d601f19601f8201168201806040525081019062001b58919062003093565b6000620027e9565b9250925092508373ffffffffffffffffffffffffffffffffffffffff166341f1a126846040518263ffffffff1660e01b815260040162001ba191906200390b565b602060405180830381600087803b15801562001bbc57600080fd5b505af115801562001bd1573d6000803e3d6000fd5b505050506040513d601f19601f8201168201806040525081019062001bf7919062003093565b5062001c0262002784565b73ffffffffffffffffffffffffffffffffffffffff166364de8a0733846040518363ffffffff1660e01b815260040162001c3e92919062003670565b600060405180830381600087803b15801562001c5957600080fd5b505af115801562001c6e573d6000803e3d6000fd5b5050505062001c7c62002784565b73ffffffffffffffffffffffffffffffffffffffff1663bcfa41ba33836040518363ffffffff1660e01b815260040162001cb892919062003670565b600060405180830381600087803b15801562001cd357600080fd5b505af115801562001ce8573d6000803e3d6000fd5b505050508373ffffffffffffffffffffffffffffffffffffffff16637957dda362001d138662002008565b6040518263ffffffff1660e01b815260040162001d3191906200390b565b602060405180830381600087803b15801562001d4c57600080fd5b505af115801562001d61573d6000803e3d6000fd5b505050506040513d601f19601f8201168201806040525081019062001d87919062003093565b5060008473ffffffffffffffffffffffffffffffffffffffff1663193501146040518163ffffffff1660e01b815260040160206040518083038186803b15801562001dd157600080fd5b505afa15801562001de6573d6000803e3d6000fd5b505050506040513d601f19601f8201168201806040525081019062001e0c919062003093565b111562001e1f5762001e1e8462002b79565b5b505050505b50565b600033905090565b60008173ffffffffffffffffffffffffffffffffffffffff1663a4d66daf6040518163ffffffff1660e01b815260040160206040518083038186803b15801562001e7857600080fd5b505afa15801562001e8d573d6000803e3d6000fd5b505050506040513d601f19601f8201168201806040525081019062001eb3919062003093565b62001f49848473ffffffffffffffffffffffffffffffffffffffff1663b69ef8a86040518163ffffffff1660e01b815260040160206040518083038186803b15801562001eff57600080fd5b505afa15801562001f14573d6000803e3d6000fd5b505050506040513d601f19601f8201168201806040525081019062001f3a919062003093565b620023ad90919063ffffffff16565b1115905092915050565b60006200200162001ff18373ffffffffffffffffffffffffffffffffffffffff166348e6f2966040518163ffffffff1660e01b815260040160206040518083038186803b15801562001fa457600080fd5b505afa15801562001fb9573d6000803e3d6000fd5b505050506040513d601f19601f8201168201806040525081019062001fdf919062003093565b61168062002b7c90919063ffffffff16565b43620023ad90919063ffffffff16565b9050919050565b600080620020a36116808473ffffffffffffffffffffffffffffffffffffffff166399dd8df36040518163ffffffff1660e01b815260040160206040518083038186803b1580156200205957600080fd5b505afa1580156200206e573d6000803e3d6000fd5b505050506040513d601f19601f8201168201806040525081019062002094919062003093565b62002b7c90919063ffffffff16565b90506000808473ffffffffffffffffffffffffffffffffffffffff1663500b245e6040518163ffffffff1660e01b815260040160206040518083038186803b158015620020ef57600080fd5b505afa15801562002104573d6000803e3d6000fd5b505050506040513d601f19601f820116820180604052508101906200212a919062003093565b14620021ba578373ffffffffffffffffffffffffffffffffffffffff1663500b245e6040518163ffffffff1660e01b815260040160206040518083038186803b1580156200217757600080fd5b505afa1580156200218c573d6000803e3d6000fd5b505050506040513d601f19601f82011682018060405250810190620021b2919062003093565b9050620021be565b4390505b620021d38282620023ad90919063ffffffff16565b92505050919050565b60008060008073__$a2cc30817a35d2af16162c36988ade30ce$__634678497187876040518363ffffffff1660e01b81526004016200221d9291906200376b565b604080518083038186803b1580156200223557600080fd5b505af41580156200224a573d6000803e3d6000fd5b505050506040513d601f19601f8201168201806040525081019062002270919062003100565b915091506200230a828773ffffffffffffffffffffffffffffffffffffffff166321856b366040518163ffffffff1660e01b815260040160206040518083038186803b158015620022c057600080fd5b505afa158015620022d5573d6000803e3d6000fd5b505050506040513d601f19601f82011682018060405250810190620022fb919062003093565b620023ad90919063ffffffff16565b620023a0828873ffffffffffffffffffffffffffffffffffffffff1663193501146040518163ffffffff1660e01b815260040160206040518083038186803b1580156200235657600080fd5b505afa1580156200236b573d6000803e3d6000fd5b505050506040513d601f19601f8201168201806040525081019062002391919062003093565b620023ad90919063ffffffff16565b9350935050509250929050565b600080828401905083811015620023fb576040517f08c379a0000000000000000000000000000000000000000000000000000000008152600401620023f290620037fb565b60405180910390fd5b8091505092915050565b8373ffffffffffffffffffffffffffffffffffffffff1663fb1669ca846040518263ffffffff1660e01b81526004016200244091906200390b565b602060405180830381600087803b1580156200245b57600080fd5b505af115801562002470573d6000803e3d6000fd5b505050506040513d601f19601f8201168201806040525081019062002496919062003093565b508373ffffffffffffffffffffffffffffffffffffffff166396c8df37836040518263ffffffff1660e01b8152600401620024d291906200390b565b602060405180830381600087803b158015620024ed57600080fd5b505af115801562002502573d6000803e3d6000fd5b505050506040513d601f19601f8201168201806040525081019062002528919062003093565b508373ffffffffffffffffffffffffffffffffffffffff1663b3b8a9c7826040518263ffffffff1660e01b81526004016200256491906200390b565b602060405180830381600087803b1580156200257f57600080fd5b505af115801562002594573d6000803e3d6000fd5b505050506040513d601f19601f82011682018060405250810190620025ba919062003093565b508373ffffffffffffffffffffffffffffffffffffffff166327e7b263436040518263ffffffff1660e01b8152600401620025f691906200390b565b602060405180830381600087803b1580156200261157600080fd5b505af115801562002626573d6000803e3d6000fd5b505050506040513d601f19601f820116820180604052508101906200264c919062003093565b5060008314156200277e578373ffffffffffffffffffffffffffffffffffffffff1663fb9eb99060006040518263ffffffff1660e01b815260040162002693919062003798565b602060405180830381600087803b158015620026ae57600080fd5b505af1158015620026c3573d6000803e3d6000fd5b505050506040513d601f19601f82011682018060405250810190620026e9919062003093565b508373ffffffffffffffffffffffffffffffffffffffff16637957dda360006040518263ffffffff1660e01b815260040162002726919062003798565b602060405180830381600087803b1580156200274157600080fd5b505af115801562002756573d6000803e3d6000fd5b505050506040513d601f19601f820116820180604052508101906200277c919062003093565b505b50505050565b6000600160009054906101000a900473ffffffffffffffffffffffffffffffffffffffff16905090565b600080620027bc8362002bf2565b90506000620027d58583620023ad90919063ffffffff16565b905083600001548111159250505092915050565b6000806000806000620027fd8988620021dc565b915091506200280b62002db7565b73__$a2cc30817a35d2af16162c36988ade30ce$__63d7cc2a038a8c73ffffffffffffffffffffffffffffffffffffffff1663b69ef8a86040518163ffffffff1660e01b815260040160206040518083038186803b1580156200286d57600080fd5b505afa15801562002882573d6000803e3d6000fd5b505050506040513d601f19601f82011682018060405250810190620028a8919062003093565b86866040518563ffffffff1660e01b8152600401620028cb949392919062003928565b60606040518083038186803b158015620028e457600080fd5b505af4158015620028f9573d6000803e3d6000fd5b505050506040513d601f19601f820116820180604052508101906200291f919062003067565b90506000620029bd82602001518c73ffffffffffffffffffffffffffffffffffffffff1663b69ef8a86040518163ffffffff1660e01b815260040160206040518083038186803b1580156200297357600080fd5b505afa15801562002988573d6000803e3d6000fd5b505050506040513d601f19601f82011682018060405250810190620029ae919062003093565b62002cff90919063ffffffff16565b90508715620029e257620029df82604001518262002cff90919063ffffffff16565b90505b600062002a7a828d73ffffffffffffffffffffffffffffffffffffffff1663b69ef8a86040518163ffffffff1660e01b815260040160206040518083038186803b15801562002a3057600080fd5b505afa15801562002a45573d6000803e3d6000fd5b505050506040513d601f19601f8201168201806040525081019062002a6b919062003093565b62002cff90919063ffffffff16565b9050600062002aab8262002a9c86600001518f62002cff90919063ffffffff16565b62002cff90919063ffffffff16565b905062002aeb8d8462002acc87600001518a62002cff90919063ffffffff16565b62002ae588602001518a62002cff90919063ffffffff16565b62002405565b8b62002b198362002b0a876000015185620023ad90919063ffffffff16565b620023ad90919063ffffffff16565b1462002b5c576040517f08c379a000000000000000000000000000000000000000000000000000000000815260040162002b539062003861565b60405180910390fd5b808460000151839850985098505050505050509450945094915050565b50565b60008083141562002b91576000905062002bec565b600082840290508284828162002ba357fe5b041462002be7576040517f08c379a000000000000000000000000000000000000000000000000000000000815260040162002bde90620038a5565b60405180910390fd5b809150505b92915050565b6000806000905060008090505b836001018054905081101562002cf557600084600101828154811062002c2157fe5b9060005260206000200160009054906101000a900473ffffffffffffffffffffffffffffffffffffffff16905062002ce48173ffffffffffffffffffffffffffffffffffffffff1663a4d66daf6040518163ffffffff1660e01b815260040160206040518083038186803b15801562002c9957600080fd5b505afa15801562002cae573d6000803e3d6000fd5b505050506040513d601f19601f8201168201806040525081019062002cd4919062003093565b84620023ad90919063ffffffff16565b925050808060010191505062002bff565b5080915050919050565b600062002d4383836040518060400160405280601e81526020017f536166654d6174683a207375627472616374696f6e206f766572666c6f77000081525062002d4b565b905092915050565b600083831115829062002d96576040517f08c379a000000000000000000000000000000000000000000000000000000000815260040162002d8d9190620037b5565b60405180910390fd5b5060008385039050809150509392505050565b6115ca8062003b7e83390190565b60405180606001604052806000815260200160008152602001600081525090565b60008135905062002de98162003b15565b92915050565b60008151905062002e008162003b15565b92915050565b60008135905062002e178162003b2f565b92915050565b60008151905062002e2e8162003b49565b92915050565b60006060828403121562002e4757600080fd5b62002e53606062003975565b9050600062002e658482850162002eb4565b600083015250602062002e7b8482850162002eb4565b602083015250604062002e918482850162002eb4565b60408301525092915050565b60008135905062002eae8162003b63565b92915050565b60008151905062002ec58162003b63565b92915050565b60006020828403121562002ede57600080fd5b600062002eee8482850162002dd8565b91505092915050565b60006020828403121562002f0a57600080fd5b600062002f1a8482850162002def565b91505092915050565b6000806040838503121562002f3757600080fd5b600062002f478582860162002e06565b925050602062002f5a8582860162002e9d565b9150509250929050565b6000806040838503121562002f7857600080fd5b600062002f888582860162002dd8565b925050602062002f9b8582860162002e9d565b9150509250929050565b60008060008060008060c0878903121562002fbf57600080fd5b600062002fcf89828a0162002dd8565b965050602062002fe289828a0162002e9d565b955050604062002ff589828a0162002e9d565b94505060606200300889828a0162002e9d565b93505060806200301b89828a0162002e9d565b92505060a06200302e89828a0162002e9d565b9150509295509295509295565b6000602082840312156200304e57600080fd5b60006200305e8482850162002e1d565b91505092915050565b6000606082840312156200307a57600080fd5b60006200308a8482850162002e34565b91505092915050565b600060208284031215620030a657600080fd5b6000620030b68482850162002eb4565b91505092915050565b60008060408385031215620030d357600080fd5b6000620030e38582860162002e9d565b9250506020620030f68582860162002dd8565b9150509250929050565b600080604083850312156200311457600080fd5b6000620031248582860162002eb4565b9250506020620031378582860162002eb4565b9150509250929050565b60006200314f83836200316c565b60208301905092915050565b620031668162003a56565b82525050565b6200317781620039f8565b82525050565b6200318881620039f8565b82525050565b60006200319b82620039b3565b620031a78185620039d6565b9350620031b483620039a3565b8060005b83811015620031eb578151620031cf888262003141565b9750620031dc83620039c9565b925050600181019050620031b8565b5085935050505092915050565b620032038162003a6a565b82525050565b620032148162003a92565b82525050565b60006200322782620039be565b620032338185620039e7565b93506200324581856020860162003ace565b620032508162003b04565b840191505092915050565b60006200326a602683620039e7565b91507f4f776e61626c653a206e6577206f776e657220697320746865207a65726f206160008301527f64647265737300000000000000000000000000000000000000000000000000006020830152604082019050919050565b6000620032d2601b83620039e7565b91507f536166654d6174683a206164646974696f6e206f766572666c6f7700000000006000830152602082019050919050565b600062003314602083620039e7565b91507f496e73756666696369656e742062616c616e636520666f72207061796d656e746000830152602082019050919050565b600062003356602e83620039e7565b91507f54686520756e6465727772697465722063616e6e6f742063726561746520746860008301527f697320637265646974206c696e650000000000000000000000000000000000006020830152604082019050919050565b6000620033be604e83620039e7565b91507f43616c63756c6174696f6e73206d7573742062652077726f6e672e2053756d2060008301527f6f6620616d6f756e74732072657475726e656420646f206e6f7420657175616c60208301527f207061796d656e74416d6f756e740000000000000000000000000000000000006040830152606082019050919050565b60006200344c602583620039e7565b91507f596f7520646f206e6f742062656c6f6e6720746f20746869732063726564697460008301527f206c696e650000000000000000000000000000000000000000000000000000006020830152604082019050919050565b6000620034b4602183620039e7565b91507f536166654d6174683a206d756c7469706c69636174696f6e206f766572666c6f60008301527f77000000000000000000000000000000000000000000000000000000000000006020830152604082019050919050565b60006200351c602083620039e7565b91507f4f776e61626c653a2063616c6c6572206973206e6f7420746865206f776e65726000830152602082019050919050565b60006200355e604083620039e7565b91507f54686520626f72726f77657220646f6573206e6f74206861766520656e6f756760008301527f6820637265646974206c696d697420666f7220746869732064726177646f776e6020830152604082019050919050565b620035c28162003a4c565b82525050565b620035d38162003a4c565b82525050565b6000602082019050620035f060008301846200317d565b92915050565b60006060820190506200360d60008301866200315b565b6200361c60208301856200315b565b6200362b6040830184620035b7565b949350505050565b60006060820190506200364a60008301866200315b565b6200365960208301856200317d565b620036686040830184620035b7565b949350505050565b60006040820190506200368760008301856200315b565b620036966020830184620035b7565b9392505050565b6000606082019050620036b460008301866200317d565b620036c360208301856200315b565b620036d26040830184620035b7565b949350505050565b600060c082019050620036f160008301896200317d565b620037006020830188620035b7565b6200370f6040830187620035b7565b6200371e6060830186620035b7565b6200372d6080830185620035b7565b6200373c60a0830184620035b7565b979650505050505050565b600060208201905081810360008301526200376381846200318e565b905092915050565b6000604082019050620037826000830185620031f8565b620037916020830184620035c8565b9392505050565b6000602082019050620037af600083018462003209565b92915050565b60006020820190508181036000830152620037d181846200321a565b905092915050565b60006020820190508181036000830152620037f4816200325b565b9050919050565b600060208201905081810360008301526200381681620032c3565b9050919050565b60006020820190508181036000830152620038388162003305565b9050919050565b600060208201905081810360008301526200385a8162003347565b9050919050565b600060208201905081810360008301526200387c81620033af565b9050919050565b600060208201905081810360008301526200389e816200343d565b9050919050565b60006020820190508181036000830152620038c081620034a5565b9050919050565b60006020820190508181036000830152620038e2816200350d565b9050919050565b6000602082019050818103600083015262003904816200354f565b9050919050565b6000602082019050620039226000830184620035b7565b92915050565b60006080820190506200393f6000830187620035c8565b6200394e6020830186620035c8565b6200395d6040830185620035c8565b6200396c6060830184620035c8565b95945050505050565b6000604051905081810181811067ffffffffffffffff821117156200399957600080fd5b8060405250919050565b6000819050602082019050919050565b600081519050919050565b600081519050919050565b6000602082019050919050565b600082825260208201905092915050565b600082825260208201905092915050565b600062003a058262003a2c565b9050919050565b600062003a198262003a2c565b9050919050565b60008115159050919050565b600073ffffffffffffffffffffffffffffffffffffffff82169050919050565b6000819050919050565b600062003a638262003aa6565b9050919050565b600062003a778262003a7e565b9050919050565b600062003a8b8262003a2c565b9050919050565b600062003a9f8262003a4c565b9050919050565b600062003ab38262003aba565b9050919050565b600062003ac78262003a2c565b9050919050565b60005b8381101562003aee57808201518184015260208101905062003ad1565b8381111562003afe576000848401525b50505050565b6000601f19601f8301169050919050565b62003b2081620039f8565b811462003b2c57600080fd5b50565b62003b3a8162003a0c565b811462003b4657600080fd5b50565b62003b548162003a20565b811462003b6057600080fd5b50565b62003b6e8162003a4c565b811462003b7a57600080fd5b5056fe608060405234801561001057600080fd5b506040516115ca3803806115ca833981810160405260c081101561003357600080fd5b81019080805190602001909291908051906020019092919080519060200190929190805190602001909291908051906020019092919080519060200190929190505050600061008661019a60201b60201c565b9050806000806101000a81548173ffffffffffffffffffffffffffffffffffffffff021916908373ffffffffffffffffffffffffffffffffffffffff1602179055508073ffffffffffffffffffffffffffffffffffffffff16600073ffffffffffffffffffffffffffffffffffffffff167f8be0079c531659141344cd1fd0a4f28419497f9722a3daafe3b4186f6b6457e060405160405180910390a35085600160006101000a81548173ffffffffffffffffffffffffffffffffffffffff021916908373ffffffffffffffffffffffffffffffffffffffff160217905550846003819055508360048190555082600581905550816006819055508060078190555043600f819055505050505050506101a2565b600033905090565b611419806101b16000396000f3fe608060405234801561001057600080fd5b50600436106101a95760003560e01c80638da5cb5b116100f9578063c98c05b711610097578063f2fde38b11610071578063f2fde38b146105a2578063f90ce5ba146105e6578063fb1669ca14610604578063fb9eb99014610646576101a9565b8063c98c05b714610548578063ca3152e514610566578063d8dfeb4514610584576101a9565b8063a4d66daf116100d3578063a4d66daf146104ac578063b3969992146104ca578063b3b8a9c7146104e8578063b69ef8a81461052a576101a9565b80638da5cb5b1461040257806396c8df371461044c57806399dd8df31461048e576101a9565b806341f1a1261161016657806361cfbca11161014057806361cfbca11461032a578063715018a61461036c5780637957dda3146103765780637df1f1b9146103b8576101a9565b806341f1a126146102ac57806348e6f296146102ee578063500b245e1461030c576101a9565b80630d49481d146101ae5780631790ebd5146101cc57806319350114146101ea57806321856b361461020857806327e7b263146102265780633059b7c614610268575b600080fd5b6101b6610688565b6040518082815260200191505060405180910390f35b6101d461068e565b6040518082815260200191505060405180910390f35b6101f2610694565b6040518082815260200191505060405180910390f35b61021061069a565b6040518082815260200191505060405180910390f35b6102526004803603602081101561023c57600080fd5b81019080803590602001909291905050506106a0565b6040518082815260200191505060405180910390f35b6102aa6004803603602081101561027e57600080fd5b81019080803573ffffffffffffffffffffffffffffffffffffffff169060200190929190505050610778565b005b6102d8600480360360208110156102c257600080fd5b81019080803590602001909291905050506109ad565b6040518082815260200191505060405180910390f35b6102f6610a85565b6040518082815260200191505060405180910390f35b610314610a8b565b6040518082815260200191505060405180910390f35b6103566004803603602081101561034057600080fd5b8101908080359060200190929190505050610a91565b6040518082815260200191505060405180910390f35b610374610b69565b005b6103a26004803603602081101561038c57600080fd5b8101908080359060200190929190505050610cf1565b6040518082815260200191505060405180910390f35b6103c0610dc9565b604051808273ffffffffffffffffffffffffffffffffffffffff1673ffffffffffffffffffffffffffffffffffffffff16815260200191505060405180910390f35b61040a610def565b604051808273ffffffffffffffffffffffffffffffffffffffff1673ffffffffffffffffffffffffffffffffffffffff16815260200191505060405180910390f35b6104786004803603602081101561046257600080fd5b8101908080359060200190929190505050610e18565b6040518082815260200191505060405180910390f35b610496610ef0565b6040518082815260200191505060405180910390f35b6104b4610ef6565b6040518082815260200191505060405180910390f35b6104d2610efc565b6040518082815260200191505060405180910390f35b610514600480360360208110156104fe57600080fd5b8101908080359060200190929190505050610f02565b6040518082815260200191505060405180910390f35b610532610fda565b6040518082815260200191505060405180910390f35b610550610fe0565b6040518082815260200191505060405180910390f35b61056e610fe6565b6040518082815260200191505060405180910390f35b61058c610fec565b6040518082815260200191505060405180910390f35b6105e4600480360360208110156105b857600080fd5b81019080803573ffffffffffffffffffffffffffffffffffffffff169060200190929190505050610ff2565b005b6105ee6111ff565b6040518082815260200191505060405180910390f35b6106306004803603602081101561061a57600080fd5b8101908080359060200190929190505050611205565b6040518082815260200191505060405180910390f35b6106726004803603602081101561065c57600080fd5b81019080803590602001909291905050506112dd565b6040518082815260200191505060405180910390f35b60055481565b600d5481565b600a5481565b60095481565b60006106aa6113b5565b73ffffffffffffffffffffffffffffffffffffffff166000809054906101000a900473ffffffffffffffffffffffffffffffffffffffff1673ffffffffffffffffffffffffffffffffffffffff161461076b576040517f08c379a00000000000000000000000000000000000000000000000000000000081526004018080602001828103825260208152602001807f4f776e61626c653a2063616c6c6572206973206e6f7420746865206f776e657281525060200191505060405180910390fd5b81600f8190559050919050565b6107806113b5565b73ffffffffffffffffffffffffffffffffffffffff166000809054906101000a900473ffffffffffffffffffffffffffffffffffffffff1673ffffffffffffffffffffffffffffffffffffffff1614610841576040517f08c379a00000000000000000000000000000000000000000000000000000000081526004018080602001828103825260208152602001807f4f776e61626c653a2063616c6c6572206973206e6f7420746865206f776e657281525060200191505060405180910390fd5b60008173ffffffffffffffffffffffffffffffffffffffff16636a83b7e96040518163ffffffff1660e01b815260040160206040518083038186803b15801561088957600080fd5b505afa15801561089d573d6000803e3d6000fd5b505050506040513d60208110156108b357600080fd5b810190808051906020019092919050505090508073ffffffffffffffffffffffffffffffffffffffff1663095ea7b3837fffffffffffffffffffffffffffffffffffffffffffffffffffffffffffffffff6040518363ffffffff1660e01b8152600401808373ffffffffffffffffffffffffffffffffffffffff1673ffffffffffffffffffffffffffffffffffffffff16815260200182815260200192505050602060405180830381600087803b15801561096d57600080fd5b505af1158015610981573d6000803e3d6000fd5b505050506040513d602081101561099757600080fd5b8101908080519060200190929190505050505050565b60006109b76113b5565b73ffffffffffffffffffffffffffffffffffffffff166000809054906101000a900473ffffffffffffffffffffffffffffffffffffffff1673ffffffffffffffffffffffffffffffffffffffff1614610a78576040517f08c379a00000000000000000000000000000000000000000000000000000000081526004018080602001828103825260208152602001807f4f776e61626c653a2063616c6c6572206973206e6f7420746865206f776e657281525060200191505060405180910390fd5b81600b8190559050919050565b60075481565b600e5481565b6000610a9b6113b5565b73ffffffffffffffffffffffffffffffffffffffff166000809054906101000a900473ffffffffffffffffffffffffffffffffffffffff1673ffffffffffffffffffffffffffffffffffffffff1614610b5c576040517f08c379a00000000000000000000000000000000000000000000000000000000081526004018080602001828103825260208152602001807f4f776e61626c653a2063616c6c6572206973206e6f7420746865206f776e657281525060200191505060405180910390fd5b81600c8190559050919050565b610b716113b5565b73ffffffffffffffffffffffffffffffffffffffff166000809054906101000a900473ffffffffffffffffffffffffffffffffffffffff1673ffffffffffffffffffffffffffffffffffffffff1614610c32576040517f08c379a00000000000000000000000000000000000000000000000000000000081526004018080602001828103825260208152602001807f4f776e61626c653a2063616c6c6572206973206e6f7420746865206f776e657281525060200191505060405180910390fd5b600073ffffffffffffffffffffffffffffffffffffffff166000809054906101000a900473ffffffffffffffffffffffffffffffffffffffff1673ffffffffffffffffffffffffffffffffffffffff167f8be0079c531659141344cd1fd0a4f28419497f9722a3daafe3b4186f6b6457e060405160405180910390a360008060006101000a81548173ffffffffffffffffffffffffffffffffffffffff021916908373ffffffffffffffffffffffffffffffffffffffff160217905550565b6000610cfb6113b5565b73ffffffffffffffffffffffffffffffffffffffff166000809054906101000a900473ffffffffffffffffffffffffffffffffffffffff1673ffffffffffffffffffffffffffffffffffffffff1614610dbc576040517f08c379a00000000000000000000000000000000000000000000000000000000081526004018080602001828103825260208152602001807f4f776e61626c653a2063616c6c6572206973206e6f7420746865206f776e657281525060200191505060405180910390fd5b81600e8190559050919050565b600160009054906101000a900473ffffffffffffffffffffffffffffffffffffffff1681565b60008060009054906101000a900473ffffffffffffffffffffffffffffffffffffffff16905090565b6000610e226113b5565b73ffffffffffffffffffffffffffffffffffffffff166000809054906101000a900473ffffffffffffffffffffffffffffffffffffffff1673ffffffffffffffffffffffffffffffffffffffff1614610ee3576040517f08c379a00000000000000000000000000000000000000000000000000000000081526004018080602001828103825260208152602001807f4f776e61626c653a2063616c6c6572206973206e6f7420746865206f776e657281525060200191505060405180910390fd5b8160098190559050919050565b60065481565b60035481565b60045481565b6000610f0c6113b5565b73ffffffffffffffffffffffffffffffffffffffff166000809054906101000a900473ffffffffffffffffffffffffffffffffffffffff1673ffffffffffffffffffffffffffffffffffffffff1614610fcd576040517f08c379a00000000000000000000000000000000000000000000000000000000081526004018080602001828103825260208152602001807f4f776e61626c653a2063616c6c6572206973206e6f7420746865206f776e657281525060200191505060405180910390fd5b81600a8190559050919050565b60085481565b600c5481565b600b5481565b60025481565b610ffa6113b5565b73ffffffffffffffffffffffffffffffffffffffff166000809054906101000a900473ffffffffffffffffffffffffffffffffffffffff1673ffffffffffffffffffffffffffffffffffffffff16146110bb576040517f08c379a00000000000000000000000000000000000000000000000000000000081526004018080602001828103825260208152602001807f4f776e61626c653a2063616c6c6572206973206e6f7420746865206f776e657281525060200191505060405180910390fd5b600073ffffffffffffffffffffffffffffffffffffffff168173ffffffffffffffffffffffffffffffffffffffff161415611141576040517f08c379a00000000000000000000000000000000000000000000000000000000081526004018080602001828103825260268152602001806113be6026913960400191505060405180910390fd5b8073ffffffffffffffffffffffffffffffffffffffff166000809054906101000a900473ffffffffffffffffffffffffffffffffffffffff1673ffffffffffffffffffffffffffffffffffffffff167f8be0079c531659141344cd1fd0a4f28419497f9722a3daafe3b4186f6b6457e060405160405180910390a3806000806101000a81548173ffffffffffffffffffffffffffffffffffffffff021916908373ffffffffffffffffffffffffffffffffffffffff16021790555050565b600f5481565b600061120f6113b5565b73ffffffffffffffffffffffffffffffffffffffff166000809054906101000a900473ffffffffffffffffffffffffffffffffffffffff1673ffffffffffffffffffffffffffffffffffffffff16146112d0576040517f08c379a00000000000000000000000000000000000000000000000000000000081526004018080602001828103825260208152602001807f4f776e61626c653a2063616c6c6572206973206e6f7420746865206f776e657281525060200191505060405180910390fd5b8160088190559050919050565b60006112e76113b5565b73ffffffffffffffffffffffffffffffffffffffff166000809054906101000a900473ffffffffffffffffffffffffffffffffffffffff1673ffffffffffffffffffffffffffffffffffffffff16146113a8576040517f08c379a00000000000000000000000000000000000000000000000000000000081526004018080602001828103825260208152602001807f4f776e61626c653a2063616c6c6572206973206e6f7420746865206f776e657281525060200191505060405180910390fd5b81600d8190559050919050565b60003390509056fe4f776e61626c653a206e6577206f776e657220697320746865207a65726f2061646472657373a2646970667358221220edeff59dc4261af8624fe4981a443556de6fef5fe542b93baae414ca82ab8e8564736f6c63430006080033a2646970667358221220c06160a26a56ec89e722b53814ddc5d7443869cba3562eceaf4919ff2b09ad9d64736f6c63430006080033",
  "libraries": {
    "Accountant": "0x4c37D1a744c42B8Ef0baa54E66F1Bca27715c685"
  },
  "devdoc": {
    "methods": {
      "owner()": {
        "details": "Returns the address of the current owner."
      },
      "renounceOwnership()": {
        "details": "Leaves the contract without owner. It will not be possible to call `onlyOwner` functions anymore. Can only be called by the current owner.     * NOTE: Renouncing ownership will leave the contract without an owner, thereby removing any functionality that is only available to the owner."
      },
      "transferOwnership(address)": {
        "details": "Transfers ownership of the contract to a new account (`newOwner`). Can only be called by the current owner."
      }
    }
  },
  "userdoc": {
    "methods": {}
  },
  "storageLayout": {
    "storage": [
      {
        "astId": 30,
        "contract": "contracts/CreditDesk.sol:CreditDesk",
        "label": "_owner",
        "offset": 0,
        "slot": "0",
        "type": "t_address"
      },
      {
        "astId": 1686,
        "contract": "contracts/CreditDesk.sol:CreditDesk",
        "label": "poolAddress",
        "offset": 0,
        "slot": "1",
        "type": "t_address"
      },
      {
        "astId": 1700,
        "contract": "contracts/CreditDesk.sol:CreditDesk",
        "label": "underwriters",
        "offset": 0,
        "slot": "2",
        "type": "t_mapping(t_address,t_struct(Underwriter)1692_storage)"
      },
      {
        "astId": 1704,
        "contract": "contracts/CreditDesk.sol:CreditDesk",
        "label": "borrowers",
        "offset": 0,
        "slot": "3",
        "type": "t_mapping(t_address,t_struct(Borrower)1696_storage)"
      }
    ],
    "types": {
      "t_address": {
        "encoding": "inplace",
        "label": "address",
        "numberOfBytes": "20"
      },
      "t_array(t_address)dyn_storage": {
        "base": "t_address",
        "encoding": "dynamic_array",
        "label": "address[]",
        "numberOfBytes": "32"
      },
      "t_mapping(t_address,t_struct(Borrower)1696_storage)": {
        "encoding": "mapping",
        "key": "t_address",
        "label": "mapping(address => struct CreditDesk.Borrower)",
        "numberOfBytes": "32",
        "value": "t_struct(Borrower)1696_storage"
      },
      "t_mapping(t_address,t_struct(Underwriter)1692_storage)": {
        "encoding": "mapping",
        "key": "t_address",
        "label": "mapping(address => struct CreditDesk.Underwriter)",
        "numberOfBytes": "32",
        "value": "t_struct(Underwriter)1692_storage"
      },
      "t_struct(Borrower)1696_storage": {
        "encoding": "inplace",
        "label": "struct CreditDesk.Borrower",
        "members": [
          {
            "astId": 1695,
            "contract": "contracts/CreditDesk.sol:CreditDesk",
            "label": "creditLines",
            "offset": 0,
            "slot": "0",
            "type": "t_array(t_address)dyn_storage"
          }
        ],
        "numberOfBytes": "32"
      },
      "t_struct(Underwriter)1692_storage": {
        "encoding": "inplace",
        "label": "struct CreditDesk.Underwriter",
        "members": [
          {
            "astId": 1688,
            "contract": "contracts/CreditDesk.sol:CreditDesk",
            "label": "governanceLimit",
            "offset": 0,
            "slot": "0",
            "type": "t_uint256"
          },
          {
            "astId": 1691,
            "contract": "contracts/CreditDesk.sol:CreditDesk",
            "label": "creditLines",
            "offset": 0,
            "slot": "1",
            "type": "t_array(t_address)dyn_storage"
          }
        ],
        "numberOfBytes": "64"
      },
      "t_uint256": {
        "encoding": "inplace",
        "label": "uint256",
        "numberOfBytes": "32"
      }
    }
  },
  "gasEstimates": {
    "creation": {
      "codeDepositCost": "4172200",
      "executionCost": "infinite",
      "totalCost": "infinite"
    },
    "external": {
      "addCollateral(address,uint256)": "infinite",
      "assessCreditLine(address)": "infinite",
      "blocksPerDay()": "419",
      "createCreditLine(address,uint256,uint256,uint256,uint256,uint256)": "infinite",
      "drawdown(uint256,address)": "infinite",
      "getBorrowerCreditLines(address)": "infinite",
      "getUnderwriterCreditLines(address)": "infinite",
      "owner()": "1267",
      "pay(address,uint256)": "infinite",
      "poolAddress()": "1260",
      "prepay(address,uint256)": "infinite",
      "renounceOwnership()": "24364",
      "setPoolAddress(address)": "infinite",
      "setUnderwriterGovernanceLimit(address,uint256)": "21680",
      "transferOwnership(address)": "24690",
      "underwriters(address)": "1617"
    },
    "internal": {
      "amountWithinLimit(uint256,contract CreditLine)": "infinite",
      "calculateNewTermEndBlock(contract CreditLine)": "infinite",
      "calculateNextDueBlock(contract CreditLine)": "infinite",
      "getCreditCurrentlyExtended(struct CreditDesk.Underwriter storage pointer)": "infinite",
      "getInterestAndPrincipalOwedAsOf(contract CreditLine,uint256)": "infinite",
      "getPool()": "859",
      "handleLatePayments(contract CreditLine)": "11",
      "handlePayment(contract CreditLine,uint256,uint256,bool)": "infinite",
      "underwriterCanCreateThisCreditLine(uint256,struct CreditDesk.Underwriter storage pointer)": "infinite",
      "updateCreditLineAccounting(contract CreditLine,uint256,uint256,uint256)": "infinite"
    }
  }
}