{
  "address": "0xDD2d0c39e0c58240d3eb2f79A5Ec6BA1a9073c3E",
  "abi": [
    {
      "inputs": [],
      "name": "AccessControlBadConfirmation",
      "type": "error"
    },
    {
      "inputs": [
        {
          "internalType": "address",
          "name": "account",
          "type": "address"
        },
        {
          "internalType": "bytes32",
          "name": "neededRole",
          "type": "bytes32"
        }
      ],
      "name": "AccessControlUnauthorizedAccount",
      "type": "error"
    },
    {
      "inputs": [],
      "name": "ECDSAInvalidSignature",
      "type": "error"
    },
    {
      "inputs": [
        {
          "internalType": "uint256",
          "name": "length",
          "type": "uint256"
        }
      ],
      "name": "ECDSAInvalidSignatureLength",
      "type": "error"
    },
    {
      "inputs": [
        {
          "internalType": "bytes32",
          "name": "s",
          "type": "bytes32"
        }
      ],
      "name": "ECDSAInvalidSignatureS",
      "type": "error"
    },
    {
      "inputs": [
        {
          "internalType": "address",
          "name": "spender",
          "type": "address"
        },
        {
          "internalType": "uint256",
          "name": "allowance",
          "type": "uint256"
        },
        {
          "internalType": "uint256",
          "name": "needed",
          "type": "uint256"
        }
      ],
      "name": "ERC20InsufficientAllowance",
      "type": "error"
    },
    {
      "inputs": [
        {
          "internalType": "address",
          "name": "sender",
          "type": "address"
        },
        {
          "internalType": "uint256",
          "name": "balance",
          "type": "uint256"
        },
        {
          "internalType": "uint256",
          "name": "needed",
          "type": "uint256"
        }
      ],
      "name": "ERC20InsufficientBalance",
      "type": "error"
    },
    {
      "inputs": [
        {
          "internalType": "address",
          "name": "approver",
          "type": "address"
        }
      ],
      "name": "ERC20InvalidApprover",
      "type": "error"
    },
    {
      "inputs": [
        {
          "internalType": "address",
          "name": "receiver",
          "type": "address"
        }
      ],
      "name": "ERC20InvalidReceiver",
      "type": "error"
    },
    {
      "inputs": [
        {
          "internalType": "address",
          "name": "sender",
          "type": "address"
        }
      ],
      "name": "ERC20InvalidSender",
      "type": "error"
    },
    {
      "inputs": [
        {
          "internalType": "address",
          "name": "spender",
          "type": "address"
        }
      ],
      "name": "ERC20InvalidSpender",
      "type": "error"
    },
    {
      "inputs": [
        {
          "internalType": "uint256",
          "name": "deadline",
          "type": "uint256"
        }
      ],
      "name": "ERC2612ExpiredSignature",
      "type": "error"
    },
    {
      "inputs": [
        {
          "internalType": "address",
          "name": "signer",
          "type": "address"
        },
        {
          "internalType": "address",
          "name": "owner",
          "type": "address"
        }
      ],
      "name": "ERC2612InvalidSigner",
      "type": "error"
    },
    {
      "inputs": [],
      "name": "EnforcedPause",
      "type": "error"
    },
    {
      "inputs": [],
      "name": "ExpectedPause",
      "type": "error"
    },
    {
      "inputs": [
        {
          "internalType": "address",
          "name": "account",
          "type": "address"
        },
        {
          "internalType": "uint256",
          "name": "currentNonce",
          "type": "uint256"
        }
      ],
      "name": "InvalidAccountNonce",
      "type": "error"
    },
    {
      "inputs": [],
      "name": "InvalidInitialization",
      "type": "error"
    },
    {
      "inputs": [],
      "name": "NotInitializing",
      "type": "error"
    },
    {
      "inputs": [],
      "name": "ReentrancyGuardReentrantCall",
      "type": "error"
    },
    {
      "anonymous": false,
      "inputs": [
        {
          "indexed": true,
          "internalType": "address",
          "name": "owner",
          "type": "address"
        },
        {
          "indexed": true,
          "internalType": "address",
          "name": "spender",
          "type": "address"
        },
        {
          "indexed": false,
          "internalType": "uint256",
          "name": "value",
          "type": "uint256"
        }
      ],
      "name": "Approval",
      "type": "event"
    },
    {
      "anonymous": false,
      "inputs": [
        {
          "indexed": true,
          "internalType": "address",
          "name": "user",
          "type": "address"
        },
        {
          "indexed": false,
          "internalType": "uint256",
          "name": "usdcAmount",
          "type": "uint256"
        },
        {
          "indexed": false,
          "internalType": "uint256",
          "name": "sharesReceived",
          "type": "uint256"
        }
      ],
      "name": "Deposited",
      "type": "event"
    },
    {
      "anonymous": false,
      "inputs": [
        {
          "indexed": true,
          "internalType": "address",
          "name": "user",
          "type": "address"
        },
        {
          "indexed": false,
          "internalType": "uint256",
          "name": "drawdownAmount",
          "type": "uint256"
        }
      ],
      "name": "DrawdownMade",
      "type": "event"
    },
    {
      "anonymous": false,
      "inputs": [],
      "name": "EIP712DomainChanged",
      "type": "event"
    },
    {
      "anonymous": false,
      "inputs": [
        {
          "indexed": true,
          "internalType": "address",
          "name": "user",
          "type": "address"
        },
        {
          "indexed": false,
          "internalType": "uint256",
          "name": "feeAmount",
          "type": "uint256"
        }
      ],
      "name": "FeeCollected",
      "type": "event"
    },
    {
      "anonymous": false,
      "inputs": [
        {
          "indexed": false,
          "internalType": "uint64",
          "name": "version",
          "type": "uint64"
        }
      ],
      "name": "Initialized",
      "type": "event"
    },
    {
      "anonymous": false,
      "inputs": [
        {
          "indexed": false,
          "internalType": "address",
          "name": "account",
          "type": "address"
        }
      ],
      "name": "Paused",
      "type": "event"
    },
    {
      "anonymous": false,
      "inputs": [
        {
          "indexed": true,
          "internalType": "address",
          "name": "user",
          "type": "address"
        },
        {
          "indexed": false,
          "internalType": "uint256",
          "name": "remainingShares",
          "type": "uint256"
        }
      ],
      "name": "RedemptionCancelled",
      "type": "event"
    },
    {
      "anonymous": false,
      "inputs": [
        {
          "indexed": true,
          "internalType": "address",
          "name": "user",
          "type": "address"
        },
        {
          "indexed": false,
          "internalType": "uint256",
          "name": "usdcFulfilled",
          "type": "uint256"
        },
        {
          "indexed": false,
          "internalType": "uint256",
          "name": "totalUsdcFulfilled",
          "type": "uint256"
        },
        {
          "indexed": false,
          "internalType": "uint256",
          "name": "totalSharesRequested",
          "type": "uint256"
        }
      ],
      "name": "RedemptionFulfilled",
      "type": "event"
    },
    {
      "anonymous": false,
      "inputs": [
        {
          "indexed": true,
          "internalType": "address",
          "name": "user",
          "type": "address"
        },
        {
          "indexed": false,
          "internalType": "uint256",
          "name": "usdcReceived",
          "type": "uint256"
        }
      ],
      "name": "RedemptionProcessed",
      "type": "event"
    },
    {
      "anonymous": false,
      "inputs": [
        {
          "indexed": true,
          "internalType": "address",
          "name": "user",
          "type": "address"
        },
        {
          "indexed": false,
          "internalType": "uint256",
          "name": "shares",
          "type": "uint256"
        },
        {
          "indexed": false,
          "internalType": "uint256",
          "name": "timestamp",
          "type": "uint256"
        }
      ],
      "name": "RedemptionRequested",
      "type": "event"
    },
    {
      "anonymous": false,
      "inputs": [
        {
          "indexed": true,
          "internalType": "bytes32",
          "name": "role",
          "type": "bytes32"
        },
        {
          "indexed": true,
          "internalType": "bytes32",
          "name": "previousAdminRole",
          "type": "bytes32"
        },
        {
          "indexed": true,
          "internalType": "bytes32",
          "name": "newAdminRole",
          "type": "bytes32"
        }
      ],
      "name": "RoleAdminChanged",
      "type": "event"
    },
    {
      "anonymous": false,
      "inputs": [
        {
          "indexed": true,
          "internalType": "bytes32",
          "name": "role",
          "type": "bytes32"
        },
        {
          "indexed": true,
          "internalType": "address",
          "name": "account",
          "type": "address"
        },
        {
          "indexed": true,
          "internalType": "address",
          "name": "sender",
          "type": "address"
        }
      ],
      "name": "RoleGranted",
      "type": "event"
    },
    {
      "anonymous": false,
      "inputs": [
        {
          "indexed": true,
          "internalType": "bytes32",
          "name": "role",
          "type": "bytes32"
        },
        {
          "indexed": true,
          "internalType": "address",
          "name": "account",
          "type": "address"
        },
        {
          "indexed": true,
          "internalType": "address",
          "name": "sender",
          "type": "address"
        }
      ],
      "name": "RoleRevoked",
      "type": "event"
    },
    {
      "anonymous": false,
      "inputs": [
        {
          "indexed": false,
          "internalType": "uint256",
          "name": "oldPrice",
          "type": "uint256"
        },
        {
          "indexed": false,
          "internalType": "uint256",
          "name": "newPrice",
          "type": "uint256"
        }
      ],
      "name": "SharePriceUpdated",
      "type": "event"
    },
    {
      "anonymous": false,
      "inputs": [
        {
          "indexed": true,
          "internalType": "address",
          "name": "from",
          "type": "address"
        },
        {
          "indexed": true,
          "internalType": "address",
          "name": "to",
          "type": "address"
        },
        {
          "indexed": false,
          "internalType": "uint256",
          "name": "value",
          "type": "uint256"
        }
      ],
      "name": "Transfer",
      "type": "event"
    },
    {
      "anonymous": false,
      "inputs": [
        {
          "indexed": false,
          "internalType": "address",
          "name": "account",
          "type": "address"
        }
      ],
      "name": "Unpaused",
      "type": "event"
    },
    {
      "inputs": [],
      "name": "BPS_DENOMINATOR",
      "outputs": [
        {
          "internalType": "uint256",
          "name": "",
          "type": "uint256"
        }
      ],
      "stateMutability": "view",
      "type": "function"
    },
    {
      "inputs": [],
      "name": "DEFAULT_ADMIN_ROLE",
      "outputs": [
        {
          "internalType": "bytes32",
          "name": "",
          "type": "bytes32"
        }
      ],
      "stateMutability": "view",
      "type": "function"
    },
    {
      "inputs": [],
      "name": "DOMAIN_SEPARATOR",
      "outputs": [
        {
          "internalType": "bytes32",
          "name": "",
          "type": "bytes32"
        }
      ],
      "stateMutability": "view",
      "type": "function"
    },
    {
      "inputs": [],
      "name": "MANAGER_ROLE",
      "outputs": [
        {
          "internalType": "bytes32",
          "name": "",
          "type": "bytes32"
        }
      ],
      "stateMutability": "view",
      "type": "function"
    },
    {
      "inputs": [],
      "name": "PAUSER_ROLE",
      "outputs": [
        {
          "internalType": "bytes32",
          "name": "",
          "type": "bytes32"
        }
      ],
      "stateMutability": "view",
      "type": "function"
    },
    {
      "inputs": [],
      "name": "WITHDRAWAL_FEE_BPS",
      "outputs": [
        {
          "internalType": "uint256",
          "name": "",
          "type": "uint256"
        }
      ],
      "stateMutability": "view",
      "type": "function"
    },
    {
      "inputs": [
        {
          "internalType": "address",
          "name": "owner",
          "type": "address"
        },
        {
          "internalType": "address",
          "name": "spender",
          "type": "address"
        }
      ],
      "name": "allowance",
      "outputs": [
        {
          "internalType": "uint256",
          "name": "",
          "type": "uint256"
        }
      ],
      "stateMutability": "view",
      "type": "function"
    },
    {
      "inputs": [
        {
          "internalType": "uint256",
          "name": "",
          "type": "uint256"
        }
      ],
      "name": "allowedUidTypes",
      "outputs": [
        {
          "internalType": "uint256",
          "name": "",
          "type": "uint256"
        }
      ],
      "stateMutability": "view",
      "type": "function"
    },
    {
      "inputs": [
        {
          "internalType": "address",
          "name": "spender",
          "type": "address"
        },
        {
          "internalType": "uint256",
          "name": "value",
          "type": "uint256"
        }
      ],
      "name": "approve",
      "outputs": [
        {
          "internalType": "bool",
          "name": "",
          "type": "bool"
        }
      ],
      "stateMutability": "nonpayable",
      "type": "function"
    },
    {
      "inputs": [],
      "name": "availableToDrawdown",
      "outputs": [
        {
          "internalType": "uint256",
          "name": "",
          "type": "uint256"
        }
      ],
      "stateMutability": "view",
      "type": "function"
    },
    {
      "inputs": [
        {
          "internalType": "address",
          "name": "account",
          "type": "address"
        }
      ],
      "name": "balanceOf",
      "outputs": [
        {
          "internalType": "uint256",
          "name": "",
          "type": "uint256"
        }
      ],
      "stateMutability": "view",
      "type": "function"
    },
    {
      "inputs": [
        {
          "internalType": "uint256",
          "name": "value",
          "type": "uint256"
        }
      ],
      "name": "burn",
      "outputs": [],
      "stateMutability": "nonpayable",
      "type": "function"
    },
    {
      "inputs": [
        {
          "internalType": "address",
          "name": "account",
          "type": "address"
        },
        {
          "internalType": "uint256",
          "name": "value",
          "type": "uint256"
        }
      ],
      "name": "burnFrom",
      "outputs": [],
      "stateMutability": "nonpayable",
      "type": "function"
    },
    {
      "inputs": [],
      "name": "cancelRedemption",
      "outputs": [],
      "stateMutability": "nonpayable",
      "type": "function"
    },
    {
      "inputs": [],
      "name": "config",
      "outputs": [
        {
          "internalType": "contract GoldfinchConfig",
          "name": "",
          "type": "address"
        }
      ],
      "stateMutability": "view",
      "type": "function"
    },
    {
      "inputs": [],
      "name": "decimals",
      "outputs": [
        {
          "internalType": "uint8",
          "name": "",
          "type": "uint8"
        }
      ],
      "stateMutability": "view",
      "type": "function"
    },
    {
      "inputs": [
        {
          "internalType": "uint256",
          "name": "usdcAmount",
          "type": "uint256"
        }
      ],
      "name": "deposit",
      "outputs": [],
      "stateMutability": "nonpayable",
      "type": "function"
    },
    {
      "inputs": [
        {
          "internalType": "uint256",
          "name": "usdcAmount",
          "type": "uint256"
        },
        {
          "internalType": "uint256",
          "name": "deadline",
          "type": "uint256"
        },
        {
          "internalType": "uint8",
          "name": "v",
          "type": "uint8"
        },
        {
          "internalType": "bytes32",
          "name": "r",
          "type": "bytes32"
        },
        {
          "internalType": "bytes32",
          "name": "s",
          "type": "bytes32"
        }
      ],
      "name": "depositWithPermit",
      "outputs": [],
      "stateMutability": "nonpayable",
      "type": "function"
    },
    {
      "inputs": [
        {
          "internalType": "uint256",
          "name": "usdcAmountToDrawdown",
          "type": "uint256"
        }
      ],
      "name": "drawdown",
      "outputs": [],
      "stateMutability": "nonpayable",
      "type": "function"
    },
    {
      "inputs": [],
      "name": "eip712Domain",
      "outputs": [
        {
          "internalType": "bytes1",
          "name": "fields",
          "type": "bytes1"
        },
        {
          "internalType": "string",
          "name": "name",
          "type": "string"
        },
        {
          "internalType": "string",
          "name": "version",
          "type": "string"
        },
        {
          "internalType": "uint256",
          "name": "chainId",
          "type": "uint256"
        },
        {
          "internalType": "address",
          "name": "verifyingContract",
          "type": "address"
        },
        {
          "internalType": "bytes32",
          "name": "salt",
          "type": "bytes32"
        },
        {
          "internalType": "uint256[]",
          "name": "extensions",
          "type": "uint256[]"
        }
      ],
      "stateMutability": "view",
      "type": "function"
    },
    {
      "inputs": [
        {
          "internalType": "address",
          "name": "user",
          "type": "address"
        },
        {
          "internalType": "uint256",
          "name": "usdcAmount",
          "type": "uint256"
        }
      ],
      "name": "fulfillRedemption",
      "outputs": [],
      "stateMutability": "nonpayable",
      "type": "function"
    },
    {
      "inputs": [
        {
          "internalType": "uint256",
          "name": "usdcAmount",
          "type": "uint256"
        }
      ],
      "name": "getNumShares",
      "outputs": [
        {
          "internalType": "uint256",
          "name": "",
          "type": "uint256"
        }
      ],
      "stateMutability": "view",
      "type": "function"
    },
    {
      "inputs": [
        {
          "internalType": "bytes32",
          "name": "role",
          "type": "bytes32"
        }
      ],
      "name": "getRoleAdmin",
      "outputs": [
        {
          "internalType": "bytes32",
          "name": "",
          "type": "bytes32"
        }
      ],
      "stateMutability": "view",
      "type": "function"
    },
    {
      "inputs": [
        {
          "internalType": "uint256",
          "name": "shareAmount",
          "type": "uint256"
        }
      ],
      "name": "getShareValue",
      "outputs": [
        {
          "internalType": "uint256",
          "name": "",
          "type": "uint256"
        }
      ],
      "stateMutability": "view",
      "type": "function"
    },
    {
      "inputs": [
        {
          "internalType": "bytes32",
          "name": "role",
          "type": "bytes32"
        },
        {
          "internalType": "address",
          "name": "account",
          "type": "address"
        }
      ],
      "name": "grantRole",
      "outputs": [],
      "stateMutability": "nonpayable",
      "type": "function"
    },
    {
      "inputs": [
        {
          "internalType": "address",
          "name": "sender",
          "type": "address"
        }
      ],
      "name": "hasAllowedUID",
      "outputs": [
        {
          "internalType": "bool",
          "name": "",
          "type": "bool"
        }
      ],
      "stateMutability": "view",
      "type": "function"
    },
    {
      "inputs": [
        {
          "internalType": "bytes32",
          "name": "role",
          "type": "bytes32"
        },
        {
          "internalType": "address",
          "name": "account",
          "type": "address"
        }
      ],
      "name": "hasRole",
      "outputs": [
        {
          "internalType": "bool",
          "name": "",
          "type": "bool"
        }
      ],
      "stateMutability": "view",
      "type": "function"
    },
    {
      "inputs": [
        {
          "internalType": "address",
          "name": "manager",
          "type": "address"
        },
        {
          "internalType": "address",
          "name": "_config",
          "type": "address"
        },
        {
          "internalType": "address",
          "name": "protocolAdmin",
          "type": "address"
        }
      ],
      "name": "initialize",
      "outputs": [],
      "stateMutability": "nonpayable",
      "type": "function"
    },
    {
      "inputs": [],
      "name": "name",
      "outputs": [
        {
          "internalType": "string",
          "name": "",
          "type": "string"
        }
      ],
      "stateMutability": "view",
      "type": "function"
    },
    {
      "inputs": [
        {
          "internalType": "address",
          "name": "owner",
          "type": "address"
        }
      ],
      "name": "nonces",
      "outputs": [
        {
          "internalType": "uint256",
          "name": "",
          "type": "uint256"
        }
      ],
      "stateMutability": "view",
      "type": "function"
    },
    {
      "inputs": [],
      "name": "pause",
      "outputs": [],
      "stateMutability": "nonpayable",
      "type": "function"
    },
    {
      "inputs": [],
      "name": "paused",
      "outputs": [
        {
          "internalType": "bool",
          "name": "",
          "type": "bool"
        }
      ],
      "stateMutability": "view",
      "type": "function"
    },
    {
      "inputs": [
        {
          "internalType": "address",
          "name": "owner",
          "type": "address"
        },
        {
          "internalType": "address",
          "name": "spender",
          "type": "address"
        },
        {
          "internalType": "uint256",
          "name": "value",
          "type": "uint256"
        },
        {
          "internalType": "uint256",
          "name": "deadline",
          "type": "uint256"
        },
        {
          "internalType": "uint8",
          "name": "v",
          "type": "uint8"
        },
        {
          "internalType": "bytes32",
          "name": "r",
          "type": "bytes32"
        },
        {
          "internalType": "bytes32",
          "name": "s",
          "type": "bytes32"
        }
      ],
      "name": "permit",
      "outputs": [],
      "stateMutability": "nonpayable",
      "type": "function"
    },
    {
      "inputs": [
        {
          "internalType": "address",
          "name": "",
          "type": "address"
        }
      ],
      "name": "redemptionRequests",
      "outputs": [
        {
          "internalType": "uint256",
          "name": "totalSharesRequested",
          "type": "uint256"
        },
        {
          "internalType": "uint256",
          "name": "sharesRedeemed",
          "type": "uint256"
        },
        {
          "internalType": "uint256",
          "name": "usdcToReceive",
          "type": "uint256"
        },
        {
          "internalType": "uint256",
          "name": "totalUsdcFulfilled",
          "type": "uint256"
        },
        {
          "internalType": "uint256",
          "name": "timestamp",
          "type": "uint256"
        }
      ],
      "stateMutability": "view",
      "type": "function"
    },
    {
      "inputs": [
        {
          "internalType": "bytes32",
          "name": "role",
          "type": "bytes32"
        },
        {
          "internalType": "address",
          "name": "callerConfirmation",
          "type": "address"
        }
      ],
      "name": "renounceRole",
      "outputs": [],
      "stateMutability": "nonpayable",
      "type": "function"
    },
    {
      "inputs": [
        {
          "internalType": "uint256",
          "name": "sharesToRedeem",
          "type": "uint256"
        }
      ],
      "name": "requestRedemption",
      "outputs": [],
      "stateMutability": "nonpayable",
      "type": "function"
    },
    {
      "inputs": [
        {
          "internalType": "bytes32",
          "name": "role",
          "type": "bytes32"
        },
        {
          "internalType": "address",
          "name": "account",
          "type": "address"
        }
      ],
      "name": "revokeRole",
      "outputs": [],
      "stateMutability": "nonpayable",
      "type": "function"
    },
    {
      "inputs": [],
      "name": "sharePrice",
      "outputs": [
        {
          "internalType": "uint256",
          "name": "",
          "type": "uint256"
        }
      ],
      "stateMutability": "view",
      "type": "function"
    },
    {
      "inputs": [
        {
          "internalType": "bytes4",
          "name": "interfaceId",
          "type": "bytes4"
        }
      ],
      "name": "supportsInterface",
      "outputs": [
        {
          "internalType": "bool",
          "name": "",
          "type": "bool"
        }
      ],
      "stateMutability": "view",
      "type": "function"
    },
    {
      "inputs": [],
      "name": "symbol",
      "outputs": [
        {
          "internalType": "string",
          "name": "",
          "type": "string"
        }
      ],
      "stateMutability": "view",
      "type": "function"
    },
    {
      "inputs": [],
      "name": "totalSupply",
      "outputs": [
        {
          "internalType": "uint256",
          "name": "",
          "type": "uint256"
        }
      ],
      "stateMutability": "view",
      "type": "function"
    },
    {
      "inputs": [
        {
          "internalType": "address",
          "name": "to",
          "type": "address"
        },
        {
          "internalType": "uint256",
          "name": "value",
          "type": "uint256"
        }
      ],
      "name": "transfer",
      "outputs": [
        {
          "internalType": "bool",
          "name": "",
          "type": "bool"
        }
      ],
      "stateMutability": "nonpayable",
      "type": "function"
    },
    {
      "inputs": [
        {
          "internalType": "address",
          "name": "from",
          "type": "address"
        },
        {
          "internalType": "address",
          "name": "to",
          "type": "address"
        },
        {
          "internalType": "uint256",
          "name": "value",
          "type": "uint256"
        }
      ],
      "name": "transferFrom",
      "outputs": [
        {
          "internalType": "bool",
          "name": "",
          "type": "bool"
        }
      ],
      "stateMutability": "nonpayable",
      "type": "function"
    },
    {
      "inputs": [],
      "name": "unpause",
      "outputs": [],
      "stateMutability": "nonpayable",
      "type": "function"
    },
    {
      "inputs": [
        {
          "internalType": "uint256",
          "name": "newSharePrice",
          "type": "uint256"
        }
      ],
      "name": "updateSharePrice",
      "outputs": [],
      "stateMutability": "nonpayable",
      "type": "function"
    },
    {
      "inputs": [],
      "name": "withdraw",
      "outputs": [],
      "stateMutability": "nonpayable",
      "type": "function"
    }
  ],
  "transactionHash": "0x8924ef46f8da5438cf1281d13964c65824ff409d2e731143ec5f98273dcd4985",
  "args": [],
  "numDeployments": 2,
  "solcInputHash": "0be23b3a36ae2c74f6a0689ad6a662cc",
  "bytecode": "0x60808060405234601557613724908161001a8239f35b5f80fdfe6080806040526004361015610012575f80fd5b5f905f3560e01c90816301ffc9a7146123b75750806303ba4c441461223b57806306fdde0314612159578063095ea7b31461213357806318160ddd1461210a57806323b872dd146120d2578063248a9ca3146120b45780632f2ff15d14612083578063313ce567146120685780633644e5151461204e57806336568abe1461200a5780633a4ae66914611ff05780633ccfd60b14611e875780633f4ba83a14611e0957806342966c6814611dea5780634a970be714611d2a5780635c975abb14611cfb5780635e4a9a6514611c955780635f6b360114611c52578063694139c0146119d25780636edd75901461196057806370a082311461191b57806379502c55146118f457806379cc6790146118c35780637ecebe001461186c5780638456cb59146117f957806384b0196e146116ab578063855cb21b14611681578063872697291461166357806391d148541461160d57806395d89b411461150e578063a079a4dd146113ba578063a217fddf1461139e578063a9059cbb1461136c578063af13c4a614611266578063b6b55f251461109a578063c0c53b8b14610694578063d505accf14610526578063d547741f146104eb578063dd62ed3e146104a3578063e1a4521814610486578063e63ab1e91461044b578063ec87621c14610410578063eeb3c91014610266578063f94f5a12146102385763fba75e3a14610218575f80fd5b346102355780600319360112610235576020600354604051908152f35b80fd5b503461023557602036600319011261023557602061025c610257612449565b6127a4565b6040519015158152f35b5034610235576020366003190112610235576004356102836128bc565b61028b6128f4565b80156103d9573382525f805160206135af8339815191526020526040822054811161039e5733825260046020526040822054610366576102cc81303361291b565b6040516102d8816124ad565b8181526004602082018481526040830185815260608401908682526080850192428452338852846020526040882095518655516001860155516002850155516003840155519101556040519081524260208201527f46949ee51143d5b58e4df83122d6c382a04f7bffbe563f78cd7fa61ee519ec0860403392a260015f805160206136af8339815191525580f35b60405162461bcd60e51b815260206004820152601060248201526f115e1a5cdd1a5b99c81c995c5d595cdd60821b6044820152606490fd5b60405162461bcd60e51b8152602060048201526013602482015272496e73756666696369656e742073686172657360681b6044820152606490fd5b60405162461bcd60e51b815260206004820152600f60248201526e04d7573742072656465656d203e203608c1b6044820152606490fd5b503461023557806003193601126102355760206040517f241ecf16d79d0f8dbfb92cbc07fe17840425976cf0667f022fe9877caa831b088152f35b503461023557806003193601126102355760206040517f65d7a28e3265b37a6474929f336521b332c1681b933f6cb9f3376673440d862a8152f35b503461023557806003193601126102355760206040516127108152f35b5034610235576040366003190112610235576104bd612449565b6104ce6104c861245f565b91612475565b9060018060a01b03165f52602052602060405f2054604051908152f35b50346102355760403660031901126102355761052260043561050b61245f565b9061051d6105188261270d565b612c06565b612eeb565b5080f35b50346102355760e036600319011261023557610540612449565b9061054961245f565b604435906064359360843560ff811681036106905785421161067c5761063c6106459160018060a01b038416978888527f5ab42ced628888259c08ac98db1eb0cf702fc1501344311d8b100cd1bfe4bb0060205260408820908154916001830190556040519060208201927f6e71edae12b1b97f4d1f60370fef10105fa2faae0126114a169c64845d6126c984528b604084015260018060a01b038916606084015289608084015260a083015260c082015260c0815261060a60e0826124dd565b519020610615613337565b906040519161190160f01b83526002830152602282015260c43591604260a43592206133c9565b9092919261344b565b6001600160a01b03169480860361066557506106629394506132af565b80f35b6325c0072360e11b85526004869052602452604484fd5b63313c898160e11b85526004869052602485fd5b8480fd5b5034610235576060366003190112610235576106ae612449565b6106b661245f565b90604435906001600160a01b038216808303610690575f805160206136cf833981519152549360ff8560401c16159467ffffffffffffffff811680159081611092575b6001149081611088575b15908161107f575b506110705767ffffffffffffffff1981166001175f805160206136cf8339815191525585611044575b5060018060a01b0316806bffffffffffffffffffffffff60a01b8754161786556040516107626040826124dd565b600e81526d476f6c6466696e63685072696d6560901b60208201526040519061078c6040836124dd565b6006825265475052494d4560d01b60208301526107a761339e565b6107af61339e565b80519067ffffffffffffffff8211610e6e5781906107da5f8051602061358f83398151915254612559565b601f8111610fea575b50602090601f8311600114610f6e578a92610f63575b50508160011b915f199060031b1c1916175f8051602061358f833981519152555b80519067ffffffffffffffff8211610d795781906108455f805160206135ef83398151915254612559565b601f8111610f09575b50602090601f8311600114610e8d578992610e82575b50508160011b915f199060031b1c1916175f805160206135ef833981519152555b61088d61339e565b61089561339e565b61089d61339e565b60ff195f8051602061368f83398151915254165f8051602061368f833981519152556108c761339e565b6040516108d56040826124dd565b600e81526d476f6c6466696e63685072696d6560901b60208201526108f861339e565b604051906109076040836124dd565b60018252603160f81b602083015261091d61339e565b80519067ffffffffffffffff8211610e6e5781906109485f805160206135cf83398151915254612559565b601f8111610e14575b50602090601f8311600114610d98578a92610d8d575b50508160011b915f199060031b1c1916175f805160206135cf833981519152555b80519067ffffffffffffffff8211610d795781906109b35f8051602061362f83398151915254612559565b601f8111610d14575b50602090601f8311600114610c98578992610c8d575b50508160011b915f199060031b1c1916175f8051602061362f833981519152555b7fa16a46d94261c7517cc8ff89f61c0ce93598e3c849801011dee649a6a557d1008690557fa16a46d94261c7517cc8ff89f61c0ce93598e3c849801011dee649a6a557d1018690556001600160a01b03831615610c485715610c035715610bb057610a6a82610a64610a7a94612c4c565b50612ce8565b50610a7481612ce8565b50612da1565b506040516040810181811067ffffffffffffffff821117610b9c5760405282815260046020820152600154600260015580600210610b53575b5060018352825b60028110610b2f575050670de0b6b3a7640000600255610ad75780f35b68ff0000000000000000195f805160206136cf83398151915254165f805160206136cf833981519152557fc7f505b2f371ae2175ee4913f4499e1f2633a7b5936321eed1cdaeb6115181d2602060405160018152a180f35b600190602060ff845116930192815f8051602061366f833981519152015501610aba565b5f8051602061366f833981519152017fb10e2d527612073b26eecdfd717e6a320cf44b4afac2b0732d9fcbe2b7fa0cf85b818110610b915750610ab3565b848155600101610b84565b634e487b7160e01b84526041600452602484fd5b60405162461bcd60e51b815260206004820152602560248201527f70726f746f636f6c2061646d696e2063616e6e6f74206265207a65726f206164604482015264647265737360d81b6064820152608490fd5b60405162461bcd60e51b815260206004820152601d60248201527f636f6e6669672063616e6e6f74206265207a65726f20616464726573730000006044820152606490fd5b60405162461bcd60e51b815260206004820152601e60248201527f6d616e616765722063616e6e6f74206265207a65726f206164647265737300006044820152606490fd5b015190505f806109d2565b5f8051602061362f8339815191528a52818a209250601f1984168a5b818110610cfc5750908460019594939210610ce4575b505050811b015f8051602061362f833981519152556109f3565b01515f1960f88460031b161c191690555f8080610cca565b92936020600181928786015181550195019301610cb4565b5f8051602061362f8339815191528a52610d69907f5f9ce34815f8e11431c7bb75a8e6886a91478f7ffc1dbb0a98dc240fddd76b75601f850160051c81019160208610610d6f575b601f0160051c019061278e565b5f6109bc565b9091508190610d5c565b634e487b7160e01b88526041600452602488fd5b015190505f80610967565b5f805160206135cf8339815191528b52818b209250601f1984168b5b818110610dfc5750908460019594939210610de4575b505050811b015f805160206135cf83398151915255610988565b01515f1960f88460031b161c191690555f8080610dca565b92936020600181928786015181550195019301610db4565b5f805160206135cf8339815191528b52610e68907f42ad5d3e1f2e6e70edcf6d991b8a3023d3fca8047a131592f9edb9fd9b89d57d601f850160051c81019160208610610d6f57601f0160051c019061278e565b5f610951565b634e487b7160e01b89526041600452602489fd5b015190505f80610864565b5f805160206135ef8339815191528a52818a209250601f1984168a5b818110610ef15750908460019594939210610ed9575b505050811b015f805160206135ef83398151915255610885565b01515f1960f88460031b161c191690555f8080610ebf565b92936020600181928786015181550195019301610ea9565b5f805160206135ef8339815191528a52610f5d907f46a2803e59a4de4e7a4c574b1243f25977ac4c77d5a1a4a609b5394cebb4a2aa601f850160051c81019160208610610d6f57601f0160051c019061278e565b5f61084e565b015190505f806107f9565b5f8051602061358f8339815191528b52818b209250601f1984168b5b818110610fd25750908460019594939210610fba575b505050811b015f8051602061358f8339815191525561081a565b01515f1960f88460031b161c191690555f8080610fa0565b92936020600181928786015181550195019301610f8a565b5f8051602061358f8339815191528b5261103e907f2ae08a8e29253f69ac5d979a101956ab8f8d9d7ded63fa7a83b16fc47648eab0601f850160051c81019160208610610d6f57601f0160051c019061278e565b5f6107e3565b68ffffffffffffffffff191668010000000000000001175f805160206136cf833981519152555f610734565b63f92ee8a960e01b8752600487fd5b9050155f61070b565b303b159150610703565b8791506106f9565b5034610235576020366003190112610235576004356110b76128bc565b6110bf6128f4565b6110c8336127a4565b15611233576110d960025482613100565b80156111ee5782546001600160a01b03906110f5908216612f87565b6040516323b872dd60e01b81523360048201523060248201526044810185905291602091839160649183918991165af180156111e35761113c9185916111b4575b50612743565b33156111a05761114c81336131b2565b61115882600354612781565b60035560405191825260208201527f73a19dd210f1a7f902193214c0ee91dd35ee5b4d920cba8d519eca65a7b488ca60403392a260015f805160206136af8339815191525580f35b63ec442f0560e01b83526004839052602483fd5b6111d6915060203d6020116111dc575b6111ce81836124dd565b81019061272b565b5f611136565b503d6111c4565b6040513d86823e3d90fd5b60405162461bcd60e51b815260206004820152601760248201527f4d7573742072656365697665203e2030207368617265730000000000000000006044820152606490fd5b60405162461bcd60e51b815260206004820152600b60248201526a125b9d985b1a590815525160aa1b6044820152606490fd5b503461023557602036600319011261023557600435611283612b97565b801561133157600254908060025567016345785d8a00008110158061131f575b156112db577fe3745d81d1057cc6022e5875c5c2f8442e2548bfa6ecf8f966861d179a3b188f9160409182519182526020820152a180f35b606460405162461bcd60e51b815260206004820152602060248201527f5368617265207072696365206f7574206f6620616c6c6f7765642072616e67656044820152fd5b50678ac7230489e800008111156112a3565b60405162461bcd60e51b8152602060048201526013602482015272496e76616c696420736861726520707269636560681b6044820152606490fd5b503461023557604036600319011261023557611393611389612449565b602435903361291b565b602060405160018152f35b5034610235578060031936011261023557602090604051908152f35b5034610235576020366003190112610235576004356113d7612b97565b80156114c95760035480821161148457816113f191612538565b60035581546001600160a01b039061140a908216612f87565b60405163a9059cbb60e01b81523360048201526024810184905291602091839160449183918891165af180156114795761144a9184916111b45750612743565b6040519081527f7411b87a3c039bdfd8f3510b21e8bd0736265f53513735e1f4aa7b4f306b728d60203392a280f35b6040513d85823e3d90fd5b60405162461bcd60e51b815260206004820152601d60248201527f496e73756666696369656e7420617661696c61626c6520616d6f756e740000006044820152606490fd5b60405162461bcd60e51b815260206004820152601760248201527f496e76616c69642064726177646f776e20616d6f756e740000000000000000006044820152606490fd5b503461023557806003193601126102355760405190805f805160206135ef833981519152549061153d82612559565b80855291600181169081156115e6575060011461157d575b61157984611565818603826124dd565b60405191829160208352602083019061240a565b0390f35b5f805160206135ef83398151915281527f46a2803e59a4de4e7a4c574b1243f25977ac4c77d5a1a4a609b5394cebb4a2aa939250905b8082106115cc5750909150810160200161156582611555565b9192600181602092548385880101520191019092916115b3565b60ff191660208087019190915292151560051b850190920192506115659150839050611555565b503461023557604036600319011261023557604061162961245f565b9160043581525f8051602061364f833981519152602052209060018060a01b03165f52602052602060ff60405f2054166040519015158152f35b50346102355780600319360112610235576020600254604051908152f35b50346102355760203660031901126102355760206116a3600254600435613100565b604051908152f35b50346102355780600319360112610235577fa16a46d94261c7517cc8ff89f61c0ce93598e3c849801011dee649a6a557d1005415806117d0575b1561179357611737906116f6612591565b906116ff612660565b9060206117456040519361171383866124dd565b8385525f368137604051968796600f60f81b885260e08589015260e088019061240a565b90868203604088015261240a565b904660608601523060808601528260a086015284820360c08601528080855193848152019401925b82811061177c57505050500390f35b83518552869550938101939281019260010161176d565b60405162461bcd60e51b81526020600482015260156024820152741152540dcc4c8e88155b9a5b9a5d1a585b1a5e9959605a1b6044820152606490fd5b507fa16a46d94261c7517cc8ff89f61c0ce93598e3c849801011dee649a6a557d10154156116e5565b5034610235578060031936011261023557611812612b28565b61181a6128f4565b600160ff195f8051602061368f8339815191525416175f8051602061368f833981519152557f62e78cea01bee320cd4e420270b5ea74000d11b0c9f74754ebdbfc544b05a2586020604051338152a180f35b503461023557602036600319011261023557604060209161188b612449565b6001600160a01b031681527f5ab42ced628888259c08ac98db1eb0cf702fc1501344311d8b100cd1bfe4bb0083522054604051908152f35b5034610235576040366003190112610235576106626118e0612449565b602435906118ef823383612a3f565b612feb565b5034610235578060031936011261023557546040516001600160a01b039091168152602090f35b5034610235576020366003190112610235576020906040906001600160a01b03611943612449565b1681525f805160206135af83398151915283522054604051908152f35b503461023557602036600319011261023557600254600435818102929181159184041417156119be57620f4240820291808304620f424014901517156119be57506040516ec097ce7bc90715b34b9f10000000009091048152602090f35b634e487b7160e01b81526011600452602490fd5b5034610235576040366003190112610235576119ec612449565b602435906119f8612b97565b611a006128bc565b611a086128f4565b6001600160a01b0316808352600460205260408320909290918015611c18578254918215611bdf576001840180549380851015611ba15784611a4991612538565b91611a5660025485613100565b928311611b5157806119be575090611a9c91611a83826003880196611a7c878954612781565b8855612781565b905560028501611a94848254612781565b905530612feb565b5f546001600160a01b0390611ab2908216612f87565b6040516323b872dd60e01b8152336004820152306024820152604481018490529491602091869160649183915f91165af1928315611b4657611b1e6060947f042fb8d00049766ef8a4c8a2f4cff438e0143b1982a422a17dd78285cc6759d7965f916111b45750612743565b5490549060405192835260208301526040820152a260015f805160206136af83398151915255005b6040513d5f823e3d90fd5b60405162461bcd60e51b815260206004820152602260248201527f596f752061726520747279696e6720746f2066756c66696c6c20746f6f206d756044820152610c6d60f31b6064820152608490fd5b60405162461bcd60e51b8152602060048201526016602482015275105b1c9958591e48199d5b1b1e481c995919595b595960521b6044820152606490fd5b60405162461bcd60e51b81526020600482015260116024820152704e6f20726571756573742065786973747360781b6044820152606490fd5b60405162461bcd60e51b81526020600482015260126024820152710416d6f756e74206d757374206265203e20360741b6044820152606490fd5b503461023557602036600319011261023557600435600154811015611c915760018260209350525f8051602061366f8339815191520154604051908152f35b5080fd5b50346102355760203660031901126102355760a0906040906001600160a01b03611cbd612449565b168152600460205220805490600181015490600281015460046003830154920154926040519485526020850152604084015260608301526080820152f35b5034610235578060031936011261023557602060ff5f8051602061368f83398151915254166040519015158152f35b5034611de65760a0366003190112611de65760043560443560ff8116809103611de657611d556128f4565b5f546001600160a01b0390611d6b908216612f87565b1690813b15611de6575f9160e48392604051948593849263d505accf60e01b84523360048501523060248501528860448501526024356064850152608484015260643560a484015260843560c48401525af18015611b4657611dd1575b506110b76128bc565b611dde9192505f906124dd565b5f905f611dc8565b5f80fd5b34611de6576020366003190112611de657611e0760043533612feb565b005b34611de6575f366003190112611de657611e21612b28565b5f8051602061368f8339815191525460ff811615611e785760ff19165f8051602061368f833981519152557f5db9ee0a495bf2e6ff9c91a7834c1ba4fdd244a5e8aa4e537bd38aeae4b073aa6020604051338152a1005b638dfc202b60e01b5f5260045ffd5b34611de6575f366003190112611de657611e9f6128bc565b335f52600460205260405f208054611eb88115156124ff565b600282018054928315611fb7575f60019255015414611f86575b5f546001600160a01b0390611ee8908216612f87565b60405163a9059cbb60e01b81523360048201526024810184905291602091839160449183915f91165af18015611b4657611f28915f91611f675750612743565b6040519081527fab1e2f692d9b0daf7ddf9a07bbf9432f64b6df8050002d6a9ed663016cbc3e1860203392a260015f805160206136af83398151915255005b611f80915060203d6020116111dc576111ce81836124dd565b83611136565b335f526004602052611fb260405f2060045f918281558260018201558260028201558260038201550155565b611ed2565b60405162461bcd60e51b81526020600482015260116024820152704e6f205553444320617661696c61626c6560781b6044820152606490fd5b34611de6575f366003190112611de65760206040515f8152f35b34611de6576040366003190112611de65761202361245f565b336001600160a01b0382160361203f57611e0790600435612eeb565b63334bd91960e11b5f5260045ffd5b34611de6575f366003190112611de65760206116a3613337565b34611de6575f366003190112611de657602060405160128152f35b34611de6576040366003190112611de657611e076004356120a261245f565b906120af6105188261270d565b612e5a565b34611de6576020366003190112611de65760206116a360043561270d565b34611de6576060366003190112611de6576113936120ee612449565b6120f661245f565b60443591612105833383612a3f565b61291b565b34611de6575f366003190112611de65760205f8051602061360f83398151915254604051908152f35b34611de6576040366003190112611de65761139361214f612449565b60243590336132af565b34611de6575f366003190112611de6576040515f5f8051602061358f8339815191525461218581612559565b808452906001811690811561221757506001146121ad575b61157983611565818503826124dd565b5f8051602061358f8339815191525f9081527f2ae08a8e29253f69ac5d979a101956ab8f8d9d7ded63fa7a83b16fc47648eab0939250905b8082106121fd5750909150810160200161156561219d565b9192600181602092548385880101520191019092916121e5565b60ff191660208086019190915291151560051b84019091019150611565905061219d565b34611de6575f366003190112611de6576122536128bc565b61225b6128f4565b335f52600460205260405f206122bc604051612276816124ad565b8254908181526122b360018501549260208301938452600460028701549660408501978852600381015460608601520154608084015215156124ff565b51905190612538565b90811561237c575161233e576122d381333061291b565b335f5260046020526122ff60405f2060045f918281558260018201558260028201558260038201550155565b6040519081527f9aec5cafc1451c1485e4a0099bd4dfb4c9d2bb972b4e5c798da07db8323deaa360203392a260015f805160206136af83398151915255005b60405162461bcd60e51b815260206004820152601660248201527550656e64696e67205553444320746f2072656465656d60501b6044820152606490fd5b60405162461bcd60e51b8152602060048201526013602482015272139bc81cda185c995cc81d1bc818d85b98d95b606a1b6044820152606490fd5b34611de6576020366003190112611de6576004359063ffffffff60e01b8216809203611de657602091637965db0b60e01b81149081156123f9575b5015158152f35b6301ffc9a760e01b149050836123f2565b91908251928382525f5b848110612434575050825f602080949584010152601f8019910116010190565b80602080928401015182828601015201612414565b600435906001600160a01b0382168203611de657565b602435906001600160a01b0382168203611de657565b6001600160a01b03165f9081527f52c63247e1f47db19d5ce0460030c497f067ca4cebf71ba98eeadabe20bace016020526040902090565b60a0810190811067ffffffffffffffff8211176124c957604052565b634e487b7160e01b5f52604160045260245ffd5b90601f8019910116810190811067ffffffffffffffff8211176124c957604052565b1561250657565b60405162461bcd60e51b815260206004820152600a602482015269139bc81c995c5d595cdd60b21b6044820152606490fd5b9190820391821161254557565b634e487b7160e01b5f52601160045260245ffd5b90600182811c92168015612587575b602083101461257357565b634e487b7160e01b5f52602260045260245ffd5b91607f1691612568565b604051905f825f805160206135cf83398151915254916125b083612559565b808352926001811690811561264157506001146125d6575b6125d4925003836124dd565b565b505f805160206135cf8339815191525f90815290917f42ad5d3e1f2e6e70edcf6d991b8a3023d3fca8047a131592f9edb9fd9b89d57d5b8183106126255750509060206125d4928201016125c8565b602091935080600191548385890101520191019091849261260d565b602092506125d494915060ff191682840152151560051b8201016125c8565b604051905f825f8051602061362f833981519152549161267f83612559565b808352926001811690811561264157506001146126a2576125d4925003836124dd565b505f8051602061362f8339815191525f90815290917f5f9ce34815f8e11431c7bb75a8e6886a91478f7ffc1dbb0a98dc240fddd76b755b8183106126f15750509060206125d4928201016125c8565b60209193508060019154838589010152019101909184926126d9565b5f525f8051602061364f833981519152602052600160405f20015490565b90816020910312611de657518015158103611de65790565b1561274a57565b60405162461bcd60e51b815260206004820152600f60248201526e151c985b9cd9995c8819985a5b1959608a1b6044820152606490fd5b9190820180921161254557565b818110612799575050565b5f815560010161278e565b5f54604051635c9fcd8560e11b81526006600482015290602090829060249082906001600160a01b03165afa908115611b46575f9161288d575b5060408051620c297960e91b81526001600160a01b039093166004840152602483015260018054604484018190525f918252839160648301915f8051602061366f833981519152915b818110612874575060209492849003928492506001600160a01b031690505afa908115611b46575f91612858575090565b612871915060203d6020116111dc576111ce81836124dd565b90565b8254845286945060209093019260019283019201612827565b6128af915060203d6020116128b5575b6128a781836124dd565b8101906130e1565b5f6127de565b503d61289d565b60025f805160206136af83398151915254146128e55760025f805160206136af83398151915255565b633ee5aeb560e01b5f5260045ffd5b60ff5f8051602061368f833981519152541661290c57565b63d93c066560e01b5f5260045ffd5b6001600160a01b0316908115612a2c576001600160a01b0316918215612a19573082148015612a10575b8015612a09575b8015612a02575b61295c90613166565b6129646128f4565b815f525f805160206135af83398151915260205260405f20548181106129e957817fddf252ad1be2c89b69c2b068fc378daa952ba7f163c4a11628f55a4df523b3ef92602092855f525f805160206135af83398151915284520360405f2055845f525f805160206135af833981519152825260405f20818154019055604051908152a3565b8263391434e360e21b5f5260045260245260445260645ffd5b505f612953565b505f61294c565b50308314612945565b63ec442f0560e01b5f525f60045260245ffd5b634b637e8f60e11b5f525f60045260245ffd5b9190612a4a83612475565b60018060a01b0382165f5260205260405f2054925f198403612a6d575b50505050565b828410612b05576001600160a01b0381163081148015612af3575b612a9190613166565b15612ae0576001600160a01b03821615612acd57612aae90612475565b9060018060a01b03165f5260205260405f20910390555f808080612a67565b634a1406b160e11b5f525f60045260245ffd5b63e602df0560e01b5f525f60045260245ffd5b506001600160a01b0383163014612a88565b508290637dc7a0d960e11b5f5260018060a01b031660045260245260445260645ffd5b335f9081527f75442b0a96088b5456bc4ed01394c96a4feec0f883c9494257d76b96ab1c9b6b602052604090205460ff1615612b6057565b63e2517d3f60e01b5f52336004527f65d7a28e3265b37a6474929f336521b332c1681b933f6cb9f3376673440d862a60245260445ffd5b335f9081527f06484cc59dc38e4f67c31122333a17ca81b3ca18cdf02bfc298072fa52b0316a602052604090205460ff1615612bcf57565b63e2517d3f60e01b5f52336004527f241ecf16d79d0f8dbfb92cbc07fe17840425976cf0667f022fe9877caa831b0860245260445ffd5b5f8181525f8051602061364f8339815191526020908152604080832033845290915290205460ff1615612c365750565b63e2517d3f60e01b5f523360045260245260445ffd5b6001600160a01b0381165f9081527fb7db2dd08fcb62d0c9e08c51941cae53c267786a0b75803fb7960902fc8ef97d602052604090205460ff16612ce3576001600160a01b03165f8181527fb7db2dd08fcb62d0c9e08c51941cae53c267786a0b75803fb7960902fc8ef97d60205260408120805460ff191660011790553391905f8051602061356f8339815191528180a4600190565b505f90565b6001600160a01b0381165f9081527f75442b0a96088b5456bc4ed01394c96a4feec0f883c9494257d76b96ab1c9b6b602052604090205460ff16612ce3576001600160a01b03165f8181527f75442b0a96088b5456bc4ed01394c96a4feec0f883c9494257d76b96ab1c9b6b60205260408120805460ff191660011790553391907f65d7a28e3265b37a6474929f336521b332c1681b933f6cb9f3376673440d862a905f8051602061356f8339815191529080a4600190565b6001600160a01b0381165f9081527f06484cc59dc38e4f67c31122333a17ca81b3ca18cdf02bfc298072fa52b0316a602052604090205460ff16612ce3576001600160a01b03165f8181527f06484cc59dc38e4f67c31122333a17ca81b3ca18cdf02bfc298072fa52b0316a60205260408120805460ff191660011790553391907f241ecf16d79d0f8dbfb92cbc07fe17840425976cf0667f022fe9877caa831b08905f8051602061356f8339815191529080a4600190565b5f8181525f8051602061364f833981519152602090815260408083206001600160a01b038616845290915290205460ff16612ee5575f8181525f8051602061364f833981519152602090815260408083206001600160a01b0395909516808452949091528120805460ff19166001179055339291905f8051602061356f8339815191529080a4600190565b50505f90565b5f8181525f8051602061364f833981519152602090815260408083206001600160a01b038616845290915290205460ff1615612ee5575f8181525f8051602061364f833981519152602090815260408083206001600160a01b0395909516808452949091528120805460ff19169055339291907ff6391f5c32d9c69d2a47ea670b442974b53935d1edc7fd64eb21e047a839171b9080a4600190565b604051635c9fcd8560e11b81526001600482015290602090829060249082906001600160a01b03165afa908115611b46575f91612fcc575b506001600160a01b031690565b612fe5915060203d6020116128b5576128a781836124dd565b5f612fbf565b9091906001600160a01b03168015612a2c5730811480156130d9575b80156130d2575b80156130ca575b61301e90613166565b6130266128f4565b805f525f805160206135af83398151915260205260405f20548381106130b0576020845f94957fddf252ad1be2c89b69c2b068fc378daa952ba7f163c4a11628f55a4df523b3ef938587525f805160206135af8339815191528452036040862055805f8051602061360f83398151915254035f8051602061360f83398151915255604051908152a3565b915063391434e360e21b5f5260045260245260445260645ffd5b506001613015565b505f61300e565b503015613007565b90816020910312611de657516001600160a01b0381168103611de65790565b670de0b6b3a7640000810290808204670de0b6b3a7640000149015171561254557620f42409004670de0b6b3a7640000810290808204670de0b6b3a76400001490151715612545578115613152570490565b634e487b7160e01b5f52601260045260245ffd5b1561316d57565b60405162461bcd60e51b815260206004820152601b60248201527f53686172657320617265206e6f6e2d7472616e7366657261626c6500000000006044820152606490fd5b7fddf252ad1be2c89b69c2b068fc378daa952ba7f163c4a11628f55a4df523b3ef60205f923015801561329d575b8015613295575b8015613284575b6131f790613166565b6131ff6128f4565b613217855f8051602061360f83398151915254612781565b5f8051602061360f833981519152556001600160a01b0316938415841461326257805f8051602061360f83398151915254035f8051602061360f833981519152555b604051908152a3565b8484525f805160206135af833981519152825260408420818154019055613259565b506001600160a01b038116156131ee565b5060016131e7565b506001600160a01b03811630146131e0565b916001600160a01b038316913083148015613325575b6132ce90613166565b8215612ae0576001600160a01b0316928315612acd577f8c5be1e5ebec7d5bd14f71427d1e84f3dd0314c0f7b2291e5b200ac8c7c3b92591613311602092612475565b855f5282528060405f2055604051908152a3565b506001600160a01b03811630146132c5565b61333f6134bf565b613347613529565b6040519060208201927f8b73c3c69bb8fe3d512ecc4cf759cc79239f7b179b0ffacaa9a75d522b39400f8452604083015260608201524660808201523060a082015260a0815261339860c0826124dd565b51902090565b60ff5f805160206136cf8339815191525460401c16156133ba57565b631afcd79f60e31b5f5260045ffd5b91907f7fffffffffffffffffffffffffffffff5d576e7357a4501ddfe92f46681b20a08411613440579160209360809260ff5f9560405194855216868401526040830152606082015282805260015afa15611b46575f516001600160a01b0381161561343657905f905f90565b505f906001905f90565b5050505f9160039190565b60048110156134ab578061345d575050565b600181036134745763f645eedf60e01b5f5260045ffd5b6002810361348f575063fce698f760e01b5f5260045260245ffd5b6003146134995750565b6335e2f38360e21b5f5260045260245ffd5b634e487b7160e01b5f52602160045260245ffd5b6134c7612591565b80519081156134d7576020012090565b50507fa16a46d94261c7517cc8ff89f61c0ce93598e3c849801011dee649a6a557d1005480156135045790565b507fc5d2460186f7233c927e7db2dcc703c0e500b653ca82273b7bfad8045d85a47090565b613531612660565b8051908115613541576020012090565b50507fa16a46d94261c7517cc8ff89f61c0ce93598e3c849801011dee649a6a557d101548015613504579056fe2f8788117e7eff1d82e926ec794901d17c78024a50270940304540a733656f0d52c63247e1f47db19d5ce0460030c497f067ca4cebf71ba98eeadabe20bace0352c63247e1f47db19d5ce0460030c497f067ca4cebf71ba98eeadabe20bace00a16a46d94261c7517cc8ff89f61c0ce93598e3c849801011dee649a6a557d10252c63247e1f47db19d5ce0460030c497f067ca4cebf71ba98eeadabe20bace0452c63247e1f47db19d5ce0460030c497f067ca4cebf71ba98eeadabe20bace02a16a46d94261c7517cc8ff89f61c0ce93598e3c849801011dee649a6a557d10302dd7bc7dec4dceedda775e58dd541e08a116c6c53815c0bd028192f7b626800b10e2d527612073b26eecdfd717e6a320cf44b4afac2b0732d9fcbe2b7fa0cf6cd5ed15c6e187e77e9aee88184c21f4f2182ab5827cb3b7e07fbedcd63f033009b779b17422d0df92223018b32b4d1fa46e071723d6817e2486d003becc55f00f0c57e16840df040f15088dc2f81fe391c3923bec73e23a9662efc9c229c6a00a2646970667358221220b78295124ce12585f024b1dff244f6a217b3ae8a842aa74b7317745f614c4fd864736f6c634300081a0033",
  "devdoc": {
    "details": "Implements non-transferable shares and controlled redemptions",
    "errors": {
      "AccessControlBadConfirmation()": [
        {
          "details": "The caller of a function is not the expected one. NOTE: Don't confuse with {AccessControlUnauthorizedAccount}."
        }
      ],
      "AccessControlUnauthorizedAccount(address,bytes32)": [
        {
          "details": "The `account` is missing a role."
        }
      ],
      "ECDSAInvalidSignature()": [
        {
          "details": "The signature derives the `address(0)`."
        }
      ],
      "ECDSAInvalidSignatureLength(uint256)": [
        {
          "details": "The signature has an invalid length."
        }
      ],
      "ECDSAInvalidSignatureS(bytes32)": [
        {
          "details": "The signature has an S value that is in the upper half order."
        }
      ],
      "ERC20InsufficientAllowance(address,uint256,uint256)": [
        {
          "details": "Indicates a failure with the `spender`s `allowance`. Used in transfers.",
          "params": {
            "allowance": "Amount of tokens a `spender` is allowed to operate with.",
            "needed": "Minimum amount required to perform a transfer.",
            "spender": "Address that may be allowed to operate on tokens without being their owner."
          }
        }
      ],
      "ERC20InsufficientBalance(address,uint256,uint256)": [
        {
          "details": "Indicates an error related to the current `balance` of a `sender`. Used in transfers.",
          "params": {
            "balance": "Current balance for the interacting account.",
            "needed": "Minimum amount required to perform a transfer.",
            "sender": "Address whose tokens are being transferred."
          }
        }
      ],
      "ERC20InvalidApprover(address)": [
        {
          "details": "Indicates a failure with the `approver` of a token to be approved. Used in approvals.",
          "params": {
            "approver": "Address initiating an approval operation."
          }
        }
      ],
      "ERC20InvalidReceiver(address)": [
        {
          "details": "Indicates a failure with the token `receiver`. Used in transfers.",
          "params": {
            "receiver": "Address to which tokens are being transferred."
          }
        }
      ],
      "ERC20InvalidSender(address)": [
        {
          "details": "Indicates a failure with the token `sender`. Used in transfers.",
          "params": {
            "sender": "Address whose tokens are being transferred."
          }
        }
      ],
      "ERC20InvalidSpender(address)": [
        {
          "details": "Indicates a failure with the `spender` to be approved. Used in approvals.",
          "params": {
            "spender": "Address that may be allowed to operate on tokens without being their owner."
          }
        }
      ],
      "ERC2612ExpiredSignature(uint256)": [
        {
          "details": "Permit deadline has expired."
        }
      ],
      "ERC2612InvalidSigner(address,address)": [
        {
          "details": "Mismatched signature."
        }
      ],
      "EnforcedPause()": [
        {
          "details": "The operation failed because the contract is paused."
        }
      ],
      "ExpectedPause()": [
        {
          "details": "The operation failed because the contract is not paused."
        }
      ],
      "InvalidAccountNonce(address,uint256)": [
        {
          "details": "The nonce used for an `account` is not the expected current nonce."
        }
      ],
      "InvalidInitialization()": [
        {
          "details": "The contract is already initialized."
        }
      ],
      "NotInitializing()": [
        {
          "details": "The contract is not initializing."
        }
      ],
      "ReentrancyGuardReentrantCall()": [
        {
          "details": "Unauthorized reentrant call."
        }
      ]
    },
    "events": {
      "Approval(address,address,uint256)": {
        "details": "Emitted when the allowance of a `spender` for an `owner` is set by a call to {approve}. `value` is the new allowance."
      },
      "EIP712DomainChanged()": {
        "details": "MAY be emitted to signal that the domain could have changed."
      },
      "Initialized(uint64)": {
        "details": "Triggered when the contract has been initialized or reinitialized."
      },
      "Paused(address)": {
        "details": "Emitted when the pause is triggered by `account`."
      },
      "RoleAdminChanged(bytes32,bytes32,bytes32)": {
        "details": "Emitted when `newAdminRole` is set as ``role``'s admin role, replacing `previousAdminRole` `DEFAULT_ADMIN_ROLE` is the starting admin for all roles, despite {RoleAdminChanged} not being emitted signaling this."
      },
      "RoleGranted(bytes32,address,address)": {
        "details": "Emitted when `account` is granted `role`. `sender` is the account that originated the contract call. This account bears the admin role (for the granted role). Expected in cases where the role was granted using the internal {AccessControl-_grantRole}."
      },
      "RoleRevoked(bytes32,address,address)": {
        "details": "Emitted when `account` is revoked `role`. `sender` is the account that originated the contract call:   - if using `revokeRole`, it is the admin role bearer   - if using `renounceRole`, it is the role bearer (i.e. `account`)"
      },
      "Transfer(address,address,uint256)": {
        "details": "Emitted when `value` tokens are moved from one account (`from`) to another (`to`). Note that `value` may be zero."
      },
      "Unpaused(address)": {
        "details": "Emitted when the pause is lifted by `account`."
      }
    },
    "kind": "dev",
    "methods": {
      "DOMAIN_SEPARATOR()": {
        "details": "Returns the domain separator used in the encoding of the signature for {permit}, as defined by {EIP712}."
      },
      "allowance(address,address)": {
        "details": "See {IERC20-allowance}."
      },
      "approve(address,uint256)": {
        "details": "See {IERC20-approve}. NOTE: If `value` is the maximum `uint256`, the allowance is not updated on `transferFrom`. This is semantically equivalent to an infinite approval. Requirements: - `spender` cannot be the zero address."
      },
      "balanceOf(address)": {
        "details": "See {IERC20-balanceOf}."
      },
      "burn(uint256)": {
        "details": "Destroys a `value` amount of tokens from the caller. See {ERC20-_burn}."
      },
      "burnFrom(address,uint256)": {
        "details": "Destroys a `value` amount of tokens from `account`, deducting from the caller's allowance. See {ERC20-_burn} and {ERC20-allowance}. Requirements: - the caller must have allowance for ``accounts``'s tokens of at least `value`."
      },
      "cancelRedemption()": {
        "details": "Can only cancel unredeemed portion and when no pending USDC"
      },
      "decimals()": {
        "details": "Returns the number of decimals used to get its user representation. For example, if `decimals` equals `2`, a balance of `505` tokens should be displayed to a user as `5.05` (`505 / 10 ** 2`). Tokens usually opt for a value of 18, imitating the relationship between Ether and Wei. This is the default value returned by this function, unless it's overridden. NOTE: This information is only used for _display_ purposes: it in no way affects any of the arithmetic of the contract, including {IERC20-balanceOf} and {IERC20-transfer}."
      },
      "deposit(uint256)": {
        "params": {
          "usdcAmount": "Amount of USDC to deposit"
        }
      },
      "depositWithPermit(uint256,uint256,uint8,bytes32,bytes32)": {
        "params": {
          "deadline": "The time at which this expires (unix time)",
          "r": "r of the signature",
          "s": "s of the signature",
          "usdcAmount": "Amount of USDC to deposit",
          "v": "v of the signature"
        }
      },
      "eip712Domain()": {
        "details": "See {IERC-5267}."
      },
      "fulfillRedemption(address,uint256)": {
        "params": {
          "usdcAmount": "Amount of USDC to fulfill with",
          "user": "Address of the user whose redemption to fulfill"
        }
      },
      "getRoleAdmin(bytes32)": {
        "details": "Returns the admin role that controls `role`. See {grantRole} and {revokeRole}. To change a role's admin, use {_setRoleAdmin}."
      },
      "getShareValue(uint256)": {
        "params": {
          "shareAmount": "Amount of shares to value"
        },
        "returns": {
          "_0": "Value in USDC (scaled to 18 decimals)"
        }
      },
      "grantRole(bytes32,address)": {
        "details": "Grants `role` to `account`. If `account` had not been already granted `role`, emits a {RoleGranted} event. Requirements: - the caller must have ``role``'s admin role. May emit a {RoleGranted} event."
      },
      "hasRole(bytes32,address)": {
        "details": "Returns `true` if `account` has been granted `role`."
      },
      "initialize(address,address,address)": {
        "params": {
          "_config": "Address of the Goldfinch Config contract",
          "manager": "Address of the manager who will \"run\" this pool"
        }
      },
      "name()": {
        "details": "Returns the name of the token."
      },
      "nonces(address)": {
        "details": "Returns the current nonce for `owner`. This value must be included whenever a signature is generated for {permit}. Every successful call to {permit} increases ``owner``'s nonce by one. This prevents a signature from being used multiple times."
      },
      "paused()": {
        "details": "Returns true if the contract is paused, and false otherwise."
      },
      "permit(address,address,uint256,uint256,uint8,bytes32,bytes32)": {
        "details": "Sets `value` as the allowance of `spender` over ``owner``'s tokens, given ``owner``'s signed approval. IMPORTANT: The same issues {IERC20-approve} has related to transaction ordering also apply here. Emits an {Approval} event. Requirements: - `spender` cannot be the zero address. - `deadline` must be a timestamp in the future. - `v`, `r` and `s` must be a valid `secp256k1` signature from `owner` over the EIP712-formatted function arguments. - the signature must use ``owner``'s current nonce (see {nonces}). For more information on the signature format, see the https://eips.ethereum.org/EIPS/eip-2612#specification[relevant EIP section]. CAUTION: See Security Considerations above."
      },
      "renounceRole(bytes32,address)": {
        "details": "Revokes `role` from the calling account. Roles are often managed via {grantRole} and {revokeRole}: this function's purpose is to provide a mechanism for accounts to lose their privileges if they are compromised (such as when a trusted device is misplaced). If the calling account had been revoked `role`, emits a {RoleRevoked} event. Requirements: - the caller must be `callerConfirmation`. May emit a {RoleRevoked} event."
      },
      "requestRedemption(uint256)": {
        "params": {
          "sharesToRedeem": "Amount of shares to redeem"
        }
      },
      "revokeRole(bytes32,address)": {
        "details": "Revokes `role` from `account`. If `account` had been granted `role`, emits a {RoleRevoked} event. Requirements: - the caller must have ``role``'s admin role. May emit a {RoleRevoked} event."
      },
      "supportsInterface(bytes4)": {
        "details": "See {IERC165-supportsInterface}."
      },
      "symbol()": {
        "details": "Returns the symbol of the token, usually a shorter version of the name."
      },
      "totalSupply()": {
        "details": "See {IERC20-totalSupply}."
      },
      "transfer(address,uint256)": {
        "details": "See {IERC20-transfer}. Requirements: - `to` cannot be the zero address. - the caller must have a balance of at least `value`."
      },
      "transferFrom(address,address,uint256)": {
        "details": "See {IERC20-transferFrom}. Skips emitting an {Approval} event indicating an allowance update. This is not required by the ERC. See {xref-ERC20-_approve-address-address-uint256-bool-}[_approve]. NOTE: Does not update the allowance if the current allowance is the maximum `uint256`. Requirements: - `from` and `to` cannot be the zero address. - `from` must have a balance of at least `value`. - the caller must have allowance for ``from``'s tokens of at least `value`."
      },
      "updateSharePrice(uint256)": {
        "params": {
          "newSharePrice": "New share price (with 18 decimals)"
        }
      }
    },
    "title": "GoldfinchPrime",
    "version": 1
  },
  "userdoc": {
    "kind": "user",
    "methods": {
      "BPS_DENOMINATOR()": {
        "notice": "Basis points denominator"
      },
      "MANAGER_ROLE()": {
        "notice": "Role for vault managers who can update share price and fulfill redemptions"
      },
      "PAUSER_ROLE()": {
        "notice": "Role for addresses that can pause the contract"
      },
      "WITHDRAWAL_FEE_BPS()": {
        "notice": "Withdrawal fee in basis points (0.5%)"
      },
      "availableToDrawdown()": {
        "notice": "amount avaialble"
      },
      "cancelRedemption()": {
        "notice": "Cancel an existing redemption request"
      },
      "deposit(uint256)": {
        "notice": "Deposit USDC to receive vault shares"
      },
      "depositWithPermit(uint256,uint256,uint8,bytes32,bytes32)": {
        "notice": "Deposit USDC using permit to approve and deposit in a single transaction"
      },
      "fulfillRedemption(address,uint256)": {
        "notice": "Fulfill a redemption request with USDC"
      },
      "getShareValue(uint256)": {
        "notice": "Get the USDC value of a share amount"
      },
      "initialize(address,address,address)": {
        "notice": "Contract constructor"
      },
      "redemptionRequests(address)": {
        "notice": "Mapping of user addresses to their redemption requests"
      },
      "requestRedemption(uint256)": {
        "notice": "Request redemption of shares"
      },
      "sharePrice()": {
        "notice": "Current share price with 18 decimals of precision"
      },
      "updateSharePrice(uint256)": {
        "notice": "Update the share price"
      },
      "withdraw()": {
        "notice": "Process a withdraw to receive all available USDC"
      }
    },
    "notice": "A vault contract that manages deposits and redemptions for off-chain Heron investments",
    "version": 1
  },
  "storageLayout": {
    "storage": [
      {
        "astId": 7474,
        "contract": "contracts/protocol/GPrime.sol:GoldfinchPrime",
        "label": "config",
        "offset": 0,
        "slot": "0",
        "type": "t_contract(GoldfinchConfig)9094"
      },
      {
        "astId": 7481,
        "contract": "contracts/protocol/GPrime.sol:GoldfinchPrime",
        "label": "allowedUidTypes",
        "offset": 0,
        "slot": "1",
        "type": "t_array(t_uint256)dyn_storage"
      },
      {
        "astId": 7484,
        "contract": "contracts/protocol/GPrime.sol:GoldfinchPrime",
        "label": "sharePrice",
        "offset": 0,
        "slot": "2",
        "type": "t_uint256"
      },
      {
        "astId": 7487,
        "contract": "contracts/protocol/GPrime.sol:GoldfinchPrime",
        "label": "availableToDrawdown",
        "offset": 0,
        "slot": "3",
        "type": "t_uint256"
      },
      {
        "astId": 7505,
        "contract": "contracts/protocol/GPrime.sol:GoldfinchPrime",
        "label": "redemptionRequests",
        "offset": 0,
        "slot": "4",
        "type": "t_mapping(t_address,t_struct(RedemptionRequest)7499_storage)"
      }
    ],
    "types": {
      "t_address": {
        "encoding": "inplace",
        "label": "address",
        "numberOfBytes": "20"
      },
      "t_array(t_uint256)dyn_storage": {
        "base": "t_uint256",
        "encoding": "dynamic_array",
        "label": "uint256[]",
        "numberOfBytes": "32"
      },
      "t_contract(GoldfinchConfig)9094": {
        "encoding": "inplace",
        "label": "contract GoldfinchConfig",
        "numberOfBytes": "20"
      },
      "t_mapping(t_address,t_struct(RedemptionRequest)7499_storage)": {
        "encoding": "mapping",
        "key": "t_address",
        "label": "mapping(address => struct GoldfinchPrime.RedemptionRequest)",
        "numberOfBytes": "32",
        "value": "t_struct(RedemptionRequest)7499_storage"
      },
      "t_struct(RedemptionRequest)7499_storage": {
        "encoding": "inplace",
        "label": "struct GoldfinchPrime.RedemptionRequest",
        "members": [
          {
            "astId": 7490,
            "contract": "contracts/protocol/GPrime.sol:GoldfinchPrime",
            "label": "totalSharesRequested",
            "offset": 0,
            "slot": "0",
            "type": "t_uint256"
          },
          {
            "astId": 7492,
            "contract": "contracts/protocol/GPrime.sol:GoldfinchPrime",
            "label": "sharesRedeemed",
            "offset": 0,
            "slot": "1",
            "type": "t_uint256"
          },
          {
            "astId": 7494,
            "contract": "contracts/protocol/GPrime.sol:GoldfinchPrime",
            "label": "usdcToReceive",
            "offset": 0,
            "slot": "2",
            "type": "t_uint256"
          },
          {
            "astId": 7496,
            "contract": "contracts/protocol/GPrime.sol:GoldfinchPrime",
            "label": "totalUsdcFulfilled",
            "offset": 0,
            "slot": "3",
            "type": "t_uint256"
          },
          {
            "astId": 7498,
            "contract": "contracts/protocol/GPrime.sol:GoldfinchPrime",
            "label": "timestamp",
            "offset": 0,
            "slot": "4",
            "type": "t_uint256"
          }
        ],
        "numberOfBytes": "160"
      },
      "t_uint256": {
        "encoding": "inplace",
        "label": "uint256",
        "numberOfBytes": "32"
      }
    }
  }
}