{
  "address": "0x3923891361ADA41fa799b433656fd3017Ab0bea9",
  "abi": [
    {
      "inputs": [],
      "name": "AccessControlBadConfirmation",
      "type": "error"
    },
    {
      "inputs": [
        {
          "internalType": "address",
          "name": "account",
          "type": "address"
        },
        {
          "internalType": "bytes32",
          "name": "neededRole",
          "type": "bytes32"
        }
      ],
      "name": "AccessControlUnauthorizedAccount",
      "type": "error"
    },
    {
      "inputs": [],
      "name": "InvalidInitialization",
      "type": "error"
    },
    {
      "inputs": [],
      "name": "NotInitializing",
      "type": "error"
    },
    {
      "inputs": [],
      "name": "ReentrancyGuardReentrantCall",
      "type": "error"
    },
    {
      "anonymous": false,
      "inputs": [
        {
          "indexed": false,
          "internalType": "address",
          "name": "owner",
          "type": "address"
        },
        {
          "indexed": false,
          "internalType": "uint256",
          "name": "index",
          "type": "uint256"
        },
        {
          "indexed": false,
          "internalType": "address",
          "name": "oldValue",
          "type": "address"
        },
        {
          "indexed": false,
          "internalType": "address",
          "name": "newValue",
          "type": "address"
        }
      ],
      "name": "AddressUpdated",
      "type": "event"
    },
    {
      "anonymous": false,
      "inputs": [],
      "name": "GlobalPaused",
      "type": "event"
    },
    {
      "anonymous": false,
      "inputs": [],
      "name": "GlobalUnpaused",
      "type": "event"
    },
    {
      "anonymous": false,
      "inputs": [
        {
          "indexed": false,
          "internalType": "uint64",
          "name": "version",
          "type": "uint64"
        }
      ],
      "name": "Initialized",
      "type": "event"
    },
    {
      "anonymous": false,
      "inputs": [
        {
          "indexed": false,
          "internalType": "address",
          "name": "owner",
          "type": "address"
        },
        {
          "indexed": false,
          "internalType": "uint256",
          "name": "index",
          "type": "uint256"
        },
        {
          "indexed": false,
          "internalType": "uint256",
          "name": "oldValue",
          "type": "uint256"
        },
        {
          "indexed": false,
          "internalType": "uint256",
          "name": "newValue",
          "type": "uint256"
        }
      ],
      "name": "NumberUpdated",
      "type": "event"
    },
    {
      "anonymous": false,
      "inputs": [
        {
          "indexed": false,
          "internalType": "address",
          "name": "account",
          "type": "address"
        }
      ],
      "name": "Paused",
      "type": "event"
    },
    {
      "anonymous": false,
      "inputs": [
        {
          "indexed": true,
          "internalType": "bytes32",
          "name": "role",
          "type": "bytes32"
        },
        {
          "indexed": true,
          "internalType": "bytes32",
          "name": "previousAdminRole",
          "type": "bytes32"
        },
        {
          "indexed": true,
          "internalType": "bytes32",
          "name": "newAdminRole",
          "type": "bytes32"
        }
      ],
      "name": "RoleAdminChanged",
      "type": "event"
    },
    {
      "anonymous": false,
      "inputs": [
        {
          "indexed": true,
          "internalType": "bytes32",
          "name": "role",
          "type": "bytes32"
        },
        {
          "indexed": true,
          "internalType": "address",
          "name": "account",
          "type": "address"
        },
        {
          "indexed": true,
          "internalType": "address",
          "name": "sender",
          "type": "address"
        }
      ],
      "name": "RoleGranted",
      "type": "event"
    },
    {
      "anonymous": false,
      "inputs": [
        {
          "indexed": true,
          "internalType": "bytes32",
          "name": "role",
          "type": "bytes32"
        },
        {
          "indexed": true,
          "internalType": "address",
          "name": "account",
          "type": "address"
        },
        {
          "indexed": true,
          "internalType": "address",
          "name": "sender",
          "type": "address"
        }
      ],
      "name": "RoleRevoked",
      "type": "event"
    },
    {
      "anonymous": false,
      "inputs": [
        {
          "indexed": false,
          "internalType": "address",
          "name": "account",
          "type": "address"
        }
      ],
      "name": "Unpaused",
      "type": "event"
    },
    {
      "inputs": [],
      "name": "DEFAULT_ADMIN_ROLE",
      "outputs": [
        {
          "internalType": "bytes32",
          "name": "",
          "type": "bytes32"
        }
      ],
      "stateMutability": "view",
      "type": "function"
    },
    {
      "inputs": [],
      "name": "PAUSER_ROLE",
      "outputs": [
        {
          "internalType": "bytes32",
          "name": "",
          "type": "bytes32"
        }
      ],
      "stateMutability": "view",
      "type": "function"
    },
    {
      "inputs": [
        {
          "internalType": "address",
          "name": "owner",
          "type": "address"
        },
        {
          "internalType": "contract IPauser",
          "name": "pauser",
          "type": "address"
        }
      ],
      "name": "__BaseUpgradeablePausable__init",
      "outputs": [],
      "stateMutability": "nonpayable",
      "type": "function"
    },
    {
      "inputs": [],
      "name": "__Pauser_init",
      "outputs": [],
      "stateMutability": "nonpayable",
      "type": "function"
    },
    {
      "inputs": [
        {
          "internalType": "uint256",
          "name": "",
          "type": "uint256"
        }
      ],
      "name": "addresses",
      "outputs": [
        {
          "internalType": "address",
          "name": "",
          "type": "address"
        }
      ],
      "stateMutability": "view",
      "type": "function"
    },
    {
      "inputs": [
        {
          "internalType": "uint256",
          "name": "index",
          "type": "uint256"
        }
      ],
      "name": "getAddress",
      "outputs": [
        {
          "internalType": "address",
          "name": "",
          "type": "address"
        }
      ],
      "stateMutability": "view",
      "type": "function"
    },
    {
      "inputs": [
        {
          "internalType": "uint256",
          "name": "index",
          "type": "uint256"
        }
      ],
      "name": "getNumber",
      "outputs": [
        {
          "internalType": "uint256",
          "name": "",
          "type": "uint256"
        }
      ],
      "stateMutability": "view",
      "type": "function"
    },
    {
      "inputs": [
        {
          "internalType": "bytes32",
          "name": "role",
          "type": "bytes32"
        }
      ],
      "name": "getRoleAdmin",
      "outputs": [
        {
          "internalType": "bytes32",
          "name": "",
          "type": "bytes32"
        }
      ],
      "stateMutability": "view",
      "type": "function"
    },
    {
      "inputs": [],
      "name": "globalPause",
      "outputs": [],
      "stateMutability": "nonpayable",
      "type": "function"
    },
    {
      "inputs": [],
      "name": "globalUnpause",
      "outputs": [],
      "stateMutability": "nonpayable",
      "type": "function"
    },
    {
      "inputs": [
        {
          "internalType": "bytes32",
          "name": "role",
          "type": "bytes32"
        },
        {
          "internalType": "address",
          "name": "account",
          "type": "address"
        }
      ],
      "name": "grantRole",
      "outputs": [],
      "stateMutability": "nonpayable",
      "type": "function"
    },
    {
      "inputs": [
        {
          "internalType": "bytes32",
          "name": "role",
          "type": "bytes32"
        },
        {
          "internalType": "address",
          "name": "account",
          "type": "address"
        }
      ],
      "name": "hasRole",
      "outputs": [
        {
          "internalType": "bool",
          "name": "",
          "type": "bool"
        }
      ],
      "stateMutability": "view",
      "type": "function"
    },
    {
      "inputs": [
        {
          "internalType": "address",
          "name": "owner",
          "type": "address"
        }
      ],
      "name": "initialize",
      "outputs": [],
      "stateMutability": "nonpayable",
      "type": "function"
    },
    {
      "inputs": [
        {
          "internalType": "address",
          "name": "_initialConfig",
          "type": "address"
        },
        {
          "internalType": "uint256",
          "name": "numbersLength",
          "type": "uint256"
        },
        {
          "internalType": "uint256",
          "name": "addressesLength",
          "type": "uint256"
        }
      ],
      "name": "initializeFromOtherConfig",
      "outputs": [],
      "stateMutability": "nonpayable",
      "type": "function"
    },
    {
      "inputs": [],
      "name": "isAdmin",
      "outputs": [
        {
          "internalType": "bool",
          "name": "",
          "type": "bool"
        }
      ],
      "stateMutability": "view",
      "type": "function"
    },
    {
      "inputs": [
        {
          "internalType": "address",
          "name": "addr",
          "type": "address"
        }
      ],
      "name": "isPaused",
      "outputs": [
        {
          "internalType": "bool",
          "name": "",
          "type": "bool"
        }
      ],
      "stateMutability": "view",
      "type": "function"
    },
    {
      "inputs": [
        {
          "internalType": "uint256",
          "name": "",
          "type": "uint256"
        }
      ],
      "name": "numbers",
      "outputs": [
        {
          "internalType": "uint256",
          "name": "",
          "type": "uint256"
        }
      ],
      "stateMutability": "view",
      "type": "function"
    },
    {
      "inputs": [
        {
          "internalType": "address",
          "name": "addr",
          "type": "address"
        }
      ],
      "name": "pause",
      "outputs": [],
      "stateMutability": "nonpayable",
      "type": "function"
    },
    {
      "inputs": [],
      "name": "paused",
      "outputs": [
        {
          "internalType": "bool",
          "name": "",
          "type": "bool"
        }
      ],
      "stateMutability": "view",
      "type": "function"
    },
    {
      "inputs": [
        {
          "internalType": "bytes32",
          "name": "role",
          "type": "bytes32"
        },
        {
          "internalType": "address",
          "name": "account",
          "type": "address"
        }
      ],
      "name": "renounceRole",
      "outputs": [],
      "stateMutability": "nonpayable",
      "type": "function"
    },
    {
      "inputs": [
        {
          "internalType": "bytes32",
          "name": "role",
          "type": "bytes32"
        },
        {
          "internalType": "address",
          "name": "account",
          "type": "address"
        }
      ],
      "name": "revokeRole",
      "outputs": [],
      "stateMutability": "nonpayable",
      "type": "function"
    },
    {
      "inputs": [
        {
          "internalType": "uint256",
          "name": "addressIndex",
          "type": "uint256"
        },
        {
          "internalType": "address",
          "name": "newAddress",
          "type": "address"
        }
      ],
      "name": "setAddress",
      "outputs": [],
      "stateMutability": "nonpayable",
      "type": "function"
    },
    {
      "inputs": [
        {
          "internalType": "address",
          "name": "newAddress",
          "type": "address"
        }
      ],
      "name": "setGoldfinchConfig",
      "outputs": [],
      "stateMutability": "nonpayable",
      "type": "function"
    },
    {
      "inputs": [
        {
          "internalType": "address",
          "name": "newAddress",
          "type": "address"
        }
      ],
      "name": "setMonthlyScheduleRepo",
      "outputs": [],
      "stateMutability": "nonpayable",
      "type": "function"
    },
    {
      "inputs": [
        {
          "internalType": "uint256",
          "name": "index",
          "type": "uint256"
        },
        {
          "internalType": "uint256",
          "name": "newNumber",
          "type": "uint256"
        }
      ],
      "name": "setNumber",
      "outputs": [],
      "stateMutability": "nonpayable",
      "type": "function"
    },
    {
      "inputs": [
        {
          "internalType": "address",
          "name": "newTreasuryReserve",
          "type": "address"
        }
      ],
      "name": "setTreasuryReserve",
      "outputs": [],
      "stateMutability": "nonpayable",
      "type": "function"
    },
    {
      "inputs": [
        {
          "internalType": "bytes4",
          "name": "interfaceId",
          "type": "bytes4"
        }
      ],
      "name": "supportsInterface",
      "outputs": [
        {
          "internalType": "bool",
          "name": "",
          "type": "bool"
        }
      ],
      "stateMutability": "view",
      "type": "function"
    },
    {
      "inputs": [
        {
          "internalType": "address",
          "name": "addr",
          "type": "address"
        }
      ],
      "name": "unpause",
      "outputs": [],
      "stateMutability": "nonpayable",
      "type": "function"
    },
    {
      "inputs": [],
      "name": "valuesInitialized",
      "outputs": [
        {
          "internalType": "bool",
          "name": "",
          "type": "bool"
        }
      ],
      "stateMutability": "view",
      "type": "function"
    }
  ],
  "transactionHash": "0x96d59e2d2d98055c4f66255f74431a020f38bf34486ead3ba6e93f356215882f",
  "args": [],
  "numDeployments": 1,
  "solcInputHash": "56490899b0739bae22343aae76081647",
  "bytecode": "0x60808060405234601557611596908161001a8239f35b5f80fdfe6080806040526004361015610012575f80fd5b5f3560e01c90816301ffc9a71461127c5750806309ae988214611264578063248a9ca314611232578063249e254314610f805780632f2ff15d14610edc57806336568abe14610ea457806357337adb14610ded57806357b001f914610d5c5780635b14f18314610d095780635c975abb14610c6c5780636b19e8c714610bef57806376a67a5114610b5b57806391d1485414610b13578063a217fddf14610af9578063ac4ce2c6146109ec578063b6db75a0146109c8578063b93f9b0a146101f6578063bc9d176414610911578063c4d66de81461055e578063c5703d47146103dc578063ce19057814610373578063d2133c8f14610350578063d39fa2331461015b578063d547741f1461030c578063d9abc9f414610250578063e63ab1e914610229578063edf26d9b146101f6578063f12d54d81461018a5763fc5636581461015b575f80fd5b34610186576020366003190112610186576004355f526101c6602052602060405f2054604051908152f35b5f80fd5b34610186575f36600319011261018657335f9081525f8051602061150183398151915260205260409020546101c19060ff166112fb565b600160ff1961015f54161761015f557f8bee704f8fac40aa39037f01e8543b45869662bcf7daebf0e4893c14c4d8559c5f80a1005b34610186576020366003190112610186576004355f526101c5602052602060018060a01b0360405f205416604051908152f35b34610186575f3660031901126101865760206040515f805160206115218339815191528152f35b34610186576020366003190112610186576102696112cf565b610279610274611362565b6112fb565b60075f526101c56020525f805160206114e1833981519152608060018060a01b0360405f2054166040519033825260076020830152604082015260018060a01b0384166060820152a160075f526101c56020527fb9b5f537a176f674ba9b91cc4835de6d1699c8c17ee20978d88ef7eb1e95399680546001600160a01b0319166001600160a01b03909216919091179055005b346101865760403660031901126101865761034e60043561032b6112e5565b90610349610344825f525f602052600160405f20015490565b6113df565b611400565b005b34610186575f36600319011261018657602060ff6101c754166040519015158152f35b34610186575f36600319011261018657335f9081525f8051602061150183398151915260205260409020546103aa9060ff166112fb565b60ff1961015f541661015f557fd47973dd192c0c30454470a9dbe5c3afb68f03d611242d7c047c3f5c69cabe5b5f80a1005b34610186576040366003190112610186576103f56112cf565b6024356001600160a01b0381169190829003610186576104136113b4565b6001600160a01b031690610428821515611383565b6104306113b4565b6104386113b4565b610443811515611383565b6bffffffffffffffffffffffff60a01b60325416176032556104636113b4565b60017f9b779b17422d0df92223018b32b4d1fa46e071723d6817e2486d003becc55f00555f8181525f805160206114a1833981519152602052604090205460ff1615610511575b5f805160206114c18339815191525f81815260208190527fd329ff8a035c3ce5df2b0dae604d660c0d8783bf7e64be00c1d10db96c0b87b58054908390559082907fbd79b86ffe0ab8e8776151514217cd7cacd52c909f66475c3af44e129f0b00ff9080a4005b5f8181525f805160206114a183398151915260205260408120805460ff191660011790553391905f805160206114c1833981519152905f805160206114818339815191529080a4806104aa565b34610186576020366003190112610186576105776112cf565b5f80516020611541833981519152549060ff8260401c16159167ffffffffffffffff811680159081610909575b60011490816108ff575b1590816108f6575b506108e75767ffffffffffffffff1981166001175f8051602061154183398151915255826108bb575b506001600160a01b031680158061087657610602906105fc6113b4565b15611383565b61060a6113b4565b6106126113b4565b61061d301515611383565b603280546001600160a01b031916301790556106376113b4565b60017f9b779b17422d0df92223018b32b4d1fa46e071723d6817e2486d003becc55f00555f8181525f805160206114a1833981519152602052604090205460ff1615610829575b5f805160206114c18339815191525f81815260208190527fd329ff8a035c3ce5df2b0dae604d660c0d8783bf7e64be00c1d10db96c0b87b58054908390559082907fbd79b86ffe0ab8e8776151514217cd7cacd52c909f66475c3af44e129f0b00ff9080a45f8181525f80516020611501833981519152602052604090205460ff16156107dc575b505f805160206115218339815191525f81815260208190527ff7c9542c591017a21c74b6f3fab6263c7952fc0aaf9db4c22a2a04ddc7f8675080545f805160206114c183398151915291829055604051949391929091907fbd79b86ffe0ab8e8776151514217cd7cacd52c909f66475c3af44e129f0b00ff9080a461078757005b60207fc7f505b2f371ae2175ee4913f4499e1f2633a7b5936321eed1cdaeb6115181d29168ff0000000000000000195f8051602061154183398151915254165f805160206115418339815191525560018152a1005b5f8181525f8051602061150183398151915260205260408120805460ff191660011790553391905f80516020611521833981519152905f805160206114818339815191529080a481610706565b5f8181525f805160206114a183398151915260205260408120805460ff19166001179055339082905f805160206114c1833981519152905f805160206114818339815191529080a461067e565b60405162461bcd60e51b815260206004820152601d60248201527f4f776e657220616464726573732063616e6e6f7420626520656d7074790000006044820152606490fd5b68ffffffffffffffffff191668010000000000000001175f8051602061154183398151915255826105df565b63f92ee8a960e01b5f5260045ffd5b905015846105b6565b303b1591506105ae565b8491506105a4565b346101865760203660031901126101865761092a6112cf565b610935610274611362565b60045f526101c56020525f805160206114e1833981519152608060018060a01b0360405f2054166040519033825260046020830152604082015260018060a01b0384166060820152a160045f526101c56020527f59173b4adb8ee66c73342178336a69e323a416b5a7cf001d3ece6f10bfd9c5e280546001600160a01b0319166001600160a01b03909216919091179055005b34610186575f3660031901126101865760206109e2611362565b6040519015158152f35b3461018657604036600319011261018657600435610a086112e5565b90610a14610274611362565b5f8181526101c560205260409020546001600160a01b0316610aa8575f8181526101c560209081526040918290205482513381529182018490526001600160a01b039081169282019290925290831660608201525f805160206114e183398151915290608090a15f9081526101c56020526040902080546001600160a01b0319166001600160a01b03909216919091179055005b60405162461bcd60e51b8152602060048201526024808201527f416464726573732068617320616c7265616479206265656e20696e697469616c6044820152631a5e995960e21b6064820152608490fd5b34610186575f3660031901126101865760206040515f8152f35b3461018657604036600319011261018657610b2c6112e5565b6004355f525f60205260405f209060018060a01b03165f52602052602060ff60405f2054166040519015158152f35b34610186576020366003190112610186577f62e78cea01bee320cd4e420270b5ea74000d11b0c9f74754ebdbfc544b05a2586020610b976112cf565b5f805160206115218339815191525f90815280835260408082203383528452902054610bc59060ff166112fb565b6001600160a01b03165f8181526101608352604090819020805460ff1916600117905551908152a1005b3461018657604036600319011261018657602435600435610c11610274611362565b805f526101c66020527f6b54a1d7321bc1699c15f7f585030864b02ca971590f31de4acbb60eff0758c0608060405f2054604051903382528460208301526040820152846060820152a15f526101c660205260405f20555f80f35b34610186575f36600319011261018657603254604051635b14f18360e01b815230600482015290602090829060249082906001600160a01b03165afa8015610cfe575f90610cc2575b6020906040519015158152f35b506020813d602011610cf6575b81610cdc6020938361132c565b810103126101865751801515810361018657602090610cb5565b3d9150610ccf565b6040513d5f823e3d90fd5b3461018657602036600319011261018657610d226112cf565b60ff61015f54168015610d3c576020906040519015158152f35b5060018060a01b03165f52610160602052602060ff60405f205416610cb5565b34610186576020366003190112610186577f5db9ee0a495bf2e6ff9c91a7834c1ba4fdd244a5e8aa4e537bd38aeae4b073aa6020610d986112cf565b5f805160206115218339815191525f90815280835260408082203383528452902054610dc69060ff166112fb565b6001600160a01b03165f8181526101608352604090819020805460ff1916905551908152a1005b3461018657602036600319011261018657610e066112cf565b610e11610274611362565b60025f526101c56020525f805160206114e1833981519152608060018060a01b0360405f2054166040519033825260026020830152604082015260018060a01b0384166060820152a160025f526101c56020527fa4d8ad4f5c3cb7fe02cf49e800605bda87de88c643bbfcc265cc60032494f23a80546001600160a01b0319166001600160a01b03909216919091179055005b346101865760403660031901126101865761034e610ec06112e5565b610ed46001600160a01b03821633146112fb565b600435611400565b3461018657604036600319011261018657600435610ef86112e5565b90610f11610344825f525f602052600160405f20015490565b5f818152602081815260408083206001600160a01b038616845290915290205460ff1615610f3b57005b5f818152602081815260408083206001600160a01b0395909516808452949091528120805460ff19166001179055339291905f805160206114818339815191529080a4005b3461018657606036600319011261018657610f996112cf565b6024359060443590610fac610274611362565b60ff6101c754166111ed576001600160a01b0316915f5b8181106111235750505f5b818110610fe5576101c7805460ff19166001179055005b5f8181526101c560205260409020546001600160a01b03161561100b575b600101610fce565b604051635c9fcd8560e11b81526004810182905290602082602481875afa918215610cfe575f926110e0575b50611043610274611362565b5f8181526101c560205260409020546001600160a01b0316610aa8575f8181526101c560209081526040918290205482513381529182018490526001600160a01b03908116928201929092529083166060820152600192905f805160206114e183398151915290608090a1815f526101c560205260405f2090838060a01b03166bffffffffffffffffffffffff60a01b8254161790559050611003565b9091506020813d821161111b575b816110fb6020938361132c565b8101031261018657516001600160a01b0381168103610186579084611037565b3d91506110ee565b604051631f8ac6cb60e31b81526004810182905290602082602481885afa8015610cfe575f906111bb575b6001925061115d610274611362565b815f526101c66020527f6b54a1d7321bc1699c15f7f585030864b02ca971590f31de4acbb60eff0758c0608060405f2054604051903382528560208301526040820152836060820152a1815f526101c660205260405f205501610fc3565b506020823d82116111e5575b816111d46020938361132c565b81010312610186576001915161114e565b3d91506111c7565b60405162461bcd60e51b815260206004820152601a60248201527f416c726561647920696e697469616c697a65642076616c7565730000000000006044820152606490fd5b3461018657602036600319011261018657602061125c6004355f525f602052600160405f20015490565b604051908152f35b34610186575f3660031901126101865761034e6113b4565b34610186576020366003190112610186576004359063ffffffff60e01b821680920361018657602091637965db0b60e01b81149081156112be575b5015158152f35b6301ffc9a760e01b149050836112b7565b600435906001600160a01b038216820361018657565b602435906001600160a01b038216820361018657565b1561130257565b60405162461bcd60e51b81526020600482015260026024820152614e4160f01b6044820152606490fd5b90601f8019910116810190811067ffffffffffffffff82111761134e57604052565b634e487b7160e01b5f52604160045260245ffd5b335f9081525f805160206114a1833981519152602052604090205460ff1690565b1561138a57565b60405162461bcd60e51b81526020600482015260026024820152615a4160f01b6044820152606490fd5b60ff5f805160206115418339815191525460401c16156113d057565b631afcd79f60e31b5f5260045ffd5b5f9081526020818152604080832033845290915290205460ff161561130257565b5f818152602081815260408083206001600160a01b038616845290915290205460ff1661142b575050565b5f818152602081815260408083206001600160a01b0395909516808452949091528120805460ff19169055339291907ff6391f5c32d9c69d2a47ea670b442974b53935d1edc7fd64eb21e047a839171b9080a456fe2f8788117e7eff1d82e926ec794901d17c78024a50270940304540a733656f0dd329ff8a035c3ce5df2b0dae604d660c0d8783bf7e64be00c1d10db96c0b87b4b19546dff01e856fb3f010c267a7b1c60363cf8a4664e21cc89c26224620214eaebfad0d8db62d5b2e540f64d7c2be34ded04171b48ed6655286c392a879bf6cf7c9542c591017a21c74b6f3fab6263c7952fc0aaf9db4c22a2a04ddc7f8674f65d7a28e3265b37a6474929f336521b332c1681b933f6cb9f3376673440d862af0c57e16840df040f15088dc2f81fe391c3923bec73e23a9662efc9c229c6a00a2646970667358221220369b756ad03efa190bd8b33f123241aa4ce573ec4988524bc071fa4408dd807364736f6c634300081a0033",
  "devdoc": {
    "author": "Goldfinch",
    "errors": {
      "AccessControlBadConfirmation()": [
        {
          "details": "The caller of a function is not the expected one. NOTE: Don't confuse with {AccessControlUnauthorizedAccount}."
        }
      ],
      "AccessControlUnauthorizedAccount(address,bytes32)": [
        {
          "details": "The `account` is missing a role."
        }
      ],
      "InvalidInitialization()": [
        {
          "details": "The contract is already initialized."
        }
      ],
      "NotInitializing()": [
        {
          "details": "The contract is not initializing."
        }
      ],
      "ReentrancyGuardReentrantCall()": [
        {
          "details": "Unauthorized reentrant call."
        }
      ]
    },
    "events": {
      "Initialized(uint64)": {
        "details": "Triggered when the contract has been initialized or reinitialized."
      },
      "RoleAdminChanged(bytes32,bytes32,bytes32)": {
        "details": "Emitted when `newAdminRole` is set as ``role``'s admin role, replacing `previousAdminRole` `DEFAULT_ADMIN_ROLE` is the starting admin for all roles, despite {RoleAdminChanged} not being emitted signaling this."
      },
      "RoleGranted(bytes32,address,address)": {
        "details": "Emitted when `account` is granted `role`. `sender` is the account that originated the contract call. This account bears the admin role (for the granted role). Expected in cases where the role was granted using the internal {AccessControl-_grantRole}."
      },
      "RoleRevoked(bytes32,address,address)": {
        "details": "Emitted when `account` is revoked `role`. `sender` is the account that originated the contract call:   - if using `revokeRole`, it is the admin role bearer   - if using `renounceRole`, it is the role bearer (i.e. `account`)"
      }
    },
    "kind": "dev",
    "methods": {
      "__BaseUpgradeablePausable__init(address,address)": {
        "details": "ZA: Zero Address"
      },
      "getRoleAdmin(bytes32)": {
        "details": "Returns the admin role that controls `role`. See {grantRole} and {revokeRole}. To change a role's admin, use {_setRoleAdmin}."
      },
      "grantRole(bytes32,address)": {
        "details": "Grants `role` to `account`. If `account` had not been already granted `role`, emits a {RoleGranted} event. Requirements: - the caller must have ``role``'s admin role. May emit a {RoleGranted} event."
      },
      "hasRole(bytes32,address)": {
        "details": "Returns `true` if `account` has been granted `role`."
      },
      "renounceRole(bytes32,address)": {
        "details": "Revokes `role` from the calling account. Roles are often managed via {grantRole} and {revokeRole}: this function's purpose is to provide a mechanism for accounts to lose their privileges if they are compromised (such as when a trusted device is misplaced). If the calling account had been revoked `role`, emits a {RoleRevoked} event. Requirements: - the caller must be `account`. May emit a {RoleRevoked} event."
      },
      "revokeRole(bytes32,address)": {
        "details": "Revokes `role` from `account`. If `account` had been granted `role`, emits a {RoleRevoked} event. Requirements: - the caller must have ``role``'s admin role. May emit a {RoleRevoked} event."
      },
      "supportsInterface(bytes4)": {
        "details": "See {IERC165-supportsInterface}."
      }
    },
    "title": "GoldfinchConfig",
    "version": 1
  },
  "userdoc": {
    "kind": "user",
    "methods": {},
    "notice": "This contract stores mappings of useful \"protocol config state\", giving a central place  for all other contracts to access it. For example, the PoolTokens address. These config vars  are enumerated in the `ConfigOptions` library, and can only be changed by admins of the protocol.",
    "version": 1
  },
  "storageLayout": {
    "storage": [
      {
        "astId": 14382,
        "contract": "contracts/protocol/core/GoldfinchConfig.sol:GoldfinchConfig",
        "label": "_roles",
        "offset": 0,
        "slot": "0",
        "type": "t_mapping(t_bytes32,t_struct(RoleData)14377_storage)"
      },
      {
        "astId": 14658,
        "contract": "contracts/protocol/core/GoldfinchConfig.sol:GoldfinchConfig",
        "label": "__gap",
        "offset": 0,
        "slot": "1",
        "type": "t_array(t_uint256)49_storage"
      },
      {
        "astId": 13497,
        "contract": "contracts/protocol/core/GoldfinchConfig.sol:GoldfinchConfig",
        "label": "pauser",
        "offset": 0,
        "slot": "50",
        "type": "t_contract(IPauser)11255"
      },
      {
        "astId": 13559,
        "contract": "contracts/protocol/core/GoldfinchConfig.sol:GoldfinchConfig",
        "label": "__gap",
        "offset": 0,
        "slot": "51",
        "type": "t_array(t_uint256)100_storage"
      },
      {
        "astId": 12490,
        "contract": "contracts/protocol/core/GoldfinchConfig.sol:GoldfinchConfig",
        "label": "__gap1",
        "offset": 0,
        "slot": "151",
        "type": "t_array(t_uint256)50_storage"
      },
      {
        "astId": 12494,
        "contract": "contracts/protocol/core/GoldfinchConfig.sol:GoldfinchConfig",
        "label": "__gap2",
        "offset": 0,
        "slot": "201",
        "type": "t_array(t_uint256)50_storage"
      },
      {
        "astId": 12498,
        "contract": "contracts/protocol/core/GoldfinchConfig.sol:GoldfinchConfig",
        "label": "__gap3",
        "offset": 0,
        "slot": "251",
        "type": "t_array(t_uint256)50_storage"
      },
      {
        "astId": 12502,
        "contract": "contracts/protocol/core/GoldfinchConfig.sol:GoldfinchConfig",
        "label": "__gap4",
        "offset": 0,
        "slot": "301",
        "type": "t_array(t_uint256)50_storage"
      },
      {
        "astId": 13578,
        "contract": "contracts/protocol/core/GoldfinchConfig.sol:GoldfinchConfig",
        "label": "globalPaused",
        "offset": 0,
        "slot": "351",
        "type": "t_bool"
      },
      {
        "astId": 13582,
        "contract": "contracts/protocol/core/GoldfinchConfig.sol:GoldfinchConfig",
        "label": "pausedContracts",
        "offset": 0,
        "slot": "352",
        "type": "t_mapping(t_address,t_bool)"
      },
      {
        "astId": 13681,
        "contract": "contracts/protocol/core/GoldfinchConfig.sol:GoldfinchConfig",
        "label": "__gap1",
        "offset": 0,
        "slot": "353",
        "type": "t_array(t_uint256)50_storage"
      },
      {
        "astId": 13685,
        "contract": "contracts/protocol/core/GoldfinchConfig.sol:GoldfinchConfig",
        "label": "__gap2",
        "offset": 0,
        "slot": "403",
        "type": "t_array(t_uint256)50_storage"
      },
      {
        "astId": 13115,
        "contract": "contracts/protocol/core/GoldfinchConfig.sol:GoldfinchConfig",
        "label": "addresses",
        "offset": 0,
        "slot": "453",
        "type": "t_mapping(t_uint256,t_address)"
      },
      {
        "astId": 13119,
        "contract": "contracts/protocol/core/GoldfinchConfig.sol:GoldfinchConfig",
        "label": "numbers",
        "offset": 0,
        "slot": "454",
        "type": "t_mapping(t_uint256,t_uint256)"
      },
      {
        "astId": 13141,
        "contract": "contracts/protocol/core/GoldfinchConfig.sol:GoldfinchConfig",
        "label": "valuesInitialized",
        "offset": 0,
        "slot": "455",
        "type": "t_bool"
      }
    ],
    "types": {
      "t_address": {
        "encoding": "inplace",
        "label": "address",
        "numberOfBytes": "20"
      },
      "t_array(t_uint256)100_storage": {
        "base": "t_uint256",
        "encoding": "inplace",
        "label": "uint256[100]",
        "numberOfBytes": "3200"
      },
      "t_array(t_uint256)49_storage": {
        "base": "t_uint256",
        "encoding": "inplace",
        "label": "uint256[49]",
        "numberOfBytes": "1568"
      },
      "t_array(t_uint256)50_storage": {
        "base": "t_uint256",
        "encoding": "inplace",
        "label": "uint256[50]",
        "numberOfBytes": "1600"
      },
      "t_bool": {
        "encoding": "inplace",
        "label": "bool",
        "numberOfBytes": "1"
      },
      "t_bytes32": {
        "encoding": "inplace",
        "label": "bytes32",
        "numberOfBytes": "32"
      },
      "t_contract(IPauser)11255": {
        "encoding": "inplace",
        "label": "contract IPauser",
        "numberOfBytes": "20"
      },
      "t_mapping(t_address,t_bool)": {
        "encoding": "mapping",
        "key": "t_address",
        "label": "mapping(address => bool)",
        "numberOfBytes": "32",
        "value": "t_bool"
      },
      "t_mapping(t_bytes32,t_struct(RoleData)14377_storage)": {
        "encoding": "mapping",
        "key": "t_bytes32",
        "label": "mapping(bytes32 => struct AccessControlUpgradeable.RoleData)",
        "numberOfBytes": "32",
        "value": "t_struct(RoleData)14377_storage"
      },
      "t_mapping(t_uint256,t_address)": {
        "encoding": "mapping",
        "key": "t_uint256",
        "label": "mapping(uint256 => address)",
        "numberOfBytes": "32",
        "value": "t_address"
      },
      "t_mapping(t_uint256,t_uint256)": {
        "encoding": "mapping",
        "key": "t_uint256",
        "label": "mapping(uint256 => uint256)",
        "numberOfBytes": "32",
        "value": "t_uint256"
      },
      "t_struct(RoleData)14377_storage": {
        "encoding": "inplace",
        "label": "struct AccessControlUpgradeable.RoleData",
        "members": [
          {
            "astId": 14374,
            "contract": "contracts/protocol/core/GoldfinchConfig.sol:GoldfinchConfig",
            "label": "members",
            "offset": 0,
            "slot": "0",
            "type": "t_mapping(t_address,t_bool)"
          },
          {
            "astId": 14376,
            "contract": "contracts/protocol/core/GoldfinchConfig.sol:GoldfinchConfig",
            "label": "adminRole",
            "offset": 0,
            "slot": "1",
            "type": "t_bytes32"
          }
        ],
        "numberOfBytes": "64"
      },
      "t_uint256": {
        "encoding": "inplace",
        "label": "uint256",
        "numberOfBytes": "32"
      }
    }
  }
}