{
  "address": "0x3c705dB336C81c7FEFC5746e283aB2c0781A4B7b",
  "abi": [
    {
      "anonymous": false,
      "inputs": [
        {
          "indexed": true,
          "internalType": "uint256",
          "name": "originalTokenId",
          "type": "uint256"
        },
        {
          "indexed": true,
          "internalType": "uint256",
          "name": "callRequestedTokenId",
          "type": "uint256"
        },
        {
          "indexed": true,
          "internalType": "uint256",
          "name": "remainingTokenId",
          "type": "uint256"
        },
        {
          "indexed": false,
          "internalType": "uint256",
          "name": "callAmount",
          "type": "uint256"
        }
      ],
      "name": "CallRequestSubmitted",
      "type": "event"
    },
    {
      "anonymous": false,
      "inputs": [
        {
          "indexed": true,
          "internalType": "address",
          "name": "owner",
          "type": "address"
        },
        {
          "indexed": true,
          "internalType": "uint256",
          "name": "tranche",
          "type": "uint256"
        },
        {
          "indexed": true,
          "internalType": "uint256",
          "name": "tokenId",
          "type": "uint256"
        },
        {
          "indexed": false,
          "internalType": "uint256",
          "name": "amount",
          "type": "uint256"
        }
      ],
      "name": "DepositMade",
      "type": "event"
    },
    {
      "anonymous": false,
      "inputs": [
        {
          "indexed": true,
          "internalType": "address",
          "name": "loan",
          "type": "address"
        }
      ],
      "name": "DepositsLocked",
      "type": "event"
    },
    {
      "anonymous": false,
      "inputs": [
        {
          "indexed": true,
          "internalType": "address",
          "name": "borrower",
          "type": "address"
        },
        {
          "indexed": false,
          "internalType": "uint256",
          "name": "amount",
          "type": "uint256"
        }
      ],
      "name": "DrawdownMade",
      "type": "event"
    },
    {
      "anonymous": false,
      "inputs": [
        {
          "indexed": true,
          "internalType": "address",
          "name": "pool",
          "type": "address"
        }
      ],
      "name": "DrawdownsPaused",
      "type": "event"
    },
    {
      "anonymous": false,
      "inputs": [
        {
          "indexed": true,
          "internalType": "address",
          "name": "pool",
          "type": "address"
        }
      ],
      "name": "DrawdownsUnpaused",
      "type": "event"
    },
    {
      "anonymous": false,
      "inputs": [
        {
          "indexed": true,
          "internalType": "address",
          "name": "pool",
          "type": "address"
        }
      ],
      "name": "EmergencyShutdown",
      "type": "event"
    },
    {
      "anonymous": false,
      "inputs": [
        {
          "indexed": false,
          "internalType": "address",
          "name": "account",
          "type": "address"
        }
      ],
      "name": "Paused",
      "type": "event"
    },
    {
      "anonymous": false,
      "inputs": [
        {
          "indexed": true,
          "internalType": "address",
          "name": "payer",
          "type": "address"
        },
        {
          "indexed": true,
          "internalType": "address",
          "name": "pool",
          "type": "address"
        },
        {
          "indexed": false,
          "internalType": "uint256",
          "name": "interest",
          "type": "uint256"
        },
        {
          "indexed": false,
          "internalType": "uint256",
          "name": "principal",
          "type": "uint256"
        },
        {
          "indexed": false,
          "internalType": "uint256",
          "name": "remaining",
          "type": "uint256"
        },
        {
          "indexed": false,
          "internalType": "uint256",
          "name": "reserve",
          "type": "uint256"
        }
      ],
      "name": "PaymentApplied",
      "type": "event"
    },
    {
      "anonymous": false,
      "inputs": [
        {
          "indexed": true,
          "internalType": "address",
          "name": "from",
          "type": "address"
        },
        {
          "indexed": false,
          "internalType": "uint256",
          "name": "amount",
          "type": "uint256"
        }
      ],
      "name": "ReserveFundsCollected",
      "type": "event"
    },
    {
      "anonymous": false,
      "inputs": [
        {
          "indexed": true,
          "internalType": "bytes32",
          "name": "role",
          "type": "bytes32"
        },
        {
          "indexed": true,
          "internalType": "bytes32",
          "name": "previousAdminRole",
          "type": "bytes32"
        },
        {
          "indexed": true,
          "internalType": "bytes32",
          "name": "newAdminRole",
          "type": "bytes32"
        }
      ],
      "name": "RoleAdminChanged",
      "type": "event"
    },
    {
      "anonymous": false,
      "inputs": [
        {
          "indexed": true,
          "internalType": "bytes32",
          "name": "role",
          "type": "bytes32"
        },
        {
          "indexed": true,
          "internalType": "address",
          "name": "account",
          "type": "address"
        },
        {
          "indexed": true,
          "internalType": "address",
          "name": "sender",
          "type": "address"
        }
      ],
      "name": "RoleGranted",
      "type": "event"
    },
    {
      "anonymous": false,
      "inputs": [
        {
          "indexed": true,
          "internalType": "bytes32",
          "name": "role",
          "type": "bytes32"
        },
        {
          "indexed": true,
          "internalType": "address",
          "name": "account",
          "type": "address"
        },
        {
          "indexed": true,
          "internalType": "address",
          "name": "sender",
          "type": "address"
        }
      ],
      "name": "RoleRevoked",
      "type": "event"
    },
    {
      "anonymous": false,
      "inputs": [
        {
          "indexed": false,
          "internalType": "address",
          "name": "account",
          "type": "address"
        }
      ],
      "name": "Unpaused",
      "type": "event"
    },
    {
      "anonymous": false,
      "inputs": [
        {
          "indexed": true,
          "internalType": "address",
          "name": "owner",
          "type": "address"
        },
        {
          "indexed": true,
          "internalType": "uint256",
          "name": "tranche",
          "type": "uint256"
        },
        {
          "indexed": true,
          "internalType": "uint256",
          "name": "tokenId",
          "type": "uint256"
        },
        {
          "indexed": false,
          "internalType": "uint256",
          "name": "interestWithdrawn",
          "type": "uint256"
        },
        {
          "indexed": false,
          "internalType": "uint256",
          "name": "principalWithdrawn",
          "type": "uint256"
        }
      ],
      "name": "WithdrawalMade",
      "type": "event"
    },
    {
      "inputs": [],
      "name": "DEFAULT_ADMIN_ROLE",
      "outputs": [
        {
          "internalType": "bytes32",
          "name": "",
          "type": "bytes32"
        }
      ],
      "stateMutability": "view",
      "type": "function"
    },
    {
      "inputs": [],
      "name": "LOCKER_ROLE",
      "outputs": [
        {
          "internalType": "bytes32",
          "name": "",
          "type": "bytes32"
        }
      ],
      "stateMutability": "view",
      "type": "function"
    },
    {
      "inputs": [],
      "name": "OWNER_ROLE",
      "outputs": [
        {
          "internalType": "bytes32",
          "name": "",
          "type": "bytes32"
        }
      ],
      "stateMutability": "view",
      "type": "function"
    },
    {
      "inputs": [],
      "name": "PAUSER_ROLE",
      "outputs": [
        {
          "internalType": "bytes32",
          "name": "",
          "type": "bytes32"
        }
      ],
      "stateMutability": "view",
      "type": "function"
    },
    {
      "inputs": [
        {
          "internalType": "address",
          "name": "owner",
          "type": "address"
        }
      ],
      "name": "__BaseUpgradeablePausable__init",
      "outputs": [],
      "stateMutability": "nonpayable",
      "type": "function"
    },
    {
      "inputs": [],
      "name": "__PauserPausable__init",
      "outputs": [],
      "stateMutability": "nonpayable",
      "type": "function"
    },
    {
      "inputs": [],
      "name": "_reserveFundsFeePercent",
      "outputs": [
        {
          "internalType": "uint256",
          "name": "",
          "type": "uint256"
        }
      ],
      "stateMutability": "view",
      "type": "function"
    },
    {
      "inputs": [
        {
          "internalType": "uint256",
          "name": "",
          "type": "uint256"
        }
      ],
      "name": "allowedUIDTypes",
      "outputs": [
        {
          "internalType": "uint256",
          "name": "",
          "type": "uint256"
        }
      ],
      "stateMutability": "view",
      "type": "function"
    },
    {
      "inputs": [
        {
          "internalType": "uint256",
          "name": "tokenId",
          "type": "uint256"
        }
      ],
      "name": "availableToCall",
      "outputs": [
        {
          "internalType": "uint256",
          "name": "",
          "type": "uint256"
        }
      ],
      "stateMutability": "view",
      "type": "function"
    },
    {
      "inputs": [
        {
          "internalType": "uint256",
          "name": "tokenId",
          "type": "uint256"
        }
      ],
      "name": "availableToWithdraw",
      "outputs": [
        {
          "internalType": "uint256",
          "name": "",
          "type": "uint256"
        },
        {
          "internalType": "uint256",
          "name": "",
          "type": "uint256"
        }
      ],
      "stateMutability": "view",
      "type": "function"
    },
    {
      "inputs": [],
      "name": "balance",
      "outputs": [
        {
          "internalType": "uint256",
          "name": "",
          "type": "uint256"
        }
      ],
      "stateMutability": "view",
      "type": "function"
    },
    {
      "inputs": [],
      "name": "borrower",
      "outputs": [
        {
          "internalType": "address",
          "name": "",
          "type": "address"
        }
      ],
      "stateMutability": "view",
      "type": "function"
    },
    {
      "inputs": [],
      "name": "config",
      "outputs": [
        {
          "internalType": "contract IGoldfinchConfig",
          "name": "",
          "type": "address"
        }
      ],
      "stateMutability": "view",
      "type": "function"
    },
    {
      "inputs": [],
      "name": "createdAt",
      "outputs": [
        {
          "internalType": "uint256",
          "name": "",
          "type": "uint256"
        }
      ],
      "stateMutability": "view",
      "type": "function"
    },
    {
      "inputs": [],
      "name": "creditLine",
      "outputs": [
        {
          "internalType": "contract ICreditLine",
          "name": "",
          "type": "address"
        }
      ],
      "stateMutability": "view",
      "type": "function"
    },
    {
      "inputs": [],
      "name": "currentLimit",
      "outputs": [
        {
          "internalType": "uint256",
          "name": "",
          "type": "uint256"
        }
      ],
      "stateMutability": "view",
      "type": "function"
    },
    {
      "inputs": [
        {
          "internalType": "uint256",
          "name": "tranche",
          "type": "uint256"
        },
        {
          "internalType": "uint256",
          "name": "amount",
          "type": "uint256"
        }
      ],
      "name": "deposit",
      "outputs": [
        {
          "internalType": "uint256",
          "name": "",
          "type": "uint256"
        }
      ],
      "stateMutability": "nonpayable",
      "type": "function"
    },
    {
      "inputs": [
        {
          "internalType": "uint256",
          "name": "tranche",
          "type": "uint256"
        },
        {
          "internalType": "uint256",
          "name": "amount",
          "type": "uint256"
        },
        {
          "internalType": "uint256",
          "name": "deadline",
          "type": "uint256"
        },
        {
          "internalType": "uint8",
          "name": "v",
          "type": "uint8"
        },
        {
          "internalType": "bytes32",
          "name": "r",
          "type": "bytes32"
        },
        {
          "internalType": "bytes32",
          "name": "s",
          "type": "bytes32"
        }
      ],
      "name": "depositWithPermit",
      "outputs": [
        {
          "internalType": "uint256",
          "name": "tokenId",
          "type": "uint256"
        }
      ],
      "stateMutability": "nonpayable",
      "type": "function"
    },
    {
      "inputs": [
        {
          "internalType": "uint256",
          "name": "amount",
          "type": "uint256"
        }
      ],
      "name": "drawdown",
      "outputs": [],
      "stateMutability": "nonpayable",
      "type": "function"
    },
    {
      "inputs": [],
      "name": "drawdownsPaused",
      "outputs": [
        {
          "internalType": "bool",
          "name": "",
          "type": "bool"
        }
      ],
      "stateMutability": "view",
      "type": "function"
    },
    {
      "inputs": [],
      "name": "fundableAt",
      "outputs": [
        {
          "internalType": "uint256",
          "name": "",
          "type": "uint256"
        }
      ],
      "stateMutability": "view",
      "type": "function"
    },
    {
      "inputs": [],
      "name": "getAllowedUIDTypes",
      "outputs": [
        {
          "internalType": "uint256[]",
          "name": "",
          "type": "uint256[]"
        }
      ],
      "stateMutability": "view",
      "type": "function"
    },
    {
      "inputs": [
        {
          "internalType": "uint256",
          "name": "timestamp",
          "type": "uint256"
        }
      ],
      "name": "getAmountsOwed",
      "outputs": [
        {
          "internalType": "uint256",
          "name": "returnedInterestOwed",
          "type": "uint256"
        },
        {
          "internalType": "uint256",
          "name": "returnedInterestAccrued",
          "type": "uint256"
        },
        {
          "internalType": "uint256",
          "name": "returnedPrincipalOwed",
          "type": "uint256"
        }
      ],
      "stateMutability": "view",
      "type": "function"
    },
    {
      "inputs": [
        {
          "internalType": "uint256",
          "name": "callRequestPeriodIndex",
          "type": "uint256"
        }
      ],
      "name": "getCallRequestPeriod",
      "outputs": [
        {
          "components": [
            {
              "internalType": "uint256",
              "name": "principalDeposited",
              "type": "uint256"
            },
            {
              "internalType": "uint256",
              "name": "principalPaid",
              "type": "uint256"
            },
            {
              "internalType": "uint256",
              "name": "principalReserved",
              "type": "uint256"
            },
            {
              "internalType": "uint256",
              "name": "interestPaid",
              "type": "uint256"
            }
          ],
          "internalType": "struct ICallableLoan.CallRequestPeriod",
          "name": "",
          "type": "tuple"
        }
      ],
      "stateMutability": "view",
      "type": "function"
    },
    {
      "inputs": [
        {
          "internalType": "bytes32",
          "name": "role",
          "type": "bytes32"
        }
      ],
      "name": "getRoleAdmin",
      "outputs": [
        {
          "internalType": "bytes32",
          "name": "",
          "type": "bytes32"
        }
      ],
      "stateMutability": "view",
      "type": "function"
    },
    {
      "inputs": [],
      "name": "getUncalledCapitalInfo",
      "outputs": [
        {
          "components": [
            {
              "internalType": "uint256",
              "name": "principalDeposited",
              "type": "uint256"
            },
            {
              "internalType": "uint256",
              "name": "principalPaid",
              "type": "uint256"
            },
            {
              "internalType": "uint256",
              "name": "principalReserved",
              "type": "uint256"
            },
            {
              "internalType": "uint256",
              "name": "interestPaid",
              "type": "uint256"
            }
          ],
          "internalType": "struct ICallableLoan.UncalledCapitalInfo",
          "name": "",
          "type": "tuple"
        }
      ],
      "stateMutability": "view",
      "type": "function"
    },
    {
      "inputs": [],
      "name": "getVersion",
      "outputs": [
        {
          "internalType": "uint8[3]",
          "name": "version",
          "type": "uint8[3]"
        }
      ],
      "stateMutability": "pure",
      "type": "function"
    },
    {
      "inputs": [
        {
          "internalType": "bytes32",
          "name": "role",
          "type": "bytes32"
        },
        {
          "internalType": "address",
          "name": "account",
          "type": "address"
        }
      ],
      "name": "grantRole",
      "outputs": [],
      "stateMutability": "nonpayable",
      "type": "function"
    },
    {
      "inputs": [
        {
          "internalType": "address",
          "name": "sender",
          "type": "address"
        }
      ],
      "name": "hasAllowedUID",
      "outputs": [
        {
          "internalType": "bool",
          "name": "",
          "type": "bool"
        }
      ],
      "stateMutability": "view",
      "type": "function"
    },
    {
      "inputs": [
        {
          "internalType": "bytes32",
          "name": "role",
          "type": "bytes32"
        },
        {
          "internalType": "address",
          "name": "account",
          "type": "address"
        }
      ],
      "name": "hasRole",
      "outputs": [
        {
          "internalType": "bool",
          "name": "",
          "type": "bool"
        }
      ],
      "stateMutability": "view",
      "type": "function"
    },
    {
      "inputs": [
        {
          "internalType": "address",
          "name": "_config",
          "type": "address"
        },
        {
          "internalType": "address",
          "name": "owner",
          "type": "address"
        },
        {
          "internalType": "address",
          "name": "_borrower",
          "type": "address"
        },
        {
          "internalType": "uint256",
          "name": "_limit",
          "type": "uint256"
        },
        {
          "internalType": "uint256",
          "name": "_interestApr",
          "type": "uint256"
        },
        {
          "internalType": "contract ISchedule",
          "name": "_schedule",
          "type": "address"
        },
        {
          "internalType": "uint256",
          "name": "_lateFeeApr",
          "type": "uint256"
        }
      ],
      "name": "initialize",
      "outputs": [],
      "stateMutability": "nonpayable",
      "type": "function"
    },
    {
      "inputs": [
        {
          "internalType": "address",
          "name": "_config",
          "type": "address"
        },
        {
          "internalType": "address",
          "name": "_borrower",
          "type": "address"
        },
        {
          "internalType": "uint256",
          "name": "_limit",
          "type": "uint256"
        },
        {
          "internalType": "uint256",
          "name": "_interestApr",
          "type": "uint256"
        },
        {
          "internalType": "uint256",
          "name": "_numLockupPeriods",
          "type": "uint256"
        },
        {
          "internalType": "contract ISchedule",
          "name": "_schedule",
          "type": "address"
        },
        {
          "internalType": "uint256",
          "name": "_lateFeeApr",
          "type": "uint256"
        },
        {
          "internalType": "uint256",
          "name": "_fundableAt",
          "type": "uint256"
        },
        {
          "internalType": "uint256[]",
          "name": "_allowedUIDTypes",
          "type": "uint256[]"
        }
      ],
      "name": "initialize",
      "outputs": [],
      "stateMutability": "nonpayable",
      "type": "function"
    },
    {
      "inputs": [],
      "name": "interestAccrued",
      "outputs": [
        {
          "internalType": "uint256",
          "name": "",
          "type": "uint256"
        }
      ],
      "stateMutability": "view",
      "type": "function"
    },
    {
      "inputs": [],
      "name": "interestAccruedAsOf",
      "outputs": [
        {
          "internalType": "uint256",
          "name": "",
          "type": "uint256"
        }
      ],
      "stateMutability": "view",
      "type": "function"
    },
    {
      "inputs": [
        {
          "internalType": "uint256",
          "name": "timestamp",
          "type": "uint256"
        }
      ],
      "name": "interestAccruedAt",
      "outputs": [
        {
          "internalType": "uint256",
          "name": "",
          "type": "uint256"
        }
      ],
      "stateMutability": "view",
      "type": "function"
    },
    {
      "inputs": [],
      "name": "interestApr",
      "outputs": [
        {
          "internalType": "uint256",
          "name": "",
          "type": "uint256"
        }
      ],
      "stateMutability": "view",
      "type": "function"
    },
    {
      "inputs": [],
      "name": "interestBearingBalance",
      "outputs": [
        {
          "internalType": "uint256",
          "name": "",
          "type": "uint256"
        }
      ],
      "stateMutability": "view",
      "type": "function"
    },
    {
      "inputs": [],
      "name": "interestOwed",
      "outputs": [
        {
          "internalType": "uint256",
          "name": "",
          "type": "uint256"
        }
      ],
      "stateMutability": "view",
      "type": "function"
    },
    {
      "inputs": [
        {
          "internalType": "uint256",
          "name": "timestamp",
          "type": "uint256"
        }
      ],
      "name": "interestOwedAt",
      "outputs": [
        {
          "internalType": "uint256",
          "name": "",
          "type": "uint256"
        }
      ],
      "stateMutability": "view",
      "type": "function"
    },
    {
      "inputs": [],
      "name": "isAdmin",
      "outputs": [
        {
          "internalType": "bool",
          "name": "",
          "type": "bool"
        }
      ],
      "stateMutability": "view",
      "type": "function"
    },
    {
      "inputs": [],
      "name": "isLate",
      "outputs": [
        {
          "internalType": "bool",
          "name": "",
          "type": "bool"
        }
      ],
      "stateMutability": "view",
      "type": "function"
    },
    {
      "inputs": [],
      "name": "lastFullPaymentTime",
      "outputs": [
        {
          "internalType": "uint256",
          "name": "",
          "type": "uint256"
        }
      ],
      "stateMutability": "view",
      "type": "function"
    },
    {
      "inputs": [],
      "name": "lateFeeApr",
      "outputs": [
        {
          "internalType": "uint256",
          "name": "",
          "type": "uint256"
        }
      ],
      "stateMutability": "view",
      "type": "function"
    },
    {
      "inputs": [],
      "name": "limit",
      "outputs": [
        {
          "internalType": "uint256",
          "name": "",
          "type": "uint256"
        }
      ],
      "stateMutability": "view",
      "type": "function"
    },
    {
      "inputs": [],
      "name": "maxLimit",
      "outputs": [
        {
          "internalType": "uint256",
          "name": "",
          "type": "uint256"
        }
      ],
      "stateMutability": "view",
      "type": "function"
    },
    {
      "inputs": [],
      "name": "nextDueTime",
      "outputs": [
        {
          "internalType": "uint256",
          "name": "",
          "type": "uint256"
        }
      ],
      "stateMutability": "view",
      "type": "function"
    },
    {
      "inputs": [
        {
          "internalType": "uint256",
          "name": "timestamp",
          "type": "uint256"
        }
      ],
      "name": "nextDueTimeAt",
      "outputs": [
        {
          "internalType": "uint256",
          "name": "",
          "type": "uint256"
        }
      ],
      "stateMutability": "view",
      "type": "function"
    },
    {
      "inputs": [
        {
          "internalType": "uint256",
          "name": "timestamp",
          "type": "uint256"
        }
      ],
      "name": "nextInterestDueTimeAt",
      "outputs": [
        {
          "internalType": "uint256",
          "name": "",
          "type": "uint256"
        }
      ],
      "stateMutability": "view",
      "type": "function"
    },
    {
      "inputs": [],
      "name": "nextPrincipalDueTime",
      "outputs": [
        {
          "internalType": "uint256",
          "name": "",
          "type": "uint256"
        }
      ],
      "stateMutability": "view",
      "type": "function"
    },
    {
      "inputs": [],
      "name": "pause",
      "outputs": [],
      "stateMutability": "nonpayable",
      "type": "function"
    },
    {
      "inputs": [],
      "name": "pauseDrawdowns",
      "outputs": [],
      "stateMutability": "nonpayable",
      "type": "function"
    },
    {
      "inputs": [],
      "name": "paused",
      "outputs": [
        {
          "internalType": "bool",
          "name": "",
          "type": "bool"
        }
      ],
      "stateMutability": "view",
      "type": "function"
    },
    {
      "inputs": [
        {
          "internalType": "uint256",
          "name": "amount",
          "type": "uint256"
        }
      ],
      "name": "pay",
      "outputs": [
        {
          "components": [
            {
              "internalType": "uint256",
              "name": "owedInterestPayment",
              "type": "uint256"
            },
            {
              "internalType": "uint256",
              "name": "accruedInterestPayment",
              "type": "uint256"
            },
            {
              "internalType": "uint256",
              "name": "principalPayment",
              "type": "uint256"
            },
            {
              "internalType": "uint256",
              "name": "additionalBalancePayment",
              "type": "uint256"
            },
            {
              "internalType": "uint256",
              "name": "paymentRemaining",
              "type": "uint256"
            }
          ],
          "internalType": "struct ILoan.PaymentAllocation",
          "name": "",
          "type": "tuple"
        }
      ],
      "stateMutability": "nonpayable",
      "type": "function"
    },
    {
      "inputs": [
        {
          "internalType": "uint256",
          "name": "principalPayment",
          "type": "uint256"
        },
        {
          "internalType": "uint256",
          "name": "interestPayment",
          "type": "uint256"
        }
      ],
      "name": "pay",
      "outputs": [
        {
          "components": [
            {
              "internalType": "uint256",
              "name": "owedInterestPayment",
              "type": "uint256"
            },
            {
              "internalType": "uint256",
              "name": "accruedInterestPayment",
              "type": "uint256"
            },
            {
              "internalType": "uint256",
              "name": "principalPayment",
              "type": "uint256"
            },
            {
              "internalType": "uint256",
              "name": "additionalBalancePayment",
              "type": "uint256"
            },
            {
              "internalType": "uint256",
              "name": "paymentRemaining",
              "type": "uint256"
            }
          ],
          "internalType": "struct ILoan.PaymentAllocation",
          "name": "",
          "type": "tuple"
        }
      ],
      "stateMutability": "nonpayable",
      "type": "function"
    },
    {
      "inputs": [],
      "name": "principalOwed",
      "outputs": [
        {
          "internalType": "uint256",
          "name": "",
          "type": "uint256"
        }
      ],
      "stateMutability": "view",
      "type": "function"
    },
    {
      "inputs": [
        {
          "internalType": "uint256",
          "name": "timestamp",
          "type": "uint256"
        }
      ],
      "name": "principalOwedAt",
      "outputs": [
        {
          "internalType": "uint256",
          "name": "",
          "type": "uint256"
        }
      ],
      "stateMutability": "view",
      "type": "function"
    },
    {
      "inputs": [
        {
          "internalType": "bytes32",
          "name": "role",
          "type": "bytes32"
        },
        {
          "internalType": "address",
          "name": "account",
          "type": "address"
        }
      ],
      "name": "renounceRole",
      "outputs": [],
      "stateMutability": "nonpayable",
      "type": "function"
    },
    {
      "inputs": [
        {
          "internalType": "bytes32",
          "name": "role",
          "type": "bytes32"
        },
        {
          "internalType": "address",
          "name": "account",
          "type": "address"
        }
      ],
      "name": "revokeRole",
      "outputs": [],
      "stateMutability": "nonpayable",
      "type": "function"
    },
    {
      "inputs": [],
      "name": "schedule",
      "outputs": [
        {
          "internalType": "contract ISchedule",
          "name": "",
          "type": "address"
        }
      ],
      "stateMutability": "view",
      "type": "function"
    },
    {
      "inputs": [
        {
          "internalType": "uint256[]",
          "name": "ids",
          "type": "uint256[]"
        }
      ],
      "name": "setAllowedUIDTypes",
      "outputs": [],
      "stateMutability": "nonpayable",
      "type": "function"
    },
    {
      "inputs": [
        {
          "internalType": "uint256",
          "name": "newFundableAt",
          "type": "uint256"
        }
      ],
      "name": "setFundableAt",
      "outputs": [],
      "stateMutability": "nonpayable",
      "type": "function"
    },
    {
      "inputs": [
        {
          "internalType": "uint256",
          "name": "newAmount",
          "type": "uint256"
        }
      ],
      "name": "setLimit",
      "outputs": [],
      "stateMutability": "nonpayable",
      "type": "function"
    },
    {
      "inputs": [
        {
          "internalType": "uint256",
          "name": "newAmount",
          "type": "uint256"
        }
      ],
      "name": "setMaxLimit",
      "outputs": [],
      "stateMutability": "nonpayable",
      "type": "function"
    },
    {
      "inputs": [
        {
          "internalType": "uint256",
          "name": "callAmount",
          "type": "uint256"
        },
        {
          "internalType": "uint256",
          "name": "poolTokenId",
          "type": "uint256"
        }
      ],
      "name": "submitCall",
      "outputs": [
        {
          "internalType": "uint256",
          "name": "callRequestedTokenId",
          "type": "uint256"
        },
        {
          "internalType": "uint256",
          "name": "remainingTokenId",
          "type": "uint256"
        }
      ],
      "stateMutability": "nonpayable",
      "type": "function"
    },
    {
      "inputs": [
        {
          "internalType": "bytes4",
          "name": "interfaceId",
          "type": "bytes4"
        }
      ],
      "name": "supportsInterface",
      "outputs": [
        {
          "internalType": "bool",
          "name": "",
          "type": "bool"
        }
      ],
      "stateMutability": "view",
      "type": "function"
    },
    {
      "inputs": [],
      "name": "termEndTime",
      "outputs": [
        {
          "internalType": "uint256",
          "name": "",
          "type": "uint256"
        }
      ],
      "stateMutability": "view",
      "type": "function"
    },
    {
      "inputs": [],
      "name": "termStartTime",
      "outputs": [
        {
          "internalType": "uint256",
          "name": "",
          "type": "uint256"
        }
      ],
      "stateMutability": "view",
      "type": "function"
    },
    {
      "inputs": [],
      "name": "totalInterestAccrued",
      "outputs": [
        {
          "internalType": "uint256",
          "name": "",
          "type": "uint256"
        }
      ],
      "stateMutability": "view",
      "type": "function"
    },
    {
      "inputs": [
        {
          "internalType": "uint256",
          "name": "timestamp",
          "type": "uint256"
        }
      ],
      "name": "totalInterestAccruedAt",
      "outputs": [
        {
          "internalType": "uint256",
          "name": "",
          "type": "uint256"
        }
      ],
      "stateMutability": "view",
      "type": "function"
    },
    {
      "inputs": [],
      "name": "totalInterestOwed",
      "outputs": [
        {
          "internalType": "uint256",
          "name": "",
          "type": "uint256"
        }
      ],
      "stateMutability": "view",
      "type": "function"
    },
    {
      "inputs": [
        {
          "internalType": "uint256",
          "name": "timestamp",
          "type": "uint256"
        }
      ],
      "name": "totalInterestOwedAt",
      "outputs": [
        {
          "internalType": "uint256",
          "name": "",
          "type": "uint256"
        }
      ],
      "stateMutability": "view",
      "type": "function"
    },
    {
      "inputs": [],
      "name": "totalInterestPaid",
      "outputs": [
        {
          "internalType": "uint256",
          "name": "",
          "type": "uint256"
        }
      ],
      "stateMutability": "view",
      "type": "function"
    },
    {
      "inputs": [],
      "name": "totalPrincipalOwed",
      "outputs": [
        {
          "internalType": "uint256",
          "name": "",
          "type": "uint256"
        }
      ],
      "stateMutability": "view",
      "type": "function"
    },
    {
      "inputs": [
        {
          "internalType": "uint256",
          "name": "timestamp",
          "type": "uint256"
        }
      ],
      "name": "totalPrincipalOwedAt",
      "outputs": [
        {
          "internalType": "uint256",
          "name": "",
          "type": "uint256"
        }
      ],
      "stateMutability": "view",
      "type": "function"
    },
    {
      "inputs": [],
      "name": "totalPrincipalPaid",
      "outputs": [
        {
          "internalType": "uint256",
          "name": "",
          "type": "uint256"
        }
      ],
      "stateMutability": "view",
      "type": "function"
    },
    {
      "inputs": [],
      "name": "uncalledCapitalTrancheIndex",
      "outputs": [
        {
          "internalType": "uint256",
          "name": "",
          "type": "uint256"
        }
      ],
      "stateMutability": "view",
      "type": "function"
    },
    {
      "inputs": [],
      "name": "unpause",
      "outputs": [],
      "stateMutability": "nonpayable",
      "type": "function"
    },
    {
      "inputs": [],
      "name": "unpauseDrawdowns",
      "outputs": [],
      "stateMutability": "nonpayable",
      "type": "function"
    },
    {
      "inputs": [
        {
          "internalType": "uint256",
          "name": "tokenId",
          "type": "uint256"
        },
        {
          "internalType": "uint256",
          "name": "amount",
          "type": "uint256"
        }
      ],
      "name": "withdraw",
      "outputs": [
        {
          "internalType": "uint256",
          "name": "",
          "type": "uint256"
        },
        {
          "internalType": "uint256",
          "name": "",
          "type": "uint256"
        }
      ],
      "stateMutability": "nonpayable",
      "type": "function"
    },
    {
      "inputs": [
        {
          "internalType": "uint256",
          "name": "tokenId",
          "type": "uint256"
        }
      ],
      "name": "withdrawMax",
      "outputs": [
        {
          "internalType": "uint256",
          "name": "interestWithdrawn",
          "type": "uint256"
        },
        {
          "internalType": "uint256",
          "name": "principalWithdrawn",
          "type": "uint256"
        }
      ],
      "stateMutability": "nonpayable",
      "type": "function"
    },
    {
      "inputs": [
        {
          "internalType": "uint256[]",
          "name": "tokenIds",
          "type": "uint256[]"
        },
        {
          "internalType": "uint256[]",
          "name": "amounts",
          "type": "uint256[]"
        }
      ],
      "name": "withdrawMultiple",
      "outputs": [],
      "stateMutability": "nonpayable",
      "type": "function"
    },
    {
      "inputs": [],
      "name": "withinPrincipalGracePeriod",
      "outputs": [
        {
          "internalType": "bool",
          "name": "",
          "type": "bool"
        }
      ],
      "stateMutability": "view",
      "type": "function"
    }
  ],
  "transactionHash": "0x7e1b6a5f745fdfc131c0bcd5ff3a314836ceafca1439272a011ca54cef952448",
  "args": [],
  "numDeployments": 1,
  "solcInputHash": "c261153317399284a227d29fe7527816",
  "bytecode": "0x608060405234801561001057600080fd5b506164c980620000216000396000f3fe608060405234801561001057600080fd5b50600436106104955760003560e01c80638456cb5911610262578063bf8bcee411610151578063e2b02ce8116100ce578063eabd0ce111610092578063eabd0ce1146107ad578063eb07f4e614610986578063ef48eee61461098e578063f0b25bde146109a1578063f3621367146109a9578063f94f5a12146109be57600080fd5b8063e2b02ce81461092e578063e2bbb15814610936578063e58378bb14610949578063e63ab1e91461095e578063e7aa8a921461097357600080fd5b8063d284597711610115578063d2845977146108da578063d547741f146108e2578063d60efcb8146108f5578063daaa3a6214610908578063e2a657f91461091b57600080fd5b8063bf8bcee4146105bf578063c290d6911461085e578063c78bed86146108b3578063ce78290d146108c8578063cf09e0d0146108d057600080fd5b8063aa2a7c4c116101df578063b69ef8a8116101a3578063b69ef8a81461082b578063b6db75a014610833578063b9317d861461083b578063bbafcb401461084e578063bf6c87c71461085657600080fd5b8063aa2a7c4c146107bd578063aae932fe146107d0578063ae6c857a146107fe578063b0604a2614610811578063b39699921461082357600080fd5b8063a03c5cf011610226578063a03c5cf01461078a578063a079a4dd14610792578063a217fddf146107a5578063a4d66daf146107ad578063a8f9c4fe146107b557600080fd5b80638456cb591461074c5780638c0243e7146107545780638f168c931461075c57806391d14854146107645780639d1105301461077757600080fd5b80633f4ba83a11610389578063526d81f61161030657806364fb2d95116102ca57806364fb2d95146106f957806365973a1114610701578063729cf22f1461071457806379502c551461071c5780637df1f1b91461073057806381c17a151461074457600080fd5b8063526d81f6146106c157806352f555ba146106c95780635c975abb146106dc5780635eb185a2146106e7578063645d6225146106f157600080fd5b80634af75d351161034d5780634af75d351461066d5780634d02fe6f146106805780634d90a5391461069357806350b22fcf146106a6578063515bc323146106ae57600080fd5b80633f4ba83a14610608578063441a3e7014610610578063457147a71461063857806347195e131461064057806348eef1df1461065a57600080fd5b806320dcc3421161041757806327ea6f2b116103db57806327ea6f2b146105bf57806328b55c97146105d25780632ba443d2146105da5780632f2ff15d146105e257806336568abe146105f557600080fd5b806320dcc3421461055957806321506ebe1461056157806321856b3614610581578063248a9ca31461058957806324bb4b15146105ac57600080fd5b806311daef071161045e57806311daef071461052057806317f769411461053357806319350114146105415780631a861d26146105495780631cd724ac1461055157600080fd5b8062ae88e01461049a578063019c37e6146104c057806301ffc9a7146104d3578063097616a3146104f65780630d8e6e2c1461050b575b600080fd5b6104ad6104a8366004615b22565b6109d1565b6040519081526020015b60405180910390f35b6104ad6104ce366004615b22565b6109e5565b6104e66104e1366004615b3b565b6109f3565b60405190151581526020016104b7565b610509610504366004615b7a565b610a28565b005b610513610b7a565b6040516104b79190615b97565b6104ad61052e366004615b22565b610b97565b610233546104e69060ff1681565b6104ad610ba5565b6104ad610bb7565b6104ad610bd1565b6104ad610bde565b61057461056f366004615b22565b610beb565b6040516104b79190615bcb565b6104ad610c72565b6104ad610597366004615b22565b60009081526065602052604090206001015490565b6104ad6105ba366004615b22565b610c7f565b6105096105cd366004615b22565b610c8d565b6104ad610cc9565b6104ad610cd6565b6105096105f0366004615bf6565b610ce3565b610509610603366004615bf6565b610d0e565b610509610d88565b61062361061e366004615c26565b610dc6565b604080519283526020830191909152016104b7565b6104e6610eb8565b305b6040516001600160a01b0390911681526020016104b7565b610623610668366004615c26565b610ec5565b6104ad61067b366004615b22565b61160a565b61062361068e366004615b22565b611618565b6104ad6106a1366004615b22565b6116b3565b6104ad6116c1565b6104ad6106bc366004615c48565b6116ce565b6105096117d0565b6105096106d7366004615ca1565b611844565b60975460ff166104e6565b6104ad6102325481565b6104ad6118b2565b6104ad6118bf565b6104ad61070f366004615b22565b6118cc565b6105746119b4565b61023554610642906001600160a01b031681565b61023754610642906001600160a01b031681565b6104e6611a2e565b610509611a3b565b6104ad611a77565b6104ad611a84565b6104e6610772366004615bf6565b611a91565b610509610785366004615d67565b611abc565b6104ad611c43565b6105096107a0366004615b22565b611c50565b6104ad600081565b6104ad611dc0565b610509611dcd565b6106236107cb366004615b22565b611e2c565b6107e36107de366004615b22565b611e91565b604080519384526020840192909252908201526060016104b7565b61050961080c366004615b22565b611f1a565b6101ff546001600160a01b0316610642565b6104ad611f54565b6104ad611f61565b6104e6611f6e565b610509610849366004615dd2565b611f88565b6104ad61200e565b61050961201b565b61087161086c366004615b22565b612077565b6040516104b79190600060a082019050825182526020830151602083015260408301516040830152606083015160608301526080830151608083015292915050565b6108bb6120dd565b6040516104b79190615e13565b6104ad612136565b6104ad6102365481565b6104ad612143565b6105096108f0366004615bf6565b612150565b6104ad610903366004615b22565b612176565b6104ad610916366004615b22565b612184565b6104ad610929366004615b22565b612192565b6104ad6121b4565b6104ad610944366004615c26565b6121c1565b6104ad60008051602061643483398151915281565b6104ad60008051602061645483398151915281565b610509610981366004615e57565b612223565b6104ad61238a565b61087161099c366004615c26565b6123ae565b6104ad612400565b6104ad60008051602061647483398151915281565b6104e66109cc366004615b7a565b61240d565b60006109df6101c383612496565b92915050565b60006109df6101c3836124a2565b60006001600160e01b03198216637965db0b60e01b14806109df57506301ffc9a760e01b6001600160e01b03198316146109df565b600054610100900460ff1680610a41575060005460ff16155b610a665760405162461bcd60e51b8152600401610a5d90615f06565b60405180910390fd5b600054610100900460ff16158015610a88576000805461ffff19166101011790555b6001600160a01b038216610ade5760405162461bcd60e51b815260206004820181905260248201527f4f776e65722063616e6e6f7420626520746865207a65726f20616464726573736044820152606401610a5d565b610ae66124ae565b610aee612518565b610af661258d565b610b0e600080516020616434833981519152836125fd565b610b26600080516020616454833981519152836125fd565b610b4c600080516020616454833981519152600080516020616434833981519152612607565b610b6460008051602061643483398151915280612607565b8015610b76576000805461ff00191690555b5050565b610b826159f8565b60006040820181905260208201526001815290565b60006109df6101c383612652565b6000610bb26101c361265e565b905090565b600060405162461bcd60e51b8152600401610a5d90615f6a565b6000610bb26101c3612669565b6000610bb26101c3612674565b610c166040518060800160405280600081526020016000815260200160008152602001600081525090565b610c1e610cd6565b8210610c2957600080fd5b6000610c376101c38461267f565b905060405180608001604052808260000151815260200182602001518152602001826040015181526020018260600151815250915050919050565b6000610bb26101c36126b4565b60006109df6101c3836126bf565b610c95611f6e565b610cb15760405162461bcd60e51b8152600401610a5d90615f86565b60405162461bcd60e51b8152600401610a5d90615f6a565b6000610bb26101c36126cb565b6000610bb26101c36126d6565b600082815260656020526040902060010154610cff81336126ed565b610d098383612751565b505050565b6001600160a01b0381163314610d7e5760405162461bcd60e51b815260206004820152602f60248201527f416363657373436f6e74726f6c3a2063616e206f6e6c792072656e6f756e636560448201526e103937b632b9903337b91039b2b63360891b6064820152608401610a5d565b610b7682826127d7565b610da060008051602061645483398151915233611a91565b610dbc5760405162461bcd60e51b8152600401610a5d90615fd1565b610dc461283e565b565b600080600260c95403610deb5760405162461bcd60e51b8152600401610a5d90615fed565b600260c95560975460ff1615610e135760405162461bcd60e51b8152600401610a5d90616024565b61023554600090610e2c906001600160a01b03166128d1565b6001600160a01b0316638c7a63ae866040518263ffffffff1660e01b8152600401610e5991815260200190565b60a060405180830381865afa158015610e76573d6000803e3d6000fd5b505050506040513d601f19601f82011682018060405250810190610e9a9190616064565b9050610ea78186866128dc565b600160c95590969095509350505050565b6000610bb26101c3612bdd565b600080600260c95403610eea5760405162461bcd60e51b8152600401610a5d90615fed565b600260c95560975460ff1615610f125760405162461bcd60e51b8152600401610a5d90616024565b6000610f1f6101c3612be8565b61023554909150600090610f3b906001600160a01b03166128d1565b60405163463d31d760e11b8152600481018790529091506000906001600160a01b03831690638c7a63ae9060240160a060405180830381865afa158015610f86573d6000803e3d6000fd5b505050506040513d601f19601f82011682018060405250810190610faa9190616064565b60405163430c208160e01b81529091506001600160a01b0383169063430c208190610fdb9033908a906004016160ea565b602060405180830381865afa158015610ff8573d6000803e3d6000fd5b505050506040513d601f19601f8201168201806040525081019061101c9190616103565b801561102c575061102c3361240d565b8015611049575061103c83612bf7565b63ffffffff168160200151145b6110655760405162461bcd60e51b8152600401610a5d90615fd1565b6000806110868360200151846040015161107d61238a565b88929190612c10565b9150915060008360800151838560600151846110a2919061613b565b6110ac919061614e565b6110b6919061613b565b905080156110cc576110c9848a836128dc565b50505b5060006110ec8460200151856040015188612cfa9092919063ffffffff16565b905060008a1180156110fe5750898110155b61111a5760405162461bcd60e51b8152600401610a5d90616161565b5060008080611129888d612d1b565b93505092509250606461113a61238a565b61114590606461613b565b61114f908361617d565b61115991906161aa565b6040516331a9108f60e11b8152600481018d90529091506000906001600160a01b03891690636352211e90602401602060405180830381865afa1580156111a4573d6000803e3d6000fd5b505050506040513d601f19601f820116820180604052508101906111c891906161be565b9050876001600160a01b0316635be57b6a60405180604001604052808781526020016111f38d612e57565b815250836040518363ffffffff1660e01b81526004016112149291906161db565b6020604051808303816000875af1158015611233573d6000803e3d6000fd5b505050506040513d601f19601f820116820180604052508101906112579190616200565b60405163b819220560e01b8152600481018290526024810185905260448101849052909b506001600160a01b0389169063b819220590606401600060405180830381600087803b1580156112aa57600080fd5b505af11580156112be573d6000803e3d6000fd5b5050505060008488604001516112d4919061613b565b11156114da57876001600160a01b0316635be57b6a6040518060400160405280878b60400151611304919061613b565b81526020016113128d612bf7565b63ffffffff16815250836040518363ffffffff1660e01b81526004016113399291906161db565b6020604051808303816000875af1158015611358573d6000803e3d6000fd5b505050506040513d601f19601f8201168201806040525081019061137c9190616200565b9950848311156113e95760405162461bcd60e51b815260206004820152603260248201527f5072696e636970616c20776974686472617761626c65206973206c657373207460448201527168616e207072696e636970616c206d6f766560701b6064820152608401610a5d565b858211156114535760405162461bcd60e51b815260206004820152603160248201527f496e74657265737420776974686472617761626c65206973206c657373207468604482015270185b881a5b9d195c995cdd081b5bdd9959607a1b6064820152608401610a5d565b6001600160a01b03881663b81922058b61146d868961613b565b611477868b61613b565b6040516001600160e01b031960e086901b168152600481019390935260248301919091526044820152606401600060405180830381600087803b1580156114bd57600080fd5b505af11580156114d1573d6000803e3d6000fd5b505050506114df565b600099505b50866001600160a01b031663b81922058c868960400151611500919061613b565b6040516001600160e01b031960e085901b1681526004810192909252602482015260006044820152606401600060405180830381600087803b15801561154557600080fd5b505af1158015611559573d6000803e3d6000fd5b5050604051630852cd8d60e31b8152600481018e90526001600160a01b038a1692506342966c689150602401600060405180830381600087803b15801561159f57600080fd5b505af11580156115b3573d6000803e3d6000fd5b50505050888a8c7f5df84d720403cf4728bc2d21f8e1c46f0427db198f152e92a243a66172a2fbae8f6040516115eb91815260200190565b60405180910390a45050505050505050600160c9819055509250929050565b60006109df6101c383612ea1565b6102355460009081906116aa90611637906001600160a01b03166128d1565b6001600160a01b0316638c7a63ae856040518263ffffffff1660e01b815260040161166491815260200190565b60a060405180830381865afa158015611681573d6000803e3d6000fd5b505050506040513d601f19601f820116820180604052508101906116a59190616064565b612ead565b91509150915091565b60006109df6101c383613007565b6000610bb26101c3613013565b6000600260c954036116f25760405162461bcd60e51b8152600401610a5d90615fed565b600260c95560975460ff161561171a5760405162461bcd60e51b8152600401610a5d90616024565b61023554611730906001600160a01b031661301e565b60405163d505accf60e01b8152336004820152306024820152604481018890526064810187905260ff8616608482015260a4810185905260c481018490526001600160a01b03919091169063d505accf9060e401600060405180830381600087803b15801561179e57600080fd5b505af11580156117b2573d6000803e3d6000fd5b505050506117c08787613091565b600160c955979650505050505050565b600054610100900460ff16806117e9575060005460ff16155b6118055760405162461bcd60e51b8152600401610a5d90615f06565b600054610100900460ff16158015611827576000805461ffff19166101011790555b61182f612518565b8015611841576000805461ff00191690555b50565b600054610100900460ff168061185d575060005460ff16155b6118795760405162461bcd60e51b8152600401610a5d90615f06565b600054610100900460ff16158015610cb1576000805461ffff191661010117905560405162461bcd60e51b8152610a5d90600401615f6a565b6000610bb26101c3613273565b6000610bb26101c361327e565b6102355460009081906118e7906001600160a01b03166128d1565b6001600160a01b0316638c7a63ae846040518263ffffffff1660e01b815260040161191491815260200190565b60a060405180830381865afa158015611931573d6000803e3d6000fd5b505050506040513d601f19601f820116820180604052508101906119559190616064565b905061195f610cd6565b8160200151146119965760405162461bcd60e51b81526020600482015260026024820152614f5560f01b6044820152606401610a5d565b602081015160408201516119ad916101c391613289565b9392505050565b6119df6040518060800160405280600081526020016000815260200160008152602001600081525090565b60006119f56119ec610cd6565b6101c39061267f565b90506040518060800160405280826000015181526020018260200151815260200182604001518152602001826060015181525091505090565b6000610bb26101c3613296565b611a5360008051602061645483398151915233611a91565b611a6f5760405162461bcd60e51b8152600401610a5d90615fd1565b610dc46132a1565b6000610bb26101c36132f9565b6000610bb26101c3613304565b60009182526065602090815260408084206001600160a01b0393909316845291905290205460ff1690565b600260c95403611ade5760405162461bcd60e51b8152600401610a5d90615fed565b600260c95560975460ff1615611b065760405162461bcd60e51b8152600401610a5d90616024565b828114611b3a5760405162461bcd60e51b8152602060048201526002602482015261262760f11b6044820152606401610a5d565b60005b81811015611c375761023554600090611b5e906001600160a01b03166128d1565b6001600160a01b0316638c7a63ae878785818110611b7e57611b7e615f54565b905060200201356040518263ffffffff1660e01b8152600401611ba391815260200190565b60a060405180830381865afa158015611bc0573d6000803e3d6000fd5b505050506040513d601f19601f82011682018060405250810190611be49190616064565b9050611c2181878785818110611bfc57611bfc615f54565b90506020020135868686818110611c1557611c15615f54565b905060200201356128dc565b5050508080611c2f90616219565b915050611b3d565b5050600160c955505050565b6000610bb26101c361330f565b600260c95403611c725760405162461bcd60e51b8152600401610a5d90615fed565b600260c955611c8f60008051602061647483398151915233611a91565b611cab5760405162461bcd60e51b8152600401610a5d90615fd1565b60975460ff1615611cce5760405162461bcd60e51b8152600401610a5d90616024565b6102335460ff1615611d075760405162461bcd60e51b8152602060048201526002602482015261044560f41b6044820152606401610a5d565b60008111611d275760405162461bcd60e51b8152600401610a5d90616232565b6000611d346101c3612be8565b9050611d40818361331a565b6102375461023554611d74916001600160a01b03908116918591611d649116613491565b6001600160a01b0316919061349c565b610237546040518381526001600160a01b03909116907f7411b87a3c039bdfd8f3510b21e8bd0736265f53513735e1f4aa7b4f306b728d9060200160405180910390a25050600160c955565b6000610bb26101c36134f2565b611dd5611f6e565b611df15760405162461bcd60e51b8152600401610a5d90615f86565b610233805460ff1916600117905560405130907f90d9b09c68a7e1312ce22801552b47265d77db9496383d51374b4058545447d790600090a2565b600080600260c95403611e515760405162461bcd60e51b8152600401610a5d90615fed565b600260c95560975460ff1615611e795760405162461bcd60e51b8152600401610a5d90616024565b611e82836134ff565b600160c9559094909350915050565b600080600042841015611eb65760405162461bcd60e51b8152600401610a5d9061624e565b6000611ec06118bf565b11611ef25760405162461bcd60e51b81526020600482015260026024820152614c4960f01b6044820152606401610a5d565b611efb84612176565b611f04856116b3565b611f0d86610b97565b9250925092509193909250565b611f3260008051602061647483398151915233611a91565b611f4e5760405162461bcd60e51b8152600401610a5d90615fd1565b61023255565b6000610bb26101c36135e5565b6000610bb26101c36135f2565b6000610bb260008051602061643483398151915233611a91565b611fa060008051602061647483398151915233611a91565b611fbc5760405162461bcd60e51b8152600401610a5d90615fd1565b611fcf611fca6101c3612be8565b6135fd565b156120015760405162461bcd60e51b815260206004820152600260248201526120a360f11b6044820152606401610a5d565b610d096102348383615a16565b6000610bb26101c361360b565b612023611f6e565b61203f5760405162461bcd60e51b8152600401610a5d90615f86565b610233805460ff1916905560405130907f7184039938737267597232635b117c924371ac877d4329f2dfa5ca674c5cc4a590600090a2565b61207f615a5d565b600260c954036120a15760405162461bcd60e51b8152600401610a5d90615fed565b600260c95560975460ff16156120c95760405162461bcd60e51b8152600401610a5d90616024565b6120d282613618565b600160c95592915050565b606061023480548060200260200160405190810160405280929190818152602001828054801561212c57602002820191906000526020600020905b815481526020019060010190808311612118575b5050505050905090565b6000610bb26101c36137f5565b6000610bb26101c3613800565b60008281526065602052604090206001015461216c81336126ed565b610d0983836127d7565b60006109df6101c38361380b565b60006109df6101c383613817565b61023481815481106121a357600080fd5b600091825260209091200154905081565b6000610bb26101c3613823565b6000600260c954036121e55760405162461bcd60e51b8152600401610a5d90615fed565b600260c95560975460ff161561220d5760405162461bcd60e51b8152600401610a5d90616024565b6122178383613091565b600160c9559392505050565b600054610100900460ff168061223c575060005460ff16155b6122585760405162461bcd60e51b8152600401610a5d90615f06565b600054610100900460ff1615801561227a576000805461ffff19166101011790555b61023580546001600160a01b0319166001600160a01b038d169081179091556000906122a59061382e565b90506122b081610a28565b6122e561023560009054906101000a90046001600160a01b03168a8a8a8a8f6101c3613846909695949392919063ffffffff16565b61023780546001600160a01b0319166001600160a01b038d1617905542610236556123136102348585615a16565b5061232c6000805160206164748339815191528c6125fd565b612344600080516020616474833981519152826125fd565b61236a600080516020616474833981519152600080516020616434833981519152612607565b50801561237d576000805461ff00191690555b5050505050505050505050565b610235546000906123a3906001600160a01b031661385e565b610bb29060646161aa565b6123b6615a5d565b600260c954036123d85760405162461bcd60e51b8152600401610a5d90615fed565b600260c95560975460ff1615610cb15760405162461bcd60e51b8152600401610a5d90616024565b6000610bb26101c36138d1565b61023554600090612426906001600160a01b03166138de565b6001600160a01b0316631852f200836102346040518363ffffffff1660e01b815260040161245592919061626a565b602060405180830381865afa158015612472573d6000803e3d6000fd5b505050506040513d601f19601f820116820180604052508101906109df9190616103565b60006119ad83836138e9565b60006119ad83836138f8565b600054610100900460ff16806124c7575060005460ff16155b6124e35760405162461bcd60e51b8152600401610a5d90615f06565b600054610100900460ff1615801561182f576000805461ffff19166101011790558015611841576000805461ff001916905550565b600054610100900460ff1680612531575060005460ff16155b61254d5760405162461bcd60e51b8152600401610a5d90615f06565b600054610100900460ff1615801561256f576000805461ffff19166101011790555b6097805460ff191690558015611841576000805461ff001916905550565b600054610100900460ff16806125a6575060005460ff16155b6125c25760405162461bcd60e51b8152600401610a5d90615f06565b600054610100900460ff161580156125e4576000805461ffff19166101011790555b600160c9558015611841576000805461ff001916905550565b610b768282612751565b600082815260656020526040808220600101805490849055905190918391839186917fbd79b86ffe0ab8e8776151514217cd7cacd52c909f66475c3af44e129f0b00ff9190a4505050565b60006119ad8383613914565b60006109df8261393d565b60006109df82613949565b60006109df82613955565b6126aa6040518060800160405280600081526020016000815260200160008152602001600081525090565b6119ad8383613961565b60006109df82613a16565b60006119ad8383613a22565b60006109df82613a31565b60006126e182612bf7565b63ffffffff1692915050565b6126f78282611a91565b610b765761270f816001600160a01b03166014613a3d565b61271a836020613a3d565b60405160200161272b9291906162e9565b60408051601f198184030181529082905262461bcd60e51b8252610a5d91600401616358565b61275b8282611a91565b610b765760008281526065602090815260408083206001600160a01b03851684529091529020805460ff191660011790556127933390565b6001600160a01b0316816001600160a01b0316837f2f8788117e7eff1d82e926ec794901d17c78024a50270940304540a733656f0d60405160405180910390a45050565b6127e18282611a91565b15610b765760008281526065602090815260408083206001600160a01b0385168085529252808320805460ff1916905551339285917ff6391f5c32d9c69d2a47ea670b442974b53935d1edc7fd64eb21e047a839171b9190a45050565b60975460ff166128875760405162461bcd60e51b815260206004820152601460248201527314185d5cd8589b194e881b9bdd081c185d5cd95960621b6044820152606401610a5d565b6097805460ff191690557f5db9ee0a495bf2e6ff9c91a7834c1ba4fdd244a5e8aa4e537bd38aeae4b073aa335b6040516001600160a01b03909116815260200160405180910390a1565b60006109df82613bd8565b600080600083116128ff5760405162461bcd60e51b8152600401610a5d90616232565b61023554600090612918906001600160a01b03166128d1565b60405163430c208160e01b81529091506001600160a01b0382169063430c20819061294990339089906004016160ea565b602060405180830381865afa158015612966573d6000803e3d6000fd5b505050506040513d601f19601f8201168201806040525081019061298a9190616103565b801561299a575061299a3361240d565b6129b65760405162461bcd60e51b8152600401610a5d90615fd1565b60006129c36101c3612be8565b90506000806129d189612ead565b90925090506129e0818361614e565b8711156129ff5760405162461bcd60e51b8152600401610a5d90616161565b6000612a0b8389613bf0565b90506000612a19828a61613b565b90506000612a278285613bf0565b90506002612a3487613c06565b6002811115612a4557612a4561638b565b03612ab85760405163b819220560e01b8152600481018c905260248101829052604481018490526001600160a01b0388169063b8192205906064015b600060405180830381600087803b158015612a9b57600080fd5b505af1158015612aaf573d6000803e3d6000fd5b50505050612b65565b6000612ac387613c06565b6002811115612ad457612ad461638b565b03612b2c578215612ae757612ae76163a1565b60208c0151612af890879083613c73565b6040516366cbb03760e01b8152600481018c9052602481018290526001600160a01b038816906366cbb03790604401612a81565b6001612b3787613c06565b6002811115612b4857612b4861638b565b03612b655760405162461bcd60e51b8152600401610a5d906163b7565b612b8933612b73838661614e565b61023554611d64906001600160a01b0316613491565b6020808d0151604080518681529283018490528d9233917f92f2787b755dae547f1701582fe74c7abf277ec14db316dd01abc69cacf7a259910160405180910390a4919b919a509098505050505050505050565b60006109df82613cc5565b6000612bf382613cd4565b5090565b60006001612c06836009015490565b6109df919061613b565b6000806002612c1e87613c06565b6002811115612c2f57612c2f61638b565b14612c4c57612c4360098701868686613d8f565b91509150612cf1565b6000612c5787612bf7565b63ffffffff1686148015612c875750612c7287603c01613db5565b6005880154612c8590603c8a0190613dbd565b105b90506000612c9488612bf7565b63ffffffff1687108015612cb25750612caf88603c01613db5565b87105b905060008280612cbf5750815b905080612cda57612cd560098a01898989613d8f565b612ce9565b612ce960098a01898989613e65565b945094505050505b94509492505050565b6000612d1382612d0d6009870186613e7e565b90613eab565b949350505050565b6000806000806000612d2c87613c06565b90506002816002811115612d4257612d4261638b565b14612d5f5760405162461bcd60e51b8152600401610a5d906163b7565b6000612d6d88603c01613ed3565b90506000612d7d89603c01613edf565b90506000612d8a8a612e57565b9050612d958a612bf7565b63ffffffff168110612dce5760405162461bcd60e51b81526020600482015260026024820152614c4360f01b6044820152606401610a5d565b60048a0154612ddd908361613b565b612de783856163d3565b10612e195760405162461bcd60e51b815260206004820152600260248201526110d360f21b6044820152606401610a5d565b612e4189612e268c612bf7565b63ffffffff16838d600901613f27909392919063ffffffff16565b9750975097509750505050505b92959194509250565b6000808260040154612e6b84603c01613ed3565b612e75919061614e565b905060006001612e88603c860184613f6f565b612e92919061613b565b9050612d13603c850182613dbd565b60006119ad8383613fd6565b6000808260400151600003612ec757506000928392509050565b600080612eea85602001518660400151612edf61238a565b6101c392919061410d565b9092509050612efa81600161614e565b85606001511115612f6c5760405162461bcd60e51b815260206004820152603660248201527f5072696e636970616c20776974686472617761626c65206973206c65737320746044820152751a185b881c1c9a5b98da5c185b081c995919595b595960521b6064820152608401610a5d565b8185608001511115612fdd5760405162461bcd60e51b815260206004820152603460248201527f496e74657265737420776974686472617761626c65206973206c657373207468604482015273185b881a5b9d195c995cdd081c995919595b595960621b6064820152608401610a5d565b6080850151612fec908361613b565b6060860151612ffc90839061411c565b935093505050915091565b60006119ad838361413d565b60006109df8261419a565b60006001600160a01b03821663b93f9b0a60055b6040518263ffffffff1660e01b815260040161305091815260200190565b602060405180830381865afa15801561306d573d6000803e3d6000fd5b505050506040513d601f19601f820116820180604052508101906109df91906161be565b60008061309f6101c3612be8565b9050600083116130c15760405162461bcd60e51b8152600401610a5d90616232565b6130ca81612bf7565b63ffffffff1684146130ee5760405162461bcd60e51b8152600401610a5d9061624e565b6130f73361240d565b6131135760405162461bcd60e51b8152600401610a5d90615fd1565b6102325442101561314b5760405162461bcd60e51b8152602060048201526002602482015261272360f11b6044820152606401610a5d565b61315581846141a6565b6102355460009061316e906001600160a01b03166128d1565b6001600160a01b0316635be57b6a604051806040016040528087815260200188815250336040518363ffffffff1660e01b81526004016131af9291906161db565b6020604051808303816000875af11580156131ce573d6000803e3d6000fd5b505050506040513d601f19601f820116820180604052508101906131f29190616200565b6102355490915061322690339030908790613215906001600160a01b0316613491565b6001600160a01b0316929190614258565b8085336001600160a01b03167fcb3ef4109dcd006671348924f00aac8398190a5ff283d6e470d74581513e10368760405161326391815260200190565b60405180910390a4949350505050565b60006109df82614290565b60006109df8261429e565b6000612d13848484612cfa565b60006109df826142ac565b60975460ff16156132c45760405162461bcd60e51b8152600401610a5d90616024565b6097805460ff191660011790557f62e78cea01bee320cd4e420270b5ea74000d11b0c9f74754ebdbfc544b05a2586128b43390565b60006109df826142b8565b60006109df826142c6565b60006109df826142d2565b600061332583613c06565b9050600081600281111561333b5761333b61638b565b036134015761334d603c8401426142e0565b42600684015561335c83613c06565b60405190915030907f139a6829bb850b4fb0d6617ac9f9d32e48c2dbe13e158829fa64f326fafe8e1890600090a2600181600281111561339e5761339e61638b565b146134015760405162461bcd60e51b815260206004820152602d60248201527f53636166666f6c64696e67206661696c7572653a2053686f756c64206265204460448201526c1c985dd91bdddb94195c9a5bd9609a1b6064820152608401610a5d565b60018160028111156134155761341561638b565b146134325760405162461bcd60e51b8152600401610a5d906163b7565b61343b836135fd565b61344784600901614327565b613451908461614e565b11156134845760405162461bcd60e51b8152602060048201526002602482015261115160f21b6044820152606401610a5d565b610d09600984018361437f565b60006109df8261301e565b610d098363a9059cbb60e01b84846040516024016134bb9291906160ea565b60408051601f198184030181529190526020810180516001600160e01b03166001600160e01b0319909316929092179091526143ab565b60006109df826001015490565b60008061350d6101c3612be8565b5061023554600090613527906001600160a01b03166128d1565b6001600160a01b0316638c7a63ae856040518263ffffffff1660e01b815260040161355491815260200190565b60a060405180830381865afa158015613571573d6000803e3d6000fd5b505050506040513d601f19601f820116820180604052508101906135959190616064565b90506000806135a383612ead565b909250905060006135b4828461614e565b9050806000036135cd5750600096879650945050505050565b6135d88488836128dc565b9550955050505050915091565b60006109df826002015490565b60006109df8261447d565b60006109df8260090161448b565b60006109df826005015490565b613620615a5d565b600061362d6101c3612be8565b90506000831161364f5760405162461bcd60e51b8152600401610a5d90616232565b600061365a82613a16565b9050600061366783613955565b9050600061367f4261367986826144c9565b9061411c565b905060006136a68785856136928961393d565b60028a0154876136a18c61447d565b6144d8565b90506000816020015182600001516136be919061614e565b90506000826060015183604001516136d6919061614e565b905060006136e4828461614e565b905060006064846136f361238a565b6136fd919061617d565b61370791906161aa565b90506137148984866145c7565b6040805185815260208101859052600081830152606081018390529051309133917fd1055dc2c2a003a83dfacb1c38db776eab5ef89d77a8f05a3512e8cf57f953ce9181900360800190a36102355461377f90339030908590613215906001600160a01b0316613491565b610235546137b190613799906001600160a01b031661464f565b610235548390611d64906001600160a01b0316613491565b60405181815230907ff3583f178a8d4f8888c3683f8e948faf9b6eb701c4f1fab265a6ecad1a1ddebb9060200160405180910390a250929998505050505050505050565b60006109df82614667565b60006109df82614729565b60006119ad8383614735565b60006119ad838361476d565b60006109df826147ee565b60006001600160a01b03821663b93f9b0a6007613032565b613855878787878787876147fa565b50505050505050565b60006001600160a01b03821663fc56365860035b6040518263ffffffff1660e01b815260040161389091815260200190565b602060405180830381865afa1580156138ad573d6000803e3d6000fd5b505050506040513d601f19601f820116820180604052508101906109df9190616200565b60006109df826003015490565b60006109df82614953565b60006119ad603c84018361496b565b60006119ad61390a603c850184613dbd565b60098501906149d2565b60006119ad613933613929603c860185613dbd565b6009860190614a26565b61367985856138f8565b60006109df8242613914565b60006109df8242613fd6565b60006109df824261413d565b61398c6040518060800160405280600081526020016000815260200160008152602001600081525090565b600061399b6009850184613e7e565b90506139a8816003015490565b6060830152805482526139ba84614a62565b80156139d057506139cd84603c01613db5565b83105b156139fa57600281015460018201546139e9919061614e565b602083015260006040830152613a0f565b60018101546020830152600281015460408301525b5092915050565b60006109df8242614735565b60006119ad603c840183614a70565b60006109df8242614b06565b60606000613a4c83600261617d565b613a5790600261614e565b6001600160401b03811115613a6e57613a6e61604e565b6040519080825280601f01601f191660200182016040528015613a98576020820181803683370190505b509050600360fc1b81600081518110613ab357613ab3615f54565b60200101906001600160f81b031916908160001a905350600f60fb1b81600181518110613ae257613ae2615f54565b60200101906001600160f81b031916908160001a9053506000613b0684600261617d565b613b1190600161614e565b90505b6001811115613b89576f181899199a1a9b1b9c1cb0b131b232b360811b85600f1660108110613b4557613b45615f54565b1a60f81b828281518110613b5b57613b5b615f54565b60200101906001600160f81b031916908160001a90535060049490941c93613b82816163e7565b9050613b14565b5083156119ad5760405162461bcd60e51b815260206004820181905260248201527f537472696e67733a20686578206c656e67746820696e73756666696369656e746044820152606401610a5d565b60006001600160a01b03821663b93f9b0a600c613032565b6000818310613bff57816119ad565b5090919050565b6000613c1482603c01614bdd565b8015613c4557508154613c2f906001600160a01b0316614bf3565b613c3883614290565b613c42919061614e565b42115b15613c5257506002919050565b613c5e82603c01614bdd565b15613c6b57506001919050565b506000919050565b6000613c7e84613c06565b90506000816002811115613c9457613c9461638b565b14613cb15760405162461bcd60e51b8152600401610a5d906163b7565b613cbf600985018484614c0b565b50505050565b60006109df603c830142614c40565b6000613cdf82613c06565b90506000816002811115613cf557613cf561638b565b03613cfe575050565b6000613d0c83603c01613ed3565b90506000613d2a846005015485603c01614cd290919063ffffffff16565b905080821115613d4c57613d4c613d4260018461613b565b6009860190614d39565b613d5584614667565b60068501556000613d6585613949565b90506000613d72866142c6565b600887019290925550600785015550504260059092019190915550565b600080613da88484613da18989613e7e565b9190614ddc565b9150915094509492505050565b60006109df82425b600082613dc981614bdd565b613de55760405162461bcd60e51b8152600401610a5d90615fd1565b83546040516356bd011960e01b81526001600160a01b038216916356bd011991613e2491600160a01b90046001600160401b03169087906004016163fe565b602060405180830381865afa158015613e41573d6000803e3d6000fd5b505050506040513d601f19601f82011682018060405250810190612d139190616200565b600080613da88484613e778989613e7e565b9190614e00565b6000826000018281548110613e9557613e95615f54565b9060005260206000209060360201905092915050565b6000613eb5835490565b82613ebf85614e18565b613ec9919061617d565b6119ad91906161aa565b60006109df8242614cd2565b805460408051620f755f60ec1b815290516000926001600160a01b03169163f755f0009160048083019260209291908290030181865afa1580156138ad573d6000803e3d6000fd5b6000808080613f4087613f3a8a89613e7e565b90614e2b565b92965090945092509050613f6484848484613f5b8d8b613e7e565b93929190614f85565b945094509450949050565b600082613f7b81614bdd565b613f975760405162461bcd60e51b8152600401610a5d90615fd1565b8354604051638dfdc69560e01b81526001600160a01b03821691638dfdc69591613e2491600160a01b90046001600160401b03169087906004016163fe565b60008260050154821015613ffc5760405162461bcd60e51b8152600401610a5d9061624e565b61400883603c01614bdd565b614014575060006109df565b506008820154816140248461429e565b84600501541161405a57600061404a856005015486603c01614ff690919063ffffffff16565b90506140568185613bf0565b9150505b600584015484546000916140ab91620151809061407f906001600160a01b031661505d565b614089919061617d565b600688015461409c90603c8a0190614a70565b6140a6919061614e565b615075565b90506140d2856005015483836140c389600901615085565b89600201548a600301546150dd565b6140dc908461614e565b925083821015614105576140f88285836140c389600901614327565b614102908461614e565b92505b505092915050565b600080613da886868686612c10565b60008282116141345761412f828461613b565b6119ad565b50600092915050565b6000428210156141745760405162461bcd60e51b8152602060048201526002602482015261141560f21b6044820152606401610a5d565b6119ad6141906141868560090161514e565b6140a6868661476d565b6136798585613fd6565b60006109df82426138f8565b60006141b183613c06565b905060008160028111156141c7576141c761638b565b146141e45760405162461bcd60e51b8152600401610a5d906163b7565b60018301546141f58460090161448b565b6141ff908461614e565b11156142325760405162461bcd60e51b8152602060048201526002602482015261115360f21b6044820152606401610a5d565b610d0961423e84612bf7565b63ffffffff16838560090161518f9092919063ffffffff16565b6040516001600160a01b0380851660248301528316604482015260648101829052613cbf9085906323b872dd60e01b906084016134bb565b60006109df82603c016151c4565b60006109df82603c01615218565b60006109df824261526c565b60006109df8260090161514e565b60006109df824261476d565b60006109df82600901615085565b8154600160a01b90046001600160401b0316156142ff576142ff6163a1565b81546001600160401b03909116600160a01b0267ffffffffffffffff60a01b19909116179055565b60008060005b8354811015613a0f5761436184600001828154811061434e5761434e615f54565b9060005260206000209060360201615316565b61436b908361614e565b91508061437781616219565b91505061432d565b600061439f600161438e855490565b614398919061613b565b8490613e7e565b9050610d09818361532f565b6000614400826040518060400160405280602081526020017f5361666545524332303a206c6f772d6c6576656c2063616c6c206661696c6564815250856001600160a01b03166153859092919063ffffffff16565b805190915015610d09578080602001905181019061441e9190616103565b610d095760405162461bcd60e51b815260206004820152602a60248201527f5361666545524332303a204552433230206f7065726174696f6e20646964206e6044820152691bdd081cdd58d8d9595960b21b6064820152608401610a5d565b60006109df82600901614327565b60008060005b8354811015613a0f576144ab6144a78583613e7e565b5490565b6144b5908361614e565b9150806144c181616219565b915050614491565b60006119ad603c840183614ff6565b6144e0615a5d565b8760006144ed8983613bf0565b90506144f9818361613b565b915060006145078884613bf0565b9050614513818461613b565b925060006145218a85613bf0565b905061452d818561613b565b9350600061453b838861613b565b9050600061454a89838c615394565b905060006145588288613bf0565b9050614564818861613b565b965060006145728885613bf0565b905061457e818961613b565b97506040518060a00160405280888152602001838761459d919061614e565b81526020018781526020018281526020018981525098505050505050505050979650505050505050565b60006145d284613c06565b905060028160028111156145e8576145e861638b565b146146055760405162461bcd60e51b8152600401610a5d906163b7565b614622838361461687603c01613db5565b600988019291906153e2565b61462b8461393d565b15801561463e575061463c84613a16565b155b15613cbf5742600685015550505050565b60006001600160a01b03821663b93f9b0a6006613032565b6006810154600261467783613c06565b60028111156146885761468861638b565b14614694575042919050565b60006146b0836005015484603c01614cd290919063ffffffff16565b905060006146c084603c01613ed3565b9050815b818110156147215760006146db603c870183613f6f565b90506146e78682613914565b1580156146fb57506146f98682614735565b155b156147085780945061470e565b50614721565b508061471981616219565b9150506146c4565b505050919050565b60006109df8242613a22565b6000826005015482101561475b5760405162461bcd60e51b8152600401610a5d9061624e565b6119ad614767846142b8565b61367985855b600082600501548210156147935760405162461bcd60e51b8152600401610a5d9061624e565b61479c8361429e565b8211156147b4576147ad8383613fd6565b90506109df565b60006147c3603c850184615509565b9050836005015481116147dc57505060078201546109df565b6147e68482613fd6565b9150506109df565b60006109df82426144c9565b6005870154156148315760405162461bcd60e51b81526020600482015260026024820152614e4960f01b6044820152606401610a5d565b86546001600160a01b0319166001600160a01b038781169190911788556001880182905560048089018690556040805180820182529286168084526000602094850152603c8b0180546001600160e01b03191682179055815163e08cf88360e01b815291516148f094919363e08cf88393808201939291908290030181865afa1580156148c2573d6000803e3d6000fd5b505050506040513d601f19601f820116820180604052508101906148e69190616200565b6009890190615570565b50600287810186905560038801839055426005890181905560068901556000600889018190556007890155600988015410156138555760405162461bcd60e51b8152602060048201526002602482015261135560f21b6044820152606401610a5d565b60006001600160a01b03821663b93f9b0a6013613032565b60008261497781614bdd565b6149935760405162461bcd60e51b8152600401610a5d90615fd1565b83546040516347487c0160e01b81526001600160a01b038216916347487c0191613e2491600160a01b90046001600160401b03169087906004016163fe565b6000805b82811015613a0f57614a088460000182815481106149f6576149f6615f54565b90600052602060002090603602015490565b614a12908361614e565b915080614a1e81616219565b9150506149d6565b6000805b82811015613a0f57614a44614a3f8583613e7e565b6155f5565b614a4e908361614e565b915080614a5a81616219565b915050614a2a565b60006109df82603c01614bdd565b6000614a7b83614bdd565b614a865760006119ad565b82546040516308ba6bcb60e41b81526001600160a01b03821691638ba6bcb091614ac591600160a01b90046001600160401b03169086906004016163fe565b602060405180830381865afa158015614ae2573d6000803e3d6000fd5b505050506040513d601f19601f820116820180604052508101906119ad9190616200565b600080614b158460090161560b565b9050614b2084614a62565b614b2b5790506109df565b6000614b3a603c860185613dbd565b90506000614b58866005015487603c01613dbd90919063ffffffff16565b90506000614b69600988018461564c565b90508183118015614b885750614b7e87612bf7565b63ffffffff168311155b15614bc857614bbb614bb4614b9c89612bf7565b63ffffffff1689600901613e7e90919063ffffffff16565b6002015490565b614bc5908261614e565b90505b614bd2818561614e565b979650505050505050565b54600160a01b90046001600160401b0316151590565b60006001600160a01b03821663fc5636586007613872565b610d0981846000018481548110614c2457614c24615f54565b90600052602060002090603602016156a390919063ffffffff16565b6000614c4b83614bdd565b15806119ad57508254604051634922ed6b60e11b81526001600160a01b03821691639245dad691614c9191600160a01b90046001600160401b03169086906004016163fe565b602060405180830381865afa158015614cae573d6000803e3d6000fd5b505050506040513d601f19601f820116820180604052508101906119ad9190616103565b600082614cde81614bdd565b614cfa5760405162461bcd60e51b8152600401610a5d90615fd1565b8354604051636a3d374160e11b81526001600160a01b0382169163d47a6e8291613e2491600160a01b90046001600160401b03169087906004016163fe565b60006001614d45845490565b614d4f919061613b565b90506000836000018281548110614d6857614d68615f54565b90600052602060002090603602019050614d81816156e4565b60005b838111158015614d9357508281105b15614dd557614dc3856000018281548110614db057614db0615f54565b90600052602060002090603602016156e4565b80614dcd81616219565b915050614d84565b5050505050565b600080614dea85858561570b565b614df48686615753565b91509150935093915050565b600080614e0e85858561570b565b614df48686615769565b600181015481546000916109df9161613b565b60008060008085600101548660000154614e45919061613b565b851115614e7f5760405162461bcd60e51b81526020600482015260086024820152670a89e9ebe9aaa86960c31b6044820152606401610a5d565b614e8d866002015486613bf0565b60018701548754919350614ea09161613b565b858760010154614eb0919061617d565b614eba91906161aa565b9250614ec6838661614e565b93508560000154848760030154614edd919061617d565b614ee791906161aa565b905082866001016000828254614efd919061613b565b9250508190555080866003016000828254614f18919061613b565b9091555050855484908790600090614f3190849061613b565b9250508190555081866002016000828254614f4c919061613b565b909155505060028601546001870154614f65919061614e565b86541015612e4e5760405162461bcd60e51b8152600401610a5d9061624e565b83856000016000828254614f99919061614e565b9250508190555082856001016000828254614fb4919061614e565b9250508190555081856002016000828254614fcf919061614e565b9250508190555080856003016000828254614fea919061614e565b90915550505050505050565b60008261500281614bdd565b61501e5760405162461bcd60e51b8152600401610a5d90615fd1565b8354604051635c16b67360e11b81526001600160a01b0382169163b82d6ce691613e2491600160a01b90046001600160401b03169087906004016163fe565b60006001600160a01b03821663fc5636586005613872565b600081831015613bff57816119ad565b60008060005b8354811015613a0f576150bf8460000182815481106150ac576150ac615f54565b9060005260206000209060360201614e18565b6150c9908361614e565b9150806150d581616219565b91505061508b565b60008686116150ee57506000615144565b60006150fa888861613b565b9050615107818686615394565b915086861015615142576000615127615120888b615075565b899061411c565b9050615134818786615394565b61513e908461614e565b9250505b505b9695505050505050565b60008060005b8354811015613a0f5761517161516a8583613e7e565b6003015490565b61517b908361614e565b91508061518781616219565b915050615154565b610d09818460000184815481106151a8576151a8615f54565b906000526020600020906036020161578e90919063ffffffff16565b60006151cf82614bdd565b6151da5760006109df565b815460405163df3dc09160e01b8152600160a01b82046001600160401b031660048201526001600160a01b039091169063df3dc09190602401613890565b600061522382614bdd565b61522e5760006109df565b81546040516334a88f4360e01b8152600160a01b82046001600160401b031660048201526001600160a01b03909116906334a88f4390602401613890565b6000600261527984613c06565b600281111561528a5761528a61638b565b14615297575060006109df565b825460009062015180906152b3906001600160a01b031661505d565b6152bd919061617d565b905060006152d76152cd86614667565b603c870190614a70565b905060006152e586866138f8565b11806152fa575060006152f8868661476d565b115b8015614102575061530b828261614e565b909311949350505050565b60028101546001820154825460009291612c069161613b565b81600101548111156153685760405162461bcd60e51b8152602060048201526002602482015261045560f41b6044820152606401610a5d565b8082600101600082825461537c919061613b565b90915550505050565b6060612d1384846000856157cf565b600080670de0b6b3a76400006153aa848661617d565b6153b491906161aa565b90506153c56201518061016d61617d565b6153cf868361617d565b6153d991906161aa565b95945050505050565b60006153ed85615085565b9050600081116154245760405162461bcd60e51b8152602060048201526002602482015261272160f11b6044820152606401610a5d565b60005b85548110156154d557600086600001828154811061544757615447615f54565b9060005260206000209060360201905060008361546383614e18565b61546d908861617d565b61547791906161aa565b9050600061548e8861548885615316565b90613bf0565b905061549a818961613b565b9750858410156154b4576154af8382846158ec565b6154bf565b6154bf838284615954565b50505080806154cd90616219565b915050615427565b508315614dd55760405162461bcd60e51b815260206004820152600260248201526104f560f41b6044820152606401610a5d565b60008261551581614bdd565b6155315760405162461bcd60e51b8152600401610a5d90615fd1565b8354604051630103299960e31b81526001600160a01b038216916308194cc891613e2491600160a01b90046001600160401b03169087906004016163fe565b6000805b828110156155ed57615584615a8c565b8454600181810187556000878152602090819020845160369094020192835583015190820155604082015160028201556060820151600382015560808201518291906155d69060048301906032615ac0565b5050505080806155e590616219565b915050615574565b509192915050565b6000816002015482600101546109df919061614e565b60008060005b8354811015613a0f5761562e6156278583613e7e565b6001015490565b615638908361614e565b91508061564481616219565b915050615611565b6000805b82811015613a0f5761568584600001828154811061567057615670615f54565b90600052602060002090603602016002015490565b61568f908361614e565b91508061569b81616219565b915050615650565b6003820154156156b5576156b56163a1565b808260000160008282546156c9919061613b565b925050819055508082600101600082825461537c919061613b565b80600201548160010160008282546156fc919061614e565b90915550506000600290910155565b6000615715845490565b61572090606461617d565b615729836159b2565b84615735876003015490565b61573f919061617d565b615749919061617d565b612d1391906161aa565b600061575d835490565b82613ebf856001015490565b6000615773835490565b828460020154615784866001015490565b613ebf919061614e565b6003820154156157a0576157a06163a1565b808260000160008282546157b4919061614e565b925050819055508082600101600082825461537c919061614e565b6060824710156158305760405162461bcd60e51b815260206004820152602660248201527f416464726573733a20696e73756666696369656e742062616c616e636520666f6044820152651c8818d85b1b60d21b6064820152608401610a5d565b843b61587e5760405162461bcd60e51b815260206004820152601d60248201527f416464726573733a2063616c6c20746f206e6f6e2d636f6e74726163740000006044820152606401610a5d565b600080866001600160a01b0316858760405161589a9190616417565b60006040518083038185875af1925050503d80600081146158d7576040519150601f19603f3d011682016040523d82523d6000602084013e6158dc565b606091505b5091509150614bd28282866159bf565b82548284600201548560010154615903919061614e565b61590d919061614e565b111561591b5761591b6163a1565b8083600301600082825461592f919061614e565b925050819055508183600101600082825461594a919061614e565b9091555050505050565b8254828460020154856001015461596b919061614e565b615975919061614e565b1115615983576159836163a1565b80836003016000828254615997919061614e565b925050819055508183600201600082825461594a919061614e565b60006109df82606461613b565b606083156159ce5750816119ad565b8251156159de5782518084602001fd5b8160405162461bcd60e51b8152600401610a5d9190616358565b60405180606001604052806003906020820280368337509192915050565b828054828255906000526020600020908101928215615a51579160200282015b82811115615a51578235825591602001919060010190615a36565b50612bf3929150615aee565b6040518060a0016040528060008152602001600081526020016000815260200160008152602001600081525090565b6040518060a0016040528060008152602001600081526020016000815260200160008152602001615abb615b03565b905290565b8260328101928215615a51579160200282015b82811115615a51578251825591602001919060010190615ad3565b5b80821115612bf35760008155600101615aef565b6040518061064001604052806032906020820280368337509192915050565b600060208284031215615b3457600080fd5b5035919050565b600060208284031215615b4d57600080fd5b81356001600160e01b0319811681146119ad57600080fd5b6001600160a01b038116811461184157600080fd5b600060208284031215615b8c57600080fd5b81356119ad81615b65565b60608101818360005b6003811015615bc257815160ff16835260209283019290910190600101615ba0565b50505092915050565b81518152602080830151908201526040808301519082015260608083015190820152608081016109df565b60008060408385031215615c0957600080fd5b823591506020830135615c1b81615b65565b809150509250929050565b60008060408385031215615c3957600080fd5b50508035926020909101359150565b60008060008060008060c08789031215615c6157600080fd5b863595506020870135945060408701359350606087013560ff81168114615c8757600080fd5b9598949750929560808101359460a0909101359350915050565b600080600080600080600060e0888a031215615cbc57600080fd5b8735615cc781615b65565b96506020880135615cd781615b65565b95506040880135615ce781615b65565b9450606088013593506080880135925060a0880135615d0581615b65565b8092505060c0880135905092959891949750929550565b60008083601f840112615d2e57600080fd5b5081356001600160401b03811115615d4557600080fd5b6020830191508360208260051b8501011115615d6057600080fd5b9250929050565b60008060008060408587031215615d7d57600080fd5b84356001600160401b0380821115615d9457600080fd5b615da088838901615d1c565b90965094506020870135915080821115615db957600080fd5b50615dc687828801615d1c565b95989497509550505050565b60008060208385031215615de557600080fd5b82356001600160401b03811115615dfb57600080fd5b615e0785828601615d1c565b90969095509350505050565b6020808252825182820181905260009190848201906040850190845b81811015615e4b57835183529284019291840191600101615e2f565b50909695505050505050565b6000806000806000806000806000806101208b8d031215615e7757600080fd5b8a35615e8281615b65565b995060208b0135615e9281615b65565b985060408b0135975060608b0135965060808b0135955060a08b0135615eb781615b65565b945060c08b0135935060e08b013592506101008b01356001600160401b03811115615ee157600080fd5b615eed8d828e01615d1c565b915080935050809150509295989b9194979a5092959850565b6020808252602e908201527f496e697469616c697a61626c653a20636f6e747261637420697320616c72656160408201526d191e481a5b9a5d1a585b1a5e995960921b606082015260800190565b634e487b7160e01b600052603260045260246000fd5b602080825260029082015261555360f01b604082015260600190565b6020808252602b908201527f4d75737420686176652061646d696e20726f6c6520746f20706572666f726d2060408201526a3a3434b99030b1ba34b7b760a91b606082015260800190565b6020808252600290820152614e4160f01b604082015260600190565b6020808252601f908201527f5265656e7472616e637947756172643a207265656e7472616e742063616c6c00604082015260600190565b60208082526010908201526f14185d5cd8589b194e881c185d5cd95960821b604082015260600190565b634e487b7160e01b600052604160045260246000fd5b600060a0828403121561607657600080fd5b60405160a081018181106001600160401b03821117156160a657634e487b7160e01b600052604160045260246000fd5b60405282516160b481615b65565b80825250602083015160208201526040830151604082015260608301516060820152608083015160808201528091505092915050565b6001600160a01b03929092168252602082015260400190565b60006020828403121561611557600080fd5b815180151581146119ad57600080fd5b634e487b7160e01b600052601160045260246000fd5b818103818111156109df576109df616125565b808201808211156109df576109df616125565b602080825260029082015261494160f01b604082015260600190565b80820281158282048414176109df576109df616125565b634e487b7160e01b600052601260045260246000fd5b6000826161b9576161b9616194565b500490565b6000602082840312156161d057600080fd5b81516119ad81615b65565b82518152602092830151928101929092526001600160a01b0316604082015260600190565b60006020828403121561621257600080fd5b5051919050565b60006001820161622b5761622b616125565b5060010190565b6020808252600290820152615a4160f01b604082015260600190565b602080825260029082015261125560f21b604082015260600190565b6001600160a01b0383168152604060208083018290528354918301829052600084815281812090929091906060850190845b818110156162b85784548352600194850194928401920161629c565b5090979650505050505050565b60005b838110156162e05781810151838201526020016162c8565b50506000910152565b76020b1b1b2b9b9a1b7b73a3937b61d1030b1b1b7bab73a1604d1b81526000835161631b8160178501602088016162c5565b7001034b99036b4b9b9b4b733903937b6329607d1b601791840191820152835161634c8160288401602088016162c5565b01602801949350505050565b60208152600082518060208401526163778160408501602087016162c5565b601f01601f19169190910160400192915050565b634e487b7160e01b600052602160045260246000fd5b634e487b7160e01b600052600160045260246000fd5b602080825260029082015261495360f01b604082015260600190565b6000826163e2576163e2616194565b500690565b6000816163f6576163f6616125565b506000190190565b6001600160401b03929092168252602082015260400190565b600082516164298184602087016162c5565b919091019291505056feb19546dff01e856fb3f010c267a7b1c60363cf8a4664e21cc89c26224620214e65d7a28e3265b37a6474929f336521b332c1681b933f6cb9f3376673440d862aaf9a8bb3cbd6b84fbccefa71ff73e26e798553c6914585a84886212a46a90279a264697066735822122022d66f48ca7f0518ce6122eb201b443dfc2691bd6403950b4b9db6e12687e90e64736f6c63430008110033",
  "devdoc": {
    "author": "Warbler Labs",
    "kind": "dev",
    "methods": {
      "availableToCall(uint256)": {
        "details": "OU: Only the uncalled tranche can call"
      },
      "availableToWithdraw(uint256)": {
        "params": {
          "tokenId": "position to query max amount withdrawable for"
        },
        "returns": {
          "_0": "total interest withdrawable on the position",
          "_1": "total principal redeemable on the position"
        }
      },
      "deposit(uint256,uint256)": {
        "params": {
          "amount": "amount of capital to supply",
          "tranche": "*UNSUPPORTED* - Should always be uncalled capital tranche index."
        },
        "returns": {
          "_0": "tokenId NFT representing your position in this pool"
        }
      },
      "depositWithPermit(uint256,uint256,uint256,uint8,bytes32,bytes32)": {
        "params": {
          "amount": "amount of capital to supply",
          "deadline": "deadline of permit operation",
          "r": "r portion of signature",
          "s": "s portion of signature",
          "tranche": "*UNSUPPORTED* -",
          "v": "v portion of signature"
        },
        "returns": {
          "tokenId": "NFT representing your position in this pool"
        }
      },
      "drawdown(uint256)": {
        "details": "DP: drawdowns pausedZA: Zero amount - must be greater than 0",
        "params": {
          "amount": "USDC to drawdown. This amount is transferred to the caller"
        }
      },
      "getAmountsOwed(uint256)": {
        "details": "IT: invalid timestampLI: loan inactive",
        "params": {
          "timestamp": "time to calculate up to"
        },
        "returns": {
          "returnedInterestAccrued": "amount of accrued interest (not yet owed) that can be paid at `timestamp`",
          "returnedInterestOwed": "amount of obligated interest owed at `timestamp`",
          "returnedPrincipalOwed": "amount of principal owed at `timestamp`"
        }
      },
      "getRoleAdmin(bytes32)": {
        "details": "Returns the admin role that controls `role`. See {grantRole} and {revokeRole}. To change a role's admin, use {_setRoleAdmin}."
      },
      "grantRole(bytes32,address)": {
        "details": "Grants `role` to `account`. If `account` had not been already granted `role`, emits a {RoleGranted} event. Requirements: - the caller must have ``role``'s admin role."
      },
      "hasRole(bytes32,address)": {
        "details": "Returns `true` if `account` has been granted `role`."
      },
      "initialize(address,address,uint256,uint256,uint256,address,uint256,uint256,uint256[])": {
        "params": {
          "_borrower": "address of borrower, a non-transferrable role for performing privileged actions like   drawdown",
          "_config": "address of GoldfinchConfig",
          "_fundableAt": "earliest time at which the first slice can be funded",
          "_interestApr": "interest rate for the loan",
          "_lateFeeApr": "late fee interest rate for the loan, which kicks in `LatenessGracePeriodInDays` days after a   payment becomes late",
          "_limit": "the number of periods at the tail end of a principal period during which call requests rollover   to the next principal period."
        }
      },
      "pause()": {
        "details": "Pauses all functions guarded by Pause See {Pausable-_pause}. Requirements: - the caller must have the PAUSER_ROLE."
      },
      "paused()": {
        "details": "Returns true if the contract is paused, and false otherwise."
      },
      "pay(uint256)": {
        "details": "ZA: zero amount",
        "params": {
          "amount": "USDC amount to pay"
        },
        "returns": {
          "_0": "PaymentAllocation info on how the payment was allocated"
        }
      },
      "renounceRole(bytes32,address)": {
        "details": "Revokes `role` from the calling account. Roles are often managed via {grantRole} and {revokeRole}: this function's purpose is to provide a mechanism for accounts to lose their privileges if they are compromised (such as when a trusted device is misplaced). If the calling account had been granted `role`, emits a {RoleRevoked} event. Requirements: - the caller must be `account`."
      },
      "revokeRole(bytes32,address)": {
        "details": "Revokes `role` from `account`. If `account` had been granted `role`, emits a {RoleRevoked} event. Requirements: - the caller must have ``role``'s admin role."
      },
      "submitCall(uint256,uint256)": {
        "details": "IA: Invalid amount - Call amount must be non-zero amount < than principal remaining.IT: invalid tranche - must be uncalled capital trancheNA: not authorized. Must have correct UID or be go listed",
        "params": {
          "callAmount": "Amount of capital to call back",
          "poolTokenId": "Pool token id to be called back."
        },
        "returns": {
          "callRequestedTokenId": " Token id of the call requested token.",
          "remainingTokenId": "Token id of the remaining token."
        }
      },
      "supportsInterface(bytes4)": {
        "details": "See {IERC165-supportsInterface}."
      },
      "unpause()": {
        "details": "Unpauses the contract See {Pausable-_unpause}. Requirements: - the caller must have the Pauser role"
      },
      "withdraw(uint256,uint256)": {
        "params": {
          "amount": "amount to withdraw (must be <= interest+principal available to withdraw)",
          "tokenId": "the NFT representing the position"
        },
        "returns": {
          "_0": "interest withdrawn",
          "_1": "principal withdrawn"
        }
      },
      "withdrawMultiple(uint256[],uint256[])": {
        "details": "LEN: argument length mismatch",
        "params": {
          "amounts": "amounts to withdraw from positions such that amounts[i] is withdrawn from position tokenIds[i]",
          "tokenIds": "NFT positions to withdraw. Caller must be an owner or approved on all tokens in the array"
        }
      }
    },
    "title": "CallableLoan",
    "version": 1
  },
  "userdoc": {
    "events": {
      "PaymentApplied(address,address,uint256,uint256,uint256,uint256)": {
        "notice": "Event emitted on payment"
      }
    },
    "kind": "user",
    "methods": {
      "availableToWithdraw(uint256)": {
        "notice": "Query the max amount available to withdraw for tokenId's position"
      },
      "createdAt()": {
        "notice": "Time when the pool was initialized. Zero if uninitialized"
      },
      "creditLine()": {
        "notice": "Pool's credit line, responsible for managing the loan's accounting variables"
      },
      "deposit(uint256,uint256)": {
        "notice": "Supply capital to the loan."
      },
      "depositWithPermit(uint256,uint256,uint256,uint8,bytes32,bytes32)": {
        "notice": "Supply capital to the loan."
      },
      "drawdown(uint256)": {
        "notice": "Drawdown the loan. The credit line's balance should increase by the amount drawn down.   Junior capital must be locked before this function can be called. If senior capital isn't locked   then this function will lock it for you (convenience to avoid calling lockPool() separately).   This function should revert if the amount requested exceeds the the current slice's currentLimit   This function should revert if the caller is not the borrower."
      },
      "getAmountsOwed(uint256)": {
        "notice": "Compute interest and principal owed on the current balance at a future timestamp"
      },
      "getVersion()": {
        "notice": "Returns the version triplet `[major, minor, patch]`"
      },
      "initialize(address,address,address,uint256,uint256,address,uint256)": {
        "notice": "Unsupported - only included for compatibility with ICreditLine."
      },
      "initialize(address,address,uint256,uint256,uint256,address,uint256,uint256,uint256[])": {
        "notice": "Initialize the pool. Can only be called once, and should be called in the same transaction as   contract creation to avoid initialization front-running"
      },
      "interestAccrued()": {
        "notice": "Interest accrued in the current payment period up to now. Converted to   owed interest once we cross into the next payment period. Is 0 if the   current time is after loan maturity (all interest accrued immediately becomes   interest owed)."
      },
      "interestAccruedAsOf()": {
        "notice": "We keep this to conform to the ICreditLine interface, but it's redundant information   now that we have `checkpointedAsOf`"
      },
      "interestAccruedAt(uint256)": {
        "notice": "Interest accrued in the current payment period for `timestamp`. Coverted to   owed interest once we cross into the payment period after `timestamp`. Is 0   if `timestamp` is after loan maturity (all interest accrued immediately becomes   interest owed)."
      },
      "interestOwedAt(uint256)": {
        "notice": "Interest that would be owed at `timestamp`"
      },
      "maxLimit()": {
        "notice": "Unsupported in callable loans."
      },
      "pauseDrawdowns()": {
        "notice": "Pauses all drawdowns (but not deposits/withdraws)"
      },
      "pay(uint256)": {
        "notice": "Pay down interest + principal. Excess payments are refunded to the caller"
      },
      "pay(uint256,uint256)": {
        "notice": "Unsupported in callable loans."
      },
      "principalOwedAt(uint256)": {
        "notice": "Principal owed up to `timestamp`"
      },
      "setAllowedUIDTypes(uint256[])": {
        "notice": "Set accepted UID types for the loan. Requires that users have not already begun to deposit."
      },
      "setFundableAt(uint256)": {
        "notice": "Update `fundableAt` to a new timestamp. Only the borrower can call this."
      },
      "setLimit(uint256)": {
        "notice": "Unsupported ICreditLine method kept for ICreditLine conformance"
      },
      "setMaxLimit(uint256)": {
        "notice": "Unsupported in callable loans."
      },
      "submitCall(uint256,uint256)": {
        "notice": "Supply capital to the loan."
      },
      "termStartTime()": {
        "notice": "Time of first drawdown"
      },
      "totalInterestAccrued()": {
        "notice": "Cumulative interest accrued up to now"
      },
      "totalInterestAccruedAt(uint256)": {
        "notice": "Cumulative interest accrued up to `timestamp`"
      },
      "totalInterestOwed()": {
        "notice": "Cumulative interest owed up to now"
      },
      "totalInterestOwedAt(uint256)": {
        "notice": "Cumulative interest owed up to `timestamp`"
      },
      "totalInterestPaid()": {
        "notice": "Cumulative interest paid back up to now"
      },
      "totalPrincipalOwed()": {
        "notice": "Cumulative principal owed at current timestamp"
      },
      "totalPrincipalOwedAt(uint256)": {
        "notice": "Cumulative principal owed at timestamp"
      },
      "totalPrincipalPaid()": {
        "notice": "Returns the total amount of principal thats been paid"
      },
      "unpauseDrawdowns()": {
        "notice": "Unpause drawdowns"
      },
      "withdraw(uint256,uint256)": {
        "notice": "Withdraw an already deposited amount if the funds are available. Caller must be the owner or   approved by the owner on tokenId. Amount withdrawn is sent to the caller."
      },
      "withdrawMax(uint256)": {
        "notice": "Similar to withdraw but withdraw the max interest and principal available for `tokenId`"
      },
      "withdrawMultiple(uint256[],uint256[])": {
        "notice": "Withdraw from multiple tokens"
      }
    },
    "notice": "A loan that allows the lenders to call back capital from the borrower.",
    "version": 1
  },
  "storageLayout": {
    "storage": [
      {
        "astId": 663,
        "contract": "contracts/protocol/core/callable/CallableLoan.sol:CallableLoan",
        "label": "_initialized",
        "offset": 0,
        "slot": "0",
        "type": "t_bool"
      },
      {
        "astId": 666,
        "contract": "contracts/protocol/core/callable/CallableLoan.sol:CallableLoan",
        "label": "_initializing",
        "offset": 1,
        "slot": "0",
        "type": "t_bool"
      },
      {
        "astId": 3057,
        "contract": "contracts/protocol/core/callable/CallableLoan.sol:CallableLoan",
        "label": "__gap",
        "offset": 0,
        "slot": "1",
        "type": "t_array(t_uint256)50_storage"
      },
      {
        "astId": 3673,
        "contract": "contracts/protocol/core/callable/CallableLoan.sol:CallableLoan",
        "label": "__gap",
        "offset": 0,
        "slot": "51",
        "type": "t_array(t_uint256)50_storage"
      },
      {
        "astId": 258,
        "contract": "contracts/protocol/core/callable/CallableLoan.sol:CallableLoan",
        "label": "_roles",
        "offset": 0,
        "slot": "101",
        "type": "t_mapping(t_bytes32,t_struct(RoleData)253_storage)"
      },
      {
        "astId": 543,
        "contract": "contracts/protocol/core/callable/CallableLoan.sol:CallableLoan",
        "label": "__gap",
        "offset": 0,
        "slot": "102",
        "type": "t_array(t_uint256)49_storage"
      },
      {
        "astId": 724,
        "contract": "contracts/protocol/core/callable/CallableLoan.sol:CallableLoan",
        "label": "_paused",
        "offset": 0,
        "slot": "151",
        "type": "t_bool"
      },
      {
        "astId": 815,
        "contract": "contracts/protocol/core/callable/CallableLoan.sol:CallableLoan",
        "label": "__gap",
        "offset": 0,
        "slot": "152",
        "type": "t_array(t_uint256)49_storage"
      },
      {
        "astId": 830,
        "contract": "contracts/protocol/core/callable/CallableLoan.sol:CallableLoan",
        "label": "_status",
        "offset": 0,
        "slot": "201",
        "type": "t_uint256"
      },
      {
        "astId": 873,
        "contract": "contracts/protocol/core/callable/CallableLoan.sol:CallableLoan",
        "label": "__gap",
        "offset": 0,
        "slot": "202",
        "type": "t_array(t_uint256)49_storage"
      },
      {
        "astId": 11558,
        "contract": "contracts/protocol/core/callable/CallableLoan.sol:CallableLoan",
        "label": "__gap1",
        "offset": 0,
        "slot": "251",
        "type": "t_array(t_uint256)50_storage"
      },
      {
        "astId": 11562,
        "contract": "contracts/protocol/core/callable/CallableLoan.sol:CallableLoan",
        "label": "__gap2",
        "offset": 0,
        "slot": "301",
        "type": "t_array(t_uint256)50_storage"
      },
      {
        "astId": 11566,
        "contract": "contracts/protocol/core/callable/CallableLoan.sol:CallableLoan",
        "label": "__gap3",
        "offset": 0,
        "slot": "351",
        "type": "t_array(t_uint256)50_storage"
      },
      {
        "astId": 11570,
        "contract": "contracts/protocol/core/callable/CallableLoan.sol:CallableLoan",
        "label": "__gap4",
        "offset": 0,
        "slot": "401",
        "type": "t_array(t_uint256)50_storage"
      },
      {
        "astId": 12104,
        "contract": "contracts/protocol/core/callable/CallableLoan.sol:CallableLoan",
        "label": "_staleCreditLine",
        "offset": 0,
        "slot": "451",
        "type": "t_struct(StaleCallableCreditLine)16641_storage"
      },
      {
        "astId": 12106,
        "contract": "contracts/protocol/core/callable/CallableLoan.sol:CallableLoan",
        "label": "fundableAt",
        "offset": 0,
        "slot": "562",
        "type": "t_uint256"
      },
      {
        "astId": 12108,
        "contract": "contracts/protocol/core/callable/CallableLoan.sol:CallableLoan",
        "label": "drawdownsPaused",
        "offset": 0,
        "slot": "563",
        "type": "t_bool"
      },
      {
        "astId": 12111,
        "contract": "contracts/protocol/core/callable/CallableLoan.sol:CallableLoan",
        "label": "allowedUIDTypes",
        "offset": 0,
        "slot": "564",
        "type": "t_array(t_uint256)dyn_storage"
      },
      {
        "astId": 12114,
        "contract": "contracts/protocol/core/callable/CallableLoan.sol:CallableLoan",
        "label": "config",
        "offset": 0,
        "slot": "565",
        "type": "t_contract(IGoldfinchConfig)8658"
      },
      {
        "astId": 12117,
        "contract": "contracts/protocol/core/callable/CallableLoan.sol:CallableLoan",
        "label": "createdAt",
        "offset": 0,
        "slot": "566",
        "type": "t_uint256"
      },
      {
        "astId": 12120,
        "contract": "contracts/protocol/core/callable/CallableLoan.sol:CallableLoan",
        "label": "borrower",
        "offset": 0,
        "slot": "567",
        "type": "t_address"
      }
    ],
    "types": {
      "t_address": {
        "encoding": "inplace",
        "label": "address",
        "numberOfBytes": "20"
      },
      "t_array(t_struct(Tranche)17279_storage)dyn_storage": {
        "base": "t_struct(Tranche)17279_storage",
        "encoding": "dynamic_array",
        "label": "struct Tranche[]",
        "numberOfBytes": "32"
      },
      "t_array(t_uint256)49_storage": {
        "base": "t_uint256",
        "encoding": "inplace",
        "label": "uint256[49]",
        "numberOfBytes": "1568"
      },
      "t_array(t_uint256)50_storage": {
        "base": "t_uint256",
        "encoding": "inplace",
        "label": "uint256[50]",
        "numberOfBytes": "1600"
      },
      "t_array(t_uint256)dyn_storage": {
        "base": "t_uint256",
        "encoding": "dynamic_array",
        "label": "uint256[]",
        "numberOfBytes": "32"
      },
      "t_bool": {
        "encoding": "inplace",
        "label": "bool",
        "numberOfBytes": "1"
      },
      "t_bytes32": {
        "encoding": "inplace",
        "label": "bytes32",
        "numberOfBytes": "32"
      },
      "t_contract(IGoldfinchConfig)8658": {
        "encoding": "inplace",
        "label": "contract IGoldfinchConfig",
        "numberOfBytes": "20"
      },
      "t_contract(ISchedule)10347": {
        "encoding": "inplace",
        "label": "contract ISchedule",
        "numberOfBytes": "20"
      },
      "t_mapping(t_address,t_bool)": {
        "encoding": "mapping",
        "key": "t_address",
        "label": "mapping(address => bool)",
        "numberOfBytes": "32",
        "value": "t_bool"
      },
      "t_mapping(t_bytes32,t_struct(RoleData)253_storage)": {
        "encoding": "mapping",
        "key": "t_bytes32",
        "label": "mapping(bytes32 => struct AccessControlUpgradeable.RoleData)",
        "numberOfBytes": "32",
        "value": "t_struct(RoleData)253_storage"
      },
      "t_struct(CallableCreditLine)14852_storage": {
        "encoding": "inplace",
        "label": "struct CallableCreditLine",
        "members": [
          {
            "astId": 14825,
            "contract": "contracts/protocol/core/callable/CallableLoan.sol:CallableLoan",
            "label": "_config",
            "offset": 0,
            "slot": "0",
            "type": "t_contract(IGoldfinchConfig)8658"
          },
          {
            "astId": 14827,
            "contract": "contracts/protocol/core/callable/CallableLoan.sol:CallableLoan",
            "label": "_limit",
            "offset": 0,
            "slot": "1",
            "type": "t_uint256"
          },
          {
            "astId": 14829,
            "contract": "contracts/protocol/core/callable/CallableLoan.sol:CallableLoan",
            "label": "_interestApr",
            "offset": 0,
            "slot": "2",
            "type": "t_uint256"
          },
          {
            "astId": 14831,
            "contract": "contracts/protocol/core/callable/CallableLoan.sol:CallableLoan",
            "label": "_lateAdditionalApr",
            "offset": 0,
            "slot": "3",
            "type": "t_uint256"
          },
          {
            "astId": 14833,
            "contract": "contracts/protocol/core/callable/CallableLoan.sol:CallableLoan",
            "label": "_numLockupPeriods",
            "offset": 0,
            "slot": "4",
            "type": "t_uint256"
          },
          {
            "astId": 14835,
            "contract": "contracts/protocol/core/callable/CallableLoan.sol:CallableLoan",
            "label": "_checkpointedAsOf",
            "offset": 0,
            "slot": "5",
            "type": "t_uint256"
          },
          {
            "astId": 14837,
            "contract": "contracts/protocol/core/callable/CallableLoan.sol:CallableLoan",
            "label": "_lastFullPaymentTime",
            "offset": 0,
            "slot": "6",
            "type": "t_uint256"
          },
          {
            "astId": 14839,
            "contract": "contracts/protocol/core/callable/CallableLoan.sol:CallableLoan",
            "label": "_totalInterestOwedAtLastCheckpoint",
            "offset": 0,
            "slot": "7",
            "type": "t_uint256"
          },
          {
            "astId": 14841,
            "contract": "contracts/protocol/core/callable/CallableLoan.sol:CallableLoan",
            "label": "_totalInterestAccruedAtLastCheckpoint",
            "offset": 0,
            "slot": "8",
            "type": "t_uint256"
          },
          {
            "astId": 14844,
            "contract": "contracts/protocol/core/callable/CallableLoan.sol:CallableLoan",
            "label": "_waterfall",
            "offset": 0,
            "slot": "9",
            "type": "t_struct(Waterfall)17885_storage"
          },
          {
            "astId": 14847,
            "contract": "contracts/protocol/core/callable/CallableLoan.sol:CallableLoan",
            "label": "_paymentSchedule",
            "offset": 0,
            "slot": "60",
            "type": "t_struct(PaymentSchedule)22641_storage"
          },
          {
            "astId": 14851,
            "contract": "contracts/protocol/core/callable/CallableLoan.sol:CallableLoan",
            "label": "__padding",
            "offset": 0,
            "slot": "61",
            "type": "t_array(t_uint256)50_storage"
          }
        ],
        "numberOfBytes": "3552"
      },
      "t_struct(PaymentSchedule)22641_storage": {
        "encoding": "inplace",
        "label": "struct PaymentSchedule",
        "members": [
          {
            "astId": 22638,
            "contract": "contracts/protocol/core/callable/CallableLoan.sol:CallableLoan",
            "label": "schedule",
            "offset": 0,
            "slot": "0",
            "type": "t_contract(ISchedule)10347"
          },
          {
            "astId": 22640,
            "contract": "contracts/protocol/core/callable/CallableLoan.sol:CallableLoan",
            "label": "startTime",
            "offset": 20,
            "slot": "0",
            "type": "t_uint64"
          }
        ],
        "numberOfBytes": "32"
      },
      "t_struct(RoleData)253_storage": {
        "encoding": "inplace",
        "label": "struct AccessControlUpgradeable.RoleData",
        "members": [
          {
            "astId": 250,
            "contract": "contracts/protocol/core/callable/CallableLoan.sol:CallableLoan",
            "label": "members",
            "offset": 0,
            "slot": "0",
            "type": "t_mapping(t_address,t_bool)"
          },
          {
            "astId": 252,
            "contract": "contracts/protocol/core/callable/CallableLoan.sol:CallableLoan",
            "label": "adminRole",
            "offset": 0,
            "slot": "1",
            "type": "t_bytes32"
          }
        ],
        "numberOfBytes": "64"
      },
      "t_struct(StaleCallableCreditLine)16641_storage": {
        "encoding": "inplace",
        "label": "struct StaleCallableCreditLine",
        "members": [
          {
            "astId": 16640,
            "contract": "contracts/protocol/core/callable/CallableLoan.sol:CallableLoan",
            "label": "_cl",
            "offset": 0,
            "slot": "0",
            "type": "t_struct(CallableCreditLine)14852_storage"
          }
        ],
        "numberOfBytes": "3552"
      },
      "t_struct(Tranche)17279_storage": {
        "encoding": "inplace",
        "label": "struct Tranche",
        "members": [
          {
            "astId": 17268,
            "contract": "contracts/protocol/core/callable/CallableLoan.sol:CallableLoan",
            "label": "_principalDeposited",
            "offset": 0,
            "slot": "0",
            "type": "t_uint256"
          },
          {
            "astId": 17270,
            "contract": "contracts/protocol/core/callable/CallableLoan.sol:CallableLoan",
            "label": "_principalPaid",
            "offset": 0,
            "slot": "1",
            "type": "t_uint256"
          },
          {
            "astId": 17272,
            "contract": "contracts/protocol/core/callable/CallableLoan.sol:CallableLoan",
            "label": "_principalReserved",
            "offset": 0,
            "slot": "2",
            "type": "t_uint256"
          },
          {
            "astId": 17274,
            "contract": "contracts/protocol/core/callable/CallableLoan.sol:CallableLoan",
            "label": "_interestPaid",
            "offset": 0,
            "slot": "3",
            "type": "t_uint256"
          },
          {
            "astId": 17278,
            "contract": "contracts/protocol/core/callable/CallableLoan.sol:CallableLoan",
            "label": "__padding",
            "offset": 0,
            "slot": "4",
            "type": "t_array(t_uint256)50_storage"
          }
        ],
        "numberOfBytes": "1728"
      },
      "t_struct(Waterfall)17885_storage": {
        "encoding": "inplace",
        "label": "struct Waterfall",
        "members": [
          {
            "astId": 17880,
            "contract": "contracts/protocol/core/callable/CallableLoan.sol:CallableLoan",
            "label": "_tranches",
            "offset": 0,
            "slot": "0",
            "type": "t_array(t_struct(Tranche)17279_storage)dyn_storage"
          },
          {
            "astId": 17884,
            "contract": "contracts/protocol/core/callable/CallableLoan.sol:CallableLoan",
            "label": "__padding",
            "offset": 0,
            "slot": "1",
            "type": "t_array(t_uint256)50_storage"
          }
        ],
        "numberOfBytes": "1632"
      },
      "t_uint256": {
        "encoding": "inplace",
        "label": "uint256",
        "numberOfBytes": "32"
      },
      "t_uint64": {
        "encoding": "inplace",
        "label": "uint64",
        "numberOfBytes": "8"
      }
    }
  }
}