{
  "address": "0x3c705dB336C81c7FEFC5746e283aB2c0781A4B7b",
  "abi": [
    {
      "inputs": [
        {
          "internalType": "uint256",
          "name": "arrayLength1",
          "type": "uint256"
        },
        {
          "internalType": "uint256",
          "name": "arrayLength2",
          "type": "uint256"
        }
      ],
      "name": "ArrayLengthMismatch",
      "type": "error"
    },
    {
      "inputs": [],
      "name": "CannotDrawdownWhenDrawdownsPaused",
      "type": "error"
    },
    {
      "inputs": [],
      "name": "CannotReinitialize",
      "type": "error"
    },
    {
      "inputs": [],
      "name": "CannotSetAllowedUIDTypesAfterDeposit",
      "type": "error"
    },
    {
      "inputs": [
        {
          "internalType": "uint256",
          "name": "existingFundableAt",
          "type": "uint256"
        }
      ],
      "name": "CannotSetFundableAtAfterFundableAt",
      "type": "error"
    },
    {
      "inputs": [],
      "name": "CannotSubmitCallInLockupPeriod",
      "type": "error"
    },
    {
      "inputs": [],
      "name": "CannotWithdrawInDrawdownPeriod",
      "type": "error"
    },
    {
      "inputs": [
        {
          "internalType": "uint256",
          "name": "deposit",
          "type": "uint256"
        },
        {
          "internalType": "uint256",
          "name": "amountCurrentlyDeposited",
          "type": "uint256"
        },
        {
          "internalType": "uint256",
          "name": "limit",
          "type": "uint256"
        }
      ],
      "name": "DepositExceedsLimit",
      "type": "error"
    },
    {
      "inputs": [
        {
          "internalType": "uint256",
          "name": "drawdownAmount",
          "type": "uint256"
        },
        {
          "internalType": "uint256",
          "name": "existingPrincipalPaid",
          "type": "uint256"
        }
      ],
      "name": "DrawdownAmountExceedsDeposits",
      "type": "error"
    },
    {
      "inputs": [
        {
          "internalType": "uint256",
          "name": "poolTokenId",
          "type": "uint256"
        },
        {
          "internalType": "uint256",
          "name": "callSubmissionAmount",
          "type": "uint256"
        },
        {
          "internalType": "uint256",
          "name": "maxCallSubmissionAmount",
          "type": "uint256"
        }
      ],
      "name": "ExcessiveCallSubmissionAmount",
      "type": "error"
    },
    {
      "inputs": [
        {
          "internalType": "uint256",
          "name": "numPrincipalPeriods",
          "type": "uint256"
        },
        {
          "internalType": "uint256",
          "name": "minimumNumPrincipalPeriods",
          "type": "uint256"
        }
      ],
      "name": "HasInsufficientTranches",
      "type": "error"
    },
    {
      "inputs": [
        {
          "internalType": "uint256",
          "name": "inputTimestamp",
          "type": "uint256"
        },
        {
          "internalType": "uint256",
          "name": "checkpointedAt",
          "type": "uint256"
        }
      ],
      "name": "InputTimestampBeforeCheckpoint",
      "type": "error"
    },
    {
      "inputs": [
        {
          "internalType": "uint256",
          "name": "inputTimestamp",
          "type": "uint256"
        }
      ],
      "name": "InputTimestampInThePast",
      "type": "error"
    },
    {
      "inputs": [
        {
          "internalType": "uint256",
          "name": "tokenId",
          "type": "uint256"
        }
      ],
      "name": "InvalidCallSubmissionPoolToken",
      "type": "error"
    },
    {
      "inputs": [
        {
          "internalType": "enum LoanPhase",
          "name": "currentLoanPhase",
          "type": "uint8"
        },
        {
          "internalType": "enum LoanPhase",
          "name": "validLoanPhase",
          "type": "uint8"
        }
      ],
      "name": "InvalidLoanPhase",
      "type": "error"
    },
    {
      "inputs": [
        {
          "internalType": "uint256",
          "name": "numLockupPeriods",
          "type": "uint256"
        },
        {
          "internalType": "uint256",
          "name": "periodsPerPrincipalPeriod",
          "type": "uint256"
        }
      ],
      "name": "InvalidNumLockupPeriods",
      "type": "error"
    },
    {
      "inputs": [
        {
          "internalType": "address",
          "name": "depositor",
          "type": "address"
        }
      ],
      "name": "InvalidUIDForDepositor",
      "type": "error"
    },
    {
      "inputs": [
        {
          "internalType": "uint256",
          "name": "inputTranche",
          "type": "uint256"
        },
        {
          "internalType": "uint256",
          "name": "uncalledTranche",
          "type": "uint256"
        }
      ],
      "name": "MustDepositToUncalledTranche",
      "type": "error"
    },
    {
      "inputs": [
        {
          "internalType": "uint256",
          "name": "inputTranche",
          "type": "uint256"
        },
        {
          "internalType": "uint256",
          "name": "uncalledTranche",
          "type": "uint256"
        }
      ],
      "name": "MustSubmitCallToUncalledTranche",
      "type": "error"
    },
    {
      "inputs": [
        {
          "internalType": "uint256",
          "name": "attemptedPrincipalPayment",
          "type": "uint256"
        }
      ],
      "name": "NoBalanceToPay",
      "type": "error"
    },
    {
      "inputs": [
        {
          "internalType": "address",
          "name": "callSubmissionSender",
          "type": "address"
        },
        {
          "internalType": "uint256",
          "name": "tokenId",
          "type": "uint256"
        }
      ],
      "name": "NotAuthorizedToSubmitCall",
      "type": "error"
    },
    {
      "inputs": [
        {
          "internalType": "address",
          "name": "withdrawSender",
          "type": "address"
        },
        {
          "internalType": "uint256",
          "name": "tokenId",
          "type": "uint256"
        }
      ],
      "name": "NotAuthorizedToWithdraw",
      "type": "error"
    },
    {
      "inputs": [
        {
          "internalType": "uint256",
          "name": "lastCallRequestPeriod",
          "type": "uint256"
        }
      ],
      "name": "OutOfCallRequestPeriodBounds",
      "type": "error"
    },
    {
      "inputs": [
        {
          "internalType": "address",
          "name": "nonLockerAddress",
          "type": "address"
        }
      ],
      "name": "RequiresLockerRole",
      "type": "error"
    },
    {
      "inputs": [],
      "name": "TooLateToSubmitCallRequests",
      "type": "error"
    },
    {
      "inputs": [
        {
          "internalType": "uint256",
          "name": "withdrawAmount",
          "type": "uint256"
        },
        {
          "internalType": "uint256",
          "name": "withdrawableAmount",
          "type": "uint256"
        }
      ],
      "name": "WithdrawAmountExceedsWithdrawable",
      "type": "error"
    },
    {
      "inputs": [],
      "name": "ZeroCallSubmissionAmount",
      "type": "error"
    },
    {
      "inputs": [],
      "name": "ZeroDepositAmount",
      "type": "error"
    },
    {
      "inputs": [],
      "name": "ZeroDrawdownAmount",
      "type": "error"
    },
    {
      "inputs": [],
      "name": "ZeroPaymentAmount",
      "type": "error"
    },
    {
      "inputs": [],
      "name": "ZeroWithdrawAmount",
      "type": "error"
    },
    {
      "anonymous": false,
      "inputs": [
        {
          "indexed": true,
          "internalType": "uint256",
          "name": "originalTokenId",
          "type": "uint256"
        },
        {
          "indexed": true,
          "internalType": "uint256",
          "name": "callRequestedTokenId",
          "type": "uint256"
        },
        {
          "indexed": true,
          "internalType": "uint256",
          "name": "remainingTokenId",
          "type": "uint256"
        },
        {
          "indexed": false,
          "internalType": "uint256",
          "name": "callAmount",
          "type": "uint256"
        }
      ],
      "name": "CallRequestSubmitted",
      "type": "event"
    },
    {
      "anonymous": false,
      "inputs": [
        {
          "indexed": true,
          "internalType": "address",
          "name": "owner",
          "type": "address"
        },
        {
          "indexed": true,
          "internalType": "uint256",
          "name": "tranche",
          "type": "uint256"
        },
        {
          "indexed": true,
          "internalType": "uint256",
          "name": "tokenId",
          "type": "uint256"
        },
        {
          "indexed": false,
          "internalType": "uint256",
          "name": "amount",
          "type": "uint256"
        }
      ],
      "name": "DepositMade",
      "type": "event"
    },
    {
      "anonymous": false,
      "inputs": [
        {
          "indexed": true,
          "internalType": "address",
          "name": "loan",
          "type": "address"
        }
      ],
      "name": "DepositsLocked",
      "type": "event"
    },
    {
      "anonymous": false,
      "inputs": [
        {
          "indexed": true,
          "internalType": "address",
          "name": "borrower",
          "type": "address"
        },
        {
          "indexed": false,
          "internalType": "uint256",
          "name": "amount",
          "type": "uint256"
        }
      ],
      "name": "DrawdownMade",
      "type": "event"
    },
    {
      "anonymous": false,
      "inputs": [
        {
          "indexed": true,
          "internalType": "address",
          "name": "pool",
          "type": "address"
        }
      ],
      "name": "DrawdownsPaused",
      "type": "event"
    },
    {
      "anonymous": false,
      "inputs": [
        {
          "indexed": true,
          "internalType": "address",
          "name": "pool",
          "type": "address"
        }
      ],
      "name": "DrawdownsUnpaused",
      "type": "event"
    },
    {
      "anonymous": false,
      "inputs": [
        {
          "indexed": true,
          "internalType": "address",
          "name": "pool",
          "type": "address"
        }
      ],
      "name": "EmergencyShutdown",
      "type": "event"
    },
    {
      "anonymous": false,
      "inputs": [
        {
          "indexed": false,
          "internalType": "address",
          "name": "account",
          "type": "address"
        }
      ],
      "name": "Paused",
      "type": "event"
    },
    {
      "anonymous": false,
      "inputs": [
        {
          "indexed": true,
          "internalType": "address",
          "name": "payer",
          "type": "address"
        },
        {
          "indexed": true,
          "internalType": "address",
          "name": "pool",
          "type": "address"
        },
        {
          "indexed": false,
          "internalType": "uint256",
          "name": "interest",
          "type": "uint256"
        },
        {
          "indexed": false,
          "internalType": "uint256",
          "name": "principal",
          "type": "uint256"
        },
        {
          "indexed": false,
          "internalType": "uint256",
          "name": "remaining",
          "type": "uint256"
        },
        {
          "indexed": false,
          "internalType": "uint256",
          "name": "reserve",
          "type": "uint256"
        }
      ],
      "name": "PaymentApplied",
      "type": "event"
    },
    {
      "anonymous": false,
      "inputs": [
        {
          "indexed": true,
          "internalType": "address",
          "name": "from",
          "type": "address"
        },
        {
          "indexed": false,
          "internalType": "uint256",
          "name": "amount",
          "type": "uint256"
        }
      ],
      "name": "ReserveFundsCollected",
      "type": "event"
    },
    {
      "anonymous": false,
      "inputs": [
        {
          "indexed": true,
          "internalType": "bytes32",
          "name": "role",
          "type": "bytes32"
        },
        {
          "indexed": true,
          "internalType": "bytes32",
          "name": "previousAdminRole",
          "type": "bytes32"
        },
        {
          "indexed": true,
          "internalType": "bytes32",
          "name": "newAdminRole",
          "type": "bytes32"
        }
      ],
      "name": "RoleAdminChanged",
      "type": "event"
    },
    {
      "anonymous": false,
      "inputs": [
        {
          "indexed": true,
          "internalType": "bytes32",
          "name": "role",
          "type": "bytes32"
        },
        {
          "indexed": true,
          "internalType": "address",
          "name": "account",
          "type": "address"
        },
        {
          "indexed": true,
          "internalType": "address",
          "name": "sender",
          "type": "address"
        }
      ],
      "name": "RoleGranted",
      "type": "event"
    },
    {
      "anonymous": false,
      "inputs": [
        {
          "indexed": true,
          "internalType": "bytes32",
          "name": "role",
          "type": "bytes32"
        },
        {
          "indexed": true,
          "internalType": "address",
          "name": "account",
          "type": "address"
        },
        {
          "indexed": true,
          "internalType": "address",
          "name": "sender",
          "type": "address"
        }
      ],
      "name": "RoleRevoked",
      "type": "event"
    },
    {
      "anonymous": false,
      "inputs": [
        {
          "indexed": false,
          "internalType": "address",
          "name": "account",
          "type": "address"
        }
      ],
      "name": "Unpaused",
      "type": "event"
    },
    {
      "anonymous": false,
      "inputs": [
        {
          "indexed": true,
          "internalType": "address",
          "name": "owner",
          "type": "address"
        },
        {
          "indexed": true,
          "internalType": "uint256",
          "name": "tranche",
          "type": "uint256"
        },
        {
          "indexed": true,
          "internalType": "uint256",
          "name": "tokenId",
          "type": "uint256"
        },
        {
          "indexed": false,
          "internalType": "uint256",
          "name": "interestWithdrawn",
          "type": "uint256"
        },
        {
          "indexed": false,
          "internalType": "uint256",
          "name": "principalWithdrawn",
          "type": "uint256"
        }
      ],
      "name": "WithdrawalMade",
      "type": "event"
    },
    {
      "inputs": [],
      "name": "DEFAULT_ADMIN_ROLE",
      "outputs": [
        {
          "internalType": "bytes32",
          "name": "",
          "type": "bytes32"
        }
      ],
      "stateMutability": "view",
      "type": "function"
    },
    {
      "inputs": [],
      "name": "LOCKER_ROLE",
      "outputs": [
        {
          "internalType": "bytes32",
          "name": "",
          "type": "bytes32"
        }
      ],
      "stateMutability": "view",
      "type": "function"
    },
    {
      "inputs": [],
      "name": "OWNER_ROLE",
      "outputs": [
        {
          "internalType": "bytes32",
          "name": "",
          "type": "bytes32"
        }
      ],
      "stateMutability": "view",
      "type": "function"
    },
    {
      "inputs": [],
      "name": "PAUSER_ROLE",
      "outputs": [
        {
          "internalType": "bytes32",
          "name": "",
          "type": "bytes32"
        }
      ],
      "stateMutability": "view",
      "type": "function"
    },
    {
      "inputs": [],
      "name": "SPLIT_TOKEN_DUST_THRESHOLD",
      "outputs": [
        {
          "internalType": "uint256",
          "name": "",
          "type": "uint256"
        }
      ],
      "stateMutability": "view",
      "type": "function"
    },
    {
      "inputs": [
        {
          "internalType": "address",
          "name": "owner",
          "type": "address"
        }
      ],
      "name": "__BaseUpgradeablePausable__init",
      "outputs": [],
      "stateMutability": "nonpayable",
      "type": "function"
    },
    {
      "inputs": [],
      "name": "__PauserPausable__init",
      "outputs": [],
      "stateMutability": "nonpayable",
      "type": "function"
    },
    {
      "inputs": [],
      "name": "_reserveFundsFeePercent",
      "outputs": [
        {
          "internalType": "uint256",
          "name": "",
          "type": "uint256"
        }
      ],
      "stateMutability": "view",
      "type": "function"
    },
    {
      "inputs": [
        {
          "internalType": "uint256",
          "name": "",
          "type": "uint256"
        }
      ],
      "name": "allowedUIDTypes",
      "outputs": [
        {
          "internalType": "uint256",
          "name": "",
          "type": "uint256"
        }
      ],
      "stateMutability": "view",
      "type": "function"
    },
    {
      "inputs": [
        {
          "internalType": "uint256",
          "name": "tokenId",
          "type": "uint256"
        }
      ],
      "name": "availableToCall",
      "outputs": [
        {
          "internalType": "uint256",
          "name": "",
          "type": "uint256"
        }
      ],
      "stateMutability": "view",
      "type": "function"
    },
    {
      "inputs": [
        {
          "internalType": "uint256",
          "name": "tokenId",
          "type": "uint256"
        }
      ],
      "name": "availableToWithdraw",
      "outputs": [
        {
          "internalType": "uint256",
          "name": "",
          "type": "uint256"
        },
        {
          "internalType": "uint256",
          "name": "",
          "type": "uint256"
        }
      ],
      "stateMutability": "view",
      "type": "function"
    },
    {
      "inputs": [],
      "name": "balance",
      "outputs": [
        {
          "internalType": "uint256",
          "name": "",
          "type": "uint256"
        }
      ],
      "stateMutability": "view",
      "type": "function"
    },
    {
      "inputs": [],
      "name": "borrower",
      "outputs": [
        {
          "internalType": "address",
          "name": "",
          "type": "address"
        }
      ],
      "stateMutability": "view",
      "type": "function"
    },
    {
      "inputs": [],
      "name": "config",
      "outputs": [
        {
          "internalType": "contract IGoldfinchConfig",
          "name": "",
          "type": "address"
        }
      ],
      "stateMutability": "view",
      "type": "function"
    },
    {
      "inputs": [],
      "name": "createdAt",
      "outputs": [
        {
          "internalType": "uint256",
          "name": "",
          "type": "uint256"
        }
      ],
      "stateMutability": "view",
      "type": "function"
    },
    {
      "inputs": [],
      "name": "creditLine",
      "outputs": [
        {
          "internalType": "contract ICreditLine",
          "name": "",
          "type": "address"
        }
      ],
      "stateMutability": "view",
      "type": "function"
    },
    {
      "inputs": [],
      "name": "currentLimit",
      "outputs": [
        {
          "internalType": "uint256",
          "name": "",
          "type": "uint256"
        }
      ],
      "stateMutability": "view",
      "type": "function"
    },
    {
      "inputs": [
        {
          "internalType": "uint256",
          "name": "tranche",
          "type": "uint256"
        },
        {
          "internalType": "uint256",
          "name": "amount",
          "type": "uint256"
        }
      ],
      "name": "deposit",
      "outputs": [
        {
          "internalType": "uint256",
          "name": "",
          "type": "uint256"
        }
      ],
      "stateMutability": "nonpayable",
      "type": "function"
    },
    {
      "inputs": [
        {
          "internalType": "uint256",
          "name": "tranche",
          "type": "uint256"
        },
        {
          "internalType": "uint256",
          "name": "amount",
          "type": "uint256"
        },
        {
          "internalType": "uint256",
          "name": "deadline",
          "type": "uint256"
        },
        {
          "internalType": "uint8",
          "name": "v",
          "type": "uint8"
        },
        {
          "internalType": "bytes32",
          "name": "r",
          "type": "bytes32"
        },
        {
          "internalType": "bytes32",
          "name": "s",
          "type": "bytes32"
        }
      ],
      "name": "depositWithPermit",
      "outputs": [
        {
          "internalType": "uint256",
          "name": "tokenId",
          "type": "uint256"
        }
      ],
      "stateMutability": "nonpayable",
      "type": "function"
    },
    {
      "inputs": [
        {
          "internalType": "uint256",
          "name": "amount",
          "type": "uint256"
        }
      ],
      "name": "drawdown",
      "outputs": [],
      "stateMutability": "nonpayable",
      "type": "function"
    },
    {
      "inputs": [],
      "name": "drawdownsPaused",
      "outputs": [
        {
          "internalType": "bool",
          "name": "",
          "type": "bool"
        }
      ],
      "stateMutability": "view",
      "type": "function"
    },
    {
      "inputs": [
        {
          "internalType": "uint256",
          "name": "timestamp",
          "type": "uint256"
        }
      ],
      "name": "estimateOwedInterestAt",
      "outputs": [
        {
          "internalType": "uint256",
          "name": "",
          "type": "uint256"
        }
      ],
      "stateMutability": "view",
      "type": "function"
    },
    {
      "inputs": [],
      "name": "getAllowedUIDTypes",
      "outputs": [
        {
          "internalType": "uint256[]",
          "name": "",
          "type": "uint256[]"
        }
      ],
      "stateMutability": "view",
      "type": "function"
    },
    {
      "inputs": [
        {
          "internalType": "uint256",
          "name": "timestamp",
          "type": "uint256"
        }
      ],
      "name": "getAmountsOwed",
      "outputs": [
        {
          "internalType": "uint256",
          "name": "returnedInterestOwed",
          "type": "uint256"
        },
        {
          "internalType": "uint256",
          "name": "returnedInterestAccrued",
          "type": "uint256"
        },
        {
          "internalType": "uint256",
          "name": "returnedPrincipalOwed",
          "type": "uint256"
        }
      ],
      "stateMutability": "view",
      "type": "function"
    },
    {
      "inputs": [
        {
          "internalType": "uint256",
          "name": "callRequestPeriodIndex",
          "type": "uint256"
        }
      ],
      "name": "getCallRequestPeriod",
      "outputs": [
        {
          "components": [
            {
              "internalType": "uint256",
              "name": "principalDeposited",
              "type": "uint256"
            },
            {
              "internalType": "uint256",
              "name": "principalPaid",
              "type": "uint256"
            },
            {
              "internalType": "uint256",
              "name": "principalReserved",
              "type": "uint256"
            },
            {
              "internalType": "uint256",
              "name": "interestPaid",
              "type": "uint256"
            }
          ],
          "internalType": "struct ICallableLoan.CallRequestPeriod",
          "name": "",
          "type": "tuple"
        }
      ],
      "stateMutability": "view",
      "type": "function"
    },
    {
      "inputs": [],
      "name": "getFundableAt",
      "outputs": [
        {
          "internalType": "uint256",
          "name": "",
          "type": "uint256"
        }
      ],
      "stateMutability": "view",
      "type": "function"
    },
    {
      "inputs": [
        {
          "internalType": "bytes32",
          "name": "role",
          "type": "bytes32"
        }
      ],
      "name": "getRoleAdmin",
      "outputs": [
        {
          "internalType": "bytes32",
          "name": "",
          "type": "bytes32"
        }
      ],
      "stateMutability": "view",
      "type": "function"
    },
    {
      "inputs": [],
      "name": "getUncalledCapitalInfo",
      "outputs": [
        {
          "components": [
            {
              "internalType": "uint256",
              "name": "principalDeposited",
              "type": "uint256"
            },
            {
              "internalType": "uint256",
              "name": "principalPaid",
              "type": "uint256"
            },
            {
              "internalType": "uint256",
              "name": "principalReserved",
              "type": "uint256"
            },
            {
              "internalType": "uint256",
              "name": "interestPaid",
              "type": "uint256"
            }
          ],
          "internalType": "struct ICallableLoan.UncalledCapitalInfo",
          "name": "",
          "type": "tuple"
        }
      ],
      "stateMutability": "view",
      "type": "function"
    },
    {
      "inputs": [],
      "name": "getVersion",
      "outputs": [
        {
          "internalType": "uint8[3]",
          "name": "version",
          "type": "uint8[3]"
        }
      ],
      "stateMutability": "pure",
      "type": "function"
    },
    {
      "inputs": [
        {
          "internalType": "bytes32",
          "name": "role",
          "type": "bytes32"
        },
        {
          "internalType": "address",
          "name": "account",
          "type": "address"
        }
      ],
      "name": "grantRole",
      "outputs": [],
      "stateMutability": "nonpayable",
      "type": "function"
    },
    {
      "inputs": [
        {
          "internalType": "address",
          "name": "sender",
          "type": "address"
        }
      ],
      "name": "hasAllowedUID",
      "outputs": [
        {
          "internalType": "bool",
          "name": "",
          "type": "bool"
        }
      ],
      "stateMutability": "view",
      "type": "function"
    },
    {
      "inputs": [
        {
          "internalType": "bytes32",
          "name": "role",
          "type": "bytes32"
        },
        {
          "internalType": "address",
          "name": "account",
          "type": "address"
        }
      ],
      "name": "hasRole",
      "outputs": [
        {
          "internalType": "bool",
          "name": "",
          "type": "bool"
        }
      ],
      "stateMutability": "view",
      "type": "function"
    },
    {
      "inputs": [
        {
          "internalType": "contract IGoldfinchConfig",
          "name": "_config",
          "type": "address"
        },
        {
          "internalType": "address",
          "name": "_borrower",
          "type": "address"
        },
        {
          "internalType": "uint256",
          "name": "_limit",
          "type": "uint256"
        },
        {
          "internalType": "uint256",
          "name": "_interestApr",
          "type": "uint256"
        },
        {
          "internalType": "uint256",
          "name": "_numLockupPeriods",
          "type": "uint256"
        },
        {
          "internalType": "contract ISchedule",
          "name": "_schedule",
          "type": "address"
        },
        {
          "internalType": "uint256",
          "name": "_lateFeeApr",
          "type": "uint256"
        },
        {
          "internalType": "uint256",
          "name": "_fundableAt",
          "type": "uint256"
        },
        {
          "internalType": "uint256[]",
          "name": "_allowedUIDTypes",
          "type": "uint256[]"
        }
      ],
      "name": "initialize",
      "outputs": [],
      "stateMutability": "nonpayable",
      "type": "function"
    },
    {
      "inputs": [],
      "name": "interestAccrued",
      "outputs": [
        {
          "internalType": "uint256",
          "name": "",
          "type": "uint256"
        }
      ],
      "stateMutability": "view",
      "type": "function"
    },
    {
      "inputs": [],
      "name": "interestAccruedAsOf",
      "outputs": [
        {
          "internalType": "uint256",
          "name": "",
          "type": "uint256"
        }
      ],
      "stateMutability": "view",
      "type": "function"
    },
    {
      "inputs": [
        {
          "internalType": "uint256",
          "name": "timestamp",
          "type": "uint256"
        }
      ],
      "name": "interestAccruedAt",
      "outputs": [
        {
          "internalType": "uint256",
          "name": "",
          "type": "uint256"
        }
      ],
      "stateMutability": "view",
      "type": "function"
    },
    {
      "inputs": [],
      "name": "interestApr",
      "outputs": [
        {
          "internalType": "uint256",
          "name": "",
          "type": "uint256"
        }
      ],
      "stateMutability": "view",
      "type": "function"
    },
    {
      "inputs": [],
      "name": "interestBearingBalance",
      "outputs": [
        {
          "internalType": "uint256",
          "name": "",
          "type": "uint256"
        }
      ],
      "stateMutability": "view",
      "type": "function"
    },
    {
      "inputs": [],
      "name": "interestOwed",
      "outputs": [
        {
          "internalType": "uint256",
          "name": "",
          "type": "uint256"
        }
      ],
      "stateMutability": "view",
      "type": "function"
    },
    {
      "inputs": [
        {
          "internalType": "uint256",
          "name": "timestamp",
          "type": "uint256"
        }
      ],
      "name": "interestOwedAt",
      "outputs": [
        {
          "internalType": "uint256",
          "name": "",
          "type": "uint256"
        }
      ],
      "stateMutability": "view",
      "type": "function"
    },
    {
      "inputs": [],
      "name": "isAdmin",
      "outputs": [
        {
          "internalType": "bool",
          "name": "",
          "type": "bool"
        }
      ],
      "stateMutability": "view",
      "type": "function"
    },
    {
      "inputs": [],
      "name": "isLate",
      "outputs": [
        {
          "internalType": "bool",
          "name": "",
          "type": "bool"
        }
      ],
      "stateMutability": "view",
      "type": "function"
    },
    {
      "inputs": [],
      "name": "lastFullPaymentTime",
      "outputs": [
        {
          "internalType": "uint256",
          "name": "",
          "type": "uint256"
        }
      ],
      "stateMutability": "view",
      "type": "function"
    },
    {
      "inputs": [],
      "name": "lateFeeApr",
      "outputs": [
        {
          "internalType": "uint256",
          "name": "",
          "type": "uint256"
        }
      ],
      "stateMutability": "view",
      "type": "function"
    },
    {
      "inputs": [],
      "name": "limit",
      "outputs": [
        {
          "internalType": "uint256",
          "name": "",
          "type": "uint256"
        }
      ],
      "stateMutability": "view",
      "type": "function"
    },
    {
      "inputs": [],
      "name": "maxLimit",
      "outputs": [
        {
          "internalType": "uint256",
          "name": "",
          "type": "uint256"
        }
      ],
      "stateMutability": "view",
      "type": "function"
    },
    {
      "inputs": [],
      "name": "nextDueTime",
      "outputs": [
        {
          "internalType": "uint256",
          "name": "",
          "type": "uint256"
        }
      ],
      "stateMutability": "view",
      "type": "function"
    },
    {
      "inputs": [
        {
          "internalType": "uint256",
          "name": "timestamp",
          "type": "uint256"
        }
      ],
      "name": "nextDueTimeAt",
      "outputs": [
        {
          "internalType": "uint256",
          "name": "",
          "type": "uint256"
        }
      ],
      "stateMutability": "view",
      "type": "function"
    },
    {
      "inputs": [
        {
          "internalType": "uint256",
          "name": "timestamp",
          "type": "uint256"
        }
      ],
      "name": "nextInterestDueTimeAt",
      "outputs": [
        {
          "internalType": "uint256",
          "name": "",
          "type": "uint256"
        }
      ],
      "stateMutability": "view",
      "type": "function"
    },
    {
      "inputs": [],
      "name": "nextPrincipalDueTime",
      "outputs": [
        {
          "internalType": "uint256",
          "name": "",
          "type": "uint256"
        }
      ],
      "stateMutability": "view",
      "type": "function"
    },
    {
      "inputs": [],
      "name": "pause",
      "outputs": [],
      "stateMutability": "nonpayable",
      "type": "function"
    },
    {
      "inputs": [],
      "name": "pauseDrawdowns",
      "outputs": [],
      "stateMutability": "nonpayable",
      "type": "function"
    },
    {
      "inputs": [],
      "name": "paused",
      "outputs": [
        {
          "internalType": "bool",
          "name": "",
          "type": "bool"
        }
      ],
      "stateMutability": "view",
      "type": "function"
    },
    {
      "inputs": [
        {
          "internalType": "uint256",
          "name": "amount",
          "type": "uint256"
        }
      ],
      "name": "pay",
      "outputs": [
        {
          "components": [
            {
              "internalType": "uint256",
              "name": "owedInterestPayment",
              "type": "uint256"
            },
            {
              "internalType": "uint256",
              "name": "accruedInterestPayment",
              "type": "uint256"
            },
            {
              "internalType": "uint256",
              "name": "principalPayment",
              "type": "uint256"
            },
            {
              "internalType": "uint256",
              "name": "additionalBalancePayment",
              "type": "uint256"
            },
            {
              "internalType": "uint256",
              "name": "paymentRemaining",
              "type": "uint256"
            }
          ],
          "internalType": "struct ILoan.PaymentAllocation",
          "name": "",
          "type": "tuple"
        }
      ],
      "stateMutability": "nonpayable",
      "type": "function"
    },
    {
      "inputs": [
        {
          "internalType": "uint256",
          "name": "principalPayment",
          "type": "uint256"
        },
        {
          "internalType": "uint256",
          "name": "interestPayment",
          "type": "uint256"
        }
      ],
      "name": "pay",
      "outputs": [
        {
          "components": [
            {
              "internalType": "uint256",
              "name": "owedInterestPayment",
              "type": "uint256"
            },
            {
              "internalType": "uint256",
              "name": "accruedInterestPayment",
              "type": "uint256"
            },
            {
              "internalType": "uint256",
              "name": "principalPayment",
              "type": "uint256"
            },
            {
              "internalType": "uint256",
              "name": "additionalBalancePayment",
              "type": "uint256"
            },
            {
              "internalType": "uint256",
              "name": "paymentRemaining",
              "type": "uint256"
            }
          ],
          "internalType": "struct ILoan.PaymentAllocation",
          "name": "",
          "type": "tuple"
        }
      ],
      "stateMutability": "nonpayable",
      "type": "function"
    },
    {
      "inputs": [],
      "name": "principalOwed",
      "outputs": [
        {
          "internalType": "uint256",
          "name": "",
          "type": "uint256"
        }
      ],
      "stateMutability": "view",
      "type": "function"
    },
    {
      "inputs": [
        {
          "internalType": "uint256",
          "name": "timestamp",
          "type": "uint256"
        }
      ],
      "name": "principalOwedAt",
      "outputs": [
        {
          "internalType": "uint256",
          "name": "",
          "type": "uint256"
        }
      ],
      "stateMutability": "view",
      "type": "function"
    },
    {
      "inputs": [
        {
          "internalType": "bytes32",
          "name": "role",
          "type": "bytes32"
        },
        {
          "internalType": "address",
          "name": "account",
          "type": "address"
        }
      ],
      "name": "renounceRole",
      "outputs": [],
      "stateMutability": "nonpayable",
      "type": "function"
    },
    {
      "inputs": [
        {
          "internalType": "bytes32",
          "name": "role",
          "type": "bytes32"
        },
        {
          "internalType": "address",
          "name": "account",
          "type": "address"
        }
      ],
      "name": "revokeRole",
      "outputs": [],
      "stateMutability": "nonpayable",
      "type": "function"
    },
    {
      "inputs": [],
      "name": "schedule",
      "outputs": [
        {
          "internalType": "contract ISchedule",
          "name": "",
          "type": "address"
        }
      ],
      "stateMutability": "view",
      "type": "function"
    },
    {
      "inputs": [
        {
          "internalType": "uint256[]",
          "name": "ids",
          "type": "uint256[]"
        }
      ],
      "name": "setAllowedUIDTypes",
      "outputs": [],
      "stateMutability": "nonpayable",
      "type": "function"
    },
    {
      "inputs": [
        {
          "internalType": "uint256",
          "name": "newFundableAt",
          "type": "uint256"
        }
      ],
      "name": "setFundableAt",
      "outputs": [],
      "stateMutability": "nonpayable",
      "type": "function"
    },
    {
      "inputs": [
        {
          "internalType": "uint256",
          "name": "newAmount",
          "type": "uint256"
        }
      ],
      "name": "setLimit",
      "outputs": [],
      "stateMutability": "nonpayable",
      "type": "function"
    },
    {
      "inputs": [
        {
          "internalType": "uint256",
          "name": "newAmount",
          "type": "uint256"
        }
      ],
      "name": "setMaxLimit",
      "outputs": [],
      "stateMutability": "nonpayable",
      "type": "function"
    },
    {
      "inputs": [
        {
          "internalType": "uint256",
          "name": "callAmount",
          "type": "uint256"
        },
        {
          "internalType": "uint256",
          "name": "poolTokenId",
          "type": "uint256"
        }
      ],
      "name": "submitCall",
      "outputs": [
        {
          "internalType": "uint256",
          "name": "callRequestedTokenId",
          "type": "uint256"
        },
        {
          "internalType": "uint256",
          "name": "remainingTokenId",
          "type": "uint256"
        }
      ],
      "stateMutability": "nonpayable",
      "type": "function"
    },
    {
      "inputs": [
        {
          "internalType": "bytes4",
          "name": "interfaceId",
          "type": "bytes4"
        }
      ],
      "name": "supportsInterface",
      "outputs": [
        {
          "internalType": "bool",
          "name": "",
          "type": "bool"
        }
      ],
      "stateMutability": "view",
      "type": "function"
    },
    {
      "inputs": [],
      "name": "termEndTime",
      "outputs": [
        {
          "internalType": "uint256",
          "name": "",
          "type": "uint256"
        }
      ],
      "stateMutability": "view",
      "type": "function"
    },
    {
      "inputs": [],
      "name": "termStartTime",
      "outputs": [
        {
          "internalType": "uint256",
          "name": "",
          "type": "uint256"
        }
      ],
      "stateMutability": "view",
      "type": "function"
    },
    {
      "inputs": [],
      "name": "totalInterestAccrued",
      "outputs": [
        {
          "internalType": "uint256",
          "name": "",
          "type": "uint256"
        }
      ],
      "stateMutability": "view",
      "type": "function"
    },
    {
      "inputs": [
        {
          "internalType": "uint256",
          "name": "timestamp",
          "type": "uint256"
        }
      ],
      "name": "totalInterestAccruedAt",
      "outputs": [
        {
          "internalType": "uint256",
          "name": "",
          "type": "uint256"
        }
      ],
      "stateMutability": "view",
      "type": "function"
    },
    {
      "inputs": [],
      "name": "totalInterestOwed",
      "outputs": [
        {
          "internalType": "uint256",
          "name": "",
          "type": "uint256"
        }
      ],
      "stateMutability": "view",
      "type": "function"
    },
    {
      "inputs": [
        {
          "internalType": "uint256",
          "name": "timestamp",
          "type": "uint256"
        }
      ],
      "name": "totalInterestOwedAt",
      "outputs": [
        {
          "internalType": "uint256",
          "name": "",
          "type": "uint256"
        }
      ],
      "stateMutability": "view",
      "type": "function"
    },
    {
      "inputs": [],
      "name": "totalInterestPaid",
      "outputs": [
        {
          "internalType": "uint256",
          "name": "",
          "type": "uint256"
        }
      ],
      "stateMutability": "view",
      "type": "function"
    },
    {
      "inputs": [],
      "name": "totalPrincipalOwed",
      "outputs": [
        {
          "internalType": "uint256",
          "name": "",
          "type": "uint256"
        }
      ],
      "stateMutability": "view",
      "type": "function"
    },
    {
      "inputs": [
        {
          "internalType": "uint256",
          "name": "timestamp",
          "type": "uint256"
        }
      ],
      "name": "totalPrincipalOwedAt",
      "outputs": [
        {
          "internalType": "uint256",
          "name": "",
          "type": "uint256"
        }
      ],
      "stateMutability": "view",
      "type": "function"
    },
    {
      "inputs": [],
      "name": "totalPrincipalPaid",
      "outputs": [
        {
          "internalType": "uint256",
          "name": "",
          "type": "uint256"
        }
      ],
      "stateMutability": "view",
      "type": "function"
    },
    {
      "inputs": [],
      "name": "uncalledCapitalTrancheIndex",
      "outputs": [
        {
          "internalType": "uint256",
          "name": "",
          "type": "uint256"
        }
      ],
      "stateMutability": "view",
      "type": "function"
    },
    {
      "inputs": [],
      "name": "unpause",
      "outputs": [],
      "stateMutability": "nonpayable",
      "type": "function"
    },
    {
      "inputs": [],
      "name": "unpauseDrawdowns",
      "outputs": [],
      "stateMutability": "nonpayable",
      "type": "function"
    },
    {
      "inputs": [
        {
          "internalType": "uint256",
          "name": "tokenId",
          "type": "uint256"
        },
        {
          "internalType": "uint256",
          "name": "amount",
          "type": "uint256"
        }
      ],
      "name": "withdraw",
      "outputs": [
        {
          "internalType": "uint256",
          "name": "",
          "type": "uint256"
        },
        {
          "internalType": "uint256",
          "name": "",
          "type": "uint256"
        }
      ],
      "stateMutability": "nonpayable",
      "type": "function"
    },
    {
      "inputs": [
        {
          "internalType": "uint256",
          "name": "tokenId",
          "type": "uint256"
        }
      ],
      "name": "withdrawMax",
      "outputs": [
        {
          "internalType": "uint256",
          "name": "interestWithdrawn",
          "type": "uint256"
        },
        {
          "internalType": "uint256",
          "name": "principalWithdrawn",
          "type": "uint256"
        }
      ],
      "stateMutability": "nonpayable",
      "type": "function"
    },
    {
      "inputs": [
        {
          "internalType": "uint256[]",
          "name": "tokenIds",
          "type": "uint256[]"
        },
        {
          "internalType": "uint256[]",
          "name": "amounts",
          "type": "uint256[]"
        }
      ],
      "name": "withdrawMultiple",
      "outputs": [],
      "stateMutability": "nonpayable",
      "type": "function"
    },
    {
      "inputs": [],
      "name": "withinPrincipalGracePeriod",
      "outputs": [
        {
          "internalType": "bool",
          "name": "",
          "type": "bool"
        }
      ],
      "stateMutability": "view",
      "type": "function"
    }
  ],
  "transactionHash": "0xcbd54072623235a4db43fb797bf197ebb92253b521e9d01391a60740bcc4de2b",
  "args": [],
  "numDeployments": 1,
  "solcInputHash": "46c895b52cc23e34be2ef609c50e6f07",
  "bytecode": "0x608060405234801561001057600080fd5b506160f380620000216000396000f3fe608060405234801561001057600080fd5b50600436106104a05760003560e01c80638456cb591161026d578063bf8bcee411610151578063e2b02ce8116100ce578063eabd0ce111610092578063eabd0ce1146107ab578063eb07f4e61461098d578063ef48eee614610995578063f0b25bde146109a8578063f3621367146109b0578063f94f5a12146109c557600080fd5b8063e2b02ce814610935578063e2bbb1581461093d578063e58378bb14610950578063e63ab1e914610965578063e7aa8a921461097a57600080fd5b8063d284597711610115578063d2845977146108e1578063d547741f146108e9578063d60efcb8146108fc578063daaa3a621461090f578063e2a657f91461092257600080fd5b8063bf8bcee4146105d2578063c290d69114610865578063c78bed86146108ba578063ce78290d146108cf578063cf09e0d0146108d757600080fd5b8063aa2a7c4c116101ea578063b5c6d254116101ae578063b5c6d25414610829578063b69ef8a814610832578063b6db75a01461083a578063b9317d8614610842578063bbafcb4014610855578063bf6c87c71461085d57600080fd5b8063aa2a7c4c146107bb578063aae932fe146107ce578063ae6c857a146107fc578063b0604a261461080f578063b39699921461082157600080fd5b8063a03c5cf011610231578063a03c5cf014610788578063a079a4dd14610790578063a217fddf146107a3578063a4d66daf146107ab578063a8f9c4fe146107b357600080fd5b80638456cb591461074a5780638c0243e7146107525780638f168c931461075a57806391d14854146107625780639d1105301461077557600080fd5b806336568abe11610394578063515bc3231161031157806364fb2d95116102d557806364fb2d95146106f757806365973a11146106ff578063729cf22f1461071257806379502c551461071a5780637df1f1b91461072e57806381c17a151461074257600080fd5b8063515bc323146106b6578063526d81f6146106c95780635c975abb146106d1578063612ed34d146106dc578063645d6225146106ef57600080fd5b806348eef1df1161035857806348eef1df146106625780634af75d35146106755780634d02fe6f146106885780634d90a5391461069b57806350b22fcf146106ae57600080fd5b806336568abe146106085780633f4ba83a1461061b578063441a3e7014610623578063457147a71461064b57806347195e131461065357600080fd5b806320dcc3421161042257806327d18cd1116103e657806327d18cd1146105ca57806327ea6f2b146105d257806328b55c97146105e55780632ba443d2146105ed5780632f2ff15d146105f557600080fd5b806320dcc3421461056457806321506ebe1461056c57806321856b361461058c578063248a9ca31461059457806324bb4b15146105b757600080fd5b806311daef071161046957806311daef071461052b57806317f769411461053e578063193501141461054c5780631a861d26146105545780631cd724ac1461055c57600080fd5b8062ae88e0146104a5578063019c37e6146104cb57806301ffc9a7146104de578063097616a3146105015780630d8e6e2c14610516575b600080fd5b6104b86104b33660046157e6565b6109d8565b6040519081526020015b60405180910390f35b6104b86104d93660046157e6565b6109ec565b6104f16104ec3660046157ff565b6109fa565b60405190151581526020016104c2565b61051461050f36600461583e565b610a2f565b005b61051e610b81565b6040516104c2919061585b565b6104b86105393660046157e6565b610b9e565b610202546104f19060ff1681565b6104b8610bac565b6104b8610bbe565b6104b8610bd8565b6104b8610be5565b61057f61057a3660046157e6565b610bf2565b6040516104c2919061588f565b6104b8610ca4565b6104b86105a23660046157e6565b60009081526065602052604090206001015490565b6104b86105c53660046157e6565b610cb1565b6104b8610cbf565b6105146105e03660046157e6565b610ccc565b6104b8610ce4565b6104b8610cf1565b6105146106033660046158ba565b610cfe565b6105146106163660046158ba565b610d29565b610514610da3565b6106366106313660046158ea565b610de1565b604080519283526020830191909152016104c2565b6104f1610ed3565b305b6040516104c2919061590c565b6106366106703660046158ea565b610ee0565b6104b86106833660046157e6565b6115b4565b6106366106963660046157e6565b6115c2565b6104b86106a93660046157e6565b61165d565b6104b861166b565b6104b86106c4366004615920565b611678565b61051461177a565b60975460ff166104f1565b6104b86106ea3660046157e6565b6117ee565b6104b861182a565b6104b8611837565b6104b861070d3660046157e6565b611844565b61057f61192e565b61020454610655906001600160a01b031681565b61020654610655906001600160a01b031681565b6104f16119a8565b6105146119b5565b6104b86119f1565b6104b86119fe565b6104f16107703660046158ba565b611a0b565b6105146107833660046159c4565b611a36565b6104b8611bb3565b61051461079e3660046157e6565b611bd6565b6104b8600081565b6104b8611d39565b610514611d46565b6106366107c93660046157e6565b611da5565b6107e16107dc3660046157e6565b611e0a565b604080519384526020840192909252908201526060016104c2565b61051461080a3660046157e6565b611e5b565b6101ed546001600160a01b0316610655565b6104b8611ea7565b6104b861138881565b6104b8611eb4565b6104f1611ec1565b610514610850366004615a2f565b611edb565b6104b8611f48565b610514611f55565b6108786108733660046157e6565b611fb1565b6040516104c29190600060a082019050825182526020830151602083015260408301516040830152606083015160608301526080830151608083015292915050565b6108c2612017565b6040516104c29190615a70565b6104b8612070565b6104b86102055481565b6104b861207d565b6105146108f73660046158ba565b61208a565b6104b861090a3660046157e6565b6120b0565b6104b861091d3660046157e6565b6120be565b6104b86109303660046157e6565b6120cc565b6104b86120ee565b6104b861094b3660046158ea565b6120fb565b6104b860008051602061605e83398151915281565b6104b860008051602061607e83398151915281565b610514610988366004615ab4565b61215d565b6104b86123a1565b6108786109a33660046158ea565b6123c5565b6104b8612417565b6104b860008051602061609e83398151915281565b6104f16109d336600461583e565b612424565b60006109e66101c3836124ad565b92915050565b60006109e66101c3836124b9565b60006001600160e01b03198216637965db0b60e01b14806109e657506301ffc9a760e01b6001600160e01b03198316146109e6565b600054610100900460ff1680610a48575060005460ff16155b610a6d5760405162461bcd60e51b8152600401610a6490615b63565b60405180910390fd5b600054610100900460ff16158015610a8f576000805461ffff19166101011790555b6001600160a01b038216610ae55760405162461bcd60e51b815260206004820181905260248201527f4f776e65722063616e6e6f7420626520746865207a65726f20616464726573736044820152606401610a64565b610aed6124c5565b610af561252f565b610afd6125a4565b610b1560008051602061605e83398151915283612614565b610b2d60008051602061607e83398151915283612614565b610b5360008051602061607e83398151915260008051602061605e83398151915261261e565b610b6b60008051602061605e8339815191528061261e565b8015610b7d576000805461ff00191690555b5050565b610b896156bc565b60006040820181905260208201526001815290565b60006109e66101c383612669565b6000610bb96101c3612675565b905090565b600060405162461bcd60e51b8152600401610a6490615bc7565b6000610bb96101c3612680565b6000610bb96101c361268b565b610c1d6040518060800160405280600081526020016000815260200160008152602001600081525090565b610c25610cf1565b8210610c5b576001610c35610cf1565b610c3f9190615bf9565b6040516313e43c3760e31b8152600401610a6491815260200190565b6000610c696101c384612696565b905060405180608001604052808260000151815260200182602001518152602001826040015181526020018260600151815250915050919050565b6000610bb96101c36126cb565b60006109e66101c3836126d6565b6000610bb96101c36126e2565b60405162461bcd60e51b8152600401610a6490615bc7565b6000610bb96101c36126ef565b6000610bb96101c36126fa565b600082815260656020526040902060010154610d1a8133612705565b610d248383612769565b505050565b6001600160a01b0381163314610d995760405162461bcd60e51b815260206004820152602f60248201527f416363657373436f6e74726f6c3a2063616e206f6e6c792072656e6f756e636560448201526e103937b632b9903337b91039b2b63360891b6064820152608401610a64565b610b7d82826127ef565b610dbb60008051602061607e83398151915233611a0b565b610dd75760405162461bcd60e51b8152600401610a6490615c0c565b610ddf612856565b565b600080600260c95403610e065760405162461bcd60e51b8152600401610a6490615c28565b600260c95560975460ff1615610e2e5760405162461bcd60e51b8152600401610a6490615c5f565b61020454600090610e47906001600160a01b03166128e3565b6001600160a01b0316638c7a63ae866040518263ffffffff1660e01b8152600401610e7491815260200190565b60a060405180830381865afa158015610e91573d6000803e3d6000fd5b505050506040513d601f19601f82011682018060405250810190610eb59190615c9f565b9050610ec28186866128ee565b600160c95590969095509350505050565b6000610bb96101c3612beb565b600080600260c95403610f055760405162461bcd60e51b8152600401610a6490615c28565b600260c95560975460ff1615610f2d5760405162461bcd60e51b8152600401610a6490615c5f565b6000610f3a6101c3612bf6565b61020454909150600090610f56906001600160a01b03166128e3565b60405163463d31d760e11b8152600481018790529091506000906001600160a01b03831690638c7a63ae9060240160a060405180830381865afa158015610fa1573d6000803e3d6000fd5b505050506040513d601f19601f82011682018060405250810190610fc59190615c9f565b60405163430c208160e01b81529091506001600160a01b0383169063430c208190610ff69033908a90600401615d25565b602060405180830381865afa158015611013573d6000803e3d6000fd5b505050506040513d601f19601f820116820180604052508101906110379190615d3e565b1580611049575061104733612424565b155b1561106b5733866040516333bb1eed60e21b8152600401610a64929190615d25565b61107483612c05565b81602001511461109a576040516302bf919760e11b815260048101879052602401610a64565b866000036110bb576040516389abd5ad60e01b815260040160405180910390fd5b602081015160408201516110d0918591612c13565b8711156111205785876110f68360200151846040015187612c139092919063ffffffff16565b604051630160ccb360e71b8152600481019390935260248301919091526044820152606401610a64565b600080611141836020015184604001516111386123a1565b88929190612c34565b91509150600083608001518385606001518461115d9190615bf9565b6111679190615d60565b6111719190615bf9565b9050801561118757611184848a836128ee565b50505b5060008080611196888d612d15565b9350509250925060646111a76123a1565b6111b2906064615bf9565b6111bc9083615d73565b6111c69190615da0565b6040516331a9108f60e11b8152600481018d90529091506000906001600160a01b03891690636352211e90602401602060405180830381865afa158015611211573d6000803e3d6000fd5b505050506040513d601f19601f820116820180604052508101906112359190615db4565b9050876001600160a01b0316635be57b6a60405180604001604052808781526020016112608d612ddc565b815250836040518363ffffffff1660e01b8152600401611281929190615dd1565b6020604051808303816000875af11580156112a0573d6000803e3d6000fd5b505050506040513d601f19601f820116820180604052508101906112c49190615df6565b60405163b819220560e01b8152600481018290526024810185905260448101849052909b506001600160a01b0389169063b819220590606401600060405180830381600087803b15801561131757600080fd5b505af115801561132b573d6000803e3d6000fd5b505050506113888488604001516113429190615bf9565b111561148957876001600160a01b0316635be57b6a6040518060400160405280878b604001516113729190615bf9565b81526020016113808d612c05565b815250836040518363ffffffff1660e01b81526004016113a1929190615dd1565b6020604051808303816000875af11580156113c0573d6000803e3d6000fd5b505050506040513d601f19601f820116820180604052508101906113e49190615df6565b9950848311156113f6576113f6615e0f565b8582111561140657611406615e0f565b6001600160a01b03881663b81922058b6114208689615bf9565b61142a868b615bf9565b6040516001600160e01b031960e086901b168152600481019390935260248301919091526044820152606401600060405180830381600087803b15801561147057600080fd5b505af1158015611484573d6000803e3d6000fd5b505050505b50866001600160a01b031663b81922058c8689604001516114aa9190615bf9565b6040516001600160e01b031960e085901b1681526004810192909252602482015260006044820152606401600060405180830381600087803b1580156114ef57600080fd5b505af1158015611503573d6000803e3d6000fd5b5050604051630852cd8d60e31b8152600481018e90526001600160a01b038a1692506342966c689150602401600060405180830381600087803b15801561154957600080fd5b505af115801561155d573d6000803e3d6000fd5b50505050888a8c7f5df84d720403cf4728bc2d21f8e1c46f0427db198f152e92a243a66172a2fbae8f60405161159591815260200190565b60405180910390a45050505050505050600160c9819055509250929050565b60006109e66101c383612e09565b610204546000908190611654906115e1906001600160a01b03166128e3565b6001600160a01b0316638c7a63ae856040518263ffffffff1660e01b815260040161160e91815260200190565b60a060405180830381865afa15801561162b573d6000803e3d6000fd5b505050506040513d601f19601f8201168201806040525081019061164f9190615c9f565b612e15565b91509150915091565b60006109e66101c383612eb3565b6000610bb96101c3612ebf565b6000600260c9540361169c5760405162461bcd60e51b8152600401610a6490615c28565b600260c95560975460ff16156116c45760405162461bcd60e51b8152600401610a6490615c5f565b610204546116da906001600160a01b0316612eca565b60405163d505accf60e01b8152336004820152306024820152604481018890526064810187905260ff8616608482015260a4810185905260c481018490526001600160a01b03919091169063d505accf9060e401600060405180830381600087803b15801561174857600080fd5b505af115801561175c573d6000803e3d6000fd5b5050505061176a8787612f3d565b600160c955979650505050505050565b600054610100900460ff1680611793575060005460ff16155b6117af5760405162461bcd60e51b8152600401610a6490615b63565b600054610100900460ff161580156117d1576000805461ffff19166101011790555b6117d961252f565b80156117eb576000805461ff00191690555b50565b60006118156117fd4284615bf9565b611805611bb3565b6118106101c36130fc565b613109565b6118206101c36126cb565b6109e69190615d60565b6000610bb96101c361314b565b6000610bb96101c3613156565b61020454600090819061185f906001600160a01b03166128e3565b6001600160a01b0316638c7a63ae846040518263ffffffff1660e01b815260040161188c91815260200190565b60a060405180830381865afa1580156118a9573d6000803e3d6000fd5b505050506040513d601f19601f820116820180604052508101906118cd9190615c9f565b90506118d7610cf1565b8160200151146119105780602001516118ee610cf1565b604051639d07b47960e01b815260048101929092526024820152604401610a64565b60208101516040820151611927916101c391613161565b9392505050565b6119596040518060800160405280600081526020016000815260200160008152602001600081525090565b600061196f611966610cf1565b6101c390612696565b90506040518060800160405280826000015181526020018260200151815260200182604001518152602001826060015181525091505090565b6000610bb96101c361316e565b6119cd60008051602061607e83398151915233611a0b565b6119e95760405162461bcd60e51b8152600401610a6490615c0c565b610ddf613179565b6000610bb96101c36131d1565b6000610bb96101c36131dc565b60009182526065602090815260408084206001600160a01b0393909316845291905290205460ff1690565b600260c95403611a585760405162461bcd60e51b8152600401610a6490615c28565b600260c95560975460ff1615611a805760405162461bcd60e51b8152600401610a6490615c5f565b828114611aaa57604051631f4bb7c160e31b81526004810184905260248101829052604401610a64565b60005b81811015611ba75761020454600090611ace906001600160a01b03166128e3565b6001600160a01b0316638c7a63ae878785818110611aee57611aee615bb1565b905060200201356040518263ffffffff1660e01b8152600401611b1391815260200190565b60a060405180830381865afa158015611b30573d6000803e3d6000fd5b505050506040513d601f19601f82011682018060405250810190611b549190615c9f565b9050611b9181878785818110611b6c57611b6c615bb1565b90506020020135868686818110611b8557611b85615bb1565b905060200201356128ee565b5050508080611b9f90615e25565b915050611aad565b5050600160c955505050565b6000611bc16101c3426131e7565b611bcc6101c36131f3565b610bb99190615bf9565b600260c95403611bf85760405162461bcd60e51b8152600401610a6490615c28565b600260c955611c1560008051602061609e83398151915233611a0b565b611c345733604051632d4db6b160e21b8152600401610a64919061590c565b60975460ff1615611c575760405162461bcd60e51b8152600401610a6490615c5f565b6102025460ff1615611c7f576040516001620112a160e61b0319815260040160405180910390fd5b80600003611ca05760405163625cef9f60e01b815260040160405180910390fd5b6000611cad6101c3612bf6565b9050611cb981836131fe565b6102065461020454611ced916001600160a01b03908116918591611cdd911661330f565b6001600160a01b0316919061331a565b610206546040518381526001600160a01b03909116907f7411b87a3c039bdfd8f3510b21e8bd0736265f53513735e1f4aa7b4f306b728d9060200160405180910390a25050600160c955565b6000610bb96101c3613370565b611d4e611ec1565b611d6a5760405162461bcd60e51b8152600401610a6490615e3e565b610202805460ff1916600117905560405130907f90d9b09c68a7e1312ce22801552b47265d77db9496383d51374b4058545447d790600090a2565b600080600260c95403611dca5760405162461bcd60e51b8152600401610a6490615c28565b600260c95560975460ff1615611df25760405162461bcd60e51b8152600401610a6490615c5f565b611dfb8361337d565b600160c9559094909350915050565b600080600042841015611e33576040516363c09f6d60e01b815260048101859052602401610a64565b611e3c846120b0565b611e458561165d565b611e4e86610b9e565b9250925092509193909250565b611e7360008051602061609e83398151915233611a0b565b611e925733604051632d4db6b160e21b8152600401610a64919061590c565b6117eb81611ea16101c3612bf6565b90613463565b6000610bb96101c36130fc565b6000610bb96101c36134ad565b6000610bb960008051602061605e83398151915233611a0b565b611ef360008051602061609e83398151915233611a0b565b611f125733604051632d4db6b160e21b8152600401610a64919061590c565b611f1d6101c36131f3565b15611f3b5760405163854eac3360e01b815260040160405180910390fd5b610d2461020383836156da565b6000610bb96101c36134b8565b611f5d611ec1565b611f795760405162461bcd60e51b8152600401610a6490615e3e565b610202805460ff1916905560405130907f7184039938737267597232635b117c924371ac877d4329f2dfa5ca674c5cc4a590600090a2565b611fb9615721565b600260c95403611fdb5760405162461bcd60e51b8152600401610a6490615c28565b600260c95560975460ff16156120035760405162461bcd60e51b8152600401610a6490615c5f565b61200c826134c5565b600160c95592915050565b606061020380548060200260200160405190810160405280929190818152602001828054801561206657602002820191906000526020600020905b815481526020019060010190808311612052575b5050505050905090565b6000610bb96101c3613699565b6000610bb96101c36136a4565b6000828152606560205260409020600101546120a68133612705565b610d2483836127ef565b60006109e66101c3836136af565b60006109e66101c3836136bb565b61020381815481106120dd57600080fd5b600091825260209091200154905081565b6000610bb96101c36136c7565b6000600260c9540361211f5760405162461bcd60e51b8152600401610a6490615c28565b600260c95560975460ff16156121475760405162461bcd60e51b8152600401610a6490615c5f565b6121518383612f3d565b600160c9559392505050565b600054610100900460ff1680612176575060005460ff16155b6121925760405162461bcd60e51b8152600401610a6490615b63565b600054610100900460ff161580156121b4576000805461ffff19166101011790555b856001600160a01b031663f755f0006040518163ffffffff1660e01b8152600401602060405180830381865afa1580156121f2573d6000803e3d6000fd5b505050506040513d601f19601f820116820180604052508101906122169190615df6565b87106122a15786866001600160a01b031663f755f0006040518163ffffffff1660e01b8152600401602060405180830381865afa15801561225b573d6000803e3d6000fd5b505050506040513d601f19601f8201168201806040525081019061227f9190615df6565b604051636702d6b760e11b815260048101929092526024820152604401610a64565b61020480546001600160a01b03808e166001600160a01b0319928316179092556102068054928d169290911691909117905542610205556122e561020384846156da565b50610204546000906122ff906001600160a01b03166136d2565b905061230a81610a2f565b61232260008051602061609e8339815191528c612614565b61233a60008051602061609e83398151915282612614565b61236060008051602061609e83398151915260008051602061605e83398151915261261e565b506123828b8589898c8a8f6101c36136ea90979695949392919063ffffffff16565b8015612394576000805461ff00191690555b5050505050505050505050565b610204546000906123ba906001600160a01b0316613704565b610bb9906064615da0565b6123cd615721565b600260c954036123ef5760405162461bcd60e51b8152600401610a6490615c28565b600260c95560975460ff1615610ccc5760405162461bcd60e51b8152600401610a6490615c5f565b6000610bb96101c3613777565b6102045460009061243d906001600160a01b0316613784565b6001600160a01b0316631852f200836102036040518363ffffffff1660e01b815260040161246c929190615e89565b602060405180830381865afa158015612489573d6000803e3d6000fd5b505050506040513d601f19601f820116820180604052508101906109e69190615d3e565b6000611927838361378f565b6000611927838361379e565b600054610100900460ff16806124de575060005460ff16155b6124fa5760405162461bcd60e51b8152600401610a6490615b63565b600054610100900460ff161580156117d9576000805461ffff191661010117905580156117eb576000805461ff001916905550565b600054610100900460ff1680612548575060005460ff16155b6125645760405162461bcd60e51b8152600401610a6490615b63565b600054610100900460ff16158015612586576000805461ffff19166101011790555b6097805460ff1916905580156117eb576000805461ff001916905550565b600054610100900460ff16806125bd575060005460ff16155b6125d95760405162461bcd60e51b8152600401610a6490615b63565b600054610100900460ff161580156125fb576000805461ffff19166101011790555b600160c95580156117eb576000805461ff001916905550565b610b7d8282612769565b600082815260656020526040808220600101805490849055905190918391839186917fbd79b86ffe0ab8e8776151514217cd7cacd52c909f66475c3af44e129f0b00ff9190a4505050565b600061192783836137b7565b60006109e6826137dd565b60006109e6826137e9565b60006109e6826137f5565b6126c16040518060800160405280600081526020016000815260200160008152602001600081525090565b6119278383613801565b60006109e6826138b6565b600061192783836138c2565b60006109e6826001015490565b60006109e6826138d1565b60006109e682612c05565b61270f8282611a0b565b610b7d57612727816001600160a01b031660146138dd565b6127328360206138dd565b604051602001612743929190615f08565b60408051601f198184030181529082905262461bcd60e51b8252610a6491600401615f77565b6127738282611a0b565b610b7d5760008281526065602090815260408083206001600160a01b03851684529091529020805460ff191660011790556127ab3390565b6001600160a01b0316816001600160a01b0316837f2f8788117e7eff1d82e926ec794901d17c78024a50270940304540a733656f0d60405160405180910390a45050565b6127f98282611a0b565b15610b7d5760008281526065602090815260408083206001600160a01b0385168085529252808320805460ff1916905551339285917ff6391f5c32d9c69d2a47ea670b442974b53935d1edc7fd64eb21e047a839171b9190a45050565b60975460ff1661289f5760405162461bcd60e51b815260206004820152601460248201527314185d5cd8589b194e881b9bdd081c185d5cd95960621b6044820152606401610a64565b6097805460ff191690557f5db9ee0a495bf2e6ff9c91a7834c1ba4fdd244a5e8aa4e537bd38aeae4b073aa335b6040516128d9919061590c565b60405180910390a1565b60006109e682613a78565b60008060006128fe6101c3612bf6565b9050836000036129215760405163d6d9e66560e01b815260040160405180910390fd5b6102045460009061293a906001600160a01b03166128e3565b60405163430c208160e01b81529091506001600160a01b0382169063430c20819061296b9033908a90600401615d25565b602060405180830381865afa158015612988573d6000803e3d6000fd5b505050506040513d601f19601f820116820180604052508101906129ac9190615d3e565b15806129be57506129bc33612424565b155b156129e05733866040516302bb2cbd60e41b8152600401610a64929190615d25565b6000806129ec89612e15565b90925090506129fb8183615d60565b871115612a2f5786612a0d8284615d60565b6040516383a0dc4160e01b815260048101929092526024820152604401610a64565b6000612a3b8389613a90565b90506000612a49828a615bf9565b90506000612a578285613a90565b90506000612a6488613aa6565b90506003816003811115612a7a57612a7a615faa565b03612aed5760405163b819220560e01b8152600481018d905260248101839052604481018590526001600160a01b0388169063b8192205906064015b600060405180830381600087803b158015612ad057600080fd5b505af1158015612ae4573d6000803e3d6000fd5b50505050612b72565b6001816003811115612b0157612b01615faa565b03612b59578315612b1457612b14615e0f565b60208d0151612b2590899084613b10565b6040516366cbb03760e01b8152600481018d9052602481018390526001600160a01b038816906366cbb03790604401612ab6565b604051630682584b60e41b815260040160405180910390fd5b50612b9733612b818386615d60565b61020454611cdd906001600160a01b031661330f565b6020808d0151604080518681529283018490528d9233917f92f2787b755dae547f1701582fe74c7abf277ec14db316dd01abc69cacf7a259910160405180910390a4919b919a509098505050505050505050565b60006109e682613b67565b6000612c0182613b76565b5090565b60006109e682600a01613c1c565b6000612c2c82612c26600a870186613c32565b90613c5f565b949350505050565b60008080612c45600a880187613c32565b90506003612c5288613aa6565b6003811115612c6357612c63615faa565b14612c7d57612c73818686613c87565b9250925050612d0c565b6000612c8888612c05565b87148015612caf5750612c9d88602a01613cab565b6006890154612cad908a90613cb7565b105b90506000612cbc89612c05565b88108015612cd45750612cd189602a01613cab565b88105b905060008280612ce15750815b905080612cf857612cf3848989613c87565b612d03565b612d03848989613cc6565b95509550505050505b94509492505050565b60008080806003612d2587613aa6565b6003811115612d3657612d36615faa565b14612d6157612d4486613aa6565b6003604051631682f2a160e21b8152600401610a64929190615fe2565b6000612d6c87612ddc565b9050612d7787612c05565b8110612d96576040516398248d2160e01b815260040160405180910390fd5b612d9f87613cde565b15612dbd57604051633416210760e21b815260040160405180910390fd5b612dcb600a88018783613d23565b929a91995097509095509350505050565b600080612de98342613cb7565b9050612df483613cde565b612dfe5780611927565b611927816001615d60565b60006119278383613d73565b6000808260400151600003612e2f57506000928392509050565b600080612e5285602001518660400151612e476123a1565b6101c3929190613ebb565b9092509050612e62816001615d60565b85606001511115612e7557612e75615e0f565b8185608001511115612e8957612e89615e0f565b6080850151612e989083615bf9565b6060860151612ea8908390613ed7565b935093505050915091565b60006119278383613ef1565b60006109e682613f3d565b60006001600160a01b03821663b93f9b0a60055b6040518263ffffffff1660e01b8152600401612efc91815260200190565b602060405180830381865afa158015612f19573d6000803e3d6000fd5b505050506040513d601f19601f820116820180604052508101906109e69190615db4565b600080612f4b6101c3612bf6565b905082600003612f6e5760405163078e1d8560e01b815260040160405180910390fd5b612f7781612c05565b8414612fac5783612f8782612c05565b6040516001629f3b6360e01b0319815260048101929092526024820152604401610a64565b612fb533612424565b612fd45733604051631e4767b960e31b8152600401610a64919061590c565b612fde8184613f49565b61020454600090612ff7906001600160a01b03166128e3565b6001600160a01b0316635be57b6a604051806040016040528087815260200188815250336040518363ffffffff1660e01b8152600401613038929190615dd1565b6020604051808303816000875af1158015613057573d6000803e3d6000fd5b505050506040513d601f19601f8201168201806040525081019061307b9190615df6565b610204549091506130af9033903090879061309e906001600160a01b031661330f565b6001600160a01b0316929190613ff7565b8085336001600160a01b03167fcb3ef4109dcd006671348924f00aac8398190a5ff283d6e470d74581513e1036876040516130ec91815260200190565b60405180910390a4949350505050565b60006109e6826003015490565b600061311a6201518061016d615d73565b61312c90670de0b6b3a7640000615d73565b846131378486615d73565b6131419190615d73565b612c2c9190615da0565b60006109e68261402f565b60006109e68261403d565b6000612c2c848484612c13565b60006109e68261404b565b60975460ff161561319c5760405162461bcd60e51b8152600401610a6490615c5f565b6097805460ff191660011790557f62e78cea01bee320cd4e420270b5ea74000d11b0c9f74754ebdbfc544b05a2586128cc3390565b60006109e682614057565b60006109e682614065565b60006119278383614071565b60006109e682614111565b600061320983613aa6565b9050600181600381111561321f5761321f615faa565b0361328f57613231602a84014261411f565b42600784015561324083613aa6565b60405190915030907f139a6829bb850b4fb0d6617ac9f9d32e48c2dbe13e158829fa64f326fafe8e1890600090a2600281600381111561328257613282615faa565b1461328f5761328f615e0f565b60028160038111156132a3576132a3615faa565b146132c657806002604051631682f2a160e21b8152600401610a64929190615fe2565b6132cf836138d1565b82111561330257816132e0846138d1565b60405163d04a3a1160e01b815260048101929092526024820152604401610a64565b610d24600a840183614166565b60006109e682612eca565b610d248363a9059cbb60e01b8484604051602401613339929190615d25565b60408051601f198184030181529190526020810180516001600160e01b03166001600160e01b031990931692909217909152614187565b60006109e6826002015490565b60008061338b6101c3612bf6565b50610204546000906133a5906001600160a01b03166128e3565b6001600160a01b0316638c7a63ae856040518263ffffffff1660e01b81526004016133d291815260200190565b60a060405180830381865afa1580156133ef573d6000803e3d6000fd5b505050506040513d601f19601f820116820180604052508101906134139190615c9f565b905060008061342183612e15565b909250905060006134328284615d60565b90508060000361344b5750600096879650945050505050565b6134568488836128ee565b9550955050505050915091565b600061346e83613aa6565b600381111561347f5761347f615faa565b146134a55781600101546040516303e9bfa760e11b8152600401610a6491815260200190565b600190910155565b60006109e682614259565b60006109e6826006015490565b6134cd615721565b60006134da6101c3612bf6565b9050826000036134fd5760405163932ca0a360e01b815260040160405180910390fd5b6000613508826138b6565b90506000613515836137f5565b9050600061354f868484613528886137dd565b60038901546135414261353b8c82614267565b90613ed7565b61354a8b614259565b614276565b90506000816020015182600001516135679190615d60565b905060008260600151836040015161357f9190615d60565b9050600060648361358e6123a1565b6135989190615d73565b6135a29190615da0565b90506135af878385614365565b60808481015160408051868152602081018690529081019190915260608101839052309133917fd1055dc2c2a003a83dfacb1c38db776eab5ef89d77a8f05a3512e8cf57f953ce910160405180910390a3613625333061360f8587615d60565b6102045461309e906001600160a01b031661330f565b610204546136579061363f906001600160a01b03166143d8565b610204548390611cdd906001600160a01b031661330f565b60405181815230907ff3583f178a8d4f8888c3683f8e948faf9b6eb701c4f1fab265a6ecad1a1ddebb9060200160405180910390a25091979650505050505050565b60006109e6826143f0565b60006109e6826144af565b600061192783836144bb565b60006119278383614504565b60006109e682614596565b60006001600160a01b03821663b93f9b0a6007612ede565b6136fa88888888888888886145a2565b5050505050505050565b60006001600160a01b03821663fc56365860035b6040518263ffffffff1660e01b815260040161373691815260200190565b602060405180830381865afa158015613753573d6000803e3d6000fd5b505050506040513d601f19601f820116820180604052508101906109e69190615df6565b60006109e6826004015490565b60006109e6826146b5565b6000611927602a8401836146cd565b60006119276137ad8484613cb7565b600a850190614775565b60006119276137d36137c98585613cb7565b600a8601906147b0565b61353b858561379e565b60006109e682426137b7565b60006109e68242613d73565b60006109e68242613ef1565b61382c6040518060800160405280600081526020016000815260200160008152602001600081525090565b600061383b600a850184613c32565b9050613848816003015490565b60608301528054825261385a846147ec565b8015613870575061386d84602a01613cab565b83105b1561389a57600281015460018201546138899190615d60565b6020830152600060408301526138af565b60018101546020830152600281015460408301525b5092915050565b60006109e682426144bb565b6000611927602a8401836147fa565b60006109e68242614071565b606060006138ec836002615d73565b6138f7906002615d60565b6001600160401b0381111561390e5761390e615c89565b6040519080825280601f01601f191660200182016040528015613938576020820181803683370190505b509050600360fc1b8160008151811061395357613953615bb1565b60200101906001600160f81b031916908160001a905350600f60fb1b8160018151811061398257613982615bb1565b60200101906001600160f81b031916908160001a90535060006139a6846002615d73565b6139b1906001615d60565b90505b6001811115613a29576f181899199a1a9b1b9c1cb0b131b232b360811b85600f16601081106139e5576139e5615bb1565b1a60f81b8282815181106139fb576139fb615bb1565b60200101906001600160f81b031916908160001a90535060049490941c93613a2281615ffd565b90506139b4565b5083156119275760405162461bcd60e51b815260206004820181905260248201527f537472696e67733a20686578206c656e67746820696e73756666696369656e746044820152606401610a64565b60006001600160a01b03821663b93f9b0a600c612ede565b6000818310613a9f5781611927565b5090919050565b6000613ab482602a01614890565b613ad25781600101544210613aca5760016109e6565b600092915050565b8154613ae6906001600160a01b03166148a6565b613aef8361402f565b613af99190615d60565b421015613b0857506002919050565b506003919050565b6000613b1b84613aa6565b90506001816003811115613b3157613b31615faa565b14613b5457806001604051631682f2a160e21b8152600401610a64929190615fe2565b613b61600a8501836148be565b50505050565b60006109e6602a8301426148db565b6000613b8182613aa6565b90506001816003811115613b9757613b97615faa565b03613ba0575050565b6000613bae83602a0161496d565b90506000613bcc846006015485602a0161497590919063ffffffff16565b905080821115613be357613be3600a8501836149dc565b613bec846143f0565b6007850155613bfa84614065565b6008850155613c08846137e9565b600985015550504260069092019190915550565b60006001613c28835490565b6109e69190615bf9565b6000826000018281548110613c4957613c49615bb1565b9060005260206000209060200201905092915050565b6000613c69835490565b82613c7385614a5a565b613c7d9190615d73565b6119279190615da0565b600080613c95858585614a6d565b613c9f8686614aa3565b91509150935093915050565b60006109e68242614ab9565b6000611927602a840183614ab9565b600080613cd4858585614a6d565b613c9f8686614b20565b600080613ced83602a0161496d565b90506000613cfd84602a01614b45565b9050836005015481613d0f9190615bf9565b613d198284616014565b1015949350505050565b600080600080613d4686613d40613d398a613c1c565b8a90613c32565b90614b8d565b92965090945092509050613d6a84848484613d618c8b613c32565b93929190614ca0565b93509350935093565b60008260060154821015613daa57600683015460405163d91ecab360e01b8152610a64918491600401918252602082015260400190565b613db683602a01614890565b613dc2575060006109e6565b50600982015481613dd28461403d565b846006015411613e08576000613df8856006015486602a01614d1190919063ffffffff16565b9050613e048185613a90565b9150505b60068401548454600091613e59916201518090613e2d906001600160a01b0316614d78565b613e379190615d73565b6007880154613e4a90602a8a01906147fa565b613e549190615d60565b614d90565b9050613e8085600601548383613e7189600a01614da0565b89600301548a60040154614de3565b613e8a9084615d60565b925083821015613eb357613ea6828583613e7189600a01614e54565b613eb09084615d60565b92505b505092915050565b600080613eca86868686612c34565b9150915094509492505050565b6000828211613ee857818303611927565b50600092915050565b600042821015613f17576040516363c09f6d60e01b815260048101839052602401610a64565b611927613f33613f2985600a01614e91565b613e548686614504565b61353b8585613d73565b60006109e6824261379e565b6000613f5483613aa6565b90506001816003811115613f6a57613f6a615faa565b14613f8d57806001604051631682f2a160e21b8152600401610a64929190615fe2565b6002830154613f9e84600a01614ed0565b613fa89084615d60565b1115613fea5781613fbb84600a01614ed0565b600285015460405163b28e2ed760e01b8152600481019390935260248301919091526044820152606401610a64565b610d24600a840183614f08565b6040516001600160a01b0380851660248301528316604482015260648101829052613b619085906323b872dd60e01b90608401613339565b60006109e682602a01614f1e565b60006109e682602a01614f72565b60006109e68242614fc6565b60006109e682600a01614e91565b60006109e68242614504565b600061407f83600a01615070565b905061408a836147ec565b156109e657600061409b8484613cb7565b90506140b4846006015485613cb790919063ffffffff16565b8111156140e8576140db6140d46140ca86612c05565b600a870190613c32565b6002015490565b6140e59083615d60565b91505b6141076140fd826140f887612c05565b613a90565b600a8601906150af565b612c2c9083615d60565b60006109e682600a01614ed0565b8154600160a01b90046001600160401b03161561413e5761413e615e0f565b81546001600160401b03909116600160a01b0267ffffffffffffffff60a01b19909116179055565b600061417b61417484613c1c565b8490613c32565b9050610d2481836150e6565b60006141dc826040518060400160405280602081526020017f5361666545524332303a206c6f772d6c6576656c2063616c6c206661696c6564815250856001600160a01b03166151389092919063ffffffff16565b805190915015610d2457808060200190518101906141fa9190615d3e565b610d245760405162461bcd60e51b815260206004820152602a60248201527f5361666545524332303a204552433230206f7065726174696f6e20646964206e6044820152691bdd081cdd58d8d9595960b21b6064820152608401610a64565b60006109e682600a01614e54565b6000611927602a840183614d11565b61427e615721565b87600061428b8983613a90565b90506142978183615bf9565b915060006142a58884613a90565b90506142b18184615bf9565b925060006142bf8a85613a90565b90506142cb8185615bf9565b935060006142d98388615bf9565b905060006142e889838c613109565b905060006142f68288613a90565b90506143028188615bf9565b965060006143108885613a90565b905061431c8189615bf9565b97506040518060a00160405280888152602001838761433b9190615d60565b81526020018781526020018281526020018981525098505050505050505050979650505050505050565b600361437084613aa6565b600381111561438157614381615faa565b1461438f57612d4483613aa6565b6143ac82826143a086602a01613cab565b600a8701929190615147565b6143b5836137dd565b1580156143c857506143c6836138b6565b155b15610d2457426007840155505050565b60006001600160a01b03821663b93f9b0a6006612ede565b600060036143fd83613aa6565b600381111561440e5761440e615faa565b1461441a575042919050565b506007810154600682015460009061443690602a850190614975565b9050600061444684602a0161496d565b9050815b818110156144a7576000614461602a87018361521e565b905061446d86826137b7565b158015614481575061447f86826144bb565b155b1561448e57809450614494565b506144a7565b508061449f81615e25565b91505061444a565b505050919050565b60006109e682426138c2565b600082600601548210156144f257600683015460405163d91ecab360e01b8152610a64918491600401918252602082015260400190565b6119276144fe84614057565b61353b85855b6000826006015482101561453b57600683015460405163d91ecab360e01b8152610a64918491600401918252602082015260400190565b6145448361403d565b82111561455c576145558383613d73565b90506109e6565b600061456b602a850184615285565b90508360060154811161458457505060088201546109e6565b61458e8482613d73565b9150506109e6565b60006109e68242614267565b6006880154156145c5576040516379c6736560e11b815260040160405180910390fd5b87546001600160a01b0319166001600160a01b0388811691909117895560028901829055600589018690556040805180820182529186168083526000602093840152602a8b0180546001600160e01b03191682179055815163e08cf88360e01b8152915161468493919263e08cf8839260048083019391928290030181865afa158015614656573d6000803e3d6000fd5b505050506040513d601f19601f8201168201806040525081019061467a9190615df6565b600a8a01906152ec565b5050600387019190915560048601555050426006840181905560078401555050600060098201819055600890910155565b60006001600160a01b03821663b93f9b0a6013612ede565b6000826146d981614890565b6146f55760405162461bcd60e51b8152600401610a6490615c0c565b83546040516347487c0160e01b81526001600160a01b038216916347487c019161473491600160a01b90046001600160401b0316908790600401616028565b602060405180830381865afa158015614751573d6000803e3d6000fd5b505050506040513d601f19601f82011682018060405250810190612c2c9190615df6565b6000805b828110156138af5761479261478e8583613c32565b5490565b61479c9083615d60565b9150806147a881615e25565b915050614779565b6000805b828110156138af576147ce6147c98583613c32565b6153bd565b6147d89083615d60565b9150806147e481615e25565b9150506147b4565b60006109e682602a01614890565b600061480583614890565b614810576000611927565b82546040516308ba6bcb60e41b81526001600160a01b03821691638ba6bcb09161484f91600160a01b90046001600160401b0316908690600401616028565b602060405180830381865afa15801561486c573d6000803e3d6000fd5b505050506040513d601f19601f820116820180604052508101906119279190615df6565b54600160a01b90046001600160401b0316151590565b60006001600160a01b03821663fc5636586007613718565b610b7d816148d56148ce85613c1c565b8590613c32565b906153d3565b60006148e683614890565b158061192757508254604051634922ed6b60e11b81526001600160a01b03821691639245dad69161492c91600160a01b90046001600160401b0316908690600401616028565b602060405180830381865afa158015614949573d6000803e3d6000fd5b505050506040513d601f19601f820116820180604052508101906119279190615d3e565b60006109e682425b60008261498181614890565b61499d5760405162461bcd60e51b8152600401610a6490615c0c565b8354604051636a3d374160e11b81526001600160a01b0382169163d47a6e829161473491600160a01b90046001600160401b0316908790600401616028565b60006149e783613c1c565b905060006149f58483613c32565b9050614a0081615414565b60005b8381108015614a1157508281105b15614a5357614a41856000018281548110614a2e57614a2e615bb1565b9060005260206000209060200201615414565b80614a4b81615e25565b915050614a03565b5050505050565b600181015481546000916109e691615bf9565b6000614a77845490565b614a82906064615d73565b614a8d836064615bf9565b84614a99876003015490565b6131379190615d73565b6000614aad835490565b82613c73856001015490565b600082614ac581614890565b614ae15760405162461bcd60e51b8152600401610a6490615c0c565b83546040516356bd011960e01b81526001600160a01b038216916356bd01199161473491600160a01b90046001600160401b0316908790600401616028565b6000614b2a835490565b828460020154614b3b866001015490565b613c739190615d60565b805460408051620f755f60ec1b815290516000926001600160a01b03169163f755f0009160048083019260209291908290030181865afa158015613753573d6000803e3d6000fd5b6000806000806000614b9e87614a5a565b905080861115614bb057614bb0615e0f565b614bbe876002015487613a90565b925080868860000154614bd19190615d73565b614bdb9190615da0565b9450614be78686615bf9565b93508660000154858860030154614bfe9190615d73565b614c089190615da0565b915083876001016000828254614c1e9190615bf9565b9250508190555081876003016000828254614c399190615bf9565b9091555050865485908890600090614c52908490615bf9565b9250508190555082876002016000828254614c6d9190615bf9565b909155505060028701546001880154614c869190615d60565b87541015614c9657614c96615e0f565b5092959194509250565b83856000016000828254614cb49190615d60565b9250508190555082856001016000828254614ccf9190615d60565b9250508190555081856002016000828254614cea9190615d60565b9250508190555080856003016000828254614d059190615d60565b90915550505050505050565b600082614d1d81614890565b614d395760405162461bcd60e51b8152600401610a6490615c0c565b8354604051635c16b67360e11b81526001600160a01b0382169163b82d6ce69161473491600160a01b90046001600160401b0316908790600401616028565b60006001600160a01b03821663fc5636586005613718565b600081831015613a9f5781611927565b6000805b8254811015614ddd57614dbf614dba8483613c32565b614a5a565b614dc99083615d60565b915080614dd581615e25565b915050614da4565b50919050565b6000868611614df457506000614e4a565b6000614e008888615bf9565b9050614e0d818686613109565b915086861015614e48576000614e2d614e26888b614d90565b8990613ed7565b9050614e3a818786613109565b614e449084615d60565b9250505b505b9695505050505050565b6000805b8254811015614ddd57614e73614e6e8483613c32565b61543b565b614e7d9083615d60565b915080614e8981615e25565b915050614e58565b6000805b8254811015614ddd57614eb2614eab8483613c32565b6003015490565b614ebc9083615d60565b915080614ec881615e25565b915050614e95565b6000805b8254811015614ddd57614eea61478e8483613c32565b614ef49083615d60565b915080614f0081615e25565b915050614ed4565b610b7d81614f186148ce85613c1c565b90615454565b6000614f2982614890565b614f345760006109e6565b815460405163df3dc09160e01b8152600160a01b82046001600160401b031660048201526001600160a01b039091169063df3dc09190602401613736565b6000614f7d82614890565b614f885760006109e6565b81546040516334a88f4360e01b8152600160a01b82046001600160401b031660048201526001600160a01b03909116906334a88f4390602401613736565b60006003614fd384613aa6565b6003811115614fe457614fe4615faa565b14158061500c5750614ff68383614504565b615000848461379e565b61500a9190615d60565b155b15615019575060006109e6565b82546000906201518090615035906001600160a01b0316614d78565b61503f9190615d73565b9050600061505961504f866143f0565b602a8701906147fa565b90506150658282615d60565b909311949350505050565b6000805b8254811015614ddd5761509161508a8483613c32565b6001015490565b61509b9083615d60565b9150806150a781615e25565b915050615074565b6000805b828110156138af576150c86140d48583613c32565b6150d29083615d60565b9150806150de81615e25565b9150506150b3565b816001015481111561511b57600182015460405163d04a3a1160e01b8152610a64918391600401918252602082015260400190565b8082600101600082825461512f9190615bf9565b90915550505050565b6060612c2c8484600085615495565b600061515285614da0565b9050806000036151785760405163b6aca02f60e01b815260048101859052602401610a64565b60005b855481101561520f5760006151908783613c32565b905060008361519e83614a5a565b6151a89088615d73565b6151b29190615da0565b905060006151c86151c28461543b565b89613a90565b90506151d48189615bf9565b9750858410156151ee576151e98382846155bd565b6151f9565b6151f9838284615625565b505050808061520790615e25565b91505061517b565b508315614a5357614a53615e0f565b60008261522a81614890565b6152465760405162461bcd60e51b8152600401610a6490615c0c565b8354604051638dfdc69560e01b81526001600160a01b03821691638dfdc6959161473491600160a01b90046001600160401b0316908790600401616028565b60008261529181614890565b6152ad5760405162461bcd60e51b8152600401610a6490615c0c565b8354604051630103299960e31b81526001600160a01b038216916308194cc89161473491600160a01b90046001600160401b0316908790600401616028565b81546000901561530f576040516379c6736560e11b815260040160405180910390fd5b600282101561533b5760405163ddc8b40f60e01b81526004810183905260026024820152604401610a64565b60005b828110156153b55761534e615750565b8454600181810187556000878152602090819020845193820201928355830151908201556040820151600282015560608201516003820155608082015182919061539e906004830190601c615784565b5050505080806153ad90615e25565b91505061533e565b509192915050565b6000816002015482600101546109e69190615d60565b6003820154156153e5576153e5615e0f565b808260000160008282546153f99190615bf9565b925050819055508082600101600082825461512f9190615bf9565b806002015481600101600082825461542c9190615d60565b90915550506000600290910155565b60028101546001820154825460009291613c2891615bf9565b60038201541561546657615466615e0f565b8082600001600082825461547a9190615d60565b925050819055508082600101600082825461512f9190615d60565b6060824710156154f65760405162461bcd60e51b815260206004820152602660248201527f416464726573733a20696e73756666696369656e742062616c616e636520666f6044820152651c8818d85b1b60d21b6064820152608401610a64565b843b6155445760405162461bcd60e51b815260206004820152601d60248201527f416464726573733a2063616c6c20746f206e6f6e2d636f6e74726163740000006044820152606401610a64565b600080866001600160a01b031685876040516155609190616041565b60006040518083038185875af1925050503d806000811461559d576040519150601f19603f3d011682016040523d82523d6000602084013e6155a2565b606091505b50915091506155b2828286615683565b979650505050505050565b825482846002015485600101546155d49190615d60565b6155de9190615d60565b11156155ec576155ec615e0f565b808360030160008282546156009190615d60565b925050819055508183600101600082825461561b9190615d60565b9091555050505050565b8254828460020154856001015461563c9190615d60565b6156469190615d60565b111561565457615654615e0f565b808360030160008282546156689190615d60565b925050819055508183600201600082825461561b9190615d60565b60608315615692575081611927565b8251156156a25782518084602001fd5b8160405162461bcd60e51b8152600401610a649190615f77565b60405180606001604052806003906020820280368337509192915050565b828054828255906000526020600020908101928215615715579160200282015b828111156157155782358255916020019190600101906156fa565b50612c019291506157b2565b6040518060a0016040528060008152602001600081526020016000815260200160008152602001600081525090565b6040518060a001604052806000815260200160008152602001600081526020016000815260200161577f6157c7565b905290565b82601c8101928215615715579160200282015b82811115615715578251825591602001919060010190615797565b5b80821115612c0157600081556001016157b3565b604051806103800160405280601c906020820280368337509192915050565b6000602082840312156157f857600080fd5b5035919050565b60006020828403121561581157600080fd5b81356001600160e01b03198116811461192757600080fd5b6001600160a01b03811681146117eb57600080fd5b60006020828403121561585057600080fd5b813561192781615829565b60608101818360005b600381101561588657815160ff16835260209283019290910190600101615864565b50505092915050565b81518152602080830151908201526040808301519082015260608083015190820152608081016109e6565b600080604083850312156158cd57600080fd5b8235915060208301356158df81615829565b809150509250929050565b600080604083850312156158fd57600080fd5b50508035926020909101359150565b6001600160a01b0391909116815260200190565b60008060008060008060c0878903121561593957600080fd5b863595506020870135945060408701359350606087013560ff8116811461595f57600080fd5b9598949750929560808101359460a0909101359350915050565b60008083601f84011261598b57600080fd5b5081356001600160401b038111156159a257600080fd5b6020830191508360208260051b85010111156159bd57600080fd5b9250929050565b600080600080604085870312156159da57600080fd5b84356001600160401b03808211156159f157600080fd5b6159fd88838901615979565b90965094506020870135915080821115615a1657600080fd5b50615a2387828801615979565b95989497509550505050565b60008060208385031215615a4257600080fd5b82356001600160401b03811115615a5857600080fd5b615a6485828601615979565b90969095509350505050565b6020808252825182820181905260009190848201906040850190845b81811015615aa857835183529284019291840191600101615a8c565b50909695505050505050565b6000806000806000806000806000806101208b8d031215615ad457600080fd5b8a35615adf81615829565b995060208b0135615aef81615829565b985060408b0135975060608b0135965060808b0135955060a08b0135615b1481615829565b945060c08b0135935060e08b013592506101008b01356001600160401b03811115615b3e57600080fd5b615b4a8d828e01615979565b915080935050809150509295989b9194979a5092959850565b6020808252602e908201527f496e697469616c697a61626c653a20636f6e747261637420697320616c72656160408201526d191e481a5b9a5d1a585b1a5e995960921b606082015260800190565b634e487b7160e01b600052603260045260246000fd5b602080825260029082015261555360f01b604082015260600190565b634e487b7160e01b600052601160045260246000fd5b818103818111156109e6576109e6615be3565b6020808252600290820152614e4160f01b604082015260600190565b6020808252601f908201527f5265656e7472616e637947756172643a207265656e7472616e742063616c6c00604082015260600190565b60208082526010908201526f14185d5cd8589b194e881c185d5cd95960821b604082015260600190565b634e487b7160e01b600052604160045260246000fd5b600060a08284031215615cb157600080fd5b60405160a081018181106001600160401b0382111715615ce157634e487b7160e01b600052604160045260246000fd5b6040528251615cef81615829565b80825250602083015160208201526040830151604082015260608301516060820152608083015160808201528091505092915050565b6001600160a01b03929092168252602082015260400190565b600060208284031215615d5057600080fd5b8151801515811461192757600080fd5b808201808211156109e6576109e6615be3565b80820281158282048414176109e6576109e6615be3565b634e487b7160e01b600052601260045260246000fd5b600082615daf57615daf615d8a565b500490565b600060208284031215615dc657600080fd5b815161192781615829565b82518152602092830151928101929092526001600160a01b0316604082015260600190565b600060208284031215615e0857600080fd5b5051919050565b634e487b7160e01b600052600160045260246000fd5b600060018201615e3757615e37615be3565b5060010190565b6020808252602b908201527f4d75737420686176652061646d696e20726f6c6520746f20706572666f726d2060408201526a3a3434b99030b1ba34b7b760a91b606082015260800190565b6001600160a01b0383168152604060208083018290528354918301829052600084815281812090929091906060850190845b81811015615ed757845483526001948501949284019201615ebb565b5090979650505050505050565b60005b83811015615eff578181015183820152602001615ee7565b50506000910152565b76020b1b1b2b9b9a1b7b73a3937b61d1030b1b1b7bab73a1604d1b815260008351615f3a816017850160208801615ee4565b7001034b99036b4b9b9b4b733903937b6329607d1b6017918401918201528351615f6b816028840160208801615ee4565b01602801949350505050565b6020815260008251806020840152615f96816040850160208701615ee4565b601f01601f19169190910160400192915050565b634e487b7160e01b600052602160045260246000fd5b60048110615fde57634e487b7160e01b600052602160045260246000fd5b9052565b60408101615ff08285615fc0565b6119276020830184615fc0565b60008161600c5761600c615be3565b506000190190565b60008261602357616023615d8a565b500690565b6001600160401b03929092168252602082015260400190565b60008251616053818460208701615ee4565b919091019291505056feb19546dff01e856fb3f010c267a7b1c60363cf8a4664e21cc89c26224620214e65d7a28e3265b37a6474929f336521b332c1681b933f6cb9f3376673440d862aaf9a8bb3cbd6b84fbccefa71ff73e26e798553c6914585a84886212a46a90279a26469706673582212204e7bd9fa8669e85c35965a3656ce891a4f63f9696f41a771ce48db0528089eed64736f6c63430008110033",
  "devdoc": {
    "author": "Warbler Labs",
    "kind": "dev",
    "methods": {
      "availableToWithdraw(uint256)": {
        "params": {
          "tokenId": "position to query max amount withdrawable for"
        },
        "returns": {
          "_0": "total interest withdrawable on the position",
          "_1": "total principal redeemable on the position"
        }
      },
      "deposit(uint256,uint256)": {
        "params": {
          "amount": "amount of capital to supply",
          "tranche": "Should always be uncalled capital tranche index."
        },
        "returns": {
          "_0": "tokenId NFT representing your position in this pool"
        }
      },
      "depositWithPermit(uint256,uint256,uint256,uint8,bytes32,bytes32)": {
        "params": {
          "amount": "amount of capital to supply",
          "deadline": "deadline of permit operation",
          "r": "r portion of signature",
          "s": "s portion of signature",
          "tranche": "Should always be uncalled capital tranche index.",
          "v": "v portion of signature"
        },
        "returns": {
          "tokenId": "NFT representing your position in this pool"
        }
      },
      "drawdown(uint256)": {
        "params": {
          "amount": "USDC to drawdown. This amount is transferred to the caller"
        }
      },
      "getAmountsOwed(uint256)": {
        "params": {
          "timestamp": "time to calculate up to"
        },
        "returns": {
          "returnedInterestAccrued": "amount of accrued interest (not yet owed) that can be paid at `timestamp`",
          "returnedInterestOwed": "amount of obligated interest owed at `timestamp`",
          "returnedPrincipalOwed": "amount of principal owed at `timestamp`"
        }
      },
      "getRoleAdmin(bytes32)": {
        "details": "Returns the admin role that controls `role`. See {grantRole} and {revokeRole}. To change a role's admin, use {_setRoleAdmin}."
      },
      "grantRole(bytes32,address)": {
        "details": "Grants `role` to `account`. If `account` had not been already granted `role`, emits a {RoleGranted} event. Requirements: - the caller must have ``role``'s admin role."
      },
      "hasRole(bytes32,address)": {
        "details": "Returns `true` if `account` has been granted `role`."
      },
      "initialize(address,address,uint256,uint256,uint256,address,uint256,uint256,uint256[])": {
        "params": {
          "_borrower": "address of borrower, a non-transferrable role for performing privileged actions like   drawdown",
          "_config": "address of GoldfinchConfig",
          "_fundableAt": "earliest time at which the first slice can be funded",
          "_interestApr": "interest rate for the loan",
          "_lateFeeApr": "late fee interest rate for the loan, which kicks in `LatenessGracePeriodInDays` days after a   payment becomes late",
          "_limit": "the number of periods at the tail end of a principal period during which call requests rollover   to the next principal period."
        }
      },
      "pause()": {
        "details": "Pauses all functions guarded by Pause See {Pausable-_pause}. Requirements: - the caller must have the PAUSER_ROLE."
      },
      "paused()": {
        "details": "Returns true if the contract is paused, and false otherwise."
      },
      "pay(uint256)": {
        "details": "{this} must be approved by msg.sender to transfer {amount} of USDC",
        "params": {
          "amount": "USDC amount to pay"
        },
        "returns": {
          "_0": "PaymentAllocation info on how the payment was allocated"
        }
      },
      "renounceRole(bytes32,address)": {
        "details": "Revokes `role` from the calling account. Roles are often managed via {grantRole} and {revokeRole}: this function's purpose is to provide a mechanism for accounts to lose their privileges if they are compromised (such as when a trusted device is misplaced). If the calling account had been granted `role`, emits a {RoleRevoked} event. Requirements: - the caller must be `account`."
      },
      "revokeRole(bytes32,address)": {
        "details": "Revokes `role` from `account`. If `account` had been granted `role`, emits a {RoleRevoked} event. Requirements: - the caller must have ``role``'s admin role."
      },
      "submitCall(uint256,uint256)": {
        "params": {
          "callAmount": "Amount of capital to call back",
          "poolTokenId": "Pool token id to be called back."
        },
        "returns": {
          "callRequestedTokenId": " Token id of the call requested token.",
          "remainingTokenId": "Token id of the remaining token."
        }
      },
      "supportsInterface(bytes4)": {
        "details": "See {IERC165-supportsInterface}."
      },
      "unpause()": {
        "details": "Unpauses the contract See {Pausable-_unpause}. Requirements: - the caller must have the Pauser role"
      },
      "withdraw(uint256,uint256)": {
        "params": {
          "amount": "amount to withdraw (must be <= interest+principal available to withdraw)",
          "tokenId": "the NFT representing the position"
        },
        "returns": {
          "_0": "interest withdrawn",
          "_1": "principal withdrawn"
        }
      },
      "withdrawMultiple(uint256[],uint256[])": {
        "params": {
          "amounts": "amounts to withdraw from positions such that amounts[i] is withdrawn from position tokenIds[i]",
          "tokenIds": "NFT positions to withdraw. Caller must be an owner or approved on all tokens in the array"
        }
      }
    },
    "title": "CallableLoan",
    "version": 1
  },
  "userdoc": {
    "events": {
      "PaymentApplied(address,address,uint256,uint256,uint256,uint256)": {
        "notice": "Event emitted on payment"
      },
      "WithdrawalMade(address,uint256,uint256,uint256,uint256)": {
        "notice": "While owner is the label of the first argument, it is actually the sender of the transaction."
      }
    },
    "kind": "user",
    "methods": {
      "availableToWithdraw(uint256)": {
        "notice": "Query the max amount available to withdraw for tokenId's position"
      },
      "createdAt()": {
        "notice": "Time when the pool was initialized. Zero if uninitialized"
      },
      "creditLine()": {
        "notice": "Pool's credit line, responsible for managing the loan's accounting variables"
      },
      "deposit(uint256,uint256)": {
        "notice": "Supply capital to the loan."
      },
      "depositWithPermit(uint256,uint256,uint256,uint8,bytes32,bytes32)": {
        "notice": "Supply capital to the loan."
      },
      "drawdown(uint256)": {
        "notice": "Drawdown the loan. The credit line's balance should increase by the amount drawn down.   Junior capital must be locked before this function can be called. If senior capital isn't locked   then this function will lock it for you (convenience to avoid calling lockPool() separately).   This function should revert if the amount requested exceeds the the current slice's currentLimit   This function should revert if the caller is not the borrower."
      },
      "estimateOwedInterestAt(uint256)": {
        "notice": "TODO: Low priority tests - only used for frontend estimations of interest payments."
      },
      "getAmountsOwed(uint256)": {
        "notice": "Compute interest and principal owed on the current balance at a future timestamp"
      },
      "getVersion()": {
        "notice": "Returns the version triplet `[major, minor, patch]`"
      },
      "initialize(address,address,uint256,uint256,uint256,address,uint256,uint256,uint256[])": {
        "notice": "Initialize the pool. Can only be called once, and should be called in the same transaction as   contract creation to avoid initialization front-running"
      },
      "interestAccrued()": {
        "notice": "Interest accrued in the current payment period up to now. Converted to   owed interest once we cross into the next payment period. Is 0 if the   current time is after loan maturity (all interest accrued immediately becomes   interest owed)."
      },
      "interestAccruedAsOf()": {
        "notice": "We keep this to conform to the ICreditLine interface, but it's redundant information   now that we have `checkpointedAsOf`"
      },
      "interestAccruedAt(uint256)": {
        "notice": "Interest accrued in the current payment period for `timestamp`. Coverted to   owed interest once we cross into the payment period after `timestamp`. Is 0   if `timestamp` is after loan maturity (all interest accrued immediately becomes   interest owed)."
      },
      "interestBearingBalance()": {
        "notice": "TODO: Low priority tests - currently only used for tests and frontend"
      },
      "interestOwedAt(uint256)": {
        "notice": "Interest that would be owed at `timestamp`"
      },
      "maxLimit()": {
        "notice": "Unsupported in callable loans."
      },
      "pauseDrawdowns()": {
        "notice": "Pauses all drawdowns (but not deposits/withdraws)"
      },
      "pay(uint256)": {
        "notice": "Pay down interest + principal. Excess payments are refunded to the caller"
      },
      "pay(uint256,uint256)": {
        "notice": "Unsupported in callable loans."
      },
      "principalOwedAt(uint256)": {
        "notice": "Principal owed up to `timestamp`"
      },
      "setAllowedUIDTypes(uint256[])": {
        "notice": "Set accepted UID types for the loan. Requires that users have not already begun to deposit."
      },
      "setFundableAt(uint256)": {
        "notice": "Update `fundableAt` to a new timestamp. Only the borrower can call this."
      },
      "setLimit(uint256)": {
        "notice": "Unsupported ICreditLine method kept for ICreditLine conformance"
      },
      "setMaxLimit(uint256)": {
        "notice": "Unsupported in callable loans."
      },
      "submitCall(uint256,uint256)": {
        "notice": "Submit a call request for the given amount of capital.         The borrower is obligated to pay the call request back at the end of the         corresponding call request period."
      },
      "termStartTime()": {
        "notice": "Time of first drawdown"
      },
      "totalInterestAccrued()": {
        "notice": "Cumulative interest accrued up to now"
      },
      "totalInterestAccruedAt(uint256)": {
        "notice": "Cumulative interest accrued up to `timestamp`"
      },
      "totalInterestOwed()": {
        "notice": "Cumulative interest owed up to now"
      },
      "totalInterestOwedAt(uint256)": {
        "notice": "Cumulative interest owed up to `timestamp`"
      },
      "totalInterestPaid()": {
        "notice": "Cumulative interest paid back up to now"
      },
      "totalPrincipalOwed()": {
        "notice": "Cumulative principal owed at current timestamp"
      },
      "totalPrincipalOwedAt(uint256)": {
        "notice": "Cumulative principal owed at timestamp"
      },
      "totalPrincipalPaid()": {
        "notice": "Returns the total amount of principal thats been paid"
      },
      "unpauseDrawdowns()": {
        "notice": "Unpause drawdowns"
      },
      "withdraw(uint256,uint256)": {
        "notice": "Withdraw an already deposited amount if the funds are available. Caller must be the owner or   approved by the owner on tokenId. Amount withdrawn is sent to the caller."
      },
      "withdrawMax(uint256)": {
        "notice": "Similar to withdraw but withdraw the max interest and principal available for `tokenId`"
      },
      "withdrawMultiple(uint256[],uint256[])": {
        "notice": "Withdraw from multiple tokens"
      }
    },
    "notice": "A loan that allows the lenders to call back capital from the borrower.",
    "version": 1
  },
  "storageLayout": {
    "storage": [
      {
        "astId": 663,
        "contract": "contracts/protocol/core/callable/CallableLoan.sol:CallableLoan",
        "label": "_initialized",
        "offset": 0,
        "slot": "0",
        "type": "t_bool"
      },
      {
        "astId": 666,
        "contract": "contracts/protocol/core/callable/CallableLoan.sol:CallableLoan",
        "label": "_initializing",
        "offset": 1,
        "slot": "0",
        "type": "t_bool"
      },
      {
        "astId": 3057,
        "contract": "contracts/protocol/core/callable/CallableLoan.sol:CallableLoan",
        "label": "__gap",
        "offset": 0,
        "slot": "1",
        "type": "t_array(t_uint256)50_storage"
      },
      {
        "astId": 3673,
        "contract": "contracts/protocol/core/callable/CallableLoan.sol:CallableLoan",
        "label": "__gap",
        "offset": 0,
        "slot": "51",
        "type": "t_array(t_uint256)50_storage"
      },
      {
        "astId": 258,
        "contract": "contracts/protocol/core/callable/CallableLoan.sol:CallableLoan",
        "label": "_roles",
        "offset": 0,
        "slot": "101",
        "type": "t_mapping(t_bytes32,t_struct(RoleData)253_storage)"
      },
      {
        "astId": 543,
        "contract": "contracts/protocol/core/callable/CallableLoan.sol:CallableLoan",
        "label": "__gap",
        "offset": 0,
        "slot": "102",
        "type": "t_array(t_uint256)49_storage"
      },
      {
        "astId": 724,
        "contract": "contracts/protocol/core/callable/CallableLoan.sol:CallableLoan",
        "label": "_paused",
        "offset": 0,
        "slot": "151",
        "type": "t_bool"
      },
      {
        "astId": 815,
        "contract": "contracts/protocol/core/callable/CallableLoan.sol:CallableLoan",
        "label": "__gap",
        "offset": 0,
        "slot": "152",
        "type": "t_array(t_uint256)49_storage"
      },
      {
        "astId": 830,
        "contract": "contracts/protocol/core/callable/CallableLoan.sol:CallableLoan",
        "label": "_status",
        "offset": 0,
        "slot": "201",
        "type": "t_uint256"
      },
      {
        "astId": 873,
        "contract": "contracts/protocol/core/callable/CallableLoan.sol:CallableLoan",
        "label": "__gap",
        "offset": 0,
        "slot": "202",
        "type": "t_array(t_uint256)49_storage"
      },
      {
        "astId": 11740,
        "contract": "contracts/protocol/core/callable/CallableLoan.sol:CallableLoan",
        "label": "__gap1",
        "offset": 0,
        "slot": "251",
        "type": "t_array(t_uint256)50_storage"
      },
      {
        "astId": 11744,
        "contract": "contracts/protocol/core/callable/CallableLoan.sol:CallableLoan",
        "label": "__gap2",
        "offset": 0,
        "slot": "301",
        "type": "t_array(t_uint256)50_storage"
      },
      {
        "astId": 11748,
        "contract": "contracts/protocol/core/callable/CallableLoan.sol:CallableLoan",
        "label": "__gap3",
        "offset": 0,
        "slot": "351",
        "type": "t_array(t_uint256)50_storage"
      },
      {
        "astId": 11752,
        "contract": "contracts/protocol/core/callable/CallableLoan.sol:CallableLoan",
        "label": "__gap4",
        "offset": 0,
        "slot": "401",
        "type": "t_array(t_uint256)50_storage"
      },
      {
        "astId": 12292,
        "contract": "contracts/protocol/core/callable/CallableLoan.sol:CallableLoan",
        "label": "_staleCreditLine",
        "offset": 0,
        "slot": "451",
        "type": "t_struct(StaleCallableCreditLine)16942_storage"
      },
      {
        "astId": 12294,
        "contract": "contracts/protocol/core/callable/CallableLoan.sol:CallableLoan",
        "label": "drawdownsPaused",
        "offset": 0,
        "slot": "514",
        "type": "t_bool"
      },
      {
        "astId": 12297,
        "contract": "contracts/protocol/core/callable/CallableLoan.sol:CallableLoan",
        "label": "allowedUIDTypes",
        "offset": 0,
        "slot": "515",
        "type": "t_array(t_uint256)dyn_storage"
      },
      {
        "astId": 12300,
        "contract": "contracts/protocol/core/callable/CallableLoan.sol:CallableLoan",
        "label": "config",
        "offset": 0,
        "slot": "516",
        "type": "t_contract(IGoldfinchConfig)8814"
      },
      {
        "astId": 12303,
        "contract": "contracts/protocol/core/callable/CallableLoan.sol:CallableLoan",
        "label": "createdAt",
        "offset": 0,
        "slot": "517",
        "type": "t_uint256"
      },
      {
        "astId": 12306,
        "contract": "contracts/protocol/core/callable/CallableLoan.sol:CallableLoan",
        "label": "borrower",
        "offset": 0,
        "slot": "518",
        "type": "t_address"
      }
    ],
    "types": {
      "t_address": {
        "encoding": "inplace",
        "label": "address",
        "numberOfBytes": "20"
      },
      "t_array(t_struct(Tranche)17612_storage)dyn_storage": {
        "base": "t_struct(Tranche)17612_storage",
        "encoding": "dynamic_array",
        "label": "struct Tranche[]",
        "numberOfBytes": "32"
      },
      "t_array(t_uint256)20_storage": {
        "base": "t_uint256",
        "encoding": "inplace",
        "label": "uint256[20]",
        "numberOfBytes": "640"
      },
      "t_array(t_uint256)28_storage": {
        "base": "t_uint256",
        "encoding": "inplace",
        "label": "uint256[28]",
        "numberOfBytes": "896"
      },
      "t_array(t_uint256)31_storage": {
        "base": "t_uint256",
        "encoding": "inplace",
        "label": "uint256[31]",
        "numberOfBytes": "992"
      },
      "t_array(t_uint256)49_storage": {
        "base": "t_uint256",
        "encoding": "inplace",
        "label": "uint256[49]",
        "numberOfBytes": "1568"
      },
      "t_array(t_uint256)50_storage": {
        "base": "t_uint256",
        "encoding": "inplace",
        "label": "uint256[50]",
        "numberOfBytes": "1600"
      },
      "t_array(t_uint256)dyn_storage": {
        "base": "t_uint256",
        "encoding": "dynamic_array",
        "label": "uint256[]",
        "numberOfBytes": "32"
      },
      "t_bool": {
        "encoding": "inplace",
        "label": "bool",
        "numberOfBytes": "1"
      },
      "t_bytes32": {
        "encoding": "inplace",
        "label": "bytes32",
        "numberOfBytes": "32"
      },
      "t_contract(IGoldfinchConfig)8814": {
        "encoding": "inplace",
        "label": "contract IGoldfinchConfig",
        "numberOfBytes": "20"
      },
      "t_contract(ISchedule)10504": {
        "encoding": "inplace",
        "label": "contract ISchedule",
        "numberOfBytes": "20"
      },
      "t_mapping(t_address,t_bool)": {
        "encoding": "mapping",
        "key": "t_address",
        "label": "mapping(address => bool)",
        "numberOfBytes": "32",
        "value": "t_bool"
      },
      "t_mapping(t_bytes32,t_struct(RoleData)253_storage)": {
        "encoding": "mapping",
        "key": "t_bytes32",
        "label": "mapping(bytes32 => struct AccessControlUpgradeable.RoleData)",
        "numberOfBytes": "32",
        "value": "t_struct(RoleData)253_storage"
      },
      "t_struct(CallableCreditLine)15068_storage": {
        "encoding": "inplace",
        "label": "struct CallableCreditLine",
        "members": [
          {
            "astId": 15039,
            "contract": "contracts/protocol/core/callable/CallableLoan.sol:CallableLoan",
            "label": "_config",
            "offset": 0,
            "slot": "0",
            "type": "t_contract(IGoldfinchConfig)8814"
          },
          {
            "astId": 15041,
            "contract": "contracts/protocol/core/callable/CallableLoan.sol:CallableLoan",
            "label": "_fundableAt",
            "offset": 0,
            "slot": "1",
            "type": "t_uint256"
          },
          {
            "astId": 15043,
            "contract": "contracts/protocol/core/callable/CallableLoan.sol:CallableLoan",
            "label": "_limit",
            "offset": 0,
            "slot": "2",
            "type": "t_uint256"
          },
          {
            "astId": 15045,
            "contract": "contracts/protocol/core/callable/CallableLoan.sol:CallableLoan",
            "label": "_interestApr",
            "offset": 0,
            "slot": "3",
            "type": "t_uint256"
          },
          {
            "astId": 15047,
            "contract": "contracts/protocol/core/callable/CallableLoan.sol:CallableLoan",
            "label": "_lateAdditionalApr",
            "offset": 0,
            "slot": "4",
            "type": "t_uint256"
          },
          {
            "astId": 15049,
            "contract": "contracts/protocol/core/callable/CallableLoan.sol:CallableLoan",
            "label": "_numLockupPeriods",
            "offset": 0,
            "slot": "5",
            "type": "t_uint256"
          },
          {
            "astId": 15051,
            "contract": "contracts/protocol/core/callable/CallableLoan.sol:CallableLoan",
            "label": "_checkpointedAsOf",
            "offset": 0,
            "slot": "6",
            "type": "t_uint256"
          },
          {
            "astId": 15053,
            "contract": "contracts/protocol/core/callable/CallableLoan.sol:CallableLoan",
            "label": "_lastFullPaymentTime",
            "offset": 0,
            "slot": "7",
            "type": "t_uint256"
          },
          {
            "astId": 15055,
            "contract": "contracts/protocol/core/callable/CallableLoan.sol:CallableLoan",
            "label": "_totalInterestOwedAtLastCheckpoint",
            "offset": 0,
            "slot": "8",
            "type": "t_uint256"
          },
          {
            "astId": 15057,
            "contract": "contracts/protocol/core/callable/CallableLoan.sol:CallableLoan",
            "label": "_totalInterestAccruedAtLastCheckpoint",
            "offset": 0,
            "slot": "9",
            "type": "t_uint256"
          },
          {
            "astId": 15060,
            "contract": "contracts/protocol/core/callable/CallableLoan.sol:CallableLoan",
            "label": "_waterfall",
            "offset": 0,
            "slot": "10",
            "type": "t_struct(Waterfall)18215_storage"
          },
          {
            "astId": 15063,
            "contract": "contracts/protocol/core/callable/CallableLoan.sol:CallableLoan",
            "label": "_paymentSchedule",
            "offset": 0,
            "slot": "42",
            "type": "t_struct(PaymentSchedule)22911_storage"
          },
          {
            "astId": 15067,
            "contract": "contracts/protocol/core/callable/CallableLoan.sol:CallableLoan",
            "label": "__padding",
            "offset": 0,
            "slot": "43",
            "type": "t_array(t_uint256)20_storage"
          }
        ],
        "numberOfBytes": "2016"
      },
      "t_struct(PaymentSchedule)22911_storage": {
        "encoding": "inplace",
        "label": "struct PaymentSchedule",
        "members": [
          {
            "astId": 22908,
            "contract": "contracts/protocol/core/callable/CallableLoan.sol:CallableLoan",
            "label": "schedule",
            "offset": 0,
            "slot": "0",
            "type": "t_contract(ISchedule)10504"
          },
          {
            "astId": 22910,
            "contract": "contracts/protocol/core/callable/CallableLoan.sol:CallableLoan",
            "label": "startTime",
            "offset": 20,
            "slot": "0",
            "type": "t_uint64"
          }
        ],
        "numberOfBytes": "32"
      },
      "t_struct(RoleData)253_storage": {
        "encoding": "inplace",
        "label": "struct AccessControlUpgradeable.RoleData",
        "members": [
          {
            "astId": 250,
            "contract": "contracts/protocol/core/callable/CallableLoan.sol:CallableLoan",
            "label": "members",
            "offset": 0,
            "slot": "0",
            "type": "t_mapping(t_address,t_bool)"
          },
          {
            "astId": 252,
            "contract": "contracts/protocol/core/callable/CallableLoan.sol:CallableLoan",
            "label": "adminRole",
            "offset": 0,
            "slot": "1",
            "type": "t_bytes32"
          }
        ],
        "numberOfBytes": "64"
      },
      "t_struct(StaleCallableCreditLine)16942_storage": {
        "encoding": "inplace",
        "label": "struct StaleCallableCreditLine",
        "members": [
          {
            "astId": 16941,
            "contract": "contracts/protocol/core/callable/CallableLoan.sol:CallableLoan",
            "label": "_cl",
            "offset": 0,
            "slot": "0",
            "type": "t_struct(CallableCreditLine)15068_storage"
          }
        ],
        "numberOfBytes": "2016"
      },
      "t_struct(Tranche)17612_storage": {
        "encoding": "inplace",
        "label": "struct Tranche",
        "members": [
          {
            "astId": 17601,
            "contract": "contracts/protocol/core/callable/CallableLoan.sol:CallableLoan",
            "label": "_principalDeposited",
            "offset": 0,
            "slot": "0",
            "type": "t_uint256"
          },
          {
            "astId": 17603,
            "contract": "contracts/protocol/core/callable/CallableLoan.sol:CallableLoan",
            "label": "_principalPaid",
            "offset": 0,
            "slot": "1",
            "type": "t_uint256"
          },
          {
            "astId": 17605,
            "contract": "contracts/protocol/core/callable/CallableLoan.sol:CallableLoan",
            "label": "_principalReserved",
            "offset": 0,
            "slot": "2",
            "type": "t_uint256"
          },
          {
            "astId": 17607,
            "contract": "contracts/protocol/core/callable/CallableLoan.sol:CallableLoan",
            "label": "_interestPaid",
            "offset": 0,
            "slot": "3",
            "type": "t_uint256"
          },
          {
            "astId": 17611,
            "contract": "contracts/protocol/core/callable/CallableLoan.sol:CallableLoan",
            "label": "__padding",
            "offset": 0,
            "slot": "4",
            "type": "t_array(t_uint256)28_storage"
          }
        ],
        "numberOfBytes": "1024"
      },
      "t_struct(Waterfall)18215_storage": {
        "encoding": "inplace",
        "label": "struct Waterfall",
        "members": [
          {
            "astId": 18210,
            "contract": "contracts/protocol/core/callable/CallableLoan.sol:CallableLoan",
            "label": "_tranches",
            "offset": 0,
            "slot": "0",
            "type": "t_array(t_struct(Tranche)17612_storage)dyn_storage"
          },
          {
            "astId": 18214,
            "contract": "contracts/protocol/core/callable/CallableLoan.sol:CallableLoan",
            "label": "__padding",
            "offset": 0,
            "slot": "1",
            "type": "t_array(t_uint256)31_storage"
          }
        ],
        "numberOfBytes": "1024"
      },
      "t_uint256": {
        "encoding": "inplace",
        "label": "uint256",
        "numberOfBytes": "32"
      },
      "t_uint64": {
        "encoding": "inplace",
        "label": "uint64",
        "numberOfBytes": "8"
      }
    }
  }
}