{
  "address": "0x3c705dB336C81c7FEFC5746e283aB2c0781A4B7b",
  "abi": [
    {
      "inputs": [
        {
          "internalType": "uint256",
          "name": "arrayLength1",
          "type": "uint256"
        },
        {
          "internalType": "uint256",
          "name": "arrayLength2",
          "type": "uint256"
        }
      ],
      "name": "ArrayLengthMismatch",
      "type": "error"
    },
    {
      "inputs": [],
      "name": "CannotDrawdownWhenDrawdownsPaused",
      "type": "error"
    },
    {
      "inputs": [],
      "name": "CannotReinitialize",
      "type": "error"
    },
    {
      "inputs": [],
      "name": "CannotSetAllowedUIDTypesAfterDeposit",
      "type": "error"
    },
    {
      "inputs": [
        {
          "internalType": "uint256",
          "name": "existingFundableAt",
          "type": "uint256"
        }
      ],
      "name": "CannotSetFundableAtAfterFundableAt",
      "type": "error"
    },
    {
      "inputs": [],
      "name": "CannotSubmitCallInLockupPeriod",
      "type": "error"
    },
    {
      "inputs": [],
      "name": "CannotWithdrawInDrawdownPeriod",
      "type": "error"
    },
    {
      "inputs": [
        {
          "internalType": "uint256",
          "name": "deposit",
          "type": "uint256"
        },
        {
          "internalType": "uint256",
          "name": "amountCurrentlyDeposited",
          "type": "uint256"
        },
        {
          "internalType": "uint256",
          "name": "limit",
          "type": "uint256"
        }
      ],
      "name": "DepositExceedsLimit",
      "type": "error"
    },
    {
      "inputs": [
        {
          "internalType": "uint256",
          "name": "drawdownAmount",
          "type": "uint256"
        },
        {
          "internalType": "uint256",
          "name": "existingPrincipalPaid",
          "type": "uint256"
        }
      ],
      "name": "DrawdownAmountExceedsDeposits",
      "type": "error"
    },
    {
      "inputs": [
        {
          "internalType": "uint256",
          "name": "poolTokenId",
          "type": "uint256"
        },
        {
          "internalType": "uint256",
          "name": "callSubmissionAmount",
          "type": "uint256"
        },
        {
          "internalType": "uint256",
          "name": "maxCallSubmissionAmount",
          "type": "uint256"
        }
      ],
      "name": "ExcessiveCallSubmissionAmount",
      "type": "error"
    },
    {
      "inputs": [
        {
          "internalType": "uint256",
          "name": "numPrincipalPeriods",
          "type": "uint256"
        },
        {
          "internalType": "uint256",
          "name": "minimumNumPrincipalPeriods",
          "type": "uint256"
        }
      ],
      "name": "HasInsufficientTranches",
      "type": "error"
    },
    {
      "inputs": [
        {
          "internalType": "uint256",
          "name": "inputTimestamp",
          "type": "uint256"
        },
        {
          "internalType": "uint256",
          "name": "checkpointedAt",
          "type": "uint256"
        }
      ],
      "name": "InputTimestampBeforeCheckpoint",
      "type": "error"
    },
    {
      "inputs": [
        {
          "internalType": "uint256",
          "name": "inputTimestamp",
          "type": "uint256"
        }
      ],
      "name": "InputTimestampInThePast",
      "type": "error"
    },
    {
      "inputs": [
        {
          "internalType": "uint256",
          "name": "tokenId",
          "type": "uint256"
        }
      ],
      "name": "InvalidCallSubmissionPoolToken",
      "type": "error"
    },
    {
      "inputs": [
        {
          "internalType": "enum LoanPhase",
          "name": "currentLoanPhase",
          "type": "uint8"
        },
        {
          "internalType": "enum LoanPhase",
          "name": "validLoanPhase",
          "type": "uint8"
        }
      ],
      "name": "InvalidLoanPhase",
      "type": "error"
    },
    {
      "inputs": [
        {
          "internalType": "uint256",
          "name": "numLockupPeriods",
          "type": "uint256"
        },
        {
          "internalType": "uint256",
          "name": "periodsPerPrincipalPeriod",
          "type": "uint256"
        }
      ],
      "name": "InvalidNumLockupPeriods",
      "type": "error"
    },
    {
      "inputs": [
        {
          "internalType": "address",
          "name": "depositor",
          "type": "address"
        }
      ],
      "name": "InvalidUIDForDepositor",
      "type": "error"
    },
    {
      "inputs": [
        {
          "internalType": "uint256",
          "name": "inputTranche",
          "type": "uint256"
        },
        {
          "internalType": "uint256",
          "name": "uncalledTranche",
          "type": "uint256"
        }
      ],
      "name": "MustDepositToUncalledTranche",
      "type": "error"
    },
    {
      "inputs": [
        {
          "internalType": "uint256",
          "name": "inputTranche",
          "type": "uint256"
        },
        {
          "internalType": "uint256",
          "name": "uncalledTranche",
          "type": "uint256"
        }
      ],
      "name": "MustSubmitCallToUncalledTranche",
      "type": "error"
    },
    {
      "inputs": [
        {
          "internalType": "uint256",
          "name": "attemptedPrincipalPayment",
          "type": "uint256"
        }
      ],
      "name": "NoBalanceToPay",
      "type": "error"
    },
    {
      "inputs": [
        {
          "internalType": "address",
          "name": "callSubmissionSender",
          "type": "address"
        },
        {
          "internalType": "uint256",
          "name": "tokenId",
          "type": "uint256"
        }
      ],
      "name": "NotAuthorizedToSubmitCall",
      "type": "error"
    },
    {
      "inputs": [
        {
          "internalType": "address",
          "name": "withdrawSender",
          "type": "address"
        },
        {
          "internalType": "uint256",
          "name": "tokenId",
          "type": "uint256"
        }
      ],
      "name": "NotAuthorizedToWithdraw",
      "type": "error"
    },
    {
      "inputs": [
        {
          "internalType": "uint256",
          "name": "lastCallRequestPeriod",
          "type": "uint256"
        }
      ],
      "name": "OutOfCallRequestPeriodBounds",
      "type": "error"
    },
    {
      "inputs": [
        {
          "internalType": "address",
          "name": "nonLockerAddress",
          "type": "address"
        }
      ],
      "name": "RequiresLockerRole",
      "type": "error"
    },
    {
      "inputs": [],
      "name": "TooLateToSubmitCallRequests",
      "type": "error"
    },
    {
      "inputs": [
        {
          "internalType": "uint256",
          "name": "withdrawAmount",
          "type": "uint256"
        },
        {
          "internalType": "uint256",
          "name": "withdrawableAmount",
          "type": "uint256"
        }
      ],
      "name": "WithdrawAmountExceedsWithdrawable",
      "type": "error"
    },
    {
      "inputs": [],
      "name": "ZeroCallSubmissionAmount",
      "type": "error"
    },
    {
      "inputs": [],
      "name": "ZeroDepositAmount",
      "type": "error"
    },
    {
      "inputs": [],
      "name": "ZeroDrawdownAmount",
      "type": "error"
    },
    {
      "inputs": [],
      "name": "ZeroPaymentAmount",
      "type": "error"
    },
    {
      "inputs": [],
      "name": "ZeroWithdrawAmount",
      "type": "error"
    },
    {
      "anonymous": false,
      "inputs": [
        {
          "indexed": true,
          "internalType": "uint256",
          "name": "originalTokenId",
          "type": "uint256"
        },
        {
          "indexed": true,
          "internalType": "uint256",
          "name": "callRequestedTokenId",
          "type": "uint256"
        },
        {
          "indexed": true,
          "internalType": "uint256",
          "name": "remainingTokenId",
          "type": "uint256"
        },
        {
          "indexed": false,
          "internalType": "uint256",
          "name": "callAmount",
          "type": "uint256"
        }
      ],
      "name": "CallRequestSubmitted",
      "type": "event"
    },
    {
      "anonymous": false,
      "inputs": [
        {
          "indexed": true,
          "internalType": "address",
          "name": "owner",
          "type": "address"
        },
        {
          "indexed": true,
          "internalType": "uint256",
          "name": "tranche",
          "type": "uint256"
        },
        {
          "indexed": true,
          "internalType": "uint256",
          "name": "tokenId",
          "type": "uint256"
        },
        {
          "indexed": false,
          "internalType": "uint256",
          "name": "amount",
          "type": "uint256"
        }
      ],
      "name": "DepositMade",
      "type": "event"
    },
    {
      "anonymous": false,
      "inputs": [
        {
          "indexed": true,
          "internalType": "address",
          "name": "loan",
          "type": "address"
        }
      ],
      "name": "DepositsLocked",
      "type": "event"
    },
    {
      "anonymous": false,
      "inputs": [
        {
          "indexed": true,
          "internalType": "address",
          "name": "borrower",
          "type": "address"
        },
        {
          "indexed": false,
          "internalType": "uint256",
          "name": "amount",
          "type": "uint256"
        }
      ],
      "name": "DrawdownMade",
      "type": "event"
    },
    {
      "anonymous": false,
      "inputs": [
        {
          "indexed": true,
          "internalType": "address",
          "name": "pool",
          "type": "address"
        }
      ],
      "name": "DrawdownsPaused",
      "type": "event"
    },
    {
      "anonymous": false,
      "inputs": [
        {
          "indexed": true,
          "internalType": "address",
          "name": "pool",
          "type": "address"
        }
      ],
      "name": "DrawdownsUnpaused",
      "type": "event"
    },
    {
      "anonymous": false,
      "inputs": [
        {
          "indexed": true,
          "internalType": "address",
          "name": "pool",
          "type": "address"
        }
      ],
      "name": "EmergencyShutdown",
      "type": "event"
    },
    {
      "anonymous": false,
      "inputs": [
        {
          "indexed": false,
          "internalType": "address",
          "name": "account",
          "type": "address"
        }
      ],
      "name": "Paused",
      "type": "event"
    },
    {
      "anonymous": false,
      "inputs": [
        {
          "indexed": true,
          "internalType": "address",
          "name": "payer",
          "type": "address"
        },
        {
          "indexed": true,
          "internalType": "address",
          "name": "pool",
          "type": "address"
        },
        {
          "indexed": false,
          "internalType": "uint256",
          "name": "interest",
          "type": "uint256"
        },
        {
          "indexed": false,
          "internalType": "uint256",
          "name": "principal",
          "type": "uint256"
        },
        {
          "indexed": false,
          "internalType": "uint256",
          "name": "remaining",
          "type": "uint256"
        },
        {
          "indexed": false,
          "internalType": "uint256",
          "name": "reserve",
          "type": "uint256"
        }
      ],
      "name": "PaymentApplied",
      "type": "event"
    },
    {
      "anonymous": false,
      "inputs": [
        {
          "indexed": true,
          "internalType": "address",
          "name": "from",
          "type": "address"
        },
        {
          "indexed": false,
          "internalType": "uint256",
          "name": "amount",
          "type": "uint256"
        }
      ],
      "name": "ReserveFundsCollected",
      "type": "event"
    },
    {
      "anonymous": false,
      "inputs": [
        {
          "indexed": true,
          "internalType": "bytes32",
          "name": "role",
          "type": "bytes32"
        },
        {
          "indexed": true,
          "internalType": "bytes32",
          "name": "previousAdminRole",
          "type": "bytes32"
        },
        {
          "indexed": true,
          "internalType": "bytes32",
          "name": "newAdminRole",
          "type": "bytes32"
        }
      ],
      "name": "RoleAdminChanged",
      "type": "event"
    },
    {
      "anonymous": false,
      "inputs": [
        {
          "indexed": true,
          "internalType": "bytes32",
          "name": "role",
          "type": "bytes32"
        },
        {
          "indexed": true,
          "internalType": "address",
          "name": "account",
          "type": "address"
        },
        {
          "indexed": true,
          "internalType": "address",
          "name": "sender",
          "type": "address"
        }
      ],
      "name": "RoleGranted",
      "type": "event"
    },
    {
      "anonymous": false,
      "inputs": [
        {
          "indexed": true,
          "internalType": "bytes32",
          "name": "role",
          "type": "bytes32"
        },
        {
          "indexed": true,
          "internalType": "address",
          "name": "account",
          "type": "address"
        },
        {
          "indexed": true,
          "internalType": "address",
          "name": "sender",
          "type": "address"
        }
      ],
      "name": "RoleRevoked",
      "type": "event"
    },
    {
      "anonymous": false,
      "inputs": [
        {
          "indexed": false,
          "internalType": "address",
          "name": "account",
          "type": "address"
        }
      ],
      "name": "Unpaused",
      "type": "event"
    },
    {
      "anonymous": false,
      "inputs": [
        {
          "indexed": true,
          "internalType": "address",
          "name": "owner",
          "type": "address"
        },
        {
          "indexed": true,
          "internalType": "uint256",
          "name": "tranche",
          "type": "uint256"
        },
        {
          "indexed": true,
          "internalType": "uint256",
          "name": "tokenId",
          "type": "uint256"
        },
        {
          "indexed": false,
          "internalType": "uint256",
          "name": "interestWithdrawn",
          "type": "uint256"
        },
        {
          "indexed": false,
          "internalType": "uint256",
          "name": "principalWithdrawn",
          "type": "uint256"
        }
      ],
      "name": "WithdrawalMade",
      "type": "event"
    },
    {
      "inputs": [],
      "name": "DEFAULT_ADMIN_ROLE",
      "outputs": [
        {
          "internalType": "bytes32",
          "name": "",
          "type": "bytes32"
        }
      ],
      "stateMutability": "view",
      "type": "function"
    },
    {
      "inputs": [],
      "name": "LOCKER_ROLE",
      "outputs": [
        {
          "internalType": "bytes32",
          "name": "",
          "type": "bytes32"
        }
      ],
      "stateMutability": "view",
      "type": "function"
    },
    {
      "inputs": [],
      "name": "OWNER_ROLE",
      "outputs": [
        {
          "internalType": "bytes32",
          "name": "",
          "type": "bytes32"
        }
      ],
      "stateMutability": "view",
      "type": "function"
    },
    {
      "inputs": [],
      "name": "PAUSER_ROLE",
      "outputs": [
        {
          "internalType": "bytes32",
          "name": "",
          "type": "bytes32"
        }
      ],
      "stateMutability": "view",
      "type": "function"
    },
    {
      "inputs": [],
      "name": "SPLIT_TOKEN_DUST_THRESHOLD",
      "outputs": [
        {
          "internalType": "uint256",
          "name": "",
          "type": "uint256"
        }
      ],
      "stateMutability": "view",
      "type": "function"
    },
    {
      "inputs": [
        {
          "internalType": "address",
          "name": "owner",
          "type": "address"
        }
      ],
      "name": "__BaseUpgradeablePausable__init",
      "outputs": [],
      "stateMutability": "nonpayable",
      "type": "function"
    },
    {
      "inputs": [],
      "name": "__PauserPausable__init",
      "outputs": [],
      "stateMutability": "nonpayable",
      "type": "function"
    },
    {
      "inputs": [],
      "name": "_reserveFundsFeePercent",
      "outputs": [
        {
          "internalType": "uint256",
          "name": "",
          "type": "uint256"
        }
      ],
      "stateMutability": "view",
      "type": "function"
    },
    {
      "inputs": [
        {
          "internalType": "uint256",
          "name": "",
          "type": "uint256"
        }
      ],
      "name": "allowedUIDTypes",
      "outputs": [
        {
          "internalType": "uint256",
          "name": "",
          "type": "uint256"
        }
      ],
      "stateMutability": "view",
      "type": "function"
    },
    {
      "inputs": [
        {
          "internalType": "uint256",
          "name": "tokenId",
          "type": "uint256"
        }
      ],
      "name": "availableToCall",
      "outputs": [
        {
          "internalType": "uint256",
          "name": "",
          "type": "uint256"
        }
      ],
      "stateMutability": "view",
      "type": "function"
    },
    {
      "inputs": [
        {
          "internalType": "uint256",
          "name": "tokenId",
          "type": "uint256"
        }
      ],
      "name": "availableToWithdraw",
      "outputs": [
        {
          "internalType": "uint256",
          "name": "",
          "type": "uint256"
        },
        {
          "internalType": "uint256",
          "name": "",
          "type": "uint256"
        }
      ],
      "stateMutability": "view",
      "type": "function"
    },
    {
      "inputs": [],
      "name": "balance",
      "outputs": [
        {
          "internalType": "uint256",
          "name": "",
          "type": "uint256"
        }
      ],
      "stateMutability": "view",
      "type": "function"
    },
    {
      "inputs": [],
      "name": "borrower",
      "outputs": [
        {
          "internalType": "address",
          "name": "",
          "type": "address"
        }
      ],
      "stateMutability": "view",
      "type": "function"
    },
    {
      "inputs": [],
      "name": "config",
      "outputs": [
        {
          "internalType": "contract IGoldfinchConfig",
          "name": "",
          "type": "address"
        }
      ],
      "stateMutability": "view",
      "type": "function"
    },
    {
      "inputs": [],
      "name": "createdAt",
      "outputs": [
        {
          "internalType": "uint256",
          "name": "",
          "type": "uint256"
        }
      ],
      "stateMutability": "view",
      "type": "function"
    },
    {
      "inputs": [],
      "name": "creditLine",
      "outputs": [
        {
          "internalType": "contract ICreditLine",
          "name": "",
          "type": "address"
        }
      ],
      "stateMutability": "view",
      "type": "function"
    },
    {
      "inputs": [],
      "name": "currentLimit",
      "outputs": [
        {
          "internalType": "uint256",
          "name": "",
          "type": "uint256"
        }
      ],
      "stateMutability": "view",
      "type": "function"
    },
    {
      "inputs": [
        {
          "internalType": "uint256",
          "name": "tranche",
          "type": "uint256"
        },
        {
          "internalType": "uint256",
          "name": "amount",
          "type": "uint256"
        }
      ],
      "name": "deposit",
      "outputs": [
        {
          "internalType": "uint256",
          "name": "",
          "type": "uint256"
        }
      ],
      "stateMutability": "nonpayable",
      "type": "function"
    },
    {
      "inputs": [
        {
          "internalType": "uint256",
          "name": "tranche",
          "type": "uint256"
        },
        {
          "internalType": "uint256",
          "name": "amount",
          "type": "uint256"
        },
        {
          "internalType": "uint256",
          "name": "deadline",
          "type": "uint256"
        },
        {
          "internalType": "uint8",
          "name": "v",
          "type": "uint8"
        },
        {
          "internalType": "bytes32",
          "name": "r",
          "type": "bytes32"
        },
        {
          "internalType": "bytes32",
          "name": "s",
          "type": "bytes32"
        }
      ],
      "name": "depositWithPermit",
      "outputs": [
        {
          "internalType": "uint256",
          "name": "tokenId",
          "type": "uint256"
        }
      ],
      "stateMutability": "nonpayable",
      "type": "function"
    },
    {
      "inputs": [
        {
          "internalType": "uint256",
          "name": "amount",
          "type": "uint256"
        }
      ],
      "name": "drawdown",
      "outputs": [],
      "stateMutability": "nonpayable",
      "type": "function"
    },
    {
      "inputs": [],
      "name": "drawdownsPaused",
      "outputs": [
        {
          "internalType": "bool",
          "name": "",
          "type": "bool"
        }
      ],
      "stateMutability": "view",
      "type": "function"
    },
    {
      "inputs": [
        {
          "internalType": "uint256",
          "name": "timestamp",
          "type": "uint256"
        }
      ],
      "name": "estimateOwedInterestAt",
      "outputs": [
        {
          "internalType": "uint256",
          "name": "",
          "type": "uint256"
        }
      ],
      "stateMutability": "view",
      "type": "function"
    },
    {
      "inputs": [],
      "name": "getAllowedUIDTypes",
      "outputs": [
        {
          "internalType": "uint256[]",
          "name": "",
          "type": "uint256[]"
        }
      ],
      "stateMutability": "view",
      "type": "function"
    },
    {
      "inputs": [
        {
          "internalType": "uint256",
          "name": "timestamp",
          "type": "uint256"
        }
      ],
      "name": "getAmountsOwed",
      "outputs": [
        {
          "internalType": "uint256",
          "name": "returnedInterestOwed",
          "type": "uint256"
        },
        {
          "internalType": "uint256",
          "name": "returnedInterestAccrued",
          "type": "uint256"
        },
        {
          "internalType": "uint256",
          "name": "returnedPrincipalOwed",
          "type": "uint256"
        }
      ],
      "stateMutability": "view",
      "type": "function"
    },
    {
      "inputs": [
        {
          "internalType": "uint256",
          "name": "callRequestPeriodIndex",
          "type": "uint256"
        }
      ],
      "name": "getCallRequestPeriod",
      "outputs": [
        {
          "components": [
            {
              "internalType": "uint256",
              "name": "principalDeposited",
              "type": "uint256"
            },
            {
              "internalType": "uint256",
              "name": "principalPaid",
              "type": "uint256"
            },
            {
              "internalType": "uint256",
              "name": "principalReserved",
              "type": "uint256"
            },
            {
              "internalType": "uint256",
              "name": "interestPaid",
              "type": "uint256"
            }
          ],
          "internalType": "struct ICallableLoan.CallRequestPeriod",
          "name": "",
          "type": "tuple"
        }
      ],
      "stateMutability": "view",
      "type": "function"
    },
    {
      "inputs": [],
      "name": "getFundableAt",
      "outputs": [
        {
          "internalType": "uint256",
          "name": "",
          "type": "uint256"
        }
      ],
      "stateMutability": "view",
      "type": "function"
    },
    {
      "inputs": [],
      "name": "getLoanType",
      "outputs": [
        {
          "internalType": "enum LoanType",
          "name": "",
          "type": "uint8"
        }
      ],
      "stateMutability": "view",
      "type": "function"
    },
    {
      "inputs": [
        {
          "internalType": "bytes32",
          "name": "role",
          "type": "bytes32"
        }
      ],
      "name": "getRoleAdmin",
      "outputs": [
        {
          "internalType": "bytes32",
          "name": "",
          "type": "bytes32"
        }
      ],
      "stateMutability": "view",
      "type": "function"
    },
    {
      "inputs": [],
      "name": "getUncalledCapitalInfo",
      "outputs": [
        {
          "components": [
            {
              "internalType": "uint256",
              "name": "principalDeposited",
              "type": "uint256"
            },
            {
              "internalType": "uint256",
              "name": "principalPaid",
              "type": "uint256"
            },
            {
              "internalType": "uint256",
              "name": "principalReserved",
              "type": "uint256"
            },
            {
              "internalType": "uint256",
              "name": "interestPaid",
              "type": "uint256"
            }
          ],
          "internalType": "struct ICallableLoan.UncalledCapitalInfo",
          "name": "",
          "type": "tuple"
        }
      ],
      "stateMutability": "view",
      "type": "function"
    },
    {
      "inputs": [],
      "name": "getVersion",
      "outputs": [
        {
          "internalType": "uint8[3]",
          "name": "version",
          "type": "uint8[3]"
        }
      ],
      "stateMutability": "pure",
      "type": "function"
    },
    {
      "inputs": [
        {
          "internalType": "bytes32",
          "name": "role",
          "type": "bytes32"
        },
        {
          "internalType": "address",
          "name": "account",
          "type": "address"
        }
      ],
      "name": "grantRole",
      "outputs": [],
      "stateMutability": "nonpayable",
      "type": "function"
    },
    {
      "inputs": [
        {
          "internalType": "address",
          "name": "sender",
          "type": "address"
        }
      ],
      "name": "hasAllowedUID",
      "outputs": [
        {
          "internalType": "bool",
          "name": "",
          "type": "bool"
        }
      ],
      "stateMutability": "view",
      "type": "function"
    },
    {
      "inputs": [
        {
          "internalType": "bytes32",
          "name": "role",
          "type": "bytes32"
        },
        {
          "internalType": "address",
          "name": "account",
          "type": "address"
        }
      ],
      "name": "hasRole",
      "outputs": [
        {
          "internalType": "bool",
          "name": "",
          "type": "bool"
        }
      ],
      "stateMutability": "view",
      "type": "function"
    },
    {
      "inputs": [
        {
          "internalType": "contract IGoldfinchConfig",
          "name": "_config",
          "type": "address"
        },
        {
          "internalType": "address",
          "name": "_borrower",
          "type": "address"
        },
        {
          "internalType": "uint256",
          "name": "_limit",
          "type": "uint256"
        },
        {
          "internalType": "uint256",
          "name": "_interestApr",
          "type": "uint256"
        },
        {
          "internalType": "uint256",
          "name": "_numLockupPeriods",
          "type": "uint256"
        },
        {
          "internalType": "contract ISchedule",
          "name": "_schedule",
          "type": "address"
        },
        {
          "internalType": "uint256",
          "name": "_lateFeeApr",
          "type": "uint256"
        },
        {
          "internalType": "uint256",
          "name": "_fundableAt",
          "type": "uint256"
        },
        {
          "internalType": "uint256[]",
          "name": "_allowedUIDTypes",
          "type": "uint256[]"
        }
      ],
      "name": "initialize",
      "outputs": [],
      "stateMutability": "nonpayable",
      "type": "function"
    },
    {
      "inputs": [],
      "name": "interestAccrued",
      "outputs": [
        {
          "internalType": "uint256",
          "name": "",
          "type": "uint256"
        }
      ],
      "stateMutability": "view",
      "type": "function"
    },
    {
      "inputs": [],
      "name": "interestAccruedAsOf",
      "outputs": [
        {
          "internalType": "uint256",
          "name": "",
          "type": "uint256"
        }
      ],
      "stateMutability": "view",
      "type": "function"
    },
    {
      "inputs": [
        {
          "internalType": "uint256",
          "name": "timestamp",
          "type": "uint256"
        }
      ],
      "name": "interestAccruedAt",
      "outputs": [
        {
          "internalType": "uint256",
          "name": "",
          "type": "uint256"
        }
      ],
      "stateMutability": "view",
      "type": "function"
    },
    {
      "inputs": [],
      "name": "interestApr",
      "outputs": [
        {
          "internalType": "uint256",
          "name": "",
          "type": "uint256"
        }
      ],
      "stateMutability": "view",
      "type": "function"
    },
    {
      "inputs": [],
      "name": "interestBearingBalance",
      "outputs": [
        {
          "internalType": "uint256",
          "name": "",
          "type": "uint256"
        }
      ],
      "stateMutability": "view",
      "type": "function"
    },
    {
      "inputs": [],
      "name": "interestOwed",
      "outputs": [
        {
          "internalType": "uint256",
          "name": "",
          "type": "uint256"
        }
      ],
      "stateMutability": "view",
      "type": "function"
    },
    {
      "inputs": [
        {
          "internalType": "uint256",
          "name": "timestamp",
          "type": "uint256"
        }
      ],
      "name": "interestOwedAt",
      "outputs": [
        {
          "internalType": "uint256",
          "name": "",
          "type": "uint256"
        }
      ],
      "stateMutability": "view",
      "type": "function"
    },
    {
      "inputs": [],
      "name": "isAdmin",
      "outputs": [
        {
          "internalType": "bool",
          "name": "",
          "type": "bool"
        }
      ],
      "stateMutability": "view",
      "type": "function"
    },
    {
      "inputs": [],
      "name": "isLate",
      "outputs": [
        {
          "internalType": "bool",
          "name": "",
          "type": "bool"
        }
      ],
      "stateMutability": "view",
      "type": "function"
    },
    {
      "inputs": [],
      "name": "lastFullPaymentTime",
      "outputs": [
        {
          "internalType": "uint256",
          "name": "",
          "type": "uint256"
        }
      ],
      "stateMutability": "view",
      "type": "function"
    },
    {
      "inputs": [],
      "name": "lateFeeApr",
      "outputs": [
        {
          "internalType": "uint256",
          "name": "",
          "type": "uint256"
        }
      ],
      "stateMutability": "view",
      "type": "function"
    },
    {
      "inputs": [],
      "name": "limit",
      "outputs": [
        {
          "internalType": "uint256",
          "name": "",
          "type": "uint256"
        }
      ],
      "stateMutability": "view",
      "type": "function"
    },
    {
      "inputs": [],
      "name": "maxLimit",
      "outputs": [
        {
          "internalType": "uint256",
          "name": "",
          "type": "uint256"
        }
      ],
      "stateMutability": "view",
      "type": "function"
    },
    {
      "inputs": [],
      "name": "nextDueTime",
      "outputs": [
        {
          "internalType": "uint256",
          "name": "",
          "type": "uint256"
        }
      ],
      "stateMutability": "view",
      "type": "function"
    },
    {
      "inputs": [
        {
          "internalType": "uint256",
          "name": "timestamp",
          "type": "uint256"
        }
      ],
      "name": "nextDueTimeAt",
      "outputs": [
        {
          "internalType": "uint256",
          "name": "",
          "type": "uint256"
        }
      ],
      "stateMutability": "view",
      "type": "function"
    },
    {
      "inputs": [
        {
          "internalType": "uint256",
          "name": "timestamp",
          "type": "uint256"
        }
      ],
      "name": "nextInterestDueTimeAt",
      "outputs": [
        {
          "internalType": "uint256",
          "name": "",
          "type": "uint256"
        }
      ],
      "stateMutability": "view",
      "type": "function"
    },
    {
      "inputs": [],
      "name": "nextPrincipalDueTime",
      "outputs": [
        {
          "internalType": "uint256",
          "name": "",
          "type": "uint256"
        }
      ],
      "stateMutability": "view",
      "type": "function"
    },
    {
      "inputs": [],
      "name": "pause",
      "outputs": [],
      "stateMutability": "nonpayable",
      "type": "function"
    },
    {
      "inputs": [],
      "name": "pauseDrawdowns",
      "outputs": [],
      "stateMutability": "nonpayable",
      "type": "function"
    },
    {
      "inputs": [],
      "name": "paused",
      "outputs": [
        {
          "internalType": "bool",
          "name": "",
          "type": "bool"
        }
      ],
      "stateMutability": "view",
      "type": "function"
    },
    {
      "inputs": [
        {
          "internalType": "uint256",
          "name": "amount",
          "type": "uint256"
        }
      ],
      "name": "pay",
      "outputs": [
        {
          "components": [
            {
              "internalType": "uint256",
              "name": "owedInterestPayment",
              "type": "uint256"
            },
            {
              "internalType": "uint256",
              "name": "accruedInterestPayment",
              "type": "uint256"
            },
            {
              "internalType": "uint256",
              "name": "principalPayment",
              "type": "uint256"
            },
            {
              "internalType": "uint256",
              "name": "additionalBalancePayment",
              "type": "uint256"
            },
            {
              "internalType": "uint256",
              "name": "paymentRemaining",
              "type": "uint256"
            }
          ],
          "internalType": "struct ILoan.PaymentAllocation",
          "name": "",
          "type": "tuple"
        }
      ],
      "stateMutability": "nonpayable",
      "type": "function"
    },
    {
      "inputs": [
        {
          "internalType": "uint256",
          "name": "principalPayment",
          "type": "uint256"
        },
        {
          "internalType": "uint256",
          "name": "interestPayment",
          "type": "uint256"
        }
      ],
      "name": "pay",
      "outputs": [
        {
          "components": [
            {
              "internalType": "uint256",
              "name": "owedInterestPayment",
              "type": "uint256"
            },
            {
              "internalType": "uint256",
              "name": "accruedInterestPayment",
              "type": "uint256"
            },
            {
              "internalType": "uint256",
              "name": "principalPayment",
              "type": "uint256"
            },
            {
              "internalType": "uint256",
              "name": "additionalBalancePayment",
              "type": "uint256"
            },
            {
              "internalType": "uint256",
              "name": "paymentRemaining",
              "type": "uint256"
            }
          ],
          "internalType": "struct ILoan.PaymentAllocation",
          "name": "",
          "type": "tuple"
        }
      ],
      "stateMutability": "nonpayable",
      "type": "function"
    },
    {
      "inputs": [],
      "name": "principalOwed",
      "outputs": [
        {
          "internalType": "uint256",
          "name": "",
          "type": "uint256"
        }
      ],
      "stateMutability": "view",
      "type": "function"
    },
    {
      "inputs": [
        {
          "internalType": "uint256",
          "name": "timestamp",
          "type": "uint256"
        }
      ],
      "name": "principalOwedAt",
      "outputs": [
        {
          "internalType": "uint256",
          "name": "",
          "type": "uint256"
        }
      ],
      "stateMutability": "view",
      "type": "function"
    },
    {
      "inputs": [
        {
          "internalType": "bytes32",
          "name": "role",
          "type": "bytes32"
        },
        {
          "internalType": "address",
          "name": "account",
          "type": "address"
        }
      ],
      "name": "renounceRole",
      "outputs": [],
      "stateMutability": "nonpayable",
      "type": "function"
    },
    {
      "inputs": [
        {
          "internalType": "bytes32",
          "name": "role",
          "type": "bytes32"
        },
        {
          "internalType": "address",
          "name": "account",
          "type": "address"
        }
      ],
      "name": "revokeRole",
      "outputs": [],
      "stateMutability": "nonpayable",
      "type": "function"
    },
    {
      "inputs": [],
      "name": "schedule",
      "outputs": [
        {
          "internalType": "contract ISchedule",
          "name": "",
          "type": "address"
        }
      ],
      "stateMutability": "view",
      "type": "function"
    },
    {
      "inputs": [
        {
          "internalType": "uint256[]",
          "name": "ids",
          "type": "uint256[]"
        }
      ],
      "name": "setAllowedUIDTypes",
      "outputs": [],
      "stateMutability": "nonpayable",
      "type": "function"
    },
    {
      "inputs": [
        {
          "internalType": "uint256",
          "name": "newFundableAt",
          "type": "uint256"
        }
      ],
      "name": "setFundableAt",
      "outputs": [],
      "stateMutability": "nonpayable",
      "type": "function"
    },
    {
      "inputs": [
        {
          "internalType": "uint256",
          "name": "newAmount",
          "type": "uint256"
        }
      ],
      "name": "setLimit",
      "outputs": [],
      "stateMutability": "nonpayable",
      "type": "function"
    },
    {
      "inputs": [
        {
          "internalType": "uint256",
          "name": "newAmount",
          "type": "uint256"
        }
      ],
      "name": "setMaxLimit",
      "outputs": [],
      "stateMutability": "nonpayable",
      "type": "function"
    },
    {
      "inputs": [
        {
          "internalType": "uint256",
          "name": "callAmount",
          "type": "uint256"
        },
        {
          "internalType": "uint256",
          "name": "poolTokenId",
          "type": "uint256"
        }
      ],
      "name": "submitCall",
      "outputs": [
        {
          "internalType": "uint256",
          "name": "callRequestedTokenId",
          "type": "uint256"
        },
        {
          "internalType": "uint256",
          "name": "remainingTokenId",
          "type": "uint256"
        }
      ],
      "stateMutability": "nonpayable",
      "type": "function"
    },
    {
      "inputs": [
        {
          "internalType": "bytes4",
          "name": "interfaceId",
          "type": "bytes4"
        }
      ],
      "name": "supportsInterface",
      "outputs": [
        {
          "internalType": "bool",
          "name": "",
          "type": "bool"
        }
      ],
      "stateMutability": "view",
      "type": "function"
    },
    {
      "inputs": [],
      "name": "termEndTime",
      "outputs": [
        {
          "internalType": "uint256",
          "name": "",
          "type": "uint256"
        }
      ],
      "stateMutability": "view",
      "type": "function"
    },
    {
      "inputs": [],
      "name": "termStartTime",
      "outputs": [
        {
          "internalType": "uint256",
          "name": "",
          "type": "uint256"
        }
      ],
      "stateMutability": "view",
      "type": "function"
    },
    {
      "inputs": [],
      "name": "totalInterestAccrued",
      "outputs": [
        {
          "internalType": "uint256",
          "name": "",
          "type": "uint256"
        }
      ],
      "stateMutability": "view",
      "type": "function"
    },
    {
      "inputs": [
        {
          "internalType": "uint256",
          "name": "timestamp",
          "type": "uint256"
        }
      ],
      "name": "totalInterestAccruedAt",
      "outputs": [
        {
          "internalType": "uint256",
          "name": "",
          "type": "uint256"
        }
      ],
      "stateMutability": "view",
      "type": "function"
    },
    {
      "inputs": [],
      "name": "totalInterestOwed",
      "outputs": [
        {
          "internalType": "uint256",
          "name": "",
          "type": "uint256"
        }
      ],
      "stateMutability": "view",
      "type": "function"
    },
    {
      "inputs": [
        {
          "internalType": "uint256",
          "name": "timestamp",
          "type": "uint256"
        }
      ],
      "name": "totalInterestOwedAt",
      "outputs": [
        {
          "internalType": "uint256",
          "name": "",
          "type": "uint256"
        }
      ],
      "stateMutability": "view",
      "type": "function"
    },
    {
      "inputs": [],
      "name": "totalInterestPaid",
      "outputs": [
        {
          "internalType": "uint256",
          "name": "",
          "type": "uint256"
        }
      ],
      "stateMutability": "view",
      "type": "function"
    },
    {
      "inputs": [],
      "name": "totalPrincipalOwed",
      "outputs": [
        {
          "internalType": "uint256",
          "name": "",
          "type": "uint256"
        }
      ],
      "stateMutability": "view",
      "type": "function"
    },
    {
      "inputs": [
        {
          "internalType": "uint256",
          "name": "timestamp",
          "type": "uint256"
        }
      ],
      "name": "totalPrincipalOwedAt",
      "outputs": [
        {
          "internalType": "uint256",
          "name": "",
          "type": "uint256"
        }
      ],
      "stateMutability": "view",
      "type": "function"
    },
    {
      "inputs": [],
      "name": "totalPrincipalPaid",
      "outputs": [
        {
          "internalType": "uint256",
          "name": "",
          "type": "uint256"
        }
      ],
      "stateMutability": "view",
      "type": "function"
    },
    {
      "inputs": [],
      "name": "uncalledCapitalTrancheIndex",
      "outputs": [
        {
          "internalType": "uint256",
          "name": "",
          "type": "uint256"
        }
      ],
      "stateMutability": "view",
      "type": "function"
    },
    {
      "inputs": [],
      "name": "unpause",
      "outputs": [],
      "stateMutability": "nonpayable",
      "type": "function"
    },
    {
      "inputs": [],
      "name": "unpauseDrawdowns",
      "outputs": [],
      "stateMutability": "nonpayable",
      "type": "function"
    },
    {
      "inputs": [
        {
          "internalType": "uint256",
          "name": "tokenId",
          "type": "uint256"
        },
        {
          "internalType": "uint256",
          "name": "amount",
          "type": "uint256"
        }
      ],
      "name": "withdraw",
      "outputs": [
        {
          "internalType": "uint256",
          "name": "",
          "type": "uint256"
        },
        {
          "internalType": "uint256",
          "name": "",
          "type": "uint256"
        }
      ],
      "stateMutability": "nonpayable",
      "type": "function"
    },
    {
      "inputs": [
        {
          "internalType": "uint256",
          "name": "tokenId",
          "type": "uint256"
        }
      ],
      "name": "withdrawMax",
      "outputs": [
        {
          "internalType": "uint256",
          "name": "interestWithdrawn",
          "type": "uint256"
        },
        {
          "internalType": "uint256",
          "name": "principalWithdrawn",
          "type": "uint256"
        }
      ],
      "stateMutability": "nonpayable",
      "type": "function"
    },
    {
      "inputs": [
        {
          "internalType": "uint256[]",
          "name": "tokenIds",
          "type": "uint256[]"
        },
        {
          "internalType": "uint256[]",
          "name": "amounts",
          "type": "uint256[]"
        }
      ],
      "name": "withdrawMultiple",
      "outputs": [],
      "stateMutability": "nonpayable",
      "type": "function"
    },
    {
      "inputs": [],
      "name": "withinPrincipalGracePeriod",
      "outputs": [
        {
          "internalType": "bool",
          "name": "",
          "type": "bool"
        }
      ],
      "stateMutability": "view",
      "type": "function"
    }
  ],
  "transactionHash": "0x9fc9bc0add9b3dbc9d4521be6145f17fffd2ed0e8fc65d50c45d407160799a5a",
  "args": [],
  "numDeployments": 1,
  "solcInputHash": "0f4ee74749898fc4dd2562b3b6554164",
  "bytecode": "0x608060405234801561001057600080fd5b5061626280620000216000396000f3fe608060405234801561001057600080fd5b50600436106104ab5760003560e01c80638456cb591161026d578063bf8bcee411610151578063e2b02ce8116100ce578063eabd0ce111610092578063eabd0ce1146107c5578063eb07f4e6146109a7578063ef48eee6146109af578063f0b25bde146109c2578063f3621367146109ca578063f94f5a12146109df57600080fd5b8063e2b02ce81461094f578063e2bbb15814610957578063e58378bb1461096a578063e63ab1e91461097f578063e7aa8a921461099457600080fd5b8063d284597711610115578063d2845977146108fb578063d547741f14610903578063d60efcb814610916578063daaa3a6214610929578063e2a657f91461093c57600080fd5b8063bf8bcee4146105ec578063c290d6911461087f578063c78bed86146108d4578063ce78290d146108e9578063cf09e0d0146108f157600080fd5b8063aa2a7c4c116101ea578063b5c6d254116101ae578063b5c6d25414610843578063b69ef8a81461084c578063b6db75a014610854578063b9317d861461085c578063bbafcb401461086f578063bf6c87c71461087757600080fd5b8063aa2a7c4c146107d5578063aae932fe146107e8578063ae6c857a14610816578063b0604a2614610829578063b39699921461083b57600080fd5b8063a03c5cf011610231578063a03c5cf0146107a2578063a079a4dd146107aa578063a217fddf146107bd578063a4d66daf146107c5578063a8f9c4fe146107cd57600080fd5b80638456cb59146107645780638c0243e71461076c5780638f168c931461077457806391d148541461077c5780639d1105301461078f57600080fd5b806336568abe11610394578063515bc3231161031157806364fb2d95116102d557806364fb2d951461071157806365973a1114610719578063729cf22f1461072c57806379502c55146107345780637df1f1b91461074857806381c17a151461075c57600080fd5b8063515bc323146106d0578063526d81f6146106e35780635c975abb146106eb578063612ed34d146106f6578063645d62251461070957600080fd5b806348eef1df1161035857806348eef1df1461067c5780634af75d351461068f5780634d02fe6f146106a25780634d90a539146106b557806350b22fcf146106c857600080fd5b806336568abe146106225780633f4ba83a14610635578063441a3e701461063d578063457147a71461066557806347195e131461066d57600080fd5b80631cd724ac1161042d57806324bb4b15116103f157806324bb4b15146105d157806327d18cd1146105e457806327ea6f2b146105ec57806328b55c97146105ff5780632ba443d2146106075780632f2ff15d1461060f57600080fd5b80631cd724ac1461057657806320dcc3421461057e57806321506ebe1461058657806321856b36146105a6578063248a9ca3146105ae57600080fd5b806311daef071161047457806311daef071461053657806317f7694114610549578063191401191461055757806319350114146105665780631a861d261461056e57600080fd5b8062ae88e0146104b0578063019c37e6146104d657806301ffc9a7146104e9578063097616a31461050c5780630d8e6e2c14610521575b600080fd5b6104c36104be366004615950565b6109f2565b6040519081526020015b60405180910390f35b6104c36104e4366004615950565b610a06565b6104fc6104f7366004615969565b610a14565b60405190151581526020016104cd565b61051f61051a3660046159a8565b610a49565b005b610529610b9b565b6040516104cd91906159c5565b6104c3610544366004615950565b610bb8565b610202546104fc9060ff1681565b60016040516104cd9190615a0f565b6104c3610bc6565b6104c3610bd8565b6104c3610bf2565b6104c3610bff565b610599610594366004615950565b610c0c565b6040516104cd9190615a29565b6104c3610cbe565b6104c36105bc366004615950565b60009081526065602052604090206001015490565b6104c36105df366004615950565b610ccb565b6104c3610cd9565b61051f6105fa366004615950565b610ce6565b6104c3610cfe565b6104c3610d0b565b61051f61061d366004615a54565b610d18565b61051f610630366004615a54565b610d43565b61051f610dbd565b61065061064b366004615a84565b610dfb565b604080519283526020830191909152016104cd565b6104fc610eed565b305b6040516104cd9190615aa6565b61065061068a366004615a84565b610efa565b6104c361069d366004615950565b6115cf565b6106506106b0366004615950565b6115dd565b6104c36106c3366004615950565b611678565b6104c3611686565b6104c36106de366004615aba565b611693565b61051f611795565b60975460ff166104fc565b6104c3610704366004615950565b611809565b6104c3611845565b6104c3611852565b6104c3610727366004615950565b61185f565b610599611949565b6102045461066f906001600160a01b031681565b6102065461066f906001600160a01b031681565b6104fc6119c3565b61051f6119d0565b6104c3611a0c565b6104c3611a19565b6104fc61078a366004615a54565b611a26565b61051f61079d366004615b57565b611a51565b6104c3611bdf565b61051f6107b8366004615950565b611c02565b6104c3600081565b6104c3611d65565b61051f611d72565b6106506107e3366004615950565b611dd1565b6107fb6107f6366004615950565b611e36565b604080519384526020840192909252908201526060016104cd565b61051f610824366004615950565b611e87565b6101ed546001600160a01b031661066f565b6104c3611ed3565b6104c361138881565b6104c3611ee0565b6104fc611eed565b61051f61086a366004615bc2565b611f07565b6104c3611f74565b61051f611f81565b61089261088d366004615950565b611fdd565b6040516104cd9190600060a082019050825182526020830151602083015260408301516040830152606083015160608301526080830151608083015292915050565b6108dc612043565b6040516104cd9190615c03565b6104c361209c565b6104c36102055481565b6104c36120a9565b61051f610911366004615a54565b6120b6565b6104c3610924366004615950565b6120dc565b6104c3610937366004615950565b6120ea565b6104c361094a366004615950565b6120f8565b6104c361211a565b6104c3610965366004615a84565b612127565b6104c36000805160206161cd83398151915281565b6104c36000805160206161ed83398151915281565b61051f6109a2366004615c47565b612189565b6104c36123cd565b6108926109bd366004615a84565b6123f1565b6104c3612443565b6104c360008051602061620d83398151915281565b6104fc6109ed3660046159a8565b612450565b6000610a006101c3836124d9565b92915050565b6000610a006101c3836124e5565b60006001600160e01b03198216637965db0b60e01b1480610a0057506301ffc9a760e01b6001600160e01b0319831614610a00565b600054610100900460ff1680610a62575060005460ff16155b610a875760405162461bcd60e51b8152600401610a7e90615cf6565b60405180910390fd5b600054610100900460ff16158015610aa9576000805461ffff19166101011790555b6001600160a01b038216610aff5760405162461bcd60e51b815260206004820181905260248201527f4f776e65722063616e6e6f7420626520746865207a65726f20616464726573736044820152606401610a7e565b610b076124f1565b610b0f61255b565b610b176125d0565b610b2f6000805160206161cd83398151915283612640565b610b476000805160206161ed83398151915283612640565b610b6d6000805160206161ed8339815191526000805160206161cd83398151915261264a565b610b856000805160206161cd8339815191528061264a565b8015610b97576000805461ff00191690555b5050565b610ba3615826565b60006040820181905260208201526001815290565b6000610a006101c383612695565b6000610bd36101c36126a1565b905090565b600060405162461bcd60e51b8152600401610a7e90615d5a565b6000610bd36101c36126ac565b6000610bd36101c36126b7565b610c376040518060800160405280600081526020016000815260200160008152602001600081525090565b610c3f610d0b565b8210610c75576001610c4f610d0b565b610c599190615d8c565b6040516313e43c3760e31b8152600401610a7e91815260200190565b6000610c836101c3846126c2565b905060405180608001604052808260000151815260200182602001518152602001826040015181526020018260600151815250915050919050565b6000610bd36101c36126f7565b6000610a006101c383612702565b6000610bd36101c361270e565b60405162461bcd60e51b8152600401610a7e90615d5a565b6000610bd36101c361271b565b6000610bd36101c3612726565b600082815260656020526040902060010154610d348133612731565b610d3e8383612795565b505050565b6001600160a01b0381163314610db35760405162461bcd60e51b815260206004820152602f60248201527f416363657373436f6e74726f6c3a2063616e206f6e6c792072656e6f756e636560448201526e103937b632b9903337b91039b2b63360891b6064820152608401610a7e565b610b97828261281b565b610dd56000805160206161ed83398151915233611a26565b610df15760405162461bcd60e51b8152600401610a7e90615d9f565b610df9612882565b565b600080600260c95403610e205760405162461bcd60e51b8152600401610a7e90615dbb565b600260c95560975460ff1615610e485760405162461bcd60e51b8152600401610a7e90615df2565b61020454600090610e61906001600160a01b031661290f565b6001600160a01b0316638c7a63ae866040518263ffffffff1660e01b8152600401610e8e91815260200190565b60a060405180830381865afa158015610eab573d6000803e3d6000fd5b505050506040513d601f19601f82011682018060405250810190610ecf9190615e32565b9050610edc81868661291a565b600160c95590969095509350505050565b6000610bd36101c3612943565b600080600260c95403610f1f5760405162461bcd60e51b8152600401610a7e90615dbb565b600260c95560975460ff1615610f475760405162461bcd60e51b8152600401610a7e90615df2565b6000610f546101c361294e565b61020454909150600090610f70906001600160a01b031661290f565b60405163463d31d760e11b8152600481018790529091506000906001600160a01b03831690638c7a63ae9060240160a060405180830381865afa158015610fbb573d6000803e3d6000fd5b505050506040513d601f19601f82011682018060405250810190610fdf9190615e32565b60405163430c208160e01b81529091506001600160a01b0383169063430c2081906110109033908a90600401615eb8565b602060405180830381865afa15801561102d573d6000803e3d6000fd5b505050506040513d601f19601f820116820180604052508101906110519190615ed1565b1580611063575061106133612450565b155b156110855733866040516333bb1eed60e21b8152600401610a7e929190615eb8565b61108e8361295d565b8160200151146110b4576040516302bf919760e11b815260048101879052602401610a7e565b866000036110d5576040516389abd5ad60e01b815260040160405180910390fd5b602081015160408201516110ea91859161296b565b87111561113a578587611110836020015184604001518761296b9092919063ffffffff16565b604051630160ccb360e71b8152600481019390935260248301919091526044820152606401610a7e565b60008061115b836020015184604001516111526123cd565b8892919061298c565b9150915060008360800151838560600151846111779190615d8c565b6111819190615ef3565b61118b9190615d8c565b905080156111a25761119f848a83896129cd565b50505b50600080806111b1888d612cbc565b9350509250925060646111c26123cd565b6111cd906064615d8c565b6111d79083615f06565b6111e19190615f33565b6040516331a9108f60e11b8152600481018d90529091506000906001600160a01b03891690636352211e90602401602060405180830381865afa15801561122c573d6000803e3d6000fd5b505050506040513d601f19601f820116820180604052508101906112509190615f47565b9050876001600160a01b0316635be57b6a604051806040016040528087815260200161127b8d612d83565b815250836040518363ffffffff1660e01b815260040161129c929190615f64565b6020604051808303816000875af11580156112bb573d6000803e3d6000fd5b505050506040513d601f19601f820116820180604052508101906112df9190615f89565b60405163b819220560e01b8152600481018290526024810185905260448101849052909b506001600160a01b0389169063b819220590606401600060405180830381600087803b15801561133257600080fd5b505af1158015611346573d6000803e3d6000fd5b5050505061138884886040015161135d9190615d8c565b11156114a457876001600160a01b0316635be57b6a6040518060400160405280878b6040015161138d9190615d8c565b815260200161139b8d61295d565b815250836040518363ffffffff1660e01b81526004016113bc929190615f64565b6020604051808303816000875af11580156113db573d6000803e3d6000fd5b505050506040513d601f19601f820116820180604052508101906113ff9190615f89565b99508483111561141157611411615fa2565b8582111561142157611421615fa2565b6001600160a01b03881663b81922058b61143b8689615d8c565b611445868b615d8c565b6040516001600160e01b031960e086901b168152600481019390935260248301919091526044820152606401600060405180830381600087803b15801561148b57600080fd5b505af115801561149f573d6000803e3d6000fd5b505050505b50866001600160a01b031663b81922058c8689604001516114c59190615d8c565b6040516001600160e01b031960e085901b1681526004810192909252602482015260006044820152606401600060405180830381600087803b15801561150a57600080fd5b505af115801561151e573d6000803e3d6000fd5b5050604051630852cd8d60e31b8152600481018e90526001600160a01b038a1692506342966c689150602401600060405180830381600087803b15801561156457600080fd5b505af1158015611578573d6000803e3d6000fd5b50505050888a8c7f5df84d720403cf4728bc2d21f8e1c46f0427db198f152e92a243a66172a2fbae8f6040516115b091815260200190565b60405180910390a45050505050505050600160c9819055509250929050565b6000610a006101c383612db0565b61020454600090819061166f906115fc906001600160a01b031661290f565b6001600160a01b0316638c7a63ae856040518263ffffffff1660e01b815260040161162991815260200190565b60a060405180830381865afa158015611646573d6000803e3d6000fd5b505050506040513d601f19601f8201168201806040525081019061166a9190615e32565b612dbc565b91509150915091565b6000610a006101c383612e5a565b6000610bd36101c3612e66565b6000600260c954036116b75760405162461bcd60e51b8152600401610a7e90615dbb565b600260c95560975460ff16156116df5760405162461bcd60e51b8152600401610a7e90615df2565b610204546116f5906001600160a01b0316612e71565b60405163d505accf60e01b8152336004820152306024820152604481018890526064810187905260ff8616608482015260a4810185905260c481018490526001600160a01b03919091169063d505accf9060e401600060405180830381600087803b15801561176357600080fd5b505af1158015611777573d6000803e3d6000fd5b505050506117858787612ee4565b600160c955979650505050505050565b600054610100900460ff16806117ae575060005460ff16155b6117ca5760405162461bcd60e51b8152600401610a7e90615cf6565b600054610100900460ff161580156117ec576000805461ffff19166101011790555b6117f461255b565b8015611806576000805461ff00191690555b50565b60006118306118184284615d8c565b611820611bdf565b61182b6101c36130a3565b6130b0565b61183b6101c36126f7565b610a009190615ef3565b6000610bd36101c36130f2565b6000610bd36101c36130fd565b61020454600090819061187a906001600160a01b031661290f565b6001600160a01b0316638c7a63ae846040518263ffffffff1660e01b81526004016118a791815260200190565b60a060405180830381865afa1580156118c4573d6000803e3d6000fd5b505050506040513d601f19601f820116820180604052508101906118e89190615e32565b90506118f2610d0b565b81602001511461192b578060200151611909610d0b565b604051639d07b47960e01b815260048101929092526024820152604401610a7e565b60208101516040820151611942916101c391613108565b9392505050565b6119746040518060800160405280600081526020016000815260200160008152602001600081525090565b600061198a611981610d0b565b6101c3906126c2565b90506040518060800160405280826000015181526020018260200151815260200182604001518152602001826060015181525091505090565b6000610bd36101c3613115565b6119e86000805160206161ed83398151915233611a26565b611a045760405162461bcd60e51b8152600401610a7e90615d9f565b610df9613120565b6000610bd36101c3613178565b6000610bd36101c3613183565b60009182526065602090815260408084206001600160a01b0393909316845291905290205460ff1690565b600260c95403611a735760405162461bcd60e51b8152600401610a7e90615dbb565b600260c95560975460ff1615611a9b5760405162461bcd60e51b8152600401610a7e90615df2565b6000611aa86101c361294e565b9050838214611ad457604051631f4bb7c160e31b81526004810185905260248101839052604401610a7e565b60005b82811015611bd25761020454600090611af8906001600160a01b031661290f565b6001600160a01b0316638c7a63ae888885818110611b1857611b18615d44565b905060200201356040518263ffffffff1660e01b8152600401611b3d91815260200190565b60a060405180830381865afa158015611b5a573d6000803e3d6000fd5b505050506040513d601f19601f82011682018060405250810190611b7e9190615e32565b9050611bbc81888885818110611b9657611b96615d44565b90506020020135878786818110611baf57611baf615d44565b90506020020135866129cd565b5050508080611bca90615fb8565b915050611ad7565b5050600160c95550505050565b6000611bed6101c34261318e565b611bf86101c361319a565b610bd39190615d8c565b600260c95403611c245760405162461bcd60e51b8152600401610a7e90615dbb565b600260c955611c4160008051602061620d83398151915233611a26565b611c605733604051632d4db6b160e21b8152600401610a7e9190615aa6565b60975460ff1615611c835760405162461bcd60e51b8152600401610a7e90615df2565b6102025460ff1615611cab576040516001620112a160e61b0319815260040160405180910390fd5b80600003611ccc5760405163625cef9f60e01b815260040160405180910390fd5b6000611cd96101c361294e565b9050611ce581836131a5565b6102065461020454611d19916001600160a01b03908116918591611d099116613296565b6001600160a01b031691906132a1565b610206546040518381526001600160a01b03909116907f7411b87a3c039bdfd8f3510b21e8bd0736265f53513735e1f4aa7b4f306b728d9060200160405180910390a25050600160c955565b6000610bd36101c36132f7565b611d7a611eed565b611d965760405162461bcd60e51b8152600401610a7e90615fd1565b610202805460ff1916600117905560405130907f90d9b09c68a7e1312ce22801552b47265d77db9496383d51374b4058545447d790600090a2565b600080600260c95403611df65760405162461bcd60e51b8152600401610a7e90615dbb565b600260c95560975460ff1615611e1e5760405162461bcd60e51b8152600401610a7e90615df2565b611e2783613304565b600160c9559094909350915050565b600080600042841015611e5f576040516363c09f6d60e01b815260048101859052602401610a7e565b611e68846120dc565b611e7185611678565b611e7a86610bb8565b9250925092509193909250565b611e9f60008051602061620d83398151915233611a26565b611ebe5733604051632d4db6b160e21b8152600401610a7e9190615aa6565b61180681611ecd6101c361294e565b906133f1565b6000610bd36101c36130a3565b6000610bd36101c361343b565b6000610bd36000805160206161cd83398151915233611a26565b611f1f60008051602061620d83398151915233611a26565b611f3e5733604051632d4db6b160e21b8152600401610a7e9190615aa6565b611f496101c361319a565b15611f675760405163854eac3360e01b815260040160405180910390fd5b610d3e6102038383615844565b6000610bd36101c3613446565b611f89611eed565b611fa55760405162461bcd60e51b8152600401610a7e90615fd1565b610202805460ff1916905560405130907f7184039938737267597232635b117c924371ac877d4329f2dfa5ca674c5cc4a590600090a2565b611fe561588b565b600260c954036120075760405162461bcd60e51b8152600401610a7e90615dbb565b600260c95560975460ff161561202f5760405162461bcd60e51b8152600401610a7e90615df2565b61203882613453565b600160c95592915050565b606061020380548060200260200160405190810160405280929190818152602001828054801561209257602002820191906000526020600020905b81548152602001906001019080831161207e575b5050505050905090565b6000610bd36101c3613627565b6000610bd36101c3613632565b6000828152606560205260409020600101546120d28133612731565b610d3e838361281b565b6000610a006101c38361363d565b6000610a006101c383613649565b610203818154811061210957600080fd5b600091825260209091200154905081565b6000610bd36101c3613655565b6000600260c9540361214b5760405162461bcd60e51b8152600401610a7e90615dbb565b600260c95560975460ff16156121735760405162461bcd60e51b8152600401610a7e90615df2565b61217d8383612ee4565b600160c9559392505050565b600054610100900460ff16806121a2575060005460ff16155b6121be5760405162461bcd60e51b8152600401610a7e90615cf6565b600054610100900460ff161580156121e0576000805461ffff19166101011790555b856001600160a01b031663f755f0006040518163ffffffff1660e01b8152600401602060405180830381865afa15801561221e573d6000803e3d6000fd5b505050506040513d601f19601f820116820180604052508101906122429190615f89565b87106122cd5786866001600160a01b031663f755f0006040518163ffffffff1660e01b8152600401602060405180830381865afa158015612287573d6000803e3d6000fd5b505050506040513d601f19601f820116820180604052508101906122ab9190615f89565b604051636702d6b760e11b815260048101929092526024820152604401610a7e565b61020480546001600160a01b03808e166001600160a01b0319928316179092556102068054928d169290911691909117905542610205556123116102038484615844565b506102045460009061232b906001600160a01b0316613660565b905061233681610a49565b61234e60008051602061620d8339815191528c612640565b61236660008051602061620d83398151915282612640565b61238c60008051602061620d8339815191526000805160206161cd83398151915261264a565b506123ae8b8589898c8a8f6101c361367890979695949392919063ffffffff16565b80156123c0576000805461ff00191690555b5050505050505050505050565b610204546000906123e6906001600160a01b0316613692565b610bd3906064615f33565b6123f961588b565b600260c9540361241b5760405162461bcd60e51b8152600401610a7e90615dbb565b600260c95560975460ff1615610ce65760405162461bcd60e51b8152600401610a7e90615df2565b6000610bd36101c3613705565b61020454600090612469906001600160a01b0316613712565b6001600160a01b0316631852f200836102036040518363ffffffff1660e01b815260040161249892919061601c565b602060405180830381865afa1580156124b5573d6000803e3d6000fd5b505050506040513d601f19601f82011682018060405250810190610a009190615ed1565b6000611942838361371d565b6000611942838361372c565b600054610100900460ff168061250a575060005460ff16155b6125265760405162461bcd60e51b8152600401610a7e90615cf6565b600054610100900460ff161580156117f4576000805461ffff19166101011790558015611806576000805461ff001916905550565b600054610100900460ff1680612574575060005460ff16155b6125905760405162461bcd60e51b8152600401610a7e90615cf6565b600054610100900460ff161580156125b2576000805461ffff19166101011790555b6097805460ff191690558015611806576000805461ff001916905550565b600054610100900460ff16806125e9575060005460ff16155b6126055760405162461bcd60e51b8152600401610a7e90615cf6565b600054610100900460ff16158015612627576000805461ffff19166101011790555b600160c9558015611806576000805461ff001916905550565b610b978282612795565b600082815260656020526040808220600101805490849055905190918391839186917fbd79b86ffe0ab8e8776151514217cd7cacd52c909f66475c3af44e129f0b00ff9190a4505050565b60006119428383613745565b6000610a008261376b565b6000610a0082613777565b6000610a0082613783565b6126ed6040518060800160405280600081526020016000815260200160008152602001600081525090565b611942838361378f565b6000610a0082613844565b60006119428383613850565b6000610a00826001015490565b6000610a008261385f565b6000610a008261295d565b61273b8282611a26565b610b9757612753816001600160a01b0316601461386b565b61275e83602061386b565b60405160200161276f92919061609b565b60408051601f198184030181529082905262461bcd60e51b8252610a7e9160040161610a565b61279f8282611a26565b610b975760008281526065602090815260408083206001600160a01b03851684529091529020805460ff191660011790556127d73390565b6001600160a01b0316816001600160a01b0316837f2f8788117e7eff1d82e926ec794901d17c78024a50270940304540a733656f0d60405160405180910390a45050565b6128258282611a26565b15610b975760008281526065602090815260408083206001600160a01b0385168085529252808320805460ff1916905551339285917ff6391f5c32d9c69d2a47ea670b442974b53935d1edc7fd64eb21e047a839171b9190a45050565b60975460ff166128cb5760405162461bcd60e51b815260206004820152601460248201527314185d5cd8589b194e881b9bdd081c185d5cd95960621b6044820152606401610a7e565b6097805460ff191690557f5db9ee0a495bf2e6ff9c91a7834c1ba4fdd244a5e8aa4e537bd38aeae4b073aa335b6040516129059190615aa6565b60405180910390a1565b6000610a0082613a06565b600080600061292a6101c361294e565b9050612938868686846129cd565b505050935093915050565b6000610a0082613a1e565b600061295982613a2d565b5090565b6000610a0082600a01613ad3565b60006129848261297e600a870186613ae9565b90613b16565b949350505050565b600080428660060154146129a2576129a2615fa2565b60006129b1600a880187613ae9565b90506129be818686613b3e565b92509250505b94509492505050565b600080836000036129f15760405163d6d9e66560e01b815260040160405180910390fd5b61020454600090612a0a906001600160a01b031661290f565b60405163430c208160e01b81529091506001600160a01b0382169063430c208190612a3b9033908a90600401615eb8565b602060405180830381865afa158015612a58573d6000803e3d6000fd5b505050506040513d601f19601f82011682018060405250810190612a7c9190615ed1565b1580612a8e5750612a8c33612450565b155b15612ab05733866040516302bb2cbd60e41b8152600401610a7e929190615eb8565b600080612abd8987613b62565b9092509050612acc8183615ef3565b871115612b005786612ade8284615ef3565b6040516383a0dc4160e01b815260048101929092526024820152604401610a7e565b6000612b0c8389613bf8565b90506000612b1a828a615d8c565b90506000612b288285613bf8565b90506000612b358a613c0e565b90506003816003811115612b4b57612b4b6159f9565b03612bbe5760405163b819220560e01b8152600481018d905260248101839052604481018590526001600160a01b0388169063b8192205906064015b600060405180830381600087803b158015612ba157600080fd5b505af1158015612bb5573d6000803e3d6000fd5b50505050612c43565b6001816003811115612bd257612bd26159f9565b03612c2a578315612be557612be5615fa2565b60208d0151612bf6908b9084613c78565b6040516366cbb03760e01b8152600481018d9052602481018390526001600160a01b038816906366cbb03790604401612b87565b604051630682584b60e41b815260040160405180910390fd5b50612c6833612c528386615ef3565b61020454611d09906001600160a01b0316613296565b6020808d0151604080518681529283018490528d9233917f92f2787b755dae547f1701582fe74c7abf277ec14db316dd01abc69cacf7a259910160405180910390a4919b919a509098505050505050505050565b60008080806003612ccc87613c0e565b6003811115612cdd57612cdd6159f9565b14612d0857612ceb86613c0e565b6003604051631682f2a160e21b8152600401610a7e929190616151565b6000612d1387612d83565b9050612d1e8761295d565b8110612d3d576040516398248d2160e01b815260040160405180910390fd5b612d4687613ccf565b15612d6457604051633416210760e21b815260040160405180910390fd5b612d72600a88018783613d14565b929a91995097509095509350505050565b600080612d908342613d64565b9050612d9b83613ccf565b612da55780611942565b611942816001615ef3565b60006119428383613d73565b6000808260400151600003612dd657506000928392509050565b600080612df985602001518660400151612dee6123cd565b6101c3929190613eb6565b9092509050612e09816001615ef3565b85606001511115612e1c57612e1c615fa2565b8185608001511115612e3057612e30615fa2565b6080850151612e3f9083615d8c565b6060860151612e4f908390613ed2565b935093505050915091565b60006119428383613eec565b6000610a0082613f38565b60006001600160a01b03821663b93f9b0a60055b6040518263ffffffff1660e01b8152600401612ea391815260200190565b602060405180830381865afa158015612ec0573d6000803e3d6000fd5b505050506040513d601f19601f82011682018060405250810190610a009190615f47565b600080612ef26101c361294e565b905082600003612f155760405163078e1d8560e01b815260040160405180910390fd5b612f1e8161295d565b8414612f535783612f2e8261295d565b6040516001629f3b6360e01b0319815260048101929092526024820152604401610a7e565b612f5c33612450565b612f7b5733604051631e4767b960e31b8152600401610a7e9190615aa6565b612f858184613f44565b61020454600090612f9e906001600160a01b031661290f565b6001600160a01b0316635be57b6a604051806040016040528087815260200188815250336040518363ffffffff1660e01b8152600401612fdf929190615f64565b6020604051808303816000875af1158015612ffe573d6000803e3d6000fd5b505050506040513d601f19601f820116820180604052508101906130229190615f89565b6102045490915061305690339030908790613045906001600160a01b0316613296565b6001600160a01b0316929190614003565b8085336001600160a01b03167fcb3ef4109dcd006671348924f00aac8398190a5ff283d6e470d74581513e10368760405161309391815260200190565b60405180910390a4949350505050565b6000610a00826003015490565b60006130c16201518061016d615f06565b6130d390670de0b6b3a7640000615f06565b846130de8486615f06565b6130e89190615f06565b6129849190615f33565b6000610a008261403b565b6000610a0082614049565b600061298484848461296b565b6000610a0082614057565b60975460ff16156131435760405162461bcd60e51b8152600401610a7e90615df2565b6097805460ff191660011790557f62e78cea01bee320cd4e420270b5ea74000d11b0c9f74754ebdbfc544b05a2586128f83390565b6000610a0082614063565b6000610a0082614071565b6000611942838361407d565b6000610a0082614113565b60006131b083613c0e565b905060018160038111156131c6576131c66159f9565b03613216576131d8602a840142614121565b4260078401556131e783613c0e565b60405190915030907f139a6829bb850b4fb0d6617ac9f9d32e48c2dbe13e158829fa64f326fafe8e1890600090a25b600281600381111561322a5761322a6159f9565b1461324d57806002604051631682f2a160e21b8152600401610a7e929190616151565b6132568361385f565b82111561328957816132678461385f565b60405163d04a3a1160e01b815260048101929092526024820152604401610a7e565b610d3e600a840183614168565b6000610a0082612e71565b610d3e8363a9059cbb60e01b84846040516024016132c0929190615eb8565b60408051601f198184030181529190526020810180516001600160e01b03166001600160e01b031990931692909217909152614189565b6000610a00826002015490565b60008060006133146101c361294e565b61020454909150600090613330906001600160a01b031661290f565b6001600160a01b0316638c7a63ae866040518263ffffffff1660e01b815260040161335d91815260200190565b60a060405180830381865afa15801561337a573d6000803e3d6000fd5b505050506040513d601f19601f8201168201806040525081019061339e9190615e32565b90506000806133ac83612dbc565b909250905060006133bd8284615ef3565b9050806000036133d7575060009788975095505050505050565b6133e3848983886129cd565b965096505050505050915091565b60006133fc83613c0e565b600381111561340d5761340d6159f9565b146134335781600101546040516303e9bfa760e11b8152600401610a7e91815260200190565b600190910155565b6000610a008261425b565b6000610a00826006015490565b61345b61588b565b60006134686101c361294e565b90508260000361348b5760405163932ca0a360e01b815260040160405180910390fd5b600061349682614269565b905060006134a383614295565b905060006134dd8684846134b68861376b565b60038901546134cf426134c98c826142d1565b90613ed2565b6134d88b61425b565b6142e0565b90506000816020015182600001516134f59190615ef3565b905060008260600151836040015161350d9190615ef3565b9050600060648361351c6123cd565b6135269190615f06565b6135309190615f33565b905061353d8783856143cf565b60808481015160408051868152602081018690529081019190915260608101839052309133917fd1055dc2c2a003a83dfacb1c38db776eab5ef89d77a8f05a3512e8cf57f953ce910160405180910390a36135b3333061359d8587615ef3565b61020454613045906001600160a01b0316613296565b610204546135e5906135cd906001600160a01b0316614442565b610204548390611d09906001600160a01b0316613296565b60405181815230907ff3583f178a8d4f8888c3683f8e948faf9b6eb701c4f1fab265a6ecad1a1ddebb9060200160405180910390a25091979650505050505050565b6000610a008261445a565b6000610a0082614519565b60006119428383614525565b6000611942838361456e565b6000610a0082614600565b60006001600160a01b03821663b93f9b0a6007612e85565b613688888888888888888861460c565b5050505050505050565b60006001600160a01b03821663fc56365860035b6040518263ffffffff1660e01b81526004016136c491815260200190565b602060405180830381865afa1580156136e1573d6000803e3d6000fd5b505050506040513d601f19601f82011682018060405250810190610a009190615f89565b6000610a00826004015490565b6000610a008261471f565b6000611942602a840183614737565b600061194261373b8484613d64565b600a8501906147df565b60006119426137616137578585613d64565b600a860190614816565b6134c9858561372c565b6000610a008242613745565b6000610a008242613d73565b6000610a008242613eec565b6137ba6040518060800160405280600081526020016000815260200160008152602001600081525090565b60006137c9600a850184613ae9565b90506137d6816003015490565b6060830152805482526137e884614852565b80156137fe57506137fb84602a01614860565b83105b1561382857600281015460018201546138179190615ef3565b60208301526000604083015261383d565b60018101546020830152600281015460408301525b5092915050565b6000610a008242614525565b6000611942602a84018361486c565b6000610a00824261407d565b6060600061387a836002615f06565b613885906002615ef3565b6001600160401b0381111561389c5761389c615e1c565b6040519080825280601f01601f1916602001820160405280156138c6576020820181803683370190505b509050600360fc1b816000815181106138e1576138e1615d44565b60200101906001600160f81b031916908160001a905350600f60fb1b8160018151811061391057613910615d44565b60200101906001600160f81b031916908160001a9053506000613934846002615f06565b61393f906001615ef3565b90505b60018111156139b7576f181899199a1a9b1b9c1cb0b131b232b360811b85600f166010811061397357613973615d44565b1a60f81b82828151811061398957613989615d44565b60200101906001600160f81b031916908160001a90535060049490941c936139b08161616c565b9050613942565b5083156119425760405162461bcd60e51b815260206004820181905260248201527f537472696e67733a20686578206c656e67746820696e73756666696369656e746044820152606401610a7e565b60006001600160a01b03821663b93f9b0a600c612e85565b6000610a00602a830142614902565b6000613a3882613c0e565b90506001816003811115613a4e57613a4e6159f9565b03613a57575050565b6000613a6583602a01614994565b90506000613a83846006015485602a0161499c90919063ffffffff16565b905080821115613a9a57613a9a600a850183614a03565b613aa38461445a565b6007850155613ab184614071565b6008850155613abf84613777565b600985015550504260069092019190915550565b60006001613adf835490565b610a009190615d8c565b6000826000018281548110613b0057613b00615d44565b9060005260206000209060200201905092915050565b6000613b20835490565b82613b2a85614a81565b613b349190615f06565b6119429190615f33565b600080613b4c858585614a94565b613b568686614aca565b91509150935093915050565b6000808360400151600003613b7c57506000905080613bf1565b600080613b94866020015187604001516111526123cd565b9092509050613ba4816001615ef3565b86606001511115613bb757613bb7615fa2565b8186608001511115613bcb57613bcb615fa2565b6080860151613bda9083615d8c565b6060870151613bea908390613ed2565b9350935050505b9250929050565b6000818310613c075781611942565b5090919050565b6000613c1c82602a01614ae0565b613c3a5781600101544210613c32576001610a00565b600092915050565b8154613c4e906001600160a01b0316614af6565b613c578361403b565b613c619190615ef3565b421015613c7057506002919050565b506003919050565b6000613c8384613c0e565b90506001816003811115613c9957613c996159f9565b14613cbc57806001604051631682f2a160e21b8152600401610a7e929190616151565b613cc9600a850183614b0e565b50505050565b600080613cde83602a01614994565b90506000613cee84602a01614b2b565b9050836005015481613d009190615d8c565b613d0a8284616183565b1015949350505050565b600080600080613d3786613d31613d2a8a613ad3565b8a90613ae9565b90614b73565b92965090945092509050613d5b84848484613d528c8b613ae9565b93929190614c86565b93509350935093565b6000611942602a840183614cf7565b60008260060154821015613daa57600683015460405163d91ecab360e01b8152610a7e918491600401918252602082015260400190565b613db683602a01614ae0565b613dc257506000610a00565b50600982015481613dd284614049565b84600601541015613e0357613e00613dfa856006015486602a01614d5e90919063ffffffff16565b84613bf8565b90505b60068401548454600091613e54916201518090613e28906001600160a01b0316614dc5565b613e329190615f06565b6007880154613e4590602a8a019061486c565b613e4f9190615ef3565b614ddd565b9050613e7b85600601548383613e6c89600a01614ded565b89600301548a60040154614e30565b613e859084615ef3565b925083821015613eae57613ea1828583613e6c89600a01614ea1565b613eab9084615ef3565b92505b505092915050565b600080613ec586868686614ede565b9150915094509492505050565b6000828211613ee357818303611942565b50600092915050565b600042821015613f12576040516363c09f6d60e01b815260048101839052602401610a7e565b611942613f2e613f2485600a01614fbe565b613e4f868661456e565b6134c98585613d73565b6000610a00824261372c565b6000613f4f83613c0e565b90506001816003811115613f6557613f656159f9565b14613f8857806001604051631682f2a160e21b8152600401610a7e929190616151565b6002830154613faa613fa6613f9c8661295d565b600a870190613ae9565b5490565b613fb49084615ef3565b1115613ff65781613fc784600a01614ffd565b600285015460405163b28e2ed760e01b8152600481019390935260248301919091526044820152606401610a7e565b610d3e600a840183615035565b6040516001600160a01b0380851660248301528316604482015260648101829052613cc99085906323b872dd60e01b906084016132c0565b6000610a0082602a0161504b565b6000610a0082602a0161509f565b6000610a0082426150f3565b6000610a0082600a01614fbe565b6000610a00824261456e565b600061408b83600a0161519d565b905061409683614852565b15610a005760006140a78484613d64565b90506140c0846006015485613d6490919063ffffffff16565b8111156140ea576140dd6140d6613f9c8661295d565b6002015490565b6140e79083615ef3565b91505b6141096140ff826140fa8761295d565b613bf8565b600a8601906151dc565b6129849083615ef3565b6000610a0082600a01614ffd565b8154600160a01b90046001600160401b03161561414057614140615fa2565b81546001600160401b03909116600160a01b0267ffffffffffffffff60a01b19909116179055565b600061417d61417684613ad3565b8490613ae9565b9050610d3e8183615213565b60006141de826040518060400160405280602081526020017f5361666545524332303a206c6f772d6c6576656c2063616c6c206661696c6564815250856001600160a01b03166152659092919063ffffffff16565b805190915015610d3e57808060200190518101906141fc9190615ed1565b610d3e5760405162461bcd60e51b815260206004820152602a60248201527f5361666545524332303a204552433230206f7065726174696f6e20646964206e6044820152691bdd081cdd58d8d9595960b21b6064820152608401610a7e565b6000610a0082600a01614ea1565b60004282600601541461427e5761427e615fa2565b610a0061428a83614063565b600884015490613ed2565b6000428260060154146142aa576142aa615fa2565b610a006142c66142bc84600a01614fbe565b8460080154614ddd565b600984015490613ed2565b6000611942602a840183614d5e565b6142e861588b565b8760006142f58983613bf8565b90506143018183615d8c565b9150600061430f8884613bf8565b905061431b8184615d8c565b925060006143298a85613bf8565b90506143358185615d8c565b935060006143438388615d8c565b9050600061435289838c6130b0565b905060006143608288613bf8565b905061436c8188615d8c565b9650600061437a8885613bf8565b90506143868189615d8c565b97506040518060a0016040528088815260200183876143a59190615ef3565b81526020018781526020018281526020018981525098505050505050505050979650505050505050565b60036143da84613c0e565b60038111156143eb576143eb6159f9565b146143f957612ceb83613c0e565b614416828261440a86602a01614860565b600a8701929190615274565b61441f8361376b565b158015614432575061443083614269565b155b15610d3e57426007840155505050565b60006001600160a01b03821663b93f9b0a6006612e85565b6000600361446783613c0e565b6003811115614478576144786159f9565b14614484575042919050565b50600781015460068201546000906144a090602a85019061499c565b905060006144b084602a01614994565b9050815b818110156145115760006144cb602a87018361534b565b90506144d78682613745565b1580156144eb57506144e98682614525565b155b156144f8578094506144fe565b50614511565b508061450981615fb8565b9150506144b4565b505050919050565b6000610a008242613850565b6000826006015482101561455c57600683015460405163d91ecab360e01b8152610a7e918491600401918252602082015260400190565b61194261456884614063565b6134c985855b600082600601548210156145a557600683015460405163d91ecab360e01b8152610a7e918491600401918252602082015260400190565b6145ae83614049565b8211156145c6576145bf8383613d73565b9050610a00565b60006145d5602a8501846153b2565b9050836006015481116145ee5750506008820154610a00565b6145f88482613d73565b915050610a00565b6000610a0082426142d1565b60068801541561462f576040516379c6736560e11b815260040160405180910390fd5b87546001600160a01b0319166001600160a01b0388811691909117895560028901829055600589018690556040805180820182529186168083526000602093840152602a8b0180546001600160e01b03191682179055815163e08cf88360e01b815291516146ee93919263e08cf8839260048083019391928290030181865afa1580156146c0573d6000803e3d6000fd5b505050506040513d601f19601f820116820180604052508101906146e49190615f89565b600a8a0190615419565b5050600387019190915560048601555050426006840181905560078401555050600060098201819055600890910155565b60006001600160a01b03821663b93f9b0a6013612e85565b60008261474381614ae0565b61475f5760405162461bcd60e51b8152600401610a7e90615d9f565b83546040516347487c0160e01b81526001600160a01b038216916347487c019161479e91600160a01b90046001600160401b0316908790600401616197565b602060405180830381865afa1580156147bb573d6000803e3d6000fd5b505050506040513d601f19601f820116820180604052508101906129849190615f89565b6000805b8281101561383d576147f8613fa68583613ae9565b6148029083615ef3565b91508061480e81615fb8565b9150506147e3565b6000805b8281101561383d5761483461482f8583613ae9565b6154ea565b61483e9083615ef3565b91508061484a81615fb8565b91505061481a565b6000610a0082602a01614ae0565b6000610a008242614cf7565b600061487783614ae0565b614882576000611942565b82546040516308ba6bcb60e41b81526001600160a01b03821691638ba6bcb0916148c191600160a01b90046001600160401b0316908690600401616197565b602060405180830381865afa1580156148de573d6000803e3d6000fd5b505050506040513d601f19601f820116820180604052508101906119429190615f89565b600061490d83614ae0565b158061194257508254604051634922ed6b60e11b81526001600160a01b03821691639245dad69161495391600160a01b90046001600160401b0316908690600401616197565b602060405180830381865afa158015614970573d6000803e3d6000fd5b505050506040513d601f19601f820116820180604052508101906119429190615ed1565b6000610a0082425b6000826149a881614ae0565b6149c45760405162461bcd60e51b8152600401610a7e90615d9f565b8354604051636a3d374160e11b81526001600160a01b0382169163d47a6e829161479e91600160a01b90046001600160401b0316908790600401616197565b6000614a0e83613ad3565b90506000614a1c8483613ae9565b9050614a2781615500565b60005b8381108015614a3857508281105b15614a7a57614a68856000018281548110614a5557614a55615d44565b9060005260206000209060200201615500565b80614a7281615fb8565b915050614a2a565b5050505050565b60018101548154600091610a0091615d8c565b6000614a9e845490565b614aa9906064615f06565b614ab4836064615d8c565b84614ac0876003015490565b6130de9190615f06565b6000614ad4835490565b82613b2a856001015490565b54600160a01b90046001600160401b0316151590565b60006001600160a01b03821663fc56365860076136a6565b610b9781614b25614b1e85613ad3565b8590613ae9565b90615527565b805460408051620f755f60ec1b815290516000926001600160a01b03169163f755f0009160048083019260209291908290030181865afa1580156136e1573d6000803e3d6000fd5b6000806000806000614b8487614a81565b905080861115614b9657614b96615fa2565b614ba4876002015487613bf8565b925080868860000154614bb79190615f06565b614bc19190615f33565b9450614bcd8686615d8c565b93508660000154858860030154614be49190615f06565b614bee9190615f33565b915083876001016000828254614c049190615d8c565b9250508190555081876003016000828254614c1f9190615d8c565b9091555050865485908890600090614c38908490615d8c565b9250508190555082876002016000828254614c539190615d8c565b909155505060028701546001880154614c6c9190615ef3565b87541015614c7c57614c7c615fa2565b5092959194509250565b83856000016000828254614c9a9190615ef3565b9250508190555082856001016000828254614cb59190615ef3565b9250508190555081856002016000828254614cd09190615ef3565b9250508190555080856003016000828254614ceb9190615ef3565b90915550505050505050565b600082614d0381614ae0565b614d1f5760405162461bcd60e51b8152600401610a7e90615d9f565b83546040516356bd011960e01b81526001600160a01b038216916356bd01199161479e91600160a01b90046001600160401b0316908790600401616197565b600082614d6a81614ae0565b614d865760405162461bcd60e51b8152600401610a7e90615d9f565b8354604051635c16b67360e11b81526001600160a01b0382169163b82d6ce69161479e91600160a01b90046001600160401b0316908790600401616197565b60006001600160a01b03821663fc56365860056136a6565b600081831015613c075781611942565b6000805b8254811015614e2a57614e0c614e078483613ae9565b614a81565b614e169083615ef3565b915080614e2281615fb8565b915050614df1565b50919050565b6000868611614e4157506000614e97565b6000614e4d8888615d8c565b9050614e5a8186866130b0565b915086861015614e95576000614e7a614e73888b614ddd565b8990613ed2565b9050614e878187866130b0565b614e919084615ef3565b9250505b505b9695505050505050565b6000805b8254811015614e2a57614ec0614ebb8483613ae9565b615568565b614eca9083615ef3565b915080614ed681615fb8565b915050614ea5565b60008080614eef600a880187613ae9565b90506003614efc88613c0e565b6003811115614f0d57614f0d6159f9565b14614f2757614f1d818686613b3e565b92509250506129c4565b6000614f328861295d565b87148015614f595750614f4788602a01614860565b6006890154614f57908a90613d64565b105b90506000614f668961295d565b88108015614f7e5750614f7b89602a01614860565b88105b905060008280614f8b5750815b905080614fa257614f9d848989613b3e565b614fad565b614fad848989615581565b955095505050505094509492505050565b6000805b8254811015614e2a57614fdf614fd88483613ae9565b6003015490565b614fe99083615ef3565b915080614ff581615fb8565b915050614fc2565b6000805b8254811015614e2a57615017613fa68483613ae9565b6150219083615ef3565b91508061502d81615fb8565b915050615001565b610b9781615045614b1e85613ad3565b90615599565b600061505682614ae0565b615061576000610a00565b815460405163df3dc09160e01b8152600160a01b82046001600160401b031660048201526001600160a01b039091169063df3dc091906024016136c4565b60006150aa82614ae0565b6150b5576000610a00565b81546040516334a88f4360e01b8152600160a01b82046001600160401b031660048201526001600160a01b03909116906334a88f43906024016136c4565b6000600361510084613c0e565b6003811115615111576151116159f9565b1415806151395750615123838361456e565b61512d848461372c565b6151379190615ef3565b155b1561514657506000610a00565b82546000906201518090615162906001600160a01b0316614dc5565b61516c9190615f06565b9050600061518661517c8661445a565b602a87019061486c565b90506151928282615ef3565b909311949350505050565b6000805b8254811015614e2a576151be6151b78483613ae9565b6001015490565b6151c89083615ef3565b9150806151d481615fb8565b9150506151a1565b6000805b8281101561383d576151f56140d68583613ae9565b6151ff9083615ef3565b91508061520b81615fb8565b9150506151e0565b816001015481111561524857600182015460405163d04a3a1160e01b8152610a7e918391600401918252602082015260400190565b8082600101600082825461525c9190615d8c565b90915550505050565b606061298484846000856155da565b600061527f85614ded565b9050806000036152a55760405163b6aca02f60e01b815260048101859052602401610a7e565b60005b855481101561533c5760006152bd8783613ae9565b90506000836152cb83614a81565b6152d59088615f06565b6152df9190615f33565b905060006152f56152ef84615568565b89613bf8565b90506153018189615d8c565b97508584101561531b57615316838284615702565b615326565b61532683828461576a565b505050808061533490615fb8565b9150506152a8565b508315614a7a57614a7a615fa2565b60008261535781614ae0565b6153735760405162461bcd60e51b8152600401610a7e90615d9f565b8354604051638dfdc69560e01b81526001600160a01b03821691638dfdc6959161479e91600160a01b90046001600160401b0316908790600401616197565b6000826153be81614ae0565b6153da5760405162461bcd60e51b8152600401610a7e90615d9f565b8354604051630103299960e31b81526001600160a01b038216916308194cc89161479e91600160a01b90046001600160401b0316908790600401616197565b81546000901561543c576040516379c6736560e11b815260040160405180910390fd5b60028210156154685760405163ddc8b40f60e01b81526004810183905260026024820152604401610a7e565b60005b828110156154e25761547b6158ba565b845460018181018755600087815260209081902084519382020192835583015190820155604082015160028201556060820151600382015560808201518291906154cb906004830190601c6158ee565b5050505080806154da90615fb8565b91505061546b565b509192915050565b600081600201548260010154610a009190615ef3565b80600201548160010160008282546155189190615ef3565b90915550506000600290910155565b60038201541561553957615539615fa2565b8082600001600082825461554d9190615d8c565b925050819055508082600101600082825461525c9190615d8c565b60028101546001820154825460009291613adf91615d8c565b60008061558f858585614a94565b613b5686866157c8565b6003820154156155ab576155ab615fa2565b808260000160008282546155bf9190615ef3565b925050819055508082600101600082825461525c9190615ef3565b60608247101561563b5760405162461bcd60e51b815260206004820152602660248201527f416464726573733a20696e73756666696369656e742062616c616e636520666f6044820152651c8818d85b1b60d21b6064820152608401610a7e565b843b6156895760405162461bcd60e51b815260206004820152601d60248201527f416464726573733a2063616c6c20746f206e6f6e2d636f6e74726163740000006044820152606401610a7e565b600080866001600160a01b031685876040516156a591906161b0565b60006040518083038185875af1925050503d80600081146156e2576040519150601f19603f3d011682016040523d82523d6000602084013e6156e7565b606091505b50915091506156f78282866157ed565b979650505050505050565b825482846002015485600101546157199190615ef3565b6157239190615ef3565b111561573157615731615fa2565b808360030160008282546157459190615ef3565b92505081905550818360010160008282546157609190615ef3565b9091555050505050565b825482846002015485600101546157819190615ef3565b61578b9190615ef3565b111561579957615799615fa2565b808360030160008282546157ad9190615ef3565b92505081905550818360020160008282546157609190615ef3565b60006157d2835490565b8284600201546157e3866001015490565b613b2a9190615ef3565b606083156157fc575081611942565b82511561580c5782518084602001fd5b8160405162461bcd60e51b8152600401610a7e919061610a565b60405180606001604052806003906020820280368337509192915050565b82805482825590600052602060002090810192821561587f579160200282015b8281111561587f578235825591602001919060010190615864565b5061295992915061591c565b6040518060a0016040528060008152602001600081526020016000815260200160008152602001600081525090565b6040518060a00160405280600081526020016000815260200160008152602001600081526020016158e9615931565b905290565b82601c810192821561587f579160200282015b8281111561587f578251825591602001919060010190615901565b5b80821115612959576000815560010161591d565b604051806103800160405280601c906020820280368337509192915050565b60006020828403121561596257600080fd5b5035919050565b60006020828403121561597b57600080fd5b81356001600160e01b03198116811461194257600080fd5b6001600160a01b038116811461180657600080fd5b6000602082840312156159ba57600080fd5b813561194281615993565b60608101818360005b60038110156159f057815160ff168352602092830192909101906001016159ce565b50505092915050565b634e487b7160e01b600052602160045260246000fd5b6020810160028310615a2357615a236159f9565b91905290565b8151815260208083015190820152604080830151908201526060808301519082015260808101610a00565b60008060408385031215615a6757600080fd5b823591506020830135615a7981615993565b809150509250929050565b60008060408385031215615a9757600080fd5b50508035926020909101359150565b6001600160a01b0391909116815260200190565b60008060008060008060c08789031215615ad357600080fd5b863595506020870135945060408701359350606087013560ff81168114615af957600080fd5b9598949750929560808101359460a0909101359350915050565b60008083601f840112615b2557600080fd5b5081356001600160401b03811115615b3c57600080fd5b6020830191508360208260051b8501011115613bf157600080fd5b60008060008060408587031215615b6d57600080fd5b84356001600160401b0380821115615b8457600080fd5b615b9088838901615b13565b90965094506020870135915080821115615ba957600080fd5b50615bb687828801615b13565b95989497509550505050565b60008060208385031215615bd557600080fd5b82356001600160401b03811115615beb57600080fd5b615bf785828601615b13565b90969095509350505050565b6020808252825182820181905260009190848201906040850190845b81811015615c3b57835183529284019291840191600101615c1f565b50909695505050505050565b6000806000806000806000806000806101208b8d031215615c6757600080fd5b8a35615c7281615993565b995060208b0135615c8281615993565b985060408b0135975060608b0135965060808b0135955060a08b0135615ca781615993565b945060c08b0135935060e08b013592506101008b01356001600160401b03811115615cd157600080fd5b615cdd8d828e01615b13565b915080935050809150509295989b9194979a5092959850565b6020808252602e908201527f496e697469616c697a61626c653a20636f6e747261637420697320616c72656160408201526d191e481a5b9a5d1a585b1a5e995960921b606082015260800190565b634e487b7160e01b600052603260045260246000fd5b602080825260029082015261555360f01b604082015260600190565b634e487b7160e01b600052601160045260246000fd5b81810381811115610a0057610a00615d76565b6020808252600290820152614e4160f01b604082015260600190565b6020808252601f908201527f5265656e7472616e637947756172643a207265656e7472616e742063616c6c00604082015260600190565b60208082526010908201526f14185d5cd8589b194e881c185d5cd95960821b604082015260600190565b634e487b7160e01b600052604160045260246000fd5b600060a08284031215615e4457600080fd5b60405160a081018181106001600160401b0382111715615e7457634e487b7160e01b600052604160045260246000fd5b6040528251615e8281615993565b80825250602083015160208201526040830151604082015260608301516060820152608083015160808201528091505092915050565b6001600160a01b03929092168252602082015260400190565b600060208284031215615ee357600080fd5b8151801515811461194257600080fd5b80820180821115610a0057610a00615d76565b8082028115828204841417610a0057610a00615d76565b634e487b7160e01b600052601260045260246000fd5b600082615f4257615f42615f1d565b500490565b600060208284031215615f5957600080fd5b815161194281615993565b82518152602092830151928101929092526001600160a01b0316604082015260600190565b600060208284031215615f9b57600080fd5b5051919050565b634e487b7160e01b600052600160045260246000fd5b600060018201615fca57615fca615d76565b5060010190565b6020808252602b908201527f4d75737420686176652061646d696e20726f6c6520746f20706572666f726d2060408201526a3a3434b99030b1ba34b7b760a91b606082015260800190565b6001600160a01b0383168152604060208083018290528354918301829052600084815281812090929091906060850190845b8181101561606a5784548352600194850194928401920161604e565b5090979650505050505050565b60005b8381101561609257818101518382015260200161607a565b50506000910152565b76020b1b1b2b9b9a1b7b73a3937b61d1030b1b1b7bab73a1604d1b8152600083516160cd816017850160208801616077565b7001034b99036b4b9b9b4b733903937b6329607d1b60179184019182015283516160fe816028840160208801616077565b01602801949350505050565b6020815260008251806020840152616129816040850160208701616077565b601f01601f19169190910160400192915050565b6004811061614d5761614d6159f9565b9052565b6040810161615f828561613d565b611942602083018461613d565b60008161617b5761617b615d76565b506000190190565b60008261619257616192615f1d565b500690565b6001600160401b03929092168252602082015260400190565b600082516161c2818460208701616077565b919091019291505056feb19546dff01e856fb3f010c267a7b1c60363cf8a4664e21cc89c26224620214e65d7a28e3265b37a6474929f336521b332c1681b933f6cb9f3376673440d862aaf9a8bb3cbd6b84fbccefa71ff73e26e798553c6914585a84886212a46a90279a2646970667358221220075ad0efa521bd489c1d7700e0b53c6369344b98a88c60ec0f28f65c340c39b264736f6c63430008110033",
  "devdoc": {
    "author": "Warbler Labs",
    "kind": "dev",
    "methods": {
      "availableToWithdraw(uint256)": {
        "params": {
          "tokenId": "position to query max amount withdrawable for"
        },
        "returns": {
          "_0": "total interest withdrawable on the position",
          "_1": "total principal redeemable on the position"
        }
      },
      "deposit(uint256,uint256)": {
        "params": {
          "amount": "amount of capital to supply",
          "tranche": "Should always be uncalled capital tranche index."
        },
        "returns": {
          "_0": "tokenId NFT representing your position in this pool"
        }
      },
      "depositWithPermit(uint256,uint256,uint256,uint8,bytes32,bytes32)": {
        "params": {
          "amount": "amount of capital to supply",
          "deadline": "deadline of permit operation",
          "r": "r portion of signature",
          "s": "s portion of signature",
          "tranche": "Should always be uncalled capital tranche index.",
          "v": "v portion of signature"
        },
        "returns": {
          "tokenId": "NFT representing your position in this pool"
        }
      },
      "drawdown(uint256)": {
        "params": {
          "amount": "USDC to drawdown. This amount is transferred to the caller"
        }
      },
      "getAmountsOwed(uint256)": {
        "params": {
          "timestamp": "time to calculate up to"
        },
        "returns": {
          "returnedInterestAccrued": "amount of accrued interest (not yet owed) that can be paid at `timestamp`",
          "returnedInterestOwed": "amount of obligated interest owed at `timestamp`",
          "returnedPrincipalOwed": "amount of principal owed at `timestamp`"
        }
      },
      "getRoleAdmin(bytes32)": {
        "details": "Returns the admin role that controls `role`. See {grantRole} and {revokeRole}. To change a role's admin, use {_setRoleAdmin}."
      },
      "grantRole(bytes32,address)": {
        "details": "Grants `role` to `account`. If `account` had not been already granted `role`, emits a {RoleGranted} event. Requirements: - the caller must have ``role``'s admin role."
      },
      "hasRole(bytes32,address)": {
        "details": "Returns `true` if `account` has been granted `role`."
      },
      "initialize(address,address,uint256,uint256,uint256,address,uint256,uint256,uint256[])": {
        "params": {
          "_borrower": "address of borrower, a non-transferrable role for performing privileged actions like   drawdown",
          "_config": "address of GoldfinchConfig",
          "_fundableAt": "earliest time at which the first slice can be funded",
          "_interestApr": "interest rate for the loan",
          "_lateFeeApr": "late fee interest rate for the loan, which kicks in `LatenessGracePeriodInDays` days after a   payment becomes late",
          "_limit": "the number of periods at the tail end of a principal period during which call requests rollover   to the next principal period."
        }
      },
      "pause()": {
        "details": "Pauses all functions guarded by Pause See {Pausable-_pause}. Requirements: - the caller must have the PAUSER_ROLE."
      },
      "paused()": {
        "details": "Returns true if the contract is paused, and false otherwise."
      },
      "pay(uint256)": {
        "details": "{this} must be approved by msg.sender to transfer {amount} of USDC",
        "params": {
          "amount": "USDC amount to pay"
        },
        "returns": {
          "_0": "PaymentAllocation info on how the payment was allocated"
        }
      },
      "renounceRole(bytes32,address)": {
        "details": "Revokes `role` from the calling account. Roles are often managed via {grantRole} and {revokeRole}: this function's purpose is to provide a mechanism for accounts to lose their privileges if they are compromised (such as when a trusted device is misplaced). If the calling account had been granted `role`, emits a {RoleRevoked} event. Requirements: - the caller must be `account`."
      },
      "revokeRole(bytes32,address)": {
        "details": "Revokes `role` from `account`. If `account` had been granted `role`, emits a {RoleRevoked} event. Requirements: - the caller must have ``role``'s admin role."
      },
      "submitCall(uint256,uint256)": {
        "params": {
          "callAmount": "Amount of capital to call back",
          "poolTokenId": "Pool token id to be called back."
        },
        "returns": {
          "callRequestedTokenId": " Token id of the call requested token.",
          "remainingTokenId": "Token id of the remaining token."
        }
      },
      "supportsInterface(bytes4)": {
        "details": "See {IERC165-supportsInterface}."
      },
      "unpause()": {
        "details": "Unpauses the contract See {Pausable-_unpause}. Requirements: - the caller must have the Pauser role"
      },
      "withdraw(uint256,uint256)": {
        "params": {
          "amount": "amount to withdraw (must be <= interest+principal available to withdraw)",
          "tokenId": "the NFT representing the position"
        },
        "returns": {
          "_0": "interest withdrawn",
          "_1": "principal withdrawn"
        }
      },
      "withdrawMultiple(uint256[],uint256[])": {
        "params": {
          "amounts": "amounts to withdraw from positions such that amounts[i] is withdrawn from position tokenIds[i]",
          "tokenIds": "NFT positions to withdraw. Caller must be an owner or approved on all tokens in the array"
        }
      }
    },
    "title": "CallableLoan",
    "version": 1
  },
  "userdoc": {
    "events": {
      "PaymentApplied(address,address,uint256,uint256,uint256,uint256)": {
        "notice": "Event emitted on payment"
      },
      "WithdrawalMade(address,uint256,uint256,uint256,uint256)": {
        "notice": "While owner is the label of the first argument, it is actually the sender of the transaction."
      }
    },
    "kind": "user",
    "methods": {
      "availableToWithdraw(uint256)": {
        "notice": "Query the max amount available to withdraw for tokenId's position"
      },
      "createdAt()": {
        "notice": "Time when the pool was initialized. Zero if uninitialized"
      },
      "creditLine()": {
        "notice": "Pool's credit line, responsible for managing the loan's accounting variables"
      },
      "deposit(uint256,uint256)": {
        "notice": "Supply capital to the loan."
      },
      "depositWithPermit(uint256,uint256,uint256,uint8,bytes32,bytes32)": {
        "notice": "Supply capital to the loan."
      },
      "drawdown(uint256)": {
        "notice": "Drawdown the loan. The credit line's balance should increase by the amount drawn down.   Junior capital must be locked before this function can be called. If senior capital isn't locked   then this function will lock it for you (convenience to avoid calling lockPool() separately).   This function should revert if the amount requested exceeds the the current slice's currentLimit   This function should revert if the caller is not the borrower."
      },
      "estimateOwedInterestAt(uint256)": {
        "notice": "TODO: Low priority tests - only used for frontend estimations of interest payments."
      },
      "getAmountsOwed(uint256)": {
        "notice": "Compute interest and principal owed on the current balance at a future timestamp"
      },
      "getLoanType()": {
        "notice": "getLoanType was added to support the new callable loan type.         It is not supported in older versions of ILoan (e.g. legacy TranchedPools)"
      },
      "getVersion()": {
        "notice": "Returns the version triplet `[major, minor, patch]`"
      },
      "initialize(address,address,uint256,uint256,uint256,address,uint256,uint256,uint256[])": {
        "notice": "Initialize the pool. Can only be called once, and should be called in the same transaction as   contract creation to avoid initialization front-running"
      },
      "interestAccrued()": {
        "notice": "If a checkpoint has not occurred, late fees may be overestimated beyond the next due time."
      },
      "interestAccruedAsOf()": {
        "notice": "We keep this to conform to the ICreditLine interface, but it's redundant information   now that we have `checkpointedAsOf`"
      },
      "interestAccruedAt(uint256)": {
        "notice": "If a checkpoint has not occurred, late fees may be overestimated beyond the next due time."
      },
      "interestBearingBalance()": {
        "notice": "TODO: Low priority tests - currently only used for tests and frontend"
      },
      "interestOwedAt(uint256)": {
        "notice": "If a checkpoint has not occurred, late fees may be overestimated beyond the next due time."
      },
      "maxLimit()": {
        "notice": "Unsupported in callable loans."
      },
      "pauseDrawdowns()": {
        "notice": "Pauses all drawdowns (but not deposits/withdraws)"
      },
      "pay(uint256)": {
        "notice": "Pay down interest + principal. Excess payments are refunded to the caller"
      },
      "pay(uint256,uint256)": {
        "notice": "Unsupported in callable loans."
      },
      "principalOwedAt(uint256)": {
        "notice": "Principal owed up to `timestamp`"
      },
      "setAllowedUIDTypes(uint256[])": {
        "notice": "Set accepted UID types for the loan. Requires that users have not already begun to deposit."
      },
      "setFundableAt(uint256)": {
        "notice": "Update `fundableAt` to a new timestamp. Only the borrower can call this."
      },
      "setLimit(uint256)": {
        "notice": "Unsupported ICreditLine method kept for ICreditLine conformance"
      },
      "setMaxLimit(uint256)": {
        "notice": "Unsupported in callable loans."
      },
      "submitCall(uint256,uint256)": {
        "notice": "Submit a call request for the given amount of capital.         The borrower is obligated to pay the call request back at the end of the         corresponding call request period."
      },
      "termStartTime()": {
        "notice": "Time of first drawdown"
      },
      "totalInterestAccrued()": {
        "notice": "If a checkpoint has not occurred, late fees may be overestimated beyond the next due time."
      },
      "totalInterestAccruedAt(uint256)": {
        "notice": "If a checkpoint has not occurred, late fees may be overestimated beyond the next due time."
      },
      "totalInterestOwed()": {
        "notice": "If a checkpoint has not occurred, late fees may be overestimated beyond the next due time."
      },
      "totalInterestOwedAt(uint256)": {
        "notice": "If a checkpoint has not occurred, late fees may be overestimated beyond the next due time."
      },
      "totalInterestPaid()": {
        "notice": "Cumulative interest paid back up to now"
      },
      "totalPrincipalOwed()": {
        "notice": "Cumulative principal owed at current timestamp"
      },
      "totalPrincipalOwedAt(uint256)": {
        "notice": "Cumulative principal owed at timestamp"
      },
      "totalPrincipalPaid()": {
        "notice": "Returns the total amount of principal thats been paid"
      },
      "unpauseDrawdowns()": {
        "notice": "Unpause drawdowns"
      },
      "withdraw(uint256,uint256)": {
        "notice": "Withdraw an already deposited amount if the funds are available. Caller must be the owner or   approved by the owner on tokenId. Amount withdrawn is sent to the caller."
      },
      "withdrawMax(uint256)": {
        "notice": "Similar to withdraw but withdraw the max interest and principal available for `tokenId`"
      },
      "withdrawMultiple(uint256[],uint256[])": {
        "notice": "Withdraw from multiple tokens"
      }
    },
    "notice": "A loan that allows the lenders to call back capital from the borrower.",
    "version": 1
  },
  "storageLayout": {
    "storage": [
      {
        "astId": 663,
        "contract": "contracts/protocol/core/callable/CallableLoan.sol:CallableLoan",
        "label": "_initialized",
        "offset": 0,
        "slot": "0",
        "type": "t_bool"
      },
      {
        "astId": 666,
        "contract": "contracts/protocol/core/callable/CallableLoan.sol:CallableLoan",
        "label": "_initializing",
        "offset": 1,
        "slot": "0",
        "type": "t_bool"
      },
      {
        "astId": 3057,
        "contract": "contracts/protocol/core/callable/CallableLoan.sol:CallableLoan",
        "label": "__gap",
        "offset": 0,
        "slot": "1",
        "type": "t_array(t_uint256)50_storage"
      },
      {
        "astId": 3673,
        "contract": "contracts/protocol/core/callable/CallableLoan.sol:CallableLoan",
        "label": "__gap",
        "offset": 0,
        "slot": "51",
        "type": "t_array(t_uint256)50_storage"
      },
      {
        "astId": 258,
        "contract": "contracts/protocol/core/callable/CallableLoan.sol:CallableLoan",
        "label": "_roles",
        "offset": 0,
        "slot": "101",
        "type": "t_mapping(t_bytes32,t_struct(RoleData)253_storage)"
      },
      {
        "astId": 543,
        "contract": "contracts/protocol/core/callable/CallableLoan.sol:CallableLoan",
        "label": "__gap",
        "offset": 0,
        "slot": "102",
        "type": "t_array(t_uint256)49_storage"
      },
      {
        "astId": 724,
        "contract": "contracts/protocol/core/callable/CallableLoan.sol:CallableLoan",
        "label": "_paused",
        "offset": 0,
        "slot": "151",
        "type": "t_bool"
      },
      {
        "astId": 815,
        "contract": "contracts/protocol/core/callable/CallableLoan.sol:CallableLoan",
        "label": "__gap",
        "offset": 0,
        "slot": "152",
        "type": "t_array(t_uint256)49_storage"
      },
      {
        "astId": 830,
        "contract": "contracts/protocol/core/callable/CallableLoan.sol:CallableLoan",
        "label": "_status",
        "offset": 0,
        "slot": "201",
        "type": "t_uint256"
      },
      {
        "astId": 873,
        "contract": "contracts/protocol/core/callable/CallableLoan.sol:CallableLoan",
        "label": "__gap",
        "offset": 0,
        "slot": "202",
        "type": "t_array(t_uint256)49_storage"
      },
      {
        "astId": 11750,
        "contract": "contracts/protocol/core/callable/CallableLoan.sol:CallableLoan",
        "label": "__gap1",
        "offset": 0,
        "slot": "251",
        "type": "t_array(t_uint256)50_storage"
      },
      {
        "astId": 11754,
        "contract": "contracts/protocol/core/callable/CallableLoan.sol:CallableLoan",
        "label": "__gap2",
        "offset": 0,
        "slot": "301",
        "type": "t_array(t_uint256)50_storage"
      },
      {
        "astId": 11758,
        "contract": "contracts/protocol/core/callable/CallableLoan.sol:CallableLoan",
        "label": "__gap3",
        "offset": 0,
        "slot": "351",
        "type": "t_array(t_uint256)50_storage"
      },
      {
        "astId": 11762,
        "contract": "contracts/protocol/core/callable/CallableLoan.sol:CallableLoan",
        "label": "__gap4",
        "offset": 0,
        "slot": "401",
        "type": "t_array(t_uint256)50_storage"
      },
      {
        "astId": 12308,
        "contract": "contracts/protocol/core/callable/CallableLoan.sol:CallableLoan",
        "label": "_staleCreditLine",
        "offset": 0,
        "slot": "451",
        "type": "t_struct(StaleCallableCreditLine)17223_storage"
      },
      {
        "astId": 12310,
        "contract": "contracts/protocol/core/callable/CallableLoan.sol:CallableLoan",
        "label": "drawdownsPaused",
        "offset": 0,
        "slot": "514",
        "type": "t_bool"
      },
      {
        "astId": 12313,
        "contract": "contracts/protocol/core/callable/CallableLoan.sol:CallableLoan",
        "label": "allowedUIDTypes",
        "offset": 0,
        "slot": "515",
        "type": "t_array(t_uint256)dyn_storage"
      },
      {
        "astId": 12316,
        "contract": "contracts/protocol/core/callable/CallableLoan.sol:CallableLoan",
        "label": "config",
        "offset": 0,
        "slot": "516",
        "type": "t_contract(IGoldfinchConfig)8814"
      },
      {
        "astId": 12319,
        "contract": "contracts/protocol/core/callable/CallableLoan.sol:CallableLoan",
        "label": "createdAt",
        "offset": 0,
        "slot": "517",
        "type": "t_uint256"
      },
      {
        "astId": 12322,
        "contract": "contracts/protocol/core/callable/CallableLoan.sol:CallableLoan",
        "label": "borrower",
        "offset": 0,
        "slot": "518",
        "type": "t_address"
      }
    ],
    "types": {
      "t_address": {
        "encoding": "inplace",
        "label": "address",
        "numberOfBytes": "20"
      },
      "t_array(t_struct(Tranche)17905_storage)dyn_storage": {
        "base": "t_struct(Tranche)17905_storage",
        "encoding": "dynamic_array",
        "label": "struct Tranche[]",
        "numberOfBytes": "32"
      },
      "t_array(t_uint256)20_storage": {
        "base": "t_uint256",
        "encoding": "inplace",
        "label": "uint256[20]",
        "numberOfBytes": "640"
      },
      "t_array(t_uint256)28_storage": {
        "base": "t_uint256",
        "encoding": "inplace",
        "label": "uint256[28]",
        "numberOfBytes": "896"
      },
      "t_array(t_uint256)31_storage": {
        "base": "t_uint256",
        "encoding": "inplace",
        "label": "uint256[31]",
        "numberOfBytes": "992"
      },
      "t_array(t_uint256)49_storage": {
        "base": "t_uint256",
        "encoding": "inplace",
        "label": "uint256[49]",
        "numberOfBytes": "1568"
      },
      "t_array(t_uint256)50_storage": {
        "base": "t_uint256",
        "encoding": "inplace",
        "label": "uint256[50]",
        "numberOfBytes": "1600"
      },
      "t_array(t_uint256)dyn_storage": {
        "base": "t_uint256",
        "encoding": "dynamic_array",
        "label": "uint256[]",
        "numberOfBytes": "32"
      },
      "t_bool": {
        "encoding": "inplace",
        "label": "bool",
        "numberOfBytes": "1"
      },
      "t_bytes32": {
        "encoding": "inplace",
        "label": "bytes32",
        "numberOfBytes": "32"
      },
      "t_contract(IGoldfinchConfig)8814": {
        "encoding": "inplace",
        "label": "contract IGoldfinchConfig",
        "numberOfBytes": "20"
      },
      "t_contract(ISchedule)10514": {
        "encoding": "inplace",
        "label": "contract ISchedule",
        "numberOfBytes": "20"
      },
      "t_mapping(t_address,t_bool)": {
        "encoding": "mapping",
        "key": "t_address",
        "label": "mapping(address => bool)",
        "numberOfBytes": "32",
        "value": "t_bool"
      },
      "t_mapping(t_bytes32,t_struct(RoleData)253_storage)": {
        "encoding": "mapping",
        "key": "t_bytes32",
        "label": "mapping(bytes32 => struct AccessControlUpgradeable.RoleData)",
        "numberOfBytes": "32",
        "value": "t_struct(RoleData)253_storage"
      },
      "t_struct(CallableCreditLine)15199_storage": {
        "encoding": "inplace",
        "label": "struct CallableCreditLine",
        "members": [
          {
            "astId": 15170,
            "contract": "contracts/protocol/core/callable/CallableLoan.sol:CallableLoan",
            "label": "_config",
            "offset": 0,
            "slot": "0",
            "type": "t_contract(IGoldfinchConfig)8814"
          },
          {
            "astId": 15172,
            "contract": "contracts/protocol/core/callable/CallableLoan.sol:CallableLoan",
            "label": "_fundableAt",
            "offset": 0,
            "slot": "1",
            "type": "t_uint256"
          },
          {
            "astId": 15174,
            "contract": "contracts/protocol/core/callable/CallableLoan.sol:CallableLoan",
            "label": "_limit",
            "offset": 0,
            "slot": "2",
            "type": "t_uint256"
          },
          {
            "astId": 15176,
            "contract": "contracts/protocol/core/callable/CallableLoan.sol:CallableLoan",
            "label": "_interestApr",
            "offset": 0,
            "slot": "3",
            "type": "t_uint256"
          },
          {
            "astId": 15178,
            "contract": "contracts/protocol/core/callable/CallableLoan.sol:CallableLoan",
            "label": "_lateAdditionalApr",
            "offset": 0,
            "slot": "4",
            "type": "t_uint256"
          },
          {
            "astId": 15180,
            "contract": "contracts/protocol/core/callable/CallableLoan.sol:CallableLoan",
            "label": "_numLockupPeriods",
            "offset": 0,
            "slot": "5",
            "type": "t_uint256"
          },
          {
            "astId": 15182,
            "contract": "contracts/protocol/core/callable/CallableLoan.sol:CallableLoan",
            "label": "_checkpointedAsOf",
            "offset": 0,
            "slot": "6",
            "type": "t_uint256"
          },
          {
            "astId": 15184,
            "contract": "contracts/protocol/core/callable/CallableLoan.sol:CallableLoan",
            "label": "_lastFullPaymentTime",
            "offset": 0,
            "slot": "7",
            "type": "t_uint256"
          },
          {
            "astId": 15186,
            "contract": "contracts/protocol/core/callable/CallableLoan.sol:CallableLoan",
            "label": "_totalInterestOwedAtLastCheckpoint",
            "offset": 0,
            "slot": "8",
            "type": "t_uint256"
          },
          {
            "astId": 15188,
            "contract": "contracts/protocol/core/callable/CallableLoan.sol:CallableLoan",
            "label": "_totalInterestAccruedAtLastCheckpoint",
            "offset": 0,
            "slot": "9",
            "type": "t_uint256"
          },
          {
            "astId": 15191,
            "contract": "contracts/protocol/core/callable/CallableLoan.sol:CallableLoan",
            "label": "_waterfall",
            "offset": 0,
            "slot": "10",
            "type": "t_struct(Waterfall)18508_storage"
          },
          {
            "astId": 15194,
            "contract": "contracts/protocol/core/callable/CallableLoan.sol:CallableLoan",
            "label": "_paymentSchedule",
            "offset": 0,
            "slot": "42",
            "type": "t_struct(PaymentSchedule)23204_storage"
          },
          {
            "astId": 15198,
            "contract": "contracts/protocol/core/callable/CallableLoan.sol:CallableLoan",
            "label": "__padding",
            "offset": 0,
            "slot": "43",
            "type": "t_array(t_uint256)20_storage"
          }
        ],
        "numberOfBytes": "2016"
      },
      "t_struct(PaymentSchedule)23204_storage": {
        "encoding": "inplace",
        "label": "struct PaymentSchedule",
        "members": [
          {
            "astId": 23201,
            "contract": "contracts/protocol/core/callable/CallableLoan.sol:CallableLoan",
            "label": "schedule",
            "offset": 0,
            "slot": "0",
            "type": "t_contract(ISchedule)10514"
          },
          {
            "astId": 23203,
            "contract": "contracts/protocol/core/callable/CallableLoan.sol:CallableLoan",
            "label": "startTime",
            "offset": 20,
            "slot": "0",
            "type": "t_uint64"
          }
        ],
        "numberOfBytes": "32"
      },
      "t_struct(RoleData)253_storage": {
        "encoding": "inplace",
        "label": "struct AccessControlUpgradeable.RoleData",
        "members": [
          {
            "astId": 250,
            "contract": "contracts/protocol/core/callable/CallableLoan.sol:CallableLoan",
            "label": "members",
            "offset": 0,
            "slot": "0",
            "type": "t_mapping(t_address,t_bool)"
          },
          {
            "astId": 252,
            "contract": "contracts/protocol/core/callable/CallableLoan.sol:CallableLoan",
            "label": "adminRole",
            "offset": 0,
            "slot": "1",
            "type": "t_bytes32"
          }
        ],
        "numberOfBytes": "64"
      },
      "t_struct(StaleCallableCreditLine)17223_storage": {
        "encoding": "inplace",
        "label": "struct StaleCallableCreditLine",
        "members": [
          {
            "astId": 17222,
            "contract": "contracts/protocol/core/callable/CallableLoan.sol:CallableLoan",
            "label": "_cl",
            "offset": 0,
            "slot": "0",
            "type": "t_struct(CallableCreditLine)15199_storage"
          }
        ],
        "numberOfBytes": "2016"
      },
      "t_struct(Tranche)17905_storage": {
        "encoding": "inplace",
        "label": "struct Tranche",
        "members": [
          {
            "astId": 17894,
            "contract": "contracts/protocol/core/callable/CallableLoan.sol:CallableLoan",
            "label": "_principalDeposited",
            "offset": 0,
            "slot": "0",
            "type": "t_uint256"
          },
          {
            "astId": 17896,
            "contract": "contracts/protocol/core/callable/CallableLoan.sol:CallableLoan",
            "label": "_principalPaid",
            "offset": 0,
            "slot": "1",
            "type": "t_uint256"
          },
          {
            "astId": 17898,
            "contract": "contracts/protocol/core/callable/CallableLoan.sol:CallableLoan",
            "label": "_principalReserved",
            "offset": 0,
            "slot": "2",
            "type": "t_uint256"
          },
          {
            "astId": 17900,
            "contract": "contracts/protocol/core/callable/CallableLoan.sol:CallableLoan",
            "label": "_interestPaid",
            "offset": 0,
            "slot": "3",
            "type": "t_uint256"
          },
          {
            "astId": 17904,
            "contract": "contracts/protocol/core/callable/CallableLoan.sol:CallableLoan",
            "label": "__padding",
            "offset": 0,
            "slot": "4",
            "type": "t_array(t_uint256)28_storage"
          }
        ],
        "numberOfBytes": "1024"
      },
      "t_struct(Waterfall)18508_storage": {
        "encoding": "inplace",
        "label": "struct Waterfall",
        "members": [
          {
            "astId": 18503,
            "contract": "contracts/protocol/core/callable/CallableLoan.sol:CallableLoan",
            "label": "_tranches",
            "offset": 0,
            "slot": "0",
            "type": "t_array(t_struct(Tranche)17905_storage)dyn_storage"
          },
          {
            "astId": 18507,
            "contract": "contracts/protocol/core/callable/CallableLoan.sol:CallableLoan",
            "label": "__padding",
            "offset": 0,
            "slot": "1",
            "type": "t_array(t_uint256)31_storage"
          }
        ],
        "numberOfBytes": "1024"
      },
      "t_uint256": {
        "encoding": "inplace",
        "label": "uint256",
        "numberOfBytes": "32"
      },
      "t_uint64": {
        "encoding": "inplace",
        "label": "uint64",
        "numberOfBytes": "8"
      }
    }
  }
}