{
  "address": "0xa85b028984bC54A2a3D844B070544F59dDDf89DE",
  "abi": [
    {
      "inputs": [
        {
          "internalType": "contract Context",
          "name": "_context",
          "type": "address"
        }
      ],
      "stateMutability": "nonpayable",
      "type": "constructor"
    },
    {
      "inputs": [
        {
          "internalType": "int256",
          "name": "x",
          "type": "int256"
        }
      ],
      "name": "ExpTooLarge",
      "type": "error"
    },
    {
      "inputs": [],
      "name": "InvalidPositionType",
      "type": "error"
    },
    {
      "inputs": [],
      "name": "InvalidVaultPosition",
      "type": "error"
    },
    {
      "inputs": [
        {
          "internalType": "int256",
          "name": "x",
          "type": "int256"
        }
      ],
      "name": "LnNonRealResult",
      "type": "error"
    },
    {
      "inputs": [
        {
          "internalType": "int256",
          "name": "x",
          "type": "int256"
        }
      ],
      "name": "LnTooLarge",
      "type": "error"
    },
    {
      "anonymous": false,
      "inputs": [
        {
          "indexed": true,
          "internalType": "address",
          "name": "owner",
          "type": "address"
        },
        {
          "indexed": false,
          "internalType": "uint256",
          "name": "rewards",
          "type": "uint256"
        }
      ],
      "name": "RewardsClaimed",
      "type": "event"
    },
    {
      "inputs": [
        {
          "internalType": "uint256",
          "name": "gfi",
          "type": "uint256"
        },
        {
          "internalType": "uint256",
          "name": "capital",
          "type": "uint256"
        }
      ],
      "name": "calculateMembershipScore",
      "outputs": [
        {
          "internalType": "uint256",
          "name": "",
          "type": "uint256"
        }
      ],
      "stateMutability": "view",
      "type": "function"
    },
    {
      "inputs": [
        {
          "internalType": "address",
          "name": "owner",
          "type": "address"
        }
      ],
      "name": "claimableRewards",
      "outputs": [
        {
          "internalType": "uint256",
          "name": "",
          "type": "uint256"
        }
      ],
      "stateMutability": "view",
      "type": "function"
    },
    {
      "inputs": [
        {
          "internalType": "address",
          "name": "owner",
          "type": "address"
        }
      ],
      "name": "collectRewards",
      "outputs": [
        {
          "internalType": "uint256",
          "name": "rewards",
          "type": "uint256"
        }
      ],
      "stateMutability": "nonpayable",
      "type": "function"
    },
    {
      "inputs": [
        {
          "internalType": "address",
          "name": "owner",
          "type": "address"
        }
      ],
      "name": "consumeDeposit",
      "outputs": [
        {
          "internalType": "uint256",
          "name": "",
          "type": "uint256"
        }
      ],
      "stateMutability": "nonpayable",
      "type": "function"
    },
    {
      "inputs": [
        {
          "internalType": "address",
          "name": "owner",
          "type": "address"
        }
      ],
      "name": "consumeWithdraw",
      "outputs": [
        {
          "internalType": "uint256",
          "name": "",
          "type": "uint256"
        }
      ],
      "stateMutability": "nonpayable",
      "type": "function"
    },
    {
      "inputs": [
        {
          "internalType": "address",
          "name": "owner",
          "type": "address"
        }
      ],
      "name": "currentScore",
      "outputs": [
        {
          "internalType": "uint256",
          "name": "eligibleScore",
          "type": "uint256"
        },
        {
          "internalType": "uint256",
          "name": "totalScore",
          "type": "uint256"
        }
      ],
      "stateMutability": "view",
      "type": "function"
    }
  ],
  "transactionHash": "0xb165c7cc5b9eb7c5b56a88b65edd69ba5d9b8e58c4d3b42cf61be5a9a11120bb",
  "args": [
    "0x093e8F4d8f267d2CeEc9eB889E2054710d187beD"
  ],
  "solcInputHash": "0f86d5da7143fd113a1aa7080ca34d5e",
  "bytecode": "0x60a06040523480156200001157600080fd5b50604051620026e9380380620026e9833981016040819052620000349162000046565b6001600160a01b031660805262000078565b6000602082840312156200005957600080fd5b81516001600160a01b03811681146200007157600080fd5b9392505050565b6080516125c96200012060003960008181610108015281816101a301528181610245015281816102e50152818161039c01528181610436015281816104c5015281816105a301528181610659015281816106f5015281816107990152818161083a01528181610915015281816109d701528181610a7901528181610c3501528181610cce01528181610d5501528181610e1201528181611ff0015261209401526125c96000f3fe608060405234801561001057600080fd5b50600436106100625760003560e01c80633d9d3f34146100675780635763dbd01461008d5780638a440b00146100a0578063a265cbdf146100c8578063cc323aee146100db578063dc01f60d146100ee575b600080fd5b61007a610075366004612192565b610101565b6040519081526020015b60405180910390f35b61007a61009b366004612192565b610395565b6100b36100ae366004612192565b610599565b60408051928352602083019190915201610084565b61007a6100d6366004612192565b610652565b61007a6100e93660046121af565b61090b565b61007a6100fc366004612192565b6109cf565b60006101357f00000000000000000000000000000000000000000000000000000000000000006001600160a01b0316610b4a565b6001600160a01b03166395e155c130336040518363ffffffff1660e01b81526004016101629291906121d1565b60006040518083038186803b15801561017a57600080fd5b505afa15801561018e573d6000803e3d6000fd5b5050505061019b82610c1a565b5060006101d07f00000000000000000000000000000000000000000000000000000000000000006001600160a01b0316610e6c565b6001600160a01b031663427d7432846040518263ffffffff1660e01b81526004016101fb91906121eb565b6040805180830381865afa158015610217573d6000803e3d6000fd5b505050506040513d601f19601f8201168201806040525081019061023b91906121ff565b91505060006102727f00000000000000000000000000000000000000000000000000000000000000006001600160a01b0316610efe565b6001600160a01b031663427d7432856040518263ffffffff1660e01b815260040161029d91906121eb565b6040805180830381865afa1580156102b9573d6000803e3d6000fd5b505050506040513d601f19601f820116820180604052508101906102dd91906121ff565b9150506103127f00000000000000000000000000000000000000000000000000000000000000006001600160a01b0316610f91565b6001600160a01b031663c47deec88561032b858561090b565b6040518363ffffffff1660e01b8152600401610348929190612223565b6020604051808303816000875af1158015610367573d6000803e3d6000fd5b505050506040513d601f19601f8201168201806040525081019061038b919061223c565b925050505b919050565b60006103c97f00000000000000000000000000000000000000000000000000000000000000006001600160a01b0316610b4a565b6001600160a01b03166395e155c130336040518363ffffffff1660e01b81526004016103f69291906121d1565b60006040518083038186803b15801561040e57600080fd5b505afa158015610422573d6000803e3d6000fd5b5050505061042f82610c1a565b90506104637f00000000000000000000000000000000000000000000000000000000000000006001600160a01b0316611024565b6001600160a01b0316635aa0c7f8836040518263ffffffff1660e01b815260040161048e91906121eb565b600060405180830381600087803b1580156104a857600080fd5b505af11580156104bc573d6000803e3d6000fd5b505050506104f27f00000000000000000000000000000000000000000000000000000000000000006001600160a01b03166110b7565b6001600160a01b0316633f1689ea83836040518363ffffffff1660e01b815260040161051f929190612223565b600060405180830381600087803b15801561053957600080fd5b505af115801561054d573d6000803e3d6000fd5b50505050816001600160a01b03167ffc30cddea38e2bf4d6ea7d3f9ed3b6ad7f176419f4963bd81318067a4aee73fe8260405161058c91815260200190565b60405180910390a2919050565b60008060006105d07f00000000000000000000000000000000000000000000000000000000000000006001600160a01b0316610f91565b6001600160a01b031663a5f2f667856040518263ffffffff1660e01b81526004016105fb91906121eb565b60a060405180830381865afa158015610618573d6000803e3d6000fd5b505050506040513d601f19601f8201168201806040525081019061063c9190612255565b9050806020015181604001519250925050915091565b60006106867f00000000000000000000000000000000000000000000000000000000000000006001600160a01b0316610b4a565b6001600160a01b03166395e155c130336040518363ffffffff1660e01b81526004016106b39291906121d1565b60006040518083038186803b1580156106cb57600080fd5b505afa1580156106df573d6000803e3d6000fd5b505050506106ec82610c1a565b506000806107227f00000000000000000000000000000000000000000000000000000000000000006001600160a01b0316610e6c565b6001600160a01b031663427d7432856040518263ffffffff1660e01b815260040161074d91906121eb565b6040805180830381865afa158015610769573d6000803e3d6000fd5b505050506040513d601f19601f8201168201806040525081019061078d91906121ff565b915091506000806107c67f00000000000000000000000000000000000000000000000000000000000000006001600160a01b0316610efe565b6001600160a01b031663427d7432876040518263ffffffff1660e01b81526004016107f191906121eb565b6040805180830381865afa15801561080d573d6000803e3d6000fd5b505050506040513d601f19601f8201168201806040525081019061083191906121ff565b915091506108677f00000000000000000000000000000000000000000000000000000000000000006001600160a01b0316610f91565b6001600160a01b031663199db43d87610880878661090b565b61088a878661090b565b6040516001600160e01b031960e086901b1681526001600160a01b039093166004840152602483019190915260448201526064016020604051808303816000875af11580156108dd573d6000803e3d6000fd5b505050506040513d601f19601f82011682018060405250810190610901919061223c565b9695505050505050565b60008060006109427f00000000000000000000000000000000000000000000000000000000000000006001600160a01b0316611024565b6001600160a01b031663db1d0fd56040518163ffffffff1660e01b81526004016040805180830381865afa15801561097e573d6000803e3d6000fd5b505050506040513d601f19601f820116820180604052508101906109a291906122f3565b6001600160801b031691506001600160801b031691506109c48585848461114a565b925050505b92915050565b600080610a047f00000000000000000000000000000000000000000000000000000000000000006001600160a01b0316611024565b6001600160a01b031663cafd9ae2846040518263ffffffff1660e01b8152600401610a2f91906121eb565b602060405180830381865afa158015610a4c573d6000803e3d6000fd5b505050506040513d601f19601f82011682018060405250810190610a70919061223c565b90506000610aa67f00000000000000000000000000000000000000000000000000000000000000006001600160a01b0316610f91565b6001600160a01b031663a5f2f667856040518263ffffffff1660e01b8152600401610ad191906121eb565b60a060405180830381865afa158015610aee573d6000803e3d6000fd5b505050506040513d601f19601f82011682018060405250810190610b129190612255565b90506000610b35610b268360800151611225565b83602001518460400151611234565b9050610b41818461233c565b95945050505050565b6000816001600160a01b031663f887ea406040518163ffffffff1660e01b8152600401602060405180830381865afa158015610b8a573d6000803e3d6000fd5b505050506040513d601f19601f82011682018060405250810190610bae919061234f565b60405163ce10a0d360e01b8152600160048201526001600160a01b03919091169063ce10a0d3906024015b602060405180830381865afa158015610bf6573d6000803e3d6000fd5b505050506040513d601f19601f820116820180604052508101906109c9919061234f565b60006001610c266112b8565b610c30919061236c565b610c627f00000000000000000000000000000000000000000000000000000000000000006001600160a01b03166110b7565b6001600160a01b031663c5a3f9076040518163ffffffff1660e01b8152600401602060405180830381865afa158015610c9f573d6000803e3d6000fd5b505050506040513d601f19601f82011682018060405250810190610cc3919061223c565b1015610d4e57610cfb7f00000000000000000000000000000000000000000000000000000000000000006001600160a01b03166110b7565b6001600160a01b031663fe07bb076040518163ffffffff1660e01b8152600401600060405180830381600087803b158015610d3557600080fd5b505af1158015610d49573d6000803e3d6000fd5b505050505b6000610d827f00000000000000000000000000000000000000000000000000000000000000006001600160a01b0316610f91565b6001600160a01b031663a972985e846040518263ffffffff1660e01b8152600401610dad91906121eb565b6060604051808303816000875af1158015610dcc573d6000803e3d6000fd5b505050506040513d601f19601f82011682018060405250810190610df0919061237f565b90506000610e0b826040015183600001518460200151611234565b9050610e3f7f00000000000000000000000000000000000000000000000000000000000000006001600160a01b0316611024565b6001600160a01b031663ab66f5fa85836040518363ffffffff1660e01b8152600401610348929190612223565b6000816001600160a01b031663f887ea406040518163ffffffff1660e01b8152600401602060405180830381865afa158015610eac573d6000803e3d6000fd5b505050506040513d601f19601f82011682018060405250810190610ed0919061234f565b60405163ce10a0d360e01b81526004818101526001600160a01b03919091169063ce10a0d390602401610bd9565b6000816001600160a01b031663f887ea406040518163ffffffff1660e01b8152600401602060405180830381865afa158015610f3e573d6000803e3d6000fd5b505050506040513d601f19601f82011682018060405250810190610f62919061234f565b60405163ce10a0d360e01b8152600360048201526001600160a01b03919091169063ce10a0d390602401610bd9565b6000816001600160a01b031663f887ea406040518163ffffffff1660e01b8152600401602060405180830381865afa158015610fd1573d6000803e3d6000fd5b505050506040513d601f19601f82011682018060405250810190610ff5919061234f565b60405163ce10a0d360e01b8152600260048201526001600160a01b03919091169063ce10a0d390602401610bd9565b6000816001600160a01b031663f887ea406040518163ffffffff1660e01b8152600401602060405180830381865afa158015611064573d6000803e3d6000fd5b505050506040513d601f19601f82011682018060405250810190611088919061234f565b60405163ce10a0d360e01b8152600760048201526001600160a01b03919091169063ce10a0d390602401610bd9565b6000816001600160a01b031663f887ea406040518163ffffffff1660e01b8152600401602060405180830381865afa1580156110f7573d6000803e3d6000fd5b505050506040513d601f19601f8201168201806040525081019061111b919061234f565b60405163ce10a0d360e01b8152600860048201526001600160a01b03919091169063ce10a0d390602401610bd9565b6000611161620f4240670de0b6b3a76400006123ff565b61116b9085612413565b93508183111561117d5761117d612432565b841580611188575083155b156111955750600061121d565b8385036111a357508361121d565b8385106000816111bc576111b786886112c8565b6111c6565b6111c687876112c8565b905060006111f185876111d8856112e3565b6111e29190612448565b6111ec91906124cd565b6118c6565b9050821561120d576112038782611fd7565b935050505061121d565b61121787826112c8565b93505050505b949350505050565b60006109c962093a80836123ff565b60008215611262576112446112b8565b841015611262576112558484611fe8565b61125f908261233c565b90505b81156112b157600061127585600161233c565b90505b6112806112b8565b8110156112af576112918184611fe8565b61129b908361233c565b9150806112a7816124fb565b915050611278565b505b9392505050565b60006112c342611225565b905090565b6000816112d96001607f1b85612448565b6112b191906124cd565b60006001607f1b82131561131257604051633ce23a3d60e11b8152600481018390526024015b60405180910390fd5b60008213611336576040516330ecaa3d60e21b815260048101839052602401611309565b6001607f1b820361134957506000919050565b640733048c5a8213611363576109c96101ff607c1b612514565b60008060006a01c8464f7616476000000085136113b157611388600160841b85612530565b93506a01c8464f761647600000006113a46001607f1b87612448565b6113ae91906124cd565b94505b660f1aaddd7742e960341b85136113f8576113d0600160831b85612530565b9350660f1aaddd7742e960341b6113eb6001607f1b87612448565b6113f591906124cd565b94505b6615fc21041027af603f1b851361143f57611417600160821b85612530565b93506615fc21041027af603f1b6114326001607f1b87612448565b61143c91906124cd565b94505b660960aadc109e7b60461b85136114865761145e600160811b85612530565b9350660960aadc109e7b60461b6114796001607f1b87612448565b61148391906124cd565b94505b660454aaa8efe073604a1b85136114cd576114a5600160801b85612530565b9350660454aaa8efe073604a1b6114c06001607f1b87612448565b6114ca91906124cd565b94505b6602f16ac6c59de7604c1b8513611514576114ec6001607f1b85612530565b93506602f16ac6c59de7604c1b6115076001607f1b87612448565b61151191906124cd565b94505b6609b4597e37cb05604b1b851361155b576115336001607e1b85612530565b93506609b4597e37cb05604b1b61154e6001607f1b87612448565b61155891906124cd565b94505b6618ebef9eac820b604a1b85136115a25761157a6001607d1b85612530565b93506618ebef9eac820b604a1b6115956001607f1b87612448565b61159f91906124cd565b94505b6f70f5a893b608861e1f58934f97aea57d85136115f5576115c76001607c1b85612530565b93506f70f5a893b608861e1f58934f97aea57d6115e86001607f1b87612448565b6115f291906124cd565b94505b6116036001607f1b86612530565b92508291506001607f1b6116178380612448565b61162191906124cd565b9050600160801b6116328482612530565b61163c9084612448565b61164691906124cd565b6116509085612557565b93506001607f1b6116618284612448565b61166b91906124cd565b9150600160811b61168c846faaaaaaaaaaaaaaaaaaaaaaaaaaaaaaaa612530565b6116969084612448565b6116a091906124cd565b6116aa9085612557565b93506001607f1b6116bb8284612448565b6116c591906124cd565b9150600360801b6116e6846f99999999999999999999999999999999612530565b6116f09084612448565b6116fa91906124cd565b6117049085612557565b93506001607f1b6117158284612448565b61171f91906124cd565b9150600160821b611740846f92492492492492492492492492492492612530565b61174a9084612448565b61175491906124cd565b61175e9085612557565b93506001607f1b61176f8284612448565b61177991906124cd565b9150600560801b61179a846f8e38e38e38e38e38e38e38e38e38e38e612530565b6117a49084612448565b6117ae91906124cd565b6117b89085612557565b93506001607f1b6117c98284612448565b6117d391906124cd565b9150600360811b6117f4846f8ba2e8ba2e8ba2e8ba2e8ba2e8ba2e8b612530565b6117fe9084612448565b61180891906124cd565b6118129085612557565b93506001607f1b6118238284612448565b61182d91906124cd565b9150600760801b61184e846f89d89d89d89d89d89d89d89d89d89d89612530565b6118589084612448565b61186291906124cd565b61186c9085612557565b93506001607f1b61187d8284612448565b61188791906124cd565b9150600160831b6118a8846f88888888888888888888888888888888612530565b6118b29084612448565b6118bc91906124cd565b610b419085612557565b60006118d66101ff607c1b612514565b8212156118e557506000919050565b816000036118f857506001607f1b919050565b600082131561191d57604051631086170d60e01b815260048101839052602401611309565b60008061192e6001607c1b8561257f565b91508190506001607f1b6119428280612448565b61194c91906124cd565b9050611960816710e1b3be415a0000612448565b61196a9084612557565b92506001607f1b61197b8383612448565b61198591906124cd565b9050611999816705a0913f6b1e0000612448565b6119a39084612557565b92506001607f1b6119b48383612448565b6119be91906124cd565b90506119d281670168244fdac78000612448565b6119dc9084612557565b92506001607f1b6119ed8383612448565b6119f791906124cd565b9050611a0a81664807432bc18000612448565b611a149084612557565b92506001607f1b611a258383612448565b611a2f91906124cd565b9050611a4281660c0135dca04000612448565b611a4c9084612557565b92506001607f1b611a5d8383612448565b611a6791906124cd565b9050611a7a816601b707b1cdc000612448565b611a849084612557565b92506001607f1b611a958383612448565b611a9f91906124cd565b9050611ab1816536e0f639b800612448565b611abb9084612557565b92506001607f1b611acc8383612448565b611ad691906124cd565b9050611ae881650618fee9f800612448565b611af29084612557565b92506001607f1b611b038383612448565b611b0d91906124cd565b9050611b1e81649c197dcc00612448565b611b289084612557565b92506001607f1b611b398383612448565b611b4391906124cd565b9050611b5481640e30dce400612448565b611b5e9084612557565b92506001607f1b611b6f8383612448565b611b7991906124cd565b9050611b8a8164012ebd1300612448565b611b949084612557565b92506001607f1b611ba58383612448565b611baf91906124cd565b9050611bbf816317499f00612448565b611bc99084612557565b92506001607f1b611bda8383612448565b611be491906124cd565b9050611bf4816301a9d480612448565b611bfe9084612557565b92506001607f1b611c0f8383612448565b611c1991906124cd565b9050611c2881621c6380612448565b611c329084612557565b92506001607f1b611c438383612448565b611c4d91906124cd565b9050611c5c816201c638612448565b611c669084612557565b92506001607f1b611c778383612448565b611c8191906124cd565b9050611c8f81611ab8612448565b611c999084612557565b92506001607f1b611caa8383612448565b611cb491906124cd565b9050611cc28161017c612448565b611ccc9084612557565b92506001607f1b611cdd8383612448565b611ce791906124cd565b9050611cf4816014612448565b611cfe9084612557565b92506001607f1b611d0f8383612448565b611d1991906124cd565b9050611d26816001612448565b611d309084612557565b92506001607f1b82611d4a6721c3677c82b40000866124cd565b611d549190612557565b611d5e9190612557565b9250611d6984612514565b9350600160841b841615611daf577243cbaf42a000812488fc5c220ad7b97bf6e99e611da26cf1aaddd7742e56d32fb9f9974485612448565b611dac91906124cd565b92505b600160831b841615611df4577105d27a9f51c31b7c2f8038212a0574779991611de76e0afe10820813d65dfe6a33c07f738f85612448565b611df191906124cd565b92505b600160821b841615611e3957701b4c902e273a58678d6d3bfdb93db96d02611e2c6f02582ab704279e8efd15e0265855c47a85612448565b611e3691906124cd565b92505b600160811b841615611e7e577003b1cc971a9bb5b9867477440d6d157750611e716f1152aaa3bf81cb9fdb76eae12d02957185612448565b611e7b91906124cd565b92505b600160801b841615611ec35770015bf0a8b1457695355fb8ac404e7a79e3611eb66f2f16ac6c59de6f8d5d6f63c1482a7c8685612448565b611ec091906124cd565b92505b6001607f1b841615611f07576fd3094c70f034de4b96ff7d5b6f99fcd8611efa6f4da2cbf1be5827f9eb3ad1aa9866ebb385612448565b611f0491906124cd565b92505b6001607e1b841615611f4b576fa45af1e1f40c333b3de1db4dd55f29a7611f3e6f63afbe7ab2082ba1a0ae5e4eb1b479dc85612448565b611f4891906124cd565b92505b6001607d1b841615611f8f576f910b022db7ae67ce76b441c27035c6a1611f826f70f5a893b608861e1f58934f97aea57d85612448565b611f8c91906124cd565b92505b6001607c1b841615611fd0576f88415abbe9a76bead8d00cf112e4d4a8611fc66f783eafef1c0a8f3978c7f81824d62ebf85612448565b61038b91906124cd565b5050919050565b60006001607f1b6112d98385612448565b60008061201d7f00000000000000000000000000000000000000000000000000000000000000006001600160a01b0316610f91565b6001600160a01b0316639017a13c856040518263ffffffff1660e01b815260040161204a91815260200190565b602060405180830381865afa158015612067573d6000803e3d6000fd5b505050506040513d601f19601f8201168201806040525081019061208b919061223c565b905060006120c17f00000000000000000000000000000000000000000000000000000000000000006001600160a01b03166110b7565b6001600160a01b031663be8b6163866040518263ffffffff1660e01b81526004016120ee91815260200190565b602060405180830381865afa15801561210b573d6000803e3d6000fd5b505050506040513d601f19601f8201168201806040525081019061212f919061223c565b9050818411156121525760405163107503e960e21b815260040160405180910390fd5b81600003612165576000925050506109c9565b816121708286612413565b6109c491906123ff565b6001600160a01b038116811461218f57600080fd5b50565b6000602082840312156121a457600080fd5b81356112b18161217a565b600080604083850312156121c257600080fd5b50508035926020909101359150565b6001600160a01b0392831681529116602082015260400190565b6001600160a01b0391909116815260200190565b6000806040838503121561221257600080fd5b505080516020909101519092909150565b6001600160a01b03929092168252602082015260400190565b60006020828403121561224e57600080fd5b5051919050565b600060a0828403121561226757600080fd5b60405160a0810181811067ffffffffffffffff8211171561229857634e487b7160e01b600052604160045260246000fd5b60405282516122a68161217a565b80825250602083015160208201526040830151604082015260608301516060820152608083015160808201528091505092915050565b80516001600160801b038116811461039057600080fd5b6000806040838503121561230657600080fd5b61230f836122dc565b915061231d602084016122dc565b90509250929050565b634e487b7160e01b600052601160045260246000fd5b808201808211156109c9576109c9612326565b60006020828403121561236157600080fd5b81516112b18161217a565b818103818111156109c9576109c9612326565b60006060828403121561239157600080fd5b6040516060810181811067ffffffffffffffff821117156123c257634e487b7160e01b600052604160045260246000fd5b80604052508251815260208301516020820152604083015160408201528091505092915050565b634e487b7160e01b600052601260045260246000fd5b60008261240e5761240e6123e9565b500490565b600081600019048311821515161561242d5761242d612326565b500290565b634e487b7160e01b600052600160045260246000fd5b60006001600160ff1b038184138284138082168684048611161561246e5761246e612326565b600160ff1b600087128281168783058912161561248d5761248d612326565b600087129250878205871284841616156124a9576124a9612326565b878505871281841616156124bf576124bf612326565b505050929093029392505050565b6000826124dc576124dc6123e9565b600160ff1b8214600019841416156124f6576124f6612326565b500590565b60006001820161250d5761250d612326565b5060010190565b6000600160ff1b820161252957612529612326565b5060000390565b818103600083128015838313168383128216171561255057612550612326565b5092915050565b808201828112600083128015821682158216171561257757612577612326565b505092915050565b60008261258e5761258e6123e9565b50079056fea2646970667358221220ed1e19282ba4a2aab8f7816f45edfca2945372c684215fd32235850cdd32e0e464736f6c63430008100033",
  "devdoc": {
    "events": {
      "RewardsClaimed(address,uint256)": {
        "params": {
          "owner": "the owner claiming rewards",
          "rewards": "amount of fidu claimed"
        }
      }
    },
    "kind": "dev",
    "methods": {
      "calculateMembershipScore(uint256,uint256)": {
        "params": {
          "capital": "Amount of capital in USDC",
          "gfi": "Amount of gfi"
        },
        "returns": {
          "_0": "membership score"
        }
      },
      "claimableRewards(address)": {
        "params": {
          "owner": "address to calculate claimable rewards for"
        },
        "returns": {
          "_0": "the amount of rewards that could be claimed by the caller"
        }
      },
      "collectRewards(address)": {
        "params": {
          "owner": "address to claim rewards for"
        },
        "returns": {
          "rewards": "amount of yield enhancements collected"
        }
      },
      "consumeDeposit(address)": {
        "params": {
          "owner": "address that performed the depositing"
        },
        "returns": {
          "_0": "id of membership position"
        }
      },
      "consumeWithdraw(address)": {
        "params": {
          "owner": "address that performed the withdrawing"
        },
        "returns": {
          "_0": "id of membership position"
        }
      },
      "currentScore(address)": {
        "params": {
          "owner": "address to check the score of"
        },
        "returns": {
          "eligibleScore": "score that is currently eligible for rewards",
          "totalScore": "score that will be elgible for rewards next epoch"
        }
      }
    },
    "version": 1
  },
  "userdoc": {
    "errors": {
      "ExpTooLarge(int256)": [
        {
          "notice": "Thrown when exp is given too large of an argument"
        }
      ],
      "LnNonRealResult(int256)": [
        {
          "notice": "Thrown when the natural log would have returned a number outside of "
        }
      ],
      "LnTooLarge(int256)": [
        {
          "notice": "Thrown when the natural log function is given too large of an argument"
        }
      ]
    },
    "events": {
      "RewardsClaimed(address,uint256)": {
        "notice": "Emitted when `owner` claims fidu `rewards`"
      }
    },
    "kind": "user",
    "methods": {
      "calculateMembershipScore(uint256,uint256)": {
        "notice": "Calculate the membership score"
      },
      "claimableRewards(address)": {
        "notice": "Check how many rewards are claimable for the caller. The return  value here is how much would be retrieved by calling `collectRewards`."
      },
      "collectRewards(address)": {
        "notice": "Collect all membership yield enhancements for the caller."
      },
      "consumeDeposit(address)": {
        "notice": "Notify that the owner has deposited some assets, which  may affect membership."
      },
      "consumeWithdraw(address)": {
        "notice": "Notify that the owner has withdrawn some assets, which  may affect membership."
      },
      "currentScore(address)": {
        "notice": "Get the current score of `owner`"
      }
    },
    "version": 1
  },
  "storageLayout": {
    "storage": [
      {
        "astId": 660,
        "contract": "contracts/protocol/core/membership/MembershipDirector.sol:MembershipDirector",
        "label": "_initialized",
        "offset": 0,
        "slot": "0",
        "type": "t_bool"
      },
      {
        "astId": 663,
        "contract": "contracts/protocol/core/membership/MembershipDirector.sol:MembershipDirector",
        "label": "_initializing",
        "offset": 1,
        "slot": "0",
        "type": "t_bool"
      }
    ],
    "types": {
      "t_bool": {
        "encoding": "inplace",
        "label": "bool",
        "numberOfBytes": "1"
      }
    }
  }
}