{
  "address": "0xa85b028984bC54A2a3D844B070544F59dDDf89DE",
  "abi": [
    {
      "inputs": [
        {
          "internalType": "contract Context",
          "name": "_context",
          "type": "address"
        }
      ],
      "stateMutability": "nonpayable",
      "type": "constructor"
    },
    {
      "inputs": [
        {
          "internalType": "int256",
          "name": "x",
          "type": "int256"
        }
      ],
      "name": "ExpTooLarge",
      "type": "error"
    },
    {
      "inputs": [],
      "name": "InvalidPositionType",
      "type": "error"
    },
    {
      "inputs": [],
      "name": "InvalidVaultPosition",
      "type": "error"
    },
    {
      "inputs": [
        {
          "internalType": "int256",
          "name": "x",
          "type": "int256"
        }
      ],
      "name": "LnNonRealResult",
      "type": "error"
    },
    {
      "inputs": [
        {
          "internalType": "int256",
          "name": "x",
          "type": "int256"
        }
      ],
      "name": "LnTooLarge",
      "type": "error"
    },
    {
      "anonymous": false,
      "inputs": [
        {
          "indexed": true,
          "internalType": "address",
          "name": "owner",
          "type": "address"
        },
        {
          "indexed": false,
          "internalType": "uint256",
          "name": "rewards",
          "type": "uint256"
        }
      ],
      "name": "RewardsClaimed",
      "type": "event"
    },
    {
      "inputs": [
        {
          "internalType": "uint256",
          "name": "gfi",
          "type": "uint256"
        },
        {
          "internalType": "uint256",
          "name": "capital",
          "type": "uint256"
        }
      ],
      "name": "calculateMembershipScore",
      "outputs": [
        {
          "internalType": "uint256",
          "name": "",
          "type": "uint256"
        }
      ],
      "stateMutability": "view",
      "type": "function"
    },
    {
      "inputs": [
        {
          "internalType": "address",
          "name": "owner",
          "type": "address"
        }
      ],
      "name": "claimableRewards",
      "outputs": [
        {
          "internalType": "uint256",
          "name": "",
          "type": "uint256"
        }
      ],
      "stateMutability": "view",
      "type": "function"
    },
    {
      "inputs": [
        {
          "internalType": "address",
          "name": "owner",
          "type": "address"
        }
      ],
      "name": "collectRewards",
      "outputs": [
        {
          "internalType": "uint256",
          "name": "rewards",
          "type": "uint256"
        }
      ],
      "stateMutability": "nonpayable",
      "type": "function"
    },
    {
      "inputs": [
        {
          "internalType": "address",
          "name": "owner",
          "type": "address"
        }
      ],
      "name": "consumeDeposit",
      "outputs": [
        {
          "internalType": "uint256",
          "name": "",
          "type": "uint256"
        }
      ],
      "stateMutability": "nonpayable",
      "type": "function"
    },
    {
      "inputs": [
        {
          "internalType": "address",
          "name": "owner",
          "type": "address"
        }
      ],
      "name": "consumeWithdraw",
      "outputs": [
        {
          "internalType": "uint256",
          "name": "",
          "type": "uint256"
        }
      ],
      "stateMutability": "nonpayable",
      "type": "function"
    },
    {
      "inputs": [
        {
          "internalType": "address",
          "name": "owner",
          "type": "address"
        }
      ],
      "name": "currentScore",
      "outputs": [
        {
          "internalType": "uint256",
          "name": "eligibleScore",
          "type": "uint256"
        },
        {
          "internalType": "uint256",
          "name": "totalScore",
          "type": "uint256"
        }
      ],
      "stateMutability": "view",
      "type": "function"
    },
    {
      "inputs": [
        {
          "internalType": "address",
          "name": "memberAddress",
          "type": "address"
        },
        {
          "internalType": "int256",
          "name": "gfi",
          "type": "int256"
        },
        {
          "internalType": "int256",
          "name": "capital",
          "type": "int256"
        }
      ],
      "name": "estimateMemberScore",
      "outputs": [
        {
          "internalType": "uint256",
          "name": "score",
          "type": "uint256"
        }
      ],
      "stateMutability": "view",
      "type": "function"
    },
    {
      "inputs": [],
      "name": "totalMemberScores",
      "outputs": [
        {
          "internalType": "uint256",
          "name": "eligibleTotal",
          "type": "uint256"
        },
        {
          "internalType": "uint256",
          "name": "nextEpochTotal",
          "type": "uint256"
        }
      ],
      "stateMutability": "view",
      "type": "function"
    }
  ],
  "transactionHash": "0xbf5502c2f46a99c50bb9b516112a4d498822978e92cfbeec6c70b0118ad599c3",
  "args": [
    "0x093e8F4d8f267d2CeEc9eB889E2054710d187beD"
  ],
  "solcInputHash": "feca2c9bb177f8f194b1316942dd25e6",
  "bytecode": "0x60a06040523480156200001157600080fd5b5060405162002b4738038062002b47833981016040819052620000349162000046565b6001600160a01b031660805262000078565b6000602082840312156200005957600080fd5b81516001600160a01b03811681146200007157600080fd5b9392505050565b608051612a04620001436000396000818161013c015281816101e601528181610288015281816103a901528181610444015281816104e6015281816105860152818161063d015281816106d70152818161076601528181610842015281816108e90152818161099d01528181610a5301528181610aef01528181610b9301528181610c3401528181610d0f01528181610dd101528181610e73015281816112ba01528181611353015281816113da01528181611497015281816123f6015261249a0152612a046000f3fe608060405234801561001057600080fd5b50600436106100785760003560e01c806317bc7d471461007d5780633d9d3f34146100a35780635763dbd0146100b657806377bb1411146100c95780638a440b00146100e6578063a265cbdf146100f9578063cc323aee1461010c578063dc01f60d1461011f575b600080fd5b61009061008b366004612598565b610132565b6040519081526020015b60405180910390f35b6100906100b13660046125cd565b6103a2565b6100906100c43660046125cd565b610636565b6100d161083a565b6040805192835260208301919091520161009a565b6100d16100f43660046125cd565b610993565b6100906101073660046125cd565b610a4c565b61009061011a3660046125ea565b610d05565b61009061012d3660046125cd565b610dc9565b60008060006101697f00000000000000000000000000000000000000000000000000000000000000006001600160a01b0316610f3c565b6001600160a01b031663db1d0fd56040518163ffffffff1660e01b81526004016040805180830381865afa1580156101a5573d6000803e3d6000fd5b505050506040513d601f19601f820116820180604052508101906101c99190612623565b6001600160801b031691506001600160801b0316915060006102137f00000000000000000000000000000000000000000000000000000000000000006001600160a01b031661100c565b6001600160a01b031663427d7432886040518263ffffffff1660e01b815260040161023e9190612656565b6040805180830381865afa15801561025a573d6000803e3d6000fd5b505050506040513d601f19601f8201168201806040525081019061027e919061266a565b91505060006102b57f00000000000000000000000000000000000000000000000000000000000000006001600160a01b031661109e565b6001600160a01b031663427d7432896040518263ffffffff1660e01b81526004016102e09190612656565b6040805180830381865afa1580156102fc573d6000803e3d6000fd5b505050506040513d601f19601f82011682018060405250810190610320919061266a565b9150829050600088121561034857610337886126a4565b61034190826126c0565b9050610355565b61035288826126d3565b90505b81600088121561037957610368886126a4565b61037290826126c0565b9050610386565b61038388826126d3565b90505b61039282828888611131565b96505050505050505b9392505050565b60006103d67f00000000000000000000000000000000000000000000000000000000000000006001600160a01b031661120c565b6001600160a01b03166395e155c130336040518363ffffffff1660e01b81526004016104039291906126e6565b60006040518083038186803b15801561041b57600080fd5b505afa15801561042f573d6000803e3d6000fd5b5050505061043c8261129f565b5060006104717f00000000000000000000000000000000000000000000000000000000000000006001600160a01b031661100c565b6001600160a01b031663427d7432846040518263ffffffff1660e01b815260040161049c9190612656565b6040805180830381865afa1580156104b8573d6000803e3d6000fd5b505050506040513d601f19601f820116820180604052508101906104dc919061266a565b91505060006105137f00000000000000000000000000000000000000000000000000000000000000006001600160a01b031661109e565b6001600160a01b031663427d7432856040518263ffffffff1660e01b815260040161053e9190612656565b6040805180830381865afa15801561055a573d6000803e3d6000fd5b505050506040513d601f19601f8201168201806040525081019061057e919061266a565b9150506105b37f00000000000000000000000000000000000000000000000000000000000000006001600160a01b03166114f1565b6001600160a01b031663c47deec8856105cc8585610d05565b6040518363ffffffff1660e01b81526004016105e9929190612700565b6020604051808303816000875af1158015610608573d6000803e3d6000fd5b505050506040513d601f19601f8201168201806040525081019061062c9190612719565b925050505b919050565b600061066a7f00000000000000000000000000000000000000000000000000000000000000006001600160a01b031661120c565b6001600160a01b03166395e155c130336040518363ffffffff1660e01b81526004016106979291906126e6565b60006040518083038186803b1580156106af57600080fd5b505afa1580156106c3573d6000803e3d6000fd5b505050506106d08261129f565b90506107047f00000000000000000000000000000000000000000000000000000000000000006001600160a01b0316610f3c565b6001600160a01b0316635aa0c7f8836040518263ffffffff1660e01b815260040161072f9190612656565b600060405180830381600087803b15801561074957600080fd5b505af115801561075d573d6000803e3d6000fd5b505050506107937f00000000000000000000000000000000000000000000000000000000000000006001600160a01b0316611584565b6001600160a01b0316633f1689ea83836040518363ffffffff1660e01b81526004016107c0929190612700565b600060405180830381600087803b1580156107da57600080fd5b505af11580156107ee573d6000803e3d6000fd5b50505050816001600160a01b03167ffc30cddea38e2bf4d6ea7d3f9ed3b6ad7f176419f4963bd81318067a4aee73fe8260405161082d91815260200190565b60405180910390a2919050565b60008061086f7f00000000000000000000000000000000000000000000000000000000000000006001600160a01b03166114f1565b6001600160a01b0316639017a13c610885611617565b6040518263ffffffff1660e01b81526004016108a391815260200190565b602060405180830381865afa1580156108c0573d6000803e3d6000fd5b505050506040513d601f19601f820116820180604052508101906108e49190612719565b6109167f00000000000000000000000000000000000000000000000000000000000000006001600160a01b03166114f1565b6001600160a01b0316639017a13c61092c611627565b6040518263ffffffff1660e01b815260040161094a91815260200190565b602060405180830381865afa158015610967573d6000803e3d6000fd5b505050506040513d601f19601f8201168201806040525081019061098b9190612719565b915091509091565b60008060006109ca7f00000000000000000000000000000000000000000000000000000000000000006001600160a01b03166114f1565b6001600160a01b031663a5f2f667856040518263ffffffff1660e01b81526004016109f59190612656565b60a060405180830381865afa158015610a12573d6000803e3d6000fd5b505050506040513d601f19601f82011682018060405250810190610a369190612732565b9050806020015181604001519250925050915091565b6000610a807f00000000000000000000000000000000000000000000000000000000000000006001600160a01b031661120c565b6001600160a01b03166395e155c130336040518363ffffffff1660e01b8152600401610aad9291906126e6565b60006040518083038186803b158015610ac557600080fd5b505afa158015610ad9573d6000803e3d6000fd5b50505050610ae68261129f565b50600080610b1c7f00000000000000000000000000000000000000000000000000000000000000006001600160a01b031661100c565b6001600160a01b031663427d7432856040518263ffffffff1660e01b8152600401610b479190612656565b6040805180830381865afa158015610b63573d6000803e3d6000fd5b505050506040513d601f19601f82011682018060405250810190610b87919061266a565b91509150600080610bc07f00000000000000000000000000000000000000000000000000000000000000006001600160a01b031661109e565b6001600160a01b031663427d7432876040518263ffffffff1660e01b8152600401610beb9190612656565b6040805180830381865afa158015610c07573d6000803e3d6000fd5b505050506040513d601f19601f82011682018060405250810190610c2b919061266a565b91509150610c617f00000000000000000000000000000000000000000000000000000000000000006001600160a01b03166114f1565b6001600160a01b031663199db43d87610c7a8786610d05565b610c848786610d05565b6040516001600160e01b031960e086901b1681526001600160a01b039093166004840152602483019190915260448201526064016020604051808303816000875af1158015610cd7573d6000803e3d6000fd5b505050506040513d601f19601f82011682018060405250810190610cfb9190612719565b9695505050505050565b6000806000610d3c7f00000000000000000000000000000000000000000000000000000000000000006001600160a01b0316610f3c565b6001600160a01b031663db1d0fd56040518163ffffffff1660e01b81526004016040805180830381865afa158015610d78573d6000803e3d6000fd5b505050506040513d601f19601f82011682018060405250810190610d9c9190612623565b6001600160801b031691506001600160801b03169150610dbe85858484611131565b925050505b92915050565b600080610dfe7f00000000000000000000000000000000000000000000000000000000000000006001600160a01b0316610f3c565b6001600160a01b031663cafd9ae2846040518263ffffffff1660e01b8152600401610e299190612656565b602060405180830381865afa158015610e46573d6000803e3d6000fd5b505050506040513d601f19601f82011682018060405250810190610e6a9190612719565b90506000610ea07f00000000000000000000000000000000000000000000000000000000000000006001600160a01b03166114f1565b6001600160a01b031663a5f2f667856040518263ffffffff1660e01b8152600401610ecb9190612656565b60a060405180830381865afa158015610ee8573d6000803e3d6000fd5b505050506040513d601f19601f82011682018060405250810190610f0c9190612732565b90506000610f2782608001518360200151846040015161163c565b9050610f3381846126d3565b95945050505050565b6000816001600160a01b031663f887ea406040518163ffffffff1660e01b8152600401602060405180830381865afa158015610f7c573d6000803e3d6000fd5b505050506040513d601f19601f82011682018060405250810190610fa091906127b9565b60405163ce10a0d360e01b8152600760048201526001600160a01b03919091169063ce10a0d3906024015b602060405180830381865afa158015610fe8573d6000803e3d6000fd5b505050506040513d601f19601f82011682018060405250810190610dc391906127b9565b6000816001600160a01b031663f887ea406040518163ffffffff1660e01b8152600401602060405180830381865afa15801561104c573d6000803e3d6000fd5b505050506040513d601f19601f8201168201806040525081019061107091906127b9565b60405163ce10a0d360e01b81526004818101526001600160a01b03919091169063ce10a0d390602401610fcb565b6000816001600160a01b031663f887ea406040518163ffffffff1660e01b8152600401602060405180830381865afa1580156110de573d6000803e3d6000fd5b505050506040513d601f19601f8201168201806040525081019061110291906127b9565b60405163ce10a0d360e01b8152600360048201526001600160a01b03919091169063ce10a0d390602401610fcb565b6000611148620f4240670de0b6b3a76400006127ec565b6111529085612800565b9350818311156111645761116461281f565b84158061116f575083155b1561117c57506000611204565b83850361118a575083611204565b8385106000816111a35761119e86886116bf565b6111ad565b6111ad87876116bf565b905060006111d885876111bf856116da565b6111c99190612835565b6111d391906128ba565b611cbd565b905082156111f4576111ea87826123ce565b9350505050611204565b6111fe87826116bf565b93505050505b949350505050565b6000816001600160a01b031663f887ea406040518163ffffffff1660e01b8152600401602060405180830381865afa15801561124c573d6000803e3d6000fd5b505050506040513d601f19601f8201168201806040525081019061127091906127b9565b60405163ce10a0d360e01b8152600160048201526001600160a01b03919091169063ce10a0d390602401610fcb565b600060016112ab611617565b6112b591906126c0565b6112e77f00000000000000000000000000000000000000000000000000000000000000006001600160a01b0316611584565b6001600160a01b031663c5a3f9076040518163ffffffff1660e01b8152600401602060405180830381865afa158015611324573d6000803e3d6000fd5b505050506040513d601f19601f820116820180604052508101906113489190612719565b10156113d3576113807f00000000000000000000000000000000000000000000000000000000000000006001600160a01b0316611584565b6001600160a01b031663fe07bb076040518163ffffffff1660e01b8152600401600060405180830381600087803b1580156113ba57600080fd5b505af11580156113ce573d6000803e3d6000fd5b505050505b60006114077f00000000000000000000000000000000000000000000000000000000000000006001600160a01b03166114f1565b6001600160a01b031663a972985e846040518263ffffffff1660e01b81526004016114329190612656565b6060604051808303816000875af1158015611451573d6000803e3d6000fd5b505050506040513d601f19601f8201168201806040525081019061147591906128e8565b9050600061149082604001518360000151846020015161163c565b90506114c47f00000000000000000000000000000000000000000000000000000000000000006001600160a01b0316610f3c565b6001600160a01b031663ab66f5fa85836040518363ffffffff1660e01b81526004016105e9929190612700565b6000816001600160a01b031663f887ea406040518163ffffffff1660e01b8152600401602060405180830381865afa158015611531573d6000803e3d6000fd5b505050506040513d601f19601f8201168201806040525081019061155591906127b9565b60405163ce10a0d360e01b8152600260048201526001600160a01b03919091169063ce10a0d390602401610fcb565b6000816001600160a01b031663f887ea406040518163ffffffff1660e01b8152600401602060405180830381865afa1580156115c4573d6000803e3d6000fd5b505050506040513d601f19601f820116820180604052508101906115e891906127b9565b60405163ce10a0d360e01b8152600860048201526001600160a01b03919091169063ce10a0d390602401610fcb565b6000611622426123df565b905090565b6000611631611617565b6116229060016126d3565b6000821561166a5761164c611617565b84101561166a5761165d84846123ee565b61166790826126d3565b90505b811561039b57600061167d8560016126d3565b90505b611688611617565b8110156116b75761169981846123ee565b6116a390836126d3565b9150806116af81612952565b915050611680565b509392505050565b6000816116d06001607f1b85612835565b61039b91906128ba565b60006001607f1b82131561170957604051633ce23a3d60e11b8152600481018390526024015b60405180910390fd5b6000821361172d576040516330ecaa3d60e21b815260048101839052602401611700565b6001607f1b820361174057506000919050565b640733048c5a821361175a57610dc36101ff607c1b6126a4565b60008060006a01c8464f7616476000000085136117a85761177f600160841b8561296b565b93506a01c8464f7616476000000061179b6001607f1b87612835565b6117a591906128ba565b94505b660f1aaddd7742e960341b85136117ef576117c7600160831b8561296b565b9350660f1aaddd7742e960341b6117e26001607f1b87612835565b6117ec91906128ba565b94505b6615fc21041027af603f1b85136118365761180e600160821b8561296b565b93506615fc21041027af603f1b6118296001607f1b87612835565b61183391906128ba565b94505b660960aadc109e7b60461b851361187d57611855600160811b8561296b565b9350660960aadc109e7b60461b6118706001607f1b87612835565b61187a91906128ba565b94505b660454aaa8efe073604a1b85136118c45761189c600160801b8561296b565b9350660454aaa8efe073604a1b6118b76001607f1b87612835565b6118c191906128ba565b94505b6602f16ac6c59de7604c1b851361190b576118e36001607f1b8561296b565b93506602f16ac6c59de7604c1b6118fe6001607f1b87612835565b61190891906128ba565b94505b6609b4597e37cb05604b1b85136119525761192a6001607e1b8561296b565b93506609b4597e37cb05604b1b6119456001607f1b87612835565b61194f91906128ba565b94505b6618ebef9eac820b604a1b8513611999576119716001607d1b8561296b565b93506618ebef9eac820b604a1b61198c6001607f1b87612835565b61199691906128ba565b94505b6f70f5a893b608861e1f58934f97aea57d85136119ec576119be6001607c1b8561296b565b93506f70f5a893b608861e1f58934f97aea57d6119df6001607f1b87612835565b6119e991906128ba565b94505b6119fa6001607f1b8661296b565b92508291506001607f1b611a0e8380612835565b611a1891906128ba565b9050600160801b611a29848261296b565b611a339084612835565b611a3d91906128ba565b611a479085612992565b93506001607f1b611a588284612835565b611a6291906128ba565b9150600160811b611a83846faaaaaaaaaaaaaaaaaaaaaaaaaaaaaaaa61296b565b611a8d9084612835565b611a9791906128ba565b611aa19085612992565b93506001607f1b611ab28284612835565b611abc91906128ba565b9150600360801b611add846f9999999999999999999999999999999961296b565b611ae79084612835565b611af191906128ba565b611afb9085612992565b93506001607f1b611b0c8284612835565b611b1691906128ba565b9150600160821b611b37846f9249249249249249249249249249249261296b565b611b419084612835565b611b4b91906128ba565b611b559085612992565b93506001607f1b611b668284612835565b611b7091906128ba565b9150600560801b611b91846f8e38e38e38e38e38e38e38e38e38e38e61296b565b611b9b9084612835565b611ba591906128ba565b611baf9085612992565b93506001607f1b611bc08284612835565b611bca91906128ba565b9150600360811b611beb846f8ba2e8ba2e8ba2e8ba2e8ba2e8ba2e8b61296b565b611bf59084612835565b611bff91906128ba565b611c099085612992565b93506001607f1b611c1a8284612835565b611c2491906128ba565b9150600760801b611c45846f89d89d89d89d89d89d89d89d89d89d8961296b565b611c4f9084612835565b611c5991906128ba565b611c639085612992565b93506001607f1b611c748284612835565b611c7e91906128ba565b9150600160831b611c9f846f8888888888888888888888888888888861296b565b611ca99084612835565b611cb391906128ba565b610f339085612992565b6000611ccd6101ff607c1b6126a4565b821215611cdc57506000919050565b81600003611cef57506001607f1b919050565b6000821315611d1457604051631086170d60e01b815260048101839052602401611700565b600080611d256001607c1b856129ba565b91508190506001607f1b611d398280612835565b611d4391906128ba565b9050611d57816710e1b3be415a0000612835565b611d619084612992565b92506001607f1b611d728383612835565b611d7c91906128ba565b9050611d90816705a0913f6b1e0000612835565b611d9a9084612992565b92506001607f1b611dab8383612835565b611db591906128ba565b9050611dc981670168244fdac78000612835565b611dd39084612992565b92506001607f1b611de48383612835565b611dee91906128ba565b9050611e0181664807432bc18000612835565b611e0b9084612992565b92506001607f1b611e1c8383612835565b611e2691906128ba565b9050611e3981660c0135dca04000612835565b611e439084612992565b92506001607f1b611e548383612835565b611e5e91906128ba565b9050611e71816601b707b1cdc000612835565b611e7b9084612992565b92506001607f1b611e8c8383612835565b611e9691906128ba565b9050611ea8816536e0f639b800612835565b611eb29084612992565b92506001607f1b611ec38383612835565b611ecd91906128ba565b9050611edf81650618fee9f800612835565b611ee99084612992565b92506001607f1b611efa8383612835565b611f0491906128ba565b9050611f1581649c197dcc00612835565b611f1f9084612992565b92506001607f1b611f308383612835565b611f3a91906128ba565b9050611f4b81640e30dce400612835565b611f559084612992565b92506001607f1b611f668383612835565b611f7091906128ba565b9050611f818164012ebd1300612835565b611f8b9084612992565b92506001607f1b611f9c8383612835565b611fa691906128ba565b9050611fb6816317499f00612835565b611fc09084612992565b92506001607f1b611fd18383612835565b611fdb91906128ba565b9050611feb816301a9d480612835565b611ff59084612992565b92506001607f1b6120068383612835565b61201091906128ba565b905061201f81621c6380612835565b6120299084612992565b92506001607f1b61203a8383612835565b61204491906128ba565b9050612053816201c638612835565b61205d9084612992565b92506001607f1b61206e8383612835565b61207891906128ba565b905061208681611ab8612835565b6120909084612992565b92506001607f1b6120a18383612835565b6120ab91906128ba565b90506120b98161017c612835565b6120c39084612992565b92506001607f1b6120d48383612835565b6120de91906128ba565b90506120eb816014612835565b6120f59084612992565b92506001607f1b6121068383612835565b61211091906128ba565b905061211d816001612835565b6121279084612992565b92506001607f1b826121416721c3677c82b40000866128ba565b61214b9190612992565b6121559190612992565b9250612160846126a4565b9350600160841b8416156121a6577243cbaf42a000812488fc5c220ad7b97bf6e99e6121996cf1aaddd7742e56d32fb9f9974485612835565b6121a391906128ba565b92505b600160831b8416156121eb577105d27a9f51c31b7c2f8038212a05747799916121de6e0afe10820813d65dfe6a33c07f738f85612835565b6121e891906128ba565b92505b600160821b84161561223057701b4c902e273a58678d6d3bfdb93db96d026122236f02582ab704279e8efd15e0265855c47a85612835565b61222d91906128ba565b92505b600160811b841615612275577003b1cc971a9bb5b9867477440d6d1577506122686f1152aaa3bf81cb9fdb76eae12d02957185612835565b61227291906128ba565b92505b600160801b8416156122ba5770015bf0a8b1457695355fb8ac404e7a79e36122ad6f2f16ac6c59de6f8d5d6f63c1482a7c8685612835565b6122b791906128ba565b92505b6001607f1b8416156122fe576fd3094c70f034de4b96ff7d5b6f99fcd86122f16f4da2cbf1be5827f9eb3ad1aa9866ebb385612835565b6122fb91906128ba565b92505b6001607e1b841615612342576fa45af1e1f40c333b3de1db4dd55f29a76123356f63afbe7ab2082ba1a0ae5e4eb1b479dc85612835565b61233f91906128ba565b92505b6001607d1b841615612386576f910b022db7ae67ce76b441c27035c6a16123796f70f5a893b608861e1f58934f97aea57d85612835565b61238391906128ba565b92505b6001607c1b8416156123c7576f88415abbe9a76bead8d00cf112e4d4a86123bd6f783eafef1c0a8f3978c7f81824d62ebf85612835565b61062c91906128ba565b5050919050565b60006001607f1b6116d08385612835565b6000610dc362093a80836127ec565b6000806124237f00000000000000000000000000000000000000000000000000000000000000006001600160a01b03166114f1565b6001600160a01b0316639017a13c856040518263ffffffff1660e01b815260040161245091815260200190565b602060405180830381865afa15801561246d573d6000803e3d6000fd5b505050506040513d601f19601f820116820180604052508101906124919190612719565b905060006124c77f00000000000000000000000000000000000000000000000000000000000000006001600160a01b0316611584565b6001600160a01b031663be8b6163866040518263ffffffff1660e01b81526004016124f491815260200190565b602060405180830381865afa158015612511573d6000803e3d6000fd5b505050506040513d601f19601f820116820180604052508101906125359190612719565b9050818411156125585760405163107503e960e21b815260040160405180910390fd5b8160000361256b57600092505050610dc3565b816125768286612800565b610dbe91906127ec565b6001600160a01b038116811461259557600080fd5b50565b6000806000606084860312156125ad57600080fd5b83356125b881612580565b95602085013595506040909401359392505050565b6000602082840312156125df57600080fd5b813561039b81612580565b600080604083850312156125fd57600080fd5b50508035926020909101359150565b80516001600160801b038116811461063157600080fd5b6000806040838503121561263657600080fd5b61263f8361260c565b915061264d6020840161260c565b90509250929050565b6001600160a01b0391909116815260200190565b6000806040838503121561267d57600080fd5b505080516020909101519092909150565b634e487b7160e01b600052601160045260246000fd5b6000600160ff1b82016126b9576126b961268e565b5060000390565b81810381811115610dc357610dc361268e565b80820180821115610dc357610dc361268e565b6001600160a01b0392831681529116602082015260400190565b6001600160a01b03929092168252602082015260400190565b60006020828403121561272b57600080fd5b5051919050565b600060a0828403121561274457600080fd5b60405160a0810181811067ffffffffffffffff8211171561277557634e487b7160e01b600052604160045260246000fd5b604052825161278381612580565b80825250602083015160208201526040830151604082015260608301516060820152608083015160808201528091505092915050565b6000602082840312156127cb57600080fd5b815161039b81612580565b634e487b7160e01b600052601260045260246000fd5b6000826127fb576127fb6127d6565b500490565b600081600019048311821515161561281a5761281a61268e565b500290565b634e487b7160e01b600052600160045260246000fd5b60006001600160ff1b038184138284138082168684048611161561285b5761285b61268e565b600160ff1b600087128281168783058912161561287a5761287a61268e565b600087129250878205871284841616156128965761289661268e565b878505871281841616156128ac576128ac61268e565b505050929093029392505050565b6000826128c9576128c96127d6565b600160ff1b8214600019841416156128e3576128e361268e565b500590565b6000606082840312156128fa57600080fd5b6040516060810181811067ffffffffffffffff8211171561292b57634e487b7160e01b600052604160045260246000fd5b80604052508251815260208301516020820152604083015160408201528091505092915050565b6000600182016129645761296461268e565b5060010190565b818103600083128015838313168383128216171561298b5761298b61268e565b5092915050565b80820182811260008312801582168215821617156129b2576129b261268e565b505092915050565b6000826129c9576129c96127d6565b50079056fea2646970667358221220217deff99a19960fa8d0111bcafe2191479cb9dc972d405be50221ecbcf849e464736f6c63430008100033",
  "devdoc": {
    "events": {
      "RewardsClaimed(address,uint256)": {
        "params": {
          "owner": "the owner claiming rewards",
          "rewards": "amount of fidu claimed"
        }
      }
    },
    "kind": "dev",
    "methods": {
      "calculateMembershipScore(uint256,uint256)": {
        "params": {
          "capital": "Amount of capital in USDC",
          "gfi": "Amount of gfi"
        },
        "returns": {
          "_0": "membership score"
        }
      },
      "claimableRewards(address)": {
        "params": {
          "owner": "address to calculate claimable rewards for"
        },
        "returns": {
          "_0": "the amount of rewards that could be claimed by the caller"
        }
      },
      "collectRewards(address)": {
        "params": {
          "owner": "address to claim rewards for"
        },
        "returns": {
          "rewards": "amount of yield enhancements collected"
        }
      },
      "consumeDeposit(address)": {
        "params": {
          "owner": "address that performed the depositing"
        },
        "returns": {
          "_0": "id of membership position"
        }
      },
      "consumeWithdraw(address)": {
        "params": {
          "owner": "address that performed the withdrawing"
        },
        "returns": {
          "_0": "id of membership position"
        }
      },
      "currentScore(address)": {
        "params": {
          "owner": "address to check the score of"
        },
        "returns": {
          "eligibleScore": "score that is currently eligible for rewards",
          "totalScore": "score that will be elgible for rewards next epoch"
        }
      },
      "estimateMemberScore(address,int256,int256)": {
        "params": {
          "capital": "the change in gfi holdings, denominated in USDC",
          "gfi": "the change in gfi holdings, denominated in GFI",
          "memberAddress": "the member's address"
        },
        "returns": {
          "score": "resulting score for the member given the GFI and capital changes"
        }
      },
      "totalMemberScores()": {
        "returns": {
          "eligibleTotal": "sum of all member scores that are currently eligible",
          "nextEpochTotal": "sum of all member scores that will be eligible next epoch"
        }
      }
    },
    "version": 1
  },
  "userdoc": {
    "errors": {
      "ExpTooLarge(int256)": [
        {
          "notice": "Thrown when exp is given too large of an argument"
        }
      ],
      "LnNonRealResult(int256)": [
        {
          "notice": "Thrown when the natural log would have returned a number outside of "
        }
      ],
      "LnTooLarge(int256)": [
        {
          "notice": "Thrown when the natural log function is given too large of an argument"
        }
      ]
    },
    "events": {
      "RewardsClaimed(address,uint256)": {
        "notice": "Emitted when `owner` claims fidu `rewards`"
      }
    },
    "kind": "user",
    "methods": {
      "calculateMembershipScore(uint256,uint256)": {
        "notice": "Calculate the membership score"
      },
      "claimableRewards(address)": {
        "notice": "Check how many rewards are claimable for the caller. The return  value here is how much would be retrieved by calling `collectRewards`."
      },
      "collectRewards(address)": {
        "notice": "Collect all membership yield enhancements for the caller."
      },
      "consumeDeposit(address)": {
        "notice": "Notify that the owner has deposited some assets, which  may affect membership."
      },
      "consumeWithdraw(address)": {
        "notice": "Notify that the owner has withdrawn some assets, which  may affect membership."
      },
      "currentScore(address)": {
        "notice": "Get the current score of `owner`"
      },
      "estimateMemberScore(address,int256,int256)": {
        "notice": "Estimate the score for an existing member, given some changes in GFI and capital"
      },
      "totalMemberScores()": {
        "notice": "Get the sum of all member scores that are currently eligible and that will be eligible next epoch"
      }
    },
    "version": 1
  },
  "storageLayout": {
    "storage": [
      {
        "astId": 660,
        "contract": "contracts/protocol/core/membership/MembershipDirector.sol:MembershipDirector",
        "label": "_initialized",
        "offset": 0,
        "slot": "0",
        "type": "t_bool"
      },
      {
        "astId": 663,
        "contract": "contracts/protocol/core/membership/MembershipDirector.sol:MembershipDirector",
        "label": "_initializing",
        "offset": 1,
        "slot": "0",
        "type": "t_bool"
      }
    ],
    "types": {
      "t_bool": {
        "encoding": "inplace",
        "label": "bool",
        "numberOfBytes": "1"
      }
    }
  }
}