{
  "address": "0xa85b028984bC54A2a3D844B070544F59dDDf89DE",
  "abi": [
    {
      "inputs": [
        {
          "internalType": "contract Context",
          "name": "_context",
          "type": "address"
        }
      ],
      "stateMutability": "nonpayable",
      "type": "constructor"
    },
    {
      "inputs": [
        {
          "internalType": "int256",
          "name": "x",
          "type": "int256"
        }
      ],
      "name": "ExpTooLarge",
      "type": "error"
    },
    {
      "inputs": [],
      "name": "InvalidPositionType",
      "type": "error"
    },
    {
      "inputs": [],
      "name": "InvalidVaultPosition",
      "type": "error"
    },
    {
      "inputs": [
        {
          "internalType": "int256",
          "name": "x",
          "type": "int256"
        }
      ],
      "name": "LnNonRealResult",
      "type": "error"
    },
    {
      "inputs": [
        {
          "internalType": "int256",
          "name": "x",
          "type": "int256"
        }
      ],
      "name": "LnTooLarge",
      "type": "error"
    },
    {
      "anonymous": false,
      "inputs": [
        {
          "indexed": true,
          "internalType": "address",
          "name": "owner",
          "type": "address"
        },
        {
          "indexed": false,
          "internalType": "uint256",
          "name": "rewards",
          "type": "uint256"
        }
      ],
      "name": "RewardsClaimed",
      "type": "event"
    },
    {
      "inputs": [
        {
          "internalType": "uint256",
          "name": "gfi",
          "type": "uint256"
        },
        {
          "internalType": "uint256",
          "name": "capital",
          "type": "uint256"
        }
      ],
      "name": "calculateMembershipScore",
      "outputs": [
        {
          "internalType": "uint256",
          "name": "",
          "type": "uint256"
        }
      ],
      "stateMutability": "view",
      "type": "function"
    },
    {
      "inputs": [
        {
          "internalType": "address",
          "name": "owner",
          "type": "address"
        }
      ],
      "name": "claimableRewards",
      "outputs": [
        {
          "internalType": "uint256",
          "name": "",
          "type": "uint256"
        }
      ],
      "stateMutability": "view",
      "type": "function"
    },
    {
      "inputs": [
        {
          "internalType": "address",
          "name": "owner",
          "type": "address"
        }
      ],
      "name": "collectRewards",
      "outputs": [
        {
          "internalType": "uint256",
          "name": "rewards",
          "type": "uint256"
        }
      ],
      "stateMutability": "nonpayable",
      "type": "function"
    },
    {
      "inputs": [
        {
          "internalType": "address",
          "name": "owner",
          "type": "address"
        }
      ],
      "name": "consumeHoldingsAdjustment",
      "outputs": [
        {
          "internalType": "uint256",
          "name": "",
          "type": "uint256"
        }
      ],
      "stateMutability": "nonpayable",
      "type": "function"
    },
    {
      "inputs": [
        {
          "internalType": "address",
          "name": "owner",
          "type": "address"
        }
      ],
      "name": "currentScore",
      "outputs": [
        {
          "internalType": "uint256",
          "name": "eligibleScore",
          "type": "uint256"
        },
        {
          "internalType": "uint256",
          "name": "totalScore",
          "type": "uint256"
        }
      ],
      "stateMutability": "view",
      "type": "function"
    },
    {
      "inputs": [
        {
          "internalType": "address",
          "name": "memberAddress",
          "type": "address"
        },
        {
          "internalType": "int256",
          "name": "gfi",
          "type": "int256"
        },
        {
          "internalType": "int256",
          "name": "capital",
          "type": "int256"
        }
      ],
      "name": "estimateMemberScore",
      "outputs": [
        {
          "internalType": "uint256",
          "name": "score",
          "type": "uint256"
        }
      ],
      "stateMutability": "view",
      "type": "function"
    },
    {
      "inputs": [],
      "name": "totalMemberScores",
      "outputs": [
        {
          "internalType": "uint256",
          "name": "eligibleTotal",
          "type": "uint256"
        },
        {
          "internalType": "uint256",
          "name": "nextEpochTotal",
          "type": "uint256"
        }
      ],
      "stateMutability": "view",
      "type": "function"
    }
  ],
  "transactionHash": "0xfba0eabb322bea9c03df714f0f0b706a85dffefd0ed6490510973527d8ca4ac5",
  "args": [
    "0x093e8F4d8f267d2CeEc9eB889E2054710d187beD"
  ],
  "solcInputHash": "f54a3b77e361f12da7115cc1f85ba55f",
  "bytecode": "0x60a06040523480156200001157600080fd5b506040516200289938038062002899833981016040819052620000349162000046565b6001600160a01b031660805262000078565b6000602082840312156200005957600080fd5b81516001600160a01b03811681146200007157600080fd5b9392505050565b608051612772620001276000396000818161011e015281816101c80152818161026a0152818161038b01528181610427015281816104b6015281816105970152818161063e015281816106f2015281816107a801528181610846015281816108ea0152818161098b01528181610a6801528181610b2a01528181610bcc01528181611013015281816110ac01528181611133015281816111f001528181612197015261223b01526127726000f3fe608060405234801561001057600080fd5b506004361061006d5760003560e01c806317bc7d47146100725780635763dbd01461009857806377bb1411146100ab5780638a440b00146100c8578063c37f81a3146100db578063cc323aee146100ee578063dc01f60d14610101575b600080fd5b610085610080366004612339565b610114565b6040519081526020015b60405180910390f35b6100856100a636600461236e565b610384565b6100b361058f565b6040805192835260208301919091520161008f565b6100b36100d636600461236e565b6106e8565b6100856100e936600461236e565b6107a1565b6100856100fc36600461238b565b610a5e565b61008561010f36600461236e565b610b22565b600080600061014b7f00000000000000000000000000000000000000000000000000000000000000006001600160a01b0316610c95565b6001600160a01b031663db1d0fd56040518163ffffffff1660e01b81526004016040805180830381865afa158015610187573d6000803e3d6000fd5b505050506040513d601f19601f820116820180604052508101906101ab91906123c4565b6001600160801b031691506001600160801b0316915060006101f57f00000000000000000000000000000000000000000000000000000000000000006001600160a01b0316610d65565b6001600160a01b031663427d7432886040518263ffffffff1660e01b815260040161022091906123f7565b6040805180830381865afa15801561023c573d6000803e3d6000fd5b505050506040513d601f19601f82011682018060405250810190610260919061240b565b91505060006102977f00000000000000000000000000000000000000000000000000000000000000006001600160a01b0316610df7565b6001600160a01b031663427d7432896040518263ffffffff1660e01b81526004016102c291906123f7565b6040805180830381865afa1580156102de573d6000803e3d6000fd5b505050506040513d601f19601f82011682018060405250810190610302919061240b565b9150829050600088121561032a5761031988612445565b6103239082612461565b9050610337565b6103348882612474565b90505b81600088121561035b5761034a88612445565b6103549082612461565b9050610368565b6103658882612474565b90505b61037482828888610e8a565b96505050505050505b9392505050565b60006103b87f00000000000000000000000000000000000000000000000000000000000000006001600160a01b0316610f65565b6040516395e155c160e01b81523060048201523360248201526001600160a01b0391909116906395e155c19060440160006040518083038186803b1580156103ff57600080fd5b505afa158015610413573d6000803e3d6000fd5b5050505061042082610ff8565b90506104547f00000000000000000000000000000000000000000000000000000000000000006001600160a01b0316610c95565b6001600160a01b0316635aa0c7f8836040518263ffffffff1660e01b815260040161047f91906123f7565b600060405180830381600087803b15801561049957600080fd5b505af11580156104ad573d6000803e3d6000fd5b505050506104e37f00000000000000000000000000000000000000000000000000000000000000006001600160a01b0316611292565b604051631f8b44f560e11b81526001600160a01b038481166004830152602482018490529190911690633f1689ea90604401600060405180830381600087803b15801561052f57600080fd5b505af1158015610543573d6000803e3d6000fd5b50505050816001600160a01b03167ffc30cddea38e2bf4d6ea7d3f9ed3b6ad7f176419f4963bd81318067a4aee73fe8260405161058291815260200190565b60405180910390a2919050565b6000806105c47f00000000000000000000000000000000000000000000000000000000000000006001600160a01b0316611325565b6001600160a01b0316639017a13c6105da6113b8565b6040518263ffffffff1660e01b81526004016105f891815260200190565b602060405180830381865afa158015610615573d6000803e3d6000fd5b505050506040513d601f19601f820116820180604052508101906106399190612487565b61066b7f00000000000000000000000000000000000000000000000000000000000000006001600160a01b0316611325565b6001600160a01b0316639017a13c6106816113c8565b6040518263ffffffff1660e01b815260040161069f91815260200190565b602060405180830381865afa1580156106bc573d6000803e3d6000fd5b505050506040513d601f19601f820116820180604052508101906106e09190612487565b915091509091565b600080600061071f7f00000000000000000000000000000000000000000000000000000000000000006001600160a01b0316611325565b6001600160a01b031663a5f2f667856040518263ffffffff1660e01b815260040161074a91906123f7565b60a060405180830381865afa158015610767573d6000803e3d6000fd5b505050506040513d601f19601f8201168201806040525081019061078b91906124a0565b9050806020015181604001519250925050915091565b60006107d57f00000000000000000000000000000000000000000000000000000000000000006001600160a01b0316610f65565b6040516395e155c160e01b81523060048201523360248201526001600160a01b0391909116906395e155c19060440160006040518083038186803b15801561081c57600080fd5b505afa158015610830573d6000803e3d6000fd5b5050505061083d82610ff8565b506000806108737f00000000000000000000000000000000000000000000000000000000000000006001600160a01b0316610d65565b6001600160a01b031663427d7432856040518263ffffffff1660e01b815260040161089e91906123f7565b6040805180830381865afa1580156108ba573d6000803e3d6000fd5b505050506040513d601f19601f820116820180604052508101906108de919061240b565b915091506000806109177f00000000000000000000000000000000000000000000000000000000000000006001600160a01b0316610df7565b6001600160a01b031663427d7432876040518263ffffffff1660e01b815260040161094291906123f7565b6040805180830381865afa15801561095e573d6000803e3d6000fd5b505050506040513d601f19601f82011682018060405250810190610982919061240b565b915091506109b87f00000000000000000000000000000000000000000000000000000000000000006001600160a01b0316611325565b6001600160a01b031663a350ed48876109d18786610a5e565b6109db8786610a5e565b6040516001600160e01b031960e086901b1681526001600160a01b039093166004840152602483019190915260448201526064016020604051808303816000875af1158015610a2e573d6000803e3d6000fd5b505050506040513d601f19601f82011682018060405250810190610a529190612487565b9450505050505b919050565b6000806000610a957f00000000000000000000000000000000000000000000000000000000000000006001600160a01b0316610c95565b6001600160a01b031663db1d0fd56040518163ffffffff1660e01b81526004016040805180830381865afa158015610ad1573d6000803e3d6000fd5b505050506040513d601f19601f82011682018060405250810190610af591906123c4565b6001600160801b031691506001600160801b03169150610b1785858484610e8a565b925050505b92915050565b600080610b577f00000000000000000000000000000000000000000000000000000000000000006001600160a01b0316610c95565b6001600160a01b031663cafd9ae2846040518263ffffffff1660e01b8152600401610b8291906123f7565b602060405180830381865afa158015610b9f573d6000803e3d6000fd5b505050506040513d601f19601f82011682018060405250810190610bc39190612487565b90506000610bf97f00000000000000000000000000000000000000000000000000000000000000006001600160a01b0316611325565b6001600160a01b031663a5f2f667856040518263ffffffff1660e01b8152600401610c2491906123f7565b60a060405180830381865afa158015610c41573d6000803e3d6000fd5b505050506040513d601f19601f82011682018060405250810190610c6591906124a0565b90506000610c808260800151836020015184604001516113dd565b9050610c8c8184612474565b95945050505050565b6000816001600160a01b031663f887ea406040518163ffffffff1660e01b8152600401602060405180830381865afa158015610cd5573d6000803e3d6000fd5b505050506040513d601f19601f82011682018060405250810190610cf99190612527565b60405163ce10a0d360e01b8152600760048201526001600160a01b03919091169063ce10a0d3906024015b602060405180830381865afa158015610d41573d6000803e3d6000fd5b505050506040513d601f19601f82011682018060405250810190610b1c9190612527565b6000816001600160a01b031663f887ea406040518163ffffffff1660e01b8152600401602060405180830381865afa158015610da5573d6000803e3d6000fd5b505050506040513d601f19601f82011682018060405250810190610dc99190612527565b60405163ce10a0d360e01b81526004818101526001600160a01b03919091169063ce10a0d390602401610d24565b6000816001600160a01b031663f887ea406040518163ffffffff1660e01b8152600401602060405180830381865afa158015610e37573d6000803e3d6000fd5b505050506040513d601f19601f82011682018060405250810190610e5b9190612527565b60405163ce10a0d360e01b8152600360048201526001600160a01b03919091169063ce10a0d390602401610d24565b6000610ea1620f4240670de0b6b3a764000061255a565b610eab908561256e565b935081831115610ebd57610ebd61258d565b841580610ec8575083155b15610ed557506000610f5d565b838503610ee3575083610f5d565b838510600081610efc57610ef78688611460565b610f06565b610f068787611460565b90506000610f318587610f188561147b565b610f2291906125a3565b610f2c9190612628565b611a5e565b90508215610f4d57610f43878261216f565b9350505050610f5d565b610f578782611460565b93505050505b949350505050565b6000816001600160a01b031663f887ea406040518163ffffffff1660e01b8152600401602060405180830381865afa158015610fa5573d6000803e3d6000fd5b505050506040513d601f19601f82011682018060405250810190610fc99190612527565b60405163ce10a0d360e01b8152600160048201526001600160a01b03919091169063ce10a0d390602401610d24565b600060016110046113b8565b61100e9190612461565b6110407f00000000000000000000000000000000000000000000000000000000000000006001600160a01b0316611292565b6001600160a01b031663c5a3f9076040518163ffffffff1660e01b8152600401602060405180830381865afa15801561107d573d6000803e3d6000fd5b505050506040513d601f19601f820116820180604052508101906110a19190612487565b101561112c576110d97f00000000000000000000000000000000000000000000000000000000000000006001600160a01b0316611292565b6001600160a01b031663fe07bb076040518163ffffffff1660e01b8152600401600060405180830381600087803b15801561111357600080fd5b505af1158015611127573d6000803e3d6000fd5b505050505b60006111607f00000000000000000000000000000000000000000000000000000000000000006001600160a01b0316611325565b6001600160a01b031663a972985e846040518263ffffffff1660e01b815260040161118b91906123f7565b6060604051808303816000875af11580156111aa573d6000803e3d6000fd5b505050506040513d601f19601f820116820180604052508101906111ce9190612656565b905060006111e98260400151836000015184602001516113dd565b905061121d7f00000000000000000000000000000000000000000000000000000000000000006001600160a01b0316610c95565b6040516355b37afd60e11b81526001600160a01b03868116600483015260248201849052919091169063ab66f5fa906044016020604051808303816000875af115801561126e573d6000803e3d6000fd5b505050506040513d601f19601f82011682018060405250810190610f5d9190612487565b6000816001600160a01b031663f887ea406040518163ffffffff1660e01b8152600401602060405180830381865afa1580156112d2573d6000803e3d6000fd5b505050506040513d601f19601f820116820180604052508101906112f69190612527565b60405163ce10a0d360e01b8152600860048201526001600160a01b03919091169063ce10a0d390602401610d24565b6000816001600160a01b031663f887ea406040518163ffffffff1660e01b8152600401602060405180830381865afa158015611365573d6000803e3d6000fd5b505050506040513d601f19601f820116820180604052508101906113899190612527565b60405163ce10a0d360e01b8152600260048201526001600160a01b03919091169063ce10a0d390602401610d24565b60006113c342612180565b905090565b60006113d26113b8565b6113c3906001612474565b6000821561140b576113ed6113b8565b84101561140b576113fe848461218f565b6114089082612474565b90505b811561037d57600061141e856001612474565b90505b6114296113b8565b8110156114585761143a818461218f565b6114449083612474565b915080611450816126c0565b915050611421565b509392505050565b6000816114716001607f1b856125a3565b61037d9190612628565b60006001607f1b8213156114aa57604051633ce23a3d60e11b8152600481018390526024015b60405180910390fd5b600082136114ce576040516330ecaa3d60e21b8152600481018390526024016114a1565b6001607f1b82036114e157506000919050565b640733048c5a82136114fb57610b1c6101ff607c1b612445565b60008060006a01c8464f76164760000000851361154957611520600160841b856126d9565b93506a01c8464f7616476000000061153c6001607f1b876125a3565b6115469190612628565b94505b660f1aaddd7742e960341b851361159057611568600160831b856126d9565b9350660f1aaddd7742e960341b6115836001607f1b876125a3565b61158d9190612628565b94505b6615fc21041027af603f1b85136115d7576115af600160821b856126d9565b93506615fc21041027af603f1b6115ca6001607f1b876125a3565b6115d49190612628565b94505b660960aadc109e7b60461b851361161e576115f6600160811b856126d9565b9350660960aadc109e7b60461b6116116001607f1b876125a3565b61161b9190612628565b94505b660454aaa8efe073604a1b85136116655761163d600160801b856126d9565b9350660454aaa8efe073604a1b6116586001607f1b876125a3565b6116629190612628565b94505b6602f16ac6c59de7604c1b85136116ac576116846001607f1b856126d9565b93506602f16ac6c59de7604c1b61169f6001607f1b876125a3565b6116a99190612628565b94505b6609b4597e37cb05604b1b85136116f3576116cb6001607e1b856126d9565b93506609b4597e37cb05604b1b6116e66001607f1b876125a3565b6116f09190612628565b94505b6618ebef9eac820b604a1b851361173a576117126001607d1b856126d9565b93506618ebef9eac820b604a1b61172d6001607f1b876125a3565b6117379190612628565b94505b6f70f5a893b608861e1f58934f97aea57d851361178d5761175f6001607c1b856126d9565b93506f70f5a893b608861e1f58934f97aea57d6117806001607f1b876125a3565b61178a9190612628565b94505b61179b6001607f1b866126d9565b92508291506001607f1b6117af83806125a3565b6117b99190612628565b9050600160801b6117ca84826126d9565b6117d490846125a3565b6117de9190612628565b6117e89085612700565b93506001607f1b6117f982846125a3565b6118039190612628565b9150600160811b611824846faaaaaaaaaaaaaaaaaaaaaaaaaaaaaaaa6126d9565b61182e90846125a3565b6118389190612628565b6118429085612700565b93506001607f1b61185382846125a3565b61185d9190612628565b9150600360801b61187e846f999999999999999999999999999999996126d9565b61188890846125a3565b6118929190612628565b61189c9085612700565b93506001607f1b6118ad82846125a3565b6118b79190612628565b9150600160821b6118d8846f924924924924924924924924924924926126d9565b6118e290846125a3565b6118ec9190612628565b6118f69085612700565b93506001607f1b61190782846125a3565b6119119190612628565b9150600560801b611932846f8e38e38e38e38e38e38e38e38e38e38e6126d9565b61193c90846125a3565b6119469190612628565b6119509085612700565b93506001607f1b61196182846125a3565b61196b9190612628565b9150600360811b61198c846f8ba2e8ba2e8ba2e8ba2e8ba2e8ba2e8b6126d9565b61199690846125a3565b6119a09190612628565b6119aa9085612700565b93506001607f1b6119bb82846125a3565b6119c59190612628565b9150600760801b6119e6846f89d89d89d89d89d89d89d89d89d89d896126d9565b6119f090846125a3565b6119fa9190612628565b611a049085612700565b93506001607f1b611a1582846125a3565b611a1f9190612628565b9150600160831b611a40846f888888888888888888888888888888886126d9565b611a4a90846125a3565b611a549190612628565b610c8c9085612700565b6000611a6e6101ff607c1b612445565b821215611a7d57506000919050565b81600003611a9057506001607f1b919050565b6000821315611ab557604051631086170d60e01b8152600481018390526024016114a1565b600080611ac66001607c1b85612728565b91508190506001607f1b611ada82806125a3565b611ae49190612628565b9050611af8816710e1b3be415a00006125a3565b611b029084612700565b92506001607f1b611b1383836125a3565b611b1d9190612628565b9050611b31816705a0913f6b1e00006125a3565b611b3b9084612700565b92506001607f1b611b4c83836125a3565b611b569190612628565b9050611b6a81670168244fdac780006125a3565b611b749084612700565b92506001607f1b611b8583836125a3565b611b8f9190612628565b9050611ba281664807432bc180006125a3565b611bac9084612700565b92506001607f1b611bbd83836125a3565b611bc79190612628565b9050611bda81660c0135dca040006125a3565b611be49084612700565b92506001607f1b611bf583836125a3565b611bff9190612628565b9050611c12816601b707b1cdc0006125a3565b611c1c9084612700565b92506001607f1b611c2d83836125a3565b611c379190612628565b9050611c49816536e0f639b8006125a3565b611c539084612700565b92506001607f1b611c6483836125a3565b611c6e9190612628565b9050611c8081650618fee9f8006125a3565b611c8a9084612700565b92506001607f1b611c9b83836125a3565b611ca59190612628565b9050611cb681649c197dcc006125a3565b611cc09084612700565b92506001607f1b611cd183836125a3565b611cdb9190612628565b9050611cec81640e30dce4006125a3565b611cf69084612700565b92506001607f1b611d0783836125a3565b611d119190612628565b9050611d228164012ebd13006125a3565b611d2c9084612700565b92506001607f1b611d3d83836125a3565b611d479190612628565b9050611d57816317499f006125a3565b611d619084612700565b92506001607f1b611d7283836125a3565b611d7c9190612628565b9050611d8c816301a9d4806125a3565b611d969084612700565b92506001607f1b611da783836125a3565b611db19190612628565b9050611dc081621c63806125a3565b611dca9084612700565b92506001607f1b611ddb83836125a3565b611de59190612628565b9050611df4816201c6386125a3565b611dfe9084612700565b92506001607f1b611e0f83836125a3565b611e199190612628565b9050611e2781611ab86125a3565b611e319084612700565b92506001607f1b611e4283836125a3565b611e4c9190612628565b9050611e5a8161017c6125a3565b611e649084612700565b92506001607f1b611e7583836125a3565b611e7f9190612628565b9050611e8c8160146125a3565b611e969084612700565b92506001607f1b611ea783836125a3565b611eb19190612628565b9050611ebe8160016125a3565b611ec89084612700565b92506001607f1b82611ee26721c3677c82b4000086612628565b611eec9190612700565b611ef69190612700565b9250611f0184612445565b9350600160841b841615611f47577243cbaf42a000812488fc5c220ad7b97bf6e99e611f3a6cf1aaddd7742e56d32fb9f99744856125a3565b611f449190612628565b92505b600160831b841615611f8c577105d27a9f51c31b7c2f8038212a0574779991611f7f6e0afe10820813d65dfe6a33c07f738f856125a3565b611f899190612628565b92505b600160821b841615611fd157701b4c902e273a58678d6d3bfdb93db96d02611fc46f02582ab704279e8efd15e0265855c47a856125a3565b611fce9190612628565b92505b600160811b841615612016577003b1cc971a9bb5b9867477440d6d1577506120096f1152aaa3bf81cb9fdb76eae12d029571856125a3565b6120139190612628565b92505b600160801b84161561205b5770015bf0a8b1457695355fb8ac404e7a79e361204e6f2f16ac6c59de6f8d5d6f63c1482a7c86856125a3565b6120589190612628565b92505b6001607f1b84161561209f576fd3094c70f034de4b96ff7d5b6f99fcd86120926f4da2cbf1be5827f9eb3ad1aa9866ebb3856125a3565b61209c9190612628565b92505b6001607e1b8416156120e3576fa45af1e1f40c333b3de1db4dd55f29a76120d66f63afbe7ab2082ba1a0ae5e4eb1b479dc856125a3565b6120e09190612628565b92505b6001607d1b841615612127576f910b022db7ae67ce76b441c27035c6a161211a6f70f5a893b608861e1f58934f97aea57d856125a3565b6121249190612628565b92505b6001607c1b841615612168576f88415abbe9a76bead8d00cf112e4d4a861215e6f783eafef1c0a8f3978c7f81824d62ebf856125a3565b610f5d9190612628565b5050919050565b60006001607f1b61147183856125a3565b6000610b1c62093a808361255a565b6000806121c47f00000000000000000000000000000000000000000000000000000000000000006001600160a01b0316611325565b6001600160a01b0316639017a13c856040518263ffffffff1660e01b81526004016121f191815260200190565b602060405180830381865afa15801561220e573d6000803e3d6000fd5b505050506040513d601f19601f820116820180604052508101906122329190612487565b905060006122687f00000000000000000000000000000000000000000000000000000000000000006001600160a01b0316611292565b6001600160a01b031663be8b6163866040518263ffffffff1660e01b815260040161229591815260200190565b602060405180830381865afa1580156122b2573d6000803e3d6000fd5b505050506040513d601f19601f820116820180604052508101906122d69190612487565b9050818411156122f95760405163107503e960e21b815260040160405180910390fd5b8160000361230c57600092505050610b1c565b81612317828661256e565b610b17919061255a565b6001600160a01b038116811461233657600080fd5b50565b60008060006060848603121561234e57600080fd5b833561235981612321565b95602085013595506040909401359392505050565b60006020828403121561238057600080fd5b813561037d81612321565b6000806040838503121561239e57600080fd5b50508035926020909101359150565b80516001600160801b0381168114610a5957600080fd5b600080604083850312156123d757600080fd5b6123e0836123ad565b91506123ee602084016123ad565b90509250929050565b6001600160a01b0391909116815260200190565b6000806040838503121561241e57600080fd5b505080516020909101519092909150565b634e487b7160e01b600052601160045260246000fd5b6000600160ff1b820161245a5761245a61242f565b5060000390565b81810381811115610b1c57610b1c61242f565b80820180821115610b1c57610b1c61242f565b60006020828403121561249957600080fd5b5051919050565b600060a082840312156124b257600080fd5b60405160a0810181811067ffffffffffffffff821117156124e357634e487b7160e01b600052604160045260246000fd5b60405282516124f181612321565b80825250602083015160208201526040830151604082015260608301516060820152608083015160808201528091505092915050565b60006020828403121561253957600080fd5b815161037d81612321565b634e487b7160e01b600052601260045260246000fd5b60008261256957612569612544565b500490565b60008160001904831182151516156125885761258861242f565b500290565b634e487b7160e01b600052600160045260246000fd5b60006001600160ff1b03818413828413808216868404861116156125c9576125c961242f565b600160ff1b60008712828116878305891216156125e8576125e861242f565b600087129250878205871284841616156126045761260461242f565b8785058712818416161561261a5761261a61242f565b505050929093029392505050565b60008261263757612637612544565b600160ff1b8214600019841416156126515761265161242f565b500590565b60006060828403121561266857600080fd5b6040516060810181811067ffffffffffffffff8211171561269957634e487b7160e01b600052604160045260246000fd5b80604052508251815260208301516020820152604083015160408201528091505092915050565b6000600182016126d2576126d261242f565b5060010190565b81810360008312801583831316838312821617156126f9576126f961242f565b5092915050565b80820182811260008312801582168215821617156127205761272061242f565b505092915050565b60008261273757612737612544565b50079056fea2646970667358221220c6f0d7d44f4b29c108d6e48f4625286c01f61212b1bbd7064f65d2416b147bb864736f6c63430008100033",
  "devdoc": {
    "events": {
      "RewardsClaimed(address,uint256)": {
        "params": {
          "owner": "the owner claiming rewards",
          "rewards": "amount of fidu claimed"
        }
      }
    },
    "kind": "dev",
    "methods": {
      "calculateMembershipScore(uint256,uint256)": {
        "params": {
          "capital": "Amount of capital in USDC",
          "gfi": "Amount of gfi"
        },
        "returns": {
          "_0": "membership score"
        }
      },
      "claimableRewards(address)": {
        "params": {
          "owner": "address to calculate claimable rewards for"
        },
        "returns": {
          "_0": "the amount of rewards that could be claimed by the owner"
        }
      },
      "collectRewards(address)": {
        "params": {
          "owner": "address to claim rewards for"
        },
        "returns": {
          "rewards": "amount of yield enhancements collected"
        }
      },
      "consumeHoldingsAdjustment(address)": {
        "params": {
          "owner": "address that performed the depositing"
        },
        "returns": {
          "_0": "id of membership position"
        }
      },
      "currentScore(address)": {
        "params": {
          "owner": "address to check the score of"
        },
        "returns": {
          "eligibleScore": "score that is currently eligible for rewards",
          "totalScore": "score that will be elgible for rewards next epoch"
        }
      },
      "estimateMemberScore(address,int256,int256)": {
        "params": {
          "capital": "the change in gfi holdings, denominated in USDC",
          "gfi": "the change in gfi holdings, denominated in GFI",
          "memberAddress": "the member's address"
        },
        "returns": {
          "score": "resulting score for the member given the GFI and capital changes"
        }
      },
      "totalMemberScores()": {
        "returns": {
          "eligibleTotal": "sum of all member scores that are currently eligible",
          "nextEpochTotal": "sum of all member scores that will be eligible next epoch"
        }
      }
    },
    "version": 1
  },
  "userdoc": {
    "errors": {
      "ExpTooLarge(int256)": [
        {
          "notice": "Thrown when exp is given too large of an argument"
        }
      ],
      "LnNonRealResult(int256)": [
        {
          "notice": "Thrown when the natural log would have returned a number outside of "
        }
      ],
      "LnTooLarge(int256)": [
        {
          "notice": "Thrown when the natural log function is given too large of an argument"
        }
      ]
    },
    "events": {
      "RewardsClaimed(address,uint256)": {
        "notice": "Emitted when `owner` claims fidu `rewards`"
      }
    },
    "kind": "user",
    "methods": {
      "calculateMembershipScore(uint256,uint256)": {
        "notice": "Calculate the membership score"
      },
      "claimableRewards(address)": {
        "notice": "Check how many rewards are claimable for the owner. The return  value here is how much would be retrieved by calling `collectRewards`."
      },
      "collectRewards(address)": {
        "notice": "Collect all membership yield enhancements for the owner."
      },
      "consumeHoldingsAdjustment(address)": {
        "notice": "Notify that the owner has deposited or withdraw some assets and  membership should be updated to reflect that"
      },
      "currentScore(address)": {
        "notice": "Get the current score of `owner`"
      },
      "estimateMemberScore(address,int256,int256)": {
        "notice": "Estimate the score for an existing member, given some changes in GFI and capital"
      },
      "totalMemberScores()": {
        "notice": "Get the sum of all member scores that are currently eligible and that will be eligible next epoch"
      }
    },
    "version": 1
  },
  "storageLayout": {
    "storage": [
      {
        "astId": 660,
        "contract": "contracts/protocol/core/membership/MembershipDirector.sol:MembershipDirector",
        "label": "_initialized",
        "offset": 0,
        "slot": "0",
        "type": "t_bool"
      },
      {
        "astId": 663,
        "contract": "contracts/protocol/core/membership/MembershipDirector.sol:MembershipDirector",
        "label": "_initializing",
        "offset": 1,
        "slot": "0",
        "type": "t_bool"
      }
    ],
    "types": {
      "t_bool": {
        "encoding": "inplace",
        "label": "bool",
        "numberOfBytes": "1"
      }
    }
  }
}