{
  "abi": [
    {
      "anonymous": false,
      "inputs": [
        {
          "indexed": true,
          "internalType": "address",
          "name": "borrower",
          "type": "address"
        },
        {
          "indexed": true,
          "internalType": "address",
          "name": "creditLine",
          "type": "address"
        }
      ],
      "name": "CreditLineCreated",
      "type": "event"
    },
    {
      "anonymous": false,
      "inputs": [
        {
          "indexed": true,
          "internalType": "address",
          "name": "borrower",
          "type": "address"
        },
        {
          "indexed": true,
          "internalType": "address",
          "name": "creditLine",
          "type": "address"
        },
        {
          "indexed": false,
          "internalType": "uint256",
          "name": "drawdownAmount",
          "type": "uint256"
        }
      ],
      "name": "DrawdownMade",
      "type": "event"
    },
    {
      "anonymous": false,
      "inputs": [
        {
          "indexed": true,
          "internalType": "address",
          "name": "underwriter",
          "type": "address"
        },
        {
          "indexed": false,
          "internalType": "uint256",
          "name": "newLimit",
          "type": "uint256"
        }
      ],
      "name": "GovernanceUpdatedUnderwriterLimit",
      "type": "event"
    },
    {
      "anonymous": false,
      "inputs": [
        {
          "indexed": true,
          "internalType": "address",
          "name": "owner",
          "type": "address"
        },
        {
          "indexed": false,
          "internalType": "string",
          "name": "limitType",
          "type": "string"
        },
        {
          "indexed": false,
          "internalType": "uint256",
          "name": "amount",
          "type": "uint256"
        }
      ],
      "name": "LimitChanged",
      "type": "event"
    },
    {
      "anonymous": false,
      "inputs": [
        {
          "indexed": true,
          "internalType": "address",
          "name": "previousOwner",
          "type": "address"
        },
        {
          "indexed": true,
          "internalType": "address",
          "name": "newOwner",
          "type": "address"
        }
      ],
      "name": "OwnershipTransferred",
      "type": "event"
    },
    {
      "anonymous": false,
      "inputs": [
        {
          "indexed": false,
          "internalType": "address",
          "name": "account",
          "type": "address"
        }
      ],
      "name": "Paused",
      "type": "event"
    },
    {
      "anonymous": false,
      "inputs": [
        {
          "indexed": true,
          "internalType": "address",
          "name": "payer",
          "type": "address"
        },
        {
          "indexed": true,
          "internalType": "address",
          "name": "creditLine",
          "type": "address"
        },
        {
          "indexed": false,
          "internalType": "uint256",
          "name": "interestAmount",
          "type": "uint256"
        },
        {
          "indexed": false,
          "internalType": "uint256",
          "name": "principalAmount",
          "type": "uint256"
        },
        {
          "indexed": false,
          "internalType": "uint256",
          "name": "remainingAmount",
          "type": "uint256"
        }
      ],
      "name": "PaymentMade",
      "type": "event"
    },
    {
      "anonymous": false,
      "inputs": [
        {
          "indexed": true,
          "internalType": "address",
          "name": "oldAddress",
          "type": "address"
        },
        {
          "indexed": true,
          "internalType": "address",
          "name": "newAddress",
          "type": "address"
        }
      ],
      "name": "PoolAddressUpdated",
      "type": "event"
    },
    {
      "anonymous": false,
      "inputs": [
        {
          "indexed": true,
          "internalType": "address",
          "name": "payer",
          "type": "address"
        },
        {
          "indexed": true,
          "internalType": "address",
          "name": "creditLine",
          "type": "address"
        },
        {
          "indexed": false,
          "internalType": "uint256",
          "name": "prepaymentAmount",
          "type": "uint256"
        }
      ],
      "name": "PrepaymentMade",
      "type": "event"
    },
    {
      "anonymous": false,
      "inputs": [
        {
          "indexed": false,
          "internalType": "address",
          "name": "account",
          "type": "address"
        }
      ],
      "name": "Unpaused",
      "type": "event"
    },
    {
      "inputs": [],
      "name": "__OwnerPausable__init",
      "outputs": [],
      "stateMutability": "nonpayable",
      "type": "function"
    },
    {
      "inputs": [
        {
          "internalType": "address payable",
          "name": "creditLineAddress",
          "type": "address"
        },
        {
          "internalType": "uint256",
          "name": "amount",
          "type": "uint256"
        }
      ],
      "name": "addCollateral",
      "outputs": [],
      "stateMutability": "payable",
      "type": "function"
    },
    {
      "inputs": [
        {
          "internalType": "address",
          "name": "creditLineAddress",
          "type": "address"
        }
      ],
      "name": "assessCreditLine",
      "outputs": [],
      "stateMutability": "nonpayable",
      "type": "function"
    },
    {
      "inputs": [],
      "name": "blocksPerDay",
      "outputs": [
        {
          "internalType": "uint256",
          "name": "",
          "type": "uint256"
        }
      ],
      "stateMutability": "view",
      "type": "function"
    },
    {
      "inputs": [
        {
          "internalType": "address",
          "name": "_borrower",
          "type": "address"
        },
        {
          "internalType": "uint256",
          "name": "_limit",
          "type": "uint256"
        },
        {
          "internalType": "uint256",
          "name": "_interestApr",
          "type": "uint256"
        },
        {
          "internalType": "uint256",
          "name": "_minCollateralPercent",
          "type": "uint256"
        },
        {
          "internalType": "uint256",
          "name": "_paymentPeriodInDays",
          "type": "uint256"
        },
        {
          "internalType": "uint256",
          "name": "_termInDays",
          "type": "uint256"
        }
      ],
      "name": "createCreditLine",
      "outputs": [],
      "stateMutability": "nonpayable",
      "type": "function"
    },
    {
      "inputs": [
        {
          "internalType": "uint256",
          "name": "amount",
          "type": "uint256"
        },
        {
          "internalType": "address",
          "name": "creditLineAddress",
          "type": "address"
        }
      ],
      "name": "drawdown",
      "outputs": [],
      "stateMutability": "nonpayable",
      "type": "function"
    },
    {
      "inputs": [
        {
          "internalType": "address",
          "name": "borrowerAddress",
          "type": "address"
        }
      ],
      "name": "getBorrowerCreditLines",
      "outputs": [
        {
          "internalType": "address[]",
          "name": "",
          "type": "address[]"
        }
      ],
      "stateMutability": "view",
      "type": "function"
    },
    {
      "inputs": [
        {
          "internalType": "address",
          "name": "underwriterAddress",
          "type": "address"
        }
      ],
      "name": "getUnderwriterCreditLines",
      "outputs": [
        {
          "internalType": "address[]",
          "name": "",
          "type": "address[]"
        }
      ],
      "stateMutability": "view",
      "type": "function"
    },
    {
      "inputs": [
        {
          "internalType": "address",
          "name": "_poolAddress",
          "type": "address"
        }
      ],
      "name": "initialize",
      "outputs": [],
      "stateMutability": "nonpayable",
      "type": "function"
    },
    {
      "inputs": [],
      "name": "maxUnderwriterLimit",
      "outputs": [
        {
          "internalType": "uint256",
          "name": "",
          "type": "uint256"
        }
      ],
      "stateMutability": "view",
      "type": "function"
    },
    {
      "inputs": [],
      "name": "owner",
      "outputs": [
        {
          "internalType": "address",
          "name": "",
          "type": "address"
        }
      ],
      "stateMutability": "view",
      "type": "function"
    },
    {
      "inputs": [],
      "name": "pause",
      "outputs": [],
      "stateMutability": "nonpayable",
      "type": "function"
    },
    {
      "inputs": [],
      "name": "paused",
      "outputs": [
        {
          "internalType": "bool",
          "name": "",
          "type": "bool"
        }
      ],
      "stateMutability": "view",
      "type": "function"
    },
    {
      "inputs": [
        {
          "internalType": "address",
          "name": "creditLineAddress",
          "type": "address"
        },
        {
          "internalType": "uint256",
          "name": "amount",
          "type": "uint256"
        }
      ],
      "name": "pay",
      "outputs": [],
      "stateMutability": "payable",
      "type": "function"
    },
    {
      "inputs": [],
      "name": "poolAddress",
      "outputs": [
        {
          "internalType": "address",
          "name": "",
          "type": "address"
        }
      ],
      "stateMutability": "view",
      "type": "function"
    },
    {
      "inputs": [
        {
          "internalType": "address payable",
          "name": "creditLineAddress",
          "type": "address"
        },
        {
          "internalType": "uint256",
          "name": "amount",
          "type": "uint256"
        }
      ],
      "name": "prepay",
      "outputs": [],
      "stateMutability": "payable",
      "type": "function"
    },
    {
      "inputs": [],
      "name": "renounceOwnership",
      "outputs": [],
      "stateMutability": "nonpayable",
      "type": "function"
    },
    {
      "inputs": [
        {
          "internalType": "uint256",
          "name": "amount",
          "type": "uint256"
        }
      ],
      "name": "setMaxUnderwriterLimit",
      "outputs": [],
      "stateMutability": "nonpayable",
      "type": "function"
    },
    {
      "inputs": [
        {
          "internalType": "address",
          "name": "newPoolAddress",
          "type": "address"
        }
      ],
      "name": "setPoolAddress",
      "outputs": [
        {
          "internalType": "address",
          "name": "",
          "type": "address"
        }
      ],
      "stateMutability": "nonpayable",
      "type": "function"
    },
    {
      "inputs": [
        {
          "internalType": "uint256",
          "name": "amount",
          "type": "uint256"
        }
      ],
      "name": "setPoolTotalFundsLimit",
      "outputs": [],
      "stateMutability": "nonpayable",
      "type": "function"
    },
    {
      "inputs": [
        {
          "internalType": "uint256",
          "name": "amount",
          "type": "uint256"
        }
      ],
      "name": "setTransactionLimit",
      "outputs": [],
      "stateMutability": "nonpayable",
      "type": "function"
    },
    {
      "inputs": [
        {
          "internalType": "address",
          "name": "underwriterAddress",
          "type": "address"
        },
        {
          "internalType": "uint256",
          "name": "limit",
          "type": "uint256"
        }
      ],
      "name": "setUnderwriterGovernanceLimit",
      "outputs": [],
      "stateMutability": "nonpayable",
      "type": "function"
    },
    {
      "inputs": [],
      "name": "transactionLimit",
      "outputs": [
        {
          "internalType": "uint256",
          "name": "",
          "type": "uint256"
        }
      ],
      "stateMutability": "view",
      "type": "function"
    },
    {
      "inputs": [
        {
          "internalType": "address",
          "name": "newOwner",
          "type": "address"
        }
      ],
      "name": "transferOwnership",
      "outputs": [],
      "stateMutability": "nonpayable",
      "type": "function"
    },
    {
      "inputs": [
        {
          "internalType": "address",
          "name": "",
          "type": "address"
        }
      ],
      "name": "underwriters",
      "outputs": [
        {
          "internalType": "uint256",
          "name": "governanceLimit",
          "type": "uint256"
        }
      ],
      "stateMutability": "view",
      "type": "function"
    },
    {
      "inputs": [],
      "name": "unpause",
      "outputs": [],
      "stateMutability": "nonpayable",
      "type": "function"
    }
  ],
  "address": "0x0AE6C539A1ce2d770D9BC63Ee9C6570331DEdF9a",
  "args": [],
  "solcInputHash": "0x11d99a924620504468e7f0d73d2c7b532c9e3d68c6d8c4192a844319e4d7ab54",
  "bytecode": "0x6080604052600060ca55600060cb5534801561001a57600080fd5b506144b08061002a6000396000f3fe6080604052600436106101815760003560e01c8063844a28c3116100d1578063cef61ebe1161008a578063f19605d611610064578063f19605d614610408578063f2fde38b1461041d578063f3b7d8151461043d578063f5c7e0e21461045057610181565b8063cef61ebe146103b3578063e9e15b4f146103d3578063f0c30cac146103f357610181565b8063844a28c3146103095780638456cb59146103365780638da5cb5b1461034b578063c26ff93614610360578063c407687614610380578063c4d66de81461039357610181565b80635c0808531161013e5780636d75b9ee116101185780636d75b9ee146102ac578063715018a6146102bf5780637216e7c8146102d45780637d533642146102e957610181565b80635c0808531461024a5780635c975abb1461026a57806364bfa5461461028c57610181565b80630e4645ef146101865780631755ff21146101a8578063200d3d49146101d35780633f4ba83a146101f3578063440c41bb146102085780634cfea68a14610228575b600080fd5b34801561019257600080fd5b506101a66101a1366004612df7565b610470565b005b3480156101b457600080fd5b506101bd610559565b6040516101ca9190612f4d565b60405180910390f35b3480156101df57600080fd5b506101a66101ee366004612ecb565b610568565b3480156101ff57600080fd5b506101a6610602565b34801561021457600080fd5b506101a6610223366004612efb565b610641565b34801561023457600080fd5b5061023d610b05565b6040516101ca9190613034565b34801561025657600080fd5b506101a6610265366004612e09565b610b0b565b34801561027657600080fd5b5061027f610cfc565b6040516101ca9190613029565b34801561029857600080fd5b506101a66102a7366004612ecb565b610d05565b6101a66102ba366004612dcc565b610d94565b3480156102cb57600080fd5b506101a6610f09565b3480156102e057600080fd5b5061023d610f88565b3480156102f557600080fd5b5061023d610304366004612d94565b610f8e565b34801561031557600080fd5b50610329610324366004612d94565b610fa0565b6040516101ca9190612fdc565b34801561034257600080fd5b506101a661103d565b34801561035757600080fd5b506101bd61107a565b34801561036c57600080fd5b5061032961037b366004612d94565b611089565b6101a661038e366004612df7565b611121565b34801561039f57600080fd5b506101a66103ae366004612d94565b611503565b3480156103bf57600080fd5b506101a66103ce366004612ecb565b6115a1565b3480156103df57600080fd5b506101bd6103ee366004612d94565b61165a565b3480156103ff57600080fd5b506101a661177f565b34801561041457600080fd5b5061023d611787565b34801561042957600080fd5b506101a6610438366004612d94565b61178d565b6101a661044b366004612dcc565b611844565b34801561045c57600080fd5b506101a661046b366004612d94565b611a29565b610478611ee4565b6065546001600160a01b039081169116146104ae5760405162461bcd60e51b81526004016104a590613353565b60405180910390fd5b60975460ff16156104d15760405162461bcd60e51b81526004016104a590613208565b6001600160a01b038216600090815260cc602052604090206104f282611ee8565b61050e5760405162461bcd60e51b81526004016104a5906133d6565b8181556040516001600160a01b038416907f7be5403eca163f383a39c2d1f65a8fee2c9e41e7e6b150f4abfe16eaaf1d90769061054c908590613034565b60405180910390a2505050565b60c9546001600160a01b031681565b610570611ee4565b6065546001600160a01b0390811691161461059d5760405162461bcd60e51b81526004016104a590613353565b60975460ff16156105c05760405162461bcd60e51b81526004016104a590613208565b60ca81905560405133907fd051fbd9d5bbce3751e47a2ff88ee7dde1a0c474fad43693046c1f6237841dc8906105f7908490613433565b60405180910390a250565b61060a611ee4565b6065546001600160a01b039081169116146106375760405162461bcd60e51b81526004016104a590613353565b61063f611ef0565b565b60975460ff16156106645760405162461bcd60e51b81526004016104a590613208565b6000819050336001600160a01b0316816001600160a01b0316637df1f1b96040518163ffffffff1660e01b815260040160206040518083038186803b1580156106ac57600080fd5b505afa1580156106c0573d6000803e3d6000fd5b505050506040513d601f19601f820116820180604052508101906106e49190612db0565b6001600160a01b03161461070a5760405162461bcd60e51b81526004016104a59061327a565b610712611f5c565b60c95460405163c34e584160e01b81526001600160a01b039283169263c34e584192610745929116908790600401612f85565b60206040518083038186803b15801561075d57600080fd5b505afa158015610771573d6000803e3d6000fd5b505050506040513d601f19601f820116820180604052508101906107959190612e54565b6107b15760405162461bcd60e51b81526004016104a5906132bf565b6107ba83611f6b565b6107d65760405162461bcd60e51b81526004016104a590613232565b6107e08382611f73565b6107fc5760405162461bcd60e51b81526004016104a590613468565b806001600160a01b031663b69ef8a86040518163ffffffff1660e01b815260040160206040518083038186803b15801561083557600080fd5b505afa158015610849573d6000803e3d6000fd5b505050506040513d601f19601f8201168201806040525081019061086d9190612ee3565b61098057806001600160a01b031663fb9eb9906108898361202e565b6040518263ffffffff1660e01b81526004016108a59190613034565b602060405180830381600087803b1580156108bf57600080fd5b505af11580156108d3573d6000803e3d6000fd5b505050506040513d601f19601f820116820180604052508101906108f79190612ee3565b50806001600160a01b0316637957dda3610910836120c3565b6040518263ffffffff1660e01b815260040161092c9190613034565b602060405180830381600087803b15801561094657600080fd5b505af115801561095a573d6000803e3d6000fd5b505050506040513d601f19601f8201168201806040525081019061097e9190612ee3565b505b60008061098d8343612256565b915091506000610a1486856001600160a01b031663b69ef8a86040518163ffffffff1660e01b815260040160206040518083038186803b1580156109d057600080fd5b505afa1580156109e4573d6000803e3d6000fd5b505050506040513d601f19601f82011682018060405250810190610a089190612ee3565b9063ffffffff61236f16565b9050610a228482858561239b565b610a2a611f5c565b60c9546040516323b872dd60e01b81526001600160a01b03928316926323b872dd92610a5f9291169033908b90600401612f61565b602060405180830381600087803b158015610a7957600080fd5b505af1158015610a8d573d6000803e3d6000fd5b505050506040513d601f19601f82011682018060405250810190610ab19190612e54565b50836001600160a01b0316336001600160a01b03167f7ec4669c579321a5cf5a6b525637eb0924a93e2e11eab9d14be8b44de1116b1b88604051610af59190613034565b60405180910390a3505050505050565b61168081565b60975460ff1615610b2e5760405162461bcd60e51b81526004016104a590613208565b33600090815260cc602090815260408083206001600160a01b038a16845260cd909252909120610b5e878361264f565b610b7a5760405162461bcd60e51b81526004016104a590613188565b6000604051610b8890612d66565b604051809103906000f080158015610ba4573d6000803e3d6000fd5b506040516376dfa56160e11b81529091506001600160a01b0382169063edbf4ac290610be0908c9033908d908d908d908d908d90600401612f9e565b600060405180830381600087803b158015610bfa57600080fd5b505af1158015610c0e573d6000803e3d6000fd5b505060c95460405163182cdbe360e11b81526001600160a01b038086169450633059b7c69350610c42921690600401612f4d565b600060405180830381600087803b158015610c5c57600080fd5b505af1158015610c70573d6000803e3d6000fd5b5050506001808501805480830182556000918252602080832090910180546001600160a01b038088166001600160a01b0319928316811790935588549586018955888552928420909401805490941681179093556040519293508c16917fc1d7685016f2246662e70fe17df916e959813e9ab93d50c4f039c0c069c5f3719190a3505050505050505050565b60975460ff1690565b610d0d611ee4565b6065546001600160a01b03908116911614610d3a5760405162461bcd60e51b81526004016104a590613353565b60975460ff1615610d5d5760405162461bcd60e51b81526004016104a590613208565b60cb81905560405133907fd051fbd9d5bbce3751e47a2ff88ee7dde1a0c474fad43693046c1f6237841dc8906105f79084906131d6565b60975460ff1615610db75760405162461bcd60e51b81526004016104a590613208565b81610dc0611f5c565b6001600160a01b03166323b872dd3385856040518463ffffffff1660e01b8152600401610def93929190612f61565b602060405180830381600087803b158015610e0957600080fd5b505af1158015610e1d573d6000803e3d6000fd5b505050506040513d601f19601f82011682018060405250810190610e419190612e54565b506000610e8183836001600160a01b031663c98c05b76040518163ffffffff1660e01b815260040160206040518083038186803b1580156109d057600080fd5b6040516361cfbca160e01b81529091506001600160a01b038316906361cfbca190610eb0908490600401613034565b602060405180830381600087803b158015610eca57600080fd5b505af1158015610ede573d6000803e3d6000fd5b505050506040513d601f19601f82011682018060405250810190610f029190612ee3565b5050505050565b610f11611ee4565b6065546001600160a01b03908116911614610f3e5760405162461bcd60e51b81526004016104a590613353565b6065546040516000916001600160a01b0316907f8be0079c531659141344cd1fd0a4f28419497f9722a3daafe3b4186f6b6457e0908390a3606580546001600160a01b0319169055565b60ca5481565b60cc6020526000908152604090205481565b60975460609060ff1615610fc65760405162461bcd60e51b81526004016104a590613208565b6001600160a01b038216600090815260cc60209081526040918290206001018054835181840281018401909452808452909183018282801561103157602002820191906000526020600020905b81546001600160a01b03168152600190910190602001808311611013575b50505050509050919050565b611045611ee4565b6065546001600160a01b039081169116146110725760405162461bcd60e51b81526004016104a590613353565b61063f61267d565b6065546001600160a01b031690565b60975460609060ff16156110af5760405162461bcd60e51b81526004016104a590613208565b6001600160a01b038216600090815260cd602090815260409182902080548351818402810184019094528084529091830182828015611031576020028201919060005260206000209081546001600160a01b031681526001909101906020018083116110135750505050509050919050565b60975460ff16156111445760405162461bcd60e51b81526004016104a590613208565b8161114e82611f6b565b61116a5760405162461bcd60e51b81526004016104a590613232565b611172611f5c565b6001600160a01b031663c34e584133846040518363ffffffff1660e01b815260040161119f929190612f85565b60206040518083038186803b1580156111b757600080fd5b505afa1580156111cb573d6000803e3d6000fd5b505050506040513d601f19601f820116820180604052508101906111ef9190612e54565b61120b5760405162461bcd60e51b81526004016104a590613104565b600080600061121d84864360016126d6565b91945092509050821561137057611232611f5c565b6001600160a01b03166323b872dd3388866040518463ffffffff1660e01b815260040161126193929190612f61565b602060405180830381600087803b15801561127b57600080fd5b505af115801561128f573d6000803e3d6000fd5b505050506040513d601f19601f820116820180604052508101906112b39190612e54565b50836001600160a01b03166361cfbca161130085876001600160a01b031663c98c05b76040518163ffffffff1660e01b815260040160206040518083038186803b1580156109d057600080fd5b6040518263ffffffff1660e01b815260040161131c9190613034565b602060405180830381600087803b15801561133657600080fd5b505af115801561134a573d6000803e3d6000fd5b505050506040513d601f19601f8201168201806040525081019061136e9190612ee3565b505b81156113de5761137e611f5c565b6001600160a01b03166364de8a0733846040518363ffffffff1660e01b81526004016113ab929190612f85565b600060405180830381600087803b1580156113c557600080fd5b505af11580156113d9573d6000803e3d6000fd5b505050505b801561144c576113ec611f5c565b6001600160a01b031663bcfa41ba33836040518363ffffffff1660e01b8152600401611419929190612f85565b600060405180830381600087803b15801561143357600080fd5b505af1158015611447573d6000803e3d6000fd5b505050505b836001600160a01b0316846001600160a01b0316637df1f1b96040518163ffffffff1660e01b815260040160206040518083038186803b15801561148f57600080fd5b505afa1580156114a3573d6000803e3d6000fd5b505050506040513d601f19601f820116820180604052508101906114c79190612db0565b6001600160a01b03167f73bc067f8d6bb15a01636f9b76c6daa98472621717a0788af90498d8bfe69eb0848487604051610af5939291906134c6565b600054610100900460ff168061151c575061151c61296a565b8061152a575060005460ff16155b6115465760405162461bcd60e51b81526004016104a590613388565b600054610100900460ff16158015611571576000805460ff1961ff0019909116610100171660011790555b611579612970565b61158161177f565b61158a8261165a565b50801561159d576000805461ff00191690555b5050565b6115a9611ee4565b6065546001600160a01b039081169116146115d65760405162461bcd60e51b81526004016104a590613353565b60975460ff16156115f95760405162461bcd60e51b81526004016104a590613208565b611601611f5c565b6001600160a01b0316636148d26f826040518263ffffffff1660e01b815260040161162c9190613034565b600060405180830381600087803b15801561164657600080fd5b505af1158015610f02573d6000803e3d6000fd5b6000611664611ee4565b6065546001600160a01b039081169116146116915760405162461bcd60e51b81526004016104a590613353565b60975460ff16156116b45760405162461bcd60e51b81526004016104a590613208565b816001600160a01b0316633a98ef396040518163ffffffff1660e01b815260040160206040518083038186803b1580156116ed57600080fd5b505afa158015611701573d6000803e3d6000fd5b505050506040513d601f19601f820116820180604052508101906117259190612ee3565b5060c9546040516001600160a01b038085169216907fbc265b118422e9d29f4173594a64a9c2ac4d07373e209a941f4bc8c83c38321b90600090a35060c980546001600160a01b0319166001600160a01b03831617905590565b61063f612a02565b60cb5481565b611795611ee4565b6065546001600160a01b039081169116146117c25760405162461bcd60e51b81526004016104a590613353565b6001600160a01b0381166117e85760405162461bcd60e51b81526004016104a5906130be565b6065546040516001600160a01b038084169216907f8be0079c531659141344cd1fd0a4f28419497f9722a3daafe3b4186f6b6457e090600090a3606580546001600160a01b0319166001600160a01b0392909216919091179055565b60975460ff16156118675760405162461bcd60e51b81526004016104a590613208565b8161187182611f6b565b61188d5760405162461bcd60e51b81526004016104a590613232565b611895611f5c565b6001600160a01b03166323b872dd3385856040518463ffffffff1660e01b81526004016118c493929190612f61565b602060405180830381600087803b1580156118de57600080fd5b505af11580156118f2573d6000803e3d6000fd5b505050506040513d601f19601f820116820180604052508101906119169190612e54565b50600061195683836001600160a01b031663ca3152e56040518163ffffffff1660e01b815260040160206040518083038186803b1580156109d057600080fd5b6040516320f8d09360e11b81529091506001600160a01b038316906341f1a12690611985908490600401613034565b602060405180830381600087803b15801561199f57600080fd5b505af11580156119b3573d6000803e3d6000fd5b505050506040513d601f19601f820116820180604052508101906119d79190612ee3565b50816001600160a01b0316336001600160a01b03167f83846cba5d937a7cd93b3dbb931c1cd260ce7a8ba928f072848719da0666e74185604051611a1b9190613034565b60405180910390a350505050565b60975460ff1615611a4c5760405162461bcd60e51b81526004016104a590613208565b6000819050806001600160a01b031663500b245e6040518163ffffffff1660e01b815260040160206040518083038186803b158015611a8a57600080fd5b505afa158015611a9e573d6000803e3d6000fd5b505050506040513d601f19601f82011682018060405250810190611ac29190612ee3565b431015611acf5750611ee1565b6000806000611bc184856001600160a01b031663ca3152e56040518163ffffffff1660e01b815260040160206040518083038186803b158015611b1157600080fd5b505afa158015611b25573d6000803e3d6000fd5b505050506040513d601f19601f82011682018060405250810190611b499190612ee3565b866001600160a01b031663500b245e6040518163ffffffff1660e01b815260040160206040518083038186803b158015611b8257600080fd5b505afa158015611b96573d6000803e3d6000fd5b505050506040513d601f19601f82011682018060405250810190611bba9190612ee3565b60006126d6565b925092509250836001600160a01b03166341f1a126846040518263ffffffff1660e01b8152600401611bf39190613034565b602060405180830381600087803b158015611c0d57600080fd5b505af1158015611c21573d6000803e3d6000fd5b505050506040513d601f19601f82011682018060405250810190611c459190612ee3565b50611c4e611f5c565b6001600160a01b03166364de8a0733846040518363ffffffff1660e01b8152600401611c7b929190612f85565b600060405180830381600087803b158015611c9557600080fd5b505af1158015611ca9573d6000803e3d6000fd5b50505050611cb5611f5c565b6001600160a01b031663bcfa41ba33836040518363ffffffff1660e01b8152600401611ce2929190612f85565b600060405180830381600087803b158015611cfc57600080fd5b505af1158015611d10573d6000803e3d6000fd5b50505050836001600160a01b0316637957dda3611d2c866120c3565b6040518263ffffffff1660e01b8152600401611d489190613034565b602060405180830381600087803b158015611d6257600080fd5b505af1158015611d76573d6000803e3d6000fd5b505050506040513d601f19601f82011682018060405250810190611d9a9190612ee3565b506000846001600160a01b031663193501146040518163ffffffff1660e01b815260040160206040518083038186803b158015611dd657600080fd5b505afa158015611dea573d6000803e3d6000fd5b505050506040513d601f19601f82011682018060405250810190611e0e9190612ee3565b1115611e1d57611e1d84611ee1565b836001600160a01b0316846001600160a01b0316637df1f1b96040518163ffffffff1660e01b815260040160206040518083038186803b158015611e6057600080fd5b505afa158015611e74573d6000803e3d6000fd5b505050506040513d601f19601f82011682018060405250810190611e989190612db0565b6001600160a01b03167f73bc067f8d6bb15a01636f9b76c6daa98472621717a0788af90498d8bfe69eb0848487604051611ed4939291906134c6565b60405180910390a3505050505b50565b3390565b60ca54101590565b60975460ff16611f125760405162461bcd60e51b81526004016104a590613090565b6097805460ff191690557f5db9ee0a495bf2e6ff9c91a7834c1ba4fdd244a5e8aa4e537bd38aeae4b073aa611f45611ee4565b604051611f529190612f4d565b60405180910390a1565b60c9546001600160a01b031690565b60cb54101590565b6000816001600160a01b031663a4d66daf6040518163ffffffff1660e01b815260040160206040518083038186803b158015611fae57600080fd5b505afa158015611fc2573d6000803e3d6000fd5b505050506040513d601f19601f82011682018060405250810190611fe69190612ee3565b61202384846001600160a01b031663b69ef8a86040518163ffffffff1660e01b815260040160206040518083038186803b1580156109d057600080fd5b111590505b92915050565b60006120286120b6836001600160a01b03166348e6f2966040518163ffffffff1660e01b815260040160206040518083038186803b15801561206f57600080fd5b505afa158015612083573d6000803e3d6000fd5b505050506040513d601f19601f820116820180604052508101906120a79190612ee3565b6116809063ffffffff612a8e16565b439063ffffffff61236f16565b600080612149611680846001600160a01b03166399dd8df36040518163ffffffff1660e01b815260040160206040518083038186803b15801561210557600080fd5b505afa158015612119573d6000803e3d6000fd5b505050506040513d601f19601f8201168201806040525081019061213d9190612ee3565b9063ffffffff612a8e16565b90506000836001600160a01b031663500b245e6040518163ffffffff1660e01b815260040160206040518083038186803b15801561218657600080fd5b505afa15801561219a573d6000803e3d6000fd5b505050506040513d601f19601f820116820180604052508101906121be9190612ee3565b1561223b57836001600160a01b031663500b245e6040518163ffffffff1660e01b815260040160206040518083038186803b1580156121fc57600080fd5b505afa158015612210573d6000803e3d6000fd5b505050506040513d601f19601f820116820180604052508101906122349190612ee3565b905061223e565b50435b61224e818363ffffffff61236f16565b949350505050565b60008060008073__$a2cc30817a35d2af16162c36988ade30ce$__634678497187876040518363ffffffff1660e01b8152600401612295929190612f85565b604080518083038186803b1580156122ac57600080fd5b505af41580156122c0573d6000803e3d6000fd5b505050506040513d601f19601f820116820180604052508101906122e49190612f2a565b9150915061232582876001600160a01b03166321856b366040518163ffffffff1660e01b815260040160206040518083038186803b1580156109d057600080fd5b61236282886001600160a01b031663193501146040518163ffffffff1660e01b815260040160206040518083038186803b1580156109d057600080fd5b9350935050509250929050565b6000828201838110156123945760405162461bcd60e51b81526004016104a590613151565b9392505050565b604051637d8b34e560e11b81526001600160a01b0385169063fb1669ca906123c7908690600401613034565b602060405180830381600087803b1580156123e157600080fd5b505af11580156123f5573d6000803e3d6000fd5b505050506040513d601f19601f820116820180604052508101906124199190612ee3565b506040516396c8df3760e01b81526001600160a01b038516906396c8df3790612446908590600401613034565b602060405180830381600087803b15801561246057600080fd5b505af1158015612474573d6000803e3d6000fd5b505050506040513d601f19601f820116820180604052508101906124989190612ee3565b5060405163b3b8a9c760e01b81526001600160a01b0385169063b3b8a9c7906124c5908490600401613034565b602060405180830381600087803b1580156124df57600080fd5b505af11580156124f3573d6000803e3d6000fd5b505050506040513d601f19601f820116820180604052508101906125179190612ee3565b506040516327e7b26360e01b81526001600160a01b038516906327e7b26390612544904390600401613034565b602060405180830381600087803b15801561255e57600080fd5b505af1158015612572573d6000803e3d6000fd5b505050506040513d601f19601f820116820180604052508101906125969190612ee3565b508261264957604051630fb9eb9960e41b81526001600160a01b0385169063fb9eb990906125c990600090600401613034565b602060405180830381600087803b1580156125e357600080fd5b505af11580156125f7573d6000803e3d6000fd5b505050506040513d601f19601f8201168201806040525081019061261b9190612ee3565b50604051637957dda360e01b81526001600160a01b03851690637957dda390610eb090600090600401613034565b50505050565b60008061265b83612ac8565b9050600061266f828663ffffffff61236f16565b845410159250505092915050565b60975460ff16156126a05760405162461bcd60e51b81526004016104a590613208565b6097805460ff191660011790557f62e78cea01bee320cd4e420270b5ea74000d11b0c9f74754ebdbfc544b05a258611f45611ee4565b60008060008060006126e88988612256565b915091506126f4612d73565b73__$a2cc30817a35d2af16162c36988ade30ce$__63d7cc2a038a8c6001600160a01b031663b69ef8a86040518163ffffffff1660e01b815260040160206040518083038186803b15801561274857600080fd5b505afa15801561275c573d6000803e3d6000fd5b505050506040513d601f19601f820116820180604052508101906127809190612ee3565b86866040518563ffffffff1660e01b81526004016127a194939291906134dc565b60606040518083038186803b1580156127b957600080fd5b505af41580156127cd573d6000803e3d6000fd5b505050506040513d601f19601f820116820180604052508101906127f19190612e74565b9050600061287a82602001518c6001600160a01b031663b69ef8a86040518163ffffffff1660e01b815260040160206040518083038186803b15801561283657600080fd5b505afa15801561284a573d6000803e3d6000fd5b505050506040513d601f19601f8201168201806040525081019061286e9190612ee3565b9063ffffffff612b9d16565b9050871561289b57604082015161289890829063ffffffff612b9d16565b90505b60006128da828d6001600160a01b031663b69ef8a86040518163ffffffff1660e01b815260040160206040518083038186803b15801561283657600080fd5b905060006128f98261286e86600001518f612b9d90919063ffffffff16565b90506129328d8461291787600001518a612b9d90919063ffffffff16565b602088015161292d908a9063ffffffff612b9d16565b61239b565b8b61294e83610a0887600001518561236f90919063ffffffff16565b1461295557fe5b9251929c929b50995090975050505050505050565b303b1590565b600054610100900460ff1680612989575061298961296a565b80612997575060005460ff16155b6129b35760405162461bcd60e51b81526004016104a590613388565b600054610100900460ff161580156129de576000805460ff1961ff0019909116610100171660011790555b6129e6612bdf565b6129ee612c60565b8015611ee1576000805461ff001916905550565b600054610100900460ff1680612a1b5750612a1b61296a565b80612a29575060005460ff16155b612a455760405162461bcd60e51b81526004016104a590613388565b600054610100900460ff16158015612a70576000805460ff1961ff0019909116610100171660011790555b6097805460ff191690558015611ee1576000805461ff001916905550565b600082612a9d57506000612028565b82820282848281612aaa57fe5b04146123945760405162461bcd60e51b81526004016104a590613312565b600080805b6001840154811015612b96576000846001018281548110612aea57fe5b9060005260206000200160009054906101000a90046001600160a01b03169050612b8b816001600160a01b031663a4d66daf6040518163ffffffff1660e01b815260040160206040518083038186803b158015612b4657600080fd5b505afa158015612b5a573d6000803e3d6000fd5b505050506040513d601f19601f82011682018060405250810190612b7e9190612ee3565b849063ffffffff61236f16565b925050600101612acd565b5092915050565b600061239483836040518060400160405280601e81526020017f536166654d6174683a207375627472616374696f6e206f766572666c6f770000815250612d3a565b600054610100900460ff1680612bf85750612bf861296a565b80612c06575060005460ff16155b612c225760405162461bcd60e51b81526004016104a590613388565b600054610100900460ff161580156129ee576000805460ff1961ff0019909116610100171660011790558015611ee1576000805461ff001916905550565b600054610100900460ff1680612c795750612c7961296a565b80612c87575060005460ff16155b612ca35760405162461bcd60e51b81526004016104a590613388565b600054610100900460ff16158015612cce576000805460ff1961ff0019909116610100171660011790555b6000612cd8611ee4565b606580546001600160a01b0319166001600160a01b038316908117909155604051919250906000907f8be0079c531659141344cd1fd0a4f28419497f9722a3daafe3b4186f6b6457e0908290a3508015611ee1576000805461ff001916905550565b60008184841115612d5e5760405162461bcd60e51b81526004016104a5919061303d565b505050900390565b610f6e8061350d83390190565b60405180606001604052806000815260200160008152602001600081525090565b600060208284031215612da5578081fd5b8135612394816134f7565b600060208284031215612dc1578081fd5b8151612394816134f7565b60008060408385031215612dde578081fd5b8235612de9816134f7565b946020939093013593505050565b60008060408385031215612dde578182fd5b60008060008060008060c08789031215612e21578182fd5b8635612e2c816134f7565b9860208801359850604088013597606081013597506080810135965060a00135945092505050565b600060208284031215612e65578081fd5b81518015158114612394578182fd5b600060608284031215612e85578081fd5b6040516060810181811067ffffffffffffffff82111715612ea4578283fd5b80604052508251815260208301516020820152604083015160408201528091505092915050565b600060208284031215612edc578081fd5b5035919050565b600060208284031215612ef4578081fd5b5051919050565b60008060408385031215612f0d578182fd5b823591506020830135612f1f816134f7565b809150509250929050565b60008060408385031215612f3c578182fd5b505080516020909101519092909150565b6001600160a01b0391909116815260200190565b6001600160a01b039384168152919092166020820152604081019190915260600190565b6001600160a01b03929092168252602082015260400190565b6001600160a01b03978816815295909616602086015260408501939093526060840191909152608083015260a082015260c081019190915260e00190565b6020808252825182820181905260009190848201906040850190845b8181101561301d5783516001600160a01b031683529284019291840191600101612ff8565b50909695505050505050565b901515815260200190565b90815260200190565b6000602080835283518082850152825b818110156130695785810183015185820160400152820161304d565b8181111561307a5783604083870101525b50601f01601f1916929092016040019392505050565b60208082526014908201527314185d5cd8589b194e881b9bdd081c185d5cd95960621b604082015260600190565b60208082526026908201527f4f776e61626c653a206e6577206f776e657220697320746865207a65726f206160408201526564647265737360d01b606082015260800190565b6020808252602d908201527f596f75206861766520696e737566666963656e742062616c616e636520666f7260408201526c081d1a1a5cc81c185e5b595b9d609a1b606082015260800190565b6020808252601b908201527f536166654d6174683a206164646974696f6e206f766572666c6f770000000000604082015260600190565b6020808252602e908201527f54686520756e6465727772697465722063616e6e6f742063726561746520746860408201526d697320637265646974206c696e6560901b606082015260800190565b60408082526010908201526f1d1c985b9cd858dd1a5bdb931a5b5a5d60821b6060820152602081019190915260800190565b60208082526010908201526f14185d5cd8589b194e881c185d5cd95960821b604082015260600190565b60208082526028908201527f416d6f756e74206973206f76657220746865207065722d7472616e73616374696040820152671bdb881b1a5b5a5d60c21b606082015260800190565b60208082526025908201527f596f7520646f206e6f742062656c6f6e6720746f207468697320637265646974604082015264206c696e6560d81b606082015260800190565b60208082526033908201527f506f6f6c20646f6573206e6f74206861766520656e6f7567682062616c616e6360408201527232903337b9103a3434b990323930bbb237bbb760691b606082015260800190565b60208082526021908201527f536166654d6174683a206d756c7469706c69636174696f6e206f766572666c6f6040820152607760f81b606082015260800190565b6020808252818101527f4f776e61626c653a2063616c6c6572206973206e6f7420746865206f776e6572604082015260600190565b6020808252602e908201527f436f6e747261637420696e7374616e63652068617320616c726561647920626560408201526d195b881a5b9a5d1a585b1a5e995960921b606082015260800190565b6020808252603a908201527f54686973206c696d69742069732067726561746572207468616e20746865206d60408201527f617820616c6c6f776564206279207468652070726f746f636f6c000000000000606082015260800190565b6040808252601390820152721b585e155b99195c9ddc9a5d195c931a5b5a5d606a1b6060820152602081019190915260800190565b602080825260409082018190527f54686520626f72726f77657220646f6573206e6f74206861766520656e6f7567908201527f6820637265646974206c696d697420666f7220746869732064726177646f776e606082015260800190565b9283526020830191909152604082015260600190565b93845260208401929092526040830152606082015260800190565b6001600160a01b0381168114611ee157600080fdfe608060405234801561001057600080fd5b50610f4e806100206000396000f3fe608060405234801561001057600080fd5b50600436106101da5760003560e01c806396c8df3711610104578063ca3152e5116100a2578063f2fde38b11610071578063f2fde38b146103d6578063f90ce5ba146103fc578063fb1669ca14610404578063fb9eb99014610421576101da565b8063ca3152e514610370578063d8dfeb4514610378578063edbf4ac214610380578063f00db260146103ce576101da565b8063b3969992116100de578063b39699921461033b578063b3b8a9c714610343578063b69ef8a814610360578063c98c05b714610368576101da565b806396c8df371461030e57806399dd8df31461032b578063a4d66daf14610333576101da565b806341f1a1261161017c578063715018a61161014b578063715018a6146102bd5780637957dda3146102c55780637df1f1b9146102e25780638da5cb5b14610306576101da565b806341f1a1261461027357806348e6f29614610290578063500b245e1461029857806361cfbca1146102a0576101da565b806321856b36116101b857806321856b361461020957806327e7b2631461021157806327ea6f2b1461022e5780633059b7c61461024b576101da565b80630d49481d146101df5780631790ebd5146101f95780631935011414610201575b600080fd5b6101e761043e565b60408051918252519081900360200190f35b6101e7610444565b6101e761044a565b6101e7610450565b6101e76004803603602081101561022757600080fd5b5035610456565b6101e76004803603602081101561024457600080fd5b50356104b9565b6102716004803603602081101561026157600080fd5b50356001600160a01b0316610530565b005b6101e76004803603602081101561028957600080fd5b5035610676565b6101e76106d9565b6101e76106df565b6101e7600480360360208110156102b657600080fd5b50356106e5565b610271610748565b6101e7600480360360208110156102db57600080fd5b50356107ea565b6102ea61084d565b604080516001600160a01b039092168252519081900360200190f35b6102ea61085c565b6101e76004803603602081101561032457600080fd5b503561086b565b6101e76108ce565b6101e76108d4565b6101e76108da565b6101e76004803603602081101561035957600080fd5b50356108e0565b6101e7610943565b6101e7610949565b6101e761094f565b6101e7610955565b610271600480360360e081101561039657600080fd5b506001600160a01b03813581169160208101359091169060408101359060608101359060808101359060a08101359060c0013561095b565b6102ea610a59565b610271600480360360208110156103ec57600080fd5b50356001600160a01b0316610a68565b6101e7610b61565b6101e76004803603602081101561041a57600080fd5b5035610b67565b6101e76004803603602081101561043757600080fd5b5035610bca565b609c5481565b60a45481565b60a15481565b60a05481565b6000610460610c2d565b6065546001600160a01b039081169116146104b0576040805162461bcd60e51b81526020600482018190526024820152600080516020610ea9833981519152604482015290519081900360640190fd5b5060a681905590565b60006104c361085c565b6001600160a01b0316336001600160a01b031614806104ec57506098546001600160a01b031633145b6105275760405162461bcd60e51b8152600401808060200182810382526022815260200180610ef76022913960400191505060405180910390fd5b50609a81905590565b610538610c2d565b6065546001600160a01b03908116911614610588576040805162461bcd60e51b81526020600482018190526024820152600080516020610ea9833981519152604482015290519081900360640190fd5b6000816001600160a01b0316636a83b7e96040518163ffffffff1660e01b815260040160206040518083038186803b1580156105c357600080fd5b505afa1580156105d7573d6000803e3d6000fd5b505050506040513d60208110156105ed57600080fd5b50516040805163095ea7b360e01b81526001600160a01b038581166004830152600019602483015291519293509083169163095ea7b3916044808201926020929091908290030181600087803b15801561064657600080fd5b505af115801561065a573d6000803e3d6000fd5b505050506040513d602081101561067057600080fd5b50505050565b6000610680610c2d565b6065546001600160a01b039081169116146106d0576040805162461bcd60e51b81526020600482018190526024820152600080516020610ea9833981519152604482015290519081900360640190fd5b5060a281905590565b609e5481565b60a55481565b60006106ef610c2d565b6065546001600160a01b0390811691161461073f576040805162461bcd60e51b81526020600482018190526024820152600080516020610ea9833981519152604482015290519081900360640190fd5b5060a381905590565b610750610c2d565b6065546001600160a01b039081169116146107a0576040805162461bcd60e51b81526020600482018190526024820152600080516020610ea9833981519152604482015290519081900360640190fd5b6065546040516000916001600160a01b0316907f8be0079c531659141344cd1fd0a4f28419497f9722a3daafe3b4186f6b6457e0908390a3606580546001600160a01b0319169055565b60006107f4610c2d565b6065546001600160a01b03908116911614610844576040805162461bcd60e51b81526020600482018190526024820152600080516020610ea9833981519152604482015290519081900360640190fd5b5060a581905590565b6097546001600160a01b031681565b6065546001600160a01b031690565b6000610875610c2d565b6065546001600160a01b039081169116146108c5576040805162461bcd60e51b81526020600482018190526024820152600080516020610ea9833981519152604482015290519081900360640190fd5b5060a081905590565b609d5481565b609a5481565b609b5481565b60006108ea610c2d565b6065546001600160a01b0390811691161461093a576040805162461bcd60e51b81526020600482018190526024820152600080516020610ea9833981519152604482015290519081900360640190fd5b5060a181905590565b609f5481565b60a35481565b60a25481565b60995481565b600054610100900460ff16806109745750610974610c31565b80610982575060005460ff16155b6109bd5760405162461bcd60e51b815260040180806020018281038252602e815260200180610ec9602e913960400191505060405180910390fd5b600054610100900460ff161580156109e8576000805460ff1961ff0019909116610100171660011790555b6109f0610c37565b609780546001600160a01b03808b166001600160a01b03199283161790925560988054928a1692909116919091179055609a869055609b859055609c849055609d839055609e8290554360a6558015610a4f576000805461ff00191690555b5050505050505050565b6098546001600160a01b031681565b610a70610c2d565b6065546001600160a01b03908116911614610ac0576040805162461bcd60e51b81526020600482018190526024820152600080516020610ea9833981519152604482015290519081900360640190fd5b6001600160a01b038116610b055760405162461bcd60e51b8152600401808060200182810382526026815260200180610e836026913960400191505060405180910390fd5b6065546040516001600160a01b038084169216907f8be0079c531659141344cd1fd0a4f28419497f9722a3daafe3b4186f6b6457e090600090a3606580546001600160a01b0319166001600160a01b0392909216919091179055565b60a65481565b6000610b71610c2d565b6065546001600160a01b03908116911614610bc1576040805162461bcd60e51b81526020600482018190526024820152600080516020610ea9833981519152604482015290519081900360640190fd5b50609f81905590565b6000610bd4610c2d565b6065546001600160a01b03908116911614610c24576040805162461bcd60e51b81526020600482018190526024820152600080516020610ea9833981519152604482015290519081900360640190fd5b5060a481905590565b3390565b303b1590565b600054610100900460ff1680610c505750610c50610c31565b80610c5e575060005460ff16155b610c995760405162461bcd60e51b815260040180806020018281038252602e815260200180610ec9602e913960400191505060405180910390fd5b600054610100900460ff16158015610cc4576000805460ff1961ff0019909116610100171660011790555b610ccc610ce9565b610cd4610d89565b8015610ce6576000805461ff00191690555b50565b600054610100900460ff1680610d025750610d02610c31565b80610d10575060005460ff16155b610d4b5760405162461bcd60e51b815260040180806020018281038252602e815260200180610ec9602e913960400191505060405180910390fd5b600054610100900460ff16158015610cd4576000805460ff1961ff0019909116610100171660011790558015610ce6576000805461ff001916905550565b600054610100900460ff1680610da25750610da2610c31565b80610db0575060005460ff16155b610deb5760405162461bcd60e51b815260040180806020018281038252602e815260200180610ec9602e913960400191505060405180910390fd5b600054610100900460ff16158015610e16576000805460ff1961ff0019909116610100171660011790555b6000610e20610c2d565b606580546001600160a01b0319166001600160a01b038316908117909155604051919250906000907f8be0079c531659141344cd1fd0a4f28419497f9722a3daafe3b4186f6b6457e0908290a3508015610ce6576000805461ff00191690555056fe4f776e61626c653a206e6577206f776e657220697320746865207a65726f20616464726573734f776e61626c653a2063616c6c6572206973206e6f7420746865206f776e6572436f6e747261637420696e7374616e63652068617320616c7265616479206265656e20696e697469616c697a65645265737472696374656420746f206f776e6572206f7220756e646572777269746572a26469706673582212201bbb00c0cf24d22536869cc2da2c9fa399e4da9e7b2e0bf38f21a36f9c56b95b64736f6c63430006080033a264697066735822122019b127d2459bb6704d060df416345f71e6e42746b8fa0945ce02972c2f3ec83664736f6c63430006080033",
  "libraries": {
    "Accountant": "0xfE1D0b29B39f65A4AdBEE209B5DDfb95201837eF"
  },
  "history": [
    {
      "abi": [
        {
          "anonymous": false,
          "inputs": [
            {
              "indexed": true,
              "internalType": "address",
              "name": "borrower",
              "type": "address"
            },
            {
              "indexed": true,
              "internalType": "address",
              "name": "creditLine",
              "type": "address"
            }
          ],
          "name": "CreditLineCreated",
          "type": "event"
        },
        {
          "anonymous": false,
          "inputs": [
            {
              "indexed": true,
              "internalType": "address",
              "name": "borrower",
              "type": "address"
            },
            {
              "indexed": true,
              "internalType": "address",
              "name": "creditLine",
              "type": "address"
            },
            {
              "indexed": false,
              "internalType": "uint256",
              "name": "drawdownAmount",
              "type": "uint256"
            }
          ],
          "name": "DrawdownMade",
          "type": "event"
        },
        {
          "anonymous": false,
          "inputs": [
            {
              "indexed": true,
              "internalType": "address",
              "name": "underwriter",
              "type": "address"
            },
            {
              "indexed": false,
              "internalType": "uint256",
              "name": "newLimit",
              "type": "uint256"
            }
          ],
          "name": "GovernanceUpdatedUnderwriterLimit",
          "type": "event"
        },
        {
          "anonymous": false,
          "inputs": [
            {
              "indexed": true,
              "internalType": "address",
              "name": "owner",
              "type": "address"
            },
            {
              "indexed": false,
              "internalType": "string",
              "name": "limitType",
              "type": "string"
            },
            {
              "indexed": false,
              "internalType": "uint256",
              "name": "amount",
              "type": "uint256"
            }
          ],
          "name": "LimitChanged",
          "type": "event"
        },
        {
          "anonymous": false,
          "inputs": [
            {
              "indexed": true,
              "internalType": "address",
              "name": "previousOwner",
              "type": "address"
            },
            {
              "indexed": true,
              "internalType": "address",
              "name": "newOwner",
              "type": "address"
            }
          ],
          "name": "OwnershipTransferred",
          "type": "event"
        },
        {
          "anonymous": false,
          "inputs": [
            {
              "indexed": false,
              "internalType": "address",
              "name": "account",
              "type": "address"
            }
          ],
          "name": "Paused",
          "type": "event"
        },
        {
          "anonymous": false,
          "inputs": [
            {
              "indexed": true,
              "internalType": "address",
              "name": "payer",
              "type": "address"
            },
            {
              "indexed": true,
              "internalType": "address",
              "name": "creditLine",
              "type": "address"
            },
            {
              "indexed": false,
              "internalType": "uint256",
              "name": "interestAmount",
              "type": "uint256"
            },
            {
              "indexed": false,
              "internalType": "uint256",
              "name": "principalAmount",
              "type": "uint256"
            },
            {
              "indexed": false,
              "internalType": "uint256",
              "name": "remainingAmount",
              "type": "uint256"
            }
          ],
          "name": "PaymentMade",
          "type": "event"
        },
        {
          "anonymous": false,
          "inputs": [
            {
              "indexed": true,
              "internalType": "address",
              "name": "oldAddress",
              "type": "address"
            },
            {
              "indexed": true,
              "internalType": "address",
              "name": "newAddress",
              "type": "address"
            }
          ],
          "name": "PoolAddressUpdated",
          "type": "event"
        },
        {
          "anonymous": false,
          "inputs": [
            {
              "indexed": true,
              "internalType": "address",
              "name": "payer",
              "type": "address"
            },
            {
              "indexed": true,
              "internalType": "address",
              "name": "creditLine",
              "type": "address"
            },
            {
              "indexed": false,
              "internalType": "uint256",
              "name": "prepaymentAmount",
              "type": "uint256"
            }
          ],
          "name": "PrepaymentMade",
          "type": "event"
        },
        {
          "anonymous": false,
          "inputs": [
            {
              "indexed": false,
              "internalType": "address",
              "name": "account",
              "type": "address"
            }
          ],
          "name": "Unpaused",
          "type": "event"
        },
        {
          "inputs": [],
          "name": "__OwnerPausable__init",
          "outputs": [],
          "stateMutability": "nonpayable",
          "type": "function"
        },
        {
          "inputs": [
            {
              "internalType": "address payable",
              "name": "creditLineAddress",
              "type": "address"
            },
            {
              "internalType": "uint256",
              "name": "amount",
              "type": "uint256"
            }
          ],
          "name": "addCollateral",
          "outputs": [],
          "stateMutability": "payable",
          "type": "function"
        },
        {
          "inputs": [
            {
              "internalType": "address",
              "name": "creditLineAddress",
              "type": "address"
            }
          ],
          "name": "assessCreditLine",
          "outputs": [],
          "stateMutability": "nonpayable",
          "type": "function"
        },
        {
          "inputs": [],
          "name": "blocksPerDay",
          "outputs": [
            {
              "internalType": "uint256",
              "name": "",
              "type": "uint256"
            }
          ],
          "stateMutability": "view",
          "type": "function"
        },
        {
          "inputs": [
            {
              "internalType": "address",
              "name": "_borrower",
              "type": "address"
            },
            {
              "internalType": "uint256",
              "name": "_limit",
              "type": "uint256"
            },
            {
              "internalType": "uint256",
              "name": "_interestApr",
              "type": "uint256"
            },
            {
              "internalType": "uint256",
              "name": "_minCollateralPercent",
              "type": "uint256"
            },
            {
              "internalType": "uint256",
              "name": "_paymentPeriodInDays",
              "type": "uint256"
            },
            {
              "internalType": "uint256",
              "name": "_termInDays",
              "type": "uint256"
            }
          ],
          "name": "createCreditLine",
          "outputs": [],
          "stateMutability": "nonpayable",
          "type": "function"
        },
        {
          "inputs": [
            {
              "internalType": "uint256",
              "name": "amount",
              "type": "uint256"
            },
            {
              "internalType": "address",
              "name": "creditLineAddress",
              "type": "address"
            }
          ],
          "name": "drawdown",
          "outputs": [],
          "stateMutability": "nonpayable",
          "type": "function"
        },
        {
          "inputs": [
            {
              "internalType": "address",
              "name": "borrowerAddress",
              "type": "address"
            }
          ],
          "name": "getBorrowerCreditLines",
          "outputs": [
            {
              "internalType": "address[]",
              "name": "",
              "type": "address[]"
            }
          ],
          "stateMutability": "view",
          "type": "function"
        },
        {
          "inputs": [
            {
              "internalType": "address",
              "name": "underwriterAddress",
              "type": "address"
            }
          ],
          "name": "getUnderwriterCreditLines",
          "outputs": [
            {
              "internalType": "address[]",
              "name": "",
              "type": "address[]"
            }
          ],
          "stateMutability": "view",
          "type": "function"
        },
        {
          "inputs": [
            {
              "internalType": "address",
              "name": "_poolAddress",
              "type": "address"
            }
          ],
          "name": "initialize",
          "outputs": [],
          "stateMutability": "nonpayable",
          "type": "function"
        },
        {
          "inputs": [],
          "name": "maxUnderwriterLimit",
          "outputs": [
            {
              "internalType": "uint256",
              "name": "",
              "type": "uint256"
            }
          ],
          "stateMutability": "view",
          "type": "function"
        },
        {
          "inputs": [],
          "name": "owner",
          "outputs": [
            {
              "internalType": "address",
              "name": "",
              "type": "address"
            }
          ],
          "stateMutability": "view",
          "type": "function"
        },
        {
          "inputs": [],
          "name": "pause",
          "outputs": [],
          "stateMutability": "nonpayable",
          "type": "function"
        },
        {
          "inputs": [],
          "name": "paused",
          "outputs": [
            {
              "internalType": "bool",
              "name": "",
              "type": "bool"
            }
          ],
          "stateMutability": "view",
          "type": "function"
        },
        {
          "inputs": [
            {
              "internalType": "address",
              "name": "creditLineAddress",
              "type": "address"
            },
            {
              "internalType": "uint256",
              "name": "amount",
              "type": "uint256"
            }
          ],
          "name": "pay",
          "outputs": [],
          "stateMutability": "payable",
          "type": "function"
        },
        {
          "inputs": [],
          "name": "poolAddress",
          "outputs": [
            {
              "internalType": "address",
              "name": "",
              "type": "address"
            }
          ],
          "stateMutability": "view",
          "type": "function"
        },
        {
          "inputs": [
            {
              "internalType": "address payable",
              "name": "creditLineAddress",
              "type": "address"
            },
            {
              "internalType": "uint256",
              "name": "amount",
              "type": "uint256"
            }
          ],
          "name": "prepay",
          "outputs": [],
          "stateMutability": "payable",
          "type": "function"
        },
        {
          "inputs": [],
          "name": "renounceOwnership",
          "outputs": [],
          "stateMutability": "nonpayable",
          "type": "function"
        },
        {
          "inputs": [
            {
              "internalType": "uint256",
              "name": "amount",
              "type": "uint256"
            }
          ],
          "name": "setMaxUnderwriterLimit",
          "outputs": [],
          "stateMutability": "nonpayable",
          "type": "function"
        },
        {
          "inputs": [
            {
              "internalType": "address",
              "name": "newPoolAddress",
              "type": "address"
            }
          ],
          "name": "setPoolAddress",
          "outputs": [
            {
              "internalType": "address",
              "name": "",
              "type": "address"
            }
          ],
          "stateMutability": "nonpayable",
          "type": "function"
        },
        {
          "inputs": [
            {
              "internalType": "uint256",
              "name": "amount",
              "type": "uint256"
            }
          ],
          "name": "setTransactionLimit",
          "outputs": [],
          "stateMutability": "nonpayable",
          "type": "function"
        },
        {
          "inputs": [
            {
              "internalType": "address",
              "name": "underwriterAddress",
              "type": "address"
            },
            {
              "internalType": "uint256",
              "name": "limit",
              "type": "uint256"
            }
          ],
          "name": "setUnderwriterGovernanceLimit",
          "outputs": [],
          "stateMutability": "nonpayable",
          "type": "function"
        },
        {
          "inputs": [],
          "name": "transactionLimit",
          "outputs": [
            {
              "internalType": "uint256",
              "name": "",
              "type": "uint256"
            }
          ],
          "stateMutability": "view",
          "type": "function"
        },
        {
          "inputs": [
            {
              "internalType": "address",
              "name": "newOwner",
              "type": "address"
            }
          ],
          "name": "transferOwnership",
          "outputs": [],
          "stateMutability": "nonpayable",
          "type": "function"
        },
        {
          "inputs": [
            {
              "internalType": "address",
              "name": "",
              "type": "address"
            }
          ],
          "name": "underwriters",
          "outputs": [
            {
              "internalType": "uint256",
              "name": "governanceLimit",
              "type": "uint256"
            }
          ],
          "stateMutability": "view",
          "type": "function"
        },
        {
          "inputs": [],
          "name": "unpause",
          "outputs": [],
          "stateMutability": "nonpayable",
          "type": "function"
        }
      ],
      "receipt": {
        "to": null,
        "from": "0x83CB0ec2f0013a9641654b344D34615f95b7D7FC",
        "contractAddress": "0x07A24E32e20c01D73EB1050F5DD6571E3d198a10",
        "transactionIndex": 16,
        "gasUsed": "3740107",
        "logsBloom": "0x00000000000000000000000000000000000000000000000000000000000000000000000000000000000000000000000000000000000000000000000000000000000000000000000000000000000000000000000000000000000000000000000000000000000000000000000000000000000000000000000000000000000000000000000000000000000000000000000000000000000000000000000000000000000000000000000000000000000000000000000000000000000000000000000000000000000000000000000000000000000000000000000000000000000000000000000000000000000000000000000000000000000000000000000000000000",
        "blockHash": "0x8bdf720e37b399aae0b78eb52de8d143fdde9d1c82a915d439aff14d82f133e7",
        "transactionHash": "0x4e9a606452c7311dcf3df0b0372ff339a1d1637ad51f84ef8e3f4cf8519c6e21",
        "logs": [],
        "blockNumber": 8749286,
        "cumulativeGasUsed": "7407039",
        "status": 1,
        "byzantium": true
      },
      "address": "0x0AE6C539A1ce2d770D9BC63Ee9C6570331DEdF9a",
      "args": [],
      "solcInputHash": "0xa7928c6ebb4e41c9f68765ff7163ce295197070eddf775ab3a9fa17f7dddc59b",
      "metadata": "{\"compiler\":{\"version\":\"0.6.8+commit.0bbfe453\"},\"language\":\"Solidity\",\"output\":{\"abi\":[{\"anonymous\":false,\"inputs\":[{\"indexed\":true,\"internalType\":\"address\",\"name\":\"borrower\",\"type\":\"address\"},{\"indexed\":true,\"internalType\":\"address\",\"name\":\"creditLine\",\"type\":\"address\"}],\"name\":\"CreditLineCreated\",\"type\":\"event\"},{\"anonymous\":false,\"inputs\":[{\"indexed\":true,\"internalType\":\"address\",\"name\":\"borrower\",\"type\":\"address\"},{\"indexed\":true,\"internalType\":\"address\",\"name\":\"creditLine\",\"type\":\"address\"},{\"indexed\":false,\"internalType\":\"uint256\",\"name\":\"drawdownAmount\",\"type\":\"uint256\"}],\"name\":\"DrawdownMade\",\"type\":\"event\"},{\"anonymous\":false,\"inputs\":[{\"indexed\":true,\"internalType\":\"address\",\"name\":\"underwriter\",\"type\":\"address\"},{\"indexed\":false,\"internalType\":\"uint256\",\"name\":\"newLimit\",\"type\":\"uint256\"}],\"name\":\"GovernanceUpdatedUnderwriterLimit\",\"type\":\"event\"},{\"anonymous\":false,\"inputs\":[{\"indexed\":true,\"internalType\":\"address\",\"name\":\"owner\",\"type\":\"address\"},{\"indexed\":false,\"internalType\":\"string\",\"name\":\"limitType\",\"type\":\"string\"},{\"indexed\":false,\"internalType\":\"uint256\",\"name\":\"amount\",\"type\":\"uint256\"}],\"name\":\"LimitChanged\",\"type\":\"event\"},{\"anonymous\":false,\"inputs\":[{\"indexed\":true,\"internalType\":\"address\",\"name\":\"previousOwner\",\"type\":\"address\"},{\"indexed\":true,\"internalType\":\"address\",\"name\":\"newOwner\",\"type\":\"address\"}],\"name\":\"OwnershipTransferred\",\"type\":\"event\"},{\"anonymous\":false,\"inputs\":[{\"indexed\":false,\"internalType\":\"address\",\"name\":\"account\",\"type\":\"address\"}],\"name\":\"Paused\",\"type\":\"event\"},{\"anonymous\":false,\"inputs\":[{\"indexed\":true,\"internalType\":\"address\",\"name\":\"payer\",\"type\":\"address\"},{\"indexed\":true,\"internalType\":\"address\",\"name\":\"creditLine\",\"type\":\"address\"},{\"indexed\":false,\"internalType\":\"uint256\",\"name\":\"interestAmount\",\"type\":\"uint256\"},{\"indexed\":false,\"internalType\":\"uint256\",\"name\":\"principalAmount\",\"type\":\"uint256\"},{\"indexed\":false,\"internalType\":\"uint256\",\"name\":\"remainingAmount\",\"type\":\"uint256\"}],\"name\":\"PaymentMade\",\"type\":\"event\"},{\"anonymous\":false,\"inputs\":[{\"indexed\":true,\"internalType\":\"address\",\"name\":\"oldAddress\",\"type\":\"address\"},{\"indexed\":true,\"internalType\":\"address\",\"name\":\"newAddress\",\"type\":\"address\"}],\"name\":\"PoolAddressUpdated\",\"type\":\"event\"},{\"anonymous\":false,\"inputs\":[{\"indexed\":true,\"internalType\":\"address\",\"name\":\"payer\",\"type\":\"address\"},{\"indexed\":true,\"internalType\":\"address\",\"name\":\"creditLine\",\"type\":\"address\"},{\"indexed\":false,\"internalType\":\"uint256\",\"name\":\"prepaymentAmount\",\"type\":\"uint256\"}],\"name\":\"PrepaymentMade\",\"type\":\"event\"},{\"anonymous\":false,\"inputs\":[{\"indexed\":false,\"internalType\":\"address\",\"name\":\"account\",\"type\":\"address\"}],\"name\":\"Unpaused\",\"type\":\"event\"},{\"inputs\":[],\"name\":\"__OwnerPausable__init\",\"outputs\":[],\"stateMutability\":\"nonpayable\",\"type\":\"function\"},{\"inputs\":[{\"internalType\":\"address payable\",\"name\":\"creditLineAddress\",\"type\":\"address\"},{\"internalType\":\"uint256\",\"name\":\"amount\",\"type\":\"uint256\"}],\"name\":\"addCollateral\",\"outputs\":[],\"stateMutability\":\"payable\",\"type\":\"function\"},{\"inputs\":[{\"internalType\":\"address\",\"name\":\"creditLineAddress\",\"type\":\"address\"}],\"name\":\"assessCreditLine\",\"outputs\":[],\"stateMutability\":\"nonpayable\",\"type\":\"function\"},{\"inputs\":[],\"name\":\"blocksPerDay\",\"outputs\":[{\"internalType\":\"uint256\",\"name\":\"\",\"type\":\"uint256\"}],\"stateMutability\":\"view\",\"type\":\"function\"},{\"inputs\":[{\"internalType\":\"address\",\"name\":\"_borrower\",\"type\":\"address\"},{\"internalType\":\"uint256\",\"name\":\"_limit\",\"type\":\"uint256\"},{\"internalType\":\"uint256\",\"name\":\"_interestApr\",\"type\":\"uint256\"},{\"internalType\":\"uint256\",\"name\":\"_minCollateralPercent\",\"type\":\"uint256\"},{\"internalType\":\"uint256\",\"name\":\"_paymentPeriodInDays\",\"type\":\"uint256\"},{\"internalType\":\"uint256\",\"name\":\"_termInDays\",\"type\":\"uint256\"}],\"name\":\"createCreditLine\",\"outputs\":[],\"stateMutability\":\"nonpayable\",\"type\":\"function\"},{\"inputs\":[{\"internalType\":\"uint256\",\"name\":\"amount\",\"type\":\"uint256\"},{\"internalType\":\"address\",\"name\":\"creditLineAddress\",\"type\":\"address\"}],\"name\":\"drawdown\",\"outputs\":[],\"stateMutability\":\"nonpayable\",\"type\":\"function\"},{\"inputs\":[{\"internalType\":\"address\",\"name\":\"borrowerAddress\",\"type\":\"address\"}],\"name\":\"getBorrowerCreditLines\",\"outputs\":[{\"internalType\":\"address[]\",\"name\":\"\",\"type\":\"address[]\"}],\"stateMutability\":\"view\",\"type\":\"function\"},{\"inputs\":[{\"internalType\":\"address\",\"name\":\"underwriterAddress\",\"type\":\"address\"}],\"name\":\"getUnderwriterCreditLines\",\"outputs\":[{\"internalType\":\"address[]\",\"name\":\"\",\"type\":\"address[]\"}],\"stateMutability\":\"view\",\"type\":\"function\"},{\"inputs\":[{\"internalType\":\"address\",\"name\":\"_poolAddress\",\"type\":\"address\"}],\"name\":\"initialize\",\"outputs\":[],\"stateMutability\":\"nonpayable\",\"type\":\"function\"},{\"inputs\":[],\"name\":\"maxUnderwriterLimit\",\"outputs\":[{\"internalType\":\"uint256\",\"name\":\"\",\"type\":\"uint256\"}],\"stateMutability\":\"view\",\"type\":\"function\"},{\"inputs\":[],\"name\":\"owner\",\"outputs\":[{\"internalType\":\"address\",\"name\":\"\",\"type\":\"address\"}],\"stateMutability\":\"view\",\"type\":\"function\"},{\"inputs\":[],\"name\":\"pause\",\"outputs\":[],\"stateMutability\":\"nonpayable\",\"type\":\"function\"},{\"inputs\":[],\"name\":\"paused\",\"outputs\":[{\"internalType\":\"bool\",\"name\":\"\",\"type\":\"bool\"}],\"stateMutability\":\"view\",\"type\":\"function\"},{\"inputs\":[{\"internalType\":\"address\",\"name\":\"creditLineAddress\",\"type\":\"address\"},{\"internalType\":\"uint256\",\"name\":\"amount\",\"type\":\"uint256\"}],\"name\":\"pay\",\"outputs\":[],\"stateMutability\":\"payable\",\"type\":\"function\"},{\"inputs\":[],\"name\":\"poolAddress\",\"outputs\":[{\"internalType\":\"address\",\"name\":\"\",\"type\":\"address\"}],\"stateMutability\":\"view\",\"type\":\"function\"},{\"inputs\":[{\"internalType\":\"address payable\",\"name\":\"creditLineAddress\",\"type\":\"address\"},{\"internalType\":\"uint256\",\"name\":\"amount\",\"type\":\"uint256\"}],\"name\":\"prepay\",\"outputs\":[],\"stateMutability\":\"payable\",\"type\":\"function\"},{\"inputs\":[],\"name\":\"renounceOwnership\",\"outputs\":[],\"stateMutability\":\"nonpayable\",\"type\":\"function\"},{\"inputs\":[{\"internalType\":\"uint256\",\"name\":\"amount\",\"type\":\"uint256\"}],\"name\":\"setMaxUnderwriterLimit\",\"outputs\":[],\"stateMutability\":\"nonpayable\",\"type\":\"function\"},{\"inputs\":[{\"internalType\":\"address\",\"name\":\"newPoolAddress\",\"type\":\"address\"}],\"name\":\"setPoolAddress\",\"outputs\":[{\"internalType\":\"address\",\"name\":\"\",\"type\":\"address\"}],\"stateMutability\":\"nonpayable\",\"type\":\"function\"},{\"inputs\":[{\"internalType\":\"uint256\",\"name\":\"amount\",\"type\":\"uint256\"}],\"name\":\"setTransactionLimit\",\"outputs\":[],\"stateMutability\":\"nonpayable\",\"type\":\"function\"},{\"inputs\":[{\"internalType\":\"address\",\"name\":\"underwriterAddress\",\"type\":\"address\"},{\"internalType\":\"uint256\",\"name\":\"limit\",\"type\":\"uint256\"}],\"name\":\"setUnderwriterGovernanceLimit\",\"outputs\":[],\"stateMutability\":\"nonpayable\",\"type\":\"function\"},{\"inputs\":[],\"name\":\"transactionLimit\",\"outputs\":[{\"internalType\":\"uint256\",\"name\":\"\",\"type\":\"uint256\"}],\"stateMutability\":\"view\",\"type\":\"function\"},{\"inputs\":[{\"internalType\":\"address\",\"name\":\"newOwner\",\"type\":\"address\"}],\"name\":\"transferOwnership\",\"outputs\":[],\"stateMutability\":\"nonpayable\",\"type\":\"function\"},{\"inputs\":[{\"internalType\":\"address\",\"name\":\"\",\"type\":\"address\"}],\"name\":\"underwriters\",\"outputs\":[{\"internalType\":\"uint256\",\"name\":\"governanceLimit\",\"type\":\"uint256\"}],\"stateMutability\":\"view\",\"type\":\"function\"},{\"inputs\":[],\"name\":\"unpause\",\"outputs\":[],\"stateMutability\":\"nonpayable\",\"type\":\"function\"}],\"devdoc\":{\"methods\":{\"owner()\":{\"details\":\"Returns the address of the current owner.\"},\"pause()\":{\"details\":\"Pauses all functions guarded by Pause    * See {Pausable-_pause}.    * Requirements:    * - the caller must be the owner.\"},\"paused()\":{\"details\":\"Returns true if the contract is paused, and false otherwise.\"},\"renounceOwnership()\":{\"details\":\"Leaves the contract without owner. It will not be possible to call `onlyOwner` functions anymore. Can only be called by the current owner.     * NOTE: Renouncing ownership will leave the contract without an owner, thereby removing any functionality that is only available to the owner.\"},\"transferOwnership(address)\":{\"details\":\"Transfers ownership of the contract to a new account (`newOwner`). Can only be called by the current owner.\"},\"unpause()\":{\"details\":\"Unpauses the contract    * See {Pausable-_unpause}.    * Requirements:    * - the caller must be the owner`.\"}}},\"userdoc\":{\"methods\":{}}},\"settings\":{\"compilationTarget\":{\"contracts/CreditDesk.sol\":\"CreditDesk\"},\"evmVersion\":\"istanbul\",\"libraries\":{},\"metadata\":{\"bytecodeHash\":\"ipfs\",\"useLiteralContent\":true},\"optimizer\":{\"enabled\":true,\"runs\":200},\"remappings\":[]},\"sources\":{\"@openzeppelin/contracts-ethereum-package/contracts/GSN/Context.sol\":{\"content\":\"pragma solidity ^0.6.0;\\nimport \\\"../Initializable.sol\\\";\\n\\n/*\\n * @dev Provides information about the current execution context, including the\\n * sender of the transaction and its data. While these are generally available\\n * via msg.sender and msg.data, they should not be accessed in such a direct\\n * manner, since when dealing with GSN meta-transactions the account sending and\\n * paying for execution may not be the actual sender (as far as an application\\n * is concerned).\\n *\\n * This contract is only required for intermediate, library-like contracts.\\n */\\ncontract ContextUpgradeSafe is Initializable {\\n    // Empty internal constructor, to prevent people from mistakenly deploying\\n    // an instance of this contract, which should be used via inheritance.\\n\\n    function __Context_init() internal initializer {\\n        __Context_init_unchained();\\n    }\\n\\n    function __Context_init_unchained() internal initializer {\\n\\n\\n    }\\n\\n\\n    function _msgSender() internal view virtual returns (address payable) {\\n        return msg.sender;\\n    }\\n\\n    function _msgData() internal view virtual returns (bytes memory) {\\n        this; // silence state mutability warning without generating bytecode - see https://github.com/ethereum/solidity/issues/2691\\n        return msg.data;\\n    }\\n\\n    uint256[50] private __gap;\\n}\\n\",\"keccak256\":\"0xe81686511d62f18b2d9c693c2c94c0a789c690de63aa90e15451ebf65c5bfd3e\"},\"@openzeppelin/contracts-ethereum-package/contracts/Initializable.sol\":{\"content\":\"pragma solidity >=0.4.24 <0.7.0;\\n\\n\\n/**\\n * @title Initializable\\n *\\n * @dev Helper contract to support initializer functions. To use it, replace\\n * the constructor with a function that has the `initializer` modifier.\\n * WARNING: Unlike constructors, initializer functions must be manually\\n * invoked. This applies both to deploying an Initializable contract, as well\\n * as extending an Initializable contract via inheritance.\\n * WARNING: When used with inheritance, manual care must be taken to not invoke\\n * a parent initializer twice, or ensure that all initializers are idempotent,\\n * because this is not dealt with automatically as with constructors.\\n */\\ncontract Initializable {\\n\\n  /**\\n   * @dev Indicates that the contract has been initialized.\\n   */\\n  bool private initialized;\\n\\n  /**\\n   * @dev Indicates that the contract is in the process of being initialized.\\n   */\\n  bool private initializing;\\n\\n  /**\\n   * @dev Modifier to use in the initializer function of a contract.\\n   */\\n  modifier initializer() {\\n    require(initializing || isConstructor() || !initialized, \\\"Contract instance has already been initialized\\\");\\n\\n    bool isTopLevelCall = !initializing;\\n    if (isTopLevelCall) {\\n      initializing = true;\\n      initialized = true;\\n    }\\n\\n    _;\\n\\n    if (isTopLevelCall) {\\n      initializing = false;\\n    }\\n  }\\n\\n  /// @dev Returns true if and only if the function is running in the constructor\\n  function isConstructor() private view returns (bool) {\\n    // extcodesize checks the size of the code stored in an address, and\\n    // address returns the current address. Since the code is still not\\n    // deployed when running a constructor, any checks on its code size will\\n    // yield zero, making it an effective way to detect if a contract is\\n    // under construction or not.\\n    address self = address(this);\\n    uint256 cs;\\n    assembly { cs := extcodesize(self) }\\n    return cs == 0;\\n  }\\n\\n  // Reserved storage space to allow for layout changes in the future.\\n  uint256[50] private ______gap;\\n}\\n\",\"keccak256\":\"0x9bfec92e36234ecc99b5d37230acb6cd1f99560233753162204104a4897e8721\"},\"@openzeppelin/contracts-ethereum-package/contracts/access/Ownable.sol\":{\"content\":\"pragma solidity ^0.6.0;\\n\\nimport \\\"../GSN/Context.sol\\\";\\nimport \\\"../Initializable.sol\\\";\\n/**\\n * @dev Contract module which provides a basic access control mechanism, where\\n * there is an account (an owner) that can be granted exclusive access to\\n * specific functions.\\n *\\n * By default, the owner account will be the one that deploys the contract. This\\n * can later be changed with {transferOwnership}.\\n *\\n * This module is used through inheritance. It will make available the modifier\\n * `onlyOwner`, which can be applied to your functions to restrict their use to\\n * the owner.\\n */\\ncontract OwnableUpgradeSafe is Initializable, ContextUpgradeSafe {\\n    address private _owner;\\n\\n    event OwnershipTransferred(address indexed previousOwner, address indexed newOwner);\\n\\n    /**\\n     * @dev Initializes the contract setting the deployer as the initial owner.\\n     */\\n\\n    function __Ownable_init() internal initializer {\\n        __Context_init_unchained();\\n        __Ownable_init_unchained();\\n    }\\n\\n    function __Ownable_init_unchained() internal initializer {\\n\\n\\n        address msgSender = _msgSender();\\n        _owner = msgSender;\\n        emit OwnershipTransferred(address(0), msgSender);\\n\\n    }\\n\\n\\n    /**\\n     * @dev Returns the address of the current owner.\\n     */\\n    function owner() public view returns (address) {\\n        return _owner;\\n    }\\n\\n    /**\\n     * @dev Throws if called by any account other than the owner.\\n     */\\n    modifier onlyOwner() {\\n        require(_owner == _msgSender(), \\\"Ownable: caller is not the owner\\\");\\n        _;\\n    }\\n\\n    /**\\n     * @dev Leaves the contract without owner. It will not be possible to call\\n     * `onlyOwner` functions anymore. Can only be called by the current owner.\\n     *\\n     * NOTE: Renouncing ownership will leave the contract without an owner,\\n     * thereby removing any functionality that is only available to the owner.\\n     */\\n    function renounceOwnership() public virtual onlyOwner {\\n        emit OwnershipTransferred(_owner, address(0));\\n        _owner = address(0);\\n    }\\n\\n    /**\\n     * @dev Transfers ownership of the contract to a new account (`newOwner`).\\n     * Can only be called by the current owner.\\n     */\\n    function transferOwnership(address newOwner) public virtual onlyOwner {\\n        require(newOwner != address(0), \\\"Ownable: new owner is the zero address\\\");\\n        emit OwnershipTransferred(_owner, newOwner);\\n        _owner = newOwner;\\n    }\\n\\n    uint256[49] private __gap;\\n}\\n\",\"keccak256\":\"0x04a69a78363214b4e3055db8e620bed222349f0c81e9d1cbe769eb849b69b73f\"},\"@openzeppelin/contracts-ethereum-package/contracts/math/Math.sol\":{\"content\":\"pragma solidity ^0.6.0;\\n\\n/**\\n * @dev Standard math utilities missing in the Solidity language.\\n */\\nlibrary Math {\\n    /**\\n     * @dev Returns the largest of two numbers.\\n     */\\n    function max(uint256 a, uint256 b) internal pure returns (uint256) {\\n        return a >= b ? a : b;\\n    }\\n\\n    /**\\n     * @dev Returns the smallest of two numbers.\\n     */\\n    function min(uint256 a, uint256 b) internal pure returns (uint256) {\\n        return a < b ? a : b;\\n    }\\n\\n    /**\\n     * @dev Returns the average of two numbers. The result is rounded towards\\n     * zero.\\n     */\\n    function average(uint256 a, uint256 b) internal pure returns (uint256) {\\n        // (a + b) / 2 can overflow, so we distribute\\n        return (a / 2) + (b / 2) + ((a % 2 + b % 2) / 2);\\n    }\\n}\\n\",\"keccak256\":\"0x50280546205978ca6573541955e15453b4c07a19e6c8ec4f6785a5ae0d7343fb\"},\"@openzeppelin/contracts-ethereum-package/contracts/math/SafeMath.sol\":{\"content\":\"pragma solidity ^0.6.0;\\n\\n/**\\n * @dev Wrappers over Solidity's arithmetic operations with added overflow\\n * checks.\\n *\\n * Arithmetic operations in Solidity wrap on overflow. This can easily result\\n * in bugs, because programmers usually assume that an overflow raises an\\n * error, which is the standard behavior in high level programming languages.\\n * `SafeMath` restores this intuition by reverting the transaction when an\\n * operation overflows.\\n *\\n * Using this library instead of the unchecked operations eliminates an entire\\n * class of bugs, so it's recommended to use it always.\\n */\\nlibrary SafeMath {\\n    /**\\n     * @dev Returns the addition of two unsigned integers, reverting on\\n     * overflow.\\n     *\\n     * Counterpart to Solidity's `+` operator.\\n     *\\n     * Requirements:\\n     * - Addition cannot overflow.\\n     */\\n    function add(uint256 a, uint256 b) internal pure returns (uint256) {\\n        uint256 c = a + b;\\n        require(c >= a, \\\"SafeMath: addition overflow\\\");\\n\\n        return c;\\n    }\\n\\n    /**\\n     * @dev Returns the subtraction of two unsigned integers, reverting on\\n     * overflow (when the result is negative).\\n     *\\n     * Counterpart to Solidity's `-` operator.\\n     *\\n     * Requirements:\\n     * - Subtraction cannot overflow.\\n     */\\n    function sub(uint256 a, uint256 b) internal pure returns (uint256) {\\n        return sub(a, b, \\\"SafeMath: subtraction overflow\\\");\\n    }\\n\\n    /**\\n     * @dev Returns the subtraction of two unsigned integers, reverting with custom message on\\n     * overflow (when the result is negative).\\n     *\\n     * Counterpart to Solidity's `-` operator.\\n     *\\n     * Requirements:\\n     * - Subtraction cannot overflow.\\n     */\\n    function sub(uint256 a, uint256 b, string memory errorMessage) internal pure returns (uint256) {\\n        require(b <= a, errorMessage);\\n        uint256 c = a - b;\\n\\n        return c;\\n    }\\n\\n    /**\\n     * @dev Returns the multiplication of two unsigned integers, reverting on\\n     * overflow.\\n     *\\n     * Counterpart to Solidity's `*` operator.\\n     *\\n     * Requirements:\\n     * - Multiplication cannot overflow.\\n     */\\n    function mul(uint256 a, uint256 b) internal pure returns (uint256) {\\n        // Gas optimization: this is cheaper than requiring 'a' not being zero, but the\\n        // benefit is lost if 'b' is also tested.\\n        // See: https://github.com/OpenZeppelin/openzeppelin-contracts/pull/522\\n        if (a == 0) {\\n            return 0;\\n        }\\n\\n        uint256 c = a * b;\\n        require(c / a == b, \\\"SafeMath: multiplication overflow\\\");\\n\\n        return c;\\n    }\\n\\n    /**\\n     * @dev Returns the integer division of two unsigned integers. Reverts on\\n     * division by zero. The result is rounded towards zero.\\n     *\\n     * Counterpart to Solidity's `/` operator. Note: this function uses a\\n     * `revert` opcode (which leaves remaining gas untouched) while Solidity\\n     * uses an invalid opcode to revert (consuming all remaining gas).\\n     *\\n     * Requirements:\\n     * - The divisor cannot be zero.\\n     */\\n    function div(uint256 a, uint256 b) internal pure returns (uint256) {\\n        return div(a, b, \\\"SafeMath: division by zero\\\");\\n    }\\n\\n    /**\\n     * @dev Returns the integer division of two unsigned integers. Reverts with custom message on\\n     * division by zero. The result is rounded towards zero.\\n     *\\n     * Counterpart to Solidity's `/` operator. Note: this function uses a\\n     * `revert` opcode (which leaves remaining gas untouched) while Solidity\\n     * uses an invalid opcode to revert (consuming all remaining gas).\\n     *\\n     * Requirements:\\n     * - The divisor cannot be zero.\\n     */\\n    function div(uint256 a, uint256 b, string memory errorMessage) internal pure returns (uint256) {\\n        // Solidity only automatically asserts when dividing by 0\\n        require(b > 0, errorMessage);\\n        uint256 c = a / b;\\n        // assert(a == b * c + a % b); // There is no case in which this doesn't hold\\n\\n        return c;\\n    }\\n\\n    /**\\n     * @dev Returns the remainder of dividing two unsigned integers. (unsigned integer modulo),\\n     * Reverts when dividing by zero.\\n     *\\n     * Counterpart to Solidity's `%` operator. This function uses a `revert`\\n     * opcode (which leaves remaining gas untouched) while Solidity uses an\\n     * invalid opcode to revert (consuming all remaining gas).\\n     *\\n     * Requirements:\\n     * - The divisor cannot be zero.\\n     */\\n    function mod(uint256 a, uint256 b) internal pure returns (uint256) {\\n        return mod(a, b, \\\"SafeMath: modulo by zero\\\");\\n    }\\n\\n    /**\\n     * @dev Returns the remainder of dividing two unsigned integers. (unsigned integer modulo),\\n     * Reverts with custom message when dividing by zero.\\n     *\\n     * Counterpart to Solidity's `%` operator. This function uses a `revert`\\n     * opcode (which leaves remaining gas untouched) while Solidity uses an\\n     * invalid opcode to revert (consuming all remaining gas).\\n     *\\n     * Requirements:\\n     * - The divisor cannot be zero.\\n     */\\n    function mod(uint256 a, uint256 b, string memory errorMessage) internal pure returns (uint256) {\\n        require(b != 0, errorMessage);\\n        return a % b;\\n    }\\n}\\n\",\"keccak256\":\"0x04d34b3cd5677bea25f8dfceb6dec0eaa071d4d4b789a43f13fe0c415ba4c296\"},\"@openzeppelin/contracts-ethereum-package/contracts/token/ERC20/ERC20.sol\":{\"content\":\"pragma solidity ^0.6.0;\\n\\nimport \\\"../../GSN/Context.sol\\\";\\nimport \\\"./IERC20.sol\\\";\\nimport \\\"../../math/SafeMath.sol\\\";\\nimport \\\"../../utils/Address.sol\\\";\\nimport \\\"../../Initializable.sol\\\";\\n\\n/**\\n * @dev Implementation of the {IERC20} interface.\\n *\\n * This implementation is agnostic to the way tokens are created. This means\\n * that a supply mechanism has to be added in a derived contract using {_mint}.\\n * For a generic mechanism see {ERC20MinterPauser}.\\n *\\n * TIP: For a detailed writeup see our guide\\n * https://forum.zeppelin.solutions/t/how-to-implement-erc20-supply-mechanisms/226[How\\n * to implement supply mechanisms].\\n *\\n * We have followed general OpenZeppelin guidelines: functions revert instead\\n * of returning `false` on failure. This behavior is nonetheless conventional\\n * and does not conflict with the expectations of ERC20 applications.\\n *\\n * Additionally, an {Approval} event is emitted on calls to {transferFrom}.\\n * This allows applications to reconstruct the allowance for all accounts just\\n * by listening to said events. Other implementations of the EIP may not emit\\n * these events, as it isn't required by the specification.\\n *\\n * Finally, the non-standard {decreaseAllowance} and {increaseAllowance}\\n * functions have been added to mitigate the well-known issues around setting\\n * allowances. See {IERC20-approve}.\\n */\\ncontract ERC20UpgradeSafe is Initializable, ContextUpgradeSafe, IERC20 {\\n    using SafeMath for uint256;\\n    using Address for address;\\n\\n    mapping (address => uint256) private _balances;\\n\\n    mapping (address => mapping (address => uint256)) private _allowances;\\n\\n    uint256 private _totalSupply;\\n\\n    string private _name;\\n    string private _symbol;\\n    uint8 private _decimals;\\n\\n    /**\\n     * @dev Sets the values for {name} and {symbol}, initializes {decimals} with\\n     * a default value of 18.\\n     *\\n     * To select a different value for {decimals}, use {_setupDecimals}.\\n     *\\n     * All three of these values are immutable: they can only be set once during\\n     * construction.\\n     */\\n\\n    function __ERC20_init(string memory name, string memory symbol) internal initializer {\\n        __Context_init_unchained();\\n        __ERC20_init_unchained(name, symbol);\\n    }\\n\\n    function __ERC20_init_unchained(string memory name, string memory symbol) internal initializer {\\n\\n\\n        _name = name;\\n        _symbol = symbol;\\n        _decimals = 18;\\n\\n    }\\n\\n\\n    /**\\n     * @dev Returns the name of the token.\\n     */\\n    function name() public view returns (string memory) {\\n        return _name;\\n    }\\n\\n    /**\\n     * @dev Returns the symbol of the token, usually a shorter version of the\\n     * name.\\n     */\\n    function symbol() public view returns (string memory) {\\n        return _symbol;\\n    }\\n\\n    /**\\n     * @dev Returns the number of decimals used to get its user representation.\\n     * For example, if `decimals` equals `2`, a balance of `505` tokens should\\n     * be displayed to a user as `5,05` (`505 / 10 ** 2`).\\n     *\\n     * Tokens usually opt for a value of 18, imitating the relationship between\\n     * Ether and Wei. This is the value {ERC20} uses, unless {_setupDecimals} is\\n     * called.\\n     *\\n     * NOTE: This information is only used for _display_ purposes: it in\\n     * no way affects any of the arithmetic of the contract, including\\n     * {IERC20-balanceOf} and {IERC20-transfer}.\\n     */\\n    function decimals() public view returns (uint8) {\\n        return _decimals;\\n    }\\n\\n    /**\\n     * @dev See {IERC20-totalSupply}.\\n     */\\n    function totalSupply() public view override returns (uint256) {\\n        return _totalSupply;\\n    }\\n\\n    /**\\n     * @dev See {IERC20-balanceOf}.\\n     */\\n    function balanceOf(address account) public view override returns (uint256) {\\n        return _balances[account];\\n    }\\n\\n    /**\\n     * @dev See {IERC20-transfer}.\\n     *\\n     * Requirements:\\n     *\\n     * - `recipient` cannot be the zero address.\\n     * - the caller must have a balance of at least `amount`.\\n     */\\n    function transfer(address recipient, uint256 amount) public virtual override returns (bool) {\\n        _transfer(_msgSender(), recipient, amount);\\n        return true;\\n    }\\n\\n    /**\\n     * @dev See {IERC20-allowance}.\\n     */\\n    function allowance(address owner, address spender) public view virtual override returns (uint256) {\\n        return _allowances[owner][spender];\\n    }\\n\\n    /**\\n     * @dev See {IERC20-approve}.\\n     *\\n     * Requirements:\\n     *\\n     * - `spender` cannot be the zero address.\\n     */\\n    function approve(address spender, uint256 amount) public virtual override returns (bool) {\\n        _approve(_msgSender(), spender, amount);\\n        return true;\\n    }\\n\\n    /**\\n     * @dev See {IERC20-transferFrom}.\\n     *\\n     * Emits an {Approval} event indicating the updated allowance. This is not\\n     * required by the EIP. See the note at the beginning of {ERC20};\\n     *\\n     * Requirements:\\n     * - `sender` and `recipient` cannot be the zero address.\\n     * - `sender` must have a balance of at least `amount`.\\n     * - the caller must have allowance for ``sender``'s tokens of at least\\n     * `amount`.\\n     */\\n    function transferFrom(address sender, address recipient, uint256 amount) public virtual override returns (bool) {\\n        _transfer(sender, recipient, amount);\\n        _approve(sender, _msgSender(), _allowances[sender][_msgSender()].sub(amount, \\\"ERC20: transfer amount exceeds allowance\\\"));\\n        return true;\\n    }\\n\\n    /**\\n     * @dev Atomically increases the allowance granted to `spender` by the caller.\\n     *\\n     * This is an alternative to {approve} that can be used as a mitigation for\\n     * problems described in {IERC20-approve}.\\n     *\\n     * Emits an {Approval} event indicating the updated allowance.\\n     *\\n     * Requirements:\\n     *\\n     * - `spender` cannot be the zero address.\\n     */\\n    function increaseAllowance(address spender, uint256 addedValue) public virtual returns (bool) {\\n        _approve(_msgSender(), spender, _allowances[_msgSender()][spender].add(addedValue));\\n        return true;\\n    }\\n\\n    /**\\n     * @dev Atomically decreases the allowance granted to `spender` by the caller.\\n     *\\n     * This is an alternative to {approve} that can be used as a mitigation for\\n     * problems described in {IERC20-approve}.\\n     *\\n     * Emits an {Approval} event indicating the updated allowance.\\n     *\\n     * Requirements:\\n     *\\n     * - `spender` cannot be the zero address.\\n     * - `spender` must have allowance for the caller of at least\\n     * `subtractedValue`.\\n     */\\n    function decreaseAllowance(address spender, uint256 subtractedValue) public virtual returns (bool) {\\n        _approve(_msgSender(), spender, _allowances[_msgSender()][spender].sub(subtractedValue, \\\"ERC20: decreased allowance below zero\\\"));\\n        return true;\\n    }\\n\\n    /**\\n     * @dev Moves tokens `amount` from `sender` to `recipient`.\\n     *\\n     * This is internal function is equivalent to {transfer}, and can be used to\\n     * e.g. implement automatic token fees, slashing mechanisms, etc.\\n     *\\n     * Emits a {Transfer} event.\\n     *\\n     * Requirements:\\n     *\\n     * - `sender` cannot be the zero address.\\n     * - `recipient` cannot be the zero address.\\n     * - `sender` must have a balance of at least `amount`.\\n     */\\n    function _transfer(address sender, address recipient, uint256 amount) internal virtual {\\n        require(sender != address(0), \\\"ERC20: transfer from the zero address\\\");\\n        require(recipient != address(0), \\\"ERC20: transfer to the zero address\\\");\\n\\n        _beforeTokenTransfer(sender, recipient, amount);\\n\\n        _balances[sender] = _balances[sender].sub(amount, \\\"ERC20: transfer amount exceeds balance\\\");\\n        _balances[recipient] = _balances[recipient].add(amount);\\n        emit Transfer(sender, recipient, amount);\\n    }\\n\\n    /** @dev Creates `amount` tokens and assigns them to `account`, increasing\\n     * the total supply.\\n     *\\n     * Emits a {Transfer} event with `from` set to the zero address.\\n     *\\n     * Requirements\\n     *\\n     * - `to` cannot be the zero address.\\n     */\\n    function _mint(address account, uint256 amount) internal virtual {\\n        require(account != address(0), \\\"ERC20: mint to the zero address\\\");\\n\\n        _beforeTokenTransfer(address(0), account, amount);\\n\\n        _totalSupply = _totalSupply.add(amount);\\n        _balances[account] = _balances[account].add(amount);\\n        emit Transfer(address(0), account, amount);\\n    }\\n\\n    /**\\n     * @dev Destroys `amount` tokens from `account`, reducing the\\n     * total supply.\\n     *\\n     * Emits a {Transfer} event with `to` set to the zero address.\\n     *\\n     * Requirements\\n     *\\n     * - `account` cannot be the zero address.\\n     * - `account` must have at least `amount` tokens.\\n     */\\n    function _burn(address account, uint256 amount) internal virtual {\\n        require(account != address(0), \\\"ERC20: burn from the zero address\\\");\\n\\n        _beforeTokenTransfer(account, address(0), amount);\\n\\n        _balances[account] = _balances[account].sub(amount, \\\"ERC20: burn amount exceeds balance\\\");\\n        _totalSupply = _totalSupply.sub(amount);\\n        emit Transfer(account, address(0), amount);\\n    }\\n\\n    /**\\n     * @dev Sets `amount` as the allowance of `spender` over the `owner`s tokens.\\n     *\\n     * This is internal function is equivalent to `approve`, and can be used to\\n     * e.g. set automatic allowances for certain subsystems, etc.\\n     *\\n     * Emits an {Approval} event.\\n     *\\n     * Requirements:\\n     *\\n     * - `owner` cannot be the zero address.\\n     * - `spender` cannot be the zero address.\\n     */\\n    function _approve(address owner, address spender, uint256 amount) internal virtual {\\n        require(owner != address(0), \\\"ERC20: approve from the zero address\\\");\\n        require(spender != address(0), \\\"ERC20: approve to the zero address\\\");\\n\\n        _allowances[owner][spender] = amount;\\n        emit Approval(owner, spender, amount);\\n    }\\n\\n    /**\\n     * @dev Sets {decimals} to a value other than the default one of 18.\\n     *\\n     * WARNING: This function should only be called from the constructor. Most\\n     * applications that interact with token contracts will not expect\\n     * {decimals} to ever change, and may work incorrectly if it does.\\n     */\\n    function _setupDecimals(uint8 decimals_) internal {\\n        _decimals = decimals_;\\n    }\\n\\n    /**\\n     * @dev Hook that is called before any transfer of tokens. This includes\\n     * minting and burning.\\n     *\\n     * Calling conditions:\\n     *\\n     * - when `from` and `to` are both non-zero, `amount` of ``from``'s tokens\\n     * will be to transferred to `to`.\\n     * - when `from` is zero, `amount` tokens will be minted for `to`.\\n     * - when `to` is zero, `amount` of ``from``'s tokens will be burned.\\n     * - `from` and `to` are never both zero.\\n     *\\n     * To learn more about hooks, head to xref:ROOT:extending-contracts.adoc#using-hooks[Using Hooks].\\n     */\\n    function _beforeTokenTransfer(address from, address to, uint256 amount) internal virtual { }\\n\\n    uint256[44] private __gap;\\n}\\n\",\"keccak256\":\"0x9c2d859bc9de93ced0875d226598e56067fe4d6b2dde0e1fd53ca60fa9603db0\"},\"@openzeppelin/contracts-ethereum-package/contracts/token/ERC20/IERC20.sol\":{\"content\":\"pragma solidity ^0.6.0;\\n\\n/**\\n * @dev Interface of the ERC20 standard as defined in the EIP.\\n */\\ninterface IERC20 {\\n    /**\\n     * @dev Returns the amount of tokens in existence.\\n     */\\n    function totalSupply() external view returns (uint256);\\n\\n    /**\\n     * @dev Returns the amount of tokens owned by `account`.\\n     */\\n    function balanceOf(address account) external view returns (uint256);\\n\\n    /**\\n     * @dev Moves `amount` tokens from the caller's account to `recipient`.\\n     *\\n     * Returns a boolean value indicating whether the operation succeeded.\\n     *\\n     * Emits a {Transfer} event.\\n     */\\n    function transfer(address recipient, uint256 amount) external returns (bool);\\n\\n    /**\\n     * @dev Returns the remaining number of tokens that `spender` will be\\n     * allowed to spend on behalf of `owner` through {transferFrom}. This is\\n     * zero by default.\\n     *\\n     * This value changes when {approve} or {transferFrom} are called.\\n     */\\n    function allowance(address owner, address spender) external view returns (uint256);\\n\\n    /**\\n     * @dev Sets `amount` as the allowance of `spender` over the caller's tokens.\\n     *\\n     * Returns a boolean value indicating whether the operation succeeded.\\n     *\\n     * IMPORTANT: Beware that changing an allowance with this method brings the risk\\n     * that someone may use both the old and the new allowance by unfortunate\\n     * transaction ordering. One possible solution to mitigate this race\\n     * condition is to first reduce the spender's allowance to 0 and set the\\n     * desired value afterwards:\\n     * https://github.com/ethereum/EIPs/issues/20#issuecomment-263524729\\n     *\\n     * Emits an {Approval} event.\\n     */\\n    function approve(address spender, uint256 amount) external returns (bool);\\n\\n    /**\\n     * @dev Moves `amount` tokens from `sender` to `recipient` using the\\n     * allowance mechanism. `amount` is then deducted from the caller's\\n     * allowance.\\n     *\\n     * Returns a boolean value indicating whether the operation succeeded.\\n     *\\n     * Emits a {Transfer} event.\\n     */\\n    function transferFrom(address sender, address recipient, uint256 amount) external returns (bool);\\n\\n    /**\\n     * @dev Emitted when `value` tokens are moved from one account (`from`) to\\n     * another (`to`).\\n     *\\n     * Note that `value` may be zero.\\n     */\\n    event Transfer(address indexed from, address indexed to, uint256 value);\\n\\n    /**\\n     * @dev Emitted when the allowance of a `spender` for an `owner` is set by\\n     * a call to {approve}. `value` is the new allowance.\\n     */\\n    event Approval(address indexed owner, address indexed spender, uint256 value);\\n}\\n\",\"keccak256\":\"0x6cc1cb934a3ac2137a7dcaed018af9e235392236ceecfd3687259702b9c767ad\"},\"@openzeppelin/contracts-ethereum-package/contracts/utils/Address.sol\":{\"content\":\"pragma solidity ^0.6.2;\\n\\n/**\\n * @dev Collection of functions related to the address type\\n */\\nlibrary Address {\\n    /**\\n     * @dev Returns true if `account` is a contract.\\n     *\\n     * [IMPORTANT]\\n     * ====\\n     * It is unsafe to assume that an address for which this function returns\\n     * false is an externally-owned account (EOA) and not a contract.\\n     *\\n     * Among others, `isContract` will return false for the following\\n     * types of addresses:\\n     *\\n     *  - an externally-owned account\\n     *  - a contract in construction\\n     *  - an address where a contract will be created\\n     *  - an address where a contract lived, but was destroyed\\n     * ====\\n     */\\n    function isContract(address account) internal view returns (bool) {\\n        // According to EIP-1052, 0x0 is the value returned for not-yet created accounts\\n        // and 0xc5d2460186f7233c927e7db2dcc703c0e500b653ca82273b7bfad8045d85a470 is returned\\n        // for accounts without code, i.e. `keccak256('')`\\n        bytes32 codehash;\\n        bytes32 accountHash = 0xc5d2460186f7233c927e7db2dcc703c0e500b653ca82273b7bfad8045d85a470;\\n        // solhint-disable-next-line no-inline-assembly\\n        assembly { codehash := extcodehash(account) }\\n        return (codehash != accountHash && codehash != 0x0);\\n    }\\n\\n    /**\\n     * @dev Replacement for Solidity's `transfer`: sends `amount` wei to\\n     * `recipient`, forwarding all available gas and reverting on errors.\\n     *\\n     * https://eips.ethereum.org/EIPS/eip-1884[EIP1884] increases the gas cost\\n     * of certain opcodes, possibly making contracts go over the 2300 gas limit\\n     * imposed by `transfer`, making them unable to receive funds via\\n     * `transfer`. {sendValue} removes this limitation.\\n     *\\n     * https://diligence.consensys.net/posts/2019/09/stop-using-soliditys-transfer-now/[Learn more].\\n     *\\n     * IMPORTANT: because control is transferred to `recipient`, care must be\\n     * taken to not create reentrancy vulnerabilities. Consider using\\n     * {ReentrancyGuard} or the\\n     * https://solidity.readthedocs.io/en/v0.5.11/security-considerations.html#use-the-checks-effects-interactions-pattern[checks-effects-interactions pattern].\\n     */\\n    function sendValue(address payable recipient, uint256 amount) internal {\\n        require(address(this).balance >= amount, \\\"Address: insufficient balance\\\");\\n\\n        // solhint-disable-next-line avoid-low-level-calls, avoid-call-value\\n        (bool success, ) = recipient.call{ value: amount }(\\\"\\\");\\n        require(success, \\\"Address: unable to send value, recipient may have reverted\\\");\\n    }\\n}\\n\",\"keccak256\":\"0x5f7da58ee3d9faa9b8999a93d49c8ff978f1afc88ae9bcfc6f9cbb44da011c2b\"},\"@openzeppelin/contracts-ethereum-package/contracts/utils/Pausable.sol\":{\"content\":\"pragma solidity ^0.6.0;\\n\\nimport \\\"../GSN/Context.sol\\\";\\nimport \\\"../Initializable.sol\\\";\\n\\n/**\\n * @dev Contract module which allows children to implement an emergency stop\\n * mechanism that can be triggered by an authorized account.\\n *\\n * This module is used through inheritance. It will make available the\\n * modifiers `whenNotPaused` and `whenPaused`, which can be applied to\\n * the functions of your contract. Note that they will not be pausable by\\n * simply including this module, only once the modifiers are put in place.\\n */\\ncontract PausableUpgradeSafe is Initializable, ContextUpgradeSafe {\\n    /**\\n     * @dev Emitted when the pause is triggered by `account`.\\n     */\\n    event Paused(address account);\\n\\n    /**\\n     * @dev Emitted when the pause is lifted by `account`.\\n     */\\n    event Unpaused(address account);\\n\\n    bool private _paused;\\n\\n    /**\\n     * @dev Initializes the contract in unpaused state.\\n     */\\n\\n    function __Pausable_init() internal initializer {\\n        __Context_init_unchained();\\n        __Pausable_init_unchained();\\n    }\\n\\n    function __Pausable_init_unchained() internal initializer {\\n\\n\\n        _paused = false;\\n\\n    }\\n\\n\\n    /**\\n     * @dev Returns true if the contract is paused, and false otherwise.\\n     */\\n    function paused() public view returns (bool) {\\n        return _paused;\\n    }\\n\\n    /**\\n     * @dev Modifier to make a function callable only when the contract is not paused.\\n     */\\n    modifier whenNotPaused() {\\n        require(!_paused, \\\"Pausable: paused\\\");\\n        _;\\n    }\\n\\n    /**\\n     * @dev Modifier to make a function callable only when the contract is paused.\\n     */\\n    modifier whenPaused() {\\n        require(_paused, \\\"Pausable: not paused\\\");\\n        _;\\n    }\\n\\n    /**\\n     * @dev Triggers stopped state.\\n     */\\n    function _pause() internal virtual whenNotPaused {\\n        _paused = true;\\n        emit Paused(_msgSender());\\n    }\\n\\n    /**\\n     * @dev Returns to normal state.\\n     */\\n    function _unpause() internal virtual whenPaused {\\n        _paused = false;\\n        emit Unpaused(_msgSender());\\n    }\\n\\n    uint256[49] private __gap;\\n}\\n\",\"keccak256\":\"0x2ad5473fe88d9ab30c6cd495ab8895daae8c4a48cf8231282a2d339387b35006\"},\"contracts/Accountant.sol\":{\"content\":\"// SPDX-License-Identifier: MIT\\n\\npragma solidity ^0.6.8;\\npragma experimental ABIEncoderV2;\\n\\nimport \\\"./CreditLine.sol\\\";\\nimport \\\"./external/FPMath.sol\\\";\\nimport \\\"@openzeppelin/contracts-ethereum-package/contracts/math/Math.sol\\\";\\nimport \\\"@openzeppelin/contracts-ethereum-package/contracts/math/SafeMath.sol\\\";\\n\\nlibrary Accountant {\\n  using SafeMath for uint256;\\n\\n  uint public constant interestDecimals = 1e18;\\n  uint public constant blocksPerDay = 5760;\\n  uint public constant blocksPerYear = (blocksPerDay * 365);\\n\\n  struct PaymentAllocation {\\n    uint interestPayment;\\n    uint principalPayment;\\n    uint additionalBalancePayment;\\n  }\\n\\n  function calculateInterestAndPrincipalAccrued(CreditLine cl, uint blockNumber) public view returns(uint, uint) {\\n    uint totalPayment = calculateAnnuityPayment(cl.balance(), cl.interestApr(), cl.termInDays(), cl.paymentPeriodInDays());\\n    uint interestAccrued = calculateInterestAccrued(cl, blockNumber);\\n    uint principalAccrued = calculatePrincipalAccrued(cl, totalPayment, interestAccrued, blockNumber);\\n    return (interestAccrued, principalAccrued);\\n  }\\n\\n  function calculatePrincipalAccrued(CreditLine cl, uint periodPayment, uint interestAccrued, uint blockNumber) public view returns(uint) {\\n    uint blocksPerPaymentPeriod = blocksPerDay * cl.paymentPeriodInDays();\\n    // Math.min guards against overflow. See comment in the calculateInterestAccrued for further explanation.\\n    uint lastUpdatedBlock = Math.min(blockNumber, cl.lastUpdatedBlock());\\n    uint numBlocksElapsed = blockNumber.sub(lastUpdatedBlock);\\n    int128 fractionOfPeriod = FPMath.divi(int256(numBlocksElapsed), int256(blocksPerPaymentPeriod));\\n    uint periodPaymentFraction = uint(FPMath.muli(fractionOfPeriod, int256(periodPayment)));\\n    return periodPaymentFraction.sub(interestAccrued);\\n  }\\n\\n  function calculateInterestAccrued(CreditLine cl, uint blockNumber) public view returns(uint) {\\n    // We use Math.min here to prevent integer overflow (ie. go negative) when calculating\\n    // numBlocksElapsed. Typically this shouldn't be possible, because\\n    // the lastUpdatedBlock couldn't be *after* the current blockNumber. However, when assessing\\n    // we allow this function to be called with a past block number, which raises the possibility\\n    // of overflow.\\n    // This use of min should not generate incorrect interest calculations, since\\n    // this functions purpose is just to normalize balances, and  will be called any time\\n    // a balance affecting action takes place (eg. drawdown, repayment, assessment)\\n    uint lastUpdatedBlock = Math.min(blockNumber, cl.lastUpdatedBlock());\\n\\n    uint numBlocksElapsed = blockNumber.sub(lastUpdatedBlock);\\n    uint totalInterestPerYear = (cl.balance().mul(cl.interestApr())).div(interestDecimals);\\n    return totalInterestPerYear.mul(numBlocksElapsed).div(blocksPerYear);\\n  }\\n\\n  function calculateAnnuityPayment(uint balance, uint interestApr, uint termInDays, uint paymentPeriodInDays) public pure returns(uint) {\\n    /*\\n    This is the standard amortization formula for an annuity payment amount.\\n    See: https://en.wikipedia.org/wiki/Amortization_calculator\\n\\n    The specific formula we're interested in can be expressed as:\\n    `balance * (periodRate / (1 - (1 / ((1 + periodRate) ^ periods_per_term))))`\\n\\n    FPMath is a library designed for emulating floating point numbers in solidity.\\n    At a high level, we are just turning all our uint256 numbers into floating points and\\n    doing the formula above, and then turning it back into an int64 at the end.\\n    */\\n\\n\\n    // Components used in the formula\\n    uint periodsPerTerm = termInDays / paymentPeriodInDays;\\n    int128 one = FPMath.fromInt(int256(1));\\n    int128 annualRate = FPMath.divi(int256(interestApr), int256(interestDecimals));\\n    int128 dailyRate = FPMath.div(annualRate, FPMath.fromInt(int256(365)));\\n    int128 periodRate = FPMath.mul(dailyRate, FPMath.fromInt(int256(paymentPeriodInDays)));\\n    int128 termRate = FPMath.pow(FPMath.add(one, periodRate), periodsPerTerm);\\n\\n    int128 denominator = FPMath.sub(one, FPMath.div(one, termRate));\\n    if (denominator == 0) {\\n      return balance / periodsPerTerm;\\n    }\\n    int128 paymentFractionFP = FPMath.div(periodRate, denominator);\\n    uint paymentFraction = uint(FPMath.muli(paymentFractionFP, int256(1e18)));\\n\\n    return (balance * paymentFraction) / 1e18;\\n  }\\n\\n  function allocatePayment(uint paymentAmount, uint balance, uint interestOwed, uint principalOwed) public pure returns(PaymentAllocation memory) {\\n    uint paymentRemaining = paymentAmount;\\n    uint interestPayment = Math.min(interestOwed, paymentRemaining);\\n    paymentRemaining = paymentRemaining.sub(interestPayment);\\n\\n    uint principalPayment = Math.min(principalOwed, paymentRemaining);\\n    paymentRemaining = paymentRemaining.sub(principalPayment);\\n\\n    uint balanceRemaining = balance.sub(principalPayment);\\n    uint additionalBalancePayment = Math.min(paymentRemaining, balanceRemaining);\\n\\n    return PaymentAllocation({\\n      interestPayment: interestPayment,\\n      principalPayment: principalPayment,\\n      additionalBalancePayment: additionalBalancePayment\\n    });\\n  }\\n\\n}\",\"keccak256\":\"0xbb1ab1638c171ef985325c969ee3d07ddbe65f38ada0643e60a920e30aa9396c\",\"license\":\"MIT\"},\"contracts/CreditDesk.sol\":{\"content\":\"// SPDX-License-Identifier: MIT\\n\\npragma solidity ^0.6.8;\\npragma experimental ABIEncoderV2;\\n\\nimport \\\"@openzeppelin/contracts-ethereum-package/contracts/access/Ownable.sol\\\";\\nimport \\\"@openzeppelin/contracts-ethereum-package/contracts/Initializable.sol\\\";\\nimport \\\"@openzeppelin/contracts-ethereum-package/contracts/math/SafeMath.sol\\\";\\nimport \\\"./Pool.sol\\\";\\nimport \\\"./Accountant.sol\\\";\\nimport \\\"./CreditLine.sol\\\";\\nimport \\\"./OwnerPausable.sol\\\";\\n\\ncontract CreditDesk is Initializable, OwnableUpgradeSafe, OwnerPausable {\\n  using SafeMath for uint256;\\n\\n  // Approximate number of blocks\\n  uint public constant blocksPerDay = 5760;\\n  address public poolAddress;\\n  uint public maxUnderwriterLimit = 0;\\n  uint public transactionLimit = 0;\\n\\n  struct Underwriter {\\n    uint governanceLimit;\\n    address[] creditLines;\\n  }\\n\\n  struct Borrower {\\n    address[] creditLines;\\n  }\\n\\n  event PaymentMade(address indexed payer, address indexed creditLine, uint interestAmount, uint principalAmount, uint remainingAmount);\\n  event PrepaymentMade(address indexed payer, address indexed creditLine, uint prepaymentAmount);\\n  event DrawdownMade(address indexed borrower, address indexed creditLine, uint drawdownAmount);\\n  event CreditLineCreated(address indexed borrower, address indexed creditLine);\\n  event PoolAddressUpdated(address indexed oldAddress, address indexed newAddress);\\n  event GovernanceUpdatedUnderwriterLimit(address indexed underwriter, uint newLimit);\\n  event LimitChanged(address indexed owner, string limitType, uint amount);\\n\\n  mapping(address => Underwriter) public underwriters;\\n  mapping(address => Borrower) private borrowers;\\n\\n  function initialize(address _poolAddress) public initializer {\\n    __Ownable_init();\\n    __OwnerPausable__init();\\n    setPoolAddress(_poolAddress);\\n  }\\n\\n  function setUnderwriterGovernanceLimit(address underwriterAddress, uint limit) external onlyOwner whenNotPaused {\\n    Underwriter storage underwriter = underwriters[underwriterAddress];\\n    require(withinMaxUnderwriterLimit(limit), \\\"This limit is greater than the max allowed by the protocol\\\");\\n    underwriter.governanceLimit = limit;\\n    emit GovernanceUpdatedUnderwriterLimit(underwriterAddress, limit);\\n  }\\n\\n  function createCreditLine(address _borrower, uint _limit, uint _interestApr, uint _minCollateralPercent, uint _paymentPeriodInDays, uint _termInDays) external whenNotPaused {\\n    Underwriter storage underwriter = underwriters[msg.sender];\\n    Borrower storage borrower = borrowers[_borrower];\\n    require(underwriterCanCreateThisCreditLine(_limit, underwriter), \\\"The underwriter cannot create this credit line\\\");\\n\\n    CreditLine cl = new CreditLine();\\n    cl.initialize(_borrower, _limit, _interestApr, _minCollateralPercent, _paymentPeriodInDays, _termInDays);\\n    cl.authorizePool(poolAddress);\\n\\n    underwriter.creditLines.push(address(cl));\\n    borrower.creditLines.push(address(cl));\\n    emit CreditLineCreated(_borrower, address(cl));\\n\\t}\\n\\n  function drawdown(uint amount, address creditLineAddress) external whenNotPaused {\\n    CreditLine cl = CreditLine(creditLineAddress);\\n    require(cl.borrower() == msg.sender, \\\"You do not belong to this credit line\\\");\\n    // Not strictly necessary, but provides a better error message to the user\\n    require(getPool().enoughBalance(poolAddress, amount), \\\"Pool does not have enough balance for this drawdown\\\");\\n    require(withinTransactionLimit(amount), \\\"Amount is over the per-transaction limit\\\");\\n    require(withinCreditLimit(amount, cl), \\\"The borrower does not have enough credit limit for this drawdown\\\");\\n\\n    if (cl.balance() == 0) {\\n      cl.setTermEndBlock(calculateNewTermEndBlock(cl));\\n      cl.setNextDueBlock(calculateNextDueBlock(cl));\\n    }\\n    (uint interestOwed, uint principalOwed) = getInterestAndPrincipalOwedAsOf(cl, block.number);\\n    uint balance = cl.balance().add(amount);\\n\\n    updateCreditLineAccounting(cl, balance, interestOwed, principalOwed);\\n    getPool().transferFrom(poolAddress, msg.sender, amount);\\n\\n    emit DrawdownMade(msg.sender, address(cl), amount);\\n  }\\n\\n  function pay(address creditLineAddress, uint amount) external payable whenNotPaused {\\n    CreditLine cl = CreditLine(creditLineAddress);\\n\\n    require(withinTransactionLimit(amount), \\\"Amount is over the per-transaction limit\\\");\\n    // Not strictly necessary, but provides a faster/better error message to the user\\n    require(getPool().enoughBalance(msg.sender, amount), \\\"You have insufficent balance for this payment\\\");\\n\\n    (uint paymentRemaining, uint interestPayment, uint principalPayment) = handlePayment(cl, amount, block.number, true);\\n    if (paymentRemaining > 0) {\\n      getPool().transferFrom(msg.sender, creditLineAddress, paymentRemaining);\\n      cl.setCollateralBalance(cl.collateralBalance().add(paymentRemaining));\\n    }\\n    if (interestPayment > 0) {\\n      getPool().collectInterestRepayment(msg.sender, interestPayment);\\n    }\\n    if (principalPayment > 0) {\\n      getPool().collectPrincipalRepayment(msg.sender, principalPayment);\\n    }\\n\\n    emit PaymentMade(cl.borrower(), address(cl), interestPayment, principalPayment, paymentRemaining);\\n  }\\n\\n  function prepay(address payable creditLineAddress, uint amount) external payable whenNotPaused {\\n    CreditLine cl = CreditLine(creditLineAddress);\\n\\n    require(withinTransactionLimit(amount), \\\"Amount is over the per-transaction limit\\\");\\n\\n    getPool().transferFrom(msg.sender, creditLineAddress, amount);\\n    uint newPrepaymentBalance = cl.prepaymentBalance().add(amount);\\n    cl.setPrepaymentBalance(newPrepaymentBalance);\\n\\n    emit PrepaymentMade(msg.sender, address(cl), amount);\\n  }\\n\\n  function addCollateral(address payable creditLineAddress, uint amount) external payable whenNotPaused {\\n    CreditLine cl = CreditLine(creditLineAddress);\\n\\n    getPool().transferFrom(msg.sender, creditLineAddress, amount);\\n    uint newCollateralBalance = cl.collateralBalance().add(amount);\\n    cl.setCollateralBalance(newCollateralBalance);\\n  }\\n\\n  function assessCreditLine(address creditLineAddress) external whenNotPaused {\\n    CreditLine cl = CreditLine(creditLineAddress);\\n    // Do not assess until a full period has elapsed\\n    if (block.number < cl.nextDueBlock()) {\\n      return;\\n    }\\n\\n    (uint paymentRemaining, uint interestPayment, uint principalPayment) = handlePayment(cl, cl.prepaymentBalance(), cl.nextDueBlock(), false);\\n\\n    cl.setPrepaymentBalance(paymentRemaining);\\n    getPool().collectInterestRepayment(msg.sender, interestPayment);\\n    getPool().collectPrincipalRepayment(msg.sender, principalPayment);\\n    cl.setNextDueBlock(calculateNextDueBlock(cl));\\n    if (cl.principalOwed() > 0) {\\n      handleLatePayments(cl);\\n    }\\n    emit PaymentMade(cl.borrower(), address(cl), interestPayment, principalPayment, paymentRemaining);\\n  }\\n\\n  function setPoolAddress(address newPoolAddress) public onlyOwner whenNotPaused returns (address) {\\n    // Sanity check the new address;\\n    Pool(newPoolAddress).totalShares();\\n\\n    emit PoolAddressUpdated(poolAddress, newPoolAddress);\\n    return poolAddress = newPoolAddress;\\n  }\\n\\n  function setMaxUnderwriterLimit(uint amount) public onlyOwner whenNotPaused {\\n    maxUnderwriterLimit = amount;\\n    emit LimitChanged(msg.sender, \\\"maxUnderwriterLimit\\\", amount);\\n  }\\n\\n  function setTransactionLimit(uint amount) public onlyOwner whenNotPaused {\\n    transactionLimit = amount;\\n    emit LimitChanged(msg.sender, \\\"transactionLimit\\\", amount);\\n  }\\n\\n  // Public View Functions (Getters)\\n\\n  function getUnderwriterCreditLines(address underwriterAddress) public view whenNotPaused returns (address[] memory) {\\n    return underwriters[underwriterAddress].creditLines;\\n  }\\n\\n  function getBorrowerCreditLines(address borrowerAddress) public view whenNotPaused returns (address[] memory) {\\n    return borrowers[borrowerAddress].creditLines;\\n  }\\n\\n  /*\\n   * Internal Functions\\n  */\\n\\n  function handlePayment(CreditLine cl, uint paymentAmount, uint asOfBlock, bool allowFullBalancePayOff) internal returns (uint, uint, uint) {\\n    (uint interestOwed, uint principalOwed) = getInterestAndPrincipalOwedAsOf(cl, asOfBlock);\\n    Accountant.PaymentAllocation memory pa = Accountant.allocatePayment(paymentAmount, cl.balance(), interestOwed, principalOwed);\\n\\n    uint newBalance = cl.balance().sub(pa.principalPayment);\\n    if (allowFullBalancePayOff) {\\n      newBalance = newBalance.sub(pa.additionalBalancePayment);\\n    }\\n    uint totalPrincipalPayment = cl.balance().sub(newBalance);\\n    uint paymentRemaining = paymentAmount.sub(pa.interestPayment).sub(totalPrincipalPayment);\\n\\n    updateCreditLineAccounting(cl, newBalance, interestOwed.sub(pa.interestPayment), principalOwed.sub(pa.principalPayment));\\n\\n    assert(paymentRemaining.add(pa.interestPayment).add(totalPrincipalPayment) == paymentAmount);\\n\\n    return (paymentRemaining, pa.interestPayment, totalPrincipalPayment);\\n  }\\n\\n  function handleLatePayments(CreditLine cl) internal {\\n    // No op for now;\\n  }\\n\\n  function getPool() internal view returns (Pool) {\\n    return Pool(poolAddress);\\n  }\\n\\n  function getInterestAndPrincipalOwedAsOf(CreditLine cl, uint blockNumber) internal view returns (uint, uint) {\\n    (uint interestAccrued, uint principalAccrued) = Accountant.calculateInterestAndPrincipalAccrued(cl, blockNumber);\\n    return (cl.interestOwed().add(interestAccrued), cl.principalOwed().add(principalAccrued));\\n  }\\n\\n  function withinCreditLimit(uint amount, CreditLine cl) internal view returns(bool) {\\n    return cl.balance().add(amount) <= cl.limit();\\n  }\\n\\n  function withinTransactionLimit(uint amount) internal view returns(bool) {\\n    return amount <= transactionLimit;\\n  }\\n\\n  function calculateNewTermEndBlock(CreditLine cl) internal view returns (uint) {\\n    return block.number.add(blocksPerDay.mul(cl.termInDays()));\\n  }\\n\\n  function calculateNextDueBlock(CreditLine cl) internal view returns (uint) {\\n    uint blocksPerPeriod = cl.paymentPeriodInDays().mul(blocksPerDay);\\n    uint currentNextDueBlock;\\n    if (cl.nextDueBlock() != 0) {\\n      currentNextDueBlock = cl.nextDueBlock();\\n    } else {\\n      currentNextDueBlock = block.number;\\n    }\\n    return currentNextDueBlock.add(blocksPerPeriod);\\n  }\\n\\n  function underwriterCanCreateThisCreditLine(uint newAmount, Underwriter storage underwriter) internal view returns(bool) {\\n    uint creditCurrentlyExtended = getCreditCurrentlyExtended(underwriter);\\n    uint totalToBeExtended = creditCurrentlyExtended.add(newAmount);\\n    return totalToBeExtended <= underwriter.governanceLimit;\\n  }\\n\\n  function withinMaxUnderwriterLimit(uint amount) internal view returns (bool) {\\n    return amount <= maxUnderwriterLimit;\\n  }\\n\\n  function getCreditCurrentlyExtended(Underwriter storage underwriter) internal view returns (uint) {\\n    uint creditExtended = 0;\\n    for (uint i = 0; i < underwriter.creditLines.length; i++) {\\n      CreditLine cl = CreditLine(underwriter.creditLines[i]);\\n      creditExtended = creditExtended.add(cl.limit());\\n    }\\n    return creditExtended;\\n  }\\n\\n  function updateCreditLineAccounting(CreditLine cl, uint balance, uint interestOwed, uint principalOwed) internal {\\n    cl.setBalance(balance);\\n    cl.setInterestOwed(interestOwed);\\n    cl.setPrincipalOwed(principalOwed);\\n    cl.setLastUpdatedBlock(block.number);\\n\\n    if (balance == 0) {\\n      cl.setTermEndBlock(0);\\n      cl.setNextDueBlock(0);\\n    }\\n  }\\n}\\n\",\"keccak256\":\"0x40cb4576f59cb98d7cc368309839e275b5aeadf8aa18f3c54d39f05cfc6cb1b2\",\"license\":\"MIT\"},\"contracts/CreditLine.sol\":{\"content\":\"// SPDX-License-Identifier: MIT\\n\\npragma solidity ^0.6.8;\\n\\nimport \\\"./Pool.sol\\\";\\nimport \\\"@openzeppelin/contracts-ethereum-package/contracts/access/Ownable.sol\\\";\\nimport \\\"@openzeppelin/contracts-ethereum-package/contracts/Initializable.sol\\\";\\nimport \\\"@openzeppelin/contracts-ethereum-package/contracts/token/ERC20/ERC20.sol\\\";\\n\\ncontract CreditLine is Initializable, OwnableUpgradeSafe {\\n  // Credit line terms\\n  address public borrower;\\n  uint public collateral;\\n  uint public limit;\\n  uint public interestApr;\\n  uint public minCollateralPercent;\\n  uint public paymentPeriodInDays;\\n  uint public termInDays;\\n\\n  // Accounting variables\\n  uint public balance;\\n  uint public interestOwed;\\n  uint public principalOwed;\\n  uint public prepaymentBalance;\\n  uint public collateralBalance;\\n  uint public termEndBlock;\\n  uint public nextDueBlock;\\n  uint public lastUpdatedBlock;\\n\\n  function initialize(\\n    address _borrower,\\n    uint _limit,\\n    uint _interestApr,\\n    uint _minCollateralPercent,\\n    uint _paymentPeriodInDays,\\n    uint _termInDays\\n  ) public initializer {\\n    __Ownable_init();\\n    borrower = _borrower;\\n    limit = _limit;\\n    interestApr = _interestApr;\\n    minCollateralPercent = _minCollateralPercent;\\n    paymentPeriodInDays = _paymentPeriodInDays;\\n    termInDays = _termInDays;\\n    lastUpdatedBlock = block.number;\\n  }\\n\\n  function setTermEndBlock(uint newTermEndBlock) external onlyOwner returns (uint) {\\n    return termEndBlock = newTermEndBlock;\\n  }\\n\\n  function setNextDueBlock(uint newNextDueBlock) external onlyOwner returns (uint) {\\n    return nextDueBlock = newNextDueBlock;\\n  }\\n\\n  function setBalance(uint newBalance) external onlyOwner returns(uint) {\\n    return balance = newBalance;\\n  }\\n\\n  function setInterestOwed(uint newInterestOwed) external onlyOwner returns (uint) {\\n    return interestOwed = newInterestOwed;\\n  }\\n\\n  function setPrincipalOwed(uint newPrincipalOwed) external onlyOwner returns (uint) {\\n    return principalOwed = newPrincipalOwed;\\n  }\\n\\n  function setPrepaymentBalance(uint newPrepaymentBalance) external onlyOwner returns (uint) {\\n    return prepaymentBalance = newPrepaymentBalance;\\n  }\\n\\n  function setCollateralBalance(uint newCollateralBalance) external onlyOwner returns (uint) {\\n    return collateralBalance = newCollateralBalance;\\n  }\\n\\n  function setLastUpdatedBlock(uint newLastUpdatedBlock) external onlyOwner returns (uint) {\\n    return lastUpdatedBlock = newLastUpdatedBlock;\\n  }\\n\\n  function authorizePool(address poolAddress) external onlyOwner {\\n    address erc20address = Pool(poolAddress).erc20address();\\n\\n    // Approve the pool for an infinite amount\\n    ERC20UpgradeSafe(erc20address).approve(poolAddress, uint(-1));\\n  }\\n}\\n\",\"keccak256\":\"0xaa3e3f782ae01fbef4f30ca4cf92d87503ac2f137258563233d32199f11a99c4\",\"license\":\"MIT\"},\"contracts/OwnerPausable.sol\":{\"content\":\"// SPDX-License-Identifier: MIT\\npragma solidity ^0.6.8;\\n\\nimport \\\"@openzeppelin/contracts-ethereum-package/contracts/utils/Pausable.sol\\\";\\nimport \\\"@openzeppelin/contracts-ethereum-package/contracts/access/Ownable.sol\\\";\\n\\ncontract OwnerPausable is OwnableUpgradeSafe, PausableUpgradeSafe {\\n\\n  function __OwnerPausable__init() public {\\n    __Pausable_init_unchained();\\n  }\\n\\n  /**\\n    * @dev Pauses all functions guarded by Pause\\n    *\\n    * See {Pausable-_pause}.\\n    *\\n    * Requirements:\\n    *\\n    * - the caller must be the owner.\\n    */\\n  function pause() public onlyOwner {\\n      _pause();\\n  }\\n\\n  /**\\n    * @dev Unpauses the contract\\n    *\\n    * See {Pausable-_unpause}.\\n    *\\n    * Requirements:\\n    *\\n    * - the caller must be the owner`.\\n    */\\n  function unpause() public onlyOwner {\\n      _unpause();\\n  }\\n}\",\"keccak256\":\"0xfbadac808212b5b29f39c5cb109a6cab1b36ab7becd68383d452b1e9132700c5\",\"license\":\"MIT\"},\"contracts/Pool.sol\":{\"content\":\"// SPDX-License-Identifier: MIT\\n\\npragma solidity ^0.6.8;\\n\\nimport \\\"@openzeppelin/contracts-ethereum-package/contracts/access/Ownable.sol\\\";\\nimport \\\"@openzeppelin/contracts-ethereum-package/contracts/Initializable.sol\\\";\\nimport \\\"@openzeppelin/contracts-ethereum-package/contracts/math/SafeMath.sol\\\";\\nimport \\\"@openzeppelin/contracts-ethereum-package/contracts/token/ERC20/ERC20.sol\\\";\\nimport \\\"./OwnerPausable.sol\\\";\\n\\ncontract Pool is Initializable, OwnableUpgradeSafe, OwnerPausable {\\n  using SafeMath for uint256;\\n  uint public sharePrice;\\n  uint mantissa;\\n  uint public totalShares;\\n  mapping(address => uint) public capitalProviders;\\n  address public erc20address;\\n  string name;\\n  uint public totalFundsLimit = 0;\\n  uint public transactionLimit = 0;\\n\\n  event DepositMade(address indexed capitalProvider, uint amount);\\n  event WithdrawalMade(address indexed capitalProvider, uint amount);\\n  event TransferMade(address indexed from, address indexed to, uint amount);\\n  event InterestCollected(address indexed payer, uint amount);\\n  event PrincipalCollected(address indexed payer, uint amount);\\n  event LimitChanged(address indexed owner, string limitType, uint amount);\\n\\n  function initialize(address _erc20address, string memory _name, uint _mantissa) public initializer {\\n    __Context_init_unchained();\\n    __Ownable_init_unchained();\\n    __OwnerPausable__init();\\n    name = _name;\\n    erc20address = _erc20address;\\n    mantissa = _mantissa;\\n    sharePrice = _mantissa;\\n\\n    // Sanity check the address\\n    ERC20UpgradeSafe(erc20address).totalSupply();\\n\\n    // Unlock self for infinite amount\\n    ERC20UpgradeSafe(erc20address).approve(address(this), uint(-1));\\n  }\\n\\n  function deposit(uint amount) external payable whenNotPaused {\\n    require(transactionWithinLimit(amount), \\\"Amount is over the per-transaction limit.\\\");\\n    // Determine current shares the address has, and the amount of new shares to be added\\n    uint currentShares = capitalProviders[msg.sender];\\n    uint depositShares = getNumShares(amount, mantissa, sharePrice);\\n    uint potentialNewTotalShares = totalShares.add(depositShares);\\n    require(poolWithinLimit(potentialNewTotalShares), \\\"Deposit would put the Pool over the total limit.\\\");\\n\\n    doERC20Transfer(msg.sender, address(this), amount);\\n\\n    // Add the new shares to both the pool and the address\\n    totalShares = totalShares.add(depositShares);\\n    capitalProviders[msg.sender] = currentShares.add(depositShares);\\n\\n    emit DepositMade(msg.sender, amount);\\n  }\\n\\n  function withdraw(uint amount) external whenNotPaused {\\n    // Determine current shares the address has and the shares requested to withdraw\\n    require(transactionWithinLimit(amount), \\\"Amount is over the per-transaction limit\\\");\\n    uint currentShares = capitalProviders[msg.sender];\\n    uint withdrawShares = getNumShares(amount, mantissa, sharePrice);\\n\\n    // Ensure the address has enough value in the pool\\n    require(withdrawShares <= currentShares, \\\"Amount requested is greater than what this address owns\\\");\\n\\n    // Remove the new shares from both the pool and the address\\n    totalShares = totalShares.sub(withdrawShares);\\n    capitalProviders[msg.sender] = currentShares.sub(withdrawShares);\\n\\n    // Send the amount to the address\\n    doERC20Transfer(address(this), msg.sender, amount);\\n    emit WithdrawalMade(msg.sender, amount);\\n  }\\n\\n  function collectInterestRepayment(address from, uint amount) external whenNotPaused {\\n    doERC20Transfer(from, address(this), amount);\\n    uint increment = amount.mul(mantissa).div(totalShares);\\n    sharePrice = sharePrice + increment;\\n    emit InterestCollected(from, amount);\\n  }\\n\\n  function collectPrincipalRepayment(address from, uint amount) external whenNotPaused {\\n    // Purposefully does nothing except receive money. No share price updates for principal.\\n    doERC20Transfer(from, address(this), amount);\\n    emit PrincipalCollected(from, amount);\\n  }\\n\\n  function setTotalFundsLimit(uint amount) public onlyOwner whenNotPaused {\\n    totalFundsLimit = amount;\\n    emit LimitChanged(msg.sender, \\\"totalFundsLimit\\\", amount);\\n  }\\n\\n  function setTransactionLimit(uint amount) public onlyOwner whenNotPaused {\\n    transactionLimit = amount;\\n    emit LimitChanged(msg.sender, \\\"transactionLimit\\\", amount);\\n  }\\n\\n  function transferFrom(address from, address to, uint amount) public onlyOwner whenNotPaused returns (bool) {\\n    bool result = doERC20Transfer(from, to, amount);\\n    emit TransferMade(from, to, amount);\\n    return result;\\n  }\\n\\n  function enoughBalance(address user, uint amount) public view whenNotPaused returns(bool) {\\n    return ERC20UpgradeSafe(erc20address).balanceOf(user) >= amount;\\n  }\\n\\n  /* Internal Functions */\\n\\n  function poolWithinLimit(uint _totalShares) internal view returns (bool) {\\n    return _totalShares.mul(sharePrice).div(mantissa) <= totalFundsLimit;\\n  }\\n\\n  function transactionWithinLimit(uint amount) internal view returns (bool) {\\n    return amount <= transactionLimit;\\n  }\\n\\n  function getNumShares(uint amount, uint multiplier, uint price) internal pure returns (uint) {\\n    return amount.mul(multiplier).div(price);\\n  }\\n\\n  function doERC20Transfer(address from, address to, uint amount) internal returns (bool) {\\n    ERC20UpgradeSafe erc20 = ERC20UpgradeSafe(erc20address);\\n    uint balanceBefore = erc20.balanceOf(to);\\n\\n    bool success = erc20.transferFrom(from, to, amount);\\n\\n    // Calculate the amount that was *actually* transferred\\n    uint balanceAfter = erc20.balanceOf(to);\\n    require(balanceAfter >= balanceBefore, \\\"Token Transfer Overflow Error\\\");\\n    return success;\\n  }\\n\\n  function doERC20Withdraw(address payable to, uint amount) internal returns (bool) {\\n    ERC20UpgradeSafe erc20 = ERC20UpgradeSafe(erc20address);\\n    bool success = erc20.transfer(to, amount);\\n\\n    require(success, \\\"Token Withdraw Failed\\\");\\n    return success;\\n  }\\n}\\n\",\"keccak256\":\"0x9fce9e0526501c422187e21a0a6f71acd0959a7c7b7031387c28bd61e528e0f4\",\"license\":\"MIT\"},\"contracts/external/FPMath.sol\":{\"content\":\"// SPDX-License-Identifier: BSD-4\\n/**********\\nThis is a direct copy from https://raw.githubusercontent.com/abdk-consulting/abdk-libraries-solidity/master/ABDKMath64x64.sol\\nTheir docs are at https://github.com/abdk-consulting/abdk-libraries-solidity/blob/master/ABDKMath64x64.md\\nWe use this library to help us handle exponents and floating points for our fixed payment calculations.\\n***********/\\n\\n/*\\n * ABDK Math 64.64 Smart Contract Library.  Copyright \\u00a9 2019 by ABDK Consulting.\\n * Author: Mikhail Vladimirov <mikhail.vladimirov@gmail.com>\\n\\nCopyright (c) 2019, ABDK Consulting\\n\\nAll rights reserved.\\n\\nRedistribution and use in source and binary forms, with or without modification, are permitted provided that the following conditions are met:\\n\\nRedistributions of source code must retain the above copyright notice, this list of conditions and the following disclaimer.\\nRedistributions in binary form must reproduce the above copyright notice, this list of\\nconditions and the following disclaimer in the documentation and/or other materials provided with\\nthe distribution. All advertising materials mentioning features or use of this software must display\\nthe following acknowledgement: This product includes software developed by ABDK Consulting.\\nNeither the name of ABDK Consulting nor the names of its contributors may be used to endorse\\nor promote products derived from this software without specific prior written permission.\\n\\nTHIS SOFTWARE IS PROVIDED BY ABDK CONSULTING ''AS IS'' AND ANY EXPRESS OR IMPLIED WARRANTIES,\\nINCLUDING, BUT NOT LIMITED TO, THE IMPLIED WARRANTIES OF MERCHANTABILITY AND FITNESS FOR A\\nPARTICULAR PURPOSE ARE DISCLAIMED. IN NO EVENT SHALL ABDK CONSULTING BE LIABLE FOR ANY DIRECT,\\nINDIRECT, INCIDENTAL, SPECIAL, EXEMPLARY, OR CONSEQUENTIAL DAMAGES (INCLUDING, BUT NOT LIMITED\\nTO, PROCUREMENT OF SUBSTITUTE GOODS OR SERVICES; LOSS OF USE, DATA, OR PROFITS; OR BUSINESS INTERRUPTION)\\nHOWEVER CAUSED AND ON ANY THEORY OF LIABILITY, WHETHER IN CONTRACT, STRICT LIABILITY, OR TORT\\n(INCLUDING NEGLIGENCE OR OTHERWISE) ARISING IN ANY WAY OUT OF THE USE OF THIS SOFTWARE,\\nEVEN IF ADVISED OF THE POSSIBILITY OF SUCH DAMAGE.\\n */\\npragma solidity ^0.6.8;\\n\\n/**\\n * Smart contract library of mathematical functions operating with signed\\n * 64.64-bit fixed point numbers.  Signed 64.64-bit fixed point number is\\n * basically a simple fraction whose numerator is signed 128-bit integer and\\n * denominator is 2^64.  As long as denominator is always the same, there is no\\n * need to store it, thus in Solidity signed 64.64-bit fixed point numbers are\\n * represented by int128 type holding only the numerator.\\n */\\n// Original name was ABDKMath64x64. I renamed to simply FPMath (ie. Floating Point Math) for convenience.\\nlibrary FPMath {\\n  /**\\n  @dev\\n   * Minimum value signed 64.64-bit fixed point number may have.\\n   */\\n  int128 private constant MIN_64x64 = -0x80000000000000000000000000000000;\\n\\n  /**\\n  @dev\\n   * Maximum value signed 64.64-bit fixed point number may have.\\n   */\\n  int128 private constant MAX_64x64 = 0x7FFFFFFFFFFFFFFFFFFFFFFFFFFFFFFF;\\n\\n  /**\\n   * Convert signed 256-bit integer number into signed 64.64-bit fixed point\\n   * number.  Revert on overflow.\\n   *\\n   * @param x signed 256-bit integer number\\n   * @return signed 64.64-bit fixed point number\\n   */\\n  function fromInt (int256 x) internal pure returns (int128) {\\n    require (x >= -0x8000000000000000 && x <= 0x7FFFFFFFFFFFFFFF);\\n    return int128 (x << 64);\\n  }\\n\\n  /**\\n   * Convert signed 64.64 fixed point number into signed 64-bit integer number\\n   * rounding down.\\n   *\\n   * @param x signed 64.64-bit fixed point number\\n   * @return signed 64-bit integer number\\n   */\\n  function toInt (int128 x) internal pure returns (int64) {\\n    return int64 (x >> 64);\\n  }\\n\\n  /**\\n   * Convert unsigned 256-bit integer number into signed 64.64-bit fixed point\\n   * number.  Revert on overflow.\\n   *\\n   * @param x unsigned 256-bit integer number\\n   * @return signed 64.64-bit fixed point number\\n   */\\n  function fromUInt (uint256 x) internal pure returns (int128) {\\n    require (x <= 0x7FFFFFFFFFFFFFFF);\\n    return int128 (x << 64);\\n  }\\n\\n  /**\\n   * Convert signed 64.64 fixed point number into unsigned 64-bit integer\\n   * number rounding down.  Revert on underflow.\\n   *\\n   * @param x signed 64.64-bit fixed point number\\n   * @return unsigned 64-bit integer number\\n   */\\n  function toUInt (int128 x) internal pure returns (uint64) {\\n    require (x >= 0);\\n    return uint64 (x >> 64);\\n  }\\n\\n  /**\\n   * Convert signed 128.128 fixed point number into signed 64.64-bit fixed point\\n   * number rounding down.  Revert on overflow.\\n   *\\n   * @param x signed 128.128-bin fixed point number\\n   * @return signed 64.64-bit fixed point number\\n   */\\n  function from128x128 (int256 x) internal pure returns (int128) {\\n    int256 result = x >> 64;\\n    require (result >= MIN_64x64 && result <= MAX_64x64);\\n    return int128 (result);\\n  }\\n\\n  /**\\n   * Convert signed 64.64 fixed point number into signed 128.128 fixed point\\n   * number.\\n   *\\n   * @param x signed 64.64-bit fixed point number\\n   * @return signed 128.128 fixed point number\\n   */\\n  function to128x128 (int128 x) internal pure returns (int256) {\\n    return int256 (x) << 64;\\n  }\\n\\n  /**\\n   * Calculate x + y.  Revert on overflow.\\n   *\\n   * @param x signed 64.64-bit fixed point number\\n   * @param y signed 64.64-bit fixed point number\\n   * @return signed 64.64-bit fixed point number\\n   */\\n  function add (int128 x, int128 y) internal pure returns (int128) {\\n    int256 result = int256(x) + y;\\n    require (result >= MIN_64x64 && result <= MAX_64x64);\\n    return int128 (result);\\n  }\\n\\n  /**\\n   * Calculate x - y.  Revert on overflow.\\n   *\\n   * @param x signed 64.64-bit fixed point number\\n   * @param y signed 64.64-bit fixed point number\\n   * @return signed 64.64-bit fixed point number\\n   */\\n  function sub (int128 x, int128 y) internal pure returns (int128) {\\n    int256 result = int256(x) - y;\\n    require (result >= MIN_64x64 && result <= MAX_64x64);\\n    return int128 (result);\\n  }\\n\\n  /**\\n   * Calculate x * y rounding down.  Revert on overflow.\\n   *\\n   * @param x signed 64.64-bit fixed point number\\n   * @param y signed 64.64-bit fixed point number\\n   * @return signed 64.64-bit fixed point number\\n   */\\n  function mul (int128 x, int128 y) internal pure returns (int128) {\\n    int256 result = int256(x) * y >> 64;\\n    require (result >= MIN_64x64 && result <= MAX_64x64);\\n    return int128 (result);\\n  }\\n\\n  /**\\n   * Calculate x * y rounding towards zero, where x is signed 64.64 fixed point\\n   * number and y is signed 256-bit integer number.  Revert on overflow.\\n   *\\n   * @param x signed 64.64 fixed point number\\n   * @param y signed 256-bit integer number\\n   * @return signed 256-bit integer number\\n   */\\n  function muli (int128 x, int256 y) internal pure returns (int256) {\\n    if (x == MIN_64x64) {\\n      require (y >= -0xFFFFFFFFFFFFFFFFFFFFFFFFFFFFFFFFFFFFFFFFFFFFFFFF &&\\n        y <= 0x1000000000000000000000000000000000000000000000000);\\n      return -y << 63;\\n    } else {\\n      bool negativeResult = false;\\n      if (x < 0) {\\n        x = -x;\\n        negativeResult = true;\\n      }\\n      if (y < 0) {\\n        y = -y; // We rely on overflow behavior here\\n        negativeResult = !negativeResult;\\n      }\\n      uint256 absoluteResult = mulu (x, uint256 (y));\\n      if (negativeResult) {\\n        require (absoluteResult <=\\n          0x8000000000000000000000000000000000000000000000000000000000000000);\\n        return -int256 (absoluteResult); // We rely on overflow behavior here\\n      } else {\\n        require (absoluteResult <=\\n          0x7FFFFFFFFFFFFFFFFFFFFFFFFFFFFFFFFFFFFFFFFFFFFFFFFFFFFFFFFFFFFFFF);\\n        return int256 (absoluteResult);\\n      }\\n    }\\n  }\\n\\n  /**\\n   * Calculate x * y rounding down, where x is signed 64.64 fixed point number\\n   * and y is unsigned 256-bit integer number.  Revert on overflow.\\n   *\\n   * @param x signed 64.64 fixed point number\\n   * @param y unsigned 256-bit integer number\\n   * @return unsigned 256-bit integer number\\n   */\\n  function mulu (int128 x, uint256 y) internal pure returns (uint256) {\\n    if (y == 0) return 0;\\n\\n    require (x >= 0);\\n\\n    uint256 lo = (uint256 (x) * (y & 0xFFFFFFFFFFFFFFFFFFFFFFFFFFFFFFFF)) >> 64;\\n    uint256 hi = uint256 (x) * (y >> 128);\\n\\n    require (hi <= 0xFFFFFFFFFFFFFFFFFFFFFFFFFFFFFFFFFFFFFFFFFFFFFFFF);\\n    hi <<= 64;\\n\\n    require (hi <=\\n      0xFFFFFFFFFFFFFFFFFFFFFFFFFFFFFFFFFFFFFFFFFFFFFFFFFFFFFFFFFFFFFFFF - lo);\\n    return hi + lo;\\n  }\\n\\n  /**\\n   * Calculate x / y rounding towards zero.  Revert on overflow or when y is\\n   * zero.\\n   *\\n   * @param x signed 64.64-bit fixed point number\\n   * @param y signed 64.64-bit fixed point number\\n   * @return signed 64.64-bit fixed point number\\n   */\\n  function div (int128 x, int128 y) internal pure returns (int128) {\\n    require (y != 0);\\n    int256 result = (int256 (x) << 64) / y;\\n    require (result >= MIN_64x64 && result <= MAX_64x64);\\n    return int128 (result);\\n  }\\n\\n  /**\\n   * Calculate x / y rounding towards zero, where x and y are signed 256-bit\\n   * integer numbers.  Revert on overflow or when y is zero.\\n   *\\n   * @param x signed 256-bit integer number\\n   * @param y signed 256-bit integer number\\n   * @return signed 64.64-bit fixed point number\\n   */\\n  function divi (int256 x, int256 y) internal pure returns (int128) {\\n    require (y != 0);\\n\\n    bool negativeResult = false;\\n    if (x < 0) {\\n      x = -x; // We rely on overflow behavior here\\n      negativeResult = true;\\n    }\\n    if (y < 0) {\\n      y = -y; // We rely on overflow behavior here\\n      negativeResult = !negativeResult;\\n    }\\n    uint128 absoluteResult = divuu (uint256 (x), uint256 (y));\\n    if (negativeResult) {\\n      require (absoluteResult <= 0x80000000000000000000000000000000);\\n      return -int128 (absoluteResult); // We rely on overflow behavior here\\n    } else {\\n      require (absoluteResult <= 0x7FFFFFFFFFFFFFFFFFFFFFFFFFFFFFFF);\\n      return int128 (absoluteResult); // We rely on overflow behavior here\\n    }\\n  }\\n\\n  /**\\n   * Calculate x / y rounding towards zero, where x and y are unsigned 256-bit\\n   * integer numbers.  Revert on overflow or when y is zero.\\n   *\\n   * @param x unsigned 256-bit integer number\\n   * @param y unsigned 256-bit integer number\\n   * @return signed 64.64-bit fixed point number\\n   */\\n  function divu (uint256 x, uint256 y) internal pure returns (int128) {\\n    require (y != 0);\\n    uint128 result = divuu (x, y);\\n    require (result <= uint128 (MAX_64x64));\\n    return int128 (result);\\n  }\\n\\n  /**\\n   * Calculate -x.  Revert on overflow.\\n   *\\n   * @param x signed 64.64-bit fixed point number\\n   * @return signed 64.64-bit fixed point number\\n   */\\n  function neg (int128 x) internal pure returns (int128) {\\n    require (x != MIN_64x64);\\n    return -x;\\n  }\\n\\n  /**\\n   * Calculate |x|.  Revert on overflow.\\n   *\\n   * @param x signed 64.64-bit fixed point number\\n   * @return signed 64.64-bit fixed point number\\n   */\\n  function abs (int128 x) internal pure returns (int128) {\\n    require (x != MIN_64x64);\\n    return x < 0 ? -x : x;\\n  }\\n\\n  /**\\n   * Calculate 1 / x rounding towards zero.  Revert on overflow or when x is\\n   * zero.\\n   *\\n   * @param x signed 64.64-bit fixed point number\\n   * @return signed 64.64-bit fixed point number\\n   */\\n  function inv (int128 x) internal pure returns (int128) {\\n    require (x != 0);\\n    int256 result = int256 (0x100000000000000000000000000000000) / x;\\n    require (result >= MIN_64x64 && result <= MAX_64x64);\\n    return int128 (result);\\n  }\\n\\n  /**\\n   * Calculate arithmetics average of x and y, i.e. (x + y) / 2 rounding down.\\n   *\\n   * @param x signed 64.64-bit fixed point number\\n   * @param y signed 64.64-bit fixed point number\\n   * @return signed 64.64-bit fixed point number\\n   */\\n  function avg (int128 x, int128 y) internal pure returns (int128) {\\n    return int128 ((int256 (x) + int256 (y)) >> 1);\\n  }\\n\\n  /**\\n   * Calculate geometric average of x and y, i.e. sqrt (x * y) rounding down.\\n   * Revert on overflow or in case x * y is negative.\\n   *\\n   * @param x signed 64.64-bit fixed point number\\n   * @param y signed 64.64-bit fixed point number\\n   * @return signed 64.64-bit fixed point number\\n   */\\n  function gavg (int128 x, int128 y) internal pure returns (int128) {\\n    int256 m = int256 (x) * int256 (y);\\n    require (m >= 0);\\n    require (m <\\n        0x4000000000000000000000000000000000000000000000000000000000000000);\\n    return int128 (sqrtu (uint256 (m), uint256 (x) + uint256 (y) >> 1));\\n  }\\n\\n  /**\\n   * Calculate x^y assuming 0^0 is 1, where x is signed 64.64 fixed point number\\n   * and y is unsigned 256-bit integer number.  Revert on overflow.\\n   *\\n   * @param x signed 64.64-bit fixed point number\\n   * @param y uint256 value\\n   * @return signed 64.64-bit fixed point number\\n   */\\n  function pow (int128 x, uint256 y) internal pure returns (int128) {\\n    uint256 absoluteResult;\\n    bool negativeResult = false;\\n    if (x >= 0) {\\n      absoluteResult = powu (uint256 (x) << 63, y);\\n    } else {\\n      // We rely on overflow behavior here\\n      absoluteResult = powu (uint256 (uint128 (-x)) << 63, y);\\n      negativeResult = y & 1 > 0;\\n    }\\n\\n    absoluteResult >>= 63;\\n\\n    if (negativeResult) {\\n      require (absoluteResult <= 0x80000000000000000000000000000000);\\n      return -int128 (absoluteResult); // We rely on overflow behavior here\\n    } else {\\n      require (absoluteResult <= 0x7FFFFFFFFFFFFFFFFFFFFFFFFFFFFFFF);\\n      return int128 (absoluteResult); // We rely on overflow behavior here\\n    }\\n  }\\n\\n  /**\\n   * Calculate sqrt (x) rounding down.  Revert if x < 0.\\n   *\\n   * @param x signed 64.64-bit fixed point number\\n   * @return signed 64.64-bit fixed point number\\n   */\\n  function sqrt (int128 x) internal pure returns (int128) {\\n    require (x >= 0);\\n    return int128 (sqrtu (uint256 (x) << 64, 0x10000000000000000));\\n  }\\n\\n  /**\\n   * Calculate binary logarithm of x.  Revert if x <= 0.\\n   *\\n   * @param x signed 64.64-bit fixed point number\\n   * @return signed 64.64-bit fixed point number\\n   */\\n  function log_2 (int128 x) internal pure returns (int128) {\\n    require (x > 0);\\n\\n    int256 msb = 0;\\n    int256 xc = x;\\n    if (xc >= 0x10000000000000000) { xc >>= 64; msb += 64; }\\n    if (xc >= 0x100000000) { xc >>= 32; msb += 32; }\\n    if (xc >= 0x10000) { xc >>= 16; msb += 16; }\\n    if (xc >= 0x100) { xc >>= 8; msb += 8; }\\n    if (xc >= 0x10) { xc >>= 4; msb += 4; }\\n    if (xc >= 0x4) { xc >>= 2; msb += 2; }\\n    if (xc >= 0x2) msb += 1;  // No need to shift xc anymore\\n\\n    int256 result = msb - 64 << 64;\\n    uint256 ux = uint256 (x) << 127 - msb;\\n    for (int256 bit = 0x8000000000000000; bit > 0; bit >>= 1) {\\n      ux *= ux;\\n      uint256 b = ux >> 255;\\n      ux >>= 127 + b;\\n      result += bit * int256 (b);\\n    }\\n\\n    return int128 (result);\\n  }\\n\\n  /**\\n   * Calculate natural logarithm of x.  Revert if x <= 0.\\n   *\\n   * @param x signed 64.64-bit fixed point number\\n   * @return signed 64.64-bit fixed point number\\n   */\\n  function ln (int128 x) internal pure returns (int128) {\\n    require (x > 0);\\n\\n    return int128 (\\n        uint256 (log_2 (x)) * 0xB17217F7D1CF79ABC9E3B39803F2F6AF >> 128);\\n  }\\n\\n  /**\\n   * Calculate binary exponent of x.  Revert on overflow.\\n   *\\n   * @param x signed 64.64-bit fixed point number\\n   * @return signed 64.64-bit fixed point number\\n   */\\n  function exp_2 (int128 x) internal pure returns (int128) {\\n    require (x < 0x400000000000000000); // Overflow\\n\\n    if (x < -0x400000000000000000) return 0; // Underflow\\n\\n    uint256 result = 0x80000000000000000000000000000000;\\n\\n    if (x & 0x8000000000000000 > 0)\\n      result = result * 0x16A09E667F3BCC908B2FB1366EA957D3E >> 128;\\n    if (x & 0x4000000000000000 > 0)\\n      result = result * 0x1306FE0A31B7152DE8D5A46305C85EDEC >> 128;\\n    if (x & 0x2000000000000000 > 0)\\n      result = result * 0x1172B83C7D517ADCDF7C8C50EB14A791F >> 128;\\n    if (x & 0x1000000000000000 > 0)\\n      result = result * 0x10B5586CF9890F6298B92B71842A98363 >> 128;\\n    if (x & 0x800000000000000 > 0)\\n      result = result * 0x1059B0D31585743AE7C548EB68CA417FD >> 128;\\n    if (x & 0x400000000000000 > 0)\\n      result = result * 0x102C9A3E778060EE6F7CACA4F7A29BDE8 >> 128;\\n    if (x & 0x200000000000000 > 0)\\n      result = result * 0x10163DA9FB33356D84A66AE336DCDFA3F >> 128;\\n    if (x & 0x100000000000000 > 0)\\n      result = result * 0x100B1AFA5ABCBED6129AB13EC11DC9543 >> 128;\\n    if (x & 0x80000000000000 > 0)\\n      result = result * 0x10058C86DA1C09EA1FF19D294CF2F679B >> 128;\\n    if (x & 0x40000000000000 > 0)\\n      result = result * 0x1002C605E2E8CEC506D21BFC89A23A00F >> 128;\\n    if (x & 0x20000000000000 > 0)\\n      result = result * 0x100162F3904051FA128BCA9C55C31E5DF >> 128;\\n    if (x & 0x10000000000000 > 0)\\n      result = result * 0x1000B175EFFDC76BA38E31671CA939725 >> 128;\\n    if (x & 0x8000000000000 > 0)\\n      result = result * 0x100058BA01FB9F96D6CACD4B180917C3D >> 128;\\n    if (x & 0x4000000000000 > 0)\\n      result = result * 0x10002C5CC37DA9491D0985C348C68E7B3 >> 128;\\n    if (x & 0x2000000000000 > 0)\\n      result = result * 0x1000162E525EE054754457D5995292026 >> 128;\\n    if (x & 0x1000000000000 > 0)\\n      result = result * 0x10000B17255775C040618BF4A4ADE83FC >> 128;\\n    if (x & 0x800000000000 > 0)\\n      result = result * 0x1000058B91B5BC9AE2EED81E9B7D4CFAB >> 128;\\n    if (x & 0x400000000000 > 0)\\n      result = result * 0x100002C5C89D5EC6CA4D7C8ACC017B7C9 >> 128;\\n    if (x & 0x200000000000 > 0)\\n      result = result * 0x10000162E43F4F831060E02D839A9D16D >> 128;\\n    if (x & 0x100000000000 > 0)\\n      result = result * 0x100000B1721BCFC99D9F890EA06911763 >> 128;\\n    if (x & 0x80000000000 > 0)\\n      result = result * 0x10000058B90CF1E6D97F9CA14DBCC1628 >> 128;\\n    if (x & 0x40000000000 > 0)\\n      result = result * 0x1000002C5C863B73F016468F6BAC5CA2B >> 128;\\n    if (x & 0x20000000000 > 0)\\n      result = result * 0x100000162E430E5A18F6119E3C02282A5 >> 128;\\n    if (x & 0x10000000000 > 0)\\n      result = result * 0x1000000B1721835514B86E6D96EFD1BFE >> 128;\\n    if (x & 0x8000000000 > 0)\\n      result = result * 0x100000058B90C0B48C6BE5DF846C5B2EF >> 128;\\n    if (x & 0x4000000000 > 0)\\n      result = result * 0x10000002C5C8601CC6B9E94213C72737A >> 128;\\n    if (x & 0x2000000000 > 0)\\n      result = result * 0x1000000162E42FFF037DF38AA2B219F06 >> 128;\\n    if (x & 0x1000000000 > 0)\\n      result = result * 0x10000000B17217FBA9C739AA5819F44F9 >> 128;\\n    if (x & 0x800000000 > 0)\\n      result = result * 0x1000000058B90BFCDEE5ACD3C1CEDC823 >> 128;\\n    if (x & 0x400000000 > 0)\\n      result = result * 0x100000002C5C85FE31F35A6A30DA1BE50 >> 128;\\n    if (x & 0x200000000 > 0)\\n      result = result * 0x10000000162E42FF0999CE3541B9FFFCF >> 128;\\n    if (x & 0x100000000 > 0)\\n      result = result * 0x100000000B17217F80F4EF5AADDA45554 >> 128;\\n    if (x & 0x80000000 > 0)\\n      result = result * 0x10000000058B90BFBF8479BD5A81B51AD >> 128;\\n    if (x & 0x40000000 > 0)\\n      result = result * 0x1000000002C5C85FDF84BD62AE30A74CC >> 128;\\n    if (x & 0x20000000 > 0)\\n      result = result * 0x100000000162E42FEFB2FED257559BDAA >> 128;\\n    if (x & 0x10000000 > 0)\\n      result = result * 0x1000000000B17217F7D5A7716BBA4A9AE >> 128;\\n    if (x & 0x8000000 > 0)\\n      result = result * 0x100000000058B90BFBE9DDBAC5E109CCE >> 128;\\n    if (x & 0x4000000 > 0)\\n      result = result * 0x10000000002C5C85FDF4B15DE6F17EB0D >> 128;\\n    if (x & 0x2000000 > 0)\\n      result = result * 0x1000000000162E42FEFA494F1478FDE05 >> 128;\\n    if (x & 0x1000000 > 0)\\n      result = result * 0x10000000000B17217F7D20CF927C8E94C >> 128;\\n    if (x & 0x800000 > 0)\\n      result = result * 0x1000000000058B90BFBE8F71CB4E4B33D >> 128;\\n    if (x & 0x400000 > 0)\\n      result = result * 0x100000000002C5C85FDF477B662B26945 >> 128;\\n    if (x & 0x200000 > 0)\\n      result = result * 0x10000000000162E42FEFA3AE53369388C >> 128;\\n    if (x & 0x100000 > 0)\\n      result = result * 0x100000000000B17217F7D1D351A389D40 >> 128;\\n    if (x & 0x80000 > 0)\\n      result = result * 0x10000000000058B90BFBE8E8B2D3D4EDE >> 128;\\n    if (x & 0x40000 > 0)\\n      result = result * 0x1000000000002C5C85FDF4741BEA6E77E >> 128;\\n    if (x & 0x20000 > 0)\\n      result = result * 0x100000000000162E42FEFA39FE95583C2 >> 128;\\n    if (x & 0x10000 > 0)\\n      result = result * 0x1000000000000B17217F7D1CFB72B45E1 >> 128;\\n    if (x & 0x8000 > 0)\\n      result = result * 0x100000000000058B90BFBE8E7CC35C3F0 >> 128;\\n    if (x & 0x4000 > 0)\\n      result = result * 0x10000000000002C5C85FDF473E242EA38 >> 128;\\n    if (x & 0x2000 > 0)\\n      result = result * 0x1000000000000162E42FEFA39F02B772C >> 128;\\n    if (x & 0x1000 > 0)\\n      result = result * 0x10000000000000B17217F7D1CF7D83C1A >> 128;\\n    if (x & 0x800 > 0)\\n      result = result * 0x1000000000000058B90BFBE8E7BDCBE2E >> 128;\\n    if (x & 0x400 > 0)\\n      result = result * 0x100000000000002C5C85FDF473DEA871F >> 128;\\n    if (x & 0x200 > 0)\\n      result = result * 0x10000000000000162E42FEFA39EF44D91 >> 128;\\n    if (x & 0x100 > 0)\\n      result = result * 0x100000000000000B17217F7D1CF79E949 >> 128;\\n    if (x & 0x80 > 0)\\n      result = result * 0x10000000000000058B90BFBE8E7BCE544 >> 128;\\n    if (x & 0x40 > 0)\\n      result = result * 0x1000000000000002C5C85FDF473DE6ECA >> 128;\\n    if (x & 0x20 > 0)\\n      result = result * 0x100000000000000162E42FEFA39EF366F >> 128;\\n    if (x & 0x10 > 0)\\n      result = result * 0x1000000000000000B17217F7D1CF79AFA >> 128;\\n    if (x & 0x8 > 0)\\n      result = result * 0x100000000000000058B90BFBE8E7BCD6D >> 128;\\n    if (x & 0x4 > 0)\\n      result = result * 0x10000000000000002C5C85FDF473DE6B2 >> 128;\\n    if (x & 0x2 > 0)\\n      result = result * 0x1000000000000000162E42FEFA39EF358 >> 128;\\n    if (x & 0x1 > 0)\\n      result = result * 0x10000000000000000B17217F7D1CF79AB >> 128;\\n\\n    result >>= 63 - (x >> 64);\\n    require (result <= uint256 (MAX_64x64));\\n\\n    return int128 (result);\\n  }\\n\\n  /**\\n   * Calculate natural exponent of x.  Revert on overflow.\\n   *\\n   * @param x signed 64.64-bit fixed point number\\n   * @return signed 64.64-bit fixed point number\\n   */\\n  function exp (int128 x) internal pure returns (int128) {\\n    require (x < 0x400000000000000000); // Overflow\\n\\n    if (x < -0x400000000000000000) return 0; // Underflow\\n\\n    return exp_2 (\\n        int128 (int256 (x) * 0x171547652B82FE1777D0FFDA0D23A7D12 >> 128));\\n  }\\n\\n  /**\\n   * Calculate x / y rounding towards zero, where x and y are unsigned 256-bit\\n   * integer numbers.  Revert on overflow or when y is zero.\\n   *\\n   * @param x unsigned 256-bit integer number\\n   * @param y unsigned 256-bit integer number\\n   * @return unsigned 64.64-bit fixed point number\\n   */\\n  function divuu (uint256 x, uint256 y) private pure returns (uint128) {\\n    require (y != 0);\\n\\n    uint256 result;\\n\\n    if (x <= 0xFFFFFFFFFFFFFFFFFFFFFFFFFFFFFFFFFFFFFFFFFFFFFFFF)\\n      result = (x << 64) / y;\\n    else {\\n      uint256 msb = 192;\\n      uint256 xc = x >> 192;\\n      if (xc >= 0x100000000) { xc >>= 32; msb += 32; }\\n      if (xc >= 0x10000) { xc >>= 16; msb += 16; }\\n      if (xc >= 0x100) { xc >>= 8; msb += 8; }\\n      if (xc >= 0x10) { xc >>= 4; msb += 4; }\\n      if (xc >= 0x4) { xc >>= 2; msb += 2; }\\n      if (xc >= 0x2) msb += 1;  // No need to shift xc anymore\\n\\n      result = (x << 255 - msb) / ((y - 1 >> msb - 191) + 1);\\n      require (result <= 0xFFFFFFFFFFFFFFFFFFFFFFFFFFFFFFFF);\\n\\n      uint256 hi = result * (y >> 128);\\n      uint256 lo = result * (y & 0xFFFFFFFFFFFFFFFFFFFFFFFFFFFFFFFF);\\n\\n      uint256 xh = x >> 192;\\n      uint256 xl = x << 64;\\n\\n      if (xl < lo) xh -= 1;\\n      xl -= lo; // We rely on overflow behavior here\\n      lo = hi << 128;\\n      if (xl < lo) xh -= 1;\\n      xl -= lo; // We rely on overflow behavior here\\n\\n      assert (xh == hi >> 128);\\n\\n      result += xl / y;\\n    }\\n\\n    require (result <= 0xFFFFFFFFFFFFFFFFFFFFFFFFFFFFFFFF);\\n    return uint128 (result);\\n  }\\n\\n  /**\\n   * Calculate x^y assuming 0^0 is 1, where x is unsigned 129.127 fixed point\\n   * number and y is unsigned 256-bit integer number.  Revert on overflow.\\n   *\\n   * @param x unsigned 129.127-bit fixed point number\\n   * @param y uint256 value\\n   * @return unsigned 129.127-bit fixed point number\\n   */\\n  function powu (uint256 x, uint256 y) private pure returns (uint256) {\\n    if (y == 0) return 0x80000000000000000000000000000000;\\n    else if (x == 0) return 0;\\n    else {\\n      int256 msb = 0;\\n      uint256 xc = x;\\n      if (xc >= 0x100000000000000000000000000000000) { xc >>= 128; msb += 128; }\\n      if (xc >= 0x10000000000000000) { xc >>= 64; msb += 64; }\\n      if (xc >= 0x100000000) { xc >>= 32; msb += 32; }\\n      if (xc >= 0x10000) { xc >>= 16; msb += 16; }\\n      if (xc >= 0x100) { xc >>= 8; msb += 8; }\\n      if (xc >= 0x10) { xc >>= 4; msb += 4; }\\n      if (xc >= 0x4) { xc >>= 2; msb += 2; }\\n      if (xc >= 0x2) msb += 1;  // No need to shift xc anymore\\n\\n      int256 xe = msb - 127;\\n      if (xe > 0) x >>= xe;\\n      else x <<= -xe;\\n\\n      uint256 result = 0x80000000000000000000000000000000;\\n      int256 re = 0;\\n\\n      while (y > 0) {\\n        if (y & 1 > 0) {\\n          result = result * x;\\n          y -= 1;\\n          re += xe;\\n          if (result >=\\n            0x8000000000000000000000000000000000000000000000000000000000000000) {\\n            result >>= 128;\\n            re += 1;\\n          } else result >>= 127;\\n          if (re < -127) return 0; // Underflow\\n          require (re < 128); // Overflow\\n        } else {\\n          x = x * x;\\n          y >>= 1;\\n          xe <<= 1;\\n          if (x >=\\n            0x8000000000000000000000000000000000000000000000000000000000000000) {\\n            x >>= 128;\\n            xe += 1;\\n          } else x >>= 127;\\n          if (xe < -127) return 0; // Underflow\\n          require (xe < 128); // Overflow\\n        }\\n      }\\n\\n      if (re > 0) result <<= re;\\n      else if (re < 0) result >>= -re;\\n\\n      return result;\\n    }\\n  }\\n\\n  /**\\n   * Calculate sqrt (x) rounding down, where x is unsigned 256-bit integer\\n   * number.\\n   *\\n   * @param x unsigned 256-bit integer number\\n   * @return unsigned 128-bit integer number\\n   */\\n  function sqrtu (uint256 x, uint256 r) private pure returns (uint128) {\\n    if (x == 0) return 0;\\n    else {\\n      require (r > 0);\\n      while (true) {\\n        uint256 rr = x / r;\\n        if (r == rr || r + 1 == rr) return uint128 (r);\\n        else if (r == rr + 1) return uint128 (rr);\\n        r = r + rr + 1 >> 1;\\n      }\\n    }\\n  }\\n}\",\"keccak256\":\"0x1917fb4583394ba955caa177c4a5e0aade0d9de7b5fc17582e2d5b5c085471d9\",\"license\":\"BSD-4\"}},\"version\":1}",
      "bytecode": "0x6080604052600060ca55600060cb5534801561001a57600080fd5b506142ab8061002a6000396000f3fe6080604052600436106101665760003560e01c80637d533642116100d1578063c4d66de81161008a578063f19605d611610064578063f19605d6146103cd578063f2fde38b146103e2578063f3b7d81514610402578063f5c7e0e21461041557610166565b8063c4d66de814610378578063e9e15b4f14610398578063f0c30cac146103b857610166565b80637d533642146102ce578063844a28c3146102ee5780638456cb591461031b5780638da5cb5b14610330578063c26ff93614610345578063c40768761461036557610166565b80635c080853116101235780635c0808531461022f5780635c975abb1461024f57806364bfa546146102715780636d75b9ee14610291578063715018a6146102a45780637216e7c8146102b957610166565b80630e4645ef1461016b5780631755ff211461018d578063200d3d49146101b85780633f4ba83a146101d8578063440c41bb146101ed5780634cfea68a1461020d575b600080fd5b34801561017757600080fd5b5061018b610186366004612d00565b610435565b005b34801561019957600080fd5b506101a261051e565b6040516101af9190612e56565b60405180910390f35b3480156101c457600080fd5b5061018b6101d3366004612dd4565b61052d565b3480156101e457600080fd5b5061018b6105c7565b3480156101f957600080fd5b5061018b610208366004612e04565b610606565b34801561021957600080fd5b50610222610aca565b6040516101af9190612f32565b34801561023b57600080fd5b5061018b61024a366004612d12565b610ad0565b34801561025b57600080fd5b50610264610cbe565b6040516101af9190612f27565b34801561027d57600080fd5b5061018b61028c366004612dd4565b610cc7565b61018b61029f366004612cd5565b610d56565b3480156102b057600080fd5b5061018b610ecb565b3480156102c557600080fd5b50610222610f4a565b3480156102da57600080fd5b506102226102e9366004612c9d565b610f50565b3480156102fa57600080fd5b5061030e610309366004612c9d565b610f62565b6040516101af9190612eda565b34801561032757600080fd5b5061018b610fff565b34801561033c57600080fd5b506101a261103c565b34801561035157600080fd5b5061030e610360366004612c9d565b61104b565b61018b610373366004612d00565b6110e3565b34801561038457600080fd5b5061018b610393366004612c9d565b6114c5565b3480156103a457600080fd5b506101a26103b3366004612c9d565b611563565b3480156103c457600080fd5b5061018b611688565b3480156103d957600080fd5b50610222611690565b3480156103ee57600080fd5b5061018b6103fd366004612c9d565b611696565b61018b610410366004612cd5565b61174d565b34801561042157600080fd5b5061018b610430366004612c9d565b611932565b61043d611ded565b6065546001600160a01b039081169116146104735760405162461bcd60e51b815260040161046a90613251565b60405180910390fd5b60975460ff16156104965760405162461bcd60e51b815260040161046a90613106565b6001600160a01b038216600090815260cc602052604090206104b782611df1565b6104d35760405162461bcd60e51b815260040161046a906132d4565b8181556040516001600160a01b038416907f7be5403eca163f383a39c2d1f65a8fee2c9e41e7e6b150f4abfe16eaaf1d907690610511908590612f32565b60405180910390a2505050565b60c9546001600160a01b031681565b610535611ded565b6065546001600160a01b039081169116146105625760405162461bcd60e51b815260040161046a90613251565b60975460ff16156105855760405162461bcd60e51b815260040161046a90613106565b60ca81905560405133907fd051fbd9d5bbce3751e47a2ff88ee7dde1a0c474fad43693046c1f6237841dc8906105bc908490613331565b60405180910390a250565b6105cf611ded565b6065546001600160a01b039081169116146105fc5760405162461bcd60e51b815260040161046a90613251565b610604611df9565b565b60975460ff16156106295760405162461bcd60e51b815260040161046a90613106565b6000819050336001600160a01b0316816001600160a01b0316637df1f1b96040518163ffffffff1660e01b815260040160206040518083038186803b15801561067157600080fd5b505afa158015610685573d6000803e3d6000fd5b505050506040513d601f19601f820116820180604052508101906106a99190612cb9565b6001600160a01b0316146106cf5760405162461bcd60e51b815260040161046a90613178565b6106d7611e65565b60c95460405163c34e584160e01b81526001600160a01b039283169263c34e58419261070a929116908790600401612e8e565b60206040518083038186803b15801561072257600080fd5b505afa158015610736573d6000803e3d6000fd5b505050506040513d601f19601f8201168201806040525081019061075a9190612d5d565b6107765760405162461bcd60e51b815260040161046a906131bd565b61077f83611e74565b61079b5760405162461bcd60e51b815260040161046a90613130565b6107a58382611e7c565b6107c15760405162461bcd60e51b815260040161046a90613366565b806001600160a01b031663b69ef8a86040518163ffffffff1660e01b815260040160206040518083038186803b1580156107fa57600080fd5b505afa15801561080e573d6000803e3d6000fd5b505050506040513d601f19601f820116820180604052508101906108329190612dec565b61094557806001600160a01b031663fb9eb99061084e83611f37565b6040518263ffffffff1660e01b815260040161086a9190612f32565b602060405180830381600087803b15801561088457600080fd5b505af1158015610898573d6000803e3d6000fd5b505050506040513d601f19601f820116820180604052508101906108bc9190612dec565b50806001600160a01b0316637957dda36108d583611fcc565b6040518263ffffffff1660e01b81526004016108f19190612f32565b602060405180830381600087803b15801561090b57600080fd5b505af115801561091f573d6000803e3d6000fd5b505050506040513d601f19601f820116820180604052508101906109439190612dec565b505b600080610952834361215f565b9150915060006109d986856001600160a01b031663b69ef8a86040518163ffffffff1660e01b815260040160206040518083038186803b15801561099557600080fd5b505afa1580156109a9573d6000803e3d6000fd5b505050506040513d601f19601f820116820180604052508101906109cd9190612dec565b9063ffffffff61227816565b90506109e7848285856122a4565b6109ef611e65565b60c9546040516323b872dd60e01b81526001600160a01b03928316926323b872dd92610a249291169033908b90600401612e6a565b602060405180830381600087803b158015610a3e57600080fd5b505af1158015610a52573d6000803e3d6000fd5b505050506040513d601f19601f82011682018060405250810190610a769190612d5d565b50836001600160a01b0316336001600160a01b03167f7ec4669c579321a5cf5a6b525637eb0924a93e2e11eab9d14be8b44de1116b1b88604051610aba9190612f32565b60405180910390a3505050505050565b61168081565b60975460ff1615610af35760405162461bcd60e51b815260040161046a90613106565b33600090815260cc602090815260408083206001600160a01b038a16845260cd909252909120610b238783612558565b610b3f5760405162461bcd60e51b815260040161046a90613086565b6000604051610b4d90612c6f565b604051809103906000f080158015610b69573d6000803e3d6000fd5b50604051628bfe9960e71b81529091506001600160a01b038216906345ff4c8090610ba2908c908c908c908c908c908c90600401612ea7565b600060405180830381600087803b158015610bbc57600080fd5b505af1158015610bd0573d6000803e3d6000fd5b505060c95460405163182cdbe360e11b81526001600160a01b038086169450633059b7c69350610c04921690600401612e56565b600060405180830381600087803b158015610c1e57600080fd5b505af1158015610c32573d6000803e3d6000fd5b5050506001808501805480830182556000918252602080832090910180546001600160a01b038088166001600160a01b0319928316811790935588549586018955888552928420909401805490941681179093556040519293508c16917fc1d7685016f2246662e70fe17df916e959813e9ab93d50c4f039c0c069c5f3719190a3505050505050505050565b60975460ff1690565b610ccf611ded565b6065546001600160a01b03908116911614610cfc5760405162461bcd60e51b815260040161046a90613251565b60975460ff1615610d1f5760405162461bcd60e51b815260040161046a90613106565b60cb81905560405133907fd051fbd9d5bbce3751e47a2ff88ee7dde1a0c474fad43693046c1f6237841dc8906105bc9084906130d4565b60975460ff1615610d795760405162461bcd60e51b815260040161046a90613106565b81610d82611e65565b6001600160a01b03166323b872dd3385856040518463ffffffff1660e01b8152600401610db193929190612e6a565b602060405180830381600087803b158015610dcb57600080fd5b505af1158015610ddf573d6000803e3d6000fd5b505050506040513d601f19601f82011682018060405250810190610e039190612d5d565b506000610e4383836001600160a01b031663c98c05b76040518163ffffffff1660e01b815260040160206040518083038186803b15801561099557600080fd5b6040516361cfbca160e01b81529091506001600160a01b038316906361cfbca190610e72908490600401612f32565b602060405180830381600087803b158015610e8c57600080fd5b505af1158015610ea0573d6000803e3d6000fd5b505050506040513d601f19601f82011682018060405250810190610ec49190612dec565b5050505050565b610ed3611ded565b6065546001600160a01b03908116911614610f005760405162461bcd60e51b815260040161046a90613251565b6065546040516000916001600160a01b0316907f8be0079c531659141344cd1fd0a4f28419497f9722a3daafe3b4186f6b6457e0908390a3606580546001600160a01b0319169055565b60ca5481565b60cc6020526000908152604090205481565b60975460609060ff1615610f885760405162461bcd60e51b815260040161046a90613106565b6001600160a01b038216600090815260cc602090815260409182902060010180548351818402810184019094528084529091830182828015610ff357602002820191906000526020600020905b81546001600160a01b03168152600190910190602001808311610fd5575b50505050509050919050565b611007611ded565b6065546001600160a01b039081169116146110345760405162461bcd60e51b815260040161046a90613251565b610604612586565b6065546001600160a01b031690565b60975460609060ff16156110715760405162461bcd60e51b815260040161046a90613106565b6001600160a01b038216600090815260cd602090815260409182902080548351818402810184019094528084529091830182828015610ff3576020028201919060005260206000209081546001600160a01b03168152600190910190602001808311610fd55750505050509050919050565b60975460ff16156111065760405162461bcd60e51b815260040161046a90613106565b8161111082611e74565b61112c5760405162461bcd60e51b815260040161046a90613130565b611134611e65565b6001600160a01b031663c34e584133846040518363ffffffff1660e01b8152600401611161929190612e8e565b60206040518083038186803b15801561117957600080fd5b505afa15801561118d573d6000803e3d6000fd5b505050506040513d601f19601f820116820180604052508101906111b19190612d5d565b6111cd5760405162461bcd60e51b815260040161046a90613002565b60008060006111df84864360016125df565b919450925090508215611332576111f4611e65565b6001600160a01b03166323b872dd3388866040518463ffffffff1660e01b815260040161122393929190612e6a565b602060405180830381600087803b15801561123d57600080fd5b505af1158015611251573d6000803e3d6000fd5b505050506040513d601f19601f820116820180604052508101906112759190612d5d565b50836001600160a01b03166361cfbca16112c285876001600160a01b031663c98c05b76040518163ffffffff1660e01b815260040160206040518083038186803b15801561099557600080fd5b6040518263ffffffff1660e01b81526004016112de9190612f32565b602060405180830381600087803b1580156112f857600080fd5b505af115801561130c573d6000803e3d6000fd5b505050506040513d601f19601f820116820180604052508101906113309190612dec565b505b81156113a057611340611e65565b6001600160a01b03166364de8a0733846040518363ffffffff1660e01b815260040161136d929190612e8e565b600060405180830381600087803b15801561138757600080fd5b505af115801561139b573d6000803e3d6000fd5b505050505b801561140e576113ae611e65565b6001600160a01b031663bcfa41ba33836040518363ffffffff1660e01b81526004016113db929190612e8e565b600060405180830381600087803b1580156113f557600080fd5b505af1158015611409573d6000803e3d6000fd5b505050505b836001600160a01b0316846001600160a01b0316637df1f1b96040518163ffffffff1660e01b815260040160206040518083038186803b15801561145157600080fd5b505afa158015611465573d6000803e3d6000fd5b505050506040513d601f19601f820116820180604052508101906114899190612cb9565b6001600160a01b03167f73bc067f8d6bb15a01636f9b76c6daa98472621717a0788af90498d8bfe69eb0848487604051610aba939291906133c4565b600054610100900460ff16806114de57506114de612873565b806114ec575060005460ff16155b6115085760405162461bcd60e51b815260040161046a90613286565b600054610100900460ff16158015611533576000805460ff1961ff0019909116610100171660011790555b61153b612879565b611543611688565b61154c82611563565b50801561155f576000805461ff00191690555b5050565b600061156d611ded565b6065546001600160a01b0390811691161461159a5760405162461bcd60e51b815260040161046a90613251565b60975460ff16156115bd5760405162461bcd60e51b815260040161046a90613106565b816001600160a01b0316633a98ef396040518163ffffffff1660e01b815260040160206040518083038186803b1580156115f657600080fd5b505afa15801561160a573d6000803e3d6000fd5b505050506040513d601f19601f8201168201806040525081019061162e9190612dec565b5060c9546040516001600160a01b038085169216907fbc265b118422e9d29f4173594a64a9c2ac4d07373e209a941f4bc8c83c38321b90600090a35060c980546001600160a01b0319166001600160a01b03831617905590565b61060461290b565b60cb5481565b61169e611ded565b6065546001600160a01b039081169116146116cb5760405162461bcd60e51b815260040161046a90613251565b6001600160a01b0381166116f15760405162461bcd60e51b815260040161046a90612fbc565b6065546040516001600160a01b038084169216907f8be0079c531659141344cd1fd0a4f28419497f9722a3daafe3b4186f6b6457e090600090a3606580546001600160a01b0319166001600160a01b0392909216919091179055565b60975460ff16156117705760405162461bcd60e51b815260040161046a90613106565b8161177a82611e74565b6117965760405162461bcd60e51b815260040161046a90613130565b61179e611e65565b6001600160a01b03166323b872dd3385856040518463ffffffff1660e01b81526004016117cd93929190612e6a565b602060405180830381600087803b1580156117e757600080fd5b505af11580156117fb573d6000803e3d6000fd5b505050506040513d601f19601f8201168201806040525081019061181f9190612d5d565b50600061185f83836001600160a01b031663ca3152e56040518163ffffffff1660e01b815260040160206040518083038186803b15801561099557600080fd5b6040516320f8d09360e11b81529091506001600160a01b038316906341f1a1269061188e908490600401612f32565b602060405180830381600087803b1580156118a857600080fd5b505af11580156118bc573d6000803e3d6000fd5b505050506040513d601f19601f820116820180604052508101906118e09190612dec565b50816001600160a01b0316336001600160a01b03167f83846cba5d937a7cd93b3dbb931c1cd260ce7a8ba928f072848719da0666e741856040516119249190612f32565b60405180910390a350505050565b60975460ff16156119555760405162461bcd60e51b815260040161046a90613106565b6000819050806001600160a01b031663500b245e6040518163ffffffff1660e01b815260040160206040518083038186803b15801561199357600080fd5b505afa1580156119a7573d6000803e3d6000fd5b505050506040513d601f19601f820116820180604052508101906119cb9190612dec565b4310156119d85750611dea565b6000806000611aca84856001600160a01b031663ca3152e56040518163ffffffff1660e01b815260040160206040518083038186803b158015611a1a57600080fd5b505afa158015611a2e573d6000803e3d6000fd5b505050506040513d601f19601f82011682018060405250810190611a529190612dec565b866001600160a01b031663500b245e6040518163ffffffff1660e01b815260040160206040518083038186803b158015611a8b57600080fd5b505afa158015611a9f573d6000803e3d6000fd5b505050506040513d601f19601f82011682018060405250810190611ac39190612dec565b60006125df565b925092509250836001600160a01b03166341f1a126846040518263ffffffff1660e01b8152600401611afc9190612f32565b602060405180830381600087803b158015611b1657600080fd5b505af1158015611b2a573d6000803e3d6000fd5b505050506040513d601f19601f82011682018060405250810190611b4e9190612dec565b50611b57611e65565b6001600160a01b03166364de8a0733846040518363ffffffff1660e01b8152600401611b84929190612e8e565b600060405180830381600087803b158015611b9e57600080fd5b505af1158015611bb2573d6000803e3d6000fd5b50505050611bbe611e65565b6001600160a01b031663bcfa41ba33836040518363ffffffff1660e01b8152600401611beb929190612e8e565b600060405180830381600087803b158015611c0557600080fd5b505af1158015611c19573d6000803e3d6000fd5b50505050836001600160a01b0316637957dda3611c3586611fcc565b6040518263ffffffff1660e01b8152600401611c519190612f32565b602060405180830381600087803b158015611c6b57600080fd5b505af1158015611c7f573d6000803e3d6000fd5b505050506040513d601f19601f82011682018060405250810190611ca39190612dec565b506000846001600160a01b031663193501146040518163ffffffff1660e01b815260040160206040518083038186803b158015611cdf57600080fd5b505afa158015611cf3573d6000803e3d6000fd5b505050506040513d601f19601f82011682018060405250810190611d179190612dec565b1115611d2657611d2684611dea565b836001600160a01b0316846001600160a01b0316637df1f1b96040518163ffffffff1660e01b815260040160206040518083038186803b158015611d6957600080fd5b505afa158015611d7d573d6000803e3d6000fd5b505050506040513d601f19601f82011682018060405250810190611da19190612cb9565b6001600160a01b03167f73bc067f8d6bb15a01636f9b76c6daa98472621717a0788af90498d8bfe69eb0848487604051611ddd939291906133c4565b60405180910390a3505050505b50565b3390565b60ca54101590565b60975460ff16611e1b5760405162461bcd60e51b815260040161046a90612f8e565b6097805460ff191690557f5db9ee0a495bf2e6ff9c91a7834c1ba4fdd244a5e8aa4e537bd38aeae4b073aa611e4e611ded565b604051611e5b9190612e56565b60405180910390a1565b60c9546001600160a01b031690565b60cb54101590565b6000816001600160a01b031663a4d66daf6040518163ffffffff1660e01b815260040160206040518083038186803b158015611eb757600080fd5b505afa158015611ecb573d6000803e3d6000fd5b505050506040513d601f19601f82011682018060405250810190611eef9190612dec565b611f2c84846001600160a01b031663b69ef8a86040518163ffffffff1660e01b815260040160206040518083038186803b15801561099557600080fd5b111590505b92915050565b6000611f31611fbf836001600160a01b03166348e6f2966040518163ffffffff1660e01b815260040160206040518083038186803b158015611f7857600080fd5b505afa158015611f8c573d6000803e3d6000fd5b505050506040513d601f19601f82011682018060405250810190611fb09190612dec565b6116809063ffffffff61299716565b439063ffffffff61227816565b600080612052611680846001600160a01b03166399dd8df36040518163ffffffff1660e01b815260040160206040518083038186803b15801561200e57600080fd5b505afa158015612022573d6000803e3d6000fd5b505050506040513d601f19601f820116820180604052508101906120469190612dec565b9063ffffffff61299716565b90506000836001600160a01b031663500b245e6040518163ffffffff1660e01b815260040160206040518083038186803b15801561208f57600080fd5b505afa1580156120a3573d6000803e3d6000fd5b505050506040513d601f19601f820116820180604052508101906120c79190612dec565b1561214457836001600160a01b031663500b245e6040518163ffffffff1660e01b815260040160206040518083038186803b15801561210557600080fd5b505afa158015612119573d6000803e3d6000fd5b505050506040513d601f19601f8201168201806040525081019061213d9190612dec565b9050612147565b50435b612157818363ffffffff61227816565b949350505050565b60008060008073__$a2cc30817a35d2af16162c36988ade30ce$__634678497187876040518363ffffffff1660e01b815260040161219e929190612e8e565b604080518083038186803b1580156121b557600080fd5b505af41580156121c9573d6000803e3d6000fd5b505050506040513d601f19601f820116820180604052508101906121ed9190612e33565b9150915061222e82876001600160a01b03166321856b366040518163ffffffff1660e01b815260040160206040518083038186803b15801561099557600080fd5b61226b82886001600160a01b031663193501146040518163ffffffff1660e01b815260040160206040518083038186803b15801561099557600080fd5b9350935050509250929050565b60008282018381101561229d5760405162461bcd60e51b815260040161046a9061304f565b9392505050565b604051637d8b34e560e11b81526001600160a01b0385169063fb1669ca906122d0908690600401612f32565b602060405180830381600087803b1580156122ea57600080fd5b505af11580156122fe573d6000803e3d6000fd5b505050506040513d601f19601f820116820180604052508101906123229190612dec565b506040516396c8df3760e01b81526001600160a01b038516906396c8df379061234f908590600401612f32565b602060405180830381600087803b15801561236957600080fd5b505af115801561237d573d6000803e3d6000fd5b505050506040513d601f19601f820116820180604052508101906123a19190612dec565b5060405163b3b8a9c760e01b81526001600160a01b0385169063b3b8a9c7906123ce908490600401612f32565b602060405180830381600087803b1580156123e857600080fd5b505af11580156123fc573d6000803e3d6000fd5b505050506040513d601f19601f820116820180604052508101906124209190612dec565b506040516327e7b26360e01b81526001600160a01b038516906327e7b2639061244d904390600401612f32565b602060405180830381600087803b15801561246757600080fd5b505af115801561247b573d6000803e3d6000fd5b505050506040513d601f19601f8201168201806040525081019061249f9190612dec565b508261255257604051630fb9eb9960e41b81526001600160a01b0385169063fb9eb990906124d290600090600401612f32565b602060405180830381600087803b1580156124ec57600080fd5b505af1158015612500573d6000803e3d6000fd5b505050506040513d601f19601f820116820180604052508101906125249190612dec565b50604051637957dda360e01b81526001600160a01b03851690637957dda390610e7290600090600401612f32565b50505050565b600080612564836129d1565b90506000612578828663ffffffff61227816565b845410159250505092915050565b60975460ff16156125a95760405162461bcd60e51b815260040161046a90613106565b6097805460ff191660011790557f62e78cea01bee320cd4e420270b5ea74000d11b0c9f74754ebdbfc544b05a258611e4e611ded565b60008060008060006125f1898861215f565b915091506125fd612c7c565b73__$a2cc30817a35d2af16162c36988ade30ce$__63d7cc2a038a8c6001600160a01b031663b69ef8a86040518163ffffffff1660e01b815260040160206040518083038186803b15801561265157600080fd5b505afa158015612665573d6000803e3d6000fd5b505050506040513d601f19601f820116820180604052508101906126899190612dec565b86866040518563ffffffff1660e01b81526004016126aa94939291906133da565b60606040518083038186803b1580156126c257600080fd5b505af41580156126d6573d6000803e3d6000fd5b505050506040513d601f19601f820116820180604052508101906126fa9190612d7d565b9050600061278382602001518c6001600160a01b031663b69ef8a86040518163ffffffff1660e01b815260040160206040518083038186803b15801561273f57600080fd5b505afa158015612753573d6000803e3d6000fd5b505050506040513d601f19601f820116820180604052508101906127779190612dec565b9063ffffffff612aa616565b905087156127a45760408201516127a190829063ffffffff612aa616565b90505b60006127e3828d6001600160a01b031663b69ef8a86040518163ffffffff1660e01b815260040160206040518083038186803b15801561273f57600080fd5b905060006128028261277786600001518f612aa690919063ffffffff16565b905061283b8d8461282087600001518a612aa690919063ffffffff16565b6020880151612836908a9063ffffffff612aa616565b6122a4565b8b612857836109cd87600001518561227890919063ffffffff16565b1461285e57fe5b9251929c929b50995090975050505050505050565b303b1590565b600054610100900460ff16806128925750612892612873565b806128a0575060005460ff16155b6128bc5760405162461bcd60e51b815260040161046a90613286565b600054610100900460ff161580156128e7576000805460ff1961ff0019909116610100171660011790555b6128ef612ae8565b6128f7612b69565b8015611dea576000805461ff001916905550565b600054610100900460ff16806129245750612924612873565b80612932575060005460ff16155b61294e5760405162461bcd60e51b815260040161046a90613286565b600054610100900460ff16158015612979576000805460ff1961ff0019909116610100171660011790555b6097805460ff191690558015611dea576000805461ff001916905550565b6000826129a657506000611f31565b828202828482816129b357fe5b041461229d5760405162461bcd60e51b815260040161046a90613210565b600080805b6001840154811015612a9f5760008460010182815481106129f357fe5b9060005260206000200160009054906101000a90046001600160a01b03169050612a94816001600160a01b031663a4d66daf6040518163ffffffff1660e01b815260040160206040518083038186803b158015612a4f57600080fd5b505afa158015612a63573d6000803e3d6000fd5b505050506040513d601f19601f82011682018060405250810190612a879190612dec565b849063ffffffff61227816565b9250506001016129d6565b5092915050565b600061229d83836040518060400160405280601e81526020017f536166654d6174683a207375627472616374696f6e206f766572666c6f770000815250612c43565b600054610100900460ff1680612b015750612b01612873565b80612b0f575060005460ff16155b612b2b5760405162461bcd60e51b815260040161046a90613286565b600054610100900460ff161580156128f7576000805460ff1961ff0019909116610100171660011790558015611dea576000805461ff001916905550565b600054610100900460ff1680612b825750612b82612873565b80612b90575060005460ff16155b612bac5760405162461bcd60e51b815260040161046a90613286565b600054610100900460ff16158015612bd7576000805460ff1961ff0019909116610100171660011790555b6000612be1611ded565b606580546001600160a01b0319166001600160a01b038316908117909155604051919250906000907f8be0079c531659141344cd1fd0a4f28419497f9722a3daafe3b4186f6b6457e0908290a3508015611dea576000805461ff001916905550565b60008184841115612c675760405162461bcd60e51b815260040161046a9190612f3b565b505050900390565b610e6b8061340b83390190565b60405180606001604052806000815260200160008152602001600081525090565b600060208284031215612cae578081fd5b813561229d816133f5565b600060208284031215612cca578081fd5b815161229d816133f5565b60008060408385031215612ce7578081fd5b8235612cf2816133f5565b946020939093013593505050565b60008060408385031215612ce7578182fd5b60008060008060008060c08789031215612d2a578182fd5b8635612d35816133f5565b9860208801359850604088013597606081013597506080810135965060a00135945092505050565b600060208284031215612d6e578081fd5b8151801515811461229d578182fd5b600060608284031215612d8e578081fd5b6040516060810181811067ffffffffffffffff82111715612dad578283fd5b80604052508251815260208301516020820152604083015160408201528091505092915050565b600060208284031215612de5578081fd5b5035919050565b600060208284031215612dfd578081fd5b5051919050565b60008060408385031215612e16578182fd5b823591506020830135612e28816133f5565b809150509250929050565b60008060408385031215612e45578182fd5b505080516020909101519092909150565b6001600160a01b0391909116815260200190565b6001600160a01b039384168152919092166020820152604081019190915260600190565b6001600160a01b03929092168252602082015260400190565b6001600160a01b03969096168652602086019490945260408501929092526060840152608083015260a082015260c00190565b6020808252825182820181905260009190848201906040850190845b81811015612f1b5783516001600160a01b031683529284019291840191600101612ef6565b50909695505050505050565b901515815260200190565b90815260200190565b6000602080835283518082850152825b81811015612f6757858101830151858201604001528201612f4b565b81811115612f785783604083870101525b50601f01601f1916929092016040019392505050565b60208082526014908201527314185d5cd8589b194e881b9bdd081c185d5cd95960621b604082015260600190565b60208082526026908201527f4f776e61626c653a206e6577206f776e657220697320746865207a65726f206160408201526564647265737360d01b606082015260800190565b6020808252602d908201527f596f75206861766520696e737566666963656e742062616c616e636520666f7260408201526c081d1a1a5cc81c185e5b595b9d609a1b606082015260800190565b6020808252601b908201527f536166654d6174683a206164646974696f6e206f766572666c6f770000000000604082015260600190565b6020808252602e908201527f54686520756e6465727772697465722063616e6e6f742063726561746520746860408201526d697320637265646974206c696e6560901b606082015260800190565b60408082526010908201526f1d1c985b9cd858dd1a5bdb931a5b5a5d60821b6060820152602081019190915260800190565b60208082526010908201526f14185d5cd8589b194e881c185d5cd95960821b604082015260600190565b60208082526028908201527f416d6f756e74206973206f76657220746865207065722d7472616e73616374696040820152671bdb881b1a5b5a5d60c21b606082015260800190565b60208082526025908201527f596f7520646f206e6f742062656c6f6e6720746f207468697320637265646974604082015264206c696e6560d81b606082015260800190565b60208082526033908201527f506f6f6c20646f6573206e6f74206861766520656e6f7567682062616c616e6360408201527232903337b9103a3434b990323930bbb237bbb760691b606082015260800190565b60208082526021908201527f536166654d6174683a206d756c7469706c69636174696f6e206f766572666c6f6040820152607760f81b606082015260800190565b6020808252818101527f4f776e61626c653a2063616c6c6572206973206e6f7420746865206f776e6572604082015260600190565b6020808252602e908201527f436f6e747261637420696e7374616e63652068617320616c726561647920626560408201526d195b881a5b9a5d1a585b1a5e995960921b606082015260800190565b6020808252603a908201527f54686973206c696d69742069732067726561746572207468616e20746865206d60408201527f617820616c6c6f776564206279207468652070726f746f636f6c000000000000606082015260800190565b6040808252601390820152721b585e155b99195c9ddc9a5d195c931a5b5a5d606a1b6060820152602081019190915260800190565b602080825260409082018190527f54686520626f72726f77657220646f6573206e6f74206861766520656e6f7567908201527f6820637265646974206c696d697420666f7220746869732064726177646f776e606082015260800190565b9283526020830191909152604082015260600190565b93845260208401929092526040830152606082015260800190565b6001600160a01b0381168114611dea57600080fdfe608060405234801561001057600080fd5b50610e4b806100206000396000f3fe608060405234801561001057600080fd5b50600436106101c45760003560e01c80638da5cb5b116100f9578063c98c05b711610097578063f2fde38b11610071578063f2fde38b14610391578063f90ce5ba146103b7578063fb1669ca146103bf578063fb9eb990146103dc576101c4565b8063c98c05b714610379578063ca3152e514610381578063d8dfeb4514610389576101c4565b8063a4d66daf116100d3578063a4d66daf14610344578063b39699921461034c578063b3b8a9c714610354578063b69ef8a814610371576101c4565b80638da5cb5b1461031757806396c8df371461031f57806399dd8df31461033c576101c4565b806345ff4c801161016657806361cfbca11161014057806361cfbca1146102b1578063715018a6146102ce5780637957dda3146102d65780637df1f1b9146102f3576101c4565b806345ff4c801461025d57806348e6f296146102a1578063500b245e146102a9576101c4565b806321856b36116101a257806321856b36146101f357806327e7b263146101fb5780633059b7c61461021857806341f1a12614610240576101c4565b80630d49481d146101c95780631790ebd5146101e357806319350114146101eb575b600080fd5b6101d16103f9565b60408051918252519081900360200190f35b6101d16103ff565b6101d1610405565b6101d161040b565b6101d16004803603602081101561021157600080fd5b5035610411565b61023e6004803603602081101561022e57600080fd5b50356001600160a01b0316610474565b005b6101d16004803603602081101561025657600080fd5b50356105ba565b61023e600480360360c081101561027357600080fd5b506001600160a01b038135169060208101359060408101359060608101359060808101359060a0013561061d565b6101d1610705565b6101d161070b565b6101d1600480360360208110156102c757600080fd5b5035610711565b61023e610774565b6101d1600480360360208110156102ec57600080fd5b5035610816565b6102fb610879565b604080516001600160a01b039092168252519081900360200190f35b6102fb610888565b6101d16004803603602081101561033557600080fd5b5035610897565b6101d16108fa565b6101d1610900565b6101d1610906565b6101d16004803603602081101561036a57600080fd5b503561090c565b6101d161096f565b6101d1610975565b6101d161097b565b6101d1610981565b61023e600480360360208110156103a757600080fd5b50356001600160a01b0316610987565b6101d1610a80565b6101d1600480360360208110156103d557600080fd5b5035610a86565b6101d1600480360360208110156103f257600080fd5b5035610ae9565b609b5481565b60a35481565b60a05481565b609f5481565b600061041b610b4c565b6065546001600160a01b0390811691161461046b576040805162461bcd60e51b81526020600482018190526024820152600080516020610dc8833981519152604482015290519081900360640190fd5b5060a581905590565b61047c610b4c565b6065546001600160a01b039081169116146104cc576040805162461bcd60e51b81526020600482018190526024820152600080516020610dc8833981519152604482015290519081900360640190fd5b6000816001600160a01b0316636a83b7e96040518163ffffffff1660e01b815260040160206040518083038186803b15801561050757600080fd5b505afa15801561051b573d6000803e3d6000fd5b505050506040513d602081101561053157600080fd5b50516040805163095ea7b360e01b81526001600160a01b038581166004830152600019602483015291519293509083169163095ea7b3916044808201926020929091908290030181600087803b15801561058a57600080fd5b505af115801561059e573d6000803e3d6000fd5b505050506040513d60208110156105b457600080fd5b50505050565b60006105c4610b4c565b6065546001600160a01b03908116911614610614576040805162461bcd60e51b81526020600482018190526024820152600080516020610dc8833981519152604482015290519081900360640190fd5b5060a181905590565b600054610100900460ff16806106365750610636610b50565b80610644575060005460ff16155b61067f5760405162461bcd60e51b815260040180806020018281038252602e815260200180610de8602e913960400191505060405180910390fd5b600054610100900460ff161580156106aa576000805460ff1961ff0019909116610100171660011790555b6106b2610b56565b609780546001600160a01b0319166001600160a01b0389161790556099869055609a859055609b849055609c839055609d8290554360a55580156106fc576000805461ff00191690555b50505050505050565b609d5481565b60a45481565b600061071b610b4c565b6065546001600160a01b0390811691161461076b576040805162461bcd60e51b81526020600482018190526024820152600080516020610dc8833981519152604482015290519081900360640190fd5b5060a281905590565b61077c610b4c565b6065546001600160a01b039081169116146107cc576040805162461bcd60e51b81526020600482018190526024820152600080516020610dc8833981519152604482015290519081900360640190fd5b6065546040516000916001600160a01b0316907f8be0079c531659141344cd1fd0a4f28419497f9722a3daafe3b4186f6b6457e0908390a3606580546001600160a01b0319169055565b6000610820610b4c565b6065546001600160a01b03908116911614610870576040805162461bcd60e51b81526020600482018190526024820152600080516020610dc8833981519152604482015290519081900360640190fd5b5060a481905590565b6097546001600160a01b031681565b6065546001600160a01b031690565b60006108a1610b4c565b6065546001600160a01b039081169116146108f1576040805162461bcd60e51b81526020600482018190526024820152600080516020610dc8833981519152604482015290519081900360640190fd5b50609f81905590565b609c5481565b60995481565b609a5481565b6000610916610b4c565b6065546001600160a01b03908116911614610966576040805162461bcd60e51b81526020600482018190526024820152600080516020610dc8833981519152604482015290519081900360640190fd5b5060a081905590565b609e5481565b60a25481565b60a15481565b60985481565b61098f610b4c565b6065546001600160a01b039081169116146109df576040805162461bcd60e51b81526020600482018190526024820152600080516020610dc8833981519152604482015290519081900360640190fd5b6001600160a01b038116610a245760405162461bcd60e51b8152600401808060200182810382526026815260200180610da26026913960400191505060405180910390fd5b6065546040516001600160a01b038084169216907f8be0079c531659141344cd1fd0a4f28419497f9722a3daafe3b4186f6b6457e090600090a3606580546001600160a01b0319166001600160a01b0392909216919091179055565b60a55481565b6000610a90610b4c565b6065546001600160a01b03908116911614610ae0576040805162461bcd60e51b81526020600482018190526024820152600080516020610dc8833981519152604482015290519081900360640190fd5b50609e81905590565b6000610af3610b4c565b6065546001600160a01b03908116911614610b43576040805162461bcd60e51b81526020600482018190526024820152600080516020610dc8833981519152604482015290519081900360640190fd5b5060a381905590565b3390565b303b1590565b600054610100900460ff1680610b6f5750610b6f610b50565b80610b7d575060005460ff16155b610bb85760405162461bcd60e51b815260040180806020018281038252602e815260200180610de8602e913960400191505060405180910390fd5b600054610100900460ff16158015610be3576000805460ff1961ff0019909116610100171660011790555b610beb610c08565b610bf3610ca8565b8015610c05576000805461ff00191690555b50565b600054610100900460ff1680610c215750610c21610b50565b80610c2f575060005460ff16155b610c6a5760405162461bcd60e51b815260040180806020018281038252602e815260200180610de8602e913960400191505060405180910390fd5b600054610100900460ff16158015610bf3576000805460ff1961ff0019909116610100171660011790558015610c05576000805461ff001916905550565b600054610100900460ff1680610cc15750610cc1610b50565b80610ccf575060005460ff16155b610d0a5760405162461bcd60e51b815260040180806020018281038252602e815260200180610de8602e913960400191505060405180910390fd5b600054610100900460ff16158015610d35576000805460ff1961ff0019909116610100171660011790555b6000610d3f610b4c565b606580546001600160a01b0319166001600160a01b038316908117909155604051919250906000907f8be0079c531659141344cd1fd0a4f28419497f9722a3daafe3b4186f6b6457e0908290a3508015610c05576000805461ff00191690555056fe4f776e61626c653a206e6577206f776e657220697320746865207a65726f20616464726573734f776e61626c653a2063616c6c6572206973206e6f7420746865206f776e6572436f6e747261637420696e7374616e63652068617320616c7265616479206265656e20696e697469616c697a6564a26469706673582212203fe7bd8351db8c0685f4c76dfebe710abd8f33dea21785f80ee3f39d7f460da764736f6c63430006080033a264697066735822122004f9ffd4c5e8b6c19a9602b9fa95c7d2d4e1bf0932d66a1a15b0cffcf42b3a8864736f6c63430006080033",
      "deployedBytecode": "0x6080604052600436106101665760003560e01c80637d533642116100d1578063c4d66de81161008a578063f19605d611610064578063f19605d6146103cd578063f2fde38b146103e2578063f3b7d81514610402578063f5c7e0e21461041557610166565b8063c4d66de814610378578063e9e15b4f14610398578063f0c30cac146103b857610166565b80637d533642146102ce578063844a28c3146102ee5780638456cb591461031b5780638da5cb5b14610330578063c26ff93614610345578063c40768761461036557610166565b80635c080853116101235780635c0808531461022f5780635c975abb1461024f57806364bfa546146102715780636d75b9ee14610291578063715018a6146102a45780637216e7c8146102b957610166565b80630e4645ef1461016b5780631755ff211461018d578063200d3d49146101b85780633f4ba83a146101d8578063440c41bb146101ed5780634cfea68a1461020d575b600080fd5b34801561017757600080fd5b5061018b610186366004612d00565b610435565b005b34801561019957600080fd5b506101a261051e565b6040516101af9190612e56565b60405180910390f35b3480156101c457600080fd5b5061018b6101d3366004612dd4565b61052d565b3480156101e457600080fd5b5061018b6105c7565b3480156101f957600080fd5b5061018b610208366004612e04565b610606565b34801561021957600080fd5b50610222610aca565b6040516101af9190612f32565b34801561023b57600080fd5b5061018b61024a366004612d12565b610ad0565b34801561025b57600080fd5b50610264610cbe565b6040516101af9190612f27565b34801561027d57600080fd5b5061018b61028c366004612dd4565b610cc7565b61018b61029f366004612cd5565b610d56565b3480156102b057600080fd5b5061018b610ecb565b3480156102c557600080fd5b50610222610f4a565b3480156102da57600080fd5b506102226102e9366004612c9d565b610f50565b3480156102fa57600080fd5b5061030e610309366004612c9d565b610f62565b6040516101af9190612eda565b34801561032757600080fd5b5061018b610fff565b34801561033c57600080fd5b506101a261103c565b34801561035157600080fd5b5061030e610360366004612c9d565b61104b565b61018b610373366004612d00565b6110e3565b34801561038457600080fd5b5061018b610393366004612c9d565b6114c5565b3480156103a457600080fd5b506101a26103b3366004612c9d565b611563565b3480156103c457600080fd5b5061018b611688565b3480156103d957600080fd5b50610222611690565b3480156103ee57600080fd5b5061018b6103fd366004612c9d565b611696565b61018b610410366004612cd5565b61174d565b34801561042157600080fd5b5061018b610430366004612c9d565b611932565b61043d611ded565b6065546001600160a01b039081169116146104735760405162461bcd60e51b815260040161046a90613251565b60405180910390fd5b60975460ff16156104965760405162461bcd60e51b815260040161046a90613106565b6001600160a01b038216600090815260cc602052604090206104b782611df1565b6104d35760405162461bcd60e51b815260040161046a906132d4565b8181556040516001600160a01b038416907f7be5403eca163f383a39c2d1f65a8fee2c9e41e7e6b150f4abfe16eaaf1d907690610511908590612f32565b60405180910390a2505050565b60c9546001600160a01b031681565b610535611ded565b6065546001600160a01b039081169116146105625760405162461bcd60e51b815260040161046a90613251565b60975460ff16156105855760405162461bcd60e51b815260040161046a90613106565b60ca81905560405133907fd051fbd9d5bbce3751e47a2ff88ee7dde1a0c474fad43693046c1f6237841dc8906105bc908490613331565b60405180910390a250565b6105cf611ded565b6065546001600160a01b039081169116146105fc5760405162461bcd60e51b815260040161046a90613251565b610604611df9565b565b60975460ff16156106295760405162461bcd60e51b815260040161046a90613106565b6000819050336001600160a01b0316816001600160a01b0316637df1f1b96040518163ffffffff1660e01b815260040160206040518083038186803b15801561067157600080fd5b505afa158015610685573d6000803e3d6000fd5b505050506040513d601f19601f820116820180604052508101906106a99190612cb9565b6001600160a01b0316146106cf5760405162461bcd60e51b815260040161046a90613178565b6106d7611e65565b60c95460405163c34e584160e01b81526001600160a01b039283169263c34e58419261070a929116908790600401612e8e565b60206040518083038186803b15801561072257600080fd5b505afa158015610736573d6000803e3d6000fd5b505050506040513d601f19601f8201168201806040525081019061075a9190612d5d565b6107765760405162461bcd60e51b815260040161046a906131bd565b61077f83611e74565b61079b5760405162461bcd60e51b815260040161046a90613130565b6107a58382611e7c565b6107c15760405162461bcd60e51b815260040161046a90613366565b806001600160a01b031663b69ef8a86040518163ffffffff1660e01b815260040160206040518083038186803b1580156107fa57600080fd5b505afa15801561080e573d6000803e3d6000fd5b505050506040513d601f19601f820116820180604052508101906108329190612dec565b61094557806001600160a01b031663fb9eb99061084e83611f37565b6040518263ffffffff1660e01b815260040161086a9190612f32565b602060405180830381600087803b15801561088457600080fd5b505af1158015610898573d6000803e3d6000fd5b505050506040513d601f19601f820116820180604052508101906108bc9190612dec565b50806001600160a01b0316637957dda36108d583611fcc565b6040518263ffffffff1660e01b81526004016108f19190612f32565b602060405180830381600087803b15801561090b57600080fd5b505af115801561091f573d6000803e3d6000fd5b505050506040513d601f19601f820116820180604052508101906109439190612dec565b505b600080610952834361215f565b9150915060006109d986856001600160a01b031663b69ef8a86040518163ffffffff1660e01b815260040160206040518083038186803b15801561099557600080fd5b505afa1580156109a9573d6000803e3d6000fd5b505050506040513d601f19601f820116820180604052508101906109cd9190612dec565b9063ffffffff61227816565b90506109e7848285856122a4565b6109ef611e65565b60c9546040516323b872dd60e01b81526001600160a01b03928316926323b872dd92610a249291169033908b90600401612e6a565b602060405180830381600087803b158015610a3e57600080fd5b505af1158015610a52573d6000803e3d6000fd5b505050506040513d601f19601f82011682018060405250810190610a769190612d5d565b50836001600160a01b0316336001600160a01b03167f7ec4669c579321a5cf5a6b525637eb0924a93e2e11eab9d14be8b44de1116b1b88604051610aba9190612f32565b60405180910390a3505050505050565b61168081565b60975460ff1615610af35760405162461bcd60e51b815260040161046a90613106565b33600090815260cc602090815260408083206001600160a01b038a16845260cd909252909120610b238783612558565b610b3f5760405162461bcd60e51b815260040161046a90613086565b6000604051610b4d90612c6f565b604051809103906000f080158015610b69573d6000803e3d6000fd5b50604051628bfe9960e71b81529091506001600160a01b038216906345ff4c8090610ba2908c908c908c908c908c908c90600401612ea7565b600060405180830381600087803b158015610bbc57600080fd5b505af1158015610bd0573d6000803e3d6000fd5b505060c95460405163182cdbe360e11b81526001600160a01b038086169450633059b7c69350610c04921690600401612e56565b600060405180830381600087803b158015610c1e57600080fd5b505af1158015610c32573d6000803e3d6000fd5b5050506001808501805480830182556000918252602080832090910180546001600160a01b038088166001600160a01b0319928316811790935588549586018955888552928420909401805490941681179093556040519293508c16917fc1d7685016f2246662e70fe17df916e959813e9ab93d50c4f039c0c069c5f3719190a3505050505050505050565b60975460ff1690565b610ccf611ded565b6065546001600160a01b03908116911614610cfc5760405162461bcd60e51b815260040161046a90613251565b60975460ff1615610d1f5760405162461bcd60e51b815260040161046a90613106565b60cb81905560405133907fd051fbd9d5bbce3751e47a2ff88ee7dde1a0c474fad43693046c1f6237841dc8906105bc9084906130d4565b60975460ff1615610d795760405162461bcd60e51b815260040161046a90613106565b81610d82611e65565b6001600160a01b03166323b872dd3385856040518463ffffffff1660e01b8152600401610db193929190612e6a565b602060405180830381600087803b158015610dcb57600080fd5b505af1158015610ddf573d6000803e3d6000fd5b505050506040513d601f19601f82011682018060405250810190610e039190612d5d565b506000610e4383836001600160a01b031663c98c05b76040518163ffffffff1660e01b815260040160206040518083038186803b15801561099557600080fd5b6040516361cfbca160e01b81529091506001600160a01b038316906361cfbca190610e72908490600401612f32565b602060405180830381600087803b158015610e8c57600080fd5b505af1158015610ea0573d6000803e3d6000fd5b505050506040513d601f19601f82011682018060405250810190610ec49190612dec565b5050505050565b610ed3611ded565b6065546001600160a01b03908116911614610f005760405162461bcd60e51b815260040161046a90613251565b6065546040516000916001600160a01b0316907f8be0079c531659141344cd1fd0a4f28419497f9722a3daafe3b4186f6b6457e0908390a3606580546001600160a01b0319169055565b60ca5481565b60cc6020526000908152604090205481565b60975460609060ff1615610f885760405162461bcd60e51b815260040161046a90613106565b6001600160a01b038216600090815260cc602090815260409182902060010180548351818402810184019094528084529091830182828015610ff357602002820191906000526020600020905b81546001600160a01b03168152600190910190602001808311610fd5575b50505050509050919050565b611007611ded565b6065546001600160a01b039081169116146110345760405162461bcd60e51b815260040161046a90613251565b610604612586565b6065546001600160a01b031690565b60975460609060ff16156110715760405162461bcd60e51b815260040161046a90613106565b6001600160a01b038216600090815260cd602090815260409182902080548351818402810184019094528084529091830182828015610ff3576020028201919060005260206000209081546001600160a01b03168152600190910190602001808311610fd55750505050509050919050565b60975460ff16156111065760405162461bcd60e51b815260040161046a90613106565b8161111082611e74565b61112c5760405162461bcd60e51b815260040161046a90613130565b611134611e65565b6001600160a01b031663c34e584133846040518363ffffffff1660e01b8152600401611161929190612e8e565b60206040518083038186803b15801561117957600080fd5b505afa15801561118d573d6000803e3d6000fd5b505050506040513d601f19601f820116820180604052508101906111b19190612d5d565b6111cd5760405162461bcd60e51b815260040161046a90613002565b60008060006111df84864360016125df565b919450925090508215611332576111f4611e65565b6001600160a01b03166323b872dd3388866040518463ffffffff1660e01b815260040161122393929190612e6a565b602060405180830381600087803b15801561123d57600080fd5b505af1158015611251573d6000803e3d6000fd5b505050506040513d601f19601f820116820180604052508101906112759190612d5d565b50836001600160a01b03166361cfbca16112c285876001600160a01b031663c98c05b76040518163ffffffff1660e01b815260040160206040518083038186803b15801561099557600080fd5b6040518263ffffffff1660e01b81526004016112de9190612f32565b602060405180830381600087803b1580156112f857600080fd5b505af115801561130c573d6000803e3d6000fd5b505050506040513d601f19601f820116820180604052508101906113309190612dec565b505b81156113a057611340611e65565b6001600160a01b03166364de8a0733846040518363ffffffff1660e01b815260040161136d929190612e8e565b600060405180830381600087803b15801561138757600080fd5b505af115801561139b573d6000803e3d6000fd5b505050505b801561140e576113ae611e65565b6001600160a01b031663bcfa41ba33836040518363ffffffff1660e01b81526004016113db929190612e8e565b600060405180830381600087803b1580156113f557600080fd5b505af1158015611409573d6000803e3d6000fd5b505050505b836001600160a01b0316846001600160a01b0316637df1f1b96040518163ffffffff1660e01b815260040160206040518083038186803b15801561145157600080fd5b505afa158015611465573d6000803e3d6000fd5b505050506040513d601f19601f820116820180604052508101906114899190612cb9565b6001600160a01b03167f73bc067f8d6bb15a01636f9b76c6daa98472621717a0788af90498d8bfe69eb0848487604051610aba939291906133c4565b600054610100900460ff16806114de57506114de612873565b806114ec575060005460ff16155b6115085760405162461bcd60e51b815260040161046a90613286565b600054610100900460ff16158015611533576000805460ff1961ff0019909116610100171660011790555b61153b612879565b611543611688565b61154c82611563565b50801561155f576000805461ff00191690555b5050565b600061156d611ded565b6065546001600160a01b0390811691161461159a5760405162461bcd60e51b815260040161046a90613251565b60975460ff16156115bd5760405162461bcd60e51b815260040161046a90613106565b816001600160a01b0316633a98ef396040518163ffffffff1660e01b815260040160206040518083038186803b1580156115f657600080fd5b505afa15801561160a573d6000803e3d6000fd5b505050506040513d601f19601f8201168201806040525081019061162e9190612dec565b5060c9546040516001600160a01b038085169216907fbc265b118422e9d29f4173594a64a9c2ac4d07373e209a941f4bc8c83c38321b90600090a35060c980546001600160a01b0319166001600160a01b03831617905590565b61060461290b565b60cb5481565b61169e611ded565b6065546001600160a01b039081169116146116cb5760405162461bcd60e51b815260040161046a90613251565b6001600160a01b0381166116f15760405162461bcd60e51b815260040161046a90612fbc565b6065546040516001600160a01b038084169216907f8be0079c531659141344cd1fd0a4f28419497f9722a3daafe3b4186f6b6457e090600090a3606580546001600160a01b0319166001600160a01b0392909216919091179055565b60975460ff16156117705760405162461bcd60e51b815260040161046a90613106565b8161177a82611e74565b6117965760405162461bcd60e51b815260040161046a90613130565b61179e611e65565b6001600160a01b03166323b872dd3385856040518463ffffffff1660e01b81526004016117cd93929190612e6a565b602060405180830381600087803b1580156117e757600080fd5b505af11580156117fb573d6000803e3d6000fd5b505050506040513d601f19601f8201168201806040525081019061181f9190612d5d565b50600061185f83836001600160a01b031663ca3152e56040518163ffffffff1660e01b815260040160206040518083038186803b15801561099557600080fd5b6040516320f8d09360e11b81529091506001600160a01b038316906341f1a1269061188e908490600401612f32565b602060405180830381600087803b1580156118a857600080fd5b505af11580156118bc573d6000803e3d6000fd5b505050506040513d601f19601f820116820180604052508101906118e09190612dec565b50816001600160a01b0316336001600160a01b03167f83846cba5d937a7cd93b3dbb931c1cd260ce7a8ba928f072848719da0666e741856040516119249190612f32565b60405180910390a350505050565b60975460ff16156119555760405162461bcd60e51b815260040161046a90613106565b6000819050806001600160a01b031663500b245e6040518163ffffffff1660e01b815260040160206040518083038186803b15801561199357600080fd5b505afa1580156119a7573d6000803e3d6000fd5b505050506040513d601f19601f820116820180604052508101906119cb9190612dec565b4310156119d85750611dea565b6000806000611aca84856001600160a01b031663ca3152e56040518163ffffffff1660e01b815260040160206040518083038186803b158015611a1a57600080fd5b505afa158015611a2e573d6000803e3d6000fd5b505050506040513d601f19601f82011682018060405250810190611a529190612dec565b866001600160a01b031663500b245e6040518163ffffffff1660e01b815260040160206040518083038186803b158015611a8b57600080fd5b505afa158015611a9f573d6000803e3d6000fd5b505050506040513d601f19601f82011682018060405250810190611ac39190612dec565b60006125df565b925092509250836001600160a01b03166341f1a126846040518263ffffffff1660e01b8152600401611afc9190612f32565b602060405180830381600087803b158015611b1657600080fd5b505af1158015611b2a573d6000803e3d6000fd5b505050506040513d601f19601f82011682018060405250810190611b4e9190612dec565b50611b57611e65565b6001600160a01b03166364de8a0733846040518363ffffffff1660e01b8152600401611b84929190612e8e565b600060405180830381600087803b158015611b9e57600080fd5b505af1158015611bb2573d6000803e3d6000fd5b50505050611bbe611e65565b6001600160a01b031663bcfa41ba33836040518363ffffffff1660e01b8152600401611beb929190612e8e565b600060405180830381600087803b158015611c0557600080fd5b505af1158015611c19573d6000803e3d6000fd5b50505050836001600160a01b0316637957dda3611c3586611fcc565b6040518263ffffffff1660e01b8152600401611c519190612f32565b602060405180830381600087803b158015611c6b57600080fd5b505af1158015611c7f573d6000803e3d6000fd5b505050506040513d601f19601f82011682018060405250810190611ca39190612dec565b506000846001600160a01b031663193501146040518163ffffffff1660e01b815260040160206040518083038186803b158015611cdf57600080fd5b505afa158015611cf3573d6000803e3d6000fd5b505050506040513d601f19601f82011682018060405250810190611d179190612dec565b1115611d2657611d2684611dea565b836001600160a01b0316846001600160a01b0316637df1f1b96040518163ffffffff1660e01b815260040160206040518083038186803b158015611d6957600080fd5b505afa158015611d7d573d6000803e3d6000fd5b505050506040513d601f19601f82011682018060405250810190611da19190612cb9565b6001600160a01b03167f73bc067f8d6bb15a01636f9b76c6daa98472621717a0788af90498d8bfe69eb0848487604051611ddd939291906133c4565b60405180910390a3505050505b50565b3390565b60ca54101590565b60975460ff16611e1b5760405162461bcd60e51b815260040161046a90612f8e565b6097805460ff191690557f5db9ee0a495bf2e6ff9c91a7834c1ba4fdd244a5e8aa4e537bd38aeae4b073aa611e4e611ded565b604051611e5b9190612e56565b60405180910390a1565b60c9546001600160a01b031690565b60cb54101590565b6000816001600160a01b031663a4d66daf6040518163ffffffff1660e01b815260040160206040518083038186803b158015611eb757600080fd5b505afa158015611ecb573d6000803e3d6000fd5b505050506040513d601f19601f82011682018060405250810190611eef9190612dec565b611f2c84846001600160a01b031663b69ef8a86040518163ffffffff1660e01b815260040160206040518083038186803b15801561099557600080fd5b111590505b92915050565b6000611f31611fbf836001600160a01b03166348e6f2966040518163ffffffff1660e01b815260040160206040518083038186803b158015611f7857600080fd5b505afa158015611f8c573d6000803e3d6000fd5b505050506040513d601f19601f82011682018060405250810190611fb09190612dec565b6116809063ffffffff61299716565b439063ffffffff61227816565b600080612052611680846001600160a01b03166399dd8df36040518163ffffffff1660e01b815260040160206040518083038186803b15801561200e57600080fd5b505afa158015612022573d6000803e3d6000fd5b505050506040513d601f19601f820116820180604052508101906120469190612dec565b9063ffffffff61299716565b90506000836001600160a01b031663500b245e6040518163ffffffff1660e01b815260040160206040518083038186803b15801561208f57600080fd5b505afa1580156120a3573d6000803e3d6000fd5b505050506040513d601f19601f820116820180604052508101906120c79190612dec565b1561214457836001600160a01b031663500b245e6040518163ffffffff1660e01b815260040160206040518083038186803b15801561210557600080fd5b505afa158015612119573d6000803e3d6000fd5b505050506040513d601f19601f8201168201806040525081019061213d9190612dec565b9050612147565b50435b612157818363ffffffff61227816565b949350505050565b60008060008073__$a2cc30817a35d2af16162c36988ade30ce$__634678497187876040518363ffffffff1660e01b815260040161219e929190612e8e565b604080518083038186803b1580156121b557600080fd5b505af41580156121c9573d6000803e3d6000fd5b505050506040513d601f19601f820116820180604052508101906121ed9190612e33565b9150915061222e82876001600160a01b03166321856b366040518163ffffffff1660e01b815260040160206040518083038186803b15801561099557600080fd5b61226b82886001600160a01b031663193501146040518163ffffffff1660e01b815260040160206040518083038186803b15801561099557600080fd5b9350935050509250929050565b60008282018381101561229d5760405162461bcd60e51b815260040161046a9061304f565b9392505050565b604051637d8b34e560e11b81526001600160a01b0385169063fb1669ca906122d0908690600401612f32565b602060405180830381600087803b1580156122ea57600080fd5b505af11580156122fe573d6000803e3d6000fd5b505050506040513d601f19601f820116820180604052508101906123229190612dec565b506040516396c8df3760e01b81526001600160a01b038516906396c8df379061234f908590600401612f32565b602060405180830381600087803b15801561236957600080fd5b505af115801561237d573d6000803e3d6000fd5b505050506040513d601f19601f820116820180604052508101906123a19190612dec565b5060405163b3b8a9c760e01b81526001600160a01b0385169063b3b8a9c7906123ce908490600401612f32565b602060405180830381600087803b1580156123e857600080fd5b505af11580156123fc573d6000803e3d6000fd5b505050506040513d601f19601f820116820180604052508101906124209190612dec565b506040516327e7b26360e01b81526001600160a01b038516906327e7b2639061244d904390600401612f32565b602060405180830381600087803b15801561246757600080fd5b505af115801561247b573d6000803e3d6000fd5b505050506040513d601f19601f8201168201806040525081019061249f9190612dec565b508261255257604051630fb9eb9960e41b81526001600160a01b0385169063fb9eb990906124d290600090600401612f32565b602060405180830381600087803b1580156124ec57600080fd5b505af1158015612500573d6000803e3d6000fd5b505050506040513d601f19601f820116820180604052508101906125249190612dec565b50604051637957dda360e01b81526001600160a01b03851690637957dda390610e7290600090600401612f32565b50505050565b600080612564836129d1565b90506000612578828663ffffffff61227816565b845410159250505092915050565b60975460ff16156125a95760405162461bcd60e51b815260040161046a90613106565b6097805460ff191660011790557f62e78cea01bee320cd4e420270b5ea74000d11b0c9f74754ebdbfc544b05a258611e4e611ded565b60008060008060006125f1898861215f565b915091506125fd612c7c565b73__$a2cc30817a35d2af16162c36988ade30ce$__63d7cc2a038a8c6001600160a01b031663b69ef8a86040518163ffffffff1660e01b815260040160206040518083038186803b15801561265157600080fd5b505afa158015612665573d6000803e3d6000fd5b505050506040513d601f19601f820116820180604052508101906126899190612dec565b86866040518563ffffffff1660e01b81526004016126aa94939291906133da565b60606040518083038186803b1580156126c257600080fd5b505af41580156126d6573d6000803e3d6000fd5b505050506040513d601f19601f820116820180604052508101906126fa9190612d7d565b9050600061278382602001518c6001600160a01b031663b69ef8a86040518163ffffffff1660e01b815260040160206040518083038186803b15801561273f57600080fd5b505afa158015612753573d6000803e3d6000fd5b505050506040513d601f19601f820116820180604052508101906127779190612dec565b9063ffffffff612aa616565b905087156127a45760408201516127a190829063ffffffff612aa616565b90505b60006127e3828d6001600160a01b031663b69ef8a86040518163ffffffff1660e01b815260040160206040518083038186803b15801561273f57600080fd5b905060006128028261277786600001518f612aa690919063ffffffff16565b905061283b8d8461282087600001518a612aa690919063ffffffff16565b6020880151612836908a9063ffffffff612aa616565b6122a4565b8b612857836109cd87600001518561227890919063ffffffff16565b1461285e57fe5b9251929c929b50995090975050505050505050565b303b1590565b600054610100900460ff16806128925750612892612873565b806128a0575060005460ff16155b6128bc5760405162461bcd60e51b815260040161046a90613286565b600054610100900460ff161580156128e7576000805460ff1961ff0019909116610100171660011790555b6128ef612ae8565b6128f7612b69565b8015611dea576000805461ff001916905550565b600054610100900460ff16806129245750612924612873565b80612932575060005460ff16155b61294e5760405162461bcd60e51b815260040161046a90613286565b600054610100900460ff16158015612979576000805460ff1961ff0019909116610100171660011790555b6097805460ff191690558015611dea576000805461ff001916905550565b6000826129a657506000611f31565b828202828482816129b357fe5b041461229d5760405162461bcd60e51b815260040161046a90613210565b600080805b6001840154811015612a9f5760008460010182815481106129f357fe5b9060005260206000200160009054906101000a90046001600160a01b03169050612a94816001600160a01b031663a4d66daf6040518163ffffffff1660e01b815260040160206040518083038186803b158015612a4f57600080fd5b505afa158015612a63573d6000803e3d6000fd5b505050506040513d601f19601f82011682018060405250810190612a879190612dec565b849063ffffffff61227816565b9250506001016129d6565b5092915050565b600061229d83836040518060400160405280601e81526020017f536166654d6174683a207375627472616374696f6e206f766572666c6f770000815250612c43565b600054610100900460ff1680612b015750612b01612873565b80612b0f575060005460ff16155b612b2b5760405162461bcd60e51b815260040161046a90613286565b600054610100900460ff161580156128f7576000805460ff1961ff0019909116610100171660011790558015611dea576000805461ff001916905550565b600054610100900460ff1680612b825750612b82612873565b80612b90575060005460ff16155b612bac5760405162461bcd60e51b815260040161046a90613286565b600054610100900460ff16158015612bd7576000805460ff1961ff0019909116610100171660011790555b6000612be1611ded565b606580546001600160a01b0319166001600160a01b038316908117909155604051919250906000907f8be0079c531659141344cd1fd0a4f28419497f9722a3daafe3b4186f6b6457e0908290a3508015611dea576000805461ff001916905550565b60008184841115612c675760405162461bcd60e51b815260040161046a9190612f3b565b505050900390565b610e6b8061340b83390190565b60405180606001604052806000815260200160008152602001600081525090565b600060208284031215612cae578081fd5b813561229d816133f5565b600060208284031215612cca578081fd5b815161229d816133f5565b60008060408385031215612ce7578081fd5b8235612cf2816133f5565b946020939093013593505050565b60008060408385031215612ce7578182fd5b60008060008060008060c08789031215612d2a578182fd5b8635612d35816133f5565b9860208801359850604088013597606081013597506080810135965060a00135945092505050565b600060208284031215612d6e578081fd5b8151801515811461229d578182fd5b600060608284031215612d8e578081fd5b6040516060810181811067ffffffffffffffff82111715612dad578283fd5b80604052508251815260208301516020820152604083015160408201528091505092915050565b600060208284031215612de5578081fd5b5035919050565b600060208284031215612dfd578081fd5b5051919050565b60008060408385031215612e16578182fd5b823591506020830135612e28816133f5565b809150509250929050565b60008060408385031215612e45578182fd5b505080516020909101519092909150565b6001600160a01b0391909116815260200190565b6001600160a01b039384168152919092166020820152604081019190915260600190565b6001600160a01b03929092168252602082015260400190565b6001600160a01b03969096168652602086019490945260408501929092526060840152608083015260a082015260c00190565b6020808252825182820181905260009190848201906040850190845b81811015612f1b5783516001600160a01b031683529284019291840191600101612ef6565b50909695505050505050565b901515815260200190565b90815260200190565b6000602080835283518082850152825b81811015612f6757858101830151858201604001528201612f4b565b81811115612f785783604083870101525b50601f01601f1916929092016040019392505050565b60208082526014908201527314185d5cd8589b194e881b9bdd081c185d5cd95960621b604082015260600190565b60208082526026908201527f4f776e61626c653a206e6577206f776e657220697320746865207a65726f206160408201526564647265737360d01b606082015260800190565b6020808252602d908201527f596f75206861766520696e737566666963656e742062616c616e636520666f7260408201526c081d1a1a5cc81c185e5b595b9d609a1b606082015260800190565b6020808252601b908201527f536166654d6174683a206164646974696f6e206f766572666c6f770000000000604082015260600190565b6020808252602e908201527f54686520756e6465727772697465722063616e6e6f742063726561746520746860408201526d697320637265646974206c696e6560901b606082015260800190565b60408082526010908201526f1d1c985b9cd858dd1a5bdb931a5b5a5d60821b6060820152602081019190915260800190565b60208082526010908201526f14185d5cd8589b194e881c185d5cd95960821b604082015260600190565b60208082526028908201527f416d6f756e74206973206f76657220746865207065722d7472616e73616374696040820152671bdb881b1a5b5a5d60c21b606082015260800190565b60208082526025908201527f596f7520646f206e6f742062656c6f6e6720746f207468697320637265646974604082015264206c696e6560d81b606082015260800190565b60208082526033908201527f506f6f6c20646f6573206e6f74206861766520656e6f7567682062616c616e6360408201527232903337b9103a3434b990323930bbb237bbb760691b606082015260800190565b60208082526021908201527f536166654d6174683a206d756c7469706c69636174696f6e206f766572666c6f6040820152607760f81b606082015260800190565b6020808252818101527f4f776e61626c653a2063616c6c6572206973206e6f7420746865206f776e6572604082015260600190565b6020808252602e908201527f436f6e747261637420696e7374616e63652068617320616c726561647920626560408201526d195b881a5b9a5d1a585b1a5e995960921b606082015260800190565b6020808252603a908201527f54686973206c696d69742069732067726561746572207468616e20746865206d60408201527f617820616c6c6f776564206279207468652070726f746f636f6c000000000000606082015260800190565b6040808252601390820152721b585e155b99195c9ddc9a5d195c931a5b5a5d606a1b6060820152602081019190915260800190565b602080825260409082018190527f54686520626f72726f77657220646f6573206e6f74206861766520656e6f7567908201527f6820637265646974206c696d697420666f7220746869732064726177646f776e606082015260800190565b9283526020830191909152604082015260600190565b93845260208401929092526040830152606082015260800190565b6001600160a01b0381168114611dea57600080fdfe608060405234801561001057600080fd5b50610e4b806100206000396000f3fe608060405234801561001057600080fd5b50600436106101c45760003560e01c80638da5cb5b116100f9578063c98c05b711610097578063f2fde38b11610071578063f2fde38b14610391578063f90ce5ba146103b7578063fb1669ca146103bf578063fb9eb990146103dc576101c4565b8063c98c05b714610379578063ca3152e514610381578063d8dfeb4514610389576101c4565b8063a4d66daf116100d3578063a4d66daf14610344578063b39699921461034c578063b3b8a9c714610354578063b69ef8a814610371576101c4565b80638da5cb5b1461031757806396c8df371461031f57806399dd8df31461033c576101c4565b806345ff4c801161016657806361cfbca11161014057806361cfbca1146102b1578063715018a6146102ce5780637957dda3146102d65780637df1f1b9146102f3576101c4565b806345ff4c801461025d57806348e6f296146102a1578063500b245e146102a9576101c4565b806321856b36116101a257806321856b36146101f357806327e7b263146101fb5780633059b7c61461021857806341f1a12614610240576101c4565b80630d49481d146101c95780631790ebd5146101e357806319350114146101eb575b600080fd5b6101d16103f9565b60408051918252519081900360200190f35b6101d16103ff565b6101d1610405565b6101d161040b565b6101d16004803603602081101561021157600080fd5b5035610411565b61023e6004803603602081101561022e57600080fd5b50356001600160a01b0316610474565b005b6101d16004803603602081101561025657600080fd5b50356105ba565b61023e600480360360c081101561027357600080fd5b506001600160a01b038135169060208101359060408101359060608101359060808101359060a0013561061d565b6101d1610705565b6101d161070b565b6101d1600480360360208110156102c757600080fd5b5035610711565b61023e610774565b6101d1600480360360208110156102ec57600080fd5b5035610816565b6102fb610879565b604080516001600160a01b039092168252519081900360200190f35b6102fb610888565b6101d16004803603602081101561033557600080fd5b5035610897565b6101d16108fa565b6101d1610900565b6101d1610906565b6101d16004803603602081101561036a57600080fd5b503561090c565b6101d161096f565b6101d1610975565b6101d161097b565b6101d1610981565b61023e600480360360208110156103a757600080fd5b50356001600160a01b0316610987565b6101d1610a80565b6101d1600480360360208110156103d557600080fd5b5035610a86565b6101d1600480360360208110156103f257600080fd5b5035610ae9565b609b5481565b60a35481565b60a05481565b609f5481565b600061041b610b4c565b6065546001600160a01b0390811691161461046b576040805162461bcd60e51b81526020600482018190526024820152600080516020610dc8833981519152604482015290519081900360640190fd5b5060a581905590565b61047c610b4c565b6065546001600160a01b039081169116146104cc576040805162461bcd60e51b81526020600482018190526024820152600080516020610dc8833981519152604482015290519081900360640190fd5b6000816001600160a01b0316636a83b7e96040518163ffffffff1660e01b815260040160206040518083038186803b15801561050757600080fd5b505afa15801561051b573d6000803e3d6000fd5b505050506040513d602081101561053157600080fd5b50516040805163095ea7b360e01b81526001600160a01b038581166004830152600019602483015291519293509083169163095ea7b3916044808201926020929091908290030181600087803b15801561058a57600080fd5b505af115801561059e573d6000803e3d6000fd5b505050506040513d60208110156105b457600080fd5b50505050565b60006105c4610b4c565b6065546001600160a01b03908116911614610614576040805162461bcd60e51b81526020600482018190526024820152600080516020610dc8833981519152604482015290519081900360640190fd5b5060a181905590565b600054610100900460ff16806106365750610636610b50565b80610644575060005460ff16155b61067f5760405162461bcd60e51b815260040180806020018281038252602e815260200180610de8602e913960400191505060405180910390fd5b600054610100900460ff161580156106aa576000805460ff1961ff0019909116610100171660011790555b6106b2610b56565b609780546001600160a01b0319166001600160a01b0389161790556099869055609a859055609b849055609c839055609d8290554360a55580156106fc576000805461ff00191690555b50505050505050565b609d5481565b60a45481565b600061071b610b4c565b6065546001600160a01b0390811691161461076b576040805162461bcd60e51b81526020600482018190526024820152600080516020610dc8833981519152604482015290519081900360640190fd5b5060a281905590565b61077c610b4c565b6065546001600160a01b039081169116146107cc576040805162461bcd60e51b81526020600482018190526024820152600080516020610dc8833981519152604482015290519081900360640190fd5b6065546040516000916001600160a01b0316907f8be0079c531659141344cd1fd0a4f28419497f9722a3daafe3b4186f6b6457e0908390a3606580546001600160a01b0319169055565b6000610820610b4c565b6065546001600160a01b03908116911614610870576040805162461bcd60e51b81526020600482018190526024820152600080516020610dc8833981519152604482015290519081900360640190fd5b5060a481905590565b6097546001600160a01b031681565b6065546001600160a01b031690565b60006108a1610b4c565b6065546001600160a01b039081169116146108f1576040805162461bcd60e51b81526020600482018190526024820152600080516020610dc8833981519152604482015290519081900360640190fd5b50609f81905590565b609c5481565b60995481565b609a5481565b6000610916610b4c565b6065546001600160a01b03908116911614610966576040805162461bcd60e51b81526020600482018190526024820152600080516020610dc8833981519152604482015290519081900360640190fd5b5060a081905590565b609e5481565b60a25481565b60a15481565b60985481565b61098f610b4c565b6065546001600160a01b039081169116146109df576040805162461bcd60e51b81526020600482018190526024820152600080516020610dc8833981519152604482015290519081900360640190fd5b6001600160a01b038116610a245760405162461bcd60e51b8152600401808060200182810382526026815260200180610da26026913960400191505060405180910390fd5b6065546040516001600160a01b038084169216907f8be0079c531659141344cd1fd0a4f28419497f9722a3daafe3b4186f6b6457e090600090a3606580546001600160a01b0319166001600160a01b0392909216919091179055565b60a55481565b6000610a90610b4c565b6065546001600160a01b03908116911614610ae0576040805162461bcd60e51b81526020600482018190526024820152600080516020610dc8833981519152604482015290519081900360640190fd5b50609e81905590565b6000610af3610b4c565b6065546001600160a01b03908116911614610b43576040805162461bcd60e51b81526020600482018190526024820152600080516020610dc8833981519152604482015290519081900360640190fd5b5060a381905590565b3390565b303b1590565b600054610100900460ff1680610b6f5750610b6f610b50565b80610b7d575060005460ff16155b610bb85760405162461bcd60e51b815260040180806020018281038252602e815260200180610de8602e913960400191505060405180910390fd5b600054610100900460ff16158015610be3576000805460ff1961ff0019909116610100171660011790555b610beb610c08565b610bf3610ca8565b8015610c05576000805461ff00191690555b50565b600054610100900460ff1680610c215750610c21610b50565b80610c2f575060005460ff16155b610c6a5760405162461bcd60e51b815260040180806020018281038252602e815260200180610de8602e913960400191505060405180910390fd5b600054610100900460ff16158015610bf3576000805460ff1961ff0019909116610100171660011790558015610c05576000805461ff001916905550565b600054610100900460ff1680610cc15750610cc1610b50565b80610ccf575060005460ff16155b610d0a5760405162461bcd60e51b815260040180806020018281038252602e815260200180610de8602e913960400191505060405180910390fd5b600054610100900460ff16158015610d35576000805460ff1961ff0019909116610100171660011790555b6000610d3f610b4c565b606580546001600160a01b0319166001600160a01b038316908117909155604051919250906000907f8be0079c531659141344cd1fd0a4f28419497f9722a3daafe3b4186f6b6457e0908290a3508015610c05576000805461ff00191690555056fe4f776e61626c653a206e6577206f776e657220697320746865207a65726f20616464726573734f776e61626c653a2063616c6c6572206973206e6f7420746865206f776e6572436f6e747261637420696e7374616e63652068617320616c7265616479206265656e20696e697469616c697a6564a26469706673582212203fe7bd8351db8c0685f4c76dfebe710abd8f33dea21785f80ee3f39d7f460da764736f6c63430006080033a264697066735822122004f9ffd4c5e8b6c19a9602b9fa95c7d2d4e1bf0932d66a1a15b0cffcf42b3a8864736f6c63430006080033",
      "libraries": {
        "Accountant": "0xC0Df3FB149B0bdDe9211eF682fCCC26dcB1fCbD5"
      },
      "execute": {
        "methodName": "initialize",
        "args": [
          "0x1cF513C4185dFeE9560fE7436f844AD810A07EC1"
        ]
      },
      "devdoc": {
        "methods": {
          "owner()": {
            "details": "Returns the address of the current owner."
          },
          "pause()": {
            "details": "Pauses all functions guarded by Pause    * See {Pausable-_pause}.    * Requirements:    * - the caller must be the owner."
          },
          "paused()": {
            "details": "Returns true if the contract is paused, and false otherwise."
          },
          "renounceOwnership()": {
            "details": "Leaves the contract without owner. It will not be possible to call `onlyOwner` functions anymore. Can only be called by the current owner.     * NOTE: Renouncing ownership will leave the contract without an owner, thereby removing any functionality that is only available to the owner."
          },
          "transferOwnership(address)": {
            "details": "Transfers ownership of the contract to a new account (`newOwner`). Can only be called by the current owner."
          },
          "unpause()": {
            "details": "Unpauses the contract    * See {Pausable-_unpause}.    * Requirements:    * - the caller must be the owner`."
          }
        }
      },
      "userdoc": {
        "methods": {}
      },
      "storageLayout": {
        "storage": [
          {
            "astId": 49,
            "contract": "contracts/CreditDesk.sol:CreditDesk",
            "label": "initialized",
            "offset": 0,
            "slot": "0",
            "type": "t_bool"
          },
          {
            "astId": 51,
            "contract": "contracts/CreditDesk.sol:CreditDesk",
            "label": "initializing",
            "offset": 1,
            "slot": "0",
            "type": "t_bool"
          },
          {
            "astId": 116,
            "contract": "contracts/CreditDesk.sol:CreditDesk",
            "label": "______gap",
            "offset": 0,
            "slot": "1",
            "type": "t_array(t_uint256)50_storage"
          },
          {
            "astId": 43,
            "contract": "contracts/CreditDesk.sol:CreditDesk",
            "label": "__gap",
            "offset": 0,
            "slot": "51",
            "type": "t_array(t_uint256)50_storage"
          },
          {
            "astId": 128,
            "contract": "contracts/CreditDesk.sol:CreditDesk",
            "label": "_owner",
            "offset": 0,
            "slot": "101",
            "type": "t_address"
          },
          {
            "astId": 246,
            "contract": "contracts/CreditDesk.sol:CreditDesk",
            "label": "__gap",
            "offset": 0,
            "slot": "102",
            "type": "t_array(t_uint256)49_storage"
          },
          {
            "astId": 1213,
            "contract": "contracts/CreditDesk.sol:CreditDesk",
            "label": "_paused",
            "offset": 0,
            "slot": "151",
            "type": "t_bool"
          },
          {
            "astId": 1302,
            "contract": "contracts/CreditDesk.sol:CreditDesk",
            "label": "__gap",
            "offset": 0,
            "slot": "152",
            "type": "t_array(t_uint256)49_storage"
          },
          {
            "astId": 1731,
            "contract": "contracts/CreditDesk.sol:CreditDesk",
            "label": "poolAddress",
            "offset": 0,
            "slot": "201",
            "type": "t_address"
          },
          {
            "astId": 1734,
            "contract": "contracts/CreditDesk.sol:CreditDesk",
            "label": "maxUnderwriterLimit",
            "offset": 0,
            "slot": "202",
            "type": "t_uint256"
          },
          {
            "astId": 1737,
            "contract": "contracts/CreditDesk.sol:CreditDesk",
            "label": "transactionLimit",
            "offset": 0,
            "slot": "203",
            "type": "t_uint256"
          },
          {
            "astId": 1805,
            "contract": "contracts/CreditDesk.sol:CreditDesk",
            "label": "underwriters",
            "offset": 0,
            "slot": "204",
            "type": "t_mapping(t_address,t_struct(Underwriter)1743_storage)"
          },
          {
            "astId": 1809,
            "contract": "contracts/CreditDesk.sol:CreditDesk",
            "label": "borrowers",
            "offset": 0,
            "slot": "205",
            "type": "t_mapping(t_address,t_struct(Borrower)1747_storage)"
          }
        ],
        "types": {
          "t_address": {
            "encoding": "inplace",
            "label": "address",
            "numberOfBytes": "20"
          },
          "t_array(t_address)dyn_storage": {
            "base": "t_address",
            "encoding": "dynamic_array",
            "label": "address[]",
            "numberOfBytes": "32"
          },
          "t_array(t_uint256)49_storage": {
            "base": "t_uint256",
            "encoding": "inplace",
            "label": "uint256[49]",
            "numberOfBytes": "1568"
          },
          "t_array(t_uint256)50_storage": {
            "base": "t_uint256",
            "encoding": "inplace",
            "label": "uint256[50]",
            "numberOfBytes": "1600"
          },
          "t_bool": {
            "encoding": "inplace",
            "label": "bool",
            "numberOfBytes": "1"
          },
          "t_mapping(t_address,t_struct(Borrower)1747_storage)": {
            "encoding": "mapping",
            "key": "t_address",
            "label": "mapping(address => struct CreditDesk.Borrower)",
            "numberOfBytes": "32",
            "value": "t_struct(Borrower)1747_storage"
          },
          "t_mapping(t_address,t_struct(Underwriter)1743_storage)": {
            "encoding": "mapping",
            "key": "t_address",
            "label": "mapping(address => struct CreditDesk.Underwriter)",
            "numberOfBytes": "32",
            "value": "t_struct(Underwriter)1743_storage"
          },
          "t_struct(Borrower)1747_storage": {
            "encoding": "inplace",
            "label": "struct CreditDesk.Borrower",
            "members": [
              {
                "astId": 1746,
                "contract": "contracts/CreditDesk.sol:CreditDesk",
                "label": "creditLines",
                "offset": 0,
                "slot": "0",
                "type": "t_array(t_address)dyn_storage"
              }
            ],
            "numberOfBytes": "32"
          },
          "t_struct(Underwriter)1743_storage": {
            "encoding": "inplace",
            "label": "struct CreditDesk.Underwriter",
            "members": [
              {
                "astId": 1739,
                "contract": "contracts/CreditDesk.sol:CreditDesk",
                "label": "governanceLimit",
                "offset": 0,
                "slot": "0",
                "type": "t_uint256"
              },
              {
                "astId": 1742,
                "contract": "contracts/CreditDesk.sol:CreditDesk",
                "label": "creditLines",
                "offset": 0,
                "slot": "1",
                "type": "t_array(t_address)dyn_storage"
              }
            ],
            "numberOfBytes": "64"
          },
          "t_uint256": {
            "encoding": "inplace",
            "label": "uint256",
            "numberOfBytes": "32"
          }
        }
      },
      "gasEstimates": {
        "creation": {
          "codeDepositCost": "3413400",
          "executionCost": "13823",
          "totalCost": "3427223"
        },
        "external": {
          "__OwnerPausable__init()": "66017",
          "addCollateral(address,uint256)": "infinite",
          "assessCreditLine(address)": "infinite",
          "blocksPerDay()": "362",
          "createCreditLine(address,uint256,uint256,uint256,uint256,uint256)": "infinite",
          "drawdown(uint256,address)": "infinite",
          "getBorrowerCreditLines(address)": "infinite",
          "getUnderwriterCreditLines(address)": "infinite",
          "initialize(address)": "infinite",
          "maxUnderwriterLimit()": "1161",
          "owner()": "1159",
          "pause()": "infinite",
          "paused()": "1085",
          "pay(address,uint256)": "infinite",
          "poolAddress()": "1116",
          "prepay(address,uint256)": "infinite",
          "renounceOwnership()": "24312",
          "setMaxUnderwriterLimit(uint256)": "24315",
          "setPoolAddress(address)": "infinite",
          "setTransactionLimit(uint256)": "24314",
          "setUnderwriterGovernanceLimit(address,uint256)": "24493",
          "transactionLimit()": "1072",
          "transferOwnership(address)": "24499",
          "underwriters(address)": "1269",
          "unpause()": "infinite"
        },
        "internal": {
          "calculateNewTermEndBlock(contract CreditLine)": "infinite",
          "calculateNextDueBlock(contract CreditLine)": "infinite",
          "getCreditCurrentlyExtended(struct CreditDesk.Underwriter storage pointer)": "infinite",
          "getInterestAndPrincipalOwedAsOf(contract CreditLine,uint256)": "infinite",
          "getPool()": "833",
          "handleLatePayments(contract CreditLine)": "infinite",
          "handlePayment(contract CreditLine,uint256,uint256,bool)": "infinite",
          "underwriterCanCreateThisCreditLine(uint256,struct CreditDesk.Underwriter storage pointer)": "infinite",
          "updateCreditLineAccounting(contract CreditLine,uint256,uint256,uint256)": "infinite",
          "withinCreditLimit(uint256,contract CreditLine)": "infinite",
          "withinMaxUnderwriterLimit(uint256)": "821",
          "withinTransactionLimit(uint256)": "821"
        }
      }
    }
  ],
  "devdoc": {
    "methods": {
      "owner()": {
        "details": "Returns the address of the current owner."
      },
      "pause()": {
        "details": "Pauses all functions guarded by Pause    * See {Pausable-_pause}.    * Requirements:    * - the caller must be the owner."
      },
      "paused()": {
        "details": "Returns true if the contract is paused, and false otherwise."
      },
      "renounceOwnership()": {
        "details": "Leaves the contract without owner. It will not be possible to call `onlyOwner` functions anymore. Can only be called by the current owner.     * NOTE: Renouncing ownership will leave the contract without an owner, thereby removing any functionality that is only available to the owner."
      },
      "transferOwnership(address)": {
        "details": "Transfers ownership of the contract to a new account (`newOwner`). Can only be called by the current owner."
      },
      "unpause()": {
        "details": "Unpauses the contract    * See {Pausable-_unpause}.    * Requirements:    * - the caller must be the owner`."
      }
    }
  },
  "userdoc": {
    "methods": {}
  },
  "storageLayout": {
    "storage": [
      {
        "astId": 49,
        "contract": "contracts/CreditDesk.sol:CreditDesk",
        "label": "initialized",
        "offset": 0,
        "slot": "0",
        "type": "t_bool"
      },
      {
        "astId": 51,
        "contract": "contracts/CreditDesk.sol:CreditDesk",
        "label": "initializing",
        "offset": 1,
        "slot": "0",
        "type": "t_bool"
      },
      {
        "astId": 116,
        "contract": "contracts/CreditDesk.sol:CreditDesk",
        "label": "______gap",
        "offset": 0,
        "slot": "1",
        "type": "t_array(t_uint256)50_storage"
      },
      {
        "astId": 43,
        "contract": "contracts/CreditDesk.sol:CreditDesk",
        "label": "__gap",
        "offset": 0,
        "slot": "51",
        "type": "t_array(t_uint256)50_storage"
      },
      {
        "astId": 128,
        "contract": "contracts/CreditDesk.sol:CreditDesk",
        "label": "_owner",
        "offset": 0,
        "slot": "101",
        "type": "t_address"
      },
      {
        "astId": 246,
        "contract": "contracts/CreditDesk.sol:CreditDesk",
        "label": "__gap",
        "offset": 0,
        "slot": "102",
        "type": "t_array(t_uint256)49_storage"
      },
      {
        "astId": 1213,
        "contract": "contracts/CreditDesk.sol:CreditDesk",
        "label": "_paused",
        "offset": 0,
        "slot": "151",
        "type": "t_bool"
      },
      {
        "astId": 1302,
        "contract": "contracts/CreditDesk.sol:CreditDesk",
        "label": "__gap",
        "offset": 0,
        "slot": "152",
        "type": "t_array(t_uint256)49_storage"
      },
      {
        "astId": 1731,
        "contract": "contracts/CreditDesk.sol:CreditDesk",
        "label": "poolAddress",
        "offset": 0,
        "slot": "201",
        "type": "t_address"
      },
      {
        "astId": 1734,
        "contract": "contracts/CreditDesk.sol:CreditDesk",
        "label": "maxUnderwriterLimit",
        "offset": 0,
        "slot": "202",
        "type": "t_uint256"
      },
      {
        "astId": 1737,
        "contract": "contracts/CreditDesk.sol:CreditDesk",
        "label": "transactionLimit",
        "offset": 0,
        "slot": "203",
        "type": "t_uint256"
      },
      {
        "astId": 1805,
        "contract": "contracts/CreditDesk.sol:CreditDesk",
        "label": "underwriters",
        "offset": 0,
        "slot": "204",
        "type": "t_mapping(t_address,t_struct(Underwriter)1743_storage)"
      },
      {
        "astId": 1809,
        "contract": "contracts/CreditDesk.sol:CreditDesk",
        "label": "borrowers",
        "offset": 0,
        "slot": "205",
        "type": "t_mapping(t_address,t_struct(Borrower)1747_storage)"
      }
    ],
    "types": {
      "t_address": {
        "encoding": "inplace",
        "label": "address",
        "numberOfBytes": "20"
      },
      "t_array(t_address)dyn_storage": {
        "base": "t_address",
        "encoding": "dynamic_array",
        "label": "address[]",
        "numberOfBytes": "32"
      },
      "t_array(t_uint256)49_storage": {
        "base": "t_uint256",
        "encoding": "inplace",
        "label": "uint256[49]",
        "numberOfBytes": "1568"
      },
      "t_array(t_uint256)50_storage": {
        "base": "t_uint256",
        "encoding": "inplace",
        "label": "uint256[50]",
        "numberOfBytes": "1600"
      },
      "t_bool": {
        "encoding": "inplace",
        "label": "bool",
        "numberOfBytes": "1"
      },
      "t_mapping(t_address,t_struct(Borrower)1747_storage)": {
        "encoding": "mapping",
        "key": "t_address",
        "label": "mapping(address => struct CreditDesk.Borrower)",
        "numberOfBytes": "32",
        "value": "t_struct(Borrower)1747_storage"
      },
      "t_mapping(t_address,t_struct(Underwriter)1743_storage)": {
        "encoding": "mapping",
        "key": "t_address",
        "label": "mapping(address => struct CreditDesk.Underwriter)",
        "numberOfBytes": "32",
        "value": "t_struct(Underwriter)1743_storage"
      },
      "t_struct(Borrower)1747_storage": {
        "encoding": "inplace",
        "label": "struct CreditDesk.Borrower",
        "members": [
          {
            "astId": 1746,
            "contract": "contracts/CreditDesk.sol:CreditDesk",
            "label": "creditLines",
            "offset": 0,
            "slot": "0",
            "type": "t_array(t_address)dyn_storage"
          }
        ],
        "numberOfBytes": "32"
      },
      "t_struct(Underwriter)1743_storage": {
        "encoding": "inplace",
        "label": "struct CreditDesk.Underwriter",
        "members": [
          {
            "astId": 1739,
            "contract": "contracts/CreditDesk.sol:CreditDesk",
            "label": "governanceLimit",
            "offset": 0,
            "slot": "0",
            "type": "t_uint256"
          },
          {
            "astId": 1742,
            "contract": "contracts/CreditDesk.sol:CreditDesk",
            "label": "creditLines",
            "offset": 0,
            "slot": "1",
            "type": "t_array(t_address)dyn_storage"
          }
        ],
        "numberOfBytes": "64"
      },
      "t_uint256": {
        "encoding": "inplace",
        "label": "uint256",
        "numberOfBytes": "32"
      }
    }
  },
  "gasEstimates": {
    "creation": {
      "codeDepositCost": "3516800",
      "executionCost": "13953",
      "totalCost": "3530753"
    },
    "external": {
      "__OwnerPausable__init()": "66017",
      "addCollateral(address,uint256)": "infinite",
      "assessCreditLine(address)": "infinite",
      "blocksPerDay()": "362",
      "createCreditLine(address,uint256,uint256,uint256,uint256,uint256)": "infinite",
      "drawdown(uint256,address)": "infinite",
      "getBorrowerCreditLines(address)": "infinite",
      "getUnderwriterCreditLines(address)": "infinite",
      "initialize(address)": "infinite",
      "maxUnderwriterLimit()": "1117",
      "owner()": "1137",
      "pause()": "infinite",
      "paused()": "1108",
      "pay(address,uint256)": "infinite",
      "poolAddress()": "1116",
      "prepay(address,uint256)": "infinite",
      "renounceOwnership()": "24268",
      "setMaxUnderwriterLimit(uint256)": "24315",
      "setPoolAddress(address)": "infinite",
      "setPoolTotalFundsLimit(uint256)": "infinite",
      "setTransactionLimit(uint256)": "24337",
      "setUnderwriterGovernanceLimit(address,uint256)": "24493",
      "transactionLimit()": "1072",
      "transferOwnership(address)": "24499",
      "underwriters(address)": "1357",
      "unpause()": "infinite"
    },
    "internal": {
      "calculateNewTermEndBlock(contract CreditLine)": "infinite",
      "calculateNextDueBlock(contract CreditLine)": "infinite",
      "getCreditCurrentlyExtended(struct CreditDesk.Underwriter storage pointer)": "infinite",
      "getInterestAndPrincipalOwedAsOf(contract CreditLine,uint256)": "infinite",
      "getPool()": "833",
      "handleLatePayments(contract CreditLine)": "infinite",
      "handlePayment(contract CreditLine,uint256,uint256,bool)": "infinite",
      "underwriterCanCreateThisCreditLine(uint256,struct CreditDesk.Underwriter storage pointer)": "infinite",
      "updateCreditLineAccounting(contract CreditLine,uint256,uint256,uint256)": "infinite",
      "withinCreditLimit(uint256,contract CreditLine)": "infinite",
      "withinMaxUnderwriterLimit(uint256)": "821",
      "withinTransactionLimit(uint256)": "821"
    }
  }
}