{
  "abi": [
    {
      "anonymous": false,
      "inputs": [
        {
          "indexed": true,
          "internalType": "address",
          "name": "capitalProvider",
          "type": "address"
        },
        {
          "indexed": false,
          "internalType": "uint256",
          "name": "amount",
          "type": "uint256"
        }
      ],
      "name": "DepositMade",
      "type": "event"
    },
    {
      "anonymous": false,
      "inputs": [
        {
          "indexed": true,
          "internalType": "address",
          "name": "payer",
          "type": "address"
        },
        {
          "indexed": false,
          "internalType": "uint256",
          "name": "amount",
          "type": "uint256"
        }
      ],
      "name": "InterestCollected",
      "type": "event"
    },
    {
      "anonymous": false,
      "inputs": [
        {
          "indexed": true,
          "internalType": "address",
          "name": "owner",
          "type": "address"
        },
        {
          "indexed": false,
          "internalType": "string",
          "name": "limitType",
          "type": "string"
        },
        {
          "indexed": false,
          "internalType": "uint256",
          "name": "amount",
          "type": "uint256"
        }
      ],
      "name": "LimitChanged",
      "type": "event"
    },
    {
      "anonymous": false,
      "inputs": [
        {
          "indexed": true,
          "internalType": "address",
          "name": "previousOwner",
          "type": "address"
        },
        {
          "indexed": true,
          "internalType": "address",
          "name": "newOwner",
          "type": "address"
        }
      ],
      "name": "OwnershipTransferred",
      "type": "event"
    },
    {
      "anonymous": false,
      "inputs": [
        {
          "indexed": false,
          "internalType": "address",
          "name": "account",
          "type": "address"
        }
      ],
      "name": "Paused",
      "type": "event"
    },
    {
      "anonymous": false,
      "inputs": [
        {
          "indexed": true,
          "internalType": "address",
          "name": "payer",
          "type": "address"
        },
        {
          "indexed": false,
          "internalType": "uint256",
          "name": "amount",
          "type": "uint256"
        }
      ],
      "name": "PrincipalCollected",
      "type": "event"
    },
    {
      "anonymous": false,
      "inputs": [
        {
          "indexed": true,
          "internalType": "address",
          "name": "from",
          "type": "address"
        },
        {
          "indexed": true,
          "internalType": "address",
          "name": "to",
          "type": "address"
        },
        {
          "indexed": false,
          "internalType": "uint256",
          "name": "amount",
          "type": "uint256"
        }
      ],
      "name": "TransferMade",
      "type": "event"
    },
    {
      "anonymous": false,
      "inputs": [
        {
          "indexed": false,
          "internalType": "address",
          "name": "account",
          "type": "address"
        }
      ],
      "name": "Unpaused",
      "type": "event"
    },
    {
      "anonymous": false,
      "inputs": [
        {
          "indexed": true,
          "internalType": "address",
          "name": "capitalProvider",
          "type": "address"
        },
        {
          "indexed": false,
          "internalType": "uint256",
          "name": "amount",
          "type": "uint256"
        }
      ],
      "name": "WithdrawalMade",
      "type": "event"
    },
    {
      "inputs": [],
      "name": "__OwnerPausable__init",
      "outputs": [],
      "stateMutability": "nonpayable",
      "type": "function"
    },
    {
      "inputs": [
        {
          "internalType": "address",
          "name": "",
          "type": "address"
        }
      ],
      "name": "capitalProviders",
      "outputs": [
        {
          "internalType": "uint256",
          "name": "",
          "type": "uint256"
        }
      ],
      "stateMutability": "view",
      "type": "function"
    },
    {
      "inputs": [
        {
          "internalType": "address",
          "name": "from",
          "type": "address"
        },
        {
          "internalType": "uint256",
          "name": "amount",
          "type": "uint256"
        }
      ],
      "name": "collectInterestRepayment",
      "outputs": [],
      "stateMutability": "nonpayable",
      "type": "function"
    },
    {
      "inputs": [
        {
          "internalType": "address",
          "name": "from",
          "type": "address"
        },
        {
          "internalType": "uint256",
          "name": "amount",
          "type": "uint256"
        }
      ],
      "name": "collectPrincipalRepayment",
      "outputs": [],
      "stateMutability": "nonpayable",
      "type": "function"
    },
    {
      "inputs": [
        {
          "internalType": "uint256",
          "name": "amount",
          "type": "uint256"
        }
      ],
      "name": "deposit",
      "outputs": [],
      "stateMutability": "payable",
      "type": "function"
    },
    {
      "inputs": [
        {
          "internalType": "address",
          "name": "user",
          "type": "address"
        },
        {
          "internalType": "uint256",
          "name": "amount",
          "type": "uint256"
        }
      ],
      "name": "enoughBalance",
      "outputs": [
        {
          "internalType": "bool",
          "name": "",
          "type": "bool"
        }
      ],
      "stateMutability": "view",
      "type": "function"
    },
    {
      "inputs": [],
      "name": "erc20address",
      "outputs": [
        {
          "internalType": "address",
          "name": "",
          "type": "address"
        }
      ],
      "stateMutability": "view",
      "type": "function"
    },
    {
      "inputs": [
        {
          "internalType": "address",
          "name": "_erc20address",
          "type": "address"
        },
        {
          "internalType": "string",
          "name": "_name",
          "type": "string"
        },
        {
          "internalType": "uint256",
          "name": "_mantissa",
          "type": "uint256"
        }
      ],
      "name": "initialize",
      "outputs": [],
      "stateMutability": "nonpayable",
      "type": "function"
    },
    {
      "inputs": [],
      "name": "owner",
      "outputs": [
        {
          "internalType": "address",
          "name": "",
          "type": "address"
        }
      ],
      "stateMutability": "view",
      "type": "function"
    },
    {
      "inputs": [],
      "name": "pause",
      "outputs": [],
      "stateMutability": "nonpayable",
      "type": "function"
    },
    {
      "inputs": [],
      "name": "paused",
      "outputs": [
        {
          "internalType": "bool",
          "name": "",
          "type": "bool"
        }
      ],
      "stateMutability": "view",
      "type": "function"
    },
    {
      "inputs": [],
      "name": "renounceOwnership",
      "outputs": [],
      "stateMutability": "nonpayable",
      "type": "function"
    },
    {
      "inputs": [
        {
          "internalType": "uint256",
          "name": "amount",
          "type": "uint256"
        }
      ],
      "name": "setTotalFundsLimit",
      "outputs": [],
      "stateMutability": "nonpayable",
      "type": "function"
    },
    {
      "inputs": [
        {
          "internalType": "uint256",
          "name": "amount",
          "type": "uint256"
        }
      ],
      "name": "setTransactionLimit",
      "outputs": [],
      "stateMutability": "nonpayable",
      "type": "function"
    },
    {
      "inputs": [],
      "name": "sharePrice",
      "outputs": [
        {
          "internalType": "uint256",
          "name": "",
          "type": "uint256"
        }
      ],
      "stateMutability": "view",
      "type": "function"
    },
    {
      "inputs": [],
      "name": "totalFundsLimit",
      "outputs": [
        {
          "internalType": "uint256",
          "name": "",
          "type": "uint256"
        }
      ],
      "stateMutability": "view",
      "type": "function"
    },
    {
      "inputs": [],
      "name": "totalShares",
      "outputs": [
        {
          "internalType": "uint256",
          "name": "",
          "type": "uint256"
        }
      ],
      "stateMutability": "view",
      "type": "function"
    },
    {
      "inputs": [],
      "name": "transactionLimit",
      "outputs": [
        {
          "internalType": "uint256",
          "name": "",
          "type": "uint256"
        }
      ],
      "stateMutability": "view",
      "type": "function"
    },
    {
      "inputs": [
        {
          "internalType": "address",
          "name": "from",
          "type": "address"
        },
        {
          "internalType": "address",
          "name": "to",
          "type": "address"
        },
        {
          "internalType": "uint256",
          "name": "amount",
          "type": "uint256"
        }
      ],
      "name": "transferFrom",
      "outputs": [
        {
          "internalType": "bool",
          "name": "",
          "type": "bool"
        }
      ],
      "stateMutability": "nonpayable",
      "type": "function"
    },
    {
      "inputs": [
        {
          "internalType": "address",
          "name": "newOwner",
          "type": "address"
        }
      ],
      "name": "transferOwnership",
      "outputs": [],
      "stateMutability": "nonpayable",
      "type": "function"
    },
    {
      "inputs": [],
      "name": "unpause",
      "outputs": [],
      "stateMutability": "nonpayable",
      "type": "function"
    },
    {
      "inputs": [
        {
          "internalType": "uint256",
          "name": "amount",
          "type": "uint256"
        }
      ],
      "name": "withdraw",
      "outputs": [],
      "stateMutability": "nonpayable",
      "type": "function"
    }
  ],
  "address": "0x1cF513C4185dFeE9560fE7436f844AD810A07EC1",
  "args": [],
  "solcInputHash": "0xa7928c6ebb4e41c9f68765ff7163ce295197070eddf775ab3a9fa17f7dddc59b",
  "bytecode": "0x6080604052600060cf55600060d05534801561001a57600080fd5b50611c0a8061002a6000396000f3fe6080604052600436106101355760003560e01c8063830c941e116100ab578063b6b55f251161006f578063b6b55f251461042d578063bcfa41ba1461044a578063c34e584114610483578063f0c30cac146104bc578063f19605d6146104d1578063f2fde38b146104e657610135565b8063830c941e146103145780638456cb5914610329578063872697291461033e5780638da5cb5b146103535780638dac9bbc1461036857610135565b80636148d26f116100fd5780636148d26f1461020e57806364bfa5461461023857806364de8a07146102625780636a83b7e91461029b578063715018a6146102cc578063788c0e7b146102e157610135565b806323b872dd1461013a5780632e1a7d4d146101915780633a98ef39146101bd5780633f4ba83a146101e45780635c975abb146101f9575b600080fd5b34801561014657600080fd5b5061017d6004803603606081101561015d57600080fd5b506001600160a01b03813581169160208101359091169060400135610519565b604080519115158252519081900360200190f35b34801561019d57600080fd5b506101bb600480360360208110156101b457600080fd5b5035610620565b005b3480156101c957600080fd5b506101d2610795565b60408051918252519081900360200190f35b3480156101f057600080fd5b506101bb61079b565b34801561020557600080fd5b5061017d6107fd565b34801561021a57600080fd5b506101bb6004803603602081101561023157600080fd5b5035610807565b34801561024457600080fd5b506101bb6004803603602081101561025b57600080fd5b503561090d565b34801561026e57600080fd5b506101bb6004803603604081101561028557600080fd5b506001600160a01b038135169060200135610a14565b3480156102a757600080fd5b506102b0610ae2565b604080516001600160a01b039092168252519081900360200190f35b3480156102d857600080fd5b506101bb610af1565b3480156102ed57600080fd5b506101d26004803603602081101561030457600080fd5b50356001600160a01b0316610b93565b34801561032057600080fd5b506101d2610ba5565b34801561033557600080fd5b506101bb610bab565b34801561034a57600080fd5b506101d2610c0b565b34801561035f57600080fd5b506102b0610c11565b34801561037457600080fd5b506101bb6004803603606081101561038b57600080fd5b6001600160a01b0382351691908101906040810160208201356401000000008111156103b657600080fd5b8201836020820111156103c857600080fd5b803590602001918460018302840111640100000000831117156103ea57600080fd5b91908080601f0160208091040260200160405190810160405280939291908181526020018383808284376000920191909152509295505091359250610c20915050565b6101bb6004803603602081101561044357600080fd5b5035610e04565b34801561045657600080fd5b506101bb6004803603604081101561046d57600080fd5b506001600160a01b038135169060200135610f97565b34801561048f57600080fd5b5061017d600480360360408110156104a657600080fd5b506001600160a01b038135169060200135611031565b3480156104c857600080fd5b506101bb611106565b3480156104dd57600080fd5b506101d261110e565b3480156104f257600080fd5b506101bb6004803603602081101561050957600080fd5b50356001600160a01b0316611114565b600061052361120d565b6065546001600160a01b03908116911614610573576040805162461bcd60e51b81526020600482018190526024820152600080516020611b87833981519152604482015290519081900360640190fd5b60975460ff16156105be576040805162461bcd60e51b815260206004820152601060248201526f14185d5cd8589b194e881c185d5cd95960821b604482015290519081900360640190fd5b60006105cb858585611211565b9050836001600160a01b0316856001600160a01b03167f422971e1d1a7c8b68372f65fe1426aef054f0c6290124a929c843c5c019521d6856040518082815260200191505060405180910390a3949350505050565b60975460ff161561066b576040805162461bcd60e51b815260206004820152601060248201526f14185d5cd8589b194e881c185d5cd95960821b604482015290519081900360640190fd5b610674816113fc565b6106af5760405162461bcd60e51b8152600401808060200182810382526028815260200180611b3e6028913960400191505060405180910390fd5b33600090815260cc602052604081205460ca5460c9549192916106d3918591611404565b9050818111156107145760405162461bcd60e51b8152600401808060200182810382526037815260200180611a886037913960400191505060405180910390fd5b60cb54610727908263ffffffff61142216565b60cb5561073a828263ffffffff61142216565b33600081815260cc602052604090209190915561075990309085611211565b5060408051848152905133917fbc158bb64f05d6383aea69bbb0b20c1bbf4b7a18f63359c5649b7c39e29d3884919081900360200190a2505050565b60cb5481565b6107a361120d565b6065546001600160a01b039081169116146107f3576040805162461bcd60e51b81526020600482018190526024820152600080516020611b87833981519152604482015290519081900360640190fd5b6107fb61146b565b565b60975460ff165b90565b61080f61120d565b6065546001600160a01b0390811691161461085f576040805162461bcd60e51b81526020600482018190526024820152600080516020611b87833981519152604482015290519081900360640190fd5b60975460ff16156108aa576040805162461bcd60e51b815260206004820152601060248201526f14185d5cd8589b194e881c185d5cd95960821b604482015290519081900360640190fd5b60cf8190556040805160208101839052818152600f818301526e1d1bdd185b119d5b991cd31a5b5a5d608a1b6060820152905133917fd051fbd9d5bbce3751e47a2ff88ee7dde1a0c474fad43693046c1f6237841dc8919081900360800190a250565b61091561120d565b6065546001600160a01b03908116911614610965576040805162461bcd60e51b81526020600482018190526024820152600080516020611b87833981519152604482015290519081900360640190fd5b60975460ff16156109b0576040805162461bcd60e51b815260206004820152601060248201526f14185d5cd8589b194e881c185d5cd95960821b604482015290519081900360640190fd5b60d081905560408051602081018390528181526010818301526f1d1c985b9cd858dd1a5bdb931a5b5a5d60821b6060820152905133917fd051fbd9d5bbce3751e47a2ff88ee7dde1a0c474fad43693046c1f6237841dc8919081900360800190a250565b60975460ff1615610a5f576040805162461bcd60e51b815260206004820152601060248201526f14185d5cd8589b194e881c185d5cd95960821b604482015290519081900360640190fd5b610a6a823083611211565b506000610a9460cb54610a8860ca548561150990919063ffffffff16565b9063ffffffff61156216565b60c98054820190556040805184815290519192506001600160a01b038516917fed3bc1b58411ea8e764b3ef8fa6b654877bc1e796a5a1a2373dfc8f1c0e0ea489181900360200190a2505050565b60cd546001600160a01b031681565b610af961120d565b6065546001600160a01b03908116911614610b49576040805162461bcd60e51b81526020600482018190526024820152600080516020611b87833981519152604482015290519081900360640190fd5b6065546040516000916001600160a01b0316907f8be0079c531659141344cd1fd0a4f28419497f9722a3daafe3b4186f6b6457e0908390a3606580546001600160a01b0319169055565b60cc6020526000908152604090205481565b60cf5481565b610bb361120d565b6065546001600160a01b03908116911614610c03576040805162461bcd60e51b81526020600482018190526024820152600080516020611b87833981519152604482015290519081900360640190fd5b6107fb6115a4565b60c95481565b6065546001600160a01b031690565b600054610100900460ff1680610c395750610c39611625565b80610c47575060005460ff16155b610c825760405162461bcd60e51b815260040180806020018281038252602e815260200180611ba7602e913960400191505060405180910390fd5b600054610100900460ff16158015610cad576000805460ff1961ff0019909116610100171660011790555b610cb561162b565b610cbd6116cd565b610cc5611106565b8251610cd89060ce9060208601906119ef565b5060cd80546001600160a01b0319166001600160a01b03868116919091179182905560ca84905560c9849055604080516318160ddd60e01b8152905192909116916318160ddd91600481810192602092909190829003018186803b158015610d3f57600080fd5b505afa158015610d53573d6000803e3d6000fd5b505050506040513d6020811015610d6957600080fd5b505060cd546040805163095ea7b360e01b8152306004820152600019602482015290516001600160a01b039092169163095ea7b3916044808201926020929091908290030181600087803b158015610dc057600080fd5b505af1158015610dd4573d6000803e3d6000fd5b505050506040513d6020811015610dea57600080fd5b50508015610dfe576000805461ff00191690555b50505050565b60975460ff1615610e4f576040805162461bcd60e51b815260206004820152601060248201526f14185d5cd8589b194e881c185d5cd95960821b604482015290519081900360640190fd5b610e58816113fc565b610e935760405162461bcd60e51b8152600401808060200182810382526029815260200180611ae56029913960400191505060405180910390fd5b33600090815260cc602052604081205460ca5460c954919291610eb7918591611404565b90506000610ed08260cb546117c690919063ffffffff16565b9050610edb81611820565b610f165760405162461bcd60e51b8152600401808060200182810382526030815260200180611b0e6030913960400191505060405180910390fd5b610f21333086611211565b5060cb54610f35908363ffffffff6117c616565b60cb55610f48838363ffffffff6117c616565b33600081815260cc6020908152604091829020939093558051878152905191927fd15c9547ea5c06670c0010ce19bc32d54682a4b3801ece7f3ab0c3f17106b4bb92918290030190a250505050565b60975460ff1615610fe2576040805162461bcd60e51b815260206004820152601060248201526f14185d5cd8589b194e881c185d5cd95960821b604482015290519081900360640190fd5b610fed823083611211565b506040805182815290516001600160a01b038416917f8295ad220549851bab232c2a7ae2e3c53a63d2294602bc85f8d8af108778a37e919081900360200190a25050565b60975460009060ff161561107f576040805162461bcd60e51b815260206004820152601060248201526f14185d5cd8589b194e881c185d5cd95960821b604482015290519081900360640190fd5b60cd54604080516370a0823160e01b81526001600160a01b0386811660048301529151859392909216916370a0823191602480820192602092909190829003018186803b1580156110cf57600080fd5b505afa1580156110e3573d6000803e3d6000fd5b505050506040513d60208110156110f957600080fd5b5051101590505b92915050565b6107fb611848565b60d05481565b61111c61120d565b6065546001600160a01b0390811691161461116c576040805162461bcd60e51b81526020600482018190526024820152600080516020611b87833981519152604482015290519081900360640190fd5b6001600160a01b0381166111b15760405162461bcd60e51b8152600401808060200182810382526026815260200180611abf6026913960400191505060405180910390fd5b6065546040516001600160a01b038084169216907f8be0079c531659141344cd1fd0a4f28419497f9722a3daafe3b4186f6b6457e090600090a3606580546001600160a01b0319166001600160a01b0392909216919091179055565b3390565b60cd54604080516370a0823160e01b81526001600160a01b03858116600483015291516000939290921691839183916370a0823191602480820192602092909190829003018186803b15801561126657600080fd5b505afa15801561127a573d6000803e3d6000fd5b505050506040513d602081101561129057600080fd5b5051604080516323b872dd60e01b81526001600160a01b0389811660048301528881166024830152604482018890529151929350600092918516916323b872dd9160648082019260209290919082900301818787803b1580156112f257600080fd5b505af1158015611306573d6000803e3d6000fd5b505050506040513d602081101561131c57600080fd5b5051604080516370a0823160e01b81526001600160a01b0389811660048301529151929350600092918616916370a0823191602480820192602092909190829003018186803b15801561136e57600080fd5b505afa158015611382573d6000803e3d6000fd5b505050506040513d602081101561139857600080fd5b50519050828110156113f1576040805162461bcd60e51b815260206004820152601d60248201527f546f6b656e205472616e73666572204f766572666c6f77204572726f72000000604482015290519081900360640190fd5b509695505050505050565b60d054101590565b600061141a82610a88868663ffffffff61150916565b949350505050565b600061146483836040518060400160405280601e81526020017f536166654d6174683a207375627472616374696f6e206f766572666c6f7700008152506118f3565b9392505050565b60975460ff166114b9576040805162461bcd60e51b815260206004820152601460248201527314185d5cd8589b194e881b9bdd081c185d5cd95960621b604482015290519081900360640190fd5b6097805460ff191690557f5db9ee0a495bf2e6ff9c91a7834c1ba4fdd244a5e8aa4e537bd38aeae4b073aa6114ec61120d565b604080516001600160a01b039092168252519081900360200190a1565b60008261151857506000611100565b8282028284828161152557fe5b04146114645760405162461bcd60e51b8152600401808060200182810382526021815260200180611b666021913960400191505060405180910390fd5b600061146483836040518060400160405280601a81526020017f536166654d6174683a206469766973696f6e206279207a65726f00000000000081525061198a565b60975460ff16156115ef576040805162461bcd60e51b815260206004820152601060248201526f14185d5cd8589b194e881c185d5cd95960821b604482015290519081900360640190fd5b6097805460ff191660011790557f62e78cea01bee320cd4e420270b5ea74000d11b0c9f74754ebdbfc544b05a2586114ec61120d565b303b1590565b600054610100900460ff16806116445750611644611625565b80611652575060005460ff16155b61168d5760405162461bcd60e51b815260040180806020018281038252602e815260200180611ba7602e913960400191505060405180910390fd5b600054610100900460ff161580156116b8576000805460ff1961ff0019909116610100171660011790555b80156116ca576000805461ff00191690555b50565b600054610100900460ff16806116e657506116e6611625565b806116f4575060005460ff16155b61172f5760405162461bcd60e51b815260040180806020018281038252602e815260200180611ba7602e913960400191505060405180910390fd5b600054610100900460ff1615801561175a576000805460ff1961ff0019909116610100171660011790555b600061176461120d565b606580546001600160a01b0319166001600160a01b038316908117909155604051919250906000907f8be0079c531659141344cd1fd0a4f28419497f9722a3daafe3b4186f6b6457e0908290a35080156116ca576000805461ff001916905550565b600082820183811015611464576040805162461bcd60e51b815260206004820152601b60248201527f536166654d6174683a206164646974696f6e206f766572666c6f770000000000604482015290519081900360640190fd5b600060cf5461184060ca54610a8860c9548661150990919063ffffffff16565b111592915050565b600054610100900460ff16806118615750611861611625565b8061186f575060005460ff16155b6118aa5760405162461bcd60e51b815260040180806020018281038252602e815260200180611ba7602e913960400191505060405180910390fd5b600054610100900460ff161580156118d5576000805460ff1961ff0019909116610100171660011790555b6097805460ff1916905580156116ca576000805461ff001916905550565b600081848411156119825760405162461bcd60e51b81526004018080602001828103825283818151815260200191508051906020019080838360005b8381101561194757818101518382015260200161192f565b50505050905090810190601f1680156119745780820380516001836020036101000a031916815260200191505b509250505060405180910390fd5b505050900390565b600081836119d95760405162461bcd60e51b815260206004820181815283516024840152835190928392604490910191908501908083836000831561194757818101518382015260200161192f565b5060008385816119e557fe5b0495945050505050565b828054600181600116156101000203166002900490600052602060002090601f016020900481019282601f10611a3057805160ff1916838001178555611a5d565b82800160010185558215611a5d579182015b82811115611a5d578251825591602001919060010190611a42565b50611a69929150611a6d565b5090565b61080491905b80821115611a695760008155600101611a7356fe416d6f756e74207265717565737465642069732067726561746572207468616e207768617420746869732061646472657373206f776e734f776e61626c653a206e6577206f776e657220697320746865207a65726f2061646472657373416d6f756e74206973206f76657220746865207065722d7472616e73616374696f6e206c696d69742e4465706f73697420776f756c64207075742074686520506f6f6c206f7665722074686520746f74616c206c696d69742e416d6f756e74206973206f76657220746865207065722d7472616e73616374696f6e206c696d6974536166654d6174683a206d756c7469706c69636174696f6e206f766572666c6f774f776e61626c653a2063616c6c6572206973206e6f7420746865206f776e6572436f6e747261637420696e7374616e63652068617320616c7265616479206265656e20696e697469616c697a6564a264697066735822122099cf104465d243bf6416753a7fd9ee043d4ef52cb87a9bb32daa800aaa3288d064736f6c63430006080033",
  "devdoc": {
    "methods": {
      "owner()": {
        "details": "Returns the address of the current owner."
      },
      "pause()": {
        "details": "Pauses all functions guarded by Pause    * See {Pausable-_pause}.    * Requirements:    * - the caller must be the owner."
      },
      "paused()": {
        "details": "Returns true if the contract is paused, and false otherwise."
      },
      "renounceOwnership()": {
        "details": "Leaves the contract without owner. It will not be possible to call `onlyOwner` functions anymore. Can only be called by the current owner.     * NOTE: Renouncing ownership will leave the contract without an owner, thereby removing any functionality that is only available to the owner."
      },
      "transferOwnership(address)": {
        "details": "Transfers ownership of the contract to a new account (`newOwner`). Can only be called by the current owner."
      },
      "unpause()": {
        "details": "Unpauses the contract    * See {Pausable-_unpause}.    * Requirements:    * - the caller must be the owner`."
      }
    }
  },
  "userdoc": {
    "methods": {}
  },
  "storageLayout": {
    "storage": [
      {
        "astId": 49,
        "contract": "contracts/Pool.sol:Pool",
        "label": "initialized",
        "offset": 0,
        "slot": "0",
        "type": "t_bool"
      },
      {
        "astId": 51,
        "contract": "contracts/Pool.sol:Pool",
        "label": "initializing",
        "offset": 1,
        "slot": "0",
        "type": "t_bool"
      },
      {
        "astId": 116,
        "contract": "contracts/Pool.sol:Pool",
        "label": "______gap",
        "offset": 0,
        "slot": "1",
        "type": "t_array(t_uint256)50_storage"
      },
      {
        "astId": 43,
        "contract": "contracts/Pool.sol:Pool",
        "label": "__gap",
        "offset": 0,
        "slot": "51",
        "type": "t_array(t_uint256)50_storage"
      },
      {
        "astId": 128,
        "contract": "contracts/Pool.sol:Pool",
        "label": "_owner",
        "offset": 0,
        "slot": "101",
        "type": "t_address"
      },
      {
        "astId": 246,
        "contract": "contracts/Pool.sol:Pool",
        "label": "__gap",
        "offset": 0,
        "slot": "102",
        "type": "t_array(t_uint256)49_storage"
      },
      {
        "astId": 1213,
        "contract": "contracts/Pool.sol:Pool",
        "label": "_paused",
        "offset": 0,
        "slot": "151",
        "type": "t_bool"
      },
      {
        "astId": 1302,
        "contract": "contracts/Pool.sol:Pool",
        "label": "__gap",
        "offset": 0,
        "slot": "152",
        "type": "t_array(t_uint256)49_storage"
      },
      {
        "astId": 3168,
        "contract": "contracts/Pool.sol:Pool",
        "label": "sharePrice",
        "offset": 0,
        "slot": "201",
        "type": "t_uint256"
      },
      {
        "astId": 3170,
        "contract": "contracts/Pool.sol:Pool",
        "label": "mantissa",
        "offset": 0,
        "slot": "202",
        "type": "t_uint256"
      },
      {
        "astId": 3172,
        "contract": "contracts/Pool.sol:Pool",
        "label": "totalShares",
        "offset": 0,
        "slot": "203",
        "type": "t_uint256"
      },
      {
        "astId": 3176,
        "contract": "contracts/Pool.sol:Pool",
        "label": "capitalProviders",
        "offset": 0,
        "slot": "204",
        "type": "t_mapping(t_address,t_uint256)"
      },
      {
        "astId": 3178,
        "contract": "contracts/Pool.sol:Pool",
        "label": "erc20address",
        "offset": 0,
        "slot": "205",
        "type": "t_address"
      },
      {
        "astId": 3180,
        "contract": "contracts/Pool.sol:Pool",
        "label": "name",
        "offset": 0,
        "slot": "206",
        "type": "t_string_storage"
      },
      {
        "astId": 3183,
        "contract": "contracts/Pool.sol:Pool",
        "label": "totalFundsLimit",
        "offset": 0,
        "slot": "207",
        "type": "t_uint256"
      },
      {
        "astId": 3186,
        "contract": "contracts/Pool.sol:Pool",
        "label": "transactionLimit",
        "offset": 0,
        "slot": "208",
        "type": "t_uint256"
      }
    ],
    "types": {
      "t_address": {
        "encoding": "inplace",
        "label": "address",
        "numberOfBytes": "20"
      },
      "t_array(t_uint256)49_storage": {
        "base": "t_uint256",
        "encoding": "inplace",
        "label": "uint256[49]",
        "numberOfBytes": "1568"
      },
      "t_array(t_uint256)50_storage": {
        "base": "t_uint256",
        "encoding": "inplace",
        "label": "uint256[50]",
        "numberOfBytes": "1600"
      },
      "t_bool": {
        "encoding": "inplace",
        "label": "bool",
        "numberOfBytes": "1"
      },
      "t_mapping(t_address,t_uint256)": {
        "encoding": "mapping",
        "key": "t_address",
        "label": "mapping(address => uint256)",
        "numberOfBytes": "32",
        "value": "t_uint256"
      },
      "t_string_storage": {
        "encoding": "bytes",
        "label": "string",
        "numberOfBytes": "32"
      },
      "t_uint256": {
        "encoding": "inplace",
        "label": "uint256",
        "numberOfBytes": "32"
      }
    }
  },
  "gasEstimates": {
    "creation": {
      "codeDepositCost": "1435600",
      "executionCost": "11511",
      "totalCost": "1447111"
    },
    "external": {
      "__OwnerPausable__init()": "infinite",
      "capitalProviders(address)": "1257",
      "collectInterestRepayment(address,uint256)": "infinite",
      "collectPrincipalRepayment(address,uint256)": "infinite",
      "deposit(uint256)": "infinite",
      "enoughBalance(address,uint256)": "infinite",
      "erc20address()": "1126",
      "initialize(address,string,uint256)": "infinite",
      "owner()": "1126",
      "pause()": "infinite",
      "paused()": "1123",
      "renounceOwnership()": "infinite",
      "setTotalFundsLimit(uint256)": "infinite",
      "setTransactionLimit(uint256)": "infinite",
      "sharePrice()": "1065",
      "totalFundsLimit()": "1021",
      "totalShares()": "1066",
      "transactionLimit()": "1108",
      "transferFrom(address,address,uint256)": "infinite",
      "transferOwnership(address)": "infinite",
      "unpause()": "infinite",
      "withdraw(uint256)": "infinite"
    },
    "internal": {
      "doERC20Transfer(address,address,uint256)": "infinite",
      "doERC20Withdraw(address payable,uint256)": "infinite",
      "getNumShares(uint256,uint256,uint256)": "infinite",
      "poolWithinLimit(uint256)": "infinite",
      "transactionWithinLimit(uint256)": "821"
    }
  }
}