{
  "_format": "hh-sol-artifact-1",
  "contractName": "EpicNFT",
  "sourceName": "contracts/EpicNFT.sol",
  "abi": [
    {
      "inputs": [],
      "stateMutability": "nonpayable",
      "type": "constructor"
    },
    {
      "anonymous": false,
      "inputs": [
        {
          "indexed": true,
          "internalType": "address",
          "name": "owner",
          "type": "address"
        },
        {
          "indexed": true,
          "internalType": "address",
          "name": "approved",
          "type": "address"
        },
        {
          "indexed": true,
          "internalType": "uint256",
          "name": "tokenId",
          "type": "uint256"
        }
      ],
      "name": "Approval",
      "type": "event"
    },
    {
      "anonymous": false,
      "inputs": [
        {
          "indexed": true,
          "internalType": "address",
          "name": "owner",
          "type": "address"
        },
        {
          "indexed": true,
          "internalType": "address",
          "name": "operator",
          "type": "address"
        },
        {
          "indexed": false,
          "internalType": "bool",
          "name": "approved",
          "type": "bool"
        }
      ],
      "name": "ApprovalForAll",
      "type": "event"
    },
    {
      "anonymous": false,
      "inputs": [
        {
          "indexed": false,
          "internalType": "address",
          "name": "sender",
          "type": "address"
        },
        {
          "indexed": false,
          "internalType": "uint256",
          "name": "tokenId",
          "type": "uint256"
        },
        {
          "indexed": false,
          "internalType": "string",
          "name": "svg",
          "type": "string"
        }
      ],
      "name": "NewEpicNFTMinted",
      "type": "event"
    },
    {
      "anonymous": false,
      "inputs": [
        {
          "indexed": true,
          "internalType": "address",
          "name": "from",
          "type": "address"
        },
        {
          "indexed": true,
          "internalType": "address",
          "name": "to",
          "type": "address"
        },
        {
          "indexed": true,
          "internalType": "uint256",
          "name": "tokenId",
          "type": "uint256"
        }
      ],
      "name": "Transfer",
      "type": "event"
    },
    {
      "inputs": [
        {
          "internalType": "address",
          "name": "to",
          "type": "address"
        },
        {
          "internalType": "uint256",
          "name": "tokenId",
          "type": "uint256"
        }
      ],
      "name": "approve",
      "outputs": [],
      "stateMutability": "nonpayable",
      "type": "function"
    },
    {
      "inputs": [
        {
          "internalType": "address",
          "name": "owner",
          "type": "address"
        }
      ],
      "name": "balanceOf",
      "outputs": [
        {
          "internalType": "uint256",
          "name": "",
          "type": "uint256"
        }
      ],
      "stateMutability": "view",
      "type": "function"
    },
    {
      "inputs": [
        {
          "internalType": "uint256",
          "name": "tokenId",
          "type": "uint256"
        }
      ],
      "name": "getApproved",
      "outputs": [
        {
          "internalType": "address",
          "name": "",
          "type": "address"
        }
      ],
      "stateMutability": "view",
      "type": "function"
    },
    {
      "inputs": [],
      "name": "getNumNFTsMinted",
      "outputs": [
        {
          "internalType": "uint8",
          "name": "num",
          "type": "uint8"
        }
      ],
      "stateMutability": "view",
      "type": "function"
    },
    {
      "inputs": [
        {
          "internalType": "address",
          "name": "owner",
          "type": "address"
        },
        {
          "internalType": "address",
          "name": "operator",
          "type": "address"
        }
      ],
      "name": "isApprovedForAll",
      "outputs": [
        {
          "internalType": "bool",
          "name": "",
          "type": "bool"
        }
      ],
      "stateMutability": "view",
      "type": "function"
    },
    {
      "inputs": [],
      "name": "makeEpicNFT",
      "outputs": [],
      "stateMutability": "nonpayable",
      "type": "function"
    },
    {
      "inputs": [],
      "name": "name",
      "outputs": [
        {
          "internalType": "string",
          "name": "",
          "type": "string"
        }
      ],
      "stateMutability": "view",
      "type": "function"
    },
    {
      "inputs": [
        {
          "internalType": "uint256",
          "name": "tokenId",
          "type": "uint256"
        }
      ],
      "name": "ownerOf",
      "outputs": [
        {
          "internalType": "address",
          "name": "",
          "type": "address"
        }
      ],
      "stateMutability": "view",
      "type": "function"
    },
    {
      "inputs": [
        {
          "internalType": "uint256",
          "name": "tokenId",
          "type": "uint256"
        }
      ],
      "name": "pickRandomBook",
      "outputs": [
        {
          "internalType": "string",
          "name": "",
          "type": "string"
        }
      ],
      "stateMutability": "view",
      "type": "function"
    },
    {
      "inputs": [
        {
          "internalType": "uint256",
          "name": "tokenId",
          "type": "uint256"
        }
      ],
      "name": "pickRandomExercise",
      "outputs": [
        {
          "internalType": "string",
          "name": "",
          "type": "string"
        }
      ],
      "stateMutability": "view",
      "type": "function"
    },
    {
      "inputs": [
        {
          "internalType": "uint256",
          "name": "tokenId",
          "type": "uint256"
        }
      ],
      "name": "pickRandomJob",
      "outputs": [
        {
          "internalType": "string",
          "name": "",
          "type": "string"
        }
      ],
      "stateMutability": "view",
      "type": "function"
    },
    {
      "inputs": [
        {
          "internalType": "address",
          "name": "from",
          "type": "address"
        },
        {
          "internalType": "address",
          "name": "to",
          "type": "address"
        },
        {
          "internalType": "uint256",
          "name": "tokenId",
          "type": "uint256"
        }
      ],
      "name": "safeTransferFrom",
      "outputs": [],
      "stateMutability": "nonpayable",
      "type": "function"
    },
    {
      "inputs": [
        {
          "internalType": "address",
          "name": "from",
          "type": "address"
        },
        {
          "internalType": "address",
          "name": "to",
          "type": "address"
        },
        {
          "internalType": "uint256",
          "name": "tokenId",
          "type": "uint256"
        },
        {
          "internalType": "bytes",
          "name": "_data",
          "type": "bytes"
        }
      ],
      "name": "safeTransferFrom",
      "outputs": [],
      "stateMutability": "nonpayable",
      "type": "function"
    },
    {
      "inputs": [
        {
          "internalType": "address",
          "name": "operator",
          "type": "address"
        },
        {
          "internalType": "bool",
          "name": "approved",
          "type": "bool"
        }
      ],
      "name": "setApprovalForAll",
      "outputs": [],
      "stateMutability": "nonpayable",
      "type": "function"
    },
    {
      "inputs": [
        {
          "internalType": "bytes4",
          "name": "interfaceId",
          "type": "bytes4"
        }
      ],
      "name": "supportsInterface",
      "outputs": [
        {
          "internalType": "bool",
          "name": "",
          "type": "bool"
        }
      ],
      "stateMutability": "view",
      "type": "function"
    },
    {
      "inputs": [],
      "name": "symbol",
      "outputs": [
        {
          "internalType": "string",
          "name": "",
          "type": "string"
        }
      ],
      "stateMutability": "view",
      "type": "function"
    },
    {
      "inputs": [
        {
          "internalType": "uint256",
          "name": "tokenId",
          "type": "uint256"
        }
      ],
      "name": "tokenURI",
      "outputs": [
        {
          "internalType": "string",
          "name": "",
          "type": "string"
        }
      ],
      "stateMutability": "view",
      "type": "function"
    },
    {
      "inputs": [
        {
          "internalType": "address",
          "name": "from",
          "type": "address"
        },
        {
          "internalType": "address",
          "name": "to",
          "type": "address"
        },
        {
          "internalType": "uint256",
          "name": "tokenId",
          "type": "uint256"
        }
      ],
      "name": "transferFrom",
      "outputs": [],
      "stateMutability": "nonpayable",
      "type": "function"
    }
  ],
  "bytecode": "0x608060405260405180610160016040528061012f815260200162004ca661012f9139600990805190602001906200003892919062000859565b506040518061012001604052806040518060400160405280601781526020017f4177616b656e20746865204769616e742057697468696e00000000000000000081525081526020016040518060400160405280601481526020017f546865203420486f757220576f726b205765656b00000000000000000000000081525081526020016040518060400160405280600d81526020017f43616e27742048757274204d650000000000000000000000000000000000000081525081526020016040518060400160405280600d81526020017f41746f6d6963204861626974730000000000000000000000000000000000000081525081526020016040518060400160405280601181526020017f31322052756c657320666f72206c696665000000000000000000000000000000815250815260200160405180606001604052806027815260200162004dd56027913981526020016040518060400160405280601181526020017f54686520506f776572206f66204d79746800000000000000000000000000000081525081526020016040518060400160405280600c81526020017f5468652035616d20436c7562000000000000000000000000000000000000000081525081526020016040518060400160405280601281526020017f52696368204461642c20506f6f72204461640000000000000000000000000000815250815250600a9060096200024c929190620008ea565b506040518061012001604052806040518060400160405280600c81526020017f426f64796275696c64696e67000000000000000000000000000000000000000081525081526020016040518060400160405280600c81526020017f43616c69737468656e696373000000000000000000000000000000000000000081525081526020016040518060400160405280600781526020017f52756e6e696e670000000000000000000000000000000000000000000000000081525081526020016040518060400160405280601481526020017f4272617a696c6c69616e206a75692d6a6974737500000000000000000000000081525081526020016040518060400160405280600681526020017f4b6172617465000000000000000000000000000000000000000000000000000081525081526020016040518060400160405280601581526020017f4361706f65697261526f636b20436c696d62696e67000000000000000000000081525081526020016040518060400160405280600c81526020017f506f7765726c696674696e67000000000000000000000000000000000000000081525081526020016040518060400160405280600981526020017f4b726176204d616761000000000000000000000000000000000000000000000081525081526020016040518060400160405280600981526020017f4d75617920546861690000000000000000000000000000000000000000000000815250815250600b9060096200047c929190620008ea565b506040518061010001604052806040518060400160405280600c81526020017f5477697474657220616e6f6e000000000000000000000000000000000000000081525081526020016040518060400160405280600a81526020017f446179207472616465720000000000000000000000000000000000000000000081525081526020016040518060400160405280600a81526020017f50726f6772616d6d65720000000000000000000000000000000000000000000081525081526020016040518060400160405280600881526020017f53616c657320565000000000000000000000000000000000000000000000000081525081526020016040518060400160405280601081526020017f506572736f6e616c20547261696e65720000000000000000000000000000000081525081526020016040518060400160405280600c81526020017f4562617920666c6970706572000000000000000000000000000000000000000081525081526020016040518060400160405280600981526020017f506f64636173746572000000000000000000000000000000000000000000000081525081526020016040518060400160405280600881526020017f486f6d656c657373000000000000000000000000000000000000000000000000815250815250600c9060086200067192919062000951565b503480156200067f57600080fd5b506040518060400160405280600981526020017f5371756172654e465400000000000000000000000000000000000000000000008152506040518060400160405280600681526020017f535155415245000000000000000000000000000000000000000000000000000081525081600090805190602001906200070492919062000859565b5080600190805190602001906200071d92919062000859565b5050506200076b6040518060400160405280600381526020017f6c666700000000000000000000000000000000000000000000000000000000008152506200078d60201b6200171e1760201c565b6000600860006101000a81548160ff021916908360ff16021790555062000b72565b6200082d81604051602401620007a4919062000a86565b6040516020818303038152906040527f41304fac000000000000000000000000000000000000000000000000000000007bffffffffffffffffffffffffffffffffffffffffffffffffffffffff19166020820180517bffffffffffffffffffffffffffffffffffffffffffffffffffffffff83818316178352505050506200083060201b60201c565b50565b60008151905060006a636f6e736f6c652e6c6f679050602083016000808483855afa5050505050565b828054620008679062000afc565b90600052602060002090601f0160209004810192826200088b5760008555620008d7565b82601f10620008a657805160ff1916838001178555620008d7565b82800160010185558215620008d7579182015b82811115620008d6578251825591602001919060010190620008b9565b5b509050620008e69190620009b8565b5090565b8280548282559060005260206000209081019282156200093e579160200282015b828111156200093d5782518290805190602001906200092c92919062000859565b50916020019190600101906200090b565b5b5090506200094d9190620009d7565b5090565b828054828255906000526020600020908101928215620009a5579160200282015b82811115620009a45782518290805190602001906200099392919062000859565b509160200191906001019062000972565b5b509050620009b49190620009d7565b5090565b5b80821115620009d3576000816000905550600101620009b9565b5090565b5b80821115620009fb5760008181620009f19190620009ff565b50600101620009d8565b5090565b50805462000a0d9062000afc565b6000825580601f1062000a21575062000a42565b601f01602090049060005260206000209081019062000a419190620009b8565b5b50565b600062000a528262000aaa565b62000a5e818562000ab5565b935062000a7081856020860162000ac6565b62000a7b8162000b61565b840191505092915050565b6000602082019050818103600083015262000aa2818462000a45565b905092915050565b600081519050919050565b600082825260208201905092915050565b60005b8381101562000ae657808201518184015260208101905062000ac9565b8381111562000af6576000848401525b50505050565b6000600282049050600182168062000b1557607f821691505b6020821081141562000b2c5762000b2b62000b32565b5b50919050565b7f4e487b7100000000000000000000000000000000000000000000000000000000600052602260045260246000fd5b6000601f19601f8301169050919050565b6141248062000b826000396000f3fe608060405234801561001057600080fd5b50600436106101165760003560e01c806362b41f49116100a2578063a22cb46511610071578063a22cb465146102f3578063b88d4fde1461030f578063bc1e44ef1461032b578063c87b56dd1461035b578063e985e9c51461038b57610116565b806362b41f491461026b5780636352211e1461027557806370a08231146102a557806395d89b41146102d557610116565b806323b872dd116100e957806323b872dd146101b557806324309045146101d157806342842e0e146101ef578063568dfca11461020b57806357a6ff681461023b57610116565b806301ffc9a71461011b57806306fdde031461014b578063081812fc14610169578063095ea7b314610199575b600080fd5b61013560048036038101906101309190612b8f565b6103bb565b60405161014291906137f0565b60405180910390f35b61015361049d565b604051610160919061380b565b60405180910390f35b610183600480360381019061017e9190612be1565b61052f565b604051610190919061374b565b60405180910390f35b6101b360048036038101906101ae9190612b53565b6105b4565b005b6101cf60048036038101906101ca9190612a4d565b6106cc565b005b6101d961072c565b6040516101e69190613aa6565b60405180910390f35b61020960048036038101906102049190612a4d565b610743565b005b61022560048036038101906102209190612be1565b610763565b604051610232919061380b565b60405180910390f35b61025560048036038101906102509190612be1565b610881565b604051610262919061380b565b60405180910390f35b61027361099f565b005b61028f600480360381019061028a9190612be1565b61103b565b60405161029c919061374b565b60405180910390f35b6102bf60048036038101906102ba91906129e8565b6110ed565b6040516102cc9190613a8b565b60405180910390f35b6102dd6111a5565b6040516102ea919061380b565b60405180910390f35b61030d60048036038101906103089190612b17565b611237565b005b61032960048036038101906103249190612a9c565b6113b8565b005b61034560048036038101906103409190612be1565b61141a565b604051610352919061380b565b60405180910390f35b61037560048036038101906103709190612be1565b611538565b604051610382919061380b565b60405180910390f35b6103a560048036038101906103a09190612a11565b61168a565b6040516103b291906137f0565b60405180910390f35b60007f80ac58cd000000000000000000000000000000000000000000000000000000007bffffffffffffffffffffffffffffffffffffffffffffffffffffffff1916827bffffffffffffffffffffffffffffffffffffffffffffffffffffffff1916148061048657507f5b5e139f000000000000000000000000000000000000000000000000000000007bffffffffffffffffffffffffffffffffffffffffffffffffffffffff1916827bffffffffffffffffffffffffffffffffffffffffffffffffffffffff1916145b806104965750610495826117b7565b5b9050919050565b6060600080546104ac90613d74565b80601f01602080910402602001604051908101604052809291908181526020018280546104d890613d74565b80156105255780601f106104fa57610100808354040283529160200191610525565b820191906000526020600020905b81548152906001019060200180831161050857829003601f168201915b5050505050905090565b600061053a82611821565b610579576040517f08c379a0000000000000000000000000000000000000000000000000000000008152600401610570906139eb565b60405180910390fd5b6004600083815260200190815260200160002060009054906101000a900473ffffffffffffffffffffffffffffffffffffffff169050919050565b60006105bf8261103b565b90508073ffffffffffffffffffffffffffffffffffffffff168373ffffffffffffffffffffffffffffffffffffffff161415610630576040517f08c379a000000000000000000000000000000000000000000000000000000000815260040161062790613a4b565b60405180910390fd5b8073ffffffffffffffffffffffffffffffffffffffff1661064f61188d565b73ffffffffffffffffffffffffffffffffffffffff16148061067e575061067d8161067861188d565b61168a565b5b6106bd576040517f08c379a00000000000000000000000000000000000000000000000000000000081526004016106b49061392b565b60405180910390fd5b6106c78383611895565b505050565b6106dd6106d761188d565b8261194e565b61071c576040517f08c379a000000000000000000000000000000000000000000000000000000000815260040161071390613a6b565b60405180910390fd5b610727838383611a2c565b505050565b6000600860009054906101000a900460ff16905090565b61075e838383604051806020016040528060008152506113b8565b505050565b6060600061079761077384611c88565b604051602001610783919061367e565b604051602081830303815290604052611e35565b9050600c80549050816107aa9190613def565b9050600c81815481106107e6577f4e487b7100000000000000000000000000000000000000000000000000000000600052603260045260246000fd5b9060005260206000200180546107fb90613d74565b80601f016020809104026020016040519081016040528092919081815260200182805461082790613d74565b80156108745780601f1061084957610100808354040283529160200191610874565b820191906000526020600020905b81548152906001019060200180831161085757829003601f168201915b5050505050915050919050565b606060006108b561089184611c88565b6040516020016108a19190613707565b604051602081830303815290604052611e35565b9050600a80549050816108c89190613def565b9050600a8181548110610904577f4e487b7100000000000000000000000000000000000000000000000000000000600052603260045260246000fd5b90600052602060002001805461091990613d74565b80601f016020809104026020016040519081016040528092919081815260200182805461094590613d74565b80156109925780601f1061096757610100808354040283529160200191610992565b820191906000526020600020905b81548152906001019060200180831161097557829003601f168201915b5050505050915050919050565b6064600860009054906101000a900460ff1660ff16106109f4576040517f08c379a00000000000000000000000000000000000000000000000000000000081526004016109eb906138ab565b60405180910390fd5b6000610a006007611e68565b9050610a0a61284c565b60405180610100016040528060cf8152602001613f9760cf913981600060088110610a5e577f4e487b7100000000000000000000000000000000000000000000000000000000600052603260045260246000fd5b60200201819052506040518060600160405280602181526020016140666021913981600160088110610ab9577f4e487b7100000000000000000000000000000000000000000000000000000000600052603260045260246000fd5b6020020181905250610aca82610881565b81600260088110610b04577f4e487b7100000000000000000000000000000000000000000000000000000000600052603260045260246000fd5b60200201819052506040518060600160405280602881526020016140c76028913981600360088110610b5f577f4e487b7100000000000000000000000000000000000000000000000000000000600052603260045260246000fd5b6020020181905250610b7082610763565b81600460088110610baa577f4e487b7100000000000000000000000000000000000000000000000000000000600052603260045260246000fd5b6020020181905250604051806060016040528060288152602001613f4a6028913981600560088110610c05577f4e487b7100000000000000000000000000000000000000000000000000000000600052603260045260246000fd5b6020020181905250610c168261141a565b81600660088110610c50577f4e487b7100000000000000000000000000000000000000000000000000000000600052603260045260246000fd5b60200201819052506040518060400160405280600d81526020017f3c2f746578743e3c2f7376673e0000000000000000000000000000000000000081525081600760088110610cc8577f4e487b7100000000000000000000000000000000000000000000000000000000600052603260045260246000fd5b6020020181905250600081600060088110610d0c577f4e487b7100000000000000000000000000000000000000000000000000000000600052603260045260246000fd5b602002015182600160088110610d4b577f4e487b7100000000000000000000000000000000000000000000000000000000600052603260045260246000fd5b602002015183600260088110610d8a577f4e487b7100000000000000000000000000000000000000000000000000000000600052603260045260246000fd5b602002015184600360088110610dc9577f4e487b7100000000000000000000000000000000000000000000000000000000600052603260045260246000fd5b602002015185600460088110610e08577f4e487b7100000000000000000000000000000000000000000000000000000000600052603260045260246000fd5b602002015186600560088110610e47577f4e487b7100000000000000000000000000000000000000000000000000000000600052603260045260246000fd5b602002015187600660088110610e86577f4e487b7100000000000000000000000000000000000000000000000000000000600052603260045260246000fd5b602002015188600760088110610ec5577f4e487b7100000000000000000000000000000000000000000000000000000000600052603260045260246000fd5b6020020151604051602001610ee19897969594939291906135ea565b60405160208183030381529060405290506000610efd84611e76565b604051602001610f0d919061365c565b60405160208183030381529060405290506000610f5282610f2d8561204b565b604051602001610f3e9291906136c2565b60405160208183030381529060405261204b565b9050600081604051602001610f679190613729565b6040516020818303038152906040529050610f8233876121ea565b610f8c8682612208565b610f96600761227c565b610fb9604051806060016040528060258152602001613f72602591398733612292565b6001600860008282829054906101000a900460ff16610fd89190613bbb565b92506101000a81548160ff021916908360ff1602179055507f4d3a24d1178b5e84c3f01818172d8951082caa1dad646fead020c45a049544ef338761101c8761204b565b60405161102b939291906137b2565b60405180910390a1505050505050565b6000806002600084815260200190815260200160002060009054906101000a900473ffffffffffffffffffffffffffffffffffffffff169050600073ffffffffffffffffffffffffffffffffffffffff168173ffffffffffffffffffffffffffffffffffffffff1614156110e4576040517f08c379a00000000000000000000000000000000000000000000000000000000081526004016110db9061396b565b60405180910390fd5b80915050919050565b60008073ffffffffffffffffffffffffffffffffffffffff168273ffffffffffffffffffffffffffffffffffffffff16141561115e576040517f08c379a00000000000000000000000000000000000000000000000000000000081526004016111559061394b565b60405180910390fd5b600360008373ffffffffffffffffffffffffffffffffffffffff1673ffffffffffffffffffffffffffffffffffffffff168152602001908152602001600020549050919050565b6060600180546111b490613d74565b80601f01602080910402602001604051908101604052809291908181526020018280546111e090613d74565b801561122d5780601f106112025761010080835404028352916020019161122d565b820191906000526020600020905b81548152906001019060200180831161121057829003601f168201915b5050505050905090565b61123f61188d565b73ffffffffffffffffffffffffffffffffffffffff168273ffffffffffffffffffffffffffffffffffffffff1614156112ad576040517f08c379a00000000000000000000000000000000000000000000000000000000081526004016112a4906138eb565b60405180910390fd5b80600560006112ba61188d565b73ffffffffffffffffffffffffffffffffffffffff1673ffffffffffffffffffffffffffffffffffffffff16815260200190815260200160002060008473ffffffffffffffffffffffffffffffffffffffff1673ffffffffffffffffffffffffffffffffffffffff16815260200190815260200160002060006101000a81548160ff0219169083151502179055508173ffffffffffffffffffffffffffffffffffffffff1661136761188d565b73ffffffffffffffffffffffffffffffffffffffff167f17307eab39ab6107e8899845ad3d59bd9653f200f220920489ca2b5937696c31836040516113ac91906137f0565b60405180910390a35050565b6113c96113c361188d565b8361194e565b611408576040517f08c379a00000000000000000000000000000000000000000000000000000000081526004016113ff90613a6b565b60405180910390fd5b61141484848484612331565b50505050565b6060600061144e61142a84611c88565b60405160200161143a91906136a0565b604051602081830303815290604052611e35565b9050600b80549050816114619190613def565b9050600b818154811061149d577f4e487b7100000000000000000000000000000000000000000000000000000000600052603260045260246000fd5b9060005260206000200180546114b290613d74565b80601f01602080910402602001604051908101604052809291908181526020018280546114de90613d74565b801561152b5780601f106115005761010080835404028352916020019161152b565b820191906000526020600020905b81548152906001019060200180831161150e57829003601f168201915b5050505050915050919050565b606061154382611821565b611582576040517f08c379a0000000000000000000000000000000000000000000000000000000008152600401611579906139cb565b60405180910390fd5b60006006600084815260200190815260200160002080546115a290613d74565b80601f01602080910402602001604051908101604052809291908181526020018280546115ce90613d74565b801561161b5780601f106115f05761010080835404028352916020019161161b565b820191906000526020600020905b8154815290600101906020018083116115fe57829003601f168201915b50505050509050600061162c61238d565b9050600081511415611642578192505050611685565b60008251111561167757808260405160200161165f9291906135c6565b60405160208183030381529060405292505050611685565b611680846123a4565b925050505b919050565b6000600560008473ffffffffffffffffffffffffffffffffffffffff1673ffffffffffffffffffffffffffffffffffffffff16815260200190815260200160002060008373ffffffffffffffffffffffffffffffffffffffff1673ffffffffffffffffffffffffffffffffffffffff16815260200190815260200160002060009054906101000a900460ff16905092915050565b6117b481604051602401611732919061380b565b6040516020818303038152906040527f41304fac000000000000000000000000000000000000000000000000000000007bffffffffffffffffffffffffffffffffffffffffffffffffffffffff19166020820180517bffffffffffffffffffffffffffffffffffffffffffffffffffffffff838183161783525050505061244b565b50565b60007f01ffc9a7000000000000000000000000000000000000000000000000000000007bffffffffffffffffffffffffffffffffffffffffffffffffffffffff1916827bffffffffffffffffffffffffffffffffffffffffffffffffffffffff1916149050919050565b60008073ffffffffffffffffffffffffffffffffffffffff166002600084815260200190815260200160002060009054906101000a900473ffffffffffffffffffffffffffffffffffffffff1673ffffffffffffffffffffffffffffffffffffffff1614159050919050565b600033905090565b816004600083815260200190815260200160002060006101000a81548173ffffffffffffffffffffffffffffffffffffffff021916908373ffffffffffffffffffffffffffffffffffffffff160217905550808273ffffffffffffffffffffffffffffffffffffffff166119088361103b565b73ffffffffffffffffffffffffffffffffffffffff167f8c5be1e5ebec7d5bd14f71427d1e84f3dd0314c0f7b2291e5b200ac8c7c3b92560405160405180910390a45050565b600061195982611821565b611998576040517f08c379a000000000000000000000000000000000000000000000000000000000815260040161198f9061390b565b60405180910390fd5b60006119a38361103b565b90508073ffffffffffffffffffffffffffffffffffffffff168473ffffffffffffffffffffffffffffffffffffffff161480611a1257508373ffffffffffffffffffffffffffffffffffffffff166119fa8461052f565b73ffffffffffffffffffffffffffffffffffffffff16145b80611a235750611a22818561168a565b5b91505092915050565b8273ffffffffffffffffffffffffffffffffffffffff16611a4c8261103b565b73ffffffffffffffffffffffffffffffffffffffff1614611aa2576040517f08c379a0000000000000000000000000000000000000000000000000000000008152600401611a9990613a0b565b60405180910390fd5b600073ffffffffffffffffffffffffffffffffffffffff168273ffffffffffffffffffffffffffffffffffffffff161415611b12576040517f08c379a0000000000000000000000000000000000000000000000000000000008152600401611b09906138cb565b60405180910390fd5b611b1d838383612474565b611b28600082611895565b6001600360008573ffffffffffffffffffffffffffffffffffffffff1673ffffffffffffffffffffffffffffffffffffffff1681526020019081526020016000206000828254611b789190613c7d565b925050819055506001600360008473ffffffffffffffffffffffffffffffffffffffff1673ffffffffffffffffffffffffffffffffffffffff1681526020019081526020016000206000828254611bcf9190613b65565b92505081905550816002600083815260200190815260200160002060006101000a81548173ffffffffffffffffffffffffffffffffffffffff021916908373ffffffffffffffffffffffffffffffffffffffff160217905550808273ffffffffffffffffffffffffffffffffffffffff168473ffffffffffffffffffffffffffffffffffffffff167fddf252ad1be2c89b69c2b068fc378daa952ba7f163c4a11628f55a4df523b3ef60405160405180910390a4505050565b60606000821415611cd0576040518060400160405280600181526020017f30000000000000000000000000000000000000000000000000000000000000008152509050611e30565b600082905060005b60008214611d02578080611ceb90613da6565b915050600a82611cfb9190613bf2565b9150611cd8565b60008167ffffffffffffffff811115611d44577f4e487b7100000000000000000000000000000000000000000000000000000000600052604160045260246000fd5b6040519080825280601f01601f191660200182016040528015611d765781602001600182028036833780820191505090505b5090505b60008514611e2957600182611d8f9190613c7d565b9150600a85611d9e9190613def565b6030611daa9190613b65565b60f81b818381518110611de6577f4e487b7100000000000000000000000000000000000000000000000000000000600052603260045260246000fd5b60200101907effffffffffffffffffffffffffffffffffffffffffffffffffffffffffffff1916908160001a905350600a85611e229190613bf2565b9450611d7a565b8093505050505b919050565b600081604051602001611e4891906135af565b6040516020818303038152906040528051906020012060001c9050919050565b600081600001549050919050565b60606000821415611ebe576040518060400160405280600181526020017f30000000000000000000000000000000000000000000000000000000000000008152509050612046565b600082905060005b60008214611ef0578080611ed990613da6565b915050600a82611ee99190613bf2565b9150611ec6565b60008167ffffffffffffffff811115611f32577f4e487b7100000000000000000000000000000000000000000000000000000000600052604160045260246000fd5b6040519080825280601f01601f191660200182016040528015611f645781602001600182028036833780820191505090505b50905060008290505b6000861461203e57600181611f829190613c7d565b90506000600a8088611f949190613bf2565b611f9e9190613c23565b87611fa99190613c7d565b6030611fb59190613bbb565b905060008160f81b905080848481518110611ff9577f4e487b7100000000000000000000000000000000000000000000000000000000600052603260045260246000fd5b60200101907effffffffffffffffffffffffffffffffffffffffffffffffffffffffffffff1916908160001a905350600a886120359190613bf2565b97505050611f6d565b819450505050505b919050565b606060008251141561206e576040518060200160405280600081525090506121e5565b6000604051806060016040528060408152602001614087604091399050600060036002855161209d9190613b65565b6120a79190613bf2565b60046120b39190613c23565b905060006020826120c49190613b65565b67ffffffffffffffff811115612103577f4e487b7100000000000000000000000000000000000000000000000000000000600052604160045260246000fd5b6040519080825280601f01601f1916602001820160405280156121355781602001600182028036833780820191505090505b509050818152600183018586518101602084015b818310156121a4576003830192508251603f8160121c168501518253600182019150603f81600c1c168501518253600182019150603f8160061c168501518253600182019150603f8116850151825360018201915050612149565b6003895106600181146121be57600281146121ce576121d9565b613d3d60f01b60028303526121d9565b603d60f81b60018303525b50505050508093505050505b919050565b612204828260405180602001604052806000815250612479565b5050565b61221182611821565b612250576040517f08c379a00000000000000000000000000000000000000000000000000000000081526004016122479061398b565b60405180910390fd5b80600660008481526020019081526020016000209080519060200190612277929190612874565b505050565b6001816000016000828254019250508190555050565b61232c8383836040516024016122aa9392919061382d565b6040516020818303038152906040527fe3849f79000000000000000000000000000000000000000000000000000000007bffffffffffffffffffffffffffffffffffffffffffffffffffffffff19166020820180517bffffffffffffffffffffffffffffffffffffffffffffffffffffffff838183161783525050505061244b565b505050565b61233c848484611a2c565b612348848484846124d4565b612387576040517f08c379a000000000000000000000000000000000000000000000000000000000815260040161237e9061386b565b60405180910390fd5b50505050565b606060405180602001604052806000815250905090565b60606123af82611821565b6123ee576040517f08c379a00000000000000000000000000000000000000000000000000000000081526004016123e590613a2b565b60405180910390fd5b60006123f861238d565b905060008151116124185760405180602001604052806000815250612443565b8061242284611c88565b6040516020016124339291906135c6565b6040516020818303038152906040525b915050919050565b60008151905060006a636f6e736f6c652e6c6f679050602083016000808483855afa5050505050565b505050565b612483838361266b565b61249060008484846124d4565b6124cf576040517f08c379a00000000000000000000000000000000000000000000000000000000081526004016124c69061386b565b60405180910390fd5b505050565b60006124f58473ffffffffffffffffffffffffffffffffffffffff16612839565b1561265e578373ffffffffffffffffffffffffffffffffffffffff1663150b7a0261251e61188d565b8786866040518563ffffffff1660e01b81526004016125409493929190613766565b602060405180830381600087803b15801561255a57600080fd5b505af192505050801561258b57506040513d601f19601f820116820180604052508101906125889190612bb8565b60015b61260e573d80600081146125bb576040519150601f19603f3d011682016040523d82523d6000602084013e6125c0565b606091505b50600081511415612606576040517f08c379a00000000000000000000000000000000000000000000000000000000081526004016125fd9061386b565b60405180910390fd5b805181602001fd5b63150b7a0260e01b7bffffffffffffffffffffffffffffffffffffffffffffffffffffffff1916817bffffffffffffffffffffffffffffffffffffffffffffffffffffffff191614915050612663565b600190505b949350505050565b600073ffffffffffffffffffffffffffffffffffffffff168273ffffffffffffffffffffffffffffffffffffffff1614156126db576040517f08c379a00000000000000000000000000000000000000000000000000000000081526004016126d2906139ab565b60405180910390fd5b6126e481611821565b15612724576040517f08c379a000000000000000000000000000000000000000000000000000000000815260040161271b9061388b565b60405180910390fd5b61273060008383612474565b6001600360008473ffffffffffffffffffffffffffffffffffffffff1673ffffffffffffffffffffffffffffffffffffffff16815260200190815260200160002060008282546127809190613b65565b92505081905550816002600083815260200190815260200160002060006101000a81548173ffffffffffffffffffffffffffffffffffffffff021916908373ffffffffffffffffffffffffffffffffffffffff160217905550808273ffffffffffffffffffffffffffffffffffffffff16600073ffffffffffffffffffffffffffffffffffffffff167fddf252ad1be2c89b69c2b068fc378daa952ba7f163c4a11628f55a4df523b3ef60405160405180910390a45050565b600080823b905060008111915050919050565b6040518061010001604052806008905b606081526020019060019003908161285c5790505090565b82805461288090613d74565b90600052602060002090601f0160209004810192826128a257600085556128e9565b82601f106128bb57805160ff19168380011785556128e9565b828001600101855582156128e9579182015b828111156128e85782518255916020019190600101906128cd565b5b5090506128f691906128fa565b5090565b5b808211156129135760008160009055506001016128fb565b5090565b600061292a61292584613af2565b613ac1565b90508281526020810184848401111561294257600080fd5b61294d848285613d32565b509392505050565b60008135905061296481613eed565b92915050565b60008135905061297981613f04565b92915050565b60008135905061298e81613f1b565b92915050565b6000815190506129a381613f1b565b92915050565b600082601f8301126129ba57600080fd5b81356129ca848260208601612917565b91505092915050565b6000813590506129e281613f32565b92915050565b6000602082840312156129fa57600080fd5b6000612a0884828501612955565b91505092915050565b60008060408385031215612a2457600080fd5b6000612a3285828601612955565b9250506020612a4385828601612955565b9150509250929050565b600080600060608486031215612a6257600080fd5b6000612a7086828701612955565b9350506020612a8186828701612955565b9250506040612a92868287016129d3565b9150509250925092565b60008060008060808587031215612ab257600080fd5b6000612ac087828801612955565b9450506020612ad187828801612955565b9350506040612ae2878288016129d3565b925050606085013567ffffffffffffffff811115612aff57600080fd5b612b0b878288016129a9565b91505092959194509250565b60008060408385031215612b2a57600080fd5b6000612b3885828601612955565b9250506020612b498582860161296a565b9150509250929050565b60008060408385031215612b6657600080fd5b6000612b7485828601612955565b9250506020612b85858286016129d3565b9150509250929050565b600060208284031215612ba157600080fd5b6000612baf8482850161297f565b91505092915050565b600060208284031215612bca57600080fd5b6000612bd884828501612994565b91505092915050565b600060208284031215612bf357600080fd5b6000612c01848285016129d3565b91505092915050565b612c1381613cb1565b82525050565b612c2281613cc3565b82525050565b6000612c3382613b22565b612c3d8185613b38565b9350612c4d818560208601613d41565b612c5681613edc565b840191505092915050565b6000612c6c82613b2d565b612c768185613b49565b9350612c86818560208601613d41565b612c8f81613edc565b840191505092915050565b6000612ca582613b2d565b612caf8185613b5a565b9350612cbf818560208601613d41565b80840191505092915050565b6000612cd8601083613b5a565b91507f73656c6620696d70726f6f7665722023000000000000000000000000000000006000830152601082019050919050565b6000612d18603283613b49565b91507f4552433732313a207472616e7366657220746f206e6f6e20455243373231526560008301527f63656976657220696d706c656d656e74657200000000000000000000000000006020830152604082019050919050565b6000612d7e601c83613b49565b91507f4552433732313a20746f6b656e20616c7265616479206d696e746564000000006000830152602082019050919050565b6000612dbe600a83613b5a565b91507f54484952445f574f5244000000000000000000000000000000000000000000006000830152600a82019050919050565b6000612dfe602483613b49565b91507f616c6c2073656c6620696d70726f6f766572732068617665206265656e206d6960008301527f6e746564000000000000000000000000000000000000000000000000000000006020830152604082019050919050565b6000612e64602483613b49565b91507f4552433732313a207472616e7366657220746f20746865207a65726f2061646460008301527f72657373000000000000000000000000000000000000000000000000000000006020830152604082019050919050565b6000612eca601983613b49565b91507f4552433732313a20617070726f766520746f2063616c6c6572000000000000006000830152602082019050919050565b6000612f0a606383613b5a565b91507f222c20226465736372697074696f6e223a20224120686967686c79206163636c60008301527f61696d656420636f6c6c656374696f6e206f6620737175617265732e222c202260208301527f696d616765223a2022646174613a696d6167652f7376672b786d6c3b6261736560408301527f36342c00000000000000000000000000000000000000000000000000000000006060830152606382019050919050565b6000612fbc600b83613b5a565b91507f5345434f4e445f574f52440000000000000000000000000000000000000000006000830152600b82019050919050565b6000612ffc602c83613b49565b91507f4552433732313a206f70657261746f7220717565727920666f72206e6f6e657860008301527f697374656e7420746f6b656e00000000000000000000000000000000000000006020830152604082019050919050565b6000613062603883613b49565b91507f4552433732313a20617070726f76652063616c6c6572206973206e6f74206f7760008301527f6e6572206e6f7220617070726f76656420666f7220616c6c00000000000000006020830152604082019050919050565b60006130c8602a83613b49565b91507f4552433732313a2062616c616e636520717565727920666f7220746865207a6560008301527f726f2061646472657373000000000000000000000000000000000000000000006020830152604082019050919050565b600061312e602983613b49565b91507f4552433732313a206f776e657220717565727920666f72206e6f6e657869737460008301527f656e7420746f6b656e00000000000000000000000000000000000000000000006020830152604082019050919050565b6000613194602e83613b49565b91507f45524337323155524953746f726167653a2055524920736574206f66206e6f6e60008301527f6578697374656e7420746f6b656e0000000000000000000000000000000000006020830152604082019050919050565b60006131fa600283613b5a565b91507f227d0000000000000000000000000000000000000000000000000000000000006000830152600282019050919050565b600061323a602083613b49565b91507f4552433732313a206d696e7420746f20746865207a65726f20616464726573736000830152602082019050919050565b600061327a603183613b49565b91507f45524337323155524953746f726167653a2055524920717565727920666f722060008301527f6e6f6e6578697374656e7420746f6b656e0000000000000000000000000000006020830152604082019050919050565b60006132e0602c83613b49565b91507f4552433732313a20617070726f76656420717565727920666f72206e6f6e657860008301527f697374656e7420746f6b656e00000000000000000000000000000000000000006020830152604082019050919050565b6000613346602983613b49565b91507f4552433732313a207472616e73666572206f6620746f6b656e2074686174206960008301527f73206e6f74206f776e00000000000000000000000000000000000000000000006020830152604082019050919050565b60006133ac602f83613b49565b91507f4552433732314d657461646174613a2055524920717565727920666f72206e6f60008301527f6e6578697374656e7420746f6b656e00000000000000000000000000000000006020830152604082019050919050565b6000613412600a83613b5a565b91507f7b226e616d65223a2022000000000000000000000000000000000000000000006000830152600a82019050919050565b6000613452602183613b49565b91507f4552433732313a20617070726f76616c20746f2063757272656e74206f776e6560008301527f72000000000000000000000000000000000000000000000000000000000000006020830152604082019050919050565b60006134b8600a83613b5a565b91507f46495253545f574f5244000000000000000000000000000000000000000000006000830152600a82019050919050565b60006134f8601d83613b5a565b91507f646174613a6170706c69636174696f6e2f6a736f6e3b6261736536342c0000006000830152601d82019050919050565b6000613538603183613b49565b91507f4552433732313a207472616e736665722063616c6c6572206973206e6f74206f60008301527f776e6572206e6f7220617070726f7665640000000000000000000000000000006020830152604082019050919050565b61359a81613d1b565b82525050565b6135a981613d25565b82525050565b60006135bb8284612c9a565b915081905092915050565b60006135d28285612c9a565b91506135de8284612c9a565b91508190509392505050565b60006135f6828b612c9a565b9150613602828a612c9a565b915061360e8289612c9a565b915061361a8288612c9a565b91506136268287612c9a565b91506136328286612c9a565b915061363e8285612c9a565b915061364a8284612c9a565b91508190509998505050505050505050565b600061366782612ccb565b91506136738284612c9a565b915081905092915050565b600061368982612db1565b91506136958284612c9a565b915081905092915050565b60006136ab82612faf565b91506136b78284612c9a565b915081905092915050565b60006136cd82613405565b91506136d98285612c9a565b91506136e482612efd565b91506136f08284612c9a565b91506136fb826131ed565b91508190509392505050565b6000613712826134ab565b915061371e8284612c9a565b915081905092915050565b6000613734826134eb565b91506137408284612c9a565b915081905092915050565b60006020820190506137606000830184612c0a565b92915050565b600060808201905061377b6000830187612c0a565b6137886020830186612c0a565b6137956040830185613591565b81810360608301526137a78184612c28565b905095945050505050565b60006060820190506137c76000830186612c0a565b6137d46020830185613591565b81810360408301526137e68184612c61565b9050949350505050565b60006020820190506138056000830184612c19565b92915050565b600060208201905081810360008301526138258184612c61565b905092915050565b600060608201905081810360008301526138478186612c61565b90506138566020830185613591565b6138636040830184612c0a565b949350505050565b6000602082019050818103600083015261388481612d0b565b9050919050565b600060208201905081810360008301526138a481612d71565b9050919050565b600060208201905081810360008301526138c481612df1565b9050919050565b600060208201905081810360008301526138e481612e57565b9050919050565b6000602082019050818103600083015261390481612ebd565b9050919050565b6000602082019050818103600083015261392481612fef565b9050919050565b6000602082019050818103600083015261394481613055565b9050919050565b60006020820190508181036000830152613964816130bb565b9050919050565b6000602082019050818103600083015261398481613121565b9050919050565b600060208201905081810360008301526139a481613187565b9050919050565b600060208201905081810360008301526139c48161322d565b9050919050565b600060208201905081810360008301526139e48161326d565b9050919050565b60006020820190508181036000830152613a04816132d3565b9050919050565b60006020820190508181036000830152613a2481613339565b9050919050565b60006020820190508181036000830152613a448161339f565b9050919050565b60006020820190508181036000830152613a6481613445565b9050919050565b60006020820190508181036000830152613a848161352b565b9050919050565b6000602082019050613aa06000830184613591565b92915050565b6000602082019050613abb60008301846135a0565b92915050565b6000604051905081810181811067ffffffffffffffff82111715613ae857613ae7613ead565b5b8060405250919050565b600067ffffffffffffffff821115613b0d57613b0c613ead565b5b601f19601f8301169050602081019050919050565b600081519050919050565b600081519050919050565b600082825260208201905092915050565b600082825260208201905092915050565b600081905092915050565b6000613b7082613d1b565b9150613b7b83613d1b565b9250827fffffffffffffffffffffffffffffffffffffffffffffffffffffffffffffffff03821115613bb057613baf613e20565b5b828201905092915050565b6000613bc682613d25565b9150613bd183613d25565b92508260ff03821115613be757613be6613e20565b5b828201905092915050565b6000613bfd82613d1b565b9150613c0883613d1b565b925082613c1857613c17613e4f565b5b828204905092915050565b6000613c2e82613d1b565b9150613c3983613d1b565b9250817fffffffffffffffffffffffffffffffffffffffffffffffffffffffffffffffff0483118215151615613c7257613c71613e20565b5b828202905092915050565b6000613c8882613d1b565b9150613c9383613d1b565b925082821015613ca657613ca5613e20565b5b828203905092915050565b6000613cbc82613cfb565b9050919050565b60008115159050919050565b60007fffffffff0000000000000000000000000000000000000000000000000000000082169050919050565b600073ffffffffffffffffffffffffffffffffffffffff82169050919050565b6000819050919050565b600060ff82169050919050565b82818337600083830152505050565b60005b83811015613d5f578082015181840152602081019050613d44565b83811115613d6e576000848401525b50505050565b60006002820490506001821680613d8c57607f821691505b60208210811415613da057613d9f613e7e565b5b50919050565b6000613db182613d1b565b91507fffffffffffffffffffffffffffffffffffffffffffffffffffffffffffffffff821415613de457613de3613e20565b5b600182019050919050565b6000613dfa82613d1b565b9150613e0583613d1b565b925082613e1557613e14613e4f565b5b828206905092915050565b7f4e487b7100000000000000000000000000000000000000000000000000000000600052601160045260246000fd5b7f4e487b7100000000000000000000000000000000000000000000000000000000600052601260045260246000fd5b7f4e487b7100000000000000000000000000000000000000000000000000000000600052602260045260246000fd5b7f4e487b7100000000000000000000000000000000000000000000000000000000600052604160045260246000fd5b6000601f19601f8301169050919050565b613ef681613cb1565b8114613f0157600080fd5b50565b613f0d81613cc3565b8114613f1857600080fd5b50565b613f2481613ccf565b8114613f2f57600080fd5b50565b613f3b81613d1b565b8114613f4657600080fd5b5056fe3c2f746578743e3c7465787420783d2231302220793d2236302220636c6173733d2262617365223e416e204e465420772f20494420257320686173206265656e206d696e74656420746f2025733c73766720786d6c6e733d22687474703a2f2f7777772e77332e6f72672f323030302f73766722207072657365727665417370656374526174696f3d22784d696e594d696e206d656574222076696577426f783d223020302033353020333530223e3c7374796c653e2e62617365207b20666f6e742d66616d696c793a2073657269663b20666f6e742d73697a653a20313470783b207d3c2f7374796c653e3c726563742077696474683d223130302522206865696768743d2231303025222066696c6c3d22776869746522202f3e3c7465787420783d2231302220793d2232302220636c6173733d2262617365223e4142434445464748494a4b4c4d4e4f505152535455565758595a6162636465666768696a6b6c6d6e6f707172737475767778797a303132333435363738392b2f3c2f746578743e3c7465787420783d2231302220793d2234302220636c6173733d2262617365223ea264697066735822122084022cece287fa83a4c9f7506c87dbb054d7e8597f6dd26052945e3e84f3657364736f6c634300080000333c73766720786d6c6e733d27687474703a2f2f7777772e77332e6f72672f323030302f73766727207072657365727665417370656374526174696f3d27784d696e594d696e206d656574272076696577426f783d273020302033353020333530273e3c7374796c653e2e62617365207b2066696c6c3a2077686974653b20666f6e742d66616d696c793a2073657269663b20666f6e742d73697a653a20323470783b207d3c2f7374796c653e3c726563742077696474683d273130302527206865696768743d2731303025272066696c6c3d27626c61636b27202f3e3c7465787420783d273530252720793d273530252720636c6173733d27626173652720646f6d696e616e742d626173656c696e653d276d6964646c652720746578742d616e63686f723d276d6964646c65273e486f7720746f2057696e20467269656e647320616e6420496e666c75656e63652050656f706c65",
  "linkReferences": {},
  "deployedLinkReferences": {}
}