{
  "address": "0x27ad053D92c9BAA5D0379b4d672e8814AB04FeF1",
  "abi": [
    {
      "inputs": [],
      "name": "AccessControlBadConfirmation",
      "type": "error"
    },
    {
      "inputs": [
        {
          "internalType": "address",
          "name": "account",
          "type": "address"
        },
        {
          "internalType": "bytes32",
          "name": "neededRole",
          "type": "bytes32"
        }
      ],
      "name": "AccessControlUnauthorizedAccount",
      "type": "error"
    },
    {
      "inputs": [],
      "name": "InvalidInitialization",
      "type": "error"
    },
    {
      "inputs": [],
      "name": "NotInitializing",
      "type": "error"
    },
    {
      "inputs": [],
      "name": "ReentrancyGuardReentrantCall",
      "type": "error"
    },
    {
      "anonymous": false,
      "inputs": [
        {
          "indexed": true,
          "internalType": "address",
          "name": "who",
          "type": "address"
        },
        {
          "indexed": false,
          "internalType": "address",
          "name": "configAddress",
          "type": "address"
        }
      ],
      "name": "GoldfinchConfigUpdated",
      "type": "event"
    },
    {
      "anonymous": false,
      "inputs": [
        {
          "indexed": false,
          "internalType": "uint64",
          "name": "version",
          "type": "uint64"
        }
      ],
      "name": "Initialized",
      "type": "event"
    },
    {
      "anonymous": false,
      "inputs": [
        {
          "indexed": true,
          "internalType": "bytes32",
          "name": "role",
          "type": "bytes32"
        },
        {
          "indexed": true,
          "internalType": "bytes32",
          "name": "previousAdminRole",
          "type": "bytes32"
        },
        {
          "indexed": true,
          "internalType": "bytes32",
          "name": "newAdminRole",
          "type": "bytes32"
        }
      ],
      "name": "RoleAdminChanged",
      "type": "event"
    },
    {
      "anonymous": false,
      "inputs": [
        {
          "indexed": true,
          "internalType": "bytes32",
          "name": "role",
          "type": "bytes32"
        },
        {
          "indexed": true,
          "internalType": "address",
          "name": "account",
          "type": "address"
        },
        {
          "indexed": true,
          "internalType": "address",
          "name": "sender",
          "type": "address"
        }
      ],
      "name": "RoleGranted",
      "type": "event"
    },
    {
      "anonymous": false,
      "inputs": [
        {
          "indexed": true,
          "internalType": "bytes32",
          "name": "role",
          "type": "bytes32"
        },
        {
          "indexed": true,
          "internalType": "address",
          "name": "account",
          "type": "address"
        },
        {
          "indexed": true,
          "internalType": "address",
          "name": "sender",
          "type": "address"
        }
      ],
      "name": "RoleRevoked",
      "type": "event"
    },
    {
      "inputs": [],
      "name": "DEFAULT_ADMIN_ROLE",
      "outputs": [
        {
          "internalType": "bytes32",
          "name": "",
          "type": "bytes32"
        }
      ],
      "stateMutability": "view",
      "type": "function"
    },
    {
      "inputs": [],
      "name": "ID_TYPE_0",
      "outputs": [
        {
          "internalType": "uint256",
          "name": "",
          "type": "uint256"
        }
      ],
      "stateMutability": "view",
      "type": "function"
    },
    {
      "inputs": [],
      "name": "ID_TYPE_1",
      "outputs": [
        {
          "internalType": "uint256",
          "name": "",
          "type": "uint256"
        }
      ],
      "stateMutability": "view",
      "type": "function"
    },
    {
      "inputs": [],
      "name": "ID_TYPE_10",
      "outputs": [
        {
          "internalType": "uint256",
          "name": "",
          "type": "uint256"
        }
      ],
      "stateMutability": "view",
      "type": "function"
    },
    {
      "inputs": [],
      "name": "ID_TYPE_2",
      "outputs": [
        {
          "internalType": "uint256",
          "name": "",
          "type": "uint256"
        }
      ],
      "stateMutability": "view",
      "type": "function"
    },
    {
      "inputs": [],
      "name": "ID_TYPE_3",
      "outputs": [
        {
          "internalType": "uint256",
          "name": "",
          "type": "uint256"
        }
      ],
      "stateMutability": "view",
      "type": "function"
    },
    {
      "inputs": [],
      "name": "ID_TYPE_4",
      "outputs": [
        {
          "internalType": "uint256",
          "name": "",
          "type": "uint256"
        }
      ],
      "stateMutability": "view",
      "type": "function"
    },
    {
      "inputs": [],
      "name": "ID_TYPE_5",
      "outputs": [
        {
          "internalType": "uint256",
          "name": "",
          "type": "uint256"
        }
      ],
      "stateMutability": "view",
      "type": "function"
    },
    {
      "inputs": [],
      "name": "ID_TYPE_6",
      "outputs": [
        {
          "internalType": "uint256",
          "name": "",
          "type": "uint256"
        }
      ],
      "stateMutability": "view",
      "type": "function"
    },
    {
      "inputs": [],
      "name": "ID_TYPE_7",
      "outputs": [
        {
          "internalType": "uint256",
          "name": "",
          "type": "uint256"
        }
      ],
      "stateMutability": "view",
      "type": "function"
    },
    {
      "inputs": [],
      "name": "ID_TYPE_8",
      "outputs": [
        {
          "internalType": "uint256",
          "name": "",
          "type": "uint256"
        }
      ],
      "stateMutability": "view",
      "type": "function"
    },
    {
      "inputs": [],
      "name": "ID_TYPE_9",
      "outputs": [
        {
          "internalType": "uint256",
          "name": "",
          "type": "uint256"
        }
      ],
      "stateMutability": "view",
      "type": "function"
    },
    {
      "inputs": [
        {
          "internalType": "address",
          "name": "owner",
          "type": "address"
        },
        {
          "internalType": "contract IPauser",
          "name": "pauser",
          "type": "address"
        }
      ],
      "name": "__BaseUpgradeablePausable__init",
      "outputs": [],
      "stateMutability": "nonpayable",
      "type": "function"
    },
    {
      "inputs": [
        {
          "internalType": "uint256",
          "name": "",
          "type": "uint256"
        }
      ],
      "name": "allIdTypes",
      "outputs": [
        {
          "internalType": "uint256",
          "name": "",
          "type": "uint256"
        }
      ],
      "stateMutability": "view",
      "type": "function"
    },
    {
      "inputs": [],
      "name": "config",
      "outputs": [
        {
          "internalType": "contract GoldfinchConfig",
          "name": "",
          "type": "address"
        }
      ],
      "stateMutability": "view",
      "type": "function"
    },
    {
      "inputs": [],
      "name": "getAllIdTypes",
      "outputs": [
        {
          "internalType": "uint256[]",
          "name": "",
          "type": "uint256[]"
        }
      ],
      "stateMutability": "view",
      "type": "function"
    },
    {
      "inputs": [
        {
          "internalType": "bytes32",
          "name": "role",
          "type": "bytes32"
        }
      ],
      "name": "getRoleAdmin",
      "outputs": [
        {
          "internalType": "bytes32",
          "name": "",
          "type": "bytes32"
        }
      ],
      "stateMutability": "view",
      "type": "function"
    },
    {
      "inputs": [
        {
          "internalType": "address",
          "name": "account",
          "type": "address"
        }
      ],
      "name": "go",
      "outputs": [
        {
          "internalType": "bool",
          "name": "",
          "type": "bool"
        }
      ],
      "stateMutability": "view",
      "type": "function"
    },
    {
      "inputs": [
        {
          "internalType": "address",
          "name": "account",
          "type": "address"
        },
        {
          "internalType": "uint256[]",
          "name": "onlyIdTypes",
          "type": "uint256[]"
        }
      ],
      "name": "goOnlyIdTypes",
      "outputs": [
        {
          "internalType": "bool",
          "name": "",
          "type": "bool"
        }
      ],
      "stateMutability": "view",
      "type": "function"
    },
    {
      "inputs": [
        {
          "internalType": "bytes32",
          "name": "role",
          "type": "bytes32"
        },
        {
          "internalType": "address",
          "name": "account",
          "type": "address"
        }
      ],
      "name": "grantRole",
      "outputs": [],
      "stateMutability": "nonpayable",
      "type": "function"
    },
    {
      "inputs": [
        {
          "internalType": "bytes32",
          "name": "role",
          "type": "bytes32"
        },
        {
          "internalType": "address",
          "name": "account",
          "type": "address"
        }
      ],
      "name": "hasRole",
      "outputs": [
        {
          "internalType": "bool",
          "name": "",
          "type": "bool"
        }
      ],
      "stateMutability": "view",
      "type": "function"
    },
    {
      "inputs": [
        {
          "internalType": "address",
          "name": "owner",
          "type": "address"
        },
        {
          "internalType": "contract GoldfinchConfig",
          "name": "_config",
          "type": "address"
        },
        {
          "internalType": "contract IUniqueIdentity",
          "name": "_uniqueIdentity",
          "type": "address"
        }
      ],
      "name": "initialize",
      "outputs": [],
      "stateMutability": "nonpayable",
      "type": "function"
    },
    {
      "inputs": [],
      "name": "isAdmin",
      "outputs": [
        {
          "internalType": "bool",
          "name": "",
          "type": "bool"
        }
      ],
      "stateMutability": "view",
      "type": "function"
    },
    {
      "inputs": [],
      "name": "paused",
      "outputs": [
        {
          "internalType": "bool",
          "name": "",
          "type": "bool"
        }
      ],
      "stateMutability": "view",
      "type": "function"
    },
    {
      "inputs": [],
      "name": "performUpgrade",
      "outputs": [],
      "stateMutability": "nonpayable",
      "type": "function"
    },
    {
      "inputs": [
        {
          "internalType": "bytes32",
          "name": "role",
          "type": "bytes32"
        },
        {
          "internalType": "address",
          "name": "account",
          "type": "address"
        }
      ],
      "name": "renounceRole",
      "outputs": [],
      "stateMutability": "nonpayable",
      "type": "function"
    },
    {
      "inputs": [
        {
          "internalType": "bytes32",
          "name": "role",
          "type": "bytes32"
        },
        {
          "internalType": "address",
          "name": "account",
          "type": "address"
        }
      ],
      "name": "revokeRole",
      "outputs": [],
      "stateMutability": "nonpayable",
      "type": "function"
    },
    {
      "inputs": [
        {
          "internalType": "bytes4",
          "name": "interfaceId",
          "type": "bytes4"
        }
      ],
      "name": "supportsInterface",
      "outputs": [
        {
          "internalType": "bool",
          "name": "",
          "type": "bool"
        }
      ],
      "stateMutability": "view",
      "type": "function"
    },
    {
      "inputs": [],
      "name": "uniqueIdentity",
      "outputs": [
        {
          "internalType": "contract IUniqueIdentity",
          "name": "",
          "type": "address"
        }
      ],
      "stateMutability": "view",
      "type": "function"
    }
  ],
  "transactionHash": "0x052d687cfc15326b2fd48344d05d0bb19d2d9b2ff1da537dca6a2e97a94a5806",
  "args": [],
  "numDeployments": 1,
  "solcInputHash": "56490899b0739bae22343aae76081647",
  "bytecode": "0x60808060405234601557611104908161001a8239f35b5f80fdfe6080806040526004361015610012575f80fd5b5f3560e01c90816301ffc9a714610c12575080631484bddd14610bf75780631852f20014610b43578063248a9ca314610b115780632e82d89514610af65780632f2ff15d14610a3f5780633434e74914610a1357806336568abe146109db578063479e743c146109c05780635344626a146109a55780635c975abb14610916578063701d240a146108fb57806379502c55146108d2578063801dfa90146108b757806380f878021461089c57806391d14854146108545780639b56d7881461083a578063a217fddf1461083a578063a4eca0c2146107de578063b6db75a01461079e578063c0c53b8b1461041e578063c5703d471461028e578063d00d472e1461024a578063d547741f14610206578063ddd8f687146101eb578063e57a2a50146101d0578063ec2e8a75146101b5578063f2b60781146101885763f66256bf1461015b575f80fd5b34610184575f3660031901126101845761015f546040516001600160a01b039091168152602090f35b5f80fd5b3461018457602036600319011261018457600435600b811015610184576020906101610154604051908152f35b34610184575f36600319011261018457602060405160048152f35b34610184575f36600319011261018457602060405160098152f35b34610184575f366003190112610184576020604051600a8152f35b3461018457604036600319011261018457610248600435610225610c7b565b9061024361023e825f525f602052600160405f20015490565b610f5f565b610f80565b005b34610184575f36600319011261018457610286610281335f9081525f8051602061106f833981519152602052604090205460ff1690565b610eb6565b610248611000565b34610184576040366003190112610184576102a7610c65565b6024356001600160a01b0381169190829003610184576102c5611043565b6001600160a01b0316906102da821515610f2e565b6102e2611043565b6102ea611043565b6102f5811515610f2e565b6001600160601b0360a01b6032541617603255610310611043565b60017f9b779b17422d0df92223018b32b4d1fa46e071723d6817e2486d003becc55f00555f8181525f8051602061106f833981519152602052604090205460ff16156103be575b5f8051602061108f8339815191525f81815260208190527fd329ff8a035c3ce5df2b0dae604d660c0d8783bf7e64be00c1d10db96c0b87b58054908390559082907fbd79b86ffe0ab8e8776151514217cd7cacd52c909f66475c3af44e129f0b00ff9080a4005b5f8181525f8051602061106f83398151915260205260408120805460ff191660011790553391905f8051602061108f833981519152907f2f8788117e7eff1d82e926ec794901d17c78024a50270940304540a733656f0d9080a480610357565b3461018457606036600319011261018457610437610c65565b6024356001600160a01b03811690819003610184576044356001600160a01b0381169190829003610184575f805160206110af833981519152549260ff8460401c16159367ffffffffffffffff811680159081610796575b600114908161078c575b159081610783575b506107745767ffffffffffffffff1981166001175f805160206110af8339815191525584610748575b506001600160a01b0316801515808061073f575b80610736575b156106cb576104fa906104f5611043565b610f2e565b610502611043565b61050a611043565b610515821515610f2e565b603280546001600160a01b0319168317905561052f611043565b60017f9b779b17422d0df92223018b32b4d1fa46e071723d6817e2486d003becc55f00555f8181525f8051602061106f833981519152602052604090205460ff161561066b575b505f8051602061108f8339815191525f81815260208190527fd329ff8a035c3ce5df2b0dae604d660c0d8783bf7e64be00c1d10db96c0b87b58054908390559082907fbd79b86ffe0ab8e8776151514217cd7cacd52c909f66475c3af44e129f0b00ff9080a46105e4611000565b6001600160601b0360a01b610160541617610160556001600160601b0360a01b61015f54161761015f5561061457005b68ff0000000000000000195f805160206110af83398151915254165f805160206110af833981519152557fc7f505b2f371ae2175ee4913f4499e1f2633a7b5936321eed1cdaeb6115181d2602060405160018152a1005b5f8181525f8051602061106f83398151915260205260408120805460ff191660011790553391905f8051602061108f833981519152907f2f8788117e7eff1d82e926ec794901d17c78024a50270940304540a733656f0d9080a483610576565b60405162461bcd60e51b815260206004820152603d60248201527f4f776e657220616e6420636f6e66696720616e6420556e697175654964656e7460448201527f697479206164647265737365732063616e6e6f7420626520656d7074790000006064820152608490fd5b508315156104e4565b508215156104de565b68ffffffffffffffffff191668010000000000000001175f805160206110af83398151915255846104ca565b63f92ee8a960e01b5f5260045ffd5b905015866104a1565b303b159150610499565b86915061048f565b34610184575f3660031901126101845760206107d4335f9081525f8051602061106f833981519152602052604090205460ff1690565b6040519015158152f35b34610184575f366003190112610184576107f6610ee7565b6040518091602082016020835281518091526020604084019201905f5b818110610821575050500390f35b8251845285945060209384019390920191600101610813565b34610184575f3660031901126101845760206040515f8152f35b346101845760403660031901126101845761086d610c7b565b6004355f525f60205260405f209060018060a01b03165f52602052602060ff60405f2054166040519015158152f35b34610184575f36600319011261018457602060405160028152f35b34610184575f36600319011261018457602060405160078152f35b34610184575f36600319011261018457610160546040516001600160a01b039091168152602090f35b34610184575f36600319011261018457602060405160018152f35b34610184575f36600319011261018457603254604051635b14f18360e01b815230600482015290602090829060249082906001600160a01b03165afa801561099a576020915f9161096d575b506040519015158152f35b61098d9150823d8411610993575b6109858183610c91565b810190610cdb565b82610962565b503d61097b565b6040513d5f823e3d90fd5b34610184575f36600319011261018457602060405160068152f35b34610184575f36600319011261018457602060405160058152f35b34610184576040366003190112610184576102486109f7610c7b565b610a0b6001600160a01b0382163314610eb6565b600435610f80565b346101845760203660031901126101845760206107d4610a31610c65565b610a39610ee7565b90610cf3565b3461018457604036600319011261018457600435610a5b610c7b565b90610a7461023e825f525f602052600160405f20015490565b5f818152602081815260408083206001600160a01b038616845290915290205460ff1615610a9e57005b5f818152602081815260408083206001600160a01b0395909516808452949091528120805460ff19166001179055339291907f2f8788117e7eff1d82e926ec794901d17c78024a50270940304540a733656f0d9080a4005b34610184575f36600319011261018457602060405160038152f35b34610184576020366003190112610184576020610b3b6004355f525f602052600160405f20015490565b604051908152f35b3461018457604036600319011261018457610b5c610c65565b6024359067ffffffffffffffff8211610184573660238301121561018457816004013567ffffffffffffffff8111610be3578060051b916020830191610ba56040519384610c91565b8252602460208301938501019236841161018457602460209501905b848210610bd45750506107d49250610cf3565b81358152908501908501610bc1565b634e487b7160e01b5f52604160045260245ffd5b34610184575f36600319011261018457602060405160088152f35b34610184576020366003190112610184576004359063ffffffff60e01b821680920361018457602091637965db0b60e01b8114908115610c54575b5015158152f35b6301ffc9a760e01b14905083610c4d565b600435906001600160a01b038216820361018457565b602435906001600160a01b038216820361018457565b90601f8019910116810190811067ffffffffffffffff821117610be357604052565b8051821015610cc75760209160051b010190565b634e487b7160e01b5f52603260045260245ffd5b90816020910312610184575180151581036101845790565b906001600160a01b0382168015610e715761015f5491926001600160a01b03909216915f5b8451811015610e6857610d2b8186610cb3565b51604051627eeac760e11b81526001600160a01b038416600482015260248101829052602081604481895afa90811561099a575f91610e37575b50610e2c57604051627eeac760e11b81523260048201526024810191909152602081604481885afa90811561099a575f91610dfb575b50610da857600101610d18565b5050602091925060446040518094819363e985e9c560e01b835232600484015260248301525afa90811561099a575f91610de0575090565b610df8915060203d8111610993576109858183610c91565b90565b90506020813d8211610e24575b81610e1560209383610c91565b8101031261018457515f610d9b565b3d9150610e08565b505050505050600190565b90506020813d8211610e60575b81610e5160209383610c91565b8101031261018457515f610d65565b3d9150610e44565b50505050505f90565b60405162461bcd60e51b815260206004820152601d60248201527f5a65726f2061646472657373206973206e6f7420676f2d6c69737465640000006044820152606490fd5b15610ebd57565b60405162461bcd60e51b81526020600482015260026024820152614e4160f01b6044820152606490fd5b604051610180610ef78183610c91565b600b8252601f19013660208301375f5b600b811015610f2a57600190806101610154610f238285610cb3565b5201610f07565b5090565b15610f3557565b60405162461bcd60e51b81526020600482015260026024820152615a4160f01b6044820152606490fd5b5f9081526020818152604080832033845290915290205460ff1615610ebd57565b5f818152602081815260408083206001600160a01b038616845290915290205460ff16610fab575050565b5f818152602081815260408083206001600160a01b0395909516808452949091528120805460ff19169055339291907ff6391f5c32d9c69d2a47ea670b442974b53935d1edc7fd64eb21e047a839171b9080a4565b5f61016155600161016255600261016355600361016455600461016555600561016655600661016755600761016855600861016955600961016a55600a61016b55565b60ff5f805160206110af8339815191525460401c161561105f57565b631afcd79f60e31b5f5260045ffdfed329ff8a035c3ce5df2b0dae604d660c0d8783bf7e64be00c1d10db96c0b87b4b19546dff01e856fb3f010c267a7b1c60363cf8a4664e21cc89c26224620214ef0c57e16840df040f15088dc2f81fe391c3923bec73e23a9662efc9c229c6a00a26469706673582212208710d6b56e4e87a7ab913036f685b4b6c219968b5d9c0489f78eb4c7fa604d7764736f6c634300081a0033",
  "devdoc": {
    "errors": {
      "AccessControlBadConfirmation()": [
        {
          "details": "The caller of a function is not the expected one. NOTE: Don't confuse with {AccessControlUnauthorizedAccount}."
        }
      ],
      "AccessControlUnauthorizedAccount(address,bytes32)": [
        {
          "details": "The `account` is missing a role."
        }
      ],
      "InvalidInitialization()": [
        {
          "details": "The contract is already initialized."
        }
      ],
      "NotInitializing()": [
        {
          "details": "The contract is not initializing."
        }
      ],
      "ReentrancyGuardReentrantCall()": [
        {
          "details": "Unauthorized reentrant call."
        }
      ]
    },
    "events": {
      "Initialized(uint64)": {
        "details": "Triggered when the contract has been initialized or reinitialized."
      },
      "RoleAdminChanged(bytes32,bytes32,bytes32)": {
        "details": "Emitted when `newAdminRole` is set as ``role``'s admin role, replacing `previousAdminRole` `DEFAULT_ADMIN_ROLE` is the starting admin for all roles, despite {RoleAdminChanged} not being emitted signaling this."
      },
      "RoleGranted(bytes32,address,address)": {
        "details": "Emitted when `account` is granted `role`. `sender` is the account that originated the contract call. This account bears the admin role (for the granted role). Expected in cases where the role was granted using the internal {AccessControl-_grantRole}."
      },
      "RoleRevoked(bytes32,address,address)": {
        "details": "Emitted when `account` is revoked `role`. `sender` is the account that originated the contract call:   - if using `revokeRole`, it is the admin role bearer   - if using `renounceRole`, it is the role bearer (i.e. `account`)"
      }
    },
    "kind": "dev",
    "methods": {
      "__BaseUpgradeablePausable__init(address,address)": {
        "details": "ZA: Zero Address"
      },
      "getRoleAdmin(bytes32)": {
        "details": "Returns the admin role that controls `role`. See {grantRole} and {revokeRole}. To change a role's admin, use {_setRoleAdmin}."
      },
      "go(address)": {
        "params": {
          "account": "The account whose go status to obtain"
        },
        "returns": {
          "_0": "The account's go status"
        }
      },
      "goOnlyIdTypes(address,uint256[])": {
        "details": "If tx.origin is 0x0 (e.g. in blockchain explorers such as Etherscan) this function will      throw an error if the account is not go listed.",
        "params": {
          "account": "The account whose go status to obtain",
          "onlyIdTypes": "Array of id types to check balances"
        },
        "returns": {
          "_0": "The account's go status"
        }
      },
      "grantRole(bytes32,address)": {
        "details": "Grants `role` to `account`. If `account` had not been already granted `role`, emits a {RoleGranted} event. Requirements: - the caller must have ``role``'s admin role. May emit a {RoleGranted} event."
      },
      "hasRole(bytes32,address)": {
        "details": "Returns `true` if `account` has been granted `role`."
      },
      "renounceRole(bytes32,address)": {
        "details": "Revokes `role` from the calling account. Roles are often managed via {grantRole} and {revokeRole}: this function's purpose is to provide a mechanism for accounts to lose their privileges if they are compromised (such as when a trusted device is misplaced). If the calling account had been revoked `role`, emits a {RoleRevoked} event. Requirements: - the caller must be `account`. May emit a {RoleRevoked} event."
      },
      "revokeRole(bytes32,address)": {
        "details": "Revokes `role` from `account`. If `account` had been granted `role`, emits a {RoleRevoked} event. Requirements: - the caller must have ``role``'s admin role. May emit a {RoleRevoked} event."
      },
      "supportsInterface(bytes4)": {
        "details": "See {IERC165-supportsInterface}."
      }
    },
    "version": 1
  },
  "userdoc": {
    "kind": "user",
    "methods": {
      "getAllIdTypes()": {
        "notice": "Returns a dynamic array of all UID types"
      },
      "go(address)": {
        "notice": "Returns whether the provided account is go-listed for any UID type"
      },
      "goOnlyIdTypes(address,uint256[])": {
        "notice": "Returns whether the provided account is: 1. go-listed for use of the Goldfinch protocol for any of the provided UID token types 2. is allowed to act on behalf of the go-listed EOA initiating this transaction Go-listed is defined as: whether `balanceOf(account, id)` on the UniqueIdentity contract is non-zero (where `id` is a supported token id on UniqueIdentity)."
      },
      "uniqueIdentity()": {
        "notice": "Returns the address of the UniqueIdentity contract."
      }
    },
    "version": 1
  },
  "storageLayout": {
    "storage": [
      {
        "astId": 14382,
        "contract": "contracts/protocol/core/Go.sol:Go",
        "label": "_roles",
        "offset": 0,
        "slot": "0",
        "type": "t_mapping(t_bytes32,t_struct(RoleData)14377_storage)"
      },
      {
        "astId": 14658,
        "contract": "contracts/protocol/core/Go.sol:Go",
        "label": "__gap",
        "offset": 0,
        "slot": "1",
        "type": "t_array(t_uint256)49_storage"
      },
      {
        "astId": 13497,
        "contract": "contracts/protocol/core/Go.sol:Go",
        "label": "pauser",
        "offset": 0,
        "slot": "50",
        "type": "t_contract(IPauser)11255"
      },
      {
        "astId": 13559,
        "contract": "contracts/protocol/core/Go.sol:Go",
        "label": "__gap",
        "offset": 0,
        "slot": "51",
        "type": "t_array(t_uint256)100_storage"
      },
      {
        "astId": 12490,
        "contract": "contracts/protocol/core/Go.sol:Go",
        "label": "__gap1",
        "offset": 0,
        "slot": "151",
        "type": "t_array(t_uint256)50_storage"
      },
      {
        "astId": 12494,
        "contract": "contracts/protocol/core/Go.sol:Go",
        "label": "__gap2",
        "offset": 0,
        "slot": "201",
        "type": "t_array(t_uint256)50_storage"
      },
      {
        "astId": 12498,
        "contract": "contracts/protocol/core/Go.sol:Go",
        "label": "__gap3",
        "offset": 0,
        "slot": "251",
        "type": "t_array(t_uint256)50_storage"
      },
      {
        "astId": 12502,
        "contract": "contracts/protocol/core/Go.sol:Go",
        "label": "__gap4",
        "offset": 0,
        "slot": "301",
        "type": "t_array(t_uint256)50_storage"
      },
      {
        "astId": 12798,
        "contract": "contracts/protocol/core/Go.sol:Go",
        "label": "uniqueIdentity",
        "offset": 0,
        "slot": "351",
        "type": "t_contract(IUniqueIdentity)11306"
      },
      {
        "astId": 12801,
        "contract": "contracts/protocol/core/Go.sol:Go",
        "label": "config",
        "offset": 0,
        "slot": "352",
        "type": "t_contract(GoldfinchConfig)13448"
      },
      {
        "astId": 12809,
        "contract": "contracts/protocol/core/Go.sol:Go",
        "label": "allIdTypes",
        "offset": 0,
        "slot": "353",
        "type": "t_array(t_uint256)11_storage"
      }
    ],
    "types": {
      "t_address": {
        "encoding": "inplace",
        "label": "address",
        "numberOfBytes": "20"
      },
      "t_array(t_uint256)100_storage": {
        "base": "t_uint256",
        "encoding": "inplace",
        "label": "uint256[100]",
        "numberOfBytes": "3200"
      },
      "t_array(t_uint256)11_storage": {
        "base": "t_uint256",
        "encoding": "inplace",
        "label": "uint256[11]",
        "numberOfBytes": "352"
      },
      "t_array(t_uint256)49_storage": {
        "base": "t_uint256",
        "encoding": "inplace",
        "label": "uint256[49]",
        "numberOfBytes": "1568"
      },
      "t_array(t_uint256)50_storage": {
        "base": "t_uint256",
        "encoding": "inplace",
        "label": "uint256[50]",
        "numberOfBytes": "1600"
      },
      "t_bool": {
        "encoding": "inplace",
        "label": "bool",
        "numberOfBytes": "1"
      },
      "t_bytes32": {
        "encoding": "inplace",
        "label": "bytes32",
        "numberOfBytes": "32"
      },
      "t_contract(GoldfinchConfig)13448": {
        "encoding": "inplace",
        "label": "contract GoldfinchConfig",
        "numberOfBytes": "20"
      },
      "t_contract(IPauser)11255": {
        "encoding": "inplace",
        "label": "contract IPauser",
        "numberOfBytes": "20"
      },
      "t_contract(IUniqueIdentity)11306": {
        "encoding": "inplace",
        "label": "contract IUniqueIdentity",
        "numberOfBytes": "20"
      },
      "t_mapping(t_address,t_bool)": {
        "encoding": "mapping",
        "key": "t_address",
        "label": "mapping(address => bool)",
        "numberOfBytes": "32",
        "value": "t_bool"
      },
      "t_mapping(t_bytes32,t_struct(RoleData)14377_storage)": {
        "encoding": "mapping",
        "key": "t_bytes32",
        "label": "mapping(bytes32 => struct AccessControlUpgradeable.RoleData)",
        "numberOfBytes": "32",
        "value": "t_struct(RoleData)14377_storage"
      },
      "t_struct(RoleData)14377_storage": {
        "encoding": "inplace",
        "label": "struct AccessControlUpgradeable.RoleData",
        "members": [
          {
            "astId": 14374,
            "contract": "contracts/protocol/core/Go.sol:Go",
            "label": "members",
            "offset": 0,
            "slot": "0",
            "type": "t_mapping(t_address,t_bool)"
          },
          {
            "astId": 14376,
            "contract": "contracts/protocol/core/Go.sol:Go",
            "label": "adminRole",
            "offset": 0,
            "slot": "1",
            "type": "t_bytes32"
          }
        ],
        "numberOfBytes": "64"
      },
      "t_uint256": {
        "encoding": "inplace",
        "label": "uint256",
        "numberOfBytes": "32"
      }
    }
  }
}