{
  "address": "0x0f5D1ef48f12b6f691401bfe88c2037c690a6afe",
  "abi": [
    {
      "anonymous": false,
      "inputs": [
        {
          "indexed": true,
          "internalType": "address",
          "name": "borrower",
          "type": "address"
        },
        {
          "indexed": true,
          "internalType": "address",
          "name": "creditLine",
          "type": "address"
        }
      ],
      "name": "CreditLineCreated",
      "type": "event"
    },
    {
      "anonymous": false,
      "inputs": [
        {
          "indexed": true,
          "internalType": "address",
          "name": "borrower",
          "type": "address"
        },
        {
          "indexed": true,
          "internalType": "address",
          "name": "creditLine",
          "type": "address"
        },
        {
          "indexed": false,
          "internalType": "uint256",
          "name": "drawdownAmount",
          "type": "uint256"
        }
      ],
      "name": "DrawdownMade",
      "type": "event"
    },
    {
      "anonymous": false,
      "inputs": [
        {
          "indexed": true,
          "internalType": "address",
          "name": "underwriter",
          "type": "address"
        },
        {
          "indexed": false,
          "internalType": "uint256",
          "name": "newLimit",
          "type": "uint256"
        }
      ],
      "name": "GovernanceUpdatedUnderwriterLimit",
      "type": "event"
    },
    {
      "anonymous": false,
      "inputs": [
        {
          "indexed": false,
          "internalType": "address",
          "name": "account",
          "type": "address"
        }
      ],
      "name": "Paused",
      "type": "event"
    },
    {
      "anonymous": false,
      "inputs": [
        {
          "indexed": true,
          "internalType": "address",
          "name": "payer",
          "type": "address"
        },
        {
          "indexed": true,
          "internalType": "address",
          "name": "creditLine",
          "type": "address"
        },
        {
          "indexed": false,
          "internalType": "uint256",
          "name": "interestAmount",
          "type": "uint256"
        },
        {
          "indexed": false,
          "internalType": "uint256",
          "name": "principalAmount",
          "type": "uint256"
        },
        {
          "indexed": false,
          "internalType": "uint256",
          "name": "remainingAmount",
          "type": "uint256"
        }
      ],
      "name": "PaymentApplied",
      "type": "event"
    },
    {
      "anonymous": false,
      "inputs": [
        {
          "indexed": true,
          "internalType": "address",
          "name": "payer",
          "type": "address"
        },
        {
          "indexed": true,
          "internalType": "address",
          "name": "creditLine",
          "type": "address"
        },
        {
          "indexed": false,
          "internalType": "uint256",
          "name": "paymentAmount",
          "type": "uint256"
        }
      ],
      "name": "PaymentCollected",
      "type": "event"
    },
    {
      "anonymous": false,
      "inputs": [
        {
          "indexed": true,
          "internalType": "bytes32",
          "name": "role",
          "type": "bytes32"
        },
        {
          "indexed": true,
          "internalType": "address",
          "name": "account",
          "type": "address"
        },
        {
          "indexed": true,
          "internalType": "address",
          "name": "sender",
          "type": "address"
        }
      ],
      "name": "RoleGranted",
      "type": "event"
    },
    {
      "anonymous": false,
      "inputs": [
        {
          "indexed": true,
          "internalType": "bytes32",
          "name": "role",
          "type": "bytes32"
        },
        {
          "indexed": true,
          "internalType": "address",
          "name": "account",
          "type": "address"
        },
        {
          "indexed": true,
          "internalType": "address",
          "name": "sender",
          "type": "address"
        }
      ],
      "name": "RoleRevoked",
      "type": "event"
    },
    {
      "anonymous": false,
      "inputs": [
        {
          "indexed": false,
          "internalType": "address",
          "name": "account",
          "type": "address"
        }
      ],
      "name": "Unpaused",
      "type": "event"
    },
    {
      "inputs": [],
      "name": "BLOCKS_PER_DAY",
      "outputs": [
        {
          "internalType": "uint256",
          "name": "",
          "type": "uint256"
        }
      ],
      "stateMutability": "view",
      "type": "function"
    },
    {
      "inputs": [],
      "name": "DEFAULT_ADMIN_ROLE",
      "outputs": [
        {
          "internalType": "bytes32",
          "name": "",
          "type": "bytes32"
        }
      ],
      "stateMutability": "view",
      "type": "function"
    },
    {
      "inputs": [],
      "name": "OWNER_ROLE",
      "outputs": [
        {
          "internalType": "bytes32",
          "name": "",
          "type": "bytes32"
        }
      ],
      "stateMutability": "view",
      "type": "function"
    },
    {
      "inputs": [],
      "name": "PAUSER_ROLE",
      "outputs": [
        {
          "internalType": "bytes32",
          "name": "",
          "type": "bytes32"
        }
      ],
      "stateMutability": "view",
      "type": "function"
    },
    {
      "inputs": [
        {
          "internalType": "address",
          "name": "owner",
          "type": "address"
        }
      ],
      "name": "__BaseUpgradeablePausable__init",
      "outputs": [],
      "stateMutability": "nonpayable",
      "type": "function"
    },
    {
      "inputs": [],
      "name": "__PauserPausable__init",
      "outputs": [],
      "stateMutability": "nonpayable",
      "type": "function"
    },
    {
      "inputs": [
        {
          "internalType": "address",
          "name": "creditLineAddress",
          "type": "address"
        }
      ],
      "name": "assessCreditLine",
      "outputs": [],
      "stateMutability": "nonpayable",
      "type": "function"
    },
    {
      "inputs": [],
      "name": "config",
      "outputs": [
        {
          "internalType": "contract GoldfinchConfig",
          "name": "",
          "type": "address"
        }
      ],
      "stateMutability": "view",
      "type": "function"
    },
    {
      "inputs": [
        {
          "internalType": "address",
          "name": "_borrower",
          "type": "address"
        },
        {
          "internalType": "uint256",
          "name": "_limit",
          "type": "uint256"
        },
        {
          "internalType": "uint256",
          "name": "_interestApr",
          "type": "uint256"
        },
        {
          "internalType": "uint256",
          "name": "_paymentPeriodInDays",
          "type": "uint256"
        },
        {
          "internalType": "uint256",
          "name": "_termInDays",
          "type": "uint256"
        }
      ],
      "name": "createCreditLine",
      "outputs": [],
      "stateMutability": "nonpayable",
      "type": "function"
    },
    {
      "inputs": [
        {
          "internalType": "uint256",
          "name": "amount",
          "type": "uint256"
        },
        {
          "internalType": "address",
          "name": "creditLineAddress",
          "type": "address"
        },
        {
          "internalType": "address",
          "name": "addressToSendTo",
          "type": "address"
        }
      ],
      "name": "drawdown",
      "outputs": [],
      "stateMutability": "nonpayable",
      "type": "function"
    },
    {
      "inputs": [
        {
          "internalType": "address",
          "name": "borrowerAddress",
          "type": "address"
        }
      ],
      "name": "getBorrowerCreditLines",
      "outputs": [
        {
          "internalType": "address[]",
          "name": "",
          "type": "address[]"
        }
      ],
      "stateMutability": "view",
      "type": "function"
    },
    {
      "inputs": [
        {
          "internalType": "bytes32",
          "name": "role",
          "type": "bytes32"
        }
      ],
      "name": "getRoleAdmin",
      "outputs": [
        {
          "internalType": "bytes32",
          "name": "",
          "type": "bytes32"
        }
      ],
      "stateMutability": "view",
      "type": "function"
    },
    {
      "inputs": [
        {
          "internalType": "bytes32",
          "name": "role",
          "type": "bytes32"
        },
        {
          "internalType": "uint256",
          "name": "index",
          "type": "uint256"
        }
      ],
      "name": "getRoleMember",
      "outputs": [
        {
          "internalType": "address",
          "name": "",
          "type": "address"
        }
      ],
      "stateMutability": "view",
      "type": "function"
    },
    {
      "inputs": [
        {
          "internalType": "bytes32",
          "name": "role",
          "type": "bytes32"
        }
      ],
      "name": "getRoleMemberCount",
      "outputs": [
        {
          "internalType": "uint256",
          "name": "",
          "type": "uint256"
        }
      ],
      "stateMutability": "view",
      "type": "function"
    },
    {
      "inputs": [
        {
          "internalType": "address",
          "name": "underwriterAddress",
          "type": "address"
        }
      ],
      "name": "getUnderwriterCreditLines",
      "outputs": [
        {
          "internalType": "address[]",
          "name": "",
          "type": "address[]"
        }
      ],
      "stateMutability": "view",
      "type": "function"
    },
    {
      "inputs": [
        {
          "internalType": "bytes32",
          "name": "role",
          "type": "bytes32"
        },
        {
          "internalType": "address",
          "name": "account",
          "type": "address"
        }
      ],
      "name": "grantRole",
      "outputs": [],
      "stateMutability": "nonpayable",
      "type": "function"
    },
    {
      "inputs": [
        {
          "internalType": "bytes32",
          "name": "role",
          "type": "bytes32"
        },
        {
          "internalType": "address",
          "name": "account",
          "type": "address"
        }
      ],
      "name": "hasRole",
      "outputs": [
        {
          "internalType": "bool",
          "name": "",
          "type": "bool"
        }
      ],
      "stateMutability": "view",
      "type": "function"
    },
    {
      "inputs": [
        {
          "internalType": "address",
          "name": "owner",
          "type": "address"
        },
        {
          "internalType": "contract GoldfinchConfig",
          "name": "_config",
          "type": "address"
        }
      ],
      "name": "initialize",
      "outputs": [],
      "stateMutability": "nonpayable",
      "type": "function"
    },
    {
      "inputs": [],
      "name": "isAdmin",
      "outputs": [
        {
          "internalType": "bool",
          "name": "",
          "type": "bool"
        }
      ],
      "stateMutability": "view",
      "type": "function"
    },
    {
      "inputs": [],
      "name": "pause",
      "outputs": [],
      "stateMutability": "nonpayable",
      "type": "function"
    },
    {
      "inputs": [],
      "name": "paused",
      "outputs": [
        {
          "internalType": "bool",
          "name": "",
          "type": "bool"
        }
      ],
      "stateMutability": "view",
      "type": "function"
    },
    {
      "inputs": [
        {
          "internalType": "address",
          "name": "creditLineAddress",
          "type": "address"
        },
        {
          "internalType": "uint256",
          "name": "amount",
          "type": "uint256"
        }
      ],
      "name": "pay",
      "outputs": [],
      "stateMutability": "nonpayable",
      "type": "function"
    },
    {
      "inputs": [
        {
          "internalType": "bytes32",
          "name": "role",
          "type": "bytes32"
        },
        {
          "internalType": "address",
          "name": "account",
          "type": "address"
        }
      ],
      "name": "renounceRole",
      "outputs": [],
      "stateMutability": "nonpayable",
      "type": "function"
    },
    {
      "inputs": [
        {
          "internalType": "bytes32",
          "name": "role",
          "type": "bytes32"
        },
        {
          "internalType": "address",
          "name": "account",
          "type": "address"
        }
      ],
      "name": "revokeRole",
      "outputs": [],
      "stateMutability": "nonpayable",
      "type": "function"
    },
    {
      "inputs": [
        {
          "internalType": "address",
          "name": "underwriterAddress",
          "type": "address"
        },
        {
          "internalType": "uint256",
          "name": "limit",
          "type": "uint256"
        }
      ],
      "name": "setUnderwriterGovernanceLimit",
      "outputs": [],
      "stateMutability": "nonpayable",
      "type": "function"
    },
    {
      "inputs": [],
      "name": "totalLoansOutstanding",
      "outputs": [
        {
          "internalType": "uint256",
          "name": "",
          "type": "uint256"
        }
      ],
      "stateMutability": "view",
      "type": "function"
    },
    {
      "inputs": [],
      "name": "totalWritedowns",
      "outputs": [
        {
          "internalType": "uint256",
          "name": "",
          "type": "uint256"
        }
      ],
      "stateMutability": "view",
      "type": "function"
    },
    {
      "inputs": [
        {
          "internalType": "address",
          "name": "",
          "type": "address"
        }
      ],
      "name": "underwriters",
      "outputs": [
        {
          "internalType": "uint256",
          "name": "governanceLimit",
          "type": "uint256"
        }
      ],
      "stateMutability": "view",
      "type": "function"
    },
    {
      "inputs": [],
      "name": "unpause",
      "outputs": [],
      "stateMutability": "nonpayable",
      "type": "function"
    }
  ],
  "transactionHash": "0x606f3d533e085d8a4378d27e94f6e0b5171ca8c5dcc09c30144a1825e354c52a",
  "args": [],
  "solcInputHash": "f035dfdd6f284f8e92c5122fe6dc3e4d",
  "bytecode": "0x608060405234801561001057600080fd5b50613f7c806100206000396000f3fe608060405234801561001057600080fd5b50600436106101cf5760003560e01c80638456cb5911610104578063c4076876116100a2578063e63ab1e911610071578063e63ab1e914610380578063e6a0452314610388578063ed80c8501461039b578063f5c7e0e2146103a3576101cf565b8063c40768761461033f578063ca15c87314610352578063d547741f14610365578063e58378bb14610378576101cf565b8063a217fddf116100de578063a217fddf14610314578063a6f4487e1461031c578063b6db75a014610324578063c26ff9361461032c576101cf565b80638456cb59146102e65780639010d07c146102ee57806391d1485414610301576101cf565b806351d33a57116101715780636bb987fe1161014b5780636bb987fe1461029657806379502c551461029e5780637d533642146102b3578063844a28c3146102c6576101cf565b806351d33a5714610266578063526d81f6146102795780635c975abb14610281576101cf565b80632f2ff15d116101ad5780632f2ff15d1461022557806336568abe146102385780633f4ba83a1461024b578063485cc95514610253576101cf565b8063097616a3146101d45780630e4645ef146101e9578063248a9ca3146101fc575b600080fd5b6101e76101e2366004613434565b6103b6565b005b6101e76101f73660046134a4565b6104ec565b61020f61020a366004613532565b6105bc565b60405161021c91906137c4565b60405180910390f35b6101e761023336600461354a565b6105d4565b6101e761024636600461354a565b610618565b6101e761065a565b6101e761026136600461346c565b61069f565b6101e76102743660046135fe565b610749565b6101e7610baf565b610289610c3a565b60405161021c91906137b9565b61020f610c43565b6102a6610c49565b60405161021c91906136da565b61020f6102c1366004613434565b610c59565b6102d96102d4366004613434565b610c6c565b60405161021c919061376c565b6101e7610d0a565b6102a66102fc36600461356e565b610d3d565b61028961030f36600461354a565b610d64565b61020f610d82565b61020f610d87565b610289610d8e565b6102d961033a366004613434565b610da4565b6101e761034d3660046134a4565b610e3d565b61020f610360366004613532565b610f54565b6101e761037336600461354a565b610f6b565b61020f610fa5565b61020f610fbc565b6101e76103963660046134cf565b610fc8565b61020f611299565b6101e76103b1366004613434565b6112a0565b600054610100900460ff16806103cf57506103cf611401565b806103dd575060005460ff16155b6104025760405162461bcd60e51b81526004016103f990613c4c565b60405180910390fd5b600054610100900460ff1615801561042d576000805460ff1961ff0019909116610100171660011790555b6001600160a01b0382166104535760405162461bcd60e51b81526004016103f990613b64565b61045b611407565b610463611488565b61046b611514565b61048860405161047a906136c4565b60405180910390208361060e565b61049760405161047a906136ad565b6104c76040516104a6906136ad565b60405180910390206040516104ba906136c4565b60405180910390206115a3565b6104d66040516104a6906136c4565b80156104e8576000805461ff00191690555b5050565b6104f4610d8e565b6105105760405162461bcd60e51b81526004016103f990613e66565b60975460ff16156105335760405162461bcd60e51b81526004016103f990613af2565b6001600160a01b03821660009081526101c660205260409020610555826115b8565b6105715760405162461bcd60e51b81526004016103f990613cd1565b8181556040516001600160a01b038416907f7be5403eca163f383a39c2d1f65a8fee2c9e41e7e6b150f4abfe16eaaf1d9076906105af9085906137c4565b60405180910390a2505050565b6000818152606560205260409020600201545b919050565b6000828152606560205260409020600201546105f29061030f611645565b61060e5760405162461bcd60e51b81526004016103f99061385f565b6104e88282611649565b610620611645565b6001600160a01b0316816001600160a01b0316146106505760405162461bcd60e51b81526004016103f990613eb1565b6104e882826116b8565b610679604051610669906136ad565b604051809103902061030f611645565b6106955760405162461bcd60e51b81526004016103f990613dfa565b61069d611727565b565b600054610100900460ff16806106b857506106b8611401565b806106c6575060005460ff16155b6106e25760405162461bcd60e51b81526004016103f990613c4c565b600054610100900460ff1615801561070d576000805460ff1961ff0019909116610100171660011790555b610716836103b6565b6101c580546001600160a01b0319166001600160a01b0384161790558015610744576000805461ff00191690555b505050565b60975460ff161561076c5760405162461bcd60e51b81526004016103f990613af2565b3360009081526101c760205260409020805483919061079d5760405162461bcd60e51b81526004016103f990613a24565b6001600160a01b0384811660009081526101c86020526040902054166107d55760405162461bcd60e51b81526004016103f990613b99565b600085116107f55760405162461bcd60e51b81526004016103f990613d2e565b336001600160a01b0316826001600160a01b0316637df1f1b96040518163ffffffff1660e01b815260040160206040518083038186803b15801561083857600080fd5b505afa15801561084c573d6000803e3d6000fd5b505050506040513d601f19601f820116820180604052508101906108709190613450565b6001600160a01b0316146108965760405162461bcd60e51b81526004016103f990613bc6565b61089f85611793565b6108bb5760405162461bcd60e51b81526004016103f990613b1c565b6108c585836117ae565b6108e15760405162461bcd60e51b81526004016103f990613d65565b6108ea82611867565b156109075760405162461bcd60e51b81526004016103f9906138dc565b6001600160a01b038316610919573392505b816001600160a01b031663b69ef8a86040518163ffffffff1660e01b815260040160206040518083038186803b15801561095257600080fd5b505afa158015610966573d6000803e3d6000fd5b505050506040513d601f19601f8201168201806040525081019061098a91906135e6565b6109ed576040516327e7b26360e01b81526001600160a01b038316906327e7b263906109ba9043906004016137c4565b600060405180830381600087803b1580156109d457600080fd5b505af11580156109e8573d6000803e3d6000fd5b505050505b6000806109fa844361192b565b915091506000610a8188866001600160a01b031663b69ef8a86040518163ffffffff1660e01b815260040160206040518083038186803b158015610a3d57600080fd5b505afa158015610a51573d6000803e3d6000fd5b505050506040513d601f19601f82011682018060405250810190610a7591906135e6565b9063ffffffff611a4416565b9050610a8f85828585611a69565b846001600160a01b0316336001600160a01b03167f7ec4669c579321a5cf5a6b525637eb0924a93e2e11eab9d14be8b44de1116b1b8a604051610ad291906137c4565b60405180910390a36101c554600090610af3906001600160a01b0316611cfe565b6101c5546001600160a01b03918216916323b872dd91610b139116611d05565b898c6040518463ffffffff1660e01b8152600401610b33939291906136ee565b602060405180830381600087803b158015610b4d57600080fd5b505af1158015610b61573d6000803e3d6000fd5b505050506040513d601f19601f82011682018060405250810190610b859190613512565b905080610ba45760405162461bcd60e51b81526004016103f9906139aa565b505050505050505050565b600054610100900460ff1680610bc85750610bc8611401565b80610bd6575060005460ff16155b610bf25760405162461bcd60e51b81526004016103f990613c4c565b600054610100900460ff16158015610c1d576000805460ff1961ff0019909116610100171660011790555b610c25611488565b8015610c37576000805461ff00191690555b50565b60975460ff1690565b61168081565b6101c5546001600160a01b031681565b6101c66020526000908152604090205481565b60975460609060ff1615610c925760405162461bcd60e51b81526004016103f990613af2565b6001600160a01b03821660009081526101c6602090815260409182902060010180548351818402810184019094528084529091830182828015610cfe57602002820191906000526020600020905b81546001600160a01b03168152600190910190602001808311610ce0575b50505050509050919050565b610d19604051610669906136ad565b610d355760405162461bcd60e51b81526004016103f990613abb565b61069d611d84565b6000828152606560205260408120610d5b908363ffffffff611ddd16565b90505b92915050565b6000828152606560205260408120610d5b908363ffffffff611de916565b600081565b6101c35481565b6000610d9f604051610669906136c4565b905090565b60975460609060ff1615610dca5760405162461bcd60e51b81526004016103f990613af2565b6001600160a01b03821660009081526101c7602090815260409182902080548351818402810184019094528084529091830182828015610cfe576020028201919060005260206000209081546001600160a01b03168152600190910190602001808311610ce05750505050509050919050565b60975460ff1615610e605760405162461bcd60e51b81526004016103f990613af2565b6001600160a01b0382811660009081526101c8602052604090205416610e985760405162461bcd60e51b81526004016103f990613b99565b60008111610eb85760405162461bcd60e51b81526004016103f990613dc3565b81610ec38183611dfe565b806001600160a01b031663500b245e6040518163ffffffff1660e01b815260040160206040518083038186803b158015610efc57600080fd5b505afa158015610f10573d6000803e3d6000fd5b505050506040513d601f19601f82011682018060405250810190610f3491906135e6565b431015610f4157506104e8565b61074481610f4e83611fd8565b4361206c565b6000818152606560205260408120610d5e9061225c565b600082815260656020526040902060020154610f899061030f611645565b6106505760405162461bcd60e51b81526004016103f990613a6b565b604051610fb1906136c4565b604051809103902081565b604051610fb1906136ad565b60975460ff1615610feb5760405162461bcd60e51b81526004016103f990613af2565b3360009081526101c6602090815260408083206001600160a01b03891684526101c790925290912061101d8683612267565b6110395760405162461bcd60e51b81526004016103f9906139d6565b6060308833898989896040516024016110589796959493929190613712565b60408051601f198184030181529190526020810180516001600160e01b0316630568cad960e31b1790529050600061108e612295565b6001600160a01b0316639390bce0836040518263ffffffff1660e01b81526004016110b991906137e4565b602060405180830381600087803b1580156110d357600080fd5b505af11580156110e7573d6000803e3d6000fd5b505050506040513d601f19601f8201168201806040525081019061110b9190613450565b6001808601805480830182556000918252602080832090910180546001600160a01b038087166001600160a01b0319928316811790935589549586018a5589855283852090950180548216831790558184526101c89092526040808420805490931682179092559051939450849390928d16917fc1d7685016f2246662e70fe17df916e959813e9ab93d50c4f039c0c069c5f37191a3806001600160a01b0316632f2ff15d6040516111bc906136c4565b6040519081900390206101c5546111db906001600160a01b0316612318565b6040518363ffffffff1660e01b81526004016111f89291906137cd565b600060405180830381600087803b15801561121257600080fd5b505af1158015611226573d6000803e3d6000fd5b50506101c55460405163182cdbe360e11b81526001600160a01b038086169450633059b7c6935061125b9216906004016136da565b600060405180830381600087803b15801561127557600080fd5b505af1158015611289573d6000803e3d6000fd5b5050505050505050505050505050565b6101c45481565b60975460ff16156112c35760405162461bcd60e51b81526004016103f990613af2565b6001600160a01b0381811660009081526101c86020526040902054166112fb5760405162461bcd60e51b81526004016103f990613b99565b6000819050806001600160a01b031663500b245e6040518163ffffffff1660e01b815260040160206040518083038186803b15801561133957600080fd5b505afa15801561134d573d6000803e3d6000fd5b505050506040513d601f19601f8201168201806040525081019061137191906135e6565b43101561137e5750610c37565b6104e88161138b83611fd8565b836001600160a01b031663500b245e6040518163ffffffff1660e01b815260040160206040518083038186803b1580156113c457600080fd5b505afa1580156113d8573d6000803e3d6000fd5b505050506040513d601f19601f820116820180604052508101906113fc91906135e6565b61206c565b303b1590565b600054610100900460ff16806114205750611420611401565b8061142e575060005460ff16155b61144a5760405162461bcd60e51b81526004016103f990613c4c565b600054610100900460ff16158015610c25576000805460ff1961ff0019909116610100171660011790558015610c37576000805461ff001916905550565b600054610100900460ff16806114a157506114a1611401565b806114af575060005460ff16155b6114cb5760405162461bcd60e51b81526004016103f990613c4c565b600054610100900460ff161580156114f6576000805460ff1961ff0019909116610100171660011790555b6097805460ff191690558015610c37576000805461ff001916905550565b600054610100900460ff168061152d575061152d611401565b8061153b575060005460ff16155b6115575760405162461bcd60e51b81526004016103f990613c4c565b600054610100900460ff16158015611582576000805460ff1961ff0019909116610100171660011790555b60c9805460ff191660011790558015610c37576000805461ff001916905550565b60009182526065602052604090912060020155565b6101c5546000906001600160a01b031663fc56365860025b6040518263ffffffff1660e01b81526004016115ec91906137c4565b60206040518083038186803b15801561160457600080fd5b505afa158015611618573d6000803e3d6000fd5b505050506040513d601f19601f8201168201806040525081019061163c91906135e6565b90911115919050565b3390565b6000828152606560205260409020611667908263ffffffff61233016565b156104e857611674611645565b6001600160a01b0316816001600160a01b0316837f2f8788117e7eff1d82e926ec794901d17c78024a50270940304540a733656f0d60405160405180910390a45050565b60008281526065602052604090206116d6908263ffffffff61234516565b156104e8576116e3611645565b6001600160a01b0316816001600160a01b0316837ff6391f5c32d9c69d2a47ea670b442974b53935d1edc7fd64eb21e047a839171b60405160405180910390a45050565b60975460ff166117495760405162461bcd60e51b81526004016103f9906138ae565b6097805460ff191690557f5db9ee0a495bf2e6ff9c91a7834c1ba4fdd244a5e8aa4e537bd38aeae4b073aa61177c611645565b60405161178991906136da565b60405180910390a1565b6101c5546000906001600160a01b031663fc563658826115d0565b6000816001600160a01b031663a4d66daf6040518163ffffffff1660e01b815260040160206040518083038186803b1580156117e957600080fd5b505afa1580156117fd573d6000803e3d6000fd5b505050506040513d601f19601f8201168201806040525081019061182191906135e6565b61185e84846001600160a01b031663b69ef8a86040518163ffffffff1660e01b815260040160206040518083038186803b158015610a3d57600080fd5b11159392505050565b600080600073959922bE3CAee4b8Cd9a407cc3ac1C251C2007B163ca573568854360006118b26101c560009054906101000a90046001600160a01b03166001600160a01b031661235a565b6040518563ffffffff1660e01b81526004016118d194939291906137f7565b604080518083038186803b1580156118e857600080fd5b505af41580156118fc573d6000803e3d6000fd5b505050506040513d601f19601f82011682018060405250810190611920919061363f565b501515949350505050565b60008060008073959922bE3CAee4b8Cd9a407cc3ac1C251C2007B1634678497187876040518363ffffffff1660e01b815260040161196a929190613753565b604080518083038186803b15801561198157600080fd5b505af4158015611995573d6000803e3d6000fd5b505050506040513d601f19601f820116820180604052508101906119b9919061363f565b915091506119fa82876001600160a01b03166321856b366040518163ffffffff1660e01b815260040160206040518083038186803b158015610a3d57600080fd5b611a3782886001600160a01b031663193501146040518163ffffffff1660e01b815260040160206040518083038186803b158015610a3d57600080fd5b9350935050509250929050565b600082820183811015610d5b5760405162461bcd60e51b81526004016103f990613973565b60c95460ff16611a8b5760405162461bcd60e51b81526004016103f990613e2f565b60c9805460ff19169055611a9e8461238a565b604051637d8b34e560e11b81526001600160a01b0385169063fb1669ca90611aca9086906004016137c4565b600060405180830381600087803b158015611ae457600080fd5b505af1158015611af8573d6000803e3d6000fd5b50506040516396c8df3760e01b81526001600160a01b03871692506396c8df379150611b289085906004016137c4565b600060405180830381600087803b158015611b4257600080fd5b505af1158015611b56573d6000803e3d6000fd5b505060405163b3b8a9c760e01b81526001600160a01b038716925063b3b8a9c79150611b869084906004016137c4565b600060405180830381600087803b158015611ba057600080fd5b505af1158015611bb4573d6000803e3d6000fd5b50506040516327e7b26360e01b81526001600160a01b03871692506327e7b2639150611be49043906004016137c4565b600060405180830381600087803b158015611bfe57600080fd5b505af1158015611c12573d6000803e3d6000fd5b50505050611c1f84612415565b836001600160a01b031663fb9eb990611c3786612499565b6040518263ffffffff1660e01b8152600401611c5391906137c4565b600060405180830381600087803b158015611c6d57600080fd5b505af1158015611c81573d6000803e3d6000fd5b50505050836001600160a01b0316637957dda3611c9d8661269b565b6040518263ffffffff1660e01b8152600401611cb991906137c4565b600060405180830381600087803b158015611cd357600080fd5b505af1158015611ce7573d6000803e3d6000fd5b505060c9805460ff19166001179055505050505050565b6000610d5e825b60006001600160a01b03821663b93f9b0a825b6040518263ffffffff1660e01b8152600401611d3491906137c4565b60206040518083038186803b158015611d4c57600080fd5b505afa158015611d60573d6000803e3d6000fd5b505050506040513d601f19601f82011682018060405250810190610d5e9190613450565b60975460ff1615611da75760405162461bcd60e51b81526004016103f990613af2565b6097805460ff191660011790557f62e78cea01bee320cd4e420270b5ea74000d11b0c9f74754ebdbfc544b05a25861177c611645565b6000610d5b8383612bca565b6000610d5b836001600160a01b038416612c0f565b611e0781611793565b611e235760405162461bcd60e51b81526004016103f990613b1c565b6101c5548190611e3b906001600160a01b0316612c27565b6001600160a01b03166370a08231336040518263ffffffff1660e01b8152600401611e6691906136da565b60206040518083038186803b158015611e7e57600080fd5b505afa158015611e92573d6000803e3d6000fd5b505050506040513d601f19601f82011682018060405250810190611eb691906135e6565b1015611ed45760405162461bcd60e51b81526004016103f990613926565b816001600160a01b0316336001600160a01b03167fc4036209c61f1d5aad789d2b8fa9ca23bf8b1516748d2e0be7227bf3fce67d2d83604051611f1791906137c4565b60405180910390a36101c554600090611f38906001600160a01b0316611cfe565b6001600160a01b03166323b872dd3385856040518463ffffffff1660e01b8152600401611f67939291906136ee565b602060405180830381600087803b158015611f8157600080fd5b505af1158015611f95573d6000803e3d6000fd5b505050506040513d601f19601f82011682018060405250810190611fb99190613512565b9050806107445760405162461bcd60e51b81526004016103f990613c9a565b6101c554600090611ff1906001600160a01b0316612c27565b6001600160a01b03166370a08231836040518263ffffffff1660e01b815260040161201c91906136da565b60206040518083038186803b15801561203457600080fd5b505afa158015612048573d6000803e3d6000fd5b505050506040513d601f19601f82011682018060405250810190610d5e91906135e6565b600080600061207c868686612c3f565b92509250925061208b86612ecc565b6000821561210d57506101c5546001906120ad906001600160a01b0316611cfe565b6001600160a01b03166364de8a0788856040518363ffffffff1660e01b81526004016120da929190613753565b600060405180830381600087803b1580156120f457600080fd5b505af1158015612108573d6000803e3d6000fd5b505050505b811561218d57506101c55460019061212d906001600160a01b0316611cfe565b6001600160a01b031663bcfa41ba88846040518363ffffffff1660e01b815260040161215a929190613753565b600060405180830381600087803b15801561217457600080fd5b505af1158015612188573d6000803e3d6000fd5b505050505b801561225357866001600160a01b0316876001600160a01b0316637df1f1b96040518163ffffffff1660e01b815260040160206040518083038186803b1580156121d657600080fd5b505afa1580156121ea573d6000803e3d6000fd5b505050506040513d601f19601f8201168201806040525081019061220e9190613450565b6001600160a01b03167f724fe786cff62c97ff230e98a332f95c5a11990e44123a00c2b8e76b0566e41185858860405161224a93929190613f00565b60405180910390a35b50505050505050565b6000610d5e8261316a565b6000806122738361316e565b90506000612287828663ffffffff611a4416565b845410159250505092915050565b6101c554604051635c9fcd8560e11b81526000916001600160a01b03169063b93f9b0a906122c8906002906004016137c4565b60206040518083038186803b1580156122e057600080fd5b505afa1580156122f4573d6000803e3d6000fd5b505050506040513d601f19601f82011682018060405250810190610d9f9190613450565b60006001600160a01b03821663b93f9b0a6007611d18565b6000610d5b836001600160a01b038416613243565b6000610d5b836001600160a01b03841661328d565b60006001600160a01b03821663fc56365860065b6040518263ffffffff1660e01b815260040161201c91906137c4565b61240e816001600160a01b031663b69ef8a86040518163ffffffff1660e01b815260040160206040518083038186803b1580156123c657600080fd5b505afa1580156123da573d6000803e3d6000fd5b505050506040513d601f19601f820116820180604052508101906123fe91906135e6565b6101c4549063ffffffff61335316565b6101c45550565b61240e816001600160a01b031663b69ef8a86040518163ffffffff1660e01b815260040160206040518083038186803b15801561245157600080fd5b505afa158015612465573d6000803e3d6000fd5b505050506040513d601f19601f8201168201806040525081019061248991906135e6565b6101c4549063ffffffff611a4416565b600080826001600160a01b031663b69ef8a86040518163ffffffff1660e01b815260040160206040518083038186803b1580156124d557600080fd5b505afa1580156124e9573d6000803e3d6000fd5b505050506040513d601f19601f8201168201806040525081019061250d91906135e6565b1161251a575060006105cf565b816001600160a01b0316631790ebd56040518163ffffffff1660e01b815260040160206040518083038186803b15801561255357600080fd5b505afa158015612567573d6000803e3d6000fd5b505050506040513d601f19601f8201168201806040525081019061258b91906135e6565b1561260857816001600160a01b0316631790ebd56040518163ffffffff1660e01b815260040160206040518083038186803b1580156125c957600080fd5b505afa1580156125dd573d6000803e3d6000fd5b505050506040513d601f19601f8201168201806040525081019061260191906135e6565b90506105cf565b610d5e61268e836001600160a01b03166348e6f2966040518163ffffffff1660e01b815260040160206040518083038186803b15801561264757600080fd5b505afa15801561265b573d6000803e3d6000fd5b505050506040513d601f19601f8201168201806040525081019061267f91906135e6565b6116809063ffffffff61339516565b439063ffffffff611a4416565b600080612721611680846001600160a01b03166399dd8df36040518163ffffffff1660e01b815260040160206040518083038186803b1580156126dd57600080fd5b505afa1580156126f1573d6000803e3d6000fd5b505050506040513d601f19601f8201168201806040525081019061271591906135e6565b9063ffffffff61339516565b90506000836001600160a01b031663b69ef8a86040518163ffffffff1660e01b815260040160206040518083038186803b15801561275e57600080fd5b505afa158015612772573d6000803e3d6000fd5b505050506040513d601f19601f8201168201806040525081019061279691906135e6565b111580156128135750826001600160a01b031663500b245e6040518163ffffffff1660e01b815260040160206040518083038186803b1580156127d857600080fd5b505afa1580156127ec573d6000803e3d6000fd5b505050506040513d601f19601f8201168201806040525081019061281091906135e6565b15155b156128225760009150506105cf565b826001600160a01b031663500b245e6040518163ffffffff1660e01b815260040160206040518083038186803b15801561285b57600080fd5b505afa15801561286f573d6000803e3d6000fd5b505050506040513d601f19601f8201168201806040525081019061289391906135e6565b15801561291057506000836001600160a01b031663b69ef8a86040518163ffffffff1660e01b815260040160206040518083038186803b1580156128d657600080fd5b505afa1580156128ea573d6000803e3d6000fd5b505050506040513d601f19601f8201168201806040525081019061290e91906135e6565b115b1561292d57612925438263ffffffff611a4416565b9150506105cf565b6000836001600160a01b031663b69ef8a86040518163ffffffff1660e01b815260040160206040518083038186803b15801561296857600080fd5b505afa15801561297c573d6000803e3d6000fd5b505050506040513d601f19601f820116820180604052508101906129a091906135e6565b118015612a1d5750826001600160a01b031663500b245e6040518163ffffffff1660e01b815260040160206040518083038186803b1580156129e157600080fd5b505afa1580156129f5573d6000803e3d6000fd5b505050506040513d601f19601f82011682018060405250810190612a1991906135e6565b4310155b15612a5f5761292581846001600160a01b031663500b245e6040518163ffffffff1660e01b815260040160206040518083038186803b158015610a3d57600080fd5b6000836001600160a01b031663b69ef8a86040518163ffffffff1660e01b815260040160206040518083038186803b158015612a9a57600080fd5b505afa158015612aae573d6000803e3d6000fd5b505050506040513d601f19601f82011682018060405250810190612ad291906135e6565b118015612b4e5750826001600160a01b031663500b245e6040518163ffffffff1660e01b815260040160206040518083038186803b158015612b1357600080fd5b505afa158015612b27573d6000803e3d6000fd5b505050506040513d601f19601f82011682018060405250810190612b4b91906135e6565b43105b15612bc457826001600160a01b031663500b245e6040518163ffffffff1660e01b815260040160206040518083038186803b158015612b8c57600080fd5b505afa158015612ba0573d6000803e3d6000fd5b505050506040513d601f19601f8201168201806040525081019061292591906135e6565b50919050565b81546000908210612bed5760405162461bcd60e51b81526004016103f99061381d565b826000018281548110612bfc57fe5b9060005260206000200154905092915050565b60009081526001919091016020526040902054151590565b60006001600160a01b03821663b93f9b0a6005611d18565b6000806000806000612c51888761192b565b91509150612c5d613413565b73959922bE3CAee4b8Cd9a407cc3ac1C251C2007B163d7cc2a03898b6001600160a01b031663b69ef8a86040518163ffffffff1660e01b815260040160206040518083038186803b158015612cb157600080fd5b505afa158015612cc5573d6000803e3d6000fd5b505050506040513d601f19601f82011682018060405250810190612ce991906135e6565b86866040518563ffffffff1660e01b8152600401612d0a9493929190613f16565b60606040518083038186803b158015612d2257600080fd5b505af4158015612d36573d6000803e3d6000fd5b505050506040513d601f19601f82011682018060405250810190612d5a919061358f565b90506000612de382602001518b6001600160a01b031663b69ef8a86040518163ffffffff1660e01b815260040160206040518083038186803b158015612d9f57600080fd5b505afa158015612db3573d6000803e3d6000fd5b505050506040513d601f19601f82011682018060405250810190612dd791906135e6565b9063ffffffff61335316565b9050612dfc82604001518261335390919063ffffffff16565b90506000612e3d828c6001600160a01b031663b69ef8a86040518163ffffffff1660e01b815260040160206040518083038186803b158015612d9f57600080fd5b90506000612e5c82612dd786600001518e61335390919063ffffffff16565b9050612e958c84612e7a87600001518a61335390919063ffffffff16565b6020880151612e90908a9063ffffffff61335316565b611a69565b8a612eb183610a75876000015185611a4490919063ffffffff16565b14612eb857fe5b9251929b929a509850909650505050505050565b6101c554600090819073959922bE3CAee4b8Cd9a407cc3ac1C251C2007B19063ca5735689085904390612f07906001600160a01b03166133cf565b6101c554612f1d906001600160a01b031661235a565b6040518563ffffffff1660e01b8152600401612f3c94939291906137f7565b604080518083038186803b158015612f5357600080fd5b505af4158015612f67573d6000803e3d6000fd5b505050506040513d601f19601f82011682018060405250810190612f8b919061363f565b9150915081600014801561300d5750826001600160a01b031663cc862de56040518163ffffffff1660e01b815260040160206040518083038186803b158015612fd357600080fd5b505afa158015612fe7573d6000803e3d6000fd5b505050506040513d601f19601f8201168201806040525081019061300b91906135e6565b155b15613019575050610c37565b600081846001600160a01b031663cc862de56040518163ffffffff1660e01b815260040160206040518083038186803b15801561305557600080fd5b505afa158015613069573d6000803e3d6000fd5b505050506040513d601f19601f8201168201806040525081019061308d91906135e6565b039050836001600160a01b0316632771eca8836040518263ffffffff1660e01b81526004016130bc91906137c4565b600060405180830381600087803b1580156130d657600080fd5b505af11580156130ea573d6000803e3d6000fd5b50506101c55461310592506001600160a01b03169050611cfe565b6001600160a01b031663338744bc85836040518363ffffffff1660e01b8152600401613132929190613753565b600060405180830381600087803b15801561314c57600080fd5b505af1158015613160573d6000803e3d6000fd5b5050505050505050565b5490565b600080805b600184015481101561323c57600084600101828154811061319057fe5b9060005260206000200160009054906101000a90046001600160a01b03169050613231816001600160a01b031663a4d66daf6040518163ffffffff1660e01b815260040160206040518083038186803b1580156131ec57600080fd5b505afa158015613200573d6000803e3d6000fd5b505050506040513d601f19601f8201168201806040525081019061322491906135e6565b849063ffffffff611a4416565b925050600101613173565b5092915050565b600061324f8383612c0f565b61328557508154600181810184556000848152602080822090930184905584548482528286019093526040902091909155610d5e565b506000610d5e565b6000818152600183016020526040812054801561334957835460001980830191908101906000908790839081106132c057fe5b90600052602060002001549050808760000184815481106132dd57fe5b60009182526020808320909101929092558281526001898101909252604090209084019055865487908061330d57fe5b60019003818190600052602060002001600090559055866001016000878152602001908152602001600020600090556001945050505050610d5e565b6000915050610d5e565b6000610d5b83836040518060400160405280601e81526020017f536166654d6174683a207375627472616374696f6e206f766572666c6f7700008152506133e7565b6000826133a457506000610d5e565b828202828482816133b157fe5b0414610d5b5760405162461bcd60e51b81526004016103f990613c0b565b60006001600160a01b03821663fc563658600561236e565b6000818484111561340b5760405162461bcd60e51b81526004016103f991906137e4565b505050900390565b60405180606001604052806000815260200160008152602001600081525090565b600060208284031215613445578081fd5b8135610d5b81613f31565b600060208284031215613461578081fd5b8151610d5b81613f31565b6000806040838503121561347e578081fd5b823561348981613f31565b9150602083013561349981613f31565b809150509250929050565b600080604083850312156134b6578182fd5b82356134c181613f31565b946020939093013593505050565b600080600080600060a086880312156134e6578081fd5b85356134f181613f31565b97602087013597506040870135966060810135965060800135945092505050565b600060208284031215613523578081fd5b81518015158114610d5b578182fd5b600060208284031215613543578081fd5b5035919050565b6000806040838503121561355c578182fd5b82359150602083013561349981613f31565b60008060408385031215613580578182fd5b50508035926020909101359150565b6000606082840312156135a0578081fd5b6040516060810181811067ffffffffffffffff821117156135bf578283fd5b80604052508251815260208301516020820152604083015160408201528091505092915050565b6000602082840312156135f7578081fd5b5051919050565b600080600060608486031215613612578283fd5b83359250602084013561362481613f31565b9150604084013561363481613f31565b809150509250925092565b60008060408385031215613651578182fd5b505080516020909101519092909150565b60008151808452815b818110156136875760208185018101518683018201520161366b565b818111156136985782602083870101525b50601f01601f19169290920160200192915050565b6a5041555345525f524f4c4560a81b8152600b0190565b694f574e45525f524f4c4560b01b8152600a0190565b6001600160a01b0391909116815260200190565b6001600160a01b039384168152919092166020820152604081019190915260600190565b6001600160a01b03978816815295871660208701529390951660408501526060840191909152608083015260a082019290925260c081019190915260e00190565b6001600160a01b03929092168252602082015260400190565b6020808252825182820181905260009190848201906040850190845b818110156137ad5783516001600160a01b031683529284019291840191600101613788565b50909695505050505050565b901515815260200190565b90815260200190565b9182526001600160a01b0316602082015260400190565b600060208252610d5b6020830184613662565b6001600160a01b0394909416845260208401929092526040830152606082015260800190565b60208082526022908201527f456e756d657261626c655365743a20696e646578206f7574206f6620626f756e604082015261647360f01b606082015260800190565b6020808252602f908201527f416363657373436f6e74726f6c3a2073656e646572206d75737420626520616e60408201526e0818591b5a5b881d1bc819dc985b9d608a1b606082015260800190565b60208082526014908201527314185d5cd8589b194e881b9bdd081c185d5cd95960621b604082015260600190565b6020808252602a908201527f43616e6e6f742064726177646f776e207768656e207061796d656e74732061726040820152696520706173742064756560b01b606082015260800190565b6020808252602d908201527f596f75206861766520696e737566666963656e742062616c616e636520666f7260408201526c081d1a1a5cc81c185e5b595b9d609a1b606082015260800190565b6020808252601b908201527f536166654d6174683a206164646974696f6e206f766572666c6f770000000000604082015260600190565b6020808252601290820152712330b4b632b2103a3790323930bbb237bbb760711b604082015260600190565b6020808252602e908201527f54686520756e6465727772697465722063616e6e6f742063726561746520746860408201526d697320637265646974206c696e6560901b606082015260800190565b60208082526027908201527f4e6f20637265646974206c696e657320657869737420666f722074686973206260408201526637b93937bbb2b960c91b606082015260800190565b60208082526030908201527f416363657373436f6e74726f6c3a2073656e646572206d75737420626520616e60408201526f2061646d696e20746f207265766f6b6560801b606082015260800190565b6020808252601e908201527f4d75737420686176652070617573657220726f6c6520746f2070617573650000604082015260600190565b60208082526010908201526f14185d5cd8589b194e881c185d5cd95960821b604082015260600190565b60208082526028908201527f416d6f756e74206973206f76657220746865207065722d7472616e73616374696040820152671bdb881b1a5b5a5d60c21b606082015260800190565b6020808252818101527f4f776e65722063616e6e6f7420626520746865207a65726f2061646472657373604082015260600190565b602080825260139082015272556e6b6e6f776e20637265646974206c696e6560681b604082015260600190565b60208082526025908201527f596f7520646f206e6f742062656c6f6e6720746f207468697320637265646974604082015264206c696e6560d81b606082015260800190565b60208082526021908201527f536166654d6174683a206d756c7469706c69636174696f6e206f766572666c6f6040820152607760f81b606082015260800190565b6020808252602e908201527f436f6e747261637420696e7374616e63652068617320616c726561647920626560408201526d195b881a5b9a5d1a585b1a5e995960921b606082015260800190565b60208082526019908201527f4661696c656420746f20636f6c6c656374207061796d656e7400000000000000604082015260600190565b6020808252603a908201527f54686973206c696d69742069732067726561746572207468616e20746865206d60408201527f617820616c6c6f776564206279207468652070726f746f636f6c000000000000606082015260800190565b6020808252601c908201527f4d7573742064726177646f776e206d6f7265207468616e207a65726f00000000604082015260600190565b602080825260409082018190527f54686520626f72726f77657220646f6573206e6f74206861766520656e6f7567908201527f6820637265646974206c696d697420666f7220746869732064726177646f776e606082015260800190565b60208082526017908201527f4d75737420706179206d6f7265207468616e207a65726f000000000000000000604082015260600190565b6020808252818101527f4d75737420686176652070617573657220726f6c6520746f20756e7061757365604082015260600190565b6020808252601f908201527f5265656e7472616e637947756172643a207265656e7472616e742063616c6c00604082015260600190565b6020808252602b908201527f4d75737420686176652061646d696e20726f6c6520746f20706572666f726d2060408201526a3a3434b99030b1ba34b7b760a91b606082015260800190565b6020808252602f908201527f416363657373436f6e74726f6c3a2063616e206f6e6c792072656e6f756e636560408201526e103937b632b9903337b91039b2b63360891b606082015260800190565b9283526020830191909152604082015260600190565b93845260208401929092526040830152606082015260800190565b6001600160a01b0381168114610c3757600080fdfea2646970667358221220cda1bb7d275ef1277ed7772c416950ffad96dd50a8c563cf11534ef263ba7c4b64736f6c63430006080033",
  "deployedBytecode": "0x608060405234801561001057600080fd5b50600436106101cf5760003560e01c80638456cb5911610104578063c4076876116100a2578063e63ab1e911610071578063e63ab1e914610380578063e6a0452314610388578063ed80c8501461039b578063f5c7e0e2146103a3576101cf565b8063c40768761461033f578063ca15c87314610352578063d547741f14610365578063e58378bb14610378576101cf565b8063a217fddf116100de578063a217fddf14610314578063a6f4487e1461031c578063b6db75a014610324578063c26ff9361461032c576101cf565b80638456cb59146102e65780639010d07c146102ee57806391d1485414610301576101cf565b806351d33a57116101715780636bb987fe1161014b5780636bb987fe1461029657806379502c551461029e5780637d533642146102b3578063844a28c3146102c6576101cf565b806351d33a5714610266578063526d81f6146102795780635c975abb14610281576101cf565b80632f2ff15d116101ad5780632f2ff15d1461022557806336568abe146102385780633f4ba83a1461024b578063485cc95514610253576101cf565b8063097616a3146101d45780630e4645ef146101e9578063248a9ca3146101fc575b600080fd5b6101e76101e2366004613434565b6103b6565b005b6101e76101f73660046134a4565b6104ec565b61020f61020a366004613532565b6105bc565b60405161021c91906137c4565b60405180910390f35b6101e761023336600461354a565b6105d4565b6101e761024636600461354a565b610618565b6101e761065a565b6101e761026136600461346c565b61069f565b6101e76102743660046135fe565b610749565b6101e7610baf565b610289610c3a565b60405161021c91906137b9565b61020f610c43565b6102a6610c49565b60405161021c91906136da565b61020f6102c1366004613434565b610c59565b6102d96102d4366004613434565b610c6c565b60405161021c919061376c565b6101e7610d0a565b6102a66102fc36600461356e565b610d3d565b61028961030f36600461354a565b610d64565b61020f610d82565b61020f610d87565b610289610d8e565b6102d961033a366004613434565b610da4565b6101e761034d3660046134a4565b610e3d565b61020f610360366004613532565b610f54565b6101e761037336600461354a565b610f6b565b61020f610fa5565b61020f610fbc565b6101e76103963660046134cf565b610fc8565b61020f611299565b6101e76103b1366004613434565b6112a0565b600054610100900460ff16806103cf57506103cf611401565b806103dd575060005460ff16155b6104025760405162461bcd60e51b81526004016103f990613c4c565b60405180910390fd5b600054610100900460ff1615801561042d576000805460ff1961ff0019909116610100171660011790555b6001600160a01b0382166104535760405162461bcd60e51b81526004016103f990613b64565b61045b611407565b610463611488565b61046b611514565b61048860405161047a906136c4565b60405180910390208361060e565b61049760405161047a906136ad565b6104c76040516104a6906136ad565b60405180910390206040516104ba906136c4565b60405180910390206115a3565b6104d66040516104a6906136c4565b80156104e8576000805461ff00191690555b5050565b6104f4610d8e565b6105105760405162461bcd60e51b81526004016103f990613e66565b60975460ff16156105335760405162461bcd60e51b81526004016103f990613af2565b6001600160a01b03821660009081526101c660205260409020610555826115b8565b6105715760405162461bcd60e51b81526004016103f990613cd1565b8181556040516001600160a01b038416907f7be5403eca163f383a39c2d1f65a8fee2c9e41e7e6b150f4abfe16eaaf1d9076906105af9085906137c4565b60405180910390a2505050565b6000818152606560205260409020600201545b919050565b6000828152606560205260409020600201546105f29061030f611645565b61060e5760405162461bcd60e51b81526004016103f99061385f565b6104e88282611649565b610620611645565b6001600160a01b0316816001600160a01b0316146106505760405162461bcd60e51b81526004016103f990613eb1565b6104e882826116b8565b610679604051610669906136ad565b604051809103902061030f611645565b6106955760405162461bcd60e51b81526004016103f990613dfa565b61069d611727565b565b600054610100900460ff16806106b857506106b8611401565b806106c6575060005460ff16155b6106e25760405162461bcd60e51b81526004016103f990613c4c565b600054610100900460ff1615801561070d576000805460ff1961ff0019909116610100171660011790555b610716836103b6565b6101c580546001600160a01b0319166001600160a01b0384161790558015610744576000805461ff00191690555b505050565b60975460ff161561076c5760405162461bcd60e51b81526004016103f990613af2565b3360009081526101c760205260409020805483919061079d5760405162461bcd60e51b81526004016103f990613a24565b6001600160a01b0384811660009081526101c86020526040902054166107d55760405162461bcd60e51b81526004016103f990613b99565b600085116107f55760405162461bcd60e51b81526004016103f990613d2e565b336001600160a01b0316826001600160a01b0316637df1f1b96040518163ffffffff1660e01b815260040160206040518083038186803b15801561083857600080fd5b505afa15801561084c573d6000803e3d6000fd5b505050506040513d601f19601f820116820180604052508101906108709190613450565b6001600160a01b0316146108965760405162461bcd60e51b81526004016103f990613bc6565b61089f85611793565b6108bb5760405162461bcd60e51b81526004016103f990613b1c565b6108c585836117ae565b6108e15760405162461bcd60e51b81526004016103f990613d65565b6108ea82611867565b156109075760405162461bcd60e51b81526004016103f9906138dc565b6001600160a01b038316610919573392505b816001600160a01b031663b69ef8a86040518163ffffffff1660e01b815260040160206040518083038186803b15801561095257600080fd5b505afa158015610966573d6000803e3d6000fd5b505050506040513d601f19601f8201168201806040525081019061098a91906135e6565b6109ed576040516327e7b26360e01b81526001600160a01b038316906327e7b263906109ba9043906004016137c4565b600060405180830381600087803b1580156109d457600080fd5b505af11580156109e8573d6000803e3d6000fd5b505050505b6000806109fa844361192b565b915091506000610a8188866001600160a01b031663b69ef8a86040518163ffffffff1660e01b815260040160206040518083038186803b158015610a3d57600080fd5b505afa158015610a51573d6000803e3d6000fd5b505050506040513d601f19601f82011682018060405250810190610a7591906135e6565b9063ffffffff611a4416565b9050610a8f85828585611a69565b846001600160a01b0316336001600160a01b03167f7ec4669c579321a5cf5a6b525637eb0924a93e2e11eab9d14be8b44de1116b1b8a604051610ad291906137c4565b60405180910390a36101c554600090610af3906001600160a01b0316611cfe565b6101c5546001600160a01b03918216916323b872dd91610b139116611d05565b898c6040518463ffffffff1660e01b8152600401610b33939291906136ee565b602060405180830381600087803b158015610b4d57600080fd5b505af1158015610b61573d6000803e3d6000fd5b505050506040513d601f19601f82011682018060405250810190610b859190613512565b905080610ba45760405162461bcd60e51b81526004016103f9906139aa565b505050505050505050565b600054610100900460ff1680610bc85750610bc8611401565b80610bd6575060005460ff16155b610bf25760405162461bcd60e51b81526004016103f990613c4c565b600054610100900460ff16158015610c1d576000805460ff1961ff0019909116610100171660011790555b610c25611488565b8015610c37576000805461ff00191690555b50565b60975460ff1690565b61168081565b6101c5546001600160a01b031681565b6101c66020526000908152604090205481565b60975460609060ff1615610c925760405162461bcd60e51b81526004016103f990613af2565b6001600160a01b03821660009081526101c6602090815260409182902060010180548351818402810184019094528084529091830182828015610cfe57602002820191906000526020600020905b81546001600160a01b03168152600190910190602001808311610ce0575b50505050509050919050565b610d19604051610669906136ad565b610d355760405162461bcd60e51b81526004016103f990613abb565b61069d611d84565b6000828152606560205260408120610d5b908363ffffffff611ddd16565b90505b92915050565b6000828152606560205260408120610d5b908363ffffffff611de916565b600081565b6101c35481565b6000610d9f604051610669906136c4565b905090565b60975460609060ff1615610dca5760405162461bcd60e51b81526004016103f990613af2565b6001600160a01b03821660009081526101c7602090815260409182902080548351818402810184019094528084529091830182828015610cfe576020028201919060005260206000209081546001600160a01b03168152600190910190602001808311610ce05750505050509050919050565b60975460ff1615610e605760405162461bcd60e51b81526004016103f990613af2565b6001600160a01b0382811660009081526101c8602052604090205416610e985760405162461bcd60e51b81526004016103f990613b99565b60008111610eb85760405162461bcd60e51b81526004016103f990613dc3565b81610ec38183611dfe565b806001600160a01b031663500b245e6040518163ffffffff1660e01b815260040160206040518083038186803b158015610efc57600080fd5b505afa158015610f10573d6000803e3d6000fd5b505050506040513d601f19601f82011682018060405250810190610f3491906135e6565b431015610f4157506104e8565b61074481610f4e83611fd8565b4361206c565b6000818152606560205260408120610d5e9061225c565b600082815260656020526040902060020154610f899061030f611645565b6106505760405162461bcd60e51b81526004016103f990613a6b565b604051610fb1906136c4565b604051809103902081565b604051610fb1906136ad565b60975460ff1615610feb5760405162461bcd60e51b81526004016103f990613af2565b3360009081526101c6602090815260408083206001600160a01b03891684526101c790925290912061101d8683612267565b6110395760405162461bcd60e51b81526004016103f9906139d6565b6060308833898989896040516024016110589796959493929190613712565b60408051601f198184030181529190526020810180516001600160e01b0316630568cad960e31b1790529050600061108e612295565b6001600160a01b0316639390bce0836040518263ffffffff1660e01b81526004016110b991906137e4565b602060405180830381600087803b1580156110d357600080fd5b505af11580156110e7573d6000803e3d6000fd5b505050506040513d601f19601f8201168201806040525081019061110b9190613450565b6001808601805480830182556000918252602080832090910180546001600160a01b038087166001600160a01b0319928316811790935589549586018a5589855283852090950180548216831790558184526101c89092526040808420805490931682179092559051939450849390928d16917fc1d7685016f2246662e70fe17df916e959813e9ab93d50c4f039c0c069c5f37191a3806001600160a01b0316632f2ff15d6040516111bc906136c4565b6040519081900390206101c5546111db906001600160a01b0316612318565b6040518363ffffffff1660e01b81526004016111f89291906137cd565b600060405180830381600087803b15801561121257600080fd5b505af1158015611226573d6000803e3d6000fd5b50506101c55460405163182cdbe360e11b81526001600160a01b038086169450633059b7c6935061125b9216906004016136da565b600060405180830381600087803b15801561127557600080fd5b505af1158015611289573d6000803e3d6000fd5b5050505050505050505050505050565b6101c45481565b60975460ff16156112c35760405162461bcd60e51b81526004016103f990613af2565b6001600160a01b0381811660009081526101c86020526040902054166112fb5760405162461bcd60e51b81526004016103f990613b99565b6000819050806001600160a01b031663500b245e6040518163ffffffff1660e01b815260040160206040518083038186803b15801561133957600080fd5b505afa15801561134d573d6000803e3d6000fd5b505050506040513d601f19601f8201168201806040525081019061137191906135e6565b43101561137e5750610c37565b6104e88161138b83611fd8565b836001600160a01b031663500b245e6040518163ffffffff1660e01b815260040160206040518083038186803b1580156113c457600080fd5b505afa1580156113d8573d6000803e3d6000fd5b505050506040513d601f19601f820116820180604052508101906113fc91906135e6565b61206c565b303b1590565b600054610100900460ff16806114205750611420611401565b8061142e575060005460ff16155b61144a5760405162461bcd60e51b81526004016103f990613c4c565b600054610100900460ff16158015610c25576000805460ff1961ff0019909116610100171660011790558015610c37576000805461ff001916905550565b600054610100900460ff16806114a157506114a1611401565b806114af575060005460ff16155b6114cb5760405162461bcd60e51b81526004016103f990613c4c565b600054610100900460ff161580156114f6576000805460ff1961ff0019909116610100171660011790555b6097805460ff191690558015610c37576000805461ff001916905550565b600054610100900460ff168061152d575061152d611401565b8061153b575060005460ff16155b6115575760405162461bcd60e51b81526004016103f990613c4c565b600054610100900460ff16158015611582576000805460ff1961ff0019909116610100171660011790555b60c9805460ff191660011790558015610c37576000805461ff001916905550565b60009182526065602052604090912060020155565b6101c5546000906001600160a01b031663fc56365860025b6040518263ffffffff1660e01b81526004016115ec91906137c4565b60206040518083038186803b15801561160457600080fd5b505afa158015611618573d6000803e3d6000fd5b505050506040513d601f19601f8201168201806040525081019061163c91906135e6565b90911115919050565b3390565b6000828152606560205260409020611667908263ffffffff61233016565b156104e857611674611645565b6001600160a01b0316816001600160a01b0316837f2f8788117e7eff1d82e926ec794901d17c78024a50270940304540a733656f0d60405160405180910390a45050565b60008281526065602052604090206116d6908263ffffffff61234516565b156104e8576116e3611645565b6001600160a01b0316816001600160a01b0316837ff6391f5c32d9c69d2a47ea670b442974b53935d1edc7fd64eb21e047a839171b60405160405180910390a45050565b60975460ff166117495760405162461bcd60e51b81526004016103f9906138ae565b6097805460ff191690557f5db9ee0a495bf2e6ff9c91a7834c1ba4fdd244a5e8aa4e537bd38aeae4b073aa61177c611645565b60405161178991906136da565b60405180910390a1565b6101c5546000906001600160a01b031663fc563658826115d0565b6000816001600160a01b031663a4d66daf6040518163ffffffff1660e01b815260040160206040518083038186803b1580156117e957600080fd5b505afa1580156117fd573d6000803e3d6000fd5b505050506040513d601f19601f8201168201806040525081019061182191906135e6565b61185e84846001600160a01b031663b69ef8a86040518163ffffffff1660e01b815260040160206040518083038186803b158015610a3d57600080fd5b11159392505050565b600080600073__$44894cb0e228c8872d7664995d3f4ce933$__63ca573568854360006118b26101c560009054906101000a90046001600160a01b03166001600160a01b031661235a565b6040518563ffffffff1660e01b81526004016118d194939291906137f7565b604080518083038186803b1580156118e857600080fd5b505af41580156118fc573d6000803e3d6000fd5b505050506040513d601f19601f82011682018060405250810190611920919061363f565b501515949350505050565b60008060008073__$44894cb0e228c8872d7664995d3f4ce933$__634678497187876040518363ffffffff1660e01b815260040161196a929190613753565b604080518083038186803b15801561198157600080fd5b505af4158015611995573d6000803e3d6000fd5b505050506040513d601f19601f820116820180604052508101906119b9919061363f565b915091506119fa82876001600160a01b03166321856b366040518163ffffffff1660e01b815260040160206040518083038186803b158015610a3d57600080fd5b611a3782886001600160a01b031663193501146040518163ffffffff1660e01b815260040160206040518083038186803b158015610a3d57600080fd5b9350935050509250929050565b600082820183811015610d5b5760405162461bcd60e51b81526004016103f990613973565b60c95460ff16611a8b5760405162461bcd60e51b81526004016103f990613e2f565b60c9805460ff19169055611a9e8461238a565b604051637d8b34e560e11b81526001600160a01b0385169063fb1669ca90611aca9086906004016137c4565b600060405180830381600087803b158015611ae457600080fd5b505af1158015611af8573d6000803e3d6000fd5b50506040516396c8df3760e01b81526001600160a01b03871692506396c8df379150611b289085906004016137c4565b600060405180830381600087803b158015611b4257600080fd5b505af1158015611b56573d6000803e3d6000fd5b505060405163b3b8a9c760e01b81526001600160a01b038716925063b3b8a9c79150611b869084906004016137c4565b600060405180830381600087803b158015611ba057600080fd5b505af1158015611bb4573d6000803e3d6000fd5b50506040516327e7b26360e01b81526001600160a01b03871692506327e7b2639150611be49043906004016137c4565b600060405180830381600087803b158015611bfe57600080fd5b505af1158015611c12573d6000803e3d6000fd5b50505050611c1f84612415565b836001600160a01b031663fb9eb990611c3786612499565b6040518263ffffffff1660e01b8152600401611c5391906137c4565b600060405180830381600087803b158015611c6d57600080fd5b505af1158015611c81573d6000803e3d6000fd5b50505050836001600160a01b0316637957dda3611c9d8661269b565b6040518263ffffffff1660e01b8152600401611cb991906137c4565b600060405180830381600087803b158015611cd357600080fd5b505af1158015611ce7573d6000803e3d6000fd5b505060c9805460ff19166001179055505050505050565b6000610d5e825b60006001600160a01b03821663b93f9b0a825b6040518263ffffffff1660e01b8152600401611d3491906137c4565b60206040518083038186803b158015611d4c57600080fd5b505afa158015611d60573d6000803e3d6000fd5b505050506040513d601f19601f82011682018060405250810190610d5e9190613450565b60975460ff1615611da75760405162461bcd60e51b81526004016103f990613af2565b6097805460ff191660011790557f62e78cea01bee320cd4e420270b5ea74000d11b0c9f74754ebdbfc544b05a25861177c611645565b6000610d5b8383612bca565b6000610d5b836001600160a01b038416612c0f565b611e0781611793565b611e235760405162461bcd60e51b81526004016103f990613b1c565b6101c5548190611e3b906001600160a01b0316612c27565b6001600160a01b03166370a08231336040518263ffffffff1660e01b8152600401611e6691906136da565b60206040518083038186803b158015611e7e57600080fd5b505afa158015611e92573d6000803e3d6000fd5b505050506040513d601f19601f82011682018060405250810190611eb691906135e6565b1015611ed45760405162461bcd60e51b81526004016103f990613926565b816001600160a01b0316336001600160a01b03167fc4036209c61f1d5aad789d2b8fa9ca23bf8b1516748d2e0be7227bf3fce67d2d83604051611f1791906137c4565b60405180910390a36101c554600090611f38906001600160a01b0316611cfe565b6001600160a01b03166323b872dd3385856040518463ffffffff1660e01b8152600401611f67939291906136ee565b602060405180830381600087803b158015611f8157600080fd5b505af1158015611f95573d6000803e3d6000fd5b505050506040513d601f19601f82011682018060405250810190611fb99190613512565b9050806107445760405162461bcd60e51b81526004016103f990613c9a565b6101c554600090611ff1906001600160a01b0316612c27565b6001600160a01b03166370a08231836040518263ffffffff1660e01b815260040161201c91906136da565b60206040518083038186803b15801561203457600080fd5b505afa158015612048573d6000803e3d6000fd5b505050506040513d601f19601f82011682018060405250810190610d5e91906135e6565b600080600061207c868686612c3f565b92509250925061208b86612ecc565b6000821561210d57506101c5546001906120ad906001600160a01b0316611cfe565b6001600160a01b03166364de8a0788856040518363ffffffff1660e01b81526004016120da929190613753565b600060405180830381600087803b1580156120f457600080fd5b505af1158015612108573d6000803e3d6000fd5b505050505b811561218d57506101c55460019061212d906001600160a01b0316611cfe565b6001600160a01b031663bcfa41ba88846040518363ffffffff1660e01b815260040161215a929190613753565b600060405180830381600087803b15801561217457600080fd5b505af1158015612188573d6000803e3d6000fd5b505050505b801561225357866001600160a01b0316876001600160a01b0316637df1f1b96040518163ffffffff1660e01b815260040160206040518083038186803b1580156121d657600080fd5b505afa1580156121ea573d6000803e3d6000fd5b505050506040513d601f19601f8201168201806040525081019061220e9190613450565b6001600160a01b03167f724fe786cff62c97ff230e98a332f95c5a11990e44123a00c2b8e76b0566e41185858860405161224a93929190613f00565b60405180910390a35b50505050505050565b6000610d5e8261316a565b6000806122738361316e565b90506000612287828663ffffffff611a4416565b845410159250505092915050565b6101c554604051635c9fcd8560e11b81526000916001600160a01b03169063b93f9b0a906122c8906002906004016137c4565b60206040518083038186803b1580156122e057600080fd5b505afa1580156122f4573d6000803e3d6000fd5b505050506040513d601f19601f82011682018060405250810190610d9f9190613450565b60006001600160a01b03821663b93f9b0a6007611d18565b6000610d5b836001600160a01b038416613243565b6000610d5b836001600160a01b03841661328d565b60006001600160a01b03821663fc56365860065b6040518263ffffffff1660e01b815260040161201c91906137c4565b61240e816001600160a01b031663b69ef8a86040518163ffffffff1660e01b815260040160206040518083038186803b1580156123c657600080fd5b505afa1580156123da573d6000803e3d6000fd5b505050506040513d601f19601f820116820180604052508101906123fe91906135e6565b6101c4549063ffffffff61335316565b6101c45550565b61240e816001600160a01b031663b69ef8a86040518163ffffffff1660e01b815260040160206040518083038186803b15801561245157600080fd5b505afa158015612465573d6000803e3d6000fd5b505050506040513d601f19601f8201168201806040525081019061248991906135e6565b6101c4549063ffffffff611a4416565b600080826001600160a01b031663b69ef8a86040518163ffffffff1660e01b815260040160206040518083038186803b1580156124d557600080fd5b505afa1580156124e9573d6000803e3d6000fd5b505050506040513d601f19601f8201168201806040525081019061250d91906135e6565b1161251a575060006105cf565b816001600160a01b0316631790ebd56040518163ffffffff1660e01b815260040160206040518083038186803b15801561255357600080fd5b505afa158015612567573d6000803e3d6000fd5b505050506040513d601f19601f8201168201806040525081019061258b91906135e6565b1561260857816001600160a01b0316631790ebd56040518163ffffffff1660e01b815260040160206040518083038186803b1580156125c957600080fd5b505afa1580156125dd573d6000803e3d6000fd5b505050506040513d601f19601f8201168201806040525081019061260191906135e6565b90506105cf565b610d5e61268e836001600160a01b03166348e6f2966040518163ffffffff1660e01b815260040160206040518083038186803b15801561264757600080fd5b505afa15801561265b573d6000803e3d6000fd5b505050506040513d601f19601f8201168201806040525081019061267f91906135e6565b6116809063ffffffff61339516565b439063ffffffff611a4416565b600080612721611680846001600160a01b03166399dd8df36040518163ffffffff1660e01b815260040160206040518083038186803b1580156126dd57600080fd5b505afa1580156126f1573d6000803e3d6000fd5b505050506040513d601f19601f8201168201806040525081019061271591906135e6565b9063ffffffff61339516565b90506000836001600160a01b031663b69ef8a86040518163ffffffff1660e01b815260040160206040518083038186803b15801561275e57600080fd5b505afa158015612772573d6000803e3d6000fd5b505050506040513d601f19601f8201168201806040525081019061279691906135e6565b111580156128135750826001600160a01b031663500b245e6040518163ffffffff1660e01b815260040160206040518083038186803b1580156127d857600080fd5b505afa1580156127ec573d6000803e3d6000fd5b505050506040513d601f19601f8201168201806040525081019061281091906135e6565b15155b156128225760009150506105cf565b826001600160a01b031663500b245e6040518163ffffffff1660e01b815260040160206040518083038186803b15801561285b57600080fd5b505afa15801561286f573d6000803e3d6000fd5b505050506040513d601f19601f8201168201806040525081019061289391906135e6565b15801561291057506000836001600160a01b031663b69ef8a86040518163ffffffff1660e01b815260040160206040518083038186803b1580156128d657600080fd5b505afa1580156128ea573d6000803e3d6000fd5b505050506040513d601f19601f8201168201806040525081019061290e91906135e6565b115b1561292d57612925438263ffffffff611a4416565b9150506105cf565b6000836001600160a01b031663b69ef8a86040518163ffffffff1660e01b815260040160206040518083038186803b15801561296857600080fd5b505afa15801561297c573d6000803e3d6000fd5b505050506040513d601f19601f820116820180604052508101906129a091906135e6565b118015612a1d5750826001600160a01b031663500b245e6040518163ffffffff1660e01b815260040160206040518083038186803b1580156129e157600080fd5b505afa1580156129f5573d6000803e3d6000fd5b505050506040513d601f19601f82011682018060405250810190612a1991906135e6565b4310155b15612a5f5761292581846001600160a01b031663500b245e6040518163ffffffff1660e01b815260040160206040518083038186803b158015610a3d57600080fd5b6000836001600160a01b031663b69ef8a86040518163ffffffff1660e01b815260040160206040518083038186803b158015612a9a57600080fd5b505afa158015612aae573d6000803e3d6000fd5b505050506040513d601f19601f82011682018060405250810190612ad291906135e6565b118015612b4e5750826001600160a01b031663500b245e6040518163ffffffff1660e01b815260040160206040518083038186803b158015612b1357600080fd5b505afa158015612b27573d6000803e3d6000fd5b505050506040513d601f19601f82011682018060405250810190612b4b91906135e6565b43105b15612bc457826001600160a01b031663500b245e6040518163ffffffff1660e01b815260040160206040518083038186803b158015612b8c57600080fd5b505afa158015612ba0573d6000803e3d6000fd5b505050506040513d601f19601f8201168201806040525081019061292591906135e6565b50919050565b81546000908210612bed5760405162461bcd60e51b81526004016103f99061381d565b826000018281548110612bfc57fe5b9060005260206000200154905092915050565b60009081526001919091016020526040902054151590565b60006001600160a01b03821663b93f9b0a6005611d18565b6000806000806000612c51888761192b565b91509150612c5d613413565b73__$44894cb0e228c8872d7664995d3f4ce933$__63d7cc2a03898b6001600160a01b031663b69ef8a86040518163ffffffff1660e01b815260040160206040518083038186803b158015612cb157600080fd5b505afa158015612cc5573d6000803e3d6000fd5b505050506040513d601f19601f82011682018060405250810190612ce991906135e6565b86866040518563ffffffff1660e01b8152600401612d0a9493929190613f16565b60606040518083038186803b158015612d2257600080fd5b505af4158015612d36573d6000803e3d6000fd5b505050506040513d601f19601f82011682018060405250810190612d5a919061358f565b90506000612de382602001518b6001600160a01b031663b69ef8a86040518163ffffffff1660e01b815260040160206040518083038186803b158015612d9f57600080fd5b505afa158015612db3573d6000803e3d6000fd5b505050506040513d601f19601f82011682018060405250810190612dd791906135e6565b9063ffffffff61335316565b9050612dfc82604001518261335390919063ffffffff16565b90506000612e3d828c6001600160a01b031663b69ef8a86040518163ffffffff1660e01b815260040160206040518083038186803b158015612d9f57600080fd5b90506000612e5c82612dd786600001518e61335390919063ffffffff16565b9050612e958c84612e7a87600001518a61335390919063ffffffff16565b6020880151612e90908a9063ffffffff61335316565b611a69565b8a612eb183610a75876000015185611a4490919063ffffffff16565b14612eb857fe5b9251929b929a509850909650505050505050565b6101c554600090819073__$44894cb0e228c8872d7664995d3f4ce933$__9063ca5735689085904390612f07906001600160a01b03166133cf565b6101c554612f1d906001600160a01b031661235a565b6040518563ffffffff1660e01b8152600401612f3c94939291906137f7565b604080518083038186803b158015612f5357600080fd5b505af4158015612f67573d6000803e3d6000fd5b505050506040513d601f19601f82011682018060405250810190612f8b919061363f565b9150915081600014801561300d5750826001600160a01b031663cc862de56040518163ffffffff1660e01b815260040160206040518083038186803b158015612fd357600080fd5b505afa158015612fe7573d6000803e3d6000fd5b505050506040513d601f19601f8201168201806040525081019061300b91906135e6565b155b15613019575050610c37565b600081846001600160a01b031663cc862de56040518163ffffffff1660e01b815260040160206040518083038186803b15801561305557600080fd5b505afa158015613069573d6000803e3d6000fd5b505050506040513d601f19601f8201168201806040525081019061308d91906135e6565b039050836001600160a01b0316632771eca8836040518263ffffffff1660e01b81526004016130bc91906137c4565b600060405180830381600087803b1580156130d657600080fd5b505af11580156130ea573d6000803e3d6000fd5b50506101c55461310592506001600160a01b03169050611cfe565b6001600160a01b031663338744bc85836040518363ffffffff1660e01b8152600401613132929190613753565b600060405180830381600087803b15801561314c57600080fd5b505af1158015613160573d6000803e3d6000fd5b5050505050505050565b5490565b600080805b600184015481101561323c57600084600101828154811061319057fe5b9060005260206000200160009054906101000a90046001600160a01b03169050613231816001600160a01b031663a4d66daf6040518163ffffffff1660e01b815260040160206040518083038186803b1580156131ec57600080fd5b505afa158015613200573d6000803e3d6000fd5b505050506040513d601f19601f8201168201806040525081019061322491906135e6565b849063ffffffff611a4416565b925050600101613173565b5092915050565b600061324f8383612c0f565b61328557508154600181810184556000848152602080822090930184905584548482528286019093526040902091909155610d5e565b506000610d5e565b6000818152600183016020526040812054801561334957835460001980830191908101906000908790839081106132c057fe5b90600052602060002001549050808760000184815481106132dd57fe5b60009182526020808320909101929092558281526001898101909252604090209084019055865487908061330d57fe5b60019003818190600052602060002001600090559055866001016000878152602001908152602001600020600090556001945050505050610d5e565b6000915050610d5e565b6000610d5b83836040518060400160405280601e81526020017f536166654d6174683a207375627472616374696f6e206f766572666c6f7700008152506133e7565b6000826133a457506000610d5e565b828202828482816133b157fe5b0414610d5b5760405162461bcd60e51b81526004016103f990613c0b565b60006001600160a01b03821663fc563658600561236e565b6000818484111561340b5760405162461bcd60e51b81526004016103f991906137e4565b505050900390565b60405180606001604052806000815260200160008152602001600081525090565b600060208284031215613445578081fd5b8135610d5b81613f31565b600060208284031215613461578081fd5b8151610d5b81613f31565b6000806040838503121561347e578081fd5b823561348981613f31565b9150602083013561349981613f31565b809150509250929050565b600080604083850312156134b6578182fd5b82356134c181613f31565b946020939093013593505050565b600080600080600060a086880312156134e6578081fd5b85356134f181613f31565b97602087013597506040870135966060810135965060800135945092505050565b600060208284031215613523578081fd5b81518015158114610d5b578182fd5b600060208284031215613543578081fd5b5035919050565b6000806040838503121561355c578182fd5b82359150602083013561349981613f31565b60008060408385031215613580578182fd5b50508035926020909101359150565b6000606082840312156135a0578081fd5b6040516060810181811067ffffffffffffffff821117156135bf578283fd5b80604052508251815260208301516020820152604083015160408201528091505092915050565b6000602082840312156135f7578081fd5b5051919050565b600080600060608486031215613612578283fd5b83359250602084013561362481613f31565b9150604084013561363481613f31565b809150509250925092565b60008060408385031215613651578182fd5b505080516020909101519092909150565b60008151808452815b818110156136875760208185018101518683018201520161366b565b818111156136985782602083870101525b50601f01601f19169290920160200192915050565b6a5041555345525f524f4c4560a81b8152600b0190565b694f574e45525f524f4c4560b01b8152600a0190565b6001600160a01b0391909116815260200190565b6001600160a01b039384168152919092166020820152604081019190915260600190565b6001600160a01b03978816815295871660208701529390951660408501526060840191909152608083015260a082019290925260c081019190915260e00190565b6001600160a01b03929092168252602082015260400190565b6020808252825182820181905260009190848201906040850190845b818110156137ad5783516001600160a01b031683529284019291840191600101613788565b50909695505050505050565b901515815260200190565b90815260200190565b9182526001600160a01b0316602082015260400190565b600060208252610d5b6020830184613662565b6001600160a01b0394909416845260208401929092526040830152606082015260800190565b60208082526022908201527f456e756d657261626c655365743a20696e646578206f7574206f6620626f756e604082015261647360f01b606082015260800190565b6020808252602f908201527f416363657373436f6e74726f6c3a2073656e646572206d75737420626520616e60408201526e0818591b5a5b881d1bc819dc985b9d608a1b606082015260800190565b60208082526014908201527314185d5cd8589b194e881b9bdd081c185d5cd95960621b604082015260600190565b6020808252602a908201527f43616e6e6f742064726177646f776e207768656e207061796d656e74732061726040820152696520706173742064756560b01b606082015260800190565b6020808252602d908201527f596f75206861766520696e737566666963656e742062616c616e636520666f7260408201526c081d1a1a5cc81c185e5b595b9d609a1b606082015260800190565b6020808252601b908201527f536166654d6174683a206164646974696f6e206f766572666c6f770000000000604082015260600190565b6020808252601290820152712330b4b632b2103a3790323930bbb237bbb760711b604082015260600190565b6020808252602e908201527f54686520756e6465727772697465722063616e6e6f742063726561746520746860408201526d697320637265646974206c696e6560901b606082015260800190565b60208082526027908201527f4e6f20637265646974206c696e657320657869737420666f722074686973206260408201526637b93937bbb2b960c91b606082015260800190565b60208082526030908201527f416363657373436f6e74726f6c3a2073656e646572206d75737420626520616e60408201526f2061646d696e20746f207265766f6b6560801b606082015260800190565b6020808252601e908201527f4d75737420686176652070617573657220726f6c6520746f2070617573650000604082015260600190565b60208082526010908201526f14185d5cd8589b194e881c185d5cd95960821b604082015260600190565b60208082526028908201527f416d6f756e74206973206f76657220746865207065722d7472616e73616374696040820152671bdb881b1a5b5a5d60c21b606082015260800190565b6020808252818101527f4f776e65722063616e6e6f7420626520746865207a65726f2061646472657373604082015260600190565b602080825260139082015272556e6b6e6f776e20637265646974206c696e6560681b604082015260600190565b60208082526025908201527f596f7520646f206e6f742062656c6f6e6720746f207468697320637265646974604082015264206c696e6560d81b606082015260800190565b60208082526021908201527f536166654d6174683a206d756c7469706c69636174696f6e206f766572666c6f6040820152607760f81b606082015260800190565b6020808252602e908201527f436f6e747261637420696e7374616e63652068617320616c726561647920626560408201526d195b881a5b9a5d1a585b1a5e995960921b606082015260800190565b60208082526019908201527f4661696c656420746f20636f6c6c656374207061796d656e7400000000000000604082015260600190565b6020808252603a908201527f54686973206c696d69742069732067726561746572207468616e20746865206d60408201527f617820616c6c6f776564206279207468652070726f746f636f6c000000000000606082015260800190565b6020808252601c908201527f4d7573742064726177646f776e206d6f7265207468616e207a65726f00000000604082015260600190565b602080825260409082018190527f54686520626f72726f77657220646f6573206e6f74206861766520656e6f7567908201527f6820637265646974206c696d697420666f7220746869732064726177646f776e606082015260800190565b60208082526017908201527f4d75737420706179206d6f7265207468616e207a65726f000000000000000000604082015260600190565b6020808252818101527f4d75737420686176652070617573657220726f6c6520746f20756e7061757365604082015260600190565b6020808252601f908201527f5265656e7472616e637947756172643a207265656e7472616e742063616c6c00604082015260600190565b6020808252602b908201527f4d75737420686176652061646d696e20726f6c6520746f20706572666f726d2060408201526a3a3434b99030b1ba34b7b760a91b606082015260800190565b6020808252602f908201527f416363657373436f6e74726f6c3a2063616e206f6e6c792072656e6f756e636560408201526e103937b632b9903337b91039b2b63360891b606082015260800190565b9283526020830191909152604082015260600190565b93845260208401929092526040830152606082015260800190565b6001600160a01b0381168114610c3757600080fdfea2646970667358221220cda1bb7d275ef1277ed7772c416950ffad96dd50a8c563cf11534ef263ba7c4b64736f6c63430006080033",
  "libraries": {
    "Accountant": "0x959922bE3CAee4b8Cd9a407cc3ac1C251C2007B1"
  },
  "devdoc": {
    "author": "Goldfinch",
    "methods": {
      "assessCreditLine(address)": {
        "params": {
          "creditLineAddress": "The creditline that should be assessed."
        }
      },
      "createCreditLine(address,uint256,uint256,uint256,uint256)": {
        "params": {
          "_borrower": "The borrower for whom the CreditLine will be created",
          "_interestApr": "The interest amount, on an annualized basis (APR, so non-compounding), expressed as an integer. We assume 8 digits of precision. For example, to submit 15.34%, you would pass up 15340000, and 5.34% would be 5340000",
          "_limit": "The maximum amount a borrower can drawdown from this CreditLine",
          "_paymentPeriodInDays": "How many days in each payment period. ie. the frequency with which they need to make payments.",
          "_termInDays": "Number of days in the credit term. It is used to set the `termEndBlock` upon first drawdown. ie. The credit line should be fully paid off {_termIndays} days after the first drawdown.   * Requirements:   * - the caller must be an underwriter with enough limit (see `setUnderwriterGovernanceLimit`)"
        }
      },
      "drawdown(uint256,address,address)": {
        "params": {
          "addressToSendTo": "The address where they would like the funds sent. If the zero address is passed, it will be defaulted to the borrower's address (msg.sender). This is a convenience feature for when they would like the funds sent to an exchange or alternate wallet, different from the authentication address   * Requirements:   * - the caller must be the borrower on the creditLine",
          "amount": "The amount, in USDC atomic units, that a borrower wishes to drawdown",
          "creditLineAddress": "The creditline from which they would like to drawdown"
        }
      },
      "getBorrowerCreditLines(address)": {
        "params": {
          "borrowerAddress": "The borrower address you would like to see the credit lines of."
        }
      },
      "getRoleAdmin(bytes32)": {
        "details": "Returns the admin role that controls `role`. See {grantRole} and {revokeRole}.     * To change a role's admin, use {_setRoleAdmin}."
      },
      "getRoleMember(bytes32,uint256)": {
        "details": "Returns one of the accounts that have `role`. `index` must be a value between 0 and {getRoleMemberCount}, non-inclusive.     * Role bearers are not sorted in any particular way, and their ordering may change at any point.     * WARNING: When using {getRoleMember} and {getRoleMemberCount}, make sure you perform all queries on the same block. See the following https://forum.openzeppelin.com/t/iterating-over-elements-on-enumerableset-in-openzeppelin-contracts/2296[forum post] for more information."
      },
      "getRoleMemberCount(bytes32)": {
        "details": "Returns the number of accounts that have `role`. Can be used together with {getRoleMember} to enumerate all bearers of a role."
      },
      "getUnderwriterCreditLines(address)": {
        "params": {
          "underwriterAddress": "The underwriter address you would like to see the credit lines of."
        }
      },
      "grantRole(bytes32,address)": {
        "details": "Grants `role` to `account`.     * If `account` had not been already granted `role`, emits a {RoleGranted} event.     * Requirements:     * - the caller must have ``role``'s admin role."
      },
      "hasRole(bytes32,address)": {
        "details": "Returns `true` if `account` has been granted `role`."
      },
      "initialize(address,address)": {
        "params": {
          "_config": "The address of the GoldfinchConfig contract",
          "owner": "The address of who should have the \"OWNER_ROLE\" of this contract"
        }
      },
      "pause()": {
        "details": "Pauses all functions guarded by Pause   * See {Pausable-_pause}.   * Requirements:   * - the caller must have the PAUSER_ROLE."
      },
      "paused()": {
        "details": "Returns true if the contract is paused, and false otherwise."
      },
      "pay(address,uint256)": {
        "params": {
          "amount": "The amount, in USDC atomic units, that a borrower wishes to pay",
          "creditLineAddress": "The credit line to be paid back"
        }
      },
      "renounceRole(bytes32,address)": {
        "details": "Revokes `role` from the calling account.     * Roles are often managed via {grantRole} and {revokeRole}: this function's purpose is to provide a mechanism for accounts to lose their privileges if they are compromised (such as when a trusted device is misplaced).     * If the calling account had been granted `role`, emits a {RoleRevoked} event.     * Requirements:     * - the caller must be `account`."
      },
      "revokeRole(bytes32,address)": {
        "details": "Revokes `role` from `account`.     * If `account` had been granted `role`, emits a {RoleRevoked} event.     * Requirements:     * - the caller must have ``role``'s admin role."
      },
      "setUnderwriterGovernanceLimit(address,uint256)": {
        "params": {
          "limit": "What the new limit will be set to Requirements:   * - the caller must have the `OWNER_ROLE`.",
          "underwriterAddress": "The address of the underwriter for whom the limit shall change"
        }
      },
      "unpause()": {
        "details": "Unpauses the contract   * See {Pausable-_unpause}.   * Requirements:   * - the caller must have the Pauser role"
      }
    },
    "title": "Goldfinch's CreditDesk contract"
  },
  "userdoc": {
    "methods": {
      "assessCreditLine(address)": {
        "notice": "Assesses a particular creditLine. This will apply payments, which will update accounting and distribute gains or losses back to the pool accordingly. This function is idempotent, and anyone is allowed to call it."
      },
      "createCreditLine(address,uint256,uint256,uint256,uint256)": {
        "notice": "Allows an underwriter to create a new CreditLine for a single borrower"
      },
      "drawdown(uint256,address,address)": {
        "notice": "Allows a borrower to drawdown on their creditline. `amount` USDC is sent to the borrower, and the credit line accounting is updated."
      },
      "getBorrowerCreditLines(address)": {
        "notice": "Simple getter for the creditlines of a given borrower"
      },
      "getUnderwriterCreditLines(address)": {
        "notice": "Simple getter for the creditlines of a given underwriter"
      },
      "initialize(address,address)": {
        "notice": "Run only once, on initialization"
      },
      "pay(address,uint256)": {
        "notice": "Allows a borrower to repay their loan. Payment is *collected* immediately (by sending it to the individual CreditLine), but it is not *applied* unless it is after the nextDueBlock, or until we assess the credit line (ie. payment period end). Any amounts over the minimum payment will be applied to outstanding principal (reducing the effective interest rate). If there is still any left over, it will remain in the USDC Balance of the CreditLine, which is held distinct from the Pool amounts, and can not be withdrawn by LP's."
      },
      "setUnderwriterGovernanceLimit(address,uint256)": {
        "notice": "Sets a particular underwriter's limit of how much credit the DAO will allow them to \"create\""
      }
    },
    "notice": "Main entry point for borrowers and underwriters. Handles key logic for creating CreditLine's, borrowing money, repayment, etc."
  },
  "storageLayout": {
    "storage": [
      {
        "astId": 49,
        "contract": "contracts/protocol/CreditDesk.sol:CreditDesk",
        "label": "initialized",
        "offset": 0,
        "slot": "0",
        "type": "t_bool"
      },
      {
        "astId": 51,
        "contract": "contracts/protocol/CreditDesk.sol:CreditDesk",
        "label": "initializing",
        "offset": 1,
        "slot": "0",
        "type": "t_bool"
      },
      {
        "astId": 116,
        "contract": "contracts/protocol/CreditDesk.sol:CreditDesk",
        "label": "______gap",
        "offset": 0,
        "slot": "1",
        "type": "t_array(t_uint256)50_storage"
      },
      {
        "astId": 43,
        "contract": "contracts/protocol/CreditDesk.sol:CreditDesk",
        "label": "__gap",
        "offset": 0,
        "slot": "51",
        "type": "t_array(t_uint256)50_storage"
      },
      {
        "astId": 161,
        "contract": "contracts/protocol/CreditDesk.sol:CreditDesk",
        "label": "_roles",
        "offset": 0,
        "slot": "101",
        "type": "t_mapping(t_bytes32,t_struct(RoleData)157_storage)"
      },
      {
        "astId": 406,
        "contract": "contracts/protocol/CreditDesk.sol:CreditDesk",
        "label": "__gap",
        "offset": 0,
        "slot": "102",
        "type": "t_array(t_uint256)49_storage"
      },
      {
        "astId": 2282,
        "contract": "contracts/protocol/CreditDesk.sol:CreditDesk",
        "label": "_paused",
        "offset": 0,
        "slot": "151",
        "type": "t_bool"
      },
      {
        "astId": 2371,
        "contract": "contracts/protocol/CreditDesk.sol:CreditDesk",
        "label": "__gap",
        "offset": 0,
        "slot": "152",
        "type": "t_array(t_uint256)49_storage"
      },
      {
        "astId": 2380,
        "contract": "contracts/protocol/CreditDesk.sol:CreditDesk",
        "label": "_notEntered",
        "offset": 0,
        "slot": "201",
        "type": "t_bool"
      },
      {
        "astId": 2421,
        "contract": "contracts/protocol/CreditDesk.sol:CreditDesk",
        "label": "__gap",
        "offset": 0,
        "slot": "202",
        "type": "t_array(t_uint256)49_storage"
      },
      {
        "astId": 4524,
        "contract": "contracts/protocol/CreditDesk.sol:CreditDesk",
        "label": "__gap1",
        "offset": 0,
        "slot": "251",
        "type": "t_array(t_uint256)50_storage"
      },
      {
        "astId": 4528,
        "contract": "contracts/protocol/CreditDesk.sol:CreditDesk",
        "label": "__gap2",
        "offset": 0,
        "slot": "301",
        "type": "t_array(t_uint256)50_storage"
      },
      {
        "astId": 4532,
        "contract": "contracts/protocol/CreditDesk.sol:CreditDesk",
        "label": "__gap3",
        "offset": 0,
        "slot": "351",
        "type": "t_array(t_uint256)50_storage"
      },
      {
        "astId": 4536,
        "contract": "contracts/protocol/CreditDesk.sol:CreditDesk",
        "label": "__gap4",
        "offset": 0,
        "slot": "401",
        "type": "t_array(t_uint256)50_storage"
      },
      {
        "astId": 3932,
        "contract": "contracts/protocol/CreditDesk.sol:CreditDesk",
        "label": "totalWritedowns",
        "offset": 0,
        "slot": "451",
        "type": "t_uint256"
      },
      {
        "astId": 3934,
        "contract": "contracts/protocol/CreditDesk.sol:CreditDesk",
        "label": "totalLoansOutstanding",
        "offset": 0,
        "slot": "452",
        "type": "t_uint256"
      },
      {
        "astId": 5035,
        "contract": "contracts/protocol/CreditDesk.sol:CreditDesk",
        "label": "config",
        "offset": 0,
        "slot": "453",
        "type": "t_contract(GoldfinchConfig)7304"
      },
      {
        "astId": 5092,
        "contract": "contracts/protocol/CreditDesk.sol:CreditDesk",
        "label": "underwriters",
        "offset": 0,
        "slot": "454",
        "type": "t_mapping(t_address,t_struct(Underwriter)5044_storage)"
      },
      {
        "astId": 5096,
        "contract": "contracts/protocol/CreditDesk.sol:CreditDesk",
        "label": "borrowers",
        "offset": 0,
        "slot": "455",
        "type": "t_mapping(t_address,t_struct(Borrower)5048_storage)"
      },
      {
        "astId": 5100,
        "contract": "contracts/protocol/CreditDesk.sol:CreditDesk",
        "label": "creditLines",
        "offset": 0,
        "slot": "456",
        "type": "t_mapping(t_address,t_address)"
      }
    ],
    "types": {
      "t_address": {
        "encoding": "inplace",
        "label": "address",
        "numberOfBytes": "20"
      },
      "t_array(t_address)dyn_storage": {
        "base": "t_address",
        "encoding": "dynamic_array",
        "label": "address[]",
        "numberOfBytes": "32"
      },
      "t_array(t_bytes32)dyn_storage": {
        "base": "t_bytes32",
        "encoding": "dynamic_array",
        "label": "bytes32[]",
        "numberOfBytes": "32"
      },
      "t_array(t_uint256)49_storage": {
        "base": "t_uint256",
        "encoding": "inplace",
        "label": "uint256[49]",
        "numberOfBytes": "1568"
      },
      "t_array(t_uint256)50_storage": {
        "base": "t_uint256",
        "encoding": "inplace",
        "label": "uint256[50]",
        "numberOfBytes": "1600"
      },
      "t_bool": {
        "encoding": "inplace",
        "label": "bool",
        "numberOfBytes": "1"
      },
      "t_bytes32": {
        "encoding": "inplace",
        "label": "bytes32",
        "numberOfBytes": "32"
      },
      "t_contract(GoldfinchConfig)7304": {
        "encoding": "inplace",
        "label": "contract GoldfinchConfig",
        "numberOfBytes": "20"
      },
      "t_mapping(t_address,t_address)": {
        "encoding": "mapping",
        "key": "t_address",
        "label": "mapping(address => address)",
        "numberOfBytes": "32",
        "value": "t_address"
      },
      "t_mapping(t_address,t_struct(Borrower)5048_storage)": {
        "encoding": "mapping",
        "key": "t_address",
        "label": "mapping(address => struct CreditDesk.Borrower)",
        "numberOfBytes": "32",
        "value": "t_struct(Borrower)5048_storage"
      },
      "t_mapping(t_address,t_struct(Underwriter)5044_storage)": {
        "encoding": "mapping",
        "key": "t_address",
        "label": "mapping(address => struct CreditDesk.Underwriter)",
        "numberOfBytes": "32",
        "value": "t_struct(Underwriter)5044_storage"
      },
      "t_mapping(t_bytes32,t_struct(RoleData)157_storage)": {
        "encoding": "mapping",
        "key": "t_bytes32",
        "label": "mapping(bytes32 => struct AccessControlUpgradeSafe.RoleData)",
        "numberOfBytes": "32",
        "value": "t_struct(RoleData)157_storage"
      },
      "t_mapping(t_bytes32,t_uint256)": {
        "encoding": "mapping",
        "key": "t_bytes32",
        "label": "mapping(bytes32 => uint256)",
        "numberOfBytes": "32",
        "value": "t_uint256"
      },
      "t_struct(AddressSet)2057_storage": {
        "encoding": "inplace",
        "label": "struct EnumerableSet.AddressSet",
        "members": [
          {
            "astId": 2056,
            "contract": "contracts/protocol/CreditDesk.sol:CreditDesk",
            "label": "_inner",
            "offset": 0,
            "slot": "0",
            "type": "t_struct(Set)1877_storage"
          }
        ],
        "numberOfBytes": "64"
      },
      "t_struct(Borrower)5048_storage": {
        "encoding": "inplace",
        "label": "struct CreditDesk.Borrower",
        "members": [
          {
            "astId": 5047,
            "contract": "contracts/protocol/CreditDesk.sol:CreditDesk",
            "label": "creditLines",
            "offset": 0,
            "slot": "0",
            "type": "t_array(t_address)dyn_storage"
          }
        ],
        "numberOfBytes": "32"
      },
      "t_struct(RoleData)157_storage": {
        "encoding": "inplace",
        "label": "struct AccessControlUpgradeSafe.RoleData",
        "members": [
          {
            "astId": 154,
            "contract": "contracts/protocol/CreditDesk.sol:CreditDesk",
            "label": "members",
            "offset": 0,
            "slot": "0",
            "type": "t_struct(AddressSet)2057_storage"
          },
          {
            "astId": 156,
            "contract": "contracts/protocol/CreditDesk.sol:CreditDesk",
            "label": "adminRole",
            "offset": 0,
            "slot": "2",
            "type": "t_bytes32"
          }
        ],
        "numberOfBytes": "96"
      },
      "t_struct(Set)1877_storage": {
        "encoding": "inplace",
        "label": "struct EnumerableSet.Set",
        "members": [
          {
            "astId": 1872,
            "contract": "contracts/protocol/CreditDesk.sol:CreditDesk",
            "label": "_values",
            "offset": 0,
            "slot": "0",
            "type": "t_array(t_bytes32)dyn_storage"
          },
          {
            "astId": 1876,
            "contract": "contracts/protocol/CreditDesk.sol:CreditDesk",
            "label": "_indexes",
            "offset": 0,
            "slot": "1",
            "type": "t_mapping(t_bytes32,t_uint256)"
          }
        ],
        "numberOfBytes": "64"
      },
      "t_struct(Underwriter)5044_storage": {
        "encoding": "inplace",
        "label": "struct CreditDesk.Underwriter",
        "members": [
          {
            "astId": 5040,
            "contract": "contracts/protocol/CreditDesk.sol:CreditDesk",
            "label": "governanceLimit",
            "offset": 0,
            "slot": "0",
            "type": "t_uint256"
          },
          {
            "astId": 5043,
            "contract": "contracts/protocol/CreditDesk.sol:CreditDesk",
            "label": "creditLines",
            "offset": 0,
            "slot": "1",
            "type": "t_array(t_address)dyn_storage"
          }
        ],
        "numberOfBytes": "64"
      },
      "t_uint256": {
        "encoding": "inplace",
        "label": "uint256",
        "numberOfBytes": "32"
      }
    }
  }
}