{
  "address": "0x1275D096B9DBf2347bD2a131Fb6BDaB0B4882487",
  "abi": [
    {
      "anonymous": false,
      "inputs": [
        {
          "indexed": false,
          "internalType": "address",
          "name": "account",
          "type": "address"
        }
      ],
      "name": "Paused",
      "type": "event"
    },
    {
      "anonymous": false,
      "inputs": [
        {
          "indexed": true,
          "internalType": "bytes32",
          "name": "role",
          "type": "bytes32"
        },
        {
          "indexed": true,
          "internalType": "address",
          "name": "account",
          "type": "address"
        },
        {
          "indexed": true,
          "internalType": "address",
          "name": "sender",
          "type": "address"
        }
      ],
      "name": "RoleGranted",
      "type": "event"
    },
    {
      "anonymous": false,
      "inputs": [
        {
          "indexed": true,
          "internalType": "bytes32",
          "name": "role",
          "type": "bytes32"
        },
        {
          "indexed": true,
          "internalType": "address",
          "name": "account",
          "type": "address"
        },
        {
          "indexed": true,
          "internalType": "address",
          "name": "sender",
          "type": "address"
        }
      ],
      "name": "RoleRevoked",
      "type": "event"
    },
    {
      "anonymous": false,
      "inputs": [
        {
          "indexed": false,
          "internalType": "address",
          "name": "account",
          "type": "address"
        }
      ],
      "name": "Unpaused",
      "type": "event"
    },
    {
      "inputs": [],
      "name": "DEFAULT_ADMIN_ROLE",
      "outputs": [
        {
          "internalType": "bytes32",
          "name": "",
          "type": "bytes32"
        }
      ],
      "stateMutability": "view",
      "type": "function"
    },
    {
      "inputs": [],
      "name": "OWNER_ROLE",
      "outputs": [
        {
          "internalType": "bytes32",
          "name": "",
          "type": "bytes32"
        }
      ],
      "stateMutability": "view",
      "type": "function"
    },
    {
      "inputs": [],
      "name": "PAUSER_ROLE",
      "outputs": [
        {
          "internalType": "bytes32",
          "name": "",
          "type": "bytes32"
        }
      ],
      "stateMutability": "view",
      "type": "function"
    },
    {
      "inputs": [
        {
          "internalType": "address",
          "name": "owner",
          "type": "address"
        }
      ],
      "name": "__BaseUpgradeablePausable__init",
      "outputs": [],
      "stateMutability": "nonpayable",
      "type": "function"
    },
    {
      "inputs": [],
      "name": "__PauserPausable__init",
      "outputs": [],
      "stateMutability": "nonpayable",
      "type": "function"
    },
    {
      "inputs": [
        {
          "internalType": "address",
          "name": "configAddress",
          "type": "address"
        }
      ],
      "name": "authorizePool",
      "outputs": [],
      "stateMutability": "nonpayable",
      "type": "function"
    },
    {
      "inputs": [],
      "name": "balance",
      "outputs": [
        {
          "internalType": "uint256",
          "name": "",
          "type": "uint256"
        }
      ],
      "stateMutability": "view",
      "type": "function"
    },
    {
      "inputs": [],
      "name": "borrower",
      "outputs": [
        {
          "internalType": "address",
          "name": "",
          "type": "address"
        }
      ],
      "stateMutability": "view",
      "type": "function"
    },
    {
      "inputs": [
        {
          "internalType": "bytes32",
          "name": "role",
          "type": "bytes32"
        }
      ],
      "name": "getRoleAdmin",
      "outputs": [
        {
          "internalType": "bytes32",
          "name": "",
          "type": "bytes32"
        }
      ],
      "stateMutability": "view",
      "type": "function"
    },
    {
      "inputs": [
        {
          "internalType": "bytes32",
          "name": "role",
          "type": "bytes32"
        },
        {
          "internalType": "uint256",
          "name": "index",
          "type": "uint256"
        }
      ],
      "name": "getRoleMember",
      "outputs": [
        {
          "internalType": "address",
          "name": "",
          "type": "address"
        }
      ],
      "stateMutability": "view",
      "type": "function"
    },
    {
      "inputs": [
        {
          "internalType": "bytes32",
          "name": "role",
          "type": "bytes32"
        }
      ],
      "name": "getRoleMemberCount",
      "outputs": [
        {
          "internalType": "uint256",
          "name": "",
          "type": "uint256"
        }
      ],
      "stateMutability": "view",
      "type": "function"
    },
    {
      "inputs": [
        {
          "internalType": "bytes32",
          "name": "role",
          "type": "bytes32"
        },
        {
          "internalType": "address",
          "name": "account",
          "type": "address"
        }
      ],
      "name": "grantRole",
      "outputs": [],
      "stateMutability": "nonpayable",
      "type": "function"
    },
    {
      "inputs": [
        {
          "internalType": "bytes32",
          "name": "role",
          "type": "bytes32"
        },
        {
          "internalType": "address",
          "name": "account",
          "type": "address"
        }
      ],
      "name": "hasRole",
      "outputs": [
        {
          "internalType": "bool",
          "name": "",
          "type": "bool"
        }
      ],
      "stateMutability": "view",
      "type": "function"
    },
    {
      "inputs": [
        {
          "internalType": "address",
          "name": "owner",
          "type": "address"
        },
        {
          "internalType": "address",
          "name": "_borrower",
          "type": "address"
        },
        {
          "internalType": "address",
          "name": "_underwriter",
          "type": "address"
        },
        {
          "internalType": "uint256",
          "name": "_limit",
          "type": "uint256"
        },
        {
          "internalType": "uint256",
          "name": "_interestApr",
          "type": "uint256"
        },
        {
          "internalType": "uint256",
          "name": "_paymentPeriodInDays",
          "type": "uint256"
        },
        {
          "internalType": "uint256",
          "name": "_termInDays",
          "type": "uint256"
        }
      ],
      "name": "initialize",
      "outputs": [],
      "stateMutability": "nonpayable",
      "type": "function"
    },
    {
      "inputs": [],
      "name": "interestApr",
      "outputs": [
        {
          "internalType": "uint256",
          "name": "",
          "type": "uint256"
        }
      ],
      "stateMutability": "view",
      "type": "function"
    },
    {
      "inputs": [],
      "name": "interestOwed",
      "outputs": [
        {
          "internalType": "uint256",
          "name": "",
          "type": "uint256"
        }
      ],
      "stateMutability": "view",
      "type": "function"
    },
    {
      "inputs": [],
      "name": "isAdmin",
      "outputs": [
        {
          "internalType": "bool",
          "name": "",
          "type": "bool"
        }
      ],
      "stateMutability": "view",
      "type": "function"
    },
    {
      "inputs": [],
      "name": "lastUpdatedBlock",
      "outputs": [
        {
          "internalType": "uint256",
          "name": "",
          "type": "uint256"
        }
      ],
      "stateMutability": "view",
      "type": "function"
    },
    {
      "inputs": [],
      "name": "limit",
      "outputs": [
        {
          "internalType": "uint256",
          "name": "",
          "type": "uint256"
        }
      ],
      "stateMutability": "view",
      "type": "function"
    },
    {
      "inputs": [],
      "name": "nextDueBlock",
      "outputs": [
        {
          "internalType": "uint256",
          "name": "",
          "type": "uint256"
        }
      ],
      "stateMutability": "view",
      "type": "function"
    },
    {
      "inputs": [],
      "name": "pause",
      "outputs": [],
      "stateMutability": "nonpayable",
      "type": "function"
    },
    {
      "inputs": [],
      "name": "paused",
      "outputs": [
        {
          "internalType": "bool",
          "name": "",
          "type": "bool"
        }
      ],
      "stateMutability": "view",
      "type": "function"
    },
    {
      "inputs": [],
      "name": "paymentPeriodInDays",
      "outputs": [
        {
          "internalType": "uint256",
          "name": "",
          "type": "uint256"
        }
      ],
      "stateMutability": "view",
      "type": "function"
    },
    {
      "inputs": [],
      "name": "principalOwed",
      "outputs": [
        {
          "internalType": "uint256",
          "name": "",
          "type": "uint256"
        }
      ],
      "stateMutability": "view",
      "type": "function"
    },
    {
      "inputs": [
        {
          "internalType": "bytes32",
          "name": "role",
          "type": "bytes32"
        },
        {
          "internalType": "address",
          "name": "account",
          "type": "address"
        }
      ],
      "name": "renounceRole",
      "outputs": [],
      "stateMutability": "nonpayable",
      "type": "function"
    },
    {
      "inputs": [
        {
          "internalType": "bytes32",
          "name": "role",
          "type": "bytes32"
        },
        {
          "internalType": "address",
          "name": "account",
          "type": "address"
        }
      ],
      "name": "revokeRole",
      "outputs": [],
      "stateMutability": "nonpayable",
      "type": "function"
    },
    {
      "inputs": [
        {
          "internalType": "uint256",
          "name": "newBalance",
          "type": "uint256"
        }
      ],
      "name": "setBalance",
      "outputs": [],
      "stateMutability": "nonpayable",
      "type": "function"
    },
    {
      "inputs": [
        {
          "internalType": "uint256",
          "name": "newInterestOwed",
          "type": "uint256"
        }
      ],
      "name": "setInterestOwed",
      "outputs": [],
      "stateMutability": "nonpayable",
      "type": "function"
    },
    {
      "inputs": [
        {
          "internalType": "uint256",
          "name": "newLastUpdatedBlock",
          "type": "uint256"
        }
      ],
      "name": "setLastUpdatedBlock",
      "outputs": [],
      "stateMutability": "nonpayable",
      "type": "function"
    },
    {
      "inputs": [
        {
          "internalType": "uint256",
          "name": "newAmount",
          "type": "uint256"
        }
      ],
      "name": "setLimit",
      "outputs": [],
      "stateMutability": "nonpayable",
      "type": "function"
    },
    {
      "inputs": [
        {
          "internalType": "uint256",
          "name": "newNextDueBlock",
          "type": "uint256"
        }
      ],
      "name": "setNextDueBlock",
      "outputs": [],
      "stateMutability": "nonpayable",
      "type": "function"
    },
    {
      "inputs": [
        {
          "internalType": "uint256",
          "name": "newPrincipalOwed",
          "type": "uint256"
        }
      ],
      "name": "setPrincipalOwed",
      "outputs": [],
      "stateMutability": "nonpayable",
      "type": "function"
    },
    {
      "inputs": [
        {
          "internalType": "uint256",
          "name": "newTermEndBlock",
          "type": "uint256"
        }
      ],
      "name": "setTermEndBlock",
      "outputs": [],
      "stateMutability": "nonpayable",
      "type": "function"
    },
    {
      "inputs": [
        {
          "internalType": "uint256",
          "name": "newWritedownAmount",
          "type": "uint256"
        }
      ],
      "name": "setWritedownAmount",
      "outputs": [],
      "stateMutability": "nonpayable",
      "type": "function"
    },
    {
      "inputs": [],
      "name": "termEndBlock",
      "outputs": [
        {
          "internalType": "uint256",
          "name": "",
          "type": "uint256"
        }
      ],
      "stateMutability": "view",
      "type": "function"
    },
    {
      "inputs": [],
      "name": "termInDays",
      "outputs": [
        {
          "internalType": "uint256",
          "name": "",
          "type": "uint256"
        }
      ],
      "stateMutability": "view",
      "type": "function"
    },
    {
      "inputs": [],
      "name": "underwriter",
      "outputs": [
        {
          "internalType": "address",
          "name": "",
          "type": "address"
        }
      ],
      "stateMutability": "view",
      "type": "function"
    },
    {
      "inputs": [],
      "name": "unpause",
      "outputs": [],
      "stateMutability": "nonpayable",
      "type": "function"
    },
    {
      "inputs": [],
      "name": "writedownAmount",
      "outputs": [
        {
          "internalType": "uint256",
          "name": "",
          "type": "uint256"
        }
      ],
      "stateMutability": "view",
      "type": "function"
    }
  ],
  "transactionHash": "0x3fa3390a2f4d6252a17433e3482df0da68458959368b8dff77bef033aef4a097",
  "args": [],
  "solcInputHash": "f035dfdd6f284f8e92c5122fe6dc3e4d",
  "bytecode": "0x608060405234801561001057600080fd5b5061177e806100206000396000f3fe608060405234801561001057600080fd5b506004361061023d5760003560e01c80638456cb591161013b578063b6db75a0116100b8578063e63ab1e91161007c578063e63ab1e914610434578063f00db2601461043c578063f90ce5ba14610444578063fb1669ca1461044c578063fb9eb9901461045f5761023d565b8063b6db75a0146103f6578063ca15c873146103fe578063cc862de514610411578063d547741f14610419578063e58378bb1461042c5761023d565b8063a217fddf116100ff578063a217fddf146103c3578063a4d66daf146103cb578063b3969992146103d3578063b3b8a9c7146103db578063b69ef8a8146103ee5761023d565b80638456cb591461037a5780639010d07c1461038257806391d148541461039557806396c8df37146103a857806399dd8df3146103bb5761023d565b80632f2ff15d116101c9578063500b245e1161018d578063500b245e1461032d578063526d81f6146103355780635c975abb1461033d5780637957dda3146103525780637df1f1b9146103655761023d565b80632f2ff15d146102e45780633059b7c6146102f757806336568abe1461030a5780633f4ba83a1461031d57806348e6f296146103255761023d565b8063248a9ca311610210578063248a9ca3146102855780632771eca81461029857806327e7b263146102ab57806327ea6f2b146102be5780632b4656c8146102d15761023d565b8063097616a3146102425780631790ebd514610257578063193501141461027557806321856b361461027d575b600080fd5b61025561025036600461122d565b610472565b005b61025f6105a8565b60405161026c91906113c6565b60405180910390f35b61025f6105af565b61025f6105b6565b61025f6102933660046112f9565b6105bd565b6102556102a63660046112f9565b6105d2565b6102556102b93660046112f9565b6105fc565b6102556102cc3660046112f9565b610626565b6102556102df36600461126c565b610676565b6102556102f2366004611311565b6107a8565b61025561030536600461122d565b6107ec565b610255610318366004611311565b6109bc565b6102556109fe565b61025f610a43565b61025f610a4a565b610255610a51565b610345610adc565b60405161026c91906113bb565b6102556103603660046112f9565b610ae5565b61036d610b0f565b60405161026c919061138e565b610255610b1f565b61036d610390366004611340565b610b52565b6103456103a3366004611311565b610b79565b6102556103b63660046112f9565b610b97565b61025f610bc1565b61025f610bc8565b61025f610bcd565b61025f610bd4565b6102556103e93660046112f9565b610bdb565b61025f610c05565b610345610c0c565b61025f61040c3660046112f9565b610c22565b61025f610c39565b610255610427366004611311565b610c40565b61025f610c7a565b61025f610c91565b61036d610c9d565b61025f610cad565b61025561045a3660046112f9565b610cb4565b61025561046d3660046112f9565b610cde565b600054610100900460ff168061048b575061048b610d08565b80610499575060005460ff16155b6104be5760405162461bcd60e51b81526004016104b5906115a4565b60405180910390fd5b600054610100900460ff161580156104e9576000805460ff1961ff0019909116610100171660011790555b6001600160a01b03821661050f5760405162461bcd60e51b81526004016104b59061156f565b610517610d0e565b61051f610d8f565b610527610e1b565b61054460405161053690611378565b6040518091039020836107e2565b61055360405161053690611361565b61058360405161056290611361565b604051809103902060405161057690611378565b6040518091039020610eaa565b61059260405161056290611378565b80156105a4576000805461ff00191690555b5050565b6101cc5481565b6101cb5481565b6101ca5481565b60009081526065602052604090206002015490565b6105da610c0c565b6105f65760405162461bcd60e51b81526004016104b590611699565b6101cf55565b610604610c0c565b6106205760405162461bcd60e51b81526004016104b590611699565b6101ce55565b61062e610c0c565b8061065457506101c4546001600160a01b0316610649610ebf565b6001600160a01b0316145b6106705760405162461bcd60e51b81526004016104b5906115f2565b6101c555565b600054610100900460ff168061068f575061068f610d08565b8061069d575060005460ff16155b6106b95760405162461bcd60e51b81526004016104b5906115a4565b600054610100900460ff161580156106e4576000805460ff1961ff0019909116610100171660011790555b6001600160a01b0388161580159061070457506001600160a01b03871615155b801561071857506001600160a01b03861615155b6107345760405162461bcd60e51b81526004016104b590611634565b61073d88610472565b6101c380546001600160a01b03808a166001600160a01b0319928316179092556101c48054928916929091169190911790556101c58590556101c68490556101c78390556101c8829055436101ce55801561079e576000805461ff00191690555b5050505050505050565b6000828152606560205260409020600201546107c6906103a3610ebf565b6107e25760405162461bcd60e51b81526004016104b590611411565b6105a48282610ec3565b6107f4610c0c565b6108105760405162461bcd60e51b81526004016104b590611699565b8060006001600160a01b03821663b93f9b0a826040518263ffffffff1660e01b815260040161083f91906113c6565b60206040518083038186803b15801561085757600080fd5b505afa15801561086b573d6000803e3d6000fd5b505050506040513d601f19601f8201168201806040525081019061088f9190611250565b905060006001600160a01b03831663b93f9b0a60056040518263ffffffff1660e01b81526004016108c091906113c6565b60206040518083038186803b1580156108d857600080fd5b505afa1580156108ec573d6000803e3d6000fd5b505050506040513d601f19601f820116820180604052508101906109109190611250565b90506000816001600160a01b031663095ea7b3846000196040518363ffffffff1660e01b81526004016109449291906113a2565b602060405180830381600087803b15801561095e57600080fd5b505af1158015610972573d6000803e3d6000fd5b505050506040513d601f19601f8201168201806040525081019061099691906112d9565b9050806109b55760405162461bcd60e51b81526004016104b59061148e565b5050505050565b6109c4610ebf565b6001600160a01b0316816001600160a01b0316146109f45760405162461bcd60e51b81526004016104b5906116e4565b6105a48282610f32565b610a1d604051610a0d90611361565b60405180910390206103a3610ebf565b610a395760405162461bcd60e51b81526004016104b590611664565b610a41610fa1565b565b6101c85481565b6101cd5481565b600054610100900460ff1680610a6a5750610a6a610d08565b80610a78575060005460ff16155b610a945760405162461bcd60e51b81526004016104b5906115a4565b600054610100900460ff16158015610abf576000805460ff1961ff0019909116610100171660011790555b610ac7610d8f565b8015610ad9576000805461ff00191690555b50565b60975460ff1690565b610aed610c0c565b610b095760405162461bcd60e51b81526004016104b590611699565b6101cd55565b6101c3546001600160a01b031681565b610b2e604051610a0d90611361565b610b4a5760405162461bcd60e51b81526004016104b59061150e565b610a4161100d565b6000828152606560205260408120610b70908363ffffffff61106616565b90505b92915050565b6000828152606560205260408120610b70908363ffffffff61107216565b610b9f610c0c565b610bbb5760405162461bcd60e51b81526004016104b590611699565b6101ca55565b6101c75481565b600081565b6101c55481565b6101c65481565b610be3610c0c565b610bff5760405162461bcd60e51b81526004016104b590611699565b6101cb55565b6101c95481565b6000610c1d604051610a0d90611378565b905090565b6000818152606560205260408120610b7390611087565b6101cf5481565b600082815260656020526040902060020154610c5e906103a3610ebf565b6109f45760405162461bcd60e51b81526004016104b5906114be565b604051610c8690611378565b604051809103902081565b604051610c8690611361565b6101c4546001600160a01b031681565b6101ce5481565b610cbc610c0c565b610cd85760405162461bcd60e51b81526004016104b590611699565b6101c955565b610ce6610c0c565b610d025760405162461bcd60e51b81526004016104b590611699565b6101cc55565b303b1590565b600054610100900460ff1680610d275750610d27610d08565b80610d35575060005460ff16155b610d515760405162461bcd60e51b81526004016104b5906115a4565b600054610100900460ff16158015610ac7576000805460ff1961ff0019909116610100171660011790558015610ad9576000805461ff001916905550565b600054610100900460ff1680610da85750610da8610d08565b80610db6575060005460ff16155b610dd25760405162461bcd60e51b81526004016104b5906115a4565b600054610100900460ff16158015610dfd576000805460ff1961ff0019909116610100171660011790555b6097805460ff191690558015610ad9576000805461ff001916905550565b600054610100900460ff1680610e345750610e34610d08565b80610e42575060005460ff16155b610e5e5760405162461bcd60e51b81526004016104b5906115a4565b600054610100900460ff16158015610e89576000805460ff1961ff0019909116610100171660011790555b60c9805460ff191660011790558015610ad9576000805461ff001916905550565b60009182526065602052604090912060020155565b3390565b6000828152606560205260409020610ee1908263ffffffff61109216565b156105a457610eee610ebf565b6001600160a01b0316816001600160a01b0316837f2f8788117e7eff1d82e926ec794901d17c78024a50270940304540a733656f0d60405160405180910390a45050565b6000828152606560205260409020610f50908263ffffffff6110a716565b156105a457610f5d610ebf565b6001600160a01b0316816001600160a01b0316837ff6391f5c32d9c69d2a47ea670b442974b53935d1edc7fd64eb21e047a839171b60405160405180910390a45050565b60975460ff16610fc35760405162461bcd60e51b81526004016104b590611460565b6097805460ff191690557f5db9ee0a495bf2e6ff9c91a7834c1ba4fdd244a5e8aa4e537bd38aeae4b073aa610ff6610ebf565b604051611003919061138e565b60405180910390a1565b60975460ff16156110305760405162461bcd60e51b81526004016104b590611545565b6097805460ff191660011790557f62e78cea01bee320cd4e420270b5ea74000d11b0c9f74754ebdbfc544b05a258610ff6610ebf565b6000610b7083836110bc565b6000610b70836001600160a01b038416611101565b6000610b7382611119565b6000610b70836001600160a01b03841661111d565b6000610b70836001600160a01b038416611167565b815460009082106110df5760405162461bcd60e51b81526004016104b5906113cf565b8260000182815481106110ee57fe5b9060005260206000200154905092915050565b60009081526001919091016020526040902054151590565b5490565b60006111298383611101565b61115f57508154600181810184556000848152602080822090930184905584548482528286019093526040902091909155610b73565b506000610b73565b60008181526001830160205260408120548015611223578354600019808301919081019060009087908390811061119a57fe5b90600052602060002001549050808760000184815481106111b757fe5b6000918252602080832090910192909255828152600189810190925260409020908401905586548790806111e757fe5b60019003818190600052602060002001600090559055866001016000878152602001908152602001600020600090556001945050505050610b73565b6000915050610b73565b60006020828403121561123e578081fd5b813561124981611733565b9392505050565b600060208284031215611261578081fd5b815161124981611733565b600080600080600080600060e0888a031215611286578283fd5b873561129181611733565b965060208801356112a181611733565b955060408801356112b181611733565b969995985095966060810135965060808101359560a0820135955060c0909101359350915050565b6000602082840312156112ea578081fd5b81518015158114611249578182fd5b60006020828403121561130a578081fd5b5035919050565b60008060408385031215611323578182fd5b82359150602083013561133581611733565b809150509250929050565b60008060408385031215611352578182fd5b50508035926020909101359150565b6a5041555345525f524f4c4560a81b8152600b0190565b694f574e45525f524f4c4560b01b8152600a0190565b6001600160a01b0391909116815260200190565b6001600160a01b03929092168252602082015260400190565b901515815260200190565b90815260200190565b60208082526022908201527f456e756d657261626c655365743a20696e646578206f7574206f6620626f756e604082015261647360f01b606082015260800190565b6020808252602f908201527f416363657373436f6e74726f6c3a2073656e646572206d75737420626520616e60408201526e0818591b5a5b881d1bc819dc985b9d608a1b606082015260800190565b60208082526014908201527314185d5cd8589b194e881b9bdd081c185d5cd95960621b604082015260600190565b6020808252601690820152754661696c656420746f20617070726f7665205553444360501b604082015260600190565b60208082526030908201527f416363657373436f6e74726f6c3a2073656e646572206d75737420626520616e60408201526f2061646d696e20746f207265766f6b6560801b606082015260800190565b6020808252601e908201527f4d75737420686176652070617573657220726f6c6520746f2070617573650000604082015260600190565b60208082526010908201526f14185d5cd8589b194e881c185d5cd95960821b604082015260600190565b6020808252818101527f4f776e65722063616e6e6f7420626520746865207a65726f2061646472657373604082015260600190565b6020808252602e908201527f436f6e747261637420696e7374616e63652068617320616c726561647920626560408201526d195b881a5b9a5d1a585b1a5e995960921b606082015260800190565b60208082526022908201527f5265737472696374656420746f206f776e6572206f7220756e6465727772697460408201526132b960f11b606082015260800190565b6020808252601690820152752d32b9379030b2323932b9b9903830b9b9b2b21034b760511b604082015260600190565b6020808252818101527f4d75737420686176652070617573657220726f6c6520746f20756e7061757365604082015260600190565b6020808252602b908201527f4d75737420686176652061646d696e20726f6c6520746f20706572666f726d2060408201526a3a3434b99030b1ba34b7b760a91b606082015260800190565b6020808252602f908201527f416363657373436f6e74726f6c3a2063616e206f6e6c792072656e6f756e636560408201526e103937b632b9903337b91039b2b63360891b606082015260800190565b6001600160a01b0381168114610ad957600080fdfea26469706673582212201c2a3db6cf51ccdd378af97b0dfe5dfdeb5d54ac4dfe27114acb306d402dc70d64736f6c63430006080033",
  "devdoc": {
    "author": "Goldfinch",
    "methods": {
      "getRoleAdmin(bytes32)": {
        "details": "Returns the admin role that controls `role`. See {grantRole} and {revokeRole}.     * To change a role's admin, use {_setRoleAdmin}."
      },
      "getRoleMember(bytes32,uint256)": {
        "details": "Returns one of the accounts that have `role`. `index` must be a value between 0 and {getRoleMemberCount}, non-inclusive.     * Role bearers are not sorted in any particular way, and their ordering may change at any point.     * WARNING: When using {getRoleMember} and {getRoleMemberCount}, make sure you perform all queries on the same block. See the following https://forum.openzeppelin.com/t/iterating-over-elements-on-enumerableset-in-openzeppelin-contracts/2296[forum post] for more information."
      },
      "getRoleMemberCount(bytes32)": {
        "details": "Returns the number of accounts that have `role`. Can be used together with {getRoleMember} to enumerate all bearers of a role."
      },
      "grantRole(bytes32,address)": {
        "details": "Grants `role` to `account`.     * If `account` had not been already granted `role`, emits a {RoleGranted} event.     * Requirements:     * - the caller must have ``role``'s admin role."
      },
      "hasRole(bytes32,address)": {
        "details": "Returns `true` if `account` has been granted `role`."
      },
      "pause()": {
        "details": "Pauses all functions guarded by Pause   * See {Pausable-_pause}.   * Requirements:   * - the caller must have the PAUSER_ROLE."
      },
      "paused()": {
        "details": "Returns true if the contract is paused, and false otherwise."
      },
      "renounceRole(bytes32,address)": {
        "details": "Revokes `role` from the calling account.     * Roles are often managed via {grantRole} and {revokeRole}: this function's purpose is to provide a mechanism for accounts to lose their privileges if they are compromised (such as when a trusted device is misplaced).     * If the calling account had been granted `role`, emits a {RoleRevoked} event.     * Requirements:     * - the caller must be `account`."
      },
      "revokeRole(bytes32,address)": {
        "details": "Revokes `role` from `account`.     * If `account` had been granted `role`, emits a {RoleRevoked} event.     * Requirements:     * - the caller must have ``role``'s admin role."
      },
      "unpause()": {
        "details": "Unpauses the contract   * See {Pausable-_unpause}.   * Requirements:   * - the caller must have the Pauser role"
      }
    },
    "title": "CreditLine"
  },
  "userdoc": {
    "methods": {},
    "notice": "A \"dumb\" state container that represents the agreement between an Underwriter and the borrower. Includes the terms of the loan, as well as the current accounting state, such as interest owed. This contract purposefully has essentially no business logic. Really just setters and getters."
  },
  "storageLayout": {
    "storage": [
      {
        "astId": 49,
        "contract": "contracts/protocol/CreditLine.sol:CreditLine",
        "label": "initialized",
        "offset": 0,
        "slot": "0",
        "type": "t_bool"
      },
      {
        "astId": 51,
        "contract": "contracts/protocol/CreditLine.sol:CreditLine",
        "label": "initializing",
        "offset": 1,
        "slot": "0",
        "type": "t_bool"
      },
      {
        "astId": 116,
        "contract": "contracts/protocol/CreditLine.sol:CreditLine",
        "label": "______gap",
        "offset": 0,
        "slot": "1",
        "type": "t_array(t_uint256)50_storage"
      },
      {
        "astId": 43,
        "contract": "contracts/protocol/CreditLine.sol:CreditLine",
        "label": "__gap",
        "offset": 0,
        "slot": "51",
        "type": "t_array(t_uint256)50_storage"
      },
      {
        "astId": 161,
        "contract": "contracts/protocol/CreditLine.sol:CreditLine",
        "label": "_roles",
        "offset": 0,
        "slot": "101",
        "type": "t_mapping(t_bytes32,t_struct(RoleData)157_storage)"
      },
      {
        "astId": 406,
        "contract": "contracts/protocol/CreditLine.sol:CreditLine",
        "label": "__gap",
        "offset": 0,
        "slot": "102",
        "type": "t_array(t_uint256)49_storage"
      },
      {
        "astId": 2282,
        "contract": "contracts/protocol/CreditLine.sol:CreditLine",
        "label": "_paused",
        "offset": 0,
        "slot": "151",
        "type": "t_bool"
      },
      {
        "astId": 2371,
        "contract": "contracts/protocol/CreditLine.sol:CreditLine",
        "label": "__gap",
        "offset": 0,
        "slot": "152",
        "type": "t_array(t_uint256)49_storage"
      },
      {
        "astId": 2380,
        "contract": "contracts/protocol/CreditLine.sol:CreditLine",
        "label": "_notEntered",
        "offset": 0,
        "slot": "201",
        "type": "t_bool"
      },
      {
        "astId": 2421,
        "contract": "contracts/protocol/CreditLine.sol:CreditLine",
        "label": "__gap",
        "offset": 0,
        "slot": "202",
        "type": "t_array(t_uint256)49_storage"
      },
      {
        "astId": 4524,
        "contract": "contracts/protocol/CreditLine.sol:CreditLine",
        "label": "__gap1",
        "offset": 0,
        "slot": "251",
        "type": "t_array(t_uint256)50_storage"
      },
      {
        "astId": 4528,
        "contract": "contracts/protocol/CreditLine.sol:CreditLine",
        "label": "__gap2",
        "offset": 0,
        "slot": "301",
        "type": "t_array(t_uint256)50_storage"
      },
      {
        "astId": 4532,
        "contract": "contracts/protocol/CreditLine.sol:CreditLine",
        "label": "__gap3",
        "offset": 0,
        "slot": "351",
        "type": "t_array(t_uint256)50_storage"
      },
      {
        "astId": 4536,
        "contract": "contracts/protocol/CreditLine.sol:CreditLine",
        "label": "__gap4",
        "offset": 0,
        "slot": "401",
        "type": "t_array(t_uint256)50_storage"
      },
      {
        "astId": 6397,
        "contract": "contracts/protocol/CreditLine.sol:CreditLine",
        "label": "borrower",
        "offset": 0,
        "slot": "451",
        "type": "t_address"
      },
      {
        "astId": 6399,
        "contract": "contracts/protocol/CreditLine.sol:CreditLine",
        "label": "underwriter",
        "offset": 0,
        "slot": "452",
        "type": "t_address"
      },
      {
        "astId": 6401,
        "contract": "contracts/protocol/CreditLine.sol:CreditLine",
        "label": "limit",
        "offset": 0,
        "slot": "453",
        "type": "t_uint256"
      },
      {
        "astId": 6403,
        "contract": "contracts/protocol/CreditLine.sol:CreditLine",
        "label": "interestApr",
        "offset": 0,
        "slot": "454",
        "type": "t_uint256"
      },
      {
        "astId": 6405,
        "contract": "contracts/protocol/CreditLine.sol:CreditLine",
        "label": "paymentPeriodInDays",
        "offset": 0,
        "slot": "455",
        "type": "t_uint256"
      },
      {
        "astId": 6407,
        "contract": "contracts/protocol/CreditLine.sol:CreditLine",
        "label": "termInDays",
        "offset": 0,
        "slot": "456",
        "type": "t_uint256"
      },
      {
        "astId": 6409,
        "contract": "contracts/protocol/CreditLine.sol:CreditLine",
        "label": "balance",
        "offset": 0,
        "slot": "457",
        "type": "t_uint256"
      },
      {
        "astId": 6411,
        "contract": "contracts/protocol/CreditLine.sol:CreditLine",
        "label": "interestOwed",
        "offset": 0,
        "slot": "458",
        "type": "t_uint256"
      },
      {
        "astId": 6413,
        "contract": "contracts/protocol/CreditLine.sol:CreditLine",
        "label": "principalOwed",
        "offset": 0,
        "slot": "459",
        "type": "t_uint256"
      },
      {
        "astId": 6415,
        "contract": "contracts/protocol/CreditLine.sol:CreditLine",
        "label": "termEndBlock",
        "offset": 0,
        "slot": "460",
        "type": "t_uint256"
      },
      {
        "astId": 6417,
        "contract": "contracts/protocol/CreditLine.sol:CreditLine",
        "label": "nextDueBlock",
        "offset": 0,
        "slot": "461",
        "type": "t_uint256"
      },
      {
        "astId": 6419,
        "contract": "contracts/protocol/CreditLine.sol:CreditLine",
        "label": "lastUpdatedBlock",
        "offset": 0,
        "slot": "462",
        "type": "t_uint256"
      },
      {
        "astId": 6421,
        "contract": "contracts/protocol/CreditLine.sol:CreditLine",
        "label": "writedownAmount",
        "offset": 0,
        "slot": "463",
        "type": "t_uint256"
      }
    ],
    "types": {
      "t_address": {
        "encoding": "inplace",
        "label": "address",
        "numberOfBytes": "20"
      },
      "t_array(t_bytes32)dyn_storage": {
        "base": "t_bytes32",
        "encoding": "dynamic_array",
        "label": "bytes32[]",
        "numberOfBytes": "32"
      },
      "t_array(t_uint256)49_storage": {
        "base": "t_uint256",
        "encoding": "inplace",
        "label": "uint256[49]",
        "numberOfBytes": "1568"
      },
      "t_array(t_uint256)50_storage": {
        "base": "t_uint256",
        "encoding": "inplace",
        "label": "uint256[50]",
        "numberOfBytes": "1600"
      },
      "t_bool": {
        "encoding": "inplace",
        "label": "bool",
        "numberOfBytes": "1"
      },
      "t_bytes32": {
        "encoding": "inplace",
        "label": "bytes32",
        "numberOfBytes": "32"
      },
      "t_mapping(t_bytes32,t_struct(RoleData)157_storage)": {
        "encoding": "mapping",
        "key": "t_bytes32",
        "label": "mapping(bytes32 => struct AccessControlUpgradeSafe.RoleData)",
        "numberOfBytes": "32",
        "value": "t_struct(RoleData)157_storage"
      },
      "t_mapping(t_bytes32,t_uint256)": {
        "encoding": "mapping",
        "key": "t_bytes32",
        "label": "mapping(bytes32 => uint256)",
        "numberOfBytes": "32",
        "value": "t_uint256"
      },
      "t_struct(AddressSet)2057_storage": {
        "encoding": "inplace",
        "label": "struct EnumerableSet.AddressSet",
        "members": [
          {
            "astId": 2056,
            "contract": "contracts/protocol/CreditLine.sol:CreditLine",
            "label": "_inner",
            "offset": 0,
            "slot": "0",
            "type": "t_struct(Set)1877_storage"
          }
        ],
        "numberOfBytes": "64"
      },
      "t_struct(RoleData)157_storage": {
        "encoding": "inplace",
        "label": "struct AccessControlUpgradeSafe.RoleData",
        "members": [
          {
            "astId": 154,
            "contract": "contracts/protocol/CreditLine.sol:CreditLine",
            "label": "members",
            "offset": 0,
            "slot": "0",
            "type": "t_struct(AddressSet)2057_storage"
          },
          {
            "astId": 156,
            "contract": "contracts/protocol/CreditLine.sol:CreditLine",
            "label": "adminRole",
            "offset": 0,
            "slot": "2",
            "type": "t_bytes32"
          }
        ],
        "numberOfBytes": "96"
      },
      "t_struct(Set)1877_storage": {
        "encoding": "inplace",
        "label": "struct EnumerableSet.Set",
        "members": [
          {
            "astId": 1872,
            "contract": "contracts/protocol/CreditLine.sol:CreditLine",
            "label": "_values",
            "offset": 0,
            "slot": "0",
            "type": "t_array(t_bytes32)dyn_storage"
          },
          {
            "astId": 1876,
            "contract": "contracts/protocol/CreditLine.sol:CreditLine",
            "label": "_indexes",
            "offset": 0,
            "slot": "1",
            "type": "t_mapping(t_bytes32,t_uint256)"
          }
        ],
        "numberOfBytes": "64"
      },
      "t_uint256": {
        "encoding": "inplace",
        "label": "uint256",
        "numberOfBytes": "32"
      }
    }
  }
}