{
  "_format": "hh-sol-artifact-1",
  "contractName": "GoldFinchAcademyParticipantNFT",
  "sourceName": "contracts/GoldFinchAcademyParticipantNFT.sol",
  "abi": [
    {
      "inputs": [
        {
          "internalType": "string",
          "name": "name",
          "type": "string"
        },
        {
          "internalType": "string",
          "name": "symbol",
          "type": "string"
        },
        {
          "internalType": "bytes32",
          "name": "merkleroot",
          "type": "bytes32"
        }
      ],
      "stateMutability": "nonpayable",
      "type": "constructor"
    },
    {
      "anonymous": false,
      "inputs": [
        {
          "indexed": true,
          "internalType": "address",
          "name": "owner",
          "type": "address"
        },
        {
          "indexed": true,
          "internalType": "address",
          "name": "approved",
          "type": "address"
        },
        {
          "indexed": true,
          "internalType": "uint256",
          "name": "tokenId",
          "type": "uint256"
        }
      ],
      "name": "Approval",
      "type": "event"
    },
    {
      "anonymous": false,
      "inputs": [
        {
          "indexed": true,
          "internalType": "address",
          "name": "owner",
          "type": "address"
        },
        {
          "indexed": true,
          "internalType": "address",
          "name": "operator",
          "type": "address"
        },
        {
          "indexed": false,
          "internalType": "bool",
          "name": "approved",
          "type": "bool"
        }
      ],
      "name": "ApprovalForAll",
      "type": "event"
    },
    {
      "anonymous": false,
      "inputs": [
        {
          "indexed": true,
          "internalType": "address",
          "name": "from",
          "type": "address"
        },
        {
          "indexed": true,
          "internalType": "address",
          "name": "to",
          "type": "address"
        },
        {
          "indexed": true,
          "internalType": "uint256",
          "name": "tokenId",
          "type": "uint256"
        }
      ],
      "name": "Transfer",
      "type": "event"
    },
    {
      "inputs": [
        {
          "internalType": "address",
          "name": "to",
          "type": "address"
        },
        {
          "internalType": "uint256",
          "name": "tokenId",
          "type": "uint256"
        }
      ],
      "name": "approve",
      "outputs": [],
      "stateMutability": "nonpayable",
      "type": "function"
    },
    {
      "inputs": [
        {
          "internalType": "address",
          "name": "owner",
          "type": "address"
        }
      ],
      "name": "balanceOf",
      "outputs": [
        {
          "internalType": "uint256",
          "name": "",
          "type": "uint256"
        }
      ],
      "stateMutability": "view",
      "type": "function"
    },
    {
      "inputs": [
        {
          "internalType": "uint256",
          "name": "tokenId",
          "type": "uint256"
        }
      ],
      "name": "getApproved",
      "outputs": [
        {
          "internalType": "address",
          "name": "",
          "type": "address"
        }
      ],
      "stateMutability": "view",
      "type": "function"
    },
    {
      "inputs": [
        {
          "internalType": "address",
          "name": "owner",
          "type": "address"
        },
        {
          "internalType": "address",
          "name": "operator",
          "type": "address"
        }
      ],
      "name": "isApprovedForAll",
      "outputs": [
        {
          "internalType": "bool",
          "name": "",
          "type": "bool"
        }
      ],
      "stateMutability": "view",
      "type": "function"
    },
    {
      "inputs": [],
      "name": "name",
      "outputs": [
        {
          "internalType": "string",
          "name": "",
          "type": "string"
        }
      ],
      "stateMutability": "view",
      "type": "function"
    },
    {
      "inputs": [
        {
          "internalType": "uint256",
          "name": "tokenId",
          "type": "uint256"
        }
      ],
      "name": "ownerOf",
      "outputs": [
        {
          "internalType": "address",
          "name": "",
          "type": "address"
        }
      ],
      "stateMutability": "view",
      "type": "function"
    },
    {
      "inputs": [
        {
          "internalType": "address",
          "name": "account",
          "type": "address"
        },
        {
          "internalType": "uint256",
          "name": "tokenId",
          "type": "uint256"
        },
        {
          "internalType": "bytes32[]",
          "name": "proof",
          "type": "bytes32[]"
        }
      ],
      "name": "redeem",
      "outputs": [],
      "stateMutability": "nonpayable",
      "type": "function"
    },
    {
      "inputs": [],
      "name": "root",
      "outputs": [
        {
          "internalType": "bytes32",
          "name": "",
          "type": "bytes32"
        }
      ],
      "stateMutability": "view",
      "type": "function"
    },
    {
      "inputs": [
        {
          "internalType": "address",
          "name": "from",
          "type": "address"
        },
        {
          "internalType": "address",
          "name": "to",
          "type": "address"
        },
        {
          "internalType": "uint256",
          "name": "tokenId",
          "type": "uint256"
        }
      ],
      "name": "safeTransferFrom",
      "outputs": [],
      "stateMutability": "nonpayable",
      "type": "function"
    },
    {
      "inputs": [
        {
          "internalType": "address",
          "name": "from",
          "type": "address"
        },
        {
          "internalType": "address",
          "name": "to",
          "type": "address"
        },
        {
          "internalType": "uint256",
          "name": "tokenId",
          "type": "uint256"
        },
        {
          "internalType": "bytes",
          "name": "_data",
          "type": "bytes"
        }
      ],
      "name": "safeTransferFrom",
      "outputs": [],
      "stateMutability": "nonpayable",
      "type": "function"
    },
    {
      "inputs": [
        {
          "internalType": "address",
          "name": "operator",
          "type": "address"
        },
        {
          "internalType": "bool",
          "name": "approved",
          "type": "bool"
        }
      ],
      "name": "setApprovalForAll",
      "outputs": [],
      "stateMutability": "nonpayable",
      "type": "function"
    },
    {
      "inputs": [
        {
          "internalType": "bytes4",
          "name": "interfaceId",
          "type": "bytes4"
        }
      ],
      "name": "supportsInterface",
      "outputs": [
        {
          "internalType": "bool",
          "name": "",
          "type": "bool"
        }
      ],
      "stateMutability": "view",
      "type": "function"
    },
    {
      "inputs": [],
      "name": "symbol",
      "outputs": [
        {
          "internalType": "string",
          "name": "",
          "type": "string"
        }
      ],
      "stateMutability": "view",
      "type": "function"
    },
    {
      "inputs": [
        {
          "internalType": "uint256",
          "name": "tokenId",
          "type": "uint256"
        }
      ],
      "name": "tokenURI",
      "outputs": [
        {
          "internalType": "string",
          "name": "",
          "type": "string"
        }
      ],
      "stateMutability": "view",
      "type": "function"
    },
    {
      "inputs": [
        {
          "internalType": "address",
          "name": "from",
          "type": "address"
        },
        {
          "internalType": "address",
          "name": "to",
          "type": "address"
        },
        {
          "internalType": "uint256",
          "name": "tokenId",
          "type": "uint256"
        }
      ],
      "name": "transferFrom",
      "outputs": [],
      "stateMutability": "nonpayable",
      "type": "function"
    }
  ],
  "bytecode": "0x60a06040523480156200001157600080fd5b5060405162002e9e38038062002e9e8339818101604052810190620000379190620001b7565b82828160009080519060200190620000519291906200007e565b5080600190805190602001906200006a9291906200007e565b505050806080818152505050505062000394565b8280546200008c90620002e6565b90600052602060002090601f016020900481019282620000b05760008555620000fc565b82601f10620000cb57805160ff1916838001178555620000fc565b82800160010185558215620000fc579182015b82811115620000fb578251825591602001919060010190620000de565b5b5090506200010b91906200010f565b5090565b5b808211156200012a57600081600090555060010162000110565b5090565b6000620001456200013f8462000273565b6200023f565b9050828152602081018484840111156200015e57600080fd5b6200016b848285620002b0565b509392505050565b60008151905062000184816200037a565b92915050565b600082601f8301126200019c57600080fd5b8151620001ae8482602086016200012e565b91505092915050565b600080600060608486031215620001cd57600080fd5b600084015167ffffffffffffffff811115620001e857600080fd5b620001f6868287016200018a565b935050602084015167ffffffffffffffff8111156200021457600080fd5b62000222868287016200018a565b9250506040620002358682870162000173565b9150509250925092565b6000604051905081810181811067ffffffffffffffff821117156200026957620002686200034b565b5b8060405250919050565b600067ffffffffffffffff8211156200029157620002906200034b565b5b601f19601f8301169050602081019050919050565b6000819050919050565b60005b83811015620002d0578082015181840152602081019050620002b3565b83811115620002e0576000848401525b50505050565b60006002820490506001821680620002ff57607f821691505b602082108114156200031657620003156200031c565b5b50919050565b7f4e487b7100000000000000000000000000000000000000000000000000000000600052602260045260246000fd5b7f4e487b7100000000000000000000000000000000000000000000000000000000600052604160045260246000fd5b6200038581620002a6565b81146200039157600080fd5b50565b608051612ae7620003b760003960008181610c6c0152610e600152612ae76000f3fe608060405234801561001057600080fd5b50600436106100f55760003560e01c80636352211e11610097578063b88d4fde11610066578063b88d4fde14610282578063c87b56dd1461029e578063e985e9c5146102ce578063ebf0c717146102fe576100f5565b80636352211e146101e857806370a082311461021857806395d89b4114610248578063a22cb46514610266576100f5565b8063095ea7b3116100d3578063095ea7b31461017857806314132f481461019457806323b872dd146101b057806342842e0e146101cc576100f5565b806301ffc9a7146100fa57806306fdde031461012a578063081812fc14610148575b600080fd5b610114600480360381019061010f9190611bf0565b61031c565b60405161012191906123d4565b60405180910390f35b6101326103fe565b60405161013f919061240a565b60405180910390f35b610162600480360381019061015d9190611c42565b610490565b60405161016f919061236d565b60405180910390f35b610192600480360381019061018d9190611b48565b610515565b005b6101ae60048036038101906101a99190611b84565b61062d565b005b6101ca60048036038101906101c59190611a42565b6106d0565b005b6101e660048036038101906101e19190611a42565b610730565b005b61020260048036038101906101fd9190611c42565b610750565b60405161020f919061236d565b60405180910390f35b610232600480360381019061022d91906119dd565b610802565b60405161023f919061260c565b60405180910390f35b6102506108ba565b60405161025d919061240a565b60405180910390f35b610280600480360381019061027b9190611b0c565b61094c565b005b61029c60048036038101906102979190611a91565b610acd565b005b6102b860048036038101906102b39190611c42565b610b2f565b6040516102c5919061240a565b60405180910390f35b6102e860048036038101906102e39190611a06565b610bd6565b6040516102f591906123d4565b60405180910390f35b610306610c6a565b60405161031391906123ef565b60405180910390f35b60007f80ac58cd000000000000000000000000000000000000000000000000000000007bffffffffffffffffffffffffffffffffffffffffffffffffffffffff1916827bffffffffffffffffffffffffffffffffffffffffffffffffffffffff191614806103e757507f5b5e139f000000000000000000000000000000000000000000000000000000007bffffffffffffffffffffffffffffffffffffffffffffffffffffffff1916827bffffffffffffffffffffffffffffffffffffffffffffffffffffffff1916145b806103f757506103f682610c8e565b5b9050919050565b60606000805461040d90612846565b80601f016020809104026020016040519081016040528092919081815260200182805461043990612846565b80156104865780601f1061045b57610100808354040283529160200191610486565b820191906000526020600020905b81548152906001019060200180831161046957829003601f168201915b5050505050905090565b600061049b82610cf8565b6104da576040517f08c379a00000000000000000000000000000000000000000000000000000000081526004016104d19061254c565b60405180910390fd5b6004600083815260200190815260200160002060009054906101000a900473ffffffffffffffffffffffffffffffffffffffff169050919050565b600061052082610750565b90508073ffffffffffffffffffffffffffffffffffffffff168373ffffffffffffffffffffffffffffffffffffffff161415610591576040517f08c379a0000000000000000000000000000000000000000000000000000000008152600401610588906125cc565b60405180910390fd5b8073ffffffffffffffffffffffffffffffffffffffff166105b0610d64565b73ffffffffffffffffffffffffffffffffffffffff1614806105df57506105de816105d9610d64565b610bd6565b5b61061e576040517f08c379a0000000000000000000000000000000000000000000000000000000008152600401610615906124cc565b60405180910390fd5b6106288383610d6c565b505050565b61068161063a8585610e25565b838380806020026020016040519081016040528093929190818152602001838360200280828437600081840152601f19601f82011690508083019250505050505050610e58565b6106c0576040517f08c379a00000000000000000000000000000000000000000000000000000000081526004016106b79061256c565b60405180910390fd5b6106ca8484610e8d565b50505050565b6106e16106db610d64565b82610eab565b610720576040517f08c379a0000000000000000000000000000000000000000000000000000000008152600401610717906125ec565b60405180910390fd5b61072b838383610f89565b505050565b61074b83838360405180602001604052806000815250610acd565b505050565b6000806002600084815260200190815260200160002060009054906101000a900473ffffffffffffffffffffffffffffffffffffffff169050600073ffffffffffffffffffffffffffffffffffffffff168173ffffffffffffffffffffffffffffffffffffffff1614156107f9576040517f08c379a00000000000000000000000000000000000000000000000000000000081526004016107f09061250c565b60405180910390fd5b80915050919050565b60008073ffffffffffffffffffffffffffffffffffffffff168273ffffffffffffffffffffffffffffffffffffffff161415610873576040517f08c379a000000000000000000000000000000000000000000000000000000000815260040161086a906124ec565b60405180910390fd5b600360008373ffffffffffffffffffffffffffffffffffffffff1673ffffffffffffffffffffffffffffffffffffffff168152602001908152602001600020549050919050565b6060600180546108c990612846565b80601f01602080910402602001604051908101604052809291908181526020018280546108f590612846565b80156109425780601f1061091757610100808354040283529160200191610942565b820191906000526020600020905b81548152906001019060200180831161092557829003601f168201915b5050505050905090565b610954610d64565b73ffffffffffffffffffffffffffffffffffffffff168273ffffffffffffffffffffffffffffffffffffffff1614156109c2576040517f08c379a00000000000000000000000000000000000000000000000000000000081526004016109b99061248c565b60405180910390fd5b80600560006109cf610d64565b73ffffffffffffffffffffffffffffffffffffffff1673ffffffffffffffffffffffffffffffffffffffff16815260200190815260200160002060008473ffffffffffffffffffffffffffffffffffffffff1673ffffffffffffffffffffffffffffffffffffffff16815260200190815260200160002060006101000a81548160ff0219169083151502179055508173ffffffffffffffffffffffffffffffffffffffff16610a7c610d64565b73ffffffffffffffffffffffffffffffffffffffff167f17307eab39ab6107e8899845ad3d59bd9653f200f220920489ca2b5937696c3183604051610ac191906123d4565b60405180910390a35050565b610ade610ad8610d64565b83610eab565b610b1d576040517f08c379a0000000000000000000000000000000000000000000000000000000008152600401610b14906125ec565b60405180910390fd5b610b29848484846111e5565b50505050565b6060610b3a82610cf8565b610b79576040517f08c379a0000000000000000000000000000000000000000000000000000000008152600401610b70906125ac565b60405180910390fd5b6000610b83611241565b90506000815111610ba35760405180602001604052806000815250610bce565b80610bad84611261565b604051602001610bbe92919061231d565b6040516020818303038152906040525b915050919050565b6000600560008473ffffffffffffffffffffffffffffffffffffffff1673ffffffffffffffffffffffffffffffffffffffff16815260200190815260200160002060008373ffffffffffffffffffffffffffffffffffffffff1673ffffffffffffffffffffffffffffffffffffffff16815260200190815260200160002060009054906101000a900460ff16905092915050565b7f000000000000000000000000000000000000000000000000000000000000000081565b60007f01ffc9a7000000000000000000000000000000000000000000000000000000007bffffffffffffffffffffffffffffffffffffffffffffffffffffffff1916827bffffffffffffffffffffffffffffffffffffffffffffffffffffffff1916149050919050565b60008073ffffffffffffffffffffffffffffffffffffffff166002600084815260200190815260200160002060009054906101000a900473ffffffffffffffffffffffffffffffffffffffff1673ffffffffffffffffffffffffffffffffffffffff1614159050919050565b600033905090565b816004600083815260200190815260200160002060006101000a81548173ffffffffffffffffffffffffffffffffffffffff021916908373ffffffffffffffffffffffffffffffffffffffff160217905550808273ffffffffffffffffffffffffffffffffffffffff16610ddf83610750565b73ffffffffffffffffffffffffffffffffffffffff167f8c5be1e5ebec7d5bd14f71427d1e84f3dd0314c0f7b2291e5b200ac8c7c3b92560405160405180910390a45050565b60008183604051602001610e3a929190612341565b60405160208183030381529060405280519060200120905092915050565b6000610e85827f00000000000000000000000000000000000000000000000000000000000000008561140e565b905092915050565b610ea78282604051806020016040528060008152506114ea565b5050565b6000610eb682610cf8565b610ef5576040517f08c379a0000000000000000000000000000000000000000000000000000000008152600401610eec906124ac565b60405180910390fd5b6000610f0083610750565b90508073ffffffffffffffffffffffffffffffffffffffff168473ffffffffffffffffffffffffffffffffffffffff161480610f6f57508373ffffffffffffffffffffffffffffffffffffffff16610f5784610490565b73ffffffffffffffffffffffffffffffffffffffff16145b80610f805750610f7f8185610bd6565b5b91505092915050565b8273ffffffffffffffffffffffffffffffffffffffff16610fa982610750565b73ffffffffffffffffffffffffffffffffffffffff1614610fff576040517f08c379a0000000000000000000000000000000000000000000000000000000008152600401610ff69061258c565b60405180910390fd5b600073ffffffffffffffffffffffffffffffffffffffff168273ffffffffffffffffffffffffffffffffffffffff16141561106f576040517f08c379a00000000000000000000000000000000000000000000000000000000081526004016110669061246c565b60405180910390fd5b61107a838383611545565b611085600082610d6c565b6001600360008573ffffffffffffffffffffffffffffffffffffffff1673ffffffffffffffffffffffffffffffffffffffff16815260200190815260200160002060008282546110d59190612752565b925050819055506001600360008473ffffffffffffffffffffffffffffffffffffffff1673ffffffffffffffffffffffffffffffffffffffff168152602001908152602001600020600082825461112c91906126cb565b92505081905550816002600083815260200190815260200160002060006101000a81548173ffffffffffffffffffffffffffffffffffffffff021916908373ffffffffffffffffffffffffffffffffffffffff160217905550808273ffffffffffffffffffffffffffffffffffffffff168473ffffffffffffffffffffffffffffffffffffffff167fddf252ad1be2c89b69c2b068fc378daa952ba7f163c4a11628f55a4df523b3ef60405160405180910390a4505050565b6111f0848484610f89565b6111fc8484848461154a565b61123b576040517f08c379a00000000000000000000000000000000000000000000000000000000081526004016112329061242c565b60405180910390fd5b50505050565b6060604051806080016040528060518152602001612a6160519139905090565b606060008214156112a9576040518060400160405280600181526020017f30000000000000000000000000000000000000000000000000000000000000008152509050611409565b600082905060005b600082146112db5780806112c490612878565b915050600a826112d49190612721565b91506112b1565b60008167ffffffffffffffff81111561131d577f4e487b7100000000000000000000000000000000000000000000000000000000600052604160045260246000fd5b6040519080825280601f01601f19166020018201604052801561134f5781602001600182028036833780820191505090505b5090505b60008514611402576001826113689190612752565b9150600a8561137791906128f9565b603061138391906126cb565b60f81b8183815181106113bf577f4e487b7100000000000000000000000000000000000000000000000000000000600052603260045260246000fd5b60200101907effffffffffffffffffffffffffffffffffffffffffffffffffffffffffffff1916908160001a905350600a856113fb9190612721565b9450611353565b8093505050505b919050565b60008082905060005b85518110156114dc57600086828151811061145b577f4e487b7100000000000000000000000000000000000000000000000000000000600052603260045260246000fd5b6020026020010151905080831161149c57828160405160200161147f9291906122f1565b6040516020818303038152906040528051906020012092506114c8565b80836040516020016114af9291906122f1565b6040516020818303038152906040528051906020012092505b5080806114d490612878565b915050611417565b508381149150509392505050565b6114f483836116e1565b611501600084848461154a565b611540576040517f08c379a00000000000000000000000000000000000000000000000000000000081526004016115379061242c565b60405180910390fd5b505050565b505050565b600061156b8473ffffffffffffffffffffffffffffffffffffffff166118af565b156116d4578373ffffffffffffffffffffffffffffffffffffffff1663150b7a02611594610d64565b8786866040518563ffffffff1660e01b81526004016115b69493929190612388565b602060405180830381600087803b1580156115d057600080fd5b505af192505050801561160157506040513d601f19601f820116820180604052508101906115fe9190611c19565b60015b611684573d8060008114611631576040519150601f19603f3d011682016040523d82523d6000602084013e611636565b606091505b5060008151141561167c576040517f08c379a00000000000000000000000000000000000000000000000000000000081526004016116739061242c565b60405180910390fd5b805181602001fd5b63150b7a0260e01b7bffffffffffffffffffffffffffffffffffffffffffffffffffffffff1916817bffffffffffffffffffffffffffffffffffffffffffffffffffffffff1916149150506116d9565b600190505b949350505050565b600073ffffffffffffffffffffffffffffffffffffffff168273ffffffffffffffffffffffffffffffffffffffff161415611751576040517f08c379a00000000000000000000000000000000000000000000000000000000081526004016117489061252c565b60405180910390fd5b61175a81610cf8565b1561179a576040517f08c379a00000000000000000000000000000000000000000000000000000000081526004016117919061244c565b60405180910390fd5b6117a660008383611545565b6001600360008473ffffffffffffffffffffffffffffffffffffffff1673ffffffffffffffffffffffffffffffffffffffff16815260200190815260200160002060008282546117f691906126cb565b92505081905550816002600083815260200190815260200160002060006101000a81548173ffffffffffffffffffffffffffffffffffffffff021916908373ffffffffffffffffffffffffffffffffffffffff160217905550808273ffffffffffffffffffffffffffffffffffffffff16600073ffffffffffffffffffffffffffffffffffffffff167fddf252ad1be2c89b69c2b068fc378daa952ba7f163c4a11628f55a4df523b3ef60405160405180910390a45050565b600080823b905060008111915050919050565b60006118d56118d084612658565b612627565b9050828152602081018484840111156118ed57600080fd5b6118f8848285612804565b509392505050565b60008135905061190f81612a04565b92915050565b60008083601f84011261192757600080fd5b8235905067ffffffffffffffff81111561194057600080fd5b60208301915083602082028301111561195857600080fd5b9250929050565b60008135905061196e81612a1b565b92915050565b60008135905061198381612a32565b92915050565b60008151905061199881612a32565b92915050565b600082601f8301126119af57600080fd5b81356119bf8482602086016118c2565b91505092915050565b6000813590506119d781612a49565b92915050565b6000602082840312156119ef57600080fd5b60006119fd84828501611900565b91505092915050565b60008060408385031215611a1957600080fd5b6000611a2785828601611900565b9250506020611a3885828601611900565b9150509250929050565b600080600060608486031215611a5757600080fd5b6000611a6586828701611900565b9350506020611a7686828701611900565b9250506040611a87868287016119c8565b9150509250925092565b60008060008060808587031215611aa757600080fd5b6000611ab587828801611900565b9450506020611ac687828801611900565b9350506040611ad7878288016119c8565b925050606085013567ffffffffffffffff811115611af457600080fd5b611b008782880161199e565b91505092959194509250565b60008060408385031215611b1f57600080fd5b6000611b2d85828601611900565b9250506020611b3e8582860161195f565b9150509250929050565b60008060408385031215611b5b57600080fd5b6000611b6985828601611900565b9250506020611b7a858286016119c8565b9150509250929050565b60008060008060608587031215611b9a57600080fd5b6000611ba887828801611900565b9450506020611bb9878288016119c8565b935050604085013567ffffffffffffffff811115611bd657600080fd5b611be287828801611915565b925092505092959194509250565b600060208284031215611c0257600080fd5b6000611c1084828501611974565b91505092915050565b600060208284031215611c2b57600080fd5b6000611c3984828501611989565b91505092915050565b600060208284031215611c5457600080fd5b6000611c62848285016119c8565b91505092915050565b611c7481612786565b82525050565b611c8b611c8682612786565b6128c1565b82525050565b611c9a81612798565b82525050565b611ca9816127a4565b82525050565b611cc0611cbb826127a4565b6128d3565b82525050565b6000611cd182612688565b611cdb818561269e565b9350611ceb818560208601612813565b611cf4816129e6565b840191505092915050565b6000611d0a82612693565b611d1481856126af565b9350611d24818560208601612813565b611d2d816129e6565b840191505092915050565b6000611d4382612693565b611d4d81856126c0565b9350611d5d818560208601612813565b80840191505092915050565b6000611d766032836126af565b91507f4552433732313a207472616e7366657220746f206e6f6e20455243373231526560008301527f63656976657220696d706c656d656e74657200000000000000000000000000006020830152604082019050919050565b6000611ddc601c836126af565b91507f4552433732313a20746f6b656e20616c7265616479206d696e746564000000006000830152602082019050919050565b6000611e1c6024836126af565b91507f4552433732313a207472616e7366657220746f20746865207a65726f2061646460008301527f72657373000000000000000000000000000000000000000000000000000000006020830152604082019050919050565b6000611e826019836126af565b91507f4552433732313a20617070726f766520746f2063616c6c6572000000000000006000830152602082019050919050565b6000611ec2602c836126af565b91507f4552433732313a206f70657261746f7220717565727920666f72206e6f6e657860008301527f697374656e7420746f6b656e00000000000000000000000000000000000000006020830152604082019050919050565b6000611f286038836126af565b91507f4552433732313a20617070726f76652063616c6c6572206973206e6f74206f7760008301527f6e6572206e6f7220617070726f76656420666f7220616c6c00000000000000006020830152604082019050919050565b6000611f8e602a836126af565b91507f4552433732313a2062616c616e636520717565727920666f7220746865207a6560008301527f726f2061646472657373000000000000000000000000000000000000000000006020830152604082019050919050565b6000611ff46029836126af565b91507f4552433732313a206f776e657220717565727920666f72206e6f6e657869737460008301527f656e7420746f6b656e00000000000000000000000000000000000000000000006020830152604082019050919050565b600061205a6020836126af565b91507f4552433732313a206d696e7420746f20746865207a65726f20616464726573736000830152602082019050919050565b600061209a602c836126af565b91507f4552433732313a20617070726f76656420717565727920666f72206e6f6e657860008301527f697374656e7420746f6b656e00000000000000000000000000000000000000006020830152604082019050919050565b60006121006014836126af565b91507f496e76616c6964206d65726b6c652070726f6f660000000000000000000000006000830152602082019050919050565b60006121406029836126af565b91507f4552433732313a207472616e73666572206f6620746f6b656e2074686174206960008301527f73206e6f74206f776e00000000000000000000000000000000000000000000006020830152604082019050919050565b60006121a6602f836126af565b91507f4552433732314d657461646174613a2055524920717565727920666f72206e6f60008301527f6e6578697374656e7420746f6b656e00000000000000000000000000000000006020830152604082019050919050565b600061220c6021836126af565b91507f4552433732313a20617070726f76616c20746f2063757272656e74206f776e6560008301527f72000000000000000000000000000000000000000000000000000000000000006020830152604082019050919050565b60006122726031836126af565b91507f4552433732313a207472616e736665722063616c6c6572206973206e6f74206f60008301527f776e6572206e6f7220617070726f7665640000000000000000000000000000006020830152604082019050919050565b6122d4816127fa565b82525050565b6122eb6122e6826127fa565b6128ef565b82525050565b60006122fd8285611caf565b60208201915061230d8284611caf565b6020820191508190509392505050565b60006123298285611d38565b91506123358284611d38565b91508190509392505050565b600061234d82856122da565b60208201915061235d8284611c7a565b6014820191508190509392505050565b60006020820190506123826000830184611c6b565b92915050565b600060808201905061239d6000830187611c6b565b6123aa6020830186611c6b565b6123b760408301856122cb565b81810360608301526123c98184611cc6565b905095945050505050565b60006020820190506123e96000830184611c91565b92915050565b60006020820190506124046000830184611ca0565b92915050565b600060208201905081810360008301526124248184611cff565b905092915050565b6000602082019050818103600083015261244581611d69565b9050919050565b6000602082019050818103600083015261246581611dcf565b9050919050565b6000602082019050818103600083015261248581611e0f565b9050919050565b600060208201905081810360008301526124a581611e75565b9050919050565b600060208201905081810360008301526124c581611eb5565b9050919050565b600060208201905081810360008301526124e581611f1b565b9050919050565b6000602082019050818103600083015261250581611f81565b9050919050565b6000602082019050818103600083015261252581611fe7565b9050919050565b600060208201905081810360008301526125458161204d565b9050919050565b600060208201905081810360008301526125658161208d565b9050919050565b60006020820190508181036000830152612585816120f3565b9050919050565b600060208201905081810360008301526125a581612133565b9050919050565b600060208201905081810360008301526125c581612199565b9050919050565b600060208201905081810360008301526125e5816121ff565b9050919050565b6000602082019050818103600083015261260581612265565b9050919050565b600060208201905061262160008301846122cb565b92915050565b6000604051905081810181811067ffffffffffffffff8211171561264e5761264d6129b7565b5b8060405250919050565b600067ffffffffffffffff821115612673576126726129b7565b5b601f19601f8301169050602081019050919050565b600081519050919050565b600081519050919050565b600082825260208201905092915050565b600082825260208201905092915050565b600081905092915050565b60006126d6826127fa565b91506126e1836127fa565b9250827fffffffffffffffffffffffffffffffffffffffffffffffffffffffffffffffff038211156127165761271561292a565b5b828201905092915050565b600061272c826127fa565b9150612737836127fa565b92508261274757612746612959565b5b828204905092915050565b600061275d826127fa565b9150612768836127fa565b92508282101561277b5761277a61292a565b5b828203905092915050565b6000612791826127da565b9050919050565b60008115159050919050565b6000819050919050565b60007fffffffff0000000000000000000000000000000000000000000000000000000082169050919050565b600073ffffffffffffffffffffffffffffffffffffffff82169050919050565b6000819050919050565b82818337600083830152505050565b60005b83811015612831578082015181840152602081019050612816565b83811115612840576000848401525b50505050565b6000600282049050600182168061285e57607f821691505b6020821081141561287257612871612988565b5b50919050565b6000612883826127fa565b91507fffffffffffffffffffffffffffffffffffffffffffffffffffffffffffffffff8214156128b6576128b561292a565b5b600182019050919050565b60006128cc826128dd565b9050919050565b6000819050919050565b60006128e8826129f7565b9050919050565b6000819050919050565b6000612904826127fa565b915061290f836127fa565b92508261291f5761291e612959565b5b828206905092915050565b7f4e487b7100000000000000000000000000000000000000000000000000000000600052601160045260246000fd5b7f4e487b7100000000000000000000000000000000000000000000000000000000600052601260045260246000fd5b7f4e487b7100000000000000000000000000000000000000000000000000000000600052602260045260246000fd5b7f4e487b7100000000000000000000000000000000000000000000000000000000600052604160045260246000fd5b6000601f19601f8301169050919050565b60008160601b9050919050565b612a0d81612786565b8114612a1857600080fd5b50565b612a2481612798565b8114612a2f57600080fd5b50565b612a3b816127ae565b8114612a4657600080fd5b50565b612a52816127fa565b8114612a5d57600080fd5b5056fe68747470733a2f2f676174657761792e70696e6174612e636c6f75642f697066732f516d54575678624d67565166734676416e4a4a6f45597835327270444c6f336a524e38414c576a5631736269594a23a26469706673582212209e622fb80c8f3adc77ae102c9ca5d7413c8e75f97dfb41825d3f6910432399b364736f6c63430008000033",
  "linkReferences": {},
  "deployedLinkReferences": {}
}