{
  "address": "0xB8276651612df04E48DA5f353c969aa1C0076099",
  "abi": [
    {
      "anonymous": false,
      "inputs": [
        {
          "indexed": false,
          "internalType": "address",
          "name": "account",
          "type": "address"
        }
      ],
      "name": "Paused",
      "type": "event"
    },
    {
      "anonymous": false,
      "inputs": [
        {
          "indexed": true,
          "internalType": "bytes32",
          "name": "role",
          "type": "bytes32"
        },
        {
          "indexed": true,
          "internalType": "address",
          "name": "account",
          "type": "address"
        },
        {
          "indexed": true,
          "internalType": "address",
          "name": "sender",
          "type": "address"
        }
      ],
      "name": "RoleGranted",
      "type": "event"
    },
    {
      "anonymous": false,
      "inputs": [
        {
          "indexed": true,
          "internalType": "bytes32",
          "name": "role",
          "type": "bytes32"
        },
        {
          "indexed": true,
          "internalType": "address",
          "name": "account",
          "type": "address"
        },
        {
          "indexed": true,
          "internalType": "address",
          "name": "sender",
          "type": "address"
        }
      ],
      "name": "RoleRevoked",
      "type": "event"
    },
    {
      "anonymous": false,
      "inputs": [
        {
          "indexed": false,
          "internalType": "address",
          "name": "account",
          "type": "address"
        }
      ],
      "name": "Unpaused",
      "type": "event"
    },
    {
      "inputs": [],
      "name": "DEFAULT_ADMIN_ROLE",
      "outputs": [
        {
          "internalType": "bytes32",
          "name": "",
          "type": "bytes32"
        }
      ],
      "stateMutability": "view",
      "type": "function"
    },
    {
      "inputs": [],
      "name": "OWNER_ROLE",
      "outputs": [
        {
          "internalType": "bytes32",
          "name": "",
          "type": "bytes32"
        }
      ],
      "stateMutability": "view",
      "type": "function"
    },
    {
      "inputs": [],
      "name": "PAUSER_ROLE",
      "outputs": [
        {
          "internalType": "bytes32",
          "name": "",
          "type": "bytes32"
        }
      ],
      "stateMutability": "view",
      "type": "function"
    },
    {
      "inputs": [
        {
          "internalType": "address",
          "name": "owner",
          "type": "address"
        }
      ],
      "name": "__BaseUpgradeablePausable__init",
      "outputs": [],
      "stateMutability": "nonpayable",
      "type": "function"
    },
    {
      "inputs": [],
      "name": "__PauserPausable__init",
      "outputs": [],
      "stateMutability": "nonpayable",
      "type": "function"
    },
    {
      "inputs": [],
      "name": "config",
      "outputs": [
        {
          "internalType": "contract GoldfinchConfig",
          "name": "",
          "type": "address"
        }
      ],
      "stateMutability": "view",
      "type": "function"
    },
    {
      "inputs": [
        {
          "internalType": "address",
          "name": "poolAddress",
          "type": "address"
        },
        {
          "internalType": "uint256",
          "name": "amount",
          "type": "uint256"
        },
        {
          "internalType": "address",
          "name": "addressToSendTo",
          "type": "address"
        }
      ],
      "name": "drawdown",
      "outputs": [],
      "stateMutability": "nonpayable",
      "type": "function"
    },
    {
      "inputs": [
        {
          "internalType": "address",
          "name": "poolAddress",
          "type": "address"
        },
        {
          "internalType": "uint256",
          "name": "amount",
          "type": "uint256"
        },
        {
          "internalType": "address",
          "name": "addressToSendTo",
          "type": "address"
        },
        {
          "internalType": "address",
          "name": "toToken",
          "type": "address"
        },
        {
          "internalType": "uint256",
          "name": "minTargetAmount",
          "type": "uint256"
        },
        {
          "internalType": "uint256[]",
          "name": "exchangeDistribution",
          "type": "uint256[]"
        }
      ],
      "name": "drawdownWithSwapOnOneInch",
      "outputs": [],
      "stateMutability": "nonpayable",
      "type": "function"
    },
    {
      "inputs": [
        {
          "internalType": "bytes32",
          "name": "role",
          "type": "bytes32"
        }
      ],
      "name": "getRoleAdmin",
      "outputs": [
        {
          "internalType": "bytes32",
          "name": "",
          "type": "bytes32"
        }
      ],
      "stateMutability": "view",
      "type": "function"
    },
    {
      "inputs": [
        {
          "internalType": "bytes32",
          "name": "role",
          "type": "bytes32"
        },
        {
          "internalType": "uint256",
          "name": "index",
          "type": "uint256"
        }
      ],
      "name": "getRoleMember",
      "outputs": [
        {
          "internalType": "address",
          "name": "",
          "type": "address"
        }
      ],
      "stateMutability": "view",
      "type": "function"
    },
    {
      "inputs": [
        {
          "internalType": "bytes32",
          "name": "role",
          "type": "bytes32"
        }
      ],
      "name": "getRoleMemberCount",
      "outputs": [
        {
          "internalType": "uint256",
          "name": "",
          "type": "uint256"
        }
      ],
      "stateMutability": "view",
      "type": "function"
    },
    {
      "inputs": [
        {
          "internalType": "bytes32",
          "name": "role",
          "type": "bytes32"
        },
        {
          "internalType": "address",
          "name": "account",
          "type": "address"
        }
      ],
      "name": "grantRole",
      "outputs": [],
      "stateMutability": "nonpayable",
      "type": "function"
    },
    {
      "inputs": [
        {
          "internalType": "bytes32",
          "name": "role",
          "type": "bytes32"
        },
        {
          "internalType": "address",
          "name": "account",
          "type": "address"
        }
      ],
      "name": "hasRole",
      "outputs": [
        {
          "internalType": "bool",
          "name": "",
          "type": "bool"
        }
      ],
      "stateMutability": "view",
      "type": "function"
    },
    {
      "inputs": [
        {
          "internalType": "address",
          "name": "owner",
          "type": "address"
        },
        {
          "internalType": "address",
          "name": "_config",
          "type": "address"
        }
      ],
      "name": "initialize",
      "outputs": [],
      "stateMutability": "nonpayable",
      "type": "function"
    },
    {
      "inputs": [],
      "name": "isAdmin",
      "outputs": [
        {
          "internalType": "bool",
          "name": "",
          "type": "bool"
        }
      ],
      "stateMutability": "view",
      "type": "function"
    },
    {
      "inputs": [
        {
          "internalType": "address",
          "name": "forwarder",
          "type": "address"
        }
      ],
      "name": "isTrustedForwarder",
      "outputs": [
        {
          "internalType": "bool",
          "name": "",
          "type": "bool"
        }
      ],
      "stateMutability": "view",
      "type": "function"
    },
    {
      "inputs": [
        {
          "internalType": "address",
          "name": "poolAddress",
          "type": "address"
        }
      ],
      "name": "lockJuniorCapital",
      "outputs": [],
      "stateMutability": "nonpayable",
      "type": "function"
    },
    {
      "inputs": [
        {
          "internalType": "address",
          "name": "poolAddress",
          "type": "address"
        }
      ],
      "name": "lockPool",
      "outputs": [],
      "stateMutability": "nonpayable",
      "type": "function"
    },
    {
      "inputs": [],
      "name": "pause",
      "outputs": [],
      "stateMutability": "nonpayable",
      "type": "function"
    },
    {
      "inputs": [],
      "name": "paused",
      "outputs": [
        {
          "internalType": "bool",
          "name": "",
          "type": "bool"
        }
      ],
      "stateMutability": "view",
      "type": "function"
    },
    {
      "inputs": [
        {
          "internalType": "address",
          "name": "poolAddress",
          "type": "address"
        },
        {
          "internalType": "uint256",
          "name": "amount",
          "type": "uint256"
        }
      ],
      "name": "pay",
      "outputs": [],
      "stateMutability": "nonpayable",
      "type": "function"
    },
    {
      "inputs": [
        {
          "internalType": "address",
          "name": "poolAddress",
          "type": "address"
        },
        {
          "internalType": "uint256",
          "name": "amount",
          "type": "uint256"
        }
      ],
      "name": "payInFull",
      "outputs": [],
      "stateMutability": "nonpayable",
      "type": "function"
    },
    {
      "inputs": [
        {
          "internalType": "address[]",
          "name": "pools",
          "type": "address[]"
        },
        {
          "internalType": "uint256[]",
          "name": "amounts",
          "type": "uint256[]"
        }
      ],
      "name": "payMultiple",
      "outputs": [],
      "stateMutability": "nonpayable",
      "type": "function"
    },
    {
      "inputs": [
        {
          "internalType": "address[]",
          "name": "pools",
          "type": "address[]"
        },
        {
          "internalType": "uint256[]",
          "name": "minAmounts",
          "type": "uint256[]"
        },
        {
          "internalType": "uint256",
          "name": "originAmount",
          "type": "uint256"
        },
        {
          "internalType": "address",
          "name": "fromToken",
          "type": "address"
        },
        {
          "internalType": "uint256[]",
          "name": "exchangeDistribution",
          "type": "uint256[]"
        }
      ],
      "name": "payMultipleWithSwapOnOneInch",
      "outputs": [],
      "stateMutability": "nonpayable",
      "type": "function"
    },
    {
      "inputs": [
        {
          "internalType": "address",
          "name": "poolAddress",
          "type": "address"
        },
        {
          "internalType": "uint256",
          "name": "originAmount",
          "type": "uint256"
        },
        {
          "internalType": "address",
          "name": "fromToken",
          "type": "address"
        },
        {
          "internalType": "uint256",
          "name": "minTargetAmount",
          "type": "uint256"
        },
        {
          "internalType": "uint256[]",
          "name": "exchangeDistribution",
          "type": "uint256[]"
        }
      ],
      "name": "payWithSwapOnOneInch",
      "outputs": [],
      "stateMutability": "nonpayable",
      "type": "function"
    },
    {
      "inputs": [
        {
          "internalType": "bytes32",
          "name": "role",
          "type": "bytes32"
        },
        {
          "internalType": "address",
          "name": "account",
          "type": "address"
        }
      ],
      "name": "renounceRole",
      "outputs": [],
      "stateMutability": "nonpayable",
      "type": "function"
    },
    {
      "inputs": [
        {
          "internalType": "bytes32",
          "name": "role",
          "type": "bytes32"
        },
        {
          "internalType": "address",
          "name": "account",
          "type": "address"
        }
      ],
      "name": "revokeRole",
      "outputs": [],
      "stateMutability": "nonpayable",
      "type": "function"
    },
    {
      "inputs": [
        {
          "internalType": "address",
          "name": "token",
          "type": "address"
        },
        {
          "internalType": "address",
          "name": "to",
          "type": "address"
        },
        {
          "internalType": "uint256",
          "name": "amount",
          "type": "uint256"
        }
      ],
      "name": "transferERC20",
      "outputs": [],
      "stateMutability": "nonpayable",
      "type": "function"
    },
    {
      "inputs": [],
      "name": "trustedForwarder",
      "outputs": [
        {
          "internalType": "address",
          "name": "",
          "type": "address"
        }
      ],
      "stateMutability": "view",
      "type": "function"
    },
    {
      "inputs": [],
      "name": "unpause",
      "outputs": [],
      "stateMutability": "nonpayable",
      "type": "function"
    },
    {
      "inputs": [],
      "name": "versionRecipient",
      "outputs": [
        {
          "internalType": "string",
          "name": "",
          "type": "string"
        }
      ],
      "stateMutability": "view",
      "type": "function"
    }
  ],
  "transactionHash": "0xa44cf23280f8c1977fa03384de63e914a515585dce3cbab2146689d33923a652",
  "args": [],
  "solcInputHash": "60bf04b8c24669590397de1969e3a29e",
  "bytecode": "0x608060405234801561001057600080fd5b5061285e806100206000396000f3fe608060405234801561001057600080fd5b50600436106101e55760003560e01c80636cbbbbc21161010f578063a217fddf116100a2578063ca15c87311610071578063ca15c873146103c7578063d547741f146103da578063e58378bb146103ed578063e63ab1e9146103f5576101e5565b8063a217fddf14610391578063b6db75a014610399578063c4076876146103a1578063c8bc38ae146103b4576101e5565b80638b032c64116100de5780638b032c64146103455780639010d07c1461035857806391d148541461036b5780639db5dbe41461037e576101e5565b80636cbbbbc21461030d57806379502c55146103205780637da0a877146103355780638456cb591461033d576101e5565b8063485cc9551161018757806356b7b73a1161015657806356b7b73a146102bf578063572b6c05146102d25780635c975abb146102f25780635e3e9fad146102fa576101e5565b8063485cc9551461027c578063486ff0cd1461028f5780634a865c5b146102a4578063526d81f6146102b7576101e5565b80632f2ff15d116101c35780632f2ff15d1461023b57806336568abe1461024e5780633f17474a146102615780633f4ba83a14610274576101e5565b8063097616a3146101ea578063207d0636146101ff578063248a9ca314610212575b600080fd5b6101fd6101f8366004611e52565b6103fd565b005b6101fd61020d366004611e52565b610536565b6102256102203660046121b2565b6105b0565b604051610232919061230d565b60405180910390f35b6101fd6102493660046121ca565b6105c5565b6101fd61025c3660046121ca565b610609565b6101fd61026f366004611f6e565b61064b565b6101fd61078a565b6101fd61028a366004611e8a565b6107ca565b610297610a52565b6040516102329190612316565b6101fd6102b2366004611e52565b610a72565b6101fd610ad1565b6101fd6102cd366004611ffb565b610b5c565b6102e56102e0366004611e52565b610c52565b6040516102329190612302565b6102e5610c67565b6101fd610308366004611f2d565b610c70565b6101fd61031b3660046120de565b610d41565b610328610f06565b6040516102329190612243565b610328610f16565b6101fd610f26565b6101fd610353366004611f02565b610f64565b6103286103663660046121ee565b61115c565b6102e56103793660046121ca565b61117d565b6101fd61038c366004611ec2565b611195565b610225611204565b6102e5611209565b6101fd6103af366004611f02565b61122a565b6101fd6103c2366004612075565b61131e565b6102256103d53660046121b2565b611490565b6101fd6103e83660046121ca565b6114a7565b6102256114e1565b6102256114f3565b600054610100900460ff16806104165750610416611505565b80610424575060005460ff16155b6104495760405162461bcd60e51b815260040161044090612688565b60405180910390fd5b600054610100900460ff16158015610474576000805460ff1961ff0019909116610100171660011790555b6001600160a01b03821661049a5760405162461bcd60e51b815260040161044090612611565b6104a261150b565b6104aa61158c565b6104b2611618565b6104ca6000805160206127e9833981519152836105ff565b6104e2600080516020612809833981519152836105ff565b6105086000805160206128098339815191526000805160206127e98339815191526116a7565b6105206000805160206127e9833981519152806116a7565b8015610532576000805461ff00191690555b5050565b61053e611209565b61055a5760405162461bcd60e51b81526004016104409061270d565b806001600160a01b0316634026478e6040518163ffffffff1660e01b8152600401600060405180830381600087803b15801561059557600080fd5b505af11580156105a9573d6000803e3d6000fd5b5050505050565b60009081526065602052604090206002015490565b6000828152606560205260409020600201546105e3906103796116bc565b6105ff5760405162461bcd60e51b81526004016104409061238b565b61053282826116c6565b6106116116bc565b6001600160a01b0316816001600160a01b0316146106415760405162461bcd60e51b815260040161044090612758565b610532828261172f565b610653611209565b61066f5760405162461bcd60e51b81526004016104409061270d565b60405163a079a4dd60e01b81526001600160a01b0388169063a079a4dd9061069b90899060040161230d565b600060405180830381600087803b1580156106b557600080fd5b505af11580156106c9573d6000803e3d6000fd5b50506101c4546106f192506106e791506001600160a01b0316611798565b8588868686611818565b6001600160a01b038516158061070f57506001600160a01b03851630145b1561071f5761071c6116bc565b94505b6060306040516024016107329190612243565b60408051601f198184030181529190526020810180516001600160e01b03166370a0823160e01b1790529050600061077261076d8784611881565b61192a565b905061077f868883611195565b505050505050505050565b6107a46000805160206128098339815191526103796116bc565b6107c05760405162461bcd60e51b815260040161044090612494565b6107c8611931565b565b600054610100900460ff16806107e357506107e3611505565b806107f1575060005460ff16155b61080d5760405162461bcd60e51b815260040161044090612688565b600054610100900460ff16158015610838576000805460ff1961ff0019909116610100171660011790555b6001600160a01b0383161580159061085857506001600160a01b03821615155b6108745760405162461bcd60e51b815260040161044090612408565b61087d836103fd565b6101c480546001600160a01b0319166001600160a01b0384811691909117918290556108a9911661199d565b6101c380546001600160a01b0319166001600160a01b039283161790556101c4546000916108d791166119b5565b6101c4549091506000906108f3906001600160a01b03166119cd565b60405163095ea7b360e01b81529091506001600160a01b0382169063095ea7b390610926908590600019906004016122e9565b602060405180830381600087803b15801561094057600080fd5b505af1158015610954573d6000803e3d6000fd5b505050506040513d601f19601f820116820180604052508101906109789190612192565b506060826000196040516024016109909291906122e9565b60408051601f198184030181529190526020810180516001600160e01b031663095ea7b360e01b17905290506109da73dac17f958d2ee523a2206206994597c13d831ec782611881565b506109f9734fabb145d64652a948d72533023f6e7a623c7c5382611881565b50610a1873056fd409e1d7a124bd7017459dfea2f387b6d5cd82611881565b50610a37736b175474e89094c44da98b954eedeac495271d0f82611881565b505050508015610a4d576000805461ff00191690555b505050565b6040805180820190915260058152640322e302e360dc1b60208201525b90565b610a7a611209565b610a965760405162461bcd60e51b81526004016104409061270d565b806001600160a01b0316630881806c6040518163ffffffff1660e01b8152600401600060405180830381600087803b15801561059557600080fd5b600054610100900460ff1680610aea5750610aea611505565b80610af8575060005460ff16155b610b145760405162461bcd60e51b815260040161044090612688565b600054610100900460ff16158015610b3f576000805460ff1961ff0019909116610100171660011790555b610b4761158c565b8015610b59576000805461ff00191690555b50565b610b64611209565b610b805760405162461bcd60e51b81526004016104409061270d565b610b9384610b8c6116bc565b30886119d8565b6101c454600090610bac906001600160a01b03166119cd565b9050610bbc858288878787611818565b6040516370a0823160e01b81526000906001600160a01b038316906370a0823190610beb903090600401612243565b60206040518083038186803b158015610c0357600080fd5b505afa158015610c17573d6000803e3d6000fd5b505050506040513d601f19601f82011682018060405250810190610c3b919061220f565b9050610c48828983611a2d565b5050505050505050565b6101c3546001600160a01b0390811691161490565b60975460ff1690565b610c78611209565b610c945760405162461bcd60e51b81526004016104409061270d565b60405163a079a4dd60e01b81526001600160a01b0384169063a079a4dd90610cc090859060040161230d565b600060405180830381600087803b158015610cda57600080fd5b505af1158015610cee573d6000803e3d6000fd5b505050506001600160a01b0381161580610d1057506001600160a01b03811630145b15610d2057610d1d6116bc565b90505b6101c454610a4d90610d3a906001600160a01b0316611798565b8284611195565b610d49611209565b610d655760405162461bcd60e51b81526004016104409061270d565b868514610d845760405162461bcd60e51b815260040161044090612517565b6000805b86811015610dbf57610db5888883818110610d9f57fe5b9050602002013583611b9290919063ffffffff16565b9150600101610d88565b50610dcc84610b8c6116bc565b6101c454600090610de5906001600160a01b03166119cd565b9050610df5858288858888611818565b60005b87811015610e4557610e3d828c8c84818110610e1057fe5b9050602002016020810190610e259190611e52565b8b8b85818110610e3157fe5b90506020020135611a2d565b600101610df8565b506040516370a0823160e01b81526000906001600160a01b038316906370a0823190610e75903090600401612243565b60206040518083038186803b158015610e8d57600080fd5b505afa158015610ea1573d6000803e3d6000fd5b505050506040513d601f19601f82011682018060405250810190610ec5919061220f565b90508015610ef957610ef9828c8c6000818110610ede57fe5b9050602002016020810190610ef39190611e52565b83611a2d565b5050505050505050505050565b6101c4546001600160a01b031681565b6101c3546001600160a01b031681565b610f406000805160206128098339815191526103796116bc565b610f5c5760405162461bcd60e51b815260040161044090612494565b6107c8611bb7565b610f6c611209565b610f885760405162461bcd60e51b81526004016104409061270d565b6101c454600090610fa1906001600160a01b03166119cd565b90506000816001600160a01b03166323b872dd610fbc6116bc565b30866040518463ffffffff1660e01b8152600401610fdc93929190612257565b602060405180830381600087803b158015610ff657600080fd5b505af115801561100a573d6000803e3d6000fd5b505050506040513d601f19601f8201168201806040525081019061102e9190612192565b90508061104d5760405162461bcd60e51b8152600401610440906126d6565b611058828585611a2d565b836001600160a01b03166347195e136040518163ffffffff1660e01b815260040160206040518083038186803b15801561109157600080fd5b505afa1580156110a5573d6000803e3d6000fd5b505050506040513d601f19601f820116820180604052508101906110c99190611e6e565b6001600160a01b031663b69ef8a86040518163ffffffff1660e01b815260040160206040518083038186803b15801561110157600080fd5b505afa158015611115573d6000803e3d6000fd5b505050506040513d601f19601f82011682018060405250810190611139919061220f565b156111565760405162461bcd60e51b815260040161044090612646565b50505050565b60008281526065602052604081206111749083611c10565b90505b92915050565b60008281526065602052604081206111749083611c1c565b61119d611209565b6111b95760405162461bcd60e51b81526004016104409061270d565b606082826040516024016111ce9291906122e9565b60408051601f198184030181529190526020810180516001600160e01b031663a9059cbb60e01b17905290506105a98482611881565b600081565b60006112256000805160206127e98339815191526103796116bc565b905090565b611232611209565b61124e5760405162461bcd60e51b81526004016104409061270d565b6101c454600090611267906001600160a01b03166119cd565b90506000816001600160a01b03166323b872dd6112826116bc565b30866040518463ffffffff1660e01b81526004016112a293929190612257565b602060405180830381600087803b1580156112bc57600080fd5b505af11580156112d0573d6000803e3d6000fd5b505050506040513d601f19601f820116820180604052508101906112f49190612192565b9050806113135760405162461bcd60e51b8152600401610440906126d6565b611156828585611a2d565b611326611209565b6113425760405162461bcd60e51b81526004016104409061270d565b8281146113615760405162461bcd60e51b815260040161044090612517565b6000805b828110156113865761137c848483818110610d9f57fe5b9150600101611365565b506101c4546000906113a0906001600160a01b03166119cd565b90506000816001600160a01b03166323b872dd6113bb6116bc565b30866040518463ffffffff1660e01b81526004016113db93929190612257565b602060405180830381600087803b1580156113f557600080fd5b505af1158015611409573d6000803e3d6000fd5b505050506040513d601f19601f8201168201806040525081019061142d9190612192565b90508061144c5760405162461bcd60e51b8152600401610440906126d6565b60005b84811015610c48576114888389898481811061146757fe5b905060200201602081019061147c9190611e52565b888885818110610e3157fe5b60010161144f565b600081815260656020526040812061117790611c31565b6000828152606560205260409020600201546114c5906103796116bc565b6106415760405162461bcd60e51b815260040161044090612597565b6000805160206127e983398151915281565b60008051602061280983398151915281565b303b1590565b600054610100900460ff16806115245750611524611505565b80611532575060005460ff16155b61154e5760405162461bcd60e51b815260040161044090612688565b600054610100900460ff16158015610b47576000805460ff1961ff0019909116610100171660011790558015610b59576000805461ff001916905550565b600054610100900460ff16806115a557506115a5611505565b806115b3575060005460ff16155b6115cf5760405162461bcd60e51b815260040161044090612688565b600054610100900460ff161580156115fa576000805460ff1961ff0019909116610100171660011790555b6097805460ff191690558015610b59576000805461ff001916905550565b600054610100900460ff16806116315750611631611505565b8061163f575060005460ff16155b61165b5760405162461bcd60e51b815260040161044090612688565b600054610100900460ff16158015611686576000805460ff1961ff0019909116610100171660011790555b60c9805460ff191660011790558015610b59576000805461ff001916905550565b60009182526065602052604090912060020155565b6000611225611c3c565b60008281526065602052604090206116de9082611c6e565b15610532576116eb6116bc565b6001600160a01b0316816001600160a01b0316837f2f8788117e7eff1d82e926ec794901d17c78024a50270940304540a733656f0d60405160405180910390a45050565b60008281526065602052604090206117479082611c83565b15610532576117546116bc565b6001600160a01b0316816001600160a01b0316837ff6391f5c32d9c69d2a47ea670b442974b53935d1edc7fd64eb21e047a839171b60405160405180910390a45050565b60006001600160a01b03821663b93f9b0a60055b6040518263ffffffff1660e01b81526004016117c8919061230d565b60206040518083038186803b1580156117e057600080fd5b505afa1580156117f4573d6000803e3d6000fd5b505050506040513d601f19601f820116820180604052508101906111779190611e6e565b60608686868686866000604051602401611838979695949392919061227b565b60408051601f198184030181529190526020810180516001600160e01b0316637153a8af60e11b1790526101c454909150610c489061187f906001600160a01b03166119b5565b825b606060006060846001600160a01b03168460405161189f9190612227565b6000604051808303816000865af19150503d80600081146118dc576040519150601f19603f3d011682016040523d82523d6000602084013e6118e1565b606091505b509092509050811580156118f6575060008151115b15611905573d6000803e3d6000fd5b816119225760405162461bcd60e51b815260040161044090612560565b949350505050565b6020015190565b60975460ff166119535760405162461bcd60e51b8152600401610440906123da565b6097805460ff191690557f5db9ee0a495bf2e6ff9c91a7834c1ba4fdd244a5e8aa4e537bd38aeae4b073aa6119866116bc565b6040516119939190612243565b60405180910390a1565b60006001600160a01b03821663b93f9b0a60096117ac565b60006001600160a01b03821663b93f9b0a60086117ac565b600061117782611798565b60608383836040516024016119ef93929190612257565b60408051601f198184030181529190526020810180516001600160e01b03166323b872dd60e01b1790529050611a258582611881565b505050505050565b60008290506000846001600160a01b031663a9059cbb836001600160a01b03166347195e136040518163ffffffff1660e01b815260040160206040518083038186803b158015611a7c57600080fd5b505afa158015611a90573d6000803e3d6000fd5b505050506040513d601f19601f82011682018060405250810190611ab49190611e6e565b856040518363ffffffff1660e01b8152600401611ad29291906122e9565b602060405180830381600087803b158015611aec57600080fd5b505af1158015611b00573d6000803e3d6000fd5b505050506040513d601f19601f82011682018060405250810190611b249190612192565b905080611b435760405162461bcd60e51b815260040161044090612452565b816001600160a01b031663a6a25e886040518163ffffffff1660e01b8152600401600060405180830381600087803b158015611b7e57600080fd5b505af115801561077f573d6000803e3d6000fd5b6000828201838110156111745760405162461bcd60e51b8152600401610440906124e0565b60975460ff1615611bda5760405162461bcd60e51b8152600401610440906125e7565b6097805460ff191660011790557f62e78cea01bee320cd4e420270b5ea74000d11b0c9f74754ebdbfc544b05a2586119866116bc565b60006111748383611c98565b6000611174836001600160a01b038416611cdd565b600061117782611cf5565b600060183610801590611c535750611c5333610c52565b15611c67575060131936013560601c610a6f565b5033610a6f565b6000611174836001600160a01b038416611cf9565b6000611174836001600160a01b038416611d43565b81546000908210611cbb5760405162461bcd60e51b815260040161044090612349565b826000018281548110611cca57fe5b9060005260206000200154905092915050565b60009081526001919091016020526040902054151590565b5490565b6000611d058383611cdd565b611d3b57508154600181810184556000848152602080822090930184905584548482528286019093526040902091909155611177565b506000611177565b60008181526001830160205260408120548015611dff5783546000198083019190810190600090879083908110611d7657fe5b9060005260206000200154905080876000018481548110611d9357fe5b600091825260208083209091019290925582815260018981019092526040902090840190558654879080611dc357fe5b60019003818190600052602060002001600090559055866001016000878152602001908152602001600020600090556001945050505050611177565b6000915050611177565b60008083601f840112611e1a578182fd5b50813567ffffffffffffffff811115611e31578182fd5b6020830191508360208083028501011115611e4b57600080fd5b9250929050565b600060208284031215611e63578081fd5b8135611174816127d3565b600060208284031215611e7f578081fd5b8151611174816127d3565b60008060408385031215611e9c578081fd5b8235611ea7816127d3565b91506020830135611eb7816127d3565b809150509250929050565b600080600060608486031215611ed6578081fd5b8335611ee1816127d3565b92506020840135611ef1816127d3565b929592945050506040919091013590565b60008060408385031215611f14578182fd5b8235611f1f816127d3565b946020939093013593505050565b600080600060608486031215611f41578283fd5b8335611f4c816127d3565b9250602084013591506040840135611f63816127d3565b809150509250925092565b600080600080600080600060c0888a031215611f88578283fd5b8735611f93816127d3565b9650602088013595506040880135611faa816127d3565b94506060880135611fba816127d3565b93506080880135925060a088013567ffffffffffffffff811115611fdc578283fd5b611fe88a828b01611e09565b989b979a50959850939692959293505050565b60008060008060008060a08789031215612013578182fd5b863561201e816127d3565b9550602087013594506040870135612035816127d3565b935060608701359250608087013567ffffffffffffffff811115612057578283fd5b61206389828a01611e09565b979a9699509497509295939492505050565b6000806000806040858703121561208a578384fd5b843567ffffffffffffffff808211156120a1578586fd5b6120ad88838901611e09565b909650945060208701359150808211156120c5578384fd5b506120d287828801611e09565b95989497509550505050565b60008060008060008060008060a0898b0312156120f9578081fd5b883567ffffffffffffffff80821115612110578283fd5b61211c8c838d01611e09565b909a50985060208b0135915080821115612134578283fd5b6121408c838d01611e09565b909850965060408b0135955060608b0135915061215c826127d3565b90935060808a01359080821115612171578283fd5b5061217e8b828c01611e09565b999c989b5096995094979396929594505050565b6000602082840312156121a3578081fd5b81518015158114611174578182fd5b6000602082840312156121c3578081fd5b5035919050565b600080604083850312156121dc578182fd5b823591506020830135611eb7816127d3565b60008060408385031215612200578182fd5b50508035926020909101359150565b600060208284031215612220578081fd5b5051919050565b600082516122398184602087016127a7565b9190910192915050565b6001600160a01b0391909116815260200190565b6001600160a01b039384168152919092166020820152604081019190915260600190565b6001600160a01b03888116825287166020820152604081018690526060810185905260c060808201819052810183905260006001600160fb1b038411156122c0578081fd5b60208402808660e0850137820160e00190815260ff9290921660a0909101529695505050505050565b6001600160a01b03929092168252602082015260400190565b901515815260200190565b90815260200190565b60006020825282518060208401526123358160408501602087016127a7565b601f01601f19169190910160400192915050565b60208082526022908201527f456e756d657261626c655365743a20696e646578206f7574206f6620626f756e604082015261647360f01b606082015260800190565b6020808252602f908201527f416363657373436f6e74726f6c3a2073656e646572206d75737420626520616e60408201526e0818591b5a5b881d1bc819dc985b9d608a1b606082015260800190565b60208082526014908201527314185d5cd8589b194e881b9bdd081c185d5cd95960621b604082015260600190565b6020808252602a908201527f4f776e657220616e6420636f6e666967206164647265737365732063616e6e6f6040820152697420626520656d70747960b01b606082015260800190565b60208082526022908201527f55534443205472616e7366657220746f206372656469746c696e65206661696c604082015261195960f21b606082015260800190565b6020808252602c908201527f4d75737420686176652070617573657220726f6c6520746f20706572666f726d60408201526b103a3434b99030b1ba34b7b760a11b606082015260800190565b6020808252601b908201527f536166654d6174683a206164646974696f6e206f766572666c6f770000000000604082015260600190565b60208082526029908201527f506f6f6c7320616e6420616d6f756e7473206d757374206265207468652073616040820152680daca40d8cadccee8d60bb1b606082015260800190565b6020808252601a908201527f564d3a2077616c6c657420696e766f6b65207265766572746564000000000000604082015260600190565b60208082526030908201527f416363657373436f6e74726f6c3a2073656e646572206d75737420626520616e60408201526f2061646d696e20746f207265766f6b6560801b606082015260800190565b60208082526010908201526f14185d5cd8589b194e881c185d5cd95960821b604082015260600190565b6020808252818101527f4f776e65722063616e6e6f7420626520746865207a65726f2061646472657373604082015260600190565b60208082526022908201527f4661696c656420746f2066756c6c7920706179206f6666206372656469746c696040820152616e6560f01b606082015260800190565b6020808252602e908201527f436f6e747261637420696e7374616e63652068617320616c726561647920626560408201526d195b881a5b9a5d1a585b1a5e995960921b606082015260800190565b60208082526017908201527f4661696c656420746f207472616e736665722055534443000000000000000000604082015260600190565b6020808252602b908201527f4d75737420686176652061646d696e20726f6c6520746f20706572666f726d2060408201526a3a3434b99030b1ba34b7b760a91b606082015260800190565b6020808252602f908201527f416363657373436f6e74726f6c3a2063616e206f6e6c792072656e6f756e636560408201526e103937b632b9903337b91039b2b63360891b606082015260800190565b60005b838110156127c25781810151838201526020016127aa565b838111156111565750506000910152565b6001600160a01b0381168114610b5957600080fdfeb19546dff01e856fb3f010c267a7b1c60363cf8a4664e21cc89c26224620214e65d7a28e3265b37a6474929f336521b332c1681b933f6cb9f3376673440d862aa2646970667358221220637e144d723f266dea8ac71839f87d12ae7b1c47858a1370d044ffd0db7891ad64736f6c634300060c0033",
  "devdoc": {
    "author": "Goldfinch",
    "kind": "dev",
    "methods": {
      "drawdown(address,uint256,address)": {
        "params": {
          "addressToSendTo": "The address where they would like the funds sent. If the zero address is passed,  it will be defaulted to the contracts address (msg.sender). This is a convenience feature for when they would  like the funds sent to an exchange or alternate wallet, different from the authentication address",
          "amount": "The amount, in USDC atomic units, that a borrower wishes to drawdown",
          "poolAddress": "The creditline from which they would like to drawdown"
        }
      },
      "getRoleAdmin(bytes32)": {
        "details": "Returns the admin role that controls `role`. See {grantRole} and {revokeRole}. To change a role's admin, use {_setRoleAdmin}."
      },
      "getRoleMember(bytes32,uint256)": {
        "details": "Returns one of the accounts that have `role`. `index` must be a value between 0 and {getRoleMemberCount}, non-inclusive. Role bearers are not sorted in any particular way, and their ordering may change at any point. WARNING: When using {getRoleMember} and {getRoleMemberCount}, make sure you perform all queries on the same block. See the following https://forum.openzeppelin.com/t/iterating-over-elements-on-enumerableset-in-openzeppelin-contracts/2296[forum post] for more information."
      },
      "getRoleMemberCount(bytes32)": {
        "details": "Returns the number of accounts that have `role`. Can be used together with {getRoleMember} to enumerate all bearers of a role."
      },
      "grantRole(bytes32,address)": {
        "details": "Grants `role` to `account`. If `account` had not been already granted `role`, emits a {RoleGranted} event. Requirements: - the caller must have ``role``'s admin role."
      },
      "hasRole(bytes32,address)": {
        "details": "Returns `true` if `account` has been granted `role`."
      },
      "pause()": {
        "details": "Pauses all functions guarded by Pause See {Pausable-_pause}. Requirements: - the caller must have the PAUSER_ROLE."
      },
      "paused()": {
        "details": "Returns true if the contract is paused, and false otherwise."
      },
      "pay(address,uint256)": {
        "params": {
          "amount": "The amount, in USDC atomic units, that the borrower wishes to pay",
          "poolAddress": "The credit line to be paid back"
        }
      },
      "renounceRole(bytes32,address)": {
        "details": "Revokes `role` from the calling account. Roles are often managed via {grantRole} and {revokeRole}: this function's purpose is to provide a mechanism for accounts to lose their privileges if they are compromised (such as when a trusted device is misplaced). If the calling account had been granted `role`, emits a {RoleRevoked} event. Requirements: - the caller must be `account`."
      },
      "revokeRole(bytes32,address)": {
        "details": "Revokes `role` from `account`. If `account` had been granted `role`, emits a {RoleRevoked} event. Requirements: - the caller must have ``role``'s admin role."
      },
      "unpause()": {
        "details": "Unpauses the contract See {Pausable-_unpause}. Requirements: - the caller must have the Pauser role"
      }
    },
    "title": "Goldfinch's Borrower contract",
    "version": 1
  },
  "userdoc": {
    "kind": "user",
    "methods": {
      "drawdown(address,uint256,address)": {
        "notice": "Allows a borrower to drawdown on their creditline through the CreditDesk."
      },
      "isTrustedForwarder(address)": {
        "notice": "return if the forwarder is trusted to forward relayed transactions to us. the forwarder is required to verify the sender's signature, and verify the call is not a replay."
      },
      "pay(address,uint256)": {
        "notice": "Allows a borrower to payback loans by calling the `pay` function directly on the CreditDesk"
      }
    },
    "notice": "These contracts represent the a convenient way for a borrower to interact with Goldfinch  They are 100% optional. However, they let us add many sophisticated and convient features for borrowers  while still keeping our core protocol small and secure. We therefore expect most borrowers will use them.  This contract is the \"official\" borrower contract that will be maintained by Goldfinch governance. However,  in theory, anyone can fork or create their own version, or not use any contract at all. The core functionality  is completely agnostic to whether it is interacting with a contract or an externally owned account (EOA).",
    "version": 1
  },
  "storageLayout": {
    "storage": [
      {
        "astId": 151,
        "contract": "contracts/protocol/periphery/Borrower.sol:Borrower",
        "label": "initialized",
        "offset": 0,
        "slot": "0",
        "type": "t_bool"
      },
      {
        "astId": 154,
        "contract": "contracts/protocol/periphery/Borrower.sol:Borrower",
        "label": "initializing",
        "offset": 1,
        "slot": "0",
        "type": "t_bool"
      },
      {
        "astId": 219,
        "contract": "contracts/protocol/periphery/Borrower.sol:Borrower",
        "label": "______gap",
        "offset": 0,
        "slot": "1",
        "type": "t_array(t_uint256)50_storage"
      },
      {
        "astId": 144,
        "contract": "contracts/protocol/periphery/Borrower.sol:Borrower",
        "label": "__gap",
        "offset": 0,
        "slot": "51",
        "type": "t_array(t_uint256)50_storage"
      },
      {
        "astId": 264,
        "contract": "contracts/protocol/periphery/Borrower.sol:Borrower",
        "label": "_roles",
        "offset": 0,
        "slot": "101",
        "type": "t_mapping(t_bytes32,t_struct(RoleData)260_storage)"
      },
      {
        "astId": 509,
        "contract": "contracts/protocol/periphery/Borrower.sol:Borrower",
        "label": "__gap",
        "offset": 0,
        "slot": "102",
        "type": "t_array(t_uint256)49_storage"
      },
      {
        "astId": 4201,
        "contract": "contracts/protocol/periphery/Borrower.sol:Borrower",
        "label": "_paused",
        "offset": 0,
        "slot": "151",
        "type": "t_bool"
      },
      {
        "astId": 4290,
        "contract": "contracts/protocol/periphery/Borrower.sol:Borrower",
        "label": "__gap",
        "offset": 0,
        "slot": "152",
        "type": "t_array(t_uint256)49_storage"
      },
      {
        "astId": 4299,
        "contract": "contracts/protocol/periphery/Borrower.sol:Borrower",
        "label": "_notEntered",
        "offset": 0,
        "slot": "201",
        "type": "t_bool"
      },
      {
        "astId": 4340,
        "contract": "contracts/protocol/periphery/Borrower.sol:Borrower",
        "label": "__gap",
        "offset": 0,
        "slot": "202",
        "type": "t_array(t_uint256)49_storage"
      },
      {
        "astId": 9348,
        "contract": "contracts/protocol/periphery/Borrower.sol:Borrower",
        "label": "__gap1",
        "offset": 0,
        "slot": "251",
        "type": "t_array(t_uint256)50_storage"
      },
      {
        "astId": 9352,
        "contract": "contracts/protocol/periphery/Borrower.sol:Borrower",
        "label": "__gap2",
        "offset": 0,
        "slot": "301",
        "type": "t_array(t_uint256)50_storage"
      },
      {
        "astId": 9356,
        "contract": "contracts/protocol/periphery/Borrower.sol:Borrower",
        "label": "__gap3",
        "offset": 0,
        "slot": "351",
        "type": "t_array(t_uint256)50_storage"
      },
      {
        "astId": 9360,
        "contract": "contracts/protocol/periphery/Borrower.sol:Borrower",
        "label": "__gap4",
        "offset": 0,
        "slot": "401",
        "type": "t_array(t_uint256)50_storage"
      },
      {
        "astId": 7,
        "contract": "contracts/protocol/periphery/Borrower.sol:Borrower",
        "label": "trustedForwarder",
        "offset": 0,
        "slot": "451",
        "type": "t_address"
      },
      {
        "astId": 20706,
        "contract": "contracts/protocol/periphery/Borrower.sol:Borrower",
        "label": "config",
        "offset": 0,
        "slot": "452",
        "type": "t_contract(GoldfinchConfig)13851"
      }
    ],
    "types": {
      "t_address": {
        "encoding": "inplace",
        "label": "address",
        "numberOfBytes": "20"
      },
      "t_array(t_bytes32)dyn_storage": {
        "base": "t_bytes32",
        "encoding": "dynamic_array",
        "label": "bytes32[]",
        "numberOfBytes": "32"
      },
      "t_array(t_uint256)49_storage": {
        "base": "t_uint256",
        "encoding": "inplace",
        "label": "uint256[49]",
        "numberOfBytes": "1568"
      },
      "t_array(t_uint256)50_storage": {
        "base": "t_uint256",
        "encoding": "inplace",
        "label": "uint256[50]",
        "numberOfBytes": "1600"
      },
      "t_bool": {
        "encoding": "inplace",
        "label": "bool",
        "numberOfBytes": "1"
      },
      "t_bytes32": {
        "encoding": "inplace",
        "label": "bytes32",
        "numberOfBytes": "32"
      },
      "t_contract(GoldfinchConfig)13851": {
        "encoding": "inplace",
        "label": "contract GoldfinchConfig",
        "numberOfBytes": "20"
      },
      "t_mapping(t_bytes32,t_struct(RoleData)260_storage)": {
        "encoding": "mapping",
        "key": "t_bytes32",
        "label": "mapping(bytes32 => struct AccessControlUpgradeSafe.RoleData)",
        "numberOfBytes": "32",
        "value": "t_struct(RoleData)260_storage"
      },
      "t_mapping(t_bytes32,t_uint256)": {
        "encoding": "mapping",
        "key": "t_bytes32",
        "label": "mapping(bytes32 => uint256)",
        "numberOfBytes": "32",
        "value": "t_uint256"
      },
      "t_struct(AddressSet)3976_storage": {
        "encoding": "inplace",
        "label": "struct EnumerableSet.AddressSet",
        "members": [
          {
            "astId": 3975,
            "contract": "contracts/protocol/periphery/Borrower.sol:Borrower",
            "label": "_inner",
            "offset": 0,
            "slot": "0",
            "type": "t_struct(Set)3796_storage"
          }
        ],
        "numberOfBytes": "64"
      },
      "t_struct(RoleData)260_storage": {
        "encoding": "inplace",
        "label": "struct AccessControlUpgradeSafe.RoleData",
        "members": [
          {
            "astId": 257,
            "contract": "contracts/protocol/periphery/Borrower.sol:Borrower",
            "label": "members",
            "offset": 0,
            "slot": "0",
            "type": "t_struct(AddressSet)3976_storage"
          },
          {
            "astId": 259,
            "contract": "contracts/protocol/periphery/Borrower.sol:Borrower",
            "label": "adminRole",
            "offset": 0,
            "slot": "2",
            "type": "t_bytes32"
          }
        ],
        "numberOfBytes": "96"
      },
      "t_struct(Set)3796_storage": {
        "encoding": "inplace",
        "label": "struct EnumerableSet.Set",
        "members": [
          {
            "astId": 3791,
            "contract": "contracts/protocol/periphery/Borrower.sol:Borrower",
            "label": "_values",
            "offset": 0,
            "slot": "0",
            "type": "t_array(t_bytes32)dyn_storage"
          },
          {
            "astId": 3795,
            "contract": "contracts/protocol/periphery/Borrower.sol:Borrower",
            "label": "_indexes",
            "offset": 0,
            "slot": "1",
            "type": "t_mapping(t_bytes32,t_uint256)"
          }
        ],
        "numberOfBytes": "64"
      },
      "t_uint256": {
        "encoding": "inplace",
        "label": "uint256",
        "numberOfBytes": "32"
      }
    }
  }
}