{
  "address": "0x3c705dB336C81c7FEFC5746e283aB2c0781A4B7b",
  "abi": [
    {
      "inputs": [
        {
          "internalType": "uint256",
          "name": "arrayLength1",
          "type": "uint256"
        },
        {
          "internalType": "uint256",
          "name": "arrayLength2",
          "type": "uint256"
        }
      ],
      "name": "ArrayLengthMismatch",
      "type": "error"
    },
    {
      "inputs": [
        {
          "internalType": "uint256",
          "name": "principalPayment",
          "type": "uint256"
        },
        {
          "internalType": "uint256",
          "name": "existingBalance",
          "type": "uint256"
        }
      ],
      "name": "BalanceOverpayment",
      "type": "error"
    },
    {
      "inputs": [],
      "name": "CannotDrawdownWhenDrawdownsPaused",
      "type": "error"
    },
    {
      "inputs": [],
      "name": "CannotReinitialize",
      "type": "error"
    },
    {
      "inputs": [],
      "name": "CannotSetAllowedUIDTypesAfterDeposit",
      "type": "error"
    },
    {
      "inputs": [],
      "name": "CannotSubmitCallInLockupPeriod",
      "type": "error"
    },
    {
      "inputs": [],
      "name": "CannotWithdrawInDrawdownPeriod",
      "type": "error"
    },
    {
      "inputs": [
        {
          "internalType": "uint256",
          "name": "deposit",
          "type": "uint256"
        },
        {
          "internalType": "uint256",
          "name": "amountCurrentlyDeposited",
          "type": "uint256"
        },
        {
          "internalType": "uint256",
          "name": "limit",
          "type": "uint256"
        }
      ],
      "name": "DepositExceedsLimit",
      "type": "error"
    },
    {
      "inputs": [
        {
          "internalType": "uint256",
          "name": "drawdownAmount",
          "type": "uint256"
        },
        {
          "internalType": "uint256",
          "name": "existingPrincipalPaid",
          "type": "uint256"
        }
      ],
      "name": "DrawdownAmountExceedsDeposits",
      "type": "error"
    },
    {
      "inputs": [
        {
          "internalType": "uint256",
          "name": "poolTokenId",
          "type": "uint256"
        },
        {
          "internalType": "uint256",
          "name": "callSubmissionAmount",
          "type": "uint256"
        },
        {
          "internalType": "uint256",
          "name": "maxCallSubmissionAmount",
          "type": "uint256"
        }
      ],
      "name": "ExcessiveCallSubmissionAmount",
      "type": "error"
    },
    {
      "inputs": [
        {
          "internalType": "uint256",
          "name": "inputTimestamp",
          "type": "uint256"
        },
        {
          "internalType": "uint256",
          "name": "checkpointedAt",
          "type": "uint256"
        }
      ],
      "name": "InputTimestampBeforeCheckpoint",
      "type": "error"
    },
    {
      "inputs": [
        {
          "internalType": "uint256",
          "name": "inputTimestamp",
          "type": "uint256"
        }
      ],
      "name": "InputTimestampInThePast",
      "type": "error"
    },
    {
      "inputs": [
        {
          "internalType": "uint256",
          "name": "takeAmount",
          "type": "uint256"
        },
        {
          "internalType": "uint256",
          "name": "principalDeposited",
          "type": "uint256"
        },
        {
          "internalType": "uint256",
          "name": "principalPaid",
          "type": "uint256"
        },
        {
          "internalType": "uint256",
          "name": "principalReserved",
          "type": "uint256"
        },
        {
          "internalType": "uint256",
          "name": "interestPaid",
          "type": "uint256"
        }
      ],
      "name": "InternalTrancheTakeAccountingError",
      "type": "error"
    },
    {
      "inputs": [
        {
          "internalType": "uint256",
          "name": "tokenId",
          "type": "uint256"
        }
      ],
      "name": "InvalidCallSubmissionPoolToken",
      "type": "error"
    },
    {
      "inputs": [
        {
          "internalType": "enum LockState",
          "name": "currentLockState",
          "type": "uint8"
        },
        {
          "internalType": "enum LockState",
          "name": "validLockState",
          "type": "uint8"
        }
      ],
      "name": "InvalidLockState",
      "type": "error"
    },
    {
      "inputs": [
        {
          "internalType": "uint256",
          "name": "numLockupPeriods",
          "type": "uint256"
        },
        {
          "internalType": "uint256",
          "name": "periodsPerPrincipalPeriod",
          "type": "uint256"
        }
      ],
      "name": "InvalidNumLockupPeriods",
      "type": "error"
    },
    {
      "inputs": [
        {
          "internalType": "address",
          "name": "depositor",
          "type": "address"
        }
      ],
      "name": "InvalidUIDForDepositor",
      "type": "error"
    },
    {
      "inputs": [
        {
          "internalType": "uint256",
          "name": "inputTranche",
          "type": "uint256"
        },
        {
          "internalType": "uint256",
          "name": "uncalledTranche",
          "type": "uint256"
        }
      ],
      "name": "MustDepositToUncalledTranche",
      "type": "error"
    },
    {
      "inputs": [
        {
          "internalType": "uint256",
          "name": "inputTranche",
          "type": "uint256"
        },
        {
          "internalType": "uint256",
          "name": "uncalledTranche",
          "type": "uint256"
        }
      ],
      "name": "MustSubmitCallToUncalledTranche",
      "type": "error"
    },
    {
      "inputs": [
        {
          "internalType": "uint256",
          "name": "numPrincipalPeriods",
          "type": "uint256"
        },
        {
          "internalType": "uint256",
          "name": "minimumNumPrincipalPeriods",
          "type": "uint256"
        }
      ],
      "name": "NeedsMorePrincipalPeriods",
      "type": "error"
    },
    {
      "inputs": [
        {
          "internalType": "uint256",
          "name": "attemptedPrincipalPayment",
          "type": "uint256"
        }
      ],
      "name": "NoBalanceToPay",
      "type": "error"
    },
    {
      "inputs": [
        {
          "internalType": "address",
          "name": "callSubmissionSender",
          "type": "address"
        },
        {
          "internalType": "uint256",
          "name": "tokenId",
          "type": "uint256"
        }
      ],
      "name": "NotAuthorizedToSubmitCall",
      "type": "error"
    },
    {
      "inputs": [
        {
          "internalType": "address",
          "name": "withdrawSender",
          "type": "address"
        },
        {
          "internalType": "uint256",
          "name": "tokenId",
          "type": "uint256"
        }
      ],
      "name": "NotAuthorizedToWithdraw",
      "type": "error"
    },
    {
      "inputs": [
        {
          "internalType": "uint256",
          "name": "fundableAt",
          "type": "uint256"
        }
      ],
      "name": "NotYetFundable",
      "type": "error"
    },
    {
      "inputs": [
        {
          "internalType": "uint256",
          "name": "lastCallRequestPeriod",
          "type": "uint256"
        }
      ],
      "name": "OutOfCallRequestPeriodBounds",
      "type": "error"
    },
    {
      "inputs": [
        {
          "internalType": "address",
          "name": "nonLockerAddress",
          "type": "address"
        }
      ],
      "name": "RequiresLockerRole",
      "type": "error"
    },
    {
      "inputs": [],
      "name": "TooLateToSubmitCallRequests",
      "type": "error"
    },
    {
      "inputs": [
        {
          "internalType": "uint256",
          "name": "withdrawAmount",
          "type": "uint256"
        },
        {
          "internalType": "uint256",
          "name": "withdrawableAmount",
          "type": "uint256"
        }
      ],
      "name": "WithdrawAmountExceedsWithdrawable",
      "type": "error"
    },
    {
      "inputs": [],
      "name": "ZeroCallSubmissionAmount",
      "type": "error"
    },
    {
      "inputs": [],
      "name": "ZeroDepositAmount",
      "type": "error"
    },
    {
      "inputs": [],
      "name": "ZeroDrawdownAmount",
      "type": "error"
    },
    {
      "inputs": [],
      "name": "ZeroPaymentAmount",
      "type": "error"
    },
    {
      "inputs": [],
      "name": "ZeroWithdrawAmount",
      "type": "error"
    },
    {
      "anonymous": false,
      "inputs": [
        {
          "indexed": true,
          "internalType": "uint256",
          "name": "originalTokenId",
          "type": "uint256"
        },
        {
          "indexed": true,
          "internalType": "uint256",
          "name": "callRequestedTokenId",
          "type": "uint256"
        },
        {
          "indexed": true,
          "internalType": "uint256",
          "name": "remainingTokenId",
          "type": "uint256"
        },
        {
          "indexed": false,
          "internalType": "uint256",
          "name": "callAmount",
          "type": "uint256"
        }
      ],
      "name": "CallRequestSubmitted",
      "type": "event"
    },
    {
      "anonymous": false,
      "inputs": [
        {
          "indexed": true,
          "internalType": "address",
          "name": "owner",
          "type": "address"
        },
        {
          "indexed": true,
          "internalType": "uint256",
          "name": "tranche",
          "type": "uint256"
        },
        {
          "indexed": true,
          "internalType": "uint256",
          "name": "tokenId",
          "type": "uint256"
        },
        {
          "indexed": false,
          "internalType": "uint256",
          "name": "amount",
          "type": "uint256"
        }
      ],
      "name": "DepositMade",
      "type": "event"
    },
    {
      "anonymous": false,
      "inputs": [
        {
          "indexed": true,
          "internalType": "address",
          "name": "loan",
          "type": "address"
        }
      ],
      "name": "DepositsLocked",
      "type": "event"
    },
    {
      "anonymous": false,
      "inputs": [
        {
          "indexed": true,
          "internalType": "address",
          "name": "borrower",
          "type": "address"
        },
        {
          "indexed": false,
          "internalType": "uint256",
          "name": "amount",
          "type": "uint256"
        }
      ],
      "name": "DrawdownMade",
      "type": "event"
    },
    {
      "anonymous": false,
      "inputs": [
        {
          "indexed": true,
          "internalType": "address",
          "name": "pool",
          "type": "address"
        }
      ],
      "name": "DrawdownsPaused",
      "type": "event"
    },
    {
      "anonymous": false,
      "inputs": [
        {
          "indexed": true,
          "internalType": "address",
          "name": "pool",
          "type": "address"
        }
      ],
      "name": "DrawdownsUnpaused",
      "type": "event"
    },
    {
      "anonymous": false,
      "inputs": [
        {
          "indexed": true,
          "internalType": "address",
          "name": "pool",
          "type": "address"
        }
      ],
      "name": "EmergencyShutdown",
      "type": "event"
    },
    {
      "anonymous": false,
      "inputs": [
        {
          "indexed": false,
          "internalType": "address",
          "name": "account",
          "type": "address"
        }
      ],
      "name": "Paused",
      "type": "event"
    },
    {
      "anonymous": false,
      "inputs": [
        {
          "indexed": true,
          "internalType": "address",
          "name": "payer",
          "type": "address"
        },
        {
          "indexed": true,
          "internalType": "address",
          "name": "pool",
          "type": "address"
        },
        {
          "indexed": false,
          "internalType": "uint256",
          "name": "interest",
          "type": "uint256"
        },
        {
          "indexed": false,
          "internalType": "uint256",
          "name": "principal",
          "type": "uint256"
        },
        {
          "indexed": false,
          "internalType": "uint256",
          "name": "remaining",
          "type": "uint256"
        },
        {
          "indexed": false,
          "internalType": "uint256",
          "name": "reserve",
          "type": "uint256"
        }
      ],
      "name": "PaymentApplied",
      "type": "event"
    },
    {
      "anonymous": false,
      "inputs": [
        {
          "indexed": true,
          "internalType": "address",
          "name": "from",
          "type": "address"
        },
        {
          "indexed": false,
          "internalType": "uint256",
          "name": "amount",
          "type": "uint256"
        }
      ],
      "name": "ReserveFundsCollected",
      "type": "event"
    },
    {
      "anonymous": false,
      "inputs": [
        {
          "indexed": true,
          "internalType": "bytes32",
          "name": "role",
          "type": "bytes32"
        },
        {
          "indexed": true,
          "internalType": "bytes32",
          "name": "previousAdminRole",
          "type": "bytes32"
        },
        {
          "indexed": true,
          "internalType": "bytes32",
          "name": "newAdminRole",
          "type": "bytes32"
        }
      ],
      "name": "RoleAdminChanged",
      "type": "event"
    },
    {
      "anonymous": false,
      "inputs": [
        {
          "indexed": true,
          "internalType": "bytes32",
          "name": "role",
          "type": "bytes32"
        },
        {
          "indexed": true,
          "internalType": "address",
          "name": "account",
          "type": "address"
        },
        {
          "indexed": true,
          "internalType": "address",
          "name": "sender",
          "type": "address"
        }
      ],
      "name": "RoleGranted",
      "type": "event"
    },
    {
      "anonymous": false,
      "inputs": [
        {
          "indexed": true,
          "internalType": "bytes32",
          "name": "role",
          "type": "bytes32"
        },
        {
          "indexed": true,
          "internalType": "address",
          "name": "account",
          "type": "address"
        },
        {
          "indexed": true,
          "internalType": "address",
          "name": "sender",
          "type": "address"
        }
      ],
      "name": "RoleRevoked",
      "type": "event"
    },
    {
      "anonymous": false,
      "inputs": [
        {
          "indexed": false,
          "internalType": "address",
          "name": "account",
          "type": "address"
        }
      ],
      "name": "Unpaused",
      "type": "event"
    },
    {
      "anonymous": false,
      "inputs": [
        {
          "indexed": true,
          "internalType": "address",
          "name": "owner",
          "type": "address"
        },
        {
          "indexed": true,
          "internalType": "uint256",
          "name": "tranche",
          "type": "uint256"
        },
        {
          "indexed": true,
          "internalType": "uint256",
          "name": "tokenId",
          "type": "uint256"
        },
        {
          "indexed": false,
          "internalType": "uint256",
          "name": "interestWithdrawn",
          "type": "uint256"
        },
        {
          "indexed": false,
          "internalType": "uint256",
          "name": "principalWithdrawn",
          "type": "uint256"
        }
      ],
      "name": "WithdrawalMade",
      "type": "event"
    },
    {
      "inputs": [],
      "name": "DEFAULT_ADMIN_ROLE",
      "outputs": [
        {
          "internalType": "bytes32",
          "name": "",
          "type": "bytes32"
        }
      ],
      "stateMutability": "view",
      "type": "function"
    },
    {
      "inputs": [],
      "name": "LOCKER_ROLE",
      "outputs": [
        {
          "internalType": "bytes32",
          "name": "",
          "type": "bytes32"
        }
      ],
      "stateMutability": "view",
      "type": "function"
    },
    {
      "inputs": [],
      "name": "OWNER_ROLE",
      "outputs": [
        {
          "internalType": "bytes32",
          "name": "",
          "type": "bytes32"
        }
      ],
      "stateMutability": "view",
      "type": "function"
    },
    {
      "inputs": [],
      "name": "PAUSER_ROLE",
      "outputs": [
        {
          "internalType": "bytes32",
          "name": "",
          "type": "bytes32"
        }
      ],
      "stateMutability": "view",
      "type": "function"
    },
    {
      "inputs": [],
      "name": "SPLIT_TOKEN_DUST_THRESHOLD",
      "outputs": [
        {
          "internalType": "uint256",
          "name": "",
          "type": "uint256"
        }
      ],
      "stateMutability": "view",
      "type": "function"
    },
    {
      "inputs": [
        {
          "internalType": "address",
          "name": "owner",
          "type": "address"
        }
      ],
      "name": "__BaseUpgradeablePausable__init",
      "outputs": [],
      "stateMutability": "nonpayable",
      "type": "function"
    },
    {
      "inputs": [],
      "name": "__PauserPausable__init",
      "outputs": [],
      "stateMutability": "nonpayable",
      "type": "function"
    },
    {
      "inputs": [],
      "name": "_reserveFundsFeePercent",
      "outputs": [
        {
          "internalType": "uint256",
          "name": "",
          "type": "uint256"
        }
      ],
      "stateMutability": "view",
      "type": "function"
    },
    {
      "inputs": [
        {
          "internalType": "uint256",
          "name": "",
          "type": "uint256"
        }
      ],
      "name": "allowedUIDTypes",
      "outputs": [
        {
          "internalType": "uint256",
          "name": "",
          "type": "uint256"
        }
      ],
      "stateMutability": "view",
      "type": "function"
    },
    {
      "inputs": [
        {
          "internalType": "uint256",
          "name": "tokenId",
          "type": "uint256"
        }
      ],
      "name": "availableToCall",
      "outputs": [
        {
          "internalType": "uint256",
          "name": "",
          "type": "uint256"
        }
      ],
      "stateMutability": "view",
      "type": "function"
    },
    {
      "inputs": [
        {
          "internalType": "uint256",
          "name": "tokenId",
          "type": "uint256"
        }
      ],
      "name": "availableToWithdraw",
      "outputs": [
        {
          "internalType": "uint256",
          "name": "",
          "type": "uint256"
        },
        {
          "internalType": "uint256",
          "name": "",
          "type": "uint256"
        }
      ],
      "stateMutability": "view",
      "type": "function"
    },
    {
      "inputs": [],
      "name": "balance",
      "outputs": [
        {
          "internalType": "uint256",
          "name": "",
          "type": "uint256"
        }
      ],
      "stateMutability": "view",
      "type": "function"
    },
    {
      "inputs": [],
      "name": "borrower",
      "outputs": [
        {
          "internalType": "address",
          "name": "",
          "type": "address"
        }
      ],
      "stateMutability": "view",
      "type": "function"
    },
    {
      "inputs": [],
      "name": "config",
      "outputs": [
        {
          "internalType": "contract IGoldfinchConfig",
          "name": "",
          "type": "address"
        }
      ],
      "stateMutability": "view",
      "type": "function"
    },
    {
      "inputs": [],
      "name": "createdAt",
      "outputs": [
        {
          "internalType": "uint256",
          "name": "",
          "type": "uint256"
        }
      ],
      "stateMutability": "view",
      "type": "function"
    },
    {
      "inputs": [],
      "name": "creditLine",
      "outputs": [
        {
          "internalType": "contract ICreditLine",
          "name": "",
          "type": "address"
        }
      ],
      "stateMutability": "view",
      "type": "function"
    },
    {
      "inputs": [],
      "name": "currentLimit",
      "outputs": [
        {
          "internalType": "uint256",
          "name": "",
          "type": "uint256"
        }
      ],
      "stateMutability": "view",
      "type": "function"
    },
    {
      "inputs": [
        {
          "internalType": "uint256",
          "name": "tranche",
          "type": "uint256"
        },
        {
          "internalType": "uint256",
          "name": "amount",
          "type": "uint256"
        }
      ],
      "name": "deposit",
      "outputs": [
        {
          "internalType": "uint256",
          "name": "",
          "type": "uint256"
        }
      ],
      "stateMutability": "nonpayable",
      "type": "function"
    },
    {
      "inputs": [
        {
          "internalType": "uint256",
          "name": "tranche",
          "type": "uint256"
        },
        {
          "internalType": "uint256",
          "name": "amount",
          "type": "uint256"
        },
        {
          "internalType": "uint256",
          "name": "deadline",
          "type": "uint256"
        },
        {
          "internalType": "uint8",
          "name": "v",
          "type": "uint8"
        },
        {
          "internalType": "bytes32",
          "name": "r",
          "type": "bytes32"
        },
        {
          "internalType": "bytes32",
          "name": "s",
          "type": "bytes32"
        }
      ],
      "name": "depositWithPermit",
      "outputs": [
        {
          "internalType": "uint256",
          "name": "tokenId",
          "type": "uint256"
        }
      ],
      "stateMutability": "nonpayable",
      "type": "function"
    },
    {
      "inputs": [
        {
          "internalType": "uint256",
          "name": "amount",
          "type": "uint256"
        }
      ],
      "name": "drawdown",
      "outputs": [],
      "stateMutability": "nonpayable",
      "type": "function"
    },
    {
      "inputs": [],
      "name": "drawdownsPaused",
      "outputs": [
        {
          "internalType": "bool",
          "name": "",
          "type": "bool"
        }
      ],
      "stateMutability": "view",
      "type": "function"
    },
    {
      "inputs": [],
      "name": "fundableAt",
      "outputs": [
        {
          "internalType": "uint256",
          "name": "",
          "type": "uint256"
        }
      ],
      "stateMutability": "view",
      "type": "function"
    },
    {
      "inputs": [],
      "name": "getAllowedUIDTypes",
      "outputs": [
        {
          "internalType": "uint256[]",
          "name": "",
          "type": "uint256[]"
        }
      ],
      "stateMutability": "view",
      "type": "function"
    },
    {
      "inputs": [
        {
          "internalType": "uint256",
          "name": "timestamp",
          "type": "uint256"
        }
      ],
      "name": "getAmountsOwed",
      "outputs": [
        {
          "internalType": "uint256",
          "name": "returnedInterestOwed",
          "type": "uint256"
        },
        {
          "internalType": "uint256",
          "name": "returnedInterestAccrued",
          "type": "uint256"
        },
        {
          "internalType": "uint256",
          "name": "returnedPrincipalOwed",
          "type": "uint256"
        }
      ],
      "stateMutability": "view",
      "type": "function"
    },
    {
      "inputs": [
        {
          "internalType": "uint256",
          "name": "callRequestPeriodIndex",
          "type": "uint256"
        }
      ],
      "name": "getCallRequestPeriod",
      "outputs": [
        {
          "components": [
            {
              "internalType": "uint256",
              "name": "principalDeposited",
              "type": "uint256"
            },
            {
              "internalType": "uint256",
              "name": "principalPaid",
              "type": "uint256"
            },
            {
              "internalType": "uint256",
              "name": "principalReserved",
              "type": "uint256"
            },
            {
              "internalType": "uint256",
              "name": "interestPaid",
              "type": "uint256"
            }
          ],
          "internalType": "struct ICallableLoan.CallRequestPeriod",
          "name": "",
          "type": "tuple"
        }
      ],
      "stateMutability": "view",
      "type": "function"
    },
    {
      "inputs": [
        {
          "internalType": "bytes32",
          "name": "role",
          "type": "bytes32"
        }
      ],
      "name": "getRoleAdmin",
      "outputs": [
        {
          "internalType": "bytes32",
          "name": "",
          "type": "bytes32"
        }
      ],
      "stateMutability": "view",
      "type": "function"
    },
    {
      "inputs": [],
      "name": "getUncalledCapitalInfo",
      "outputs": [
        {
          "components": [
            {
              "internalType": "uint256",
              "name": "principalDeposited",
              "type": "uint256"
            },
            {
              "internalType": "uint256",
              "name": "principalPaid",
              "type": "uint256"
            },
            {
              "internalType": "uint256",
              "name": "principalReserved",
              "type": "uint256"
            },
            {
              "internalType": "uint256",
              "name": "interestPaid",
              "type": "uint256"
            }
          ],
          "internalType": "struct ICallableLoan.UncalledCapitalInfo",
          "name": "",
          "type": "tuple"
        }
      ],
      "stateMutability": "view",
      "type": "function"
    },
    {
      "inputs": [],
      "name": "getVersion",
      "outputs": [
        {
          "internalType": "uint8[3]",
          "name": "version",
          "type": "uint8[3]"
        }
      ],
      "stateMutability": "pure",
      "type": "function"
    },
    {
      "inputs": [
        {
          "internalType": "bytes32",
          "name": "role",
          "type": "bytes32"
        },
        {
          "internalType": "address",
          "name": "account",
          "type": "address"
        }
      ],
      "name": "grantRole",
      "outputs": [],
      "stateMutability": "nonpayable",
      "type": "function"
    },
    {
      "inputs": [
        {
          "internalType": "address",
          "name": "sender",
          "type": "address"
        }
      ],
      "name": "hasAllowedUID",
      "outputs": [
        {
          "internalType": "bool",
          "name": "",
          "type": "bool"
        }
      ],
      "stateMutability": "view",
      "type": "function"
    },
    {
      "inputs": [
        {
          "internalType": "bytes32",
          "name": "role",
          "type": "bytes32"
        },
        {
          "internalType": "address",
          "name": "account",
          "type": "address"
        }
      ],
      "name": "hasRole",
      "outputs": [
        {
          "internalType": "bool",
          "name": "",
          "type": "bool"
        }
      ],
      "stateMutability": "view",
      "type": "function"
    },
    {
      "inputs": [
        {
          "internalType": "contract IGoldfinchConfig",
          "name": "_config",
          "type": "address"
        },
        {
          "internalType": "address",
          "name": "_borrower",
          "type": "address"
        },
        {
          "internalType": "uint256",
          "name": "_limit",
          "type": "uint256"
        },
        {
          "internalType": "uint256",
          "name": "_interestApr",
          "type": "uint256"
        },
        {
          "internalType": "uint256",
          "name": "_numLockupPeriods",
          "type": "uint256"
        },
        {
          "internalType": "contract ISchedule",
          "name": "_schedule",
          "type": "address"
        },
        {
          "internalType": "uint256",
          "name": "_lateFeeApr",
          "type": "uint256"
        },
        {
          "internalType": "uint256",
          "name": "_fundableAt",
          "type": "uint256"
        },
        {
          "internalType": "uint256[]",
          "name": "_allowedUIDTypes",
          "type": "uint256[]"
        }
      ],
      "name": "initialize",
      "outputs": [],
      "stateMutability": "nonpayable",
      "type": "function"
    },
    {
      "inputs": [],
      "name": "interestAccrued",
      "outputs": [
        {
          "internalType": "uint256",
          "name": "",
          "type": "uint256"
        }
      ],
      "stateMutability": "view",
      "type": "function"
    },
    {
      "inputs": [],
      "name": "interestAccruedAsOf",
      "outputs": [
        {
          "internalType": "uint256",
          "name": "",
          "type": "uint256"
        }
      ],
      "stateMutability": "view",
      "type": "function"
    },
    {
      "inputs": [
        {
          "internalType": "uint256",
          "name": "timestamp",
          "type": "uint256"
        }
      ],
      "name": "interestAccruedAt",
      "outputs": [
        {
          "internalType": "uint256",
          "name": "",
          "type": "uint256"
        }
      ],
      "stateMutability": "view",
      "type": "function"
    },
    {
      "inputs": [],
      "name": "interestApr",
      "outputs": [
        {
          "internalType": "uint256",
          "name": "",
          "type": "uint256"
        }
      ],
      "stateMutability": "view",
      "type": "function"
    },
    {
      "inputs": [],
      "name": "interestBearingBalance",
      "outputs": [
        {
          "internalType": "uint256",
          "name": "",
          "type": "uint256"
        }
      ],
      "stateMutability": "view",
      "type": "function"
    },
    {
      "inputs": [],
      "name": "interestOwed",
      "outputs": [
        {
          "internalType": "uint256",
          "name": "",
          "type": "uint256"
        }
      ],
      "stateMutability": "view",
      "type": "function"
    },
    {
      "inputs": [
        {
          "internalType": "uint256",
          "name": "timestamp",
          "type": "uint256"
        }
      ],
      "name": "interestOwedAt",
      "outputs": [
        {
          "internalType": "uint256",
          "name": "",
          "type": "uint256"
        }
      ],
      "stateMutability": "view",
      "type": "function"
    },
    {
      "inputs": [],
      "name": "isAdmin",
      "outputs": [
        {
          "internalType": "bool",
          "name": "",
          "type": "bool"
        }
      ],
      "stateMutability": "view",
      "type": "function"
    },
    {
      "inputs": [],
      "name": "isLate",
      "outputs": [
        {
          "internalType": "bool",
          "name": "",
          "type": "bool"
        }
      ],
      "stateMutability": "view",
      "type": "function"
    },
    {
      "inputs": [],
      "name": "lastFullPaymentTime",
      "outputs": [
        {
          "internalType": "uint256",
          "name": "",
          "type": "uint256"
        }
      ],
      "stateMutability": "view",
      "type": "function"
    },
    {
      "inputs": [],
      "name": "lateFeeApr",
      "outputs": [
        {
          "internalType": "uint256",
          "name": "",
          "type": "uint256"
        }
      ],
      "stateMutability": "view",
      "type": "function"
    },
    {
      "inputs": [],
      "name": "limit",
      "outputs": [
        {
          "internalType": "uint256",
          "name": "",
          "type": "uint256"
        }
      ],
      "stateMutability": "view",
      "type": "function"
    },
    {
      "inputs": [],
      "name": "maxLimit",
      "outputs": [
        {
          "internalType": "uint256",
          "name": "",
          "type": "uint256"
        }
      ],
      "stateMutability": "view",
      "type": "function"
    },
    {
      "inputs": [],
      "name": "nextDueTime",
      "outputs": [
        {
          "internalType": "uint256",
          "name": "",
          "type": "uint256"
        }
      ],
      "stateMutability": "view",
      "type": "function"
    },
    {
      "inputs": [
        {
          "internalType": "uint256",
          "name": "timestamp",
          "type": "uint256"
        }
      ],
      "name": "nextDueTimeAt",
      "outputs": [
        {
          "internalType": "uint256",
          "name": "",
          "type": "uint256"
        }
      ],
      "stateMutability": "view",
      "type": "function"
    },
    {
      "inputs": [
        {
          "internalType": "uint256",
          "name": "timestamp",
          "type": "uint256"
        }
      ],
      "name": "nextInterestDueTimeAt",
      "outputs": [
        {
          "internalType": "uint256",
          "name": "",
          "type": "uint256"
        }
      ],
      "stateMutability": "view",
      "type": "function"
    },
    {
      "inputs": [],
      "name": "nextPrincipalDueTime",
      "outputs": [
        {
          "internalType": "uint256",
          "name": "",
          "type": "uint256"
        }
      ],
      "stateMutability": "view",
      "type": "function"
    },
    {
      "inputs": [],
      "name": "pause",
      "outputs": [],
      "stateMutability": "nonpayable",
      "type": "function"
    },
    {
      "inputs": [],
      "name": "pauseDrawdowns",
      "outputs": [],
      "stateMutability": "nonpayable",
      "type": "function"
    },
    {
      "inputs": [],
      "name": "paused",
      "outputs": [
        {
          "internalType": "bool",
          "name": "",
          "type": "bool"
        }
      ],
      "stateMutability": "view",
      "type": "function"
    },
    {
      "inputs": [
        {
          "internalType": "uint256",
          "name": "amount",
          "type": "uint256"
        }
      ],
      "name": "pay",
      "outputs": [
        {
          "components": [
            {
              "internalType": "uint256",
              "name": "owedInterestPayment",
              "type": "uint256"
            },
            {
              "internalType": "uint256",
              "name": "accruedInterestPayment",
              "type": "uint256"
            },
            {
              "internalType": "uint256",
              "name": "principalPayment",
              "type": "uint256"
            },
            {
              "internalType": "uint256",
              "name": "additionalBalancePayment",
              "type": "uint256"
            },
            {
              "internalType": "uint256",
              "name": "paymentRemaining",
              "type": "uint256"
            }
          ],
          "internalType": "struct ILoan.PaymentAllocation",
          "name": "",
          "type": "tuple"
        }
      ],
      "stateMutability": "nonpayable",
      "type": "function"
    },
    {
      "inputs": [
        {
          "internalType": "uint256",
          "name": "principalPayment",
          "type": "uint256"
        },
        {
          "internalType": "uint256",
          "name": "interestPayment",
          "type": "uint256"
        }
      ],
      "name": "pay",
      "outputs": [
        {
          "components": [
            {
              "internalType": "uint256",
              "name": "owedInterestPayment",
              "type": "uint256"
            },
            {
              "internalType": "uint256",
              "name": "accruedInterestPayment",
              "type": "uint256"
            },
            {
              "internalType": "uint256",
              "name": "principalPayment",
              "type": "uint256"
            },
            {
              "internalType": "uint256",
              "name": "additionalBalancePayment",
              "type": "uint256"
            },
            {
              "internalType": "uint256",
              "name": "paymentRemaining",
              "type": "uint256"
            }
          ],
          "internalType": "struct ILoan.PaymentAllocation",
          "name": "",
          "type": "tuple"
        }
      ],
      "stateMutability": "nonpayable",
      "type": "function"
    },
    {
      "inputs": [],
      "name": "principalOwed",
      "outputs": [
        {
          "internalType": "uint256",
          "name": "",
          "type": "uint256"
        }
      ],
      "stateMutability": "view",
      "type": "function"
    },
    {
      "inputs": [
        {
          "internalType": "uint256",
          "name": "timestamp",
          "type": "uint256"
        }
      ],
      "name": "principalOwedAt",
      "outputs": [
        {
          "internalType": "uint256",
          "name": "",
          "type": "uint256"
        }
      ],
      "stateMutability": "view",
      "type": "function"
    },
    {
      "inputs": [
        {
          "internalType": "bytes32",
          "name": "role",
          "type": "bytes32"
        },
        {
          "internalType": "address",
          "name": "account",
          "type": "address"
        }
      ],
      "name": "renounceRole",
      "outputs": [],
      "stateMutability": "nonpayable",
      "type": "function"
    },
    {
      "inputs": [
        {
          "internalType": "bytes32",
          "name": "role",
          "type": "bytes32"
        },
        {
          "internalType": "address",
          "name": "account",
          "type": "address"
        }
      ],
      "name": "revokeRole",
      "outputs": [],
      "stateMutability": "nonpayable",
      "type": "function"
    },
    {
      "inputs": [],
      "name": "schedule",
      "outputs": [
        {
          "internalType": "contract ISchedule",
          "name": "",
          "type": "address"
        }
      ],
      "stateMutability": "view",
      "type": "function"
    },
    {
      "inputs": [
        {
          "internalType": "uint256[]",
          "name": "ids",
          "type": "uint256[]"
        }
      ],
      "name": "setAllowedUIDTypes",
      "outputs": [],
      "stateMutability": "nonpayable",
      "type": "function"
    },
    {
      "inputs": [
        {
          "internalType": "uint256",
          "name": "newFundableAt",
          "type": "uint256"
        }
      ],
      "name": "setFundableAt",
      "outputs": [],
      "stateMutability": "nonpayable",
      "type": "function"
    },
    {
      "inputs": [
        {
          "internalType": "uint256",
          "name": "newAmount",
          "type": "uint256"
        }
      ],
      "name": "setLimit",
      "outputs": [],
      "stateMutability": "nonpayable",
      "type": "function"
    },
    {
      "inputs": [
        {
          "internalType": "uint256",
          "name": "newAmount",
          "type": "uint256"
        }
      ],
      "name": "setMaxLimit",
      "outputs": [],
      "stateMutability": "nonpayable",
      "type": "function"
    },
    {
      "inputs": [
        {
          "internalType": "uint256",
          "name": "callAmount",
          "type": "uint256"
        },
        {
          "internalType": "uint256",
          "name": "poolTokenId",
          "type": "uint256"
        }
      ],
      "name": "submitCall",
      "outputs": [
        {
          "internalType": "uint256",
          "name": "callRequestedTokenId",
          "type": "uint256"
        },
        {
          "internalType": "uint256",
          "name": "remainingTokenId",
          "type": "uint256"
        }
      ],
      "stateMutability": "nonpayable",
      "type": "function"
    },
    {
      "inputs": [
        {
          "internalType": "bytes4",
          "name": "interfaceId",
          "type": "bytes4"
        }
      ],
      "name": "supportsInterface",
      "outputs": [
        {
          "internalType": "bool",
          "name": "",
          "type": "bool"
        }
      ],
      "stateMutability": "view",
      "type": "function"
    },
    {
      "inputs": [],
      "name": "termEndTime",
      "outputs": [
        {
          "internalType": "uint256",
          "name": "",
          "type": "uint256"
        }
      ],
      "stateMutability": "view",
      "type": "function"
    },
    {
      "inputs": [],
      "name": "termStartTime",
      "outputs": [
        {
          "internalType": "uint256",
          "name": "",
          "type": "uint256"
        }
      ],
      "stateMutability": "view",
      "type": "function"
    },
    {
      "inputs": [],
      "name": "totalInterestAccrued",
      "outputs": [
        {
          "internalType": "uint256",
          "name": "",
          "type": "uint256"
        }
      ],
      "stateMutability": "view",
      "type": "function"
    },
    {
      "inputs": [
        {
          "internalType": "uint256",
          "name": "timestamp",
          "type": "uint256"
        }
      ],
      "name": "totalInterestAccruedAt",
      "outputs": [
        {
          "internalType": "uint256",
          "name": "",
          "type": "uint256"
        }
      ],
      "stateMutability": "view",
      "type": "function"
    },
    {
      "inputs": [],
      "name": "totalInterestOwed",
      "outputs": [
        {
          "internalType": "uint256",
          "name": "",
          "type": "uint256"
        }
      ],
      "stateMutability": "view",
      "type": "function"
    },
    {
      "inputs": [
        {
          "internalType": "uint256",
          "name": "timestamp",
          "type": "uint256"
        }
      ],
      "name": "totalInterestOwedAt",
      "outputs": [
        {
          "internalType": "uint256",
          "name": "",
          "type": "uint256"
        }
      ],
      "stateMutability": "view",
      "type": "function"
    },
    {
      "inputs": [],
      "name": "totalInterestPaid",
      "outputs": [
        {
          "internalType": "uint256",
          "name": "",
          "type": "uint256"
        }
      ],
      "stateMutability": "view",
      "type": "function"
    },
    {
      "inputs": [],
      "name": "totalPrincipalOwed",
      "outputs": [
        {
          "internalType": "uint256",
          "name": "",
          "type": "uint256"
        }
      ],
      "stateMutability": "view",
      "type": "function"
    },
    {
      "inputs": [
        {
          "internalType": "uint256",
          "name": "timestamp",
          "type": "uint256"
        }
      ],
      "name": "totalPrincipalOwedAt",
      "outputs": [
        {
          "internalType": "uint256",
          "name": "",
          "type": "uint256"
        }
      ],
      "stateMutability": "view",
      "type": "function"
    },
    {
      "inputs": [],
      "name": "totalPrincipalPaid",
      "outputs": [
        {
          "internalType": "uint256",
          "name": "",
          "type": "uint256"
        }
      ],
      "stateMutability": "view",
      "type": "function"
    },
    {
      "inputs": [],
      "name": "uncalledCapitalTrancheIndex",
      "outputs": [
        {
          "internalType": "uint256",
          "name": "",
          "type": "uint256"
        }
      ],
      "stateMutability": "view",
      "type": "function"
    },
    {
      "inputs": [],
      "name": "unpause",
      "outputs": [],
      "stateMutability": "nonpayable",
      "type": "function"
    },
    {
      "inputs": [],
      "name": "unpauseDrawdowns",
      "outputs": [],
      "stateMutability": "nonpayable",
      "type": "function"
    },
    {
      "inputs": [
        {
          "internalType": "uint256",
          "name": "tokenId",
          "type": "uint256"
        },
        {
          "internalType": "uint256",
          "name": "amount",
          "type": "uint256"
        }
      ],
      "name": "withdraw",
      "outputs": [
        {
          "internalType": "uint256",
          "name": "",
          "type": "uint256"
        },
        {
          "internalType": "uint256",
          "name": "",
          "type": "uint256"
        }
      ],
      "stateMutability": "nonpayable",
      "type": "function"
    },
    {
      "inputs": [
        {
          "internalType": "uint256",
          "name": "tokenId",
          "type": "uint256"
        }
      ],
      "name": "withdrawMax",
      "outputs": [
        {
          "internalType": "uint256",
          "name": "interestWithdrawn",
          "type": "uint256"
        },
        {
          "internalType": "uint256",
          "name": "principalWithdrawn",
          "type": "uint256"
        }
      ],
      "stateMutability": "nonpayable",
      "type": "function"
    },
    {
      "inputs": [
        {
          "internalType": "uint256[]",
          "name": "tokenIds",
          "type": "uint256[]"
        },
        {
          "internalType": "uint256[]",
          "name": "amounts",
          "type": "uint256[]"
        }
      ],
      "name": "withdrawMultiple",
      "outputs": [],
      "stateMutability": "nonpayable",
      "type": "function"
    },
    {
      "inputs": [],
      "name": "withinPrincipalGracePeriod",
      "outputs": [
        {
          "internalType": "bool",
          "name": "",
          "type": "bool"
        }
      ],
      "stateMutability": "view",
      "type": "function"
    }
  ],
  "transactionHash": "0x15978bc333c6349fc6c18ae84bb487a7875074620fe2e99c56f23b3a72b72f1a",
  "args": [],
  "numDeployments": 1,
  "solcInputHash": "d8bbc7e5aa7b7a80f44437b52ff30f3b",
  "bytecode": "0x608060405234801561001057600080fd5b5061648680620000216000396000f3fe608060405234801561001057600080fd5b50600436106104955760003560e01c80638c0243e711610262578063bf8bcee411610151578063e2b02ce8116100ce578063eabd0ce111610092578063eabd0ce11461078f578063eb07f4e614610971578063ef48eee614610979578063f0b25bde1461098c578063f362136714610994578063f94f5a12146109a957600080fd5b8063e2b02ce814610919578063e2bbb15814610921578063e58378bb14610934578063e63ab1e914610949578063e7aa8a921461095e57600080fd5b8063d284597711610115578063d2845977146108c5578063d547741f146108cd578063d60efcb8146108e0578063daaa3a62146108f3578063e2a657f91461090657600080fd5b8063bf8bcee4146105bf578063c290d69114610849578063c78bed861461089e578063ce78290d146108b3578063cf09e0d0146108bb57600080fd5b8063aae932fe116101df578063b69ef8a8116101a3578063b69ef8a814610816578063b6db75a01461081e578063b9317d8614610826578063bbafcb4014610839578063bf6c87c71461084157600080fd5b8063aae932fe146107b2578063ae6c857a146107e0578063b0604a26146107f3578063b396999214610805578063b5c6d2541461080d57600080fd5b8063a079a4dd11610226578063a079a4dd14610774578063a217fddf14610787578063a4d66daf1461078f578063a8f9c4fe14610797578063aa2a7c4c1461079f57600080fd5b80638c0243e7146107365780638f168c931461073e57806391d14854146107465780639d11053014610759578063a03c5cf01461076c57600080fd5b80633f4ba83a11610389578063526d81f61161030657806365973a11116102ca57806365973a11146106e3578063729cf22f146106f657806379502c55146106fe5780637df1f1b91461071257806381c17a15146107265780638456cb591461072e57600080fd5b8063526d81f6146106b65780635c975abb146106be5780635eb185a2146106c9578063645d6225146106d357806364fb2d95146106db57600080fd5b80634af75d351161034d5780634af75d35146106625780634d02fe6f146106755780634d90a5391461068857806350b22fcf1461069b578063515bc323146106a357600080fd5b80633f4ba83a14610608578063441a3e7014610610578063457147a71461063857806347195e131461064057806348eef1df1461064f57600080fd5b806320dcc3421161041757806327ea6f2b116103db57806327ea6f2b146105bf57806328b55c97146105d25780632ba443d2146105da5780632f2ff15d146105e257806336568abe146105f557600080fd5b806320dcc3421461055957806321506ebe1461056157806321856b3614610581578063248a9ca31461058957806324bb4b15146105ac57600080fd5b806311daef071161045e57806311daef071461052057806317f769411461053357806319350114146105415780631a861d26146105495780631cd724ac1461055157600080fd5b8062ae88e01461049a578063019c37e6146104c057806301ffc9a7146104d3578063097616a3146104f65780630d8e6e2c1461050b575b600080fd5b6104ad6104a8366004615b79565b6109bc565b6040519081526020015b60405180910390f35b6104ad6104ce366004615b79565b6109d0565b6104e66104e1366004615b92565b6109de565b60405190151581526020016104b7565b610509610504366004615bd1565b610a13565b005b610513610b65565b6040516104b79190615bee565b6104ad61052e366004615b79565b610b82565b610233546104e69060ff1681565b6104ad610b90565b6104ad610ba2565b6104ad610bbc565b6104ad610bc9565b61057461056f366004615b79565b610bd6565b6040516104b79190615c22565b6104ad610c88565b6104ad610597366004615b79565b60009081526065602052604090206001015490565b6104ad6105ba366004615b79565b610c95565b6105096105cd366004615b79565b610ca3565b6104ad610cbb565b6104ad610cc8565b6105096105f0366004615c4d565b610cd5565b610509610603366004615c4d565b610d00565b610509610d7a565b61062361061e366004615c7d565b610db8565b604080519283526020830191909152016104b7565b6104e6610eaa565b305b6040516104b79190615c9f565b61062361065d366004615c7d565b610eb7565b6104ad610670366004615b79565b61164c565b610623610683366004615b79565b61165a565b6104ad610696366004615b79565b6116f5565b6104ad611703565b6104ad6106b1366004615cb3565b611710565b610509611812565b60975460ff166104e6565b6104ad6102325481565b6104ad611886565b6104ad611893565b6104ad6106f1366004615b79565b6118a0565b61057461198a565b61023554610642906001600160a01b031681565b61023754610642906001600160a01b031681565b6104e6611a04565b610509611a11565b6104ad611a4d565b6104ad611a5a565b6104e6610754366004615c4d565b611a67565b610509610767366004615d57565b611a92565b6104ad611c0f565b610509610782366004615b79565b611c1c565b6104ad600081565b6104ad611d7f565b610509611d8c565b6106236107ad366004615b79565b611deb565b6107c56107c0366004615b79565b611e50565b604080519384526020840192909252908201526060016104b7565b6105096107ee366004615b79565b611ea1565b6101ff546001600160a01b0316610642565b6104ad611ede565b6104ad61138881565b6104ad611eeb565b6104e6611ef8565b610509610834366004615dc2565b611f12565b6104ad611f7f565b610509611f8c565b61085c610857366004615b79565b611fe8565b6040516104b79190600060a082019050825182526020830151602083015260408301516040830152606083015160608301526080830151608083015292915050565b6108a661204e565b6040516104b79190615e03565b6104ad6120a7565b6104ad6102365481565b6104ad6120b4565b6105096108db366004615c4d565b6120c1565b6104ad6108ee366004615b79565b6120e7565b6104ad610901366004615b79565b6120f5565b6104ad610914366004615b79565b612103565b6104ad612125565b6104ad61092f366004615c7d565b612132565b6104ad6000805160206163f183398151915281565b6104ad60008051602061641183398151915281565b61050961096c366004615e47565b612194565b6104ad6123e8565b61085c610987366004615c7d565b61240c565b6104ad61245e565b6104ad60008051602061643183398151915281565b6104e66109b7366004615bd1565b61246b565b60006109ca6101c3836124f4565b92915050565b60006109ca6101c383612500565b60006001600160e01b03198216637965db0b60e01b14806109ca57506301ffc9a760e01b6001600160e01b03198316146109ca565b600054610100900460ff1680610a2c575060005460ff16155b610a515760405162461bcd60e51b8152600401610a4890615ef6565b60405180910390fd5b600054610100900460ff16158015610a73576000805461ffff19166101011790555b6001600160a01b038216610ac95760405162461bcd60e51b815260206004820181905260248201527f4f776e65722063616e6e6f7420626520746865207a65726f20616464726573736044820152606401610a48565b610ad161250c565b610ad9612576565b610ae16125eb565b610af96000805160206163f18339815191528361265b565b610b116000805160206164118339815191528361265b565b610b376000805160206164118339815191526000805160206163f1833981519152612665565b610b4f6000805160206163f183398151915280612665565b8015610b61576000805461ff00191690555b5050565b610b6d615a4f565b60006040820181905260208201526001815290565b60006109ca6101c3836126b0565b6000610b9d6101c36126bc565b905090565b600060405162461bcd60e51b8152600401610a4890615f5a565b6000610b9d6101c36126c7565b6000610b9d6101c36126d2565b610c016040518060800160405280600081526020016000815260200160008152602001600081525090565b610c09610cc8565b8210610c3f576001610c19610cc8565b610c239190615f8c565b6040516313e43c3760e31b8152600401610a4891815260200190565b6000610c4d6101c3846126dd565b905060405180608001604052808260000151815260200182602001518152602001826040015181526020018260600151815250915050919050565b6000610b9d6101c3612712565b60006109ca6101c38361271d565b60405162461bcd60e51b8152600401610a4890615f5a565b6000610b9d6101c3612729565b6000610b9d6101c3612734565b600082815260656020526040902060010154610cf1813361274b565b610cfb83836127af565b505050565b6001600160a01b0381163314610d705760405162461bcd60e51b815260206004820152602f60248201527f416363657373436f6e74726f6c3a2063616e206f6e6c792072656e6f756e636560448201526e103937b632b9903337b91039b2b63360891b6064820152608401610a48565b610b618282612835565b610d9260008051602061641183398151915233611a67565b610dae5760405162461bcd60e51b8152600401610a4890615f9f565b610db661289c565b565b600080600260c95403610ddd5760405162461bcd60e51b8152600401610a4890615fbb565b600260c95560975460ff1615610e055760405162461bcd60e51b8152600401610a4890615ff2565b61023554600090610e1e906001600160a01b0316612929565b6001600160a01b0316638c7a63ae866040518263ffffffff1660e01b8152600401610e4b91815260200190565b60a060405180830381865afa158015610e68573d6000803e3d6000fd5b505050506040513d601f19601f82011682018060405250810190610e8c9190616032565b9050610e99818686612934565b600160c95590969095509350505050565b6000610b9d6101c3612c31565b600080600260c95403610edc5760405162461bcd60e51b8152600401610a4890615fbb565b600260c95560975460ff1615610f045760405162461bcd60e51b8152600401610a4890615ff2565b6000610f116101c3612c3c565b61023554909150600090610f2d906001600160a01b0316612929565b60405163463d31d760e11b8152600481018790529091506000906001600160a01b03831690638c7a63ae9060240160a060405180830381865afa158015610f78573d6000803e3d6000fd5b505050506040513d601f19601f82011682018060405250810190610f9c9190616032565b60405163430c208160e01b81529091506001600160a01b0383169063430c208190610fcd9033908a906004016160b8565b602060405180830381865afa158015610fea573d6000803e3d6000fd5b505050506040513d601f19601f8201168201806040525081019061100e91906160d1565b1580611020575061101e3361246b565b155b156110425733866040516333bb1eed60e21b8152600401610a489291906160b8565b61104b83612c4b565b63ffffffff16816020015114611077576040516302bf919760e11b815260048101879052602401610a48565b86600003611098576040516389abd5ad60e01b815260040160405180910390fd5b602081015160408201516110ad918591612c64565b8711156110fd5785876110d38360200151846040015187612c649092919063ffffffff16565b604051630160ccb360e71b8152600481019390935260248301919091526044820152606401610a48565b60008061111e836020015184604001516111156123e8565b88929190612c85565b91509150600083608001518385606001518461113a9190615f8c565b61114491906160f3565b61114e9190615f8c565b9050801561116457611161848a83612934565b50505b5060008080611173888d612d6f565b9350509250925060646111846123e8565b61118f906064615f8c565b6111999083616106565b6111a39190616133565b6040516331a9108f60e11b8152600481018d90529091506000906001600160a01b03891690636352211e90602401602060405180830381865afa1580156111ee573d6000803e3d6000fd5b505050506040513d601f19601f820116820180604052508101906112129190616147565b9050876001600160a01b0316635be57b6a604051806040016040528087815260200161123d8d612e57565b815250836040518363ffffffff1660e01b815260040161125e929190616164565b6020604051808303816000875af115801561127d573d6000803e3d6000fd5b505050506040513d601f19601f820116820180604052508101906112a19190616189565b60405163b819220560e01b8152600481018290526024810185905260448101849052909b506001600160a01b0389169063b819220590606401600060405180830381600087803b1580156112f457600080fd5b505af1158015611308573d6000803e3d6000fd5b5050505061138884886040015161131f9190615f8c565b111561152157876001600160a01b0316635be57b6a6040518060400160405280878b6040015161134f9190615f8c565b815260200161135d8d612c4b565b63ffffffff16815250836040518363ffffffff1660e01b8152600401611384929190616164565b6020604051808303816000875af11580156113a3573d6000803e3d6000fd5b505050506040513d601f19601f820116820180604052508101906113c79190616189565b9950848311156114345760405162461bcd60e51b815260206004820152603260248201527f5072696e636970616c20776974686472617761626c65206973206c657373207460448201527168616e207072696e636970616c206d6f766560701b6064820152608401610a48565b8582111561149e5760405162461bcd60e51b815260206004820152603160248201527f496e74657265737420776974686472617761626c65206973206c657373207468604482015270185b881a5b9d195c995cdd081b5bdd9959607a1b6064820152608401610a48565b6001600160a01b03881663b81922058b6114b88689615f8c565b6114c2868b615f8c565b6040516001600160e01b031960e086901b168152600481019390935260248301919091526044820152606401600060405180830381600087803b15801561150857600080fd5b505af115801561151c573d6000803e3d6000fd5b505050505b50866001600160a01b031663b81922058c8689604001516115429190615f8c565b6040516001600160e01b031960e085901b1681526004810192909252602482015260006044820152606401600060405180830381600087803b15801561158757600080fd5b505af115801561159b573d6000803e3d6000fd5b5050604051630852cd8d60e31b8152600481018e90526001600160a01b038a1692506342966c689150602401600060405180830381600087803b1580156115e157600080fd5b505af11580156115f5573d6000803e3d6000fd5b50505050888a8c7f5df84d720403cf4728bc2d21f8e1c46f0427db198f152e92a243a66172a2fbae8f60405161162d91815260200190565b60405180910390a45050505050505050600160c9819055509250929050565b60006109ca6101c383612e87565b6102355460009081906116ec90611679906001600160a01b0316612929565b6001600160a01b0316638c7a63ae856040518263ffffffff1660e01b81526004016116a691815260200190565b60a060405180830381865afa1580156116c3573d6000803e3d6000fd5b505050506040513d601f19601f820116820180604052508101906116e79190616032565b612e93565b91509150915091565b60006109ca6101c383612fed565b6000610b9d6101c3612ff9565b6000600260c954036117345760405162461bcd60e51b8152600401610a4890615fbb565b600260c95560975460ff161561175c5760405162461bcd60e51b8152600401610a4890615ff2565b61023554611772906001600160a01b0316613004565b60405163d505accf60e01b8152336004820152306024820152604481018890526064810187905260ff8616608482015260a4810185905260c481018490526001600160a01b03919091169063d505accf9060e401600060405180830381600087803b1580156117e057600080fd5b505af11580156117f4573d6000803e3d6000fd5b505050506118028787613077565b600160c955979650505050505050565b600054610100900460ff168061182b575060005460ff16155b6118475760405162461bcd60e51b8152600401610a4890615ef6565b600054610100900460ff16158015611869576000805461ffff19166101011790555b611871612576565b8015611883576000805461ff00191690555b50565b6000610b9d6101c361326d565b6000610b9d6101c3613278565b6102355460009081906118bb906001600160a01b0316612929565b6001600160a01b0316638c7a63ae846040518263ffffffff1660e01b81526004016118e891815260200190565b60a060405180830381865afa158015611905573d6000803e3d6000fd5b505050506040513d601f19601f820116820180604052508101906119299190616032565b9050611933610cc8565b81602001511461196c57806020015161194a610cc8565b604051639d07b47960e01b815260048101929092526024820152604401610a48565b60208101516040820151611983916101c391613283565b9392505050565b6119b56040518060800160405280600081526020016000815260200160008152602001600081525090565b60006119cb6119c2610cc8565b6101c3906126dd565b90506040518060800160405280826000015181526020018260200151815260200182604001518152602001826060015181525091505090565b6000610b9d6101c3613290565b611a2960008051602061641183398151915233611a67565b611a455760405162461bcd60e51b8152600401610a4890615f9f565b610db661329b565b6000610b9d6101c36132f3565b6000610b9d6101c36132fe565b60009182526065602090815260408084206001600160a01b0393909316845291905290205460ff1690565b600260c95403611ab45760405162461bcd60e51b8152600401610a4890615fbb565b600260c95560975460ff1615611adc5760405162461bcd60e51b8152600401610a4890615ff2565b828114611b0657604051631f4bb7c160e31b81526004810184905260248101829052604401610a48565b60005b81811015611c035761023554600090611b2a906001600160a01b0316612929565b6001600160a01b0316638c7a63ae878785818110611b4a57611b4a615f44565b905060200201356040518263ffffffff1660e01b8152600401611b6f91815260200190565b60a060405180830381865afa158015611b8c573d6000803e3d6000fd5b505050506040513d601f19601f82011682018060405250810190611bb09190616032565b9050611bed81878785818110611bc857611bc8615f44565b90506020020135868686818110611be157611be1615f44565b90506020020135612934565b5050508080611bfb906161a2565b915050611b09565b5050600160c955505050565b6000610b9d6101c3613309565b600260c95403611c3e5760405162461bcd60e51b8152600401610a4890615fbb565b600260c955611c5b60008051602061643183398151915233611a67565b611c7a5733604051632d4db6b160e21b8152600401610a489190615c9f565b60975460ff1615611c9d5760405162461bcd60e51b8152600401610a4890615ff2565b6102335460ff1615611cc5576040516001620112a160e61b0319815260040160405180910390fd5b80600003611ce65760405163625cef9f60e01b815260040160405180910390fd5b6000611cf36101c3612c3c565b9050611cff8183613314565b6102375461023554611d33916001600160a01b03908116918591611d23911661347b565b6001600160a01b03169190613486565b610237546040518381526001600160a01b03909116907f7411b87a3c039bdfd8f3510b21e8bd0736265f53513735e1f4aa7b4f306b728d9060200160405180910390a25050600160c955565b6000610b9d6101c36134dc565b611d94611ef8565b611db05760405162461bcd60e51b8152600401610a48906161bb565b610233805460ff1916600117905560405130907f90d9b09c68a7e1312ce22801552b47265d77db9496383d51374b4058545447d790600090a2565b600080600260c95403611e105760405162461bcd60e51b8152600401610a4890615fbb565b600260c95560975460ff1615611e385760405162461bcd60e51b8152600401610a4890615ff2565b611e41836134e9565b600160c9559094909350915050565b600080600042841015611e79576040516363c09f6d60e01b815260048101859052602401610a48565b611e82846120e7565b611e8b856116f5565b611e9486610b82565b9250925092509193909250565b611eb960008051602061643183398151915233611a67565b611ed85733604051632d4db6b160e21b8152600401610a489190615c9f565b61023255565b6000610b9d6101c36135cf565b6000610b9d6101c36135dc565b6000610b9d6000805160206163f183398151915233611a67565b611f2a60008051602061643183398151915233611a67565b611f495733604051632d4db6b160e21b8152600401610a489190615c9f565b611f546101c36135e7565b15611f725760405163854eac3360e01b815260040160405180910390fd5b610cfb6102348383615a6d565b6000610b9d6101c36135f2565b611f94611ef8565b611fb05760405162461bcd60e51b8152600401610a48906161bb565b610233805460ff1916905560405130907f7184039938737267597232635b117c924371ac877d4329f2dfa5ca674c5cc4a590600090a2565b611ff0615ab4565b600260c954036120125760405162461bcd60e51b8152600401610a4890615fbb565b600260c95560975460ff161561203a5760405162461bcd60e51b8152600401610a4890615ff2565b612043826135ff565b600160c95592915050565b606061023480548060200260200160405190810160405280929190818152602001828054801561209d57602002820191906000526020600020905b815481526020019060010190808311612089575b5050505050905090565b6000610b9d6101c36137dd565b6000610b9d6101c36137e8565b6000828152606560205260409020600101546120dd813361274b565b610cfb8383612835565b60006109ca6101c3836137f3565b60006109ca6101c3836137ff565b610234818154811061211457600080fd5b600091825260209091200154905081565b6000610b9d6101c361380b565b6000600260c954036121565760405162461bcd60e51b8152600401610a4890615fbb565b600260c95560975460ff161561217e5760405162461bcd60e51b8152600401610a4890615ff2565b6121888383613077565b600160c9559392505050565b600054610100900460ff16806121ad575060005460ff16155b6121c95760405162461bcd60e51b8152600401610a4890615ef6565b600054610100900460ff161580156121eb576000805461ffff19166101011790555b856001600160a01b031663f755f0006040518163ffffffff1660e01b8152600401602060405180830381865afa158015612229573d6000803e3d6000fd5b505050506040513d601f19601f8201168201806040525081019061224d9190616189565b87106122d85786866001600160a01b031663f755f0006040518163ffffffff1660e01b8152600401602060405180830381865afa158015612292573d6000803e3d6000fd5b505050506040513d601f19601f820116820180604052508101906122b69190616189565b604051636702d6b760e11b815260048101929092526024820152604401610a48565b61023580546001600160a01b0319166001600160a01b038d1690811790915560009061230390613816565b905061230e81610a13565b61234361023560009054906101000a90046001600160a01b03168a8a8a8a8f6101c361382e909695949392919063ffffffff16565b61023780546001600160a01b0319166001600160a01b038d1617905542610236556123716102348585615a6d565b5061238a6000805160206164318339815191528c61265b565b6123a26000805160206164318339815191528261265b565b6123c86000805160206164318339815191526000805160206163f1833981519152612665565b5080156123db576000805461ff00191690555b5050505050505050505050565b61023554600090612401906001600160a01b0316613846565b610b9d906064616133565b612414615ab4565b600260c954036124365760405162461bcd60e51b8152600401610a4890615fbb565b600260c95560975460ff1615610ca35760405162461bcd60e51b8152600401610a4890615ff2565b6000610b9d6101c36138b9565b61023554600090612484906001600160a01b03166138c6565b6001600160a01b0316631852f200836102346040518363ffffffff1660e01b81526004016124b3929190616206565b602060405180830381865afa1580156124d0573d6000803e3d6000fd5b505050506040513d601f19601f820116820180604052508101906109ca91906160d1565b600061198383836138d1565b600061198383836138e0565b600054610100900460ff1680612525575060005460ff16155b6125415760405162461bcd60e51b8152600401610a4890615ef6565b600054610100900460ff16158015611871576000805461ffff19166101011790558015611883576000805461ff001916905550565b600054610100900460ff168061258f575060005460ff16155b6125ab5760405162461bcd60e51b8152600401610a4890615ef6565b600054610100900460ff161580156125cd576000805461ffff19166101011790555b6097805460ff191690558015611883576000805461ff001916905550565b600054610100900460ff1680612604575060005460ff16155b6126205760405162461bcd60e51b8152600401610a4890615ef6565b600054610100900460ff16158015612642576000805461ffff19166101011790555b600160c9558015611883576000805461ff001916905550565b610b6182826127af565b600082815260656020526040808220600101805490849055905190918391839186917fbd79b86ffe0ab8e8776151514217cd7cacd52c909f66475c3af44e129f0b00ff9190a4505050565b600061198383836138fc565b60006109ca82613925565b60006109ca82613931565b60006109ca8261393d565b6127086040518060800160405280600081526020016000815260200160008152602001600081525090565b6119838383613949565b60006109ca826139fe565b60006119838383613a0a565b60006109ca82613a19565b600061273f82612c4b565b63ffffffff1692915050565b6127558282611a67565b610b615761276d816001600160a01b03166014613a25565b612778836020613a25565b604051602001612789929190616285565b60408051601f198184030181529082905262461bcd60e51b8252610a48916004016162f4565b6127b98282611a67565b610b615760008281526065602090815260408083206001600160a01b03851684529091529020805460ff191660011790556127f13390565b6001600160a01b0316816001600160a01b0316837f2f8788117e7eff1d82e926ec794901d17c78024a50270940304540a733656f0d60405160405180910390a45050565b61283f8282611a67565b15610b615760008281526065602090815260408083206001600160a01b0385168085529252808320805460ff1916905551339285917ff6391f5c32d9c69d2a47ea670b442974b53935d1edc7fd64eb21e047a839171b9190a45050565b60975460ff166128e55760405162461bcd60e51b815260206004820152601460248201527314185d5cd8589b194e881b9bdd081c185d5cd95960621b6044820152606401610a48565b6097805460ff191690557f5db9ee0a495bf2e6ff9c91a7834c1ba4fdd244a5e8aa4e537bd38aeae4b073aa335b60405161291f9190615c9f565b60405180910390a1565b60006109ca82613bc0565b60008060006129446101c3612c3c565b9050836000036129675760405163d6d9e66560e01b815260040160405180910390fd5b61023554600090612980906001600160a01b0316612929565b60405163430c208160e01b81529091506001600160a01b0382169063430c2081906129b19033908a906004016160b8565b602060405180830381865afa1580156129ce573d6000803e3d6000fd5b505050506040513d601f19601f820116820180604052508101906129f291906160d1565b1580612a045750612a023361246b565b155b15612a265733866040516302bb2cbd60e41b8152600401610a489291906160b8565b600080612a3289612e93565b9092509050612a4181836160f3565b871115612a755786612a5382846160f3565b6040516383a0dc4160e01b815260048101929092526024820152604401610a48565b6000612a818389613bd8565b90506000612a8f828a615f8c565b90506000612a9d8285613bd8565b90506000612aaa88613bee565b90506002816002811115612ac057612ac0616327565b03612b335760405163b819220560e01b8152600481018d905260248101839052604481018590526001600160a01b0388169063b8192205906064015b600060405180830381600087803b158015612b1657600080fd5b505af1158015612b2a573d6000803e3d6000fd5b50505050612bb8565b6000816002811115612b4757612b47616327565b03612b9f578315612b5a57612b5a61633d565b60208d0151612b6b90899084613c5b565b6040516366cbb03760e01b8152600481018d9052602481018390526001600160a01b038816906366cbb03790604401612afc565b604051630682584b60e41b815260040160405180910390fd5b50612bdd33612bc783866160f3565b61023554611d23906001600160a01b031661347b565b6020808d0151604080518681529283018490528d9233917f92f2787b755dae547f1701582fe74c7abf277ec14db316dd01abc69cacf7a259910160405180910390a4919b919a509098505050505050505050565b60006109ca82613cb3565b6000612c4782613cc2565b5090565b60006001612c5a836009015490565b6109ca9190615f8c565b6000612c7d82612c776009870186613d7d565b90613daa565b949350505050565b6000806002612c9387613bee565b6002811115612ca457612ca4616327565b14612cc157612cb860098701868686613dd2565b91509150612d66565b6000612ccc87612c4b565b63ffffffff1686148015612cfc5750612ce787603c01613df8565b6005880154612cfa90603c8a0190613e00565b105b90506000612d0988612c4b565b63ffffffff1687108015612d275750612d2488603c01613df8565b87105b905060008280612d345750815b905080612d4f57612d4a60098a01898989613dd2565b612d5e565b612d5e60098a01898989613ea8565b945094505050505b94509492505050565b6000806000806000612d8087613bee565b90506002816002811115612d9657612d96616327565b14612db9578060026040516361c7dc3b60e01b8152600401610a48929190616375565b6000612dc488612e57565b9050612dcf88612c4b565b63ffffffff168110612df4576040516398248d2160e01b815260040160405180910390fd5b612dfd88613ec1565b15612e1b57604051633416210760e21b815260040160405180910390fd5b612e4387612e288a612c4b565b63ffffffff16838b600901613f06909392919063ffffffff16565b955095509550955050505b92959194509250565b600080612e67603c840142613e00565b9050612e7283613ec1565b612e7c5780611983565b6119838160016160f3565b60006119838383613f4e565b6000808260400151600003612ead57506000928392509050565b600080612ed085602001518660400151612ec56123e8565b6101c3929190614096565b9092509050612ee08160016160f3565b85606001511115612f525760405162461bcd60e51b815260206004820152603660248201527f5072696e636970616c20776974686472617761626c65206973206c65737320746044820152751a185b881c1c9a5b98da5c185b081c995919595b595960521b6064820152608401610a48565b8185608001511115612fc35760405162461bcd60e51b815260206004820152603460248201527f496e74657265737420776974686472617761626c65206973206c657373207468604482015273185b881a5b9d195c995cdd081c995919595b595960621b6064820152608401610a48565b6080850151612fd29083615f8c565b6060860151612fe29083906140a5565b935093505050915091565b600061198383836140bf565b60006109ca8261410b565b60006001600160a01b03821663b93f9b0a60055b6040518263ffffffff1660e01b815260040161303691815260200190565b602060405180830381865afa158015613053573d6000803e3d6000fd5b505050506040513d601f19601f820116820180604052508101906109ca9190616147565b6000806130856101c3612c3c565b9050826000036130a85760405163078e1d8560e01b815260040160405180910390fd5b6130b181612c4b565b63ffffffff1684146130f257836130c782612c4b565b6040516001629f3b6360e01b03198152600481019290925263ffffffff166024820152604401610a48565b6130fb3361246b565b61311a5733604051631e4767b960e31b8152600401610a489190615c9f565b61023254421015613145576102325460405163b809176d60e01b8152600401610a4891815260200190565b61314f8184614117565b61023554600090613168906001600160a01b0316612929565b6001600160a01b0316635be57b6a604051806040016040528087815260200188815250336040518363ffffffff1660e01b81526004016131a9929190616164565b6020604051808303816000875af11580156131c8573d6000803e3d6000fd5b505050506040513d601f19601f820116820180604052508101906131ec9190616189565b610235549091506132209033903090879061320f906001600160a01b031661347b565b6001600160a01b03169291906141de565b8085336001600160a01b03167fcb3ef4109dcd006671348924f00aac8398190a5ff283d6e470d74581513e10368760405161325d91815260200190565b60405180910390a4949350505050565b60006109ca82614216565b60006109ca82614224565b6000612c7d848484612c64565b60006109ca82614232565b60975460ff16156132be5760405162461bcd60e51b8152600401610a4890615ff2565b6097805460ff191660011790557f62e78cea01bee320cd4e420270b5ea74000d11b0c9f74754ebdbfc544b05a2586129123390565b60006109ca8261423e565b60006109ca8261424c565b60006109ca82614258565b600061331f83613bee565b9050600081600281111561333557613335616327565b036133fb57613347603c840142614266565b42600684015561335683613bee565b60405190915030907f139a6829bb850b4fb0d6617ac9f9d32e48c2dbe13e158829fa64f326fafe8e1890600090a2600181600281111561339857613398616327565b146133fb5760405162461bcd60e51b815260206004820152602d60248201527f53636166666f6c64696e67206661696c7572653a2053686f756c64206265204460448201526c1c985dd91bdddb94195c9a5bd9609a1b6064820152608401610a48565b600181600281111561340f5761340f616327565b14613432578060016040516361c7dc3b60e01b8152600401610a48929190616375565b61343b83613a19565b82111561346e578161344c84613a19565b60405163d04a3a1160e01b815260048101929092526024820152604401610a48565b610cfb60098401836142ad565b60006109ca82613004565b610cfb8363a9059cbb60e01b84846040516024016134a59291906160b8565b60408051601f198184030181529190526020810180516001600160e01b03166001600160e01b0319909316929092179091526142d9565b60006109ca826001015490565b6000806134f76101c3612c3c565b5061023554600090613511906001600160a01b0316612929565b6001600160a01b0316638c7a63ae856040518263ffffffff1660e01b815260040161353e91815260200190565b60a060405180830381865afa15801561355b573d6000803e3d6000fd5b505050506040513d601f19601f8201168201806040525081019061357f9190616032565b905060008061358d83612e93565b9092509050600061359e82846160f3565b9050806000036135b75750600096879650945050505050565b6135c2848883612934565b9550955050505050915091565b60006109ca826002015490565b60006109ca826143ab565b60006109ca826143b9565b60006109ca826005015490565b613607615ab4565b60006136146101c3612c3c565b9050826000036136375760405163932ca0a360e01b815260040160405180910390fd5b6000613642826139fe565b9050600061364f8361393d565b9050600061368986848461366288613925565b600289015461367b426136758c826143c7565b906140a5565b6136848b6143ab565b6143d6565b90506000816020015182600001516136a191906160f3565b90506000826060015183604001516136b991906160f3565b905060006136c782846160f3565b905060006064846136d66123e8565b6136e09190616106565b6136ea9190616133565b90506136f78884866144c5565b60808581015160408051878152602081018790529081019190915260608101839052309133917fd1055dc2c2a003a83dfacb1c38db776eab5ef89d77a8f05a3512e8cf57f953ce910160405180910390a3610235546137689033903090859061320f906001600160a01b031661347b565b6102355461379a90613782906001600160a01b0316614553565b610235548390611d23906001600160a01b031661347b565b60405181815230907ff3583f178a8d4f8888c3683f8e948faf9b6eb701c4f1fab265a6ecad1a1ddebb9060200160405180910390a2509298975050505050505050565b60006109ca8261456b565b60006109ca8261462d565b60006119838383614639565b60006119838383614682565b60006109ca82614714565b60006001600160a01b03821663b93f9b0a6007613018565b61383d87878787878787614720565b50505050505050565b60006001600160a01b03821663fc56365860035b6040518263ffffffff1660e01b815260040161387891815260200190565b602060405180830381865afa158015613895573d6000803e3d6000fd5b505050506040513d601f19601f820116820180604052508101906109ca9190616189565b60006109ca826003015490565b60006109ca82614861565b6000611983603c840183614879565b60006119836138f2603c850184613e00565b60098501906148e0565b600061198361391b613911603c860185613e00565b6009860190614934565b61367585856138e0565b60006109ca82426138fc565b60006109ca8242613f4e565b60006109ca82426140bf565b6139746040518060800160405280600081526020016000815260200160008152602001600081525090565b60006139836009850184613d7d565b9050613990816003015490565b6060830152805482526139a284614970565b80156139b857506139b584603c01613df8565b83105b156139e257600281015460018201546139d191906160f3565b6020830152600060408301526139f7565b60018101546020830152600281015460408301525b5092915050565b60006109ca8242614639565b6000611983603c84018361497e565b60006109ca8242614a14565b60606000613a34836002616106565b613a3f9060026160f3565b6001600160401b03811115613a5657613a5661601c565b6040519080825280601f01601f191660200182016040528015613a80576020820181803683370190505b509050600360fc1b81600081518110613a9b57613a9b615f44565b60200101906001600160f81b031916908160001a905350600f60fb1b81600181518110613aca57613aca615f44565b60200101906001600160f81b031916908160001a9053506000613aee846002616106565b613af99060016160f3565b90505b6001811115613b71576f181899199a1a9b1b9c1cb0b131b232b360811b85600f1660108110613b2d57613b2d615f44565b1a60f81b828281518110613b4357613b43615f44565b60200101906001600160f81b031916908160001a90535060049490941c93613b6a81616390565b9050613afc565b5083156119835760405162461bcd60e51b815260206004820181905260248201527f537472696e67733a20686578206c656e67746820696e73756666696369656e746044820152606401610a48565b60006001600160a01b03821663b93f9b0a600c613018565b6000818310613be75781611983565b5090919050565b6000613bfc82603c01614aeb565b8015613c2d57508154613c17906001600160a01b0316614b01565b613c2083614216565b613c2a91906160f3565b42115b15613c3a57506002919050565b613c4682603c01614aeb565b15613c5357506001919050565b506000919050565b6000613c6684613bee565b90506000816002811115613c7c57613c7c616327565b14613c9f578060006040516361c7dc3b60e01b8152600401610a48929190616375565b613cad600985018484614b19565b50505050565b60006109ca603c830142614b4e565b6000613ccd82613bee565b90506000816002811115613ce357613ce3616327565b03613cec575050565b6000613cfa83603c01614be0565b90506000613d18846005015485603c01614be890919063ffffffff16565b905080821115613d3a57613d3a613d30600184615f8c565b6009860190614c4f565b613d438461456b565b60068501556000613d5385613931565b90506000613d608661424c565b600887019290925550600785015550504260059092019190915550565b6000826000018281548110613d9457613d94615f44565b9060005260206000209060360201905092915050565b6000613db4835490565b82613dbe85614cf2565b613dc89190616106565b6119839190616133565b600080613deb8484613de48989613d7d565b9190614d05565b9150915094509492505050565b60006109ca82425b600082613e0c81614aeb565b613e285760405162461bcd60e51b8152600401610a4890615f9f565b83546040516356bd011960e01b81526001600160a01b038216916356bd011991613e6791600160a01b90046001600160401b03169087906004016163a7565b602060405180830381865afa158015613e84573d6000803e3d6000fd5b505050506040513d601f19601f82011682018060405250810190612c7d9190616189565b600080613deb8484613eba8989613d7d565b9190614d29565b600080613ed083603c01614be0565b90506000613ee084603c01614d41565b9050836004015481613ef29190615f8c565b613efc82846163c0565b1015949350505050565b6000808080613f1f87613f198a89613d7d565b90614d89565b92965090945092509050613f4384848484613f3a8d8b613d7d565b93929190614e99565b945094509450949050565b60008260050154821015613f8557600583015460405163d91ecab360e01b8152610a48918491600401918252602082015260400190565b613f9183603c01614aeb565b613f9d575060006109ca565b50600882015481613fad84614224565b846005015411613fe3576000613fd3856005015486603c01614f0a90919063ffffffff16565b9050613fdf8185613bd8565b9150505b60058401548454600091614034916201518090614008906001600160a01b0316614f71565b6140129190616106565b600688015461402590603c8a019061497e565b61402f91906160f3565b614f89565b905061405b8560050154838361404c89600901614f99565b89600201548a60030154614ff5565b61406590846160f3565b92508382101561408e5761408182858361404c89600901615066565b61408b90846160f3565b92505b505092915050565b600080613deb86868686612c85565b60008282116140b657818303611983565b50600092915050565b6000428210156140e5576040516363c09f6d60e01b815260048101839052602401610a48565b6119836141016140f7856009016150bc565b61402f8686614682565b6136758585613f4e565b60006109ca82426138e0565b600061412283613bee565b9050600081600281111561413857614138616327565b1461415b578060006040516361c7dc3b60e01b8152600401610a48929190616375565b600183015461416c846009016150fb565b61417690846160f3565b11156141b85781614189846009016150fb565b600185015460405163b28e2ed760e01b8152600481019390935260248301919091526044820152606401610a48565b610cfb6141c484612c4b565b63ffffffff1683856009016151379092919063ffffffff16565b6040516001600160a01b0380851660248301528316604482015260648101829052613cad9085906323b872dd60e01b906084016134a5565b60006109ca82603c0161516c565b60006109ca82603c016151c0565b60006109ca8242615214565b60006109ca826009016150bc565b60006109ca8242614682565b60006109ca82600901614f99565b8154600160a01b90046001600160401b0316156142855761428561633d565b81546001600160401b03909116600160a01b0267ffffffffffffffff60a01b19909116179055565b60006142cd60016142bc855490565b6142c69190615f8c565b8490613d7d565b9050610cfb81836152be565b600061432e826040518060400160405280602081526020017f5361666545524332303a206c6f772d6c6576656c2063616c6c206661696c6564815250856001600160a01b03166153109092919063ffffffff16565b805190915015610cfb578080602001905181019061434c91906160d1565b610cfb5760405162461bcd60e51b815260206004820152602a60248201527f5361666545524332303a204552433230206f7065726174696f6e20646964206e6044820152691bdd081cdd58d8d9595960b21b6064820152608401610a48565b60006109ca82600901615066565b60006109ca826009016150fb565b6000611983603c840183614f0a565b6143de615ab4565b8760006143eb8983613bd8565b90506143f78183615f8c565b915060006144058884613bd8565b90506144118184615f8c565b9250600061441f8a85613bd8565b905061442b8185615f8c565b935060006144398388615f8c565b9050600061444889838c61531f565b905060006144568288613bd8565b90506144628188615f8c565b965060006144708885613bd8565b905061447c8189615f8c565b97506040518060a00160405280888152602001838761449b91906160f3565b81526020018781526020018281526020018981525098505050505050505050979650505050505050565b60006144d084613bee565b905060028160028111156144e6576144e6616327565b14614509578060026040516361c7dc3b60e01b8152600401610a48929190616375565b614526838361451a87603c01613df8565b6009880192919061536d565b61452f84613925565b1580156145425750614540846139fe565b155b15613cad5742600685015550505050565b60006001600160a01b03821663b93f9b0a6006613018565b6006810154600261457b83613bee565b600281111561458c5761458c616327565b14614598575042919050565b60006145b4836005015484603c01614be890919063ffffffff16565b905060006145c484603c01614be0565b9050815b818110156146255760006145df603c870183615479565b90506145eb86826138fc565b1580156145ff57506145fd8682614639565b155b1561460c57809450614612565b50614625565b508061461d816161a2565b9150506145c8565b505050919050565b60006109ca8242613a0a565b6000826005015482101561467057600583015460405163d91ecab360e01b8152610a48918491600401918252602082015260400190565b61198361467c8461423e565b61367585855b600082600501548210156146b957600583015460405163d91ecab360e01b8152610a48918491600401918252602082015260400190565b6146c283614224565b8211156146da576146d38383613f4e565b90506109ca565b60006146e9603c8501846154e0565b90508360050154811161470257505060078201546109ca565b61470c8482613f4e565b9150506109ca565b60006109ca82426143c7565b600587015415614743576040516379c6736560e11b815260040160405180910390fd5b86546001600160a01b0319166001600160a01b038781169190911788556001880182905560048089018690556040805180820182529286168084526000602094850152603c8b0180546001600160e01b03191682179055815163e08cf88360e01b8152915161480294919363e08cf88393808201939291908290030181865afa1580156147d4573d6000803e3d6000fd5b505050506040513d601f19601f820116820180604052508101906147f89190616189565b6009890190615547565b506002878101869055600388018390554260058901819055600689015560006008890181905560078901556009880154101561383d5760098701546040516379f0d49560e11b8152600481019190915260026024820152604401610a48565b60006001600160a01b03821663b93f9b0a6013613018565b60008261488581614aeb565b6148a15760405162461bcd60e51b8152600401610a4890615f9f565b83546040516347487c0160e01b81526001600160a01b038216916347487c0191613e6791600160a01b90046001600160401b03169087906004016163a7565b6000805b828110156139f75761491684600001828154811061490457614904615f44565b90600052602060002090603602015490565b61492090836160f3565b91508061492c816161a2565b9150506148e4565b6000805b828110156139f75761495261494d8583613d7d565b6155ee565b61495c90836160f3565b915080614968816161a2565b915050614938565b60006109ca82603c01614aeb565b600061498983614aeb565b614994576000611983565b82546040516308ba6bcb60e41b81526001600160a01b03821691638ba6bcb0916149d391600160a01b90046001600160401b03169086906004016163a7565b602060405180830381865afa1580156149f0573d6000803e3d6000fd5b505050506040513d601f19601f820116820180604052508101906119839190616189565b600080614a2384600901615604565b9050614a2e84614970565b614a395790506109ca565b6000614a48603c860185613e00565b90506000614a66866005015487603c01613e0090919063ffffffff16565b90506000614a776009880184615643565b90508183118015614a965750614a8c87612c4b565b63ffffffff168311155b15614ad657614ac9614ac2614aaa89612c4b565b63ffffffff1689600901613d7d90919063ffffffff16565b6002015490565b614ad390826160f3565b90505b614ae081856160f3565b979650505050505050565b54600160a01b90046001600160401b0316151590565b60006001600160a01b03821663fc563658600761385a565b610cfb81846000018481548110614b3257614b32615f44565b906000526020600020906036020161569a90919063ffffffff16565b6000614b5983614aeb565b158061198357508254604051634922ed6b60e11b81526001600160a01b03821691639245dad691614b9f91600160a01b90046001600160401b03169086906004016163a7565b602060405180830381865afa158015614bbc573d6000803e3d6000fd5b505050506040513d601f19601f8201168201806040525081019061198391906160d1565b60006109ca82425b600082614bf481614aeb565b614c105760405162461bcd60e51b8152600401610a4890615f9f565b8354604051636a3d374160e11b81526001600160a01b0382169163d47a6e8291613e6791600160a01b90046001600160401b03169087906004016163a7565b60006001614c5b845490565b614c659190615f8c565b90506000836000018281548110614c7e57614c7e615f44565b90600052602060002090603602019050614c97816156db565b60005b838111158015614ca957508281105b15614ceb57614cd9856000018281548110614cc657614cc6615f44565b90600052602060002090603602016156db565b80614ce3816161a2565b915050614c9a565b5050505050565b600181015481546000916109ca91615f8c565b600080614d13858585615702565b614d1d868661574a565b91509150935093915050565b600080614d37858585615702565b614d1d8686615760565b805460408051620f755f60ec1b815290516000926001600160a01b03169163f755f0009160048083019260209291908290030181865afa158015613895573d6000803e3d6000fd5b600080600080614d9886614cf2565b851115614da957614da98686615785565b614db7866002015486613bd8565b9150614dc286614cf2565b858760010154614dd29190616106565b614ddc9190616133565b9250614de883866160f3565b93508560000154848760030154614dff9190616106565b614e099190616133565b905082866001016000828254614e1f9190615f8c565b9250508190555080866003016000828254614e3a9190615f8c565b9091555050855484908790600090614e53908490615f8c565b9250508190555081866002016000828254614e6e9190615f8c565b909155505060028601546001870154614e8791906160f3565b86541015612e4e57612e4e8686615785565b83856000016000828254614ead91906160f3565b9250508190555082856001016000828254614ec891906160f3565b9250508190555081856002016000828254614ee391906160f3565b9250508190555080856003016000828254614efe91906160f3565b90915550505050505050565b600082614f1681614aeb565b614f325760405162461bcd60e51b8152600401610a4890615f9f565b8354604051635c16b67360e11b81526001600160a01b0382169163b82d6ce691613e6791600160a01b90046001600160401b03169087906004016163a7565b60006001600160a01b03821663fc563658600561385a565b600081831015613be75781611983565b6000805b8254811015614fef57614fd1836000018281548110614fbe57614fbe615f44565b9060005260206000209060360201614cf2565b614fdb90836160f3565b915080614fe7816161a2565b915050614f9d565b50919050565b60008686116150065750600061505c565b60006150128888615f8c565b905061501f81868661531f565b91508686101561505a57600061503f615038888b614f89565b89906140a5565b905061504c81878661531f565b61505690846160f3565b9250505b505b9695505050505050565b6000805b8254811015614fef5761509e83600001828154811061508b5761508b615f44565b90600052602060002090603602016157cc565b6150a890836160f3565b9150806150b4816161a2565b91505061506a565b6000805b8254811015614fef576150dd6150d68483613d7d565b6003015490565b6150e790836160f3565b9150806150f3816161a2565b9150506150c0565b6000805b8254811015614fef576151196151158483613d7d565b5490565b61512390836160f3565b91508061512f816161a2565b9150506150ff565b610cfb8184600001848154811061515057615150615f44565b90600052602060002090603602016157e590919063ffffffff16565b600061517782614aeb565b6151825760006109ca565b815460405163df3dc09160e01b8152600160a01b82046001600160401b031660048201526001600160a01b039091169063df3dc09190602401613878565b60006151cb82614aeb565b6151d65760006109ca565b81546040516334a88f4360e01b8152600160a01b82046001600160401b031660048201526001600160a01b03909116906334a88f4390602401613878565b6000600261522184613bee565b600281111561523257615232616327565b1461523f575060006109ca565b8254600090620151809061525b906001600160a01b0316614f71565b6152659190616106565b9050600061527f6152758661456b565b603c87019061497e565b9050600061528d86866138e0565b11806152a2575060006152a08686614682565b115b801561408b57506152b382826160f3565b909311949350505050565b81600101548111156152f357600182015460405163d04a3a1160e01b8152610a48918391600401918252602082015260400190565b808260010160008282546153079190615f8c565b90915550505050565b6060612c7d8484600085615826565b600080670de0b6b3a76400006153358486616106565b61533f9190616133565b90506153506201518061016d616106565b61535a8683616106565b6153649190616133565b95945050505050565b600061537885614f99565b90508060000361539e5760405163b6aca02f60e01b815260048101859052602401610a48565b60005b855481101561544f5760008660000182815481106153c1576153c1615f44565b906000526020600020906036020190506000836153dd83614cf2565b6153e79088616106565b6153f19190616133565b9050600061540888615402856157cc565b90613bd8565b90506154148189615f8c565b97508584101561542e57615429838284615943565b615439565b6154398382846159ab565b5050508080615447906161a2565b9150506153a1565b508315614ceb5760405163b694ba5760e01b81526004810185905260248101829052604401610a48565b60008261548581614aeb565b6154a15760405162461bcd60e51b8152600401610a4890615f9f565b8354604051638dfdc69560e01b81526001600160a01b03821691638dfdc69591613e6791600160a01b90046001600160401b03169087906004016163a7565b6000826154ec81614aeb565b6155085760405162461bcd60e51b8152600401610a4890615f9f565b8354604051630103299960e31b81526001600160a01b038216916308194cc891613e6791600160a01b90046001600160401b03169087906004016163a7565b81546000901561556a576040516379c6736560e11b815260040160405180910390fd5b60005b828110156155e65761557d615ae3565b8454600181810187556000878152602090819020845160369094020192835583015190820155604082015160028201556060820151600382015560808201518291906155cf9060048301906032615b17565b5050505080806155de906161a2565b91505061556d565b509192915050565b6000816002015482600101546109ca91906160f3565b6000805b8254811015614fef5761562561561e8483613d7d565b6001015490565b61562f90836160f3565b91508061563b816161a2565b915050615608565b6000805b828110156139f75761567c84600001828154811061566757615667615f44565b90600052602060002090603602016002015490565b61568690836160f3565b915080615692816161a2565b915050615647565b6003820154156156ac576156ac61633d565b808260000160008282546156c09190615f8c565b92505081905550808260010160008282546153079190615f8c565b80600201548160010160008282546156f391906160f3565b90915550506000600290910155565b600061570c845490565b615717906064616106565b61572083615a09565b8461572c876003015490565b6157369190616106565b6157409190616106565b612c7d9190616133565b6000615754835490565b82613dbe856001015490565b600061576a835490565b82846002015461577b866001015490565b613dbe91906160f3565b8154600183015460028401546003850154604051630190835f60e31b815260048101869052602481019490945260448401929092526064830152608482015260a401610a48565b60028101546001820154825460009291612c5a91615f8c565b6003820154156157f7576157f761633d565b8082600001600082825461580b91906160f3565b925050819055508082600101600082825461530791906160f3565b6060824710156158875760405162461bcd60e51b815260206004820152602660248201527f416464726573733a20696e73756666696369656e742062616c616e636520666f6044820152651c8818d85b1b60d21b6064820152608401610a48565b843b6158d55760405162461bcd60e51b815260206004820152601d60248201527f416464726573733a2063616c6c20746f206e6f6e2d636f6e74726163740000006044820152606401610a48565b600080866001600160a01b031685876040516158f191906163d4565b60006040518083038185875af1925050503d806000811461592e576040519150601f19603f3d011682016040523d82523d6000602084013e615933565b606091505b5091509150614ae0828286615a16565b8254828460020154856001015461595a91906160f3565b61596491906160f3565b11156159725761597261633d565b8083600301600082825461598691906160f3565b92505081905550818360010160008282546159a191906160f3565b9091555050505050565b825482846002015485600101546159c291906160f3565b6159cc91906160f3565b11156159da576159da61633d565b808360030160008282546159ee91906160f3565b92505081905550818360020160008282546159a191906160f3565b60006109ca826064615f8c565b60608315615a25575081611983565b825115615a355782518084602001fd5b8160405162461bcd60e51b8152600401610a4891906162f4565b60405180606001604052806003906020820280368337509192915050565b828054828255906000526020600020908101928215615aa8579160200282015b82811115615aa8578235825591602001919060010190615a8d565b50612c47929150615b45565b6040518060a0016040528060008152602001600081526020016000815260200160008152602001600081525090565b6040518060a0016040528060008152602001600081526020016000815260200160008152602001615b12615b5a565b905290565b8260328101928215615aa8579160200282015b82811115615aa8578251825591602001919060010190615b2a565b5b80821115612c475760008155600101615b46565b6040518061064001604052806032906020820280368337509192915050565b600060208284031215615b8b57600080fd5b5035919050565b600060208284031215615ba457600080fd5b81356001600160e01b03198116811461198357600080fd5b6001600160a01b038116811461188357600080fd5b600060208284031215615be357600080fd5b813561198381615bbc565b60608101818360005b6003811015615c1957815160ff16835260209283019290910190600101615bf7565b50505092915050565b81518152602080830151908201526040808301519082015260608083015190820152608081016109ca565b60008060408385031215615c6057600080fd5b823591506020830135615c7281615bbc565b809150509250929050565b60008060408385031215615c9057600080fd5b50508035926020909101359150565b6001600160a01b0391909116815260200190565b60008060008060008060c08789031215615ccc57600080fd5b863595506020870135945060408701359350606087013560ff81168114615cf257600080fd5b9598949750929560808101359460a0909101359350915050565b60008083601f840112615d1e57600080fd5b5081356001600160401b03811115615d3557600080fd5b6020830191508360208260051b8501011115615d5057600080fd5b9250929050565b60008060008060408587031215615d6d57600080fd5b84356001600160401b0380821115615d8457600080fd5b615d9088838901615d0c565b90965094506020870135915080821115615da957600080fd5b50615db687828801615d0c565b95989497509550505050565b60008060208385031215615dd557600080fd5b82356001600160401b03811115615deb57600080fd5b615df785828601615d0c565b90969095509350505050565b6020808252825182820181905260009190848201906040850190845b81811015615e3b57835183529284019291840191600101615e1f565b50909695505050505050565b6000806000806000806000806000806101208b8d031215615e6757600080fd5b8a35615e7281615bbc565b995060208b0135615e8281615bbc565b985060408b0135975060608b0135965060808b0135955060a08b0135615ea781615bbc565b945060c08b0135935060e08b013592506101008b01356001600160401b03811115615ed157600080fd5b615edd8d828e01615d0c565b915080935050809150509295989b9194979a5092959850565b6020808252602e908201527f496e697469616c697a61626c653a20636f6e747261637420697320616c72656160408201526d191e481a5b9a5d1a585b1a5e995960921b606082015260800190565b634e487b7160e01b600052603260045260246000fd5b602080825260029082015261555360f01b604082015260600190565b634e487b7160e01b600052601160045260246000fd5b818103818111156109ca576109ca615f76565b6020808252600290820152614e4160f01b604082015260600190565b6020808252601f908201527f5265656e7472616e637947756172643a207265656e7472616e742063616c6c00604082015260600190565b60208082526010908201526f14185d5cd8589b194e881c185d5cd95960821b604082015260600190565b634e487b7160e01b600052604160045260246000fd5b600060a0828403121561604457600080fd5b60405160a081018181106001600160401b038211171561607457634e487b7160e01b600052604160045260246000fd5b604052825161608281615bbc565b80825250602083015160208201526040830151604082015260608301516060820152608083015160808201528091505092915050565b6001600160a01b03929092168252602082015260400190565b6000602082840312156160e357600080fd5b8151801515811461198357600080fd5b808201808211156109ca576109ca615f76565b80820281158282048414176109ca576109ca615f76565b634e487b7160e01b600052601260045260246000fd5b6000826161425761614261611d565b500490565b60006020828403121561615957600080fd5b815161198381615bbc565b82518152602092830151928101929092526001600160a01b0316604082015260600190565b60006020828403121561619b57600080fd5b5051919050565b6000600182016161b4576161b4615f76565b5060010190565b6020808252602b908201527f4d75737420686176652061646d696e20726f6c6520746f20706572666f726d2060408201526a3a3434b99030b1ba34b7b760a91b606082015260800190565b6001600160a01b0383168152604060208083018290528354918301829052600084815281812090929091906060850190845b8181101561625457845483526001948501949284019201616238565b5090979650505050505050565b60005b8381101561627c578181015183820152602001616264565b50506000910152565b76020b1b1b2b9b9a1b7b73a3937b61d1030b1b1b7bab73a1604d1b8152600083516162b7816017850160208801616261565b7001034b99036b4b9b9b4b733903937b6329607d1b60179184019182015283516162e8816028840160208801616261565b01602801949350505050565b6020815260008251806020840152616313816040850160208701616261565b601f01601f19169190910160400192915050565b634e487b7160e01b600052602160045260246000fd5b634e487b7160e01b600052600160045260246000fd5b6003811061637157634e487b7160e01b600052602160045260246000fd5b9052565b604081016163838285616353565b6119836020830184616353565b60008161639f5761639f615f76565b506000190190565b6001600160401b03929092168252602082015260400190565b6000826163cf576163cf61611d565b500690565b600082516163e6818460208701616261565b919091019291505056feb19546dff01e856fb3f010c267a7b1c60363cf8a4664e21cc89c26224620214e65d7a28e3265b37a6474929f336521b332c1681b933f6cb9f3376673440d862aaf9a8bb3cbd6b84fbccefa71ff73e26e798553c6914585a84886212a46a90279a2646970667358221220d14e80b211eefcb4470be45890237c66e4d27b667ea08fd2ed69635e7068767b64736f6c63430008110033",
  "devdoc": {
    "author": "Warbler Labs",
    "kind": "dev",
    "methods": {
      "availableToWithdraw(uint256)": {
        "params": {
          "tokenId": "position to query max amount withdrawable for"
        },
        "returns": {
          "_0": "total interest withdrawable on the position",
          "_1": "total principal redeemable on the position"
        }
      },
      "deposit(uint256,uint256)": {
        "params": {
          "amount": "amount of capital to supply",
          "tranche": "*UNSUPPORTED* - Should always be uncalled capital tranche index."
        },
        "returns": {
          "_0": "tokenId NFT representing your position in this pool"
        }
      },
      "depositWithPermit(uint256,uint256,uint256,uint8,bytes32,bytes32)": {
        "params": {
          "amount": "amount of capital to supply",
          "deadline": "deadline of permit operation",
          "r": "r portion of signature",
          "s": "s portion of signature",
          "tranche": "*UNSUPPORTED* -",
          "v": "v portion of signature"
        },
        "returns": {
          "tokenId": "NFT representing your position in this pool"
        }
      },
      "drawdown(uint256)": {
        "params": {
          "amount": "USDC to drawdown. This amount is transferred to the caller"
        }
      },
      "getAmountsOwed(uint256)": {
        "params": {
          "timestamp": "time to calculate up to"
        },
        "returns": {
          "returnedInterestAccrued": "amount of accrued interest (not yet owed) that can be paid at `timestamp`",
          "returnedInterestOwed": "amount of obligated interest owed at `timestamp`",
          "returnedPrincipalOwed": "amount of principal owed at `timestamp`"
        }
      },
      "getRoleAdmin(bytes32)": {
        "details": "Returns the admin role that controls `role`. See {grantRole} and {revokeRole}. To change a role's admin, use {_setRoleAdmin}."
      },
      "grantRole(bytes32,address)": {
        "details": "Grants `role` to `account`. If `account` had not been already granted `role`, emits a {RoleGranted} event. Requirements: - the caller must have ``role``'s admin role."
      },
      "hasRole(bytes32,address)": {
        "details": "Returns `true` if `account` has been granted `role`."
      },
      "initialize(address,address,uint256,uint256,uint256,address,uint256,uint256,uint256[])": {
        "params": {
          "_borrower": "address of borrower, a non-transferrable role for performing privileged actions like   drawdown",
          "_config": "address of GoldfinchConfig",
          "_fundableAt": "earliest time at which the first slice can be funded",
          "_interestApr": "interest rate for the loan",
          "_lateFeeApr": "late fee interest rate for the loan, which kicks in `LatenessGracePeriodInDays` days after a   payment becomes late",
          "_limit": "the number of periods at the tail end of a principal period during which call requests rollover   to the next principal period."
        }
      },
      "pause()": {
        "details": "Pauses all functions guarded by Pause See {Pausable-_pause}. Requirements: - the caller must have the PAUSER_ROLE."
      },
      "paused()": {
        "details": "Returns true if the contract is paused, and false otherwise."
      },
      "pay(uint256)": {
        "details": "{this} must be approved by msg.sender to transfer {amount} of USDC",
        "params": {
          "amount": "USDC amount to pay"
        },
        "returns": {
          "_0": "PaymentAllocation info on how the payment was allocated"
        }
      },
      "renounceRole(bytes32,address)": {
        "details": "Revokes `role` from the calling account. Roles are often managed via {grantRole} and {revokeRole}: this function's purpose is to provide a mechanism for accounts to lose their privileges if they are compromised (such as when a trusted device is misplaced). If the calling account had been granted `role`, emits a {RoleRevoked} event. Requirements: - the caller must be `account`."
      },
      "revokeRole(bytes32,address)": {
        "details": "Revokes `role` from `account`. If `account` had been granted `role`, emits a {RoleRevoked} event. Requirements: - the caller must have ``role``'s admin role."
      },
      "submitCall(uint256,uint256)": {
        "params": {
          "callAmount": "Amount of capital to call back",
          "poolTokenId": "Pool token id to be called back."
        },
        "returns": {
          "callRequestedTokenId": " Token id of the call requested token.",
          "remainingTokenId": "Token id of the remaining token."
        }
      },
      "supportsInterface(bytes4)": {
        "details": "See {IERC165-supportsInterface}."
      },
      "unpause()": {
        "details": "Unpauses the contract See {Pausable-_unpause}. Requirements: - the caller must have the Pauser role"
      },
      "withdraw(uint256,uint256)": {
        "params": {
          "amount": "amount to withdraw (must be <= interest+principal available to withdraw)",
          "tokenId": "the NFT representing the position"
        },
        "returns": {
          "_0": "interest withdrawn",
          "_1": "principal withdrawn"
        }
      },
      "withdrawMultiple(uint256[],uint256[])": {
        "params": {
          "amounts": "amounts to withdraw from positions such that amounts[i] is withdrawn from position tokenIds[i]",
          "tokenIds": "NFT positions to withdraw. Caller must be an owner or approved on all tokens in the array"
        }
      }
    },
    "title": "CallableLoan",
    "version": 1
  },
  "userdoc": {
    "events": {
      "PaymentApplied(address,address,uint256,uint256,uint256,uint256)": {
        "notice": "Event emitted on payment"
      },
      "WithdrawalMade(address,uint256,uint256,uint256,uint256)": {
        "notice": "While owner is the label of the first argument, it is actually the sender of the transaction."
      }
    },
    "kind": "user",
    "methods": {
      "availableToWithdraw(uint256)": {
        "notice": "Query the max amount available to withdraw for tokenId's position"
      },
      "createdAt()": {
        "notice": "Time when the pool was initialized. Zero if uninitialized"
      },
      "creditLine()": {
        "notice": "Pool's credit line, responsible for managing the loan's accounting variables"
      },
      "deposit(uint256,uint256)": {
        "notice": "Supply capital to the loan."
      },
      "depositWithPermit(uint256,uint256,uint256,uint8,bytes32,bytes32)": {
        "notice": "Supply capital to the loan."
      },
      "drawdown(uint256)": {
        "notice": "Drawdown the loan. The credit line's balance should increase by the amount drawn down.   Junior capital must be locked before this function can be called. If senior capital isn't locked   then this function will lock it for you (convenience to avoid calling lockPool() separately).   This function should revert if the amount requested exceeds the the current slice's currentLimit   This function should revert if the caller is not the borrower."
      },
      "getAmountsOwed(uint256)": {
        "notice": "Compute interest and principal owed on the current balance at a future timestamp"
      },
      "getVersion()": {
        "notice": "Returns the version triplet `[major, minor, patch]`"
      },
      "initialize(address,address,uint256,uint256,uint256,address,uint256,uint256,uint256[])": {
        "notice": "Initialize the pool. Can only be called once, and should be called in the same transaction as   contract creation to avoid initialization front-running"
      },
      "interestAccrued()": {
        "notice": "Interest accrued in the current payment period up to now. Converted to   owed interest once we cross into the next payment period. Is 0 if the   current time is after loan maturity (all interest accrued immediately becomes   interest owed)."
      },
      "interestAccruedAsOf()": {
        "notice": "We keep this to conform to the ICreditLine interface, but it's redundant information   now that we have `checkpointedAsOf`"
      },
      "interestAccruedAt(uint256)": {
        "notice": "Interest accrued in the current payment period for `timestamp`. Coverted to   owed interest once we cross into the payment period after `timestamp`. Is 0   if `timestamp` is after loan maturity (all interest accrued immediately becomes   interest owed)."
      },
      "interestOwedAt(uint256)": {
        "notice": "Interest that would be owed at `timestamp`"
      },
      "maxLimit()": {
        "notice": "Unsupported in callable loans."
      },
      "pauseDrawdowns()": {
        "notice": "Pauses all drawdowns (but not deposits/withdraws)"
      },
      "pay(uint256)": {
        "notice": "Pay down interest + principal. Excess payments are refunded to the caller"
      },
      "pay(uint256,uint256)": {
        "notice": "Unsupported in callable loans."
      },
      "principalOwedAt(uint256)": {
        "notice": "Principal owed up to `timestamp`"
      },
      "setAllowedUIDTypes(uint256[])": {
        "notice": "Set accepted UID types for the loan. Requires that users have not already begun to deposit."
      },
      "setFundableAt(uint256)": {
        "notice": "Update `fundableAt` to a new timestamp. Only the borrower can call this."
      },
      "setLimit(uint256)": {
        "notice": "Unsupported ICreditLine method kept for ICreditLine conformance"
      },
      "setMaxLimit(uint256)": {
        "notice": "Unsupported in callable loans."
      },
      "submitCall(uint256,uint256)": {
        "notice": "Submit a call request for the given amount of capital.         The borrower is obligated to pay the call request back at the end of the         corresponding call request period."
      },
      "termStartTime()": {
        "notice": "Time of first drawdown"
      },
      "totalInterestAccrued()": {
        "notice": "Cumulative interest accrued up to now"
      },
      "totalInterestAccruedAt(uint256)": {
        "notice": "Cumulative interest accrued up to `timestamp`"
      },
      "totalInterestOwed()": {
        "notice": "Cumulative interest owed up to now"
      },
      "totalInterestOwedAt(uint256)": {
        "notice": "Cumulative interest owed up to `timestamp`"
      },
      "totalInterestPaid()": {
        "notice": "Cumulative interest paid back up to now"
      },
      "totalPrincipalOwed()": {
        "notice": "Cumulative principal owed at current timestamp"
      },
      "totalPrincipalOwedAt(uint256)": {
        "notice": "Cumulative principal owed at timestamp"
      },
      "totalPrincipalPaid()": {
        "notice": "Returns the total amount of principal thats been paid"
      },
      "unpauseDrawdowns()": {
        "notice": "Unpause drawdowns"
      },
      "withdraw(uint256,uint256)": {
        "notice": "Withdraw an already deposited amount if the funds are available. Caller must be the owner or   approved by the owner on tokenId. Amount withdrawn is sent to the caller."
      },
      "withdrawMax(uint256)": {
        "notice": "Similar to withdraw but withdraw the max interest and principal available for `tokenId`"
      },
      "withdrawMultiple(uint256[],uint256[])": {
        "notice": "Withdraw from multiple tokens"
      }
    },
    "notice": "A loan that allows the lenders to call back capital from the borrower.",
    "version": 1
  },
  "storageLayout": {
    "storage": [
      {
        "astId": 663,
        "contract": "contracts/protocol/core/callable/CallableLoan.sol:CallableLoan",
        "label": "_initialized",
        "offset": 0,
        "slot": "0",
        "type": "t_bool"
      },
      {
        "astId": 666,
        "contract": "contracts/protocol/core/callable/CallableLoan.sol:CallableLoan",
        "label": "_initializing",
        "offset": 1,
        "slot": "0",
        "type": "t_bool"
      },
      {
        "astId": 3057,
        "contract": "contracts/protocol/core/callable/CallableLoan.sol:CallableLoan",
        "label": "__gap",
        "offset": 0,
        "slot": "1",
        "type": "t_array(t_uint256)50_storage"
      },
      {
        "astId": 3673,
        "contract": "contracts/protocol/core/callable/CallableLoan.sol:CallableLoan",
        "label": "__gap",
        "offset": 0,
        "slot": "51",
        "type": "t_array(t_uint256)50_storage"
      },
      {
        "astId": 258,
        "contract": "contracts/protocol/core/callable/CallableLoan.sol:CallableLoan",
        "label": "_roles",
        "offset": 0,
        "slot": "101",
        "type": "t_mapping(t_bytes32,t_struct(RoleData)253_storage)"
      },
      {
        "astId": 543,
        "contract": "contracts/protocol/core/callable/CallableLoan.sol:CallableLoan",
        "label": "__gap",
        "offset": 0,
        "slot": "102",
        "type": "t_array(t_uint256)49_storage"
      },
      {
        "astId": 724,
        "contract": "contracts/protocol/core/callable/CallableLoan.sol:CallableLoan",
        "label": "_paused",
        "offset": 0,
        "slot": "151",
        "type": "t_bool"
      },
      {
        "astId": 815,
        "contract": "contracts/protocol/core/callable/CallableLoan.sol:CallableLoan",
        "label": "__gap",
        "offset": 0,
        "slot": "152",
        "type": "t_array(t_uint256)49_storage"
      },
      {
        "astId": 830,
        "contract": "contracts/protocol/core/callable/CallableLoan.sol:CallableLoan",
        "label": "_status",
        "offset": 0,
        "slot": "201",
        "type": "t_uint256"
      },
      {
        "astId": 873,
        "contract": "contracts/protocol/core/callable/CallableLoan.sol:CallableLoan",
        "label": "__gap",
        "offset": 0,
        "slot": "202",
        "type": "t_array(t_uint256)49_storage"
      },
      {
        "astId": 11739,
        "contract": "contracts/protocol/core/callable/CallableLoan.sol:CallableLoan",
        "label": "__gap1",
        "offset": 0,
        "slot": "251",
        "type": "t_array(t_uint256)50_storage"
      },
      {
        "astId": 11743,
        "contract": "contracts/protocol/core/callable/CallableLoan.sol:CallableLoan",
        "label": "__gap2",
        "offset": 0,
        "slot": "301",
        "type": "t_array(t_uint256)50_storage"
      },
      {
        "astId": 11747,
        "contract": "contracts/protocol/core/callable/CallableLoan.sol:CallableLoan",
        "label": "__gap3",
        "offset": 0,
        "slot": "351",
        "type": "t_array(t_uint256)50_storage"
      },
      {
        "astId": 11751,
        "contract": "contracts/protocol/core/callable/CallableLoan.sol:CallableLoan",
        "label": "__gap4",
        "offset": 0,
        "slot": "401",
        "type": "t_array(t_uint256)50_storage"
      },
      {
        "astId": 12291,
        "contract": "contracts/protocol/core/callable/CallableLoan.sol:CallableLoan",
        "label": "_staleCreditLine",
        "offset": 0,
        "slot": "451",
        "type": "t_struct(StaleCallableCreditLine)16919_storage"
      },
      {
        "astId": 12293,
        "contract": "contracts/protocol/core/callable/CallableLoan.sol:CallableLoan",
        "label": "fundableAt",
        "offset": 0,
        "slot": "562",
        "type": "t_uint256"
      },
      {
        "astId": 12295,
        "contract": "contracts/protocol/core/callable/CallableLoan.sol:CallableLoan",
        "label": "drawdownsPaused",
        "offset": 0,
        "slot": "563",
        "type": "t_bool"
      },
      {
        "astId": 12298,
        "contract": "contracts/protocol/core/callable/CallableLoan.sol:CallableLoan",
        "label": "allowedUIDTypes",
        "offset": 0,
        "slot": "564",
        "type": "t_array(t_uint256)dyn_storage"
      },
      {
        "astId": 12301,
        "contract": "contracts/protocol/core/callable/CallableLoan.sol:CallableLoan",
        "label": "config",
        "offset": 0,
        "slot": "565",
        "type": "t_contract(IGoldfinchConfig)8813"
      },
      {
        "astId": 12304,
        "contract": "contracts/protocol/core/callable/CallableLoan.sol:CallableLoan",
        "label": "createdAt",
        "offset": 0,
        "slot": "566",
        "type": "t_uint256"
      },
      {
        "astId": 12307,
        "contract": "contracts/protocol/core/callable/CallableLoan.sol:CallableLoan",
        "label": "borrower",
        "offset": 0,
        "slot": "567",
        "type": "t_address"
      }
    ],
    "types": {
      "t_address": {
        "encoding": "inplace",
        "label": "address",
        "numberOfBytes": "20"
      },
      "t_array(t_struct(Tranche)17572_storage)dyn_storage": {
        "base": "t_struct(Tranche)17572_storage",
        "encoding": "dynamic_array",
        "label": "struct Tranche[]",
        "numberOfBytes": "32"
      },
      "t_array(t_uint256)49_storage": {
        "base": "t_uint256",
        "encoding": "inplace",
        "label": "uint256[49]",
        "numberOfBytes": "1568"
      },
      "t_array(t_uint256)50_storage": {
        "base": "t_uint256",
        "encoding": "inplace",
        "label": "uint256[50]",
        "numberOfBytes": "1600"
      },
      "t_array(t_uint256)dyn_storage": {
        "base": "t_uint256",
        "encoding": "dynamic_array",
        "label": "uint256[]",
        "numberOfBytes": "32"
      },
      "t_bool": {
        "encoding": "inplace",
        "label": "bool",
        "numberOfBytes": "1"
      },
      "t_bytes32": {
        "encoding": "inplace",
        "label": "bytes32",
        "numberOfBytes": "32"
      },
      "t_contract(IGoldfinchConfig)8813": {
        "encoding": "inplace",
        "label": "contract IGoldfinchConfig",
        "numberOfBytes": "20"
      },
      "t_contract(ISchedule)10503": {
        "encoding": "inplace",
        "label": "contract ISchedule",
        "numberOfBytes": "20"
      },
      "t_mapping(t_address,t_bool)": {
        "encoding": "mapping",
        "key": "t_address",
        "label": "mapping(address => bool)",
        "numberOfBytes": "32",
        "value": "t_bool"
      },
      "t_mapping(t_bytes32,t_struct(RoleData)253_storage)": {
        "encoding": "mapping",
        "key": "t_bytes32",
        "label": "mapping(bytes32 => struct AccessControlUpgradeable.RoleData)",
        "numberOfBytes": "32",
        "value": "t_struct(RoleData)253_storage"
      },
      "t_struct(CallableCreditLine)15049_storage": {
        "encoding": "inplace",
        "label": "struct CallableCreditLine",
        "members": [
          {
            "astId": 15022,
            "contract": "contracts/protocol/core/callable/CallableLoan.sol:CallableLoan",
            "label": "_config",
            "offset": 0,
            "slot": "0",
            "type": "t_contract(IGoldfinchConfig)8813"
          },
          {
            "astId": 15024,
            "contract": "contracts/protocol/core/callable/CallableLoan.sol:CallableLoan",
            "label": "_limit",
            "offset": 0,
            "slot": "1",
            "type": "t_uint256"
          },
          {
            "astId": 15026,
            "contract": "contracts/protocol/core/callable/CallableLoan.sol:CallableLoan",
            "label": "_interestApr",
            "offset": 0,
            "slot": "2",
            "type": "t_uint256"
          },
          {
            "astId": 15028,
            "contract": "contracts/protocol/core/callable/CallableLoan.sol:CallableLoan",
            "label": "_lateAdditionalApr",
            "offset": 0,
            "slot": "3",
            "type": "t_uint256"
          },
          {
            "astId": 15030,
            "contract": "contracts/protocol/core/callable/CallableLoan.sol:CallableLoan",
            "label": "_numLockupPeriods",
            "offset": 0,
            "slot": "4",
            "type": "t_uint256"
          },
          {
            "astId": 15032,
            "contract": "contracts/protocol/core/callable/CallableLoan.sol:CallableLoan",
            "label": "_checkpointedAsOf",
            "offset": 0,
            "slot": "5",
            "type": "t_uint256"
          },
          {
            "astId": 15034,
            "contract": "contracts/protocol/core/callable/CallableLoan.sol:CallableLoan",
            "label": "_lastFullPaymentTime",
            "offset": 0,
            "slot": "6",
            "type": "t_uint256"
          },
          {
            "astId": 15036,
            "contract": "contracts/protocol/core/callable/CallableLoan.sol:CallableLoan",
            "label": "_totalInterestOwedAtLastCheckpoint",
            "offset": 0,
            "slot": "7",
            "type": "t_uint256"
          },
          {
            "astId": 15038,
            "contract": "contracts/protocol/core/callable/CallableLoan.sol:CallableLoan",
            "label": "_totalInterestAccruedAtLastCheckpoint",
            "offset": 0,
            "slot": "8",
            "type": "t_uint256"
          },
          {
            "astId": 15041,
            "contract": "contracts/protocol/core/callable/CallableLoan.sol:CallableLoan",
            "label": "_waterfall",
            "offset": 0,
            "slot": "9",
            "type": "t_struct(Waterfall)18208_storage"
          },
          {
            "astId": 15044,
            "contract": "contracts/protocol/core/callable/CallableLoan.sol:CallableLoan",
            "label": "_paymentSchedule",
            "offset": 0,
            "slot": "60",
            "type": "t_struct(PaymentSchedule)22963_storage"
          },
          {
            "astId": 15048,
            "contract": "contracts/protocol/core/callable/CallableLoan.sol:CallableLoan",
            "label": "__padding",
            "offset": 0,
            "slot": "61",
            "type": "t_array(t_uint256)50_storage"
          }
        ],
        "numberOfBytes": "3552"
      },
      "t_struct(PaymentSchedule)22963_storage": {
        "encoding": "inplace",
        "label": "struct PaymentSchedule",
        "members": [
          {
            "astId": 22960,
            "contract": "contracts/protocol/core/callable/CallableLoan.sol:CallableLoan",
            "label": "schedule",
            "offset": 0,
            "slot": "0",
            "type": "t_contract(ISchedule)10503"
          },
          {
            "astId": 22962,
            "contract": "contracts/protocol/core/callable/CallableLoan.sol:CallableLoan",
            "label": "startTime",
            "offset": 20,
            "slot": "0",
            "type": "t_uint64"
          }
        ],
        "numberOfBytes": "32"
      },
      "t_struct(RoleData)253_storage": {
        "encoding": "inplace",
        "label": "struct AccessControlUpgradeable.RoleData",
        "members": [
          {
            "astId": 250,
            "contract": "contracts/protocol/core/callable/CallableLoan.sol:CallableLoan",
            "label": "members",
            "offset": 0,
            "slot": "0",
            "type": "t_mapping(t_address,t_bool)"
          },
          {
            "astId": 252,
            "contract": "contracts/protocol/core/callable/CallableLoan.sol:CallableLoan",
            "label": "adminRole",
            "offset": 0,
            "slot": "1",
            "type": "t_bytes32"
          }
        ],
        "numberOfBytes": "64"
      },
      "t_struct(StaleCallableCreditLine)16919_storage": {
        "encoding": "inplace",
        "label": "struct StaleCallableCreditLine",
        "members": [
          {
            "astId": 16918,
            "contract": "contracts/protocol/core/callable/CallableLoan.sol:CallableLoan",
            "label": "_cl",
            "offset": 0,
            "slot": "0",
            "type": "t_struct(CallableCreditLine)15049_storage"
          }
        ],
        "numberOfBytes": "3552"
      },
      "t_struct(Tranche)17572_storage": {
        "encoding": "inplace",
        "label": "struct Tranche",
        "members": [
          {
            "astId": 17561,
            "contract": "contracts/protocol/core/callable/CallableLoan.sol:CallableLoan",
            "label": "_principalDeposited",
            "offset": 0,
            "slot": "0",
            "type": "t_uint256"
          },
          {
            "astId": 17563,
            "contract": "contracts/protocol/core/callable/CallableLoan.sol:CallableLoan",
            "label": "_principalPaid",
            "offset": 0,
            "slot": "1",
            "type": "t_uint256"
          },
          {
            "astId": 17565,
            "contract": "contracts/protocol/core/callable/CallableLoan.sol:CallableLoan",
            "label": "_principalReserved",
            "offset": 0,
            "slot": "2",
            "type": "t_uint256"
          },
          {
            "astId": 17567,
            "contract": "contracts/protocol/core/callable/CallableLoan.sol:CallableLoan",
            "label": "_interestPaid",
            "offset": 0,
            "slot": "3",
            "type": "t_uint256"
          },
          {
            "astId": 17571,
            "contract": "contracts/protocol/core/callable/CallableLoan.sol:CallableLoan",
            "label": "__padding",
            "offset": 0,
            "slot": "4",
            "type": "t_array(t_uint256)50_storage"
          }
        ],
        "numberOfBytes": "1728"
      },
      "t_struct(Waterfall)18208_storage": {
        "encoding": "inplace",
        "label": "struct Waterfall",
        "members": [
          {
            "astId": 18203,
            "contract": "contracts/protocol/core/callable/CallableLoan.sol:CallableLoan",
            "label": "_tranches",
            "offset": 0,
            "slot": "0",
            "type": "t_array(t_struct(Tranche)17572_storage)dyn_storage"
          },
          {
            "astId": 18207,
            "contract": "contracts/protocol/core/callable/CallableLoan.sol:CallableLoan",
            "label": "__padding",
            "offset": 0,
            "slot": "1",
            "type": "t_array(t_uint256)50_storage"
          }
        ],
        "numberOfBytes": "1632"
      },
      "t_uint256": {
        "encoding": "inplace",
        "label": "uint256",
        "numberOfBytes": "32"
      },
      "t_uint64": {
        "encoding": "inplace",
        "label": "uint64",
        "numberOfBytes": "8"
      }
    }
  }
}