{
  "address": "0x3c705dB336C81c7FEFC5746e283aB2c0781A4B7b",
  "abi": [
    {
      "anonymous": false,
      "inputs": [
        {
          "indexed": true,
          "internalType": "uint256",
          "name": "originalTokenId",
          "type": "uint256"
        },
        {
          "indexed": true,
          "internalType": "uint256",
          "name": "callRequestedTokenId",
          "type": "uint256"
        },
        {
          "indexed": true,
          "internalType": "uint256",
          "name": "remainingTokenId",
          "type": "uint256"
        },
        {
          "indexed": false,
          "internalType": "uint256",
          "name": "callAmount",
          "type": "uint256"
        }
      ],
      "name": "CallRequestSubmitted",
      "type": "event"
    },
    {
      "anonymous": false,
      "inputs": [
        {
          "indexed": true,
          "internalType": "address",
          "name": "owner",
          "type": "address"
        },
        {
          "indexed": true,
          "internalType": "uint256",
          "name": "tranche",
          "type": "uint256"
        },
        {
          "indexed": true,
          "internalType": "uint256",
          "name": "tokenId",
          "type": "uint256"
        },
        {
          "indexed": false,
          "internalType": "uint256",
          "name": "amount",
          "type": "uint256"
        }
      ],
      "name": "DepositMade",
      "type": "event"
    },
    {
      "anonymous": false,
      "inputs": [
        {
          "indexed": true,
          "internalType": "address",
          "name": "loan",
          "type": "address"
        }
      ],
      "name": "DepositsLocked",
      "type": "event"
    },
    {
      "anonymous": false,
      "inputs": [
        {
          "indexed": true,
          "internalType": "address",
          "name": "borrower",
          "type": "address"
        },
        {
          "indexed": false,
          "internalType": "uint256",
          "name": "amount",
          "type": "uint256"
        }
      ],
      "name": "DrawdownMade",
      "type": "event"
    },
    {
      "anonymous": false,
      "inputs": [
        {
          "indexed": true,
          "internalType": "address",
          "name": "pool",
          "type": "address"
        }
      ],
      "name": "DrawdownsPaused",
      "type": "event"
    },
    {
      "anonymous": false,
      "inputs": [
        {
          "indexed": true,
          "internalType": "address",
          "name": "pool",
          "type": "address"
        }
      ],
      "name": "DrawdownsUnpaused",
      "type": "event"
    },
    {
      "anonymous": false,
      "inputs": [
        {
          "indexed": true,
          "internalType": "address",
          "name": "pool",
          "type": "address"
        }
      ],
      "name": "EmergencyShutdown",
      "type": "event"
    },
    {
      "anonymous": false,
      "inputs": [
        {
          "indexed": false,
          "internalType": "address",
          "name": "account",
          "type": "address"
        }
      ],
      "name": "Paused",
      "type": "event"
    },
    {
      "anonymous": false,
      "inputs": [
        {
          "indexed": true,
          "internalType": "address",
          "name": "payer",
          "type": "address"
        },
        {
          "indexed": true,
          "internalType": "address",
          "name": "pool",
          "type": "address"
        },
        {
          "indexed": false,
          "internalType": "uint256",
          "name": "interest",
          "type": "uint256"
        },
        {
          "indexed": false,
          "internalType": "uint256",
          "name": "principal",
          "type": "uint256"
        },
        {
          "indexed": false,
          "internalType": "uint256",
          "name": "remaining",
          "type": "uint256"
        },
        {
          "indexed": false,
          "internalType": "uint256",
          "name": "reserve",
          "type": "uint256"
        }
      ],
      "name": "PaymentApplied",
      "type": "event"
    },
    {
      "anonymous": false,
      "inputs": [
        {
          "indexed": true,
          "internalType": "address",
          "name": "from",
          "type": "address"
        },
        {
          "indexed": false,
          "internalType": "uint256",
          "name": "amount",
          "type": "uint256"
        }
      ],
      "name": "ReserveFundsCollected",
      "type": "event"
    },
    {
      "anonymous": false,
      "inputs": [
        {
          "indexed": true,
          "internalType": "bytes32",
          "name": "role",
          "type": "bytes32"
        },
        {
          "indexed": true,
          "internalType": "bytes32",
          "name": "previousAdminRole",
          "type": "bytes32"
        },
        {
          "indexed": true,
          "internalType": "bytes32",
          "name": "newAdminRole",
          "type": "bytes32"
        }
      ],
      "name": "RoleAdminChanged",
      "type": "event"
    },
    {
      "anonymous": false,
      "inputs": [
        {
          "indexed": true,
          "internalType": "bytes32",
          "name": "role",
          "type": "bytes32"
        },
        {
          "indexed": true,
          "internalType": "address",
          "name": "account",
          "type": "address"
        },
        {
          "indexed": true,
          "internalType": "address",
          "name": "sender",
          "type": "address"
        }
      ],
      "name": "RoleGranted",
      "type": "event"
    },
    {
      "anonymous": false,
      "inputs": [
        {
          "indexed": true,
          "internalType": "bytes32",
          "name": "role",
          "type": "bytes32"
        },
        {
          "indexed": true,
          "internalType": "address",
          "name": "account",
          "type": "address"
        },
        {
          "indexed": true,
          "internalType": "address",
          "name": "sender",
          "type": "address"
        }
      ],
      "name": "RoleRevoked",
      "type": "event"
    },
    {
      "anonymous": false,
      "inputs": [
        {
          "indexed": false,
          "internalType": "address",
          "name": "account",
          "type": "address"
        }
      ],
      "name": "Unpaused",
      "type": "event"
    },
    {
      "anonymous": false,
      "inputs": [
        {
          "indexed": true,
          "internalType": "address",
          "name": "owner",
          "type": "address"
        },
        {
          "indexed": true,
          "internalType": "uint256",
          "name": "tranche",
          "type": "uint256"
        },
        {
          "indexed": true,
          "internalType": "uint256",
          "name": "tokenId",
          "type": "uint256"
        },
        {
          "indexed": false,
          "internalType": "uint256",
          "name": "interestWithdrawn",
          "type": "uint256"
        },
        {
          "indexed": false,
          "internalType": "uint256",
          "name": "principalWithdrawn",
          "type": "uint256"
        }
      ],
      "name": "WithdrawalMade",
      "type": "event"
    },
    {
      "inputs": [],
      "name": "DEFAULT_ADMIN_ROLE",
      "outputs": [
        {
          "internalType": "bytes32",
          "name": "",
          "type": "bytes32"
        }
      ],
      "stateMutability": "view",
      "type": "function"
    },
    {
      "inputs": [],
      "name": "LOCKER_ROLE",
      "outputs": [
        {
          "internalType": "bytes32",
          "name": "",
          "type": "bytes32"
        }
      ],
      "stateMutability": "view",
      "type": "function"
    },
    {
      "inputs": [],
      "name": "OWNER_ROLE",
      "outputs": [
        {
          "internalType": "bytes32",
          "name": "",
          "type": "bytes32"
        }
      ],
      "stateMutability": "view",
      "type": "function"
    },
    {
      "inputs": [],
      "name": "PAUSER_ROLE",
      "outputs": [
        {
          "internalType": "bytes32",
          "name": "",
          "type": "bytes32"
        }
      ],
      "stateMutability": "view",
      "type": "function"
    },
    {
      "inputs": [
        {
          "internalType": "address",
          "name": "owner",
          "type": "address"
        }
      ],
      "name": "__BaseUpgradeablePausable__init",
      "outputs": [],
      "stateMutability": "nonpayable",
      "type": "function"
    },
    {
      "inputs": [],
      "name": "__PauserPausable__init",
      "outputs": [],
      "stateMutability": "nonpayable",
      "type": "function"
    },
    {
      "inputs": [],
      "name": "_reserveFundsFeePercent",
      "outputs": [
        {
          "internalType": "uint256",
          "name": "",
          "type": "uint256"
        }
      ],
      "stateMutability": "view",
      "type": "function"
    },
    {
      "inputs": [
        {
          "internalType": "uint256",
          "name": "",
          "type": "uint256"
        }
      ],
      "name": "allowedUIDTypes",
      "outputs": [
        {
          "internalType": "uint256",
          "name": "",
          "type": "uint256"
        }
      ],
      "stateMutability": "view",
      "type": "function"
    },
    {
      "inputs": [
        {
          "internalType": "uint256",
          "name": "tokenId",
          "type": "uint256"
        }
      ],
      "name": "availableToCall",
      "outputs": [
        {
          "internalType": "uint256",
          "name": "",
          "type": "uint256"
        }
      ],
      "stateMutability": "view",
      "type": "function"
    },
    {
      "inputs": [
        {
          "internalType": "uint256",
          "name": "tokenId",
          "type": "uint256"
        }
      ],
      "name": "availableToWithdraw",
      "outputs": [
        {
          "internalType": "uint256",
          "name": "",
          "type": "uint256"
        },
        {
          "internalType": "uint256",
          "name": "",
          "type": "uint256"
        }
      ],
      "stateMutability": "view",
      "type": "function"
    },
    {
      "inputs": [],
      "name": "balance",
      "outputs": [
        {
          "internalType": "uint256",
          "name": "",
          "type": "uint256"
        }
      ],
      "stateMutability": "view",
      "type": "function"
    },
    {
      "inputs": [],
      "name": "borrower",
      "outputs": [
        {
          "internalType": "address",
          "name": "",
          "type": "address"
        }
      ],
      "stateMutability": "view",
      "type": "function"
    },
    {
      "inputs": [],
      "name": "config",
      "outputs": [
        {
          "internalType": "contract IGoldfinchConfig",
          "name": "",
          "type": "address"
        }
      ],
      "stateMutability": "view",
      "type": "function"
    },
    {
      "inputs": [],
      "name": "createdAt",
      "outputs": [
        {
          "internalType": "uint256",
          "name": "",
          "type": "uint256"
        }
      ],
      "stateMutability": "view",
      "type": "function"
    },
    {
      "inputs": [],
      "name": "creditLine",
      "outputs": [
        {
          "internalType": "contract ICreditLine",
          "name": "",
          "type": "address"
        }
      ],
      "stateMutability": "view",
      "type": "function"
    },
    {
      "inputs": [],
      "name": "currentLimit",
      "outputs": [
        {
          "internalType": "uint256",
          "name": "",
          "type": "uint256"
        }
      ],
      "stateMutability": "view",
      "type": "function"
    },
    {
      "inputs": [
        {
          "internalType": "uint256",
          "name": "amount",
          "type": "uint256"
        }
      ],
      "name": "deposit",
      "outputs": [
        {
          "internalType": "uint256",
          "name": "",
          "type": "uint256"
        }
      ],
      "stateMutability": "nonpayable",
      "type": "function"
    },
    {
      "inputs": [
        {
          "internalType": "uint256",
          "name": "amount",
          "type": "uint256"
        },
        {
          "internalType": "uint256",
          "name": "deadline",
          "type": "uint256"
        },
        {
          "internalType": "uint8",
          "name": "v",
          "type": "uint8"
        },
        {
          "internalType": "bytes32",
          "name": "r",
          "type": "bytes32"
        },
        {
          "internalType": "bytes32",
          "name": "s",
          "type": "bytes32"
        }
      ],
      "name": "depositWithPermit",
      "outputs": [
        {
          "internalType": "uint256",
          "name": "tokenId",
          "type": "uint256"
        }
      ],
      "stateMutability": "nonpayable",
      "type": "function"
    },
    {
      "inputs": [
        {
          "internalType": "uint256",
          "name": "amount",
          "type": "uint256"
        }
      ],
      "name": "drawdown",
      "outputs": [],
      "stateMutability": "nonpayable",
      "type": "function"
    },
    {
      "inputs": [],
      "name": "drawdownsPaused",
      "outputs": [
        {
          "internalType": "bool",
          "name": "",
          "type": "bool"
        }
      ],
      "stateMutability": "view",
      "type": "function"
    },
    {
      "inputs": [],
      "name": "fundableAt",
      "outputs": [
        {
          "internalType": "uint256",
          "name": "",
          "type": "uint256"
        }
      ],
      "stateMutability": "view",
      "type": "function"
    },
    {
      "inputs": [],
      "name": "getAllowedUIDTypes",
      "outputs": [
        {
          "internalType": "uint256[]",
          "name": "",
          "type": "uint256[]"
        }
      ],
      "stateMutability": "view",
      "type": "function"
    },
    {
      "inputs": [
        {
          "internalType": "uint256",
          "name": "timestamp",
          "type": "uint256"
        }
      ],
      "name": "getAmountsOwed",
      "outputs": [
        {
          "internalType": "uint256",
          "name": "returnedInterestOwed",
          "type": "uint256"
        },
        {
          "internalType": "uint256",
          "name": "returnedInterestAccrued",
          "type": "uint256"
        },
        {
          "internalType": "uint256",
          "name": "returnedPrincipalOwed",
          "type": "uint256"
        }
      ],
      "stateMutability": "view",
      "type": "function"
    },
    {
      "inputs": [
        {
          "internalType": "uint256",
          "name": "callRequestPeriodIndex",
          "type": "uint256"
        }
      ],
      "name": "getCallRequestPeriod",
      "outputs": [
        {
          "components": [
            {
              "internalType": "uint256",
              "name": "principalDeposited",
              "type": "uint256"
            },
            {
              "internalType": "uint256",
              "name": "principalPaid",
              "type": "uint256"
            },
            {
              "internalType": "uint256",
              "name": "principalReserved",
              "type": "uint256"
            },
            {
              "internalType": "uint256",
              "name": "interestPaid",
              "type": "uint256"
            }
          ],
          "internalType": "struct ICallableLoan.CallRequestPeriod",
          "name": "",
          "type": "tuple"
        }
      ],
      "stateMutability": "view",
      "type": "function"
    },
    {
      "inputs": [
        {
          "internalType": "bytes32",
          "name": "role",
          "type": "bytes32"
        }
      ],
      "name": "getRoleAdmin",
      "outputs": [
        {
          "internalType": "bytes32",
          "name": "",
          "type": "bytes32"
        }
      ],
      "stateMutability": "view",
      "type": "function"
    },
    {
      "inputs": [],
      "name": "getUncalledCapitalInfo",
      "outputs": [
        {
          "components": [
            {
              "internalType": "uint256",
              "name": "principalDeposited",
              "type": "uint256"
            },
            {
              "internalType": "uint256",
              "name": "principalPaid",
              "type": "uint256"
            },
            {
              "internalType": "uint256",
              "name": "principalReserved",
              "type": "uint256"
            },
            {
              "internalType": "uint256",
              "name": "interestPaid",
              "type": "uint256"
            }
          ],
          "internalType": "struct ICallableLoan.UncalledCapitalInfo",
          "name": "",
          "type": "tuple"
        }
      ],
      "stateMutability": "view",
      "type": "function"
    },
    {
      "inputs": [],
      "name": "getVersion",
      "outputs": [
        {
          "internalType": "uint8[3]",
          "name": "version",
          "type": "uint8[3]"
        }
      ],
      "stateMutability": "pure",
      "type": "function"
    },
    {
      "inputs": [
        {
          "internalType": "bytes32",
          "name": "role",
          "type": "bytes32"
        },
        {
          "internalType": "address",
          "name": "account",
          "type": "address"
        }
      ],
      "name": "grantRole",
      "outputs": [],
      "stateMutability": "nonpayable",
      "type": "function"
    },
    {
      "inputs": [
        {
          "internalType": "address",
          "name": "sender",
          "type": "address"
        }
      ],
      "name": "hasAllowedUID",
      "outputs": [
        {
          "internalType": "bool",
          "name": "",
          "type": "bool"
        }
      ],
      "stateMutability": "view",
      "type": "function"
    },
    {
      "inputs": [
        {
          "internalType": "bytes32",
          "name": "role",
          "type": "bytes32"
        },
        {
          "internalType": "address",
          "name": "account",
          "type": "address"
        }
      ],
      "name": "hasRole",
      "outputs": [
        {
          "internalType": "bool",
          "name": "",
          "type": "bool"
        }
      ],
      "stateMutability": "view",
      "type": "function"
    },
    {
      "inputs": [
        {
          "internalType": "address",
          "name": "_config",
          "type": "address"
        },
        {
          "internalType": "address",
          "name": "owner",
          "type": "address"
        },
        {
          "internalType": "address",
          "name": "_borrower",
          "type": "address"
        },
        {
          "internalType": "uint256",
          "name": "_limit",
          "type": "uint256"
        },
        {
          "internalType": "uint256",
          "name": "_interestApr",
          "type": "uint256"
        },
        {
          "internalType": "contract ISchedule",
          "name": "_schedule",
          "type": "address"
        },
        {
          "internalType": "uint256",
          "name": "_lateFeeApr",
          "type": "uint256"
        }
      ],
      "name": "initialize",
      "outputs": [],
      "stateMutability": "nonpayable",
      "type": "function"
    },
    {
      "inputs": [
        {
          "internalType": "address",
          "name": "_config",
          "type": "address"
        },
        {
          "internalType": "address",
          "name": "_borrower",
          "type": "address"
        },
        {
          "internalType": "uint256",
          "name": "_limit",
          "type": "uint256"
        },
        {
          "internalType": "uint256",
          "name": "_interestApr",
          "type": "uint256"
        },
        {
          "internalType": "uint256",
          "name": "_numLockupPeriods",
          "type": "uint256"
        },
        {
          "internalType": "contract ISchedule",
          "name": "_schedule",
          "type": "address"
        },
        {
          "internalType": "uint256",
          "name": "_lateFeeApr",
          "type": "uint256"
        },
        {
          "internalType": "uint256",
          "name": "_fundableAt",
          "type": "uint256"
        },
        {
          "internalType": "uint256[]",
          "name": "_allowedUIDTypes",
          "type": "uint256[]"
        }
      ],
      "name": "initialize",
      "outputs": [],
      "stateMutability": "nonpayable",
      "type": "function"
    },
    {
      "inputs": [],
      "name": "interestAccrued",
      "outputs": [
        {
          "internalType": "uint256",
          "name": "",
          "type": "uint256"
        }
      ],
      "stateMutability": "view",
      "type": "function"
    },
    {
      "inputs": [],
      "name": "interestAccruedAsOf",
      "outputs": [
        {
          "internalType": "uint256",
          "name": "",
          "type": "uint256"
        }
      ],
      "stateMutability": "view",
      "type": "function"
    },
    {
      "inputs": [
        {
          "internalType": "uint256",
          "name": "timestamp",
          "type": "uint256"
        }
      ],
      "name": "interestAccruedAt",
      "outputs": [
        {
          "internalType": "uint256",
          "name": "",
          "type": "uint256"
        }
      ],
      "stateMutability": "view",
      "type": "function"
    },
    {
      "inputs": [],
      "name": "interestApr",
      "outputs": [
        {
          "internalType": "uint256",
          "name": "",
          "type": "uint256"
        }
      ],
      "stateMutability": "view",
      "type": "function"
    },
    {
      "inputs": [],
      "name": "interestBearingBalance",
      "outputs": [
        {
          "internalType": "uint256",
          "name": "",
          "type": "uint256"
        }
      ],
      "stateMutability": "view",
      "type": "function"
    },
    {
      "inputs": [],
      "name": "interestOwed",
      "outputs": [
        {
          "internalType": "uint256",
          "name": "",
          "type": "uint256"
        }
      ],
      "stateMutability": "view",
      "type": "function"
    },
    {
      "inputs": [
        {
          "internalType": "uint256",
          "name": "timestamp",
          "type": "uint256"
        }
      ],
      "name": "interestOwedAt",
      "outputs": [
        {
          "internalType": "uint256",
          "name": "",
          "type": "uint256"
        }
      ],
      "stateMutability": "view",
      "type": "function"
    },
    {
      "inputs": [],
      "name": "isAdmin",
      "outputs": [
        {
          "internalType": "bool",
          "name": "",
          "type": "bool"
        }
      ],
      "stateMutability": "view",
      "type": "function"
    },
    {
      "inputs": [],
      "name": "isLate",
      "outputs": [
        {
          "internalType": "bool",
          "name": "",
          "type": "bool"
        }
      ],
      "stateMutability": "view",
      "type": "function"
    },
    {
      "inputs": [],
      "name": "lastFullPaymentTime",
      "outputs": [
        {
          "internalType": "uint256",
          "name": "",
          "type": "uint256"
        }
      ],
      "stateMutability": "view",
      "type": "function"
    },
    {
      "inputs": [],
      "name": "lateFeeApr",
      "outputs": [
        {
          "internalType": "uint256",
          "name": "",
          "type": "uint256"
        }
      ],
      "stateMutability": "view",
      "type": "function"
    },
    {
      "inputs": [],
      "name": "limit",
      "outputs": [
        {
          "internalType": "uint256",
          "name": "",
          "type": "uint256"
        }
      ],
      "stateMutability": "view",
      "type": "function"
    },
    {
      "inputs": [],
      "name": "maxLimit",
      "outputs": [
        {
          "internalType": "uint256",
          "name": "",
          "type": "uint256"
        }
      ],
      "stateMutability": "view",
      "type": "function"
    },
    {
      "inputs": [],
      "name": "nextDueTime",
      "outputs": [
        {
          "internalType": "uint256",
          "name": "",
          "type": "uint256"
        }
      ],
      "stateMutability": "view",
      "type": "function"
    },
    {
      "inputs": [
        {
          "internalType": "uint256",
          "name": "timestamp",
          "type": "uint256"
        }
      ],
      "name": "nextDueTimeAt",
      "outputs": [
        {
          "internalType": "uint256",
          "name": "",
          "type": "uint256"
        }
      ],
      "stateMutability": "view",
      "type": "function"
    },
    {
      "inputs": [
        {
          "internalType": "uint256",
          "name": "timestamp",
          "type": "uint256"
        }
      ],
      "name": "nextInterestDueTimeAt",
      "outputs": [
        {
          "internalType": "uint256",
          "name": "",
          "type": "uint256"
        }
      ],
      "stateMutability": "view",
      "type": "function"
    },
    {
      "inputs": [],
      "name": "nextPrincipalDueTime",
      "outputs": [
        {
          "internalType": "uint256",
          "name": "",
          "type": "uint256"
        }
      ],
      "stateMutability": "view",
      "type": "function"
    },
    {
      "inputs": [],
      "name": "pause",
      "outputs": [],
      "stateMutability": "nonpayable",
      "type": "function"
    },
    {
      "inputs": [],
      "name": "pauseDrawdowns",
      "outputs": [],
      "stateMutability": "nonpayable",
      "type": "function"
    },
    {
      "inputs": [],
      "name": "paused",
      "outputs": [
        {
          "internalType": "bool",
          "name": "",
          "type": "bool"
        }
      ],
      "stateMutability": "view",
      "type": "function"
    },
    {
      "inputs": [
        {
          "internalType": "uint256",
          "name": "amount",
          "type": "uint256"
        }
      ],
      "name": "pay",
      "outputs": [
        {
          "components": [
            {
              "internalType": "uint256",
              "name": "owedInterestPayment",
              "type": "uint256"
            },
            {
              "internalType": "uint256",
              "name": "accruedInterestPayment",
              "type": "uint256"
            },
            {
              "internalType": "uint256",
              "name": "principalPayment",
              "type": "uint256"
            },
            {
              "internalType": "uint256",
              "name": "additionalBalancePayment",
              "type": "uint256"
            },
            {
              "internalType": "uint256",
              "name": "paymentRemaining",
              "type": "uint256"
            }
          ],
          "internalType": "struct ILoan.PaymentAllocation",
          "name": "",
          "type": "tuple"
        }
      ],
      "stateMutability": "nonpayable",
      "type": "function"
    },
    {
      "inputs": [
        {
          "internalType": "uint256",
          "name": "principalPayment",
          "type": "uint256"
        },
        {
          "internalType": "uint256",
          "name": "interestPayment",
          "type": "uint256"
        }
      ],
      "name": "pay",
      "outputs": [
        {
          "components": [
            {
              "internalType": "uint256",
              "name": "owedInterestPayment",
              "type": "uint256"
            },
            {
              "internalType": "uint256",
              "name": "accruedInterestPayment",
              "type": "uint256"
            },
            {
              "internalType": "uint256",
              "name": "principalPayment",
              "type": "uint256"
            },
            {
              "internalType": "uint256",
              "name": "additionalBalancePayment",
              "type": "uint256"
            },
            {
              "internalType": "uint256",
              "name": "paymentRemaining",
              "type": "uint256"
            }
          ],
          "internalType": "struct ILoan.PaymentAllocation",
          "name": "",
          "type": "tuple"
        }
      ],
      "stateMutability": "nonpayable",
      "type": "function"
    },
    {
      "inputs": [],
      "name": "principalOwed",
      "outputs": [
        {
          "internalType": "uint256",
          "name": "",
          "type": "uint256"
        }
      ],
      "stateMutability": "view",
      "type": "function"
    },
    {
      "inputs": [
        {
          "internalType": "uint256",
          "name": "timestamp",
          "type": "uint256"
        }
      ],
      "name": "principalOwedAt",
      "outputs": [
        {
          "internalType": "uint256",
          "name": "",
          "type": "uint256"
        }
      ],
      "stateMutability": "view",
      "type": "function"
    },
    {
      "inputs": [
        {
          "internalType": "bytes32",
          "name": "role",
          "type": "bytes32"
        },
        {
          "internalType": "address",
          "name": "account",
          "type": "address"
        }
      ],
      "name": "renounceRole",
      "outputs": [],
      "stateMutability": "nonpayable",
      "type": "function"
    },
    {
      "inputs": [
        {
          "internalType": "bytes32",
          "name": "role",
          "type": "bytes32"
        },
        {
          "internalType": "address",
          "name": "account",
          "type": "address"
        }
      ],
      "name": "revokeRole",
      "outputs": [],
      "stateMutability": "nonpayable",
      "type": "function"
    },
    {
      "inputs": [],
      "name": "schedule",
      "outputs": [
        {
          "internalType": "contract ISchedule",
          "name": "",
          "type": "address"
        }
      ],
      "stateMutability": "view",
      "type": "function"
    },
    {
      "inputs": [
        {
          "internalType": "uint256[]",
          "name": "ids",
          "type": "uint256[]"
        }
      ],
      "name": "setAllowedUIDTypes",
      "outputs": [],
      "stateMutability": "nonpayable",
      "type": "function"
    },
    {
      "inputs": [
        {
          "internalType": "uint256",
          "name": "newFundableAt",
          "type": "uint256"
        }
      ],
      "name": "setFundableAt",
      "outputs": [],
      "stateMutability": "nonpayable",
      "type": "function"
    },
    {
      "inputs": [
        {
          "internalType": "uint256",
          "name": "newAmount",
          "type": "uint256"
        }
      ],
      "name": "setLimit",
      "outputs": [],
      "stateMutability": "nonpayable",
      "type": "function"
    },
    {
      "inputs": [
        {
          "internalType": "uint256",
          "name": "newAmount",
          "type": "uint256"
        }
      ],
      "name": "setMaxLimit",
      "outputs": [],
      "stateMutability": "nonpayable",
      "type": "function"
    },
    {
      "inputs": [
        {
          "internalType": "uint256",
          "name": "callAmount",
          "type": "uint256"
        },
        {
          "internalType": "uint256",
          "name": "poolTokenId",
          "type": "uint256"
        }
      ],
      "name": "submitCall",
      "outputs": [
        {
          "internalType": "uint256",
          "name": "callRequestedTokenId",
          "type": "uint256"
        },
        {
          "internalType": "uint256",
          "name": "remainingTokenId",
          "type": "uint256"
        }
      ],
      "stateMutability": "nonpayable",
      "type": "function"
    },
    {
      "inputs": [
        {
          "internalType": "bytes4",
          "name": "interfaceId",
          "type": "bytes4"
        }
      ],
      "name": "supportsInterface",
      "outputs": [
        {
          "internalType": "bool",
          "name": "",
          "type": "bool"
        }
      ],
      "stateMutability": "view",
      "type": "function"
    },
    {
      "inputs": [],
      "name": "termEndTime",
      "outputs": [
        {
          "internalType": "uint256",
          "name": "",
          "type": "uint256"
        }
      ],
      "stateMutability": "view",
      "type": "function"
    },
    {
      "inputs": [],
      "name": "termStartTime",
      "outputs": [
        {
          "internalType": "uint256",
          "name": "",
          "type": "uint256"
        }
      ],
      "stateMutability": "view",
      "type": "function"
    },
    {
      "inputs": [],
      "name": "totalInterestAccrued",
      "outputs": [
        {
          "internalType": "uint256",
          "name": "",
          "type": "uint256"
        }
      ],
      "stateMutability": "view",
      "type": "function"
    },
    {
      "inputs": [
        {
          "internalType": "uint256",
          "name": "timestamp",
          "type": "uint256"
        }
      ],
      "name": "totalInterestAccruedAt",
      "outputs": [
        {
          "internalType": "uint256",
          "name": "",
          "type": "uint256"
        }
      ],
      "stateMutability": "view",
      "type": "function"
    },
    {
      "inputs": [],
      "name": "totalInterestOwed",
      "outputs": [
        {
          "internalType": "uint256",
          "name": "",
          "type": "uint256"
        }
      ],
      "stateMutability": "view",
      "type": "function"
    },
    {
      "inputs": [
        {
          "internalType": "uint256",
          "name": "timestamp",
          "type": "uint256"
        }
      ],
      "name": "totalInterestOwedAt",
      "outputs": [
        {
          "internalType": "uint256",
          "name": "",
          "type": "uint256"
        }
      ],
      "stateMutability": "view",
      "type": "function"
    },
    {
      "inputs": [],
      "name": "totalInterestPaid",
      "outputs": [
        {
          "internalType": "uint256",
          "name": "",
          "type": "uint256"
        }
      ],
      "stateMutability": "view",
      "type": "function"
    },
    {
      "inputs": [],
      "name": "totalPrincipalOwed",
      "outputs": [
        {
          "internalType": "uint256",
          "name": "",
          "type": "uint256"
        }
      ],
      "stateMutability": "view",
      "type": "function"
    },
    {
      "inputs": [
        {
          "internalType": "uint256",
          "name": "timestamp",
          "type": "uint256"
        }
      ],
      "name": "totalPrincipalOwedAt",
      "outputs": [
        {
          "internalType": "uint256",
          "name": "",
          "type": "uint256"
        }
      ],
      "stateMutability": "view",
      "type": "function"
    },
    {
      "inputs": [],
      "name": "totalPrincipalPaid",
      "outputs": [
        {
          "internalType": "uint256",
          "name": "",
          "type": "uint256"
        }
      ],
      "stateMutability": "view",
      "type": "function"
    },
    {
      "inputs": [],
      "name": "uncalledCapitalTrancheIndex",
      "outputs": [
        {
          "internalType": "uint256",
          "name": "",
          "type": "uint256"
        }
      ],
      "stateMutability": "view",
      "type": "function"
    },
    {
      "inputs": [],
      "name": "unpause",
      "outputs": [],
      "stateMutability": "nonpayable",
      "type": "function"
    },
    {
      "inputs": [],
      "name": "unpauseDrawdowns",
      "outputs": [],
      "stateMutability": "nonpayable",
      "type": "function"
    },
    {
      "inputs": [
        {
          "internalType": "uint256",
          "name": "tokenId",
          "type": "uint256"
        },
        {
          "internalType": "uint256",
          "name": "amount",
          "type": "uint256"
        }
      ],
      "name": "withdraw",
      "outputs": [
        {
          "internalType": "uint256",
          "name": "",
          "type": "uint256"
        },
        {
          "internalType": "uint256",
          "name": "",
          "type": "uint256"
        }
      ],
      "stateMutability": "nonpayable",
      "type": "function"
    },
    {
      "inputs": [
        {
          "internalType": "uint256",
          "name": "tokenId",
          "type": "uint256"
        }
      ],
      "name": "withdrawMax",
      "outputs": [
        {
          "internalType": "uint256",
          "name": "interestWithdrawn",
          "type": "uint256"
        },
        {
          "internalType": "uint256",
          "name": "principalWithdrawn",
          "type": "uint256"
        }
      ],
      "stateMutability": "nonpayable",
      "type": "function"
    },
    {
      "inputs": [
        {
          "internalType": "uint256[]",
          "name": "tokenIds",
          "type": "uint256[]"
        },
        {
          "internalType": "uint256[]",
          "name": "amounts",
          "type": "uint256[]"
        }
      ],
      "name": "withdrawMultiple",
      "outputs": [],
      "stateMutability": "nonpayable",
      "type": "function"
    },
    {
      "inputs": [],
      "name": "withinPrincipalGracePeriod",
      "outputs": [
        {
          "internalType": "bool",
          "name": "",
          "type": "bool"
        }
      ],
      "stateMutability": "view",
      "type": "function"
    }
  ],
  "transactionHash": "0xfa41a3fd967122144d9304e826c6a4dec47470c792f5b4fd629d0455a3085c25",
  "args": [],
  "numDeployments": 1,
  "solcInputHash": "d8c69a817c5cc96a1b53b64bacf60dff",
  "bytecode": "0x608060405234801561001057600080fd5b5061649e80620000216000396000f3fe608060405234801561001057600080fd5b50600436106104955760003560e01c80638456cb5911610262578063bf6c87c711610151578063e2a657f9116100ce578063eabd0ce111610092578063eabd0ce1146107ad578063eb07f4e614610986578063ef48eee61461098e578063f0b25bde146109a1578063f3621367146109a9578063f94f5a12146109be57600080fd5b8063e2a657f91461092e578063e2b02ce814610941578063e58378bb14610949578063e63ab1e91461095e578063e7aa8a921461097357600080fd5b8063cf09e0d011610115578063cf09e0d0146108e3578063d2845977146108ed578063d547741f146108f5578063d60efcb814610908578063daaa3a621461091b57600080fd5b8063bf6c87c714610869578063bf8bcee4146105bf578063c290d69114610871578063c78bed86146108c6578063ce78290d146108db57600080fd5b8063aa2a7c4c116101df578063b69ef8a8116101a3578063b69ef8a81461082b578063b6b55f2514610833578063b6db75a014610846578063b9317d861461084e578063bbafcb401461086157600080fd5b8063aa2a7c4c146107bd578063aae932fe146107d0578063ae6c857a146107fe578063b0604a2614610811578063b39699921461082357600080fd5b8063a03c5cf011610226578063a03c5cf01461078a578063a079a4dd14610792578063a217fddf146107a5578063a4d66daf146107ad578063a8f9c4fe146107b557600080fd5b80638456cb591461074c5780638c0243e7146107545780638f168c931461075c57806391d14854146107645780639d1105301461077757600080fd5b80633f4ba83a11610389578063526d81f61161030657806364fb2d95116102ca57806364fb2d95146106f957806365973a1114610701578063729cf22f1461071457806379502c551461071c5780637df1f1b91461073057806381c17a151461074457600080fd5b8063526d81f6146106c157806352f555ba146106c95780635c975abb146106dc5780635eb185a2146106e7578063645d6225146106f157600080fd5b80634a970be71161034d5780634a970be71461066d5780634af75d35146106805780634d02fe6f146106935780634d90a539146106a657806350b22fcf146106b957600080fd5b80633f4ba83a14610608578063441a3e7014610610578063457147a71461063857806347195e131461064057806348eef1df1461065a57600080fd5b806320dcc3421161041757806327ea6f2b116103db57806327ea6f2b146105bf57806328b55c97146105d25780632ba443d2146105da5780632f2ff15d146105e257806336568abe146105f557600080fd5b806320dcc3421461055957806321506ebe1461056157806321856b3614610581578063248a9ca31461058957806324bb4b15146105ac57600080fd5b806311daef071161045e57806311daef071461052057806317f769411461053357806319350114146105415780631a861d26146105495780631cd724ac1461055157600080fd5b8062ae88e01461049a578063019c37e6146104c057806301ffc9a7146104d3578063097616a3146104f65780630d8e6e2c1461050b575b600080fd5b6104ad6104a8366004615b01565b6109d1565b6040519081526020015b60405180910390f35b6104ad6104ce366004615b01565b6109e5565b6104e66104e1366004615b1a565b6109f3565b60405190151581526020016104b7565b610509610504366004615b59565b610a28565b005b610513610b7a565b6040516104b79190615b76565b6104ad61052e366004615b01565b610b97565b610233546104e69060ff1681565b6104ad610ba5565b6104ad610bb7565b6104ad610bd1565b6104ad610bde565b61057461056f366004615b01565b610beb565b6040516104b79190615baa565b6104ad610c72565b6104ad610597366004615b01565b60009081526065602052604090206001015490565b6104ad6105ba366004615b01565b610c7f565b6105096105cd366004615b01565b610c8d565b6104ad610cc9565b6104ad610cd6565b6105096105f0366004615bd5565b610ce3565b610509610603366004615bd5565b610d0e565b610509610d88565b61062361061e366004615c05565b610dc6565b604080519283526020830191909152016104b7565b6104e6610eb8565b305b6040516001600160a01b0390911681526020016104b7565b610623610668366004615c05565b610ec5565b6104ad61067b366004615c27565b61160a565b6104ad61068e366004615b01565b61170a565b6106236106a1366004615b01565b611718565b6104ad6106b4366004615b01565b6117b3565b6104ad6117c1565b6105096117ce565b6105096106d7366004615c76565b611842565b60975460ff166104e6565b6104ad6102325481565b6104ad6118b0565b6104ad6118bd565b6104ad61070f366004615b01565b6118ca565b6105746119b2565b61023554610642906001600160a01b031681565b61023754610642906001600160a01b031681565b6104e6611a2c565b610509611a39565b6104ad611a75565b6104ad611a82565b6104e6610772366004615bd5565b611a8f565b610509610785366004615d3c565b611aba565b6104ad611c41565b6105096107a0366004615b01565b611c4e565b6104ad600081565b6104ad611dbe565b610509611dcb565b6106236107cb366004615b01565b611e2a565b6107e36107de366004615b01565b611e8f565b604080519384526020840192909252908201526060016104b7565b61050961080c366004615b01565b611f18565b6101ff546001600160a01b0316610642565b6104ad611f52565b6104ad611f5f565b6104ad610841366004615b01565b611f6c565b6104e6611fcc565b61050961085c366004615da7565b611fe6565b6104ad61206c565b610509612079565b61088461087f366004615b01565b6120d5565b6040516104b79190600060a082019050825182526020830151602083015260408301516040830152606083015160608301526080830151608083015292915050565b6108ce612130565b6040516104b79190615de8565b6104ad612189565b6104ad6102365481565b6104ad612196565b610509610903366004615bd5565b6121a3565b6104ad610916366004615b01565b6121c9565b6104ad610929366004615b01565b6121d7565b6104ad61093c366004615b01565b6121e5565b6104ad612207565b6104ad60008051602061640983398151915281565b6104ad60008051602061642983398151915281565b610509610981366004615e2c565b612214565b6104ad61237b565b61088461099c366004615c05565b61239f565b6104ad6123f1565b6104ad60008051602061644983398151915281565b6104e66109cc366004615b59565b6123fe565b60006109df6101c383612487565b92915050565b60006109df6101c383612493565b60006001600160e01b03198216637965db0b60e01b14806109df57506301ffc9a760e01b6001600160e01b03198316146109df565b600054610100900460ff1680610a41575060005460ff16155b610a665760405162461bcd60e51b8152600401610a5d90615edb565b60405180910390fd5b600054610100900460ff16158015610a88576000805461ffff19166101011790555b6001600160a01b038216610ade5760405162461bcd60e51b815260206004820181905260248201527f4f776e65722063616e6e6f7420626520746865207a65726f20616464726573736044820152606401610a5d565b610ae661249f565b610aee612509565b610af661257e565b610b0e600080516020616409833981519152836125ee565b610b26600080516020616429833981519152836125ee565b610b4c6000805160206164298339815191526000805160206164098339815191526125f8565b610b64600080516020616409833981519152806125f8565b8015610b76576000805461ff00191690555b5050565b610b826159d7565b60006040820181905260208201526001815290565b60006109df6101c383612643565b6000610bb26101c361264f565b905090565b600060405162461bcd60e51b8152600401610a5d90615f3f565b6000610bb26101c361265a565b6000610bb26101c3612665565b610c166040518060800160405280600081526020016000815260200160008152602001600081525090565b610c1e610cd6565b8210610c2957600080fd5b6000610c376101c384612670565b905060405180608001604052808260000151815260200182602001518152602001826040015181526020018260600151815250915050919050565b6000610bb26101c36126a5565b60006109df6101c3836126b0565b610c95611fcc565b610cb15760405162461bcd60e51b8152600401610a5d90615f5b565b60405162461bcd60e51b8152600401610a5d90615f3f565b6000610bb26101c36126bc565b6000610bb26101c36126c7565b600082815260656020526040902060010154610cff81336126de565b610d098383612742565b505050565b6001600160a01b0381163314610d7e5760405162461bcd60e51b815260206004820152602f60248201527f416363657373436f6e74726f6c3a2063616e206f6e6c792072656e6f756e636560448201526e103937b632b9903337b91039b2b63360891b6064820152608401610a5d565b610b7682826127c8565b610da060008051602061642983398151915233611a8f565b610dbc5760405162461bcd60e51b8152600401610a5d90615fa6565b610dc461282f565b565b600080600260c95403610deb5760405162461bcd60e51b8152600401610a5d90615fc2565b600260c95560975460ff1615610e135760405162461bcd60e51b8152600401610a5d90615ff9565b61023554600090610e2c906001600160a01b03166128c2565b6001600160a01b0316638c7a63ae866040518263ffffffff1660e01b8152600401610e5991815260200190565b60a060405180830381865afa158015610e76573d6000803e3d6000fd5b505050506040513d601f19601f82011682018060405250810190610e9a9190616039565b9050610ea78186866128cd565b600160c95590969095509350505050565b6000610bb26101c3612bce565b600080600260c95403610eea5760405162461bcd60e51b8152600401610a5d90615fc2565b600260c95560975460ff1615610f125760405162461bcd60e51b8152600401610a5d90615ff9565b6000610f1f6101c3612bd9565b61023554909150600090610f3b906001600160a01b03166128c2565b60405163463d31d760e11b8152600481018790529091506000906001600160a01b03831690638c7a63ae9060240160a060405180830381865afa158015610f86573d6000803e3d6000fd5b505050506040513d601f19601f82011682018060405250810190610faa9190616039565b60405163430c208160e01b81529091506001600160a01b0383169063430c208190610fdb9033908a906004016160bf565b602060405180830381865afa158015610ff8573d6000803e3d6000fd5b505050506040513d601f19601f8201168201806040525081019061101c91906160d8565b801561102c575061102c336123fe565b8015611049575061103c83612be8565b63ffffffff168160200151145b6110655760405162461bcd60e51b8152600401610a5d90615fa6565b6000806110868360200151846040015161107d61237b565b88929190612c01565b9150915060008360800151838560600151846110a29190616110565b6110ac9190616123565b6110b69190616110565b905080156110cc576110c9848a836128cd565b50505b5060006110ec8460200151856040015188612ceb9092919063ffffffff16565b905060008a1180156110fe5750898110155b61111a5760405162461bcd60e51b8152600401610a5d90616136565b5060008080611129888d612d0c565b93505092509250606461113a61237b565b611145906064616110565b61114f9083616152565b611159919061617f565b6040516331a9108f60e11b8152600481018d90529091506000906001600160a01b03891690636352211e90602401602060405180830381865afa1580156111a4573d6000803e3d6000fd5b505050506040513d601f19601f820116820180604052508101906111c89190616193565b9050876001600160a01b0316635be57b6a60405180604001604052808781526020016111f38d612e48565b815250836040518363ffffffff1660e01b81526004016112149291906161b0565b6020604051808303816000875af1158015611233573d6000803e3d6000fd5b505050506040513d601f19601f8201168201806040525081019061125791906161d5565b60405163b819220560e01b8152600481018290526024810185905260448101849052909b506001600160a01b0389169063b819220590606401600060405180830381600087803b1580156112aa57600080fd5b505af11580156112be573d6000803e3d6000fd5b5050505060008488604001516112d49190616110565b11156114da57876001600160a01b0316635be57b6a6040518060400160405280878b604001516113049190616110565b81526020016113128d612be8565b63ffffffff16815250836040518363ffffffff1660e01b81526004016113399291906161b0565b6020604051808303816000875af1158015611358573d6000803e3d6000fd5b505050506040513d601f19601f8201168201806040525081019061137c91906161d5565b9950848311156113e95760405162461bcd60e51b815260206004820152603260248201527f5072696e636970616c20776974686472617761626c65206973206c657373207460448201527168616e207072696e636970616c206d6f766560701b6064820152608401610a5d565b858211156114535760405162461bcd60e51b815260206004820152603160248201527f496e74657265737420776974686472617761626c65206973206c657373207468604482015270185b881a5b9d195c995cdd081b5bdd9959607a1b6064820152608401610a5d565b6001600160a01b03881663b81922058b61146d8689616110565b611477868b616110565b6040516001600160e01b031960e086901b168152600481019390935260248301919091526044820152606401600060405180830381600087803b1580156114bd57600080fd5b505af11580156114d1573d6000803e3d6000fd5b505050506114df565b600099505b50866001600160a01b031663b81922058c8689604001516115009190616110565b6040516001600160e01b031960e085901b1681526004810192909252602482015260006044820152606401600060405180830381600087803b15801561154557600080fd5b505af1158015611559573d6000803e3d6000fd5b5050604051630852cd8d60e31b8152600481018e90526001600160a01b038a1692506342966c689150602401600060405180830381600087803b15801561159f57600080fd5b505af11580156115b3573d6000803e3d6000fd5b50505050888a8c7f5df84d720403cf4728bc2d21f8e1c46f0427db198f152e92a243a66172a2fbae8f6040516115eb91815260200190565b60405180910390a45050505050505050600160c9819055509250929050565b6000600260c9540361162e5760405162461bcd60e51b8152600401610a5d90615fc2565b600260c95560975460ff16156116565760405162461bcd60e51b8152600401610a5d90615ff9565b6102355461166c906001600160a01b0316612e92565b60405163d505accf60e01b8152336004820152306024820152604481018890526064810187905260ff8616608482015260a4810185905260c481018490526001600160a01b03919091169063d505accf9060e401600060405180830381600087803b1580156116da57600080fd5b505af11580156116ee573d6000803e3d6000fd5b505050506116fb86612f05565b600160c9559695505050505050565b60006109df6101c3836130d5565b6102355460009081906117aa90611737906001600160a01b03166128c2565b6001600160a01b0316638c7a63ae856040518263ffffffff1660e01b815260040161176491815260200190565b60a060405180830381865afa158015611781573d6000803e3d6000fd5b505050506040513d601f19601f820116820180604052508101906117a59190616039565b6130e1565b91509150915091565b60006109df6101c38361323b565b6000610bb26101c3613247565b600054610100900460ff16806117e7575060005460ff16155b6118035760405162461bcd60e51b8152600401610a5d90615edb565b600054610100900460ff16158015611825576000805461ffff19166101011790555b61182d612509565b801561183f576000805461ff00191690555b50565b600054610100900460ff168061185b575060005460ff16155b6118775760405162461bcd60e51b8152600401610a5d90615edb565b600054610100900460ff16158015610cb1576000805461ffff191661010117905560405162461bcd60e51b8152610a5d90600401615f3f565b6000610bb26101c3613252565b6000610bb26101c361325d565b6102355460009081906118e5906001600160a01b03166128c2565b6001600160a01b0316638c7a63ae846040518263ffffffff1660e01b815260040161191291815260200190565b60a060405180830381865afa15801561192f573d6000803e3d6000fd5b505050506040513d601f19601f820116820180604052508101906119539190616039565b905061195d610cd6565b8160200151146119945760405162461bcd60e51b81526020600482015260026024820152614f5560f01b6044820152606401610a5d565b602081015160408201516119ab916101c391613268565b9392505050565b6119dd6040518060800160405280600081526020016000815260200160008152602001600081525090565b60006119f36119ea610cd6565b6101c390612670565b90506040518060800160405280826000015181526020018260200151815260200182604001518152602001826060015181525091505090565b6000610bb26101c3613275565b611a5160008051602061642983398151915233611a8f565b611a6d5760405162461bcd60e51b8152600401610a5d90615fa6565b610dc4613280565b6000610bb26101c36132d8565b6000610bb26101c36132e3565b60009182526065602090815260408084206001600160a01b0393909316845291905290205460ff1690565b600260c95403611adc5760405162461bcd60e51b8152600401610a5d90615fc2565b600260c95560975460ff1615611b045760405162461bcd60e51b8152600401610a5d90615ff9565b828114611b385760405162461bcd60e51b8152602060048201526002602482015261262760f11b6044820152606401610a5d565b60005b81811015611c355761023554600090611b5c906001600160a01b03166128c2565b6001600160a01b0316638c7a63ae878785818110611b7c57611b7c615f29565b905060200201356040518263ffffffff1660e01b8152600401611ba191815260200190565b60a060405180830381865afa158015611bbe573d6000803e3d6000fd5b505050506040513d601f19601f82011682018060405250810190611be29190616039565b9050611c1f81878785818110611bfa57611bfa615f29565b90506020020135868686818110611c1357611c13615f29565b905060200201356128cd565b5050508080611c2d906161ee565b915050611b3b565b5050600160c955505050565b6000610bb26101c36132ee565b600260c95403611c705760405162461bcd60e51b8152600401610a5d90615fc2565b600260c955611c8d60008051602061644983398151915233611a8f565b611ca95760405162461bcd60e51b8152600401610a5d90615fa6565b60975460ff1615611ccc5760405162461bcd60e51b8152600401610a5d90615ff9565b6102335460ff1615611d055760405162461bcd60e51b8152602060048201526002602482015261044560f41b6044820152606401610a5d565b60008111611d255760405162461bcd60e51b8152600401610a5d90616207565b6000611d326101c3612bd9565b9050611d3e81836132f9565b6102375461023554611d72916001600160a01b03908116918591611d629116613470565b6001600160a01b0316919061347b565b610237546040518381526001600160a01b03909116907f7411b87a3c039bdfd8f3510b21e8bd0736265f53513735e1f4aa7b4f306b728d9060200160405180910390a25050600160c955565b6000610bb26101c36134d1565b611dd3611fcc565b611def5760405162461bcd60e51b8152600401610a5d90615f5b565b610233805460ff1916600117905560405130907f90d9b09c68a7e1312ce22801552b47265d77db9496383d51374b4058545447d790600090a2565b600080600260c95403611e4f5760405162461bcd60e51b8152600401610a5d90615fc2565b600260c95560975460ff1615611e775760405162461bcd60e51b8152600401610a5d90615ff9565b611e80836134de565b600160c9559094909350915050565b600080600042841015611eb45760405162461bcd60e51b8152600401610a5d90616223565b6000611ebe6118bd565b11611ef05760405162461bcd60e51b81526020600482015260026024820152614c4960f01b6044820152606401610a5d565b611ef9846121c9565b611f02856117b3565b611f0b86610b97565b9250925092509193909250565b611f3060008051602061644983398151915233611a8f565b611f4c5760405162461bcd60e51b8152600401610a5d90615fa6565b61023255565b6000610bb26101c36135c4565b6000610bb26101c36135d1565b6000600260c95403611f905760405162461bcd60e51b8152600401610a5d90615fc2565b600260c95560975460ff1615611fb85760405162461bcd60e51b8152600401610a5d90615ff9565b611fc182612f05565b600160c95592915050565b6000610bb260008051602061640983398151915233611a8f565b611ffe60008051602061644983398151915233611a8f565b61201a5760405162461bcd60e51b8152600401610a5d90615fa6565b61202d6120286101c3612bd9565b6135dc565b1561205f5760405162461bcd60e51b815260206004820152600260248201526120a360f11b6044820152606401610a5d565b610d0961023483836159f5565b6000610bb26101c36135ea565b612081611fcc565b61209d5760405162461bcd60e51b8152600401610a5d90615f5b565b610233805460ff1916905560405130907f7184039938737267597232635b117c924371ac877d4329f2dfa5ca674c5cc4a590600090a2565b6120dd615a3c565b600260c954036120ff5760405162461bcd60e51b8152600401610a5d90615fc2565b600260c95560975460ff16156121275760405162461bcd60e51b8152600401610a5d90615ff9565b611fc1826135f7565b606061023480548060200260200160405190810160405280929190818152602001828054801561217f57602002820191906000526020600020905b81548152602001906001019080831161216b575b5050505050905090565b6000610bb26101c36137d4565b6000610bb26101c36137df565b6000828152606560205260409020600101546121bf81336126de565b610d0983836127c8565b60006109df6101c3836137ea565b60006109df6101c3836137f6565b61023481815481106121f657600080fd5b600091825260209091200154905081565b6000610bb26101c3613802565b600054610100900460ff168061222d575060005460ff16155b6122495760405162461bcd60e51b8152600401610a5d90615edb565b600054610100900460ff1615801561226b576000805461ffff19166101011790555b61023580546001600160a01b0319166001600160a01b038d169081179091556000906122969061380d565b90506122a181610a28565b6122d661023560009054906101000a90046001600160a01b03168a8a8a8a8f6101c3613825909695949392919063ffffffff16565b61023780546001600160a01b0319166001600160a01b038d16179055426102365561230461023485856159f5565b5061231d6000805160206164498339815191528c6125ee565b612335600080516020616449833981519152826125ee565b61235b6000805160206164498339815191526000805160206164098339815191526125f8565b50801561236e576000805461ff00191690555b5050505050505050505050565b61023554600090612394906001600160a01b031661383d565b610bb290606461617f565b6123a7615a3c565b600260c954036123c95760405162461bcd60e51b8152600401610a5d90615fc2565b600260c95560975460ff1615610cb15760405162461bcd60e51b8152600401610a5d90615ff9565b6000610bb26101c36138b0565b61023554600090612417906001600160a01b03166138bd565b6001600160a01b0316631852f200836102346040518363ffffffff1660e01b815260040161244692919061623f565b602060405180830381865afa158015612463573d6000803e3d6000fd5b505050506040513d601f19601f820116820180604052508101906109df91906160d8565b60006119ab83836138c8565b60006119ab83836138d7565b600054610100900460ff16806124b8575060005460ff16155b6124d45760405162461bcd60e51b8152600401610a5d90615edb565b600054610100900460ff1615801561182d576000805461ffff1916610101179055801561183f576000805461ff001916905550565b600054610100900460ff1680612522575060005460ff16155b61253e5760405162461bcd60e51b8152600401610a5d90615edb565b600054610100900460ff16158015612560576000805461ffff19166101011790555b6097805460ff19169055801561183f576000805461ff001916905550565b600054610100900460ff1680612597575060005460ff16155b6125b35760405162461bcd60e51b8152600401610a5d90615edb565b600054610100900460ff161580156125d5576000805461ffff19166101011790555b600160c955801561183f576000805461ff001916905550565b610b768282612742565b600082815260656020526040808220600101805490849055905190918391839186917fbd79b86ffe0ab8e8776151514217cd7cacd52c909f66475c3af44e129f0b00ff9190a4505050565b60006119ab83836138f3565b60006109df8261391c565b60006109df82613928565b60006109df82613934565b61269b6040518060800160405280600081526020016000815260200160008152602001600081525090565b6119ab8383613940565b60006109df826139f5565b60006119ab8383613a01565b60006109df82613a10565b60006126d282612be8565b63ffffffff1692915050565b6126e88282611a8f565b610b7657612700816001600160a01b03166014613a1c565b61270b836020613a1c565b60405160200161271c9291906162be565b60408051601f198184030181529082905262461bcd60e51b8252610a5d9160040161632d565b61274c8282611a8f565b610b765760008281526065602090815260408083206001600160a01b03851684529091529020805460ff191660011790556127843390565b6001600160a01b0316816001600160a01b0316837f2f8788117e7eff1d82e926ec794901d17c78024a50270940304540a733656f0d60405160405180910390a45050565b6127d28282611a8f565b15610b765760008281526065602090815260408083206001600160a01b0385168085529252808320805460ff1916905551339285917ff6391f5c32d9c69d2a47ea670b442974b53935d1edc7fd64eb21e047a839171b9190a45050565b60975460ff166128785760405162461bcd60e51b815260206004820152601460248201527314185d5cd8589b194e881b9bdd081c185d5cd95960621b6044820152606401610a5d565b6097805460ff191690557f5db9ee0a495bf2e6ff9c91a7834c1ba4fdd244a5e8aa4e537bd38aeae4b073aa335b6040516001600160a01b03909116815260200160405180910390a1565b60006109df82613bb7565b600080600083116128f05760405162461bcd60e51b8152600401610a5d90616207565b61023554600090612909906001600160a01b03166128c2565b60405163430c208160e01b81529091506001600160a01b0382169063430c20819061293a90339089906004016160bf565b602060405180830381865afa158015612957573d6000803e3d6000fd5b505050506040513d601f19601f8201168201806040525081019061297b91906160d8565b801561298b575061298b336123fe565b6129a75760405162461bcd60e51b8152600401610a5d90615fa6565b60006129b46101c3612bd9565b90506000806129c2896130e1565b90925090506129d18183616123565b8711156129f05760405162461bcd60e51b8152600401610a5d90616136565b60006129fc8389613bcf565b90506000612a0a828a616110565b90506000612a188285613bcf565b90506002612a2587613be5565b6002811115612a3657612a36616360565b03612aa95760405163b819220560e01b8152600481018c905260248101829052604481018490526001600160a01b0388169063b8192205906064015b600060405180830381600087803b158015612a8c57600080fd5b505af1158015612aa0573d6000803e3d6000fd5b50505050612b56565b6000612ab487613be5565b6002811115612ac557612ac5616360565b03612b1d578215612ad857612ad8616376565b60208c0151612ae990879083613c52565b6040516366cbb03760e01b8152600481018c9052602481018290526001600160a01b038816906366cbb03790604401612a72565b6001612b2887613be5565b6002811115612b3957612b39616360565b03612b565760405162461bcd60e51b8152600401610a5d9061638c565b612b7a33612b648386616123565b61023554611d62906001600160a01b0316613470565b6020808d0151604080518681529283018490528d9233917f92f2787b755dae547f1701582fe74c7abf277ec14db316dd01abc69cacf7a259910160405180910390a4919b919a509098505050505050505050565b60006109df82613ca4565b6000612be482613cb3565b5090565b60006001612bf7836009015490565b6109df9190616110565b6000806002612c0f87613be5565b6002811115612c2057612c20616360565b14612c3d57612c3460098701868686613d6e565b91509150612ce2565b6000612c4887612be8565b63ffffffff1686148015612c785750612c6387603c01613d94565b6005880154612c7690603c8a0190613d9c565b105b90506000612c8588612be8565b63ffffffff1687108015612ca35750612ca088603c01613d94565b87105b905060008280612cb05750815b905080612ccb57612cc660098a01898989613d6e565b612cda565b612cda60098a01898989613e44565b945094505050505b94509492505050565b6000612d0482612cfe6009870186613e5d565b90613e8a565b949350505050565b6000806000806000612d1d87613be5565b90506002816002811115612d3357612d33616360565b14612d505760405162461bcd60e51b8152600401610a5d9061638c565b6000612d5e88603c01613eb2565b90506000612d6e89603c01613ebe565b90506000612d7b8a612e48565b9050612d868a612be8565b63ffffffff168110612dbf5760405162461bcd60e51b81526020600482015260026024820152614c4360f01b6044820152606401610a5d565b60048a0154612dce9083616110565b612dd883856163a8565b10612e0a5760405162461bcd60e51b815260206004820152600260248201526110d360f21b6044820152606401610a5d565b612e3289612e178c612be8565b63ffffffff16838d600901613f06909392919063ffffffff16565b9750975097509750505050505b92959194509250565b6000808260040154612e5c84603c01613eb2565b612e669190616123565b905060006001612e79603c860184613f4e565b612e839190616110565b9050612d04603c850182613d9c565b60006001600160a01b03821663b93f9b0a60055b6040518263ffffffff1660e01b8152600401612ec491815260200190565b602060405180830381865afa158015612ee1573d6000803e3d6000fd5b505050506040513d601f19601f820116820180604052508101906109df9190616193565b600080612f136101c3612bd9565b905060008311612f355760405162461bcd60e51b8152600401610a5d90616207565b612f3e336123fe565b612f5a5760405162461bcd60e51b8152600401610a5d90615fa6565b61023254421015612f925760405162461bcd60e51b8152602060048201526002602482015261272360f11b6044820152606401610a5d565b612f9c8184613fb5565b61023554600090612fb5906001600160a01b03166128c2565b6001600160a01b0316635be57b6a6040518060400160405280878152602001612fdd86612be8565b63ffffffff16815250336040518363ffffffff1660e01b81526004016130049291906161b0565b6020604051808303816000875af1158015613023573d6000803e3d6000fd5b505050506040513d601f19601f8201168201806040525081019061304791906161d5565b6102355490915061307b9033903090879061306a906001600160a01b0316613470565b6001600160a01b0316929190614067565b8061308583612be8565b63ffffffff16336001600160a01b03167fcb3ef4109dcd006671348924f00aac8398190a5ff283d6e470d74581513e1036876040516130c691815260200190565b60405180910390a49392505050565b60006119ab838361409f565b60008082604001516000036130fb57506000928392509050565b60008061311e8560200151866040015161311361237b565b6101c39291906141d6565b909250905061312e816001616123565b856060015111156131a05760405162461bcd60e51b815260206004820152603660248201527f5072696e636970616c20776974686472617761626c65206973206c65737320746044820152751a185b881c1c9a5b98da5c185b081c995919595b595960521b6064820152608401610a5d565b81856080015111156132115760405162461bcd60e51b815260206004820152603460248201527f496e74657265737420776974686472617761626c65206973206c657373207468604482015273185b881a5b9d195c995cdd081c995919595b595960621b6064820152608401610a5d565b60808501516132209083616110565b60608601516132309083906141e5565b935093505050915091565b60006119ab8383614206565b60006109df82614263565b60006109df8261426f565b60006109df8261427d565b6000612d04848484612ceb565b60006109df8261428b565b60975460ff16156132a35760405162461bcd60e51b8152600401610a5d90615ff9565b6097805460ff191660011790557f62e78cea01bee320cd4e420270b5ea74000d11b0c9f74754ebdbfc544b05a2586128a53390565b60006109df82614297565b60006109df826142a5565b60006109df826142b1565b600061330483613be5565b9050600081600281111561331a5761331a616360565b036133e05761332c603c8401426142bf565b42600684015561333b83613be5565b60405190915030907f139a6829bb850b4fb0d6617ac9f9d32e48c2dbe13e158829fa64f326fafe8e1890600090a2600181600281111561337d5761337d616360565b146133e05760405162461bcd60e51b815260206004820152602d60248201527f53636166666f6c64696e67206661696c7572653a2053686f756c64206265204460448201526c1c985dd91bdddb94195c9a5bd9609a1b6064820152608401610a5d565b60018160028111156133f4576133f4616360565b146134115760405162461bcd60e51b8152600401610a5d9061638c565b61341a836135dc565b61342684600901614306565b6134309084616123565b11156134635760405162461bcd60e51b8152602060048201526002602482015261115160f21b6044820152606401610a5d565b610d09600984018361435e565b60006109df82612e92565b610d098363a9059cbb60e01b848460405160240161349a9291906160bf565b60408051601f198184030181529190526020810180516001600160e01b03166001600160e01b03199093169290921790915261438a565b60006109df826001015490565b6000806134ec6101c3612bd9565b5061023554600090613506906001600160a01b03166128c2565b6001600160a01b0316638c7a63ae856040518263ffffffff1660e01b815260040161353391815260200190565b60a060405180830381865afa158015613550573d6000803e3d6000fd5b505050506040513d601f19601f820116820180604052508101906135749190616039565b9050600080613582836130e1565b909250905060006135938284616123565b9050806000036135ac5750600096879650945050505050565b6135b78488836128cd565b9550955050505050915091565b60006109df826002015490565b60006109df8261445c565b60006109df8260090161446a565b60006109df826005015490565b6135ff615a3c565b600061360c6101c3612bd9565b90506000831161362e5760405162461bcd60e51b8152600401610a5d90616207565b6000613639826139f5565b9050600061364683613934565b9050600061365e4261365886826144a8565b906141e5565b905060006136858785856136718961391c565b60028a0154876136808c61445c565b6144b7565b905060008160200151826000015161369d9190616123565b90506000826060015183604001516136b59190616123565b905060006136c38284616123565b905060006064846136d261237b565b6136dc9190616152565b6136e6919061617f565b90506136f38984866145a6565b6040805185815260208101859052600081830152606081018390529051309133917fd1055dc2c2a003a83dfacb1c38db776eab5ef89d77a8f05a3512e8cf57f953ce9181900360800190a36102355461375e9033903090859061306a906001600160a01b0316613470565b6102355461379090613778906001600160a01b031661462e565b610235548390611d62906001600160a01b0316613470565b60405181815230907ff3583f178a8d4f8888c3683f8e948faf9b6eb701c4f1fab265a6ecad1a1ddebb9060200160405180910390a250929998505050505050505050565b60006109df82614646565b60006109df82614708565b60006119ab8383614714565b60006119ab838361474c565b60006109df826147cd565b60006001600160a01b03821663b93f9b0a6007612ea6565b613834878787878787876147d9565b50505050505050565b60006001600160a01b03821663fc56365860035b6040518263ffffffff1660e01b815260040161386f91815260200190565b602060405180830381865afa15801561388c573d6000803e3d6000fd5b505050506040513d601f19601f820116820180604052508101906109df91906161d5565b60006109df826003015490565b60006109df82614932565b60006119ab603c84018361494a565b60006119ab6138e9603c850184613d9c565b60098501906149b1565b60006119ab613912613908603c860185613d9c565b6009860190614a05565b61365885856138d7565b60006109df82426138f3565b60006109df824261409f565b60006109df8242614206565b61396b6040518060800160405280600081526020016000815260200160008152602001600081525090565b600061397a6009850184613e5d565b9050613987816003015490565b60608301528054825261399984614a41565b80156139af57506139ac84603c01613d94565b83105b156139d957600281015460018201546139c89190616123565b6020830152600060408301526139ee565b60018101546020830152600281015460408301525b5092915050565b60006109df8242614714565b60006119ab603c840183614a4f565b60006109df8242614ae5565b60606000613a2b836002616152565b613a36906002616123565b6001600160401b03811115613a4d57613a4d616023565b6040519080825280601f01601f191660200182016040528015613a77576020820181803683370190505b509050600360fc1b81600081518110613a9257613a92615f29565b60200101906001600160f81b031916908160001a905350600f60fb1b81600181518110613ac157613ac1615f29565b60200101906001600160f81b031916908160001a9053506000613ae5846002616152565b613af0906001616123565b90505b6001811115613b68576f181899199a1a9b1b9c1cb0b131b232b360811b85600f1660108110613b2457613b24615f29565b1a60f81b828281518110613b3a57613b3a615f29565b60200101906001600160f81b031916908160001a90535060049490941c93613b61816163bc565b9050613af3565b5083156119ab5760405162461bcd60e51b815260206004820181905260248201527f537472696e67733a20686578206c656e67746820696e73756666696369656e746044820152606401610a5d565b60006001600160a01b03821663b93f9b0a600c612ea6565b6000818310613bde57816119ab565b5090919050565b6000613bf382603c01614bbc565b8015613c2457508154613c0e906001600160a01b0316614bd2565b613c178361426f565b613c219190616123565b42115b15613c3157506002919050565b613c3d82603c01614bbc565b15613c4a57506001919050565b506000919050565b6000613c5d84613be5565b90506000816002811115613c7357613c73616360565b14613c905760405162461bcd60e51b8152600401610a5d9061638c565b613c9e600985018484614bea565b50505050565b60006109df603c830142614c1f565b6000613cbe82613be5565b90506000816002811115613cd457613cd4616360565b03613cdd575050565b6000613ceb83603c01613eb2565b90506000613d09846005015485603c01614cb190919063ffffffff16565b905080821115613d2b57613d2b613d21600184616110565b6009860190614d18565b613d3484614646565b60068501556000613d4485613928565b90506000613d51866142a5565b600887019290925550600785015550504260059092019190915550565b600080613d878484613d808989613e5d565b9190614dbb565b9150915094509492505050565b60006109df82425b600082613da881614bbc565b613dc45760405162461bcd60e51b8152600401610a5d90615fa6565b83546040516356bd011960e01b81526001600160a01b038216916356bd011991613e0391600160a01b90046001600160401b03169087906004016163d3565b602060405180830381865afa158015613e20573d6000803e3d6000fd5b505050506040513d601f19601f82011682018060405250810190612d0491906161d5565b600080613d878484613e568989613e5d565b9190614ddf565b6000826000018281548110613e7457613e74615f29565b9060005260206000209060360201905092915050565b6000613e94835490565b82613e9e85614df7565b613ea89190616152565b6119ab919061617f565b60006109df8242614cb1565b805460408051620f755f60ec1b815290516000926001600160a01b03169163f755f0009160048083019260209291908290030181865afa15801561388c573d6000803e3d6000fd5b6000808080613f1f87613f198a89613e5d565b90614e0a565b92965090945092509050613f4384848484613f3a8d8b613e5d565b93929190614f64565b945094509450949050565b600082613f5a81614bbc565b613f765760405162461bcd60e51b8152600401610a5d90615fa6565b8354604051638dfdc69560e01b81526001600160a01b03821691638dfdc69591613e0391600160a01b90046001600160401b03169087906004016163d3565b6000613fc083613be5565b90506000816002811115613fd657613fd6616360565b14613ff35760405162461bcd60e51b8152600401610a5d9061638c565b60018301546140048460090161446a565b61400e9084616123565b11156140415760405162461bcd60e51b8152602060048201526002602482015261115360f21b6044820152606401610a5d565b610d0961404d84612be8565b63ffffffff168385600901614fd59092919063ffffffff16565b6040516001600160a01b0380851660248301528316604482015260648101829052613c9e9085906323b872dd60e01b9060840161349a565b600082600501548210156140c55760405162461bcd60e51b8152600401610a5d90616223565b6140d183603c01614bbc565b6140dd575060006109df565b506008820154816140ed8461427d565b846005015411614123576000614113856005015486603c0161500a90919063ffffffff16565b905061411f8185613bcf565b9150505b60058401548454600091614174916201518090614148906001600160a01b0316615071565b6141529190616152565b600688015461416590603c8a0190614a4f565b61416f9190616123565b615089565b905061419b8560050154838361418c89600901615099565b89600201548a600301546150f1565b6141a59084616123565b9250838210156141ce576141c182858361418c89600901614306565b6141cb9084616123565b92505b505092915050565b600080613d8786868686612c01565b60008282116141fd576141f88284616110565b6119ab565b50600092915050565b60004282101561423d5760405162461bcd60e51b8152602060048201526002602482015261141560f21b6044820152606401610a5d565b6119ab61425961424f85600901615162565b61416f868661474c565b613658858561409f565b60006109df82426138d7565b60006109df82603c016151a3565b60006109df82603c016151f7565b60006109df824261524b565b60006109df82600901615162565b60006109df824261474c565b60006109df82600901615099565b8154600160a01b90046001600160401b0316156142de576142de616376565b81546001600160401b03909116600160a01b0267ffffffffffffffff60a01b19909116179055565b60008060005b83548110156139ee5761434084600001828154811061432d5761432d615f29565b90600052602060002090603602016152f5565b61434a9083616123565b915080614356816161ee565b91505061430c565b600061437e600161436d855490565b6143779190616110565b8490613e5d565b9050610d09818361530e565b60006143df826040518060400160405280602081526020017f5361666545524332303a206c6f772d6c6576656c2063616c6c206661696c6564815250856001600160a01b03166153649092919063ffffffff16565b805190915015610d0957808060200190518101906143fd91906160d8565b610d095760405162461bcd60e51b815260206004820152602a60248201527f5361666545524332303a204552433230206f7065726174696f6e20646964206e6044820152691bdd081cdd58d8d9595960b21b6064820152608401610a5d565b60006109df82600901614306565b60008060005b83548110156139ee5761448a6144868583613e5d565b5490565b6144949083616123565b9150806144a0816161ee565b915050614470565b60006119ab603c84018361500a565b6144bf615a3c565b8760006144cc8983613bcf565b90506144d88183616110565b915060006144e68884613bcf565b90506144f28184616110565b925060006145008a85613bcf565b905061450c8185616110565b9350600061451a8388616110565b9050600061452989838c615373565b905060006145378288613bcf565b90506145438188616110565b965060006145518885613bcf565b905061455d8189616110565b97506040518060a00160405280888152602001838761457c9190616123565b81526020018781526020018281526020018981525098505050505050505050979650505050505050565b60006145b184613be5565b905060028160028111156145c7576145c7616360565b146145e45760405162461bcd60e51b8152600401610a5d9061638c565b61460183836145f587603c01613d94565b600988019291906153c1565b61460a8461391c565b15801561461d575061461b846139f5565b155b15613c9e5742600685015550505050565b60006001600160a01b03821663b93f9b0a6006612ea6565b6006810154600261465683613be5565b600281111561466757614667616360565b14614673575042919050565b600061468f836005015484603c01614cb190919063ffffffff16565b9050600061469f84603c01613eb2565b9050815b818110156147005760006146ba603c870183613f4e565b90506146c686826138f3565b1580156146da57506146d88682614714565b155b156146e7578094506146ed565b50614700565b50806146f8816161ee565b9150506146a3565b505050919050565b60006109df8242613a01565b6000826005015482101561473a5760405162461bcd60e51b8152600401610a5d90616223565b6119ab61474684614297565b61365885855b600082600501548210156147725760405162461bcd60e51b8152600401610a5d90616223565b61477b8361427d565b8211156147935761478c838361409f565b90506109df565b60006147a2603c8501846154e8565b9050836005015481116147bb57505060078201546109df565b6147c5848261409f565b9150506109df565b60006109df82426144a8565b6005870154156148105760405162461bcd60e51b81526020600482015260026024820152614e4960f01b6044820152606401610a5d565b86546001600160a01b0319166001600160a01b038781169190911788556001880182905560048089018690556040805180820182529286168084526000602094850152603c8b0180546001600160e01b03191682179055815163e08cf88360e01b815291516148cf94919363e08cf88393808201939291908290030181865afa1580156148a1573d6000803e3d6000fd5b505050506040513d601f19601f820116820180604052508101906148c591906161d5565b600989019061554f565b50600287810186905560038801839055426005890181905560068901556000600889018190556007890155600988015410156138345760405162461bcd60e51b8152602060048201526002602482015261135560f21b6044820152606401610a5d565b60006001600160a01b03821663b93f9b0a6013612ea6565b60008261495681614bbc565b6149725760405162461bcd60e51b8152600401610a5d90615fa6565b83546040516347487c0160e01b81526001600160a01b038216916347487c0191613e0391600160a01b90046001600160401b03169087906004016163d3565b6000805b828110156139ee576149e78460000182815481106149d5576149d5615f29565b90600052602060002090603602015490565b6149f19083616123565b9150806149fd816161ee565b9150506149b5565b6000805b828110156139ee57614a23614a1e8583613e5d565b6155d4565b614a2d9083616123565b915080614a39816161ee565b915050614a09565b60006109df82603c01614bbc565b6000614a5a83614bbc565b614a655760006119ab565b82546040516308ba6bcb60e41b81526001600160a01b03821691638ba6bcb091614aa491600160a01b90046001600160401b03169086906004016163d3565b602060405180830381865afa158015614ac1573d6000803e3d6000fd5b505050506040513d601f19601f820116820180604052508101906119ab91906161d5565b600080614af4846009016155ea565b9050614aff84614a41565b614b0a5790506109df565b6000614b19603c860185613d9c565b90506000614b37866005015487603c01613d9c90919063ffffffff16565b90506000614b48600988018461562b565b90508183118015614b675750614b5d87612be8565b63ffffffff168311155b15614ba757614b9a614b93614b7b89612be8565b63ffffffff1689600901613e5d90919063ffffffff16565b6002015490565b614ba49082616123565b90505b614bb18185616123565b979650505050505050565b54600160a01b90046001600160401b0316151590565b60006001600160a01b03821663fc5636586007613851565b610d0981846000018481548110614c0357614c03615f29565b906000526020600020906036020161568290919063ffffffff16565b6000614c2a83614bbc565b15806119ab57508254604051634922ed6b60e11b81526001600160a01b03821691639245dad691614c7091600160a01b90046001600160401b03169086906004016163d3565b602060405180830381865afa158015614c8d573d6000803e3d6000fd5b505050506040513d601f19601f820116820180604052508101906119ab91906160d8565b600082614cbd81614bbc565b614cd95760405162461bcd60e51b8152600401610a5d90615fa6565b8354604051636a3d374160e11b81526001600160a01b0382169163d47a6e8291613e0391600160a01b90046001600160401b03169087906004016163d3565b60006001614d24845490565b614d2e9190616110565b90506000836000018281548110614d4757614d47615f29565b90600052602060002090603602019050614d60816156c3565b60005b838111158015614d7257508281105b15614db457614da2856000018281548110614d8f57614d8f615f29565b90600052602060002090603602016156c3565b80614dac816161ee565b915050614d63565b5050505050565b600080614dc98585856156ea565b614dd38686615732565b91509150935093915050565b600080614ded8585856156ea565b614dd38686615748565b600181015481546000916109df91616110565b60008060008085600101548660000154614e249190616110565b851115614e5e5760405162461bcd60e51b81526020600482015260086024820152670a89e9ebe9aaa86960c31b6044820152606401610a5d565b614e6c866002015486613bcf565b60018701548754919350614e7f91616110565b858760010154614e8f9190616152565b614e99919061617f565b9250614ea58386616123565b93508560000154848760030154614ebc9190616152565b614ec6919061617f565b905082866001016000828254614edc9190616110565b9250508190555080866003016000828254614ef79190616110565b9091555050855484908790600090614f10908490616110565b9250508190555081866002016000828254614f2b9190616110565b909155505060028601546001870154614f449190616123565b86541015612e3f5760405162461bcd60e51b8152600401610a5d90616223565b83856000016000828254614f789190616123565b9250508190555082856001016000828254614f939190616123565b9250508190555081856002016000828254614fae9190616123565b9250508190555080856003016000828254614fc99190616123565b90915550505050505050565b610d0981846000018481548110614fee57614fee615f29565b906000526020600020906036020161576d90919063ffffffff16565b60008261501681614bbc565b6150325760405162461bcd60e51b8152600401610a5d90615fa6565b8354604051635c16b67360e11b81526001600160a01b0382169163b82d6ce691613e0391600160a01b90046001600160401b03169087906004016163d3565b60006001600160a01b03821663fc5636586005613851565b600081831015613bde57816119ab565b60008060005b83548110156139ee576150d38460000182815481106150c0576150c0615f29565b9060005260206000209060360201614df7565b6150dd9083616123565b9150806150e9816161ee565b91505061509f565b600086861161510257506000615158565b600061510e8888616110565b905061511b818686615373565b91508686101561515657600061513b615134888b615089565b89906141e5565b9050615148818786615373565b6151529084616123565b9250505b505b9695505050505050565b60008060005b83548110156139ee5761518561517e8583613e5d565b6003015490565b61518f9083616123565b91508061519b816161ee565b915050615168565b60006151ae82614bbc565b6151b95760006109df565b815460405163df3dc09160e01b8152600160a01b82046001600160401b031660048201526001600160a01b039091169063df3dc0919060240161386f565b600061520282614bbc565b61520d5760006109df565b81546040516334a88f4360e01b8152600160a01b82046001600160401b031660048201526001600160a01b03909116906334a88f439060240161386f565b6000600261525884613be5565b600281111561526957615269616360565b14615276575060006109df565b82546000906201518090615292906001600160a01b0316615071565b61529c9190616152565b905060006152b66152ac86614646565b603c870190614a4f565b905060006152c486866138d7565b11806152d9575060006152d7868661474c565b115b80156141cb57506152ea8282616123565b909311949350505050565b60028101546001820154825460009291612bf791616110565b81600101548111156153475760405162461bcd60e51b8152602060048201526002602482015261045560f41b6044820152606401610a5d565b8082600101600082825461535b9190616110565b90915550505050565b6060612d0484846000856157ae565b600080670de0b6b3a76400006153898486616152565b615393919061617f565b90506153a46201518061016d616152565b6153ae8683616152565b6153b8919061617f565b95945050505050565b60006153cc85615099565b9050600081116154035760405162461bcd60e51b8152602060048201526002602482015261272160f11b6044820152606401610a5d565b60005b85548110156154b457600086600001828154811061542657615426615f29565b9060005260206000209060360201905060008361544283614df7565b61544c9088616152565b615456919061617f565b9050600061546d88615467856152f5565b90613bcf565b90506154798189616110565b9750858410156154935761548e8382846158cb565b61549e565b61549e838284615933565b50505080806154ac906161ee565b915050615406565b508315614db45760405162461bcd60e51b815260206004820152600260248201526104f560f41b6044820152606401610a5d565b6000826154f481614bbc565b6155105760405162461bcd60e51b8152600401610a5d90615fa6565b8354604051630103299960e31b81526001600160a01b038216916308194cc891613e0391600160a01b90046001600160401b03169087906004016163d3565b6000805b828110156155cc57615563615a6b565b8454600181810187556000878152602090819020845160369094020192835583015190820155604082015160028201556060820151600382015560808201518291906155b59060048301906032615a9f565b5050505080806155c4906161ee565b915050615553565b509192915050565b6000816002015482600101546109df9190616123565b60008060005b83548110156139ee5761560d6156068583613e5d565b6001015490565b6156179083616123565b915080615623816161ee565b9150506155f0565b6000805b828110156139ee5761566484600001828154811061564f5761564f615f29565b90600052602060002090603602016002015490565b61566e9083616123565b91508061567a816161ee565b91505061562f565b60038201541561569457615694616376565b808260000160008282546156a89190616110565b925050819055508082600101600082825461535b9190616110565b80600201548160010160008282546156db9190616123565b90915550506000600290910155565b60006156f4845490565b6156ff906064616152565b61570883615991565b84615714876003015490565b61571e9190616152565b6157289190616152565b612d04919061617f565b600061573c835490565b82613e9e856001015490565b6000615752835490565b828460020154615763866001015490565b613e9e9190616123565b60038201541561577f5761577f616376565b808260000160008282546157939190616123565b925050819055508082600101600082825461535b9190616123565b60608247101561580f5760405162461bcd60e51b815260206004820152602660248201527f416464726573733a20696e73756666696369656e742062616c616e636520666f6044820152651c8818d85b1b60d21b6064820152608401610a5d565b843b61585d5760405162461bcd60e51b815260206004820152601d60248201527f416464726573733a2063616c6c20746f206e6f6e2d636f6e74726163740000006044820152606401610a5d565b600080866001600160a01b0316858760405161587991906163ec565b60006040518083038185875af1925050503d80600081146158b6576040519150601f19603f3d011682016040523d82523d6000602084013e6158bb565b606091505b5091509150614bb182828661599e565b825482846002015485600101546158e29190616123565b6158ec9190616123565b11156158fa576158fa616376565b8083600301600082825461590e9190616123565b92505081905550818360010160008282546159299190616123565b9091555050505050565b8254828460020154856001015461594a9190616123565b6159549190616123565b111561596257615962616376565b808360030160008282546159769190616123565b92505081905550818360020160008282546159299190616123565b60006109df826064616110565b606083156159ad5750816119ab565b8251156159bd5782518084602001fd5b8160405162461bcd60e51b8152600401610a5d919061632d565b60405180606001604052806003906020820280368337509192915050565b828054828255906000526020600020908101928215615a30579160200282015b82811115615a30578235825591602001919060010190615a15565b50612be4929150615acd565b6040518060a0016040528060008152602001600081526020016000815260200160008152602001600081525090565b6040518060a0016040528060008152602001600081526020016000815260200160008152602001615a9a615ae2565b905290565b8260328101928215615a30579160200282015b82811115615a30578251825591602001919060010190615ab2565b5b80821115612be45760008155600101615ace565b6040518061064001604052806032906020820280368337509192915050565b600060208284031215615b1357600080fd5b5035919050565b600060208284031215615b2c57600080fd5b81356001600160e01b0319811681146119ab57600080fd5b6001600160a01b038116811461183f57600080fd5b600060208284031215615b6b57600080fd5b81356119ab81615b44565b60608101818360005b6003811015615ba157815160ff16835260209283019290910190600101615b7f565b50505092915050565b81518152602080830151908201526040808301519082015260608083015190820152608081016109df565b60008060408385031215615be857600080fd5b823591506020830135615bfa81615b44565b809150509250929050565b60008060408385031215615c1857600080fd5b50508035926020909101359150565b600080600080600060a08688031215615c3f57600080fd5b8535945060208601359350604086013560ff81168114615c5e57600080fd5b94979396509394606081013594506080013592915050565b600080600080600080600060e0888a031215615c9157600080fd5b8735615c9c81615b44565b96506020880135615cac81615b44565b95506040880135615cbc81615b44565b9450606088013593506080880135925060a0880135615cda81615b44565b8092505060c0880135905092959891949750929550565b60008083601f840112615d0357600080fd5b5081356001600160401b03811115615d1a57600080fd5b6020830191508360208260051b8501011115615d3557600080fd5b9250929050565b60008060008060408587031215615d5257600080fd5b84356001600160401b0380821115615d6957600080fd5b615d7588838901615cf1565b90965094506020870135915080821115615d8e57600080fd5b50615d9b87828801615cf1565b95989497509550505050565b60008060208385031215615dba57600080fd5b82356001600160401b03811115615dd057600080fd5b615ddc85828601615cf1565b90969095509350505050565b6020808252825182820181905260009190848201906040850190845b81811015615e2057835183529284019291840191600101615e04565b50909695505050505050565b6000806000806000806000806000806101208b8d031215615e4c57600080fd5b8a35615e5781615b44565b995060208b0135615e6781615b44565b985060408b0135975060608b0135965060808b0135955060a08b0135615e8c81615b44565b945060c08b0135935060e08b013592506101008b01356001600160401b03811115615eb657600080fd5b615ec28d828e01615cf1565b915080935050809150509295989b9194979a5092959850565b6020808252602e908201527f496e697469616c697a61626c653a20636f6e747261637420697320616c72656160408201526d191e481a5b9a5d1a585b1a5e995960921b606082015260800190565b634e487b7160e01b600052603260045260246000fd5b602080825260029082015261555360f01b604082015260600190565b6020808252602b908201527f4d75737420686176652061646d696e20726f6c6520746f20706572666f726d2060408201526a3a3434b99030b1ba34b7b760a91b606082015260800190565b6020808252600290820152614e4160f01b604082015260600190565b6020808252601f908201527f5265656e7472616e637947756172643a207265656e7472616e742063616c6c00604082015260600190565b60208082526010908201526f14185d5cd8589b194e881c185d5cd95960821b604082015260600190565b634e487b7160e01b600052604160045260246000fd5b600060a0828403121561604b57600080fd5b60405160a081018181106001600160401b038211171561607b57634e487b7160e01b600052604160045260246000fd5b604052825161608981615b44565b80825250602083015160208201526040830151604082015260608301516060820152608083015160808201528091505092915050565b6001600160a01b03929092168252602082015260400190565b6000602082840312156160ea57600080fd5b815180151581146119ab57600080fd5b634e487b7160e01b600052601160045260246000fd5b818103818111156109df576109df6160fa565b808201808211156109df576109df6160fa565b602080825260029082015261494160f01b604082015260600190565b80820281158282048414176109df576109df6160fa565b634e487b7160e01b600052601260045260246000fd5b60008261618e5761618e616169565b500490565b6000602082840312156161a557600080fd5b81516119ab81615b44565b82518152602092830151928101929092526001600160a01b0316604082015260600190565b6000602082840312156161e757600080fd5b5051919050565b600060018201616200576162006160fa565b5060010190565b6020808252600290820152615a4160f01b604082015260600190565b602080825260029082015261125560f21b604082015260600190565b6001600160a01b0383168152604060208083018290528354918301829052600084815281812090929091906060850190845b8181101561628d57845483526001948501949284019201616271565b5090979650505050505050565b60005b838110156162b557818101518382015260200161629d565b50506000910152565b76020b1b1b2b9b9a1b7b73a3937b61d1030b1b1b7bab73a1604d1b8152600083516162f081601785016020880161629a565b7001034b99036b4b9b9b4b733903937b6329607d1b601791840191820152835161632181602884016020880161629a565b01602801949350505050565b602081526000825180602084015261634c81604085016020870161629a565b601f01601f19169190910160400192915050565b634e487b7160e01b600052602160045260246000fd5b634e487b7160e01b600052600160045260246000fd5b602080825260029082015261495360f01b604082015260600190565b6000826163b7576163b7616169565b500690565b6000816163cb576163cb6160fa565b506000190190565b6001600160401b03929092168252602082015260400190565b600082516163fe81846020870161629a565b919091019291505056feb19546dff01e856fb3f010c267a7b1c60363cf8a4664e21cc89c26224620214e65d7a28e3265b37a6474929f336521b332c1681b933f6cb9f3376673440d862aaf9a8bb3cbd6b84fbccefa71ff73e26e798553c6914585a84886212a46a90279a2646970667358221220e25afa359a52dea148b8aa31c795768aeb41727c63e69c19a6516c550860dfe164736f6c63430008110033",
  "devdoc": {
    "author": "Warbler Labs",
    "kind": "dev",
    "methods": {
      "availableToCall(uint256)": {
        "details": "OU: Only the uncalled tranche can call"
      },
      "availableToWithdraw(uint256)": {
        "params": {
          "tokenId": "position to query max amount withdrawable for"
        },
        "returns": {
          "_0": "total interest withdrawable on the position",
          "_1": "total principal redeemable on the position"
        }
      },
      "deposit(uint256)": {
        "params": {
          "amount": "amount of capital to supply"
        },
        "returns": {
          "_0": "tokenId NFT representing your position in this pool"
        }
      },
      "depositWithPermit(uint256,uint256,uint8,bytes32,bytes32)": {
        "params": {
          "amount": "amount of capital to supply",
          "deadline": "deadline of permit operation",
          "r": "r portion of signature",
          "s": "s portion of signature",
          "v": "v portion of signature"
        },
        "returns": {
          "tokenId": "NFT representing your position in this pool"
        }
      },
      "drawdown(uint256)": {
        "details": "DP: drawdowns pausedZA: Zero amount - must be greater than 0",
        "params": {
          "amount": "USDC to drawdown. This amount is transferred to the caller"
        }
      },
      "getAmountsOwed(uint256)": {
        "details": "IT: invalid timestampLI: loan inactive",
        "params": {
          "timestamp": "time to calculate up to"
        },
        "returns": {
          "returnedInterestAccrued": "amount of accrued interest (not yet owed) that can be paid at `timestamp`",
          "returnedInterestOwed": "amount of obligated interest owed at `timestamp`",
          "returnedPrincipalOwed": "amount of principal owed at `timestamp`"
        }
      },
      "getRoleAdmin(bytes32)": {
        "details": "Returns the admin role that controls `role`. See {grantRole} and {revokeRole}. To change a role's admin, use {_setRoleAdmin}."
      },
      "grantRole(bytes32,address)": {
        "details": "Grants `role` to `account`. If `account` had not been already granted `role`, emits a {RoleGranted} event. Requirements: - the caller must have ``role``'s admin role."
      },
      "hasRole(bytes32,address)": {
        "details": "Returns `true` if `account` has been granted `role`."
      },
      "initialize(address,address,uint256,uint256,uint256,address,uint256,uint256,uint256[])": {
        "params": {
          "_borrower": "address of borrower, a non-transferrable role for performing privileged actions like   drawdown",
          "_config": "address of GoldfinchConfig",
          "_fundableAt": "earliest time at which the first slice can be funded",
          "_interestApr": "interest rate for the loan",
          "_lateFeeApr": "late fee interest rate for the loan, which kicks in `LatenessGracePeriodInDays` days after a   payment becomes late",
          "_limit": "the number of periods at the tail end of a principal period during which call requests rollover   to the next principal period."
        }
      },
      "pause()": {
        "details": "Pauses all functions guarded by Pause See {Pausable-_pause}. Requirements: - the caller must have the PAUSER_ROLE."
      },
      "paused()": {
        "details": "Returns true if the contract is paused, and false otherwise."
      },
      "pay(uint256)": {
        "details": "ZA: zero amount",
        "params": {
          "amount": "USDC amount to pay"
        },
        "returns": {
          "_0": "PaymentAllocation info on how the payment was allocated"
        }
      },
      "renounceRole(bytes32,address)": {
        "details": "Revokes `role` from the calling account. Roles are often managed via {grantRole} and {revokeRole}: this function's purpose is to provide a mechanism for accounts to lose their privileges if they are compromised (such as when a trusted device is misplaced). If the calling account had been granted `role`, emits a {RoleRevoked} event. Requirements: - the caller must be `account`."
      },
      "revokeRole(bytes32,address)": {
        "details": "Revokes `role` from `account`. If `account` had been granted `role`, emits a {RoleRevoked} event. Requirements: - the caller must have ``role``'s admin role."
      },
      "submitCall(uint256,uint256)": {
        "details": "IA: Invalid amount - Call amount must be non-zero amount < than principal remaining.IT: invalid tranche - must be uncalled capital trancheNA: not authorized. Must have correct UID or be go listed",
        "params": {
          "callAmount": "Amount of capital to call back",
          "poolTokenId": "Pool token id to be called back."
        },
        "returns": {
          "callRequestedTokenId": " Token id of the call requested token.",
          "remainingTokenId": "Token id of the remaining token."
        }
      },
      "supportsInterface(bytes4)": {
        "details": "See {IERC165-supportsInterface}."
      },
      "unpause()": {
        "details": "Unpauses the contract See {Pausable-_unpause}. Requirements: - the caller must have the Pauser role"
      },
      "withdraw(uint256,uint256)": {
        "params": {
          "amount": "amount to withdraw (must be <= interest+principal available to withdraw)",
          "tokenId": "the NFT representing the position"
        },
        "returns": {
          "_0": "interest withdrawn",
          "_1": "principal withdrawn"
        }
      },
      "withdrawMultiple(uint256[],uint256[])": {
        "details": "LEN: argument length mismatch",
        "params": {
          "amounts": "amounts to withdraw from positions such that amounts[i] is withdrawn from position tokenIds[i]",
          "tokenIds": "NFT positions to withdraw. Caller must be an owner or approved on all tokens in the array"
        }
      }
    },
    "title": "CallableLoan",
    "version": 1
  },
  "userdoc": {
    "events": {
      "PaymentApplied(address,address,uint256,uint256,uint256,uint256)": {
        "notice": "Event emitted on payment"
      }
    },
    "kind": "user",
    "methods": {
      "availableToWithdraw(uint256)": {
        "notice": "Query the max amount available to withdraw for tokenId's position"
      },
      "createdAt()": {
        "notice": "Time when the pool was initialized. Zero if uninitialized"
      },
      "creditLine()": {
        "notice": "Pool's credit line, responsible for managing the loan's accounting variables"
      },
      "deposit(uint256)": {
        "notice": "Supply capital to the loan."
      },
      "depositWithPermit(uint256,uint256,uint8,bytes32,bytes32)": {
        "notice": "Supply capital to the loan."
      },
      "drawdown(uint256)": {
        "notice": "Drawdown the loan. The credit line's balance should increase by the amount drawn down.   Junior capital must be locked before this function can be called. If senior capital isn't locked   then this function will lock it for you (convenience to avoid calling lockPool() separately).   This function should revert if the amount requested exceeds the the current slice's currentLimit   This function should revert if the caller is not the borrower."
      },
      "getAmountsOwed(uint256)": {
        "notice": "Compute interest and principal owed on the current balance at a future timestamp"
      },
      "getVersion()": {
        "notice": "Returns the version triplet `[major, minor, patch]`"
      },
      "initialize(address,address,address,uint256,uint256,address,uint256)": {
        "notice": "Unsupported - only included for compatibility with ICreditLine."
      },
      "initialize(address,address,uint256,uint256,uint256,address,uint256,uint256,uint256[])": {
        "notice": "Initialize the pool. Can only be called once, and should be called in the same transaction as   contract creation to avoid initialization front-running"
      },
      "interestAccrued()": {
        "notice": "Interest accrued in the current payment period up to now. Converted to   owed interest once we cross into the next payment period. Is 0 if the   current time is after loan maturity (all interest accrued immediately becomes   interest owed)."
      },
      "interestAccruedAsOf()": {
        "notice": "We keep this to conform to the ICreditLine interface, but it's redundant information   now that we have `checkpointedAsOf`"
      },
      "interestAccruedAt(uint256)": {
        "notice": "Interest accrued in the current payment period for `timestamp`. Coverted to   owed interest once we cross into the payment period after `timestamp`. Is 0   if `timestamp` is after loan maturity (all interest accrued immediately becomes   interest owed)."
      },
      "interestOwedAt(uint256)": {
        "notice": "Interest that would be owed at `timestamp`"
      },
      "maxLimit()": {
        "notice": "Unsupported in callable loans."
      },
      "pauseDrawdowns()": {
        "notice": "Pauses all drawdowns (but not deposits/withdraws)"
      },
      "pay(uint256)": {
        "notice": "Pay down interest + principal. Excess payments are refunded to the caller"
      },
      "pay(uint256,uint256)": {
        "notice": "Unsupported in callable loans."
      },
      "principalOwedAt(uint256)": {
        "notice": "Principal owed up to `timestamp`"
      },
      "setAllowedUIDTypes(uint256[])": {
        "notice": "Set accepted UID types for the loan. Requires that users have not already begun to deposit."
      },
      "setFundableAt(uint256)": {
        "notice": "Update `fundableAt` to a new timestamp. Only the borrower can call this."
      },
      "setLimit(uint256)": {
        "notice": "Unsupported ICreditLine method kept for ICreditLine conformance"
      },
      "setMaxLimit(uint256)": {
        "notice": "Unsupported in callable loans."
      },
      "submitCall(uint256,uint256)": {
        "notice": "Submit a call request for a given amount of capital. The borrower is obligated         to pay back the call requested amount in the active call payment period."
      },
      "termStartTime()": {
        "notice": "Time of first drawdown"
      },
      "totalInterestAccrued()": {
        "notice": "Cumulative interest accrued up to now"
      },
      "totalInterestAccruedAt(uint256)": {
        "notice": "Cumulative interest accrued up to `timestamp`"
      },
      "totalInterestOwed()": {
        "notice": "Cumulative interest owed up to now"
      },
      "totalInterestOwedAt(uint256)": {
        "notice": "Cumulative interest owed up to `timestamp`"
      },
      "totalInterestPaid()": {
        "notice": "Cumulative interest paid back up to now"
      },
      "totalPrincipalOwed()": {
        "notice": "Cumulative principal owed at current timestamp"
      },
      "totalPrincipalOwedAt(uint256)": {
        "notice": "Cumulative principal owed at timestamp"
      },
      "totalPrincipalPaid()": {
        "notice": "Returns the total amount of principal thats been paid"
      },
      "unpauseDrawdowns()": {
        "notice": "Unpause drawdowns"
      },
      "withdraw(uint256,uint256)": {
        "notice": "Withdraw an already deposited amount if the funds are available. Caller must be the owner or   approved by the owner on tokenId. Amount withdrawn is sent to the caller."
      },
      "withdrawMax(uint256)": {
        "notice": "Similar to withdraw but withdraw the max interest and principal available for `tokenId`"
      },
      "withdrawMultiple(uint256[],uint256[])": {
        "notice": "Withdraw from multiple tokens"
      }
    },
    "notice": "A loan that allows the lenders to call back capital from the borrower.",
    "version": 1
  },
  "storageLayout": {
    "storage": [
      {
        "astId": 425,
        "contract": "contracts/protocol/core/callable/CallableLoan.sol:CallableLoan",
        "label": "_initialized",
        "offset": 0,
        "slot": "0",
        "type": "t_bool"
      },
      {
        "astId": 428,
        "contract": "contracts/protocol/core/callable/CallableLoan.sol:CallableLoan",
        "label": "_initializing",
        "offset": 1,
        "slot": "0",
        "type": "t_bool"
      },
      {
        "astId": 1436,
        "contract": "contracts/protocol/core/callable/CallableLoan.sol:CallableLoan",
        "label": "__gap",
        "offset": 0,
        "slot": "1",
        "type": "t_array(t_uint256)50_storage"
      },
      {
        "astId": 1685,
        "contract": "contracts/protocol/core/callable/CallableLoan.sol:CallableLoan",
        "label": "__gap",
        "offset": 0,
        "slot": "51",
        "type": "t_array(t_uint256)50_storage"
      },
      {
        "astId": 48,
        "contract": "contracts/protocol/core/callable/CallableLoan.sol:CallableLoan",
        "label": "_roles",
        "offset": 0,
        "slot": "101",
        "type": "t_mapping(t_bytes32,t_struct(RoleData)43_storage)"
      },
      {
        "astId": 333,
        "contract": "contracts/protocol/core/callable/CallableLoan.sol:CallableLoan",
        "label": "__gap",
        "offset": 0,
        "slot": "102",
        "type": "t_array(t_uint256)49_storage"
      },
      {
        "astId": 486,
        "contract": "contracts/protocol/core/callable/CallableLoan.sol:CallableLoan",
        "label": "_paused",
        "offset": 0,
        "slot": "151",
        "type": "t_bool"
      },
      {
        "astId": 577,
        "contract": "contracts/protocol/core/callable/CallableLoan.sol:CallableLoan",
        "label": "__gap",
        "offset": 0,
        "slot": "152",
        "type": "t_array(t_uint256)49_storage"
      },
      {
        "astId": 592,
        "contract": "contracts/protocol/core/callable/CallableLoan.sol:CallableLoan",
        "label": "_status",
        "offset": 0,
        "slot": "201",
        "type": "t_uint256"
      },
      {
        "astId": 635,
        "contract": "contracts/protocol/core/callable/CallableLoan.sol:CallableLoan",
        "label": "__gap",
        "offset": 0,
        "slot": "202",
        "type": "t_array(t_uint256)49_storage"
      },
      {
        "astId": 6074,
        "contract": "contracts/protocol/core/callable/CallableLoan.sol:CallableLoan",
        "label": "__gap1",
        "offset": 0,
        "slot": "251",
        "type": "t_array(t_uint256)50_storage"
      },
      {
        "astId": 6078,
        "contract": "contracts/protocol/core/callable/CallableLoan.sol:CallableLoan",
        "label": "__gap2",
        "offset": 0,
        "slot": "301",
        "type": "t_array(t_uint256)50_storage"
      },
      {
        "astId": 6082,
        "contract": "contracts/protocol/core/callable/CallableLoan.sol:CallableLoan",
        "label": "__gap3",
        "offset": 0,
        "slot": "351",
        "type": "t_array(t_uint256)50_storage"
      },
      {
        "astId": 6086,
        "contract": "contracts/protocol/core/callable/CallableLoan.sol:CallableLoan",
        "label": "__gap4",
        "offset": 0,
        "slot": "401",
        "type": "t_array(t_uint256)50_storage"
      },
      {
        "astId": 6620,
        "contract": "contracts/protocol/core/callable/CallableLoan.sol:CallableLoan",
        "label": "_staleCreditLine",
        "offset": 0,
        "slot": "451",
        "type": "t_struct(StaleCallableCreditLine)11144_storage"
      },
      {
        "astId": 6622,
        "contract": "contracts/protocol/core/callable/CallableLoan.sol:CallableLoan",
        "label": "fundableAt",
        "offset": 0,
        "slot": "562",
        "type": "t_uint256"
      },
      {
        "astId": 6624,
        "contract": "contracts/protocol/core/callable/CallableLoan.sol:CallableLoan",
        "label": "drawdownsPaused",
        "offset": 0,
        "slot": "563",
        "type": "t_bool"
      },
      {
        "astId": 6627,
        "contract": "contracts/protocol/core/callable/CallableLoan.sol:CallableLoan",
        "label": "allowedUIDTypes",
        "offset": 0,
        "slot": "564",
        "type": "t_array(t_uint256)dyn_storage"
      },
      {
        "astId": 6630,
        "contract": "contracts/protocol/core/callable/CallableLoan.sol:CallableLoan",
        "label": "config",
        "offset": 0,
        "slot": "565",
        "type": "t_contract(IGoldfinchConfig)3942"
      },
      {
        "astId": 6633,
        "contract": "contracts/protocol/core/callable/CallableLoan.sol:CallableLoan",
        "label": "createdAt",
        "offset": 0,
        "slot": "566",
        "type": "t_uint256"
      },
      {
        "astId": 6636,
        "contract": "contracts/protocol/core/callable/CallableLoan.sol:CallableLoan",
        "label": "borrower",
        "offset": 0,
        "slot": "567",
        "type": "t_address"
      }
    ],
    "types": {
      "t_address": {
        "encoding": "inplace",
        "label": "address",
        "numberOfBytes": "20"
      },
      "t_array(t_struct(Tranche)11782_storage)dyn_storage": {
        "base": "t_struct(Tranche)11782_storage",
        "encoding": "dynamic_array",
        "label": "struct Tranche[]",
        "numberOfBytes": "32"
      },
      "t_array(t_uint256)49_storage": {
        "base": "t_uint256",
        "encoding": "inplace",
        "label": "uint256[49]",
        "numberOfBytes": "1568"
      },
      "t_array(t_uint256)50_storage": {
        "base": "t_uint256",
        "encoding": "inplace",
        "label": "uint256[50]",
        "numberOfBytes": "1600"
      },
      "t_array(t_uint256)dyn_storage": {
        "base": "t_uint256",
        "encoding": "dynamic_array",
        "label": "uint256[]",
        "numberOfBytes": "32"
      },
      "t_bool": {
        "encoding": "inplace",
        "label": "bool",
        "numberOfBytes": "1"
      },
      "t_bytes32": {
        "encoding": "inplace",
        "label": "bytes32",
        "numberOfBytes": "32"
      },
      "t_contract(IGoldfinchConfig)3942": {
        "encoding": "inplace",
        "label": "contract IGoldfinchConfig",
        "numberOfBytes": "20"
      },
      "t_contract(ISchedule)4968": {
        "encoding": "inplace",
        "label": "contract ISchedule",
        "numberOfBytes": "20"
      },
      "t_mapping(t_address,t_bool)": {
        "encoding": "mapping",
        "key": "t_address",
        "label": "mapping(address => bool)",
        "numberOfBytes": "32",
        "value": "t_bool"
      },
      "t_mapping(t_bytes32,t_struct(RoleData)43_storage)": {
        "encoding": "mapping",
        "key": "t_bytes32",
        "label": "mapping(bytes32 => struct AccessControlUpgradeable.RoleData)",
        "numberOfBytes": "32",
        "value": "t_struct(RoleData)43_storage"
      },
      "t_struct(CallableCreditLine)9355_storage": {
        "encoding": "inplace",
        "label": "struct CallableCreditLine",
        "members": [
          {
            "astId": 9328,
            "contract": "contracts/protocol/core/callable/CallableLoan.sol:CallableLoan",
            "label": "_config",
            "offset": 0,
            "slot": "0",
            "type": "t_contract(IGoldfinchConfig)3942"
          },
          {
            "astId": 9330,
            "contract": "contracts/protocol/core/callable/CallableLoan.sol:CallableLoan",
            "label": "_limit",
            "offset": 0,
            "slot": "1",
            "type": "t_uint256"
          },
          {
            "astId": 9332,
            "contract": "contracts/protocol/core/callable/CallableLoan.sol:CallableLoan",
            "label": "_interestApr",
            "offset": 0,
            "slot": "2",
            "type": "t_uint256"
          },
          {
            "astId": 9334,
            "contract": "contracts/protocol/core/callable/CallableLoan.sol:CallableLoan",
            "label": "_lateAdditionalApr",
            "offset": 0,
            "slot": "3",
            "type": "t_uint256"
          },
          {
            "astId": 9336,
            "contract": "contracts/protocol/core/callable/CallableLoan.sol:CallableLoan",
            "label": "_numLockupPeriods",
            "offset": 0,
            "slot": "4",
            "type": "t_uint256"
          },
          {
            "astId": 9338,
            "contract": "contracts/protocol/core/callable/CallableLoan.sol:CallableLoan",
            "label": "_checkpointedAsOf",
            "offset": 0,
            "slot": "5",
            "type": "t_uint256"
          },
          {
            "astId": 9340,
            "contract": "contracts/protocol/core/callable/CallableLoan.sol:CallableLoan",
            "label": "_lastFullPaymentTime",
            "offset": 0,
            "slot": "6",
            "type": "t_uint256"
          },
          {
            "astId": 9342,
            "contract": "contracts/protocol/core/callable/CallableLoan.sol:CallableLoan",
            "label": "_totalInterestOwedAtLastCheckpoint",
            "offset": 0,
            "slot": "7",
            "type": "t_uint256"
          },
          {
            "astId": 9344,
            "contract": "contracts/protocol/core/callable/CallableLoan.sol:CallableLoan",
            "label": "_totalInterestAccruedAtLastCheckpoint",
            "offset": 0,
            "slot": "8",
            "type": "t_uint256"
          },
          {
            "astId": 9347,
            "contract": "contracts/protocol/core/callable/CallableLoan.sol:CallableLoan",
            "label": "_waterfall",
            "offset": 0,
            "slot": "9",
            "type": "t_struct(Waterfall)12388_storage"
          },
          {
            "astId": 9350,
            "contract": "contracts/protocol/core/callable/CallableLoan.sol:CallableLoan",
            "label": "_paymentSchedule",
            "offset": 0,
            "slot": "60",
            "type": "t_struct(PaymentSchedule)15798_storage"
          },
          {
            "astId": 9354,
            "contract": "contracts/protocol/core/callable/CallableLoan.sol:CallableLoan",
            "label": "__padding",
            "offset": 0,
            "slot": "61",
            "type": "t_array(t_uint256)50_storage"
          }
        ],
        "numberOfBytes": "3552"
      },
      "t_struct(PaymentSchedule)15798_storage": {
        "encoding": "inplace",
        "label": "struct PaymentSchedule",
        "members": [
          {
            "astId": 15795,
            "contract": "contracts/protocol/core/callable/CallableLoan.sol:CallableLoan",
            "label": "schedule",
            "offset": 0,
            "slot": "0",
            "type": "t_contract(ISchedule)4968"
          },
          {
            "astId": 15797,
            "contract": "contracts/protocol/core/callable/CallableLoan.sol:CallableLoan",
            "label": "startTime",
            "offset": 20,
            "slot": "0",
            "type": "t_uint64"
          }
        ],
        "numberOfBytes": "32"
      },
      "t_struct(RoleData)43_storage": {
        "encoding": "inplace",
        "label": "struct AccessControlUpgradeable.RoleData",
        "members": [
          {
            "astId": 40,
            "contract": "contracts/protocol/core/callable/CallableLoan.sol:CallableLoan",
            "label": "members",
            "offset": 0,
            "slot": "0",
            "type": "t_mapping(t_address,t_bool)"
          },
          {
            "astId": 42,
            "contract": "contracts/protocol/core/callable/CallableLoan.sol:CallableLoan",
            "label": "adminRole",
            "offset": 0,
            "slot": "1",
            "type": "t_bytes32"
          }
        ],
        "numberOfBytes": "64"
      },
      "t_struct(StaleCallableCreditLine)11144_storage": {
        "encoding": "inplace",
        "label": "struct StaleCallableCreditLine",
        "members": [
          {
            "astId": 11143,
            "contract": "contracts/protocol/core/callable/CallableLoan.sol:CallableLoan",
            "label": "_cl",
            "offset": 0,
            "slot": "0",
            "type": "t_struct(CallableCreditLine)9355_storage"
          }
        ],
        "numberOfBytes": "3552"
      },
      "t_struct(Tranche)11782_storage": {
        "encoding": "inplace",
        "label": "struct Tranche",
        "members": [
          {
            "astId": 11771,
            "contract": "contracts/protocol/core/callable/CallableLoan.sol:CallableLoan",
            "label": "_principalDeposited",
            "offset": 0,
            "slot": "0",
            "type": "t_uint256"
          },
          {
            "astId": 11773,
            "contract": "contracts/protocol/core/callable/CallableLoan.sol:CallableLoan",
            "label": "_principalPaid",
            "offset": 0,
            "slot": "1",
            "type": "t_uint256"
          },
          {
            "astId": 11775,
            "contract": "contracts/protocol/core/callable/CallableLoan.sol:CallableLoan",
            "label": "_principalReserved",
            "offset": 0,
            "slot": "2",
            "type": "t_uint256"
          },
          {
            "astId": 11777,
            "contract": "contracts/protocol/core/callable/CallableLoan.sol:CallableLoan",
            "label": "_interestPaid",
            "offset": 0,
            "slot": "3",
            "type": "t_uint256"
          },
          {
            "astId": 11781,
            "contract": "contracts/protocol/core/callable/CallableLoan.sol:CallableLoan",
            "label": "__padding",
            "offset": 0,
            "slot": "4",
            "type": "t_array(t_uint256)50_storage"
          }
        ],
        "numberOfBytes": "1728"
      },
      "t_struct(Waterfall)12388_storage": {
        "encoding": "inplace",
        "label": "struct Waterfall",
        "members": [
          {
            "astId": 12383,
            "contract": "contracts/protocol/core/callable/CallableLoan.sol:CallableLoan",
            "label": "_tranches",
            "offset": 0,
            "slot": "0",
            "type": "t_array(t_struct(Tranche)11782_storage)dyn_storage"
          },
          {
            "astId": 12387,
            "contract": "contracts/protocol/core/callable/CallableLoan.sol:CallableLoan",
            "label": "__padding",
            "offset": 0,
            "slot": "1",
            "type": "t_array(t_uint256)50_storage"
          }
        ],
        "numberOfBytes": "1632"
      },
      "t_uint256": {
        "encoding": "inplace",
        "label": "uint256",
        "numberOfBytes": "32"
      },
      "t_uint64": {
        "encoding": "inplace",
        "label": "uint64",
        "numberOfBytes": "8"
      }
    }
  }
}