{
  "address": "0x712516e61C8B383dF4A63CFe83d7701Bce54B03e",
  "abi": [
    {
      "inputs": [
        {
          "internalType": "uint256",
          "name": "initialSupply",
          "type": "uint256"
        },
        {
          "internalType": "uint8",
          "name": "decimals",
          "type": "uint8"
        },
        {
          "internalType": "contract GoldfinchConfig",
          "name": "_config",
          "type": "address"
        }
      ],
      "stateMutability": "nonpayable",
      "type": "constructor"
    },
    {
      "anonymous": false,
      "inputs": [
        {
          "indexed": true,
          "internalType": "address",
          "name": "owner",
          "type": "address"
        },
        {
          "indexed": true,
          "internalType": "address",
          "name": "spender",
          "type": "address"
        },
        {
          "indexed": false,
          "internalType": "uint256",
          "name": "value",
          "type": "uint256"
        }
      ],
      "name": "Approval",
      "type": "event"
    },
    {
      "anonymous": false,
      "inputs": [
        {
          "indexed": true,
          "internalType": "address",
          "name": "from",
          "type": "address"
        },
        {
          "indexed": true,
          "internalType": "address",
          "name": "to",
          "type": "address"
        },
        {
          "indexed": false,
          "internalType": "uint256",
          "name": "value",
          "type": "uint256"
        }
      ],
      "name": "Transfer",
      "type": "event"
    },
    {
      "inputs": [],
      "name": "DOMAIN_SEPARATOR",
      "outputs": [
        {
          "internalType": "bytes32",
          "name": "",
          "type": "bytes32"
        }
      ],
      "stateMutability": "view",
      "type": "function"
    },
    {
      "inputs": [
        {
          "internalType": "uint256",
          "name": "index",
          "type": "uint256"
        },
        {
          "internalType": "uint256",
          "name": "balance",
          "type": "uint256"
        }
      ],
      "name": "_setBalance",
      "outputs": [],
      "stateMutability": "nonpayable",
      "type": "function"
    },
    {
      "inputs": [
        {
          "internalType": "uint256",
          "name": "newSlippage",
          "type": "uint256"
        }
      ],
      "name": "_setSlippage",
      "outputs": [],
      "stateMutability": "nonpayable",
      "type": "function"
    },
    {
      "inputs": [
        {
          "internalType": "uint256",
          "name": "newTotalSupply",
          "type": "uint256"
        }
      ],
      "name": "_setTotalSupply",
      "outputs": [],
      "stateMutability": "nonpayable",
      "type": "function"
    },
    {
      "inputs": [
        {
          "internalType": "uint256[2]",
          "name": "amounts",
          "type": "uint256[2]"
        },
        {
          "internalType": "uint256",
          "name": "min_mint_amount",
          "type": "uint256"
        },
        {
          "internalType": "bool",
          "name": "use_eth",
          "type": "bool"
        },
        {
          "internalType": "address",
          "name": "receiver",
          "type": "address"
        }
      ],
      "name": "add_liquidity",
      "outputs": [
        {
          "internalType": "uint256",
          "name": "",
          "type": "uint256"
        }
      ],
      "stateMutability": "nonpayable",
      "type": "function"
    },
    {
      "inputs": [
        {
          "internalType": "address",
          "name": "owner",
          "type": "address"
        },
        {
          "internalType": "address",
          "name": "spender",
          "type": "address"
        }
      ],
      "name": "allowance",
      "outputs": [
        {
          "internalType": "uint256",
          "name": "",
          "type": "uint256"
        }
      ],
      "stateMutability": "view",
      "type": "function"
    },
    {
      "inputs": [
        {
          "internalType": "address",
          "name": "spender",
          "type": "address"
        },
        {
          "internalType": "uint256",
          "name": "amount",
          "type": "uint256"
        }
      ],
      "name": "approve",
      "outputs": [
        {
          "internalType": "bool",
          "name": "",
          "type": "bool"
        }
      ],
      "stateMutability": "nonpayable",
      "type": "function"
    },
    {
      "inputs": [
        {
          "internalType": "address",
          "name": "account",
          "type": "address"
        }
      ],
      "name": "balanceOf",
      "outputs": [
        {
          "internalType": "uint256",
          "name": "",
          "type": "uint256"
        }
      ],
      "stateMutability": "view",
      "type": "function"
    },
    {
      "inputs": [
        {
          "internalType": "uint256",
          "name": "index",
          "type": "uint256"
        }
      ],
      "name": "balances",
      "outputs": [
        {
          "internalType": "uint256",
          "name": "",
          "type": "uint256"
        }
      ],
      "stateMutability": "view",
      "type": "function"
    },
    {
      "inputs": [
        {
          "internalType": "uint256[2]",
          "name": "amounts",
          "type": "uint256[2]"
        }
      ],
      "name": "calc_token_amount",
      "outputs": [
        {
          "internalType": "uint256",
          "name": "",
          "type": "uint256"
        }
      ],
      "stateMutability": "view",
      "type": "function"
    },
    {
      "inputs": [
        {
          "internalType": "uint256",
          "name": "index",
          "type": "uint256"
        }
      ],
      "name": "coins",
      "outputs": [
        {
          "internalType": "address",
          "name": "",
          "type": "address"
        }
      ],
      "stateMutability": "view",
      "type": "function"
    },
    {
      "inputs": [],
      "name": "config",
      "outputs": [
        {
          "internalType": "contract GoldfinchConfig",
          "name": "",
          "type": "address"
        }
      ],
      "stateMutability": "view",
      "type": "function"
    },
    {
      "inputs": [],
      "name": "decimals",
      "outputs": [
        {
          "internalType": "uint8",
          "name": "",
          "type": "uint8"
        }
      ],
      "stateMutability": "view",
      "type": "function"
    },
    {
      "inputs": [
        {
          "internalType": "address",
          "name": "spender",
          "type": "address"
        },
        {
          "internalType": "uint256",
          "name": "subtractedValue",
          "type": "uint256"
        }
      ],
      "name": "decreaseAllowance",
      "outputs": [
        {
          "internalType": "bool",
          "name": "",
          "type": "bool"
        }
      ],
      "stateMutability": "nonpayable",
      "type": "function"
    },
    {
      "inputs": [
        {
          "internalType": "uint256",
          "name": "i",
          "type": "uint256"
        },
        {
          "internalType": "uint256",
          "name": "j",
          "type": "uint256"
        },
        {
          "internalType": "uint256",
          "name": "dx",
          "type": "uint256"
        },
        {
          "internalType": "uint256",
          "name": "min_dy",
          "type": "uint256"
        }
      ],
      "name": "exchange",
      "outputs": [
        {
          "internalType": "uint256",
          "name": "",
          "type": "uint256"
        }
      ],
      "stateMutability": "nonpayable",
      "type": "function"
    },
    {
      "inputs": [
        {
          "internalType": "uint256",
          "name": "i",
          "type": "uint256"
        },
        {
          "internalType": "uint256",
          "name": "j",
          "type": "uint256"
        },
        {
          "internalType": "uint256",
          "name": "dx",
          "type": "uint256"
        }
      ],
      "name": "get_dy",
      "outputs": [
        {
          "internalType": "uint256",
          "name": "",
          "type": "uint256"
        }
      ],
      "stateMutability": "view",
      "type": "function"
    },
    {
      "inputs": [
        {
          "internalType": "address",
          "name": "spender",
          "type": "address"
        },
        {
          "internalType": "uint256",
          "name": "addedValue",
          "type": "uint256"
        }
      ],
      "name": "increaseAllowance",
      "outputs": [
        {
          "internalType": "bool",
          "name": "",
          "type": "bool"
        }
      ],
      "stateMutability": "nonpayable",
      "type": "function"
    },
    {
      "inputs": [],
      "name": "lp_price",
      "outputs": [
        {
          "internalType": "uint256",
          "name": "",
          "type": "uint256"
        }
      ],
      "stateMutability": "view",
      "type": "function"
    },
    {
      "inputs": [],
      "name": "name",
      "outputs": [
        {
          "internalType": "string",
          "name": "",
          "type": "string"
        }
      ],
      "stateMutability": "view",
      "type": "function"
    },
    {
      "inputs": [
        {
          "internalType": "address",
          "name": "owner",
          "type": "address"
        }
      ],
      "name": "nonces",
      "outputs": [
        {
          "internalType": "uint256",
          "name": "",
          "type": "uint256"
        }
      ],
      "stateMutability": "view",
      "type": "function"
    },
    {
      "inputs": [
        {
          "internalType": "address",
          "name": "owner",
          "type": "address"
        },
        {
          "internalType": "address",
          "name": "spender",
          "type": "address"
        },
        {
          "internalType": "uint256",
          "name": "value",
          "type": "uint256"
        },
        {
          "internalType": "uint256",
          "name": "deadline",
          "type": "uint256"
        },
        {
          "internalType": "uint8",
          "name": "v",
          "type": "uint8"
        },
        {
          "internalType": "bytes32",
          "name": "r",
          "type": "bytes32"
        },
        {
          "internalType": "bytes32",
          "name": "s",
          "type": "bytes32"
        }
      ],
      "name": "permit",
      "outputs": [],
      "stateMutability": "nonpayable",
      "type": "function"
    },
    {
      "inputs": [
        {
          "internalType": "uint256",
          "name": "_amount",
          "type": "uint256"
        },
        {
          "internalType": "uint256[2]",
          "name": "min_amounts",
          "type": "uint256[2]"
        }
      ],
      "name": "remove_liquidity",
      "outputs": [
        {
          "internalType": "uint256",
          "name": "",
          "type": "uint256"
        }
      ],
      "stateMutability": "nonpayable",
      "type": "function"
    },
    {
      "inputs": [
        {
          "internalType": "uint256",
          "name": "token_amount",
          "type": "uint256"
        },
        {
          "internalType": "uint256",
          "name": "i",
          "type": "uint256"
        },
        {
          "internalType": "uint256",
          "name": "min_amount",
          "type": "uint256"
        }
      ],
      "name": "remove_liquidity_one_coin",
      "outputs": [
        {
          "internalType": "uint256",
          "name": "",
          "type": "uint256"
        }
      ],
      "stateMutability": "nonpayable",
      "type": "function"
    },
    {
      "inputs": [],
      "name": "symbol",
      "outputs": [
        {
          "internalType": "string",
          "name": "",
          "type": "string"
        }
      ],
      "stateMutability": "view",
      "type": "function"
    },
    {
      "inputs": [],
      "name": "token",
      "outputs": [
        {
          "internalType": "address",
          "name": "",
          "type": "address"
        }
      ],
      "stateMutability": "view",
      "type": "function"
    },
    {
      "inputs": [],
      "name": "totalSupply",
      "outputs": [
        {
          "internalType": "uint256",
          "name": "",
          "type": "uint256"
        }
      ],
      "stateMutability": "view",
      "type": "function"
    },
    {
      "inputs": [
        {
          "internalType": "address",
          "name": "recipient",
          "type": "address"
        },
        {
          "internalType": "uint256",
          "name": "amount",
          "type": "uint256"
        }
      ],
      "name": "transfer",
      "outputs": [
        {
          "internalType": "bool",
          "name": "",
          "type": "bool"
        }
      ],
      "stateMutability": "nonpayable",
      "type": "function"
    },
    {
      "inputs": [
        {
          "internalType": "address",
          "name": "sender",
          "type": "address"
        },
        {
          "internalType": "address",
          "name": "recipient",
          "type": "address"
        },
        {
          "internalType": "uint256",
          "name": "amount",
          "type": "uint256"
        }
      ],
      "name": "transferFrom",
      "outputs": [
        {
          "internalType": "bool",
          "name": "",
          "type": "bool"
        }
      ],
      "stateMutability": "nonpayable",
      "type": "function"
    }
  ],
  "transactionHash": "0xcf7418d26c060430cb053308792d0fcf9b8d6eeae613921ab8148b1ee88f5ad9",
  "args": [
    "10000000000000000000000000000000",
    "18",
    "0x8464135c8F25Da09e49BC8782676a84730C318bC"
  ],
  "solcInputHash": "12fbe4ac3594b5b58d165dd6197ac713",
  "bytecode": "0x7f6e71edae12b1b97f4d1f60370fef10105fa2faae0126114a169c64845d6126c961012052670de0b6b3a7640000600881905561018060405261014081815261016091909152620000559060099060026200038e565b50670de0b6b3a7640000600b553480156200006f57600080fd5b5060405162001ea138038062001ea1833981016040819052620000929162000466565b604051806040016040528060128152602001714c5020464944552d5553444320437572766560701b81525080604051806040016040528060018152602001603160f81b815250604051806040016040528060128152602001714c5020464944552d5553444320437572766560701b8152506040518060400160405280600d81526020016c4649445555534443435552564560981b815250816003908051906020019062000141929190620003dc565b50805162000157906004906020840190620003dc565b50506005805460ff1916601217905550815160208084019190912082519183019190912060c082905260e08190527f8b73c3c69bb8fe3d512ecc4cf759cc79239f7b179b0ffacaa9a75d522b39400f620001b06200020f565b60a052620001c081848462000213565b6080526101005250620001da935085925050620002589050565b620001e633846200026e565b600780546001600160a01b0319166001600160a01b0392909216919091179055506200055e9050565b4690565b6000838383620002226200020f565b3060405160200162000239959493929190620004bb565b6040516020818303038152906040528051906020012090509392505050565b6005805460ff191660ff92909216919091179055565b6001600160a01b038216620002a05760405162461bcd60e51b815260040162000297906200051e565b60405180910390fd5b620002ae600083836200035a565b620002ca816002546200035f60201b62000a0b1790919060201c565b6002556001600160a01b03821660009081526020818152604090912054620002fd91839062000a0b6200035f821b17901c565b6001600160a01b0383166000818152602081905260408082209390935591519091907fddf252ad1be2c89b69c2b068fc378daa952ba7f163c4a11628f55a4df523b3ef906200034e90859062000555565b60405180910390a35050565b505050565b600082820183811015620003875760405162461bcd60e51b81526004016200029790620004e7565b9392505050565b8260028101928215620003ca579160200282015b82811115620003ca57825182906001600160401b0316905591602001919060010190620003a2565b50620003d89291506200044f565b5090565b828054600181600116156101000203166002900490600052602060002090601f016020900481019282601f106200041f57805160ff1916838001178555620003ca565b82800160010185558215620003ca579182015b82811115620003ca57825182559160200191906001019062000432565b5b80821115620003d8576000815560010162000450565b6000806000606084860312156200047b578283fd5b83519250602084015160ff8116811462000493578283fd5b60408501519092506001600160a01b0381168114620004b0578182fd5b809150509250925092565b9485526020850193909352604084019190915260608301526001600160a01b0316608082015260a00190565b6020808252601b908201527f536166654d6174683a206164646974696f6e206f766572666c6f770000000000604082015260600190565b6020808252601f908201527f45524332303a206d696e7420746f20746865207a65726f206164647265737300604082015260600190565b90815260200190565b60805160a05160c05160e05161010051610120516118f9620005a8600039806108f4525080610c8d525080610ccf525080610cae525080610c34525080610c6452506118f96000f3fe608060405234801561001057600080fd5b50600436106101845760003560e01c806370a08231116100d9578063a9059cbb11610087578063a9059cbb14610317578063c66106571461032a578063d505accf1461033d578063dcd283ea14610350578063dd62ed3e14610363578063f1dc3cc91461024f578063fc0c546a1461037657610184565b806370a082311461029b5780637328333b146102ae57806379502c55146102c15780637ecebe00146102d65780638d8ea727146102e957806395d89b41146102fc578063a457c2d71461030457610184565b8063395093511161013657806339509351146102215780634903b0d11461023457806354f0f7d514610247578063556d6e9f1461024f5780635b36389c146102625780635b41b908146102755780636e066ee21461028857610184565b8063017838eb1461018957806306fdde031461019e578063095ea7b3146101bc57806318160ddd146101dc57806323b872dd146101f1578063313ce567146102045780633644e51514610219575b600080fd5b61019c6101973660046112e0565b61037e565b005b6101a6610383565b6040516101b39190611486565b60405180910390f35b6101cf6101ca36600461122d565b61041a565b6040516101b391906113f4565b6101e4610438565b6040516101b391906113ff565b6101cf6101ff366004611178565b61043e565b61020c6104c5565b6040516101b3919061181c565b6101e46104ce565b6101cf61022f36600461122d565b6104dd565b6101e46102423660046112e0565b61052b565b6101e4610542565b6101e461025d366004611345565b610557565b6101e46102703660046112f8565b610560565b6101e4610283366004611370565b610568565b61019c610296366004611324565b610572565b6101e46102a9366004611108565b610586565b6101e46102bc366004611273565b6105a1565b6102c9610727565b6040516101b391906113bc565b6101e46102e4366004611108565b610736565b6101e46102f7366004611258565b610757565b6101a6610785565b6101cf61031236600461122d565b6107e6565b6101cf61032536600461122d565b61084e565b6102c96103383660046112e0565b610862565b61019c61034b3660046111b8565b6108ba565b61019c61035e3660046112e0565b6109d7565b6101e4610371366004611140565b6109dc565b6102c9610a07565b600b55565b60038054604080516020601f600260001961010060018816150201909516949094049384018190048102820181019092528281526060939092909183018282801561040f5780601f106103e45761010080835404028352916020019161040f565b820191906000526020600020905b8154815290600101906020018083116103f257829003601f168201915b505050505090505b90565b600061042e610427610a37565b8484610a3b565b5060015b92915050565b600b5490565b600061044b848484610aef565b6104bb84610457610a37565b6104b685604051806060016040528060288152602001611877602891396001600160a01b038a16600090815260016020526040812090610495610a37565b6001600160a01b031681526020810191909152604001600020549190610c04565b610a3b565b5060019392505050565b60055460ff1690565b60006104d8610c30565b905090565b600061042e6104ea610a37565b846104b685600160006104fb610a37565b6001600160a01b03908116825260208083019390935260409182016000908120918c168152925290205490610a0b565b60006009826002811061053a57fe5b015492915050565b60006104d8670de0b6b3a76400006002610cfa565b60009392505050565b600092915050565b6000949350505050565b806009836002811061058057fe5b01555050565b6001600160a01b031660009081526020819052604090205490565b60006105ab610d34565b85516040516323b872dd60e01b81526001600160a01b0392909216916323b872dd916105dd91339130916004016113d0565b602060405180830381600087803b1580156105f757600080fd5b505af115801561060b573d6000803e3d6000fd5b505050506040513d601f19601f8201168201806040525081019061062f91906112c4565b50610638610d4c565b60208601516040516323b872dd60e01b81526001600160a01b0392909216916323b872dd9161066d91339130916004016113d0565b602060405180830381600087803b15801561068757600080fd5b505af115801561069b573d6000803e3d6000fd5b505050506040513d601f19601f820116820180604052508101906106bf91906112c4565b5060006106e9670de0b6b3a76400006106e36008546106dd8a610757565b90610cfa565b90610d64565b9050848110156107145760405162461bcd60e51b815260040161070b90611640565b60405180910390fd5b61071e8382610d96565b95945050505050565b6007546001600160a01b031681565b6001600160a01b038116600090815260066020526040812061043290610e56565b600061043261077d620f42406106e3670de0b6b3a7640000866001602002015190610cfa565b835190610a0b565b60048054604080516020601f600260001961010060018816150201909516949094049384018190048102820181019092528281526060939092909183018282801561040f5780601f106103e45761010080835404028352916020019161040f565b600061042e6107f3610a37565b846104b68560405180606001604052806025815260200161189f602591396001600061081d610a37565b6001600160a01b03908116825260208083019390935260409182016000908120918d16815292529020549190610c04565b600061042e61085b610a37565b8484610aef565b600061086c611077565b604051806040016040528061087f610d34565b6001600160a01b03168152602001610895610d4c565b6001600160a01b0316905290508083600281106108ae57fe5b60200201519392505050565b834211156108da5760405162461bcd60e51b815260040161070b906115c7565b6001600160a01b03871660009081526006602052604081207f00000000000000000000000000000000000000000000000000000000000000009089908990899061092390610e56565b8960405160200161093996959493929190611408565b604051602081830303815290604052805190602001209050600061095c82610e5a565b9050600061096c82878787610e93565b9050896001600160a01b0316816001600160a01b03161461099f5760405162461bcd60e51b815260040161070b90611725565b6001600160a01b038a1660009081526006602052604090206109c090610f76565b6109cb8a8a8a610a3b565b50505050505050505050565b600855565b6001600160a01b03918216600090815260016020908152604080832093909416825291909152205490565b3090565b600082820183811015610a305760405162461bcd60e51b815260040161070b90611590565b9392505050565b3390565b6001600160a01b038316610a615760405162461bcd60e51b815260040161070b906117a1565b6001600160a01b038216610a875760405162461bcd60e51b815260040161070b9061154e565b6001600160a01b0380841660008181526001602090815260408083209487168084529490915290819020849055517f8c5be1e5ebec7d5bd14f71427d1e84f3dd0314c0f7b2291e5b200ac8c7c3b92590610ae29085906113ff565b60405180910390a3505050565b6001600160a01b038316610b155760405162461bcd60e51b815260040161070b9061175c565b6001600160a01b038216610b3b5760405162461bcd60e51b815260040161070b9061150b565b610b46838383610f7f565b610b8381604051806060016040528060268152602001611851602691396001600160a01b0386166000908152602081905260409020549190610c04565b6001600160a01b038085166000908152602081905260408082209390935590841681522054610bb29082610a0b565b6001600160a01b0380841660008181526020819052604090819020939093559151908516907fddf252ad1be2c89b69c2b068fc378daa952ba7f163c4a11628f55a4df523b3ef90610ae29085906113ff565b60008184841115610c285760405162461bcd60e51b815260040161070b9190611486565b505050900390565b60007f0000000000000000000000000000000000000000000000000000000000000000610c5b610f84565b1415610c8857507f0000000000000000000000000000000000000000000000000000000000000000610417565b610cf37f00000000000000000000000000000000000000000000000000000000000000007f00000000000000000000000000000000000000000000000000000000000000007f0000000000000000000000000000000000000000000000000000000000000000610f88565b9050610417565b600082610d0957506000610432565b82820282848281610d1657fe5b0414610a305760405162461bcd60e51b815260040161070b906116e4565b6007546000906104d8906001600160a01b0316610fc9565b6007546000906104d8906001600160a01b0316610fd4565b6000808211610d855760405162461bcd60e51b815260040161070b9061166b565b818381610d8e57fe5b049392505050565b6001600160a01b038216610dbc5760405162461bcd60e51b815260040161070b906117e5565b610dc860008383610f7f565b600254610dd59082610a0b565b6002556001600160a01b038216600090815260208190526040902054610dfb9082610a0b565b6001600160a01b0383166000818152602081905260408082209390935591519091907fddf252ad1be2c89b69c2b068fc378daa952ba7f163c4a11628f55a4df523b3ef90610e4a9085906113ff565b60405180910390a35050565b5490565b6000610e64610c30565b82604051602001610e769291906113a1565b604051602081830303815290604052805190602001209050919050565b60006fa2a8918ca85bafe22016d0b997e4df60600160ff1b03821115610ecb5760405162461bcd60e51b815260040161070b906115fe565b8360ff16601b1480610ee057508360ff16601c145b610efc5760405162461bcd60e51b815260040161070b906116a2565b600060018686868660405160008152602001604052604051610f219493929190611468565b6020604051602081039080840390855afa158015610f43573d6000803e3d6000fd5b5050604051601f1901519150506001600160a01b03811661071e5760405162461bcd60e51b815260040161070b906114d9565b80546001019055565b505050565b4690565b6000838383610f95610f84565b30604051602001610faa95949392919061143c565b6040516020818303038152906040528051906020012090509392505050565b600061043282610fdf565b60006104328261105f565b60006001600160a01b03821663b93f9b0a60045b6040518263ffffffff1660e01b815260040161100f91906113ff565b60206040518083038186803b15801561102757600080fd5b505afa15801561103b573d6000803e3d6000fd5b505050506040513d601f19601f820116820180604052508101906104329190611124565b60006001600160a01b03821663b93f9b0a6005610ff3565b60405180604001604052806002906020820280368337509192915050565b600082601f8301126110a5578081fd5b6040516040810181811067ffffffffffffffff821117156110c4578283fd5b806040525080915082846040850111156110dd57600080fd5b60005b60028110156110ff5781358352602092830192909101906001016110e0565b50505092915050565b600060208284031215611119578081fd5b8135610a308161182a565b600060208284031215611135578081fd5b8151610a308161182a565b60008060408385031215611152578081fd5b823561115d8161182a565b9150602083013561116d8161182a565b809150509250929050565b60008060006060848603121561118c578081fd5b83356111978161182a565b925060208401356111a78161182a565b929592945050506040919091013590565b600080600080600080600060e0888a0312156111d2578283fd5b87356111dd8161182a565b965060208801356111ed8161182a565b95506040880135945060608801359350608088013560ff81168114611210578384fd5b9699959850939692959460a0840135945060c09093013592915050565b6000806040838503121561123f578182fd5b823561124a8161182a565b946020939093013593505050565b600060408284031215611269578081fd5b610a308383611095565b60008060008060a08587031215611288578384fd5b6112928686611095565b93506040850135925060608501356112a981611842565b915060808501356112b98161182a565b939692955090935050565b6000602082840312156112d5578081fd5b8151610a3081611842565b6000602082840312156112f1578081fd5b5035919050565b6000806060838503121561130a578182fd5b8235915061131b8460208501611095565b90509250929050565b60008060408385031215611336578182fd5b50508035926020909101359150565b600080600060608486031215611359578283fd5b505081359360208301359350604090920135919050565b60008060008060808587031215611385578182fd5b5050823594602084013594506040840135936060013592509050565b61190160f01b81526002810192909252602282015260420190565b6001600160a01b0391909116815260200190565b6001600160a01b039384168152919092166020820152604081019190915260600190565b901515815260200190565b90815260200190565b9586526001600160a01b0394851660208701529290931660408501526060840152608083019190915260a082015260c00190565b9485526020850193909352604084019190915260608301526001600160a01b0316608082015260a00190565b93845260ff9290921660208401526040830152606082015260800190565b6000602080835283518082850152825b818110156114b257858101830151858201604001528201611496565b818111156114c35783604083870101525b50601f01601f1916929092016040019392505050565b60208082526018908201527745434453413a20696e76616c6964207369676e617475726560401b604082015260600190565b60208082526023908201527f45524332303a207472616e7366657220746f20746865207a65726f206164647260408201526265737360e81b606082015260800190565b60208082526022908201527f45524332303a20617070726f766520746f20746865207a65726f206164647265604082015261737360f01b606082015260800190565b6020808252601b908201527f536166654d6174683a206164646974696f6e206f766572666c6f770000000000604082015260600190565b6020808252601d908201527f45524332305065726d69743a206578706972656420646561646c696e65000000604082015260600190565b60208082526022908201527f45434453413a20696e76616c6964207369676e6174757265202773272076616c604082015261756560f01b606082015260800190565b6020808252601190820152700a6d8d2e0e0c2ceca40e8dede40d0d2ced607b1b604082015260600190565b6020808252601a908201527f536166654d6174683a206469766973696f6e206279207a65726f000000000000604082015260600190565b60208082526022908201527f45434453413a20696e76616c6964207369676e6174757265202776272076616c604082015261756560f01b606082015260800190565b60208082526021908201527f536166654d6174683a206d756c7469706c69636174696f6e206f766572666c6f6040820152607760f81b606082015260800190565b6020808252601e908201527f45524332305065726d69743a20696e76616c6964207369676e61747572650000604082015260600190565b60208082526025908201527f45524332303a207472616e736665722066726f6d20746865207a65726f206164604082015264647265737360d81b606082015260800190565b60208082526024908201527f45524332303a20617070726f76652066726f6d20746865207a65726f206164646040820152637265737360e01b606082015260800190565b6020808252601f908201527f45524332303a206d696e7420746f20746865207a65726f206164647265737300604082015260600190565b60ff91909116815260200190565b6001600160a01b038116811461183f57600080fd5b50565b801515811461183f57600080fdfe45524332303a207472616e7366657220616d6f756e7420657863656564732062616c616e636545524332303a207472616e7366657220616d6f756e74206578636565647320616c6c6f77616e636545524332303a2064656372656173656420616c6c6f77616e63652062656c6f77207a65726fa2646970667358221220f9b0a61d9f8baeaae4a4780b297d152ddc7e065467bb90289e467d458fcffc1064736f6c634300060c0033",
  "devdoc": {
    "kind": "dev",
    "methods": {
      "DOMAIN_SEPARATOR()": {
        "details": "See {IERC20Permit-DOMAIN_SEPARATOR}."
      },
      "allowance(address,address)": {
        "details": "See {IERC20-allowance}."
      },
      "approve(address,uint256)": {
        "details": "See {IERC20-approve}. Requirements: - `spender` cannot be the zero address."
      },
      "balanceOf(address)": {
        "details": "See {IERC20-balanceOf}."
      },
      "decimals()": {
        "details": "Returns the number of decimals used to get its user representation. For example, if `decimals` equals `2`, a balance of `505` tokens should be displayed to a user as `5,05` (`505 / 10 ** 2`). Tokens usually opt for a value of 18, imitating the relationship between Ether and Wei. This is the value {ERC20} uses, unless {_setupDecimals} is called. NOTE: This information is only used for _display_ purposes: it in no way affects any of the arithmetic of the contract, including {IERC20-balanceOf} and {IERC20-transfer}."
      },
      "decreaseAllowance(address,uint256)": {
        "details": "Atomically decreases the allowance granted to `spender` by the caller. This is an alternative to {approve} that can be used as a mitigation for problems described in {IERC20-approve}. Emits an {Approval} event indicating the updated allowance. Requirements: - `spender` cannot be the zero address. - `spender` must have allowance for the caller of at least `subtractedValue`."
      },
      "exchange(uint256,uint256,uint256,uint256)": {
        "details": "Left unimplemented because we're only using this in mainnet forking tests"
      },
      "get_dy(uint256,uint256,uint256)": {
        "details": "Left unimplemented because we're only using this in mainnet forking tests"
      },
      "increaseAllowance(address,uint256)": {
        "details": "Atomically increases the allowance granted to `spender` by the caller. This is an alternative to {approve} that can be used as a mitigation for problems described in {IERC20-approve}. Emits an {Approval} event indicating the updated allowance. Requirements: - `spender` cannot be the zero address."
      },
      "name()": {
        "details": "Returns the name of the token."
      },
      "nonces(address)": {
        "details": "See {IERC20Permit-nonces}."
      },
      "permit(address,address,uint256,uint256,uint8,bytes32,bytes32)": {
        "details": "See {IERC20Permit-permit}."
      },
      "remove_liquidity(uint256,uint256[2])": {
        "details": "Left unimplemented because we're only using this in mainnet forking tests"
      },
      "remove_liquidity_one_coin(uint256,uint256,uint256)": {
        "details": "Left unimplemented because we're only using this in mainnet forking tests"
      },
      "symbol()": {
        "details": "Returns the symbol of the token, usually a shorter version of the name."
      },
      "transfer(address,uint256)": {
        "details": "See {IERC20-transfer}. Requirements: - `recipient` cannot be the zero address. - the caller must have a balance of at least `amount`."
      },
      "transferFrom(address,address,uint256)": {
        "details": "See {IERC20-transferFrom}. Emits an {Approval} event indicating the updated allowance. This is not required by the EIP. See the note at the beginning of {ERC20}. Requirements: - `sender` and `recipient` cannot be the zero address. - `sender` must have a balance of at least `amount`. - the caller must have allowance for ``sender``'s tokens of at least `amount`."
      }
    },
    "version": 1
  },
  "userdoc": {
    "kind": "user",
    "methods": {
      "_setBalance(uint256,uint256)": {
        "notice": "Used to mock balances in unit tests"
      },
      "_setSlippage(uint256)": {
        "notice": "Used to mock slippage in unit tests"
      },
      "_setTotalSupply(uint256)": {
        "notice": "Used to mock the total supply in unit tests"
      },
      "add_liquidity(uint256[2],uint256,bool,address)": {
        "notice": "Mock add_liquidity function that mints Curve LP tokens"
      },
      "balances(uint256)": {
        "notice": "Used to return the mocked balances in unit tests"
      },
      "calc_token_amount(uint256[2])": {
        "notice": "Mock calc_token_amount function that returns the sum of both token amounts"
      },
      "exchange(uint256,uint256,uint256,uint256)": {
        "notice": "Mock exchange function"
      },
      "get_dy(uint256,uint256,uint256)": {
        "notice": "Mock get_dy function"
      },
      "remove_liquidity(uint256,uint256[2])": {
        "notice": "Mock remove_liquidity function"
      },
      "remove_liquidity_one_coin(uint256,uint256,uint256)": {
        "notice": "Mock remove_liquidity_one_coin function"
      },
      "totalSupply()": {
        "notice": "Used to return the mocked total supply in unit tests"
      }
    },
    "version": 1
  },
  "storageLayout": {
    "storage": [
      {
        "astId": 4659,
        "contract": "contracts/test/TestFiduUSDCCurveLP.sol:TestFiduUSDCCurveLP",
        "label": "_balances",
        "offset": 0,
        "slot": "0",
        "type": "t_mapping(t_address,t_uint256)"
      },
      {
        "astId": 4665,
        "contract": "contracts/test/TestFiduUSDCCurveLP.sol:TestFiduUSDCCurveLP",
        "label": "_allowances",
        "offset": 0,
        "slot": "1",
        "type": "t_mapping(t_address,t_mapping(t_address,t_uint256))"
      },
      {
        "astId": 4667,
        "contract": "contracts/test/TestFiduUSDCCurveLP.sol:TestFiduUSDCCurveLP",
        "label": "_totalSupply",
        "offset": 0,
        "slot": "2",
        "type": "t_uint256"
      },
      {
        "astId": 4669,
        "contract": "contracts/test/TestFiduUSDCCurveLP.sol:TestFiduUSDCCurveLP",
        "label": "_name",
        "offset": 0,
        "slot": "3",
        "type": "t_string_storage"
      },
      {
        "astId": 4671,
        "contract": "contracts/test/TestFiduUSDCCurveLP.sol:TestFiduUSDCCurveLP",
        "label": "_symbol",
        "offset": 0,
        "slot": "4",
        "type": "t_string_storage"
      },
      {
        "astId": 4673,
        "contract": "contracts/test/TestFiduUSDCCurveLP.sol:TestFiduUSDCCurveLP",
        "label": "_decimals",
        "offset": 0,
        "slot": "5",
        "type": "t_uint8"
      },
      {
        "astId": 4074,
        "contract": "contracts/test/TestFiduUSDCCurveLP.sol:TestFiduUSDCCurveLP",
        "label": "_nonces",
        "offset": 0,
        "slot": "6",
        "type": "t_mapping(t_address,t_struct(Counter)5648_storage)"
      },
      {
        "astId": 31750,
        "contract": "contracts/test/TestFiduUSDCCurveLP.sol:TestFiduUSDCCurveLP",
        "label": "config",
        "offset": 0,
        "slot": "7",
        "type": "t_contract(GoldfinchConfig)15934"
      },
      {
        "astId": 31753,
        "contract": "contracts/test/TestFiduUSDCCurveLP.sol:TestFiduUSDCCurveLP",
        "label": "slippage",
        "offset": 0,
        "slot": "8",
        "type": "t_uint256"
      },
      {
        "astId": 31760,
        "contract": "contracts/test/TestFiduUSDCCurveLP.sol:TestFiduUSDCCurveLP",
        "label": "_balances",
        "offset": 0,
        "slot": "9",
        "type": "t_array(t_uint256)2_storage"
      },
      {
        "astId": 31763,
        "contract": "contracts/test/TestFiduUSDCCurveLP.sol:TestFiduUSDCCurveLP",
        "label": "_totalSupply",
        "offset": 0,
        "slot": "11",
        "type": "t_uint256"
      }
    ],
    "types": {
      "t_address": {
        "encoding": "inplace",
        "label": "address",
        "numberOfBytes": "20"
      },
      "t_array(t_uint256)2_storage": {
        "base": "t_uint256",
        "encoding": "inplace",
        "label": "uint256[2]",
        "numberOfBytes": "64"
      },
      "t_contract(GoldfinchConfig)15934": {
        "encoding": "inplace",
        "label": "contract GoldfinchConfig",
        "numberOfBytes": "20"
      },
      "t_mapping(t_address,t_mapping(t_address,t_uint256))": {
        "encoding": "mapping",
        "key": "t_address",
        "label": "mapping(address => mapping(address => uint256))",
        "numberOfBytes": "32",
        "value": "t_mapping(t_address,t_uint256)"
      },
      "t_mapping(t_address,t_struct(Counter)5648_storage)": {
        "encoding": "mapping",
        "key": "t_address",
        "label": "mapping(address => struct Counters.Counter)",
        "numberOfBytes": "32",
        "value": "t_struct(Counter)5648_storage"
      },
      "t_mapping(t_address,t_uint256)": {
        "encoding": "mapping",
        "key": "t_address",
        "label": "mapping(address => uint256)",
        "numberOfBytes": "32",
        "value": "t_uint256"
      },
      "t_string_storage": {
        "encoding": "bytes",
        "label": "string",
        "numberOfBytes": "32"
      },
      "t_struct(Counter)5648_storage": {
        "encoding": "inplace",
        "label": "struct Counters.Counter",
        "members": [
          {
            "astId": 5647,
            "contract": "contracts/test/TestFiduUSDCCurveLP.sol:TestFiduUSDCCurveLP",
            "label": "_value",
            "offset": 0,
            "slot": "0",
            "type": "t_uint256"
          }
        ],
        "numberOfBytes": "32"
      },
      "t_uint256": {
        "encoding": "inplace",
        "label": "uint256",
        "numberOfBytes": "32"
      },
      "t_uint8": {
        "encoding": "inplace",
        "label": "uint8",
        "numberOfBytes": "1"
      }
    }
  }
}