{
  "address": "0x71C95911E9a5D330f4D621842EC243EE1343292e",
  "abi": [
    {
      "inputs": [
        {
          "internalType": "uint256",
          "name": "initialSupply",
          "type": "uint256"
        },
        {
          "internalType": "uint8",
          "name": "decimals",
          "type": "uint8"
        }
      ],
      "stateMutability": "nonpayable",
      "type": "constructor"
    },
    {
      "anonymous": false,
      "inputs": [
        {
          "indexed": true,
          "internalType": "address",
          "name": "owner",
          "type": "address"
        },
        {
          "indexed": true,
          "internalType": "address",
          "name": "spender",
          "type": "address"
        },
        {
          "indexed": false,
          "internalType": "uint256",
          "name": "value",
          "type": "uint256"
        }
      ],
      "name": "Approval",
      "type": "event"
    },
    {
      "anonymous": false,
      "inputs": [
        {
          "indexed": true,
          "internalType": "address",
          "name": "from",
          "type": "address"
        },
        {
          "indexed": true,
          "internalType": "address",
          "name": "to",
          "type": "address"
        },
        {
          "indexed": false,
          "internalType": "uint256",
          "name": "value",
          "type": "uint256"
        }
      ],
      "name": "Transfer",
      "type": "event"
    },
    {
      "inputs": [],
      "name": "DOMAIN_SEPARATOR",
      "outputs": [
        {
          "internalType": "bytes32",
          "name": "",
          "type": "bytes32"
        }
      ],
      "stateMutability": "view",
      "type": "function"
    },
    {
      "inputs": [
        {
          "internalType": "address",
          "name": "owner",
          "type": "address"
        },
        {
          "internalType": "address",
          "name": "spender",
          "type": "address"
        }
      ],
      "name": "allowance",
      "outputs": [
        {
          "internalType": "uint256",
          "name": "",
          "type": "uint256"
        }
      ],
      "stateMutability": "view",
      "type": "function"
    },
    {
      "inputs": [
        {
          "internalType": "address",
          "name": "spender",
          "type": "address"
        },
        {
          "internalType": "uint256",
          "name": "amount",
          "type": "uint256"
        }
      ],
      "name": "approve",
      "outputs": [
        {
          "internalType": "bool",
          "name": "",
          "type": "bool"
        }
      ],
      "stateMutability": "nonpayable",
      "type": "function"
    },
    {
      "inputs": [
        {
          "internalType": "address",
          "name": "account",
          "type": "address"
        }
      ],
      "name": "balanceOf",
      "outputs": [
        {
          "internalType": "uint256",
          "name": "",
          "type": "uint256"
        }
      ],
      "stateMutability": "view",
      "type": "function"
    },
    {
      "inputs": [],
      "name": "decimals",
      "outputs": [
        {
          "internalType": "uint8",
          "name": "",
          "type": "uint8"
        }
      ],
      "stateMutability": "view",
      "type": "function"
    },
    {
      "inputs": [
        {
          "internalType": "address",
          "name": "spender",
          "type": "address"
        },
        {
          "internalType": "uint256",
          "name": "subtractedValue",
          "type": "uint256"
        }
      ],
      "name": "decreaseAllowance",
      "outputs": [
        {
          "internalType": "bool",
          "name": "",
          "type": "bool"
        }
      ],
      "stateMutability": "nonpayable",
      "type": "function"
    },
    {
      "inputs": [
        {
          "internalType": "address",
          "name": "spender",
          "type": "address"
        },
        {
          "internalType": "uint256",
          "name": "addedValue",
          "type": "uint256"
        }
      ],
      "name": "increaseAllowance",
      "outputs": [
        {
          "internalType": "bool",
          "name": "",
          "type": "bool"
        }
      ],
      "stateMutability": "nonpayable",
      "type": "function"
    },
    {
      "inputs": [],
      "name": "name",
      "outputs": [
        {
          "internalType": "string",
          "name": "",
          "type": "string"
        }
      ],
      "stateMutability": "view",
      "type": "function"
    },
    {
      "inputs": [
        {
          "internalType": "address",
          "name": "owner",
          "type": "address"
        }
      ],
      "name": "nonces",
      "outputs": [
        {
          "internalType": "uint256",
          "name": "",
          "type": "uint256"
        }
      ],
      "stateMutability": "view",
      "type": "function"
    },
    {
      "inputs": [
        {
          "internalType": "address",
          "name": "owner",
          "type": "address"
        },
        {
          "internalType": "address",
          "name": "spender",
          "type": "address"
        },
        {
          "internalType": "uint256",
          "name": "value",
          "type": "uint256"
        },
        {
          "internalType": "uint256",
          "name": "deadline",
          "type": "uint256"
        },
        {
          "internalType": "uint8",
          "name": "v",
          "type": "uint8"
        },
        {
          "internalType": "bytes32",
          "name": "r",
          "type": "bytes32"
        },
        {
          "internalType": "bytes32",
          "name": "s",
          "type": "bytes32"
        }
      ],
      "name": "permit",
      "outputs": [],
      "stateMutability": "nonpayable",
      "type": "function"
    },
    {
      "inputs": [],
      "name": "symbol",
      "outputs": [
        {
          "internalType": "string",
          "name": "",
          "type": "string"
        }
      ],
      "stateMutability": "view",
      "type": "function"
    },
    {
      "inputs": [],
      "name": "totalSupply",
      "outputs": [
        {
          "internalType": "uint256",
          "name": "",
          "type": "uint256"
        }
      ],
      "stateMutability": "view",
      "type": "function"
    },
    {
      "inputs": [
        {
          "internalType": "address",
          "name": "recipient",
          "type": "address"
        },
        {
          "internalType": "uint256",
          "name": "amount",
          "type": "uint256"
        }
      ],
      "name": "transfer",
      "outputs": [
        {
          "internalType": "bool",
          "name": "",
          "type": "bool"
        }
      ],
      "stateMutability": "nonpayable",
      "type": "function"
    },
    {
      "inputs": [
        {
          "internalType": "address",
          "name": "sender",
          "type": "address"
        },
        {
          "internalType": "address",
          "name": "recipient",
          "type": "address"
        },
        {
          "internalType": "uint256",
          "name": "amount",
          "type": "uint256"
        }
      ],
      "name": "transferFrom",
      "outputs": [
        {
          "internalType": "bool",
          "name": "",
          "type": "bool"
        }
      ],
      "stateMutability": "nonpayable",
      "type": "function"
    }
  ],
  "transactionHash": "0x26e117d1533e7c532f2189080ef5c54f547dcf14eda65e6e2772052ce4d5682c",
  "args": [
    "100000000000000",
    "6"
  ],
  "solcInputHash": "3397f28688d3079e02bcd67862c4115b",
  "bytecode": "0x6101406040527f6e71edae12b1b97f4d1f60370fef10105fa2faae0126114a169c64845d6126c9610120523480156200003757600080fd5b50604051620014b0380380620014b08339810160408190526200005a91620003b4565b604051806040016040528060088152602001672aa9a21021b7b4b760c11b81525080604051806040016040528060018152602001603160f81b815250604051806040016040528060088152602001672aa9a21021b7b4b760c11b815250604051806040016040528060048152602001635553444360e01b8152508160039080519060200190620000ec92919062000318565b5080516200010290600490602084019062000318565b50506005805460ff1916601217905550815160208084019190912082519183019190912060c082905260e08190527f8b73c3c69bb8fe3d512ecc4cf759cc79239f7b179b0ffacaa9a75d522b39400f6200015b62000199565b60a0526200016b8184846200019d565b608052610100525062000185935084925050620001e29050565b620001913383620001f8565b50506200048d565b4690565b6000838383620001ac62000199565b30604051602001620001c3959493929190620003ea565b6040516020818303038152906040528051906020012090509392505050565b6005805460ff191660ff92909216919091179055565b6001600160a01b0382166200022a5760405162461bcd60e51b815260040162000221906200044d565b60405180910390fd5b6200023860008383620002e4565b6200025481600254620002e960201b620005f31790919060201c565b6002556001600160a01b0382166000908152602081815260409091205462000287918390620005f3620002e9821b17901c565b6001600160a01b0383166000818152602081905260408082209390935591519091907fddf252ad1be2c89b69c2b068fc378daa952ba7f163c4a11628f55a4df523b3ef90620002d890859062000484565b60405180910390a35050565b505050565b600082820183811015620003115760405162461bcd60e51b8152600401620002219062000416565b9392505050565b828054600181600116156101000203166002900490600052602060002090601f016020900481019282601f106200035b57805160ff19168380011785556200038b565b828001600101855582156200038b579182015b828111156200038b5782518255916020019190600101906200036e565b50620003999291506200039d565b5090565b5b808211156200039957600081556001016200039e565b60008060408385031215620003c7578182fd5b82519150602083015160ff81168114620003df578182fd5b809150509250929050565b9485526020850193909352604084019190915260608301526001600160a01b0316608082015260a00190565b6020808252601b908201527f536166654d6174683a206164646974696f6e206f766572666c6f770000000000604082015260600190565b6020808252601f908201527f45524332303a206d696e7420746f20746865207a65726f206164647265737300604082015260600190565b90815260200190565b60805160a05160c05160e0516101005161012051610fd9620004d7600039806104e55250806108755250806108b752508061089652508061081c52508061084c5250610fd96000f3fe608060405234801561001057600080fd5b50600436106100ca5760003560e01c806370a082311161007c57806370a08231146101655780637ecebe001461017857806395d89b411461018b578063a457c2d714610193578063a9059cbb146101a6578063d505accf146101b9578063dd62ed3e146101ce576100ca565b806306fdde03146100cf578063095ea7b3146100ed57806318160ddd1461010d57806323b872dd14610122578063313ce567146101355780633644e5151461014a5780633950935114610152575b600080fd5b6100d76101e1565b6040516100e49190610c4e565b60405180910390f35b6101006100fb366004610b77565b610278565b6040516100e49190610bbc565b610115610296565b6040516100e49190610bc7565b610100610130366004610ac4565b61029c565b61013d610323565b6040516100e49190610f0a565b61011561032c565b610100610160366004610b77565b61033b565b610115610173366004610a75565b610389565b610115610186366004610a75565b6103a4565b6100d76103c5565b6101006101a1366004610b77565b610426565b6101006101b4366004610b77565b61048e565b6101cc6101c7366004610b04565b6104a2565b005b6101156101dc366004610a90565b6105c8565b60038054604080516020601f600260001961010060018816150201909516949094049384018190048102820181019092528281526060939092909183018282801561026d5780601f106102425761010080835404028352916020019161026d565b820191906000526020600020905b81548152906001019060200180831161025057829003601f168201915b505050505090505b90565b600061028c61028561061f565b8484610623565b5060015b92915050565b60025490565b60006102a98484846106d7565b610319846102b561061f565b61031485604051806060016040528060288152602001610f57602891396001600160a01b038a166000908152600160205260408120906102f361061f565b6001600160a01b0316815260208101919091526040016000205491906107ec565b610623565b5060019392505050565b60055460ff1690565b6000610336610818565b905090565b600061028c61034861061f565b84610314856001600061035961061f565b6001600160a01b03908116825260208083019390935260409182016000908120918c1681529252902054906105f3565b6001600160a01b031660009081526020819052604090205490565b6001600160a01b0381166000908152600660205260408120610290906108e2565b60048054604080516020601f600260001961010060018816150201909516949094049384018190048102820181019092528281526060939092909183018282801561026d5780601f106102425761010080835404028352916020019161026d565b600061028c61043361061f565b8461031485604051806060016040528060258152602001610f7f602591396001600061045d61061f565b6001600160a01b03908116825260208083019390935260409182016000908120918d168152925290205491906107ec565b600061028c61049b61061f565b84846106d7565b834211156104cb5760405162461bcd60e51b81526004016104c290610d8f565b60405180910390fd5b6001600160a01b03871660009081526006602052604081207f000000000000000000000000000000000000000000000000000000000000000090899089908990610514906108e2565b8960405160200161052a96959493929190610bd0565b604051602081830303815290604052805190602001209050600061054d826108e6565b9050600061055d8287878761091f565b9050896001600160a01b0316816001600160a01b0316146105905760405162461bcd60e51b81526004016104c290610e4a565b6001600160a01b038a1660009081526006602052604090206105b190610a0b565b6105bc8a8a8a610623565b50505050505050505050565b6001600160a01b03918216600090815260016020908152604080832093909416825291909152205490565b6000828201838110156106185760405162461bcd60e51b81526004016104c290610d58565b9392505050565b3390565b6001600160a01b0383166106495760405162461bcd60e51b81526004016104c290610ec6565b6001600160a01b03821661066f5760405162461bcd60e51b81526004016104c290610d16565b6001600160a01b0380841660008181526001602090815260408083209487168084529490915290819020849055517f8c5be1e5ebec7d5bd14f71427d1e84f3dd0314c0f7b2291e5b200ac8c7c3b925906106ca908590610bc7565b60405180910390a3505050565b6001600160a01b0383166106fd5760405162461bcd60e51b81526004016104c290610e81565b6001600160a01b0382166107235760405162461bcd60e51b81526004016104c290610cd3565b61072e838383610a14565b61076b81604051806060016040528060268152602001610f31602691396001600160a01b03861660009081526020819052604090205491906107ec565b6001600160a01b03808516600090815260208190526040808220939093559084168152205461079a90826105f3565b6001600160a01b0380841660008181526020819052604090819020939093559151908516907fddf252ad1be2c89b69c2b068fc378daa952ba7f163c4a11628f55a4df523b3ef906106ca908590610bc7565b600081848411156108105760405162461bcd60e51b81526004016104c29190610c4e565b505050900390565b60007f0000000000000000000000000000000000000000000000000000000000000000610843610a19565b141561087057507f0000000000000000000000000000000000000000000000000000000000000000610275565b6108db7f00000000000000000000000000000000000000000000000000000000000000007f00000000000000000000000000000000000000000000000000000000000000007f0000000000000000000000000000000000000000000000000000000000000000610a1d565b9050610275565b5490565b60006108f0610818565b82604051602001610902929190610ba1565b604051602081830303815290604052805190602001209050919050565b60006fa2a8918ca85bafe22016d0b997e4df60600160ff1b038211156109575760405162461bcd60e51b81526004016104c290610dc6565b8360ff16601b148061096c57508360ff16601c145b6109885760405162461bcd60e51b81526004016104c290610e08565b6000600186868686604051600081526020016040526040516109ad9493929190610c30565b6020604051602081039080840390855afa1580156109cf573d6000803e3d6000fd5b5050604051601f1901519150506001600160a01b038116610a025760405162461bcd60e51b81526004016104c290610ca1565b95945050505050565b80546001019055565b505050565b4690565b6000838383610a2a610a19565b30604051602001610a3f959493929190610c04565b6040516020818303038152906040528051906020012090509392505050565b80356001600160a01b038116811461029057600080fd5b600060208284031215610a86578081fd5b6106188383610a5e565b60008060408385031215610aa2578081fd5b610aac8484610a5e565b9150610abb8460208501610a5e565b90509250929050565b600080600060608486031215610ad8578081fd5b8335610ae381610f18565b92506020840135610af381610f18565b929592945050506040919091013590565b600080600080600080600060e0888a031215610b1e578283fd5b610b288989610a5e565b9650610b378960208a01610a5e565b95506040880135945060608801359350608088013560ff81168114610b5a578384fd5b9699959850939692959460a0840135945060c09093013592915050565b60008060408385031215610b89578182fd5b610b938484610a5e565b946020939093013593505050565b61190160f01b81526002810192909252602282015260420190565b901515815260200190565b90815260200190565b9586526001600160a01b0394851660208701529290931660408501526060840152608083019190915260a082015260c00190565b9485526020850193909352604084019190915260608301526001600160a01b0316608082015260a00190565b93845260ff9290921660208401526040830152606082015260800190565b6000602080835283518082850152825b81811015610c7a57858101830151858201604001528201610c5e565b81811115610c8b5783604083870101525b50601f01601f1916929092016040019392505050565b60208082526018908201527745434453413a20696e76616c6964207369676e617475726560401b604082015260600190565b60208082526023908201527f45524332303a207472616e7366657220746f20746865207a65726f206164647260408201526265737360e81b606082015260800190565b60208082526022908201527f45524332303a20617070726f766520746f20746865207a65726f206164647265604082015261737360f01b606082015260800190565b6020808252601b908201527f536166654d6174683a206164646974696f6e206f766572666c6f770000000000604082015260600190565b6020808252601d908201527f45524332305065726d69743a206578706972656420646561646c696e65000000604082015260600190565b60208082526022908201527f45434453413a20696e76616c6964207369676e6174757265202773272076616c604082015261756560f01b606082015260800190565b60208082526022908201527f45434453413a20696e76616c6964207369676e6174757265202776272076616c604082015261756560f01b606082015260800190565b6020808252601e908201527f45524332305065726d69743a20696e76616c6964207369676e61747572650000604082015260600190565b60208082526025908201527f45524332303a207472616e736665722066726f6d20746865207a65726f206164604082015264647265737360d81b606082015260800190565b60208082526024908201527f45524332303a20617070726f76652066726f6d20746865207a65726f206164646040820152637265737360e01b606082015260800190565b60ff91909116815260200190565b6001600160a01b0381168114610f2d57600080fd5b5056fe45524332303a207472616e7366657220616d6f756e7420657863656564732062616c616e636545524332303a207472616e7366657220616d6f756e74206578636565647320616c6c6f77616e636545524332303a2064656372656173656420616c6c6f77616e63652062656c6f77207a65726fa26469706673582212202f6cfa03841510a6d454e10653e86ef8f10354720e81523d730126bfb960506364736f6c634300060c0033",
  "devdoc": {
    "kind": "dev",
    "methods": {
      "DOMAIN_SEPARATOR()": {
        "details": "See {IERC20Permit-DOMAIN_SEPARATOR}."
      },
      "allowance(address,address)": {
        "details": "See {IERC20-allowance}."
      },
      "approve(address,uint256)": {
        "details": "See {IERC20-approve}. Requirements: - `spender` cannot be the zero address."
      },
      "balanceOf(address)": {
        "details": "See {IERC20-balanceOf}."
      },
      "decimals()": {
        "details": "Returns the number of decimals used to get its user representation. For example, if `decimals` equals `2`, a balance of `505` tokens should be displayed to a user as `5,05` (`505 / 10 ** 2`). Tokens usually opt for a value of 18, imitating the relationship between Ether and Wei. This is the value {ERC20} uses, unless {_setupDecimals} is called. NOTE: This information is only used for _display_ purposes: it in no way affects any of the arithmetic of the contract, including {IERC20-balanceOf} and {IERC20-transfer}."
      },
      "decreaseAllowance(address,uint256)": {
        "details": "Atomically decreases the allowance granted to `spender` by the caller. This is an alternative to {approve} that can be used as a mitigation for problems described in {IERC20-approve}. Emits an {Approval} event indicating the updated allowance. Requirements: - `spender` cannot be the zero address. - `spender` must have allowance for the caller of at least `subtractedValue`."
      },
      "increaseAllowance(address,uint256)": {
        "details": "Atomically increases the allowance granted to `spender` by the caller. This is an alternative to {approve} that can be used as a mitigation for problems described in {IERC20-approve}. Emits an {Approval} event indicating the updated allowance. Requirements: - `spender` cannot be the zero address."
      },
      "name()": {
        "details": "Returns the name of the token."
      },
      "nonces(address)": {
        "details": "See {IERC20Permit-nonces}."
      },
      "permit(address,address,uint256,uint256,uint8,bytes32,bytes32)": {
        "details": "See {IERC20Permit-permit}."
      },
      "symbol()": {
        "details": "Returns the symbol of the token, usually a shorter version of the name."
      },
      "totalSupply()": {
        "details": "See {IERC20-totalSupply}."
      },
      "transfer(address,uint256)": {
        "details": "See {IERC20-transfer}. Requirements: - `recipient` cannot be the zero address. - the caller must have a balance of at least `amount`."
      },
      "transferFrom(address,address,uint256)": {
        "details": "See {IERC20-transferFrom}. Emits an {Approval} event indicating the updated allowance. This is not required by the EIP. See the note at the beginning of {ERC20}. Requirements: - `sender` and `recipient` cannot be the zero address. - `sender` must have a balance of at least `amount`. - the caller must have allowance for ``sender``'s tokens of at least `amount`."
      }
    },
    "version": 1
  },
  "userdoc": {
    "kind": "user",
    "methods": {},
    "version": 1
  },
  "storageLayout": {
    "storage": [
      {
        "astId": 5829,
        "contract": "contracts/test/TestERC20.sol:TestERC20",
        "label": "_balances",
        "offset": 0,
        "slot": "0",
        "type": "t_mapping(t_address,t_uint256)"
      },
      {
        "astId": 5835,
        "contract": "contracts/test/TestERC20.sol:TestERC20",
        "label": "_allowances",
        "offset": 0,
        "slot": "1",
        "type": "t_mapping(t_address,t_mapping(t_address,t_uint256))"
      },
      {
        "astId": 5837,
        "contract": "contracts/test/TestERC20.sol:TestERC20",
        "label": "_totalSupply",
        "offset": 0,
        "slot": "2",
        "type": "t_uint256"
      },
      {
        "astId": 5839,
        "contract": "contracts/test/TestERC20.sol:TestERC20",
        "label": "_name",
        "offset": 0,
        "slot": "3",
        "type": "t_string_storage"
      },
      {
        "astId": 5841,
        "contract": "contracts/test/TestERC20.sol:TestERC20",
        "label": "_symbol",
        "offset": 0,
        "slot": "4",
        "type": "t_string_storage"
      },
      {
        "astId": 5843,
        "contract": "contracts/test/TestERC20.sol:TestERC20",
        "label": "_decimals",
        "offset": 0,
        "slot": "5",
        "type": "t_uint8"
      },
      {
        "astId": 5296,
        "contract": "contracts/test/TestERC20.sol:TestERC20",
        "label": "_nonces",
        "offset": 0,
        "slot": "6",
        "type": "t_mapping(t_address,t_struct(Counter)6818_storage)"
      }
    ],
    "types": {
      "t_address": {
        "encoding": "inplace",
        "label": "address",
        "numberOfBytes": "20"
      },
      "t_mapping(t_address,t_mapping(t_address,t_uint256))": {
        "encoding": "mapping",
        "key": "t_address",
        "label": "mapping(address => mapping(address => uint256))",
        "numberOfBytes": "32",
        "value": "t_mapping(t_address,t_uint256)"
      },
      "t_mapping(t_address,t_struct(Counter)6818_storage)": {
        "encoding": "mapping",
        "key": "t_address",
        "label": "mapping(address => struct Counters.Counter)",
        "numberOfBytes": "32",
        "value": "t_struct(Counter)6818_storage"
      },
      "t_mapping(t_address,t_uint256)": {
        "encoding": "mapping",
        "key": "t_address",
        "label": "mapping(address => uint256)",
        "numberOfBytes": "32",
        "value": "t_uint256"
      },
      "t_string_storage": {
        "encoding": "bytes",
        "label": "string",
        "numberOfBytes": "32"
      },
      "t_struct(Counter)6818_storage": {
        "encoding": "inplace",
        "label": "struct Counters.Counter",
        "members": [
          {
            "astId": 6817,
            "contract": "contracts/test/TestERC20.sol:TestERC20",
            "label": "_value",
            "offset": 0,
            "slot": "0",
            "type": "t_uint256"
          }
        ],
        "numberOfBytes": "32"
      },
      "t_uint256": {
        "encoding": "inplace",
        "label": "uint256",
        "numberOfBytes": "32"
      },
      "t_uint8": {
        "encoding": "inplace",
        "label": "uint8",
        "numberOfBytes": "1"
      }
    }
  }
}