{
  "address": "0x8990C5DAAA40673eF8826990A6Fd8284a0a17d61",
  "abi": [
    {
      "inputs": [
        {
          "internalType": "contract Context",
          "name": "_context",
          "type": "address"
        },
        {
          "internalType": "contract IERC20",
          "name": "_erc20",
          "type": "address"
        },
        {
          "internalType": "address[]",
          "name": "_payees",
          "type": "address[]"
        },
        {
          "internalType": "uint256[]",
          "name": "_shares",
          "type": "uint256[]"
        }
      ],
      "stateMutability": "nonpayable",
      "type": "constructor"
    },
    {
      "inputs": [],
      "name": "IntraBlockDistribution",
      "type": "error"
    },
    {
      "inputs": [],
      "name": "InvalidReceiver",
      "type": "error"
    },
    {
      "inputs": [],
      "name": "LengthMistmatch",
      "type": "error"
    },
    {
      "anonymous": false,
      "inputs": [
        {
          "indexed": false,
          "internalType": "uint256",
          "name": "total",
          "type": "uint256"
        }
      ],
      "name": "Distributed",
      "type": "event"
    },
    {
      "anonymous": false,
      "inputs": [
        {
          "indexed": true,
          "internalType": "address",
          "name": "payee",
          "type": "address"
        },
        {
          "indexed": false,
          "internalType": "uint256",
          "name": "share",
          "type": "uint256"
        }
      ],
      "name": "PayeeAdded",
      "type": "event"
    },
    {
      "anonymous": false,
      "inputs": [
        {
          "indexed": true,
          "internalType": "address",
          "name": "payee",
          "type": "address"
        },
        {
          "indexed": false,
          "internalType": "uint256",
          "name": "share",
          "type": "uint256"
        }
      ],
      "name": "ShareEdited",
      "type": "event"
    },
    {
      "inputs": [],
      "name": "distribute",
      "outputs": [],
      "stateMutability": "nonpayable",
      "type": "function"
    },
    {
      "inputs": [],
      "name": "erc20",
      "outputs": [
        {
          "internalType": "contract IERC20",
          "name": "",
          "type": "address"
        }
      ],
      "stateMutability": "view",
      "type": "function"
    },
    {
      "inputs": [],
      "name": "lastDistributionAt",
      "outputs": [
        {
          "internalType": "uint256",
          "name": "",
          "type": "uint256"
        }
      ],
      "stateMutability": "view",
      "type": "function"
    },
    {
      "inputs": [
        {
          "internalType": "uint256",
          "name": "",
          "type": "uint256"
        }
      ],
      "name": "payees",
      "outputs": [
        {
          "internalType": "address",
          "name": "",
          "type": "address"
        }
      ],
      "stateMutability": "view",
      "type": "function"
    },
    {
      "inputs": [
        {
          "internalType": "address[]",
          "name": "_payees",
          "type": "address[]"
        },
        {
          "internalType": "uint256[]",
          "name": "_shares",
          "type": "uint256[]"
        }
      ],
      "name": "replacePayees",
      "outputs": [],
      "stateMutability": "nonpayable",
      "type": "function"
    },
    {
      "inputs": [
        {
          "internalType": "address",
          "name": "",
          "type": "address"
        }
      ],
      "name": "shares",
      "outputs": [
        {
          "internalType": "uint256",
          "name": "",
          "type": "uint256"
        }
      ],
      "stateMutability": "view",
      "type": "function"
    },
    {
      "inputs": [],
      "name": "totalShares",
      "outputs": [
        {
          "internalType": "uint256",
          "name": "",
          "type": "uint256"
        }
      ],
      "stateMutability": "view",
      "type": "function"
    }
  ],
  "transactionHash": "0x7d621853c68fa6bdbfe7e158b28af7576c2d7eaa3cf143bef4cfdbfc70e49809",
  "args": [
    "0x093e8F4d8f267d2CeEc9eB889E2054710d187beD",
    "0x71C95911E9a5D330f4D621842EC243EE1343292e",
    [
      "0x17C8b71E5eE01A726766c99d397D619219C8CAF3",
      "0xf39Fd6e51aad88F6F4ce6aB8827279cffFb92266"
    ],
    [
      10000,
      10000
    ]
  ],
  "solcInputHash": "cf876495600dfd03d0f5405f277675f3",
  "bytecode": "0x60c06040523480156200001157600080fd5b5060405162000e4e38038062000e4e8339810160408190526200003491620002c2565b6001600160a01b03808516608052831660a0526200005382826200005d565b5050505062000424565b80518251146200008057604051631ceeb21960e11b815260040160405180910390fd5b81516200009590600190602085019062000146565b5060005b815181101562000141576000838281518110620000ba57620000ba620003c0565b602002602001015190506000838381518110620000db57620000db620003c0565b602002602001015190508060026000846001600160a01b03166001600160a01b031681526020019081526020016000208190555080600080828254620001229190620003ec565b9250508190555050508080620001389062000408565b91505062000099565b505050565b8280548282559060005260206000209081019282156200019e579160200282015b828111156200019e57825182546001600160a01b0319166001600160a01b0390911617825560209092019160019091019062000167565b50620001ac929150620001b0565b5090565b5b80821115620001ac5760008155600101620001b1565b6001600160a01b0381168114620001dd57600080fd5b50565b634e487b7160e01b600052604160045260246000fd5b604051601f8201601f191681016001600160401b0381118282101715620002215762000221620001e0565b604052919050565b60006001600160401b03821115620002455762000245620001e0565b5060051b60200190565b600082601f8301126200026157600080fd5b815160206200027a620002748362000229565b620001f6565b82815260059290921b840181019181810190868411156200029a57600080fd5b8286015b84811015620002b757805183529183019183016200029e565b509695505050505050565b60008060008060808587031215620002d957600080fd5b8451620002e681620001c7565b80945050602080860151620002fb81620001c7565b60408701519094506001600160401b03808211156200031957600080fd5b818801915088601f8301126200032e57600080fd5b81516200033f620002748262000229565b81815260059190911b8301840190848101908b8311156200035f57600080fd5b938501935b828510156200038a5784516200037a81620001c7565b8252938501939085019062000364565b60608b01519097509450505080831115620003a457600080fd5b5050620003b4878288016200024f565b91505092959194509250565b634e487b7160e01b600052603260045260246000fd5b634e487b7160e01b600052601160045260246000fd5b80820180821115620004025762000402620003d6565b92915050565b6000600182016200041d576200041d620003d6565b5060010190565b60805160a0516109f7620004576000396000818160d3015281816102a101526103a50152600061012b01526109f76000f3fe608060405234801561001057600080fd5b506004361061006d5760003560e01c8063259e97d6146100725780633a98ef391461008757806363037b0c146100a3578063785e9e86146100ce57806390355087146100f5578063ce7c2ac2146100fe578063e4fc6b6d1461011e575b600080fd5b6100856100803660046107e8565b610126565b005b61009060005481565b6040519081526020015b60405180910390f35b6100b66100b1366004610854565b610239565b6040516001600160a01b03909116815260200161009a565b6100b67f000000000000000000000000000000000000000000000000000000000000000081565b61009060035481565b61009061010c366004610882565b60026020526000908152604090205481565b610085610263565b6101587f00000000000000000000000000000000000000000000000000000000000000006001600160a01b031661047b565b604051632a6e138b60e11b81523060048201523360248201526001600160a01b0391909116906354dc27169060440160006040518083038186803b15801561019f57600080fd5b505afa1580156101b3573d6000803e3d6000fd5b50505050600160006101c59190610701565b600080556040805160208086028281018201909352858252610233928791879182918501908490808284376000920191909152505060408051602080880282810182019093528782529093508792508691829185019084908082843760009201919091525061055092505050565b50505050565b6001818154811061024957600080fd5b6000918252602090912001546001600160a01b0316905081565b42600354036102855760405163bdb009db60e01b815260040160405180910390fd5b426003556040516370a0823160e01b81523060048201526000907f00000000000000000000000000000000000000000000000000000000000000006001600160a01b0316906370a0823190602401602060405180830381865afa1580156102f0573d6000803e3d6000fd5b505050506040513d601f19601f8201168201806040525081019061031491906108a6565b905060005b60015481101561044457600060018281548110610338576103386108bf565b60009182526020808320909101546001600160a01b0316808352600290915260408220548254919350919061036d83876108eb565b610377919061090a565b905080156104145760405163a9059cbb60e01b81526001600160a01b038481166004830152602482018390527f0000000000000000000000000000000000000000000000000000000000000000169063a9059cbb906044016020604051808303816000875af11580156103ee573d6000803e3d6000fd5b505050506040513d601f19601f82011682018060405250810190610412919061092c565b505b6001600160a01b0383163b1561042e5761042e838261062a565b505050808061043c9061094e565b915050610319565b506040518181527fddc9c30275a04c48091f24199f9c405765de34d979d6847f5b9798a57232d2e59060200160405180910390a150565b6000816001600160a01b031663f887ea406040518163ffffffff1660e01b8152600401602060405180830381865afa1580156104bb573d6000803e3d6000fd5b505050506040513d601f19601f820116820180604052508101906104df9190610967565b60405163ce10a0d360e01b8152600160048201526001600160a01b03919091169063ce10a0d390602401602060405180830381865afa158015610526573d6000803e3d6000fd5b505050506040513d601f19601f8201168201806040525081019061054a9190610967565b92915050565b805182511461057257604051631ceeb21960e11b815260040160405180910390fd5b8151610585906001906020850190610722565b5060005b81518110156106255760008382815181106105a6576105a66108bf565b6020026020010151905060008383815181106105c4576105c46108bf565b602002602001015190508060026000846001600160a01b03166001600160a01b0316815260200190815260200160002081905550806000808282546106099190610984565b925050819055505050808061061d9061094e565b915050610589565b505050565b604051637b35092760e11b8152600481018290526001600160a01b0383169063f66a124e906024016020604051808303816000875af192505050801561068d575060408051601f3d908101601f1916820190925261068a91810190610997565b60015b6106d0573d8080156106bb576040519150601f19603f3d011682016040523d82523d6000602084013e6106c0565b606091505b5080511561062557805181602001fd5b6001600160e01b03198116637b35092760e11b1461062557604051631e4ec46b60e01b815260040160405180910390fd5b508054600082559060005260206000209081019061071f9190610787565b50565b828054828255906000526020600020908101928215610777579160200282015b8281111561077757825182546001600160a01b0319166001600160a01b03909116178255602090920191600190910190610742565b50610783929150610787565b5090565b5b808211156107835760008155600101610788565b60008083601f8401126107ae57600080fd5b50813567ffffffffffffffff8111156107c657600080fd5b6020830191508360208260051b85010111156107e157600080fd5b9250929050565b600080600080604085870312156107fe57600080fd5b843567ffffffffffffffff8082111561081657600080fd5b6108228883890161079c565b9096509450602087013591508082111561083b57600080fd5b506108488782880161079c565b95989497509550505050565b60006020828403121561086657600080fd5b5035919050565b6001600160a01b038116811461071f57600080fd5b60006020828403121561089457600080fd5b813561089f8161086d565b9392505050565b6000602082840312156108b857600080fd5b5051919050565b634e487b7160e01b600052603260045260246000fd5b634e487b7160e01b600052601160045260246000fd5b6000816000190483118215151615610905576109056108d5565b500290565b60008261092757634e487b7160e01b600052601260045260246000fd5b500490565b60006020828403121561093e57600080fd5b8151801515811461089f57600080fd5b600060018201610960576109606108d5565b5060010190565b60006020828403121561097957600080fd5b815161089f8161086d565b8082018082111561054a5761054a6108d5565b6000602082840312156109a957600080fd5b81516001600160e01b03198116811461089f57600080fdfea264697066735822122040586e9db510785e745784b722ae9f07c5636433ff631ce9cfa740b13c3d928c64736f6c63430008100033",
  "devdoc": {
    "author": "landakram",
    "kind": "dev",
    "methods": {
      "replacePayees(address[],uint256[])": {
        "params": {
          "_payees": "An array of addresses to receive distributions",
          "_shares": "An array of shares (ordered by `_payees`) to use for distributions"
        }
      }
    },
    "title": "ERC20Splitter",
    "version": 1
  },
  "userdoc": {
    "kind": "user",
    "methods": {
      "distribute()": {
        "notice": "Distribute the current balance to payees. If a payee is a smart contract   implementing `IERC20SplitterReceiver`, then its `onReceive` handler function will   be called after it receives its share."
      },
      "erc20()": {
        "notice": "The ERC20 that is distributed to payees"
      },
      "lastDistributionAt()": {
        "notice": "The block.timestamp when `distribute` was last called"
      },
      "payees(uint256)": {
        "notice": "A list of payees"
      },
      "replacePayees(address[],uint256[])": {
        "notice": "Replace all current payees with a new set of payees and shares"
      },
      "shares(address)": {
        "notice": "Payee shares"
      },
      "totalShares()": {
        "notice": "The total number of shares in the splitter. A payee's proportion   of the split can be calculated as its share / totalShares."
      }
    },
    "notice": "Splits the ERC20 balance of this contract amongst a list of payees.   Unlike similar splitter contracts, all shares of the balance are distributed   in a single `distribute` transaction. If a payee is a smart contract implementing   `IERC20SplitterReceiver`, then its `onReceive` handler function will be called   after it receives its share.",
    "version": 1
  },
  "storageLayout": {
    "storage": [
      {
        "astId": 9158,
        "contract": "contracts/protocol/core/membership/ERC20Splitter.sol:ERC20Splitter",
        "label": "totalShares",
        "offset": 0,
        "slot": "0",
        "type": "t_uint256"
      },
      {
        "astId": 9162,
        "contract": "contracts/protocol/core/membership/ERC20Splitter.sol:ERC20Splitter",
        "label": "payees",
        "offset": 0,
        "slot": "1",
        "type": "t_array(t_address)dyn_storage"
      },
      {
        "astId": 9167,
        "contract": "contracts/protocol/core/membership/ERC20Splitter.sol:ERC20Splitter",
        "label": "shares",
        "offset": 0,
        "slot": "2",
        "type": "t_mapping(t_address,t_uint256)"
      },
      {
        "astId": 9174,
        "contract": "contracts/protocol/core/membership/ERC20Splitter.sol:ERC20Splitter",
        "label": "lastDistributionAt",
        "offset": 0,
        "slot": "3",
        "type": "t_uint256"
      }
    ],
    "types": {
      "t_address": {
        "encoding": "inplace",
        "label": "address",
        "numberOfBytes": "20"
      },
      "t_array(t_address)dyn_storage": {
        "base": "t_address",
        "encoding": "dynamic_array",
        "label": "address[]",
        "numberOfBytes": "32"
      },
      "t_mapping(t_address,t_uint256)": {
        "encoding": "mapping",
        "key": "t_address",
        "label": "mapping(address => uint256)",
        "numberOfBytes": "32",
        "value": "t_uint256"
      },
      "t_uint256": {
        "encoding": "inplace",
        "label": "uint256",
        "numberOfBytes": "32"
      }
    }
  }
}