{
  "_format": "hh-sol-artifact-1",
  "contractName": "MembershipOrchestrator",
  "sourceName": "contracts/protocol/core/MembershipOrchestrator.sol",
  "abi": [
    {
      "inputs": [
        {
          "internalType": "contract Context",
          "name": "_context",
          "type": "address"
        }
      ],
      "stateMutability": "nonpayable",
      "type": "constructor"
    },
    {
      "inputs": [
        {
          "internalType": "address",
          "name": "nonOwner",
          "type": "address"
        }
      ],
      "name": "CannotWithdrawUnownedAsset",
      "type": "error"
    },
    {
      "inputs": [
        {
          "internalType": "address",
          "name": "addr",
          "type": "address"
        }
      ],
      "name": "UnsupportedAssetAddress",
      "type": "error"
    },
    {
      "anonymous": false,
      "inputs": [
        {
          "indexed": false,
          "internalType": "address",
          "name": "account",
          "type": "address"
        }
      ],
      "name": "Paused",
      "type": "event"
    },
    {
      "anonymous": false,
      "inputs": [
        {
          "indexed": false,
          "internalType": "address",
          "name": "account",
          "type": "address"
        }
      ],
      "name": "Unpaused",
      "type": "event"
    },
    {
      "inputs": [
        {
          "internalType": "uint256",
          "name": "gfi",
          "type": "uint256"
        },
        {
          "internalType": "uint256",
          "name": "capital",
          "type": "uint256"
        }
      ],
      "name": "calculateMemberScore",
      "outputs": [
        {
          "internalType": "uint256",
          "name": "score",
          "type": "uint256"
        }
      ],
      "stateMutability": "view",
      "type": "function"
    },
    {
      "inputs": [
        {
          "internalType": "address",
          "name": "addr",
          "type": "address"
        }
      ],
      "name": "claimableRewards",
      "outputs": [
        {
          "internalType": "uint256",
          "name": "",
          "type": "uint256"
        }
      ],
      "stateMutability": "view",
      "type": "function"
    },
    {
      "inputs": [
        {
          "internalType": "address",
          "name": "addr",
          "type": "address"
        }
      ],
      "name": "collectRewards",
      "outputs": [
        {
          "internalType": "uint256",
          "name": "",
          "type": "uint256"
        }
      ],
      "stateMutability": "nonpayable",
      "type": "function"
    },
    {
      "inputs": [
        {
          "internalType": "address",
          "name": "assetAddress",
          "type": "address"
        },
        {
          "internalType": "uint256",
          "name": "id",
          "type": "uint256"
        }
      ],
      "name": "depositCapitalERC721",
      "outputs": [
        {
          "internalType": "uint256",
          "name": "",
          "type": "uint256"
        }
      ],
      "stateMutability": "nonpayable",
      "type": "function"
    },
    {
      "inputs": [
        {
          "internalType": "uint256",
          "name": "amount",
          "type": "uint256"
        }
      ],
      "name": "depositGFI",
      "outputs": [
        {
          "internalType": "uint256",
          "name": "",
          "type": "uint256"
        }
      ],
      "stateMutability": "nonpayable",
      "type": "function"
    },
    {
      "inputs": [
        {
          "components": [
            {
              "internalType": "uint256",
              "name": "gfi",
              "type": "uint256"
            },
            {
              "components": [
                {
                  "internalType": "address",
                  "name": "assetAddress",
                  "type": "address"
                },
                {
                  "internalType": "uint256",
                  "name": "id",
                  "type": "uint256"
                }
              ],
              "internalType": "struct CapitalDeposit[]",
              "name": "capitalDeposits",
              "type": "tuple[]"
            }
          ],
          "internalType": "struct MultiDeposit",
          "name": "multiDeposit",
          "type": "tuple"
        }
      ],
      "name": "depositMultiple",
      "outputs": [
        {
          "internalType": "uint256[]",
          "name": "ids",
          "type": "uint256[]"
        }
      ],
      "stateMutability": "nonpayable",
      "type": "function"
    },
    {
      "inputs": [],
      "name": "initialize",
      "outputs": [],
      "stateMutability": "nonpayable",
      "type": "function"
    },
    {
      "inputs": [
        {
          "internalType": "address",
          "name": "addr",
          "type": "address"
        }
      ],
      "name": "memberScoreOf",
      "outputs": [
        {
          "internalType": "uint256",
          "name": "eligibleScore",
          "type": "uint256"
        },
        {
          "internalType": "uint256",
          "name": "totalScore",
          "type": "uint256"
        }
      ],
      "stateMutability": "view",
      "type": "function"
    },
    {
      "inputs": [
        {
          "internalType": "address",
          "name": "",
          "type": "address"
        },
        {
          "internalType": "address",
          "name": "",
          "type": "address"
        },
        {
          "internalType": "uint256",
          "name": "",
          "type": "uint256"
        },
        {
          "internalType": "bytes",
          "name": "",
          "type": "bytes"
        }
      ],
      "name": "onERC721Received",
      "outputs": [
        {
          "internalType": "bytes4",
          "name": "",
          "type": "bytes4"
        }
      ],
      "stateMutability": "pure",
      "type": "function"
    },
    {
      "inputs": [],
      "name": "paused",
      "outputs": [
        {
          "internalType": "bool",
          "name": "",
          "type": "bool"
        }
      ],
      "stateMutability": "view",
      "type": "function"
    },
    {
      "inputs": [
        {
          "internalType": "address",
          "name": "addr",
          "type": "address"
        }
      ],
      "name": "totalCapitalHeldBy",
      "outputs": [
        {
          "internalType": "uint256",
          "name": "eligibleAmount",
          "type": "uint256"
        },
        {
          "internalType": "uint256",
          "name": "totalAmount",
          "type": "uint256"
        }
      ],
      "stateMutability": "view",
      "type": "function"
    },
    {
      "inputs": [
        {
          "internalType": "address",
          "name": "addr",
          "type": "address"
        }
      ],
      "name": "totalGFIHeldBy",
      "outputs": [
        {
          "internalType": "uint256",
          "name": "eligibleAmount",
          "type": "uint256"
        },
        {
          "internalType": "uint256",
          "name": "totalAmount",
          "type": "uint256"
        }
      ],
      "stateMutability": "view",
      "type": "function"
    },
    {
      "inputs": [
        {
          "internalType": "address",
          "name": "addr",
          "type": "address"
        }
      ],
      "name": "votingPower",
      "outputs": [
        {
          "internalType": "uint256",
          "name": "",
          "type": "uint256"
        }
      ],
      "stateMutability": "view",
      "type": "function"
    },
    {
      "inputs": [
        {
          "internalType": "address",
          "name": "addr",
          "type": "address"
        }
      ],
      "name": "withdrawAll",
      "outputs": [],
      "stateMutability": "nonpayable",
      "type": "function"
    },
    {
      "inputs": [
        {
          "internalType": "uint256",
          "name": "positionId",
          "type": "uint256"
        }
      ],
      "name": "withdrawCapital",
      "outputs": [],
      "stateMutability": "nonpayable",
      "type": "function"
    },
    {
      "inputs": [
        {
          "internalType": "uint256",
          "name": "positionId",
          "type": "uint256"
        }
      ],
      "name": "withdrawGFI",
      "outputs": [
        {
          "internalType": "uint256",
          "name": "",
          "type": "uint256"
        }
      ],
      "stateMutability": "nonpayable",
      "type": "function"
    },
    {
      "inputs": [
        {
          "components": [
            {
              "internalType": "uint256[]",
              "name": "gfiPositions",
              "type": "uint256[]"
            },
            {
              "internalType": "uint256[]",
              "name": "capitalPositions",
              "type": "uint256[]"
            }
          ],
          "internalType": "struct MultiWithdraw",
          "name": "multiWithdraw",
          "type": "tuple"
        }
      ],
      "name": "withdrawMultiple",
      "outputs": [],
      "stateMutability": "nonpayable",
      "type": "function"
    }
  ],
  "bytecode": "0x60a06040523480156200001157600080fd5b506040516200270d3803806200270d833981016040819052620000349162000046565b6001600160a01b031660805262000078565b6000602082840312156200005957600080fd5b81516001600160a01b03811681146200007157600080fd5b9392505050565b608051612599620001746000396000818161028e015281816104160152818161050a015281816107560152818161085d015281816109ca01528181610a7901528181610b2801528181610bd001528181610cc801528181610d2801528181610d8801528181610e0601528181610eb101528181610f5c01528181611005015281816110b30152818161116e0152818161121c015281816112d4015281816114510152818161151a0152818161159901528181611662015281816116f9015281816117990152818161183e0152818161187e01528181611914015281816119b901528181611a6d01528181611b9d0152611c2101526125996000f3fe608060405234801561001057600080fd5b50600436106100eb5760003560e01c806393a315cd1161009257806393a315cd146101c7578063ad4590a3146101da578063c07473f614610202578063cae67aec14610215578063d1fe6c5314610228578063d4564be61461023b578063d95b0a121461024e578063dc01f60d14610261578063fa09e6301461027457600080fd5b8063150b7a02146100f057806324704b541461012d5780634eafd1701461014e5780635763dbd0146101635780635c975abb146101765780635dfa03c91461018c5780636da6f2eb146101ac5780638129fc1c146101bf575b600080fd5b61010f6100fe3660046120ae565b630a85bd0160e11b95945050505050565b6040516001600160e01b031990911681526020015b60405180910390f35b61014061013b36600461214d565b610287565b604051908152602001610124565b61016161015c366004612187565b610336565b005b6101406101713660046121bc565b6104b9565b60655460ff166040519015158152602001610124565b61019f61019a366004612187565b6105af565b60405161012491906121d9565b6101406101ba36600461221d565b6107ff565b610161610903565b6101406101d536600461221d565b610977565b6101ed6101e83660046121bc565b610b20565b60408051928352602083019190915201610124565b6101406102103660046121bc565b610bc9565b610140610223366004612236565b610c69565b6101ed6102363660046121bc565b610d20565b6101ed6102493660046121bc565b610d80565b61016161025c36600461221d565b610db5565b61014061026f3660046121bc565b610f55565b6101616102823660046121bc565b610fb4565b60006102bb7f00000000000000000000000000000000000000000000000000000000000000006001600160a01b0316611379565b6040516366191d7760e11b815260048101859052602481018490526001600160a01b03919091169063cc323aee90604401602060405180830381865afa158015610309573d6000803e3d6000fd5b505050506040513d601f19601f8201168201806040525081019061032d9190612262565b90505b92915050565b6002600154036103615760405162461bcd60e51b81526004016103589061227b565b60405180910390fd5b600260015560005b61037382806122b2565b90508110156103b8576103a561038983806122b2565b8381811061039957610399612303565b90506020020135611449565b50806103b08161232f565b915050610369565b5060005b6103c960208301836122b2565b9050811015610410576103fe6103e260208401846122b2565b838181106103f2576103f2612303565b90506020020135611593565b806104088161232f565b9150506103bc565b506104437f00000000000000000000000000000000000000000000000000000000000000006001600160a01b0316611379565b6001600160a01b031663a265cbdf336040518263ffffffff1660e01b815260040161046e9190612348565b6020604051808303816000875af115801561048d573d6000803e3d6000fd5b505050506040513d601f19601f820116820180604052508101906104b19190612262565b505060018055565b60006002600154036104dd5760405162461bcd60e51b81526004016103589061227b565b600260015560655460ff16156105055760405162461bcd60e51b81526004016103589061235c565b6105377f00000000000000000000000000000000000000000000000000000000000000006001600160a01b0316611379565b6001600160a01b0316635763dbd0836040518263ffffffff1660e01b81526004016105629190612348565b6020604051808303816000875af1158015610581573d6000803e3d6000fd5b505050506040513d601f19601f820116820180604052508101906105a59190612262565b6001805592915050565b60606002600154036105d35760405162461bcd60e51b81526004016103589061227b565b600260015560655460ff16156105fb5760405162461bcd60e51b81526004016103589061235c565b81351515600061060e6020850185612386565b90508261061c57600061061f565b60015b60ff1661062c91906123d0565b90508067ffffffffffffffff811115610647576106476123e3565b604051908082528060200260200182016040528015610670578160200160208202803683370190505b509250600082156106b05761068585356116f1565b84828151811061069757610697612303565b6020908102919091010152806106ac8161232f565b9150505b60005b6106c06020870187612386565b90508110156107505760006106d86020880188612386565b838181106106e8576106e8612303565b9050604002018036038101906106fe91906123f9565b905061071281600001518260200151611a66565b86848151811061072457610724612303565b6020908102919091010152826107398161232f565b9350505080806107489061232f565b9150506106b3565b506107837f00000000000000000000000000000000000000000000000000000000000000006001600160a01b0316611379565b6001600160a01b0316633d9d3f34336040518263ffffffff1660e01b81526004016107ae9190612348565b6020604051808303816000875af11580156107cd573d6000803e3d6000fd5b505050506040513d601f19601f820116820180604052508101906107f19190612262565b505060018055509092915050565b60006002600154036108235760405162461bcd60e51b81526004016103589061227b565b600260015560655460ff161561084b5760405162461bcd60e51b81526004016103589061235c565b6000610856836116f1565b905061088a7f00000000000000000000000000000000000000000000000000000000000000006001600160a01b0316611379565b6001600160a01b0316633d9d3f34336040518263ffffffff1660e01b81526004016108b59190612348565b6020604051808303816000875af11580156108d4573d6000803e3d6000fd5b505050506040513d601f19601f820116820180604052508101906108f89190612262565b506001805592915050565b600054610100900460ff168061091c575060005460ff16155b6109385760405162461bcd60e51b81526004016103589061245f565b600054610100900460ff1615801561095a576000805461ffff19166101011790555b610962611d4c565b8015610974576000805461ff00191690555b50565b600060026001540361099b5760405162461bcd60e51b81526004016103589061227b565b600260015560655460ff16156109c35760405162461bcd60e51b81526004016103589061235c565b60006109f77f00000000000000000000000000000000000000000000000000000000000000006001600160a01b0316611dbb565b6001600160a01b0316636352211e846040518263ffffffff1660e01b8152600401610a2491815260200190565b602060405180830381865afa158015610a41573d6000803e3d6000fd5b505050506040513d601f19601f82011682018060405250810190610a6591906124ad565b90506000610a7284611449565b9050610aa67f00000000000000000000000000000000000000000000000000000000000000006001600160a01b0316611379565b6001600160a01b031663a265cbdf836040518263ffffffff1660e01b8152600401610ad19190612348565b6020604051808303816000875af1158015610af0573d6000803e3d6000fd5b505050506040513d601f19601f82011682018060405250810190610b149190612262565b50600180559392505050565b600080610b557f00000000000000000000000000000000000000000000000000000000000000006001600160a01b0316611dbb565b6001600160a01b031663ed8373ce846040518263ffffffff1660e01b8152600401610b809190612348565b6040805180830381865afa158015610b9c573d6000803e3d6000fd5b505050506040513d601f19601f82011682018060405250810190610bc091906124ca565b91509150915091565b6000610bfd7f00000000000000000000000000000000000000000000000000000000000000006001600160a01b0316611dbb565b6001600160a01b031663c07473f6836040518263ffffffff1660e01b8152600401610c289190612348565b602060405180830381865afa158015610c45573d6000803e3d6000fd5b505050506040513d601f19601f820116820180604052508101906103309190612262565b6000600260015403610c8d5760405162461bcd60e51b81526004016103589061227b565b600260015560655460ff1615610cb55760405162461bcd60e51b81526004016103589061235c565b6000610cc18484611a66565b9050610cf57f00000000000000000000000000000000000000000000000000000000000000006001600160a01b0316611379565b6001600160a01b0316633d9d3f34336040518263ffffffff1660e01b8152600401610ad19190612348565b600080610d557f00000000000000000000000000000000000000000000000000000000000000006001600160a01b0316611379565b6001600160a01b0316638a440b00846040518263ffffffff1660e01b8152600401610b809190612348565b600080610b557f00000000000000000000000000000000000000000000000000000000000000006001600160a01b0316611e4e565b600260015403610dd75760405162461bcd60e51b81526004016103589061227b565b600260015560655460ff1615610dff5760405162461bcd60e51b81526004016103589061235c565b6000610e337f00000000000000000000000000000000000000000000000000000000000000006001600160a01b0316611e4e565b6001600160a01b0316636352211e836040518263ffffffff1660e01b8152600401610e6091815260200190565b602060405180830381865afa158015610e7d573d6000803e3d6000fd5b505050506040513d601f19601f82011682018060405250810190610ea191906124ad565b9050610eac82611593565b610ede7f00000000000000000000000000000000000000000000000000000000000000006001600160a01b0316611379565b6001600160a01b031663a265cbdf826040518263ffffffff1660e01b8152600401610f099190612348565b6020604051808303816000875af1158015610f28573d6000803e3d6000fd5b505050506040513d601f19601f82011682018060405250810190610f4c9190612262565b50506001805550565b6000610f897f00000000000000000000000000000000000000000000000000000000000000006001600160a01b0316611379565b6001600160a01b031663dc01f60d836040518263ffffffff1660e01b8152600401610c289190612348565b600260015403610fd65760405162461bcd60e51b81526004016103589061227b565b600260015560655460ff1615610ffe5760405162461bcd60e51b81526004016103589061235c565b60006110327f00000000000000000000000000000000000000000000000000000000000000006001600160a01b0316611dbb565b6001600160a01b03166370a08231836040518263ffffffff1660e01b815260040161105d9190612348565b602060405180830381865afa15801561107a573d6000803e3d6000fd5b505050506040513d601f19601f8201168201806040525081019061109e9190612262565b905060005b81811015611166576111536110e07f00000000000000000000000000000000000000000000000000000000000000006001600160a01b0316611dbb565b6001600160a01b0316632f745c5985846040518363ffffffff1660e01b815260040161110d9291906124ee565b602060405180830381865afa15801561112a573d6000803e3d6000fd5b505050506040513d601f19601f8201168201806040525081019061114e9190612262565b611449565b508061115e8161232f565b9150506110a3565b50600061119b7f00000000000000000000000000000000000000000000000000000000000000006001600160a01b0316611e4e565b6001600160a01b03166370a08231846040518263ffffffff1660e01b81526004016111c69190612348565b602060405180830381865afa1580156111e3573d6000803e3d6000fd5b505050506040513d601f19601f820116820180604052508101906112079190612262565b905060005b818110156112ce576112bc6112497f00000000000000000000000000000000000000000000000000000000000000006001600160a01b0316611e4e565b6001600160a01b0316632f745c5986846040518363ffffffff1660e01b81526004016112769291906124ee565b602060405180830381865afa158015611293573d6000803e3d6000fd5b505050506040513d601f19601f820116820180604052508101906112b79190612262565b611593565b806112c68161232f565b91505061120c565b506113017f00000000000000000000000000000000000000000000000000000000000000006001600160a01b0316611379565b6001600160a01b031663a265cbdf336040518263ffffffff1660e01b815260040161132c9190612348565b6020604051808303816000875af115801561134b573d6000803e3d6000fd5b505050506040513d601f19601f8201168201806040525081019061136f9190612262565b5050600180555050565b6000816001600160a01b031663f887ea406040518163ffffffff1660e01b8152600401602060405180830381865afa1580156113b9573d6000803e3d6000fd5b505050506040513d601f19601f820116820180604052508101906113dd91906124ad565b60405163ce10a0d360e01b8152600660048201526001600160a01b03919091169063ce10a0d3906024015b602060405180830381865afa158015611425573d6000803e3d6000fd5b505050506040513d601f19601f8201168201806040525081019061033091906124ad565b60003361147e7f00000000000000000000000000000000000000000000000000000000000000006001600160a01b0316611dbb565b6001600160a01b0316636352211e846040518263ffffffff1660e01b81526004016114ab91815260200190565b602060405180830381865afa1580156114c8573d6000803e3d6000fd5b505050506040513d601f19601f820116820180604052508101906114ec91906124ad565b6001600160a01b031614611515573360405163199613ad60e11b81526004016103589190612348565b6115477f00000000000000000000000000000000000000000000000000000000000000006001600160a01b0316611dbb565b6001600160a01b0316632e1a7d4d836040518263ffffffff1660e01b815260040161157491815260200190565b6020604051808303816000875af1158015610c45573d6000803e3d6000fd5b336115c67f00000000000000000000000000000000000000000000000000000000000000006001600160a01b0316611e4e565b6001600160a01b0316636352211e836040518263ffffffff1660e01b81526004016115f391815260200190565b602060405180830381865afa158015611610573d6000803e3d6000fd5b505050506040513d601f19601f8201168201806040525081019061163491906124ad565b6001600160a01b03161461165d573360405163199613ad60e11b81526004016103589190612348565b61168f7f00000000000000000000000000000000000000000000000000000000000000006001600160a01b0316611e4e565b6001600160a01b0316632e1a7d4d826040518263ffffffff1660e01b81526004016116bc91815260200190565b600060405180830381600087803b1580156116d657600080fd5b505af11580156116ea573d6000803e3d6000fd5b5050505050565b6000806117267f00000000000000000000000000000000000000000000000000000000000000006001600160a01b0316611ee1565b6001600160a01b03166370a08231306040518263ffffffff1660e01b81526004016117519190612348565b602060405180830381865afa15801561176e573d6000803e3d6000fd5b505050506040513d601f19601f820116820180604052508101906117929190612262565b90506117c67f00000000000000000000000000000000000000000000000000000000000000006001600160a01b0316611ee1565b6001600160a01b03166323b872dd3330866040518463ffffffff1660e01b81526004016117f593929190612507565b6020604051808303816000875af1158015611814573d6000803e3d6000fd5b505050506040513d601f19601f82011682018060405250810190611838919061252b565b5061186b7f00000000000000000000000000000000000000000000000000000000000000006001600160a01b0316611ee1565b6001600160a01b031663095ea7b36118ab7f00000000000000000000000000000000000000000000000000000000000000006001600160a01b0316611f74565b856040518363ffffffff1660e01b81526004016118c99291906124ee565b6020604051808303816000875af11580156118e8573d6000803e3d6000fd5b505050506040513d601f19601f8201168201806040525081019061190c919061252b565b5060006119417f00000000000000000000000000000000000000000000000000000000000000006001600160a01b0316611dbb565b6001600160a01b03166347e7ef2433866040518363ffffffff1660e01b815260040161196e9291906124ee565b6020604051808303816000875af115801561198d573d6000803e3d6000fd5b505050506040513d601f19601f820116820180604052508101906119b19190612262565b9050816119e67f00000000000000000000000000000000000000000000000000000000000000006001600160a01b0316611ee1565b6001600160a01b03166370a08231306040518263ffffffff1660e01b8152600401611a119190612348565b602060405180830381865afa158015611a2e573d6000803e3d6000fd5b505050506040513d601f19601f82011682018060405250810190611a529190612262565b14611a5f57611a5f61254d565b9392505050565b6000611a9a7f00000000000000000000000000000000000000000000000000000000000000006001600160a01b0316611e4e565b6001600160a01b031663aa388af6846040518263ffffffff1660e01b8152600401611ac59190612348565b602060405180830381865afa158015611ae2573d6000803e3d6000fd5b505050506040513d601f19601f82011682018060405250810190611b06919061252b565b611b25578260405163e1d90eaf60e01b81526004016103589190612348565b604051632142170760e11b815283906001600160a01b038216906342842e0e90611b5790339030908890600401612507565b600060405180830381600087803b158015611b7157600080fd5b505af1158015611b85573d6000803e3d6000fd5b50505050806001600160a01b031663095ea7b3611bca7f00000000000000000000000000000000000000000000000000000000000000006001600160a01b0316612006565b856040518363ffffffff1660e01b8152600401611be89291906124ee565b600060405180830381600087803b158015611c0257600080fd5b505af1158015611c16573d6000803e3d6000fd5b505050506000611c4e7f00000000000000000000000000000000000000000000000000000000000000006001600160a01b0316611e4e565b6001600160a01b031663331ded1a3387876040518463ffffffff1660e01b8152600401611c7d93929190612507565b6020604051808303816000875af1158015611c9c573d6000803e3d6000fd5b505050506040513d601f19601f82011682018060405250810190611cc09190612262565b6040516331a9108f60e11b81526004810186905290915030906001600160a01b03841690636352211e90602401602060405180830381865afa158015611d0a573d6000803e3d6000fd5b505050506040513d601f19601f82011682018060405250810190611d2e91906124ad565b6001600160a01b031603611d4457611d4461254d565b949350505050565b600054610100900460ff1680611d65575060005460ff16155b611d815760405162461bcd60e51b81526004016103589061245f565b600054610100900460ff16158015611da3576000805461ffff19166101011790555b600180558015610974576000805461ff001916905550565b6000816001600160a01b031663f887ea406040518163ffffffff1660e01b8152600401602060405180830381865afa158015611dfb573d6000803e3d6000fd5b505050506040513d601f19601f82011682018060405250810190611e1f91906124ad565b60405163ce10a0d360e01b8152600760048201526001600160a01b03919091169063ce10a0d390602401611408565b6000816001600160a01b031663f887ea406040518163ffffffff1660e01b8152600401602060405180830381865afa158015611e8e573d6000803e3d6000fd5b505050506040513d601f19601f82011682018060405250810190611eb291906124ad565b60405163ce10a0d360e01b8152600860048201526001600160a01b03919091169063ce10a0d390602401611408565b6000816001600160a01b031663f887ea406040518163ffffffff1660e01b8152600401602060405180830381865afa158015611f21573d6000803e3d6000fd5b505050506040513d601f19601f82011682018060405250810190611f4591906124ad565b60405163ce10a0d360e01b8152600560048201526001600160a01b03919091169063ce10a0d390602401611408565b6000816001600160a01b031663f887ea406040518163ffffffff1660e01b8152600401602060405180830381865afa158015611fb4573d6000803e3d6000fd5b505050506040513d601f19601f82011682018060405250810190611fd891906124ad565b60405163ce10a0d360e01b81526004818101526001600160a01b03919091169063ce10a0d390602401611408565b6000816001600160a01b031663f887ea406040518163ffffffff1660e01b8152600401602060405180830381865afa158015612046573d6000803e3d6000fd5b505050506040513d601f19601f8201168201806040525081019061206a91906124ad565b60405163ce10a0d360e01b8152600360048201526001600160a01b03919091169063ce10a0d390602401611408565b6001600160a01b038116811461097457600080fd5b6000806000806000608086880312156120c657600080fd5b85356120d181612099565b945060208601356120e181612099565b935060408601359250606086013567ffffffffffffffff8082111561210557600080fd5b818801915088601f83011261211957600080fd5b81358181111561212857600080fd5b89602082850101111561213a57600080fd5b9699959850939650602001949392505050565b6000806040838503121561216057600080fd5b50508035926020909101359150565b60006040828403121561218157600080fd5b50919050565b60006020828403121561219957600080fd5b813567ffffffffffffffff8111156121b057600080fd5b611d448482850161216f565b6000602082840312156121ce57600080fd5b8135611a5f81612099565b6020808252825182820181905260009190848201906040850190845b81811015612211578351835292840192918401916001016121f5565b50909695505050505050565b60006020828403121561222f57600080fd5b5035919050565b6000806040838503121561224957600080fd5b823561225481612099565b946020939093013593505050565b60006020828403121561227457600080fd5b5051919050565b6020808252601f908201527f5265656e7472616e637947756172643a207265656e7472616e742063616c6c00604082015260600190565b6000808335601e198436030181126122c957600080fd5b83018035915067ffffffffffffffff8211156122e457600080fd5b6020019150600581901b36038213156122fc57600080fd5b9250929050565b634e487b7160e01b600052603260045260246000fd5b634e487b7160e01b600052601160045260246000fd5b60006001820161234157612341612319565b5060010190565b6001600160a01b0391909116815260200190565b60208082526010908201526f14185d5cd8589b194e881c185d5cd95960821b604082015260600190565b6000808335601e1984360301811261239d57600080fd5b83018035915067ffffffffffffffff8211156123b857600080fd5b6020019150600681901b36038213156122fc57600080fd5b8082018082111561033057610330612319565b634e487b7160e01b600052604160045260246000fd5b60006040828403121561240b57600080fd5b6040516040810181811067ffffffffffffffff8211171561243c57634e487b7160e01b600052604160045260246000fd5b604052823561244a81612099565b81526020928301359281019290925250919050565b6020808252602e908201527f496e697469616c697a61626c653a20636f6e747261637420697320616c72656160408201526d191e481a5b9a5d1a585b1a5e995960921b606082015260800190565b6000602082840312156124bf57600080fd5b8151611a5f81612099565b600080604083850312156124dd57600080fd5b505080516020909101519092909150565b6001600160a01b03929092168252602082015260400190565b6001600160a01b039384168152919092166020820152604081019190915260600190565b60006020828403121561253d57600080fd5b81518015158114611a5f57600080fd5b634e487b7160e01b600052600160045260246000fdfea2646970667358221220282896db2741d3b1daf9ac3fa0ca199632c5b15c6dde2ed3861b9ed3e542248f64736f6c63430008100033",
  "linkReferences": {},
  "deployedLinkReferences": {}
}