{
  "address": "0x76ee6B1Db228E09aF70B86800c31f8Bd52794045",
  "abi": [
    {
      "inputs": [
        {
          "internalType": "uint256",
          "name": "paymentAmount",
          "type": "uint256"
        },
        {
          "internalType": "uint256",
          "name": "balance",
          "type": "uint256"
        },
        {
          "internalType": "uint256",
          "name": "interestOwed",
          "type": "uint256"
        },
        {
          "internalType": "uint256",
          "name": "principalOwed",
          "type": "uint256"
        }
      ],
      "name": "allocatePayment",
      "outputs": [
        {
          "components": [
            {
              "internalType": "uint256",
              "name": "interestPayment",
              "type": "uint256"
            },
            {
              "internalType": "uint256",
              "name": "principalPayment",
              "type": "uint256"
            },
            {
              "internalType": "uint256",
              "name": "additionalBalancePayment",
              "type": "uint256"
            }
          ],
          "internalType": "struct Accountant.PaymentAllocation",
          "name": "",
          "type": "tuple"
        }
      ],
      "stateMutability": "pure",
      "type": "function"
    },
    {
      "inputs": [
        {
          "internalType": "contract ICreditLine",
          "name": "cl",
          "type": "ICreditLine"
        }
      ],
      "name": "calculateAmountOwedForOneDay",
      "outputs": [
        {
          "components": [
            {
              "internalType": "uint256",
              "name": "rawValue",
              "type": "uint256"
            }
          ],
          "internalType": "struct FixedPoint.Unsigned",
          "name": "",
          "type": "tuple"
        }
      ],
      "stateMutability": "view",
      "type": "function"
    },
    {
      "inputs": [
        {
          "internalType": "contract CreditLine",
          "name": "cl",
          "type": "CreditLine"
        },
        {
          "internalType": "uint256",
          "name": "balance",
          "type": "uint256"
        },
        {
          "internalType": "uint256",
          "name": "timestamp",
          "type": "uint256"
        },
        {
          "internalType": "uint256",
          "name": "lateFeeGracePeriodInDays",
          "type": "uint256"
        }
      ],
      "name": "calculateInterestAccrued",
      "outputs": [
        {
          "internalType": "uint256",
          "name": "",
          "type": "uint256"
        }
      ],
      "stateMutability": "view",
      "type": "function"
    },
    {
      "inputs": [
        {
          "internalType": "contract CreditLine",
          "name": "cl",
          "type": "CreditLine"
        },
        {
          "internalType": "uint256",
          "name": "balance",
          "type": "uint256"
        },
        {
          "internalType": "uint256",
          "name": "startTime",
          "type": "uint256"
        },
        {
          "internalType": "uint256",
          "name": "endTime",
          "type": "uint256"
        },
        {
          "internalType": "uint256",
          "name": "lateFeeGracePeriodInDays",
          "type": "uint256"
        }
      ],
      "name": "calculateInterestAccruedOverPeriod",
      "outputs": [
        {
          "internalType": "uint256",
          "name": "interestOwed",
          "type": "uint256"
        }
      ],
      "stateMutability": "view",
      "type": "function"
    },
    {
      "inputs": [
        {
          "internalType": "contract CreditLine",
          "name": "cl",
          "type": "CreditLine"
        },
        {
          "internalType": "uint256",
          "name": "timestamp",
          "type": "uint256"
        },
        {
          "internalType": "uint256",
          "name": "lateFeeGracePeriod",
          "type": "uint256"
        }
      ],
      "name": "calculateInterestAndPrincipalAccrued",
      "outputs": [
        {
          "internalType": "uint256",
          "name": "",
          "type": "uint256"
        },
        {
          "internalType": "uint256",
          "name": "",
          "type": "uint256"
        }
      ],
      "stateMutability": "view",
      "type": "function"
    },
    {
      "inputs": [
        {
          "internalType": "contract CreditLine",
          "name": "cl",
          "type": "CreditLine"
        },
        {
          "internalType": "uint256",
          "name": "balance",
          "type": "uint256"
        },
        {
          "internalType": "uint256",
          "name": "startTime",
          "type": "uint256"
        },
        {
          "internalType": "uint256",
          "name": "endTime",
          "type": "uint256"
        },
        {
          "internalType": "uint256",
          "name": "lateFeeGracePeriod",
          "type": "uint256"
        }
      ],
      "name": "calculateInterestAndPrincipalAccruedOverPeriod",
      "outputs": [
        {
          "internalType": "uint256",
          "name": "",
          "type": "uint256"
        },
        {
          "internalType": "uint256",
          "name": "",
          "type": "uint256"
        }
      ],
      "stateMutability": "view",
      "type": "function"
    },
    {
      "inputs": [
        {
          "internalType": "contract ICreditLine",
          "name": "cl",
          "type": "ICreditLine"
        },
        {
          "internalType": "uint256",
          "name": "balance",
          "type": "uint256"
        },
        {
          "internalType": "uint256",
          "name": "timestamp",
          "type": "uint256"
        }
      ],
      "name": "calculatePrincipalAccrued",
      "outputs": [
        {
          "internalType": "uint256",
          "name": "",
          "type": "uint256"
        }
      ],
      "stateMutability": "view",
      "type": "function"
    },
    {
      "inputs": [
        {
          "internalType": "contract ICreditLine",
          "name": "cl",
          "type": "ICreditLine"
        },
        {
          "internalType": "uint256",
          "name": "timestamp",
          "type": "uint256"
        },
        {
          "internalType": "uint256",
          "name": "gracePeriodInDays",
          "type": "uint256"
        },
        {
          "internalType": "uint256",
          "name": "maxDaysLate",
          "type": "uint256"
        }
      ],
      "name": "calculateWritedownFor",
      "outputs": [
        {
          "internalType": "uint256",
          "name": "",
          "type": "uint256"
        },
        {
          "internalType": "uint256",
          "name": "",
          "type": "uint256"
        }
      ],
      "stateMutability": "view",
      "type": "function"
    },
    {
      "inputs": [
        {
          "internalType": "contract ICreditLine",
          "name": "cl",
          "type": "ICreditLine"
        },
        {
          "internalType": "uint256",
          "name": "principal",
          "type": "uint256"
        },
        {
          "internalType": "uint256",
          "name": "timestamp",
          "type": "uint256"
        },
        {
          "internalType": "uint256",
          "name": "gracePeriodInDays",
          "type": "uint256"
        },
        {
          "internalType": "uint256",
          "name": "maxDaysLate",
          "type": "uint256"
        }
      ],
      "name": "calculateWritedownForPrincipal",
      "outputs": [
        {
          "internalType": "uint256",
          "name": "",
          "type": "uint256"
        },
        {
          "internalType": "uint256",
          "name": "",
          "type": "uint256"
        }
      ],
      "stateMutability": "view",
      "type": "function"
    }
  ],
  "transactionHash": "0x506796af39fe0307d19d1d8ff5e9ecc838b56480ad015fad46a5ecc7a155307c",
  "args": [],
  "numDeployments": 2,
  "solcInputHash": "94913ac76e14e284866e844702da31b3",
  "bytecode": "0x611122610026600b82828239805160001a60731461001957fe5b30600052607381538281f3fe730000000000000000000000000000000000000000301460806040526004361061008d5760003560e01c8063101c8430146100925780632f77b4d1146100bc57806380b9c647146100dc57806397aec1ab146100ef578063a55119c314610102578063a7beba8e14610115578063d6121e3e14610128578063d7cc2a031461013b578063da95434e1461015b575b600080fd5b6100a56100a0366004610e9c565b61017b565b6040516100b39291906110c6565b60405180910390f35b6100cf6100ca366004610f0a565b61021f565b6040516100b391906110bd565b6100cf6100ea366004610e9c565b61043b565b6100a56100fd366004610f0a565b61054f565b6100cf610110366004610ed0565b610839565b6100a5610123366004610f69565b6108cf565b6100a5610136366004610f0a565b61095c565b61014e610149366004610f96565b61098d565b6040516100b39190611092565b61016e610169366004610f4d565b610a0d565b6040516100b391906110b3565b6000806000856001600160a01b031663b69ef8a86040518163ffffffff1660e01b815260040160206040518083038186803b1580156101b957600080fd5b505afa1580156101cd573d6000803e3d6000fd5b505050506040513d601f19601f820116820180604052508101906101f19190610f7e565b9050600061020187838888610839565b9050600061021088848961043b565b91989197509095505050505050565b60008061022c8486610bac565b905060006102bd670de0b6b3a76400006102b78a6001600160a01b031663b39699926040518163ffffffff1660e01b815260040160206040518083038186803b15801561027857600080fd5b505afa15801561028c573d6000803e3d6000fd5b505050506040513d601f19601f820116820180604052508101906102b09190610f7e565b8a90610bf7565b90610c3a565b905060006102d36301e133806102b78486610bf7565b9050600080610368896103636102ec8a62015180610bf7565b8e6001600160a01b031663d28459776040518163ffffffff1660e01b815260040160206040518083038186803b15801561032557600080fd5b505afa158015610339573d6000803e3d6000fd5b505050506040513d601f19601f8201168201806040525081019061035d9190610f7e565b90610c7c565b610ca1565b90508781101561042257600061037e8983610bac565b90506000610409670de0b6b3a76400006102b78f6001600160a01b031663f0b25bde6040518163ffffffff1660e01b815260040160206040518083038186803b1580156103ca57600080fd5b505afa1580156103de573d6000803e3d6000fd5b505050506040513d601f19601f820116820180604052508101906104029190610f7e565b8f90610bf7565b905061041d6301e133806102b78385610bf7565b935050505b61042c8383610c7c565b9b9a5050505050505050505050565b600080846001600160a01b03166364fb2d956040518163ffffffff1660e01b815260040160206040518083038186803b15801561047757600080fd5b505afa15801561048b573d6000803e3d6000fd5b505050506040513d601f19601f820116820180604052508101906104af9190610f7e565b905080856001600160a01b031663bbafcb406040518163ffffffff1660e01b815260040160206040518083038186803b1580156104eb57600080fd5b505afa1580156104ff573d6000803e3d6000fd5b505050506040513d601f19601f820116820180604052508101906105239190610f7e565b10610532576000915050610548565b8083106105425783915050610548565b60009150505b9392505050565b60008061055a610e68565b61056388610a0d565b9050610570816000610cb8565b1561058257600080925092505061082f565b61058a610e68565b61059386610ccf565b905061059d610e68565b600061064c8b6001600160a01b031663193501146040518163ffffffff1660e01b815260040160206040518083038186803b1580156105db57600080fd5b505afa1580156105ef573d6000803e3d6000fd5b505050506040513d601f19601f820116820180604052508101906106139190610f7e565b8c6001600160a01b03166321856b366040518163ffffffff1660e01b815260040160206040518083038186803b15801561032557600080fd5b90506106618461065b83610ccf565b90610cfd565b91508a6001600160a01b03166364fb2d956040518163ffffffff1660e01b815260040160206040518083038186803b15801561069c57600080fd5b505afa1580156106b0573d6000803e3d6000fd5b505050506040513d601f19601f820116820180604052508101906106d49190610f7e565b89111561077e5760006107588c6001600160a01b03166364fb2d956040518163ffffffff1660e01b815260040160206040518083038186803b15801561071957600080fd5b505afa15801561072d573d6000803e3d6000fd5b505050506040513d601f19601f820116820180604052508101906107519190610f7e565b8b90610bac565b905061077a6107736201518061076d84610ccf565b90610d35565b8490610d56565b9250505b610786610e68565b61078f88610ccf565b9050610799610e68565b6107a38486610d79565b156107b9576107b26000610ccf565b90506107dc565b6107d96107c66001610ccf565b6107d48461065b888a610d81565b610da4565b90505b6107e4610e68565b610803670de0b6b3a764000061076d8f85610dbb90919063ffffffff16565b9050600061081e670de0b6b3a764000061076d856064610dbb565b519151919950909750505050505050505b9550959350505050565b6000806108b684876001600160a01b031663bbafcb406040518163ffffffff1660e01b815260040160206040518083038186803b15801561087957600080fd5b505afa15801561088d573d6000803e3d6000fd5b505050506040513d601f19601f820116820180604052508101906108b19190610f7e565b610ddc565b90506108c5868683878761021f565b9695505050505050565b60008061094f86876001600160a01b031663b69ef8a86040518163ffffffff1660e01b815260040160206040518083038186803b15801561090f57600080fd5b505afa158015610923573d6000803e3d6000fd5b505050506040513d601f19601f820116820180604052508101906109479190610f7e565b87878761054f565b9150915094509492505050565b600080600061096e888888888861021f565b9050600061097d89898861043b565b9199919850909650505050505050565b610995610e7b565b8460006109a28583610ddc565b90506109ae8282610bac565b915060006109bc8584610ddc565b90506109c88382610bac565b925060006109d68883610bac565b905060006109e48583610ddc565b604080516060810182529586526020860194909452928401929092525090979650505050505050565b610a15610e68565b6000610b0e670de0b6b3a76400006102b7856001600160a01b031663b39699926040518163ffffffff1660e01b815260040160206040518083038186803b158015610a5f57600080fd5b505afa158015610a73573d6000803e3d6000fd5b505050506040513d601f19601f82011682018060405250810190610a979190610f7e565b866001600160a01b031663b69ef8a86040518163ffffffff1660e01b815260040160206040518083038186803b158015610ad057600080fd5b505afa158015610ae4573d6000803e3d6000fd5b505050506040513d601f19601f82011682018060405250810190610b089190610f7e565b90610bf7565b9050610b18610e68565b610b2761016d61076d84610ccf565b9050610ba4846001600160a01b031663193501146040518163ffffffff1660e01b815260040160206040518083038186803b158015610b6557600080fd5b505afa158015610b79573d6000803e3d6000fd5b505050506040513d601f19601f82011682018060405250810190610b9d9190610f7e565b8290610deb565b949350505050565b6000610bee83836040518060400160405280601e81526020017f536166654d6174683a207375627472616374696f6e206f766572666c6f770000815250610e05565b90505b92915050565b600082610c0657506000610bf1565b82820282848281610c1357fe5b0414610bee5760405162461bcd60e51b8152600401610c3190611051565b60405180910390fd5b6000610bee83836040518060400160405280601a81526020017f536166654d6174683a206469766973696f6e206279207a65726f000000000000815250610e31565b600082820183811015610bee5760405162461bcd60e51b8152600401610c319061101a565b600081831015610cb15781610bee565b5090919050565b6000610cc382610ccf565b51835114905092915050565b610cd7610e68565b604080516020810190915280610cf584670de0b6b3a7640000610bf7565b905292915050565b610d05610e68565b6040805160208101909152825184518291610d2c916102b790670de0b6b3a7640000610bf7565b90529392505050565b610d3d610e68565b604080516020810190915283518190610d2c9085610c3a565b610d5e610e68565b6040805160208101909152825184518291610d2c9190610c7c565b519051111590565b610d89610e68565b6040805160208101909152825184518291610d2c9190610bac565b610dac610e68565b8151835110610cb15781610bee565b610dc3610e68565b604080516020810190915283518190610d2c9085610bf7565b6000818310610cb15781610bee565b610df3610e68565b610bee83610e0084610ccf565b610d56565b60008184841115610e295760405162461bcd60e51b8152600401610c319190610fc7565b505050900390565b60008183610e525760405162461bcd60e51b8152600401610c319190610fc7565b506000838581610e5e57fe5b0495945050505050565b6040518060200160405280600081525090565b60405180606001604052806000815260200160008152602001600081525090565b600080600060608486031215610eb0578283fd5b8335610ebb816110d4565b95602085013595506040909401359392505050565b60008060008060808587031215610ee5578081fd5b8435610ef0816110d4565b966020860135965060408601359560600135945092505050565b600080600080600060a08688031215610f21578081fd5b8535610f2c816110d4565b97602087013597506040870135966060810135965060800135945092505050565b600060208284031215610f5e578081fd5b8135610bee816110d4565b60008060008060808587031215610ee5578384fd5b600060208284031215610f8f578081fd5b5051919050565b60008060008060808587031215610fab578384fd5b5050823594602084013594506040840135936060013592509050565b6000602080835283518082850152825b81811015610ff357858101830151858201604001528201610fd7565b818111156110045783604083870101525b50601f01601f1916929092016040019392505050565b6020808252601b908201527f536166654d6174683a206164646974696f6e206f766572666c6f770000000000604082015260600190565b60208082526021908201527f536166654d6174683a206d756c7469706c69636174696f6e206f766572666c6f6040820152607760f81b606082015260800190565b81518152602080830151908201526040918201519181019190915260600190565b9051815260200190565b90815260200190565b918252602082015260400190565b6001600160a01b03811681146110e957600080fd5b5056fea2646970667358221220410b4cd8cc5f2fe18587ec7a3efd2c65372703a88ba9b67d887580f27170ff7e64736f6c634300060c0033",
  "devdoc": {
    "author": "Goldfinch",
    "kind": "dev",
    "methods": {},
    "title": "The Accountant",
    "version": 1
  },
  "userdoc": {
    "kind": "user",
    "methods": {},
    "notice": "Library for handling key financial calculations, such as interest and principal accrual.",
    "version": 1
  },
  "storageLayout": {
    "storage": [],
    "types": null
  }
}