{
  "address": "0xfdf6A3d4CE8232CF6A4E302dF15F6Ecbc4C0dF22",
  "abi": [
    {
      "inputs": [
        {
          "internalType": "uint256",
          "name": "paymentAmount",
          "type": "uint256"
        },
        {
          "internalType": "uint256",
          "name": "balance",
          "type": "uint256"
        },
        {
          "internalType": "uint256",
          "name": "interestOwed",
          "type": "uint256"
        },
        {
          "internalType": "uint256",
          "name": "principalOwed",
          "type": "uint256"
        }
      ],
      "name": "allocatePayment",
      "outputs": [
        {
          "components": [
            {
              "internalType": "uint256",
              "name": "interestPayment",
              "type": "uint256"
            },
            {
              "internalType": "uint256",
              "name": "principalPayment",
              "type": "uint256"
            },
            {
              "internalType": "uint256",
              "name": "additionalBalancePayment",
              "type": "uint256"
            }
          ],
          "internalType": "struct Accountant.PaymentAllocation",
          "name": "",
          "type": "tuple"
        }
      ],
      "stateMutability": "pure",
      "type": "function"
    },
    {
      "inputs": [
        {
          "internalType": "contract ICreditLine",
          "name": "cl",
          "type": "ICreditLine"
        }
      ],
      "name": "calculateAmountOwedForOneDay",
      "outputs": [
        {
          "components": [
            {
              "internalType": "uint256",
              "name": "rawValue",
              "type": "uint256"
            }
          ],
          "internalType": "struct FixedPoint.Unsigned",
          "name": "",
          "type": "tuple"
        }
      ],
      "stateMutability": "view",
      "type": "function"
    },
    {
      "inputs": [
        {
          "internalType": "contract ICreditLine",
          "name": "cl",
          "type": "ICreditLine"
        },
        {
          "internalType": "uint256",
          "name": "balance",
          "type": "uint256"
        },
        {
          "internalType": "uint256",
          "name": "timestamp",
          "type": "uint256"
        },
        {
          "internalType": "uint256",
          "name": "lateFeeGracePeriodInDays",
          "type": "uint256"
        }
      ],
      "name": "calculateInterestAccrued",
      "outputs": [
        {
          "internalType": "uint256",
          "name": "",
          "type": "uint256"
        }
      ],
      "stateMutability": "view",
      "type": "function"
    },
    {
      "inputs": [
        {
          "internalType": "contract ICreditLine",
          "name": "cl",
          "type": "ICreditLine"
        },
        {
          "internalType": "uint256",
          "name": "balance",
          "type": "uint256"
        },
        {
          "internalType": "uint256",
          "name": "startTime",
          "type": "uint256"
        },
        {
          "internalType": "uint256",
          "name": "endTime",
          "type": "uint256"
        },
        {
          "internalType": "uint256",
          "name": "lateFeeGracePeriodInDays",
          "type": "uint256"
        }
      ],
      "name": "calculateInterestAccruedOverPeriod",
      "outputs": [
        {
          "internalType": "uint256",
          "name": "interestOwed",
          "type": "uint256"
        }
      ],
      "stateMutability": "view",
      "type": "function"
    },
    {
      "inputs": [
        {
          "internalType": "contract ICreditLine",
          "name": "cl",
          "type": "ICreditLine"
        },
        {
          "internalType": "uint256",
          "name": "timestamp",
          "type": "uint256"
        },
        {
          "internalType": "uint256",
          "name": "lateFeeGracePeriod",
          "type": "uint256"
        }
      ],
      "name": "calculateInterestAndPrincipalAccrued",
      "outputs": [
        {
          "internalType": "uint256",
          "name": "",
          "type": "uint256"
        },
        {
          "internalType": "uint256",
          "name": "",
          "type": "uint256"
        }
      ],
      "stateMutability": "view",
      "type": "function"
    },
    {
      "inputs": [
        {
          "internalType": "contract ICreditLine",
          "name": "cl",
          "type": "ICreditLine"
        },
        {
          "internalType": "uint256",
          "name": "balance",
          "type": "uint256"
        },
        {
          "internalType": "uint256",
          "name": "startTime",
          "type": "uint256"
        },
        {
          "internalType": "uint256",
          "name": "endTime",
          "type": "uint256"
        },
        {
          "internalType": "uint256",
          "name": "lateFeeGracePeriod",
          "type": "uint256"
        }
      ],
      "name": "calculateInterestAndPrincipalAccruedOverPeriod",
      "outputs": [
        {
          "internalType": "uint256",
          "name": "",
          "type": "uint256"
        },
        {
          "internalType": "uint256",
          "name": "",
          "type": "uint256"
        }
      ],
      "stateMutability": "view",
      "type": "function"
    },
    {
      "inputs": [
        {
          "internalType": "contract ICreditLine",
          "name": "cl",
          "type": "ICreditLine"
        },
        {
          "internalType": "uint256",
          "name": "balance",
          "type": "uint256"
        },
        {
          "internalType": "uint256",
          "name": "timestamp",
          "type": "uint256"
        }
      ],
      "name": "calculatePrincipalAccrued",
      "outputs": [
        {
          "internalType": "uint256",
          "name": "",
          "type": "uint256"
        }
      ],
      "stateMutability": "view",
      "type": "function"
    },
    {
      "inputs": [
        {
          "internalType": "contract ICreditLine",
          "name": "cl",
          "type": "ICreditLine"
        },
        {
          "internalType": "uint256",
          "name": "timestamp",
          "type": "uint256"
        },
        {
          "internalType": "uint256",
          "name": "gracePeriodInDays",
          "type": "uint256"
        },
        {
          "internalType": "uint256",
          "name": "maxDaysLate",
          "type": "uint256"
        }
      ],
      "name": "calculateWritedownFor",
      "outputs": [
        {
          "internalType": "uint256",
          "name": "",
          "type": "uint256"
        },
        {
          "internalType": "uint256",
          "name": "",
          "type": "uint256"
        }
      ],
      "stateMutability": "view",
      "type": "function"
    },
    {
      "inputs": [
        {
          "internalType": "contract ICreditLine",
          "name": "cl",
          "type": "ICreditLine"
        },
        {
          "internalType": "uint256",
          "name": "principal",
          "type": "uint256"
        },
        {
          "internalType": "uint256",
          "name": "timestamp",
          "type": "uint256"
        },
        {
          "internalType": "uint256",
          "name": "gracePeriodInDays",
          "type": "uint256"
        },
        {
          "internalType": "uint256",
          "name": "maxDaysLate",
          "type": "uint256"
        }
      ],
      "name": "calculateWritedownForPrincipal",
      "outputs": [
        {
          "internalType": "uint256",
          "name": "",
          "type": "uint256"
        },
        {
          "internalType": "uint256",
          "name": "",
          "type": "uint256"
        }
      ],
      "stateMutability": "view",
      "type": "function"
    }
  ],
  "transactionHash": "0x9034a75d3a4f6f8cb04ad434c7feda567a8397e79cab5dabc325b69d511f9bca",
  "args": [],
  "numDeployments": 3,
  "solcInputHash": "679e620d0a3dd88ee1aa73929ab29382",
  "bytecode": "0x611184610026600b82828239805160001a60731461001957fe5b30600052607381538281f3fe730000000000000000000000000000000000000000301460806040526004361061008d5760003560e01c8063117d39311461009257806317bb2716146100bb5780636d197177146100dc57806380b9c647146100ef5780638223dbb61461010257806397aec1ab14610115578063a7beba8e14610128578063d7cc2a031461013b578063da95434e1461015b575b600080fd5b6100a56100a0366004610f9d565b61017b565b6040516100b2919061111f565b60405180910390f35b6100ce6100c9366004610f2f565b610397565b6040516100b2929190611128565b6100a56100ea366004610f63565b61043b565b6100a56100fd366004610f2f565b6104d1565b6100ce610110366004610f9d565b6105e5565b6100ce610123366004610f9d565b610618565b6100ce610136366004610f63565b610900565b61014e610149366004610ff8565b61098d565b6040516100b291906110f4565b61016e610169366004610f13565b610a0d565b6040516100b29190611115565b6000806101888486610bac565b90506000610219670de0b6b3a76400006102138a6001600160a01b031663b39699926040518163ffffffff1660e01b815260040160206040518083038186803b1580156101d457600080fd5b505afa1580156101e8573d6000803e3d6000fd5b505050506040513d601f19601f8201168201806040525081019061020c9190610fe0565b8a90610bd1565b90610bf8565b9050600061022f6301e133806102138486610bd1565b90506000806102c4896102bf6102488a62015180610bd1565b8e6001600160a01b031663d28459776040518163ffffffff1660e01b815260040160206040518083038186803b15801561028157600080fd5b505afa158015610295573d6000803e3d6000fd5b505050506040513d601f19601f820116820180604052508101906102b99190610fe0565b90610c14565b610c26565b90508781101561037e5760006102da8983610bac565b90506000610365670de0b6b3a76400006102138f6001600160a01b031663f0b25bde6040518163ffffffff1660e01b815260040160206040518083038186803b15801561032657600080fd5b505afa15801561033a573d6000803e3d6000fd5b505050506040513d601f19601f8201168201806040525081019061035e9190610fe0565b8f90610bd1565b90506103796301e133806102138385610bd1565b935050505b6103888383610c14565b9b9a5050505050505050505050565b6000806000856001600160a01b031663b69ef8a86040518163ffffffff1660e01b815260040160206040518083038186803b1580156103d557600080fd5b505afa1580156103e9573d6000803e3d6000fd5b505050506040513d601f19601f8201168201806040525081019061040d9190610fe0565b9050600061041d8783888861043b565b9050600061042c8884896104d1565b91989197509095505050505050565b6000806104b884876001600160a01b031663bbafcb406040518163ffffffff1660e01b815260040160206040518083038186803b15801561047b57600080fd5b505afa15801561048f573d6000803e3d6000fd5b505050506040513d601f19601f820116820180604052508101906104b39190610fe0565b610c3d565b90506104c7868683878761017b565b9695505050505050565b600080846001600160a01b03166364fb2d956040518163ffffffff1660e01b815260040160206040518083038186803b15801561050d57600080fd5b505afa158015610521573d6000803e3d6000fd5b505050506040513d601f19601f820116820180604052508101906105459190610fe0565b905080856001600160a01b031663bbafcb406040518163ffffffff1660e01b815260040160206040518083038186803b15801561058157600080fd5b505afa158015610595573d6000803e3d6000fd5b505050506040513d601f19601f820116820180604052508101906105b99190610fe0565b106105c85760009150506105de565b8083106105d857839150506105de565b60009150505b9392505050565b60008060006105f7888888888861017b565b905060006106068989886104d1565b919350909150505b9550959350505050565b600080610623610edf565b61062c88610a0d565b9050610639816000610c4c565b1561064b57600080925092505061060e565b610653610edf565b61065c86610c63565b9050610666610edf565b60006107158b6001600160a01b031663193501146040518163ffffffff1660e01b815260040160206040518083038186803b1580156106a457600080fd5b505afa1580156106b8573d6000803e3d6000fd5b505050506040513d601f19601f820116820180604052508101906106dc9190610fe0565b8c6001600160a01b03166321856b366040518163ffffffff1660e01b815260040160206040518083038186803b15801561028157600080fd5b905061072a8461072483610c63565b90610c91565b91508a6001600160a01b03166364fb2d956040518163ffffffff1660e01b815260040160206040518083038186803b15801561076557600080fd5b505afa158015610779573d6000803e3d6000fd5b505050506040513d601f19601f8201168201806040525081019061079d9190610fe0565b8911156108475760006108218c6001600160a01b03166364fb2d956040518163ffffffff1660e01b815260040160206040518083038186803b1580156107e257600080fd5b505afa1580156107f6573d6000803e3d6000fd5b505050506040513d601f19601f8201168201806040525081019061081a9190610fe0565b8b90610bac565b905061084361083c6201518061083684610c63565b90610ccf565b8490610cf0565b9250505b61084f610edf565b61085888610c63565b9050610862610edf565b61086c8486610d13565b156108825761087b6000610c63565b90506108a5565b6108a261088f6001610c63565b61089d84610724888a610d1b565b610d3e565b90505b6108ad610edf565b6108cc670de0b6b3a76400006108368f85610d5590919063ffffffff16565b905060006108e7670de0b6b3a7640000610836856064610d55565b519151919f919e50909c50505050505050505050505050565b60008061098086876001600160a01b031663b69ef8a86040518163ffffffff1660e01b815260040160206040518083038186803b15801561094057600080fd5b505afa158015610954573d6000803e3d6000fd5b505050506040513d601f19601f820116820180604052508101906109789190610fe0565b878787610618565b9150915094509492505050565b610995610ef2565b8460006109a28583610c3d565b90506109ae8282610bac565b915060006109bc8584610c3d565b90506109c88382610bac565b925060006109d68883610bac565b905060006109e48583610c3d565b604080516060810182529586526020860194909452928401929092525090979650505050505050565b610a15610edf565b6000610b0e670de0b6b3a7640000610213856001600160a01b031663b39699926040518163ffffffff1660e01b815260040160206040518083038186803b158015610a5f57600080fd5b505afa158015610a73573d6000803e3d6000fd5b505050506040513d601f19601f82011682018060405250810190610a979190610fe0565b866001600160a01b031663b69ef8a86040518163ffffffff1660e01b815260040160206040518083038186803b158015610ad057600080fd5b505afa158015610ae4573d6000803e3d6000fd5b505050506040513d601f19601f82011682018060405250810190610b089190610fe0565b90610bd1565b9050610b18610edf565b610b2761016d61083684610c63565b9050610ba4846001600160a01b031663193501146040518163ffffffff1660e01b815260040160206040518083038186803b158015610b6557600080fd5b505afa158015610b79573d6000803e3d6000fd5b505050506040513d601f19601f82011682018060405250810190610b9d9190610fe0565b8290610d76565b949350505050565b6000610bc8838360405180602001604052806000815250610d90565b90505b92915050565b600082610be057506000610bcb565b82820282848281610bed57fe5b0414610bc857600080fd5b6000610bc8838360405180602001604052806000815250610dc5565b600082820183811015610bc857600080fd5b600081831015610c365781610bc8565b5090919050565b6000818310610c365781610bc8565b6000610c5782610c63565b51835114905092915050565b610c6b610edf565b604080516020810190915280610c8984670de0b6b3a7640000610dfc565b905292915050565b610c99610edf565b6040805160208101909152825184518291610cc691610cc090670de0b6b3a7640000610dfc565b90610e36565b90529392505050565b610cd7610edf565b604080516020810190915283518190610cc69085610e36565b610cf8610edf565b6040805160208101909152825184518291610cc69190610e78565b519051111590565b610d23610edf565b6040805160208101909152825184518291610cc69190610e9d565b610d46610edf565b8151835110610c365781610bc8565b610d5d610edf565b604080516020810190915283518190610cc69085610dfc565b610d7e610edf565b610bc883610d8b84610c63565b610cf0565b60008184841115610dbd5760405162461bcd60e51b8152600401610db49190611029565b60405180910390fd5b505050900390565b60008183610de65760405162461bcd60e51b8152600401610db49190611029565b506000838581610df257fe5b0495945050505050565b600082610e0b57506000610bcb565b82820282848281610e1857fe5b0414610bc85760405162461bcd60e51b8152600401610db4906110b3565b6000610bc883836040518060400160405280601a81526020017f536166654d6174683a206469766973696f6e206279207a65726f000000000000815250610dc5565b600082820183811015610bc85760405162461bcd60e51b8152600401610db49061107c565b6000610bc883836040518060400160405280601e81526020017f536166654d6174683a207375627472616374696f6e206f766572666c6f770000815250610d90565b6040518060200160405280600081525090565b60405180606001604052806000815260200160008152602001600081525090565b600060208284031215610f24578081fd5b8135610bc881611136565b600080600060608486031215610f43578182fd5b8335610f4e81611136565b95602085013595506040909401359392505050565b60008060008060808587031215610f78578081fd5b8435610f8381611136565b966020860135965060408601359560600135945092505050565b600080600080600060a08688031215610fb4578081fd5b8535610fbf81611136565b97602087013597506040870135966060810135965060800135945092505050565b600060208284031215610ff1578081fd5b5051919050565b6000806000806080858703121561100d578384fd5b5050823594602084013594506040840135936060013592509050565b6000602080835283518082850152825b8181101561105557858101830151858201604001528201611039565b818111156110665783604083870101525b50601f01601f1916929092016040019392505050565b6020808252601b908201527f536166654d6174683a206164646974696f6e206f766572666c6f770000000000604082015260600190565b60208082526021908201527f536166654d6174683a206d756c7469706c69636174696f6e206f766572666c6f6040820152607760f81b606082015260800190565b81518152602080830151908201526040918201519181019190915260600190565b9051815260200190565b90815260200190565b918252602082015260400190565b6001600160a01b038116811461114b57600080fd5b5056fea2646970667358221220c4e8c9445f0e2351245fad1978829026452e599b668aa6898e9a728383217e8e64736f6c634300060c0033",
  "devdoc": {
    "author": "Goldfinch",
    "kind": "dev",
    "methods": {},
    "title": "The Accountant",
    "version": 1
  },
  "userdoc": {
    "kind": "user",
    "methods": {},
    "notice": "Library for handling key financial calculations, such as interest and principal accrual.",
    "version": 1
  },
  "storageLayout": {
    "storage": [],
    "types": null
  }
}