{
  "address": "0xB495eb987E053368624cf7FD9bd09453Bc0043C2",
  "abi": [
    {
      "anonymous": false,
      "inputs": [
        {
          "indexed": true,
          "internalType": "address",
          "name": "owner",
          "type": "address"
        },
        {
          "indexed": true,
          "internalType": "uint256",
          "name": "tokenId",
          "type": "uint256"
        },
        {
          "indexed": false,
          "internalType": "uint256",
          "name": "amountOfTranchedPoolRewards",
          "type": "uint256"
        },
        {
          "indexed": false,
          "internalType": "uint256",
          "name": "amountOfSeniorPoolRewards",
          "type": "uint256"
        }
      ],
      "name": "BackerRewardsClaimed",
      "type": "event"
    },
    {
      "anonymous": false,
      "inputs": [
        {
          "indexed": true,
          "internalType": "address",
          "name": "owner",
          "type": "address"
        },
        {
          "indexed": false,
          "internalType": "uint256",
          "name": "maxInterestDollarsEligible",
          "type": "uint256"
        }
      ],
      "name": "BackerRewardsSetMaxInterestDollarsEligible",
      "type": "event"
    },
    {
      "anonymous": false,
      "inputs": [
        {
          "indexed": true,
          "internalType": "address",
          "name": "owner",
          "type": "address"
        },
        {
          "indexed": false,
          "internalType": "uint256",
          "name": "totalInterestReceived",
          "type": "uint256"
        }
      ],
      "name": "BackerRewardsSetTotalInterestReceived",
      "type": "event"
    },
    {
      "anonymous": false,
      "inputs": [
        {
          "indexed": true,
          "internalType": "address",
          "name": "owner",
          "type": "address"
        },
        {
          "indexed": false,
          "internalType": "uint256",
          "name": "totalRewards",
          "type": "uint256"
        },
        {
          "indexed": false,
          "internalType": "uint256",
          "name": "totalRewardPercentOfTotalGFI",
          "type": "uint256"
        }
      ],
      "name": "BackerRewardsSetTotalRewards",
      "type": "event"
    },
    {
      "anonymous": false,
      "inputs": [
        {
          "indexed": false,
          "internalType": "address",
          "name": "account",
          "type": "address"
        }
      ],
      "name": "Paused",
      "type": "event"
    },
    {
      "anonymous": false,
      "inputs": [
        {
          "indexed": true,
          "internalType": "bytes32",
          "name": "role",
          "type": "bytes32"
        },
        {
          "indexed": true,
          "internalType": "address",
          "name": "account",
          "type": "address"
        },
        {
          "indexed": true,
          "internalType": "address",
          "name": "sender",
          "type": "address"
        }
      ],
      "name": "RoleGranted",
      "type": "event"
    },
    {
      "anonymous": false,
      "inputs": [
        {
          "indexed": true,
          "internalType": "bytes32",
          "name": "role",
          "type": "bytes32"
        },
        {
          "indexed": true,
          "internalType": "address",
          "name": "account",
          "type": "address"
        },
        {
          "indexed": true,
          "internalType": "address",
          "name": "sender",
          "type": "address"
        }
      ],
      "name": "RoleRevoked",
      "type": "event"
    },
    {
      "anonymous": false,
      "inputs": [],
      "name": "SafetyCheckTriggered",
      "type": "event"
    },
    {
      "anonymous": false,
      "inputs": [
        {
          "indexed": false,
          "internalType": "address",
          "name": "account",
          "type": "address"
        }
      ],
      "name": "Unpaused",
      "type": "event"
    },
    {
      "inputs": [],
      "name": "DEFAULT_ADMIN_ROLE",
      "outputs": [
        {
          "internalType": "bytes32",
          "name": "",
          "type": "bytes32"
        }
      ],
      "stateMutability": "view",
      "type": "function"
    },
    {
      "inputs": [],
      "name": "OWNER_ROLE",
      "outputs": [
        {
          "internalType": "bytes32",
          "name": "",
          "type": "bytes32"
        }
      ],
      "stateMutability": "view",
      "type": "function"
    },
    {
      "inputs": [],
      "name": "PAUSER_ROLE",
      "outputs": [
        {
          "internalType": "bytes32",
          "name": "",
          "type": "bytes32"
        }
      ],
      "stateMutability": "view",
      "type": "function"
    },
    {
      "inputs": [
        {
          "internalType": "address",
          "name": "owner",
          "type": "address"
        }
      ],
      "name": "__BaseUpgradeablePausable__init",
      "outputs": [],
      "stateMutability": "nonpayable",
      "type": "function"
    },
    {
      "inputs": [],
      "name": "__PauserPausable__init",
      "outputs": [],
      "stateMutability": "nonpayable",
      "type": "function"
    },
    {
      "inputs": [
        {
          "internalType": "address",
          "name": "owner",
          "type": "address"
        },
        {
          "internalType": "contract GoldfinchConfig",
          "name": "_config",
          "type": "address"
        }
      ],
      "name": "__initialize__",
      "outputs": [],
      "stateMutability": "nonpayable",
      "type": "function"
    },
    {
      "inputs": [
        {
          "internalType": "uint256",
          "name": "_interestPaymentAmount",
          "type": "uint256"
        }
      ],
      "name": "allocateRewards",
      "outputs": [],
      "stateMutability": "nonpayable",
      "type": "function"
    },
    {
      "inputs": [
        {
          "internalType": "uint256",
          "name": "tokenId",
          "type": "uint256"
        }
      ],
      "name": "clearTokenInfo",
      "outputs": [],
      "stateMutability": "nonpayable",
      "type": "function"
    },
    {
      "inputs": [],
      "name": "config",
      "outputs": [
        {
          "internalType": "contract GoldfinchConfig",
          "name": "",
          "type": "address"
        }
      ],
      "stateMutability": "view",
      "type": "function"
    },
    {
      "inputs": [
        {
          "internalType": "contract ITranchedPool",
          "name": "pool",
          "type": "address"
        },
        {
          "internalType": "uint256",
          "name": "fiduSharePriceAtDrawdown",
          "type": "uint256"
        },
        {
          "internalType": "uint256",
          "name": "principalDeployedAtDrawdown",
          "type": "uint256"
        },
        {
          "internalType": "uint256",
          "name": "rewardsAccumulatorAtDrawdown",
          "type": "uint256"
        }
      ],
      "name": "forceInitializeStakingRewardsPoolInfo",
      "outputs": [],
      "stateMutability": "nonpayable",
      "type": "function"
    },
    {
      "inputs": [
        {
          "internalType": "contract ITranchedPool",
          "name": "pool",
          "type": "address"
        }
      ],
      "name": "getBackerStakingRewardsPoolInfo",
      "outputs": [
        {
          "components": [
            {
              "internalType": "uint256",
              "name": "accumulatedRewardsPerTokenAtLastCheckpoint",
              "type": "uint256"
            },
            {
              "internalType": "uint256",
              "name": "lastUpdateTime",
              "type": "uint256"
            },
            {
              "components": [
                {
                  "internalType": "uint256",
                  "name": "fiduSharePriceAtDrawdown",
                  "type": "uint256"
                },
                {
                  "internalType": "uint256",
                  "name": "principalDeployedAtLastCheckpoint",
                  "type": "uint256"
                },
                {
                  "internalType": "uint256",
                  "name": "accumulatedRewardsPerTokenAtDrawdown",
                  "type": "uint256"
                },
                {
                  "internalType": "uint256",
                  "name": "accumulatedRewardsPerTokenAtLastCheckpoint",
                  "type": "uint256"
                },
                {
                  "internalType": "uint256",
                  "name": "unrealizedAccumulatedRewardsPerTokenAtLastCheckpoint",
                  "type": "uint256"
                }
              ],
              "internalType": "struct IBackerRewards.StakingRewardsSliceInfo[]",
              "name": "slicesInfo",
              "type": "tuple[]"
            }
          ],
          "internalType": "struct IBackerRewards.StakingRewardsPoolInfo",
          "name": "",
          "type": "tuple"
        }
      ],
      "stateMutability": "view",
      "type": "function"
    },
    {
      "inputs": [
        {
          "internalType": "bytes32",
          "name": "role",
          "type": "bytes32"
        }
      ],
      "name": "getRoleAdmin",
      "outputs": [
        {
          "internalType": "bytes32",
          "name": "",
          "type": "bytes32"
        }
      ],
      "stateMutability": "view",
      "type": "function"
    },
    {
      "inputs": [
        {
          "internalType": "bytes32",
          "name": "role",
          "type": "bytes32"
        },
        {
          "internalType": "uint256",
          "name": "index",
          "type": "uint256"
        }
      ],
      "name": "getRoleMember",
      "outputs": [
        {
          "internalType": "address",
          "name": "",
          "type": "address"
        }
      ],
      "stateMutability": "view",
      "type": "function"
    },
    {
      "inputs": [
        {
          "internalType": "bytes32",
          "name": "role",
          "type": "bytes32"
        }
      ],
      "name": "getRoleMemberCount",
      "outputs": [
        {
          "internalType": "uint256",
          "name": "",
          "type": "uint256"
        }
      ],
      "stateMutability": "view",
      "type": "function"
    },
    {
      "inputs": [
        {
          "internalType": "uint256",
          "name": "poolTokenId",
          "type": "uint256"
        }
      ],
      "name": "getStakingRewardsTokenInfo",
      "outputs": [
        {
          "components": [
            {
              "internalType": "uint256",
              "name": "accumulatedRewardsPerTokenAtLastWithdraw",
              "type": "uint256"
            }
          ],
          "internalType": "struct IBackerRewards.StakingRewardsTokenInfo",
          "name": "",
          "type": "tuple"
        }
      ],
      "stateMutability": "view",
      "type": "function"
    },
    {
      "inputs": [
        {
          "internalType": "uint256",
          "name": "poolTokenId",
          "type": "uint256"
        }
      ],
      "name": "getTokenInfo",
      "outputs": [
        {
          "components": [
            {
              "internalType": "uint256",
              "name": "rewardsClaimed",
              "type": "uint256"
            },
            {
              "internalType": "uint256",
              "name": "accRewardsPerPrincipalDollarAtMint",
              "type": "uint256"
            }
          ],
          "internalType": "struct IBackerRewards.BackerRewardsTokenInfo",
          "name": "",
          "type": "tuple"
        }
      ],
      "stateMutability": "view",
      "type": "function"
    },
    {
      "inputs": [
        {
          "internalType": "bytes32",
          "name": "role",
          "type": "bytes32"
        },
        {
          "internalType": "address",
          "name": "account",
          "type": "address"
        }
      ],
      "name": "grantRole",
      "outputs": [],
      "stateMutability": "nonpayable",
      "type": "function"
    },
    {
      "inputs": [
        {
          "internalType": "bytes32",
          "name": "role",
          "type": "bytes32"
        },
        {
          "internalType": "address",
          "name": "account",
          "type": "address"
        }
      ],
      "name": "hasRole",
      "outputs": [
        {
          "internalType": "bool",
          "name": "",
          "type": "bool"
        }
      ],
      "stateMutability": "view",
      "type": "function"
    },
    {
      "inputs": [],
      "name": "isAdmin",
      "outputs": [
        {
          "internalType": "bool",
          "name": "",
          "type": "bool"
        }
      ],
      "stateMutability": "view",
      "type": "function"
    },
    {
      "inputs": [],
      "name": "maxInterestDollarsEligible",
      "outputs": [
        {
          "internalType": "uint256",
          "name": "",
          "type": "uint256"
        }
      ],
      "stateMutability": "view",
      "type": "function"
    },
    {
      "inputs": [
        {
          "internalType": "uint256",
          "name": "sliceIndex",
          "type": "uint256"
        }
      ],
      "name": "onTranchedPoolDrawdown",
      "outputs": [],
      "stateMutability": "nonpayable",
      "type": "function"
    },
    {
      "inputs": [],
      "name": "pause",
      "outputs": [],
      "stateMutability": "nonpayable",
      "type": "function"
    },
    {
      "inputs": [],
      "name": "paused",
      "outputs": [
        {
          "internalType": "bool",
          "name": "",
          "type": "bool"
        }
      ],
      "stateMutability": "view",
      "type": "function"
    },
    {
      "inputs": [
        {
          "internalType": "contract ITranchedPool",
          "name": "",
          "type": "address"
        }
      ],
      "name": "poolStakingRewards",
      "outputs": [
        {
          "internalType": "uint256",
          "name": "accumulatedRewardsPerTokenAtLastCheckpoint",
          "type": "uint256"
        },
        {
          "internalType": "uint256",
          "name": "lastUpdateTime",
          "type": "uint256"
        }
      ],
      "stateMutability": "view",
      "type": "function"
    },
    {
      "inputs": [
        {
          "internalType": "uint256",
          "name": "tokenId",
          "type": "uint256"
        }
      ],
      "name": "poolTokenClaimableRewards",
      "outputs": [
        {
          "internalType": "uint256",
          "name": "",
          "type": "uint256"
        }
      ],
      "stateMutability": "view",
      "type": "function"
    },
    {
      "inputs": [
        {
          "internalType": "address",
          "name": "",
          "type": "address"
        }
      ],
      "name": "pools",
      "outputs": [
        {
          "internalType": "uint256",
          "name": "accRewardsPerPrincipalDollar",
          "type": "uint256"
        }
      ],
      "stateMutability": "view",
      "type": "function"
    },
    {
      "inputs": [
        {
          "internalType": "bytes32",
          "name": "role",
          "type": "bytes32"
        },
        {
          "internalType": "address",
          "name": "account",
          "type": "address"
        }
      ],
      "name": "renounceRole",
      "outputs": [],
      "stateMutability": "nonpayable",
      "type": "function"
    },
    {
      "inputs": [
        {
          "internalType": "bytes32",
          "name": "role",
          "type": "bytes32"
        },
        {
          "internalType": "address",
          "name": "account",
          "type": "address"
        }
      ],
      "name": "revokeRole",
      "outputs": [],
      "stateMutability": "nonpayable",
      "type": "function"
    },
    {
      "inputs": [
        {
          "components": [
            {
              "internalType": "uint256",
              "name": "rewardsClaimed",
              "type": "uint256"
            },
            {
              "internalType": "uint256",
              "name": "accRewardsPerPrincipalDollarAtMint",
              "type": "uint256"
            }
          ],
          "internalType": "struct IBackerRewards.BackerRewardsTokenInfo",
          "name": "originalBackerRewardsTokenInfo",
          "type": "tuple"
        },
        {
          "components": [
            {
              "internalType": "uint256",
              "name": "accumulatedRewardsPerTokenAtLastWithdraw",
              "type": "uint256"
            }
          ],
          "internalType": "struct IBackerRewards.StakingRewardsTokenInfo",
          "name": "originalStakingRewardsTokenInfo",
          "type": "tuple"
        },
        {
          "internalType": "uint256",
          "name": "newTokenId",
          "type": "uint256"
        },
        {
          "internalType": "uint256",
          "name": "newRewardsClaimed",
          "type": "uint256"
        }
      ],
      "name": "setBackerAndStakingRewardsTokenInfoOnSplit",
      "outputs": [],
      "stateMutability": "nonpayable",
      "type": "function"
    },
    {
      "inputs": [
        {
          "internalType": "uint256",
          "name": "_maxInterestDollarsEligible",
          "type": "uint256"
        }
      ],
      "name": "setMaxInterestDollarsEligible",
      "outputs": [],
      "stateMutability": "nonpayable",
      "type": "function"
    },
    {
      "inputs": [
        {
          "internalType": "address",
          "name": "poolAddress",
          "type": "address"
        },
        {
          "internalType": "uint256",
          "name": "tokenId",
          "type": "uint256"
        }
      ],
      "name": "setPoolTokenAccRewardsPerPrincipalDollarAtMint",
      "outputs": [],
      "stateMutability": "nonpayable",
      "type": "function"
    },
    {
      "inputs": [
        {
          "internalType": "uint256",
          "name": "_totalInterestReceived",
          "type": "uint256"
        }
      ],
      "name": "setTotalInterestReceived",
      "outputs": [],
      "stateMutability": "nonpayable",
      "type": "function"
    },
    {
      "inputs": [
        {
          "internalType": "uint256",
          "name": "_totalRewards",
          "type": "uint256"
        }
      ],
      "name": "setTotalRewards",
      "outputs": [],
      "stateMutability": "nonpayable",
      "type": "function"
    },
    {
      "inputs": [
        {
          "internalType": "uint256",
          "name": "tokenId",
          "type": "uint256"
        }
      ],
      "name": "stakingRewardsClaimed",
      "outputs": [
        {
          "internalType": "uint256",
          "name": "",
          "type": "uint256"
        }
      ],
      "stateMutability": "view",
      "type": "function"
    },
    {
      "inputs": [
        {
          "internalType": "uint256",
          "name": "tokenId",
          "type": "uint256"
        }
      ],
      "name": "stakingRewardsEarnedSinceLastWithdraw",
      "outputs": [
        {
          "internalType": "uint256",
          "name": "",
          "type": "uint256"
        }
      ],
      "stateMutability": "view",
      "type": "function"
    },
    {
      "inputs": [
        {
          "internalType": "uint256",
          "name": "",
          "type": "uint256"
        }
      ],
      "name": "tokenStakingRewards",
      "outputs": [
        {
          "internalType": "uint256",
          "name": "accumulatedRewardsPerTokenAtLastWithdraw",
          "type": "uint256"
        }
      ],
      "stateMutability": "view",
      "type": "function"
    },
    {
      "inputs": [
        {
          "internalType": "uint256",
          "name": "",
          "type": "uint256"
        }
      ],
      "name": "tokens",
      "outputs": [
        {
          "internalType": "uint256",
          "name": "rewardsClaimed",
          "type": "uint256"
        },
        {
          "internalType": "uint256",
          "name": "accRewardsPerPrincipalDollarAtMint",
          "type": "uint256"
        }
      ],
      "stateMutability": "view",
      "type": "function"
    },
    {
      "inputs": [],
      "name": "totalInterestReceived",
      "outputs": [
        {
          "internalType": "uint256",
          "name": "",
          "type": "uint256"
        }
      ],
      "stateMutability": "view",
      "type": "function"
    },
    {
      "inputs": [],
      "name": "totalRewardPercentOfTotalGFI",
      "outputs": [
        {
          "internalType": "uint256",
          "name": "",
          "type": "uint256"
        }
      ],
      "stateMutability": "view",
      "type": "function"
    },
    {
      "inputs": [],
      "name": "totalRewards",
      "outputs": [
        {
          "internalType": "uint256",
          "name": "",
          "type": "uint256"
        }
      ],
      "stateMutability": "view",
      "type": "function"
    },
    {
      "inputs": [],
      "name": "unpause",
      "outputs": [],
      "stateMutability": "nonpayable",
      "type": "function"
    },
    {
      "inputs": [
        {
          "internalType": "uint256",
          "name": "tokenId",
          "type": "uint256"
        }
      ],
      "name": "withdraw",
      "outputs": [
        {
          "internalType": "uint256",
          "name": "",
          "type": "uint256"
        }
      ],
      "stateMutability": "nonpayable",
      "type": "function"
    },
    {
      "inputs": [
        {
          "internalType": "uint256[]",
          "name": "tokenIds",
          "type": "uint256[]"
        }
      ],
      "name": "withdrawMultiple",
      "outputs": [],
      "stateMutability": "nonpayable",
      "type": "function"
    }
  ],
  "transactionHash": "0x43c7d621c56e864f6eeebbd7bbb50b3edf1e29ffbf04421c415c9b548c1f2547",
  "args": [],
  "numDeployments": 2,
  "solcInputHash": "679e620d0a3dd88ee1aa73929ab29382",
  "bytecode": "0x608060405234801561001057600080fd5b50614c13806100206000396000f3fe608060405234801561001057600080fd5b50600436106102695760003560e01c80636efbe64311610151578063b6db75a0116100c3578063d547741f11610087578063d547741f1461050e578063dfc1f3a814610521578063e149ee8014610541578063e58378bb14610554578063e5b791061461055c578063e63ab1e91461056f57610269565b8063b6db75a0146104b8578063b6f8fd40146104c0578063ca15c873146104d3578063ccf5a971146104e6578063d3d64722146104ee57610269565b80638c7a63ae116101155780638c7a63ae146104445780639010d07c1461046457806391d1485414610477578063927356751461048a578063a217fddf1461049d578063a4063dbc146104a557610269565b80636efbe643146103f957806371d5a2531461040c57806379502c551461041f5780638456cb591461043457806387f5769e1461043c57610269565b80632f2ff15d116101ea578063440a5aeb116101ae578063440a5aeb146103905780634f64b2be146103a3578063526d81f6146103b65780635c975abb146103be5780635e3f5d64146103d35780635f464bb2146103e657610269565b80632f2ff15d1461032e57806334cbd4581461034157806336568abe14610362578063369dfa84146103755780633f4ba83a1461038857610269565b8063248a9ca311610231578063248a9ca3146102cf5780632808e69e146102e25780632879e4de146102f557806328fc33c7146103085780632e1a7d4d1461031b57610269565b8063097616a31461026e5780630c9dbe94146102835780630de74932146102a15780630e15561a146102b4578063242a7286146102bc575b600080fd5b61028161027c36600461402a565b610577565b005b61028b6106b0565b604051610298919061435d565b60405180910390f35b61028b6102af366004614154565b6106b7565b61028b610946565b6102816102ca366004614154565b61094d565b61028b6102dd366004614154565b6109c2565b61028b6102f0366004614154565b6109d7565b610281610303366004614154565b610c5c565b610281610316366004614154565b610cc6565b61028b610329366004614154565b610dcd565b61028161033c36600461416c565b61134a565b61035461034f36600461402a565b61138e565b604051610298929190614b33565b61028161037036600461416c565b6113a8565b61028b610383366004614154565b6113ea565b61028161153a565b61028161039e3660046141b1565b61157a565b6103546103b1366004614154565b6117b8565b6102816117d2565b6103c661185d565b6040516102989190614352565b6102816103e13660046141eb565b611866565b61028b6103f4366004614154565b6118ef565b61028161040736600461409a565b611902565b61028161041a366004614154565b611b21565b610427611b8d565b6040516102989190614325565b610281611b9d565b61028b611bdb565b610457610452366004614154565b611be2565b6040516102989190614a85565b610427610472366004614190565b611c15565b6103c661048536600461416c565b611c36565b610281610498366004614154565b611c4e565b61028b611d73565b61028b6104b336600461402a565b611d78565b6103c6611d8b565b6102816104ce366004614062565b611dac565b61028b6104e1366004614154565b611e92565b61028b611ea9565b6105016104fc36600461402a565b611eb0565b6040516102989190614a9c565b61028161051c36600461416c565b611f94565b61053461052f366004614154565b611fce565b6040516102989190614b29565b61028161054f366004614154565b611ff9565b61028b6123c2565b61028161056a3660046140c5565b6123d4565b61028b612420565b600054610100900460ff16806105905750610590612432565b8061059e575060005460ff16155b6105c35760405162461bcd60e51b81526004016105ba9061480a565b60405180910390fd5b600054610100900460ff161580156105ee576000805460ff1961ff0019909116610100171660011790555b6001600160a01b0382166106145760405162461bcd60e51b81526004016105ba90614723565b61061c612438565b6106246124b9565b61062c612545565b610644600080516020614b9e83398151915283611384565b61065c600080516020614bbe83398151915283611384565b610682600080516020614bbe833981519152600080516020614b9e8339815191526125d4565b61069a600080516020614b9e833981519152806125d4565b80156106ac576000805461ff00191690555b5050565b6101c75481565b60006106c1613f75565b6101c3546106d7906001600160a01b03166125e9565b6001600160a01b0316638c7a63ae846040518263ffffffff1660e01b8152600401610702919061435d565b60a06040518083038186803b15801561071a57600080fd5b505afa15801561072e573d6000803e3d6000fd5b505050506040513d601f19601f820116820180604052508101906107529190614260565b905061075d816125f4565b1561076c576000915050610941565b8051602082015160009061077f90612610565b905061078a82612622565b158061079d575061079b8282612714565b155b156107ae5760009350505050610941565b6107b6613fad565b6101ca6000846001600160a01b03166001600160a01b03168152602001908152602001600020604051806060016040529081600082015481526020016001820154815260200160028201805480602002602001604051908101604052809291908181526020016000905b8282101561088457838290600052602060002090600502016040518060a00160405290816000820154815260200160018201548152602001600282015481526020016003820154815260200160048201548152505081526020019060010190610820565b50505050815250509050610896613fce565b816040015183815181106108a657fe5b602002602001015190506108b8613ffd565b5060008781526101cb602090815260408083208151928301909152548152906108e1838561282e565b905060006108ef838561286c565b905060006108fd83836128d6565b905060006109138a6040015187600001516128f2565b90506000610933670de0b6b3a764000061092d848661290d565b90612934565b9b5050505050505050505050505b919050565b6101c45481565b610955611d8b565b6109715760405162461bcd60e51b81526004016105ba90614957565b6101c581905561097f612950565b6001600160a01b03167fbd23f227ee01d5b74d28337b4aa192bdb10824b0f2ad21e725a2f08af91ec81b826040516109b7919061435d565b60405180910390a250565b60009081526065602052604090206002015490565b6101c35460009081906109f2906001600160a01b03166125e9565b90506109fc613f75565b60405163463d31d760e11b81526001600160a01b03831690638c7a63ae90610a2890879060040161435d565b60a06040518083038186803b158015610a4057600080fd5b505afa158015610a54573d6000803e3d6000fd5b505050506040513d601f19601f82011682018060405250810190610a789190614260565b9050610a83816125f4565b15610a9357600092505050610941565b80516020820151600090610aa690612610565b9050610ab182612622565b1580610ac45750610ac28282612714565b155b15610ad6576000945050505050610941565b610ade613fad565b6101ca6000846001600160a01b03166001600160a01b03168152602001908152602001600020604051806060016040529081600082015481526020016001820154815260200160028201805480602002602001604051908101604052809291908181526020016000905b82821015610bac57838290600052602060002090600502016040518060a00160405290816000820154815260200160018201548152602001600282015481526020016003820154815260200160048201548152505081526020019060010190610b48565b50505050815250509050610bbe613fce565b81604001518381518110610bce57fe5b60200260200101519050610be0613ffd565b5060008881526101cb60209081526040808320815192830182525482528301519091610c0c838561286c565b90506000610c1a82846128d6565b90506000610c308a6040015187600001516128f2565b90506000610c4a670de0b6b3a764000061092d848661290d565b9e9d5050505050505050505050505050565b610c64611d8b565b610c805760405162461bcd60e51b81526004016105ba90614957565b6101c6819055610c8e612950565b6001600160a01b03167feabaa681e9990f0da888d0feb7ec727809a7e832013b120a9a248ba6b16d5f44826040516109b7919061435d565b6101c354610cdc906001600160a01b03166125e9565b6001600160a01b031663b5ada6d8610cf2612950565b6040518263ffffffff1660e01b8152600401610d0e9190614325565b60206040518083038186803b158015610d2657600080fd5b505afa158015610d3a573d6000803e3d6000fd5b505050506040513d601f19601f82011682018060405250810190610d5e9190614134565b610d7a5760405162461bcd60e51b81526004016105ba906145b0565b60c95460ff16610d9c5760405162461bcd60e51b81526004016105ba90614920565b60c9805460ff191690558015610db557610db581612954565b610dbd612a8a565b5060c9805460ff19166001179055565b60975460009060ff1615610df35760405162461bcd60e51b81526004016105ba906146c2565b60c95460ff16610e155760405162461bcd60e51b81526004016105ba90614920565b60c9805460ff191690556101c354600090610e38906001600160a01b03166125e9565b9050610e42613f75565b60405163463d31d760e11b81526001600160a01b03831690638c7a63ae90610e6e90879060040161435d565b60a06040518083038186803b158015610e8657600080fd5b505afa158015610e9a573d6000803e3d6000fd5b505050506040513d601f19601f82011682018060405250810190610ebe9190614260565b80516101c35491925090610eda906001600160a01b03166125e9565b6001600160a01b031663b5ada6d8826040518263ffffffff1660e01b8152600401610f059190614325565b60206040518083038186803b158015610f1d57600080fd5b505afa158015610f31573d6000803e3d6000fd5b505050506040513d601f19601f82011682018060405250810190610f559190614134565b610f715760405162461bcd60e51b81526004016105ba906145b0565b6040516331a9108f60e11b81526001600160a01b03841690636352211e90610f9d90889060040161435d565b60206040518083038186803b158015610fb557600080fd5b505afa158015610fc9573d6000803e3d6000fd5b505050506040513d601f19601f82011682018060405250810190610fed9190614046565b6001600160a01b0316336001600160a01b03161461101d5760405162461bcd60e51b81526004016105ba90614758565b6000819050806001600160a01b0316635c975abb6040518163ffffffff1660e01b815260040160206040518083038186803b15801561105b57600080fd5b505afa15801561106f573d6000803e3d6000fd5b505050506040513d601f19601f820116820180604052508101906110939190614134565b156110b05760405162461bcd60e51b81526004016105ba906147dc565b6000829050806001600160a01b03166347195e136040518163ffffffff1660e01b815260040160206040518083038186803b1580156110ee57600080fd5b505afa158015611102573d6000803e3d6000fd5b505050506040513d601f19601f820116820180604052508101906111269190614046565b6001600160a01b03166381c17a156040518163ffffffff1660e01b815260040160206040518083038186803b15801561115e57600080fd5b505afa158015611172573d6000803e3d6000fd5b505050506040513d601f19601f820116820180604052508101906111969190614134565b156111b35760405162461bcd60e51b81526004016105ba90614560565b6111bc846125f4565b156111d95760405162461bcd60e51b81526004016105ba906149f1565b60006111e4886113ea565b905060006111f1896106b7565b905060006111ff8383612d03565b60008b81526101c8602052604090205490915061121c8185612d03565b60008c81526101c86020526040902055821561123b5761123b8b612d15565b6040516331a9108f60e11b81526112e3906001600160a01b038b1690636352211e9061126b908f9060040161435d565b60206040518083038186803b15801561128357600080fd5b505afa158015611297573d6000803e3d6000fd5b505050506040513d601f19601f820116820180604052508101906112bb9190614046565b6101c35484906112d3906001600160a01b0316612f53565b6001600160a01b03169190612f5e565b8a6112ec612950565b6001600160a01b03167ff282434f7158cb3a5501455a72b1946fe84ef5f1e84350beae1f3bf45ffc583e8686604051611326929190614b33565b60405180910390a35097505050505050505060c9805460ff19166001179055919050565b60008281526065602052604090206002015461136890610485612950565b6113845760405162461bcd60e51b81526004016105ba90614448565b6106ac8282612f79565b6101ca602052600090815260409020805460019091015482565b6113b0612950565b6001600160a01b0316816001600160a01b0316146113e05760405162461bcd60e51b81526004016105ba906149a2565b6106ac8282612fe2565b6101c3546000908190611405906001600160a01b03166125e9565b905061140f613f75565b60405163463d31d760e11b81526001600160a01b03831690638c7a63ae9061143b90879060040161435d565b60a06040518083038186803b15801561145357600080fd5b505afa158015611467573d6000803e3d6000fd5b505050506040513d601f19601f8201168201806040525081019061148b9190614260565b9050611496816125f4565b156114a657600092505050610941565b60008481526101c8602090815260408083206001015484516001600160a01b031684526101c99092528220546114db916128d6565b60008681526101c860205260408120549192509061150190670de0b6b3a764000061290d565b9050611530670de0b6b3a764000061092d8361152a86611524896040015161304b565b9061290d565b906128d6565b9695505050505050565b611554600080516020614bbe833981519152610485612950565b6115705760405162461bcd60e51b81526004016105ba90614858565b611578613066565b565b611582611d8b565b61159e5760405162461bcd60e51b81526004016105ba90614957565b6101c3546115b4906001600160a01b03166125e9565b6001600160a01b031663b5ada6d8856040518263ffffffff1660e01b81526004016115df9190614325565b60206040518083038186803b1580156115f757600080fd5b505afa15801561160b573d6000803e3d6000fd5b505050506040513d601f19601f8201168201806040525081019061162f9190614134565b61164b5760405162461bcd60e51b81526004016105ba906145b0565b826116685760405162461bcd60e51b81526004016105ba90614874565b816116855760405162461bcd60e51b81526004016105ba90614874565b806116a25760405162461bcd60e51b81526004016105ba90614874565b6001600160a01b03841660009081526101ca602052604090206002810154600110156116e05760405162461bcd60e51b81526004016105ba9061478f565b600281015482825515156116f2613fce565b6116fd8686866130d2565b9050811561175e57808360020160008154811061171657fe5b906000526020600020906005020160008201518160000155602082015181600101556040820151816002015560608201518160030155608082015181600401559050506117af565b60028084018054600181810183556000928352602092839020855160059093020191825591840151918101919091556040830151918101919091556060820151600382015560808201516004909101555b50505050505050565b6101c8602052600090815260409020805460019091015482565b600054610100900460ff16806117eb57506117eb612432565b806117f9575060005460ff16155b6118155760405162461bcd60e51b81526004016105ba9061480a565b600054610100900460ff16158015611840576000805460ff1961ff0019909116610100171660011790555b6118486124b9565b801561185a576000805461ff00191690555b50565b60975460ff1690565b6101c35461187c906001600160a01b03166125e9565b6001600160a01b0316336001600160a01b0316146118ac5760405162461bcd60e51b81526004016105ba906148c1565b60408051808201825291825260209485015185830190815260009384526101c8865281842092518355516001909201919091556101cb9093529190912090519055565b6101cb6020526000908152604090205481565b6101c354611918906001600160a01b0316613105565b6001600160a01b0316611929612950565b6001600160a01b03161461194f5760405162461bcd60e51b81526004016105ba90614898565b6101c354611965906001600160a01b03166125e9565b6001600160a01b031663b5ada6d8836040518263ffffffff1660e01b81526004016119909190614325565b60206040518083038186803b1580156119a857600080fd5b505afa1580156119bc573d6000803e3d6000fd5b505050506040513d601f19601f820116820180604052508101906119e09190614134565b6119fc5760405162461bcd60e51b81526004016105ba906145b0565b60008181526101c8602052604090206001015415611a19576106ac565b6101c354600090611a32906001600160a01b03166125e9565b9050611a3c613f75565b60405163463d31d760e11b81526001600160a01b03831690638c7a63ae90611a6890869060040161435d565b60a06040518083038186803b158015611a8057600080fd5b505afa158015611a94573d6000803e3d6000fd5b505050506040513d601f19601f82011682018060405250810190611ab89190614260565b905080600001516001600160a01b0316846001600160a01b031614611aef5760405162461bcd60e51b81526004016105ba906143fb565b516001600160a01b031660009081526101c960209081526040808320548584526101c890925290912060010155505050565b6101c354611b37906001600160a01b03166125e9565b6001600160a01b0316336001600160a01b031614611b675760405162461bcd60e51b81526004016105ba906148c1565b60009081526101c8602090815260408083208381556001018390556101cb909152812055565b6101c3546001600160a01b031681565b611bb7600080516020614bbe833981519152610485612950565b611bd35760405162461bcd60e51b81526004016105ba90614858565b611578613185565b6101c65481565b611bea614010565b5060009081526101c86020908152604091829020825180840190935280548352600101549082015290565b6000828152606560205260408120611c2d90836131de565b90505b92915050565b6000828152606560205260408120611c2d90836131ea565b611c56611d8b565b611c725760405162461bcd60e51b81526004016105ba90614957565b6101c48190556101c354600090611c91906001600160a01b0316612f53565b6001600160a01b03166318160ddd6040518163ffffffff1660e01b815260040160206040518083038186803b158015611cc957600080fd5b505afa158015611cdd573d6000803e3d6000fd5b505050506040513d601f19601f82011682018060405250810190611d01919061430d565b9050611d1e60646115248361092d86670de0b6b3a764000061290d565b6101c755611d2a612950565b6001600160a01b03167fa75d65370da375e8498bef76d6c105c80386c2d14e939f1c680da7f9a411c609836101c754604051611d67929190614b33565b60405180910390a25050565b600081565b6101c96020526000908152604090205481565b6000611da7600080516020614b9e833981519152610485612950565b905090565b600054610100900460ff1680611dc55750611dc5612432565b80611dd3575060005460ff16155b611def5760405162461bcd60e51b81526004016105ba9061480a565b600054610100900460ff16158015611e1a576000805460ff1961ff0019909116610100171660011790555b6001600160a01b03831615801590611e3a57506001600160a01b03821615155b611e565760405162461bcd60e51b81526004016105ba906144c5565b611e5f83610577565b6101c380546001600160a01b0319166001600160a01b0384161790558015611e8d576000805461ff00191690555b505050565b6000818152606560205260408120611c30906131ff565b6101c55481565b611eb8613fad565b6101ca6000836001600160a01b03166001600160a01b03168152602001908152602001600020604051806060016040529081600082015481526020016001820154815260200160028201805480602002602001604051908101604052809291908181526020016000905b82821015611f8657838290600052602060002090600502016040518060a00160405290816000820154815260200160018201548152602001600282015481526020016003820154815260200160048201548152505081526020019060010190611f22565b505050915250909392505050565b600082815260656020526040902060020154611fb290610485612950565b6113e05760405162461bcd60e51b81526004016105ba90614672565b611fd6613ffd565b5060009081526101cb602090815260409182902082519182019092529054815290565b6101c35461200f906001600160a01b03166125e9565b6001600160a01b031663b5ada6d8612025612950565b6040518263ffffffff1660e01b81526004016120419190614325565b60206040518083038186803b15801561205957600080fd5b505afa15801561206d573d6000803e3d6000fd5b505050506040513d601f19601f820116820180604052508101906120919190614134565b6120ad5760405162461bcd60e51b81526004016105ba906145b0565b60c95460ff166120cf5760405162461bcd60e51b81526004016105ba90614920565b60c9805460ff1916905560006120e3612950565b905060006120ef61320a565b6001600160a01b03831660009081526101ca60205260409020909150612113613fce565b61211d8486613302565b90506000836001600160a01b031663389621866040518163ffffffff1660e01b815260040160206040518083038186803b15801561215a57600080fd5b505afa15801561216e573d6000803e3d6000fd5b505050506040513d601f19601f82011682018060405250810190612192919061430d565b9050600061224f84604051806060016040529081600082015481526020016001820154815260200160028201805480602002602001604051908101604052809291908181526020016000905b8282101561224257838290600052602060002090600502016040518060a001604052908160008201548152602001600182015481526020016002820154815260200160038201548152602001600482015481525050815260200190600101906121de565b5050505081525050613394565b159050801561226257612262848361339a565b600061226e8789612714565b1590508015612395576101c354600090612290906001600160a01b03166133a5565b9050600061229d866133bd565b90506000826001600160a01b031663872697296040518163ffffffff1660e01b815260040160206040518083038186803b1580156122da57600080fd5b505afa1580156122ee573d6000803e3d6000fd5b505050506040513d601f19601f82011682018060405250810190612312919061430d565b905061231c613fce565b6123278284896130d2565b6001600160a01b038c1660009081526101ca60209081526040808320600290810180546001818101835591865294849020865160059096020194855592850151928401929092558301519082015560608201516003820155608090910151600490910155506123a192505050565b6123a1878960006133fc565b6123ab858461339a565b505060c9805460ff19166001179055505050505050565b600080516020614b9e83398151915281565b806123f15760405162461bcd60e51b81526004016105ba906146ec565b60005b81811015611e8d5761241783838381811061240b57fe5b90506020020135610dcd565b506001016123f4565b600080516020614bbe83398151915281565b303b1590565b600054610100900460ff16806124515750612451612432565b8061245f575060005460ff16155b61247b5760405162461bcd60e51b81526004016105ba9061480a565b600054610100900460ff16158015611848576000805460ff1961ff001990911661010017166001179055801561185a576000805461ff001916905550565b600054610100900460ff16806124d257506124d2612432565b806124e0575060005460ff16155b6124fc5760405162461bcd60e51b81526004016105ba9061480a565b600054610100900460ff16158015612527576000805460ff1961ff0019909116610100171660011790555b6097805460ff19169055801561185a576000805461ff001916905550565b600054610100900460ff168061255e575061255e612432565b8061256c575060005460ff16155b6125885760405162461bcd60e51b81526004016105ba9061480a565b600054610100900460ff161580156125b3576000805460ff1961ff0019909116610100171660011790555b60c9805460ff19166001179055801561185a576000805461ff001916905550565b60009182526065602052604090912060020155565b6000611c3082613105565b6020810151600090612607906002613776565b60011492915050565b6000611c30600261092d8460016128d6565b600061262c613fad565b6101ca6000846001600160a01b03166001600160a01b03168152602001908152602001600020604051806060016040529081600082015481526020016001820154815260200160028201805480602002602001604051908101604052809291908181526020016000905b828210156126fa57838290600052602060002090600502016040518060a00160405290816000820154815260200160018201548152602001600282015481526020016003820154815260200160048201548152505081526020019060010190612696565b5050505081525050905061270d81613394565b9392505050565b600061271e613fad565b6101ca6000856001600160a01b03166001600160a01b03168152602001908152602001600020604051806060016040529081600082015481526020016001820154815260200160028201805480602002602001604051908101604052809291908181526020016000905b828210156127ec57838290600052602060002090600502016040518060a00160405290816000820154815260200160018201548152602001600282015481526020016003820154815260200160048201548152505081526020019060010190612788565b505050508152505090508281604001515111801561282657508060400151838151811061281557fe5b602002602001015160800151600014155b949350505050565b805160009061284f5760405162461bcd60e51b81526004016105ba906145d7565b60608301511580612864578360600151612826565b505051919050565b60008160400151600014156128935760405162461bcd60e51b81526004016105ba9061450f565b82511580156128a85750506040810151611c30565b6040830151845110156128cd5760405162461bcd60e51b81526004016105ba906148e9565b50508151611c30565b6000611c2d838360405180602001604052806000815250613792565b6000611c2d8261092d670de0b6b3a76400006115248761304b565b60008261291c57506000611c30565b8282028284828161292957fe5b0414611c2d57600080fd5b6000611c2d8383604051806020016040528060008152506137be565b3390565b6101c6546101c5546129658261304b565b10612970575061185a565b600061297a612950565b90506000612987846137f5565b6001600160a01b03831660008181526101c960209081526040808320815163dd0ec24160e01b8152915195965087959094612a1c93909263dd0ec2419260048083019392829003018186803b1580156129df57600080fd5b505afa1580156129f3573d6000803e3d6000fd5b505050506040513d601f19601f82011682018060405250810190612a17919061430d565b61304b565b9050670de0b6b3a7640000811015612a5057604051600080516020614b7e83398151915290600090a150505050505061185a565b612a71612a698261092d87670de0b6b3a764000061290d565b835490612d03565b8255612a7d8688612d03565b6101c65550505050505050565b6000612a94612950565b90506000816001600160a01b03166347195e136040518163ffffffff1660e01b815260040160206040518083038186803b158015612ad157600080fd5b505afa158015612ae5573d6000803e3d6000fd5b505050506040513d601f19601f82011682018060405250810190612b099190614046565b9050600080826001600160a01b031663ce78290d6040518163ffffffff1660e01b815260040160206040518083038186803b158015612b4757600080fd5b505afa158015612b5b573d6000803e3d6000fd5b505050506040513d601f19601f82011682018060405250810190612b7f919061430d565b118015612bfc575042826001600160a01b031663ce78290d6040518163ffffffff1660e01b815260040160206040518083038186803b158015612bc157600080fd5b505afa158015612bd5573d6000803e3d6000fd5b505050506040513d601f19601f82011682018060405250810190612bf9919061430d565b11155b8015612c765750816001600160a01b031663193501146040518163ffffffff1660e01b815260040160206040518083038186803b158015612c3c57600080fd5b505afa158015612c50573d6000803e3d6000fd5b505050506040513d601f19601f82011682018060405250810190612c74919061430d565b155b8015612cf05750816001600160a01b03166321856b366040518163ffffffff1660e01b815260040160206040518083038186803b158015612cb657600080fd5b505afa158015612cca573d6000803e3d6000fd5b505050506040513d601f19601f82011682018060405250810190612cee919061430d565b155b90508015611e8d57611e8d8360016139d1565b600082820183811015611c2d57600080fd5b6101c354600090612d2e906001600160a01b03166125e9565b9050612d38613f75565b60405163463d31d760e11b81526001600160a01b03831690638c7a63ae90612d6490869060040161435d565b60a06040518083038186803b158015612d7c57600080fd5b505afa158015612d90573d6000803e3d6000fd5b505050506040513d601f19601f82011682018060405250810190612db49190614260565b9050612dbf816125f4565b15612ddc5760405162461bcd60e51b81526004016105ba906149f1565b8051612de6613fad565b6101ca6000836001600160a01b03166001600160a01b03168152602001908152602001600020604051806060016040529081600082015481526020016001820154815260200160028201805480602002602001604051908101604052809291908181526020016000905b82821015612eb457838290600052602060002090600502016040518060a00160405290816000820154815260200160018201548152602001600282015481526020016003820154815260200160048201548152505081526020019060010190612e50565b505050508152505090506000612ecd8460200151612610565b9050612ed7613fce565b82604001518281518110612ee757fe5b602002602001015190506000612efd828561282e565b60008981526101cb6020526040902054909150811015612f3a57604051600080516020614b7e83398151915290600090a15050505050505061185a565b60008881526101cb602052604090205550505050505050565b6000611c3082613ac9565b611e8d83838360405180602001604052806000815250613ae1565b6000828152606560205260409020612f919082613bb3565b156106ac57612f9e612950565b6001600160a01b0316816001600160a01b0316837f2f8788117e7eff1d82e926ec794901d17c78024a50270940304540a733656f0d60405160405180910390a45050565b6000828152606560205260409020612ffa9082613bc8565b156106ac57613007612950565b6001600160a01b0316816001600160a01b0316837ff6391f5c32d9c69d2a47ea670b442974b53935d1edc7fd64eb21e047a839171b60405160405180910390a45050565b6000611c30620f424061092d84670de0b6b3a764000061290d565b60975460ff166130885760405162461bcd60e51b81526004016105ba90614497565b6097805460ff191690557f5db9ee0a495bf2e6ff9c91a7834c1ba4fdd244a5e8aa4e537bd38aeae4b073aa6130bb612950565b6040516130c89190614325565b60405180910390a1565b6130da613fce565b506040805160a081018252938452602084019290925290820181905260608201819052608082015290565b60006001600160a01b03821663b93f9b0a600c5b6040518263ffffffff1660e01b8152600401613135919061435d565b60206040518083038186803b15801561314d57600080fd5b505afa158015613161573d6000803e3d6000fd5b505050506040513d601f19601f82011682018060405250810190611c309190614046565b60975460ff16156131a85760405162461bcd60e51b81526004016105ba906146c2565b6097805460ff191660011790557f62e78cea01bee320cd4e420270b5ea74000d11b0c9f74754ebdbfc544b05a2586130bb612950565b6000611c2d8383613bdd565b6000611c2d836001600160a01b038416613c22565b6000611c3082613c3a565b6101c3546000908190613225906001600160a01b0316613c3e565b905042816001600160a01b031663c8f33c916040518163ffffffff1660e01b815260040160206040518083038186803b15801561326157600080fd5b505afa158015613275573d6000803e3d6000fd5b505050506040513d601f19601f82011682018060405250810190613299919061430d565b14611da75760405163ce0cf1a560e01b81526001600160a01b0382169063ce0cf1a5906132cb9060009060040161435d565b600060405180830381600087803b1580156132e557600080fd5b505af11580156132f9573d6000803e3d6000fd5b50505050905090565b61330a613fce565b600061331583613c56565b60405163d972e8ad60e01b81529091506001600160a01b0385169063d972e8ad9061334490849060040161435d565b60a06040518083038186803b15801561335c57600080fd5b505afa158015613370573d6000803e3d6000fd5b505050506040513d601f19601f8201168201806040525081019061282691906142bc565b51151590565b815542600190910155565b60006001600160a01b03821663b93f9b0a600e613119565b6000611c306133f16133ec670de0b6b3a764000061092d6133e1876020015161304b565b60408801519061290d565b613c68565b6020840151906128d6565b6001600160a01b03831660009081526101ca602052604081206002810180549192918590811061342857fe5b90600052602060002090600502019050600061344261320a565b905061344c613fce565b6134568787613302565b90506000826001600160a01b031663389621866040518163ffffffff1660e01b815260040160206040518083038186803b15801561349357600080fd5b505afa1580156134a7573d6000803e3d6000fd5b505050506040513d601f19601f820116820180604052508101906134cb919061430d565b85549091508110156134f857604051600080516020614b7e83398151915290600090a15050505050611e8d565b84546000906135089083906128d6565b90506000896001600160a01b03166347195e136040518163ffffffff1660e01b815260040160206040518083038186803b15801561354557600080fd5b505afa158015613559573d6000803e3d6000fd5b505050506040513d601f19601f8201168201806040525081019061357d9190614046565b6001600160a01b03166364fb2d956040518163ffffffff1660e01b815260040160206040518083038186803b1580156135b557600080fd5b505afa1580156135c9573d6000803e3d6000fd5b505050506040513d601f19601f820116820180604052508101906135ed919061430d565b4211905080156136ea576136e7828860010154428d6001600160a01b03166347195e136040518163ffffffff1660e01b815260040160206040518083038186803b15801561363a57600080fd5b505afa15801561364e573d6000803e3d6000fd5b505050506040513d601f19601f820116820180604052508101906136729190614046565b6001600160a01b03166364fb2d956040518163ffffffff1660e01b815260040160206040518083038186803b1580156136aa57600080fd5b505afa1580156136be573d6000803e3d6000fd5b505050506040513d601f19601f820116820180604052508101906136e2919061430d565b613c89565b91505b60006136f5856133bd565b9050600061371e612a17876020015161092d620f42408c6001015461290d90919063ffffffff16565b90506000613738670de0b6b3a764000061092d878561290d565b60048a015490915061374a9082612d03565b60048a0155600189018390558a1561376757600489015460038a01555b50505050505050505050505050565b6000611c2d838360405180602001604052806000815250613cf0565b600081848411156137b65760405162461bcd60e51b81526004016105ba9190614366565b505050900390565b600081836137df5760405162461bcd60e51b81526004016105ba9190614366565b5060008385816137eb57fe5b0495945050505050565b6101c3546000908190613810906001600160a01b0316612f53565b6001600160a01b03166318160ddd6040518163ffffffff1660e01b815260040160206040518083038186803b15801561384857600080fd5b505afa15801561385c573d6000803e3d6000fd5b505050506040513d601f19601f82011682018060405250810190613880919061430d565b9050600061388d8461304b565b9050600061389d6101c65461304b565b905060006138aa82613d24565b905060006138cc612a176138bd86613c68565b6138c686613c68565b90612d03565b90506101c5548111156138df57506101c5545b60006138ee8361152a84613d24565b905060006138fe6101c554613d24565b9050600081116139205760405162461bcd60e51b81526004016105ba90614627565b6000613951670de0b6b3a764000061092d8a611524606461092d8861092d6101c7548c61290d90919063ffffffff16565b90506000613999670de0b6b3a764000061092d8b611524606461092d8961092d6101c754611524613994670de0b6b3a7640000600161290d90919063ffffffff16565b613d24565b90506139a5818661290d565b82106139c35760405162461bcd60e51b81526004016105ba90614a28565b509998505050505050505050565b60006139db61320a565b90506000816001600160a01b031663389621866040518163ffffffff1660e01b815260040160206040518083038186803b158015613a1857600080fd5b505afa158015613a2c573d6000803e3d6000fd5b505050506040513d601f19601f82011682018060405250810190613a50919061430d565b6001600160a01b03851660009081526101ca60205260409020805491925090821015613a9557604051600080516020614b7e83398151915290600090a15050506106ac565b60005b6002820154811015613ab757613aaf8682876133fc565b600101613a98565b50613ac2818361339a565b5050505050565b60006001600160a01b03821663b93f9b0a6012613119565b6001600160a01b038316613b075760405162461bcd60e51b81526004016105ba90614592565b60405163a9059cbb60e01b81526000906001600160a01b0386169063a9059cbb90613b389087908790600401614339565b602060405180830381600087803b158015613b5257600080fd5b505af1158015613b66573d6000803e3d6000fd5b505050506040513d601f19601f82011682018060405250810190613b8a9190614134565b90508181613bab5760405162461bcd60e51b81526004016105ba9190614366565b505050505050565b6000611c2d836001600160a01b038416613e65565b6000611c2d836001600160a01b038416613eaf565b81546000908210613c005760405162461bcd60e51b81526004016105ba906143b9565b826000018281548110613c0f57fe5b9060005260206000200154905092915050565b60009081526001919091016020526040902054151590565b5490565b60006001600160a01b03821663b93f9b0a6015613119565b6000611c306002611524846001612d03565b6000611c30613c82670de0b6b3a7640000620f4240612934565b8390612934565b600080613c9e86670de0b6b3a764000061290d565b90506000613cac85876128d6565b90506000613cba8383612934565b90506000613cc886896128d6565b90506000613ce2670de0b6b3a764000061092d858561290d565b9a9950505050505050505050565b60008183613d115760405162461bcd60e51b81526004016105ba9190614366565b50828481613d1b57fe5b06949350505050565b600081613d3357506000610941565b816001600160801b8210613d4c5760809190911c9060401b5b600160401b8210613d625760409190911c9060201b5b6401000000008210613d795760209190911c9060101b5b620100008210613d8e5760109190911c9060081b5b6101008210613da25760089190911c9060041b5b60108210613db55760049190911c9060021b5b60088210613dc15760011b5b6001818581613dcc57fe5b048201901c90506001818581613dde57fe5b048201901c90506001818581613df057fe5b048201901c90506001818581613e0257fe5b048201901c90506001818581613e1457fe5b048201901c90506001818581613e2657fe5b048201901c90506001818581613e3857fe5b048201901c90506000818581613e4a57fe5b049050808210613e5a5780613e5c565b815b95945050505050565b6000613e718383613c22565b613ea757508154600181810184556000848152602080822090930184905584548482528286019093526040902091909155611c30565b506000611c30565b60008181526001830160205260408120548015613f6b5783546000198083019190810190600090879083908110613ee257fe5b9060005260206000200154905080876000018481548110613eff57fe5b600091825260208083209091019290925582815260018981019092526040902090840190558654879080613f2f57fe5b60019003818190600052602060002001600090559055866001016000878152602001908152602001600020600090556001945050505050611c30565b6000915050611c30565b6040518060a0016040528060006001600160a01b03168152602001600081526020016000815260200160008152602001600081525090565b60405180606001604052806000815260200160008152602001606081525090565b6040518060a0016040528060008152602001600081526020016000815260200160008152602001600081525090565b6040518060200160405280600081525090565b604051806040016040528060008152602001600081525090565b60006020828403121561403b578081fd5b8135611c2d81614b68565b600060208284031215614057578081fd5b8151611c2d81614b68565b60008060408385031215614074578081fd5b823561407f81614b68565b9150602083013561408f81614b68565b809150509250929050565b600080604083850312156140ac578182fd5b82356140b781614b68565b946020939093013593505050565b600080602083850312156140d7578182fd5b823567ffffffffffffffff808211156140ee578384fd5b818501915085601f830112614101578384fd5b81358181111561410f578485fd5b8660208083028501011115614122578485fd5b60209290920196919550909350505050565b600060208284031215614145578081fd5b81518015158114611c2d578182fd5b600060208284031215614165578081fd5b5035919050565b6000806040838503121561417e578182fd5b82359150602083013561408f81614b68565b600080604083850312156141a2578182fd5b50508035926020909101359150565b600080600080608085870312156141c6578182fd5b84356141d181614b68565b966020860135965060408601359560600135945092505050565b60008060008084860360a0811215614201578283fd5b604081121561420e578283fd5b6142186040614b41565b8635815260208088013581830152909550603f1982011215614238578283fd5b506142436020614b41565b604086013581529396939550505060608301359260800135919050565b600060a08284031215614271578081fd5b61427b60a0614b41565b825161428681614b68565b80825250602083015160208201526040830151604082015260608301516060820152608083015160808201528091505092915050565b600060a082840312156142cd578081fd5b6142d760a0614b41565b82518152602083015160208201526040830151604082015260608301516060820152608083015160808201528091505092915050565b60006020828403121561431e578081fd5b5051919050565b6001600160a01b0391909116815260200190565b6001600160a01b03929092168252602082015260400190565b901515815260200190565b90815260200190565b6000602080835283518082850152825b8181101561439257858101830151858201604001528201614376565b818111156143a35783604083870101525b50601f01601f1916929092016040019392505050565b60208082526022908201527f456e756d657261626c655365743a20696e646578206f7574206f6620626f756e604082015261647360f01b606082015260800190565b6020808252602d908201527f506f6f6c41646472657373206d75737420657175616c20506f6f6c546f6b656e60408201526c20706f6f6c206164647265737360981b606082015260800190565b6020808252602f908201527f416363657373436f6e74726f6c3a2073656e646572206d75737420626520616e60408201526e0818591b5a5b881d1bc819dc985b9d608a1b606082015260800190565b60208082526014908201527314185d5cd8589b194e881b9bdd081c185d5cd95960621b604082015260600190565b6020808252602a908201527f4f776e657220616e6420636f6e666967206164647265737365732063616e6e6f6040820152697420626520656d70747960b01b606082015260800190565b60208082526031908201527f756e736166653a20736c69636520616363756d756c61746f72206861736e2774604082015270081899595b881a5b9a5d1a585b1a5e9959607a1b606082015260800190565b602080825260189082015277506f6f6c206973206c617465206f6e207061796d656e747360401b604082015260600190565b6020808252600490820152635a45524f60e01b604082015260600190565b6020808252600d908201526c496e76616c696420706f6f6c2160981b604082015260600190565b60208082526030908201527f756e736166653a20706f6f6c20616363756d756c61746f72206861736e27742060408201526f1899595b881a5b9a5d1a585b1a5e995960821b606082015260800190565b6020808252602b908201527f6d6178496e746572657374446f6c6c617273456c696769626c65206d7573742060408201526a6e6f74206265207a65726f60a81b606082015260800190565b60208082526030908201527f416363657373436f6e74726f6c3a2073656e646572206d75737420626520616e60408201526f2061646d696e20746f207265766f6b6560801b606082015260800190565b60208082526010908201526f14185d5cd8589b194e881c185d5cd95960821b604082015260600190565b6020808252601e908201527f546f6b656e73496473206c656e677468206d757374206e6f7420626520300000604082015260600190565b6020808252818101527f4f776e65722063616e6e6f7420626520746865207a65726f2061646472657373604082015260600190565b6020808252601a908201527f4d757374206265206f776e6572206f6620506f6f6c546f6b656e000000000000604082015260600190565b6020808252602d908201527f747279696e6720746f206f7665727772697465206d756c746920736c6963652060408201526c7265776172647320696e666f2160981b606082015260800190565b602080825260149082015273141bdbdb081dda5d1a191c985dc81c185d5cd95960621b604082015260600190565b6020808252602e908201527f436f6e747261637420696e7374616e63652068617320616c726561647920626560408201526d195b881a5b9a5d1a585b1a5e995960921b606082015260800190565b6020808252600290820152614e4160f01b604082015260600190565b6020808252600a90820152690496e76616c69643a20360b41b604082015260600190565b6020808252600f908201526e496e76616c69642073656e6465722160881b604082015260600190565b6020808252600e908201526d4e6f7420506f6f6c546f6b656e7360901b604082015260600190565b6020808252601c908201527f556e657870656374656420746f6b656e20616363756d756c61746f7200000000604082015260600190565b6020808252601f908201527f5265656e7472616e637947756172643a207265656e7472616e742063616c6c00604082015260600190565b6020808252602b908201527f4d75737420686176652061646d696e20726f6c6520746f20706572666f726d2060408201526a3a3434b99030b1ba34b7b760a91b606082015260800190565b6020808252602f908201527f416363657373436f6e74726f6c3a2063616e206f6e6c792072656e6f756e636560408201526e103937b632b9903337b91039b2b63360891b606082015260800190565b6020808252601f908201527f496e656c696769626c652073656e696f72207472616e63686520746f6b656e00604082015260600190565b6020808252603d908201527f6e657747726f7373526577617264732063616e6e6f742062652067726561746560408201527f72207468656e20746865206d6178206766692070657220646f6c6c6172000000606082015260800190565b815181526020918201519181019190915260400190565b60006020808352608080840185518386015282860151604081818801528088015191506060808189015283835180865260a09550858a0191508785019450885b81811015614b1957855180518452898101518a85015285810151868501528481015185850152880151888401529488019491860191600101614adc565b50909a9950505050505050505050565b9051815260200190565b918252602082015260400190565b60405181810167ffffffffffffffff81118282101715614b6057600080fd5b604052919050565b6001600160a01b038116811461185a57600080fdfe75a25907c86842cd8f301fe24ccf300b65e4b0f91b7fe55286a7d0ec33a2490eb19546dff01e856fb3f010c267a7b1c60363cf8a4664e21cc89c26224620214e65d7a28e3265b37a6474929f336521b332c1681b933f6cb9f3376673440d862aa2646970667358221220bf0fe422a154ec56dd11fea8cf7d888a4002737fdf132f0de71fb8a9c6a9d10464736f6c634300060c0033",
  "devdoc": {
    "kind": "dev",
    "methods": {
      "allocateRewards(uint256)": {
        "params": {
          "_interestPaymentAmount": "Atomic usdc amount of the interest payment"
        }
      },
      "forceInitializeStakingRewardsPoolInfo(address,uint256,uint256,uint256)": {
        "details": "this is _only_ meant to be called on pools that didnt qualify for the backer rewards airdrop       but were deployed before this contract."
      },
      "getRoleAdmin(bytes32)": {
        "details": "Returns the admin role that controls `role`. See {grantRole} and {revokeRole}. To change a role's admin, use {_setRoleAdmin}."
      },
      "getRoleMember(bytes32,uint256)": {
        "details": "Returns one of the accounts that have `role`. `index` must be a value between 0 and {getRoleMemberCount}, non-inclusive. Role bearers are not sorted in any particular way, and their ordering may change at any point. WARNING: When using {getRoleMember} and {getRoleMemberCount}, make sure you perform all queries on the same block. See the following https://forum.openzeppelin.com/t/iterating-over-elements-on-enumerableset-in-openzeppelin-contracts/2296[forum post] for more information."
      },
      "getRoleMemberCount(bytes32)": {
        "details": "Returns the number of accounts that have `role`. Can be used together with {getRoleMember} to enumerate all bearers of a role."
      },
      "grantRole(bytes32,address)": {
        "details": "Grants `role` to `account`. If `account` had not been already granted `role`, emits a {RoleGranted} event. Requirements: - the caller must have ``role``'s admin role."
      },
      "hasRole(bytes32,address)": {
        "details": "Returns `true` if `account` has been granted `role`."
      },
      "onTranchedPoolDrawdown(uint256)": {
        "details": "initializes rewards info for the calling TranchedPool if it's the first  drawdown for the given slice",
        "params": {
          "sliceIndex": "index of the tranched pool slice"
        }
      },
      "pause()": {
        "details": "Pauses all functions guarded by Pause See {Pausable-_pause}. Requirements: - the caller must have the PAUSER_ROLE."
      },
      "paused()": {
        "details": "Returns true if the contract is paused, and false otherwise."
      },
      "poolTokenClaimableRewards(uint256)": {
        "params": {
          "tokenId": "Pool token id"
        },
        "returns": {
          "_0": "The amount of GFI claimable"
        }
      },
      "renounceRole(bytes32,address)": {
        "details": "Revokes `role` from the calling account. Roles are often managed via {grantRole} and {revokeRole}: this function's purpose is to provide a mechanism for accounts to lose their privileges if they are compromised (such as when a trusted device is misplaced). If the calling account had been granted `role`, emits a {RoleRevoked} event. Requirements: - the caller must be `account`."
      },
      "revokeRole(bytes32,address)": {
        "details": "Revokes `role` from `account`. If `account` had been granted `role`, emits a {RoleRevoked} event. Requirements: - the caller must have ``role``'s admin role."
      },
      "setBackerAndStakingRewardsTokenInfoOnSplit((uint256,uint256),(uint256),uint256,uint256)": {
        "details": "The sum of newRewardsClaimed across the split tokens MUST be equal to (or be very slightly smaller than, in the case of rounding due to integer division) the original token's rewardsClaimed. Furthermore, they must be split proportional to the original and new token's principalAmounts. This impl validates neither of those things because only the pool tokens contract can call it, and it trusts that the PoolTokens contract doesn't call maliciously.",
        "params": {
          "newRewardsClaimed": "rewardsClaimed value for the new token.",
          "newTokenId": "id of one of the tokens in the split",
          "originalBackerRewardsTokenInfo": "backer rewards info for the pool token that was split",
          "originalStakingRewardsTokenInfo": "backer staking rewards info for the pool token that was split"
        }
      },
      "setMaxInterestDollarsEligible(uint256)": {
        "params": {
          "_maxInterestDollarsEligible": "The amount of interest dollars eligible for GFI rewards, expects 10^18 value"
        }
      },
      "setPoolTokenAccRewardsPerPrincipalDollarAtMint(address,uint256)": {
        "params": {
          "poolAddress": "Address of the pool associated with the pool token",
          "tokenId": "Pool token id"
        }
      },
      "setTotalInterestReceived(uint256)": {
        "params": {
          "_totalInterestReceived": "The amount of interest the protocol has received to date, expects 10^6 value"
        }
      },
      "setTotalRewards(uint256)": {
        "params": {
          "_totalRewards": "The amount of GFI rewards available, expects 10^18 value"
        }
      },
      "stakingRewardsClaimed(uint256)": {
        "params": {
          "tokenId": "Pool token id"
        },
        "returns": {
          "_0": "The amount of GFI claimed"
        }
      },
      "stakingRewardsEarnedSinceLastWithdraw(uint256)": {
        "params": {
          "tokenId": "token id to get rewards"
        },
        "returns": {
          "_0": "amount of rewards"
        }
      },
      "unpause()": {
        "details": "Unpauses the contract See {Pausable-_unpause}. Requirements: - the caller must have the Pauser role"
      },
      "withdraw(uint256)": {
        "params": {
          "tokenId": "Pool token id"
        },
        "returns": {
          "_0": "amount of rewards withdrawn"
        }
      },
      "withdrawMultiple(uint256[])": {
        "params": {
          "tokenIds": "Array of pool token id"
        }
      }
    },
    "version": 1
  },
  "userdoc": {
    "events": {
      "SafetyCheckTriggered()": {
        "notice": "Emitted when a safety check fails"
      }
    },
    "kind": "user",
    "methods": {
      "allocateRewards(uint256)": {
        "notice": "Calculates the accRewardsPerPrincipalDollar for a given pool,   when a interest payment is received by the protocol"
      },
      "clearTokenInfo(uint256)": {
        "notice": "Clear all BackerRewards and StakingRewards associated data for `tokenId`"
      },
      "forceInitializeStakingRewardsPoolInfo(address,uint256,uint256,uint256)": {
        "notice": "intialize the first slice of a StakingRewardsPoolInfo"
      },
      "getBackerStakingRewardsPoolInfo(address)": {
        "notice": "Get backer staking rewards for a pool"
      },
      "getStakingRewardsTokenInfo(uint256)": {
        "notice": "Get backer staking rewards metadata for a pool token"
      },
      "getTokenInfo(uint256)": {
        "notice": "Get backer rewards metadata for a pool token"
      },
      "maxInterestDollarsEligible()": {
        "notice": "interest $ eligible for gfi rewards, times 1e18"
      },
      "onTranchedPoolDrawdown(uint256)": {
        "notice": "callback for TranchedPools when they drawdown"
      },
      "poolTokenClaimableRewards(uint256)": {
        "notice": "Calculate the gross available gfi rewards for a PoolToken"
      },
      "setBackerAndStakingRewardsTokenInfoOnSplit((uint256,uint256),(uint256),uint256,uint256)": {
        "notice": "Set BackerRewards and BackerStakingRewards metadata for tokens created by a pool token split."
      },
      "setMaxInterestDollarsEligible(uint256)": {
        "notice": "Set the max dollars across the entire protocol that are eligible for GFI rewards"
      },
      "setPoolTokenAccRewardsPerPrincipalDollarAtMint(address,uint256)": {
        "notice": "When a pool token is minted for multiple drawdowns,   set accRewardsPerPrincipalDollarAtMint to the current accRewardsPerPrincipalDollar price"
      },
      "setTotalInterestReceived(uint256)": {
        "notice": "Set the total interest received to date. This should only be called once on contract deploy."
      },
      "setTotalRewards(uint256)": {
        "notice": "Set the total gfi rewards and the % of total GFI"
      },
      "stakingRewardsClaimed(uint256)": {
        "notice": "Calculates the amount of staking rewards already claimed for a PoolToken. This function is provided for the sake of external (e.g. frontend client) consumption; it is not necessary as an input to the mutative calculations in this contract."
      },
      "stakingRewardsEarnedSinceLastWithdraw(uint256)": {
        "notice": "Returns the amount of staking rewards earned by a given token since the last time its staking rewards were withdrawn."
      },
      "tokenStakingRewards(uint256)": {
        "notice": "Staking rewards info for each pool token"
      },
      "totalInterestReceived()": {
        "notice": "counter of total interest repayments, times 1e6"
      },
      "totalRewardPercentOfTotalGFI()": {
        "notice": "totalRewards/totalGFISupply * 100, times 1e18"
      },
      "totalRewards()": {
        "notice": "total amount of GFI rewards available, times 1e18"
      },
      "withdraw(uint256)": {
        "notice": "PoolToken request to withdraw all allocated rewards"
      },
      "withdrawMultiple(uint256[])": {
        "notice": "PoolToken request to withdraw multiple PoolTokens allocated rewards"
      }
    },
    "version": 1
  },
  "storageLayout": {
    "storage": [
      {
        "astId": 50,
        "contract": "contracts/rewards/BackerRewards.sol:BackerRewards",
        "label": "initialized",
        "offset": 0,
        "slot": "0",
        "type": "t_bool"
      },
      {
        "astId": 53,
        "contract": "contracts/rewards/BackerRewards.sol:BackerRewards",
        "label": "initializing",
        "offset": 1,
        "slot": "0",
        "type": "t_bool"
      },
      {
        "astId": 118,
        "contract": "contracts/rewards/BackerRewards.sol:BackerRewards",
        "label": "______gap",
        "offset": 0,
        "slot": "1",
        "type": "t_array(t_uint256)50_storage"
      },
      {
        "astId": 43,
        "contract": "contracts/rewards/BackerRewards.sol:BackerRewards",
        "label": "__gap",
        "offset": 0,
        "slot": "51",
        "type": "t_array(t_uint256)50_storage"
      },
      {
        "astId": 163,
        "contract": "contracts/rewards/BackerRewards.sol:BackerRewards",
        "label": "_roles",
        "offset": 0,
        "slot": "101",
        "type": "t_mapping(t_bytes32,t_struct(RoleData)159_storage)"
      },
      {
        "astId": 408,
        "contract": "contracts/rewards/BackerRewards.sol:BackerRewards",
        "label": "__gap",
        "offset": 0,
        "slot": "102",
        "type": "t_array(t_uint256)49_storage"
      },
      {
        "astId": 3137,
        "contract": "contracts/rewards/BackerRewards.sol:BackerRewards",
        "label": "_paused",
        "offset": 0,
        "slot": "151",
        "type": "t_bool"
      },
      {
        "astId": 3226,
        "contract": "contracts/rewards/BackerRewards.sol:BackerRewards",
        "label": "__gap",
        "offset": 0,
        "slot": "152",
        "type": "t_array(t_uint256)49_storage"
      },
      {
        "astId": 3235,
        "contract": "contracts/rewards/BackerRewards.sol:BackerRewards",
        "label": "_notEntered",
        "offset": 0,
        "slot": "201",
        "type": "t_bool"
      },
      {
        "astId": 3276,
        "contract": "contracts/rewards/BackerRewards.sol:BackerRewards",
        "label": "__gap",
        "offset": 0,
        "slot": "202",
        "type": "t_array(t_uint256)49_storage"
      },
      {
        "astId": 13298,
        "contract": "contracts/rewards/BackerRewards.sol:BackerRewards",
        "label": "__gap1",
        "offset": 0,
        "slot": "251",
        "type": "t_array(t_uint256)50_storage"
      },
      {
        "astId": 13302,
        "contract": "contracts/rewards/BackerRewards.sol:BackerRewards",
        "label": "__gap2",
        "offset": 0,
        "slot": "301",
        "type": "t_array(t_uint256)50_storage"
      },
      {
        "astId": 13306,
        "contract": "contracts/rewards/BackerRewards.sol:BackerRewards",
        "label": "__gap3",
        "offset": 0,
        "slot": "351",
        "type": "t_array(t_uint256)50_storage"
      },
      {
        "astId": 13310,
        "contract": "contracts/rewards/BackerRewards.sol:BackerRewards",
        "label": "__gap4",
        "offset": 0,
        "slot": "401",
        "type": "t_array(t_uint256)50_storage"
      },
      {
        "astId": 28415,
        "contract": "contracts/rewards/BackerRewards.sol:BackerRewards",
        "label": "config",
        "offset": 0,
        "slot": "451",
        "type": "t_contract(GoldfinchConfig)17191"
      },
      {
        "astId": 28443,
        "contract": "contracts/rewards/BackerRewards.sol:BackerRewards",
        "label": "totalRewards",
        "offset": 0,
        "slot": "452",
        "type": "t_uint256"
      },
      {
        "astId": 28447,
        "contract": "contracts/rewards/BackerRewards.sol:BackerRewards",
        "label": "maxInterestDollarsEligible",
        "offset": 0,
        "slot": "453",
        "type": "t_uint256"
      },
      {
        "astId": 28451,
        "contract": "contracts/rewards/BackerRewards.sol:BackerRewards",
        "label": "totalInterestReceived",
        "offset": 0,
        "slot": "454",
        "type": "t_uint256"
      },
      {
        "astId": 28455,
        "contract": "contracts/rewards/BackerRewards.sol:BackerRewards",
        "label": "totalRewardPercentOfTotalGFI",
        "offset": 0,
        "slot": "455",
        "type": "t_uint256"
      },
      {
        "astId": 28459,
        "contract": "contracts/rewards/BackerRewards.sol:BackerRewards",
        "label": "tokens",
        "offset": 0,
        "slot": "456",
        "type": "t_mapping(t_uint256,t_struct(BackerRewardsTokenInfo)9725_storage)"
      },
      {
        "astId": 28463,
        "contract": "contracts/rewards/BackerRewards.sol:BackerRewards",
        "label": "pools",
        "offset": 0,
        "slot": "457",
        "type": "t_mapping(t_address,t_struct(BackerRewardsInfo)9728_storage)"
      },
      {
        "astId": 28467,
        "contract": "contracts/rewards/BackerRewards.sol:BackerRewards",
        "label": "poolStakingRewards",
        "offset": 0,
        "slot": "458",
        "type": "t_mapping(t_contract(ITranchedPool)11572,t_struct(StakingRewardsPoolInfo)9736_storage)"
      },
      {
        "astId": 28472,
        "contract": "contracts/rewards/BackerRewards.sol:BackerRewards",
        "label": "tokenStakingRewards",
        "offset": 0,
        "slot": "459",
        "type": "t_mapping(t_uint256,t_struct(StakingRewardsTokenInfo)9750_storage)"
      }
    ],
    "types": {
      "t_address": {
        "encoding": "inplace",
        "label": "address",
        "numberOfBytes": "20"
      },
      "t_array(t_bytes32)dyn_storage": {
        "base": "t_bytes32",
        "encoding": "dynamic_array",
        "label": "bytes32[]",
        "numberOfBytes": "32"
      },
      "t_array(t_struct(StakingRewardsSliceInfo)9747_storage)dyn_storage": {
        "base": "t_struct(StakingRewardsSliceInfo)9747_storage",
        "encoding": "dynamic_array",
        "label": "struct IBackerRewards.StakingRewardsSliceInfo[]",
        "numberOfBytes": "32"
      },
      "t_array(t_uint256)49_storage": {
        "base": "t_uint256",
        "encoding": "inplace",
        "label": "uint256[49]",
        "numberOfBytes": "1568"
      },
      "t_array(t_uint256)50_storage": {
        "base": "t_uint256",
        "encoding": "inplace",
        "label": "uint256[50]",
        "numberOfBytes": "1600"
      },
      "t_bool": {
        "encoding": "inplace",
        "label": "bool",
        "numberOfBytes": "1"
      },
      "t_bytes32": {
        "encoding": "inplace",
        "label": "bytes32",
        "numberOfBytes": "32"
      },
      "t_contract(GoldfinchConfig)17191": {
        "encoding": "inplace",
        "label": "contract GoldfinchConfig",
        "numberOfBytes": "20"
      },
      "t_contract(ITranchedPool)11572": {
        "encoding": "inplace",
        "label": "contract ITranchedPool",
        "numberOfBytes": "20"
      },
      "t_mapping(t_address,t_struct(BackerRewardsInfo)9728_storage)": {
        "encoding": "mapping",
        "key": "t_address",
        "label": "mapping(address => struct IBackerRewards.BackerRewardsInfo)",
        "numberOfBytes": "32",
        "value": "t_struct(BackerRewardsInfo)9728_storage"
      },
      "t_mapping(t_bytes32,t_struct(RoleData)159_storage)": {
        "encoding": "mapping",
        "key": "t_bytes32",
        "label": "mapping(bytes32 => struct AccessControlUpgradeSafe.RoleData)",
        "numberOfBytes": "32",
        "value": "t_struct(RoleData)159_storage"
      },
      "t_mapping(t_bytes32,t_uint256)": {
        "encoding": "mapping",
        "key": "t_bytes32",
        "label": "mapping(bytes32 => uint256)",
        "numberOfBytes": "32",
        "value": "t_uint256"
      },
      "t_mapping(t_contract(ITranchedPool)11572,t_struct(StakingRewardsPoolInfo)9736_storage)": {
        "encoding": "mapping",
        "key": "t_contract(ITranchedPool)11572",
        "label": "mapping(contract ITranchedPool => struct IBackerRewards.StakingRewardsPoolInfo)",
        "numberOfBytes": "32",
        "value": "t_struct(StakingRewardsPoolInfo)9736_storage"
      },
      "t_mapping(t_uint256,t_struct(BackerRewardsTokenInfo)9725_storage)": {
        "encoding": "mapping",
        "key": "t_uint256",
        "label": "mapping(uint256 => struct IBackerRewards.BackerRewardsTokenInfo)",
        "numberOfBytes": "32",
        "value": "t_struct(BackerRewardsTokenInfo)9725_storage"
      },
      "t_mapping(t_uint256,t_struct(StakingRewardsTokenInfo)9750_storage)": {
        "encoding": "mapping",
        "key": "t_uint256",
        "label": "mapping(uint256 => struct IBackerRewards.StakingRewardsTokenInfo)",
        "numberOfBytes": "32",
        "value": "t_struct(StakingRewardsTokenInfo)9750_storage"
      },
      "t_struct(AddressSet)2912_storage": {
        "encoding": "inplace",
        "label": "struct EnumerableSet.AddressSet",
        "members": [
          {
            "astId": 2911,
            "contract": "contracts/rewards/BackerRewards.sol:BackerRewards",
            "label": "_inner",
            "offset": 0,
            "slot": "0",
            "type": "t_struct(Set)2732_storage"
          }
        ],
        "numberOfBytes": "64"
      },
      "t_struct(BackerRewardsInfo)9728_storage": {
        "encoding": "inplace",
        "label": "struct IBackerRewards.BackerRewardsInfo",
        "members": [
          {
            "astId": 9727,
            "contract": "contracts/rewards/BackerRewards.sol:BackerRewards",
            "label": "accRewardsPerPrincipalDollar",
            "offset": 0,
            "slot": "0",
            "type": "t_uint256"
          }
        ],
        "numberOfBytes": "32"
      },
      "t_struct(BackerRewardsTokenInfo)9725_storage": {
        "encoding": "inplace",
        "label": "struct IBackerRewards.BackerRewardsTokenInfo",
        "members": [
          {
            "astId": 9722,
            "contract": "contracts/rewards/BackerRewards.sol:BackerRewards",
            "label": "rewardsClaimed",
            "offset": 0,
            "slot": "0",
            "type": "t_uint256"
          },
          {
            "astId": 9724,
            "contract": "contracts/rewards/BackerRewards.sol:BackerRewards",
            "label": "accRewardsPerPrincipalDollarAtMint",
            "offset": 0,
            "slot": "1",
            "type": "t_uint256"
          }
        ],
        "numberOfBytes": "64"
      },
      "t_struct(RoleData)159_storage": {
        "encoding": "inplace",
        "label": "struct AccessControlUpgradeSafe.RoleData",
        "members": [
          {
            "astId": 156,
            "contract": "contracts/rewards/BackerRewards.sol:BackerRewards",
            "label": "members",
            "offset": 0,
            "slot": "0",
            "type": "t_struct(AddressSet)2912_storage"
          },
          {
            "astId": 158,
            "contract": "contracts/rewards/BackerRewards.sol:BackerRewards",
            "label": "adminRole",
            "offset": 0,
            "slot": "2",
            "type": "t_bytes32"
          }
        ],
        "numberOfBytes": "96"
      },
      "t_struct(Set)2732_storage": {
        "encoding": "inplace",
        "label": "struct EnumerableSet.Set",
        "members": [
          {
            "astId": 2727,
            "contract": "contracts/rewards/BackerRewards.sol:BackerRewards",
            "label": "_values",
            "offset": 0,
            "slot": "0",
            "type": "t_array(t_bytes32)dyn_storage"
          },
          {
            "astId": 2731,
            "contract": "contracts/rewards/BackerRewards.sol:BackerRewards",
            "label": "_indexes",
            "offset": 0,
            "slot": "1",
            "type": "t_mapping(t_bytes32,t_uint256)"
          }
        ],
        "numberOfBytes": "64"
      },
      "t_struct(StakingRewardsPoolInfo)9736_storage": {
        "encoding": "inplace",
        "label": "struct IBackerRewards.StakingRewardsPoolInfo",
        "members": [
          {
            "astId": 9730,
            "contract": "contracts/rewards/BackerRewards.sol:BackerRewards",
            "label": "accumulatedRewardsPerTokenAtLastCheckpoint",
            "offset": 0,
            "slot": "0",
            "type": "t_uint256"
          },
          {
            "astId": 9732,
            "contract": "contracts/rewards/BackerRewards.sol:BackerRewards",
            "label": "lastUpdateTime",
            "offset": 0,
            "slot": "1",
            "type": "t_uint256"
          },
          {
            "astId": 9735,
            "contract": "contracts/rewards/BackerRewards.sol:BackerRewards",
            "label": "slicesInfo",
            "offset": 0,
            "slot": "2",
            "type": "t_array(t_struct(StakingRewardsSliceInfo)9747_storage)dyn_storage"
          }
        ],
        "numberOfBytes": "96"
      },
      "t_struct(StakingRewardsSliceInfo)9747_storage": {
        "encoding": "inplace",
        "label": "struct IBackerRewards.StakingRewardsSliceInfo",
        "members": [
          {
            "astId": 9738,
            "contract": "contracts/rewards/BackerRewards.sol:BackerRewards",
            "label": "fiduSharePriceAtDrawdown",
            "offset": 0,
            "slot": "0",
            "type": "t_uint256"
          },
          {
            "astId": 9740,
            "contract": "contracts/rewards/BackerRewards.sol:BackerRewards",
            "label": "principalDeployedAtLastCheckpoint",
            "offset": 0,
            "slot": "1",
            "type": "t_uint256"
          },
          {
            "astId": 9742,
            "contract": "contracts/rewards/BackerRewards.sol:BackerRewards",
            "label": "accumulatedRewardsPerTokenAtDrawdown",
            "offset": 0,
            "slot": "2",
            "type": "t_uint256"
          },
          {
            "astId": 9744,
            "contract": "contracts/rewards/BackerRewards.sol:BackerRewards",
            "label": "accumulatedRewardsPerTokenAtLastCheckpoint",
            "offset": 0,
            "slot": "3",
            "type": "t_uint256"
          },
          {
            "astId": 9746,
            "contract": "contracts/rewards/BackerRewards.sol:BackerRewards",
            "label": "unrealizedAccumulatedRewardsPerTokenAtLastCheckpoint",
            "offset": 0,
            "slot": "4",
            "type": "t_uint256"
          }
        ],
        "numberOfBytes": "160"
      },
      "t_struct(StakingRewardsTokenInfo)9750_storage": {
        "encoding": "inplace",
        "label": "struct IBackerRewards.StakingRewardsTokenInfo",
        "members": [
          {
            "astId": 9749,
            "contract": "contracts/rewards/BackerRewards.sol:BackerRewards",
            "label": "accumulatedRewardsPerTokenAtLastWithdraw",
            "offset": 0,
            "slot": "0",
            "type": "t_uint256"
          }
        ],
        "numberOfBytes": "32"
      },
      "t_uint256": {
        "encoding": "inplace",
        "label": "uint256",
        "numberOfBytes": "32"
      }
    }
  }
}