{
  "address": "0xaae260743E9937D966F2776ba2148186cFFd4B07",
  "abi": [
    {
      "anonymous": false,
      "inputs": [
        {
          "indexed": false,
          "internalType": "address",
          "name": "account",
          "type": "address"
        }
      ],
      "name": "Paused",
      "type": "event"
    },
    {
      "anonymous": false,
      "inputs": [
        {
          "indexed": true,
          "internalType": "bytes32",
          "name": "role",
          "type": "bytes32"
        },
        {
          "indexed": true,
          "internalType": "address",
          "name": "account",
          "type": "address"
        },
        {
          "indexed": true,
          "internalType": "address",
          "name": "sender",
          "type": "address"
        }
      ],
      "name": "RoleGranted",
      "type": "event"
    },
    {
      "anonymous": false,
      "inputs": [
        {
          "indexed": true,
          "internalType": "bytes32",
          "name": "role",
          "type": "bytes32"
        },
        {
          "indexed": true,
          "internalType": "address",
          "name": "account",
          "type": "address"
        },
        {
          "indexed": true,
          "internalType": "address",
          "name": "sender",
          "type": "address"
        }
      ],
      "name": "RoleRevoked",
      "type": "event"
    },
    {
      "anonymous": false,
      "inputs": [
        {
          "indexed": false,
          "internalType": "address",
          "name": "account",
          "type": "address"
        }
      ],
      "name": "Unpaused",
      "type": "event"
    },
    {
      "inputs": [],
      "name": "DEFAULT_ADMIN_ROLE",
      "outputs": [
        {
          "internalType": "bytes32",
          "name": "",
          "type": "bytes32"
        }
      ],
      "stateMutability": "view",
      "type": "function"
    },
    {
      "inputs": [],
      "name": "OWNER_ROLE",
      "outputs": [
        {
          "internalType": "bytes32",
          "name": "",
          "type": "bytes32"
        }
      ],
      "stateMutability": "view",
      "type": "function"
    },
    {
      "inputs": [],
      "name": "PAUSER_ROLE",
      "outputs": [
        {
          "internalType": "bytes32",
          "name": "",
          "type": "bytes32"
        }
      ],
      "stateMutability": "view",
      "type": "function"
    },
    {
      "inputs": [
        {
          "internalType": "address",
          "name": "owner",
          "type": "address"
        }
      ],
      "name": "__BaseUpgradeablePausable__init",
      "outputs": [],
      "stateMutability": "nonpayable",
      "type": "function"
    },
    {
      "inputs": [],
      "name": "__PauserPausable__init",
      "outputs": [],
      "stateMutability": "nonpayable",
      "type": "function"
    },
    {
      "inputs": [],
      "name": "config",
      "outputs": [
        {
          "internalType": "contract GoldfinchConfig",
          "name": "",
          "type": "address"
        }
      ],
      "stateMutability": "view",
      "type": "function"
    },
    {
      "inputs": [
        {
          "internalType": "address",
          "name": "poolAddress",
          "type": "address"
        },
        {
          "internalType": "uint256",
          "name": "amount",
          "type": "uint256"
        },
        {
          "internalType": "address",
          "name": "addressToSendTo",
          "type": "address"
        }
      ],
      "name": "drawdown",
      "outputs": [],
      "stateMutability": "nonpayable",
      "type": "function"
    },
    {
      "inputs": [
        {
          "internalType": "address",
          "name": "poolAddress",
          "type": "address"
        },
        {
          "internalType": "uint256",
          "name": "amount",
          "type": "uint256"
        },
        {
          "internalType": "address",
          "name": "addressToSendTo",
          "type": "address"
        },
        {
          "internalType": "address",
          "name": "toToken",
          "type": "address"
        },
        {
          "internalType": "uint256",
          "name": "minTargetAmount",
          "type": "uint256"
        },
        {
          "internalType": "uint256[]",
          "name": "exchangeDistribution",
          "type": "uint256[]"
        }
      ],
      "name": "drawdownWithSwapOnOneInch",
      "outputs": [],
      "stateMutability": "nonpayable",
      "type": "function"
    },
    {
      "inputs": [
        {
          "internalType": "bytes32",
          "name": "role",
          "type": "bytes32"
        }
      ],
      "name": "getRoleAdmin",
      "outputs": [
        {
          "internalType": "bytes32",
          "name": "",
          "type": "bytes32"
        }
      ],
      "stateMutability": "view",
      "type": "function"
    },
    {
      "inputs": [
        {
          "internalType": "bytes32",
          "name": "role",
          "type": "bytes32"
        },
        {
          "internalType": "uint256",
          "name": "index",
          "type": "uint256"
        }
      ],
      "name": "getRoleMember",
      "outputs": [
        {
          "internalType": "address",
          "name": "",
          "type": "address"
        }
      ],
      "stateMutability": "view",
      "type": "function"
    },
    {
      "inputs": [
        {
          "internalType": "bytes32",
          "name": "role",
          "type": "bytes32"
        }
      ],
      "name": "getRoleMemberCount",
      "outputs": [
        {
          "internalType": "uint256",
          "name": "",
          "type": "uint256"
        }
      ],
      "stateMutability": "view",
      "type": "function"
    },
    {
      "inputs": [
        {
          "internalType": "bytes32",
          "name": "role",
          "type": "bytes32"
        },
        {
          "internalType": "address",
          "name": "account",
          "type": "address"
        }
      ],
      "name": "grantRole",
      "outputs": [],
      "stateMutability": "nonpayable",
      "type": "function"
    },
    {
      "inputs": [
        {
          "internalType": "bytes32",
          "name": "role",
          "type": "bytes32"
        },
        {
          "internalType": "address",
          "name": "account",
          "type": "address"
        }
      ],
      "name": "hasRole",
      "outputs": [
        {
          "internalType": "bool",
          "name": "",
          "type": "bool"
        }
      ],
      "stateMutability": "view",
      "type": "function"
    },
    {
      "inputs": [
        {
          "internalType": "address",
          "name": "owner",
          "type": "address"
        },
        {
          "internalType": "address",
          "name": "_config",
          "type": "address"
        }
      ],
      "name": "initialize",
      "outputs": [],
      "stateMutability": "nonpayable",
      "type": "function"
    },
    {
      "inputs": [],
      "name": "isAdmin",
      "outputs": [
        {
          "internalType": "bool",
          "name": "",
          "type": "bool"
        }
      ],
      "stateMutability": "view",
      "type": "function"
    },
    {
      "inputs": [
        {
          "internalType": "address",
          "name": "forwarder",
          "type": "address"
        }
      ],
      "name": "isTrustedForwarder",
      "outputs": [
        {
          "internalType": "bool",
          "name": "",
          "type": "bool"
        }
      ],
      "stateMutability": "view",
      "type": "function"
    },
    {
      "inputs": [
        {
          "internalType": "address",
          "name": "poolAddress",
          "type": "address"
        }
      ],
      "name": "lockJuniorCapital",
      "outputs": [],
      "stateMutability": "nonpayable",
      "type": "function"
    },
    {
      "inputs": [
        {
          "internalType": "address",
          "name": "poolAddress",
          "type": "address"
        }
      ],
      "name": "lockPool",
      "outputs": [],
      "stateMutability": "nonpayable",
      "type": "function"
    },
    {
      "inputs": [],
      "name": "pause",
      "outputs": [],
      "stateMutability": "nonpayable",
      "type": "function"
    },
    {
      "inputs": [],
      "name": "paused",
      "outputs": [
        {
          "internalType": "bool",
          "name": "",
          "type": "bool"
        }
      ],
      "stateMutability": "view",
      "type": "function"
    },
    {
      "inputs": [
        {
          "internalType": "address",
          "name": "poolAddress",
          "type": "address"
        },
        {
          "internalType": "uint256",
          "name": "principalAmount",
          "type": "uint256"
        },
        {
          "internalType": "uint256",
          "name": "interestAmount",
          "type": "uint256"
        }
      ],
      "name": "pay",
      "outputs": [],
      "stateMutability": "nonpayable",
      "type": "function"
    },
    {
      "inputs": [
        {
          "internalType": "address",
          "name": "poolAddress",
          "type": "address"
        },
        {
          "internalType": "uint256",
          "name": "amount",
          "type": "uint256"
        }
      ],
      "name": "pay",
      "outputs": [],
      "stateMutability": "nonpayable",
      "type": "function"
    },
    {
      "inputs": [
        {
          "internalType": "address",
          "name": "poolAddress",
          "type": "address"
        },
        {
          "internalType": "uint256",
          "name": "amount",
          "type": "uint256"
        }
      ],
      "name": "payInFull",
      "outputs": [],
      "stateMutability": "nonpayable",
      "type": "function"
    },
    {
      "inputs": [
        {
          "internalType": "address[]",
          "name": "pools",
          "type": "address[]"
        },
        {
          "internalType": "uint256[]",
          "name": "amounts",
          "type": "uint256[]"
        }
      ],
      "name": "payMultiple",
      "outputs": [],
      "stateMutability": "nonpayable",
      "type": "function"
    },
    {
      "inputs": [
        {
          "internalType": "address[]",
          "name": "pools",
          "type": "address[]"
        },
        {
          "internalType": "uint256[]",
          "name": "minAmounts",
          "type": "uint256[]"
        },
        {
          "internalType": "uint256",
          "name": "originAmount",
          "type": "uint256"
        },
        {
          "internalType": "address",
          "name": "fromToken",
          "type": "address"
        },
        {
          "internalType": "uint256[]",
          "name": "exchangeDistribution",
          "type": "uint256[]"
        }
      ],
      "name": "payMultipleWithSwapOnOneInch",
      "outputs": [],
      "stateMutability": "nonpayable",
      "type": "function"
    },
    {
      "inputs": [
        {
          "internalType": "address",
          "name": "poolAddress",
          "type": "address"
        },
        {
          "internalType": "uint256",
          "name": "originAmount",
          "type": "uint256"
        },
        {
          "internalType": "address",
          "name": "fromToken",
          "type": "address"
        },
        {
          "internalType": "uint256",
          "name": "minTargetAmount",
          "type": "uint256"
        },
        {
          "internalType": "uint256[]",
          "name": "exchangeDistribution",
          "type": "uint256[]"
        }
      ],
      "name": "payWithSwapOnOneInch",
      "outputs": [],
      "stateMutability": "nonpayable",
      "type": "function"
    },
    {
      "inputs": [
        {
          "internalType": "bytes32",
          "name": "role",
          "type": "bytes32"
        },
        {
          "internalType": "address",
          "name": "account",
          "type": "address"
        }
      ],
      "name": "renounceRole",
      "outputs": [],
      "stateMutability": "nonpayable",
      "type": "function"
    },
    {
      "inputs": [
        {
          "internalType": "bytes32",
          "name": "role",
          "type": "bytes32"
        },
        {
          "internalType": "address",
          "name": "account",
          "type": "address"
        }
      ],
      "name": "revokeRole",
      "outputs": [],
      "stateMutability": "nonpayable",
      "type": "function"
    },
    {
      "inputs": [
        {
          "internalType": "address",
          "name": "token",
          "type": "address"
        },
        {
          "internalType": "address",
          "name": "to",
          "type": "address"
        },
        {
          "internalType": "uint256",
          "name": "amount",
          "type": "uint256"
        }
      ],
      "name": "transferERC20",
      "outputs": [],
      "stateMutability": "nonpayable",
      "type": "function"
    },
    {
      "inputs": [],
      "name": "trustedForwarder",
      "outputs": [
        {
          "internalType": "address",
          "name": "",
          "type": "address"
        }
      ],
      "stateMutability": "view",
      "type": "function"
    },
    {
      "inputs": [],
      "name": "unpause",
      "outputs": [],
      "stateMutability": "nonpayable",
      "type": "function"
    },
    {
      "inputs": [],
      "name": "versionRecipient",
      "outputs": [
        {
          "internalType": "string",
          "name": "",
          "type": "string"
        }
      ],
      "stateMutability": "view",
      "type": "function"
    }
  ],
  "transactionHash": "0x6dec6e193e125a571a4fb8a9c43469eae973be2ccfb7a7dd6010b36ec9d872c4",
  "args": [],
  "numDeployments": 2,
  "solcInputHash": "53bc22ef9840d85c0b702ac8db87cc08",
  "bytecode": "0x608060405234801561001057600080fd5b50612cae806100206000396000f3fe608060405234801561001057600080fd5b50600436106101b05760003560e01c80636cbbbbc2116100ef578063a217fddf11610092578063a217fddf1461036f578063b6db75a014610377578063c40768761461037f578063c8bc38ae14610392578063ca15c873146103a5578063d547741f146103b8578063e58378bb146103cb578063e63ab1e9146103d3576101b0565b80636cbbbbc2146102eb57806379502c55146102fe5780637da0a877146103135780638456cb591461031b5780638b032c64146103235780639010d07c1461033657806391d14854146103495780639db5dbe41461035c576101b0565b8063486ff0cd11610157578063486ff0cd1461025a5780634a865c5b1461026f578063526d81f61461028257806356b7b73a1461028a578063572b6c051461029d5780635c975abb146102bd5780635e3e9fad146102c55780635f065346146102d8576101b0565b8063097616a3146101b5578063207d0636146101ca578063248a9ca3146101dd5780632f2ff15d1461020657806336568abe146102195780633f17474a1461022c5780633f4ba83a1461023f578063485cc95514610247575b600080fd5b6101c86101c3366004612286565b6103db565b005b6101c86101d8366004612286565b610514565b6101f06101eb36600461261a565b61058e565b6040516101fd91906127e0565b60405180910390f35b6101c8610214366004612632565b6105a3565b6101c8610227366004612632565b6105e7565b6101c861023a3660046123a2565b610629565b6101c8610768565b6101c86102553660046122be565b6107a8565b610262610a30565b6040516101fd91906127e9565b6101c861027d366004612286565b610a50565b6101c8610aaf565b6101c861029836600461242f565b610b3a565b6102b06102ab366004612286565b610c2f565b6040516101fd91906127d5565b6102b0610c44565b6101c86102d3366004612361565b610c4d565b6101c86102e63660046124a9565b610d1e565b6101c86102f9366004612546565b611072565b610306611182565b6040516101fd9190612716565b610306611192565b6101c86111a2565b6101c8610331366004612336565b6111e0565b610306610344366004612656565b6113c6565b6102b0610357366004612632565b6113e7565b6101c861036a3660046122f6565b6113ff565b6101f061146e565b6102b0611473565b6101c861038d366004612336565b611494565b6101c86103a03660046124dd565b61157c565b6101f06103b336600461261a565b6116ea565b6101c86103c6366004612632565b611701565b6101f061173b565b6101f061174d565b600054610100900460ff16806103f457506103f461175f565b80610402575060005460ff16155b6104275760405162461bcd60e51b815260040161041e90612a7d565b60405180910390fd5b600054610100900460ff16158015610452576000805460ff1961ff0019909116610100171660011790555b6001600160a01b0382166104785760405162461bcd60e51b815260040161041e90612a06565b610480611765565b6104886117e6565b610490611872565b6104a8600080516020612c39833981519152836105dd565b6104c0600080516020612c59833981519152836105dd565b6104e6600080516020612c59833981519152600080516020612c39833981519152611901565b6104fe600080516020612c3983398151915280611901565b8015610510576000805461ff00191690555b5050565b61051c611473565b6105385760405162461bcd60e51b815260040161041e90612b4f565b806001600160a01b0316634026478e6040518163ffffffff1660e01b8152600401600060405180830381600087803b15801561057357600080fd5b505af1158015610587573d6000803e3d6000fd5b5050505050565b60009081526065602052604090206002015490565b6000828152606560205260409020600201546105c190610357611916565b6105dd5760405162461bcd60e51b815260040161041e9061285e565b6105108282611920565b6105ef611916565b6001600160a01b0316816001600160a01b03161461061f5760405162461bcd60e51b815260040161041e90612b9a565b6105108282611989565b610631611473565b61064d5760405162461bcd60e51b815260040161041e90612b4f565b60405163a079a4dd60e01b81526001600160a01b0388169063a079a4dd906106799089906004016127e0565b600060405180830381600087803b15801561069357600080fd5b505af11580156106a7573d6000803e3d6000fd5b50506101c4546106cf92506106c591506001600160a01b03166119f2565b8588868686611a72565b6001600160a01b03851615806106ed57506001600160a01b03851630145b156106fd576106fa611916565b94505b6060306040516024016107109190612716565b60408051601f198184030181529190526020810180516001600160e01b03166370a0823160e01b1790529050600061075061074b8784611adb565b611b84565b905061075d8688836113ff565b505050505050505050565b610782600080516020612c59833981519152610357611916565b61079e5760405162461bcd60e51b815260040161041e90612afc565b6107a6611b8b565b565b600054610100900460ff16806107c157506107c161175f565b806107cf575060005460ff16155b6107eb5760405162461bcd60e51b815260040161041e90612a7d565b600054610100900460ff16158015610816576000805460ff1961ff0019909116610100171660011790555b6001600160a01b0383161580159061083657506001600160a01b03821615155b6108525760405162461bcd60e51b815260040161041e906128db565b61085b836103db565b6101c480546001600160a01b0319166001600160a01b0384811691909117918290556108879116611bf7565b6101c380546001600160a01b0319166001600160a01b039283161790556101c4546000916108b59116611c0f565b6101c4549091506000906108d1906001600160a01b0316611c27565b60405163095ea7b360e01b81529091506001600160a01b0382169063095ea7b390610904908590600019906004016127bc565b602060405180830381600087803b15801561091e57600080fd5b505af1158015610932573d6000803e3d6000fd5b505050506040513d601f19601f8201168201806040525081019061095691906125fa565b5060608260001960405160240161096e9291906127bc565b60408051601f198184030181529190526020810180516001600160e01b031663095ea7b360e01b17905290506109b873dac17f958d2ee523a2206206994597c13d831ec782611adb565b506109d7734fabb145d64652a948d72533023f6e7a623c7c5382611adb565b506109f673056fd409e1d7a124bd7017459dfea2f387b6d5cd82611adb565b50610a15736b175474e89094c44da98b954eedeac495271d0f82611adb565b505050508015610a2b576000805461ff00191690555b505050565b6040805180820190915260058152640322e302e360dc1b60208201525b90565b610a58611473565b610a745760405162461bcd60e51b815260040161041e90612b4f565b806001600160a01b0316630881806c6040518163ffffffff1660e01b8152600401600060405180830381600087803b15801561057357600080fd5b600054610100900460ff1680610ac85750610ac861175f565b80610ad6575060005460ff16155b610af25760405162461bcd60e51b815260040161041e90612a7d565b600054610100900460ff16158015610b1d576000805460ff1961ff0019909116610100171660011790555b610b256117e6565b8015610b37576000805461ff00191690555b50565b610b42611473565b610b5e5760405162461bcd60e51b815260040161041e90612b4f565b610b7184610b6a611916565b3088611c32565b6101c454600090610b8a906001600160a01b0316611c27565b9050610b9a858288878787611a72565b6040516370a0823160e01b81526000906001600160a01b038316906370a0823190610bc9903090600401612716565b60206040518083038186803b158015610be157600080fd5b505afa158015610bf5573d6000803e3d6000fd5b505050506040513d601f19601f82011682018060405250810190610c1991906126e2565b9050610c258882611c7f565b5050505050505050565b6101c3546001600160a01b0390811691161490565b60975460ff1690565b610c55611473565b610c715760405162461bcd60e51b815260040161041e90612b4f565b60405163a079a4dd60e01b81526001600160a01b0384169063a079a4dd90610c9d9085906004016127e0565b600060405180830381600087803b158015610cb757600080fd5b505af1158015610ccb573d6000803e3d6000fd5b505050506001600160a01b0381161580610ced57506001600160a01b03811630145b15610cfd57610cfa611916565b90505b6101c454610a2b90610d17906001600160a01b03166119f2565b82846113ff565b610d26611473565b610d425760405162461bcd60e51b815260040161041e90612b4f565b60008390506000816001600160a01b03166347195e136040518163ffffffff1660e01b815260040160206040518083038186803b158015610d8257600080fd5b505afa158015610d96573d6000803e3d6000fd5b505050506040513d601f19601f82011682018060405250810190610dba91906122a2565b6001600160a01b031663b69ef8a86040518163ffffffff1660e01b815260040160206040518083038186803b158015610df257600080fd5b505afa158015610e06573d6000803e3d6000fd5b505050506040513d601f19601f82011682018060405250810190610e2a91906126e2565b90506000610ff9836001600160a01b03166347195e136040518163ffffffff1660e01b815260040160206040518083038186803b158015610e6a57600080fd5b505afa158015610e7e573d6000803e3d6000fd5b505050506040513d601f19601f82011682018060405250810190610ea291906122a2565b6001600160a01b03166320dcc3426040518163ffffffff1660e01b815260040160206040518083038186803b158015610eda57600080fd5b505afa158015610eee573d6000803e3d6000fd5b505050506040513d601f19601f82011682018060405250810190610f1291906126e2565b846001600160a01b03166347195e136040518163ffffffff1660e01b815260040160206040518083038186803b158015610f4b57600080fd5b505afa158015610f5f573d6000803e3d6000fd5b505050506040513d601f19601f82011682018060405250810190610f8391906122a2565b6001600160a01b03166321856b366040518163ffffffff1660e01b815260040160206040518083038186803b158015610fbb57600080fd5b505afa158015610fcf573d6000803e3d6000fd5b505050506040513d601f19601f82011682018060405250810190610ff391906126e2565b90611d2b565b905060006110078684611d3d565b905060006110158684611d3d565b905061104f611022611916565b6101c45430908585019061103e906001600160a01b0316611c27565b6001600160a01b0316929190611d53565b61105761220e565b611062898484611d75565b9050806080015160001461075d57fe5b61107a611473565b6110965760405162461bcd60e51b815260040161041e90612b4f565b8685146110b55760405162461bcd60e51b815260040161041e90612943565b6000805b868110156110f0576110e68888838181106110d057fe5b9050602002013583611d2b90919063ffffffff16565b91506001016110b9565b506110fd84610b6a611916565b6101c454600090611116906001600160a01b0316611c27565b9050611126858288858888611a72565b60005b878110156111755761116d8b8b8381811061114057fe5b90506020020160208101906111559190612286565b8a8a8481811061116157fe5b90506020020135611c7f565b600101611129565b5050505050505050505050565b6101c4546001600160a01b031681565b6101c3546001600160a01b031681565b6111bc600080516020612c59833981519152610357611916565b6111d85760405162461bcd60e51b815260040161041e90612afc565b6107a6611e28565b6111e8611473565b6112045760405162461bcd60e51b815260040161041e90612b4f565b6101c45461121a906001600160a01b0316611c27565b6001600160a01b03166323b872dd611230611916565b30846040518463ffffffff1660e01b81526004016112509392919061272a565b602060405180830381600087803b15801561126a57600080fd5b505af115801561127e573d6000803e3d6000fd5b505050506040513d601f19601f820116820180604052508101906112a291906125fa565b6112be5760405162461bcd60e51b815260040161041e90612acb565b6112c88282611c7f565b816001600160a01b03166347195e136040518163ffffffff1660e01b815260040160206040518083038186803b15801561130157600080fd5b505afa158015611315573d6000803e3d6000fd5b505050506040513d601f19601f8201168201806040525081019061133991906122a2565b6001600160a01b031663b69ef8a86040518163ffffffff1660e01b815260040160206040518083038186803b15801561137157600080fd5b505afa158015611385573d6000803e3d6000fd5b505050506040513d601f19601f820116820180604052508101906113a991906126e2565b156105105760405162461bcd60e51b815260040161041e90612a3b565b60008281526065602052604081206113de9083611e81565b90505b92915050565b60008281526065602052604081206113de9083611e8d565b611407611473565b6114235760405162461bcd60e51b815260040161041e90612b4f565b606082826040516024016114389291906127bc565b60408051601f198184030181529190526020810180516001600160e01b031663a9059cbb60e01b17905290506105878482611adb565b600081565b600061148f600080516020612c39833981519152610357611916565b905090565b61149c611473565b6114b85760405162461bcd60e51b815260040161041e90612b4f565b6101c4546114ce906001600160a01b0316611c27565b6001600160a01b03166323b872dd6114e4611916565b30846040518463ffffffff1660e01b81526004016115049392919061272a565b602060405180830381600087803b15801561151e57600080fd5b505af1158015611532573d6000803e3d6000fd5b505050506040513d601f19601f8201168201806040525081019061155691906125fa565b6115725760405162461bcd60e51b815260040161041e90612acb565b6105108282611c7f565b611584611473565b6115a05760405162461bcd60e51b815260040161041e90612b4f565b8281146115bf5760405162461bcd60e51b815260040161041e90612943565b6000805b828110156115e4576115da8484838181106110d057fe5b91506001016115c3565b506101c4546115fb906001600160a01b0316611c27565b6001600160a01b03166323b872dd611611611916565b30846040518463ffffffff1660e01b81526004016116319392919061272a565b602060405180830381600087803b15801561164b57600080fd5b505af115801561165f573d6000803e3d6000fd5b505050506040513d601f19601f8201168201806040525081019061168391906125fa565b61169f5760405162461bcd60e51b815260040161041e90612acb565b60005b828110156116e2576116da8686838181106116b957fe5b90506020020160208101906116ce9190612286565b85858481811061116157fe5b6001016116a2565b505050505050565b60008181526065602052604081206113e190611ea2565b60008281526065602052604090206002015461171f90610357611916565b61061f5760405162461bcd60e51b815260040161041e9061298c565b600080516020612c3983398151915281565b600080516020612c5983398151915281565b303b1590565b600054610100900460ff168061177e575061177e61175f565b8061178c575060005460ff16155b6117a85760405162461bcd60e51b815260040161041e90612a7d565b600054610100900460ff16158015610b25576000805460ff1961ff0019909116610100171660011790558015610b37576000805461ff001916905550565b600054610100900460ff16806117ff57506117ff61175f565b8061180d575060005460ff16155b6118295760405162461bcd60e51b815260040161041e90612a7d565b600054610100900460ff16158015611854576000805460ff1961ff0019909116610100171660011790555b6097805460ff191690558015610b37576000805461ff001916905550565b600054610100900460ff168061188b575061188b61175f565b80611899575060005460ff16155b6118b55760405162461bcd60e51b815260040161041e90612a7d565b600054610100900460ff161580156118e0576000805460ff1961ff0019909116610100171660011790555b60c9805460ff191660011790558015610b37576000805461ff001916905550565b60009182526065602052604090912060020155565b600061148f611ead565b60008281526065602052604090206119389082611edf565b1561051057611945611916565b6001600160a01b0316816001600160a01b0316837f2f8788117e7eff1d82e926ec794901d17c78024a50270940304540a733656f0d60405160405180910390a45050565b60008281526065602052604090206119a19082611ef4565b15610510576119ae611916565b6001600160a01b0316816001600160a01b0316837ff6391f5c32d9c69d2a47ea670b442974b53935d1edc7fd64eb21e047a839171b60405160405180910390a45050565b60006001600160a01b03821663b93f9b0a60055b6040518263ffffffff1660e01b8152600401611a2291906127e0565b60206040518083038186803b158015611a3a57600080fd5b505afa158015611a4e573d6000803e3d6000fd5b505050506040513d601f19601f820116820180604052508101906113e191906122a2565b60608686868686866000604051602401611a92979695949392919061274e565b60408051601f198184030181529190526020810180516001600160e01b0316637153a8af60e11b1790526101c454909150610c2590611ad9906001600160a01b0316611c0f565b825b606060006060846001600160a01b031684604051611af991906126fa565b6000604051808303816000865af19150503d8060008114611b36576040519150601f19603f3d011682016040523d82523d6000602084013e611b3b565b606091505b50909250905081158015611b50575060008151115b15611b5f573d6000803e3d6000fd5b81611b7c5760405162461bcd60e51b815260040161041e90612b18565b949350505050565b6020015190565b60975460ff16611bad5760405162461bcd60e51b815260040161041e906128ad565b6097805460ff191690557f5db9ee0a495bf2e6ff9c91a7834c1ba4fdd244a5e8aa4e537bd38aeae4b073aa611be0611916565b604051611bed9190612716565b60405180910390a1565b60006001600160a01b03821663b93f9b0a6009611a06565b60006001600160a01b03821663b93f9b0a6008611a06565b60006113e1826119f2565b6060838383604051602401611c499392919061272a565b60408051601f198184030181529190526020810180516001600160e01b03166323b872dd60e01b17905290506116e28582611adb565b6101c454611cad9083908390611c9d906001600160a01b0316611c27565b6001600160a01b03169190611f09565b60405163c290d69160e01b81526001600160a01b0383169063c290d69190611cd99084906004016127e0565b60a060405180830381600087803b158015611cf357600080fd5b505af1158015611d07573d6000803e3d6000fd5b505050506040513d601f19601f82011682018060405250810190610a2b9190612677565b6000828201838110156113de57600080fd5b6000818310611d4c57816113de565b5090919050565b611d6f8484848460405180602001604052806000815250611f24565b50505050565b611d7d61220e565b6101c4548490611d9f90829086860190611c9d906001600160a01b0316611c27565b6040516377a4777360e11b81526001600160a01b0382169063ef48eee690611dcd9087908790600401612be9565b60a060405180830381600087803b158015611de757600080fd5b505af1158015611dfb573d6000803e3d6000fd5b505050506040513d601f19601f82011682018060405250810190611e1f9190612677565b95945050505050565b60975460ff1615611e4b5760405162461bcd60e51b815260040161041e906129dc565b6097805460ff191660011790557f62e78cea01bee320cd4e420270b5ea74000d11b0c9f74754ebdbfc544b05a258611be0611916565b60006113de8383611ff9565b60006113de836001600160a01b03841661203e565b60006113e182612056565b600060183610801590611ec45750611ec433610c2f565b15611ed8575060131936013560601c610a4d565b5033610a4d565b60006113de836001600160a01b03841661205a565b60006113de836001600160a01b0384166120a4565b610a2b8383836040518060200160405280600081525061216a565b6001600160a01b038316611f4a5760405162461bcd60e51b815260040161041e90612925565b6040516323b872dd60e01b81526000906001600160a01b038716906323b872dd90611f7d9088908890889060040161272a565b602060405180830381600087803b158015611f9757600080fd5b505af1158015611fab573d6000803e3d6000fd5b505050506040513d601f19601f82011682018060405250810190611fcf91906125fa565b90508181611ff05760405162461bcd60e51b815260040161041e91906127e9565b50505050505050565b8154600090821061201c5760405162461bcd60e51b815260040161041e9061281c565b82600001828154811061202b57fe5b9060005260206000200154905092915050565b60009081526001919091016020526040902054151590565b5490565b6000612066838361203e565b61209c575081546001818101845560008481526020808220909301849055845484825282860190935260409020919091556113e1565b5060006113e1565b6000818152600183016020526040812054801561216057835460001980830191908101906000908790839081106120d757fe5b90600052602060002001549050808760000184815481106120f457fe5b60009182526020808320909101929092558281526001898101909252604090209084019055865487908061212457fe5b600190038181906000526020600020016000905590558660010160008781526020019081526020016000206000905560019450505050506113e1565b60009150506113e1565b60405163095ea7b360e01b81526000906001600160a01b0386169063095ea7b39061219b90879087906004016127bc565b602060405180830381600087803b1580156121b557600080fd5b505af11580156121c9573d6000803e3d6000fd5b505050506040513d601f19601f820116820180604052508101906121ed91906125fa565b905081816116e25760405162461bcd60e51b815260040161041e91906127e9565b6040518060a0016040528060008152602001600081526020016000815260200160008152602001600081525090565b60008083601f84011261224e578182fd5b50813567ffffffffffffffff811115612265578182fd5b602083019150836020808302850101111561227f57600080fd5b9250929050565b600060208284031215612297578081fd5b81356113de81612c23565b6000602082840312156122b3578081fd5b81516113de81612c23565b600080604083850312156122d0578081fd5b82356122db81612c23565b915060208301356122eb81612c23565b809150509250929050565b60008060006060848603121561230a578081fd5b833561231581612c23565b9250602084013561232581612c23565b929592945050506040919091013590565b60008060408385031215612348578182fd5b823561235381612c23565b946020939093013593505050565b600080600060608486031215612375578283fd5b833561238081612c23565b925060208401359150604084013561239781612c23565b809150509250925092565b600080600080600080600060c0888a0312156123bc578283fd5b87356123c781612c23565b96506020880135955060408801356123de81612c23565b945060608801356123ee81612c23565b93506080880135925060a088013567ffffffffffffffff811115612410578283fd5b61241c8a828b0161223d565b989b979a50959850939692959293505050565b60008060008060008060a08789031215612447578182fd5b863561245281612c23565b955060208701359450604087013561246981612c23565b935060608701359250608087013567ffffffffffffffff81111561248b578283fd5b61249789828a0161223d565b979a9699509497509295939492505050565b6000806000606084860312156124bd578283fd5b83356124c881612c23565b95602085013595506040909401359392505050565b600080600080604085870312156124f2578182fd5b843567ffffffffffffffff80821115612509578384fd5b6125158883890161223d565b9096509450602087013591508082111561252d578384fd5b5061253a8782880161223d565b95989497509550505050565b60008060008060008060008060a0898b031215612561578182fd5b883567ffffffffffffffff80821115612578578384fd5b6125848c838d0161223d565b909a50985060208b013591508082111561259c578384fd5b6125a88c838d0161223d565b909850965060408b0135955060608b013591506125c482612c23565b90935060808a013590808211156125d9578384fd5b506125e68b828c0161223d565b999c989b5096995094979396929594505050565b60006020828403121561260b578081fd5b815180151581146113de578182fd5b60006020828403121561262b578081fd5b5035919050565b60008060408385031215612644578182fd5b8235915060208301356122eb81612c23565b60008060408385031215612668578182fd5b50508035926020909101359150565b600060a08284031215612688578081fd5b60405160a0810181811067ffffffffffffffff821117156126a7578283fd5b806040525082518152602083015160208201526040830151604082015260608301516060820152608083015160808201528091505092915050565b6000602082840312156126f3578081fd5b5051919050565b6000825161270c818460208701612bf7565b9190910192915050565b6001600160a01b0391909116815260200190565b6001600160a01b039384168152919092166020820152604081019190915260600190565b6001600160a01b03888116825287166020820152604081018690526060810185905260c060808201819052810183905260006001600160fb1b03841115612793578081fd5b60208402808660e0850137820160e00190815260ff9290921660a0909101529695505050505050565b6001600160a01b03929092168252602082015260400190565b901515815260200190565b90815260200190565b6000602082528251806020840152612808816040850160208701612bf7565b601f01601f19169190910160400192915050565b60208082526022908201527f456e756d657261626c655365743a20696e646578206f7574206f6620626f756e604082015261647360f01b606082015260800190565b6020808252602f908201527f416363657373436f6e74726f6c3a2073656e646572206d75737420626520616e60408201526e0818591b5a5b881d1bc819dc985b9d608a1b606082015260800190565b60208082526014908201527314185d5cd8589b194e881b9bdd081c185d5cd95960621b604082015260600190565b6020808252602a908201527f4f776e657220616e6420636f6e666967206164647265737365732063616e6e6f6040820152697420626520656d70747960b01b606082015260800190565b6020808252600490820152635a45524f60e01b604082015260600190565b60208082526029908201527f506f6f6c7320616e6420616d6f756e7473206d757374206265207468652073616040820152680daca40d8cadccee8d60bb1b606082015260800190565b60208082526030908201527f416363657373436f6e74726f6c3a2073656e646572206d75737420626520616e60408201526f2061646d696e20746f207265766f6b6560801b606082015260800190565b60208082526010908201526f14185d5cd8589b194e881c185d5cd95960821b604082015260600190565b6020808252818101527f4f776e65722063616e6e6f7420626520746865207a65726f2061646472657373604082015260600190565b60208082526022908201527f4661696c656420746f2066756c6c7920706179206f6666206372656469746c696040820152616e6560f01b606082015260800190565b6020808252602e908201527f436f6e747261637420696e7374616e63652068617320616c726561647920626560408201526d195b881a5b9a5d1a585b1a5e995960921b606082015260800190565b6020808252601790820152764661696c656420746f207472616e73666572205553444360481b604082015260600190565b6020808252600290820152614e4160f01b604082015260600190565b6020808252601b908201527f564d3a2077616c6c6574205f696e766f6b652072657665727465640000000000604082015260600190565b6020808252602b908201527f4d75737420686176652061646d696e20726f6c6520746f20706572666f726d2060408201526a3a3434b99030b1ba34b7b760a91b606082015260800190565b6020808252602f908201527f416363657373436f6e74726f6c3a2063616e206f6e6c792072656e6f756e636560408201526e103937b632b9903337b91039b2b63360891b606082015260800190565b918252602082015260400190565b60005b83811015612c12578181015183820152602001612bfa565b83811115611d6f5750506000910152565b6001600160a01b0381168114610b3757600080fdfeb19546dff01e856fb3f010c267a7b1c60363cf8a4664e21cc89c26224620214e65d7a28e3265b37a6474929f336521b332c1681b933f6cb9f3376673440d862aa2646970667358221220523544fcc9da7506e4b78dfd7cce8a201a64a229576396a46c1bd47a4005dfc364736f6c634300060c0033",
  "devdoc": {
    "author": "Goldfinch",
    "kind": "dev",
    "methods": {
      "drawdown(address,uint256,address)": {
        "params": {
          "addressToSendTo": "Address to send the funds. Null address or address(this) will send funds back to the caller",
          "amount": "usdc amount to drawdown",
          "poolAddress": "Pool to drawdown from"
        }
      },
      "drawdownWithSwapOnOneInch(address,uint256,address,address,uint256,uint256[])": {
        "params": {
          "addressToSendTo": "address to send the `toToken` to",
          "amount": "usdc amount to drawdown from the pool",
          "minTargetAmount": "min amount of `toToken` you're willing to accept from the swap (i.e. a slippage tolerance)",
          "toToken": "address of the ERC20 to swap to"
        }
      },
      "getRoleAdmin(bytes32)": {
        "details": "Returns the admin role that controls `role`. See {grantRole} and {revokeRole}. To change a role's admin, use {_setRoleAdmin}."
      },
      "getRoleMember(bytes32,uint256)": {
        "details": "Returns one of the accounts that have `role`. `index` must be a value between 0 and {getRoleMemberCount}, non-inclusive. Role bearers are not sorted in any particular way, and their ordering may change at any point. WARNING: When using {getRoleMember} and {getRoleMemberCount}, make sure you perform all queries on the same block. See the following https://forum.openzeppelin.com/t/iterating-over-elements-on-enumerableset-in-openzeppelin-contracts/2296[forum post] for more information."
      },
      "getRoleMemberCount(bytes32)": {
        "details": "Returns the number of accounts that have `role`. Can be used together with {getRoleMember} to enumerate all bearers of a role."
      },
      "grantRole(bytes32,address)": {
        "details": "Grants `role` to `account`. If `account` had not been already granted `role`, emits a {RoleGranted} event. Requirements: - the caller must have ``role``'s admin role."
      },
      "hasRole(bytes32,address)": {
        "details": "Returns `true` if `account` has been granted `role`."
      },
      "pause()": {
        "details": "Pauses all functions guarded by Pause See {Pausable-_pause}. Requirements: - the caller must have the PAUSER_ROLE."
      },
      "paused()": {
        "details": "Returns true if the contract is paused, and false otherwise."
      },
      "pay(address,uint256)": {
        "params": {
          "amount": "USDC amount to pay",
          "poolAddress": "pool address"
        }
      },
      "pay(address,uint256,uint256)": {
        "params": {
          "interestAmount": "interest amount to pay",
          "poolAddress": "The pool to be paid back",
          "principalAmount": "principal amount to pay"
        }
      },
      "payMultiple(address[],uint256[])": {
        "params": {
          "amounts": "amounts to pay back",
          "pools": "list of pool addresses for which the caller is the borrower"
        }
      },
      "renounceRole(bytes32,address)": {
        "details": "Revokes `role` from the calling account. Roles are often managed via {grantRole} and {revokeRole}: this function's purpose is to provide a mechanism for accounts to lose their privileges if they are compromised (such as when a trusted device is misplaced). If the calling account had been granted `role`, emits a {RoleRevoked} event. Requirements: - the caller must be `account`."
      },
      "revokeRole(bytes32,address)": {
        "details": "Revokes `role` from `account`. If `account` had been granted `role`, emits a {RoleRevoked} event. Requirements: - the caller must have ``role``'s admin role."
      },
      "unpause()": {
        "details": "Unpauses the contract See {Pausable-_unpause}. Requirements: - the caller must have the Pauser role"
      }
    },
    "title": "Goldfinch's Borrower contract",
    "version": 1
  },
  "userdoc": {
    "kind": "user",
    "methods": {
      "drawdown(address,uint256,address)": {
        "notice": "Drawdown on a v1 or v2 tranched pool"
      },
      "drawdownWithSwapOnOneInch(address,uint256,address,address,uint256,uint256[])": {
        "notice": "Drawdown on a v1 or v2 pool and swap the usdc to the desired token using OneInch"
      },
      "isTrustedForwarder(address)": {
        "notice": "return if the forwarder is trusted to forward relayed transactions to us. the forwarder is required to verify the sender's signature, and verify the call is not a replay."
      },
      "pay(address,uint256)": {
        "notice": "Pay back a v1 or v2 tranched pool"
      },
      "pay(address,uint256,uint256)": {
        "notice": "Pay back a v2.0.0 pool"
      },
      "payMultiple(address[],uint256[])": {
        "notice": "Pay back multiple pools. Supports v0.1.0 and v1.0.0 pools"
      }
    },
    "notice": "These contracts represent the a convenient way for a borrower to interact with Goldfinch  They are 100% optional. However, they let us add many sophisticated and convient features for borrowers  while still keeping our core protocol small and secure. We therefore expect most borrowers will use them.  This contract is the \"official\" borrower contract that will be maintained by Goldfinch governance. However,  in theory, anyone can fork or create their own version, or not use any contract at all. The core functionality  is completely agnostic to whether it is interacting with a contract or an externally owned account (EOA).",
    "version": 1
  },
  "storageLayout": {
    "storage": [
      {
        "astId": 50,
        "contract": "contracts/protocol/periphery/Borrower.sol:Borrower",
        "label": "initialized",
        "offset": 0,
        "slot": "0",
        "type": "t_bool"
      },
      {
        "astId": 53,
        "contract": "contracts/protocol/periphery/Borrower.sol:Borrower",
        "label": "initializing",
        "offset": 1,
        "slot": "0",
        "type": "t_bool"
      },
      {
        "astId": 118,
        "contract": "contracts/protocol/periphery/Borrower.sol:Borrower",
        "label": "______gap",
        "offset": 0,
        "slot": "1",
        "type": "t_array(t_uint256)50_storage"
      },
      {
        "astId": 43,
        "contract": "contracts/protocol/periphery/Borrower.sol:Borrower",
        "label": "__gap",
        "offset": 0,
        "slot": "51",
        "type": "t_array(t_uint256)50_storage"
      },
      {
        "astId": 163,
        "contract": "contracts/protocol/periphery/Borrower.sol:Borrower",
        "label": "_roles",
        "offset": 0,
        "slot": "101",
        "type": "t_mapping(t_bytes32,t_struct(RoleData)159_storage)"
      },
      {
        "astId": 408,
        "contract": "contracts/protocol/periphery/Borrower.sol:Borrower",
        "label": "__gap",
        "offset": 0,
        "slot": "102",
        "type": "t_array(t_uint256)49_storage"
      },
      {
        "astId": 3137,
        "contract": "contracts/protocol/periphery/Borrower.sol:Borrower",
        "label": "_paused",
        "offset": 0,
        "slot": "151",
        "type": "t_bool"
      },
      {
        "astId": 3226,
        "contract": "contracts/protocol/periphery/Borrower.sol:Borrower",
        "label": "__gap",
        "offset": 0,
        "slot": "152",
        "type": "t_array(t_uint256)49_storage"
      },
      {
        "astId": 3235,
        "contract": "contracts/protocol/periphery/Borrower.sol:Borrower",
        "label": "_notEntered",
        "offset": 0,
        "slot": "201",
        "type": "t_bool"
      },
      {
        "astId": 3276,
        "contract": "contracts/protocol/periphery/Borrower.sol:Borrower",
        "label": "__gap",
        "offset": 0,
        "slot": "202",
        "type": "t_array(t_uint256)49_storage"
      },
      {
        "astId": 15216,
        "contract": "contracts/protocol/periphery/Borrower.sol:Borrower",
        "label": "__gap1",
        "offset": 0,
        "slot": "251",
        "type": "t_array(t_uint256)50_storage"
      },
      {
        "astId": 15220,
        "contract": "contracts/protocol/periphery/Borrower.sol:Borrower",
        "label": "__gap2",
        "offset": 0,
        "slot": "301",
        "type": "t_array(t_uint256)50_storage"
      },
      {
        "astId": 15224,
        "contract": "contracts/protocol/periphery/Borrower.sol:Borrower",
        "label": "__gap3",
        "offset": 0,
        "slot": "351",
        "type": "t_array(t_uint256)50_storage"
      },
      {
        "astId": 15228,
        "contract": "contracts/protocol/periphery/Borrower.sol:Borrower",
        "label": "__gap4",
        "offset": 0,
        "slot": "401",
        "type": "t_array(t_uint256)50_storage"
      },
      {
        "astId": 8552,
        "contract": "contracts/protocol/periphery/Borrower.sol:Borrower",
        "label": "trustedForwarder",
        "offset": 0,
        "slot": "451",
        "type": "t_address"
      },
      {
        "astId": 30155,
        "contract": "contracts/protocol/periphery/Borrower.sol:Borrower",
        "label": "config",
        "offset": 0,
        "slot": "452",
        "type": "t_contract(GoldfinchConfig)19078"
      }
    ],
    "types": {
      "t_address": {
        "encoding": "inplace",
        "label": "address",
        "numberOfBytes": "20"
      },
      "t_array(t_bytes32)dyn_storage": {
        "base": "t_bytes32",
        "encoding": "dynamic_array",
        "label": "bytes32[]",
        "numberOfBytes": "32"
      },
      "t_array(t_uint256)49_storage": {
        "base": "t_uint256",
        "encoding": "inplace",
        "label": "uint256[49]",
        "numberOfBytes": "1568"
      },
      "t_array(t_uint256)50_storage": {
        "base": "t_uint256",
        "encoding": "inplace",
        "label": "uint256[50]",
        "numberOfBytes": "1600"
      },
      "t_bool": {
        "encoding": "inplace",
        "label": "bool",
        "numberOfBytes": "1"
      },
      "t_bytes32": {
        "encoding": "inplace",
        "label": "bytes32",
        "numberOfBytes": "32"
      },
      "t_contract(GoldfinchConfig)19078": {
        "encoding": "inplace",
        "label": "contract GoldfinchConfig",
        "numberOfBytes": "20"
      },
      "t_mapping(t_bytes32,t_struct(RoleData)159_storage)": {
        "encoding": "mapping",
        "key": "t_bytes32",
        "label": "mapping(bytes32 => struct AccessControlUpgradeSafe.RoleData)",
        "numberOfBytes": "32",
        "value": "t_struct(RoleData)159_storage"
      },
      "t_mapping(t_bytes32,t_uint256)": {
        "encoding": "mapping",
        "key": "t_bytes32",
        "label": "mapping(bytes32 => uint256)",
        "numberOfBytes": "32",
        "value": "t_uint256"
      },
      "t_struct(AddressSet)2912_storage": {
        "encoding": "inplace",
        "label": "struct EnumerableSet.AddressSet",
        "members": [
          {
            "astId": 2911,
            "contract": "contracts/protocol/periphery/Borrower.sol:Borrower",
            "label": "_inner",
            "offset": 0,
            "slot": "0",
            "type": "t_struct(Set)2732_storage"
          }
        ],
        "numberOfBytes": "64"
      },
      "t_struct(RoleData)159_storage": {
        "encoding": "inplace",
        "label": "struct AccessControlUpgradeSafe.RoleData",
        "members": [
          {
            "astId": 156,
            "contract": "contracts/protocol/periphery/Borrower.sol:Borrower",
            "label": "members",
            "offset": 0,
            "slot": "0",
            "type": "t_struct(AddressSet)2912_storage"
          },
          {
            "astId": 158,
            "contract": "contracts/protocol/periphery/Borrower.sol:Borrower",
            "label": "adminRole",
            "offset": 0,
            "slot": "2",
            "type": "t_bytes32"
          }
        ],
        "numberOfBytes": "96"
      },
      "t_struct(Set)2732_storage": {
        "encoding": "inplace",
        "label": "struct EnumerableSet.Set",
        "members": [
          {
            "astId": 2727,
            "contract": "contracts/protocol/periphery/Borrower.sol:Borrower",
            "label": "_values",
            "offset": 0,
            "slot": "0",
            "type": "t_array(t_bytes32)dyn_storage"
          },
          {
            "astId": 2731,
            "contract": "contracts/protocol/periphery/Borrower.sol:Borrower",
            "label": "_indexes",
            "offset": 0,
            "slot": "1",
            "type": "t_mapping(t_bytes32,t_uint256)"
          }
        ],
        "numberOfBytes": "64"
      },
      "t_uint256": {
        "encoding": "inplace",
        "label": "uint256",
        "numberOfBytes": "32"
      }
    }
  }
}