{
  "address": "0x89288093dccfe11C235bB3A19C98891e8E4d2b44",
  "abi": [
    {
      "anonymous": false,
      "inputs": [
        {
          "indexed": true,
          "internalType": "uint256",
          "name": "lineageId",
          "type": "uint256"
        },
        {
          "indexed": true,
          "internalType": "address",
          "name": "newImplementation",
          "type": "address"
        },
        {
          "indexed": true,
          "internalType": "address",
          "name": "oldImplementation",
          "type": "address"
        }
      ],
      "name": "Added",
      "type": "event"
    },
    {
      "anonymous": false,
      "inputs": [
        {
          "indexed": false,
          "internalType": "address",
          "name": "account",
          "type": "address"
        }
      ],
      "name": "Paused",
      "type": "event"
    },
    {
      "anonymous": false,
      "inputs": [
        {
          "indexed": true,
          "internalType": "uint256",
          "name": "lineageId",
          "type": "uint256"
        },
        {
          "indexed": true,
          "internalType": "address",
          "name": "implementation",
          "type": "address"
        }
      ],
      "name": "Removed",
      "type": "event"
    },
    {
      "anonymous": false,
      "inputs": [
        {
          "indexed": true,
          "internalType": "bytes32",
          "name": "role",
          "type": "bytes32"
        },
        {
          "indexed": true,
          "internalType": "address",
          "name": "account",
          "type": "address"
        },
        {
          "indexed": true,
          "internalType": "address",
          "name": "sender",
          "type": "address"
        }
      ],
      "name": "RoleGranted",
      "type": "event"
    },
    {
      "anonymous": false,
      "inputs": [
        {
          "indexed": true,
          "internalType": "bytes32",
          "name": "role",
          "type": "bytes32"
        },
        {
          "indexed": true,
          "internalType": "address",
          "name": "account",
          "type": "address"
        },
        {
          "indexed": true,
          "internalType": "address",
          "name": "sender",
          "type": "address"
        }
      ],
      "name": "RoleRevoked",
      "type": "event"
    },
    {
      "anonymous": false,
      "inputs": [
        {
          "indexed": false,
          "internalType": "address",
          "name": "account",
          "type": "address"
        }
      ],
      "name": "Unpaused",
      "type": "event"
    },
    {
      "anonymous": false,
      "inputs": [
        {
          "indexed": true,
          "internalType": "address",
          "name": "implementation",
          "type": "address"
        },
        {
          "indexed": false,
          "internalType": "bytes",
          "name": "data",
          "type": "bytes"
        }
      ],
      "name": "UpgradeDataSet",
      "type": "event"
    },
    {
      "anonymous": false,
      "inputs": [
        {
          "indexed": true,
          "internalType": "uint8[3]",
          "name": "version",
          "type": "uint8[3]"
        },
        {
          "indexed": true,
          "internalType": "address",
          "name": "impl",
          "type": "address"
        }
      ],
      "name": "VersionAdded",
      "type": "event"
    },
    {
      "anonymous": false,
      "inputs": [
        {
          "indexed": true,
          "internalType": "uint8[3]",
          "name": "version",
          "type": "uint8[3]"
        },
        {
          "indexed": true,
          "internalType": "address",
          "name": "impl",
          "type": "address"
        }
      ],
      "name": "VersionRemoved",
      "type": "event"
    },
    {
      "inputs": [],
      "name": "DEFAULT_ADMIN_ROLE",
      "outputs": [
        {
          "internalType": "bytes32",
          "name": "",
          "type": "bytes32"
        }
      ],
      "stateMutability": "view",
      "type": "function"
    },
    {
      "inputs": [],
      "name": "OWNER_ROLE",
      "outputs": [
        {
          "internalType": "bytes32",
          "name": "",
          "type": "bytes32"
        }
      ],
      "stateMutability": "view",
      "type": "function"
    },
    {
      "inputs": [],
      "name": "PAUSER_ROLE",
      "outputs": [
        {
          "internalType": "bytes32",
          "name": "",
          "type": "bytes32"
        }
      ],
      "stateMutability": "view",
      "type": "function"
    },
    {
      "inputs": [
        {
          "internalType": "address",
          "name": "owner",
          "type": "address"
        }
      ],
      "name": "__BaseUpgradeablePausable__init",
      "outputs": [],
      "stateMutability": "nonpayable",
      "type": "function"
    },
    {
      "inputs": [],
      "name": "__PauserPausable__init",
      "outputs": [],
      "stateMutability": "nonpayable",
      "type": "function"
    },
    {
      "inputs": [
        {
          "internalType": "address",
          "name": "implementation",
          "type": "address"
        },
        {
          "internalType": "uint256",
          "name": "lineageId",
          "type": "uint256"
        }
      ],
      "name": "append",
      "outputs": [],
      "stateMutability": "nonpayable",
      "type": "function"
    },
    {
      "inputs": [
        {
          "internalType": "address",
          "name": "implementation",
          "type": "address"
        }
      ],
      "name": "append",
      "outputs": [],
      "stateMutability": "nonpayable",
      "type": "function"
    },
    {
      "inputs": [
        {
          "internalType": "address",
          "name": "implementation",
          "type": "address"
        }
      ],
      "name": "createLineage",
      "outputs": [
        {
          "internalType": "uint256",
          "name": "",
          "type": "uint256"
        }
      ],
      "stateMutability": "nonpayable",
      "type": "function"
    },
    {
      "inputs": [],
      "name": "currentImplementation",
      "outputs": [
        {
          "internalType": "address",
          "name": "",
          "type": "address"
        }
      ],
      "stateMutability": "view",
      "type": "function"
    },
    {
      "inputs": [
        {
          "internalType": "uint256",
          "name": "lineageId",
          "type": "uint256"
        }
      ],
      "name": "currentImplementation",
      "outputs": [
        {
          "internalType": "address",
          "name": "",
          "type": "address"
        }
      ],
      "stateMutability": "view",
      "type": "function"
    },
    {
      "inputs": [],
      "name": "currentLineageId",
      "outputs": [
        {
          "internalType": "uint256",
          "name": "",
          "type": "uint256"
        }
      ],
      "stateMutability": "view",
      "type": "function"
    },
    {
      "inputs": [
        {
          "internalType": "uint8[3]",
          "name": "version",
          "type": "uint8[3]"
        }
      ],
      "name": "getByVersion",
      "outputs": [
        {
          "internalType": "address",
          "name": "",
          "type": "address"
        }
      ],
      "stateMutability": "view",
      "type": "function"
    },
    {
      "inputs": [
        {
          "internalType": "bytes32",
          "name": "role",
          "type": "bytes32"
        }
      ],
      "name": "getRoleAdmin",
      "outputs": [
        {
          "internalType": "bytes32",
          "name": "",
          "type": "bytes32"
        }
      ],
      "stateMutability": "view",
      "type": "function"
    },
    {
      "inputs": [
        {
          "internalType": "bytes32",
          "name": "role",
          "type": "bytes32"
        },
        {
          "internalType": "uint256",
          "name": "index",
          "type": "uint256"
        }
      ],
      "name": "getRoleMember",
      "outputs": [
        {
          "internalType": "address",
          "name": "",
          "type": "address"
        }
      ],
      "stateMutability": "view",
      "type": "function"
    },
    {
      "inputs": [
        {
          "internalType": "bytes32",
          "name": "role",
          "type": "bytes32"
        }
      ],
      "name": "getRoleMemberCount",
      "outputs": [
        {
          "internalType": "uint256",
          "name": "",
          "type": "uint256"
        }
      ],
      "stateMutability": "view",
      "type": "function"
    },
    {
      "inputs": [
        {
          "internalType": "bytes32",
          "name": "role",
          "type": "bytes32"
        },
        {
          "internalType": "address",
          "name": "account",
          "type": "address"
        }
      ],
      "name": "grantRole",
      "outputs": [],
      "stateMutability": "nonpayable",
      "type": "function"
    },
    {
      "inputs": [
        {
          "internalType": "address",
          "name": "implementation",
          "type": "address"
        }
      ],
      "name": "has",
      "outputs": [
        {
          "internalType": "bool",
          "name": "",
          "type": "bool"
        }
      ],
      "stateMutability": "view",
      "type": "function"
    },
    {
      "inputs": [
        {
          "internalType": "address",
          "name": "implementation",
          "type": "address"
        }
      ],
      "name": "hasNext",
      "outputs": [
        {
          "internalType": "bool",
          "name": "",
          "type": "bool"
        }
      ],
      "stateMutability": "view",
      "type": "function"
    },
    {
      "inputs": [
        {
          "internalType": "bytes32",
          "name": "role",
          "type": "bytes32"
        },
        {
          "internalType": "address",
          "name": "account",
          "type": "address"
        }
      ],
      "name": "hasRole",
      "outputs": [
        {
          "internalType": "bool",
          "name": "",
          "type": "bool"
        }
      ],
      "stateMutability": "view",
      "type": "function"
    },
    {
      "inputs": [
        {
          "internalType": "uint8[3]",
          "name": "version",
          "type": "uint8[3]"
        }
      ],
      "name": "hasVersion",
      "outputs": [
        {
          "internalType": "bool",
          "name": "",
          "type": "bool"
        }
      ],
      "stateMutability": "view",
      "type": "function"
    },
    {
      "inputs": [
        {
          "internalType": "address",
          "name": "_owner",
          "type": "address"
        },
        {
          "internalType": "address",
          "name": "implementation",
          "type": "address"
        }
      ],
      "name": "initialize",
      "outputs": [],
      "stateMutability": "nonpayable",
      "type": "function"
    },
    {
      "inputs": [],
      "name": "isAdmin",
      "outputs": [
        {
          "internalType": "bool",
          "name": "",
          "type": "bool"
        }
      ],
      "stateMutability": "view",
      "type": "function"
    },
    {
      "inputs": [
        {
          "internalType": "uint256",
          "name": "lineageId",
          "type": "uint256"
        }
      ],
      "name": "lineageExists",
      "outputs": [
        {
          "internalType": "bool",
          "name": "",
          "type": "bool"
        }
      ],
      "stateMutability": "view",
      "type": "function"
    },
    {
      "inputs": [
        {
          "internalType": "address",
          "name": "",
          "type": "address"
        }
      ],
      "name": "lineageIdOf",
      "outputs": [
        {
          "internalType": "uint256",
          "name": "",
          "type": "uint256"
        }
      ],
      "stateMutability": "view",
      "type": "function"
    },
    {
      "inputs": [
        {
          "internalType": "address",
          "name": "implementation",
          "type": "address"
        }
      ],
      "name": "nextImplementationOf",
      "outputs": [
        {
          "internalType": "address",
          "name": "",
          "type": "address"
        }
      ],
      "stateMutability": "view",
      "type": "function"
    },
    {
      "inputs": [],
      "name": "pause",
      "outputs": [],
      "stateMutability": "nonpayable",
      "type": "function"
    },
    {
      "inputs": [],
      "name": "paused",
      "outputs": [
        {
          "internalType": "bool",
          "name": "",
          "type": "bool"
        }
      ],
      "stateMutability": "view",
      "type": "function"
    },
    {
      "inputs": [
        {
          "internalType": "address",
          "name": "toRemove",
          "type": "address"
        },
        {
          "internalType": "address",
          "name": "previous",
          "type": "address"
        }
      ],
      "name": "remove",
      "outputs": [],
      "stateMutability": "nonpayable",
      "type": "function"
    },
    {
      "inputs": [
        {
          "internalType": "bytes32",
          "name": "role",
          "type": "bytes32"
        },
        {
          "internalType": "address",
          "name": "account",
          "type": "address"
        }
      ],
      "name": "renounceRole",
      "outputs": [],
      "stateMutability": "nonpayable",
      "type": "function"
    },
    {
      "inputs": [
        {
          "internalType": "bytes32",
          "name": "role",
          "type": "bytes32"
        },
        {
          "internalType": "address",
          "name": "account",
          "type": "address"
        }
      ],
      "name": "revokeRole",
      "outputs": [],
      "stateMutability": "nonpayable",
      "type": "function"
    },
    {
      "inputs": [
        {
          "internalType": "address",
          "name": "implementation",
          "type": "address"
        },
        {
          "internalType": "bytes",
          "name": "data",
          "type": "bytes"
        }
      ],
      "name": "setUpgradeDataFor",
      "outputs": [],
      "stateMutability": "nonpayable",
      "type": "function"
    },
    {
      "inputs": [],
      "name": "unpause",
      "outputs": [],
      "stateMutability": "nonpayable",
      "type": "function"
    },
    {
      "inputs": [
        {
          "internalType": "address",
          "name": "",
          "type": "address"
        }
      ],
      "name": "upgradeDataFor",
      "outputs": [
        {
          "internalType": "bytes",
          "name": "",
          "type": "bytes"
        }
      ],
      "stateMutability": "view",
      "type": "function"
    }
  ],
  "transactionHash": "0xd124d9a4f01cb8d5010113b63834c6d40286e9acd4701ce54f96c0b8c7cd80cf",
  "args": [],
  "numDeployments": 1,
  "solcInputHash": "037931358a02360a4927a740cc7df37a",
  "bytecode": "0x608060405234801561001057600080fd5b50612592806100206000396000f3fe608060405234801561001057600080fd5b50600436106101bb5760003560e01c8063800751b2116100fa578063ac04f5a71161009d578063ac04f5a7146105b8578063b6db75a0146105de578063ca15c873146105e6578063d547741f14610603578063d8bd5c291461062f578063e58378bb14610637578063e63ab1e91461063f578063f57f688014610647578063fd81bf9a14610663576101bb565b8063800751b21461046e5780638456cb591461047657806386c700e21461047e5780638e12f761146104aa5780639010d07c1461054557806391d14854146105685780639fb9d3d314610594578063a217fddf146105b0576101bb565b8063526d81f611610162578063526d81f6146103055780635b730dbb1461030d5780635c975abb146103335780636063d19c1461033b5780636067570e146103585780636a3def6c146103d857806378e33e4e1461041a5780637f7c149114610440576101bb565b8063097616a3146101c05780630e6a6ef5146101e857806321887c3d14610222578063248a9ca3146102485780632f2ff15d1461027757806336568abe146102a35780633f4ba83a146102cf578063485cc955146102d7575b600080fd5b6101e6600480360360208110156101d657600080fd5b50356001600160a01b0316610680565b005b61020e600480360360208110156101fe57600080fd5b50356001600160a01b0316610804565b604080519115158252519081900360200190f35b61020e6004803603602081101561023857600080fd5b50356001600160a01b0316610825565b6102656004803603602081101561025e57600080fd5b5035610836565b60408051918252519081900360200190f35b6101e66004803603604081101561028d57600080fd5b50803590602001356001600160a01b031661084b565b6101e6600480360360408110156102b957600080fd5b50803590602001356001600160a01b03166108b3565b6101e6610914565b6101e6600480360360408110156102ed57600080fd5b506001600160a01b038135811691602001351661096e565b6101e6610a32565b6102656004803603602081101561032357600080fd5b50356001600160a01b0316610adc565b61020e610aef565b61020e6004803603602081101561035157600080fd5b5035610af8565b6101e66004803603604081101561036e57600080fd5b6001600160a01b03823516919081019060408101602082013564010000000081111561039957600080fd5b8201836020820111156103ab57600080fd5b803590602001918460018302840111640100000000831117156103cd57600080fd5b509092509050610b03565b6103fe600480360360208110156103ee57600080fd5b50356001600160a01b0316610bd1565b604080516001600160a01b039092168252519081900360200190f35b6102656004803603602081101561043057600080fd5b50356001600160a01b0316610c3f565b6101e66004803603604081101561045657600080fd5b506001600160a01b0381358116916020013516610cd8565b610265610d70565b6101e6610d77565b6101e66004803603604081101561049457600080fd5b506001600160a01b038135169060200135610dcf565b6104d0600480360360208110156104c057600080fd5b50356001600160a01b0316610e67565b6040805160208082528351818301528351919283929083019185019080838360005b8381101561050a5781810151838201526020016104f2565b50505050905090810190601f1680156105375780820380516001836020036101000a031916815260200191505b509250505060405180910390f35b6103fe6004803603604081101561055b57600080fd5b5080359060200135610f03565b61020e6004803603604081101561057e57600080fd5b50803590602001356001600160a01b0316610f22565b6103fe600480360360608110156105aa57600080fd5b50610f3a565b610265610fd6565b6101e6600480360360208110156105ce57600080fd5b50356001600160a01b0316610fdb565b61020e611076565b610265600480360360208110156105fc57600080fd5b5035611097565b6101e66004803603604081101561061957600080fd5b50803590602001356001600160a01b03166110ae565b6103fe611107565b610265611161565b610265611173565b61020e6004803603606081101561065d57600080fd5b50611185565b6103fe6004803603602081101561067957600080fd5b50356111b9565b600054610100900460ff16806106995750610699611210565b806106a7575060005460ff16155b6106e25760405162461bcd60e51b815260040180806020018281038252602e8152602001806124d5602e913960400191505060405180910390fd5b600054610100900460ff1615801561070d576000805460ff1961ff0019909116610100171660011790555b6001600160a01b038216610768576040805162461bcd60e51b815260206004820181905260248201527f4f776e65722063616e6e6f7420626520746865207a65726f2061646472657373604482015290519081900360640190fd5b610770611216565b6107786112b6565b610780611361565b610798600080516020612465833981519152836108a9565b6107b06000805160206124b5833981519152836108a9565b6107d66000805160206124b583398151915260008051602061246583398151915261140f565b6107ee6000805160206124658339815191528061140f565b8015610800576000805461ff00191690555b5050565b6001600160a01b0390811660009081526101c4602052604090205416151590565b600061083082611424565b92915050565b60009081526065602052604090206002015490565b60008281526065602052604090206002015461086e90610869611442565b610f22565b6108a95760405162461bcd60e51b815260040180806020018281038252602f815260200180612436602f913960400191505060405180910390fd5b6108008282611446565b6108bb611442565b6001600160a01b0316816001600160a01b03161461090a5760405162461bcd60e51b815260040180806020018281038252602f81526020018061252e602f913960400191505060405180910390fd5b61080082826114af565b61092e6000805160206124b5833981519152610869611442565b610964576040805162461bcd60e51b81526020600482015260026024820152614e4160f01b604482015290519081900360640190fd5b61096c611518565b565b600054610100900460ff16806109875750610987611210565b80610995575060005460ff16155b6109d05760405162461bcd60e51b815260040180806020018281038252602e8152602001806124d5602e913960400191505060405180910390fd5b600054610100900460ff161580156109fb576000805460ff1961ff0019909116610100171660011790555b610a0483610680565b610a0d826115b6565b506101c754610a1b57600080fd5b8015610a2d576000805461ff00191690555b505050565b600054610100900460ff1680610a4b5750610a4b611210565b80610a59575060005460ff16155b610a945760405162461bcd60e51b815260040180806020018281038252602e8152602001806124d5602e913960400191505060405180910390fd5b600054610100900460ff16158015610abf576000805460ff1961ff0019909116610100171660011790555b610ac76112b6565b8015610ad9576000805461ff00191690555b50565b6101c56020526000908152604090205481565b60975460ff1690565b600061083082611652565b610b0b611076565b610b465760405162461bcd60e51b815260040180806020018281038252602b815260200180612503602b913960400191505060405180910390fd5b60975460ff1615610b91576040805162461bcd60e51b815260206004820152601060248201526f14185d5cd8589b194e881c185d5cd95960821b604482015290519081900360640190fd5b610a2d8383838080601f01602080910402602001604051908101604052809392919081815260200183838082843760009201919091525061166892505050565b60975460009060ff1615610c1f576040805162461bcd60e51b815260206004820152601060248201526f14185d5cd8589b194e881c185d5cd95960821b604482015290519081900360640190fd5b506001600160a01b0390811660009081526101c460205260409020541690565b6000610c49611076565b610c845760405162461bcd60e51b815260040180806020018281038252602b815260200180612503602b913960400191505060405180910390fd5b60975460ff1615610ccf576040805162461bcd60e51b815260206004820152601060248201526f14185d5cd8589b194e881c185d5cd95960821b604482015290519081900360640190fd5b610830826115b6565b610ce0611076565b610d1b5760405162461bcd60e51b815260040180806020018281038252602b815260200180612503602b913960400191505060405180910390fd5b60975460ff1615610d66576040805162461bcd60e51b815260206004820152601060248201526f14185d5cd8589b194e881c185d5cd95960821b604482015290519081900360640190fd5b6108008282611783565b6101c75481565b610d916000805160206124b5833981519152610869611442565b610dc7576040805162461bcd60e51b81526020600482015260026024820152614e4160f01b604482015290519081900360640190fd5b61096c611813565b610dd7611076565b610e125760405162461bcd60e51b815260040180806020018281038252602b815260200180612503602b913960400191505060405180910390fd5b60975460ff1615610e5d576040805162461bcd60e51b815260206004820152601060248201526f14185d5cd8589b194e881c185d5cd95960821b604482015290519081900360640190fd5b6108008282611894565b6101c36020908152600091825260409182902080548351601f600260001961010060018616150201909316929092049182018490048402810184019094528084529091830182828015610efb5780601f10610ed057610100808354040283529160200191610efb565b820191906000526020600020905b815481529060010190602001808311610ede57829003601f168201915b505050505081565b6000828152606560205260408120610f1b9083611925565b9392505050565b6000828152606560205260408120610f1b9083611931565b60006101c8826040516020018082600360200280828437808301925050509150506040516020818303038152906040526040518082805190602001908083835b60208310610f995780518252601f199092019160209182019101610f7a565b51815160209384036101000a60001901801990921691161790529201948552506040519384900301909220546001600160a01b0316949350505050565b600081565b610fe3611076565b61101e5760405162461bcd60e51b815260040180806020018281038252602b815260200180612503602b913960400191505060405180910390fd5b60975460ff1615611069576040805162461bcd60e51b815260206004820152601060248201526f14185d5cd8589b194e881c185d5cd95960821b604482015290519081900360640190fd5b610ad9816101c754611894565b6000611092600080516020612465833981519152610869611442565b905090565b600081815260656020526040812061083090611946565b6000828152606560205260409020600201546110cc90610869611442565b61090a5760405162461bcd60e51b81526004018080602001828103825260308152602001806124856030913960400191505060405180910390fd5b60975460009060ff1615611155576040805162461bcd60e51b815260206004820152601060248201526f14185d5cd8589b194e881c185d5cd95960821b604482015290519081900360640190fd5b6110926101c754611951565b60008051602061246583398151915281565b6000805160206124b583398151915281565b600061083082600380602002604051908101604052809291908260036020028082843760009201919091525061196d915050565b60975460009060ff1615611207576040805162461bcd60e51b815260206004820152601060248201526f14185d5cd8589b194e881c185d5cd95960821b604482015290519081900360640190fd5b61083082611951565b303b1590565b600054610100900460ff168061122f575061122f611210565b8061123d575060005460ff16155b6112785760405162461bcd60e51b815260040180806020018281038252602e8152602001806124d5602e913960400191505060405180910390fd5b600054610100900460ff16158015610ac7576000805460ff1961ff0019909116610100171660011790558015610ad9576000805461ff001916905550565b600054610100900460ff16806112cf57506112cf611210565b806112dd575060005460ff16155b6113185760405162461bcd60e51b815260040180806020018281038252602e8152602001806124d5602e913960400191505060405180910390fd5b600054610100900460ff16158015611343576000805460ff1961ff0019909116610100171660011790555b6097805460ff191690558015610ad9576000805461ff001916905550565b600054610100900460ff168061137a575061137a611210565b80611388575060005460ff16155b6113c35760405162461bcd60e51b815260040180806020018281038252602e8152602001806124d5602e913960400191505060405180910390fd5b600054610100900460ff161580156113ee576000805460ff1961ff0019909116610100171660011790555b60c9805460ff191660011790558015610ad9576000805461ff001916905550565b60009182526065602052604090912060020155565b6001600160a01b031660009081526101c56020526040902054151590565b3390565b600082815260656020526040902061145e9082611a32565b156108005761146b611442565b6001600160a01b0316816001600160a01b0316837f2f8788117e7eff1d82e926ec794901d17c78024a50270940304540a733656f0d60405160405180910390a45050565b60008281526065602052604090206114c79082611a47565b15610800576114d4611442565b6001600160a01b0316816001600160a01b0316837ff6391f5c32d9c69d2a47ea670b442974b53935d1edc7fd64eb21e047a839171b60405160405180910390a45050565b60975460ff16611566576040805162461bcd60e51b815260206004820152601460248201527314185d5cd8589b194e881b9bdd081c185d5cd95960621b604482015290519081900360640190fd5b6097805460ff191690557f5db9ee0a495bf2e6ff9c91a7834c1ba4fdd244a5e8aa4e537bd38aeae4b073aa611599611442565b604080516001600160a01b039092168252519081900360200190a1565b60006115c0612362565b826001600160a01b0316630d8e6e2c6040518163ffffffff1660e01b815260040160606040518083038186803b1580156115f957600080fd5b505afa15801561160d573d6000803e3d6000fd5b505050506040513d601f19601f82011682018060405250606081101561163257600080fd5b50905061163f8184611a5c565b600061164a84611bc5565b949350505050565b600081158015906108305750506101c754101590565b61167182611424565b6116b1576040805162461bcd60e51b815260206004820152600c60248201526b1d5b9adb9bdddb881a5b5c1b60a21b604482015290519081900360640190fd5b6001600160a01b03821660009081526101c36020908152604090912082516116db92840190612380565b50816001600160a01b03167fcfcd475c604bfbc75932564c95bc031e51de33f73cad003713615047cd8fff2e826040518080602001828103825283818151815260200191508051906020019080838360005b8381101561174557818101518382015260200161172d565b50505050905090810190601f1680156117725780820380516001836020036101000a031916815260200191505b509250505060405180910390a25050565b61178b612362565b826001600160a01b0316630d8e6e2c6040518163ffffffff1660e01b815260040160606040518083038186803b1580156117c457600080fd5b505afa1580156117d8573d6000803e3d6000fd5b505050506040513d601f19601f8201168201806040525060608110156117fd57600080fd5b50905061180981611c8e565b610a2d8383611e60565b60975460ff161561185e576040805162461bcd60e51b815260206004820152601060248201526f14185d5cd8589b194e881c185d5cd95960821b604482015290519081900360640190fd5b6097805460ff191660011790557f62e78cea01bee320cd4e420270b5ea74000d11b0c9f74754ebdbfc544b05a258611599611442565b61189c612362565b826001600160a01b0316630d8e6e2c6040518163ffffffff1660e01b815260040160606040518083038186803b1580156118d557600080fd5b505afa1580156118e9573d6000803e3d6000fd5b505050506040513d601f19601f82011682018060405250606081101561190e57600080fd5b50905061191b8184611a5c565b610a2d838361200f565b6000610f1b83836121cc565b6000610f1b836001600160a01b038416612230565b600061083082612248565b60009081526101c660205260409020546001600160a01b031690565b6000806001600160a01b03166101c8836040516020018082600360200280838360005b838110156119a8578181015183820152602001611990565b505050509050019150506040516020818303038152906040526040518082805190602001908083835b602083106119f05780518252601f1990920191602091820191016119d1565b51815160209384036101000a60001901801990921691161790529201948552506040519384900301909220546001600160a01b03169290921415949350505050565b6000610f1b836001600160a01b03841661224c565b6000610f1b836001600160a01b038416612296565b611a658261196d565b15611aa0576040805162461bcd60e51b815260206004820152600660248201526565786973747360d01b604482015290519081900360640190fd5b806101c8836040516020018082600360200280838360005b83811015611ad0578181015183820152602001611ab8565b505050509050019150506040516020818303038152906040526040518082805190602001908083835b60208310611b185780518252601f199092019160209182019101611af9565b51815160209384036101000a60001901801990921691161790529201948552506040519384900301832080546001600160a01b0319166001600160a01b0395861617905550509082169083908082606080838360005b83811015611b86578181015183820152602001611b6e565b505060405194909201849003842095507f0e9fe021c3c807e908689f11f723b17a4f0d65d0a62a5cda1e39656ddee33c88945060009392505050a35050565b6000611bd08261235c565b611c12576040805162461bcd60e51b815260206004820152600e60248201526d1b9bdd08184818dbdb9d1c9858dd60921b604482015290519081900360640190fd5b6101c7805460010180825560009081526101c66020908152604080832080546001600160a01b0319166001600160a01b03881690811790915593548484526101c5909252808320829055519192917f5570b95960d1ec214184bfc3681f1e8b1b70e90f7e07e53a209e8029cbba5d5b908490a450506101c75490565b60006101c8826040516020018082600360200280838360005b83811015611cbf578181015183820152602001611ca7565b505050509050019150506040516020818303038152906040526040518082805190602001908083835b60208310611d075780518252601f199092019160209182019101611ce8565b51815160209384036101000a60001901801990921691161790529201948552506040519384900381018420546001600160a01b031694506000936101c893508692500180826060808383895b83811015611d6b578181015183820152602001611d53565b505050509050019150506040516020818303038152906040526040518082805190602001908083835b60208310611db35780518252601f199092019160209182019101611d94565b51815160209384036101000a60001901801990921691161790529201948552506040519384900301832080546001600160a01b0319166001600160a01b0395861617905550509082169083908082606080838360005b83811015611e21578181015183820152602001611e09565b505060405194909201849003842095507f18e2b5e04736289291853fdba61749fad2d986bbbc779a658029be409d6ac5d8945060009392505050a35050565b6001600160a01b03821615801590611e8057506001600160a01b03811615155b611eba576040805162461bcd60e51b815260206004808301919091526024820152635a45524f60e01b604482015290519081900360640190fd5b6001600160a01b0381811660009081526101c46020526040902054811690831614611f17576040805162461bcd60e51b81526020600482015260086024820152672737ba10383932bb60c11b604482015290519081900360640190fd5b6001600160a01b0380831660008181526101c560209081526040808320548084526101c6909252909120549092161415611f745760008181526101c66020526040902080546001600160a01b0319166001600160a01b0384161790555b611f8d8360405180602001604052806000815250611668565b6001600160a01b0383811660008181526101c460209081526040808320805488871685528285208054919097166001600160a01b03199182161790965584845280549095169094556101c590528281208190559151909183917f0d141fd7c77072fc48765e24d85a4727dc79f72cbb320ad2ba944e2914a51e6d9190a3505050565b6120188261235c565b61205a576040805162461bcd60e51b815260206004820152600e60248201526d1b9bdd08184818dbdb9d1c9858dd60921b604482015290519081900360640190fd5b61206382611424565b1561209e576040805162461bcd60e51b815260206004820152600660248201526565786973747360d01b604482015290519081900360640190fd5b6120a781611652565b6120ec576040805162461bcd60e51b81526020600482015260116024820152701a5b9d985b1a59081b1a5b995859d95259607a1b604482015290519081900360640190fd5b60008181526101c660205260409020546001600160a01b0316612146576040805162461bcd60e51b815260206004820152600d60248201526c656d707479206c696e6561676560981b604482015290519081900360640190fd5b60008181526101c66020908152604080832080546001600160a01b038781166001600160a01b031980841682179094558087526101c5865284872088905591168086526101c49094528285208054909216811790915590519192839285917f5570b95960d1ec214184bfc3681f1e8b1b70e90f7e07e53a209e8029cbba5d5b91a4505050565b8154600090821061220e5760405162461bcd60e51b81526004018080602001828103825260228152602001806124146022913960400191505060405180910390fd5b82600001828154811061221d57fe5b9060005260206000200154905092915050565b60009081526001919091016020526040902054151590565b5490565b60006122588383612230565b61228e57508154600181810184556000848152602080822090930184905584548482528286019093526040902091909155610830565b506000610830565b6000818152600183016020526040812054801561235257835460001980830191908101906000908790839081106122c957fe5b90600052602060002001549050808760000184815481106122e657fe5b60009182526020808320909101929092558281526001898101909252604090209084019055865487908061231657fe5b60019003818190600052602060002001600090559055866001016000878152602001908152602001600020600090556001945050505050610830565b6000915050610830565b3b151590565b60405180606001604052806003906020820280368337509192915050565b828054600181600116156101000203166002900490600052602060002090601f016020900481019282601f106123c157805160ff19168380011785556123ee565b828001600101855582156123ee579182015b828111156123ee5782518255916020019190600101906123d3565b506123fa9291506123fe565b5090565b5b808211156123fa57600081556001016123ff56fe456e756d657261626c655365743a20696e646578206f7574206f6620626f756e6473416363657373436f6e74726f6c3a2073656e646572206d75737420626520616e2061646d696e20746f206772616e74b19546dff01e856fb3f010c267a7b1c60363cf8a4664e21cc89c26224620214e416363657373436f6e74726f6c3a2073656e646572206d75737420626520616e2061646d696e20746f207265766f6b6565d7a28e3265b37a6474929f336521b332c1681b933f6cb9f3376673440d862a436f6e747261637420696e7374616e63652068617320616c7265616479206265656e20696e697469616c697a65644d75737420686176652061646d696e20726f6c6520746f20706572666f726d207468697320616374696f6e416363657373436f6e74726f6c3a2063616e206f6e6c792072656e6f756e636520726f6c657320666f722073656c66a26469706673582212204acb4a7f95eba1c9437b07f8a67af7f1849ec4ee36b5153574981bb7d0b3027164736f6c634300060c0033",
  "devdoc": {
    "kind": "dev",
    "methods": {
      "append(address)": {
        "details": "reverts if the sender is not an ownerreverts if the contract is pausedreverts if `implementation` is not a contract",
        "params": {
          "implementation": "implementation to append"
        }
      },
      "append(address,uint256)": {
        "details": "reverts if the contract is pausedreverts if the sender is not an ownerreverts if `implementation` is not a contract",
        "params": {
          "implementation": "implementation to append",
          "lineageId": "id of lineage to append to"
        }
      },
      "createLineage(address)": {
        "details": "reverts if `implementation` is not a contract",
        "params": {
          "implementation": "implementation that will be the first implementation in the lineage"
        },
        "returns": {
          "_0": "newly created lineage's id"
        }
      },
      "getByVersion(uint8[3])": {
        "params": {
          "version": "`[major, minor, patch]` version tag"
        },
        "returns": {
          "_0": "implementation associated with the given version tag"
        }
      },
      "getRoleAdmin(bytes32)": {
        "details": "Returns the admin role that controls `role`. See {grantRole} and {revokeRole}. To change a role's admin, use {_setRoleAdmin}."
      },
      "getRoleMember(bytes32,uint256)": {
        "details": "Returns one of the accounts that have `role`. `index` must be a value between 0 and {getRoleMemberCount}, non-inclusive. Role bearers are not sorted in any particular way, and their ordering may change at any point. WARNING: When using {getRoleMember} and {getRoleMemberCount}, make sure you perform all queries on the same block. See the following https://forum.openzeppelin.com/t/iterating-over-elements-on-enumerableset-in-openzeppelin-contracts/2296[forum post] for more information."
      },
      "getRoleMemberCount(bytes32)": {
        "details": "Returns the number of accounts that have `role`. Can be used together with {getRoleMember} to enumerate all bearers of a role."
      },
      "grantRole(bytes32,address)": {
        "details": "Grants `role` to `account`. If `account` had not been already granted `role`, emits a {RoleGranted} event. Requirements: - the caller must have ``role``'s admin role."
      },
      "has(address)": {
        "params": {
          "implementation": "Implementation to check existence of"
        },
        "returns": {
          "_0": "`true` if the implementation has already been added"
        }
      },
      "hasNext(address)": {
        "params": {
          "implementation": "implementation to check"
        },
        "returns": {
          "_0": "The implementation following the given implementation"
        }
      },
      "hasRole(bytes32,address)": {
        "details": "Returns `true` if `account` has been granted `role`."
      },
      "hasVersion(uint8[3])": {
        "params": {
          "version": "`[major, minor, patch]` version tag"
        },
        "returns": {
          "_0": "true if the version is registered"
        }
      },
      "initialize(address,address)": {
        "details": "reverts if `_owner` is the null addressreverts if `implementation` is not a contract",
        "params": {
          "_owner": "owner of the repository",
          "implementation": "initial implementation in the repository"
        }
      },
      "nextImplementationOf(address)": {
        "details": "reverts when contract is paused",
        "params": {
          "implementation": "implementation to get the upgraded implementation for"
        },
        "returns": {
          "_0": "Next Implementation"
        }
      },
      "pause()": {
        "details": "Pauses all functions guarded by Pause See {Pausable-_pause}. Requirements: - the caller must have the PAUSER_ROLE."
      },
      "paused()": {
        "details": "Returns true if the contract is paused, and false otherwise."
      },
      "remove(address,address)": {
        "details": "If you have a chain of `A -> B -> C` and I call `remove(B, C)` it will result in `A -> C`reverts if `previos` is not the ancestor of `toRemove`we need to provide the previous implementation here to be able to successfully \"stitch\"       the chain back together. Because this is an admin action, we can source what the previous       version is from events.",
        "params": {
          "previous": "Implementation that currently has `toRemove` as its successor",
          "toRemove": "Implementation to remove"
        }
      },
      "renounceRole(bytes32,address)": {
        "details": "Revokes `role` from the calling account. Roles are often managed via {grantRole} and {revokeRole}: this function's purpose is to provide a mechanism for accounts to lose their privileges if they are compromised (such as when a trusted device is misplaced). If the calling account had been granted `role`, emits a {RoleRevoked} event. Requirements: - the caller must be `account`."
      },
      "revokeRole(bytes32,address)": {
        "details": "Revokes `role` from `account`. If `account` had been granted `role`, emits a {RoleRevoked} event. Requirements: - the caller must have ``role``'s admin role."
      },
      "setUpgradeDataFor(address,bytes)": {
        "details": "reverts when caller is not an adminreverts when the contract is pausedreverts if the given implementation isn't registered"
      },
      "unpause()": {
        "details": "Unpauses the contract See {Pausable-_unpause}. Requirements: - the caller must have the Pauser role"
      }
    },
    "version": 1
  },
  "userdoc": {
    "kind": "user",
    "methods": {
      "append(address)": {
        "notice": "add a new implementation and set it as the current implementation"
      },
      "append(address,uint256)": {
        "notice": "Append an implementation to a specified lineage"
      },
      "createLineage(address)": {
        "notice": "Create a new lineage of implementations. This creates a new \"root\" of a new lineage"
      },
      "currentImplementation()": {
        "notice": "return current implementaton of the current lineage"
      },
      "currentImplementation(uint256)": {
        "notice": "Return the current implementation of a lineage with the given `lineageId`"
      },
      "currentLineageId()": {
        "notice": "Returns the id of the most recently created lineage"
      },
      "getByVersion(uint8[3])": {
        "notice": "get an implementation by a version tag"
      },
      "has(address)": {
        "notice": "Returns `true` if an implementation has already been added"
      },
      "hasNext(address)": {
        "notice": "Returns `true` if an implementation has a next implementation set"
      },
      "hasVersion(uint8[3])": {
        "notice": "check if a version exists"
      },
      "initialize(address,address)": {
        "notice": "initialize the repository's state"
      },
      "lineageExists(uint256)": {
        "notice": "Returns `true` if a given lineageId exists"
      },
      "lineageIdOf(address)": {
        "notice": "Returns the id of the lineage a given implementation belongs to"
      },
      "nextImplementationOf(address)": {
        "notice": "Get the next implementation for a given implementation or           `address(0)` if it doesn't exist"
      },
      "remove(address,address)": {
        "notice": "Remove an implementation from the chain and \"stitch\" together its neighbors"
      },
      "setUpgradeDataFor(address,bytes)": {
        "notice": "set data that will be delegate called when a proxy upgrades to the given `implementation`"
      },
      "upgradeDataFor(address)": {
        "notice": "returns data that will be delegatedCalled when the given implementation           is upgraded to"
      }
    },
    "version": 1
  },
  "storageLayout": {
    "storage": [
      {
        "astId": 50,
        "contract": "contracts/protocol/core/callable/CallableLoanImplementationRepository.sol:CallableLoanImplementationRepository",
        "label": "initialized",
        "offset": 0,
        "slot": "0",
        "type": "t_bool"
      },
      {
        "astId": 53,
        "contract": "contracts/protocol/core/callable/CallableLoanImplementationRepository.sol:CallableLoanImplementationRepository",
        "label": "initializing",
        "offset": 1,
        "slot": "0",
        "type": "t_bool"
      },
      {
        "astId": 118,
        "contract": "contracts/protocol/core/callable/CallableLoanImplementationRepository.sol:CallableLoanImplementationRepository",
        "label": "______gap",
        "offset": 0,
        "slot": "1",
        "type": "t_array(t_uint256)50_storage"
      },
      {
        "astId": 43,
        "contract": "contracts/protocol/core/callable/CallableLoanImplementationRepository.sol:CallableLoanImplementationRepository",
        "label": "__gap",
        "offset": 0,
        "slot": "51",
        "type": "t_array(t_uint256)50_storage"
      },
      {
        "astId": 163,
        "contract": "contracts/protocol/core/callable/CallableLoanImplementationRepository.sol:CallableLoanImplementationRepository",
        "label": "_roles",
        "offset": 0,
        "slot": "101",
        "type": "t_mapping(t_bytes32,t_struct(RoleData)159_storage)"
      },
      {
        "astId": 408,
        "contract": "contracts/protocol/core/callable/CallableLoanImplementationRepository.sol:CallableLoanImplementationRepository",
        "label": "__gap",
        "offset": 0,
        "slot": "102",
        "type": "t_array(t_uint256)49_storage"
      },
      {
        "astId": 3137,
        "contract": "contracts/protocol/core/callable/CallableLoanImplementationRepository.sol:CallableLoanImplementationRepository",
        "label": "_paused",
        "offset": 0,
        "slot": "151",
        "type": "t_bool"
      },
      {
        "astId": 3226,
        "contract": "contracts/protocol/core/callable/CallableLoanImplementationRepository.sol:CallableLoanImplementationRepository",
        "label": "__gap",
        "offset": 0,
        "slot": "152",
        "type": "t_array(t_uint256)49_storage"
      },
      {
        "astId": 3235,
        "contract": "contracts/protocol/core/callable/CallableLoanImplementationRepository.sol:CallableLoanImplementationRepository",
        "label": "_notEntered",
        "offset": 0,
        "slot": "201",
        "type": "t_bool"
      },
      {
        "astId": 3276,
        "contract": "contracts/protocol/core/callable/CallableLoanImplementationRepository.sol:CallableLoanImplementationRepository",
        "label": "__gap",
        "offset": 0,
        "slot": "202",
        "type": "t_array(t_uint256)49_storage"
      },
      {
        "astId": 15728,
        "contract": "contracts/protocol/core/callable/CallableLoanImplementationRepository.sol:CallableLoanImplementationRepository",
        "label": "__gap1",
        "offset": 0,
        "slot": "251",
        "type": "t_array(t_uint256)50_storage"
      },
      {
        "astId": 15732,
        "contract": "contracts/protocol/core/callable/CallableLoanImplementationRepository.sol:CallableLoanImplementationRepository",
        "label": "__gap2",
        "offset": 0,
        "slot": "301",
        "type": "t_array(t_uint256)50_storage"
      },
      {
        "astId": 15736,
        "contract": "contracts/protocol/core/callable/CallableLoanImplementationRepository.sol:CallableLoanImplementationRepository",
        "label": "__gap3",
        "offset": 0,
        "slot": "351",
        "type": "t_array(t_uint256)50_storage"
      },
      {
        "astId": 15740,
        "contract": "contracts/protocol/core/callable/CallableLoanImplementationRepository.sol:CallableLoanImplementationRepository",
        "label": "__gap4",
        "offset": 0,
        "slot": "401",
        "type": "t_array(t_uint256)50_storage"
      },
      {
        "astId": 29021,
        "contract": "contracts/protocol/core/callable/CallableLoanImplementationRepository.sol:CallableLoanImplementationRepository",
        "label": "upgradeDataFor",
        "offset": 0,
        "slot": "451",
        "type": "t_mapping(t_address,t_bytes_storage)"
      },
      {
        "astId": 29026,
        "contract": "contracts/protocol/core/callable/CallableLoanImplementationRepository.sol:CallableLoanImplementationRepository",
        "label": "_nextImplementationOf",
        "offset": 0,
        "slot": "452",
        "type": "t_mapping(t_address,t_address)"
      },
      {
        "astId": 29032,
        "contract": "contracts/protocol/core/callable/CallableLoanImplementationRepository.sol:CallableLoanImplementationRepository",
        "label": "lineageIdOf",
        "offset": 0,
        "slot": "453",
        "type": "t_mapping(t_address,t_uint256)"
      },
      {
        "astId": 29037,
        "contract": "contracts/protocol/core/callable/CallableLoanImplementationRepository.sol:CallableLoanImplementationRepository",
        "label": "_currentOfLineage",
        "offset": 0,
        "slot": "454",
        "type": "t_mapping(t_uint256,t_address)"
      },
      {
        "astId": 29041,
        "contract": "contracts/protocol/core/callable/CallableLoanImplementationRepository.sol:CallableLoanImplementationRepository",
        "label": "currentLineageId",
        "offset": 0,
        "slot": "455",
        "type": "t_uint256"
      },
      {
        "astId": 29823,
        "contract": "contracts/protocol/core/callable/CallableLoanImplementationRepository.sol:CallableLoanImplementationRepository",
        "label": "_byVersion",
        "offset": 0,
        "slot": "456",
        "type": "t_mapping(t_bytes_memory_ptr,t_address)"
      }
    ],
    "types": {
      "t_address": {
        "encoding": "inplace",
        "label": "address",
        "numberOfBytes": "20"
      },
      "t_array(t_bytes32)dyn_storage": {
        "base": "t_bytes32",
        "encoding": "dynamic_array",
        "label": "bytes32[]",
        "numberOfBytes": "32"
      },
      "t_array(t_uint256)49_storage": {
        "base": "t_uint256",
        "encoding": "inplace",
        "label": "uint256[49]",
        "numberOfBytes": "1568"
      },
      "t_array(t_uint256)50_storage": {
        "base": "t_uint256",
        "encoding": "inplace",
        "label": "uint256[50]",
        "numberOfBytes": "1600"
      },
      "t_bool": {
        "encoding": "inplace",
        "label": "bool",
        "numberOfBytes": "1"
      },
      "t_bytes32": {
        "encoding": "inplace",
        "label": "bytes32",
        "numberOfBytes": "32"
      },
      "t_bytes_memory_ptr": {
        "encoding": "bytes",
        "label": "bytes",
        "numberOfBytes": "32"
      },
      "t_bytes_storage": {
        "encoding": "bytes",
        "label": "bytes",
        "numberOfBytes": "32"
      },
      "t_mapping(t_address,t_address)": {
        "encoding": "mapping",
        "key": "t_address",
        "label": "mapping(address => address)",
        "numberOfBytes": "32",
        "value": "t_address"
      },
      "t_mapping(t_address,t_bytes_storage)": {
        "encoding": "mapping",
        "key": "t_address",
        "label": "mapping(address => bytes)",
        "numberOfBytes": "32",
        "value": "t_bytes_storage"
      },
      "t_mapping(t_address,t_uint256)": {
        "encoding": "mapping",
        "key": "t_address",
        "label": "mapping(address => uint256)",
        "numberOfBytes": "32",
        "value": "t_uint256"
      },
      "t_mapping(t_bytes32,t_struct(RoleData)159_storage)": {
        "encoding": "mapping",
        "key": "t_bytes32",
        "label": "mapping(bytes32 => struct AccessControlUpgradeSafe.RoleData)",
        "numberOfBytes": "32",
        "value": "t_struct(RoleData)159_storage"
      },
      "t_mapping(t_bytes32,t_uint256)": {
        "encoding": "mapping",
        "key": "t_bytes32",
        "label": "mapping(bytes32 => uint256)",
        "numberOfBytes": "32",
        "value": "t_uint256"
      },
      "t_mapping(t_bytes_memory_ptr,t_address)": {
        "encoding": "mapping",
        "key": "t_bytes_memory_ptr",
        "label": "mapping(bytes => address)",
        "numberOfBytes": "32",
        "value": "t_address"
      },
      "t_mapping(t_uint256,t_address)": {
        "encoding": "mapping",
        "key": "t_uint256",
        "label": "mapping(uint256 => address)",
        "numberOfBytes": "32",
        "value": "t_address"
      },
      "t_struct(AddressSet)2912_storage": {
        "encoding": "inplace",
        "label": "struct EnumerableSet.AddressSet",
        "members": [
          {
            "astId": 2911,
            "contract": "contracts/protocol/core/callable/CallableLoanImplementationRepository.sol:CallableLoanImplementationRepository",
            "label": "_inner",
            "offset": 0,
            "slot": "0",
            "type": "t_struct(Set)2732_storage"
          }
        ],
        "numberOfBytes": "64"
      },
      "t_struct(RoleData)159_storage": {
        "encoding": "inplace",
        "label": "struct AccessControlUpgradeSafe.RoleData",
        "members": [
          {
            "astId": 156,
            "contract": "contracts/protocol/core/callable/CallableLoanImplementationRepository.sol:CallableLoanImplementationRepository",
            "label": "members",
            "offset": 0,
            "slot": "0",
            "type": "t_struct(AddressSet)2912_storage"
          },
          {
            "astId": 158,
            "contract": "contracts/protocol/core/callable/CallableLoanImplementationRepository.sol:CallableLoanImplementationRepository",
            "label": "adminRole",
            "offset": 0,
            "slot": "2",
            "type": "t_bytes32"
          }
        ],
        "numberOfBytes": "96"
      },
      "t_struct(Set)2732_storage": {
        "encoding": "inplace",
        "label": "struct EnumerableSet.Set",
        "members": [
          {
            "astId": 2727,
            "contract": "contracts/protocol/core/callable/CallableLoanImplementationRepository.sol:CallableLoanImplementationRepository",
            "label": "_values",
            "offset": 0,
            "slot": "0",
            "type": "t_array(t_bytes32)dyn_storage"
          },
          {
            "astId": 2731,
            "contract": "contracts/protocol/core/callable/CallableLoanImplementationRepository.sol:CallableLoanImplementationRepository",
            "label": "_indexes",
            "offset": 0,
            "slot": "1",
            "type": "t_mapping(t_bytes32,t_uint256)"
          }
        ],
        "numberOfBytes": "64"
      },
      "t_uint256": {
        "encoding": "inplace",
        "label": "uint256",
        "numberOfBytes": "32"
      }
    }
  }
}