{
  "address": "0x4A20F53E612E6Ab515A46EcA9dd36a290a2287F7",
  "abi": [
    {
      "inputs": [
        {
          "internalType": "uint256",
          "name": "arrayLength1",
          "type": "uint256"
        },
        {
          "internalType": "uint256",
          "name": "arrayLength2",
          "type": "uint256"
        }
      ],
      "name": "ArrayLengthMismatch",
      "type": "error"
    },
    {
      "inputs": [],
      "name": "CannotDrawdownWhenDrawdownsPaused",
      "type": "error"
    },
    {
      "inputs": [],
      "name": "CannotReinitialize",
      "type": "error"
    },
    {
      "inputs": [],
      "name": "CannotSetAllowedUIDTypesAfterDeposit",
      "type": "error"
    },
    {
      "inputs": [
        {
          "internalType": "uint256",
          "name": "existingFundableAt",
          "type": "uint256"
        }
      ],
      "name": "CannotSetFundableAtAfterFundableAt",
      "type": "error"
    },
    {
      "inputs": [],
      "name": "CannotSubmitCallInLockupPeriod",
      "type": "error"
    },
    {
      "inputs": [],
      "name": "CannotWithdrawInDrawdownPeriod",
      "type": "error"
    },
    {
      "inputs": [
        {
          "internalType": "uint256",
          "name": "deposit",
          "type": "uint256"
        },
        {
          "internalType": "uint256",
          "name": "amountCurrentlyDeposited",
          "type": "uint256"
        },
        {
          "internalType": "uint256",
          "name": "limit",
          "type": "uint256"
        }
      ],
      "name": "DepositExceedsLimit",
      "type": "error"
    },
    {
      "inputs": [
        {
          "internalType": "uint256",
          "name": "drawdownAmount",
          "type": "uint256"
        },
        {
          "internalType": "uint256",
          "name": "existingPrincipalPaid",
          "type": "uint256"
        }
      ],
      "name": "DrawdownAmountExceedsDeposits",
      "type": "error"
    },
    {
      "inputs": [
        {
          "internalType": "uint256",
          "name": "poolTokenId",
          "type": "uint256"
        },
        {
          "internalType": "uint256",
          "name": "callSubmissionAmount",
          "type": "uint256"
        },
        {
          "internalType": "uint256",
          "name": "maxCallSubmissionAmount",
          "type": "uint256"
        }
      ],
      "name": "ExcessiveCallSubmissionAmount",
      "type": "error"
    },
    {
      "inputs": [
        {
          "internalType": "uint256",
          "name": "numPrincipalPeriods",
          "type": "uint256"
        },
        {
          "internalType": "uint256",
          "name": "minimumNumPrincipalPeriods",
          "type": "uint256"
        }
      ],
      "name": "HasInsufficientTranches",
      "type": "error"
    },
    {
      "inputs": [
        {
          "internalType": "uint256",
          "name": "inputTimestamp",
          "type": "uint256"
        },
        {
          "internalType": "uint256",
          "name": "checkpointedAt",
          "type": "uint256"
        }
      ],
      "name": "InputTimestampBeforeCheckpoint",
      "type": "error"
    },
    {
      "inputs": [
        {
          "internalType": "uint256",
          "name": "inputTimestamp",
          "type": "uint256"
        }
      ],
      "name": "InputTimestampInThePast",
      "type": "error"
    },
    {
      "inputs": [
        {
          "internalType": "uint256",
          "name": "tokenId",
          "type": "uint256"
        }
      ],
      "name": "InvalidCallSubmissionPoolToken",
      "type": "error"
    },
    {
      "inputs": [
        {
          "internalType": "enum LoanPhase",
          "name": "currentLoanPhase",
          "type": "uint8"
        },
        {
          "internalType": "enum LoanPhase",
          "name": "validLoanPhase",
          "type": "uint8"
        }
      ],
      "name": "InvalidLoanPhase",
      "type": "error"
    },
    {
      "inputs": [
        {
          "internalType": "uint256",
          "name": "numLockupPeriods",
          "type": "uint256"
        },
        {
          "internalType": "uint256",
          "name": "periodsPerPrincipalPeriod",
          "type": "uint256"
        }
      ],
      "name": "InvalidNumLockupPeriods",
      "type": "error"
    },
    {
      "inputs": [
        {
          "internalType": "address",
          "name": "depositor",
          "type": "address"
        }
      ],
      "name": "InvalidUIDForDepositor",
      "type": "error"
    },
    {
      "inputs": [
        {
          "internalType": "uint256",
          "name": "inputTranche",
          "type": "uint256"
        },
        {
          "internalType": "uint256",
          "name": "uncalledTranche",
          "type": "uint256"
        }
      ],
      "name": "MustDepositToUncalledTranche",
      "type": "error"
    },
    {
      "inputs": [
        {
          "internalType": "uint256",
          "name": "inputTranche",
          "type": "uint256"
        },
        {
          "internalType": "uint256",
          "name": "uncalledTranche",
          "type": "uint256"
        }
      ],
      "name": "MustSubmitCallToUncalledTranche",
      "type": "error"
    },
    {
      "inputs": [
        {
          "internalType": "uint256",
          "name": "attemptedPrincipalPayment",
          "type": "uint256"
        }
      ],
      "name": "NoBalanceToPay",
      "type": "error"
    },
    {
      "inputs": [
        {
          "internalType": "address",
          "name": "callSubmissionSender",
          "type": "address"
        },
        {
          "internalType": "uint256",
          "name": "tokenId",
          "type": "uint256"
        }
      ],
      "name": "NotAuthorizedToSubmitCall",
      "type": "error"
    },
    {
      "inputs": [
        {
          "internalType": "address",
          "name": "withdrawSender",
          "type": "address"
        },
        {
          "internalType": "uint256",
          "name": "tokenId",
          "type": "uint256"
        }
      ],
      "name": "NotAuthorizedToWithdraw",
      "type": "error"
    },
    {
      "inputs": [
        {
          "internalType": "uint256",
          "name": "lastCallRequestPeriod",
          "type": "uint256"
        }
      ],
      "name": "OutOfCallRequestPeriodBounds",
      "type": "error"
    },
    {
      "inputs": [
        {
          "internalType": "address",
          "name": "nonLockerAddress",
          "type": "address"
        }
      ],
      "name": "RequiresLockerRole",
      "type": "error"
    },
    {
      "inputs": [],
      "name": "RequiresUpgrade",
      "type": "error"
    },
    {
      "inputs": [],
      "name": "TooLateToSubmitCallRequests",
      "type": "error"
    },
    {
      "inputs": [],
      "name": "UnsupportedOperation",
      "type": "error"
    },
    {
      "inputs": [
        {
          "internalType": "uint256",
          "name": "withdrawAmount",
          "type": "uint256"
        },
        {
          "internalType": "uint256",
          "name": "withdrawableAmount",
          "type": "uint256"
        }
      ],
      "name": "WithdrawAmountExceedsWithdrawable",
      "type": "error"
    },
    {
      "inputs": [],
      "name": "ZeroCallSubmissionAmount",
      "type": "error"
    },
    {
      "inputs": [],
      "name": "ZeroDepositAmount",
      "type": "error"
    },
    {
      "inputs": [],
      "name": "ZeroDrawdownAmount",
      "type": "error"
    },
    {
      "inputs": [],
      "name": "ZeroPaymentAmount",
      "type": "error"
    },
    {
      "inputs": [],
      "name": "ZeroWithdrawAmount",
      "type": "error"
    },
    {
      "anonymous": false,
      "inputs": [
        {
          "indexed": true,
          "internalType": "uint256",
          "name": "originalTokenId",
          "type": "uint256"
        },
        {
          "indexed": true,
          "internalType": "uint256",
          "name": "callRequestedTokenId",
          "type": "uint256"
        },
        {
          "indexed": true,
          "internalType": "uint256",
          "name": "remainingTokenId",
          "type": "uint256"
        },
        {
          "indexed": false,
          "internalType": "uint256",
          "name": "callAmount",
          "type": "uint256"
        }
      ],
      "name": "CallRequestSubmitted",
      "type": "event"
    },
    {
      "anonymous": false,
      "inputs": [
        {
          "indexed": true,
          "internalType": "address",
          "name": "owner",
          "type": "address"
        },
        {
          "indexed": true,
          "internalType": "uint256",
          "name": "tranche",
          "type": "uint256"
        },
        {
          "indexed": true,
          "internalType": "uint256",
          "name": "tokenId",
          "type": "uint256"
        },
        {
          "indexed": false,
          "internalType": "uint256",
          "name": "amount",
          "type": "uint256"
        }
      ],
      "name": "DepositMade",
      "type": "event"
    },
    {
      "anonymous": false,
      "inputs": [
        {
          "indexed": true,
          "internalType": "address",
          "name": "loan",
          "type": "address"
        }
      ],
      "name": "DepositsLocked",
      "type": "event"
    },
    {
      "anonymous": false,
      "inputs": [
        {
          "indexed": true,
          "internalType": "address",
          "name": "borrower",
          "type": "address"
        },
        {
          "indexed": false,
          "internalType": "uint256",
          "name": "amount",
          "type": "uint256"
        }
      ],
      "name": "DrawdownMade",
      "type": "event"
    },
    {
      "anonymous": false,
      "inputs": [
        {
          "indexed": true,
          "internalType": "address",
          "name": "pool",
          "type": "address"
        }
      ],
      "name": "DrawdownsPaused",
      "type": "event"
    },
    {
      "anonymous": false,
      "inputs": [
        {
          "indexed": true,
          "internalType": "address",
          "name": "pool",
          "type": "address"
        }
      ],
      "name": "DrawdownsUnpaused",
      "type": "event"
    },
    {
      "anonymous": false,
      "inputs": [
        {
          "indexed": true,
          "internalType": "address",
          "name": "pool",
          "type": "address"
        }
      ],
      "name": "EmergencyShutdown",
      "type": "event"
    },
    {
      "anonymous": false,
      "inputs": [
        {
          "indexed": false,
          "internalType": "address",
          "name": "account",
          "type": "address"
        }
      ],
      "name": "Paused",
      "type": "event"
    },
    {
      "anonymous": false,
      "inputs": [
        {
          "indexed": true,
          "internalType": "address",
          "name": "payer",
          "type": "address"
        },
        {
          "indexed": true,
          "internalType": "address",
          "name": "pool",
          "type": "address"
        },
        {
          "indexed": false,
          "internalType": "uint256",
          "name": "interest",
          "type": "uint256"
        },
        {
          "indexed": false,
          "internalType": "uint256",
          "name": "principal",
          "type": "uint256"
        },
        {
          "indexed": false,
          "internalType": "uint256",
          "name": "remaining",
          "type": "uint256"
        },
        {
          "indexed": false,
          "internalType": "uint256",
          "name": "reserve",
          "type": "uint256"
        }
      ],
      "name": "PaymentApplied",
      "type": "event"
    },
    {
      "anonymous": false,
      "inputs": [
        {
          "indexed": true,
          "internalType": "address",
          "name": "from",
          "type": "address"
        },
        {
          "indexed": false,
          "internalType": "uint256",
          "name": "amount",
          "type": "uint256"
        }
      ],
      "name": "ReserveFundsCollected",
      "type": "event"
    },
    {
      "anonymous": false,
      "inputs": [
        {
          "indexed": true,
          "internalType": "bytes32",
          "name": "role",
          "type": "bytes32"
        },
        {
          "indexed": true,
          "internalType": "bytes32",
          "name": "previousAdminRole",
          "type": "bytes32"
        },
        {
          "indexed": true,
          "internalType": "bytes32",
          "name": "newAdminRole",
          "type": "bytes32"
        }
      ],
      "name": "RoleAdminChanged",
      "type": "event"
    },
    {
      "anonymous": false,
      "inputs": [
        {
          "indexed": true,
          "internalType": "bytes32",
          "name": "role",
          "type": "bytes32"
        },
        {
          "indexed": true,
          "internalType": "address",
          "name": "account",
          "type": "address"
        },
        {
          "indexed": true,
          "internalType": "address",
          "name": "sender",
          "type": "address"
        }
      ],
      "name": "RoleGranted",
      "type": "event"
    },
    {
      "anonymous": false,
      "inputs": [
        {
          "indexed": true,
          "internalType": "bytes32",
          "name": "role",
          "type": "bytes32"
        },
        {
          "indexed": true,
          "internalType": "address",
          "name": "account",
          "type": "address"
        },
        {
          "indexed": true,
          "internalType": "address",
          "name": "sender",
          "type": "address"
        }
      ],
      "name": "RoleRevoked",
      "type": "event"
    },
    {
      "anonymous": false,
      "inputs": [
        {
          "indexed": false,
          "internalType": "address",
          "name": "account",
          "type": "address"
        }
      ],
      "name": "Unpaused",
      "type": "event"
    },
    {
      "anonymous": false,
      "inputs": [
        {
          "indexed": true,
          "internalType": "address",
          "name": "owner",
          "type": "address"
        },
        {
          "indexed": true,
          "internalType": "uint256",
          "name": "tranche",
          "type": "uint256"
        },
        {
          "indexed": true,
          "internalType": "uint256",
          "name": "tokenId",
          "type": "uint256"
        },
        {
          "indexed": false,
          "internalType": "uint256",
          "name": "interestWithdrawn",
          "type": "uint256"
        },
        {
          "indexed": false,
          "internalType": "uint256",
          "name": "principalWithdrawn",
          "type": "uint256"
        }
      ],
      "name": "WithdrawalMade",
      "type": "event"
    },
    {
      "inputs": [],
      "name": "DEFAULT_ADMIN_ROLE",
      "outputs": [
        {
          "internalType": "bytes32",
          "name": "",
          "type": "bytes32"
        }
      ],
      "stateMutability": "view",
      "type": "function"
    },
    {
      "inputs": [],
      "name": "LOCKER_ROLE",
      "outputs": [
        {
          "internalType": "bytes32",
          "name": "",
          "type": "bytes32"
        }
      ],
      "stateMutability": "view",
      "type": "function"
    },
    {
      "inputs": [],
      "name": "OWNER_ROLE",
      "outputs": [
        {
          "internalType": "bytes32",
          "name": "",
          "type": "bytes32"
        }
      ],
      "stateMutability": "view",
      "type": "function"
    },
    {
      "inputs": [],
      "name": "PAUSER_ROLE",
      "outputs": [
        {
          "internalType": "bytes32",
          "name": "",
          "type": "bytes32"
        }
      ],
      "stateMutability": "view",
      "type": "function"
    },
    {
      "inputs": [],
      "name": "SPLIT_TOKEN_DUST_THRESHOLD",
      "outputs": [
        {
          "internalType": "uint256",
          "name": "",
          "type": "uint256"
        }
      ],
      "stateMutability": "view",
      "type": "function"
    },
    {
      "inputs": [
        {
          "internalType": "address",
          "name": "owner",
          "type": "address"
        }
      ],
      "name": "__BaseUpgradeablePausable__init",
      "outputs": [],
      "stateMutability": "nonpayable",
      "type": "function"
    },
    {
      "inputs": [],
      "name": "__PauserPausable__init",
      "outputs": [],
      "stateMutability": "nonpayable",
      "type": "function"
    },
    {
      "inputs": [],
      "name": "_reserveFundsFeePercent",
      "outputs": [
        {
          "internalType": "uint256",
          "name": "",
          "type": "uint256"
        }
      ],
      "stateMutability": "view",
      "type": "function"
    },
    {
      "inputs": [
        {
          "internalType": "uint256",
          "name": "",
          "type": "uint256"
        }
      ],
      "name": "allowedUIDTypes",
      "outputs": [
        {
          "internalType": "uint256",
          "name": "",
          "type": "uint256"
        }
      ],
      "stateMutability": "view",
      "type": "function"
    },
    {
      "inputs": [
        {
          "internalType": "uint256",
          "name": "tokenId",
          "type": "uint256"
        }
      ],
      "name": "availableToCall",
      "outputs": [
        {
          "internalType": "uint256",
          "name": "",
          "type": "uint256"
        }
      ],
      "stateMutability": "view",
      "type": "function"
    },
    {
      "inputs": [
        {
          "internalType": "uint256",
          "name": "tokenId",
          "type": "uint256"
        }
      ],
      "name": "availableToWithdraw",
      "outputs": [
        {
          "internalType": "uint256",
          "name": "",
          "type": "uint256"
        },
        {
          "internalType": "uint256",
          "name": "",
          "type": "uint256"
        }
      ],
      "stateMutability": "view",
      "type": "function"
    },
    {
      "inputs": [],
      "name": "balance",
      "outputs": [
        {
          "internalType": "uint256",
          "name": "",
          "type": "uint256"
        }
      ],
      "stateMutability": "view",
      "type": "function"
    },
    {
      "inputs": [],
      "name": "borrower",
      "outputs": [
        {
          "internalType": "address",
          "name": "",
          "type": "address"
        }
      ],
      "stateMutability": "view",
      "type": "function"
    },
    {
      "inputs": [],
      "name": "config",
      "outputs": [
        {
          "internalType": "contract IGoldfinchConfig",
          "name": "",
          "type": "address"
        }
      ],
      "stateMutability": "view",
      "type": "function"
    },
    {
      "inputs": [],
      "name": "createdAt",
      "outputs": [
        {
          "internalType": "uint256",
          "name": "",
          "type": "uint256"
        }
      ],
      "stateMutability": "view",
      "type": "function"
    },
    {
      "inputs": [],
      "name": "creditLine",
      "outputs": [
        {
          "internalType": "contract ICreditLine",
          "name": "",
          "type": "address"
        }
      ],
      "stateMutability": "view",
      "type": "function"
    },
    {
      "inputs": [],
      "name": "currentLimit",
      "outputs": [
        {
          "internalType": "uint256",
          "name": "",
          "type": "uint256"
        }
      ],
      "stateMutability": "view",
      "type": "function"
    },
    {
      "inputs": [
        {
          "internalType": "uint256",
          "name": "tranche",
          "type": "uint256"
        },
        {
          "internalType": "uint256",
          "name": "amount",
          "type": "uint256"
        }
      ],
      "name": "deposit",
      "outputs": [
        {
          "internalType": "uint256",
          "name": "",
          "type": "uint256"
        }
      ],
      "stateMutability": "nonpayable",
      "type": "function"
    },
    {
      "inputs": [
        {
          "internalType": "uint256",
          "name": "tranche",
          "type": "uint256"
        },
        {
          "internalType": "uint256",
          "name": "amount",
          "type": "uint256"
        },
        {
          "internalType": "uint256",
          "name": "deadline",
          "type": "uint256"
        },
        {
          "internalType": "uint8",
          "name": "v",
          "type": "uint8"
        },
        {
          "internalType": "bytes32",
          "name": "r",
          "type": "bytes32"
        },
        {
          "internalType": "bytes32",
          "name": "s",
          "type": "bytes32"
        }
      ],
      "name": "depositWithPermit",
      "outputs": [
        {
          "internalType": "uint256",
          "name": "tokenId",
          "type": "uint256"
        }
      ],
      "stateMutability": "nonpayable",
      "type": "function"
    },
    {
      "inputs": [
        {
          "internalType": "uint256",
          "name": "amount",
          "type": "uint256"
        }
      ],
      "name": "drawdown",
      "outputs": [],
      "stateMutability": "nonpayable",
      "type": "function"
    },
    {
      "inputs": [],
      "name": "drawdownsPaused",
      "outputs": [
        {
          "internalType": "bool",
          "name": "",
          "type": "bool"
        }
      ],
      "stateMutability": "view",
      "type": "function"
    },
    {
      "inputs": [
        {
          "internalType": "uint256",
          "name": "timestamp",
          "type": "uint256"
        }
      ],
      "name": "estimateOwedInterestAt",
      "outputs": [
        {
          "internalType": "uint256",
          "name": "",
          "type": "uint256"
        }
      ],
      "stateMutability": "view",
      "type": "function"
    },
    {
      "inputs": [
        {
          "internalType": "uint256",
          "name": "assumedBalance",
          "type": "uint256"
        },
        {
          "internalType": "uint256",
          "name": "timestamp",
          "type": "uint256"
        }
      ],
      "name": "estimateOwedInterestAt",
      "outputs": [
        {
          "internalType": "uint256",
          "name": "",
          "type": "uint256"
        }
      ],
      "stateMutability": "view",
      "type": "function"
    },
    {
      "inputs": [],
      "name": "getAllowedUIDTypes",
      "outputs": [
        {
          "internalType": "uint256[]",
          "name": "",
          "type": "uint256[]"
        }
      ],
      "stateMutability": "view",
      "type": "function"
    },
    {
      "inputs": [
        {
          "internalType": "uint256",
          "name": "timestamp",
          "type": "uint256"
        }
      ],
      "name": "getAmountsOwed",
      "outputs": [
        {
          "internalType": "uint256",
          "name": "returnedInterestOwed",
          "type": "uint256"
        },
        {
          "internalType": "uint256",
          "name": "returnedInterestAccrued",
          "type": "uint256"
        },
        {
          "internalType": "uint256",
          "name": "returnedPrincipalOwed",
          "type": "uint256"
        }
      ],
      "stateMutability": "view",
      "type": "function"
    },
    {
      "inputs": [
        {
          "internalType": "uint256",
          "name": "callRequestPeriodIndex",
          "type": "uint256"
        }
      ],
      "name": "getCallRequestPeriod",
      "outputs": [
        {
          "components": [
            {
              "internalType": "uint256",
              "name": "principalDeposited",
              "type": "uint256"
            },
            {
              "internalType": "uint256",
              "name": "principalPaid",
              "type": "uint256"
            },
            {
              "internalType": "uint256",
              "name": "principalReserved",
              "type": "uint256"
            },
            {
              "internalType": "uint256",
              "name": "interestPaid",
              "type": "uint256"
            }
          ],
          "internalType": "struct ICallableLoan.CallRequestPeriod",
          "name": "",
          "type": "tuple"
        }
      ],
      "stateMutability": "view",
      "type": "function"
    },
    {
      "inputs": [],
      "name": "getFundableAt",
      "outputs": [
        {
          "internalType": "uint256",
          "name": "",
          "type": "uint256"
        }
      ],
      "stateMutability": "view",
      "type": "function"
    },
    {
      "inputs": [],
      "name": "getLoanType",
      "outputs": [
        {
          "internalType": "enum LoanType",
          "name": "",
          "type": "uint8"
        }
      ],
      "stateMutability": "pure",
      "type": "function"
    },
    {
      "inputs": [
        {
          "internalType": "bytes32",
          "name": "role",
          "type": "bytes32"
        }
      ],
      "name": "getRoleAdmin",
      "outputs": [
        {
          "internalType": "bytes32",
          "name": "",
          "type": "bytes32"
        }
      ],
      "stateMutability": "view",
      "type": "function"
    },
    {
      "inputs": [],
      "name": "getUncalledCapitalInfo",
      "outputs": [
        {
          "components": [
            {
              "internalType": "uint256",
              "name": "principalDeposited",
              "type": "uint256"
            },
            {
              "internalType": "uint256",
              "name": "principalPaid",
              "type": "uint256"
            },
            {
              "internalType": "uint256",
              "name": "principalReserved",
              "type": "uint256"
            },
            {
              "internalType": "uint256",
              "name": "interestPaid",
              "type": "uint256"
            }
          ],
          "internalType": "struct ICallableLoan.UncalledCapitalInfo",
          "name": "",
          "type": "tuple"
        }
      ],
      "stateMutability": "view",
      "type": "function"
    },
    {
      "inputs": [],
      "name": "getVersion",
      "outputs": [
        {
          "internalType": "uint8[3]",
          "name": "version",
          "type": "uint8[3]"
        }
      ],
      "stateMutability": "pure",
      "type": "function"
    },
    {
      "inputs": [
        {
          "internalType": "bytes32",
          "name": "role",
          "type": "bytes32"
        },
        {
          "internalType": "address",
          "name": "account",
          "type": "address"
        }
      ],
      "name": "grantRole",
      "outputs": [],
      "stateMutability": "nonpayable",
      "type": "function"
    },
    {
      "inputs": [
        {
          "internalType": "address",
          "name": "sender",
          "type": "address"
        }
      ],
      "name": "hasAllowedUID",
      "outputs": [
        {
          "internalType": "bool",
          "name": "",
          "type": "bool"
        }
      ],
      "stateMutability": "view",
      "type": "function"
    },
    {
      "inputs": [
        {
          "internalType": "bytes32",
          "name": "role",
          "type": "bytes32"
        },
        {
          "internalType": "address",
          "name": "account",
          "type": "address"
        }
      ],
      "name": "hasRole",
      "outputs": [
        {
          "internalType": "bool",
          "name": "",
          "type": "bool"
        }
      ],
      "stateMutability": "view",
      "type": "function"
    },
    {
      "inputs": [],
      "name": "inLockupPeriod",
      "outputs": [
        {
          "internalType": "bool",
          "name": "",
          "type": "bool"
        }
      ],
      "stateMutability": "view",
      "type": "function"
    },
    {
      "inputs": [
        {
          "internalType": "contract IGoldfinchConfig",
          "name": "_config",
          "type": "address"
        },
        {
          "internalType": "address",
          "name": "_borrower",
          "type": "address"
        },
        {
          "internalType": "uint256",
          "name": "_limit",
          "type": "uint256"
        },
        {
          "internalType": "uint256",
          "name": "_interestApr",
          "type": "uint256"
        },
        {
          "internalType": "uint256",
          "name": "_numLockupPeriods",
          "type": "uint256"
        },
        {
          "internalType": "contract ISchedule",
          "name": "_schedule",
          "type": "address"
        },
        {
          "internalType": "uint256",
          "name": "_lateFeeApr",
          "type": "uint256"
        },
        {
          "internalType": "uint256",
          "name": "_fundableAt",
          "type": "uint256"
        },
        {
          "internalType": "uint256[]",
          "name": "_allowedUIDTypes",
          "type": "uint256[]"
        }
      ],
      "name": "initialize",
      "outputs": [],
      "stateMutability": "nonpayable",
      "type": "function"
    },
    {
      "inputs": [],
      "name": "interestAccrued",
      "outputs": [
        {
          "internalType": "uint256",
          "name": "",
          "type": "uint256"
        }
      ],
      "stateMutability": "view",
      "type": "function"
    },
    {
      "inputs": [],
      "name": "interestAccruedAsOf",
      "outputs": [
        {
          "internalType": "uint256",
          "name": "",
          "type": "uint256"
        }
      ],
      "stateMutability": "view",
      "type": "function"
    },
    {
      "inputs": [
        {
          "internalType": "uint256",
          "name": "timestamp",
          "type": "uint256"
        }
      ],
      "name": "interestAccruedAt",
      "outputs": [
        {
          "internalType": "uint256",
          "name": "",
          "type": "uint256"
        }
      ],
      "stateMutability": "view",
      "type": "function"
    },
    {
      "inputs": [],
      "name": "interestApr",
      "outputs": [
        {
          "internalType": "uint256",
          "name": "",
          "type": "uint256"
        }
      ],
      "stateMutability": "view",
      "type": "function"
    },
    {
      "inputs": [],
      "name": "interestBearingBalance",
      "outputs": [
        {
          "internalType": "uint256",
          "name": "",
          "type": "uint256"
        }
      ],
      "stateMutability": "view",
      "type": "function"
    },
    {
      "inputs": [],
      "name": "interestOwed",
      "outputs": [
        {
          "internalType": "uint256",
          "name": "",
          "type": "uint256"
        }
      ],
      "stateMutability": "view",
      "type": "function"
    },
    {
      "inputs": [
        {
          "internalType": "uint256",
          "name": "timestamp",
          "type": "uint256"
        }
      ],
      "name": "interestOwedAt",
      "outputs": [
        {
          "internalType": "uint256",
          "name": "",
          "type": "uint256"
        }
      ],
      "stateMutability": "view",
      "type": "function"
    },
    {
      "inputs": [],
      "name": "isAdmin",
      "outputs": [
        {
          "internalType": "bool",
          "name": "",
          "type": "bool"
        }
      ],
      "stateMutability": "view",
      "type": "function"
    },
    {
      "inputs": [],
      "name": "isLate",
      "outputs": [
        {
          "internalType": "bool",
          "name": "",
          "type": "bool"
        }
      ],
      "stateMutability": "view",
      "type": "function"
    },
    {
      "inputs": [],
      "name": "lastFullPaymentTime",
      "outputs": [
        {
          "internalType": "uint256",
          "name": "",
          "type": "uint256"
        }
      ],
      "stateMutability": "view",
      "type": "function"
    },
    {
      "inputs": [],
      "name": "lateFeeApr",
      "outputs": [
        {
          "internalType": "uint256",
          "name": "",
          "type": "uint256"
        }
      ],
      "stateMutability": "view",
      "type": "function"
    },
    {
      "inputs": [],
      "name": "limit",
      "outputs": [
        {
          "internalType": "uint256",
          "name": "",
          "type": "uint256"
        }
      ],
      "stateMutability": "view",
      "type": "function"
    },
    {
      "inputs": [],
      "name": "loanPhase",
      "outputs": [
        {
          "internalType": "enum LoanPhase",
          "name": "",
          "type": "uint8"
        }
      ],
      "stateMutability": "view",
      "type": "function"
    },
    {
      "inputs": [],
      "name": "maxLimit",
      "outputs": [
        {
          "internalType": "uint256",
          "name": "",
          "type": "uint256"
        }
      ],
      "stateMutability": "pure",
      "type": "function"
    },
    {
      "inputs": [],
      "name": "nextDueTime",
      "outputs": [
        {
          "internalType": "uint256",
          "name": "",
          "type": "uint256"
        }
      ],
      "stateMutability": "view",
      "type": "function"
    },
    {
      "inputs": [
        {
          "internalType": "uint256",
          "name": "timestamp",
          "type": "uint256"
        }
      ],
      "name": "nextDueTimeAt",
      "outputs": [
        {
          "internalType": "uint256",
          "name": "",
          "type": "uint256"
        }
      ],
      "stateMutability": "view",
      "type": "function"
    },
    {
      "inputs": [
        {
          "internalType": "uint256",
          "name": "timestamp",
          "type": "uint256"
        }
      ],
      "name": "nextInterestDueTimeAt",
      "outputs": [
        {
          "internalType": "uint256",
          "name": "",
          "type": "uint256"
        }
      ],
      "stateMutability": "view",
      "type": "function"
    },
    {
      "inputs": [],
      "name": "nextPrincipalDueTime",
      "outputs": [
        {
          "internalType": "uint256",
          "name": "",
          "type": "uint256"
        }
      ],
      "stateMutability": "view",
      "type": "function"
    },
    {
      "inputs": [],
      "name": "numLockupPeriods",
      "outputs": [
        {
          "internalType": "uint256",
          "name": "",
          "type": "uint256"
        }
      ],
      "stateMutability": "view",
      "type": "function"
    },
    {
      "inputs": [],
      "name": "pause",
      "outputs": [],
      "stateMutability": "nonpayable",
      "type": "function"
    },
    {
      "inputs": [],
      "name": "pauseDrawdowns",
      "outputs": [],
      "stateMutability": "nonpayable",
      "type": "function"
    },
    {
      "inputs": [],
      "name": "paused",
      "outputs": [
        {
          "internalType": "bool",
          "name": "",
          "type": "bool"
        }
      ],
      "stateMutability": "view",
      "type": "function"
    },
    {
      "inputs": [
        {
          "internalType": "uint256",
          "name": "amount",
          "type": "uint256"
        }
      ],
      "name": "pay",
      "outputs": [
        {
          "components": [
            {
              "internalType": "uint256",
              "name": "owedInterestPayment",
              "type": "uint256"
            },
            {
              "internalType": "uint256",
              "name": "accruedInterestPayment",
              "type": "uint256"
            },
            {
              "internalType": "uint256",
              "name": "principalPayment",
              "type": "uint256"
            },
            {
              "internalType": "uint256",
              "name": "additionalBalancePayment",
              "type": "uint256"
            },
            {
              "internalType": "uint256",
              "name": "paymentRemaining",
              "type": "uint256"
            }
          ],
          "internalType": "struct ILoan.PaymentAllocation",
          "name": "",
          "type": "tuple"
        }
      ],
      "stateMutability": "nonpayable",
      "type": "function"
    },
    {
      "inputs": [
        {
          "internalType": "uint256",
          "name": "",
          "type": "uint256"
        },
        {
          "internalType": "uint256",
          "name": "",
          "type": "uint256"
        }
      ],
      "name": "pay",
      "outputs": [
        {
          "components": [
            {
              "internalType": "uint256",
              "name": "owedInterestPayment",
              "type": "uint256"
            },
            {
              "internalType": "uint256",
              "name": "accruedInterestPayment",
              "type": "uint256"
            },
            {
              "internalType": "uint256",
              "name": "principalPayment",
              "type": "uint256"
            },
            {
              "internalType": "uint256",
              "name": "additionalBalancePayment",
              "type": "uint256"
            },
            {
              "internalType": "uint256",
              "name": "paymentRemaining",
              "type": "uint256"
            }
          ],
          "internalType": "struct ILoan.PaymentAllocation",
          "name": "",
          "type": "tuple"
        }
      ],
      "stateMutability": "pure",
      "type": "function"
    },
    {
      "inputs": [],
      "name": "principalOwed",
      "outputs": [
        {
          "internalType": "uint256",
          "name": "",
          "type": "uint256"
        }
      ],
      "stateMutability": "view",
      "type": "function"
    },
    {
      "inputs": [
        {
          "internalType": "uint256",
          "name": "timestamp",
          "type": "uint256"
        }
      ],
      "name": "principalOwedAt",
      "outputs": [
        {
          "internalType": "uint256",
          "name": "",
          "type": "uint256"
        }
      ],
      "stateMutability": "view",
      "type": "function"
    },
    {
      "inputs": [
        {
          "internalType": "bytes32",
          "name": "role",
          "type": "bytes32"
        },
        {
          "internalType": "address",
          "name": "account",
          "type": "address"
        }
      ],
      "name": "renounceRole",
      "outputs": [],
      "stateMutability": "nonpayable",
      "type": "function"
    },
    {
      "inputs": [
        {
          "internalType": "bytes32",
          "name": "role",
          "type": "bytes32"
        },
        {
          "internalType": "address",
          "name": "account",
          "type": "address"
        }
      ],
      "name": "revokeRole",
      "outputs": [],
      "stateMutability": "nonpayable",
      "type": "function"
    },
    {
      "inputs": [],
      "name": "schedule",
      "outputs": [
        {
          "internalType": "contract ISchedule",
          "name": "",
          "type": "address"
        }
      ],
      "stateMutability": "view",
      "type": "function"
    },
    {
      "inputs": [
        {
          "internalType": "uint256[]",
          "name": "ids",
          "type": "uint256[]"
        }
      ],
      "name": "setAllowedUIDTypes",
      "outputs": [],
      "stateMutability": "nonpayable",
      "type": "function"
    },
    {
      "inputs": [
        {
          "internalType": "uint256",
          "name": "newFundableAt",
          "type": "uint256"
        }
      ],
      "name": "setFundableAt",
      "outputs": [],
      "stateMutability": "nonpayable",
      "type": "function"
    },
    {
      "inputs": [
        {
          "internalType": "uint256",
          "name": "",
          "type": "uint256"
        }
      ],
      "name": "setLimit",
      "outputs": [],
      "stateMutability": "pure",
      "type": "function"
    },
    {
      "inputs": [
        {
          "internalType": "uint256",
          "name": "",
          "type": "uint256"
        }
      ],
      "name": "setMaxLimit",
      "outputs": [],
      "stateMutability": "pure",
      "type": "function"
    },
    {
      "inputs": [
        {
          "internalType": "uint256",
          "name": "callAmount",
          "type": "uint256"
        },
        {
          "internalType": "uint256",
          "name": "poolTokenId",
          "type": "uint256"
        }
      ],
      "name": "submitCall",
      "outputs": [
        {
          "internalType": "uint256",
          "name": "callRequestedTokenId",
          "type": "uint256"
        },
        {
          "internalType": "uint256",
          "name": "remainingTokenId",
          "type": "uint256"
        }
      ],
      "stateMutability": "nonpayable",
      "type": "function"
    },
    {
      "inputs": [
        {
          "internalType": "bytes4",
          "name": "interfaceId",
          "type": "bytes4"
        }
      ],
      "name": "supportsInterface",
      "outputs": [
        {
          "internalType": "bool",
          "name": "",
          "type": "bool"
        }
      ],
      "stateMutability": "view",
      "type": "function"
    },
    {
      "inputs": [],
      "name": "termEndTime",
      "outputs": [
        {
          "internalType": "uint256",
          "name": "",
          "type": "uint256"
        }
      ],
      "stateMutability": "view",
      "type": "function"
    },
    {
      "inputs": [],
      "name": "termStartTime",
      "outputs": [
        {
          "internalType": "uint256",
          "name": "",
          "type": "uint256"
        }
      ],
      "stateMutability": "view",
      "type": "function"
    },
    {
      "inputs": [],
      "name": "totalInterestAccrued",
      "outputs": [
        {
          "internalType": "uint256",
          "name": "",
          "type": "uint256"
        }
      ],
      "stateMutability": "view",
      "type": "function"
    },
    {
      "inputs": [
        {
          "internalType": "uint256",
          "name": "timestamp",
          "type": "uint256"
        }
      ],
      "name": "totalInterestAccruedAt",
      "outputs": [
        {
          "internalType": "uint256",
          "name": "",
          "type": "uint256"
        }
      ],
      "stateMutability": "view",
      "type": "function"
    },
    {
      "inputs": [],
      "name": "totalInterestOwed",
      "outputs": [
        {
          "internalType": "uint256",
          "name": "",
          "type": "uint256"
        }
      ],
      "stateMutability": "view",
      "type": "function"
    },
    {
      "inputs": [
        {
          "internalType": "uint256",
          "name": "timestamp",
          "type": "uint256"
        }
      ],
      "name": "totalInterestOwedAt",
      "outputs": [
        {
          "internalType": "uint256",
          "name": "",
          "type": "uint256"
        }
      ],
      "stateMutability": "view",
      "type": "function"
    },
    {
      "inputs": [],
      "name": "totalInterestPaid",
      "outputs": [
        {
          "internalType": "uint256",
          "name": "",
          "type": "uint256"
        }
      ],
      "stateMutability": "view",
      "type": "function"
    },
    {
      "inputs": [],
      "name": "totalPrincipalOwed",
      "outputs": [
        {
          "internalType": "uint256",
          "name": "",
          "type": "uint256"
        }
      ],
      "stateMutability": "view",
      "type": "function"
    },
    {
      "inputs": [
        {
          "internalType": "uint256",
          "name": "timestamp",
          "type": "uint256"
        }
      ],
      "name": "totalPrincipalOwedAt",
      "outputs": [
        {
          "internalType": "uint256",
          "name": "",
          "type": "uint256"
        }
      ],
      "stateMutability": "view",
      "type": "function"
    },
    {
      "inputs": [],
      "name": "totalPrincipalPaid",
      "outputs": [
        {
          "internalType": "uint256",
          "name": "",
          "type": "uint256"
        }
      ],
      "stateMutability": "view",
      "type": "function"
    },
    {
      "inputs": [],
      "name": "uncalledCapitalTrancheIndex",
      "outputs": [
        {
          "internalType": "uint256",
          "name": "",
          "type": "uint256"
        }
      ],
      "stateMutability": "view",
      "type": "function"
    },
    {
      "inputs": [],
      "name": "unpause",
      "outputs": [],
      "stateMutability": "nonpayable",
      "type": "function"
    },
    {
      "inputs": [],
      "name": "unpauseDrawdowns",
      "outputs": [],
      "stateMutability": "nonpayable",
      "type": "function"
    },
    {
      "inputs": [
        {
          "internalType": "uint256",
          "name": "tokenId",
          "type": "uint256"
        },
        {
          "internalType": "uint256",
          "name": "amount",
          "type": "uint256"
        }
      ],
      "name": "withdraw",
      "outputs": [
        {
          "internalType": "uint256",
          "name": "",
          "type": "uint256"
        },
        {
          "internalType": "uint256",
          "name": "",
          "type": "uint256"
        }
      ],
      "stateMutability": "nonpayable",
      "type": "function"
    },
    {
      "inputs": [
        {
          "internalType": "uint256",
          "name": "tokenId",
          "type": "uint256"
        }
      ],
      "name": "withdrawMax",
      "outputs": [
        {
          "internalType": "uint256",
          "name": "interestWithdrawn",
          "type": "uint256"
        },
        {
          "internalType": "uint256",
          "name": "principalWithdrawn",
          "type": "uint256"
        }
      ],
      "stateMutability": "nonpayable",
      "type": "function"
    },
    {
      "inputs": [
        {
          "internalType": "uint256[]",
          "name": "tokenIds",
          "type": "uint256[]"
        },
        {
          "internalType": "uint256[]",
          "name": "amounts",
          "type": "uint256[]"
        }
      ],
      "name": "withdrawMultiple",
      "outputs": [],
      "stateMutability": "nonpayable",
      "type": "function"
    },
    {
      "inputs": [],
      "name": "withinPrincipalGracePeriod",
      "outputs": [
        {
          "internalType": "bool",
          "name": "",
          "type": "bool"
        }
      ],
      "stateMutability": "view",
      "type": "function"
    }
  ],
  "transactionHash": "0x9a0d1e2b8f4046d3ba2f21150572fa9fd1f4ea33de248be8333b43c25ee2604e",
  "args": [],
  "numDeployments": 1,
  "solcInputHash": "f1bf72d63a46d341760aa9e6f5573f28",
  "bytecode": "0x608080604052346100165761518d908161001c8239f35b600080fdfe6080604052600436101561001257600080fd5b60003560e01c8062ae88e01461058c578063019c37e61461058757806301ffc9a714610582578063097616a31461057d5780630d8e6e2c1461057857806311daef071461057357806317f769411461056e578063191401191461056957806319350114146105645780631a861d261461055f5780631cd724ac1461055a57806320dcc3421461055557806321506ebe1461055057806321856b361461054b578063248a9ca31461054657806324bb4b151461054157806327d18cd11461053c57806327ea6f2b1461045657806328b55c97146105375780632ba443d2146105325780632f2ff15d1461052d57806336568abe146105285780633f4ba83a14610523578063441a3e701461051e578063457147a71461051957806347195e131461051457806347c6e0361461050f57806348eef1df1461050a5780634af75d35146105055780634d02fe6f146105005780634d90a539146104fb57806350b22fcf146104f6578063515bc323146104f1578063526d81f6146104ec5780635c975abb146104e7578063612ed34d146104e2578063645d6225146104dd57806364fb2d95146104d857806365973a11146104d3578063729cf22f146104ce57806379502c55146104c95780637df1f1b9146104c457806381c17a15146104bf5780638456cb59146104ba5780638c0243e7146104b55780638f168c93146104b057806391d14854146104ab5780639d110530146104a6578063a03c5cf0146104a1578063a079a4dd1461049c578063a217fddf14610497578063a4d66daf14610406578063a8f9c4fe14610492578063aa2a7c4c1461048d578063aae932fe14610488578063ae6c857a14610483578063b0604a261461047e578063b396999214610479578063b5c6d25414610474578063b69ef8a81461046f578063b6db75a01461046a578063b9317d8614610465578063bbafcb4014610460578063bf6c87c71461045b578063bf8bcee414610456578063c290d69114610451578063c78bed861461044c578063ce78290d14610447578063cf09e0d014610442578063d28459771461043d578063d547741f14610438578063d60efcb814610433578063daaa3a621461042e578063e2a657f914610429578063e2b02ce814610424578063e2bbb1581461041f578063e58378bb1461041a578063e63ab1e914610415578063e7aa8a9214610410578063e9bd98ba1461040b578063eabd0ce114610406578063eb058b7c14610401578063eb07f4e6146103fc578063ef48eee6146103f7578063f0b25bde146103f2578063f3621367146103ed578063f94f5a12146103e85763faf21e4c146103e357600080fd5b6123d4565b6123ad565b612384565b612365565b612339565b61231e565b612248565b6118bb565b612229565b611fd7565b611fae565b611f85565b611f34565b611ece565b611e8e565b611e5a565b611e3c565b611df8565b611ddc565b611dbd565b611da2565b611cfe565b611cd5565b610a35565b611c85565b611c66565b611b73565b611b58565b611ae5565b611ac8565b611aa9565b611a7f565b6119f6565b611988565b611932565b6118da565b61189f565b611741565b611726565b6115c3565b61153d565b611521565b611506565b61147a565b611454565b61142a565b611400565b611371565b611294565b611227565b611192565b61116c565b611149565b6110e3565b610fdb565b610fbf565b610fa1565b610f14565b610ef6565b610eb5565b610e8b565b610e54565b610d99565b610cba565b610bf6565b610b5e565b610a8f565b610a74565b610a58565b610a16565b6109f8565b6109c9565b6109ad565b6108e8565b6108cc565b6108b0565b61088d565b610871565b610855565b61081b565b6107fd565b610781565b6106ed565b610686565b610660565b3461065b57602036600319011261065b576105f460206101ed546001600160401b038160a01c16906105bf821515612d66565b60405180809581946347487c0160e01b83526004359060048401602090939291936001600160401b0360408201951681520152565b03916001600160a01b03165afa80156106565761062491600091610628575b506040519081529081906020820190565b0390f35b610649915060203d811161064f575b61064181836124c5565b810190612dd6565b38610613565b503d610637565b612de5565b600080fd5b3461065b57602036600319011261065b57602061067e600435613f7b565b604051908152f35b3461065b57602036600319011261065b5760043563ffffffff60e01b811680910361065b57602090637965db0b60e01b81149081156106cb575b506040519015158152f35b6301ffc9a760e01b149050386106c0565b6001600160a01b0381160361065b57565b3461065b57602036600319011261065b5760043561070a816106dc565b60009061073982549160ff8360081c1692831580948161076b575b61072e906129ef565b61074c575b50612aad565b6107405780f35b805461ff001916815580f35b61ff0019166101001784556000805460ff191660011790555b38610733565b5060ff821615610725565b600091031261065b57565b3461065b576000806003193601126107fa57604051606081018181106001600160401b038211176107f557604052816060368337806040830152602090808284015260019081845260405192839491945b600386106107df57606085f35b825160ff168152948301949181019181016107d2565b61242f565b80fd5b3461065b57602036600319011261065b57602061067e600435613e7d565b3461065b57600036600319011261065b57602060ff61020254166040519015158152f35b634e487b7160e01b600052602160045260246000fd5b3461065b57600036600319011261065b57602060405160018152f35b3461065b57600036600319011261065b57602061067e42613e7d565b3461065b57600036600319011261065b57604051639ba6061b60e01b8152600490fd5b3461065b57600036600319011261065b57602061067e4261411d565b3461065b57600036600319011261065b57602061067e4261497b565b3461065b57602036600319011261065b576004356109046132b9565b5061090d614cbe565b81101561097757610920610624916149aa565b6060810151815191604060208201519101519061093b61289e565b84815260208082019283526040808301948552606092830195865280519687529251908601529151908401529051908201529081906080820190565b6109a961098a610985614cbe565b612f3f565b6040516313e43c3760e31b815260048101919091529081906024820190565b0390fd5b3461065b57600036600319011261065b57602061067e42613fbc565b3461065b57602036600319011261065b5760043560005260656020526020600160406000200154604051908152f35b3461065b57602036600319011261065b57602061067e600435615068565b3461065b57600036600319011261065b5760206101c454604051908152f35b3461065b57602036600319011261065b57604051639ba6061b60e01b8152600490fd5b3461065b57600036600319011261065b57602061067e4261431d565b3461065b57600036600319011261065b57602061067e614cbe565b3461065b57604036600319011261065b57600435602435610aaf816106dc565b6000918083526065602052610acc60016040852001543390612512565b8083526065602090815260408085206001600160a01b0385166000908152925290205460ff1615610afb578280f35b8083526065602090815260408085206001600160a01b038516600090815292529020805460ff1916600117905533916001600160a01b0316907f2f8788117e7eff1d82e926ec794901d17c78024a50270940304540a733656f0d8480a438808280f35b3461065b57604036600319011261065b57602435610b7b816106dc565b336001600160a01b03821603610b9957610b97906004356127bd565b005b60405162461bcd60e51b815260206004820152602f60248201527f416363657373436f6e74726f6c3a2063616e206f6e6c792072656e6f756e636560448201526e103937b632b9903337b91039b2b63360891b6064820152608490fd5b3461065b576000806003193601126107fa576000805160206150f8833981519152815260656020908152604080832033600090815292529020610c3e9060ff905b5416612d66565b60975460ff811615610c7e5760ff19166097557f5db9ee0a495bf2e6ff9c91a7834c1ba4fdd244a5e8aa4e537bd38aeae4b073aa6020604051338152a180f35b60405162461bcd60e51b815260206004820152601460248201527314185d5cd8589b194e881b9bdd081c185d5cd95960621b6044820152606490fd5b3461065b57604036600319011261065b576024600435610cdf600260c9541415612e8c565b600260c955610cf360ff6097541615612d97565b6102045460a0906001600160a01b0390610d0e908216613aaf565b166040519384809263463d31d760e11b82528560048301525afa90811561065657610d4d92600092610d69575b50610d446144ff565b602435916135d4565b90610d58600160c955565b604080519182526020820192909252f35b610d8b91925060a03d8111610d92575b610d8381836124c5565b810190612ed8565b9038610d3b565b503d610d79565b3461065b57600036600319011261065b576101ed546001600160401b038160a01c168015908115610dd2575b6040518215158152602090f35b604051634922ed6b60e11b81526001600160401b039190911660048201524260248201529160209150829060449082906001600160a01b03165afa80156106565761062491600091610e26575b5038610dc5565b610e47915060203d8111610e4d575b610e3f81836124c5565b810190612f27565b38610e1f565b503d610e35565b3461065b57600036600319011261065b576020604051308152f35b60041115610e7957565b61083f565b906004821015610e795752565b3461065b57600036600319011261065b576020610ea6613dd4565b610eb36040518092610e7e565bf35b3461065b57604036600319011261065b57610ed5600260c9541415612e8c565b610ee460ff6097541615612d97565b604051633b47f88b60e21b8152600490fd5b3461065b57602036600319011261065b57602061067e60043561411d565b3461065b57602036600319011261065b57602460a0600180821b03610f3d816102045416613aaf565b166040519283809263463d31d760e11b825260043560048301525afa801561065657610f7191600091610f83575b506139af565b60408051928352602083019190915290f35b610f9b915060a03d8111610d9257610d8381836124c5565b38610f6b565b3461065b57602036600319011261065b57602061067e60043561497b565b3461065b57600036600319011261065b57602061067e42613f7b565b3461065b5760c036600319011261065b5760643560243560ff8216820361065b5761100b600260c9541415612e8c565b600260c95561101f60ff6097541615612d97565b610204546001600160a01b0390611037908216613b05565b16803b1561065b5760405163d505accf60e01b8152336004820152306024820152604480820184905235606482015260ff939093166084808501919091523560a4808501919091523560c4840152600090839060e490829084905af190811561065657610624926110b0926110ca575b50600435613445565b6110ba600160c955565b6040519081529081906020820190565b806110d76110dd92612445565b80610776565b386110a7565b3461065b576000806003193601126107fa57805460ff8160081c1690811580928161113e575b611112906129ef565b611120575b50610739612c94565b61ff0019166101001782556000805460ff1916600117905538611117565b5060ff821615611109565b3461065b57600036600319011261065b57602060ff609754166040519015158152f35b3461065b57602036600319011261065b57602061067e60043561118d61329c565b613239565b3461065b576000806003193601126107fa576101ed5460a081901c6001600160401b0316801561121d5760405163df3dc09160e01b8152600481019190915290602090829060249082906001600160a01b03165afa9081156106565760209291611200575b50604051908152f35b6112179150823d811161064f5761064181836124c5565b386111f7565b505060209061067e565b3461065b576000806003193601126107fa576101ed5460a081901c6001600160401b0316801561121d576040516334a88f4360e01b8152600481019190915290602090829060249082906001600160a01b03165afa90811561065657602092916112005750604051908152f35b3461065b57602036600319011261065b57610204546112d0906112c4906001600160a01b0316613aaf565b613aaf565b6001600160a01b031690565b60405163463d31d760e11b815260048035908201529060a090829060249082905afa90811561065657600091611353575b5060208101908151611311614cbe565b0361132a576110ba906040610624935191015190614874565b5051611334614cbe565b604051639d07b47960e01b815260048101929092526024820152604490fd5b61136b915060a03d8111610d9257610d8381836124c5565b38611301565b3461065b57600036600319011261065b5761138a6132b9565b5061062461139e611399614cbe565b6149aa565b60608101518151916040602082015191015190604051936113be85612458565b84526020840152604083015260608201526040519182918291909160608060808301948051845260208101516020850152604081015160408501520151910152565b3461065b57600036600319011261065b57610204546040516001600160a01b039091168152602090f35b3461065b57600036600319011261065b57610206546040516001600160a01b039091168152602090f35b3461065b57600036600319011261065b57602061147042614818565b6040519015158152f35b3461065b576000806003193601126107fa576000805160206150f88339815191528152606560209081526040808320336000908152925290206114bf9060ff90610c37565b60016097546114d160ff821615612d97565b60ff1916176097557f62e78cea01bee320cd4e420270b5ea74000d11b0c9f74754ebdbfc544b05a2586020604051338152a180f35b3461065b57600036600319011261065b57602061067e614d0c565b3461065b57600036600319011261065b57602061067e42614056565b3461065b57604036600319011261065b57602060ff611587602435611561816106dc565b6004356000526065845260406000209060018060a01b0316600052602052604060002090565b54166040519015158152f35b9181601f8401121561065b578235916001600160401b03831161065b576020808501948460051b01011161065b57565b3461065b5760408060031936011261065b576001600160401b03906004803583811161065b576115f69036908301611593565b9360243590811161065b5761160e9036908401611593565b9061161e600260c9541415612e8c565b600260c95561163260ff6097541615612d97565b61163a6144ff565b8186036117045760005b82811061165557610b97600160c955565b6102045461166f906112c4906001600160a01b0316613aaf565b906116a161167e828a88612fb2565b358851809463463d31d760e11b8252818060a09586958d83019190602083019252565b03915afa8015610656576116e2936116db926000926116e7575b50506116c8838b89612fb2565b356116d4848888612fb2565b35916135d4565b5050612fa3565b611644565b6116fd9250803d10610d9257610d8381836124c5565b38806116bb565b8451631f4bb7c160e31b81528085018781526020810184905281906040010390fd5b3461065b57600036600319011261065b57602061067e61329c565b3461065b57602036600319011261065b57600435611764600260c9541415612e8c565b600260c9553360009081527f4b2bc64506122a1aa955cb7278a891710a0b028a60b262ec1b7714d5c55b3527602052604090205460ff1615611887576117af60ff6097541615612d97565b60ff6102025416611872578015611860576117c86144ff565b6117d181613bbb565b7f7411b87a3c039bdfd8f3510b21e8bd0736265f53513735e1f4aa7b4f306b728d6118536118426112c46118186112c46118136102045460018060a01b031690565b613a99565b61020680549091611835918891906001600160a01b031690612fc2565b546001600160a01b031690565b604051938452929081906020820190565b0390a2610b97600160c955565b60405163625cef9f60e01b8152600490fd5b6040516001620112a160e61b03198152600490fd5b604051632d4db6b160e21b8152336004820152602490fd5b3461065b57600036600319011261065b57602060405160008152f35b3461065b57600036600319011261065b5760206101c554604051908152f35b3461065b576000806003193601126107fa576118fc6118f7612d31565b6131d9565b610202805460ff19166001179055307f90d9b09c68a7e1312ce22801552b47265d77db9496383d51374b4058545447d78280a280f35b3461065b57602036600319011261065b57611952600260c9541415612e8c565b600260c95561196660ff6097541615612d97565b6119716004356138a0565b600160c95560408051928352602083019190915290f35b3461065b57602036600319011261065b576004354281106119de576119ac81613fbc565b6106246119c16119bb8461497b565b93613e7d565b604051938493846040919493926060820195825260208201520152565b602490604051906363c09f6d60e01b82526004820152fd5b3461065b57602036600319011261065b573360009081527f4b2bc64506122a1aa955cb7278a891710a0b028a60b262ec1b7714d5c55b3527602052604090205460ff161561188757611a466144ff565b611a4e613dd4565b6004811015610e7957611a64576004356101c455005b60246101c454604051906303e9bfa760e11b82526004820152fd5b3461065b57600036600319011261065b576101ed546040516001600160a01b039091168152602090f35b3461065b57600036600319011261065b5760206101c654604051908152f35b3461065b57600036600319011261065b5760206040516113888152f35b3461065b57600036600319011261065b576000806101cd545b808310611b1057602082604051908152f35b90611b1a83614ab2565b5080549060018101548203918211611b5357600201548103908111611b53578101809111611b5357611b4c9092612fa3565b9190611afe565b612850565b3461065b57600036600319011261065b576020611470612d31565b3461065b5760208060031936011261065b576001600160401b0360043581811161065b57611ba5903690600401611593565b600080516020615138833981519152600090815260658552604080822033835260205290205490929060ff161561188757611bde614cd1565b611c545782116107f557600160401b82116107f5576102038281549155808310611c30575b5060005b828110611c1057005b813560008051602061511883398151915282015590830190600101611c07565b611c4e90836000805160206151188339815191529182019101612df1565b38611c03565b60405163854eac3360e01b8152600490fd5b3461065b57600036600319011261065b5760206101c954604051908152f35b3461065b576000806003193601126107fa57611ca26118f7612d31565b610202805460ff19169055307f7184039938737267597232635b117c924371ac877d4329f2dfa5ca674c5cc4a58280a280f35b3461065b57602036600319011261065b57611cee6131ae565b50610ed5600260c9541415612e8c565b3461065b576000806003193601126107fa5760405180916102039081548084526020809401908193835260008051602061511883398151915290835b818110611d8e5750505084611d509103856124c5565b60405193838594850191818652518092526040850193925b828110611d7757505050500390f35b835185528695509381019392810192600101611d68565b825484529286019260019283019201611d3a565b3461065b57600036600319011261065b57602061067e6145f6565b3461065b57600036600319011261065b57602061020554604051908152f35b3461065b57600036600319011261065b57602061067e42615068565b3461065b57604036600319011261065b57610b97602435600435611e1b826106dc565b806000526065602052611e376001604060002001543390612512565b6127bd565b3461065b57602036600319011261065b57602061067e600435613fbc565b3461065b57602036600319011261065b57602061067e600435614056565b634e487b7160e01b600052603260045260246000fd5b3461065b57602036600319011261065b5760043561020390815481101561065b576020916000526000805160206151188339815191520154604051908152f35b3461065b57600036600319011261065b576105f460206101ed546001600160401b038160a01c1690611f01821515612d66565b604051635c16b67360e11b81526001600160401b0390921660048301524260248301529092839190829081906044820190565b3461065b57604036600319011261065b57611f54600260c9541415612e8c565b600260c955611f6860ff6097541615612d97565b6020611f78602435600435613445565b600160c955604051908152f35b3461065b57600036600319011261065b5760206040516000805160206150d88339815191528152f35b3461065b57600036600319011261065b5760206040516000805160206150f88339815191528152f35b3461065b5761012036600319011261065b57600435611ff5816106dc565b602435612001816106dc565b6084359160a435612011816106dc565b610104356001600160401b03811161065b57612031903690600401611593565b94909260009586549460ff8660081c1695861580978161221e575b612055906129ef565b612200575b50604051620f755f60ec1b8082526001600160a01b03871691602091908281600481875afa908115610656578c916121e3575b5087101561218057505061020480546001600160a01b0319166001600160a01b03861617905550949561213395612116926120ed9161020680546001600160a01b0319166001600160a01b0386161790556120e84261020555565b612e08565b6102045461211190612107906001600160a01b0316613b59565b9161211183612a52565b61276e565b61211e612c37565b6044359260c435926064359260e435906143e2565b610202805460ff19166001179055307f90d9b09c68a7e1312ce22801552b47265d77db9496383d51374b4058545447d78380a261216d5780f35b61217d61ff001960005416600055565b80f35b918187928c9460046040518095819382525afa93841561065657936121c4575b5050604051636702d6b760e11b815260048101919091526024810191909152604490fd5b6121db929350803d1061064f5761064181836124c5565b9082806121a0565b6121fa9150833d851161064f5761064181836124c5565b3861208d565b61ff0019166101001788556000805460ff191660011790553861205a565b5060ff82161561204c565b3461065b57600036600319011261065b5760206101c854604051908152f35b3461065b57600036600319011261065b576122ae60206101ed546001600160401b038160a01c169061227b821515612d66565b604051636a3d374160e11b81526001600160401b0390921660048301524260248301529092839190829081906044820190565b03916001600160a01b03165afa80156106565761062491600091612300575b506122ee6122e36122dc615030565b80936143d8565b916101c85490612f4e565b60405191101581529081906020820190565b612318915060203d811161064f5761064181836124c5565b386122cd565b3461065b57600036600319011261065b57602061067e613942565b3461065b57604036600319011261065b576123526131ae565b50604051639ba6061b60e01b8152600490fd5b3461065b57600036600319011261065b5760206101c754604051908152f35b3461065b57600036600319011261065b5760206040516000805160206151388339815191528152f35b3461065b57602036600319011261065b5760206114706004356123cf816106dc565b613342565b3461065b57604036600319011261065b57602061067e602435600435613239565b60005b8381106124085750506000910152565b81810151838201526020016123f8565b9061242b602092828151948592016123f5565b0190565b634e487b7160e01b600052604160045260246000fd5b6001600160401b0381116107f557604052565b608081019081106001600160401b038211176107f557604052565b60a081019081106001600160401b038211176107f557604052565b604081019081106001600160401b038211176107f557604052565b61038081019081106001600160401b038211176107f557604052565b90601f801991011681019081106001600160401b038211176107f557604052565b6040916020825261250681518092816020860152602086860191016123f5565b601f01601f1916010190565b9081600052606560205260ff61253e8260406000209060018060a01b0316600052602052604060002090565b541615612549575050565b6001600160a01b03169061255b6128ba565b916030612567846128e6565b536078612573846128f3565b5360295b60018111612622576109a96125df61260a866125fc61259f8861259a8915612921565b61296c565b6125d96040519586946125d9602087016017907f416363657373436f6e74726f6c3a206163636f756e742000000000000000000081520190565b90612418565b7001034b99036b4b9b9b4b733903937b6329607d1b815260110190565b03601f1981018352826124c5565b60405162461bcd60e51b8152918291600483016124e6565b90600f81169060108210156126645761265f916f181899199a1a9b1b9c1cb0b131b232b360811b901a6126558487612903565b5360041c91612914565b612577565b611e78565b6001600160a01b03811660009081527f6805e25e6cde84a829922028ad0e6c513021b8756e9a2473e007ddc1f0f07afb602052604081206000805160206150d88339815191529060ff905b5416156126c057505050565b8082526065602090815260408084206001600160a01b038616600090815292529020805460ff1916600117905533926001600160a01b0316917f2f8788117e7eff1d82e926ec794901d17c78024a50270940304540a733656f0d9080a4565b6001600160a01b03811660009081527fbfe93621c6aa2dbf737e9056c9b79e4d30ee4f6b28b18be2cb71aac8a7bf258e602052604081206000805160206150f88339815191529060ff906126b4565b6001600160a01b03811660009081527f4b2bc64506122a1aa955cb7278a891710a0b028a60b262ec1b7714d5c55b3527602052604081206000805160206151388339815191529060ff906126b4565b600090808252606560205260ff6127e984604085209060018060a01b0316600052602052604060002090565b54166127f457505050565b8082526065602090815260408084206001600160a01b038616600090815292529020805460ff1916905533926001600160a01b0316917ff6391f5c32d9c69d2a47ea670b442974b53935d1edc7fd64eb21e047a839171b9080a4565b634e487b7160e01b600052601160045260246000fd5b906201518091828102928184041490151715611b5357565b81810292918115918404141715611b5357565b91908201809211611b5357565b604051906128ab82612458565b565b604051906128ab8261248e565b60405190606082018281106001600160401b038211176107f557604052602a8252604082602036910137565b8051156126645760200190565b8051600110156126645760210190565b908151811015612664570160200190565b8015611b53576000190190565b1561292857565b606460405162461bcd60e51b815260206004820152602060248201527f537472696e67733a20686578206c656e67746820696e73756666696369656e746044820152fd5b6040519061297982612458565b6042825260603660208401376030612990836128e6565b53607861299c836128f3565b536041905b600182116129b7576129b4915015612921565b90565b600f8116906010821015612664576129e9916f181899199a1a9b1b9c1cb0b131b232b360811b901a6126558486612903565b906129a1565b156129f657565b60405162461bcd60e51b815260206004820152602e60248201527f496e697469616c697a61626c653a20636f6e747261637420697320616c72656160448201526d191e481a5b9a5d1a585b1a5e995960921b6064820152608490fd5b612a7e6000549160ff8360081c16928315809481612aa2575b612a74906129ef565b612a915750612aad565b612a8457565b61ff001960005416600055565b61ffff191661010117600055610765565b5060ff821615612a6b565b6001600160a01b03811615612b4957612b079060005460ff8160081c16908115809281612b3e575b612ade906129ef565b612b2c575b50612b17575b612af1612c94565b612af9612ce5565b612b0281612669565b61271f565b612b0f612b8d565b6128ab612bea565b612b2761ff001960005416600055565b612ae9565b61ffff19166101011760005538612ae3565b5060ff821615612ad5565b606460405162461bcd60e51b815260206004820152602060248201527f4f776e65722063616e6e6f7420626520746865207a65726f20616464726573736044820152fd5b6000805160206150f88339815191528060005260656020526001604060002001908154906000805160206150d88339815191528093557fbd79b86ffe0ab8e8776151514217cd7cacd52c909f66475c3af44e129f0b00ff600080a4565b6000805160206150d883398151915280600052606560205260016040600020018181549155817fbd79b86ffe0ab8e8776151514217cd7cacd52c909f66475c3af44e129f0b00ff600080a4565b6000805160206151388339815191528060005260656020526001604060002001908154906000805160206150d88339815191528093557fbd79b86ffe0ab8e8776151514217cd7cacd52c909f66475c3af44e129f0b00ff600080a4565b60005460ff8160081c16908115809281612cda575b612cb2906129ef565b612cc8575b5060ff1960975416609755612a8457565b61ffff19166101011760005538612cb7565b5060ff821615612ca9565b60005460ff8160081c16908115809281612d26575b612d03906129ef565b612d14575b50600160c955612a8457565b61ffff19166101011760005538612d08565b5060ff821615612cfa565b3360009081527f6805e25e6cde84a829922028ad0e6c513021b8756e9a2473e007ddc1f0f07afb602052604090205460ff1690565b15612d6d57565b60405162461bcd60e51b81526020600482015260026024820152614e4160f01b6044820152606490fd5b15612d9e57565b60405162461bcd60e51b815260206004820152601060248201526f14185d5cd8589b194e881c185d5cd95960821b6044820152606490fd5b9081602091031261065b575190565b6040513d6000823e3d90fd5b818110612dfc575050565b60008155600101612df1565b6001600160401b0382116107f557600160401b82116107f557610203908154838355808410612e68575b509060005260005b828110612e4657505050565b6001906020833593019281600080516020615118833981519152015501612e3a565b612e8690846000805160206151188339815191529182019101612df1565b38612e32565b15612e9357565b60405162461bcd60e51b815260206004820152601f60248201527f5265656e7472616e637947756172643a207265656e7472616e742063616c6c006044820152606490fd5b908160a091031261065b57608060405191612ef283612473565b8051612efd816106dc565b83526020810151602084015260408101516040840152606081015160608401520151608082015290565b9081602091031261065b5751801515810361065b5790565b600019810191908211611b5357565b91908203918211611b5357565b634e487b7160e01b600052601260045260246000fd5b9081602091031261065b57516129b4816106dc565b15612f8d57565b634e487b7160e01b600052600160045260246000fd5b6000198114611b535760010190565b91908110156126645760051b0190565b60405163a9059cbb60e01b60208201526001600160a01b039290921660248301526044808301939093529181526128ab91612ffe6064836124c5565b613062565b1561300a57565b60405162461bcd60e51b815260206004820152602a60248201527f5361666545524332303a204552433230206f7065726174696f6e20646964206e6044820152691bdd081cdd58d8d9595960b21b6064820152608490fd5b6040516001600160a01b03919091169161307b8261248e565b6020928383527f5361666545524332303a206c6f772d6c6576656c2063616c6c206661696c656484840152803b156130f257600082819282876130cd9796519301915af16130c7613137565b90613176565b805190816130da57505050565b826128ab936130ed938301019101612f27565b613003565b60405162461bcd60e51b815260048101859052601d60248201527f416464726573733a2063616c6c20746f206e6f6e2d636f6e74726163740000006044820152606490fd5b3d15613171573d906001600160401b0382116107f55760405191613165601f8201601f1916602001846124c5565b82523d6000602084013e565b606090565b90919015613182575090565b8151156131925750805190602001fd5b60405162461bcd60e51b81529081906109a990600483016124e6565b604051906131bb82612473565b60006080838281528260208201528260408201528260608201520152565b156131e057565b60405162461bcd60e51b815260206004820152602b60248201527f4d75737420686176652061646d696e20726f6c6520746f20706572666f726d2060448201526a3a3434b99030b1ba34b7b760a91b6064820152608490fd5b906132434261411d565b91428203918211611b53576a1a1601fc4ea7109e0000009161326c613271926101c6549061287e565b61287e565b048101809111611b53576129b490613287614d0c565b905b80821115613298575050600090565b0390565b6132a4614cd1565b6132ad4261431d565b8103908111611b535790565b604051906132c682612458565b60006060838281528260208201528260408201520152565b6001600160a01b039091168152604060208083018290526102038054928401839052600090815260609093019260008051602061511883398151915292915b82821061332b575050505090565b83548552938401936001938401939091019061331d565b61020454604051635c9fcd8560e11b8152601360048201526020926001600160a01b039290919084908290602490829087165afa80156106565784926133a6926000926133d4575b50604051948580948193620c297960e91b8352600483016132de565b0392165afa918215610656576000926133be57505090565b6129b49250803d10610e4d57610e3f81836124c5565b6133f5919250843d86116133fc575b6133ed81836124c5565b810190612f71565b903861338a565b503d6133e3565b6040516323b872dd60e01b60208201526001600160a01b0392831660248201529290911660448301526064808301939093529181526128ab91612ffe82612473565b61344d6144ff565b81156135c25761345b614cbe565b81036135985761347161346d33613342565b1590565b6135805760009061348183613c8b565b6102049260206134e56134a06112c46112bf885460018060a01b031690565b6134a86128ad565b848152838101869052604051632df2bdb560e11b815281516004820152602090910151602482015233604482015295869283919082906064820190565b03925af19283156106565760009361354e575b5061351d816135146112c461181387985460018060a01b031690565b30903390613403565b60405190815233907fcb3ef4109dcd006671348924f00aac8398190a5ff283d6e470d74581513e103690602090a490565b611813949350816135146112c461357561351d9460203d811161064f5761064181836124c5565b9697505050506134f8565b604051631e4767b960e31b8152336004820152602490fd5b6135a0614cbe565b6040516001629f3b6360e01b0319815260048101929092526024820152604490fd5b60405163078e1d8560e01b8152600490fd5b929190811561387c5761020480549094906135fb906112c4906001600160a01b0316613aaf565b6040805163430c208160e01b815233600480830191909152602482018690529297919391906020816044818c5afa9081156106565760009161385e575b5015801561384c575b6138295761364e82613a2d565b906136598282612891565b88116137f657906136776136708961367c9461388e565b8099612f4e565b61388e565b97613685613dd4565b61368e81610e6f565b6003810361375a5750803b1561065b57845163b819220560e01b8152938401868152602081018a905260408101889052600091859182908490829060600103925af1908115610656576112c46118136136fb9260209661370d95613747575b50546001600160a01b031690565b6137058988612891565b903390612fc2565b015190518381526020810186905233907f92f2787b755dae547f1701582fe74c7abf277ec14db316dd01abc69cacf7a25990604090a49190565b806110d761375492612445565b386136ed565b80613766600192610e6f565b036137e6576137758715612f86565b61377e89613d5a565b803b1561065b5784516366cbb03760e01b8152938401868152602081018a9052600091859182908490829060400103925af1908115610656576112c46118136136fb9260209661370d956137d3575b50611835565b806110d76137e092612445565b386137cd565b8451630682584b60e41b81528490fd5b6109a9866138068a948894612891565b90516383a0dc4160e01b8152928301938452602084015290918291604090910190565b83516302bb2cbd60e41b8152338185019081526020810187905281906040010390fd5b5061385961346d33613342565b613641565b613876915060203d8111610e4d57610e3f81836124c5565b38613638565b60405163d6d9e66560e01b8152600490fd5b908082101561389b575090565b905090565b6024906138ab6144ff565b6102045460a0906001600160a01b03906138c6908216613aaf565b166040519384809263463d31d760e11b82528560048301525afa91821561065657600092613922575b506138f9826139af565b81929101809211611b5357811561391757613913926135d4565b9091565b505050600090600090565b61393b91925060a03d8111610d9257610d8381836124c5565b90386138ef565b61020454604051631f8ac6cb60e31b81526003600482015290602090829060249082906001600160a01b03165afa90811561065657600091613991575b50801561398c5760640490565b612f5b565b6139a9915060203d811161064f5761064181836124c5565b3861397f565b9060408201518015613a245760208301516139d2916139cc613942565b91614898565b606084929401918251906001830191828411611b53576080926139f6911115612f86565b01805160018601808711611b5357613a0f911115612f86565b518403938411611b53576129b4915190613289565b50600091508190565b9060408201518015613a24576020830151613a6791613a61613a4d613942565b92613a5c6101c9544214612f86565b614ab2565b50614a3f565b606084929401918251906001830191828411611b5357608092613a8b911115612f86565b01613a0f8582511115612f86565b6001600160a01b0390613aab90613b05565b1690565b604051635c9fcd8560e11b8152600c60048201526001600160a01b03916020908290602490829086165afa90811561065657600091613aed57501690565b613aab915060203d81116133fc576133ed81836124c5565b604051635c9fcd8560e11b81526005600482015290602090829060249082906001600160a01b03165afa90811561065657600091613b41575090565b6129b4915060203d81116133fc576133ed81836124c5565b604051635c9fcd8560e11b81526007600482015290602090829060249082906001600160a01b03165afa90811561065657600091613b41575090565b6020600291939293613bab816040810196610e7e565b0152565b9080821061389b575090565b613bc3613dd4565b613bcc81610e6f565b60018114613c44575b613bde81610e6f565b60028103613c275750613bf04261431d565b8111613bff576128ab90614c00565b613c084261431d565b60405163d04a3a1160e01b815260048101929092526024820152604490fd5b604051631682f2a160e21b81529081906109a99060048301613b95565b50613c4e42614e20565b426101ca55426101c955613c60613dd4565b307f139a6829bb850b4fb0d6617ac9f9d32e48c2dbe13e158829fa64f326fafe8e18600080a2613bd5565b613c93613dd4565b613c9c81610e6f565b60018103613d335750613cb0613a5c614cbe565b50548101808211611b53576101c554809111613cd057506128ab90614c56565b90600091826101cd545b808210613d0d57505060405163b28e2ed760e01b8152600481019290925260248201929092526044810191909152606490fd5b9093613d1885614ab2565b50548101809111611b5357613d2d9094612fa3565b90613cda565b604051631682f2a160e21b8152604491613d51906004830190610e7e565b60016024820152fd5b613d62613dd4565b6004811015610e7957600103613dae57613d7d613a5c614cbe565b50613d8c600382015415612f86565b805490828203918211611b53576001918155018054918203918211611b535755565b6044613db8613dd4565b604051631682f2a160e21b815290613d51906004830190610e7e565b6101ed5460a01c6001600160401b0316613dfd576101c454421015613df857600090565b600190565b6024613e07614fd8565b6101c354604051631f8ac6cb60e31b8152600760048201529260209184919082906001600160a01b03165afa90811561065657613e4c92600092613e5d575b50612891565b421015613e5857600290565b600390565b613e7691925060203d811161064f5761064181836124c5565b9038613e46565b613e8f613e8982613f7b565b91614ed8565b60009182915b808410613ea757506129b49250613289565b9091613eb284614ab2565b50600260018201549101548101809111611b53578101809111611b5357613ed99093612fa3565b929190613e95565b613eea81614ed8565b9060009182905b808210613f55575050613f0390614ed8565b60009182915b808410613f1b57506129b49250613289565b9091613f2684614ab2565b50600260018201549101548101809111611b53578101809111611b5357613f4d9093612fa3565b929190613f09565b9092613f6084614ab2565b50548101809111611b5357613f759093612fa3565b90613ef1565b613f8490614ed8565b60009081905b808210613f9657505090565b9091613fa183614ab2565b50548101809111611b5357613fb69092612fa3565b90613f8a565b6101c954808210613fdc5750613fd46129b491614056565b613287614d0c565b60405163d91ecab360e01b815260048101929092526024820152604490fd5b6101c954808210613fdc575061401090614056565b600080916101cd545b80841061402b57506129b49250613289565b9091600361403885614ab2565b5001548101809111611b535761404e9093612fa3565b929190614019565b6101c954808210613fdc57614069614f80565b82116141175760206140c3926101ed546001600160401b038160a01c16614091811515612d66565b604051809681948293630103299960e31b845260048401602090939291936001600160401b0360408201951681520152565b03916001600160a01b03165afa918215610656576000926140f7575b5081116140ee57506101cb5490565b6129b49061411d565b61411091925060203d811161064f5761064181836124c5565b90386140df565b506129b4905b906101c95480831061420a576101ed5460a01c6001600160401b031615614203576101cc54908361414c614f80565b82106141ee575b61419061418a6141656101ca54615068565b6101c3546141849061417f906001600160a01b03166142c9565b612866565b90612891565b83613baf565b946141b661419c614d4a565b946141846101c65495866101c7549889928c88429261422b565b958282106141c6575b5050505050565b9161418493916141e3969795936141db614d8c565b92429261422b565b9038808080806141bf565b93506141fd8461367783614e65565b93614153565b5060009150565b60405163d91ecab360e01b8152600481018490526024810191909152604490fd5b90959295818111156142bd5781810395818711611b535761425e61326c976a1a1601fc4ea7109e0000009889938961287e565b0496818410806142b4575b614278575b5050505050505090565b9261328761429e9695936142926142989461326c9761388e565b92613baf565b9261287e565b048101809111611b53573880808080808061426e565b50838111614269565b50505050505050600090565b604051631f8ac6cb60e31b81526005600482015290602090829060249082906001600160a01b03165afa90811561065657600091614305575090565b6129b4915060203d811161064f5761064181836124c5565b6000806101cd545b8082106143af5750506101ed54819060a01c6001600160401b0316156143a957506143526129b492614ed8565b61435e6101c954614ed8565b811161437f575b61437a61418491614374614cbe565b9061388e565b614de4565b9061437a6143a0614184926002614397613a5c614cbe565b50015490612891565b92915050614365565b91505090565b909160016143bc84614ab2565b5001548101809111611b53576143d29092612fa3565b90614325565b811561398c570690565b919592906101c99687546144ed5760049461441d6020956101c39060018060a01b03166bffffffffffffffffffffffff60a01b825416179055565b6101c5556101c8556101c45561447c6144346128ad565b6001600160a01b038316815260008482015260018060a01b03815116906101ed9182549160206001600160401b0360a01b91015160a01b169163ffffffff60e01b1617179055565b60405163e08cf88360e01b815292839182906001600160a01b03165afa8015610656576144b1916000916144cf575b50614b77565b6101c6556101c755429055426101ca5560006101cc5560006101cb55565b6144e7915060203d811161064f5761064181836124c5565b386144ab565b6040516379c6736560e11b8152600490fd5b614507613dd4565b61451081610e6f565b600180911480156145de575b6145d65761452942614ed8565b6101c9906145378254614ed8565b811161456c575b50905061454961470f565b6101ca5561455642614056565b6101cb556145634261411d565b6101cc55429055565b6101cd54600019810191908211611b535761458f61458983614ab2565b50614ca0565b6000845b61459f575b505061453e565b818110806145cd575b156145c857806145bd6145896145c293614ab2565b612fa3565b84614593565b614598565b508281106145a8565b50426101c955565b506145e7613dd4565b6145f081610e6f565b1561451c565b6003614600613dd4565b61460981610e6f565b0361470b576101ca5490614628614623836101c954613baf565b614f2c565b61463142614f2c565b6101ed546001600160a01b0381169060a01c6001600160401b03168015155b83851061465e575050505050565b909192939561466c82612d66565b604051638dfdc69560e01b81526001600160401b038416600482015260248101889052602091908281604481895afa928315610656576000936146ec575b50506146b582613ee1565b15806146dc575b156146d557506146cc9096612fa3565b93929190614650565b96506141bf565b506146e682613ffb565b156146bc565b614703929350803d1061064f5761064181836124c5565b9038806146aa565b4290565b6003614719613dd4565b61472281610e6f565b0361470b576101ca549061473c614623836101c954613baf565b61474542614f2c565b6101ed546001600160a01b0381169060a01c6001600160401b03168015155b838510614772575050505050565b909192939561478082612d66565b604051638dfdc69560e01b81526001600160401b038416600482015260248101889052602091908281604481895afa928315610656576000936147f9575b50506147c982613ee1565b15806147e9575b156146d557506147e09096612fa3565b93929190614764565b506147f382613ffb565b156147d0565b614810929350803d1061064f5761064181836124c5565b9038806147be565b614820613dd4565b6004811015610e7957600314801590614852575b61484c5761484861484361470f565b615068565b1090565b50600090565b5061485c81613f7b565b61486582614056565b8101809111611b535715614834565b61488061488b91614ab2565b509161326c83614a5a565b905490811561398c570490565b92916148a384614ab2565b509360036148af613dd4565b6148b881610e6f565b0361496f576101cd546000198101908111611b535781149081614951575b6148de614cbe565b8110908161493f575b508115614937575b501561492c57614900908285614a6d565b9060018401549060028501548201809211611b535761491e9161287e565b925490811561398c57920490565b906139139293614a3f565b9050386148ef565b905061494a42614ed8565b11386148e7565b905061495f6101c954614ed8565b61496842614ed8565b11906148d6565b50906139139293614a3f565b4281106119de57806132876149926129b49361411d565b916149a461499e614d0c565b91614056565b90613baf565b6149b26132b9565b506149bb6132b9565b906149c581614ab2565b509060038201546060840152815483526001600160401b036101ed5460a01c1615159081614a2d575b5015614a17578060026001614a0893015491015490612891565b60208201526000604082015290565b6001810154602083015260020154604082015290565b9050614a3842614ed8565b11386149ee565b9291614a4f61491e918386614a6d565b91600185015461287e565b600181549101548103908111611b535790565b9190614a7d90600384015461287e565b9060640360648111611b5357614a929161287e565b905490606482029180830460641490151715611b5357811561398c570490565b6101cd80548210156126645760005260051b7f41bf21270d8c221a457e2f64e0b5e3c274a814409eea17edf41bb9eb4ee64eb00190600090565b6101cd908154600160401b8110156107f557614b0f906001938482019055614ab2565b614b61578151815560806020928381015185840155604081015160028401556060810151600384015501519060005b601c8110614b4d575050505050565b825182820160040155918301918401614b3e565b634e487b7160e01b600052600060045260246000fd5b6101cd546144ed5760028110614be15760005b818110614b95575050565b614bdc906145bd6040805190614baa82612473565b60008252600060208301526000818301526000606083015251614bcc816124a9565b6103803682376080820152614aec565b614b8a565b6044906040519063ddc8b40f60e01b8252600482015260026024820152fd5b6101cd546000198101908111611b5357614c1b600191614ab2565b5001805491828111614c33578203918211611b535755565b60405163d04a3a1160e01b81526004810191909152602481019290925250604490fd5b6101cd546000198101908111611b5357614c6f90614ab2565b50614c7e600382015415612f86565b805490828201809211611b53576001918155018054918201809211611b535755565b60028101600181549201918254908101809111611b53576000925555565b6101cd546000198101908111611b535790565b60009060006101cd545b808210614ce6575050565b9092614cf184614ab2565b50548101809111611b5357614d069093612fa3565b90614cdb565b60009060006101cd545b808210614d21575050565b90926003614d2e85614ab2565b5001548101809111611b5357614d449093612fa3565b90614d16565b60009060006101cd545b808210614d5f575050565b9092614d73614d6d85614ab2565b50614a5a565b8101809111611b5357614d869093612fa3565b90614d54565b60009060006101cd545b808210614da1575050565b9092614dac84614ab2565b5080549060018101548203918211611b5357600201548103908111611b53578101809111611b5357614dde9093612fa3565b90614d96565b906000916000905b808210614df7575050565b90926002614e0485614ab2565b5001548101809111611b5357614e1a9093612fa3565b90614dec565b6101ed90815490614e3d6001600160401b038360a01c1615612f86565b67ffffffffffffffff60a01b1990911660a09190911b67ffffffffffffffff60a01b16179055565b6020614eb9916101ed546001600160401b038160a01c16614e87811515612d66565b604051809581948293635c16b67360e11b845260048401602090939291936001600160401b0360408201951681520152565b03916001600160a01b03165afa90811561065657600091614305575090565b6020614eb9916101ed546001600160401b038160a01c16614efa811515612d66565b6040518095819482936356bd011960e01b845260048401602090939291936001600160401b0360408201951681520152565b6020614eb9916101ed546001600160401b038160a01c16614f4e811515612d66565b604051809581948293636a3d374160e11b845260048401602090939291936001600160401b0360408201951681520152565b6101ed5460a081901c6001600160401b0316600081156143a957506040516334a88f4360e01b8152600481019190915290602090829060249082906001600160a01b03165afa90811561065657600091614305575090565b6101ed5460a081901c6001600160401b0316600081156143a9575060405163df3dc09160e01b8152600481019190915290602090829060249082906001600160a01b03165afa90811561065657600091614305575090565b6101ed54604051620f755f60ec1b815290602090829060049082906001600160a01b03165afa90811561065657600091614305575090565b6101ed5460a081901c6001600160401b0316600081156150d057506040516308ba6bcb60e41b81526001600160401b039190911660048201526024810192909252602090829060449082906001600160a01b03165afa90811561065657600091614305575090565b925050509056feb19546dff01e856fb3f010c267a7b1c60363cf8a4664e21cc89c26224620214e65d7a28e3265b37a6474929f336521b332c1681b933f6cb9f3376673440d862a55e22de832dfbc1d02387c99822a1e340fe19148f79621897f9b552e9e244748af9a8bb3cbd6b84fbccefa71ff73e26e798553c6914585a84886212a46a90279a2646970667358221220b6f37e97501c72796b411b6cd0d9814256f6386785bfb6a6d206710e292674e264736f6c63430008120033",
  "devdoc": {
    "author": "Warbler Labs",
    "events": {
      "Paused(address)": {
        "details": "Emitted when the pause is triggered by `account`."
      },
      "PaymentApplied(address,address,uint256,uint256,uint256,uint256)": {
        "params": {
          "interest": "amount of payment allocated to interest (obligated + additional)",
          "payer": "address that made the payment",
          "pool": "pool to which the payment was made",
          "principal": "amount of payment allocated to principal owed and remaining balance",
          "remaining": "any excess payment amount that wasn't allocated to a debt owed",
          "reserve": "of payment that went to the protocol reserve"
        }
      },
      "RoleAdminChanged(bytes32,bytes32,bytes32)": {
        "details": "Emitted when `newAdminRole` is set as ``role``'s admin role, replacing `previousAdminRole` `DEFAULT_ADMIN_ROLE` is the starting admin for all roles, despite {RoleAdminChanged} not being emitted signaling this. _Available since v3.1._"
      },
      "RoleGranted(bytes32,address,address)": {
        "details": "Emitted when `account` is granted `role`. `sender` is the account that originated the contract call, an admin role bearer except when using {AccessControl-_setupRole}."
      },
      "RoleRevoked(bytes32,address,address)": {
        "details": "Emitted when `account` is revoked `role`. `sender` is the account that originated the contract call:   - if using `revokeRole`, it is the admin role bearer   - if using `renounceRole`, it is the role bearer (i.e. `account`)"
      },
      "Unpaused(address)": {
        "details": "Emitted when the pause is lifted by `account`."
      }
    },
    "kind": "dev",
    "methods": {
      "availableToWithdraw(uint256)": {
        "params": {
          "tokenId": "position to query max amount withdrawable for"
        },
        "returns": {
          "_0": "total interest withdrawable on the position",
          "_1": "total principal redeemable on the position"
        }
      },
      "deposit(uint256,uint256)": {
        "params": {
          "amount": "amount of capital to supply",
          "tranche": "Should always be uncalled capital tranche index."
        },
        "returns": {
          "_0": "tokenId NFT representing your position in this pool"
        }
      },
      "depositWithPermit(uint256,uint256,uint256,uint8,bytes32,bytes32)": {
        "params": {
          "amount": "amount of capital to supply",
          "deadline": "deadline of permit operation",
          "r": "r portion of signature",
          "s": "s portion of signature",
          "tranche": "Should always be uncalled capital tranche index.",
          "v": "v portion of signature"
        },
        "returns": {
          "tokenId": "NFT representing your position in this pool"
        }
      },
      "drawdown(uint256)": {
        "params": {
          "amount": "USDC to drawdown. This amount is transferred to the caller"
        }
      },
      "getAmountsOwed(uint256)": {
        "params": {
          "timestamp": "time to calculate up to"
        },
        "returns": {
          "returnedInterestAccrued": "amount of accrued interest (not yet owed) that can be paid at `timestamp`",
          "returnedInterestOwed": "amount of obligated interest owed at `timestamp`",
          "returnedPrincipalOwed": "amount of principal owed at `timestamp`"
        }
      },
      "getRoleAdmin(bytes32)": {
        "details": "Returns the admin role that controls `role`. See {grantRole} and {revokeRole}. To change a role's admin, use {_setRoleAdmin}."
      },
      "grantRole(bytes32,address)": {
        "details": "Grants `role` to `account`. If `account` had not been already granted `role`, emits a {RoleGranted} event. Requirements: - the caller must have ``role``'s admin role."
      },
      "hasRole(bytes32,address)": {
        "details": "Returns `true` if `account` has been granted `role`."
      },
      "initialize(address,address,uint256,uint256,uint256,address,uint256,uint256,uint256[])": {
        "params": {
          "_borrower": "address of borrower, a non-transferrable role for performing privileged actions like   drawdown",
          "_config": "address of GoldfinchConfig",
          "_fundableAt": "earliest time at which the first slice can be funded",
          "_interestApr": "interest rate for the loan",
          "_lateFeeApr": "late fee interest rate for the loan, which kicks in `LatenessGracePeriodInDays` days after a   payment becomes late",
          "_numLockupPeriods": "the number of periods at the tail end of a principal period during which call requests   are not allowed"
        }
      },
      "pause()": {
        "details": "Pauses all functions guarded by Pause See {Pausable-_pause}. Requirements: - the caller must have the PAUSER_ROLE."
      },
      "paused()": {
        "details": "Returns true if the contract is paused, and false otherwise."
      },
      "pay(uint256)": {
        "details": "{this} must be approved by msg.sender to transfer {amount} of USDC",
        "params": {
          "amount": "USDC amount to pay"
        },
        "returns": {
          "_0": "PaymentAllocation info on how the payment was allocated"
        }
      },
      "renounceRole(bytes32,address)": {
        "details": "Revokes `role` from the calling account. Roles are often managed via {grantRole} and {revokeRole}: this function's purpose is to provide a mechanism for accounts to lose their privileges if they are compromised (such as when a trusted device is misplaced). If the calling account had been granted `role`, emits a {RoleRevoked} event. Requirements: - the caller must be `account`."
      },
      "revokeRole(bytes32,address)": {
        "details": "Revokes `role` from `account`. If `account` had been granted `role`, emits a {RoleRevoked} event. Requirements: - the caller must have ``role``'s admin role."
      },
      "submitCall(uint256,uint256)": {
        "params": {
          "callAmount": "Amount of capital to call back",
          "poolTokenId": "Pool token id to be called back."
        },
        "returns": {
          "callRequestedTokenId": " Token id of the call requested token.",
          "remainingTokenId": "Token id of the remaining token."
        }
      },
      "supportsInterface(bytes4)": {
        "details": "See {IERC165-supportsInterface}."
      },
      "unpause()": {
        "details": "Unpauses the contract See {Pausable-_unpause}. Requirements: - the caller must have the Pauser role"
      },
      "withdraw(uint256,uint256)": {
        "params": {
          "amount": "amount to withdraw (must be <= interest+principal available to withdraw)",
          "tokenId": "the NFT representing the position"
        },
        "returns": {
          "_0": "interest withdrawn",
          "_1": "principal withdrawn"
        }
      },
      "withdrawMultiple(uint256[],uint256[])": {
        "params": {
          "amounts": "amounts to withdraw from positions such that amounts[i] is withdrawn from position tokenIds[i]",
          "tokenIds": "NFT positions to withdraw. Caller must be an owner or approved on all tokens in the array"
        }
      }
    },
    "title": "CallableLoan",
    "version": 1
  },
  "userdoc": {
    "events": {
      "PaymentApplied(address,address,uint256,uint256,uint256,uint256)": {
        "notice": "Event emitted on payment"
      },
      "WithdrawalMade(address,uint256,uint256,uint256,uint256)": {
        "notice": "While owner is the label of the first argument, it is actually the sender of the transaction."
      }
    },
    "kind": "user",
    "methods": {
      "availableToWithdraw(uint256)": {
        "notice": "Query the max amount available to withdraw for tokenId's position"
      },
      "createdAt()": {
        "notice": "Time when the pool was initialized. Zero if uninitialized"
      },
      "creditLine()": {
        "notice": "Pool's credit line, responsible for managing the loan's accounting variables"
      },
      "deposit(uint256,uint256)": {
        "notice": "Supply capital to the loan."
      },
      "depositWithPermit(uint256,uint256,uint256,uint8,bytes32,bytes32)": {
        "notice": "Supply capital to the loan."
      },
      "drawdown(uint256)": {
        "notice": "Drawdown the loan. The credit line's balance should increase by the amount drawn down.   Junior capital must be locked before this function can be called. If senior capital isn't locked   then this function will lock it for you (convenience to avoid calling lockPool() separately).   This function should revert if the amount requested exceeds the the current slice's currentLimit   This function should revert if the caller is not the borrower."
      },
      "estimateOwedInterestAt(uint256)": {
        "notice": "Returns a naive estimate of the interest owed at the timestamp.         Omits any late fees, and assumes no future payments."
      },
      "estimateOwedInterestAt(uint256,uint256)": {
        "notice": "Returns a naive estimate of the interest owed at the timestamp.         Omits any late fees, and assumes no future payments."
      },
      "getAmountsOwed(uint256)": {
        "notice": "Compute interest and principal owed on the current balance at a future timestamp"
      },
      "getLoanType()": {
        "notice": "getLoanType was added to support the new callable loan type.         It is not supported in older versions of ILoan (e.g. legacy TranchedPools)"
      },
      "getVersion()": {
        "notice": "Returns the version triplet `[major, minor, patch]`"
      },
      "initialize(address,address,uint256,uint256,uint256,address,uint256,uint256,uint256[])": {
        "notice": "Initialize the pool. Can only be called once, and should be called in the same transaction as   contract creation to avoid initialization front-running"
      },
      "interestAccrued()": {
        "notice": "If a checkpoint has not occurred, late fees may be overestimated beyond the next due time."
      },
      "interestAccruedAsOf()": {
        "notice": "We keep this to conform to the ICreditLine interface, but it's redundant information   now that we have `checkpointedAsOf`"
      },
      "interestAccruedAt(uint256)": {
        "notice": "If a checkpoint has not occurred, late fees may be overestimated beyond the next due time."
      },
      "interestBearingBalance()": {
        "notice": "TODO: Low priority tests - currently only used for tests and frontend"
      },
      "interestOwedAt(uint256)": {
        "notice": "If a checkpoint has not occurred, late fees may be overestimated beyond the next due time."
      },
      "loanPhase()": {
        "notice": "Returns the current phase of the loan.         See documentation on LoanPhase enum."
      },
      "maxLimit()": {
        "notice": "Unsupported in callable loans."
      },
      "pauseDrawdowns()": {
        "notice": "Pauses all drawdowns (but not deposits/withdraws)"
      },
      "pay(uint256)": {
        "notice": "Pay down interest + principal. Excess payments are refunded to the caller"
      },
      "pay(uint256,uint256)": {
        "notice": "Unsupported in callable loans."
      },
      "principalOwedAt(uint256)": {
        "notice": "Principal owed up to `timestamp`"
      },
      "setAllowedUIDTypes(uint256[])": {
        "notice": "Set accepted UID types for the loan. Requires that users have not already begun to deposit."
      },
      "setFundableAt(uint256)": {
        "notice": "Update `fundableAt` to a new timestamp. Only the borrower can call this."
      },
      "setLimit(uint256)": {
        "notice": "Unsupported ICreditLine method kept for ICreditLine conformance"
      },
      "setMaxLimit(uint256)": {
        "notice": "Unsupported in callable loans."
      },
      "submitCall(uint256,uint256)": {
        "notice": "Submit a call request for the given amount of capital.         The borrower is obligated to pay the call request back at the end of the         corresponding call request period."
      },
      "termStartTime()": {
        "notice": "Time of first drawdown"
      },
      "totalInterestAccrued()": {
        "notice": "If a checkpoint has not occurred, late fees may be overestimated beyond the next due time."
      },
      "totalInterestAccruedAt(uint256)": {
        "notice": "If a checkpoint has not occurred, late fees may be overestimated beyond the next due time."
      },
      "totalInterestOwed()": {
        "notice": "If a checkpoint has not occurred, late fees may be overestimated beyond the next due time."
      },
      "totalInterestOwedAt(uint256)": {
        "notice": "If a checkpoint has not occurred, late fees may be overestimated beyond the next due time."
      },
      "totalInterestPaid()": {
        "notice": "Cumulative interest paid back up to now"
      },
      "totalPrincipalOwed()": {
        "notice": "Cumulative principal owed at current timestamp"
      },
      "totalPrincipalOwedAt(uint256)": {
        "notice": "Cumulative principal owed at timestamp"
      },
      "totalPrincipalPaid()": {
        "notice": "Returns the total amount of principal thats been paid"
      },
      "unpauseDrawdowns()": {
        "notice": "Unpause drawdowns"
      },
      "withdraw(uint256,uint256)": {
        "notice": "Withdraw an already deposited amount if the funds are available. Caller must be the owner or   approved by the owner on tokenId. Amount withdrawn is sent to the caller."
      },
      "withdrawMax(uint256)": {
        "notice": "Similar to withdraw but withdraw the max interest and principal available for `tokenId`"
      },
      "withdrawMultiple(uint256[],uint256[])": {
        "notice": "Withdraw from multiple tokens"
      }
    },
    "notice": "A loan that allows the lenders to call back capital from the borrower.",
    "version": 1
  },
  "storageLayout": {
    "storage": [
      {
        "astId": 663,
        "contract": "contracts/protocol/core/callable/CallableLoan.sol:CallableLoan",
        "label": "_initialized",
        "offset": 0,
        "slot": "0",
        "type": "t_bool"
      },
      {
        "astId": 666,
        "contract": "contracts/protocol/core/callable/CallableLoan.sol:CallableLoan",
        "label": "_initializing",
        "offset": 1,
        "slot": "0",
        "type": "t_bool"
      },
      {
        "astId": 3057,
        "contract": "contracts/protocol/core/callable/CallableLoan.sol:CallableLoan",
        "label": "__gap",
        "offset": 0,
        "slot": "1",
        "type": "t_array(t_uint256)50_storage"
      },
      {
        "astId": 3673,
        "contract": "contracts/protocol/core/callable/CallableLoan.sol:CallableLoan",
        "label": "__gap",
        "offset": 0,
        "slot": "51",
        "type": "t_array(t_uint256)50_storage"
      },
      {
        "astId": 258,
        "contract": "contracts/protocol/core/callable/CallableLoan.sol:CallableLoan",
        "label": "_roles",
        "offset": 0,
        "slot": "101",
        "type": "t_mapping(t_bytes32,t_struct(RoleData)253_storage)"
      },
      {
        "astId": 543,
        "contract": "contracts/protocol/core/callable/CallableLoan.sol:CallableLoan",
        "label": "__gap",
        "offset": 0,
        "slot": "102",
        "type": "t_array(t_uint256)49_storage"
      },
      {
        "astId": 724,
        "contract": "contracts/protocol/core/callable/CallableLoan.sol:CallableLoan",
        "label": "_paused",
        "offset": 0,
        "slot": "151",
        "type": "t_bool"
      },
      {
        "astId": 815,
        "contract": "contracts/protocol/core/callable/CallableLoan.sol:CallableLoan",
        "label": "__gap",
        "offset": 0,
        "slot": "152",
        "type": "t_array(t_uint256)49_storage"
      },
      {
        "astId": 830,
        "contract": "contracts/protocol/core/callable/CallableLoan.sol:CallableLoan",
        "label": "_status",
        "offset": 0,
        "slot": "201",
        "type": "t_uint256"
      },
      {
        "astId": 873,
        "contract": "contracts/protocol/core/callable/CallableLoan.sol:CallableLoan",
        "label": "__gap",
        "offset": 0,
        "slot": "202",
        "type": "t_array(t_uint256)49_storage"
      },
      {
        "astId": 11785,
        "contract": "contracts/protocol/core/callable/CallableLoan.sol:CallableLoan",
        "label": "__gap1",
        "offset": 0,
        "slot": "251",
        "type": "t_array(t_uint256)50_storage"
      },
      {
        "astId": 11789,
        "contract": "contracts/protocol/core/callable/CallableLoan.sol:CallableLoan",
        "label": "__gap2",
        "offset": 0,
        "slot": "301",
        "type": "t_array(t_uint256)50_storage"
      },
      {
        "astId": 11793,
        "contract": "contracts/protocol/core/callable/CallableLoan.sol:CallableLoan",
        "label": "__gap3",
        "offset": 0,
        "slot": "351",
        "type": "t_array(t_uint256)50_storage"
      },
      {
        "astId": 11797,
        "contract": "contracts/protocol/core/callable/CallableLoan.sol:CallableLoan",
        "label": "__gap4",
        "offset": 0,
        "slot": "401",
        "type": "t_array(t_uint256)50_storage"
      },
      {
        "astId": 12182,
        "contract": "contracts/protocol/core/callable/CallableLoan.sol:CallableLoan",
        "label": "_staleCreditLine",
        "offset": 0,
        "slot": "451",
        "type": "t_struct(StaleCallableCreditLine)17032_storage"
      },
      {
        "astId": 12184,
        "contract": "contracts/protocol/core/callable/CallableLoan.sol:CallableLoan",
        "label": "drawdownsPaused",
        "offset": 0,
        "slot": "514",
        "type": "t_bool"
      },
      {
        "astId": 12187,
        "contract": "contracts/protocol/core/callable/CallableLoan.sol:CallableLoan",
        "label": "allowedUIDTypes",
        "offset": 0,
        "slot": "515",
        "type": "t_array(t_uint256)dyn_storage"
      },
      {
        "astId": 12190,
        "contract": "contracts/protocol/core/callable/CallableLoan.sol:CallableLoan",
        "label": "config",
        "offset": 0,
        "slot": "516",
        "type": "t_contract(IGoldfinchConfig)8850"
      },
      {
        "astId": 12193,
        "contract": "contracts/protocol/core/callable/CallableLoan.sol:CallableLoan",
        "label": "createdAt",
        "offset": 0,
        "slot": "517",
        "type": "t_uint256"
      },
      {
        "astId": 12196,
        "contract": "contracts/protocol/core/callable/CallableLoan.sol:CallableLoan",
        "label": "borrower",
        "offset": 0,
        "slot": "518",
        "type": "t_address"
      }
    ],
    "types": {
      "t_address": {
        "encoding": "inplace",
        "label": "address",
        "numberOfBytes": "20"
      },
      "t_array(t_struct(Tranche)17726_storage)dyn_storage": {
        "base": "t_struct(Tranche)17726_storage",
        "encoding": "dynamic_array",
        "label": "struct Tranche[]",
        "numberOfBytes": "32"
      },
      "t_array(t_uint256)20_storage": {
        "base": "t_uint256",
        "encoding": "inplace",
        "label": "uint256[20]",
        "numberOfBytes": "640"
      },
      "t_array(t_uint256)28_storage": {
        "base": "t_uint256",
        "encoding": "inplace",
        "label": "uint256[28]",
        "numberOfBytes": "896"
      },
      "t_array(t_uint256)31_storage": {
        "base": "t_uint256",
        "encoding": "inplace",
        "label": "uint256[31]",
        "numberOfBytes": "992"
      },
      "t_array(t_uint256)49_storage": {
        "base": "t_uint256",
        "encoding": "inplace",
        "label": "uint256[49]",
        "numberOfBytes": "1568"
      },
      "t_array(t_uint256)50_storage": {
        "base": "t_uint256",
        "encoding": "inplace",
        "label": "uint256[50]",
        "numberOfBytes": "1600"
      },
      "t_array(t_uint256)dyn_storage": {
        "base": "t_uint256",
        "encoding": "dynamic_array",
        "label": "uint256[]",
        "numberOfBytes": "32"
      },
      "t_bool": {
        "encoding": "inplace",
        "label": "bool",
        "numberOfBytes": "1"
      },
      "t_bytes32": {
        "encoding": "inplace",
        "label": "bytes32",
        "numberOfBytes": "32"
      },
      "t_contract(IGoldfinchConfig)8850": {
        "encoding": "inplace",
        "label": "contract IGoldfinchConfig",
        "numberOfBytes": "20"
      },
      "t_contract(ISchedule)10549": {
        "encoding": "inplace",
        "label": "contract ISchedule",
        "numberOfBytes": "20"
      },
      "t_mapping(t_address,t_bool)": {
        "encoding": "mapping",
        "key": "t_address",
        "label": "mapping(address => bool)",
        "numberOfBytes": "32",
        "value": "t_bool"
      },
      "t_mapping(t_bytes32,t_struct(RoleData)253_storage)": {
        "encoding": "mapping",
        "key": "t_bytes32",
        "label": "mapping(bytes32 => struct AccessControlUpgradeable.RoleData)",
        "numberOfBytes": "32",
        "value": "t_struct(RoleData)253_storage"
      },
      "t_struct(CallableCreditLine)14952_storage": {
        "encoding": "inplace",
        "label": "struct CallableCreditLine",
        "members": [
          {
            "astId": 14923,
            "contract": "contracts/protocol/core/callable/CallableLoan.sol:CallableLoan",
            "label": "_config",
            "offset": 0,
            "slot": "0",
            "type": "t_contract(IGoldfinchConfig)8850"
          },
          {
            "astId": 14925,
            "contract": "contracts/protocol/core/callable/CallableLoan.sol:CallableLoan",
            "label": "_fundableAt",
            "offset": 0,
            "slot": "1",
            "type": "t_uint256"
          },
          {
            "astId": 14927,
            "contract": "contracts/protocol/core/callable/CallableLoan.sol:CallableLoan",
            "label": "_limit",
            "offset": 0,
            "slot": "2",
            "type": "t_uint256"
          },
          {
            "astId": 14929,
            "contract": "contracts/protocol/core/callable/CallableLoan.sol:CallableLoan",
            "label": "_interestApr",
            "offset": 0,
            "slot": "3",
            "type": "t_uint256"
          },
          {
            "astId": 14931,
            "contract": "contracts/protocol/core/callable/CallableLoan.sol:CallableLoan",
            "label": "_lateAdditionalApr",
            "offset": 0,
            "slot": "4",
            "type": "t_uint256"
          },
          {
            "astId": 14933,
            "contract": "contracts/protocol/core/callable/CallableLoan.sol:CallableLoan",
            "label": "_numLockupPeriods",
            "offset": 0,
            "slot": "5",
            "type": "t_uint256"
          },
          {
            "astId": 14935,
            "contract": "contracts/protocol/core/callable/CallableLoan.sol:CallableLoan",
            "label": "_checkpointedAsOf",
            "offset": 0,
            "slot": "6",
            "type": "t_uint256"
          },
          {
            "astId": 14937,
            "contract": "contracts/protocol/core/callable/CallableLoan.sol:CallableLoan",
            "label": "_lastFullPaymentTime",
            "offset": 0,
            "slot": "7",
            "type": "t_uint256"
          },
          {
            "astId": 14939,
            "contract": "contracts/protocol/core/callable/CallableLoan.sol:CallableLoan",
            "label": "_totalInterestOwedAtLastCheckpoint",
            "offset": 0,
            "slot": "8",
            "type": "t_uint256"
          },
          {
            "astId": 14941,
            "contract": "contracts/protocol/core/callable/CallableLoan.sol:CallableLoan",
            "label": "_totalInterestAccruedAtLastCheckpoint",
            "offset": 0,
            "slot": "9",
            "type": "t_uint256"
          },
          {
            "astId": 14944,
            "contract": "contracts/protocol/core/callable/CallableLoan.sol:CallableLoan",
            "label": "_waterfall",
            "offset": 0,
            "slot": "10",
            "type": "t_struct(Waterfall)18336_storage"
          },
          {
            "astId": 14947,
            "contract": "contracts/protocol/core/callable/CallableLoan.sol:CallableLoan",
            "label": "_paymentSchedule",
            "offset": 0,
            "slot": "42",
            "type": "t_struct(PaymentSchedule)23090_storage"
          },
          {
            "astId": 14951,
            "contract": "contracts/protocol/core/callable/CallableLoan.sol:CallableLoan",
            "label": "__padding",
            "offset": 0,
            "slot": "43",
            "type": "t_array(t_uint256)20_storage"
          }
        ],
        "numberOfBytes": "2016"
      },
      "t_struct(PaymentSchedule)23090_storage": {
        "encoding": "inplace",
        "label": "struct PaymentSchedule",
        "members": [
          {
            "astId": 23087,
            "contract": "contracts/protocol/core/callable/CallableLoan.sol:CallableLoan",
            "label": "schedule",
            "offset": 0,
            "slot": "0",
            "type": "t_contract(ISchedule)10549"
          },
          {
            "astId": 23089,
            "contract": "contracts/protocol/core/callable/CallableLoan.sol:CallableLoan",
            "label": "startTime",
            "offset": 20,
            "slot": "0",
            "type": "t_uint64"
          }
        ],
        "numberOfBytes": "32"
      },
      "t_struct(RoleData)253_storage": {
        "encoding": "inplace",
        "label": "struct AccessControlUpgradeable.RoleData",
        "members": [
          {
            "astId": 250,
            "contract": "contracts/protocol/core/callable/CallableLoan.sol:CallableLoan",
            "label": "members",
            "offset": 0,
            "slot": "0",
            "type": "t_mapping(t_address,t_bool)"
          },
          {
            "astId": 252,
            "contract": "contracts/protocol/core/callable/CallableLoan.sol:CallableLoan",
            "label": "adminRole",
            "offset": 0,
            "slot": "1",
            "type": "t_bytes32"
          }
        ],
        "numberOfBytes": "64"
      },
      "t_struct(StaleCallableCreditLine)17032_storage": {
        "encoding": "inplace",
        "label": "struct StaleCallableCreditLine",
        "members": [
          {
            "astId": 17031,
            "contract": "contracts/protocol/core/callable/CallableLoan.sol:CallableLoan",
            "label": "_cl",
            "offset": 0,
            "slot": "0",
            "type": "t_struct(CallableCreditLine)14952_storage"
          }
        ],
        "numberOfBytes": "2016"
      },
      "t_struct(Tranche)17726_storage": {
        "encoding": "inplace",
        "label": "struct Tranche",
        "members": [
          {
            "astId": 17715,
            "contract": "contracts/protocol/core/callable/CallableLoan.sol:CallableLoan",
            "label": "_principalDeposited",
            "offset": 0,
            "slot": "0",
            "type": "t_uint256"
          },
          {
            "astId": 17717,
            "contract": "contracts/protocol/core/callable/CallableLoan.sol:CallableLoan",
            "label": "_principalPaid",
            "offset": 0,
            "slot": "1",
            "type": "t_uint256"
          },
          {
            "astId": 17719,
            "contract": "contracts/protocol/core/callable/CallableLoan.sol:CallableLoan",
            "label": "_principalReserved",
            "offset": 0,
            "slot": "2",
            "type": "t_uint256"
          },
          {
            "astId": 17721,
            "contract": "contracts/protocol/core/callable/CallableLoan.sol:CallableLoan",
            "label": "_interestPaid",
            "offset": 0,
            "slot": "3",
            "type": "t_uint256"
          },
          {
            "astId": 17725,
            "contract": "contracts/protocol/core/callable/CallableLoan.sol:CallableLoan",
            "label": "__padding",
            "offset": 0,
            "slot": "4",
            "type": "t_array(t_uint256)28_storage"
          }
        ],
        "numberOfBytes": "1024"
      },
      "t_struct(Waterfall)18336_storage": {
        "encoding": "inplace",
        "label": "struct Waterfall",
        "members": [
          {
            "astId": 18331,
            "contract": "contracts/protocol/core/callable/CallableLoan.sol:CallableLoan",
            "label": "_tranches",
            "offset": 0,
            "slot": "0",
            "type": "t_array(t_struct(Tranche)17726_storage)dyn_storage"
          },
          {
            "astId": 18335,
            "contract": "contracts/protocol/core/callable/CallableLoan.sol:CallableLoan",
            "label": "__padding",
            "offset": 0,
            "slot": "1",
            "type": "t_array(t_uint256)31_storage"
          }
        ],
        "numberOfBytes": "1024"
      },
      "t_uint256": {
        "encoding": "inplace",
        "label": "uint256",
        "numberOfBytes": "32"
      },
      "t_uint64": {
        "encoding": "inplace",
        "label": "uint64",
        "numberOfBytes": "8"
      }
    }
  }
}