{
  "address": "0x63F26a0878F047363436A79a439b7f5cC3318925",
  "abi": [
    {
      "inputs": [
        {
          "internalType": "contract Context",
          "name": "_context",
          "type": "address"
        }
      ],
      "stateMutability": "nonpayable",
      "type": "constructor"
    },
    {
      "inputs": [],
      "name": "IndexGreaterThanTokenSupply",
      "type": "error"
    },
    {
      "inputs": [
        {
          "internalType": "address",
          "name": "assetAddress",
          "type": "address"
        }
      ],
      "name": "InvalidAsset",
      "type": "error"
    },
    {
      "inputs": [
        {
          "internalType": "enum CapitalAssetType",
          "name": "",
          "type": "uint8"
        }
      ],
      "name": "InvalidAssetType",
      "type": "error"
    },
    {
      "inputs": [
        {
          "internalType": "address",
          "name": "assetAddress",
          "type": "address"
        },
        {
          "internalType": "uint256",
          "name": "assetTokenId",
          "type": "uint256"
        }
      ],
      "name": "InvalidAssetWithId",
      "type": "error"
    },
    {
      "inputs": [
        {
          "internalType": "uint256",
          "name": "epoch",
          "type": "uint256"
        }
      ],
      "name": "InvalidDepositEpoch",
      "type": "error"
    },
    {
      "inputs": [],
      "name": "InvalidOwnerIndex",
      "type": "error"
    },
    {
      "inputs": [
        {
          "internalType": "uint256",
          "name": "requested",
          "type": "uint256"
        },
        {
          "internalType": "uint256",
          "name": "max",
          "type": "uint256"
        }
      ],
      "name": "InvalidWithdrawAmount",
      "type": "error"
    },
    {
      "inputs": [
        {
          "internalType": "address",
          "name": "owner",
          "type": "address"
        }
      ],
      "name": "NotGoListed",
      "type": "error"
    },
    {
      "inputs": [
        {
          "internalType": "address",
          "name": "resource",
          "type": "address"
        },
        {
          "internalType": "address",
          "name": "accessor",
          "type": "address"
        }
      ],
      "name": "RequiresOperator",
      "type": "error"
    },
    {
      "inputs": [],
      "name": "ZeroAddress",
      "type": "error"
    },
    {
      "inputs": [],
      "name": "ZeroDeposit",
      "type": "error"
    },
    {
      "anonymous": false,
      "inputs": [
        {
          "indexed": true,
          "internalType": "address",
          "name": "owner",
          "type": "address"
        },
        {
          "indexed": true,
          "internalType": "address",
          "name": "assetAddress",
          "type": "address"
        },
        {
          "indexed": false,
          "internalType": "uint256",
          "name": "positionId",
          "type": "uint256"
        },
        {
          "indexed": false,
          "internalType": "uint256",
          "name": "assetTokenId",
          "type": "uint256"
        },
        {
          "indexed": false,
          "internalType": "uint256",
          "name": "usdcEquivalent",
          "type": "uint256"
        }
      ],
      "name": "CapitalERC721Deposit",
      "type": "event"
    },
    {
      "anonymous": false,
      "inputs": [
        {
          "indexed": true,
          "internalType": "uint256",
          "name": "positionId",
          "type": "uint256"
        },
        {
          "indexed": false,
          "internalType": "address",
          "name": "assetAddress",
          "type": "address"
        }
      ],
      "name": "CapitalERC721Harvest",
      "type": "event"
    },
    {
      "anonymous": false,
      "inputs": [
        {
          "indexed": true,
          "internalType": "address",
          "name": "owner",
          "type": "address"
        },
        {
          "indexed": false,
          "internalType": "uint256",
          "name": "positionId",
          "type": "uint256"
        },
        {
          "indexed": false,
          "internalType": "address",
          "name": "assetAddress",
          "type": "address"
        },
        {
          "indexed": false,
          "internalType": "uint256",
          "name": "depositTimestamp",
          "type": "uint256"
        }
      ],
      "name": "CapitalERC721Withdrawal",
      "type": "event"
    },
    {
      "anonymous": false,
      "inputs": [
        {
          "indexed": true,
          "internalType": "uint256",
          "name": "positionId",
          "type": "uint256"
        },
        {
          "indexed": false,
          "internalType": "address",
          "name": "assetAddress",
          "type": "address"
        },
        {
          "indexed": false,
          "internalType": "uint256",
          "name": "usdcEquivalent",
          "type": "uint256"
        }
      ],
      "name": "CapitalPositionAdjustment",
      "type": "event"
    },
    {
      "inputs": [
        {
          "internalType": "uint256",
          "name": "positionId",
          "type": "uint256"
        }
      ],
      "name": "assetAddressOf",
      "outputs": [
        {
          "internalType": "address",
          "name": "",
          "type": "address"
        }
      ],
      "stateMutability": "view",
      "type": "function"
    },
    {
      "inputs": [
        {
          "internalType": "address",
          "name": "addr",
          "type": "address"
        }
      ],
      "name": "balanceOf",
      "outputs": [
        {
          "internalType": "uint256",
          "name": "",
          "type": "uint256"
        }
      ],
      "stateMutability": "view",
      "type": "function"
    },
    {
      "inputs": [
        {
          "internalType": "address",
          "name": "owner",
          "type": "address"
        },
        {
          "internalType": "address",
          "name": "assetAddress",
          "type": "address"
        },
        {
          "internalType": "uint256",
          "name": "assetTokenId",
          "type": "uint256"
        }
      ],
      "name": "depositERC721",
      "outputs": [
        {
          "internalType": "uint256",
          "name": "",
          "type": "uint256"
        }
      ],
      "stateMutability": "nonpayable",
      "type": "function"
    },
    {
      "inputs": [
        {
          "internalType": "uint256",
          "name": "positionId",
          "type": "uint256"
        }
      ],
      "name": "erc721IdOf",
      "outputs": [
        {
          "internalType": "uint256",
          "name": "",
          "type": "uint256"
        }
      ],
      "stateMutability": "view",
      "type": "function"
    },
    {
      "inputs": [
        {
          "internalType": "uint256",
          "name": "positionId",
          "type": "uint256"
        }
      ],
      "name": "harvest",
      "outputs": [],
      "stateMutability": "nonpayable",
      "type": "function"
    },
    {
      "inputs": [
        {
          "internalType": "address",
          "name": "",
          "type": "address"
        },
        {
          "internalType": "address",
          "name": "",
          "type": "address"
        },
        {
          "internalType": "uint256",
          "name": "",
          "type": "uint256"
        },
        {
          "internalType": "bytes",
          "name": "",
          "type": "bytes"
        }
      ],
      "name": "onERC721Received",
      "outputs": [
        {
          "internalType": "bytes4",
          "name": "",
          "type": "bytes4"
        }
      ],
      "stateMutability": "pure",
      "type": "function"
    },
    {
      "inputs": [
        {
          "internalType": "uint256",
          "name": "positionId",
          "type": "uint256"
        }
      ],
      "name": "ownerOf",
      "outputs": [
        {
          "internalType": "address",
          "name": "",
          "type": "address"
        }
      ],
      "stateMutability": "view",
      "type": "function"
    },
    {
      "inputs": [
        {
          "internalType": "uint256",
          "name": "",
          "type": "uint256"
        }
      ],
      "name": "positions",
      "outputs": [
        {
          "internalType": "address",
          "name": "owner",
          "type": "address"
        },
        {
          "internalType": "uint256",
          "name": "ownedIndex",
          "type": "uint256"
        },
        {
          "internalType": "address",
          "name": "assetAddress",
          "type": "address"
        },
        {
          "internalType": "uint256",
          "name": "usdcEquivalent",
          "type": "uint256"
        },
        {
          "internalType": "uint256",
          "name": "depositTimestamp",
          "type": "uint256"
        }
      ],
      "stateMutability": "view",
      "type": "function"
    },
    {
      "inputs": [
        {
          "internalType": "uint256",
          "name": "index",
          "type": "uint256"
        }
      ],
      "name": "tokenByIndex",
      "outputs": [
        {
          "internalType": "uint256",
          "name": "",
          "type": "uint256"
        }
      ],
      "stateMutability": "view",
      "type": "function"
    },
    {
      "inputs": [
        {
          "internalType": "address",
          "name": "owner",
          "type": "address"
        },
        {
          "internalType": "uint256",
          "name": "index",
          "type": "uint256"
        }
      ],
      "name": "tokenOfOwnerByIndex",
      "outputs": [
        {
          "internalType": "uint256",
          "name": "",
          "type": "uint256"
        }
      ],
      "stateMutability": "view",
      "type": "function"
    },
    {
      "inputs": [],
      "name": "totalSupply",
      "outputs": [
        {
          "internalType": "uint256",
          "name": "",
          "type": "uint256"
        }
      ],
      "stateMutability": "view",
      "type": "function"
    },
    {
      "inputs": [
        {
          "internalType": "address",
          "name": "addr",
          "type": "address"
        }
      ],
      "name": "totalsOf",
      "outputs": [
        {
          "internalType": "uint256",
          "name": "eligibleAmount",
          "type": "uint256"
        },
        {
          "internalType": "uint256",
          "name": "totalAmount",
          "type": "uint256"
        }
      ],
      "stateMutability": "view",
      "type": "function"
    },
    {
      "inputs": [
        {
          "internalType": "uint256",
          "name": "positionId",
          "type": "uint256"
        }
      ],
      "name": "withdraw",
      "outputs": [],
      "stateMutability": "nonpayable",
      "type": "function"
    }
  ],
  "transactionHash": "0x49122b56f76e4c3f010a40b9296da20c98cc52d656f4cf0eb09605296fd789d8",
  "args": [
    "0xd16BC944Bf20c86c4ED47Ce1a330a18538674C83"
  ],
  "numDeployments": 2,
  "solcInputHash": "2e8de7f4758d3e6360fdf20b77a0f27f",
  "bytecode": "0x60a06040523480156200001157600080fd5b506040516200282d3803806200282d833981016040819052620000349162000046565b6001600160a01b031660805262000078565b6000602082840312156200005957600080fd5b81516001600160a01b03811681146200007157600080fd5b9392505050565b60805161275a620000d36000396000818161035f015281816105de01528181610639015281816106880152818161070e015281816108be0152818161093601528181610eb501528181610f58015261100d015261275a6000f3fe608060405234801561001057600080fd5b50600436106100bf5760003560e01c80634f6ccce71161007c5780634f6ccce71461016e5780636352211e1461018157806370a08231146101b757806399fbab88146101e0578063c4664c6314610262578063ddc632621461028e578063e305f306146102a157600080fd5b8063150b7a02146100c457806318160ddd146100f95780632e1a7d4d1461010b5780632f745c5914610120578063331ded1a14610133578063427d743214610146575b600080fd5b6100e36100d236600461203b565b630a85bd0160e11b95945050505050565b6040516100f091906120da565b60405180910390f35b6003545b6040519081526020016100f0565b61011e6101193660046120ef565b6102c1565b005b6100fd61012e366004612108565b610546565b6100fd610141366004612134565b6105bc565b610159610154366004612175565b6107e8565b604080519283526020830191909152016100f0565b6100fd61017c3660046120ef565b610814565b6101aa61018f3660046120ef565b6000908152602081905260409020546001600160a01b031690565b6040516100f09190612192565b6100fd6101c5366004612175565b6001600160a01b031660009081526001602052604090205490565b6102296101ee3660046120ef565b600060208190529081526040902080546001820154600283015460038401546004909401546001600160a01b03938416949293909116919085565b604080516001600160a01b039687168152602081019590955292909416918301919091526060820152608081019190915260a0016100f0565b6101aa6102703660046120ef565b6000908152602081905260409020600201546001600160a01b031690565b61011e61029c3660046120ef565b610849565b6100fd6102af3660046120ef565b60009081526004602052604090205490565b6000805160206127058339815191526102da81336109a8565b600082815260208181526040808320815160a08101835281546001600160a01b03808216835260018401805484880152600285018054928316968501968752600386018054606087015260048701805460808801528c8b52988a90526001600160a01b03199485169096559088905591169055908490559183905551909190610384907f000000000000000000000000000000000000000000000000000000000000000090610a0b565b6060830151608084015184516001600160a01b031660009081526002602052604090209293506103b5929190610a44565b81516001600160a01b031660009081526001602090815260408220908401519091906103e2908390610acd565b915050801561042a57836020015160008084876020015181548110610409576104096121a6565b90600052602060002001548152602001908152602001600020600101819055505b600183600181111561043e5761043e6121bc565b0361051a57600086815260046020819052604080832080549390558681015187519151632142170760e11b81526001600160a01b03909116926342842e0e9261048b9230928791016121d2565b600060405180830381600087803b1580156104a557600080fd5b505af11580156104b9573d6000803e3d6000fd5b5050865160408089015160808a015182518d81526001600160a01b0392831660208201529283015290911692507f50065562d2b38b7cc51ee877211c37a54ff469d129d1a67bfeb97e0c2994a316915060600160405180910390a25061053e565b826040516308a8fee960e31b815260040161053591906121f6565b60405180910390fd5b505050505050565b6001600160a01b038216600090815260016020526040812054821061057e57604051638f832b9b60e01b815260040160405180910390fd5b6001600160a01b03831660009081526001602052604090208054839081106105a8576105a86121a6565b906000526020600020015490505b92915050565b60006000805160206127058339815191526105d781336109a8565b60016106037f000000000000000000000000000000000000000000000000000000000000000086610a0b565b6001811115610614576106146121bc565b1461063457836040516337bce3c560e11b81526004016105359190612192565b61065f7f00000000000000000000000000000000000000000000000000000000000000008585610b56565b610680578383604051634eb9917160e11b815260040161053592919061221e565b8360006106ae7f00000000000000000000000000000000000000000000000000000000000000008387610b9c565b905060006106bd888884610beb565b604080516020808201835289825260008481526004825283812092519092556001600160a01b038c16825260029052209091506106fa9083610cb0565b826001600160a01b03166342842e0e61073b7f00000000000000000000000000000000000000000000000000000000000000006001600160a01b0316610cd6565b30896040518463ffffffff1660e01b815260040161075b939291906121d2565b600060405180830381600087803b15801561077557600080fd5b505af1158015610789573d6000803e3d6000fd5b505060408051848152602081018a90529081018590526001600160a01b03808b1693508b1691507fb1c56a0ea823a5b59843a1c0223e87b70affc07e96fc346165322958cdef13949060600160405180910390a3979650505050505050565b6001600160a01b0381166000908152600260205260408120819061080b90610db4565b91509150915091565b600061081f60035490565b821061083e57604051633f7ee38f60e11b815260040160405180910390fd5b6105b682600161224d565b60008051602061270583398151915261086281336109a8565b600082815260208181526040808320815160a08101835281546001600160a01b0390811682526001830154948201949094526002820154909316918301829052600381015460608401526004015460808301529091906108e3907f000000000000000000000000000000000000000000000000000000000000000090610a0b565b905060018160018111156108f9576108f96121bc565b1461091957806040516308a8fee960e31b815260040161053591906121f6565b815160408084015160008781526004602052919091205461095d927f0000000000000000000000000000000000000000000000000000000000000000929091610e05565b837f54c43c33795a11f3152d46be48143a092092361e37f765f6f9da0251aabf1f9683604001516040516109919190612192565b60405180910390a26109a284610e59565b50505050565b6001600160a01b0381166109cf5760405163d92e233d60e01b815260040160405180910390fd5b6109d98282610fff565b610a075760405163889a56bb60e01b81523060048201526001600160a01b0382166024820152604401610535565b5050565b6000610a17838361110a565b15610a24575060016105b6565b610a2e838361113a565b15610a3b575060016105b6565b50600092915050565b6000610a4f8261114e565b9050610a5961115d565b811115610a7c57604051632029102760e21b815260048101829052602401610535565b610a858461116d565b82846000016000828254610a999190612260565b90915550610aa7905061115d565b8110156109a25782846001016000828254610ac29190612260565b909155505050505050565b81546000908190610ae090600190612260565b915050818114801590610b2957838281548110610aff57610aff6121a6565b9060005260206000200154848481548110610b1c57610b1c6121a6565b6000918252602090912001555b83805480610b3957610b39612273565b600190038181906000526020600020016000905590559250929050565b6000610b62848461110a565b15610b7857610b718483611199565b9050610b95565b610b82848461113a565b15610b9157610b71848361123a565b5060005b9392505050565b6000610ba8848461113a565b15610bb757610b718483611341565b610bc1848461110a565b15610bd057610b7184836113e2565b826040516337bce3c560e11b81526004016105359190612192565b6003805460009182610bfc83612289565b9091555050600380546040805160a0810182526001600160a01b0397881680825260009081526001602081815284832080548286019081529a8c16858701908152606086019a8b52426080870190815288865285845296852095518654908e166001600160a01b03199182161787559b51868501555160028601805491909d169b169a909a17909a559651948201949094559051600490910155838652845493840185559381529390932001819055919050565b610cb98261116d565b80826000016000828254610ccd919061224d565b90915550505050565b6000816001600160a01b031663f887ea406040518163ffffffff1660e01b8152600401602060405180830381865afa158015610d16573d6000803e3d6000fd5b505050506040513d601f19601f82011682018060405250810190610d3a91906122a2565b6001600160a01b0316630c0450126000805160206127058339815191526040518263ffffffff1660e01b8152600401610d7391906120da565b602060405180830381865afa158015610d90573d6000803e3d6000fd5b505050506040513d601f19601f820116820180604052508101906105b691906122a2565b6040805160608101825282548152600183015460208201526002830154918101829052600091829190610de561115d565b03610dfb57602081015190519094909350915050565b5193849350915050565b610e0f848361113a565b15610e2457610e1f8484836114e3565b6109a2565b610e2e848361110a565b15610e3e57610e1f8484836117cb565b816040516337bce3c560e11b81526004016105359190612192565b600081815260208181526040808320815160a08101835281546001600160a01b039081168252600183015494820194909452600282015490931691830182905260038101546060840152600401546080830152909190610eda907f000000000000000000000000000000000000000000000000000000000000000090610a0b565b90506001816001811115610ef057610ef06121bc565b14610f1057806040516308a8fee960e31b815260040161053591906121f6565b6060820151608083015183516001600160a01b03166000908152600260205260409020610f3e929091610a44565b6040808301516000858152600460205291822054610f7d917f000000000000000000000000000000000000000000000000000000000000000091610b9c565b600085815260208181526040808320600301849055608087015187516001600160a01b031684526002909252909120919250610fbb9190839061186e565b837f6a28020abc16896e42077f4597b339d5cdf310f437dee250bcfb161a8539b27a846040015183604051610ff192919061221e565b60405180910390a250505050565b6000816001600160a01b03167f00000000000000000000000000000000000000000000000000000000000000006001600160a01b031663f887ea406040518163ffffffff1660e01b8152600401602060405180830381865afa158015611069573d6000803e3d6000fd5b505050506040513d601f19601f8201168201806040525081019061108d91906122a2565b6001600160a01b0316630c045012856040518263ffffffff1660e01b81526004016110b891906120da565b602060405180830381865afa1580156110d5573d6000803e3d6000fd5b505050506040513d601f19601f820116820180604052508101906110f991906122a2565b6001600160a01b0316149392505050565b600061111e836001600160a01b03166118ec565b6001600160a01b0316826001600160a01b031614905092915050565b600061111e836001600160a01b031661199b565b60006105b662093a80836122bf565b60006111684261114e565b905090565b806002015461117a61115d565b116111825750565b8054600182015561119161115d565b600290910155565b6000806111ae846001600160a01b03166118ec565b6001600160a01b031663eb02c301846040518263ffffffff1660e01b81526004016111db91815260200190565b61018060405180830381865afa1580156111f9573d6000803e3d6000fd5b505050506040513d601f19601f8201168201806040525081019061121d91906123ab565b608001516001811115611232576112326121bc565b149392505050565b60008061124f846001600160a01b031661199b565b6001600160a01b0316638c7a63ae846040518263ffffffff1660e01b815260040161127c91815260200190565b60a060405180830381865afa158015611299573d6000803e3d6000fd5b505050506040513d601f19601f820116820180604052508101906112bd919061246c565b8051602082015160405163d972e8ad60e01b81526004810191909152919250906001600160a01b0382169063d972e8ad9060240160a060405180830381865afa15801561130e573d6000803e3d6000fd5b505050506040513d601f19601f8201168201806040525081019061133291906124c7565b60800151151595945050505050565b600080611356846001600160a01b031661199b565b6001600160a01b0316638c7a63ae846040518263ffffffff1660e01b815260040161138391815260200190565b60a060405180830381865afa1580156113a0573d6000803e3d6000fd5b505050506040513d601f19601f820116820180604052508101906113c4919061246c565b9050806060015181604001516113da9190612260565b949350505050565b6000806113f7846001600160a01b03166118ec565b6001600160a01b031663aa04295f846040518263ffffffff1660e01b815260040161142491815260200190565b602060405180830381865afa158015611441573d6000803e3d6000fd5b505050506040513d601f19601f820116820180604052508101906114659190612517565b90506113da8161147d866001600160a01b0316611a4a565b6001600160a01b031663872697296040518163ffffffff1660e01b8152600401602060405180830381865afa1580156114ba573d6000803e3d6000fd5b505050506040513d601f19601f820116820180604052508101906114de9190612517565b611af9565b60006114f7846001600160a01b031661199b565b6001600160a01b0316638c7a63ae836040518263ffffffff1660e01b815260040161152491815260200190565b60a060405180830381865afa158015611541573d6000803e3d6000fd5b505050506040513d601f19601f82011682018060405250810190611565919061246c565b805190915061157c6001600160a01b038616611b2f565b6001600160a01b0316631852f20085836001600160a01b031663c78bed866040518163ffffffff1660e01b8152600401600060405180830381865afa1580156115c9573d6000803e3d6000fd5b505050506040513d6000823e601f3d908101601f191682016040526115f19190810190612530565b6040518363ffffffff1660e01b815260040161160e9291906125d6565b602060405180830381865afa15801561162b573d6000803e3d6000fd5b505050506040513d601f19601f8201168201806040525081019061164f919061262c565b61166e57836040516373bb9c8960e01b81526004016105359190612192565b604051632a8a9f1360e21b81526004810184905260009081906001600160a01b0384169063aa2a7c4c9060240160408051808303816000875af11580156116b9573d6000803e3d6000fd5b505050506040513d601f19601f820116820180604052508101906116dd919061264e565b909250905060006116ee828461224d565b9050801561171d5761171d878261170d8b6001600160a01b0316611bde565b6001600160a01b03169190611c8d565b6000611731896001600160a01b0316611ce8565b6001600160a01b0316632e1a7d4d886040518263ffffffff1660e01b815260040161175e91815260200190565b6020604051808303816000875af115801561177d573d6000803e3d6000fd5b505050506040513d601f19601f820116820180604052508101906117a19190612517565b905080156117c0576117c0888261170d8c6001600160a01b0316611d97565b505050505050505050565b60006117df846001600160a01b03166118ec565b6001600160a01b0316631c4b774b836040518263ffffffff1660e01b815260040161180c91815260200190565b6020604051808303816000875af115801561182b573d6000803e3d6000fd5b505050506040513d601f19601f8201168201806040525081019061184f9190612517565b905080156109a2576109a2838261170d876001600160a01b0316611d97565b60006118798261114e565b905061188361115d565b8111156118a657604051632029102760e21b815260048101829052602401610535565b6118af8461116d565b6118b761115d565b8110156118d857828460010160008282546118d2919061224d565b90915550505b82846000016000828254610ac2919061224d565b6000816001600160a01b031663f887ea406040518163ffffffff1660e01b8152600401602060405180830381865afa15801561192c573d6000803e3d6000fd5b505050506040513d601f19601f8201168201806040525081019061195091906122a2565b6001600160a01b0316630c0450127f5a31296b3cecaf3aaa3146a140f6ddf6d21caa95e28243dc507d90d7e883be796040518263ffffffff1660e01b8152600401610d7391906120da565b6000816001600160a01b031663f887ea406040518163ffffffff1660e01b8152600401602060405180830381865afa1580156119db573d6000803e3d6000fd5b505050506040513d601f19601f820116820180604052508101906119ff91906122a2565b6001600160a01b0316630c0450127f7c9945d349966e663465dd2ad9f3ebe33d671877c22c40ca3a051e02e14e15ff6040518263ffffffff1660e01b8152600401610d7391906120da565b6000816001600160a01b031663f887ea406040518163ffffffff1660e01b8152600401602060405180830381865afa158015611a8a573d6000803e3d6000fd5b505050506040513d601f19601f82011682018060405250810190611aae91906122a2565b6001600160a01b0316630c0450127fd4a8913f0cbda73931759328604779fb81c2513f90d252b9c4a96a5dd8327d886040518263ffffffff1660e01b8152600401610d7391906120da565b6000670de0b6b3a7640000611b11620f4240826122bf565b611b1b9190612672565b611b258385612672565b610b9591906122bf565b6000816001600160a01b031663f887ea406040518163ffffffff1660e01b8152600401602060405180830381865afa158015611b6f573d6000803e3d6000fd5b505050506040513d601f19601f82011682018060405250810190611b9391906122a2565b6001600160a01b0316630c0450127fc61c93ad97e9ad12d54663c76606860c6c3a3f53a59b88cd4bc1e3f43edc17956040518263ffffffff1660e01b8152600401610d7391906120da565b6000816001600160a01b031663f887ea406040518163ffffffff1660e01b8152600401602060405180830381865afa158015611c1e573d6000803e3d6000fd5b505050506040513d601f19601f82011682018060405250810190611c4291906122a2565b6001600160a01b0316630c0450127fd6aca1be9729c13d677335161321649cccae6a591554772516700f986f942eaa6040518263ffffffff1660e01b8152600401610d7391906120da565b611ce38363a9059cbb60e01b8484604051602401611cac92919061221e565b60408051601f198184030181529190526020810180516001600160e01b03166001600160e01b031990931692909217909152611e46565b505050565b6000816001600160a01b031663f887ea406040518163ffffffff1660e01b8152600401602060405180830381865afa158015611d28573d6000803e3d6000fd5b505050506040513d601f19601f82011682018060405250810190611d4c91906122a2565b6001600160a01b0316630c0450127f1cd0c2e09edd1d00946872d4dfa90e139030cf08dd8b201be0c3e01ae1534c576040518263ffffffff1660e01b8152600401610d7391906120da565b6000816001600160a01b031663f887ea406040518163ffffffff1660e01b8152600401602060405180830381865afa158015611dd7573d6000803e3d6000fd5b505050506040513d601f19601f82011682018060405250810190611dfb91906122a2565b6001600160a01b0316630c0450127f6fdcaa094af96c56039c701c590da2284d9e0c364f2dd8ee7d43419f0eefd2936040518263ffffffff1660e01b8152600401610d7391906120da565b6000611e9b826040518060400160405280602081526020017f5361666545524332303a206c6f772d6c6576656c2063616c6c206661696c6564815250856001600160a01b0316611f189092919063ffffffff16565b805190915015611ce35780806020019051810190611eb9919061262c565b611ce35760405162461bcd60e51b815260206004820152602a60248201527f5361666545524332303a204552433230206f7065726174696f6e20646964206e6044820152691bdd081cdd58d8d9595960b21b6064820152608401610535565b60606113da848460008585843b611f715760405162461bcd60e51b815260206004820152601d60248201527f416464726573733a2063616c6c20746f206e6f6e2d636f6e74726163740000006044820152606401610535565b600080866001600160a01b03168587604051611f8d91906126b5565b60006040518083038185875af1925050503d8060008114611fca576040519150601f19603f3d011682016040523d82523d6000602084013e611fcf565b606091505b5091509150611fdf828286611fea565b979650505050505050565b60608315611ff9575081610b95565b8251156120095782518084602001fd5b8160405162461bcd60e51b815260040161053591906126d1565b6001600160a01b038116811461203857600080fd5b50565b60008060008060006080868803121561205357600080fd5b853561205e81612023565b9450602086013561206e81612023565b935060408601359250606086013567ffffffffffffffff8082111561209257600080fd5b818801915088601f8301126120a657600080fd5b8135818111156120b557600080fd5b8960208285010111156120c757600080fd5b9699959850939650602001949392505050565b6001600160e01b031991909116815260200190565b60006020828403121561210157600080fd5b5035919050565b6000806040838503121561211b57600080fd5b823561212681612023565b946020939093013593505050565b60008060006060848603121561214957600080fd5b833561215481612023565b9250602084013561216481612023565b929592945050506040919091013590565b60006020828403121561218757600080fd5b8135610b9581612023565b6001600160a01b0391909116815260200190565b634e487b7160e01b600052603260045260246000fd5b634e487b7160e01b600052602160045260246000fd5b6001600160a01b039384168152919092166020820152604081019190915260600190565b602081016002831061221857634e487b7160e01b600052602160045260246000fd5b91905290565b6001600160a01b03929092168252602082015260400190565b634e487b7160e01b600052601160045260246000fd5b808201808211156105b6576105b6612237565b818103818111156105b6576105b6612237565b634e487b7160e01b600052603160045260246000fd5b60006001820161229b5761229b612237565b5060010190565b6000602082840312156122b457600080fd5b8151610b9581612023565b6000826122dc57634e487b7160e01b600052601260045260246000fd5b500490565b634e487b7160e01b600052604160045260246000fd5b60405160e0810167ffffffffffffffff8111828210171561231a5761231a6122e1565b60405290565b60405160c0810167ffffffffffffffff8111828210171561231a5761231a6122e1565b60405160a0810167ffffffffffffffff8111828210171561231a5761231a6122e1565b604051601f8201601f1916810167ffffffffffffffff8111828210171561238f5761238f6122e1565b604052919050565b8051600281106123a657600080fd5b919050565b60008183036101808112156123bf57600080fd5b6123c76122f7565b8351815260c0601f19830112156123dd57600080fd5b6123e5612320565b91506020840151825260408401516020830152606084015160408301526080840151606083015260a0840151608083015260c084015160a083015281602082015260e0840151604082015261010084015160608201526124486101208501612397565b608082015261014084015160a08201526101609093015160c0840152509092915050565b600060a0828403121561247e57600080fd5b612486612343565b825161249181612023565b80825250602083015160208201526040830151604082015260608301516060820152608083015160808201528091505092915050565b600060a082840312156124d957600080fd5b6124e1612343565b82518152602083015160208201526040830151604082015260608301516060820152608083015160808201528091505092915050565b60006020828403121561252957600080fd5b5051919050565b6000602080838503121561254357600080fd5b825167ffffffffffffffff8082111561255b57600080fd5b818501915085601f83011261256f57600080fd5b815181811115612581576125816122e1565b8060051b9150612592848301612366565b81815291830184019184810190888411156125ac57600080fd5b938501935b838510156125ca578451825293850193908501906125b1565b98975050505050505050565b6001600160a01b038316815260406020808301829052835191830182905260009184820191906060850190845b8181101561261f57845183529383019391830191600101612603565b5090979650505050505050565b60006020828403121561263e57600080fd5b81518015158114610b9557600080fd5b6000806040838503121561266157600080fd5b505080516020909101519092909150565b600081600019048311821515161561268c5761268c612237565b500290565b60005b838110156126ac578181015183820152602001612694565b50506000910152565b600082516126c7818460208701612691565b9190910192915050565b60208152600082518060208401526126f0816040850160208701612691565b601f01601f1916919091016040019291505056fe9e45de9588e74df19c5f35dd4ddf9c698e7a3e36b4004fd44cb75621507d7092a2646970667358221220d2a4c44c47548c1c4223f7cf798bd55537edcd517adf81e6ee8f03e324d3bc7e64736f6c63430008100033",
  "devdoc": {
    "author": "Goldfinch",
    "kind": "dev",
    "methods": {
      "assetAddressOf(uint256)": {
        "params": {
          "positionId": "id of the position"
        },
        "returns": {
          "_0": "asset address of the position"
        }
      },
      "balanceOf(address)": {
        "params": {
          "addr": "address"
        },
        "returns": {
          "_0": "positions held by address"
        }
      },
      "depositERC721(address,address,uint256)": {
        "details": "reverts with InvalidAssetType if `assetAddress` is not an ERC721",
        "params": {
          "assetAddress": "address of the ERC20 address",
          "assetTokenId": "id of the ERC721 asset to add",
          "owner": "address that owns the position"
        },
        "returns": {
          "_0": "id of the newly created position"
        }
      },
      "erc721IdOf(uint256)": {
        "details": "reverts with InvalidAssetType if `assetAddress` is not an ERC721",
        "params": {
          "positionId": "id of the position"
        },
        "returns": {
          "_0": "id of the underlying ERC721 asset"
        }
      },
      "harvest(uint256)": {
        "params": {
          "positionId": "id of the position"
        }
      },
      "onERC721Received(address,address,uint256,bytes)": {
        "details": "Whenever an {IERC721} `tokenId` token is transferred to this contract via {IERC721-safeTransferFrom} by `operator` from `from`, this function is called. It must return its Solidity selector to confirm the token transfer. If any other value is returned or the interface is not implemented by the recipient, the transfer will be reverted. The selector can be obtained in Solidity with `IERC721.onERC721Received.selector`."
      },
      "ownerOf(uint256)": {
        "params": {
          "positionId": "id of the position"
        },
        "returns": {
          "_0": "owner of the position"
        }
      },
      "tokenByIndex(uint256)": {
        "details": "Returns a position ID at a given `index` of all the positions stored by the contract.use with {totalSupply} to enumerate all positions",
        "params": {
          "index": "index to get the position ID at"
        },
        "returns": {
          "_0": "position id"
        }
      },
      "tokenOfOwnerByIndex(address,uint256)": {
        "details": "use with {balanceOf} to enumerate all of `owner`'s positions",
        "params": {
          "index": "index of the owner's balance to get the position ID of",
          "owner": "owner of the positions"
        },
        "returns": {
          "_0": "position id"
        }
      },
      "totalSupply()": {
        "returns": {
          "_0": "number of positions in the ledger"
        }
      },
      "totalsOf(address)": {
        "details": "this is used by Membership to determine how much is eligible in  the current epoch vs the next epoch.",
        "params": {
          "owner": "address owning the positions"
        },
        "returns": {
          "eligibleAmount": "USDC value of positions eligible for rewards",
          "totalAmount": "total USDC value of positions"
        }
      },
      "withdraw(uint256)": {
        "params": {
          "positionId": "id of the position"
        }
      }
    },
    "title": "CapitalLedger",
    "version": 1
  },
  "userdoc": {
    "errors": {
      "IndexGreaterThanTokenSupply()": [
        {
          "notice": "Thrown when querying token supply with an index greater than the supply"
        }
      ],
      "InvalidAsset(address)": [
        {
          "notice": "Thrown when an asset has been requested that does not exist"
        }
      ],
      "InvalidAssetType(uint8)": [
        {
          "notice": "Thrown when called with an invalid asset type for the function. Valid types are defined under CapitalAssetType"
        }
      ],
      "InvalidAssetWithId(address,uint256)": [
        {
          "notice": "Thrown when an asset has been requested that does not exist"
        }
      ],
      "InvalidOwnerIndex()": [
        {
          "notice": "Thrown when depositing from address(0)"
        }
      ],
      "InvalidWithdrawAmount(uint256,uint256)": [
        {
          "notice": "Thrown when withdrawing an invalid amount for a position"
        }
      ],
      "NotGoListed(address)": [
        {
          "notice": "Thrown when trying to harvest a pool token when not go-listed"
        }
      ],
      "ZeroDeposit()": [
        {
          "notice": "Thrown when attempting to deposit nothing"
        }
      ]
    },
    "events": {
      "CapitalERC721Deposit(address,address,uint256,uint256,uint256)": {
        "notice": "Emitted when a new capital erc721 deposit has been made"
      },
      "CapitalERC721Harvest(uint256,address)": {
        "notice": "Emitted when an ERC721 capital asset has been harvested"
      },
      "CapitalERC721Withdrawal(address,uint256,address,uint256)": {
        "notice": "Emitted when a new ERC721 capital withdrawal has been made"
      },
      "CapitalPositionAdjustment(uint256,address,uint256)": {
        "notice": "Emitted when an ERC721 capital asset has been \"kicked\", which may cause the underlying  usdc equivalent value to change."
      }
    },
    "kind": "user",
    "methods": {
      "assetAddressOf(uint256)": {
        "notice": "Get the asset address of the position. Example: For an ERC721 position, this  returns the address of that ERC721 contract."
      },
      "balanceOf(address)": {
        "notice": "Get the number of capital positions held by an address"
      },
      "constructor": {
        "notice": "Construct the contract"
      },
      "depositERC721(address,address,uint256)": {
        "notice": "Account for a deposit of `id` for the ERC721 asset at `assetAddress`."
      },
      "erc721IdOf(uint256)": {
        "notice": "Get the id of the ERC721 asset held by position `id`. Pair this with  `assetAddressOf` to get the address & id of the nft."
      },
      "harvest(uint256)": {
        "notice": "Harvests the associated rewards, interest, and other accrued assets  associated with the asset token. For example, if given a PoolToken asset,  this will collect the GFI rewards (if available), redeemable interest, and  redeemable principal, and send that to the `owner`."
      },
      "ownerOf(uint256)": {
        "notice": "Get the owner of a given position."
      },
      "positions(uint256)": {
        "notice": "Data for positions in the vault. Always has a corresponding entry at the same index in ERC20Data or ERC721 data, but never both."
      },
      "tokenOfOwnerByIndex(address,uint256)": {
        "notice": "Returns a position ID owned by `owner` at a given `index` of its position list"
      },
      "totalSupply()": {
        "notice": "Total number of positions in the ledger"
      },
      "totalsOf(address)": {
        "notice": "Get the USDC value of `owner`s positions, reporting what is currently  eligible and the total amount."
      },
      "withdraw(uint256)": {
        "notice": "Completely withdraw a position"
      }
    },
    "notice": "Track Capital held by owners and ensure the Capital has been accounted for.",
    "version": 1
  },
  "storageLayout": {
    "storage": [
      {
        "astId": 6200,
        "contract": "contracts/protocol/core/membership/CapitalLedger.sol:CapitalLedger",
        "label": "positions",
        "offset": 0,
        "slot": "0",
        "type": "t_mapping(t_uint256,t_struct(Position)6191_storage)"
      },
      {
        "astId": 6205,
        "contract": "contracts/protocol/core/membership/CapitalLedger.sol:CapitalLedger",
        "label": "owners",
        "offset": 0,
        "slot": "1",
        "type": "t_mapping(t_address,t_array(t_uint256)dyn_storage)"
      },
      {
        "astId": 6211,
        "contract": "contracts/protocol/core/membership/CapitalLedger.sol:CapitalLedger",
        "label": "totals",
        "offset": 0,
        "slot": "2",
        "type": "t_mapping(t_address,t_struct(UserEpochTotal)11071_storage)"
      },
      {
        "astId": 6213,
        "contract": "contracts/protocol/core/membership/CapitalLedger.sol:CapitalLedger",
        "label": "positionCounter",
        "offset": 0,
        "slot": "3",
        "type": "t_uint256"
      },
      {
        "astId": 6219,
        "contract": "contracts/protocol/core/membership/CapitalLedger.sol:CapitalLedger",
        "label": "erc721Datas",
        "offset": 0,
        "slot": "4",
        "type": "t_mapping(t_uint256,t_struct(ERC721Data)6194_storage)"
      }
    ],
    "types": {
      "t_address": {
        "encoding": "inplace",
        "label": "address",
        "numberOfBytes": "20"
      },
      "t_array(t_uint256)dyn_storage": {
        "base": "t_uint256",
        "encoding": "dynamic_array",
        "label": "uint256[]",
        "numberOfBytes": "32"
      },
      "t_mapping(t_address,t_array(t_uint256)dyn_storage)": {
        "encoding": "mapping",
        "key": "t_address",
        "label": "mapping(address => uint256[])",
        "numberOfBytes": "32",
        "value": "t_array(t_uint256)dyn_storage"
      },
      "t_mapping(t_address,t_struct(UserEpochTotal)11071_storage)": {
        "encoding": "mapping",
        "key": "t_address",
        "label": "mapping(address => struct UserEpochTotal)",
        "numberOfBytes": "32",
        "value": "t_struct(UserEpochTotal)11071_storage"
      },
      "t_mapping(t_uint256,t_struct(ERC721Data)6194_storage)": {
        "encoding": "mapping",
        "key": "t_uint256",
        "label": "mapping(uint256 => struct CapitalLedger.ERC721Data)",
        "numberOfBytes": "32",
        "value": "t_struct(ERC721Data)6194_storage"
      },
      "t_mapping(t_uint256,t_struct(Position)6191_storage)": {
        "encoding": "mapping",
        "key": "t_uint256",
        "label": "mapping(uint256 => struct CapitalLedger.Position)",
        "numberOfBytes": "32",
        "value": "t_struct(Position)6191_storage"
      },
      "t_struct(ERC721Data)6194_storage": {
        "encoding": "inplace",
        "label": "struct CapitalLedger.ERC721Data",
        "members": [
          {
            "astId": 6193,
            "contract": "contracts/protocol/core/membership/CapitalLedger.sol:CapitalLedger",
            "label": "assetTokenId",
            "offset": 0,
            "slot": "0",
            "type": "t_uint256"
          }
        ],
        "numberOfBytes": "32"
      },
      "t_struct(Position)6191_storage": {
        "encoding": "inplace",
        "label": "struct CapitalLedger.Position",
        "members": [
          {
            "astId": 6182,
            "contract": "contracts/protocol/core/membership/CapitalLedger.sol:CapitalLedger",
            "label": "owner",
            "offset": 0,
            "slot": "0",
            "type": "t_address"
          },
          {
            "astId": 6184,
            "contract": "contracts/protocol/core/membership/CapitalLedger.sol:CapitalLedger",
            "label": "ownedIndex",
            "offset": 0,
            "slot": "1",
            "type": "t_uint256"
          },
          {
            "astId": 6186,
            "contract": "contracts/protocol/core/membership/CapitalLedger.sol:CapitalLedger",
            "label": "assetAddress",
            "offset": 0,
            "slot": "2",
            "type": "t_address"
          },
          {
            "astId": 6188,
            "contract": "contracts/protocol/core/membership/CapitalLedger.sol:CapitalLedger",
            "label": "usdcEquivalent",
            "offset": 0,
            "slot": "3",
            "type": "t_uint256"
          },
          {
            "astId": 6190,
            "contract": "contracts/protocol/core/membership/CapitalLedger.sol:CapitalLedger",
            "label": "depositTimestamp",
            "offset": 0,
            "slot": "4",
            "type": "t_uint256"
          }
        ],
        "numberOfBytes": "160"
      },
      "t_struct(UserEpochTotal)11071_storage": {
        "encoding": "inplace",
        "label": "struct UserEpochTotal",
        "members": [
          {
            "astId": 11064,
            "contract": "contracts/protocol/core/membership/CapitalLedger.sol:CapitalLedger",
            "label": "totalAmount",
            "offset": 0,
            "slot": "0",
            "type": "t_uint256"
          },
          {
            "astId": 11067,
            "contract": "contracts/protocol/core/membership/CapitalLedger.sol:CapitalLedger",
            "label": "eligibleAmount",
            "offset": 0,
            "slot": "1",
            "type": "t_uint256"
          },
          {
            "astId": 11070,
            "contract": "contracts/protocol/core/membership/CapitalLedger.sol:CapitalLedger",
            "label": "checkpointedAt",
            "offset": 0,
            "slot": "2",
            "type": "t_uint256"
          }
        ],
        "numberOfBytes": "96"
      },
      "t_uint256": {
        "encoding": "inplace",
        "label": "uint256",
        "numberOfBytes": "32"
      }
    }
  }
}