{
  "address": "0xB146bD49e751A23D146c5F0f02F285352A56CF73",
  "abi": [
    {
      "inputs": [
        {
          "internalType": "contract Context",
          "name": "_context",
          "type": "address"
        }
      ],
      "stateMutability": "nonpayable",
      "type": "constructor"
    },
    {
      "inputs": [],
      "name": "IndexGreaterThanTokenSupply",
      "type": "error"
    },
    {
      "inputs": [
        {
          "internalType": "address",
          "name": "assetAddress",
          "type": "address"
        }
      ],
      "name": "InvalidAsset",
      "type": "error"
    },
    {
      "inputs": [
        {
          "internalType": "enum CapitalAssetType",
          "name": "",
          "type": "uint8"
        }
      ],
      "name": "InvalidAssetType",
      "type": "error"
    },
    {
      "inputs": [
        {
          "internalType": "address",
          "name": "assetAddress",
          "type": "address"
        },
        {
          "internalType": "uint256",
          "name": "assetTokenId",
          "type": "uint256"
        }
      ],
      "name": "InvalidAssetWithId",
      "type": "error"
    },
    {
      "inputs": [
        {
          "internalType": "uint256",
          "name": "epoch",
          "type": "uint256"
        }
      ],
      "name": "InvalidDepositEpoch",
      "type": "error"
    },
    {
      "inputs": [],
      "name": "InvalidOwnerIndex",
      "type": "error"
    },
    {
      "inputs": [
        {
          "internalType": "uint256",
          "name": "requested",
          "type": "uint256"
        },
        {
          "internalType": "uint256",
          "name": "max",
          "type": "uint256"
        }
      ],
      "name": "InvalidWithdrawAmount",
      "type": "error"
    },
    {
      "inputs": [
        {
          "internalType": "address",
          "name": "resource",
          "type": "address"
        },
        {
          "internalType": "address",
          "name": "accessor",
          "type": "address"
        }
      ],
      "name": "RequiresOperator",
      "type": "error"
    },
    {
      "inputs": [],
      "name": "ZeroAddress",
      "type": "error"
    },
    {
      "inputs": [],
      "name": "ZeroDeposit",
      "type": "error"
    },
    {
      "anonymous": false,
      "inputs": [
        {
          "indexed": true,
          "internalType": "address",
          "name": "owner",
          "type": "address"
        },
        {
          "indexed": true,
          "internalType": "address",
          "name": "assetAddress",
          "type": "address"
        },
        {
          "indexed": false,
          "internalType": "uint256",
          "name": "positionId",
          "type": "uint256"
        },
        {
          "indexed": false,
          "internalType": "uint256",
          "name": "assetTokenId",
          "type": "uint256"
        },
        {
          "indexed": false,
          "internalType": "uint256",
          "name": "usdcEquivalent",
          "type": "uint256"
        }
      ],
      "name": "CapitalERC721Deposit",
      "type": "event"
    },
    {
      "anonymous": false,
      "inputs": [
        {
          "indexed": true,
          "internalType": "address",
          "name": "owner",
          "type": "address"
        },
        {
          "indexed": false,
          "internalType": "uint256",
          "name": "positionId",
          "type": "uint256"
        },
        {
          "indexed": false,
          "internalType": "address",
          "name": "assetAddress",
          "type": "address"
        },
        {
          "indexed": false,
          "internalType": "uint256",
          "name": "depositTimestamp",
          "type": "uint256"
        }
      ],
      "name": "CapitalERC721Withdrawal",
      "type": "event"
    },
    {
      "inputs": [
        {
          "internalType": "uint256",
          "name": "positionId",
          "type": "uint256"
        }
      ],
      "name": "assetAddressOf",
      "outputs": [
        {
          "internalType": "address",
          "name": "",
          "type": "address"
        }
      ],
      "stateMutability": "view",
      "type": "function"
    },
    {
      "inputs": [
        {
          "internalType": "address",
          "name": "addr",
          "type": "address"
        }
      ],
      "name": "balanceOf",
      "outputs": [
        {
          "internalType": "uint256",
          "name": "",
          "type": "uint256"
        }
      ],
      "stateMutability": "view",
      "type": "function"
    },
    {
      "inputs": [
        {
          "internalType": "address",
          "name": "owner",
          "type": "address"
        },
        {
          "internalType": "address",
          "name": "assetAddress",
          "type": "address"
        },
        {
          "internalType": "uint256",
          "name": "assetTokenId",
          "type": "uint256"
        }
      ],
      "name": "depositERC721",
      "outputs": [
        {
          "internalType": "uint256",
          "name": "",
          "type": "uint256"
        }
      ],
      "stateMutability": "nonpayable",
      "type": "function"
    },
    {
      "inputs": [
        {
          "internalType": "uint256",
          "name": "positionId",
          "type": "uint256"
        }
      ],
      "name": "erc721IdOf",
      "outputs": [
        {
          "internalType": "uint256",
          "name": "",
          "type": "uint256"
        }
      ],
      "stateMutability": "view",
      "type": "function"
    },
    {
      "inputs": [
        {
          "internalType": "address",
          "name": "",
          "type": "address"
        },
        {
          "internalType": "address",
          "name": "",
          "type": "address"
        },
        {
          "internalType": "uint256",
          "name": "",
          "type": "uint256"
        },
        {
          "internalType": "bytes",
          "name": "",
          "type": "bytes"
        }
      ],
      "name": "onERC721Received",
      "outputs": [
        {
          "internalType": "bytes4",
          "name": "",
          "type": "bytes4"
        }
      ],
      "stateMutability": "pure",
      "type": "function"
    },
    {
      "inputs": [
        {
          "internalType": "uint256",
          "name": "positionId",
          "type": "uint256"
        }
      ],
      "name": "ownerOf",
      "outputs": [
        {
          "internalType": "address",
          "name": "",
          "type": "address"
        }
      ],
      "stateMutability": "view",
      "type": "function"
    },
    {
      "inputs": [
        {
          "internalType": "uint256",
          "name": "",
          "type": "uint256"
        }
      ],
      "name": "positions",
      "outputs": [
        {
          "internalType": "address",
          "name": "owner",
          "type": "address"
        },
        {
          "internalType": "uint256",
          "name": "ownedIndex",
          "type": "uint256"
        },
        {
          "internalType": "address",
          "name": "assetAddress",
          "type": "address"
        },
        {
          "internalType": "uint256",
          "name": "usdcEquivalent",
          "type": "uint256"
        },
        {
          "internalType": "uint256",
          "name": "depositTimestamp",
          "type": "uint256"
        }
      ],
      "stateMutability": "view",
      "type": "function"
    },
    {
      "inputs": [
        {
          "internalType": "uint256",
          "name": "index",
          "type": "uint256"
        }
      ],
      "name": "tokenByIndex",
      "outputs": [
        {
          "internalType": "uint256",
          "name": "",
          "type": "uint256"
        }
      ],
      "stateMutability": "view",
      "type": "function"
    },
    {
      "inputs": [
        {
          "internalType": "address",
          "name": "owner",
          "type": "address"
        },
        {
          "internalType": "uint256",
          "name": "index",
          "type": "uint256"
        }
      ],
      "name": "tokenOfOwnerByIndex",
      "outputs": [
        {
          "internalType": "uint256",
          "name": "",
          "type": "uint256"
        }
      ],
      "stateMutability": "view",
      "type": "function"
    },
    {
      "inputs": [],
      "name": "totalSupply",
      "outputs": [
        {
          "internalType": "uint256",
          "name": "",
          "type": "uint256"
        }
      ],
      "stateMutability": "view",
      "type": "function"
    },
    {
      "inputs": [
        {
          "internalType": "address",
          "name": "addr",
          "type": "address"
        }
      ],
      "name": "totalsOf",
      "outputs": [
        {
          "internalType": "uint256",
          "name": "eligibleAmount",
          "type": "uint256"
        },
        {
          "internalType": "uint256",
          "name": "totalAmount",
          "type": "uint256"
        }
      ],
      "stateMutability": "view",
      "type": "function"
    },
    {
      "inputs": [
        {
          "internalType": "uint256",
          "name": "positionId",
          "type": "uint256"
        }
      ],
      "name": "withdraw",
      "outputs": [],
      "stateMutability": "nonpayable",
      "type": "function"
    }
  ],
  "transactionHash": "0x6e5ba841f5f676fad10e1c0ef228af71225a64ff7f0e725e13b3f95caf3a40b6",
  "args": [
    "0xd16BC944Bf20c86c4ED47Ce1a330a18538674C83"
  ],
  "solcInputHash": "eac65dc40e06b4b044f441f03029567a",
  "bytecode": "0x60a060405234801561001057600080fd5b5060405161185938038061185983398101604081905261002f91610040565b6001600160a01b0316608052610070565b60006020828403121561005257600080fd5b81516001600160a01b038116811461006957600080fd5b9392505050565b6080516117ab6100ae60003960008181610341015281816105c00152818161061b01528181610678015281816106fe0152610ca201526117ab6000f3fe608060405234801561001057600080fd5b50600436106100b45760003560e01c80634f6ccce7116100715780634f6ccce7146101635780636352211e1461017657806370a08231146101ac57806399fbab88146101d5578063c4664c6314610257578063e305f3061461028357600080fd5b8063150b7a02146100b957806318160ddd146100ee5780632e1a7d4d146101005780632f745c5914610115578063331ded1a14610128578063427d74321461013b575b600080fd5b6100d86100c73660046112cc565b630a85bd0160e11b95945050505050565b6040516100e5919061136b565b60405180910390f35b6003545b6040519081526020016100e5565b61011361010e366004611380565b6102a3565b005b6100f2610123366004611399565b610528565b6100f26101363660046113c5565b61059e565b61014e610149366004611406565b6107d8565b604080519283526020830191909152016100e5565b6100f2610171366004611380565b610804565b61019f610184366004611380565b6000908152602081905260409020546001600160a01b031690565b6040516100e59190611423565b6100f26101ba366004611406565b6001600160a01b031660009081526001602052604090205490565b61021e6101e3366004611380565b600060208190529081526040902080546001820154600283015460038401546004909401546001600160a01b03938416949293909116919085565b604080516001600160a01b039687168152602081019590955292909416918301919091526060820152608081019190915260a0016100e5565b61019f610265366004611380565b6000908152602081905260409020600201546001600160a01b031690565b6100f2610291366004611380565b60009081526004602052604090205490565b6000805160206117568339815191526102bc8133610839565b600082815260208181526040808320815160a08101835281546001600160a01b03808216835260018401805484880152600285018054928316968501968752600386018054606087015260048701805460808801528c8b52988a90526001600160a01b03199485169096559088905591169055908490559183905551909190610366907f00000000000000000000000000000000000000000000000000000000000000009061089c565b6060830151608084015184516001600160a01b031660009081526002602052604090209293506103979291906108d5565b81516001600160a01b031660009081526001602090815260408220908401519091906103c490839061095f565b915050801561040c578360200151600080848760200151815481106103eb576103eb611437565b90600052602060002001548152602001908152602001600020600101819055505b60018360018111156104205761042061144d565b036104fc57600086815260046020819052604080832080549390558681015187519151632142170760e11b81526001600160a01b03909116926342842e0e9261046d923092879101611463565b600060405180830381600087803b15801561048757600080fd5b505af115801561049b573d6000803e3d6000fd5b5050865160408089015160808a015182518d81526001600160a01b0392831660208201529283015290911692507f50065562d2b38b7cc51ee877211c37a54ff469d129d1a67bfeb97e0c2994a316915060600160405180910390a250610520565b826040516308a8fee960e31b81526004016105179190611487565b60405180910390fd5b505050505050565b6001600160a01b038216600090815260016020526040812054821061056057604051638f832b9b60e01b815260040160405180910390fd5b6001600160a01b038316600090815260016020526040902080548390811061058a5761058a611437565b906000526020600020015490505b92915050565b60006000805160206117568339815191526105b98133610839565b60016105e57f00000000000000000000000000000000000000000000000000000000000000008661089c565b60018111156105f6576105f661144d565b1461061657836040516337bce3c560e11b81526004016105179190611423565b6106417f000000000000000000000000000000000000000000000000000000000000000085856109e8565b61067057604051634eb9917160e11b81526001600160a01b038516600482015260248101849052604401610517565b83600061069e7f00000000000000000000000000000000000000000000000000000000000000008387610a2b565b905060006106ad888884610a7a565b604080516020808201835289825260008481526004825283812092519092556001600160a01b038c16825260029052209091506106ea9083610b3f565b826001600160a01b03166342842e0e61072b7f00000000000000000000000000000000000000000000000000000000000000006001600160a01b0316610b65565b30896040518463ffffffff1660e01b815260040161074b93929190611463565b600060405180830381600087803b15801561076557600080fd5b505af1158015610779573d6000803e3d6000fd5b505060408051848152602081018a90529081018590526001600160a01b03808b1693508b1691507fb1c56a0ea823a5b59843a1c0223e87b70affc07e96fc346165322958cdef13949060600160405180910390a3979650505050505050565b6001600160a01b038116600090815260026020526040812081906107fb90610c43565b91509150915091565b600061080f60035490565b821061082e57604051633f7ee38f60e11b815260040160405180910390fd5b6105988260016114c5565b6001600160a01b0381166108605760405163d92e233d60e01b815260040160405180910390fd5b61086a8282610c94565b6108985760405163889a56bb60e01b81523060048201526001600160a01b0382166024820152604401610517565b5050565b60006108a88383610d9f565b156108b557506001610598565b6108bf8383610dcf565b156108cc57506001610598565b50600092915050565b60006108e082610de3565b90506108ea610df2565b81111561090d57604051632029102760e21b815260048101829052602401610517565b61091684610e02565b8284600001600082825461092a91906114d8565b909155506109389050610df2565b811015610959578284600101600082825461095391906114d8565b90915550505b50505050565b81546000908190610972906001906114d8565b9150508181148015906109bb5783828154811061099157610991611437565b90600052602060002001548484815481106109ae576109ae611437565b6000918252602090912001555b838054806109cb576109cb6114eb565b600190038181906000526020600020016000905590559250929050565b60006109f48484610d9f565b15610a0a57610a038483610e2e565b9050610a24565b610a148484610dcf565b15610a20576001610a03565b5060005b9392505050565b6000610a378484610dcf565b15610a4657610a038483610ecf565b610a508484610d9f565b15610a5f57610a038483610f70565b826040516337bce3c560e11b81526004016105179190611423565b6003805460009182610a8b83611501565b9091555050600380546040805160a0810182526001600160a01b0397881680825260009081526001602081815284832080548286019081529a8c16858701908152606086019a8b52426080870190815288865285845296852095518654908e166001600160a01b03199182161787559b51868501555160028601805491909d169b169a909a17909a559651948201949094559051600490910155838652845493840185559381529390932001819055919050565b610b4882610e02565b80826000016000828254610b5c91906114c5565b90915550505050565b6000816001600160a01b031663f887ea406040518163ffffffff1660e01b8152600401602060405180830381865afa158015610ba5573d6000803e3d6000fd5b505050506040513d601f19601f82011682018060405250810190610bc9919061151a565b6001600160a01b0316630c0450126000805160206117568339815191526040518263ffffffff1660e01b8152600401610c02919061136b565b602060405180830381865afa158015610c1f573d6000803e3d6000fd5b505050506040513d601f19601f82011682018060405250810190610598919061151a565b6040805160608101825282548152600183015460208201526002830154918101829052600091829190610c74610df2565b03610c8a57602081015190519094909350915050565b5193849350915050565b6000816001600160a01b03167f00000000000000000000000000000000000000000000000000000000000000006001600160a01b031663f887ea406040518163ffffffff1660e01b8152600401602060405180830381865afa158015610cfe573d6000803e3d6000fd5b505050506040513d601f19601f82011682018060405250810190610d22919061151a565b6001600160a01b0316630c045012856040518263ffffffff1660e01b8152600401610d4d919061136b565b602060405180830381865afa158015610d6a573d6000803e3d6000fd5b505050506040513d601f19601f82011682018060405250810190610d8e919061151a565b6001600160a01b0316149392505050565b6000610db3836001600160a01b0316611071565b6001600160a01b0316826001600160a01b031614905092915050565b6000610db3836001600160a01b0316611120565b600061059862093a8083611537565b6000610dfd42610de3565b905090565b8060020154610e0f610df2565b11610e175750565b80546001820155610e26610df2565b600290910155565b600080610e43846001600160a01b0316611071565b6001600160a01b031663eb02c301846040518263ffffffff1660e01b8152600401610e7091815260200190565b61018060405180830381865afa158015610e8e573d6000803e3d6000fd5b505050506040513d601f19601f82011682018060405250810190610eb291906115d5565b608001516001811115610ec757610ec761144d565b149392505050565b600080610ee4846001600160a01b0316611120565b6001600160a01b0316638c7a63ae846040518263ffffffff1660e01b8152600401610f1191815260200190565b60a060405180830381865afa158015610f2e573d6000803e3d6000fd5b505050506040513d601f19601f82011682018060405250810190610f529190611696565b905080606001518160400151610f6891906114d8565b949350505050565b600080610f85846001600160a01b0316611071565b6001600160a01b031663aa04295f846040518263ffffffff1660e01b8152600401610fb291815260200190565b602060405180830381865afa158015610fcf573d6000803e3d6000fd5b505050506040513d601f19601f82011682018060405250810190610ff3919061171d565b9050610f688161100b866001600160a01b03166111cf565b6001600160a01b031663872697296040518163ffffffff1660e01b8152600401602060405180830381865afa158015611048573d6000803e3d6000fd5b505050506040513d601f19601f8201168201806040525081019061106c919061171d565b61127e565b6000816001600160a01b031663f887ea406040518163ffffffff1660e01b8152600401602060405180830381865afa1580156110b1573d6000803e3d6000fd5b505050506040513d601f19601f820116820180604052508101906110d5919061151a565b6001600160a01b0316630c0450127f5a31296b3cecaf3aaa3146a140f6ddf6d21caa95e28243dc507d90d7e883be796040518263ffffffff1660e01b8152600401610c02919061136b565b6000816001600160a01b031663f887ea406040518163ffffffff1660e01b8152600401602060405180830381865afa158015611160573d6000803e3d6000fd5b505050506040513d601f19601f82011682018060405250810190611184919061151a565b6001600160a01b0316630c0450127f7c9945d349966e663465dd2ad9f3ebe33d671877c22c40ca3a051e02e14e15ff6040518263ffffffff1660e01b8152600401610c02919061136b565b6000816001600160a01b031663f887ea406040518163ffffffff1660e01b8152600401602060405180830381865afa15801561120f573d6000803e3d6000fd5b505050506040513d601f19601f82011682018060405250810190611233919061151a565b6001600160a01b0316630c0450127fd4a8913f0cbda73931759328604779fb81c2513f90d252b9c4a96a5dd8327d886040518263ffffffff1660e01b8152600401610c02919061136b565b6000670de0b6b3a7640000611296620f424082611537565b6112a09190611736565b6112aa8385611736565b610a249190611537565b6001600160a01b03811681146112c957600080fd5b50565b6000806000806000608086880312156112e457600080fd5b85356112ef816112b4565b945060208601356112ff816112b4565b935060408601359250606086013567ffffffffffffffff8082111561132357600080fd5b818801915088601f83011261133757600080fd5b81358181111561134657600080fd5b89602082850101111561135857600080fd5b9699959850939650602001949392505050565b6001600160e01b031991909116815260200190565b60006020828403121561139257600080fd5b5035919050565b600080604083850312156113ac57600080fd5b82356113b7816112b4565b946020939093013593505050565b6000806000606084860312156113da57600080fd5b83356113e5816112b4565b925060208401356113f5816112b4565b929592945050506040919091013590565b60006020828403121561141857600080fd5b8135610a24816112b4565b6001600160a01b0391909116815260200190565b634e487b7160e01b600052603260045260246000fd5b634e487b7160e01b600052602160045260246000fd5b6001600160a01b039384168152919092166020820152604081019190915260600190565b60208101600283106114a957634e487b7160e01b600052602160045260246000fd5b91905290565b634e487b7160e01b600052601160045260246000fd5b80820180821115610598576105986114af565b81810381811115610598576105986114af565b634e487b7160e01b600052603160045260246000fd5b600060018201611513576115136114af565b5060010190565b60006020828403121561152c57600080fd5b8151610a24816112b4565b60008261155457634e487b7160e01b600052601260045260246000fd5b500490565b60405160e0810167ffffffffffffffff8111828210171561158a57634e487b7160e01b600052604160045260246000fd5b60405290565b60405160c0810167ffffffffffffffff8111828210171561158a57634e487b7160e01b600052604160045260246000fd5b8051600281106115d057600080fd5b919050565b60008183036101808112156115e957600080fd5b6115f1611559565b8351815260c0601f198301121561160757600080fd5b61160f611590565b91506020840151825260408401516020830152606084015160408301526080840151606083015260a0840151608083015260c084015160a083015281602082015260e08401516040820152610100840151606082015261167261012085016115c1565b608082015261014084015160a08201526101609093015160c0840152509092915050565b600060a082840312156116a857600080fd5b60405160a0810181811067ffffffffffffffff821117156116d957634e487b7160e01b600052604160045260246000fd5b60405282516116e7816112b4565b80825250602083015160208201526040830151604082015260608301516060820152608083015160808201528091505092915050565b60006020828403121561172f57600080fd5b5051919050565b6000816000190483118215151615611750576117506114af565b50029056fe9e45de9588e74df19c5f35dd4ddf9c698e7a3e36b4004fd44cb75621507d7092a264697066735822122039382bb7c2c736344fdd270ed7035e0e0f139d632ad1a1a39d88f8fa020ba1ed64736f6c63430008100033",
  "devdoc": {
    "author": "Goldfinch",
    "kind": "dev",
    "methods": {
      "assetAddressOf(uint256)": {
        "params": {
          "positionId": "id of the position"
        },
        "returns": {
          "_0": "asset address of the position"
        }
      },
      "balanceOf(address)": {
        "params": {
          "addr": "address"
        },
        "returns": {
          "_0": "positions held by address"
        }
      },
      "depositERC721(address,address,uint256)": {
        "details": "reverts with InvalidAssetType if `assetAddress` is not an ERC721",
        "params": {
          "assetAddress": "address of the ERC20 address",
          "assetTokenId": "id of the ERC721 asset to add",
          "owner": "address that owns the position"
        },
        "returns": {
          "_0": "id of the newly created position"
        }
      },
      "erc721IdOf(uint256)": {
        "details": "reverts with InvalidAssetType if `assetAddress` is not an ERC721",
        "params": {
          "positionId": "id of the position"
        },
        "returns": {
          "_0": "id of the underlying ERC721 asset"
        }
      },
      "onERC721Received(address,address,uint256,bytes)": {
        "details": "Whenever an {IERC721} `tokenId` token is transferred to this contract via {IERC721-safeTransferFrom} by `operator` from `from`, this function is called. It must return its Solidity selector to confirm the token transfer. If any other value is returned or the interface is not implemented by the recipient, the transfer will be reverted. The selector can be obtained in Solidity with `IERC721.onERC721Received.selector`."
      },
      "ownerOf(uint256)": {
        "params": {
          "positionId": "id of the position"
        },
        "returns": {
          "_0": "owner of the position"
        }
      },
      "tokenByIndex(uint256)": {
        "details": "Returns a position ID at a given `index` of all the positions stored by the contract.use with {totalSupply} to enumerate all positions",
        "params": {
          "index": "index to get the position ID at"
        },
        "returns": {
          "_0": "position id"
        }
      },
      "tokenOfOwnerByIndex(address,uint256)": {
        "details": "use with {balanceOf} to enumerate all of `owner`'s positions",
        "params": {
          "index": "index of the owner's balance to get the position ID of",
          "owner": "owner of the positions"
        },
        "returns": {
          "_0": "position id"
        }
      },
      "totalSupply()": {
        "returns": {
          "_0": "number of positions in the ledger"
        }
      },
      "totalsOf(address)": {
        "details": "this is used by Membership to determine how much is eligible in  the current epoch vs the next epoch.",
        "params": {
          "owner": "address owning the positions"
        },
        "returns": {
          "eligibleAmount": "USDC value of positions eligible for rewards",
          "totalAmount": "total USDC value of positions"
        }
      },
      "withdraw(uint256)": {
        "params": {
          "positionId": "id of the position"
        }
      }
    },
    "title": "CapitalLedger",
    "version": 1
  },
  "userdoc": {
    "errors": {
      "IndexGreaterThanTokenSupply()": [
        {
          "notice": "Thrown when querying token supply with an index greater than the supply"
        }
      ],
      "InvalidAsset(address)": [
        {
          "notice": "Thrown when an asset has been requested that does not exist"
        }
      ],
      "InvalidAssetType(uint8)": [
        {
          "notice": "Thrown when called with an invalid asset type for the function. Valid types are defined under CapitalAssetType"
        }
      ],
      "InvalidAssetWithId(address,uint256)": [
        {
          "notice": "Thrown when an asset has been requested that does not exist"
        }
      ],
      "InvalidOwnerIndex()": [
        {
          "notice": "Thrown when depositing from address(0)"
        }
      ],
      "InvalidWithdrawAmount(uint256,uint256)": [
        {
          "notice": "Thrown when withdrawing an invalid amount for a position"
        }
      ],
      "ZeroDeposit()": [
        {
          "notice": "Thrown when attempting to deposit nothing"
        }
      ]
    },
    "events": {
      "CapitalERC721Deposit(address,address,uint256,uint256,uint256)": {
        "notice": "Emitted when a new capital erc721 deposit has been made"
      },
      "CapitalERC721Withdrawal(address,uint256,address,uint256)": {
        "notice": "Emitted when a new ERC721 capital withdrawal has been made"
      }
    },
    "kind": "user",
    "methods": {
      "assetAddressOf(uint256)": {
        "notice": "Get the asset address of the position. Example: For an ERC721 position, this  returns the address of that ERC721 contract."
      },
      "balanceOf(address)": {
        "notice": "Get the number of capital positions held by an address"
      },
      "constructor": {
        "notice": "Construct the contract"
      },
      "depositERC721(address,address,uint256)": {
        "notice": "Account for a deposit of `id` for the ERC721 asset at `assetAddress`."
      },
      "erc721IdOf(uint256)": {
        "notice": "Get the id of the ERC721 asset held by position `id`. Pair this with  `assetAddressOf` to get the address & id of the nft."
      },
      "ownerOf(uint256)": {
        "notice": "Get the owner of a given position."
      },
      "positions(uint256)": {
        "notice": "Data for positions in the vault. Always has a corresponding entry at the same index in ERC20Data or ERC721 data, but never both."
      },
      "tokenOfOwnerByIndex(address,uint256)": {
        "notice": "Returns a position ID owned by `owner` at a given `index` of its position list"
      },
      "totalSupply()": {
        "notice": "Total number of positions in the ledger"
      },
      "totalsOf(address)": {
        "notice": "Get the USDC value of `owner`s positions, reporting what is currently  eligible and the total amount."
      },
      "withdraw(uint256)": {
        "notice": "Completely withdraw a position"
      }
    },
    "notice": "Track Capital held by owners and ensure the Capital has been accounted for.",
    "version": 1
  },
  "storageLayout": {
    "storage": [
      {
        "astId": 9271,
        "contract": "contracts/protocol/core/membership/CapitalLedger.sol:CapitalLedger",
        "label": "positions",
        "offset": 0,
        "slot": "0",
        "type": "t_mapping(t_uint256,t_struct(Position)9262_storage)"
      },
      {
        "astId": 9276,
        "contract": "contracts/protocol/core/membership/CapitalLedger.sol:CapitalLedger",
        "label": "owners",
        "offset": 0,
        "slot": "1",
        "type": "t_mapping(t_address,t_array(t_uint256)dyn_storage)"
      },
      {
        "astId": 9282,
        "contract": "contracts/protocol/core/membership/CapitalLedger.sol:CapitalLedger",
        "label": "totals",
        "offset": 0,
        "slot": "2",
        "type": "t_mapping(t_address,t_struct(UserEpochTotal)13995_storage)"
      },
      {
        "astId": 9284,
        "contract": "contracts/protocol/core/membership/CapitalLedger.sol:CapitalLedger",
        "label": "positionCounter",
        "offset": 0,
        "slot": "3",
        "type": "t_uint256"
      },
      {
        "astId": 9290,
        "contract": "contracts/protocol/core/membership/CapitalLedger.sol:CapitalLedger",
        "label": "erc721Datas",
        "offset": 0,
        "slot": "4",
        "type": "t_mapping(t_uint256,t_struct(ERC721Data)9265_storage)"
      }
    ],
    "types": {
      "t_address": {
        "encoding": "inplace",
        "label": "address",
        "numberOfBytes": "20"
      },
      "t_array(t_uint256)dyn_storage": {
        "base": "t_uint256",
        "encoding": "dynamic_array",
        "label": "uint256[]",
        "numberOfBytes": "32"
      },
      "t_mapping(t_address,t_array(t_uint256)dyn_storage)": {
        "encoding": "mapping",
        "key": "t_address",
        "label": "mapping(address => uint256[])",
        "numberOfBytes": "32",
        "value": "t_array(t_uint256)dyn_storage"
      },
      "t_mapping(t_address,t_struct(UserEpochTotal)13995_storage)": {
        "encoding": "mapping",
        "key": "t_address",
        "label": "mapping(address => struct UserEpochTotal)",
        "numberOfBytes": "32",
        "value": "t_struct(UserEpochTotal)13995_storage"
      },
      "t_mapping(t_uint256,t_struct(ERC721Data)9265_storage)": {
        "encoding": "mapping",
        "key": "t_uint256",
        "label": "mapping(uint256 => struct CapitalLedger.ERC721Data)",
        "numberOfBytes": "32",
        "value": "t_struct(ERC721Data)9265_storage"
      },
      "t_mapping(t_uint256,t_struct(Position)9262_storage)": {
        "encoding": "mapping",
        "key": "t_uint256",
        "label": "mapping(uint256 => struct CapitalLedger.Position)",
        "numberOfBytes": "32",
        "value": "t_struct(Position)9262_storage"
      },
      "t_struct(ERC721Data)9265_storage": {
        "encoding": "inplace",
        "label": "struct CapitalLedger.ERC721Data",
        "members": [
          {
            "astId": 9264,
            "contract": "contracts/protocol/core/membership/CapitalLedger.sol:CapitalLedger",
            "label": "assetTokenId",
            "offset": 0,
            "slot": "0",
            "type": "t_uint256"
          }
        ],
        "numberOfBytes": "32"
      },
      "t_struct(Position)9262_storage": {
        "encoding": "inplace",
        "label": "struct CapitalLedger.Position",
        "members": [
          {
            "astId": 9253,
            "contract": "contracts/protocol/core/membership/CapitalLedger.sol:CapitalLedger",
            "label": "owner",
            "offset": 0,
            "slot": "0",
            "type": "t_address"
          },
          {
            "astId": 9255,
            "contract": "contracts/protocol/core/membership/CapitalLedger.sol:CapitalLedger",
            "label": "ownedIndex",
            "offset": 0,
            "slot": "1",
            "type": "t_uint256"
          },
          {
            "astId": 9257,
            "contract": "contracts/protocol/core/membership/CapitalLedger.sol:CapitalLedger",
            "label": "assetAddress",
            "offset": 0,
            "slot": "2",
            "type": "t_address"
          },
          {
            "astId": 9259,
            "contract": "contracts/protocol/core/membership/CapitalLedger.sol:CapitalLedger",
            "label": "usdcEquivalent",
            "offset": 0,
            "slot": "3",
            "type": "t_uint256"
          },
          {
            "astId": 9261,
            "contract": "contracts/protocol/core/membership/CapitalLedger.sol:CapitalLedger",
            "label": "depositTimestamp",
            "offset": 0,
            "slot": "4",
            "type": "t_uint256"
          }
        ],
        "numberOfBytes": "160"
      },
      "t_struct(UserEpochTotal)13995_storage": {
        "encoding": "inplace",
        "label": "struct UserEpochTotal",
        "members": [
          {
            "astId": 13988,
            "contract": "contracts/protocol/core/membership/CapitalLedger.sol:CapitalLedger",
            "label": "totalAmount",
            "offset": 0,
            "slot": "0",
            "type": "t_uint256"
          },
          {
            "astId": 13991,
            "contract": "contracts/protocol/core/membership/CapitalLedger.sol:CapitalLedger",
            "label": "eligibleAmount",
            "offset": 0,
            "slot": "1",
            "type": "t_uint256"
          },
          {
            "astId": 13994,
            "contract": "contracts/protocol/core/membership/CapitalLedger.sol:CapitalLedger",
            "label": "checkpointedAt",
            "offset": 0,
            "slot": "2",
            "type": "t_uint256"
          }
        ],
        "numberOfBytes": "96"
      },
      "t_uint256": {
        "encoding": "inplace",
        "label": "uint256",
        "numberOfBytes": "32"
      }
    }
  }
}