{
  "address": "0x2CC8BF652401b044077803FC419E21118d545A61",
  "abi": [
    {
      "anonymous": false,
      "inputs": [
        {
          "indexed": true,
          "internalType": "address",
          "name": "owner",
          "type": "address"
        },
        {
          "indexed": true,
          "internalType": "address",
          "name": "approved",
          "type": "address"
        },
        {
          "indexed": true,
          "internalType": "uint256",
          "name": "tokenId",
          "type": "uint256"
        }
      ],
      "name": "Approval",
      "type": "event"
    },
    {
      "anonymous": false,
      "inputs": [
        {
          "indexed": true,
          "internalType": "address",
          "name": "owner",
          "type": "address"
        },
        {
          "indexed": true,
          "internalType": "address",
          "name": "operator",
          "type": "address"
        },
        {
          "indexed": false,
          "internalType": "bool",
          "name": "approved",
          "type": "bool"
        }
      ],
      "name": "ApprovalForAll",
      "type": "event"
    },
    {
      "anonymous": false,
      "inputs": [
        {
          "indexed": true,
          "internalType": "address",
          "name": "who",
          "type": "address"
        },
        {
          "indexed": false,
          "internalType": "address",
          "name": "configAddress",
          "type": "address"
        }
      ],
      "name": "GoldfinchConfigUpdated",
      "type": "event"
    },
    {
      "anonymous": false,
      "inputs": [
        {
          "indexed": true,
          "internalType": "uint256",
          "name": "tokenId",
          "type": "uint256"
        },
        {
          "indexed": false,
          "internalType": "uint256",
          "name": "totalUnvested",
          "type": "uint256"
        }
      ],
      "name": "GrantRevoked",
      "type": "event"
    },
    {
      "anonymous": false,
      "inputs": [
        {
          "indexed": true,
          "internalType": "address",
          "name": "user",
          "type": "address"
        },
        {
          "indexed": true,
          "internalType": "uint256",
          "name": "tokenId",
          "type": "uint256"
        },
        {
          "indexed": false,
          "internalType": "uint256",
          "name": "amount",
          "type": "uint256"
        },
        {
          "indexed": false,
          "internalType": "uint256",
          "name": "vestingLength",
          "type": "uint256"
        },
        {
          "indexed": false,
          "internalType": "uint256",
          "name": "cliffLength",
          "type": "uint256"
        },
        {
          "indexed": false,
          "internalType": "uint256",
          "name": "vestingInterval",
          "type": "uint256"
        }
      ],
      "name": "Granted",
      "type": "event"
    },
    {
      "anonymous": false,
      "inputs": [
        {
          "indexed": false,
          "internalType": "address",
          "name": "account",
          "type": "address"
        }
      ],
      "name": "Paused",
      "type": "event"
    },
    {
      "anonymous": false,
      "inputs": [
        {
          "indexed": false,
          "internalType": "uint256",
          "name": "reward",
          "type": "uint256"
        }
      ],
      "name": "RewardAdded",
      "type": "event"
    },
    {
      "anonymous": false,
      "inputs": [
        {
          "indexed": true,
          "internalType": "address",
          "name": "user",
          "type": "address"
        },
        {
          "indexed": true,
          "internalType": "uint256",
          "name": "tokenId",
          "type": "uint256"
        },
        {
          "indexed": false,
          "internalType": "uint256",
          "name": "reward",
          "type": "uint256"
        }
      ],
      "name": "RewardPaid",
      "type": "event"
    },
    {
      "anonymous": false,
      "inputs": [
        {
          "indexed": true,
          "internalType": "bytes32",
          "name": "role",
          "type": "bytes32"
        },
        {
          "indexed": true,
          "internalType": "address",
          "name": "account",
          "type": "address"
        },
        {
          "indexed": true,
          "internalType": "address",
          "name": "sender",
          "type": "address"
        }
      ],
      "name": "RoleGranted",
      "type": "event"
    },
    {
      "anonymous": false,
      "inputs": [
        {
          "indexed": true,
          "internalType": "bytes32",
          "name": "role",
          "type": "bytes32"
        },
        {
          "indexed": true,
          "internalType": "address",
          "name": "account",
          "type": "address"
        },
        {
          "indexed": true,
          "internalType": "address",
          "name": "sender",
          "type": "address"
        }
      ],
      "name": "RoleRevoked",
      "type": "event"
    },
    {
      "anonymous": false,
      "inputs": [
        {
          "indexed": true,
          "internalType": "address",
          "name": "from",
          "type": "address"
        },
        {
          "indexed": true,
          "internalType": "address",
          "name": "to",
          "type": "address"
        },
        {
          "indexed": true,
          "internalType": "uint256",
          "name": "tokenId",
          "type": "uint256"
        }
      ],
      "name": "Transfer",
      "type": "event"
    },
    {
      "anonymous": false,
      "inputs": [
        {
          "indexed": false,
          "internalType": "address",
          "name": "account",
          "type": "address"
        }
      ],
      "name": "Unpaused",
      "type": "event"
    },
    {
      "inputs": [],
      "name": "DEFAULT_ADMIN_ROLE",
      "outputs": [
        {
          "internalType": "bytes32",
          "name": "",
          "type": "bytes32"
        }
      ],
      "stateMutability": "view",
      "type": "function"
    },
    {
      "inputs": [],
      "name": "DISTRIBUTOR_ROLE",
      "outputs": [
        {
          "internalType": "bytes32",
          "name": "",
          "type": "bytes32"
        }
      ],
      "stateMutability": "view",
      "type": "function"
    },
    {
      "inputs": [],
      "name": "MINTER_ROLE",
      "outputs": [
        {
          "internalType": "bytes32",
          "name": "",
          "type": "bytes32"
        }
      ],
      "stateMutability": "view",
      "type": "function"
    },
    {
      "inputs": [],
      "name": "OWNER_ROLE",
      "outputs": [
        {
          "internalType": "bytes32",
          "name": "",
          "type": "bytes32"
        }
      ],
      "stateMutability": "view",
      "type": "function"
    },
    {
      "inputs": [],
      "name": "PAUSER_ROLE",
      "outputs": [
        {
          "internalType": "bytes32",
          "name": "",
          "type": "bytes32"
        }
      ],
      "stateMutability": "view",
      "type": "function"
    },
    {
      "inputs": [
        {
          "internalType": "address",
          "name": "owner",
          "type": "address"
        },
        {
          "internalType": "contract GoldfinchConfig",
          "name": "_config",
          "type": "address"
        },
        {
          "internalType": "uint256",
          "name": "_tokenLaunchTimeInSeconds",
          "type": "uint256"
        }
      ],
      "name": "__initialize__",
      "outputs": [],
      "stateMutability": "nonpayable",
      "type": "function"
    },
    {
      "inputs": [],
      "name": "_tokenIdTracker",
      "outputs": [
        {
          "internalType": "uint256",
          "name": "_value",
          "type": "uint256"
        }
      ],
      "stateMutability": "view",
      "type": "function"
    },
    {
      "inputs": [
        {
          "internalType": "address",
          "name": "to",
          "type": "address"
        },
        {
          "internalType": "uint256",
          "name": "tokenId",
          "type": "uint256"
        }
      ],
      "name": "approve",
      "outputs": [],
      "stateMutability": "nonpayable",
      "type": "function"
    },
    {
      "inputs": [
        {
          "internalType": "address",
          "name": "owner",
          "type": "address"
        }
      ],
      "name": "balanceOf",
      "outputs": [
        {
          "internalType": "uint256",
          "name": "",
          "type": "uint256"
        }
      ],
      "stateMutability": "view",
      "type": "function"
    },
    {
      "inputs": [],
      "name": "baseURI",
      "outputs": [
        {
          "internalType": "string",
          "name": "",
          "type": "string"
        }
      ],
      "stateMutability": "view",
      "type": "function"
    },
    {
      "inputs": [
        {
          "internalType": "uint256",
          "name": "tokenId",
          "type": "uint256"
        }
      ],
      "name": "claimableRewards",
      "outputs": [
        {
          "internalType": "uint256",
          "name": "rewards",
          "type": "uint256"
        }
      ],
      "stateMutability": "view",
      "type": "function"
    },
    {
      "inputs": [],
      "name": "config",
      "outputs": [
        {
          "internalType": "contract GoldfinchConfig",
          "name": "",
          "type": "address"
        }
      ],
      "stateMutability": "view",
      "type": "function"
    },
    {
      "inputs": [
        {
          "internalType": "uint256",
          "name": "tokenId",
          "type": "uint256"
        }
      ],
      "name": "getApproved",
      "outputs": [
        {
          "internalType": "address",
          "name": "",
          "type": "address"
        }
      ],
      "stateMutability": "view",
      "type": "function"
    },
    {
      "inputs": [
        {
          "internalType": "uint256",
          "name": "tokenId",
          "type": "uint256"
        }
      ],
      "name": "getReward",
      "outputs": [],
      "stateMutability": "nonpayable",
      "type": "function"
    },
    {
      "inputs": [
        {
          "internalType": "bytes32",
          "name": "role",
          "type": "bytes32"
        }
      ],
      "name": "getRoleAdmin",
      "outputs": [
        {
          "internalType": "bytes32",
          "name": "",
          "type": "bytes32"
        }
      ],
      "stateMutability": "view",
      "type": "function"
    },
    {
      "inputs": [
        {
          "internalType": "bytes32",
          "name": "role",
          "type": "bytes32"
        },
        {
          "internalType": "uint256",
          "name": "index",
          "type": "uint256"
        }
      ],
      "name": "getRoleMember",
      "outputs": [
        {
          "internalType": "address",
          "name": "",
          "type": "address"
        }
      ],
      "stateMutability": "view",
      "type": "function"
    },
    {
      "inputs": [
        {
          "internalType": "bytes32",
          "name": "role",
          "type": "bytes32"
        }
      ],
      "name": "getRoleMemberCount",
      "outputs": [
        {
          "internalType": "uint256",
          "name": "",
          "type": "uint256"
        }
      ],
      "stateMutability": "view",
      "type": "function"
    },
    {
      "inputs": [
        {
          "internalType": "address",
          "name": "recipient",
          "type": "address"
        },
        {
          "internalType": "uint256",
          "name": "amount",
          "type": "uint256"
        },
        {
          "internalType": "uint256",
          "name": "vestingLength",
          "type": "uint256"
        },
        {
          "internalType": "uint256",
          "name": "cliffLength",
          "type": "uint256"
        },
        {
          "internalType": "uint256",
          "name": "vestingInterval",
          "type": "uint256"
        }
      ],
      "name": "grant",
      "outputs": [
        {
          "internalType": "uint256",
          "name": "tokenId",
          "type": "uint256"
        }
      ],
      "stateMutability": "nonpayable",
      "type": "function"
    },
    {
      "inputs": [
        {
          "internalType": "bytes32",
          "name": "role",
          "type": "bytes32"
        },
        {
          "internalType": "address",
          "name": "account",
          "type": "address"
        }
      ],
      "name": "grantRole",
      "outputs": [],
      "stateMutability": "nonpayable",
      "type": "function"
    },
    {
      "inputs": [
        {
          "internalType": "uint256",
          "name": "",
          "type": "uint256"
        }
      ],
      "name": "grants",
      "outputs": [
        {
          "internalType": "uint256",
          "name": "totalGranted",
          "type": "uint256"
        },
        {
          "internalType": "uint256",
          "name": "totalClaimed",
          "type": "uint256"
        },
        {
          "internalType": "uint256",
          "name": "startTime",
          "type": "uint256"
        },
        {
          "internalType": "uint256",
          "name": "endTime",
          "type": "uint256"
        },
        {
          "internalType": "uint256",
          "name": "cliffLength",
          "type": "uint256"
        },
        {
          "internalType": "uint256",
          "name": "vestingInterval",
          "type": "uint256"
        },
        {
          "internalType": "uint256",
          "name": "revokedAt",
          "type": "uint256"
        }
      ],
      "stateMutability": "view",
      "type": "function"
    },
    {
      "inputs": [
        {
          "internalType": "bytes32",
          "name": "role",
          "type": "bytes32"
        },
        {
          "internalType": "address",
          "name": "account",
          "type": "address"
        }
      ],
      "name": "hasRole",
      "outputs": [
        {
          "internalType": "bool",
          "name": "",
          "type": "bool"
        }
      ],
      "stateMutability": "view",
      "type": "function"
    },
    {
      "inputs": [],
      "name": "isAdmin",
      "outputs": [
        {
          "internalType": "bool",
          "name": "",
          "type": "bool"
        }
      ],
      "stateMutability": "view",
      "type": "function"
    },
    {
      "inputs": [
        {
          "internalType": "address",
          "name": "owner",
          "type": "address"
        },
        {
          "internalType": "address",
          "name": "operator",
          "type": "address"
        }
      ],
      "name": "isApprovedForAll",
      "outputs": [
        {
          "internalType": "bool",
          "name": "",
          "type": "bool"
        }
      ],
      "stateMutability": "view",
      "type": "function"
    },
    {
      "inputs": [],
      "name": "isDistributor",
      "outputs": [
        {
          "internalType": "bool",
          "name": "",
          "type": "bool"
        }
      ],
      "stateMutability": "view",
      "type": "function"
    },
    {
      "inputs": [
        {
          "internalType": "uint256",
          "name": "rewards",
          "type": "uint256"
        }
      ],
      "name": "loadRewards",
      "outputs": [],
      "stateMutability": "nonpayable",
      "type": "function"
    },
    {
      "inputs": [],
      "name": "name",
      "outputs": [
        {
          "internalType": "string",
          "name": "",
          "type": "string"
        }
      ],
      "stateMutability": "view",
      "type": "function"
    },
    {
      "inputs": [
        {
          "internalType": "uint256",
          "name": "tokenId",
          "type": "uint256"
        }
      ],
      "name": "ownerOf",
      "outputs": [
        {
          "internalType": "address",
          "name": "",
          "type": "address"
        }
      ],
      "stateMutability": "view",
      "type": "function"
    },
    {
      "inputs": [],
      "name": "pause",
      "outputs": [],
      "stateMutability": "nonpayable",
      "type": "function"
    },
    {
      "inputs": [],
      "name": "paused",
      "outputs": [
        {
          "internalType": "bool",
          "name": "",
          "type": "bool"
        }
      ],
      "stateMutability": "view",
      "type": "function"
    },
    {
      "inputs": [
        {
          "internalType": "bytes32",
          "name": "role",
          "type": "bytes32"
        },
        {
          "internalType": "address",
          "name": "account",
          "type": "address"
        }
      ],
      "name": "renounceRole",
      "outputs": [],
      "stateMutability": "nonpayable",
      "type": "function"
    },
    {
      "inputs": [
        {
          "internalType": "uint256",
          "name": "tokenId",
          "type": "uint256"
        }
      ],
      "name": "revokeGrant",
      "outputs": [],
      "stateMutability": "nonpayable",
      "type": "function"
    },
    {
      "inputs": [
        {
          "internalType": "bytes32",
          "name": "role",
          "type": "bytes32"
        },
        {
          "internalType": "address",
          "name": "account",
          "type": "address"
        }
      ],
      "name": "revokeRole",
      "outputs": [],
      "stateMutability": "nonpayable",
      "type": "function"
    },
    {
      "inputs": [],
      "name": "rewardsAvailable",
      "outputs": [
        {
          "internalType": "uint256",
          "name": "",
          "type": "uint256"
        }
      ],
      "stateMutability": "view",
      "type": "function"
    },
    {
      "inputs": [],
      "name": "rewardsToken",
      "outputs": [
        {
          "internalType": "contract IERC20withDec",
          "name": "",
          "type": "address"
        }
      ],
      "stateMutability": "view",
      "type": "function"
    },
    {
      "inputs": [
        {
          "internalType": "address",
          "name": "from",
          "type": "address"
        },
        {
          "internalType": "address",
          "name": "to",
          "type": "address"
        },
        {
          "internalType": "uint256",
          "name": "tokenId",
          "type": "uint256"
        }
      ],
      "name": "safeTransferFrom",
      "outputs": [],
      "stateMutability": "nonpayable",
      "type": "function"
    },
    {
      "inputs": [
        {
          "internalType": "address",
          "name": "from",
          "type": "address"
        },
        {
          "internalType": "address",
          "name": "to",
          "type": "address"
        },
        {
          "internalType": "uint256",
          "name": "tokenId",
          "type": "uint256"
        },
        {
          "internalType": "bytes",
          "name": "_data",
          "type": "bytes"
        }
      ],
      "name": "safeTransferFrom",
      "outputs": [],
      "stateMutability": "nonpayable",
      "type": "function"
    },
    {
      "inputs": [
        {
          "internalType": "address",
          "name": "operator",
          "type": "address"
        },
        {
          "internalType": "bool",
          "name": "approved",
          "type": "bool"
        }
      ],
      "name": "setApprovalForAll",
      "outputs": [],
      "stateMutability": "nonpayable",
      "type": "function"
    },
    {
      "inputs": [
        {
          "internalType": "uint256",
          "name": "_tokenLaunchTimeInSeconds",
          "type": "uint256"
        }
      ],
      "name": "setTokenLaunchTimeInSeconds",
      "outputs": [],
      "stateMutability": "nonpayable",
      "type": "function"
    },
    {
      "inputs": [
        {
          "internalType": "bytes4",
          "name": "interfaceId",
          "type": "bytes4"
        }
      ],
      "name": "supportsInterface",
      "outputs": [
        {
          "internalType": "bool",
          "name": "",
          "type": "bool"
        }
      ],
      "stateMutability": "view",
      "type": "function"
    },
    {
      "inputs": [],
      "name": "symbol",
      "outputs": [
        {
          "internalType": "string",
          "name": "",
          "type": "string"
        }
      ],
      "stateMutability": "view",
      "type": "function"
    },
    {
      "inputs": [
        {
          "internalType": "uint256",
          "name": "index",
          "type": "uint256"
        }
      ],
      "name": "tokenByIndex",
      "outputs": [
        {
          "internalType": "uint256",
          "name": "",
          "type": "uint256"
        }
      ],
      "stateMutability": "view",
      "type": "function"
    },
    {
      "inputs": [],
      "name": "tokenLaunchTimeInSeconds",
      "outputs": [
        {
          "internalType": "uint256",
          "name": "",
          "type": "uint256"
        }
      ],
      "stateMutability": "view",
      "type": "function"
    },
    {
      "inputs": [
        {
          "internalType": "address",
          "name": "owner",
          "type": "address"
        },
        {
          "internalType": "uint256",
          "name": "index",
          "type": "uint256"
        }
      ],
      "name": "tokenOfOwnerByIndex",
      "outputs": [
        {
          "internalType": "uint256",
          "name": "",
          "type": "uint256"
        }
      ],
      "stateMutability": "view",
      "type": "function"
    },
    {
      "inputs": [
        {
          "internalType": "uint256",
          "name": "tokenId",
          "type": "uint256"
        }
      ],
      "name": "tokenURI",
      "outputs": [
        {
          "internalType": "string",
          "name": "",
          "type": "string"
        }
      ],
      "stateMutability": "view",
      "type": "function"
    },
    {
      "inputs": [],
      "name": "totalSupply",
      "outputs": [
        {
          "internalType": "uint256",
          "name": "",
          "type": "uint256"
        }
      ],
      "stateMutability": "view",
      "type": "function"
    },
    {
      "inputs": [
        {
          "internalType": "address",
          "name": "owner",
          "type": "address"
        }
      ],
      "name": "totalUnclaimed",
      "outputs": [
        {
          "internalType": "uint256",
          "name": "",
          "type": "uint256"
        }
      ],
      "stateMutability": "view",
      "type": "function"
    },
    {
      "inputs": [
        {
          "internalType": "uint256",
          "name": "start",
          "type": "uint256"
        },
        {
          "internalType": "uint256",
          "name": "end",
          "type": "uint256"
        },
        {
          "internalType": "uint256",
          "name": "granted",
          "type": "uint256"
        },
        {
          "internalType": "uint256",
          "name": "cliffLength",
          "type": "uint256"
        },
        {
          "internalType": "uint256",
          "name": "vestingInterval",
          "type": "uint256"
        },
        {
          "internalType": "uint256",
          "name": "revokedAt",
          "type": "uint256"
        },
        {
          "internalType": "uint256",
          "name": "time",
          "type": "uint256"
        }
      ],
      "name": "totalVestedAt",
      "outputs": [
        {
          "internalType": "uint256",
          "name": "rewards",
          "type": "uint256"
        }
      ],
      "stateMutability": "pure",
      "type": "function"
    },
    {
      "inputs": [
        {
          "internalType": "address",
          "name": "from",
          "type": "address"
        },
        {
          "internalType": "address",
          "name": "to",
          "type": "address"
        },
        {
          "internalType": "uint256",
          "name": "tokenId",
          "type": "uint256"
        }
      ],
      "name": "transferFrom",
      "outputs": [],
      "stateMutability": "nonpayable",
      "type": "function"
    },
    {
      "inputs": [
        {
          "internalType": "uint256",
          "name": "tokenId",
          "type": "uint256"
        }
      ],
      "name": "unclaimed",
      "outputs": [
        {
          "internalType": "uint256",
          "name": "",
          "type": "uint256"
        }
      ],
      "stateMutability": "view",
      "type": "function"
    },
    {
      "inputs": [],
      "name": "unpause",
      "outputs": [],
      "stateMutability": "nonpayable",
      "type": "function"
    },
    {
      "inputs": [],
      "name": "updateGoldfinchConfig",
      "outputs": [],
      "stateMutability": "nonpayable",
      "type": "function"
    }
  ],
  "transactionHash": "0x59f1550908d0b1d3aa9db4d7a3c1e5cc8a6183ecc39ac62c253d0c40b1e4c88d",
  "args": [],
  "solcInputHash": "47172467ab6b6b7e17a87f5c74a51675",
  "bytecode": "0x608060405234801561001057600080fd5b50613bdf806100206000396000f3fe608060405234801561001057600080fd5b50600436106102c15760003560e01c806379502c551161017d578063b88d4fde116100d9578063d54a23d611610092578063d54a23d6146105ac578063e58378bb146105bf578063e63ab1e9146105c7578063e7a7250a146105cf578063e985e9c5146105d7578063f0bd87cc146105ea578063f62849be146105f2576102c1565b8063b88d4fde14610550578063c87b56dd14610563578063ca15c87314610576578063d1af0c7d14610589578063d539139314610591578063d547741f14610599576102c1565b806391d148541161013657806391d14854146104f757806395d89b411461050a5780639835fc7e1461051257806398bcede914610525578063a217fddf1461052d578063a22cb46514610535578063b6db75a014610548576102c1565b806379502c551461049b5780637d0781b4146104a35780638092a3b1146104b65780638456cb59146104c95780638f41ab16146104d15780639010d07c146104e4576102c1565b8063248a9ca31161022c5780634f6ccce7116101e55780634f6ccce7146104375780634f92a7281461044a5780635c975abb146104525780636352211e1461045a57806363b114721461046d5780636c0360eb1461048057806370a0823114610488576102c1565b8063248a9ca3146103d05780632f2ff15d146103e35780632f745c59146103f657806336568abe146104095780633f4ba83a1461041c57806342842e0e14610424576102c1565b806318160ddd1161027e57806318160ddd1461036757806318ce4d941461037c5780631c4b774b1461038f5780631d33267a146103a2578063205282e6146103b557806323b872dd146103bd576102c1565b806301ffc9a7146102c657806306fdde03146102ef578063081812fc14610304578063095ea7b3146103245780630997a514146103395780630c0debea14610341575b600080fd5b6102d96102d4366004612d27565b610605565b6040516102e69190612f01565b60405180910390f35b6102f7610628565b6040516102e69190612f15565b610317610312366004612cca565b6106be565b6040516102e69190612e73565b610337610332366004612c40565b61070a565b005b6102d96107a2565b61035461034f366004612cca565b6107c3565b6040516102e69796959493929190613a66565b61036f610801565b6040516102e69190612f0c565b61036f61038a366004612c6b565b61080d565b61033761039d366004612cca565b6108ab565b6103376103b0366004612cca565b6109ca565b61036f610ae5565b6103376103cb366004612af7565b610aec565b61036f6103de366004612cca565b610b24565b6103376103f1366004612ce2565b610b39565b61036f610404366004612c40565b610b81565b610337610417366004612ce2565b610bac565b610337610bee565b610337610432366004612af7565b610c2e565b61036f610445366004612cca565b610c49565b610337610c5f565b6102d9610d0d565b610317610468366004612cca565b610d16565b61036f61047b366004612d5f565b610d3e565b6102f7610d5d565b61036f610496366004612a87565b610dbe565b610317610e07565b6103376104b1366004612cca565b610e17565b61036f6104c4366004612cca565b610e41565b610337610e4c565b6103376104df366004612c2c565b610e8a565b6103176104f2366004612d06565b61108d565b6102d9610505366004612ce2565b6110a5565b6102f76110bd565b61036f610520366004612cca565b61111e565b61036f611136565b61036f61113d565b610337610543366004612bff565b611142565b6102d9611210565b61033761055e366004612b37565b61122c565b6102f7610571366004612cca565b611265565b61036f610584366004612cca565b6113af565b6103176113c6565b61036f6113df565b6103376105a7366004612ce2565b611403565b61036f6105ba366004612a87565b61143d565b61036f611485565b61036f611497565b61036f6114a9565b6102d96105e5366004612abf565b6114b0565b61036f6114de565b610337610600366004612cca565b6114f0565b6001600160e01b0319811660009081526097602052604090205460ff165b919050565b60ce8054604080516020601f60026000196101006001881615020190951694909404938401819004810282018101909252828152606093909290918301828280156106b45780601f10610689576101008083540402835291602001916106b4565b820191906000526020600020905b81548152906001019060200180831161069757829003601f168201915b5050505050905090565b60006106c98261159f565b6106ee5760405162461bcd60e51b81526004016106e590613563565b60405180910390fd5b50600090815260cc60205260409020546001600160a01b031690565b600061071582610d16565b9050806001600160a01b0316836001600160a01b031614156107495760405162461bcd60e51b81526004016106e5906136e6565b806001600160a01b031661075b6115ac565b6001600160a01b031614806107775750610777816105e56115ac565b6107935760405162461bcd60e51b81526004016106e5906133d2565b61079d83836115b0565b505050565b60006107be600080516020613afc8339815191526105056115ac565b905090565b6101c6602052600090815260409020805460018201546002830154600384015460048501546005860154600690960154949593949293919290919087565b60006107be60ca61161e565b6101915460009060ff166108335760405162461bcd60e51b81526004016106e59061384f565b610191805460ff1916905560fb5460ff16156108615760405162461bcd60e51b81526004016106e590613378565b6108696107a2565b6108855760405162461bcd60e51b81526004016106e590613695565b6108928686868686611629565b9050610191805460ff1916600117905595945050505050565b6101915460ff166108ce5760405162461bcd60e51b81526004016106e59061384f565b610191805460ff1916905560fb5460ff16156108fc5760405162461bcd60e51b81526004016106e590613378565b3361090682610d16565b6001600160a01b03161461092c5760405162461bcd60e51b81526004016106e590613778565b60006109378261111e565b905080156109b85760008281526101c66020526040902061095890826117d7565b61097533826109656113c6565b6001600160a01b031691906117f2565b81336001600160a01b03167fd6f2c8500df5b44f11e9e48b91ff9f1b9d81bc496d55570c2b1b75bf65243f51836040516109af9190612f0c565b60405180910390a35b5050610191805460ff19166001179055565b60fb5460ff16156109ed5760405162461bcd60e51b81526004016106e590613378565b6109f5611210565b610a115760405162461bcd60e51b81526004016106e590613968565b60008181526101c6602052604090208054610a3e5760405162461bcd60e51b81526004016106e59061352c565b600681015415610a605760405162461bcd60e51b81526004016106e59061379f565b6000610a6c8242611848565b905060008111610a8e5760405162461bcd60e51b81526004016106e5906133a2565b6101c454610a9c908261185f565b6101c45542600683015560405183907f99b158d692e9c5440d29424d4441593c29ad41c52383617e45098ecb1fba2e0890610ad8908490612f0c565b60405180910390a2505050565b6101c55481565b610afd610af76115ac565b82611884565b610b195760405162461bcd60e51b81526004016106e590613727565b61079d838383611909565b60009081526065602052604090206002015490565b600082815260656020526040902060020154610b57906105056115ac565b610b735760405162461bcd60e51b81526004016106e590612fb5565b610b7d8282611a17565b5050565b6001600160a01b038216600090815260c960205260408120610ba39083611a80565b90505b92915050565b610bb46115ac565b6001600160a01b0316816001600160a01b031614610be45760405162461bcd60e51b81526004016106e5906139b3565b610b7d8282611a8c565b610c08600080516020613b658339815191526105056115ac565b610c245760405162461bcd60e51b81526004016106e5906138d3565b610c2c611af5565b565b61079d8383836040518060200160405280600081525061122c565b600080610c5760ca84611b61565b509392505050565b610c67611210565b610c835760405162461bcd60e51b81526004016106e590613968565b6101c354610c99906001600160a01b0316611b7d565b6101c380546001600160a01b0319166001600160a01b0392909216919091179055610cc26115ac565b6101c3546040516001600160a01b03928316927f7c76c17de59691df2ef36af3938c91f69cd18ad27f67a54a38e38686f0b40c4992610d0392911690612e73565b60405180910390a2565b60fb5460ff1690565b6000610ba682604051806060016040528060298152602001613b3c6029913960ca9190611bfd565b6000610d4f88888888888888611c14565b90505b979650505050505050565b60d18054604080516020601f60026000196101006001881615020190951694909404938401819004810282018101909252828152606093909290918301828280156106b45780601f10610689576101008083540402835291602001916106b4565b60006001600160a01b038216610de65760405162461bcd60e51b81526004016106e59061342a565b6001600160a01b038216600090815260c960205260409020610ba69061161e565b6101c3546001600160a01b031681565b610e1f611210565b610e3b5760405162461bcd60e51b81526004016106e590613968565b6101c555565b6000610ba682611ca8565b610e66600080516020613b658339815191526105056115ac565b610e825760405162461bcd60e51b81526004016106e5906131d3565b610c2c611cc2565b600054610100900460ff1680610ea35750610ea3611d1b565b80610eb1575060005460ff16155b610ecd5760405162461bcd60e51b81526004016106e5906135af565b600054610100900460ff16158015610ef8576000805460ff1961ff0019909116610100171660011790555b6001600160a01b03841615801590610f1857506001600160a01b03831615155b610f345760405162461bcd60e51b81526004016106e590613032565b610f3c611d21565b610f44611da4565b610f87604051806060016040528060258152602001613b85602591396040518060400160405280600981526020016823a32496ab1916a1a960b91b815250611e22565b610f8f611d21565b610f97611d21565b610f9f611efe565b610fa7611f8a565b610fbf600080516020613b1c83398151915285610b73565b610fd7600080516020613b6583398151915285610b73565b610fef600080516020613afc83398151915285610b73565b611007600080516020613b1c8339815191528061201a565b61102d600080516020613b65833981519152600080516020613b1c83398151915261201a565b611053600080516020613afc833981519152600080516020613b1c83398151915261201a565b6101c58290556101c380546001600160a01b0319166001600160a01b0385161790558015611087576000805461ff00191690555b50505050565b6000828152606560205260408120610ba39083611a80565b6000828152606560205260408120610ba3908361202f565b60cf8054604080516020601f60026000196101006001881615020190951694909404938401819004810282018101909252828152606093909290918301828280156106b45780601f10610689576101008083540402835291602001916106b4565b60008181526101c660205260408120610ba690612044565b61015f5481565b600081565b61114a6115ac565b6001600160a01b0316826001600160a01b0316141561117b5760405162461bcd60e51b81526004016106e590613274565b8060cd60006111886115ac565b6001600160a01b03908116825260208083019390935260409182016000908120918716808252919093529120805460ff1916921515929092179091556111cc6115ac565b6001600160a01b03167f17307eab39ab6107e8899845ad3d59bd9653f200f220920489ca2b5937696c31836040516112049190612f01565b60405180910390a35050565b60006107be600080516020613b1c8339815191526105056115ac565b61123d6112376115ac565b83611884565b6112595760405162461bcd60e51b81526004016106e590613727565b61108784848484612050565b60606112708261159f565b61128c5760405162461bcd60e51b81526004016106e590613646565b600082815260d0602090815260409182902080548351601f60026000196101006001861615020190931692909204918201849004840281018401909452808452606093928301828280156113215780601f106112f657610100808354040283529160200191611321565b820191906000526020600020905b81548152906001019060200180831161130457829003601f168201915b505060d1549394505050506002600019610100600184161502019091160461134a579050610623565b80511561137c5760d181604051602001611365929190612df2565b604051602081830303815290604052915050610623565b60d161138784612083565b604051602001611398929190612df2565b604051602081830303815290604052915050919050565b6000818152606560205260408120610ba69061161e565b6101c3546000906107be906001600160a01b031661215e565b7f9f2df0fed2c77648de5860a4cc508cd0818c85b8b8a1ab4ceeef8d981c8956a681565b600082815260656020526040902060020154611421906105056115ac565b610be45760405162461bcd60e51b81526004016106e590613328565b600080805b61144b84610dbe565b81101561147e57600061145e8583610b81565b905061147361146c82611ca8565b849061185f565b925050600101611442565b5092915050565b600080516020613b1c83398151915281565b600080516020613b6583398151915281565b6101c45481565b6001600160a01b03918216600090815260cd6020908152604080832093909416825291909152205460ff1690565b600080516020613afc83398151915281565b6114f8611210565b6115145760405162461bcd60e51b81526004016106e590613968565b600081116115345760405162461bcd60e51b81526004016106e590613105565b6101c454611542908261185f565b6101c4556115653330836115546113c6565b6001600160a01b0316929190612169565b7fde88a922e0d3b88b24e9623efeb464919c6bf9f66857a65e2bfcf2ce87a9433d816040516115949190612f0c565b60405180910390a150565b6000610ba660ca8361218a565b3390565b600081815260cc6020526040902080546001600160a01b0319166001600160a01b03841690811790915581906115e582610d16565b6001600160a01b03167f8c5be1e5ebec7d5bd14f71427d1e84f3dd0314c0f7b2291e5b200ac8c7c3b92560405160405180910390a45050565b6000610ba682612196565b600080851161164a5760405162461bcd60e51b81526004016106e5906137d6565b8383111561166a5760405162461bcd60e51b81526004016106e590613a02565b6101c45485111561168d5760405162461bcd60e51b81526004016106e590613886565b838211156116ad5760405162461bcd60e51b81526004016106e59061316b565b816116b6578391505b6101c4546116c4908661219a565b6101c4556116d361015f6121dc565b6116de61015f612196565b90506040518060e00160405280868152602001600081526020016101c5548152602001611717866101c55461185f90919063ffffffff16565b815260208082018690526040808301869052600060609384018190528581526101c683528190208451815591840151600183015583015160028201559082015160038201556080820151600482015560a0820151600582015560c09091015160069091015561178686826121e5565b80866001600160a01b03167f13fce371c40438299d0ef0c6274292b9b9989523253a77f15706673efe5863b8878787876040516117c69493929190613a4b565b60405180910390a395945050505050565b60018201546117e6908261185f565b82600101819055505050565b61079d8363a9059cbb60e01b8484604051602401611811929190612ee8565b60408051601f198184030181529190526020810180516001600160e01b03166001600160e01b0319909316929092179091526122a9565b6000610ba3611857848461238e565b84549061219a565b600082820183811015610ba35760405162461bcd60e51b81526004016106e59061319c565b600061188f8261159f565b6118ab5760405162461bcd60e51b81526004016106e5906132dc565b60006118b683610d16565b9050806001600160a01b0316846001600160a01b031614806118f15750836001600160a01b03166118e6846106be565b6001600160a01b0316145b80611901575061190181856114b0565b949350505050565b826001600160a01b031661191c82610d16565b6001600160a01b0316146119425760405162461bcd60e51b81526004016106e5906135fd565b6001600160a01b0382166119685760405162461bcd60e51b81526004016106e590613230565b6119738383836123b7565b61197e6000826115b0565b6001600160a01b038316600090815260c9602052604090206119a090826123c2565b506001600160a01b038216600090815260c9602052604090206119c390826123ce565b506119d060ca82846123da565b5080826001600160a01b0316846001600160a01b03167fddf252ad1be2c89b69c2b068fc378daa952ba7f163c4a11628f55a4df523b3ef60405160405180910390a4505050565b6000828152606560205260409020611a2f90826123f0565b15610b7d57611a3c6115ac565b6001600160a01b0316816001600160a01b0316837f2f8788117e7eff1d82e926ec794901d17c78024a50270940304540a733656f0d60405160405180910390a45050565b6000610ba38383612405565b6000828152606560205260409020611aa4908261244a565b15610b7d57611ab16115ac565b6001600160a01b0316816001600160a01b0316837ff6391f5c32d9c69d2a47ea670b442974b53935d1edc7fd64eb21e047a839171b60405160405180910390a45050565b60fb5460ff16611b175760405162461bcd60e51b81526004016106e590613004565b60fb805460ff191690557f5db9ee0a495bf2e6ff9c91a7834c1ba4fdd244a5e8aa4e537bd38aeae4b073aa611b4a6115ac565b604051611b579190612e73565b60405180910390a1565b6000808080611b70868661245f565b9097909650945050505050565b60006001600160a01b03821663b93f9b0a600b5b6040518263ffffffff1660e01b8152600401611bad9190612f0c565b60206040518083038186803b158015611bc557600080fd5b505afa158015611bd9573d6000803e3d6000fd5b505050506040513d601f19601f82011682018060405250810190610ba69190612aa3565b6000611c0a8484846124bb565b90505b9392505050565b6000611c20888661185f565b821015611c2f57506000610d52565b878711611c3d575084610d52565b6000808411611c4c5782611c56565b611c56848461251a565b90506000611c6e86611c68848d61219a565b90612530565b90506000611c8087611c688c8e61219a565b9050611c99611c9382611c688c86612572565b8a61251a565b9b9a5050505050505050505050565b60009081526101c660205260409020600181015490540390565b60fb5460ff1615611ce55760405162461bcd60e51b81526004016106e590613378565b60fb805460ff191660011790557f62e78cea01bee320cd4e420270b5ea74000d11b0c9f74754ebdbfc544b05a258611b4a6115ac565b303b1590565b600054610100900460ff1680611d3a5750611d3a611d1b565b80611d48575060005460ff16155b611d645760405162461bcd60e51b81526004016106e5906135af565b600054610100900460ff16158015611d8f576000805460ff1961ff0019909116610100171660011790555b8015611da1576000805461ff00191690555b50565b600054610100900460ff1680611dbd5750611dbd611d1b565b80611dcb575060005460ff16155b611de75760405162461bcd60e51b81526004016106e5906135af565b600054610100900460ff16158015611e12576000805460ff1961ff0019909116610100171660011790555b611d8f6301ffc9a760e01b6125ac565b600054610100900460ff1680611e3b5750611e3b611d1b565b80611e49575060005460ff16155b611e655760405162461bcd60e51b81526004016106e5906135af565b600054610100900460ff16158015611e90576000805460ff1961ff0019909116610100171660011790555b8251611ea39060ce9060208601906129f4565b508151611eb79060cf9060208501906129f4565b50611ec86380ac58cd60e01b6125ac565b611ed8635b5e139f60e01b6125ac565b611ee863780e9d6360e01b6125ac565b801561079d576000805461ff0019169055505050565b600054610100900460ff1680611f175750611f17611d1b565b80611f25575060005460ff16155b611f415760405162461bcd60e51b81526004016106e5906135af565b600054610100900460ff16158015611f6c576000805460ff1961ff0019909116610100171660011790555b60fb805460ff191690558015611da1576000805461ff001916905550565b600054610100900460ff1680611fa35750611fa3611d1b565b80611fb1575060005460ff16155b611fcd5760405162461bcd60e51b81526004016106e5906135af565b600054610100900460ff16158015611ff8576000805460ff1961ff0019909116610100171660011790555b610191805460ff191660011790558015611da1576000805461ff001916905550565b60009182526065602052604090912060020155565b6000610ba3836001600160a01b0384166125fb565b6000610ba68242612613565b61205b848484611909565b6120678484848461262f565b6110875760405162461bcd60e51b81526004016106e59061307c565b6060816120a857506040805180820190915260018152600360fc1b6020820152610623565b8160005b81156120c057600101600a820491506120ac565b60608167ffffffffffffffff811180156120d957600080fd5b506040519080825280601f01601f191660200182016040528015612104576020820181803683370190505b50859350905060001982015b831561215557600a840660300160f81b8282806001900393508151811061213357fe5b60200101906001600160f81b031916908160001a905350600a84049350612110565b50949350505050565b6000610ba682612769565b611087846323b872dd60e01b85858560405160240161181193929190612ec4565b6000610ba383836125fb565b5490565b6000610ba383836040518060400160405280601e81526020017f536166654d6174683a207375627472616374696f6e206f766572666c6f770000815250612781565b80546001019055565b6001600160a01b03821661220b5760405162461bcd60e51b81526004016106e5906134b6565b6122148161159f565b156122315760405162461bcd60e51b81526004016106e590613134565b61223d600083836123b7565b6001600160a01b038216600090815260c96020526040902061225f90826123ce565b5061226c60ca82846123da565b5060405181906001600160a01b038416906000907fddf252ad1be2c89b69c2b068fc378daa952ba7f163c4a11628f55a4df523b3ef908290a45050565b6122bb826001600160a01b03166127ad565b6122d75760405162461bcd60e51b81526004016106e590613931565b60006060836001600160a01b0316836040516122f39190612dd6565b6000604051808303816000865af19150503d8060008114612330576040519150601f19603f3d011682016040523d82523d6000602084013e612335565b606091505b5091509150816123575760405162461bcd60e51b81526004016106e5906132a7565b80511561108757808060200190518101906123729190612cae565b6110875760405162461bcd60e51b81526004016106e590613805565b6000610ba383600201548460030154856000015486600401548760050154886006015488611c14565b61079d8383836127e6565b6000610ba38383612816565b6000610ba383836128dc565b6000611c0a84846001600160a01b038516612926565b6000610ba3836001600160a01b0384166128dc565b815460009082106124285760405162461bcd60e51b81526004016106e590612f28565b82600001828154811061243757fe5b9060005260206000200154905092915050565b6000610ba3836001600160a01b038416612816565b8154600090819083106124845760405162461bcd60e51b81526004016106e590613474565b600084600001848154811061249557fe5b906000526020600020906002020190508060000154816001015492509250509250929050565b600082815260018401602052604081205482816124eb5760405162461bcd60e51b81526004016106e59190612f15565b508460000160018203815481106124fe57fe5b9060005260206000209060020201600101549150509392505050565b60008183106125295781610ba3565b5090919050565b6000610ba383836040518060400160405280601a81526020017f536166654d6174683a206469766973696f6e206279207a65726f0000000000008152506129bd565b60008261258157506000610ba6565b8282028284828161258e57fe5b0414610ba35760405162461bcd60e51b81526004016106e5906134eb565b6001600160e01b031980821614156125d65760405162461bcd60e51b81526004016106e5906130ce565b6001600160e01b0319166000908152609760205260409020805460ff19166001179055565b60009081526001919091016020526040902054151590565b6001820154600090610ba390612629858561238e565b9061219a565b6000612643846001600160a01b03166127ad565b61264f57506001611901565b600060606001600160a01b038616630a85bd0160e11b61266d6115ac565b8988886040516024016126839493929190612e87565b60408051601f198184030181529181526020820180516001600160e01b03166001600160e01b03199094169390931790925290516126c19190612dd6565b6000604051808303816000865af19150503d80600081146126fe576040519150601f19603f3d011682016040523d82523d6000602084013e612703565b606091505b5091509150816127355780511561271d5780518082602001fd5b60405162461bcd60e51b81526004016106e59061307c565b60008180602001905181019061274b9190612d43565b6001600160e01b031916630a85bd0160e11b14935061190192505050565b60006001600160a01b03821663b93f9b0a6012611b91565b600081848411156127a55760405162461bcd60e51b81526004016106e59190612f15565b505050900390565b6000813f7fc5d2460186f7233c927e7db2dcc703c0e500b653ca82273b7bfad8045d85a470818114801590611901575050151592915050565b6127f183838361079d565b6127f9610d0d565b1561079d5760405162461bcd60e51b81526004016106e590612f6a565b600081815260018301602052604081205480156128d2578354600019808301919081019060009087908390811061284957fe5b906000526020600020015490508087600001848154811061286657fe5b60009182526020808320909101929092558281526001898101909252604090209084019055865487908061289657fe5b60019003818190600052602060002001600090559055866001016000878152602001908152602001600020600090556001945050505050610ba6565b6000915050610ba6565b60006128e883836125fb565b61291e57508154600181810184556000848152602080822090930184905584548482528286019093526040902091909155610ba6565b506000610ba6565b60008281526001840160205260408120548061298b575050604080518082018252838152602080820184815286546001818101895560008981528481209551600290930290950191825591519082015586548684528188019092529290912055611c0d565b8285600001600183038154811061299e57fe5b9060005260206000209060020201600101819055506000915050611c0d565b600081836129de5760405162461bcd60e51b81526004016106e59190612f15565b5060008385816129ea57fe5b0495945050505050565b828054600181600116156101000203166002900490600052602060002090601f016020900481019282601f10612a3557805160ff1916838001178555612a62565b82800160010185558215612a62579182015b82811115612a62578251825591602001919060010190612a47565b50612a6e929150612a72565b5090565b5b80821115612a6e5760008155600101612a73565b600060208284031215612a98578081fd5b8135610ba381613ac2565b600060208284031215612ab4578081fd5b8151610ba381613ac2565b60008060408385031215612ad1578081fd5b8235612adc81613ac2565b91506020830135612aec81613ac2565b809150509250929050565b600080600060608486031215612b0b578081fd5b8335612b1681613ac2565b92506020840135612b2681613ac2565b929592945050506040919091013590565b60008060008060808587031215612b4c578081fd5b8435612b5781613ac2565b9350602085810135612b6881613ac2565b935060408601359250606086013567ffffffffffffffff80821115612b8b578384fd5b818801915088601f830112612b9e578384fd5b813581811115612bac578485fd5b604051601f8201601f1916810185018381118282101715612bcb578687fd5b60405281815283820185018b1015612be1578586fd5b81858501868301379081019093019390935250939692955090935050565b60008060408385031215612c11578182fd5b8235612c1c81613ac2565b91506020830135612aec81613ad7565b600080600060608486031215612b0b578283fd5b60008060408385031215612c52578182fd5b8235612c5d81613ac2565b946020939093013593505050565b600080600080600060a08688031215612c82578081fd5b8535612c8d81613ac2565b97602087013597506040870135966060810135965060800135945092505050565b600060208284031215612cbf578081fd5b8151610ba381613ad7565b600060208284031215612cdb578081fd5b5035919050565b60008060408385031215612cf4578182fd5b823591506020830135612aec81613ac2565b60008060408385031215612d18578182fd5b50508035926020909101359150565b600060208284031215612d38578081fd5b8135610ba381613ae5565b600060208284031215612d54578081fd5b8151610ba381613ae5565b600080600080600080600060e0888a031215612d79578485fd5b505085359760208701359750604087013596606081013596506080810135955060a0810135945060c0013592509050565b60008151808452612dc2816020860160208601613a96565b601f01601f19169290920160200192915050565b60008251612de8818460208701613a96565b9190910192915050565b6000808454600180821660008114612e115760018114612e2857612e57565b60ff198316865260028304607f1686019350612e57565b600283048886526020808720875b83811015612e4f5781548a820152908501908201612e36565b505050860193505b5050508351612e6a818360208801613a96565b01949350505050565b6001600160a01b0391909116815260200190565b6001600160a01b0385811682528416602082015260408101839052608060608201819052600090612eba90830184612daa565b9695505050505050565b6001600160a01b039384168152919092166020820152604081019190915260600190565b6001600160a01b03929092168252602082015260400190565b901515815260200190565b90815260200190565b600060208252610ba36020830184612daa565b60208082526022908201527f456e756d657261626c655365743a20696e646578206f7574206f6620626f756e604082015261647360f01b606082015260800190565b6020808252602b908201527f4552433732315061757361626c653a20746f6b656e207472616e73666572207760408201526a1a1a5b19481c185d5cd95960aa1b606082015260800190565b6020808252602f908201527f416363657373436f6e74726f6c3a2073656e646572206d75737420626520616e60408201526e0818591b5a5b881d1bc819dc985b9d608a1b606082015260800190565b60208082526014908201527314185d5cd8589b194e881b9bdd081c185d5cd95960621b604082015260600190565b6020808252602a908201527f4f776e657220616e6420636f6e666967206164647265737365732063616e6e6f6040820152697420626520656d70747960b01b606082015260800190565b60208082526032908201527f4552433732313a207472616e7366657220746f206e6f6e20455243373231526560408201527131b2b4bb32b91034b6b83632b6b2b73a32b960711b606082015260800190565b6020808252601c908201527f4552433136353a20696e76616c696420696e7465726661636520696400000000604082015260600190565b60208082526015908201527443616e6e6f74206c6f61642030207265776172647360581b604082015260600190565b6020808252601c908201527f4552433732313a20746f6b656e20616c7265616479206d696e74656400000000604082015260600190565b602080825260179082015276125b9d985b1a59081d995cdd1a5b99d25b9d195c9d985b604a1b604082015260600190565b6020808252601b908201527f536166654d6174683a206164646974696f6e206f766572666c6f770000000000604082015260600190565b6020808252603e908201527f4552433732315072657365744d696e7465725061757365724175746f49643a2060408201527f6d75737420686176652070617573657220726f6c6520746f2070617573650000606082015260800190565b60208082526024908201527f4552433732313a207472616e7366657220746f20746865207a65726f206164646040820152637265737360e01b606082015260800190565b60208082526019908201527822a9219b99189d1030b8383937bb32903a379031b0b63632b960391b604082015260600190565b6020808252818101527f5361666545524332303a206c6f772d6c6576656c2063616c6c206661696c6564604082015260600190565b6020808252602c908201527f4552433732313a206f70657261746f7220717565727920666f72206e6f6e657860408201526b34b9ba32b73a103a37b5b2b760a11b606082015260800190565b60208082526030908201527f416363657373436f6e74726f6c3a2073656e646572206d75737420626520616e60408201526f2061646d696e20746f207265766f6b6560801b606082015260800190565b60208082526010908201526f14185d5cd8589b194e881c185d5cd95960821b604082015260600190565b60208082526016908201527511dc985b9d081a185cc8199d5b1b1e481d995cdd195960521b604082015260600190565b60208082526038908201527f4552433732313a20617070726f76652063616c6c6572206973206e6f74206f776040820152771b995c881b9bdc88185c1c1c9bdd995908199bdc88185b1b60421b606082015260800190565b6020808252602a908201527f4552433732313a2062616c616e636520717565727920666f7220746865207a65604082015269726f206164647265737360b01b606082015260800190565b60208082526022908201527f456e756d657261626c654d61703a20696e646578206f7574206f6620626f756e604082015261647360f01b606082015260800190565b6020808252818101527f4552433732313a206d696e7420746f20746865207a65726f2061646472657373604082015260600190565b60208082526021908201527f536166654d6174683a206d756c7469706c69636174696f6e206f766572666c6f6040820152607760f81b606082015260800190565b6020808252601e908201527f4772616e74206e6f7420646566696e656420666f7220746f6b656e2069640000604082015260600190565b6020808252602c908201527f4552433732313a20617070726f76656420717565727920666f72206e6f6e657860408201526b34b9ba32b73a103a37b5b2b760a11b606082015260800190565b6020808252602e908201527f436f6e747261637420696e7374616e63652068617320616c726561647920626560408201526d195b881a5b9a5d1a585b1a5e995960921b606082015260800190565b60208082526029908201527f4552433732313a207472616e73666572206f6620746f6b656e2074686174206960408201526839903737ba1037bbb760b91b606082015260800190565b6020808252602f908201527f4552433732314d657461646174613a2055524920717565727920666f72206e6f60408201526e3732bc34b9ba32b73a103a37b5b2b760891b606082015260800190565b60208082526031908201527f4d7573742068617665206469737472696275746f7220726f6c6520746f207065604082015270393337b936903a3434b99030b1ba34b7b760791b606082015260800190565b60208082526021908201527f4552433732313a20617070726f76616c20746f2063757272656e74206f776e656040820152603960f91b606082015260800190565b60208082526031908201527f4552433732313a207472616e736665722063616c6c6572206973206e6f74206f6040820152701ddb995c881b9bdc88185c1c1c9bdd9959607a1b606082015260800190565b6020808252600d908201526c1858d8d95cdcc819195b9a5959609a1b604082015260600190565b6020808252601e908201527f4772616e742068617320616c7265616479206265656e207265766f6b65640000604082015260600190565b60208082526015908201527410d85b9b9bdd0819dc985b9d080c08185b5bdd5b9d605a1b604082015260600190565b6020808252602a908201527f5361666545524332303a204552433230206f7065726174696f6e20646964206e6040820152691bdd081cdd58d8d9595960b21b606082015260800190565b6020808252601f908201527f5265656e7472616e637947756172643a207265656e7472616e742063616c6c00604082015260600190565b6020808252602d908201527f43616e6e6f74206772616e7420616d6f756e742064756520746f20696e73756660408201526c66696369656e742066756e647360981b606082015260800190565b602080825260409082018190527f4552433732315072657365744d696e7465725061757365724175746f49643a20908201527f6d75737420686176652070617573657220726f6c6520746f20756e7061757365606082015260800190565b6020808252601f908201527f5361666545524332303a2063616c6c20746f206e6f6e2d636f6e747261637400604082015260600190565b6020808252602b908201527f4d75737420686176652061646d696e20726f6c6520746f20706572666f726d2060408201526a3a3434b99030b1ba34b7b760a91b606082015260800190565b6020808252602f908201527f416363657373436f6e74726f6c3a2063616e206f6e6c792072656e6f756e636560408201526e103937b632b9903337b91039b2b63360891b606082015260800190565b60208082526029908201527f436c696666206c656e6774682063616e6e6f74206578636565642076657374696040820152680dcce40d8cadccee8d60bb1b606082015260800190565b93845260208401929092526040830152606082015260800190565b968752602087019590955260408601939093526060850191909152608084015260a083015260c082015260e00190565b60005b83811015613ab1578181015183820152602001613a99565b838111156110875750506000910152565b6001600160a01b0381168114611da157600080fd5b8015158114611da157600080fd5b6001600160e01b031981168114611da157600080fdfefbd454f36a7e1a388bd6fc3ab10d434aa4578f811acbbcf33afb1c697486313cb19546dff01e856fb3f010c267a7b1c60363cf8a4664e21cc89c26224620214e4552433732313a206f776e657220717565727920666f72206e6f6e6578697374656e7420746f6b656e65d7a28e3265b37a6474929f336521b332c1681b933f6cb9f3376673440d862a476f6c6466696e636820563220436f6d6d756e697479205265776172647320546f6b656e73a2646970667358221220d618eaf2a019ef24bfc6e21f96fc8caed824e09af9878566968d73b34bfb921164736f6c634300060c0033",
  "devdoc": {
    "kind": "dev",
    "methods": {
      "approve(address,uint256)": {
        "details": "Approves another address to transfer the given token ID The zero address indicates there is no approved address. There can only be one approved address per token at a given time. Can only be called by the token owner or an approved operator.",
        "params": {
          "to": "address to be approved for the given token ID",
          "tokenId": "uint256 ID of the token to be approved"
        }
      },
      "balanceOf(address)": {
        "details": "Gets the balance of the specified address.",
        "params": {
          "owner": "address to query the balance of"
        },
        "returns": {
          "_0": "uint256 representing the amount owned by the passed address"
        }
      },
      "baseURI()": {
        "details": "Returns the base URI set via {_setBaseURI}. This will be automatically added as a prefix in {tokenURI} to each token's URI, or to the token ID if no specific URI is set for that token ID."
      },
      "claimableRewards(uint256)": {
        "returns": {
          "rewards": "Amount of rewards denominated in `rewardsToken()`"
        }
      },
      "getApproved(uint256)": {
        "details": "Gets the approved address for a token ID, or zero if no address set Reverts if the token ID does not exist.",
        "params": {
          "tokenId": "uint256 ID of the token to query the approval of"
        },
        "returns": {
          "_0": "address currently approved for the given token ID"
        }
      },
      "getReward(uint256)": {
        "params": {
          "tokenId": "A grant token ID"
        }
      },
      "getRoleAdmin(bytes32)": {
        "details": "Returns the admin role that controls `role`. See {grantRole} and {revokeRole}. To change a role's admin, use {_setRoleAdmin}."
      },
      "getRoleMember(bytes32,uint256)": {
        "details": "Returns one of the accounts that have `role`. `index` must be a value between 0 and {getRoleMemberCount}, non-inclusive. Role bearers are not sorted in any particular way, and their ordering may change at any point. WARNING: When using {getRoleMember} and {getRoleMemberCount}, make sure you perform all queries on the same block. See the following https://forum.openzeppelin.com/t/iterating-over-elements-on-enumerableset-in-openzeppelin-contracts/2296[forum post] for more information."
      },
      "getRoleMemberCount(bytes32)": {
        "details": "Returns the number of accounts that have `role`. Can be used together with {getRoleMember} to enumerate all bearers of a role."
      },
      "grant(address,uint256,uint256,uint256,uint256)": {
        "params": {
          "amount": "The amount of `rewardsToken()` to grant.",
          "cliffLength": "The duration (in seconds) from the start of the grant, before which has elapsed the vested amount remains 0.",
          "recipient": "The recipient of the grant.",
          "vestingInterval": "The interval (in seconds) at which vesting occurs.",
          "vestingLength": "The duration (in seconds) over which the grant vests."
        }
      },
      "grantRole(bytes32,address)": {
        "details": "Grants `role` to `account`. If `account` had not been already granted `role`, emits a {RoleGranted} event. Requirements: - the caller must have ``role``'s admin role."
      },
      "hasRole(bytes32,address)": {
        "details": "Returns `true` if `account` has been granted `role`."
      },
      "isApprovedForAll(address,address)": {
        "details": "Tells whether an operator is approved by a given owner.",
        "params": {
          "operator": "operator address which you want to query the approval of",
          "owner": "owner address which you want to query the approval of"
        },
        "returns": {
          "_0": "bool whether the given operator is approved by the given owner"
        }
      },
      "name()": {
        "details": "Gets the token name.",
        "returns": {
          "_0": "string representing the token name"
        }
      },
      "ownerOf(uint256)": {
        "details": "Gets the owner of the specified token ID.",
        "params": {
          "tokenId": "uint256 ID of the token to query the owner of"
        },
        "returns": {
          "_0": "address currently marked as the owner of the given token ID"
        }
      },
      "pause()": {
        "details": "Pauses all token transfers. See {ERC721Pausable} and {Pausable-_pause}. Requirements: - the caller must have the `PAUSER_ROLE`."
      },
      "paused()": {
        "details": "Returns true if the contract is paused, and false otherwise."
      },
      "renounceRole(bytes32,address)": {
        "details": "Revokes `role` from the calling account. Roles are often managed via {grantRole} and {revokeRole}: this function's purpose is to provide a mechanism for accounts to lose their privileges if they are compromised (such as when a trusted device is misplaced). If the calling account had been granted `role`, emits a {RoleRevoked} event. Requirements: - the caller must be `account`."
      },
      "revokeGrant(uint256)": {
        "params": {
          "tokenId": "The tokenId corresponding to the grant whose unvested rewards to revoke."
        }
      },
      "revokeRole(bytes32,address)": {
        "details": "Revokes `role` from `account`. If `account` had been granted `role`, emits a {RoleRevoked} event. Requirements: - the caller must have ``role``'s admin role."
      },
      "safeTransferFrom(address,address,uint256)": {
        "details": "Safely transfers the ownership of a given token ID to another address If the target address is a contract, it must implement {IERC721Receiver-onERC721Received}, which is called upon a safe transfer, and return the magic value `bytes4(keccak256(\"onERC721Received(address,address,uint256,bytes)\"))`; otherwise, the transfer is reverted. Requires the msg.sender to be the owner, approved, or operator",
        "params": {
          "from": "current owner of the token",
          "to": "address to receive the ownership of the given token ID",
          "tokenId": "uint256 ID of the token to be transferred"
        }
      },
      "safeTransferFrom(address,address,uint256,bytes)": {
        "details": "Safely transfers the ownership of a given token ID to another address If the target address is a contract, it must implement {IERC721Receiver-onERC721Received}, which is called upon a safe transfer, and return the magic value `bytes4(keccak256(\"onERC721Received(address,address,uint256,bytes)\"))`; otherwise, the transfer is reverted. Requires the _msgSender() to be the owner, approved, or operator",
        "params": {
          "_data": "bytes data to send along with a safe transfer check",
          "from": "current owner of the token",
          "to": "address to receive the ownership of the given token ID",
          "tokenId": "uint256 ID of the token to be transferred"
        }
      },
      "setApprovalForAll(address,bool)": {
        "details": "Sets or unsets the approval of a given operator An operator is allowed to transfer all tokens of the sender on their behalf.",
        "params": {
          "approved": "representing the status of the approval to be set",
          "operator": "operator address to set the approval"
        }
      },
      "supportsInterface(bytes4)": {
        "details": "See {IERC165-supportsInterface}. Time complexity O(1), guaranteed to always use less than 30 000 gas."
      },
      "symbol()": {
        "details": "Gets the token symbol.",
        "returns": {
          "_0": "string representing the token symbol"
        }
      },
      "tokenByIndex(uint256)": {
        "details": "Gets the token ID at a given index of all the tokens in this contract Reverts if the index is greater or equal to the total number of tokens.",
        "params": {
          "index": "uint256 representing the index to be accessed of the tokens list"
        },
        "returns": {
          "_0": "uint256 token ID at the given index of the tokens list"
        }
      },
      "tokenOfOwnerByIndex(address,uint256)": {
        "details": "Gets the token ID at a given index of the tokens list of the requested owner.",
        "params": {
          "index": "uint256 representing the index to be accessed of the requested tokens list",
          "owner": "address owning the tokens list to be accessed"
        },
        "returns": {
          "_0": "uint256 token ID at the given index of the tokens list owned by the requested address"
        }
      },
      "tokenURI(uint256)": {
        "details": "Returns the URI for a given token ID. May return an empty string. If a base URI is set (via {_setBaseURI}), it is added as a prefix to the token's own URI (via {_setTokenURI}). If there is a base URI but no token URI, the token's ID will be used as its URI when appending it to the base URI. This pattern for autogenerated token URIs can lead to large gas savings. .Examples |=== |`_setBaseURI()` |`_setTokenURI()` |`tokenURI()` | \"\" | \"\" | \"\" | \"\" | \"token.uri/123\" | \"token.uri/123\" | \"token.uri/\" | \"123\" | \"token.uri/123\" | \"token.uri/\" | \"\" | \"token.uri/<tokenId>\" |=== Requirements: - `tokenId` must exist."
      },
      "totalSupply()": {
        "details": "Gets the total amount of tokens stored by the contract.",
        "returns": {
          "_0": "uint256 representing the total amount of tokens"
        }
      },
      "totalVestedAt(uint256,uint256,uint256,uint256,uint256,uint256,uint256)": {
        "returns": {
          "rewards": "Amount of rewards denominated in `rewardsToken()`"
        }
      },
      "transferFrom(address,address,uint256)": {
        "details": "Transfers the ownership of a given token ID to another address. Usage of this method is discouraged, use {safeTransferFrom} whenever possible. Requires the msg.sender to be the owner, approved, or operator.",
        "params": {
          "from": "current owner of the token",
          "to": "address to receive the ownership of the given token ID",
          "tokenId": "uint256 ID of the token to be transferred"
        }
      },
      "unpause()": {
        "details": "Unpauses all token transfers. See {ERC721Pausable} and {Pausable-_unpause}. Requirements: - the caller must have the `PAUSER_ROLE`."
      }
    },
    "stateVariables": {
      "grants": {
        "details": "NFT tokenId => rewards grant"
      }
    },
    "version": 1
  },
  "userdoc": {
    "kind": "user",
    "methods": {
      "claimableRewards(uint256)": {
        "notice": "Returns the rewards claimable by a given grant token, taking into   account vesting schedule."
      },
      "getReward(uint256)": {
        "notice": "Claim rewards for a given grant"
      },
      "grant(address,uint256,uint256,uint256,uint256)": {
        "notice": "Grant rewards to a recipient. The recipient address receives an   an NFT representing their rewards grant. They can present the NFT to `getReward()`   to claim their rewards. Rewards vest over a schedule. If the given `vestingInterval`   is 0, then `vestingInterval` will be equal to `vestingLength`."
      },
      "loadRewards(uint256)": {
        "notice": "Transfer rewards from msg.sender, to be used for reward distribution"
      },
      "revokeGrant(uint256)": {
        "notice": "Revokes rewards that have not yet vested, for a grant. The unvested rewards are now considered available for allocation in another grant."
      },
      "rewardsAvailable()": {
        "notice": "Total rewards available for granting, denominated in `rewardsToken()`"
      },
      "rewardsToken()": {
        "notice": "The token being disbursed as rewards"
      },
      "tokenLaunchTimeInSeconds()": {
        "notice": "Token launch time in seconds. This is used in vesting."
      },
      "totalVestedAt(uint256,uint256,uint256,uint256,uint256,uint256,uint256)": {
        "notice": "Returns the rewards that will have vested for some grant with the given params."
      },
      "updateGoldfinchConfig()": {
        "notice": "updates current config"
      }
    },
    "version": 1
  },
  "storageLayout": {
    "storage": [
      {
        "astId": 151,
        "contract": "contracts/rewards/CommunityRewards.sol:CommunityRewards",
        "label": "initialized",
        "offset": 0,
        "slot": "0",
        "type": "t_bool"
      },
      {
        "astId": 154,
        "contract": "contracts/rewards/CommunityRewards.sol:CommunityRewards",
        "label": "initializing",
        "offset": 1,
        "slot": "0",
        "type": "t_bool"
      },
      {
        "astId": 219,
        "contract": "contracts/rewards/CommunityRewards.sol:CommunityRewards",
        "label": "______gap",
        "offset": 0,
        "slot": "1",
        "type": "t_array(t_uint256)50_storage"
      },
      {
        "astId": 144,
        "contract": "contracts/rewards/CommunityRewards.sol:CommunityRewards",
        "label": "__gap",
        "offset": 0,
        "slot": "51",
        "type": "t_array(t_uint256)50_storage"
      },
      {
        "astId": 264,
        "contract": "contracts/rewards/CommunityRewards.sol:CommunityRewards",
        "label": "_roles",
        "offset": 0,
        "slot": "101",
        "type": "t_mapping(t_bytes32,t_struct(RoleData)260_storage)"
      },
      {
        "astId": 509,
        "contract": "contracts/rewards/CommunityRewards.sol:CommunityRewards",
        "label": "__gap",
        "offset": 0,
        "slot": "102",
        "type": "t_array(t_uint256)49_storage"
      },
      {
        "astId": 527,
        "contract": "contracts/rewards/CommunityRewards.sol:CommunityRewards",
        "label": "_supportedInterfaces",
        "offset": 0,
        "slot": "151",
        "type": "t_mapping(t_bytes4,t_bool)"
      },
      {
        "astId": 584,
        "contract": "contracts/rewards/CommunityRewards.sol:CommunityRewards",
        "label": "__gap",
        "offset": 0,
        "slot": "152",
        "type": "t_array(t_uint256)49_storage"
      },
      {
        "astId": 2269,
        "contract": "contracts/rewards/CommunityRewards.sol:CommunityRewards",
        "label": "_holderTokens",
        "offset": 0,
        "slot": "201",
        "type": "t_mapping(t_address,t_struct(UintSet)4313_storage)"
      },
      {
        "astId": 2271,
        "contract": "contracts/rewards/CommunityRewards.sol:CommunityRewards",
        "label": "_tokenOwners",
        "offset": 0,
        "slot": "202",
        "type": "t_struct(UintToAddressMap)3838_storage"
      },
      {
        "astId": 2275,
        "contract": "contracts/rewards/CommunityRewards.sol:CommunityRewards",
        "label": "_tokenApprovals",
        "offset": 0,
        "slot": "204",
        "type": "t_mapping(t_uint256,t_address)"
      },
      {
        "astId": 2281,
        "contract": "contracts/rewards/CommunityRewards.sol:CommunityRewards",
        "label": "_operatorApprovals",
        "offset": 0,
        "slot": "205",
        "type": "t_mapping(t_address,t_mapping(t_address,t_bool))"
      },
      {
        "astId": 2283,
        "contract": "contracts/rewards/CommunityRewards.sol:CommunityRewards",
        "label": "_name",
        "offset": 0,
        "slot": "206",
        "type": "t_string_storage"
      },
      {
        "astId": 2285,
        "contract": "contracts/rewards/CommunityRewards.sol:CommunityRewards",
        "label": "_symbol",
        "offset": 0,
        "slot": "207",
        "type": "t_string_storage"
      },
      {
        "astId": 2289,
        "contract": "contracts/rewards/CommunityRewards.sol:CommunityRewards",
        "label": "_tokenURIs",
        "offset": 0,
        "slot": "208",
        "type": "t_mapping(t_uint256,t_string_storage)"
      },
      {
        "astId": 2291,
        "contract": "contracts/rewards/CommunityRewards.sol:CommunityRewards",
        "label": "_baseURI",
        "offset": 0,
        "slot": "209",
        "type": "t_string_storage"
      },
      {
        "astId": 3197,
        "contract": "contracts/rewards/CommunityRewards.sol:CommunityRewards",
        "label": "__gap",
        "offset": 0,
        "slot": "210",
        "type": "t_array(t_uint256)41_storage"
      },
      {
        "astId": 4429,
        "contract": "contracts/rewards/CommunityRewards.sol:CommunityRewards",
        "label": "_paused",
        "offset": 0,
        "slot": "251",
        "type": "t_bool"
      },
      {
        "astId": 4518,
        "contract": "contracts/rewards/CommunityRewards.sol:CommunityRewards",
        "label": "__gap",
        "offset": 0,
        "slot": "252",
        "type": "t_array(t_uint256)49_storage"
      },
      {
        "astId": 3265,
        "contract": "contracts/rewards/CommunityRewards.sol:CommunityRewards",
        "label": "__gap",
        "offset": 0,
        "slot": "301",
        "type": "t_array(t_uint256)50_storage"
      },
      {
        "astId": 7677,
        "contract": "contracts/rewards/CommunityRewards.sol:CommunityRewards",
        "label": "_tokenIdTracker",
        "offset": 0,
        "slot": "351",
        "type": "t_struct(Counter)3518_storage"
      },
      {
        "astId": 7735,
        "contract": "contracts/rewards/CommunityRewards.sol:CommunityRewards",
        "label": "__gap",
        "offset": 0,
        "slot": "352",
        "type": "t_array(t_uint256)49_storage"
      },
      {
        "astId": 4527,
        "contract": "contracts/rewards/CommunityRewards.sol:CommunityRewards",
        "label": "_notEntered",
        "offset": 0,
        "slot": "401",
        "type": "t_bool"
      },
      {
        "astId": 4568,
        "contract": "contracts/rewards/CommunityRewards.sol:CommunityRewards",
        "label": "__gap",
        "offset": 0,
        "slot": "402",
        "type": "t_array(t_uint256)49_storage"
      },
      {
        "astId": 31350,
        "contract": "contracts/rewards/CommunityRewards.sol:CommunityRewards",
        "label": "config",
        "offset": 0,
        "slot": "451",
        "type": "t_contract(GoldfinchConfig)17564"
      },
      {
        "astId": 31353,
        "contract": "contracts/rewards/CommunityRewards.sol:CommunityRewards",
        "label": "rewardsAvailable",
        "offset": 0,
        "slot": "452",
        "type": "t_uint256"
      },
      {
        "astId": 31356,
        "contract": "contracts/rewards/CommunityRewards.sol:CommunityRewards",
        "label": "tokenLaunchTimeInSeconds",
        "offset": 0,
        "slot": "453",
        "type": "t_uint256"
      },
      {
        "astId": 31361,
        "contract": "contracts/rewards/CommunityRewards.sol:CommunityRewards",
        "label": "grants",
        "offset": 0,
        "slot": "454",
        "type": "t_mapping(t_uint256,t_struct(Rewards)10831_storage)"
      }
    ],
    "types": {
      "t_address": {
        "encoding": "inplace",
        "label": "address",
        "numberOfBytes": "20"
      },
      "t_array(t_bytes32)dyn_storage": {
        "base": "t_bytes32",
        "encoding": "dynamic_array",
        "label": "bytes32[]",
        "numberOfBytes": "32"
      },
      "t_array(t_struct(MapEntry)3566_storage)dyn_storage": {
        "base": "t_struct(MapEntry)3566_storage",
        "encoding": "dynamic_array",
        "label": "struct EnumerableMap.MapEntry[]",
        "numberOfBytes": "32"
      },
      "t_array(t_uint256)41_storage": {
        "base": "t_uint256",
        "encoding": "inplace",
        "label": "uint256[41]",
        "numberOfBytes": "1312"
      },
      "t_array(t_uint256)49_storage": {
        "base": "t_uint256",
        "encoding": "inplace",
        "label": "uint256[49]",
        "numberOfBytes": "1568"
      },
      "t_array(t_uint256)50_storage": {
        "base": "t_uint256",
        "encoding": "inplace",
        "label": "uint256[50]",
        "numberOfBytes": "1600"
      },
      "t_bool": {
        "encoding": "inplace",
        "label": "bool",
        "numberOfBytes": "1"
      },
      "t_bytes32": {
        "encoding": "inplace",
        "label": "bytes32",
        "numberOfBytes": "32"
      },
      "t_bytes4": {
        "encoding": "inplace",
        "label": "bytes4",
        "numberOfBytes": "4"
      },
      "t_contract(GoldfinchConfig)17564": {
        "encoding": "inplace",
        "label": "contract GoldfinchConfig",
        "numberOfBytes": "20"
      },
      "t_mapping(t_address,t_bool)": {
        "encoding": "mapping",
        "key": "t_address",
        "label": "mapping(address => bool)",
        "numberOfBytes": "32",
        "value": "t_bool"
      },
      "t_mapping(t_address,t_mapping(t_address,t_bool))": {
        "encoding": "mapping",
        "key": "t_address",
        "label": "mapping(address => mapping(address => bool))",
        "numberOfBytes": "32",
        "value": "t_mapping(t_address,t_bool)"
      },
      "t_mapping(t_address,t_struct(UintSet)4313_storage)": {
        "encoding": "mapping",
        "key": "t_address",
        "label": "mapping(address => struct EnumerableSet.UintSet)",
        "numberOfBytes": "32",
        "value": "t_struct(UintSet)4313_storage"
      },
      "t_mapping(t_bytes32,t_struct(RoleData)260_storage)": {
        "encoding": "mapping",
        "key": "t_bytes32",
        "label": "mapping(bytes32 => struct AccessControlUpgradeSafe.RoleData)",
        "numberOfBytes": "32",
        "value": "t_struct(RoleData)260_storage"
      },
      "t_mapping(t_bytes32,t_uint256)": {
        "encoding": "mapping",
        "key": "t_bytes32",
        "label": "mapping(bytes32 => uint256)",
        "numberOfBytes": "32",
        "value": "t_uint256"
      },
      "t_mapping(t_bytes4,t_bool)": {
        "encoding": "mapping",
        "key": "t_bytes4",
        "label": "mapping(bytes4 => bool)",
        "numberOfBytes": "32",
        "value": "t_bool"
      },
      "t_mapping(t_uint256,t_address)": {
        "encoding": "mapping",
        "key": "t_uint256",
        "label": "mapping(uint256 => address)",
        "numberOfBytes": "32",
        "value": "t_address"
      },
      "t_mapping(t_uint256,t_string_storage)": {
        "encoding": "mapping",
        "key": "t_uint256",
        "label": "mapping(uint256 => string)",
        "numberOfBytes": "32",
        "value": "t_string_storage"
      },
      "t_mapping(t_uint256,t_struct(Rewards)10831_storage)": {
        "encoding": "mapping",
        "key": "t_uint256",
        "label": "mapping(uint256 => struct CommunityRewardsVesting.Rewards)",
        "numberOfBytes": "32",
        "value": "t_struct(Rewards)10831_storage"
      },
      "t_string_storage": {
        "encoding": "bytes",
        "label": "string",
        "numberOfBytes": "32"
      },
      "t_struct(AddressSet)4204_storage": {
        "encoding": "inplace",
        "label": "struct EnumerableSet.AddressSet",
        "members": [
          {
            "astId": 4203,
            "contract": "contracts/rewards/CommunityRewards.sol:CommunityRewards",
            "label": "_inner",
            "offset": 0,
            "slot": "0",
            "type": "t_struct(Set)4024_storage"
          }
        ],
        "numberOfBytes": "64"
      },
      "t_struct(Counter)3518_storage": {
        "encoding": "inplace",
        "label": "struct Counters.Counter",
        "members": [
          {
            "astId": 3517,
            "contract": "contracts/rewards/CommunityRewards.sol:CommunityRewards",
            "label": "_value",
            "offset": 0,
            "slot": "0",
            "type": "t_uint256"
          }
        ],
        "numberOfBytes": "32"
      },
      "t_struct(Map)3574_storage": {
        "encoding": "inplace",
        "label": "struct EnumerableMap.Map",
        "members": [
          {
            "astId": 3569,
            "contract": "contracts/rewards/CommunityRewards.sol:CommunityRewards",
            "label": "_entries",
            "offset": 0,
            "slot": "0",
            "type": "t_array(t_struct(MapEntry)3566_storage)dyn_storage"
          },
          {
            "astId": 3573,
            "contract": "contracts/rewards/CommunityRewards.sol:CommunityRewards",
            "label": "_indexes",
            "offset": 0,
            "slot": "1",
            "type": "t_mapping(t_bytes32,t_uint256)"
          }
        ],
        "numberOfBytes": "64"
      },
      "t_struct(MapEntry)3566_storage": {
        "encoding": "inplace",
        "label": "struct EnumerableMap.MapEntry",
        "members": [
          {
            "astId": 3563,
            "contract": "contracts/rewards/CommunityRewards.sol:CommunityRewards",
            "label": "_key",
            "offset": 0,
            "slot": "0",
            "type": "t_bytes32"
          },
          {
            "astId": 3565,
            "contract": "contracts/rewards/CommunityRewards.sol:CommunityRewards",
            "label": "_value",
            "offset": 0,
            "slot": "1",
            "type": "t_bytes32"
          }
        ],
        "numberOfBytes": "64"
      },
      "t_struct(Rewards)10831_storage": {
        "encoding": "inplace",
        "label": "struct CommunityRewardsVesting.Rewards",
        "members": [
          {
            "astId": 10818,
            "contract": "contracts/rewards/CommunityRewards.sol:CommunityRewards",
            "label": "totalGranted",
            "offset": 0,
            "slot": "0",
            "type": "t_uint256"
          },
          {
            "astId": 10820,
            "contract": "contracts/rewards/CommunityRewards.sol:CommunityRewards",
            "label": "totalClaimed",
            "offset": 0,
            "slot": "1",
            "type": "t_uint256"
          },
          {
            "astId": 10822,
            "contract": "contracts/rewards/CommunityRewards.sol:CommunityRewards",
            "label": "startTime",
            "offset": 0,
            "slot": "2",
            "type": "t_uint256"
          },
          {
            "astId": 10824,
            "contract": "contracts/rewards/CommunityRewards.sol:CommunityRewards",
            "label": "endTime",
            "offset": 0,
            "slot": "3",
            "type": "t_uint256"
          },
          {
            "astId": 10826,
            "contract": "contracts/rewards/CommunityRewards.sol:CommunityRewards",
            "label": "cliffLength",
            "offset": 0,
            "slot": "4",
            "type": "t_uint256"
          },
          {
            "astId": 10828,
            "contract": "contracts/rewards/CommunityRewards.sol:CommunityRewards",
            "label": "vestingInterval",
            "offset": 0,
            "slot": "5",
            "type": "t_uint256"
          },
          {
            "astId": 10830,
            "contract": "contracts/rewards/CommunityRewards.sol:CommunityRewards",
            "label": "revokedAt",
            "offset": 0,
            "slot": "6",
            "type": "t_uint256"
          }
        ],
        "numberOfBytes": "224"
      },
      "t_struct(RoleData)260_storage": {
        "encoding": "inplace",
        "label": "struct AccessControlUpgradeSafe.RoleData",
        "members": [
          {
            "astId": 257,
            "contract": "contracts/rewards/CommunityRewards.sol:CommunityRewards",
            "label": "members",
            "offset": 0,
            "slot": "0",
            "type": "t_struct(AddressSet)4204_storage"
          },
          {
            "astId": 259,
            "contract": "contracts/rewards/CommunityRewards.sol:CommunityRewards",
            "label": "adminRole",
            "offset": 0,
            "slot": "2",
            "type": "t_bytes32"
          }
        ],
        "numberOfBytes": "96"
      },
      "t_struct(Set)4024_storage": {
        "encoding": "inplace",
        "label": "struct EnumerableSet.Set",
        "members": [
          {
            "astId": 4019,
            "contract": "contracts/rewards/CommunityRewards.sol:CommunityRewards",
            "label": "_values",
            "offset": 0,
            "slot": "0",
            "type": "t_array(t_bytes32)dyn_storage"
          },
          {
            "astId": 4023,
            "contract": "contracts/rewards/CommunityRewards.sol:CommunityRewards",
            "label": "_indexes",
            "offset": 0,
            "slot": "1",
            "type": "t_mapping(t_bytes32,t_uint256)"
          }
        ],
        "numberOfBytes": "64"
      },
      "t_struct(UintSet)4313_storage": {
        "encoding": "inplace",
        "label": "struct EnumerableSet.UintSet",
        "members": [
          {
            "astId": 4312,
            "contract": "contracts/rewards/CommunityRewards.sol:CommunityRewards",
            "label": "_inner",
            "offset": 0,
            "slot": "0",
            "type": "t_struct(Set)4024_storage"
          }
        ],
        "numberOfBytes": "64"
      },
      "t_struct(UintToAddressMap)3838_storage": {
        "encoding": "inplace",
        "label": "struct EnumerableMap.UintToAddressMap",
        "members": [
          {
            "astId": 3837,
            "contract": "contracts/rewards/CommunityRewards.sol:CommunityRewards",
            "label": "_inner",
            "offset": 0,
            "slot": "0",
            "type": "t_struct(Map)3574_storage"
          }
        ],
        "numberOfBytes": "64"
      },
      "t_uint256": {
        "encoding": "inplace",
        "label": "uint256",
        "numberOfBytes": "32"
      }
    }
  }
}