{
  "address": "0xA19c6586C600dc714B011b28EB466191349aDc24",
  "abi": [
    {
      "anonymous": false,
      "inputs": [
        {
          "indexed": true,
          "internalType": "address",
          "name": "who",
          "type": "address"
        },
        {
          "indexed": false,
          "internalType": "address",
          "name": "configAddress",
          "type": "address"
        }
      ],
      "name": "GoldfinchConfigUpdated",
      "type": "event"
    },
    {
      "anonymous": false,
      "inputs": [
        {
          "indexed": false,
          "internalType": "address",
          "name": "account",
          "type": "address"
        }
      ],
      "name": "Paused",
      "type": "event"
    },
    {
      "anonymous": false,
      "inputs": [
        {
          "indexed": true,
          "internalType": "bytes32",
          "name": "role",
          "type": "bytes32"
        },
        {
          "indexed": true,
          "internalType": "address",
          "name": "account",
          "type": "address"
        },
        {
          "indexed": true,
          "internalType": "address",
          "name": "sender",
          "type": "address"
        }
      ],
      "name": "RoleGranted",
      "type": "event"
    },
    {
      "anonymous": false,
      "inputs": [
        {
          "indexed": true,
          "internalType": "bytes32",
          "name": "role",
          "type": "bytes32"
        },
        {
          "indexed": true,
          "internalType": "address",
          "name": "account",
          "type": "address"
        },
        {
          "indexed": true,
          "internalType": "address",
          "name": "sender",
          "type": "address"
        }
      ],
      "name": "RoleRevoked",
      "type": "event"
    },
    {
      "anonymous": false,
      "inputs": [
        {
          "indexed": false,
          "internalType": "address",
          "name": "account",
          "type": "address"
        }
      ],
      "name": "Unpaused",
      "type": "event"
    },
    {
      "inputs": [],
      "name": "DEFAULT_ADMIN_ROLE",
      "outputs": [
        {
          "internalType": "bytes32",
          "name": "",
          "type": "bytes32"
        }
      ],
      "stateMutability": "view",
      "type": "function"
    },
    {
      "inputs": [],
      "name": "OWNER_ROLE",
      "outputs": [
        {
          "internalType": "bytes32",
          "name": "",
          "type": "bytes32"
        }
      ],
      "stateMutability": "view",
      "type": "function"
    },
    {
      "inputs": [],
      "name": "PAUSER_ROLE",
      "outputs": [
        {
          "internalType": "bytes32",
          "name": "",
          "type": "bytes32"
        }
      ],
      "stateMutability": "view",
      "type": "function"
    },
    {
      "inputs": [],
      "name": "SECONDS_PER_DAY",
      "outputs": [
        {
          "internalType": "uint256",
          "name": "",
          "type": "uint256"
        }
      ],
      "stateMutability": "view",
      "type": "function"
    },
    {
      "inputs": [
        {
          "internalType": "address",
          "name": "owner",
          "type": "address"
        }
      ],
      "name": "__BaseUpgradeablePausable__init",
      "outputs": [],
      "stateMutability": "nonpayable",
      "type": "function"
    },
    {
      "inputs": [],
      "name": "__PauserPausable__init",
      "outputs": [],
      "stateMutability": "nonpayable",
      "type": "function"
    },
    {
      "inputs": [],
      "name": "assess",
      "outputs": [
        {
          "internalType": "uint256",
          "name": "",
          "type": "uint256"
        },
        {
          "internalType": "uint256",
          "name": "",
          "type": "uint256"
        },
        {
          "internalType": "uint256",
          "name": "",
          "type": "uint256"
        }
      ],
      "stateMutability": "nonpayable",
      "type": "function"
    },
    {
      "inputs": [],
      "name": "balance",
      "outputs": [
        {
          "internalType": "uint256",
          "name": "",
          "type": "uint256"
        }
      ],
      "stateMutability": "view",
      "type": "function"
    },
    {
      "inputs": [],
      "name": "borrower",
      "outputs": [
        {
          "internalType": "address",
          "name": "",
          "type": "address"
        }
      ],
      "stateMutability": "view",
      "type": "function"
    },
    {
      "inputs": [],
      "name": "config",
      "outputs": [
        {
          "internalType": "contract GoldfinchConfig",
          "name": "",
          "type": "address"
        }
      ],
      "stateMutability": "view",
      "type": "function"
    },
    {
      "inputs": [],
      "name": "currentLimit",
      "outputs": [
        {
          "internalType": "uint256",
          "name": "",
          "type": "uint256"
        }
      ],
      "stateMutability": "view",
      "type": "function"
    },
    {
      "inputs": [
        {
          "internalType": "uint256",
          "name": "amount",
          "type": "uint256"
        }
      ],
      "name": "drawdown",
      "outputs": [],
      "stateMutability": "nonpayable",
      "type": "function"
    },
    {
      "inputs": [
        {
          "internalType": "bytes32",
          "name": "role",
          "type": "bytes32"
        }
      ],
      "name": "getRoleAdmin",
      "outputs": [
        {
          "internalType": "bytes32",
          "name": "",
          "type": "bytes32"
        }
      ],
      "stateMutability": "view",
      "type": "function"
    },
    {
      "inputs": [
        {
          "internalType": "bytes32",
          "name": "role",
          "type": "bytes32"
        },
        {
          "internalType": "uint256",
          "name": "index",
          "type": "uint256"
        }
      ],
      "name": "getRoleMember",
      "outputs": [
        {
          "internalType": "address",
          "name": "",
          "type": "address"
        }
      ],
      "stateMutability": "view",
      "type": "function"
    },
    {
      "inputs": [
        {
          "internalType": "bytes32",
          "name": "role",
          "type": "bytes32"
        }
      ],
      "name": "getRoleMemberCount",
      "outputs": [
        {
          "internalType": "uint256",
          "name": "",
          "type": "uint256"
        }
      ],
      "stateMutability": "view",
      "type": "function"
    },
    {
      "inputs": [
        {
          "internalType": "bytes32",
          "name": "role",
          "type": "bytes32"
        },
        {
          "internalType": "address",
          "name": "account",
          "type": "address"
        }
      ],
      "name": "grantRole",
      "outputs": [],
      "stateMutability": "nonpayable",
      "type": "function"
    },
    {
      "inputs": [
        {
          "internalType": "bytes32",
          "name": "role",
          "type": "bytes32"
        },
        {
          "internalType": "address",
          "name": "account",
          "type": "address"
        }
      ],
      "name": "hasRole",
      "outputs": [
        {
          "internalType": "bool",
          "name": "",
          "type": "bool"
        }
      ],
      "stateMutability": "view",
      "type": "function"
    },
    {
      "inputs": [
        {
          "internalType": "address",
          "name": "_config",
          "type": "address"
        },
        {
          "internalType": "address",
          "name": "owner",
          "type": "address"
        },
        {
          "internalType": "address",
          "name": "_borrower",
          "type": "address"
        },
        {
          "internalType": "uint256",
          "name": "_maxLimit",
          "type": "uint256"
        },
        {
          "internalType": "uint256",
          "name": "_interestApr",
          "type": "uint256"
        },
        {
          "internalType": "uint256",
          "name": "_paymentPeriodInDays",
          "type": "uint256"
        },
        {
          "internalType": "uint256",
          "name": "_termInDays",
          "type": "uint256"
        },
        {
          "internalType": "uint256",
          "name": "_lateFeeApr",
          "type": "uint256"
        },
        {
          "internalType": "uint256",
          "name": "_principalGracePeriodInDays",
          "type": "uint256"
        }
      ],
      "name": "initialize",
      "outputs": [],
      "stateMutability": "nonpayable",
      "type": "function"
    },
    {
      "inputs": [],
      "name": "interestAccruedAsOf",
      "outputs": [
        {
          "internalType": "uint256",
          "name": "",
          "type": "uint256"
        }
      ],
      "stateMutability": "view",
      "type": "function"
    },
    {
      "inputs": [],
      "name": "interestApr",
      "outputs": [
        {
          "internalType": "uint256",
          "name": "",
          "type": "uint256"
        }
      ],
      "stateMutability": "view",
      "type": "function"
    },
    {
      "inputs": [],
      "name": "interestOwed",
      "outputs": [
        {
          "internalType": "uint256",
          "name": "",
          "type": "uint256"
        }
      ],
      "stateMutability": "view",
      "type": "function"
    },
    {
      "inputs": [],
      "name": "isAdmin",
      "outputs": [
        {
          "internalType": "bool",
          "name": "",
          "type": "bool"
        }
      ],
      "stateMutability": "view",
      "type": "function"
    },
    {
      "inputs": [],
      "name": "isLate",
      "outputs": [
        {
          "internalType": "bool",
          "name": "",
          "type": "bool"
        }
      ],
      "stateMutability": "view",
      "type": "function"
    },
    {
      "inputs": [],
      "name": "lastFullPaymentTime",
      "outputs": [
        {
          "internalType": "uint256",
          "name": "",
          "type": "uint256"
        }
      ],
      "stateMutability": "view",
      "type": "function"
    },
    {
      "inputs": [],
      "name": "lateFeeApr",
      "outputs": [
        {
          "internalType": "uint256",
          "name": "",
          "type": "uint256"
        }
      ],
      "stateMutability": "view",
      "type": "function"
    },
    {
      "inputs": [],
      "name": "limit",
      "outputs": [
        {
          "internalType": "uint256",
          "name": "",
          "type": "uint256"
        }
      ],
      "stateMutability": "view",
      "type": "function"
    },
    {
      "inputs": [],
      "name": "maxLimit",
      "outputs": [
        {
          "internalType": "uint256",
          "name": "",
          "type": "uint256"
        }
      ],
      "stateMutability": "view",
      "type": "function"
    },
    {
      "inputs": [],
      "name": "nextDueTime",
      "outputs": [
        {
          "internalType": "uint256",
          "name": "",
          "type": "uint256"
        }
      ],
      "stateMutability": "view",
      "type": "function"
    },
    {
      "inputs": [],
      "name": "pause",
      "outputs": [],
      "stateMutability": "nonpayable",
      "type": "function"
    },
    {
      "inputs": [],
      "name": "paused",
      "outputs": [
        {
          "internalType": "bool",
          "name": "",
          "type": "bool"
        }
      ],
      "stateMutability": "view",
      "type": "function"
    },
    {
      "inputs": [],
      "name": "paymentPeriodInDays",
      "outputs": [
        {
          "internalType": "uint256",
          "name": "",
          "type": "uint256"
        }
      ],
      "stateMutability": "view",
      "type": "function"
    },
    {
      "inputs": [],
      "name": "principalGracePeriodInDays",
      "outputs": [
        {
          "internalType": "uint256",
          "name": "",
          "type": "uint256"
        }
      ],
      "stateMutability": "view",
      "type": "function"
    },
    {
      "inputs": [],
      "name": "principalOwed",
      "outputs": [
        {
          "internalType": "uint256",
          "name": "",
          "type": "uint256"
        }
      ],
      "stateMutability": "view",
      "type": "function"
    },
    {
      "inputs": [
        {
          "internalType": "bytes32",
          "name": "role",
          "type": "bytes32"
        },
        {
          "internalType": "address",
          "name": "account",
          "type": "address"
        }
      ],
      "name": "renounceRole",
      "outputs": [],
      "stateMutability": "nonpayable",
      "type": "function"
    },
    {
      "inputs": [
        {
          "internalType": "bytes32",
          "name": "role",
          "type": "bytes32"
        },
        {
          "internalType": "address",
          "name": "account",
          "type": "address"
        }
      ],
      "name": "revokeRole",
      "outputs": [],
      "stateMutability": "nonpayable",
      "type": "function"
    },
    {
      "inputs": [
        {
          "internalType": "uint256",
          "name": "newBalance",
          "type": "uint256"
        }
      ],
      "name": "setBalance",
      "outputs": [],
      "stateMutability": "nonpayable",
      "type": "function"
    },
    {
      "inputs": [
        {
          "internalType": "uint256",
          "name": "newInterestAccruedAsOf",
          "type": "uint256"
        }
      ],
      "name": "setInterestAccruedAsOf",
      "outputs": [],
      "stateMutability": "nonpayable",
      "type": "function"
    },
    {
      "inputs": [
        {
          "internalType": "uint256",
          "name": "newInterestOwed",
          "type": "uint256"
        }
      ],
      "name": "setInterestOwed",
      "outputs": [],
      "stateMutability": "nonpayable",
      "type": "function"
    },
    {
      "inputs": [
        {
          "internalType": "uint256",
          "name": "newLastFullPaymentTime",
          "type": "uint256"
        }
      ],
      "name": "setLastFullPaymentTime",
      "outputs": [],
      "stateMutability": "nonpayable",
      "type": "function"
    },
    {
      "inputs": [
        {
          "internalType": "uint256",
          "name": "newLateFeeApr",
          "type": "uint256"
        }
      ],
      "name": "setLateFeeApr",
      "outputs": [],
      "stateMutability": "nonpayable",
      "type": "function"
    },
    {
      "inputs": [
        {
          "internalType": "uint256",
          "name": "newAmount",
          "type": "uint256"
        }
      ],
      "name": "setLimit",
      "outputs": [],
      "stateMutability": "nonpayable",
      "type": "function"
    },
    {
      "inputs": [
        {
          "internalType": "uint256",
          "name": "newAmount",
          "type": "uint256"
        }
      ],
      "name": "setMaxLimit",
      "outputs": [],
      "stateMutability": "nonpayable",
      "type": "function"
    },
    {
      "inputs": [
        {
          "internalType": "uint256",
          "name": "newNextDueTime",
          "type": "uint256"
        }
      ],
      "name": "setNextDueTime",
      "outputs": [],
      "stateMutability": "nonpayable",
      "type": "function"
    },
    {
      "inputs": [
        {
          "internalType": "uint256",
          "name": "newPrincipalOwed",
          "type": "uint256"
        }
      ],
      "name": "setPrincipalOwed",
      "outputs": [],
      "stateMutability": "nonpayable",
      "type": "function"
    },
    {
      "inputs": [
        {
          "internalType": "uint256",
          "name": "newTermEndTime",
          "type": "uint256"
        }
      ],
      "name": "setTermEndTime",
      "outputs": [],
      "stateMutability": "nonpayable",
      "type": "function"
    },
    {
      "inputs": [
        {
          "internalType": "uint256",
          "name": "_totalInterestAccrued",
          "type": "uint256"
        }
      ],
      "name": "setTotalInterestAccrued",
      "outputs": [],
      "stateMutability": "nonpayable",
      "type": "function"
    },
    {
      "inputs": [],
      "name": "termEndTime",
      "outputs": [
        {
          "internalType": "uint256",
          "name": "",
          "type": "uint256"
        }
      ],
      "stateMutability": "view",
      "type": "function"
    },
    {
      "inputs": [],
      "name": "termInDays",
      "outputs": [
        {
          "internalType": "uint256",
          "name": "",
          "type": "uint256"
        }
      ],
      "stateMutability": "view",
      "type": "function"
    },
    {
      "inputs": [],
      "name": "termStartTime",
      "outputs": [
        {
          "internalType": "uint256",
          "name": "",
          "type": "uint256"
        }
      ],
      "stateMutability": "view",
      "type": "function"
    },
    {
      "inputs": [],
      "name": "totalInterestAccrued",
      "outputs": [
        {
          "internalType": "uint256",
          "name": "",
          "type": "uint256"
        }
      ],
      "stateMutability": "view",
      "type": "function"
    },
    {
      "inputs": [],
      "name": "unpause",
      "outputs": [],
      "stateMutability": "nonpayable",
      "type": "function"
    },
    {
      "inputs": [],
      "name": "withinPrincipalGracePeriod",
      "outputs": [
        {
          "internalType": "bool",
          "name": "",
          "type": "bool"
        }
      ],
      "stateMutability": "view",
      "type": "function"
    }
  ],
  "transactionHash": "0xfe7ab1cb02364bde19bb971ab97c2e2033df0df0e28059a2131e08221c57e91b",
  "args": [],
  "numDeployments": 2,
  "solcInputHash": "94913ac76e14e284866e844702da31b3",
  "bytecode": "0x608060405234801561001057600080fd5b5061259f806100206000396000f3fe608060405234801561001057600080fd5b50600436106102cc5760003560e01c80639010d07c1161017d578063bb4a2509116100d9578063d284597711610092578063d28459771461054b578063d547741f14610553578063e58378bb14610566578063e63ab1e91461056e578063eabd0ce114610576578063f0b25bde1461057e578063fb1669ca14610586576102cc565b8063bb4a2509146104ef578063bbafcb4014610502578063bf8bcee41461050a578063ca15c8731461051d578063ce78290d14610530578063cf1787e614610538576102cc565b8063a4d66daf11610136578063a4d66daf14610492578063a6a25e881461049a578063a6b1ae0d146104b1578063b3969992146104c4578063b3b8a9c7146104cc578063b69ef8a8146104df578063b6db75a0146104e7576102cc565b80639010d07c1461043657806391d148541461044957806396c8df371461045c57806399dd8df31461046f578063a079a4dd14610477578063a217fddf1461048a576102cc565b80633f4ba83a1161022c57806364fb2d95116101e557806364fb2d95146103e657806374f0314f146103ee57806379502c55146103f65780637ae14b091461040b5780637df1f1b91461041e57806381c17a15146104265780638456cb591461042e576102cc565b80633f4ba83a146103a9578063457147a7146103b157806348e6f296146103c6578063526d81f6146103ce5780635c975abb146103d6578063645d6225146103de576102cc565b806321856b361161028957806321856b361461032f578063248a9ca31461033757806326a40e821461034a57806327ea6f2b1461035d5780632f2ff15d1461037057806336568abe1461038357806336d9149414610396576102cc565b8063033669cf146102d1578063097616a3146102e65780630e347f89146102f957806319350114146103175780631a861d261461031f5780631cd724ac14610327575b600080fd5b6102e46102df366004611df9565b610599565b005b6102e46102f4366004611d21565b6105cc565b6103016106fc565b60405161030e9190611f2b565b60405180910390f35b610301610703565b61030161070a565b610301610711565b610301610718565b610301610345366004611df9565b61071f565b6102e4610358366004611df9565b610734565b6102e461036b366004611df9565b61075e565b6102e461037e366004611e11565b6107ab565b6102e4610391366004611e11565b6107ef565b6102e46103a4366004611df9565b610831565b6102e461085b565b6103b961089b565b60405161030e9190611f20565b6103016108dc565b6102e46108e3565b6103b961096e565b610301610977565b610301610986565b61030161098d565b6103fe610994565b60405161030e9190611ef3565b6102e4610419366004611df9565b6109a4565b6103fe6109ce565b6103b96109de565b6102e46109e9565b6103fe610444366004611e40565b610a27565b6103b9610457366004611e11565b610a48565b6102e461046a366004611df9565b610a60565b610301610a8a565b6102e4610485366004611df9565b610a91565b610301610bf0565b610301610bf5565b6104a2610bfc565b60405161030e939291906124e3565b6102e46104bf366004611df9565b610ce8565b610301610d12565b6102e46104da366004611df9565b610d19565b610301610d43565b6103b9610d4a565b6102e46104fd366004611d59565b610d66565b610301610f54565b6102e4610518366004611df9565b610f5b565b61030161052b366004611df9565b610f85565b610301610f9c565b6102e4610546366004611df9565b610fa3565b610301610fcd565b6102e4610561366004611e11565b610fd4565b61030161100e565b610301611020565b610301611032565b610301611039565b6102e4610594366004611df9565b611040565b6105a1610d4a565b6105c65760405162461bcd60e51b81526004016105bd90612449565b60405180910390fd5b6101d255565b600054610100900460ff16806105e557506105e561106a565b806105f3575060005460ff16155b61060f5760405162461bcd60e51b81526004016105bd906122db565b600054610100900460ff1615801561063a576000805460ff1961ff0019909116610100171660011790555b6001600160a01b0382166106605760405162461bcd60e51b81526004016105bd9061221e565b610668611070565b6106706110f1565b61067861117d565b61069060008051602061252a833981519152836107e5565b6106a860008051602061254a833981519152836107e5565b6106ce60008051602061254a83398151915260008051602061252a83398151915261120c565b6106e660008051602061252a8339815191528061120c565b80156106f8576000805461ff00191690555b5050565b6101c95481565b6101cd5481565b6101c55481565b6101d25481565b6101cc5481565b60009081526065602052604090206002015490565b61073c610d4a565b6107585760405162461bcd60e51b81526004016105bd90612449565b6101cf55565b610766610d4a565b6107825760405162461bcd60e51b81526004016105bd90612449565b6101c5548111156107a55760405162461bcd60e51b81526004016105bd90612329565b6101c455565b6000828152606560205260409020600201546107c990610457611221565b6107e55760405162461bcd60e51b81526004016105bd90611fea565b6106f88282611225565b6107f7611221565b6001600160a01b0316816001600160a01b0316146108275760405162461bcd60e51b81526004016105bd90612494565b6106f8828261128e565b610839610d4a565b6108555760405162461bcd60e51b81526004016105bd90612449565b6101d155565b61087560008051602061254a833981519152610457611221565b6108915760405162461bcd60e51b81526004016105bd9061236a565b6108996112f7565b565b60006101ce54600014156108b1575060016108d9565b6101c9546108d4906108c69062015180611363565b6108ce61139d565b906113c5565b421090505b90565b6101c85481565b600054610100900460ff16806108fc57506108fc61106a565b8061090a575060005460ff16155b6109265760405162461bcd60e51b81526004016105bd906122db565b600054610100900460ff16158015610951576000805460ff1961ff0019909116610100171660011790555b6109596110f1565b801561096b576000805461ff00191690555b50565b60975460ff1690565b600061098161139d565b905090565b6101ce5481565b6201518081565b6101d3546001600160a01b031681565b6109ac610d4a565b6109c85760405162461bcd60e51b81526004016105bd90612449565b6101ce55565b6101c3546001600160a01b031681565b6000610981426113ea565b610a0360008051602061254a833981519152610457611221565b610a1f5760405162461bcd60e51b81526004016105bd9061236a565b61089961142e565b6000828152606560205260408120610a3f9083611487565b90505b92915050565b6000828152606560205260408120610a3f9083611493565b610a68610d4a565b610a845760405162461bcd60e51b81526004016105bd90612449565b6101cc55565b6101c75481565b610a99610d4a565b610ab55760405162461bcd60e51b81526004016105bd90612449565b6000610abf6114a8565b90506101ce5460001480610ad557506101ce5481105b610af15760405162461bcd60e51b81526004016105bd906123e7565b6101c4546101cb54610b049084906113c5565b1115610b225760405162461bcd60e51b81526004016105bd90612161565b60008211610b425760405162461bcd60e51b81526004016105bd90612386565b6101cb54610b9457610b5381610ce8565b610b5c81610831565b610b666000610599565b6101ce54610b9457610b94610419610b8d6101c8546201518061136390919063ffffffff16565b83906113c5565b600080610ba0836114ac565b6101cb549193509150610bb390856113c5565b6101cb819055610bc49083836115b1565b610bcd836113ea565b15610bea5760405162461bcd60e51b81526004016105bd90612097565b50505050565b600081565b6101c45490565b6000806000610c09610d4a565b610c255760405162461bcd60e51b81526004016105bd90612449565b60006101cb5411610c485760405162461bcd60e51b81526004016105bd90612253565b6101cf54610c546114a8565b108015610c6e5750610c6c610c676114a8565b6113ea565b155b15610c8157506000915081905080610ce3565b6000610c8b611673565b9050610c9681610734565b610c9e6114a8565b811115610cc9576101c754600090610cb99062015180611363565b9050610cc58282611784565b9150505b610cdb610cd5306117c6565b8261185a565b935093509350505b909192565b610cf0610d4a565b610d0c5760405162461bcd60e51b81526004016105bd90612449565b6101d055565b6101c65481565b610d21610d4a565b610d3d5760405162461bcd60e51b81526004016105bd90612449565b6101cd55565b6101cb5481565b600061098160008051602061252a833981519152610457611221565b600054610100900460ff1680610d7f5750610d7f61106a565b80610d8d575060005460ff16155b610da95760405162461bcd60e51b81526004016105bd906122db565b600054610100900460ff16158015610dd4576000805460ff1961ff0019909116610100171660011790555b6001600160a01b038a1615801590610df457506001600160a01b03891615155b8015610e0857506001600160a01b03881615155b610e245760405162461bcd60e51b81526004016105bd906123b7565b610e2d896105cc565b6101d380546001600160a01b03808d166001600160a01b031992831617928390556101c380548c83169316929092179091556101c58990556101c68890556101c78790556101c88690556101ca8590556101c9849055426101d055600091610e9591166119e4565b6001600160a01b031663095ea7b38b6000196040518363ffffffff1660e01b8152600401610ec4929190611f07565b602060405180830381600087803b158015610ede57600080fd5b505af1158015610ef2573d6000803e3d6000fd5b505050506040513d601f19601f82011682018060405250810190610f169190611dd9565b905080610f355760405162461bcd60e51b81526004016105bd90612067565b508015610f48576000805461ff00191690555b50505050505050505050565b6101d05481565b610f63610d4a565b610f7f5760405162461bcd60e51b81526004016105bd90612449565b6101c555565b6000818152606560205260408120610a42906119ef565b6101d15481565b610fab610d4a565b610fc75760405162461bcd60e51b81526004016105bd90612449565b6101ca55565b6101cf5481565b600082815260656020526040902060020154610ff290610457611221565b6108275760405162461bcd60e51b81526004016105bd906121a4565b60008051602061252a83398151915281565b60008051602061254a83398151915281565b6101c45481565b6101ca5481565b611048610d4a565b6110645760405162461bcd60e51b81526004016105bd90612449565b6101cb55565b303b1590565b600054610100900460ff1680611089575061108961106a565b80611097575060005460ff16155b6110b35760405162461bcd60e51b81526004016105bd906122db565b600054610100900460ff16158015610959576000805460ff1961ff001990911661010017166001179055801561096b576000805461ff001916905550565b600054610100900460ff168061110a575061110a61106a565b80611118575060005460ff16155b6111345760405162461bcd60e51b81526004016105bd906122db565b600054610100900460ff1615801561115f576000805460ff1961ff0019909116610100171660011790555b6097805460ff19169055801561096b576000805461ff001916905550565b600054610100900460ff1680611196575061119661106a565b806111a4575060005460ff16155b6111c05760405162461bcd60e51b81526004016105bd906122db565b600054610100900460ff161580156111eb576000805460ff1961ff0019909116610100171660011790555b60c9805460ff19166001179055801561096b576000805461ff001916905550565b60009182526065602052604090912060020155565b3390565b600082815260656020526040902061123d90826119fa565b156106f85761124a611221565b6001600160a01b0316816001600160a01b0316837f2f8788117e7eff1d82e926ec794901d17c78024a50270940304540a733656f0d60405160405180910390a45050565b60008281526065602052604090206112a69082611a0f565b156106f8576112b3611221565b6001600160a01b0316816001600160a01b0316837ff6391f5c32d9c69d2a47ea670b442974b53935d1edc7fd64eb21e047a839171b60405160405180910390a45050565b60975460ff166113195760405162461bcd60e51b81526004016105bd90612039565b6097805460ff191690557f5db9ee0a495bf2e6ff9c91a7834c1ba4fdd244a5e8aa4e537bd38aeae4b073aa61134c611221565b6040516113599190611ef3565b60405180910390a1565b60008261137257506000610a42565b8282028284828161137f57fe5b0414610a3f5760405162461bcd60e51b81526004016105bd9061229a565b60006109816113bb6101c8546201518061136390919063ffffffff16565b6101ce5490611784565b600082820183811015610a3f5760405162461bcd60e51b81526004016105bd906120e1565b6000806114036101d1548461178490919063ffffffff16565b905060006101cb5411801561142757506101c7546114249062015180611363565b81115b9392505050565b60975460ff16156114515760405162461bcd60e51b81526004016105bd906121f4565b6097805460ff191660011790557f62e78cea01bee320cd4e420270b5ea74000d11b0c9f74754ebdbfc544b05a25861134c611221565b6000610a3f8383611a24565b6000610a3f836001600160a01b038416611a69565b4290565b6000806000807376ee6B1Db228E09aF70B86800c31f8Bd5279404563101c843030876114f66101d360009054906101000a90046001600160a01b03166001600160a01b0316611a81565b6040518463ffffffff1660e01b815260040161151493929190611f34565b604080518083038186803b15801561152b57600080fd5b505af415801561153f573d6000803e3d6000fd5b505050506040513d601f19601f820116820180604052508101906115639190611ed0565b9092509050811561158a5761157785610ce8565b6101d25461158590836113c5565b6101d2555b6101cc5461159890836113c5565b6101cd546115a690836113c5565b935093505050915091565b60c95460ff166115d35760405162461bcd60e51b81526004016105bd90612412565b60c9805460ff191690556115e683611040565b6115ef82610a60565b6115f881610d19565b6101cf548215801561160957508015155b15611655576000816116196114a8565b1015611647576101c7546000906116339062015180611363565b905061163f8382611784565b91505061164a565b50805b61165381610831565b505b611660610358611673565b505060c9805460ff191660011790555050565b6101cf546101c75460009190829061168e9062015180611363565b9050600061169a6114a8565b9050821580156116ad575060006101cb54115b156116c6576116bc81836113c5565b93505050506108d9565b60006101cb541180156116d95750828110155b15611729576000611703836116fd60016108ce836116f7888b611784565b90611ab1565b90611363565b905061170f84826113c5565b935061171e846101ce54611af3565b9450505050506108d9565b6101cb5415801561173957508215155b1561174a57600093505050506108d9565b60006101cb5411801561175c57508281105b1561176c578293505050506108d9565b60405162461bcd60e51b81526004016105bd90612118565b6000610a3f83836040518060400160405280601e81526020017f536166654d6174683a207375627472616374696f6e206f766572666c6f770000815250611b09565b6101d3546000906117df906001600160a01b03166119e4565b6001600160a01b03166370a08231836040518263ffffffff1660e01b815260040161180a9190611ef3565b60206040518083038186803b15801561182257600080fd5b505afa158015611836573d6000803e3d6000fd5b505050506040513d601f19601f82011682018060405250810190610a429190611eb8565b600080600080600061186b866114ac565b91509150611877611d00565b6101cb5460405163d7cc2a0360e01b81527376ee6B1Db228E09aF70B86800c31f8Bd527940459163d7cc2a03916118b6918c91889088906004016124f9565b60606040518083038186803b1580156118ce57600080fd5b505af41580156118e2573d6000803e3d6000fd5b505050506040513d601f19601f820116820180604052508101906119069190611e61565b9050600061192482602001516101cb5461178490919063ffffffff16565b905061193d82604001518261178490919063ffffffff16565b90506000611957826101cb5461178490919063ffffffff16565b9050600061197c8261197686600001518e61178490919063ffffffff16565b90611784565b90506119ae8361199986600001518961178490919063ffffffff16565b60208701516119a9908990611784565b6115b1565b8a6119ca836108ce8760000151856113c590919063ffffffff16565b146119d157fe5b9251929a92995097509095505050505050565b6000610a4282611b35565b6000610a4282611bb5565b6000610a3f836001600160a01b038416611bb9565b6000610a3f836001600160a01b038416611c03565b81546000908210611a475760405162461bcd60e51b81526004016105bd90611fa8565b826000018281548110611a5657fe5b9060005260206000200154905092915050565b60009081526001919091016020526040902054151590565b604051631f8ac6cb60e31b81526000906001600160a01b0383169063fc5636589061180a90600590600401611f2b565b6000610a3f83836040518060400160405280601a81526020017f536166654d6174683a206469766973696f6e206279207a65726f000000000000815250611cc9565b6000818310611b025781610a3f565b5090919050565b60008184841115611b2d5760405162461bcd60e51b81526004016105bd9190611f55565b505050900390565b604051635c9fcd8560e11b81526000906001600160a01b0383169063b93f9b0a90611b6590600590600401611f2b565b60206040518083038186803b158015611b7d57600080fd5b505afa158015611b91573d6000803e3d6000fd5b505050506040513d601f19601f82011682018060405250810190610a429190611d3d565b5490565b6000611bc58383611a69565b611bfb57508154600181810184556000848152602080822090930184905584548482528286019093526040902091909155610a42565b506000610a42565b60008181526001830160205260408120548015611cbf5783546000198083019190810190600090879083908110611c3657fe5b9060005260206000200154905080876000018481548110611c5357fe5b600091825260208083209091019290925582815260018981019092526040902090840190558654879080611c8357fe5b60019003818190600052602060002001600090559055866001016000878152602001908152602001600020600090556001945050505050610a42565b6000915050610a42565b60008183611cea5760405162461bcd60e51b81526004016105bd9190611f55565b506000838581611cf657fe5b0495945050505050565b60405180606001604052806000815260200160008152602001600081525090565b600060208284031215611d32578081fd5b8135610a3f81612514565b600060208284031215611d4e578081fd5b8151610a3f81612514565b60008060008060008060008060006101208a8c031215611d77578485fd5b8935611d8281612514565b985060208a0135611d9281612514565b975060408a0135611da281612514565b989b979a5097986060810135985060808101359760a0820135975060c0820135965060e08201359550610100909101359350915050565b600060208284031215611dea578081fd5b81518015158114610a3f578182fd5b600060208284031215611e0a578081fd5b5035919050565b60008060408385031215611e23578182fd5b823591506020830135611e3581612514565b809150509250929050565b60008060408385031215611e52578182fd5b50508035926020909101359150565b600060608284031215611e72578081fd5b6040516060810181811067ffffffffffffffff82111715611e91578283fd5b80604052508251815260208301516020820152604083015160408201528091505092915050565b600060208284031215611ec9578081fd5b5051919050565b60008060408385031215611ee2578182fd5b505080516020909101519092909150565b6001600160a01b0391909116815260200190565b6001600160a01b03929092168252602082015260400190565b901515815260200190565b90815260200190565b6001600160a01b039390931683526020830191909152604082015260600190565b6000602080835283518082850152825b81811015611f8157858101830151858201604001528201611f65565b81811115611f925783604083870101525b50601f01601f1916929092016040019392505050565b60208082526022908201527f456e756d657261626c655365743a20696e646578206f7574206f6620626f756e604082015261647360f01b606082015260800190565b6020808252602f908201527f416363657373436f6e74726f6c3a2073656e646572206d75737420626520616e60408201526e0818591b5a5b881d1bc819dc985b9d608a1b606082015260800190565b60208082526014908201527314185d5cd8589b194e881b9bdd081c185d5cd95960621b604082015260600190565b6020808252601690820152754661696c656420746f20617070726f7665205553444360501b604082015260600190565b6020808252602a908201527f43616e6e6f742064726177646f776e207768656e207061796d656e74732061726040820152696520706173742064756560b01b606082015260800190565b6020808252601b908201527f536166654d6174683a206164646974696f6e206f766572666c6f770000000000604082015260600190565b60208082526029908201527f4572726f723a20636f756c64206e6f742063616c63756c617465206e65787420604082015268323ab2903a34b6b29760b91b606082015260800190565b60208082526023908201527f43616e6e6f742064726177646f776e206d6f7265207468616e20746865206c696040820152621b5a5d60ea1b606082015260800190565b60208082526030908201527f416363657373436f6e74726f6c3a2073656e646572206d75737420626520616e60408201526f2061646d696e20746f207265766f6b6560801b606082015260800190565b60208082526010908201526f14185d5cd8589b194e881c185d5cd95960821b604082015260600190565b6020808252818101527f4f776e65722063616e6e6f7420626520746865207a65726f2061646472657373604082015260600190565b60208082526027908201527f4d75737420686176652062616c616e636520746f2061737365737320637265646040820152666974206c696e6560c81b606082015260800190565b60208082526021908201527f536166654d6174683a206d756c7469706c69636174696f6e206f766572666c6f6040820152607760f81b606082015260800190565b6020808252602e908201527f436f6e747261637420696e7374616e63652068617320616c726561647920626560408201526d195b881a5b9a5d1a585b1a5e995960921b606082015260800190565b60208082526021908201527f43616e6e6f74206265206d6f7265207468616e20746865206d6178206c696d696040820152601d60fa1b606082015260800190565b6020808252600290820152614e4160f01b604082015260600190565b602080825260179082015276125b9d985b1a5908191c985dd91bdddb88185b5bdd5b9d604a1b604082015260600190565b6020808252601690820152752d32b9379030b2323932b9b9903830b9b9b2b21034b760511b604082015260600190565b6020808252601190820152704166746572207465726d456e6454696d6560781b604082015260600190565b6020808252601f908201527f5265656e7472616e637947756172643a207265656e7472616e742063616c6c00604082015260600190565b6020808252602b908201527f4d75737420686176652061646d696e20726f6c6520746f20706572666f726d2060408201526a3a3434b99030b1ba34b7b760a91b606082015260800190565b6020808252602f908201527f416363657373436f6e74726f6c3a2063616e206f6e6c792072656e6f756e636560408201526e103937b632b9903337b91039b2b63360891b606082015260800190565b9283526020830191909152604082015260600190565b93845260208401929092526040830152606082015260800190565b6001600160a01b038116811461096b57600080fdfeb19546dff01e856fb3f010c267a7b1c60363cf8a4664e21cc89c26224620214e65d7a28e3265b37a6474929f336521b332c1681b933f6cb9f3376673440d862aa264697066735822122090f6521fc15eaca90d7a89b8e0a5be3f8c66b477cb144ac1fe386a7f29852ce264736f6c634300060c0033",
  "deployedBytecode": "0x608060405234801561001057600080fd5b50600436106102cc5760003560e01c80639010d07c1161017d578063bb4a2509116100d9578063d284597711610092578063d28459771461054b578063d547741f14610553578063e58378bb14610566578063e63ab1e91461056e578063eabd0ce114610576578063f0b25bde1461057e578063fb1669ca14610586576102cc565b8063bb4a2509146104ef578063bbafcb4014610502578063bf8bcee41461050a578063ca15c8731461051d578063ce78290d14610530578063cf1787e614610538576102cc565b8063a4d66daf11610136578063a4d66daf14610492578063a6a25e881461049a578063a6b1ae0d146104b1578063b3969992146104c4578063b3b8a9c7146104cc578063b69ef8a8146104df578063b6db75a0146104e7576102cc565b80639010d07c1461043657806391d148541461044957806396c8df371461045c57806399dd8df31461046f578063a079a4dd14610477578063a217fddf1461048a576102cc565b80633f4ba83a1161022c57806364fb2d95116101e557806364fb2d95146103e657806374f0314f146103ee57806379502c55146103f65780637ae14b091461040b5780637df1f1b91461041e57806381c17a15146104265780638456cb591461042e576102cc565b80633f4ba83a146103a9578063457147a7146103b157806348e6f296146103c6578063526d81f6146103ce5780635c975abb146103d6578063645d6225146103de576102cc565b806321856b361161028957806321856b361461032f578063248a9ca31461033757806326a40e821461034a57806327ea6f2b1461035d5780632f2ff15d1461037057806336568abe1461038357806336d9149414610396576102cc565b8063033669cf146102d1578063097616a3146102e65780630e347f89146102f957806319350114146103175780631a861d261461031f5780631cd724ac14610327575b600080fd5b6102e46102df366004611df9565b610599565b005b6102e46102f4366004611d21565b6105cc565b6103016106fc565b60405161030e9190611f2b565b60405180910390f35b610301610703565b61030161070a565b610301610711565b610301610718565b610301610345366004611df9565b61071f565b6102e4610358366004611df9565b610734565b6102e461036b366004611df9565b61075e565b6102e461037e366004611e11565b6107ab565b6102e4610391366004611e11565b6107ef565b6102e46103a4366004611df9565b610831565b6102e461085b565b6103b961089b565b60405161030e9190611f20565b6103016108dc565b6102e46108e3565b6103b961096e565b610301610977565b610301610986565b61030161098d565b6103fe610994565b60405161030e9190611ef3565b6102e4610419366004611df9565b6109a4565b6103fe6109ce565b6103b96109de565b6102e46109e9565b6103fe610444366004611e40565b610a27565b6103b9610457366004611e11565b610a48565b6102e461046a366004611df9565b610a60565b610301610a8a565b6102e4610485366004611df9565b610a91565b610301610bf0565b610301610bf5565b6104a2610bfc565b60405161030e939291906124e3565b6102e46104bf366004611df9565b610ce8565b610301610d12565b6102e46104da366004611df9565b610d19565b610301610d43565b6103b9610d4a565b6102e46104fd366004611d59565b610d66565b610301610f54565b6102e4610518366004611df9565b610f5b565b61030161052b366004611df9565b610f85565b610301610f9c565b6102e4610546366004611df9565b610fa3565b610301610fcd565b6102e4610561366004611e11565b610fd4565b61030161100e565b610301611020565b610301611032565b610301611039565b6102e4610594366004611df9565b611040565b6105a1610d4a565b6105c65760405162461bcd60e51b81526004016105bd90612449565b60405180910390fd5b6101d255565b600054610100900460ff16806105e557506105e561106a565b806105f3575060005460ff16155b61060f5760405162461bcd60e51b81526004016105bd906122db565b600054610100900460ff1615801561063a576000805460ff1961ff0019909116610100171660011790555b6001600160a01b0382166106605760405162461bcd60e51b81526004016105bd9061221e565b610668611070565b6106706110f1565b61067861117d565b61069060008051602061252a833981519152836107e5565b6106a860008051602061254a833981519152836107e5565b6106ce60008051602061254a83398151915260008051602061252a83398151915261120c565b6106e660008051602061252a8339815191528061120c565b80156106f8576000805461ff00191690555b5050565b6101c95481565b6101cd5481565b6101c55481565b6101d25481565b6101cc5481565b60009081526065602052604090206002015490565b61073c610d4a565b6107585760405162461bcd60e51b81526004016105bd90612449565b6101cf55565b610766610d4a565b6107825760405162461bcd60e51b81526004016105bd90612449565b6101c5548111156107a55760405162461bcd60e51b81526004016105bd90612329565b6101c455565b6000828152606560205260409020600201546107c990610457611221565b6107e55760405162461bcd60e51b81526004016105bd90611fea565b6106f88282611225565b6107f7611221565b6001600160a01b0316816001600160a01b0316146108275760405162461bcd60e51b81526004016105bd90612494565b6106f8828261128e565b610839610d4a565b6108555760405162461bcd60e51b81526004016105bd90612449565b6101d155565b61087560008051602061254a833981519152610457611221565b6108915760405162461bcd60e51b81526004016105bd9061236a565b6108996112f7565b565b60006101ce54600014156108b1575060016108d9565b6101c9546108d4906108c69062015180611363565b6108ce61139d565b906113c5565b421090505b90565b6101c85481565b600054610100900460ff16806108fc57506108fc61106a565b8061090a575060005460ff16155b6109265760405162461bcd60e51b81526004016105bd906122db565b600054610100900460ff16158015610951576000805460ff1961ff0019909116610100171660011790555b6109596110f1565b801561096b576000805461ff00191690555b50565b60975460ff1690565b600061098161139d565b905090565b6101ce5481565b6201518081565b6101d3546001600160a01b031681565b6109ac610d4a565b6109c85760405162461bcd60e51b81526004016105bd90612449565b6101ce55565b6101c3546001600160a01b031681565b6000610981426113ea565b610a0360008051602061254a833981519152610457611221565b610a1f5760405162461bcd60e51b81526004016105bd9061236a565b61089961142e565b6000828152606560205260408120610a3f9083611487565b90505b92915050565b6000828152606560205260408120610a3f9083611493565b610a68610d4a565b610a845760405162461bcd60e51b81526004016105bd90612449565b6101cc55565b6101c75481565b610a99610d4a565b610ab55760405162461bcd60e51b81526004016105bd90612449565b6000610abf6114a8565b90506101ce5460001480610ad557506101ce5481105b610af15760405162461bcd60e51b81526004016105bd906123e7565b6101c4546101cb54610b049084906113c5565b1115610b225760405162461bcd60e51b81526004016105bd90612161565b60008211610b425760405162461bcd60e51b81526004016105bd90612386565b6101cb54610b9457610b5381610ce8565b610b5c81610831565b610b666000610599565b6101ce54610b9457610b94610419610b8d6101c8546201518061136390919063ffffffff16565b83906113c5565b600080610ba0836114ac565b6101cb549193509150610bb390856113c5565b6101cb819055610bc49083836115b1565b610bcd836113ea565b15610bea5760405162461bcd60e51b81526004016105bd90612097565b50505050565b600081565b6101c45490565b6000806000610c09610d4a565b610c255760405162461bcd60e51b81526004016105bd90612449565b60006101cb5411610c485760405162461bcd60e51b81526004016105bd90612253565b6101cf54610c546114a8565b108015610c6e5750610c6c610c676114a8565b6113ea565b155b15610c8157506000915081905080610ce3565b6000610c8b611673565b9050610c9681610734565b610c9e6114a8565b811115610cc9576101c754600090610cb99062015180611363565b9050610cc58282611784565b9150505b610cdb610cd5306117c6565b8261185a565b935093509350505b909192565b610cf0610d4a565b610d0c5760405162461bcd60e51b81526004016105bd90612449565b6101d055565b6101c65481565b610d21610d4a565b610d3d5760405162461bcd60e51b81526004016105bd90612449565b6101cd55565b6101cb5481565b600061098160008051602061252a833981519152610457611221565b600054610100900460ff1680610d7f5750610d7f61106a565b80610d8d575060005460ff16155b610da95760405162461bcd60e51b81526004016105bd906122db565b600054610100900460ff16158015610dd4576000805460ff1961ff0019909116610100171660011790555b6001600160a01b038a1615801590610df457506001600160a01b03891615155b8015610e0857506001600160a01b03881615155b610e245760405162461bcd60e51b81526004016105bd906123b7565b610e2d896105cc565b6101d380546001600160a01b03808d166001600160a01b031992831617928390556101c380548c83169316929092179091556101c58990556101c68890556101c78790556101c88690556101ca8590556101c9849055426101d055600091610e9591166119e4565b6001600160a01b031663095ea7b38b6000196040518363ffffffff1660e01b8152600401610ec4929190611f07565b602060405180830381600087803b158015610ede57600080fd5b505af1158015610ef2573d6000803e3d6000fd5b505050506040513d601f19601f82011682018060405250810190610f169190611dd9565b905080610f355760405162461bcd60e51b81526004016105bd90612067565b508015610f48576000805461ff00191690555b50505050505050505050565b6101d05481565b610f63610d4a565b610f7f5760405162461bcd60e51b81526004016105bd90612449565b6101c555565b6000818152606560205260408120610a42906119ef565b6101d15481565b610fab610d4a565b610fc75760405162461bcd60e51b81526004016105bd90612449565b6101ca55565b6101cf5481565b600082815260656020526040902060020154610ff290610457611221565b6108275760405162461bcd60e51b81526004016105bd906121a4565b60008051602061252a83398151915281565b60008051602061254a83398151915281565b6101c45481565b6101ca5481565b611048610d4a565b6110645760405162461bcd60e51b81526004016105bd90612449565b6101cb55565b303b1590565b600054610100900460ff1680611089575061108961106a565b80611097575060005460ff16155b6110b35760405162461bcd60e51b81526004016105bd906122db565b600054610100900460ff16158015610959576000805460ff1961ff001990911661010017166001179055801561096b576000805461ff001916905550565b600054610100900460ff168061110a575061110a61106a565b80611118575060005460ff16155b6111345760405162461bcd60e51b81526004016105bd906122db565b600054610100900460ff1615801561115f576000805460ff1961ff0019909116610100171660011790555b6097805460ff19169055801561096b576000805461ff001916905550565b600054610100900460ff1680611196575061119661106a565b806111a4575060005460ff16155b6111c05760405162461bcd60e51b81526004016105bd906122db565b600054610100900460ff161580156111eb576000805460ff1961ff0019909116610100171660011790555b60c9805460ff19166001179055801561096b576000805461ff001916905550565b60009182526065602052604090912060020155565b3390565b600082815260656020526040902061123d90826119fa565b156106f85761124a611221565b6001600160a01b0316816001600160a01b0316837f2f8788117e7eff1d82e926ec794901d17c78024a50270940304540a733656f0d60405160405180910390a45050565b60008281526065602052604090206112a69082611a0f565b156106f8576112b3611221565b6001600160a01b0316816001600160a01b0316837ff6391f5c32d9c69d2a47ea670b442974b53935d1edc7fd64eb21e047a839171b60405160405180910390a45050565b60975460ff166113195760405162461bcd60e51b81526004016105bd90612039565b6097805460ff191690557f5db9ee0a495bf2e6ff9c91a7834c1ba4fdd244a5e8aa4e537bd38aeae4b073aa61134c611221565b6040516113599190611ef3565b60405180910390a1565b60008261137257506000610a42565b8282028284828161137f57fe5b0414610a3f5760405162461bcd60e51b81526004016105bd9061229a565b60006109816113bb6101c8546201518061136390919063ffffffff16565b6101ce5490611784565b600082820183811015610a3f5760405162461bcd60e51b81526004016105bd906120e1565b6000806114036101d1548461178490919063ffffffff16565b905060006101cb5411801561142757506101c7546114249062015180611363565b81115b9392505050565b60975460ff16156114515760405162461bcd60e51b81526004016105bd906121f4565b6097805460ff191660011790557f62e78cea01bee320cd4e420270b5ea74000d11b0c9f74754ebdbfc544b05a25861134c611221565b6000610a3f8383611a24565b6000610a3f836001600160a01b038416611a69565b4290565b60008060008073__$1dcd660c042b25ef260537b13a3f0ede49$__63101c843030876114f66101d360009054906101000a90046001600160a01b03166001600160a01b0316611a81565b6040518463ffffffff1660e01b815260040161151493929190611f34565b604080518083038186803b15801561152b57600080fd5b505af415801561153f573d6000803e3d6000fd5b505050506040513d601f19601f820116820180604052508101906115639190611ed0565b9092509050811561158a5761157785610ce8565b6101d25461158590836113c5565b6101d2555b6101cc5461159890836113c5565b6101cd546115a690836113c5565b935093505050915091565b60c95460ff166115d35760405162461bcd60e51b81526004016105bd90612412565b60c9805460ff191690556115e683611040565b6115ef82610a60565b6115f881610d19565b6101cf548215801561160957508015155b15611655576000816116196114a8565b1015611647576101c7546000906116339062015180611363565b905061163f8382611784565b91505061164a565b50805b61165381610831565b505b611660610358611673565b505060c9805460ff191660011790555050565b6101cf546101c75460009190829061168e9062015180611363565b9050600061169a6114a8565b9050821580156116ad575060006101cb54115b156116c6576116bc81836113c5565b93505050506108d9565b60006101cb541180156116d95750828110155b15611729576000611703836116fd60016108ce836116f7888b611784565b90611ab1565b90611363565b905061170f84826113c5565b935061171e846101ce54611af3565b9450505050506108d9565b6101cb5415801561173957508215155b1561174a57600093505050506108d9565b60006101cb5411801561175c57508281105b1561176c578293505050506108d9565b60405162461bcd60e51b81526004016105bd90612118565b6000610a3f83836040518060400160405280601e81526020017f536166654d6174683a207375627472616374696f6e206f766572666c6f770000815250611b09565b6101d3546000906117df906001600160a01b03166119e4565b6001600160a01b03166370a08231836040518263ffffffff1660e01b815260040161180a9190611ef3565b60206040518083038186803b15801561182257600080fd5b505afa158015611836573d6000803e3d6000fd5b505050506040513d601f19601f82011682018060405250810190610a429190611eb8565b600080600080600061186b866114ac565b91509150611877611d00565b6101cb5460405163d7cc2a0360e01b815273__$1dcd660c042b25ef260537b13a3f0ede49$__9163d7cc2a03916118b6918c91889088906004016124f9565b60606040518083038186803b1580156118ce57600080fd5b505af41580156118e2573d6000803e3d6000fd5b505050506040513d601f19601f820116820180604052508101906119069190611e61565b9050600061192482602001516101cb5461178490919063ffffffff16565b905061193d82604001518261178490919063ffffffff16565b90506000611957826101cb5461178490919063ffffffff16565b9050600061197c8261197686600001518e61178490919063ffffffff16565b90611784565b90506119ae8361199986600001518961178490919063ffffffff16565b60208701516119a9908990611784565b6115b1565b8a6119ca836108ce8760000151856113c590919063ffffffff16565b146119d157fe5b9251929a92995097509095505050505050565b6000610a4282611b35565b6000610a4282611bb5565b6000610a3f836001600160a01b038416611bb9565b6000610a3f836001600160a01b038416611c03565b81546000908210611a475760405162461bcd60e51b81526004016105bd90611fa8565b826000018281548110611a5657fe5b9060005260206000200154905092915050565b60009081526001919091016020526040902054151590565b604051631f8ac6cb60e31b81526000906001600160a01b0383169063fc5636589061180a90600590600401611f2b565b6000610a3f83836040518060400160405280601a81526020017f536166654d6174683a206469766973696f6e206279207a65726f000000000000815250611cc9565b6000818310611b025781610a3f565b5090919050565b60008184841115611b2d5760405162461bcd60e51b81526004016105bd9190611f55565b505050900390565b604051635c9fcd8560e11b81526000906001600160a01b0383169063b93f9b0a90611b6590600590600401611f2b565b60206040518083038186803b158015611b7d57600080fd5b505afa158015611b91573d6000803e3d6000fd5b505050506040513d601f19601f82011682018060405250810190610a429190611d3d565b5490565b6000611bc58383611a69565b611bfb57508154600181810184556000848152602080822090930184905584548482528286019093526040902091909155610a42565b506000610a42565b60008181526001830160205260408120548015611cbf5783546000198083019190810190600090879083908110611c3657fe5b9060005260206000200154905080876000018481548110611c5357fe5b600091825260208083209091019290925582815260018981019092526040902090840190558654879080611c8357fe5b60019003818190600052602060002001600090559055866001016000878152602001908152602001600020600090556001945050505050610a42565b6000915050610a42565b60008183611cea5760405162461bcd60e51b81526004016105bd9190611f55565b506000838581611cf657fe5b0495945050505050565b60405180606001604052806000815260200160008152602001600081525090565b600060208284031215611d32578081fd5b8135610a3f81612514565b600060208284031215611d4e578081fd5b8151610a3f81612514565b60008060008060008060008060006101208a8c031215611d77578485fd5b8935611d8281612514565b985060208a0135611d9281612514565b975060408a0135611da281612514565b989b979a5097986060810135985060808101359760a0820135975060c0820135965060e08201359550610100909101359350915050565b600060208284031215611dea578081fd5b81518015158114610a3f578182fd5b600060208284031215611e0a578081fd5b5035919050565b60008060408385031215611e23578182fd5b823591506020830135611e3581612514565b809150509250929050565b60008060408385031215611e52578182fd5b50508035926020909101359150565b600060608284031215611e72578081fd5b6040516060810181811067ffffffffffffffff82111715611e91578283fd5b80604052508251815260208301516020820152604083015160408201528091505092915050565b600060208284031215611ec9578081fd5b5051919050565b60008060408385031215611ee2578182fd5b505080516020909101519092909150565b6001600160a01b0391909116815260200190565b6001600160a01b03929092168252602082015260400190565b901515815260200190565b90815260200190565b6001600160a01b039390931683526020830191909152604082015260600190565b6000602080835283518082850152825b81811015611f8157858101830151858201604001528201611f65565b81811115611f925783604083870101525b50601f01601f1916929092016040019392505050565b60208082526022908201527f456e756d657261626c655365743a20696e646578206f7574206f6620626f756e604082015261647360f01b606082015260800190565b6020808252602f908201527f416363657373436f6e74726f6c3a2073656e646572206d75737420626520616e60408201526e0818591b5a5b881d1bc819dc985b9d608a1b606082015260800190565b60208082526014908201527314185d5cd8589b194e881b9bdd081c185d5cd95960621b604082015260600190565b6020808252601690820152754661696c656420746f20617070726f7665205553444360501b604082015260600190565b6020808252602a908201527f43616e6e6f742064726177646f776e207768656e207061796d656e74732061726040820152696520706173742064756560b01b606082015260800190565b6020808252601b908201527f536166654d6174683a206164646974696f6e206f766572666c6f770000000000604082015260600190565b60208082526029908201527f4572726f723a20636f756c64206e6f742063616c63756c617465206e65787420604082015268323ab2903a34b6b29760b91b606082015260800190565b60208082526023908201527f43616e6e6f742064726177646f776e206d6f7265207468616e20746865206c696040820152621b5a5d60ea1b606082015260800190565b60208082526030908201527f416363657373436f6e74726f6c3a2073656e646572206d75737420626520616e60408201526f2061646d696e20746f207265766f6b6560801b606082015260800190565b60208082526010908201526f14185d5cd8589b194e881c185d5cd95960821b604082015260600190565b6020808252818101527f4f776e65722063616e6e6f7420626520746865207a65726f2061646472657373604082015260600190565b60208082526027908201527f4d75737420686176652062616c616e636520746f2061737365737320637265646040820152666974206c696e6560c81b606082015260800190565b60208082526021908201527f536166654d6174683a206d756c7469706c69636174696f6e206f766572666c6f6040820152607760f81b606082015260800190565b6020808252602e908201527f436f6e747261637420696e7374616e63652068617320616c726561647920626560408201526d195b881a5b9a5d1a585b1a5e995960921b606082015260800190565b60208082526021908201527f43616e6e6f74206265206d6f7265207468616e20746865206d6178206c696d696040820152601d60fa1b606082015260800190565b6020808252600290820152614e4160f01b604082015260600190565b602080825260179082015276125b9d985b1a5908191c985dd91bdddb88185b5bdd5b9d604a1b604082015260600190565b6020808252601690820152752d32b9379030b2323932b9b9903830b9b9b2b21034b760511b604082015260600190565b6020808252601190820152704166746572207465726d456e6454696d6560781b604082015260600190565b6020808252601f908201527f5265656e7472616e637947756172643a207265656e7472616e742063616c6c00604082015260600190565b6020808252602b908201527f4d75737420686176652061646d696e20726f6c6520746f20706572666f726d2060408201526a3a3434b99030b1ba34b7b760a91b606082015260800190565b6020808252602f908201527f416363657373436f6e74726f6c3a2063616e206f6e6c792072656e6f756e636560408201526e103937b632b9903337b91039b2b63360891b606082015260800190565b9283526020830191909152604082015260600190565b93845260208401929092526040830152606082015260800190565b6001600160a01b038116811461096b57600080fdfeb19546dff01e856fb3f010c267a7b1c60363cf8a4664e21cc89c26224620214e65d7a28e3265b37a6474929f336521b332c1681b933f6cb9f3376673440d862aa264697066735822122090f6521fc15eaca90d7a89b8e0a5be3f8c66b477cb144ac1fe386a7f29852ce264736f6c634300060c0033",
  "libraries": {
    "Accountant": "0x76ee6B1Db228E09aF70B86800c31f8Bd52794045"
  },
  "devdoc": {
    "author": "Goldfinch",
    "kind": "dev",
    "methods": {
      "assess()": {
        "returns": {
          "_0": "Any amount remaining after applying payments towards the interest and principal",
          "_1": "Amount applied towards interest",
          "_2": "Amount applied towards principal"
        }
      },
      "drawdown(uint256)": {
        "params": {
          "amount": "The amount in USDC that has been drawndown"
        }
      },
      "getRoleAdmin(bytes32)": {
        "details": "Returns the admin role that controls `role`. See {grantRole} and {revokeRole}. To change a role's admin, use {_setRoleAdmin}."
      },
      "getRoleMember(bytes32,uint256)": {
        "details": "Returns one of the accounts that have `role`. `index` must be a value between 0 and {getRoleMemberCount}, non-inclusive. Role bearers are not sorted in any particular way, and their ordering may change at any point. WARNING: When using {getRoleMember} and {getRoleMemberCount}, make sure you perform all queries on the same block. See the following https://forum.openzeppelin.com/t/iterating-over-elements-on-enumerableset-in-openzeppelin-contracts/2296[forum post] for more information."
      },
      "getRoleMemberCount(bytes32)": {
        "details": "Returns the number of accounts that have `role`. Can be used together with {getRoleMember} to enumerate all bearers of a role."
      },
      "grantRole(bytes32,address)": {
        "details": "Grants `role` to `account`. If `account` had not been already granted `role`, emits a {RoleGranted} event. Requirements: - the caller must have ``role``'s admin role."
      },
      "hasRole(bytes32,address)": {
        "details": "Returns `true` if `account` has been granted `role`."
      },
      "pause()": {
        "details": "Pauses all functions guarded by Pause See {Pausable-_pause}. Requirements: - the caller must have the PAUSER_ROLE."
      },
      "paused()": {
        "details": "Returns true if the contract is paused, and false otherwise."
      },
      "renounceRole(bytes32,address)": {
        "details": "Revokes `role` from the calling account. Roles are often managed via {grantRole} and {revokeRole}: this function's purpose is to provide a mechanism for accounts to lose their privileges if they are compromised (such as when a trusted device is misplaced). If the calling account had been granted `role`, emits a {RoleRevoked} event. Requirements: - the caller must be `account`."
      },
      "revokeRole(bytes32,address)": {
        "details": "Revokes `role` from `account`. If `account` had been granted `role`, emits a {RoleRevoked} event. Requirements: - the caller must have ``role``'s admin role."
      },
      "unpause()": {
        "details": "Unpauses the contract See {Pausable-_unpause}. Requirements: - the caller must have the Pauser role"
      }
    },
    "title": "CreditLine",
    "version": 1
  },
  "userdoc": {
    "kind": "user",
    "methods": {
      "assess()": {
        "notice": "Triggers an assessment of the creditline. Any USDC balance available in the creditline is applied towards the interest and principal."
      },
      "drawdown(uint256)": {
        "notice": "Updates the internal accounting to track a drawdown as of current block timestamp. Does not move any money"
      }
    },
    "notice": "A contract that represents the agreement between Backers and  a Borrower. Includes the terms of the loan, as well as the current accounting state, such as interest owed.  A CreditLine belongs to a TranchedPool, and is fully controlled by that TranchedPool. It does not  operate in any standalone capacity. It should generally be considered internal to the TranchedPool.",
    "version": 1
  },
  "storageLayout": {
    "storage": [
      {
        "astId": 50,
        "contract": "contracts/protocol/core/CreditLine.sol:CreditLine",
        "label": "initialized",
        "offset": 0,
        "slot": "0",
        "type": "t_bool"
      },
      {
        "astId": 53,
        "contract": "contracts/protocol/core/CreditLine.sol:CreditLine",
        "label": "initializing",
        "offset": 1,
        "slot": "0",
        "type": "t_bool"
      },
      {
        "astId": 118,
        "contract": "contracts/protocol/core/CreditLine.sol:CreditLine",
        "label": "______gap",
        "offset": 0,
        "slot": "1",
        "type": "t_array(t_uint256)50_storage"
      },
      {
        "astId": 43,
        "contract": "contracts/protocol/core/CreditLine.sol:CreditLine",
        "label": "__gap",
        "offset": 0,
        "slot": "51",
        "type": "t_array(t_uint256)50_storage"
      },
      {
        "astId": 163,
        "contract": "contracts/protocol/core/CreditLine.sol:CreditLine",
        "label": "_roles",
        "offset": 0,
        "slot": "101",
        "type": "t_mapping(t_bytes32,t_struct(RoleData)159_storage)"
      },
      {
        "astId": 408,
        "contract": "contracts/protocol/core/CreditLine.sol:CreditLine",
        "label": "__gap",
        "offset": 0,
        "slot": "102",
        "type": "t_array(t_uint256)49_storage"
      },
      {
        "astId": 3017,
        "contract": "contracts/protocol/core/CreditLine.sol:CreditLine",
        "label": "_paused",
        "offset": 0,
        "slot": "151",
        "type": "t_bool"
      },
      {
        "astId": 3106,
        "contract": "contracts/protocol/core/CreditLine.sol:CreditLine",
        "label": "__gap",
        "offset": 0,
        "slot": "152",
        "type": "t_array(t_uint256)49_storage"
      },
      {
        "astId": 3115,
        "contract": "contracts/protocol/core/CreditLine.sol:CreditLine",
        "label": "_notEntered",
        "offset": 0,
        "slot": "201",
        "type": "t_bool"
      },
      {
        "astId": 3156,
        "contract": "contracts/protocol/core/CreditLine.sol:CreditLine",
        "label": "__gap",
        "offset": 0,
        "slot": "202",
        "type": "t_array(t_uint256)49_storage"
      },
      {
        "astId": 12963,
        "contract": "contracts/protocol/core/CreditLine.sol:CreditLine",
        "label": "__gap1",
        "offset": 0,
        "slot": "251",
        "type": "t_array(t_uint256)50_storage"
      },
      {
        "astId": 12967,
        "contract": "contracts/protocol/core/CreditLine.sol:CreditLine",
        "label": "__gap2",
        "offset": 0,
        "slot": "301",
        "type": "t_array(t_uint256)50_storage"
      },
      {
        "astId": 12971,
        "contract": "contracts/protocol/core/CreditLine.sol:CreditLine",
        "label": "__gap3",
        "offset": 0,
        "slot": "351",
        "type": "t_array(t_uint256)50_storage"
      },
      {
        "astId": 12975,
        "contract": "contracts/protocol/core/CreditLine.sol:CreditLine",
        "label": "__gap4",
        "offset": 0,
        "slot": "401",
        "type": "t_array(t_uint256)50_storage"
      },
      {
        "astId": 13970,
        "contract": "contracts/protocol/core/CreditLine.sol:CreditLine",
        "label": "borrower",
        "offset": 0,
        "slot": "451",
        "type": "t_address"
      },
      {
        "astId": 13972,
        "contract": "contracts/protocol/core/CreditLine.sol:CreditLine",
        "label": "currentLimit",
        "offset": 0,
        "slot": "452",
        "type": "t_uint256"
      },
      {
        "astId": 13975,
        "contract": "contracts/protocol/core/CreditLine.sol:CreditLine",
        "label": "maxLimit",
        "offset": 0,
        "slot": "453",
        "type": "t_uint256"
      },
      {
        "astId": 13978,
        "contract": "contracts/protocol/core/CreditLine.sol:CreditLine",
        "label": "interestApr",
        "offset": 0,
        "slot": "454",
        "type": "t_uint256"
      },
      {
        "astId": 13981,
        "contract": "contracts/protocol/core/CreditLine.sol:CreditLine",
        "label": "paymentPeriodInDays",
        "offset": 0,
        "slot": "455",
        "type": "t_uint256"
      },
      {
        "astId": 13984,
        "contract": "contracts/protocol/core/CreditLine.sol:CreditLine",
        "label": "termInDays",
        "offset": 0,
        "slot": "456",
        "type": "t_uint256"
      },
      {
        "astId": 13987,
        "contract": "contracts/protocol/core/CreditLine.sol:CreditLine",
        "label": "principalGracePeriodInDays",
        "offset": 0,
        "slot": "457",
        "type": "t_uint256"
      },
      {
        "astId": 13990,
        "contract": "contracts/protocol/core/CreditLine.sol:CreditLine",
        "label": "lateFeeApr",
        "offset": 0,
        "slot": "458",
        "type": "t_uint256"
      },
      {
        "astId": 13993,
        "contract": "contracts/protocol/core/CreditLine.sol:CreditLine",
        "label": "balance",
        "offset": 0,
        "slot": "459",
        "type": "t_uint256"
      },
      {
        "astId": 13996,
        "contract": "contracts/protocol/core/CreditLine.sol:CreditLine",
        "label": "interestOwed",
        "offset": 0,
        "slot": "460",
        "type": "t_uint256"
      },
      {
        "astId": 13999,
        "contract": "contracts/protocol/core/CreditLine.sol:CreditLine",
        "label": "principalOwed",
        "offset": 0,
        "slot": "461",
        "type": "t_uint256"
      },
      {
        "astId": 14002,
        "contract": "contracts/protocol/core/CreditLine.sol:CreditLine",
        "label": "termEndTime",
        "offset": 0,
        "slot": "462",
        "type": "t_uint256"
      },
      {
        "astId": 14005,
        "contract": "contracts/protocol/core/CreditLine.sol:CreditLine",
        "label": "nextDueTime",
        "offset": 0,
        "slot": "463",
        "type": "t_uint256"
      },
      {
        "astId": 14008,
        "contract": "contracts/protocol/core/CreditLine.sol:CreditLine",
        "label": "interestAccruedAsOf",
        "offset": 0,
        "slot": "464",
        "type": "t_uint256"
      },
      {
        "astId": 14011,
        "contract": "contracts/protocol/core/CreditLine.sol:CreditLine",
        "label": "lastFullPaymentTime",
        "offset": 0,
        "slot": "465",
        "type": "t_uint256"
      },
      {
        "astId": 14013,
        "contract": "contracts/protocol/core/CreditLine.sol:CreditLine",
        "label": "totalInterestAccrued",
        "offset": 0,
        "slot": "466",
        "type": "t_uint256"
      },
      {
        "astId": 14015,
        "contract": "contracts/protocol/core/CreditLine.sol:CreditLine",
        "label": "config",
        "offset": 0,
        "slot": "467",
        "type": "t_contract(GoldfinchConfig)16826"
      }
    ],
    "types": {
      "t_address": {
        "encoding": "inplace",
        "label": "address",
        "numberOfBytes": "20"
      },
      "t_array(t_bytes32)dyn_storage": {
        "base": "t_bytes32",
        "encoding": "dynamic_array",
        "label": "bytes32[]",
        "numberOfBytes": "32"
      },
      "t_array(t_uint256)49_storage": {
        "base": "t_uint256",
        "encoding": "inplace",
        "label": "uint256[49]",
        "numberOfBytes": "1568"
      },
      "t_array(t_uint256)50_storage": {
        "base": "t_uint256",
        "encoding": "inplace",
        "label": "uint256[50]",
        "numberOfBytes": "1600"
      },
      "t_bool": {
        "encoding": "inplace",
        "label": "bool",
        "numberOfBytes": "1"
      },
      "t_bytes32": {
        "encoding": "inplace",
        "label": "bytes32",
        "numberOfBytes": "32"
      },
      "t_contract(GoldfinchConfig)16826": {
        "encoding": "inplace",
        "label": "contract GoldfinchConfig",
        "numberOfBytes": "20"
      },
      "t_mapping(t_bytes32,t_struct(RoleData)159_storage)": {
        "encoding": "mapping",
        "key": "t_bytes32",
        "label": "mapping(bytes32 => struct AccessControlUpgradeSafe.RoleData)",
        "numberOfBytes": "32",
        "value": "t_struct(RoleData)159_storage"
      },
      "t_mapping(t_bytes32,t_uint256)": {
        "encoding": "mapping",
        "key": "t_bytes32",
        "label": "mapping(bytes32 => uint256)",
        "numberOfBytes": "32",
        "value": "t_uint256"
      },
      "t_struct(AddressSet)2792_storage": {
        "encoding": "inplace",
        "label": "struct EnumerableSet.AddressSet",
        "members": [
          {
            "astId": 2791,
            "contract": "contracts/protocol/core/CreditLine.sol:CreditLine",
            "label": "_inner",
            "offset": 0,
            "slot": "0",
            "type": "t_struct(Set)2612_storage"
          }
        ],
        "numberOfBytes": "64"
      },
      "t_struct(RoleData)159_storage": {
        "encoding": "inplace",
        "label": "struct AccessControlUpgradeSafe.RoleData",
        "members": [
          {
            "astId": 156,
            "contract": "contracts/protocol/core/CreditLine.sol:CreditLine",
            "label": "members",
            "offset": 0,
            "slot": "0",
            "type": "t_struct(AddressSet)2792_storage"
          },
          {
            "astId": 158,
            "contract": "contracts/protocol/core/CreditLine.sol:CreditLine",
            "label": "adminRole",
            "offset": 0,
            "slot": "2",
            "type": "t_bytes32"
          }
        ],
        "numberOfBytes": "96"
      },
      "t_struct(Set)2612_storage": {
        "encoding": "inplace",
        "label": "struct EnumerableSet.Set",
        "members": [
          {
            "astId": 2607,
            "contract": "contracts/protocol/core/CreditLine.sol:CreditLine",
            "label": "_values",
            "offset": 0,
            "slot": "0",
            "type": "t_array(t_bytes32)dyn_storage"
          },
          {
            "astId": 2611,
            "contract": "contracts/protocol/core/CreditLine.sol:CreditLine",
            "label": "_indexes",
            "offset": 0,
            "slot": "1",
            "type": "t_mapping(t_bytes32,t_uint256)"
          }
        ],
        "numberOfBytes": "64"
      },
      "t_uint256": {
        "encoding": "inplace",
        "label": "uint256",
        "numberOfBytes": "32"
      }
    }
  }
}