{
  "address": "0xD52dc1615c843c30F2e4668E101c0938e6007220",
  "abi": [
    {
      "anonymous": false,
      "inputs": [
        {
          "indexed": true,
          "internalType": "address",
          "name": "borrower",
          "type": "address"
        },
        {
          "indexed": true,
          "internalType": "address",
          "name": "creditLine",
          "type": "address"
        }
      ],
      "name": "CreditLineCreated",
      "type": "event"
    },
    {
      "anonymous": false,
      "inputs": [
        {
          "indexed": true,
          "internalType": "address",
          "name": "borrower",
          "type": "address"
        },
        {
          "indexed": true,
          "internalType": "address",
          "name": "creditLine",
          "type": "address"
        },
        {
          "indexed": false,
          "internalType": "uint256",
          "name": "drawdownAmount",
          "type": "uint256"
        }
      ],
      "name": "DrawdownMade",
      "type": "event"
    },
    {
      "anonymous": false,
      "inputs": [
        {
          "indexed": true,
          "internalType": "address",
          "name": "underwriter",
          "type": "address"
        },
        {
          "indexed": false,
          "internalType": "uint256",
          "name": "newLimit",
          "type": "uint256"
        }
      ],
      "name": "GovernanceUpdatedUnderwriterLimit",
      "type": "event"
    },
    {
      "anonymous": false,
      "inputs": [
        {
          "indexed": false,
          "internalType": "address",
          "name": "account",
          "type": "address"
        }
      ],
      "name": "Paused",
      "type": "event"
    },
    {
      "anonymous": false,
      "inputs": [
        {
          "indexed": true,
          "internalType": "address",
          "name": "payer",
          "type": "address"
        },
        {
          "indexed": true,
          "internalType": "address",
          "name": "creditLine",
          "type": "address"
        },
        {
          "indexed": false,
          "internalType": "uint256",
          "name": "interestAmount",
          "type": "uint256"
        },
        {
          "indexed": false,
          "internalType": "uint256",
          "name": "principalAmount",
          "type": "uint256"
        },
        {
          "indexed": false,
          "internalType": "uint256",
          "name": "remainingAmount",
          "type": "uint256"
        }
      ],
      "name": "PaymentApplied",
      "type": "event"
    },
    {
      "anonymous": false,
      "inputs": [
        {
          "indexed": true,
          "internalType": "address",
          "name": "payer",
          "type": "address"
        },
        {
          "indexed": true,
          "internalType": "address",
          "name": "creditLine",
          "type": "address"
        },
        {
          "indexed": false,
          "internalType": "uint256",
          "name": "paymentAmount",
          "type": "uint256"
        }
      ],
      "name": "PaymentCollected",
      "type": "event"
    },
    {
      "anonymous": false,
      "inputs": [
        {
          "indexed": true,
          "internalType": "bytes32",
          "name": "role",
          "type": "bytes32"
        },
        {
          "indexed": true,
          "internalType": "address",
          "name": "account",
          "type": "address"
        },
        {
          "indexed": true,
          "internalType": "address",
          "name": "sender",
          "type": "address"
        }
      ],
      "name": "RoleGranted",
      "type": "event"
    },
    {
      "anonymous": false,
      "inputs": [
        {
          "indexed": true,
          "internalType": "bytes32",
          "name": "role",
          "type": "bytes32"
        },
        {
          "indexed": true,
          "internalType": "address",
          "name": "account",
          "type": "address"
        },
        {
          "indexed": true,
          "internalType": "address",
          "name": "sender",
          "type": "address"
        }
      ],
      "name": "RoleRevoked",
      "type": "event"
    },
    {
      "anonymous": false,
      "inputs": [
        {
          "indexed": false,
          "internalType": "address",
          "name": "account",
          "type": "address"
        }
      ],
      "name": "Unpaused",
      "type": "event"
    },
    {
      "inputs": [],
      "name": "DEFAULT_ADMIN_ROLE",
      "outputs": [
        {
          "internalType": "bytes32",
          "name": "",
          "type": "bytes32"
        }
      ],
      "stateMutability": "view",
      "type": "function"
    },
    {
      "inputs": [],
      "name": "OWNER_ROLE",
      "outputs": [
        {
          "internalType": "bytes32",
          "name": "",
          "type": "bytes32"
        }
      ],
      "stateMutability": "view",
      "type": "function"
    },
    {
      "inputs": [],
      "name": "PAUSER_ROLE",
      "outputs": [
        {
          "internalType": "bytes32",
          "name": "",
          "type": "bytes32"
        }
      ],
      "stateMutability": "view",
      "type": "function"
    },
    {
      "inputs": [],
      "name": "SECONDS_PER_DAY",
      "outputs": [
        {
          "internalType": "uint256",
          "name": "",
          "type": "uint256"
        }
      ],
      "stateMutability": "view",
      "type": "function"
    },
    {
      "inputs": [
        {
          "internalType": "address",
          "name": "owner",
          "type": "address"
        }
      ],
      "name": "__BaseUpgradeablePausable__init",
      "outputs": [],
      "stateMutability": "nonpayable",
      "type": "function"
    },
    {
      "inputs": [],
      "name": "__PauserPausable__init",
      "outputs": [],
      "stateMutability": "nonpayable",
      "type": "function"
    },
    {
      "inputs": [
        {
          "internalType": "address",
          "name": "creditLineAddress",
          "type": "address"
        },
        {
          "internalType": "uint256",
          "name": "amount",
          "type": "uint256"
        }
      ],
      "name": "applyPayment",
      "outputs": [],
      "stateMutability": "nonpayable",
      "type": "function"
    },
    {
      "inputs": [
        {
          "internalType": "address",
          "name": "creditLineAddress",
          "type": "address"
        }
      ],
      "name": "assessCreditLine",
      "outputs": [],
      "stateMutability": "nonpayable",
      "type": "function"
    },
    {
      "inputs": [],
      "name": "config",
      "outputs": [
        {
          "internalType": "contract GoldfinchConfig",
          "name": "",
          "type": "address"
        }
      ],
      "stateMutability": "view",
      "type": "function"
    },
    {
      "inputs": [
        {
          "internalType": "address",
          "name": "creditLineAddress",
          "type": "address"
        },
        {
          "internalType": "uint256",
          "name": "amount",
          "type": "uint256"
        }
      ],
      "name": "drawdown",
      "outputs": [],
      "stateMutability": "nonpayable",
      "type": "function"
    },
    {
      "inputs": [
        {
          "internalType": "address",
          "name": "borrowerAddress",
          "type": "address"
        }
      ],
      "name": "getBorrowerCreditLines",
      "outputs": [
        {
          "internalType": "address[]",
          "name": "",
          "type": "address[]"
        }
      ],
      "stateMutability": "view",
      "type": "function"
    },
    {
      "inputs": [
        {
          "internalType": "address",
          "name": "creditLineAddress",
          "type": "address"
        },
        {
          "internalType": "uint256",
          "name": "asOf",
          "type": "uint256"
        }
      ],
      "name": "getNextPaymentAmount",
      "outputs": [
        {
          "internalType": "uint256",
          "name": "",
          "type": "uint256"
        }
      ],
      "stateMutability": "view",
      "type": "function"
    },
    {
      "inputs": [
        {
          "internalType": "bytes32",
          "name": "role",
          "type": "bytes32"
        }
      ],
      "name": "getRoleAdmin",
      "outputs": [
        {
          "internalType": "bytes32",
          "name": "",
          "type": "bytes32"
        }
      ],
      "stateMutability": "view",
      "type": "function"
    },
    {
      "inputs": [
        {
          "internalType": "bytes32",
          "name": "role",
          "type": "bytes32"
        },
        {
          "internalType": "uint256",
          "name": "index",
          "type": "uint256"
        }
      ],
      "name": "getRoleMember",
      "outputs": [
        {
          "internalType": "address",
          "name": "",
          "type": "address"
        }
      ],
      "stateMutability": "view",
      "type": "function"
    },
    {
      "inputs": [
        {
          "internalType": "bytes32",
          "name": "role",
          "type": "bytes32"
        }
      ],
      "name": "getRoleMemberCount",
      "outputs": [
        {
          "internalType": "uint256",
          "name": "",
          "type": "uint256"
        }
      ],
      "stateMutability": "view",
      "type": "function"
    },
    {
      "inputs": [
        {
          "internalType": "address",
          "name": "underwriterAddress",
          "type": "address"
        }
      ],
      "name": "getUnderwriterCreditLines",
      "outputs": [
        {
          "internalType": "address[]",
          "name": "",
          "type": "address[]"
        }
      ],
      "stateMutability": "view",
      "type": "function"
    },
    {
      "inputs": [
        {
          "internalType": "bytes32",
          "name": "role",
          "type": "bytes32"
        },
        {
          "internalType": "address",
          "name": "account",
          "type": "address"
        }
      ],
      "name": "grantRole",
      "outputs": [],
      "stateMutability": "nonpayable",
      "type": "function"
    },
    {
      "inputs": [
        {
          "internalType": "bytes32",
          "name": "role",
          "type": "bytes32"
        },
        {
          "internalType": "address",
          "name": "account",
          "type": "address"
        }
      ],
      "name": "hasRole",
      "outputs": [
        {
          "internalType": "bool",
          "name": "",
          "type": "bool"
        }
      ],
      "stateMutability": "view",
      "type": "function"
    },
    {
      "inputs": [
        {
          "internalType": "address",
          "name": "owner",
          "type": "address"
        },
        {
          "internalType": "contract GoldfinchConfig",
          "name": "_config",
          "type": "address"
        }
      ],
      "name": "initialize",
      "outputs": [],
      "stateMutability": "nonpayable",
      "type": "function"
    },
    {
      "inputs": [],
      "name": "isAdmin",
      "outputs": [
        {
          "internalType": "bool",
          "name": "",
          "type": "bool"
        }
      ],
      "stateMutability": "view",
      "type": "function"
    },
    {
      "inputs": [
        {
          "internalType": "address",
          "name": "_clToMigrate",
          "type": "address"
        },
        {
          "internalType": "address",
          "name": "borrower",
          "type": "address"
        },
        {
          "internalType": "uint256",
          "name": "termEndTime",
          "type": "uint256"
        },
        {
          "internalType": "uint256",
          "name": "nextDueTime",
          "type": "uint256"
        },
        {
          "internalType": "uint256",
          "name": "interestAccruedAsOf",
          "type": "uint256"
        },
        {
          "internalType": "uint256",
          "name": "lastFullPaymentTime",
          "type": "uint256"
        },
        {
          "internalType": "uint256",
          "name": "totalInterestPaid",
          "type": "uint256"
        }
      ],
      "name": "migrateV1CreditLine",
      "outputs": [
        {
          "internalType": "address",
          "name": "",
          "type": "address"
        },
        {
          "internalType": "address",
          "name": "",
          "type": "address"
        }
      ],
      "stateMutability": "nonpayable",
      "type": "function"
    },
    {
      "inputs": [],
      "name": "pause",
      "outputs": [],
      "stateMutability": "nonpayable",
      "type": "function"
    },
    {
      "inputs": [],
      "name": "paused",
      "outputs": [
        {
          "internalType": "bool",
          "name": "",
          "type": "bool"
        }
      ],
      "stateMutability": "view",
      "type": "function"
    },
    {
      "inputs": [
        {
          "internalType": "address",
          "name": "creditLineAddress",
          "type": "address"
        },
        {
          "internalType": "uint256",
          "name": "amount",
          "type": "uint256"
        }
      ],
      "name": "pay",
      "outputs": [],
      "stateMutability": "nonpayable",
      "type": "function"
    },
    {
      "inputs": [
        {
          "internalType": "bytes32",
          "name": "role",
          "type": "bytes32"
        },
        {
          "internalType": "address",
          "name": "account",
          "type": "address"
        }
      ],
      "name": "renounceRole",
      "outputs": [],
      "stateMutability": "nonpayable",
      "type": "function"
    },
    {
      "inputs": [
        {
          "internalType": "bytes32",
          "name": "role",
          "type": "bytes32"
        },
        {
          "internalType": "address",
          "name": "account",
          "type": "address"
        }
      ],
      "name": "revokeRole",
      "outputs": [],
      "stateMutability": "nonpayable",
      "type": "function"
    },
    {
      "inputs": [
        {
          "internalType": "address",
          "name": "underwriterAddress",
          "type": "address"
        },
        {
          "internalType": "uint256",
          "name": "limit",
          "type": "uint256"
        }
      ],
      "name": "setUnderwriterGovernanceLimit",
      "outputs": [],
      "stateMutability": "nonpayable",
      "type": "function"
    },
    {
      "inputs": [],
      "name": "totalLoansOutstanding",
      "outputs": [
        {
          "internalType": "uint256",
          "name": "",
          "type": "uint256"
        }
      ],
      "stateMutability": "view",
      "type": "function"
    },
    {
      "inputs": [],
      "name": "totalWritedowns",
      "outputs": [
        {
          "internalType": "uint256",
          "name": "",
          "type": "uint256"
        }
      ],
      "stateMutability": "view",
      "type": "function"
    },
    {
      "inputs": [
        {
          "internalType": "address",
          "name": "",
          "type": "address"
        }
      ],
      "name": "underwriters",
      "outputs": [
        {
          "internalType": "uint256",
          "name": "governanceLimit",
          "type": "uint256"
        }
      ],
      "stateMutability": "view",
      "type": "function"
    },
    {
      "inputs": [],
      "name": "unpause",
      "outputs": [],
      "stateMutability": "nonpayable",
      "type": "function"
    },
    {
      "inputs": [],
      "name": "updateGoldfinchConfig",
      "outputs": [],
      "stateMutability": "nonpayable",
      "type": "function"
    }
  ],
  "transactionHash": "0x20b88d9a23a2e7e732b47d60b4935cfd1f05a286eb975528c1f6ffd7cad3cc60",
  "args": [],
  "solcInputHash": "60bf04b8c24669590397de1969e3a29e",
  "bytecode": "0x608060405234801561001057600080fd5b50614509806100206000396000f3fe608060405234801561001057600080fd5b50600436106101f05760003560e01c80638456cb591161010f578063c26ff936116100a2578063e58378bb11610071578063e58378bb146103e8578063e63ab1e9146103f0578063ed80c850146103f8578063f5c7e0e214610400576101f0565b8063c26ff9361461039c578063c4076876146103af578063ca15c873146103c2578063d547741f146103d5576101f0565b8063a217fddf116100de578063a217fddf14610363578063a6f4487e1461036b578063b6db75a014610373578063c153696f1461037b576101f0565b80638456cb59146103225780639010d07c1461032a57806391d148541461033d57806394a3fcad14610350576101f0565b80634f92a7281161018757806374f0314f1161015657806374f0314f146102d257806379502c55146102da5780637d533642146102ef578063844a28c314610302576101f0565b80634f92a7281461029a578063526d81f6146102a25780635c975abb146102aa5780636acab9da146102bf576101f0565b80632f2ff15d116101c35780632f2ff15d1461025957806336568abe1461026c5780633f4ba83a1461027f578063485cc95514610287576101f0565b8063097616a3146101f55780630e4645ef1461020a578063248a9ca31461021d5780632e0c6cfe14610246575b600080fd5b61020861020336600461380c565b610413565b005b6102086102183660046138dd565b61054c565b61023061022b366004613928565b610610565b60405161023d9190613b36565b60405180910390f35b6102086102543660046138dd565b610628565b610208610267366004613940565b610743565b61020861027a366004613940565b610787565b6102086107c9565b6102086102953660046138a5565b610809565b6102086108ef565b61020861094c565b6102b26109d7565b60405161023d9190613b2b565b6102086102cd3660046138dd565b6109e0565b610230610f17565b6102e2610f1e565b60405161023d9190613a17565b6102306102fd36600461380c565b610f2e565b61031561031036600461380c565b610f41565b60405161023d9190613ade565b610208610fbb565b6102e2610338366004613964565b610ff9565b6102b261034b366004613940565b61101a565b61023061035e3660046138dd565b611032565b61023061128e565b610230611293565b6102b261129a565b61038e610389366004613844565b6112bb565b60405161023d929190613a68565b6103156103aa36600461380c565b611a6f565b6102086103bd3660046138dd565b611ae4565b6102306103d0366004613928565b611b75565b6102086103e3366004613940565b611b8c565b610230611bc6565b610230611bd8565b610230611bea565b61020861040e36600461380c565b611bf1565b600054610100900460ff168061042c575061042c611e5d565b8061043a575060005460ff16155b61045f5760405162461bcd60e51b8152600401610456906141a2565b60405180910390fd5b600054610100900460ff1615801561048a576000805460ff1961ff0019909116610100171660011790555b6001600160a01b0382166104b05760405162461bcd60e51b815260040161045690614027565b6104b8611e63565b6104c0611ee4565b6104c8611f70565b6104e06000805160206144948339815191528361077d565b6104f86000805160206144b48339815191528361077d565b61051e6000805160206144b4833981519152600080516020614494833981519152611fff565b61053660008051602061449483398151915280611fff565b8015610548576000805461ff00191690555b5050565b61055461129a565b6105705760405162461bcd60e51b8152600401610456906143b3565b60975460ff16156105935760405162461bcd60e51b815260040161045690613f7e565b61059c81612014565b6105b85760405162461bcd60e51b815260040161045690614227565b6001600160a01b03821660008181526101c6602052604090819020839055517f7be5403eca163f383a39c2d1f65a8fee2c9e41e7e6b150f4abfe16eaaf1d907690610604908490613b36565b60405180910390a25050565b6000818152606560205260409020600201545b919050565b60975460ff161561064b5760405162461bcd60e51b815260040161045690613f7e565b6001600160a01b0380831660009081526101c860205260409020548391166106855760405162461bcd60e51b81526004016104569061405c565b6000839050336001600160a01b0316816001600160a01b0316637df1f1b96040518163ffffffff1660e01b815260040160206040518083038186803b1580156106cd57600080fd5b505afa1580156106e1573d6000803e3d6000fd5b505050506040513d601f19601f820116820180604052508101906107059190613828565b6001600160a01b03161461072b5760405162461bcd60e51b815260040161045690614089565b61073d81846107386120a1565b6120a5565b50505050565b6000828152606560205260409020600201546107619061034b612212565b61077d5760405162461bcd60e51b815260040161045690613c07565b6105488282612216565b61078f612212565b6001600160a01b0316816001600160a01b0316146107bf5760405162461bcd60e51b8152600401610456906143fe565b610548828261227f565b6107e36000805160206144b483398151915261034b612212565b6107ff5760405162461bcd60e51b815260040161045690613d6b565b6108076122e8565b565b600054610100900460ff16806108225750610822611e5d565b80610830575060005460ff16155b61084c5760405162461bcd60e51b8152600401610456906141a2565b600054610100900460ff16158015610877576000805460ff1961ff0019909116610100171660011790555b6001600160a01b0383161580159061089757506001600160a01b03821615155b6108b35760405162461bcd60e51b815260040161045690613c84565b6108bc83610413565b6101c580546001600160a01b0319166001600160a01b03841617905580156108ea576000805461ff00191690555b505050565b6108f761129a565b6109135760405162461bcd60e51b8152600401610456906143b3565b6101c554610929906001600160a01b0316612354565b6101c580546001600160a01b0319166001600160a01b0392909216919091179055565b600054610100900460ff16806109655750610965611e5d565b80610973575060005460ff16155b61098f5760405162461bcd60e51b8152600401610456906141a2565b600054610100900460ff161580156109ba576000805460ff1961ff0019909116610100171660011790555b6109c2611ee4565b80156109d4576000805461ff00191690555b50565b60975460ff1690565b60975460ff1615610a035760405162461bcd60e51b815260040161045690613f7e565b6001600160a01b0380831660009081526101c86020526040902054839116610a3d5760405162461bcd60e51b81526004016104569061405c565b3360009081526101c7602052604090208054849190610a6e5760405162461bcd60e51b815260040161045690613ee7565b60008411610a8e5760405162461bcd60e51b815260040161045690614284565b336001600160a01b0316826001600160a01b0316637df1f1b96040518163ffffffff1660e01b815260040160206040518083038186803b158015610ad157600080fd5b505afa158015610ae5573d6000803e3d6000fd5b505050506040513d601f19601f82011682018060405250810190610b099190613828565b6001600160a01b031614610b2f5760405162461bcd60e51b815260040161045690614156565b610b38846123d4565b610b545760405162461bcd60e51b815260040161045690613fa8565b6000610b5f866123ef565b9050610b6c858285612483565b610b885760405162461bcd60e51b8152600401610456906142bb565b6000836001600160a01b031663b69ef8a86040518163ffffffff1660e01b815260040160206040518083038186803b158015610bc357600080fd5b505afa158015610bd7573d6000803e3d6000fd5b505050506040513d601f19601f82011682018060405250810190610bfb91906139dc565b905080610ccd57836001600160a01b031663a6b1ae0d610c196120a1565b6040518263ffffffff1660e01b8152600401610c359190613b36565b600060405180830381600087803b158015610c4f57600080fd5b505af1158015610c63573d6000803e3d6000fd5b50505050836001600160a01b03166336d91494610c7e6120a1565b6040518263ffffffff1660e01b8152600401610c9a9190613b36565b600060405180830381600087803b158015610cb457600080fd5b505af1158015610cc8573d6000803e3d6000fd5b505050505b6101c554600090610ce6906001600160a01b0316612547565b905060008315610db65783881115610d0b575082610d048882612552565b9750610d10565b506000965b6040516323b872dd60e01b81526000906001600160a01b038416906323b872dd90610d43908d9033908790600401613a2b565b602060405180830381600087803b158015610d5d57600080fd5b505af1158015610d71573d6000803e3d6000fd5b505050506040513d601f19601f82011682018060405250810190610d959190613908565b905080610db45760405162461bcd60e51b815260040161045690613dee565b505b600080610dca88610dc56120a1565b612594565b9092509050610dd9858b61273c565b9450610de788868484612761565b610df888610df36120a1565b612b76565b15610e155760405162461bcd60e51b815260040161045690613cce565b6001600160a01b038816337f7ec4669c579321a5cf5a6b525637eb0924a93e2e11eab9d14be8b44de1116b1b610e4b8d8761273c565b604051610e589190613b36565b60405180910390a38915610f0a576040516335655ced60e11b81526000906001600160a01b03861690636acab9da90610e979033908f90600401613a4f565b602060405180830381600087803b158015610eb157600080fd5b505af1158015610ec5573d6000803e3d6000fd5b505050506040513d601f19601f82011682018060405250810190610ee99190613908565b905080610f085760405162461bcd60e51b815260040161045690613dee565b505b5050505050505050505050565b6201518081565b6101c5546001600160a01b031681565b6101c66020526000908152604090205481565b6001600160a01b03811660009081526101c66020908152604091829020600101805483518184028101840190945280845260609392830182828015610faf57602002820191906000526020600020905b81546001600160a01b03168152600190910190602001808311610f91575b50505050509050919050565b610fd56000805160206144b483398151915261034b612212565b610ff15760405162461bcd60e51b815260040161045690613d6b565b610807612c3e565b60008281526065602052604081206110119083612c97565b90505b92915050565b60008281526065602052604081206110119083612ca3565b6001600160a01b0380831660009081526101c86020526040812054909184911661106e5760405162461bcd60e51b81526004016104569061405c565b8261107e5761107b6120a1565b92505b6000849050806001600160a01b031663d28459776040518163ffffffff1660e01b815260040160206040518083038186803b1580156110bc57600080fd5b505afa1580156110d0573d6000803e3d6000fd5b505050506040513d601f19601f820116820180604052508101906110f491906139dc565b8410801561110b575061110981610df36120a1565b155b1561111a576000925050611287565b6101c5546000908190733483Db484B213786990185Eb6347eC49904D0Bfa9063101c84309085908990611155906001600160a01b0316612cb8565b6040518463ffffffff1660e01b815260040161117393929190613abd565b604080518083038186803b15801561118a57600080fd5b505af415801561119e573d6000803e3d6000fd5b505050506040513d601f19601f820116820180604052508101906111c291906139f4565b9150915061128161124482856001600160a01b031663193501146040518163ffffffff1660e01b815260040160206040518083038186803b15801561120657600080fd5b505afa15801561121a573d6000803e3d6000fd5b505050506040513d601f19601f8201168201806040525081019061123e91906139dc565b9061273c565b61123e84866001600160a01b03166321856b366040518163ffffffff1660e01b815260040160206040518083038186803b15801561120657600080fd5b94505050505b5092915050565b600081565b6101c35481565b60006112b660008051602061449483398151915261034b612212565b905090565b6000806112c661129a565b6112e25760405162461bcd60e51b8152600401610456906143b3565b60008990506000816001600160a01b031663b69ef8a86040518163ffffffff1660e01b815260040160206040518083038186803b15801561132257600080fd5b505afa158015611336573d6000803e3d6000fd5b505050506040513d601f19601f8201168201806040525081019061135a91906139dc565b90506000826001600160a01b031663a4d66daf6040518163ffffffff1660e01b815260040160206040518083038186803b15801561139757600080fd5b505afa1580156113ab573d6000803e3d6000fd5b505050506040513d601f19601f820116820180604052508101906113cf91906139dc565b116113ec5760405162461bcd60e51b815260040161045690613ff0565b6000811161140c5760405162461bcd60e51b815260040161045690613d18565b6000826001600160a01b031663500b245e6040518163ffffffff1660e01b815260040160206040518083038186803b15801561144757600080fd5b505afa15801561145b573d6000803e3d6000fd5b505050506040513d601f19601f8201168201806040525081019061147f91906139dc565b1161149c5760405162461bcd60e51b815260040161045690614319565b6001600160a01b038a1661151e57816001600160a01b0316637df1f1b96040518163ffffffff1660e01b815260040160206040518083038186803b1580156114e357600080fd5b505afa1580156114f7573d6000803e3d6000fd5b505050506040513d601f19601f8201168201806040525081019061151b9190613828565b99505b6402540be400600061152e612ce8565b6001600160a01b031663bc38f1bf8d6014876001600160a01b031663a4d66daf6040518163ffffffff1660e01b815260040160206040518083038186803b15801561157857600080fd5b505afa15801561158c573d6000803e3d6000fd5b505050506040513d601f19601f820116820180604052508101906115b091906139dc565b61162b878a6001600160a01b031663b39699926040518163ffffffff1660e01b815260040160206040518083038186803b1580156115ed57600080fd5b505afa158015611601573d6000803e3d6000fd5b505050506040513d601f19601f8201168201806040525081019061162591906139dc565b90612d6b565b896001600160a01b03166399dd8df36040518163ffffffff1660e01b815260040160206040518083038186803b15801561166457600080fd5b505afa158015611678573d6000803e3d6000fd5b505050506040513d601f19601f8201168201806040525081019061169c91906139dc565b8a6001600160a01b03166348e6f2966040518163ffffffff1660e01b815260040160206040518083038186803b1580156116d557600080fd5b505afa1580156116e9573d6000803e3d6000fd5b505050506040513d601f19601f8201168201806040525081019061170d91906139dc565b8b6001600160a01b031663f0b25bde6040518163ffffffff1660e01b815260040160206040518083038186803b15801561174657600080fd5b505afa15801561175a573d6000803e3d6000fd5b505050506040513d601f19601f8201168201806040525081019061177e91906139dc565b6040518863ffffffff1660e01b81526004016117a09796959493929190613a82565b602060405180830381600087803b1580156117ba57600080fd5b505af11580156117ce573d6000803e3d6000fd5b505050506040513d601f19601f820116820180604052508101906117f29190613828565b90506000816001600160a01b031663895465d1868e8e8e8e8e6040518763ffffffff1660e01b815260040161182c96959493929190613b3f565b602060405180830381600087803b15801561184657600080fd5b505af115801561185a573d6000803e3d6000fd5b505050506040513d601f19601f8201168201806040525081019061187e9190613828565b6040516327ea6f2b60e01b81529091506001600160a01b038616906327ea6f2b906118ae90600090600401613b36565b600060405180830381600087803b1580156118c857600080fd5b505af11580156118dc573d6000803e3d6000fd5b5050604051637d8b34e560e11b81526001600160a01b038816925063fb1669ca915061190d90600090600401613b36565b600060405180830381600087803b15801561192757600080fd5b505af115801561193b573d6000803e3d6000fd5b5050505083816001600160a01b031663b69ef8a86040518163ffffffff1660e01b815260040160206040518083038186803b15801561197957600080fd5b505afa15801561198d573d6000803e3d6000fd5b505050506040513d601f19601f820116820180604052508101906119b191906139dc565b146119ce5760405162461bcd60e51b815260040161045690613e63565b89816001600160a01b031663bbafcb406040518163ffffffff1660e01b815260040160206040518083038186803b158015611a0857600080fd5b505afa158015611a1c573d6000803e3d6000fd5b505050506040513d601f19601f82011682018060405250810190611a4091906139dc565b14611a5d5760405162461bcd60e51b815260040161045690613e98565b9d909c509a5050505050505050505050565b6001600160a01b03811660009081526101c76020908152604091829020805483518184028101840190945280845260609392830182828015610faf576020028201919060005260206000209081546001600160a01b03168152600190910190602001808311610f915750505050509050919050565b60975460ff1615611b075760405162461bcd60e51b815260040161045690613f7e565b6001600160a01b0380831660009081526101c86020526040902054839116611b415760405162461bcd60e51b81526004016104569061405c565b60008211611b615760405162461bcd60e51b815260040161045690614345565b82611b6c8184612da5565b61073d84611bf1565b600081815260656020526040812061101490612ece565b600082815260656020526040902060020154611baa9061034b612212565b6107bf5760405162461bcd60e51b815260040161045690613f2e565b60008051602061449483398151915281565b6000805160206144b483398151915281565b6101c45481565b60975460ff1615611c145760405162461bcd60e51b815260040161045690613f7e565b6001600160a01b0380821660009081526101c86020526040902054829116611c4e5760405162461bcd60e51b81526004016104569061405c565b60008290506000816001600160a01b031663b69ef8a86040518163ffffffff1660e01b815260040160206040518083038186803b158015611c8e57600080fd5b505afa158015611ca2573d6000803e3d6000fd5b505050506040513d601f19601f82011682018060405250810190611cc691906139dc565b11611ce35760405162461bcd60e51b8152600401610456906140ce565b806001600160a01b031663d28459776040518163ffffffff1660e01b815260040160206040518083038186803b158015611d1c57600080fd5b505afa158015611d30573d6000803e3d6000fd5b505050506040513d601f19601f82011682018060405250810190611d5491906139dc565b611d5c6120a1565b108015611d725750611d7081610df36120a1565b155b15611d7d5750610548565b6000611d8882612ed9565b604051631352074160e11b81529091506001600160a01b038316906326a40e8290611db7908490600401613b36565b600060405180830381600087803b158015611dd157600080fd5b505af1158015611de5573d6000803e3d6000fd5b50505050611df16120a1565b811115611e4a576000611e3a62015180846001600160a01b03166399dd8df36040518163ffffffff1660e01b815260040160206040518083038186803b1580156115ed57600080fd5b9050611e468282612552565b9150505b61073d82611e57846123ef565b836120a5565b303b1590565b600054610100900460ff1680611e7c5750611e7c611e5d565b80611e8a575060005460ff16155b611ea65760405162461bcd60e51b8152600401610456906141a2565b600054610100900460ff161580156109c2576000805460ff1961ff00199091166101001716600117905580156109d4576000805461ff001916905550565b600054610100900460ff1680611efd5750611efd611e5d565b80611f0b575060005460ff16155b611f275760405162461bcd60e51b8152600401610456906141a2565b600054610100900460ff16158015611f52576000805460ff1961ff0019909116610100171660011790555b6097805460ff1916905580156109d4576000805461ff001916905550565b600054610100900460ff1680611f895750611f89611e5d565b80611f97575060005460ff16155b611fb35760405162461bcd60e51b8152600401610456906141a2565b600054610100900460ff16158015611fde576000805460ff1961ff0019909116610100171660011790555b60c9805460ff1916600117905580156109d4576000805461ff001916905550565b60009182526065602052604090912060020155565b6101c5546000906001600160a01b031663fc56365860025b6040518263ffffffff1660e01b81526004016120489190613b36565b60206040518083038186803b15801561206057600080fd5b505afa158015612074573d6000803e3d6000fd5b505050506040513d601f19601f8201168201806040525081019061209891906139dc565b90911115919050565b4290565b60008060006120b586868661315a565b6101c55492955090935091506000906120d6906001600160a01b0316612547565b905060008311806120e75750600082115b1561220957866001600160a01b0316876001600160a01b0316637df1f1b96040518163ffffffff1660e01b815260040160206040518083038186803b15801561212f57600080fd5b505afa158015612143573d6000803e3d6000fd5b505050506040513d601f19601f820116820180604052508101906121679190613828565b6001600160a01b03167f724fe786cff62c97ff230e98a332f95c5a11990e44123a00c2b8e76b0566e4118585886040516121a39392919061444d565b60405180910390a36040516371bb0bab60e01b81526001600160a01b038216906371bb0bab906121db908a9087908790600401613abd565b600060405180830381600087803b1580156121f557600080fd5b505af1158015610f0a573d6000803e3d6000fd5b50505050505050565b3390565b600082815260656020526040902061222e90826133d5565b156105485761223b612212565b6001600160a01b0316816001600160a01b0316837f2f8788117e7eff1d82e926ec794901d17c78024a50270940304540a733656f0d60405160405180910390a45050565b600082815260656020526040902061229790826133ea565b15610548576122a4612212565b6001600160a01b0316816001600160a01b0316837ff6391f5c32d9c69d2a47ea670b442974b53935d1edc7fd64eb21e047a839171b60405160405180910390a45050565b60975460ff1661230a5760405162461bcd60e51b815260040161045690613c56565b6097805460ff191690557f5db9ee0a495bf2e6ff9c91a7834c1ba4fdd244a5e8aa4e537bd38aeae4b073aa61233d612212565b60405161234a9190613a17565b60405180910390a1565b60006001600160a01b03821663b93f9b0a600b5b6040518263ffffffff1660e01b81526004016123849190613b36565b60206040518083038186803b15801561239c57600080fd5b505afa1580156123b0573d6000803e3d6000fd5b505050506040513d601f19601f820116820180604052508101906110149190613828565b6101c5546000906001600160a01b031663fc5636588261202c565b6101c554600090612408906001600160a01b03166133ff565b6001600160a01b03166370a08231836040518263ffffffff1660e01b81526004016124339190613a17565b60206040518083038186803b15801561244b57600080fd5b505afa15801561245f573d6000803e3d6000fd5b505050506040513d601f19601f8201168201806040525081019061101491906139dc565b6000816001600160a01b031663a4d66daf6040518163ffffffff1660e01b815260040160206040518083038186803b1580156124be57600080fd5b505afa1580156124d2573d6000803e3d6000fd5b505050506040513d601f19601f820116820180604052508101906124f691906139dc565b61253d8461253787866001600160a01b031663b69ef8a86040518163ffffffff1660e01b815260040160206040518083038186803b15801561120657600080fd5b90612552565b1115949350505050565b60006110148261340a565b600061101183836040518060400160405280601e81526020017f536166654d6174683a207375627472616374696f6e206f766572666c6f770000815250613421565b600080600080733483Db484B213786990185Eb6347eC49904D0Bfa63101c843087876125de6101c560009054906101000a90046001600160a01b03166001600160a01b0316612cb8565b6040518463ffffffff1660e01b81526004016125fc93929190613abd565b604080518083038186803b15801561261357600080fd5b505af4158015612627573d6000803e3d6000fd5b505050506040513d601f19601f8201168201806040525081019061264b91906139f4565b909250905081156126b55760405163a6b1ae0d60e01b81526001600160a01b0387169063a6b1ae0d90612682908890600401613b36565b600060405180830381600087803b15801561269c57600080fd5b505af11580156126b0573d6000803e3d6000fd5b505050505b6126f282876001600160a01b03166321856b366040518163ffffffff1660e01b815260040160206040518083038186803b15801561120657600080fd5b61272f82886001600160a01b031663193501146040518163ffffffff1660e01b815260040160206040518083038186803b15801561120657600080fd5b9350935050509250929050565b6000828201838110156110115760405162461bcd60e51b815260040161045690613db7565b60c95460ff166127835760405162461bcd60e51b81526004016104569061437c565b60c9805460ff19169055604080516316d3df1560e31b81529051612814916001600160a01b0387169163b69ef8a891600480820192602092909190829003018186803b1580156127d257600080fd5b505afa1580156127e6573d6000803e3d6000fd5b505050506040513d601f19601f8201168201806040525081019061280a91906139dc565b6101c45490612552565b6101c455604051637d8b34e560e11b81526001600160a01b0385169063fb1669ca90612844908690600401613b36565b600060405180830381600087803b15801561285e57600080fd5b505af1158015612872573d6000803e3d6000fd5b50506040516396c8df3760e01b81526001600160a01b03871692506396c8df3791506128a2908590600401613b36565b600060405180830381600087803b1580156128bc57600080fd5b505af11580156128d0573d6000803e3d6000fd5b505060405163b3b8a9c760e01b81526001600160a01b038716925063b3b8a9c79150612900908490600401613b36565b600060405180830381600087803b15801561291a57600080fd5b505af115801561292e573d6000803e3d6000fd5b505050506000846001600160a01b031663d28459776040518163ffffffff1660e01b815260040160206040518083038186803b15801561296d57600080fd5b505afa158015612981573d6000803e3d6000fd5b505050506040513d601f19601f820116820180604052508101906129a591906139dc565b9050821580156129b457508015155b15612a83576000816129c46120a1565b1015612a20576000612a0c62015180886001600160a01b03166399dd8df36040518163ffffffff1660e01b815260040160206040518083038186803b1580156115ed57600080fd5b9050612a188382612552565b915050612a23565b50805b604051630db6452560e21b81526001600160a01b038716906336d9149490612a4f908490600401613b36565b600060405180830381600087803b158015612a6957600080fd5b505af1158015612a7d573d6000803e3d6000fd5b50505050505b6101c454612a91908561273c565b6101c4556001600160a01b038516637ae14b09612aae878761344d565b6040518263ffffffff1660e01b8152600401612aca9190613b36565b600060405180830381600087803b158015612ae457600080fd5b505af1158015612af8573d6000803e3d6000fd5b50505050846001600160a01b03166326a40e82612b1487612ed9565b6040518263ffffffff1660e01b8152600401612b309190613b36565b600060405180830381600087803b158015612b4a57600080fd5b505af1158015612b5e573d6000803e3d6000fd5b505060c9805460ff1916600117905550505050505050565b600080612bf4846001600160a01b031663ce78290d6040518163ffffffff1660e01b815260040160206040518083038186803b158015612bb557600080fd5b505afa158015612bc9573d6000803e3d6000fd5b505050506040513d601f19601f82011682018060405250810190612bed91906139dc565b8490612552565b9050612c3662015180856001600160a01b03166399dd8df36040518163ffffffff1660e01b815260040160206040518083038186803b1580156115ed57600080fd5b109392505050565b60975460ff1615612c615760405162461bcd60e51b815260040161045690613f7e565b6097805460ff191660011790557f62e78cea01bee320cd4e420270b5ea74000d11b0c9f74754ebdbfc544b05a25861233d612212565b600061101183836135d3565b6000611011836001600160a01b038416613618565b604051631f8ac6cb60e31b81526000906001600160a01b0383169063fc5636589061243390600590600401613b36565b6101c554604051635c9fcd8560e11b81526000916001600160a01b03169063b93f9b0a90612d1b90600290600401613b36565b60206040518083038186803b158015612d3357600080fd5b505afa158015612d47573d6000803e3d6000fd5b505050506040513d601f19601f820116820180604052508101906112b69190613828565b600082612d7a57506000611014565b82820282848281612d8757fe5b04146110115760405162461bcd60e51b815260040161045690614115565b612dae816123d4565b612dca5760405162461bcd60e51b815260040161045690613fa8565b816001600160a01b0316336001600160a01b03167fc4036209c61f1d5aad789d2b8fa9ca23bf8b1516748d2e0be7227bf3fce67d2d83604051612e0d9190613b36565b60405180910390a36101c554600090612e2e906001600160a01b0316612547565b6001600160a01b03166323b872dd3385856040518463ffffffff1660e01b8152600401612e5d93929190613a2b565b602060405180830381600087803b158015612e7757600080fd5b505af1158015612e8b573d6000803e3d6000fd5b505050506040513d601f19601f82011682018060405250810190612eaf9190613908565b9050806108ea5760405162461bcd60e51b8152600401610456906141f0565b600061101482613630565b600080612f1c62015180846001600160a01b03166399dd8df36040518163ffffffff1660e01b815260040160206040518083038186803b1580156115ed57600080fd5b90506000836001600160a01b031663b69ef8a86040518163ffffffff1660e01b815260040160206040518083038186803b158015612f5957600080fd5b505afa158015612f6d573d6000803e3d6000fd5b505050506040513d601f19601f82011682018060405250810190612f9191906139dc565b90506000846001600160a01b031663d28459776040518163ffffffff1660e01b815260040160206040518083038186803b158015612fce57600080fd5b505afa158015612fe2573d6000803e3d6000fd5b505050506040513d601f19601f8201168201806040525081019061300691906139dc565b905060006130126120a1565b9050811580156130225750600083115b1561303c57613031818561273c565b945050505050610623565b60008311801561304c5750818110155b1561310457600061307085611625600161123e8361306a888a612552565b90613634565b905061307c838261273c565b92506130f883886001600160a01b03166364fb2d956040518163ffffffff1660e01b815260040160206040518083038186803b1580156130bb57600080fd5b505afa1580156130cf573d6000803e3d6000fd5b505050506040513d601f19601f820116820180604052508101906130f391906139dc565b613676565b95505050505050610623565b8215801561311157508115155b15613123576000945050505050610623565b60008311801561313257508181105b1561314257509250610623915050565b60405162461bcd60e51b815260040161045690613e1a565b600080600080600061316c8887612594565b915091506131786137eb565b733483Db484B213786990185Eb6347eC49904D0Bfa63d7cc2a03898b6001600160a01b031663b69ef8a86040518163ffffffff1660e01b815260040160206040518083038186803b1580156131cc57600080fd5b505afa1580156131e0573d6000803e3d6000fd5b505050506040513d601f19601f8201168201806040525081019061320491906139dc565b86866040518563ffffffff1660e01b81526004016132259493929190614463565b60606040518083038186803b15801561323d57600080fd5b505af4158015613251573d6000803e3d6000fd5b505050506040513d601f19601f820116820180604052508101906132759190613985565b905060006132f282602001518b6001600160a01b031663b69ef8a86040518163ffffffff1660e01b815260040160206040518083038186803b1580156132ba57600080fd5b505afa1580156132ce573d6000803e3d6000fd5b505050506040513d601f19601f8201168201806040525081019061253791906139dc565b905061330b82604001518261255290919063ffffffff16565b9050600061334c828c6001600160a01b031663b69ef8a86040518163ffffffff1660e01b815260040160206040518083038186803b1580156132ba57600080fd5b9050600061336b8261253786600001518e61255290919063ffffffff16565b905061339e8c8461338987600001518a61255290919063ffffffff16565b6020880151613399908a90612552565b612761565b8a6133ba8361123e87600001518561273c90919063ffffffff16565b146133c157fe5b9251929b929a509850909650505050505050565b6000611011836001600160a01b03841661368c565b6000611011836001600160a01b0384166136d6565b60006110148261379c565b60006001600160a01b03821663b93f9b0a82612368565b600081848411156134455760405162461bcd60e51b81526004016104569190613b72565b505050900390565b60008161345c57506000611014565b826001600160a01b03166364fb2d956040518163ffffffff1660e01b815260040160206040518083038186803b15801561349557600080fd5b505afa1580156134a9573d6000803e3d6000fd5b505050506040513d601f19601f820116820180604052508101906134cd91906139dc565b1561354a57826001600160a01b03166364fb2d956040518163ffffffff1660e01b815260040160206040518083038186803b15801561350b57600080fd5b505afa15801561351f573d6000803e3d6000fd5b505050506040513d601f19601f8201168201806040525081019061354391906139dc565b9050611014565b6110116135cb846001600160a01b03166348e6f2966040518163ffffffff1660e01b815260040160206040518083038186803b15801561358957600080fd5b505afa15801561359d573d6000803e3d6000fd5b505050506040513d601f19601f820116820180604052508101906135c191906139dc565b6201518090612d6b565b61123e6120a1565b815460009082106135f65760405162461bcd60e51b815260040161045690613bc5565b82600001828154811061360557fe5b9060005260206000200154905092915050565b60009081526001919091016020526040902054151590565b5490565b600061101183836040518060400160405280601a81526020017f536166654d6174683a206469766973696f6e206279207a65726f0000000000008152506137b4565b60008183106136855781611011565b5090919050565b60006136988383613618565b6136ce57508154600181810184556000848152602080822090930184905584548482528286019093526040902091909155611014565b506000611014565b60008181526001830160205260408120548015613792578354600019808301919081019060009087908390811061370957fe5b906000526020600020015490508087600001848154811061372657fe5b60009182526020808320909101929092558281526001898101909252604090209084019055865487908061375657fe5b60019003818190600052602060002001600090559055866001016000878152602001908152602001600020600090556001945050505050611014565b6000915050611014565b60006001600160a01b03821663b93f9b0a6005612368565b600081836137d55760405162461bcd60e51b81526004016104569190613b72565b5060008385816137e157fe5b0495945050505050565b60405180606001604052806000815260200160008152602001600081525090565b60006020828403121561381d578081fd5b81356110118161447e565b600060208284031215613839578081fd5b81516110118161447e565b600080600080600080600060e0888a03121561385e578283fd5b87356138698161447e565b965060208801356138798161447e565b96999698505050506040850135946060810135946080820135945060a0820135935060c0909101359150565b600080604083850312156138b7578182fd5b82356138c28161447e565b915060208301356138d28161447e565b809150509250929050565b600080604083850312156138ef578182fd5b82356138fa8161447e565b946020939093013593505050565b600060208284031215613919578081fd5b81518015158114611011578182fd5b600060208284031215613939578081fd5b5035919050565b60008060408385031215613952578182fd5b8235915060208301356138d28161447e565b60008060408385031215613976578182fd5b50508035926020909101359150565b600060608284031215613996578081fd5b6040516060810181811067ffffffffffffffff821117156139b5578283fd5b80604052508251815260208301516020820152604083015160408201528091505092915050565b6000602082840312156139ed578081fd5b5051919050565b60008060408385031215613a06578182fd5b505080516020909101519092909150565b6001600160a01b0391909116815260200190565b6001600160a01b039384168152919092166020820152604081019190915260600190565b6001600160a01b03929092168252602082015260400190565b6001600160a01b0392831681529116602082015260400190565b6001600160a01b03979097168752602087019590955260408601939093526060850191909152608084015260a083015260c082015260e00190565b6001600160a01b039390931683526020830191909152604082015260600190565b6020808252825182820181905260009190848201906040850190845b81811015613b1f5783516001600160a01b031683529284019291840191600101613afa565b50909695505050505050565b901515815260200190565b90815260200190565b6001600160a01b03969096168652602086019490945260408501929092526060840152608083015260a082015260c00190565b6000602080835283518082850152825b81811015613b9e57858101830151858201604001528201613b82565b81811115613baf5783604083870101525b50601f01601f1916929092016040019392505050565b60208082526022908201527f456e756d657261626c655365743a20696e646578206f7574206f6620626f756e604082015261647360f01b606082015260800190565b6020808252602f908201527f416363657373436f6e74726f6c3a2073656e646572206d75737420626520616e60408201526e0818591b5a5b881d1bc819dc985b9d608a1b606082015260800190565b60208082526014908201527314185d5cd8589b194e881b9bdd081c185d5cd95960621b604082015260600190565b6020808252602a908201527f4f776e657220616e6420636f6e666967206164647265737365732063616e6e6f6040820152697420626520656d70747960b01b606082015260800190565b6020808252602a908201527f43616e6e6f742064726177646f776e207768656e207061796d656e74732061726040820152696520706173742064756560b01b606082015260800190565b60208082526033908201527f43616e2774206d69677261746520637265646974206c696e65207468617427736040820152721031bab93932b73a363c903830b4b21037b33360691b606082015260800190565b6020808252602c908201527f4d75737420686176652070617573657220726f6c6520746f20706572666f726d60408201526b103a3434b99030b1ba34b7b760a11b606082015260800190565b6020808252601b908201527f536166654d6174683a206164646974696f6e206f766572666c6f770000000000604082015260600190565b6020808252601290820152712330b4b632b2103a3790323930bbb237bbb760711b604082015260600190565b60208082526029908201527f4572726f723a20636f756c64206e6f742063616c63756c617465206e65787420604082015268323ab2903a34b6b29760b91b606082015260800190565b6020808252818101527f42616c616e636520646964206e6f74206d6967726174652070726f7065726c79604082015260600190565b6020808252602f908201527f496e7465726573742061636372756564206173206f6620646964206e6f74206d60408201526e6967726174652070726f7065726c7960881b606082015260800190565b60208082526027908201527f4e6f20637265646974206c696e657320657869737420666f722074686973206260408201526637b93937bbb2b960c91b606082015260800190565b60208082526030908201527f416363657373436f6e74726f6c3a2073656e646572206d75737420626520616e60408201526f2061646d696e20746f207265766f6b6560801b606082015260800190565b60208082526010908201526f14185d5cd8589b194e881c185d5cd95960821b604082015260600190565b60208082526028908201527f416d6f756e74206973206f76657220746865207065722d7472616e73616374696040820152671bdb881b1a5b5a5d60c21b606082015260800190565b6020808252601f908201527f43616e2774206d69677261746520656d70747920637265646974206c696e6500604082015260600190565b6020808252818101527f4f776e65722063616e6e6f7420626520746865207a65726f2061646472657373604082015260600190565b602080825260139082015272556e6b6e6f776e20637265646974206c696e6560681b604082015260600190565b60208082526025908201527f596f7520646f206e6f742062656c6f6e6720746f207468697320637265646974604082015264206c696e6560d81b606082015260800190565b60208082526027908201527f4d75737420686176652062616c616e636520746f2061737365737320637265646040820152666974206c696e6560c81b606082015260800190565b60208082526021908201527f536166654d6174683a206d756c7469706c69636174696f6e206f766572666c6f6040820152607760f81b606082015260800190565b6020808252602c908201527f596f7520617265206e6f742074686520626f72726f776572206f66207468697360408201526b20637265646974206c696e6560a01b606082015260800190565b6020808252602e908201527f436f6e747261637420696e7374616e63652068617320616c726561647920626560408201526d195b881a5b9a5d1a585b1a5e995960921b606082015260800190565b60208082526019908201527f4661696c656420746f20636f6c6c656374207061796d656e7400000000000000604082015260600190565b6020808252603a908201527f54686973206c696d69742069732067726561746572207468616e20746865206d60408201527f617820616c6c6f776564206279207468652070726f746f636f6c000000000000606082015260800190565b6020808252601c908201527f4d7573742064726177646f776e206d6f7265207468616e207a65726f00000000604082015260600190565b602080825260409082018190527f54686520626f72726f77657220646f6573206e6f74206861766520656e6f7567908201527f6820637265646974206c696d697420666f7220746869732064726177646f776e606082015260800190565b602080825260129082015271496e76616c6964206372656469746c696e6560701b604082015260600190565b60208082526017908201527f4d75737420706179206d6f7265207468616e207a65726f000000000000000000604082015260600190565b6020808252601f908201527f5265656e7472616e637947756172643a207265656e7472616e742063616c6c00604082015260600190565b6020808252602b908201527f4d75737420686176652061646d696e20726f6c6520746f20706572666f726d2060408201526a3a3434b99030b1ba34b7b760a91b606082015260800190565b6020808252602f908201527f416363657373436f6e74726f6c3a2063616e206f6e6c792072656e6f756e636560408201526e103937b632b9903337b91039b2b63360891b606082015260800190565b9283526020830191909152604082015260600190565b93845260208401929092526040830152606082015260800190565b6001600160a01b03811681146109d457600080fdfeb19546dff01e856fb3f010c267a7b1c60363cf8a4664e21cc89c26224620214e65d7a28e3265b37a6474929f336521b332c1681b933f6cb9f3376673440d862aa2646970667358221220b047f922f0c2a776287063d51e3e34bdb0ffbf49d4362135a72f0e5c5832570c64736f6c634300060c0033",
  "deployedBytecode": "0x608060405234801561001057600080fd5b50600436106101f05760003560e01c80638456cb591161010f578063c26ff936116100a2578063e58378bb11610071578063e58378bb146103e8578063e63ab1e9146103f0578063ed80c850146103f8578063f5c7e0e214610400576101f0565b8063c26ff9361461039c578063c4076876146103af578063ca15c873146103c2578063d547741f146103d5576101f0565b8063a217fddf116100de578063a217fddf14610363578063a6f4487e1461036b578063b6db75a014610373578063c153696f1461037b576101f0565b80638456cb59146103225780639010d07c1461032a57806391d148541461033d57806394a3fcad14610350576101f0565b80634f92a7281161018757806374f0314f1161015657806374f0314f146102d257806379502c55146102da5780637d533642146102ef578063844a28c314610302576101f0565b80634f92a7281461029a578063526d81f6146102a25780635c975abb146102aa5780636acab9da146102bf576101f0565b80632f2ff15d116101c35780632f2ff15d1461025957806336568abe1461026c5780633f4ba83a1461027f578063485cc95514610287576101f0565b8063097616a3146101f55780630e4645ef1461020a578063248a9ca31461021d5780632e0c6cfe14610246575b600080fd5b61020861020336600461380c565b610413565b005b6102086102183660046138dd565b61054c565b61023061022b366004613928565b610610565b60405161023d9190613b36565b60405180910390f35b6102086102543660046138dd565b610628565b610208610267366004613940565b610743565b61020861027a366004613940565b610787565b6102086107c9565b6102086102953660046138a5565b610809565b6102086108ef565b61020861094c565b6102b26109d7565b60405161023d9190613b2b565b6102086102cd3660046138dd565b6109e0565b610230610f17565b6102e2610f1e565b60405161023d9190613a17565b6102306102fd36600461380c565b610f2e565b61031561031036600461380c565b610f41565b60405161023d9190613ade565b610208610fbb565b6102e2610338366004613964565b610ff9565b6102b261034b366004613940565b61101a565b61023061035e3660046138dd565b611032565b61023061128e565b610230611293565b6102b261129a565b61038e610389366004613844565b6112bb565b60405161023d929190613a68565b6103156103aa36600461380c565b611a6f565b6102086103bd3660046138dd565b611ae4565b6102306103d0366004613928565b611b75565b6102086103e3366004613940565b611b8c565b610230611bc6565b610230611bd8565b610230611bea565b61020861040e36600461380c565b611bf1565b600054610100900460ff168061042c575061042c611e5d565b8061043a575060005460ff16155b61045f5760405162461bcd60e51b8152600401610456906141a2565b60405180910390fd5b600054610100900460ff1615801561048a576000805460ff1961ff0019909116610100171660011790555b6001600160a01b0382166104b05760405162461bcd60e51b815260040161045690614027565b6104b8611e63565b6104c0611ee4565b6104c8611f70565b6104e06000805160206144948339815191528361077d565b6104f86000805160206144b48339815191528361077d565b61051e6000805160206144b4833981519152600080516020614494833981519152611fff565b61053660008051602061449483398151915280611fff565b8015610548576000805461ff00191690555b5050565b61055461129a565b6105705760405162461bcd60e51b8152600401610456906143b3565b60975460ff16156105935760405162461bcd60e51b815260040161045690613f7e565b61059c81612014565b6105b85760405162461bcd60e51b815260040161045690614227565b6001600160a01b03821660008181526101c6602052604090819020839055517f7be5403eca163f383a39c2d1f65a8fee2c9e41e7e6b150f4abfe16eaaf1d907690610604908490613b36565b60405180910390a25050565b6000818152606560205260409020600201545b919050565b60975460ff161561064b5760405162461bcd60e51b815260040161045690613f7e565b6001600160a01b0380831660009081526101c860205260409020548391166106855760405162461bcd60e51b81526004016104569061405c565b6000839050336001600160a01b0316816001600160a01b0316637df1f1b96040518163ffffffff1660e01b815260040160206040518083038186803b1580156106cd57600080fd5b505afa1580156106e1573d6000803e3d6000fd5b505050506040513d601f19601f820116820180604052508101906107059190613828565b6001600160a01b03161461072b5760405162461bcd60e51b815260040161045690614089565b61073d81846107386120a1565b6120a5565b50505050565b6000828152606560205260409020600201546107619061034b612212565b61077d5760405162461bcd60e51b815260040161045690613c07565b6105488282612216565b61078f612212565b6001600160a01b0316816001600160a01b0316146107bf5760405162461bcd60e51b8152600401610456906143fe565b610548828261227f565b6107e36000805160206144b483398151915261034b612212565b6107ff5760405162461bcd60e51b815260040161045690613d6b565b6108076122e8565b565b600054610100900460ff16806108225750610822611e5d565b80610830575060005460ff16155b61084c5760405162461bcd60e51b8152600401610456906141a2565b600054610100900460ff16158015610877576000805460ff1961ff0019909116610100171660011790555b6001600160a01b0383161580159061089757506001600160a01b03821615155b6108b35760405162461bcd60e51b815260040161045690613c84565b6108bc83610413565b6101c580546001600160a01b0319166001600160a01b03841617905580156108ea576000805461ff00191690555b505050565b6108f761129a565b6109135760405162461bcd60e51b8152600401610456906143b3565b6101c554610929906001600160a01b0316612354565b6101c580546001600160a01b0319166001600160a01b0392909216919091179055565b600054610100900460ff16806109655750610965611e5d565b80610973575060005460ff16155b61098f5760405162461bcd60e51b8152600401610456906141a2565b600054610100900460ff161580156109ba576000805460ff1961ff0019909116610100171660011790555b6109c2611ee4565b80156109d4576000805461ff00191690555b50565b60975460ff1690565b60975460ff1615610a035760405162461bcd60e51b815260040161045690613f7e565b6001600160a01b0380831660009081526101c86020526040902054839116610a3d5760405162461bcd60e51b81526004016104569061405c565b3360009081526101c7602052604090208054849190610a6e5760405162461bcd60e51b815260040161045690613ee7565b60008411610a8e5760405162461bcd60e51b815260040161045690614284565b336001600160a01b0316826001600160a01b0316637df1f1b96040518163ffffffff1660e01b815260040160206040518083038186803b158015610ad157600080fd5b505afa158015610ae5573d6000803e3d6000fd5b505050506040513d601f19601f82011682018060405250810190610b099190613828565b6001600160a01b031614610b2f5760405162461bcd60e51b815260040161045690614156565b610b38846123d4565b610b545760405162461bcd60e51b815260040161045690613fa8565b6000610b5f866123ef565b9050610b6c858285612483565b610b885760405162461bcd60e51b8152600401610456906142bb565b6000836001600160a01b031663b69ef8a86040518163ffffffff1660e01b815260040160206040518083038186803b158015610bc357600080fd5b505afa158015610bd7573d6000803e3d6000fd5b505050506040513d601f19601f82011682018060405250810190610bfb91906139dc565b905080610ccd57836001600160a01b031663a6b1ae0d610c196120a1565b6040518263ffffffff1660e01b8152600401610c359190613b36565b600060405180830381600087803b158015610c4f57600080fd5b505af1158015610c63573d6000803e3d6000fd5b50505050836001600160a01b03166336d91494610c7e6120a1565b6040518263ffffffff1660e01b8152600401610c9a9190613b36565b600060405180830381600087803b158015610cb457600080fd5b505af1158015610cc8573d6000803e3d6000fd5b505050505b6101c554600090610ce6906001600160a01b0316612547565b905060008315610db65783881115610d0b575082610d048882612552565b9750610d10565b506000965b6040516323b872dd60e01b81526000906001600160a01b038416906323b872dd90610d43908d9033908790600401613a2b565b602060405180830381600087803b158015610d5d57600080fd5b505af1158015610d71573d6000803e3d6000fd5b505050506040513d601f19601f82011682018060405250810190610d959190613908565b905080610db45760405162461bcd60e51b815260040161045690613dee565b505b600080610dca88610dc56120a1565b612594565b9092509050610dd9858b61273c565b9450610de788868484612761565b610df888610df36120a1565b612b76565b15610e155760405162461bcd60e51b815260040161045690613cce565b6001600160a01b038816337f7ec4669c579321a5cf5a6b525637eb0924a93e2e11eab9d14be8b44de1116b1b610e4b8d8761273c565b604051610e589190613b36565b60405180910390a38915610f0a576040516335655ced60e11b81526000906001600160a01b03861690636acab9da90610e979033908f90600401613a4f565b602060405180830381600087803b158015610eb157600080fd5b505af1158015610ec5573d6000803e3d6000fd5b505050506040513d601f19601f82011682018060405250810190610ee99190613908565b905080610f085760405162461bcd60e51b815260040161045690613dee565b505b5050505050505050505050565b6201518081565b6101c5546001600160a01b031681565b6101c66020526000908152604090205481565b6001600160a01b03811660009081526101c66020908152604091829020600101805483518184028101840190945280845260609392830182828015610faf57602002820191906000526020600020905b81546001600160a01b03168152600190910190602001808311610f91575b50505050509050919050565b610fd56000805160206144b483398151915261034b612212565b610ff15760405162461bcd60e51b815260040161045690613d6b565b610807612c3e565b60008281526065602052604081206110119083612c97565b90505b92915050565b60008281526065602052604081206110119083612ca3565b6001600160a01b0380831660009081526101c86020526040812054909184911661106e5760405162461bcd60e51b81526004016104569061405c565b8261107e5761107b6120a1565b92505b6000849050806001600160a01b031663d28459776040518163ffffffff1660e01b815260040160206040518083038186803b1580156110bc57600080fd5b505afa1580156110d0573d6000803e3d6000fd5b505050506040513d601f19601f820116820180604052508101906110f491906139dc565b8410801561110b575061110981610df36120a1565b155b1561111a576000925050611287565b6101c554600090819073__$1dcd660c042b25ef260537b13a3f0ede49$__9063101c84309085908990611155906001600160a01b0316612cb8565b6040518463ffffffff1660e01b815260040161117393929190613abd565b604080518083038186803b15801561118a57600080fd5b505af415801561119e573d6000803e3d6000fd5b505050506040513d601f19601f820116820180604052508101906111c291906139f4565b9150915061128161124482856001600160a01b031663193501146040518163ffffffff1660e01b815260040160206040518083038186803b15801561120657600080fd5b505afa15801561121a573d6000803e3d6000fd5b505050506040513d601f19601f8201168201806040525081019061123e91906139dc565b9061273c565b61123e84866001600160a01b03166321856b366040518163ffffffff1660e01b815260040160206040518083038186803b15801561120657600080fd5b94505050505b5092915050565b600081565b6101c35481565b60006112b660008051602061449483398151915261034b612212565b905090565b6000806112c661129a565b6112e25760405162461bcd60e51b8152600401610456906143b3565b60008990506000816001600160a01b031663b69ef8a86040518163ffffffff1660e01b815260040160206040518083038186803b15801561132257600080fd5b505afa158015611336573d6000803e3d6000fd5b505050506040513d601f19601f8201168201806040525081019061135a91906139dc565b90506000826001600160a01b031663a4d66daf6040518163ffffffff1660e01b815260040160206040518083038186803b15801561139757600080fd5b505afa1580156113ab573d6000803e3d6000fd5b505050506040513d601f19601f820116820180604052508101906113cf91906139dc565b116113ec5760405162461bcd60e51b815260040161045690613ff0565b6000811161140c5760405162461bcd60e51b815260040161045690613d18565b6000826001600160a01b031663500b245e6040518163ffffffff1660e01b815260040160206040518083038186803b15801561144757600080fd5b505afa15801561145b573d6000803e3d6000fd5b505050506040513d601f19601f8201168201806040525081019061147f91906139dc565b1161149c5760405162461bcd60e51b815260040161045690614319565b6001600160a01b038a1661151e57816001600160a01b0316637df1f1b96040518163ffffffff1660e01b815260040160206040518083038186803b1580156114e357600080fd5b505afa1580156114f7573d6000803e3d6000fd5b505050506040513d601f19601f8201168201806040525081019061151b9190613828565b99505b6402540be400600061152e612ce8565b6001600160a01b031663bc38f1bf8d6014876001600160a01b031663a4d66daf6040518163ffffffff1660e01b815260040160206040518083038186803b15801561157857600080fd5b505afa15801561158c573d6000803e3d6000fd5b505050506040513d601f19601f820116820180604052508101906115b091906139dc565b61162b878a6001600160a01b031663b39699926040518163ffffffff1660e01b815260040160206040518083038186803b1580156115ed57600080fd5b505afa158015611601573d6000803e3d6000fd5b505050506040513d601f19601f8201168201806040525081019061162591906139dc565b90612d6b565b896001600160a01b03166399dd8df36040518163ffffffff1660e01b815260040160206040518083038186803b15801561166457600080fd5b505afa158015611678573d6000803e3d6000fd5b505050506040513d601f19601f8201168201806040525081019061169c91906139dc565b8a6001600160a01b03166348e6f2966040518163ffffffff1660e01b815260040160206040518083038186803b1580156116d557600080fd5b505afa1580156116e9573d6000803e3d6000fd5b505050506040513d601f19601f8201168201806040525081019061170d91906139dc565b8b6001600160a01b031663f0b25bde6040518163ffffffff1660e01b815260040160206040518083038186803b15801561174657600080fd5b505afa15801561175a573d6000803e3d6000fd5b505050506040513d601f19601f8201168201806040525081019061177e91906139dc565b6040518863ffffffff1660e01b81526004016117a09796959493929190613a82565b602060405180830381600087803b1580156117ba57600080fd5b505af11580156117ce573d6000803e3d6000fd5b505050506040513d601f19601f820116820180604052508101906117f29190613828565b90506000816001600160a01b031663895465d1868e8e8e8e8e6040518763ffffffff1660e01b815260040161182c96959493929190613b3f565b602060405180830381600087803b15801561184657600080fd5b505af115801561185a573d6000803e3d6000fd5b505050506040513d601f19601f8201168201806040525081019061187e9190613828565b6040516327ea6f2b60e01b81529091506001600160a01b038616906327ea6f2b906118ae90600090600401613b36565b600060405180830381600087803b1580156118c857600080fd5b505af11580156118dc573d6000803e3d6000fd5b5050604051637d8b34e560e11b81526001600160a01b038816925063fb1669ca915061190d90600090600401613b36565b600060405180830381600087803b15801561192757600080fd5b505af115801561193b573d6000803e3d6000fd5b5050505083816001600160a01b031663b69ef8a86040518163ffffffff1660e01b815260040160206040518083038186803b15801561197957600080fd5b505afa15801561198d573d6000803e3d6000fd5b505050506040513d601f19601f820116820180604052508101906119b191906139dc565b146119ce5760405162461bcd60e51b815260040161045690613e63565b89816001600160a01b031663bbafcb406040518163ffffffff1660e01b815260040160206040518083038186803b158015611a0857600080fd5b505afa158015611a1c573d6000803e3d6000fd5b505050506040513d601f19601f82011682018060405250810190611a4091906139dc565b14611a5d5760405162461bcd60e51b815260040161045690613e98565b9d909c509a5050505050505050505050565b6001600160a01b03811660009081526101c76020908152604091829020805483518184028101840190945280845260609392830182828015610faf576020028201919060005260206000209081546001600160a01b03168152600190910190602001808311610f915750505050509050919050565b60975460ff1615611b075760405162461bcd60e51b815260040161045690613f7e565b6001600160a01b0380831660009081526101c86020526040902054839116611b415760405162461bcd60e51b81526004016104569061405c565b60008211611b615760405162461bcd60e51b815260040161045690614345565b82611b6c8184612da5565b61073d84611bf1565b600081815260656020526040812061101490612ece565b600082815260656020526040902060020154611baa9061034b612212565b6107bf5760405162461bcd60e51b815260040161045690613f2e565b60008051602061449483398151915281565b6000805160206144b483398151915281565b6101c45481565b60975460ff1615611c145760405162461bcd60e51b815260040161045690613f7e565b6001600160a01b0380821660009081526101c86020526040902054829116611c4e5760405162461bcd60e51b81526004016104569061405c565b60008290506000816001600160a01b031663b69ef8a86040518163ffffffff1660e01b815260040160206040518083038186803b158015611c8e57600080fd5b505afa158015611ca2573d6000803e3d6000fd5b505050506040513d601f19601f82011682018060405250810190611cc691906139dc565b11611ce35760405162461bcd60e51b8152600401610456906140ce565b806001600160a01b031663d28459776040518163ffffffff1660e01b815260040160206040518083038186803b158015611d1c57600080fd5b505afa158015611d30573d6000803e3d6000fd5b505050506040513d601f19601f82011682018060405250810190611d5491906139dc565b611d5c6120a1565b108015611d725750611d7081610df36120a1565b155b15611d7d5750610548565b6000611d8882612ed9565b604051631352074160e11b81529091506001600160a01b038316906326a40e8290611db7908490600401613b36565b600060405180830381600087803b158015611dd157600080fd5b505af1158015611de5573d6000803e3d6000fd5b50505050611df16120a1565b811115611e4a576000611e3a62015180846001600160a01b03166399dd8df36040518163ffffffff1660e01b815260040160206040518083038186803b1580156115ed57600080fd5b9050611e468282612552565b9150505b61073d82611e57846123ef565b836120a5565b303b1590565b600054610100900460ff1680611e7c5750611e7c611e5d565b80611e8a575060005460ff16155b611ea65760405162461bcd60e51b8152600401610456906141a2565b600054610100900460ff161580156109c2576000805460ff1961ff00199091166101001716600117905580156109d4576000805461ff001916905550565b600054610100900460ff1680611efd5750611efd611e5d565b80611f0b575060005460ff16155b611f275760405162461bcd60e51b8152600401610456906141a2565b600054610100900460ff16158015611f52576000805460ff1961ff0019909116610100171660011790555b6097805460ff1916905580156109d4576000805461ff001916905550565b600054610100900460ff1680611f895750611f89611e5d565b80611f97575060005460ff16155b611fb35760405162461bcd60e51b8152600401610456906141a2565b600054610100900460ff16158015611fde576000805460ff1961ff0019909116610100171660011790555b60c9805460ff1916600117905580156109d4576000805461ff001916905550565b60009182526065602052604090912060020155565b6101c5546000906001600160a01b031663fc56365860025b6040518263ffffffff1660e01b81526004016120489190613b36565b60206040518083038186803b15801561206057600080fd5b505afa158015612074573d6000803e3d6000fd5b505050506040513d601f19601f8201168201806040525081019061209891906139dc565b90911115919050565b4290565b60008060006120b586868661315a565b6101c55492955090935091506000906120d6906001600160a01b0316612547565b905060008311806120e75750600082115b1561220957866001600160a01b0316876001600160a01b0316637df1f1b96040518163ffffffff1660e01b815260040160206040518083038186803b15801561212f57600080fd5b505afa158015612143573d6000803e3d6000fd5b505050506040513d601f19601f820116820180604052508101906121679190613828565b6001600160a01b03167f724fe786cff62c97ff230e98a332f95c5a11990e44123a00c2b8e76b0566e4118585886040516121a39392919061444d565b60405180910390a36040516371bb0bab60e01b81526001600160a01b038216906371bb0bab906121db908a9087908790600401613abd565b600060405180830381600087803b1580156121f557600080fd5b505af1158015610f0a573d6000803e3d6000fd5b50505050505050565b3390565b600082815260656020526040902061222e90826133d5565b156105485761223b612212565b6001600160a01b0316816001600160a01b0316837f2f8788117e7eff1d82e926ec794901d17c78024a50270940304540a733656f0d60405160405180910390a45050565b600082815260656020526040902061229790826133ea565b15610548576122a4612212565b6001600160a01b0316816001600160a01b0316837ff6391f5c32d9c69d2a47ea670b442974b53935d1edc7fd64eb21e047a839171b60405160405180910390a45050565b60975460ff1661230a5760405162461bcd60e51b815260040161045690613c56565b6097805460ff191690557f5db9ee0a495bf2e6ff9c91a7834c1ba4fdd244a5e8aa4e537bd38aeae4b073aa61233d612212565b60405161234a9190613a17565b60405180910390a1565b60006001600160a01b03821663b93f9b0a600b5b6040518263ffffffff1660e01b81526004016123849190613b36565b60206040518083038186803b15801561239c57600080fd5b505afa1580156123b0573d6000803e3d6000fd5b505050506040513d601f19601f820116820180604052508101906110149190613828565b6101c5546000906001600160a01b031663fc5636588261202c565b6101c554600090612408906001600160a01b03166133ff565b6001600160a01b03166370a08231836040518263ffffffff1660e01b81526004016124339190613a17565b60206040518083038186803b15801561244b57600080fd5b505afa15801561245f573d6000803e3d6000fd5b505050506040513d601f19601f8201168201806040525081019061101491906139dc565b6000816001600160a01b031663a4d66daf6040518163ffffffff1660e01b815260040160206040518083038186803b1580156124be57600080fd5b505afa1580156124d2573d6000803e3d6000fd5b505050506040513d601f19601f820116820180604052508101906124f691906139dc565b61253d8461253787866001600160a01b031663b69ef8a86040518163ffffffff1660e01b815260040160206040518083038186803b15801561120657600080fd5b90612552565b1115949350505050565b60006110148261340a565b600061101183836040518060400160405280601e81526020017f536166654d6174683a207375627472616374696f6e206f766572666c6f770000815250613421565b60008060008073__$1dcd660c042b25ef260537b13a3f0ede49$__63101c843087876125de6101c560009054906101000a90046001600160a01b03166001600160a01b0316612cb8565b6040518463ffffffff1660e01b81526004016125fc93929190613abd565b604080518083038186803b15801561261357600080fd5b505af4158015612627573d6000803e3d6000fd5b505050506040513d601f19601f8201168201806040525081019061264b91906139f4565b909250905081156126b55760405163a6b1ae0d60e01b81526001600160a01b0387169063a6b1ae0d90612682908890600401613b36565b600060405180830381600087803b15801561269c57600080fd5b505af11580156126b0573d6000803e3d6000fd5b505050505b6126f282876001600160a01b03166321856b366040518163ffffffff1660e01b815260040160206040518083038186803b15801561120657600080fd5b61272f82886001600160a01b031663193501146040518163ffffffff1660e01b815260040160206040518083038186803b15801561120657600080fd5b9350935050509250929050565b6000828201838110156110115760405162461bcd60e51b815260040161045690613db7565b60c95460ff166127835760405162461bcd60e51b81526004016104569061437c565b60c9805460ff19169055604080516316d3df1560e31b81529051612814916001600160a01b0387169163b69ef8a891600480820192602092909190829003018186803b1580156127d257600080fd5b505afa1580156127e6573d6000803e3d6000fd5b505050506040513d601f19601f8201168201806040525081019061280a91906139dc565b6101c45490612552565b6101c455604051637d8b34e560e11b81526001600160a01b0385169063fb1669ca90612844908690600401613b36565b600060405180830381600087803b15801561285e57600080fd5b505af1158015612872573d6000803e3d6000fd5b50506040516396c8df3760e01b81526001600160a01b03871692506396c8df3791506128a2908590600401613b36565b600060405180830381600087803b1580156128bc57600080fd5b505af11580156128d0573d6000803e3d6000fd5b505060405163b3b8a9c760e01b81526001600160a01b038716925063b3b8a9c79150612900908490600401613b36565b600060405180830381600087803b15801561291a57600080fd5b505af115801561292e573d6000803e3d6000fd5b505050506000846001600160a01b031663d28459776040518163ffffffff1660e01b815260040160206040518083038186803b15801561296d57600080fd5b505afa158015612981573d6000803e3d6000fd5b505050506040513d601f19601f820116820180604052508101906129a591906139dc565b9050821580156129b457508015155b15612a83576000816129c46120a1565b1015612a20576000612a0c62015180886001600160a01b03166399dd8df36040518163ffffffff1660e01b815260040160206040518083038186803b1580156115ed57600080fd5b9050612a188382612552565b915050612a23565b50805b604051630db6452560e21b81526001600160a01b038716906336d9149490612a4f908490600401613b36565b600060405180830381600087803b158015612a6957600080fd5b505af1158015612a7d573d6000803e3d6000fd5b50505050505b6101c454612a91908561273c565b6101c4556001600160a01b038516637ae14b09612aae878761344d565b6040518263ffffffff1660e01b8152600401612aca9190613b36565b600060405180830381600087803b158015612ae457600080fd5b505af1158015612af8573d6000803e3d6000fd5b50505050846001600160a01b03166326a40e82612b1487612ed9565b6040518263ffffffff1660e01b8152600401612b309190613b36565b600060405180830381600087803b158015612b4a57600080fd5b505af1158015612b5e573d6000803e3d6000fd5b505060c9805460ff1916600117905550505050505050565b600080612bf4846001600160a01b031663ce78290d6040518163ffffffff1660e01b815260040160206040518083038186803b158015612bb557600080fd5b505afa158015612bc9573d6000803e3d6000fd5b505050506040513d601f19601f82011682018060405250810190612bed91906139dc565b8490612552565b9050612c3662015180856001600160a01b03166399dd8df36040518163ffffffff1660e01b815260040160206040518083038186803b1580156115ed57600080fd5b109392505050565b60975460ff1615612c615760405162461bcd60e51b815260040161045690613f7e565b6097805460ff191660011790557f62e78cea01bee320cd4e420270b5ea74000d11b0c9f74754ebdbfc544b05a25861233d612212565b600061101183836135d3565b6000611011836001600160a01b038416613618565b604051631f8ac6cb60e31b81526000906001600160a01b0383169063fc5636589061243390600590600401613b36565b6101c554604051635c9fcd8560e11b81526000916001600160a01b03169063b93f9b0a90612d1b90600290600401613b36565b60206040518083038186803b158015612d3357600080fd5b505afa158015612d47573d6000803e3d6000fd5b505050506040513d601f19601f820116820180604052508101906112b69190613828565b600082612d7a57506000611014565b82820282848281612d8757fe5b04146110115760405162461bcd60e51b815260040161045690614115565b612dae816123d4565b612dca5760405162461bcd60e51b815260040161045690613fa8565b816001600160a01b0316336001600160a01b03167fc4036209c61f1d5aad789d2b8fa9ca23bf8b1516748d2e0be7227bf3fce67d2d83604051612e0d9190613b36565b60405180910390a36101c554600090612e2e906001600160a01b0316612547565b6001600160a01b03166323b872dd3385856040518463ffffffff1660e01b8152600401612e5d93929190613a2b565b602060405180830381600087803b158015612e7757600080fd5b505af1158015612e8b573d6000803e3d6000fd5b505050506040513d601f19601f82011682018060405250810190612eaf9190613908565b9050806108ea5760405162461bcd60e51b8152600401610456906141f0565b600061101482613630565b600080612f1c62015180846001600160a01b03166399dd8df36040518163ffffffff1660e01b815260040160206040518083038186803b1580156115ed57600080fd5b90506000836001600160a01b031663b69ef8a86040518163ffffffff1660e01b815260040160206040518083038186803b158015612f5957600080fd5b505afa158015612f6d573d6000803e3d6000fd5b505050506040513d601f19601f82011682018060405250810190612f9191906139dc565b90506000846001600160a01b031663d28459776040518163ffffffff1660e01b815260040160206040518083038186803b158015612fce57600080fd5b505afa158015612fe2573d6000803e3d6000fd5b505050506040513d601f19601f8201168201806040525081019061300691906139dc565b905060006130126120a1565b9050811580156130225750600083115b1561303c57613031818561273c565b945050505050610623565b60008311801561304c5750818110155b1561310457600061307085611625600161123e8361306a888a612552565b90613634565b905061307c838261273c565b92506130f883886001600160a01b03166364fb2d956040518163ffffffff1660e01b815260040160206040518083038186803b1580156130bb57600080fd5b505afa1580156130cf573d6000803e3d6000fd5b505050506040513d601f19601f820116820180604052508101906130f391906139dc565b613676565b95505050505050610623565b8215801561311157508115155b15613123576000945050505050610623565b60008311801561313257508181105b1561314257509250610623915050565b60405162461bcd60e51b815260040161045690613e1a565b600080600080600061316c8887612594565b915091506131786137eb565b73__$1dcd660c042b25ef260537b13a3f0ede49$__63d7cc2a03898b6001600160a01b031663b69ef8a86040518163ffffffff1660e01b815260040160206040518083038186803b1580156131cc57600080fd5b505afa1580156131e0573d6000803e3d6000fd5b505050506040513d601f19601f8201168201806040525081019061320491906139dc565b86866040518563ffffffff1660e01b81526004016132259493929190614463565b60606040518083038186803b15801561323d57600080fd5b505af4158015613251573d6000803e3d6000fd5b505050506040513d601f19601f820116820180604052508101906132759190613985565b905060006132f282602001518b6001600160a01b031663b69ef8a86040518163ffffffff1660e01b815260040160206040518083038186803b1580156132ba57600080fd5b505afa1580156132ce573d6000803e3d6000fd5b505050506040513d601f19601f8201168201806040525081019061253791906139dc565b905061330b82604001518261255290919063ffffffff16565b9050600061334c828c6001600160a01b031663b69ef8a86040518163ffffffff1660e01b815260040160206040518083038186803b1580156132ba57600080fd5b9050600061336b8261253786600001518e61255290919063ffffffff16565b905061339e8c8461338987600001518a61255290919063ffffffff16565b6020880151613399908a90612552565b612761565b8a6133ba8361123e87600001518561273c90919063ffffffff16565b146133c157fe5b9251929b929a509850909650505050505050565b6000611011836001600160a01b03841661368c565b6000611011836001600160a01b0384166136d6565b60006110148261379c565b60006001600160a01b03821663b93f9b0a82612368565b600081848411156134455760405162461bcd60e51b81526004016104569190613b72565b505050900390565b60008161345c57506000611014565b826001600160a01b03166364fb2d956040518163ffffffff1660e01b815260040160206040518083038186803b15801561349557600080fd5b505afa1580156134a9573d6000803e3d6000fd5b505050506040513d601f19601f820116820180604052508101906134cd91906139dc565b1561354a57826001600160a01b03166364fb2d956040518163ffffffff1660e01b815260040160206040518083038186803b15801561350b57600080fd5b505afa15801561351f573d6000803e3d6000fd5b505050506040513d601f19601f8201168201806040525081019061354391906139dc565b9050611014565b6110116135cb846001600160a01b03166348e6f2966040518163ffffffff1660e01b815260040160206040518083038186803b15801561358957600080fd5b505afa15801561359d573d6000803e3d6000fd5b505050506040513d601f19601f820116820180604052508101906135c191906139dc565b6201518090612d6b565b61123e6120a1565b815460009082106135f65760405162461bcd60e51b815260040161045690613bc5565b82600001828154811061360557fe5b9060005260206000200154905092915050565b60009081526001919091016020526040902054151590565b5490565b600061101183836040518060400160405280601a81526020017f536166654d6174683a206469766973696f6e206279207a65726f0000000000008152506137b4565b60008183106136855781611011565b5090919050565b60006136988383613618565b6136ce57508154600181810184556000848152602080822090930184905584548482528286019093526040902091909155611014565b506000611014565b60008181526001830160205260408120548015613792578354600019808301919081019060009087908390811061370957fe5b906000526020600020015490508087600001848154811061372657fe5b60009182526020808320909101929092558281526001898101909252604090209084019055865487908061375657fe5b60019003818190600052602060002001600090559055866001016000878152602001908152602001600020600090556001945050505050611014565b6000915050611014565b60006001600160a01b03821663b93f9b0a6005612368565b600081836137d55760405162461bcd60e51b81526004016104569190613b72565b5060008385816137e157fe5b0495945050505050565b60405180606001604052806000815260200160008152602001600081525090565b60006020828403121561381d578081fd5b81356110118161447e565b600060208284031215613839578081fd5b81516110118161447e565b600080600080600080600060e0888a03121561385e578283fd5b87356138698161447e565b965060208801356138798161447e565b96999698505050506040850135946060810135946080820135945060a0820135935060c0909101359150565b600080604083850312156138b7578182fd5b82356138c28161447e565b915060208301356138d28161447e565b809150509250929050565b600080604083850312156138ef578182fd5b82356138fa8161447e565b946020939093013593505050565b600060208284031215613919578081fd5b81518015158114611011578182fd5b600060208284031215613939578081fd5b5035919050565b60008060408385031215613952578182fd5b8235915060208301356138d28161447e565b60008060408385031215613976578182fd5b50508035926020909101359150565b600060608284031215613996578081fd5b6040516060810181811067ffffffffffffffff821117156139b5578283fd5b80604052508251815260208301516020820152604083015160408201528091505092915050565b6000602082840312156139ed578081fd5b5051919050565b60008060408385031215613a06578182fd5b505080516020909101519092909150565b6001600160a01b0391909116815260200190565b6001600160a01b039384168152919092166020820152604081019190915260600190565b6001600160a01b03929092168252602082015260400190565b6001600160a01b0392831681529116602082015260400190565b6001600160a01b03979097168752602087019590955260408601939093526060850191909152608084015260a083015260c082015260e00190565b6001600160a01b039390931683526020830191909152604082015260600190565b6020808252825182820181905260009190848201906040850190845b81811015613b1f5783516001600160a01b031683529284019291840191600101613afa565b50909695505050505050565b901515815260200190565b90815260200190565b6001600160a01b03969096168652602086019490945260408501929092526060840152608083015260a082015260c00190565b6000602080835283518082850152825b81811015613b9e57858101830151858201604001528201613b82565b81811115613baf5783604083870101525b50601f01601f1916929092016040019392505050565b60208082526022908201527f456e756d657261626c655365743a20696e646578206f7574206f6620626f756e604082015261647360f01b606082015260800190565b6020808252602f908201527f416363657373436f6e74726f6c3a2073656e646572206d75737420626520616e60408201526e0818591b5a5b881d1bc819dc985b9d608a1b606082015260800190565b60208082526014908201527314185d5cd8589b194e881b9bdd081c185d5cd95960621b604082015260600190565b6020808252602a908201527f4f776e657220616e6420636f6e666967206164647265737365732063616e6e6f6040820152697420626520656d70747960b01b606082015260800190565b6020808252602a908201527f43616e6e6f742064726177646f776e207768656e207061796d656e74732061726040820152696520706173742064756560b01b606082015260800190565b60208082526033908201527f43616e2774206d69677261746520637265646974206c696e65207468617427736040820152721031bab93932b73a363c903830b4b21037b33360691b606082015260800190565b6020808252602c908201527f4d75737420686176652070617573657220726f6c6520746f20706572666f726d60408201526b103a3434b99030b1ba34b7b760a11b606082015260800190565b6020808252601b908201527f536166654d6174683a206164646974696f6e206f766572666c6f770000000000604082015260600190565b6020808252601290820152712330b4b632b2103a3790323930bbb237bbb760711b604082015260600190565b60208082526029908201527f4572726f723a20636f756c64206e6f742063616c63756c617465206e65787420604082015268323ab2903a34b6b29760b91b606082015260800190565b6020808252818101527f42616c616e636520646964206e6f74206d6967726174652070726f7065726c79604082015260600190565b6020808252602f908201527f496e7465726573742061636372756564206173206f6620646964206e6f74206d60408201526e6967726174652070726f7065726c7960881b606082015260800190565b60208082526027908201527f4e6f20637265646974206c696e657320657869737420666f722074686973206260408201526637b93937bbb2b960c91b606082015260800190565b60208082526030908201527f416363657373436f6e74726f6c3a2073656e646572206d75737420626520616e60408201526f2061646d696e20746f207265766f6b6560801b606082015260800190565b60208082526010908201526f14185d5cd8589b194e881c185d5cd95960821b604082015260600190565b60208082526028908201527f416d6f756e74206973206f76657220746865207065722d7472616e73616374696040820152671bdb881b1a5b5a5d60c21b606082015260800190565b6020808252601f908201527f43616e2774206d69677261746520656d70747920637265646974206c696e6500604082015260600190565b6020808252818101527f4f776e65722063616e6e6f7420626520746865207a65726f2061646472657373604082015260600190565b602080825260139082015272556e6b6e6f776e20637265646974206c696e6560681b604082015260600190565b60208082526025908201527f596f7520646f206e6f742062656c6f6e6720746f207468697320637265646974604082015264206c696e6560d81b606082015260800190565b60208082526027908201527f4d75737420686176652062616c616e636520746f2061737365737320637265646040820152666974206c696e6560c81b606082015260800190565b60208082526021908201527f536166654d6174683a206d756c7469706c69636174696f6e206f766572666c6f6040820152607760f81b606082015260800190565b6020808252602c908201527f596f7520617265206e6f742074686520626f72726f776572206f66207468697360408201526b20637265646974206c696e6560a01b606082015260800190565b6020808252602e908201527f436f6e747261637420696e7374616e63652068617320616c726561647920626560408201526d195b881a5b9a5d1a585b1a5e995960921b606082015260800190565b60208082526019908201527f4661696c656420746f20636f6c6c656374207061796d656e7400000000000000604082015260600190565b6020808252603a908201527f54686973206c696d69742069732067726561746572207468616e20746865206d60408201527f617820616c6c6f776564206279207468652070726f746f636f6c000000000000606082015260800190565b6020808252601c908201527f4d7573742064726177646f776e206d6f7265207468616e207a65726f00000000604082015260600190565b602080825260409082018190527f54686520626f72726f77657220646f6573206e6f74206861766520656e6f7567908201527f6820637265646974206c696d697420666f7220746869732064726177646f776e606082015260800190565b602080825260129082015271496e76616c6964206372656469746c696e6560701b604082015260600190565b60208082526017908201527f4d75737420706179206d6f7265207468616e207a65726f000000000000000000604082015260600190565b6020808252601f908201527f5265656e7472616e637947756172643a207265656e7472616e742063616c6c00604082015260600190565b6020808252602b908201527f4d75737420686176652061646d696e20726f6c6520746f20706572666f726d2060408201526a3a3434b99030b1ba34b7b760a91b606082015260800190565b6020808252602f908201527f416363657373436f6e74726f6c3a2063616e206f6e6c792072656e6f756e636560408201526e103937b632b9903337b91039b2b63360891b606082015260800190565b9283526020830191909152604082015260600190565b93845260208401929092526040830152606082015260800190565b6001600160a01b03811681146109d457600080fdfeb19546dff01e856fb3f010c267a7b1c60363cf8a4664e21cc89c26224620214e65d7a28e3265b37a6474929f336521b332c1681b933f6cb9f3376673440d862aa2646970667358221220b047f922f0c2a776287063d51e3e34bdb0ffbf49d4362135a72f0e5c5832570c64736f6c634300060c0033",
  "libraries": {
    "Accountant": "0x3483Db484B213786990185Eb6347eC49904D0Bfa"
  },
  "devdoc": {
    "author": "Goldfinch",
    "kind": "dev",
    "methods": {
      "assessCreditLine(address)": {
        "params": {
          "creditLineAddress": "The creditline that should be assessed."
        }
      },
      "drawdown(address,uint256)": {
        "params": {
          "amount": "The amount, in USDC atomic units, that a borrower wishes to drawdown Requirements: - the caller must be the borrower on the creditLine",
          "creditLineAddress": "The creditline from which they would like to drawdown"
        }
      },
      "getBorrowerCreditLines(address)": {
        "params": {
          "borrowerAddress": "The borrower address you would like to see the credit lines of."
        }
      },
      "getNextPaymentAmount(address,uint256)": {
        "params": {
          "asOf": "The timestamp to use for the payment calculation, if it is set to 0, uses the current time",
          "creditLineAddress": "The creditLine to calculate the payment for"
        }
      },
      "getRoleAdmin(bytes32)": {
        "details": "Returns the admin role that controls `role`. See {grantRole} and {revokeRole}. To change a role's admin, use {_setRoleAdmin}."
      },
      "getRoleMember(bytes32,uint256)": {
        "details": "Returns one of the accounts that have `role`. `index` must be a value between 0 and {getRoleMemberCount}, non-inclusive. Role bearers are not sorted in any particular way, and their ordering may change at any point. WARNING: When using {getRoleMember} and {getRoleMemberCount}, make sure you perform all queries on the same block. See the following https://forum.openzeppelin.com/t/iterating-over-elements-on-enumerableset-in-openzeppelin-contracts/2296[forum post] for more information."
      },
      "getRoleMemberCount(bytes32)": {
        "details": "Returns the number of accounts that have `role`. Can be used together with {getRoleMember} to enumerate all bearers of a role."
      },
      "getUnderwriterCreditLines(address)": {
        "params": {
          "underwriterAddress": "The underwriter address you would like to see the credit lines of."
        }
      },
      "grantRole(bytes32,address)": {
        "details": "Grants `role` to `account`. If `account` had not been already granted `role`, emits a {RoleGranted} event. Requirements: - the caller must have ``role``'s admin role."
      },
      "hasRole(bytes32,address)": {
        "details": "Returns `true` if `account` has been granted `role`."
      },
      "initialize(address,address)": {
        "params": {
          "_config": "The address of the GoldfinchConfig contract",
          "owner": "The address of who should have the \"OWNER_ROLE\" of this contract"
        }
      },
      "pause()": {
        "details": "Pauses all functions guarded by Pause See {Pausable-_pause}. Requirements: - the caller must have the PAUSER_ROLE."
      },
      "paused()": {
        "details": "Returns true if the contract is paused, and false otherwise."
      },
      "pay(address,uint256)": {
        "params": {
          "amount": "The amount, in USDC atomic units, that a borrower wishes to pay",
          "creditLineAddress": "The credit line to be paid back"
        }
      },
      "renounceRole(bytes32,address)": {
        "details": "Revokes `role` from the calling account. Roles are often managed via {grantRole} and {revokeRole}: this function's purpose is to provide a mechanism for accounts to lose their privileges if they are compromised (such as when a trusted device is misplaced). If the calling account had been granted `role`, emits a {RoleRevoked} event. Requirements: - the caller must be `account`."
      },
      "revokeRole(bytes32,address)": {
        "details": "Revokes `role` from `account`. If `account` had been granted `role`, emits a {RoleRevoked} event. Requirements: - the caller must have ``role``'s admin role."
      },
      "setUnderwriterGovernanceLimit(address,uint256)": {
        "params": {
          "limit": "What the new limit will be set to Requirements: - the caller must have the `OWNER_ROLE`.",
          "underwriterAddress": "The address of the underwriter for whom the limit shall change"
        }
      },
      "unpause()": {
        "details": "Unpauses the contract See {Pausable-_unpause}. Requirements: - the caller must have the Pauser role"
      }
    },
    "title": "Goldfinch's CreditDesk contract",
    "version": 1
  },
  "userdoc": {
    "kind": "user",
    "methods": {
      "assessCreditLine(address)": {
        "notice": "Assesses a particular creditLine. This will apply payments, which will update accounting and  distribute gains or losses back to the pool accordingly. This function is idempotent, and anyone  is allowed to call it."
      },
      "drawdown(address,uint256)": {
        "notice": "Allows a borrower to drawdown on their creditline.  `amount` USDC is sent to the borrower, and the credit line accounting is updated."
      },
      "getBorrowerCreditLines(address)": {
        "notice": "Simple getter for the creditlines of a given borrower"
      },
      "getNextPaymentAmount(address,uint256)": {
        "notice": "This function is only meant to be used by frontends. It returns the total payment due for a given creditLine as of the provided timestamp. Returns 0 if no payment is due (e.g. asOf is before the nextDueTime)"
      },
      "getUnderwriterCreditLines(address)": {
        "notice": "Simple getter for the creditlines of a given underwriter"
      },
      "initialize(address,address)": {
        "notice": "Run only once, on initialization"
      },
      "pay(address,uint256)": {
        "notice": "Allows a borrower to repay their loan. Payment is *collected* immediately (by sending it to  the individual CreditLine), but it is not *applied* unless it is after the nextDueTime, or until we assess  the credit line (ie. payment period end).  Any amounts over the minimum payment will be applied to outstanding principal (reducing the effective  interest rate). If there is still any left over, it will remain in the USDC Balance  of the CreditLine, which is held distinct from the Pool amounts, and can not be withdrawn by LP's."
      },
      "setUnderwriterGovernanceLimit(address,uint256)": {
        "notice": "Sets a particular underwriter's limit of how much credit the DAO will allow them to \"create\""
      }
    },
    "notice": "Main entry point for borrowers and underwriters.  Handles key logic for creating CreditLine's, borrowing money, repayment, etc.",
    "version": 1
  },
  "storageLayout": {
    "storage": [
      {
        "astId": 151,
        "contract": "contracts/protocol/core/CreditDesk.sol:CreditDesk",
        "label": "initialized",
        "offset": 0,
        "slot": "0",
        "type": "t_bool"
      },
      {
        "astId": 154,
        "contract": "contracts/protocol/core/CreditDesk.sol:CreditDesk",
        "label": "initializing",
        "offset": 1,
        "slot": "0",
        "type": "t_bool"
      },
      {
        "astId": 219,
        "contract": "contracts/protocol/core/CreditDesk.sol:CreditDesk",
        "label": "______gap",
        "offset": 0,
        "slot": "1",
        "type": "t_array(t_uint256)50_storage"
      },
      {
        "astId": 144,
        "contract": "contracts/protocol/core/CreditDesk.sol:CreditDesk",
        "label": "__gap",
        "offset": 0,
        "slot": "51",
        "type": "t_array(t_uint256)50_storage"
      },
      {
        "astId": 264,
        "contract": "contracts/protocol/core/CreditDesk.sol:CreditDesk",
        "label": "_roles",
        "offset": 0,
        "slot": "101",
        "type": "t_mapping(t_bytes32,t_struct(RoleData)260_storage)"
      },
      {
        "astId": 509,
        "contract": "contracts/protocol/core/CreditDesk.sol:CreditDesk",
        "label": "__gap",
        "offset": 0,
        "slot": "102",
        "type": "t_array(t_uint256)49_storage"
      },
      {
        "astId": 4201,
        "contract": "contracts/protocol/core/CreditDesk.sol:CreditDesk",
        "label": "_paused",
        "offset": 0,
        "slot": "151",
        "type": "t_bool"
      },
      {
        "astId": 4290,
        "contract": "contracts/protocol/core/CreditDesk.sol:CreditDesk",
        "label": "__gap",
        "offset": 0,
        "slot": "152",
        "type": "t_array(t_uint256)49_storage"
      },
      {
        "astId": 4299,
        "contract": "contracts/protocol/core/CreditDesk.sol:CreditDesk",
        "label": "_notEntered",
        "offset": 0,
        "slot": "201",
        "type": "t_bool"
      },
      {
        "astId": 4340,
        "contract": "contracts/protocol/core/CreditDesk.sol:CreditDesk",
        "label": "__gap",
        "offset": 0,
        "slot": "202",
        "type": "t_array(t_uint256)49_storage"
      },
      {
        "astId": 9348,
        "contract": "contracts/protocol/core/CreditDesk.sol:CreditDesk",
        "label": "__gap1",
        "offset": 0,
        "slot": "251",
        "type": "t_array(t_uint256)50_storage"
      },
      {
        "astId": 9352,
        "contract": "contracts/protocol/core/CreditDesk.sol:CreditDesk",
        "label": "__gap2",
        "offset": 0,
        "slot": "301",
        "type": "t_array(t_uint256)50_storage"
      },
      {
        "astId": 9356,
        "contract": "contracts/protocol/core/CreditDesk.sol:CreditDesk",
        "label": "__gap3",
        "offset": 0,
        "slot": "351",
        "type": "t_array(t_uint256)50_storage"
      },
      {
        "astId": 9360,
        "contract": "contracts/protocol/core/CreditDesk.sol:CreditDesk",
        "label": "__gap4",
        "offset": 0,
        "slot": "401",
        "type": "t_array(t_uint256)50_storage"
      },
      {
        "astId": 7591,
        "contract": "contracts/protocol/core/CreditDesk.sol:CreditDesk",
        "label": "totalWritedowns",
        "offset": 0,
        "slot": "451",
        "type": "t_uint256"
      },
      {
        "astId": 7593,
        "contract": "contracts/protocol/core/CreditDesk.sol:CreditDesk",
        "label": "totalLoansOutstanding",
        "offset": 0,
        "slot": "452",
        "type": "t_uint256"
      },
      {
        "astId": 10332,
        "contract": "contracts/protocol/core/CreditDesk.sol:CreditDesk",
        "label": "config",
        "offset": 0,
        "slot": "453",
        "type": "t_contract(GoldfinchConfig)13851"
      },
      {
        "astId": 10389,
        "contract": "contracts/protocol/core/CreditDesk.sol:CreditDesk",
        "label": "underwriters",
        "offset": 0,
        "slot": "454",
        "type": "t_mapping(t_address,t_struct(Underwriter)10341_storage)"
      },
      {
        "astId": 10393,
        "contract": "contracts/protocol/core/CreditDesk.sol:CreditDesk",
        "label": "borrowers",
        "offset": 0,
        "slot": "455",
        "type": "t_mapping(t_address,t_struct(Borrower)10345_storage)"
      },
      {
        "astId": 10397,
        "contract": "contracts/protocol/core/CreditDesk.sol:CreditDesk",
        "label": "creditLines",
        "offset": 0,
        "slot": "456",
        "type": "t_mapping(t_address,t_address)"
      }
    ],
    "types": {
      "t_address": {
        "encoding": "inplace",
        "label": "address",
        "numberOfBytes": "20"
      },
      "t_array(t_address)dyn_storage": {
        "base": "t_address",
        "encoding": "dynamic_array",
        "label": "address[]",
        "numberOfBytes": "32"
      },
      "t_array(t_bytes32)dyn_storage": {
        "base": "t_bytes32",
        "encoding": "dynamic_array",
        "label": "bytes32[]",
        "numberOfBytes": "32"
      },
      "t_array(t_uint256)49_storage": {
        "base": "t_uint256",
        "encoding": "inplace",
        "label": "uint256[49]",
        "numberOfBytes": "1568"
      },
      "t_array(t_uint256)50_storage": {
        "base": "t_uint256",
        "encoding": "inplace",
        "label": "uint256[50]",
        "numberOfBytes": "1600"
      },
      "t_bool": {
        "encoding": "inplace",
        "label": "bool",
        "numberOfBytes": "1"
      },
      "t_bytes32": {
        "encoding": "inplace",
        "label": "bytes32",
        "numberOfBytes": "32"
      },
      "t_contract(GoldfinchConfig)13851": {
        "encoding": "inplace",
        "label": "contract GoldfinchConfig",
        "numberOfBytes": "20"
      },
      "t_mapping(t_address,t_address)": {
        "encoding": "mapping",
        "key": "t_address",
        "label": "mapping(address => address)",
        "numberOfBytes": "32",
        "value": "t_address"
      },
      "t_mapping(t_address,t_struct(Borrower)10345_storage)": {
        "encoding": "mapping",
        "key": "t_address",
        "label": "mapping(address => struct CreditDesk.Borrower)",
        "numberOfBytes": "32",
        "value": "t_struct(Borrower)10345_storage"
      },
      "t_mapping(t_address,t_struct(Underwriter)10341_storage)": {
        "encoding": "mapping",
        "key": "t_address",
        "label": "mapping(address => struct CreditDesk.Underwriter)",
        "numberOfBytes": "32",
        "value": "t_struct(Underwriter)10341_storage"
      },
      "t_mapping(t_bytes32,t_struct(RoleData)260_storage)": {
        "encoding": "mapping",
        "key": "t_bytes32",
        "label": "mapping(bytes32 => struct AccessControlUpgradeSafe.RoleData)",
        "numberOfBytes": "32",
        "value": "t_struct(RoleData)260_storage"
      },
      "t_mapping(t_bytes32,t_uint256)": {
        "encoding": "mapping",
        "key": "t_bytes32",
        "label": "mapping(bytes32 => uint256)",
        "numberOfBytes": "32",
        "value": "t_uint256"
      },
      "t_struct(AddressSet)3976_storage": {
        "encoding": "inplace",
        "label": "struct EnumerableSet.AddressSet",
        "members": [
          {
            "astId": 3975,
            "contract": "contracts/protocol/core/CreditDesk.sol:CreditDesk",
            "label": "_inner",
            "offset": 0,
            "slot": "0",
            "type": "t_struct(Set)3796_storage"
          }
        ],
        "numberOfBytes": "64"
      },
      "t_struct(Borrower)10345_storage": {
        "encoding": "inplace",
        "label": "struct CreditDesk.Borrower",
        "members": [
          {
            "astId": 10344,
            "contract": "contracts/protocol/core/CreditDesk.sol:CreditDesk",
            "label": "creditLines",
            "offset": 0,
            "slot": "0",
            "type": "t_array(t_address)dyn_storage"
          }
        ],
        "numberOfBytes": "32"
      },
      "t_struct(RoleData)260_storage": {
        "encoding": "inplace",
        "label": "struct AccessControlUpgradeSafe.RoleData",
        "members": [
          {
            "astId": 257,
            "contract": "contracts/protocol/core/CreditDesk.sol:CreditDesk",
            "label": "members",
            "offset": 0,
            "slot": "0",
            "type": "t_struct(AddressSet)3976_storage"
          },
          {
            "astId": 259,
            "contract": "contracts/protocol/core/CreditDesk.sol:CreditDesk",
            "label": "adminRole",
            "offset": 0,
            "slot": "2",
            "type": "t_bytes32"
          }
        ],
        "numberOfBytes": "96"
      },
      "t_struct(Set)3796_storage": {
        "encoding": "inplace",
        "label": "struct EnumerableSet.Set",
        "members": [
          {
            "astId": 3791,
            "contract": "contracts/protocol/core/CreditDesk.sol:CreditDesk",
            "label": "_values",
            "offset": 0,
            "slot": "0",
            "type": "t_array(t_bytes32)dyn_storage"
          },
          {
            "astId": 3795,
            "contract": "contracts/protocol/core/CreditDesk.sol:CreditDesk",
            "label": "_indexes",
            "offset": 0,
            "slot": "1",
            "type": "t_mapping(t_bytes32,t_uint256)"
          }
        ],
        "numberOfBytes": "64"
      },
      "t_struct(Underwriter)10341_storage": {
        "encoding": "inplace",
        "label": "struct CreditDesk.Underwriter",
        "members": [
          {
            "astId": 10337,
            "contract": "contracts/protocol/core/CreditDesk.sol:CreditDesk",
            "label": "governanceLimit",
            "offset": 0,
            "slot": "0",
            "type": "t_uint256"
          },
          {
            "astId": 10340,
            "contract": "contracts/protocol/core/CreditDesk.sol:CreditDesk",
            "label": "creditLines",
            "offset": 0,
            "slot": "1",
            "type": "t_array(t_address)dyn_storage"
          }
        ],
        "numberOfBytes": "64"
      },
      "t_uint256": {
        "encoding": "inplace",
        "label": "uint256",
        "numberOfBytes": "32"
      }
    }
  }
}