{
  "address": "0xf228BF1F8d11Dc1555fc096a7ab6FCd238f1ED6B",
  "abi": [
    {
      "anonymous": false,
      "inputs": [
        {
          "indexed": true,
          "internalType": "address",
          "name": "owner",
          "type": "address"
        },
        {
          "indexed": true,
          "internalType": "address",
          "name": "spender",
          "type": "address"
        },
        {
          "indexed": false,
          "internalType": "uint256",
          "name": "value",
          "type": "uint256"
        }
      ],
      "name": "Approval",
      "type": "event"
    },
    {
      "anonymous": false,
      "inputs": [
        {
          "indexed": false,
          "internalType": "address",
          "name": "account",
          "type": "address"
        }
      ],
      "name": "Paused",
      "type": "event"
    },
    {
      "anonymous": false,
      "inputs": [
        {
          "indexed": true,
          "internalType": "bytes32",
          "name": "role",
          "type": "bytes32"
        },
        {
          "indexed": true,
          "internalType": "address",
          "name": "account",
          "type": "address"
        },
        {
          "indexed": true,
          "internalType": "address",
          "name": "sender",
          "type": "address"
        }
      ],
      "name": "RoleGranted",
      "type": "event"
    },
    {
      "anonymous": false,
      "inputs": [
        {
          "indexed": true,
          "internalType": "bytes32",
          "name": "role",
          "type": "bytes32"
        },
        {
          "indexed": true,
          "internalType": "address",
          "name": "account",
          "type": "address"
        },
        {
          "indexed": true,
          "internalType": "address",
          "name": "sender",
          "type": "address"
        }
      ],
      "name": "RoleRevoked",
      "type": "event"
    },
    {
      "anonymous": false,
      "inputs": [
        {
          "indexed": true,
          "internalType": "address",
          "name": "from",
          "type": "address"
        },
        {
          "indexed": true,
          "internalType": "address",
          "name": "to",
          "type": "address"
        },
        {
          "indexed": false,
          "internalType": "uint256",
          "name": "value",
          "type": "uint256"
        }
      ],
      "name": "Transfer",
      "type": "event"
    },
    {
      "anonymous": false,
      "inputs": [
        {
          "indexed": false,
          "internalType": "address",
          "name": "account",
          "type": "address"
        }
      ],
      "name": "Unpaused",
      "type": "event"
    },
    {
      "inputs": [],
      "name": "ASSET_LIABILITY_MATCH_THRESHOLD",
      "outputs": [
        {
          "internalType": "uint256",
          "name": "",
          "type": "uint256"
        }
      ],
      "stateMutability": "view",
      "type": "function"
    },
    {
      "inputs": [],
      "name": "DEFAULT_ADMIN_ROLE",
      "outputs": [
        {
          "internalType": "bytes32",
          "name": "",
          "type": "bytes32"
        }
      ],
      "stateMutability": "view",
      "type": "function"
    },
    {
      "inputs": [],
      "name": "MINTER_ROLE",
      "outputs": [
        {
          "internalType": "bytes32",
          "name": "",
          "type": "bytes32"
        }
      ],
      "stateMutability": "view",
      "type": "function"
    },
    {
      "inputs": [],
      "name": "OWNER_ROLE",
      "outputs": [
        {
          "internalType": "bytes32",
          "name": "",
          "type": "bytes32"
        }
      ],
      "stateMutability": "view",
      "type": "function"
    },
    {
      "inputs": [],
      "name": "PAUSER_ROLE",
      "outputs": [
        {
          "internalType": "bytes32",
          "name": "",
          "type": "bytes32"
        }
      ],
      "stateMutability": "view",
      "type": "function"
    },
    {
      "inputs": [
        {
          "internalType": "address",
          "name": "owner",
          "type": "address"
        },
        {
          "internalType": "string",
          "name": "name",
          "type": "string"
        },
        {
          "internalType": "string",
          "name": "symbol",
          "type": "string"
        },
        {
          "internalType": "contract GoldfinchConfig",
          "name": "_config",
          "type": "address"
        }
      ],
      "name": "__initialize__",
      "outputs": [],
      "stateMutability": "nonpayable",
      "type": "function"
    },
    {
      "inputs": [
        {
          "internalType": "address",
          "name": "owner",
          "type": "address"
        },
        {
          "internalType": "address",
          "name": "spender",
          "type": "address"
        }
      ],
      "name": "allowance",
      "outputs": [
        {
          "internalType": "uint256",
          "name": "",
          "type": "uint256"
        }
      ],
      "stateMutability": "view",
      "type": "function"
    },
    {
      "inputs": [
        {
          "internalType": "address",
          "name": "spender",
          "type": "address"
        },
        {
          "internalType": "uint256",
          "name": "amount",
          "type": "uint256"
        }
      ],
      "name": "approve",
      "outputs": [
        {
          "internalType": "bool",
          "name": "",
          "type": "bool"
        }
      ],
      "stateMutability": "nonpayable",
      "type": "function"
    },
    {
      "inputs": [
        {
          "internalType": "address",
          "name": "account",
          "type": "address"
        }
      ],
      "name": "balanceOf",
      "outputs": [
        {
          "internalType": "uint256",
          "name": "",
          "type": "uint256"
        }
      ],
      "stateMutability": "view",
      "type": "function"
    },
    {
      "inputs": [
        {
          "internalType": "uint256",
          "name": "amount",
          "type": "uint256"
        }
      ],
      "name": "burn",
      "outputs": [],
      "stateMutability": "nonpayable",
      "type": "function"
    },
    {
      "inputs": [
        {
          "internalType": "address",
          "name": "from",
          "type": "address"
        },
        {
          "internalType": "uint256",
          "name": "amount",
          "type": "uint256"
        }
      ],
      "name": "burnFrom",
      "outputs": [],
      "stateMutability": "nonpayable",
      "type": "function"
    },
    {
      "inputs": [],
      "name": "config",
      "outputs": [
        {
          "internalType": "contract GoldfinchConfig",
          "name": "",
          "type": "address"
        }
      ],
      "stateMutability": "view",
      "type": "function"
    },
    {
      "inputs": [],
      "name": "decimals",
      "outputs": [
        {
          "internalType": "uint8",
          "name": "",
          "type": "uint8"
        }
      ],
      "stateMutability": "view",
      "type": "function"
    },
    {
      "inputs": [
        {
          "internalType": "address",
          "name": "spender",
          "type": "address"
        },
        {
          "internalType": "uint256",
          "name": "subtractedValue",
          "type": "uint256"
        }
      ],
      "name": "decreaseAllowance",
      "outputs": [
        {
          "internalType": "bool",
          "name": "",
          "type": "bool"
        }
      ],
      "stateMutability": "nonpayable",
      "type": "function"
    },
    {
      "inputs": [
        {
          "internalType": "bytes32",
          "name": "role",
          "type": "bytes32"
        }
      ],
      "name": "getRoleAdmin",
      "outputs": [
        {
          "internalType": "bytes32",
          "name": "",
          "type": "bytes32"
        }
      ],
      "stateMutability": "view",
      "type": "function"
    },
    {
      "inputs": [
        {
          "internalType": "bytes32",
          "name": "role",
          "type": "bytes32"
        },
        {
          "internalType": "uint256",
          "name": "index",
          "type": "uint256"
        }
      ],
      "name": "getRoleMember",
      "outputs": [
        {
          "internalType": "address",
          "name": "",
          "type": "address"
        }
      ],
      "stateMutability": "view",
      "type": "function"
    },
    {
      "inputs": [
        {
          "internalType": "bytes32",
          "name": "role",
          "type": "bytes32"
        }
      ],
      "name": "getRoleMemberCount",
      "outputs": [
        {
          "internalType": "uint256",
          "name": "",
          "type": "uint256"
        }
      ],
      "stateMutability": "view",
      "type": "function"
    },
    {
      "inputs": [
        {
          "internalType": "bytes32",
          "name": "role",
          "type": "bytes32"
        },
        {
          "internalType": "address",
          "name": "account",
          "type": "address"
        }
      ],
      "name": "grantRole",
      "outputs": [],
      "stateMutability": "nonpayable",
      "type": "function"
    },
    {
      "inputs": [
        {
          "internalType": "bytes32",
          "name": "role",
          "type": "bytes32"
        },
        {
          "internalType": "address",
          "name": "account",
          "type": "address"
        }
      ],
      "name": "hasRole",
      "outputs": [
        {
          "internalType": "bool",
          "name": "",
          "type": "bool"
        }
      ],
      "stateMutability": "view",
      "type": "function"
    },
    {
      "inputs": [
        {
          "internalType": "address",
          "name": "spender",
          "type": "address"
        },
        {
          "internalType": "uint256",
          "name": "addedValue",
          "type": "uint256"
        }
      ],
      "name": "increaseAllowance",
      "outputs": [
        {
          "internalType": "bool",
          "name": "",
          "type": "bool"
        }
      ],
      "stateMutability": "nonpayable",
      "type": "function"
    },
    {
      "inputs": [
        {
          "internalType": "string",
          "name": "name",
          "type": "string"
        },
        {
          "internalType": "string",
          "name": "symbol",
          "type": "string"
        }
      ],
      "name": "initialize",
      "outputs": [],
      "stateMutability": "nonpayable",
      "type": "function"
    },
    {
      "inputs": [
        {
          "internalType": "address",
          "name": "to",
          "type": "address"
        },
        {
          "internalType": "uint256",
          "name": "amount",
          "type": "uint256"
        }
      ],
      "name": "mint",
      "outputs": [],
      "stateMutability": "nonpayable",
      "type": "function"
    },
    {
      "inputs": [
        {
          "internalType": "address",
          "name": "to",
          "type": "address"
        },
        {
          "internalType": "uint256",
          "name": "amount",
          "type": "uint256"
        }
      ],
      "name": "mintTo",
      "outputs": [],
      "stateMutability": "nonpayable",
      "type": "function"
    },
    {
      "inputs": [],
      "name": "name",
      "outputs": [
        {
          "internalType": "string",
          "name": "",
          "type": "string"
        }
      ],
      "stateMutability": "view",
      "type": "function"
    },
    {
      "inputs": [],
      "name": "pause",
      "outputs": [],
      "stateMutability": "nonpayable",
      "type": "function"
    },
    {
      "inputs": [],
      "name": "paused",
      "outputs": [
        {
          "internalType": "bool",
          "name": "",
          "type": "bool"
        }
      ],
      "stateMutability": "view",
      "type": "function"
    },
    {
      "inputs": [
        {
          "internalType": "bytes32",
          "name": "role",
          "type": "bytes32"
        },
        {
          "internalType": "address",
          "name": "account",
          "type": "address"
        }
      ],
      "name": "renounceRole",
      "outputs": [],
      "stateMutability": "nonpayable",
      "type": "function"
    },
    {
      "inputs": [
        {
          "internalType": "bytes32",
          "name": "role",
          "type": "bytes32"
        },
        {
          "internalType": "address",
          "name": "account",
          "type": "address"
        }
      ],
      "name": "revokeRole",
      "outputs": [],
      "stateMutability": "nonpayable",
      "type": "function"
    },
    {
      "inputs": [],
      "name": "symbol",
      "outputs": [
        {
          "internalType": "string",
          "name": "",
          "type": "string"
        }
      ],
      "stateMutability": "view",
      "type": "function"
    },
    {
      "inputs": [],
      "name": "totalSupply",
      "outputs": [
        {
          "internalType": "uint256",
          "name": "",
          "type": "uint256"
        }
      ],
      "stateMutability": "view",
      "type": "function"
    },
    {
      "inputs": [
        {
          "internalType": "address",
          "name": "recipient",
          "type": "address"
        },
        {
          "internalType": "uint256",
          "name": "amount",
          "type": "uint256"
        }
      ],
      "name": "transfer",
      "outputs": [
        {
          "internalType": "bool",
          "name": "",
          "type": "bool"
        }
      ],
      "stateMutability": "nonpayable",
      "type": "function"
    },
    {
      "inputs": [
        {
          "internalType": "address",
          "name": "sender",
          "type": "address"
        },
        {
          "internalType": "address",
          "name": "recipient",
          "type": "address"
        },
        {
          "internalType": "uint256",
          "name": "amount",
          "type": "uint256"
        }
      ],
      "name": "transferFrom",
      "outputs": [
        {
          "internalType": "bool",
          "name": "",
          "type": "bool"
        }
      ],
      "stateMutability": "nonpayable",
      "type": "function"
    },
    {
      "inputs": [],
      "name": "unpause",
      "outputs": [],
      "stateMutability": "nonpayable",
      "type": "function"
    },
    {
      "inputs": [],
      "name": "updateGoldfinchConfig",
      "outputs": [],
      "stateMutability": "nonpayable",
      "type": "function"
    }
  ],
  "transactionHash": "0x5ca1bbf7fb15db98d0b939877e925b26df28bcad189be6dca52e9c4335be3940",
  "args": [],
  "solcInputHash": "e2e6a7937b09ef08f199f5a8536ea2f5",
  "bytecode": "0x608060405234801561001057600080fd5b506127c7806100206000396000f3fe608060405234801561001057600080fd5b50600436106101fb5760003560e01c806370a082311161011a578063a457c2d7116100ad578063d547741f1161007c578063d547741f146106de578063dd62ed3e1461070a578063e58378bb14610738578063e63ab1e914610740578063f77356f014610748576101fb565b8063a457c2d714610661578063a9059cbb1461068d578063ca15c873146106b9578063d5391393146106d6576101fb565b80639010d07c116100e95780639010d07c1461060257806391d148541461062557806395d89b4114610651578063a217fddf14610659576101fb565b806370a082311461058457806379502c55146105aa57806379cc6790146105ce5780638456cb59146105fa576101fb565b80633950935111610192578063449a52f811610161578063449a52f81461041f5780634cd88b761461044b5780635c975abb1461057457806363be20301461057c576101fb565b806339509351146103a25780633f4ba83a146103ce57806340c10f19146103d657806342966c6814610402576101fb565b8063248a9ca3116101ce578063248a9ca31461030d5780632f2ff15d1461032a578063313ce5671461035857806336568abe14610376576101fb565b806306fdde0314610200578063095ea7b31461027d57806318160ddd146102bd57806323b872dd146102d7575b600080fd5b61020861081f565b6040805160208082528351818301528351919283929083019185019080838360005b8381101561024257818101518382015260200161022a565b50505050905090810190601f16801561026f5780820380516001836020036101000a031916815260200191505b509250505060405180910390f35b6102a96004803603604081101561029357600080fd5b506001600160a01b0381351690602001356108b5565b604080519115158252519081900360200190f35b6102c56108d3565b60408051918252519081900360200190f35b6102a9600480360360608110156102ed57600080fd5b506001600160a01b038135811691602081013590911690604001356108d9565b6102c56004803603602081101561032357600080fd5b5035610960565b6103566004803603604081101561034057600080fd5b50803590602001356001600160a01b0316610978565b005b6103606109e4565b6040805160ff9092168252519081900360200190f35b6103566004803603604081101561038c57600080fd5b50803590602001356001600160a01b03166109ed565b6102a9600480360360408110156103b857600080fd5b506001600160a01b038135169060200135610a4e565b610356610a9c565b610356600480360360408110156103ec57600080fd5b506001600160a01b038135169060200135610afb565b6103566004803603602081101561041857600080fd5b5035610b5a565b6103566004803603604081101561043557600080fd5b506001600160a01b038135169060200135610b6e565b6103566004803603604081101561046157600080fd5b810190602081018135600160201b81111561047b57600080fd5b82018360208201111561048d57600080fd5b803590602001918460018302840111600160201b831117156104ae57600080fd5b91908080601f0160208091040260200160405190810160405280939291908181526020018383808284376000920191909152509295949360208101935035915050600160201b81111561050057600080fd5b82018360208201111561051257600080fd5b803590602001918460018302840111600160201b8311171561053357600080fd5b91908080601f016020809104026020016040519081016040528093929190818152602001838380828437600092019190915250929550610bbc945050505050565b6102a9610bc6565b6102c5610bcf565b6102c56004803603602081101561059a57600080fd5b50356001600160a01b0316610bd6565b6105b2610bf1565b604080516001600160a01b039092168252519081900360200190f35b610356600480360360408110156105e457600080fd5b506001600160a01b038135169060200135610c01565b610356610ca4565b6105b26004803603604081101561061857600080fd5b5080359060200135610d01565b6102a96004803603604081101561063b57600080fd5b50803590602001356001600160a01b0316610d20565b610208610d38565b6102c5610d99565b6102a96004803603604081101561067757600080fd5b506001600160a01b038135169060200135610d9e565b6102a9600480360360408110156106a357600080fd5b506001600160a01b038135169060200135610e06565b6102c5600480360360208110156106cf57600080fd5b5035610e1a565b6102c5610e31565b610356600480360360408110156106f457600080fd5b50803590602001356001600160a01b0316610e43565b6102c56004803603604081101561072057600080fd5b506001600160a01b0381358116916020013516610e9c565b6102c5610ec7565b6102c5610ed9565b6103566004803603608081101561075e57600080fd5b6001600160a01b038235169190810190604081016020820135600160201b81111561078857600080fd5b82018360208201111561079a57600080fd5b803590602001918460018302840111600160201b831117156107bb57600080fd5b919390929091602081019035600160201b8111156107d857600080fd5b8201836020820111156107ea57600080fd5b803590602001918460018302840111600160201b8311171561080b57600080fd5b9193509150356001600160a01b0316610eeb565b609a8054604080516020601f60026000196101006001881615020190951694909404938401819004810282018101909252828152606093909290918301828280156108ab5780601f10610880576101008083540402835291602001916108ab565b820191906000526020600020905b81548152906001019060200180831161088e57829003601f168201915b5050505050905090565b60006108c96108c26110f6565b84846110fa565b5060015b92915050565b60995490565b60006108e68484846111e6565b610956846108f26110f6565b61095185604051806060016040528060288152602001612501602891396001600160a01b038a166000908152609860205260408120906109306110f6565b6001600160a01b031681526020810191909152604001600020549190611343565b6110fa565b5060019392505050565b6000818152606560205260409020600201545b919050565b60008281526065602052604090206002015461099b906109966110f6565b610d20565b6109d65760405162461bcd60e51b815260040180806020018281038252602f8152602001806123be602f913960400191505060405180910390fd5b6109e082826113da565b5050565b609c5460ff1690565b6109f56110f6565b6001600160a01b0316816001600160a01b031614610a445760405162461bcd60e51b815260040180806020018281038252602f815260200180612739602f913960400191505060405180910390fd5b6109e08282611443565b60006108c9610a5b6110f6565b846109518560986000610a6c6110f6565b6001600160a01b03908116825260208083019390935260409182016000908120918c1681529252902054906114ac565b610ab66000805160206125298339815191526109966110f6565b610af15760405162461bcd60e51b815260040180806020018281038252603981526020018061240f6039913960400191505060405180910390fd5b610af9611506565b565b610b156000805160206125e58339815191526109966110f6565b610b505760405162461bcd60e51b81526004018080602001828103825260368152602001806125816036913960400191505060405180910390fd5b6109e082826115a4565b610b6b610b656110f6565b82611696565b50565b610b7781611792565b610bb25760405162461bcd60e51b81526004018080602001828103825260388152602001806126dc6038913960400191505060405180910390fd5b6109e08282610afb565b6109e082826118fa565b60fb5460ff1690565b620f424081565b6001600160a01b031660009081526097602052604090205490565b610191546001600160a01b031681565b610c1b6000805160206125e58339815191526109966110f6565b610c565760405162461bcd60e51b815260040180806020018281038252603681526020018061264b6036913960400191505060405180910390fd5b610c5f816119da565b610c9a5760405162461bcd60e51b81526004018080602001828103825260388152602001806125496038913960400191505060405180910390fd5b6109e08282611696565b610cbe6000805160206125298339815191526109966110f6565b610cf95760405162461bcd60e51b81526004018080602001828103825260378152602001806126a56037913960400191505060405180910390fd5b610af9611a78565b6000828152606560205260408120610d199083611af9565b9392505050565b6000828152606560205260408120610d199083611b05565b609b8054604080516020601f60026000196101006001881615020190951694909404938401819004810282018101909252828152606093909290918301828280156108ab5780601f10610880576101008083540402835291602001916108ab565b600081565b60006108c9610dab6110f6565b84610951856040518060600160405280602581526020016127146025913960986000610dd56110f6565b6001600160a01b03908116825260208083019390935260409182016000908120918d16815292529020549190611343565b60006108c9610e136110f6565b84846111e6565b60008181526065602052604081206108cd90611b1a565b6000805160206125e583398151915281565b600082815260656020526040902060020154610e61906109966110f6565b610a445760405162461bcd60e51b81526004018080602001828103825260308152602001806124b06030913960400191505060405180910390fd5b6001600160a01b03918216600090815260986020908152604080832093909416825291909152205490565b60008051602061249083398151915281565b60008051602061252983398151915281565b600054610100900460ff1680610f045750610f04611b25565b80610f12575060005460ff16155b610f4d5760405162461bcd60e51b815260040180806020018281038252602e8152602001806125b7602e913960400191505060405180910390fd5b600054610100900460ff16158015610f78576000805460ff1961ff0019909116610100171660011790555b610f80611b2b565b610f88611b2b565b610ffb86868080601f01602080910402602001604051908101604052809392919081815260200183838082843760009201919091525050604080516020601f8a018190048102820181019092528881529250889150879081908401838280828437600092019190915250611bcc92505050565b611003611b2b565b61100b611ca4565b611013611b2b565b61019180546001600160a01b0319166001600160a01b0384161790556110476000805160206125e5833981519152886109d6565b61105f600080516020612529833981519152886109d6565b611077600080516020612490833981519152886109d6565b61109d6000805160206125e5833981519152600080516020612490833981519152611d4f565b6110c3600080516020612529833981519152600080516020612490833981519152611d4f565b6110db60008051602061249083398151915280611d4f565b80156110ed576000805461ff00191690555b50505050505050565b3390565b6001600160a01b03831661113f5760405162461bcd60e51b81526004018080602001828103825260248152602001806126816024913960400191505060405180910390fd5b6001600160a01b0382166111845760405162461bcd60e51b81526004018080602001828103825260228152602001806124486022913960400191505060405180910390fd5b6001600160a01b03808416600081815260986020908152604080832094871680845294825291829020859055815185815291517f8c5be1e5ebec7d5bd14f71427d1e84f3dd0314c0f7b2291e5b200ac8c7c3b9259281900390910190a3505050565b6001600160a01b03831661122b5760405162461bcd60e51b81526004018080602001828103825260258152602001806126266025913960400191505060405180910390fd5b6001600160a01b0382166112705760405162461bcd60e51b815260040180806020018281038252602381526020018061239b6023913960400191505060405180910390fd5b61127b838383611d64565b6112b88160405180606001604052806026815260200161246a602691396001600160a01b0386166000908152609760205260409020549190611343565b6001600160a01b0380851660009081526097602052604080822093909355908416815220546112e790826114ac565b6001600160a01b0380841660008181526097602090815260409182902094909455805185815290519193928716927fddf252ad1be2c89b69c2b068fc378daa952ba7f163c4a11628f55a4df523b3ef92918290030190a3505050565b600081848411156113d25760405162461bcd60e51b81526004018080602001828103825283818151815260200191508051906020019080838360005b8381101561139757818101518382015260200161137f565b50505050905090810190601f1680156113c45780820380516001836020036101000a031916815260200191505b509250505060405180910390fd5b505050900390565b60008281526065602052604090206113f29082611d6f565b156109e0576113ff6110f6565b6001600160a01b0316816001600160a01b0316837f2f8788117e7eff1d82e926ec794901d17c78024a50270940304540a733656f0d60405160405180910390a45050565b600082815260656020526040902061145b9082611d84565b156109e0576114686110f6565b6001600160a01b0316816001600160a01b0316837ff6391f5c32d9c69d2a47ea670b442974b53935d1edc7fd64eb21e047a839171b60405160405180910390a45050565b600082820183811015610d19576040805162461bcd60e51b815260206004820152601b60248201527f536166654d6174683a206164646974696f6e206f766572666c6f770000000000604482015290519081900360640190fd5b60fb5460ff16611554576040805162461bcd60e51b815260206004820152601460248201527314185d5cd8589b194e881b9bdd081c185d5cd95960621b604482015290519081900360640190fd5b60fb805460ff191690557f5db9ee0a495bf2e6ff9c91a7834c1ba4fdd244a5e8aa4e537bd38aeae4b073aa6115876110f6565b604080516001600160a01b039092168252519081900360200190a1565b6001600160a01b0382166115ff576040805162461bcd60e51b815260206004820152601f60248201527f45524332303a206d696e7420746f20746865207a65726f206164647265737300604482015290519081900360640190fd5b61160b60008383611d64565b60995461161890826114ac565b6099556001600160a01b03821660009081526097602052604090205461163e90826114ac565b6001600160a01b03831660008181526097602090815260408083209490945583518581529351929391927fddf252ad1be2c89b69c2b068fc378daa952ba7f163c4a11628f55a4df523b3ef9281900390910190a35050565b6001600160a01b0382166116db5760405162461bcd60e51b81526004018080602001828103825260218152602001806126056021913960400191505060405180910390fd5b6116e782600083611d64565b611724816040518060600160405280602281526020016123ed602291396001600160a01b0385166000908152609760205260409020549190611343565b6001600160a01b03831660009081526097602052604090205560995461174a9082611d99565b6099556040805182815290516000916001600160a01b038516917fddf252ad1be2c89b69c2b068fc378daa952ba7f163c4a11628f55a4df523b3ef9181900360200190a35050565b60008061183c6117a0611ddb565b61019154611836906117ba906001600160a01b0316611df0565b6001600160a01b031663872697296040518163ffffffff1660e01b815260040160206040518083038186803b1580156117f257600080fd5b505afa158015611806573d6000803e3d6000fd5b505050506040513d602081101561181c57600080fd5b50516118308761182a6108d3565b906114ac565b90611dfb565b90611e54565b9050600061184982611e96565b61019154909150600090611865906001600160a01b0316611df0565b6001600160a01b03166371a973056040518163ffffffff1660e01b815260040160206040518083038186803b15801561189d57600080fd5b505afa1580156118b1573d6000803e3d6000fd5b505050506040513d60208110156118c757600080fd5b505190508181106118ec57620f42406118e08284611d99565b11159350505050610973565b620f42406118e08383611d99565b600054610100900460ff16806119135750611913611b25565b80611921575060005460ff16155b61195c5760405162461bcd60e51b815260040180806020018281038252602e8152602001806125b7602e913960400191505060405180910390fd5b600054610100900460ff16158015611987576000805460ff1961ff0019909116610100171660011790555b61198f611b2b565b611997611b2b565b6119a18383611bcc565b6119a9611b2b565b6119b1611ca4565b6119b9611b2b565b6119c38383611eb5565b80156119d5576000805461ff00191690555b505050565b60008061183c6119e8611ddb565b6101915461183690611a02906001600160a01b0316611df0565b6001600160a01b031663872697296040518163ffffffff1660e01b815260040160206040518083038186803b158015611a3a57600080fd5b505afa158015611a4e573d6000803e3d6000fd5b505050506040513d6020811015611a6457600080fd5b505161183087611a726108d3565b90611d99565b60fb5460ff1615611ac3576040805162461bcd60e51b815260206004820152601060248201526f14185d5cd8589b194e881c185d5cd95960821b604482015290519081900360640190fd5b60fb805460ff191660011790557f62e78cea01bee320cd4e420270b5ea74000d11b0c9f74754ebdbfc544b05a2586115876110f6565b6000610d198383611f88565b6000610d19836001600160a01b038416611fec565b60006108cd82612004565b303b1590565b600054610100900460ff1680611b445750611b44611b25565b80611b52575060005460ff16155b611b8d5760405162461bcd60e51b815260040180806020018281038252602e8152602001806125b7602e913960400191505060405180910390fd5b600054610100900460ff16158015611bb8576000805460ff1961ff0019909116610100171660011790555b8015610b6b576000805461ff001916905550565b600054610100900460ff1680611be55750611be5611b25565b80611bf3575060005460ff16155b611c2e5760405162461bcd60e51b815260040180806020018281038252602e8152602001806125b7602e913960400191505060405180910390fd5b600054610100900460ff16158015611c59576000805460ff1961ff0019909116610100171660011790555b8251611c6c90609a9060208601906122e5565b508151611c8090609b9060208501906122e5565b50609c805460ff1916601217905580156119d5576000805461ff0019169055505050565b600054610100900460ff1680611cbd5750611cbd611b25565b80611ccb575060005460ff16155b611d065760405162461bcd60e51b815260040180806020018281038252602e8152602001806125b7602e913960400191505060405180910390fd5b600054610100900460ff16158015611d31576000805460ff1961ff0019909116610100171660011790555b60fb805460ff191690558015610b6b576000805461ff001916905550565b60009182526065602052604090912060020155565b6119d5838383612008565b6000610d19836001600160a01b038416612057565b6000610d19836001600160a01b0384166120a1565b6000610d1983836040518060400160405280601e81526020017f536166654d6174683a207375627472616374696f6e206f766572666c6f770000815250611343565b6000611de56109e4565b60ff16600a0a905090565b60006108cd82612167565b600082611e0a575060006108cd565b82820282848281611e1757fe5b0414610d195760405162461bcd60e51b81526004018080602001828103825260218152602001806124e06021913960400191505060405180910390fd5b6000610d1983836040518060400160405280601a81526020017f536166654d6174683a206469766973696f6e206279207a65726f0000000000008152506121e0565b60006108cd611eae611ea6612245565b611836611ddb565b8390611e54565b600054610100900460ff1680611ece5750611ece611b25565b80611edc575060005460ff16155b611f175760405162461bcd60e51b815260040180806020018281038252602e8152602001806125b7602e913960400191505060405180910390fd5b600054610100900460ff16158015611f42576000805460ff1961ff0019909116610100171660011790555b611f546000611f4f6110f6565b6109d6565b611f6e6000805160206125e5833981519152611f4f6110f6565b6119c3600080516020612529833981519152611f4f6110f6565b81546000908210611fca5760405162461bcd60e51b81526004018080602001828103825260228152602001806123796022913960400191505060405180910390fd5b826000018281548110611fd957fe5b9060005260206000200154905092915050565b60009081526001919091016020526040902054151590565b5490565b6120138383836119d5565b61201b610bc6565b156119d55760405162461bcd60e51b815260040180806020018281038252602a815260200180612768602a913960400191505060405180910390fd5b60006120638383611fec565b612099575081546001818101845560008481526020808220909301849055845484825282860190935260409020919091556108cd565b5060006108cd565b6000818152600183016020526040812054801561215d57835460001980830191908101906000908790839081106120d457fe5b90600052602060002001549050808760000184815481106120f157fe5b60009182526020808320909101929092558281526001898101909252604090209084019055865487908061212157fe5b600190038181906000526020600020016000905590558660010160008781526020019081526020016000206000905560019450505050506108cd565b60009150506108cd565b60006001600160a01b03821663b93f9b0a825b6040518263ffffffff1660e01b81526004018082815260200191505060206040518083038186803b1580156121ae57600080fd5b505afa1580156121c2573d6000803e3d6000fd5b505050506040513d60208110156121d857600080fd5b505192915050565b6000818361222f5760405162461bcd60e51b815260206004820181815283516024840152835190928392604490910191908501908083836000831561139757818101518382015260200161137f565b50600083858161223b57fe5b0495945050505050565b6101915460009061225e906001600160a01b03166122cd565b6001600160a01b031663313ce5676040518163ffffffff1660e01b815260040160206040518083038186803b15801561229657600080fd5b505afa1580156122aa573d6000803e3d6000fd5b505050506040513d60208110156122c057600080fd5b505160ff16600a0a905090565b60006001600160a01b03821663b93f9b0a600561217a565b828054600181600116156101000203166002900490600052602060002090601f016020900481019282601f1061232657805160ff1916838001178555612353565b82800160010185558215612353579182015b82811115612353578251825591602001919060010190612338565b5061235f929150612363565b5090565b5b8082111561235f576000815560010161236456fe456e756d657261626c655365743a20696e646578206f7574206f6620626f756e647345524332303a207472616e7366657220746f20746865207a65726f2061646472657373416363657373436f6e74726f6c3a2073656e646572206d75737420626520616e2061646d696e20746f206772616e7445524332303a206275726e20616d6f756e7420657863656564732062616c616e636545524332305072657365744d696e7465725061757365723a206d75737420686176652070617573657220726f6c6520746f20756e706175736545524332303a20617070726f766520746f20746865207a65726f206164647265737345524332303a207472616e7366657220616d6f756e7420657863656564732062616c616e6365b19546dff01e856fb3f010c267a7b1c60363cf8a4664e21cc89c26224620214e416363657373436f6e74726f6c3a2073656e646572206d75737420626520616e2061646d696e20746f207265766f6b65536166654d6174683a206d756c7469706c69636174696f6e206f766572666c6f7745524332303a207472616e7366657220616d6f756e74206578636565647320616c6c6f77616e636565d7a28e3265b37a6474929f336521b332c1681b933f6cb9f3376673440d862a43616e6e6f74206275726e3a20697420776f756c642063726561746520616e2061737365742f6c696162696c697479206d69736d6174636845524332305072657365744d696e7465725061757365723a206d7573742068617665206d696e74657220726f6c6520746f206d696e74436f6e747261637420696e7374616e63652068617320616c7265616479206265656e20696e697469616c697a65649f2df0fed2c77648de5860a4cc508cd0818c85b8b8a1ab4ceeef8d981c8956a645524332303a206275726e2066726f6d20746865207a65726f206164647265737345524332303a207472616e736665722066726f6d20746865207a65726f206164647265737345524332305072657365744d696e7465725061757365723a204d7573742068617665206d696e74657220726f6c6520746f206275726e45524332303a20617070726f76652066726f6d20746865207a65726f206164647265737345524332305072657365744d696e7465725061757365723a206d75737420686176652070617573657220726f6c6520746f20706175736543616e6e6f74206d696e743a20697420776f756c642063726561746520616e2061737365742f6c696162696c697479206d69736d6174636845524332303a2064656372656173656420616c6c6f77616e63652062656c6f77207a65726f416363657373436f6e74726f6c3a2063616e206f6e6c792072656e6f756e636520726f6c657320666f722073656c6645524332305061757361626c653a20746f6b656e207472616e73666572207768696c6520706175736564a2646970667358221220a7824d36e1d54cf2d52a745fd55c86da1f2288dd2d58635f42db848a72a958de64736f6c634300060c0033",
  "devdoc": {
    "author": "Goldfinch",
    "kind": "dev",
    "methods": {
      "allowance(address,address)": {
        "details": "See {IERC20-allowance}."
      },
      "approve(address,uint256)": {
        "details": "See {IERC20-approve}. Requirements: - `spender` cannot be the zero address."
      },
      "balanceOf(address)": {
        "details": "See {IERC20-balanceOf}."
      },
      "burn(uint256)": {
        "details": "Destroys `amount` tokens from the caller. See {ERC20-_burn}."
      },
      "burnFrom(address,uint256)": {
        "details": "Destroys `amount` tokens from `account`, deducting from the caller's allowance. See {ERC20-_burn} and {ERC20-allowance}. Requirements: - the caller must have the MINTER_ROLE"
      },
      "decimals()": {
        "details": "Returns the number of decimals used to get its user representation. For example, if `decimals` equals `2`, a balance of `505` tokens should be displayed to a user as `5,05` (`505 / 10 ** 2`). Tokens usually opt for a value of 18, imitating the relationship between Ether and Wei. This is the value {ERC20} uses, unless {_setupDecimals} is called. NOTE: This information is only used for _display_ purposes: it in no way affects any of the arithmetic of the contract, including {IERC20-balanceOf} and {IERC20-transfer}."
      },
      "decreaseAllowance(address,uint256)": {
        "details": "Atomically decreases the allowance granted to `spender` by the caller. This is an alternative to {approve} that can be used as a mitigation for problems described in {IERC20-approve}. Emits an {Approval} event indicating the updated allowance. Requirements: - `spender` cannot be the zero address. - `spender` must have allowance for the caller of at least `subtractedValue`."
      },
      "getRoleAdmin(bytes32)": {
        "details": "Returns the admin role that controls `role`. See {grantRole} and {revokeRole}. To change a role's admin, use {_setRoleAdmin}."
      },
      "getRoleMember(bytes32,uint256)": {
        "details": "Returns one of the accounts that have `role`. `index` must be a value between 0 and {getRoleMemberCount}, non-inclusive. Role bearers are not sorted in any particular way, and their ordering may change at any point. WARNING: When using {getRoleMember} and {getRoleMemberCount}, make sure you perform all queries on the same block. See the following https://forum.openzeppelin.com/t/iterating-over-elements-on-enumerableset-in-openzeppelin-contracts/2296[forum post] for more information."
      },
      "getRoleMemberCount(bytes32)": {
        "details": "Returns the number of accounts that have `role`. Can be used together with {getRoleMember} to enumerate all bearers of a role."
      },
      "grantRole(bytes32,address)": {
        "details": "Grants `role` to `account`. If `account` had not been already granted `role`, emits a {RoleGranted} event. Requirements: - the caller must have ``role``'s admin role."
      },
      "hasRole(bytes32,address)": {
        "details": "Returns `true` if `account` has been granted `role`."
      },
      "increaseAllowance(address,uint256)": {
        "details": "Atomically increases the allowance granted to `spender` by the caller. This is an alternative to {approve} that can be used as a mitigation for problems described in {IERC20-approve}. Emits an {Approval} event indicating the updated allowance. Requirements: - `spender` cannot be the zero address."
      },
      "initialize(string,string)": {
        "details": "Grants `DEFAULT_ADMIN_ROLE`, `MINTER_ROLE` and `PAUSER_ROLE` to the account that deploys the contract. See {ERC20-constructor}."
      },
      "mint(address,uint256)": {
        "details": "Creates `amount` new tokens for `to`. See {ERC20-_mint}. Requirements: - the caller must have the `MINTER_ROLE`."
      },
      "mintTo(address,uint256)": {
        "details": "Creates `amount` new tokens for `to`. See {ERC20-_mint}. Requirements: - the caller must have the `MINTER_ROLE`."
      },
      "name()": {
        "details": "Returns the name of the token."
      },
      "pause()": {
        "details": "Pauses all token transfers. See {ERC20Pausable} and {Pausable-_pause}. Requirements: - the caller must have the `PAUSER_ROLE`."
      },
      "paused()": {
        "details": "Returns true if the contract is paused, and false otherwise."
      },
      "renounceRole(bytes32,address)": {
        "details": "Revokes `role` from the calling account. Roles are often managed via {grantRole} and {revokeRole}: this function's purpose is to provide a mechanism for accounts to lose their privileges if they are compromised (such as when a trusted device is misplaced). If the calling account had been granted `role`, emits a {RoleRevoked} event. Requirements: - the caller must be `account`."
      },
      "revokeRole(bytes32,address)": {
        "details": "Revokes `role` from `account`. If `account` had been granted `role`, emits a {RoleRevoked} event. Requirements: - the caller must have ``role``'s admin role."
      },
      "symbol()": {
        "details": "Returns the symbol of the token, usually a shorter version of the name."
      },
      "totalSupply()": {
        "details": "See {IERC20-totalSupply}."
      },
      "transfer(address,uint256)": {
        "details": "See {IERC20-transfer}. Requirements: - `recipient` cannot be the zero address. - the caller must have a balance of at least `amount`."
      },
      "transferFrom(address,address,uint256)": {
        "details": "See {IERC20-transferFrom}. Emits an {Approval} event indicating the updated allowance. This is not required by the EIP. See the note at the beginning of {ERC20}; Requirements: - `sender` and `recipient` cannot be the zero address. - `sender` must have a balance of at least `amount`. - the caller must have allowance for ``sender``'s tokens of at least `amount`."
      },
      "unpause()": {
        "details": "Unpauses all token transfers. See {ERC20Pausable} and {Pausable-_unpause}. Requirements: - the caller must have the `PAUSER_ROLE`."
      }
    },
    "title": "Fidu",
    "version": 1
  },
  "userdoc": {
    "kind": "user",
    "methods": {},
    "notice": "Fidu (symbol: FIDU) is Goldfinch's liquidity token, representing shares  in the Pool. When you deposit, we mint a corresponding amount of Fidu, and when you withdraw, we  burn Fidu. The share price of the Pool implicitly represents the \"exchange rate\" between Fidu  and USDC (or whatever currencies the Pool may allow withdraws in during the future)",
    "version": 1
  },
  "storageLayout": {
    "storage": [
      {
        "astId": 50,
        "contract": "contracts/protocol/Fidu.sol:Fidu",
        "label": "initialized",
        "offset": 0,
        "slot": "0",
        "type": "t_bool"
      },
      {
        "astId": 53,
        "contract": "contracts/protocol/Fidu.sol:Fidu",
        "label": "initializing",
        "offset": 1,
        "slot": "0",
        "type": "t_bool"
      },
      {
        "astId": 118,
        "contract": "contracts/protocol/Fidu.sol:Fidu",
        "label": "______gap",
        "offset": 0,
        "slot": "1",
        "type": "t_array(t_uint256)50_storage"
      },
      {
        "astId": 43,
        "contract": "contracts/protocol/Fidu.sol:Fidu",
        "label": "__gap",
        "offset": 0,
        "slot": "51",
        "type": "t_array(t_uint256)50_storage"
      },
      {
        "astId": 163,
        "contract": "contracts/protocol/Fidu.sol:Fidu",
        "label": "_roles",
        "offset": 0,
        "slot": "101",
        "type": "t_mapping(t_bytes32,t_struct(RoleData)159_storage)"
      },
      {
        "astId": 408,
        "contract": "contracts/protocol/Fidu.sol:Fidu",
        "label": "__gap",
        "offset": 0,
        "slot": "102",
        "type": "t_array(t_uint256)49_storage"
      },
      {
        "astId": 1070,
        "contract": "contracts/protocol/Fidu.sol:Fidu",
        "label": "_balances",
        "offset": 0,
        "slot": "151",
        "type": "t_mapping(t_address,t_uint256)"
      },
      {
        "astId": 1076,
        "contract": "contracts/protocol/Fidu.sol:Fidu",
        "label": "_allowances",
        "offset": 0,
        "slot": "152",
        "type": "t_mapping(t_address,t_mapping(t_address,t_uint256))"
      },
      {
        "astId": 1078,
        "contract": "contracts/protocol/Fidu.sol:Fidu",
        "label": "_totalSupply",
        "offset": 0,
        "slot": "153",
        "type": "t_uint256"
      },
      {
        "astId": 1080,
        "contract": "contracts/protocol/Fidu.sol:Fidu",
        "label": "_name",
        "offset": 0,
        "slot": "154",
        "type": "t_string_storage"
      },
      {
        "astId": 1082,
        "contract": "contracts/protocol/Fidu.sol:Fidu",
        "label": "_symbol",
        "offset": 0,
        "slot": "155",
        "type": "t_string_storage"
      },
      {
        "astId": 1084,
        "contract": "contracts/protocol/Fidu.sol:Fidu",
        "label": "_decimals",
        "offset": 0,
        "slot": "156",
        "type": "t_uint8"
      },
      {
        "astId": 1579,
        "contract": "contracts/protocol/Fidu.sol:Fidu",
        "label": "__gap",
        "offset": 0,
        "slot": "157",
        "type": "t_array(t_uint256)44_storage"
      },
      {
        "astId": 1660,
        "contract": "contracts/protocol/Fidu.sol:Fidu",
        "label": "__gap",
        "offset": 0,
        "slot": "201",
        "type": "t_array(t_uint256)50_storage"
      },
      {
        "astId": 2284,
        "contract": "contracts/protocol/Fidu.sol:Fidu",
        "label": "_paused",
        "offset": 0,
        "slot": "251",
        "type": "t_bool"
      },
      {
        "astId": 2373,
        "contract": "contracts/protocol/Fidu.sol:Fidu",
        "label": "__gap",
        "offset": 0,
        "slot": "252",
        "type": "t_array(t_uint256)49_storage"
      },
      {
        "astId": 1725,
        "contract": "contracts/protocol/Fidu.sol:Fidu",
        "label": "__gap",
        "offset": 0,
        "slot": "301",
        "type": "t_array(t_uint256)50_storage"
      },
      {
        "astId": 1045,
        "contract": "contracts/protocol/Fidu.sol:Fidu",
        "label": "__gap",
        "offset": 0,
        "slot": "351",
        "type": "t_array(t_uint256)50_storage"
      },
      {
        "astId": 7225,
        "contract": "contracts/protocol/Fidu.sol:Fidu",
        "label": "config",
        "offset": 0,
        "slot": "401",
        "type": "t_contract(GoldfinchConfig)7754"
      }
    ],
    "types": {
      "t_address": {
        "encoding": "inplace",
        "label": "address",
        "numberOfBytes": "20"
      },
      "t_array(t_bytes32)dyn_storage": {
        "base": "t_bytes32",
        "encoding": "dynamic_array",
        "label": "bytes32[]",
        "numberOfBytes": "32"
      },
      "t_array(t_uint256)44_storage": {
        "base": "t_uint256",
        "encoding": "inplace",
        "label": "uint256[44]",
        "numberOfBytes": "1408"
      },
      "t_array(t_uint256)49_storage": {
        "base": "t_uint256",
        "encoding": "inplace",
        "label": "uint256[49]",
        "numberOfBytes": "1568"
      },
      "t_array(t_uint256)50_storage": {
        "base": "t_uint256",
        "encoding": "inplace",
        "label": "uint256[50]",
        "numberOfBytes": "1600"
      },
      "t_bool": {
        "encoding": "inplace",
        "label": "bool",
        "numberOfBytes": "1"
      },
      "t_bytes32": {
        "encoding": "inplace",
        "label": "bytes32",
        "numberOfBytes": "32"
      },
      "t_contract(GoldfinchConfig)7754": {
        "encoding": "inplace",
        "label": "contract GoldfinchConfig",
        "numberOfBytes": "20"
      },
      "t_mapping(t_address,t_mapping(t_address,t_uint256))": {
        "encoding": "mapping",
        "key": "t_address",
        "label": "mapping(address => mapping(address => uint256))",
        "numberOfBytes": "32",
        "value": "t_mapping(t_address,t_uint256)"
      },
      "t_mapping(t_address,t_uint256)": {
        "encoding": "mapping",
        "key": "t_address",
        "label": "mapping(address => uint256)",
        "numberOfBytes": "32",
        "value": "t_uint256"
      },
      "t_mapping(t_bytes32,t_struct(RoleData)159_storage)": {
        "encoding": "mapping",
        "key": "t_bytes32",
        "label": "mapping(bytes32 => struct AccessControlUpgradeSafe.RoleData)",
        "numberOfBytes": "32",
        "value": "t_struct(RoleData)159_storage"
      },
      "t_mapping(t_bytes32,t_uint256)": {
        "encoding": "mapping",
        "key": "t_bytes32",
        "label": "mapping(bytes32 => uint256)",
        "numberOfBytes": "32",
        "value": "t_uint256"
      },
      "t_string_storage": {
        "encoding": "bytes",
        "label": "string",
        "numberOfBytes": "32"
      },
      "t_struct(AddressSet)2059_storage": {
        "encoding": "inplace",
        "label": "struct EnumerableSet.AddressSet",
        "members": [
          {
            "astId": 2058,
            "contract": "contracts/protocol/Fidu.sol:Fidu",
            "label": "_inner",
            "offset": 0,
            "slot": "0",
            "type": "t_struct(Set)1879_storage"
          }
        ],
        "numberOfBytes": "64"
      },
      "t_struct(RoleData)159_storage": {
        "encoding": "inplace",
        "label": "struct AccessControlUpgradeSafe.RoleData",
        "members": [
          {
            "astId": 156,
            "contract": "contracts/protocol/Fidu.sol:Fidu",
            "label": "members",
            "offset": 0,
            "slot": "0",
            "type": "t_struct(AddressSet)2059_storage"
          },
          {
            "astId": 158,
            "contract": "contracts/protocol/Fidu.sol:Fidu",
            "label": "adminRole",
            "offset": 0,
            "slot": "2",
            "type": "t_bytes32"
          }
        ],
        "numberOfBytes": "96"
      },
      "t_struct(Set)1879_storage": {
        "encoding": "inplace",
        "label": "struct EnumerableSet.Set",
        "members": [
          {
            "astId": 1874,
            "contract": "contracts/protocol/Fidu.sol:Fidu",
            "label": "_values",
            "offset": 0,
            "slot": "0",
            "type": "t_array(t_bytes32)dyn_storage"
          },
          {
            "astId": 1878,
            "contract": "contracts/protocol/Fidu.sol:Fidu",
            "label": "_indexes",
            "offset": 0,
            "slot": "1",
            "type": "t_mapping(t_bytes32,t_uint256)"
          }
        ],
        "numberOfBytes": "64"
      },
      "t_uint256": {
        "encoding": "inplace",
        "label": "uint256",
        "numberOfBytes": "32"
      },
      "t_uint8": {
        "encoding": "inplace",
        "label": "uint8",
        "numberOfBytes": "1"
      }
    }
  }
}