{
  "address": "0xee2Ea6F0b8FC3284fFB702C09ebe0F2E4F5441E1",
  "abi": [
    {
      "anonymous": false,
      "inputs": [
        {
          "indexed": false,
          "internalType": "address",
          "name": "owner",
          "type": "address"
        },
        {
          "indexed": false,
          "internalType": "uint256",
          "name": "index",
          "type": "uint256"
        },
        {
          "indexed": false,
          "internalType": "address",
          "name": "oldValue",
          "type": "address"
        },
        {
          "indexed": false,
          "internalType": "address",
          "name": "newValue",
          "type": "address"
        }
      ],
      "name": "AddressUpdated",
      "type": "event"
    },
    {
      "anonymous": false,
      "inputs": [
        {
          "indexed": true,
          "internalType": "address",
          "name": "member",
          "type": "address"
        }
      ],
      "name": "GoListed",
      "type": "event"
    },
    {
      "anonymous": false,
      "inputs": [
        {
          "indexed": true,
          "internalType": "address",
          "name": "member",
          "type": "address"
        }
      ],
      "name": "NoListed",
      "type": "event"
    },
    {
      "anonymous": false,
      "inputs": [
        {
          "indexed": false,
          "internalType": "address",
          "name": "owner",
          "type": "address"
        },
        {
          "indexed": false,
          "internalType": "uint256",
          "name": "index",
          "type": "uint256"
        },
        {
          "indexed": false,
          "internalType": "uint256",
          "name": "oldValue",
          "type": "uint256"
        },
        {
          "indexed": false,
          "internalType": "uint256",
          "name": "newValue",
          "type": "uint256"
        }
      ],
      "name": "NumberUpdated",
      "type": "event"
    },
    {
      "anonymous": false,
      "inputs": [
        {
          "indexed": false,
          "internalType": "address",
          "name": "account",
          "type": "address"
        }
      ],
      "name": "Paused",
      "type": "event"
    },
    {
      "anonymous": false,
      "inputs": [
        {
          "indexed": true,
          "internalType": "bytes32",
          "name": "role",
          "type": "bytes32"
        },
        {
          "indexed": true,
          "internalType": "address",
          "name": "account",
          "type": "address"
        },
        {
          "indexed": true,
          "internalType": "address",
          "name": "sender",
          "type": "address"
        }
      ],
      "name": "RoleGranted",
      "type": "event"
    },
    {
      "anonymous": false,
      "inputs": [
        {
          "indexed": true,
          "internalType": "bytes32",
          "name": "role",
          "type": "bytes32"
        },
        {
          "indexed": true,
          "internalType": "address",
          "name": "account",
          "type": "address"
        },
        {
          "indexed": true,
          "internalType": "address",
          "name": "sender",
          "type": "address"
        }
      ],
      "name": "RoleRevoked",
      "type": "event"
    },
    {
      "anonymous": false,
      "inputs": [
        {
          "indexed": false,
          "internalType": "address",
          "name": "account",
          "type": "address"
        }
      ],
      "name": "Unpaused",
      "type": "event"
    },
    {
      "inputs": [],
      "name": "DEFAULT_ADMIN_ROLE",
      "outputs": [
        {
          "internalType": "bytes32",
          "name": "",
          "type": "bytes32"
        }
      ],
      "stateMutability": "view",
      "type": "function"
    },
    {
      "inputs": [],
      "name": "GO_LISTER_ROLE",
      "outputs": [
        {
          "internalType": "bytes32",
          "name": "",
          "type": "bytes32"
        }
      ],
      "stateMutability": "view",
      "type": "function"
    },
    {
      "inputs": [],
      "name": "OWNER_ROLE",
      "outputs": [
        {
          "internalType": "bytes32",
          "name": "",
          "type": "bytes32"
        }
      ],
      "stateMutability": "view",
      "type": "function"
    },
    {
      "inputs": [],
      "name": "PAUSER_ROLE",
      "outputs": [
        {
          "internalType": "bytes32",
          "name": "",
          "type": "bytes32"
        }
      ],
      "stateMutability": "view",
      "type": "function"
    },
    {
      "inputs": [
        {
          "internalType": "address",
          "name": "owner",
          "type": "address"
        }
      ],
      "name": "__BaseUpgradeablePausable__init",
      "outputs": [],
      "stateMutability": "nonpayable",
      "type": "function"
    },
    {
      "inputs": [],
      "name": "__PauserPausable__init",
      "outputs": [],
      "stateMutability": "nonpayable",
      "type": "function"
    },
    {
      "inputs": [
        {
          "internalType": "address",
          "name": "_member",
          "type": "address"
        }
      ],
      "name": "addToGoList",
      "outputs": [],
      "stateMutability": "nonpayable",
      "type": "function"
    },
    {
      "inputs": [
        {
          "internalType": "uint256",
          "name": "",
          "type": "uint256"
        }
      ],
      "name": "addresses",
      "outputs": [
        {
          "internalType": "address",
          "name": "",
          "type": "address"
        }
      ],
      "stateMutability": "view",
      "type": "function"
    },
    {
      "inputs": [
        {
          "internalType": "address[]",
          "name": "_members",
          "type": "address[]"
        }
      ],
      "name": "bulkAddToGoList",
      "outputs": [],
      "stateMutability": "nonpayable",
      "type": "function"
    },
    {
      "inputs": [
        {
          "internalType": "address[]",
          "name": "_members",
          "type": "address[]"
        }
      ],
      "name": "bulkRemoveFromGoList",
      "outputs": [],
      "stateMutability": "nonpayable",
      "type": "function"
    },
    {
      "inputs": [
        {
          "internalType": "uint256",
          "name": "index",
          "type": "uint256"
        }
      ],
      "name": "getAddress",
      "outputs": [
        {
          "internalType": "address",
          "name": "",
          "type": "address"
        }
      ],
      "stateMutability": "view",
      "type": "function"
    },
    {
      "inputs": [
        {
          "internalType": "uint256",
          "name": "index",
          "type": "uint256"
        }
      ],
      "name": "getNumber",
      "outputs": [
        {
          "internalType": "uint256",
          "name": "",
          "type": "uint256"
        }
      ],
      "stateMutability": "view",
      "type": "function"
    },
    {
      "inputs": [
        {
          "internalType": "bytes32",
          "name": "role",
          "type": "bytes32"
        }
      ],
      "name": "getRoleAdmin",
      "outputs": [
        {
          "internalType": "bytes32",
          "name": "",
          "type": "bytes32"
        }
      ],
      "stateMutability": "view",
      "type": "function"
    },
    {
      "inputs": [
        {
          "internalType": "bytes32",
          "name": "role",
          "type": "bytes32"
        },
        {
          "internalType": "uint256",
          "name": "index",
          "type": "uint256"
        }
      ],
      "name": "getRoleMember",
      "outputs": [
        {
          "internalType": "address",
          "name": "",
          "type": "address"
        }
      ],
      "stateMutability": "view",
      "type": "function"
    },
    {
      "inputs": [
        {
          "internalType": "bytes32",
          "name": "role",
          "type": "bytes32"
        }
      ],
      "name": "getRoleMemberCount",
      "outputs": [
        {
          "internalType": "uint256",
          "name": "",
          "type": "uint256"
        }
      ],
      "stateMutability": "view",
      "type": "function"
    },
    {
      "inputs": [
        {
          "internalType": "address",
          "name": "",
          "type": "address"
        }
      ],
      "name": "goList",
      "outputs": [
        {
          "internalType": "bool",
          "name": "",
          "type": "bool"
        }
      ],
      "stateMutability": "view",
      "type": "function"
    },
    {
      "inputs": [
        {
          "internalType": "bytes32",
          "name": "role",
          "type": "bytes32"
        },
        {
          "internalType": "address",
          "name": "account",
          "type": "address"
        }
      ],
      "name": "grantRole",
      "outputs": [],
      "stateMutability": "nonpayable",
      "type": "function"
    },
    {
      "inputs": [
        {
          "internalType": "bytes32",
          "name": "role",
          "type": "bytes32"
        },
        {
          "internalType": "address",
          "name": "account",
          "type": "address"
        }
      ],
      "name": "hasRole",
      "outputs": [
        {
          "internalType": "bool",
          "name": "",
          "type": "bool"
        }
      ],
      "stateMutability": "view",
      "type": "function"
    },
    {
      "inputs": [
        {
          "internalType": "address",
          "name": "owner",
          "type": "address"
        }
      ],
      "name": "initialize",
      "outputs": [],
      "stateMutability": "nonpayable",
      "type": "function"
    },
    {
      "inputs": [
        {
          "internalType": "address",
          "name": "_initialConfig",
          "type": "address"
        },
        {
          "internalType": "uint256",
          "name": "numbersLength",
          "type": "uint256"
        },
        {
          "internalType": "uint256",
          "name": "addressesLength",
          "type": "uint256"
        }
      ],
      "name": "initializeFromOtherConfig",
      "outputs": [],
      "stateMutability": "nonpayable",
      "type": "function"
    },
    {
      "inputs": [],
      "name": "isAdmin",
      "outputs": [
        {
          "internalType": "bool",
          "name": "",
          "type": "bool"
        }
      ],
      "stateMutability": "view",
      "type": "function"
    },
    {
      "inputs": [
        {
          "internalType": "uint256",
          "name": "",
          "type": "uint256"
        }
      ],
      "name": "numbers",
      "outputs": [
        {
          "internalType": "uint256",
          "name": "",
          "type": "uint256"
        }
      ],
      "stateMutability": "view",
      "type": "function"
    },
    {
      "inputs": [],
      "name": "pause",
      "outputs": [],
      "stateMutability": "nonpayable",
      "type": "function"
    },
    {
      "inputs": [],
      "name": "paused",
      "outputs": [
        {
          "internalType": "bool",
          "name": "",
          "type": "bool"
        }
      ],
      "stateMutability": "view",
      "type": "function"
    },
    {
      "inputs": [
        {
          "internalType": "address",
          "name": "_member",
          "type": "address"
        }
      ],
      "name": "removeFromGoList",
      "outputs": [],
      "stateMutability": "nonpayable",
      "type": "function"
    },
    {
      "inputs": [
        {
          "internalType": "bytes32",
          "name": "role",
          "type": "bytes32"
        },
        {
          "internalType": "address",
          "name": "account",
          "type": "address"
        }
      ],
      "name": "renounceRole",
      "outputs": [],
      "stateMutability": "nonpayable",
      "type": "function"
    },
    {
      "inputs": [
        {
          "internalType": "bytes32",
          "name": "role",
          "type": "bytes32"
        },
        {
          "internalType": "address",
          "name": "account",
          "type": "address"
        }
      ],
      "name": "revokeRole",
      "outputs": [],
      "stateMutability": "nonpayable",
      "type": "function"
    },
    {
      "inputs": [
        {
          "internalType": "uint256",
          "name": "addressIndex",
          "type": "uint256"
        },
        {
          "internalType": "address",
          "name": "newAddress",
          "type": "address"
        }
      ],
      "name": "setAddress",
      "outputs": [],
      "stateMutability": "nonpayable",
      "type": "function"
    },
    {
      "inputs": [
        {
          "internalType": "address",
          "name": "newAddress",
          "type": "address"
        }
      ],
      "name": "setBorrowerImplementation",
      "outputs": [],
      "stateMutability": "nonpayable",
      "type": "function"
    },
    {
      "inputs": [
        {
          "internalType": "address",
          "name": "newAddress",
          "type": "address"
        }
      ],
      "name": "setCreditLineImplementation",
      "outputs": [],
      "stateMutability": "nonpayable",
      "type": "function"
    },
    {
      "inputs": [
        {
          "internalType": "address",
          "name": "newAddress",
          "type": "address"
        }
      ],
      "name": "setGoldfinchConfig",
      "outputs": [],
      "stateMutability": "nonpayable",
      "type": "function"
    },
    {
      "inputs": [
        {
          "internalType": "uint256",
          "name": "index",
          "type": "uint256"
        },
        {
          "internalType": "uint256",
          "name": "newNumber",
          "type": "uint256"
        }
      ],
      "name": "setNumber",
      "outputs": [],
      "stateMutability": "nonpayable",
      "type": "function"
    },
    {
      "inputs": [
        {
          "internalType": "address",
          "name": "newStrategy",
          "type": "address"
        }
      ],
      "name": "setSeniorPoolStrategy",
      "outputs": [],
      "stateMutability": "nonpayable",
      "type": "function"
    },
    {
      "inputs": [
        {
          "internalType": "address",
          "name": "newAddress",
          "type": "address"
        }
      ],
      "name": "setTranchedPoolImplementation",
      "outputs": [],
      "stateMutability": "nonpayable",
      "type": "function"
    },
    {
      "inputs": [
        {
          "internalType": "address",
          "name": "newTreasuryReserve",
          "type": "address"
        }
      ],
      "name": "setTreasuryReserve",
      "outputs": [],
      "stateMutability": "nonpayable",
      "type": "function"
    },
    {
      "inputs": [],
      "name": "unpause",
      "outputs": [],
      "stateMutability": "nonpayable",
      "type": "function"
    },
    {
      "inputs": [],
      "name": "valuesInitialized",
      "outputs": [
        {
          "internalType": "bool",
          "name": "",
          "type": "bool"
        }
      ],
      "stateMutability": "view",
      "type": "function"
    }
  ],
  "transactionHash": "0xb767cc7bbb9b5331bad56e1051f70bc23f50a9e7510018289dde63c93b495ddc",
  "args": [],
  "numDeployments": 2,
  "solcInputHash": "53bc22ef9840d85c0b702ac8db87cc08",
  "bytecode": "0x608060405234801561001057600080fd5b50611b34806100206000396000f3fe608060405234801561001057600080fd5b50600436106101f75760003560e01c806391d1485411610120578063d2133c8f116100b8578063e861e9561161007c578063e861e95614610420578063edf26d9b14610433578063f6b205e514610446578063fc56365814610459578063fdf4a2ea1461046c576101f7565b8063d2133c8f146103e2578063d39fa233146103ea578063d547741f146103fd578063e58378bb14610410578063e63ab1e914610418576101f7565b806391d148541461034d578063a217fddf14610360578063ac4ce2c614610368578063ad5a35e31461037b578063b6db75a01461038e578063b93f9b0a14610396578063bc9d1764146103a9578063c4d66de8146103bc578063ca15c873146103cf576101f7565b806357337adb1161019357806357337adb146102a95780635b51277b146102bc5780635c949057146102c45780635c975abb146102d75780635f7c0e5d146102ec5780636b19e8c7146102ff57806377134cdf146103125780638456cb59146103255780639010d07c1461032d576101f7565b8063097616a3146101fc578063178a99ae146102115780631e7213cf14610224578063248a9ca314610237578063249e2543146102605780632f2ff15d1461027357806336568abe146102865780633f4ba83a14610299578063526d81f6146102a1575b600080fd5b61020f61020a36600461153b565b61047f565b005b61020f61021f3660046115ae565b6105b8565b61020f61023236600461153b565b61062a565b61024a61024536600461161d565b6106dc565b604051610257919061170d565b60405180910390f35b61020f61026e36600461157a565b6106f1565b61020f610281366004611635565b610894565b61020f610294366004611635565b6108d8565b61020f61091a565b61020f61095a565b61020f6102b736600461153b565b6109e5565b61024a610a12565b61020f6102d236600461153b565b610a24565b6102df610aa4565b6040516102579190611702565b61020f6102fa36600461153b565b610aad565b61020f61030d366004611664565b610b30565b61020f6103203660046115ae565b610bb4565b61020f610c21565b61034061033b366004611664565b610c5f565b604051610257919061169d565b6102df61035b366004611635565b610c80565b61024a610c98565b61020f610376366004611635565b610c9d565b6102df61038936600461153b565b610d7f565b6102df610d95565b6103406103a436600461161d565b610db6565b61020f6103b736600461153b565b610dd2565b61020f6103ca36600461153b565b610dff565b61024a6103dd36600461161d565b610eda565b6102df610ef1565b61024a6103f836600461161d565b610efb565b61020f61040b366004611635565b610f0e565b61024a610f48565b61024a610f5a565b61020f61042e36600461153b565b610f6c565b61034061044136600461161d565b610f99565b61020f61045436600461153b565b610fb5565b61024a61046736600461161d565b610fe2565b61020f61047a36600461153b565b610ff5565b600054610100900460ff16806104985750610498611022565b806104a6575060005460ff16155b6104cb5760405162461bcd60e51b81526004016104c290611941565b60405180910390fd5b600054610100900460ff161580156104f6576000805460ff1961ff0019909116610100171660011790555b6001600160a01b03821661051c5760405162461bcd60e51b81526004016104c290611886565b610524611028565b61052c6110a9565b610534611135565b61054c600080516020611a9f833981519152836108ce565b610564600080516020611abf833981519152836108ce565b61058a600080516020611abf833981519152600080516020611a9f8339815191526111c4565b6105a2600080516020611a9f833981519152806111c4565b80156105b4576000805461ff00191690555b5050565b6105d2600080516020611adf83398151915261035b6111d9565b6105ee5760405162461bcd60e51b81526004016104c2906118f2565b60005b818110156106255761061d83838381811061060857fe5b90506020020160208101906102fa919061153b565b6001016105f1565b505050565b610632610d95565b61064e5760405162461bcd60e51b81526004016104c2906119ef565b600060015b60008181526101c36020526040908190205490519192507faebfad0d8db62d5b2e540f64d7c2be34ded04171b48ed6655286c392a879bf6c916106a591339185916001600160a01b03169087906116b1565b60405180910390a160009081526101c36020526040902080546001600160a01b0319166001600160a01b0392909216919091179055565b60009081526065602052604090206002015490565b6106f9610d95565b6107155760405162461bcd60e51b81526004016104c2906119ef565b6101c65460ff16156107395760405162461bcd60e51b81526004016104c2906118bb565b8260005b838110156107cf576107c781836001600160a01b031663fc563658846040518263ffffffff1660e01b8152600401610775919061170d565b602060405180830381600087803b15801561078f57600080fd5b505af11580156107a3573d6000803e3d6000fd5b505050506040513d601f19601f8201168201806040525081019061030d9190611685565b60010161073d565b5060005b8281101561087f5760006107e682610db6565b6001600160a01b031614156108775761087781836001600160a01b031663b93f9b0a846040518263ffffffff1660e01b8152600401610825919061170d565b602060405180830381600087803b15801561083f57600080fd5b505af1158015610853573d6000803e3d6000fd5b505050506040513d601f19601f82011682018060405250810190610376919061155e565b6001016107d3565b50506101c6805460ff19166001179055505050565b6000828152606560205260409020600201546108b29061035b6111d9565b6108ce5760405162461bcd60e51b81526004016104c290611758565b6105b482826111dd565b6108e06111d9565b6001600160a01b0316816001600160a01b0316146109105760405162461bcd60e51b81526004016104c290611a3a565b6105b48282611246565b610934600080516020611abf83398151915261035b6111d9565b6109505760405162461bcd60e51b81526004016104c29061198f565b6109586112af565b565b600054610100900460ff16806109735750610973611022565b80610981575060005460ff16155b61099d5760405162461bcd60e51b81526004016104c290611941565b600054610100900460ff161580156109c8576000805460ff1961ff0019909116610100171660011790555b6109d06110a9565b80156109e2576000805461ff00191690555b50565b6109ed610d95565b610a095760405162461bcd60e51b81526004016104c2906119ef565b60006006610653565b600080516020611adf83398151915281565b610a3e600080516020611adf83398151915261035b6111d9565b610a5a5760405162461bcd60e51b81526004016104c2906118f2565b6001600160a01b03811660008181526101c56020526040808220805460ff19169055517f8975df3325e4d0a8fdefaff900160c197e34acf82b6db814c02509bdf218cf609190a250565b60975460ff1690565b610ac7600080516020611adf83398151915261035b6111d9565b610ae35760405162461bcd60e51b81526004016104c2906118f2565b6001600160a01b03811660008181526101c56020526040808220805460ff19166001179055517f6ea07fa01118ee7113c6c1f1cfc6778df228949052175f938d8154739d5e897c9190a250565b610b38610d95565b610b545760405162461bcd60e51b81526004016104c2906119ef565b60008281526101c46020526040908190205490517f6b54a1d7321bc1699c15f7f585030864b02ca971590f31de4acbb60eff0758c091610b99913391869186906116dc565b60405180910390a160009182526101c4602052604090912055565b610bce600080516020611adf83398151915261035b6111d9565b610bea5760405162461bcd60e51b81526004016104c2906118f2565b60005b8181101561062557610c19838383818110610c0457fe5b90506020020160208101906102d2919061153b565b600101610bed565b610c3b600080516020611abf83398151915261035b6111d9565b610c575760405162461bcd60e51b81526004016104c29061198f565b61095861131b565b6000828152606560205260408120610c779083611374565b90505b92915050565b6000828152606560205260408120610c779083611380565b600081565b610ca5610d95565b610cc15760405162461bcd60e51b81526004016104c2906119ef565b60008281526101c360205260409020546001600160a01b031615610cf75760405162461bcd60e51b81526004016104c2906119ab565b60008281526101c36020526040908190205490517faebfad0d8db62d5b2e540f64d7c2be34ded04171b48ed6655286c392a879bf6c91610d4891339186916001600160a01b039091169086906116b1565b60405180910390a160009182526101c3602052604090912080546001600160a01b0319166001600160a01b03909216919091179055565b6101c56020526000908152604090205460ff1681565b6000610db1600080516020611a9f83398151915261035b6111d9565b905090565b60009081526101c360205260409020546001600160a01b031690565b610dda610d95565b610df65760405162461bcd60e51b81526004016104c2906119ef565b6000600b610653565b600054610100900460ff1680610e185750610e18611022565b80610e26575060005460ff16155b610e425760405162461bcd60e51b81526004016104c290611941565b600054610100900460ff16158015610e6d576000805460ff1961ff0019909116610100171660011790555b6001600160a01b038216610e935760405162461bcd60e51b81526004016104c2906117d5565b610e9c8261047f565b610eb4600080516020611adf833981519152836108ce565b6105a2600080516020611adf833981519152600080516020611a9f8339815191526111c4565b6000818152606560205260408120610c7a90611395565b6101c65460ff1681565b6101c46020526000908152604090205481565b600082815260656020526040902060020154610f2c9061035b6111d9565b6109105760405162461bcd60e51b81526004016104c29061180c565b600080516020611a9f83398151915281565b600080516020611abf83398151915281565b610f74610d95565b610f905760405162461bcd60e51b81526004016104c2906119ef565b60006011610653565b6101c3602052600090815260409020546001600160a01b031681565b610fbd610d95565b610fd95760405162461bcd60e51b81526004016104c2906119ef565b6000600f610653565b60009081526101c4602052604090205490565b610ffd610d95565b6110195760405162461bcd60e51b81526004016104c2906119ef565b6000600d610653565b303b1590565b600054610100900460ff16806110415750611041611022565b8061104f575060005460ff16155b61106b5760405162461bcd60e51b81526004016104c290611941565b600054610100900460ff161580156109d0576000805460ff1961ff00199091166101001716600117905580156109e2576000805461ff001916905550565b600054610100900460ff16806110c257506110c2611022565b806110d0575060005460ff16155b6110ec5760405162461bcd60e51b81526004016104c290611941565b600054610100900460ff16158015611117576000805460ff1961ff0019909116610100171660011790555b6097805460ff1916905580156109e2576000805461ff001916905550565b600054610100900460ff168061114e575061114e611022565b8061115c575060005460ff16155b6111785760405162461bcd60e51b81526004016104c290611941565b600054610100900460ff161580156111a3576000805460ff1961ff0019909116610100171660011790555b60c9805460ff1916600117905580156109e2576000805461ff001916905550565b60009182526065602052604090912060020155565b3390565b60008281526065602052604090206111f590826113a0565b156105b4576112026111d9565b6001600160a01b0316816001600160a01b0316837f2f8788117e7eff1d82e926ec794901d17c78024a50270940304540a733656f0d60405160405180910390a45050565b600082815260656020526040902061125e90826113b5565b156105b45761126b6111d9565b6001600160a01b0316816001600160a01b0316837ff6391f5c32d9c69d2a47ea670b442974b53935d1edc7fd64eb21e047a839171b60405160405180910390a45050565b60975460ff166112d15760405162461bcd60e51b81526004016104c2906117a7565b6097805460ff191690557f5db9ee0a495bf2e6ff9c91a7834c1ba4fdd244a5e8aa4e537bd38aeae4b073aa6113046111d9565b604051611311919061169d565b60405180910390a1565b60975460ff161561133e5760405162461bcd60e51b81526004016104c29061185c565b6097805460ff191660011790557f62e78cea01bee320cd4e420270b5ea74000d11b0c9f74754ebdbfc544b05a2586113046111d9565b6000610c7783836113ca565b6000610c77836001600160a01b03841661140f565b6000610c7a82611427565b6000610c77836001600160a01b03841661142b565b6000610c77836001600160a01b038416611475565b815460009082106113ed5760405162461bcd60e51b81526004016104c290611716565b8260000182815481106113fc57fe5b9060005260206000200154905092915050565b60009081526001919091016020526040902054151590565b5490565b6000611437838361140f565b61146d57508154600181810184556000848152602080822090930184905584548482528286019093526040902091909155610c7a565b506000610c7a565b6000818152600183016020526040812054801561153157835460001980830191908101906000908790839081106114a857fe5b90600052602060002001549050808760000184815481106114c557fe5b6000918252602080832090910192909255828152600189810190925260409020908401905586548790806114f557fe5b60019003818190600052602060002001600090559055866001016000878152602001908152602001600020600090556001945050505050610c7a565b6000915050610c7a565b60006020828403121561154c578081fd5b813561155781611a89565b9392505050565b60006020828403121561156f578081fd5b815161155781611a89565b60008060006060848603121561158e578182fd5b833561159981611a89565b95602085013595506040909401359392505050565b600080602083850312156115c0578182fd5b823567ffffffffffffffff808211156115d7578384fd5b818501915085601f8301126115ea578384fd5b8135818111156115f8578485fd5b866020808302850101111561160b578485fd5b60209290920196919550909350505050565b60006020828403121561162e578081fd5b5035919050565b60008060408385031215611647578182fd5b82359150602083013561165981611a89565b809150509250929050565b60008060408385031215611676578182fd5b50508035926020909101359150565b600060208284031215611696578081fd5b5051919050565b6001600160a01b0391909116815260200190565b6001600160a01b03948516815260208101939093529083166040830152909116606082015260800190565b6001600160a01b0394909416845260208401929092526040830152606082015260800190565b901515815260200190565b90815260200190565b60208082526022908201527f456e756d657261626c655365743a20696e646578206f7574206f6620626f756e604082015261647360f01b606082015260800190565b6020808252602f908201527f416363657373436f6e74726f6c3a2073656e646572206d75737420626520616e60408201526e0818591b5a5b881d1bc819dc985b9d608a1b606082015260800190565b60208082526014908201527314185d5cd8589b194e881b9bdd081c185d5cd95960621b604082015260600190565b6020808252601d908201527f4f776e657220616464726573732063616e6e6f7420626520656d707479000000604082015260600190565b60208082526030908201527f416363657373436f6e74726f6c3a2073656e646572206d75737420626520616e60408201526f2061646d696e20746f207265766f6b6560801b606082015260800190565b60208082526010908201526f14185d5cd8589b194e881c185d5cd95960821b604082015260600190565b6020808252818101527f4f776e65722063616e6e6f7420626520746865207a65726f2061646472657373604082015260600190565b6020808252601a908201527f416c726561647920696e697469616c697a65642076616c756573000000000000604082015260600190565b6020808252602f908201527f4d757374206861766520676f2d6c697374657220726f6c6520746f207065726660408201526e37b936903a3434b99030b1ba34b7b760891b606082015260800190565b6020808252602e908201527f436f6e747261637420696e7374616e63652068617320616c726561647920626560408201526d195b881a5b9a5d1a585b1a5e995960921b606082015260800190565b6020808252600290820152614e4160f01b604082015260600190565b60208082526024908201527f416464726573732068617320616c7265616479206265656e20696e697469616c6040820152631a5e995960e21b606082015260800190565b6020808252602b908201527f4d75737420686176652061646d696e20726f6c6520746f20706572666f726d2060408201526a3a3434b99030b1ba34b7b760a91b606082015260800190565b6020808252602f908201527f416363657373436f6e74726f6c3a2063616e206f6e6c792072656e6f756e636560408201526e103937b632b9903337b91039b2b63360891b606082015260800190565b6001600160a01b03811681146109e257600080fdfeb19546dff01e856fb3f010c267a7b1c60363cf8a4664e21cc89c26224620214e65d7a28e3265b37a6474929f336521b332c1681b933f6cb9f3376673440d862a4261c544cc1a84a4828404bd710bd4900df04736488a0f1af6a07d8ba25ece98a26469706673582212209f983f356f03068da87d79f3c6880bbe9e9326c3ef7547d96c9654f90a97133f64736f6c634300060c0033",
  "devdoc": {
    "author": "Goldfinch",
    "kind": "dev",
    "methods": {
      "addToGoList(address)": {
        "details": "Adds a user to go-list",
        "params": {
          "_member": "address to add to go-list"
        }
      },
      "bulkAddToGoList(address[])": {
        "details": "adds many users to go-list at once",
        "params": {
          "_members": "addresses to ad to go-list"
        }
      },
      "bulkRemoveFromGoList(address[])": {
        "details": "removes many users from go-list at once",
        "params": {
          "_members": "addresses to remove from go-list"
        }
      },
      "getRoleAdmin(bytes32)": {
        "details": "Returns the admin role that controls `role`. See {grantRole} and {revokeRole}. To change a role's admin, use {_setRoleAdmin}."
      },
      "getRoleMember(bytes32,uint256)": {
        "details": "Returns one of the accounts that have `role`. `index` must be a value between 0 and {getRoleMemberCount}, non-inclusive. Role bearers are not sorted in any particular way, and their ordering may change at any point. WARNING: When using {getRoleMember} and {getRoleMemberCount}, make sure you perform all queries on the same block. See the following https://forum.openzeppelin.com/t/iterating-over-elements-on-enumerableset-in-openzeppelin-contracts/2296[forum post] for more information."
      },
      "getRoleMemberCount(bytes32)": {
        "details": "Returns the number of accounts that have `role`. Can be used together with {getRoleMember} to enumerate all bearers of a role."
      },
      "grantRole(bytes32,address)": {
        "details": "Grants `role` to `account`. If `account` had not been already granted `role`, emits a {RoleGranted} event. Requirements: - the caller must have ``role``'s admin role."
      },
      "hasRole(bytes32,address)": {
        "details": "Returns `true` if `account` has been granted `role`."
      },
      "pause()": {
        "details": "Pauses all functions guarded by Pause See {Pausable-_pause}. Requirements: - the caller must have the PAUSER_ROLE."
      },
      "paused()": {
        "details": "Returns true if the contract is paused, and false otherwise."
      },
      "removeFromGoList(address)": {
        "details": "removes a user from go-list",
        "params": {
          "_member": "address to remove from go-list"
        }
      },
      "renounceRole(bytes32,address)": {
        "details": "Revokes `role` from the calling account. Roles are often managed via {grantRole} and {revokeRole}: this function's purpose is to provide a mechanism for accounts to lose their privileges if they are compromised (such as when a trusted device is misplaced). If the calling account had been granted `role`, emits a {RoleRevoked} event. Requirements: - the caller must be `account`."
      },
      "revokeRole(bytes32,address)": {
        "details": "Revokes `role` from `account`. If `account` had been granted `role`, emits a {RoleRevoked} event. Requirements: - the caller must have ``role``'s admin role."
      },
      "unpause()": {
        "details": "Unpauses the contract See {Pausable-_unpause}. Requirements: - the caller must have the Pauser role"
      }
    },
    "title": "GoldfinchConfig",
    "version": 1
  },
  "userdoc": {
    "kind": "user",
    "methods": {},
    "notice": "This contract stores mappings of useful \"protocol config state\", giving a central place  for all other contracts to access it. For example, the TransactionLimit, or the PoolAddress. These config vars  are enumerated in the `ConfigOptions` library, and can only be changed by admins of the protocol.  Note: While this inherits from BaseUpgradeablePausable, it is not deployed as an upgradeable contract (this    is mostly to save gas costs of having each call go through a proxy)",
    "version": 1
  },
  "storageLayout": {
    "storage": [
      {
        "astId": 50,
        "contract": "contracts/protocol/core/GoldfinchConfig.sol:GoldfinchConfig",
        "label": "initialized",
        "offset": 0,
        "slot": "0",
        "type": "t_bool"
      },
      {
        "astId": 53,
        "contract": "contracts/protocol/core/GoldfinchConfig.sol:GoldfinchConfig",
        "label": "initializing",
        "offset": 1,
        "slot": "0",
        "type": "t_bool"
      },
      {
        "astId": 118,
        "contract": "contracts/protocol/core/GoldfinchConfig.sol:GoldfinchConfig",
        "label": "______gap",
        "offset": 0,
        "slot": "1",
        "type": "t_array(t_uint256)50_storage"
      },
      {
        "astId": 43,
        "contract": "contracts/protocol/core/GoldfinchConfig.sol:GoldfinchConfig",
        "label": "__gap",
        "offset": 0,
        "slot": "51",
        "type": "t_array(t_uint256)50_storage"
      },
      {
        "astId": 163,
        "contract": "contracts/protocol/core/GoldfinchConfig.sol:GoldfinchConfig",
        "label": "_roles",
        "offset": 0,
        "slot": "101",
        "type": "t_mapping(t_bytes32,t_struct(RoleData)159_storage)"
      },
      {
        "astId": 408,
        "contract": "contracts/protocol/core/GoldfinchConfig.sol:GoldfinchConfig",
        "label": "__gap",
        "offset": 0,
        "slot": "102",
        "type": "t_array(t_uint256)49_storage"
      },
      {
        "astId": 3137,
        "contract": "contracts/protocol/core/GoldfinchConfig.sol:GoldfinchConfig",
        "label": "_paused",
        "offset": 0,
        "slot": "151",
        "type": "t_bool"
      },
      {
        "astId": 3226,
        "contract": "contracts/protocol/core/GoldfinchConfig.sol:GoldfinchConfig",
        "label": "__gap",
        "offset": 0,
        "slot": "152",
        "type": "t_array(t_uint256)49_storage"
      },
      {
        "astId": 3235,
        "contract": "contracts/protocol/core/GoldfinchConfig.sol:GoldfinchConfig",
        "label": "_notEntered",
        "offset": 0,
        "slot": "201",
        "type": "t_bool"
      },
      {
        "astId": 3276,
        "contract": "contracts/protocol/core/GoldfinchConfig.sol:GoldfinchConfig",
        "label": "__gap",
        "offset": 0,
        "slot": "202",
        "type": "t_array(t_uint256)49_storage"
      },
      {
        "astId": 15216,
        "contract": "contracts/protocol/core/GoldfinchConfig.sol:GoldfinchConfig",
        "label": "__gap1",
        "offset": 0,
        "slot": "251",
        "type": "t_array(t_uint256)50_storage"
      },
      {
        "astId": 15220,
        "contract": "contracts/protocol/core/GoldfinchConfig.sol:GoldfinchConfig",
        "label": "__gap2",
        "offset": 0,
        "slot": "301",
        "type": "t_array(t_uint256)50_storage"
      },
      {
        "astId": 15224,
        "contract": "contracts/protocol/core/GoldfinchConfig.sol:GoldfinchConfig",
        "label": "__gap3",
        "offset": 0,
        "slot": "351",
        "type": "t_array(t_uint256)50_storage"
      },
      {
        "astId": 15228,
        "contract": "contracts/protocol/core/GoldfinchConfig.sol:GoldfinchConfig",
        "label": "__gap4",
        "offset": 0,
        "slot": "401",
        "type": "t_array(t_uint256)50_storage"
      },
      {
        "astId": 18534,
        "contract": "contracts/protocol/core/GoldfinchConfig.sol:GoldfinchConfig",
        "label": "addresses",
        "offset": 0,
        "slot": "451",
        "type": "t_mapping(t_uint256,t_address)"
      },
      {
        "astId": 18538,
        "contract": "contracts/protocol/core/GoldfinchConfig.sol:GoldfinchConfig",
        "label": "numbers",
        "offset": 0,
        "slot": "452",
        "type": "t_mapping(t_uint256,t_uint256)"
      },
      {
        "astId": 18542,
        "contract": "contracts/protocol/core/GoldfinchConfig.sol:GoldfinchConfig",
        "label": "goList",
        "offset": 0,
        "slot": "453",
        "type": "t_mapping(t_address,t_bool)"
      },
      {
        "astId": 18572,
        "contract": "contracts/protocol/core/GoldfinchConfig.sol:GoldfinchConfig",
        "label": "valuesInitialized",
        "offset": 0,
        "slot": "454",
        "type": "t_bool"
      }
    ],
    "types": {
      "t_address": {
        "encoding": "inplace",
        "label": "address",
        "numberOfBytes": "20"
      },
      "t_array(t_bytes32)dyn_storage": {
        "base": "t_bytes32",
        "encoding": "dynamic_array",
        "label": "bytes32[]",
        "numberOfBytes": "32"
      },
      "t_array(t_uint256)49_storage": {
        "base": "t_uint256",
        "encoding": "inplace",
        "label": "uint256[49]",
        "numberOfBytes": "1568"
      },
      "t_array(t_uint256)50_storage": {
        "base": "t_uint256",
        "encoding": "inplace",
        "label": "uint256[50]",
        "numberOfBytes": "1600"
      },
      "t_bool": {
        "encoding": "inplace",
        "label": "bool",
        "numberOfBytes": "1"
      },
      "t_bytes32": {
        "encoding": "inplace",
        "label": "bytes32",
        "numberOfBytes": "32"
      },
      "t_mapping(t_address,t_bool)": {
        "encoding": "mapping",
        "key": "t_address",
        "label": "mapping(address => bool)",
        "numberOfBytes": "32",
        "value": "t_bool"
      },
      "t_mapping(t_bytes32,t_struct(RoleData)159_storage)": {
        "encoding": "mapping",
        "key": "t_bytes32",
        "label": "mapping(bytes32 => struct AccessControlUpgradeSafe.RoleData)",
        "numberOfBytes": "32",
        "value": "t_struct(RoleData)159_storage"
      },
      "t_mapping(t_bytes32,t_uint256)": {
        "encoding": "mapping",
        "key": "t_bytes32",
        "label": "mapping(bytes32 => uint256)",
        "numberOfBytes": "32",
        "value": "t_uint256"
      },
      "t_mapping(t_uint256,t_address)": {
        "encoding": "mapping",
        "key": "t_uint256",
        "label": "mapping(uint256 => address)",
        "numberOfBytes": "32",
        "value": "t_address"
      },
      "t_mapping(t_uint256,t_uint256)": {
        "encoding": "mapping",
        "key": "t_uint256",
        "label": "mapping(uint256 => uint256)",
        "numberOfBytes": "32",
        "value": "t_uint256"
      },
      "t_struct(AddressSet)2912_storage": {
        "encoding": "inplace",
        "label": "struct EnumerableSet.AddressSet",
        "members": [
          {
            "astId": 2911,
            "contract": "contracts/protocol/core/GoldfinchConfig.sol:GoldfinchConfig",
            "label": "_inner",
            "offset": 0,
            "slot": "0",
            "type": "t_struct(Set)2732_storage"
          }
        ],
        "numberOfBytes": "64"
      },
      "t_struct(RoleData)159_storage": {
        "encoding": "inplace",
        "label": "struct AccessControlUpgradeSafe.RoleData",
        "members": [
          {
            "astId": 156,
            "contract": "contracts/protocol/core/GoldfinchConfig.sol:GoldfinchConfig",
            "label": "members",
            "offset": 0,
            "slot": "0",
            "type": "t_struct(AddressSet)2912_storage"
          },
          {
            "astId": 158,
            "contract": "contracts/protocol/core/GoldfinchConfig.sol:GoldfinchConfig",
            "label": "adminRole",
            "offset": 0,
            "slot": "2",
            "type": "t_bytes32"
          }
        ],
        "numberOfBytes": "96"
      },
      "t_struct(Set)2732_storage": {
        "encoding": "inplace",
        "label": "struct EnumerableSet.Set",
        "members": [
          {
            "astId": 2727,
            "contract": "contracts/protocol/core/GoldfinchConfig.sol:GoldfinchConfig",
            "label": "_values",
            "offset": 0,
            "slot": "0",
            "type": "t_array(t_bytes32)dyn_storage"
          },
          {
            "astId": 2731,
            "contract": "contracts/protocol/core/GoldfinchConfig.sol:GoldfinchConfig",
            "label": "_indexes",
            "offset": 0,
            "slot": "1",
            "type": "t_mapping(t_bytes32,t_uint256)"
          }
        ],
        "numberOfBytes": "64"
      },
      "t_uint256": {
        "encoding": "inplace",
        "label": "uint256",
        "numberOfBytes": "32"
      }
    }
  }
}