{
  "address": "0x68008e79eEE041529725dd519272376cE7e38830",
  "abi": [
    {
      "anonymous": false,
      "inputs": [
        {
          "indexed": false,
          "internalType": "address",
          "name": "owner",
          "type": "address"
        },
        {
          "indexed": false,
          "internalType": "uint256",
          "name": "index",
          "type": "uint256"
        },
        {
          "indexed": false,
          "internalType": "address",
          "name": "oldValue",
          "type": "address"
        },
        {
          "indexed": false,
          "internalType": "address",
          "name": "newValue",
          "type": "address"
        }
      ],
      "name": "AddressUpdated",
      "type": "event"
    },
    {
      "anonymous": false,
      "inputs": [
        {
          "indexed": true,
          "internalType": "address",
          "name": "member",
          "type": "address"
        }
      ],
      "name": "GoListed",
      "type": "event"
    },
    {
      "anonymous": false,
      "inputs": [
        {
          "indexed": true,
          "internalType": "address",
          "name": "member",
          "type": "address"
        }
      ],
      "name": "NoListed",
      "type": "event"
    },
    {
      "anonymous": false,
      "inputs": [
        {
          "indexed": false,
          "internalType": "address",
          "name": "owner",
          "type": "address"
        },
        {
          "indexed": false,
          "internalType": "uint256",
          "name": "index",
          "type": "uint256"
        },
        {
          "indexed": false,
          "internalType": "uint256",
          "name": "oldValue",
          "type": "uint256"
        },
        {
          "indexed": false,
          "internalType": "uint256",
          "name": "newValue",
          "type": "uint256"
        }
      ],
      "name": "NumberUpdated",
      "type": "event"
    },
    {
      "anonymous": false,
      "inputs": [
        {
          "indexed": false,
          "internalType": "address",
          "name": "account",
          "type": "address"
        }
      ],
      "name": "Paused",
      "type": "event"
    },
    {
      "anonymous": false,
      "inputs": [
        {
          "indexed": true,
          "internalType": "bytes32",
          "name": "role",
          "type": "bytes32"
        },
        {
          "indexed": true,
          "internalType": "address",
          "name": "account",
          "type": "address"
        },
        {
          "indexed": true,
          "internalType": "address",
          "name": "sender",
          "type": "address"
        }
      ],
      "name": "RoleGranted",
      "type": "event"
    },
    {
      "anonymous": false,
      "inputs": [
        {
          "indexed": true,
          "internalType": "bytes32",
          "name": "role",
          "type": "bytes32"
        },
        {
          "indexed": true,
          "internalType": "address",
          "name": "account",
          "type": "address"
        },
        {
          "indexed": true,
          "internalType": "address",
          "name": "sender",
          "type": "address"
        }
      ],
      "name": "RoleRevoked",
      "type": "event"
    },
    {
      "anonymous": false,
      "inputs": [
        {
          "indexed": false,
          "internalType": "address",
          "name": "account",
          "type": "address"
        }
      ],
      "name": "Unpaused",
      "type": "event"
    },
    {
      "inputs": [],
      "name": "DEFAULT_ADMIN_ROLE",
      "outputs": [
        {
          "internalType": "bytes32",
          "name": "",
          "type": "bytes32"
        }
      ],
      "stateMutability": "view",
      "type": "function"
    },
    {
      "inputs": [],
      "name": "GO_LISTER_ROLE",
      "outputs": [
        {
          "internalType": "bytes32",
          "name": "",
          "type": "bytes32"
        }
      ],
      "stateMutability": "view",
      "type": "function"
    },
    {
      "inputs": [],
      "name": "OWNER_ROLE",
      "outputs": [
        {
          "internalType": "bytes32",
          "name": "",
          "type": "bytes32"
        }
      ],
      "stateMutability": "view",
      "type": "function"
    },
    {
      "inputs": [],
      "name": "PAUSER_ROLE",
      "outputs": [
        {
          "internalType": "bytes32",
          "name": "",
          "type": "bytes32"
        }
      ],
      "stateMutability": "view",
      "type": "function"
    },
    {
      "inputs": [
        {
          "internalType": "address",
          "name": "owner",
          "type": "address"
        }
      ],
      "name": "__BaseUpgradeablePausable__init",
      "outputs": [],
      "stateMutability": "nonpayable",
      "type": "function"
    },
    {
      "inputs": [],
      "name": "__PauserPausable__init",
      "outputs": [],
      "stateMutability": "nonpayable",
      "type": "function"
    },
    {
      "inputs": [
        {
          "internalType": "address",
          "name": "_member",
          "type": "address"
        }
      ],
      "name": "addToGoList",
      "outputs": [],
      "stateMutability": "nonpayable",
      "type": "function"
    },
    {
      "inputs": [
        {
          "internalType": "uint256",
          "name": "",
          "type": "uint256"
        }
      ],
      "name": "addresses",
      "outputs": [
        {
          "internalType": "address",
          "name": "",
          "type": "address"
        }
      ],
      "stateMutability": "view",
      "type": "function"
    },
    {
      "inputs": [
        {
          "internalType": "address[]",
          "name": "_members",
          "type": "address[]"
        }
      ],
      "name": "bulkAddToGoList",
      "outputs": [],
      "stateMutability": "nonpayable",
      "type": "function"
    },
    {
      "inputs": [
        {
          "internalType": "address[]",
          "name": "_members",
          "type": "address[]"
        }
      ],
      "name": "bulkRemoveFromGoList",
      "outputs": [],
      "stateMutability": "nonpayable",
      "type": "function"
    },
    {
      "inputs": [
        {
          "internalType": "uint256",
          "name": "index",
          "type": "uint256"
        }
      ],
      "name": "getAddress",
      "outputs": [
        {
          "internalType": "address",
          "name": "",
          "type": "address"
        }
      ],
      "stateMutability": "view",
      "type": "function"
    },
    {
      "inputs": [
        {
          "internalType": "uint256",
          "name": "index",
          "type": "uint256"
        }
      ],
      "name": "getNumber",
      "outputs": [
        {
          "internalType": "uint256",
          "name": "",
          "type": "uint256"
        }
      ],
      "stateMutability": "view",
      "type": "function"
    },
    {
      "inputs": [
        {
          "internalType": "bytes32",
          "name": "role",
          "type": "bytes32"
        }
      ],
      "name": "getRoleAdmin",
      "outputs": [
        {
          "internalType": "bytes32",
          "name": "",
          "type": "bytes32"
        }
      ],
      "stateMutability": "view",
      "type": "function"
    },
    {
      "inputs": [
        {
          "internalType": "bytes32",
          "name": "role",
          "type": "bytes32"
        },
        {
          "internalType": "uint256",
          "name": "index",
          "type": "uint256"
        }
      ],
      "name": "getRoleMember",
      "outputs": [
        {
          "internalType": "address",
          "name": "",
          "type": "address"
        }
      ],
      "stateMutability": "view",
      "type": "function"
    },
    {
      "inputs": [
        {
          "internalType": "bytes32",
          "name": "role",
          "type": "bytes32"
        }
      ],
      "name": "getRoleMemberCount",
      "outputs": [
        {
          "internalType": "uint256",
          "name": "",
          "type": "uint256"
        }
      ],
      "stateMutability": "view",
      "type": "function"
    },
    {
      "inputs": [
        {
          "internalType": "address",
          "name": "",
          "type": "address"
        }
      ],
      "name": "goList",
      "outputs": [
        {
          "internalType": "bool",
          "name": "",
          "type": "bool"
        }
      ],
      "stateMutability": "view",
      "type": "function"
    },
    {
      "inputs": [
        {
          "internalType": "bytes32",
          "name": "role",
          "type": "bytes32"
        },
        {
          "internalType": "address",
          "name": "account",
          "type": "address"
        }
      ],
      "name": "grantRole",
      "outputs": [],
      "stateMutability": "nonpayable",
      "type": "function"
    },
    {
      "inputs": [
        {
          "internalType": "bytes32",
          "name": "role",
          "type": "bytes32"
        },
        {
          "internalType": "address",
          "name": "account",
          "type": "address"
        }
      ],
      "name": "hasRole",
      "outputs": [
        {
          "internalType": "bool",
          "name": "",
          "type": "bool"
        }
      ],
      "stateMutability": "view",
      "type": "function"
    },
    {
      "inputs": [
        {
          "internalType": "address",
          "name": "owner",
          "type": "address"
        }
      ],
      "name": "initialize",
      "outputs": [],
      "stateMutability": "nonpayable",
      "type": "function"
    },
    {
      "inputs": [
        {
          "internalType": "address",
          "name": "_initialConfig",
          "type": "address"
        },
        {
          "internalType": "uint256",
          "name": "numbersLength",
          "type": "uint256"
        },
        {
          "internalType": "uint256",
          "name": "addressesLength",
          "type": "uint256"
        }
      ],
      "name": "initializeFromOtherConfig",
      "outputs": [],
      "stateMutability": "nonpayable",
      "type": "function"
    },
    {
      "inputs": [],
      "name": "isAdmin",
      "outputs": [
        {
          "internalType": "bool",
          "name": "",
          "type": "bool"
        }
      ],
      "stateMutability": "view",
      "type": "function"
    },
    {
      "inputs": [
        {
          "internalType": "uint256",
          "name": "",
          "type": "uint256"
        }
      ],
      "name": "numbers",
      "outputs": [
        {
          "internalType": "uint256",
          "name": "",
          "type": "uint256"
        }
      ],
      "stateMutability": "view",
      "type": "function"
    },
    {
      "inputs": [],
      "name": "pause",
      "outputs": [],
      "stateMutability": "nonpayable",
      "type": "function"
    },
    {
      "inputs": [],
      "name": "paused",
      "outputs": [
        {
          "internalType": "bool",
          "name": "",
          "type": "bool"
        }
      ],
      "stateMutability": "view",
      "type": "function"
    },
    {
      "inputs": [
        {
          "internalType": "address",
          "name": "_member",
          "type": "address"
        }
      ],
      "name": "removeFromGoList",
      "outputs": [],
      "stateMutability": "nonpayable",
      "type": "function"
    },
    {
      "inputs": [
        {
          "internalType": "bytes32",
          "name": "role",
          "type": "bytes32"
        },
        {
          "internalType": "address",
          "name": "account",
          "type": "address"
        }
      ],
      "name": "renounceRole",
      "outputs": [],
      "stateMutability": "nonpayable",
      "type": "function"
    },
    {
      "inputs": [
        {
          "internalType": "bytes32",
          "name": "role",
          "type": "bytes32"
        },
        {
          "internalType": "address",
          "name": "account",
          "type": "address"
        }
      ],
      "name": "revokeRole",
      "outputs": [],
      "stateMutability": "nonpayable",
      "type": "function"
    },
    {
      "inputs": [
        {
          "internalType": "uint256",
          "name": "addressIndex",
          "type": "uint256"
        },
        {
          "internalType": "address",
          "name": "newAddress",
          "type": "address"
        }
      ],
      "name": "setAddress",
      "outputs": [],
      "stateMutability": "nonpayable",
      "type": "function"
    },
    {
      "inputs": [
        {
          "internalType": "address",
          "name": "newAddress",
          "type": "address"
        }
      ],
      "name": "setBorrowerImplementation",
      "outputs": [],
      "stateMutability": "nonpayable",
      "type": "function"
    },
    {
      "inputs": [
        {
          "internalType": "address",
          "name": "newAddress",
          "type": "address"
        }
      ],
      "name": "setCreditLineImplementation",
      "outputs": [],
      "stateMutability": "nonpayable",
      "type": "function"
    },
    {
      "inputs": [
        {
          "internalType": "address",
          "name": "newAddress",
          "type": "address"
        }
      ],
      "name": "setGoldfinchConfig",
      "outputs": [],
      "stateMutability": "nonpayable",
      "type": "function"
    },
    {
      "inputs": [
        {
          "internalType": "address",
          "name": "newAddress",
          "type": "address"
        }
      ],
      "name": "setMonthlyScheduleRepo",
      "outputs": [],
      "stateMutability": "nonpayable",
      "type": "function"
    },
    {
      "inputs": [
        {
          "internalType": "uint256",
          "name": "index",
          "type": "uint256"
        },
        {
          "internalType": "uint256",
          "name": "newNumber",
          "type": "uint256"
        }
      ],
      "name": "setNumber",
      "outputs": [],
      "stateMutability": "nonpayable",
      "type": "function"
    },
    {
      "inputs": [
        {
          "internalType": "address",
          "name": "newStrategy",
          "type": "address"
        }
      ],
      "name": "setSeniorPoolStrategy",
      "outputs": [],
      "stateMutability": "nonpayable",
      "type": "function"
    },
    {
      "inputs": [
        {
          "internalType": "address",
          "name": "newAddress",
          "type": "address"
        }
      ],
      "name": "setTranchedPoolImplementation",
      "outputs": [],
      "stateMutability": "nonpayable",
      "type": "function"
    },
    {
      "inputs": [
        {
          "internalType": "address",
          "name": "newTreasuryReserve",
          "type": "address"
        }
      ],
      "name": "setTreasuryReserve",
      "outputs": [],
      "stateMutability": "nonpayable",
      "type": "function"
    },
    {
      "inputs": [],
      "name": "unpause",
      "outputs": [],
      "stateMutability": "nonpayable",
      "type": "function"
    },
    {
      "inputs": [],
      "name": "valuesInitialized",
      "outputs": [
        {
          "internalType": "bool",
          "name": "",
          "type": "bool"
        }
      ],
      "stateMutability": "view",
      "type": "function"
    }
  ],
  "transactionHash": "0x550353fa0f1071d100ccccd6eacf1a99ed3508f230d9c0a5366dc315b222227e",
  "args": [],
  "numDeployments": 3,
  "solcInputHash": "037931358a02360a4927a740cc7df37a",
  "bytecode": "0x608060405234801561001057600080fd5b50611b8b806100206000396000f3fe608060405234801561001057600080fd5b50600436106102125760003560e01c8063a217fddf11610120578063d39fa233116100b8578063e861e9561161007c578063e861e9561461044e578063edf26d9b14610461578063f6b205e514610474578063fc56365814610487578063fdf4a2ea1461049a57610212565b8063d39fa23314610405578063d547741f14610418578063d9abc9f41461042b578063e58378bb1461043e578063e63ab1e91461044657610212565b8063a217fddf1461037b578063ac4ce2c614610383578063ad5a35e314610396578063b6db75a0146103a9578063b93f9b0a146103b1578063bc9d1764146103c4578063c4d66de8146103d7578063ca15c873146103ea578063d2133c8f146103fd57610212565b806357337adb116101ae5780636b19e8c7116101725780636b19e8c71461031a57806377134cdf1461032d5780638456cb59146103405780639010d07c1461034857806391d148541461036857610212565b806357337adb146102c45780635b51277b146102d75780635c949057146102df5780635c975abb146102f25780635f7c0e5d1461030757610212565b8063097616a314610217578063178a99ae1461022c5780631e7213cf1461023f578063248a9ca314610252578063249e25431461027b5780632f2ff15d1461028e57806336568abe146102a15780633f4ba83a146102b4578063526d81f6146102bc575b600080fd5b61022a610225366004611592565b6104ad565b005b61022a61023a366004611605565b6105e6565b61022a61024d366004611592565b610658565b610265610260366004611674565b61070a565b6040516102729190611764565b60405180910390f35b61022a6102893660046115d1565b61071f565b61022a61029c36600461168c565b6108be565b61022a6102af36600461168c565b610902565b61022a610944565b61022a610984565b61022a6102d2366004611592565b610a0f565b610265610a3c565b61022a6102ed366004611592565b610a4e565b6102fa610ace565b6040516102729190611759565b61022a610315366004611592565b610ad7565b61022a6103283660046116bb565b610b5a565b61022a61033b366004611605565b610bde565b61022a610c4b565b61035b6103563660046116bb565b610c89565b60405161027291906116f4565b6102fa61037636600461168c565b610caa565b610265610cc2565b61022a61039136600461168c565b610cc7565b6102fa6103a4366004611592565b610da9565b6102fa610dbf565b61035b6103bf366004611674565b610de0565b61022a6103d2366004611592565b610dfc565b61022a6103e5366004611592565b610e29565b6102656103f8366004611674565b610f04565b6102fa610f1b565b610265610413366004611674565b610f25565b61022a61042636600461168c565b610f38565b61022a610439366004611592565b610f72565b610265610f9f565b610265610fb1565b61022a61045c366004611592565b610fc3565b61035b61046f366004611674565b610ff0565b61022a610482366004611592565b61100c565b610265610495366004611674565b611039565b61022a6104a8366004611592565b61104c565b600054610100900460ff16806104c657506104c6611079565b806104d4575060005460ff16155b6104f95760405162461bcd60e51b81526004016104f090611998565b60405180910390fd5b600054610100900460ff16158015610524576000805460ff1961ff0019909116610100171660011790555b6001600160a01b03821661054a5760405162461bcd60e51b81526004016104f0906118dd565b61055261107f565b61055a611100565b61056261118c565b61057a600080516020611af6833981519152836108f8565b610592600080516020611b16833981519152836108f8565b6105b8600080516020611b16833981519152600080516020611af683398151915261121b565b6105d0600080516020611af68339815191528061121b565b80156105e2576000805461ff00191690555b5050565b610600600080516020611b36833981519152610376611230565b61061c5760405162461bcd60e51b81526004016104f090611949565b60005b818110156106535761064b83838381811061063657fe5b90506020020160208101906103159190611592565b60010161061f565b505050565b610660610dbf565b61067c5760405162461bcd60e51b81526004016104f090611a46565b600060015b60008181526101c36020526040908190205490519192507faebfad0d8db62d5b2e540f64d7c2be34ded04171b48ed6655286c392a879bf6c916106d391339185916001600160a01b0316908790611708565b60405180910390a160009081526101c36020526040902080546001600160a01b0319166001600160a01b0392909216919091179055565b60009081526065602052604090206002015490565b610727610dbf565b6107435760405162461bcd60e51b81526004016104f090611a46565b6101c65460ff16156107675760405162461bcd60e51b81526004016104f090611912565b8260005b838110156107fb576107f381836001600160a01b031663fc563658846040518263ffffffff1660e01b81526004016107a39190611764565b60206040518083038186803b1580156107bb57600080fd5b505afa1580156107cf573d6000803e3d6000fd5b505050506040513d601f19601f8201168201806040525081019061032891906116dc565b60010161076b565b5060005b828110156108a957600061081282610de0565b6001600160a01b031614156108a1576108a181836001600160a01b031663b93f9b0a846040518263ffffffff1660e01b81526004016108519190611764565b60206040518083038186803b15801561086957600080fd5b505afa15801561087d573d6000803e3d6000fd5b505050506040513d601f19601f8201168201806040525081019061039191906115b5565b6001016107ff565b50506101c6805460ff19166001179055505050565b6000828152606560205260409020600201546108dc90610376611230565b6108f85760405162461bcd60e51b81526004016104f0906117af565b6105e28282611234565b61090a611230565b6001600160a01b0316816001600160a01b03161461093a5760405162461bcd60e51b81526004016104f090611a91565b6105e2828261129d565b61095e600080516020611b16833981519152610376611230565b61097a5760405162461bcd60e51b81526004016104f0906119e6565b610982611306565b565b600054610100900460ff168061099d575061099d611079565b806109ab575060005460ff16155b6109c75760405162461bcd60e51b81526004016104f090611998565b600054610100900460ff161580156109f2576000805460ff1961ff0019909116610100171660011790555b6109fa611100565b8015610a0c576000805461ff00191690555b50565b610a17610dbf565b610a335760405162461bcd60e51b81526004016104f090611a46565b60006006610681565b600080516020611b3683398151915281565b610a68600080516020611b36833981519152610376611230565b610a845760405162461bcd60e51b81526004016104f090611949565b6001600160a01b03811660008181526101c56020526040808220805460ff19169055517f8975df3325e4d0a8fdefaff900160c197e34acf82b6db814c02509bdf218cf609190a250565b60975460ff1690565b610af1600080516020611b36833981519152610376611230565b610b0d5760405162461bcd60e51b81526004016104f090611949565b6001600160a01b03811660008181526101c56020526040808220805460ff19166001179055517f6ea07fa01118ee7113c6c1f1cfc6778df228949052175f938d8154739d5e897c9190a250565b610b62610dbf565b610b7e5760405162461bcd60e51b81526004016104f090611a46565b60008281526101c46020526040908190205490517f6b54a1d7321bc1699c15f7f585030864b02ca971590f31de4acbb60eff0758c091610bc391339186918690611733565b60405180910390a160009182526101c4602052604090912055565b610bf8600080516020611b36833981519152610376611230565b610c145760405162461bcd60e51b81526004016104f090611949565b60005b8181101561065357610c43838383818110610c2e57fe5b90506020020160208101906102ed9190611592565b600101610c17565b610c65600080516020611b16833981519152610376611230565b610c815760405162461bcd60e51b81526004016104f0906119e6565b610982611372565b6000828152606560205260408120610ca190836113cb565b90505b92915050565b6000828152606560205260408120610ca190836113d7565b600081565b610ccf610dbf565b610ceb5760405162461bcd60e51b81526004016104f090611a46565b60008281526101c360205260409020546001600160a01b031615610d215760405162461bcd60e51b81526004016104f090611a02565b60008281526101c36020526040908190205490517faebfad0d8db62d5b2e540f64d7c2be34ded04171b48ed6655286c392a879bf6c91610d7291339186916001600160a01b03909116908690611708565b60405180910390a160009182526101c3602052604090912080546001600160a01b0319166001600160a01b03909216919091179055565b6101c56020526000908152604090205460ff1681565b6000610ddb600080516020611af6833981519152610376611230565b905090565b60009081526101c360205260409020546001600160a01b031690565b610e04610dbf565b610e205760405162461bcd60e51b81526004016104f090611a46565b6000600b610681565b600054610100900460ff1680610e425750610e42611079565b80610e50575060005460ff16155b610e6c5760405162461bcd60e51b81526004016104f090611998565b600054610100900460ff16158015610e97576000805460ff1961ff0019909116610100171660011790555b6001600160a01b038216610ebd5760405162461bcd60e51b81526004016104f09061182c565b610ec6826104ad565b610ede600080516020611b36833981519152836108f8565b6105d0600080516020611b36833981519152600080516020611af683398151915261121b565b6000818152606560205260408120610ca4906113ec565b6101c65460ff1681565b6101c46020526000908152604090205481565b600082815260656020526040902060020154610f5690610376611230565b61093a5760405162461bcd60e51b81526004016104f090611863565b610f7a610dbf565b610f965760405162461bcd60e51b81526004016104f090611a46565b60006019610681565b600080516020611af683398151915281565b600080516020611b1683398151915281565b610fcb610dbf565b610fe75760405162461bcd60e51b81526004016104f090611a46565b60006011610681565b6101c3602052600090815260409020546001600160a01b031681565b611014610dbf565b6110305760405162461bcd60e51b81526004016104f090611a46565b6000600f610681565b60009081526101c4602052604090205490565b611054610dbf565b6110705760405162461bcd60e51b81526004016104f090611a46565b6000600d610681565b303b1590565b600054610100900460ff16806110985750611098611079565b806110a6575060005460ff16155b6110c25760405162461bcd60e51b81526004016104f090611998565b600054610100900460ff161580156109fa576000805460ff1961ff0019909116610100171660011790558015610a0c576000805461ff001916905550565b600054610100900460ff16806111195750611119611079565b80611127575060005460ff16155b6111435760405162461bcd60e51b81526004016104f090611998565b600054610100900460ff1615801561116e576000805460ff1961ff0019909116610100171660011790555b6097805460ff191690558015610a0c576000805461ff001916905550565b600054610100900460ff16806111a557506111a5611079565b806111b3575060005460ff16155b6111cf5760405162461bcd60e51b81526004016104f090611998565b600054610100900460ff161580156111fa576000805460ff1961ff0019909116610100171660011790555b60c9805460ff191660011790558015610a0c576000805461ff001916905550565b60009182526065602052604090912060020155565b3390565b600082815260656020526040902061124c90826113f7565b156105e257611259611230565b6001600160a01b0316816001600160a01b0316837f2f8788117e7eff1d82e926ec794901d17c78024a50270940304540a733656f0d60405160405180910390a45050565b60008281526065602052604090206112b5908261140c565b156105e2576112c2611230565b6001600160a01b0316816001600160a01b0316837ff6391f5c32d9c69d2a47ea670b442974b53935d1edc7fd64eb21e047a839171b60405160405180910390a45050565b60975460ff166113285760405162461bcd60e51b81526004016104f0906117fe565b6097805460ff191690557f5db9ee0a495bf2e6ff9c91a7834c1ba4fdd244a5e8aa4e537bd38aeae4b073aa61135b611230565b60405161136891906116f4565b60405180910390a1565b60975460ff16156113955760405162461bcd60e51b81526004016104f0906118b3565b6097805460ff191660011790557f62e78cea01bee320cd4e420270b5ea74000d11b0c9f74754ebdbfc544b05a25861135b611230565b6000610ca18383611421565b6000610ca1836001600160a01b038416611466565b6000610ca48261147e565b6000610ca1836001600160a01b038416611482565b6000610ca1836001600160a01b0384166114cc565b815460009082106114445760405162461bcd60e51b81526004016104f09061176d565b82600001828154811061145357fe5b9060005260206000200154905092915050565b60009081526001919091016020526040902054151590565b5490565b600061148e8383611466565b6114c457508154600181810184556000848152602080822090930184905584548482528286019093526040902091909155610ca4565b506000610ca4565b6000818152600183016020526040812054801561158857835460001980830191908101906000908790839081106114ff57fe5b906000526020600020015490508087600001848154811061151c57fe5b60009182526020808320909101929092558281526001898101909252604090209084019055865487908061154c57fe5b60019003818190600052602060002001600090559055866001016000878152602001908152602001600020600090556001945050505050610ca4565b6000915050610ca4565b6000602082840312156115a3578081fd5b81356115ae81611ae0565b9392505050565b6000602082840312156115c6578081fd5b81516115ae81611ae0565b6000806000606084860312156115e5578182fd5b83356115f081611ae0565b95602085013595506040909401359392505050565b60008060208385031215611617578182fd5b823567ffffffffffffffff8082111561162e578384fd5b818501915085601f830112611641578384fd5b81358181111561164f578485fd5b8660208083028501011115611662578485fd5b60209290920196919550909350505050565b600060208284031215611685578081fd5b5035919050565b6000806040838503121561169e578182fd5b8235915060208301356116b081611ae0565b809150509250929050565b600080604083850312156116cd578182fd5b50508035926020909101359150565b6000602082840312156116ed578081fd5b5051919050565b6001600160a01b0391909116815260200190565b6001600160a01b03948516815260208101939093529083166040830152909116606082015260800190565b6001600160a01b0394909416845260208401929092526040830152606082015260800190565b901515815260200190565b90815260200190565b60208082526022908201527f456e756d657261626c655365743a20696e646578206f7574206f6620626f756e604082015261647360f01b606082015260800190565b6020808252602f908201527f416363657373436f6e74726f6c3a2073656e646572206d75737420626520616e60408201526e0818591b5a5b881d1bc819dc985b9d608a1b606082015260800190565b60208082526014908201527314185d5cd8589b194e881b9bdd081c185d5cd95960621b604082015260600190565b6020808252601d908201527f4f776e657220616464726573732063616e6e6f7420626520656d707479000000604082015260600190565b60208082526030908201527f416363657373436f6e74726f6c3a2073656e646572206d75737420626520616e60408201526f2061646d696e20746f207265766f6b6560801b606082015260800190565b60208082526010908201526f14185d5cd8589b194e881c185d5cd95960821b604082015260600190565b6020808252818101527f4f776e65722063616e6e6f7420626520746865207a65726f2061646472657373604082015260600190565b6020808252601a908201527f416c726561647920696e697469616c697a65642076616c756573000000000000604082015260600190565b6020808252602f908201527f4d757374206861766520676f2d6c697374657220726f6c6520746f207065726660408201526e37b936903a3434b99030b1ba34b7b760891b606082015260800190565b6020808252602e908201527f436f6e747261637420696e7374616e63652068617320616c726561647920626560408201526d195b881a5b9a5d1a585b1a5e995960921b606082015260800190565b6020808252600290820152614e4160f01b604082015260600190565b60208082526024908201527f416464726573732068617320616c7265616479206265656e20696e697469616c6040820152631a5e995960e21b606082015260800190565b6020808252602b908201527f4d75737420686176652061646d696e20726f6c6520746f20706572666f726d2060408201526a3a3434b99030b1ba34b7b760a91b606082015260800190565b6020808252602f908201527f416363657373436f6e74726f6c3a2063616e206f6e6c792072656e6f756e636560408201526e103937b632b9903337b91039b2b63360891b606082015260800190565b6001600160a01b0381168114610a0c57600080fdfeb19546dff01e856fb3f010c267a7b1c60363cf8a4664e21cc89c26224620214e65d7a28e3265b37a6474929f336521b332c1681b933f6cb9f3376673440d862a4261c544cc1a84a4828404bd710bd4900df04736488a0f1af6a07d8ba25ece98a26469706673582212203aeaa1f7f1480aa1b0d3acc03185e738c07437a860f2288a2f16b4bc1a15425f64736f6c634300060c0033",
  "devdoc": {
    "author": "Goldfinch",
    "kind": "dev",
    "methods": {
      "addToGoList(address)": {
        "details": "Adds a user to go-list",
        "params": {
          "_member": "address to add to go-list"
        }
      },
      "bulkAddToGoList(address[])": {
        "details": "adds many users to go-list at once",
        "params": {
          "_members": "addresses to ad to go-list"
        }
      },
      "bulkRemoveFromGoList(address[])": {
        "details": "removes many users from go-list at once",
        "params": {
          "_members": "addresses to remove from go-list"
        }
      },
      "getRoleAdmin(bytes32)": {
        "details": "Returns the admin role that controls `role`. See {grantRole} and {revokeRole}. To change a role's admin, use {_setRoleAdmin}."
      },
      "getRoleMember(bytes32,uint256)": {
        "details": "Returns one of the accounts that have `role`. `index` must be a value between 0 and {getRoleMemberCount}, non-inclusive. Role bearers are not sorted in any particular way, and their ordering may change at any point. WARNING: When using {getRoleMember} and {getRoleMemberCount}, make sure you perform all queries on the same block. See the following https://forum.openzeppelin.com/t/iterating-over-elements-on-enumerableset-in-openzeppelin-contracts/2296[forum post] for more information."
      },
      "getRoleMemberCount(bytes32)": {
        "details": "Returns the number of accounts that have `role`. Can be used together with {getRoleMember} to enumerate all bearers of a role."
      },
      "grantRole(bytes32,address)": {
        "details": "Grants `role` to `account`. If `account` had not been already granted `role`, emits a {RoleGranted} event. Requirements: - the caller must have ``role``'s admin role."
      },
      "hasRole(bytes32,address)": {
        "details": "Returns `true` if `account` has been granted `role`."
      },
      "pause()": {
        "details": "Pauses all functions guarded by Pause See {Pausable-_pause}. Requirements: - the caller must have the PAUSER_ROLE."
      },
      "paused()": {
        "details": "Returns true if the contract is paused, and false otherwise."
      },
      "removeFromGoList(address)": {
        "details": "removes a user from go-list",
        "params": {
          "_member": "address to remove from go-list"
        }
      },
      "renounceRole(bytes32,address)": {
        "details": "Revokes `role` from the calling account. Roles are often managed via {grantRole} and {revokeRole}: this function's purpose is to provide a mechanism for accounts to lose their privileges if they are compromised (such as when a trusted device is misplaced). If the calling account had been granted `role`, emits a {RoleRevoked} event. Requirements: - the caller must be `account`."
      },
      "revokeRole(bytes32,address)": {
        "details": "Revokes `role` from `account`. If `account` had been granted `role`, emits a {RoleRevoked} event. Requirements: - the caller must have ``role``'s admin role."
      },
      "unpause()": {
        "details": "Unpauses the contract See {Pausable-_unpause}. Requirements: - the caller must have the Pauser role"
      }
    },
    "title": "GoldfinchConfig",
    "version": 1
  },
  "userdoc": {
    "kind": "user",
    "methods": {},
    "notice": "This contract stores mappings of useful \"protocol config state\", giving a central place  for all other contracts to access it. For example, the TransactionLimit, or the PoolAddress. These config vars  are enumerated in the `ConfigOptions` library, and can only be changed by admins of the protocol.",
    "version": 1
  },
  "storageLayout": {
    "storage": [
      {
        "astId": 50,
        "contract": "contracts/protocol/core/GoldfinchConfig.sol:GoldfinchConfig",
        "label": "initialized",
        "offset": 0,
        "slot": "0",
        "type": "t_bool"
      },
      {
        "astId": 53,
        "contract": "contracts/protocol/core/GoldfinchConfig.sol:GoldfinchConfig",
        "label": "initializing",
        "offset": 1,
        "slot": "0",
        "type": "t_bool"
      },
      {
        "astId": 118,
        "contract": "contracts/protocol/core/GoldfinchConfig.sol:GoldfinchConfig",
        "label": "______gap",
        "offset": 0,
        "slot": "1",
        "type": "t_array(t_uint256)50_storage"
      },
      {
        "astId": 43,
        "contract": "contracts/protocol/core/GoldfinchConfig.sol:GoldfinchConfig",
        "label": "__gap",
        "offset": 0,
        "slot": "51",
        "type": "t_array(t_uint256)50_storage"
      },
      {
        "astId": 163,
        "contract": "contracts/protocol/core/GoldfinchConfig.sol:GoldfinchConfig",
        "label": "_roles",
        "offset": 0,
        "slot": "101",
        "type": "t_mapping(t_bytes32,t_struct(RoleData)159_storage)"
      },
      {
        "astId": 408,
        "contract": "contracts/protocol/core/GoldfinchConfig.sol:GoldfinchConfig",
        "label": "__gap",
        "offset": 0,
        "slot": "102",
        "type": "t_array(t_uint256)49_storage"
      },
      {
        "astId": 3137,
        "contract": "contracts/protocol/core/GoldfinchConfig.sol:GoldfinchConfig",
        "label": "_paused",
        "offset": 0,
        "slot": "151",
        "type": "t_bool"
      },
      {
        "astId": 3226,
        "contract": "contracts/protocol/core/GoldfinchConfig.sol:GoldfinchConfig",
        "label": "__gap",
        "offset": 0,
        "slot": "152",
        "type": "t_array(t_uint256)49_storage"
      },
      {
        "astId": 3235,
        "contract": "contracts/protocol/core/GoldfinchConfig.sol:GoldfinchConfig",
        "label": "_notEntered",
        "offset": 0,
        "slot": "201",
        "type": "t_bool"
      },
      {
        "astId": 3276,
        "contract": "contracts/protocol/core/GoldfinchConfig.sol:GoldfinchConfig",
        "label": "__gap",
        "offset": 0,
        "slot": "202",
        "type": "t_array(t_uint256)49_storage"
      },
      {
        "astId": 15728,
        "contract": "contracts/protocol/core/GoldfinchConfig.sol:GoldfinchConfig",
        "label": "__gap1",
        "offset": 0,
        "slot": "251",
        "type": "t_array(t_uint256)50_storage"
      },
      {
        "astId": 15732,
        "contract": "contracts/protocol/core/GoldfinchConfig.sol:GoldfinchConfig",
        "label": "__gap2",
        "offset": 0,
        "slot": "301",
        "type": "t_array(t_uint256)50_storage"
      },
      {
        "astId": 15736,
        "contract": "contracts/protocol/core/GoldfinchConfig.sol:GoldfinchConfig",
        "label": "__gap3",
        "offset": 0,
        "slot": "351",
        "type": "t_array(t_uint256)50_storage"
      },
      {
        "astId": 15740,
        "contract": "contracts/protocol/core/GoldfinchConfig.sol:GoldfinchConfig",
        "label": "__gap4",
        "offset": 0,
        "slot": "401",
        "type": "t_array(t_uint256)50_storage"
      },
      {
        "astId": 19075,
        "contract": "contracts/protocol/core/GoldfinchConfig.sol:GoldfinchConfig",
        "label": "addresses",
        "offset": 0,
        "slot": "451",
        "type": "t_mapping(t_uint256,t_address)"
      },
      {
        "astId": 19079,
        "contract": "contracts/protocol/core/GoldfinchConfig.sol:GoldfinchConfig",
        "label": "numbers",
        "offset": 0,
        "slot": "452",
        "type": "t_mapping(t_uint256,t_uint256)"
      },
      {
        "astId": 19083,
        "contract": "contracts/protocol/core/GoldfinchConfig.sol:GoldfinchConfig",
        "label": "goList",
        "offset": 0,
        "slot": "453",
        "type": "t_mapping(t_address,t_bool)"
      },
      {
        "astId": 19113,
        "contract": "contracts/protocol/core/GoldfinchConfig.sol:GoldfinchConfig",
        "label": "valuesInitialized",
        "offset": 0,
        "slot": "454",
        "type": "t_bool"
      }
    ],
    "types": {
      "t_address": {
        "encoding": "inplace",
        "label": "address",
        "numberOfBytes": "20"
      },
      "t_array(t_bytes32)dyn_storage": {
        "base": "t_bytes32",
        "encoding": "dynamic_array",
        "label": "bytes32[]",
        "numberOfBytes": "32"
      },
      "t_array(t_uint256)49_storage": {
        "base": "t_uint256",
        "encoding": "inplace",
        "label": "uint256[49]",
        "numberOfBytes": "1568"
      },
      "t_array(t_uint256)50_storage": {
        "base": "t_uint256",
        "encoding": "inplace",
        "label": "uint256[50]",
        "numberOfBytes": "1600"
      },
      "t_bool": {
        "encoding": "inplace",
        "label": "bool",
        "numberOfBytes": "1"
      },
      "t_bytes32": {
        "encoding": "inplace",
        "label": "bytes32",
        "numberOfBytes": "32"
      },
      "t_mapping(t_address,t_bool)": {
        "encoding": "mapping",
        "key": "t_address",
        "label": "mapping(address => bool)",
        "numberOfBytes": "32",
        "value": "t_bool"
      },
      "t_mapping(t_bytes32,t_struct(RoleData)159_storage)": {
        "encoding": "mapping",
        "key": "t_bytes32",
        "label": "mapping(bytes32 => struct AccessControlUpgradeSafe.RoleData)",
        "numberOfBytes": "32",
        "value": "t_struct(RoleData)159_storage"
      },
      "t_mapping(t_bytes32,t_uint256)": {
        "encoding": "mapping",
        "key": "t_bytes32",
        "label": "mapping(bytes32 => uint256)",
        "numberOfBytes": "32",
        "value": "t_uint256"
      },
      "t_mapping(t_uint256,t_address)": {
        "encoding": "mapping",
        "key": "t_uint256",
        "label": "mapping(uint256 => address)",
        "numberOfBytes": "32",
        "value": "t_address"
      },
      "t_mapping(t_uint256,t_uint256)": {
        "encoding": "mapping",
        "key": "t_uint256",
        "label": "mapping(uint256 => uint256)",
        "numberOfBytes": "32",
        "value": "t_uint256"
      },
      "t_struct(AddressSet)2912_storage": {
        "encoding": "inplace",
        "label": "struct EnumerableSet.AddressSet",
        "members": [
          {
            "astId": 2911,
            "contract": "contracts/protocol/core/GoldfinchConfig.sol:GoldfinchConfig",
            "label": "_inner",
            "offset": 0,
            "slot": "0",
            "type": "t_struct(Set)2732_storage"
          }
        ],
        "numberOfBytes": "64"
      },
      "t_struct(RoleData)159_storage": {
        "encoding": "inplace",
        "label": "struct AccessControlUpgradeSafe.RoleData",
        "members": [
          {
            "astId": 156,
            "contract": "contracts/protocol/core/GoldfinchConfig.sol:GoldfinchConfig",
            "label": "members",
            "offset": 0,
            "slot": "0",
            "type": "t_struct(AddressSet)2912_storage"
          },
          {
            "astId": 158,
            "contract": "contracts/protocol/core/GoldfinchConfig.sol:GoldfinchConfig",
            "label": "adminRole",
            "offset": 0,
            "slot": "2",
            "type": "t_bytes32"
          }
        ],
        "numberOfBytes": "96"
      },
      "t_struct(Set)2732_storage": {
        "encoding": "inplace",
        "label": "struct EnumerableSet.Set",
        "members": [
          {
            "astId": 2727,
            "contract": "contracts/protocol/core/GoldfinchConfig.sol:GoldfinchConfig",
            "label": "_values",
            "offset": 0,
            "slot": "0",
            "type": "t_array(t_bytes32)dyn_storage"
          },
          {
            "astId": 2731,
            "contract": "contracts/protocol/core/GoldfinchConfig.sol:GoldfinchConfig",
            "label": "_indexes",
            "offset": 0,
            "slot": "1",
            "type": "t_mapping(t_bytes32,t_uint256)"
          }
        ],
        "numberOfBytes": "64"
      },
      "t_uint256": {
        "encoding": "inplace",
        "label": "uint256",
        "numberOfBytes": "32"
      }
    }
  }
}