{
  "address": "0x4083328Fa5f3Ab0b5C4Bf8a2919e47b35590476C",
  "abi": [
    {
      "inputs": [
        {
          "internalType": "contract Context",
          "name": "_context",
          "type": "address"
        }
      ],
      "stateMutability": "nonpayable",
      "type": "constructor"
    },
    {
      "inputs": [],
      "name": "InvalidAlphaDenominator",
      "type": "error"
    },
    {
      "inputs": [],
      "name": "InvalidAlphaGTE1",
      "type": "error"
    },
    {
      "inputs": [],
      "name": "InvalidAlphaNumerator",
      "type": "error"
    },
    {
      "inputs": [],
      "name": "InvalidAlphaUndefined",
      "type": "error"
    },
    {
      "inputs": [
        {
          "internalType": "address",
          "name": "resource",
          "type": "address"
        },
        {
          "internalType": "address",
          "name": "accessor",
          "type": "address"
        }
      ],
      "name": "RequiresOperator",
      "type": "error"
    },
    {
      "inputs": [],
      "name": "ZeroAddress",
      "type": "error"
    },
    {
      "inputs": [
        {
          "internalType": "address",
          "name": "addr",
          "type": "address"
        },
        {
          "internalType": "uint256",
          "name": "amount",
          "type": "uint256"
        }
      ],
      "name": "allocateRewardsTo",
      "outputs": [
        {
          "internalType": "uint256",
          "name": "rewards",
          "type": "uint256"
        }
      ],
      "stateMutability": "nonpayable",
      "type": "function"
    },
    {
      "inputs": [],
      "name": "alpha",
      "outputs": [
        {
          "internalType": "uint128",
          "name": "numerator",
          "type": "uint128"
        },
        {
          "internalType": "uint128",
          "name": "denominator",
          "type": "uint128"
        }
      ],
      "stateMutability": "view",
      "type": "function"
    },
    {
      "inputs": [
        {
          "internalType": "address",
          "name": "addr",
          "type": "address"
        }
      ],
      "name": "getPendingRewardsFor",
      "outputs": [
        {
          "internalType": "uint256",
          "name": "rewards",
          "type": "uint256"
        }
      ],
      "stateMutability": "view",
      "type": "function"
    },
    {
      "inputs": [],
      "name": "initialize",
      "outputs": [],
      "stateMutability": "nonpayable",
      "type": "function"
    },
    {
      "inputs": [
        {
          "internalType": "address",
          "name": "addr",
          "type": "address"
        }
      ],
      "name": "resetRewards",
      "outputs": [],
      "stateMutability": "nonpayable",
      "type": "function"
    },
    {
      "inputs": [
        {
          "internalType": "uint128",
          "name": "numerator",
          "type": "uint128"
        },
        {
          "internalType": "uint128",
          "name": "denominator",
          "type": "uint128"
        }
      ],
      "name": "setAlpha",
      "outputs": [],
      "stateMutability": "nonpayable",
      "type": "function"
    }
  ],
  "transactionHash": "0xd182f5a6e7813afd558e312bbfe0426d38407c6b542103ccff331facbaf31bf4",
  "args": [
    "0xd16BC944Bf20c86c4ED47Ce1a330a18538674C83"
  ],
  "solcInputHash": "eac65dc40e06b4b044f441f03029567a",
  "bytecode": "0x60a060405234801561001057600080fd5b5060405161086338038061086383398101604081905261002f91610040565b6001600160a01b0316608052610070565b60006020828403121561005257600080fd5b81516001600160a01b038116811461006957600080fd5b9392505050565b6080516107d161009260003960008181610249015261059701526107d16000f3fe608060405234801561001057600080fd5b50600436106100625760003560e01c80635aa0c7f8146100675780638129fc1c1461007c578063825a1b4614610084578063ab66f5fa14610097578063cafd9ae2146100bd578063db1d0fd5146100e6575b600080fd5b61007a6100753660046106a9565b610124565b005b61007a61016a565b61007a6100923660046106e9565b610244565b6100aa6100a536600461071c565b6103b4565b6040519081526020015b60405180910390f35b6100aa6100cb3660046106a9565b6001600160a01b031660009081526001602052604090205490565b600254610104906001600160801b0380821691600160801b90041682565b604080516001600160801b039384168152929091166020830152016100b4565b7f037db0999be9065c5f1306135b75a6ae2af104ed9f0d72669950e21e87a33f7661014f8133610430565b506001600160a01b0316600090815260016020526040812055565b600054610100900460ff1680610183575060005460ff16155b6101eb5760405162461bcd60e51b815260206004820152602e60248201527f496e697469616c697a61626c653a20636f6e747261637420697320616c72656160448201526d191e481a5b9a5d1a585b1a5e995960921b60648201526084015b60405180910390fd5b600054610100900460ff1615801561020d576000805461ffff19166101011790555b6040805180820190915260018152600260209091018190526001600160811b0190558015610241576000805461ff00191690555b50565b6102767f00000000000000000000000000000000000000000000000000000000000000006001600160a01b0316610493565b604051632a6e138b60e11b81523060048201523360248201526001600160a01b0391909116906354dc27169060440160006040518083038186803b1580156102bd57600080fd5b505afa1580156102d1573d6000803e3d6000fd5b505050506014826001600160801b03161015806102f557506001600160801b038216155b1561031357604051630a27eb2d60e41b815260040160405180910390fd5b6014816001600160801b0316118061033257506001600160801b038116155b156103505760405163220a631760e21b815260040160405180910390fd5b806001600160801b0316826001600160801b03161061038257604051630e563bc360e41b815260040160405180910390fd5b604080518082019091526001600160801b03928316808252919092166020909201829052600160801b90910217600255565b60007f037db0999be9065c5f1306135b75a6ae2af104ed9f0d72669950e21e87a33f766103e18133610430565b6001600160a01b03841660009081526001602052604081208054859290610409908490610748565b90915550506001600160a01b03841660009081526001602052604090205491505092915050565b6001600160a01b0381166104575760405163d92e233d60e01b815260040160405180910390fd5b6104618282610589565b61048f5760405163889a56bb60e01b81523060048201526001600160a01b03821660248201526044016101e2565b5050565b6000816001600160a01b031663f887ea406040518163ffffffff1660e01b8152600401602060405180830381865afa1580156104d3573d6000803e3d6000fd5b505050506040513d601f19601f820116820180604052508101906104f79190610769565b6001600160a01b0316630c0450127f9a671f6643eb8ac838fd3c79576dd800fe704b35ad30189c60f0f14dab948f2a6040518263ffffffff1660e01b81526004016105429190610786565b602060405180830381865afa15801561055f573d6000803e3d6000fd5b505050506040513d601f19601f820116820180604052508101906105839190610769565b92915050565b6000816001600160a01b03167f00000000000000000000000000000000000000000000000000000000000000006001600160a01b031663f887ea406040518163ffffffff1660e01b8152600401602060405180830381865afa1580156105f3573d6000803e3d6000fd5b505050506040513d601f19601f820116820180604052508101906106179190610769565b6001600160a01b0316630c045012856040518263ffffffff1660e01b81526004016106429190610786565b602060405180830381865afa15801561065f573d6000803e3d6000fd5b505050506040513d601f19601f820116820180604052508101906106839190610769565b6001600160a01b0316149392505050565b6001600160a01b038116811461024157600080fd5b6000602082840312156106bb57600080fd5b81356106c681610694565b9392505050565b80356001600160801b03811681146106e457600080fd5b919050565b600080604083850312156106fc57600080fd5b610705836106cd565b9150610713602084016106cd565b90509250929050565b6000806040838503121561072f57600080fd5b823561073a81610694565b946020939093013593505050565b8082018082111561058357634e487b7160e01b600052601160045260246000fd5b60006020828403121561077b57600080fd5b81516106c681610694565b6001600160e01b03199190911681526020019056fea2646970667358221220a28232078f2a701e1b4db773a07f4c6c092595e0ca444af0a8a15cc8fda02f5864736f6c63430008100033",
  "devdoc": {
    "kind": "dev",
    "methods": {
      "allocateRewardsTo(address,uint256)": {
        "params": {
          "addr": "address to distribute rewards to",
          "amount": "amount of rewards to allocate for `addr`"
        },
        "returns": {
          "rewards": "total allocated to `addr`"
        }
      },
      "getPendingRewardsFor(address)": {
        "params": {
          "addr": "the address to check pending rewards for"
        },
        "returns": {
          "rewards": "pending rewards for `addr`"
        }
      },
      "resetRewards(address)": {
        "params": {
          "addr": "address to reset rewards on"
        }
      },
      "setAlpha(uint128,uint128)": {
        "params": {
          "denominator": "the denominator of the fraction, must be in the range (0, 20] and greater than the numerator",
          "numerator": "the numerator of the fraction, must be in the range (0, 20)"
        }
      }
    },
    "version": 1
  },
  "userdoc": {
    "kind": "user",
    "methods": {
      "allocateRewardsTo(address,uint256)": {
        "notice": "Allocate `amount` rewards for `addr` but do not send them"
      },
      "alpha()": {
        "notice": "Alpha param for the cobb douglas function"
      },
      "constructor": {
        "notice": "Construct the contract"
      },
      "getPendingRewardsFor(address)": {
        "notice": "Get the rewards allocated to a certain `addr`"
      },
      "resetRewards(address)": {
        "notice": "Set `addr`s allocated rewards back to 0"
      },
      "setAlpha(uint128,uint128)": {
        "notice": "Set the alpha parameter used in the membership score formula. Alpha is defined as a fraction in  the range (0, 1) and constrained to (0,20) / (0,20], so a minimum of 1/20 and a maximum of 19/20."
      }
    },
    "version": 1
  },
  "storageLayout": {
    "storage": [
      {
        "astId": 663,
        "contract": "contracts/protocol/core/membership/MembershipLedger.sol:MembershipLedger",
        "label": "_initialized",
        "offset": 0,
        "slot": "0",
        "type": "t_bool"
      },
      {
        "astId": 666,
        "contract": "contracts/protocol/core/membership/MembershipLedger.sol:MembershipLedger",
        "label": "_initializing",
        "offset": 1,
        "slot": "0",
        "type": "t_bool"
      },
      {
        "astId": 13023,
        "contract": "contracts/protocol/core/membership/MembershipLedger.sol:MembershipLedger",
        "label": "allocatedRewards",
        "offset": 0,
        "slot": "1",
        "type": "t_mapping(t_address,t_uint256)"
      },
      {
        "astId": 13027,
        "contract": "contracts/protocol/core/membership/MembershipLedger.sol:MembershipLedger",
        "label": "alpha",
        "offset": 0,
        "slot": "2",
        "type": "t_struct(Fraction)13018_storage"
      }
    ],
    "types": {
      "t_address": {
        "encoding": "inplace",
        "label": "address",
        "numberOfBytes": "20"
      },
      "t_bool": {
        "encoding": "inplace",
        "label": "bool",
        "numberOfBytes": "1"
      },
      "t_mapping(t_address,t_uint256)": {
        "encoding": "mapping",
        "key": "t_address",
        "label": "mapping(address => uint256)",
        "numberOfBytes": "32",
        "value": "t_uint256"
      },
      "t_struct(Fraction)13018_storage": {
        "encoding": "inplace",
        "label": "struct MembershipLedger.Fraction",
        "members": [
          {
            "astId": 13015,
            "contract": "contracts/protocol/core/membership/MembershipLedger.sol:MembershipLedger",
            "label": "numerator",
            "offset": 0,
            "slot": "0",
            "type": "t_uint128"
          },
          {
            "astId": 13017,
            "contract": "contracts/protocol/core/membership/MembershipLedger.sol:MembershipLedger",
            "label": "denominator",
            "offset": 16,
            "slot": "0",
            "type": "t_uint128"
          }
        ],
        "numberOfBytes": "32"
      },
      "t_uint128": {
        "encoding": "inplace",
        "label": "uint128",
        "numberOfBytes": "16"
      },
      "t_uint256": {
        "encoding": "inplace",
        "label": "uint256",
        "numberOfBytes": "32"
      }
    }
  }
}