{
  "address": "0x49EaB7FF877201b6E9b20b535F0C647dbb989d63",
  "abi": [
    {
      "inputs": [
        {
          "internalType": "contract Context",
          "name": "_context",
          "type": "address"
        },
        {
          "internalType": "uint256",
          "name": "_firstRewardEpoch",
          "type": "uint256"
        }
      ],
      "stateMutability": "nonpayable",
      "type": "constructor"
    },
    {
      "inputs": [],
      "name": "InvalidReceiveCaller",
      "type": "error"
    },
    {
      "inputs": [
        {
          "internalType": "address",
          "name": "resource",
          "type": "address"
        },
        {
          "internalType": "address",
          "name": "accessor",
          "type": "address"
        }
      ],
      "name": "RequiresOperator",
      "type": "error"
    },
    {
      "inputs": [],
      "name": "ZeroAddress",
      "type": "error"
    },
    {
      "anonymous": false,
      "inputs": [
        {
          "indexed": true,
          "internalType": "uint256",
          "name": "epoch",
          "type": "uint256"
        },
        {
          "indexed": false,
          "internalType": "uint256",
          "name": "totalRewards",
          "type": "uint256"
        }
      ],
      "name": "EpochFinalized",
      "type": "event"
    },
    {
      "inputs": [
        {
          "internalType": "address",
          "name": "addr",
          "type": "address"
        },
        {
          "internalType": "uint256",
          "name": "amount",
          "type": "uint256"
        }
      ],
      "name": "distributeFiduTo",
      "outputs": [],
      "stateMutability": "nonpayable",
      "type": "function"
    },
    {
      "inputs": [
        {
          "internalType": "uint256",
          "name": "epoch",
          "type": "uint256"
        }
      ],
      "name": "estimateRewardsFor",
      "outputs": [
        {
          "internalType": "uint256",
          "name": "",
          "type": "uint256"
        }
      ],
      "stateMutability": "view",
      "type": "function"
    },
    {
      "inputs": [],
      "name": "finalizeEpochs",
      "outputs": [],
      "stateMutability": "nonpayable",
      "type": "function"
    },
    {
      "inputs": [],
      "name": "firstRewardEpoch",
      "outputs": [
        {
          "internalType": "uint256",
          "name": "",
          "type": "uint256"
        }
      ],
      "stateMutability": "view",
      "type": "function"
    },
    {
      "inputs": [],
      "name": "lastCheckpointAt",
      "outputs": [
        {
          "internalType": "uint256",
          "name": "",
          "type": "uint256"
        }
      ],
      "stateMutability": "view",
      "type": "function"
    },
    {
      "inputs": [],
      "name": "lastFinalizedEpoch",
      "outputs": [
        {
          "internalType": "uint256",
          "name": "",
          "type": "uint256"
        }
      ],
      "stateMutability": "view",
      "type": "function"
    },
    {
      "inputs": [
        {
          "internalType": "uint256",
          "name": "amount",
          "type": "uint256"
        }
      ],
      "name": "onReceive",
      "outputs": [
        {
          "internalType": "bytes4",
          "name": "",
          "type": "bytes4"
        }
      ],
      "stateMutability": "nonpayable",
      "type": "function"
    },
    {
      "inputs": [
        {
          "internalType": "uint256",
          "name": "",
          "type": "uint256"
        }
      ],
      "name": "rewardsForEpoch",
      "outputs": [
        {
          "internalType": "uint256",
          "name": "",
          "type": "uint256"
        }
      ],
      "stateMutability": "view",
      "type": "function"
    }
  ],
  "transactionHash": "0x47898c6b0d1f5a9e73499c9c343b86e77540868ca95af4d793d934ac8152b063",
  "args": [
    "0xd16BC944Bf20c86c4ED47Ce1a330a18538674C83",
    2760
  ],
  "solcInputHash": "eac65dc40e06b4b044f441f03029567a",
  "bytecode": "0x60c060405234801561001057600080fd5b5060405161153a38038061153a83398101604081905261002f91610045565b6001600160a01b0390911660805260a05261007f565b6000806040838503121561005857600080fd5b82516001600160a01b038116811461006f57600080fd5b6020939093015192949293505050565b60805160a05161143c6100fe60003960008181609e015281816101fb01528181610c4601528181610c6e01528181610cbf0152610ced01526000818161016d01528181610257015281816102f70152818161050d0152818161057a015281816105ae01528181610709015281816107a10152610eed015261143c6000f3fe608060405234801561001057600080fd5b50600436106100785760003560e01c80631667bcec1461007d578063347e50b0146100995780633f1689ea146100c0578063be8b6163146100d5578063c5a3f907146100f5578063f26a372c146100fd578063f66a124e14610110578063fe07bb0714610130575b600080fd5b61008660005481565b6040519081526020015b60405180910390f35b6100867f000000000000000000000000000000000000000000000000000000000000000081565b6100d36100ce36600461124b565b610138565b005b6100866100e3366004611277565b60016020526000908152604090205481565b6100866101af565b61008661010b366004611277565b6101e0565b61012361011e366004611277565b610506565b6040516100909190611290565b6100d36106d8565b7f037db0999be9065c5f1306135b75a6ae2af104ed9f0d72669950e21e87a33f766101638133610824565b6101aa838361019a7f00000000000000000000000000000000000000000000000000000000000000006001600160a01b031661088c565b6001600160a01b03169190610982565b505050565b600062093a8060005410156101c45750600090565b60016101d16000546109d4565b6101db91906112bb565b905090565b60006101ea6109e3565b8211156101f957506000919050565b7f000000000000000000000000000000000000000000000000000000000000000082101561022957506000919050565b60006102336101af565b905080831161025057505060009081526001602052604090205490565b60006102847f00000000000000000000000000000000000000000000000000000000000000006001600160a01b03166109ee565b604051630f2b83b360e21b81523060048201526001600160a01b039190911690633cae0ecc90602401602060405180830381865afa1580156102ca573d6000803e3d6000fd5b505050506040513d601f19601f820116820180604052508101906102ee91906112ce565b905060006103247f00000000000000000000000000000000000000000000000000000000000000006001600160a01b0316610a9d565b6001600160a01b031663855cb21b836040518263ffffffff1660e01b815260040161035191815260200190565b602060405180830381865afa15801561036e573d6000803e3d6000fd5b505050506040513d601f19601f8201168201806040525081019061039291906112ce565b905060008361039f610b4c565b6103a991906112bb565b9050806000036103d7576000868152600160205260409020546103cd9083906112e7565b9695505050505050565b60006103e46000546109d4565b905060006103f182610b58565b90506000816000541115610410578160005461040d91906112bb565b90505b60008161042062093a80876112fa565b61042a91906112bb565b90506000610436610b67565b61044090426112bb565b905061044a6109e3565b8b0361049d57600061045c82846112e7565b610466838a6112fa565b6104709190611319565b60008d81526001602052604090205490915061048d9082906112e7565b9c9b505050505050505050505050565b62093a80858c036104b8576104b58462093a806112bb565b90505b60006104c483856112e7565b6104ce838b6112fa565b6104d89190611319565b60008e8152600160205260409020549091506104f59082906112e7565b9d9c50505050505050505050505050565b600061053a7f00000000000000000000000000000000000000000000000000000000000000006001600160a01b03166109ee565b6001600160a01b0316336001600160a01b03161461056b5760405163e2f6901760e01b815260040160405180910390fd5b600082156106c05760006105a77f00000000000000000000000000000000000000000000000000000000000000006001600160a01b0316610a9d565b90506105db7f00000000000000000000000000000000000000000000000000000000000000006001600160a01b0316610b79565b60405163095ea7b360e01b81526001600160a01b03838116600483015260248201879052919091169063095ea7b3906044016020604051808303816000875af115801561062c573d6000803e3d6000fd5b505050506040513d601f19601f82011682018060405250810190610650919061133b565b5060405163b6b55f2560e01b8152600481018590526001600160a01b0382169063b6b55f25906024016020604051808303816000875af1158015610698573d6000803e3d6000fd5b505050506040513d601f19601f820116820180604052508101906106bc91906112ce565b9150505b6106c981610c28565b50637b35092760e11b92915050565b7f037db0999be9065c5f1306135b75a6ae2af104ed9f0d72669950e21e87a33f766107038133610824565b426107367f00000000000000000000000000000000000000000000000000000000000000006001600160a01b03166109ee565b6001600160a01b031663903550876040518163ffffffff1660e01b8152600401602060405180830381865afa158015610773573d6000803e3d6000fd5b505050506040513d601f19601f8201168201806040525081019061079791906112ce565b14610821576107ce7f00000000000000000000000000000000000000000000000000000000000000006001600160a01b03166109ee565b6001600160a01b031663e4fc6b6d6040518163ffffffff1660e01b8152600401600060405180830381600087803b15801561080857600080fd5b505af115801561081c573d6000803e3d6000fd5b505050505b50565b6001600160a01b03811661084b5760405163d92e233d60e01b815260040160405180910390fd5b6108558282610edf565b6108885760405163889a56bb60e01b81523060048201526001600160a01b03821660248201526044015b60405180910390fd5b5050565b6000816001600160a01b031663f887ea406040518163ffffffff1660e01b8152600401602060405180830381865afa1580156108cc573d6000803e3d6000fd5b505050506040513d601f19601f820116820180604052508101906108f0919061135d565b6001600160a01b0316630c0450127f47c2ea46875f095f403a51ace141ad44cdba401c1071c2ec60d145406f5a072f6040518263ffffffff1660e01b815260040161093b9190611290565b602060405180830381865afa158015610958573d6000803e3d6000fd5b505050506040513d601f19601f8201168201806040525081019061097c919061135d565b92915050565b604080516001600160a01b038416602482015260448082018490528251808303909101815260649091019091526020810180516001600160e01b031663a9059cbb60e01b1790526101aa908490610fea565b600061097c62093a8083611319565b60006101db426109d4565b6000816001600160a01b031663f887ea406040518163ffffffff1660e01b8152600401602060405180830381865afa158015610a2e573d6000803e3d6000fd5b505050506040513d601f19601f82011682018060405250810190610a52919061135d565b6001600160a01b0316630c0450127f668ff821a68d7ebc140e404971ad10caae8156e0b516f9a0ffaba761a2c39e336040518263ffffffff1660e01b815260040161093b9190611290565b6000816001600160a01b031663f887ea406040518163ffffffff1660e01b8152600401602060405180830381865afa158015610add573d6000803e3d6000fd5b505050506040513d601f19601f82011682018060405250810190610b01919061135d565b6001600160a01b0316630c0450127fd4a8913f0cbda73931759328604779fb81c2513f90d252b9c4a96a5dd8327d886040518263ffffffff1660e01b815260040161093b9190611290565b600060016101d16109e3565b600061097c62093a80836112fa565b60006101db610b746109e3565b610b58565b6000816001600160a01b031663f887ea406040518163ffffffff1660e01b8152600401602060405180830381865afa158015610bb9573d6000803e3d6000fd5b505050506040513d601f19601f82011682018060405250810190610bdd919061135d565b6001600160a01b0316630c0450127fd6aca1be9729c13d677335161321649cccae6a591554772516700f986f942eaa6040518263ffffffff1660e01b815260040161093b9190611290565b806000610c336109e3565b90506000610c426001836112bb565b90507f0000000000000000000000000000000000000000000000000000000000000000821015610d4c577f000000000000000000000000000000000000000000000000000000000000000060009081526001602052604081208054859290610cab9084906112e7565b9091555050600080549003610d4657610ce37f0000000000000000000000000000000000000000000000000000000000000000610b58565b600055610d1160017f00000000000000000000000000000000000000000000000000000000000000006112bb565b604051600081527f6debf9c0b8bd7ecda40db89a2641f61251d80a576b5c5e5f06de7f1c2a65850a9060200160405180910390a25b50505050565b600054600003610d6357610d5f82610b58565b6000555b6000610d6d6101af565b90506000610d7b82846112bb565b90506000805442610d8c91906112bb565b905060008215610eae5760015b838111610ea0576000610dac82876112e7565b90506000610db982610b58565b60005490915062093a8090821015610dee57600082600054610ddb91906112bb565b9050610dea8162093a806112bb565b9150505b600086610dfb838f6112fa565b610e059190611319565b905080600160008681526020019081526020016000206000828254610e2a91906112e7565b90915550610e3a905081876112e7565b9550837f6debf9c0b8bd7ecda40db89a2641f61251d80a576b5c5e5f06de7f1c2a65850a6001600087815260200190815260200160002054604051610e8191815260200190565b60405180910390a2505050508080610e989061137a565b915050610d99565b50610eab81886112bb565b96505b60008681526001602052604081208054899290610ecc9084906112e7565b9091555050426000555050505050505050565b6000816001600160a01b03167f00000000000000000000000000000000000000000000000000000000000000006001600160a01b031663f887ea406040518163ffffffff1660e01b8152600401602060405180830381865afa158015610f49573d6000803e3d6000fd5b505050506040513d601f19601f82011682018060405250810190610f6d919061135d565b6001600160a01b0316630c045012856040518263ffffffff1660e01b8152600401610f989190611290565b602060405180830381865afa158015610fb5573d6000803e3d6000fd5b505050506040513d601f19601f82011682018060405250810190610fd9919061135d565b6001600160a01b0316149392505050565b600061103f826040518060400160405280602081526020017f5361666545524332303a206c6f772d6c6576656c2063616c6c206661696c6564815250856001600160a01b03166110bc9092919063ffffffff16565b8051909150156101aa578080602001905181019061105d919061133b565b6101aa5760405162461bcd60e51b815260206004820152602a60248201527f5361666545524332303a204552433230206f7065726174696f6e20646964206e6044820152691bdd081cdd58d8d9595960b21b606482015260840161087f565b60606110cb84846000856110d5565b90505b9392505050565b6060824710156111365760405162461bcd60e51b815260206004820152602660248201527f416464726573733a20696e73756666696369656e742062616c616e636520666f6044820152651c8818d85b1b60d21b606482015260840161087f565b843b6111845760405162461bcd60e51b815260206004820152601d60248201527f416464726573733a2063616c6c20746f206e6f6e2d636f6e7472616374000000604482015260640161087f565b600080866001600160a01b031685876040516111a091906113b7565b60006040518083038185875af1925050503d80600081146111dd576040519150601f19603f3d011682016040523d82523d6000602084013e6111e2565b606091505b50915091506111f28282866111fd565b979650505050505050565b6060831561120c5750816110ce565b82511561121c5782518084602001fd5b8160405162461bcd60e51b815260040161087f91906113d3565b6001600160a01b038116811461082157600080fd5b6000806040838503121561125e57600080fd5b823561126981611236565b946020939093013593505050565b60006020828403121561128957600080fd5b5035919050565b6001600160e01b031991909116815260200190565b634e487b7160e01b600052601160045260246000fd5b8181038181111561097c5761097c6112a5565b6000602082840312156112e057600080fd5b5051919050565b8082018082111561097c5761097c6112a5565b6000816000190483118215151615611314576113146112a5565b500290565b60008261133657634e487b7160e01b600052601260045260246000fd5b500490565b60006020828403121561134d57600080fd5b815180151581146110ce57600080fd5b60006020828403121561136f57600080fd5b81516110ce81611236565b60006001820161138c5761138c6112a5565b5060010190565b60005b838110156113ae578181015183820152602001611396565b50506000910152565b600082516113c9818460208701611393565b9190910192915050565b60208152600082518060208401526113f2816040850160208701611393565b601f01601f1916919091016040019291505056fea264697066735822122098cd5832dd3c92a662ffaf7c11c6d6787cbce517b5f89f4aef5dbf59b7c6c55764736f6c63430008100033",
  "devdoc": {
    "author": "landakram",
    "events": {
      "EpochFinalized(uint256,uint256)": {
        "params": {
          "epoch": "epoch that is now finalized",
          "totalRewards": "all of the rewards in that epoch"
        }
      }
    },
    "kind": "dev",
    "methods": {
      "distributeFiduTo(address,uint256)": {
        "params": {
          "addr": "address to distribute to",
          "amount": "amount to distribute"
        }
      },
      "estimateRewardsFor(uint256)": {
        "params": {
          "epoch": "epoch to estimate the rewards of"
        },
        "returns": {
          "_0": "rewards associated with `epoch`"
        }
      },
      "onReceive(uint256)": {
        "params": {
          "amount": "USDC reward amount"
        },
        "returns": {
          "_0": "The 4 byte selector required by IERC20SplitterReceiver"
        }
      }
    },
    "title": "MembershipCollector",
    "version": 1
  },
  "userdoc": {
    "events": {
      "EpochFinalized(uint256,uint256)": {
        "notice": "Emitted once `epoch` has been finalized and will no longer change"
      }
    },
    "kind": "user",
    "methods": {
      "distributeFiduTo(address,uint256)": {
        "notice": "Have the collector distribute `amount` of Fidu to `addr`"
      },
      "estimateRewardsFor(uint256)": {
        "notice": "Estimate rewards for a given epoch. For epochs at or before lastFinalizedEpoch  this will be the fixed, accurate reward for the epoch. For the current and other  non-finalized epochs, this will be the value as if the epoch were finalized in that  moment."
      },
      "finalizeEpochs()": {
        "notice": "Finalize all unfinalized epochs. Causes the reserve splitter to distribute  if there are unfinalized epochs so all possible rewards are distributed."
      },
      "firstRewardEpoch()": {
        "notice": "The first epoch rewards should be provided in"
      },
      "lastCheckpointAt()": {
        "notice": "The last block.timestamp when epochs were finalized. The last   finalized epoch is the most recent epoch that ends before lastCheckpointAt."
      },
      "lastFinalizedEpoch()": {
        "notice": "The last epoch whose rewards should be considered finalized and ready to be claimed"
      },
      "onReceive(uint256)": {
        "notice": "Receive handler for the reserve ERC20Splitter. This handler uses the USDC   amount it has received to acquire fidu from the senior pool and distribute it across   epochs that have elapsed since the last distribution. The fidu rewards are distributed   proportionaly across epochs based on their portion of total elapsed time. Once an epoch   has passed, it is consider \"finalized\" and no longer considered for future runs of this   function."
      },
      "rewardsForEpoch(uint256)": {
        "notice": "A mapping of epochs to fidu reward amounts"
      }
    },
    "notice": "Responsible for receiving USDC from ERC20Splitter, using it to acquire fidu, and allocating   it to epochs, where it can be claimed by membership participants.",
    "version": 1
  },
  "storageLayout": {
    "storage": [
      {
        "astId": 11772,
        "contract": "contracts/protocol/core/membership/MembershipCollector.sol:MembershipCollector",
        "label": "lastCheckpointAt",
        "offset": 0,
        "slot": "0",
        "type": "t_uint256"
      },
      {
        "astId": 11777,
        "contract": "contracts/protocol/core/membership/MembershipCollector.sol:MembershipCollector",
        "label": "rewardsForEpoch",
        "offset": 0,
        "slot": "1",
        "type": "t_mapping(t_uint256,t_uint256)"
      }
    ],
    "types": {
      "t_mapping(t_uint256,t_uint256)": {
        "encoding": "mapping",
        "key": "t_uint256",
        "label": "mapping(uint256 => uint256)",
        "numberOfBytes": "32",
        "value": "t_uint256"
      },
      "t_uint256": {
        "encoding": "inplace",
        "label": "uint256",
        "numberOfBytes": "32"
      }
    }
  }
}