{
  "address": "0x3d0C92b90Ab104B25e84cA659DBa8fA2327Cb8fe",
  "abi": [
    {
      "inputs": [
        {
          "internalType": "contract Context",
          "name": "_context",
          "type": "address"
        }
      ],
      "stateMutability": "nonpayable",
      "type": "constructor"
    },
    {
      "inputs": [
        {
          "internalType": "address",
          "name": "nonOwner",
          "type": "address"
        }
      ],
      "name": "CannotOperateOnUnownedAsset",
      "type": "error"
    },
    {
      "inputs": [
        {
          "internalType": "address",
          "name": "resource",
          "type": "address"
        },
        {
          "internalType": "address",
          "name": "accessor",
          "type": "address"
        }
      ],
      "name": "RequiresOperator",
      "type": "error"
    },
    {
      "inputs": [],
      "name": "RequiresValidInput",
      "type": "error"
    },
    {
      "inputs": [
        {
          "internalType": "address",
          "name": "addr",
          "type": "address"
        }
      ],
      "name": "UnsupportedAssetAddress",
      "type": "error"
    },
    {
      "inputs": [],
      "name": "ZeroAddress",
      "type": "error"
    },
    {
      "anonymous": false,
      "inputs": [
        {
          "indexed": false,
          "internalType": "address",
          "name": "account",
          "type": "address"
        }
      ],
      "name": "Paused",
      "type": "event"
    },
    {
      "anonymous": false,
      "inputs": [
        {
          "indexed": false,
          "internalType": "address",
          "name": "account",
          "type": "address"
        }
      ],
      "name": "Unpaused",
      "type": "event"
    },
    {
      "inputs": [
        {
          "internalType": "uint256",
          "name": "gfi",
          "type": "uint256"
        },
        {
          "internalType": "uint256",
          "name": "capital",
          "type": "uint256"
        }
      ],
      "name": "calculateMemberScore",
      "outputs": [
        {
          "internalType": "uint256",
          "name": "",
          "type": "uint256"
        }
      ],
      "stateMutability": "view",
      "type": "function"
    },
    {
      "inputs": [
        {
          "internalType": "address",
          "name": "addr",
          "type": "address"
        }
      ],
      "name": "claimableRewards",
      "outputs": [
        {
          "internalType": "uint256",
          "name": "",
          "type": "uint256"
        }
      ],
      "stateMutability": "view",
      "type": "function"
    },
    {
      "inputs": [],
      "name": "collectRewards",
      "outputs": [
        {
          "internalType": "uint256",
          "name": "",
          "type": "uint256"
        }
      ],
      "stateMutability": "nonpayable",
      "type": "function"
    },
    {
      "inputs": [
        {
          "components": [
            {
              "internalType": "uint256",
              "name": "gfi",
              "type": "uint256"
            },
            {
              "components": [
                {
                  "internalType": "address",
                  "name": "assetAddress",
                  "type": "address"
                },
                {
                  "internalType": "uint256",
                  "name": "id",
                  "type": "uint256"
                }
              ],
              "internalType": "struct CapitalDeposit[]",
              "name": "capitalDeposits",
              "type": "tuple[]"
            }
          ],
          "internalType": "struct Deposit",
          "name": "depositData",
          "type": "tuple"
        }
      ],
      "name": "deposit",
      "outputs": [
        {
          "components": [
            {
              "internalType": "uint256",
              "name": "membershipId",
              "type": "uint256"
            },
            {
              "internalType": "uint256",
              "name": "gfiPositionId",
              "type": "uint256"
            },
            {
              "internalType": "uint256[]",
              "name": "capitalPositionIds",
              "type": "uint256[]"
            }
          ],
          "internalType": "struct DepositResult",
          "name": "result",
          "type": "tuple"
        }
      ],
      "stateMutability": "nonpayable",
      "type": "function"
    },
    {
      "inputs": [
        {
          "internalType": "address",
          "name": "memberAddress",
          "type": "address"
        },
        {
          "internalType": "int256",
          "name": "gfi",
          "type": "int256"
        },
        {
          "internalType": "int256",
          "name": "capital",
          "type": "int256"
        }
      ],
      "name": "estimateMemberScore",
      "outputs": [
        {
          "internalType": "uint256",
          "name": "score",
          "type": "uint256"
        }
      ],
      "stateMutability": "view",
      "type": "function"
    },
    {
      "inputs": [
        {
          "internalType": "uint256",
          "name": "epoch",
          "type": "uint256"
        }
      ],
      "name": "estimateRewardsFor",
      "outputs": [
        {
          "internalType": "uint256",
          "name": "",
          "type": "uint256"
        }
      ],
      "stateMutability": "view",
      "type": "function"
    },
    {
      "inputs": [],
      "name": "finalizeEpochs",
      "outputs": [],
      "stateMutability": "nonpayable",
      "type": "function"
    },
    {
      "inputs": [
        {
          "internalType": "uint256[]",
          "name": "capitalPositionIds",
          "type": "uint256[]"
        }
      ],
      "name": "harvest",
      "outputs": [],
      "stateMutability": "nonpayable",
      "type": "function"
    },
    {
      "inputs": [],
      "name": "initialize",
      "outputs": [],
      "stateMutability": "nonpayable",
      "type": "function"
    },
    {
      "inputs": [
        {
          "internalType": "address",
          "name": "addr",
          "type": "address"
        }
      ],
      "name": "memberScoreOf",
      "outputs": [
        {
          "internalType": "uint256",
          "name": "eligibleScore",
          "type": "uint256"
        },
        {
          "internalType": "uint256",
          "name": "totalScore",
          "type": "uint256"
        }
      ],
      "stateMutability": "view",
      "type": "function"
    },
    {
      "inputs": [
        {
          "internalType": "address",
          "name": "",
          "type": "address"
        },
        {
          "internalType": "address",
          "name": "",
          "type": "address"
        },
        {
          "internalType": "uint256",
          "name": "",
          "type": "uint256"
        },
        {
          "internalType": "bytes",
          "name": "",
          "type": "bytes"
        }
      ],
      "name": "onERC721Received",
      "outputs": [
        {
          "internalType": "bytes4",
          "name": "",
          "type": "bytes4"
        }
      ],
      "stateMutability": "pure",
      "type": "function"
    },
    {
      "inputs": [],
      "name": "pause",
      "outputs": [],
      "stateMutability": "nonpayable",
      "type": "function"
    },
    {
      "inputs": [],
      "name": "paused",
      "outputs": [
        {
          "internalType": "bool",
          "name": "",
          "type": "bool"
        }
      ],
      "stateMutability": "view",
      "type": "function"
    },
    {
      "inputs": [
        {
          "internalType": "address",
          "name": "addr",
          "type": "address"
        }
      ],
      "name": "totalCapitalHeldBy",
      "outputs": [
        {
          "internalType": "uint256",
          "name": "eligibleAmount",
          "type": "uint256"
        },
        {
          "internalType": "uint256",
          "name": "totalAmount",
          "type": "uint256"
        }
      ],
      "stateMutability": "view",
      "type": "function"
    },
    {
      "inputs": [
        {
          "internalType": "address",
          "name": "addr",
          "type": "address"
        }
      ],
      "name": "totalGFIHeldBy",
      "outputs": [
        {
          "internalType": "uint256",
          "name": "eligibleAmount",
          "type": "uint256"
        },
        {
          "internalType": "uint256",
          "name": "totalAmount",
          "type": "uint256"
        }
      ],
      "stateMutability": "view",
      "type": "function"
    },
    {
      "inputs": [],
      "name": "totalMemberScores",
      "outputs": [
        {
          "internalType": "uint256",
          "name": "eligibleTotal",
          "type": "uint256"
        },
        {
          "internalType": "uint256",
          "name": "nextEpochTotal",
          "type": "uint256"
        }
      ],
      "stateMutability": "view",
      "type": "function"
    },
    {
      "inputs": [],
      "name": "unpause",
      "outputs": [],
      "stateMutability": "nonpayable",
      "type": "function"
    },
    {
      "inputs": [
        {
          "internalType": "address",
          "name": "addr",
          "type": "address"
        }
      ],
      "name": "votingPower",
      "outputs": [
        {
          "internalType": "uint256",
          "name": "",
          "type": "uint256"
        }
      ],
      "stateMutability": "view",
      "type": "function"
    },
    {
      "inputs": [
        {
          "components": [
            {
              "components": [
                {
                  "internalType": "uint256",
                  "name": "id",
                  "type": "uint256"
                },
                {
                  "internalType": "uint256",
                  "name": "amount",
                  "type": "uint256"
                }
              ],
              "internalType": "struct ERC20Withdrawal[]",
              "name": "gfiPositions",
              "type": "tuple[]"
            },
            {
              "internalType": "uint256[]",
              "name": "capitalPositions",
              "type": "uint256[]"
            }
          ],
          "internalType": "struct Withdrawal",
          "name": "withdrawal",
          "type": "tuple"
        }
      ],
      "name": "withdraw",
      "outputs": [],
      "stateMutability": "nonpayable",
      "type": "function"
    }
  ],
  "transactionHash": "0x0080d81c07b73752db60805a5248124c82fd654c2450ba36aa956674619b8711",
  "args": [
    "0xd16BC944Bf20c86c4ED47Ce1a330a18538674C83"
  ],
  "numDeployments": 2,
  "solcInputHash": "2e8de7f4758d3e6360fdf20b77a0f27f",
  "bytecode": "0x60a06040523480156200001157600080fd5b50604051620030ce380380620030ce833981016040819052620000349162000046565b6001600160a01b031660805262000078565b6000602082840312156200005957600080fd5b81516001600160a01b03811681146200007157600080fd5b9392505050565b608051612f4c620001826000396000818161029b015281816103530152818161049e01528181610580015281816106ae015281816108350152818161095401528181610a9301528181610b6001528181610c0901528181610cc401528181610dba01528181610fcb0152818161107a015281816111c50152818161126e0152818161131601528181611376015281816113aa0152818161144a015281816114f3015281816118dc015281816119a501528181611a2801528181611af101528181611b8801528181611c2e01528181611c7101528181611cb101528181611d4701528181611dec01528181611e9a01528181611f6801528181611fec01526123080152612f4c6000f3fe608060405234801561001057600080fd5b50600436106101115760003560e01c806377bb1411116100ad578063d1fe6c5311610071578063d1fe6c5314610240578063d4564be614610253578063dc01f60d14610266578063f26a372c14610279578063fe07bb071461028c57600080fd5b806377bb1411146101ed5780638129fc1c1461020a5780638456cb5914610212578063ad4590a31461021a578063c07473f61461022d57600080fd5b8063150b7a021461011657806317bc7d471461014b57806324704b541461016c5780633f4ba83a1461017f57806359634d70146101895780635c975abb1461019c5780635d14b06f146101b257806370bb45b3146101c55780637153c144146101cd575b600080fd5b610135610124366004612944565b630a85bd0160e11b95945050505050565b60405161014291906129e2565b60405180910390f35b61015e6101593660046129f7565b610294565b604051908152602001610142565b61015e61017a366004612a2c565b61034c565b6101876103fb565b005b610187610197366004612a66565b610431565b60655460ff166040519015158152602001610142565b6101876101c0366004612a9a565b6109f8565b61015e610d69565b6101e06101db366004612a66565b610e5e565b6040516101429190612b0e565b6101f5611072565b60408051928352602083019190915201610142565b61018761110f565b61018761118a565b6101f5610228366004612b74565b6111bd565b61015e61023b366004612b74565b611266565b6101f561024e366004612b74565b61130e565b6101f5610261366004612b74565b61136e565b61015e610274366004612b74565b6113a3565b61015e610287366004612b91565b611443565b6101876114a4565b60006102c87f00000000000000000000000000000000000000000000000000000000000000006001600160a01b0316611578565b6040516317bc7d4760e01b81526001600160a01b038681166004830152602482018690526044820185905291909116906317bc7d4790606401602060405180830381865afa15801561031e573d6000803e3d6000fd5b505050506040513d601f19601f820116820180604052508101906103429190612baa565b90505b9392505050565b60006103807f00000000000000000000000000000000000000000000000000000000000000006001600160a01b0316611578565b6040516366191d7760e11b815260048101859052602481018490526001600160a01b03919091169063cc323aee90604401602060405180830381865afa1580156103ce573d6000803e3d6000fd5b505050506040513d601f19601f820116820180604052508101906103f29190612baa565b90505b92915050565b6040805180820190915263580b2a9160e01b8152633828b3cf60e21b60208201526104268133611668565b61042e6116e9565b50565b60026001540361045c5760405162461bcd60e51b815260040161045390612bc3565b60405180910390fd5b600260015560655460ff16156104845760405162461bcd60e51b815260040161045390612bfa565b6000806104918380612c24565b90501115610564576104cb7f00000000000000000000000000000000000000000000000000000000000000006001600160a01b0316611776565b6001600160a01b0316636352211e6104e38480612c24565b60008181106104f4576104f4612c74565b905060400201600001356040518263ffffffff1660e01b815260040161051c91815260200190565b602060405180830381865afa158015610539573d6000803e3d6000fd5b505050506040513d601f19601f8201168201806040525081019061055d9190612c8a565b9050610642565b60006105736020840184612ca7565b90501115610642576105ad7f00000000000000000000000000000000000000000000000000000000000000006001600160a01b0316611825565b6001600160a01b0316636352211e6105c86020850185612ca7565b60008181106105d9576105d9612c74565b905060200201356040518263ffffffff1660e01b81526004016105fe91815260200190565b602060405180830381865afa15801561061b573d6000803e3d6000fd5b505050506040513d601f19601f8201168201806040525081019061063f9190612c8a565b90505b6001600160a01b03811661066957604051630a87313960e11b815260040160405180910390fd5b60005b6106768380612c24565b90508110156107ec57600061068b8480612c24565b8381811061069b5761069b612c74565b90506040020160000135905060006106db7f00000000000000000000000000000000000000000000000000000000000000006001600160a01b0316611776565b6001600160a01b0316636352211e836040518263ffffffff1660e01b815260040161070891815260200190565b602060405180830381865afa158015610725573d6000803e3d6000fd5b505050506040513d601f19601f820116820180604052508101906107499190612c8a565b90506001600160a01b0381166107755760006040516346650c3560e11b81526004016104539190612cf0565b836001600160a01b0316816001600160a01b0316146107a957806040516346650c3560e11b81526004016104539190612cf0565b6107d6826107b78780612c24565b868181106107c7576107c7612c74565b905060400201602001356118d4565b50505080806107e490612d04565b91505061066c565b5060005b6107fd6020840184612ca7565b905081101561094e5760006108156020850185612ca7565b8381811061082557610825612c74565b90506020020135905060006108627f00000000000000000000000000000000000000000000000000000000000000006001600160a01b0316611825565b6001600160a01b0316636352211e836040518263ffffffff1660e01b815260040161088f91815260200190565b602060405180830381865afa1580156108ac573d6000803e3d6000fd5b505050506040513d601f19601f820116820180604052508101906108d09190612c8a565b90506001600160a01b0381166108fc5760006040516346650c3560e11b81526004016104539190612cf0565b836001600160a01b0316816001600160a01b03161461093057806040516346650c3560e11b81526004016104539190612cf0565b61093982611a22565b5050808061094690612d04565b9150506107f0565b506109817f00000000000000000000000000000000000000000000000000000000000000006001600160a01b0316611578565b6001600160a01b031663c37f81a3826040518263ffffffff1660e01b81526004016109ac9190612cf0565b6020604051808303816000875af11580156109cb573d6000803e3d6000fd5b505050506040513d601f19601f820116820180604052508101906109ef9190612baa565b50506001805550565b600260015403610a1a5760405162461bcd60e51b815260040161045390612bc3565b600260015560655460ff1615610a425760405162461bcd60e51b815260040161045390612bfa565b6000819003610a6457604051630a87313960e11b815260040160405180910390fd5b60005b81811015610c01576000838383818110610a8357610a83612c74565b9050602002013590506000610ac07f00000000000000000000000000000000000000000000000000000000000000006001600160a01b0316611825565b6001600160a01b0316636352211e836040518263ffffffff1660e01b8152600401610aed91815260200190565b602060405180830381865afa158015610b0a573d6000803e3d6000fd5b505050506040513d601f19601f82011682018060405250810190610b2e9190612c8a565b90506001600160a01b0381163314610b5b57336040516346650c3560e11b81526004016104539190612cf0565b610b8d7f00000000000000000000000000000000000000000000000000000000000000006001600160a01b0316611825565b6001600160a01b031663ddc63262836040518263ffffffff1660e01b8152600401610bba91815260200190565b600060405180830381600087803b158015610bd457600080fd5b505af1158015610be8573d6000803e3d6000fd5b5050505050508080610bf990612d04565b915050610a67565b506000610c367f00000000000000000000000000000000000000000000000000000000000000006001600160a01b0316611825565b6001600160a01b0316636352211e84846000818110610c5757610c57612c74565b905060200201356040518263ffffffff1660e01b8152600401610c7c91815260200190565b602060405180830381865afa158015610c99573d6000803e3d6000fd5b505050506040513d601f19601f82011682018060405250810190610cbd9190612c8a565b9050610cf17f00000000000000000000000000000000000000000000000000000000000000006001600160a01b0316611578565b6001600160a01b031663c37f81a3826040518263ffffffff1660e01b8152600401610d1c9190612cf0565b6020604051808303816000875af1158015610d3b573d6000803e3d6000fd5b505050506040513d601f19601f82011682018060405250810190610d5f9190612baa565b5050600180555050565b6000600260015403610d8d5760405162461bcd60e51b815260040161045390612bc3565b600260015560655460ff1615610db55760405162461bcd60e51b815260040161045390612bfa565b610de77f00000000000000000000000000000000000000000000000000000000000000006001600160a01b0316611578565b6001600160a01b0316635763dbd0336040518263ffffffff1660e01b8152600401610e129190612cf0565b6020604051808303816000875af1158015610e31573d6000803e3d6000fd5b505050506040513d601f19601f82011682018060405250810190610e559190612baa565b90506001805590565b610e8260405180606001604052806000815260200160008152602001606081525090565b600260015403610ea45760405162461bcd60e51b815260040161045390612bc3565b600260015560655460ff1615610ecc5760405162461bcd60e51b815260040161045390612bfa565b813515610ee357610edd8235611b80565b60208201525b6000610ef26020840184612c24565b90509050806001600160401b03811115610f0e57610f0e612d2b565b604051908082528060200260200182016040528015610f37578160200160208202803683370190505b50604083015260005b81811015610fc5576000610f576020860186612c24565b83818110610f6757610f67612c74565b905060400201803603810190610f7d9190612d41565b9050610f9181600001518260200151611e92565b84604001518381518110610fa757610fa7612c74565b60209081029190910101525080610fbd81612d04565b915050610f40565b50610ff87f00000000000000000000000000000000000000000000000000000000000000006001600160a01b0316611578565b6001600160a01b031663c37f81a3336040518263ffffffff1660e01b81526004016110239190612cf0565b6020604051808303816000875af1158015611042573d6000803e3d6000fd5b505050506040513d601f19601f820116820180604052508101906110669190612baa565b82525060018055919050565b6000806110a77f00000000000000000000000000000000000000000000000000000000000000006001600160a01b0316611578565b6001600160a01b03166377bb14116040518163ffffffff1660e01b81526004016040805180830381865afa1580156110e3573d6000803e3d6000fd5b505050506040513d601f19601f820116820180604052508101906111079190612da6565b915091509091565b600054610100900460ff1680611128575060005460ff16155b6111445760405162461bcd60e51b815260040161045390612dca565b600054610100900460ff16158015611166576000805461ffff19166101011790555b61116e61210f565b61117661217e565b801561042e576000805461ff001916905550565b6040805180820190915263580b2a9160e01b8152633828b3cf60e21b60208201526111b58133611668565b61042e6121f3565b6000806111f27f00000000000000000000000000000000000000000000000000000000000000006001600160a01b0316611776565b6001600160a01b031663427d7432846040518263ffffffff1660e01b815260040161121d9190612cf0565b6040805180830381865afa158015611239573d6000803e3d6000fd5b505050506040513d601f19601f8201168201806040525081019061125d9190612da6565b91509150915091565b60008061129b7f00000000000000000000000000000000000000000000000000000000000000006001600160a01b0316611776565b6001600160a01b031663427d7432846040518263ffffffff1660e01b81526004016112c69190612cf0565b6040805180830381865afa1580156112e2573d6000803e3d6000fd5b505050506040513d601f19601f820116820180604052508101906113069190612da6565b949350505050565b6000806113437f00000000000000000000000000000000000000000000000000000000000000006001600160a01b0316611578565b6001600160a01b0316638a440b00846040518263ffffffff1660e01b815260040161121d9190612cf0565b6000806111f27f00000000000000000000000000000000000000000000000000000000000000006001600160a01b0316611825565b60006113d77f00000000000000000000000000000000000000000000000000000000000000006001600160a01b0316611578565b6001600160a01b031663dc01f60d836040518263ffffffff1660e01b81526004016114029190612cf0565b602060405180830381865afa15801561141f573d6000803e3d6000fd5b505050506040513d601f19601f820116820180604052508101906103f59190612baa565b60006114777f00000000000000000000000000000000000000000000000000000000000000006001600160a01b031661224b565b6001600160a01b031663f26a372c836040518263ffffffff1660e01b815260040161140291815260200190565b6002600154036114c65760405162461bcd60e51b815260040161045390612bc3565b600260015560655460ff16156114ee5760405162461bcd60e51b815260040161045390612bfa565b6115207f00000000000000000000000000000000000000000000000000000000000000006001600160a01b0316611578565b6001600160a01b031663fe07bb076040518163ffffffff1660e01b8152600401600060405180830381600087803b15801561155a57600080fd5b505af115801561156e573d6000803e3d6000fd5b5050505060018055565b6000816001600160a01b031663f887ea406040518163ffffffff1660e01b8152600401602060405180830381865afa1580156115b8573d6000803e3d6000fd5b505050506040513d601f19601f820116820180604052508101906115dc9190612c8a565b6001600160a01b0316630c0450127f037db0999be9065c5f1306135b75a6ae2af104ed9f0d72669950e21e87a33f766040518263ffffffff1660e01b815260040161162791906129e2565b602060405180830381865afa158015611644573d6000803e3d6000fd5b505050506040513d601f19601f820116820180604052508101906103f59190612c8a565b6001600160a01b03811661168f5760405163d92e233d60e01b815260040160405180910390fd5b60006116a283825b6020020151836122fa565b806116b357506116b3836001611697565b9050806116e45760405163889a56bb60e01b81523060048201526001600160a01b0383166024820152604401610453565b505050565b60655460ff166117325760405162461bcd60e51b815260206004820152601460248201527314185d5cd8589b194e881b9bdd081c185d5cd95960621b6044820152606401610453565b6065805460ff191690557f5db9ee0a495bf2e6ff9c91a7834c1ba4fdd244a5e8aa4e537bd38aeae4b073aa335b60405161176c9190612cf0565b60405180910390a1565b6000816001600160a01b031663f887ea406040518163ffffffff1660e01b8152600401602060405180830381865afa1580156117b6573d6000803e3d6000fd5b505050506040513d601f19601f820116820180604052508101906117da9190612c8a565b6001600160a01b0316630c0450127fd868f4dc8c9898a16c7fb1d46b72f8d965b9f6eb2d5e4c8ce3521ff7098494646040518263ffffffff1660e01b815260040161162791906129e2565b6000816001600160a01b031663f887ea406040518163ffffffff1660e01b8152600401602060405180830381865afa158015611865573d6000803e3d6000fd5b505050506040513d601f19601f820116820180604052508101906118899190612c8a565b6001600160a01b0316630c0450127f41955c1f8b03d71c758505b280ad2212728a84f70132cc1c4cc456cfcf0266276040518263ffffffff1660e01b815260040161162791906129e2565b6000336119097f00000000000000000000000000000000000000000000000000000000000000006001600160a01b0316611776565b6001600160a01b0316636352211e856040518263ffffffff1660e01b815260040161193691815260200190565b602060405180830381865afa158015611953573d6000803e3d6000fd5b505050506040513d601f19601f820116820180604052508101906119779190612c8a565b6001600160a01b0316146119a057336040516346650c3560e11b81526004016104539190612cf0565b6119d27f00000000000000000000000000000000000000000000000000000000000000006001600160a01b0316611776565b604051630441a3e760e41b815260048101859052602481018490526001600160a01b03919091169063441a3e70906044016020604051808303816000875af11580156103ce573d6000803e3d6000fd5b33611a557f00000000000000000000000000000000000000000000000000000000000000006001600160a01b0316611825565b6001600160a01b0316636352211e836040518263ffffffff1660e01b8152600401611a8291815260200190565b602060405180830381865afa158015611a9f573d6000803e3d6000fd5b505050506040513d601f19601f82011682018060405250810190611ac39190612c8a565b6001600160a01b031614611aec57336040516346650c3560e11b81526004016104539190612cf0565b611b1e7f00000000000000000000000000000000000000000000000000000000000000006001600160a01b0316611825565b6001600160a01b0316632e1a7d4d826040518263ffffffff1660e01b8152600401611b4b91815260200190565b600060405180830381600087803b158015611b6557600080fd5b505af1158015611b79573d6000803e3d6000fd5b5050505050565b600080611bb57f00000000000000000000000000000000000000000000000000000000000000006001600160a01b0316612405565b6001600160a01b03166370a08231306040518263ffffffff1660e01b8152600401611be09190612cf0565b602060405180830381865afa158015611bfd573d6000803e3d6000fd5b505050506040513d601f19601f82011682018060405250810190611c219190612baa565b9050611c6c333085611c5b7f00000000000000000000000000000000000000000000000000000000000000006001600160a01b0316612405565b6001600160a01b03169291906124b4565b611c9e7f00000000000000000000000000000000000000000000000000000000000000006001600160a01b0316612405565b6001600160a01b031663095ea7b3611cde7f00000000000000000000000000000000000000000000000000000000000000006001600160a01b0316611776565b856040518363ffffffff1660e01b8152600401611cfc929190612e18565b6020604051808303816000875af1158015611d1b573d6000803e3d6000fd5b505050506040513d601f19601f82011682018060405250810190611d3f9190612e31565b506000611d747f00000000000000000000000000000000000000000000000000000000000000006001600160a01b0316611776565b6001600160a01b03166347e7ef2433866040518363ffffffff1660e01b8152600401611da1929190612e18565b6020604051808303816000875af1158015611dc0573d6000803e3d6000fd5b505050506040513d601f19601f82011682018060405250810190611de49190612baa565b905081611e197f00000000000000000000000000000000000000000000000000000000000000006001600160a01b0316612405565b6001600160a01b03166370a08231306040518263ffffffff1660e01b8152600401611e449190612cf0565b602060405180830381865afa158015611e61573d6000803e3d6000fd5b505050506040513d601f19601f82011682018060405250810190611e859190612baa565b1461034557610345612e53565b600080611ebf7f000000000000000000000000000000000000000000000000000000000000000085612512565b6001811115611ed057611ed0612e69565b03611ef0578260405163e1d90eaf60e01b81526004016104539190612cf0565b604051632142170760e11b815283906001600160a01b038216906342842e0e90611f2290339030908890600401612e7f565b600060405180830381600087803b158015611f3c57600080fd5b505af1158015611f50573d6000803e3d6000fd5b50505050806001600160a01b031663095ea7b3611f957f00000000000000000000000000000000000000000000000000000000000000006001600160a01b0316611825565b856040518363ffffffff1660e01b8152600401611fb3929190612e18565b600060405180830381600087803b158015611fcd57600080fd5b505af1158015611fe1573d6000803e3d6000fd5b5050505060006120197f00000000000000000000000000000000000000000000000000000000000000006001600160a01b0316611825565b6001600160a01b031663331ded1a3387876040518463ffffffff1660e01b815260040161204893929190612e7f565b6020604051808303816000875af1158015612067573d6000803e3d6000fd5b505050506040513d601f19601f8201168201806040525081019061208b9190612baa565b6040516331a9108f60e11b81526004810186905290915030906001600160a01b03841690636352211e90602401602060405180830381865afa1580156120d5573d6000803e3d6000fd5b505050506040513d601f19601f820116820180604052508101906120f99190612c8a565b6001600160a01b03160361130657611306612e53565b600054610100900460ff1680612128575060005460ff16155b6121445760405162461bcd60e51b815260040161045390612dca565b600054610100900460ff16158015612166576000805461ffff19166101011790555b60018055801561042e576000805461ff001916905550565b600054610100900460ff1680612197575060005460ff16155b6121b35760405162461bcd60e51b815260040161045390612dca565b600054610100900460ff161580156121d5576000805461ffff19166101011790555b6065805460ff19169055801561042e576000805461ff001916905550565b60655460ff16156122165760405162461bcd60e51b815260040161045390612bfa565b6065805460ff191660011790557f62e78cea01bee320cd4e420270b5ea74000d11b0c9f74754ebdbfc544b05a25861175f3390565b6000816001600160a01b031663f887ea406040518163ffffffff1660e01b8152600401602060405180830381865afa15801561228b573d6000803e3d6000fd5b505050506040513d601f19601f820116820180604052508101906122af9190612c8a565b6001600160a01b0316630c0450127f9e14acf7483e54abb417f7f2c0de91a164b71cc6fa1de3303ba7beca61e7d8dc6040518263ffffffff1660e01b815260040161162791906129e2565b6000816001600160a01b03167f00000000000000000000000000000000000000000000000000000000000000006001600160a01b031663f887ea406040518163ffffffff1660e01b8152600401602060405180830381865afa158015612364573d6000803e3d6000fd5b505050506040513d601f19601f820116820180604052508101906123889190612c8a565b6001600160a01b0316630c045012856040518263ffffffff1660e01b81526004016123b391906129e2565b602060405180830381865afa1580156123d0573d6000803e3d6000fd5b505050506040513d601f19601f820116820180604052508101906123f49190612c8a565b6001600160a01b0316149392505050565b6000816001600160a01b031663f887ea406040518163ffffffff1660e01b8152600401602060405180830381865afa158015612445573d6000803e3d6000fd5b505050506040513d601f19601f820116820180604052508101906124699190612c8a565b6001600160a01b0316630c0450127f6fdcaa094af96c56039c701c590da2284d9e0c364f2dd8ee7d43419f0eefd2936040518263ffffffff1660e01b815260040161162791906129e2565b61250c846323b872dd60e01b8585856040516024016124d593929190612e7f565b60408051601f198184030181529190526020810180516001600160e01b03166001600160e01b03199093169290921790915261254b565b50505050565b600061251e838361261d565b1561252b575060016103f5565b612535838361264d565b15612542575060016103f5565b50600092915050565b60006125a0826040518060400160405280602081526020017f5361666545524332303a206c6f772d6c6576656c2063616c6c206661696c6564815250856001600160a01b03166126619092919063ffffffff16565b8051909150156116e457808060200190518101906125be9190612e31565b6116e45760405162461bcd60e51b815260206004820152602a60248201527f5361666545524332303a204552433230206f7065726174696f6e20646964206e6044820152691bdd081cdd58d8d9595960b21b6064820152608401610453565b6000612631836001600160a01b0316612670565b6001600160a01b0316826001600160a01b031614905092915050565b6000612631836001600160a01b031661271f565b606061034284846000856127ce565b6000816001600160a01b031663f887ea406040518163ffffffff1660e01b8152600401602060405180830381865afa1580156126b0573d6000803e3d6000fd5b505050506040513d601f19601f820116820180604052508101906126d49190612c8a565b6001600160a01b0316630c0450127f5a31296b3cecaf3aaa3146a140f6ddf6d21caa95e28243dc507d90d7e883be796040518263ffffffff1660e01b815260040161162791906129e2565b6000816001600160a01b031663f887ea406040518163ffffffff1660e01b8152600401602060405180830381865afa15801561275f573d6000803e3d6000fd5b505050506040513d601f19601f820116820180604052508101906127839190612c8a565b6001600160a01b0316630c0450127f7c9945d349966e663465dd2ad9f3ebe33d671877c22c40ca3a051e02e14e15ff6040518263ffffffff1660e01b815260040161162791906129e2565b60608247101561282f5760405162461bcd60e51b815260206004820152602660248201527f416464726573733a20696e73756666696369656e742062616c616e636520666f6044820152651c8818d85b1b60d21b6064820152608401610453565b843b61287d5760405162461bcd60e51b815260206004820152601d60248201527f416464726573733a2063616c6c20746f206e6f6e2d636f6e74726163740000006044820152606401610453565b600080866001600160a01b031685876040516128999190612ec7565b60006040518083038185875af1925050503d80600081146128d6576040519150601f19603f3d011682016040523d82523d6000602084013e6128db565b606091505b50915091506128eb8282866128f6565b979650505050505050565b60608315612905575081610345565b8251156129155782518084602001fd5b8160405162461bcd60e51b81526004016104539190612ee3565b6001600160a01b038116811461042e57600080fd5b60008060008060006080868803121561295c57600080fd5b85356129678161292f565b945060208601356129778161292f565b93506040860135925060608601356001600160401b038082111561299a57600080fd5b818801915088601f8301126129ae57600080fd5b8135818111156129bd57600080fd5b8960208285010111156129cf57600080fd5b9699959850939650602001949392505050565b6001600160e01b031991909116815260200190565b600080600060608486031215612a0c57600080fd5b8335612a178161292f565b95602085013595506040909401359392505050565b60008060408385031215612a3f57600080fd5b50508035926020909101359150565b600060408284031215612a6057600080fd5b50919050565b600060208284031215612a7857600080fd5b81356001600160401b03811115612a8e57600080fd5b61130684828501612a4e565b60008060208385031215612aad57600080fd5b82356001600160401b0380821115612ac457600080fd5b818501915085601f830112612ad857600080fd5b813581811115612ae757600080fd5b8660208260051b8501011115612afc57600080fd5b60209290920196919550909350505050565b6000602080835260808301845182850152818501516040850152604085015160608086015281815180845260a0870191508483019350600092505b80831015612b695783518252928401926001929092019190840190612b49565b509695505050505050565b600060208284031215612b8657600080fd5b81356103458161292f565b600060208284031215612ba357600080fd5b5035919050565b600060208284031215612bbc57600080fd5b5051919050565b6020808252601f908201527f5265656e7472616e637947756172643a207265656e7472616e742063616c6c00604082015260600190565b60208082526010908201526f14185d5cd8589b194e881c185d5cd95960821b604082015260600190565b6000808335601e19843603018112612c3b57600080fd5b8301803591506001600160401b03821115612c5557600080fd5b6020019150600681901b3603821315612c6d57600080fd5b9250929050565b634e487b7160e01b600052603260045260246000fd5b600060208284031215612c9c57600080fd5b81516103458161292f565b6000808335601e19843603018112612cbe57600080fd5b8301803591506001600160401b03821115612cd857600080fd5b6020019150600581901b3603821315612c6d57600080fd5b6001600160a01b0391909116815260200190565b600060018201612d2457634e487b7160e01b600052601160045260246000fd5b5060010190565b634e487b7160e01b600052604160045260246000fd5b600060408284031215612d5357600080fd5b604051604081018181106001600160401b0382111715612d8357634e487b7160e01b600052604160045260246000fd5b6040528235612d918161292f565b81526020928301359281019290925250919050565b60008060408385031215612db957600080fd5b505080516020909101519092909150565b6020808252602e908201527f496e697469616c697a61626c653a20636f6e747261637420697320616c72656160408201526d191e481a5b9a5d1a585b1a5e995960921b606082015260800190565b6001600160a01b03929092168252602082015260400190565b600060208284031215612e4357600080fd5b8151801515811461034557600080fd5b634e487b7160e01b600052600160045260246000fd5b634e487b7160e01b600052602160045260246000fd5b6001600160a01b039384168152919092166020820152604081019190915260600190565b60005b83811015612ebe578181015183820152602001612ea6565b50506000910152565b60008251612ed9818460208701612ea3565b9190910192915050565b6020815260008251806020840152612f02816040850160208701612ea3565b601f01601f1916919091016040019291505056fea264697066735822122069cf4b8b0a6e9d15188c31dda31e4c777ad3dcea8478eb4f4d66b9c64ef81ff564736f6c63430008100033",
  "devdoc": {
    "author": "Goldfinch",
    "kind": "dev",
    "methods": {
      "calculateMemberScore(uint256,uint256)": {
        "params": {
          "capital": "amount of capital to estimate with, denominated in USDC",
          "gfi": "amount of GFI to estimate with"
        },
        "returns": {
          "_0": "the resulting score"
        }
      },
      "claimableRewards(address)": {
        "params": {
          "addr": "the address to check claimable rewards for"
        },
        "returns": {
          "_0": "how many rewards could be claimed by a call to `collectRewards`"
        }
      },
      "collectRewards()": {
        "returns": {
          "_0": "how many rewards were collected and sent to caller"
        }
      },
      "deposit((uint256,(address,uint256)[]))": {
        "params": {
          "deposit": "struct describing all the assets to deposit"
        },
        "returns": {
          "result": "ids all of the ids of the created depoits, in the same order as deposit. If GFI is  present, it will be the first id."
        }
      },
      "estimateMemberScore(address,int256,int256)": {
        "params": {
          "capital": "the change in gfi holdings, denominated in USDC",
          "gfi": "the change in gfi holdings, denominated in GFI",
          "memberAddress": "the member's address"
        },
        "returns": {
          "score": "resulting score for the member given the GFI and capital changes"
        }
      },
      "estimateRewardsFor(uint256)": {
        "params": {
          "epoch": "epoch to estimate the rewards of"
        },
        "returns": {
          "_0": "rewards associated with `epoch`"
        }
      },
      "harvest(uint256[])": {
        "params": {
          "capitalPositionIds": "id of the capital position to harvest the underlying asset of"
        }
      },
      "memberScoreOf(address)": {
        "details": "if eligibleScore == totalScore then there are no changes between now and the next epoch",
        "params": {
          "addr": "the owner"
        },
        "returns": {
          "eligibleScore": "the currently eligible score",
          "totalScore": "the total score that will be eligible next epoch"
        }
      },
      "onERC721Received(address,address,uint256,bytes)": {
        "details": "Whenever an {IERC721} `tokenId` token is transferred to this contract via {IERC721-safeTransferFrom} by `operator` from `from`, this function is called. It must return its Solidity selector to confirm the token transfer. If any other value is returned or the interface is not implemented by the recipient, the transfer will be reverted. The selector can be obtained in Solidity with `IERC721.onERC721Received.selector`."
      },
      "paused()": {
        "details": "Returns true if the contract is paused, and false otherwise."
      },
      "totalCapitalHeldBy(address)": {
        "params": {
          "addr": "the owner"
        },
        "returns": {
          "eligibleAmount": "how much USDC of capital is currently eligible for rewards",
          "totalAmount": "how much  USDC of capital is currently eligible for rewards"
        }
      },
      "totalGFIHeldBy(address)": {
        "params": {
          "addr": "the owner"
        },
        "returns": {
          "eligibleAmount": "how much GFI is currently eligible for rewards",
          "totalAmount": "how much GFI is currently eligible for rewards"
        }
      },
      "totalMemberScores()": {
        "returns": {
          "eligibleTotal": "sum of all member scores that are currently eligible",
          "nextEpochTotal": "sum of all member scores that will be eligible next epoch"
        }
      },
      "votingPower(address)": {
        "params": {
          "addr": "the address to check the voting power of"
        },
        "returns": {
          "_0": "the voting power"
        }
      },
      "withdraw(((uint256,uint256)[],uint256[]))": {
        "params": {
          "withdrawal": "all of the GFI and Capital ids to withdraw"
        }
      }
    },
    "title": "MembershipOrchestrator",
    "version": 1
  },
  "userdoc": {
    "errors": {
      "CannotOperateOnUnownedAsset(address)": [
        {
          "notice": "Thrown when operating on an unowned asset"
        }
      ],
      "RequiresValidInput()": [
        {
          "notice": "Thrown when calling a method with invalid input"
        }
      ],
      "UnsupportedAssetAddress(address)": [
        {
          "notice": "Thrown when anything is called with an unsupported asset"
        }
      ]
    },
    "kind": "user",
    "methods": {
      "calculateMemberScore(uint256,uint256)": {
        "notice": "Calculate what the Membership Score would be if a `gfi` amount of GFI and `capital` amount  of Capital denominated in USDC were deposited."
      },
      "claimableRewards(address)": {
        "notice": "Check how many rewards are claimable at this moment in time for caller."
      },
      "collectRewards()": {
        "notice": "Collect all membership rewards for the caller."
      },
      "deposit((uint256,(address,uint256)[]))": {
        "notice": "Deposit multiple assets defined in `multiDeposit`. Assets can include GFI, Staked Fidu,  and others."
      },
      "estimateMemberScore(address,int256,int256)": {
        "notice": "Estimate the score for an existing member, given some changes in GFI and capital"
      },
      "estimateRewardsFor(uint256)": {
        "notice": "Estimate rewards for a given epoch. For epochs at or before lastFinalizedEpoch  this will be the fixed, accurate reward for the epoch. For the current and other  non-finalized epochs, this will be the value as if the epoch were finalized in that  moment."
      },
      "finalizeEpochs()": {
        "notice": "Finalize all unfinalized epochs. Causes the reserve splitter to distribute  if there are unfinalized epochs so all possible rewards are distributed."
      },
      "harvest(uint256[])": {
        "notice": "Harvest the rewards, interest, redeemable principal, or other assets  associated with the underlying capital asset. For example, if given a PoolToken,  this will collect the GFI rewards (if available), redeemable interest, and  redeemable principal, and send that to the owner of the capital position."
      },
      "initialize()": {
        "notice": "Initialize the contract"
      },
      "memberScoreOf(address)": {
        "notice": "Get the member score of `addr`"
      },
      "totalCapitalHeldBy(address)": {
        "notice": "Get all capital, denominated in USDC, in Membership held by `addr`. This returns the current  eligible amount and the total USDC value of capital."
      },
      "totalGFIHeldBy(address)": {
        "notice": "Get all GFI in Membership held by `addr`. This returns the current eligible amount and the  total amount of GFI."
      },
      "totalMemberScores()": {
        "notice": "Get the sum of all member scores that are currently eligible and that will be eligible next epoch"
      },
      "votingPower(address)": {
        "notice": "Check the voting power of a given address"
      },
      "withdraw(((uint256,uint256)[],uint256[]))": {
        "notice": "Withdraw multiple assets defined in `multiWithdraw`. Assets can be GFI or capital  positions ids. Caller must have been permitted to act upon all of the positions."
      }
    },
    "notice": "Externally facing gateway to all Goldfinch membership functionality.",
    "version": 1
  },
  "storageLayout": {
    "storage": [
      {
        "astId": 20,
        "contract": "contracts/protocol/core/MembershipOrchestrator.sol:MembershipOrchestrator",
        "label": "_initialized",
        "offset": 0,
        "slot": "0",
        "type": "t_bool"
      },
      {
        "astId": 23,
        "contract": "contracts/protocol/core/MembershipOrchestrator.sol:MembershipOrchestrator",
        "label": "_initializing",
        "offset": 1,
        "slot": "0",
        "type": "t_bool"
      },
      {
        "astId": 187,
        "contract": "contracts/protocol/core/MembershipOrchestrator.sol:MembershipOrchestrator",
        "label": "_status",
        "offset": 0,
        "slot": "1",
        "type": "t_uint256"
      },
      {
        "astId": 230,
        "contract": "contracts/protocol/core/MembershipOrchestrator.sol:MembershipOrchestrator",
        "label": "__gap",
        "offset": 0,
        "slot": "2",
        "type": "t_array(t_uint256)49_storage"
      },
      {
        "astId": 1013,
        "contract": "contracts/protocol/core/MembershipOrchestrator.sol:MembershipOrchestrator",
        "label": "__gap",
        "offset": 0,
        "slot": "51",
        "type": "t_array(t_uint256)50_storage"
      },
      {
        "astId": 81,
        "contract": "contracts/protocol/core/MembershipOrchestrator.sol:MembershipOrchestrator",
        "label": "_paused",
        "offset": 0,
        "slot": "101",
        "type": "t_bool"
      },
      {
        "astId": 172,
        "contract": "contracts/protocol/core/MembershipOrchestrator.sol:MembershipOrchestrator",
        "label": "__gap",
        "offset": 0,
        "slot": "102",
        "type": "t_array(t_uint256)49_storage"
      }
    ],
    "types": {
      "t_array(t_uint256)49_storage": {
        "base": "t_uint256",
        "encoding": "inplace",
        "label": "uint256[49]",
        "numberOfBytes": "1568"
      },
      "t_array(t_uint256)50_storage": {
        "base": "t_uint256",
        "encoding": "inplace",
        "label": "uint256[50]",
        "numberOfBytes": "1600"
      },
      "t_bool": {
        "encoding": "inplace",
        "label": "bool",
        "numberOfBytes": "1"
      },
      "t_uint256": {
        "encoding": "inplace",
        "label": "uint256",
        "numberOfBytes": "32"
      }
    }
  }
}