{
  "address": "0x0296fD870c7419267558868d14EFf6443c4Ed403",
  "abi": [
    {
      "inputs": [
        {
          "internalType": "contract Context",
          "name": "_context",
          "type": "address"
        }
      ],
      "stateMutability": "nonpayable",
      "type": "constructor"
    },
    {
      "inputs": [],
      "name": "CannotWithdrawForAddress0",
      "type": "error"
    },
    {
      "inputs": [],
      "name": "CannotWithdrawForMultipleOwners",
      "type": "error"
    },
    {
      "inputs": [
        {
          "internalType": "address",
          "name": "nonOwner",
          "type": "address"
        }
      ],
      "name": "CannotWithdrawUnownedAsset",
      "type": "error"
    },
    {
      "inputs": [],
      "name": "MustWithdrawSomething",
      "type": "error"
    },
    {
      "inputs": [
        {
          "internalType": "address",
          "name": "resource",
          "type": "address"
        },
        {
          "internalType": "address",
          "name": "accessor",
          "type": "address"
        }
      ],
      "name": "RequiresOperator",
      "type": "error"
    },
    {
      "inputs": [
        {
          "internalType": "address",
          "name": "addr",
          "type": "address"
        }
      ],
      "name": "UnsupportedAssetAddress",
      "type": "error"
    },
    {
      "inputs": [],
      "name": "ZeroAddress",
      "type": "error"
    },
    {
      "anonymous": false,
      "inputs": [
        {
          "indexed": false,
          "internalType": "address",
          "name": "account",
          "type": "address"
        }
      ],
      "name": "Paused",
      "type": "event"
    },
    {
      "anonymous": false,
      "inputs": [
        {
          "indexed": false,
          "internalType": "address",
          "name": "account",
          "type": "address"
        }
      ],
      "name": "Unpaused",
      "type": "event"
    },
    {
      "inputs": [
        {
          "internalType": "uint256",
          "name": "gfi",
          "type": "uint256"
        },
        {
          "internalType": "uint256",
          "name": "capital",
          "type": "uint256"
        }
      ],
      "name": "calculateMemberScore",
      "outputs": [
        {
          "internalType": "uint256",
          "name": "",
          "type": "uint256"
        }
      ],
      "stateMutability": "view",
      "type": "function"
    },
    {
      "inputs": [
        {
          "internalType": "address",
          "name": "addr",
          "type": "address"
        }
      ],
      "name": "claimableRewards",
      "outputs": [
        {
          "internalType": "uint256",
          "name": "",
          "type": "uint256"
        }
      ],
      "stateMutability": "view",
      "type": "function"
    },
    {
      "inputs": [],
      "name": "collectRewards",
      "outputs": [
        {
          "internalType": "uint256",
          "name": "",
          "type": "uint256"
        }
      ],
      "stateMutability": "nonpayable",
      "type": "function"
    },
    {
      "inputs": [
        {
          "components": [
            {
              "internalType": "uint256",
              "name": "gfi",
              "type": "uint256"
            },
            {
              "components": [
                {
                  "internalType": "address",
                  "name": "assetAddress",
                  "type": "address"
                },
                {
                  "internalType": "uint256",
                  "name": "id",
                  "type": "uint256"
                }
              ],
              "internalType": "struct CapitalDeposit[]",
              "name": "capitalDeposits",
              "type": "tuple[]"
            }
          ],
          "internalType": "struct Deposit",
          "name": "depositData",
          "type": "tuple"
        }
      ],
      "name": "deposit",
      "outputs": [
        {
          "components": [
            {
              "internalType": "uint256",
              "name": "membershipId",
              "type": "uint256"
            },
            {
              "internalType": "uint256",
              "name": "gfiPositionId",
              "type": "uint256"
            },
            {
              "internalType": "uint256[]",
              "name": "capitalPositionIds",
              "type": "uint256[]"
            }
          ],
          "internalType": "struct DepositResult",
          "name": "result",
          "type": "tuple"
        }
      ],
      "stateMutability": "nonpayable",
      "type": "function"
    },
    {
      "inputs": [
        {
          "internalType": "address",
          "name": "memberAddress",
          "type": "address"
        },
        {
          "internalType": "int256",
          "name": "gfi",
          "type": "int256"
        },
        {
          "internalType": "int256",
          "name": "capital",
          "type": "int256"
        }
      ],
      "name": "estimateMemberScore",
      "outputs": [
        {
          "internalType": "uint256",
          "name": "score",
          "type": "uint256"
        }
      ],
      "stateMutability": "view",
      "type": "function"
    },
    {
      "inputs": [
        {
          "internalType": "uint256",
          "name": "epoch",
          "type": "uint256"
        }
      ],
      "name": "estimateRewardsFor",
      "outputs": [
        {
          "internalType": "uint256",
          "name": "",
          "type": "uint256"
        }
      ],
      "stateMutability": "view",
      "type": "function"
    },
    {
      "inputs": [],
      "name": "finalizeEpochs",
      "outputs": [],
      "stateMutability": "nonpayable",
      "type": "function"
    },
    {
      "inputs": [],
      "name": "initialize",
      "outputs": [],
      "stateMutability": "nonpayable",
      "type": "function"
    },
    {
      "inputs": [
        {
          "internalType": "address",
          "name": "addr",
          "type": "address"
        }
      ],
      "name": "memberScoreOf",
      "outputs": [
        {
          "internalType": "uint256",
          "name": "eligibleScore",
          "type": "uint256"
        },
        {
          "internalType": "uint256",
          "name": "totalScore",
          "type": "uint256"
        }
      ],
      "stateMutability": "view",
      "type": "function"
    },
    {
      "inputs": [
        {
          "internalType": "address",
          "name": "",
          "type": "address"
        },
        {
          "internalType": "address",
          "name": "",
          "type": "address"
        },
        {
          "internalType": "uint256",
          "name": "",
          "type": "uint256"
        },
        {
          "internalType": "bytes",
          "name": "",
          "type": "bytes"
        }
      ],
      "name": "onERC721Received",
      "outputs": [
        {
          "internalType": "bytes4",
          "name": "",
          "type": "bytes4"
        }
      ],
      "stateMutability": "pure",
      "type": "function"
    },
    {
      "inputs": [],
      "name": "pause",
      "outputs": [],
      "stateMutability": "nonpayable",
      "type": "function"
    },
    {
      "inputs": [],
      "name": "paused",
      "outputs": [
        {
          "internalType": "bool",
          "name": "",
          "type": "bool"
        }
      ],
      "stateMutability": "view",
      "type": "function"
    },
    {
      "inputs": [
        {
          "internalType": "address",
          "name": "addr",
          "type": "address"
        }
      ],
      "name": "totalCapitalHeldBy",
      "outputs": [
        {
          "internalType": "uint256",
          "name": "eligibleAmount",
          "type": "uint256"
        },
        {
          "internalType": "uint256",
          "name": "totalAmount",
          "type": "uint256"
        }
      ],
      "stateMutability": "view",
      "type": "function"
    },
    {
      "inputs": [
        {
          "internalType": "address",
          "name": "addr",
          "type": "address"
        }
      ],
      "name": "totalGFIHeldBy",
      "outputs": [
        {
          "internalType": "uint256",
          "name": "eligibleAmount",
          "type": "uint256"
        },
        {
          "internalType": "uint256",
          "name": "totalAmount",
          "type": "uint256"
        }
      ],
      "stateMutability": "view",
      "type": "function"
    },
    {
      "inputs": [],
      "name": "totalMemberScores",
      "outputs": [
        {
          "internalType": "uint256",
          "name": "eligibleTotal",
          "type": "uint256"
        },
        {
          "internalType": "uint256",
          "name": "nextEpochTotal",
          "type": "uint256"
        }
      ],
      "stateMutability": "view",
      "type": "function"
    },
    {
      "inputs": [],
      "name": "unpause",
      "outputs": [],
      "stateMutability": "nonpayable",
      "type": "function"
    },
    {
      "inputs": [
        {
          "internalType": "address",
          "name": "addr",
          "type": "address"
        }
      ],
      "name": "votingPower",
      "outputs": [
        {
          "internalType": "uint256",
          "name": "",
          "type": "uint256"
        }
      ],
      "stateMutability": "view",
      "type": "function"
    },
    {
      "inputs": [
        {
          "components": [
            {
              "components": [
                {
                  "internalType": "uint256",
                  "name": "id",
                  "type": "uint256"
                },
                {
                  "internalType": "uint256",
                  "name": "amount",
                  "type": "uint256"
                }
              ],
              "internalType": "struct ERC20Withdrawal[]",
              "name": "gfiPositions",
              "type": "tuple[]"
            },
            {
              "internalType": "uint256[]",
              "name": "capitalPositions",
              "type": "uint256[]"
            }
          ],
          "internalType": "struct Withdrawal",
          "name": "withdrawal",
          "type": "tuple"
        }
      ],
      "name": "withdraw",
      "outputs": [],
      "stateMutability": "nonpayable",
      "type": "function"
    }
  ],
  "transactionHash": "0xec48f0cb1088ff61d43e0754691464f474b6f7228d4a44fae2072bb8c011e5e1",
  "args": [
    "0xd16BC944Bf20c86c4ED47Ce1a330a18538674C83"
  ],
  "solcInputHash": "eac65dc40e06b4b044f441f03029567a",
  "bytecode": "0x60a06040523480156200001157600080fd5b5060405162002c9b38038062002c9b833981016040819052620000349162000046565b6001600160a01b031660805262000078565b6000602082840312156200005957600080fd5b81516001600160a01b03811681146200007157600080fd5b9392505050565b608051612b35620001666000396000818161026d01528181610325015281816104700152818161055201528181610680015281816108020152818161091c01528181610a1101528181610c2301528181610cd201528181610e1d01528181610ec601528181610f6e01528181610fce01528181611002015281816110a20152818161114b01528181611534015281816115fd0152818161168001528181611749015281816117e001528181611886015281816118c9015281816119090152818161199f01528181611a4401528181611af201528181611bc001528181611c440152611f600152612b356000f3fe608060405234801561001057600080fd5b50600436106100f65760003560e01c80638129fc1c116100925780638129fc1c146101dc5780638456cb59146101e4578063ad4590a3146101ec578063c07473f6146101ff578063d1fe6c5314610212578063d4564be614610225578063dc01f60d14610238578063f26a372c1461024b578063fe07bb071461025e57600080fd5b8063150b7a02146100fb57806317bc7d471461013057806324704b54146101515780633f4ba83a1461016457806359634d701461016e5780635c975abb1461018157806370bb45b3146101975780637153c1441461019f57806377bb1411146101bf575b600080fd5b61011a61010936600461259c565b630a85bd0160e11b95945050505050565b604051610127919061263b565b60405180910390f35b61014361013e366004612650565b610266565b604051908152602001610127565b61014361015f366004612685565b61031e565b61016c6103cd565b005b61016c61017c3660046126bf565b610403565b60655460ff166040519015158152602001610127565b6101436109c0565b6101b26101ad3660046126bf565b610ab5565b60405161012791906126f4565b6101c7610cca565b60408051928352602083019190915201610127565b61016c610d67565b61016c610de2565b6101c76101fa36600461275a565b610e15565b61014361020d36600461275a565b610ebe565b6101c761022036600461275a565b610f66565b6101c761023336600461275a565b610fc6565b61014361024636600461275a565b610ffb565b610143610259366004612777565b61109b565b61016c6110fc565b600061029a7f00000000000000000000000000000000000000000000000000000000000000006001600160a01b03166111d0565b6040516317bc7d4760e01b81526001600160a01b038681166004830152602482018690526044820185905291909116906317bc7d4790606401602060405180830381865afa1580156102f0573d6000803e3d6000fd5b505050506040513d601f19601f820116820180604052508101906103149190612790565b90505b9392505050565b60006103527f00000000000000000000000000000000000000000000000000000000000000006001600160a01b03166111d0565b6040516366191d7760e11b815260048101859052602481018490526001600160a01b03919091169063cc323aee90604401602060405180830381865afa1580156103a0573d6000803e3d6000fd5b505050506040513d601f19601f820116820180604052508101906103c49190612790565b90505b92915050565b6040805180820190915263580b2a9160e01b8152633828b3cf60e21b60208201526103f881336112c0565b610400611341565b50565b60026001540361042e5760405162461bcd60e51b8152600401610425906127a9565b60405180910390fd5b600260015560655460ff16156104565760405162461bcd60e51b8152600401610425906127e0565b600080610463838061280a565b905011156105365761049d7f00000000000000000000000000000000000000000000000000000000000000006001600160a01b03166113ce565b6001600160a01b0316636352211e6104b5848061280a565b60008181106104c6576104c661285b565b905060400201600001356040518263ffffffff1660e01b81526004016104ee91815260200190565b602060405180830381865afa15801561050b573d6000803e3d6000fd5b505050506040513d601f19601f8201168201806040525081019061052f9190612871565b9050610614565b6000610545602084018461288e565b905011156106145761057f7f00000000000000000000000000000000000000000000000000000000000000006001600160a01b031661147d565b6001600160a01b0316636352211e61059a602085018561288e565b60008181106105ab576105ab61285b565b905060200201356040518263ffffffff1660e01b81526004016105d091815260200190565b602060405180830381865afa1580156105ed573d6000803e3d6000fd5b505050506040513d601f19601f820116820180604052508101906106119190612871565b90505b6001600160a01b03811661063b576040516318b1e08760e21b815260040160405180910390fd5b60005b610648838061280a565b90508110156107b957600061065d848061280a565b8381811061066d5761066d61285b565b90506040020160000135905060006106ad7f00000000000000000000000000000000000000000000000000000000000000006001600160a01b03166113ce565b6001600160a01b0316636352211e836040518263ffffffff1660e01b81526004016106da91815260200190565b602060405180830381865afa1580156106f7573d6000803e3d6000fd5b505050506040513d601f19601f8201168201806040525081019061071b9190612871565b90506001600160a01b0381166107445760405163c4236a1d60e01b815260040160405180910390fd5b836001600160a01b0316816001600160a01b0316146107765760405163edc7c73960e01b815260040160405180910390fd5b6107a382610784878061280a565b868181106107945761079461285b565b9050604002016020013561152c565b50505080806107b1906128d8565b91505061063e565b5060005b6107ca602084018461288e565b90508110156109165760006107e2602085018561288e565b838181106107f2576107f261285b565b905060200201359050600061082f7f00000000000000000000000000000000000000000000000000000000000000006001600160a01b031661147d565b6001600160a01b0316636352211e836040518263ffffffff1660e01b815260040161085c91815260200190565b602060405180830381865afa158015610879573d6000803e3d6000fd5b505050506040513d601f19601f8201168201806040525081019061089d9190612871565b90506001600160a01b0381166108c65760405163c4236a1d60e01b815260040160405180910390fd5b836001600160a01b0316816001600160a01b0316146108f85760405163edc7c73960e01b815260040160405180910390fd5b6109018261167a565b5050808061090e906128d8565b9150506107bd565b506109497f00000000000000000000000000000000000000000000000000000000000000006001600160a01b03166111d0565b6001600160a01b031663c37f81a3826040518263ffffffff1660e01b815260040161097491906128ff565b6020604051808303816000875af1158015610993573d6000803e3d6000fd5b505050506040513d601f19601f820116820180604052508101906109b79190612790565b50506001805550565b60006002600154036109e45760405162461bcd60e51b8152600401610425906127a9565b600260015560655460ff1615610a0c5760405162461bcd60e51b8152600401610425906127e0565b610a3e7f00000000000000000000000000000000000000000000000000000000000000006001600160a01b03166111d0565b6001600160a01b0316635763dbd0336040518263ffffffff1660e01b8152600401610a6991906128ff565b6020604051808303816000875af1158015610a88573d6000803e3d6000fd5b505050506040513d601f19601f82011682018060405250810190610aac9190612790565b90506001805590565b610ad960405180606001604052806000815260200160008152602001606081525090565b600260015403610afb5760405162461bcd60e51b8152600401610425906127a9565b600260015560655460ff1615610b235760405162461bcd60e51b8152600401610425906127e0565b813515610b3a57610b3482356117d8565b60208201525b6000610b49602084018461280a565b905090508067ffffffffffffffff811115610b6657610b66612913565b604051908082528060200260200182016040528015610b8f578160200160208202803683370190505b50604083015260005b81811015610c1d576000610baf602086018661280a565b83818110610bbf57610bbf61285b565b905060400201803603810190610bd59190612929565b9050610be981600001518260200151611aea565b84604001518381518110610bff57610bff61285b565b60209081029190910101525080610c15816128d8565b915050610b98565b50610c507f00000000000000000000000000000000000000000000000000000000000000006001600160a01b03166111d0565b6001600160a01b031663c37f81a3336040518263ffffffff1660e01b8152600401610c7b91906128ff565b6020604051808303816000875af1158015610c9a573d6000803e3d6000fd5b505050506040513d601f19601f82011682018060405250810190610cbe9190612790565b82525060018055919050565b600080610cff7f00000000000000000000000000000000000000000000000000000000000000006001600160a01b03166111d0565b6001600160a01b03166377bb14116040518163ffffffff1660e01b81526004016040805180830381865afa158015610d3b573d6000803e3d6000fd5b505050506040513d601f19601f82011682018060405250810190610d5f919061298f565b915091509091565b600054610100900460ff1680610d80575060005460ff16155b610d9c5760405162461bcd60e51b8152600401610425906129b3565b600054610100900460ff16158015610dbe576000805461ffff19166101011790555b610dc6611d67565b610dce611dd6565b8015610400576000805461ff001916905550565b6040805180820190915263580b2a9160e01b8152633828b3cf60e21b6020820152610e0d81336112c0565b610400611e4b565b600080610e4a7f00000000000000000000000000000000000000000000000000000000000000006001600160a01b03166113ce565b6001600160a01b031663427d7432846040518263ffffffff1660e01b8152600401610e7591906128ff565b6040805180830381865afa158015610e91573d6000803e3d6000fd5b505050506040513d601f19601f82011682018060405250810190610eb5919061298f565b91509150915091565b600080610ef37f00000000000000000000000000000000000000000000000000000000000000006001600160a01b03166113ce565b6001600160a01b031663427d7432846040518263ffffffff1660e01b8152600401610f1e91906128ff565b6040805180830381865afa158015610f3a573d6000803e3d6000fd5b505050506040513d601f19601f82011682018060405250810190610f5e919061298f565b949350505050565b600080610f9b7f00000000000000000000000000000000000000000000000000000000000000006001600160a01b03166111d0565b6001600160a01b0316638a440b00846040518263ffffffff1660e01b8152600401610e7591906128ff565b600080610e4a7f00000000000000000000000000000000000000000000000000000000000000006001600160a01b031661147d565b600061102f7f00000000000000000000000000000000000000000000000000000000000000006001600160a01b03166111d0565b6001600160a01b031663dc01f60d836040518263ffffffff1660e01b815260040161105a91906128ff565b602060405180830381865afa158015611077573d6000803e3d6000fd5b505050506040513d601f19601f820116820180604052508101906103c79190612790565b60006110cf7f00000000000000000000000000000000000000000000000000000000000000006001600160a01b0316611ea3565b6001600160a01b031663f26a372c836040518263ffffffff1660e01b815260040161105a91815260200190565b60026001540361111e5760405162461bcd60e51b8152600401610425906127a9565b600260015560655460ff16156111465760405162461bcd60e51b8152600401610425906127e0565b6111787f00000000000000000000000000000000000000000000000000000000000000006001600160a01b03166111d0565b6001600160a01b031663fe07bb076040518163ffffffff1660e01b8152600401600060405180830381600087803b1580156111b257600080fd5b505af11580156111c6573d6000803e3d6000fd5b5050505060018055565b6000816001600160a01b031663f887ea406040518163ffffffff1660e01b8152600401602060405180830381865afa158015611210573d6000803e3d6000fd5b505050506040513d601f19601f820116820180604052508101906112349190612871565b6001600160a01b0316630c0450127f037db0999be9065c5f1306135b75a6ae2af104ed9f0d72669950e21e87a33f766040518263ffffffff1660e01b815260040161127f919061263b565b602060405180830381865afa15801561129c573d6000803e3d6000fd5b505050506040513d601f19601f820116820180604052508101906103c79190612871565b6001600160a01b0381166112e75760405163d92e233d60e01b815260040160405180910390fd5b60006112fa83825b602002015183611f52565b8061130b575061130b8360016112ef565b90508061133c5760405163889a56bb60e01b81523060048201526001600160a01b0383166024820152604401610425565b505050565b60655460ff1661138a5760405162461bcd60e51b815260206004820152601460248201527314185d5cd8589b194e881b9bdd081c185d5cd95960621b6044820152606401610425565b6065805460ff191690557f5db9ee0a495bf2e6ff9c91a7834c1ba4fdd244a5e8aa4e537bd38aeae4b073aa335b6040516113c491906128ff565b60405180910390a1565b6000816001600160a01b031663f887ea406040518163ffffffff1660e01b8152600401602060405180830381865afa15801561140e573d6000803e3d6000fd5b505050506040513d601f19601f820116820180604052508101906114329190612871565b6001600160a01b0316630c0450127fd868f4dc8c9898a16c7fb1d46b72f8d965b9f6eb2d5e4c8ce3521ff7098494646040518263ffffffff1660e01b815260040161127f919061263b565b6000816001600160a01b031663f887ea406040518163ffffffff1660e01b8152600401602060405180830381865afa1580156114bd573d6000803e3d6000fd5b505050506040513d601f19601f820116820180604052508101906114e19190612871565b6001600160a01b0316630c0450127f41955c1f8b03d71c758505b280ad2212728a84f70132cc1c4cc456cfcf0266276040518263ffffffff1660e01b815260040161127f919061263b565b6000336115617f00000000000000000000000000000000000000000000000000000000000000006001600160a01b03166113ce565b6001600160a01b0316636352211e856040518263ffffffff1660e01b815260040161158e91815260200190565b602060405180830381865afa1580156115ab573d6000803e3d6000fd5b505050506040513d601f19601f820116820180604052508101906115cf9190612871565b6001600160a01b0316146115f8573360405163199613ad60e11b815260040161042591906128ff565b61162a7f00000000000000000000000000000000000000000000000000000000000000006001600160a01b03166113ce565b604051630441a3e760e41b815260048101859052602481018490526001600160a01b03919091169063441a3e70906044016020604051808303816000875af11580156103a0573d6000803e3d6000fd5b336116ad7f00000000000000000000000000000000000000000000000000000000000000006001600160a01b031661147d565b6001600160a01b0316636352211e836040518263ffffffff1660e01b81526004016116da91815260200190565b602060405180830381865afa1580156116f7573d6000803e3d6000fd5b505050506040513d601f19601f8201168201806040525081019061171b9190612871565b6001600160a01b031614611744573360405163199613ad60e11b815260040161042591906128ff565b6117767f00000000000000000000000000000000000000000000000000000000000000006001600160a01b031661147d565b6001600160a01b0316632e1a7d4d826040518263ffffffff1660e01b81526004016117a391815260200190565b600060405180830381600087803b1580156117bd57600080fd5b505af11580156117d1573d6000803e3d6000fd5b5050505050565b60008061180d7f00000000000000000000000000000000000000000000000000000000000000006001600160a01b031661205d565b6001600160a01b03166370a08231306040518263ffffffff1660e01b815260040161183891906128ff565b602060405180830381865afa158015611855573d6000803e3d6000fd5b505050506040513d601f19601f820116820180604052508101906118799190612790565b90506118c43330856118b37f00000000000000000000000000000000000000000000000000000000000000006001600160a01b031661205d565b6001600160a01b031692919061210c565b6118f67f00000000000000000000000000000000000000000000000000000000000000006001600160a01b031661205d565b6001600160a01b031663095ea7b36119367f00000000000000000000000000000000000000000000000000000000000000006001600160a01b03166113ce565b856040518363ffffffff1660e01b8152600401611954929190612a01565b6020604051808303816000875af1158015611973573d6000803e3d6000fd5b505050506040513d601f19601f820116820180604052508101906119979190612a1a565b5060006119cc7f00000000000000000000000000000000000000000000000000000000000000006001600160a01b03166113ce565b6001600160a01b03166347e7ef2433866040518363ffffffff1660e01b81526004016119f9929190612a01565b6020604051808303816000875af1158015611a18573d6000803e3d6000fd5b505050506040513d601f19601f82011682018060405250810190611a3c9190612790565b905081611a717f00000000000000000000000000000000000000000000000000000000000000006001600160a01b031661205d565b6001600160a01b03166370a08231306040518263ffffffff1660e01b8152600401611a9c91906128ff565b602060405180830381865afa158015611ab9573d6000803e3d6000fd5b505050506040513d601f19601f82011682018060405250810190611add9190612790565b1461031757610317612a3c565b600080611b177f00000000000000000000000000000000000000000000000000000000000000008561216a565b6001811115611b2857611b28612a52565b03611b48578260405163e1d90eaf60e01b815260040161042591906128ff565b604051632142170760e11b815283906001600160a01b038216906342842e0e90611b7a90339030908890600401612a68565b600060405180830381600087803b158015611b9457600080fd5b505af1158015611ba8573d6000803e3d6000fd5b50505050806001600160a01b031663095ea7b3611bed7f00000000000000000000000000000000000000000000000000000000000000006001600160a01b031661147d565b856040518363ffffffff1660e01b8152600401611c0b929190612a01565b600060405180830381600087803b158015611c2557600080fd5b505af1158015611c39573d6000803e3d6000fd5b505050506000611c717f00000000000000000000000000000000000000000000000000000000000000006001600160a01b031661147d565b6001600160a01b031663331ded1a3387876040518463ffffffff1660e01b8152600401611ca093929190612a68565b6020604051808303816000875af1158015611cbf573d6000803e3d6000fd5b505050506040513d601f19601f82011682018060405250810190611ce39190612790565b6040516331a9108f60e11b81526004810186905290915030906001600160a01b03841690636352211e90602401602060405180830381865afa158015611d2d573d6000803e3d6000fd5b505050506040513d601f19601f82011682018060405250810190611d519190612871565b6001600160a01b031603610f5e57610f5e612a3c565b600054610100900460ff1680611d80575060005460ff16155b611d9c5760405162461bcd60e51b8152600401610425906129b3565b600054610100900460ff16158015611dbe576000805461ffff19166101011790555b600180558015610400576000805461ff001916905550565b600054610100900460ff1680611def575060005460ff16155b611e0b5760405162461bcd60e51b8152600401610425906129b3565b600054610100900460ff16158015611e2d576000805461ffff19166101011790555b6065805460ff191690558015610400576000805461ff001916905550565b60655460ff1615611e6e5760405162461bcd60e51b8152600401610425906127e0565b6065805460ff191660011790557f62e78cea01bee320cd4e420270b5ea74000d11b0c9f74754ebdbfc544b05a2586113b73390565b6000816001600160a01b031663f887ea406040518163ffffffff1660e01b8152600401602060405180830381865afa158015611ee3573d6000803e3d6000fd5b505050506040513d601f19601f82011682018060405250810190611f079190612871565b6001600160a01b0316630c0450127f9e14acf7483e54abb417f7f2c0de91a164b71cc6fa1de3303ba7beca61e7d8dc6040518263ffffffff1660e01b815260040161127f919061263b565b6000816001600160a01b03167f00000000000000000000000000000000000000000000000000000000000000006001600160a01b031663f887ea406040518163ffffffff1660e01b8152600401602060405180830381865afa158015611fbc573d6000803e3d6000fd5b505050506040513d601f19601f82011682018060405250810190611fe09190612871565b6001600160a01b0316630c045012856040518263ffffffff1660e01b815260040161200b919061263b565b602060405180830381865afa158015612028573d6000803e3d6000fd5b505050506040513d601f19601f8201168201806040525081019061204c9190612871565b6001600160a01b0316149392505050565b6000816001600160a01b031663f887ea406040518163ffffffff1660e01b8152600401602060405180830381865afa15801561209d573d6000803e3d6000fd5b505050506040513d601f19601f820116820180604052508101906120c19190612871565b6001600160a01b0316630c0450127f6fdcaa094af96c56039c701c590da2284d9e0c364f2dd8ee7d43419f0eefd2936040518263ffffffff1660e01b815260040161127f919061263b565b612164846323b872dd60e01b85858560405160240161212d93929190612a68565b60408051601f198184030181529190526020810180516001600160e01b03166001600160e01b0319909316929092179091526121a3565b50505050565b60006121768383612275565b15612183575060016103c7565b61218d83836122a5565b1561219a575060016103c7565b50600092915050565b60006121f8826040518060400160405280602081526020017f5361666545524332303a206c6f772d6c6576656c2063616c6c206661696c6564815250856001600160a01b03166122b99092919063ffffffff16565b80519091501561133c57808060200190518101906122169190612a1a565b61133c5760405162461bcd60e51b815260206004820152602a60248201527f5361666545524332303a204552433230206f7065726174696f6e20646964206e6044820152691bdd081cdd58d8d9595960b21b6064820152608401610425565b6000612289836001600160a01b03166122c8565b6001600160a01b0316826001600160a01b031614905092915050565b6000612289836001600160a01b0316612377565b60606103148484600085612426565b6000816001600160a01b031663f887ea406040518163ffffffff1660e01b8152600401602060405180830381865afa158015612308573d6000803e3d6000fd5b505050506040513d601f19601f8201168201806040525081019061232c9190612871565b6001600160a01b0316630c0450127f5a31296b3cecaf3aaa3146a140f6ddf6d21caa95e28243dc507d90d7e883be796040518263ffffffff1660e01b815260040161127f919061263b565b6000816001600160a01b031663f887ea406040518163ffffffff1660e01b8152600401602060405180830381865afa1580156123b7573d6000803e3d6000fd5b505050506040513d601f19601f820116820180604052508101906123db9190612871565b6001600160a01b0316630c0450127f7c9945d349966e663465dd2ad9f3ebe33d671877c22c40ca3a051e02e14e15ff6040518263ffffffff1660e01b815260040161127f919061263b565b6060824710156124875760405162461bcd60e51b815260206004820152602660248201527f416464726573733a20696e73756666696369656e742062616c616e636520666f6044820152651c8818d85b1b60d21b6064820152608401610425565b843b6124d55760405162461bcd60e51b815260206004820152601d60248201527f416464726573733a2063616c6c20746f206e6f6e2d636f6e74726163740000006044820152606401610425565b600080866001600160a01b031685876040516124f19190612ab0565b60006040518083038185875af1925050503d806000811461252e576040519150601f19603f3d011682016040523d82523d6000602084013e612533565b606091505b509150915061254382828661254e565b979650505050505050565b6060831561255d575081610317565b82511561256d5782518084602001fd5b8160405162461bcd60e51b81526004016104259190612acc565b6001600160a01b038116811461040057600080fd5b6000806000806000608086880312156125b457600080fd5b85356125bf81612587565b945060208601356125cf81612587565b935060408601359250606086013567ffffffffffffffff808211156125f357600080fd5b818801915088601f83011261260757600080fd5b81358181111561261657600080fd5b89602082850101111561262857600080fd5b9699959850939650602001949392505050565b6001600160e01b031991909116815260200190565b60008060006060848603121561266557600080fd5b833561267081612587565b95602085013595506040909401359392505050565b6000806040838503121561269857600080fd5b50508035926020909101359150565b6000604082840312156126b957600080fd5b50919050565b6000602082840312156126d157600080fd5b813567ffffffffffffffff8111156126e857600080fd5b610f5e848285016126a7565b6000602080835260808301845182850152818501516040850152604085015160608086015281815180845260a0870191508483019350600092505b8083101561274f578351825292840192600192909201919084019061272f565b509695505050505050565b60006020828403121561276c57600080fd5b813561031781612587565b60006020828403121561278957600080fd5b5035919050565b6000602082840312156127a257600080fd5b5051919050565b6020808252601f908201527f5265656e7472616e637947756172643a207265656e7472616e742063616c6c00604082015260600190565b60208082526010908201526f14185d5cd8589b194e881c185d5cd95960821b604082015260600190565b6000808335601e1984360301811261282157600080fd5b83018035915067ffffffffffffffff82111561283c57600080fd5b6020019150600681901b360382131561285457600080fd5b9250929050565b634e487b7160e01b600052603260045260246000fd5b60006020828403121561288357600080fd5b815161031781612587565b6000808335601e198436030181126128a557600080fd5b83018035915067ffffffffffffffff8211156128c057600080fd5b6020019150600581901b360382131561285457600080fd5b6000600182016128f857634e487b7160e01b600052601160045260246000fd5b5060010190565b6001600160a01b0391909116815260200190565b634e487b7160e01b600052604160045260246000fd5b60006040828403121561293b57600080fd5b6040516040810181811067ffffffffffffffff8211171561296c57634e487b7160e01b600052604160045260246000fd5b604052823561297a81612587565b81526020928301359281019290925250919050565b600080604083850312156129a257600080fd5b505080516020909101519092909150565b6020808252602e908201527f496e697469616c697a61626c653a20636f6e747261637420697320616c72656160408201526d191e481a5b9a5d1a585b1a5e995960921b606082015260800190565b6001600160a01b03929092168252602082015260400190565b600060208284031215612a2c57600080fd5b8151801515811461031757600080fd5b634e487b7160e01b600052600160045260246000fd5b634e487b7160e01b600052602160045260246000fd5b6001600160a01b039384168152919092166020820152604081019190915260600190565b60005b83811015612aa7578181015183820152602001612a8f565b50506000910152565b60008251612ac2818460208701612a8c565b9190910192915050565b6020815260008251806020840152612aeb816040850160208701612a8c565b601f01601f1916919091016040019291505056fea26469706673582212204b24c1373d07cd3e09da4580551d40ba1bca31859581a28e546f814614b5fcf864736f6c63430008100033",
  "devdoc": {
    "author": "Goldfinch",
    "kind": "dev",
    "methods": {
      "calculateMemberScore(uint256,uint256)": {
        "params": {
          "capital": "amount of capital to estimate with, denominated in USDC",
          "gfi": "amount of GFI to estimate with"
        },
        "returns": {
          "_0": "the resulting score"
        }
      },
      "claimableRewards(address)": {
        "params": {
          "addr": "the address to check claimable rewards for"
        },
        "returns": {
          "_0": "how many rewards could be claimed by a call to `collectRewards`"
        }
      },
      "collectRewards()": {
        "returns": {
          "_0": "how many rewards were collected and sent to caller"
        }
      },
      "deposit((uint256,(address,uint256)[]))": {
        "params": {
          "deposit": "struct describing all the assets to deposit"
        },
        "returns": {
          "result": "ids all of the ids of the created depoits, in the same order as deposit. If GFI is  present, it will be the first id."
        }
      },
      "estimateMemberScore(address,int256,int256)": {
        "params": {
          "capital": "the change in gfi holdings, denominated in USDC",
          "gfi": "the change in gfi holdings, denominated in GFI",
          "memberAddress": "the member's address"
        },
        "returns": {
          "score": "resulting score for the member given the GFI and capital changes"
        }
      },
      "estimateRewardsFor(uint256)": {
        "params": {
          "epoch": "epoch to estimate the rewards of"
        },
        "returns": {
          "_0": "rewards associated with `epoch`"
        }
      },
      "memberScoreOf(address)": {
        "details": "if eligibleScore == totalScore then there are no changes between now and the next epoch",
        "params": {
          "addr": "the owner"
        },
        "returns": {
          "eligibleScore": "the currently eligible score",
          "totalScore": "the total score that will be eligible next epoch"
        }
      },
      "onERC721Received(address,address,uint256,bytes)": {
        "details": "Whenever an {IERC721} `tokenId` token is transferred to this contract via {IERC721-safeTransferFrom} by `operator` from `from`, this function is called. It must return its Solidity selector to confirm the token transfer. If any other value is returned or the interface is not implemented by the recipient, the transfer will be reverted. The selector can be obtained in Solidity with `IERC721.onERC721Received.selector`."
      },
      "paused()": {
        "details": "Returns true if the contract is paused, and false otherwise."
      },
      "totalCapitalHeldBy(address)": {
        "params": {
          "addr": "the owner"
        },
        "returns": {
          "eligibleAmount": "how much USDC of capital is currently eligible for rewards",
          "totalAmount": "how much  USDC of capital is currently eligible for rewards"
        }
      },
      "totalGFIHeldBy(address)": {
        "params": {
          "addr": "the owner"
        },
        "returns": {
          "eligibleAmount": "how much GFI is currently eligible for rewards",
          "totalAmount": "how much GFI is currently eligible for rewards"
        }
      },
      "totalMemberScores()": {
        "returns": {
          "eligibleTotal": "sum of all member scores that are currently eligible",
          "nextEpochTotal": "sum of all member scores that will be eligible next epoch"
        }
      },
      "votingPower(address)": {
        "params": {
          "addr": "the address to check the voting power of"
        },
        "returns": {
          "_0": "the voting power"
        }
      },
      "withdraw(((uint256,uint256)[],uint256[]))": {
        "params": {
          "withdrawal": "all of the GFI and Capital ids to withdraw"
        }
      }
    },
    "title": "MembershipOrchestrator",
    "version": 1
  },
  "userdoc": {
    "errors": {
      "CannotWithdrawForAddress0()": [
        {
          "notice": "Thrown when withdrawing for a position held by address 0"
        }
      ],
      "CannotWithdrawForMultipleOwners()": [
        {
          "notice": "Thrown when withdrawing for multiple owners"
        }
      ],
      "CannotWithdrawUnownedAsset(address)": [
        {
          "notice": "Thrown when a non-owner attempts to withdraw an asset"
        }
      ],
      "MustWithdrawSomething()": [
        {
          "notice": "Thrown when attempting to withdraw nothing"
        }
      ],
      "UnsupportedAssetAddress(address)": [
        {
          "notice": "Thrown when anything is called with an unsupported asset"
        }
      ]
    },
    "kind": "user",
    "methods": {
      "calculateMemberScore(uint256,uint256)": {
        "notice": "Calculate what the Membership Score would be if a `gfi` amount of GFI and `capital` amount  of Capital denominated in USDC were deposited."
      },
      "claimableRewards(address)": {
        "notice": "Check how many rewards are claimable at this moment in time for caller."
      },
      "collectRewards()": {
        "notice": "Collect all membership rewards for the caller."
      },
      "deposit((uint256,(address,uint256)[]))": {
        "notice": "Deposit multiple assets defined in `multiDeposit`. Assets can include GFI, Staked Fidu,  and others."
      },
      "estimateMemberScore(address,int256,int256)": {
        "notice": "Estimate the score for an existing member, given some changes in GFI and capital"
      },
      "estimateRewardsFor(uint256)": {
        "notice": "Estimate rewards for a given epoch. For epochs at or before lastFinalizedEpoch  this will be the fixed, accurate reward for the epoch. For the current and other  non-finalized epochs, this will be the value as if the epoch were finalized in that  moment."
      },
      "finalizeEpochs()": {
        "notice": "Finalize all unfinalized epochs. Causes the reserve splitter to distribute  if there are unfinalized epochs so all possible rewards are distributed."
      },
      "initialize()": {
        "notice": "Initialize the contract"
      },
      "memberScoreOf(address)": {
        "notice": "Get the member score of `addr`"
      },
      "totalCapitalHeldBy(address)": {
        "notice": "Get all capital, denominated in USDC, in Membership held by `addr`. This returns the current  eligible amount and the total USDC value of capital."
      },
      "totalGFIHeldBy(address)": {
        "notice": "Get all GFI in Membership held by `addr`. This returns the current eligible amount and the  total amount of GFI."
      },
      "totalMemberScores()": {
        "notice": "Get the sum of all member scores that are currently eligible and that will be eligible next epoch"
      },
      "votingPower(address)": {
        "notice": "Check the voting power of a given address"
      },
      "withdraw(((uint256,uint256)[],uint256[]))": {
        "notice": "Withdraw multiple assets defined in `multiWithdraw`. Assets can be GFI or capital  positions ids. Caller must have been permitted to act upon all of the positions."
      }
    },
    "notice": "Externally facing gateway to all Goldfinch membership functionality.",
    "version": 1
  },
  "storageLayout": {
    "storage": [
      {
        "astId": 663,
        "contract": "contracts/protocol/core/MembershipOrchestrator.sol:MembershipOrchestrator",
        "label": "_initialized",
        "offset": 0,
        "slot": "0",
        "type": "t_bool"
      },
      {
        "astId": 666,
        "contract": "contracts/protocol/core/MembershipOrchestrator.sol:MembershipOrchestrator",
        "label": "_initializing",
        "offset": 1,
        "slot": "0",
        "type": "t_bool"
      },
      {
        "astId": 830,
        "contract": "contracts/protocol/core/MembershipOrchestrator.sol:MembershipOrchestrator",
        "label": "_status",
        "offset": 0,
        "slot": "1",
        "type": "t_uint256"
      },
      {
        "astId": 873,
        "contract": "contracts/protocol/core/MembershipOrchestrator.sol:MembershipOrchestrator",
        "label": "__gap",
        "offset": 0,
        "slot": "2",
        "type": "t_array(t_uint256)49_storage"
      },
      {
        "astId": 3021,
        "contract": "contracts/protocol/core/MembershipOrchestrator.sol:MembershipOrchestrator",
        "label": "__gap",
        "offset": 0,
        "slot": "51",
        "type": "t_array(t_uint256)50_storage"
      },
      {
        "astId": 724,
        "contract": "contracts/protocol/core/MembershipOrchestrator.sol:MembershipOrchestrator",
        "label": "_paused",
        "offset": 0,
        "slot": "101",
        "type": "t_bool"
      },
      {
        "astId": 815,
        "contract": "contracts/protocol/core/MembershipOrchestrator.sol:MembershipOrchestrator",
        "label": "__gap",
        "offset": 0,
        "slot": "102",
        "type": "t_array(t_uint256)49_storage"
      }
    ],
    "types": {
      "t_array(t_uint256)49_storage": {
        "base": "t_uint256",
        "encoding": "inplace",
        "label": "uint256[49]",
        "numberOfBytes": "1568"
      },
      "t_array(t_uint256)50_storage": {
        "base": "t_uint256",
        "encoding": "inplace",
        "label": "uint256[50]",
        "numberOfBytes": "1600"
      },
      "t_bool": {
        "encoding": "inplace",
        "label": "bool",
        "numberOfBytes": "1"
      },
      "t_uint256": {
        "encoding": "inplace",
        "label": "uint256",
        "numberOfBytes": "32"
      }
    }
  }
}