{
  "address": "0x9C74239A7A8a3969F4E0FdB3e592D64a60FB947f",
  "abi": [
    {
      "inputs": [],
      "stateMutability": "nonpayable",
      "type": "constructor"
    },
    {
      "inputs": [
        {
          "internalType": "uint256",
          "name": "periodsInTerm",
          "type": "uint256"
        },
        {
          "internalType": "uint256",
          "name": "periodsPerPrincipalPeriod",
          "type": "uint256"
        },
        {
          "internalType": "uint256",
          "name": "periodsPerInterestPeriod",
          "type": "uint256"
        },
        {
          "internalType": "uint256",
          "name": "gracePrincipalPeriods",
          "type": "uint256"
        }
      ],
      "name": "createSchedule",
      "outputs": [
        {
          "internalType": "contract ISchedule",
          "name": "",
          "type": "address"
        }
      ],
      "stateMutability": "nonpayable",
      "type": "function"
    },
    {
      "inputs": [
        {
          "internalType": "uint256",
          "name": "periodsInTerm",
          "type": "uint256"
        },
        {
          "internalType": "uint256",
          "name": "periodsPerPrincipalPeriod",
          "type": "uint256"
        },
        {
          "internalType": "uint256",
          "name": "periodsPerInterestPeriod",
          "type": "uint256"
        },
        {
          "internalType": "uint256",
          "name": "gracePrincipalPeriods",
          "type": "uint256"
        }
      ],
      "name": "getSchedule",
      "outputs": [
        {
          "internalType": "contract ISchedule",
          "name": "",
          "type": "address"
        }
      ],
      "stateMutability": "view",
      "type": "function"
    },
    {
      "inputs": [],
      "name": "periodMapper",
      "outputs": [
        {
          "internalType": "contract MonthlyPeriodMapper",
          "name": "",
          "type": "address"
        }
      ],
      "stateMutability": "view",
      "type": "function"
    }
  ],
  "transactionHash": "0xbf2d381084fe99af1459fe36a25468e7af9860c49b3d7c34e52d7f26d90c99d1",
  "args": [],
  "numDeployments": 1,
  "solcInputHash": "53bc22ef9840d85c0b702ac8db87cc08",
  "bytecode": "0x608060405234801561001057600080fd5b5060405161001d9061005f565b604051809103906000f080158015610039573d6000803e3d6000fd5b50600080546001600160a01b0319166001600160a01b039290921691909117905561006c565b610388806111f983390190565b61117e8061007b6000396000f3fe608060405234801561001057600080fd5b50600436106100415760003560e01c80630b5d0e42146100465780632e2aa6471461006f578063e30fb4d914610077575b600080fd5b6100596100543660046101fe565b61008a565b604051610066919061022f565b60405180910390f35b61005961014b565b6100596100853660046101fe565b61015a565b600080610099868686866101b4565b6000818152600160205260409020549091506001600160a01b031680156100c35791506101439050565b60008060009054906101000a90046001600160a01b0316888888886040516100ea906101f1565b6100f8959493929190610243565b604051809103906000f080158015610114573d6000803e3d6000fd5b5060009384526001602052604090932080546001600160a01b0319166001600160a01b03851617905550909150505b949350505050565b6000546001600160a01b031681565b600080610169868686866101b4565b6000818152600160205260409020549091506001600160a01b0316806101aa5760405162461bcd60e51b81526004016101a190610271565b60405180910390fd5b9695505050505050565b60006060858585856040516020016101cf94939291906102a1565b60408051808303601f1901815291905280516020909101209695505050505050565b610e8c806102bd83390190565b60008060008060808587031215610213578384fd5b5050823594602084013594506040840135936060013592509050565b6001600160a01b0391909116815260200190565b6001600160a01b03959095168552602085019390935260408401919091526060830152608082015260a00190565b60208082526016908201527514d8da19591d5b1948191bd95cdb89dd08195e1a5cdd60521b604082015260600190565b9384526020840192909252604083015260608201526080019056fe6101206040523480156200001257600080fd5b5060405162000e8c38038062000e8c833981016040819052620000359162000181565b6001600160a01b038516620000675760405162461bcd60e51b81526004016200005e90620001f4565b60405180910390fd5b600084116200008a5760405162461bcd60e51b81526004016200005e90620001f4565b60008311620000ad5760405162461bcd60e51b81526004016200005e90620001f4565b60008211620000d05760405162461bcd60e51b81526004016200005e90620001f4565b828481620000da57fe5b0615620000fb5760405162461bcd60e51b81526004016200005e906200020f565b8184816200010557fe5b0615620001265760405162461bcd60e51b81526004016200005e90620001d6565b60008385816200013257fe5b049050808210620001575760405162461bcd60e51b81526004016200005e906200022d565b5060609490941b6001600160601b03191660805260a09290925260e05260c052610100526200024a565b600080600080600060a0868803121562000199578081fd5b85516001600160a01b0381168114620001b0578182fd5b602087015160408801516060890151608090990151929a91995097965090945092505050565b6020808252600490820152630505049560e41b604082015260600190565b6020808252600190820152602d60f91b604082015260600190565b6020808252600490820152630505050560e41b604082015260600190565b60208082526003908201526204750560ec1b604082015260600190565b60805160601c60a05160c05160e05161010051610ba0620002ec6000398061040b528061048652806105ed52806107b7528061082e52508061042f5280610632528061065e52806107dc5280610a2752508061038952806104aa5280610741528061099a52508061036852806104ce52806105ad5280610611528061078252508061027552806102bd52806104f552806106b452806108c25250610ba06000f3fe608060405234801561001057600080fd5b50600436106100eb5760003560e01c80639245dad6116100925780639245dad614610195578063a2af04ff146101b5578063a5196b6d146101c8578063ac086413146101d0578063b35e0d46146101d8578063d47a6e82146101e0578063df3dc091146101f3578063e08cf88314610206578063f755f0001461020e576100eb565b806308194cc8146100f05780630d0e71fb146101195780632e2aa6471461012c57806334a88f431461014157806356bd01191461015457806367f9042514610167578063875476f31461016f5780638ba6bcb014610182575b600080fd5b6101036100fe366004610ace565b610216565b6040516101109190610b61565b60405180910390f35b610103610127366004610ace565b610248565b610134610273565b6040516101109190610afa565b61010361014f366004610a9e565b610297565b610103610162366004610ace565b610342565b610103610361565b61010361017d366004610ace565b6103b2565b610103610190366004610ace565b6103da565b6101a86101a3366004610ace565b6103f3565b6040516101109190610aef565b6101036101c3366004610ace565b610466565b610103610484565b6101036104a8565b6101036104cc565b6101036101ee366004610ace565b6104f0565b610103610201366004610a9e565b6105da565b6101036105e6565b61010361065c565b6000806102238484610248565b90506000811161023457600061023e565b61023e8482610680565b9150505b92915050565b600061026c61025f61025a85856104f0565b610739565b610267610361565b610765565b9392505050565b7f000000000000000000000000000000000000000000000000000000000000000081565b6000806102a38361077b565b60405163b41e7f4760e01b81529091506001600160a01b037f0000000000000000000000000000000000000000000000000000000000000000169063b41e7f47906102f2908490600401610b61565b60206040518083038186803b15801561030a57600080fd5b505afa15801561031e573d6000803e3d6000fd5b505050506040513d601f19601f8201168201806040525081019061026c9190610ab6565b600061026c61035961035485856104f0565b6107b0565b6102676105e6565b60006103ad7f00000000000000000000000000000000000000000000000000000000000000007f0000000000000000000000000000000000000000000000000000000000000000610806565b905090565b6000806103bf8484610342565b9050600081116103d057600061023e565b61023e8482610822565b600061026c6103e98484610857565b6102678585610880565b60008282108061026c575082821015801561026c57507f000000000000000000000000000000000000000000000000000000000000000061045e7f000000000000000000000000000000000000000000000000000000000000000061045886866104f0565b90610806565b109392505050565b600061026c6104758484610216565b61047f85856103b2565b6108a9565b7f000000000000000000000000000000000000000000000000000000000000000081565b7f000000000000000000000000000000000000000000000000000000000000000081565b7f000000000000000000000000000000000000000000000000000000000000000081565b6000807f00000000000000000000000000000000000000000000000000000000000000006001600160a01b031663f8549af9846040518263ffffffff1660e01b815260040161053f9190610b61565b60206040518083038186803b15801561055757600080fd5b505afa15801561056b573d6000803e3d6000fd5b505050506040513d601f19601f8201168201806040525081019061058f9190610ab6565b9050600061059c856108b9565b90506105d16105ab838361095c565b7f0000000000000000000000000000000000000000000000000000000000000000610765565b95945050505050565b6000806102a3836108b9565b60006103ad7f00000000000000000000000000000000000000000000000000000000000000006106567f00000000000000000000000000000000000000000000000000000000000000007f0000000000000000000000000000000000000000000000000000000000000000610806565b90610976565b7f000000000000000000000000000000000000000000000000000000000000000081565b60008061068c83610992565b9050600061069a85836109be565b60405163b41e7f4760e01b81529091506001600160a01b037f0000000000000000000000000000000000000000000000000000000000000000169063b41e7f47906106e9908490600401610b61565b60206040518083038186803b15801561070157600080fd5b505afa158015610715573d6000803e3d6000fd5b505050506040513d601f19601f820116820180604052508101906105d19190610ab6565b6000610242827f0000000000000000000000000000000000000000000000000000000000000000610806565b6000818310610774578161026c565b5090919050565b60006102427f00000000000000000000000000000000000000000000000000000000000000006107aa846108b9565b906109cd565b60006102427f0000000000000000000000000000000000000000000000000000000000000000610800847f0000000000000000000000000000000000000000000000000000000000000000610806565b9061095c565b600061026c8383604051806020016040528060008152506109df565b60008061068c610852847f00000000000000000000000000000000000000000000000000000000000000006109cd565b610a1f565b6000806108746108656105e6565b61026760016107aa8888610342565b905061023e8482610822565b60008061089d61088e610361565b61026760016107aa8888610248565b905061023e8482610680565b600081831015610774578161026c565b600061024260017f00000000000000000000000000000000000000000000000000000000000000006001600160a01b031663f8549af9856040518263ffffffff1660e01b815260040161090c9190610b61565b60206040518083038186803b15801561092457600080fd5b505afa158015610938573d6000803e3d6000fd5b505050506040513d601f19601f820116820180604052508101906107aa9190610ab6565b600082821161096d5781830361026c565b50600092915050565b600061026c838360405180602001604052806000815250610a4b565b6000610242827f0000000000000000000000000000000000000000000000000000000000000000610a77565b600061026c826107aa856108b9565b60008282018381101561026c57600080fd5b60008183610a095760405162461bcd60e51b8152600401610a009190610b0e565b60405180910390fd5b506000838581610a1557fe5b0495945050505050565b6000610242827f0000000000000000000000000000000000000000000000000000000000000000610a77565b60008184841115610a6f5760405162461bcd60e51b8152600401610a009190610b0e565b505050900390565b600082610a8657506000610242565b82820282848281610a9357fe5b041461026c57600080fd5b600060208284031215610aaf578081fd5b5035919050565b600060208284031215610ac7578081fd5b5051919050565b60008060408385031215610ae0578081fd5b50508035926020909101359150565b901515815260200190565b6001600160a01b0391909116815260200190565b6000602080835283518082850152825b81811015610b3a57858101830151858201604001528201610b1e565b81811115610b4b5783604083870101525b50601f01601f1916929092016040019392505050565b9081526020019056fea26469706673582212202e66ddfb570737e06107a8b11e9937e662ea60083a15ccf6014cba017d887e1164736f6c634300060c0033a2646970667358221220812b78b08df518dbc526197228cc235bfde287b2b394601e34b88e91e6302d4c64736f6c634300060c0033608060405234801561001057600080fd5b50610368806100206000396000f3fe608060405234801561001057600080fd5b50600436106100365760003560e01c8063b41e7f471461003b578063f8549af91461006a575b600080fd5b6100586004803603602081101561005157600080fd5b5035610087565b60408051918252519081900360200190f35b6100586004803603602081101561008057600080fd5b503561009a565b60006100946000836100a7565b92915050565b6000610094600083610123565b60008080806100bb62015180875b04610175565b600c9188016000198101838104949094019650945092509006600101915060006100e5848461020b565b9050808211156100f3578091505b62015180870662015180610108868686610291565b020194508685101561011957600080fd5b5050505092915050565b60008183111561013257600080fd5b60008061014262015180866100b5565b50915091506000806101596201518087816100b557fe5b50600c9586029590910201939093039190910395945050505050565b60008080836226496581018262023ab1600483020590506004600362023ab18302010590910390600062164b09610fa0600185010205905060046105b58202058303601f019250600061098f84605002816101cc57fe5b0590506000605061098f83020585039050600b820560301994909401606402929092018301996002600c90940290910392909201975095509350505050565b6000816001148061021c5750816003145b806102275750816005145b806102325750816007145b8061023d5750816008145b80610248575081600a145b80610253575081600c145b156102605750601f610094565b816002146102705750601e610094565b6102798361030d565b61028457601c610287565b601d5b60ff169392505050565b60006107b28410156102a257600080fd5b838383600062253d8c600460036064611324600c600d19890105890101050205600c80600d19870105600c02600287030361016f02816102de57fe5b0560046105b5600c600d1989010589016112c0010205617d4b8603010103039050809450505050509392505050565b60006004820615801561032257506064820615155b806100945750506101909006159056fea264697066735822122083d97555ab5e807e8be4ea9e1316a131423aebda5accba388ed64c48ec6de25c64736f6c634300060c0033",
  "devdoc": {
    "kind": "dev",
    "methods": {
      "createSchedule(uint256,uint256,uint256,uint256)": {
        "returns": {
          "_0": "schedule the schedule"
        }
      },
      "getSchedule(uint256,uint256,uint256,uint256)": {
        "returns": {
          "_0": "schedule the schedule"
        }
      }
    },
    "version": 1
  },
  "userdoc": {
    "kind": "user",
    "methods": {
      "createSchedule(uint256,uint256,uint256,uint256)": {
        "notice": "Add a schedule with the provided params to the repo"
      },
      "getSchedule(uint256,uint256,uint256,uint256)": {
        "notice": "Get the schedule with the requested params. Reverts if the schedule is not in the repo - see _createSchedule_"
      }
    },
    "notice": "Repository for re-usable schedules that function on calendar month periods. In general periods can be any length, but Warbler maintains a repository of schedules with monthly periods because that's the most common type of schedule used on the Goldfinch protocol.",
    "version": 1
  },
  "storageLayout": {
    "storage": [
      {
        "astId": 29302,
        "contract": "contracts/protocol/core/schedule/MonthlyScheduleRepo.sol:MonthlyScheduleRepo",
        "label": "periodMapper",
        "offset": 0,
        "slot": "0",
        "type": "t_contract(MonthlyPeriodMapper)29290"
      },
      {
        "astId": 29306,
        "contract": "contracts/protocol/core/schedule/MonthlyScheduleRepo.sol:MonthlyScheduleRepo",
        "label": "schedules",
        "offset": 0,
        "slot": "1",
        "type": "t_mapping(t_bytes32,t_address)"
      }
    ],
    "types": {
      "t_address": {
        "encoding": "inplace",
        "label": "address",
        "numberOfBytes": "20"
      },
      "t_bytes32": {
        "encoding": "inplace",
        "label": "bytes32",
        "numberOfBytes": "32"
      },
      "t_contract(MonthlyPeriodMapper)29290": {
        "encoding": "inplace",
        "label": "contract MonthlyPeriodMapper",
        "numberOfBytes": "20"
      },
      "t_mapping(t_bytes32,t_address)": {
        "encoding": "mapping",
        "key": "t_bytes32",
        "label": "mapping(bytes32 => address)",
        "numberOfBytes": "32",
        "value": "t_address"
      }
    }
  }
}