{
  "address": "0xb7BEE8985cf7c1dbb35425c804199a51A5aBE9c5",
  "abi": [
    {
      "inputs": [],
      "stateMutability": "nonpayable",
      "type": "constructor"
    },
    {
      "inputs": [
        {
          "internalType": "uint256",
          "name": "periodsInTerm",
          "type": "uint256"
        },
        {
          "internalType": "uint256",
          "name": "periodsPerPrincipalPeriod",
          "type": "uint256"
        },
        {
          "internalType": "uint256",
          "name": "periodsPerInterestPeriod",
          "type": "uint256"
        },
        {
          "internalType": "uint256",
          "name": "gracePrincipalPeriods",
          "type": "uint256"
        }
      ],
      "name": "createSchedule",
      "outputs": [
        {
          "internalType": "contract ISchedule",
          "name": "",
          "type": "address"
        }
      ],
      "stateMutability": "nonpayable",
      "type": "function"
    },
    {
      "inputs": [
        {
          "internalType": "uint256",
          "name": "periodsInTerm",
          "type": "uint256"
        },
        {
          "internalType": "uint256",
          "name": "periodsPerPrincipalPeriod",
          "type": "uint256"
        },
        {
          "internalType": "uint256",
          "name": "periodsPerInterestPeriod",
          "type": "uint256"
        },
        {
          "internalType": "uint256",
          "name": "gracePrincipalPeriods",
          "type": "uint256"
        }
      ],
      "name": "getSchedule",
      "outputs": [
        {
          "internalType": "contract ISchedule",
          "name": "",
          "type": "address"
        }
      ],
      "stateMutability": "view",
      "type": "function"
    },
    {
      "inputs": [],
      "name": "periodMapper",
      "outputs": [
        {
          "internalType": "contract IPeriodMapper",
          "name": "",
          "type": "address"
        }
      ],
      "stateMutability": "view",
      "type": "function"
    }
  ],
  "transactionHash": "0xf119aadf896b229f1a915d4e392b3d993ac1dd96d94fd2df4ccd246b8ab776f2",
  "args": [],
  "numDeployments": 2,
  "solcInputHash": "037931358a02360a4927a740cc7df37a",
  "bytecode": "0x60a060405234801561001057600080fd5b5060405161001d9061004f565b604051809103906000f080158015610039573d6000803e3d6000fd5b5060601b6001600160601b03191660805261005c565b6103888061134a83390190565b60805160601c6112cd61007d6000398060c7528061015952506112cd6000f3fe608060405234801561001057600080fd5b50600436106100415760003560e01c80630b5d0e42146100465780632e2aa6471461006f578063e30fb4d914610077575b600080fd5b61005961005436600461021f565b61008a565b6040516100669190610250565b60405180910390f35b610059610157565b61005961008536600461021f565b61017b565b600080610099868686866101d5565b6000818152602081905260409020549091506001600160a01b031680156100c357915061014f9050565b60007f0000000000000000000000000000000000000000000000000000000000000000888888886040516100f690610212565b610104959493929190610264565b604051809103906000f080158015610120573d6000803e3d6000fd5b5060009384526020849052604090932080546001600160a01b0319166001600160a01b03851617905550909150505b949350505050565b7f000000000000000000000000000000000000000000000000000000000000000081565b60008061018a868686866101d5565b6000818152602081905260409020549091506001600160a01b0316806101cb5760405162461bcd60e51b81526004016101c290610292565b60405180910390fd5b9695505050505050565b60006060858585856040516020016101f094939291906102c2565b60408051808303601f1901815291905280516020909101209695505050505050565b610fba806102de83390190565b60008060008060808587031215610234578384fd5b5050823594602084013594506040840135936060013592509050565b6001600160a01b0391909116815260200190565b6001600160a01b03959095168552602085019390935260408401919091526060830152608082015260a00190565b60208082526016908201527514d8da19591d5b1948191bd95cdb89dd08195e1a5cdd60521b604082015260600190565b9384526020840192909252604083015260608201526080019056fe6101206040523480156200001257600080fd5b5060405162000fba38038062000fba833981016040819052620000359162000181565b6001600160a01b038516620000675760405162461bcd60e51b81526004016200005e90620001f4565b60405180910390fd5b600084116200008a5760405162461bcd60e51b81526004016200005e90620001f4565b60008311620000ad5760405162461bcd60e51b81526004016200005e90620001f4565b60008211620000d05760405162461bcd60e51b81526004016200005e90620001f4565b828481620000da57fe5b0615620000fb5760405162461bcd60e51b81526004016200005e906200020f565b8184816200010557fe5b0615620001265760405162461bcd60e51b81526004016200005e90620001d6565b60008385816200013257fe5b049050808210620001575760405162461bcd60e51b81526004016200005e906200022d565b5060609490941b6001600160601b03191660805260a09290925260e05260c052610100526200024a565b600080600080600060a0868803121562000199578081fd5b85516001600160a01b0381168114620001b0578182fd5b602087015160408801516060890151608090990151929a91995097965090945092505050565b6020808252600490820152630505049560e41b604082015260600190565b6020808252600190820152602d60f91b604082015260600190565b6020808252600490820152630505050560e41b604082015260600190565b60208082526003908201526204750560ec1b604082015260600190565b60805160601c60a05160c05160e05161010051610cc9620002f16000398061056352806105de528061076e528061094452806109bb52508061058752806107b352806107df52806109695280610b50525080610432528061060252806108c25280610ae45250806104115280610626528061072e528061079252806109035250806102ef528061033752806104c3528061067652806108355280610a0c5250610cc96000f3fe608060405234801561001057600080fd5b506004361061012c5760003560e01c80639245dad6116100ad578063b82d6ce611610071578063b82d6ce614610247578063d47a6e821461025a578063df3dc0911461026d578063e08cf88314610280578063f755f000146102885761012c565b80639245dad6146101fc578063a2af04ff1461021c578063a5196b6d1461022f578063ac08641314610237578063b35e0d461461023f5761012c565b806356bd0119116100f457806356bd0119146101a857806367f90425146101bb578063875476f3146101c35780638ba6bcb0146101d65780638dfdc695146101e95761012c565b806308194cc8146101315780630d0e71fb1461015a5780632e2aa6471461016d57806334a88f431461018257806347487c0114610195575b600080fd5b61014461013f366004610bf7565b610290565b6040516101519190610c8a565b60405180910390f35b610144610168366004610bf7565b6102c2565b6101756102ed565b6040516101519190610c23565b610144610190366004610bc7565b610311565b6101446101a3366004610bf7565b6103bc565b6101446101b6366004610bf7565b6103eb565b61014461040a565b6101446101d1366004610bf7565b61045b565b6101446101e4366004610bf7565b610483565b6101446101f7366004610bf7565b61049c565b61020f61020a366004610bf7565b61054b565b6040516101519190610c18565b61014461022a366004610bf7565b6105be565b6101446105dc565b610144610600565b610144610624565b610144610255366004610bf7565b610648565b610144610268366004610bf7565b610671565b61014461027b366004610bc7565b61075b565b610144610767565b6101446107dd565b60008061029d84846102c2565b9050600081116102ae5760006102b8565b6102b88482610801565b9150505b92915050565b60006102e66102d96102d48585610671565b6108ba565b6102e161040a565b6108e6565b9392505050565b7f000000000000000000000000000000000000000000000000000000000000000081565b60008061031d836108fc565b60405163b41e7f4760e01b81529091506001600160a01b037f0000000000000000000000000000000000000000000000000000000000000000169063b41e7f479061036c908490600401610c8a565b60206040518083038186803b15801561038457600080fd5b505afa158015610398573d6000803e3d6000fd5b505050506040513d601f19601f820116820180604052508101906102e69190610bdf565b6000806103df6103ca61040a565b6102e160016103d988886102c2565b9061092b565b90506102b88482610801565b60006102e66104026103fd8585610671565b61093d565b6102e1610767565b60006104567f00000000000000000000000000000000000000000000000000000000000000007f0000000000000000000000000000000000000000000000000000000000000000610993565b905090565b60008061046884846103eb565b9050600081116104795760006102b8565b6102b884826109af565b60006102e66104928484610648565b6102e185856103bc565b6000806104a984846109e4565b60405163b41e7f4760e01b81529091506001600160a01b037f0000000000000000000000000000000000000000000000000000000000000000169063b41e7f47906104fb906001850190600401610c8a565b60206040518083038186803b15801561051357600080fd5b505afa158015610527573d6000803e3d6000fd5b505050506040513d601f19601f820116820180604052508101906102b89190610bdf565b6000828210806102e657508282101580156102e657507f00000000000000000000000000000000000000000000000000000000000000006105b67f00000000000000000000000000000000000000000000000000000000000000006105b08686610671565b90610993565b109392505050565b60006102e66105cd8484610290565b6105d7858561045b565b6109f3565b7f000000000000000000000000000000000000000000000000000000000000000081565b7f000000000000000000000000000000000000000000000000000000000000000081565b7f000000000000000000000000000000000000000000000000000000000000000081565b600080610665610656610767565b6102e160016103d988886103eb565b90506102b884826109af565b6000807f00000000000000000000000000000000000000000000000000000000000000006001600160a01b031663f8549af9846040518263ffffffff1660e01b81526004016106c09190610c8a565b60206040518083038186803b1580156106d857600080fd5b505afa1580156106ec573d6000803e3d6000fd5b505050506040513d601f19601f820116820180604052508101906107109190610bdf565b9050600061071d85610a03565b905061075261072c8383610aa6565b7f00000000000000000000000000000000000000000000000000000000000000006108e6565b95945050505050565b60008061031d83610a03565b60006104567f00000000000000000000000000000000000000000000000000000000000000006107d77f00000000000000000000000000000000000000000000000000000000000000007f0000000000000000000000000000000000000000000000000000000000000000610993565b90610ac0565b7f000000000000000000000000000000000000000000000000000000000000000081565b60008061080d83610adc565b9050600061081b85836109e4565b60405163b41e7f4760e01b81529091506001600160a01b037f0000000000000000000000000000000000000000000000000000000000000000169063b41e7f479061086a908490600401610c8a565b60206040518083038186803b15801561088257600080fd5b505afa158015610896573d6000803e3d6000fd5b505050506040513d601f19601f820116820180604052508101906107529190610bdf565b60006102bc827f0000000000000000000000000000000000000000000000000000000000000000610993565b60008183106108f557816102e6565b5090919050565b60006102bc7f00000000000000000000000000000000000000000000000000000000000000006103d984610a03565b6000828201838110156102e657600080fd5b60006102bc7f000000000000000000000000000000000000000000000000000000000000000061098d847f0000000000000000000000000000000000000000000000000000000000000000610993565b90610aa6565b60006102e6838360405180602001604052806000815250610b08565b60008061080d6109df847f000000000000000000000000000000000000000000000000000000000000000061092b565b610b48565b60006102e6826103d985610a03565b6000818310156108f557816102e6565b60006102bc60017f00000000000000000000000000000000000000000000000000000000000000006001600160a01b031663f8549af9856040518263ffffffff1660e01b8152600401610a569190610c8a565b60206040518083038186803b158015610a6e57600080fd5b505afa158015610a82573d6000803e3d6000fd5b505050506040513d601f19601f820116820180604052508101906103d99190610bdf565b6000828211610ab7578183036102e6565b50600092915050565b60006102e6838360405180602001604052806000815250610b74565b60006102bc827f0000000000000000000000000000000000000000000000000000000000000000610ba0565b60008183610b325760405162461bcd60e51b8152600401610b299190610c37565b60405180910390fd5b506000838581610b3e57fe5b0495945050505050565b60006102bc827f0000000000000000000000000000000000000000000000000000000000000000610ba0565b60008184841115610b985760405162461bcd60e51b8152600401610b299190610c37565b505050900390565b600082610baf575060006102bc565b82820282848281610bbc57fe5b04146102e657600080fd5b600060208284031215610bd8578081fd5b5035919050565b600060208284031215610bf0578081fd5b5051919050565b60008060408385031215610c09578081fd5b50508035926020909101359150565b901515815260200190565b6001600160a01b0391909116815260200190565b6000602080835283518082850152825b81811015610c6357858101830151858201604001528201610c47565b81811115610c745783604083870101525b50601f01601f1916929092016040019392505050565b9081526020019056fea26469706673582212202ef8780db98fd5d6952e35963fad4e957eb60bd4f679714dfb26513afa1ad1c864736f6c634300060c0033a2646970667358221220a74770adadb92e78f806cbd4d3a1b2e54f611f075336b80de0742151847e6b6e64736f6c634300060c0033608060405234801561001057600080fd5b50610368806100206000396000f3fe608060405234801561001057600080fd5b50600436106100365760003560e01c8063b41e7f471461003b578063f8549af91461006a575b600080fd5b6100586004803603602081101561005157600080fd5b5035610087565b60408051918252519081900360200190f35b6100586004803603602081101561008057600080fd5b503561009a565b60006100946000836100a7565b92915050565b6000610094600083610123565b60008080806100bb62015180875b04610175565b600c9188016000198101838104949094019650945092509006600101915060006100e5848461020b565b9050808211156100f3578091505b62015180870662015180610108868686610291565b020194508685101561011957600080fd5b5050505092915050565b60008183111561013257600080fd5b60008061014262015180866100b5565b50915091506000806101596201518087816100b557fe5b50600c9586029590910201939093039190910395945050505050565b60008080836226496581018262023ab1600483020590506004600362023ab18302010590910390600062164b09610fa0600185010205905060046105b58202058303601f019250600061098f84605002816101cc57fe5b0590506000605061098f83020585039050600b820560301994909401606402929092018301996002600c90940290910392909201975095509350505050565b6000816001148061021c5750816003145b806102275750816005145b806102325750816007145b8061023d5750816008145b80610248575081600a145b80610253575081600c145b156102605750601f610094565b816002146102705750601e610094565b6102798361030d565b61028457601c610287565b601d5b60ff169392505050565b60006107b28410156102a257600080fd5b838383600062253d8c600460036064611324600c600d19890105890101050205600c80600d19870105600c02600287030361016f02816102de57fe5b0560046105b5600c600d1989010589016112c0010205617d4b8603010103039050809450505050509392505050565b60006004820615801561032257506064820615155b806100945750506101909006159056fea264697066735822122083d97555ab5e807e8be4ea9e1316a131423aebda5accba388ed64c48ec6de25c64736f6c634300060c0033",
  "devdoc": {
    "kind": "dev",
    "methods": {
      "createSchedule(uint256,uint256,uint256,uint256)": {
        "returns": {
          "_0": "schedule the schedule"
        }
      },
      "getSchedule(uint256,uint256,uint256,uint256)": {
        "returns": {
          "_0": "schedule the schedule"
        }
      }
    },
    "version": 1
  },
  "userdoc": {
    "kind": "user",
    "methods": {
      "createSchedule(uint256,uint256,uint256,uint256)": {
        "notice": "Add a schedule with the provided params to the repo"
      },
      "getSchedule(uint256,uint256,uint256,uint256)": {
        "notice": "Get the schedule with the requested params. Reverts if the schedule is not in the repo - see _createSchedule_"
      }
    },
    "notice": "Repository for re-usable schedules that function on calendar month periods. In general periods can be any length, but Warbler maintains a repository of schedules with monthly periods because that's the most common type of schedule used on the Goldfinch protocol.",
    "version": 1
  },
  "storageLayout": {
    "storage": [
      {
        "astId": 30119,
        "contract": "contracts/protocol/core/schedule/MonthlyScheduleRepo.sol:MonthlyScheduleRepo",
        "label": "schedules",
        "offset": 0,
        "slot": "0",
        "type": "t_mapping(t_bytes32,t_address)"
      }
    ],
    "types": {
      "t_address": {
        "encoding": "inplace",
        "label": "address",
        "numberOfBytes": "20"
      },
      "t_bytes32": {
        "encoding": "inplace",
        "label": "bytes32",
        "numberOfBytes": "32"
      },
      "t_mapping(t_bytes32,t_address)": {
        "encoding": "mapping",
        "key": "t_bytes32",
        "label": "mapping(bytes32 => address)",
        "numberOfBytes": "32",
        "value": "t_address"
      }
    }
  }
}