{
  "address": "0x19AF596bE75c4e216D68a69172a713ABF81Fb528",
  "abi": [
    {
      "anonymous": false,
      "inputs": [
        {
          "indexed": true,
          "internalType": "address",
          "name": "owner",
          "type": "address"
        },
        {
          "indexed": true,
          "internalType": "address",
          "name": "approved",
          "type": "address"
        },
        {
          "indexed": true,
          "internalType": "uint256",
          "name": "tokenId",
          "type": "uint256"
        }
      ],
      "name": "Approval",
      "type": "event"
    },
    {
      "anonymous": false,
      "inputs": [
        {
          "indexed": true,
          "internalType": "address",
          "name": "owner",
          "type": "address"
        },
        {
          "indexed": true,
          "internalType": "address",
          "name": "operator",
          "type": "address"
        },
        {
          "indexed": false,
          "internalType": "bool",
          "name": "approved",
          "type": "bool"
        }
      ],
      "name": "ApprovalForAll",
      "type": "event"
    },
    {
      "anonymous": false,
      "inputs": [
        {
          "indexed": true,
          "internalType": "address",
          "name": "who",
          "type": "address"
        },
        {
          "indexed": false,
          "internalType": "address",
          "name": "configAddress",
          "type": "address"
        }
      ],
      "name": "GoldfinchConfigUpdated",
      "type": "event"
    },
    {
      "anonymous": false,
      "inputs": [
        {
          "indexed": false,
          "internalType": "address",
          "name": "account",
          "type": "address"
        }
      ],
      "name": "Paused",
      "type": "event"
    },
    {
      "anonymous": false,
      "inputs": [
        {
          "indexed": true,
          "internalType": "bytes32",
          "name": "role",
          "type": "bytes32"
        },
        {
          "indexed": true,
          "internalType": "address",
          "name": "account",
          "type": "address"
        },
        {
          "indexed": true,
          "internalType": "address",
          "name": "sender",
          "type": "address"
        }
      ],
      "name": "RoleGranted",
      "type": "event"
    },
    {
      "anonymous": false,
      "inputs": [
        {
          "indexed": true,
          "internalType": "bytes32",
          "name": "role",
          "type": "bytes32"
        },
        {
          "indexed": true,
          "internalType": "address",
          "name": "account",
          "type": "address"
        },
        {
          "indexed": true,
          "internalType": "address",
          "name": "sender",
          "type": "address"
        }
      ],
      "name": "RoleRevoked",
      "type": "event"
    },
    {
      "anonymous": false,
      "inputs": [
        {
          "indexed": true,
          "internalType": "address",
          "name": "sender",
          "type": "address"
        },
        {
          "indexed": false,
          "internalType": "address",
          "name": "newReceiver",
          "type": "address"
        },
        {
          "indexed": false,
          "internalType": "uint256",
          "name": "newRoyaltyPercent",
          "type": "uint256"
        }
      ],
      "name": "RoyaltyParamsSet",
      "type": "event"
    },
    {
      "anonymous": false,
      "inputs": [
        {
          "indexed": true,
          "internalType": "address",
          "name": "owner",
          "type": "address"
        },
        {
          "indexed": true,
          "internalType": "address",
          "name": "pool",
          "type": "address"
        },
        {
          "indexed": true,
          "internalType": "uint256",
          "name": "tokenId",
          "type": "uint256"
        }
      ],
      "name": "TokenBurned",
      "type": "event"
    },
    {
      "anonymous": false,
      "inputs": [
        {
          "indexed": true,
          "internalType": "address",
          "name": "owner",
          "type": "address"
        },
        {
          "indexed": true,
          "internalType": "address",
          "name": "pool",
          "type": "address"
        },
        {
          "indexed": true,
          "internalType": "uint256",
          "name": "tokenId",
          "type": "uint256"
        },
        {
          "indexed": false,
          "internalType": "uint256",
          "name": "amount",
          "type": "uint256"
        },
        {
          "indexed": false,
          "internalType": "uint256",
          "name": "tranche",
          "type": "uint256"
        }
      ],
      "name": "TokenMinted",
      "type": "event"
    },
    {
      "anonymous": false,
      "inputs": [
        {
          "indexed": true,
          "internalType": "address",
          "name": "owner",
          "type": "address"
        },
        {
          "indexed": true,
          "internalType": "address",
          "name": "pool",
          "type": "address"
        },
        {
          "indexed": true,
          "internalType": "uint256",
          "name": "tokenId",
          "type": "uint256"
        },
        {
          "indexed": false,
          "internalType": "uint256",
          "name": "principalWithdrawn",
          "type": "uint256"
        },
        {
          "indexed": false,
          "internalType": "uint256",
          "name": "tranche",
          "type": "uint256"
        }
      ],
      "name": "TokenPrincipalWithdrawn",
      "type": "event"
    },
    {
      "anonymous": false,
      "inputs": [
        {
          "indexed": true,
          "internalType": "address",
          "name": "owner",
          "type": "address"
        },
        {
          "indexed": true,
          "internalType": "address",
          "name": "pool",
          "type": "address"
        },
        {
          "indexed": true,
          "internalType": "uint256",
          "name": "tokenId",
          "type": "uint256"
        },
        {
          "indexed": false,
          "internalType": "uint256",
          "name": "principalRedeemed",
          "type": "uint256"
        },
        {
          "indexed": false,
          "internalType": "uint256",
          "name": "interestRedeemed",
          "type": "uint256"
        },
        {
          "indexed": false,
          "internalType": "uint256",
          "name": "tranche",
          "type": "uint256"
        }
      ],
      "name": "TokenRedeemed",
      "type": "event"
    },
    {
      "anonymous": false,
      "inputs": [
        {
          "indexed": true,
          "internalType": "address",
          "name": "from",
          "type": "address"
        },
        {
          "indexed": true,
          "internalType": "address",
          "name": "to",
          "type": "address"
        },
        {
          "indexed": true,
          "internalType": "uint256",
          "name": "tokenId",
          "type": "uint256"
        }
      ],
      "name": "Transfer",
      "type": "event"
    },
    {
      "anonymous": false,
      "inputs": [
        {
          "indexed": false,
          "internalType": "address",
          "name": "account",
          "type": "address"
        }
      ],
      "name": "Unpaused",
      "type": "event"
    },
    {
      "inputs": [],
      "name": "DEFAULT_ADMIN_ROLE",
      "outputs": [
        {
          "internalType": "bytes32",
          "name": "",
          "type": "bytes32"
        }
      ],
      "stateMutability": "view",
      "type": "function"
    },
    {
      "inputs": [],
      "name": "MINTER_ROLE",
      "outputs": [
        {
          "internalType": "bytes32",
          "name": "",
          "type": "bytes32"
        }
      ],
      "stateMutability": "view",
      "type": "function"
    },
    {
      "inputs": [],
      "name": "OWNER_ROLE",
      "outputs": [
        {
          "internalType": "bytes32",
          "name": "",
          "type": "bytes32"
        }
      ],
      "stateMutability": "view",
      "type": "function"
    },
    {
      "inputs": [],
      "name": "PAUSER_ROLE",
      "outputs": [
        {
          "internalType": "bytes32",
          "name": "",
          "type": "bytes32"
        }
      ],
      "stateMutability": "view",
      "type": "function"
    },
    {
      "inputs": [
        {
          "internalType": "address",
          "name": "owner",
          "type": "address"
        },
        {
          "internalType": "contract GoldfinchConfig",
          "name": "_config",
          "type": "address"
        }
      ],
      "name": "__initialize__",
      "outputs": [],
      "stateMutability": "nonpayable",
      "type": "function"
    },
    {
      "inputs": [],
      "name": "_tokenIdTracker",
      "outputs": [
        {
          "internalType": "uint256",
          "name": "_value",
          "type": "uint256"
        }
      ],
      "stateMutability": "view",
      "type": "function"
    },
    {
      "inputs": [
        {
          "internalType": "address",
          "name": "to",
          "type": "address"
        },
        {
          "internalType": "uint256",
          "name": "tokenId",
          "type": "uint256"
        }
      ],
      "name": "approve",
      "outputs": [],
      "stateMutability": "nonpayable",
      "type": "function"
    },
    {
      "inputs": [
        {
          "internalType": "address",
          "name": "owner",
          "type": "address"
        }
      ],
      "name": "balanceOf",
      "outputs": [
        {
          "internalType": "uint256",
          "name": "",
          "type": "uint256"
        }
      ],
      "stateMutability": "view",
      "type": "function"
    },
    {
      "inputs": [],
      "name": "baseURI",
      "outputs": [
        {
          "internalType": "string",
          "name": "",
          "type": "string"
        }
      ],
      "stateMutability": "view",
      "type": "function"
    },
    {
      "inputs": [
        {
          "internalType": "uint256",
          "name": "tokenId",
          "type": "uint256"
        }
      ],
      "name": "burn",
      "outputs": [],
      "stateMutability": "nonpayable",
      "type": "function"
    },
    {
      "inputs": [],
      "name": "config",
      "outputs": [
        {
          "internalType": "contract GoldfinchConfig",
          "name": "",
          "type": "address"
        }
      ],
      "stateMutability": "view",
      "type": "function"
    },
    {
      "inputs": [
        {
          "internalType": "uint256",
          "name": "tokenId",
          "type": "uint256"
        }
      ],
      "name": "getApproved",
      "outputs": [
        {
          "internalType": "address",
          "name": "",
          "type": "address"
        }
      ],
      "stateMutability": "view",
      "type": "function"
    },
    {
      "inputs": [
        {
          "internalType": "bytes32",
          "name": "role",
          "type": "bytes32"
        }
      ],
      "name": "getRoleAdmin",
      "outputs": [
        {
          "internalType": "bytes32",
          "name": "",
          "type": "bytes32"
        }
      ],
      "stateMutability": "view",
      "type": "function"
    },
    {
      "inputs": [
        {
          "internalType": "bytes32",
          "name": "role",
          "type": "bytes32"
        },
        {
          "internalType": "uint256",
          "name": "index",
          "type": "uint256"
        }
      ],
      "name": "getRoleMember",
      "outputs": [
        {
          "internalType": "address",
          "name": "",
          "type": "address"
        }
      ],
      "stateMutability": "view",
      "type": "function"
    },
    {
      "inputs": [
        {
          "internalType": "bytes32",
          "name": "role",
          "type": "bytes32"
        }
      ],
      "name": "getRoleMemberCount",
      "outputs": [
        {
          "internalType": "uint256",
          "name": "",
          "type": "uint256"
        }
      ],
      "stateMutability": "view",
      "type": "function"
    },
    {
      "inputs": [
        {
          "internalType": "uint256",
          "name": "tokenId",
          "type": "uint256"
        }
      ],
      "name": "getTokenInfo",
      "outputs": [
        {
          "components": [
            {
              "internalType": "address",
              "name": "pool",
              "type": "address"
            },
            {
              "internalType": "uint256",
              "name": "tranche",
              "type": "uint256"
            },
            {
              "internalType": "uint256",
              "name": "principalAmount",
              "type": "uint256"
            },
            {
              "internalType": "uint256",
              "name": "principalRedeemed",
              "type": "uint256"
            },
            {
              "internalType": "uint256",
              "name": "interestRedeemed",
              "type": "uint256"
            }
          ],
          "internalType": "struct IPoolTokens.TokenInfo",
          "name": "",
          "type": "tuple"
        }
      ],
      "stateMutability": "view",
      "type": "function"
    },
    {
      "inputs": [
        {
          "internalType": "bytes32",
          "name": "role",
          "type": "bytes32"
        },
        {
          "internalType": "address",
          "name": "account",
          "type": "address"
        }
      ],
      "name": "grantRole",
      "outputs": [],
      "stateMutability": "nonpayable",
      "type": "function"
    },
    {
      "inputs": [
        {
          "internalType": "bytes32",
          "name": "role",
          "type": "bytes32"
        },
        {
          "internalType": "address",
          "name": "account",
          "type": "address"
        }
      ],
      "name": "hasRole",
      "outputs": [
        {
          "internalType": "bool",
          "name": "",
          "type": "bool"
        }
      ],
      "stateMutability": "view",
      "type": "function"
    },
    {
      "inputs": [],
      "name": "isAdmin",
      "outputs": [
        {
          "internalType": "bool",
          "name": "",
          "type": "bool"
        }
      ],
      "stateMutability": "view",
      "type": "function"
    },
    {
      "inputs": [
        {
          "internalType": "address",
          "name": "owner",
          "type": "address"
        },
        {
          "internalType": "address",
          "name": "operator",
          "type": "address"
        }
      ],
      "name": "isApprovedForAll",
      "outputs": [
        {
          "internalType": "bool",
          "name": "",
          "type": "bool"
        }
      ],
      "stateMutability": "view",
      "type": "function"
    },
    {
      "inputs": [
        {
          "internalType": "address",
          "name": "spender",
          "type": "address"
        },
        {
          "internalType": "uint256",
          "name": "tokenId",
          "type": "uint256"
        }
      ],
      "name": "isApprovedOrOwner",
      "outputs": [
        {
          "internalType": "bool",
          "name": "",
          "type": "bool"
        }
      ],
      "stateMutability": "view",
      "type": "function"
    },
    {
      "inputs": [
        {
          "components": [
            {
              "internalType": "uint256",
              "name": "principalAmount",
              "type": "uint256"
            },
            {
              "internalType": "uint256",
              "name": "tranche",
              "type": "uint256"
            }
          ],
          "internalType": "struct IPoolTokens.MintParams",
          "name": "params",
          "type": "tuple"
        },
        {
          "internalType": "address",
          "name": "to",
          "type": "address"
        }
      ],
      "name": "mint",
      "outputs": [
        {
          "internalType": "uint256",
          "name": "tokenId",
          "type": "uint256"
        }
      ],
      "stateMutability": "nonpayable",
      "type": "function"
    },
    {
      "inputs": [],
      "name": "name",
      "outputs": [
        {
          "internalType": "string",
          "name": "",
          "type": "string"
        }
      ],
      "stateMutability": "view",
      "type": "function"
    },
    {
      "inputs": [
        {
          "internalType": "address",
          "name": "newPool",
          "type": "address"
        }
      ],
      "name": "onPoolCreated",
      "outputs": [],
      "stateMutability": "nonpayable",
      "type": "function"
    },
    {
      "inputs": [
        {
          "internalType": "uint256",
          "name": "tokenId",
          "type": "uint256"
        }
      ],
      "name": "ownerOf",
      "outputs": [
        {
          "internalType": "address",
          "name": "",
          "type": "address"
        }
      ],
      "stateMutability": "view",
      "type": "function"
    },
    {
      "inputs": [],
      "name": "pause",
      "outputs": [],
      "stateMutability": "nonpayable",
      "type": "function"
    },
    {
      "inputs": [],
      "name": "paused",
      "outputs": [
        {
          "internalType": "bool",
          "name": "",
          "type": "bool"
        }
      ],
      "stateMutability": "view",
      "type": "function"
    },
    {
      "inputs": [
        {
          "internalType": "address",
          "name": "",
          "type": "address"
        }
      ],
      "name": "pools",
      "outputs": [
        {
          "internalType": "uint256",
          "name": "totalMinted",
          "type": "uint256"
        },
        {
          "internalType": "uint256",
          "name": "totalPrincipalRedeemed",
          "type": "uint256"
        },
        {
          "internalType": "bool",
          "name": "created",
          "type": "bool"
        }
      ],
      "stateMutability": "view",
      "type": "function"
    },
    {
      "inputs": [
        {
          "internalType": "uint256",
          "name": "tokenId",
          "type": "uint256"
        },
        {
          "internalType": "uint256",
          "name": "principalRedeemed",
          "type": "uint256"
        },
        {
          "internalType": "uint256",
          "name": "interestRedeemed",
          "type": "uint256"
        }
      ],
      "name": "redeem",
      "outputs": [],
      "stateMutability": "nonpayable",
      "type": "function"
    },
    {
      "inputs": [
        {
          "internalType": "uint256",
          "name": "tokenId",
          "type": "uint256"
        },
        {
          "internalType": "uint256",
          "name": "amount",
          "type": "uint256"
        }
      ],
      "name": "reducePrincipalAmount",
      "outputs": [],
      "stateMutability": "nonpayable",
      "type": "function"
    },
    {
      "inputs": [
        {
          "internalType": "bytes32",
          "name": "role",
          "type": "bytes32"
        },
        {
          "internalType": "address",
          "name": "account",
          "type": "address"
        }
      ],
      "name": "renounceRole",
      "outputs": [],
      "stateMutability": "nonpayable",
      "type": "function"
    },
    {
      "inputs": [
        {
          "internalType": "bytes32",
          "name": "role",
          "type": "bytes32"
        },
        {
          "internalType": "address",
          "name": "account",
          "type": "address"
        }
      ],
      "name": "revokeRole",
      "outputs": [],
      "stateMutability": "nonpayable",
      "type": "function"
    },
    {
      "inputs": [
        {
          "internalType": "uint256",
          "name": "_tokenId",
          "type": "uint256"
        },
        {
          "internalType": "uint256",
          "name": "_salePrice",
          "type": "uint256"
        }
      ],
      "name": "royaltyInfo",
      "outputs": [
        {
          "internalType": "address",
          "name": "",
          "type": "address"
        },
        {
          "internalType": "uint256",
          "name": "",
          "type": "uint256"
        }
      ],
      "stateMutability": "view",
      "type": "function"
    },
    {
      "inputs": [],
      "name": "royaltyParams",
      "outputs": [
        {
          "internalType": "address",
          "name": "receiver",
          "type": "address"
        },
        {
          "internalType": "uint256",
          "name": "royaltyPercent",
          "type": "uint256"
        }
      ],
      "stateMutability": "view",
      "type": "function"
    },
    {
      "inputs": [
        {
          "internalType": "address",
          "name": "from",
          "type": "address"
        },
        {
          "internalType": "address",
          "name": "to",
          "type": "address"
        },
        {
          "internalType": "uint256",
          "name": "tokenId",
          "type": "uint256"
        }
      ],
      "name": "safeTransferFrom",
      "outputs": [],
      "stateMutability": "nonpayable",
      "type": "function"
    },
    {
      "inputs": [
        {
          "internalType": "address",
          "name": "from",
          "type": "address"
        },
        {
          "internalType": "address",
          "name": "to",
          "type": "address"
        },
        {
          "internalType": "uint256",
          "name": "tokenId",
          "type": "uint256"
        },
        {
          "internalType": "bytes",
          "name": "_data",
          "type": "bytes"
        }
      ],
      "name": "safeTransferFrom",
      "outputs": [],
      "stateMutability": "nonpayable",
      "type": "function"
    },
    {
      "inputs": [
        {
          "internalType": "address",
          "name": "operator",
          "type": "address"
        },
        {
          "internalType": "bool",
          "name": "approved",
          "type": "bool"
        }
      ],
      "name": "setApprovalForAll",
      "outputs": [],
      "stateMutability": "nonpayable",
      "type": "function"
    },
    {
      "inputs": [
        {
          "internalType": "string",
          "name": "baseURI_",
          "type": "string"
        }
      ],
      "name": "setBaseURI",
      "outputs": [],
      "stateMutability": "nonpayable",
      "type": "function"
    },
    {
      "inputs": [
        {
          "internalType": "address",
          "name": "newReceiver",
          "type": "address"
        },
        {
          "internalType": "uint256",
          "name": "newRoyaltyPercent",
          "type": "uint256"
        }
      ],
      "name": "setRoyaltyParams",
      "outputs": [],
      "stateMutability": "nonpayable",
      "type": "function"
    },
    {
      "inputs": [
        {
          "internalType": "bytes4",
          "name": "id",
          "type": "bytes4"
        }
      ],
      "name": "supportsInterface",
      "outputs": [
        {
          "internalType": "bool",
          "name": "",
          "type": "bool"
        }
      ],
      "stateMutability": "view",
      "type": "function"
    },
    {
      "inputs": [],
      "name": "symbol",
      "outputs": [
        {
          "internalType": "string",
          "name": "",
          "type": "string"
        }
      ],
      "stateMutability": "view",
      "type": "function"
    },
    {
      "inputs": [
        {
          "internalType": "uint256",
          "name": "index",
          "type": "uint256"
        }
      ],
      "name": "tokenByIndex",
      "outputs": [
        {
          "internalType": "uint256",
          "name": "",
          "type": "uint256"
        }
      ],
      "stateMutability": "view",
      "type": "function"
    },
    {
      "inputs": [
        {
          "internalType": "address",
          "name": "owner",
          "type": "address"
        },
        {
          "internalType": "uint256",
          "name": "index",
          "type": "uint256"
        }
      ],
      "name": "tokenOfOwnerByIndex",
      "outputs": [
        {
          "internalType": "uint256",
          "name": "",
          "type": "uint256"
        }
      ],
      "stateMutability": "view",
      "type": "function"
    },
    {
      "inputs": [
        {
          "internalType": "uint256",
          "name": "tokenId",
          "type": "uint256"
        }
      ],
      "name": "tokenURI",
      "outputs": [
        {
          "internalType": "string",
          "name": "",
          "type": "string"
        }
      ],
      "stateMutability": "view",
      "type": "function"
    },
    {
      "inputs": [
        {
          "internalType": "uint256",
          "name": "",
          "type": "uint256"
        }
      ],
      "name": "tokens",
      "outputs": [
        {
          "internalType": "address",
          "name": "pool",
          "type": "address"
        },
        {
          "internalType": "uint256",
          "name": "tranche",
          "type": "uint256"
        },
        {
          "internalType": "uint256",
          "name": "principalAmount",
          "type": "uint256"
        },
        {
          "internalType": "uint256",
          "name": "principalRedeemed",
          "type": "uint256"
        },
        {
          "internalType": "uint256",
          "name": "interestRedeemed",
          "type": "uint256"
        }
      ],
      "stateMutability": "view",
      "type": "function"
    },
    {
      "inputs": [],
      "name": "totalSupply",
      "outputs": [
        {
          "internalType": "uint256",
          "name": "",
          "type": "uint256"
        }
      ],
      "stateMutability": "view",
      "type": "function"
    },
    {
      "inputs": [
        {
          "internalType": "address",
          "name": "from",
          "type": "address"
        },
        {
          "internalType": "address",
          "name": "to",
          "type": "address"
        },
        {
          "internalType": "uint256",
          "name": "tokenId",
          "type": "uint256"
        }
      ],
      "name": "transferFrom",
      "outputs": [],
      "stateMutability": "nonpayable",
      "type": "function"
    },
    {
      "inputs": [],
      "name": "unpause",
      "outputs": [],
      "stateMutability": "nonpayable",
      "type": "function"
    },
    {
      "inputs": [
        {
          "internalType": "address",
          "name": "sender",
          "type": "address"
        }
      ],
      "name": "validPool",
      "outputs": [
        {
          "internalType": "bool",
          "name": "",
          "type": "bool"
        }
      ],
      "stateMutability": "view",
      "type": "function"
    },
    {
      "inputs": [
        {
          "internalType": "uint256",
          "name": "tokenId",
          "type": "uint256"
        },
        {
          "internalType": "uint256",
          "name": "principalAmount",
          "type": "uint256"
        }
      ],
      "name": "withdrawPrincipal",
      "outputs": [],
      "stateMutability": "nonpayable",
      "type": "function"
    }
  ],
  "transactionHash": "0x7fa450153e0cc9e5e45ee6ee6b410e961b9501b4e37fdbd9b3c3574b4c2197de",
  "args": [],
  "solcInputHash": "c52586186129beb1f69c2d802aa3ecb5",
  "bytecode": "0x608060405234801561001057600080fd5b50613dcf806100206000396000f3fe608060405234801561001057600080fd5b50600436106102b65760003560e01c806370a0823111610172578063b6db75a0116100d9578063ca15c87311610092578063ca15c873146105e2578063d5391393146105f5578063d547741f146105fd578063df6efbf714610610578063e58378bb14610623578063e63ab1e91461062b578063e985e9c514610633576102b6565b8063b6db75a014610586578063b6f8fd401461058e578063b8192205146105a1578063b88d4fde146105b4578063c87b56dd146105c7578063c9970e59146105da576102b6565b806395d89b411161012b57806395d89b411461052657806398bcede91461052e578063a217fddf14610536578063a22cb4651461053e578063a4063dbc14610551578063b5ada6d814610573576102b6565b806370a08231146104bd57806379502c55146104d05780638456cb59146104d85780638c7a63ae146104e05780639010d07c1461050057806391d1485414610513576102b6565b806342842e0e1161022157806355f804b3116101da57806355f804b31461044e57806357e340ce146104615780635be57b6a146104745780635c975abb146104875780636352211e1461048f57806366cbb037146104a25780636c0360eb146104b5576102b6565b806342842e0e146103cb57806342966c68146103de57806342a16b79146103f1578063430c2081146104045780634f64b2be146104175780634f6ccce71461043b576102b6565b8063248a9ca311610273578063248a9ca3146103565780632a55205a146103695780632f2ff15d1461038a5780632f745c591461039d57806336568abe146103b05780633f4ba83a146103c3576102b6565b806301ffc9a7146102bb57806306fdde03146102e4578063081812fc146102f9578063095ea7b31461031957806318160ddd1461032e57806323b872dd14610343575b600080fd5b6102ce6102c9366004612f0c565b610646565b6040516102db919061316f565b60405180910390f35b6102ec6106d0565b6040516102db9190613183565b61030c610307366004612eaf565b610766565b6040516102db91906130d7565b61032c610327366004612e84565b6107b2565b005b61033661084a565b6040516102db919061317a565b61032c610351366004612d39565b61085b565b610336610364366004612eaf565b610893565b61037c610377366004612eeb565b6108a8565b6040516102db929190613128565b61032c610398366004612ec7565b6108c3565b6103366103ab366004612e84565b61090b565b61032c6103be366004612ec7565b610936565b61032c610978565b61032c6103d9366004612d39565b6109b8565b61032c6103ec366004612eaf565b6109d3565b61032c6103ff366004612eeb565b610b08565b6102ce610412366004612e84565b610b68565b61042a610425366004612eaf565b610b74565b6040516102db959493929190613141565b610336610449366004612eaf565b610bae565b61032c61045c366004612f44565b610bc4565b61032c61046f366004612cc9565b610c27565b610336610482366004612fb1565b610c9c565b6102ce610de3565b61030c61049d366004612eaf565b610dec565b61032c6104b0366004612eeb565b610e14565b6102ec610fad565b6103366104cb366004612cc9565b61100e565b61030c611057565b61032c611067565b6104f36104ee366004612eaf565b6110a5565b6040516102db9190613c3f565b61030c61050e366004612eeb565b6110b6565b6102ce610521366004612ec7565b6110ce565b6102ec6110e6565b610336611147565b61033661114e565b61032c61054c366004612e41565b611153565b61056461055f366004612cc9565b611221565b6040516102db93929190613c8b565b6102ce610581366004612cc9565b611246565b6102ce611251565b61032c61059c366004612e72565b61126b565b61032c6105af366004612fe3565b611438565b61032c6105c2366004612d79565b6115f1565b6102ec6105d5366004612eaf565b611630565b61037c61177a565b6103366105f0366004612eaf565b611791565b6103366117a8565b61032c61060b366004612ec7565b6117cc565b61032c61061e366004612e84565b611806565b610336611837565b610336611849565b6102ce610641366004612d01565b61185b565b60006001600160e01b031982166380ac58cd60e01b148061067757506001600160e01b03198216635b5e139f60e01b145b8061069257506001600160e01b0319821663780e9d6360e01b145b806106ad57506001600160e01b031982166301ffc9a760e01b145b806106c857506001600160e01b0319821663152a902d60e11b145b90505b919050565b60ce8054604080516020601f600260001961010060018816150201909516949094049384018190048102820181019092528281526060939092909183018282801561075c5780601f106107315761010080835404028352916020019161075c565b820191906000526020600020905b81548152906001019060200180831161073f57829003601f168201915b5050505050905090565b600061077182611889565b6107965760405162461bcd60e51b815260040161078d90613869565b60405180910390fd5b50600090815260cc60205260409020546001600160a01b031690565b60006107bd82610dec565b9050806001600160a01b0316836001600160a01b031614156107f15760405162461bcd60e51b815260040161078d90613acb565b806001600160a01b0316610803611896565b6001600160a01b0316148061081f575061081f81610641611896565b61083b5760405162461bcd60e51b815260040161078d9061369d565b610845838361189a565b505050565b600061085660ca611908565b905090565b61086c610866611896565b82611913565b6108885760405162461bcd60e51b815260040161078d90613b0c565b610845838383611998565b60009081526065602052604090206002015490565b6000806108b86101948585611a94565b915091509250929050565b6000828152606560205260409020600201546108e190610521611896565b6108fd5760405162461bcd60e51b815260040161078d90613223565b6109078282611ad6565b5050565b6001600160a01b038216600090815260c96020526040812061092d9083611b3f565b90505b92915050565b61093e611896565b6001600160a01b0316816001600160a01b03161461096e5760405162461bcd60e51b815260040161078d90613bf0565b6109078282611b4b565b610992600080516020613d5a833981519152610521611896565b6109ae5760405162461bcd60e51b815260040161078d90613b92565b6109b6611bb4565b565b610845838383604051806020016040528060008152506115f1565b60fb5460ff16156109f65760405162461bcd60e51b815260040161078d9061364b565b6109fe612bbe565b610a0782611c20565b90506000610a1c610a16611896565b84611913565b90506000610a30610a2b611896565b611c81565b8015610a585750610a3f611896565b6001600160a01b031683600001516001600160a01b0316145b90506000610a6585610dec565b90508280610a705750815b610a8c5760405162461bcd60e51b815260040161078d90613272565b8360400151846060015114610ab35760405162461bcd60e51b815260040161078d90613a03565b610abc85611ca3565b8484600001516001600160a01b0316826001600160a01b03167fbfa41556980d157c24e8632dbb78958f8759a86b4acdea421f93dc7259fb55db60405160405180910390a45050505050565b610b10611251565b610b2c5760405162461bcd60e51b815260040161078d90613389565b6000828152610192602052604090206002810154610b4a9083611ce5565b60028201556003810154610b5e9083611ce5565b6003909101555050565b600061092d8383611913565b61019260205260009081526040902080546001820154600283015460038401546004909401546001600160a01b0390931693919290919085565b600080610bbc60ca84611d27565b509392505050565b610bcc611251565b610be85760405162461bcd60e51b815260040161078d90613389565b61090782828080601f016020809104026020016040519081016040528093929190818152602001838380828437600092019190915250611d4392505050565b61019154610c3d906001600160a01b0316611d56565b6001600160a01b0316610c4e611896565b6001600160a01b031614610c745760405162461bcd60e51b815260040161078d906138b5565b6001600160a01b0316600090815261019360205260409020600201805460ff19166001179055565b6000610ca9610a2b611896565b610cc55760405162461bcd60e51b815260040161078d906134a7565b60fb5460ff1615610ce85760405162461bcd60e51b815260040161078d9061364b565b6000610cf2611896565b9050610cfe8482611dd6565b9150610d0a8383611e96565b61019154610d20906001600160a01b0316611f48565b6001600160a01b0316636efbe643610d36611896565b846040518363ffffffff1660e01b8152600401610d54929190613128565b600060405180830381600087803b158015610d6e57600080fd5b505af1158015610d82573d6000803e3d6000fd5b5050505081816001600160a01b0316846001600160a01b03167f188c6e7ce5cf6a45f5d4441da49a243005c388c7f4f00137378ba3d058baf01d87600001358860200135604051610dd4929190613c7d565b60405180910390a45092915050565b60fb5460ff1690565b60006106c882604051806060016040528060298152602001613d316029913960ca9190611f53565b610e1f610a2b611896565b610e3b5760405162461bcd60e51b815260040161078d906134a7565b60fb5460ff1615610e5e5760405162461bcd60e51b815260040161078d9061364b565b60008281526101926020526040902080546001600160a01b031680610e81611896565b6001600160a01b031614610ea75760405162461bcd60e51b815260040161078d90613675565b600382015415610ec95760405162461bcd60e51b815260040161078d90613aa3565b8282600201541015610eed5760405162461bcd60e51b815260040161078d906137f8565b6001600160a01b0381166000908152610193602052604090208054610f129085611ce5565b80825560018201541115610f385760405162461bcd60e51b815260040161078d9061373f565b6002830154610f479085611ce5565b6002840155846001600160a01b038316610f6082610dec565b6001600160a01b03167f8577735338ca7d8f2e2b6994fe66a1afec4b581e0503bdc21550791a2a1923ef878760010154604051610f9e929190613c7d565b60405180910390a45050505050565b60d18054604080516020601f600260001961010060018816150201909516949094049384018190048102820181019092528281526060939092909183018282801561075c5780601f106107315761010080835404028352916020019161075c565b60006001600160a01b0382166110365760405162461bcd60e51b815260040161078d906136f5565b6001600160a01b038216600090815260c9602052604090206106c890611908565b610191546001600160a01b031681565b611081600080516020613d5a833981519152610521611896565b61109d5760405162461bcd60e51b815260040161078d9061344a565b6109b6611f6a565b6110ad612bbe565b6106c882611c20565b600082815260656020526040812061092d9083611b3f565b600082815260656020526040812061092d9083611fc3565b60cf8054604080516020601f600260001961010060018816150201909516949094049384018190048102820181019092528281526060939092909183018282801561075c5780601f106107315761010080835404028352916020019161075c565b61015f5481565b600081565b61115b611896565b6001600160a01b0316826001600160a01b0316141561118c5760405162461bcd60e51b815260040161078d90613512565b8060cd6000611199611896565b6001600160a01b03908116825260208083019390935260409182016000908120918716808252919093529120805460ff1916921515929092179091556111dd611896565b6001600160a01b03167f17307eab39ab6107e8899845ad3d59bd9653f200f220920489ca2b5937696c3183604051611215919061316f565b60405180910390a35050565b6101936020526000908152604090208054600182015460029092015490919060ff1683565b60006106c882611c81565b6000610856600080516020613d11833981519152336110ce565b600054610100900460ff16806112845750611284611fd8565b80611292575060005460ff16155b6112ae5760405162461bcd60e51b815260040161078d9061391d565b600054610100900460ff161580156112d9576000805460ff1961ff0019909116610100171660011790555b6001600160a01b038316158015906112f957506001600160a01b03821615155b6113155760405162461bcd60e51b815260040161078d906132ed565b61131d611fde565b611325611fde565b61132d612060565b61138860405180604001604052806018815260200177476f6c6466696e636820563220506f6f6c20546f6b656e7360401b8152506040518060400160405280600981526020016811d1924b558c8b541560ba1b8152506120de565b6113906121a4565b611398611fde565b61019180546001600160a01b0319166001600160a01b0384161790556113cc600080516020613d5a833981519152846108fd565b6113e4600080516020613d11833981519152846108fd565b61140a600080516020613d5a833981519152600080516020613d11833981519152612230565b611422600080516020613d1183398151915280612230565b8015610845576000805461ff0019169055505050565b611443610a2b611896565b61145f5760405162461bcd60e51b815260040161078d906134a7565b60fb5460ff16156114825760405162461bcd60e51b815260040161078d9061364b565b60008381526101926020526040902080546001600160a01b0316806114b95760405162461bcd60e51b815260040161078d90613545565b806001600160a01b03166114cb611896565b6001600160a01b0316146114f15760405162461bcd60e51b815260040161078d90613b5d565b6001600160a01b03811660009081526101936020526040902060018101546115199086612245565b60018201819055815410156115405760405162461bcd60e51b815260040161078d9061356e565b600383015461154f9086612245565b60038401819055600284015410156115795760405162461bcd60e51b815260040161078d90613a46565b60048301546115889085612245565b6004840155856001600160a01b0383166115a182610dec565b6001600160a01b03167fda8c6dd3bef4f6eabede38563ec41a960f3fd84ccab769aa77db40494f9eee98888888600101546040516115e193929190613ca3565b60405180910390a4505050505050565b6116026115fc611896565b83611913565b61161e5760405162461bcd60e51b815260040161078d90613b0c565b61162a8484848461226a565b50505050565b606061163b82611889565b6116575760405162461bcd60e51b815260040161078d906139b4565b600082815260d0602090815260409182902080548351601f60026000196101006001861615020190931692909204918201849004840281018401909452808452606093928301828280156116ec5780601f106116c1576101008083540402835291602001916116ec565b820191906000526020600020905b8154815290600101906020018083116116cf57829003601f168201915b505060d154939450505050600260001961010060018416150201909116046117155790506106cb565b8051156117475760d181604051602001611730929190613056565b6040516020818303038152906040529150506106cb565b60d16117528461229d565b604051602001611763929190613056565b604051602081830303815290604052915050919050565b61019454610195546001600160a01b039091169082565b60008181526065602052604081206106c890611908565b7f9f2df0fed2c77648de5860a4cc508cd0818c85b8b8a1ab4ceeef8d981c8956a681565b6000828152606560205260409020600201546117ea90610521611896565b61096e5760405162461bcd60e51b815260040161078d906135fb565b61180e611251565b61182a5760405162461bcd60e51b815260040161078d90613389565b6109076101948383612378565b600080516020613d1183398151915281565b600080516020613d5a83398151915281565b6001600160a01b03918216600090815260cd6020908152604080832093909416825291909152205460ff1690565b60006106c860ca836123ff565b3390565b600081815260cc6020526040902080546001600160a01b0319166001600160a01b03841690811790915581906118cf82610dec565b6001600160a01b03167f8c5be1e5ebec7d5bd14f71427d1e84f3dd0314c0f7b2291e5b200ac8c7c3b92560405160405180910390a45050565b60006106c88261240b565b600061191e82611889565b61193a5760405162461bcd60e51b815260040161078d906135af565b600061194583610dec565b9050806001600160a01b0316846001600160a01b031614806119805750836001600160a01b031661197584610766565b6001600160a01b0316145b806119905750611990818561185b565b949350505050565b826001600160a01b03166119ab82610dec565b6001600160a01b0316146119d15760405162461bcd60e51b815260040161078d9061396b565b6001600160a01b0382166119f75760405162461bcd60e51b815260040161078d906134ce565b611a0283838361240f565b611a0d60008261189a565b6001600160a01b038316600090815260c960205260409020611a2f908261241a565b506001600160a01b038216600090815260c960205260409020611a529082612426565b50611a5f60ca8284612432565b5080826001600160a01b0316846001600160a01b0316600080516020613d7a83398151915260405160405180910390a4505050565b6000806000611ac2670de0b6b3a7640000611abc88600101548761244890919063ffffffff16565b90612482565b95546001600160a01b031696945050505050565b6000828152606560205260409020611aee90826124c4565b1561090757611afb611896565b6001600160a01b0316816001600160a01b0316837f2f8788117e7eff1d82e926ec794901d17c78024a50270940304540a733656f0d60405160405180910390a45050565b600061092d83836124d9565b6000828152606560205260409020611b63908261251e565b1561090757611b70611896565b6001600160a01b0316816001600160a01b0316837ff6391f5c32d9c69d2a47ea670b442974b53935d1edc7fd64eb21e047a839171b60405160405180910390a45050565b60fb5460ff16611bd65760405162461bcd60e51b815260040161078d906132bf565b60fb805460ff191690557f5db9ee0a495bf2e6ff9c91a7834c1ba4fdd244a5e8aa4e537bd38aeae4b073aa611c09611896565b604051611c1691906130d7565b60405180910390a1565b611c28612bbe565b5060009081526101926020908152604091829020825160a08101845281546001600160a01b0316815260018201549281019290925260028101549282019290925260038201546060820152600490910154608082015290565b6001600160a01b03166000908152610193602052604090206002015460ff1690565b60008181526101926020526040812080546001600160a01b031916815560018101829055600281018290556003810182905560040155611ce281612533565b50565b600061092d83836040518060400160405280601e81526020017f536166654d6174683a207375627472616374696f6e206f766572666c6f7700008152506125ee565b6000808080611d36868661261a565b9097909650945050505050565b80516109079060d1906020840190612bf6565b60006001600160a01b03821663b93f9b0a60025b6040518263ffffffff1660e01b8152600401611d86919061317a565b60206040518083038186803b158015611d9e57600080fd5b505afa158015611db2573d6000803e3d6000fd5b505050506040513d601f19601f820116820180604052508101906106c89190612ce5565b6001600160a01b038116600090815261019360205260408120611dfa61015f612676565b611e0561015f61240b565b6040805160a0810182526001600160a01b0386811682526020888101358184019081528935848601818152600060608701818152608088018281528a8352610192909652979020955186546001600160a01b031916951694909417855590516001850155915160028401559251600383015591516004909101558254919350611e8e9190612245565b905592915050565b6001600160a01b038216611ebc5760405162461bcd60e51b815260040161078d906137c3565b611ec581611889565b15611ee25760405162461bcd60e51b815260040161078d906133dc565b611eee6000838361240f565b6001600160a01b038216600090815260c960205260409020611f109082612426565b50611f1d60ca8284612432565b5060405181906001600160a01b03841690600090600080516020613d7a833981519152908290a45050565b60006106c88261267f565b6000611f60848484612697565b90505b9392505050565b60fb5460ff1615611f8d5760405162461bcd60e51b815260040161078d9061364b565b60fb805460ff191660011790557f62e78cea01bee320cd4e420270b5ea74000d11b0c9f74754ebdbfc544b05a258611c09611896565b600061092d836001600160a01b0384166126f6565b303b1590565b600054610100900460ff1680611ff75750611ff7611fd8565b80612005575060005460ff16155b6120215760405162461bcd60e51b815260040161078d9061391d565b600054610100900460ff1615801561204c576000805460ff1961ff0019909116610100171660011790555b8015611ce2576000805461ff001916905550565b600054610100900460ff16806120795750612079611fd8565b80612087575060005460ff16155b6120a35760405162461bcd60e51b815260040161078d9061391d565b600054610100900460ff161580156120ce576000805460ff1961ff0019909116610100171660011790555b61204c6301ffc9a760e01b61270e565b600054610100900460ff16806120f757506120f7611fd8565b80612105575060005460ff16155b6121215760405162461bcd60e51b815260040161078d9061391d565b600054610100900460ff1615801561214c576000805460ff1961ff0019909116610100171660011790555b825161215f9060ce906020860190612bf6565b5081516121739060cf906020850190612bf6565b506121846380ac58cd60e01b61270e565b612194635b5e139f60e01b61270e565b61142263780e9d6360e01b61270e565b600054610100900460ff16806121bd57506121bd611fd8565b806121cb575060005460ff16155b6121e75760405162461bcd60e51b815260040161078d9061391d565b600054610100900460ff16158015612212576000805460ff1961ff0019909116610100171660011790555b60fb805460ff191690558015611ce2576000805461ff001916905550565b60009182526065602052604090912060020155565b60008282018381101561092d5760405162461bcd60e51b815260040161078d90613413565b612275848484611998565b6122818484848461275d565b61162a5760405162461bcd60e51b815260040161078d90613337565b6060816122c257506040805180820190915260018152600360fc1b60208201526106cb565b8160005b81156122da57600101600a820491506122c6565b60608167ffffffffffffffff811180156122f357600080fd5b506040519080825280601f01601f19166020018201604052801561231e576020820181803683370190505b50859350905060001982015b831561236f57600a840660300160f81b8282806001900393508151811061234d57fe5b60200101906001600160f81b031916908160001a905350600a8404935061232a565b50949350505050565b6001600160a01b03821661239e5760405162461bcd60e51b815260040161078d906138f6565b82546001600160a01b0319166001600160a01b0383161783556001830181905560405133907f0512e32b1bc8a6ada045dd201bbd3342e0d0b61a464796f951b3b72ffeb9bf38906123f29085908590613128565b60405180910390a2505050565b600061092d83836126f6565b5490565b610845838383612897565b600061092d83836128c7565b600061092d838361298d565b6000611f6084846001600160a01b0385166129d7565b60008261245757506000610930565b8282028284828161246457fe5b041461092d5760405162461bcd60e51b815260040161078d90613828565b600061092d83836040518060400160405280601a81526020017f536166654d6174683a206469766973696f6e206279207a65726f000000000000815250612a6e565b600061092d836001600160a01b03841661298d565b815460009082106124fc5760405162461bcd60e51b815260040161078d90613196565b82600001828154811061250b57fe5b9060005260206000200154905092915050565b600061092d836001600160a01b0384166128c7565b600061253e82610dec565b905061254c8160008461240f565b61255760008361189a565b600082815260d06020526040902054600260001961010060018416150201909116041561259557600082815260d06020526040812061259591612c74565b6001600160a01b038116600090815260c9602052604090206125b7908361241a565b506125c360ca83612aa5565b5060405182906000906001600160a01b03841690600080516020613d7a833981519152908390a45050565b600081848411156126125760405162461bcd60e51b815260040161078d9190613183565b505050900390565b81546000908190831061263f5760405162461bcd60e51b815260040161078d90613781565b600084600001848154811061265057fe5b906000526020600020906002020190508060000154816001015492509250509250929050565b80546001019055565b60006001600160a01b03821663b93f9b0a6014611d6a565b600082815260018401602052604081205482816126c75760405162461bcd60e51b815260040161078d9190613183565b508460000160018203815481106126da57fe5b9060005260206000209060020201600101549150509392505050565b60009081526001919091016020526040902054151590565b6001600160e01b031980821614156127385760405162461bcd60e51b815260040161078d906133a5565b6001600160e01b0319166000908152609760205260409020805460ff19166001179055565b6000612771846001600160a01b0316612ab1565b61277d57506001611990565b600060606001600160a01b038616630a85bd0160e11b61279b611896565b8988886040516024016127b194939291906130eb565b60408051601f198184030181529181526020820180516001600160e01b03166001600160e01b03199094169390931790925290516127ef919061303a565b6000604051808303816000865af19150503d806000811461282c576040519150601f19603f3d011682016040523d82523d6000602084013e612831565b606091505b5091509150816128635780511561284b5780518082602001fd5b60405162461bcd60e51b815260040161078d90613337565b6000818060200190518101906128799190612f28565b6001600160e01b031916630a85bd0160e11b14935061199092505050565b6128a2838383610845565b6128aa610de3565b156108455760405162461bcd60e51b815260040161078d906131d8565b6000818152600183016020526040812054801561298357835460001980830191908101906000908790839081106128fa57fe5b906000526020600020015490508087600001848154811061291757fe5b60009182526020808320909101929092558281526001898101909252604090209084019055865487908061294757fe5b60019003818190600052602060002001600090559055866001016000878152602001908152602001600020600090556001945050505050610930565b6000915050610930565b600061299983836126f6565b6129cf57508154600181810184556000848152602080822090930184905584548482528286019093526040902091909155610930565b506000610930565b600082815260018401602052604081205480612a3c575050604080518082018252838152602080820184815286546001818101895560008981528481209551600290930290950191825591519082015586548684528188019092529290912055611f63565b82856000016001830381548110612a4f57fe5b9060005260206000209060020201600101819055506000915050611f63565b60008183612a8f5760405162461bcd60e51b815260040161078d9190613183565b506000838581612a9b57fe5b0495945050505050565b600061092d8383612aea565b6000813f7fc5d2460186f7233c927e7db2dcc703c0e500b653ca82273b7bfad8045d85a470818114801590611990575050151592915050565b600081815260018301602052604081205480156129835783546000198083019190810190600090879083908110612b1d57fe5b9060005260206000209060020201905080876000018481548110612b3d57fe5b600091825260208083208454600290930201918255600193840154918401919091558354825289830190526040902090840190558654879080612b7c57fe5b60008281526020808220600260001990940193840201828155600190810183905592909355888152898201909252604082209190915594506109309350505050565b6040518060a0016040528060006001600160a01b03168152602001600081526020016000815260200160008152602001600081525090565b828054600181600116156101000203166002900490600052602060002090601f016020900481019282601f10612c3757805160ff1916838001178555612c64565b82800160010185558215612c64579182015b82811115612c64578251825591602001919060010190612c49565b50612c70929150612cb4565b5090565b50805460018160011615610100020316600290046000825580601f10612c9a5750611ce2565b601f016020900490600052602060002090810190611ce291905b5b80821115612c705760008155600101612cb5565b600060208284031215612cda578081fd5b813561092d81613ce5565b600060208284031215612cf6578081fd5b815161092d81613ce5565b60008060408385031215612d13578081fd5b8235612d1e81613ce5565b91506020830135612d2e81613ce5565b809150509250929050565b600080600060608486031215612d4d578081fd5b8335612d5881613ce5565b92506020840135612d6881613ce5565b929592945050506040919091013590565b60008060008060808587031215612d8e578081fd5b8435612d9981613ce5565b9350602085810135612daa81613ce5565b935060408601359250606086013567ffffffffffffffff80821115612dcd578384fd5b818801915088601f830112612de0578384fd5b813581811115612dee578485fd5b604051601f8201601f1916810185018381118282101715612e0d578687fd5b60405281815283820185018b1015612e23578586fd5b81858501868301379081019093019390935250939692955090935050565b60008060408385031215612e53578182fd5b8235612e5e81613ce5565b915060208301358015158114612d2e578182fd5b60008060408385031215612d13578182fd5b60008060408385031215612e96578182fd5b8235612ea181613ce5565b946020939093013593505050565b600060208284031215612ec0578081fd5b5035919050565b60008060408385031215612ed9578182fd5b823591506020830135612d2e81613ce5565b60008060408385031215612efd578182fd5b50508035926020909101359150565b600060208284031215612f1d578081fd5b813561092d81613cfa565b600060208284031215612f39578081fd5b815161092d81613cfa565b60008060208385031215612f56578182fd5b823567ffffffffffffffff80821115612f6d578384fd5b818501915085601f830112612f80578384fd5b813581811115612f8e578485fd5b866020828501011115612f9f578485fd5b60209290920196919550909350505050565b6000808284036060811215612fc4578283fd5b6040811215612fd1578283fd5b508291506040830135612d2e81613ce5565b600080600060608486031215612ff7578081fd5b505081359360208301359350604090920135919050565b60008151808452613026816020860160208601613cb9565b601f01601f19169290920160200192915050565b6000825161304c818460208701613cb9565b9190910192915050565b6000808454600180821660008114613075576001811461308c576130bb565b60ff198316865260028304607f16860193506130bb565b600283048886526020808720875b838110156130b35781548a82015290850190820161309a565b505050860193505b50505083516130ce818360208801613cb9565b01949350505050565b6001600160a01b0391909116815260200190565b6001600160a01b038581168252841660208201526040810183905260806060820181905260009061311e9083018461300e565b9695505050505050565b6001600160a01b03929092168252602082015260400190565b6001600160a01b03959095168552602085019390935260408401919091526060830152608082015260a00190565b901515815260200190565b90815260200190565b60006020825261092d602083018461300e565b60208082526022908201527f456e756d657261626c655365743a20696e646578206f7574206f6620626f756e604082015261647360f01b606082015260800190565b6020808252602b908201527f4552433732315061757361626c653a20746f6b656e207472616e73666572207760408201526a1a1a5b19481c185d5cd95960aa1b606082015260800190565b6020808252602f908201527f416363657373436f6e74726f6c3a2073656e646572206d75737420626520616e60408201526e0818591b5a5b881d1bc819dc985b9d608a1b606082015260800190565b6020808252602d908201527f4552433732314275726e61626c653a2063616c6c65722063616e6e6f7420627560408201526c3937103a3434b9903a37b5b2b760991b606082015260800190565b60208082526014908201527314185d5cd8589b194e881b9bdd081c185d5cd95960621b604082015260600190565b6020808252602a908201527f4f776e657220616e6420636f6e666967206164647265737365732063616e6e6f6040820152697420626520656d70747960b01b606082015260800190565b60208082526032908201527f4552433732313a207472616e7366657220746f206e6f6e20455243373231526560408201527131b2b4bb32b91034b6b83632b6b2b73a32b960711b606082015260800190565b602080825260029082015261105160f21b604082015260600190565b6020808252601c908201527f4552433136353a20696e76616c696420696e7465726661636520696400000000604082015260600190565b6020808252601c908201527f4552433732313a20746f6b656e20616c7265616479206d696e74656400000000604082015260600190565b6020808252601b908201527f536166654d6174683a206164646974696f6e206f766572666c6f770000000000604082015260600190565b6020808252603e908201527f4552433732315072657365744d696e7465725061757365724175746f49643a2060408201527f6d75737420686176652070617573657220726f6c6520746f2070617573650000606082015260800190565b6020808252600d908201526c496e76616c696420706f6f6c2160981b604082015260600190565b60208082526024908201527f4552433732313a207472616e7366657220746f20746865207a65726f206164646040820152637265737360e01b606082015260800190565b60208082526019908201527822a9219b99189d1030b8383937bb32903a379031b0b63632b960391b604082015260600190565b6020808252600f908201526e125b9d985b1a59081d1bdad95b9259608a1b604082015260600190565b60208082526021908201527f43616e6e6f742072656465656d206d6f7265207468616e207765206d696e74656040820152601960fa1b606082015260800190565b6020808252602c908201527f4552433732313a206f70657261746f7220717565727920666f72206e6f6e657860408201526b34b9ba32b73a103a37b5b2b760a11b606082015260800190565b60208082526030908201527f416363657373436f6e74726f6c3a2073656e646572206d75737420626520616e60408201526f2061646d696e20746f207265766f6b6560801b606082015260800190565b60208082526010908201526f14185d5cd8589b194e881c185d5cd95960821b604082015260600190565b6020808252600e908201526d24b73b30b634b21039b2b73232b960911b604082015260600190565b60208082526038908201527f4552433732313a20617070726f76652063616c6c6572206973206e6f74206f776040820152771b995c881b9bdc88185c1c1c9bdd995908199bdc88185b1b60421b606082015260800190565b6020808252602a908201527f4552433732313a2062616c616e636520717565727920666f7220746865207a65604082015269726f206164647265737360b01b606082015260800190565b60208082526022908201527f43616e6e6f74207769746864726177206d6f7265207468616e2072656465656d604082015261195960f21b606082015260800190565b60208082526022908201527f456e756d657261626c654d61703a20696e646578206f7574206f6620626f756e604082015261647360f01b606082015260800190565b6020808252818101527f4552433732313a206d696e7420746f20746865207a65726f2061646472657373604082015260600190565b602080825260169082015275125b9cdd59999a58da595b9d081c1c9a5b98da5c185b60521b604082015260600190565b60208082526021908201527f536166654d6174683a206d756c7469706c69636174696f6e206f766572666c6f6040820152607760f81b606082015260800190565b6020808252602c908201527f4552433732313a20617070726f76656420717565727920666f72206e6f6e657860408201526b34b9ba32b73a103a37b5b2b760a11b606082015260800190565b60208082526021908201527f4f6e6c7920476f6c6466696e636820666163746f727920697320616c6c6f77656040820152601960fa1b606082015260800190565b6020808252600d908201526c273ab636103932b1b2b4bb32b960991b604082015260600190565b6020808252602e908201527f436f6e747261637420696e7374616e63652068617320616c726561647920626560408201526d195b881a5b9a5d1a585b1a5e995960921b606082015260800190565b60208082526029908201527f4552433732313a207472616e73666572206f6620746f6b656e2074686174206960408201526839903737ba1037bbb760b91b606082015260800190565b6020808252602f908201527f4552433732314d657461646174613a2055524920717565727920666f72206e6f60408201526e3732bc34b9ba32b73a103a37b5b2b760891b606082015260800190565b60208082526023908201527f43616e206f6e6c79206275726e2066756c6c792072656465656d656420746f6b604082015262656e7360e81b606082015260800190565b6020808252603c908201527f43616e6e6f742072656465656d206d6f7265207468616e207072696e6369706160408201527f6c2d6465706f736974656420616d6f756e7420666f7220746f6b656e00000000606082015260800190565b6020808252600e908201526d151bdad95b881c995919595b595960921b604082015260600190565b60208082526021908201527f4552433732313a20617070726f76616c20746f2063757272656e74206f776e656040820152603960f91b606082015260800190565b60208082526031908201527f4552433732313a207472616e736665722063616c6c6572206973206e6f74206f6040820152701ddb995c881b9bdc88185c1c1c9bdd9959607a1b606082015260800190565b6020808252818101527f4f6e6c792074686520746f6b656e277320706f6f6c2063616e2072656465656d604082015260600190565b602080825260409082018190527f4552433732315072657365744d696e7465725061757365724175746f49643a20908201527f6d75737420686176652070617573657220726f6c6520746f20756e7061757365606082015260800190565b6020808252602f908201527f416363657373436f6e74726f6c3a2063616e206f6e6c792072656e6f756e636560408201526e103937b632b9903337b91039b2b63360891b606082015260800190565b81516001600160a01b031681526020808301519082015260408083015190820152606080830151908201526080918201519181019190915260a00190565b918252602082015260400190565b92835260208301919091521515604082015260600190565b9283526020830191909152604082015260600190565b60005b83811015613cd4578181015183820152602001613cbc565b8381111561162a5750506000910152565b6001600160a01b0381168114611ce257600080fd5b6001600160e01b031981168114611ce257600080fdfeb19546dff01e856fb3f010c267a7b1c60363cf8a4664e21cc89c26224620214e4552433732313a206f776e657220717565727920666f72206e6f6e6578697374656e7420746f6b656e65d7a28e3265b37a6474929f336521b332c1681b933f6cb9f3376673440d862addf252ad1be2c89b69c2b068fc378daa952ba7f163c4a11628f55a4df523b3efa26469706673582212208df05ad1a94d2defea54c5832b2aaa5bd4c2da729a800c86dee01c71a4142fc764736f6c634300060c0033",
  "devdoc": {
    "author": "Goldfinch",
    "kind": "dev",
    "methods": {
      "approve(address,uint256)": {
        "details": "Approves another address to transfer the given token ID The zero address indicates there is no approved address. There can only be one approved address per token at a given time. Can only be called by the token owner or an approved operator.",
        "params": {
          "to": "address to be approved for the given token ID",
          "tokenId": "uint256 ID of the token to be approved"
        }
      },
      "balanceOf(address)": {
        "details": "Gets the balance of the specified address.",
        "params": {
          "owner": "address to query the balance of"
        },
        "returns": {
          "_0": "uint256 representing the amount owned by the passed address"
        }
      },
      "baseURI()": {
        "details": "Returns the base URI set via {_setBaseURI}. This will be automatically added as a prefix in {tokenURI} to each token's URI, or to the token ID if no specific URI is set for that token ID."
      },
      "burn(uint256)": {
        "details": "Burns a specific ERC721 token, and removes the data from our mappings",
        "params": {
          "tokenId": "uint256 id of the ERC721 token to be burned."
        }
      },
      "getApproved(uint256)": {
        "details": "Gets the approved address for a token ID, or zero if no address set Reverts if the token ID does not exist.",
        "params": {
          "tokenId": "uint256 ID of the token to query the approval of"
        },
        "returns": {
          "_0": "address currently approved for the given token ID"
        }
      },
      "getRoleAdmin(bytes32)": {
        "details": "Returns the admin role that controls `role`. See {grantRole} and {revokeRole}. To change a role's admin, use {_setRoleAdmin}."
      },
      "getRoleMember(bytes32,uint256)": {
        "details": "Returns one of the accounts that have `role`. `index` must be a value between 0 and {getRoleMemberCount}, non-inclusive. Role bearers are not sorted in any particular way, and their ordering may change at any point. WARNING: When using {getRoleMember} and {getRoleMemberCount}, make sure you perform all queries on the same block. See the following https://forum.openzeppelin.com/t/iterating-over-elements-on-enumerableset-in-openzeppelin-contracts/2296[forum post] for more information."
      },
      "getRoleMemberCount(bytes32)": {
        "details": "Returns the number of accounts that have `role`. Can be used together with {getRoleMember} to enumerate all bearers of a role."
      },
      "grantRole(bytes32,address)": {
        "details": "Grants `role` to `account`. If `account` had not been already granted `role`, emits a {RoleGranted} event. Requirements: - the caller must have ``role``'s admin role."
      },
      "hasRole(bytes32,address)": {
        "details": "Returns `true` if `account` has been granted `role`."
      },
      "isAdmin()": {
        "returns": {
          "_0": "isAdmin True when msg.sender has OWNER_ROLE"
        }
      },
      "isApprovedForAll(address,address)": {
        "details": "Tells whether an operator is approved by a given owner.",
        "params": {
          "operator": "operator address which you want to query the approval of",
          "owner": "owner address which you want to query the approval of"
        },
        "returns": {
          "_0": "bool whether the given operator is approved by the given owner"
        }
      },
      "isApprovedOrOwner(address,uint256)": {
        "params": {
          "spender": "The address to check",
          "tokenId": "The token id to check for"
        },
        "returns": {
          "_0": "True if approved to redeem/transfer/burn the token, false if not"
        }
      },
      "mint((uint256,uint256),address)": {
        "params": {
          "params": "Struct containing the tranche and the amount",
          "to": "The address that should own the position"
        },
        "returns": {
          "tokenId": "The token ID (auto-incrementing integer across all pools)"
        }
      },
      "name()": {
        "details": "Gets the token name.",
        "returns": {
          "_0": "string representing the token name"
        }
      },
      "onPoolCreated(address)": {
        "params": {
          "newPool": "The address of the newly created pool"
        }
      },
      "ownerOf(uint256)": {
        "details": "Gets the owner of the specified token ID.",
        "params": {
          "tokenId": "uint256 ID of the token to query the owner of"
        },
        "returns": {
          "_0": "address currently marked as the owner of the given token ID"
        }
      },
      "pause()": {
        "details": "Pauses all token transfers. See {ERC721Pausable} and {Pausable-_pause}. Requirements: - the caller must have the `PAUSER_ROLE`."
      },
      "paused()": {
        "details": "Returns true if the contract is paused, and false otherwise."
      },
      "redeem(uint256,uint256,uint256)": {
        "params": {
          "interestRedeemed": "The incremental amount of interest redeemed",
          "principalRedeemed": "The incremental amount of principal redeemed (cannot be more than principal deposited)",
          "tokenId": "The token id to update (must be owned by the pool calling this function)"
        }
      },
      "reducePrincipalAmount(uint256,uint256)": {
        "details": "uses safemath to prevent underflowthis function is only intended for use as part of the v2.6.0 upgrade    to rectify a bug that allowed users to create a PoolToken that had a    larger amount of principal than they actually made available to the    borrower.  This bug is fixed in v2.6.0 but still requires past pool tokens    to have their principal redeemed and deposited to be rectified.",
        "params": {
          "amount": "amount to decrease by",
          "tokenId": "id of token to decrease"
        }
      },
      "renounceRole(bytes32,address)": {
        "details": "Revokes `role` from the calling account. Roles are often managed via {grantRole} and {revokeRole}: this function's purpose is to provide a mechanism for accounts to lose their privileges if they are compromised (such as when a trusted device is misplaced). If the calling account had been granted `role`, emits a {RoleRevoked} event. Requirements: - the caller must be `account`."
      },
      "revokeRole(bytes32,address)": {
        "details": "Revokes `role` from `account`. If `account` had been granted `role`, emits a {RoleRevoked} event. Requirements: - the caller must have ``role``'s admin role."
      },
      "royaltyInfo(uint256,uint256)": {
        "params": {
          "_salePrice": "The sale price of the NFT asset specified by _tokenId",
          "_tokenId": "The NFT asset queried for royalty information"
        },
        "returns": {
          "_0": "receiver Address that should receive royalties",
          "_1": "royaltyAmount The royalty payment amount for _salePrice"
        }
      },
      "safeTransferFrom(address,address,uint256)": {
        "details": "Safely transfers the ownership of a given token ID to another address If the target address is a contract, it must implement {IERC721Receiver-onERC721Received}, which is called upon a safe transfer, and return the magic value `bytes4(keccak256(\"onERC721Received(address,address,uint256,bytes)\"))`; otherwise, the transfer is reverted. Requires the msg.sender to be the owner, approved, or operator",
        "params": {
          "from": "current owner of the token",
          "to": "address to receive the ownership of the given token ID",
          "tokenId": "uint256 ID of the token to be transferred"
        }
      },
      "safeTransferFrom(address,address,uint256,bytes)": {
        "details": "Safely transfers the ownership of a given token ID to another address If the target address is a contract, it must implement {IERC721Receiver-onERC721Received}, which is called upon a safe transfer, and return the magic value `bytes4(keccak256(\"onERC721Received(address,address,uint256,bytes)\"))`; otherwise, the transfer is reverted. Requires the _msgSender() to be the owner, approved, or operator",
        "params": {
          "_data": "bytes data to send along with a safe transfer check",
          "from": "current owner of the token",
          "to": "address to receive the ownership of the given token ID",
          "tokenId": "uint256 ID of the token to be transferred"
        }
      },
      "setApprovalForAll(address,bool)": {
        "details": "Sets or unsets the approval of a given operator An operator is allowed to transfer all tokens of the sender on their behalf.",
        "params": {
          "approved": "representing the status of the approval to be set",
          "operator": "operator address to set the approval"
        }
      },
      "setRoyaltyParams(address,uint256)": {
        "params": {
          "newReceiver": "The new address which should receive royalties. See `receiver`.",
          "newRoyaltyPercent": "The new percent of `salePrice` that should be taken for royalties.   See `royaltyPercent`."
        }
      },
      "symbol()": {
        "details": "Gets the token symbol.",
        "returns": {
          "_0": "string representing the token symbol"
        }
      },
      "tokenByIndex(uint256)": {
        "details": "Gets the token ID at a given index of all the tokens in this contract Reverts if the index is greater or equal to the total number of tokens.",
        "params": {
          "index": "uint256 representing the index to be accessed of the tokens list"
        },
        "returns": {
          "_0": "uint256 token ID at the given index of the tokens list"
        }
      },
      "tokenOfOwnerByIndex(address,uint256)": {
        "details": "Gets the token ID at a given index of the tokens list of the requested owner.",
        "params": {
          "index": "uint256 representing the index to be accessed of the requested tokens list",
          "owner": "address owning the tokens list to be accessed"
        },
        "returns": {
          "_0": "uint256 token ID at the given index of the tokens list owned by the requested address"
        }
      },
      "tokenURI(uint256)": {
        "details": "Returns the URI for a given token ID. May return an empty string. If a base URI is set (via {_setBaseURI}), it is added as a prefix to the token's own URI (via {_setTokenURI}). If there is a base URI but no token URI, the token's ID will be used as its URI when appending it to the base URI. This pattern for autogenerated token URIs can lead to large gas savings. .Examples |=== |`_setBaseURI()` |`_setTokenURI()` |`tokenURI()` | \"\" | \"\" | \"\" | \"\" | \"token.uri/123\" | \"token.uri/123\" | \"token.uri/\" | \"123\" | \"token.uri/123\" | \"token.uri/\" | \"\" | \"token.uri/<tokenId>\" |=== Requirements: - `tokenId` must exist."
      },
      "totalSupply()": {
        "details": "Gets the total amount of tokens stored by the contract.",
        "returns": {
          "_0": "uint256 representing the total amount of tokens"
        }
      },
      "transferFrom(address,address,uint256)": {
        "details": "Transfers the ownership of a given token ID to another address. Usage of this method is discouraged, use {safeTransferFrom} whenever possible. Requires the msg.sender to be the owner, approved, or operator.",
        "params": {
          "from": "current owner of the token",
          "to": "address to receive the ownership of the given token ID",
          "tokenId": "uint256 ID of the token to be transferred"
        }
      },
      "unpause()": {
        "details": "Unpauses all token transfers. See {ERC721Pausable} and {Pausable-_unpause}. Requirements: - the caller must have the `PAUSER_ROLE`."
      },
      "withdrawPrincipal(uint256,uint256)": {
        "params": {
          "principalAmount": "The incremental amount of principal redeemed (cannot be more than principal deposited)",
          "tokenId": "The token id to update (must be owned by the pool calling this function)"
        }
      }
    },
    "title": "PoolTokens",
    "version": 1
  },
  "userdoc": {
    "kind": "user",
    "methods": {
      "OWNER_ROLE()": {
        "notice": "ID for OWNER_ROLE"
      },
      "isAdmin()": {
        "notice": "Determine whether msg.sender has OWNER_ROLE"
      },
      "isApprovedOrOwner(address,uint256)": {
        "notice": "Returns a boolean representing whether the spender is the owner or the approved spender of the token"
      },
      "mint((uint256,uint256),address)": {
        "notice": "Called by pool to create a debt position in a particular tranche and amount"
      },
      "onPoolCreated(address)": {
        "notice": "Called by the GoldfinchFactory to register the pool as a valid pool. Only valid pools can mint/redeem tokens"
      },
      "redeem(uint256,uint256,uint256)": {
        "notice": "Updates a token to reflect the principal and interest amounts that have been redeemed."
      },
      "reducePrincipalAmount(uint256,uint256)": {
        "notice": "reduce a given pool token's principalAmount and principalRedeemed by a specified amount"
      },
      "setRoyaltyParams(address,uint256)": {
        "notice": "Set royalty params used in `royaltyInfo`. This function is only callable by   an address with `OWNER_ROLE`."
      },
      "withdrawPrincipal(uint256,uint256)": {
        "notice": "Decrement a token's principal amount. This is different from `redeem`, which captures changes to   principal and/or interest that occur when a loan is in progress."
      }
    },
    "notice": "PoolTokens is an ERC721 compliant contract, which can represent  junior tranche or senior tranche shares of any of the borrower pools.",
    "version": 1
  },
  "storageLayout": {
    "storage": [
      {
        "astId": 151,
        "contract": "contracts/protocol/core/PoolTokens.sol:PoolTokens",
        "label": "initialized",
        "offset": 0,
        "slot": "0",
        "type": "t_bool"
      },
      {
        "astId": 154,
        "contract": "contracts/protocol/core/PoolTokens.sol:PoolTokens",
        "label": "initializing",
        "offset": 1,
        "slot": "0",
        "type": "t_bool"
      },
      {
        "astId": 219,
        "contract": "contracts/protocol/core/PoolTokens.sol:PoolTokens",
        "label": "______gap",
        "offset": 0,
        "slot": "1",
        "type": "t_array(t_uint256)50_storage"
      },
      {
        "astId": 144,
        "contract": "contracts/protocol/core/PoolTokens.sol:PoolTokens",
        "label": "__gap",
        "offset": 0,
        "slot": "51",
        "type": "t_array(t_uint256)50_storage"
      },
      {
        "astId": 264,
        "contract": "contracts/protocol/core/PoolTokens.sol:PoolTokens",
        "label": "_roles",
        "offset": 0,
        "slot": "101",
        "type": "t_mapping(t_bytes32,t_struct(RoleData)260_storage)"
      },
      {
        "astId": 509,
        "contract": "contracts/protocol/core/PoolTokens.sol:PoolTokens",
        "label": "__gap",
        "offset": 0,
        "slot": "102",
        "type": "t_array(t_uint256)49_storage"
      },
      {
        "astId": 6541,
        "contract": "contracts/protocol/core/PoolTokens.sol:PoolTokens",
        "label": "_supportedInterfaces",
        "offset": 0,
        "slot": "151",
        "type": "t_mapping(t_bytes4,t_bool)"
      },
      {
        "astId": 6598,
        "contract": "contracts/protocol/core/PoolTokens.sol:PoolTokens",
        "label": "__gap",
        "offset": 0,
        "slot": "152",
        "type": "t_array(t_uint256)49_storage"
      },
      {
        "astId": 6648,
        "contract": "contracts/protocol/core/PoolTokens.sol:PoolTokens",
        "label": "_holderTokens",
        "offset": 0,
        "slot": "201",
        "type": "t_mapping(t_address,t_struct(UintSet)3192_storage)"
      },
      {
        "astId": 6650,
        "contract": "contracts/protocol/core/PoolTokens.sol:PoolTokens",
        "label": "_tokenOwners",
        "offset": 0,
        "slot": "202",
        "type": "t_struct(UintToAddressMap)2717_storage"
      },
      {
        "astId": 6654,
        "contract": "contracts/protocol/core/PoolTokens.sol:PoolTokens",
        "label": "_tokenApprovals",
        "offset": 0,
        "slot": "204",
        "type": "t_mapping(t_uint256,t_address)"
      },
      {
        "astId": 6660,
        "contract": "contracts/protocol/core/PoolTokens.sol:PoolTokens",
        "label": "_operatorApprovals",
        "offset": 0,
        "slot": "205",
        "type": "t_mapping(t_address,t_mapping(t_address,t_bool))"
      },
      {
        "astId": 6662,
        "contract": "contracts/protocol/core/PoolTokens.sol:PoolTokens",
        "label": "_name",
        "offset": 0,
        "slot": "206",
        "type": "t_string_storage"
      },
      {
        "astId": 6664,
        "contract": "contracts/protocol/core/PoolTokens.sol:PoolTokens",
        "label": "_symbol",
        "offset": 0,
        "slot": "207",
        "type": "t_string_storage"
      },
      {
        "astId": 6668,
        "contract": "contracts/protocol/core/PoolTokens.sol:PoolTokens",
        "label": "_tokenURIs",
        "offset": 0,
        "slot": "208",
        "type": "t_mapping(t_uint256,t_string_storage)"
      },
      {
        "astId": 6670,
        "contract": "contracts/protocol/core/PoolTokens.sol:PoolTokens",
        "label": "_baseURI",
        "offset": 0,
        "slot": "209",
        "type": "t_string_storage"
      },
      {
        "astId": 7576,
        "contract": "contracts/protocol/core/PoolTokens.sol:PoolTokens",
        "label": "__gap",
        "offset": 0,
        "slot": "210",
        "type": "t_array(t_uint256)41_storage"
      },
      {
        "astId": 3308,
        "contract": "contracts/protocol/core/PoolTokens.sol:PoolTokens",
        "label": "_paused",
        "offset": 0,
        "slot": "251",
        "type": "t_bool"
      },
      {
        "astId": 3397,
        "contract": "contracts/protocol/core/PoolTokens.sol:PoolTokens",
        "label": "__gap",
        "offset": 0,
        "slot": "252",
        "type": "t_array(t_uint256)49_storage"
      },
      {
        "astId": 7644,
        "contract": "contracts/protocol/core/PoolTokens.sol:PoolTokens",
        "label": "__gap",
        "offset": 0,
        "slot": "301",
        "type": "t_array(t_uint256)50_storage"
      },
      {
        "astId": 7676,
        "contract": "contracts/protocol/core/PoolTokens.sol:PoolTokens",
        "label": "_tokenIdTracker",
        "offset": 0,
        "slot": "351",
        "type": "t_struct(Counter)2397_storage"
      },
      {
        "astId": 7734,
        "contract": "contracts/protocol/core/PoolTokens.sol:PoolTokens",
        "label": "__gap",
        "offset": 0,
        "slot": "352",
        "type": "t_array(t_uint256)49_storage"
      },
      {
        "astId": 20031,
        "contract": "contracts/protocol/core/PoolTokens.sol:PoolTokens",
        "label": "config",
        "offset": 0,
        "slot": "401",
        "type": "t_contract(GoldfinchConfig)17540"
      },
      {
        "astId": 20045,
        "contract": "contracts/protocol/core/PoolTokens.sol:PoolTokens",
        "label": "tokens",
        "offset": 0,
        "slot": "402",
        "type": "t_mapping(t_uint256,t_struct(TokenInfo)10179_storage)"
      },
      {
        "astId": 20049,
        "contract": "contracts/protocol/core/PoolTokens.sol:PoolTokens",
        "label": "pools",
        "offset": 0,
        "slot": "403",
        "type": "t_mapping(t_address,t_struct(PoolInfo)20041_storage)"
      },
      {
        "astId": 20051,
        "contract": "contracts/protocol/core/PoolTokens.sol:PoolTokens",
        "label": "royaltyParams",
        "offset": 0,
        "slot": "404",
        "type": "t_struct(RoyaltyParams)12955_storage"
      }
    ],
    "types": {
      "t_address": {
        "encoding": "inplace",
        "label": "address",
        "numberOfBytes": "20"
      },
      "t_array(t_bytes32)dyn_storage": {
        "base": "t_bytes32",
        "encoding": "dynamic_array",
        "label": "bytes32[]",
        "numberOfBytes": "32"
      },
      "t_array(t_struct(MapEntry)2445_storage)dyn_storage": {
        "base": "t_struct(MapEntry)2445_storage",
        "encoding": "dynamic_array",
        "label": "struct EnumerableMap.MapEntry[]",
        "numberOfBytes": "32"
      },
      "t_array(t_uint256)41_storage": {
        "base": "t_uint256",
        "encoding": "inplace",
        "label": "uint256[41]",
        "numberOfBytes": "1312"
      },
      "t_array(t_uint256)49_storage": {
        "base": "t_uint256",
        "encoding": "inplace",
        "label": "uint256[49]",
        "numberOfBytes": "1568"
      },
      "t_array(t_uint256)50_storage": {
        "base": "t_uint256",
        "encoding": "inplace",
        "label": "uint256[50]",
        "numberOfBytes": "1600"
      },
      "t_bool": {
        "encoding": "inplace",
        "label": "bool",
        "numberOfBytes": "1"
      },
      "t_bytes32": {
        "encoding": "inplace",
        "label": "bytes32",
        "numberOfBytes": "32"
      },
      "t_bytes4": {
        "encoding": "inplace",
        "label": "bytes4",
        "numberOfBytes": "4"
      },
      "t_contract(GoldfinchConfig)17540": {
        "encoding": "inplace",
        "label": "contract GoldfinchConfig",
        "numberOfBytes": "20"
      },
      "t_mapping(t_address,t_bool)": {
        "encoding": "mapping",
        "key": "t_address",
        "label": "mapping(address => bool)",
        "numberOfBytes": "32",
        "value": "t_bool"
      },
      "t_mapping(t_address,t_mapping(t_address,t_bool))": {
        "encoding": "mapping",
        "key": "t_address",
        "label": "mapping(address => mapping(address => bool))",
        "numberOfBytes": "32",
        "value": "t_mapping(t_address,t_bool)"
      },
      "t_mapping(t_address,t_struct(PoolInfo)20041_storage)": {
        "encoding": "mapping",
        "key": "t_address",
        "label": "mapping(address => struct PoolTokens.PoolInfo)",
        "numberOfBytes": "32",
        "value": "t_struct(PoolInfo)20041_storage"
      },
      "t_mapping(t_address,t_struct(UintSet)3192_storage)": {
        "encoding": "mapping",
        "key": "t_address",
        "label": "mapping(address => struct EnumerableSet.UintSet)",
        "numberOfBytes": "32",
        "value": "t_struct(UintSet)3192_storage"
      },
      "t_mapping(t_bytes32,t_struct(RoleData)260_storage)": {
        "encoding": "mapping",
        "key": "t_bytes32",
        "label": "mapping(bytes32 => struct AccessControlUpgradeSafe.RoleData)",
        "numberOfBytes": "32",
        "value": "t_struct(RoleData)260_storage"
      },
      "t_mapping(t_bytes32,t_uint256)": {
        "encoding": "mapping",
        "key": "t_bytes32",
        "label": "mapping(bytes32 => uint256)",
        "numberOfBytes": "32",
        "value": "t_uint256"
      },
      "t_mapping(t_bytes4,t_bool)": {
        "encoding": "mapping",
        "key": "t_bytes4",
        "label": "mapping(bytes4 => bool)",
        "numberOfBytes": "32",
        "value": "t_bool"
      },
      "t_mapping(t_uint256,t_address)": {
        "encoding": "mapping",
        "key": "t_uint256",
        "label": "mapping(uint256 => address)",
        "numberOfBytes": "32",
        "value": "t_address"
      },
      "t_mapping(t_uint256,t_string_storage)": {
        "encoding": "mapping",
        "key": "t_uint256",
        "label": "mapping(uint256 => string)",
        "numberOfBytes": "32",
        "value": "t_string_storage"
      },
      "t_mapping(t_uint256,t_struct(TokenInfo)10179_storage)": {
        "encoding": "mapping",
        "key": "t_uint256",
        "label": "mapping(uint256 => struct IPoolTokens.TokenInfo)",
        "numberOfBytes": "32",
        "value": "t_struct(TokenInfo)10179_storage"
      },
      "t_string_storage": {
        "encoding": "bytes",
        "label": "string",
        "numberOfBytes": "32"
      },
      "t_struct(AddressSet)3083_storage": {
        "encoding": "inplace",
        "label": "struct EnumerableSet.AddressSet",
        "members": [
          {
            "astId": 3082,
            "contract": "contracts/protocol/core/PoolTokens.sol:PoolTokens",
            "label": "_inner",
            "offset": 0,
            "slot": "0",
            "type": "t_struct(Set)2903_storage"
          }
        ],
        "numberOfBytes": "64"
      },
      "t_struct(Counter)2397_storage": {
        "encoding": "inplace",
        "label": "struct Counters.Counter",
        "members": [
          {
            "astId": 2396,
            "contract": "contracts/protocol/core/PoolTokens.sol:PoolTokens",
            "label": "_value",
            "offset": 0,
            "slot": "0",
            "type": "t_uint256"
          }
        ],
        "numberOfBytes": "32"
      },
      "t_struct(Map)2453_storage": {
        "encoding": "inplace",
        "label": "struct EnumerableMap.Map",
        "members": [
          {
            "astId": 2448,
            "contract": "contracts/protocol/core/PoolTokens.sol:PoolTokens",
            "label": "_entries",
            "offset": 0,
            "slot": "0",
            "type": "t_array(t_struct(MapEntry)2445_storage)dyn_storage"
          },
          {
            "astId": 2452,
            "contract": "contracts/protocol/core/PoolTokens.sol:PoolTokens",
            "label": "_indexes",
            "offset": 0,
            "slot": "1",
            "type": "t_mapping(t_bytes32,t_uint256)"
          }
        ],
        "numberOfBytes": "64"
      },
      "t_struct(MapEntry)2445_storage": {
        "encoding": "inplace",
        "label": "struct EnumerableMap.MapEntry",
        "members": [
          {
            "astId": 2442,
            "contract": "contracts/protocol/core/PoolTokens.sol:PoolTokens",
            "label": "_key",
            "offset": 0,
            "slot": "0",
            "type": "t_bytes32"
          },
          {
            "astId": 2444,
            "contract": "contracts/protocol/core/PoolTokens.sol:PoolTokens",
            "label": "_value",
            "offset": 0,
            "slot": "1",
            "type": "t_bytes32"
          }
        ],
        "numberOfBytes": "64"
      },
      "t_struct(PoolInfo)20041_storage": {
        "encoding": "inplace",
        "label": "struct PoolTokens.PoolInfo",
        "members": [
          {
            "astId": 20036,
            "contract": "contracts/protocol/core/PoolTokens.sol:PoolTokens",
            "label": "totalMinted",
            "offset": 0,
            "slot": "0",
            "type": "t_uint256"
          },
          {
            "astId": 20038,
            "contract": "contracts/protocol/core/PoolTokens.sol:PoolTokens",
            "label": "totalPrincipalRedeemed",
            "offset": 0,
            "slot": "1",
            "type": "t_uint256"
          },
          {
            "astId": 20040,
            "contract": "contracts/protocol/core/PoolTokens.sol:PoolTokens",
            "label": "created",
            "offset": 0,
            "slot": "2",
            "type": "t_bool"
          }
        ],
        "numberOfBytes": "96"
      },
      "t_struct(RoleData)260_storage": {
        "encoding": "inplace",
        "label": "struct AccessControlUpgradeSafe.RoleData",
        "members": [
          {
            "astId": 257,
            "contract": "contracts/protocol/core/PoolTokens.sol:PoolTokens",
            "label": "members",
            "offset": 0,
            "slot": "0",
            "type": "t_struct(AddressSet)3083_storage"
          },
          {
            "astId": 259,
            "contract": "contracts/protocol/core/PoolTokens.sol:PoolTokens",
            "label": "adminRole",
            "offset": 0,
            "slot": "2",
            "type": "t_bytes32"
          }
        ],
        "numberOfBytes": "96"
      },
      "t_struct(RoyaltyParams)12955_storage": {
        "encoding": "inplace",
        "label": "struct ConfigurableRoyaltyStandard.RoyaltyParams",
        "members": [
          {
            "astId": 12951,
            "contract": "contracts/protocol/core/PoolTokens.sol:PoolTokens",
            "label": "receiver",
            "offset": 0,
            "slot": "0",
            "type": "t_address"
          },
          {
            "astId": 12954,
            "contract": "contracts/protocol/core/PoolTokens.sol:PoolTokens",
            "label": "royaltyPercent",
            "offset": 0,
            "slot": "1",
            "type": "t_uint256"
          }
        ],
        "numberOfBytes": "64"
      },
      "t_struct(Set)2903_storage": {
        "encoding": "inplace",
        "label": "struct EnumerableSet.Set",
        "members": [
          {
            "astId": 2898,
            "contract": "contracts/protocol/core/PoolTokens.sol:PoolTokens",
            "label": "_values",
            "offset": 0,
            "slot": "0",
            "type": "t_array(t_bytes32)dyn_storage"
          },
          {
            "astId": 2902,
            "contract": "contracts/protocol/core/PoolTokens.sol:PoolTokens",
            "label": "_indexes",
            "offset": 0,
            "slot": "1",
            "type": "t_mapping(t_bytes32,t_uint256)"
          }
        ],
        "numberOfBytes": "64"
      },
      "t_struct(TokenInfo)10179_storage": {
        "encoding": "inplace",
        "label": "struct IPoolTokens.TokenInfo",
        "members": [
          {
            "astId": 10170,
            "contract": "contracts/protocol/core/PoolTokens.sol:PoolTokens",
            "label": "pool",
            "offset": 0,
            "slot": "0",
            "type": "t_address"
          },
          {
            "astId": 10172,
            "contract": "contracts/protocol/core/PoolTokens.sol:PoolTokens",
            "label": "tranche",
            "offset": 0,
            "slot": "1",
            "type": "t_uint256"
          },
          {
            "astId": 10174,
            "contract": "contracts/protocol/core/PoolTokens.sol:PoolTokens",
            "label": "principalAmount",
            "offset": 0,
            "slot": "2",
            "type": "t_uint256"
          },
          {
            "astId": 10176,
            "contract": "contracts/protocol/core/PoolTokens.sol:PoolTokens",
            "label": "principalRedeemed",
            "offset": 0,
            "slot": "3",
            "type": "t_uint256"
          },
          {
            "astId": 10178,
            "contract": "contracts/protocol/core/PoolTokens.sol:PoolTokens",
            "label": "interestRedeemed",
            "offset": 0,
            "slot": "4",
            "type": "t_uint256"
          }
        ],
        "numberOfBytes": "160"
      },
      "t_struct(UintSet)3192_storage": {
        "encoding": "inplace",
        "label": "struct EnumerableSet.UintSet",
        "members": [
          {
            "astId": 3191,
            "contract": "contracts/protocol/core/PoolTokens.sol:PoolTokens",
            "label": "_inner",
            "offset": 0,
            "slot": "0",
            "type": "t_struct(Set)2903_storage"
          }
        ],
        "numberOfBytes": "64"
      },
      "t_struct(UintToAddressMap)2717_storage": {
        "encoding": "inplace",
        "label": "struct EnumerableMap.UintToAddressMap",
        "members": [
          {
            "astId": 2716,
            "contract": "contracts/protocol/core/PoolTokens.sol:PoolTokens",
            "label": "_inner",
            "offset": 0,
            "slot": "0",
            "type": "t_struct(Map)2453_storage"
          }
        ],
        "numberOfBytes": "64"
      },
      "t_uint256": {
        "encoding": "inplace",
        "label": "uint256",
        "numberOfBytes": "32"
      }
    }
  }
}