{
  "address": "0x412d7d7087Be4376dA6Fc5A869E5229e1379BD4c",
  "abi": [
    {
      "anonymous": false,
      "inputs": [
        {
          "indexed": true,
          "internalType": "address",
          "name": "owner",
          "type": "address"
        },
        {
          "indexed": true,
          "internalType": "address",
          "name": "approved",
          "type": "address"
        },
        {
          "indexed": true,
          "internalType": "uint256",
          "name": "tokenId",
          "type": "uint256"
        }
      ],
      "name": "Approval",
      "type": "event"
    },
    {
      "anonymous": false,
      "inputs": [
        {
          "indexed": true,
          "internalType": "address",
          "name": "owner",
          "type": "address"
        },
        {
          "indexed": true,
          "internalType": "address",
          "name": "operator",
          "type": "address"
        },
        {
          "indexed": false,
          "internalType": "bool",
          "name": "approved",
          "type": "bool"
        }
      ],
      "name": "ApprovalForAll",
      "type": "event"
    },
    {
      "anonymous": false,
      "inputs": [
        {
          "indexed": false,
          "internalType": "address",
          "name": "account",
          "type": "address"
        }
      ],
      "name": "Paused",
      "type": "event"
    },
    {
      "anonymous": false,
      "inputs": [
        {
          "indexed": true,
          "internalType": "bytes32",
          "name": "role",
          "type": "bytes32"
        },
        {
          "indexed": true,
          "internalType": "address",
          "name": "account",
          "type": "address"
        },
        {
          "indexed": true,
          "internalType": "address",
          "name": "sender",
          "type": "address"
        }
      ],
      "name": "RoleGranted",
      "type": "event"
    },
    {
      "anonymous": false,
      "inputs": [
        {
          "indexed": true,
          "internalType": "bytes32",
          "name": "role",
          "type": "bytes32"
        },
        {
          "indexed": true,
          "internalType": "address",
          "name": "account",
          "type": "address"
        },
        {
          "indexed": true,
          "internalType": "address",
          "name": "sender",
          "type": "address"
        }
      ],
      "name": "RoleRevoked",
      "type": "event"
    },
    {
      "anonymous": false,
      "inputs": [
        {
          "indexed": true,
          "internalType": "address",
          "name": "owner",
          "type": "address"
        },
        {
          "indexed": true,
          "internalType": "address",
          "name": "pool",
          "type": "address"
        },
        {
          "indexed": true,
          "internalType": "uint256",
          "name": "tokenId",
          "type": "uint256"
        }
      ],
      "name": "TokenBurned",
      "type": "event"
    },
    {
      "anonymous": false,
      "inputs": [
        {
          "indexed": true,
          "internalType": "address",
          "name": "owner",
          "type": "address"
        },
        {
          "indexed": true,
          "internalType": "address",
          "name": "pool",
          "type": "address"
        },
        {
          "indexed": true,
          "internalType": "uint256",
          "name": "tokenId",
          "type": "uint256"
        },
        {
          "indexed": false,
          "internalType": "uint256",
          "name": "amount",
          "type": "uint256"
        },
        {
          "indexed": false,
          "internalType": "uint256",
          "name": "tranche",
          "type": "uint256"
        }
      ],
      "name": "TokenMinted",
      "type": "event"
    },
    {
      "anonymous": false,
      "inputs": [
        {
          "indexed": true,
          "internalType": "address",
          "name": "owner",
          "type": "address"
        },
        {
          "indexed": true,
          "internalType": "address",
          "name": "pool",
          "type": "address"
        },
        {
          "indexed": true,
          "internalType": "uint256",
          "name": "tokenId",
          "type": "uint256"
        },
        {
          "indexed": false,
          "internalType": "uint256",
          "name": "principalWithdrawn",
          "type": "uint256"
        },
        {
          "indexed": false,
          "internalType": "uint256",
          "name": "tranche",
          "type": "uint256"
        }
      ],
      "name": "TokenPrincipalWithdrawn",
      "type": "event"
    },
    {
      "anonymous": false,
      "inputs": [
        {
          "indexed": true,
          "internalType": "address",
          "name": "owner",
          "type": "address"
        },
        {
          "indexed": true,
          "internalType": "address",
          "name": "pool",
          "type": "address"
        },
        {
          "indexed": true,
          "internalType": "uint256",
          "name": "tokenId",
          "type": "uint256"
        },
        {
          "indexed": false,
          "internalType": "uint256",
          "name": "principalRedeemed",
          "type": "uint256"
        },
        {
          "indexed": false,
          "internalType": "uint256",
          "name": "interestRedeemed",
          "type": "uint256"
        },
        {
          "indexed": false,
          "internalType": "uint256",
          "name": "tranche",
          "type": "uint256"
        }
      ],
      "name": "TokenRedeemed",
      "type": "event"
    },
    {
      "anonymous": false,
      "inputs": [
        {
          "indexed": true,
          "internalType": "address",
          "name": "owner",
          "type": "address"
        },
        {
          "indexed": true,
          "internalType": "address",
          "name": "pool",
          "type": "address"
        },
        {
          "indexed": true,
          "internalType": "uint256",
          "name": "tokenId",
          "type": "uint256"
        },
        {
          "indexed": false,
          "internalType": "uint256",
          "name": "newTokenId1",
          "type": "uint256"
        },
        {
          "indexed": false,
          "internalType": "uint256",
          "name": "newPrincipal1",
          "type": "uint256"
        },
        {
          "indexed": false,
          "internalType": "uint256",
          "name": "newTokenId2",
          "type": "uint256"
        },
        {
          "indexed": false,
          "internalType": "uint256",
          "name": "newPrincipal2",
          "type": "uint256"
        }
      ],
      "name": "TokenSplit",
      "type": "event"
    },
    {
      "anonymous": false,
      "inputs": [
        {
          "indexed": true,
          "internalType": "address",
          "name": "from",
          "type": "address"
        },
        {
          "indexed": true,
          "internalType": "address",
          "name": "to",
          "type": "address"
        },
        {
          "indexed": true,
          "internalType": "uint256",
          "name": "tokenId",
          "type": "uint256"
        }
      ],
      "name": "Transfer",
      "type": "event"
    },
    {
      "anonymous": false,
      "inputs": [
        {
          "indexed": false,
          "internalType": "address",
          "name": "account",
          "type": "address"
        }
      ],
      "name": "Unpaused",
      "type": "event"
    },
    {
      "inputs": [],
      "name": "DEFAULT_ADMIN_ROLE",
      "outputs": [
        {
          "internalType": "bytes32",
          "name": "",
          "type": "bytes32"
        }
      ],
      "stateMutability": "view",
      "type": "function"
    },
    {
      "inputs": [],
      "name": "MINTER_ROLE",
      "outputs": [
        {
          "internalType": "bytes32",
          "name": "",
          "type": "bytes32"
        }
      ],
      "stateMutability": "view",
      "type": "function"
    },
    {
      "inputs": [],
      "name": "OWNER_ROLE",
      "outputs": [
        {
          "internalType": "bytes32",
          "name": "",
          "type": "bytes32"
        }
      ],
      "stateMutability": "view",
      "type": "function"
    },
    {
      "inputs": [],
      "name": "PAUSER_ROLE",
      "outputs": [
        {
          "internalType": "bytes32",
          "name": "",
          "type": "bytes32"
        }
      ],
      "stateMutability": "view",
      "type": "function"
    },
    {
      "inputs": [
        {
          "internalType": "address",
          "name": "owner",
          "type": "address"
        },
        {
          "internalType": "contract GoldfinchConfig",
          "name": "_config",
          "type": "address"
        }
      ],
      "name": "__initialize__",
      "outputs": [],
      "stateMutability": "nonpayable",
      "type": "function"
    },
    {
      "inputs": [],
      "name": "_tokenIdTracker",
      "outputs": [
        {
          "internalType": "uint256",
          "name": "_value",
          "type": "uint256"
        }
      ],
      "stateMutability": "view",
      "type": "function"
    },
    {
      "inputs": [
        {
          "internalType": "address",
          "name": "to",
          "type": "address"
        },
        {
          "internalType": "uint256",
          "name": "tokenId",
          "type": "uint256"
        }
      ],
      "name": "approve",
      "outputs": [],
      "stateMutability": "nonpayable",
      "type": "function"
    },
    {
      "inputs": [
        {
          "internalType": "address",
          "name": "owner",
          "type": "address"
        }
      ],
      "name": "balanceOf",
      "outputs": [
        {
          "internalType": "uint256",
          "name": "",
          "type": "uint256"
        }
      ],
      "stateMutability": "view",
      "type": "function"
    },
    {
      "inputs": [],
      "name": "baseURI",
      "outputs": [
        {
          "internalType": "string",
          "name": "",
          "type": "string"
        }
      ],
      "stateMutability": "view",
      "type": "function"
    },
    {
      "inputs": [
        {
          "internalType": "uint256",
          "name": "tokenId",
          "type": "uint256"
        }
      ],
      "name": "burn",
      "outputs": [],
      "stateMutability": "nonpayable",
      "type": "function"
    },
    {
      "inputs": [],
      "name": "config",
      "outputs": [
        {
          "internalType": "contract GoldfinchConfig",
          "name": "",
          "type": "address"
        }
      ],
      "stateMutability": "view",
      "type": "function"
    },
    {
      "inputs": [
        {
          "internalType": "uint256",
          "name": "tokenId",
          "type": "uint256"
        }
      ],
      "name": "getApproved",
      "outputs": [
        {
          "internalType": "address",
          "name": "",
          "type": "address"
        }
      ],
      "stateMutability": "view",
      "type": "function"
    },
    {
      "inputs": [
        {
          "internalType": "address",
          "name": "pool",
          "type": "address"
        }
      ],
      "name": "getPoolInfo",
      "outputs": [
        {
          "components": [
            {
              "internalType": "uint256",
              "name": "totalMinted",
              "type": "uint256"
            },
            {
              "internalType": "uint256",
              "name": "totalPrincipalRedeemed",
              "type": "uint256"
            },
            {
              "internalType": "bool",
              "name": "created",
              "type": "bool"
            }
          ],
          "internalType": "struct IPoolTokens.PoolInfo",
          "name": "",
          "type": "tuple"
        }
      ],
      "stateMutability": "view",
      "type": "function"
    },
    {
      "inputs": [
        {
          "internalType": "bytes32",
          "name": "role",
          "type": "bytes32"
        }
      ],
      "name": "getRoleAdmin",
      "outputs": [
        {
          "internalType": "bytes32",
          "name": "",
          "type": "bytes32"
        }
      ],
      "stateMutability": "view",
      "type": "function"
    },
    {
      "inputs": [
        {
          "internalType": "bytes32",
          "name": "role",
          "type": "bytes32"
        },
        {
          "internalType": "uint256",
          "name": "index",
          "type": "uint256"
        }
      ],
      "name": "getRoleMember",
      "outputs": [
        {
          "internalType": "address",
          "name": "",
          "type": "address"
        }
      ],
      "stateMutability": "view",
      "type": "function"
    },
    {
      "inputs": [
        {
          "internalType": "bytes32",
          "name": "role",
          "type": "bytes32"
        }
      ],
      "name": "getRoleMemberCount",
      "outputs": [
        {
          "internalType": "uint256",
          "name": "",
          "type": "uint256"
        }
      ],
      "stateMutability": "view",
      "type": "function"
    },
    {
      "inputs": [
        {
          "internalType": "uint256",
          "name": "tokenId",
          "type": "uint256"
        }
      ],
      "name": "getTokenInfo",
      "outputs": [
        {
          "components": [
            {
              "internalType": "address",
              "name": "pool",
              "type": "address"
            },
            {
              "internalType": "uint256",
              "name": "tranche",
              "type": "uint256"
            },
            {
              "internalType": "uint256",
              "name": "principalAmount",
              "type": "uint256"
            },
            {
              "internalType": "uint256",
              "name": "principalRedeemed",
              "type": "uint256"
            },
            {
              "internalType": "uint256",
              "name": "interestRedeemed",
              "type": "uint256"
            }
          ],
          "internalType": "struct IPoolTokens.TokenInfo",
          "name": "",
          "type": "tuple"
        }
      ],
      "stateMutability": "view",
      "type": "function"
    },
    {
      "inputs": [
        {
          "internalType": "bytes32",
          "name": "role",
          "type": "bytes32"
        },
        {
          "internalType": "address",
          "name": "account",
          "type": "address"
        }
      ],
      "name": "grantRole",
      "outputs": [],
      "stateMutability": "nonpayable",
      "type": "function"
    },
    {
      "inputs": [
        {
          "internalType": "bytes32",
          "name": "role",
          "type": "bytes32"
        },
        {
          "internalType": "address",
          "name": "account",
          "type": "address"
        }
      ],
      "name": "hasRole",
      "outputs": [
        {
          "internalType": "bool",
          "name": "",
          "type": "bool"
        }
      ],
      "stateMutability": "view",
      "type": "function"
    },
    {
      "inputs": [],
      "name": "isAdmin",
      "outputs": [
        {
          "internalType": "bool",
          "name": "",
          "type": "bool"
        }
      ],
      "stateMutability": "view",
      "type": "function"
    },
    {
      "inputs": [
        {
          "internalType": "address",
          "name": "owner",
          "type": "address"
        },
        {
          "internalType": "address",
          "name": "operator",
          "type": "address"
        }
      ],
      "name": "isApprovedForAll",
      "outputs": [
        {
          "internalType": "bool",
          "name": "",
          "type": "bool"
        }
      ],
      "stateMutability": "view",
      "type": "function"
    },
    {
      "inputs": [
        {
          "internalType": "address",
          "name": "spender",
          "type": "address"
        },
        {
          "internalType": "uint256",
          "name": "tokenId",
          "type": "uint256"
        }
      ],
      "name": "isApprovedOrOwner",
      "outputs": [
        {
          "internalType": "bool",
          "name": "",
          "type": "bool"
        }
      ],
      "stateMutability": "view",
      "type": "function"
    },
    {
      "inputs": [
        {
          "components": [
            {
              "internalType": "uint256",
              "name": "principalAmount",
              "type": "uint256"
            },
            {
              "internalType": "uint256",
              "name": "tranche",
              "type": "uint256"
            }
          ],
          "internalType": "struct IPoolTokens.MintParams",
          "name": "params",
          "type": "tuple"
        },
        {
          "internalType": "address",
          "name": "to",
          "type": "address"
        }
      ],
      "name": "mint",
      "outputs": [
        {
          "internalType": "uint256",
          "name": "tokenId",
          "type": "uint256"
        }
      ],
      "stateMutability": "nonpayable",
      "type": "function"
    },
    {
      "inputs": [],
      "name": "name",
      "outputs": [
        {
          "internalType": "string",
          "name": "",
          "type": "string"
        }
      ],
      "stateMutability": "view",
      "type": "function"
    },
    {
      "inputs": [
        {
          "internalType": "address",
          "name": "newPool",
          "type": "address"
        }
      ],
      "name": "onPoolCreated",
      "outputs": [],
      "stateMutability": "nonpayable",
      "type": "function"
    },
    {
      "inputs": [
        {
          "internalType": "uint256",
          "name": "tokenId",
          "type": "uint256"
        }
      ],
      "name": "ownerOf",
      "outputs": [
        {
          "internalType": "address",
          "name": "",
          "type": "address"
        }
      ],
      "stateMutability": "view",
      "type": "function"
    },
    {
      "inputs": [],
      "name": "pause",
      "outputs": [],
      "stateMutability": "nonpayable",
      "type": "function"
    },
    {
      "inputs": [],
      "name": "paused",
      "outputs": [
        {
          "internalType": "bool",
          "name": "",
          "type": "bool"
        }
      ],
      "stateMutability": "view",
      "type": "function"
    },
    {
      "inputs": [
        {
          "internalType": "address",
          "name": "",
          "type": "address"
        }
      ],
      "name": "pools",
      "outputs": [
        {
          "internalType": "uint256",
          "name": "totalMinted",
          "type": "uint256"
        },
        {
          "internalType": "uint256",
          "name": "totalPrincipalRedeemed",
          "type": "uint256"
        },
        {
          "internalType": "bool",
          "name": "created",
          "type": "bool"
        }
      ],
      "stateMutability": "view",
      "type": "function"
    },
    {
      "inputs": [
        {
          "internalType": "uint256",
          "name": "tokenId",
          "type": "uint256"
        },
        {
          "internalType": "uint256",
          "name": "principalRedeemed",
          "type": "uint256"
        },
        {
          "internalType": "uint256",
          "name": "interestRedeemed",
          "type": "uint256"
        }
      ],
      "name": "redeem",
      "outputs": [],
      "stateMutability": "nonpayable",
      "type": "function"
    },
    {
      "inputs": [
        {
          "internalType": "uint256",
          "name": "tokenId",
          "type": "uint256"
        },
        {
          "internalType": "uint256",
          "name": "amount",
          "type": "uint256"
        }
      ],
      "name": "reducePrincipalAmount",
      "outputs": [],
      "stateMutability": "nonpayable",
      "type": "function"
    },
    {
      "inputs": [
        {
          "internalType": "bytes32",
          "name": "role",
          "type": "bytes32"
        },
        {
          "internalType": "address",
          "name": "account",
          "type": "address"
        }
      ],
      "name": "renounceRole",
      "outputs": [],
      "stateMutability": "nonpayable",
      "type": "function"
    },
    {
      "inputs": [
        {
          "internalType": "bytes32",
          "name": "role",
          "type": "bytes32"
        },
        {
          "internalType": "address",
          "name": "account",
          "type": "address"
        }
      ],
      "name": "revokeRole",
      "outputs": [],
      "stateMutability": "nonpayable",
      "type": "function"
    },
    {
      "inputs": [
        {
          "internalType": "uint256",
          "name": "_tokenId",
          "type": "uint256"
        },
        {
          "internalType": "uint256",
          "name": "_salePrice",
          "type": "uint256"
        }
      ],
      "name": "royaltyInfo",
      "outputs": [
        {
          "internalType": "address",
          "name": "",
          "type": "address"
        },
        {
          "internalType": "uint256",
          "name": "",
          "type": "uint256"
        }
      ],
      "stateMutability": "view",
      "type": "function"
    },
    {
      "inputs": [],
      "name": "royaltyParams",
      "outputs": [
        {
          "internalType": "address",
          "name": "receiver",
          "type": "address"
        },
        {
          "internalType": "uint256",
          "name": "royaltyPercent",
          "type": "uint256"
        }
      ],
      "stateMutability": "view",
      "type": "function"
    },
    {
      "inputs": [
        {
          "internalType": "address",
          "name": "from",
          "type": "address"
        },
        {
          "internalType": "address",
          "name": "to",
          "type": "address"
        },
        {
          "internalType": "uint256",
          "name": "tokenId",
          "type": "uint256"
        }
      ],
      "name": "safeTransferFrom",
      "outputs": [],
      "stateMutability": "nonpayable",
      "type": "function"
    },
    {
      "inputs": [
        {
          "internalType": "address",
          "name": "from",
          "type": "address"
        },
        {
          "internalType": "address",
          "name": "to",
          "type": "address"
        },
        {
          "internalType": "uint256",
          "name": "tokenId",
          "type": "uint256"
        },
        {
          "internalType": "bytes",
          "name": "_data",
          "type": "bytes"
        }
      ],
      "name": "safeTransferFrom",
      "outputs": [],
      "stateMutability": "nonpayable",
      "type": "function"
    },
    {
      "inputs": [
        {
          "internalType": "address",
          "name": "operator",
          "type": "address"
        },
        {
          "internalType": "bool",
          "name": "approved",
          "type": "bool"
        }
      ],
      "name": "setApprovalForAll",
      "outputs": [],
      "stateMutability": "nonpayable",
      "type": "function"
    },
    {
      "inputs": [
        {
          "internalType": "string",
          "name": "baseURI_",
          "type": "string"
        }
      ],
      "name": "setBaseURI",
      "outputs": [],
      "stateMutability": "nonpayable",
      "type": "function"
    },
    {
      "inputs": [
        {
          "internalType": "address",
          "name": "newReceiver",
          "type": "address"
        },
        {
          "internalType": "uint256",
          "name": "newRoyaltyPercent",
          "type": "uint256"
        }
      ],
      "name": "setRoyaltyParams",
      "outputs": [],
      "stateMutability": "nonpayable",
      "type": "function"
    },
    {
      "inputs": [
        {
          "internalType": "uint256",
          "name": "tokenId",
          "type": "uint256"
        },
        {
          "internalType": "uint256",
          "name": "newPrincipal1",
          "type": "uint256"
        }
      ],
      "name": "splitToken",
      "outputs": [
        {
          "internalType": "uint256",
          "name": "tokenId1",
          "type": "uint256"
        },
        {
          "internalType": "uint256",
          "name": "tokenId2",
          "type": "uint256"
        }
      ],
      "stateMutability": "nonpayable",
      "type": "function"
    },
    {
      "inputs": [
        {
          "internalType": "bytes4",
          "name": "id",
          "type": "bytes4"
        }
      ],
      "name": "supportsInterface",
      "outputs": [
        {
          "internalType": "bool",
          "name": "",
          "type": "bool"
        }
      ],
      "stateMutability": "view",
      "type": "function"
    },
    {
      "inputs": [],
      "name": "symbol",
      "outputs": [
        {
          "internalType": "string",
          "name": "",
          "type": "string"
        }
      ],
      "stateMutability": "view",
      "type": "function"
    },
    {
      "inputs": [
        {
          "internalType": "uint256",
          "name": "index",
          "type": "uint256"
        }
      ],
      "name": "tokenByIndex",
      "outputs": [
        {
          "internalType": "uint256",
          "name": "",
          "type": "uint256"
        }
      ],
      "stateMutability": "view",
      "type": "function"
    },
    {
      "inputs": [
        {
          "internalType": "address",
          "name": "owner",
          "type": "address"
        },
        {
          "internalType": "uint256",
          "name": "index",
          "type": "uint256"
        }
      ],
      "name": "tokenOfOwnerByIndex",
      "outputs": [
        {
          "internalType": "uint256",
          "name": "",
          "type": "uint256"
        }
      ],
      "stateMutability": "view",
      "type": "function"
    },
    {
      "inputs": [
        {
          "internalType": "uint256",
          "name": "tokenId",
          "type": "uint256"
        }
      ],
      "name": "tokenURI",
      "outputs": [
        {
          "internalType": "string",
          "name": "",
          "type": "string"
        }
      ],
      "stateMutability": "view",
      "type": "function"
    },
    {
      "inputs": [
        {
          "internalType": "uint256",
          "name": "",
          "type": "uint256"
        }
      ],
      "name": "tokens",
      "outputs": [
        {
          "internalType": "address",
          "name": "pool",
          "type": "address"
        },
        {
          "internalType": "uint256",
          "name": "tranche",
          "type": "uint256"
        },
        {
          "internalType": "uint256",
          "name": "principalAmount",
          "type": "uint256"
        },
        {
          "internalType": "uint256",
          "name": "principalRedeemed",
          "type": "uint256"
        },
        {
          "internalType": "uint256",
          "name": "interestRedeemed",
          "type": "uint256"
        }
      ],
      "stateMutability": "view",
      "type": "function"
    },
    {
      "inputs": [],
      "name": "totalSupply",
      "outputs": [
        {
          "internalType": "uint256",
          "name": "",
          "type": "uint256"
        }
      ],
      "stateMutability": "view",
      "type": "function"
    },
    {
      "inputs": [
        {
          "internalType": "address",
          "name": "from",
          "type": "address"
        },
        {
          "internalType": "address",
          "name": "to",
          "type": "address"
        },
        {
          "internalType": "uint256",
          "name": "tokenId",
          "type": "uint256"
        }
      ],
      "name": "transferFrom",
      "outputs": [],
      "stateMutability": "nonpayable",
      "type": "function"
    },
    {
      "inputs": [],
      "name": "unpause",
      "outputs": [],
      "stateMutability": "nonpayable",
      "type": "function"
    },
    {
      "inputs": [
        {
          "internalType": "address",
          "name": "sender",
          "type": "address"
        }
      ],
      "name": "validPool",
      "outputs": [
        {
          "internalType": "bool",
          "name": "",
          "type": "bool"
        }
      ],
      "stateMutability": "view",
      "type": "function"
    },
    {
      "inputs": [
        {
          "internalType": "uint256",
          "name": "tokenId",
          "type": "uint256"
        },
        {
          "internalType": "uint256",
          "name": "principalAmount",
          "type": "uint256"
        }
      ],
      "name": "withdrawPrincipal",
      "outputs": [],
      "stateMutability": "nonpayable",
      "type": "function"
    }
  ],
  "transactionHash": "0x5e282d4ee9195b50e7323945d99b74f28ed2f9315dfbcabf74ff158a22638208",
  "args": [],
  "numDeployments": 2,
  "solcInputHash": "679e620d0a3dd88ee1aa73929ab29382",
  "bytecode": "0x608060405234801561001057600080fd5b50614569806100206000396000f3fe608060405234801561001057600080fd5b50600436106102cc5760003560e01c806370a082311161017d578063b6db75a0116100d9578063ca15c87311610092578063ca15c87314610639578063d53913931461064c578063d547741f14610654578063df6efbf714610667578063e58378bb1461067a578063e63ab1e914610682578063e985e9c51461068a576102cc565b8063b6db75a0146105dd578063b6f8fd40146105e5578063b8192205146105f8578063b88d4fde1461060b578063c87b56dd1461061e578063c9970e5914610631576102cc565b806391d148541161013657806391d148541461056a57806395d89b411461057d57806398bcede914610585578063a217fddf1461058d578063a22cb46514610595578063a4063dbc146105a8578063b5ada6d8146105ca576102cc565b806370a08231146104f3578063757f79241461050657806379502c55146105275780638456cb591461052f5780638c7a63ae146105375780639010d07c14610557576102cc565b806342842e0e1161022c57806355f804b3116101e557806355f804b31461048457806357e340ce146104975780635be57b6a146104aa5780635c975abb146104bd5780636352211e146104c557806366cbb037146104d85780636c0360eb146104eb576102cc565b806342842e0e1461040157806342966c681461041457806342a16b7914610427578063430c20811461043a5780634f64b2be1461044d5780634f6ccce714610471576102cc565b806323b872dd1161028957806323b872dd14610379578063248a9ca31461038c5780632a55205a1461039f5780632f2ff15d146103c05780632f745c59146103d357806336568abe146103e65780633f4ba83a146103f9576102cc565b806301ffc9a7146102d157806306bfa938146102fa57806306fdde031461031a578063081812fc1461032f578063095ea7b31461034f57806318160ddd14610364575b600080fd5b6102e46102df36600461354e565b61069d565b6040516102f19190613821565b60405180910390f35b61030d61030836600461331b565b610727565b6040516102f19190614374565b610322610777565b6040516102f19190613835565b61034261033d3660046134f1565b61080d565b6040516102f19190613789565b61036261035d3660046134c6565b610859565b005b61036c6108f1565b6040516102f1919061382c565b61036261038736600461338b565b610902565b61036c61039a3660046134f1565b61093a565b6103b26103ad36600461352d565b61094f565b6040516102f19291906137da565b6103626103ce366004613509565b61096a565b61036c6103e13660046134c6565b6109b2565b6103626103f4366004613509565b6109dd565b610362610a1f565b61036261040f36600461338b565b610a5f565b6103626104223660046134f1565b610a7a565b61036261043536600461352d565b610c1e565b6102e46104483660046134c6565b610c7e565b61046061045b3660046134f1565b610c8a565b6040516102f19594939291906137f3565b61036c61047f3660046134f1565b610cc4565b610362610492366004613586565b610cda565b6103626104a536600461331b565b610d3d565b61036c6104b8366004613626565b610db2565b6102e4610ecf565b6103426104d33660046134f1565b610ed8565b6103626104e636600461352d565b610f00565b610322611099565b61036c61050136600461331b565b6110fa565b61051961051436600461352d565b611143565b6040516102f19291906143d5565b610342611394565b6103626113a4565b61054a6105453660046134f1565b6113e2565b6040516102f19190614397565b61034261056536600461352d565b6113f3565b6102e4610578366004613509565b61140b565b610322611423565b61036c611484565b61036c61148b565b6103626105a3366004613483565b611490565b6105bb6105b636600461331b565b61155e565b6040516102f1939291906143e3565b6102e46105d836600461331b565b611583565b6102e461158e565b6103626105f33660046134b4565b6115a8565b610362610606366004613695565b611775565b6103626106193660046133cb565b61192e565b61032261062c3660046134f1565b61196d565b6103b2611ab7565b61036c6106473660046134f1565b611ace565b61036c611ae5565b610362610662366004613509565b611b09565b6103626106753660046134c6565b611b43565b61036c611b74565b61036c611b86565b6102e4610698366004613353565b611b98565b60006001600160e01b031982166380ac58cd60e01b14806106ce57506001600160e01b03198216635b5e139f60e01b145b806106e957506001600160e01b0319821663780e9d6360e01b145b8061070457506001600160e01b031982166301ffc9a760e01b145b8061071f57506001600160e01b0319821663152a902d60e11b145b90505b919050565b61072f6131c0565b506001600160a01b0316600090815261019360209081526040918290208251606081018452815481526001820154928101929092526002015460ff1615159181019190915290565b60ce8054604080516020601f60026000196101006001881615020190951694909404938401819004810282018101909252828152606093909290918301828280156108035780601f106107d857610100808354040283529160200191610803565b820191906000526020600020905b8154815290600101906020018083116107e657829003601f168201915b5050505050905090565b600061081882611bc6565b61083d5760405162461bcd60e51b815260040161083490613f3e565b60405180910390fd5b50600090815260cc60205260409020546001600160a01b031690565b600061086482610ed8565b9050806001600160a01b0316836001600160a01b031614156108985760405162461bcd60e51b8152600401610834906141bc565b806001600160a01b03166108aa611bd3565b6001600160a01b031614806108c657506108c681610698611bd3565b6108e25760405162461bcd60e51b815260040161083490613d72565b6108ec8383611bd7565b505050565b60006108fd60ca611c45565b905090565b61091361090d611bd3565b82611c50565b61092f5760405162461bcd60e51b815260040161083490614219565b6108ec838383611cd5565b60009081526065602052604090206002015490565b60008061095f6101948585611dd1565b915091509250929050565b60008281526065602052604090206002015461098890610578611bd3565b6109a45760405162461bcd60e51b8152600401610834906138d5565b6109ae8282611e13565b5050565b6001600160a01b038216600090815260c9602052604081206109d49083611e7c565b90505b92915050565b6109e5611bd3565b6001600160a01b0316816001600160a01b031614610a155760405162461bcd60e51b8152600401610834906142fd565b6109ae8282611e88565b610a396000805160206144f4833981519152610578611bd3565b610a555760405162461bcd60e51b81526004016108349061429f565b610a5d611ef1565b565b6108ec8383836040518060200160405280600081525061192e565b60fb5460ff1615610a9d5760405162461bcd60e51b815260040161083490613d20565b610aa56131e3565b610aae82611f5d565b90506000610ac3610abd611bd3565b84611c50565b90506000610ad7610ad2611bd3565b611fbe565b8015610aff5750610ae6611bd3565b6001600160a01b031683600001516001600160a01b0316145b90506000610b0c85610ed8565b90508280610b175750815b610b335760405162461bcd60e51b815260040161083490613924565b8360400151846060015114610b5a5760405162461bcd60e51b8152600401610834906140f4565b61019154610b70906001600160a01b0316611fe0565b6001600160a01b031663369dfa84866040518263ffffffff1660e01b8152600401610b9b919061382c565b60206040518083038186803b158015610bb357600080fd5b505afa158015610bc7573d6000803e3d6000fd5b505050506040513d601f19601f82011682018060405250810190610beb919061367d565b15610c085760405162461bcd60e51b815260040161083490613cad565b610c1781856000015187611feb565b5050505050565b610c2661158e565b610c425760405162461bcd60e51b815260040161083490613a3b565b6000828152610192602052604090206002810154610c6090836120e3565b60028201556003810154610c7490836120e3565b6003909101555050565b60006109d48383611c50565b61019260205260009081526040902080546001820154600283015460038401546004909401546001600160a01b0390931693919290919085565b600080610cd260ca84612125565b509392505050565b610ce261158e565b610cfe5760405162461bcd60e51b815260040161083490613a3b565b6109ae82828080601f01602080910402602001604051908101604052809392919081815260200183838082843760009201919091525061214192505050565b61019154610d53906001600160a01b0316612154565b6001600160a01b0316610d64611bd3565b6001600160a01b031614610d8a5760405162461bcd60e51b815260040161083490613fa6565b6001600160a01b0316600090815261019360205260409020600201805460ff19166001179055565b6000610dbf610ad2611bd3565b610ddb5760405162461bcd60e51b815260040161083490613b59565b60fb5460ff1615610dfe5760405162461bcd60e51b815260040161083490613d20565b6000610e08611bd3565b6001600160a01b038116600090815261019360205260409020805491925090610e329086356121d4565b8155610e488535602087013560008086896121f9565b61019154909350610e61906001600160a01b0316611fe0565b6001600160a01b0316636efbe643610e77611bd3565b856040518363ffffffff1660e01b8152600401610e959291906137da565b600060405180830381600087803b158015610eaf57600080fd5b505af1158015610ec3573d6000803e3d6000fd5b50505050505092915050565b60fb5460ff1690565b600061071f826040518060600160405280602981526020016144cb6029913960ca91906122e8565b610f0b610ad2611bd3565b610f275760405162461bcd60e51b815260040161083490613b59565b60fb5460ff1615610f4a5760405162461bcd60e51b815260040161083490613d20565b60008281526101926020526040902080546001600160a01b031680610f6d611bd3565b6001600160a01b031614610f935760405162461bcd60e51b815260040161083490613d4a565b600382015415610fb55760405162461bcd60e51b815260040161083490614194565b8282600201541015610fd95760405162461bcd60e51b815260040161083490613ecd565b6001600160a01b0381166000908152610193602052604090208054610ffe90856120e3565b808255600182015411156110245760405162461bcd60e51b815260040161083490613e14565b600283015461103390856120e3565b6002840155846001600160a01b03831661104c82610ed8565b6001600160a01b03167f8577735338ca7d8f2e2b6994fe66a1afec4b581e0503bdc21550791a2a1923ef87876001015460405161108a9291906143d5565b60405180910390a45050505050565b60d18054604080516020601f60026000196101006001881615020190951694909404938401819004810282018101909252828152606093909290918301828280156108035780601f106107d857610100808354040283529160200191610803565b60006001600160a01b0382166111225760405162461bcd60e51b815260040161083490613dca565b6001600160a01b038216600090815260c96020526040902061071f90611c45565b6000806111503385611c50565b61116c5760405162461bcd60e51b8152600401610834906141fd565b6111746131e3565b61117d85611f5d565b90508360001080156111925750806040015184105b6111ae5760405162461bcd60e51b815260040161083490613f8a565b6111b661321b565b610191546111cc906001600160a01b0316611fe0565b6001600160a01b0316638c7a63ae876040518263ffffffff1660e01b81526004016111f7919061382c565b604080518083038186803b15801561120e57600080fd5b505afa158015611222573d6000803e3d6000fd5b505050506040513d601f19601f8201168201806040525081019061124691906135f3565b9050611250613235565b61019154611266906001600160a01b0316611fe0565b6001600160a01b031663dfc1f3a8886040518263ffffffff1660e01b8152600401611291919061382c565b60206040518083038186803b1580156112a957600080fd5b505afa1580156112bd573d6000803e3d6000fd5b505050506040513d601f19601f820116820180604052508101906112e19190613658565b905060006112ee88610ed8565b90506112ff8185600001518a611feb565b61130a8482896122ff565b909650945061131d84848489898c6123b1565b8784600001516001600160a01b0316826001600160a01b03167fba1fbd43f7fa0c78afd5c7ba4ecf75e1907f7cbae81ed7f38263580ae821ce0e898b8a6113718e8c604001516120e390919063ffffffff16565b6040516113819493929190614411565b60405180910390a4505050509250929050565b610191546001600160a01b031681565b6113be6000805160206144f4833981519152610578611bd3565b6113da5760405162461bcd60e51b815260040161083490613afc565b610a5d6124de565b6113ea6131e3565b61071f82611f5d565b60008281526065602052604081206109d49083611e7c565b60008281526065602052604081206109d49083612537565b60cf8054604080516020601f60026000196101006001881615020190951694909404938401819004810282018101909252828152606093909290918301828280156108035780601f106107d857610100808354040283529160200191610803565b61015f5481565b600081565b611498611bd3565b6001600160a01b0316826001600160a01b031614156114c95760405162461bcd60e51b815260040161083490613bc4565b8060cd60006114d6611bd3565b6001600160a01b03908116825260208083019390935260409182016000908120918716808252919093529120805460ff19169215159290921790915561151a611bd3565b6001600160a01b03167f17307eab39ab6107e8899845ad3d59bd9653f200f220920489ca2b5937696c31836040516115529190613821565b60405180910390a35050565b6101936020526000908152604090208054600182015460029092015490919060ff1683565b600061071f82611fbe565b60006108fd6000805160206144ab8339815191523361140b565b600054610100900460ff16806115c157506115c161254c565b806115cf575060005460ff16155b6115eb5760405162461bcd60e51b81526004016108349061400e565b600054610100900460ff16158015611616576000805460ff1961ff0019909116610100171660011790555b6001600160a01b0383161580159061163657506001600160a01b03821615155b6116525760405162461bcd60e51b81526004016108349061399f565b61165a612552565b611662612552565b61166a6125d5565b6116c560405180604001604052806018815260200177476f6c6466696e636820563220506f6f6c20546f6b656e7360401b8152506040518060400160405280600981526020016811d1924b558c8b541560ba1b815250612653565b6116cd612719565b6116d5612552565b61019180546001600160a01b0319166001600160a01b0384161790556117096000805160206144f4833981519152846109a4565b6117216000805160206144ab833981519152846109a4565b6117476000805160206144f48339815191526000805160206144ab8339815191526127a5565b61175f6000805160206144ab833981519152806127a5565b80156108ec576000805461ff0019169055505050565b611780610ad2611bd3565b61179c5760405162461bcd60e51b815260040161083490613b59565b60fb5460ff16156117bf5760405162461bcd60e51b815260040161083490613d20565b60008381526101926020526040902080546001600160a01b0316806117f65760405162461bcd60e51b815260040161083490613bf7565b806001600160a01b0316611808611bd3565b6001600160a01b03161461182e5760405162461bcd60e51b81526004016108349061426a565b6001600160a01b038116600090815261019360205260409020600181015461185690866121d4565b600182018190558154101561187d5760405162461bcd60e51b815260040161083490613c20565b600383015461188c90866121d4565b60038401819055600284015410156118b65760405162461bcd60e51b815260040161083490614137565b60048301546118c590856121d4565b6004840155856001600160a01b0383166118de82610ed8565b6001600160a01b03167fda8c6dd3bef4f6eabede38563ec41a960f3fd84ccab769aa77db40494f9eee988888886001015460405161191e939291906143fb565b60405180910390a4505050505050565b61193f611939611bd3565b83611c50565b61195b5760405162461bcd60e51b815260040161083490614219565b611967848484846127ba565b50505050565b606061197882611bc6565b6119945760405162461bcd60e51b8152600401610834906140a5565b600082815260d0602090815260409182902080548351601f6002600019610100600186161502019093169290920491820184900484028101840190945280845260609392830182828015611a295780601f106119fe57610100808354040283529160200191611a29565b820191906000526020600020905b815481529060010190602001808311611a0c57829003601f168201915b505060d15493945050505060026000196101006001841615020190911604611a52579050610722565b805115611a845760d181604051602001611a6d929190613708565b604051602081830303815290604052915050610722565b60d1611a8f846127ed565b604051602001611aa0929190613708565b604051602081830303815290604052915050919050565b61019454610195546001600160a01b039091169082565b600081815260656020526040812061071f90611c45565b7f9f2df0fed2c77648de5860a4cc508cd0818c85b8b8a1ab4ceeef8d981c8956a681565b600082815260656020526040902060020154611b2790610578611bd3565b610a155760405162461bcd60e51b815260040161083490613cd0565b611b4b61158e565b611b675760405162461bcd60e51b815260040161083490613a3b565b6109ae61019483836128c8565b6000805160206144ab83398151915281565b6000805160206144f483398151915281565b6001600160a01b03918216600090815260cd6020908152604080832093909416825291909152205460ff1690565b600061071f60ca8361294f565b3390565b600081815260cc6020526040902080546001600160a01b0319166001600160a01b0384169081179091558190611c0c82610ed8565b6001600160a01b03167f8c5be1e5ebec7d5bd14f71427d1e84f3dd0314c0f7b2291e5b200ac8c7c3b92560405160405180910390a45050565b600061071f8261295b565b6000611c5b82611bc6565b611c775760405162461bcd60e51b815260040161083490613c61565b6000611c8283610ed8565b9050806001600160a01b0316846001600160a01b03161480611cbd5750836001600160a01b0316611cb28461080d565b6001600160a01b0316145b80611ccd5750611ccd8185611b98565b949350505050565b826001600160a01b0316611ce882610ed8565b6001600160a01b031614611d0e5760405162461bcd60e51b81526004016108349061405c565b6001600160a01b038216611d345760405162461bcd60e51b815260040161083490613b80565b611d3f83838361295f565b611d4a600082611bd7565b6001600160a01b038316600090815260c960205260409020611d6c908261296a565b506001600160a01b038216600090815260c960205260409020611d8f9082612976565b50611d9c60ca8284612982565b5080826001600160a01b0316846001600160a01b031660008051602061451483398151915260405160405180910390a4505050565b6000806000611dff670de0b6b3a7640000611df988600101548761299890919063ffffffff16565b906129d2565b95546001600160a01b031696945050505050565b6000828152606560205260409020611e2b9082612a14565b156109ae57611e38611bd3565b6001600160a01b0316816001600160a01b0316837f2f8788117e7eff1d82e926ec794901d17c78024a50270940304540a733656f0d60405160405180910390a45050565b60006109d48383612a29565b6000828152606560205260409020611ea09082612a6e565b156109ae57611ead611bd3565b6001600160a01b0316816001600160a01b0316837ff6391f5c32d9c69d2a47ea670b442974b53935d1edc7fd64eb21e047a839171b60405160405180910390a45050565b60fb5460ff16611f135760405162461bcd60e51b815260040161083490613971565b60fb805460ff191690557f5db9ee0a495bf2e6ff9c91a7834c1ba4fdd244a5e8aa4e537bd38aeae4b073aa611f46611bd3565b604051611f539190613789565b60405180910390a1565b611f656131e3565b5060009081526101926020908152604091829020825160a08101845281546001600160a01b0316815260018201549281019290925260028101549282019290925260038201546060820152600490910154608082015290565b6001600160a01b03166000908152610193602052604090206002015460ff1690565b600061071f82612a83565b60008181526101926020526040812080546001600160a01b03191681556001810182905560028101829055600381018290556004015561202a81612a9b565b61019154612040906001600160a01b0316611fe0565b6001600160a01b03166371d5a253826040518263ffffffff1660e01b815260040161206b919061382c565b600060405180830381600087803b15801561208557600080fd5b505af1158015612099573d6000803e3d6000fd5b5050505080826001600160a01b0316846001600160a01b03167fbfa41556980d157c24e8632dbb78958f8759a86b4acdea421f93dc7259fb55db60405160405180910390a4505050565b60006109d483836040518060400160405280601e81526020017f536166654d6174683a207375627472616374696f6e206f766572666c6f770000815250612b56565b60008080806121348686612b82565b9097909650945050505050565b80516109ae9060d1906020840190613248565b60006001600160a01b03821663b93f9b0a60025b6040518263ffffffff1660e01b8152600401612184919061382c565b60206040518083038186803b15801561219c57600080fd5b505afa1580156121b0573d6000803e3d6000fd5b505050506040513d601f19601f8201168201806040525081019061071f9190613337565b6000828201838110156109d45760405162461bcd60e51b815260040161083490613ac5565b600061220661015f612bde565b61221161015f61295b565b6040805160a0810182526001600160a01b03868116825260208083018b81528385018d8152606085018c8152608086018c8152600089815261019290955296909320945185546001600160a01b031916941693909317845551600184015590516002830155516003820155905160049091015590506122908282612be7565b80836001600160a01b0316836001600160a01b03167f188c6e7ce5cf6a45f5d4441da49a243005c388c7f4f00137378ba3d058baf01d8a8a6040516122d69291906143d5565b60405180910390a49695505050505050565b60006122f5848484612c99565b90505b9392505050565b60008060006123238660400151611df986896060015161299890919063ffffffff16565b905060006123468760400151611df9878a6080015161299890919063ffffffff16565b905061235e85886020015184848b600001518b6121f9565b93506123a561237a8689604001516120e390919063ffffffff16565b602089015160608a015161238e90866120e3565b60808b015161239d90866120e3565b8b518b6121f9565b92505050935093915050565b604086015185516000916123c991611df99085612998565b610191549091506123e2906001600160a01b0316611fe0565b6001600160a01b0316635e3f5d64878787856040518563ffffffff1660e01b8152600401612413949392919061434c565b600060405180830381600087803b15801561242d57600080fd5b505af1158015612441573d6000803e3d6000fd5b50506101915461245c92506001600160a01b03169050611fe0565b6001600160a01b0316635e3f5d64878786612484868c600001516120e390919063ffffffff16565b6040518563ffffffff1660e01b81526004016124a3949392919061434c565b600060405180830381600087803b1580156124bd57600080fd5b505af11580156124d1573d6000803e3d6000fd5b5050505050505050505050565b60fb5460ff16156125015760405162461bcd60e51b815260040161083490613d20565b60fb805460ff191660011790557f62e78cea01bee320cd4e420270b5ea74000d11b0c9f74754ebdbfc544b05a258611f46611bd3565b60006109d4836001600160a01b038416612cf8565b303b1590565b600054610100900460ff168061256b575061256b61254c565b80612579575060005460ff16155b6125955760405162461bcd60e51b81526004016108349061400e565b600054610100900460ff161580156125c0576000805460ff1961ff0019909116610100171660011790555b80156125d2576000805461ff00191690555b50565b600054610100900460ff16806125ee57506125ee61254c565b806125fc575060005460ff16155b6126185760405162461bcd60e51b81526004016108349061400e565b600054610100900460ff16158015612643576000805460ff1961ff0019909116610100171660011790555b6125c06301ffc9a760e01b612d10565b600054610100900460ff168061266c575061266c61254c565b8061267a575060005460ff16155b6126965760405162461bcd60e51b81526004016108349061400e565b600054610100900460ff161580156126c1576000805460ff1961ff0019909116610100171660011790555b82516126d49060ce906020860190613248565b5081516126e89060cf906020850190613248565b506126f96380ac58cd60e01b612d10565b612709635b5e139f60e01b612d10565b61175f63780e9d6360e01b612d10565b600054610100900460ff1680612732575061273261254c565b80612740575060005460ff16155b61275c5760405162461bcd60e51b81526004016108349061400e565b600054610100900460ff16158015612787576000805460ff1961ff0019909116610100171660011790555b60fb805460ff1916905580156125d2576000805461ff001916905550565b60009182526065602052604090912060020155565b6127c5848484611cd5565b6127d184848484612d5f565b6119675760405162461bcd60e51b8152600401610834906139e9565b60608161281257506040805180820190915260018152600360fc1b6020820152610722565b8160005b811561282a57600101600a82049150612816565b60608167ffffffffffffffff8111801561284357600080fd5b506040519080825280601f01601f19166020018201604052801561286e576020820181803683370190505b50859350905060001982015b83156128bf57600a840660300160f81b8282806001900393508151811061289d57fe5b60200101906001600160f81b031916908160001a905350600a8404935061287a565b50949350505050565b6001600160a01b0382166128ee5760405162461bcd60e51b815260040161083490613fe7565b82546001600160a01b0319166001600160a01b0383161783556001830181905560405133907f0512e32b1bc8a6ada045dd201bbd3342e0d0b61a464796f951b3b72ffeb9bf389061294290859085906137da565b60405180910390a2505050565b60006109d48383612cf8565b5490565b6108ec838383612e99565b60006109d48383612ec9565b60006109d48383612f8f565b60006122f584846001600160a01b038516612fd9565b6000826129a7575060006109d7565b828202828482816129b457fe5b04146109d45760405162461bcd60e51b815260040161083490613efd565b60006109d483836040518060400160405280601a81526020017f536166654d6174683a206469766973696f6e206279207a65726f000000000000815250613070565b60006109d4836001600160a01b038416612f8f565b81546000908210612a4c5760405162461bcd60e51b815260040161083490613848565b826000018281548110612a5b57fe5b9060005260206000200154905092915050565b60006109d4836001600160a01b038416612ec9565b60006001600160a01b03821663b93f9b0a6014612168565b6000612aa682610ed8565b9050612ab48160008461295f565b612abf600083611bd7565b600082815260d060205260409020546002600019610100600184161502019091160415612afd57600082815260d060205260408120612afd916132c6565b6001600160a01b038116600090815260c960205260409020612b1f908361296a565b50612b2b60ca836130a7565b5060405182906000906001600160a01b03841690600080516020614514833981519152908390a45050565b60008184841115612b7a5760405162461bcd60e51b81526004016108349190613835565b505050900390565b815460009081908310612ba75760405162461bcd60e51b815260040161083490613e56565b6000846000018481548110612bb857fe5b906000526020600020906002020190508060000154816001015492509250509250929050565b80546001019055565b6001600160a01b038216612c0d5760405162461bcd60e51b815260040161083490613e98565b612c1681611bc6565b15612c335760405162461bcd60e51b815260040161083490613a8e565b612c3f6000838361295f565b6001600160a01b038216600090815260c960205260409020612c619082612976565b50612c6e60ca8284612982565b5060405181906001600160a01b03841690600090600080516020614514833981519152908290a45050565b60008281526001840160205260408120548281612cc95760405162461bcd60e51b81526004016108349190613835565b50846000016001820381548110612cdc57fe5b9060005260206000209060020201600101549150509392505050565b60009081526001919091016020526040902054151590565b6001600160e01b03198082161415612d3a5760405162461bcd60e51b815260040161083490613a57565b6001600160e01b0319166000908152609760205260409020805460ff19166001179055565b6000612d73846001600160a01b03166130b3565b612d7f57506001611ccd565b600060606001600160a01b038616630a85bd0160e11b612d9d611bd3565b898888604051602401612db3949392919061379d565b60408051601f198184030181529181526020820180516001600160e01b03166001600160e01b0319909416939093179092529051612df191906136ec565b6000604051808303816000865af19150503d8060008114612e2e576040519150601f19603f3d011682016040523d82523d6000602084013e612e33565b606091505b509150915081612e6557805115612e4d5780518082602001fd5b60405162461bcd60e51b8152600401610834906139e9565b600081806020019051810190612e7b919061356a565b6001600160e01b031916630a85bd0160e11b149350611ccd92505050565b612ea48383836108ec565b612eac610ecf565b156108ec5760405162461bcd60e51b81526004016108349061388a565b60008181526001830160205260408120548015612f855783546000198083019190810190600090879083908110612efc57fe5b9060005260206000200154905080876000018481548110612f1957fe5b600091825260208083209091019290925582815260018981019092526040902090840190558654879080612f4957fe5b600190038181906000526020600020016000905590558660010160008781526020019081526020016000206000905560019450505050506109d7565b60009150506109d7565b6000612f9b8383612cf8565b612fd1575081546001818101845560008481526020808220909301849055845484825282860190935260409020919091556109d7565b5060006109d7565b60008281526001840160205260408120548061303e5750506040805180820182528381526020808201848152865460018181018955600089815284812095516002909302909501918255915190820155865486845281880190925292909120556122f8565b8285600001600183038154811061305157fe5b90600052602060002090600202016001018190555060009150506122f8565b600081836130915760405162461bcd60e51b81526004016108349190613835565b50600083858161309d57fe5b0495945050505050565b60006109d483836130ec565b6000813f7fc5d2460186f7233c927e7db2dcc703c0e500b653ca82273b7bfad8045d85a470818114801590611ccd575050151592915050565b60008181526001830160205260408120548015612f85578354600019808301919081019060009087908390811061311f57fe5b906000526020600020906002020190508087600001848154811061313f57fe5b60009182526020808320845460029093020191825560019384015491840191909155835482528983019052604090209084019055865487908061317e57fe5b60008281526020808220600260001990940193840201828155600190810183905592909355888152898201909252604082209190915594506109d79350505050565b604051806060016040528060008152602001600081526020016000151581525090565b6040518060a0016040528060006001600160a01b03168152602001600081526020016000815260200160008152602001600081525090565b604051806040016040528060008152602001600081525090565b6040518060200160405280600081525090565b828054600181600116156101000203166002900490600052602060002090601f016020900481019282601f1061328957805160ff19168380011785556132b6565b828001600101855582156132b6579182015b828111156132b657825182559160200191906001019061329b565b506132c2929150613306565b5090565b50805460018160011615610100020316600290046000825580601f106132ec57506125d2565b601f0160209004906000526020600020908101906125d291905b5b808211156132c25760008155600101613307565b60006020828403121561332c578081fd5b81356109d48161447f565b600060208284031215613348578081fd5b81516109d48161447f565b60008060408385031215613365578081fd5b82356133708161447f565b915060208301356133808161447f565b809150509250929050565b60008060006060848603121561339f578081fd5b83356133aa8161447f565b925060208401356133ba8161447f565b929592945050506040919091013590565b600080600080608085870312156133e0578081fd5b84356133eb8161447f565b93506020858101356133fc8161447f565b935060408601359250606086013567ffffffffffffffff8082111561341f578384fd5b818801915088601f830112613432578384fd5b813581811115613440578485fd5b613452601f8201601f1916850161442c565b91508082528984828501011115613467578485fd5b8084840185840137810190920192909252939692955090935050565b60008060408385031215613495578182fd5b82356134a08161447f565b915060208301358015158114613380578182fd5b60008060408385031215613365578182fd5b600080604083850312156134d8578182fd5b82356134e38161447f565b946020939093013593505050565b600060208284031215613502578081fd5b5035919050565b6000806040838503121561351b578182fd5b8235915060208301356133808161447f565b6000806040838503121561353f578182fd5b50508035926020909101359150565b60006020828403121561355f578081fd5b81356109d481614494565b60006020828403121561357b578081fd5b81516109d481614494565b60008060208385031215613598578182fd5b823567ffffffffffffffff808211156135af578384fd5b818501915085601f8301126135c2578384fd5b8135818111156135d0578485fd5b8660208285010111156135e1578485fd5b60209290920196919550909350505050565b600060408284031215613604578081fd5b61360e604061442c565b82518152602083015160208201528091505092915050565b6000808284036060811215613639578283fd5b6040811215613646578283fd5b5082915060408301356133808161447f565b600060208284031215613669578081fd5b613673602061442c565b9151825250919050565b60006020828403121561368e578081fd5b5051919050565b6000806000606084860312156136a9578081fd5b505081359360208301359350604090920135919050565b600081518084526136d8816020860160208601614453565b601f01601f19169290920160200192915050565b600082516136fe818460208701614453565b9190910192915050565b6000808454600180821660008114613727576001811461373e5761376d565b60ff198316865260028304607f168601935061376d565b600283048886526020808720875b838110156137655781548a82015290850190820161374c565b505050860193505b5050508351613780818360208801614453565b01949350505050565b6001600160a01b0391909116815260200190565b6001600160a01b03858116825284166020820152604081018390526080606082018190526000906137d0908301846136c0565b9695505050505050565b6001600160a01b03929092168252602082015260400190565b6001600160a01b03959095168552602085019390935260408401919091526060830152608082015260a00190565b901515815260200190565b90815260200190565b6000602082526109d460208301846136c0565b60208082526022908201527f456e756d657261626c655365743a20696e646578206f7574206f6620626f756e604082015261647360f01b606082015260800190565b6020808252602b908201527f4552433732315061757361626c653a20746f6b656e207472616e73666572207760408201526a1a1a5b19481c185d5cd95960aa1b606082015260800190565b6020808252602f908201527f416363657373436f6e74726f6c3a2073656e646572206d75737420626520616e60408201526e0818591b5a5b881d1bc819dc985b9d608a1b606082015260800190565b6020808252602d908201527f4552433732314275726e61626c653a2063616c6c65722063616e6e6f7420627560408201526c3937103a3434b9903a37b5b2b760991b606082015260800190565b60208082526014908201527314185d5cd8589b194e881b9bdd081c185d5cd95960621b604082015260600190565b6020808252602a908201527f4f776e657220616e6420636f6e666967206164647265737365732063616e6e6f6040820152697420626520656d70747960b01b606082015260800190565b60208082526032908201527f4552433732313a207472616e7366657220746f206e6f6e20455243373231526560408201527131b2b4bb32b91034b6b83632b6b2b73a32b960711b606082015260800190565b602080825260029082015261105160f21b604082015260600190565b6020808252601c908201527f4552433136353a20696e76616c696420696e7465726661636520696400000000604082015260600190565b6020808252601c908201527f4552433732313a20746f6b656e20616c7265616479206d696e74656400000000604082015260600190565b6020808252601b908201527f536166654d6174683a206164646974696f6e206f766572666c6f770000000000604082015260600190565b6020808252603e908201527f4552433732315072657365744d696e7465725061757365724175746f49643a2060408201527f6d75737420686176652070617573657220726f6c6520746f2070617573650000606082015260800190565b6020808252600d908201526c496e76616c696420706f6f6c2160981b604082015260600190565b60208082526024908201527f4552433732313a207472616e7366657220746f20746865207a65726f206164646040820152637265737360e01b606082015260800190565b60208082526019908201527822a9219b99189d1030b8383937bb32903a379031b0b63632b960391b604082015260600190565b6020808252600f908201526e125b9d985b1a59081d1bdad95b9259608a1b604082015260600190565b60208082526021908201527f43616e6e6f742072656465656d206d6f7265207468616e207765206d696e74656040820152601960fa1b606082015260800190565b6020808252602c908201527f4552433732313a206f70657261746f7220717565727920666f72206e6f6e657860408201526b34b9ba32b73a103a37b5b2b760a11b606082015260800190565b6020808252600990820152680726577617264733e360bc1b604082015260600190565b60208082526030908201527f416363657373436f6e74726f6c3a2073656e646572206d75737420626520616e60408201526f2061646d696e20746f207265766f6b6560801b606082015260800190565b60208082526010908201526f14185d5cd8589b194e881c185d5cd95960821b604082015260600190565b6020808252600e908201526d24b73b30b634b21039b2b73232b960911b604082015260600190565b60208082526038908201527f4552433732313a20617070726f76652063616c6c6572206973206e6f74206f776040820152771b995c881b9bdc88185c1c1c9bdd995908199bdc88185b1b60421b606082015260800190565b6020808252602a908201527f4552433732313a2062616c616e636520717565727920666f7220746865207a65604082015269726f206164647265737360b01b606082015260800190565b60208082526022908201527f43616e6e6f74207769746864726177206d6f7265207468616e2072656465656d604082015261195960f21b606082015260800190565b60208082526022908201527f456e756d657261626c654d61703a20696e646578206f7574206f6620626f756e604082015261647360f01b606082015260800190565b6020808252818101527f4552433732313a206d696e7420746f20746865207a65726f2061646472657373604082015260600190565b602080825260169082015275125b9cdd59999a58da595b9d081c1c9a5b98da5c185b60521b604082015260600190565b60208082526021908201527f536166654d6174683a206d756c7469706c69636174696f6e206f766572666c6f6040820152607760f81b606082015260800190565b6020808252602c908201527f4552433732313a20617070726f76656420717565727920666f72206e6f6e657860408201526b34b9ba32b73a103a37b5b2b760a11b606082015260800190565b602080825260029082015261494160f01b604082015260600190565b60208082526021908201527f4f6e6c7920476f6c6466696e636820666163746f727920697320616c6c6f77656040820152601960fa1b606082015260800190565b6020808252600d908201526c273ab636103932b1b2b4bb32b960991b604082015260600190565b6020808252602e908201527f436f6e747261637420696e7374616e63652068617320616c726561647920626560408201526d195b881a5b9a5d1a585b1a5e995960921b606082015260800190565b60208082526029908201527f4552433732313a207472616e73666572206f6620746f6b656e2074686174206960408201526839903737ba1037bbb760b91b606082015260800190565b6020808252602f908201527f4552433732314d657461646174613a2055524920717565727920666f72206e6f60408201526e3732bc34b9ba32b73a103a37b5b2b760891b606082015260800190565b60208082526023908201527f43616e206f6e6c79206275726e2066756c6c792072656465656d656420746f6b604082015262656e7360e81b606082015260800190565b6020808252603c908201527f43616e6e6f742072656465656d206d6f7265207468616e207072696e6369706160408201527f6c2d6465706f736974656420616d6f756e7420666f7220746f6b656e00000000606082015260800190565b6020808252600e908201526d151bdad95b881c995919595b595960921b604082015260600190565b60208082526021908201527f4552433732313a20617070726f76616c20746f2063757272656e74206f776e656040820152603960f91b606082015260800190565b6020808252600290820152614e4160f01b604082015260600190565b60208082526031908201527f4552433732313a207472616e736665722063616c6c6572206973206e6f74206f6040820152701ddb995c881b9bdc88185c1c1c9bdd9959607a1b606082015260800190565b6020808252818101527f4f6e6c792074686520746f6b656e277320706f6f6c2063616e2072656465656d604082015260600190565b602080825260409082018190527f4552433732315072657365744d696e7465725061757365724175746f49643a20908201527f6d75737420686176652070617573657220726f6c6520746f20756e7061757365606082015260800190565b6020808252602f908201527f416363657373436f6e74726f6c3a2063616e206f6e6c792072656e6f756e636560408201526e103937b632b9903337b91039b2b63360891b606082015260800190565b8451815260209485015194810194909452915160408401526060830152608082015260a00190565b815181526020808301519082015260409182015115159181019190915260600190565b81516001600160a01b031681526020808301519082015260408083015190820152606080830151908201526080918201519181019190915260a00190565b918252602082015260400190565b92835260208301919091521515604082015260600190565b9283526020830191909152604082015260600190565b93845260208401929092526040830152606082015260800190565b60405181810167ffffffffffffffff8111828210171561444b57600080fd5b604052919050565b60005b8381101561446e578181015183820152602001614456565b838111156119675750506000910152565b6001600160a01b03811681146125d257600080fd5b6001600160e01b0319811681146125d257600080fdfeb19546dff01e856fb3f010c267a7b1c60363cf8a4664e21cc89c26224620214e4552433732313a206f776e657220717565727920666f72206e6f6e6578697374656e7420746f6b656e65d7a28e3265b37a6474929f336521b332c1681b933f6cb9f3376673440d862addf252ad1be2c89b69c2b068fc378daa952ba7f163c4a11628f55a4df523b3efa26469706673582212204845bac1fa6b3def5a86aa96ae32cf22b94aae51dae52a3710a3c5c3f491050364736f6c634300060c0033",
  "devdoc": {
    "author": "Goldfinch",
    "kind": "dev",
    "methods": {
      "approve(address,uint256)": {
        "details": "Approves another address to transfer the given token ID The zero address indicates there is no approved address. There can only be one approved address per token at a given time. Can only be called by the token owner or an approved operator.",
        "params": {
          "to": "address to be approved for the given token ID",
          "tokenId": "uint256 ID of the token to be approved"
        }
      },
      "balanceOf(address)": {
        "details": "Gets the balance of the specified address.",
        "params": {
          "owner": "address to query the balance of"
        },
        "returns": {
          "_0": "uint256 representing the amount owned by the passed address"
        }
      },
      "baseURI()": {
        "details": "Returns the base URI set via {_setBaseURI}. This will be automatically added as a prefix in {tokenURI} to each token's URI, or to the token ID if no specific URI is set for that token ID."
      },
      "burn(uint256)": {
        "params": {
          "tokenId": "uint256 id of the ERC721 token to be burned."
        }
      },
      "getApproved(uint256)": {
        "details": "Gets the approved address for a token ID, or zero if no address set Reverts if the token ID does not exist.",
        "params": {
          "tokenId": "uint256 ID of the token to query the approval of"
        },
        "returns": {
          "_0": "address currently approved for the given token ID"
        }
      },
      "getRoleAdmin(bytes32)": {
        "details": "Returns the admin role that controls `role`. See {grantRole} and {revokeRole}. To change a role's admin, use {_setRoleAdmin}."
      },
      "getRoleMember(bytes32,uint256)": {
        "details": "Returns one of the accounts that have `role`. `index` must be a value between 0 and {getRoleMemberCount}, non-inclusive. Role bearers are not sorted in any particular way, and their ordering may change at any point. WARNING: When using {getRoleMember} and {getRoleMemberCount}, make sure you perform all queries on the same block. See the following https://forum.openzeppelin.com/t/iterating-over-elements-on-enumerableset-in-openzeppelin-contracts/2296[forum post] for more information."
      },
      "getRoleMemberCount(bytes32)": {
        "details": "Returns the number of accounts that have `role`. Can be used together with {getRoleMember} to enumerate all bearers of a role."
      },
      "grantRole(bytes32,address)": {
        "details": "Grants `role` to `account`. If `account` had not been already granted `role`, emits a {RoleGranted} event. Requirements: - the caller must have ``role``'s admin role."
      },
      "hasRole(bytes32,address)": {
        "details": "Returns `true` if `account` has been granted `role`."
      },
      "isAdmin()": {
        "returns": {
          "_0": "isAdmin True when msg.sender has OWNER_ROLE"
        }
      },
      "isApprovedForAll(address,address)": {
        "details": "Tells whether an operator is approved by a given owner.",
        "params": {
          "operator": "operator address which you want to query the approval of",
          "owner": "owner address which you want to query the approval of"
        },
        "returns": {
          "_0": "bool whether the given operator is approved by the given owner"
        }
      },
      "isApprovedOrOwner(address,uint256)": {
        "params": {
          "spender": "The address to check",
          "tokenId": "The token id to check for"
        },
        "returns": {
          "_0": "True if approved to redeem/transfer/burn the token, false if not"
        }
      },
      "mint((uint256,uint256),address)": {
        "params": {
          "params": "Struct containing the tranche and the amount",
          "to": "The address that should own the position"
        },
        "returns": {
          "tokenId": "The token ID (auto-incrementing integer across all pools)"
        }
      },
      "name()": {
        "details": "Gets the token name.",
        "returns": {
          "_0": "string representing the token name"
        }
      },
      "onPoolCreated(address)": {
        "params": {
          "newPool": "The address of the newly created pool"
        }
      },
      "ownerOf(uint256)": {
        "details": "Gets the owner of the specified token ID.",
        "params": {
          "tokenId": "uint256 ID of the token to query the owner of"
        },
        "returns": {
          "_0": "address currently marked as the owner of the given token ID"
        }
      },
      "pause()": {
        "details": "Pauses all token transfers. See {ERC721Pausable} and {Pausable-_pause}. Requirements: - the caller must have the `PAUSER_ROLE`."
      },
      "paused()": {
        "details": "Returns true if the contract is paused, and false otherwise."
      },
      "redeem(uint256,uint256,uint256)": {
        "params": {
          "interestRedeemed": "interest to redeem.",
          "principalRedeemed": "principal to redeem. This cannot exceed the token's principal amount, and  the redemption cannot cause the pool's total principal redeemed to exceed the pool's total minted  principal",
          "tokenId": "pool token id"
        }
      },
      "reducePrincipalAmount(uint256,uint256)": {
        "details": "uses safemath to prevent underflowthis function is only intended for use as part of the v2.6.0 upgrade    to rectify a bug that allowed users to create a PoolToken that had a    larger amount of principal than they actually made available to the    borrower.  This bug is fixed in v2.6.0 but still requires past pool tokens    to have their principal redeemed and deposited to be rectified.",
        "params": {
          "amount": "amount to decrease by",
          "tokenId": "id of token to decrease"
        }
      },
      "renounceRole(bytes32,address)": {
        "details": "Revokes `role` from the calling account. Roles are often managed via {grantRole} and {revokeRole}: this function's purpose is to provide a mechanism for accounts to lose their privileges if they are compromised (such as when a trusted device is misplaced). If the calling account had been granted `role`, emits a {RoleRevoked} event. Requirements: - the caller must be `account`."
      },
      "revokeRole(bytes32,address)": {
        "details": "Revokes `role` from `account`. If `account` had been granted `role`, emits a {RoleRevoked} event. Requirements: - the caller must have ``role``'s admin role."
      },
      "royaltyInfo(uint256,uint256)": {
        "params": {
          "_salePrice": "The sale price of the NFT asset specified by _tokenId",
          "_tokenId": "The NFT asset queried for royalty information"
        },
        "returns": {
          "_0": "receiver Address that should receive royalties",
          "_1": "royaltyAmount The royalty payment amount for _salePrice"
        }
      },
      "safeTransferFrom(address,address,uint256)": {
        "details": "Safely transfers the ownership of a given token ID to another address If the target address is a contract, it must implement {IERC721Receiver-onERC721Received}, which is called upon a safe transfer, and return the magic value `bytes4(keccak256(\"onERC721Received(address,address,uint256,bytes)\"))`; otherwise, the transfer is reverted. Requires the msg.sender to be the owner, approved, or operator",
        "params": {
          "from": "current owner of the token",
          "to": "address to receive the ownership of the given token ID",
          "tokenId": "uint256 ID of the token to be transferred"
        }
      },
      "safeTransferFrom(address,address,uint256,bytes)": {
        "details": "Safely transfers the ownership of a given token ID to another address If the target address is a contract, it must implement {IERC721Receiver-onERC721Received}, which is called upon a safe transfer, and return the magic value `bytes4(keccak256(\"onERC721Received(address,address,uint256,bytes)\"))`; otherwise, the transfer is reverted. Requires the _msgSender() to be the owner, approved, or operator",
        "params": {
          "_data": "bytes data to send along with a safe transfer check",
          "from": "current owner of the token",
          "to": "address to receive the ownership of the given token ID",
          "tokenId": "uint256 ID of the token to be transferred"
        }
      },
      "setApprovalForAll(address,bool)": {
        "details": "Sets or unsets the approval of a given operator An operator is allowed to transfer all tokens of the sender on their behalf.",
        "params": {
          "approved": "representing the status of the approval to be set",
          "operator": "operator address to set the approval"
        }
      },
      "setRoyaltyParams(address,uint256)": {
        "params": {
          "newReceiver": "The new address which should receive royalties. See `receiver`.",
          "newRoyaltyPercent": "The new percent of `salePrice` that should be taken for royalties.   See `royaltyPercent`."
        }
      },
      "splitToken(uint256,uint256)": {
        "details": "NA: Not AuthorizedIA: Invalid Amount - newPrincipal1 not in range (0, principalAmount)",
        "params": {
          "newPrincipal1": "principal amount for the first token in the split. The principal amount for the  second token in the split is implicitly the original token's principal amount less newPrincipal1",
          "tokenId": "id of the token to split."
        },
        "returns": {
          "tokenId1": "id of the first token in the split",
          "tokenId2": "id of the second token in the split"
        }
      },
      "symbol()": {
        "details": "Gets the token symbol.",
        "returns": {
          "_0": "string representing the token symbol"
        }
      },
      "tokenByIndex(uint256)": {
        "details": "Gets the token ID at a given index of all the tokens in this contract Reverts if the index is greater or equal to the total number of tokens.",
        "params": {
          "index": "uint256 representing the index to be accessed of the tokens list"
        },
        "returns": {
          "_0": "uint256 token ID at the given index of the tokens list"
        }
      },
      "tokenOfOwnerByIndex(address,uint256)": {
        "details": "Gets the token ID at a given index of the tokens list of the requested owner.",
        "params": {
          "index": "uint256 representing the index to be accessed of the requested tokens list",
          "owner": "address owning the tokens list to be accessed"
        },
        "returns": {
          "_0": "uint256 token ID at the given index of the tokens list owned by the requested address"
        }
      },
      "tokenURI(uint256)": {
        "details": "Returns the URI for a given token ID. May return an empty string. If a base URI is set (via {_setBaseURI}), it is added as a prefix to the token's own URI (via {_setTokenURI}). If there is a base URI but no token URI, the token's ID will be used as its URI when appending it to the base URI. This pattern for autogenerated token URIs can lead to large gas savings. .Examples |=== |`_setBaseURI()` |`_setTokenURI()` |`tokenURI()` | \"\" | \"\" | \"\" | \"\" | \"token.uri/123\" | \"token.uri/123\" | \"token.uri/\" | \"123\" | \"token.uri/123\" | \"token.uri/\" | \"\" | \"token.uri/<tokenId>\" |=== Requirements: - `tokenId` must exist."
      },
      "totalSupply()": {
        "details": "Gets the total amount of tokens stored by the contract.",
        "returns": {
          "_0": "uint256 representing the total amount of tokens"
        }
      },
      "transferFrom(address,address,uint256)": {
        "details": "Transfers the ownership of a given token ID to another address. Usage of this method is discouraged, use {safeTransferFrom} whenever possible. Requires the msg.sender to be the owner, approved, or operator.",
        "params": {
          "from": "current owner of the token",
          "to": "address to receive the ownership of the given token ID",
          "tokenId": "uint256 ID of the token to be transferred"
        }
      },
      "unpause()": {
        "details": "Unpauses all token transfers. See {ERC721Pausable} and {Pausable-_unpause}. Requirements: - the caller must have the `PAUSER_ROLE`."
      },
      "withdrawPrincipal(uint256,uint256)": {
        "params": {
          "principalAmount": "principal to withdraw",
          "tokenId": "pool token id"
        }
      }
    },
    "title": "PoolTokens",
    "version": 1
  },
  "userdoc": {
    "events": {
      "TokenBurned(address,address,uint256)": {
        "notice": "Burn event emitted when the token owner/operator manually burns the token or burns  it implicitly by splitting it"
      },
      "TokenMinted(address,address,uint256,uint256,uint256)": {
        "notice": "Mint event emitted for a new TranchedPool deposit or when an existing pool token is  split"
      },
      "TokenPrincipalWithdrawn(address,address,uint256,uint256,uint256)": {
        "notice": "Principal Withdrawn event emitted when a token's principal is withdrawn from the pool  BEFORE the pool's drawdown period"
      },
      "TokenRedeemed(address,address,uint256,uint256,uint256,uint256)": {
        "notice": "Redeem event emitted when interest and/or principal is redeemed in the token's pool"
      },
      "TokenSplit(address,address,uint256,uint256,uint256,uint256,uint256)": {
        "notice": "Split event emitted when the token owner/operator splits the token"
      }
    },
    "kind": "user",
    "methods": {
      "OWNER_ROLE()": {
        "notice": "ID for OWNER_ROLE"
      },
      "burn(uint256)": {
        "notice": "Burns a specific ERC721 token and removes deletes the token metadata for PoolTokens, BackerReards,  and BackerStakingRewards"
      },
      "isAdmin()": {
        "notice": "Determine whether msg.sender has OWNER_ROLE"
      },
      "isApprovedOrOwner(address,uint256)": {
        "notice": "Returns a boolean representing whether the spender is the owner or the approved spender of the token"
      },
      "mint((uint256,uint256),address)": {
        "notice": "Called by pool to create a debt position in a particular tranche and amount"
      },
      "onPoolCreated(address)": {
        "notice": "Called by the GoldfinchFactory to register the pool as a valid pool. Only valid pools can mint/redeem tokens"
      },
      "redeem(uint256,uint256,uint256)": {
        "notice": "Redeem principal and interest on a pool token. Called by valid pools as part of their redemption  flow"
      },
      "reducePrincipalAmount(uint256,uint256)": {
        "notice": "reduce a given pool token's principalAmount and principalRedeemed by a specified amount"
      },
      "setRoyaltyParams(address,uint256)": {
        "notice": "Set royalty params used in `royaltyInfo`. This function is only callable by   an address with `OWNER_ROLE`."
      },
      "splitToken(uint256,uint256)": {
        "notice": "Splits a pool token into two smaller positions. The original token is burned and all its associated data is deleted."
      },
      "validPool(address)": {
        "notice": "Query if `pool` is a valid pool. A pool is valid if it was created by the Goldfinch Factory"
      },
      "withdrawPrincipal(uint256,uint256)": {
        "notice": "Withdraw a pool token's principal up to the token's principalAmount. Called by valid pools  as part of their withdraw flow before the pool is locked (i.e. before the principal is committed)"
      }
    },
    "notice": "PoolTokens is an ERC721 compliant contract, which can represent  junior tranche or senior tranche shares of any of the borrower pools.",
    "version": 1
  },
  "storageLayout": {
    "storage": [
      {
        "astId": 50,
        "contract": "contracts/protocol/core/PoolTokens.sol:PoolTokens",
        "label": "initialized",
        "offset": 0,
        "slot": "0",
        "type": "t_bool"
      },
      {
        "astId": 53,
        "contract": "contracts/protocol/core/PoolTokens.sol:PoolTokens",
        "label": "initializing",
        "offset": 1,
        "slot": "0",
        "type": "t_bool"
      },
      {
        "astId": 118,
        "contract": "contracts/protocol/core/PoolTokens.sol:PoolTokens",
        "label": "______gap",
        "offset": 0,
        "slot": "1",
        "type": "t_array(t_uint256)50_storage"
      },
      {
        "astId": 43,
        "contract": "contracts/protocol/core/PoolTokens.sol:PoolTokens",
        "label": "__gap",
        "offset": 0,
        "slot": "51",
        "type": "t_array(t_uint256)50_storage"
      },
      {
        "astId": 163,
        "contract": "contracts/protocol/core/PoolTokens.sol:PoolTokens",
        "label": "_roles",
        "offset": 0,
        "slot": "101",
        "type": "t_mapping(t_bytes32,t_struct(RoleData)159_storage)"
      },
      {
        "astId": 408,
        "contract": "contracts/protocol/core/PoolTokens.sol:PoolTokens",
        "label": "__gap",
        "offset": 0,
        "slot": "102",
        "type": "t_array(t_uint256)49_storage"
      },
      {
        "astId": 6986,
        "contract": "contracts/protocol/core/PoolTokens.sol:PoolTokens",
        "label": "_supportedInterfaces",
        "offset": 0,
        "slot": "151",
        "type": "t_mapping(t_bytes4,t_bool)"
      },
      {
        "astId": 7043,
        "contract": "contracts/protocol/core/PoolTokens.sol:PoolTokens",
        "label": "__gap",
        "offset": 0,
        "slot": "152",
        "type": "t_array(t_uint256)49_storage"
      },
      {
        "astId": 7093,
        "contract": "contracts/protocol/core/PoolTokens.sol:PoolTokens",
        "label": "_holderTokens",
        "offset": 0,
        "slot": "201",
        "type": "t_mapping(t_address,t_struct(UintSet)3021_storage)"
      },
      {
        "astId": 7095,
        "contract": "contracts/protocol/core/PoolTokens.sol:PoolTokens",
        "label": "_tokenOwners",
        "offset": 0,
        "slot": "202",
        "type": "t_struct(UintToAddressMap)2546_storage"
      },
      {
        "astId": 7099,
        "contract": "contracts/protocol/core/PoolTokens.sol:PoolTokens",
        "label": "_tokenApprovals",
        "offset": 0,
        "slot": "204",
        "type": "t_mapping(t_uint256,t_address)"
      },
      {
        "astId": 7105,
        "contract": "contracts/protocol/core/PoolTokens.sol:PoolTokens",
        "label": "_operatorApprovals",
        "offset": 0,
        "slot": "205",
        "type": "t_mapping(t_address,t_mapping(t_address,t_bool))"
      },
      {
        "astId": 7107,
        "contract": "contracts/protocol/core/PoolTokens.sol:PoolTokens",
        "label": "_name",
        "offset": 0,
        "slot": "206",
        "type": "t_string_storage"
      },
      {
        "astId": 7109,
        "contract": "contracts/protocol/core/PoolTokens.sol:PoolTokens",
        "label": "_symbol",
        "offset": 0,
        "slot": "207",
        "type": "t_string_storage"
      },
      {
        "astId": 7113,
        "contract": "contracts/protocol/core/PoolTokens.sol:PoolTokens",
        "label": "_tokenURIs",
        "offset": 0,
        "slot": "208",
        "type": "t_mapping(t_uint256,t_string_storage)"
      },
      {
        "astId": 7115,
        "contract": "contracts/protocol/core/PoolTokens.sol:PoolTokens",
        "label": "_baseURI",
        "offset": 0,
        "slot": "209",
        "type": "t_string_storage"
      },
      {
        "astId": 8021,
        "contract": "contracts/protocol/core/PoolTokens.sol:PoolTokens",
        "label": "__gap",
        "offset": 0,
        "slot": "210",
        "type": "t_array(t_uint256)41_storage"
      },
      {
        "astId": 3137,
        "contract": "contracts/protocol/core/PoolTokens.sol:PoolTokens",
        "label": "_paused",
        "offset": 0,
        "slot": "251",
        "type": "t_bool"
      },
      {
        "astId": 3226,
        "contract": "contracts/protocol/core/PoolTokens.sol:PoolTokens",
        "label": "__gap",
        "offset": 0,
        "slot": "252",
        "type": "t_array(t_uint256)49_storage"
      },
      {
        "astId": 8089,
        "contract": "contracts/protocol/core/PoolTokens.sol:PoolTokens",
        "label": "__gap",
        "offset": 0,
        "slot": "301",
        "type": "t_array(t_uint256)50_storage"
      },
      {
        "astId": 8121,
        "contract": "contracts/protocol/core/PoolTokens.sol:PoolTokens",
        "label": "_tokenIdTracker",
        "offset": 0,
        "slot": "351",
        "type": "t_struct(Counter)2226_storage"
      },
      {
        "astId": 8179,
        "contract": "contracts/protocol/core/PoolTokens.sol:PoolTokens",
        "label": "__gap",
        "offset": 0,
        "slot": "352",
        "type": "t_array(t_uint256)49_storage"
      },
      {
        "astId": 17891,
        "contract": "contracts/protocol/core/PoolTokens.sol:PoolTokens",
        "label": "config",
        "offset": 0,
        "slot": "401",
        "type": "t_contract(GoldfinchConfig)17191"
      },
      {
        "astId": 17898,
        "contract": "contracts/protocol/core/PoolTokens.sol:PoolTokens",
        "label": "tokens",
        "offset": 0,
        "slot": "402",
        "type": "t_mapping(t_uint256,t_struct(TokenInfo)10651_storage)"
      },
      {
        "astId": 17902,
        "contract": "contracts/protocol/core/PoolTokens.sol:PoolTokens",
        "label": "pools",
        "offset": 0,
        "slot": "403",
        "type": "t_mapping(t_address,t_struct(PoolInfo)10663_storage)"
      },
      {
        "astId": 17904,
        "contract": "contracts/protocol/core/PoolTokens.sol:PoolTokens",
        "label": "royaltyParams",
        "offset": 0,
        "slot": "404",
        "type": "t_struct(RoyaltyParams)14192_storage"
      }
    ],
    "types": {
      "t_address": {
        "encoding": "inplace",
        "label": "address",
        "numberOfBytes": "20"
      },
      "t_array(t_bytes32)dyn_storage": {
        "base": "t_bytes32",
        "encoding": "dynamic_array",
        "label": "bytes32[]",
        "numberOfBytes": "32"
      },
      "t_array(t_struct(MapEntry)2274_storage)dyn_storage": {
        "base": "t_struct(MapEntry)2274_storage",
        "encoding": "dynamic_array",
        "label": "struct EnumerableMap.MapEntry[]",
        "numberOfBytes": "32"
      },
      "t_array(t_uint256)41_storage": {
        "base": "t_uint256",
        "encoding": "inplace",
        "label": "uint256[41]",
        "numberOfBytes": "1312"
      },
      "t_array(t_uint256)49_storage": {
        "base": "t_uint256",
        "encoding": "inplace",
        "label": "uint256[49]",
        "numberOfBytes": "1568"
      },
      "t_array(t_uint256)50_storage": {
        "base": "t_uint256",
        "encoding": "inplace",
        "label": "uint256[50]",
        "numberOfBytes": "1600"
      },
      "t_bool": {
        "encoding": "inplace",
        "label": "bool",
        "numberOfBytes": "1"
      },
      "t_bytes32": {
        "encoding": "inplace",
        "label": "bytes32",
        "numberOfBytes": "32"
      },
      "t_bytes4": {
        "encoding": "inplace",
        "label": "bytes4",
        "numberOfBytes": "4"
      },
      "t_contract(GoldfinchConfig)17191": {
        "encoding": "inplace",
        "label": "contract GoldfinchConfig",
        "numberOfBytes": "20"
      },
      "t_mapping(t_address,t_bool)": {
        "encoding": "mapping",
        "key": "t_address",
        "label": "mapping(address => bool)",
        "numberOfBytes": "32",
        "value": "t_bool"
      },
      "t_mapping(t_address,t_mapping(t_address,t_bool))": {
        "encoding": "mapping",
        "key": "t_address",
        "label": "mapping(address => mapping(address => bool))",
        "numberOfBytes": "32",
        "value": "t_mapping(t_address,t_bool)"
      },
      "t_mapping(t_address,t_struct(PoolInfo)10663_storage)": {
        "encoding": "mapping",
        "key": "t_address",
        "label": "mapping(address => struct IPoolTokens.PoolInfo)",
        "numberOfBytes": "32",
        "value": "t_struct(PoolInfo)10663_storage"
      },
      "t_mapping(t_address,t_struct(UintSet)3021_storage)": {
        "encoding": "mapping",
        "key": "t_address",
        "label": "mapping(address => struct EnumerableSet.UintSet)",
        "numberOfBytes": "32",
        "value": "t_struct(UintSet)3021_storage"
      },
      "t_mapping(t_bytes32,t_struct(RoleData)159_storage)": {
        "encoding": "mapping",
        "key": "t_bytes32",
        "label": "mapping(bytes32 => struct AccessControlUpgradeSafe.RoleData)",
        "numberOfBytes": "32",
        "value": "t_struct(RoleData)159_storage"
      },
      "t_mapping(t_bytes32,t_uint256)": {
        "encoding": "mapping",
        "key": "t_bytes32",
        "label": "mapping(bytes32 => uint256)",
        "numberOfBytes": "32",
        "value": "t_uint256"
      },
      "t_mapping(t_bytes4,t_bool)": {
        "encoding": "mapping",
        "key": "t_bytes4",
        "label": "mapping(bytes4 => bool)",
        "numberOfBytes": "32",
        "value": "t_bool"
      },
      "t_mapping(t_uint256,t_address)": {
        "encoding": "mapping",
        "key": "t_uint256",
        "label": "mapping(uint256 => address)",
        "numberOfBytes": "32",
        "value": "t_address"
      },
      "t_mapping(t_uint256,t_string_storage)": {
        "encoding": "mapping",
        "key": "t_uint256",
        "label": "mapping(uint256 => string)",
        "numberOfBytes": "32",
        "value": "t_string_storage"
      },
      "t_mapping(t_uint256,t_struct(TokenInfo)10651_storage)": {
        "encoding": "mapping",
        "key": "t_uint256",
        "label": "mapping(uint256 => struct IPoolTokens.TokenInfo)",
        "numberOfBytes": "32",
        "value": "t_struct(TokenInfo)10651_storage"
      },
      "t_string_storage": {
        "encoding": "bytes",
        "label": "string",
        "numberOfBytes": "32"
      },
      "t_struct(AddressSet)2912_storage": {
        "encoding": "inplace",
        "label": "struct EnumerableSet.AddressSet",
        "members": [
          {
            "astId": 2911,
            "contract": "contracts/protocol/core/PoolTokens.sol:PoolTokens",
            "label": "_inner",
            "offset": 0,
            "slot": "0",
            "type": "t_struct(Set)2732_storage"
          }
        ],
        "numberOfBytes": "64"
      },
      "t_struct(Counter)2226_storage": {
        "encoding": "inplace",
        "label": "struct Counters.Counter",
        "members": [
          {
            "astId": 2225,
            "contract": "contracts/protocol/core/PoolTokens.sol:PoolTokens",
            "label": "_value",
            "offset": 0,
            "slot": "0",
            "type": "t_uint256"
          }
        ],
        "numberOfBytes": "32"
      },
      "t_struct(Map)2282_storage": {
        "encoding": "inplace",
        "label": "struct EnumerableMap.Map",
        "members": [
          {
            "astId": 2277,
            "contract": "contracts/protocol/core/PoolTokens.sol:PoolTokens",
            "label": "_entries",
            "offset": 0,
            "slot": "0",
            "type": "t_array(t_struct(MapEntry)2274_storage)dyn_storage"
          },
          {
            "astId": 2281,
            "contract": "contracts/protocol/core/PoolTokens.sol:PoolTokens",
            "label": "_indexes",
            "offset": 0,
            "slot": "1",
            "type": "t_mapping(t_bytes32,t_uint256)"
          }
        ],
        "numberOfBytes": "64"
      },
      "t_struct(MapEntry)2274_storage": {
        "encoding": "inplace",
        "label": "struct EnumerableMap.MapEntry",
        "members": [
          {
            "astId": 2271,
            "contract": "contracts/protocol/core/PoolTokens.sol:PoolTokens",
            "label": "_key",
            "offset": 0,
            "slot": "0",
            "type": "t_bytes32"
          },
          {
            "astId": 2273,
            "contract": "contracts/protocol/core/PoolTokens.sol:PoolTokens",
            "label": "_value",
            "offset": 0,
            "slot": "1",
            "type": "t_bytes32"
          }
        ],
        "numberOfBytes": "64"
      },
      "t_struct(PoolInfo)10663_storage": {
        "encoding": "inplace",
        "label": "struct IPoolTokens.PoolInfo",
        "members": [
          {
            "astId": 10658,
            "contract": "contracts/protocol/core/PoolTokens.sol:PoolTokens",
            "label": "totalMinted",
            "offset": 0,
            "slot": "0",
            "type": "t_uint256"
          },
          {
            "astId": 10660,
            "contract": "contracts/protocol/core/PoolTokens.sol:PoolTokens",
            "label": "totalPrincipalRedeemed",
            "offset": 0,
            "slot": "1",
            "type": "t_uint256"
          },
          {
            "astId": 10662,
            "contract": "contracts/protocol/core/PoolTokens.sol:PoolTokens",
            "label": "created",
            "offset": 0,
            "slot": "2",
            "type": "t_bool"
          }
        ],
        "numberOfBytes": "96"
      },
      "t_struct(RoleData)159_storage": {
        "encoding": "inplace",
        "label": "struct AccessControlUpgradeSafe.RoleData",
        "members": [
          {
            "astId": 156,
            "contract": "contracts/protocol/core/PoolTokens.sol:PoolTokens",
            "label": "members",
            "offset": 0,
            "slot": "0",
            "type": "t_struct(AddressSet)2912_storage"
          },
          {
            "astId": 158,
            "contract": "contracts/protocol/core/PoolTokens.sol:PoolTokens",
            "label": "adminRole",
            "offset": 0,
            "slot": "2",
            "type": "t_bytes32"
          }
        ],
        "numberOfBytes": "96"
      },
      "t_struct(RoyaltyParams)14192_storage": {
        "encoding": "inplace",
        "label": "struct ConfigurableRoyaltyStandard.RoyaltyParams",
        "members": [
          {
            "astId": 14189,
            "contract": "contracts/protocol/core/PoolTokens.sol:PoolTokens",
            "label": "receiver",
            "offset": 0,
            "slot": "0",
            "type": "t_address"
          },
          {
            "astId": 14191,
            "contract": "contracts/protocol/core/PoolTokens.sol:PoolTokens",
            "label": "royaltyPercent",
            "offset": 0,
            "slot": "1",
            "type": "t_uint256"
          }
        ],
        "numberOfBytes": "64"
      },
      "t_struct(Set)2732_storage": {
        "encoding": "inplace",
        "label": "struct EnumerableSet.Set",
        "members": [
          {
            "astId": 2727,
            "contract": "contracts/protocol/core/PoolTokens.sol:PoolTokens",
            "label": "_values",
            "offset": 0,
            "slot": "0",
            "type": "t_array(t_bytes32)dyn_storage"
          },
          {
            "astId": 2731,
            "contract": "contracts/protocol/core/PoolTokens.sol:PoolTokens",
            "label": "_indexes",
            "offset": 0,
            "slot": "1",
            "type": "t_mapping(t_bytes32,t_uint256)"
          }
        ],
        "numberOfBytes": "64"
      },
      "t_struct(TokenInfo)10651_storage": {
        "encoding": "inplace",
        "label": "struct IPoolTokens.TokenInfo",
        "members": [
          {
            "astId": 10642,
            "contract": "contracts/protocol/core/PoolTokens.sol:PoolTokens",
            "label": "pool",
            "offset": 0,
            "slot": "0",
            "type": "t_address"
          },
          {
            "astId": 10644,
            "contract": "contracts/protocol/core/PoolTokens.sol:PoolTokens",
            "label": "tranche",
            "offset": 0,
            "slot": "1",
            "type": "t_uint256"
          },
          {
            "astId": 10646,
            "contract": "contracts/protocol/core/PoolTokens.sol:PoolTokens",
            "label": "principalAmount",
            "offset": 0,
            "slot": "2",
            "type": "t_uint256"
          },
          {
            "astId": 10648,
            "contract": "contracts/protocol/core/PoolTokens.sol:PoolTokens",
            "label": "principalRedeemed",
            "offset": 0,
            "slot": "3",
            "type": "t_uint256"
          },
          {
            "astId": 10650,
            "contract": "contracts/protocol/core/PoolTokens.sol:PoolTokens",
            "label": "interestRedeemed",
            "offset": 0,
            "slot": "4",
            "type": "t_uint256"
          }
        ],
        "numberOfBytes": "160"
      },
      "t_struct(UintSet)3021_storage": {
        "encoding": "inplace",
        "label": "struct EnumerableSet.UintSet",
        "members": [
          {
            "astId": 3020,
            "contract": "contracts/protocol/core/PoolTokens.sol:PoolTokens",
            "label": "_inner",
            "offset": 0,
            "slot": "0",
            "type": "t_struct(Set)2732_storage"
          }
        ],
        "numberOfBytes": "64"
      },
      "t_struct(UintToAddressMap)2546_storage": {
        "encoding": "inplace",
        "label": "struct EnumerableMap.UintToAddressMap",
        "members": [
          {
            "astId": 2545,
            "contract": "contracts/protocol/core/PoolTokens.sol:PoolTokens",
            "label": "_inner",
            "offset": 0,
            "slot": "0",
            "type": "t_struct(Map)2282_storage"
          }
        ],
        "numberOfBytes": "64"
      },
      "t_uint256": {
        "encoding": "inplace",
        "label": "uint256",
        "numberOfBytes": "32"
      }
    }
  }
}