{
  "address": "0x0A540cf99FB24926c6EfE88eEf141d7C9aeCFFe2",
  "abi": [
    {
      "anonymous": false,
      "inputs": [
        {
          "indexed": true,
          "internalType": "bytes4",
          "name": "key",
          "type": "bytes4"
        },
        {
          "indexed": true,
          "internalType": "address",
          "name": "addr",
          "type": "address"
        }
      ],
      "name": "SetContract",
      "type": "event"
    },
    {
      "inputs": [
        {
          "internalType": "bytes4",
          "name": "",
          "type": "bytes4"
        }
      ],
      "name": "contracts",
      "outputs": [
        {
          "internalType": "address",
          "name": "",
          "type": "address"
        }
      ],
      "stateMutability": "view",
      "type": "function"
    },
    {
      "inputs": [
        {
          "internalType": "contract AccessControl",
          "name": "accessControl",
          "type": "address"
        }
      ],
      "name": "initialize",
      "outputs": [],
      "stateMutability": "nonpayable",
      "type": "function"
    },
    {
      "inputs": [
        {
          "internalType": "bytes4",
          "name": "key",
          "type": "bytes4"
        },
        {
          "internalType": "address",
          "name": "addr",
          "type": "address"
        }
      ],
      "name": "setContract",
      "outputs": [],
      "stateMutability": "nonpayable",
      "type": "function"
    }
  ],
  "transactionHash": "0x1576afdfb2d1c98ba762940b44992f2e80e6714e886a0a88882d7433678297fa",
  "args": [],
  "solcInputHash": "eac65dc40e06b4b044f441f03029567a",
  "bytecode": "0x608060405234801561001057600080fd5b5061038b806100206000396000f3fe608060405234801561001057600080fd5b50600436106100415760003560e01c80630c04501214610046578063803fe83e1461008b578063c4d66de8146100a0575b600080fd5b61006f6100543660046102c7565b6001602052600090815260409020546001600160a01b031681565b6040516001600160a01b03909116815260200160405180910390f35b61009e610099366004610301565b6100b3565b005b61009e6100ae366004610338565b6101a8565b634d338fb360e11b60005260016020527f464486f5ada59117002db44fc2e81c950f36818416e60d642245c28d6136cfde54604051632a6e138b60e11b81523060048201523360248201526001600160a01b039091169081906354dc27169060440160006040518083038186803b15801561012d57600080fd5b505afa158015610141573d6000803e3d6000fd5b505050506001600160e01b0319831660008181526001602052604080822080546001600160a01b0319166001600160a01b03871690811790915590519092917f85e6f4175f6948ee141dece520c69e2c164f0cd3219c6a9c280e3b8690b841f391a3505050565b600054610100900460ff16806101c1575060005460ff16155b6102285760405162461bcd60e51b815260206004820152602e60248201527f496e697469616c697a61626c653a20636f6e747261637420697320616c72656160448201526d191e481a5b9a5d1a585b1a5e995960921b606482015260840160405180910390fd5b600054610100900460ff1615801561024a576000805461ffff19166101011790555b634d338fb360e11b60005260016020527f464486f5ada59117002db44fc2e81c950f36818416e60d642245c28d6136cfde80546001600160a01b0319166001600160a01b03841617905580156102a6576000805461ff00191690555b5050565b80356001600160e01b0319811681146102c257600080fd5b919050565b6000602082840312156102d957600080fd5b6102e2826102aa565b9392505050565b6001600160a01b03811681146102fe57600080fd5b50565b6000806040838503121561031457600080fd5b61031d836102aa565b9150602083013561032d816102e9565b809150509250929050565b60006020828403121561034a57600080fd5b81356102e2816102e956fea264697066735822122043be5f6ed1f71b99d579ddccae1e2e3b751d49b3dca2d19d94772fae5e4ec4d364736f6c63430008100033",
  "devdoc": {
    "author": "landakram",
    "kind": "dev",
    "methods": {
      "setContract(bytes4,address)": {
        "details": "This function is only callable by the Router admin",
        "params": {
          "addr": "A contract address",
          "key": "A routing key (defined in the `Routing.Keys` libary)"
        }
      }
    },
    "title": "Router",
    "version": 1
  },
  "userdoc": {
    "kind": "user",
    "methods": {
      "contracts(bytes4)": {
        "notice": "Mapping of keys to contract addresses. Keys are the first 4 bytes of the keccak of   the contract's name. See Routing.sol for all options."
      },
      "setContract(bytes4,address)": {
        "notice": "Associate a routing key to a contract address"
      }
    },
    "notice": "This contract provides service discovery for contracts using the cake framework.   It can be used in conjunction with the convenience methods defined in the `Routing.Context`   and `Routing.Keys` libraries.",
    "version": 1
  },
  "storageLayout": {
    "storage": [
      {
        "astId": 663,
        "contract": "contracts/cake/Router.sol:Router",
        "label": "_initialized",
        "offset": 0,
        "slot": "0",
        "type": "t_bool"
      },
      {
        "astId": 666,
        "contract": "contracts/cake/Router.sol:Router",
        "label": "_initializing",
        "offset": 1,
        "slot": "0",
        "type": "t_bool"
      },
      {
        "astId": 5225,
        "contract": "contracts/cake/Router.sol:Router",
        "label": "contracts",
        "offset": 0,
        "slot": "1",
        "type": "t_mapping(t_bytes4,t_address)"
      }
    ],
    "types": {
      "t_address": {
        "encoding": "inplace",
        "label": "address",
        "numberOfBytes": "20"
      },
      "t_bool": {
        "encoding": "inplace",
        "label": "bool",
        "numberOfBytes": "1"
      },
      "t_bytes4": {
        "encoding": "inplace",
        "label": "bytes4",
        "numberOfBytes": "4"
      },
      "t_mapping(t_bytes4,t_address)": {
        "encoding": "mapping",
        "key": "t_bytes4",
        "label": "mapping(bytes4 => address)",
        "numberOfBytes": "32",
        "value": "t_address"
      }
    }
  }
}