{
  "address": "0x35c7E897B520038763AFe0CFff3C7BDcEB22C677",
  "abi": [
    {
      "anonymous": false,
      "inputs": [
        {
          "indexed": true,
          "internalType": "address",
          "name": "capitalProvider",
          "type": "address"
        },
        {
          "indexed": false,
          "internalType": "uint256",
          "name": "amount",
          "type": "uint256"
        },
        {
          "indexed": false,
          "internalType": "uint256",
          "name": "shares",
          "type": "uint256"
        }
      ],
      "name": "DepositMade",
      "type": "event"
    },
    {
      "anonymous": false,
      "inputs": [
        {
          "indexed": true,
          "internalType": "address",
          "name": "who",
          "type": "address"
        },
        {
          "indexed": false,
          "internalType": "address",
          "name": "configAddress",
          "type": "address"
        }
      ],
      "name": "GoldfinchConfigUpdated",
      "type": "event"
    },
    {
      "anonymous": false,
      "inputs": [
        {
          "indexed": true,
          "internalType": "address",
          "name": "payer",
          "type": "address"
        },
        {
          "indexed": false,
          "internalType": "uint256",
          "name": "amount",
          "type": "uint256"
        }
      ],
      "name": "InterestCollected",
      "type": "event"
    },
    {
      "anonymous": false,
      "inputs": [
        {
          "indexed": true,
          "internalType": "address",
          "name": "tranchedPool",
          "type": "address"
        },
        {
          "indexed": false,
          "internalType": "uint256",
          "name": "amount",
          "type": "uint256"
        }
      ],
      "name": "InvestmentMadeInJunior",
      "type": "event"
    },
    {
      "anonymous": false,
      "inputs": [
        {
          "indexed": true,
          "internalType": "address",
          "name": "tranchedPool",
          "type": "address"
        },
        {
          "indexed": false,
          "internalType": "uint256",
          "name": "amount",
          "type": "uint256"
        }
      ],
      "name": "InvestmentMadeInSenior",
      "type": "event"
    },
    {
      "anonymous": false,
      "inputs": [
        {
          "indexed": false,
          "internalType": "address",
          "name": "account",
          "type": "address"
        }
      ],
      "name": "Paused",
      "type": "event"
    },
    {
      "anonymous": false,
      "inputs": [
        {
          "indexed": true,
          "internalType": "address",
          "name": "payer",
          "type": "address"
        },
        {
          "indexed": false,
          "internalType": "uint256",
          "name": "amount",
          "type": "uint256"
        }
      ],
      "name": "PrincipalCollected",
      "type": "event"
    },
    {
      "anonymous": false,
      "inputs": [
        {
          "indexed": true,
          "internalType": "address",
          "name": "tranchedPool",
          "type": "address"
        },
        {
          "indexed": false,
          "internalType": "int256",
          "name": "amount",
          "type": "int256"
        }
      ],
      "name": "PrincipalWrittenDown",
      "type": "event"
    },
    {
      "anonymous": false,
      "inputs": [
        {
          "indexed": true,
          "internalType": "address",
          "name": "user",
          "type": "address"
        },
        {
          "indexed": false,
          "internalType": "uint256",
          "name": "amount",
          "type": "uint256"
        }
      ],
      "name": "ReserveFundsCollected",
      "type": "event"
    },
    {
      "anonymous": false,
      "inputs": [
        {
          "indexed": true,
          "internalType": "bytes32",
          "name": "role",
          "type": "bytes32"
        },
        {
          "indexed": true,
          "internalType": "address",
          "name": "account",
          "type": "address"
        },
        {
          "indexed": true,
          "internalType": "address",
          "name": "sender",
          "type": "address"
        }
      ],
      "name": "RoleGranted",
      "type": "event"
    },
    {
      "anonymous": false,
      "inputs": [
        {
          "indexed": true,
          "internalType": "bytes32",
          "name": "role",
          "type": "bytes32"
        },
        {
          "indexed": true,
          "internalType": "address",
          "name": "account",
          "type": "address"
        },
        {
          "indexed": true,
          "internalType": "address",
          "name": "sender",
          "type": "address"
        }
      ],
      "name": "RoleRevoked",
      "type": "event"
    },
    {
      "anonymous": false,
      "inputs": [
        {
          "indexed": false,
          "internalType": "address",
          "name": "account",
          "type": "address"
        }
      ],
      "name": "Unpaused",
      "type": "event"
    },
    {
      "anonymous": false,
      "inputs": [
        {
          "indexed": true,
          "internalType": "address",
          "name": "capitalProvider",
          "type": "address"
        },
        {
          "indexed": false,
          "internalType": "uint256",
          "name": "userAmount",
          "type": "uint256"
        },
        {
          "indexed": false,
          "internalType": "uint256",
          "name": "reserveAmount",
          "type": "uint256"
        }
      ],
      "name": "WithdrawalMade",
      "type": "event"
    },
    {
      "inputs": [],
      "name": "DEFAULT_ADMIN_ROLE",
      "outputs": [
        {
          "internalType": "bytes32",
          "name": "",
          "type": "bytes32"
        }
      ],
      "stateMutability": "view",
      "type": "function"
    },
    {
      "inputs": [],
      "name": "OWNER_ROLE",
      "outputs": [
        {
          "internalType": "bytes32",
          "name": "",
          "type": "bytes32"
        }
      ],
      "stateMutability": "view",
      "type": "function"
    },
    {
      "inputs": [],
      "name": "PAUSER_ROLE",
      "outputs": [
        {
          "internalType": "bytes32",
          "name": "",
          "type": "bytes32"
        }
      ],
      "stateMutability": "view",
      "type": "function"
    },
    {
      "inputs": [],
      "name": "ZAPPER_ROLE",
      "outputs": [
        {
          "internalType": "bytes32",
          "name": "",
          "type": "bytes32"
        }
      ],
      "stateMutability": "view",
      "type": "function"
    },
    {
      "inputs": [
        {
          "internalType": "address",
          "name": "owner",
          "type": "address"
        }
      ],
      "name": "__BaseUpgradeablePausable__init",
      "outputs": [],
      "stateMutability": "nonpayable",
      "type": "function"
    },
    {
      "inputs": [],
      "name": "__PauserPausable__init",
      "outputs": [],
      "stateMutability": "nonpayable",
      "type": "function"
    },
    {
      "inputs": [],
      "name": "assets",
      "outputs": [
        {
          "internalType": "uint256",
          "name": "",
          "type": "uint256"
        }
      ],
      "stateMutability": "view",
      "type": "function"
    },
    {
      "inputs": [
        {
          "internalType": "uint256",
          "name": "tokenId",
          "type": "uint256"
        }
      ],
      "name": "calculateWritedown",
      "outputs": [
        {
          "internalType": "uint256",
          "name": "",
          "type": "uint256"
        }
      ],
      "stateMutability": "view",
      "type": "function"
    },
    {
      "inputs": [],
      "name": "compoundBalance",
      "outputs": [
        {
          "internalType": "uint256",
          "name": "",
          "type": "uint256"
        }
      ],
      "stateMutability": "view",
      "type": "function"
    },
    {
      "inputs": [],
      "name": "config",
      "outputs": [
        {
          "internalType": "contract GoldfinchConfig",
          "name": "",
          "type": "address"
        }
      ],
      "stateMutability": "view",
      "type": "function"
    },
    {
      "inputs": [
        {
          "internalType": "uint256",
          "name": "amount",
          "type": "uint256"
        }
      ],
      "name": "deposit",
      "outputs": [
        {
          "internalType": "uint256",
          "name": "depositShares",
          "type": "uint256"
        }
      ],
      "stateMutability": "nonpayable",
      "type": "function"
    },
    {
      "inputs": [
        {
          "internalType": "uint256",
          "name": "amount",
          "type": "uint256"
        },
        {
          "internalType": "uint256",
          "name": "deadline",
          "type": "uint256"
        },
        {
          "internalType": "uint8",
          "name": "v",
          "type": "uint8"
        },
        {
          "internalType": "bytes32",
          "name": "r",
          "type": "bytes32"
        },
        {
          "internalType": "bytes32",
          "name": "s",
          "type": "bytes32"
        }
      ],
      "name": "depositWithPermit",
      "outputs": [
        {
          "internalType": "uint256",
          "name": "depositShares",
          "type": "uint256"
        }
      ],
      "stateMutability": "nonpayable",
      "type": "function"
    },
    {
      "inputs": [
        {
          "internalType": "contract ITranchedPool",
          "name": "pool",
          "type": "address"
        }
      ],
      "name": "estimateInvestment",
      "outputs": [
        {
          "internalType": "uint256",
          "name": "",
          "type": "uint256"
        }
      ],
      "stateMutability": "view",
      "type": "function"
    },
    {
      "inputs": [
        {
          "internalType": "uint256",
          "name": "amount",
          "type": "uint256"
        }
      ],
      "name": "getNumShares",
      "outputs": [
        {
          "internalType": "uint256",
          "name": "",
          "type": "uint256"
        }
      ],
      "stateMutability": "view",
      "type": "function"
    },
    {
      "inputs": [
        {
          "internalType": "bytes32",
          "name": "role",
          "type": "bytes32"
        }
      ],
      "name": "getRoleAdmin",
      "outputs": [
        {
          "internalType": "bytes32",
          "name": "",
          "type": "bytes32"
        }
      ],
      "stateMutability": "view",
      "type": "function"
    },
    {
      "inputs": [
        {
          "internalType": "bytes32",
          "name": "role",
          "type": "bytes32"
        },
        {
          "internalType": "uint256",
          "name": "index",
          "type": "uint256"
        }
      ],
      "name": "getRoleMember",
      "outputs": [
        {
          "internalType": "address",
          "name": "",
          "type": "address"
        }
      ],
      "stateMutability": "view",
      "type": "function"
    },
    {
      "inputs": [
        {
          "internalType": "bytes32",
          "name": "role",
          "type": "bytes32"
        }
      ],
      "name": "getRoleMemberCount",
      "outputs": [
        {
          "internalType": "uint256",
          "name": "",
          "type": "uint256"
        }
      ],
      "stateMutability": "view",
      "type": "function"
    },
    {
      "inputs": [
        {
          "internalType": "bytes32",
          "name": "role",
          "type": "bytes32"
        },
        {
          "internalType": "address",
          "name": "account",
          "type": "address"
        }
      ],
      "name": "grantRole",
      "outputs": [],
      "stateMutability": "nonpayable",
      "type": "function"
    },
    {
      "inputs": [
        {
          "internalType": "bytes32",
          "name": "role",
          "type": "bytes32"
        },
        {
          "internalType": "address",
          "name": "account",
          "type": "address"
        }
      ],
      "name": "hasRole",
      "outputs": [
        {
          "internalType": "bool",
          "name": "",
          "type": "bool"
        }
      ],
      "stateMutability": "view",
      "type": "function"
    },
    {
      "inputs": [],
      "name": "initZapperRole",
      "outputs": [],
      "stateMutability": "nonpayable",
      "type": "function"
    },
    {
      "inputs": [
        {
          "internalType": "address",
          "name": "owner",
          "type": "address"
        },
        {
          "internalType": "contract GoldfinchConfig",
          "name": "_config",
          "type": "address"
        }
      ],
      "name": "initialize",
      "outputs": [],
      "stateMutability": "nonpayable",
      "type": "function"
    },
    {
      "inputs": [
        {
          "internalType": "contract ITranchedPool",
          "name": "pool",
          "type": "address"
        }
      ],
      "name": "invest",
      "outputs": [],
      "stateMutability": "nonpayable",
      "type": "function"
    },
    {
      "inputs": [],
      "name": "isAdmin",
      "outputs": [
        {
          "internalType": "bool",
          "name": "",
          "type": "bool"
        }
      ],
      "stateMutability": "view",
      "type": "function"
    },
    {
      "inputs": [],
      "name": "isZapper",
      "outputs": [
        {
          "internalType": "bool",
          "name": "",
          "type": "bool"
        }
      ],
      "stateMutability": "view",
      "type": "function"
    },
    {
      "inputs": [],
      "name": "pause",
      "outputs": [],
      "stateMutability": "nonpayable",
      "type": "function"
    },
    {
      "inputs": [],
      "name": "paused",
      "outputs": [
        {
          "internalType": "bool",
          "name": "",
          "type": "bool"
        }
      ],
      "stateMutability": "view",
      "type": "function"
    },
    {
      "inputs": [
        {
          "internalType": "uint256",
          "name": "tokenId",
          "type": "uint256"
        }
      ],
      "name": "redeem",
      "outputs": [],
      "stateMutability": "nonpayable",
      "type": "function"
    },
    {
      "inputs": [
        {
          "internalType": "bytes32",
          "name": "role",
          "type": "bytes32"
        },
        {
          "internalType": "address",
          "name": "account",
          "type": "address"
        }
      ],
      "name": "renounceRole",
      "outputs": [],
      "stateMutability": "nonpayable",
      "type": "function"
    },
    {
      "inputs": [
        {
          "internalType": "bytes32",
          "name": "role",
          "type": "bytes32"
        },
        {
          "internalType": "address",
          "name": "account",
          "type": "address"
        }
      ],
      "name": "revokeRole",
      "outputs": [],
      "stateMutability": "nonpayable",
      "type": "function"
    },
    {
      "inputs": [],
      "name": "sharePrice",
      "outputs": [
        {
          "internalType": "uint256",
          "name": "",
          "type": "uint256"
        }
      ],
      "stateMutability": "view",
      "type": "function"
    },
    {
      "inputs": [],
      "name": "sweepFromCompound",
      "outputs": [],
      "stateMutability": "nonpayable",
      "type": "function"
    },
    {
      "inputs": [],
      "name": "sweepToCompound",
      "outputs": [],
      "stateMutability": "nonpayable",
      "type": "function"
    },
    {
      "inputs": [],
      "name": "totalLoansOutstanding",
      "outputs": [
        {
          "internalType": "uint256",
          "name": "",
          "type": "uint256"
        }
      ],
      "stateMutability": "view",
      "type": "function"
    },
    {
      "inputs": [],
      "name": "totalWritedowns",
      "outputs": [
        {
          "internalType": "uint256",
          "name": "",
          "type": "uint256"
        }
      ],
      "stateMutability": "view",
      "type": "function"
    },
    {
      "inputs": [],
      "name": "unpause",
      "outputs": [],
      "stateMutability": "nonpayable",
      "type": "function"
    },
    {
      "inputs": [
        {
          "internalType": "uint256",
          "name": "usdcAmount",
          "type": "uint256"
        }
      ],
      "name": "withdraw",
      "outputs": [
        {
          "internalType": "uint256",
          "name": "amount",
          "type": "uint256"
        }
      ],
      "stateMutability": "nonpayable",
      "type": "function"
    },
    {
      "inputs": [
        {
          "internalType": "uint256",
          "name": "fiduAmount",
          "type": "uint256"
        }
      ],
      "name": "withdrawInFidu",
      "outputs": [
        {
          "internalType": "uint256",
          "name": "amount",
          "type": "uint256"
        }
      ],
      "stateMutability": "nonpayable",
      "type": "function"
    },
    {
      "inputs": [
        {
          "internalType": "uint256",
          "name": "tokenId",
          "type": "uint256"
        }
      ],
      "name": "writedown",
      "outputs": [],
      "stateMutability": "nonpayable",
      "type": "function"
    },
    {
      "inputs": [
        {
          "internalType": "contract ITranchedPool",
          "name": "",
          "type": "address"
        }
      ],
      "name": "writedowns",
      "outputs": [
        {
          "internalType": "uint256",
          "name": "",
          "type": "uint256"
        }
      ],
      "stateMutability": "view",
      "type": "function"
    },
    {
      "inputs": [
        {
          "internalType": "uint256",
          "name": "",
          "type": "uint256"
        }
      ],
      "name": "writedownsByPoolToken",
      "outputs": [
        {
          "internalType": "uint256",
          "name": "",
          "type": "uint256"
        }
      ],
      "stateMutability": "view",
      "type": "function"
    }
  ],
  "transactionHash": "0xdf854c0da5e2a63491690cd2b7963299c03b810b7025f040238dc81be071699c",
  "args": [],
  "solcInputHash": "41607429975bef9e5ad20fcaee2f7132",
  "bytecode": "0x608060405234801561001057600080fd5b50613f11806100206000396000f3fe608060405234801561001057600080fd5b50600436106102485760003560e01c8063872697291161013b578063ca15c873116100b8578063e58378bb1161007c578063e58378bb1461047e578063e63ab1e914610486578063ed80c8501461048e578063f1a80e6214610496578063fb285ed01461049e57610248565b8063ca15c8731461041f578063cf5f1f6214610432578063d547741f14610445578063d78a5c6514610458578063db006a751461046b57610248565b80639e4a88e1116100ff5780639e4a88e1146103ec578063a217fddf146103f4578063a6f4487e146103fc578063b6b55f2514610404578063b6db75a01461041757610248565b806387269729146103a35780638836d902146103ab5780639010d07c146103b357806391d14854146103c6578063945ed49a146103d957610248565b80634d4e3e0c116101c9578063722eeec31161018d578063722eeec31461034d57806379502c55146103605780637e30cdff146103755780638456cb5914610388578063855cb21b1461039057610248565b80634d4e3e0c1461031a578063526d81f61461032257806358031d121461032a5780635c975abb1461033d57806371a973051461034557610248565b80632f2ff15d116102105780632f2ff15d146102c657806336568abe146102d95780633f4ba83a146102ec578063485cc955146102f45780634a970be71461030757610248565b806303f9c7931461024d578063097616a31461026257806310bc255f14610275578063248a9ca3146102935780632e1a7d4d146102b3575b600080fd5b61026061025b36600461331a565b6104a6565b005b61026061027036600461331a565b610797565b61027d6108c7565b60405161028a9190613595565b60405180910390f35b6102a66102a13660046133aa565b6108e8565b60405161028a91906135a0565b6102a66102c13660046133aa565b6108fd565b6102606102d43660046133c2565b610a59565b6102606102e73660046133c2565b610a9d565b610260610adf565b610260610302366004613352565b610b1f565b6102a66103153660046134b6565b610d4f565b6102a6610de4565b610260610df6565b6102a66103383660046133aa565b610e81565b61027d610fdf565b6102a6610fe8565b6102a661035b3660046133aa565b6110a9565b61036861117b565b60405161028a9190613503565b6102a661038336600461331a565b61118b565b610260611253565b6102a661039e3660046133aa565b611291565b6102a66112c0565b6102606112c7565b6103686103c13660046133e6565b611316565b61027d6103d43660046133c2565b61132e565b6102606103e73660046133aa565b611346565b610260611664565b6102a66118c8565b6102a66118cd565b6102a66104123660046133aa565b6118d4565b61027d611b06565b6102a661042d3660046133aa565b611b22565b6102a66104403660046133aa565b611b39565b6102606104533660046133c2565b611b4c565b6102a661046636600461331a565b611b86565b6102606104793660046133aa565b611b99565b6102a6611d33565b6102a6611d45565b6102a6611d57565b6102a6611d5e565b610260611d65565b60975460ff16156104d25760405162461bcd60e51b81526004016104c990613b2c565b60405180910390fd5b60c95460ff166104f45760405162461bcd60e51b81526004016104c990613d0d565b60c9805460ff1916905561050781611daf565b6105235760405162461bcd60e51b81526004016104c990613b56565b6101c7541561053457610534611e43565b6101c65460009061054d906001600160a01b0316611ee3565b90506000816001600160a01b031663ff8a4efe30856040518363ffffffff1660e01b815260040161057f9291906135d7565b60206040518083038186803b15801561059757600080fd5b505afa1580156105ab573d6000803e3d6000fd5b505050506040513d601f19601f820116820180604052508101906105cf919061347b565b9050600081116105f15760405162461bcd60e51b81526004016104c990613ccb565b6105fb8382611eee565b6000836001600160a01b0316637976323d6040518163ffffffff1660e01b815260040160206040518083038186803b15801561063657600080fd5b505afa15801561064a573d6000803e3d6000fd5b505050506040513d601f19601f8201168201806040525081019061066e919061347b565b905060018110156106915760405162461bcd60e51b81526004016104c990613700565b600061069e826001611faa565b905060006106ab82611fec565b604051631c57762b60e31b81529091506001600160a01b0387169063e2bbb158906106dc9084908890600401613e58565b602060405180830381600087803b1580156106f657600080fd5b505af115801561070a573d6000803e3d6000fd5b505050506040513d601f19601f8201168201806040525081019061072e919061347b565b50856001600160a01b03167f86da25fff7a4075a94de2ffed109ca6748c3af22736eaf7efc75e3988f899d6e8560405161076891906135a0565b60405180910390a26101c45461077e9085611ffe565b6101c455505060c9805460ff1916600117905550505050565b600054610100900460ff16806107b057506107b0612023565b806107be575060005460ff16155b6107da5760405162461bcd60e51b81526004016104c990613bf8565b600054610100900460ff16158015610805576000805460ff1961ff0019909116610100171660011790555b6001600160a01b03821661082b5760405162461bcd60e51b81526004016104c990613b82565b610833612029565b61083b6120aa565b610843612136565b61085b600080516020613e7c83398151915283610a93565b610873600080516020613ebc83398151915283610a93565b610899600080516020613ebc833981519152600080516020613e7c8339815191526121c5565b6108b1600080516020613e7c833981519152806121c5565b80156108c3576000805461ff00191690555b5050565b60006108e3600080516020613e9c8339815191526103d46121da565b905090565b60009081526065602052604090206002015490565b60975460009060ff16156109235760405162461bcd60e51b81526004016104c990613b2c565b60c95460ff166109455760405162461bcd60e51b81526004016104c990613d0d565b60c9805460ff191690556101c654610965906001600160a01b03166121de565b6001600160a01b031663a37b92c9336040518263ffffffff1660e01b81526004016109909190613503565b60206040518083038186803b1580156109a857600080fd5b505afa1580156109bc573d6000803e3d6000fd5b505050506040513d601f19601f820116820180604052508101906109e0919061338a565b6109fc5760405162461bcd60e51b81526004016104c990613644565b60008211610a1c5760405162461bcd60e51b81526004016104c990613c78565b6101c75415610a2d57610a2d611e43565b6000610a3883611291565b9050610a4483826121e9565b91505060c9805460ff19166001179055919050565b600082815260656020526040902060020154610a77906103d46121da565b610a935760405162461bcd60e51b81526004016104c990613763565b6108c382826123c9565b610aa56121da565b6001600160a01b0316816001600160a01b031614610ad55760405162461bcd60e51b81526004016104c990613dd2565b6108c38282612432565b610af9600080516020613ebc8339815191526103d46121da565b610b155760405162461bcd60e51b81526004016104c990613caf565b610b1d61249b565b565b600054610100900460ff1680610b385750610b38612023565b80610b46575060005460ff16155b610b625760405162461bcd60e51b81526004016104c990613bf8565b600054610100900460ff16158015610b8d576000805460ff1961ff0019909116610100171660011790555b6001600160a01b03831615801590610bad57506001600160a01b03821615155b610bc95760405162461bcd60e51b81526004016104c990613867565b610bd283610797565b6101c680546001600160a01b0319166001600160a01b038416179055610bf6612507565b6101c35560006101c48190556101c58190556101c654610c1e906001600160a01b0316612513565b9050806001600160a01b03166318160ddd6040518163ffffffff1660e01b815260040160206040518083038186803b158015610c5957600080fd5b505afa158015610c6d573d6000803e3d6000fd5b505050506040513d601f19601f82011682018060405250810190610c91919061347b565b5060405163095ea7b360e01b81526000906001600160a01b0383169063095ea7b390610cc590309060001990600401613558565b602060405180830381600087803b158015610cdf57600080fd5b505af1158015610cf3573d6000803e3d6000fd5b505050506040513d601f19601f82011682018060405250810190610d17919061338a565b905080610d365760405162461bcd60e51b81526004016104c9906137e0565b50508015610d4a576000805461ff00191690555b505050565b6101c654600090610d68906001600160a01b031661251a565b6001600160a01b031663d505accf333089898989896040518863ffffffff1660e01b8152600401610d9f9796959493929190613517565b600060405180830381600087803b158015610db957600080fd5b505af1158015610dcd573d6000803e3d6000fd5b50505050610dda866118d4565b9695505050505050565b600080516020613e9c83398151915281565b600054610100900460ff1680610e0f5750610e0f612023565b80610e1d575060005460ff16155b610e395760405162461bcd60e51b81526004016104c990613bf8565b600054610100900460ff16158015610e64576000805460ff1961ff0019909116610100171660011790555b610e6c6120aa565b8015610e7e576000805461ff00191690555b50565b60975460009060ff1615610ea75760405162461bcd60e51b81526004016104c990613b2c565b60c95460ff16610ec95760405162461bcd60e51b81526004016104c990613d0d565b60c9805460ff191690556101c654610ee9906001600160a01b03166121de565b6001600160a01b031663a37b92c9336040518263ffffffff1660e01b8152600401610f149190613503565b60206040518083038186803b158015610f2c57600080fd5b505afa158015610f40573d6000803e3d6000fd5b505050506040513d601f19601f82011682018060405250810190610f64919061338a565b610f805760405162461bcd60e51b81526004016104c990613644565b60008211610fa05760405162461bcd60e51b81526004016104c990613c78565b6101c75415610fb157610fb1611e43565b6000610fbc8361259a565b905082610fc982826121e9565b9250505060c9805460ff19166001179055919050565b60975460ff1690565b6101c5546101c4546101c6546000926108e39290916110a3919061109d90611018906001600160a01b0316612513565b6001600160a01b03166370a08231306040518263ffffffff1660e01b81526004016110439190613503565b60206040518083038186803b15801561105b57600080fd5b505afa15801561106f573d6000803e3d6000fd5b505050506040513d601f19601f82011682018060405250810190611093919061347b565b6101c75490611ffe565b90611ffe565b90611faa565b60006110b36132e2565b6101c6546110c9906001600160a01b03166125be565b6001600160a01b0316638c7a63ae846040518263ffffffff1660e01b81526004016110f491906135a0565b60a06040518083038186803b15801561110c57600080fd5b505afa158015611120573d6000803e3d6000fd5b505050506040513d601f19601f820116820180604052508101906111449190613407565b80516060820151604083015192935090916000916111629190611faa565b9050600061117083836125c9565b979650505050505050565b6101c6546001600160a01b031681565b600061119682611daf565b6111b25760405162461bcd60e51b81526004016104c990613b56565b6101c6546000906111cb906001600160a01b0316611ee3565b604051631f999a2d60e01b81529091506001600160a01b03821690631f999a2d906111fc90309087906004016135d7565b60206040518083038186803b15801561121457600080fd5b505afa158015611228573d6000803e3d6000fd5b505050506040513d601f19601f8201168201806040525081019061124c919061347b565b9392505050565b61126d600080516020613ebc8339815191526103d46121da565b6112895760405162461bcd60e51b81526004016104c990613caf565b610b1d612706565b60006112ba6101c3546112b46112a5612507565b6112ae8661275f565b9061277a565b906127b4565b92915050565b6101c35481565b6112cf611b06565b6112eb5760405162461bcd60e51b81526004016104c990613d87565b60975460ff161561130e5760405162461bcd60e51b81526004016104c990613b2c565b610b1d611e43565b600082815260656020526040812061124c90836127f6565b600082815260656020526040812061124c9083612802565b60975460ff16156113695760405162461bcd60e51b81526004016104c990613b2c565b60c95460ff1661138b5760405162461bcd60e51b81526004016104c990613d0d565b60c9805460ff191690556101c6546000906113ae906001600160a01b03166125be565b6040516331a9108f60e11b81529091506001600160a01b03821690636352211e906113dd9085906004016135a0565b60206040518083038186803b1580156113f557600080fd5b505afa158015611409573d6000803e3d6000fd5b505050506040513d601f19601f8201168201806040525081019061142d9190613336565b6001600160a01b0316306001600160a01b03161461145d5760405162461bcd60e51b81526004016104c9906139a1565b6114656132e2565b60405163463d31d760e11b81526001600160a01b03831690638c7a63ae906114919086906004016135a0565b60a06040518083038186803b1580156114a957600080fd5b505afa1580156114bd573d6000803e3d6000fd5b505050506040513d601f19601f820116820180604052508101906114e19190613407565b80519091506114ef81611daf565b61150b5760405162461bcd60e51b81526004016104c990613b56565b806001600160a01b031663a6a25e886040518163ffffffff1660e01b8152600401600060405180830381600087803b15801561154657600080fd5b505af115801561155a573d6000803e3d6000fd5b505050606083015160408401516000925061157491611faa565b905060008061158384846125c9565b60008981526101c960205260409020549193509150821580156115a4575080155b156115b55750505050505050611654565b60008881526101c9602052604090208290558181036115d381612817565b60008113156115f3576101c5546115ea9082611faa565b6101c55561160a565b6101c554611605906000839003611ffe565b6101c5555b856001600160a01b03167f176e189790e519c3382df7234bd391cc24005bf9cfaaa9de00103c208e10a2748260405161164391906135a0565b60405180910390a250505050505050505b5060c9805460ff19166001179055565b61166c611b06565b6116885760405162461bcd60e51b81526004016104c990613d87565b60975460ff16156116ab5760405162461bcd60e51b81526004016104c990613b2c565b6101c6546000906116c4906001600160a01b0316612513565b90506000816001600160a01b03166370a08231306040518263ffffffff1660e01b81526004016116f49190613503565b60206040518083038186803b15801561170c57600080fd5b505afa158015611720573d6000803e3d6000fd5b505050506040513d601f19601f82011682018060405250810190611744919061347b565b6101c654909150600090611760906001600160a01b031661286e565b90506000836001600160a01b031663095ea7b383856040518363ffffffff1660e01b8152600401611792929190613558565b602060405180830381600087803b1580156117ac57600080fd5b505af11580156117c0573d6000803e3d6000fd5b505050506040513d601f19601f820116820180604052508101906117e4919061338a565b9050806118035760405162461bcd60e51b81526004016104c990613d44565b61180d8284612879565b6101c654611823906001600160a01b0316612513565b6001600160a01b031663095ea7b38360006040518363ffffffff1660e01b8152600401611851929190613558565b602060405180830381600087803b15801561186b57600080fd5b505af115801561187f573d6000803e3d6000fd5b505050506040513d601f19601f820116820180604052508101906118a3919061338a565b9050806118c25760405162461bcd60e51b81526004016104c990613d44565b50505050565b600081565b6101c55481565b60975460009060ff16156118fa5760405162461bcd60e51b81526004016104c990613b2c565b60c95460ff1661191c5760405162461bcd60e51b81526004016104c990613d0d565b60c9805460ff191690556101c65461193c906001600160a01b03166121de565b6001600160a01b031663a37b92c9336040518263ffffffff1660e01b81526004016119679190613503565b60206040518083038186803b15801561197f57600080fd5b505afa158015611993573d6000803e3d6000fd5b505050506040513d601f19601f820116820180604052508101906119b7919061338a565b6119d35760405162461bcd60e51b81526004016104c990613644565b600082116119f35760405162461bcd60e51b81526004016104c990613e21565b6119fc82611291565b90506000611a0c8261109d612960565b9050336001600160a01b03167f0b05f0d1cd0819f155b8a61f60baf7767c1ee49d04aeaab701df236140eb93f98484604051611a49929190613e58565b60405180910390a26000611a5e3330866129e9565b905080611a7d5760405162461bcd60e51b81526004016104c99061372c565b6101c654611a93906001600160a01b0316612ab8565b6001600160a01b031663449a52f833856040518363ffffffff1660e01b8152600401611ac0929190613558565b600060405180830381600087803b158015611ada57600080fd5b505af1158015611aee573d6000803e3d6000fd5b50505050505060c9805460ff19166001179055919050565b60006108e3600080516020613e7c8339815191526103d46121da565b60008181526065602052604081206112ba90612ac3565b6101c96020526000908152604090205481565b600082815260656020526040902060020154611b6a906103d46121da565b610ad55760405162461bcd60e51b81526004016104c990613adc565b6101c86020526000908152604090205481565b60975460ff1615611bbc5760405162461bcd60e51b81526004016104c990613b2c565b60c95460ff16611bde5760405162461bcd60e51b81526004016104c990613d0d565b60c9805460ff191690556101c654600090611c01906001600160a01b03166125be565b9050611c0b6132e2565b60405163463d31d760e11b81526001600160a01b03831690638c7a63ae90611c379086906004016135a0565b60a06040518083038186803b158015611c4f57600080fd5b505afa158015611c63573d6000803e3d6000fd5b505050506040513d601f19601f82011682018060405250810190611c879190613407565b8051604051632a8a9f1360e21b81529192509060009081906001600160a01b0384169063aa2a7c4c90611cbe9089906004016135a0565b6040805180830381600087803b158015611cd757600080fd5b505af1158015611ceb573d6000803e3d6000fd5b505050506040513d601f19601f82011682018060405250810190611d0f9190613493565b91509150611d1e838383612ace565b505060c9805460ff1916600117905550505050565b600080516020613e7c83398151915281565b600080516020613ebc83398151915281565b6101c45481565b6101c75481565b611d6d611b06565b611d895760405162461bcd60e51b81526004016104c990613d87565b610b1d600080516020613e9c833981519152600080516020613e7c8339815191526121c5565b6101c654600090611dc8906001600160a01b03166125be565b6001600160a01b031663b5ada6d8836040518263ffffffff1660e01b8152600401611df39190613503565b60206040518083038186803b158015611e0b57600080fd5b505afa158015611e1f573d6000803e3d6000fd5b505050506040513d601f19601f820116820180604052508101906112ba919061338a565b6101c654600090611e5c906001600160a01b031661286e565b9050610e7e81826001600160a01b03166370a08231306040518263ffffffff1660e01b8152600401611e8e9190613503565b60206040518083038186803b158015611ea657600080fd5b505afa158015611eba573d6000803e3d6000fd5b505050506040513d601f19601f82011682018060405250810190611ede919061347b565b612b95565b60006112ba82612eae565b6101c654600090611f07906001600160a01b0316612513565b90506000816001600160a01b031663095ea7b385856040518363ffffffff1660e01b8152600401611f39929190613558565b602060405180830381600087803b158015611f5357600080fd5b505af1158015611f67573d6000803e3d6000fd5b505050506040513d601f19601f82011682018060405250810190611f8b919061338a565b9050806118c25760405162461bcd60e51b81526004016104c9906137e0565b600061124c83836040518060400160405280601e81526020017f536166654d6174683a207375627472616374696f6e206f766572666c6f770000815250612ec6565b60006112ba600161109d84600261277a565b60008282018381101561124c5760405162461bcd60e51b81526004016104c990613916565b303b1590565b600054610100900460ff16806120425750612042612023565b80612050575060005460ff16155b61206c5760405162461bcd60e51b81526004016104c990613bf8565b600054610100900460ff16158015610e6c576000805460ff1961ff0019909116610100171660011790558015610e7e576000805461ff001916905550565b600054610100900460ff16806120c357506120c3612023565b806120d1575060005460ff16155b6120ed5760405162461bcd60e51b81526004016104c990613bf8565b600054610100900460ff16158015612118576000805460ff1961ff0019909116610100171660011790555b6097805460ff191690558015610e7e576000805461ff001916905550565b600054610100900460ff168061214f575061214f612023565b8061215d575060005460ff16155b6121795760405162461bcd60e51b81526004016104c990613bf8565b600054610100900460ff161580156121a4576000805460ff1961ff0019909116610100171660011790555b60c9805460ff191660011790558015610e7e576000805461ff001916905550565b60009182526065602052604090912060020155565b3390565b60006112ba82612ef2565b6101c6546000908190612204906001600160a01b0316612ab8565b90506000816001600160a01b03166370a08231336040518263ffffffff1660e01b81526004016122349190613503565b60206040518083038186803b15801561224c57600080fd5b505afa158015612260573d6000803e3d6000fd5b505050506040513d601f19601f82011682018060405250810190612284919061347b565b9050808411156122a65760405162461bcd60e51b81526004016104c990613810565b84925060006122b36108c7565b6122f0576101c6546122d8906122d1906001600160a01b0316612f0a565b87906127b4565b90506122e48482611faa565b93506122f08133612f8a565b60006122fd3033876129e9565b90508061231c5760405162461bcd60e51b81526004016104c990613a2b565b60405163079cc67960e41b81526001600160a01b038516906379cc67909061234a9033908a90600401613558565b600060405180830381600087803b15801561236457600080fd5b505af1158015612378573d6000803e3d6000fd5b50505050336001600160a01b03167f2d4d49c3e017b8235c908cbaa83a2431a08f3b950712696ece2088964fd399f086846040516123b7929190613e58565b60405180910390a25050505092915050565b60008281526065602052604090206123e1908261300f565b156108c3576123ee6121da565b6001600160a01b0316816001600160a01b0316837f2f8788117e7eff1d82e926ec794901d17c78024a50270940304540a733656f0d60405160405180910390a45050565b600082815260656020526040902061244a9082613024565b156108c3576124576121da565b6001600160a01b0316816001600160a01b0316837ff6391f5c32d9c69d2a47ea670b442974b53935d1edc7fd64eb21e047a839171b60405160405180910390a45050565b60975460ff166124bd5760405162461bcd60e51b81526004016104c9906137b2565b6097805460ff191690557f5db9ee0a495bf2e6ff9c91a7834c1ba4fdd244a5e8aa4e537bd38aeae4b073aa6124f06121da565b6040516124fd9190613503565b60405180910390a1565b670de0b6b3a764000090565b60006112ba825b60006001600160a01b03821663b93f9b0a60055b6040518263ffffffff1660e01b815260040161254a91906135a0565b60206040518083038186803b15801561256257600080fd5b505afa158015612576573d6000803e3d6000fd5b505050506040513d601f19601f820116820180604052508101906112ba9190613336565b60006112ba6125b96125aa612507565b6101c3546112b490869061277a565b613039565b60006112ba82613051565b600080731246B75f02dd797c54fB4cCD00Cbf643e2b4A9036397aec1ab856001600160a01b03166347195e136040518163ffffffff1660e01b815260040160206040518083038186803b15801561261f57600080fd5b505afa158015612633573d6000803e3d6000fd5b505050506040513d601f19601f820116820180604052508101906126579190613336565b85612660613069565b6101c654612676906001600160a01b031661306d565b6101c65461268c906001600160a01b0316613085565b6040518663ffffffff1660e01b81526004016126ac9594939291906135a9565b604080518083038186803b1580156126c357600080fd5b505af41580156126d7573d6000803e3d6000fd5b505050506040513d601f19601f820116820180604052508101906126fb9190613493565b915091509250929050565b60975460ff16156127295760405162461bcd60e51b81526004016104c990613b2c565b6097805460ff191660011790557f62e78cea01bee320cd4e420270b5ea74000d11b0c9f74754ebdbfc544b05a2586124f06121da565b60006112ba61276c61309d565b6112b4612777612507565b85905b600082612789575060006112ba565b8282028284828161279657fe5b041461124c5760405162461bcd60e51b81526004016104c990613bb7565b600061124c83836040518060400160405280601a81526020017f536166654d6174683a206469766973696f6e206279207a65726f0000000000008152506130a4565b600061124c83836130db565b600061124c836001600160a01b038416613120565b600081131561284657600061282b82613138565b6101c35490915061283c9082611ffe565b6101c35550610e7e565b60006128558260001902613138565b6101c3549091506128669082611faa565b6101c3555050565b60006112ba82613150565b6101c7541561289a5760405162461bcd60e51b81526004016104c99061394d565b806128b75760405162461bcd60e51b81526004016104c990613687565b60405163140e25ad60e31b81526000906001600160a01b0384169063a0712d68906128e69085906004016135a0565b602060405180830381600087803b15801561290057600080fd5b505af1158015612914573d6000803e3d6000fd5b505050506040513d601f19601f82011682018060405250810190612938919061347b565b905080156129585760405162461bcd60e51b81526004016104c9906139f9565b506101c75550565b6101c654600090612979906001600160a01b0316612ab8565b6001600160a01b03166318160ddd6040518163ffffffff1660e01b815260040160206040518083038186803b1580156129b157600080fd5b505afa1580156129c5573d6000803e3d6000fd5b505050506040513d601f19601f820116820180604052508101906108e3919061347b565b60006001600160a01b038316612a115760405162461bcd60e51b81526004016104c9906138b1565b6101c654600090612a2a906001600160a01b0316612513565b6040516323b872dd60e01b81529091506001600160a01b038216906323b872dd90612a5d90889088908890600401613571565b602060405180830381600087803b158015612a7757600080fd5b505af1158015612a8b573d6000803e3d6000fd5b505050506040513d601f19601f82011682018060405250810190612aaf919061338a565b95945050505050565b60006112ba82613168565b60006112ba82613180565b6000612ad983613138565b6101c354909150612aea9082611ffe565b6101c3558215612b3657836001600160a01b03167fed3bc1b58411ea8e764b3ef8fa6b654877bc1e796a5a1a2373dfc8f1c0e0ea4884604051612b2d91906135a0565b60405180910390a25b81156118c257836001600160a01b03167f8295ad220549851bab232c2a7ae2e3c53a63d2294602bc85f8d8af108778a37e83604051612b7591906135a0565b60405180910390a26101c454612b8b9083611faa565b6101c45550505050565b6101c75480612bb65760405162461bcd60e51b81526004016104c9906138e8565b81612bd35760405162461bcd60e51b81526004016104c990613687565b6101c654600090612bec906001600160a01b0316612513565b90506000816001600160a01b03166370a08231306040518263ffffffff1660e01b8152600401612c1c9190613503565b60206040518083038186803b158015612c3457600080fd5b505afa158015612c48573d6000803e3d6000fd5b505050506040513d601f19601f82011682018060405250810190612c6c919061347b565b90506000856001600160a01b031663bd6d894d6040518163ffffffff1660e01b8152600401602060405180830381600087803b158015612cab57600080fd5b505af1158015612cbf573d6000803e3d6000fd5b505050506040513d601f19601f82011682018060405250810190612ce3919061347b565b90506000612cf18287613184565b90506000876001600160a01b031663db006a75886040518263ffffffff1660e01b8152600401612d2191906135a0565b602060405180830381600087803b158015612d3b57600080fd5b505af1158015612d4f573d6000803e3d6000fd5b505050506040513d601f19601f82011682018060405250810190612d73919061347b565b90506000856001600160a01b03166370a08231306040518263ffffffff1660e01b8152600401612da39190613503565b60206040518083038186803b158015612dbb57600080fd5b505afa158015612dcf573d6000803e3d6000fd5b505050506040513d601f19601f82011682018060405250810190612df3919061347b565b90508115612e135760405162461bcd60e51b81526004016104c990613aa5565b82612e1e8287611faa565b14612e3b5760405162461bcd60e51b81526004016104c990613c46565b6000612e478489611faa565b6101c654909150600090612e6e90612e67906001600160a01b03166131a2565b83906127b4565b90506000612e7c8383611faa565b9050612e8a30826000612ace565b8115612e9a57612e9a828d612f8a565b505060006101c75550505050505050505050565b60006001600160a01b03821663b93f9b0a600f61252e565b60008184841115612eea5760405162461bcd60e51b81526004016104c991906135f1565b505050900390565b60006001600160a01b03821663b93f9b0a601361252e565b60006001600160a01b03821663fc56365860045b6040518263ffffffff1660e01b8152600401612f3a91906135a0565b60206040518083038186803b158015612f5257600080fd5b505afa158015612f66573d6000803e3d6000fd5b505050506040513d601f19601f820116820180604052508101906112ba919061347b565b806001600160a01b03167ff3583f178a8d4f8888c3683f8e948faf9b6eb701c4f1fab265a6ecad1a1ddebb83604051612fc391906135a0565b60405180910390a26101c654600090612ff0903090612fea906001600160a01b03166131ba565b856129e9565b905080610d4a5760405162461bcd60e51b81526004016104c990613a62565b600061124c836001600160a01b0384166131d2565b600061124c836001600160a01b03841661321c565b60006112ba612e6761304961309d565b6112b4612507565b60006001600160a01b03821663b93f9b0a600c61252e565b4290565b60006001600160a01b03821663fc5636586005612f1e565b60006001600160a01b03821663fc5636586006612f1e565b620f424090565b600081836130c55760405162461bcd60e51b81526004016104c991906135f1565b5060008385816130d157fe5b0495945050505050565b815460009082106130fe5760405162461bcd60e51b81526004016104c9906136be565b82600001828154811061310d57fe5b9060005260206000200154905092915050565b60009081526001919091016020526040902054151590565b60006112ba613145612960565b6112b46112a5612507565b60006001600160a01b03821663b93f9b0a600a61252e565b60006001600160a01b03821663b93f9b0a600461252e565b5490565b600060066008612aaf60646112b4662386f26fc1000081888a61277a565b60006001600160a01b03821663fc5636586003612f1e565b60006001600160a01b03821663b93f9b0a600661252e565b60006131de8383613120565b613214575081546001818101845560008481526020808220909301849055845484825282860190935260409020919091556112ba565b5060006112ba565b600081815260018301602052604081205480156132d8578354600019808301919081019060009087908390811061324f57fe5b906000526020600020015490508087600001848154811061326c57fe5b60009182526020808320909101929092558281526001898101909252604090209084019055865487908061329c57fe5b600190038181906000526020600020016000905590558660010160008781526020019081526020016000206000905560019450505050506112ba565b60009150506112ba565b6040518060a0016040528060006001600160a01b03168152602001600081526020016000815260200160008152602001600081525090565b60006020828403121561332b578081fd5b813561124c81613e66565b600060208284031215613347578081fd5b815161124c81613e66565b60008060408385031215613364578081fd5b823561336f81613e66565b9150602083013561337f81613e66565b809150509250929050565b60006020828403121561339b578081fd5b8151801515811461124c578182fd5b6000602082840312156133bb578081fd5b5035919050565b600080604083850312156133d4578182fd5b82359150602083013561337f81613e66565b600080604083850312156133f8578182fd5b50508035926020909101359150565b600060a08284031215613418578081fd5b60405160a0810181811067ffffffffffffffff82111715613437578283fd5b604052825161344581613e66565b80825250602083015160208201526040830151604082015260608301516060820152608083015160808201528091505092915050565b60006020828403121561348c578081fd5b5051919050565b600080604083850312156134a5578182fd5b505080516020909101519092909150565b600080600080600060a086880312156134cd578081fd5b8535945060208601359350604086013560ff811681146134eb578182fd5b94979396509394606081013594506080013592915050565b6001600160a01b0391909116815260200190565b6001600160a01b0397881681529590961660208601526040850193909352606084019190915260ff16608083015260a082015260c081019190915260e00190565b6001600160a01b03929092168252602082015260400190565b6001600160a01b039384168152919092166020820152604081019190915260600190565b901515815260200190565b90815260200190565b6001600160a01b03959095168552602085019390935260408401919091526060830152608082015260a00190565b6001600160a01b0392831681529116602082015260400190565b6000602080835283518082850152825b8181101561361d57858101830151858201604001528201613601565b8181111561362e5783604083870101525b50601f01601f1916929092016040019392505050565b60208082526023908201527f54686973206164647265737320686173206e6f74206265656e20676f2d6c69736040820152621d195960ea1b606082015260800190565b6020808252601e908201527f416d6f756e7420746f2073776565702063616e6e6f74206265207a65726f0000604082015260600190565b60208082526022908201527f456e756d657261626c655365743a20696e646578206f7574206f6620626f756e604082015261647360f01b606082015260800190565b602080825260129082015271506f6f6c20686173206e6f20736c6963657360701b604082015260600190565b6020808252601e908201527f4661696c656420746f207472616e7366657220666f72206465706f7369740000604082015260600190565b6020808252602f908201527f416363657373436f6e74726f6c3a2073656e646572206d75737420626520616e60408201526e0818591b5a5b881d1bc819dc985b9d608a1b606082015260800190565b60208082526014908201527314185d5cd8589b194e881b9bdd081c185d5cd95960621b604082015260600190565b6020808252601690820152754661696c656420746f20617070726f7665205553444360501b604082015260600190565b60208082526037908201527f416d6f756e74207265717565737465642069732067726561746572207468616e604082015276207768617420746869732061646472657373206f776e7360481b606082015260800190565b6020808252602a908201527f4f776e657220616e6420636f6e666967206164647265737365732063616e6e6f6040820152697420626520656d70747960b01b606082015260800190565b6020808252601a908201527f43616e27742073656e6420746f207a65726f2061646472657373000000000000604082015260600190565b602080825260149082015273139bc8199d5b991cc81bdb8818dbdb5c1bdd5b9960621b604082015260600190565b6020808252601b908201527f536166654d6174683a206164646974696f6e206f766572666c6f770000000000604082015260600190565b60208082526034908201527f43616e6e6f74207377656570207768656e20776520616c72656164792068617660408201527365206120636f6d706f756e642062616c616e636560601b606082015260800190565b60208082526038908201527f4f6e6c7920746f6b656e73206f776e6564206279207468652073656e696f72206040820152773837b7b61031b0b7103132903bb934ba3a32b7103237bbb760411b606082015260800190565b60208082526018908201527714ddd9595c081d1bc818dbdb5c1bdd5b990819985a5b195960421b604082015260600190565b6020808252601f908201527f4661696c656420746f207472616e7366657220666f7220776974686472617700604082015260600190565b60208082526023908201527f52657365727665207472616e7366657220776173206e6f742073756363657373604082015262199d5b60ea1b606082015260800190565b6020808252601a908201527f53776565702066726f6d20636f6d706f756e64206661696c6564000000000000604082015260600190565b60208082526030908201527f416363657373436f6e74726f6c3a2073656e646572206d75737420626520616e60408201526f2061646d696e20746f207265766f6b6560801b606082015260800190565b60208082526010908201526f14185d5cd8589b194e881c185d5cd95960821b604082015260600190565b602080825260129082015271141bdbdb081b5d5cdd081899481d985b1a5960721b604082015260600190565b6020808252818101527f4f776e65722063616e6e6f7420626520746865207a65726f2061646472657373604082015260600190565b60208082526021908201527f536166654d6174683a206d756c7469706c69636174696f6e206f766572666c6f6040820152607760f81b606082015260800190565b6020808252602e908201527f436f6e747261637420696e7374616e63652068617320616c726561647920626560408201526d195b881a5b9a5d1a585b1a5e995960921b606082015260800190565b602080825260189082015277155b995e1c1958dd1959081c995919595b48185b5bdd5b9d60421b604082015260600190565b6020808252601c908201527f4d757374207769746864726177206d6f7265207468616e207a65726f00000000604082015260600190565b6020808252600290820152614e4160f01b604082015260600190565b60208082526022908201527f496e766573746d656e7420616d6f756e74206d75737420626520706f73697469604082015261766560f01b606082015260800190565b6020808252601f908201527f5265656e7472616e637947756172643a207265656e7472616e742063616c6c00604082015260600190565b60208082526023908201527f4661696c656420746f20617070726f7665205553444320666f7220636f6d706f6040820152621d5b9960ea1b606082015260800190565b6020808252602b908201527f4d75737420686176652061646d696e20726f6c6520746f20706572666f726d2060408201526a3a3434b99030b1ba34b7b760a91b606082015260800190565b6020808252602f908201527f416363657373436f6e74726f6c3a2063616e206f6e6c792072656e6f756e636560408201526e103937b632b9903337b91039b2b63360891b606082015260800190565b6020808252601b908201527f4d757374206465706f736974206d6f7265207468616e207a65726f0000000000604082015260600190565b918252602082015260400190565b6001600160a01b0381168114610e7e57600080fdfeb19546dff01e856fb3f010c267a7b1c60363cf8a4664e21cc89c26224620214ed624b04b6a86de88625cc0780256b85157c5a615db56d1357e0a97a30fde276765d7a28e3265b37a6474929f336521b332c1681b933f6cb9f3376673440d862aa26469706673582212207e7955cbbb2fb922f3b6f217f2394d755bc4485c0f2372976176c109a0e5ce8764736f6c634300060c0033",
  "deployedBytecode": "0x608060405234801561001057600080fd5b50600436106102485760003560e01c8063872697291161013b578063ca15c873116100b8578063e58378bb1161007c578063e58378bb1461047e578063e63ab1e914610486578063ed80c8501461048e578063f1a80e6214610496578063fb285ed01461049e57610248565b8063ca15c8731461041f578063cf5f1f6214610432578063d547741f14610445578063d78a5c6514610458578063db006a751461046b57610248565b80639e4a88e1116100ff5780639e4a88e1146103ec578063a217fddf146103f4578063a6f4487e146103fc578063b6b55f2514610404578063b6db75a01461041757610248565b806387269729146103a35780638836d902146103ab5780639010d07c146103b357806391d14854146103c6578063945ed49a146103d957610248565b80634d4e3e0c116101c9578063722eeec31161018d578063722eeec31461034d57806379502c55146103605780637e30cdff146103755780638456cb5914610388578063855cb21b1461039057610248565b80634d4e3e0c1461031a578063526d81f61461032257806358031d121461032a5780635c975abb1461033d57806371a973051461034557610248565b80632f2ff15d116102105780632f2ff15d146102c657806336568abe146102d95780633f4ba83a146102ec578063485cc955146102f45780634a970be71461030757610248565b806303f9c7931461024d578063097616a31461026257806310bc255f14610275578063248a9ca3146102935780632e1a7d4d146102b3575b600080fd5b61026061025b36600461331a565b6104a6565b005b61026061027036600461331a565b610797565b61027d6108c7565b60405161028a9190613595565b60405180910390f35b6102a66102a13660046133aa565b6108e8565b60405161028a91906135a0565b6102a66102c13660046133aa565b6108fd565b6102606102d43660046133c2565b610a59565b6102606102e73660046133c2565b610a9d565b610260610adf565b610260610302366004613352565b610b1f565b6102a66103153660046134b6565b610d4f565b6102a6610de4565b610260610df6565b6102a66103383660046133aa565b610e81565b61027d610fdf565b6102a6610fe8565b6102a661035b3660046133aa565b6110a9565b61036861117b565b60405161028a9190613503565b6102a661038336600461331a565b61118b565b610260611253565b6102a661039e3660046133aa565b611291565b6102a66112c0565b6102606112c7565b6103686103c13660046133e6565b611316565b61027d6103d43660046133c2565b61132e565b6102606103e73660046133aa565b611346565b610260611664565b6102a66118c8565b6102a66118cd565b6102a66104123660046133aa565b6118d4565b61027d611b06565b6102a661042d3660046133aa565b611b22565b6102a66104403660046133aa565b611b39565b6102606104533660046133c2565b611b4c565b6102a661046636600461331a565b611b86565b6102606104793660046133aa565b611b99565b6102a6611d33565b6102a6611d45565b6102a6611d57565b6102a6611d5e565b610260611d65565b60975460ff16156104d25760405162461bcd60e51b81526004016104c990613b2c565b60405180910390fd5b60c95460ff166104f45760405162461bcd60e51b81526004016104c990613d0d565b60c9805460ff1916905561050781611daf565b6105235760405162461bcd60e51b81526004016104c990613b56565b6101c7541561053457610534611e43565b6101c65460009061054d906001600160a01b0316611ee3565b90506000816001600160a01b031663ff8a4efe30856040518363ffffffff1660e01b815260040161057f9291906135d7565b60206040518083038186803b15801561059757600080fd5b505afa1580156105ab573d6000803e3d6000fd5b505050506040513d601f19601f820116820180604052508101906105cf919061347b565b9050600081116105f15760405162461bcd60e51b81526004016104c990613ccb565b6105fb8382611eee565b6000836001600160a01b0316637976323d6040518163ffffffff1660e01b815260040160206040518083038186803b15801561063657600080fd5b505afa15801561064a573d6000803e3d6000fd5b505050506040513d601f19601f8201168201806040525081019061066e919061347b565b905060018110156106915760405162461bcd60e51b81526004016104c990613700565b600061069e826001611faa565b905060006106ab82611fec565b604051631c57762b60e31b81529091506001600160a01b0387169063e2bbb158906106dc9084908890600401613e58565b602060405180830381600087803b1580156106f657600080fd5b505af115801561070a573d6000803e3d6000fd5b505050506040513d601f19601f8201168201806040525081019061072e919061347b565b50856001600160a01b03167f86da25fff7a4075a94de2ffed109ca6748c3af22736eaf7efc75e3988f899d6e8560405161076891906135a0565b60405180910390a26101c45461077e9085611ffe565b6101c455505060c9805460ff1916600117905550505050565b600054610100900460ff16806107b057506107b0612023565b806107be575060005460ff16155b6107da5760405162461bcd60e51b81526004016104c990613bf8565b600054610100900460ff16158015610805576000805460ff1961ff0019909116610100171660011790555b6001600160a01b03821661082b5760405162461bcd60e51b81526004016104c990613b82565b610833612029565b61083b6120aa565b610843612136565b61085b600080516020613e7c83398151915283610a93565b610873600080516020613ebc83398151915283610a93565b610899600080516020613ebc833981519152600080516020613e7c8339815191526121c5565b6108b1600080516020613e7c833981519152806121c5565b80156108c3576000805461ff00191690555b5050565b60006108e3600080516020613e9c8339815191526103d46121da565b905090565b60009081526065602052604090206002015490565b60975460009060ff16156109235760405162461bcd60e51b81526004016104c990613b2c565b60c95460ff166109455760405162461bcd60e51b81526004016104c990613d0d565b60c9805460ff191690556101c654610965906001600160a01b03166121de565b6001600160a01b031663a37b92c9336040518263ffffffff1660e01b81526004016109909190613503565b60206040518083038186803b1580156109a857600080fd5b505afa1580156109bc573d6000803e3d6000fd5b505050506040513d601f19601f820116820180604052508101906109e0919061338a565b6109fc5760405162461bcd60e51b81526004016104c990613644565b60008211610a1c5760405162461bcd60e51b81526004016104c990613c78565b6101c75415610a2d57610a2d611e43565b6000610a3883611291565b9050610a4483826121e9565b91505060c9805460ff19166001179055919050565b600082815260656020526040902060020154610a77906103d46121da565b610a935760405162461bcd60e51b81526004016104c990613763565b6108c382826123c9565b610aa56121da565b6001600160a01b0316816001600160a01b031614610ad55760405162461bcd60e51b81526004016104c990613dd2565b6108c38282612432565b610af9600080516020613ebc8339815191526103d46121da565b610b155760405162461bcd60e51b81526004016104c990613caf565b610b1d61249b565b565b600054610100900460ff1680610b385750610b38612023565b80610b46575060005460ff16155b610b625760405162461bcd60e51b81526004016104c990613bf8565b600054610100900460ff16158015610b8d576000805460ff1961ff0019909116610100171660011790555b6001600160a01b03831615801590610bad57506001600160a01b03821615155b610bc95760405162461bcd60e51b81526004016104c990613867565b610bd283610797565b6101c680546001600160a01b0319166001600160a01b038416179055610bf6612507565b6101c35560006101c48190556101c58190556101c654610c1e906001600160a01b0316612513565b9050806001600160a01b03166318160ddd6040518163ffffffff1660e01b815260040160206040518083038186803b158015610c5957600080fd5b505afa158015610c6d573d6000803e3d6000fd5b505050506040513d601f19601f82011682018060405250810190610c91919061347b565b5060405163095ea7b360e01b81526000906001600160a01b0383169063095ea7b390610cc590309060001990600401613558565b602060405180830381600087803b158015610cdf57600080fd5b505af1158015610cf3573d6000803e3d6000fd5b505050506040513d601f19601f82011682018060405250810190610d17919061338a565b905080610d365760405162461bcd60e51b81526004016104c9906137e0565b50508015610d4a576000805461ff00191690555b505050565b6101c654600090610d68906001600160a01b031661251a565b6001600160a01b031663d505accf333089898989896040518863ffffffff1660e01b8152600401610d9f9796959493929190613517565b600060405180830381600087803b158015610db957600080fd5b505af1158015610dcd573d6000803e3d6000fd5b50505050610dda866118d4565b9695505050505050565b600080516020613e9c83398151915281565b600054610100900460ff1680610e0f5750610e0f612023565b80610e1d575060005460ff16155b610e395760405162461bcd60e51b81526004016104c990613bf8565b600054610100900460ff16158015610e64576000805460ff1961ff0019909116610100171660011790555b610e6c6120aa565b8015610e7e576000805461ff00191690555b50565b60975460009060ff1615610ea75760405162461bcd60e51b81526004016104c990613b2c565b60c95460ff16610ec95760405162461bcd60e51b81526004016104c990613d0d565b60c9805460ff191690556101c654610ee9906001600160a01b03166121de565b6001600160a01b031663a37b92c9336040518263ffffffff1660e01b8152600401610f149190613503565b60206040518083038186803b158015610f2c57600080fd5b505afa158015610f40573d6000803e3d6000fd5b505050506040513d601f19601f82011682018060405250810190610f64919061338a565b610f805760405162461bcd60e51b81526004016104c990613644565b60008211610fa05760405162461bcd60e51b81526004016104c990613c78565b6101c75415610fb157610fb1611e43565b6000610fbc8361259a565b905082610fc982826121e9565b9250505060c9805460ff19166001179055919050565b60975460ff1690565b6101c5546101c4546101c6546000926108e39290916110a3919061109d90611018906001600160a01b0316612513565b6001600160a01b03166370a08231306040518263ffffffff1660e01b81526004016110439190613503565b60206040518083038186803b15801561105b57600080fd5b505afa15801561106f573d6000803e3d6000fd5b505050506040513d601f19601f82011682018060405250810190611093919061347b565b6101c75490611ffe565b90611ffe565b90611faa565b60006110b36132e2565b6101c6546110c9906001600160a01b03166125be565b6001600160a01b0316638c7a63ae846040518263ffffffff1660e01b81526004016110f491906135a0565b60a06040518083038186803b15801561110c57600080fd5b505afa158015611120573d6000803e3d6000fd5b505050506040513d601f19601f820116820180604052508101906111449190613407565b80516060820151604083015192935090916000916111629190611faa565b9050600061117083836125c9565b979650505050505050565b6101c6546001600160a01b031681565b600061119682611daf565b6111b25760405162461bcd60e51b81526004016104c990613b56565b6101c6546000906111cb906001600160a01b0316611ee3565b604051631f999a2d60e01b81529091506001600160a01b03821690631f999a2d906111fc90309087906004016135d7565b60206040518083038186803b15801561121457600080fd5b505afa158015611228573d6000803e3d6000fd5b505050506040513d601f19601f8201168201806040525081019061124c919061347b565b9392505050565b61126d600080516020613ebc8339815191526103d46121da565b6112895760405162461bcd60e51b81526004016104c990613caf565b610b1d612706565b60006112ba6101c3546112b46112a5612507565b6112ae8661275f565b9061277a565b906127b4565b92915050565b6101c35481565b6112cf611b06565b6112eb5760405162461bcd60e51b81526004016104c990613d87565b60975460ff161561130e5760405162461bcd60e51b81526004016104c990613b2c565b610b1d611e43565b600082815260656020526040812061124c90836127f6565b600082815260656020526040812061124c9083612802565b60975460ff16156113695760405162461bcd60e51b81526004016104c990613b2c565b60c95460ff1661138b5760405162461bcd60e51b81526004016104c990613d0d565b60c9805460ff191690556101c6546000906113ae906001600160a01b03166125be565b6040516331a9108f60e11b81529091506001600160a01b03821690636352211e906113dd9085906004016135a0565b60206040518083038186803b1580156113f557600080fd5b505afa158015611409573d6000803e3d6000fd5b505050506040513d601f19601f8201168201806040525081019061142d9190613336565b6001600160a01b0316306001600160a01b03161461145d5760405162461bcd60e51b81526004016104c9906139a1565b6114656132e2565b60405163463d31d760e11b81526001600160a01b03831690638c7a63ae906114919086906004016135a0565b60a06040518083038186803b1580156114a957600080fd5b505afa1580156114bd573d6000803e3d6000fd5b505050506040513d601f19601f820116820180604052508101906114e19190613407565b80519091506114ef81611daf565b61150b5760405162461bcd60e51b81526004016104c990613b56565b806001600160a01b031663a6a25e886040518163ffffffff1660e01b8152600401600060405180830381600087803b15801561154657600080fd5b505af115801561155a573d6000803e3d6000fd5b505050606083015160408401516000925061157491611faa565b905060008061158384846125c9565b60008981526101c960205260409020549193509150821580156115a4575080155b156115b55750505050505050611654565b60008881526101c9602052604090208290558181036115d381612817565b60008113156115f3576101c5546115ea9082611faa565b6101c55561160a565b6101c554611605906000839003611ffe565b6101c5555b856001600160a01b03167f176e189790e519c3382df7234bd391cc24005bf9cfaaa9de00103c208e10a2748260405161164391906135a0565b60405180910390a250505050505050505b5060c9805460ff19166001179055565b61166c611b06565b6116885760405162461bcd60e51b81526004016104c990613d87565b60975460ff16156116ab5760405162461bcd60e51b81526004016104c990613b2c565b6101c6546000906116c4906001600160a01b0316612513565b90506000816001600160a01b03166370a08231306040518263ffffffff1660e01b81526004016116f49190613503565b60206040518083038186803b15801561170c57600080fd5b505afa158015611720573d6000803e3d6000fd5b505050506040513d601f19601f82011682018060405250810190611744919061347b565b6101c654909150600090611760906001600160a01b031661286e565b90506000836001600160a01b031663095ea7b383856040518363ffffffff1660e01b8152600401611792929190613558565b602060405180830381600087803b1580156117ac57600080fd5b505af11580156117c0573d6000803e3d6000fd5b505050506040513d601f19601f820116820180604052508101906117e4919061338a565b9050806118035760405162461bcd60e51b81526004016104c990613d44565b61180d8284612879565b6101c654611823906001600160a01b0316612513565b6001600160a01b031663095ea7b38360006040518363ffffffff1660e01b8152600401611851929190613558565b602060405180830381600087803b15801561186b57600080fd5b505af115801561187f573d6000803e3d6000fd5b505050506040513d601f19601f820116820180604052508101906118a3919061338a565b9050806118c25760405162461bcd60e51b81526004016104c990613d44565b50505050565b600081565b6101c55481565b60975460009060ff16156118fa5760405162461bcd60e51b81526004016104c990613b2c565b60c95460ff1661191c5760405162461bcd60e51b81526004016104c990613d0d565b60c9805460ff191690556101c65461193c906001600160a01b03166121de565b6001600160a01b031663a37b92c9336040518263ffffffff1660e01b81526004016119679190613503565b60206040518083038186803b15801561197f57600080fd5b505afa158015611993573d6000803e3d6000fd5b505050506040513d601f19601f820116820180604052508101906119b7919061338a565b6119d35760405162461bcd60e51b81526004016104c990613644565b600082116119f35760405162461bcd60e51b81526004016104c990613e21565b6119fc82611291565b90506000611a0c8261109d612960565b9050336001600160a01b03167f0b05f0d1cd0819f155b8a61f60baf7767c1ee49d04aeaab701df236140eb93f98484604051611a49929190613e58565b60405180910390a26000611a5e3330866129e9565b905080611a7d5760405162461bcd60e51b81526004016104c99061372c565b6101c654611a93906001600160a01b0316612ab8565b6001600160a01b031663449a52f833856040518363ffffffff1660e01b8152600401611ac0929190613558565b600060405180830381600087803b158015611ada57600080fd5b505af1158015611aee573d6000803e3d6000fd5b50505050505060c9805460ff19166001179055919050565b60006108e3600080516020613e7c8339815191526103d46121da565b60008181526065602052604081206112ba90612ac3565b6101c96020526000908152604090205481565b600082815260656020526040902060020154611b6a906103d46121da565b610ad55760405162461bcd60e51b81526004016104c990613adc565b6101c86020526000908152604090205481565b60975460ff1615611bbc5760405162461bcd60e51b81526004016104c990613b2c565b60c95460ff16611bde5760405162461bcd60e51b81526004016104c990613d0d565b60c9805460ff191690556101c654600090611c01906001600160a01b03166125be565b9050611c0b6132e2565b60405163463d31d760e11b81526001600160a01b03831690638c7a63ae90611c379086906004016135a0565b60a06040518083038186803b158015611c4f57600080fd5b505afa158015611c63573d6000803e3d6000fd5b505050506040513d601f19601f82011682018060405250810190611c879190613407565b8051604051632a8a9f1360e21b81529192509060009081906001600160a01b0384169063aa2a7c4c90611cbe9089906004016135a0565b6040805180830381600087803b158015611cd757600080fd5b505af1158015611ceb573d6000803e3d6000fd5b505050506040513d601f19601f82011682018060405250810190611d0f9190613493565b91509150611d1e838383612ace565b505060c9805460ff1916600117905550505050565b600080516020613e7c83398151915281565b600080516020613ebc83398151915281565b6101c45481565b6101c75481565b611d6d611b06565b611d895760405162461bcd60e51b81526004016104c990613d87565b610b1d600080516020613e9c833981519152600080516020613e7c8339815191526121c5565b6101c654600090611dc8906001600160a01b03166125be565b6001600160a01b031663b5ada6d8836040518263ffffffff1660e01b8152600401611df39190613503565b60206040518083038186803b158015611e0b57600080fd5b505afa158015611e1f573d6000803e3d6000fd5b505050506040513d601f19601f820116820180604052508101906112ba919061338a565b6101c654600090611e5c906001600160a01b031661286e565b9050610e7e81826001600160a01b03166370a08231306040518263ffffffff1660e01b8152600401611e8e9190613503565b60206040518083038186803b158015611ea657600080fd5b505afa158015611eba573d6000803e3d6000fd5b505050506040513d601f19601f82011682018060405250810190611ede919061347b565b612b95565b60006112ba82612eae565b6101c654600090611f07906001600160a01b0316612513565b90506000816001600160a01b031663095ea7b385856040518363ffffffff1660e01b8152600401611f39929190613558565b602060405180830381600087803b158015611f5357600080fd5b505af1158015611f67573d6000803e3d6000fd5b505050506040513d601f19601f82011682018060405250810190611f8b919061338a565b9050806118c25760405162461bcd60e51b81526004016104c9906137e0565b600061124c83836040518060400160405280601e81526020017f536166654d6174683a207375627472616374696f6e206f766572666c6f770000815250612ec6565b60006112ba600161109d84600261277a565b60008282018381101561124c5760405162461bcd60e51b81526004016104c990613916565b303b1590565b600054610100900460ff16806120425750612042612023565b80612050575060005460ff16155b61206c5760405162461bcd60e51b81526004016104c990613bf8565b600054610100900460ff16158015610e6c576000805460ff1961ff0019909116610100171660011790558015610e7e576000805461ff001916905550565b600054610100900460ff16806120c357506120c3612023565b806120d1575060005460ff16155b6120ed5760405162461bcd60e51b81526004016104c990613bf8565b600054610100900460ff16158015612118576000805460ff1961ff0019909116610100171660011790555b6097805460ff191690558015610e7e576000805461ff001916905550565b600054610100900460ff168061214f575061214f612023565b8061215d575060005460ff16155b6121795760405162461bcd60e51b81526004016104c990613bf8565b600054610100900460ff161580156121a4576000805460ff1961ff0019909116610100171660011790555b60c9805460ff191660011790558015610e7e576000805461ff001916905550565b60009182526065602052604090912060020155565b3390565b60006112ba82612ef2565b6101c6546000908190612204906001600160a01b0316612ab8565b90506000816001600160a01b03166370a08231336040518263ffffffff1660e01b81526004016122349190613503565b60206040518083038186803b15801561224c57600080fd5b505afa158015612260573d6000803e3d6000fd5b505050506040513d601f19601f82011682018060405250810190612284919061347b565b9050808411156122a65760405162461bcd60e51b81526004016104c990613810565b84925060006122b36108c7565b6122f0576101c6546122d8906122d1906001600160a01b0316612f0a565b87906127b4565b90506122e48482611faa565b93506122f08133612f8a565b60006122fd3033876129e9565b90508061231c5760405162461bcd60e51b81526004016104c990613a2b565b60405163079cc67960e41b81526001600160a01b038516906379cc67909061234a9033908a90600401613558565b600060405180830381600087803b15801561236457600080fd5b505af1158015612378573d6000803e3d6000fd5b50505050336001600160a01b03167f2d4d49c3e017b8235c908cbaa83a2431a08f3b950712696ece2088964fd399f086846040516123b7929190613e58565b60405180910390a25050505092915050565b60008281526065602052604090206123e1908261300f565b156108c3576123ee6121da565b6001600160a01b0316816001600160a01b0316837f2f8788117e7eff1d82e926ec794901d17c78024a50270940304540a733656f0d60405160405180910390a45050565b600082815260656020526040902061244a9082613024565b156108c3576124576121da565b6001600160a01b0316816001600160a01b0316837ff6391f5c32d9c69d2a47ea670b442974b53935d1edc7fd64eb21e047a839171b60405160405180910390a45050565b60975460ff166124bd5760405162461bcd60e51b81526004016104c9906137b2565b6097805460ff191690557f5db9ee0a495bf2e6ff9c91a7834c1ba4fdd244a5e8aa4e537bd38aeae4b073aa6124f06121da565b6040516124fd9190613503565b60405180910390a1565b670de0b6b3a764000090565b60006112ba825b60006001600160a01b03821663b93f9b0a60055b6040518263ffffffff1660e01b815260040161254a91906135a0565b60206040518083038186803b15801561256257600080fd5b505afa158015612576573d6000803e3d6000fd5b505050506040513d601f19601f820116820180604052508101906112ba9190613336565b60006112ba6125b96125aa612507565b6101c3546112b490869061277a565b613039565b60006112ba82613051565b60008073__$1dcd660c042b25ef260537b13a3f0ede49$__6397aec1ab856001600160a01b03166347195e136040518163ffffffff1660e01b815260040160206040518083038186803b15801561261f57600080fd5b505afa158015612633573d6000803e3d6000fd5b505050506040513d601f19601f820116820180604052508101906126579190613336565b85612660613069565b6101c654612676906001600160a01b031661306d565b6101c65461268c906001600160a01b0316613085565b6040518663ffffffff1660e01b81526004016126ac9594939291906135a9565b604080518083038186803b1580156126c357600080fd5b505af41580156126d7573d6000803e3d6000fd5b505050506040513d601f19601f820116820180604052508101906126fb9190613493565b915091509250929050565b60975460ff16156127295760405162461bcd60e51b81526004016104c990613b2c565b6097805460ff191660011790557f62e78cea01bee320cd4e420270b5ea74000d11b0c9f74754ebdbfc544b05a2586124f06121da565b60006112ba61276c61309d565b6112b4612777612507565b85905b600082612789575060006112ba565b8282028284828161279657fe5b041461124c5760405162461bcd60e51b81526004016104c990613bb7565b600061124c83836040518060400160405280601a81526020017f536166654d6174683a206469766973696f6e206279207a65726f0000000000008152506130a4565b600061124c83836130db565b600061124c836001600160a01b038416613120565b600081131561284657600061282b82613138565b6101c35490915061283c9082611ffe565b6101c35550610e7e565b60006128558260001902613138565b6101c3549091506128669082611faa565b6101c3555050565b60006112ba82613150565b6101c7541561289a5760405162461bcd60e51b81526004016104c99061394d565b806128b75760405162461bcd60e51b81526004016104c990613687565b60405163140e25ad60e31b81526000906001600160a01b0384169063a0712d68906128e69085906004016135a0565b602060405180830381600087803b15801561290057600080fd5b505af1158015612914573d6000803e3d6000fd5b505050506040513d601f19601f82011682018060405250810190612938919061347b565b905080156129585760405162461bcd60e51b81526004016104c9906139f9565b506101c75550565b6101c654600090612979906001600160a01b0316612ab8565b6001600160a01b03166318160ddd6040518163ffffffff1660e01b815260040160206040518083038186803b1580156129b157600080fd5b505afa1580156129c5573d6000803e3d6000fd5b505050506040513d601f19601f820116820180604052508101906108e3919061347b565b60006001600160a01b038316612a115760405162461bcd60e51b81526004016104c9906138b1565b6101c654600090612a2a906001600160a01b0316612513565b6040516323b872dd60e01b81529091506001600160a01b038216906323b872dd90612a5d90889088908890600401613571565b602060405180830381600087803b158015612a7757600080fd5b505af1158015612a8b573d6000803e3d6000fd5b505050506040513d601f19601f82011682018060405250810190612aaf919061338a565b95945050505050565b60006112ba82613168565b60006112ba82613180565b6000612ad983613138565b6101c354909150612aea9082611ffe565b6101c3558215612b3657836001600160a01b03167fed3bc1b58411ea8e764b3ef8fa6b654877bc1e796a5a1a2373dfc8f1c0e0ea4884604051612b2d91906135a0565b60405180910390a25b81156118c257836001600160a01b03167f8295ad220549851bab232c2a7ae2e3c53a63d2294602bc85f8d8af108778a37e83604051612b7591906135a0565b60405180910390a26101c454612b8b9083611faa565b6101c45550505050565b6101c75480612bb65760405162461bcd60e51b81526004016104c9906138e8565b81612bd35760405162461bcd60e51b81526004016104c990613687565b6101c654600090612bec906001600160a01b0316612513565b90506000816001600160a01b03166370a08231306040518263ffffffff1660e01b8152600401612c1c9190613503565b60206040518083038186803b158015612c3457600080fd5b505afa158015612c48573d6000803e3d6000fd5b505050506040513d601f19601f82011682018060405250810190612c6c919061347b565b90506000856001600160a01b031663bd6d894d6040518163ffffffff1660e01b8152600401602060405180830381600087803b158015612cab57600080fd5b505af1158015612cbf573d6000803e3d6000fd5b505050506040513d601f19601f82011682018060405250810190612ce3919061347b565b90506000612cf18287613184565b90506000876001600160a01b031663db006a75886040518263ffffffff1660e01b8152600401612d2191906135a0565b602060405180830381600087803b158015612d3b57600080fd5b505af1158015612d4f573d6000803e3d6000fd5b505050506040513d601f19601f82011682018060405250810190612d73919061347b565b90506000856001600160a01b03166370a08231306040518263ffffffff1660e01b8152600401612da39190613503565b60206040518083038186803b158015612dbb57600080fd5b505afa158015612dcf573d6000803e3d6000fd5b505050506040513d601f19601f82011682018060405250810190612df3919061347b565b90508115612e135760405162461bcd60e51b81526004016104c990613aa5565b82612e1e8287611faa565b14612e3b5760405162461bcd60e51b81526004016104c990613c46565b6000612e478489611faa565b6101c654909150600090612e6e90612e67906001600160a01b03166131a2565b83906127b4565b90506000612e7c8383611faa565b9050612e8a30826000612ace565b8115612e9a57612e9a828d612f8a565b505060006101c75550505050505050505050565b60006001600160a01b03821663b93f9b0a600f61252e565b60008184841115612eea5760405162461bcd60e51b81526004016104c991906135f1565b505050900390565b60006001600160a01b03821663b93f9b0a601361252e565b60006001600160a01b03821663fc56365860045b6040518263ffffffff1660e01b8152600401612f3a91906135a0565b60206040518083038186803b158015612f5257600080fd5b505afa158015612f66573d6000803e3d6000fd5b505050506040513d601f19601f820116820180604052508101906112ba919061347b565b806001600160a01b03167ff3583f178a8d4f8888c3683f8e948faf9b6eb701c4f1fab265a6ecad1a1ddebb83604051612fc391906135a0565b60405180910390a26101c654600090612ff0903090612fea906001600160a01b03166131ba565b856129e9565b905080610d4a5760405162461bcd60e51b81526004016104c990613a62565b600061124c836001600160a01b0384166131d2565b600061124c836001600160a01b03841661321c565b60006112ba612e6761304961309d565b6112b4612507565b60006001600160a01b03821663b93f9b0a600c61252e565b4290565b60006001600160a01b03821663fc5636586005612f1e565b60006001600160a01b03821663fc5636586006612f1e565b620f424090565b600081836130c55760405162461bcd60e51b81526004016104c991906135f1565b5060008385816130d157fe5b0495945050505050565b815460009082106130fe5760405162461bcd60e51b81526004016104c9906136be565b82600001828154811061310d57fe5b9060005260206000200154905092915050565b60009081526001919091016020526040902054151590565b60006112ba613145612960565b6112b46112a5612507565b60006001600160a01b03821663b93f9b0a600a61252e565b60006001600160a01b03821663b93f9b0a600461252e565b5490565b600060066008612aaf60646112b4662386f26fc1000081888a61277a565b60006001600160a01b03821663fc5636586003612f1e565b60006001600160a01b03821663b93f9b0a600661252e565b60006131de8383613120565b613214575081546001818101845560008481526020808220909301849055845484825282860190935260409020919091556112ba565b5060006112ba565b600081815260018301602052604081205480156132d8578354600019808301919081019060009087908390811061324f57fe5b906000526020600020015490508087600001848154811061326c57fe5b60009182526020808320909101929092558281526001898101909252604090209084019055865487908061329c57fe5b600190038181906000526020600020016000905590558660010160008781526020019081526020016000206000905560019450505050506112ba565b60009150506112ba565b6040518060a0016040528060006001600160a01b03168152602001600081526020016000815260200160008152602001600081525090565b60006020828403121561332b578081fd5b813561124c81613e66565b600060208284031215613347578081fd5b815161124c81613e66565b60008060408385031215613364578081fd5b823561336f81613e66565b9150602083013561337f81613e66565b809150509250929050565b60006020828403121561339b578081fd5b8151801515811461124c578182fd5b6000602082840312156133bb578081fd5b5035919050565b600080604083850312156133d4578182fd5b82359150602083013561337f81613e66565b600080604083850312156133f8578182fd5b50508035926020909101359150565b600060a08284031215613418578081fd5b60405160a0810181811067ffffffffffffffff82111715613437578283fd5b604052825161344581613e66565b80825250602083015160208201526040830151604082015260608301516060820152608083015160808201528091505092915050565b60006020828403121561348c578081fd5b5051919050565b600080604083850312156134a5578182fd5b505080516020909101519092909150565b600080600080600060a086880312156134cd578081fd5b8535945060208601359350604086013560ff811681146134eb578182fd5b94979396509394606081013594506080013592915050565b6001600160a01b0391909116815260200190565b6001600160a01b0397881681529590961660208601526040850193909352606084019190915260ff16608083015260a082015260c081019190915260e00190565b6001600160a01b03929092168252602082015260400190565b6001600160a01b039384168152919092166020820152604081019190915260600190565b901515815260200190565b90815260200190565b6001600160a01b03959095168552602085019390935260408401919091526060830152608082015260a00190565b6001600160a01b0392831681529116602082015260400190565b6000602080835283518082850152825b8181101561361d57858101830151858201604001528201613601565b8181111561362e5783604083870101525b50601f01601f1916929092016040019392505050565b60208082526023908201527f54686973206164647265737320686173206e6f74206265656e20676f2d6c69736040820152621d195960ea1b606082015260800190565b6020808252601e908201527f416d6f756e7420746f2073776565702063616e6e6f74206265207a65726f0000604082015260600190565b60208082526022908201527f456e756d657261626c655365743a20696e646578206f7574206f6620626f756e604082015261647360f01b606082015260800190565b602080825260129082015271506f6f6c20686173206e6f20736c6963657360701b604082015260600190565b6020808252601e908201527f4661696c656420746f207472616e7366657220666f72206465706f7369740000604082015260600190565b6020808252602f908201527f416363657373436f6e74726f6c3a2073656e646572206d75737420626520616e60408201526e0818591b5a5b881d1bc819dc985b9d608a1b606082015260800190565b60208082526014908201527314185d5cd8589b194e881b9bdd081c185d5cd95960621b604082015260600190565b6020808252601690820152754661696c656420746f20617070726f7665205553444360501b604082015260600190565b60208082526037908201527f416d6f756e74207265717565737465642069732067726561746572207468616e604082015276207768617420746869732061646472657373206f776e7360481b606082015260800190565b6020808252602a908201527f4f776e657220616e6420636f6e666967206164647265737365732063616e6e6f6040820152697420626520656d70747960b01b606082015260800190565b6020808252601a908201527f43616e27742073656e6420746f207a65726f2061646472657373000000000000604082015260600190565b602080825260149082015273139bc8199d5b991cc81bdb8818dbdb5c1bdd5b9960621b604082015260600190565b6020808252601b908201527f536166654d6174683a206164646974696f6e206f766572666c6f770000000000604082015260600190565b60208082526034908201527f43616e6e6f74207377656570207768656e20776520616c72656164792068617660408201527365206120636f6d706f756e642062616c616e636560601b606082015260800190565b60208082526038908201527f4f6e6c7920746f6b656e73206f776e6564206279207468652073656e696f72206040820152773837b7b61031b0b7103132903bb934ba3a32b7103237bbb760411b606082015260800190565b60208082526018908201527714ddd9595c081d1bc818dbdb5c1bdd5b990819985a5b195960421b604082015260600190565b6020808252601f908201527f4661696c656420746f207472616e7366657220666f7220776974686472617700604082015260600190565b60208082526023908201527f52657365727665207472616e7366657220776173206e6f742073756363657373604082015262199d5b60ea1b606082015260800190565b6020808252601a908201527f53776565702066726f6d20636f6d706f756e64206661696c6564000000000000604082015260600190565b60208082526030908201527f416363657373436f6e74726f6c3a2073656e646572206d75737420626520616e60408201526f2061646d696e20746f207265766f6b6560801b606082015260800190565b60208082526010908201526f14185d5cd8589b194e881c185d5cd95960821b604082015260600190565b602080825260129082015271141bdbdb081b5d5cdd081899481d985b1a5960721b604082015260600190565b6020808252818101527f4f776e65722063616e6e6f7420626520746865207a65726f2061646472657373604082015260600190565b60208082526021908201527f536166654d6174683a206d756c7469706c69636174696f6e206f766572666c6f6040820152607760f81b606082015260800190565b6020808252602e908201527f436f6e747261637420696e7374616e63652068617320616c726561647920626560408201526d195b881a5b9a5d1a585b1a5e995960921b606082015260800190565b602080825260189082015277155b995e1c1958dd1959081c995919595b48185b5bdd5b9d60421b604082015260600190565b6020808252601c908201527f4d757374207769746864726177206d6f7265207468616e207a65726f00000000604082015260600190565b6020808252600290820152614e4160f01b604082015260600190565b60208082526022908201527f496e766573746d656e7420616d6f756e74206d75737420626520706f73697469604082015261766560f01b606082015260800190565b6020808252601f908201527f5265656e7472616e637947756172643a207265656e7472616e742063616c6c00604082015260600190565b60208082526023908201527f4661696c656420746f20617070726f7665205553444320666f7220636f6d706f6040820152621d5b9960ea1b606082015260800190565b6020808252602b908201527f4d75737420686176652061646d696e20726f6c6520746f20706572666f726d2060408201526a3a3434b99030b1ba34b7b760a91b606082015260800190565b6020808252602f908201527f416363657373436f6e74726f6c3a2063616e206f6e6c792072656e6f756e636560408201526e103937b632b9903337b91039b2b63360891b606082015260800190565b6020808252601b908201527f4d757374206465706f736974206d6f7265207468616e207a65726f0000000000604082015260600190565b918252602082015260400190565b6001600160a01b0381168114610e7e57600080fdfeb19546dff01e856fb3f010c267a7b1c60363cf8a4664e21cc89c26224620214ed624b04b6a86de88625cc0780256b85157c5a615db56d1357e0a97a30fde276765d7a28e3265b37a6474929f336521b332c1681b933f6cb9f3376673440d862aa26469706673582212207e7955cbbb2fb922f3b6f217f2394d755bc4485c0f2372976176c109a0e5ce8764736f6c634300060c0033",
  "libraries": {
    "Accountant": "0x1246B75f02dd797c54fB4cCD00Cbf643e2b4A903"
  },
  "devdoc": {
    "author": "Goldfinch",
    "kind": "dev",
    "methods": {
      "calculateWritedown(uint256)": {
        "params": {
          "tokenId": "The token reprsenting the position"
        },
        "returns": {
          "_0": "The amount in dollars the principal should be written down by"
        }
      },
      "deposit(uint256)": {
        "params": {
          "amount": "The amount of USDC to deposit"
        }
      },
      "depositWithPermit(uint256,uint256,uint8,bytes32,bytes32)": {
        "params": {
          "amount": "The amount of USDC to deposit",
          "r": "secp256k1 signature component",
          "s": "secp256k1 signature component",
          "v": "secp256k1 signature component"
        }
      },
      "getNumShares(uint256)": {
        "params": {
          "amount": "USDC amount to convert to FIDU"
        }
      },
      "getRoleAdmin(bytes32)": {
        "details": "Returns the admin role that controls `role`. See {grantRole} and {revokeRole}. To change a role's admin, use {_setRoleAdmin}."
      },
      "getRoleMember(bytes32,uint256)": {
        "details": "Returns one of the accounts that have `role`. `index` must be a value between 0 and {getRoleMemberCount}, non-inclusive. Role bearers are not sorted in any particular way, and their ordering may change at any point. WARNING: When using {getRoleMember} and {getRoleMemberCount}, make sure you perform all queries on the same block. See the following https://forum.openzeppelin.com/t/iterating-over-elements-on-enumerableset-in-openzeppelin-contracts/2296[forum post] for more information."
      },
      "getRoleMemberCount(bytes32)": {
        "details": "Returns the number of accounts that have `role`. Can be used together with {getRoleMember} to enumerate all bearers of a role."
      },
      "grantRole(bytes32,address)": {
        "details": "Grants `role` to `account`. If `account` had not been already granted `role`, emits a {RoleGranted} event. Requirements: - the caller must have ``role``'s admin role."
      },
      "hasRole(bytes32,address)": {
        "details": "Returns `true` if `account` has been granted `role`."
      },
      "invest(address)": {
        "params": {
          "pool": "An ITranchedPool whose senior tranche should be considered for investment"
        }
      },
      "pause()": {
        "details": "Pauses all functions guarded by Pause See {Pausable-_pause}. Requirements: - the caller must have the PAUSER_ROLE."
      },
      "paused()": {
        "details": "Returns true if the contract is paused, and false otherwise."
      },
      "redeem(uint256)": {
        "params": {
          "tokenId": "the ID of an IPoolTokens token to be redeemed"
        }
      },
      "renounceRole(bytes32,address)": {
        "details": "Revokes `role` from the calling account. Roles are often managed via {grantRole} and {revokeRole}: this function's purpose is to provide a mechanism for accounts to lose their privileges if they are compromised (such as when a trusted device is misplaced). If the calling account had been granted `role`, emits a {RoleRevoked} event. Requirements: - the caller must be `account`."
      },
      "revokeRole(bytes32,address)": {
        "details": "Revokes `role` from `account`. If `account` had been granted `role`, emits a {RoleRevoked} event. Requirements: - the caller must have ``role``'s admin role."
      },
      "unpause()": {
        "details": "Unpauses the contract See {Pausable-_unpause}. Requirements: - the caller must have the Pauser role"
      },
      "withdraw(uint256)": {
        "params": {
          "usdcAmount": "The amount of USDC to withdraw"
        }
      },
      "withdrawInFidu(uint256)": {
        "params": {
          "fiduAmount": "The amount of USDC to withdraw in terms of FIDU shares"
        }
      },
      "writedown(uint256)": {
        "params": {
          "tokenId": "the ID of an IPoolTokens token to be considered for writedown"
        }
      }
    },
    "stateVariables": {
      "writedowns": {
        "details": "DEPRECATED, DO NOT USE."
      },
      "writedownsByPoolToken": {
        "details": "Writedowns by PoolToken id. This is used to ensure writedowns are incremental.   Example: At t1, a pool is late and should be written down by 10%. At t2, the pool   is even later, and should be written down by 25%. This variable helps ensure that   if writedowns occur at both t1 and t2, t2's writedown is only by the delta of 15%,   rather than double-counting the writedown percent from t1."
      }
    },
    "title": "Goldfinch's SeniorPool contract",
    "version": 1
  },
  "userdoc": {
    "kind": "user",
    "methods": {
      "assets()": {
        "notice": "Returns the net assests controlled by and owed to the pool"
      },
      "calculateWritedown(uint256)": {
        "notice": "Calculates the writedown amount for a particular pool position"
      },
      "deposit(uint256)": {
        "notice": "Deposits `amount` USDC from msg.sender into the SeniorPool, and grants you the  equivalent value of FIDU tokens"
      },
      "depositWithPermit(uint256,uint256,uint8,bytes32,bytes32)": {
        "notice": "Identical to deposit, except it allows for a passed up signature to permit  the Senior Pool to move funds on behalf of the user, all within one transaction."
      },
      "getNumShares(uint256)": {
        "notice": "Converts and USDC amount to FIDU amount"
      },
      "invest(address)": {
        "notice": "Invest in an ITranchedPool's senior tranche using the senior pool's strategy"
      },
      "redeem(uint256)": {
        "notice": "Redeem interest and/or principal from an ITranchedPool investment"
      },
      "sweepFromCompound()": {
        "notice": "Moves any USDC from Compound back to the SeniorPool, and recognizes interest earned. This is done automatically on drawdown or withdraw, but can be called manually if necessary. Requirements:  - The caller must be an admin."
      },
      "sweepToCompound()": {
        "notice": "Moves any USDC still in the SeniorPool to Compound, and tracks the amount internally. This is done to earn interest on latent funds until we have other borrowers who can use it. Requirements:  - The caller must be an admin."
      },
      "withdraw(uint256)": {
        "notice": "Withdraws USDC from the SeniorPool to msg.sender, and burns the equivalent value of FIDU tokens"
      },
      "withdrawInFidu(uint256)": {
        "notice": "Withdraws USDC (denominated in FIDU terms) from the SeniorPool to msg.sender"
      },
      "writedown(uint256)": {
        "notice": "Write down an ITranchedPool investment. This will adjust the senior pool's share price  down if we're considering the investment a loss, or up if the borrower has subsequently  made repayments that restore confidence that the full loan will be repaid."
      }
    },
    "notice": "Main entry point for senior LPs (a.k.a. capital providers)  Automatically invests across borrower pools using an adjustable strategy.",
    "version": 1
  },
  "storageLayout": {
    "storage": [
      {
        "astId": 50,
        "contract": "contracts/protocol/core/SeniorPool.sol:SeniorPool",
        "label": "initialized",
        "offset": 0,
        "slot": "0",
        "type": "t_bool"
      },
      {
        "astId": 53,
        "contract": "contracts/protocol/core/SeniorPool.sol:SeniorPool",
        "label": "initializing",
        "offset": 1,
        "slot": "0",
        "type": "t_bool"
      },
      {
        "astId": 118,
        "contract": "contracts/protocol/core/SeniorPool.sol:SeniorPool",
        "label": "______gap",
        "offset": 0,
        "slot": "1",
        "type": "t_array(t_uint256)50_storage"
      },
      {
        "astId": 43,
        "contract": "contracts/protocol/core/SeniorPool.sol:SeniorPool",
        "label": "__gap",
        "offset": 0,
        "slot": "51",
        "type": "t_array(t_uint256)50_storage"
      },
      {
        "astId": 163,
        "contract": "contracts/protocol/core/SeniorPool.sol:SeniorPool",
        "label": "_roles",
        "offset": 0,
        "slot": "101",
        "type": "t_mapping(t_bytes32,t_struct(RoleData)159_storage)"
      },
      {
        "astId": 408,
        "contract": "contracts/protocol/core/SeniorPool.sol:SeniorPool",
        "label": "__gap",
        "offset": 0,
        "slot": "102",
        "type": "t_array(t_uint256)49_storage"
      },
      {
        "astId": 3207,
        "contract": "contracts/protocol/core/SeniorPool.sol:SeniorPool",
        "label": "_paused",
        "offset": 0,
        "slot": "151",
        "type": "t_bool"
      },
      {
        "astId": 3296,
        "contract": "contracts/protocol/core/SeniorPool.sol:SeniorPool",
        "label": "__gap",
        "offset": 0,
        "slot": "152",
        "type": "t_array(t_uint256)49_storage"
      },
      {
        "astId": 3305,
        "contract": "contracts/protocol/core/SeniorPool.sol:SeniorPool",
        "label": "_notEntered",
        "offset": 0,
        "slot": "201",
        "type": "t_bool"
      },
      {
        "astId": 3346,
        "contract": "contracts/protocol/core/SeniorPool.sol:SeniorPool",
        "label": "__gap",
        "offset": 0,
        "slot": "202",
        "type": "t_array(t_uint256)49_storage"
      },
      {
        "astId": 12084,
        "contract": "contracts/protocol/core/SeniorPool.sol:SeniorPool",
        "label": "__gap1",
        "offset": 0,
        "slot": "251",
        "type": "t_array(t_uint256)50_storage"
      },
      {
        "astId": 12088,
        "contract": "contracts/protocol/core/SeniorPool.sol:SeniorPool",
        "label": "__gap2",
        "offset": 0,
        "slot": "301",
        "type": "t_array(t_uint256)50_storage"
      },
      {
        "astId": 12092,
        "contract": "contracts/protocol/core/SeniorPool.sol:SeniorPool",
        "label": "__gap3",
        "offset": 0,
        "slot": "351",
        "type": "t_array(t_uint256)50_storage"
      },
      {
        "astId": 12096,
        "contract": "contracts/protocol/core/SeniorPool.sol:SeniorPool",
        "label": "__gap4",
        "offset": 0,
        "slot": "401",
        "type": "t_array(t_uint256)50_storage"
      },
      {
        "astId": 10195,
        "contract": "contracts/protocol/core/SeniorPool.sol:SeniorPool",
        "label": "sharePrice",
        "offset": 0,
        "slot": "451",
        "type": "t_uint256"
      },
      {
        "astId": 10197,
        "contract": "contracts/protocol/core/SeniorPool.sol:SeniorPool",
        "label": "totalLoansOutstanding",
        "offset": 0,
        "slot": "452",
        "type": "t_uint256"
      },
      {
        "astId": 10199,
        "contract": "contracts/protocol/core/SeniorPool.sol:SeniorPool",
        "label": "totalWritedowns",
        "offset": 0,
        "slot": "453",
        "type": "t_uint256"
      },
      {
        "astId": 17428,
        "contract": "contracts/protocol/core/SeniorPool.sol:SeniorPool",
        "label": "config",
        "offset": 0,
        "slot": "454",
        "type": "t_contract(GoldfinchConfig)15941"
      },
      {
        "astId": 17441,
        "contract": "contracts/protocol/core/SeniorPool.sol:SeniorPool",
        "label": "compoundBalance",
        "offset": 0,
        "slot": "455",
        "type": "t_uint256"
      },
      {
        "astId": 17446,
        "contract": "contracts/protocol/core/SeniorPool.sol:SeniorPool",
        "label": "writedowns",
        "offset": 0,
        "slot": "456",
        "type": "t_mapping(t_contract(ITranchedPool)10566,t_uint256)"
      },
      {
        "astId": 17451,
        "contract": "contracts/protocol/core/SeniorPool.sol:SeniorPool",
        "label": "writedownsByPoolToken",
        "offset": 0,
        "slot": "457",
        "type": "t_mapping(t_uint256,t_uint256)"
      }
    ],
    "types": {
      "t_array(t_bytes32)dyn_storage": {
        "base": "t_bytes32",
        "encoding": "dynamic_array",
        "label": "bytes32[]",
        "numberOfBytes": "32"
      },
      "t_array(t_uint256)49_storage": {
        "base": "t_uint256",
        "encoding": "inplace",
        "label": "uint256[49]",
        "numberOfBytes": "1568"
      },
      "t_array(t_uint256)50_storage": {
        "base": "t_uint256",
        "encoding": "inplace",
        "label": "uint256[50]",
        "numberOfBytes": "1600"
      },
      "t_bool": {
        "encoding": "inplace",
        "label": "bool",
        "numberOfBytes": "1"
      },
      "t_bytes32": {
        "encoding": "inplace",
        "label": "bytes32",
        "numberOfBytes": "32"
      },
      "t_contract(GoldfinchConfig)15941": {
        "encoding": "inplace",
        "label": "contract GoldfinchConfig",
        "numberOfBytes": "20"
      },
      "t_contract(ITranchedPool)10566": {
        "encoding": "inplace",
        "label": "contract ITranchedPool",
        "numberOfBytes": "20"
      },
      "t_mapping(t_bytes32,t_struct(RoleData)159_storage)": {
        "encoding": "mapping",
        "key": "t_bytes32",
        "label": "mapping(bytes32 => struct AccessControlUpgradeSafe.RoleData)",
        "numberOfBytes": "32",
        "value": "t_struct(RoleData)159_storage"
      },
      "t_mapping(t_bytes32,t_uint256)": {
        "encoding": "mapping",
        "key": "t_bytes32",
        "label": "mapping(bytes32 => uint256)",
        "numberOfBytes": "32",
        "value": "t_uint256"
      },
      "t_mapping(t_contract(ITranchedPool)10566,t_uint256)": {
        "encoding": "mapping",
        "key": "t_contract(ITranchedPool)10566",
        "label": "mapping(contract ITranchedPool => uint256)",
        "numberOfBytes": "32",
        "value": "t_uint256"
      },
      "t_mapping(t_uint256,t_uint256)": {
        "encoding": "mapping",
        "key": "t_uint256",
        "label": "mapping(uint256 => uint256)",
        "numberOfBytes": "32",
        "value": "t_uint256"
      },
      "t_struct(AddressSet)2982_storage": {
        "encoding": "inplace",
        "label": "struct EnumerableSet.AddressSet",
        "members": [
          {
            "astId": 2981,
            "contract": "contracts/protocol/core/SeniorPool.sol:SeniorPool",
            "label": "_inner",
            "offset": 0,
            "slot": "0",
            "type": "t_struct(Set)2802_storage"
          }
        ],
        "numberOfBytes": "64"
      },
      "t_struct(RoleData)159_storage": {
        "encoding": "inplace",
        "label": "struct AccessControlUpgradeSafe.RoleData",
        "members": [
          {
            "astId": 156,
            "contract": "contracts/protocol/core/SeniorPool.sol:SeniorPool",
            "label": "members",
            "offset": 0,
            "slot": "0",
            "type": "t_struct(AddressSet)2982_storage"
          },
          {
            "astId": 158,
            "contract": "contracts/protocol/core/SeniorPool.sol:SeniorPool",
            "label": "adminRole",
            "offset": 0,
            "slot": "2",
            "type": "t_bytes32"
          }
        ],
        "numberOfBytes": "96"
      },
      "t_struct(Set)2802_storage": {
        "encoding": "inplace",
        "label": "struct EnumerableSet.Set",
        "members": [
          {
            "astId": 2797,
            "contract": "contracts/protocol/core/SeniorPool.sol:SeniorPool",
            "label": "_values",
            "offset": 0,
            "slot": "0",
            "type": "t_array(t_bytes32)dyn_storage"
          },
          {
            "astId": 2801,
            "contract": "contracts/protocol/core/SeniorPool.sol:SeniorPool",
            "label": "_indexes",
            "offset": 0,
            "slot": "1",
            "type": "t_mapping(t_bytes32,t_uint256)"
          }
        ],
        "numberOfBytes": "64"
      },
      "t_uint256": {
        "encoding": "inplace",
        "label": "uint256",
        "numberOfBytes": "32"
      }
    }
  }
}