{
  "address": "0x5B06A5aA7fea5EE270E495e1418E6FdDa29766c5",
  "abi": [
    {
      "anonymous": false,
      "inputs": [
        {
          "indexed": true,
          "internalType": "address",
          "name": "owner",
          "type": "address"
        },
        {
          "indexed": true,
          "internalType": "address",
          "name": "approved",
          "type": "address"
        },
        {
          "indexed": true,
          "internalType": "uint256",
          "name": "tokenId",
          "type": "uint256"
        }
      ],
      "name": "Approval",
      "type": "event"
    },
    {
      "anonymous": false,
      "inputs": [
        {
          "indexed": true,
          "internalType": "address",
          "name": "owner",
          "type": "address"
        },
        {
          "indexed": true,
          "internalType": "address",
          "name": "operator",
          "type": "address"
        },
        {
          "indexed": false,
          "internalType": "bool",
          "name": "approved",
          "type": "bool"
        }
      ],
      "name": "ApprovalForAll",
      "type": "event"
    },
    {
      "anonymous": false,
      "inputs": [
        {
          "indexed": true,
          "internalType": "address",
          "name": "user",
          "type": "address"
        },
        {
          "indexed": false,
          "internalType": "uint256",
          "name": "depositedAmount",
          "type": "uint256"
        },
        {
          "indexed": true,
          "internalType": "uint256",
          "name": "tokenId",
          "type": "uint256"
        },
        {
          "indexed": false,
          "internalType": "uint256",
          "name": "amount",
          "type": "uint256"
        }
      ],
      "name": "DepositedAndStaked",
      "type": "event"
    },
    {
      "anonymous": false,
      "inputs": [
        {
          "indexed": true,
          "internalType": "address",
          "name": "user",
          "type": "address"
        },
        {
          "indexed": false,
          "internalType": "uint256",
          "name": "fiduAmount",
          "type": "uint256"
        },
        {
          "indexed": false,
          "internalType": "uint256",
          "name": "usdcAmount",
          "type": "uint256"
        },
        {
          "indexed": false,
          "internalType": "uint256",
          "name": "tokensReceived",
          "type": "uint256"
        }
      ],
      "name": "DepositedToCurve",
      "type": "event"
    },
    {
      "anonymous": false,
      "inputs": [
        {
          "indexed": true,
          "internalType": "address",
          "name": "user",
          "type": "address"
        },
        {
          "indexed": false,
          "internalType": "uint256",
          "name": "fiduAmount",
          "type": "uint256"
        },
        {
          "indexed": false,
          "internalType": "uint256",
          "name": "usdcAmount",
          "type": "uint256"
        },
        {
          "indexed": true,
          "internalType": "uint256",
          "name": "tokenId",
          "type": "uint256"
        },
        {
          "indexed": false,
          "internalType": "uint256",
          "name": "amount",
          "type": "uint256"
        }
      ],
      "name": "DepositedToCurveAndStaked",
      "type": "event"
    },
    {
      "anonymous": false,
      "inputs": [
        {
          "indexed": true,
          "internalType": "address",
          "name": "who",
          "type": "address"
        },
        {
          "indexed": false,
          "internalType": "enum StakingRewards.StakedPositionType",
          "name": "positionType",
          "type": "uint8"
        },
        {
          "indexed": false,
          "internalType": "uint256",
          "name": "multiplier",
          "type": "uint256"
        }
      ],
      "name": "EffectiveMultiplierUpdated",
      "type": "event"
    },
    {
      "anonymous": false,
      "inputs": [
        {
          "indexed": true,
          "internalType": "address",
          "name": "who",
          "type": "address"
        },
        {
          "indexed": false,
          "internalType": "address",
          "name": "configAddress",
          "type": "address"
        }
      ],
      "name": "GoldfinchConfigUpdated",
      "type": "event"
    },
    {
      "anonymous": false,
      "inputs": [
        {
          "indexed": true,
          "internalType": "address",
          "name": "who",
          "type": "address"
        },
        {
          "indexed": false,
          "internalType": "uint256",
          "name": "maxRateAtPercent",
          "type": "uint256"
        }
      ],
      "name": "MaxRateAtPercentUpdated",
      "type": "event"
    },
    {
      "anonymous": false,
      "inputs": [
        {
          "indexed": true,
          "internalType": "address",
          "name": "who",
          "type": "address"
        },
        {
          "indexed": false,
          "internalType": "uint256",
          "name": "maxRate",
          "type": "uint256"
        }
      ],
      "name": "MaxRateUpdated",
      "type": "event"
    },
    {
      "anonymous": false,
      "inputs": [
        {
          "indexed": true,
          "internalType": "address",
          "name": "who",
          "type": "address"
        },
        {
          "indexed": false,
          "internalType": "uint256",
          "name": "minRateAtPercent",
          "type": "uint256"
        }
      ],
      "name": "MinRateAtPercentUpdated",
      "type": "event"
    },
    {
      "anonymous": false,
      "inputs": [
        {
          "indexed": true,
          "internalType": "address",
          "name": "who",
          "type": "address"
        },
        {
          "indexed": false,
          "internalType": "uint256",
          "name": "minRate",
          "type": "uint256"
        }
      ],
      "name": "MinRateUpdated",
      "type": "event"
    },
    {
      "anonymous": false,
      "inputs": [
        {
          "indexed": false,
          "internalType": "address",
          "name": "account",
          "type": "address"
        }
      ],
      "name": "Paused",
      "type": "event"
    },
    {
      "anonymous": false,
      "inputs": [
        {
          "indexed": false,
          "internalType": "uint256",
          "name": "reward",
          "type": "uint256"
        }
      ],
      "name": "RewardAdded",
      "type": "event"
    },
    {
      "anonymous": false,
      "inputs": [
        {
          "indexed": true,
          "internalType": "address",
          "name": "user",
          "type": "address"
        },
        {
          "indexed": true,
          "internalType": "uint256",
          "name": "tokenId",
          "type": "uint256"
        },
        {
          "indexed": false,
          "internalType": "uint256",
          "name": "reward",
          "type": "uint256"
        }
      ],
      "name": "RewardPaid",
      "type": "event"
    },
    {
      "anonymous": false,
      "inputs": [
        {
          "indexed": true,
          "internalType": "address",
          "name": "who",
          "type": "address"
        },
        {
          "indexed": false,
          "internalType": "uint256",
          "name": "targetCapacity",
          "type": "uint256"
        },
        {
          "indexed": false,
          "internalType": "uint256",
          "name": "minRate",
          "type": "uint256"
        },
        {
          "indexed": false,
          "internalType": "uint256",
          "name": "maxRate",
          "type": "uint256"
        },
        {
          "indexed": false,
          "internalType": "uint256",
          "name": "minRateAtPercent",
          "type": "uint256"
        },
        {
          "indexed": false,
          "internalType": "uint256",
          "name": "maxRateAtPercent",
          "type": "uint256"
        }
      ],
      "name": "RewardsParametersUpdated",
      "type": "event"
    },
    {
      "anonymous": false,
      "inputs": [
        {
          "indexed": true,
          "internalType": "bytes32",
          "name": "role",
          "type": "bytes32"
        },
        {
          "indexed": true,
          "internalType": "address",
          "name": "account",
          "type": "address"
        },
        {
          "indexed": true,
          "internalType": "address",
          "name": "sender",
          "type": "address"
        }
      ],
      "name": "RoleGranted",
      "type": "event"
    },
    {
      "anonymous": false,
      "inputs": [
        {
          "indexed": true,
          "internalType": "bytes32",
          "name": "role",
          "type": "bytes32"
        },
        {
          "indexed": true,
          "internalType": "address",
          "name": "account",
          "type": "address"
        },
        {
          "indexed": true,
          "internalType": "address",
          "name": "sender",
          "type": "address"
        }
      ],
      "name": "RoleRevoked",
      "type": "event"
    },
    {
      "anonymous": false,
      "inputs": [
        {
          "indexed": true,
          "internalType": "address",
          "name": "user",
          "type": "address"
        },
        {
          "indexed": true,
          "internalType": "uint256",
          "name": "tokenId",
          "type": "uint256"
        },
        {
          "indexed": false,
          "internalType": "uint256",
          "name": "amount",
          "type": "uint256"
        },
        {
          "indexed": false,
          "internalType": "enum StakingRewards.StakedPositionType",
          "name": "positionType",
          "type": "uint8"
        },
        {
          "indexed": false,
          "internalType": "uint256",
          "name": "baseTokenExchangeRate",
          "type": "uint256"
        }
      ],
      "name": "Staked",
      "type": "event"
    },
    {
      "anonymous": false,
      "inputs": [
        {
          "indexed": true,
          "internalType": "address",
          "name": "who",
          "type": "address"
        },
        {
          "indexed": false,
          "internalType": "uint256",
          "name": "targetCapacity",
          "type": "uint256"
        }
      ],
      "name": "TargetCapacityUpdated",
      "type": "event"
    },
    {
      "anonymous": false,
      "inputs": [
        {
          "indexed": true,
          "internalType": "address",
          "name": "from",
          "type": "address"
        },
        {
          "indexed": true,
          "internalType": "address",
          "name": "to",
          "type": "address"
        },
        {
          "indexed": true,
          "internalType": "uint256",
          "name": "tokenId",
          "type": "uint256"
        }
      ],
      "name": "Transfer",
      "type": "event"
    },
    {
      "anonymous": false,
      "inputs": [
        {
          "indexed": false,
          "internalType": "address",
          "name": "account",
          "type": "address"
        }
      ],
      "name": "Unpaused",
      "type": "event"
    },
    {
      "anonymous": false,
      "inputs": [
        {
          "indexed": true,
          "internalType": "address",
          "name": "user",
          "type": "address"
        },
        {
          "indexed": true,
          "internalType": "uint256",
          "name": "tokenId",
          "type": "uint256"
        },
        {
          "indexed": false,
          "internalType": "uint256",
          "name": "amount",
          "type": "uint256"
        },
        {
          "indexed": false,
          "internalType": "enum StakingRewards.StakedPositionType",
          "name": "positionType",
          "type": "uint8"
        }
      ],
      "name": "Unstaked",
      "type": "event"
    },
    {
      "anonymous": false,
      "inputs": [
        {
          "indexed": true,
          "internalType": "address",
          "name": "user",
          "type": "address"
        },
        {
          "indexed": false,
          "internalType": "uint256",
          "name": "usdcReceivedAmount",
          "type": "uint256"
        },
        {
          "indexed": true,
          "internalType": "uint256",
          "name": "tokenId",
          "type": "uint256"
        },
        {
          "indexed": false,
          "internalType": "uint256",
          "name": "amount",
          "type": "uint256"
        }
      ],
      "name": "UnstakedAndWithdrew",
      "type": "event"
    },
    {
      "anonymous": false,
      "inputs": [
        {
          "indexed": true,
          "internalType": "address",
          "name": "user",
          "type": "address"
        },
        {
          "indexed": false,
          "internalType": "uint256",
          "name": "usdcReceivedAmount",
          "type": "uint256"
        },
        {
          "indexed": false,
          "internalType": "uint256[]",
          "name": "tokenIds",
          "type": "uint256[]"
        },
        {
          "indexed": false,
          "internalType": "uint256[]",
          "name": "amounts",
          "type": "uint256[]"
        }
      ],
      "name": "UnstakedAndWithdrewMultiple",
      "type": "event"
    },
    {
      "anonymous": false,
      "inputs": [
        {
          "indexed": true,
          "internalType": "address",
          "name": "user",
          "type": "address"
        },
        {
          "indexed": false,
          "internalType": "uint256[]",
          "name": "tokenIds",
          "type": "uint256[]"
        },
        {
          "indexed": false,
          "internalType": "uint256[]",
          "name": "amounts",
          "type": "uint256[]"
        }
      ],
      "name": "UnstakedMultiple",
      "type": "event"
    },
    {
      "anonymous": false,
      "inputs": [
        {
          "indexed": true,
          "internalType": "address",
          "name": "who",
          "type": "address"
        },
        {
          "indexed": false,
          "internalType": "uint256",
          "name": "vestingLength",
          "type": "uint256"
        }
      ],
      "name": "VestingScheduleUpdated",
      "type": "event"
    },
    {
      "inputs": [],
      "name": "DEFAULT_ADMIN_ROLE",
      "outputs": [
        {
          "internalType": "bytes32",
          "name": "",
          "type": "bytes32"
        }
      ],
      "stateMutability": "view",
      "type": "function"
    },
    {
      "inputs": [],
      "name": "MINTER_ROLE",
      "outputs": [
        {
          "internalType": "bytes32",
          "name": "",
          "type": "bytes32"
        }
      ],
      "stateMutability": "view",
      "type": "function"
    },
    {
      "inputs": [],
      "name": "OWNER_ROLE",
      "outputs": [
        {
          "internalType": "bytes32",
          "name": "",
          "type": "bytes32"
        }
      ],
      "stateMutability": "view",
      "type": "function"
    },
    {
      "inputs": [],
      "name": "PAUSER_ROLE",
      "outputs": [
        {
          "internalType": "bytes32",
          "name": "",
          "type": "bytes32"
        }
      ],
      "stateMutability": "view",
      "type": "function"
    },
    {
      "inputs": [],
      "name": "ZAPPER_ROLE",
      "outputs": [
        {
          "internalType": "bytes32",
          "name": "",
          "type": "bytes32"
        }
      ],
      "stateMutability": "view",
      "type": "function"
    },
    {
      "inputs": [
        {
          "internalType": "address",
          "name": "owner",
          "type": "address"
        },
        {
          "internalType": "contract GoldfinchConfig",
          "name": "_config",
          "type": "address"
        }
      ],
      "name": "__initialize__",
      "outputs": [],
      "stateMutability": "nonpayable",
      "type": "function"
    },
    {
      "inputs": [],
      "name": "_tokenIdTracker",
      "outputs": [
        {
          "internalType": "uint256",
          "name": "_value",
          "type": "uint256"
        }
      ],
      "stateMutability": "view",
      "type": "function"
    },
    {
      "inputs": [],
      "name": "accumulatedRewardsPerToken",
      "outputs": [
        {
          "internalType": "uint256",
          "name": "",
          "type": "uint256"
        }
      ],
      "stateMutability": "view",
      "type": "function"
    },
    {
      "inputs": [
        {
          "internalType": "uint256",
          "name": "tokenId",
          "type": "uint256"
        },
        {
          "internalType": "uint256",
          "name": "amount",
          "type": "uint256"
        }
      ],
      "name": "addToStake",
      "outputs": [],
      "stateMutability": "nonpayable",
      "type": "function"
    },
    {
      "inputs": [
        {
          "internalType": "address",
          "name": "to",
          "type": "address"
        },
        {
          "internalType": "uint256",
          "name": "tokenId",
          "type": "uint256"
        }
      ],
      "name": "approve",
      "outputs": [],
      "stateMutability": "nonpayable",
      "type": "function"
    },
    {
      "inputs": [
        {
          "internalType": "address",
          "name": "owner",
          "type": "address"
        }
      ],
      "name": "balanceOf",
      "outputs": [
        {
          "internalType": "uint256",
          "name": "",
          "type": "uint256"
        }
      ],
      "stateMutability": "view",
      "type": "function"
    },
    {
      "inputs": [],
      "name": "baseURI",
      "outputs": [
        {
          "internalType": "string",
          "name": "",
          "type": "string"
        }
      ],
      "stateMutability": "view",
      "type": "function"
    },
    {
      "inputs": [
        {
          "internalType": "uint256",
          "name": "tokenId",
          "type": "uint256"
        }
      ],
      "name": "claimableRewards",
      "outputs": [
        {
          "internalType": "uint256",
          "name": "rewards",
          "type": "uint256"
        }
      ],
      "stateMutability": "view",
      "type": "function"
    },
    {
      "inputs": [],
      "name": "config",
      "outputs": [
        {
          "internalType": "contract GoldfinchConfig",
          "name": "",
          "type": "address"
        }
      ],
      "stateMutability": "view",
      "type": "function"
    },
    {
      "inputs": [],
      "name": "currentEarnRatePerToken",
      "outputs": [
        {
          "internalType": "uint256",
          "name": "",
          "type": "uint256"
        }
      ],
      "stateMutability": "view",
      "type": "function"
    },
    {
      "inputs": [
        {
          "internalType": "uint256",
          "name": "usdcAmount",
          "type": "uint256"
        }
      ],
      "name": "depositAndStake",
      "outputs": [
        {
          "internalType": "uint256",
          "name": "",
          "type": "uint256"
        }
      ],
      "stateMutability": "nonpayable",
      "type": "function"
    },
    {
      "inputs": [
        {
          "internalType": "uint256",
          "name": "fiduAmount",
          "type": "uint256"
        },
        {
          "internalType": "uint256",
          "name": "usdcAmount",
          "type": "uint256"
        }
      ],
      "name": "depositToCurve",
      "outputs": [],
      "stateMutability": "nonpayable",
      "type": "function"
    },
    {
      "inputs": [
        {
          "internalType": "uint256",
          "name": "fiduAmount",
          "type": "uint256"
        },
        {
          "internalType": "uint256",
          "name": "usdcAmount",
          "type": "uint256"
        }
      ],
      "name": "depositToCurveAndStake",
      "outputs": [],
      "stateMutability": "nonpayable",
      "type": "function"
    },
    {
      "inputs": [
        {
          "internalType": "address",
          "name": "nftRecipient",
          "type": "address"
        },
        {
          "internalType": "uint256",
          "name": "fiduAmount",
          "type": "uint256"
        },
        {
          "internalType": "uint256",
          "name": "usdcAmount",
          "type": "uint256"
        }
      ],
      "name": "depositToCurveAndStakeFrom",
      "outputs": [],
      "stateMutability": "nonpayable",
      "type": "function"
    },
    {
      "inputs": [
        {
          "internalType": "uint256",
          "name": "usdcAmount",
          "type": "uint256"
        },
        {
          "internalType": "uint256",
          "name": "deadline",
          "type": "uint256"
        },
        {
          "internalType": "uint8",
          "name": "v",
          "type": "uint8"
        },
        {
          "internalType": "bytes32",
          "name": "r",
          "type": "bytes32"
        },
        {
          "internalType": "bytes32",
          "name": "s",
          "type": "bytes32"
        }
      ],
      "name": "depositWithPermitAndStake",
      "outputs": [
        {
          "internalType": "uint256",
          "name": "",
          "type": "uint256"
        }
      ],
      "stateMutability": "nonpayable",
      "type": "function"
    },
    {
      "inputs": [
        {
          "internalType": "uint256",
          "name": "tokenId",
          "type": "uint256"
        }
      ],
      "name": "earnedSinceLastCheckpoint",
      "outputs": [
        {
          "internalType": "uint256",
          "name": "",
          "type": "uint256"
        }
      ],
      "stateMutability": "view",
      "type": "function"
    },
    {
      "inputs": [
        {
          "internalType": "uint256",
          "name": "tokenId",
          "type": "uint256"
        }
      ],
      "name": "getApproved",
      "outputs": [
        {
          "internalType": "address",
          "name": "",
          "type": "address"
        }
      ],
      "stateMutability": "view",
      "type": "function"
    },
    {
      "inputs": [
        {
          "internalType": "enum StakingRewards.StakedPositionType",
          "name": "positionType",
          "type": "uint8"
        }
      ],
      "name": "getBaseTokenExchangeRate",
      "outputs": [
        {
          "internalType": "uint256",
          "name": "",
          "type": "uint256"
        }
      ],
      "stateMutability": "view",
      "type": "function"
    },
    {
      "inputs": [
        {
          "internalType": "enum StakingRewards.StakedPositionType",
          "name": "positionType",
          "type": "uint8"
        }
      ],
      "name": "getEffectiveMultiplierForPositionType",
      "outputs": [
        {
          "internalType": "uint256",
          "name": "",
          "type": "uint256"
        }
      ],
      "stateMutability": "view",
      "type": "function"
    },
    {
      "inputs": [
        {
          "internalType": "uint256",
          "name": "tokenId",
          "type": "uint256"
        }
      ],
      "name": "getReward",
      "outputs": [],
      "stateMutability": "nonpayable",
      "type": "function"
    },
    {
      "inputs": [
        {
          "internalType": "bytes32",
          "name": "role",
          "type": "bytes32"
        }
      ],
      "name": "getRoleAdmin",
      "outputs": [
        {
          "internalType": "bytes32",
          "name": "",
          "type": "bytes32"
        }
      ],
      "stateMutability": "view",
      "type": "function"
    },
    {
      "inputs": [
        {
          "internalType": "bytes32",
          "name": "role",
          "type": "bytes32"
        },
        {
          "internalType": "uint256",
          "name": "index",
          "type": "uint256"
        }
      ],
      "name": "getRoleMember",
      "outputs": [
        {
          "internalType": "address",
          "name": "",
          "type": "address"
        }
      ],
      "stateMutability": "view",
      "type": "function"
    },
    {
      "inputs": [
        {
          "internalType": "bytes32",
          "name": "role",
          "type": "bytes32"
        }
      ],
      "name": "getRoleMemberCount",
      "outputs": [
        {
          "internalType": "uint256",
          "name": "",
          "type": "uint256"
        }
      ],
      "stateMutability": "view",
      "type": "function"
    },
    {
      "inputs": [
        {
          "internalType": "bytes32",
          "name": "role",
          "type": "bytes32"
        },
        {
          "internalType": "address",
          "name": "account",
          "type": "address"
        }
      ],
      "name": "grantRole",
      "outputs": [],
      "stateMutability": "nonpayable",
      "type": "function"
    },
    {
      "inputs": [
        {
          "internalType": "bytes32",
          "name": "role",
          "type": "bytes32"
        },
        {
          "internalType": "address",
          "name": "account",
          "type": "address"
        }
      ],
      "name": "hasRole",
      "outputs": [
        {
          "internalType": "bool",
          "name": "",
          "type": "bool"
        }
      ],
      "stateMutability": "view",
      "type": "function"
    },
    {
      "inputs": [],
      "name": "initZapperRole",
      "outputs": [],
      "stateMutability": "nonpayable",
      "type": "function"
    },
    {
      "inputs": [
        {
          "internalType": "address",
          "name": "owner",
          "type": "address"
        },
        {
          "internalType": "address",
          "name": "operator",
          "type": "address"
        }
      ],
      "name": "isApprovedForAll",
      "outputs": [
        {
          "internalType": "bool",
          "name": "",
          "type": "bool"
        }
      ],
      "stateMutability": "view",
      "type": "function"
    },
    {
      "inputs": [
        {
          "internalType": "uint256",
          "name": "tokenId",
          "type": "uint256"
        }
      ],
      "name": "kick",
      "outputs": [],
      "stateMutability": "nonpayable",
      "type": "function"
    },
    {
      "inputs": [],
      "name": "lastUpdateTime",
      "outputs": [
        {
          "internalType": "uint256",
          "name": "",
          "type": "uint256"
        }
      ],
      "stateMutability": "view",
      "type": "function"
    },
    {
      "inputs": [
        {
          "internalType": "uint256",
          "name": "rewards",
          "type": "uint256"
        }
      ],
      "name": "loadRewards",
      "outputs": [],
      "stateMutability": "nonpayable",
      "type": "function"
    },
    {
      "inputs": [],
      "name": "maxRate",
      "outputs": [
        {
          "internalType": "uint256",
          "name": "",
          "type": "uint256"
        }
      ],
      "stateMutability": "view",
      "type": "function"
    },
    {
      "inputs": [],
      "name": "maxRateAtPercent",
      "outputs": [
        {
          "internalType": "uint256",
          "name": "",
          "type": "uint256"
        }
      ],
      "stateMutability": "view",
      "type": "function"
    },
    {
      "inputs": [],
      "name": "minRate",
      "outputs": [
        {
          "internalType": "uint256",
          "name": "",
          "type": "uint256"
        }
      ],
      "stateMutability": "view",
      "type": "function"
    },
    {
      "inputs": [],
      "name": "minRateAtPercent",
      "outputs": [
        {
          "internalType": "uint256",
          "name": "",
          "type": "uint256"
        }
      ],
      "stateMutability": "view",
      "type": "function"
    },
    {
      "inputs": [],
      "name": "name",
      "outputs": [
        {
          "internalType": "string",
          "name": "",
          "type": "string"
        }
      ],
      "stateMutability": "view",
      "type": "function"
    },
    {
      "inputs": [
        {
          "internalType": "uint256",
          "name": "tokenId",
          "type": "uint256"
        }
      ],
      "name": "optimisticClaimable",
      "outputs": [
        {
          "internalType": "uint256",
          "name": "",
          "type": "uint256"
        }
      ],
      "stateMutability": "view",
      "type": "function"
    },
    {
      "inputs": [
        {
          "internalType": "uint256",
          "name": "tokenId",
          "type": "uint256"
        }
      ],
      "name": "ownerOf",
      "outputs": [
        {
          "internalType": "address",
          "name": "",
          "type": "address"
        }
      ],
      "stateMutability": "view",
      "type": "function"
    },
    {
      "inputs": [],
      "name": "pause",
      "outputs": [],
      "stateMutability": "nonpayable",
      "type": "function"
    },
    {
      "inputs": [],
      "name": "paused",
      "outputs": [
        {
          "internalType": "bool",
          "name": "",
          "type": "bool"
        }
      ],
      "stateMutability": "view",
      "type": "function"
    },
    {
      "inputs": [
        {
          "internalType": "uint256",
          "name": "tokenId",
          "type": "uint256"
        }
      ],
      "name": "positionCurrentEarnRate",
      "outputs": [
        {
          "internalType": "uint256",
          "name": "",
          "type": "uint256"
        }
      ],
      "stateMutability": "view",
      "type": "function"
    },
    {
      "inputs": [
        {
          "internalType": "uint256",
          "name": "",
          "type": "uint256"
        }
      ],
      "name": "positionToAccumulatedRewardsPerToken",
      "outputs": [
        {
          "internalType": "uint256",
          "name": "",
          "type": "uint256"
        }
      ],
      "stateMutability": "view",
      "type": "function"
    },
    {
      "inputs": [
        {
          "internalType": "uint256",
          "name": "",
          "type": "uint256"
        }
      ],
      "name": "positions",
      "outputs": [
        {
          "internalType": "uint256",
          "name": "amount",
          "type": "uint256"
        },
        {
          "components": [
            {
              "internalType": "uint256",
              "name": "totalUnvested",
              "type": "uint256"
            },
            {
              "internalType": "uint256",
              "name": "totalVested",
              "type": "uint256"
            },
            {
              "internalType": "uint256",
              "name": "totalPreviouslyVested",
              "type": "uint256"
            },
            {
              "internalType": "uint256",
              "name": "totalClaimed",
              "type": "uint256"
            },
            {
              "internalType": "uint256",
              "name": "startTime",
              "type": "uint256"
            },
            {
              "internalType": "uint256",
              "name": "endTime",
              "type": "uint256"
            }
          ],
          "internalType": "struct StakingRewardsVesting.Rewards",
          "name": "rewards",
          "type": "tuple"
        },
        {
          "internalType": "uint256",
          "name": "leverageMultiplier",
          "type": "uint256"
        },
        {
          "internalType": "uint256",
          "name": "lockedUntil",
          "type": "uint256"
        },
        {
          "internalType": "enum StakingRewards.StakedPositionType",
          "name": "positionType",
          "type": "uint8"
        },
        {
          "internalType": "uint256",
          "name": "unsafeEffectiveMultiplier",
          "type": "uint256"
        },
        {
          "internalType": "uint256",
          "name": "unsafeBaseTokenExchangeRate",
          "type": "uint256"
        }
      ],
      "stateMutability": "view",
      "type": "function"
    },
    {
      "inputs": [
        {
          "internalType": "bytes32",
          "name": "role",
          "type": "bytes32"
        },
        {
          "internalType": "address",
          "name": "account",
          "type": "address"
        }
      ],
      "name": "renounceRole",
      "outputs": [],
      "stateMutability": "nonpayable",
      "type": "function"
    },
    {
      "inputs": [
        {
          "internalType": "bytes32",
          "name": "role",
          "type": "bytes32"
        },
        {
          "internalType": "address",
          "name": "account",
          "type": "address"
        }
      ],
      "name": "revokeRole",
      "outputs": [],
      "stateMutability": "nonpayable",
      "type": "function"
    },
    {
      "inputs": [],
      "name": "rewardPerToken",
      "outputs": [
        {
          "internalType": "uint256",
          "name": "",
          "type": "uint256"
        }
      ],
      "stateMutability": "view",
      "type": "function"
    },
    {
      "inputs": [],
      "name": "rewardsAvailable",
      "outputs": [
        {
          "internalType": "uint256",
          "name": "",
          "type": "uint256"
        }
      ],
      "stateMutability": "view",
      "type": "function"
    },
    {
      "inputs": [
        {
          "internalType": "address",
          "name": "from",
          "type": "address"
        },
        {
          "internalType": "address",
          "name": "to",
          "type": "address"
        },
        {
          "internalType": "uint256",
          "name": "tokenId",
          "type": "uint256"
        }
      ],
      "name": "safeTransferFrom",
      "outputs": [],
      "stateMutability": "nonpayable",
      "type": "function"
    },
    {
      "inputs": [
        {
          "internalType": "address",
          "name": "from",
          "type": "address"
        },
        {
          "internalType": "address",
          "name": "to",
          "type": "address"
        },
        {
          "internalType": "uint256",
          "name": "tokenId",
          "type": "uint256"
        },
        {
          "internalType": "bytes",
          "name": "_data",
          "type": "bytes"
        }
      ],
      "name": "safeTransferFrom",
      "outputs": [],
      "stateMutability": "nonpayable",
      "type": "function"
    },
    {
      "inputs": [
        {
          "internalType": "address",
          "name": "operator",
          "type": "address"
        },
        {
          "internalType": "bool",
          "name": "approved",
          "type": "bool"
        }
      ],
      "name": "setApprovalForAll",
      "outputs": [],
      "stateMutability": "nonpayable",
      "type": "function"
    },
    {
      "inputs": [
        {
          "internalType": "uint256",
          "name": "multiplier",
          "type": "uint256"
        },
        {
          "internalType": "enum StakingRewards.StakedPositionType",
          "name": "positionType",
          "type": "uint8"
        }
      ],
      "name": "setEffectiveMultiplier",
      "outputs": [],
      "stateMutability": "nonpayable",
      "type": "function"
    },
    {
      "inputs": [
        {
          "internalType": "uint256",
          "name": "_targetCapacity",
          "type": "uint256"
        },
        {
          "internalType": "uint256",
          "name": "_minRate",
          "type": "uint256"
        },
        {
          "internalType": "uint256",
          "name": "_maxRate",
          "type": "uint256"
        },
        {
          "internalType": "uint256",
          "name": "_minRateAtPercent",
          "type": "uint256"
        },
        {
          "internalType": "uint256",
          "name": "_maxRateAtPercent",
          "type": "uint256"
        }
      ],
      "name": "setRewardsParameters",
      "outputs": [],
      "stateMutability": "nonpayable",
      "type": "function"
    },
    {
      "inputs": [
        {
          "internalType": "uint256",
          "name": "_vestingLength",
          "type": "uint256"
        }
      ],
      "name": "setVestingSchedule",
      "outputs": [],
      "stateMutability": "nonpayable",
      "type": "function"
    },
    {
      "inputs": [
        {
          "internalType": "uint256",
          "name": "amount",
          "type": "uint256"
        },
        {
          "internalType": "enum StakingRewards.StakedPositionType",
          "name": "positionType",
          "type": "uint8"
        }
      ],
      "name": "stake",
      "outputs": [
        {
          "internalType": "uint256",
          "name": "",
          "type": "uint256"
        }
      ],
      "stateMutability": "nonpayable",
      "type": "function"
    },
    {
      "inputs": [
        {
          "internalType": "uint256",
          "name": "tokenId",
          "type": "uint256"
        }
      ],
      "name": "stakedBalanceOf",
      "outputs": [
        {
          "internalType": "uint256",
          "name": "",
          "type": "uint256"
        }
      ],
      "stateMutability": "view",
      "type": "function"
    },
    {
      "inputs": [
        {
          "internalType": "bytes4",
          "name": "interfaceId",
          "type": "bytes4"
        }
      ],
      "name": "supportsInterface",
      "outputs": [
        {
          "internalType": "bool",
          "name": "",
          "type": "bool"
        }
      ],
      "stateMutability": "view",
      "type": "function"
    },
    {
      "inputs": [],
      "name": "symbol",
      "outputs": [
        {
          "internalType": "string",
          "name": "",
          "type": "string"
        }
      ],
      "stateMutability": "view",
      "type": "function"
    },
    {
      "inputs": [],
      "name": "targetCapacity",
      "outputs": [
        {
          "internalType": "uint256",
          "name": "",
          "type": "uint256"
        }
      ],
      "stateMutability": "view",
      "type": "function"
    },
    {
      "inputs": [
        {
          "internalType": "uint256",
          "name": "index",
          "type": "uint256"
        }
      ],
      "name": "tokenByIndex",
      "outputs": [
        {
          "internalType": "uint256",
          "name": "",
          "type": "uint256"
        }
      ],
      "stateMutability": "view",
      "type": "function"
    },
    {
      "inputs": [
        {
          "internalType": "address",
          "name": "owner",
          "type": "address"
        },
        {
          "internalType": "uint256",
          "name": "index",
          "type": "uint256"
        }
      ],
      "name": "tokenOfOwnerByIndex",
      "outputs": [
        {
          "internalType": "uint256",
          "name": "",
          "type": "uint256"
        }
      ],
      "stateMutability": "view",
      "type": "function"
    },
    {
      "inputs": [
        {
          "internalType": "uint256",
          "name": "tokenId",
          "type": "uint256"
        }
      ],
      "name": "tokenURI",
      "outputs": [
        {
          "internalType": "string",
          "name": "",
          "type": "string"
        }
      ],
      "stateMutability": "view",
      "type": "function"
    },
    {
      "inputs": [
        {
          "internalType": "address",
          "name": "owner",
          "type": "address"
        }
      ],
      "name": "totalOptimisticClaimable",
      "outputs": [
        {
          "internalType": "uint256",
          "name": "",
          "type": "uint256"
        }
      ],
      "stateMutability": "view",
      "type": "function"
    },
    {
      "inputs": [],
      "name": "totalStakedSupply",
      "outputs": [
        {
          "internalType": "uint256",
          "name": "",
          "type": "uint256"
        }
      ],
      "stateMutability": "view",
      "type": "function"
    },
    {
      "inputs": [],
      "name": "totalSupply",
      "outputs": [
        {
          "internalType": "uint256",
          "name": "",
          "type": "uint256"
        }
      ],
      "stateMutability": "view",
      "type": "function"
    },
    {
      "inputs": [
        {
          "internalType": "uint256",
          "name": "start",
          "type": "uint256"
        },
        {
          "internalType": "uint256",
          "name": "end",
          "type": "uint256"
        },
        {
          "internalType": "uint256",
          "name": "time",
          "type": "uint256"
        },
        {
          "internalType": "uint256",
          "name": "grantedAmount",
          "type": "uint256"
        }
      ],
      "name": "totalVestedAt",
      "outputs": [
        {
          "internalType": "uint256",
          "name": "rewards",
          "type": "uint256"
        }
      ],
      "stateMutability": "pure",
      "type": "function"
    },
    {
      "inputs": [
        {
          "internalType": "address",
          "name": "from",
          "type": "address"
        },
        {
          "internalType": "address",
          "name": "to",
          "type": "address"
        },
        {
          "internalType": "uint256",
          "name": "tokenId",
          "type": "uint256"
        }
      ],
      "name": "transferFrom",
      "outputs": [],
      "stateMutability": "nonpayable",
      "type": "function"
    },
    {
      "inputs": [],
      "name": "unpause",
      "outputs": [],
      "stateMutability": "nonpayable",
      "type": "function"
    },
    {
      "inputs": [
        {
          "internalType": "uint256",
          "name": "tokenId",
          "type": "uint256"
        },
        {
          "internalType": "uint256",
          "name": "amount",
          "type": "uint256"
        }
      ],
      "name": "unstake",
      "outputs": [],
      "stateMutability": "nonpayable",
      "type": "function"
    },
    {
      "inputs": [
        {
          "internalType": "uint256",
          "name": "tokenId",
          "type": "uint256"
        },
        {
          "internalType": "uint256",
          "name": "usdcAmount",
          "type": "uint256"
        }
      ],
      "name": "unstakeAndWithdraw",
      "outputs": [],
      "stateMutability": "nonpayable",
      "type": "function"
    },
    {
      "inputs": [
        {
          "internalType": "uint256",
          "name": "tokenId",
          "type": "uint256"
        },
        {
          "internalType": "uint256",
          "name": "fiduAmount",
          "type": "uint256"
        }
      ],
      "name": "unstakeAndWithdrawInFidu",
      "outputs": [],
      "stateMutability": "nonpayable",
      "type": "function"
    },
    {
      "inputs": [
        {
          "internalType": "uint256[]",
          "name": "tokenIds",
          "type": "uint256[]"
        },
        {
          "internalType": "uint256[]",
          "name": "usdcAmounts",
          "type": "uint256[]"
        }
      ],
      "name": "unstakeAndWithdrawMultiple",
      "outputs": [],
      "stateMutability": "nonpayable",
      "type": "function"
    },
    {
      "inputs": [
        {
          "internalType": "uint256[]",
          "name": "tokenIds",
          "type": "uint256[]"
        },
        {
          "internalType": "uint256[]",
          "name": "fiduAmounts",
          "type": "uint256[]"
        }
      ],
      "name": "unstakeAndWithdrawMultipleInFidu",
      "outputs": [],
      "stateMutability": "nonpayable",
      "type": "function"
    },
    {
      "inputs": [
        {
          "internalType": "uint256[]",
          "name": "tokenIds",
          "type": "uint256[]"
        },
        {
          "internalType": "uint256[]",
          "name": "amounts",
          "type": "uint256[]"
        }
      ],
      "name": "unstakeMultiple",
      "outputs": [],
      "stateMutability": "nonpayable",
      "type": "function"
    },
    {
      "inputs": [
        {
          "internalType": "uint256",
          "name": "tokenId",
          "type": "uint256"
        }
      ],
      "name": "updatePositionEffectiveMultiplier",
      "outputs": [],
      "stateMutability": "nonpayable",
      "type": "function"
    },
    {
      "inputs": [],
      "name": "vestingLength",
      "outputs": [
        {
          "internalType": "uint256",
          "name": "",
          "type": "uint256"
        }
      ],
      "stateMutability": "view",
      "type": "function"
    }
  ],
  "transactionHash": "0x7948ca8eacf3580df722d590e3227f91544f4ca8de85f43c6b98c397677b25e5",
  "args": [],
  "solcInputHash": "c52586186129beb1f69c2d802aa3ecb5",
  "bytecode": "0x608060405234801561001057600080fd5b50615fe080620000216000396000f3fe608060405234801561001057600080fd5b50600436106104655760003560e01c806379502c5511610257578063b3a99b4c11610146578063d047e42d116100c3578063e7a7250a11610087578063e7a7250a14610932578063e985e9c51461093a578063ece1d6e51461094d578063f62849be14610955578063fb285ed01461096857610465565b8063d047e42d146108f4578063d539139314610907578063d547741f1461090f578063e58378bb14610922578063e63ab1e91461092a57610465565b8063c87b56dd1161010a578063c87b56dd146108ab578063c8f33c91146108be578063ca15c873146108c6578063cd3daf9d146108d9578063ce0cf1a5146108e157610465565b8063b3a99b4c1461086d578063b6f8fd4014610875578063b88d4fde14610888578063b88dffe01461089b578063bcdc3cfc146108a357610465565b806399fbab88116101d4578063a22cb46511610198578063a22cb46514610819578063a52ab1f11461082c578063a9f4939d1461083f578063aa04295f14610852578063b217f9d41461086557610465565b806399fbab88146107b25780639d29e48d146107d85780639e2c8a5b146107eb5780639f60421f146107fe578063a217fddf1461081157610465565b8063906ae4c31161021b578063906ae4c31461076957806391d148541461077c57806395d89b411461078f5780639835fc7e1461079757806398bcede9146107aa57610465565b806379502c55146107205780638456cb591461072857806387647d4b146107305780638ea26983146107435780639010d07c1461075657610465565b806330987dd81161037357806359fe8539116102f057806369d00e79116102b457806369d00e79146106cc5780636c0360eb146106df5780636c3f3be6146106e757806370a08231146106fa57806375ff490b1461070d57610465565b806359fe8539146106835780635c975abb146106965780636352211e1461069e57806364fa33f0146106b15780636702abe2146106b957610465565b806342842e0e1161033757806342842e0e1461063a57806344f414251461064d5780634a6b629d146106605780634d4e3e0c146106685780634f6ccce71461067057610465565b806330987dd8146105f1578063333ee7921461060457806336568abe14610617578063389621861461062a5780633f4ba83a1461063257610465565b806313ad357411610401578063248a9ca3116103c5578063248a9ca314610592578063252e61c3146105a557806327a3492e146105b85780632f2ff15d146105cb5780632f745c59146105de57610465565b806313ad35741461053e57806318160ddd146105515780631c4b774b1461055957806323234a9c1461056c57806323b872dd1461057f57610465565b806301ffc9a71461046a57806306fdde0314610493578063081812fc146104a8578063095ea7b3146104c85780630cb60443146104dd57806310087fb1146104f2578063106809191461050557806310aec8f914610518578063135e80591461052b575b600080fd5b61047d610478366004614f0e565b610970565b60405161048a91906152f2565b60405180910390f35b61049b610993565b60405161048a9190615322565b6104bb6104b6366004614eb1565b610a2a565b60405161048a91906151a1565b6104db6104d6366004614dcd565b610a76565b005b6104e5610b0e565b60405161048a91906152fd565b6104e5610500366004614f7d565b610b15565b6104e5610513366004614eb1565b610b97565b6104db610526366004614eed565b610baa565b6104e5610539366004614fa4565b610c6d565b6104e561054c366004614eb1565b610c86565b6104e5610ca9565b6104db610567366004614eb1565b610cba565b6104e561057a366004614f46565b610de7565b6104db61058d366004614c86565b610fa3565b6104e56105a0366004614eb1565b610fdb565b6104e56105b336600461500f565b610ff0565b6104db6105c6366004614eed565b611085565b6104db6105d9366004614ec9565b61113e565b6104e56105ec366004614dcd565b611186565b6104db6105ff366004614eed565b6111af565b6104db610612366004614e2c565b6111ba565b6104db610625366004614ec9565b6112f7565b6104e5611339565b6104db611340565b6104db610648366004614c86565b611380565b6104db61065b366004614e2c565b61139b565b6104e561152f565b6104e5611536565b6104e561067e366004614eb1565b611548565b6104e5610691366004614eb1565b61155e565b61047d611731565b6104bb6106ac366004614eb1565b61173a565b6104e5611762565b6104db6106c7366004614fd5565b611769565b6104db6106da366004614df8565b61182c565b61049b611905565b6104e56106f5366004614eb1565b611966565b6104e5610708366004614c16565b61199d565b6104e561071b366004614f46565b6119e6565b6104bb611a4c565b6104db611a5c565b6104e561073e366004614eb1565b611a9a565b6104e5610751366004614c16565b611ae5565b6104bb610764366004614eed565b611b2d565b6104db610777366004614f7d565b611b45565b61047d61078a366004614ec9565b611c11565b61049b611c29565b6104e56107a5366004614eb1565b611c8a565b6104e5611ca5565b6107c56107c0366004614eb1565b611cac565b60405161048a9796959493929190615de4565b6104db6107e6366004614eb1565b611d2e565b6104db6107f9366004614eed565b611da1565b6104db61080c366004614e2c565b611e3e565b6104e5612003565b6104db610827366004614d8e565b612008565b6104db61083a366004614eb1565b6120d6565b6104db61084d366004614eed565b612203565b6104e5610860366004614eb1565b61235a565b6104e561236d565b6104e5612374565b6104db610883366004614dbb565b61237b565b6104db610896366004614cc6565b612523565b6104e5612562565b6104e56125aa565b61049b6108b9366004614eb1565b6125b1565b6104e56126fb565b6104e56108d4366004614eb1565b612702565b6104e5612719565b6104db6108ef366004614eb1565b612731565b6104db610902366004614eed565b61278c565b6104e5612830565b6104db61091d366004614ec9565b612854565b6104e561288e565b6104e56128a0565b6104e56128b2565b61047d610948366004614c4e565b6128b9565b6104e56128e7565b6104db610963366004614eb1565b6128ee565b6104db612979565b6001600160e01b0319811660009081526097602052604090205460ff165b919050565b60ce8054604080516020601f6002600019610100600188161502019095169490940493840181900481028201810190925282815260609390929091830182828015610a1f5780601f106109f457610100808354040283529160200191610a1f565b820191906000526020600020905b815481529060010190602001808311610a0257829003601f168201915b505050505090505b90565b6000610a35826129c3565b610a5a5760405162461bcd60e51b8152600401610a5190615977565b60405180910390fd5b50600090815260cc60205260409020546001600160a01b031690565b6000610a818261173a565b9050806001600160a01b0316836001600160a01b03161415610ab55760405162461bcd60e51b8152600401610a5190615ae2565b806001600160a01b0316610ac76129d0565b6001600160a01b03161480610ae35750610ae3816109486129d0565b610aff5760405162461bcd60e51b8152600401610a51906157e4565b610b0983836129d4565b505050565b6101c95481565b6101915460009060ff16610b3b5760405162461bcd60e51b8152600401610a5190615bf6565b610191805460ff1916905560fb5460ff1615610b695760405162461bcd60e51b8152600401610a51906157ba565b6000610b7481612a42565b610b8033338686612aee565b915050610191805460ff1916600117905592915050565b6101c76020526000908152604090205481565b6101915460ff16610bcd5760405162461bcd60e51b8152600401610a5190615bf6565b610191805460ff1916905560fb5460ff1615610bfb5760405162461bcd60e51b8152600401610a51906157ba565b610c0482612a42565b600080610c118484612d09565b9150915083336001600160a01b03167fc3c6b9e734c21d6e8632c6a862b6de6458faa89079cbc34cc0560ed0ab78a5c68484604051610c51929190615e5b565b60405180910390a35050610191805460ff191660011790555050565b6000610c7b85858585612f40565b90505b949350505050565b6000610ca3610c9483611c8a565b610c9d84611a9a565b90612f7a565b92915050565b6000610cb560ca612f9f565b905090565b6101915460ff16610cdd5760405162461bcd60e51b8152600401610a5190615bf6565b610191805460ff1916905560fb5460ff1615610d0b5760405162461bcd60e51b8152600401610a51906157ba565b80610d1581612a42565b33610d1f8361173a565b6001600160a01b031614610d455760405162461bcd60e51b8152600401610a51906154ad565b6000610d5083611c8a565b90508015610dd45760008381526101d160205260409020610d749060010182612faa565b610d913382610d81612fc5565b6001600160a01b03169190612fde565b82336001600160a01b03167fd6f2c8500df5b44f11e9e48b91ff9f1b9d81bc496d55570c2b1b75bf65243f5183604051610dcb91906152fd565b60405180910390a35b5050610191805460ff1916600117905550565b60006001826001811115610df757fe5b1415610f94576101c354600090610e16906001600160a01b0316613034565b6001600160a01b031663bb7b8b806040518163ffffffff1660e01b815260040160206040518083038186803b158015610e4e57600080fd5b505afa158015610e62573d6000803e3d6000fd5b505050506040513d601f19601f82011682018060405250810190610e869190614f65565b9050610e9b670de0b6b3a7640000600261303f565b8111610eb95760405162461bcd60e51b8152600401610a51906158c8565b610ecc670de0b6b3a76400006002613081565b8110610eea5760405162461bcd60e51b8152600401610a5190615638565b6101c354610f8c90610f04906001600160a01b03166130bb565b6001600160a01b031663872697296040518163ffffffff1660e01b815260040160206040518083038186803b158015610f3c57600080fd5b505afa158015610f50573d6000803e3d6000fd5b505050506040513d601f19601f82011682018060405250810190610f749190614f65565b610f8683670de0b6b3a7640000613081565b9061303f565b91505061098e565b50670de0b6b3a7640000919050565b610fb4610fae6129d0565b826130c6565b610fd05760405162461bcd60e51b8152600401610a5190615b3f565b610b09838383613143565b60009081526065602052604090206002015490565b6101c354600090611009906001600160a01b0316613251565b6001600160a01b031663d505accf333089898989896040518863ffffffff1660e01b815260040161104097969594939291906151e8565b600060405180830381600087803b15801561105a57600080fd5b505af115801561106e573d6000803e3d6000fd5b5050505061107b8661155e565b9695505050505050565b6101915460ff166110a85760405162461bcd60e51b8152600401610a5190615bf6565b610191805460ff1916905560fb5460ff16156110d65760405162461bcd60e51b8152600401610a51906157ba565b60006110e4333385856132d1565b9050336001600160a01b03167f2468986f19ca698c7a17082adcaf9889ae41bbd887038b6c7b0598015dfae75384848460405161112393929190615e69565b60405180910390a25050610191805460ff1916600117905550565b60008281526065602052604090206002015461115c9061078a6129d0565b6111785760405162461bcd60e51b8152600401610a51906153de565b61118282826134ef565b5050565b6001600160a01b038216600090815260c9602052604081206111a89083613558565b9392505050565b61118233838361182c565b6101915460ff166111dd5760405162461bcd60e51b8152600401610a5190615bf6565b610191805460ff1916905560fb5460ff161561120b5760405162461bcd60e51b8152600401610a51906157ba565b82811461122a5760405162461bcd60e51b8152600401610a5190615ac5565b6000805b828110156112985761125186868381811061124557fe5b90506020020135612a42565b600061128187878481811061126257fe5b9050602002013586868581811061127557fe5b90506020020135613564565b905061128d8382612f7a565b92505060010161122e565b50336001600160a01b03167f50748d84e7c6a6cc3641eb166ac6557b87d0e389ccd714d544d961b533a9c94682878787876040516112da959493929190615d11565b60405180910390a25050610191805460ff19166001179055505050565b6112ff6129d0565b6001600160a01b0316816001600160a01b03161461132f5760405162461bcd60e51b8152600401610a5190615cc2565b6111828282613648565b6101c55481565b61135a600080516020615f8b83398151915261078a6129d0565b6113765760405162461bcd60e51b8152600401610a5190615c2d565b61137e6136b1565b565b610b0983838360405180602001604052806000815250612523565b6101915460ff166113be5760405162461bcd60e51b8152600401610a5190615bf6565b610191805460ff1916905560fb5460ff16156113ec5760405162461bcd60e51b8152600401610a51906157ba565b82811461140b5760405162461bcd60e51b8152600401610a5190615ac5565b600060608267ffffffffffffffff8111801561142657600080fd5b50604051908082528060200260200182016040528015611450578160200160208202803683370190505b50905060005b838110156114d15761146d87878381811061124557fe5b60008061149e89898581811061147f57fe5b9050602002013588888681811061149257fe5b90506020020135612d09565b90925090506114ad8583612f7a565b9450808484815181106114bc57fe5b60209081029190910101525050600101611456565b50336001600160a01b03167f50748d84e7c6a6cc3641eb166ac6557b87d0e389ccd714d544d961b533a9c946838888856040516115119493929190615d4a565b60405180910390a25050610191805460ff1916600117905550505050565b6101c85481565b600080516020615f4283398151915281565b60008061155660ca8461371d565b509392505050565b6101915460009060ff166115845760405162461bcd60e51b8152600401610a5190615bf6565b610191805460ff1916905560fb5460ff16156115b25760405162461bcd60e51b8152600401610a51906157ba565b60006115bd81612a42565b6115c5613739565b6115e15760405162461bcd60e51b8152600401610a51906153c2565b6101c3546000906115fa906001600160a01b03166137cd565b90506116116001600160a01b0382163330876137d8565b6101c35460009061162a906001600160a01b03166130bb565b90506116406001600160a01b03831682876137f9565b60405163b6b55f2560e01b81526000906001600160a01b0383169063b6b55f259061166f9089906004016152fd565b602060405180830381600087803b15801561168957600080fd5b505af115801561169d573d6000803e3d6000fd5b505050506040513d601f19601f820116820180604052508101906116c19190614f65565b905060006116d23033846000612aee565b905080336001600160a01b03167fce343194de25678e58b53205d289681a131cc2b917e7c36c8dc0d1693fd8f7ef8985604051611710929190615e5b565b60405180910390a3945050505050610191805460ff19166001179055919050565b60fb5460ff1690565b6000610ca382604051806060016040528060298152602001615f626029913960ca919061389e565b6101cc5481565b6117716138ab565b61178d5760405162461bcd60e51b8152600401610a51906154ad565b600061179881612a42565b8484101580156117a85750828211155b6117c45760405162461bcd60e51b8152600401610a5190615bda565b6101c88690556101c98590556101ca8490556101cc8390556101cb82905560405133907f8fc8630a9026e4d101945e5580ff250722a3dbc1222dac05b63a0e4a97688a659061181c9089908990899089908990615e7f565b60405180910390a2505050505050565b6101915460ff1661184f5760405162461bcd60e51b8152600401610a5190615bf6565b610191805460ff1916905560fb5460ff161561187d5760405162461bcd60e51b8152600401610a51906157ba565b600061188881612a42565b6000611896333086866132d1565b905060006118a73087846001612aee565b905080336001600160a01b03167f70e3723ca1d6f2fd53a53844eb91671bc39574743c075044ac7ff5c2e5f489638787866040516118e793929190615e69565b60405180910390a35050610191805460ff1916600117905550505050565b60d18054604080516020601f6002600019610100600188161502019095169490940493840181900481028201810190925282815260609390929091830182828015610a1f5780601f106109f457610100808354040283529160200191610a1f565b6000610ca36119736138c7565b60008481526101d160205260409020610f869061198f9061394c565b611997612562565b90613081565b60006001600160a01b0382166119c55760405162461bcd60e51b8152600401610a519061583c565b6001600160a01b038216600090815260c960205260409020610ca390612f9f565b6000806101d260008460018111156119fa57fe5b6001811115611a0557fe5b8152602001908152602001600020541115610f94576101d26000836001811115611a2b57fe5b6001811115611a3657fe5b815260200190815260200160002054905061098e565b6101c3546001600160a01b031681565b611a76600080516020615f8b83398151915261078a6129d0565b611a925760405162461bcd60e51b8152600401610a51906155db565b61137e61395f565b6000610ca3611aa76138c7565b60008481526101c76020526040902054610f8690611acd90611ac7612719565b906139b8565b60008681526101d1602052604090206119979061394c565b600080805b611af38461199d565b811015611b26576000611b068583611186565b9050611b1b611b1482610c86565b8490612f7a565b925050600101611aea565b5092915050565b60008281526065602052604081206111a89083613558565b611b4d6138ab565b611b695760405162461bcd60e51b8152600401610a51906154ad565b6000611b7481612a42565b60008311611b945760405162461bcd60e51b8152600401610a5190615537565b826101d26000846001811115611ba657fe5b6001811115611bb157fe5b8152602081019190915260400160002055611bca6129d0565b6001600160a01b03167f9db0606b275ca1f1e99d2544ed31141049687b5f4080f2c87812881580a1b7ee8385604051611c04929190615306565b60405180910390a2505050565b60008281526065602052604081206111a890836139fa565b60cf8054604080516020601f6002600019610100600188161502019095169490940493840181900481028201810190925282815260609390929091830182828015610a1f5780601f106109f457610100808354040283529160200191610a1f565b60008181526101d160205260408120610ca390600101613a0f565b61015f5481565b6101d1602090815260009182526040918290208054835160c081018552600183015481526002830154938101939093526003820154938301939093526004810154606083015260058101546080830152600681015460a0830152600781015460088201546009830154600a840154600b909401549293919260ff909116919087565b611d366138ab565b611d525760405162461bcd60e51b8152600401610a51906154ad565b6000611d5d81612a42565b6101cd82905560405133907f8c84e3b4df93f5b7c8d4ab6647708f5b14cacc124e22908187e30695ec54bab390611d959085906152fd565b60405180910390a25050565b6101915460ff16611dc45760405162461bcd60e51b8152600401610a5190615bf6565b610191805460ff1916905560fb5460ff1615611df25760405162461bcd60e51b8152600401610a51906157ba565b611dfb82612a42565b611e058282613a34565b60008281526101d16020526040902060090154611e2c9033908390610d819060ff16613b49565b5050610191805460ff19166001179055565b6101915460ff16611e615760405162461bcd60e51b8152600401610a5190615bf6565b610191805460ff1916905560fb5460ff1615611e8f5760405162461bcd60e51b8152600401610a51906157ba565b828114611eae5760405162461bcd60e51b8152600401610a5190615ac5565b60008060005b83811015611f9957611ecb87878381811061124557fe5b611ef9878783818110611eda57fe5b90506020020135868684818110611eed57fe5b90506020020135613a34565b60016101d16000898985818110611f0c57fe5b602090810292909201358352508101919091526040016000206009015460ff166001811115611f3757fe5b1415611f6957611f62858583818110611f4c57fe5b9050602002013583612f7a90919063ffffffff16565b9150611f91565b611f8e858583818110611f7857fe5b9050602002013584612f7a90919063ffffffff16565b92505b600101611eb4565b508115611faf57611faf3383610d816000613b49565b8015611fc457611fc43382610d816001613b49565b336001600160a01b03167ff00809a6eb66c05c314468512a79b6388957b41bc76bd7241b9cbabb129ae0088787878760405161151194939291906152c0565b600081565b6120106129d0565b6001600160a01b0316826001600160a01b031614156120415760405162461bcd60e51b8152600401610a519061569a565b8060cd600061204e6129d0565b6001600160a01b03908116825260208083019390935260409182016000908120918716808252919093529120805460ff1916921515929092179091556120926129d0565b6001600160a01b03167f17307eab39ab6107e8899845ad3d59bd9653f200f220920489ca2b5937696c31836040516120ca91906152f2565b60405180910390a35050565b6101915460ff166120f95760405162461bcd60e51b8152600401610a5190615bf6565b610191805460ff1916905560fb5460ff16156121275760405162461bcd60e51b8152600401610a51906157ba565b8061213181612a42565b3361213b8361173a565b6001600160a01b0316146121615760405162461bcd60e51b8152600401610a51906154ad565b60008281526101d16020526040812060098101549091906121849060ff166119e6565b905061218f82613c02565b8110156121ae5760405162461bcd60e51b8152600401610a51906158c8565b60006121b98361394c565b600a8401839055905060006121cd8461394c565b90506121e981610c9d846101ce546139b890919063ffffffff16565b6101ce555050610191805460ff1916600117905550505050565b6101915460ff166122265760405162461bcd60e51b8152600401610a5190615bf6565b610191805460ff1916905560fb5460ff16156122545760405162461bcd60e51b8152600401610a51906157ba565b8161225e81612a42565b612266613c1a565b8015612277575061227733846130c6565b6122935760405162461bcd60e51b8152600401610a51906154ad565b60008381526101d1602052604081206009015460ff1660018111156122b457fe5b146122d15760405162461bcd60e51b8152600401610a51906156cd565b60008381526101d16020526040902080546122ec9084612f7a565b815561231661230c846122fe84613c36565b61230785613c02565b613c4e565b6101ce5490612f7a565b6101ce556009810154612346903390309086906123359060ff16613b49565b6001600160a01b03169291906137d8565b5050610191805460ff191660011790555050565b60009081526101d1602052604090205490565b6101cd5481565b6101cb5481565b600054610100900460ff16806123945750612394613c6c565b806123a2575060005460ff16155b6123be5760405162461bcd60e51b8152600401610a51906159df565b600054610100900460ff161580156123e9576000805460ff1961ff0019909116610100171660011790555b6123f1613c72565b6123f9613cf5565b61245a6040518060400160405280601e81526020017f476f6c6466696e6368205632204c50205374616b696e6720546f6b656e7300008152506040518060400160405280600a8152602001694746492d56322d4c505360b01b815250613d73565b612462613c72565b61246a613c72565b612472613e4f565b61247a613edb565b612492600080516020615f2283398151915284611178565b6124aa600080516020615f8b83398151915284611178565b6124d0600080516020615f8b833981519152600080516020615f22833981519152613f6b565b6124e8600080516020615f2283398151915280613f6b565b6101c380546001600160a01b0319166001600160a01b0384161790556301e133806101cd558015610b09576000805461ff0019169055505050565b61253461252e6129d0565b836130c6565b6125505760405162461bcd60e51b8152600401610a5190615b3f565b61255c84848484613f80565b50505050565b6000806101c4544214612575574261257a565b426001015b905060006125946101c454836139b890919063ffffffff16565b90506125a381610f8684613fb3565b9250505090565b6101ce5481565b60606125bc826129c3565b6125d85760405162461bcd60e51b8152600401610a5190615a76565b600082815260d0602090815260409182902080548351601f600260001961010060018616150201909316929092049182018490048402810184019094528084526060939283018282801561266d5780601f106126425761010080835404028352916020019161266d565b820191906000526020600020905b81548152906001019060200180831161265057829003601f168201915b505060d1549394505050506002600019610100600184161502019091160461269657905061098e565b8051156126c85760d1816040516020016126b1929190615120565b60405160208183030381529060405291505061098e565b60d16126d384614042565b6040516020016126e4929190615120565b604051602081830303815290604052915050919050565b6101c45481565b6000818152606560205260408120610ca390612f9f565b6000610cb561272742613fb3565b6101c55490612f7a565b6101915460ff166127545760405162461bcd60e51b8152600401610a5190615bf6565b610191805460ff1916905560fb5460ff16156127825760405162461bcd60e51b8152600401610a51906157ba565b80611e2c81612a42565b6101915460ff166127af5760405162461bcd60e51b8152600401610a5190615bf6565b610191805460ff1916905560fb5460ff16156127dd5760405162461bcd60e51b8152600401610a51906157ba565b6127e682612a42565b60006127f28383613564565b905082336001600160a01b03167fc3c6b9e734c21d6e8632c6a862b6de6458faa89079cbc34cc0560ed0ab78a5c68385604051610dcb929190615e5b565b7f9f2df0fed2c77648de5860a4cc508cd0818c85b8b8a1ab4ceeef8d981c8956a681565b6000828152606560205260409020600201546128729061078a6129d0565b61132f5760405162461bcd60e51b8152600401610a519061576a565b600080516020615f2283398151915281565b600080516020615f8b83398151915281565b6101c65481565b6001600160a01b03918216600090815260cd6020908152604080832093909416825291909152205460ff1690565b6101ca5481565b6128f66138ab565b6129125760405162461bcd60e51b8152600401610a51906154ad565b600061291d81612a42565b61292b333084612335612fc5565b6101c6546129399083612f7a565b6101c6556040517fde88a922e0d3b88b24e9623efeb464919c6bf9f66857a65e2bfcf2ce87a9433d9061296d9084906152fd565b60405180910390a15050565b6129816138ab565b61299d5760405162461bcd60e51b8152600401610a51906154ad565b61137e600080516020615f42833981519152600080516020615f22833981519152613f6b565b6000610ca360ca8361411d565b3390565b600081815260cc6020526040902080546001600160a01b0319166001600160a01b0384169081179091558190612a098261173a565b6001600160a01b03167f8c5be1e5ebec7d5bd14f71427d1e84f3dd0314c0f7b2291e5b200ac8c7c3b92560405160405180910390a45050565b6101c554612a4e612719565b6101c5556000612a7b612a5f6138c7565b6101c554610f8690612a7190866139b8565b6101ce5490613081565b6101c654909150612a8c90826139b8565b6101c655426101c4558215610b09576000612aa684611a9a565b60008581526101d160205260409020600101805491925090612ac89083612f7a565b8155612ad381614129565b50506101c55460008481526101c76020526040902055505050565b6000808311612b0f5760405162461bcd60e51b8152600401610a5190615537565b612b1a61015f614188565b612b2561015f614191565b9050612b3081612a42565b6000612b3b83610de7565b90506000612b48846119e6565b90506040518060e001604052808681526020016040518060c0016040528060008152602001600081526020016000815260200160008152602001428152602001612b9e6101cd5442612f7a90919063ffffffff16565b81525081526020016000815260200160008152602001856001811115612bc057fe5b81526020808201849052604091820185905260008681526101d18252829020835181558382015180516001808401919091559281015160028301558084015160038301556060808201516004840155608080830151600585015560a0909201516006840155938501516007830155928401516008820155918301516009830180549192909160ff1916908381811115612c5557fe5b021790555060a0820151600a82015560c090910151600b90910155612c7a8684614195565b60008381526101d160205260409020612c969061230c9061394c565b6101ce556001600160a01b0387163014612cb957612cb987308761233588613b49565b82866001600160a01b03167fcc10169be2ad544347561e230939849af48d1714c052d7fe247d12f3decb4896878786604051612cf793929190615dc2565b60405180910390a35050949350505050565b600080612d1584614259565b612d315760405162461bcd60e51b8152600401610a519061591a565b612d39613739565b612d555760405162461bcd60e51b8152600401610a51906153c2565b6101c354600090612d6e906001600160a01b0316614284565b90506000816001600160a01b03166370a08231306040518263ffffffff1660e01b8152600401612d9e91906151a1565b60206040518083038186803b158015612db657600080fd5b505afa158015612dca573d6000803e3d6000fd5b505050506040513d601f19601f82011682018060405250810190612dee9190614f65565b6101c354909150612e07906001600160a01b03166130bb565b6001600160a01b0316632e1a7d4d866040518263ffffffff1660e01b8152600401612e3291906152fd565b602060405180830381600087803b158015612e4c57600080fd5b505af1158015612e60573d6000803e3d6000fd5b505050506040513d601f19601f82011682018060405250810190612e849190614f65565b9350612f0c826001600160a01b03166370a08231306040518263ffffffff1660e01b8152600401612eb591906151a1565b60206040518083038186803b158015612ecd57600080fd5b505afa158015612ee1573d6000803e3d6000fd5b505050506040513d601f19601f82011682018060405250810190612f059190614f65565b82906139b8565b9250612f188684613a34565b6101c354612f369033908690610d81906001600160a01b03166137cd565b50505b9250929050565b6000848411612f50575080610c7e565b610c7b612f74612f6086886139b8565b610f86612f6d878a6139b8565b8690613081565b8361428f565b6000828201838110156111a85760405162461bcd60e51b8152600401610a5190615555565b6000610ca382614191565b6003820154612fb99082612f7a565b82600301819055505050565b6101c354600090610cb5906001600160a01b03166142a5565b610b098363a9059cbb60e01b8484604051602401612ffd929190615267565b60408051601f198184030181529190526020810180516001600160e01b03166001600160e01b0319909316929092179091526142b0565b6000610ca382614395565b60006111a883836040518060400160405280601a81526020017f536166654d6174683a206469766973696f6e206279207a65726f0000000000008152506143ad565b60008261309057506000610ca3565b8282028284828161309d57fe5b04146111a85760405162461bcd60e51b8152600401610a5190615936565b6000610ca3826143e4565b60006130d1826129c3565b6130ed5760405162461bcd60e51b8152600401610a519061571e565b60006130f88361173a565b9050806001600160a01b0316846001600160a01b031614806131335750836001600160a01b031661312884610a2a565b6001600160a01b0316145b80610c7e5750610c7e81856128b9565b826001600160a01b03166131568261173a565b6001600160a01b03161461317c5760405162461bcd60e51b8152600401610a5190615a2d565b6001600160a01b0382166131a25760405162461bcd60e51b8152600401610a5190615656565b6131ad8383836143fc565b6131b86000826129d4565b6001600160a01b038316600090815260c9602052604090206131da9082614407565b506001600160a01b038216600090815260c9602052604090206131fd9082614413565b5061320a60ca828461441f565b5080826001600160a01b0316846001600160a01b03167fddf252ad1be2c89b69c2b068fc378daa952ba7f163c4a11628f55a4df523b3ef60405160405180910390a4505050565b60006001600160a01b03821663b93f9b0a60055b6040518263ffffffff1660e01b815260040161328191906152fd565b60206040518083038186803b15801561329957600080fd5b505afa1580156132ad573d6000803e3d6000fd5b505050506040513d601f19601f82011682018060405250810190610ca39190614c32565b6000808311806132e15750600082115b6132fd5760405162461bcd60e51b8152600401610a5190615537565b6101c354600090613316906001600160a01b03166137cd565b6101c354909150600090613332906001600160a01b0316614284565b6101c35490915060009061334e906001600160a01b0316613034565b9050851561337f5761336b6001600160a01b0383168930896137d8565b61337f6001600160a01b03831682886137f9565b84156133ae5761339a6001600160a01b0384168930886137d8565b6133ae6001600160a01b03841682876137f9565b600061344a600a610f866009856001600160a01b0316638d8ea72760405180604001604052808e81526020018d8152506040518263ffffffff1660e01b81526004016133fa9190615280565b60206040518083038186803b15801561341257600080fd5b505afa158015613426573d6000803e3d6000fd5b505050506040513d601f19601f820116820180604052508101906119979190614f65565b604080518082018252898152602081018990529051637328333b60e01b81529192506001600160a01b03841691637328333b916134909185906000908e9060040161528e565b602060405180830381600087803b1580156134aa57600080fd5b505af11580156134be573d6000803e3d6000fd5b505050506040513d601f19601f820116820180604052508101906134e29190614f65565b9998505050505050505050565b60008281526065602052604090206135079082614435565b15611182576135146129d0565b6001600160a01b0316816001600160a01b0316837f2f8788117e7eff1d82e926ec794901d17c78024a50270940304540a733656f0d60405160405180910390a45050565b60006111a8838361444a565b600061356f83614259565b61358b5760405162461bcd60e51b8152600401610a519061591a565b6101c3546135a1906001600160a01b03166130bb565b6001600160a01b03166358031d12836040518263ffffffff1660e01b81526004016135cc91906152fd565b602060405180830381600087803b1580156135e657600080fd5b505af11580156135fa573d6000803e3d6000fd5b505050506040513d601f19601f8201168201806040525081019061361e9190614f65565b905061362a8383613a34565b6101c354610ca39033908390610d81906001600160a01b03166137cd565b6000828152606560205260409020613660908261448f565b156111825761366d6129d0565b6001600160a01b0316816001600160a01b0316837ff6391f5c32d9c69d2a47ea670b442974b53935d1edc7fd64eb21e047a839171b60405160405180910390a45050565b60fb5460ff166136d35760405162461bcd60e51b8152600401610a519061542d565b60fb805460ff191690557f5db9ee0a495bf2e6ff9c91a7834c1ba4fdd244a5e8aa4e537bd38aeae4b073aa6137066129d0565b60405161371391906151a1565b60405180910390a1565b600080808061372c86866144a4565b9097909650945050505050565b6101c354600090613752906001600160a01b0316614500565b6001600160a01b031663a37b92c9336040518263ffffffff1660e01b815260040161377d91906151a1565b60206040518083038186803b15801561379557600080fd5b505afa1580156137a9573d6000803e3d6000fd5b505050506040513d601f19601f82011682018060405250810190610cb59190614e95565b6000610ca382613251565b61255c846323b872dd60e01b858585604051602401612ffd93929190615243565b600061387d82856001600160a01b031663dd62ed3e30876040518363ffffffff1660e01b815260040161382d929190615229565b60206040518083038186803b15801561384557600080fd5b505afa158015613859573d6000803e3d6000fd5b505050506040513d601f19601f82011682018060405250810190610c9d9190614f65565b905061255c8463095ea7b360e01b8584604051602401612ffd929190615267565b6000610c7e84848461450b565b6000610cb5600080516020615f2283398151915261078a6129d0565b60006138d161456a565b6001600160a01b031663313ce5676040518163ffffffff1660e01b815260040160206040518083038186803b15801561390957600080fd5b505afa15801561391d573d6000803e3d6000fd5b505050506040513d601f19601f820116820180604052508101906139419190615057565b60ff16600a0a905090565b6000610ca382600001546122fe84613c36565b60fb5460ff16156139825760405162461bcd60e51b8152600401610a51906157ba565b60fb805460ff191660011790557f62e78cea01bee320cd4e420270b5ea74000d11b0c9f74754ebdbfc544b05a2586137066129d0565b60006111a883836040518060400160405280601e81526020017f536166654d6174683a207375627472616374696f6e206f766572666c6f770000815250614583565b60006111a8836001600160a01b0384166145af565b6000610ca38260030154611ac784600201548560010154612f7a90919063ffffffff16565b613a3e33836130c6565b613a5a5760405162461bcd60e51b8152600401610a51906154ad565b60008281526101d16020526040902080548215801590613a7a5750808311155b613a965760405162461bcd60e51b8152600401610a51906159c3565b613ab9613aaf84613aa685613c36565b61230786613c02565b6101ce54906139b8565b6101ce55613ac781846139b8565b8255613ad1613c1a565b613afe576000613aed82610f8686670de0b6b3a7640000613081565b9050613afc60018401826145c7565b505b6009820154604051859133917f47efae27a70cca1d3ad8e753ab4b48a413e554d244be5c7928fdfee407c37f5d91613b3b91889160ff1690615da6565b60405180910390a350505050565b60006001826001811115613b5957fe5b1415613bec576101c354613b75906001600160a01b0316613034565b6001600160a01b031663fc0c546a6040518163ffffffff1660e01b815260040160206040518083038186803b158015613bad57600080fd5b505afa158015613bc1573d6000803e3d6000fd5b505050506040513d601f19601f82011682018060405250810190613be59190614c32565b905061098e565b6101c354610ca3906001600160a01b0316614284565b600a81015460009015610f945750600a81015461098e565b6000610cb5600080516020615f4283398151915261078a6129d0565b600b81015460009015610f945750600b81015461098e565b6000610c7e670de0b6b3a7640000610f868181866119978a8a613081565b303b1590565b600054610100900460ff1680613c8b5750613c8b613c6c565b80613c99575060005460ff16155b613cb55760405162461bcd60e51b8152600401610a51906159df565b600054610100900460ff16158015613ce0576000805460ff1961ff0019909116610100171660011790555b8015613cf2576000805461ff00191690555b50565b600054610100900460ff1680613d0e5750613d0e613c6c565b80613d1c575060005460ff16155b613d385760405162461bcd60e51b8152600401610a51906159df565b600054610100900460ff16158015613d63576000805460ff1961ff0019909116610100171660011790555b613ce06301ffc9a760e01b614675565b600054610100900460ff1680613d8c5750613d8c613c6c565b80613d9a575060005460ff16155b613db65760405162461bcd60e51b8152600401610a51906159df565b600054610100900460ff16158015613de1576000805460ff1961ff0019909116610100171660011790555b8251613df49060ce906020860190614b41565b508151613e089060cf906020850190614b41565b50613e196380ac58cd60e01b614675565b613e29635b5e139f60e01b614675565b613e3963780e9d6360e01b614675565b8015610b09576000805461ff0019169055505050565b600054610100900460ff1680613e685750613e68613c6c565b80613e76575060005460ff16155b613e925760405162461bcd60e51b8152600401610a51906159df565b600054610100900460ff16158015613ebd576000805460ff1961ff0019909116610100171660011790555b60fb805460ff191690558015613cf2576000805461ff001916905550565b600054610100900460ff1680613ef45750613ef4613c6c565b80613f02575060005460ff16155b613f1e5760405162461bcd60e51b8152600401610a51906159df565b600054610100900460ff16158015613f49576000805460ff1961ff0019909116610100171660011790555b610191805460ff191660011790558015613cf2576000805461ff001916905550565b60009182526065602052604090912060020155565b613f8b848484613143565b613f97848484846146c4565b61255c5760405162461bcd60e51b8152600401610a519061545b565b60006101c454821015613fd85760405162461bcd60e51b8152600401610a5190615b23565b6101ce54613fe85750600061098e565b6000614010614007613ff86147fe565b6101c4546119979087906139b8565b6101c65461428f565b9050600061402d6101ce54610f866140266138c7565b8590613081565b9050818111156111a85760009250505061098e565b60608161406757506040805180820190915260018152600360fc1b602082015261098e565b8160005b811561407f57600101600a8204915061406b565b60608167ffffffffffffffff8111801561409857600080fd5b506040519080825280601f01601f1916602001820160405280156140c3576020820181803683370190505b50859350905060001982015b831561411457600a840660300160f81b828280600190039350815181106140f257fe5b60200101906001600160f81b031916908160001a905350600a840493506140cf565b50949350505050565b60006111a883836145af565b60006141478260040154836005015442614142866148d5565b612f40565b9050816001015481111561118257600061416e8360010154836139b890919063ffffffff16565b835490915061417d90826139b8565b835550600190910155565b80546001019055565b5490565b6001600160a01b0382166141bb5760405162461bcd60e51b8152600401610a51906158e5565b6141c4816129c3565b156141e15760405162461bcd60e51b8152600401610a5190615500565b6141ed600083836143fc565b6001600160a01b038216600090815260c96020526040902061420f9082614413565b5061421c60ca828461441f565b5060405181906001600160a01b038416906000907fddf252ad1be2c89b69c2b068fc378daa952ba7f163c4a11628f55a4df523b3ef908290a45050565b60008060008381526101d1602052604090206009015460ff16600181111561427d57fe5b1492915050565b6000610ca3826148e9565b600081831061429e57816111a8565b5090919050565b6000610ca382614901565b6142c2826001600160a01b0316614919565b6142de5760405162461bcd60e51b8152600401610a5190615c8b565b60006060836001600160a01b0316836040516142fa9190615104565b6000604051808303816000865af19150503d8060008114614337576040519150601f19603f3d011682016040523d82523d6000602084013e61433c565b606091505b50915091508161435e5760405162461bcd60e51b8152600401610a51906156e9565b80511561255c57808060200190518101906143799190614e95565b61255c5760405162461bcd60e51b8152600401610a5190615b90565b60006001600160a01b03821663b93f9b0a6016613265565b600081836143ce5760405162461bcd60e51b8152600401610a519190615322565b5060008385816143da57fe5b0495945050505050565b60006001600160a01b03821663b93f9b0a600e613265565b610b09838383614952565b60006111a88383614982565b60006111a88383614a48565b6000610c7e84846001600160a01b038516614a92565b60006111a8836001600160a01b038416614a48565b8154600090821061446d5760405162461bcd60e51b8152600401610a5190615335565b82600001828154811061447c57fe5b9060005260206000200154905092915050565b60006111a8836001600160a01b038416614982565b8154600090819083106144c95760405162461bcd60e51b8152600401610a5190615886565b60008460000184815481106144da57fe5b906000526020600020906002020190508060000154816001015492509250509250929050565b6000610ca382614b29565b6000828152600184016020526040812054828161453b5760405162461bcd60e51b8152600401610a519190615322565b5084600001600182038154811061454e57fe5b9060005260206000209060020201600101549150509392505050565b6101c354600090610cb5906001600160a01b0316614284565b600081848411156145a75760405162461bcd60e51b8152600401610a519190615322565b505050900390565b60009081526001919091016020526040902054151590565b670de0b6b3a76400008111156145ef5760405162461bcd60e51b8152600401610a519061558c565b815460009061460c90670de0b6b3a764000090610f869085613081565b90506000614633670de0b6b3a7640000610f8685876001015461308190919063ffffffff16565b845490915061464290836139b8565b8455600184015461465390826139b8565b600185015560028401546146679082612f7a565b846002018190555050505050565b6001600160e01b0319808216141561469f5760405162461bcd60e51b8152600401610a51906154c9565b6001600160e01b0319166000908152609760205260409020805460ff19166001179055565b60006146d8846001600160a01b0316614919565b6146e457506001610c7e565b600060606001600160a01b038616630a85bd0160e11b6147026129d0565b89888860405160240161471894939291906151b5565b60408051601f198184030181529181526020820180516001600160e01b03166001600160e01b03199094169390931790925290516147569190615104565b6000604051808303816000865af19150503d8060008114614793576040519150601f19603f3d011682016040523d82523d6000602084013e614798565b606091505b5091509150816147ca578051156147b25780518082602001fd5b60405162461bcd60e51b8152600401610a519061545b565b6000818060200190518101906147e09190614f2a565b6001600160e01b031916630a85bd0160e11b149350610c7e92505050565b600080614826670de0b6b3a7640000610f866101cb546101c85461308190919063ffffffff16565b9050600061484f670de0b6b3a7640000610f866101cc546101c85461308190919063ffffffff16565b6101ce549091508282116148695760009350505050610a27565b8281101561487f576101ca549350505050610a27565b81811115614895576101c9549350505050610a27565b6148cd6148c36148a584866139b8565b610f866148b285886139b8565b6101c9546101ca54611997916139b8565b6101ca54906139b8565b935050505090565b60018101548154600091610ca39190612f7a565b60006001600160a01b03821663b93f9b0a6004613265565b60006001600160a01b03821663b93f9b0a6012613265565b6000813f7fc5d2460186f7233c927e7db2dcc703c0e500b653ca82273b7bfad8045d85a470818114801590610c7e575050151592915050565b61495d838383610b09565b614965611731565b15610b095760405162461bcd60e51b8152600401610a5190615377565b60008181526001830160205260408120548015614a3e57835460001980830191908101906000908790839081106149b557fe5b90600052602060002001549050808760000184815481106149d257fe5b600091825260208083209091019290925582815260018981019092526040902090840190558654879080614a0257fe5b60019003818190600052602060002001600090559055866001016000878152602001908152602001600020600090556001945050505050610ca3565b6000915050610ca3565b6000614a5483836145af565b614a8a57508154600181810184556000848152602080822090930184905584548482528286019093526040902091909155610ca3565b506000610ca3565b600082815260018401602052604081205480614af75750506040805180820182528381526020808201848152865460018181018955600089815284812095516002909302909501918255915190820155865486845281880190925292909120556111a8565b82856000016001830381548110614b0a57fe5b90600052602060002090600202016001018190555060009150506111a8565b60006001600160a01b03821663b93f9b0a6013613265565b828054600181600116156101000203166002900490600052602060002090601f016020900481019282601f10614b8257805160ff1916838001178555614baf565b82800160010185558215614baf579182015b82811115614baf578251825591602001919060010190614b94565b50614bbb929150614bbf565b5090565b5b80821115614bbb5760008155600101614bc0565b60008083601f840112614be5578182fd5b50813567ffffffffffffffff811115614bfc578182fd5b6020830191508360208083028501011115612f3957600080fd5b600060208284031215614c27578081fd5b81356111a881615ed9565b600060208284031215614c43578081fd5b81516111a881615ed9565b60008060408385031215614c60578081fd5b8235614c6b81615ed9565b91506020830135614c7b81615ed9565b809150509250929050565b600080600060608486031215614c9a578081fd5b8335614ca581615ed9565b92506020840135614cb581615ed9565b929592945050506040919091013590565b60008060008060808587031215614cdb578081fd5b8435614ce681615ed9565b9350602085810135614cf781615ed9565b935060408601359250606086013567ffffffffffffffff80821115614d1a578384fd5b818801915088601f830112614d2d578384fd5b813581811115614d3b578485fd5b604051601f8201601f1916810185018381118282101715614d5a578687fd5b60405281815283820185018b1015614d70578586fd5b81858501868301379081019093019390935250939692955090935050565b60008060408385031215614da0578182fd5b8235614dab81615ed9565b91506020830135614c7b81615eee565b60008060408385031215614c60578182fd5b60008060408385031215614ddf578182fd5b8235614dea81615ed9565b946020939093013593505050565b600080600060608486031215614e0c578283fd5b8335614e1781615ed9565b95602085013595506040909401359392505050565b60008060008060408587031215614e41578384fd5b843567ffffffffffffffff80821115614e58578586fd5b614e6488838901614bd4565b90965094506020870135915080821115614e7c578384fd5b50614e8987828801614bd4565b95989497509550505050565b600060208284031215614ea6578081fd5b81516111a881615eee565b600060208284031215614ec2578081fd5b5035919050565b60008060408385031215614edb578182fd5b823591506020830135614c7b81615ed9565b60008060408385031215614eff578182fd5b50508035926020909101359150565b600060208284031215614f1f578081fd5b81356111a881615efc565b600060208284031215614f3b578081fd5b81516111a881615efc565b600060208284031215614f57578081fd5b8135600281106111a8578182fd5b600060208284031215614f76578081fd5b5051919050565b60008060408385031215614f8f578182fd5b82359150602083013560028110614c7b578182fd5b60008060008060808587031215614fb9578182fd5b5050823594602084013594506040840135936060013592509050565b600080600080600060a08688031215614fec578283fd5b505083359560208501359550604085013594606081013594506080013592509050565b600080600080600060a08688031215615026578283fd5b8535945060208601359350604086013561503f81615f12565b94979396509394606081013594506080013592915050565b600060208284031215615068578081fd5b81516111a881615f12565b8060005b600281101561255c578151845260209384019390910190600101615077565b81835260006001600160fb1b038311156150ae578081fd5b6020830280836020870137939093016020019283525090919050565b600081518084526150e2816020860160208601615ead565b601f01601f19169290920160200192915050565b6002811061510057fe5b9052565b60008251615116818460208701615ead565b9190910192915050565b600080845460018082166000811461513f576001811461515657615185565b60ff198316865260028304607f1686019350615185565b600283048886526020808720875b8381101561517d5781548a820152908501908201615164565b505050860193505b5050508351615198818360208801615ead565b01949350505050565b6001600160a01b0391909116815260200190565b6001600160a01b038581168252841660208201526040810183905260806060820181905260009061107b908301846150ca565b6001600160a01b0397881681529590961660208601526040850193909352606084019190915260ff16608083015260a082015260c081019190915260e00190565b6001600160a01b0392831681529116602082015260400190565b6001600160a01b039384168152919092166020820152604081019190915260600190565b6001600160a01b03929092168252602082015260400190565b60408101610ca38284615073565b60a0810161529c8287615073565b604082019490945291151560608301526001600160a01b0316608090910152919050565b6000604082526152d4604083018688615096565b82810360208401526152e7818587615096565b979650505050505050565b901515815260200190565b90815260200190565b6040810161531384615ea2565b82528260208301529392505050565b6000602082526111a860208301846150ca565b60208082526022908201527f456e756d657261626c655365743a20696e646578206f7574206f6620626f756e604082015261647360f01b606082015260800190565b6020808252602b908201527f4552433732315061757361626c653a20746f6b656e207472616e73666572207760408201526a1a1a5b19481c185d5cd95960aa1b606082015260800190565b60208082526002908201526111d360f21b604082015260600190565b6020808252602f908201527f416363657373436f6e74726f6c3a2073656e646572206d75737420626520616e60408201526e0818591b5a5b881d1bc819dc985b9d608a1b606082015260800190565b60208082526014908201527314185d5cd8589b194e881b9bdd081c185d5cd95960621b604082015260600190565b60208082526032908201527f4552433732313a207472616e7366657220746f206e6f6e20455243373231526560408201527131b2b4bb32b91034b6b83632b6b2b73a32b960711b606082015260800190565b602080825260029082015261105160f21b604082015260600190565b6020808252601c908201527f4552433136353a20696e76616c696420696e7465726661636520696400000000604082015260600190565b6020808252601c908201527f4552433732313a20746f6b656e20616c7265616479206d696e74656400000000604082015260600190565b6020808252600490820152635a45524f60e01b604082015260600190565b6020808252601b908201527f536166654d6174683a206164646974696f6e206f766572666c6f770000000000604082015260600190565b6020808252602f908201527f736c617368696e672070657263656e746167652063616e6e6f7420626520677260408201526e6561746572207468616e203130302560881b606082015260800190565b6020808252603e908201527f4552433732315072657365744d696e7465725061757365724175746f49643a2060408201527f6d75737420686176652070617573657220726f6c6520746f2070617573650000606082015260800190565b602080825260049082015263090928e960e31b604082015260600190565b60208082526024908201527f4552433732313a207472616e7366657220746f20746865207a65726f206164646040820152637265737360e01b606082015260800190565b60208082526019908201527822a9219b99189d1030b8383937bb32903a379031b0b63632b960391b604082015260600190565b602080825260029082015261141560f21b604082015260600190565b6020808252818101527f5361666545524332303a206c6f772d6c6576656c2063616c6c206661696c6564604082015260600190565b6020808252602c908201527f4552433732313a206f70657261746f7220717565727920666f72206e6f6e657860408201526b34b9ba32b73a103a37b5b2b760a11b606082015260800190565b60208082526030908201527f416363657373436f6e74726f6c3a2073656e646572206d75737420626520616e60408201526f2061646d696e20746f207265766f6b6560801b606082015260800190565b60208082526010908201526f14185d5cd8589b194e881c185d5cd95960821b604082015260600190565b60208082526038908201527f4552433732313a20617070726f76652063616c6c6572206973206e6f74206f776040820152771b995c881b9bdc88185c1c1c9bdd995908199bdc88185b1b60421b606082015260800190565b6020808252602a908201527f4552433732313a2062616c616e636520717565727920666f7220746865207a65604082015269726f206164647265737360b01b606082015260800190565b60208082526022908201527f456e756d657261626c654d61703a20696e646578206f7574206f6620626f756e604082015261647360f01b606082015260800190565b6020808252600390820152624c4f5760e81b604082015260600190565b6020808252818101527f4552433732313a206d696e7420746f20746865207a65726f2061646472657373604082015260600190565b602080825260029082015261435760f01b604082015260600190565b60208082526021908201527f536166654d6174683a206d756c7469706c69636174696f6e206f766572666c6f6040820152607760f81b606082015260800190565b6020808252602c908201527f4552433732313a20617070726f76656420717565727920666f72206e6f6e657860408201526b34b9ba32b73a103a37b5b2b760a11b606082015260800190565b602080825260029082015261494160f01b604082015260600190565b6020808252602e908201527f436f6e747261637420696e7374616e63652068617320616c726561647920626560408201526d195b881a5b9a5d1a585b1a5e995960921b606082015260800190565b60208082526029908201527f4552433732313a207472616e73666572206f6620746f6b656e2074686174206960408201526839903737ba1037bbb760b91b606082015260800190565b6020808252602f908201527f4552433732314d657461646174613a2055524920717565727920666f72206e6f60408201526e3732bc34b9ba32b73a103a37b5b2b760891b606082015260800190565b6020808252600390820152622622a760e91b604082015260600190565b60208082526021908201527f4552433732313a20617070726f76616c20746f2063757272656e74206f776e656040820152603960f91b606082015260800190565b602080825260029082015261125560f21b604082015260600190565b60208082526031908201527f4552433732313a207472616e736665722063616c6c6572206973206e6f74206f6040820152701ddb995c881b9bdc88185c1c1c9bdd9959607a1b606082015260800190565b6020808252602a908201527f5361666545524332303a204552433230206f7065726174696f6e20646964206e6040820152691bdd081cdd58d8d9595960b21b606082015260800190565b602080825260029082015261049560f41b604082015260600190565b6020808252601f908201527f5265656e7472616e637947756172643a207265656e7472616e742063616c6c00604082015260600190565b602080825260409082018190527f4552433732315072657365744d696e7465725061757365724175746f49643a20908201527f6d75737420686176652070617573657220726f6c6520746f20756e7061757365606082015260800190565b6020808252601f908201527f5361666545524332303a2063616c6c20746f206e6f6e2d636f6e747261637400604082015260600190565b6020808252602f908201527f416363657373436f6e74726f6c3a2063616e206f6e6c792072656e6f756e636560408201526e103937b632b9903337b91039b2b63360891b606082015260800190565b600086825260606020830152615d2b606083018688615096565b8281036040840152615d3e818587615096565b98975050505050505050565b60008582526020606081840152615d65606084018688615096565b8381036040850152845180825282860191830190845b81811015615d9757835183529284019291840191600101615d7b565b50909998505050505050505050565b82815260408101615db683615ea2565b60208301529392505050565b83815260608101615dd660208301856150f6565b826040830152949350505050565b60006101808201905088825287516020830152602088015160408301526040880151606083015260608801516080830152608088015160a083015260a088015160c08301528660e083015285610100830152615e446101208301866150f6565b610140820193909352610160015295945050505050565b918252602082015260400190565b9283526020830191909152604082015260600190565b948552602085019390935260408401919091526060830152608082015260a00190565b806002811061098e57fe5b60005b83811015615ec8578181015183820152602001615eb0565b8381111561255c5750506000910152565b6001600160a01b0381168114613cf257600080fd5b8015158114613cf257600080fd5b6001600160e01b031981168114613cf257600080fd5b60ff81168114613cf257600080fdfeb19546dff01e856fb3f010c267a7b1c60363cf8a4664e21cc89c26224620214ed624b04b6a86de88625cc0780256b85157c5a615db56d1357e0a97a30fde27674552433732313a206f776e657220717565727920666f72206e6f6e6578697374656e7420746f6b656e65d7a28e3265b37a6474929f336521b332c1681b933f6cb9f3376673440d862aa26469706673582212201130d0faacb68b13dad55d49c8fc2cf269b988a77175552f6dfe8b1613ceef7664736f6c634300060c0033",
  "devdoc": {
    "kind": "dev",
    "methods": {
      "addToStake(uint256,uint256)": {
        "details": "This function checkpoints rewards and is only callable by an approved address with ZAPPER_ROLE. This   function enables the Zapper to unwind \"in-progress\" positions initiated by `Zapper.zapStakeToTranchedPool`.   That is, funds that were moved from this contract into a TranchedPool can be \"unwound\" back to their original   staked position by the Zapper as part of `Zapper.unzapToStakingRewards`.",
        "params": {
          "amount": "Amount of `stakingToken()` to be added to tokenId's position",
          "tokenId": "A staking position token ID"
        }
      },
      "approve(address,uint256)": {
        "details": "Approves another address to transfer the given token ID The zero address indicates there is no approved address. There can only be one approved address per token at a given time. Can only be called by the token owner or an approved operator.",
        "params": {
          "to": "address to be approved for the given token ID",
          "tokenId": "uint256 ID of the token to be approved"
        }
      },
      "balanceOf(address)": {
        "details": "Gets the balance of the specified address.",
        "params": {
          "owner": "address to query the balance of"
        },
        "returns": {
          "_0": "uint256 representing the amount owned by the passed address"
        }
      },
      "baseURI()": {
        "details": "Returns the base URI set via {_setBaseURI}. This will be automatically added as a prefix in {tokenURI} to each token's URI, or to the token ID if no specific URI is set for that token ID."
      },
      "claimableRewards(uint256)": {
        "returns": {
          "rewards": "Amount of rewards denominated in `rewardsToken()`"
        }
      },
      "currentEarnRatePerToken()": {
        "returns": {
          "_0": "Amount of rewards denominated in `rewardsToken().decimals()`."
        }
      },
      "depositAndStake(uint256)": {
        "params": {
          "usdcAmount": "The amount of USDC to deposit into the senior pool. All shares from deposit   will be staked."
        }
      },
      "depositToCurve(uint256,uint256)": {
        "params": {
          "fiduAmount": "The amount of FIDU to deposit",
          "usdcAmount": "The amount of USDC to deposit"
        }
      },
      "depositToCurveAndStakeFrom(address,uint256,uint256)": {
        "params": {
          "fiduAmount": "The amount of FIDU to deposit",
          "usdcAmount": "The amount of USDC to deposit"
        }
      },
      "depositWithPermitAndStake(uint256,uint256,uint8,bytes32,bytes32)": {
        "params": {
          "r": "secp256k1 signature component",
          "s": "secp256k1 signature component",
          "usdcAmount": "The amount of USDC to deposit",
          "v": "secp256k1 signature component"
        }
      },
      "earnedSinceLastCheckpoint(uint256)": {
        "params": {
          "tokenId": "A staking position token ID"
        },
        "returns": {
          "_0": "Amount of rewards denominated in `rewardsToken().decimals()`"
        }
      },
      "getApproved(uint256)": {
        "details": "Gets the approved address for a token ID, or zero if no address set Reverts if the token ID does not exist.",
        "params": {
          "tokenId": "uint256 ID of the token to query the approval of"
        },
        "returns": {
          "_0": "address currently approved for the given token ID"
        }
      },
      "getBaseTokenExchangeRate(uint8)": {
        "params": {
          "positionType": "Type of the staked postion"
        }
      },
      "getReward(uint256)": {
        "params": {
          "tokenId": "A staking position token ID"
        }
      },
      "getRoleAdmin(bytes32)": {
        "details": "Returns the admin role that controls `role`. See {grantRole} and {revokeRole}. To change a role's admin, use {_setRoleAdmin}."
      },
      "getRoleMember(bytes32,uint256)": {
        "details": "Returns one of the accounts that have `role`. `index` must be a value between 0 and {getRoleMemberCount}, non-inclusive. Role bearers are not sorted in any particular way, and their ordering may change at any point. WARNING: When using {getRoleMember} and {getRoleMemberCount}, make sure you perform all queries on the same block. See the following https://forum.openzeppelin.com/t/iterating-over-elements-on-enumerableset-in-openzeppelin-contracts/2296[forum post] for more information."
      },
      "getRoleMemberCount(bytes32)": {
        "details": "Returns the number of accounts that have `role`. Can be used together with {getRoleMember} to enumerate all bearers of a role."
      },
      "grantRole(bytes32,address)": {
        "details": "Grants `role` to `account`. If `account` had not been already granted `role`, emits a {RoleGranted} event. Requirements: - the caller must have ``role``'s admin role."
      },
      "hasRole(bytes32,address)": {
        "details": "Returns `true` if `account` has been granted `role`."
      },
      "isApprovedForAll(address,address)": {
        "details": "Tells whether an operator is approved by a given owner.",
        "params": {
          "operator": "operator address which you want to query the approval of",
          "owner": "owner address which you want to query the approval of"
        },
        "returns": {
          "_0": "bool whether the given operator is approved by the given owner"
        }
      },
      "kick(uint256)": {
        "details": "This will also checkpoint their rewards up to the current time."
      },
      "name()": {
        "details": "Gets the token name.",
        "returns": {
          "_0": "string representing the token name"
        }
      },
      "ownerOf(uint256)": {
        "details": "Gets the owner of the specified token ID.",
        "params": {
          "tokenId": "uint256 ID of the token to query the owner of"
        },
        "returns": {
          "_0": "address currently marked as the owner of the given token ID"
        }
      },
      "pause()": {
        "details": "Pauses all token transfers. See {ERC721Pausable} and {Pausable-_pause}. Requirements: - the caller must have the `PAUSER_ROLE`."
      },
      "paused()": {
        "details": "Returns true if the contract is paused, and false otherwise."
      },
      "positionCurrentEarnRate(uint256)": {
        "returns": {
          "_0": "Amount of rewards denominated in `rewardsToken().decimals()`."
        }
      },
      "renounceRole(bytes32,address)": {
        "details": "Revokes `role` from the calling account. Roles are often managed via {grantRole} and {revokeRole}: this function's purpose is to provide a mechanism for accounts to lose their privileges if they are compromised (such as when a trusted device is misplaced). If the calling account had been granted `role`, emits a {RoleRevoked} event. Requirements: - the caller must be `account`."
      },
      "revokeRole(bytes32,address)": {
        "details": "Revokes `role` from `account`. If `account` had been granted `role`, emits a {RoleRevoked} event. Requirements: - the caller must have ``role``'s admin role."
      },
      "rewardPerToken()": {
        "returns": {
          "_0": "Amount of rewards denominated in `rewardsToken().decimals()`"
        }
      },
      "safeTransferFrom(address,address,uint256)": {
        "details": "Safely transfers the ownership of a given token ID to another address If the target address is a contract, it must implement {IERC721Receiver-onERC721Received}, which is called upon a safe transfer, and return the magic value `bytes4(keccak256(\"onERC721Received(address,address,uint256,bytes)\"))`; otherwise, the transfer is reverted. Requires the msg.sender to be the owner, approved, or operator",
        "params": {
          "from": "current owner of the token",
          "to": "address to receive the ownership of the given token ID",
          "tokenId": "uint256 ID of the token to be transferred"
        }
      },
      "safeTransferFrom(address,address,uint256,bytes)": {
        "details": "Safely transfers the ownership of a given token ID to another address If the target address is a contract, it must implement {IERC721Receiver-onERC721Received}, which is called upon a safe transfer, and return the magic value `bytes4(keccak256(\"onERC721Received(address,address,uint256,bytes)\"))`; otherwise, the transfer is reverted. Requires the _msgSender() to be the owner, approved, or operator",
        "params": {
          "_data": "bytes data to send along with a safe transfer check",
          "from": "current owner of the token",
          "to": "address to receive the ownership of the given token ID",
          "tokenId": "uint256 ID of the token to be transferred"
        }
      },
      "setApprovalForAll(address,bool)": {
        "details": "Sets or unsets the approval of a given operator An operator is allowed to transfer all tokens of the sender on their behalf.",
        "params": {
          "approved": "representing the status of the approval to be set",
          "operator": "operator address to set the approval"
        }
      },
      "setEffectiveMultiplier(uint256,uint8)": {
        "params": {
          "multiplier": "the new multiplier, denominated in `MULTIPLIER_DECIMALS`",
          "positionType": "the type of the position"
        }
      },
      "stake(uint256,uint8)": {
        "details": "This function checkpoints rewards.",
        "params": {
          "amount": "The amount of `stakingToken()` to stake",
          "positionType": "The type of the staked position"
        },
        "returns": {
          "_0": "Id of the NFT representing the staked position"
        }
      },
      "stakedBalanceOf(uint256)": {
        "details": "The value returned is the bare amount, not the effective amount. The bare amount represents   the number of tokens the user has staked for a given position.",
        "params": {
          "tokenId": "A staking position token ID"
        },
        "returns": {
          "_0": "Amount of staked tokens denominated in `stakingToken().decimals()`"
        }
      },
      "supportsInterface(bytes4)": {
        "details": "See {IERC165-supportsInterface}. Time complexity O(1), guaranteed to always use less than 30 000 gas."
      },
      "symbol()": {
        "details": "Gets the token symbol.",
        "returns": {
          "_0": "string representing the token symbol"
        }
      },
      "tokenByIndex(uint256)": {
        "details": "Gets the token ID at a given index of all the tokens in this contract Reverts if the index is greater or equal to the total number of tokens.",
        "params": {
          "index": "uint256 representing the index to be accessed of the tokens list"
        },
        "returns": {
          "_0": "uint256 token ID at the given index of the tokens list"
        }
      },
      "tokenOfOwnerByIndex(address,uint256)": {
        "details": "Gets the token ID at a given index of the tokens list of the requested owner.",
        "params": {
          "index": "uint256 representing the index to be accessed of the requested tokens list",
          "owner": "address owning the tokens list to be accessed"
        },
        "returns": {
          "_0": "uint256 token ID at the given index of the tokens list owned by the requested address"
        }
      },
      "tokenURI(uint256)": {
        "details": "Returns the URI for a given token ID. May return an empty string. If a base URI is set (via {_setBaseURI}), it is added as a prefix to the token's own URI (via {_setTokenURI}). If there is a base URI but no token URI, the token's ID will be used as its URI when appending it to the base URI. This pattern for autogenerated token URIs can lead to large gas savings. .Examples |=== |`_setBaseURI()` |`_setTokenURI()` |`tokenURI()` | \"\" | \"\" | \"\" | \"\" | \"token.uri/123\" | \"token.uri/123\" | \"token.uri/\" | \"123\" | \"token.uri/123\" | \"token.uri/\" | \"\" | \"token.uri/<tokenId>\" |=== Requirements: - `tokenId` must exist."
      },
      "totalSupply()": {
        "details": "Gets the total amount of tokens stored by the contract.",
        "returns": {
          "_0": "uint256 representing the total amount of tokens"
        }
      },
      "totalVestedAt(uint256,uint256,uint256,uint256)": {
        "returns": {
          "rewards": "Amount of rewards denominated in `rewardsToken()`"
        }
      },
      "transferFrom(address,address,uint256)": {
        "details": "Transfers the ownership of a given token ID to another address. Usage of this method is discouraged, use {safeTransferFrom} whenever possible. Requires the msg.sender to be the owner, approved, or operator.",
        "params": {
          "from": "current owner of the token",
          "to": "address to receive the ownership of the given token ID",
          "tokenId": "uint256 ID of the token to be transferred"
        }
      },
      "unpause()": {
        "details": "Unpauses all token transfers. See {ERC721Pausable} and {Pausable-_unpause}. Requirements: - the caller must have the `PAUSER_ROLE`."
      },
      "unstake(uint256,uint256)": {
        "details": "This function checkpoints rewards",
        "params": {
          "amount": "Amount of `stakingToken()` to be unstaked from the position",
          "tokenId": "A staking position token ID"
        }
      },
      "unstakeMultiple(uint256[],uint256[])": {
        "details": "This function checkpoints rewards",
        "params": {
          "amounts": "A list of amounts of `stakingToken()` to be unstaked from the position",
          "tokenIds": "A list of position token IDs"
        }
      },
      "updatePositionEffectiveMultiplier(uint256)": {
        "details": "This will also checkpoint their rewards up to the current time."
      }
    },
    "stateVariables": {
      "effectiveMultipliers": {
        "details": "A mapping of staked position types to multipliers used to denominate positions   in `baseStakingToken()`. Represented with `MULTIPLIER_DECIMALS`."
      },
      "leverageMultipliers": {
        "details": "UNUSED (definition kept for storage slot)"
      },
      "positions": {
        "details": "NFT tokenId => staked position"
      },
      "totalLeveragedStakedSupply": {
        "details": "UNUSED (definition kept for storage slot)"
      },
      "totalStakedSupply": {
        "details": "Supply of staked tokens, denominated in `stakingToken().decimals()`Note that due to the use of `unsafeBaseTokenExchangeRate` and `unsafeEffectiveMultiplier` on a StakedPosition, the sum of `amount` across all staked positions will not necessarily equal this `totalStakedSupply` value; the purpose of the base token exchange rate and the effective multiplier is to enable calculation of an \"effective amount\" -- which is what this `totalStakedSupply` represents the sum of."
      }
    },
    "version": 1
  },
  "userdoc": {
    "kind": "user",
    "methods": {
      "accumulatedRewardsPerToken()": {
        "notice": "Accumulated rewards per token at the last checkpoint"
      },
      "addToStake(uint256,uint256)": {
        "notice": "Add to an existing position without affecting vesting schedule"
      },
      "claimableRewards(uint256)": {
        "notice": "Returns the rewards claimable by a given position token at the most recent checkpoint, taking into   account vesting schedule."
      },
      "currentEarnRatePerToken()": {
        "notice": "The amount of rewards currently being earned per token per second. This amount takes into   account how many rewards are actually available for disbursal -- unlike `rewardRate()` which does not.   This function is intended for public consumption, to know the rate at which rewards are being   earned, and not as an input to the mutative calculations in this contract."
      },
      "depositAndStake(uint256)": {
        "notice": "Deposit to SeniorPool and stake your shares in the same transaction."
      },
      "depositToCurve(uint256,uint256)": {
        "notice": "Deposits FIDU and USDC to Curve on behalf of the user. The Curve LP tokens will be minted   directly to the user's address"
      },
      "depositToCurveAndStakeFrom(address,uint256,uint256)": {
        "notice": "Deposit to FIDU and USDC into the Curve LP, and stake your Curve LP tokens in the same transaction."
      },
      "depositWithPermitAndStake(uint256,uint256,uint8,bytes32,bytes32)": {
        "notice": "Identical to `depositAndStake`, except it allows for a signature to be passed that permits   this contract to move funds on behalf of the user."
      },
      "earnedSinceLastCheckpoint(uint256)": {
        "notice": "Returns rewards earned by a given position token from its last checkpoint up to the   current block timestamp."
      },
      "getBaseTokenExchangeRate(uint8)": {
        "notice": "Calculate the exchange rate that will be used to convert the original staked token amount to the   `baseStakingToken()` amount. The exchange rate is denominated in `MULTIPLIER_DECIMALS`."
      },
      "getEffectiveMultiplierForPositionType(uint8)": {
        "notice": "The effective multiplier to use with new staked positions of the provided `positionType`,   for denominating them in terms of `baseStakingToken()`. This value is denominated in `MULTIPLIER_DECIMALS`."
      },
      "getReward(uint256)": {
        "notice": "Claim rewards for a given staked position"
      },
      "kick(uint256)": {
        "notice": "\"Kick\" a user's reward multiplier. If they are past their lock-up period, their reward   multiplier will be reset to 1x."
      },
      "lastUpdateTime()": {
        "notice": "The block timestamp when rewards were last checkpointed"
      },
      "loadRewards(uint256)": {
        "notice": "Transfer rewards from msg.sender, to be used for reward distribution"
      },
      "maxRate()": {
        "notice": "The maximum total disbursed rewards per second, denominated in `rewardsToken()`"
      },
      "maxRateAtPercent()": {
        "notice": "The percent of `targetCapacity` at which the reward rate reaches `maxRate`.  Represented with `MULTIPLIER_DECIMALS`."
      },
      "minRate()": {
        "notice": "The minimum total disbursed rewards per second, denominated in `rewardsToken()`"
      },
      "minRateAtPercent()": {
        "notice": "The percent of `targetCapacity` at which the reward rate reaches `minRate`.  Represented with `MULTIPLIER_DECIMALS`."
      },
      "positionCurrentEarnRate(uint256)": {
        "notice": "The amount of rewards currently being earned per second, for a given position. This function   is intended for public consumption, to know the rate at which rewards are being earned   for a given position, and not as an input to the mutative calculations in this contract."
      },
      "positionToAccumulatedRewardsPerToken(uint256)": {
        "notice": "StakedPosition tokenId => accumulatedRewardsPerToken at the position's last checkpoint"
      },
      "rewardPerToken()": {
        "notice": "Returns accumulated rewards per token up to the current block timestamp"
      },
      "rewardsAvailable()": {
        "notice": "Total rewards available for disbursement at the last checkpoint, denominated in `rewardsToken()`"
      },
      "setEffectiveMultiplier(uint256,uint8)": {
        "notice": "Set the effective multiplier for a given staked position type. The effective multipler  is used to denominate a staked position to `baseStakingToken()`. The multiplier is represented in  `MULTIPLIER_DECIMALS`"
      },
      "stake(uint256,uint8)": {
        "notice": "Stake `stakingToken()` to earn rewards. When you call this function, you'll receive an   an NFT representing your staked position. You can present your NFT to `getReward` or `unstake`   to claim rewards or unstake your tokens respectively. Rewards vest over a schedule."
      },
      "stakedBalanceOf(uint256)": {
        "notice": "Returns the staked balance of a given position token."
      },
      "targetCapacity()": {
        "notice": "Desired supply of staked tokens. The reward rate adjusts in a range   around this value to incentivize staking or unstaking to maintain it."
      },
      "totalVestedAt(uint256,uint256,uint256,uint256)": {
        "notice": "Returns the rewards that will have vested for some position with the given params."
      },
      "unstake(uint256,uint256)": {
        "notice": "Unstake an amount of `stakingToken()` associated with a given position and transfer to msg.sender.   Unvested rewards will be forfeited, but remaining staked amount will continue to accrue rewards."
      },
      "unstakeMultiple(uint256[],uint256[])": {
        "notice": "Unstake multiple positions and transfer to msg.sender."
      },
      "updatePositionEffectiveMultiplier(uint256)": {
        "notice": "Updates a user's effective multiplier to the prevailing multiplier. This function gives   users an option to get on a higher multiplier without needing to unstake and lose their unvested tokens."
      },
      "vestingLength()": {
        "notice": "The duration in seconds over which rewards vest"
      }
    },
    "version": 1
  },
  "storageLayout": {
    "storage": [
      {
        "astId": 151,
        "contract": "contracts/rewards/StakingRewards.sol:StakingRewards",
        "label": "initialized",
        "offset": 0,
        "slot": "0",
        "type": "t_bool"
      },
      {
        "astId": 154,
        "contract": "contracts/rewards/StakingRewards.sol:StakingRewards",
        "label": "initializing",
        "offset": 1,
        "slot": "0",
        "type": "t_bool"
      },
      {
        "astId": 219,
        "contract": "contracts/rewards/StakingRewards.sol:StakingRewards",
        "label": "______gap",
        "offset": 0,
        "slot": "1",
        "type": "t_array(t_uint256)50_storage"
      },
      {
        "astId": 144,
        "contract": "contracts/rewards/StakingRewards.sol:StakingRewards",
        "label": "__gap",
        "offset": 0,
        "slot": "51",
        "type": "t_array(t_uint256)50_storage"
      },
      {
        "astId": 264,
        "contract": "contracts/rewards/StakingRewards.sol:StakingRewards",
        "label": "_roles",
        "offset": 0,
        "slot": "101",
        "type": "t_mapping(t_bytes32,t_struct(RoleData)260_storage)"
      },
      {
        "astId": 509,
        "contract": "contracts/rewards/StakingRewards.sol:StakingRewards",
        "label": "__gap",
        "offset": 0,
        "slot": "102",
        "type": "t_array(t_uint256)49_storage"
      },
      {
        "astId": 6541,
        "contract": "contracts/rewards/StakingRewards.sol:StakingRewards",
        "label": "_supportedInterfaces",
        "offset": 0,
        "slot": "151",
        "type": "t_mapping(t_bytes4,t_bool)"
      },
      {
        "astId": 6598,
        "contract": "contracts/rewards/StakingRewards.sol:StakingRewards",
        "label": "__gap",
        "offset": 0,
        "slot": "152",
        "type": "t_array(t_uint256)49_storage"
      },
      {
        "astId": 6648,
        "contract": "contracts/rewards/StakingRewards.sol:StakingRewards",
        "label": "_holderTokens",
        "offset": 0,
        "slot": "201",
        "type": "t_mapping(t_address,t_struct(UintSet)3192_storage)"
      },
      {
        "astId": 6650,
        "contract": "contracts/rewards/StakingRewards.sol:StakingRewards",
        "label": "_tokenOwners",
        "offset": 0,
        "slot": "202",
        "type": "t_struct(UintToAddressMap)2717_storage"
      },
      {
        "astId": 6654,
        "contract": "contracts/rewards/StakingRewards.sol:StakingRewards",
        "label": "_tokenApprovals",
        "offset": 0,
        "slot": "204",
        "type": "t_mapping(t_uint256,t_address)"
      },
      {
        "astId": 6660,
        "contract": "contracts/rewards/StakingRewards.sol:StakingRewards",
        "label": "_operatorApprovals",
        "offset": 0,
        "slot": "205",
        "type": "t_mapping(t_address,t_mapping(t_address,t_bool))"
      },
      {
        "astId": 6662,
        "contract": "contracts/rewards/StakingRewards.sol:StakingRewards",
        "label": "_name",
        "offset": 0,
        "slot": "206",
        "type": "t_string_storage"
      },
      {
        "astId": 6664,
        "contract": "contracts/rewards/StakingRewards.sol:StakingRewards",
        "label": "_symbol",
        "offset": 0,
        "slot": "207",
        "type": "t_string_storage"
      },
      {
        "astId": 6668,
        "contract": "contracts/rewards/StakingRewards.sol:StakingRewards",
        "label": "_tokenURIs",
        "offset": 0,
        "slot": "208",
        "type": "t_mapping(t_uint256,t_string_storage)"
      },
      {
        "astId": 6670,
        "contract": "contracts/rewards/StakingRewards.sol:StakingRewards",
        "label": "_baseURI",
        "offset": 0,
        "slot": "209",
        "type": "t_string_storage"
      },
      {
        "astId": 7576,
        "contract": "contracts/rewards/StakingRewards.sol:StakingRewards",
        "label": "__gap",
        "offset": 0,
        "slot": "210",
        "type": "t_array(t_uint256)41_storage"
      },
      {
        "astId": 3308,
        "contract": "contracts/rewards/StakingRewards.sol:StakingRewards",
        "label": "_paused",
        "offset": 0,
        "slot": "251",
        "type": "t_bool"
      },
      {
        "astId": 3397,
        "contract": "contracts/rewards/StakingRewards.sol:StakingRewards",
        "label": "__gap",
        "offset": 0,
        "slot": "252",
        "type": "t_array(t_uint256)49_storage"
      },
      {
        "astId": 7644,
        "contract": "contracts/rewards/StakingRewards.sol:StakingRewards",
        "label": "__gap",
        "offset": 0,
        "slot": "301",
        "type": "t_array(t_uint256)50_storage"
      },
      {
        "astId": 7676,
        "contract": "contracts/rewards/StakingRewards.sol:StakingRewards",
        "label": "_tokenIdTracker",
        "offset": 0,
        "slot": "351",
        "type": "t_struct(Counter)2397_storage"
      },
      {
        "astId": 7734,
        "contract": "contracts/rewards/StakingRewards.sol:StakingRewards",
        "label": "__gap",
        "offset": 0,
        "slot": "352",
        "type": "t_array(t_uint256)49_storage"
      },
      {
        "astId": 3406,
        "contract": "contracts/rewards/StakingRewards.sol:StakingRewards",
        "label": "_notEntered",
        "offset": 0,
        "slot": "401",
        "type": "t_bool"
      },
      {
        "astId": 3447,
        "contract": "contracts/rewards/StakingRewards.sol:StakingRewards",
        "label": "__gap",
        "offset": 0,
        "slot": "402",
        "type": "t_array(t_uint256)49_storage"
      },
      {
        "astId": 31854,
        "contract": "contracts/rewards/StakingRewards.sol:StakingRewards",
        "label": "config",
        "offset": 0,
        "slot": "451",
        "type": "t_contract(GoldfinchConfig)17540"
      },
      {
        "astId": 31857,
        "contract": "contracts/rewards/StakingRewards.sol:StakingRewards",
        "label": "lastUpdateTime",
        "offset": 0,
        "slot": "452",
        "type": "t_uint256"
      },
      {
        "astId": 31860,
        "contract": "contracts/rewards/StakingRewards.sol:StakingRewards",
        "label": "accumulatedRewardsPerToken",
        "offset": 0,
        "slot": "453",
        "type": "t_uint256"
      },
      {
        "astId": 31863,
        "contract": "contracts/rewards/StakingRewards.sol:StakingRewards",
        "label": "rewardsAvailable",
        "offset": 0,
        "slot": "454",
        "type": "t_uint256"
      },
      {
        "astId": 31868,
        "contract": "contracts/rewards/StakingRewards.sol:StakingRewards",
        "label": "positionToAccumulatedRewardsPerToken",
        "offset": 0,
        "slot": "455",
        "type": "t_mapping(t_uint256,t_uint256)"
      },
      {
        "astId": 31871,
        "contract": "contracts/rewards/StakingRewards.sol:StakingRewards",
        "label": "targetCapacity",
        "offset": 0,
        "slot": "456",
        "type": "t_uint256"
      },
      {
        "astId": 31874,
        "contract": "contracts/rewards/StakingRewards.sol:StakingRewards",
        "label": "minRate",
        "offset": 0,
        "slot": "457",
        "type": "t_uint256"
      },
      {
        "astId": 31877,
        "contract": "contracts/rewards/StakingRewards.sol:StakingRewards",
        "label": "maxRate",
        "offset": 0,
        "slot": "458",
        "type": "t_uint256"
      },
      {
        "astId": 31880,
        "contract": "contracts/rewards/StakingRewards.sol:StakingRewards",
        "label": "maxRateAtPercent",
        "offset": 0,
        "slot": "459",
        "type": "t_uint256"
      },
      {
        "astId": 31883,
        "contract": "contracts/rewards/StakingRewards.sol:StakingRewards",
        "label": "minRateAtPercent",
        "offset": 0,
        "slot": "460",
        "type": "t_uint256"
      },
      {
        "astId": 31886,
        "contract": "contracts/rewards/StakingRewards.sol:StakingRewards",
        "label": "vestingLength",
        "offset": 0,
        "slot": "461",
        "type": "t_uint256"
      },
      {
        "astId": 31889,
        "contract": "contracts/rewards/StakingRewards.sol:StakingRewards",
        "label": "totalStakedSupply",
        "offset": 0,
        "slot": "462",
        "type": "t_uint256"
      },
      {
        "astId": 31892,
        "contract": "contracts/rewards/StakingRewards.sol:StakingRewards",
        "label": "totalLeveragedStakedSupply",
        "offset": 0,
        "slot": "463",
        "type": "t_uint256"
      },
      {
        "astId": 31897,
        "contract": "contracts/rewards/StakingRewards.sol:StakingRewards",
        "label": "leverageMultipliers",
        "offset": 0,
        "slot": "464",
        "type": "t_mapping(t_enum(LockupPeriod)31763,t_uint256)"
      },
      {
        "astId": 31902,
        "contract": "contracts/rewards/StakingRewards.sol:StakingRewards",
        "label": "positions",
        "offset": 0,
        "slot": "465",
        "type": "t_mapping(t_uint256,t_struct(StakedPosition)31781_storage)"
      },
      {
        "astId": 31907,
        "contract": "contracts/rewards/StakingRewards.sol:StakingRewards",
        "label": "effectiveMultipliers",
        "offset": 0,
        "slot": "466",
        "type": "t_mapping(t_enum(StakedPositionType)31766,t_uint256)"
      }
    ],
    "types": {
      "t_address": {
        "encoding": "inplace",
        "label": "address",
        "numberOfBytes": "20"
      },
      "t_array(t_bytes32)dyn_storage": {
        "base": "t_bytes32",
        "encoding": "dynamic_array",
        "label": "bytes32[]",
        "numberOfBytes": "32"
      },
      "t_array(t_struct(MapEntry)2445_storage)dyn_storage": {
        "base": "t_struct(MapEntry)2445_storage",
        "encoding": "dynamic_array",
        "label": "struct EnumerableMap.MapEntry[]",
        "numberOfBytes": "32"
      },
      "t_array(t_uint256)41_storage": {
        "base": "t_uint256",
        "encoding": "inplace",
        "label": "uint256[41]",
        "numberOfBytes": "1312"
      },
      "t_array(t_uint256)49_storage": {
        "base": "t_uint256",
        "encoding": "inplace",
        "label": "uint256[49]",
        "numberOfBytes": "1568"
      },
      "t_array(t_uint256)50_storage": {
        "base": "t_uint256",
        "encoding": "inplace",
        "label": "uint256[50]",
        "numberOfBytes": "1600"
      },
      "t_bool": {
        "encoding": "inplace",
        "label": "bool",
        "numberOfBytes": "1"
      },
      "t_bytes32": {
        "encoding": "inplace",
        "label": "bytes32",
        "numberOfBytes": "32"
      },
      "t_bytes4": {
        "encoding": "inplace",
        "label": "bytes4",
        "numberOfBytes": "4"
      },
      "t_contract(GoldfinchConfig)17540": {
        "encoding": "inplace",
        "label": "contract GoldfinchConfig",
        "numberOfBytes": "20"
      },
      "t_enum(LockupPeriod)31763": {
        "encoding": "inplace",
        "label": "enum StakingRewards.LockupPeriod",
        "numberOfBytes": "1"
      },
      "t_enum(StakedPositionType)31766": {
        "encoding": "inplace",
        "label": "enum StakingRewards.StakedPositionType",
        "numberOfBytes": "1"
      },
      "t_mapping(t_address,t_bool)": {
        "encoding": "mapping",
        "key": "t_address",
        "label": "mapping(address => bool)",
        "numberOfBytes": "32",
        "value": "t_bool"
      },
      "t_mapping(t_address,t_mapping(t_address,t_bool))": {
        "encoding": "mapping",
        "key": "t_address",
        "label": "mapping(address => mapping(address => bool))",
        "numberOfBytes": "32",
        "value": "t_mapping(t_address,t_bool)"
      },
      "t_mapping(t_address,t_struct(UintSet)3192_storage)": {
        "encoding": "mapping",
        "key": "t_address",
        "label": "mapping(address => struct EnumerableSet.UintSet)",
        "numberOfBytes": "32",
        "value": "t_struct(UintSet)3192_storage"
      },
      "t_mapping(t_bytes32,t_struct(RoleData)260_storage)": {
        "encoding": "mapping",
        "key": "t_bytes32",
        "label": "mapping(bytes32 => struct AccessControlUpgradeSafe.RoleData)",
        "numberOfBytes": "32",
        "value": "t_struct(RoleData)260_storage"
      },
      "t_mapping(t_bytes32,t_uint256)": {
        "encoding": "mapping",
        "key": "t_bytes32",
        "label": "mapping(bytes32 => uint256)",
        "numberOfBytes": "32",
        "value": "t_uint256"
      },
      "t_mapping(t_bytes4,t_bool)": {
        "encoding": "mapping",
        "key": "t_bytes4",
        "label": "mapping(bytes4 => bool)",
        "numberOfBytes": "32",
        "value": "t_bool"
      },
      "t_mapping(t_enum(LockupPeriod)31763,t_uint256)": {
        "encoding": "mapping",
        "key": "t_enum(LockupPeriod)31763",
        "label": "mapping(enum StakingRewards.LockupPeriod => uint256)",
        "numberOfBytes": "32",
        "value": "t_uint256"
      },
      "t_mapping(t_enum(StakedPositionType)31766,t_uint256)": {
        "encoding": "mapping",
        "key": "t_enum(StakedPositionType)31766",
        "label": "mapping(enum StakingRewards.StakedPositionType => uint256)",
        "numberOfBytes": "32",
        "value": "t_uint256"
      },
      "t_mapping(t_uint256,t_address)": {
        "encoding": "mapping",
        "key": "t_uint256",
        "label": "mapping(uint256 => address)",
        "numberOfBytes": "32",
        "value": "t_address"
      },
      "t_mapping(t_uint256,t_string_storage)": {
        "encoding": "mapping",
        "key": "t_uint256",
        "label": "mapping(uint256 => string)",
        "numberOfBytes": "32",
        "value": "t_string_storage"
      },
      "t_mapping(t_uint256,t_struct(StakedPosition)31781_storage)": {
        "encoding": "mapping",
        "key": "t_uint256",
        "label": "mapping(uint256 => struct StakingRewards.StakedPosition)",
        "numberOfBytes": "32",
        "value": "t_struct(StakedPosition)31781_storage"
      },
      "t_mapping(t_uint256,t_uint256)": {
        "encoding": "mapping",
        "key": "t_uint256",
        "label": "mapping(uint256 => uint256)",
        "numberOfBytes": "32",
        "value": "t_uint256"
      },
      "t_string_storage": {
        "encoding": "bytes",
        "label": "string",
        "numberOfBytes": "32"
      },
      "t_struct(AddressSet)3083_storage": {
        "encoding": "inplace",
        "label": "struct EnumerableSet.AddressSet",
        "members": [
          {
            "astId": 3082,
            "contract": "contracts/rewards/StakingRewards.sol:StakingRewards",
            "label": "_inner",
            "offset": 0,
            "slot": "0",
            "type": "t_struct(Set)2903_storage"
          }
        ],
        "numberOfBytes": "64"
      },
      "t_struct(Counter)2397_storage": {
        "encoding": "inplace",
        "label": "struct Counters.Counter",
        "members": [
          {
            "astId": 2396,
            "contract": "contracts/rewards/StakingRewards.sol:StakingRewards",
            "label": "_value",
            "offset": 0,
            "slot": "0",
            "type": "t_uint256"
          }
        ],
        "numberOfBytes": "32"
      },
      "t_struct(Map)2453_storage": {
        "encoding": "inplace",
        "label": "struct EnumerableMap.Map",
        "members": [
          {
            "astId": 2448,
            "contract": "contracts/rewards/StakingRewards.sol:StakingRewards",
            "label": "_entries",
            "offset": 0,
            "slot": "0",
            "type": "t_array(t_struct(MapEntry)2445_storage)dyn_storage"
          },
          {
            "astId": 2452,
            "contract": "contracts/rewards/StakingRewards.sol:StakingRewards",
            "label": "_indexes",
            "offset": 0,
            "slot": "1",
            "type": "t_mapping(t_bytes32,t_uint256)"
          }
        ],
        "numberOfBytes": "64"
      },
      "t_struct(MapEntry)2445_storage": {
        "encoding": "inplace",
        "label": "struct EnumerableMap.MapEntry",
        "members": [
          {
            "astId": 2442,
            "contract": "contracts/rewards/StakingRewards.sol:StakingRewards",
            "label": "_key",
            "offset": 0,
            "slot": "0",
            "type": "t_bytes32"
          },
          {
            "astId": 2444,
            "contract": "contracts/rewards/StakingRewards.sol:StakingRewards",
            "label": "_value",
            "offset": 0,
            "slot": "1",
            "type": "t_bytes32"
          }
        ],
        "numberOfBytes": "64"
      },
      "t_struct(Rewards)11194_storage": {
        "encoding": "inplace",
        "label": "struct StakingRewardsVesting.Rewards",
        "members": [
          {
            "astId": 11183,
            "contract": "contracts/rewards/StakingRewards.sol:StakingRewards",
            "label": "totalUnvested",
            "offset": 0,
            "slot": "0",
            "type": "t_uint256"
          },
          {
            "astId": 11185,
            "contract": "contracts/rewards/StakingRewards.sol:StakingRewards",
            "label": "totalVested",
            "offset": 0,
            "slot": "1",
            "type": "t_uint256"
          },
          {
            "astId": 11187,
            "contract": "contracts/rewards/StakingRewards.sol:StakingRewards",
            "label": "totalPreviouslyVested",
            "offset": 0,
            "slot": "2",
            "type": "t_uint256"
          },
          {
            "astId": 11189,
            "contract": "contracts/rewards/StakingRewards.sol:StakingRewards",
            "label": "totalClaimed",
            "offset": 0,
            "slot": "3",
            "type": "t_uint256"
          },
          {
            "astId": 11191,
            "contract": "contracts/rewards/StakingRewards.sol:StakingRewards",
            "label": "startTime",
            "offset": 0,
            "slot": "4",
            "type": "t_uint256"
          },
          {
            "astId": 11193,
            "contract": "contracts/rewards/StakingRewards.sol:StakingRewards",
            "label": "endTime",
            "offset": 0,
            "slot": "5",
            "type": "t_uint256"
          }
        ],
        "numberOfBytes": "192"
      },
      "t_struct(RoleData)260_storage": {
        "encoding": "inplace",
        "label": "struct AccessControlUpgradeSafe.RoleData",
        "members": [
          {
            "astId": 257,
            "contract": "contracts/rewards/StakingRewards.sol:StakingRewards",
            "label": "members",
            "offset": 0,
            "slot": "0",
            "type": "t_struct(AddressSet)3083_storage"
          },
          {
            "astId": 259,
            "contract": "contracts/rewards/StakingRewards.sol:StakingRewards",
            "label": "adminRole",
            "offset": 0,
            "slot": "2",
            "type": "t_bytes32"
          }
        ],
        "numberOfBytes": "96"
      },
      "t_struct(Set)2903_storage": {
        "encoding": "inplace",
        "label": "struct EnumerableSet.Set",
        "members": [
          {
            "astId": 2898,
            "contract": "contracts/rewards/StakingRewards.sol:StakingRewards",
            "label": "_values",
            "offset": 0,
            "slot": "0",
            "type": "t_array(t_bytes32)dyn_storage"
          },
          {
            "astId": 2902,
            "contract": "contracts/rewards/StakingRewards.sol:StakingRewards",
            "label": "_indexes",
            "offset": 0,
            "slot": "1",
            "type": "t_mapping(t_bytes32,t_uint256)"
          }
        ],
        "numberOfBytes": "64"
      },
      "t_struct(StakedPosition)31781_storage": {
        "encoding": "inplace",
        "label": "struct StakingRewards.StakedPosition",
        "members": [
          {
            "astId": 31768,
            "contract": "contracts/rewards/StakingRewards.sol:StakingRewards",
            "label": "amount",
            "offset": 0,
            "slot": "0",
            "type": "t_uint256"
          },
          {
            "astId": 31770,
            "contract": "contracts/rewards/StakingRewards.sol:StakingRewards",
            "label": "rewards",
            "offset": 0,
            "slot": "1",
            "type": "t_struct(Rewards)11194_storage"
          },
          {
            "astId": 31772,
            "contract": "contracts/rewards/StakingRewards.sol:StakingRewards",
            "label": "leverageMultiplier",
            "offset": 0,
            "slot": "7",
            "type": "t_uint256"
          },
          {
            "astId": 31774,
            "contract": "contracts/rewards/StakingRewards.sol:StakingRewards",
            "label": "lockedUntil",
            "offset": 0,
            "slot": "8",
            "type": "t_uint256"
          },
          {
            "astId": 31776,
            "contract": "contracts/rewards/StakingRewards.sol:StakingRewards",
            "label": "positionType",
            "offset": 0,
            "slot": "9",
            "type": "t_enum(StakedPositionType)31766"
          },
          {
            "astId": 31778,
            "contract": "contracts/rewards/StakingRewards.sol:StakingRewards",
            "label": "unsafeEffectiveMultiplier",
            "offset": 0,
            "slot": "10",
            "type": "t_uint256"
          },
          {
            "astId": 31780,
            "contract": "contracts/rewards/StakingRewards.sol:StakingRewards",
            "label": "unsafeBaseTokenExchangeRate",
            "offset": 0,
            "slot": "11",
            "type": "t_uint256"
          }
        ],
        "numberOfBytes": "384"
      },
      "t_struct(UintSet)3192_storage": {
        "encoding": "inplace",
        "label": "struct EnumerableSet.UintSet",
        "members": [
          {
            "astId": 3191,
            "contract": "contracts/rewards/StakingRewards.sol:StakingRewards",
            "label": "_inner",
            "offset": 0,
            "slot": "0",
            "type": "t_struct(Set)2903_storage"
          }
        ],
        "numberOfBytes": "64"
      },
      "t_struct(UintToAddressMap)2717_storage": {
        "encoding": "inplace",
        "label": "struct EnumerableMap.UintToAddressMap",
        "members": [
          {
            "astId": 2716,
            "contract": "contracts/rewards/StakingRewards.sol:StakingRewards",
            "label": "_inner",
            "offset": 0,
            "slot": "0",
            "type": "t_struct(Map)2453_storage"
          }
        ],
        "numberOfBytes": "64"
      },
      "t_uint256": {
        "encoding": "inplace",
        "label": "uint256",
        "numberOfBytes": "32"
      }
    }
  }
}