{
  "address": "0xE130F1ac86352C3fbAC0564Ba375B15382da8D82",
  "abi": [
    {
      "anonymous": false,
      "inputs": [
        {
          "indexed": true,
          "internalType": "address",
          "name": "owner",
          "type": "address"
        },
        {
          "indexed": true,
          "internalType": "address",
          "name": "approved",
          "type": "address"
        },
        {
          "indexed": true,
          "internalType": "uint256",
          "name": "tokenId",
          "type": "uint256"
        }
      ],
      "name": "Approval",
      "type": "event"
    },
    {
      "anonymous": false,
      "inputs": [
        {
          "indexed": true,
          "internalType": "address",
          "name": "owner",
          "type": "address"
        },
        {
          "indexed": true,
          "internalType": "address",
          "name": "operator",
          "type": "address"
        },
        {
          "indexed": false,
          "internalType": "bool",
          "name": "approved",
          "type": "bool"
        }
      ],
      "name": "ApprovalForAll",
      "type": "event"
    },
    {
      "anonymous": false,
      "inputs": [
        {
          "indexed": true,
          "internalType": "address",
          "name": "user",
          "type": "address"
        },
        {
          "indexed": false,
          "internalType": "uint256",
          "name": "depositedAmount",
          "type": "uint256"
        },
        {
          "indexed": true,
          "internalType": "uint256",
          "name": "tokenId",
          "type": "uint256"
        },
        {
          "indexed": false,
          "internalType": "uint256",
          "name": "amount",
          "type": "uint256"
        }
      ],
      "name": "DepositedAndStaked",
      "type": "event"
    },
    {
      "anonymous": false,
      "inputs": [
        {
          "indexed": true,
          "internalType": "address",
          "name": "user",
          "type": "address"
        },
        {
          "indexed": false,
          "internalType": "uint256",
          "name": "fiduAmount",
          "type": "uint256"
        },
        {
          "indexed": false,
          "internalType": "uint256",
          "name": "usdcAmount",
          "type": "uint256"
        },
        {
          "indexed": false,
          "internalType": "uint256",
          "name": "tokensReceived",
          "type": "uint256"
        }
      ],
      "name": "DepositedToCurve",
      "type": "event"
    },
    {
      "anonymous": false,
      "inputs": [
        {
          "indexed": true,
          "internalType": "address",
          "name": "user",
          "type": "address"
        },
        {
          "indexed": false,
          "internalType": "uint256",
          "name": "fiduAmount",
          "type": "uint256"
        },
        {
          "indexed": false,
          "internalType": "uint256",
          "name": "usdcAmount",
          "type": "uint256"
        },
        {
          "indexed": true,
          "internalType": "uint256",
          "name": "tokenId",
          "type": "uint256"
        },
        {
          "indexed": false,
          "internalType": "uint256",
          "name": "amount",
          "type": "uint256"
        }
      ],
      "name": "DepositedToCurveAndStaked",
      "type": "event"
    },
    {
      "anonymous": false,
      "inputs": [
        {
          "indexed": true,
          "internalType": "address",
          "name": "who",
          "type": "address"
        },
        {
          "indexed": false,
          "internalType": "enum StakedPositionType",
          "name": "positionType",
          "type": "uint8"
        },
        {
          "indexed": false,
          "internalType": "uint256",
          "name": "multiplier",
          "type": "uint256"
        }
      ],
      "name": "EffectiveMultiplierUpdated",
      "type": "event"
    },
    {
      "anonymous": false,
      "inputs": [
        {
          "indexed": false,
          "internalType": "address",
          "name": "account",
          "type": "address"
        }
      ],
      "name": "Paused",
      "type": "event"
    },
    {
      "anonymous": false,
      "inputs": [
        {
          "indexed": false,
          "internalType": "uint256",
          "name": "reward",
          "type": "uint256"
        }
      ],
      "name": "RewardAdded",
      "type": "event"
    },
    {
      "anonymous": false,
      "inputs": [
        {
          "indexed": true,
          "internalType": "address",
          "name": "user",
          "type": "address"
        },
        {
          "indexed": true,
          "internalType": "uint256",
          "name": "tokenId",
          "type": "uint256"
        },
        {
          "indexed": false,
          "internalType": "uint256",
          "name": "reward",
          "type": "uint256"
        }
      ],
      "name": "RewardPaid",
      "type": "event"
    },
    {
      "anonymous": false,
      "inputs": [
        {
          "indexed": true,
          "internalType": "address",
          "name": "who",
          "type": "address"
        },
        {
          "indexed": false,
          "internalType": "uint256",
          "name": "targetCapacity",
          "type": "uint256"
        },
        {
          "indexed": false,
          "internalType": "uint256",
          "name": "minRate",
          "type": "uint256"
        },
        {
          "indexed": false,
          "internalType": "uint256",
          "name": "maxRate",
          "type": "uint256"
        },
        {
          "indexed": false,
          "internalType": "uint256",
          "name": "minRateAtPercent",
          "type": "uint256"
        },
        {
          "indexed": false,
          "internalType": "uint256",
          "name": "maxRateAtPercent",
          "type": "uint256"
        }
      ],
      "name": "RewardsParametersUpdated",
      "type": "event"
    },
    {
      "anonymous": false,
      "inputs": [
        {
          "indexed": true,
          "internalType": "bytes32",
          "name": "role",
          "type": "bytes32"
        },
        {
          "indexed": true,
          "internalType": "address",
          "name": "account",
          "type": "address"
        },
        {
          "indexed": true,
          "internalType": "address",
          "name": "sender",
          "type": "address"
        }
      ],
      "name": "RoleGranted",
      "type": "event"
    },
    {
      "anonymous": false,
      "inputs": [
        {
          "indexed": true,
          "internalType": "bytes32",
          "name": "role",
          "type": "bytes32"
        },
        {
          "indexed": true,
          "internalType": "address",
          "name": "account",
          "type": "address"
        },
        {
          "indexed": true,
          "internalType": "address",
          "name": "sender",
          "type": "address"
        }
      ],
      "name": "RoleRevoked",
      "type": "event"
    },
    {
      "anonymous": false,
      "inputs": [
        {
          "indexed": true,
          "internalType": "address",
          "name": "user",
          "type": "address"
        },
        {
          "indexed": true,
          "internalType": "uint256",
          "name": "tokenId",
          "type": "uint256"
        },
        {
          "indexed": false,
          "internalType": "uint256",
          "name": "amount",
          "type": "uint256"
        },
        {
          "indexed": false,
          "internalType": "enum StakedPositionType",
          "name": "positionType",
          "type": "uint8"
        },
        {
          "indexed": false,
          "internalType": "uint256",
          "name": "baseTokenExchangeRate",
          "type": "uint256"
        }
      ],
      "name": "Staked",
      "type": "event"
    },
    {
      "anonymous": false,
      "inputs": [
        {
          "indexed": true,
          "internalType": "address",
          "name": "from",
          "type": "address"
        },
        {
          "indexed": true,
          "internalType": "address",
          "name": "to",
          "type": "address"
        },
        {
          "indexed": true,
          "internalType": "uint256",
          "name": "tokenId",
          "type": "uint256"
        }
      ],
      "name": "Transfer",
      "type": "event"
    },
    {
      "anonymous": false,
      "inputs": [
        {
          "indexed": false,
          "internalType": "address",
          "name": "account",
          "type": "address"
        }
      ],
      "name": "Unpaused",
      "type": "event"
    },
    {
      "anonymous": false,
      "inputs": [
        {
          "indexed": true,
          "internalType": "address",
          "name": "user",
          "type": "address"
        },
        {
          "indexed": true,
          "internalType": "uint256",
          "name": "tokenId",
          "type": "uint256"
        },
        {
          "indexed": false,
          "internalType": "uint256",
          "name": "amount",
          "type": "uint256"
        },
        {
          "indexed": false,
          "internalType": "enum StakedPositionType",
          "name": "positionType",
          "type": "uint8"
        }
      ],
      "name": "Unstaked",
      "type": "event"
    },
    {
      "anonymous": false,
      "inputs": [
        {
          "indexed": true,
          "internalType": "address",
          "name": "user",
          "type": "address"
        },
        {
          "indexed": false,
          "internalType": "uint256",
          "name": "usdcReceivedAmount",
          "type": "uint256"
        },
        {
          "indexed": true,
          "internalType": "uint256",
          "name": "tokenId",
          "type": "uint256"
        },
        {
          "indexed": false,
          "internalType": "uint256",
          "name": "amount",
          "type": "uint256"
        }
      ],
      "name": "UnstakedAndWithdrew",
      "type": "event"
    },
    {
      "anonymous": false,
      "inputs": [
        {
          "indexed": true,
          "internalType": "address",
          "name": "user",
          "type": "address"
        },
        {
          "indexed": false,
          "internalType": "uint256",
          "name": "usdcReceivedAmount",
          "type": "uint256"
        },
        {
          "indexed": false,
          "internalType": "uint256[]",
          "name": "tokenIds",
          "type": "uint256[]"
        },
        {
          "indexed": false,
          "internalType": "uint256[]",
          "name": "amounts",
          "type": "uint256[]"
        }
      ],
      "name": "UnstakedAndWithdrewMultiple",
      "type": "event"
    },
    {
      "anonymous": false,
      "inputs": [
        {
          "indexed": true,
          "internalType": "address",
          "name": "user",
          "type": "address"
        },
        {
          "indexed": false,
          "internalType": "uint256[]",
          "name": "tokenIds",
          "type": "uint256[]"
        },
        {
          "indexed": false,
          "internalType": "uint256[]",
          "name": "amounts",
          "type": "uint256[]"
        }
      ],
      "name": "UnstakedMultiple",
      "type": "event"
    },
    {
      "inputs": [],
      "name": "DEFAULT_ADMIN_ROLE",
      "outputs": [
        {
          "internalType": "bytes32",
          "name": "",
          "type": "bytes32"
        }
      ],
      "stateMutability": "view",
      "type": "function"
    },
    {
      "inputs": [],
      "name": "MINTER_ROLE",
      "outputs": [
        {
          "internalType": "bytes32",
          "name": "",
          "type": "bytes32"
        }
      ],
      "stateMutability": "view",
      "type": "function"
    },
    {
      "inputs": [],
      "name": "OWNER_ROLE",
      "outputs": [
        {
          "internalType": "bytes32",
          "name": "",
          "type": "bytes32"
        }
      ],
      "stateMutability": "view",
      "type": "function"
    },
    {
      "inputs": [],
      "name": "PAUSER_ROLE",
      "outputs": [
        {
          "internalType": "bytes32",
          "name": "",
          "type": "bytes32"
        }
      ],
      "stateMutability": "view",
      "type": "function"
    },
    {
      "inputs": [
        {
          "internalType": "address",
          "name": "owner",
          "type": "address"
        },
        {
          "internalType": "contract GoldfinchConfig",
          "name": "_config",
          "type": "address"
        }
      ],
      "name": "__initialize__",
      "outputs": [],
      "stateMutability": "nonpayable",
      "type": "function"
    },
    {
      "inputs": [],
      "name": "_tokenIdTracker",
      "outputs": [
        {
          "internalType": "uint256",
          "name": "_value",
          "type": "uint256"
        }
      ],
      "stateMutability": "view",
      "type": "function"
    },
    {
      "inputs": [],
      "name": "accumulatedRewardsPerToken",
      "outputs": [
        {
          "internalType": "uint256",
          "name": "",
          "type": "uint256"
        }
      ],
      "stateMutability": "view",
      "type": "function"
    },
    {
      "inputs": [
        {
          "internalType": "uint256",
          "name": "tokenId",
          "type": "uint256"
        },
        {
          "internalType": "uint256",
          "name": "amount",
          "type": "uint256"
        }
      ],
      "name": "addToStake",
      "outputs": [],
      "stateMutability": "nonpayable",
      "type": "function"
    },
    {
      "inputs": [
        {
          "internalType": "address",
          "name": "to",
          "type": "address"
        },
        {
          "internalType": "uint256",
          "name": "tokenId",
          "type": "uint256"
        }
      ],
      "name": "approve",
      "outputs": [],
      "stateMutability": "nonpayable",
      "type": "function"
    },
    {
      "inputs": [
        {
          "internalType": "address",
          "name": "owner",
          "type": "address"
        }
      ],
      "name": "balanceOf",
      "outputs": [
        {
          "internalType": "uint256",
          "name": "",
          "type": "uint256"
        }
      ],
      "stateMutability": "view",
      "type": "function"
    },
    {
      "inputs": [],
      "name": "baseURI",
      "outputs": [
        {
          "internalType": "string",
          "name": "",
          "type": "string"
        }
      ],
      "stateMutability": "view",
      "type": "function"
    },
    {
      "inputs": [
        {
          "internalType": "uint256",
          "name": "tokenId",
          "type": "uint256"
        }
      ],
      "name": "claimableRewards",
      "outputs": [
        {
          "internalType": "uint256",
          "name": "rewards",
          "type": "uint256"
        }
      ],
      "stateMutability": "view",
      "type": "function"
    },
    {
      "inputs": [],
      "name": "config",
      "outputs": [
        {
          "internalType": "contract GoldfinchConfig",
          "name": "",
          "type": "address"
        }
      ],
      "stateMutability": "view",
      "type": "function"
    },
    {
      "inputs": [],
      "name": "currentEarnRatePerToken",
      "outputs": [
        {
          "internalType": "uint256",
          "name": "",
          "type": "uint256"
        }
      ],
      "stateMutability": "view",
      "type": "function"
    },
    {
      "inputs": [
        {
          "internalType": "uint256",
          "name": "usdcAmount",
          "type": "uint256"
        }
      ],
      "name": "depositAndStake",
      "outputs": [
        {
          "internalType": "uint256",
          "name": "",
          "type": "uint256"
        }
      ],
      "stateMutability": "nonpayable",
      "type": "function"
    },
    {
      "inputs": [
        {
          "internalType": "uint256",
          "name": "fiduAmount",
          "type": "uint256"
        },
        {
          "internalType": "uint256",
          "name": "usdcAmount",
          "type": "uint256"
        }
      ],
      "name": "depositToCurve",
      "outputs": [],
      "stateMutability": "nonpayable",
      "type": "function"
    },
    {
      "inputs": [
        {
          "internalType": "uint256",
          "name": "fiduAmount",
          "type": "uint256"
        },
        {
          "internalType": "uint256",
          "name": "usdcAmount",
          "type": "uint256"
        }
      ],
      "name": "depositToCurveAndStake",
      "outputs": [],
      "stateMutability": "nonpayable",
      "type": "function"
    },
    {
      "inputs": [
        {
          "internalType": "address",
          "name": "nftRecipient",
          "type": "address"
        },
        {
          "internalType": "uint256",
          "name": "fiduAmount",
          "type": "uint256"
        },
        {
          "internalType": "uint256",
          "name": "usdcAmount",
          "type": "uint256"
        }
      ],
      "name": "depositToCurveAndStakeFrom",
      "outputs": [],
      "stateMutability": "nonpayable",
      "type": "function"
    },
    {
      "inputs": [
        {
          "internalType": "uint256",
          "name": "usdcAmount",
          "type": "uint256"
        },
        {
          "internalType": "uint256",
          "name": "deadline",
          "type": "uint256"
        },
        {
          "internalType": "uint8",
          "name": "v",
          "type": "uint8"
        },
        {
          "internalType": "bytes32",
          "name": "r",
          "type": "bytes32"
        },
        {
          "internalType": "bytes32",
          "name": "s",
          "type": "bytes32"
        }
      ],
      "name": "depositWithPermitAndStake",
      "outputs": [
        {
          "internalType": "uint256",
          "name": "",
          "type": "uint256"
        }
      ],
      "stateMutability": "nonpayable",
      "type": "function"
    },
    {
      "inputs": [
        {
          "internalType": "uint256",
          "name": "tokenId",
          "type": "uint256"
        }
      ],
      "name": "earnedSinceLastCheckpoint",
      "outputs": [
        {
          "internalType": "uint256",
          "name": "",
          "type": "uint256"
        }
      ],
      "stateMutability": "view",
      "type": "function"
    },
    {
      "inputs": [
        {
          "internalType": "uint256",
          "name": "tokenId",
          "type": "uint256"
        }
      ],
      "name": "getApproved",
      "outputs": [
        {
          "internalType": "address",
          "name": "",
          "type": "address"
        }
      ],
      "stateMutability": "view",
      "type": "function"
    },
    {
      "inputs": [
        {
          "internalType": "enum StakedPositionType",
          "name": "positionType",
          "type": "uint8"
        }
      ],
      "name": "getBaseTokenExchangeRate",
      "outputs": [
        {
          "internalType": "uint256",
          "name": "",
          "type": "uint256"
        }
      ],
      "stateMutability": "view",
      "type": "function"
    },
    {
      "inputs": [
        {
          "internalType": "enum StakedPositionType",
          "name": "positionType",
          "type": "uint8"
        }
      ],
      "name": "getEffectiveMultiplierForPositionType",
      "outputs": [
        {
          "internalType": "uint256",
          "name": "",
          "type": "uint256"
        }
      ],
      "stateMutability": "view",
      "type": "function"
    },
    {
      "inputs": [
        {
          "internalType": "uint256",
          "name": "tokenId",
          "type": "uint256"
        }
      ],
      "name": "getPosition",
      "outputs": [
        {
          "components": [
            {
              "internalType": "uint256",
              "name": "amount",
              "type": "uint256"
            },
            {
              "components": [
                {
                  "internalType": "uint256",
                  "name": "totalUnvested",
                  "type": "uint256"
                },
                {
                  "internalType": "uint256",
                  "name": "totalVested",
                  "type": "uint256"
                },
                {
                  "internalType": "uint256",
                  "name": "totalPreviouslyVested",
                  "type": "uint256"
                },
                {
                  "internalType": "uint256",
                  "name": "totalClaimed",
                  "type": "uint256"
                },
                {
                  "internalType": "uint256",
                  "name": "startTime",
                  "type": "uint256"
                },
                {
                  "internalType": "uint256",
                  "name": "endTime",
                  "type": "uint256"
                }
              ],
              "internalType": "struct StakingRewardsVesting.Rewards",
              "name": "rewards",
              "type": "tuple"
            },
            {
              "internalType": "uint256",
              "name": "leverageMultiplier",
              "type": "uint256"
            },
            {
              "internalType": "uint256",
              "name": "lockedUntil",
              "type": "uint256"
            },
            {
              "internalType": "enum StakedPositionType",
              "name": "positionType",
              "type": "uint8"
            },
            {
              "internalType": "uint256",
              "name": "unsafeEffectiveMultiplier",
              "type": "uint256"
            },
            {
              "internalType": "uint256",
              "name": "unsafeBaseTokenExchangeRate",
              "type": "uint256"
            }
          ],
          "internalType": "struct StakedPosition",
          "name": "position",
          "type": "tuple"
        }
      ],
      "stateMutability": "view",
      "type": "function"
    },
    {
      "inputs": [
        {
          "internalType": "uint256",
          "name": "tokenId",
          "type": "uint256"
        }
      ],
      "name": "getReward",
      "outputs": [],
      "stateMutability": "nonpayable",
      "type": "function"
    },
    {
      "inputs": [
        {
          "internalType": "bytes32",
          "name": "role",
          "type": "bytes32"
        }
      ],
      "name": "getRoleAdmin",
      "outputs": [
        {
          "internalType": "bytes32",
          "name": "",
          "type": "bytes32"
        }
      ],
      "stateMutability": "view",
      "type": "function"
    },
    {
      "inputs": [
        {
          "internalType": "bytes32",
          "name": "role",
          "type": "bytes32"
        },
        {
          "internalType": "uint256",
          "name": "index",
          "type": "uint256"
        }
      ],
      "name": "getRoleMember",
      "outputs": [
        {
          "internalType": "address",
          "name": "",
          "type": "address"
        }
      ],
      "stateMutability": "view",
      "type": "function"
    },
    {
      "inputs": [
        {
          "internalType": "bytes32",
          "name": "role",
          "type": "bytes32"
        }
      ],
      "name": "getRoleMemberCount",
      "outputs": [
        {
          "internalType": "uint256",
          "name": "",
          "type": "uint256"
        }
      ],
      "stateMutability": "view",
      "type": "function"
    },
    {
      "inputs": [
        {
          "internalType": "bytes32",
          "name": "role",
          "type": "bytes32"
        },
        {
          "internalType": "address",
          "name": "account",
          "type": "address"
        }
      ],
      "name": "grantRole",
      "outputs": [],
      "stateMutability": "nonpayable",
      "type": "function"
    },
    {
      "inputs": [
        {
          "internalType": "bytes32",
          "name": "role",
          "type": "bytes32"
        },
        {
          "internalType": "address",
          "name": "account",
          "type": "address"
        }
      ],
      "name": "hasRole",
      "outputs": [
        {
          "internalType": "bool",
          "name": "",
          "type": "bool"
        }
      ],
      "stateMutability": "view",
      "type": "function"
    },
    {
      "inputs": [
        {
          "internalType": "address",
          "name": "owner",
          "type": "address"
        },
        {
          "internalType": "address",
          "name": "operator",
          "type": "address"
        }
      ],
      "name": "isApprovedForAll",
      "outputs": [
        {
          "internalType": "bool",
          "name": "",
          "type": "bool"
        }
      ],
      "stateMutability": "view",
      "type": "function"
    },
    {
      "inputs": [
        {
          "internalType": "uint256",
          "name": "tokenId",
          "type": "uint256"
        }
      ],
      "name": "kick",
      "outputs": [],
      "stateMutability": "nonpayable",
      "type": "function"
    },
    {
      "inputs": [],
      "name": "lastUpdateTime",
      "outputs": [
        {
          "internalType": "uint256",
          "name": "",
          "type": "uint256"
        }
      ],
      "stateMutability": "view",
      "type": "function"
    },
    {
      "inputs": [
        {
          "internalType": "uint256",
          "name": "rewards",
          "type": "uint256"
        }
      ],
      "name": "loadRewards",
      "outputs": [],
      "stateMutability": "nonpayable",
      "type": "function"
    },
    {
      "inputs": [],
      "name": "maxRate",
      "outputs": [
        {
          "internalType": "uint256",
          "name": "",
          "type": "uint256"
        }
      ],
      "stateMutability": "view",
      "type": "function"
    },
    {
      "inputs": [],
      "name": "maxRateAtPercent",
      "outputs": [
        {
          "internalType": "uint256",
          "name": "",
          "type": "uint256"
        }
      ],
      "stateMutability": "view",
      "type": "function"
    },
    {
      "inputs": [],
      "name": "minRate",
      "outputs": [
        {
          "internalType": "uint256",
          "name": "",
          "type": "uint256"
        }
      ],
      "stateMutability": "view",
      "type": "function"
    },
    {
      "inputs": [],
      "name": "minRateAtPercent",
      "outputs": [
        {
          "internalType": "uint256",
          "name": "",
          "type": "uint256"
        }
      ],
      "stateMutability": "view",
      "type": "function"
    },
    {
      "inputs": [],
      "name": "name",
      "outputs": [
        {
          "internalType": "string",
          "name": "",
          "type": "string"
        }
      ],
      "stateMutability": "view",
      "type": "function"
    },
    {
      "inputs": [
        {
          "internalType": "uint256",
          "name": "tokenId",
          "type": "uint256"
        }
      ],
      "name": "optimisticClaimable",
      "outputs": [
        {
          "internalType": "uint256",
          "name": "",
          "type": "uint256"
        }
      ],
      "stateMutability": "view",
      "type": "function"
    },
    {
      "inputs": [
        {
          "internalType": "uint256",
          "name": "tokenId",
          "type": "uint256"
        }
      ],
      "name": "ownerOf",
      "outputs": [
        {
          "internalType": "address",
          "name": "",
          "type": "address"
        }
      ],
      "stateMutability": "view",
      "type": "function"
    },
    {
      "inputs": [],
      "name": "pause",
      "outputs": [],
      "stateMutability": "nonpayable",
      "type": "function"
    },
    {
      "inputs": [],
      "name": "paused",
      "outputs": [
        {
          "internalType": "bool",
          "name": "",
          "type": "bool"
        }
      ],
      "stateMutability": "view",
      "type": "function"
    },
    {
      "inputs": [
        {
          "internalType": "uint256",
          "name": "tokenId",
          "type": "uint256"
        }
      ],
      "name": "positionCurrentEarnRate",
      "outputs": [
        {
          "internalType": "uint256",
          "name": "",
          "type": "uint256"
        }
      ],
      "stateMutability": "view",
      "type": "function"
    },
    {
      "inputs": [
        {
          "internalType": "uint256",
          "name": "",
          "type": "uint256"
        }
      ],
      "name": "positionToAccumulatedRewardsPerToken",
      "outputs": [
        {
          "internalType": "uint256",
          "name": "",
          "type": "uint256"
        }
      ],
      "stateMutability": "view",
      "type": "function"
    },
    {
      "inputs": [
        {
          "internalType": "uint256",
          "name": "",
          "type": "uint256"
        }
      ],
      "name": "positions",
      "outputs": [
        {
          "internalType": "uint256",
          "name": "amount",
          "type": "uint256"
        },
        {
          "components": [
            {
              "internalType": "uint256",
              "name": "totalUnvested",
              "type": "uint256"
            },
            {
              "internalType": "uint256",
              "name": "totalVested",
              "type": "uint256"
            },
            {
              "internalType": "uint256",
              "name": "totalPreviouslyVested",
              "type": "uint256"
            },
            {
              "internalType": "uint256",
              "name": "totalClaimed",
              "type": "uint256"
            },
            {
              "internalType": "uint256",
              "name": "startTime",
              "type": "uint256"
            },
            {
              "internalType": "uint256",
              "name": "endTime",
              "type": "uint256"
            }
          ],
          "internalType": "struct StakingRewardsVesting.Rewards",
          "name": "rewards",
          "type": "tuple"
        },
        {
          "internalType": "uint256",
          "name": "leverageMultiplier",
          "type": "uint256"
        },
        {
          "internalType": "uint256",
          "name": "lockedUntil",
          "type": "uint256"
        },
        {
          "internalType": "enum StakedPositionType",
          "name": "positionType",
          "type": "uint8"
        },
        {
          "internalType": "uint256",
          "name": "unsafeEffectiveMultiplier",
          "type": "uint256"
        },
        {
          "internalType": "uint256",
          "name": "unsafeBaseTokenExchangeRate",
          "type": "uint256"
        }
      ],
      "stateMutability": "view",
      "type": "function"
    },
    {
      "inputs": [
        {
          "internalType": "bytes32",
          "name": "role",
          "type": "bytes32"
        },
        {
          "internalType": "address",
          "name": "account",
          "type": "address"
        }
      ],
      "name": "renounceRole",
      "outputs": [],
      "stateMutability": "nonpayable",
      "type": "function"
    },
    {
      "inputs": [
        {
          "internalType": "bytes32",
          "name": "role",
          "type": "bytes32"
        },
        {
          "internalType": "address",
          "name": "account",
          "type": "address"
        }
      ],
      "name": "revokeRole",
      "outputs": [],
      "stateMutability": "nonpayable",
      "type": "function"
    },
    {
      "inputs": [],
      "name": "rewardPerToken",
      "outputs": [
        {
          "internalType": "uint256",
          "name": "",
          "type": "uint256"
        }
      ],
      "stateMutability": "view",
      "type": "function"
    },
    {
      "inputs": [],
      "name": "rewardsAvailable",
      "outputs": [
        {
          "internalType": "uint256",
          "name": "",
          "type": "uint256"
        }
      ],
      "stateMutability": "view",
      "type": "function"
    },
    {
      "inputs": [
        {
          "internalType": "address",
          "name": "from",
          "type": "address"
        },
        {
          "internalType": "address",
          "name": "to",
          "type": "address"
        },
        {
          "internalType": "uint256",
          "name": "tokenId",
          "type": "uint256"
        }
      ],
      "name": "safeTransferFrom",
      "outputs": [],
      "stateMutability": "nonpayable",
      "type": "function"
    },
    {
      "inputs": [
        {
          "internalType": "address",
          "name": "from",
          "type": "address"
        },
        {
          "internalType": "address",
          "name": "to",
          "type": "address"
        },
        {
          "internalType": "uint256",
          "name": "tokenId",
          "type": "uint256"
        },
        {
          "internalType": "bytes",
          "name": "_data",
          "type": "bytes"
        }
      ],
      "name": "safeTransferFrom",
      "outputs": [],
      "stateMutability": "nonpayable",
      "type": "function"
    },
    {
      "inputs": [
        {
          "internalType": "address",
          "name": "operator",
          "type": "address"
        },
        {
          "internalType": "bool",
          "name": "approved",
          "type": "bool"
        }
      ],
      "name": "setApprovalForAll",
      "outputs": [],
      "stateMutability": "nonpayable",
      "type": "function"
    },
    {
      "inputs": [
        {
          "internalType": "uint256",
          "name": "multiplier",
          "type": "uint256"
        },
        {
          "internalType": "enum StakedPositionType",
          "name": "positionType",
          "type": "uint8"
        }
      ],
      "name": "setEffectiveMultiplier",
      "outputs": [],
      "stateMutability": "nonpayable",
      "type": "function"
    },
    {
      "inputs": [
        {
          "internalType": "uint256",
          "name": "_targetCapacity",
          "type": "uint256"
        },
        {
          "internalType": "uint256",
          "name": "_minRate",
          "type": "uint256"
        },
        {
          "internalType": "uint256",
          "name": "_maxRate",
          "type": "uint256"
        },
        {
          "internalType": "uint256",
          "name": "_minRateAtPercent",
          "type": "uint256"
        },
        {
          "internalType": "uint256",
          "name": "_maxRateAtPercent",
          "type": "uint256"
        }
      ],
      "name": "setRewardsParameters",
      "outputs": [],
      "stateMutability": "nonpayable",
      "type": "function"
    },
    {
      "inputs": [
        {
          "internalType": "uint256",
          "name": "amount",
          "type": "uint256"
        },
        {
          "internalType": "enum StakedPositionType",
          "name": "positionType",
          "type": "uint8"
        }
      ],
      "name": "stake",
      "outputs": [
        {
          "internalType": "uint256",
          "name": "",
          "type": "uint256"
        }
      ],
      "stateMutability": "nonpayable",
      "type": "function"
    },
    {
      "inputs": [
        {
          "internalType": "uint256",
          "name": "tokenId",
          "type": "uint256"
        }
      ],
      "name": "stakedBalanceOf",
      "outputs": [
        {
          "internalType": "uint256",
          "name": "",
          "type": "uint256"
        }
      ],
      "stateMutability": "view",
      "type": "function"
    },
    {
      "inputs": [
        {
          "internalType": "bytes4",
          "name": "interfaceId",
          "type": "bytes4"
        }
      ],
      "name": "supportsInterface",
      "outputs": [
        {
          "internalType": "bool",
          "name": "",
          "type": "bool"
        }
      ],
      "stateMutability": "view",
      "type": "function"
    },
    {
      "inputs": [],
      "name": "symbol",
      "outputs": [
        {
          "internalType": "string",
          "name": "",
          "type": "string"
        }
      ],
      "stateMutability": "view",
      "type": "function"
    },
    {
      "inputs": [],
      "name": "targetCapacity",
      "outputs": [
        {
          "internalType": "uint256",
          "name": "",
          "type": "uint256"
        }
      ],
      "stateMutability": "view",
      "type": "function"
    },
    {
      "inputs": [
        {
          "internalType": "uint256",
          "name": "index",
          "type": "uint256"
        }
      ],
      "name": "tokenByIndex",
      "outputs": [
        {
          "internalType": "uint256",
          "name": "",
          "type": "uint256"
        }
      ],
      "stateMutability": "view",
      "type": "function"
    },
    {
      "inputs": [
        {
          "internalType": "address",
          "name": "owner",
          "type": "address"
        },
        {
          "internalType": "uint256",
          "name": "index",
          "type": "uint256"
        }
      ],
      "name": "tokenOfOwnerByIndex",
      "outputs": [
        {
          "internalType": "uint256",
          "name": "",
          "type": "uint256"
        }
      ],
      "stateMutability": "view",
      "type": "function"
    },
    {
      "inputs": [
        {
          "internalType": "uint256",
          "name": "tokenId",
          "type": "uint256"
        }
      ],
      "name": "tokenURI",
      "outputs": [
        {
          "internalType": "string",
          "name": "",
          "type": "string"
        }
      ],
      "stateMutability": "view",
      "type": "function"
    },
    {
      "inputs": [
        {
          "internalType": "address",
          "name": "owner",
          "type": "address"
        }
      ],
      "name": "totalOptimisticClaimable",
      "outputs": [
        {
          "internalType": "uint256",
          "name": "",
          "type": "uint256"
        }
      ],
      "stateMutability": "view",
      "type": "function"
    },
    {
      "inputs": [],
      "name": "totalStakedSupply",
      "outputs": [
        {
          "internalType": "uint256",
          "name": "",
          "type": "uint256"
        }
      ],
      "stateMutability": "view",
      "type": "function"
    },
    {
      "inputs": [],
      "name": "totalSupply",
      "outputs": [
        {
          "internalType": "uint256",
          "name": "",
          "type": "uint256"
        }
      ],
      "stateMutability": "view",
      "type": "function"
    },
    {
      "inputs": [
        {
          "internalType": "uint256",
          "name": "start",
          "type": "uint256"
        },
        {
          "internalType": "uint256",
          "name": "end",
          "type": "uint256"
        },
        {
          "internalType": "uint256",
          "name": "time",
          "type": "uint256"
        },
        {
          "internalType": "uint256",
          "name": "grantedAmount",
          "type": "uint256"
        }
      ],
      "name": "totalVestedAt",
      "outputs": [
        {
          "internalType": "uint256",
          "name": "rewards",
          "type": "uint256"
        }
      ],
      "stateMutability": "pure",
      "type": "function"
    },
    {
      "inputs": [
        {
          "internalType": "address",
          "name": "from",
          "type": "address"
        },
        {
          "internalType": "address",
          "name": "to",
          "type": "address"
        },
        {
          "internalType": "uint256",
          "name": "tokenId",
          "type": "uint256"
        }
      ],
      "name": "transferFrom",
      "outputs": [],
      "stateMutability": "nonpayable",
      "type": "function"
    },
    {
      "inputs": [],
      "name": "unpause",
      "outputs": [],
      "stateMutability": "nonpayable",
      "type": "function"
    },
    {
      "inputs": [
        {
          "internalType": "uint256",
          "name": "tokenId",
          "type": "uint256"
        },
        {
          "internalType": "uint256",
          "name": "amount",
          "type": "uint256"
        }
      ],
      "name": "unstake",
      "outputs": [],
      "stateMutability": "nonpayable",
      "type": "function"
    },
    {
      "inputs": [
        {
          "internalType": "uint256",
          "name": "tokenId",
          "type": "uint256"
        },
        {
          "internalType": "uint256",
          "name": "usdcAmount",
          "type": "uint256"
        }
      ],
      "name": "unstakeAndWithdraw",
      "outputs": [],
      "stateMutability": "nonpayable",
      "type": "function"
    },
    {
      "inputs": [
        {
          "internalType": "uint256",
          "name": "tokenId",
          "type": "uint256"
        },
        {
          "internalType": "uint256",
          "name": "fiduAmount",
          "type": "uint256"
        }
      ],
      "name": "unstakeAndWithdrawInFidu",
      "outputs": [],
      "stateMutability": "nonpayable",
      "type": "function"
    },
    {
      "inputs": [
        {
          "internalType": "uint256[]",
          "name": "tokenIds",
          "type": "uint256[]"
        },
        {
          "internalType": "uint256[]",
          "name": "usdcAmounts",
          "type": "uint256[]"
        }
      ],
      "name": "unstakeAndWithdrawMultiple",
      "outputs": [],
      "stateMutability": "nonpayable",
      "type": "function"
    },
    {
      "inputs": [
        {
          "internalType": "uint256[]",
          "name": "tokenIds",
          "type": "uint256[]"
        },
        {
          "internalType": "uint256[]",
          "name": "fiduAmounts",
          "type": "uint256[]"
        }
      ],
      "name": "unstakeAndWithdrawMultipleInFidu",
      "outputs": [],
      "stateMutability": "nonpayable",
      "type": "function"
    },
    {
      "inputs": [
        {
          "internalType": "uint256[]",
          "name": "tokenIds",
          "type": "uint256[]"
        },
        {
          "internalType": "uint256[]",
          "name": "amounts",
          "type": "uint256[]"
        }
      ],
      "name": "unstakeMultiple",
      "outputs": [],
      "stateMutability": "nonpayable",
      "type": "function"
    },
    {
      "inputs": [
        {
          "internalType": "uint256",
          "name": "tokenId",
          "type": "uint256"
        }
      ],
      "name": "updatePositionEffectiveMultiplier",
      "outputs": [],
      "stateMutability": "nonpayable",
      "type": "function"
    },
    {
      "inputs": [],
      "name": "vestingLength",
      "outputs": [
        {
          "internalType": "uint256",
          "name": "",
          "type": "uint256"
        }
      ],
      "stateMutability": "view",
      "type": "function"
    }
  ],
  "transactionHash": "0x41a951013528873ddf9d92d37618b768c46d9bf14635c1ea8e268fc733a4d74a",
  "args": [],
  "solcInputHash": "789000381d9bd665f196a9756b919ea9",
  "bytecode": "0x608060405234801561001057600080fd5b50615fa380620000216000396000f3fe608060405234801561001057600080fd5b506004361061042f5760003560e01c806379502c551161023c578063b3a99b4c11610146578063d047e42d116100c3578063e7a7250a11610087578063e7a7250a146108e1578063e985e9c5146108e9578063eb02c301146108fc578063ece1d6e51461091c578063f62849be146109245761042f565b8063d047e42d146108a3578063d5391393146108b6578063d547741f146108be578063e58378bb146108d1578063e63ab1e9146108d95761042f565b8063c87b56dd1161010a578063c87b56dd1461085a578063c8f33c911461086d578063ca15c87314610875578063cd3daf9d14610888578063ce0cf1a5146108905761042f565b8063b3a99b4c1461081c578063b6f8fd4014610824578063b88d4fde14610837578063b88dffe01461084a578063bcdc3cfc146108525761042f565b806398bcede9116101d4578063a22cb46511610198578063a22cb465146107c8578063a52ab1f1146107db578063a9f4939d146107ee578063aa04295f14610801578063b217f9d4146108145761042f565b806398bcede91461076c57806399fbab88146107745780639e2c8a5b1461079a5780639f60421f146107ad578063a217fddf146107c05761042f565b806379502c55146106e25780638456cb59146106ea57806387647d4b146106f25780638ea26983146107055780639010d07c14610718578063906ae4c31461072b57806391d148541461073e57806395d89b41146107515780639835fc7e146107595761042f565b806330987dd81161033d57806359fe8539116102d557806369d00e791161029957806369d00e791461068e5780636c0360eb146106a15780636c3f3be6146106a957806370a08231146106bc57806375ff490b146106cf5761042f565b806359fe8539146106455780635c975abb146106585780636352211e1461066057806364fa33f0146106735780636702abe21461067b5761042f565b806330987dd8146105bb578063333ee792146105ce57806336568abe146105e157806338962186146105f45780633f4ba83a146105fc57806342842e0e1461060457806344f41425146106175780634a6b629d1461062a5780634f6ccce7146106325761042f565b806313ad3574116103cb578063248a9ca31161038f578063248a9ca31461055c578063252e61c31461056f57806327a3492e146105825780632f2ff15d146105955780632f745c59146105a85761042f565b806313ad35741461050857806318160ddd1461051b5780631c4b774b1461052357806323234a9c1461053657806323b872dd146105495761042f565b806301ffc9a71461043457806306fdde031461045d578063081812fc14610472578063095ea7b3146104925780630cb60443146104a757806310087fb1146104bc57806310680919146104cf57806310aec8f9146104e2578063135e8059146104f5575b600080fd5b610447610442366004614f09565b610937565b6040516104549190615303565b60405180910390f35b61046561095a565b6040516104549190615333565b610485610480366004614eac565b6109f1565b60405161045491906151b2565b6104a56104a0366004614dc8565b610a3d565b005b6104af610ad5565b604051610454919061530e565b6104af6104ca366004614f74565b610adc565b6104af6104dd366004614eac565b610b5e565b6104a56104f0366004614ee8565b610b71565b6104af610503366004614fa0565b610c34565b6104af610516366004614eac565b610c4d565b6104af610c70565b6104a5610531366004614eac565b610c81565b6104af610544366004614f41565b610dae565b6104a5610557366004614c81565b610f6f565b6104af61056a366004614eac565b610fa7565b6104af61057d36600461500b565b610fbc565b6104a5610590366004614ee8565b611051565b6104a56105a3366004614ec4565b61110a565b6104af6105b6366004614dc8565b611152565b6104a56105c9366004614ee8565b61117b565b6104a56105dc366004614e27565b611186565b6104a56105ef366004614ec4565b6112be565b6104af611300565b6104a5611307565b6104a5610612366004614c81565b611347565b6104a5610625366004614e27565b611362565b6104af6114f6565b6104af610640366004614eac565b6114fd565b6104af610653366004614eac565b611513565b6104476116e6565b61048561066e366004614eac565b6116ef565b6104af611717565b6104a5610689366004614fd1565b61171e565b6104a561069c366004614df3565b6117e1565b6104656118ba565b6104af6106b7366004614eac565b61191b565b6104af6106ca366004614c11565b61194c565b6104af6106dd366004614f41565b611995565b6104856119fb565b6104a5611a0b565b6104af610700366004614eac565b611a49565b6104af610713366004614c11565b611a94565b610485610726366004614ee8565b611adc565b6104a5610739366004614f74565b611af4565b61044761074c366004614ec4565b611bc0565b610465611bd8565b6104af610767366004614eac565b611c39565b6104af611c54565b610787610782366004614eac565b611c5b565b6040516104549796959493929190615e05565b6104a56107a8366004614ee8565b611cdd565b6104a56107bb366004614e27565b611d7a565b6104af611f3f565b6104a56107d6366004614d89565b611f44565b6104a56107e9366004614eac565b612012565b6104a56107fc366004614ee8565b61213f565b6104af61080f366004614eac565b61227a565b6104af61228d565b6104af612294565b6104a5610832366004614db6565b61229b565b6104a5610845366004614cc1565b612443565b6104af612482565b6104af6124ca565b610465610868366004614eac565b6124d1565b6104af61261b565b6104af610883366004614eac565b612622565b6104af612639565b6104a561089e366004614eac565b612651565b6104a56108b1366004614ee8565b6126ac565b6104af612750565b6104a56108cc366004614ec4565b612774565b6104af6127ae565b6104af6127c0565b6104af6127d2565b6104476108f7366004614c49565b6127d9565b61090f61090a366004614eac565b612807565b6040516104549190615cd1565b6104af6128e3565b6104a5610932366004614eac565b6128ea565b6001600160e01b0319811660009081526097602052604090205460ff165b919050565b60ce8054604080516020601f60026000196101006001881615020190951694909404938401819004810282018101909252828152606093909290918301828280156109e65780601f106109bb576101008083540402835291602001916109e6565b820191906000526020600020905b8154815290600101906020018083116109c957829003601f168201915b505050505090505b90565b60006109fc82612975565b610a215760405162461bcd60e51b8152600401610a1890615937565b60405180910390fd5b50600090815260cc60205260409020546001600160a01b031690565b6000610a48826116ef565b9050806001600160a01b0316836001600160a01b03161415610a7c5760405162461bcd60e51b8152600401610a1890615aa2565b806001600160a01b0316610a8e612982565b6001600160a01b03161480610aaa5750610aaa816108f7612982565b610ac65760405162461bcd60e51b8152600401610a18906157a4565b610ad08383612986565b505050565b6101c95481565b6101915460009060ff16610b025760405162461bcd60e51b8152600401610a1890615bb6565b610191805460ff1916905560fb5460ff1615610b305760405162461bcd60e51b8152600401610a189061577a565b6000610b3b816129f4565b610b4733338686612aa0565b915050610191805460ff1916600117905592915050565b6101c76020526000908152604090205481565b6101915460ff16610b945760405162461bcd60e51b8152600401610a1890615bb6565b610191805460ff1916905560fb5460ff1615610bc25760405162461bcd60e51b8152600401610a189061577a565b610bcb826129f4565b600080610bd88484612e52565b9150915083336001600160a01b03167fc3c6b9e734c21d6e8632c6a862b6de6458faa89079cbc34cc0560ed0ab78a5c68484604051610c18929190615e4d565b60405180910390a35050610191805460ff191660011790555050565b6000610c4285858585613089565b90505b949350505050565b6000610c6a610c5b83611c39565b610c6484611a49565b906130c3565b92915050565b6000610c7c60ca6130e8565b905090565b6101915460ff16610ca45760405162461bcd60e51b8152600401610a1890615bb6565b610191805460ff1916905560fb5460ff1615610cd25760405162461bcd60e51b8152600401610a189061577a565b80610cdc816129f4565b33610ce6836116ef565b6001600160a01b031614610d0c5760405162461bcd60e51b8152600401610a18906154be565b6000610d1783611c39565b90508015610d9b5760008381526101d160205260409020610d3b90600101826130f3565b610d583382610d4861310e565b6001600160a01b03169190613127565b82336001600160a01b03167fd6f2c8500df5b44f11e9e48b91ff9f1b9d81bc496d55570c2b1b75bf65243f5183604051610d92919061530e565b60405180910390a35b5050610191805460ff1916600117905550565b60006001826001811115610dbe57fe5b1415610f60576101c354600090610ddd906001600160a01b031661317d565b9050610f58816001600160a01b031663fc0c546a6040518163ffffffff1660e01b815260040160206040518083038186803b158015610e1b57600080fd5b505afa158015610e2f573d6000803e3d6000fd5b505050506040513d601f19601f82011682018060405250810190610e539190614c2d565b6001600160a01b03166318160ddd6040518163ffffffff1660e01b815260040160206040518083038186803b158015610e8b57600080fd5b505afa158015610e9f573d6000803e3d6000fd5b505050506040513d601f19601f82011682018060405250810190610ec39190614f5c565b610f52670de0b6b3a7640000846001600160a01b0316634903b0d160006040518263ffffffff1660e01b8152600401610efc919061530e565b60206040518083038186803b158015610f1457600080fd5b505afa158015610f28573d6000803e3d6000fd5b505050506040513d601f19601f82011682018060405250810190610f4c9190614f5c565b90613188565b906131c2565b915050610955565b50670de0b6b3a7640000919050565b610f80610f7a612982565b82613204565b610f9c5760405162461bcd60e51b8152600401610a1890615aff565b610ad0838383613281565b60009081526065602052604090206002015490565b6101c354600090610fd5906001600160a01b031661338f565b6001600160a01b031663d505accf333089898989896040518863ffffffff1660e01b815260040161100c97969594939291906151f9565b600060405180830381600087803b15801561102657600080fd5b505af115801561103a573d6000803e3d6000fd5b5050505061104786611513565b9695505050505050565b6101915460ff166110745760405162461bcd60e51b8152600401610a1890615bb6565b610191805460ff1916905560fb5460ff16156110a25760405162461bcd60e51b8152600401610a189061577a565b60006110b03333858561340f565b9050336001600160a01b03167f2468986f19ca698c7a17082adcaf9889ae41bbd887038b6c7b0598015dfae7538484846040516110ef93929190615e5b565b60405180910390a25050610191805460ff1916600117905550565b6000828152606560205260409020600201546111289061074c612982565b6111445760405162461bcd60e51b8152600401610a18906153ef565b61114e82826135dd565b5050565b6001600160a01b038216600090815260c9602052604081206111749083613646565b9392505050565b61114e3383836117e1565b6101915460ff166111a95760405162461bcd60e51b8152600401610a1890615bb6565b610191805460ff1916905560fb5460ff16156111d75760405162461bcd60e51b8152600401610a189061577a565b8281146111f65760405162461bcd60e51b8152600401610a1890615a85565b6000805b8281101561125f5761121d86868381811061121157fe5b905060200201356129f4565b61125561124e87878481811061122f57fe5b9050602002013586868581811061124257fe5b90506020020135613652565b83906130c3565b91506001016111fa565b50336001600160a01b03167f50748d84e7c6a6cc3641eb166ac6557b87d0e389ccd714d544d961b533a9c94682878787876040516112a1959493929190615d31565b60405180910390a25050610191805460ff19166001179055505050565b6112c6612982565b6001600160a01b0316816001600160a01b0316146112f65760405162461bcd60e51b8152600401610a1890615c82565b61114e8282613736565b6101c55481565b611321600080516020615f4e83398151915261074c612982565b61133d5760405162461bcd60e51b8152600401610a1890615bed565b61134561379f565b565b610ad083838360405180602001604052806000815250612443565b6101915460ff166113855760405162461bcd60e51b8152600401610a1890615bb6565b610191805460ff1916905560fb5460ff16156113b35760405162461bcd60e51b8152600401610a189061577a565b8281146113d25760405162461bcd60e51b8152600401610a1890615a85565b600060608267ffffffffffffffff811180156113ed57600080fd5b50604051908082528060200260200182016040528015611417578160200160208202803683370190505b50905060005b838110156114985761143487878381811061121157fe5b60008061146589898581811061144657fe5b9050602002013588888681811061145957fe5b90506020020135612e52565b909250905061147485836130c3565b94508084848151811061148357fe5b6020908102919091010152505060010161141d565b50336001600160a01b03167f50748d84e7c6a6cc3641eb166ac6557b87d0e389ccd714d544d961b533a9c946838888856040516114d89493929190615d6a565b60405180910390a25050610191805460ff1916600117905550505050565b6101c85481565b60008061150b60ca8461380b565b509392505050565b6101915460009060ff166115395760405162461bcd60e51b8152600401610a1890615bb6565b610191805460ff1916905560fb5460ff16156115675760405162461bcd60e51b8152600401610a189061577a565b6000611572816129f4565b61157a613827565b6115965760405162461bcd60e51b8152600401610a18906153d3565b6101c3546000906115af906001600160a01b03166138bb565b90506115c66001600160a01b0382163330876138c6565b6101c3546000906115df906001600160a01b03166138e7565b90506115f56001600160a01b03831682876138f2565b60405163b6b55f2560e01b81526000906001600160a01b0383169063b6b55f259061162490899060040161530e565b602060405180830381600087803b15801561163e57600080fd5b505af1158015611652573d6000803e3d6000fd5b505050506040513d601f19601f820116820180604052508101906116769190614f5c565b905060006116873033846000612aa0565b905080336001600160a01b03167fce343194de25678e58b53205d289681a131cc2b917e7c36c8dc0d1693fd8f7ef89856040516116c5929190615e4d565b60405180910390a3945050505050610191805460ff19166001179055919050565b60fb5460ff1690565b6000610c6a82604051806060016040528060298152602001615f256029913960ca9190613997565b6101cc5481565b6117266139a4565b6117425760405162461bcd60e51b8152600401610a18906154be565b600061174d816129f4565b84841015801561175d5750828211155b6117795760405162461bcd60e51b8152600401610a1890615b9a565b6101c88690556101c98590556101ca8490556101cc8390556101cb82905560405133907f8fc8630a9026e4d101945e5580ff250722a3dbc1222dac05b63a0e4a97688a65906117d19089908990899089908990615e71565b60405180910390a2505050505050565b6101915460ff166118045760405162461bcd60e51b8152600401610a1890615bb6565b610191805460ff1916905560fb5460ff16156118325760405162461bcd60e51b8152600401610a189061577a565b600061183d816129f4565b600061184b3330868661340f565b9050600061185c3087846001612aa0565b905080336001600160a01b03167f70e3723ca1d6f2fd53a53844eb91671bc39574743c075044ac7ff5c2e5f4896387878660405161189c93929190615e5b565b60405180910390a35050610191805460ff1916600117905550505050565b60d18054604080516020601f60026000196101006001881615020190951694909404938401819004810282018101909252828152606093909290918301828280156109e65780601f106109bb576101008083540402835291602001916109e6565b6000610c6a6119286139c0565b60008481526101d160205260409020610f5290611944906139cc565b610f4c612482565b60006001600160a01b0382166119745760405162461bcd60e51b8152600401610a18906157fc565b6001600160a01b038216600090815260c960205260409020610c6a906130e8565b6000806101d260008460018111156119a957fe5b60018111156119b457fe5b8152602001908152602001600020541115610f60576101d260008360018111156119da57fe5b60018111156119e557fe5b8152602001908152602001600020549050610955565b6101c3546001600160a01b031681565b611a25600080516020615f4e83398151915261074c612982565b611a415760405162461bcd60e51b8152600401610a189061559d565b6113456139df565b6000610c6a611a566139c0565b60008481526101c76020526040902054610f5290611a7c90611a76612639565b90613a38565b60008681526101d160205260409020610f4c906139cc565b600080805b611aa28461194c565b811015611ad5576000611ab58583611152565b9050611aca611ac382610c4d565b84906130c3565b925050600101611a99565b5092915050565b60008281526065602052604081206111749083613646565b611afc6139a4565b611b185760405162461bcd60e51b8152600401610a18906154be565b6000611b23816129f4565b60008311611b435760405162461bcd60e51b8152600401610a1890615548565b826101d26000846001811115611b5557fe5b6001811115611b6057fe5b8152602081019190915260400160002055611b79612982565b6001600160a01b03167f9db0606b275ca1f1e99d2544ed31141049687b5f4080f2c87812881580a1b7ee8385604051611bb3929190615317565b60405180910390a2505050565b60008281526065602052604081206111749083613a7a565b60cf8054604080516020601f60026000196101006001881615020190951694909404938401819004810282018101909252828152606093909290918301828280156109e65780601f106109bb576101008083540402835291602001916109e6565b60008181526101d160205260408120610c6a90600101613a8f565b61015f5481565b6101d1602090815260009182526040918290208054835160c081018552600183015481526002830154938101939093526003820154938301939093526004810154606083015260058101546080830152600681015460a0830152600781015460088201546009830154600a840154600b909401549293919260ff909116919087565b6101915460ff16611d005760405162461bcd60e51b8152600401610a1890615bb6565b610191805460ff1916905560fb5460ff1615611d2e5760405162461bcd60e51b8152600401610a189061577a565b611d37826129f4565b611d418282613ab4565b60008281526101d16020526040902060090154611d689033908390610d489060ff16613b94565b5050610191805460ff19166001179055565b6101915460ff16611d9d5760405162461bcd60e51b8152600401610a1890615bb6565b610191805460ff1916905560fb5460ff1615611dcb5760405162461bcd60e51b8152600401610a189061577a565b828114611dea5760405162461bcd60e51b8152600401610a1890615a85565b60008060005b83811015611ed557611e0787878381811061121157fe5b611e35878783818110611e1657fe5b90506020020135868684818110611e2957fe5b90506020020135613ab4565b60016101d16000898985818110611e4857fe5b602090810292909201358352508101919091526040016000206009015460ff166001811115611e7357fe5b1415611ea557611e9e858583818110611e8857fe5b90506020020135836130c390919063ffffffff16565b9150611ecd565b611eca858583818110611eb457fe5b90506020020135846130c390919063ffffffff16565b92505b600101611df0565b508115611eeb57611eeb3383610d486000613b94565b8015611f0057611f003382610d486001613b94565b336001600160a01b03167ff00809a6eb66c05c314468512a79b6388957b41bc76bd7241b9cbabb129ae008878787876040516114d894939291906152d1565b600081565b611f4c612982565b6001600160a01b0316826001600160a01b03161415611f7d5760405162461bcd60e51b8152600401610a189061563e565b8060cd6000611f8a612982565b6001600160a01b03908116825260208083019390935260409182016000908120918716808252919093529120805460ff191692151592909217909155611fce612982565b6001600160a01b03167f17307eab39ab6107e8899845ad3d59bd9653f200f220920489ca2b5937696c31836040516120069190615303565b60405180910390a35050565b6101915460ff166120355760405162461bcd60e51b8152600401610a1890615bb6565b610191805460ff1916905560fb5460ff16156120635760405162461bcd60e51b8152600401610a189061577a565b8061206d816129f4565b33612077836116ef565b6001600160a01b03161461209d5760405162461bcd60e51b8152600401610a18906154be565b60008281526101d16020526040812060098101549091906120c09060ff16611995565b90506120cb82613c4d565b8110156120ea5760405162461bcd60e51b8152600401610a1890615888565b60006120f5836139cc565b600a840183905590506000612109846139cc565b905061212581610c64846101ce54613a3890919063ffffffff16565b6101ce555050610191805460ff1916600117905550505050565b6101915460ff166121625760405162461bcd60e51b8152600401610a1890615bb6565b610191805460ff1916905560fb5460ff16156121905760405162461bcd60e51b8152600401610a189061577a565b8161219a816129f4565b6121a43384613204565b6121c05760405162461bcd60e51b8152600401610a18906154be565b60008381526101d16020526040812090600982015460ff1660018111156121e357fe5b146122005760405162461bcd60e51b8152600401610a1890615671565b805461220c90846130c3565b815561223661222c8461221e84613c65565b61222785613c4d565b613c7d565b6101ce54906130c3565b6101ce556009810154612266903390309086906122559060ff16613b94565b6001600160a01b03169291906138c6565b5050610191805460ff191660011790555050565b60009081526101d1602052604090205490565b6101cd5481565b6101cb5481565b600054610100900460ff16806122b457506122b4613c9b565b806122c2575060005460ff16155b6122de5760405162461bcd60e51b8152600401610a189061599f565b600054610100900460ff16158015612309576000805460ff1961ff0019909116610100171660011790555b612311613ca1565b612319613d24565b61237a6040518060400160405280601e81526020017f476f6c6466696e6368205632204c50205374616b696e6720546f6b656e7300008152506040518060400160405280600a8152602001694746492d56322d4c505360b01b815250613da2565b612382613ca1565b61238a613ca1565b612392613e7e565b61239a613f0a565b6123b2600080516020615f0583398151915284611144565b6123ca600080516020615f4e83398151915284611144565b6123f0600080516020615f4e833981519152600080516020615f05833981519152613f9a565b612408600080516020615f0583398151915280613f9a565b6101c380546001600160a01b0319166001600160a01b0384161790556301e133806101cd558015610ad0576000805461ff0019169055505050565b61245461244e612982565b83613204565b6124705760405162461bcd60e51b8152600401610a1890615aff565b61247c84848484613faf565b50505050565b6000806101c4544214612495574261249a565b426001015b905060006124b46101c45483613a3890919063ffffffff16565b90506124c381610f5284613fe2565b9250505090565b6101ce5481565b60606124dc82612975565b6124f85760405162461bcd60e51b8152600401610a1890615a36565b600082815260d0602090815260409182902080548351601f600260001961010060018616150201909316929092049182018490048402810184019094528084526060939283018282801561258d5780601f106125625761010080835404028352916020019161258d565b820191906000526020600020905b81548152906001019060200180831161257057829003601f168201915b505060d154939450505050600260001961010060018416150201909116046125b6579050610955565b8051156125e85760d1816040516020016125d1929190615131565b604051602081830303815290604052915050610955565b60d16125f384614071565b604051602001612604929190615131565b604051602081830303815290604052915050919050565b6101c45481565b6000818152606560205260408120610c6a906130e8565b6000610c7c61264742613fe2565b6101c554906130c3565b6101915460ff166126745760405162461bcd60e51b8152600401610a1890615bb6565b610191805460ff1916905560fb5460ff16156126a25760405162461bcd60e51b8152600401610a189061577a565b80611d68816129f4565b6101915460ff166126cf5760405162461bcd60e51b8152600401610a1890615bb6565b610191805460ff1916905560fb5460ff16156126fd5760405162461bcd60e51b8152600401610a189061577a565b612706826129f4565b60006127128383613652565b905082336001600160a01b03167fc3c6b9e734c21d6e8632c6a862b6de6458faa89079cbc34cc0560ed0ab78a5c68385604051610d92929190615e4d565b7f9f2df0fed2c77648de5860a4cc508cd0818c85b8b8a1ab4ceeef8d981c8956a681565b6000828152606560205260409020600201546127929061074c612982565b6112f65760405162461bcd60e51b8152600401610a189061570e565b600080516020615f0583398151915281565b600080516020615f4e83398151915281565b6101c65481565b6001600160a01b03918216600090815260cd6020908152604080832093909416825291909152205460ff1690565b61280f614aa9565b6101d160008381526020019081526020016000206040518060e001604052908160008201548152602001600182016040518060c00160405290816000820154815260200160018201548152602001600282015481526020016003820154815260200160048201548152602001600582015481525050815260200160078201548152602001600882015481526020016009820160009054906101000a900460ff1660018111156128ba57fe5b60018111156128c557fe5b8152600a8201546020820152600b9091015460409091015292915050565b6101ca5481565b6128f26139a4565b61290e5760405162461bcd60e51b8152600401610a18906154be565b6000612919816129f4565b61292733308461225561310e565b6101c65461293590836130c3565b6101c6556040517fde88a922e0d3b88b24e9623efeb464919c6bf9f66857a65e2bfcf2ce87a9433d9061296990849061530e565b60405180910390a15050565b6000610c6a60ca8361414c565b3390565b600081815260cc6020526040902080546001600160a01b0319166001600160a01b03841690811790915581906129bb826116ef565b6001600160a01b03167f8c5be1e5ebec7d5bd14f71427d1e84f3dd0314c0f7b2291e5b200ac8c7c3b92560405160405180910390a45050565b6101c554612a00612639565b6101c5556000612a2d612a116139c0565b6101c554610f5290612a239086613a38565b6101ce5490613188565b6101c654909150612a3e9082613a38565b6101c655426101c4558215610ad0576000612a5884611a49565b60008581526101d160205260409020600101805491925090612a7a90836130c3565b8155612a8581614158565b50506101c55460008481526101c76020526040902055505050565b6000808311612ac15760405162461bcd60e51b8152600401610a1890615548565b612acc61015f6141b7565b612ad761015f6141c0565b9050612ae2816129f4565b6000612aed83610dae565b90506000612afa84611995565b90506001846001811115612b0a57fe5b1415612ca7576101c354600090612b29906001600160a01b031661317d565b90506000612bf9620f4240610f52670de0b6b3a7640000610f4c866001600160a01b0316634903b0d160006040518263ffffffff1660e01b8152600401612b70919061530e565b60206040518083038186803b158015612b8857600080fd5b505afa158015612b9c573d6000803e3d6000fd5b505050506040513d601f19601f82011682018060405250810190612bc09190614f5c565b610f52670de0b6b3a7640000896001600160a01b0316634903b0d160016040518263ffffffff1660e01b8152600401610efc919061530e565b6101c354909150612c5890606490610f5290604b90612c20906001600160a01b03166138e7565b6001600160a01b031663872697296040518163ffffffff1660e01b815260040160206040518083038186803b158015610f1457600080fd5b81118015612c8857506101c354612c8590606490610f5290607d90612c20906001600160a01b03166138e7565b81105b612ca45760405162461bcd60e51b8152600401610a189061575e565b50505b6040518060e001604052808681526020016040518060c0016040528060008152602001600081526020016000815260200160008152602001428152602001600081525081526020016000815260200160008152602001856001811115612d0957fe5b81526020808201849052604091820185905260008681526101d18252829020835181558382015180516001808401919091559281015160028301558084015160038301556060808201516004840155608080830151600585015560a0909201516006840155938501516007830155928401516008820155918301516009830180549192909160ff1916908381811115612d9e57fe5b021790555060a0820151600a82015560c090910151600b90910155612dc386846141c4565b60008381526101d160205260409020612ddf9061222c906139cc565b6101ce556001600160a01b0387163014612e0257612e0287308761225588613b94565b82866001600160a01b03167fcc10169be2ad544347561e230939849af48d1714c052d7fe247d12f3decb4896878786604051612e4093929190615de2565b60405180910390a35050949350505050565b600080612e5e84614288565b612e7a5760405162461bcd60e51b8152600401610a18906158da565b612e82613827565b612e9e5760405162461bcd60e51b8152600401610a18906153d3565b6101c354600090612eb7906001600160a01b03166142b3565b90506000816001600160a01b03166370a08231306040518263ffffffff1660e01b8152600401612ee791906151b2565b60206040518083038186803b158015612eff57600080fd5b505afa158015612f13573d6000803e3d6000fd5b505050506040513d601f19601f82011682018060405250810190612f379190614f5c565b6101c354909150612f50906001600160a01b03166138e7565b6001600160a01b0316632e1a7d4d866040518263ffffffff1660e01b8152600401612f7b919061530e565b602060405180830381600087803b158015612f9557600080fd5b505af1158015612fa9573d6000803e3d6000fd5b505050506040513d601f19601f82011682018060405250810190612fcd9190614f5c565b9350613055826001600160a01b03166370a08231306040518263ffffffff1660e01b8152600401612ffe91906151b2565b60206040518083038186803b15801561301657600080fd5b505afa15801561302a573d6000803e3d6000fd5b505050506040513d601f19601f8201168201806040525081019061304e9190614f5c565b8290613a38565b92506130618684613ab4565b6101c35461307f9033908690610d48906001600160a01b03166138bb565b50505b9250929050565b6000848411613099575080610c45565b610c426130bd6130a98688613a38565b610f526130b6878a613a38565b8690613188565b836142be565b6000828201838110156111745760405162461bcd60e51b8152600401610a1890615566565b6000610c6a826141c0565b600382015461310290826130c3565b82600301819055505050565b6101c354600090610c7c906001600160a01b03166142d4565b610ad08363a9059cbb60e01b8484604051602401613146929190615278565b60408051601f198184030181529190526020810180516001600160e01b03166001600160e01b0319909316929092179091526142df565b6000610c6a826143c4565b60008261319757506000610c6a565b828202828482816131a457fe5b04146111745760405162461bcd60e51b8152600401610a18906158f6565b600061117483836040518060400160405280601a81526020017f536166654d6174683a206469766973696f6e206279207a65726f0000000000008152506143dc565b600061320f82612975565b61322b5760405162461bcd60e51b8152600401610a18906156c2565b6000613236836116ef565b9050806001600160a01b0316846001600160a01b031614806132715750836001600160a01b0316613266846109f1565b6001600160a01b0316145b80610c455750610c4581856127d9565b826001600160a01b0316613294826116ef565b6001600160a01b0316146132ba5760405162461bcd60e51b8152600401610a18906159ed565b6001600160a01b0382166132e05760405162461bcd60e51b8152600401610a18906155fa565b6132eb838383614413565b6132f6600082612986565b6001600160a01b038316600090815260c960205260409020613318908261441e565b506001600160a01b038216600090815260c96020526040902061333b908261442a565b5061334860ca8284614436565b5080826001600160a01b0316846001600160a01b03167fddf252ad1be2c89b69c2b068fc378daa952ba7f163c4a11628f55a4df523b3ef60405160405180910390a4505050565b60006001600160a01b03821663b93f9b0a60055b6040518263ffffffff1660e01b81526004016133bf919061530e565b60206040518083038186803b1580156133d757600080fd5b505afa1580156133eb573d6000803e3d6000fd5b505050506040513d601f19601f82011682018060405250810190610c6a9190614c2d565b60008083118061341f5750600082115b61343b5760405162461bcd60e51b8152600401610a1890615548565b6101c354600090613454906001600160a01b03166138bb565b6101c354909150600090613470906001600160a01b03166142b3565b6101c35490915060009061348c906001600160a01b031661317d565b905085156134bd576134a96001600160a01b0383168930896138c6565b6134bd6001600160a01b03831682886138f2565b84156134ec576134d86001600160a01b0384168930886138c6565b6134ec6001600160a01b03841682876138f2565b6000613538600a610f526009856001600160a01b0316638d8ea72760405180604001604052808e81526020018d8152506040518263ffffffff1660e01b8152600401610efc9190615291565b604080518082018252898152602081018990529051637328333b60e01b81529192506001600160a01b03841691637328333b9161357e9185906000908e9060040161529f565b602060405180830381600087803b15801561359857600080fd5b505af11580156135ac573d6000803e3d6000fd5b505050506040513d601f19601f820116820180604052508101906135d09190614f5c565b9998505050505050505050565b60008281526065602052604090206135f5908261444c565b1561114e57613602612982565b6001600160a01b0316816001600160a01b0316837f2f8788117e7eff1d82e926ec794901d17c78024a50270940304540a733656f0d60405160405180910390a45050565b60006111748383614461565b600061365d83614288565b6136795760405162461bcd60e51b8152600401610a18906158da565b6101c35461368f906001600160a01b03166138e7565b6001600160a01b03166358031d12836040518263ffffffff1660e01b81526004016136ba919061530e565b602060405180830381600087803b1580156136d457600080fd5b505af11580156136e8573d6000803e3d6000fd5b505050506040513d601f19601f8201168201806040525081019061370c9190614f5c565b90506137188383613ab4565b6101c354610c6a9033908390610d48906001600160a01b03166138bb565b600082815260656020526040902061374e90826144a6565b1561114e5761375b612982565b6001600160a01b0316816001600160a01b0316837ff6391f5c32d9c69d2a47ea670b442974b53935d1edc7fd64eb21e047a839171b60405160405180910390a45050565b60fb5460ff166137c15760405162461bcd60e51b8152600401610a189061543e565b60fb805460ff191690557f5db9ee0a495bf2e6ff9c91a7834c1ba4fdd244a5e8aa4e537bd38aeae4b073aa6137f4612982565b60405161380191906151b2565b60405180910390a1565b600080808061381a86866144bb565b9097909650945050505050565b6101c354600090613840906001600160a01b0316614517565b6001600160a01b031663a37b92c9336040518263ffffffff1660e01b815260040161386b91906151b2565b60206040518083038186803b15801561388357600080fd5b505afa158015613897573d6000803e3d6000fd5b505050506040513d601f19601f82011682018060405250810190610c7c9190614e90565b6000610c6a8261338f565b61247c846323b872dd60e01b85858560405160240161314693929190615254565b6000610c6a82614522565b600061397682856001600160a01b031663dd62ed3e30876040518363ffffffff1660e01b815260040161392692919061523a565b60206040518083038186803b15801561393e57600080fd5b505afa158015613952573d6000803e3d6000fd5b505050506040513d601f19601f82011682018060405250810190610c649190614f5c565b905061247c8463095ea7b360e01b8584604051602401613146929190615278565b6000610c4584848461453a565b6000610c7c600080516020615f0583398151915261074c612982565b670de0b6b3a764000090565b6000610c6a826000015461221e84613c65565b60fb5460ff1615613a025760405162461bcd60e51b8152600401610a189061577a565b60fb805460ff191660011790557f62e78cea01bee320cd4e420270b5ea74000d11b0c9f74754ebdbfc544b05a2586137f4612982565b600061117483836040518060400160405280601e81526020017f536166654d6174683a207375627472616374696f6e206f766572666c6f770000815250614599565b6000611174836001600160a01b0384166145c5565b6000610c6a8260030154611a76846002015485600101546130c390919063ffffffff16565b613abe3383613204565b613ada5760405162461bcd60e51b8152600401610a18906154be565b60008281526101d16020526040902080548215801590613afa5750808311155b613b165760405162461bcd60e51b8152600401610a1890615983565b613b39613b2f84613b2685613c65565b61222786613c4d565b6101ce5490613a38565b6101ce55613b478184613a38565b82556009820154604051859133917f47efae27a70cca1d3ad8e753ab4b48a413e554d244be5c7928fdfee407c37f5d91613b8691889160ff1690615dc6565b60405180910390a350505050565b60006001826001811115613ba457fe5b1415613c37576101c354613bc0906001600160a01b031661317d565b6001600160a01b031663fc0c546a6040518163ffffffff1660e01b815260040160206040518083038186803b158015613bf857600080fd5b505afa158015613c0c573d6000803e3d6000fd5b505050506040513d601f19601f82011682018060405250810190613c309190614c2d565b9050610955565b6101c354610c6a906001600160a01b03166142b3565b600a81015460009015610f605750600a810154610955565b600b81015460009015610f605750600b810154610955565b6000610c45670de0b6b3a7640000610f52818186610f4c8a8a613188565b303b1590565b600054610100900460ff1680613cba5750613cba613c9b565b80613cc8575060005460ff16155b613ce45760405162461bcd60e51b8152600401610a189061599f565b600054610100900460ff16158015613d0f576000805460ff1961ff0019909116610100171660011790555b8015613d21576000805461ff00191690555b50565b600054610100900460ff1680613d3d5750613d3d613c9b565b80613d4b575060005460ff16155b613d675760405162461bcd60e51b8152600401610a189061599f565b600054610100900460ff16158015613d92576000805460ff1961ff0019909116610100171660011790555b613d0f6301ffc9a760e01b6145dd565b600054610100900460ff1680613dbb5750613dbb613c9b565b80613dc9575060005460ff16155b613de55760405162461bcd60e51b8152600401610a189061599f565b600054610100900460ff16158015613e10576000805460ff1961ff0019909116610100171660011790555b8251613e239060ce906020860190614af7565b508151613e379060cf906020850190614af7565b50613e486380ac58cd60e01b6145dd565b613e58635b5e139f60e01b6145dd565b613e6863780e9d6360e01b6145dd565b8015610ad0576000805461ff0019169055505050565b600054610100900460ff1680613e975750613e97613c9b565b80613ea5575060005460ff16155b613ec15760405162461bcd60e51b8152600401610a189061599f565b600054610100900460ff16158015613eec576000805460ff1961ff0019909116610100171660011790555b60fb805460ff191690558015613d21576000805461ff001916905550565b600054610100900460ff1680613f235750613f23613c9b565b80613f31575060005460ff16155b613f4d5760405162461bcd60e51b8152600401610a189061599f565b600054610100900460ff16158015613f78576000805460ff1961ff0019909116610100171660011790555b610191805460ff191660011790558015613d21576000805461ff001916905550565b60009182526065602052604090912060020155565b613fba848484613281565b613fc68484848461462c565b61247c5760405162461bcd60e51b8152600401610a189061546c565b60006101c4548210156140075760405162461bcd60e51b8152600401610a1890615ae3565b6101ce5461401757506000610955565b600061403f614036614027614766565b6101c454610f4c908790613a38565b6101c6546142be565b9050600061405c6101ce54610f526140556139c0565b8590613188565b90508181111561117457600092505050610955565b60608161409657506040805180820190915260018152600360fc1b6020820152610955565b8160005b81156140ae57600101600a8204915061409a565b60608167ffffffffffffffff811180156140c757600080fd5b506040519080825280601f01601f1916602001820160405280156140f2576020820181803683370190505b50859350905060001982015b831561414357600a840660300160f81b8282806001900393508151811061412157fe5b60200101906001600160f81b031916908160001a905350600a840493506140fe565b50949350505050565b600061117483836145c5565b600061417682600401548360050154426141718661483d565b613089565b9050816001015481111561114e57600061419d836001015483613a3890919063ffffffff16565b83549091506141ac9082613a38565b835550600190910155565b80546001019055565b5490565b6001600160a01b0382166141ea5760405162461bcd60e51b8152600401610a18906158a5565b6141f381612975565b156142105760405162461bcd60e51b8152600401610a1890615511565b61421c60008383614413565b6001600160a01b038216600090815260c96020526040902061423e908261442a565b5061424b60ca8284614436565b5060405181906001600160a01b038416906000907fddf252ad1be2c89b69c2b068fc378daa952ba7f163c4a11628f55a4df523b3ef908290a45050565b60008060008381526101d1602052604090206009015460ff1660018111156142ac57fe5b1492915050565b6000610c6a82614851565b60008183106142cd5781611174565b5090919050565b6000610c6a82614869565b6142f1826001600160a01b0316614881565b61430d5760405162461bcd60e51b8152600401610a1890615c4b565b60006060836001600160a01b0316836040516143299190615115565b6000604051808303816000865af19150503d8060008114614366576040519150601f19603f3d011682016040523d82523d6000602084013e61436b565b606091505b50915091508161438d5760405162461bcd60e51b8152600401610a189061568d565b80511561247c57808060200190518101906143a89190614e90565b61247c5760405162461bcd60e51b8152600401610a1890615b50565b60006001600160a01b03821663b93f9b0a60166133a3565b600081836143fd5760405162461bcd60e51b8152600401610a189190615333565b50600083858161440957fe5b0495945050505050565b610ad08383836148ba565b600061117483836148ea565b600061117483836149b0565b6000610c4584846001600160a01b0385166149fa565b6000611174836001600160a01b0384166149b0565b815460009082106144845760405162461bcd60e51b8152600401610a1890615346565b82600001828154811061449357fe5b9060005260206000200154905092915050565b6000611174836001600160a01b0384166148ea565b8154600090819083106144e05760405162461bcd60e51b8152600401610a1890615846565b60008460000184815481106144f157fe5b906000526020600020906002020190508060000154816001015492509250509250929050565b6000610c6a82614a91565b60006001600160a01b03821663b93f9b0a600e6133a3565b6000828152600184016020526040812054828161456a5760405162461bcd60e51b8152600401610a189190615333565b5084600001600182038154811061457d57fe5b9060005260206000209060020201600101549150509392505050565b600081848411156145bd5760405162461bcd60e51b8152600401610a189190615333565b505050900390565b60009081526001919091016020526040902054151590565b6001600160e01b031980821614156146075760405162461bcd60e51b8152600401610a18906154da565b6001600160e01b0319166000908152609760205260409020805460ff19166001179055565b6000614640846001600160a01b0316614881565b61464c57506001610c45565b600060606001600160a01b038616630a85bd0160e11b61466a612982565b89888860405160240161468094939291906151c6565b60408051601f198184030181529181526020820180516001600160e01b03166001600160e01b03199094169390931790925290516146be9190615115565b6000604051808303816000865af19150503d80600081146146fb576040519150601f19603f3d011682016040523d82523d6000602084013e614700565b606091505b5091509150816147325780511561471a5780518082602001fd5b60405162461bcd60e51b8152600401610a189061546c565b6000818060200190518101906147489190614f25565b6001600160e01b031916630a85bd0160e11b149350610c4592505050565b60008061478e670de0b6b3a7640000610f526101cb546101c85461318890919063ffffffff16565b905060006147b7670de0b6b3a7640000610f526101cc546101c85461318890919063ffffffff16565b6101ce549091508282116147d157600093505050506109ee565b828110156147e7576101ca5493505050506109ee565b818111156147fd576101c95493505050506109ee565b61483561482b61480d8486613a38565b610f5261481a8588613a38565b6101c9546101ca54610f4c91613a38565b6101ca5490613a38565b935050505090565b60018101548154600091610c6a91906130c3565b60006001600160a01b03821663b93f9b0a60046133a3565b60006001600160a01b03821663b93f9b0a60126133a3565b6000813f7fc5d2460186f7233c927e7db2dcc703c0e500b653ca82273b7bfad8045d85a470818114801590610c45575050151592915050565b6148c5838383610ad0565b6148cd6116e6565b15610ad05760405162461bcd60e51b8152600401610a1890615388565b600081815260018301602052604081205480156149a6578354600019808301919081019060009087908390811061491d57fe5b906000526020600020015490508087600001848154811061493a57fe5b60009182526020808320909101929092558281526001898101909252604090209084019055865487908061496a57fe5b60019003818190600052602060002001600090559055866001016000878152602001908152602001600020600090556001945050505050610c6a565b6000915050610c6a565b60006149bc83836145c5565b6149f257508154600181810184556000848152602080822090930184905584548482528286019093526040902091909155610c6a565b506000610c6a565b600082815260018401602052604081205480614a5f575050604080518082018252838152602080820184815286546001818101895560008981528481209551600290930290950191825591519082015586548684528188019092529290912055611174565b82856000016001830381548110614a7257fe5b9060005260206000209060020201600101819055506000915050611174565b60006001600160a01b03821663b93f9b0a60136133a3565b6040518060e0016040528060008152602001614ac3614b75565b8152602001600081526020016000815260200160006001811115614ae357fe5b815260200160008152602001600081525090565b828054600181600116156101000203166002900490600052602060002090601f016020900481019282601f10614b3857805160ff1916838001178555614b65565b82800160010185558215614b65579182015b82811115614b65578251825591602001919060010190614b4a565b50614b71929150614bab565b5090565b6040518060c001604052806000815260200160008152602001600081526020016000815260200160008152602001600081525090565b5b80821115614b715760008155600101614bac565b60008083601f840112614bd1578182fd5b50813567ffffffffffffffff811115614be8578182fd5b602083019150836020808302850101111561308257600080fd5b803560028110610c6a57600080fd5b600060208284031215614c22578081fd5b813561117481615ecb565b600060208284031215614c3e578081fd5b815161117481615ecb565b60008060408385031215614c5b578081fd5b8235614c6681615ecb565b91506020830135614c7681615ecb565b809150509250929050565b600080600060608486031215614c95578081fd5b8335614ca081615ecb565b92506020840135614cb081615ecb565b929592945050506040919091013590565b60008060008060808587031215614cd6578081fd5b8435614ce181615ecb565b9350602085810135614cf281615ecb565b935060408601359250606086013567ffffffffffffffff80821115614d15578384fd5b818801915088601f830112614d28578384fd5b813581811115614d36578485fd5b604051601f8201601f1916810185018381118282101715614d55578687fd5b60405281815283820185018b1015614d6b578586fd5b81858501868301379081019093019390935250939692955090935050565b60008060408385031215614d9b578182fd5b8235614da681615ecb565b91506020830135614c7681615ee0565b60008060408385031215614c5b578182fd5b60008060408385031215614dda578182fd5b8235614de581615ecb565b946020939093013593505050565b600080600060608486031215614e07578283fd5b8335614e1281615ecb565b95602085013595506040909401359392505050565b60008060008060408587031215614e3c578384fd5b843567ffffffffffffffff80821115614e53578586fd5b614e5f88838901614bc0565b90965094506020870135915080821115614e77578384fd5b50614e8487828801614bc0565b95989497509550505050565b600060208284031215614ea1578081fd5b815161117481615ee0565b600060208284031215614ebd578081fd5b5035919050565b60008060408385031215614ed6578182fd5b823591506020830135614c7681615ecb565b60008060408385031215614efa578182fd5b50508035926020909101359150565b600060208284031215614f1a578081fd5b813561117481615eee565b600060208284031215614f36578081fd5b815161117481615eee565b600060208284031215614f52578081fd5b6111748383614c02565b600060208284031215614f6d578081fd5b5051919050565b60008060408385031215614f86578182fd5b82359150614f978460208501614c02565b90509250929050565b60008060008060808587031215614fb5578182fd5b5050823594602084013594506040840135936060013592509050565b600080600080600060a08688031215614fe8578283fd5b505083359560208501359550604085013594606081013594506080013592509050565b600080600080600060a08688031215615022578283fd5b8535945060208601359350604086013560ff81168114615040578384fd5b94979396509394606081013594506080013592915050565b8060005b600281101561247c57815184526020938401939091019060010161505c565b81835260006001600160fb1b03831115615093578081fd5b6020830280836020870137939093016020019283525090919050565b600081518084526150c7816020860160208601615e9f565b601f01601f19169290920160200192915050565b805182526020810151602083015260408101516040830152606081015160608301526080810151608083015260a081015160a08301525050565b60008251615127818460208701615e9f565b9190910192915050565b6000808454600180821660008114615150576001811461516757615196565b60ff198316865260028304607f1686019350615196565b600283048886526020808720875b8381101561518e5781548a820152908501908201615175565b505050860193505b50505083516151a9818360208801615e9f565b01949350505050565b6001600160a01b0391909116815260200190565b6001600160a01b0385811682528416602082015260408101839052608060608201819052600090611047908301846150af565b6001600160a01b0397881681529590961660208601526040850193909352606084019190915260ff16608083015260a082015260c081019190915260e00190565b6001600160a01b0392831681529116602082015260400190565b6001600160a01b039384168152919092166020820152604081019190915260600190565b6001600160a01b03929092168252602082015260400190565b60408101610c6a8284615058565b60a081016152ad8287615058565b604082019490945291151560608301526001600160a01b0316608090910152919050565b6000604082526152e560408301868861507b565b82810360208401526152f881858761507b565b979650505050505050565b901515815260200190565b90815260200190565b6040810161532484615e94565b82528260208301529392505050565b60006020825261117460208301846150af565b60208082526022908201527f456e756d657261626c655365743a20696e646578206f7574206f6620626f756e604082015261647360f01b606082015260800190565b6020808252602b908201527f4552433732315061757361626c653a20746f6b656e207472616e73666572207760408201526a1a1a5b19481c185d5cd95960aa1b606082015260800190565b60208082526002908201526111d360f21b604082015260600190565b6020808252602f908201527f416363657373436f6e74726f6c3a2073656e646572206d75737420626520616e60408201526e0818591b5a5b881d1bc819dc985b9d608a1b606082015260800190565b60208082526014908201527314185d5cd8589b194e881b9bdd081c185d5cd95960621b604082015260600190565b60208082526032908201527f4552433732313a207472616e7366657220746f206e6f6e20455243373231526560408201527131b2b4bb32b91034b6b83632b6b2b73a32b960711b606082015260800190565b602080825260029082015261105160f21b604082015260600190565b6020808252601c908201527f4552433136353a20696e76616c696420696e7465726661636520696400000000604082015260600190565b6020808252601c908201527f4552433732313a20746f6b656e20616c7265616479206d696e74656400000000604082015260600190565b6020808252600490820152635a45524f60e01b604082015260600190565b6020808252601b908201527f536166654d6174683a206164646974696f6e206f766572666c6f770000000000604082015260600190565b6020808252603e908201527f4552433732315072657365744d696e7465725061757365724175746f49643a2060408201527f6d75737420686176652070617573657220726f6c6520746f2070617573650000606082015260800190565b60208082526024908201527f4552433732313a207472616e7366657220746f20746865207a65726f206164646040820152637265737360e01b606082015260800190565b60208082526019908201527822a9219b99189d1030b8383937bb32903a379031b0b63632b960391b604082015260600190565b602080825260029082015261141560f21b604082015260600190565b6020808252818101527f5361666545524332303a206c6f772d6c6576656c2063616c6c206661696c6564604082015260600190565b6020808252602c908201527f4552433732313a206f70657261746f7220717565727920666f72206e6f6e657860408201526b34b9ba32b73a103a37b5b2b760a11b606082015260800190565b60208082526030908201527f416363657373436f6e74726f6c3a2073656e646572206d75737420626520616e60408201526f2061646d696e20746f207265766f6b6560801b606082015260800190565b602080825260029082015261494d60f01b604082015260600190565b60208082526010908201526f14185d5cd8589b194e881c185d5cd95960821b604082015260600190565b60208082526038908201527f4552433732313a20617070726f76652063616c6c6572206973206e6f74206f776040820152771b995c881b9bdc88185c1c1c9bdd995908199bdc88185b1b60421b606082015260800190565b6020808252602a908201527f4552433732313a2062616c616e636520717565727920666f7220746865207a65604082015269726f206164647265737360b01b606082015260800190565b60208082526022908201527f456e756d657261626c654d61703a20696e646578206f7574206f6620626f756e604082015261647360f01b606082015260800190565b6020808252600390820152624c4f5760e81b604082015260600190565b6020808252818101527f4552433732313a206d696e7420746f20746865207a65726f2061646472657373604082015260600190565b602080825260029082015261435760f01b604082015260600190565b60208082526021908201527f536166654d6174683a206d756c7469706c69636174696f6e206f766572666c6f6040820152607760f81b606082015260800190565b6020808252602c908201527f4552433732313a20617070726f76656420717565727920666f72206e6f6e657860408201526b34b9ba32b73a103a37b5b2b760a11b606082015260800190565b602080825260029082015261494160f01b604082015260600190565b6020808252602e908201527f436f6e747261637420696e7374616e63652068617320616c726561647920626560408201526d195b881a5b9a5d1a585b1a5e995960921b606082015260800190565b60208082526029908201527f4552433732313a207472616e73666572206f6620746f6b656e2074686174206960408201526839903737ba1037bbb760b91b606082015260800190565b6020808252602f908201527f4552433732314d657461646174613a2055524920717565727920666f72206e6f60408201526e3732bc34b9ba32b73a103a37b5b2b760891b606082015260800190565b6020808252600390820152622622a760e91b604082015260600190565b60208082526021908201527f4552433732313a20617070726f76616c20746f2063757272656e74206f776e656040820152603960f91b606082015260800190565b602080825260029082015261125560f21b604082015260600190565b60208082526031908201527f4552433732313a207472616e736665722063616c6c6572206973206e6f74206f6040820152701ddb995c881b9bdc88185c1c1c9bdd9959607a1b606082015260800190565b6020808252602a908201527f5361666545524332303a204552433230206f7065726174696f6e20646964206e6040820152691bdd081cdd58d8d9595960b21b606082015260800190565b602080825260029082015261049560f41b604082015260600190565b6020808252601f908201527f5265656e7472616e637947756172643a207265656e7472616e742063616c6c00604082015260600190565b602080825260409082018190527f4552433732315072657365744d696e7465725061757365724175746f49643a20908201527f6d75737420686176652070617573657220726f6c6520746f20756e7061757365606082015260800190565b6020808252601f908201527f5361666545524332303a2063616c6c20746f206e6f6e2d636f6e747261637400604082015260600190565b6020808252602f908201527f416363657373436f6e74726f6c3a2063616e206f6e6c792072656e6f756e636560408201526e103937b632b9903337b91039b2b63360891b606082015260800190565b81518152602080830151610180830191615ced908401826150db565b50604083015160e08301526060830151610100830152615d106080840151615e94565b61012083015260a083015161014083015260c0909201516101609091015290565b600086825260606020830152615d4b60608301868861507b565b8281036040840152615d5e81858761507b565b98975050505050505050565b60008582526020606081840152615d8560608401868861507b565b8381036040850152845180825282860191830190845b81811015615db757835183529284019291840191600101615d9b565b50909998505050505050505050565b82815260408101615dd683615e94565b60208301529392505050565b83815260608101615df284615e94565b6020830152826040830152949350505050565b8781526101808101615e1a60208301896150db565b8660e083015285610100830152615e3085615e94565b610120830152610140820193909352610160015295945050505050565b918252602082015260400190565b9283526020830191909152604082015260600190565b948552602085019390935260408401919091526060830152608082015260a00190565b806002811061095557fe5b60005b83811015615eba578181015183820152602001615ea2565b8381111561247c5750506000910152565b6001600160a01b0381168114613d2157600080fd5b8015158114613d2157600080fd5b6001600160e01b031981168114613d2157600080fdfeb19546dff01e856fb3f010c267a7b1c60363cf8a4664e21cc89c26224620214e4552433732313a206f776e657220717565727920666f72206e6f6e6578697374656e7420746f6b656e65d7a28e3265b37a6474929f336521b332c1681b933f6cb9f3376673440d862aa2646970667358221220709b6b52190adad73f00794970c113408e4e2f45ecca8eadbad8ea34250ffecf64736f6c634300060c0033",
  "devdoc": {
    "kind": "dev",
    "methods": {
      "addToStake(uint256,uint256)": {
        "params": {
          "amount": "Amount of `stakingToken()` to be added to tokenId's position",
          "tokenId": "A staking position token ID"
        }
      },
      "approve(address,uint256)": {
        "details": "Approves another address to transfer the given token ID The zero address indicates there is no approved address. There can only be one approved address per token at a given time. Can only be called by the token owner or an approved operator.",
        "params": {
          "to": "address to be approved for the given token ID",
          "tokenId": "uint256 ID of the token to be approved"
        }
      },
      "balanceOf(address)": {
        "details": "Gets the balance of the specified address.",
        "params": {
          "owner": "address to query the balance of"
        },
        "returns": {
          "_0": "uint256 representing the amount owned by the passed address"
        }
      },
      "baseURI()": {
        "details": "Returns the base URI set via {_setBaseURI}. This will be automatically added as a prefix in {tokenURI} to each token's URI, or to the token ID if no specific URI is set for that token ID."
      },
      "claimableRewards(uint256)": {
        "returns": {
          "rewards": "Amount of rewards denominated in `rewardsToken()`"
        }
      },
      "currentEarnRatePerToken()": {
        "returns": {
          "_0": "Amount of rewards denominated in `rewardsToken().decimals()`."
        }
      },
      "depositAndStake(uint256)": {
        "params": {
          "usdcAmount": "The amount of USDC to deposit into the senior pool. All shares from deposit   will be staked."
        }
      },
      "depositToCurve(uint256,uint256)": {
        "params": {
          "fiduAmount": "The amount of FIDU to deposit",
          "usdcAmount": "The amount of USDC to deposit"
        }
      },
      "depositToCurveAndStakeFrom(address,uint256,uint256)": {
        "params": {
          "fiduAmount": "The amount of FIDU to deposit",
          "usdcAmount": "The amount of USDC to deposit"
        }
      },
      "depositWithPermitAndStake(uint256,uint256,uint8,bytes32,bytes32)": {
        "params": {
          "r": "secp256k1 signature component",
          "s": "secp256k1 signature component",
          "usdcAmount": "The amount of USDC to deposit",
          "v": "secp256k1 signature component"
        }
      },
      "earnedSinceLastCheckpoint(uint256)": {
        "params": {
          "tokenId": "A staking position token ID"
        },
        "returns": {
          "_0": "Amount of rewards denominated in `rewardsToken().decimals()`"
        }
      },
      "getApproved(uint256)": {
        "details": "Gets the approved address for a token ID, or zero if no address set Reverts if the token ID does not exist.",
        "params": {
          "tokenId": "uint256 ID of the token to query the approval of"
        },
        "returns": {
          "_0": "address currently approved for the given token ID"
        }
      },
      "getBaseTokenExchangeRate(uint8)": {
        "params": {
          "positionType": "Type of the staked postion"
        }
      },
      "getReward(uint256)": {
        "params": {
          "tokenId": "A staking position token ID"
        }
      },
      "getRoleAdmin(bytes32)": {
        "details": "Returns the admin role that controls `role`. See {grantRole} and {revokeRole}. To change a role's admin, use {_setRoleAdmin}."
      },
      "getRoleMember(bytes32,uint256)": {
        "details": "Returns one of the accounts that have `role`. `index` must be a value between 0 and {getRoleMemberCount}, non-inclusive. Role bearers are not sorted in any particular way, and their ordering may change at any point. WARNING: When using {getRoleMember} and {getRoleMemberCount}, make sure you perform all queries on the same block. See the following https://forum.openzeppelin.com/t/iterating-over-elements-on-enumerableset-in-openzeppelin-contracts/2296[forum post] for more information."
      },
      "getRoleMemberCount(bytes32)": {
        "details": "Returns the number of accounts that have `role`. Can be used together with {getRoleMember} to enumerate all bearers of a role."
      },
      "grantRole(bytes32,address)": {
        "details": "Grants `role` to `account`. If `account` had not been already granted `role`, emits a {RoleGranted} event. Requirements: - the caller must have ``role``'s admin role."
      },
      "hasRole(bytes32,address)": {
        "details": "Returns `true` if `account` has been granted `role`."
      },
      "isApprovedForAll(address,address)": {
        "details": "Tells whether an operator is approved by a given owner.",
        "params": {
          "operator": "operator address which you want to query the approval of",
          "owner": "owner address which you want to query the approval of"
        },
        "returns": {
          "_0": "bool whether the given operator is approved by the given owner"
        }
      },
      "kick(uint256)": {
        "details": "This will also checkpoint their rewards up to the current time."
      },
      "name()": {
        "details": "Gets the token name.",
        "returns": {
          "_0": "string representing the token name"
        }
      },
      "ownerOf(uint256)": {
        "details": "Gets the owner of the specified token ID.",
        "params": {
          "tokenId": "uint256 ID of the token to query the owner of"
        },
        "returns": {
          "_0": "address currently marked as the owner of the given token ID"
        }
      },
      "pause()": {
        "details": "Pauses all token transfers. See {ERC721Pausable} and {Pausable-_pause}. Requirements: - the caller must have the `PAUSER_ROLE`."
      },
      "paused()": {
        "details": "Returns true if the contract is paused, and false otherwise."
      },
      "positionCurrentEarnRate(uint256)": {
        "returns": {
          "_0": "Amount of rewards denominated in `rewardsToken().decimals()`."
        }
      },
      "renounceRole(bytes32,address)": {
        "details": "Revokes `role` from the calling account. Roles are often managed via {grantRole} and {revokeRole}: this function's purpose is to provide a mechanism for accounts to lose their privileges if they are compromised (such as when a trusted device is misplaced). If the calling account had been granted `role`, emits a {RoleRevoked} event. Requirements: - the caller must be `account`."
      },
      "revokeRole(bytes32,address)": {
        "details": "Revokes `role` from `account`. If `account` had been granted `role`, emits a {RoleRevoked} event. Requirements: - the caller must have ``role``'s admin role."
      },
      "rewardPerToken()": {
        "returns": {
          "_0": "Amount of rewards denominated in `rewardsToken().decimals()`"
        }
      },
      "safeTransferFrom(address,address,uint256)": {
        "details": "Safely transfers the ownership of a given token ID to another address If the target address is a contract, it must implement {IERC721Receiver-onERC721Received}, which is called upon a safe transfer, and return the magic value `bytes4(keccak256(\"onERC721Received(address,address,uint256,bytes)\"))`; otherwise, the transfer is reverted. Requires the msg.sender to be the owner, approved, or operator",
        "params": {
          "from": "current owner of the token",
          "to": "address to receive the ownership of the given token ID",
          "tokenId": "uint256 ID of the token to be transferred"
        }
      },
      "safeTransferFrom(address,address,uint256,bytes)": {
        "details": "Safely transfers the ownership of a given token ID to another address If the target address is a contract, it must implement {IERC721Receiver-onERC721Received}, which is called upon a safe transfer, and return the magic value `bytes4(keccak256(\"onERC721Received(address,address,uint256,bytes)\"))`; otherwise, the transfer is reverted. Requires the _msgSender() to be the owner, approved, or operator",
        "params": {
          "_data": "bytes data to send along with a safe transfer check",
          "from": "current owner of the token",
          "to": "address to receive the ownership of the given token ID",
          "tokenId": "uint256 ID of the token to be transferred"
        }
      },
      "setApprovalForAll(address,bool)": {
        "details": "Sets or unsets the approval of a given operator An operator is allowed to transfer all tokens of the sender on their behalf.",
        "params": {
          "approved": "representing the status of the approval to be set",
          "operator": "operator address to set the approval"
        }
      },
      "setEffectiveMultiplier(uint256,uint8)": {
        "params": {
          "multiplier": "the new multiplier, denominated in `MULTIPLIER_DECIMALS`",
          "positionType": "the type of the position"
        }
      },
      "stake(uint256,uint8)": {
        "details": "This function checkpoints rewards.",
        "params": {
          "amount": "The amount of `stakingToken()` to stake",
          "positionType": "The type of the staked position"
        },
        "returns": {
          "_0": "Id of the NFT representing the staked position"
        }
      },
      "stakedBalanceOf(uint256)": {
        "details": "The value returned is the bare amount, not the effective amount. The bare amount represents   the number of tokens the user has staked for a given position.",
        "params": {
          "tokenId": "A staking position token ID"
        },
        "returns": {
          "_0": "Amount of staked tokens denominated in `stakingToken().decimals()`"
        }
      },
      "supportsInterface(bytes4)": {
        "details": "See {IERC165-supportsInterface}. Time complexity O(1), guaranteed to always use less than 30 000 gas."
      },
      "symbol()": {
        "details": "Gets the token symbol.",
        "returns": {
          "_0": "string representing the token symbol"
        }
      },
      "tokenByIndex(uint256)": {
        "details": "Gets the token ID at a given index of all the tokens in this contract Reverts if the index is greater or equal to the total number of tokens.",
        "params": {
          "index": "uint256 representing the index to be accessed of the tokens list"
        },
        "returns": {
          "_0": "uint256 token ID at the given index of the tokens list"
        }
      },
      "tokenOfOwnerByIndex(address,uint256)": {
        "details": "Gets the token ID at a given index of the tokens list of the requested owner.",
        "params": {
          "index": "uint256 representing the index to be accessed of the requested tokens list",
          "owner": "address owning the tokens list to be accessed"
        },
        "returns": {
          "_0": "uint256 token ID at the given index of the tokens list owned by the requested address"
        }
      },
      "tokenURI(uint256)": {
        "details": "Returns the URI for a given token ID. May return an empty string. If a base URI is set (via {_setBaseURI}), it is added as a prefix to the token's own URI (via {_setTokenURI}). If there is a base URI but no token URI, the token's ID will be used as its URI when appending it to the base URI. This pattern for autogenerated token URIs can lead to large gas savings. .Examples |=== |`_setBaseURI()` |`_setTokenURI()` |`tokenURI()` | \"\" | \"\" | \"\" | \"\" | \"token.uri/123\" | \"token.uri/123\" | \"token.uri/\" | \"123\" | \"token.uri/123\" | \"token.uri/\" | \"\" | \"token.uri/<tokenId>\" |=== Requirements: - `tokenId` must exist."
      },
      "totalSupply()": {
        "details": "Gets the total amount of tokens stored by the contract.",
        "returns": {
          "_0": "uint256 representing the total amount of tokens"
        }
      },
      "totalVestedAt(uint256,uint256,uint256,uint256)": {
        "returns": {
          "rewards": "Amount of rewards denominated in `rewardsToken()`"
        }
      },
      "transferFrom(address,address,uint256)": {
        "details": "Transfers the ownership of a given token ID to another address. Usage of this method is discouraged, use {safeTransferFrom} whenever possible. Requires the msg.sender to be the owner, approved, or operator.",
        "params": {
          "from": "current owner of the token",
          "to": "address to receive the ownership of the given token ID",
          "tokenId": "uint256 ID of the token to be transferred"
        }
      },
      "unpause()": {
        "details": "Unpauses all token transfers. See {ERC721Pausable} and {Pausable-_unpause}. Requirements: - the caller must have the `PAUSER_ROLE`."
      },
      "unstake(uint256,uint256)": {
        "details": "This function checkpoints rewards",
        "params": {
          "amount": "Amount of `stakingToken()` to be unstaked from the position",
          "tokenId": "A staking position token ID"
        }
      },
      "unstakeMultiple(uint256[],uint256[])": {
        "details": "This function checkpoints rewards",
        "params": {
          "amounts": "A list of amounts of `stakingToken()` to be unstaked from the position",
          "tokenIds": "A list of position token IDs"
        }
      },
      "updatePositionEffectiveMultiplier(uint256)": {
        "details": "This will also checkpoint their rewards up to the current time."
      }
    },
    "stateVariables": {
      "effectiveMultipliers": {
        "details": "A mapping of staked position types to multipliers used to denominate positions   in `baseStakingToken()`. Represented with `MULTIPLIER_DECIMALS`."
      },
      "leverageMultipliers": {
        "details": "UNUSED (definition kept for storage slot)"
      },
      "positions": {
        "details": "NFT tokenId => staked position"
      },
      "totalLeveragedStakedSupply": {
        "details": "UNUSED (definition kept for storage slot)"
      },
      "totalStakedSupply": {
        "details": "Supply of staked tokens, denominated in `stakingToken().decimals()`Note that due to the use of `unsafeBaseTokenExchangeRate` and `unsafeEffectiveMultiplier` on a StakedPosition, the sum of `amount` across all staked positions will not necessarily equal this `totalStakedSupply` value; the purpose of the base token exchange rate and the effective multiplier is to enable calculation of an \"effective amount\" -- which is what this `totalStakedSupply` represents the sum of."
      },
      "vestingLength": {
        "details": "UNUSED (definition kept for storage slot)"
      }
    },
    "version": 1
  },
  "userdoc": {
    "kind": "user",
    "methods": {
      "accumulatedRewardsPerToken()": {
        "notice": "Accumulated rewards per token at the last checkpoint"
      },
      "addToStake(uint256,uint256)": {
        "notice": "Add `amount` to an existing FIDU position (`tokenId`)"
      },
      "claimableRewards(uint256)": {
        "notice": "Returns the rewards claimable by a given position token at the most recent checkpoint, taking into   account vesting schedule for legacy positions."
      },
      "currentEarnRatePerToken()": {
        "notice": "The amount of rewards currently being earned per token per second. This amount takes into   account how many rewards are actually available for disbursal -- unlike `rewardRate()` which does not.   This function is intended for public consumption, to know the rate at which rewards are being   earned, and not as an input to the mutative calculations in this contract."
      },
      "depositAndStake(uint256)": {
        "notice": "Deposit to SeniorPool and stake your shares in the same transaction."
      },
      "depositToCurve(uint256,uint256)": {
        "notice": "Deposits FIDU and USDC to Curve on behalf of the user. The Curve LP tokens will be minted   directly to the user's address"
      },
      "depositToCurveAndStakeFrom(address,uint256,uint256)": {
        "notice": "Deposit to FIDU and USDC into the Curve LP, and stake your Curve LP tokens in the same transaction."
      },
      "depositWithPermitAndStake(uint256,uint256,uint8,bytes32,bytes32)": {
        "notice": "Identical to `depositAndStake`, except it allows for a signature to be passed that permits   this contract to move funds on behalf of the user."
      },
      "earnedSinceLastCheckpoint(uint256)": {
        "notice": "Returns rewards earned by a given position token from its last checkpoint up to the   current block timestamp."
      },
      "getBaseTokenExchangeRate(uint8)": {
        "notice": "Calculate the exchange rate that will be used to convert the original staked token amount to the   `baseStakingToken()` amount. The exchange rate is denominated in `MULTIPLIER_DECIMALS`."
      },
      "getEffectiveMultiplierForPositionType(uint8)": {
        "notice": "The effective multiplier to use with new staked positions of the provided `positionType`,   for denominating them in terms of `baseStakingToken()`. This value is denominated in `MULTIPLIER_DECIMALS`."
      },
      "getReward(uint256)": {
        "notice": "Claim rewards for a given staked position"
      },
      "kick(uint256)": {
        "notice": "\"Kick\" a user's reward multiplier. If they are past their lock-up period, their reward   multiplier will be reset to 1x."
      },
      "lastUpdateTime()": {
        "notice": "The block timestamp when rewards were last checkpointed"
      },
      "loadRewards(uint256)": {
        "notice": "Transfer rewards from msg.sender, to be used for reward distribution"
      },
      "maxRate()": {
        "notice": "The maximum total disbursed rewards per second, denominated in `rewardsToken()`"
      },
      "maxRateAtPercent()": {
        "notice": "The percent of `targetCapacity` at which the reward rate reaches `maxRate`.  Represented with `MULTIPLIER_DECIMALS`."
      },
      "minRate()": {
        "notice": "The minimum total disbursed rewards per second, denominated in `rewardsToken()`"
      },
      "minRateAtPercent()": {
        "notice": "The percent of `targetCapacity` at which the reward rate reaches `minRate`.  Represented with `MULTIPLIER_DECIMALS`."
      },
      "positionCurrentEarnRate(uint256)": {
        "notice": "The amount of rewards currently being earned per second, for a given position. This function   is intended for public consumption, to know the rate at which rewards are being earned   for a given position, and not as an input to the mutative calculations in this contract."
      },
      "positionToAccumulatedRewardsPerToken(uint256)": {
        "notice": "StakedPosition tokenId => accumulatedRewardsPerToken at the position's last checkpoint"
      },
      "rewardPerToken()": {
        "notice": "Returns accumulated rewards per token up to the current block timestamp"
      },
      "rewardsAvailable()": {
        "notice": "Total rewards available for disbursement at the last checkpoint, denominated in `rewardsToken()`"
      },
      "setEffectiveMultiplier(uint256,uint8)": {
        "notice": "Set the effective multiplier for a given staked position type. The effective multipler  is used to denominate a staked position to `baseStakingToken()`. The multiplier is represented in  `MULTIPLIER_DECIMALS`"
      },
      "stake(uint256,uint8)": {
        "notice": "Stake `stakingToken()` to earn rewards. When you call this function, you'll receive an   an NFT representing your staked position. You can present your NFT to `getReward` or `unstake`   to claim rewards or unstake your tokens respectively."
      },
      "stakedBalanceOf(uint256)": {
        "notice": "Returns the staked balance of a given position token."
      },
      "targetCapacity()": {
        "notice": "Desired supply of staked tokens. The reward rate adjusts in a range   around this value to incentivize staking or unstaking to maintain it."
      },
      "totalVestedAt(uint256,uint256,uint256,uint256)": {
        "notice": "Returns the rewards that will have vested for some position with the given params."
      },
      "unstake(uint256,uint256)": {
        "notice": "Unstake an amount of `stakingToken()` associated with a given position and transfer to msg.sender.   Any remaining staked amount will continue to accrue rewards."
      },
      "unstakeMultiple(uint256[],uint256[])": {
        "notice": "Unstake multiple positions and transfer to msg.sender."
      },
      "updatePositionEffectiveMultiplier(uint256)": {
        "notice": "Updates a user's effective multiplier to the prevailing multiplier. This function gives   users an option to get on a higher multiplier without needing to unstake."
      },
      "vestingLength()": {
        "notice": "The duration in seconds over which legacy rewards vest. New positions have no vesting  and earn rewards immediately."
      }
    },
    "version": 1
  },
  "storageLayout": {
    "storage": [
      {
        "astId": 50,
        "contract": "contracts/rewards/StakingRewards.sol:StakingRewards",
        "label": "initialized",
        "offset": 0,
        "slot": "0",
        "type": "t_bool"
      },
      {
        "astId": 53,
        "contract": "contracts/rewards/StakingRewards.sol:StakingRewards",
        "label": "initializing",
        "offset": 1,
        "slot": "0",
        "type": "t_bool"
      },
      {
        "astId": 118,
        "contract": "contracts/rewards/StakingRewards.sol:StakingRewards",
        "label": "______gap",
        "offset": 0,
        "slot": "1",
        "type": "t_array(t_uint256)50_storage"
      },
      {
        "astId": 43,
        "contract": "contracts/rewards/StakingRewards.sol:StakingRewards",
        "label": "__gap",
        "offset": 0,
        "slot": "51",
        "type": "t_array(t_uint256)50_storage"
      },
      {
        "astId": 163,
        "contract": "contracts/rewards/StakingRewards.sol:StakingRewards",
        "label": "_roles",
        "offset": 0,
        "slot": "101",
        "type": "t_mapping(t_bytes32,t_struct(RoleData)159_storage)"
      },
      {
        "astId": 408,
        "contract": "contracts/rewards/StakingRewards.sol:StakingRewards",
        "label": "__gap",
        "offset": 0,
        "slot": "102",
        "type": "t_array(t_uint256)49_storage"
      },
      {
        "astId": 6564,
        "contract": "contracts/rewards/StakingRewards.sol:StakingRewards",
        "label": "_supportedInterfaces",
        "offset": 0,
        "slot": "151",
        "type": "t_mapping(t_bytes4,t_bool)"
      },
      {
        "astId": 6621,
        "contract": "contracts/rewards/StakingRewards.sol:StakingRewards",
        "label": "__gap",
        "offset": 0,
        "slot": "152",
        "type": "t_array(t_uint256)49_storage"
      },
      {
        "astId": 6671,
        "contract": "contracts/rewards/StakingRewards.sol:StakingRewards",
        "label": "_holderTokens",
        "offset": 0,
        "slot": "201",
        "type": "t_mapping(t_address,t_struct(UintSet)3091_storage)"
      },
      {
        "astId": 6673,
        "contract": "contracts/rewards/StakingRewards.sol:StakingRewards",
        "label": "_tokenOwners",
        "offset": 0,
        "slot": "202",
        "type": "t_struct(UintToAddressMap)2616_storage"
      },
      {
        "astId": 6677,
        "contract": "contracts/rewards/StakingRewards.sol:StakingRewards",
        "label": "_tokenApprovals",
        "offset": 0,
        "slot": "204",
        "type": "t_mapping(t_uint256,t_address)"
      },
      {
        "astId": 6683,
        "contract": "contracts/rewards/StakingRewards.sol:StakingRewards",
        "label": "_operatorApprovals",
        "offset": 0,
        "slot": "205",
        "type": "t_mapping(t_address,t_mapping(t_address,t_bool))"
      },
      {
        "astId": 6685,
        "contract": "contracts/rewards/StakingRewards.sol:StakingRewards",
        "label": "_name",
        "offset": 0,
        "slot": "206",
        "type": "t_string_storage"
      },
      {
        "astId": 6687,
        "contract": "contracts/rewards/StakingRewards.sol:StakingRewards",
        "label": "_symbol",
        "offset": 0,
        "slot": "207",
        "type": "t_string_storage"
      },
      {
        "astId": 6691,
        "contract": "contracts/rewards/StakingRewards.sol:StakingRewards",
        "label": "_tokenURIs",
        "offset": 0,
        "slot": "208",
        "type": "t_mapping(t_uint256,t_string_storage)"
      },
      {
        "astId": 6693,
        "contract": "contracts/rewards/StakingRewards.sol:StakingRewards",
        "label": "_baseURI",
        "offset": 0,
        "slot": "209",
        "type": "t_string_storage"
      },
      {
        "astId": 7599,
        "contract": "contracts/rewards/StakingRewards.sol:StakingRewards",
        "label": "__gap",
        "offset": 0,
        "slot": "210",
        "type": "t_array(t_uint256)41_storage"
      },
      {
        "astId": 3207,
        "contract": "contracts/rewards/StakingRewards.sol:StakingRewards",
        "label": "_paused",
        "offset": 0,
        "slot": "251",
        "type": "t_bool"
      },
      {
        "astId": 3296,
        "contract": "contracts/rewards/StakingRewards.sol:StakingRewards",
        "label": "__gap",
        "offset": 0,
        "slot": "252",
        "type": "t_array(t_uint256)49_storage"
      },
      {
        "astId": 7667,
        "contract": "contracts/rewards/StakingRewards.sol:StakingRewards",
        "label": "__gap",
        "offset": 0,
        "slot": "301",
        "type": "t_array(t_uint256)50_storage"
      },
      {
        "astId": 7699,
        "contract": "contracts/rewards/StakingRewards.sol:StakingRewards",
        "label": "_tokenIdTracker",
        "offset": 0,
        "slot": "351",
        "type": "t_struct(Counter)2296_storage"
      },
      {
        "astId": 7757,
        "contract": "contracts/rewards/StakingRewards.sol:StakingRewards",
        "label": "__gap",
        "offset": 0,
        "slot": "352",
        "type": "t_array(t_uint256)49_storage"
      },
      {
        "astId": 3305,
        "contract": "contracts/rewards/StakingRewards.sol:StakingRewards",
        "label": "_notEntered",
        "offset": 0,
        "slot": "401",
        "type": "t_bool"
      },
      {
        "astId": 3346,
        "contract": "contracts/rewards/StakingRewards.sol:StakingRewards",
        "label": "__gap",
        "offset": 0,
        "slot": "402",
        "type": "t_array(t_uint256)49_storage"
      },
      {
        "astId": 28963,
        "contract": "contracts/rewards/StakingRewards.sol:StakingRewards",
        "label": "config",
        "offset": 0,
        "slot": "451",
        "type": "t_contract(GoldfinchConfig)15934"
      },
      {
        "astId": 28967,
        "contract": "contracts/rewards/StakingRewards.sol:StakingRewards",
        "label": "lastUpdateTime",
        "offset": 0,
        "slot": "452",
        "type": "t_uint256"
      },
      {
        "astId": 28971,
        "contract": "contracts/rewards/StakingRewards.sol:StakingRewards",
        "label": "accumulatedRewardsPerToken",
        "offset": 0,
        "slot": "453",
        "type": "t_uint256"
      },
      {
        "astId": 28974,
        "contract": "contracts/rewards/StakingRewards.sol:StakingRewards",
        "label": "rewardsAvailable",
        "offset": 0,
        "slot": "454",
        "type": "t_uint256"
      },
      {
        "astId": 28979,
        "contract": "contracts/rewards/StakingRewards.sol:StakingRewards",
        "label": "positionToAccumulatedRewardsPerToken",
        "offset": 0,
        "slot": "455",
        "type": "t_mapping(t_uint256,t_uint256)"
      },
      {
        "astId": 28982,
        "contract": "contracts/rewards/StakingRewards.sol:StakingRewards",
        "label": "targetCapacity",
        "offset": 0,
        "slot": "456",
        "type": "t_uint256"
      },
      {
        "astId": 28985,
        "contract": "contracts/rewards/StakingRewards.sol:StakingRewards",
        "label": "minRate",
        "offset": 0,
        "slot": "457",
        "type": "t_uint256"
      },
      {
        "astId": 28988,
        "contract": "contracts/rewards/StakingRewards.sol:StakingRewards",
        "label": "maxRate",
        "offset": 0,
        "slot": "458",
        "type": "t_uint256"
      },
      {
        "astId": 28991,
        "contract": "contracts/rewards/StakingRewards.sol:StakingRewards",
        "label": "maxRateAtPercent",
        "offset": 0,
        "slot": "459",
        "type": "t_uint256"
      },
      {
        "astId": 28994,
        "contract": "contracts/rewards/StakingRewards.sol:StakingRewards",
        "label": "minRateAtPercent",
        "offset": 0,
        "slot": "460",
        "type": "t_uint256"
      },
      {
        "astId": 28997,
        "contract": "contracts/rewards/StakingRewards.sol:StakingRewards",
        "label": "vestingLength",
        "offset": 0,
        "slot": "461",
        "type": "t_uint256"
      },
      {
        "astId": 29000,
        "contract": "contracts/rewards/StakingRewards.sol:StakingRewards",
        "label": "totalStakedSupply",
        "offset": 0,
        "slot": "462",
        "type": "t_uint256"
      },
      {
        "astId": 29003,
        "contract": "contracts/rewards/StakingRewards.sol:StakingRewards",
        "label": "totalLeveragedStakedSupply",
        "offset": 0,
        "slot": "463",
        "type": "t_uint256"
      },
      {
        "astId": 29008,
        "contract": "contracts/rewards/StakingRewards.sol:StakingRewards",
        "label": "leverageMultipliers",
        "offset": 0,
        "slot": "464",
        "type": "t_mapping(t_enum(LockupPeriod)28950,t_uint256)"
      },
      {
        "astId": 29013,
        "contract": "contracts/rewards/StakingRewards.sol:StakingRewards",
        "label": "positions",
        "offset": 0,
        "slot": "465",
        "type": "t_mapping(t_uint256,t_struct(StakedPosition)10336_storage)"
      },
      {
        "astId": 29018,
        "contract": "contracts/rewards/StakingRewards.sol:StakingRewards",
        "label": "effectiveMultipliers",
        "offset": 0,
        "slot": "466",
        "type": "t_mapping(t_enum(StakedPositionType)10321,t_uint256)"
      }
    ],
    "types": {
      "t_address": {
        "encoding": "inplace",
        "label": "address",
        "numberOfBytes": "20"
      },
      "t_array(t_bytes32)dyn_storage": {
        "base": "t_bytes32",
        "encoding": "dynamic_array",
        "label": "bytes32[]",
        "numberOfBytes": "32"
      },
      "t_array(t_struct(MapEntry)2344_storage)dyn_storage": {
        "base": "t_struct(MapEntry)2344_storage",
        "encoding": "dynamic_array",
        "label": "struct EnumerableMap.MapEntry[]",
        "numberOfBytes": "32"
      },
      "t_array(t_uint256)41_storage": {
        "base": "t_uint256",
        "encoding": "inplace",
        "label": "uint256[41]",
        "numberOfBytes": "1312"
      },
      "t_array(t_uint256)49_storage": {
        "base": "t_uint256",
        "encoding": "inplace",
        "label": "uint256[49]",
        "numberOfBytes": "1568"
      },
      "t_array(t_uint256)50_storage": {
        "base": "t_uint256",
        "encoding": "inplace",
        "label": "uint256[50]",
        "numberOfBytes": "1600"
      },
      "t_bool": {
        "encoding": "inplace",
        "label": "bool",
        "numberOfBytes": "1"
      },
      "t_bytes32": {
        "encoding": "inplace",
        "label": "bytes32",
        "numberOfBytes": "32"
      },
      "t_bytes4": {
        "encoding": "inplace",
        "label": "bytes4",
        "numberOfBytes": "4"
      },
      "t_contract(GoldfinchConfig)15934": {
        "encoding": "inplace",
        "label": "contract GoldfinchConfig",
        "numberOfBytes": "20"
      },
      "t_enum(LockupPeriod)28950": {
        "encoding": "inplace",
        "label": "enum StakingRewards.LockupPeriod",
        "numberOfBytes": "1"
      },
      "t_enum(StakedPositionType)10321": {
        "encoding": "inplace",
        "label": "enum StakedPositionType",
        "numberOfBytes": "1"
      },
      "t_mapping(t_address,t_bool)": {
        "encoding": "mapping",
        "key": "t_address",
        "label": "mapping(address => bool)",
        "numberOfBytes": "32",
        "value": "t_bool"
      },
      "t_mapping(t_address,t_mapping(t_address,t_bool))": {
        "encoding": "mapping",
        "key": "t_address",
        "label": "mapping(address => mapping(address => bool))",
        "numberOfBytes": "32",
        "value": "t_mapping(t_address,t_bool)"
      },
      "t_mapping(t_address,t_struct(UintSet)3091_storage)": {
        "encoding": "mapping",
        "key": "t_address",
        "label": "mapping(address => struct EnumerableSet.UintSet)",
        "numberOfBytes": "32",
        "value": "t_struct(UintSet)3091_storage"
      },
      "t_mapping(t_bytes32,t_struct(RoleData)159_storage)": {
        "encoding": "mapping",
        "key": "t_bytes32",
        "label": "mapping(bytes32 => struct AccessControlUpgradeSafe.RoleData)",
        "numberOfBytes": "32",
        "value": "t_struct(RoleData)159_storage"
      },
      "t_mapping(t_bytes32,t_uint256)": {
        "encoding": "mapping",
        "key": "t_bytes32",
        "label": "mapping(bytes32 => uint256)",
        "numberOfBytes": "32",
        "value": "t_uint256"
      },
      "t_mapping(t_bytes4,t_bool)": {
        "encoding": "mapping",
        "key": "t_bytes4",
        "label": "mapping(bytes4 => bool)",
        "numberOfBytes": "32",
        "value": "t_bool"
      },
      "t_mapping(t_enum(LockupPeriod)28950,t_uint256)": {
        "encoding": "mapping",
        "key": "t_enum(LockupPeriod)28950",
        "label": "mapping(enum StakingRewards.LockupPeriod => uint256)",
        "numberOfBytes": "32",
        "value": "t_uint256"
      },
      "t_mapping(t_enum(StakedPositionType)10321,t_uint256)": {
        "encoding": "mapping",
        "key": "t_enum(StakedPositionType)10321",
        "label": "mapping(enum StakedPositionType => uint256)",
        "numberOfBytes": "32",
        "value": "t_uint256"
      },
      "t_mapping(t_uint256,t_address)": {
        "encoding": "mapping",
        "key": "t_uint256",
        "label": "mapping(uint256 => address)",
        "numberOfBytes": "32",
        "value": "t_address"
      },
      "t_mapping(t_uint256,t_string_storage)": {
        "encoding": "mapping",
        "key": "t_uint256",
        "label": "mapping(uint256 => string)",
        "numberOfBytes": "32",
        "value": "t_string_storage"
      },
      "t_mapping(t_uint256,t_struct(StakedPosition)10336_storage)": {
        "encoding": "mapping",
        "key": "t_uint256",
        "label": "mapping(uint256 => struct StakedPosition)",
        "numberOfBytes": "32",
        "value": "t_struct(StakedPosition)10336_storage"
      },
      "t_mapping(t_uint256,t_uint256)": {
        "encoding": "mapping",
        "key": "t_uint256",
        "label": "mapping(uint256 => uint256)",
        "numberOfBytes": "32",
        "value": "t_uint256"
      },
      "t_string_storage": {
        "encoding": "bytes",
        "label": "string",
        "numberOfBytes": "32"
      },
      "t_struct(AddressSet)2982_storage": {
        "encoding": "inplace",
        "label": "struct EnumerableSet.AddressSet",
        "members": [
          {
            "astId": 2981,
            "contract": "contracts/rewards/StakingRewards.sol:StakingRewards",
            "label": "_inner",
            "offset": 0,
            "slot": "0",
            "type": "t_struct(Set)2802_storage"
          }
        ],
        "numberOfBytes": "64"
      },
      "t_struct(Counter)2296_storage": {
        "encoding": "inplace",
        "label": "struct Counters.Counter",
        "members": [
          {
            "astId": 2295,
            "contract": "contracts/rewards/StakingRewards.sol:StakingRewards",
            "label": "_value",
            "offset": 0,
            "slot": "0",
            "type": "t_uint256"
          }
        ],
        "numberOfBytes": "32"
      },
      "t_struct(Map)2352_storage": {
        "encoding": "inplace",
        "label": "struct EnumerableMap.Map",
        "members": [
          {
            "astId": 2347,
            "contract": "contracts/rewards/StakingRewards.sol:StakingRewards",
            "label": "_entries",
            "offset": 0,
            "slot": "0",
            "type": "t_array(t_struct(MapEntry)2344_storage)dyn_storage"
          },
          {
            "astId": 2351,
            "contract": "contracts/rewards/StakingRewards.sol:StakingRewards",
            "label": "_indexes",
            "offset": 0,
            "slot": "1",
            "type": "t_mapping(t_bytes32,t_uint256)"
          }
        ],
        "numberOfBytes": "64"
      },
      "t_struct(MapEntry)2344_storage": {
        "encoding": "inplace",
        "label": "struct EnumerableMap.MapEntry",
        "members": [
          {
            "astId": 2341,
            "contract": "contracts/rewards/StakingRewards.sol:StakingRewards",
            "label": "_key",
            "offset": 0,
            "slot": "0",
            "type": "t_bytes32"
          },
          {
            "astId": 2343,
            "contract": "contracts/rewards/StakingRewards.sol:StakingRewards",
            "label": "_value",
            "offset": 0,
            "slot": "1",
            "type": "t_bytes32"
          }
        ],
        "numberOfBytes": "64"
      },
      "t_struct(Rewards)11283_storage": {
        "encoding": "inplace",
        "label": "struct StakingRewardsVesting.Rewards",
        "members": [
          {
            "astId": 11272,
            "contract": "contracts/rewards/StakingRewards.sol:StakingRewards",
            "label": "totalUnvested",
            "offset": 0,
            "slot": "0",
            "type": "t_uint256"
          },
          {
            "astId": 11274,
            "contract": "contracts/rewards/StakingRewards.sol:StakingRewards",
            "label": "totalVested",
            "offset": 0,
            "slot": "1",
            "type": "t_uint256"
          },
          {
            "astId": 11276,
            "contract": "contracts/rewards/StakingRewards.sol:StakingRewards",
            "label": "totalPreviouslyVested",
            "offset": 0,
            "slot": "2",
            "type": "t_uint256"
          },
          {
            "astId": 11278,
            "contract": "contracts/rewards/StakingRewards.sol:StakingRewards",
            "label": "totalClaimed",
            "offset": 0,
            "slot": "3",
            "type": "t_uint256"
          },
          {
            "astId": 11280,
            "contract": "contracts/rewards/StakingRewards.sol:StakingRewards",
            "label": "startTime",
            "offset": 0,
            "slot": "4",
            "type": "t_uint256"
          },
          {
            "astId": 11282,
            "contract": "contracts/rewards/StakingRewards.sol:StakingRewards",
            "label": "endTime",
            "offset": 0,
            "slot": "5",
            "type": "t_uint256"
          }
        ],
        "numberOfBytes": "192"
      },
      "t_struct(RoleData)159_storage": {
        "encoding": "inplace",
        "label": "struct AccessControlUpgradeSafe.RoleData",
        "members": [
          {
            "astId": 156,
            "contract": "contracts/rewards/StakingRewards.sol:StakingRewards",
            "label": "members",
            "offset": 0,
            "slot": "0",
            "type": "t_struct(AddressSet)2982_storage"
          },
          {
            "astId": 158,
            "contract": "contracts/rewards/StakingRewards.sol:StakingRewards",
            "label": "adminRole",
            "offset": 0,
            "slot": "2",
            "type": "t_bytes32"
          }
        ],
        "numberOfBytes": "96"
      },
      "t_struct(Set)2802_storage": {
        "encoding": "inplace",
        "label": "struct EnumerableSet.Set",
        "members": [
          {
            "astId": 2797,
            "contract": "contracts/rewards/StakingRewards.sol:StakingRewards",
            "label": "_values",
            "offset": 0,
            "slot": "0",
            "type": "t_array(t_bytes32)dyn_storage"
          },
          {
            "astId": 2801,
            "contract": "contracts/rewards/StakingRewards.sol:StakingRewards",
            "label": "_indexes",
            "offset": 0,
            "slot": "1",
            "type": "t_mapping(t_bytes32,t_uint256)"
          }
        ],
        "numberOfBytes": "64"
      },
      "t_struct(StakedPosition)10336_storage": {
        "encoding": "inplace",
        "label": "struct StakedPosition",
        "members": [
          {
            "astId": 10323,
            "contract": "contracts/rewards/StakingRewards.sol:StakingRewards",
            "label": "amount",
            "offset": 0,
            "slot": "0",
            "type": "t_uint256"
          },
          {
            "astId": 10325,
            "contract": "contracts/rewards/StakingRewards.sol:StakingRewards",
            "label": "rewards",
            "offset": 0,
            "slot": "1",
            "type": "t_struct(Rewards)11283_storage"
          },
          {
            "astId": 10327,
            "contract": "contracts/rewards/StakingRewards.sol:StakingRewards",
            "label": "leverageMultiplier",
            "offset": 0,
            "slot": "7",
            "type": "t_uint256"
          },
          {
            "astId": 10329,
            "contract": "contracts/rewards/StakingRewards.sol:StakingRewards",
            "label": "lockedUntil",
            "offset": 0,
            "slot": "8",
            "type": "t_uint256"
          },
          {
            "astId": 10331,
            "contract": "contracts/rewards/StakingRewards.sol:StakingRewards",
            "label": "positionType",
            "offset": 0,
            "slot": "9",
            "type": "t_enum(StakedPositionType)10321"
          },
          {
            "astId": 10333,
            "contract": "contracts/rewards/StakingRewards.sol:StakingRewards",
            "label": "unsafeEffectiveMultiplier",
            "offset": 0,
            "slot": "10",
            "type": "t_uint256"
          },
          {
            "astId": 10335,
            "contract": "contracts/rewards/StakingRewards.sol:StakingRewards",
            "label": "unsafeBaseTokenExchangeRate",
            "offset": 0,
            "slot": "11",
            "type": "t_uint256"
          }
        ],
        "numberOfBytes": "384"
      },
      "t_struct(UintSet)3091_storage": {
        "encoding": "inplace",
        "label": "struct EnumerableSet.UintSet",
        "members": [
          {
            "astId": 3090,
            "contract": "contracts/rewards/StakingRewards.sol:StakingRewards",
            "label": "_inner",
            "offset": 0,
            "slot": "0",
            "type": "t_struct(Set)2802_storage"
          }
        ],
        "numberOfBytes": "64"
      },
      "t_struct(UintToAddressMap)2616_storage": {
        "encoding": "inplace",
        "label": "struct EnumerableMap.UintToAddressMap",
        "members": [
          {
            "astId": 2615,
            "contract": "contracts/rewards/StakingRewards.sol:StakingRewards",
            "label": "_inner",
            "offset": 0,
            "slot": "0",
            "type": "t_struct(Map)2352_storage"
          }
        ],
        "numberOfBytes": "64"
      },
      "t_uint256": {
        "encoding": "inplace",
        "label": "uint256",
        "numberOfBytes": "32"
      }
    }
  }
}