{
  "address": "0xB6dd02BEF044F9813b05A7f912C57C47e3f22AaC",
  "abi": [
    {
      "anonymous": false,
      "inputs": [
        {
          "indexed": true,
          "internalType": "address",
          "name": "user",
          "type": "address"
        },
        {
          "indexed": true,
          "internalType": "uint256",
          "name": "tokenId",
          "type": "uint256"
        },
        {
          "indexed": false,
          "internalType": "uint256",
          "name": "amount",
          "type": "uint256"
        },
        {
          "indexed": false,
          "internalType": "enum StakedPositionType",
          "name": "positionType",
          "type": "uint8"
        }
      ],
      "name": "AddToStake",
      "type": "event"
    },
    {
      "anonymous": false,
      "inputs": [
        {
          "indexed": true,
          "internalType": "address",
          "name": "owner",
          "type": "address"
        },
        {
          "indexed": true,
          "internalType": "address",
          "name": "approved",
          "type": "address"
        },
        {
          "indexed": true,
          "internalType": "uint256",
          "name": "tokenId",
          "type": "uint256"
        }
      ],
      "name": "Approval",
      "type": "event"
    },
    {
      "anonymous": false,
      "inputs": [
        {
          "indexed": true,
          "internalType": "address",
          "name": "owner",
          "type": "address"
        },
        {
          "indexed": true,
          "internalType": "address",
          "name": "operator",
          "type": "address"
        },
        {
          "indexed": false,
          "internalType": "bool",
          "name": "approved",
          "type": "bool"
        }
      ],
      "name": "ApprovalForAll",
      "type": "event"
    },
    {
      "anonymous": false,
      "inputs": [
        {
          "indexed": true,
          "internalType": "address",
          "name": "user",
          "type": "address"
        },
        {
          "indexed": false,
          "internalType": "uint256",
          "name": "depositedAmount",
          "type": "uint256"
        },
        {
          "indexed": true,
          "internalType": "uint256",
          "name": "tokenId",
          "type": "uint256"
        },
        {
          "indexed": false,
          "internalType": "uint256",
          "name": "amount",
          "type": "uint256"
        }
      ],
      "name": "DepositedAndStaked",
      "type": "event"
    },
    {
      "anonymous": false,
      "inputs": [
        {
          "indexed": true,
          "internalType": "address",
          "name": "user",
          "type": "address"
        },
        {
          "indexed": false,
          "internalType": "uint256",
          "name": "fiduAmount",
          "type": "uint256"
        },
        {
          "indexed": false,
          "internalType": "uint256",
          "name": "usdcAmount",
          "type": "uint256"
        },
        {
          "indexed": false,
          "internalType": "uint256",
          "name": "tokensReceived",
          "type": "uint256"
        }
      ],
      "name": "DepositedToCurve",
      "type": "event"
    },
    {
      "anonymous": false,
      "inputs": [
        {
          "indexed": true,
          "internalType": "address",
          "name": "user",
          "type": "address"
        },
        {
          "indexed": false,
          "internalType": "uint256",
          "name": "fiduAmount",
          "type": "uint256"
        },
        {
          "indexed": false,
          "internalType": "uint256",
          "name": "usdcAmount",
          "type": "uint256"
        },
        {
          "indexed": true,
          "internalType": "uint256",
          "name": "tokenId",
          "type": "uint256"
        },
        {
          "indexed": false,
          "internalType": "uint256",
          "name": "amount",
          "type": "uint256"
        }
      ],
      "name": "DepositedToCurveAndStaked",
      "type": "event"
    },
    {
      "anonymous": false,
      "inputs": [
        {
          "indexed": true,
          "internalType": "address",
          "name": "who",
          "type": "address"
        },
        {
          "indexed": false,
          "internalType": "enum StakedPositionType",
          "name": "positionType",
          "type": "uint8"
        },
        {
          "indexed": false,
          "internalType": "uint256",
          "name": "multiplier",
          "type": "uint256"
        }
      ],
      "name": "EffectiveMultiplierUpdated",
      "type": "event"
    },
    {
      "anonymous": false,
      "inputs": [
        {
          "indexed": false,
          "internalType": "address",
          "name": "account",
          "type": "address"
        }
      ],
      "name": "Paused",
      "type": "event"
    },
    {
      "anonymous": false,
      "inputs": [
        {
          "indexed": false,
          "internalType": "uint256",
          "name": "reward",
          "type": "uint256"
        }
      ],
      "name": "RewardAdded",
      "type": "event"
    },
    {
      "anonymous": false,
      "inputs": [
        {
          "indexed": true,
          "internalType": "address",
          "name": "user",
          "type": "address"
        },
        {
          "indexed": true,
          "internalType": "uint256",
          "name": "tokenId",
          "type": "uint256"
        },
        {
          "indexed": false,
          "internalType": "uint256",
          "name": "reward",
          "type": "uint256"
        }
      ],
      "name": "RewardPaid",
      "type": "event"
    },
    {
      "anonymous": false,
      "inputs": [
        {
          "indexed": true,
          "internalType": "address",
          "name": "who",
          "type": "address"
        },
        {
          "indexed": false,
          "internalType": "uint256",
          "name": "targetCapacity",
          "type": "uint256"
        },
        {
          "indexed": false,
          "internalType": "uint256",
          "name": "minRate",
          "type": "uint256"
        },
        {
          "indexed": false,
          "internalType": "uint256",
          "name": "maxRate",
          "type": "uint256"
        },
        {
          "indexed": false,
          "internalType": "uint256",
          "name": "minRateAtPercent",
          "type": "uint256"
        },
        {
          "indexed": false,
          "internalType": "uint256",
          "name": "maxRateAtPercent",
          "type": "uint256"
        }
      ],
      "name": "RewardsParametersUpdated",
      "type": "event"
    },
    {
      "anonymous": false,
      "inputs": [
        {
          "indexed": true,
          "internalType": "bytes32",
          "name": "role",
          "type": "bytes32"
        },
        {
          "indexed": true,
          "internalType": "address",
          "name": "account",
          "type": "address"
        },
        {
          "indexed": true,
          "internalType": "address",
          "name": "sender",
          "type": "address"
        }
      ],
      "name": "RoleGranted",
      "type": "event"
    },
    {
      "anonymous": false,
      "inputs": [
        {
          "indexed": true,
          "internalType": "bytes32",
          "name": "role",
          "type": "bytes32"
        },
        {
          "indexed": true,
          "internalType": "address",
          "name": "account",
          "type": "address"
        },
        {
          "indexed": true,
          "internalType": "address",
          "name": "sender",
          "type": "address"
        }
      ],
      "name": "RoleRevoked",
      "type": "event"
    },
    {
      "anonymous": false,
      "inputs": [
        {
          "indexed": true,
          "internalType": "address",
          "name": "user",
          "type": "address"
        },
        {
          "indexed": true,
          "internalType": "uint256",
          "name": "tokenId",
          "type": "uint256"
        },
        {
          "indexed": false,
          "internalType": "uint256",
          "name": "amount",
          "type": "uint256"
        },
        {
          "indexed": false,
          "internalType": "enum StakedPositionType",
          "name": "positionType",
          "type": "uint8"
        },
        {
          "indexed": false,
          "internalType": "uint256",
          "name": "baseTokenExchangeRate",
          "type": "uint256"
        }
      ],
      "name": "Staked",
      "type": "event"
    },
    {
      "anonymous": false,
      "inputs": [
        {
          "indexed": true,
          "internalType": "address",
          "name": "from",
          "type": "address"
        },
        {
          "indexed": true,
          "internalType": "address",
          "name": "to",
          "type": "address"
        },
        {
          "indexed": true,
          "internalType": "uint256",
          "name": "tokenId",
          "type": "uint256"
        }
      ],
      "name": "Transfer",
      "type": "event"
    },
    {
      "anonymous": false,
      "inputs": [
        {
          "indexed": false,
          "internalType": "address",
          "name": "account",
          "type": "address"
        }
      ],
      "name": "Unpaused",
      "type": "event"
    },
    {
      "anonymous": false,
      "inputs": [
        {
          "indexed": true,
          "internalType": "address",
          "name": "user",
          "type": "address"
        },
        {
          "indexed": true,
          "internalType": "uint256",
          "name": "tokenId",
          "type": "uint256"
        },
        {
          "indexed": false,
          "internalType": "uint256",
          "name": "amount",
          "type": "uint256"
        },
        {
          "indexed": false,
          "internalType": "enum StakedPositionType",
          "name": "positionType",
          "type": "uint8"
        }
      ],
      "name": "Unstaked",
      "type": "event"
    },
    {
      "anonymous": false,
      "inputs": [
        {
          "indexed": true,
          "internalType": "address",
          "name": "user",
          "type": "address"
        },
        {
          "indexed": false,
          "internalType": "uint256[]",
          "name": "tokenIds",
          "type": "uint256[]"
        },
        {
          "indexed": false,
          "internalType": "uint256[]",
          "name": "amounts",
          "type": "uint256[]"
        }
      ],
      "name": "UnstakedMultiple",
      "type": "event"
    },
    {
      "inputs": [],
      "name": "DEFAULT_ADMIN_ROLE",
      "outputs": [
        {
          "internalType": "bytes32",
          "name": "",
          "type": "bytes32"
        }
      ],
      "stateMutability": "view",
      "type": "function"
    },
    {
      "inputs": [],
      "name": "MINTER_ROLE",
      "outputs": [
        {
          "internalType": "bytes32",
          "name": "",
          "type": "bytes32"
        }
      ],
      "stateMutability": "view",
      "type": "function"
    },
    {
      "inputs": [],
      "name": "OWNER_ROLE",
      "outputs": [
        {
          "internalType": "bytes32",
          "name": "",
          "type": "bytes32"
        }
      ],
      "stateMutability": "view",
      "type": "function"
    },
    {
      "inputs": [],
      "name": "PAUSER_ROLE",
      "outputs": [
        {
          "internalType": "bytes32",
          "name": "",
          "type": "bytes32"
        }
      ],
      "stateMutability": "view",
      "type": "function"
    },
    {
      "inputs": [
        {
          "internalType": "address",
          "name": "owner",
          "type": "address"
        },
        {
          "internalType": "contract GoldfinchConfig",
          "name": "_config",
          "type": "address"
        }
      ],
      "name": "__initialize__",
      "outputs": [],
      "stateMutability": "nonpayable",
      "type": "function"
    },
    {
      "inputs": [],
      "name": "_tokenIdTracker",
      "outputs": [
        {
          "internalType": "uint256",
          "name": "_value",
          "type": "uint256"
        }
      ],
      "stateMutability": "view",
      "type": "function"
    },
    {
      "inputs": [],
      "name": "accumulatedRewardsPerToken",
      "outputs": [
        {
          "internalType": "uint256",
          "name": "",
          "type": "uint256"
        }
      ],
      "stateMutability": "view",
      "type": "function"
    },
    {
      "inputs": [
        {
          "internalType": "uint256",
          "name": "tokenId",
          "type": "uint256"
        },
        {
          "internalType": "uint256",
          "name": "amount",
          "type": "uint256"
        }
      ],
      "name": "addToStake",
      "outputs": [],
      "stateMutability": "nonpayable",
      "type": "function"
    },
    {
      "inputs": [
        {
          "internalType": "address",
          "name": "to",
          "type": "address"
        },
        {
          "internalType": "uint256",
          "name": "tokenId",
          "type": "uint256"
        }
      ],
      "name": "approve",
      "outputs": [],
      "stateMutability": "nonpayable",
      "type": "function"
    },
    {
      "inputs": [
        {
          "internalType": "address",
          "name": "owner",
          "type": "address"
        }
      ],
      "name": "balanceOf",
      "outputs": [
        {
          "internalType": "uint256",
          "name": "",
          "type": "uint256"
        }
      ],
      "stateMutability": "view",
      "type": "function"
    },
    {
      "inputs": [],
      "name": "baseURI",
      "outputs": [
        {
          "internalType": "string",
          "name": "",
          "type": "string"
        }
      ],
      "stateMutability": "view",
      "type": "function"
    },
    {
      "inputs": [
        {
          "internalType": "uint256",
          "name": "tokenId",
          "type": "uint256"
        }
      ],
      "name": "claimableRewards",
      "outputs": [
        {
          "internalType": "uint256",
          "name": "rewards",
          "type": "uint256"
        }
      ],
      "stateMutability": "view",
      "type": "function"
    },
    {
      "inputs": [],
      "name": "config",
      "outputs": [
        {
          "internalType": "contract GoldfinchConfig",
          "name": "",
          "type": "address"
        }
      ],
      "stateMutability": "view",
      "type": "function"
    },
    {
      "inputs": [],
      "name": "currentEarnRatePerToken",
      "outputs": [
        {
          "internalType": "uint256",
          "name": "",
          "type": "uint256"
        }
      ],
      "stateMutability": "view",
      "type": "function"
    },
    {
      "inputs": [
        {
          "internalType": "uint256",
          "name": "usdcAmount",
          "type": "uint256"
        }
      ],
      "name": "depositAndStake",
      "outputs": [
        {
          "internalType": "uint256",
          "name": "",
          "type": "uint256"
        }
      ],
      "stateMutability": "nonpayable",
      "type": "function"
    },
    {
      "inputs": [
        {
          "internalType": "uint256",
          "name": "fiduAmount",
          "type": "uint256"
        },
        {
          "internalType": "uint256",
          "name": "usdcAmount",
          "type": "uint256"
        }
      ],
      "name": "depositToCurve",
      "outputs": [],
      "stateMutability": "nonpayable",
      "type": "function"
    },
    {
      "inputs": [
        {
          "internalType": "uint256",
          "name": "fiduAmount",
          "type": "uint256"
        },
        {
          "internalType": "uint256",
          "name": "usdcAmount",
          "type": "uint256"
        }
      ],
      "name": "depositToCurveAndStake",
      "outputs": [],
      "stateMutability": "nonpayable",
      "type": "function"
    },
    {
      "inputs": [
        {
          "internalType": "address",
          "name": "nftRecipient",
          "type": "address"
        },
        {
          "internalType": "uint256",
          "name": "fiduAmount",
          "type": "uint256"
        },
        {
          "internalType": "uint256",
          "name": "usdcAmount",
          "type": "uint256"
        }
      ],
      "name": "depositToCurveAndStakeFrom",
      "outputs": [],
      "stateMutability": "nonpayable",
      "type": "function"
    },
    {
      "inputs": [
        {
          "internalType": "uint256",
          "name": "usdcAmount",
          "type": "uint256"
        },
        {
          "internalType": "uint256",
          "name": "deadline",
          "type": "uint256"
        },
        {
          "internalType": "uint8",
          "name": "v",
          "type": "uint8"
        },
        {
          "internalType": "bytes32",
          "name": "r",
          "type": "bytes32"
        },
        {
          "internalType": "bytes32",
          "name": "s",
          "type": "bytes32"
        }
      ],
      "name": "depositWithPermitAndStake",
      "outputs": [
        {
          "internalType": "uint256",
          "name": "",
          "type": "uint256"
        }
      ],
      "stateMutability": "nonpayable",
      "type": "function"
    },
    {
      "inputs": [
        {
          "internalType": "uint256",
          "name": "tokenId",
          "type": "uint256"
        }
      ],
      "name": "earnedSinceLastCheckpoint",
      "outputs": [
        {
          "internalType": "uint256",
          "name": "",
          "type": "uint256"
        }
      ],
      "stateMutability": "view",
      "type": "function"
    },
    {
      "inputs": [
        {
          "internalType": "uint256",
          "name": "tokenId",
          "type": "uint256"
        }
      ],
      "name": "getApproved",
      "outputs": [
        {
          "internalType": "address",
          "name": "",
          "type": "address"
        }
      ],
      "stateMutability": "view",
      "type": "function"
    },
    {
      "inputs": [
        {
          "internalType": "enum StakedPositionType",
          "name": "positionType",
          "type": "uint8"
        }
      ],
      "name": "getBaseTokenExchangeRate",
      "outputs": [
        {
          "internalType": "uint256",
          "name": "",
          "type": "uint256"
        }
      ],
      "stateMutability": "view",
      "type": "function"
    },
    {
      "inputs": [
        {
          "internalType": "enum StakedPositionType",
          "name": "positionType",
          "type": "uint8"
        }
      ],
      "name": "getEffectiveMultiplierForPositionType",
      "outputs": [
        {
          "internalType": "uint256",
          "name": "",
          "type": "uint256"
        }
      ],
      "stateMutability": "view",
      "type": "function"
    },
    {
      "inputs": [
        {
          "internalType": "uint256",
          "name": "tokenId",
          "type": "uint256"
        }
      ],
      "name": "getPosition",
      "outputs": [
        {
          "components": [
            {
              "internalType": "uint256",
              "name": "amount",
              "type": "uint256"
            },
            {
              "components": [
                {
                  "internalType": "uint256",
                  "name": "totalUnvested",
                  "type": "uint256"
                },
                {
                  "internalType": "uint256",
                  "name": "totalVested",
                  "type": "uint256"
                },
                {
                  "internalType": "uint256",
                  "name": "totalPreviouslyVested",
                  "type": "uint256"
                },
                {
                  "internalType": "uint256",
                  "name": "totalClaimed",
                  "type": "uint256"
                },
                {
                  "internalType": "uint256",
                  "name": "startTime",
                  "type": "uint256"
                },
                {
                  "internalType": "uint256",
                  "name": "endTime",
                  "type": "uint256"
                }
              ],
              "internalType": "struct Rewards",
              "name": "rewards",
              "type": "tuple"
            },
            {
              "internalType": "uint256",
              "name": "leverageMultiplier",
              "type": "uint256"
            },
            {
              "internalType": "uint256",
              "name": "lockedUntil",
              "type": "uint256"
            },
            {
              "internalType": "enum StakedPositionType",
              "name": "positionType",
              "type": "uint8"
            },
            {
              "internalType": "uint256",
              "name": "unsafeEffectiveMultiplier",
              "type": "uint256"
            },
            {
              "internalType": "uint256",
              "name": "unsafeBaseTokenExchangeRate",
              "type": "uint256"
            }
          ],
          "internalType": "struct StakedPosition",
          "name": "position",
          "type": "tuple"
        }
      ],
      "stateMutability": "view",
      "type": "function"
    },
    {
      "inputs": [
        {
          "internalType": "uint256",
          "name": "tokenId",
          "type": "uint256"
        }
      ],
      "name": "getReward",
      "outputs": [
        {
          "internalType": "uint256",
          "name": "",
          "type": "uint256"
        }
      ],
      "stateMutability": "nonpayable",
      "type": "function"
    },
    {
      "inputs": [
        {
          "internalType": "bytes32",
          "name": "role",
          "type": "bytes32"
        }
      ],
      "name": "getRoleAdmin",
      "outputs": [
        {
          "internalType": "bytes32",
          "name": "",
          "type": "bytes32"
        }
      ],
      "stateMutability": "view",
      "type": "function"
    },
    {
      "inputs": [
        {
          "internalType": "bytes32",
          "name": "role",
          "type": "bytes32"
        },
        {
          "internalType": "uint256",
          "name": "index",
          "type": "uint256"
        }
      ],
      "name": "getRoleMember",
      "outputs": [
        {
          "internalType": "address",
          "name": "",
          "type": "address"
        }
      ],
      "stateMutability": "view",
      "type": "function"
    },
    {
      "inputs": [
        {
          "internalType": "bytes32",
          "name": "role",
          "type": "bytes32"
        }
      ],
      "name": "getRoleMemberCount",
      "outputs": [
        {
          "internalType": "uint256",
          "name": "",
          "type": "uint256"
        }
      ],
      "stateMutability": "view",
      "type": "function"
    },
    {
      "inputs": [
        {
          "internalType": "bytes32",
          "name": "role",
          "type": "bytes32"
        },
        {
          "internalType": "address",
          "name": "account",
          "type": "address"
        }
      ],
      "name": "grantRole",
      "outputs": [],
      "stateMutability": "nonpayable",
      "type": "function"
    },
    {
      "inputs": [
        {
          "internalType": "bytes32",
          "name": "role",
          "type": "bytes32"
        },
        {
          "internalType": "address",
          "name": "account",
          "type": "address"
        }
      ],
      "name": "hasRole",
      "outputs": [
        {
          "internalType": "bool",
          "name": "",
          "type": "bool"
        }
      ],
      "stateMutability": "view",
      "type": "function"
    },
    {
      "inputs": [
        {
          "internalType": "address",
          "name": "owner",
          "type": "address"
        },
        {
          "internalType": "address",
          "name": "operator",
          "type": "address"
        }
      ],
      "name": "isApprovedForAll",
      "outputs": [
        {
          "internalType": "bool",
          "name": "",
          "type": "bool"
        }
      ],
      "stateMutability": "view",
      "type": "function"
    },
    {
      "inputs": [
        {
          "internalType": "uint256",
          "name": "tokenId",
          "type": "uint256"
        }
      ],
      "name": "kick",
      "outputs": [],
      "stateMutability": "nonpayable",
      "type": "function"
    },
    {
      "inputs": [],
      "name": "lastUpdateTime",
      "outputs": [
        {
          "internalType": "uint256",
          "name": "",
          "type": "uint256"
        }
      ],
      "stateMutability": "view",
      "type": "function"
    },
    {
      "inputs": [
        {
          "internalType": "uint256",
          "name": "rewards",
          "type": "uint256"
        }
      ],
      "name": "loadRewards",
      "outputs": [],
      "stateMutability": "nonpayable",
      "type": "function"
    },
    {
      "inputs": [],
      "name": "maxRate",
      "outputs": [
        {
          "internalType": "uint256",
          "name": "",
          "type": "uint256"
        }
      ],
      "stateMutability": "view",
      "type": "function"
    },
    {
      "inputs": [],
      "name": "maxRateAtPercent",
      "outputs": [
        {
          "internalType": "uint256",
          "name": "",
          "type": "uint256"
        }
      ],
      "stateMutability": "view",
      "type": "function"
    },
    {
      "inputs": [],
      "name": "minRate",
      "outputs": [
        {
          "internalType": "uint256",
          "name": "",
          "type": "uint256"
        }
      ],
      "stateMutability": "view",
      "type": "function"
    },
    {
      "inputs": [],
      "name": "minRateAtPercent",
      "outputs": [
        {
          "internalType": "uint256",
          "name": "",
          "type": "uint256"
        }
      ],
      "stateMutability": "view",
      "type": "function"
    },
    {
      "inputs": [],
      "name": "name",
      "outputs": [
        {
          "internalType": "string",
          "name": "",
          "type": "string"
        }
      ],
      "stateMutability": "view",
      "type": "function"
    },
    {
      "inputs": [
        {
          "internalType": "uint256",
          "name": "tokenId",
          "type": "uint256"
        }
      ],
      "name": "optimisticClaimable",
      "outputs": [
        {
          "internalType": "uint256",
          "name": "",
          "type": "uint256"
        }
      ],
      "stateMutability": "view",
      "type": "function"
    },
    {
      "inputs": [
        {
          "internalType": "uint256",
          "name": "tokenId",
          "type": "uint256"
        }
      ],
      "name": "ownerOf",
      "outputs": [
        {
          "internalType": "address",
          "name": "",
          "type": "address"
        }
      ],
      "stateMutability": "view",
      "type": "function"
    },
    {
      "inputs": [],
      "name": "pause",
      "outputs": [],
      "stateMutability": "nonpayable",
      "type": "function"
    },
    {
      "inputs": [],
      "name": "paused",
      "outputs": [
        {
          "internalType": "bool",
          "name": "",
          "type": "bool"
        }
      ],
      "stateMutability": "view",
      "type": "function"
    },
    {
      "inputs": [
        {
          "internalType": "uint256",
          "name": "tokenId",
          "type": "uint256"
        }
      ],
      "name": "positionCurrentEarnRate",
      "outputs": [
        {
          "internalType": "uint256",
          "name": "",
          "type": "uint256"
        }
      ],
      "stateMutability": "view",
      "type": "function"
    },
    {
      "inputs": [
        {
          "internalType": "uint256",
          "name": "",
          "type": "uint256"
        }
      ],
      "name": "positionToAccumulatedRewardsPerToken",
      "outputs": [
        {
          "internalType": "uint256",
          "name": "",
          "type": "uint256"
        }
      ],
      "stateMutability": "view",
      "type": "function"
    },
    {
      "inputs": [
        {
          "internalType": "uint256",
          "name": "",
          "type": "uint256"
        }
      ],
      "name": "positions",
      "outputs": [
        {
          "internalType": "uint256",
          "name": "amount",
          "type": "uint256"
        },
        {
          "components": [
            {
              "internalType": "uint256",
              "name": "totalUnvested",
              "type": "uint256"
            },
            {
              "internalType": "uint256",
              "name": "totalVested",
              "type": "uint256"
            },
            {
              "internalType": "uint256",
              "name": "totalPreviouslyVested",
              "type": "uint256"
            },
            {
              "internalType": "uint256",
              "name": "totalClaimed",
              "type": "uint256"
            },
            {
              "internalType": "uint256",
              "name": "startTime",
              "type": "uint256"
            },
            {
              "internalType": "uint256",
              "name": "endTime",
              "type": "uint256"
            }
          ],
          "internalType": "struct Rewards",
          "name": "rewards",
          "type": "tuple"
        },
        {
          "internalType": "uint256",
          "name": "leverageMultiplier",
          "type": "uint256"
        },
        {
          "internalType": "uint256",
          "name": "lockedUntil",
          "type": "uint256"
        },
        {
          "internalType": "enum StakedPositionType",
          "name": "positionType",
          "type": "uint8"
        },
        {
          "internalType": "uint256",
          "name": "unsafeEffectiveMultiplier",
          "type": "uint256"
        },
        {
          "internalType": "uint256",
          "name": "unsafeBaseTokenExchangeRate",
          "type": "uint256"
        }
      ],
      "stateMutability": "view",
      "type": "function"
    },
    {
      "inputs": [
        {
          "internalType": "bytes32",
          "name": "role",
          "type": "bytes32"
        },
        {
          "internalType": "address",
          "name": "account",
          "type": "address"
        }
      ],
      "name": "renounceRole",
      "outputs": [],
      "stateMutability": "nonpayable",
      "type": "function"
    },
    {
      "inputs": [
        {
          "internalType": "bytes32",
          "name": "role",
          "type": "bytes32"
        },
        {
          "internalType": "address",
          "name": "account",
          "type": "address"
        }
      ],
      "name": "revokeRole",
      "outputs": [],
      "stateMutability": "nonpayable",
      "type": "function"
    },
    {
      "inputs": [],
      "name": "rewardPerToken",
      "outputs": [
        {
          "internalType": "uint256",
          "name": "",
          "type": "uint256"
        }
      ],
      "stateMutability": "view",
      "type": "function"
    },
    {
      "inputs": [],
      "name": "rewardsAvailable",
      "outputs": [
        {
          "internalType": "uint256",
          "name": "",
          "type": "uint256"
        }
      ],
      "stateMutability": "view",
      "type": "function"
    },
    {
      "inputs": [
        {
          "internalType": "address",
          "name": "from",
          "type": "address"
        },
        {
          "internalType": "address",
          "name": "to",
          "type": "address"
        },
        {
          "internalType": "uint256",
          "name": "tokenId",
          "type": "uint256"
        }
      ],
      "name": "safeTransferFrom",
      "outputs": [],
      "stateMutability": "nonpayable",
      "type": "function"
    },
    {
      "inputs": [
        {
          "internalType": "address",
          "name": "from",
          "type": "address"
        },
        {
          "internalType": "address",
          "name": "to",
          "type": "address"
        },
        {
          "internalType": "uint256",
          "name": "tokenId",
          "type": "uint256"
        },
        {
          "internalType": "bytes",
          "name": "_data",
          "type": "bytes"
        }
      ],
      "name": "safeTransferFrom",
      "outputs": [],
      "stateMutability": "nonpayable",
      "type": "function"
    },
    {
      "inputs": [
        {
          "internalType": "address",
          "name": "operator",
          "type": "address"
        },
        {
          "internalType": "bool",
          "name": "approved",
          "type": "bool"
        }
      ],
      "name": "setApprovalForAll",
      "outputs": [],
      "stateMutability": "nonpayable",
      "type": "function"
    },
    {
      "inputs": [
        {
          "internalType": "string",
          "name": "baseURI_",
          "type": "string"
        }
      ],
      "name": "setBaseURI",
      "outputs": [],
      "stateMutability": "nonpayable",
      "type": "function"
    },
    {
      "inputs": [
        {
          "internalType": "uint256",
          "name": "multiplier",
          "type": "uint256"
        },
        {
          "internalType": "enum StakedPositionType",
          "name": "positionType",
          "type": "uint8"
        }
      ],
      "name": "setEffectiveMultiplier",
      "outputs": [],
      "stateMutability": "nonpayable",
      "type": "function"
    },
    {
      "inputs": [
        {
          "internalType": "uint256",
          "name": "_targetCapacity",
          "type": "uint256"
        },
        {
          "internalType": "uint256",
          "name": "_minRate",
          "type": "uint256"
        },
        {
          "internalType": "uint256",
          "name": "_maxRate",
          "type": "uint256"
        },
        {
          "internalType": "uint256",
          "name": "_minRateAtPercent",
          "type": "uint256"
        },
        {
          "internalType": "uint256",
          "name": "_maxRateAtPercent",
          "type": "uint256"
        }
      ],
      "name": "setRewardsParameters",
      "outputs": [],
      "stateMutability": "nonpayable",
      "type": "function"
    },
    {
      "inputs": [
        {
          "internalType": "uint256",
          "name": "amount",
          "type": "uint256"
        },
        {
          "internalType": "enum StakedPositionType",
          "name": "positionType",
          "type": "uint8"
        }
      ],
      "name": "stake",
      "outputs": [
        {
          "internalType": "uint256",
          "name": "",
          "type": "uint256"
        }
      ],
      "stateMutability": "nonpayable",
      "type": "function"
    },
    {
      "inputs": [
        {
          "internalType": "uint256",
          "name": "tokenId",
          "type": "uint256"
        }
      ],
      "name": "stakedBalanceOf",
      "outputs": [
        {
          "internalType": "uint256",
          "name": "",
          "type": "uint256"
        }
      ],
      "stateMutability": "view",
      "type": "function"
    },
    {
      "inputs": [
        {
          "internalType": "bytes4",
          "name": "interfaceId",
          "type": "bytes4"
        }
      ],
      "name": "supportsInterface",
      "outputs": [
        {
          "internalType": "bool",
          "name": "",
          "type": "bool"
        }
      ],
      "stateMutability": "view",
      "type": "function"
    },
    {
      "inputs": [],
      "name": "symbol",
      "outputs": [
        {
          "internalType": "string",
          "name": "",
          "type": "string"
        }
      ],
      "stateMutability": "view",
      "type": "function"
    },
    {
      "inputs": [],
      "name": "targetCapacity",
      "outputs": [
        {
          "internalType": "uint256",
          "name": "",
          "type": "uint256"
        }
      ],
      "stateMutability": "view",
      "type": "function"
    },
    {
      "inputs": [
        {
          "internalType": "uint256",
          "name": "index",
          "type": "uint256"
        }
      ],
      "name": "tokenByIndex",
      "outputs": [
        {
          "internalType": "uint256",
          "name": "",
          "type": "uint256"
        }
      ],
      "stateMutability": "view",
      "type": "function"
    },
    {
      "inputs": [
        {
          "internalType": "address",
          "name": "owner",
          "type": "address"
        },
        {
          "internalType": "uint256",
          "name": "index",
          "type": "uint256"
        }
      ],
      "name": "tokenOfOwnerByIndex",
      "outputs": [
        {
          "internalType": "uint256",
          "name": "",
          "type": "uint256"
        }
      ],
      "stateMutability": "view",
      "type": "function"
    },
    {
      "inputs": [
        {
          "internalType": "uint256",
          "name": "tokenId",
          "type": "uint256"
        }
      ],
      "name": "tokenURI",
      "outputs": [
        {
          "internalType": "string",
          "name": "",
          "type": "string"
        }
      ],
      "stateMutability": "view",
      "type": "function"
    },
    {
      "inputs": [
        {
          "internalType": "address",
          "name": "owner",
          "type": "address"
        }
      ],
      "name": "totalOptimisticClaimable",
      "outputs": [
        {
          "internalType": "uint256",
          "name": "",
          "type": "uint256"
        }
      ],
      "stateMutability": "view",
      "type": "function"
    },
    {
      "inputs": [],
      "name": "totalStakedSupply",
      "outputs": [
        {
          "internalType": "uint256",
          "name": "",
          "type": "uint256"
        }
      ],
      "stateMutability": "view",
      "type": "function"
    },
    {
      "inputs": [],
      "name": "totalSupply",
      "outputs": [
        {
          "internalType": "uint256",
          "name": "",
          "type": "uint256"
        }
      ],
      "stateMutability": "view",
      "type": "function"
    },
    {
      "inputs": [
        {
          "internalType": "uint256",
          "name": "start",
          "type": "uint256"
        },
        {
          "internalType": "uint256",
          "name": "end",
          "type": "uint256"
        },
        {
          "internalType": "uint256",
          "name": "time",
          "type": "uint256"
        },
        {
          "internalType": "uint256",
          "name": "grantedAmount",
          "type": "uint256"
        }
      ],
      "name": "totalVestedAt",
      "outputs": [
        {
          "internalType": "uint256",
          "name": "rewards",
          "type": "uint256"
        }
      ],
      "stateMutability": "pure",
      "type": "function"
    },
    {
      "inputs": [
        {
          "internalType": "address",
          "name": "from",
          "type": "address"
        },
        {
          "internalType": "address",
          "name": "to",
          "type": "address"
        },
        {
          "internalType": "uint256",
          "name": "tokenId",
          "type": "uint256"
        }
      ],
      "name": "transferFrom",
      "outputs": [],
      "stateMutability": "nonpayable",
      "type": "function"
    },
    {
      "inputs": [],
      "name": "unpause",
      "outputs": [],
      "stateMutability": "nonpayable",
      "type": "function"
    },
    {
      "inputs": [
        {
          "internalType": "uint256",
          "name": "tokenId",
          "type": "uint256"
        },
        {
          "internalType": "uint256",
          "name": "amount",
          "type": "uint256"
        }
      ],
      "name": "unstake",
      "outputs": [],
      "stateMutability": "nonpayable",
      "type": "function"
    },
    {
      "inputs": [
        {
          "internalType": "uint256[]",
          "name": "tokenIds",
          "type": "uint256[]"
        },
        {
          "internalType": "uint256[]",
          "name": "amounts",
          "type": "uint256[]"
        }
      ],
      "name": "unstakeMultiple",
      "outputs": [],
      "stateMutability": "nonpayable",
      "type": "function"
    },
    {
      "inputs": [
        {
          "internalType": "uint256",
          "name": "tokenId",
          "type": "uint256"
        }
      ],
      "name": "updatePositionEffectiveMultiplier",
      "outputs": [],
      "stateMutability": "nonpayable",
      "type": "function"
    },
    {
      "inputs": [],
      "name": "vestingLength",
      "outputs": [
        {
          "internalType": "uint256",
          "name": "",
          "type": "uint256"
        }
      ],
      "stateMutability": "view",
      "type": "function"
    }
  ],
  "transactionHash": "0x7705d03145160777506532b7ec7299ac41c2811c0cb559ac142cb3f99254bbd6",
  "args": [],
  "numDeployments": 2,
  "solcInputHash": "679e620d0a3dd88ee1aa73929ab29382",
  "bytecode": "0x608060405234801561001057600080fd5b5061584880620000216000396000f3fe608060405234801561001057600080fd5b50600436106103de5760003560e01c80638456cb5911610206578063b3a99b4c1161012b578063ce0cf1a5116100c3578063e7a7250a11610087578063e7a7250a14610857578063e985e9c51461085f578063eb02c30114610872578063ece1d6e514610892578063f62849be1461089a576103de565b8063ce0cf1a514610819578063d53913931461082c578063d547741f14610834578063e58378bb14610847578063e63ab1e91461084f576103de565b8063b3a99b4c146107a5578063b6f8fd40146107ad578063b88d4fde146107c0578063b88dffe0146107d3578063bcdc3cfc146107db578063c87b56dd146107e3578063c8f33c91146107f6578063ca15c873146107fe578063cd3daf9d14610811576103de565b806399fbab881161019e57806399fbab88146106fd5780639e2c8a5b146107235780639f60421f14610736578063a217fddf14610749578063a22cb46514610751578063a52ab1f114610764578063a9f4939d14610777578063aa04295f1461078a578063b217f9d41461079d576103de565b80638456cb591461067357806387647d4b1461067b5780638ea269831461068e5780639010d07c146106a1578063906ae4c3146106b457806391d14854146106c757806395d89b41146106da5780639835fc7e146106e257806398bcede9146106f5576103de565b806330987dd8116103075780635c975abb1161029f5780636c0360eb116102635780636c0360eb1461062a5780636c3f3be61461063257806370a082311461064557806375ff490b1461065857806379502c551461066b576103de565b80635c975abb146105e15780636352211e146105e957806364fa33f0146105fc5780636702abe21461060457806369d00e7914610617576103de565b806330987dd81461055757806336568abe1461056a578063389621861461057d5780633f4ba83a1461058557806342842e0e1461058d5780634a6b629d146105a05780634f6ccce7146105a857806355f804b3146105bb57806359fe8539146105ce576103de565b806318160ddd1161037a57806318160ddd146104b75780631c4b774b146104bf57806323234a9c146104d257806323b872dd146104e5578063248a9ca3146104f8578063252e61c31461050b57806327a3492e1461051e5780632f2ff15d146105315780632f745c5914610544576103de565b806301ffc9a7146103e357806306fdde031461040c578063081812fc14610421578063095ea7b3146104415780630cb604431461045657806310087fb11461046b578063106809191461047e578063135e80591461049157806313ad3574146104a4575b600080fd5b6103f66103f13660046147f3565b6108ad565b6040516104039190614c5a565b60405180910390f35b6104146108d0565b6040516104039190614c8a565b61043461042f366004614796565b610967565b6040516104039190614b09565b61045461044f3660046146b2565b6109b3565b005b61045e610a4b565b6040516104039190614c65565b61045e6104793660046148cb565b610a52565b61045e61048c366004614796565b610ad4565b61045e61049f3660046148f7565b610ae7565b61045e6104b2366004614796565b610b00565b61045e610b23565b61045e6104cd366004614796565b610b34565b61045e6104e036600461482b565b610c67565b6104546104f336600461456b565b610e28565b61045e610506366004614796565b610e60565b61045e610519366004614962565b610e75565b61045461052c3660046147d2565b610f0a565b61045461053f3660046147ae565b610fc3565b61045e6105523660046146b2565b61100b565b6104546105653660046147d2565b611034565b6104546105783660046147ae565b61103f565b61045e611081565b610454611088565b61045461059b36600461456b565b6110c8565b61045e6110e3565b61045e6105b6366004614796565b6110ea565b6104546105c9366004614846565b611100565b61045e6105dc366004614796565b611163565b6103f6611336565b6104346105f7366004614796565b61133f565b61045e611367565b610454610612366004614928565b61136e565b6104546106253660046146dd565b611431565b61041461150a565b61045e610640366004614796565b61156b565b61045e6106533660046144fb565b61159c565b61045e61066636600461482b565b6115e5565b61043461164b565b61045461165b565b61045e610689366004614796565b611699565b61045e61069c3660046144fb565b6116e4565b6104346106af3660046147d2565b61172c565b6104546106c23660046148cb565b611744565b6103f66106d53660046147ae565b611810565b610414611828565b61045e6106f0366004614796565b611889565b61045e6118a4565b61071061070b366004614796565b6118ab565b60405161040397969594939291906156aa565b6104546107313660046147d2565b61192d565b610454610744366004614711565b6119ca565b61045e611bb9565b61045461075f366004614673565b611bbe565b610454610772366004614796565b611c8c565b6104546107853660046147d2565b611db9565b61045e610798366004614796565b611f39565b61045e611f4c565b61045e611f53565b6104546107bb3660046146a0565b611f5a565b6104546107ce3660046145ab565b612102565b61045e612141565b61045e612189565b6104146107f1366004614796565b612190565b61045e6122da565b61045e61080c366004614796565b6122e1565b61045e6122f8565b610454610827366004614796565b612310565b61045e61236b565b6104546108423660046147ae565b61238f565b61045e6123c9565b61045e6123db565b61045e6123ed565b6103f661086d366004614533565b6123f4565b610885610880366004614796565b612422565b604051610403919061560c565b61045e6124fe565b6104546108a8366004614796565b612505565b6001600160e01b0319811660009081526097602052604090205460ff165b919050565b60ce8054604080516020601f600260001961010060018816150201909516949094049384018190048102820181019092528281526060939092909183018282801561095c5780601f106109315761010080835404028352916020019161095c565b820191906000526020600020905b81548152906001019060200180831161093f57829003601f168201915b505050505090505b90565b600061097282612590565b6109975760405162461bcd60e51b815260040161098e90615272565b60405180910390fd5b50600090815260cc60205260409020546001600160a01b031690565b60006109be8261133f565b9050806001600160a01b0316836001600160a01b031614156109f25760405162461bcd60e51b815260040161098e906153dd565b806001600160a01b0316610a0461259d565b6001600160a01b03161480610a205750610a208161086d61259d565b610a3c5760405162461bcd60e51b815260040161098e906150fb565b610a4683836125a1565b505050565b6101c95481565b6101915460009060ff16610a785760405162461bcd60e51b815260040161098e906154f1565b610191805460ff1916905560fb5460ff1615610aa65760405162461bcd60e51b815260040161098e906150d1565b6000610ab18161260f565b610abd333386866126bb565b915050610191805460ff1916600117905592915050565b6101c76020526000908152604090205481565b6000610af585858585612a6d565b90505b949350505050565b6000610b1d610b0e83611889565b610b1784611699565b90612aa7565b92915050565b6000610b2f60ca612acc565b905090565b6101915460009060ff16610b5a5760405162461bcd60e51b815260040161098e906154f1565b610191805460ff1916905560fb5460ff1615610b885760405162461bcd60e51b815260040161098e906150d1565b81610b928161260f565b33610b9c8461133f565b6001600160a01b031614610bc25760405162461bcd60e51b815260040161098e90614e15565b6000610bcd84611889565b90508015610c515760008481526101d160205260409020610bf19060010182612ad7565b610c0e3382610bfe612af2565b6001600160a01b03169190612b0b565b83336001600160a01b03167fd6f2c8500df5b44f11e9e48b91ff9f1b9d81bc496d55570c2b1b75bf65243f5183604051610c489190614c65565b60405180910390a35b915050610191805460ff19166001179055919050565b60006001826001811115610c7757fe5b1415610e19576101c354600090610c96906001600160a01b0316612b61565b9050610e11816001600160a01b031663fc0c546a6040518163ffffffff1660e01b815260040160206040518083038186803b158015610cd457600080fd5b505afa158015610ce8573d6000803e3d6000fd5b505050506040513d601f19601f82011682018060405250810190610d0c9190614517565b6001600160a01b03166318160ddd6040518163ffffffff1660e01b815260040160206040518083038186803b158015610d4457600080fd5b505afa158015610d58573d6000803e3d6000fd5b505050506040513d601f19601f82011682018060405250810190610d7c91906148b3565b610e0b670de0b6b3a7640000846001600160a01b0316634903b0d160006040518263ffffffff1660e01b8152600401610db59190614c65565b60206040518083038186803b158015610dcd57600080fd5b505afa158015610de1573d6000803e3d6000fd5b505050506040513d601f19601f82011682018060405250810190610e0591906148b3565b90612b6c565b90612ba6565b9150506108cb565b50670de0b6b3a7640000919050565b610e39610e3361259d565b82612be8565b610e555760405162461bcd60e51b815260040161098e9061543a565b610a46838383612c65565b60009081526065602052604090206002015490565b6101c354600090610e8e906001600160a01b0316612d73565b6001600160a01b031663d505accf333089898989896040518863ffffffff1660e01b8152600401610ec59796959493929190614b50565b600060405180830381600087803b158015610edf57600080fd5b505af1158015610ef3573d6000803e3d6000fd5b50505050610f0086611163565b9695505050505050565b6101915460ff16610f2d5760405162461bcd60e51b815260040161098e906154f1565b610191805460ff1916905560fb5460ff1615610f5b5760405162461bcd60e51b815260040161098e906150d1565b6000610f6933338585612df3565b9050336001600160a01b03167f2468986f19ca698c7a17082adcaf9889ae41bbd887038b6c7b0598015dfae753848484604051610fa893929190615700565b60405180910390a25050610191805460ff1916600117905550565b600082815260656020526040902060020154610fe1906106d561259d565b610ffd5760405162461bcd60e51b815260040161098e90614d46565b6110078282612fc1565b5050565b6001600160a01b038216600090815260c96020526040812061102d908361302a565b9392505050565b611007338383611431565b61104761259d565b6001600160a01b0316816001600160a01b0316146110775760405162461bcd60e51b815260040161098e906155bd565b6110078282613036565b6101c55481565b6110a26000805160206157f38339815191526106d561259d565b6110be5760405162461bcd60e51b815260040161098e90615528565b6110c661309f565b565b610a4683838360405180602001604052806000815250612102565b6101c85481565b6000806110f860ca8461310b565b509392505050565b611108613129565b6111245760405162461bcd60e51b815260040161098e90614e15565b61100782828080601f01602080910402602001604051908101604052809392919081815260200183838082843760009201919091525061314592505050565b6101915460009060ff166111895760405162461bcd60e51b815260040161098e906154f1565b610191805460ff1916905560fb5460ff16156111b75760405162461bcd60e51b815260040161098e906150d1565b60006111c28161260f565b6111ca613158565b6111e65760405162461bcd60e51b815260040161098e90614d2a565b6101c3546000906111ff906001600160a01b03166131ec565b90506112166001600160a01b0382163330876131f7565b6101c35460009061122f906001600160a01b0316613218565b90506112456001600160a01b0383168287613223565b60405163b6b55f2560e01b81526000906001600160a01b0383169063b6b55f2590611274908990600401614c65565b602060405180830381600087803b15801561128e57600080fd5b505af11580156112a2573d6000803e3d6000fd5b505050506040513d601f19601f820116820180604052508101906112c691906148b3565b905060006112d730338460006126bb565b905080336001600160a01b03167fce343194de25678e58b53205d289681a131cc2b917e7c36c8dc0d1693fd8f7ef89856040516113159291906156f2565b60405180910390a3945050505050610191805460ff19166001179055919050565b60fb5460ff1690565b6000610b1d826040518060600160405280602981526020016157ca6029913960ca91906132c8565b6101cc5481565b611376613129565b6113925760405162461bcd60e51b815260040161098e90614e15565b600061139d8161260f565b8484101580156113ad5750828211155b6113c95760405162461bcd60e51b815260040161098e906154d5565b6101c88690556101c98590556101ca8490556101cc8390556101cb82905560405133907f8fc8630a9026e4d101945e5580ff250722a3dbc1222dac05b63a0e4a97688a65906114219089908990899089908990615716565b60405180910390a2505050505050565b6101915460ff166114545760405162461bcd60e51b815260040161098e906154f1565b610191805460ff1916905560fb5460ff16156114825760405162461bcd60e51b815260040161098e906150d1565b600061148d8161260f565b600061149b33308686612df3565b905060006114ac30878460016126bb565b905080336001600160a01b03167f70e3723ca1d6f2fd53a53844eb91671bc39574743c075044ac7ff5c2e5f489638787866040516114ec93929190615700565b60405180910390a35050610191805460ff1916600117905550505050565b60d18054604080516020601f600260001961010060018816150201909516949094049384018190048102820181019092528281526060939092909183018282801561095c5780601f106109315761010080835404028352916020019161095c565b6000610b1d6115786132d5565b60008481526101d160205260409020610e0b90611594906132e1565b610e05612141565b60006001600160a01b0382166115c45760405162461bcd60e51b815260040161098e90615153565b6001600160a01b038216600090815260c960205260409020610b1d90612acc565b6000806101d260008460018111156115f957fe5b600181111561160457fe5b8152602001908152602001600020541115610e19576101d2600083600181111561162a57fe5b600181111561163557fe5b81526020019081526020016000205490506108cb565b6101c3546001600160a01b031681565b6116756000805160206157f38339815191526106d561259d565b6116915760405162461bcd60e51b815260040161098e90614ef4565b6110c66132f4565b6000610b1d6116a66132d5565b60008481526101c76020526040902054610e0b906116cc906116c66122f8565b9061334d565b60008681526101d160205260409020610e05906132e1565b600080805b6116f28461159c565b811015611725576000611705858361100b565b905061171a61171382610b00565b8490612aa7565b9250506001016116e9565b5092915050565b600082815260656020526040812061102d908361302a565b61174c613129565b6117685760405162461bcd60e51b815260040161098e90614e15565b60006117738161260f565b600083116117935760405162461bcd60e51b815260040161098e90614e9f565b826101d260008460018111156117a557fe5b60018111156117b057fe5b81526020810191909152604001600020556117c961259d565b6001600160a01b03167f9db0606b275ca1f1e99d2544ed31141049687b5f4080f2c87812881580a1b7ee8385604051611803929190614c6e565b60405180910390a2505050565b600082815260656020526040812061102d908361338f565b60cf8054604080516020601f600260001961010060018816150201909516949094049384018190048102820181019092528281526060939092909183018282801561095c5780601f106109315761010080835404028352916020019161095c565b60008181526101d160205260408120610b1d906001016133a4565b61015f5481565b6101d1602090815260009182526040918290208054835160c081018552600183015481526002830154938101939093526003820154938301939093526004810154606083015260058101546080830152600681015460a0830152600781015460088201546009830154600a840154600b909401549293919260ff909116919087565b6101915460ff166119505760405162461bcd60e51b815260040161098e906154f1565b610191805460ff1916905560fb5460ff161561197e5760405162461bcd60e51b815260040161098e906150d1565b6119878261260f565b61199182826133c9565b60008281526101d160205260409020600901546119b89033908390610bfe9060ff166134a9565b5050610191805460ff19166001179055565b6101915460ff166119ed5760405162461bcd60e51b815260040161098e906154f1565b610191805460ff1916905560fb5460ff1615611a1b5760405162461bcd60e51b815260040161098e906150d1565b828114611a3a5760405162461bcd60e51b815260040161098e906153c0565b60008060005b83811015611b3157611a63878783818110611a5757fe5b9050602002013561260f565b611a91878783818110611a7257fe5b90506020020135868684818110611a8557fe5b905060200201356133c9565b60016101d16000898985818110611aa457fe5b602090810292909201358352508101919091526040016000206009015460ff166001811115611acf57fe5b1415611b0157611afa858583818110611ae457fe5b9050602002013583612aa790919063ffffffff16565b9150611b29565b611b26858583818110611b1057fe5b9050602002013584612aa790919063ffffffff16565b92505b600101611a40565b508115611b4757611b473383610bfe60006134a9565b8015611b5c57611b5c3382610bfe60016134a9565b336001600160a01b03167ff00809a6eb66c05c314468512a79b6388957b41bc76bd7241b9cbabb129ae00887878787604051611b9b9493929190614c28565b60405180910390a25050610191805460ff1916600117905550505050565b600081565b611bc661259d565b6001600160a01b0316826001600160a01b03161415611bf75760405162461bcd60e51b815260040161098e90614f95565b8060cd6000611c0461259d565b6001600160a01b03908116825260208083019390935260409182016000908120918716808252919093529120805460ff191692151592909217909155611c4861259d565b6001600160a01b03167f17307eab39ab6107e8899845ad3d59bd9653f200f220920489ca2b5937696c3183604051611c809190614c5a565b60405180910390a35050565b6101915460ff16611caf5760405162461bcd60e51b815260040161098e906154f1565b610191805460ff1916905560fb5460ff1615611cdd5760405162461bcd60e51b815260040161098e906150d1565b80611ce78161260f565b33611cf18361133f565b6001600160a01b031614611d175760405162461bcd60e51b815260040161098e90614e15565b60008281526101d1602052604081206009810154909190611d3a9060ff166115e5565b9050611d4582613562565b811015611d645760405162461bcd60e51b815260040161098e906151df565b6000611d6f836132e1565b600a840183905590506000611d83846132e1565b9050611d9f81610b17846101ce5461334d90919063ffffffff16565b6101ce555050610191805460ff1916600117905550505050565b6101915460ff16611ddc5760405162461bcd60e51b815260040161098e906154f1565b610191805460ff1916905560fb5460ff1615611e0a5760405162461bcd60e51b815260040161098e906150d1565b81611e148161260f565b611e1e3384612be8565b611e3a5760405162461bcd60e51b815260040161098e90614e15565b60008381526101d16020526040812090600982015460ff166001811115611e5d57fe5b14611e7a5760405162461bcd60e51b815260040161098e90614fc8565b8054611e869084612aa7565b8155611eb0611ea684611e988461357a565b611ea185613562565b613592565b6101ce5490612aa7565b6101ce556009810154611ee090339030908690611ecf9060ff166134a9565b6001600160a01b03169291906131f7565b6009810154604051859133917faa068096279f55d8fc4a30b56ce3e23e4230e75c1aa7d0d29c13c0fdabb0293791611f1d91889160ff169061566c565b60405180910390a35050610191805460ff191660011790555050565b60009081526101d1602052604090205490565b6101cd5481565b6101cb5481565b600054610100900460ff1680611f735750611f736135b0565b80611f81575060005460ff16155b611f9d5760405162461bcd60e51b815260040161098e906152da565b600054610100900460ff16158015611fc8576000805460ff1961ff0019909116610100171660011790555b611fd06135b6565b611fd8613639565b6120396040518060400160405280601e81526020017f476f6c6466696e6368205632204c50205374616b696e6720546f6b656e7300008152506040518060400160405280600a8152602001694746492d56322d4c505360b01b8152506136b7565b6120416135b6565b6120496135b6565b612051613793565b61205961381f565b6120716000805160206157aa83398151915284610ffd565b6120896000805160206157f383398151915284610ffd565b6120af6000805160206157f38339815191526000805160206157aa8339815191526138af565b6120c76000805160206157aa833981519152806138af565b6101c380546001600160a01b0319166001600160a01b0384161790556301e133806101cd558015610a46576000805461ff0019169055505050565b61211361210d61259d565b83612be8565b61212f5760405162461bcd60e51b815260040161098e9061543a565b61213b848484846138c4565b50505050565b6000806101c45442146121545742612159565b426001015b905060006121736101c4548361334d90919063ffffffff16565b905061218281610e0b846138f7565b9250505090565b6101ce5481565b606061219b82612590565b6121b75760405162461bcd60e51b815260040161098e90615371565b600082815260d0602090815260409182902080548351601f600260001961010060018616150201909316929092049182018490048402810184019094528084526060939283018282801561224c5780601f106122215761010080835404028352916020019161224c565b820191906000526020600020905b81548152906001019060200180831161222f57829003601f168201915b505060d154939450505050600260001961010060018416150201909116046122755790506108cb565b8051156122a75760d181604051602001612290929190614a88565b6040516020818303038152906040529150506108cb565b60d16122b284613986565b6040516020016122c3929190614a88565b604051602081830303815290604052915050919050565b6101c45481565b6000818152606560205260408120610b1d90612acc565b6000610b2f612306426138f7565b6101c55490612aa7565b6101915460ff166123335760405162461bcd60e51b815260040161098e906154f1565b610191805460ff1916905560fb5460ff16156123615760405162461bcd60e51b815260040161098e906150d1565b806119b88161260f565b7f9f2df0fed2c77648de5860a4cc508cd0818c85b8b8a1ab4ceeef8d981c8956a681565b6000828152606560205260409020600201546123ad906106d561259d565b6110775760405162461bcd60e51b815260040161098e90615065565b6000805160206157aa83398151915281565b6000805160206157f383398151915281565b6101c65481565b6001600160a01b03918216600090815260cd6020908152604080832093909416825291909152205460ff1690565b61242a614393565b6101d160008381526020019081526020016000206040518060e001604052908160008201548152602001600182016040518060c00160405290816000820154815260200160018201548152602001600282015481526020016003820154815260200160048201548152602001600582015481525050815260200160078201548152602001600882015481526020016009820160009054906101000a900460ff1660018111156124d557fe5b60018111156124e057fe5b8152600a8201546020820152600b9091015460409091015292915050565b6101ca5481565b61250d613129565b6125295760405162461bcd60e51b815260040161098e90614e15565b60006125348161260f565b612542333084611ecf612af2565b6101c6546125509083612aa7565b6101c6556040517fde88a922e0d3b88b24e9623efeb464919c6bf9f66857a65e2bfcf2ce87a9433d90612584908490614c65565b60405180910390a15050565b6000610b1d60ca83613a61565b3390565b600081815260cc6020526040902080546001600160a01b0319166001600160a01b03841690811790915581906125d68261133f565b6001600160a01b03167f8c5be1e5ebec7d5bd14f71427d1e84f3dd0314c0f7b2291e5b200ac8c7c3b92560405160405180910390a45050565b6101c55461261b6122f8565b6101c555600061264861262c6132d5565b6101c554610e0b9061263e908661334d565b6101ce5490612b6c565b6101c654909150612659908261334d565b6101c655426101c4558215610a4657600061267384611699565b60008581526101d1602052604090206001018054919250906126959083612aa7565b81556126a081613a6d565b50506101c55460008481526101c76020526040902055505050565b60008083116126dc5760405162461bcd60e51b815260040161098e90614e9f565b6126e761015f613acc565b6126f261015f613ad5565b90506126fd8161260f565b600061270883610c67565b90506000612715846115e5565b9050600184600181111561272557fe5b14156128c2576101c354600090612744906001600160a01b0316612b61565b90506000612814620f4240610e0b670de0b6b3a7640000610e05866001600160a01b0316634903b0d160006040518263ffffffff1660e01b815260040161278b9190614c65565b60206040518083038186803b1580156127a357600080fd5b505afa1580156127b7573d6000803e3d6000fd5b505050506040513d601f19601f820116820180604052508101906127db91906148b3565b610e0b670de0b6b3a7640000896001600160a01b0316634903b0d160016040518263ffffffff1660e01b8152600401610db59190614c65565b6101c35490915061287390606490610e0b90604b9061283b906001600160a01b0316613218565b6001600160a01b031663872697296040518163ffffffff1660e01b815260040160206040518083038186803b158015610dcd57600080fd5b811180156128a357506101c3546128a090606490610e0b90607d9061283b906001600160a01b0316613218565b81105b6128bf5760405162461bcd60e51b815260040161098e906150b5565b50505b6040518060e001604052808681526020016040518060c001604052806000815260200160008152602001600081526020016000815260200142815260200160008152508152602001600081526020016000815260200185600181111561292457fe5b81526020808201849052604091820185905260008681526101d18252829020835181558382015180516001808401919091559281015160028301558084015160038301556060808201516004840155608080830151600585015560a0909201516006840155938501516007830155928401516008820155918301516009830180549192909160ff19169083818111156129b957fe5b021790555060a0820151600a82015560c090910151600b909101556129de8684613ad9565b60008381526101d1602052604090206129fa90611ea6906132e1565b6101ce556001600160a01b0387163014612a1d57612a1d873087611ecf886134a9565b82866001600160a01b03167fcc10169be2ad544347561e230939849af48d1714c052d7fe247d12f3decb4896878786604051612a5b93929190615688565b60405180910390a35050949350505050565b6000848411612a7d575080610af8565b610af5612aa1612a8d868861334d565b610e0b612a9a878a61334d565b8690612b6c565b83613b9d565b60008282018381101561102d5760405162461bcd60e51b815260040161098e90614ebd565b6000610b1d82613ad5565b6003820154612ae69082612aa7565b82600301819055505050565b6101c354600090610b2f906001600160a01b0316613bb3565b610a468363a9059cbb60e01b8484604051602401612b2a929190614bcf565b60408051601f198184030181529190526020810180516001600160e01b03166001600160e01b031990931692909217909152613bbe565b6000610b1d82613ca3565b600082612b7b57506000610b1d565b82820282848281612b8857fe5b041461102d5760405162461bcd60e51b815260040161098e90615231565b600061102d83836040518060400160405280601a81526020017f536166654d6174683a206469766973696f6e206279207a65726f000000000000815250613cbb565b6000612bf382612590565b612c0f5760405162461bcd60e51b815260040161098e90615019565b6000612c1a8361133f565b9050806001600160a01b0316846001600160a01b03161480612c555750836001600160a01b0316612c4a84610967565b6001600160a01b0316145b80610af85750610af881856123f4565b826001600160a01b0316612c788261133f565b6001600160a01b031614612c9e5760405162461bcd60e51b815260040161098e90615328565b6001600160a01b038216612cc45760405162461bcd60e51b815260040161098e90614f51565b612ccf838383613cf2565b612cda6000826125a1565b6001600160a01b038316600090815260c960205260409020612cfc9082613cfd565b506001600160a01b038216600090815260c960205260409020612d1f9082613d09565b50612d2c60ca8284613d15565b5080826001600160a01b0316846001600160a01b03167fddf252ad1be2c89b69c2b068fc378daa952ba7f163c4a11628f55a4df523b3ef60405160405180910390a4505050565b60006001600160a01b03821663b93f9b0a60055b6040518263ffffffff1660e01b8152600401612da39190614c65565b60206040518083038186803b158015612dbb57600080fd5b505afa158015612dcf573d6000803e3d6000fd5b505050506040513d601f19601f82011682018060405250810190610b1d9190614517565b600080831180612e035750600082115b612e1f5760405162461bcd60e51b815260040161098e90614e9f565b6101c354600090612e38906001600160a01b03166131ec565b6101c354909150600090612e54906001600160a01b0316613d2b565b6101c354909150600090612e70906001600160a01b0316612b61565b90508515612ea157612e8d6001600160a01b0383168930896131f7565b612ea16001600160a01b0383168288613223565b8415612ed057612ebc6001600160a01b0384168930886131f7565b612ed06001600160a01b0384168287613223565b6000612f1c600a610e0b6009856001600160a01b0316638d8ea72760405180604001604052808e81526020018d8152506040518263ffffffff1660e01b8152600401610db59190614be8565b604080518082018252898152602081018990529051637328333b60e01b81529192506001600160a01b03841691637328333b91612f629185906000908e90600401614bf6565b602060405180830381600087803b158015612f7c57600080fd5b505af1158015612f90573d6000803e3d6000fd5b505050506040513d601f19601f82011682018060405250810190612fb491906148b3565b9998505050505050505050565b6000828152606560205260409020612fd99082613d36565b1561100757612fe661259d565b6001600160a01b0316816001600160a01b0316837f2f8788117e7eff1d82e926ec794901d17c78024a50270940304540a733656f0d60405160405180910390a45050565b600061102d8383613d4b565b600082815260656020526040902061304e9082613d90565b156110075761305b61259d565b6001600160a01b0316816001600160a01b0316837ff6391f5c32d9c69d2a47ea670b442974b53935d1edc7fd64eb21e047a839171b60405160405180910390a45050565b60fb5460ff166130c15760405162461bcd60e51b815260040161098e90614d95565b60fb805460ff191690557f5db9ee0a495bf2e6ff9c91a7834c1ba4fdd244a5e8aa4e537bd38aeae4b073aa6130f461259d565b6040516131019190614b09565b60405180910390a1565b600080808061311a8686613da5565b909450925050505b9250929050565b6000610b2f6000805160206157aa8339815191526106d561259d565b80516110079060d19060208401906143e1565b6101c354600090613171906001600160a01b0316613e01565b6001600160a01b031663a37b92c9336040518263ffffffff1660e01b815260040161319c9190614b09565b60206040518083038186803b1580156131b457600080fd5b505afa1580156131c8573d6000803e3d6000fd5b505050506040513d601f19601f82011682018060405250810190610b2f919061477a565b6000610b1d82612d73565b61213b846323b872dd60e01b858585604051602401612b2a93929190614bab565b6000610b1d82613e0c565b60006132a782856001600160a01b031663dd62ed3e30876040518363ffffffff1660e01b8152600401613257929190614b91565b60206040518083038186803b15801561326f57600080fd5b505afa158015613283573d6000803e3d6000fd5b505050506040513d601f19601f82011682018060405250810190610b1791906148b3565b905061213b8463095ea7b360e01b8584604051602401612b2a929190614bcf565b6000610af8848484613e24565b670de0b6b3a764000090565b6000610b1d8260000154611e988461357a565b60fb5460ff16156133175760405162461bcd60e51b815260040161098e906150d1565b60fb805460ff191660011790557f62e78cea01bee320cd4e420270b5ea74000d11b0c9f74754ebdbfc544b05a2586130f461259d565b600061102d83836040518060400160405280601e81526020017f536166654d6174683a207375627472616374696f6e206f766572666c6f770000815250613e83565b600061102d836001600160a01b038416613eaf565b6000610b1d82600301546116c684600201548560010154612aa790919063ffffffff16565b6133d33383612be8565b6133ef5760405162461bcd60e51b815260040161098e90614e15565b60008281526101d1602052604090208054821580159061340f5750808311155b61342b5760405162461bcd60e51b815260040161098e906152be565b61344e6134448461343b8561357a565b611ea186613562565b6101ce549061334d565b6101ce5561345c818461334d565b82556009820154604051859133917f47efae27a70cca1d3ad8e753ab4b48a413e554d244be5c7928fdfee407c37f5d9161349b91889160ff169061566c565b60405180910390a350505050565b600060018260018111156134b957fe5b141561354c576101c3546134d5906001600160a01b0316612b61565b6001600160a01b031663fc0c546a6040518163ffffffff1660e01b815260040160206040518083038186803b15801561350d57600080fd5b505afa158015613521573d6000803e3d6000fd5b505050506040513d601f19601f820116820180604052508101906135459190614517565b90506108cb565b6101c354610b1d906001600160a01b0316613d2b565b600a81015460009015610e195750600a8101546108cb565b600b81015460009015610e195750600b8101546108cb565b6000610af8670de0b6b3a7640000610e0b818186610e058a8a612b6c565b303b1590565b600054610100900460ff16806135cf57506135cf6135b0565b806135dd575060005460ff16155b6135f95760405162461bcd60e51b815260040161098e906152da565b600054610100900460ff16158015613624576000805460ff1961ff0019909116610100171660011790555b8015613636576000805461ff00191690555b50565b600054610100900460ff168061365257506136526135b0565b80613660575060005460ff16155b61367c5760405162461bcd60e51b815260040161098e906152da565b600054610100900460ff161580156136a7576000805460ff1961ff0019909116610100171660011790555b6136246301ffc9a760e01b613ec7565b600054610100900460ff16806136d057506136d06135b0565b806136de575060005460ff16155b6136fa5760405162461bcd60e51b815260040161098e906152da565b600054610100900460ff16158015613725576000805460ff1961ff0019909116610100171660011790555b82516137389060ce9060208601906143e1565b50815161374c9060cf9060208501906143e1565b5061375d6380ac58cd60e01b613ec7565b61376d635b5e139f60e01b613ec7565b61377d63780e9d6360e01b613ec7565b8015610a46576000805461ff0019169055505050565b600054610100900460ff16806137ac57506137ac6135b0565b806137ba575060005460ff16155b6137d65760405162461bcd60e51b815260040161098e906152da565b600054610100900460ff16158015613801576000805460ff1961ff0019909116610100171660011790555b60fb805460ff191690558015613636576000805461ff001916905550565b600054610100900460ff168061383857506138386135b0565b80613846575060005460ff16155b6138625760405162461bcd60e51b815260040161098e906152da565b600054610100900460ff1615801561388d576000805460ff1961ff0019909116610100171660011790555b610191805460ff191660011790558015613636576000805461ff001916905550565b60009182526065602052604090912060020155565b6138cf848484612c65565b6138db84848484613f16565b61213b5760405162461bcd60e51b815260040161098e90614dc3565b60006101c45482101561391c5760405162461bcd60e51b815260040161098e9061541e565b6101ce5461392c575060006108cb565b600061395461394b61393c614050565b6101c454610e0590879061334d565b6101c654613b9d565b905060006139716101ce54610e0b61396a6132d5565b8590612b6c565b90508181111561102d576000925050506108cb565b6060816139ab57506040805180820190915260018152600360fc1b60208201526108cb565b8160005b81156139c357600101600a820491506139af565b60608167ffffffffffffffff811180156139dc57600080fd5b506040519080825280601f01601f191660200182016040528015613a07576020820181803683370190505b50859350905060001982015b8315613a5857600a840660300160f81b82828060019003935081518110613a3657fe5b60200101906001600160f81b031916908160001a905350600a84049350613a13565b50949350505050565b600061102d8383613eaf565b6000613a8b8260040154836005015442613a8686614127565b612a6d565b90508160010154811115611007576000613ab283600101548361334d90919063ffffffff16565b8354909150613ac1908261334d565b835550600190910155565b80546001019055565b5490565b6001600160a01b038216613aff5760405162461bcd60e51b815260040161098e906151fc565b613b0881612590565b15613b255760405162461bcd60e51b815260040161098e90614e68565b613b3160008383613cf2565b6001600160a01b038216600090815260c960205260409020613b539082613d09565b50613b6060ca8284613d15565b5060405181906001600160a01b038416906000907fddf252ad1be2c89b69c2b068fc378daa952ba7f163c4a11628f55a4df523b3ef908290a45050565b6000818310613bac578161102d565b5090919050565b6000610b1d8261413b565b613bd0826001600160a01b0316614153565b613bec5760405162461bcd60e51b815260040161098e90615586565b60006060836001600160a01b031683604051613c089190614a6c565b6000604051808303816000865af19150503d8060008114613c45576040519150601f19603f3d011682016040523d82523d6000602084013e613c4a565b606091505b509150915081613c6c5760405162461bcd60e51b815260040161098e90614fe4565b80511561213b5780806020019051810190613c87919061477a565b61213b5760405162461bcd60e51b815260040161098e9061548b565b60006001600160a01b03821663b93f9b0a6016612d87565b60008183613cdc5760405162461bcd60e51b815260040161098e9190614c8a565b506000838581613ce857fe5b0495945050505050565b610a4683838361418c565b600061102d83836141bc565b600061102d8383614282565b6000610af884846001600160a01b0385166142cc565b6000610b1d82614363565b600061102d836001600160a01b038416614282565b81546000908210613d6e5760405162461bcd60e51b815260040161098e90614c9d565b826000018281548110613d7d57fe5b9060005260206000200154905092915050565b600061102d836001600160a01b0384166141bc565b815460009081908310613dca5760405162461bcd60e51b815260040161098e9061519d565b6000846000018481548110613ddb57fe5b906000526020600020906002020190508060000154816001015492509250509250929050565b6000610b1d8261437b565b60006001600160a01b03821663b93f9b0a600e612d87565b60008281526001840160205260408120548281613e545760405162461bcd60e51b815260040161098e9190614c8a565b50846000016001820381548110613e6757fe5b9060005260206000209060020201600101549150509392505050565b60008184841115613ea75760405162461bcd60e51b815260040161098e9190614c8a565b505050900390565b60009081526001919091016020526040902054151590565b6001600160e01b03198082161415613ef15760405162461bcd60e51b815260040161098e90614e31565b6001600160e01b0319166000908152609760205260409020805460ff19166001179055565b6000613f2a846001600160a01b0316614153565b613f3657506001610af8565b600060606001600160a01b038616630a85bd0160e11b613f5461259d565b898888604051602401613f6a9493929190614b1d565b60408051601f198184030181529181526020820180516001600160e01b03166001600160e01b0319909416939093179092529051613fa89190614a6c565b6000604051808303816000865af19150503d8060008114613fe5576040519150601f19603f3d011682016040523d82523d6000602084013e613fea565b606091505b50915091508161401c578051156140045780518082602001fd5b60405162461bcd60e51b815260040161098e90614dc3565b600081806020019051810190614032919061480f565b6001600160e01b031916630a85bd0160e11b149350610af892505050565b600080614078670de0b6b3a7640000610e0b6101cb546101c854612b6c90919063ffffffff16565b905060006140a1670de0b6b3a7640000610e0b6101cc546101c854612b6c90919063ffffffff16565b6101ce549091508282116140bb5760009350505050610964565b828110156140d1576101ca549350505050610964565b818111156140e7576101c9549350505050610964565b61411f6141156140f7848661334d565b610e0b614104858861334d565b6101c9546101ca54610e059161334d565b6101ca549061334d565b935050505090565b60018101548154600091610b1d9190612aa7565b60006001600160a01b03821663b93f9b0a6012612d87565b6000813f7fc5d2460186f7233c927e7db2dcc703c0e500b653ca82273b7bfad8045d85a470818114801590610af8575050151592915050565b614197838383610a46565b61419f611336565b15610a465760405162461bcd60e51b815260040161098e90614cdf565b6000818152600183016020526040812054801561427857835460001980830191908101906000908790839081106141ef57fe5b906000526020600020015490508087600001848154811061420c57fe5b60009182526020808320909101929092558281526001898101909252604090209084019055865487908061423c57fe5b60019003818190600052602060002001600090559055866001016000878152602001908152602001600020600090556001945050505050610b1d565b6000915050610b1d565b600061428e8383613eaf565b6142c457508154600181810184556000848152602080822090930184905584548482528286019093526040902091909155610b1d565b506000610b1d565b60008281526001840160205260408120548061433157505060408051808201825283815260208082018481528654600181810189556000898152848120955160029093029095019182559151908201558654868452818801909252929091205561102d565b8285600001600183038154811061434457fe5b906000526020600020906002020160010181905550600091505061102d565b60006001600160a01b03821663b93f9b0a6004612d87565b60006001600160a01b03821663b93f9b0a6013612d87565b6040518060e00160405280600081526020016143ad61445f565b81526020016000815260200160008152602001600060018111156143cd57fe5b815260200160008152602001600081525090565b828054600181600116156101000203166002900490600052602060002090601f016020900481019282601f1061442257805160ff191683800117855561444f565b8280016001018555821561444f579182015b8281111561444f578251825591602001919060010190614434565b5061445b929150614495565b5090565b6040518060c001604052806000815260200160008152602001600081526020016000815260200160008152602001600081525090565b5b8082111561445b5760008155600101614496565b60008083601f8401126144bb578182fd5b50813567ffffffffffffffff8111156144d2578182fd5b602083019150836020808302850101111561312257600080fd5b803560028110610b1d57600080fd5b60006020828403121561450c578081fd5b813561102d81615770565b600060208284031215614528578081fd5b815161102d81615770565b60008060408385031215614545578081fd5b823561455081615770565b9150602083013561456081615770565b809150509250929050565b60008060006060848603121561457f578081fd5b833561458a81615770565b9250602084013561459a81615770565b929592945050506040919091013590565b600080600080608085870312156145c0578081fd5b84356145cb81615770565b93506020858101356145dc81615770565b935060408601359250606086013567ffffffffffffffff808211156145ff578384fd5b818801915088601f830112614612578384fd5b813581811115614620578485fd5b604051601f8201601f191681018501838111828210171561463f578687fd5b60405281815283820185018b1015614655578586fd5b81858501868301379081019093019390935250939692955090935050565b60008060408385031215614685578182fd5b823561469081615770565b9150602083013561456081615785565b60008060408385031215614545578182fd5b600080604083850312156146c4578182fd5b82356146cf81615770565b946020939093013593505050565b6000806000606084860312156146f1578283fd5b83356146fc81615770565b95602085013595506040909401359392505050565b60008060008060408587031215614726578081fd5b843567ffffffffffffffff8082111561473d578283fd5b614749888389016144aa565b90965094506020870135915080821115614761578283fd5b5061476e878288016144aa565b95989497509550505050565b60006020828403121561478b578081fd5b815161102d81615785565b6000602082840312156147a7578081fd5b5035919050565b600080604083850312156147c0578182fd5b82359150602083013561456081615770565b600080604083850312156147e4578182fd5b50508035926020909101359150565b600060208284031215614804578081fd5b813561102d81615793565b600060208284031215614820578081fd5b815161102d81615793565b60006020828403121561483c578081fd5b61102d83836144ec565b60008060208385031215614858578182fd5b823567ffffffffffffffff8082111561486f578384fd5b818501915085601f830112614882578384fd5b813581811115614890578485fd5b8660208285010111156148a1578485fd5b60209290920196919550909350505050565b6000602082840312156148c4578081fd5b5051919050565b600080604083850312156148dd578182fd5b823591506148ee84602085016144ec565b90509250929050565b6000806000806080858703121561490c578182fd5b5050823594602084013594506040840135936060013592509050565b600080600080600060a0868803121561493f578283fd5b505083359560208501359550604085013594606081013594506080013592509050565b600080600080600060a08688031215614979578283fd5b8535945060208601359350604086013560ff81168114614997578384fd5b94979396509394606081013594506080013592915050565b8060005b600281101561213b5781518452602093840193909101906001016149b3565b81835260006001600160fb1b038311156149ea578081fd5b6020830280836020870137939093016020019283525090919050565b60008151808452614a1e816020860160208601615744565b601f01601f19169290920160200192915050565b805182526020810151602083015260408101516040830152606081015160608301526080810151608083015260a081015160a08301525050565b60008251614a7e818460208701615744565b9190910192915050565b6000808454600180821660008114614aa75760018114614abe57614aed565b60ff198316865260028304607f1686019350614aed565b600283048886526020808720875b83811015614ae55781548a820152908501908201614acc565b505050860193505b5050508351614b00818360208801615744565b01949350505050565b6001600160a01b0391909116815260200190565b6001600160a01b0385811682528416602082015260408101839052608060608201819052600090610f0090830184614a06565b6001600160a01b0397881681529590961660208601526040850193909352606084019190915260ff16608083015260a082015260c081019190915260e00190565b6001600160a01b0392831681529116602082015260400190565b6001600160a01b039384168152919092166020820152604081019190915260600190565b6001600160a01b03929092168252602082015260400190565b60408101610b1d82846149af565b60a08101614c0482876149af565b604082019490945291151560608301526001600160a01b0316608090910152919050565b600060408252614c3c6040830186886149d2565b8281036020840152614c4f8185876149d2565b979650505050505050565b901515815260200190565b90815260200190565b60408101614c7b84615739565b82528260208301529392505050565b60006020825261102d6020830184614a06565b60208082526022908201527f456e756d657261626c655365743a20696e646578206f7574206f6620626f756e604082015261647360f01b606082015260800190565b6020808252602b908201527f4552433732315061757361626c653a20746f6b656e207472616e73666572207760408201526a1a1a5b19481c185d5cd95960aa1b606082015260800190565b60208082526002908201526111d360f21b604082015260600190565b6020808252602f908201527f416363657373436f6e74726f6c3a2073656e646572206d75737420626520616e60408201526e0818591b5a5b881d1bc819dc985b9d608a1b606082015260800190565b60208082526014908201527314185d5cd8589b194e881b9bdd081c185d5cd95960621b604082015260600190565b60208082526032908201527f4552433732313a207472616e7366657220746f206e6f6e20455243373231526560408201527131b2b4bb32b91034b6b83632b6b2b73a32b960711b606082015260800190565b602080825260029082015261105160f21b604082015260600190565b6020808252601c908201527f4552433136353a20696e76616c696420696e7465726661636520696400000000604082015260600190565b6020808252601c908201527f4552433732313a20746f6b656e20616c7265616479206d696e74656400000000604082015260600190565b6020808252600490820152635a45524f60e01b604082015260600190565b6020808252601b908201527f536166654d6174683a206164646974696f6e206f766572666c6f770000000000604082015260600190565b6020808252603e908201527f4552433732315072657365744d696e7465725061757365724175746f49643a2060408201527f6d75737420686176652070617573657220726f6c6520746f2070617573650000606082015260800190565b60208082526024908201527f4552433732313a207472616e7366657220746f20746865207a65726f206164646040820152637265737360e01b606082015260800190565b60208082526019908201527822a9219b99189d1030b8383937bb32903a379031b0b63632b960391b604082015260600190565b602080825260029082015261141560f21b604082015260600190565b6020808252818101527f5361666545524332303a206c6f772d6c6576656c2063616c6c206661696c6564604082015260600190565b6020808252602c908201527f4552433732313a206f70657261746f7220717565727920666f72206e6f6e657860408201526b34b9ba32b73a103a37b5b2b760a11b606082015260800190565b60208082526030908201527f416363657373436f6e74726f6c3a2073656e646572206d75737420626520616e60408201526f2061646d696e20746f207265766f6b6560801b606082015260800190565b602080825260029082015261494d60f01b604082015260600190565b60208082526010908201526f14185d5cd8589b194e881c185d5cd95960821b604082015260600190565b60208082526038908201527f4552433732313a20617070726f76652063616c6c6572206973206e6f74206f776040820152771b995c881b9bdc88185c1c1c9bdd995908199bdc88185b1b60421b606082015260800190565b6020808252602a908201527f4552433732313a2062616c616e636520717565727920666f7220746865207a65604082015269726f206164647265737360b01b606082015260800190565b60208082526022908201527f456e756d657261626c654d61703a20696e646578206f7574206f6620626f756e604082015261647360f01b606082015260800190565b6020808252600390820152624c4f5760e81b604082015260600190565b6020808252818101527f4552433732313a206d696e7420746f20746865207a65726f2061646472657373604082015260600190565b60208082526021908201527f536166654d6174683a206d756c7469706c69636174696f6e206f766572666c6f6040820152607760f81b606082015260800190565b6020808252602c908201527f4552433732313a20617070726f76656420717565727920666f72206e6f6e657860408201526b34b9ba32b73a103a37b5b2b760a11b606082015260800190565b602080825260029082015261494160f01b604082015260600190565b6020808252602e908201527f436f6e747261637420696e7374616e63652068617320616c726561647920626560408201526d195b881a5b9a5d1a585b1a5e995960921b606082015260800190565b60208082526029908201527f4552433732313a207472616e73666572206f6620746f6b656e2074686174206960408201526839903737ba1037bbb760b91b606082015260800190565b6020808252602f908201527f4552433732314d657461646174613a2055524920717565727920666f72206e6f60408201526e3732bc34b9ba32b73a103a37b5b2b760891b606082015260800190565b6020808252600390820152622622a760e91b604082015260600190565b60208082526021908201527f4552433732313a20617070726f76616c20746f2063757272656e74206f776e656040820152603960f91b606082015260800190565b602080825260029082015261125560f21b604082015260600190565b60208082526031908201527f4552433732313a207472616e736665722063616c6c6572206973206e6f74206f6040820152701ddb995c881b9bdc88185c1c1c9bdd9959607a1b606082015260800190565b6020808252602a908201527f5361666545524332303a204552433230206f7065726174696f6e20646964206e6040820152691bdd081cdd58d8d9595960b21b606082015260800190565b602080825260029082015261049560f41b604082015260600190565b6020808252601f908201527f5265656e7472616e637947756172643a207265656e7472616e742063616c6c00604082015260600190565b602080825260409082018190527f4552433732315072657365744d696e7465725061757365724175746f49643a20908201527f6d75737420686176652070617573657220726f6c6520746f20756e7061757365606082015260800190565b6020808252601f908201527f5361666545524332303a2063616c6c20746f206e6f6e2d636f6e747261637400604082015260600190565b6020808252602f908201527f416363657373436f6e74726f6c3a2063616e206f6e6c792072656e6f756e636560408201526e103937b632b9903337b91039b2b63360891b606082015260800190565b8151815260208083015161018083019161562890840182614a32565b50604083015160e0830152606083015161010083015261564b6080840151615739565b61012083015260a083015161014083015260c0909201516101609091015290565b8281526040810161567c83615739565b60208301529392505050565b838152606081016002841061569957fe5b602082019390935260400152919050565b87815261018081016156bf6020830189614a32565b8660e0830152856101008301526156d585615739565b610120830152610140820193909352610160015295945050505050565b918252602082015260400190565b9283526020830191909152604082015260600190565b948552602085019390935260408401919091526060830152608082015260a00190565b80600281106108cb57fe5b60005b8381101561575f578181015183820152602001615747565b8381111561213b5750506000910152565b6001600160a01b038116811461363657600080fd5b801515811461363657600080fd5b6001600160e01b03198116811461363657600080fdfeb19546dff01e856fb3f010c267a7b1c60363cf8a4664e21cc89c26224620214e4552433732313a206f776e657220717565727920666f72206e6f6e6578697374656e7420746f6b656e65d7a28e3265b37a6474929f336521b332c1681b933f6cb9f3376673440d862aa2646970667358221220038febd0fb60473b47887f8f2d6ce6db5bb4d008148aff7c7b4bf814d25e904364736f6c634300060c0033",
  "devdoc": {
    "kind": "dev",
    "methods": {
      "addToStake(uint256,uint256)": {
        "params": {
          "amount": "Amount of `stakingToken()` to be added to tokenId's position",
          "tokenId": "A staking position token ID"
        }
      },
      "approve(address,uint256)": {
        "details": "Approves another address to transfer the given token ID The zero address indicates there is no approved address. There can only be one approved address per token at a given time. Can only be called by the token owner or an approved operator.",
        "params": {
          "to": "address to be approved for the given token ID",
          "tokenId": "uint256 ID of the token to be approved"
        }
      },
      "balanceOf(address)": {
        "details": "Gets the balance of the specified address.",
        "params": {
          "owner": "address to query the balance of"
        },
        "returns": {
          "_0": "uint256 representing the amount owned by the passed address"
        }
      },
      "baseURI()": {
        "details": "Returns the base URI set via {_setBaseURI}. This will be automatically added as a prefix in {tokenURI} to each token's URI, or to the token ID if no specific URI is set for that token ID."
      },
      "claimableRewards(uint256)": {
        "returns": {
          "rewards": "Amount of rewards denominated in `rewardsToken()`"
        }
      },
      "currentEarnRatePerToken()": {
        "returns": {
          "_0": "Amount of rewards denominated in `rewardsToken().decimals()`."
        }
      },
      "depositAndStake(uint256)": {
        "params": {
          "usdcAmount": "The amount of USDC to deposit into the senior pool. All shares from deposit   will be staked."
        }
      },
      "depositToCurve(uint256,uint256)": {
        "params": {
          "fiduAmount": "The amount of FIDU to deposit",
          "usdcAmount": "The amount of USDC to deposit"
        }
      },
      "depositToCurveAndStakeFrom(address,uint256,uint256)": {
        "params": {
          "fiduAmount": "The amount of FIDU to deposit",
          "usdcAmount": "The amount of USDC to deposit"
        }
      },
      "depositWithPermitAndStake(uint256,uint256,uint8,bytes32,bytes32)": {
        "params": {
          "r": "secp256k1 signature component",
          "s": "secp256k1 signature component",
          "usdcAmount": "The amount of USDC to deposit",
          "v": "secp256k1 signature component"
        }
      },
      "earnedSinceLastCheckpoint(uint256)": {
        "params": {
          "tokenId": "A staking position token ID"
        },
        "returns": {
          "_0": "Amount of rewards denominated in `rewardsToken().decimals()`"
        }
      },
      "getApproved(uint256)": {
        "details": "Gets the approved address for a token ID, or zero if no address set Reverts if the token ID does not exist.",
        "params": {
          "tokenId": "uint256 ID of the token to query the approval of"
        },
        "returns": {
          "_0": "address currently approved for the given token ID"
        }
      },
      "getBaseTokenExchangeRate(uint8)": {
        "params": {
          "positionType": "Type of the staked postion"
        }
      },
      "getPosition(uint256)": {
        "params": {
          "tokenId": "id of the position token"
        },
        "returns": {
          "position": "the position"
        }
      },
      "getReward(uint256)": {
        "params": {
          "tokenId": "A staking position token ID"
        },
        "returns": {
          "_0": "amount of rewards claimed"
        }
      },
      "getRoleAdmin(bytes32)": {
        "details": "Returns the admin role that controls `role`. See {grantRole} and {revokeRole}. To change a role's admin, use {_setRoleAdmin}."
      },
      "getRoleMember(bytes32,uint256)": {
        "details": "Returns one of the accounts that have `role`. `index` must be a value between 0 and {getRoleMemberCount}, non-inclusive. Role bearers are not sorted in any particular way, and their ordering may change at any point. WARNING: When using {getRoleMember} and {getRoleMemberCount}, make sure you perform all queries on the same block. See the following https://forum.openzeppelin.com/t/iterating-over-elements-on-enumerableset-in-openzeppelin-contracts/2296[forum post] for more information."
      },
      "getRoleMemberCount(bytes32)": {
        "details": "Returns the number of accounts that have `role`. Can be used together with {getRoleMember} to enumerate all bearers of a role."
      },
      "grantRole(bytes32,address)": {
        "details": "Grants `role` to `account`. If `account` had not been already granted `role`, emits a {RoleGranted} event. Requirements: - the caller must have ``role``'s admin role."
      },
      "hasRole(bytes32,address)": {
        "details": "Returns `true` if `account` has been granted `role`."
      },
      "isApprovedForAll(address,address)": {
        "details": "Tells whether an operator is approved by a given owner.",
        "params": {
          "operator": "operator address which you want to query the approval of",
          "owner": "owner address which you want to query the approval of"
        },
        "returns": {
          "_0": "bool whether the given operator is approved by the given owner"
        }
      },
      "kick(uint256)": {
        "details": "This will also checkpoint their rewards up to the current time."
      },
      "name()": {
        "details": "Gets the token name.",
        "returns": {
          "_0": "string representing the token name"
        }
      },
      "ownerOf(uint256)": {
        "details": "Gets the owner of the specified token ID.",
        "params": {
          "tokenId": "uint256 ID of the token to query the owner of"
        },
        "returns": {
          "_0": "address currently marked as the owner of the given token ID"
        }
      },
      "pause()": {
        "details": "Pauses all token transfers. See {ERC721Pausable} and {Pausable-_pause}. Requirements: - the caller must have the `PAUSER_ROLE`."
      },
      "paused()": {
        "details": "Returns true if the contract is paused, and false otherwise."
      },
      "positionCurrentEarnRate(uint256)": {
        "returns": {
          "_0": "Amount of rewards denominated in `rewardsToken().decimals()`."
        }
      },
      "renounceRole(bytes32,address)": {
        "details": "Revokes `role` from the calling account. Roles are often managed via {grantRole} and {revokeRole}: this function's purpose is to provide a mechanism for accounts to lose their privileges if they are compromised (such as when a trusted device is misplaced). If the calling account had been granted `role`, emits a {RoleRevoked} event. Requirements: - the caller must be `account`."
      },
      "revokeRole(bytes32,address)": {
        "details": "Revokes `role` from `account`. If `account` had been granted `role`, emits a {RoleRevoked} event. Requirements: - the caller must have ``role``'s admin role."
      },
      "rewardPerToken()": {
        "returns": {
          "_0": "Amount of rewards denominated in `rewardsToken().decimals()`"
        }
      },
      "safeTransferFrom(address,address,uint256)": {
        "details": "Safely transfers the ownership of a given token ID to another address If the target address is a contract, it must implement {IERC721Receiver-onERC721Received}, which is called upon a safe transfer, and return the magic value `bytes4(keccak256(\"onERC721Received(address,address,uint256,bytes)\"))`; otherwise, the transfer is reverted. Requires the msg.sender to be the owner, approved, or operator",
        "params": {
          "from": "current owner of the token",
          "to": "address to receive the ownership of the given token ID",
          "tokenId": "uint256 ID of the token to be transferred"
        }
      },
      "safeTransferFrom(address,address,uint256,bytes)": {
        "details": "Safely transfers the ownership of a given token ID to another address If the target address is a contract, it must implement {IERC721Receiver-onERC721Received}, which is called upon a safe transfer, and return the magic value `bytes4(keccak256(\"onERC721Received(address,address,uint256,bytes)\"))`; otherwise, the transfer is reverted. Requires the _msgSender() to be the owner, approved, or operator",
        "params": {
          "_data": "bytes data to send along with a safe transfer check",
          "from": "current owner of the token",
          "to": "address to receive the ownership of the given token ID",
          "tokenId": "uint256 ID of the token to be transferred"
        }
      },
      "setApprovalForAll(address,bool)": {
        "details": "Sets or unsets the approval of a given operator An operator is allowed to transfer all tokens of the sender on their behalf.",
        "params": {
          "approved": "representing the status of the approval to be set",
          "operator": "operator address to set the approval"
        }
      },
      "setEffectiveMultiplier(uint256,uint8)": {
        "params": {
          "multiplier": "the new multiplier, denominated in `MULTIPLIER_DECIMALS`",
          "positionType": "the type of the position"
        }
      },
      "stake(uint256,uint8)": {
        "details": "This function checkpoints rewards.",
        "params": {
          "amount": "The amount of `stakingToken()` to stake",
          "positionType": "The type of the staked position"
        },
        "returns": {
          "_0": "Id of the NFT representing the staked position"
        }
      },
      "stakedBalanceOf(uint256)": {
        "details": "The value returned is the bare amount, not the effective amount. The bare amount represents   the number of tokens the user has staked for a given position. The effective amount is the bare   amount multiplied by the token's underlying asset type multiplier. This multiplier is a crypto-   economic parameter determined by governance.",
        "params": {
          "tokenId": "A staking position token ID"
        },
        "returns": {
          "_0": "Amount of staked tokens denominated in `stakingToken().decimals()`"
        }
      },
      "supportsInterface(bytes4)": {
        "details": "See {IERC165-supportsInterface}. Time complexity O(1), guaranteed to always use less than 30 000 gas."
      },
      "symbol()": {
        "details": "Gets the token symbol.",
        "returns": {
          "_0": "string representing the token symbol"
        }
      },
      "tokenByIndex(uint256)": {
        "details": "Gets the token ID at a given index of all the tokens in this contract Reverts if the index is greater or equal to the total number of tokens.",
        "params": {
          "index": "uint256 representing the index to be accessed of the tokens list"
        },
        "returns": {
          "_0": "uint256 token ID at the given index of the tokens list"
        }
      },
      "tokenOfOwnerByIndex(address,uint256)": {
        "details": "Gets the token ID at a given index of the tokens list of the requested owner.",
        "params": {
          "index": "uint256 representing the index to be accessed of the requested tokens list",
          "owner": "address owning the tokens list to be accessed"
        },
        "returns": {
          "_0": "uint256 token ID at the given index of the tokens list owned by the requested address"
        }
      },
      "tokenURI(uint256)": {
        "details": "Returns the URI for a given token ID. May return an empty string. If a base URI is set (via {_setBaseURI}), it is added as a prefix to the token's own URI (via {_setTokenURI}). If there is a base URI but no token URI, the token's ID will be used as its URI when appending it to the base URI. This pattern for autogenerated token URIs can lead to large gas savings. .Examples |=== |`_setBaseURI()` |`_setTokenURI()` |`tokenURI()` | \"\" | \"\" | \"\" | \"\" | \"token.uri/123\" | \"token.uri/123\" | \"token.uri/\" | \"123\" | \"token.uri/123\" | \"token.uri/\" | \"\" | \"token.uri/<tokenId>\" |=== Requirements: - `tokenId` must exist."
      },
      "totalSupply()": {
        "details": "Gets the total amount of tokens stored by the contract.",
        "returns": {
          "_0": "uint256 representing the total amount of tokens"
        }
      },
      "totalVestedAt(uint256,uint256,uint256,uint256)": {
        "returns": {
          "rewards": "Amount of rewards denominated in `rewardsToken()`"
        }
      },
      "transferFrom(address,address,uint256)": {
        "details": "Transfers the ownership of a given token ID to another address. Usage of this method is discouraged, use {safeTransferFrom} whenever possible. Requires the msg.sender to be the owner, approved, or operator.",
        "params": {
          "from": "current owner of the token",
          "to": "address to receive the ownership of the given token ID",
          "tokenId": "uint256 ID of the token to be transferred"
        }
      },
      "unpause()": {
        "details": "Unpauses all token transfers. See {ERC721Pausable} and {Pausable-_unpause}. Requirements: - the caller must have the `PAUSER_ROLE`."
      },
      "unstake(uint256,uint256)": {
        "details": "This function checkpoints rewards",
        "params": {
          "amount": "Amount of `stakingToken()` to be unstaked from the position",
          "tokenId": "A staking position token ID"
        }
      },
      "unstakeMultiple(uint256[],uint256[])": {
        "details": "This function checkpoints rewards",
        "params": {
          "amounts": "A list of amounts of `stakingToken()` to be unstaked from the position",
          "tokenIds": "A list of position token IDs"
        }
      },
      "updatePositionEffectiveMultiplier(uint256)": {
        "details": "This will also checkpoint their rewards up to the current time."
      }
    },
    "stateVariables": {
      "effectiveMultipliers": {
        "details": "A mapping of staked position types to multipliers used to denominate positions   in `baseStakingToken()`. Represented with `MULTIPLIER_DECIMALS`."
      },
      "leverageMultipliers": {
        "details": "UNUSED (definition kept for storage slot)"
      },
      "positions": {
        "details": "NFT tokenId => staked position"
      },
      "totalLeveragedStakedSupply": {
        "details": "UNUSED (definition kept for storage slot)"
      },
      "totalStakedSupply": {
        "details": "Supply of staked tokens, denominated in `stakingToken().decimals()`Note that due to the use of `unsafeBaseTokenExchangeRate` and `unsafeEffectiveMultiplier` on a StakedPosition, the sum of `amount` across all staked positions will not necessarily equal this `totalStakedSupply` value; the purpose of the base token exchange rate and the effective multiplier is to enable calculation of an \"effective amount\" -- which is what this `totalStakedSupply` represents the sum of."
      },
      "vestingLength": {
        "details": "UNUSED (definition kept for storage slot)"
      }
    },
    "version": 1
  },
  "userdoc": {
    "kind": "user",
    "methods": {
      "accumulatedRewardsPerToken()": {
        "notice": "Accumulated rewards per token at the last checkpoint"
      },
      "addToStake(uint256,uint256)": {
        "notice": "Add `amount` to an existing FIDU position (`tokenId`)"
      },
      "claimableRewards(uint256)": {
        "notice": "Returns the rewards claimable by a given position token at the most recent checkpoint, taking into   account vesting schedule for legacy positions."
      },
      "currentEarnRatePerToken()": {
        "notice": "The amount of rewards currently being earned per token per second. This amount takes into   account how many rewards are actually available for disbursal -- unlike `rewardRate()` which does not.   This function is intended for public consumption, to know the rate at which rewards are being   earned, and not as an input to the mutative calculations in this contract."
      },
      "depositAndStake(uint256)": {
        "notice": "Deposit to SeniorPool and stake your shares in the same transaction."
      },
      "depositToCurve(uint256,uint256)": {
        "notice": "Deposits FIDU and USDC to Curve on behalf of the user. The Curve LP tokens will be minted   directly to the user's address"
      },
      "depositToCurveAndStakeFrom(address,uint256,uint256)": {
        "notice": "Deposit to FIDU and USDC into the Curve LP, and stake your Curve LP tokens in the same transaction."
      },
      "depositWithPermitAndStake(uint256,uint256,uint8,bytes32,bytes32)": {
        "notice": "Identical to `depositAndStake`, except it allows for a signature to be passed that permits   this contract to move funds on behalf of the user."
      },
      "earnedSinceLastCheckpoint(uint256)": {
        "notice": "Returns rewards earned by a given position token from its last checkpoint up to the   current block timestamp."
      },
      "getBaseTokenExchangeRate(uint8)": {
        "notice": "Calculate the exchange rate that will be used to convert the original staked token amount to the   `baseStakingToken()` amount. The exchange rate is denominated in `MULTIPLIER_DECIMALS`."
      },
      "getEffectiveMultiplierForPositionType(uint8)": {
        "notice": "The effective multiplier to use with new staked positions of the provided `positionType`,   for denominating them in terms of `baseStakingToken()`. This value is denominated in `MULTIPLIER_DECIMALS`."
      },
      "getPosition(uint256)": {
        "notice": "Get the staking rewards position"
      },
      "getReward(uint256)": {
        "notice": "Claim rewards for a given staked position"
      },
      "kick(uint256)": {
        "notice": "\"Kick\" a user's reward multiplier. If they are past their lock-up period, their reward   multiplier will be reset to 1x."
      },
      "lastUpdateTime()": {
        "notice": "The block timestamp when rewards were last checkpointed"
      },
      "loadRewards(uint256)": {
        "notice": "Transfer rewards from msg.sender, to be used for reward distribution"
      },
      "maxRate()": {
        "notice": "The maximum total disbursed rewards per second, denominated in `rewardsToken()`"
      },
      "maxRateAtPercent()": {
        "notice": "The percent of `targetCapacity` at which the reward rate reaches `maxRate`.  Represented with `MULTIPLIER_DECIMALS`."
      },
      "minRate()": {
        "notice": "The minimum total disbursed rewards per second, denominated in `rewardsToken()`"
      },
      "minRateAtPercent()": {
        "notice": "The percent of `targetCapacity` at which the reward rate reaches `minRate`.  Represented with `MULTIPLIER_DECIMALS`."
      },
      "positionCurrentEarnRate(uint256)": {
        "notice": "The amount of rewards currently being earned per second, for a given position. This function   is intended for public consumption, to know the rate at which rewards are being earned   for a given position, and not as an input to the mutative calculations in this contract."
      },
      "positionToAccumulatedRewardsPerToken(uint256)": {
        "notice": "StakedPosition tokenId => accumulatedRewardsPerToken at the position's last checkpoint"
      },
      "rewardPerToken()": {
        "notice": "Returns accumulated rewards per token up to the current block timestamp"
      },
      "rewardsAvailable()": {
        "notice": "Total rewards available for disbursement at the last checkpoint, denominated in `rewardsToken()`"
      },
      "setEffectiveMultiplier(uint256,uint8)": {
        "notice": "Set the effective multiplier for a given staked position type. The effective multipler  is used to denominate a staked position to `baseStakingToken()`. The multiplier is represented in  `MULTIPLIER_DECIMALS`"
      },
      "stake(uint256,uint8)": {
        "notice": "Stake `stakingToken()` to earn rewards. When you call this function, you'll receive an   an NFT representing your staked position. You can present your NFT to `getReward` or `unstake`   to claim rewards or unstake your tokens respectively."
      },
      "stakedBalanceOf(uint256)": {
        "notice": "Returns the staked balance of a given position token."
      },
      "targetCapacity()": {
        "notice": "Desired supply of staked tokens. The reward rate adjusts in a range   around this value to incentivize staking or unstaking to maintain it."
      },
      "totalVestedAt(uint256,uint256,uint256,uint256)": {
        "notice": "Returns the rewards that will have vested for some position with the given params."
      },
      "unstake(uint256,uint256)": {
        "notice": "Unstake an amount of `stakingToken()` (FIDU, FiduUSDCCurveLP, etc) associated with   a given position and transfer to msg.sender. Any remaining staked amount will continue to   accrue rewards."
      },
      "unstakeMultiple(uint256[],uint256[])": {
        "notice": "Unstake multiple positions and transfer to msg.sender."
      },
      "updatePositionEffectiveMultiplier(uint256)": {
        "notice": "Updates a user's effective multiplier to the prevailing multiplier. This function gives   users an option to get on a higher multiplier without needing to unstake."
      },
      "vestingLength()": {
        "notice": "The duration in seconds over which legacy rewards vest. New positions have no vesting  and earn rewards immediately."
      }
    },
    "version": 1
  },
  "storageLayout": {
    "storage": [
      {
        "astId": 50,
        "contract": "contracts/rewards/StakingRewards.sol:StakingRewards",
        "label": "initialized",
        "offset": 0,
        "slot": "0",
        "type": "t_bool"
      },
      {
        "astId": 53,
        "contract": "contracts/rewards/StakingRewards.sol:StakingRewards",
        "label": "initializing",
        "offset": 1,
        "slot": "0",
        "type": "t_bool"
      },
      {
        "astId": 118,
        "contract": "contracts/rewards/StakingRewards.sol:StakingRewards",
        "label": "______gap",
        "offset": 0,
        "slot": "1",
        "type": "t_array(t_uint256)50_storage"
      },
      {
        "astId": 43,
        "contract": "contracts/rewards/StakingRewards.sol:StakingRewards",
        "label": "__gap",
        "offset": 0,
        "slot": "51",
        "type": "t_array(t_uint256)50_storage"
      },
      {
        "astId": 163,
        "contract": "contracts/rewards/StakingRewards.sol:StakingRewards",
        "label": "_roles",
        "offset": 0,
        "slot": "101",
        "type": "t_mapping(t_bytes32,t_struct(RoleData)159_storage)"
      },
      {
        "astId": 408,
        "contract": "contracts/rewards/StakingRewards.sol:StakingRewards",
        "label": "__gap",
        "offset": 0,
        "slot": "102",
        "type": "t_array(t_uint256)49_storage"
      },
      {
        "astId": 6986,
        "contract": "contracts/rewards/StakingRewards.sol:StakingRewards",
        "label": "_supportedInterfaces",
        "offset": 0,
        "slot": "151",
        "type": "t_mapping(t_bytes4,t_bool)"
      },
      {
        "astId": 7043,
        "contract": "contracts/rewards/StakingRewards.sol:StakingRewards",
        "label": "__gap",
        "offset": 0,
        "slot": "152",
        "type": "t_array(t_uint256)49_storage"
      },
      {
        "astId": 7093,
        "contract": "contracts/rewards/StakingRewards.sol:StakingRewards",
        "label": "_holderTokens",
        "offset": 0,
        "slot": "201",
        "type": "t_mapping(t_address,t_struct(UintSet)3021_storage)"
      },
      {
        "astId": 7095,
        "contract": "contracts/rewards/StakingRewards.sol:StakingRewards",
        "label": "_tokenOwners",
        "offset": 0,
        "slot": "202",
        "type": "t_struct(UintToAddressMap)2546_storage"
      },
      {
        "astId": 7099,
        "contract": "contracts/rewards/StakingRewards.sol:StakingRewards",
        "label": "_tokenApprovals",
        "offset": 0,
        "slot": "204",
        "type": "t_mapping(t_uint256,t_address)"
      },
      {
        "astId": 7105,
        "contract": "contracts/rewards/StakingRewards.sol:StakingRewards",
        "label": "_operatorApprovals",
        "offset": 0,
        "slot": "205",
        "type": "t_mapping(t_address,t_mapping(t_address,t_bool))"
      },
      {
        "astId": 7107,
        "contract": "contracts/rewards/StakingRewards.sol:StakingRewards",
        "label": "_name",
        "offset": 0,
        "slot": "206",
        "type": "t_string_storage"
      },
      {
        "astId": 7109,
        "contract": "contracts/rewards/StakingRewards.sol:StakingRewards",
        "label": "_symbol",
        "offset": 0,
        "slot": "207",
        "type": "t_string_storage"
      },
      {
        "astId": 7113,
        "contract": "contracts/rewards/StakingRewards.sol:StakingRewards",
        "label": "_tokenURIs",
        "offset": 0,
        "slot": "208",
        "type": "t_mapping(t_uint256,t_string_storage)"
      },
      {
        "astId": 7115,
        "contract": "contracts/rewards/StakingRewards.sol:StakingRewards",
        "label": "_baseURI",
        "offset": 0,
        "slot": "209",
        "type": "t_string_storage"
      },
      {
        "astId": 8021,
        "contract": "contracts/rewards/StakingRewards.sol:StakingRewards",
        "label": "__gap",
        "offset": 0,
        "slot": "210",
        "type": "t_array(t_uint256)41_storage"
      },
      {
        "astId": 3137,
        "contract": "contracts/rewards/StakingRewards.sol:StakingRewards",
        "label": "_paused",
        "offset": 0,
        "slot": "251",
        "type": "t_bool"
      },
      {
        "astId": 3226,
        "contract": "contracts/rewards/StakingRewards.sol:StakingRewards",
        "label": "__gap",
        "offset": 0,
        "slot": "252",
        "type": "t_array(t_uint256)49_storage"
      },
      {
        "astId": 8089,
        "contract": "contracts/rewards/StakingRewards.sol:StakingRewards",
        "label": "__gap",
        "offset": 0,
        "slot": "301",
        "type": "t_array(t_uint256)50_storage"
      },
      {
        "astId": 8121,
        "contract": "contracts/rewards/StakingRewards.sol:StakingRewards",
        "label": "_tokenIdTracker",
        "offset": 0,
        "slot": "351",
        "type": "t_struct(Counter)2226_storage"
      },
      {
        "astId": 8179,
        "contract": "contracts/rewards/StakingRewards.sol:StakingRewards",
        "label": "__gap",
        "offset": 0,
        "slot": "352",
        "type": "t_array(t_uint256)49_storage"
      },
      {
        "astId": 3235,
        "contract": "contracts/rewards/StakingRewards.sol:StakingRewards",
        "label": "_notEntered",
        "offset": 0,
        "slot": "401",
        "type": "t_bool"
      },
      {
        "astId": 3276,
        "contract": "contracts/rewards/StakingRewards.sol:StakingRewards",
        "label": "__gap",
        "offset": 0,
        "slot": "402",
        "type": "t_array(t_uint256)49_storage"
      },
      {
        "astId": 31697,
        "contract": "contracts/rewards/StakingRewards.sol:StakingRewards",
        "label": "config",
        "offset": 0,
        "slot": "451",
        "type": "t_contract(GoldfinchConfig)17191"
      },
      {
        "astId": 31701,
        "contract": "contracts/rewards/StakingRewards.sol:StakingRewards",
        "label": "lastUpdateTime",
        "offset": 0,
        "slot": "452",
        "type": "t_uint256"
      },
      {
        "astId": 31705,
        "contract": "contracts/rewards/StakingRewards.sol:StakingRewards",
        "label": "accumulatedRewardsPerToken",
        "offset": 0,
        "slot": "453",
        "type": "t_uint256"
      },
      {
        "astId": 31708,
        "contract": "contracts/rewards/StakingRewards.sol:StakingRewards",
        "label": "rewardsAvailable",
        "offset": 0,
        "slot": "454",
        "type": "t_uint256"
      },
      {
        "astId": 31713,
        "contract": "contracts/rewards/StakingRewards.sol:StakingRewards",
        "label": "positionToAccumulatedRewardsPerToken",
        "offset": 0,
        "slot": "455",
        "type": "t_mapping(t_uint256,t_uint256)"
      },
      {
        "astId": 31716,
        "contract": "contracts/rewards/StakingRewards.sol:StakingRewards",
        "label": "targetCapacity",
        "offset": 0,
        "slot": "456",
        "type": "t_uint256"
      },
      {
        "astId": 31719,
        "contract": "contracts/rewards/StakingRewards.sol:StakingRewards",
        "label": "minRate",
        "offset": 0,
        "slot": "457",
        "type": "t_uint256"
      },
      {
        "astId": 31722,
        "contract": "contracts/rewards/StakingRewards.sol:StakingRewards",
        "label": "maxRate",
        "offset": 0,
        "slot": "458",
        "type": "t_uint256"
      },
      {
        "astId": 31725,
        "contract": "contracts/rewards/StakingRewards.sol:StakingRewards",
        "label": "maxRateAtPercent",
        "offset": 0,
        "slot": "459",
        "type": "t_uint256"
      },
      {
        "astId": 31728,
        "contract": "contracts/rewards/StakingRewards.sol:StakingRewards",
        "label": "minRateAtPercent",
        "offset": 0,
        "slot": "460",
        "type": "t_uint256"
      },
      {
        "astId": 31731,
        "contract": "contracts/rewards/StakingRewards.sol:StakingRewards",
        "label": "vestingLength",
        "offset": 0,
        "slot": "461",
        "type": "t_uint256"
      },
      {
        "astId": 31734,
        "contract": "contracts/rewards/StakingRewards.sol:StakingRewards",
        "label": "totalStakedSupply",
        "offset": 0,
        "slot": "462",
        "type": "t_uint256"
      },
      {
        "astId": 31737,
        "contract": "contracts/rewards/StakingRewards.sol:StakingRewards",
        "label": "totalLeveragedStakedSupply",
        "offset": 0,
        "slot": "463",
        "type": "t_uint256"
      },
      {
        "astId": 31742,
        "contract": "contracts/rewards/StakingRewards.sol:StakingRewards",
        "label": "leverageMultipliers",
        "offset": 0,
        "slot": "464",
        "type": "t_mapping(t_enum(LockupPeriod)31684,t_uint256)"
      },
      {
        "astId": 31747,
        "contract": "contracts/rewards/StakingRewards.sol:StakingRewards",
        "label": "positions",
        "offset": 0,
        "slot": "465",
        "type": "t_mapping(t_uint256,t_struct(StakedPosition)11389_storage)"
      },
      {
        "astId": 31752,
        "contract": "contracts/rewards/StakingRewards.sol:StakingRewards",
        "label": "effectiveMultipliers",
        "offset": 0,
        "slot": "466",
        "type": "t_mapping(t_enum(StakedPositionType)11361,t_uint256)"
      }
    ],
    "types": {
      "t_address": {
        "encoding": "inplace",
        "label": "address",
        "numberOfBytes": "20"
      },
      "t_array(t_bytes32)dyn_storage": {
        "base": "t_bytes32",
        "encoding": "dynamic_array",
        "label": "bytes32[]",
        "numberOfBytes": "32"
      },
      "t_array(t_struct(MapEntry)2274_storage)dyn_storage": {
        "base": "t_struct(MapEntry)2274_storage",
        "encoding": "dynamic_array",
        "label": "struct EnumerableMap.MapEntry[]",
        "numberOfBytes": "32"
      },
      "t_array(t_uint256)41_storage": {
        "base": "t_uint256",
        "encoding": "inplace",
        "label": "uint256[41]",
        "numberOfBytes": "1312"
      },
      "t_array(t_uint256)49_storage": {
        "base": "t_uint256",
        "encoding": "inplace",
        "label": "uint256[49]",
        "numberOfBytes": "1568"
      },
      "t_array(t_uint256)50_storage": {
        "base": "t_uint256",
        "encoding": "inplace",
        "label": "uint256[50]",
        "numberOfBytes": "1600"
      },
      "t_bool": {
        "encoding": "inplace",
        "label": "bool",
        "numberOfBytes": "1"
      },
      "t_bytes32": {
        "encoding": "inplace",
        "label": "bytes32",
        "numberOfBytes": "32"
      },
      "t_bytes4": {
        "encoding": "inplace",
        "label": "bytes4",
        "numberOfBytes": "4"
      },
      "t_contract(GoldfinchConfig)17191": {
        "encoding": "inplace",
        "label": "contract GoldfinchConfig",
        "numberOfBytes": "20"
      },
      "t_enum(LockupPeriod)31684": {
        "encoding": "inplace",
        "label": "enum StakingRewards.LockupPeriod",
        "numberOfBytes": "1"
      },
      "t_enum(StakedPositionType)11361": {
        "encoding": "inplace",
        "label": "enum StakedPositionType",
        "numberOfBytes": "1"
      },
      "t_mapping(t_address,t_bool)": {
        "encoding": "mapping",
        "key": "t_address",
        "label": "mapping(address => bool)",
        "numberOfBytes": "32",
        "value": "t_bool"
      },
      "t_mapping(t_address,t_mapping(t_address,t_bool))": {
        "encoding": "mapping",
        "key": "t_address",
        "label": "mapping(address => mapping(address => bool))",
        "numberOfBytes": "32",
        "value": "t_mapping(t_address,t_bool)"
      },
      "t_mapping(t_address,t_struct(UintSet)3021_storage)": {
        "encoding": "mapping",
        "key": "t_address",
        "label": "mapping(address => struct EnumerableSet.UintSet)",
        "numberOfBytes": "32",
        "value": "t_struct(UintSet)3021_storage"
      },
      "t_mapping(t_bytes32,t_struct(RoleData)159_storage)": {
        "encoding": "mapping",
        "key": "t_bytes32",
        "label": "mapping(bytes32 => struct AccessControlUpgradeSafe.RoleData)",
        "numberOfBytes": "32",
        "value": "t_struct(RoleData)159_storage"
      },
      "t_mapping(t_bytes32,t_uint256)": {
        "encoding": "mapping",
        "key": "t_bytes32",
        "label": "mapping(bytes32 => uint256)",
        "numberOfBytes": "32",
        "value": "t_uint256"
      },
      "t_mapping(t_bytes4,t_bool)": {
        "encoding": "mapping",
        "key": "t_bytes4",
        "label": "mapping(bytes4 => bool)",
        "numberOfBytes": "32",
        "value": "t_bool"
      },
      "t_mapping(t_enum(LockupPeriod)31684,t_uint256)": {
        "encoding": "mapping",
        "key": "t_enum(LockupPeriod)31684",
        "label": "mapping(enum StakingRewards.LockupPeriod => uint256)",
        "numberOfBytes": "32",
        "value": "t_uint256"
      },
      "t_mapping(t_enum(StakedPositionType)11361,t_uint256)": {
        "encoding": "mapping",
        "key": "t_enum(StakedPositionType)11361",
        "label": "mapping(enum StakedPositionType => uint256)",
        "numberOfBytes": "32",
        "value": "t_uint256"
      },
      "t_mapping(t_uint256,t_address)": {
        "encoding": "mapping",
        "key": "t_uint256",
        "label": "mapping(uint256 => address)",
        "numberOfBytes": "32",
        "value": "t_address"
      },
      "t_mapping(t_uint256,t_string_storage)": {
        "encoding": "mapping",
        "key": "t_uint256",
        "label": "mapping(uint256 => string)",
        "numberOfBytes": "32",
        "value": "t_string_storage"
      },
      "t_mapping(t_uint256,t_struct(StakedPosition)11389_storage)": {
        "encoding": "mapping",
        "key": "t_uint256",
        "label": "mapping(uint256 => struct StakedPosition)",
        "numberOfBytes": "32",
        "value": "t_struct(StakedPosition)11389_storage"
      },
      "t_mapping(t_uint256,t_uint256)": {
        "encoding": "mapping",
        "key": "t_uint256",
        "label": "mapping(uint256 => uint256)",
        "numberOfBytes": "32",
        "value": "t_uint256"
      },
      "t_string_storage": {
        "encoding": "bytes",
        "label": "string",
        "numberOfBytes": "32"
      },
      "t_struct(AddressSet)2912_storage": {
        "encoding": "inplace",
        "label": "struct EnumerableSet.AddressSet",
        "members": [
          {
            "astId": 2911,
            "contract": "contracts/rewards/StakingRewards.sol:StakingRewards",
            "label": "_inner",
            "offset": 0,
            "slot": "0",
            "type": "t_struct(Set)2732_storage"
          }
        ],
        "numberOfBytes": "64"
      },
      "t_struct(Counter)2226_storage": {
        "encoding": "inplace",
        "label": "struct Counters.Counter",
        "members": [
          {
            "astId": 2225,
            "contract": "contracts/rewards/StakingRewards.sol:StakingRewards",
            "label": "_value",
            "offset": 0,
            "slot": "0",
            "type": "t_uint256"
          }
        ],
        "numberOfBytes": "32"
      },
      "t_struct(Map)2282_storage": {
        "encoding": "inplace",
        "label": "struct EnumerableMap.Map",
        "members": [
          {
            "astId": 2277,
            "contract": "contracts/rewards/StakingRewards.sol:StakingRewards",
            "label": "_entries",
            "offset": 0,
            "slot": "0",
            "type": "t_array(t_struct(MapEntry)2274_storage)dyn_storage"
          },
          {
            "astId": 2281,
            "contract": "contracts/rewards/StakingRewards.sol:StakingRewards",
            "label": "_indexes",
            "offset": 0,
            "slot": "1",
            "type": "t_mapping(t_bytes32,t_uint256)"
          }
        ],
        "numberOfBytes": "64"
      },
      "t_struct(MapEntry)2274_storage": {
        "encoding": "inplace",
        "label": "struct EnumerableMap.MapEntry",
        "members": [
          {
            "astId": 2271,
            "contract": "contracts/rewards/StakingRewards.sol:StakingRewards",
            "label": "_key",
            "offset": 0,
            "slot": "0",
            "type": "t_bytes32"
          },
          {
            "astId": 2273,
            "contract": "contracts/rewards/StakingRewards.sol:StakingRewards",
            "label": "_value",
            "offset": 0,
            "slot": "1",
            "type": "t_bytes32"
          }
        ],
        "numberOfBytes": "64"
      },
      "t_struct(Rewards)11374_storage": {
        "encoding": "inplace",
        "label": "struct Rewards",
        "members": [
          {
            "astId": 11363,
            "contract": "contracts/rewards/StakingRewards.sol:StakingRewards",
            "label": "totalUnvested",
            "offset": 0,
            "slot": "0",
            "type": "t_uint256"
          },
          {
            "astId": 11365,
            "contract": "contracts/rewards/StakingRewards.sol:StakingRewards",
            "label": "totalVested",
            "offset": 0,
            "slot": "1",
            "type": "t_uint256"
          },
          {
            "astId": 11367,
            "contract": "contracts/rewards/StakingRewards.sol:StakingRewards",
            "label": "totalPreviouslyVested",
            "offset": 0,
            "slot": "2",
            "type": "t_uint256"
          },
          {
            "astId": 11369,
            "contract": "contracts/rewards/StakingRewards.sol:StakingRewards",
            "label": "totalClaimed",
            "offset": 0,
            "slot": "3",
            "type": "t_uint256"
          },
          {
            "astId": 11371,
            "contract": "contracts/rewards/StakingRewards.sol:StakingRewards",
            "label": "startTime",
            "offset": 0,
            "slot": "4",
            "type": "t_uint256"
          },
          {
            "astId": 11373,
            "contract": "contracts/rewards/StakingRewards.sol:StakingRewards",
            "label": "endTime",
            "offset": 0,
            "slot": "5",
            "type": "t_uint256"
          }
        ],
        "numberOfBytes": "192"
      },
      "t_struct(RoleData)159_storage": {
        "encoding": "inplace",
        "label": "struct AccessControlUpgradeSafe.RoleData",
        "members": [
          {
            "astId": 156,
            "contract": "contracts/rewards/StakingRewards.sol:StakingRewards",
            "label": "members",
            "offset": 0,
            "slot": "0",
            "type": "t_struct(AddressSet)2912_storage"
          },
          {
            "astId": 158,
            "contract": "contracts/rewards/StakingRewards.sol:StakingRewards",
            "label": "adminRole",
            "offset": 0,
            "slot": "2",
            "type": "t_bytes32"
          }
        ],
        "numberOfBytes": "96"
      },
      "t_struct(Set)2732_storage": {
        "encoding": "inplace",
        "label": "struct EnumerableSet.Set",
        "members": [
          {
            "astId": 2727,
            "contract": "contracts/rewards/StakingRewards.sol:StakingRewards",
            "label": "_values",
            "offset": 0,
            "slot": "0",
            "type": "t_array(t_bytes32)dyn_storage"
          },
          {
            "astId": 2731,
            "contract": "contracts/rewards/StakingRewards.sol:StakingRewards",
            "label": "_indexes",
            "offset": 0,
            "slot": "1",
            "type": "t_mapping(t_bytes32,t_uint256)"
          }
        ],
        "numberOfBytes": "64"
      },
      "t_struct(StakedPosition)11389_storage": {
        "encoding": "inplace",
        "label": "struct StakedPosition",
        "members": [
          {
            "astId": 11376,
            "contract": "contracts/rewards/StakingRewards.sol:StakingRewards",
            "label": "amount",
            "offset": 0,
            "slot": "0",
            "type": "t_uint256"
          },
          {
            "astId": 11378,
            "contract": "contracts/rewards/StakingRewards.sol:StakingRewards",
            "label": "rewards",
            "offset": 0,
            "slot": "1",
            "type": "t_struct(Rewards)11374_storage"
          },
          {
            "astId": 11380,
            "contract": "contracts/rewards/StakingRewards.sol:StakingRewards",
            "label": "leverageMultiplier",
            "offset": 0,
            "slot": "7",
            "type": "t_uint256"
          },
          {
            "astId": 11382,
            "contract": "contracts/rewards/StakingRewards.sol:StakingRewards",
            "label": "lockedUntil",
            "offset": 0,
            "slot": "8",
            "type": "t_uint256"
          },
          {
            "astId": 11384,
            "contract": "contracts/rewards/StakingRewards.sol:StakingRewards",
            "label": "positionType",
            "offset": 0,
            "slot": "9",
            "type": "t_enum(StakedPositionType)11361"
          },
          {
            "astId": 11386,
            "contract": "contracts/rewards/StakingRewards.sol:StakingRewards",
            "label": "unsafeEffectiveMultiplier",
            "offset": 0,
            "slot": "10",
            "type": "t_uint256"
          },
          {
            "astId": 11388,
            "contract": "contracts/rewards/StakingRewards.sol:StakingRewards",
            "label": "unsafeBaseTokenExchangeRate",
            "offset": 0,
            "slot": "11",
            "type": "t_uint256"
          }
        ],
        "numberOfBytes": "384"
      },
      "t_struct(UintSet)3021_storage": {
        "encoding": "inplace",
        "label": "struct EnumerableSet.UintSet",
        "members": [
          {
            "astId": 3020,
            "contract": "contracts/rewards/StakingRewards.sol:StakingRewards",
            "label": "_inner",
            "offset": 0,
            "slot": "0",
            "type": "t_struct(Set)2732_storage"
          }
        ],
        "numberOfBytes": "64"
      },
      "t_struct(UintToAddressMap)2546_storage": {
        "encoding": "inplace",
        "label": "struct EnumerableMap.UintToAddressMap",
        "members": [
          {
            "astId": 2545,
            "contract": "contracts/rewards/StakingRewards.sol:StakingRewards",
            "label": "_inner",
            "offset": 0,
            "slot": "0",
            "type": "t_struct(Map)2282_storage"
          }
        ],
        "numberOfBytes": "64"
      },
      "t_uint256": {
        "encoding": "inplace",
        "label": "uint256",
        "numberOfBytes": "32"
      }
    }
  }
}