{
  "address": "0xfC5520eb0D0C88EFE6a6eA0097A234D06A754987",
  "abi": [
    {
      "anonymous": false,
      "inputs": [
        {
          "indexed": true,
          "internalType": "address",
          "name": "user",
          "type": "address"
        },
        {
          "indexed": true,
          "internalType": "uint256",
          "name": "tokenId",
          "type": "uint256"
        },
        {
          "indexed": false,
          "internalType": "uint256",
          "name": "amount",
          "type": "uint256"
        },
        {
          "indexed": false,
          "internalType": "enum StakedPositionType",
          "name": "positionType",
          "type": "uint8"
        }
      ],
      "name": "AddToStake",
      "type": "event"
    },
    {
      "anonymous": false,
      "inputs": [
        {
          "indexed": true,
          "internalType": "address",
          "name": "owner",
          "type": "address"
        },
        {
          "indexed": true,
          "internalType": "address",
          "name": "approved",
          "type": "address"
        },
        {
          "indexed": true,
          "internalType": "uint256",
          "name": "tokenId",
          "type": "uint256"
        }
      ],
      "name": "Approval",
      "type": "event"
    },
    {
      "anonymous": false,
      "inputs": [
        {
          "indexed": true,
          "internalType": "address",
          "name": "owner",
          "type": "address"
        },
        {
          "indexed": true,
          "internalType": "address",
          "name": "operator",
          "type": "address"
        },
        {
          "indexed": false,
          "internalType": "bool",
          "name": "approved",
          "type": "bool"
        }
      ],
      "name": "ApprovalForAll",
      "type": "event"
    },
    {
      "anonymous": false,
      "inputs": [
        {
          "indexed": true,
          "internalType": "address",
          "name": "user",
          "type": "address"
        },
        {
          "indexed": false,
          "internalType": "uint256",
          "name": "depositedAmount",
          "type": "uint256"
        },
        {
          "indexed": true,
          "internalType": "uint256",
          "name": "tokenId",
          "type": "uint256"
        },
        {
          "indexed": false,
          "internalType": "uint256",
          "name": "amount",
          "type": "uint256"
        }
      ],
      "name": "DepositedAndStaked",
      "type": "event"
    },
    {
      "anonymous": false,
      "inputs": [
        {
          "indexed": true,
          "internalType": "address",
          "name": "user",
          "type": "address"
        },
        {
          "indexed": false,
          "internalType": "uint256",
          "name": "fiduAmount",
          "type": "uint256"
        },
        {
          "indexed": false,
          "internalType": "uint256",
          "name": "usdcAmount",
          "type": "uint256"
        },
        {
          "indexed": false,
          "internalType": "uint256",
          "name": "tokensReceived",
          "type": "uint256"
        }
      ],
      "name": "DepositedToCurve",
      "type": "event"
    },
    {
      "anonymous": false,
      "inputs": [
        {
          "indexed": true,
          "internalType": "address",
          "name": "user",
          "type": "address"
        },
        {
          "indexed": false,
          "internalType": "uint256",
          "name": "fiduAmount",
          "type": "uint256"
        },
        {
          "indexed": false,
          "internalType": "uint256",
          "name": "usdcAmount",
          "type": "uint256"
        },
        {
          "indexed": true,
          "internalType": "uint256",
          "name": "tokenId",
          "type": "uint256"
        },
        {
          "indexed": false,
          "internalType": "uint256",
          "name": "amount",
          "type": "uint256"
        }
      ],
      "name": "DepositedToCurveAndStaked",
      "type": "event"
    },
    {
      "anonymous": false,
      "inputs": [
        {
          "indexed": true,
          "internalType": "address",
          "name": "who",
          "type": "address"
        },
        {
          "indexed": false,
          "internalType": "enum StakedPositionType",
          "name": "positionType",
          "type": "uint8"
        },
        {
          "indexed": false,
          "internalType": "uint256",
          "name": "multiplier",
          "type": "uint256"
        }
      ],
      "name": "EffectiveMultiplierUpdated",
      "type": "event"
    },
    {
      "anonymous": false,
      "inputs": [
        {
          "indexed": false,
          "internalType": "address",
          "name": "account",
          "type": "address"
        }
      ],
      "name": "Paused",
      "type": "event"
    },
    {
      "anonymous": false,
      "inputs": [
        {
          "indexed": false,
          "internalType": "uint256",
          "name": "reward",
          "type": "uint256"
        }
      ],
      "name": "RewardAdded",
      "type": "event"
    },
    {
      "anonymous": false,
      "inputs": [
        {
          "indexed": true,
          "internalType": "address",
          "name": "user",
          "type": "address"
        },
        {
          "indexed": true,
          "internalType": "uint256",
          "name": "tokenId",
          "type": "uint256"
        },
        {
          "indexed": false,
          "internalType": "uint256",
          "name": "reward",
          "type": "uint256"
        }
      ],
      "name": "RewardPaid",
      "type": "event"
    },
    {
      "anonymous": false,
      "inputs": [
        {
          "indexed": true,
          "internalType": "address",
          "name": "who",
          "type": "address"
        },
        {
          "indexed": false,
          "internalType": "uint256",
          "name": "targetCapacity",
          "type": "uint256"
        },
        {
          "indexed": false,
          "internalType": "uint256",
          "name": "minRate",
          "type": "uint256"
        },
        {
          "indexed": false,
          "internalType": "uint256",
          "name": "maxRate",
          "type": "uint256"
        },
        {
          "indexed": false,
          "internalType": "uint256",
          "name": "minRateAtPercent",
          "type": "uint256"
        },
        {
          "indexed": false,
          "internalType": "uint256",
          "name": "maxRateAtPercent",
          "type": "uint256"
        }
      ],
      "name": "RewardsParametersUpdated",
      "type": "event"
    },
    {
      "anonymous": false,
      "inputs": [
        {
          "indexed": true,
          "internalType": "bytes32",
          "name": "role",
          "type": "bytes32"
        },
        {
          "indexed": true,
          "internalType": "address",
          "name": "account",
          "type": "address"
        },
        {
          "indexed": true,
          "internalType": "address",
          "name": "sender",
          "type": "address"
        }
      ],
      "name": "RoleGranted",
      "type": "event"
    },
    {
      "anonymous": false,
      "inputs": [
        {
          "indexed": true,
          "internalType": "bytes32",
          "name": "role",
          "type": "bytes32"
        },
        {
          "indexed": true,
          "internalType": "address",
          "name": "account",
          "type": "address"
        },
        {
          "indexed": true,
          "internalType": "address",
          "name": "sender",
          "type": "address"
        }
      ],
      "name": "RoleRevoked",
      "type": "event"
    },
    {
      "anonymous": false,
      "inputs": [
        {
          "indexed": true,
          "internalType": "address",
          "name": "user",
          "type": "address"
        },
        {
          "indexed": true,
          "internalType": "uint256",
          "name": "tokenId",
          "type": "uint256"
        },
        {
          "indexed": false,
          "internalType": "uint256",
          "name": "amount",
          "type": "uint256"
        },
        {
          "indexed": false,
          "internalType": "enum StakedPositionType",
          "name": "positionType",
          "type": "uint8"
        },
        {
          "indexed": false,
          "internalType": "uint256",
          "name": "baseTokenExchangeRate",
          "type": "uint256"
        }
      ],
      "name": "Staked",
      "type": "event"
    },
    {
      "anonymous": false,
      "inputs": [
        {
          "indexed": true,
          "internalType": "address",
          "name": "from",
          "type": "address"
        },
        {
          "indexed": true,
          "internalType": "address",
          "name": "to",
          "type": "address"
        },
        {
          "indexed": true,
          "internalType": "uint256",
          "name": "tokenId",
          "type": "uint256"
        }
      ],
      "name": "Transfer",
      "type": "event"
    },
    {
      "anonymous": false,
      "inputs": [
        {
          "indexed": false,
          "internalType": "address",
          "name": "account",
          "type": "address"
        }
      ],
      "name": "Unpaused",
      "type": "event"
    },
    {
      "anonymous": false,
      "inputs": [
        {
          "indexed": true,
          "internalType": "address",
          "name": "user",
          "type": "address"
        },
        {
          "indexed": true,
          "internalType": "uint256",
          "name": "tokenId",
          "type": "uint256"
        },
        {
          "indexed": false,
          "internalType": "uint256",
          "name": "amount",
          "type": "uint256"
        },
        {
          "indexed": false,
          "internalType": "enum StakedPositionType",
          "name": "positionType",
          "type": "uint8"
        }
      ],
      "name": "Unstaked",
      "type": "event"
    },
    {
      "anonymous": false,
      "inputs": [
        {
          "indexed": true,
          "internalType": "address",
          "name": "user",
          "type": "address"
        },
        {
          "indexed": false,
          "internalType": "uint256[]",
          "name": "tokenIds",
          "type": "uint256[]"
        },
        {
          "indexed": false,
          "internalType": "uint256[]",
          "name": "amounts",
          "type": "uint256[]"
        }
      ],
      "name": "UnstakedMultiple",
      "type": "event"
    },
    {
      "inputs": [],
      "name": "DEFAULT_ADMIN_ROLE",
      "outputs": [
        {
          "internalType": "bytes32",
          "name": "",
          "type": "bytes32"
        }
      ],
      "stateMutability": "view",
      "type": "function"
    },
    {
      "inputs": [],
      "name": "MINTER_ROLE",
      "outputs": [
        {
          "internalType": "bytes32",
          "name": "",
          "type": "bytes32"
        }
      ],
      "stateMutability": "view",
      "type": "function"
    },
    {
      "inputs": [],
      "name": "OWNER_ROLE",
      "outputs": [
        {
          "internalType": "bytes32",
          "name": "",
          "type": "bytes32"
        }
      ],
      "stateMutability": "view",
      "type": "function"
    },
    {
      "inputs": [],
      "name": "PAUSER_ROLE",
      "outputs": [
        {
          "internalType": "bytes32",
          "name": "",
          "type": "bytes32"
        }
      ],
      "stateMutability": "view",
      "type": "function"
    },
    {
      "inputs": [
        {
          "internalType": "address",
          "name": "owner",
          "type": "address"
        },
        {
          "internalType": "contract GoldfinchConfig",
          "name": "_config",
          "type": "address"
        }
      ],
      "name": "__initialize__",
      "outputs": [],
      "stateMutability": "nonpayable",
      "type": "function"
    },
    {
      "inputs": [],
      "name": "_tokenIdTracker",
      "outputs": [
        {
          "internalType": "uint256",
          "name": "_value",
          "type": "uint256"
        }
      ],
      "stateMutability": "view",
      "type": "function"
    },
    {
      "inputs": [],
      "name": "accumulatedRewardsPerToken",
      "outputs": [
        {
          "internalType": "uint256",
          "name": "",
          "type": "uint256"
        }
      ],
      "stateMutability": "view",
      "type": "function"
    },
    {
      "inputs": [
        {
          "internalType": "uint256",
          "name": "tokenId",
          "type": "uint256"
        },
        {
          "internalType": "uint256",
          "name": "amount",
          "type": "uint256"
        }
      ],
      "name": "addToStake",
      "outputs": [],
      "stateMutability": "nonpayable",
      "type": "function"
    },
    {
      "inputs": [
        {
          "internalType": "address",
          "name": "to",
          "type": "address"
        },
        {
          "internalType": "uint256",
          "name": "tokenId",
          "type": "uint256"
        }
      ],
      "name": "approve",
      "outputs": [],
      "stateMutability": "nonpayable",
      "type": "function"
    },
    {
      "inputs": [
        {
          "internalType": "address",
          "name": "owner",
          "type": "address"
        }
      ],
      "name": "balanceOf",
      "outputs": [
        {
          "internalType": "uint256",
          "name": "",
          "type": "uint256"
        }
      ],
      "stateMutability": "view",
      "type": "function"
    },
    {
      "inputs": [],
      "name": "baseURI",
      "outputs": [
        {
          "internalType": "string",
          "name": "",
          "type": "string"
        }
      ],
      "stateMutability": "view",
      "type": "function"
    },
    {
      "inputs": [
        {
          "internalType": "uint256",
          "name": "tokenId",
          "type": "uint256"
        }
      ],
      "name": "claimableRewards",
      "outputs": [
        {
          "internalType": "uint256",
          "name": "rewards",
          "type": "uint256"
        }
      ],
      "stateMutability": "view",
      "type": "function"
    },
    {
      "inputs": [],
      "name": "config",
      "outputs": [
        {
          "internalType": "contract GoldfinchConfig",
          "name": "",
          "type": "address"
        }
      ],
      "stateMutability": "view",
      "type": "function"
    },
    {
      "inputs": [],
      "name": "currentEarnRatePerToken",
      "outputs": [
        {
          "internalType": "uint256",
          "name": "",
          "type": "uint256"
        }
      ],
      "stateMutability": "view",
      "type": "function"
    },
    {
      "inputs": [
        {
          "internalType": "uint256",
          "name": "usdcAmount",
          "type": "uint256"
        }
      ],
      "name": "depositAndStake",
      "outputs": [
        {
          "internalType": "uint256",
          "name": "",
          "type": "uint256"
        }
      ],
      "stateMutability": "nonpayable",
      "type": "function"
    },
    {
      "inputs": [
        {
          "internalType": "uint256",
          "name": "fiduAmount",
          "type": "uint256"
        },
        {
          "internalType": "uint256",
          "name": "usdcAmount",
          "type": "uint256"
        }
      ],
      "name": "depositToCurve",
      "outputs": [],
      "stateMutability": "nonpayable",
      "type": "function"
    },
    {
      "inputs": [
        {
          "internalType": "uint256",
          "name": "fiduAmount",
          "type": "uint256"
        },
        {
          "internalType": "uint256",
          "name": "usdcAmount",
          "type": "uint256"
        }
      ],
      "name": "depositToCurveAndStake",
      "outputs": [],
      "stateMutability": "nonpayable",
      "type": "function"
    },
    {
      "inputs": [
        {
          "internalType": "address",
          "name": "nftRecipient",
          "type": "address"
        },
        {
          "internalType": "uint256",
          "name": "fiduAmount",
          "type": "uint256"
        },
        {
          "internalType": "uint256",
          "name": "usdcAmount",
          "type": "uint256"
        }
      ],
      "name": "depositToCurveAndStakeFrom",
      "outputs": [],
      "stateMutability": "nonpayable",
      "type": "function"
    },
    {
      "inputs": [
        {
          "internalType": "uint256",
          "name": "usdcAmount",
          "type": "uint256"
        },
        {
          "internalType": "uint256",
          "name": "deadline",
          "type": "uint256"
        },
        {
          "internalType": "uint8",
          "name": "v",
          "type": "uint8"
        },
        {
          "internalType": "bytes32",
          "name": "r",
          "type": "bytes32"
        },
        {
          "internalType": "bytes32",
          "name": "s",
          "type": "bytes32"
        }
      ],
      "name": "depositWithPermitAndStake",
      "outputs": [
        {
          "internalType": "uint256",
          "name": "",
          "type": "uint256"
        }
      ],
      "stateMutability": "nonpayable",
      "type": "function"
    },
    {
      "inputs": [
        {
          "internalType": "uint256",
          "name": "tokenId",
          "type": "uint256"
        }
      ],
      "name": "earnedSinceLastCheckpoint",
      "outputs": [
        {
          "internalType": "uint256",
          "name": "",
          "type": "uint256"
        }
      ],
      "stateMutability": "view",
      "type": "function"
    },
    {
      "inputs": [
        {
          "internalType": "uint256",
          "name": "tokenId",
          "type": "uint256"
        }
      ],
      "name": "getApproved",
      "outputs": [
        {
          "internalType": "address",
          "name": "",
          "type": "address"
        }
      ],
      "stateMutability": "view",
      "type": "function"
    },
    {
      "inputs": [
        {
          "internalType": "enum StakedPositionType",
          "name": "positionType",
          "type": "uint8"
        }
      ],
      "name": "getBaseTokenExchangeRate",
      "outputs": [
        {
          "internalType": "uint256",
          "name": "",
          "type": "uint256"
        }
      ],
      "stateMutability": "view",
      "type": "function"
    },
    {
      "inputs": [
        {
          "internalType": "enum StakedPositionType",
          "name": "positionType",
          "type": "uint8"
        }
      ],
      "name": "getEffectiveMultiplierForPositionType",
      "outputs": [
        {
          "internalType": "uint256",
          "name": "",
          "type": "uint256"
        }
      ],
      "stateMutability": "view",
      "type": "function"
    },
    {
      "inputs": [
        {
          "internalType": "uint256",
          "name": "tokenId",
          "type": "uint256"
        }
      ],
      "name": "getPosition",
      "outputs": [
        {
          "components": [
            {
              "internalType": "uint256",
              "name": "amount",
              "type": "uint256"
            },
            {
              "components": [
                {
                  "internalType": "uint256",
                  "name": "totalUnvested",
                  "type": "uint256"
                },
                {
                  "internalType": "uint256",
                  "name": "totalVested",
                  "type": "uint256"
                },
                {
                  "internalType": "uint256",
                  "name": "totalPreviouslyVested",
                  "type": "uint256"
                },
                {
                  "internalType": "uint256",
                  "name": "totalClaimed",
                  "type": "uint256"
                },
                {
                  "internalType": "uint256",
                  "name": "startTime",
                  "type": "uint256"
                },
                {
                  "internalType": "uint256",
                  "name": "endTime",
                  "type": "uint256"
                }
              ],
              "internalType": "struct Rewards",
              "name": "rewards",
              "type": "tuple"
            },
            {
              "internalType": "uint256",
              "name": "leverageMultiplier",
              "type": "uint256"
            },
            {
              "internalType": "uint256",
              "name": "lockedUntil",
              "type": "uint256"
            },
            {
              "internalType": "enum StakedPositionType",
              "name": "positionType",
              "type": "uint8"
            },
            {
              "internalType": "uint256",
              "name": "unsafeEffectiveMultiplier",
              "type": "uint256"
            },
            {
              "internalType": "uint256",
              "name": "unsafeBaseTokenExchangeRate",
              "type": "uint256"
            }
          ],
          "internalType": "struct StakedPosition",
          "name": "position",
          "type": "tuple"
        }
      ],
      "stateMutability": "view",
      "type": "function"
    },
    {
      "inputs": [
        {
          "internalType": "uint256",
          "name": "tokenId",
          "type": "uint256"
        }
      ],
      "name": "getReward",
      "outputs": [],
      "stateMutability": "nonpayable",
      "type": "function"
    },
    {
      "inputs": [
        {
          "internalType": "bytes32",
          "name": "role",
          "type": "bytes32"
        }
      ],
      "name": "getRoleAdmin",
      "outputs": [
        {
          "internalType": "bytes32",
          "name": "",
          "type": "bytes32"
        }
      ],
      "stateMutability": "view",
      "type": "function"
    },
    {
      "inputs": [
        {
          "internalType": "bytes32",
          "name": "role",
          "type": "bytes32"
        },
        {
          "internalType": "uint256",
          "name": "index",
          "type": "uint256"
        }
      ],
      "name": "getRoleMember",
      "outputs": [
        {
          "internalType": "address",
          "name": "",
          "type": "address"
        }
      ],
      "stateMutability": "view",
      "type": "function"
    },
    {
      "inputs": [
        {
          "internalType": "bytes32",
          "name": "role",
          "type": "bytes32"
        }
      ],
      "name": "getRoleMemberCount",
      "outputs": [
        {
          "internalType": "uint256",
          "name": "",
          "type": "uint256"
        }
      ],
      "stateMutability": "view",
      "type": "function"
    },
    {
      "inputs": [
        {
          "internalType": "bytes32",
          "name": "role",
          "type": "bytes32"
        },
        {
          "internalType": "address",
          "name": "account",
          "type": "address"
        }
      ],
      "name": "grantRole",
      "outputs": [],
      "stateMutability": "nonpayable",
      "type": "function"
    },
    {
      "inputs": [
        {
          "internalType": "bytes32",
          "name": "role",
          "type": "bytes32"
        },
        {
          "internalType": "address",
          "name": "account",
          "type": "address"
        }
      ],
      "name": "hasRole",
      "outputs": [
        {
          "internalType": "bool",
          "name": "",
          "type": "bool"
        }
      ],
      "stateMutability": "view",
      "type": "function"
    },
    {
      "inputs": [
        {
          "internalType": "address",
          "name": "owner",
          "type": "address"
        },
        {
          "internalType": "address",
          "name": "operator",
          "type": "address"
        }
      ],
      "name": "isApprovedForAll",
      "outputs": [
        {
          "internalType": "bool",
          "name": "",
          "type": "bool"
        }
      ],
      "stateMutability": "view",
      "type": "function"
    },
    {
      "inputs": [
        {
          "internalType": "uint256",
          "name": "tokenId",
          "type": "uint256"
        }
      ],
      "name": "kick",
      "outputs": [],
      "stateMutability": "nonpayable",
      "type": "function"
    },
    {
      "inputs": [],
      "name": "lastUpdateTime",
      "outputs": [
        {
          "internalType": "uint256",
          "name": "",
          "type": "uint256"
        }
      ],
      "stateMutability": "view",
      "type": "function"
    },
    {
      "inputs": [
        {
          "internalType": "uint256",
          "name": "rewards",
          "type": "uint256"
        }
      ],
      "name": "loadRewards",
      "outputs": [],
      "stateMutability": "nonpayable",
      "type": "function"
    },
    {
      "inputs": [],
      "name": "maxRate",
      "outputs": [
        {
          "internalType": "uint256",
          "name": "",
          "type": "uint256"
        }
      ],
      "stateMutability": "view",
      "type": "function"
    },
    {
      "inputs": [],
      "name": "maxRateAtPercent",
      "outputs": [
        {
          "internalType": "uint256",
          "name": "",
          "type": "uint256"
        }
      ],
      "stateMutability": "view",
      "type": "function"
    },
    {
      "inputs": [],
      "name": "minRate",
      "outputs": [
        {
          "internalType": "uint256",
          "name": "",
          "type": "uint256"
        }
      ],
      "stateMutability": "view",
      "type": "function"
    },
    {
      "inputs": [],
      "name": "minRateAtPercent",
      "outputs": [
        {
          "internalType": "uint256",
          "name": "",
          "type": "uint256"
        }
      ],
      "stateMutability": "view",
      "type": "function"
    },
    {
      "inputs": [],
      "name": "name",
      "outputs": [
        {
          "internalType": "string",
          "name": "",
          "type": "string"
        }
      ],
      "stateMutability": "view",
      "type": "function"
    },
    {
      "inputs": [
        {
          "internalType": "uint256",
          "name": "tokenId",
          "type": "uint256"
        }
      ],
      "name": "optimisticClaimable",
      "outputs": [
        {
          "internalType": "uint256",
          "name": "",
          "type": "uint256"
        }
      ],
      "stateMutability": "view",
      "type": "function"
    },
    {
      "inputs": [
        {
          "internalType": "uint256",
          "name": "tokenId",
          "type": "uint256"
        }
      ],
      "name": "ownerOf",
      "outputs": [
        {
          "internalType": "address",
          "name": "",
          "type": "address"
        }
      ],
      "stateMutability": "view",
      "type": "function"
    },
    {
      "inputs": [],
      "name": "pause",
      "outputs": [],
      "stateMutability": "nonpayable",
      "type": "function"
    },
    {
      "inputs": [],
      "name": "paused",
      "outputs": [
        {
          "internalType": "bool",
          "name": "",
          "type": "bool"
        }
      ],
      "stateMutability": "view",
      "type": "function"
    },
    {
      "inputs": [
        {
          "internalType": "uint256",
          "name": "tokenId",
          "type": "uint256"
        }
      ],
      "name": "positionCurrentEarnRate",
      "outputs": [
        {
          "internalType": "uint256",
          "name": "",
          "type": "uint256"
        }
      ],
      "stateMutability": "view",
      "type": "function"
    },
    {
      "inputs": [
        {
          "internalType": "uint256",
          "name": "",
          "type": "uint256"
        }
      ],
      "name": "positionToAccumulatedRewardsPerToken",
      "outputs": [
        {
          "internalType": "uint256",
          "name": "",
          "type": "uint256"
        }
      ],
      "stateMutability": "view",
      "type": "function"
    },
    {
      "inputs": [
        {
          "internalType": "uint256",
          "name": "",
          "type": "uint256"
        }
      ],
      "name": "positions",
      "outputs": [
        {
          "internalType": "uint256",
          "name": "amount",
          "type": "uint256"
        },
        {
          "components": [
            {
              "internalType": "uint256",
              "name": "totalUnvested",
              "type": "uint256"
            },
            {
              "internalType": "uint256",
              "name": "totalVested",
              "type": "uint256"
            },
            {
              "internalType": "uint256",
              "name": "totalPreviouslyVested",
              "type": "uint256"
            },
            {
              "internalType": "uint256",
              "name": "totalClaimed",
              "type": "uint256"
            },
            {
              "internalType": "uint256",
              "name": "startTime",
              "type": "uint256"
            },
            {
              "internalType": "uint256",
              "name": "endTime",
              "type": "uint256"
            }
          ],
          "internalType": "struct Rewards",
          "name": "rewards",
          "type": "tuple"
        },
        {
          "internalType": "uint256",
          "name": "leverageMultiplier",
          "type": "uint256"
        },
        {
          "internalType": "uint256",
          "name": "lockedUntil",
          "type": "uint256"
        },
        {
          "internalType": "enum StakedPositionType",
          "name": "positionType",
          "type": "uint8"
        },
        {
          "internalType": "uint256",
          "name": "unsafeEffectiveMultiplier",
          "type": "uint256"
        },
        {
          "internalType": "uint256",
          "name": "unsafeBaseTokenExchangeRate",
          "type": "uint256"
        }
      ],
      "stateMutability": "view",
      "type": "function"
    },
    {
      "inputs": [
        {
          "internalType": "bytes32",
          "name": "role",
          "type": "bytes32"
        },
        {
          "internalType": "address",
          "name": "account",
          "type": "address"
        }
      ],
      "name": "renounceRole",
      "outputs": [],
      "stateMutability": "nonpayable",
      "type": "function"
    },
    {
      "inputs": [
        {
          "internalType": "bytes32",
          "name": "role",
          "type": "bytes32"
        },
        {
          "internalType": "address",
          "name": "account",
          "type": "address"
        }
      ],
      "name": "revokeRole",
      "outputs": [],
      "stateMutability": "nonpayable",
      "type": "function"
    },
    {
      "inputs": [],
      "name": "rewardPerToken",
      "outputs": [
        {
          "internalType": "uint256",
          "name": "",
          "type": "uint256"
        }
      ],
      "stateMutability": "view",
      "type": "function"
    },
    {
      "inputs": [],
      "name": "rewardsAvailable",
      "outputs": [
        {
          "internalType": "uint256",
          "name": "",
          "type": "uint256"
        }
      ],
      "stateMutability": "view",
      "type": "function"
    },
    {
      "inputs": [
        {
          "internalType": "address",
          "name": "from",
          "type": "address"
        },
        {
          "internalType": "address",
          "name": "to",
          "type": "address"
        },
        {
          "internalType": "uint256",
          "name": "tokenId",
          "type": "uint256"
        }
      ],
      "name": "safeTransferFrom",
      "outputs": [],
      "stateMutability": "nonpayable",
      "type": "function"
    },
    {
      "inputs": [
        {
          "internalType": "address",
          "name": "from",
          "type": "address"
        },
        {
          "internalType": "address",
          "name": "to",
          "type": "address"
        },
        {
          "internalType": "uint256",
          "name": "tokenId",
          "type": "uint256"
        },
        {
          "internalType": "bytes",
          "name": "_data",
          "type": "bytes"
        }
      ],
      "name": "safeTransferFrom",
      "outputs": [],
      "stateMutability": "nonpayable",
      "type": "function"
    },
    {
      "inputs": [
        {
          "internalType": "address",
          "name": "operator",
          "type": "address"
        },
        {
          "internalType": "bool",
          "name": "approved",
          "type": "bool"
        }
      ],
      "name": "setApprovalForAll",
      "outputs": [],
      "stateMutability": "nonpayable",
      "type": "function"
    },
    {
      "inputs": [
        {
          "internalType": "string",
          "name": "baseURI_",
          "type": "string"
        }
      ],
      "name": "setBaseURI",
      "outputs": [],
      "stateMutability": "nonpayable",
      "type": "function"
    },
    {
      "inputs": [
        {
          "internalType": "uint256",
          "name": "multiplier",
          "type": "uint256"
        },
        {
          "internalType": "enum StakedPositionType",
          "name": "positionType",
          "type": "uint8"
        }
      ],
      "name": "setEffectiveMultiplier",
      "outputs": [],
      "stateMutability": "nonpayable",
      "type": "function"
    },
    {
      "inputs": [
        {
          "internalType": "uint256",
          "name": "_targetCapacity",
          "type": "uint256"
        },
        {
          "internalType": "uint256",
          "name": "_minRate",
          "type": "uint256"
        },
        {
          "internalType": "uint256",
          "name": "_maxRate",
          "type": "uint256"
        },
        {
          "internalType": "uint256",
          "name": "_minRateAtPercent",
          "type": "uint256"
        },
        {
          "internalType": "uint256",
          "name": "_maxRateAtPercent",
          "type": "uint256"
        }
      ],
      "name": "setRewardsParameters",
      "outputs": [],
      "stateMutability": "nonpayable",
      "type": "function"
    },
    {
      "inputs": [
        {
          "internalType": "uint256",
          "name": "amount",
          "type": "uint256"
        },
        {
          "internalType": "enum StakedPositionType",
          "name": "positionType",
          "type": "uint8"
        }
      ],
      "name": "stake",
      "outputs": [
        {
          "internalType": "uint256",
          "name": "",
          "type": "uint256"
        }
      ],
      "stateMutability": "nonpayable",
      "type": "function"
    },
    {
      "inputs": [
        {
          "internalType": "uint256",
          "name": "tokenId",
          "type": "uint256"
        }
      ],
      "name": "stakedBalanceOf",
      "outputs": [
        {
          "internalType": "uint256",
          "name": "",
          "type": "uint256"
        }
      ],
      "stateMutability": "view",
      "type": "function"
    },
    {
      "inputs": [
        {
          "internalType": "bytes4",
          "name": "interfaceId",
          "type": "bytes4"
        }
      ],
      "name": "supportsInterface",
      "outputs": [
        {
          "internalType": "bool",
          "name": "",
          "type": "bool"
        }
      ],
      "stateMutability": "view",
      "type": "function"
    },
    {
      "inputs": [],
      "name": "symbol",
      "outputs": [
        {
          "internalType": "string",
          "name": "",
          "type": "string"
        }
      ],
      "stateMutability": "view",
      "type": "function"
    },
    {
      "inputs": [],
      "name": "targetCapacity",
      "outputs": [
        {
          "internalType": "uint256",
          "name": "",
          "type": "uint256"
        }
      ],
      "stateMutability": "view",
      "type": "function"
    },
    {
      "inputs": [
        {
          "internalType": "uint256",
          "name": "index",
          "type": "uint256"
        }
      ],
      "name": "tokenByIndex",
      "outputs": [
        {
          "internalType": "uint256",
          "name": "",
          "type": "uint256"
        }
      ],
      "stateMutability": "view",
      "type": "function"
    },
    {
      "inputs": [
        {
          "internalType": "address",
          "name": "owner",
          "type": "address"
        },
        {
          "internalType": "uint256",
          "name": "index",
          "type": "uint256"
        }
      ],
      "name": "tokenOfOwnerByIndex",
      "outputs": [
        {
          "internalType": "uint256",
          "name": "",
          "type": "uint256"
        }
      ],
      "stateMutability": "view",
      "type": "function"
    },
    {
      "inputs": [
        {
          "internalType": "uint256",
          "name": "tokenId",
          "type": "uint256"
        }
      ],
      "name": "tokenURI",
      "outputs": [
        {
          "internalType": "string",
          "name": "",
          "type": "string"
        }
      ],
      "stateMutability": "view",
      "type": "function"
    },
    {
      "inputs": [
        {
          "internalType": "address",
          "name": "owner",
          "type": "address"
        }
      ],
      "name": "totalOptimisticClaimable",
      "outputs": [
        {
          "internalType": "uint256",
          "name": "",
          "type": "uint256"
        }
      ],
      "stateMutability": "view",
      "type": "function"
    },
    {
      "inputs": [],
      "name": "totalStakedSupply",
      "outputs": [
        {
          "internalType": "uint256",
          "name": "",
          "type": "uint256"
        }
      ],
      "stateMutability": "view",
      "type": "function"
    },
    {
      "inputs": [],
      "name": "totalSupply",
      "outputs": [
        {
          "internalType": "uint256",
          "name": "",
          "type": "uint256"
        }
      ],
      "stateMutability": "view",
      "type": "function"
    },
    {
      "inputs": [
        {
          "internalType": "uint256",
          "name": "start",
          "type": "uint256"
        },
        {
          "internalType": "uint256",
          "name": "end",
          "type": "uint256"
        },
        {
          "internalType": "uint256",
          "name": "time",
          "type": "uint256"
        },
        {
          "internalType": "uint256",
          "name": "grantedAmount",
          "type": "uint256"
        }
      ],
      "name": "totalVestedAt",
      "outputs": [
        {
          "internalType": "uint256",
          "name": "rewards",
          "type": "uint256"
        }
      ],
      "stateMutability": "pure",
      "type": "function"
    },
    {
      "inputs": [
        {
          "internalType": "address",
          "name": "from",
          "type": "address"
        },
        {
          "internalType": "address",
          "name": "to",
          "type": "address"
        },
        {
          "internalType": "uint256",
          "name": "tokenId",
          "type": "uint256"
        }
      ],
      "name": "transferFrom",
      "outputs": [],
      "stateMutability": "nonpayable",
      "type": "function"
    },
    {
      "inputs": [],
      "name": "unpause",
      "outputs": [],
      "stateMutability": "nonpayable",
      "type": "function"
    },
    {
      "inputs": [
        {
          "internalType": "uint256",
          "name": "tokenId",
          "type": "uint256"
        },
        {
          "internalType": "uint256",
          "name": "amount",
          "type": "uint256"
        }
      ],
      "name": "unstake",
      "outputs": [],
      "stateMutability": "nonpayable",
      "type": "function"
    },
    {
      "inputs": [
        {
          "internalType": "uint256[]",
          "name": "tokenIds",
          "type": "uint256[]"
        },
        {
          "internalType": "uint256[]",
          "name": "amounts",
          "type": "uint256[]"
        }
      ],
      "name": "unstakeMultiple",
      "outputs": [],
      "stateMutability": "nonpayable",
      "type": "function"
    },
    {
      "inputs": [
        {
          "internalType": "uint256",
          "name": "tokenId",
          "type": "uint256"
        }
      ],
      "name": "updatePositionEffectiveMultiplier",
      "outputs": [],
      "stateMutability": "nonpayable",
      "type": "function"
    },
    {
      "inputs": [],
      "name": "vestingLength",
      "outputs": [
        {
          "internalType": "uint256",
          "name": "",
          "type": "uint256"
        }
      ],
      "stateMutability": "view",
      "type": "function"
    }
  ],
  "transactionHash": "0x8e2cd48336f8fe8edaddc62bfe0fdecf223992c962e1ff01f0458d42f37a4130",
  "args": [],
  "solcInputHash": "17fd27548ed6466074d1f288a8dc8836",
  "bytecode": "0x608060405234801561001057600080fd5b5061584580620000216000396000f3fe608060405234801561001057600080fd5b50600436106103de5760003560e01c80638456cb5911610206578063b3a99b4c1161012b578063ce0cf1a5116100c3578063e7a7250a11610087578063e7a7250a14610857578063e985e9c51461085f578063eb02c30114610872578063ece1d6e514610892578063f62849be1461089a576103de565b8063ce0cf1a514610819578063d53913931461082c578063d547741f14610834578063e58378bb14610847578063e63ab1e91461084f576103de565b8063b3a99b4c146107a5578063b6f8fd40146107ad578063b88d4fde146107c0578063b88dffe0146107d3578063bcdc3cfc146107db578063c87b56dd146107e3578063c8f33c91146107f6578063ca15c873146107fe578063cd3daf9d14610811576103de565b806399fbab881161019e57806399fbab88146106fd5780639e2c8a5b146107235780639f60421f14610736578063a217fddf14610749578063a22cb46514610751578063a52ab1f114610764578063a9f4939d14610777578063aa04295f1461078a578063b217f9d41461079d576103de565b80638456cb591461067357806387647d4b1461067b5780638ea269831461068e5780639010d07c146106a1578063906ae4c3146106b457806391d14854146106c757806395d89b41146106da5780639835fc7e146106e257806398bcede9146106f5576103de565b806330987dd8116103075780635c975abb1161029f5780636c0360eb116102635780636c0360eb1461062a5780636c3f3be61461063257806370a082311461064557806375ff490b1461065857806379502c551461066b576103de565b80635c975abb146105e15780636352211e146105e957806364fa33f0146105fc5780636702abe21461060457806369d00e7914610617576103de565b806330987dd81461055757806336568abe1461056a578063389621861461057d5780633f4ba83a1461058557806342842e0e1461058d5780634a6b629d146105a05780634f6ccce7146105a857806355f804b3146105bb57806359fe8539146105ce576103de565b806318160ddd1161037a57806318160ddd146104b75780631c4b774b146104bf57806323234a9c146104d257806323b872dd146104e5578063248a9ca3146104f8578063252e61c31461050b57806327a3492e1461051e5780632f2ff15d146105315780632f745c5914610544576103de565b806301ffc9a7146103e357806306fdde031461040c578063081812fc14610421578063095ea7b3146104415780630cb604431461045657806310087fb11461046b578063106809191461047e578063135e80591461049157806313ad3574146104a4575b600080fd5b6103f66103f13660046147ed565b6108ad565b6040516104039190614c54565b60405180910390f35b6104146108d0565b6040516104039190614c84565b61043461042f366004614790565b610967565b6040516104039190614b03565b61045461044f3660046146ac565b6109b3565b005b61045e610a4b565b6040516104039190614c5f565b61045e6104793660046148c5565b610a52565b61045e61048c366004614790565b610ad4565b61045e61049f3660046148f1565b610ae7565b61045e6104b2366004614790565b610b00565b61045e610b23565b6104546104cd366004614790565b610b34565b61045e6104e0366004614825565b610c61565b6104546104f3366004614565565b610e22565b61045e610506366004614790565b610e5a565b61045e61051936600461495c565b610e6f565b61045461052c3660046147cc565b610f04565b61045461053f3660046147a8565b610fbd565b61045e6105523660046146ac565b611005565b6104546105653660046147cc565b61102e565b6104546105783660046147a8565b611039565b61045e61107b565b610454611082565b61045461059b366004614565565b6110c2565b61045e6110dd565b61045e6105b6366004614790565b6110e4565b6104546105c9366004614840565b6110fa565b61045e6105dc366004614790565b61115d565b6103f6611330565b6104346105f7366004614790565b611339565b61045e611361565b610454610612366004614922565b611368565b6104546106253660046146d7565b61142b565b610414611504565b61045e610640366004614790565b611565565b61045e6106533660046144f5565b611596565b61045e610666366004614825565b6115df565b610434611645565b610454611655565b61045e610689366004614790565b611693565b61045e61069c3660046144f5565b6116de565b6104346106af3660046147cc565b611726565b6104546106c23660046148c5565b61173e565b6103f66106d53660046147a8565b61180a565b610414611822565b61045e6106f0366004614790565b611883565b61045e61189e565b61071061070b366004614790565b6118a5565b60405161040397969594939291906156a7565b6104546107313660046147cc565b611927565b61045461074436600461470b565b6119c4565b61045e611bb3565b61045461075f36600461466d565b611bb8565b610454610772366004614790565b611c86565b6104546107853660046147cc565b611db3565b61045e610798366004614790565b611f33565b61045e611f46565b61045e611f4d565b6104546107bb36600461469a565b611f54565b6104546107ce3660046145a5565b6120fc565b61045e61213b565b61045e612183565b6104146107f1366004614790565b61218a565b61045e6122d4565b61045e61080c366004614790565b6122db565b61045e6122f2565b610454610827366004614790565b61230a565b61045e612365565b6104546108423660046147a8565b612389565b61045e6123c3565b61045e6123d5565b61045e6123e7565b6103f661086d36600461452d565b6123ee565b610885610880366004614790565b61241c565b6040516104039190615606565b61045e6124f8565b6104546108a8366004614790565b6124ff565b6001600160e01b0319811660009081526097602052604090205460ff165b919050565b60ce8054604080516020601f600260001961010060018816150201909516949094049384018190048102820181019092528281526060939092909183018282801561095c5780601f106109315761010080835404028352916020019161095c565b820191906000526020600020905b81548152906001019060200180831161093f57829003601f168201915b505050505090505b90565b60006109728261258a565b6109975760405162461bcd60e51b815260040161098e9061526c565b60405180910390fd5b50600090815260cc60205260409020546001600160a01b031690565b60006109be82611339565b9050806001600160a01b0316836001600160a01b031614156109f25760405162461bcd60e51b815260040161098e906153d7565b806001600160a01b0316610a04612597565b6001600160a01b03161480610a205750610a208161086d612597565b610a3c5760405162461bcd60e51b815260040161098e906150f5565b610a46838361259b565b505050565b6101c95481565b6101915460009060ff16610a785760405162461bcd60e51b815260040161098e906154eb565b610191805460ff1916905560fb5460ff1615610aa65760405162461bcd60e51b815260040161098e906150cb565b6000610ab181612609565b610abd333386866126b5565b915050610191805460ff1916600117905592915050565b6101c76020526000908152604090205481565b6000610af585858585612a67565b90505b949350505050565b6000610b1d610b0e83611883565b610b1784611693565b90612aa1565b92915050565b6000610b2f60ca612ac6565b905090565b6101915460ff16610b575760405162461bcd60e51b815260040161098e906154eb565b610191805460ff1916905560fb5460ff1615610b855760405162461bcd60e51b815260040161098e906150cb565b80610b8f81612609565b33610b9983611339565b6001600160a01b031614610bbf5760405162461bcd60e51b815260040161098e90614e0f565b6000610bca83611883565b90508015610c4e5760008381526101d160205260409020610bee9060010182612ad1565b610c0b3382610bfb612aec565b6001600160a01b03169190612b05565b82336001600160a01b03167fd6f2c8500df5b44f11e9e48b91ff9f1b9d81bc496d55570c2b1b75bf65243f5183604051610c459190614c5f565b60405180910390a35b5050610191805460ff1916600117905550565b60006001826001811115610c7157fe5b1415610e13576101c354600090610c90906001600160a01b0316612b5b565b9050610e0b816001600160a01b031663fc0c546a6040518163ffffffff1660e01b815260040160206040518083038186803b158015610cce57600080fd5b505afa158015610ce2573d6000803e3d6000fd5b505050506040513d601f19601f82011682018060405250810190610d069190614511565b6001600160a01b03166318160ddd6040518163ffffffff1660e01b815260040160206040518083038186803b158015610d3e57600080fd5b505afa158015610d52573d6000803e3d6000fd5b505050506040513d601f19601f82011682018060405250810190610d7691906148ad565b610e05670de0b6b3a7640000846001600160a01b0316634903b0d160006040518263ffffffff1660e01b8152600401610daf9190614c5f565b60206040518083038186803b158015610dc757600080fd5b505afa158015610ddb573d6000803e3d6000fd5b505050506040513d601f19601f82011682018060405250810190610dff91906148ad565b90612b66565b90612ba0565b9150506108cb565b50670de0b6b3a7640000919050565b610e33610e2d612597565b82612be2565b610e4f5760405162461bcd60e51b815260040161098e90615434565b610a46838383612c5f565b60009081526065602052604090206002015490565b6101c354600090610e88906001600160a01b0316612d6d565b6001600160a01b031663d505accf333089898989896040518863ffffffff1660e01b8152600401610ebf9796959493929190614b4a565b600060405180830381600087803b158015610ed957600080fd5b505af1158015610eed573d6000803e3d6000fd5b50505050610efa8661115d565b9695505050505050565b6101915460ff16610f275760405162461bcd60e51b815260040161098e906154eb565b610191805460ff1916905560fb5460ff1615610f555760405162461bcd60e51b815260040161098e906150cb565b6000610f6333338585612ded565b9050336001600160a01b03167f2468986f19ca698c7a17082adcaf9889ae41bbd887038b6c7b0598015dfae753848484604051610fa2939291906156fd565b60405180910390a25050610191805460ff1916600117905550565b600082815260656020526040902060020154610fdb906106d5612597565b610ff75760405162461bcd60e51b815260040161098e90614d40565b6110018282612fbb565b5050565b6001600160a01b038216600090815260c9602052604081206110279083613024565b9392505050565b61100133838361142b565b611041612597565b6001600160a01b0316816001600160a01b0316146110715760405162461bcd60e51b815260040161098e906155b7565b6110018282613030565b6101c55481565b61109c6000805160206157f08339815191526106d5612597565b6110b85760405162461bcd60e51b815260040161098e90615522565b6110c0613099565b565b610a46838383604051806020016040528060008152506120fc565b6101c85481565b6000806110f260ca84613105565b509392505050565b611102613123565b61111e5760405162461bcd60e51b815260040161098e90614e0f565b61100182828080601f01602080910402602001604051908101604052809392919081815260200183838082843760009201919091525061313f92505050565b6101915460009060ff166111835760405162461bcd60e51b815260040161098e906154eb565b610191805460ff1916905560fb5460ff16156111b15760405162461bcd60e51b815260040161098e906150cb565b60006111bc81612609565b6111c4613152565b6111e05760405162461bcd60e51b815260040161098e90614d24565b6101c3546000906111f9906001600160a01b03166131e6565b90506112106001600160a01b0382163330876131f1565b6101c354600090611229906001600160a01b0316613212565b905061123f6001600160a01b038316828761321d565b60405163b6b55f2560e01b81526000906001600160a01b0383169063b6b55f259061126e908990600401614c5f565b602060405180830381600087803b15801561128857600080fd5b505af115801561129c573d6000803e3d6000fd5b505050506040513d601f19601f820116820180604052508101906112c091906148ad565b905060006112d130338460006126b5565b905080336001600160a01b03167fce343194de25678e58b53205d289681a131cc2b917e7c36c8dc0d1693fd8f7ef898560405161130f9291906156ef565b60405180910390a3945050505050610191805460ff19166001179055919050565b60fb5460ff1690565b6000610b1d826040518060600160405280602981526020016157c76029913960ca91906132c2565b6101cc5481565b611370613123565b61138c5760405162461bcd60e51b815260040161098e90614e0f565b600061139781612609565b8484101580156113a75750828211155b6113c35760405162461bcd60e51b815260040161098e906154cf565b6101c88690556101c98590556101ca8490556101cc8390556101cb82905560405133907f8fc8630a9026e4d101945e5580ff250722a3dbc1222dac05b63a0e4a97688a659061141b9089908990899089908990615713565b60405180910390a2505050505050565b6101915460ff1661144e5760405162461bcd60e51b815260040161098e906154eb565b610191805460ff1916905560fb5460ff161561147c5760405162461bcd60e51b815260040161098e906150cb565b600061148781612609565b600061149533308686612ded565b905060006114a630878460016126b5565b905080336001600160a01b03167f70e3723ca1d6f2fd53a53844eb91671bc39574743c075044ac7ff5c2e5f489638787866040516114e6939291906156fd565b60405180910390a35050610191805460ff1916600117905550505050565b60d18054604080516020601f600260001961010060018816150201909516949094049384018190048102820181019092528281526060939092909183018282801561095c5780601f106109315761010080835404028352916020019161095c565b6000610b1d6115726132cf565b60008481526101d160205260409020610e059061158e906132db565b610dff61213b565b60006001600160a01b0382166115be5760405162461bcd60e51b815260040161098e9061514d565b6001600160a01b038216600090815260c960205260409020610b1d90612ac6565b6000806101d260008460018111156115f357fe5b60018111156115fe57fe5b8152602001908152602001600020541115610e13576101d2600083600181111561162457fe5b600181111561162f57fe5b81526020019081526020016000205490506108cb565b6101c3546001600160a01b031681565b61166f6000805160206157f08339815191526106d5612597565b61168b5760405162461bcd60e51b815260040161098e90614eee565b6110c06132ee565b6000610b1d6116a06132cf565b60008481526101c76020526040902054610e05906116c6906116c06122f2565b90613347565b60008681526101d160205260409020610dff906132db565b600080805b6116ec84611596565b81101561171f5760006116ff8583611005565b905061171461170d82610b00565b8490612aa1565b9250506001016116e3565b5092915050565b60008281526065602052604081206110279083613024565b611746613123565b6117625760405162461bcd60e51b815260040161098e90614e0f565b600061176d81612609565b6000831161178d5760405162461bcd60e51b815260040161098e90614e99565b826101d2600084600181111561179f57fe5b60018111156117aa57fe5b81526020810191909152604001600020556117c3612597565b6001600160a01b03167f9db0606b275ca1f1e99d2544ed31141049687b5f4080f2c87812881580a1b7ee83856040516117fd929190614c68565b60405180910390a2505050565b60008281526065602052604081206110279083613389565b60cf8054604080516020601f600260001961010060018816150201909516949094049384018190048102820181019092528281526060939092909183018282801561095c5780601f106109315761010080835404028352916020019161095c565b60008181526101d160205260408120610b1d9060010161339e565b61015f5481565b6101d1602090815260009182526040918290208054835160c081018552600183015481526002830154938101939093526003820154938301939093526004810154606083015260058101546080830152600681015460a0830152600781015460088201546009830154600a840154600b909401549293919260ff909116919087565b6101915460ff1661194a5760405162461bcd60e51b815260040161098e906154eb565b610191805460ff1916905560fb5460ff16156119785760405162461bcd60e51b815260040161098e906150cb565b61198182612609565b61198b82826133c3565b60008281526101d160205260409020600901546119b29033908390610bfb9060ff166134a3565b5050610191805460ff19166001179055565b6101915460ff166119e75760405162461bcd60e51b815260040161098e906154eb565b610191805460ff1916905560fb5460ff1615611a155760405162461bcd60e51b815260040161098e906150cb565b828114611a345760405162461bcd60e51b815260040161098e906153ba565b60008060005b83811015611b2b57611a5d878783818110611a5157fe5b90506020020135612609565b611a8b878783818110611a6c57fe5b90506020020135868684818110611a7f57fe5b905060200201356133c3565b60016101d16000898985818110611a9e57fe5b602090810292909201358352508101919091526040016000206009015460ff166001811115611ac957fe5b1415611afb57611af4858583818110611ade57fe5b9050602002013583612aa190919063ffffffff16565b9150611b23565b611b20858583818110611b0a57fe5b9050602002013584612aa190919063ffffffff16565b92505b600101611a3a565b508115611b4157611b413383610bfb60006134a3565b8015611b5657611b563382610bfb60016134a3565b336001600160a01b03167ff00809a6eb66c05c314468512a79b6388957b41bc76bd7241b9cbabb129ae00887878787604051611b959493929190614c22565b60405180910390a25050610191805460ff1916600117905550505050565b600081565b611bc0612597565b6001600160a01b0316826001600160a01b03161415611bf15760405162461bcd60e51b815260040161098e90614f8f565b8060cd6000611bfe612597565b6001600160a01b03908116825260208083019390935260409182016000908120918716808252919093529120805460ff191692151592909217909155611c42612597565b6001600160a01b03167f17307eab39ab6107e8899845ad3d59bd9653f200f220920489ca2b5937696c3183604051611c7a9190614c54565b60405180910390a35050565b6101915460ff16611ca95760405162461bcd60e51b815260040161098e906154eb565b610191805460ff1916905560fb5460ff1615611cd75760405162461bcd60e51b815260040161098e906150cb565b80611ce181612609565b33611ceb83611339565b6001600160a01b031614611d115760405162461bcd60e51b815260040161098e90614e0f565b60008281526101d1602052604081206009810154909190611d349060ff166115df565b9050611d3f8261355c565b811015611d5e5760405162461bcd60e51b815260040161098e906151d9565b6000611d69836132db565b600a840183905590506000611d7d846132db565b9050611d9981610b17846101ce5461334790919063ffffffff16565b6101ce555050610191805460ff1916600117905550505050565b6101915460ff16611dd65760405162461bcd60e51b815260040161098e906154eb565b610191805460ff1916905560fb5460ff1615611e045760405162461bcd60e51b815260040161098e906150cb565b81611e0e81612609565b611e183384612be2565b611e345760405162461bcd60e51b815260040161098e90614e0f565b60008381526101d16020526040812090600982015460ff166001811115611e5757fe5b14611e745760405162461bcd60e51b815260040161098e90614fc2565b8054611e809084612aa1565b8155611eaa611ea084611e9284613574565b611e9b8561355c565b61358c565b6101ce5490612aa1565b6101ce556009810154611eda90339030908690611ec99060ff166134a3565b6001600160a01b03169291906131f1565b6009810154604051859133917faa068096279f55d8fc4a30b56ce3e23e4230e75c1aa7d0d29c13c0fdabb0293791611f1791889160ff1690615668565b60405180910390a35050610191805460ff191660011790555050565b60009081526101d1602052604090205490565b6101cd5481565b6101cb5481565b600054610100900460ff1680611f6d5750611f6d6135aa565b80611f7b575060005460ff16155b611f975760405162461bcd60e51b815260040161098e906152d4565b600054610100900460ff16158015611fc2576000805460ff1961ff0019909116610100171660011790555b611fca6135b0565b611fd2613633565b6120336040518060400160405280601e81526020017f476f6c6466696e6368205632204c50205374616b696e6720546f6b656e7300008152506040518060400160405280600a8152602001694746492d56322d4c505360b01b8152506136b1565b61203b6135b0565b6120436135b0565b61204b61378d565b612053613819565b61206b6000805160206157a783398151915284610ff7565b6120836000805160206157f083398151915284610ff7565b6120a96000805160206157f08339815191526000805160206157a78339815191526138a9565b6120c16000805160206157a7833981519152806138a9565b6101c380546001600160a01b0319166001600160a01b0384161790556301e133806101cd558015610a46576000805461ff0019169055505050565b61210d612107612597565b83612be2565b6121295760405162461bcd60e51b815260040161098e90615434565b612135848484846138be565b50505050565b6000806101c454421461214e5742612153565b426001015b9050600061216d6101c4548361334790919063ffffffff16565b905061217c81610e05846138f1565b9250505090565b6101ce5481565b60606121958261258a565b6121b15760405162461bcd60e51b815260040161098e9061536b565b600082815260d0602090815260409182902080548351601f60026000196101006001861615020190931692909204918201849004840281018401909452808452606093928301828280156122465780601f1061221b57610100808354040283529160200191612246565b820191906000526020600020905b81548152906001019060200180831161222957829003601f168201915b505060d1549394505050506002600019610100600184161502019091160461226f5790506108cb565b8051156122a15760d18160405160200161228a929190614a82565b6040516020818303038152906040529150506108cb565b60d16122ac84613980565b6040516020016122bd929190614a82565b604051602081830303815290604052915050919050565b6101c45481565b6000818152606560205260408120610b1d90612ac6565b6000610b2f612300426138f1565b6101c55490612aa1565b6101915460ff1661232d5760405162461bcd60e51b815260040161098e906154eb565b610191805460ff1916905560fb5460ff161561235b5760405162461bcd60e51b815260040161098e906150cb565b806119b281612609565b7f9f2df0fed2c77648de5860a4cc508cd0818c85b8b8a1ab4ceeef8d981c8956a681565b6000828152606560205260409020600201546123a7906106d5612597565b6110715760405162461bcd60e51b815260040161098e9061505f565b6000805160206157a783398151915281565b6000805160206157f083398151915281565b6101c65481565b6001600160a01b03918216600090815260cd6020908152604080832093909416825291909152205460ff1690565b61242461438d565b6101d160008381526020019081526020016000206040518060e001604052908160008201548152602001600182016040518060c00160405290816000820154815260200160018201548152602001600282015481526020016003820154815260200160048201548152602001600582015481525050815260200160078201548152602001600882015481526020016009820160009054906101000a900460ff1660018111156124cf57fe5b60018111156124da57fe5b8152600a8201546020820152600b9091015460409091015292915050565b6101ca5481565b612507613123565b6125235760405162461bcd60e51b815260040161098e90614e0f565b600061252e81612609565b61253c333084611ec9612aec565b6101c65461254a9083612aa1565b6101c6556040517fde88a922e0d3b88b24e9623efeb464919c6bf9f66857a65e2bfcf2ce87a9433d9061257e908490614c5f565b60405180910390a15050565b6000610b1d60ca83613a5b565b3390565b600081815260cc6020526040902080546001600160a01b0319166001600160a01b03841690811790915581906125d082611339565b6001600160a01b03167f8c5be1e5ebec7d5bd14f71427d1e84f3dd0314c0f7b2291e5b200ac8c7c3b92560405160405180910390a45050565b6101c5546126156122f2565b6101c55560006126426126266132cf565b6101c554610e05906126389086613347565b6101ce5490612b66565b6101c6549091506126539082613347565b6101c655426101c4558215610a4657600061266d84611693565b60008581526101d16020526040902060010180549192509061268f9083612aa1565b815561269a81613a67565b50506101c55460008481526101c76020526040902055505050565b60008083116126d65760405162461bcd60e51b815260040161098e90614e99565b6126e161015f613ac6565b6126ec61015f613acf565b90506126f781612609565b600061270283610c61565b9050600061270f846115df565b9050600184600181111561271f57fe5b14156128bc576101c35460009061273e906001600160a01b0316612b5b565b9050600061280e620f4240610e05670de0b6b3a7640000610dff866001600160a01b0316634903b0d160006040518263ffffffff1660e01b81526004016127859190614c5f565b60206040518083038186803b15801561279d57600080fd5b505afa1580156127b1573d6000803e3d6000fd5b505050506040513d601f19601f820116820180604052508101906127d591906148ad565b610e05670de0b6b3a7640000896001600160a01b0316634903b0d160016040518263ffffffff1660e01b8152600401610daf9190614c5f565b6101c35490915061286d90606490610e0590604b90612835906001600160a01b0316613212565b6001600160a01b031663872697296040518163ffffffff1660e01b815260040160206040518083038186803b158015610dc757600080fd5b8111801561289d57506101c35461289a90606490610e0590607d90612835906001600160a01b0316613212565b81105b6128b95760405162461bcd60e51b815260040161098e906150af565b50505b6040518060e001604052808681526020016040518060c001604052806000815260200160008152602001600081526020016000815260200142815260200160008152508152602001600081526020016000815260200185600181111561291e57fe5b81526020808201849052604091820185905260008681526101d18252829020835181558382015180516001808401919091559281015160028301558084015160038301556060808201516004840155608080830151600585015560a0909201516006840155938501516007830155928401516008820155918301516009830180549192909160ff19169083818111156129b357fe5b021790555060a0820151600a82015560c090910151600b909101556129d88684613ad3565b60008381526101d1602052604090206129f490611ea0906132db565b6101ce556001600160a01b0387163014612a1757612a17873087611ec9886134a3565b82866001600160a01b03167fcc10169be2ad544347561e230939849af48d1714c052d7fe247d12f3decb4896878786604051612a5593929190615684565b60405180910390a35050949350505050565b6000848411612a77575080610af8565b610af5612a9b612a878688613347565b610e05612a94878a613347565b8690612b66565b83613b97565b6000828201838110156110275760405162461bcd60e51b815260040161098e90614eb7565b6000610b1d82613acf565b6003820154612ae09082612aa1565b82600301819055505050565b6101c354600090610b2f906001600160a01b0316613bad565b610a468363a9059cbb60e01b8484604051602401612b24929190614bc9565b60408051601f198184030181529190526020810180516001600160e01b03166001600160e01b031990931692909217909152613bb8565b6000610b1d82613c9d565b600082612b7557506000610b1d565b82820282848281612b8257fe5b04146110275760405162461bcd60e51b815260040161098e9061522b565b600061102783836040518060400160405280601a81526020017f536166654d6174683a206469766973696f6e206279207a65726f000000000000815250613cb5565b6000612bed8261258a565b612c095760405162461bcd60e51b815260040161098e90615013565b6000612c1483611339565b9050806001600160a01b0316846001600160a01b03161480612c4f5750836001600160a01b0316612c4484610967565b6001600160a01b0316145b80610af85750610af881856123ee565b826001600160a01b0316612c7282611339565b6001600160a01b031614612c985760405162461bcd60e51b815260040161098e90615322565b6001600160a01b038216612cbe5760405162461bcd60e51b815260040161098e90614f4b565b612cc9838383613cec565b612cd460008261259b565b6001600160a01b038316600090815260c960205260409020612cf69082613cf7565b506001600160a01b038216600090815260c960205260409020612d199082613d03565b50612d2660ca8284613d0f565b5080826001600160a01b0316846001600160a01b03167fddf252ad1be2c89b69c2b068fc378daa952ba7f163c4a11628f55a4df523b3ef60405160405180910390a4505050565b60006001600160a01b03821663b93f9b0a60055b6040518263ffffffff1660e01b8152600401612d9d9190614c5f565b60206040518083038186803b158015612db557600080fd5b505afa158015612dc9573d6000803e3d6000fd5b505050506040513d601f19601f82011682018060405250810190610b1d9190614511565b600080831180612dfd5750600082115b612e195760405162461bcd60e51b815260040161098e90614e99565b6101c354600090612e32906001600160a01b03166131e6565b6101c354909150600090612e4e906001600160a01b0316613d25565b6101c354909150600090612e6a906001600160a01b0316612b5b565b90508515612e9b57612e876001600160a01b0383168930896131f1565b612e9b6001600160a01b038316828861321d565b8415612eca57612eb66001600160a01b0384168930886131f1565b612eca6001600160a01b038416828761321d565b6000612f16600a610e056009856001600160a01b0316638d8ea72760405180604001604052808e81526020018d8152506040518263ffffffff1660e01b8152600401610daf9190614be2565b604080518082018252898152602081018990529051637328333b60e01b81529192506001600160a01b03841691637328333b91612f5c9185906000908e90600401614bf0565b602060405180830381600087803b158015612f7657600080fd5b505af1158015612f8a573d6000803e3d6000fd5b505050506040513d601f19601f82011682018060405250810190612fae91906148ad565b9998505050505050505050565b6000828152606560205260409020612fd39082613d30565b1561100157612fe0612597565b6001600160a01b0316816001600160a01b0316837f2f8788117e7eff1d82e926ec794901d17c78024a50270940304540a733656f0d60405160405180910390a45050565b60006110278383613d45565b60008281526065602052604090206130489082613d8a565b1561100157613055612597565b6001600160a01b0316816001600160a01b0316837ff6391f5c32d9c69d2a47ea670b442974b53935d1edc7fd64eb21e047a839171b60405160405180910390a45050565b60fb5460ff166130bb5760405162461bcd60e51b815260040161098e90614d8f565b60fb805460ff191690557f5db9ee0a495bf2e6ff9c91a7834c1ba4fdd244a5e8aa4e537bd38aeae4b073aa6130ee612597565b6040516130fb9190614b03565b60405180910390a1565b60008080806131148686613d9f565b909450925050505b9250929050565b6000610b2f6000805160206157a78339815191526106d5612597565b80516110019060d19060208401906143db565b6101c35460009061316b906001600160a01b0316613dfb565b6001600160a01b031663a37b92c9336040518263ffffffff1660e01b81526004016131969190614b03565b60206040518083038186803b1580156131ae57600080fd5b505afa1580156131c2573d6000803e3d6000fd5b505050506040513d601f19601f82011682018060405250810190610b2f9190614774565b6000610b1d82612d6d565b612135846323b872dd60e01b858585604051602401612b2493929190614ba5565b6000610b1d82613e06565b60006132a182856001600160a01b031663dd62ed3e30876040518363ffffffff1660e01b8152600401613251929190614b8b565b60206040518083038186803b15801561326957600080fd5b505afa15801561327d573d6000803e3d6000fd5b505050506040513d601f19601f82011682018060405250810190610b1791906148ad565b90506121358463095ea7b360e01b8584604051602401612b24929190614bc9565b6000610af8848484613e1e565b670de0b6b3a764000090565b6000610b1d8260000154611e9284613574565b60fb5460ff16156133115760405162461bcd60e51b815260040161098e906150cb565b60fb805460ff191660011790557f62e78cea01bee320cd4e420270b5ea74000d11b0c9f74754ebdbfc544b05a2586130ee612597565b600061102783836040518060400160405280601e81526020017f536166654d6174683a207375627472616374696f6e206f766572666c6f770000815250613e7d565b6000611027836001600160a01b038416613ea9565b6000610b1d82600301546116c084600201548560010154612aa190919063ffffffff16565b6133cd3383612be2565b6133e95760405162461bcd60e51b815260040161098e90614e0f565b60008281526101d160205260409020805482158015906134095750808311155b6134255760405162461bcd60e51b815260040161098e906152b8565b61344861343e8461343585613574565b611e9b8661355c565b6101ce5490613347565b6101ce556134568184613347565b82556009820154604051859133917f47efae27a70cca1d3ad8e753ab4b48a413e554d244be5c7928fdfee407c37f5d9161349591889160ff1690615668565b60405180910390a350505050565b600060018260018111156134b357fe5b1415613546576101c3546134cf906001600160a01b0316612b5b565b6001600160a01b031663fc0c546a6040518163ffffffff1660e01b815260040160206040518083038186803b15801561350757600080fd5b505afa15801561351b573d6000803e3d6000fd5b505050506040513d601f19601f8201168201806040525081019061353f9190614511565b90506108cb565b6101c354610b1d906001600160a01b0316613d25565b600a81015460009015610e135750600a8101546108cb565b600b81015460009015610e135750600b8101546108cb565b6000610af8670de0b6b3a7640000610e05818186610dff8a8a612b66565b303b1590565b600054610100900460ff16806135c957506135c96135aa565b806135d7575060005460ff16155b6135f35760405162461bcd60e51b815260040161098e906152d4565b600054610100900460ff1615801561361e576000805460ff1961ff0019909116610100171660011790555b8015613630576000805461ff00191690555b50565b600054610100900460ff168061364c575061364c6135aa565b8061365a575060005460ff16155b6136765760405162461bcd60e51b815260040161098e906152d4565b600054610100900460ff161580156136a1576000805460ff1961ff0019909116610100171660011790555b61361e6301ffc9a760e01b613ec1565b600054610100900460ff16806136ca57506136ca6135aa565b806136d8575060005460ff16155b6136f45760405162461bcd60e51b815260040161098e906152d4565b600054610100900460ff1615801561371f576000805460ff1961ff0019909116610100171660011790555b82516137329060ce9060208601906143db565b5081516137469060cf9060208501906143db565b506137576380ac58cd60e01b613ec1565b613767635b5e139f60e01b613ec1565b61377763780e9d6360e01b613ec1565b8015610a46576000805461ff0019169055505050565b600054610100900460ff16806137a657506137a66135aa565b806137b4575060005460ff16155b6137d05760405162461bcd60e51b815260040161098e906152d4565b600054610100900460ff161580156137fb576000805460ff1961ff0019909116610100171660011790555b60fb805460ff191690558015613630576000805461ff001916905550565b600054610100900460ff168061383257506138326135aa565b80613840575060005460ff16155b61385c5760405162461bcd60e51b815260040161098e906152d4565b600054610100900460ff16158015613887576000805460ff1961ff0019909116610100171660011790555b610191805460ff191660011790558015613630576000805461ff001916905550565b60009182526065602052604090912060020155565b6138c9848484612c5f565b6138d584848484613f10565b6121355760405162461bcd60e51b815260040161098e90614dbd565b60006101c4548210156139165760405162461bcd60e51b815260040161098e90615418565b6101ce54613926575060006108cb565b600061394e61394561393661404a565b6101c454610dff908790613347565b6101c654613b97565b9050600061396b6101ce54610e056139646132cf565b8590612b66565b905081811115611027576000925050506108cb565b6060816139a557506040805180820190915260018152600360fc1b60208201526108cb565b8160005b81156139bd57600101600a820491506139a9565b60608167ffffffffffffffff811180156139d657600080fd5b506040519080825280601f01601f191660200182016040528015613a01576020820181803683370190505b50859350905060001982015b8315613a5257600a840660300160f81b82828060019003935081518110613a3057fe5b60200101906001600160f81b031916908160001a905350600a84049350613a0d565b50949350505050565b60006110278383613ea9565b6000613a858260040154836005015442613a8086614121565b612a67565b90508160010154811115611001576000613aac83600101548361334790919063ffffffff16565b8354909150613abb9082613347565b835550600190910155565b80546001019055565b5490565b6001600160a01b038216613af95760405162461bcd60e51b815260040161098e906151f6565b613b028161258a565b15613b1f5760405162461bcd60e51b815260040161098e90614e62565b613b2b60008383613cec565b6001600160a01b038216600090815260c960205260409020613b4d9082613d03565b50613b5a60ca8284613d0f565b5060405181906001600160a01b038416906000907fddf252ad1be2c89b69c2b068fc378daa952ba7f163c4a11628f55a4df523b3ef908290a45050565b6000818310613ba65781611027565b5090919050565b6000610b1d82614135565b613bca826001600160a01b031661414d565b613be65760405162461bcd60e51b815260040161098e90615580565b60006060836001600160a01b031683604051613c029190614a66565b6000604051808303816000865af19150503d8060008114613c3f576040519150601f19603f3d011682016040523d82523d6000602084013e613c44565b606091505b509150915081613c665760405162461bcd60e51b815260040161098e90614fde565b8051156121355780806020019051810190613c819190614774565b6121355760405162461bcd60e51b815260040161098e90615485565b60006001600160a01b03821663b93f9b0a6016612d81565b60008183613cd65760405162461bcd60e51b815260040161098e9190614c84565b506000838581613ce257fe5b0495945050505050565b610a46838383614186565b600061102783836141b6565b6000611027838361427c565b6000610af884846001600160a01b0385166142c6565b6000610b1d8261435d565b6000611027836001600160a01b03841661427c565b81546000908210613d685760405162461bcd60e51b815260040161098e90614c97565b826000018281548110613d7757fe5b9060005260206000200154905092915050565b6000611027836001600160a01b0384166141b6565b815460009081908310613dc45760405162461bcd60e51b815260040161098e90615197565b6000846000018481548110613dd557fe5b906000526020600020906002020190508060000154816001015492509250509250929050565b6000610b1d82614375565b60006001600160a01b03821663b93f9b0a600e612d81565b60008281526001840160205260408120548281613e4e5760405162461bcd60e51b815260040161098e9190614c84565b50846000016001820381548110613e6157fe5b9060005260206000209060020201600101549150509392505050565b60008184841115613ea15760405162461bcd60e51b815260040161098e9190614c84565b505050900390565b60009081526001919091016020526040902054151590565b6001600160e01b03198082161415613eeb5760405162461bcd60e51b815260040161098e90614e2b565b6001600160e01b0319166000908152609760205260409020805460ff19166001179055565b6000613f24846001600160a01b031661414d565b613f3057506001610af8565b600060606001600160a01b038616630a85bd0160e11b613f4e612597565b898888604051602401613f649493929190614b17565b60408051601f198184030181529181526020820180516001600160e01b03166001600160e01b0319909416939093179092529051613fa29190614a66565b6000604051808303816000865af19150503d8060008114613fdf576040519150601f19603f3d011682016040523d82523d6000602084013e613fe4565b606091505b50915091508161401657805115613ffe5780518082602001fd5b60405162461bcd60e51b815260040161098e90614dbd565b60008180602001905181019061402c9190614809565b6001600160e01b031916630a85bd0160e11b149350610af892505050565b600080614072670de0b6b3a7640000610e056101cb546101c854612b6690919063ffffffff16565b9050600061409b670de0b6b3a7640000610e056101cc546101c854612b6690919063ffffffff16565b6101ce549091508282116140b55760009350505050610964565b828110156140cb576101ca549350505050610964565b818111156140e1576101c9549350505050610964565b61411961410f6140f18486613347565b610e056140fe8588613347565b6101c9546101ca54610dff91613347565b6101ca5490613347565b935050505090565b60018101548154600091610b1d9190612aa1565b60006001600160a01b03821663b93f9b0a6012612d81565b6000813f7fc5d2460186f7233c927e7db2dcc703c0e500b653ca82273b7bfad8045d85a470818114801590610af8575050151592915050565b614191838383610a46565b614199611330565b15610a465760405162461bcd60e51b815260040161098e90614cd9565b6000818152600183016020526040812054801561427257835460001980830191908101906000908790839081106141e957fe5b906000526020600020015490508087600001848154811061420657fe5b60009182526020808320909101929092558281526001898101909252604090209084019055865487908061423657fe5b60019003818190600052602060002001600090559055866001016000878152602001908152602001600020600090556001945050505050610b1d565b6000915050610b1d565b60006142888383613ea9565b6142be57508154600181810184556000848152602080822090930184905584548482528286019093526040902091909155610b1d565b506000610b1d565b60008281526001840160205260408120548061432b575050604080518082018252838152602080820184815286546001818101895560008981528481209551600290930290950191825591519082015586548684528188019092529290912055611027565b8285600001600183038154811061433e57fe5b9060005260206000209060020201600101819055506000915050611027565b60006001600160a01b03821663b93f9b0a6004612d81565b60006001600160a01b03821663b93f9b0a6013612d81565b6040518060e00160405280600081526020016143a7614459565b81526020016000815260200160008152602001600060018111156143c757fe5b815260200160008152602001600081525090565b828054600181600116156101000203166002900490600052602060002090601f016020900481019282601f1061441c57805160ff1916838001178555614449565b82800160010185558215614449579182015b8281111561444957825182559160200191906001019061442e565b5061445592915061448f565b5090565b6040518060c001604052806000815260200160008152602001600081526020016000815260200160008152602001600081525090565b5b808211156144555760008155600101614490565b60008083601f8401126144b5578182fd5b50813567ffffffffffffffff8111156144cc578182fd5b602083019150836020808302850101111561311c57600080fd5b803560028110610b1d57600080fd5b600060208284031215614506578081fd5b81356110278161576d565b600060208284031215614522578081fd5b81516110278161576d565b6000806040838503121561453f578081fd5b823561454a8161576d565b9150602083013561455a8161576d565b809150509250929050565b600080600060608486031215614579578081fd5b83356145848161576d565b925060208401356145948161576d565b929592945050506040919091013590565b600080600080608085870312156145ba578081fd5b84356145c58161576d565b93506020858101356145d68161576d565b935060408601359250606086013567ffffffffffffffff808211156145f9578384fd5b818801915088601f83011261460c578384fd5b81358181111561461a578485fd5b604051601f8201601f1916810185018381118282101715614639578687fd5b60405281815283820185018b101561464f578586fd5b81858501868301379081019093019390935250939692955090935050565b6000806040838503121561467f578182fd5b823561468a8161576d565b9150602083013561455a81615782565b6000806040838503121561453f578182fd5b600080604083850312156146be578182fd5b82356146c98161576d565b946020939093013593505050565b6000806000606084860312156146eb578283fd5b83356146f68161576d565b95602085013595506040909401359392505050565b60008060008060408587031215614720578081fd5b843567ffffffffffffffff80821115614737578283fd5b614743888389016144a4565b9096509450602087013591508082111561475b578283fd5b50614768878288016144a4565b95989497509550505050565b600060208284031215614785578081fd5b815161102781615782565b6000602082840312156147a1578081fd5b5035919050565b600080604083850312156147ba578182fd5b82359150602083013561455a8161576d565b600080604083850312156147de578182fd5b50508035926020909101359150565b6000602082840312156147fe578081fd5b813561102781615790565b60006020828403121561481a578081fd5b815161102781615790565b600060208284031215614836578081fd5b61102783836144e6565b60008060208385031215614852578182fd5b823567ffffffffffffffff80821115614869578384fd5b818501915085601f83011261487c578384fd5b81358181111561488a578485fd5b86602082850101111561489b578485fd5b60209290920196919550909350505050565b6000602082840312156148be578081fd5b5051919050565b600080604083850312156148d7578182fd5b823591506148e884602085016144e6565b90509250929050565b60008060008060808587031215614906578182fd5b5050823594602084013594506040840135936060013592509050565b600080600080600060a08688031215614939578283fd5b505083359560208501359550604085013594606081013594506080013592509050565b600080600080600060a08688031215614973578283fd5b8535945060208601359350604086013560ff81168114614991578384fd5b94979396509394606081013594506080013592915050565b8060005b60028110156121355781518452602093840193909101906001016149ad565b81835260006001600160fb1b038311156149e4578081fd5b6020830280836020870137939093016020019283525090919050565b60008151808452614a18816020860160208601615741565b601f01601f19169290920160200192915050565b805182526020810151602083015260408101516040830152606081015160608301526080810151608083015260a081015160a08301525050565b60008251614a78818460208701615741565b9190910192915050565b6000808454600180821660008114614aa15760018114614ab857614ae7565b60ff198316865260028304607f1686019350614ae7565b600283048886526020808720875b83811015614adf5781548a820152908501908201614ac6565b505050860193505b5050508351614afa818360208801615741565b01949350505050565b6001600160a01b0391909116815260200190565b6001600160a01b0385811682528416602082015260408101839052608060608201819052600090610efa90830184614a00565b6001600160a01b0397881681529590961660208601526040850193909352606084019190915260ff16608083015260a082015260c081019190915260e00190565b6001600160a01b0392831681529116602082015260400190565b6001600160a01b039384168152919092166020820152604081019190915260600190565b6001600160a01b03929092168252602082015260400190565b60408101610b1d82846149a9565b60a08101614bfe82876149a9565b604082019490945291151560608301526001600160a01b0316608090910152919050565b600060408252614c366040830186886149cc565b8281036020840152614c498185876149cc565b979650505050505050565b901515815260200190565b90815260200190565b60408101614c7584615736565b82528260208301529392505050565b6000602082526110276020830184614a00565b60208082526022908201527f456e756d657261626c655365743a20696e646578206f7574206f6620626f756e604082015261647360f01b606082015260800190565b6020808252602b908201527f4552433732315061757361626c653a20746f6b656e207472616e73666572207760408201526a1a1a5b19481c185d5cd95960aa1b606082015260800190565b60208082526002908201526111d360f21b604082015260600190565b6020808252602f908201527f416363657373436f6e74726f6c3a2073656e646572206d75737420626520616e60408201526e0818591b5a5b881d1bc819dc985b9d608a1b606082015260800190565b60208082526014908201527314185d5cd8589b194e881b9bdd081c185d5cd95960621b604082015260600190565b60208082526032908201527f4552433732313a207472616e7366657220746f206e6f6e20455243373231526560408201527131b2b4bb32b91034b6b83632b6b2b73a32b960711b606082015260800190565b602080825260029082015261105160f21b604082015260600190565b6020808252601c908201527f4552433136353a20696e76616c696420696e7465726661636520696400000000604082015260600190565b6020808252601c908201527f4552433732313a20746f6b656e20616c7265616479206d696e74656400000000604082015260600190565b6020808252600490820152635a45524f60e01b604082015260600190565b6020808252601b908201527f536166654d6174683a206164646974696f6e206f766572666c6f770000000000604082015260600190565b6020808252603e908201527f4552433732315072657365744d696e7465725061757365724175746f49643a2060408201527f6d75737420686176652070617573657220726f6c6520746f2070617573650000606082015260800190565b60208082526024908201527f4552433732313a207472616e7366657220746f20746865207a65726f206164646040820152637265737360e01b606082015260800190565b60208082526019908201527822a9219b99189d1030b8383937bb32903a379031b0b63632b960391b604082015260600190565b602080825260029082015261141560f21b604082015260600190565b6020808252818101527f5361666545524332303a206c6f772d6c6576656c2063616c6c206661696c6564604082015260600190565b6020808252602c908201527f4552433732313a206f70657261746f7220717565727920666f72206e6f6e657860408201526b34b9ba32b73a103a37b5b2b760a11b606082015260800190565b60208082526030908201527f416363657373436f6e74726f6c3a2073656e646572206d75737420626520616e60408201526f2061646d696e20746f207265766f6b6560801b606082015260800190565b602080825260029082015261494d60f01b604082015260600190565b60208082526010908201526f14185d5cd8589b194e881c185d5cd95960821b604082015260600190565b60208082526038908201527f4552433732313a20617070726f76652063616c6c6572206973206e6f74206f776040820152771b995c881b9bdc88185c1c1c9bdd995908199bdc88185b1b60421b606082015260800190565b6020808252602a908201527f4552433732313a2062616c616e636520717565727920666f7220746865207a65604082015269726f206164647265737360b01b606082015260800190565b60208082526022908201527f456e756d657261626c654d61703a20696e646578206f7574206f6620626f756e604082015261647360f01b606082015260800190565b6020808252600390820152624c4f5760e81b604082015260600190565b6020808252818101527f4552433732313a206d696e7420746f20746865207a65726f2061646472657373604082015260600190565b60208082526021908201527f536166654d6174683a206d756c7469706c69636174696f6e206f766572666c6f6040820152607760f81b606082015260800190565b6020808252602c908201527f4552433732313a20617070726f76656420717565727920666f72206e6f6e657860408201526b34b9ba32b73a103a37b5b2b760a11b606082015260800190565b602080825260029082015261494160f01b604082015260600190565b6020808252602e908201527f436f6e747261637420696e7374616e63652068617320616c726561647920626560408201526d195b881a5b9a5d1a585b1a5e995960921b606082015260800190565b60208082526029908201527f4552433732313a207472616e73666572206f6620746f6b656e2074686174206960408201526839903737ba1037bbb760b91b606082015260800190565b6020808252602f908201527f4552433732314d657461646174613a2055524920717565727920666f72206e6f60408201526e3732bc34b9ba32b73a103a37b5b2b760891b606082015260800190565b6020808252600390820152622622a760e91b604082015260600190565b60208082526021908201527f4552433732313a20617070726f76616c20746f2063757272656e74206f776e656040820152603960f91b606082015260800190565b602080825260029082015261125560f21b604082015260600190565b60208082526031908201527f4552433732313a207472616e736665722063616c6c6572206973206e6f74206f6040820152701ddb995c881b9bdc88185c1c1c9bdd9959607a1b606082015260800190565b6020808252602a908201527f5361666545524332303a204552433230206f7065726174696f6e20646964206e6040820152691bdd081cdd58d8d9595960b21b606082015260800190565b602080825260029082015261049560f41b604082015260600190565b6020808252601f908201527f5265656e7472616e637947756172643a207265656e7472616e742063616c6c00604082015260600190565b602080825260409082018190527f4552433732315072657365744d696e7465725061757365724175746f49643a20908201527f6d75737420686176652070617573657220726f6c6520746f20756e7061757365606082015260800190565b6020808252601f908201527f5361666545524332303a2063616c6c20746f206e6f6e2d636f6e747261637400604082015260600190565b6020808252602f908201527f416363657373436f6e74726f6c3a2063616e206f6e6c792072656e6f756e636560408201526e103937b632b9903337b91039b2b63360891b606082015260800190565b8151815260208083015161018083019161562290840182614a2c565b50604083015160e0830152606083015161010083015260808301516002811061564757fe5b61012083015260a083015161014083015260c0909201516101609091015290565b8281526040810161567883615736565b60208301529392505050565b8381526060810161569484615736565b6020830152826040830152949350505050565b87815261018081016156bc6020830189614a2c565b8660e0830152856101008301526156d285615736565b610120830152610140820193909352610160015295945050505050565b918252602082015260400190565b9283526020830191909152604082015260600190565b948552602085019390935260408401919091526060830152608082015260a00190565b80600281106108cb57fe5b60005b8381101561575c578181015183820152602001615744565b838111156121355750506000910152565b6001600160a01b038116811461363057600080fd5b801515811461363057600080fd5b6001600160e01b03198116811461363057600080fdfeb19546dff01e856fb3f010c267a7b1c60363cf8a4664e21cc89c26224620214e4552433732313a206f776e657220717565727920666f72206e6f6e6578697374656e7420746f6b656e65d7a28e3265b37a6474929f336521b332c1681b933f6cb9f3376673440d862aa2646970667358221220f151e189e5e96dc6ba1482db42b5873e073fa339d98cad1108a4ceaa77d0491564736f6c634300060c0033",
  "devdoc": {
    "kind": "dev",
    "methods": {
      "addToStake(uint256,uint256)": {
        "params": {
          "amount": "Amount of `stakingToken()` to be added to tokenId's position",
          "tokenId": "A staking position token ID"
        }
      },
      "approve(address,uint256)": {
        "details": "Approves another address to transfer the given token ID The zero address indicates there is no approved address. There can only be one approved address per token at a given time. Can only be called by the token owner or an approved operator.",
        "params": {
          "to": "address to be approved for the given token ID",
          "tokenId": "uint256 ID of the token to be approved"
        }
      },
      "balanceOf(address)": {
        "details": "Gets the balance of the specified address.",
        "params": {
          "owner": "address to query the balance of"
        },
        "returns": {
          "_0": "uint256 representing the amount owned by the passed address"
        }
      },
      "baseURI()": {
        "details": "Returns the base URI set via {_setBaseURI}. This will be automatically added as a prefix in {tokenURI} to each token's URI, or to the token ID if no specific URI is set for that token ID."
      },
      "claimableRewards(uint256)": {
        "returns": {
          "rewards": "Amount of rewards denominated in `rewardsToken()`"
        }
      },
      "currentEarnRatePerToken()": {
        "returns": {
          "_0": "Amount of rewards denominated in `rewardsToken().decimals()`."
        }
      },
      "depositAndStake(uint256)": {
        "params": {
          "usdcAmount": "The amount of USDC to deposit into the senior pool. All shares from deposit   will be staked."
        }
      },
      "depositToCurve(uint256,uint256)": {
        "params": {
          "fiduAmount": "The amount of FIDU to deposit",
          "usdcAmount": "The amount of USDC to deposit"
        }
      },
      "depositToCurveAndStakeFrom(address,uint256,uint256)": {
        "params": {
          "fiduAmount": "The amount of FIDU to deposit",
          "usdcAmount": "The amount of USDC to deposit"
        }
      },
      "depositWithPermitAndStake(uint256,uint256,uint8,bytes32,bytes32)": {
        "params": {
          "r": "secp256k1 signature component",
          "s": "secp256k1 signature component",
          "usdcAmount": "The amount of USDC to deposit",
          "v": "secp256k1 signature component"
        }
      },
      "earnedSinceLastCheckpoint(uint256)": {
        "params": {
          "tokenId": "A staking position token ID"
        },
        "returns": {
          "_0": "Amount of rewards denominated in `rewardsToken().decimals()`"
        }
      },
      "getApproved(uint256)": {
        "details": "Gets the approved address for a token ID, or zero if no address set Reverts if the token ID does not exist.",
        "params": {
          "tokenId": "uint256 ID of the token to query the approval of"
        },
        "returns": {
          "_0": "address currently approved for the given token ID"
        }
      },
      "getBaseTokenExchangeRate(uint8)": {
        "params": {
          "positionType": "Type of the staked postion"
        }
      },
      "getReward(uint256)": {
        "params": {
          "tokenId": "A staking position token ID"
        }
      },
      "getRoleAdmin(bytes32)": {
        "details": "Returns the admin role that controls `role`. See {grantRole} and {revokeRole}. To change a role's admin, use {_setRoleAdmin}."
      },
      "getRoleMember(bytes32,uint256)": {
        "details": "Returns one of the accounts that have `role`. `index` must be a value between 0 and {getRoleMemberCount}, non-inclusive. Role bearers are not sorted in any particular way, and their ordering may change at any point. WARNING: When using {getRoleMember} and {getRoleMemberCount}, make sure you perform all queries on the same block. See the following https://forum.openzeppelin.com/t/iterating-over-elements-on-enumerableset-in-openzeppelin-contracts/2296[forum post] for more information."
      },
      "getRoleMemberCount(bytes32)": {
        "details": "Returns the number of accounts that have `role`. Can be used together with {getRoleMember} to enumerate all bearers of a role."
      },
      "grantRole(bytes32,address)": {
        "details": "Grants `role` to `account`. If `account` had not been already granted `role`, emits a {RoleGranted} event. Requirements: - the caller must have ``role``'s admin role."
      },
      "hasRole(bytes32,address)": {
        "details": "Returns `true` if `account` has been granted `role`."
      },
      "isApprovedForAll(address,address)": {
        "details": "Tells whether an operator is approved by a given owner.",
        "params": {
          "operator": "operator address which you want to query the approval of",
          "owner": "owner address which you want to query the approval of"
        },
        "returns": {
          "_0": "bool whether the given operator is approved by the given owner"
        }
      },
      "kick(uint256)": {
        "details": "This will also checkpoint their rewards up to the current time."
      },
      "name()": {
        "details": "Gets the token name.",
        "returns": {
          "_0": "string representing the token name"
        }
      },
      "ownerOf(uint256)": {
        "details": "Gets the owner of the specified token ID.",
        "params": {
          "tokenId": "uint256 ID of the token to query the owner of"
        },
        "returns": {
          "_0": "address currently marked as the owner of the given token ID"
        }
      },
      "pause()": {
        "details": "Pauses all token transfers. See {ERC721Pausable} and {Pausable-_pause}. Requirements: - the caller must have the `PAUSER_ROLE`."
      },
      "paused()": {
        "details": "Returns true if the contract is paused, and false otherwise."
      },
      "positionCurrentEarnRate(uint256)": {
        "returns": {
          "_0": "Amount of rewards denominated in `rewardsToken().decimals()`."
        }
      },
      "renounceRole(bytes32,address)": {
        "details": "Revokes `role` from the calling account. Roles are often managed via {grantRole} and {revokeRole}: this function's purpose is to provide a mechanism for accounts to lose their privileges if they are compromised (such as when a trusted device is misplaced). If the calling account had been granted `role`, emits a {RoleRevoked} event. Requirements: - the caller must be `account`."
      },
      "revokeRole(bytes32,address)": {
        "details": "Revokes `role` from `account`. If `account` had been granted `role`, emits a {RoleRevoked} event. Requirements: - the caller must have ``role``'s admin role."
      },
      "rewardPerToken()": {
        "returns": {
          "_0": "Amount of rewards denominated in `rewardsToken().decimals()`"
        }
      },
      "safeTransferFrom(address,address,uint256)": {
        "details": "Safely transfers the ownership of a given token ID to another address If the target address is a contract, it must implement {IERC721Receiver-onERC721Received}, which is called upon a safe transfer, and return the magic value `bytes4(keccak256(\"onERC721Received(address,address,uint256,bytes)\"))`; otherwise, the transfer is reverted. Requires the msg.sender to be the owner, approved, or operator",
        "params": {
          "from": "current owner of the token",
          "to": "address to receive the ownership of the given token ID",
          "tokenId": "uint256 ID of the token to be transferred"
        }
      },
      "safeTransferFrom(address,address,uint256,bytes)": {
        "details": "Safely transfers the ownership of a given token ID to another address If the target address is a contract, it must implement {IERC721Receiver-onERC721Received}, which is called upon a safe transfer, and return the magic value `bytes4(keccak256(\"onERC721Received(address,address,uint256,bytes)\"))`; otherwise, the transfer is reverted. Requires the _msgSender() to be the owner, approved, or operator",
        "params": {
          "_data": "bytes data to send along with a safe transfer check",
          "from": "current owner of the token",
          "to": "address to receive the ownership of the given token ID",
          "tokenId": "uint256 ID of the token to be transferred"
        }
      },
      "setApprovalForAll(address,bool)": {
        "details": "Sets or unsets the approval of a given operator An operator is allowed to transfer all tokens of the sender on their behalf.",
        "params": {
          "approved": "representing the status of the approval to be set",
          "operator": "operator address to set the approval"
        }
      },
      "setEffectiveMultiplier(uint256,uint8)": {
        "params": {
          "multiplier": "the new multiplier, denominated in `MULTIPLIER_DECIMALS`",
          "positionType": "the type of the position"
        }
      },
      "stake(uint256,uint8)": {
        "details": "This function checkpoints rewards.",
        "params": {
          "amount": "The amount of `stakingToken()` to stake",
          "positionType": "The type of the staked position"
        },
        "returns": {
          "_0": "Id of the NFT representing the staked position"
        }
      },
      "stakedBalanceOf(uint256)": {
        "details": "The value returned is the bare amount, not the effective amount. The bare amount represents   the number of tokens the user has staked for a given position.",
        "params": {
          "tokenId": "A staking position token ID"
        },
        "returns": {
          "_0": "Amount of staked tokens denominated in `stakingToken().decimals()`"
        }
      },
      "supportsInterface(bytes4)": {
        "details": "See {IERC165-supportsInterface}. Time complexity O(1), guaranteed to always use less than 30 000 gas."
      },
      "symbol()": {
        "details": "Gets the token symbol.",
        "returns": {
          "_0": "string representing the token symbol"
        }
      },
      "tokenByIndex(uint256)": {
        "details": "Gets the token ID at a given index of all the tokens in this contract Reverts if the index is greater or equal to the total number of tokens.",
        "params": {
          "index": "uint256 representing the index to be accessed of the tokens list"
        },
        "returns": {
          "_0": "uint256 token ID at the given index of the tokens list"
        }
      },
      "tokenOfOwnerByIndex(address,uint256)": {
        "details": "Gets the token ID at a given index of the tokens list of the requested owner.",
        "params": {
          "index": "uint256 representing the index to be accessed of the requested tokens list",
          "owner": "address owning the tokens list to be accessed"
        },
        "returns": {
          "_0": "uint256 token ID at the given index of the tokens list owned by the requested address"
        }
      },
      "tokenURI(uint256)": {
        "details": "Returns the URI for a given token ID. May return an empty string. If a base URI is set (via {_setBaseURI}), it is added as a prefix to the token's own URI (via {_setTokenURI}). If there is a base URI but no token URI, the token's ID will be used as its URI when appending it to the base URI. This pattern for autogenerated token URIs can lead to large gas savings. .Examples |=== |`_setBaseURI()` |`_setTokenURI()` |`tokenURI()` | \"\" | \"\" | \"\" | \"\" | \"token.uri/123\" | \"token.uri/123\" | \"token.uri/\" | \"123\" | \"token.uri/123\" | \"token.uri/\" | \"\" | \"token.uri/<tokenId>\" |=== Requirements: - `tokenId` must exist."
      },
      "totalSupply()": {
        "details": "Gets the total amount of tokens stored by the contract.",
        "returns": {
          "_0": "uint256 representing the total amount of tokens"
        }
      },
      "totalVestedAt(uint256,uint256,uint256,uint256)": {
        "returns": {
          "rewards": "Amount of rewards denominated in `rewardsToken()`"
        }
      },
      "transferFrom(address,address,uint256)": {
        "details": "Transfers the ownership of a given token ID to another address. Usage of this method is discouraged, use {safeTransferFrom} whenever possible. Requires the msg.sender to be the owner, approved, or operator.",
        "params": {
          "from": "current owner of the token",
          "to": "address to receive the ownership of the given token ID",
          "tokenId": "uint256 ID of the token to be transferred"
        }
      },
      "unpause()": {
        "details": "Unpauses all token transfers. See {ERC721Pausable} and {Pausable-_unpause}. Requirements: - the caller must have the `PAUSER_ROLE`."
      },
      "unstake(uint256,uint256)": {
        "details": "This function checkpoints rewards",
        "params": {
          "amount": "Amount of `stakingToken()` to be unstaked from the position",
          "tokenId": "A staking position token ID"
        }
      },
      "unstakeMultiple(uint256[],uint256[])": {
        "details": "This function checkpoints rewards",
        "params": {
          "amounts": "A list of amounts of `stakingToken()` to be unstaked from the position",
          "tokenIds": "A list of position token IDs"
        }
      },
      "updatePositionEffectiveMultiplier(uint256)": {
        "details": "This will also checkpoint their rewards up to the current time."
      }
    },
    "stateVariables": {
      "effectiveMultipliers": {
        "details": "A mapping of staked position types to multipliers used to denominate positions   in `baseStakingToken()`. Represented with `MULTIPLIER_DECIMALS`."
      },
      "leverageMultipliers": {
        "details": "UNUSED (definition kept for storage slot)"
      },
      "positions": {
        "details": "NFT tokenId => staked position"
      },
      "totalLeveragedStakedSupply": {
        "details": "UNUSED (definition kept for storage slot)"
      },
      "totalStakedSupply": {
        "details": "Supply of staked tokens, denominated in `stakingToken().decimals()`Note that due to the use of `unsafeBaseTokenExchangeRate` and `unsafeEffectiveMultiplier` on a StakedPosition, the sum of `amount` across all staked positions will not necessarily equal this `totalStakedSupply` value; the purpose of the base token exchange rate and the effective multiplier is to enable calculation of an \"effective amount\" -- which is what this `totalStakedSupply` represents the sum of."
      },
      "vestingLength": {
        "details": "UNUSED (definition kept for storage slot)"
      }
    },
    "version": 1
  },
  "userdoc": {
    "kind": "user",
    "methods": {
      "accumulatedRewardsPerToken()": {
        "notice": "Accumulated rewards per token at the last checkpoint"
      },
      "addToStake(uint256,uint256)": {
        "notice": "Add `amount` to an existing FIDU position (`tokenId`)"
      },
      "claimableRewards(uint256)": {
        "notice": "Returns the rewards claimable by a given position token at the most recent checkpoint, taking into   account vesting schedule for legacy positions."
      },
      "currentEarnRatePerToken()": {
        "notice": "The amount of rewards currently being earned per token per second. This amount takes into   account how many rewards are actually available for disbursal -- unlike `rewardRate()` which does not.   This function is intended for public consumption, to know the rate at which rewards are being   earned, and not as an input to the mutative calculations in this contract."
      },
      "depositAndStake(uint256)": {
        "notice": "Deposit to SeniorPool and stake your shares in the same transaction."
      },
      "depositToCurve(uint256,uint256)": {
        "notice": "Deposits FIDU and USDC to Curve on behalf of the user. The Curve LP tokens will be minted   directly to the user's address"
      },
      "depositToCurveAndStakeFrom(address,uint256,uint256)": {
        "notice": "Deposit to FIDU and USDC into the Curve LP, and stake your Curve LP tokens in the same transaction."
      },
      "depositWithPermitAndStake(uint256,uint256,uint8,bytes32,bytes32)": {
        "notice": "Identical to `depositAndStake`, except it allows for a signature to be passed that permits   this contract to move funds on behalf of the user."
      },
      "earnedSinceLastCheckpoint(uint256)": {
        "notice": "Returns rewards earned by a given position token from its last checkpoint up to the   current block timestamp."
      },
      "getBaseTokenExchangeRate(uint8)": {
        "notice": "Calculate the exchange rate that will be used to convert the original staked token amount to the   `baseStakingToken()` amount. The exchange rate is denominated in `MULTIPLIER_DECIMALS`."
      },
      "getEffectiveMultiplierForPositionType(uint8)": {
        "notice": "The effective multiplier to use with new staked positions of the provided `positionType`,   for denominating them in terms of `baseStakingToken()`. This value is denominated in `MULTIPLIER_DECIMALS`."
      },
      "getReward(uint256)": {
        "notice": "Claim rewards for a given staked position"
      },
      "kick(uint256)": {
        "notice": "\"Kick\" a user's reward multiplier. If they are past their lock-up period, their reward   multiplier will be reset to 1x."
      },
      "lastUpdateTime()": {
        "notice": "The block timestamp when rewards were last checkpointed"
      },
      "loadRewards(uint256)": {
        "notice": "Transfer rewards from msg.sender, to be used for reward distribution"
      },
      "maxRate()": {
        "notice": "The maximum total disbursed rewards per second, denominated in `rewardsToken()`"
      },
      "maxRateAtPercent()": {
        "notice": "The percent of `targetCapacity` at which the reward rate reaches `maxRate`.  Represented with `MULTIPLIER_DECIMALS`."
      },
      "minRate()": {
        "notice": "The minimum total disbursed rewards per second, denominated in `rewardsToken()`"
      },
      "minRateAtPercent()": {
        "notice": "The percent of `targetCapacity` at which the reward rate reaches `minRate`.  Represented with `MULTIPLIER_DECIMALS`."
      },
      "positionCurrentEarnRate(uint256)": {
        "notice": "The amount of rewards currently being earned per second, for a given position. This function   is intended for public consumption, to know the rate at which rewards are being earned   for a given position, and not as an input to the mutative calculations in this contract."
      },
      "positionToAccumulatedRewardsPerToken(uint256)": {
        "notice": "StakedPosition tokenId => accumulatedRewardsPerToken at the position's last checkpoint"
      },
      "rewardPerToken()": {
        "notice": "Returns accumulated rewards per token up to the current block timestamp"
      },
      "rewardsAvailable()": {
        "notice": "Total rewards available for disbursement at the last checkpoint, denominated in `rewardsToken()`"
      },
      "setEffectiveMultiplier(uint256,uint8)": {
        "notice": "Set the effective multiplier for a given staked position type. The effective multipler  is used to denominate a staked position to `baseStakingToken()`. The multiplier is represented in  `MULTIPLIER_DECIMALS`"
      },
      "stake(uint256,uint8)": {
        "notice": "Stake `stakingToken()` to earn rewards. When you call this function, you'll receive an   an NFT representing your staked position. You can present your NFT to `getReward` or `unstake`   to claim rewards or unstake your tokens respectively."
      },
      "stakedBalanceOf(uint256)": {
        "notice": "Returns the staked balance of a given position token."
      },
      "targetCapacity()": {
        "notice": "Desired supply of staked tokens. The reward rate adjusts in a range   around this value to incentivize staking or unstaking to maintain it."
      },
      "totalVestedAt(uint256,uint256,uint256,uint256)": {
        "notice": "Returns the rewards that will have vested for some position with the given params."
      },
      "unstake(uint256,uint256)": {
        "notice": "Unstake an amount of `stakingToken()` associated with a given position and transfer to msg.sender.   Any remaining staked amount will continue to accrue rewards."
      },
      "unstakeMultiple(uint256[],uint256[])": {
        "notice": "Unstake multiple positions and transfer to msg.sender."
      },
      "updatePositionEffectiveMultiplier(uint256)": {
        "notice": "Updates a user's effective multiplier to the prevailing multiplier. This function gives   users an option to get on a higher multiplier without needing to unstake."
      },
      "vestingLength()": {
        "notice": "The duration in seconds over which legacy rewards vest. New positions have no vesting  and earn rewards immediately."
      }
    },
    "version": 1
  },
  "storageLayout": {
    "storage": [
      {
        "astId": 50,
        "contract": "contracts/rewards/StakingRewards.sol:StakingRewards",
        "label": "initialized",
        "offset": 0,
        "slot": "0",
        "type": "t_bool"
      },
      {
        "astId": 53,
        "contract": "contracts/rewards/StakingRewards.sol:StakingRewards",
        "label": "initializing",
        "offset": 1,
        "slot": "0",
        "type": "t_bool"
      },
      {
        "astId": 118,
        "contract": "contracts/rewards/StakingRewards.sol:StakingRewards",
        "label": "______gap",
        "offset": 0,
        "slot": "1",
        "type": "t_array(t_uint256)50_storage"
      },
      {
        "astId": 43,
        "contract": "contracts/rewards/StakingRewards.sol:StakingRewards",
        "label": "__gap",
        "offset": 0,
        "slot": "51",
        "type": "t_array(t_uint256)50_storage"
      },
      {
        "astId": 163,
        "contract": "contracts/rewards/StakingRewards.sol:StakingRewards",
        "label": "_roles",
        "offset": 0,
        "slot": "101",
        "type": "t_mapping(t_bytes32,t_struct(RoleData)159_storage)"
      },
      {
        "astId": 408,
        "contract": "contracts/rewards/StakingRewards.sol:StakingRewards",
        "label": "__gap",
        "offset": 0,
        "slot": "102",
        "type": "t_array(t_uint256)49_storage"
      },
      {
        "astId": 6866,
        "contract": "contracts/rewards/StakingRewards.sol:StakingRewards",
        "label": "_supportedInterfaces",
        "offset": 0,
        "slot": "151",
        "type": "t_mapping(t_bytes4,t_bool)"
      },
      {
        "astId": 6923,
        "contract": "contracts/rewards/StakingRewards.sol:StakingRewards",
        "label": "__gap",
        "offset": 0,
        "slot": "152",
        "type": "t_array(t_uint256)49_storage"
      },
      {
        "astId": 6973,
        "contract": "contracts/rewards/StakingRewards.sol:StakingRewards",
        "label": "_holderTokens",
        "offset": 0,
        "slot": "201",
        "type": "t_mapping(t_address,t_struct(UintSet)2901_storage)"
      },
      {
        "astId": 6975,
        "contract": "contracts/rewards/StakingRewards.sol:StakingRewards",
        "label": "_tokenOwners",
        "offset": 0,
        "slot": "202",
        "type": "t_struct(UintToAddressMap)2426_storage"
      },
      {
        "astId": 6979,
        "contract": "contracts/rewards/StakingRewards.sol:StakingRewards",
        "label": "_tokenApprovals",
        "offset": 0,
        "slot": "204",
        "type": "t_mapping(t_uint256,t_address)"
      },
      {
        "astId": 6985,
        "contract": "contracts/rewards/StakingRewards.sol:StakingRewards",
        "label": "_operatorApprovals",
        "offset": 0,
        "slot": "205",
        "type": "t_mapping(t_address,t_mapping(t_address,t_bool))"
      },
      {
        "astId": 6987,
        "contract": "contracts/rewards/StakingRewards.sol:StakingRewards",
        "label": "_name",
        "offset": 0,
        "slot": "206",
        "type": "t_string_storage"
      },
      {
        "astId": 6989,
        "contract": "contracts/rewards/StakingRewards.sol:StakingRewards",
        "label": "_symbol",
        "offset": 0,
        "slot": "207",
        "type": "t_string_storage"
      },
      {
        "astId": 6993,
        "contract": "contracts/rewards/StakingRewards.sol:StakingRewards",
        "label": "_tokenURIs",
        "offset": 0,
        "slot": "208",
        "type": "t_mapping(t_uint256,t_string_storage)"
      },
      {
        "astId": 6995,
        "contract": "contracts/rewards/StakingRewards.sol:StakingRewards",
        "label": "_baseURI",
        "offset": 0,
        "slot": "209",
        "type": "t_string_storage"
      },
      {
        "astId": 7901,
        "contract": "contracts/rewards/StakingRewards.sol:StakingRewards",
        "label": "__gap",
        "offset": 0,
        "slot": "210",
        "type": "t_array(t_uint256)41_storage"
      },
      {
        "astId": 3017,
        "contract": "contracts/rewards/StakingRewards.sol:StakingRewards",
        "label": "_paused",
        "offset": 0,
        "slot": "251",
        "type": "t_bool"
      },
      {
        "astId": 3106,
        "contract": "contracts/rewards/StakingRewards.sol:StakingRewards",
        "label": "__gap",
        "offset": 0,
        "slot": "252",
        "type": "t_array(t_uint256)49_storage"
      },
      {
        "astId": 7969,
        "contract": "contracts/rewards/StakingRewards.sol:StakingRewards",
        "label": "__gap",
        "offset": 0,
        "slot": "301",
        "type": "t_array(t_uint256)50_storage"
      },
      {
        "astId": 8001,
        "contract": "contracts/rewards/StakingRewards.sol:StakingRewards",
        "label": "_tokenIdTracker",
        "offset": 0,
        "slot": "351",
        "type": "t_struct(Counter)2106_storage"
      },
      {
        "astId": 8059,
        "contract": "contracts/rewards/StakingRewards.sol:StakingRewards",
        "label": "__gap",
        "offset": 0,
        "slot": "352",
        "type": "t_array(t_uint256)49_storage"
      },
      {
        "astId": 3115,
        "contract": "contracts/rewards/StakingRewards.sol:StakingRewards",
        "label": "_notEntered",
        "offset": 0,
        "slot": "401",
        "type": "t_bool"
      },
      {
        "astId": 3156,
        "contract": "contracts/rewards/StakingRewards.sol:StakingRewards",
        "label": "__gap",
        "offset": 0,
        "slot": "402",
        "type": "t_array(t_uint256)49_storage"
      },
      {
        "astId": 30991,
        "contract": "contracts/rewards/StakingRewards.sol:StakingRewards",
        "label": "config",
        "offset": 0,
        "slot": "451",
        "type": "t_contract(GoldfinchConfig)16882"
      },
      {
        "astId": 30995,
        "contract": "contracts/rewards/StakingRewards.sol:StakingRewards",
        "label": "lastUpdateTime",
        "offset": 0,
        "slot": "452",
        "type": "t_uint256"
      },
      {
        "astId": 30999,
        "contract": "contracts/rewards/StakingRewards.sol:StakingRewards",
        "label": "accumulatedRewardsPerToken",
        "offset": 0,
        "slot": "453",
        "type": "t_uint256"
      },
      {
        "astId": 31002,
        "contract": "contracts/rewards/StakingRewards.sol:StakingRewards",
        "label": "rewardsAvailable",
        "offset": 0,
        "slot": "454",
        "type": "t_uint256"
      },
      {
        "astId": 31007,
        "contract": "contracts/rewards/StakingRewards.sol:StakingRewards",
        "label": "positionToAccumulatedRewardsPerToken",
        "offset": 0,
        "slot": "455",
        "type": "t_mapping(t_uint256,t_uint256)"
      },
      {
        "astId": 31010,
        "contract": "contracts/rewards/StakingRewards.sol:StakingRewards",
        "label": "targetCapacity",
        "offset": 0,
        "slot": "456",
        "type": "t_uint256"
      },
      {
        "astId": 31013,
        "contract": "contracts/rewards/StakingRewards.sol:StakingRewards",
        "label": "minRate",
        "offset": 0,
        "slot": "457",
        "type": "t_uint256"
      },
      {
        "astId": 31016,
        "contract": "contracts/rewards/StakingRewards.sol:StakingRewards",
        "label": "maxRate",
        "offset": 0,
        "slot": "458",
        "type": "t_uint256"
      },
      {
        "astId": 31019,
        "contract": "contracts/rewards/StakingRewards.sol:StakingRewards",
        "label": "maxRateAtPercent",
        "offset": 0,
        "slot": "459",
        "type": "t_uint256"
      },
      {
        "astId": 31022,
        "contract": "contracts/rewards/StakingRewards.sol:StakingRewards",
        "label": "minRateAtPercent",
        "offset": 0,
        "slot": "460",
        "type": "t_uint256"
      },
      {
        "astId": 31025,
        "contract": "contracts/rewards/StakingRewards.sol:StakingRewards",
        "label": "vestingLength",
        "offset": 0,
        "slot": "461",
        "type": "t_uint256"
      },
      {
        "astId": 31028,
        "contract": "contracts/rewards/StakingRewards.sol:StakingRewards",
        "label": "totalStakedSupply",
        "offset": 0,
        "slot": "462",
        "type": "t_uint256"
      },
      {
        "astId": 31031,
        "contract": "contracts/rewards/StakingRewards.sol:StakingRewards",
        "label": "totalLeveragedStakedSupply",
        "offset": 0,
        "slot": "463",
        "type": "t_uint256"
      },
      {
        "astId": 31036,
        "contract": "contracts/rewards/StakingRewards.sol:StakingRewards",
        "label": "leverageMultipliers",
        "offset": 0,
        "slot": "464",
        "type": "t_mapping(t_enum(LockupPeriod)30978,t_uint256)"
      },
      {
        "astId": 31041,
        "contract": "contracts/rewards/StakingRewards.sol:StakingRewards",
        "label": "positions",
        "offset": 0,
        "slot": "465",
        "type": "t_mapping(t_uint256,t_struct(StakedPosition)11069_storage)"
      },
      {
        "astId": 31046,
        "contract": "contracts/rewards/StakingRewards.sol:StakingRewards",
        "label": "effectiveMultipliers",
        "offset": 0,
        "slot": "466",
        "type": "t_mapping(t_enum(StakedPositionType)11041,t_uint256)"
      }
    ],
    "types": {
      "t_address": {
        "encoding": "inplace",
        "label": "address",
        "numberOfBytes": "20"
      },
      "t_array(t_bytes32)dyn_storage": {
        "base": "t_bytes32",
        "encoding": "dynamic_array",
        "label": "bytes32[]",
        "numberOfBytes": "32"
      },
      "t_array(t_struct(MapEntry)2154_storage)dyn_storage": {
        "base": "t_struct(MapEntry)2154_storage",
        "encoding": "dynamic_array",
        "label": "struct EnumerableMap.MapEntry[]",
        "numberOfBytes": "32"
      },
      "t_array(t_uint256)41_storage": {
        "base": "t_uint256",
        "encoding": "inplace",
        "label": "uint256[41]",
        "numberOfBytes": "1312"
      },
      "t_array(t_uint256)49_storage": {
        "base": "t_uint256",
        "encoding": "inplace",
        "label": "uint256[49]",
        "numberOfBytes": "1568"
      },
      "t_array(t_uint256)50_storage": {
        "base": "t_uint256",
        "encoding": "inplace",
        "label": "uint256[50]",
        "numberOfBytes": "1600"
      },
      "t_bool": {
        "encoding": "inplace",
        "label": "bool",
        "numberOfBytes": "1"
      },
      "t_bytes32": {
        "encoding": "inplace",
        "label": "bytes32",
        "numberOfBytes": "32"
      },
      "t_bytes4": {
        "encoding": "inplace",
        "label": "bytes4",
        "numberOfBytes": "4"
      },
      "t_contract(GoldfinchConfig)16882": {
        "encoding": "inplace",
        "label": "contract GoldfinchConfig",
        "numberOfBytes": "20"
      },
      "t_enum(LockupPeriod)30978": {
        "encoding": "inplace",
        "label": "enum StakingRewards.LockupPeriod",
        "numberOfBytes": "1"
      },
      "t_enum(StakedPositionType)11041": {
        "encoding": "inplace",
        "label": "enum StakedPositionType",
        "numberOfBytes": "1"
      },
      "t_mapping(t_address,t_bool)": {
        "encoding": "mapping",
        "key": "t_address",
        "label": "mapping(address => bool)",
        "numberOfBytes": "32",
        "value": "t_bool"
      },
      "t_mapping(t_address,t_mapping(t_address,t_bool))": {
        "encoding": "mapping",
        "key": "t_address",
        "label": "mapping(address => mapping(address => bool))",
        "numberOfBytes": "32",
        "value": "t_mapping(t_address,t_bool)"
      },
      "t_mapping(t_address,t_struct(UintSet)2901_storage)": {
        "encoding": "mapping",
        "key": "t_address",
        "label": "mapping(address => struct EnumerableSet.UintSet)",
        "numberOfBytes": "32",
        "value": "t_struct(UintSet)2901_storage"
      },
      "t_mapping(t_bytes32,t_struct(RoleData)159_storage)": {
        "encoding": "mapping",
        "key": "t_bytes32",
        "label": "mapping(bytes32 => struct AccessControlUpgradeSafe.RoleData)",
        "numberOfBytes": "32",
        "value": "t_struct(RoleData)159_storage"
      },
      "t_mapping(t_bytes32,t_uint256)": {
        "encoding": "mapping",
        "key": "t_bytes32",
        "label": "mapping(bytes32 => uint256)",
        "numberOfBytes": "32",
        "value": "t_uint256"
      },
      "t_mapping(t_bytes4,t_bool)": {
        "encoding": "mapping",
        "key": "t_bytes4",
        "label": "mapping(bytes4 => bool)",
        "numberOfBytes": "32",
        "value": "t_bool"
      },
      "t_mapping(t_enum(LockupPeriod)30978,t_uint256)": {
        "encoding": "mapping",
        "key": "t_enum(LockupPeriod)30978",
        "label": "mapping(enum StakingRewards.LockupPeriod => uint256)",
        "numberOfBytes": "32",
        "value": "t_uint256"
      },
      "t_mapping(t_enum(StakedPositionType)11041,t_uint256)": {
        "encoding": "mapping",
        "key": "t_enum(StakedPositionType)11041",
        "label": "mapping(enum StakedPositionType => uint256)",
        "numberOfBytes": "32",
        "value": "t_uint256"
      },
      "t_mapping(t_uint256,t_address)": {
        "encoding": "mapping",
        "key": "t_uint256",
        "label": "mapping(uint256 => address)",
        "numberOfBytes": "32",
        "value": "t_address"
      },
      "t_mapping(t_uint256,t_string_storage)": {
        "encoding": "mapping",
        "key": "t_uint256",
        "label": "mapping(uint256 => string)",
        "numberOfBytes": "32",
        "value": "t_string_storage"
      },
      "t_mapping(t_uint256,t_struct(StakedPosition)11069_storage)": {
        "encoding": "mapping",
        "key": "t_uint256",
        "label": "mapping(uint256 => struct StakedPosition)",
        "numberOfBytes": "32",
        "value": "t_struct(StakedPosition)11069_storage"
      },
      "t_mapping(t_uint256,t_uint256)": {
        "encoding": "mapping",
        "key": "t_uint256",
        "label": "mapping(uint256 => uint256)",
        "numberOfBytes": "32",
        "value": "t_uint256"
      },
      "t_string_storage": {
        "encoding": "bytes",
        "label": "string",
        "numberOfBytes": "32"
      },
      "t_struct(AddressSet)2792_storage": {
        "encoding": "inplace",
        "label": "struct EnumerableSet.AddressSet",
        "members": [
          {
            "astId": 2791,
            "contract": "contracts/rewards/StakingRewards.sol:StakingRewards",
            "label": "_inner",
            "offset": 0,
            "slot": "0",
            "type": "t_struct(Set)2612_storage"
          }
        ],
        "numberOfBytes": "64"
      },
      "t_struct(Counter)2106_storage": {
        "encoding": "inplace",
        "label": "struct Counters.Counter",
        "members": [
          {
            "astId": 2105,
            "contract": "contracts/rewards/StakingRewards.sol:StakingRewards",
            "label": "_value",
            "offset": 0,
            "slot": "0",
            "type": "t_uint256"
          }
        ],
        "numberOfBytes": "32"
      },
      "t_struct(Map)2162_storage": {
        "encoding": "inplace",
        "label": "struct EnumerableMap.Map",
        "members": [
          {
            "astId": 2157,
            "contract": "contracts/rewards/StakingRewards.sol:StakingRewards",
            "label": "_entries",
            "offset": 0,
            "slot": "0",
            "type": "t_array(t_struct(MapEntry)2154_storage)dyn_storage"
          },
          {
            "astId": 2161,
            "contract": "contracts/rewards/StakingRewards.sol:StakingRewards",
            "label": "_indexes",
            "offset": 0,
            "slot": "1",
            "type": "t_mapping(t_bytes32,t_uint256)"
          }
        ],
        "numberOfBytes": "64"
      },
      "t_struct(MapEntry)2154_storage": {
        "encoding": "inplace",
        "label": "struct EnumerableMap.MapEntry",
        "members": [
          {
            "astId": 2151,
            "contract": "contracts/rewards/StakingRewards.sol:StakingRewards",
            "label": "_key",
            "offset": 0,
            "slot": "0",
            "type": "t_bytes32"
          },
          {
            "astId": 2153,
            "contract": "contracts/rewards/StakingRewards.sol:StakingRewards",
            "label": "_value",
            "offset": 0,
            "slot": "1",
            "type": "t_bytes32"
          }
        ],
        "numberOfBytes": "64"
      },
      "t_struct(Rewards)11054_storage": {
        "encoding": "inplace",
        "label": "struct Rewards",
        "members": [
          {
            "astId": 11043,
            "contract": "contracts/rewards/StakingRewards.sol:StakingRewards",
            "label": "totalUnvested",
            "offset": 0,
            "slot": "0",
            "type": "t_uint256"
          },
          {
            "astId": 11045,
            "contract": "contracts/rewards/StakingRewards.sol:StakingRewards",
            "label": "totalVested",
            "offset": 0,
            "slot": "1",
            "type": "t_uint256"
          },
          {
            "astId": 11047,
            "contract": "contracts/rewards/StakingRewards.sol:StakingRewards",
            "label": "totalPreviouslyVested",
            "offset": 0,
            "slot": "2",
            "type": "t_uint256"
          },
          {
            "astId": 11049,
            "contract": "contracts/rewards/StakingRewards.sol:StakingRewards",
            "label": "totalClaimed",
            "offset": 0,
            "slot": "3",
            "type": "t_uint256"
          },
          {
            "astId": 11051,
            "contract": "contracts/rewards/StakingRewards.sol:StakingRewards",
            "label": "startTime",
            "offset": 0,
            "slot": "4",
            "type": "t_uint256"
          },
          {
            "astId": 11053,
            "contract": "contracts/rewards/StakingRewards.sol:StakingRewards",
            "label": "endTime",
            "offset": 0,
            "slot": "5",
            "type": "t_uint256"
          }
        ],
        "numberOfBytes": "192"
      },
      "t_struct(RoleData)159_storage": {
        "encoding": "inplace",
        "label": "struct AccessControlUpgradeSafe.RoleData",
        "members": [
          {
            "astId": 156,
            "contract": "contracts/rewards/StakingRewards.sol:StakingRewards",
            "label": "members",
            "offset": 0,
            "slot": "0",
            "type": "t_struct(AddressSet)2792_storage"
          },
          {
            "astId": 158,
            "contract": "contracts/rewards/StakingRewards.sol:StakingRewards",
            "label": "adminRole",
            "offset": 0,
            "slot": "2",
            "type": "t_bytes32"
          }
        ],
        "numberOfBytes": "96"
      },
      "t_struct(Set)2612_storage": {
        "encoding": "inplace",
        "label": "struct EnumerableSet.Set",
        "members": [
          {
            "astId": 2607,
            "contract": "contracts/rewards/StakingRewards.sol:StakingRewards",
            "label": "_values",
            "offset": 0,
            "slot": "0",
            "type": "t_array(t_bytes32)dyn_storage"
          },
          {
            "astId": 2611,
            "contract": "contracts/rewards/StakingRewards.sol:StakingRewards",
            "label": "_indexes",
            "offset": 0,
            "slot": "1",
            "type": "t_mapping(t_bytes32,t_uint256)"
          }
        ],
        "numberOfBytes": "64"
      },
      "t_struct(StakedPosition)11069_storage": {
        "encoding": "inplace",
        "label": "struct StakedPosition",
        "members": [
          {
            "astId": 11056,
            "contract": "contracts/rewards/StakingRewards.sol:StakingRewards",
            "label": "amount",
            "offset": 0,
            "slot": "0",
            "type": "t_uint256"
          },
          {
            "astId": 11058,
            "contract": "contracts/rewards/StakingRewards.sol:StakingRewards",
            "label": "rewards",
            "offset": 0,
            "slot": "1",
            "type": "t_struct(Rewards)11054_storage"
          },
          {
            "astId": 11060,
            "contract": "contracts/rewards/StakingRewards.sol:StakingRewards",
            "label": "leverageMultiplier",
            "offset": 0,
            "slot": "7",
            "type": "t_uint256"
          },
          {
            "astId": 11062,
            "contract": "contracts/rewards/StakingRewards.sol:StakingRewards",
            "label": "lockedUntil",
            "offset": 0,
            "slot": "8",
            "type": "t_uint256"
          },
          {
            "astId": 11064,
            "contract": "contracts/rewards/StakingRewards.sol:StakingRewards",
            "label": "positionType",
            "offset": 0,
            "slot": "9",
            "type": "t_enum(StakedPositionType)11041"
          },
          {
            "astId": 11066,
            "contract": "contracts/rewards/StakingRewards.sol:StakingRewards",
            "label": "unsafeEffectiveMultiplier",
            "offset": 0,
            "slot": "10",
            "type": "t_uint256"
          },
          {
            "astId": 11068,
            "contract": "contracts/rewards/StakingRewards.sol:StakingRewards",
            "label": "unsafeBaseTokenExchangeRate",
            "offset": 0,
            "slot": "11",
            "type": "t_uint256"
          }
        ],
        "numberOfBytes": "384"
      },
      "t_struct(UintSet)2901_storage": {
        "encoding": "inplace",
        "label": "struct EnumerableSet.UintSet",
        "members": [
          {
            "astId": 2900,
            "contract": "contracts/rewards/StakingRewards.sol:StakingRewards",
            "label": "_inner",
            "offset": 0,
            "slot": "0",
            "type": "t_struct(Set)2612_storage"
          }
        ],
        "numberOfBytes": "64"
      },
      "t_struct(UintToAddressMap)2426_storage": {
        "encoding": "inplace",
        "label": "struct EnumerableMap.UintToAddressMap",
        "members": [
          {
            "astId": 2425,
            "contract": "contracts/rewards/StakingRewards.sol:StakingRewards",
            "label": "_inner",
            "offset": 0,
            "slot": "0",
            "type": "t_struct(Map)2162_storage"
          }
        ],
        "numberOfBytes": "64"
      },
      "t_uint256": {
        "encoding": "inplace",
        "label": "uint256",
        "numberOfBytes": "32"
      }
    }
  }
}