{
  "address": "0xcD123Dd7B07e164bf1b33Fc639A8f7a04C3370b2",
  "abi": [
    {
      "anonymous": false,
      "inputs": [
        {
          "indexed": true,
          "internalType": "address",
          "name": "oldCreditLine",
          "type": "address"
        },
        {
          "indexed": true,
          "internalType": "address",
          "name": "newCreditLine",
          "type": "address"
        }
      ],
      "name": "CreditLineMigrated",
      "type": "event"
    },
    {
      "anonymous": false,
      "inputs": [
        {
          "indexed": true,
          "internalType": "address",
          "name": "owner",
          "type": "address"
        },
        {
          "indexed": true,
          "internalType": "uint256",
          "name": "tranche",
          "type": "uint256"
        },
        {
          "indexed": true,
          "internalType": "uint256",
          "name": "tokenId",
          "type": "uint256"
        },
        {
          "indexed": false,
          "internalType": "uint256",
          "name": "amount",
          "type": "uint256"
        }
      ],
      "name": "DepositMade",
      "type": "event"
    },
    {
      "anonymous": false,
      "inputs": [
        {
          "indexed": true,
          "internalType": "address",
          "name": "borrower",
          "type": "address"
        },
        {
          "indexed": false,
          "internalType": "uint256",
          "name": "amount",
          "type": "uint256"
        }
      ],
      "name": "DrawdownMade",
      "type": "event"
    },
    {
      "anonymous": false,
      "inputs": [
        {
          "indexed": true,
          "internalType": "address",
          "name": "pool",
          "type": "address"
        }
      ],
      "name": "DrawdownsPaused",
      "type": "event"
    },
    {
      "anonymous": false,
      "inputs": [
        {
          "indexed": true,
          "internalType": "address",
          "name": "pool",
          "type": "address"
        }
      ],
      "name": "DrawdownsUnpaused",
      "type": "event"
    },
    {
      "anonymous": false,
      "inputs": [
        {
          "indexed": true,
          "internalType": "address",
          "name": "pool",
          "type": "address"
        }
      ],
      "name": "EmergencyShutdown",
      "type": "event"
    },
    {
      "anonymous": false,
      "inputs": [
        {
          "indexed": false,
          "internalType": "address",
          "name": "account",
          "type": "address"
        }
      ],
      "name": "Paused",
      "type": "event"
    },
    {
      "anonymous": false,
      "inputs": [
        {
          "indexed": true,
          "internalType": "address",
          "name": "payer",
          "type": "address"
        },
        {
          "indexed": true,
          "internalType": "address",
          "name": "pool",
          "type": "address"
        },
        {
          "indexed": false,
          "internalType": "uint256",
          "name": "interestAmount",
          "type": "uint256"
        },
        {
          "indexed": false,
          "internalType": "uint256",
          "name": "principalAmount",
          "type": "uint256"
        },
        {
          "indexed": false,
          "internalType": "uint256",
          "name": "remainingAmount",
          "type": "uint256"
        },
        {
          "indexed": false,
          "internalType": "uint256",
          "name": "reserveAmount",
          "type": "uint256"
        }
      ],
      "name": "PaymentApplied",
      "type": "event"
    },
    {
      "anonymous": false,
      "inputs": [
        {
          "indexed": true,
          "internalType": "address",
          "name": "from",
          "type": "address"
        },
        {
          "indexed": false,
          "internalType": "uint256",
          "name": "amount",
          "type": "uint256"
        }
      ],
      "name": "ReserveFundsCollected",
      "type": "event"
    },
    {
      "anonymous": false,
      "inputs": [
        {
          "indexed": true,
          "internalType": "bytes32",
          "name": "role",
          "type": "bytes32"
        },
        {
          "indexed": true,
          "internalType": "address",
          "name": "account",
          "type": "address"
        },
        {
          "indexed": true,
          "internalType": "address",
          "name": "sender",
          "type": "address"
        }
      ],
      "name": "RoleGranted",
      "type": "event"
    },
    {
      "anonymous": false,
      "inputs": [
        {
          "indexed": true,
          "internalType": "bytes32",
          "name": "role",
          "type": "bytes32"
        },
        {
          "indexed": true,
          "internalType": "address",
          "name": "account",
          "type": "address"
        },
        {
          "indexed": true,
          "internalType": "address",
          "name": "sender",
          "type": "address"
        }
      ],
      "name": "RoleRevoked",
      "type": "event"
    },
    {
      "anonymous": false,
      "inputs": [
        {
          "indexed": true,
          "internalType": "address",
          "name": "pool",
          "type": "address"
        },
        {
          "indexed": true,
          "internalType": "uint256",
          "name": "tranche",
          "type": "uint256"
        },
        {
          "indexed": false,
          "internalType": "uint256",
          "name": "principalSharePrice",
          "type": "uint256"
        },
        {
          "indexed": false,
          "internalType": "int256",
          "name": "principalDelta",
          "type": "int256"
        },
        {
          "indexed": false,
          "internalType": "uint256",
          "name": "interestSharePrice",
          "type": "uint256"
        },
        {
          "indexed": false,
          "internalType": "int256",
          "name": "interestDelta",
          "type": "int256"
        }
      ],
      "name": "SharePriceUpdated",
      "type": "event"
    },
    {
      "anonymous": false,
      "inputs": [
        {
          "indexed": false,
          "internalType": "address",
          "name": "account",
          "type": "address"
        }
      ],
      "name": "Unpaused",
      "type": "event"
    },
    {
      "anonymous": false,
      "inputs": [
        {
          "indexed": true,
          "internalType": "address",
          "name": "owner",
          "type": "address"
        },
        {
          "indexed": true,
          "internalType": "uint256",
          "name": "tranche",
          "type": "uint256"
        },
        {
          "indexed": true,
          "internalType": "uint256",
          "name": "tokenId",
          "type": "uint256"
        },
        {
          "indexed": false,
          "internalType": "uint256",
          "name": "interestWithdrawn",
          "type": "uint256"
        },
        {
          "indexed": false,
          "internalType": "uint256",
          "name": "principalWithdrawn",
          "type": "uint256"
        }
      ],
      "name": "WithdrawalMade",
      "type": "event"
    },
    {
      "inputs": [],
      "name": "DEFAULT_ADMIN_ROLE",
      "outputs": [
        {
          "internalType": "bytes32",
          "name": "",
          "type": "bytes32"
        }
      ],
      "stateMutability": "view",
      "type": "function"
    },
    {
      "inputs": [],
      "name": "FP_SCALING_FACTOR",
      "outputs": [
        {
          "internalType": "uint256",
          "name": "",
          "type": "uint256"
        }
      ],
      "stateMutability": "view",
      "type": "function"
    },
    {
      "inputs": [],
      "name": "LOCKER_ROLE",
      "outputs": [
        {
          "internalType": "bytes32",
          "name": "",
          "type": "bytes32"
        }
      ],
      "stateMutability": "view",
      "type": "function"
    },
    {
      "inputs": [],
      "name": "ONE_HUNDRED",
      "outputs": [
        {
          "internalType": "uint256",
          "name": "",
          "type": "uint256"
        }
      ],
      "stateMutability": "view",
      "type": "function"
    },
    {
      "inputs": [],
      "name": "OWNER_ROLE",
      "outputs": [
        {
          "internalType": "bytes32",
          "name": "",
          "type": "bytes32"
        }
      ],
      "stateMutability": "view",
      "type": "function"
    },
    {
      "inputs": [],
      "name": "PAUSER_ROLE",
      "outputs": [
        {
          "internalType": "bytes32",
          "name": "",
          "type": "bytes32"
        }
      ],
      "stateMutability": "view",
      "type": "function"
    },
    {
      "inputs": [],
      "name": "SECONDS_PER_DAY",
      "outputs": [
        {
          "internalType": "uint256",
          "name": "",
          "type": "uint256"
        }
      ],
      "stateMutability": "view",
      "type": "function"
    },
    {
      "inputs": [
        {
          "internalType": "address",
          "name": "owner",
          "type": "address"
        }
      ],
      "name": "__BaseUpgradeablePausable__init",
      "outputs": [],
      "stateMutability": "nonpayable",
      "type": "function"
    },
    {
      "inputs": [],
      "name": "__PauserPausable__init",
      "outputs": [],
      "stateMutability": "nonpayable",
      "type": "function"
    },
    {
      "inputs": [],
      "name": "assess",
      "outputs": [],
      "stateMutability": "nonpayable",
      "type": "function"
    },
    {
      "inputs": [
        {
          "internalType": "uint256",
          "name": "tokenId",
          "type": "uint256"
        }
      ],
      "name": "availableToWithdraw",
      "outputs": [
        {
          "internalType": "uint256",
          "name": "interestRedeemable",
          "type": "uint256"
        },
        {
          "internalType": "uint256",
          "name": "principalRedeemable",
          "type": "uint256"
        }
      ],
      "stateMutability": "view",
      "type": "function"
    },
    {
      "inputs": [],
      "name": "borrower",
      "outputs": [
        {
          "internalType": "address",
          "name": "",
          "type": "address"
        }
      ],
      "stateMutability": "view",
      "type": "function"
    },
    {
      "inputs": [],
      "name": "config",
      "outputs": [
        {
          "internalType": "contract GoldfinchConfig",
          "name": "",
          "type": "address"
        }
      ],
      "stateMutability": "view",
      "type": "function"
    },
    {
      "inputs": [],
      "name": "createdAt",
      "outputs": [
        {
          "internalType": "uint256",
          "name": "",
          "type": "uint256"
        }
      ],
      "stateMutability": "view",
      "type": "function"
    },
    {
      "inputs": [],
      "name": "creditLine",
      "outputs": [
        {
          "internalType": "contract IV2CreditLine",
          "name": "",
          "type": "address"
        }
      ],
      "stateMutability": "view",
      "type": "function"
    },
    {
      "inputs": [
        {
          "internalType": "uint256",
          "name": "tranche",
          "type": "uint256"
        },
        {
          "internalType": "uint256",
          "name": "amount",
          "type": "uint256"
        }
      ],
      "name": "deposit",
      "outputs": [
        {
          "internalType": "uint256",
          "name": "tokenId",
          "type": "uint256"
        }
      ],
      "stateMutability": "nonpayable",
      "type": "function"
    },
    {
      "inputs": [
        {
          "internalType": "uint256",
          "name": "tranche",
          "type": "uint256"
        },
        {
          "internalType": "uint256",
          "name": "amount",
          "type": "uint256"
        },
        {
          "internalType": "uint256",
          "name": "deadline",
          "type": "uint256"
        },
        {
          "internalType": "uint8",
          "name": "v",
          "type": "uint8"
        },
        {
          "internalType": "bytes32",
          "name": "r",
          "type": "bytes32"
        },
        {
          "internalType": "bytes32",
          "name": "s",
          "type": "bytes32"
        }
      ],
      "name": "depositWithPermit",
      "outputs": [
        {
          "internalType": "uint256",
          "name": "tokenId",
          "type": "uint256"
        }
      ],
      "stateMutability": "nonpayable",
      "type": "function"
    },
    {
      "inputs": [
        {
          "internalType": "uint256",
          "name": "amount",
          "type": "uint256"
        }
      ],
      "name": "drawdown",
      "outputs": [],
      "stateMutability": "nonpayable",
      "type": "function"
    },
    {
      "inputs": [],
      "name": "drawdownsPaused",
      "outputs": [
        {
          "internalType": "bool",
          "name": "",
          "type": "bool"
        }
      ],
      "stateMutability": "view",
      "type": "function"
    },
    {
      "inputs": [],
      "name": "emergencyShutdown",
      "outputs": [],
      "stateMutability": "nonpayable",
      "type": "function"
    },
    {
      "inputs": [
        {
          "internalType": "bytes32",
          "name": "role",
          "type": "bytes32"
        }
      ],
      "name": "getRoleAdmin",
      "outputs": [
        {
          "internalType": "bytes32",
          "name": "",
          "type": "bytes32"
        }
      ],
      "stateMutability": "view",
      "type": "function"
    },
    {
      "inputs": [
        {
          "internalType": "bytes32",
          "name": "role",
          "type": "bytes32"
        },
        {
          "internalType": "uint256",
          "name": "index",
          "type": "uint256"
        }
      ],
      "name": "getRoleMember",
      "outputs": [
        {
          "internalType": "address",
          "name": "",
          "type": "address"
        }
      ],
      "stateMutability": "view",
      "type": "function"
    },
    {
      "inputs": [
        {
          "internalType": "bytes32",
          "name": "role",
          "type": "bytes32"
        }
      ],
      "name": "getRoleMemberCount",
      "outputs": [
        {
          "internalType": "uint256",
          "name": "",
          "type": "uint256"
        }
      ],
      "stateMutability": "view",
      "type": "function"
    },
    {
      "inputs": [
        {
          "internalType": "uint256",
          "name": "tranche",
          "type": "uint256"
        }
      ],
      "name": "getTranche",
      "outputs": [
        {
          "components": [
            {
              "internalType": "uint256",
              "name": "id",
              "type": "uint256"
            },
            {
              "internalType": "uint256",
              "name": "principalDeposited",
              "type": "uint256"
            },
            {
              "internalType": "uint256",
              "name": "principalSharePrice",
              "type": "uint256"
            },
            {
              "internalType": "uint256",
              "name": "interestSharePrice",
              "type": "uint256"
            },
            {
              "internalType": "uint256",
              "name": "lockedUntil",
              "type": "uint256"
            }
          ],
          "internalType": "struct ITranchedPool.TrancheInfo",
          "name": "",
          "type": "tuple"
        }
      ],
      "stateMutability": "view",
      "type": "function"
    },
    {
      "inputs": [
        {
          "internalType": "bytes32",
          "name": "role",
          "type": "bytes32"
        },
        {
          "internalType": "address",
          "name": "account",
          "type": "address"
        }
      ],
      "name": "grantRole",
      "outputs": [],
      "stateMutability": "nonpayable",
      "type": "function"
    },
    {
      "inputs": [
        {
          "internalType": "bytes32",
          "name": "role",
          "type": "bytes32"
        },
        {
          "internalType": "address",
          "name": "account",
          "type": "address"
        }
      ],
      "name": "hasRole",
      "outputs": [
        {
          "internalType": "bool",
          "name": "",
          "type": "bool"
        }
      ],
      "stateMutability": "view",
      "type": "function"
    },
    {
      "inputs": [
        {
          "internalType": "address",
          "name": "_config",
          "type": "address"
        },
        {
          "internalType": "address",
          "name": "_borrower",
          "type": "address"
        },
        {
          "internalType": "uint256",
          "name": "_juniorFeePercent",
          "type": "uint256"
        },
        {
          "internalType": "uint256",
          "name": "_limit",
          "type": "uint256"
        },
        {
          "internalType": "uint256",
          "name": "_interestApr",
          "type": "uint256"
        },
        {
          "internalType": "uint256",
          "name": "_paymentPeriodInDays",
          "type": "uint256"
        },
        {
          "internalType": "uint256",
          "name": "_termInDays",
          "type": "uint256"
        },
        {
          "internalType": "uint256",
          "name": "_lateFeeApr",
          "type": "uint256"
        }
      ],
      "name": "initialize",
      "outputs": [],
      "stateMutability": "nonpayable",
      "type": "function"
    },
    {
      "inputs": [],
      "name": "interestApr",
      "outputs": [
        {
          "internalType": "uint256",
          "name": "",
          "type": "uint256"
        }
      ],
      "stateMutability": "view",
      "type": "function"
    },
    {
      "inputs": [],
      "name": "isAdmin",
      "outputs": [
        {
          "internalType": "bool",
          "name": "",
          "type": "bool"
        }
      ],
      "stateMutability": "view",
      "type": "function"
    },
    {
      "inputs": [],
      "name": "juniorFeePercent",
      "outputs": [
        {
          "internalType": "uint256",
          "name": "",
          "type": "uint256"
        }
      ],
      "stateMutability": "view",
      "type": "function"
    },
    {
      "inputs": [],
      "name": "lateFeeApr",
      "outputs": [
        {
          "internalType": "uint256",
          "name": "",
          "type": "uint256"
        }
      ],
      "stateMutability": "view",
      "type": "function"
    },
    {
      "inputs": [],
      "name": "limit",
      "outputs": [
        {
          "internalType": "uint256",
          "name": "",
          "type": "uint256"
        }
      ],
      "stateMutability": "view",
      "type": "function"
    },
    {
      "inputs": [],
      "name": "lockJuniorCapital",
      "outputs": [],
      "stateMutability": "nonpayable",
      "type": "function"
    },
    {
      "inputs": [],
      "name": "lockPool",
      "outputs": [],
      "stateMutability": "nonpayable",
      "type": "function"
    },
    {
      "inputs": [
        {
          "internalType": "address",
          "name": "newCl",
          "type": "address"
        }
      ],
      "name": "migrateAndSetNewCreditLine",
      "outputs": [],
      "stateMutability": "nonpayable",
      "type": "function"
    },
    {
      "inputs": [
        {
          "internalType": "address",
          "name": "_borrower",
          "type": "address"
        },
        {
          "internalType": "uint256",
          "name": "_limit",
          "type": "uint256"
        },
        {
          "internalType": "uint256",
          "name": "_interestApr",
          "type": "uint256"
        },
        {
          "internalType": "uint256",
          "name": "_paymentPeriodInDays",
          "type": "uint256"
        },
        {
          "internalType": "uint256",
          "name": "_termInDays",
          "type": "uint256"
        },
        {
          "internalType": "uint256",
          "name": "_lateFeeApr",
          "type": "uint256"
        }
      ],
      "name": "migrateCreditLine",
      "outputs": [],
      "stateMutability": "nonpayable",
      "type": "function"
    },
    {
      "inputs": [],
      "name": "pause",
      "outputs": [],
      "stateMutability": "nonpayable",
      "type": "function"
    },
    {
      "inputs": [],
      "name": "pauseDrawdowns",
      "outputs": [],
      "stateMutability": "nonpayable",
      "type": "function"
    },
    {
      "inputs": [],
      "name": "paused",
      "outputs": [
        {
          "internalType": "bool",
          "name": "",
          "type": "bool"
        }
      ],
      "stateMutability": "view",
      "type": "function"
    },
    {
      "inputs": [
        {
          "internalType": "uint256",
          "name": "amount",
          "type": "uint256"
        }
      ],
      "name": "pay",
      "outputs": [],
      "stateMutability": "nonpayable",
      "type": "function"
    },
    {
      "inputs": [],
      "name": "paymentPeriodInDays",
      "outputs": [
        {
          "internalType": "uint256",
          "name": "",
          "type": "uint256"
        }
      ],
      "stateMutability": "view",
      "type": "function"
    },
    {
      "inputs": [
        {
          "internalType": "bytes32",
          "name": "role",
          "type": "bytes32"
        },
        {
          "internalType": "address",
          "name": "account",
          "type": "address"
        }
      ],
      "name": "renounceRole",
      "outputs": [],
      "stateMutability": "nonpayable",
      "type": "function"
    },
    {
      "inputs": [
        {
          "internalType": "bytes32",
          "name": "role",
          "type": "bytes32"
        },
        {
          "internalType": "address",
          "name": "account",
          "type": "address"
        }
      ],
      "name": "revokeRole",
      "outputs": [],
      "stateMutability": "nonpayable",
      "type": "function"
    },
    {
      "inputs": [
        {
          "internalType": "uint256",
          "name": "sharePrice",
          "type": "uint256"
        },
        {
          "internalType": "uint256",
          "name": "totalShares",
          "type": "uint256"
        }
      ],
      "name": "sharePriceToUsdc",
      "outputs": [
        {
          "internalType": "uint256",
          "name": "",
          "type": "uint256"
        }
      ],
      "stateMutability": "pure",
      "type": "function"
    },
    {
      "inputs": [],
      "name": "termInDays",
      "outputs": [
        {
          "internalType": "uint256",
          "name": "",
          "type": "uint256"
        }
      ],
      "stateMutability": "view",
      "type": "function"
    },
    {
      "inputs": [],
      "name": "unpause",
      "outputs": [],
      "stateMutability": "nonpayable",
      "type": "function"
    },
    {
      "inputs": [],
      "name": "unpauseDrawdowns",
      "outputs": [],
      "stateMutability": "nonpayable",
      "type": "function"
    },
    {
      "inputs": [],
      "name": "updateGoldfinchConfig",
      "outputs": [],
      "stateMutability": "nonpayable",
      "type": "function"
    },
    {
      "inputs": [
        {
          "internalType": "uint256",
          "name": "amount",
          "type": "uint256"
        },
        {
          "internalType": "uint256",
          "name": "totalShares",
          "type": "uint256"
        }
      ],
      "name": "usdcToSharePrice",
      "outputs": [
        {
          "internalType": "uint256",
          "name": "",
          "type": "uint256"
        }
      ],
      "stateMutability": "pure",
      "type": "function"
    },
    {
      "inputs": [
        {
          "internalType": "uint256",
          "name": "tokenId",
          "type": "uint256"
        },
        {
          "internalType": "uint256",
          "name": "amount",
          "type": "uint256"
        }
      ],
      "name": "withdraw",
      "outputs": [
        {
          "internalType": "uint256",
          "name": "interestWithdrawn",
          "type": "uint256"
        },
        {
          "internalType": "uint256",
          "name": "principalWithdrawn",
          "type": "uint256"
        }
      ],
      "stateMutability": "nonpayable",
      "type": "function"
    },
    {
      "inputs": [
        {
          "internalType": "uint256",
          "name": "tokenId",
          "type": "uint256"
        }
      ],
      "name": "withdrawMax",
      "outputs": [
        {
          "internalType": "uint256",
          "name": "interestWithdrawn",
          "type": "uint256"
        },
        {
          "internalType": "uint256",
          "name": "principalWithdrawn",
          "type": "uint256"
        }
      ],
      "stateMutability": "nonpayable",
      "type": "function"
    },
    {
      "inputs": [
        {
          "internalType": "uint256[]",
          "name": "tokenIds",
          "type": "uint256[]"
        },
        {
          "internalType": "uint256[]",
          "name": "amounts",
          "type": "uint256[]"
        }
      ],
      "name": "withdrawMultiple",
      "outputs": [],
      "stateMutability": "nonpayable",
      "type": "function"
    }
  ],
  "transactionHash": "0x5ffcb75e5c1cf9839faa5afaa32da42534e7aca77fb3f265b045eba11389050a",
  "args": [],
  "solcInputHash": "60bf04b8c24669590397de1969e3a29e",
  "bytecode": "0x608060405234801561001057600080fd5b5061526b806100206000396000f3fe608060405234801561001057600080fd5b506004361061030c5760003560e01c806391d148541161019d578063bfaa8cca116100e9578063d547741f116100a2578063e58378bb1161007c578063e58378bb146105d0578063e63ab1e9146105d8578063f0b25bde146105e0578063f3621367146105e85761030c565b8063d547741f1461058a578063d972e8ad1461059d578063e2bbb158146105bd5761030c565b8063bfaa8cca14610539578063c290d69114610541578063c77d569814610554578063ca15c8731461055c578063cde888451461056f578063cf09e0d0146105825761030c565b8063a4d66daf11610156578063aa2a7c4c11610130578063aa2a7c4c1461050e578063b396999214610521578063b6db75a014610529578063bf6c87c7146105315761030c565b8063a4d66daf146104f6578063a6a25e88146104fe578063a8f9c4fe146105065761030c565b806391d148541461049a57806399dd8df3146104ad5780639d110530146104b5578063a079a4dd146104c8578063a18d4176146104db578063a217fddf146104ee5761030c565b80634d02fe6f1161025c57806368dcfdc0116102155780637df1f1b9116101ef5780637df1f1b9146104645780638456cb591461046c5780638ba796af146104745780639010d07c146104875761030c565b806368dcfdc01461044c57806374f0314f1461045457806379502c551461045c5761030c565b80634d02fe6f146103fb5780634f92a7281461040e578063515bc32314610416578063526d81f61461042957806356ce1560146104315780635c975abb146104445761030c565b80633403c2fc116102c95780634026478e116102a35780634026478e146103b5578063441a3e70146103bd57806347195e13146103de57806348e6f296146103f35761030c565b80633403c2fc1461039257806336568abe1461039a5780633f4ba83a146103ad5761030c565b80630174b449146103115780630881806c1461033a578063097616a31461034457806317f7694114610357578063248a9ca31461036c5780632f2ff15d1461037f575b600080fd5b61032461031f3660046146e1565b6105f0565b60405161033191906148f6565b60405180910390f35b610342610617565b005b610342610352366004614524565b610681565b61035f6107b1565b60405161033191906148eb565b61032461037a36600461469a565b6107bb565b61034261038d3660046146b2565b6107d0565b610342610814565b6103426103a83660046146b2565b6109eb565b610342610a2d565b610342610a6b565b6103d06103cb3660046146e1565b610aca565b60405161033192919061519c565b6103e6610ca4565b6040516103319190614812565b610324610cb4565b6103d061040936600461469a565b610d37565b610342610e1d565b6103246104243660046147bb565b610ecd565b610342610f64565b61034261043f366004614524565b610fef565b61035f61129e565b6103246112a7565b6103246112b3565b6103e66112ba565b6103e66112ca565b610342611348565b61034261048236600461455c565b611386565b6103e66104953660046146e1565b611690565b61035f6104a83660046146b2565b6116a8565b6103246116c0565b6103426104c3366004614611565b611706565b6103426104d636600461469a565b61176f565b6103426104e93660046145c6565b611b24565b6103246123fd565b610324612402565b610342612448565b610342612473565b6103d061051c36600461469a565b6124d2565b6103246126cd565b61035f612713565b61034261272f565b61032461278b565b61034261054f36600461469a565b612790565b6103246127e4565b61032461056a36600461469a565b6127eb565b61032461057d3660046146e1565b612802565b61032461282e565b6103426105983660046146b2565b612835565b6105b06105ab36600461469a565b61286f565b6040516103319190615147565b6103246105cb3660046146e1565b6128bf565b610324612a85565b610324612a97565b610324612aa9565b610324612aef565b600061060e670de0b6b3a76400006106088585612b01565b90612b3b565b90505b92915050565b61062f600080516020615216833981519152336116a8565b6106545760405162461bcd60e51b815260040161064b90614d6e565b60405180910390fd5b60975460ff16156106775760405162461bcd60e51b815260040161064b90614d0f565b61067f612b7d565b565b600054610100900460ff168061069a575061069a612bf1565b806106a8575060005460ff16155b6106c45760405162461bcd60e51b815260040161064b90614e67565b600054610100900460ff161580156106ef576000805460ff1961ff0019909116610100171660011790555b6001600160a01b0382166107155760405162461bcd60e51b815260040161064b90614dba565b61071d612bf7565b610725612c78565b61072d612d04565b6107456000805160206151d68339815191528361080a565b61075d6000805160206151f68339815191528361080a565b6107836000805160206151f68339815191526000805160206151d6833981519152612d93565b61079b6000805160206151d683398151915280612d93565b80156107ad576000805461ff00191690555b5050565b6101c75460ff1681565b60009081526065602052604090206002015490565b6000828152606560205260409020600201546107ee906104a8612da8565b61080a5760405162461bcd60e51b815260040161064b90614994565b6107ad8282612dac565b61081c612713565b6108385760405162461bcd60e51b815260040161064b90615051565b61084061129e565b61084c5761084c611348565b6101c554600090610865906001600160a01b0316612e15565b6101c554909150600090610881906001600160a01b0316612e20565b90506000826001600160a01b03166370a08231306040518263ffffffff1660e01b81526004016108b19190614812565b60206040518083038186803b1580156108c957600080fd5b505afa1580156108dd573d6000803e3d6000fd5b505050506040513d601f19601f820116820180604052508101906109019190614776565b9050801561091457610914838383612ea0565b6101c3546040516370a0823160e01b81526000916001600160a01b03808716926370a0823192610948921690600401614812565b60206040518083038186803b15801561096057600080fd5b505afa158015610974573d6000803e3d6000fd5b505050506040513d601f19601f820116820180604052508101906109989190614776565b905080156109ba576101c3546109ba9085906001600160a01b03168584612ee1565b60405130907f1fc1e771236d2e93bb9541cdcb4654ba0fd3fb615b48d829b7b365f03998512690600090a250505050565b6109f3612da8565b6001600160a01b0316816001600160a01b031614610a235760405162461bcd60e51b815260040161064b906150d3565b6107ad8282612f1d565b610a476000805160206151f68339815191526104a8612da8565b610a635760405162461bcd60e51b815260040161064b90614ac5565b61067f612f86565b610a83600080516020615216833981519152336116a8565b610a9f5760405162461bcd60e51b815260040161064b90614d6e565b60975460ff1615610ac25760405162461bcd60e51b815260040161064b90614d0f565b61067f612ff2565b6101c55460009081908490610ae7906001600160a01b0316613147565b6001600160a01b031663430c208133836040518363ffffffff1660e01b8152600401610b14929190614867565b60206040518083038186803b158015610b2c57600080fd5b505afa158015610b40573d6000803e3d6000fd5b505050506040513d601f19601f82011682018060405250810190610b64919061467a565b610b805760405162461bcd60e51b815260040161064b90614f5e565b60c95460ff16610ba25760405162461bcd60e51b815260040161064b9061501a565b60c9805460ff1916905560975460ff1615610bcf5760405162461bcd60e51b815260040161064b90614d0f565b610bd761444e565b6101c554610bed906001600160a01b0316613147565b6001600160a01b0316638c7a63ae876040518263ffffffff1660e01b8152600401610c1891906148f6565b60a06040518083038186803b158015610c3057600080fd5b505afa158015610c44573d6000803e3d6000fd5b505050506040513d601f19601f82011682018060405250810190610c689190614702565b90506000610c798260200151613152565b9050610c878183898961319c565b9450945050505060c9805460ff1916600117905590939092509050565b6101c3546001600160a01b031681565b6101c35460408051632473794b60e11b815290516000926001600160a01b0316916348e6f296916004808301926020929190829003018186803b158015610cfa57600080fd5b505afa158015610d0e573d6000803e3d6000fd5b505050506040513d601f19601f82011682018060405250810190610d329190614776565b905090565b600080610d4261444e565b6101c554610d58906001600160a01b0316613147565b6001600160a01b0316638c7a63ae856040518263ffffffff1660e01b8152600401610d8391906148f6565b60a06040518083038186803b158015610d9b57600080fd5b505afa158015610daf573d6000803e3d6000fd5b505050506040513d601f19601f82011682018060405250810190610dd39190614702565b90506000610de48260200151613152565b90508060040154610df3613345565b1115610e0e57610e038183613349565b935093505050610e18565b6000809350935050505b915091565b610e25612713565b610e415760405162461bcd60e51b815260040161064b90615051565b6101c554610e57906001600160a01b03166133b4565b6101c580546001600160a01b0319166001600160a01b039283161790556101c354604080516309f254e560e31b815290519190921691634f92a72891600480830192600092919082900301818387803b158015610eb357600080fd5b505af1158015610ec7573d6000803e3d6000fd5b50505050565b6101c554600090610ee6906001600160a01b03166133cc565b6001600160a01b031663d505accf333089898989896040518863ffffffff1660e01b8152600401610f1d9796959493929190614826565b600060405180830381600087803b158015610f3757600080fd5b505af1158015610f4b573d6000803e3d6000fd5b50505050610f5987876128bf565b979650505050505050565b600054610100900460ff1680610f7d5750610f7d612bf1565b80610f8b575060005460ff16155b610fa75760405162461bcd60e51b815260040161064b90614e67565b600054610100900460ff16158015610fd2576000805460ff1961ff0019909116610100171660011790555b610fda612c78565b8015610fec576000805461ff00191690555b50565b610ff7612713565b6110135760405162461bcd60e51b815260040161064b90615051565b6001600160a01b0381166110395760405162461bcd60e51b815260040161064b90614b11565b6101c3546101c5546001600160a01b039182169160009161105a9116612e15565b6001600160a01b03166370a08231836040518263ffffffff1660e01b81526004016110859190614812565b60206040518083038186803b15801561109d57600080fd5b505afa1580156110b1573d6000803e3d6000fd5b505050506040513d601f19601f820116820180604052508101906110d59190614776565b905080156110ff576101c5546110ff906110f7906001600160a01b0316612e15565b838584612ee1565b6101c354604051637d8b34e560e11b81526001600160a01b039091169063fb1669ca90611131906000906004016148f6565b600060405180830381600087803b15801561114b57600080fd5b505af115801561115f573d6000803e3d6000fd5b50506101c3546040516327ea6f2b60e01b81526001600160a01b0390911692506327ea6f2b9150611195906000906004016148f6565b600060405180830381600087803b1580156111af57600080fd5b505af11580156111c3573d6000803e3d6000fd5b50506101c380546001600160a01b0319166001600160a01b0387811691909117918290556040805163a4d66daf60e01b8152905192909116935063a4d66daf9250600480820192602092909190829003018186803b15801561122457600080fd5b505afa158015611238573d6000803e3d6000fd5b505050506040513d601f19601f8201168201806040525081019061125c9190614776565b506101c3546040516001600160a01b03918216918416907f987cdba0cba67c68d2c8aba6a4ba6545565eccfb3e2e5ff39579ffd94acaf9bb90600090a3505050565b60975460ff1690565b670de0b6b3a764000081565b6201518081565b6101c5546001600160a01b031681565b6101c35460408051637df1f1b960e01b815290516000926001600160a01b031691637df1f1b9916004808301926020929190829003018186803b15801561131057600080fd5b505afa158015611324573d6000803e3d6000fd5b505050506040513d601f19601f82011682018060405250810190610d329190614540565b6113626000805160206151f68339815191526104a8612da8565b61137e5760405162461bcd60e51b815260040161064b90614ac5565b61067f6133e4565b600054610100900460ff168061139f575061139f612bf1565b806113ad575060005460ff16155b6113c95760405162461bcd60e51b815260040161064b90614e67565b600054610100900460ff161580156113f4576000805460ff1961ff0019909116610100171660011790555b6001600160a01b0389161580159061141457506001600160a01b03881615155b6114305760405162461bcd60e51b815260040161064b90614bac565b6101c580546001600160a01b0319166001600160a01b038b8116919091179182905560009161145f911661343d565b90506001600160a01b0381166114875760405162461bcd60e51b815260040161064b90614c30565b61149081610681565b6040805160a081019091528060018152602001600081526020016114b5600180612802565b815260006020808301829052604092830182905283516101c855838101516101c955838301516101ca5560608401516101cb556080909301516101cc55815160a0810183526002815292830152810161150f600180612802565b81526000602080830182905260409283019190915282516101cd558201516101ce558101516101cf5560608101516101d055608001516101d155611557898888888888613455565b426101c4556101c688905561157a6000805160206152168339815191528a61080a565b6115926000805160206152168339815191528261080a565b6115b86000805160206152168339815191526000805160206151d6833981519152612d93565b6101c5546000906115d1906001600160a01b0316612e15565b6001600160a01b031663095ea7b3306000196040518363ffffffff1660e01b8152600401611600929190614867565b602060405180830381600087803b15801561161a57600080fd5b505af115801561162e573d6000803e3d6000fd5b505050506040513d601f19601f82011682018060405250810190611652919061467a565b9050806116715760405162461bcd60e51b815260040161064b90614a11565b50508015611685576000805461ff00191690555b505050505050505050565b600082815260656020526040812061060e9083613577565b600082815260656020526040812061060e9083613583565b6101c354604080516399dd8df360e01b815290516000926001600160a01b0316916399dd8df3916004808301926020929190829003018186803b158015610cfa57600080fd5b8281146117255760405162461bcd60e51b815260040161064b90614a41565b60005b818110156117685761175e85858381811061173f57fe5b9050602002013584848481811061175257fe5b90506020020135610aca565b5050600101611728565b5050505050565b611787600080516020615216833981519152336116a8565b6117a35760405162461bcd60e51b815260040161064b90614d6e565b60975460ff16156117c65760405162461bcd60e51b815260040161064b90614d0f565b6101c75460ff16156117ea5760405162461bcd60e51b815260040161064b90614eb5565b6117f2613598565b6117fe576117fe612ff2565b6101c35460405163a079a4dd60e01b81526001600160a01b039091169063a079a4dd9061182f9084906004016148f6565b600060405180830381600087803b15801561184957600080fd5b505af115801561185d573d6000803e3d6000fd5b5050505060006118fb6101c360009054906101000a90046001600160a01b03166001600160a01b031663b69ef8a86040518163ffffffff1660e01b815260040160206040518083038186803b1580156118b557600080fd5b505afa1580156118c9573d6000803e3d6000fd5b505050506040513d601f19601f820116820180604052508101906118ed9190614776565b6118f56135a1565b906135b6565b6101cf546101ca546040805160a0810182526101cd5481526101ce5460208201529081018390526101d05460608201526101d154608082015292935090916119449084906135f8565b6101cf556040805160a0810182526101c85481526101c95460208201526101ca54918101919091526101cb5460608201526101cc5460808201526119899084906135f8565b6101ca556101c35460408051637df1f1b960e01b815290516000926001600160a01b031691637df1f1b9916004808301926020929190829003018186803b1580156119d357600080fd5b505afa1580156119e7573d6000803e3d6000fd5b505050506040513d601f19601f82011682018060405250810190611a0b9190614540565b6101c554909150611a3090611a28906001600160a01b0316612e15565b308388612ee1565b806001600160a01b03167f7411b87a3c039bdfd8f3510b21e8bd0736265f53513735e1f4aa7b4f306b728d86604051611a6991906148f6565b60405180910390a26101cd546101cf5430907f42a55d7508b1c40b53524cf7cc2558b0f6bc7c4f262a3e929b65cd48bec2b68790611aa787826135b6565b6101d054604051611abf939260009081039291615181565b60405180910390a36101c8546101ca5430907f42a55d7508b1c40b53524cf7cc2558b0f6bc7c4f262a3e929b65cd48bec2b68790611afd86826135b6565b6101cb54604051611b15939260009081039291615181565b60405180910390a35050505050565b611b2c612713565b611b485760405162461bcd60e51b815260040161064b90615051565b6001600160a01b038616611b6e5760405162461bcd60e51b815260040161064b90614bf9565b82611b8b5760405162461bcd60e51b815260040161064b90614d39565b81611ba85760405162461bcd60e51b815260040161064b90614fb3565b6101c3546001600160a01b031680611bc4888888888888613455565b6101c3546040516001600160a01b0391821691829182918616907f987cdba0cba67c68d2c8aba6a4ba6545565eccfb3e2e5ff39579ffd94acaf9bb90600090a3816001600160a01b031663fb1669ca846001600160a01b031663b69ef8a86040518163ffffffff1660e01b815260040160206040518083038186803b158015611c4c57600080fd5b505afa158015611c60573d6000803e3d6000fd5b505050506040513d601f19601f82011682018060405250810190611c849190614776565b6040518263ffffffff1660e01b8152600401611ca091906148f6565b600060405180830381600087803b158015611cba57600080fd5b505af1158015611cce573d6000803e3d6000fd5b50505050816001600160a01b03166396c8df37846001600160a01b03166321856b366040518163ffffffff1660e01b815260040160206040518083038186803b158015611d1a57600080fd5b505afa158015611d2e573d6000803e3d6000fd5b505050506040513d601f19601f82011682018060405250810190611d529190614776565b6040518263ffffffff1660e01b8152600401611d6e91906148f6565b600060405180830381600087803b158015611d8857600080fd5b505af1158015611d9c573d6000803e3d6000fd5b50505050816001600160a01b031663b3b8a9c7846001600160a01b031663193501146040518163ffffffff1660e01b815260040160206040518083038186803b158015611de857600080fd5b505afa158015611dfc573d6000803e3d6000fd5b505050506040513d601f19601f82011682018060405250810190611e209190614776565b6040518263ffffffff1660e01b8152600401611e3c91906148f6565b600060405180830381600087803b158015611e5657600080fd5b505af1158015611e6a573d6000803e3d6000fd5b50505050816001600160a01b0316637ae14b09846001600160a01b03166364fb2d956040518163ffffffff1660e01b815260040160206040518083038186803b158015611eb657600080fd5b505afa158015611eca573d6000803e3d6000fd5b505050506040513d601f19601f82011682018060405250810190611eee9190614776565b6040518263ffffffff1660e01b8152600401611f0a91906148f6565b600060405180830381600087803b158015611f2457600080fd5b505af1158015611f38573d6000803e3d6000fd5b50505050816001600160a01b03166326a40e82846001600160a01b031663d28459776040518163ffffffff1660e01b815260040160206040518083038186803b158015611f8457600080fd5b505afa158015611f98573d6000803e3d6000fd5b505050506040513d601f19601f82011682018060405250810190611fbc9190614776565b6040518263ffffffff1660e01b8152600401611fd891906148f6565b600060405180830381600087803b158015611ff257600080fd5b505af1158015612006573d6000803e3d6000fd5b50505050816001600160a01b031663a6b1ae0d846001600160a01b031663bbafcb406040518163ffffffff1660e01b815260040160206040518083038186803b15801561205257600080fd5b505afa158015612066573d6000803e3d6000fd5b505050506040513d601f19601f8201168201806040525081019061208a9190614776565b6040518263ffffffff1660e01b81526004016120a691906148f6565b600060405180830381600087803b1580156120c057600080fd5b505af11580156120d4573d6000803e3d6000fd5b50505050816001600160a01b03166336d91494846001600160a01b031663ce78290d6040518163ffffffff1660e01b815260040160206040518083038186803b15801561212057600080fd5b505afa158015612134573d6000803e3d6000fd5b505050506040513d601f19601f820116820180604052508101906121589190614776565b6040518263ffffffff1660e01b815260040161217491906148f6565b600060405180830381600087803b15801561218e57600080fd5b505af11580156121a2573d6000803e3d6000fd5b50505050816001600160a01b031663033669cf846001600160a01b0316631cd724ac6040518163ffffffff1660e01b815260040160206040518083038186803b1580156121ee57600080fd5b505afa158015612202573d6000803e3d6000fd5b505050506040513d601f19601f820116820180604052508101906122269190614776565b6040518263ffffffff1660e01b815260040161224291906148f6565b600060405180830381600087803b15801561225c57600080fd5b505af1158015612270573d6000803e3d6000fd5b50506101c5546000925061228d91506001600160a01b0316612e15565b6001600160a01b03166370a08231866040518263ffffffff1660e01b81526004016122b89190614812565b60206040518083038186803b1580156122d057600080fd5b505afa1580156122e4573d6000803e3d6000fd5b505050506040513d601f19601f820116820180604052508101906123089190614776565b90508015612332576101c5546123329061232a906001600160a01b0316612e15565b868484612ee1565b604051637d8b34e560e11b81526001600160a01b0385169063fb1669ca9061235f906000906004016148f6565b600060405180830381600087803b15801561237957600080fd5b505af115801561238d573d6000803e3d6000fd5b50506040516327ea6f2b60e01b81526001600160a01b03871692506327ea6f2b91506123be906000906004016148f6565b600060405180830381600087803b1580156123d857600080fd5b505af11580156123ec573d6000803e3d6000fd5b505050505050505050505050505050565b600081565b6101c3546040805163a4d66daf60e01b815290516000926001600160a01b03169163a4d66daf916004808301926020929190829003018186803b158015610cfa57600080fd5b60975460ff161561246b5760405162461bcd60e51b815260040161064b90614d0f565b61067f61361d565b61247b612713565b6124975760405162461bcd60e51b815260040161064b90615051565b6101c7805460ff1916600117905560405130907f90d9b09c68a7e1312ce22801552b47265d77db9496383d51374b4058545447d790600090a2565b6101c554600090819083906124ef906001600160a01b0316613147565b6001600160a01b031663430c208133836040518363ffffffff1660e01b815260040161251c929190614867565b60206040518083038186803b15801561253457600080fd5b505afa158015612548573d6000803e3d6000fd5b505050506040513d601f19601f8201168201806040525081019061256c919061467a565b6125885760405162461bcd60e51b815260040161064b90614f5e565b60c95460ff166125aa5760405162461bcd60e51b815260040161064b9061501a565b60c9805460ff1916905560975460ff16156125d75760405162461bcd60e51b815260040161064b90614d0f565b6125df61444e565b6101c5546125f5906001600160a01b0316613147565b6001600160a01b0316638c7a63ae866040518263ffffffff1660e01b815260040161262091906148f6565b60a06040518083038186803b15801561263857600080fd5b505afa15801561264c573d6000803e3d6000fd5b505050506040513d601f19601f820116820180604052508101906126709190614702565b905060006126818260200151613152565b90506000806126908385613349565b909250905060006126a183836137c8565b90506126af84868b8461319c565b9750975050505050505060c9805460ff191660011790559092909150565b6101c354604080516359cb4cc960e11b815290516000926001600160a01b03169163b3969992916004808301926020929190829003018186803b158015610cfa57600080fd5b6000610d326000805160206151d68339815191526104a8612da8565b612737612713565b6127535760405162461bcd60e51b815260040161064b90615051565b6101c7805460ff1916905560405130907f7184039938737267597232635b117c924371ac877d4329f2dfa5ca674c5cc4a590600090a2565b606481565b60975460ff16156127b35760405162461bcd60e51b815260040161064b90614d0f565b600081116127d35760405162461bcd60e51b815260040161064b90614fe3565b6127dc816137ed565b610fec61361d565b6101c65481565b60008181526065602052604081206106119061384e565b60008115612825576128208261060885670de0b6b3a7640000612b01565b61060e565b50600092915050565b6101c45481565b600082815260656020526040902060020154612853906104a8612da8565b610a235760405162461bcd60e51b815260040161064b90614c94565b612877614486565b61288082613152565b6040805160a081018252825481526001830154602082015260028301549181019190915260038201546060820152600490910154608082015292915050565b60c95460009060ff166128e45760405162461bcd60e51b815260040161064b9061501a565b60c9805460ff1916905560975460ff16156129115760405162461bcd60e51b815260040161064b90614d0f565b600061291c84613152565b905080600401546000146129425760405162461bcd60e51b815260040161064b90614e30565b600181015461295190846137c8565b600182015561295e6144b5565b5060408051808201909152838152602081018590526101c554612989906001600160a01b0316613147565b6001600160a01b0316635be57b6a82336040518363ffffffff1660e01b81526004016129b6929190615122565b602060405180830381600087803b1580156129d057600080fd5b505af11580156129e4573d6000803e3d6000fd5b505050506040513d601f19601f82011682018060405250810190612a089190614776565b6101c554909350612a2d90612a25906001600160a01b0316612e15565b333087612ee1565b8285336001600160a01b03167fcb3ef4109dcd006671348924f00aac8398190a5ff283d6e470d74581513e103687604051612a6891906148f6565b60405180910390a4505060c9805460ff1916600117905592915050565b6000805160206151d683398151915281565b6000805160206151f683398151915281565b6101c354604080516378592def60e11b815290516000926001600160a01b03169163f0b25bde916004808301926020929190829003018186803b158015610cfa57600080fd5b60008051602061521683398151915281565b600082612b1057506000610611565b82820282848281612b1d57fe5b041461060e5760405162461bcd60e51b815260040161064b90614def565b600061060e83836040518060400160405280601a81526020017f536166654d6174683a206469766973696f6e206279207a65726f000000000000815250613859565b612b85613598565b15612ba25760405162461bcd60e51b815260040161064b90614c67565b6101d15415612bc35760405162461bcd60e51b815260040161064b9061509c565b6101c554612beb90612bdd906001600160a01b0316613890565b612be5613345565b906137c8565b6101d155565b303b1590565b600054610100900460ff1680612c105750612c10612bf1565b80612c1e575060005460ff16155b612c3a5760405162461bcd60e51b815260040161064b90614e67565b600054610100900460ff16158015610fda576000805460ff1961ff0019909116610100171660011790558015610fec576000805461ff001916905550565b600054610100900460ff1680612c915750612c91612bf1565b80612c9f575060005460ff16155b612cbb5760405162461bcd60e51b815260040161064b90614e67565b600054610100900460ff16158015612ce6576000805460ff1961ff0019909116610100171660011790555b6097805460ff191690558015610fec576000805461ff001916905550565b600054610100900460ff1680612d1d5750612d1d612bf1565b80612d2b575060005460ff16155b612d475760405162461bcd60e51b815260040161064b90614e67565b600054610100900460ff16158015612d72576000805460ff1961ff0019909116610100171660011790555b60c9805460ff191660011790558015610fec576000805461ff001916905550565b60009182526065602052604090912060020155565b3390565b6000828152606560205260409020612dc49082613910565b156107ad57612dd1612da8565b6001600160a01b0316816001600160a01b0316837f2f8788117e7eff1d82e926ec794901d17c78024a50270940304540a733656f0d60405160405180910390a45050565b6000610611826133cc565b60006001600160a01b03821663b93f9b0a60065b6040518263ffffffff1660e01b8152600401612e5091906148f6565b60206040518083038186803b158015612e6857600080fd5b505afa158015612e7c573d6000803e3d6000fd5b505050506040513d601f19601f820116820180604052508101906106119190614540565b612edc8383836040518060400160405280601881526020017704661696c656420746f207472616e736665722045524332360441b815250613925565b505050565b60408051808201909152601881527704661696c656420746f207472616e736665722045524332360441b602082015261176885858585856139f7565b6000828152606560205260409020612f359082613acc565b156107ad57612f42612da8565b6001600160a01b0316816001600160a01b0316837ff6391f5c32d9c69d2a47ea670b442974b53935d1edc7fd64eb21e047a839171b60405160405180910390a45050565b60975460ff16612fa85760405162461bcd60e51b815260040161064b906149e3565b6097805460ff191690557f5db9ee0a495bf2e6ff9c91a7834c1ba4fdd244a5e8aa4e537bd38aeae4b073aa612fdb612da8565b604051612fe89190614812565b60405180910390a1565b6101d1546130125760405162461bcd60e51b815260040161064b90614f1b565b6101c3546001600160a01b03166327ea6f2b6130bb61302f6135a1565b6101c360009054906101000a90046001600160a01b03166001600160a01b031663a4d66daf6040518163ffffffff1660e01b815260040160206040518083038186803b15801561307e57600080fd5b505afa158015613092573d6000803e3d6000fd5b505050506040513d601f19601f820116820180604052508101906130b69190614776565b613ae1565b6040518263ffffffff1660e01b81526004016130d791906148f6565b600060405180830381600087803b1580156130f157600080fd5b505af1158015613105573d6000803e3d6000fd5b50506101c5546000925061312291506001600160a01b0316613890565b905061313081612be5613345565b6101cc5561314081612be5613345565b6101d15550565b600061061182613af7565b600060018214806131635750600282145b61317f5760405162461bcd60e51b815260040161064b90614b7f565b600060018314613191576101cd613195565b6101c85b9392505050565b6000806000806131ac8888613349565b909250905060006131bd83836137c8565b9050808611156131df5760405162461bcd60e51b815260040161064b90614eec565b88600401546131ec613345565b116132095760405162461bcd60e51b815260040161064b90614ce4565b600489015461322757600189015461322190876135b6565b60018a01555b60006132338488613ae1565b90506000613245846130b68a856135b6565b6101c55490915061325e906001600160a01b0316613147565b6001600160a01b031663b81922058a83856040518463ffffffff1660e01b815260040161328d939291906151aa565b600060405180830381600087803b1580156132a757600080fd5b505af11580156132bb573d6000803e3d6000fd5b50506101c5546132ea92506132d991506001600160a01b0316612e15565b30336132e585876137c8565b612ee1565b888a60200151336001600160a01b03167f92f2787b755dae547f1701582fe74c7abf277ec14db316dd01abc69cacf7a259858560405161332b92919061519c565b60405180910390a490955093505050505b94509492505050565b4290565b6000806000613360856002015485604001516105f0565b90506000613376866003015486604001516105f0565b905061338f8560800151826135b690919063ffffffff16565b93506133a88560600151836135b690919063ffffffff16565b925050505b9250929050565b60006001600160a01b03821663b93f9b0a600b612e34565b60006001600160a01b03821663b93f9b0a6005612e34565b60975460ff16156134075760405162461bcd60e51b815260040161064b90614d0f565b6097805460ff191660011790557f62e78cea01bee320cd4e420270b5ea74000d11b0c9f74754ebdbfc544b05a258612fdb612da8565b60006001600160a01b03821663b93f9b0a6007612e34565b6101c55460009061346e906001600160a01b0316613b0f565b6001600160a01b03166301b215516040518163ffffffff1660e01b8152600401602060405180830381600087803b1580156134a857600080fd5b505af11580156134bc573d6000803e3d6000fd5b505050506040513d601f19601f820116820180604052508101906134e09190614540565b6101c380546001600160a01b0319166001600160a01b0383811691909117918290556101c554604051630df8fa4360e41b81529394509181169263df8fa4309261353c92169030908c908c908c908c908c908c90600401614880565b600060405180830381600087803b15801561355657600080fd5b505af115801561356a573d6000803e3d6000fd5b5050505050505050505050565b600061060e8383613b1a565b600061060e836001600160a01b038416613b5f565b6101cc54151590565b6101c9546101ce54600091610d3291906137c8565b600061060e83836040518060400160405280601e81526020017f536166654d6174683a207375627472616374696f6e206f766572666c6f770000815250613b77565b600080613609848460200151612802565b90506136158184613ba3565b949350505050565b60008060006101c360009054906101000a90046001600160a01b03166001600160a01b031663a6a25e886040518163ffffffff1660e01b8152600401606060405180830381600087803b15801561367357600080fd5b505af1158015613687573d6000803e3d6000fd5b505050506040513d601f19601f820116820180604052508101906136ab919061478e565b92509250925060008211806136c05750600081115b15612edc576101c3546000906136e9906001600160a01b0316846136e485886137c8565b613bca565b9050306001600160a01b03166101c360009054906101000a90046001600160a01b03166001600160a01b0316637df1f1b96040518163ffffffff1660e01b815260040160206040518083038186803b15801561374457600080fd5b505afa158015613758573d6000803e3d6000fd5b505050506040513d601f19601f8201168201806040525081019061377c9190614540565b6001600160a01b03167fd1055dc2c2a003a83dfacb1c38db776eab5ef89d77a8f05a3512e8cf57f953ce858588866040516137ba9493929190615181565b60405180910390a350505050565b60008282018381101561060e5760405162461bcd60e51b815260040161064b90614b48565b6101c554610fec90613807906001600160a01b0316612e15565b6101c35460408051808201909152601981527811985a5b1959081d1bc818dbdb1b1958dd081c185e5b595b9d603a1b602082015233916001600160a01b03169085906139f7565b600061061182613e4d565b6000818361387a5760405162461bcd60e51b815260040161064b91906148ff565b50600083858161388657fe5b0495945050505050565b60006001600160a01b03821663fc56365860075b6040518263ffffffff1660e01b81526004016138c091906148f6565b60206040518083038186803b1580156138d857600080fd5b505afa1580156138ec573d6000803e3d6000fd5b505050506040513d601f19601f820116820180604052508101906106119190614776565b600061060e836001600160a01b038416613e51565b6001600160a01b03831661394b5760405162461bcd60e51b815260040161064b90614a8e565b60405163a9059cbb60e01b81526000906001600160a01b0386169063a9059cbb9061397c9087908790600401614867565b602060405180830381600087803b15801561399657600080fd5b505af11580156139aa573d6000803e3d6000fd5b505050506040513d601f19601f820116820180604052508101906139ce919061467a565b905081816139ef5760405162461bcd60e51b815260040161064b91906148ff565b505050505050565b6001600160a01b038316613a1d5760405162461bcd60e51b815260040161064b90614a8e565b6040516323b872dd60e01b81526000906001600160a01b038716906323b872dd90613a50908890889088906004016148c7565b602060405180830381600087803b158015613a6a57600080fd5b505af1158015613a7e573d6000803e3d6000fd5b505050506040513d601f19601f82011682018060405250810190613aa2919061467a565b90508181613ac35760405162461bcd60e51b815260040161064b91906148ff565b50505050505050565b600061060e836001600160a01b038416613e9b565b6000818310613af0578161060e565b5090919050565b60006001600160a01b03821663b93f9b0a600c612e34565b600061061182613f61565b81546000908210613b3d5760405162461bcd60e51b815260040161064b90614952565b826000018281548110613b4c57fe5b9060005260206000200154905092915050565b60009081526001919091016020526040902054151590565b60008184841115613b9b5760405162461bcd60e51b815260040161064b91906148ff565b505050900390565b6101c9546101ce546000918291613bb9916137c8565b905061361584846020015183613f79565b6101c554600090613c2a90613be7906001600160a01b0316612e15565b8530613bf386886137c8565b6040518060400160405280601981526020017811985a5b1959081d1bc818dbdb1b1958dd081c185e5b595b9d603a1b8152506139f7565b600080613c35613fd2565b6101c5549193509150600090613c5f90613c57906001600160a01b0316614149565b606490612b3b565b6040805160a0810182526101c85481526101c95460208201526101ca54918101919091526101cb5460608201526101cc54608082015290915086908690600090613caa9087906135f8565b6040805160a0810182526101c85481526101c95460208201526101ca54918101919091526101cb5460608201526101cc546080820152909150600090613cf19087906135f8565b90506000613d2183613d1a613d12896101c6546137c890919063ffffffff16565b6064906135b6565b6064613f79565b90506000613d3186886064613f79565b9050613d3d8a826137c8565b9950613d4986826135b6565b9550613d5a868684866101c8614161565b6101ce549197509550613d7c90613d72908890612802565b6101d054906137c8565b6040805160a0810182526101cd5481526101ce5460208201526101cf54918101919091526101d05460608201526101d1546080820152909450613dc09089906135f8565b9250613dd1868686866101cd614161565b9096509450613de086866137c8565b9550613dee85886064613f79565b9050613dfa8a826137c8565b9950613e0686826135b6565b955060009450613e2f613e1987876137c8565b6000613e2589896137c8565b60006101cd6141e7565b9096509450613e3d8a61429e565b5050505050505050509392505050565b5490565b6000613e5d8383613b5f565b613e9357508154600181810184556000848152602080822090930184905584548482528286019093526040902091909155610611565b506000610611565b60008181526001830160205260408120548015613f575783546000198083019190810190600090879083908110613ece57fe5b9060005260206000200154905080876000018481548110613eeb57fe5b600091825260208083209091019290925582815260018981019092526040902090840190558654879080613f1b57fe5b60019003818190600052602060002001600090559055866001016000878152602001908152602001600020600090556001945050505050610611565b6000915050610611565b60006001600160a01b03821663b93f9b0a6002612e34565b6000613f836144cf565b613f8c8361434d565b9050613f966144cf565b613f9f8561434d565b9050613fc7670de0b6b3a7640000613fc188613fbb858761437b565b906143b3565b906143d4565b519695505050505050565b6000806101c360009054906101000a90046001600160a01b03166001600160a01b0316631cd724ac6040518163ffffffff1660e01b815260040160206040518083038186803b15801561402457600080fd5b505afa158015614038573d6000803e3d6000fd5b505050506040513d601f19601f8201168201806040525081019061405c9190614776565b91506101c360009054906101000a90046001600160a01b03166001600160a01b031663193501146040518163ffffffff1660e01b815260040160206040518083038186803b1580156140ad57600080fd5b505afa1580156140c1573d6000803e3d6000fd5b505050506040513d601f19601f820116820180604052508101906140e59190614776565b905061414361413c6101c360009054906101000a90046001600160a01b03166001600160a01b031663b69ef8a86040518163ffffffff1660e01b815260040160206040518083038186803b1580156118b557600080fd5b82906137c8565b90509091565b60006001600160a01b03821663fc56365860036138a4565b6001810154600282015460009182918086101561417c578095505b60038501548088101561418d578097505b600061419989836135b6565b905060006141a782866105f0565b905060006141b58a866135b6565b905060006141c382886105f0565b90506141d28e8e85848e6141e7565b909f909e509c50505050505050505050505050565b600080600083600101549050600061420589866003015489856143f5565b600387018054908290556002880154929b5090925090614228908a9089866143f5565b600288018054908290558854929b5090935090307f42a55d7508b1c40b53524cf7cc2558b0f6bc7c4f262a3e929b65cd48bec2b6878561426881866135b6565b60038c015461427781896135b6565b6040516142879493929190615181565b60405180910390a350989997985050505050505050565b306001600160a01b03167ff3583f178a8d4f8888c3683f8e948faf9b6eb701c4f1fab265a6ecad1a1ddebb826040516142d791906148f6565b60405180910390a26101c554610fec906142f9906001600160a01b0316612e15565b6101c5543090614311906001600160a01b0316612e20565b846040518060400160405280601981526020017f4661696c656420746f2073656e6420746f2072657365727665000000000000008152506139f7565b6143556144cf565b60408051602081019091528061437384670de0b6b3a7640000612b01565b905292915050565b6143836144cf565b60408051602081019091528251845182916143aa9161060890670de0b6b3a7640000612b01565b90529392505050565b6143bb6144cf565b6040805160208101909152835181906143aa9085612b01565b6143dc6144cf565b6040805160208101909152835181906143aa9085612b3b565b600080851580614403575083155b1561441257508490508361333c565b8386101561441e578593505b600061442a8585612802565b905061443687866135b6565b61444087836137c8565b925092505094509492505050565b6040518060a0016040528060006001600160a01b03168152602001600081526020016000815260200160008152602001600081525090565b6040518060a0016040528060008152602001600081526020016000815260200160008152602001600081525090565b604051806040016040528060008152602001600081525090565b6040518060200160405280600081525090565b60008083601f8401126144f3578182fd5b50813567ffffffffffffffff81111561450a578182fd5b60208301915083602080830285010111156133ad57600080fd5b600060208284031215614535578081fd5b813561060e816151c0565b600060208284031215614551578081fd5b815161060e816151c0565b600080600080600080600080610100898b031215614578578384fd5b8835614583816151c0565b97506020890135614593816151c0565b979a9799505050506040860135956060810135956080820135955060a0820135945060c0820135935060e0909101359150565b60008060008060008060c087890312156145de578182fd5b86356145e9816151c0565b9860208801359850604088013597606081013597506080810135965060a00135945092505050565b60008060008060408587031215614626578384fd5b843567ffffffffffffffff8082111561463d578586fd5b614649888389016144e2565b90965094506020870135915080821115614661578384fd5b5061466e878288016144e2565b95989497509550505050565b60006020828403121561468b578081fd5b8151801515811461060e578182fd5b6000602082840312156146ab578081fd5b5035919050565b600080604083850312156146c4578182fd5b8235915060208301356146d6816151c0565b809150509250929050565b600080604083850312156146f3578182fd5b50508035926020909101359150565b600060a08284031215614713578081fd5b60405160a0810181811067ffffffffffffffff82111715614732578283fd5b6040528251614740816151c0565b80825250602083015160208201526040830151604082015260608301516060820152608083015160808201528091505092915050565b600060208284031215614787578081fd5b5051919050565b6000806000606084860312156147a2578081fd5b8351925060208401519150604084015190509250925092565b60008060008060008060c087890312156147d3578384fd5b863595506020870135945060408701359350606087013560ff811681146147f8578283fd5b9598949750929560808101359460a0909101359350915050565b6001600160a01b0391909116815260200190565b6001600160a01b0397881681529590961660208601526040850193909352606084019190915260ff16608083015260a082015260c081019190915260e00190565b6001600160a01b03929092168252602082015260400190565b6001600160a01b03988916815296881660208801529490961660408601526060850192909252608084015260a083015260c082019290925260e08101919091526101000190565b6001600160a01b039384168152919092166020820152604081019190915260600190565b901515815260200190565b90815260200190565b6000602080835283518082850152825b8181101561492b5785810183015185820160400152820161490f565b8181111561493c5783604083870101525b50601f01601f1916929092016040019392505050565b60208082526022908201527f456e756d657261626c655365743a20696e646578206f7574206f6620626f756e604082015261647360f01b606082015260800190565b6020808252602f908201527f416363657373436f6e74726f6c3a2073656e646572206d75737420626520616e60408201526e0818591b5a5b881d1bc819dc985b9d608a1b606082015260800190565b60208082526014908201527314185d5cd8589b194e881b9bdd081c185d5cd95960621b604082015260600190565b6020808252601690820152754661696c656420746f20617070726f7665205553444360501b604082015260600190565b6020808252602d908201527f546f6b656e7349647320616e6420416d6f756e7473206d75737420626520746860408201526c0ca40e6c2daca40d8cadccee8d609b1b606082015260800190565b6020808252601a908201527f43616e27742073656e6420746f207a65726f2061646472657373000000000000604082015260600190565b6020808252602c908201527f4d75737420686176652070617573657220726f6c6520746f20706572666f726d60408201526b103a3434b99030b1ba34b7b760a11b606082015260800190565b6020808252601a908201527f4372656469746c696e652063616e6e6f7420626520656d707479000000000000604082015260600190565b6020808252601b908201527f536166654d6174683a206164646974696f6e206f766572666c6f770000000000604082015260600190565b602080825260139082015272556e737570706f72746564207472616e63686560681b604082015260600190565b6020808252602d908201527f436f6e66696720616e6420626f72726f7765722061646472657373657320636160408201526c6e6e6f7420626520656d70747960981b606082015260800190565b6020808252601a908201527f426f72726f776572206d757374206e6f7420626520656d707479000000000000604082015260600190565b6020808252601d908201527f4f776e657220616464726573732063616e6e6f7420626520656d707479000000604082015260600190565b602080825260139082015272141bdbdb08185b1c9958591e481b1bd8dad959606a1b604082015260600190565b60208082526030908201527f416363657373436f6e74726f6c3a2073656e646572206d75737420626520616e60408201526f2061646d696e20746f207265766f6b6560801b606082015260800190565b602080825260119082015270151c985b98da19481a5cc81b1bd8dad959607a1b604082015260600190565b60208082526010908201526f14185d5cd8589b194e881c185d5cd95960821b604082015260600190565b6020808252818101527f5061796d656e7420706572696f64206d757374206e6f7420626520656d707479604082015260600190565b6020808252602c908201527f4d7573742068617665206c6f636b657220726f6c6520746f20706572666f726d60408201526b103a3434b99030b1ba34b7b760a11b606082015260800190565b6020808252818101527f4f776e65722063616e6e6f7420626520746865207a65726f2061646472657373604082015260600190565b60208082526021908201527f536166654d6174683a206d756c7469706c69636174696f6e206f766572666c6f6040820152607760f81b606082015260800190565b60208082526017908201527f5472616e63686520686173206265656e206c6f636b6564000000000000000000604082015260600190565b6020808252602e908201527f436f6e747261637420696e7374616e63652068617320616c726561647920626560408201526d195b881a5b9a5d1a585b1a5e995960921b606082015260800190565b6020808252601e908201527f44726177646f776e73206172652063757272656e746c79207061757365640000604082015260600190565b602080825260159082015274125b9d985b1a59081c995919595b48185b5bdd5b9d605a1b604082015260600190565b60208082526023908201527f4a756e696f72207472616e636865206d757374206265206c6f636b65642066696040820152621c9cdd60ea1b606082015260800190565b60208082526035908201527f4f6e6c792074686520746f6b656e206f776e657220697320616c6c6f776564206040820152743a379031b0b636103a3434b990333ab731ba34b7b760591b606082015260800190565b6020808252601690820152755465726d206d757374206e6f7420626520656d70747960501b604082015260600190565b60208082526017908201527f4d75737420706179206d6f7265207468616e207a65726f000000000000000000604082015260600190565b6020808252601f908201527f5265656e7472616e637947756172643a207265656e7472616e742063616c6c00604082015260600190565b6020808252602b908201527f4d75737420686176652061646d696e20726f6c6520746f20706572666f726d2060408201526a3a3434b99030b1ba34b7b760a91b606082015260800190565b6020808252601d908201527f4a756e696f72207472616e63686520616c7265616479206c6f636b6564000000604082015260600190565b6020808252602f908201527f416363657373436f6e74726f6c3a2063616e206f6e6c792072656e6f756e636560408201526e103937b632b9903337b91039b2b63360891b606082015260800190565b82518152602092830151928101929092526001600160a01b0316604082015260600190565b600060a082019050825182526020830151602083015260408301516040830152606083015160608301526080830151608083015292915050565b93845260208401929092526040830152606082015260800190565b918252602082015260400190565b9283526020830191909152604082015260600190565b6001600160a01b0381168114610fec57600080fdfeb19546dff01e856fb3f010c267a7b1c60363cf8a4664e21cc89c26224620214e65d7a28e3265b37a6474929f336521b332c1681b933f6cb9f3376673440d862aaf9a8bb3cbd6b84fbccefa71ff73e26e798553c6914585a84886212a46a90279a2646970667358221220636981eee2a992b793846c9d96796659c30b5cda9c510c369c5d8d81870e2fcd64736f6c634300060c0033",
  "devdoc": {
    "kind": "dev",
    "methods": {
      "availableToWithdraw(uint256)": {
        "params": {
          "tokenId": "The token representing the position"
        },
        "returns": {
          "interestRedeemable": "The interest available to redeem",
          "principalRedeemable": "The principal available to redeem"
        }
      },
      "deposit(uint256,uint256)": {
        "params": {
          "amount": "The USDC amount to tranfer from the caller to the pool",
          "tranche": "The number representing the tranche to deposit into"
        },
        "returns": {
          "tokenId": "The tokenId of the NFT"
        }
      },
      "drawdown(uint256)": {
        "params": {
          "amount": "The amount to drawdown from the creditline (must be < limit)"
        }
      },
      "getRoleAdmin(bytes32)": {
        "details": "Returns the admin role that controls `role`. See {grantRole} and {revokeRole}. To change a role's admin, use {_setRoleAdmin}."
      },
      "getRoleMember(bytes32,uint256)": {
        "details": "Returns one of the accounts that have `role`. `index` must be a value between 0 and {getRoleMemberCount}, non-inclusive. Role bearers are not sorted in any particular way, and their ordering may change at any point. WARNING: When using {getRoleMember} and {getRoleMemberCount}, make sure you perform all queries on the same block. See the following https://forum.openzeppelin.com/t/iterating-over-elements-on-enumerableset-in-openzeppelin-contracts/2296[forum post] for more information."
      },
      "getRoleMemberCount(bytes32)": {
        "details": "Returns the number of accounts that have `role`. Can be used together with {getRoleMember} to enumerate all bearers of a role."
      },
      "grantRole(bytes32,address)": {
        "details": "Grants `role` to `account`. If `account` had not been already granted `role`, emits a {RoleGranted} event. Requirements: - the caller must have ``role``'s admin role."
      },
      "hasRole(bytes32,address)": {
        "details": "Returns `true` if `account` has been granted `role`."
      },
      "migrateCreditLine(address,uint256,uint256,uint256,uint256,uint256)": {
        "params": {
          "_borrower": "The borrower address",
          "_interestApr": "The new interest APR",
          "_lateFeeApr": "The new late fee APR",
          "_limit": "The new limit",
          "_paymentPeriodInDays": "The new payment period in days",
          "_termInDays": "The new term in days"
        }
      },
      "pause()": {
        "details": "Pauses all functions guarded by Pause See {Pausable-_pause}. Requirements: - the caller must have the PAUSER_ROLE."
      },
      "paused()": {
        "details": "Returns true if the contract is paused, and false otherwise."
      },
      "pay(uint256)": {
        "params": {
          "amount": "The amount to repay"
        }
      },
      "renounceRole(bytes32,address)": {
        "details": "Revokes `role` from the calling account. Roles are often managed via {grantRole} and {revokeRole}: this function's purpose is to provide a mechanism for accounts to lose their privileges if they are compromised (such as when a trusted device is misplaced). If the calling account had been granted `role`, emits a {RoleRevoked} event. Requirements: - the caller must be `account`."
      },
      "revokeRole(bytes32,address)": {
        "details": "Revokes `role` from `account`. If `account` had been granted `role`, emits a {RoleRevoked} event. Requirements: - the caller must have ``role``'s admin role."
      },
      "sharePriceToUsdc(uint256,uint256)": {
        "params": {
          "sharePrice": "The share price to convert",
          "totalShares": "The total shares outstanding"
        },
        "returns": {
          "_0": "The USDC amount of the input share price"
        }
      },
      "unpause()": {
        "details": "Unpauses the contract See {Pausable-_unpause}. Requirements: - the caller must have the Pauser role"
      },
      "usdcToSharePrice(uint256,uint256)": {
        "params": {
          "amount": "The USDC amount to convert",
          "totalShares": "The total shares outstanding"
        },
        "returns": {
          "_0": "The share price of the input amount"
        }
      },
      "withdraw(uint256,uint256)": {
        "params": {
          "amount": "The amount to withdraw (must be <= interest+principal currently available to withdraw)",
          "tokenId": "The NFT representing the position"
        },
        "returns": {
          "interestWithdrawn": "The interest amount that was withdrawn",
          "principalWithdrawn": "The principal amount that was withdrawn"
        }
      },
      "withdrawMax(uint256)": {
        "params": {
          "tokenId": "The NFT representing the position"
        },
        "returns": {
          "interestWithdrawn": "The interest amount that was withdrawn",
          "principalWithdrawn": "The principal amount that was withdrawn"
        }
      },
      "withdrawMultiple(uint256[],uint256[])": {
        "params": {
          "amounts": "An array of amounts to withdraw from the corresponding tokenIds",
          "tokenIds": "An array of tokens ids representing the position"
        }
      }
    },
    "version": 1
  },
  "userdoc": {
    "kind": "user",
    "methods": {
      "assess()": {
        "notice": "Triggers an assessment of the creditline and the applies the payments according the tranche waterfall"
      },
      "availableToWithdraw(uint256)": {
        "notice": "Determines the amount of interest and principal redeemable by a particular tokenId"
      },
      "deposit(uint256,uint256)": {
        "notice": "Deposit a USDC amount into the pool for a tranche. Mints an NFT to the caller representing the position"
      },
      "drawdown(uint256)": {
        "notice": "Draws down the funds (and locks the pool) to the borrower address. Can only be called by the borrower"
      },
      "emergencyShutdown()": {
        "notice": "Pauses the pool and sweeps any remaining funds to the treasury reserve."
      },
      "lockJuniorCapital()": {
        "notice": "Locks the junior tranche, preventing more junior deposits. Gives time for the senior to determine how much to invest (ensure leverage ratio cannot change for the period)"
      },
      "lockPool()": {
        "notice": "Locks the pool (locks both senior and junior tranches and starts the drawdown period). Beyond the drawdown period, any unused capital is available to withdraw by all depositors"
      },
      "migrateAndSetNewCreditLine(address)": {
        "notice": "Migrates to a new creditline without copying the accounting variables"
      },
      "migrateCreditLine(address,uint256,uint256,uint256,uint256,uint256)": {
        "notice": "Migrates the accounting variables from the current creditline to a brand new one"
      },
      "pauseDrawdowns()": {
        "notice": "Pauses all drawdowns (but not deposits/withdraws)"
      },
      "pay(uint256)": {
        "notice": "Allows repaying the creditline. Collects the USDC amount from the sender and triggers an assess"
      },
      "sharePriceToUsdc(uint256,uint256)": {
        "notice": "Converts share price to USDC amounts"
      },
      "unpauseDrawdowns()": {
        "notice": "Unpause drawdowns"
      },
      "updateGoldfinchConfig()": {
        "notice": "Migrates to a new goldfinch config address"
      },
      "usdcToSharePrice(uint256,uint256)": {
        "notice": "Converts USDC amounts to share price"
      },
      "withdraw(uint256,uint256)": {
        "notice": "Withdraw an already deposited amount if the funds are available"
      },
      "withdrawMax(uint256)": {
        "notice": "Similar to withdraw but will withdraw all available funds"
      },
      "withdrawMultiple(uint256[],uint256[])": {
        "notice": "Withdraw from many tokens (that the sender owns) in a single transaction"
      }
    },
    "version": 1
  },
  "storageLayout": {
    "storage": [
      {
        "astId": 151,
        "contract": "contracts/protocol/core/TranchedPool.sol:TranchedPool",
        "label": "initialized",
        "offset": 0,
        "slot": "0",
        "type": "t_bool"
      },
      {
        "astId": 154,
        "contract": "contracts/protocol/core/TranchedPool.sol:TranchedPool",
        "label": "initializing",
        "offset": 1,
        "slot": "0",
        "type": "t_bool"
      },
      {
        "astId": 219,
        "contract": "contracts/protocol/core/TranchedPool.sol:TranchedPool",
        "label": "______gap",
        "offset": 0,
        "slot": "1",
        "type": "t_array(t_uint256)50_storage"
      },
      {
        "astId": 144,
        "contract": "contracts/protocol/core/TranchedPool.sol:TranchedPool",
        "label": "__gap",
        "offset": 0,
        "slot": "51",
        "type": "t_array(t_uint256)50_storage"
      },
      {
        "astId": 264,
        "contract": "contracts/protocol/core/TranchedPool.sol:TranchedPool",
        "label": "_roles",
        "offset": 0,
        "slot": "101",
        "type": "t_mapping(t_bytes32,t_struct(RoleData)260_storage)"
      },
      {
        "astId": 509,
        "contract": "contracts/protocol/core/TranchedPool.sol:TranchedPool",
        "label": "__gap",
        "offset": 0,
        "slot": "102",
        "type": "t_array(t_uint256)49_storage"
      },
      {
        "astId": 4201,
        "contract": "contracts/protocol/core/TranchedPool.sol:TranchedPool",
        "label": "_paused",
        "offset": 0,
        "slot": "151",
        "type": "t_bool"
      },
      {
        "astId": 4290,
        "contract": "contracts/protocol/core/TranchedPool.sol:TranchedPool",
        "label": "__gap",
        "offset": 0,
        "slot": "152",
        "type": "t_array(t_uint256)49_storage"
      },
      {
        "astId": 4299,
        "contract": "contracts/protocol/core/TranchedPool.sol:TranchedPool",
        "label": "_notEntered",
        "offset": 0,
        "slot": "201",
        "type": "t_bool"
      },
      {
        "astId": 4340,
        "contract": "contracts/protocol/core/TranchedPool.sol:TranchedPool",
        "label": "__gap",
        "offset": 0,
        "slot": "202",
        "type": "t_array(t_uint256)49_storage"
      },
      {
        "astId": 9348,
        "contract": "contracts/protocol/core/TranchedPool.sol:TranchedPool",
        "label": "__gap1",
        "offset": 0,
        "slot": "251",
        "type": "t_array(t_uint256)50_storage"
      },
      {
        "astId": 9352,
        "contract": "contracts/protocol/core/TranchedPool.sol:TranchedPool",
        "label": "__gap2",
        "offset": 0,
        "slot": "301",
        "type": "t_array(t_uint256)50_storage"
      },
      {
        "astId": 9356,
        "contract": "contracts/protocol/core/TranchedPool.sol:TranchedPool",
        "label": "__gap3",
        "offset": 0,
        "slot": "351",
        "type": "t_array(t_uint256)50_storage"
      },
      {
        "astId": 9360,
        "contract": "contracts/protocol/core/TranchedPool.sol:TranchedPool",
        "label": "__gap4",
        "offset": 0,
        "slot": "401",
        "type": "t_array(t_uint256)50_storage"
      },
      {
        "astId": 8241,
        "contract": "contracts/protocol/core/TranchedPool.sol:TranchedPool",
        "label": "creditLine",
        "offset": 0,
        "slot": "451",
        "type": "t_contract(IV2CreditLine)8530"
      },
      {
        "astId": 8243,
        "contract": "contracts/protocol/core/TranchedPool.sol:TranchedPool",
        "label": "createdAt",
        "offset": 0,
        "slot": "452",
        "type": "t_uint256"
      },
      {
        "astId": 18266,
        "contract": "contracts/protocol/core/TranchedPool.sol:TranchedPool",
        "label": "config",
        "offset": 0,
        "slot": "453",
        "type": "t_contract(GoldfinchConfig)13851"
      },
      {
        "astId": 18295,
        "contract": "contracts/protocol/core/TranchedPool.sol:TranchedPool",
        "label": "juniorFeePercent",
        "offset": 0,
        "slot": "454",
        "type": "t_uint256"
      },
      {
        "astId": 18297,
        "contract": "contracts/protocol/core/TranchedPool.sol:TranchedPool",
        "label": "drawdownsPaused",
        "offset": 0,
        "slot": "455",
        "type": "t_bool"
      },
      {
        "astId": 18299,
        "contract": "contracts/protocol/core/TranchedPool.sol:TranchedPool",
        "label": "seniorTranche",
        "offset": 0,
        "slot": "456",
        "type": "t_struct(TrancheInfo)8258_storage"
      },
      {
        "astId": 18301,
        "contract": "contracts/protocol/core/TranchedPool.sol:TranchedPool",
        "label": "juniorTranche",
        "offset": 0,
        "slot": "461",
        "type": "t_struct(TrancheInfo)8258_storage"
      }
    ],
    "types": {
      "t_array(t_bytes32)dyn_storage": {
        "base": "t_bytes32",
        "encoding": "dynamic_array",
        "label": "bytes32[]",
        "numberOfBytes": "32"
      },
      "t_array(t_uint256)49_storage": {
        "base": "t_uint256",
        "encoding": "inplace",
        "label": "uint256[49]",
        "numberOfBytes": "1568"
      },
      "t_array(t_uint256)50_storage": {
        "base": "t_uint256",
        "encoding": "inplace",
        "label": "uint256[50]",
        "numberOfBytes": "1600"
      },
      "t_bool": {
        "encoding": "inplace",
        "label": "bool",
        "numberOfBytes": "1"
      },
      "t_bytes32": {
        "encoding": "inplace",
        "label": "bytes32",
        "numberOfBytes": "32"
      },
      "t_contract(GoldfinchConfig)13851": {
        "encoding": "inplace",
        "label": "contract GoldfinchConfig",
        "numberOfBytes": "20"
      },
      "t_contract(IV2CreditLine)8530": {
        "encoding": "inplace",
        "label": "contract IV2CreditLine",
        "numberOfBytes": "20"
      },
      "t_mapping(t_bytes32,t_struct(RoleData)260_storage)": {
        "encoding": "mapping",
        "key": "t_bytes32",
        "label": "mapping(bytes32 => struct AccessControlUpgradeSafe.RoleData)",
        "numberOfBytes": "32",
        "value": "t_struct(RoleData)260_storage"
      },
      "t_mapping(t_bytes32,t_uint256)": {
        "encoding": "mapping",
        "key": "t_bytes32",
        "label": "mapping(bytes32 => uint256)",
        "numberOfBytes": "32",
        "value": "t_uint256"
      },
      "t_struct(AddressSet)3976_storage": {
        "encoding": "inplace",
        "label": "struct EnumerableSet.AddressSet",
        "members": [
          {
            "astId": 3975,
            "contract": "contracts/protocol/core/TranchedPool.sol:TranchedPool",
            "label": "_inner",
            "offset": 0,
            "slot": "0",
            "type": "t_struct(Set)3796_storage"
          }
        ],
        "numberOfBytes": "64"
      },
      "t_struct(RoleData)260_storage": {
        "encoding": "inplace",
        "label": "struct AccessControlUpgradeSafe.RoleData",
        "members": [
          {
            "astId": 257,
            "contract": "contracts/protocol/core/TranchedPool.sol:TranchedPool",
            "label": "members",
            "offset": 0,
            "slot": "0",
            "type": "t_struct(AddressSet)3976_storage"
          },
          {
            "astId": 259,
            "contract": "contracts/protocol/core/TranchedPool.sol:TranchedPool",
            "label": "adminRole",
            "offset": 0,
            "slot": "2",
            "type": "t_bytes32"
          }
        ],
        "numberOfBytes": "96"
      },
      "t_struct(Set)3796_storage": {
        "encoding": "inplace",
        "label": "struct EnumerableSet.Set",
        "members": [
          {
            "astId": 3791,
            "contract": "contracts/protocol/core/TranchedPool.sol:TranchedPool",
            "label": "_values",
            "offset": 0,
            "slot": "0",
            "type": "t_array(t_bytes32)dyn_storage"
          },
          {
            "astId": 3795,
            "contract": "contracts/protocol/core/TranchedPool.sol:TranchedPool",
            "label": "_indexes",
            "offset": 0,
            "slot": "1",
            "type": "t_mapping(t_bytes32,t_uint256)"
          }
        ],
        "numberOfBytes": "64"
      },
      "t_struct(TrancheInfo)8258_storage": {
        "encoding": "inplace",
        "label": "struct ITranchedPool.TrancheInfo",
        "members": [
          {
            "astId": 8249,
            "contract": "contracts/protocol/core/TranchedPool.sol:TranchedPool",
            "label": "id",
            "offset": 0,
            "slot": "0",
            "type": "t_uint256"
          },
          {
            "astId": 8251,
            "contract": "contracts/protocol/core/TranchedPool.sol:TranchedPool",
            "label": "principalDeposited",
            "offset": 0,
            "slot": "1",
            "type": "t_uint256"
          },
          {
            "astId": 8253,
            "contract": "contracts/protocol/core/TranchedPool.sol:TranchedPool",
            "label": "principalSharePrice",
            "offset": 0,
            "slot": "2",
            "type": "t_uint256"
          },
          {
            "astId": 8255,
            "contract": "contracts/protocol/core/TranchedPool.sol:TranchedPool",
            "label": "interestSharePrice",
            "offset": 0,
            "slot": "3",
            "type": "t_uint256"
          },
          {
            "astId": 8257,
            "contract": "contracts/protocol/core/TranchedPool.sol:TranchedPool",
            "label": "lockedUntil",
            "offset": 0,
            "slot": "4",
            "type": "t_uint256"
          }
        ],
        "numberOfBytes": "160"
      },
      "t_uint256": {
        "encoding": "inplace",
        "label": "uint256",
        "numberOfBytes": "32"
      }
    }
  }
}