{
  "address": "0x84b43ea76A7F18B1683db57c93cb34C42E6F943a",
  "abi": [
    {
      "anonymous": false,
      "inputs": [
        {
          "indexed": true,
          "internalType": "uint256",
          "name": "lineageId",
          "type": "uint256"
        },
        {
          "indexed": true,
          "internalType": "address",
          "name": "newImplementation",
          "type": "address"
        },
        {
          "indexed": true,
          "internalType": "address",
          "name": "oldImplementation",
          "type": "address"
        }
      ],
      "name": "Added",
      "type": "event"
    },
    {
      "anonymous": false,
      "inputs": [
        {
          "indexed": false,
          "internalType": "address",
          "name": "account",
          "type": "address"
        }
      ],
      "name": "Paused",
      "type": "event"
    },
    {
      "anonymous": false,
      "inputs": [
        {
          "indexed": true,
          "internalType": "uint256",
          "name": "lineageId",
          "type": "uint256"
        },
        {
          "indexed": true,
          "internalType": "address",
          "name": "implementation",
          "type": "address"
        }
      ],
      "name": "Removed",
      "type": "event"
    },
    {
      "anonymous": false,
      "inputs": [
        {
          "indexed": true,
          "internalType": "bytes32",
          "name": "role",
          "type": "bytes32"
        },
        {
          "indexed": true,
          "internalType": "address",
          "name": "account",
          "type": "address"
        },
        {
          "indexed": true,
          "internalType": "address",
          "name": "sender",
          "type": "address"
        }
      ],
      "name": "RoleGranted",
      "type": "event"
    },
    {
      "anonymous": false,
      "inputs": [
        {
          "indexed": true,
          "internalType": "bytes32",
          "name": "role",
          "type": "bytes32"
        },
        {
          "indexed": true,
          "internalType": "address",
          "name": "account",
          "type": "address"
        },
        {
          "indexed": true,
          "internalType": "address",
          "name": "sender",
          "type": "address"
        }
      ],
      "name": "RoleRevoked",
      "type": "event"
    },
    {
      "anonymous": false,
      "inputs": [
        {
          "indexed": false,
          "internalType": "address",
          "name": "account",
          "type": "address"
        }
      ],
      "name": "Unpaused",
      "type": "event"
    },
    {
      "anonymous": false,
      "inputs": [
        {
          "indexed": true,
          "internalType": "address",
          "name": "implementation",
          "type": "address"
        },
        {
          "indexed": false,
          "internalType": "bytes",
          "name": "data",
          "type": "bytes"
        }
      ],
      "name": "UpgradeDataSet",
      "type": "event"
    },
    {
      "anonymous": false,
      "inputs": [
        {
          "indexed": true,
          "internalType": "uint8[3]",
          "name": "version",
          "type": "uint8[3]"
        },
        {
          "indexed": true,
          "internalType": "address",
          "name": "impl",
          "type": "address"
        }
      ],
      "name": "VersionAdded",
      "type": "event"
    },
    {
      "anonymous": false,
      "inputs": [
        {
          "indexed": true,
          "internalType": "uint8[3]",
          "name": "version",
          "type": "uint8[3]"
        },
        {
          "indexed": true,
          "internalType": "address",
          "name": "impl",
          "type": "address"
        }
      ],
      "name": "VersionRemoved",
      "type": "event"
    },
    {
      "inputs": [],
      "name": "DEFAULT_ADMIN_ROLE",
      "outputs": [
        {
          "internalType": "bytes32",
          "name": "",
          "type": "bytes32"
        }
      ],
      "stateMutability": "view",
      "type": "function"
    },
    {
      "inputs": [],
      "name": "OWNER_ROLE",
      "outputs": [
        {
          "internalType": "bytes32",
          "name": "",
          "type": "bytes32"
        }
      ],
      "stateMutability": "view",
      "type": "function"
    },
    {
      "inputs": [],
      "name": "PAUSER_ROLE",
      "outputs": [
        {
          "internalType": "bytes32",
          "name": "",
          "type": "bytes32"
        }
      ],
      "stateMutability": "view",
      "type": "function"
    },
    {
      "inputs": [
        {
          "internalType": "address",
          "name": "owner",
          "type": "address"
        }
      ],
      "name": "__BaseUpgradeablePausable__init",
      "outputs": [],
      "stateMutability": "nonpayable",
      "type": "function"
    },
    {
      "inputs": [],
      "name": "__PauserPausable__init",
      "outputs": [],
      "stateMutability": "nonpayable",
      "type": "function"
    },
    {
      "inputs": [
        {
          "internalType": "address",
          "name": "implementation",
          "type": "address"
        },
        {
          "internalType": "uint256",
          "name": "lineageId",
          "type": "uint256"
        }
      ],
      "name": "append",
      "outputs": [],
      "stateMutability": "nonpayable",
      "type": "function"
    },
    {
      "inputs": [
        {
          "internalType": "address",
          "name": "implementation",
          "type": "address"
        }
      ],
      "name": "append",
      "outputs": [],
      "stateMutability": "nonpayable",
      "type": "function"
    },
    {
      "inputs": [
        {
          "internalType": "address",
          "name": "implementation",
          "type": "address"
        }
      ],
      "name": "createLineage",
      "outputs": [
        {
          "internalType": "uint256",
          "name": "",
          "type": "uint256"
        }
      ],
      "stateMutability": "nonpayable",
      "type": "function"
    },
    {
      "inputs": [],
      "name": "currentImplementation",
      "outputs": [
        {
          "internalType": "address",
          "name": "",
          "type": "address"
        }
      ],
      "stateMutability": "view",
      "type": "function"
    },
    {
      "inputs": [
        {
          "internalType": "uint256",
          "name": "lineageId",
          "type": "uint256"
        }
      ],
      "name": "currentImplementation",
      "outputs": [
        {
          "internalType": "address",
          "name": "",
          "type": "address"
        }
      ],
      "stateMutability": "view",
      "type": "function"
    },
    {
      "inputs": [],
      "name": "currentLineageId",
      "outputs": [
        {
          "internalType": "uint256",
          "name": "",
          "type": "uint256"
        }
      ],
      "stateMutability": "view",
      "type": "function"
    },
    {
      "inputs": [
        {
          "internalType": "uint8[3]",
          "name": "version",
          "type": "uint8[3]"
        }
      ],
      "name": "getByVersion",
      "outputs": [
        {
          "internalType": "address",
          "name": "",
          "type": "address"
        }
      ],
      "stateMutability": "view",
      "type": "function"
    },
    {
      "inputs": [
        {
          "internalType": "bytes32",
          "name": "role",
          "type": "bytes32"
        }
      ],
      "name": "getRoleAdmin",
      "outputs": [
        {
          "internalType": "bytes32",
          "name": "",
          "type": "bytes32"
        }
      ],
      "stateMutability": "view",
      "type": "function"
    },
    {
      "inputs": [
        {
          "internalType": "bytes32",
          "name": "role",
          "type": "bytes32"
        },
        {
          "internalType": "uint256",
          "name": "index",
          "type": "uint256"
        }
      ],
      "name": "getRoleMember",
      "outputs": [
        {
          "internalType": "address",
          "name": "",
          "type": "address"
        }
      ],
      "stateMutability": "view",
      "type": "function"
    },
    {
      "inputs": [
        {
          "internalType": "bytes32",
          "name": "role",
          "type": "bytes32"
        }
      ],
      "name": "getRoleMemberCount",
      "outputs": [
        {
          "internalType": "uint256",
          "name": "",
          "type": "uint256"
        }
      ],
      "stateMutability": "view",
      "type": "function"
    },
    {
      "inputs": [
        {
          "internalType": "bytes32",
          "name": "role",
          "type": "bytes32"
        },
        {
          "internalType": "address",
          "name": "account",
          "type": "address"
        }
      ],
      "name": "grantRole",
      "outputs": [],
      "stateMutability": "nonpayable",
      "type": "function"
    },
    {
      "inputs": [
        {
          "internalType": "address",
          "name": "implementation",
          "type": "address"
        }
      ],
      "name": "has",
      "outputs": [
        {
          "internalType": "bool",
          "name": "",
          "type": "bool"
        }
      ],
      "stateMutability": "view",
      "type": "function"
    },
    {
      "inputs": [
        {
          "internalType": "address",
          "name": "implementation",
          "type": "address"
        }
      ],
      "name": "hasNext",
      "outputs": [
        {
          "internalType": "bool",
          "name": "",
          "type": "bool"
        }
      ],
      "stateMutability": "view",
      "type": "function"
    },
    {
      "inputs": [
        {
          "internalType": "bytes32",
          "name": "role",
          "type": "bytes32"
        },
        {
          "internalType": "address",
          "name": "account",
          "type": "address"
        }
      ],
      "name": "hasRole",
      "outputs": [
        {
          "internalType": "bool",
          "name": "",
          "type": "bool"
        }
      ],
      "stateMutability": "view",
      "type": "function"
    },
    {
      "inputs": [
        {
          "internalType": "uint8[3]",
          "name": "version",
          "type": "uint8[3]"
        }
      ],
      "name": "hasVersion",
      "outputs": [
        {
          "internalType": "bool",
          "name": "",
          "type": "bool"
        }
      ],
      "stateMutability": "view",
      "type": "function"
    },
    {
      "inputs": [
        {
          "internalType": "address",
          "name": "_owner",
          "type": "address"
        },
        {
          "internalType": "address",
          "name": "implementation",
          "type": "address"
        }
      ],
      "name": "initialize",
      "outputs": [],
      "stateMutability": "nonpayable",
      "type": "function"
    },
    {
      "inputs": [],
      "name": "isAdmin",
      "outputs": [
        {
          "internalType": "bool",
          "name": "",
          "type": "bool"
        }
      ],
      "stateMutability": "view",
      "type": "function"
    },
    {
      "inputs": [
        {
          "internalType": "uint256",
          "name": "lineageId",
          "type": "uint256"
        }
      ],
      "name": "lineageExists",
      "outputs": [
        {
          "internalType": "bool",
          "name": "",
          "type": "bool"
        }
      ],
      "stateMutability": "view",
      "type": "function"
    },
    {
      "inputs": [
        {
          "internalType": "address",
          "name": "",
          "type": "address"
        }
      ],
      "name": "lineageIdOf",
      "outputs": [
        {
          "internalType": "uint256",
          "name": "",
          "type": "uint256"
        }
      ],
      "stateMutability": "view",
      "type": "function"
    },
    {
      "inputs": [
        {
          "internalType": "address",
          "name": "implementation",
          "type": "address"
        }
      ],
      "name": "nextImplementationOf",
      "outputs": [
        {
          "internalType": "address",
          "name": "",
          "type": "address"
        }
      ],
      "stateMutability": "view",
      "type": "function"
    },
    {
      "inputs": [],
      "name": "pause",
      "outputs": [],
      "stateMutability": "nonpayable",
      "type": "function"
    },
    {
      "inputs": [],
      "name": "paused",
      "outputs": [
        {
          "internalType": "bool",
          "name": "",
          "type": "bool"
        }
      ],
      "stateMutability": "view",
      "type": "function"
    },
    {
      "inputs": [
        {
          "internalType": "address",
          "name": "toRemove",
          "type": "address"
        },
        {
          "internalType": "address",
          "name": "previous",
          "type": "address"
        }
      ],
      "name": "remove",
      "outputs": [],
      "stateMutability": "nonpayable",
      "type": "function"
    },
    {
      "inputs": [
        {
          "internalType": "bytes32",
          "name": "role",
          "type": "bytes32"
        },
        {
          "internalType": "address",
          "name": "account",
          "type": "address"
        }
      ],
      "name": "renounceRole",
      "outputs": [],
      "stateMutability": "nonpayable",
      "type": "function"
    },
    {
      "inputs": [
        {
          "internalType": "bytes32",
          "name": "role",
          "type": "bytes32"
        },
        {
          "internalType": "address",
          "name": "account",
          "type": "address"
        }
      ],
      "name": "revokeRole",
      "outputs": [],
      "stateMutability": "nonpayable",
      "type": "function"
    },
    {
      "inputs": [
        {
          "internalType": "address",
          "name": "implementation",
          "type": "address"
        },
        {
          "internalType": "bytes",
          "name": "data",
          "type": "bytes"
        }
      ],
      "name": "setUpgradeDataFor",
      "outputs": [],
      "stateMutability": "nonpayable",
      "type": "function"
    },
    {
      "inputs": [],
      "name": "unpause",
      "outputs": [],
      "stateMutability": "nonpayable",
      "type": "function"
    },
    {
      "inputs": [
        {
          "internalType": "address",
          "name": "",
          "type": "address"
        }
      ],
      "name": "upgradeDataFor",
      "outputs": [
        {
          "internalType": "bytes",
          "name": "",
          "type": "bytes"
        }
      ],
      "stateMutability": "view",
      "type": "function"
    }
  ],
  "transactionHash": "0xa3299c33e5be86808792231b8c11914a9261d782342c0e3551532e80b7b5202c",
  "args": [],
  "numDeployments": 1,
  "solcInputHash": "53bc22ef9840d85c0b702ac8db87cc08",
  "bytecode": "0x608060405234801561001057600080fd5b5061217f806100206000396000f3fe608060405234801561001057600080fd5b50600436106101bb5760003560e01c8063800751b2116100fa578063ac04f5a71161009d578063ac04f5a714610385578063b6db75a014610398578063ca15c873146103a0578063d547741f146103b3578063d8bd5c29146103c6578063e58378bb146103ce578063e63ab1e9146103d6578063f57f6880146103de578063fd81bf9a146103f1576101bb565b8063800751b2146103015780638456cb591461030957806386c700e2146103115780638e12f761146103245780639010d07c1461034457806391d14854146103575780639fb9d3d31461036a578063a217fddf1461037d576101bb565b8063526d81f611610162578063526d81f6146102725780635b730dbb1461027a5780635c975abb1461028d5780636063d19c146102955780636067570e146102a85780636a3def6c146102bb57806378e33e4e146102db5780637f7c1491146102ee576101bb565b8063097616a3146101c05780630e6a6ef5146101d557806321887c3d146101fe578063248a9ca3146102115780632f2ff15d1461023157806336568abe146102445780633f4ba83a14610257578063485cc9551461025f575b600080fd5b6101d36101ce366004611a21565b610404565b005b6101e86101e3366004611a21565b61053d565b6040516101f59190611cfc565b60405180910390f35b6101e861020c366004611a21565b61055e565b61022461021f366004611bc7565b61056f565b6040516101f59190611d07565b6101d361023f366004611bdf565b610584565b6101d3610252366004611bdf565b6105c8565b6101d361060a565b6101d361026d366004611a3c565b61064a565b6101d36106ef565b610224610288366004611a21565b61077a565b6101e861078d565b6101e86102a3366004611bc7565b610796565b6101d36102b6366004611a70565b6107a1565b6102ce6102c9366004611a21565b610828565b6040516101f59190611cb4565b6102246102e9366004611a21565b61086e565b6101d36102fc366004611a3c565b6108c0565b610224610911565b6101d3610918565b6101d361031f366004611af0565b610956565b610337610332366004611a21565b6109a7565b6040516101f59190611d10565b6102ce610352366004611c0e565b610a43565b6101e8610365366004611bdf565b610a62565b6102ce610378366004611b1a565b610a7a565b610224610aca565b6101d3610393366004611a21565b610acf565b6101e8610b23565b6102246103ae366004611bc7565b610b44565b6101d36103c1366004611bdf565b610b5b565b6102ce610b95565b610224610bc7565b610224610bd9565b6101e86103ec366004611b1a565b610beb565b6102ce6103ff366004611bc7565b610c1f565b600054610100900460ff168061041d575061041d610c4e565b8061042b575060005460ff16155b6104505760405162461bcd60e51b815260040161044790611f39565b60405180910390fd5b600054610100900460ff1615801561047b576000805460ff1961ff0019909116610100171660011790555b6001600160a01b0382166104a15760405162461bcd60e51b815260040161044790611f04565b6104a9610c54565b6104b1610cd5565b6104b9610d61565b6104d160008051602061210a833981519152836105be565b6104e960008051602061212a833981519152836105be565b61050f60008051602061212a83398151915260008051602061210a833981519152610df0565b61052760008051602061210a83398151915280610df0565b8015610539576000805461ff00191690555b5050565b6001600160a01b0390811660009081526101c4602052604090205416151590565b600061056982610e05565b92915050565b60009081526065602052604090206002015490565b6000828152606560205260409020600201546105a290610365610e23565b6105be5760405162461bcd60e51b815260040161044790611da5565b6105398282610e27565b6105d0610e23565b6001600160a01b0316816001600160a01b0316146106005760405162461bcd60e51b815260040161044790612066565b6105398282610e90565b61062460008051602061212a833981519152610365610e23565b6106405760405162461bcd60e51b815260040161044790611fae565b610648610ef9565b565b600054610100900460ff16806106635750610663610c4e565b80610671575060005460ff16155b61068d5760405162461bcd60e51b815260040161044790611f39565b600054610100900460ff161580156106b8576000805460ff1961ff0019909116610100171660011790555b6106c183610404565b6106ca82610f65565b506101c7546106d857600080fd5b80156106ea576000805461ff00191690555b505050565b600054610100900460ff16806107085750610708610c4e565b80610716575060005460ff16155b6107325760405162461bcd60e51b815260040161044790611f39565b600054610100900460ff1615801561075d576000805460ff1961ff0019909116610100171660011790555b610765610cd5565b8015610777576000805461ff00191690555b50565b6101c56020526000908152604090205481565b60975460ff1690565b600061056982610fff565b6107a9610b23565b6107c55760405162461bcd60e51b81526004016104479061201b565b60975460ff16156107e85760405162461bcd60e51b815260040161044790611eda565b6106ea8383838080601f01602080910402602001604051908101604052809392919081815260200183838082843760009201919091525061101592505050565b60975460009060ff161561084e5760405162461bcd60e51b815260040161044790611eda565b506001600160a01b0390811660009081526101c460205260409020541690565b6000610878610b23565b6108945760405162461bcd60e51b81526004016104479061201b565b60975460ff16156108b75760405162461bcd60e51b815260040161044790611eda565b61056982610f65565b6108c8610b23565b6108e45760405162461bcd60e51b81526004016104479061201b565b60975460ff16156109075760405162461bcd60e51b815260040161044790611eda565b61053982826110aa565b6101c75481565b61093260008051602061212a833981519152610365610e23565b61094e5760405162461bcd60e51b815260040161044790611fae565b610648611138565b61095e610b23565b61097a5760405162461bcd60e51b81526004016104479061201b565b60975460ff161561099d5760405162461bcd60e51b815260040161044790611eda565b6105398282611191565b6101c36020908152600091825260409182902080548351601f600260001961010060018616150201909316929092049182018490048402810184019094528084529091830182828015610a3b5780601f10610a1057610100808354040283529160200191610a3b565b820191906000526020600020905b815481529060010190602001808311610a1e57829003601f168201915b505050505081565b6000828152606560205260408120610a5b9083611220565b9392505050565b6000828152606560205260408120610a5b908361122c565b60006101c882604051602001610a909190611c2f565b60408051601f1981840301815290829052610aaa91611c98565b908152604051908190036020019020546001600160a01b03169050919050565b600081565b610ad7610b23565b610af35760405162461bcd60e51b81526004016104479061201b565b60975460ff1615610b165760405162461bcd60e51b815260040161044790611eda565b610777816101c754611191565b6000610b3f60008051602061210a833981519152610365610e23565b905090565b600081815260656020526040812061056990611241565b600082815260656020526040902060020154610b7990610365610e23565b6106005760405162461bcd60e51b815260040161044790611e8a565b60975460009060ff1615610bbb5760405162461bcd60e51b815260040161044790611eda565b610b3f6101c75461124c565b60008051602061210a83398151915281565b60008051602061212a83398151915281565b6000610569826003806020026040519081016040528092919082600360200280828437600092019190915250611268915050565b60975460009060ff1615610c455760405162461bcd60e51b815260040161044790611eda565b6105698261124c565b303b1590565b600054610100900460ff1680610c6d5750610c6d610c4e565b80610c7b575060005460ff16155b610c975760405162461bcd60e51b815260040161044790611f39565b600054610100900460ff16158015610765576000805460ff1961ff0019909116610100171660011790558015610777576000805461ff001916905550565b600054610100900460ff1680610cee5750610cee610c4e565b80610cfc575060005460ff16155b610d185760405162461bcd60e51b815260040161044790611f39565b600054610100900460ff16158015610d43576000805460ff1961ff0019909116610100171660011790555b6097805460ff191690558015610777576000805461ff001916905550565b600054610100900460ff1680610d7a5750610d7a610c4e565b80610d88575060005460ff16155b610da45760405162461bcd60e51b815260040161044790611f39565b600054610100900460ff16158015610dcf576000805460ff1961ff0019909116610100171660011790555b60c9805460ff191660011790558015610777576000805461ff001916905550565b60009182526065602052604090912060020155565b6001600160a01b031660009081526101c56020526040902054151590565b3390565b6000828152606560205260409020610e3f90826112c4565b1561053957610e4c610e23565b6001600160a01b0316816001600160a01b0316837f2f8788117e7eff1d82e926ec794901d17c78024a50270940304540a733656f0d60405160405180910390a45050565b6000828152606560205260409020610ea890826112d9565b1561053957610eb5610e23565b6001600160a01b0316816001600160a01b0316837ff6391f5c32d9c69d2a47ea670b442974b53935d1edc7fd64eb21e047a839171b60405160405180910390a45050565b60975460ff16610f1b5760405162461bcd60e51b815260040161044790611df4565b6097805460ff191690557f5db9ee0a495bf2e6ff9c91a7834c1ba4fdd244a5e8aa4e537bd38aeae4b073aa610f4e610e23565b604051610f5b9190611cb4565b60405180910390a1565b6000610f6f61194e565b826001600160a01b0316630d8e6e2c6040518163ffffffff1660e01b815260040160606040518083038186803b158015610fa857600080fd5b505afa158015610fbc573d6000803e3d6000fd5b505050506040513d601f19601f82011682018060405250810190610fe09190611b40565b9050610fec81846112ee565b6000610ff7846113b1565b949350505050565b600081158015906105695750506101c754101590565b61101e82610e05565b61103a5760405162461bcd60e51b815260040161044790611ff5565b6001600160a01b03821660009081526101c36020908152604090912082516110649284019061196c565b50816001600160a01b03167fcfcd475c604bfbc75932564c95bc031e51de33f73cad003713615047cd8fff2e8260405161109e9190611d10565b60405180910390a25050565b6110b261194e565b826001600160a01b0316630d8e6e2c6040518163ffffffff1660e01b815260040160606040518083038186803b1580156110eb57600080fd5b505afa1580156110ff573d6000803e3d6000fd5b505050506040513d601f19601f820116820180604052508101906111239190611b40565b905061112e81611454565b6106ea838361153b565b60975460ff161561115b5760405162461bcd60e51b815260040161044790611eda565b6097805460ff191660011790557f62e78cea01bee320cd4e420270b5ea74000d11b0c9f74754ebdbfc544b05a258610f4e610e23565b61119961194e565b826001600160a01b0316630d8e6e2c6040518163ffffffff1660e01b815260040160606040518083038186803b1580156111d257600080fd5b505afa1580156111e6573d6000803e3d6000fd5b505050506040513d601f19601f8201168201806040525081019061120a9190611b40565b905061121681846112ee565b6106ea83836116ac565b6000610a5b83836117d7565b6000610a5b836001600160a01b03841661181c565b600061056982611834565b60009081526101c660205260409020546001600160a01b031690565b6000806001600160a01b03166101c8836040516020016112889190611c70565b60408051601f19818403018152908290526112a291611c98565b908152604051908190036020019020546001600160a01b031614159050919050565b6000610a5b836001600160a01b038416611838565b6000610a5b836001600160a01b038416611882565b6112f782611268565b156113145760405162461bcd60e51b815260040161044790611d43565b806101c8836040516020016113299190611c70565b60408051601f198184030181529082905261134391611c98565b90815260405190819003602001812080546001600160a01b039384166001600160a01b03199091161790559082169061137d908490611c70565b604051908190038120907f0e9fe021c3c807e908689f11f723b17a4f0d65d0a62a5cda1e39656ddee33c8890600090a35050565b60006113bc82611948565b6113d85760405162461bcd60e51b815260040161044790611e22565b6101c7805460010180825560009081526101c66020908152604080832080546001600160a01b0319166001600160a01b03881690811790915593548484526101c5909252808320829055519192917f5570b95960d1ec214184bfc3681f1e8b1b70e90f7e07e53a209e8029cbba5d5b908490a450506101c75490565b60006101c88260405160200161146a9190611cc8565b60408051601f198184030181529082905261148491611c98565b90815260405160209181900382018120546001600160a01b031692506000916101c8916114b391869101611c70565b60408051601f19818403018152908290526114cd91611c98565b90815260405190819003602001812080546001600160a01b039384166001600160a01b031990911617905590821690611507908490611c70565b604051908190038120907f18e2b5e04736289291853fdba61749fad2d986bbbc779a658029be409d6ac5d890600090a35050565b6001600160a01b0382161580159061155b57506001600160a01b03811615155b6115775760405162461bcd60e51b815260040161044790611e4a565b6001600160a01b0381811660009081526101c460205260409020548116908316146115b45760405162461bcd60e51b815260040161044790611e68565b6001600160a01b0380831660008181526101c560209081526040808320548084526101c69092529091205490921614156116115760008181526101c66020526040902080546001600160a01b0319166001600160a01b0384161790555b61162a8360405180602001604052806000815250611015565b6001600160a01b0383811660008181526101c460209081526040808320805488871685528285208054919097166001600160a01b03199182161790965584845280549095169094556101c590528281208190559151909183917f0d141fd7c77072fc48765e24d85a4727dc79f72cbb320ad2ba944e2914a51e6d9190a3505050565b6116b582611948565b6116d15760405162461bcd60e51b815260040161044790611e22565b6116da82610e05565b156116f75760405162461bcd60e51b815260040161044790611d43565b61170081610fff565b61171c5760405162461bcd60e51b815260040161044790611fca565b60008181526101c660205260409020546001600160a01b03166117515760405162461bcd60e51b815260040161044790611f87565b60008181526101c66020908152604080832080546001600160a01b038781166001600160a01b031980841682179094558087526101c5865284872088905591168086526101c49094528285208054909216811790915590519192839285917f5570b95960d1ec214184bfc3681f1e8b1b70e90f7e07e53a209e8029cbba5d5b91a4505050565b815460009082106117fa5760405162461bcd60e51b815260040161044790611d63565b82600001828154811061180957fe5b9060005260206000200154905092915050565b60009081526001919091016020526040902054151590565b5490565b6000611844838361181c565b61187a57508154600181810184556000848152602080822090930184905584548482528286019093526040902091909155610569565b506000610569565b6000818152600183016020526040812054801561193e57835460001980830191908101906000908790839081106118b557fe5b90600052602060002001549050808760000184815481106118d257fe5b60009182526020808320909101929092558281526001898101909252604090209084019055865487908061190257fe5b60019003818190600052602060002001600090559055866001016000878152602001908152602001600020600090556001945050505050610569565b6000915050610569565b3b151590565b60405180606001604052806003906020820280368337509192915050565b828054600181600116156101000203166002900490600052602060002090601f016020900481019282601f106119ad57805160ff19168380011785556119da565b828001600101855582156119da579182015b828111156119da5782518255916020019190600101906119bf565b506119e69291506119ea565b5090565b5b808211156119e657600081556001016119eb565b80356001600160a01b038116811461056957600080fd5b8051610569816120fa565b600060208284031215611a32578081fd5b610a5b83836119ff565b60008060408385031215611a4e578081fd5b611a5884846119ff565b9150611a6784602085016119ff565b90509250929050565b600080600060408486031215611a84578081fd5b8335611a8f816120e5565b9250602084013567ffffffffffffffff80821115611aab578283fd5b818601915086601f830112611abe578283fd5b813581811115611acc578384fd5b876020828501011115611add578384fd5b6020830194508093505050509250925092565b60008060408385031215611b02578182fd5b611b0c84846119ff565b946020939093013593505050565b600060608284031215611b2b578081fd5b82606083011115611b3a578081fd5b50919050565b600060608284031215611b51578081fd5b82601f830112611b5f578081fd5b6040516060810181811067ffffffffffffffff82111715611b7e578283fd5b604052808360608101861015611b92578384fd5b835b6003811015611bbc57611ba78783611a16565b83526020928301929190910190600101611b94565b509195945050505050565b600060208284031215611bd8578081fd5b5035919050565b60008060408385031215611bf1578182fd5b823591506020830135611c03816120e5565b809150509250929050565b60008060408385031215611c20578182fd5b50508035926020909101359150565b60008183825b6003811015611c615760208235611c4b816120fa565b60ff168452928301929190910190600101611c35565b50505060608201905092915050565b60008183825b6003811015611c6157815160ff16835260209283019290910190600101611c76565b60008251611caa8184602087016120b5565b9190910192915050565b6001600160a01b0391909116815260200190565b60608101818360005b6003811015611cf357815160ff16835260209283019290910190600101611cd1565b50505092915050565b901515815260200190565b90815260200190565b6000602082528251806020840152611d2f8160408501602087016120b5565b601f01601f19169190910160400192915050565b60208082526006908201526565786973747360d01b604082015260600190565b60208082526022908201527f456e756d657261626c655365743a20696e646578206f7574206f6620626f756e604082015261647360f01b606082015260800190565b6020808252602f908201527f416363657373436f6e74726f6c3a2073656e646572206d75737420626520616e60408201526e0818591b5a5b881d1bc819dc985b9d608a1b606082015260800190565b60208082526014908201527314185d5cd8589b194e881b9bdd081c185d5cd95960621b604082015260600190565b6020808252600e908201526d1b9bdd08184818dbdb9d1c9858dd60921b604082015260600190565b6020808252600490820152635a45524f60e01b604082015260600190565b6020808252600890820152672737ba10383932bb60c11b604082015260600190565b60208082526030908201527f416363657373436f6e74726f6c3a2073656e646572206d75737420626520616e60408201526f2061646d696e20746f207265766f6b6560801b606082015260800190565b60208082526010908201526f14185d5cd8589b194e881c185d5cd95960821b604082015260600190565b6020808252818101527f4f776e65722063616e6e6f7420626520746865207a65726f2061646472657373604082015260600190565b6020808252602e908201527f436f6e747261637420696e7374616e63652068617320616c726561647920626560408201526d195b881a5b9a5d1a585b1a5e995960921b606082015260800190565b6020808252600d908201526c656d707479206c696e6561676560981b604082015260600190565b6020808252600290820152614e4160f01b604082015260600190565b6020808252601190820152701a5b9d985b1a59081b1a5b995859d95259607a1b604082015260600190565b6020808252600c908201526b1d5b9adb9bdddb881a5b5c1b60a21b604082015260600190565b6020808252602b908201527f4d75737420686176652061646d696e20726f6c6520746f20706572666f726d2060408201526a3a3434b99030b1ba34b7b760a91b606082015260800190565b6020808252602f908201527f416363657373436f6e74726f6c3a2063616e206f6e6c792072656e6f756e636560408201526e103937b632b9903337b91039b2b63360891b606082015260800190565b60005b838110156120d05781810151838201526020016120b8565b838111156120df576000848401525b50505050565b6001600160a01b038116811461077757600080fd5b60ff8116811461077757600080fdfeb19546dff01e856fb3f010c267a7b1c60363cf8a4664e21cc89c26224620214e65d7a28e3265b37a6474929f336521b332c1681b933f6cb9f3376673440d862aa26469706673582212201ed294827d9a1b8226a403261a7bd756282e8c046d85cc8bec9530f03854f59e64736f6c634300060c0033",
  "devdoc": {
    "kind": "dev",
    "methods": {
      "append(address)": {
        "details": "reverts if the sender is not an ownerreverts if the contract is pausedreverts if `implementation` is not a contract",
        "params": {
          "implementation": "implementation to append"
        }
      },
      "append(address,uint256)": {
        "details": "reverts if the contract is pausedreverts if the sender is not an ownerreverts if `implementation` is not a contract",
        "params": {
          "implementation": "implementation to append",
          "lineageId": "id of lineage to append to"
        }
      },
      "createLineage(address)": {
        "details": "reverts if `implementation` is not a contract",
        "params": {
          "implementation": "implementation that will be the first implementation in the lineage"
        },
        "returns": {
          "_0": "newly created lineage's id"
        }
      },
      "getByVersion(uint8[3])": {
        "params": {
          "version": "`[major, minor, patch]` version tag"
        },
        "returns": {
          "_0": "implementation associated with the given version tag"
        }
      },
      "getRoleAdmin(bytes32)": {
        "details": "Returns the admin role that controls `role`. See {grantRole} and {revokeRole}. To change a role's admin, use {_setRoleAdmin}."
      },
      "getRoleMember(bytes32,uint256)": {
        "details": "Returns one of the accounts that have `role`. `index` must be a value between 0 and {getRoleMemberCount}, non-inclusive. Role bearers are not sorted in any particular way, and their ordering may change at any point. WARNING: When using {getRoleMember} and {getRoleMemberCount}, make sure you perform all queries on the same block. See the following https://forum.openzeppelin.com/t/iterating-over-elements-on-enumerableset-in-openzeppelin-contracts/2296[forum post] for more information."
      },
      "getRoleMemberCount(bytes32)": {
        "details": "Returns the number of accounts that have `role`. Can be used together with {getRoleMember} to enumerate all bearers of a role."
      },
      "grantRole(bytes32,address)": {
        "details": "Grants `role` to `account`. If `account` had not been already granted `role`, emits a {RoleGranted} event. Requirements: - the caller must have ``role``'s admin role."
      },
      "has(address)": {
        "params": {
          "implementation": "Implementation to check existence of"
        },
        "returns": {
          "_0": "`true` if the implementation has already been added"
        }
      },
      "hasNext(address)": {
        "params": {
          "implementation": "implementation to check"
        },
        "returns": {
          "_0": "The implementation following the given implementation"
        }
      },
      "hasRole(bytes32,address)": {
        "details": "Returns `true` if `account` has been granted `role`."
      },
      "hasVersion(uint8[3])": {
        "params": {
          "version": "`[major, minor, patch]` version tag"
        },
        "returns": {
          "_0": "true if the version is registered"
        }
      },
      "initialize(address,address)": {
        "details": "reverts if `_owner` is the null addressreverts if `implementation` is not a contract",
        "params": {
          "_owner": "owner of the repository",
          "implementation": "initial implementation in the repository"
        }
      },
      "nextImplementationOf(address)": {
        "details": "reverts when contract is paused",
        "params": {
          "implementation": "implementation to get the upgraded implementation for"
        },
        "returns": {
          "_0": "Next Implementation"
        }
      },
      "pause()": {
        "details": "Pauses all functions guarded by Pause See {Pausable-_pause}. Requirements: - the caller must have the PAUSER_ROLE."
      },
      "paused()": {
        "details": "Returns true if the contract is paused, and false otherwise."
      },
      "remove(address,address)": {
        "details": "If you have a chain of `A -> B -> C` and I call `remove(B, C)` it will result in `A -> C`reverts if `previos` is not the ancestor of `toRemove`we need to provide the previous implementation here to be able to successfully \"stitch\"       the chain back together. Because this is an admin action, we can source what the previous       version is from events.",
        "params": {
          "previous": "Implementation that currently has `toRemove` as its successor",
          "toRemove": "Implementation to remove"
        }
      },
      "renounceRole(bytes32,address)": {
        "details": "Revokes `role` from the calling account. Roles are often managed via {grantRole} and {revokeRole}: this function's purpose is to provide a mechanism for accounts to lose their privileges if they are compromised (such as when a trusted device is misplaced). If the calling account had been granted `role`, emits a {RoleRevoked} event. Requirements: - the caller must be `account`."
      },
      "revokeRole(bytes32,address)": {
        "details": "Revokes `role` from `account`. If `account` had been granted `role`, emits a {RoleRevoked} event. Requirements: - the caller must have ``role``'s admin role."
      },
      "setUpgradeDataFor(address,bytes)": {
        "details": "reverts when caller is not an adminreverts when the contract is pausedreverts if the given implementation isn't registered"
      },
      "unpause()": {
        "details": "Unpauses the contract See {Pausable-_unpause}. Requirements: - the caller must have the Pauser role"
      }
    },
    "version": 1
  },
  "userdoc": {
    "kind": "user",
    "methods": {
      "append(address)": {
        "notice": "add a new implementation and set it as the current implementation"
      },
      "append(address,uint256)": {
        "notice": "Append an implementation to a specified lineage"
      },
      "createLineage(address)": {
        "notice": "Create a new lineage of implementations. This creates a new \"root\" of a new lineage"
      },
      "currentImplementation()": {
        "notice": "return current implementaton of the current lineage"
      },
      "currentImplementation(uint256)": {
        "notice": "Return the current implementation of a lineage with the given `lineageId`"
      },
      "currentLineageId()": {
        "notice": "Returns the id of the most recently created lineage"
      },
      "getByVersion(uint8[3])": {
        "notice": "get an implementation by a version tag"
      },
      "has(address)": {
        "notice": "Returns `true` if an implementation has already been added"
      },
      "hasNext(address)": {
        "notice": "Returns `true` if an implementation has a next implementation set"
      },
      "hasVersion(uint8[3])": {
        "notice": "check if a version exists"
      },
      "initialize(address,address)": {
        "notice": "initialize the repository's state"
      },
      "lineageExists(uint256)": {
        "notice": "Returns `true` if a given lineageId exists"
      },
      "lineageIdOf(address)": {
        "notice": "Returns the id of the lineage a given implementation belongs to"
      },
      "nextImplementationOf(address)": {
        "notice": "Get the next implementation for a given implementation or           `address(0)` if it doesn't exist"
      },
      "remove(address,address)": {
        "notice": "Remove an implementation from the chain and \"stitch\" together its neighbors"
      },
      "setUpgradeDataFor(address,bytes)": {
        "notice": "set data that will be delegate called when a proxy upgrades to the given `implementation`"
      },
      "upgradeDataFor(address)": {
        "notice": "returns data that will be delegatedCalled when the given implementation           is upgraded to"
      }
    },
    "version": 1
  },
  "storageLayout": {
    "storage": [
      {
        "astId": 50,
        "contract": "contracts/protocol/core/TranchedPoolImplementationRepository.sol:TranchedPoolImplementationRepository",
        "label": "initialized",
        "offset": 0,
        "slot": "0",
        "type": "t_bool"
      },
      {
        "astId": 53,
        "contract": "contracts/protocol/core/TranchedPoolImplementationRepository.sol:TranchedPoolImplementationRepository",
        "label": "initializing",
        "offset": 1,
        "slot": "0",
        "type": "t_bool"
      },
      {
        "astId": 118,
        "contract": "contracts/protocol/core/TranchedPoolImplementationRepository.sol:TranchedPoolImplementationRepository",
        "label": "______gap",
        "offset": 0,
        "slot": "1",
        "type": "t_array(t_uint256)50_storage"
      },
      {
        "astId": 43,
        "contract": "contracts/protocol/core/TranchedPoolImplementationRepository.sol:TranchedPoolImplementationRepository",
        "label": "__gap",
        "offset": 0,
        "slot": "51",
        "type": "t_array(t_uint256)50_storage"
      },
      {
        "astId": 163,
        "contract": "contracts/protocol/core/TranchedPoolImplementationRepository.sol:TranchedPoolImplementationRepository",
        "label": "_roles",
        "offset": 0,
        "slot": "101",
        "type": "t_mapping(t_bytes32,t_struct(RoleData)159_storage)"
      },
      {
        "astId": 408,
        "contract": "contracts/protocol/core/TranchedPoolImplementationRepository.sol:TranchedPoolImplementationRepository",
        "label": "__gap",
        "offset": 0,
        "slot": "102",
        "type": "t_array(t_uint256)49_storage"
      },
      {
        "astId": 3137,
        "contract": "contracts/protocol/core/TranchedPoolImplementationRepository.sol:TranchedPoolImplementationRepository",
        "label": "_paused",
        "offset": 0,
        "slot": "151",
        "type": "t_bool"
      },
      {
        "astId": 3226,
        "contract": "contracts/protocol/core/TranchedPoolImplementationRepository.sol:TranchedPoolImplementationRepository",
        "label": "__gap",
        "offset": 0,
        "slot": "152",
        "type": "t_array(t_uint256)49_storage"
      },
      {
        "astId": 3235,
        "contract": "contracts/protocol/core/TranchedPoolImplementationRepository.sol:TranchedPoolImplementationRepository",
        "label": "_notEntered",
        "offset": 0,
        "slot": "201",
        "type": "t_bool"
      },
      {
        "astId": 3276,
        "contract": "contracts/protocol/core/TranchedPoolImplementationRepository.sol:TranchedPoolImplementationRepository",
        "label": "__gap",
        "offset": 0,
        "slot": "202",
        "type": "t_array(t_uint256)49_storage"
      },
      {
        "astId": 15216,
        "contract": "contracts/protocol/core/TranchedPoolImplementationRepository.sol:TranchedPoolImplementationRepository",
        "label": "__gap1",
        "offset": 0,
        "slot": "251",
        "type": "t_array(t_uint256)50_storage"
      },
      {
        "astId": 15220,
        "contract": "contracts/protocol/core/TranchedPoolImplementationRepository.sol:TranchedPoolImplementationRepository",
        "label": "__gap2",
        "offset": 0,
        "slot": "301",
        "type": "t_array(t_uint256)50_storage"
      },
      {
        "astId": 15224,
        "contract": "contracts/protocol/core/TranchedPoolImplementationRepository.sol:TranchedPoolImplementationRepository",
        "label": "__gap3",
        "offset": 0,
        "slot": "351",
        "type": "t_array(t_uint256)50_storage"
      },
      {
        "astId": 15228,
        "contract": "contracts/protocol/core/TranchedPoolImplementationRepository.sol:TranchedPoolImplementationRepository",
        "label": "__gap4",
        "offset": 0,
        "slot": "401",
        "type": "t_array(t_uint256)50_storage"
      },
      {
        "astId": 28238,
        "contract": "contracts/protocol/core/TranchedPoolImplementationRepository.sol:TranchedPoolImplementationRepository",
        "label": "upgradeDataFor",
        "offset": 0,
        "slot": "451",
        "type": "t_mapping(t_address,t_bytes_storage)"
      },
      {
        "astId": 28243,
        "contract": "contracts/protocol/core/TranchedPoolImplementationRepository.sol:TranchedPoolImplementationRepository",
        "label": "_nextImplementationOf",
        "offset": 0,
        "slot": "452",
        "type": "t_mapping(t_address,t_address)"
      },
      {
        "astId": 28248,
        "contract": "contracts/protocol/core/TranchedPoolImplementationRepository.sol:TranchedPoolImplementationRepository",
        "label": "lineageIdOf",
        "offset": 0,
        "slot": "453",
        "type": "t_mapping(t_address,t_uint256)"
      },
      {
        "astId": 28253,
        "contract": "contracts/protocol/core/TranchedPoolImplementationRepository.sol:TranchedPoolImplementationRepository",
        "label": "_currentOfLineage",
        "offset": 0,
        "slot": "454",
        "type": "t_mapping(t_uint256,t_address)"
      },
      {
        "astId": 28256,
        "contract": "contracts/protocol/core/TranchedPoolImplementationRepository.sol:TranchedPoolImplementationRepository",
        "label": "currentLineageId",
        "offset": 0,
        "slot": "455",
        "type": "t_uint256"
      },
      {
        "astId": 29019,
        "contract": "contracts/protocol/core/TranchedPoolImplementationRepository.sol:TranchedPoolImplementationRepository",
        "label": "_byVersion",
        "offset": 0,
        "slot": "456",
        "type": "t_mapping(t_bytes_memory_ptr,t_address)"
      }
    ],
    "types": {
      "t_address": {
        "encoding": "inplace",
        "label": "address",
        "numberOfBytes": "20"
      },
      "t_array(t_bytes32)dyn_storage": {
        "base": "t_bytes32",
        "encoding": "dynamic_array",
        "label": "bytes32[]",
        "numberOfBytes": "32"
      },
      "t_array(t_uint256)49_storage": {
        "base": "t_uint256",
        "encoding": "inplace",
        "label": "uint256[49]",
        "numberOfBytes": "1568"
      },
      "t_array(t_uint256)50_storage": {
        "base": "t_uint256",
        "encoding": "inplace",
        "label": "uint256[50]",
        "numberOfBytes": "1600"
      },
      "t_bool": {
        "encoding": "inplace",
        "label": "bool",
        "numberOfBytes": "1"
      },
      "t_bytes32": {
        "encoding": "inplace",
        "label": "bytes32",
        "numberOfBytes": "32"
      },
      "t_bytes_memory_ptr": {
        "encoding": "bytes",
        "label": "bytes",
        "numberOfBytes": "32"
      },
      "t_bytes_storage": {
        "encoding": "bytes",
        "label": "bytes",
        "numberOfBytes": "32"
      },
      "t_mapping(t_address,t_address)": {
        "encoding": "mapping",
        "key": "t_address",
        "label": "mapping(address => address)",
        "numberOfBytes": "32",
        "value": "t_address"
      },
      "t_mapping(t_address,t_bytes_storage)": {
        "encoding": "mapping",
        "key": "t_address",
        "label": "mapping(address => bytes)",
        "numberOfBytes": "32",
        "value": "t_bytes_storage"
      },
      "t_mapping(t_address,t_uint256)": {
        "encoding": "mapping",
        "key": "t_address",
        "label": "mapping(address => uint256)",
        "numberOfBytes": "32",
        "value": "t_uint256"
      },
      "t_mapping(t_bytes32,t_struct(RoleData)159_storage)": {
        "encoding": "mapping",
        "key": "t_bytes32",
        "label": "mapping(bytes32 => struct AccessControlUpgradeSafe.RoleData)",
        "numberOfBytes": "32",
        "value": "t_struct(RoleData)159_storage"
      },
      "t_mapping(t_bytes32,t_uint256)": {
        "encoding": "mapping",
        "key": "t_bytes32",
        "label": "mapping(bytes32 => uint256)",
        "numberOfBytes": "32",
        "value": "t_uint256"
      },
      "t_mapping(t_bytes_memory_ptr,t_address)": {
        "encoding": "mapping",
        "key": "t_bytes_memory_ptr",
        "label": "mapping(bytes => address)",
        "numberOfBytes": "32",
        "value": "t_address"
      },
      "t_mapping(t_uint256,t_address)": {
        "encoding": "mapping",
        "key": "t_uint256",
        "label": "mapping(uint256 => address)",
        "numberOfBytes": "32",
        "value": "t_address"
      },
      "t_struct(AddressSet)2912_storage": {
        "encoding": "inplace",
        "label": "struct EnumerableSet.AddressSet",
        "members": [
          {
            "astId": 2911,
            "contract": "contracts/protocol/core/TranchedPoolImplementationRepository.sol:TranchedPoolImplementationRepository",
            "label": "_inner",
            "offset": 0,
            "slot": "0",
            "type": "t_struct(Set)2732_storage"
          }
        ],
        "numberOfBytes": "64"
      },
      "t_struct(RoleData)159_storage": {
        "encoding": "inplace",
        "label": "struct AccessControlUpgradeSafe.RoleData",
        "members": [
          {
            "astId": 156,
            "contract": "contracts/protocol/core/TranchedPoolImplementationRepository.sol:TranchedPoolImplementationRepository",
            "label": "members",
            "offset": 0,
            "slot": "0",
            "type": "t_struct(AddressSet)2912_storage"
          },
          {
            "astId": 158,
            "contract": "contracts/protocol/core/TranchedPoolImplementationRepository.sol:TranchedPoolImplementationRepository",
            "label": "adminRole",
            "offset": 0,
            "slot": "2",
            "type": "t_bytes32"
          }
        ],
        "numberOfBytes": "96"
      },
      "t_struct(Set)2732_storage": {
        "encoding": "inplace",
        "label": "struct EnumerableSet.Set",
        "members": [
          {
            "astId": 2727,
            "contract": "contracts/protocol/core/TranchedPoolImplementationRepository.sol:TranchedPoolImplementationRepository",
            "label": "_values",
            "offset": 0,
            "slot": "0",
            "type": "t_array(t_bytes32)dyn_storage"
          },
          {
            "astId": 2731,
            "contract": "contracts/protocol/core/TranchedPoolImplementationRepository.sol:TranchedPoolImplementationRepository",
            "label": "_indexes",
            "offset": 0,
            "slot": "1",
            "type": "t_mapping(t_bytes32,t_uint256)"
          }
        ],
        "numberOfBytes": "64"
      },
      "t_uint256": {
        "encoding": "inplace",
        "label": "uint256",
        "numberOfBytes": "32"
      }
    }
  }
}