{
  "address": "0x3d62AE39d4B14554F8257ed5C82377c35F454dE0",
  "abi": [
    {
      "anonymous": false,
      "inputs": [
        {
          "indexed": true,
          "internalType": "address",
          "name": "account",
          "type": "address"
        },
        {
          "indexed": true,
          "internalType": "address",
          "name": "operator",
          "type": "address"
        },
        {
          "indexed": false,
          "internalType": "bool",
          "name": "approved",
          "type": "bool"
        }
      ],
      "name": "ApprovalForAll",
      "type": "event"
    },
    {
      "anonymous": false,
      "inputs": [
        {
          "indexed": false,
          "internalType": "address",
          "name": "account",
          "type": "address"
        }
      ],
      "name": "Paused",
      "type": "event"
    },
    {
      "anonymous": false,
      "inputs": [
        {
          "indexed": true,
          "internalType": "bytes32",
          "name": "role",
          "type": "bytes32"
        },
        {
          "indexed": true,
          "internalType": "bytes32",
          "name": "previousAdminRole",
          "type": "bytes32"
        },
        {
          "indexed": true,
          "internalType": "bytes32",
          "name": "newAdminRole",
          "type": "bytes32"
        }
      ],
      "name": "RoleAdminChanged",
      "type": "event"
    },
    {
      "anonymous": false,
      "inputs": [
        {
          "indexed": true,
          "internalType": "bytes32",
          "name": "role",
          "type": "bytes32"
        },
        {
          "indexed": true,
          "internalType": "address",
          "name": "account",
          "type": "address"
        },
        {
          "indexed": true,
          "internalType": "address",
          "name": "sender",
          "type": "address"
        }
      ],
      "name": "RoleGranted",
      "type": "event"
    },
    {
      "anonymous": false,
      "inputs": [
        {
          "indexed": true,
          "internalType": "bytes32",
          "name": "role",
          "type": "bytes32"
        },
        {
          "indexed": true,
          "internalType": "address",
          "name": "account",
          "type": "address"
        },
        {
          "indexed": true,
          "internalType": "address",
          "name": "sender",
          "type": "address"
        }
      ],
      "name": "RoleRevoked",
      "type": "event"
    },
    {
      "anonymous": false,
      "inputs": [
        {
          "indexed": true,
          "internalType": "address",
          "name": "operator",
          "type": "address"
        },
        {
          "indexed": true,
          "internalType": "address",
          "name": "from",
          "type": "address"
        },
        {
          "indexed": true,
          "internalType": "address",
          "name": "to",
          "type": "address"
        },
        {
          "indexed": false,
          "internalType": "uint256[]",
          "name": "ids",
          "type": "uint256[]"
        },
        {
          "indexed": false,
          "internalType": "uint256[]",
          "name": "values",
          "type": "uint256[]"
        }
      ],
      "name": "TransferBatch",
      "type": "event"
    },
    {
      "anonymous": false,
      "inputs": [
        {
          "indexed": true,
          "internalType": "address",
          "name": "operator",
          "type": "address"
        },
        {
          "indexed": true,
          "internalType": "address",
          "name": "from",
          "type": "address"
        },
        {
          "indexed": true,
          "internalType": "address",
          "name": "to",
          "type": "address"
        },
        {
          "indexed": false,
          "internalType": "uint256",
          "name": "id",
          "type": "uint256"
        },
        {
          "indexed": false,
          "internalType": "uint256",
          "name": "value",
          "type": "uint256"
        }
      ],
      "name": "TransferSingle",
      "type": "event"
    },
    {
      "anonymous": false,
      "inputs": [
        {
          "indexed": false,
          "internalType": "string",
          "name": "value",
          "type": "string"
        },
        {
          "indexed": true,
          "internalType": "uint256",
          "name": "id",
          "type": "uint256"
        }
      ],
      "name": "URI",
      "type": "event"
    },
    {
      "anonymous": false,
      "inputs": [
        {
          "indexed": false,
          "internalType": "address",
          "name": "account",
          "type": "address"
        }
      ],
      "name": "Unpaused",
      "type": "event"
    },
    {
      "inputs": [],
      "name": "DEFAULT_ADMIN_ROLE",
      "outputs": [
        {
          "internalType": "bytes32",
          "name": "",
          "type": "bytes32"
        }
      ],
      "stateMutability": "view",
      "type": "function"
    },
    {
      "inputs": [],
      "name": "ID_TYPE_0",
      "outputs": [
        {
          "internalType": "uint256",
          "name": "",
          "type": "uint256"
        }
      ],
      "stateMutability": "view",
      "type": "function"
    },
    {
      "inputs": [],
      "name": "ID_TYPE_1",
      "outputs": [
        {
          "internalType": "uint256",
          "name": "",
          "type": "uint256"
        }
      ],
      "stateMutability": "view",
      "type": "function"
    },
    {
      "inputs": [],
      "name": "ID_TYPE_10",
      "outputs": [
        {
          "internalType": "uint256",
          "name": "",
          "type": "uint256"
        }
      ],
      "stateMutability": "view",
      "type": "function"
    },
    {
      "inputs": [],
      "name": "ID_TYPE_2",
      "outputs": [
        {
          "internalType": "uint256",
          "name": "",
          "type": "uint256"
        }
      ],
      "stateMutability": "view",
      "type": "function"
    },
    {
      "inputs": [],
      "name": "ID_TYPE_3",
      "outputs": [
        {
          "internalType": "uint256",
          "name": "",
          "type": "uint256"
        }
      ],
      "stateMutability": "view",
      "type": "function"
    },
    {
      "inputs": [],
      "name": "ID_TYPE_4",
      "outputs": [
        {
          "internalType": "uint256",
          "name": "",
          "type": "uint256"
        }
      ],
      "stateMutability": "view",
      "type": "function"
    },
    {
      "inputs": [],
      "name": "ID_TYPE_5",
      "outputs": [
        {
          "internalType": "uint256",
          "name": "",
          "type": "uint256"
        }
      ],
      "stateMutability": "view",
      "type": "function"
    },
    {
      "inputs": [],
      "name": "ID_TYPE_6",
      "outputs": [
        {
          "internalType": "uint256",
          "name": "",
          "type": "uint256"
        }
      ],
      "stateMutability": "view",
      "type": "function"
    },
    {
      "inputs": [],
      "name": "ID_TYPE_7",
      "outputs": [
        {
          "internalType": "uint256",
          "name": "",
          "type": "uint256"
        }
      ],
      "stateMutability": "view",
      "type": "function"
    },
    {
      "inputs": [],
      "name": "ID_TYPE_8",
      "outputs": [
        {
          "internalType": "uint256",
          "name": "",
          "type": "uint256"
        }
      ],
      "stateMutability": "view",
      "type": "function"
    },
    {
      "inputs": [],
      "name": "ID_TYPE_9",
      "outputs": [
        {
          "internalType": "uint256",
          "name": "",
          "type": "uint256"
        }
      ],
      "stateMutability": "view",
      "type": "function"
    },
    {
      "inputs": [],
      "name": "MINT_COST_PER_TOKEN",
      "outputs": [
        {
          "internalType": "uint256",
          "name": "",
          "type": "uint256"
        }
      ],
      "stateMutability": "view",
      "type": "function"
    },
    {
      "inputs": [],
      "name": "OWNER_ROLE",
      "outputs": [
        {
          "internalType": "bytes32",
          "name": "",
          "type": "bytes32"
        }
      ],
      "stateMutability": "view",
      "type": "function"
    },
    {
      "inputs": [],
      "name": "PAUSER_ROLE",
      "outputs": [
        {
          "internalType": "bytes32",
          "name": "",
          "type": "bytes32"
        }
      ],
      "stateMutability": "view",
      "type": "function"
    },
    {
      "inputs": [],
      "name": "SIGNER_ROLE",
      "outputs": [
        {
          "internalType": "bytes32",
          "name": "",
          "type": "bytes32"
        }
      ],
      "stateMutability": "view",
      "type": "function"
    },
    {
      "inputs": [
        {
          "internalType": "address",
          "name": "account",
          "type": "address"
        },
        {
          "internalType": "uint256",
          "name": "id",
          "type": "uint256"
        }
      ],
      "name": "balanceOf",
      "outputs": [
        {
          "internalType": "uint256",
          "name": "",
          "type": "uint256"
        }
      ],
      "stateMutability": "view",
      "type": "function"
    },
    {
      "inputs": [
        {
          "internalType": "address[]",
          "name": "accounts",
          "type": "address[]"
        },
        {
          "internalType": "uint256[]",
          "name": "ids",
          "type": "uint256[]"
        }
      ],
      "name": "balanceOfBatch",
      "outputs": [
        {
          "internalType": "uint256[]",
          "name": "",
          "type": "uint256[]"
        }
      ],
      "stateMutability": "view",
      "type": "function"
    },
    {
      "inputs": [
        {
          "internalType": "address",
          "name": "account",
          "type": "address"
        },
        {
          "internalType": "uint256",
          "name": "id",
          "type": "uint256"
        },
        {
          "internalType": "uint256",
          "name": "expiresAt",
          "type": "uint256"
        },
        {
          "internalType": "bytes",
          "name": "signature",
          "type": "bytes"
        }
      ],
      "name": "burn",
      "outputs": [],
      "stateMutability": "nonpayable",
      "type": "function"
    },
    {
      "inputs": [
        {
          "internalType": "bytes32",
          "name": "role",
          "type": "bytes32"
        }
      ],
      "name": "getRoleAdmin",
      "outputs": [
        {
          "internalType": "bytes32",
          "name": "",
          "type": "bytes32"
        }
      ],
      "stateMutability": "view",
      "type": "function"
    },
    {
      "inputs": [
        {
          "internalType": "bytes32",
          "name": "role",
          "type": "bytes32"
        },
        {
          "internalType": "uint256",
          "name": "index",
          "type": "uint256"
        }
      ],
      "name": "getRoleMember",
      "outputs": [
        {
          "internalType": "address",
          "name": "",
          "type": "address"
        }
      ],
      "stateMutability": "view",
      "type": "function"
    },
    {
      "inputs": [
        {
          "internalType": "bytes32",
          "name": "role",
          "type": "bytes32"
        }
      ],
      "name": "getRoleMemberCount",
      "outputs": [
        {
          "internalType": "uint256",
          "name": "",
          "type": "uint256"
        }
      ],
      "stateMutability": "view",
      "type": "function"
    },
    {
      "inputs": [
        {
          "internalType": "bytes32",
          "name": "role",
          "type": "bytes32"
        },
        {
          "internalType": "address",
          "name": "account",
          "type": "address"
        }
      ],
      "name": "grantRole",
      "outputs": [],
      "stateMutability": "nonpayable",
      "type": "function"
    },
    {
      "inputs": [
        {
          "internalType": "bytes32",
          "name": "role",
          "type": "bytes32"
        },
        {
          "internalType": "address",
          "name": "account",
          "type": "address"
        }
      ],
      "name": "hasRole",
      "outputs": [
        {
          "internalType": "bool",
          "name": "",
          "type": "bool"
        }
      ],
      "stateMutability": "view",
      "type": "function"
    },
    {
      "inputs": [
        {
          "internalType": "address",
          "name": "owner",
          "type": "address"
        },
        {
          "internalType": "string",
          "name": "uri",
          "type": "string"
        }
      ],
      "name": "initialize",
      "outputs": [],
      "stateMutability": "nonpayable",
      "type": "function"
    },
    {
      "inputs": [],
      "name": "isAdmin",
      "outputs": [
        {
          "internalType": "bool",
          "name": "",
          "type": "bool"
        }
      ],
      "stateMutability": "view",
      "type": "function"
    },
    {
      "inputs": [
        {
          "internalType": "address",
          "name": "account",
          "type": "address"
        },
        {
          "internalType": "address",
          "name": "operator",
          "type": "address"
        }
      ],
      "name": "isApprovedForAll",
      "outputs": [
        {
          "internalType": "bool",
          "name": "",
          "type": "bool"
        }
      ],
      "stateMutability": "view",
      "type": "function"
    },
    {
      "inputs": [
        {
          "internalType": "uint256",
          "name": "id",
          "type": "uint256"
        },
        {
          "internalType": "uint256",
          "name": "expiresAt",
          "type": "uint256"
        },
        {
          "internalType": "bytes",
          "name": "signature",
          "type": "bytes"
        }
      ],
      "name": "mint",
      "outputs": [],
      "stateMutability": "payable",
      "type": "function"
    },
    {
      "inputs": [
        {
          "internalType": "address",
          "name": "recipient",
          "type": "address"
        },
        {
          "internalType": "uint256",
          "name": "id",
          "type": "uint256"
        },
        {
          "internalType": "uint256",
          "name": "expiresAt",
          "type": "uint256"
        },
        {
          "internalType": "bytes",
          "name": "signature",
          "type": "bytes"
        }
      ],
      "name": "mintTo",
      "outputs": [],
      "stateMutability": "payable",
      "type": "function"
    },
    {
      "inputs": [],
      "name": "name",
      "outputs": [
        {
          "internalType": "string",
          "name": "",
          "type": "string"
        }
      ],
      "stateMutability": "pure",
      "type": "function"
    },
    {
      "inputs": [
        {
          "internalType": "address",
          "name": "",
          "type": "address"
        }
      ],
      "name": "nonces",
      "outputs": [
        {
          "internalType": "uint256",
          "name": "",
          "type": "uint256"
        }
      ],
      "stateMutability": "view",
      "type": "function"
    },
    {
      "inputs": [],
      "name": "pause",
      "outputs": [],
      "stateMutability": "nonpayable",
      "type": "function"
    },
    {
      "inputs": [],
      "name": "paused",
      "outputs": [
        {
          "internalType": "bool",
          "name": "",
          "type": "bool"
        }
      ],
      "stateMutability": "view",
      "type": "function"
    },
    {
      "inputs": [
        {
          "internalType": "bytes32",
          "name": "role",
          "type": "bytes32"
        },
        {
          "internalType": "address",
          "name": "account",
          "type": "address"
        }
      ],
      "name": "renounceRole",
      "outputs": [],
      "stateMutability": "nonpayable",
      "type": "function"
    },
    {
      "inputs": [
        {
          "internalType": "bytes32",
          "name": "role",
          "type": "bytes32"
        },
        {
          "internalType": "address",
          "name": "account",
          "type": "address"
        }
      ],
      "name": "revokeRole",
      "outputs": [],
      "stateMutability": "nonpayable",
      "type": "function"
    },
    {
      "inputs": [
        {
          "internalType": "address",
          "name": "from",
          "type": "address"
        },
        {
          "internalType": "address",
          "name": "to",
          "type": "address"
        },
        {
          "internalType": "uint256[]",
          "name": "ids",
          "type": "uint256[]"
        },
        {
          "internalType": "uint256[]",
          "name": "amounts",
          "type": "uint256[]"
        },
        {
          "internalType": "bytes",
          "name": "data",
          "type": "bytes"
        }
      ],
      "name": "safeBatchTransferFrom",
      "outputs": [],
      "stateMutability": "nonpayable",
      "type": "function"
    },
    {
      "inputs": [
        {
          "internalType": "address",
          "name": "from",
          "type": "address"
        },
        {
          "internalType": "address",
          "name": "to",
          "type": "address"
        },
        {
          "internalType": "uint256",
          "name": "id",
          "type": "uint256"
        },
        {
          "internalType": "uint256",
          "name": "amount",
          "type": "uint256"
        },
        {
          "internalType": "bytes",
          "name": "data",
          "type": "bytes"
        }
      ],
      "name": "safeTransferFrom",
      "outputs": [],
      "stateMutability": "nonpayable",
      "type": "function"
    },
    {
      "inputs": [
        {
          "internalType": "address",
          "name": "operator",
          "type": "address"
        },
        {
          "internalType": "bool",
          "name": "approved",
          "type": "bool"
        }
      ],
      "name": "setApprovalForAll",
      "outputs": [],
      "stateMutability": "nonpayable",
      "type": "function"
    },
    {
      "inputs": [
        {
          "internalType": "uint256[]",
          "name": "ids",
          "type": "uint256[]"
        },
        {
          "internalType": "bool[]",
          "name": "values",
          "type": "bool[]"
        }
      ],
      "name": "setSupportedUIDTypes",
      "outputs": [],
      "stateMutability": "nonpayable",
      "type": "function"
    },
    {
      "inputs": [
        {
          "internalType": "string",
          "name": "newuri",
          "type": "string"
        }
      ],
      "name": "setURI",
      "outputs": [],
      "stateMutability": "nonpayable",
      "type": "function"
    },
    {
      "inputs": [
        {
          "internalType": "uint256",
          "name": "",
          "type": "uint256"
        }
      ],
      "name": "supportedUIDTypes",
      "outputs": [
        {
          "internalType": "bool",
          "name": "",
          "type": "bool"
        }
      ],
      "stateMutability": "view",
      "type": "function"
    },
    {
      "inputs": [
        {
          "internalType": "bytes4",
          "name": "interfaceId",
          "type": "bytes4"
        }
      ],
      "name": "supportsInterface",
      "outputs": [
        {
          "internalType": "bool",
          "name": "",
          "type": "bool"
        }
      ],
      "stateMutability": "view",
      "type": "function"
    },
    {
      "inputs": [],
      "name": "symbol",
      "outputs": [
        {
          "internalType": "string",
          "name": "",
          "type": "string"
        }
      ],
      "stateMutability": "pure",
      "type": "function"
    },
    {
      "inputs": [],
      "name": "unpause",
      "outputs": [],
      "stateMutability": "nonpayable",
      "type": "function"
    },
    {
      "inputs": [
        {
          "internalType": "uint256",
          "name": "",
          "type": "uint256"
        }
      ],
      "name": "uri",
      "outputs": [
        {
          "internalType": "string",
          "name": "",
          "type": "string"
        }
      ],
      "stateMutability": "view",
      "type": "function"
    }
  ],
  "transactionHash": "0x3e5e3872b8423101a552c37b0087657308ec32014830261746d81b437c28db8a",
  "args": [],
  "numDeployments": 2,
  "solcInputHash": "c6dc316fd8538f907f60645aa2eefd40",
  "bytecode": "0x608060405234801561001057600080fd5b50613c6a806100206000396000f3fe6080604052600436106102715760003560e01c806380f878021161014f578063a22cb465116100c1578063e58378bb1161007a578063e58378bb14610728578063e63ab1e91461074a578063e985e9c51461076c578063ec2e8a75146107b5578063f242432a146107ca578063f399e22e146107ea57600080fd5b8063a22cb46514610689578063b6db75a0146106a9578063ca15c873146106be578063d547741f146106de578063ddd8f687146106fe578063e57a2a501461071357600080fd5b80639142575d116101135780639142575d146105d557806391d148541461060657806395d89b41146106265780639b56d78814610652578063a1ebf35d14610667578063a217fddf1461065257600080fd5b806380f87802146105335780638456cb5914610548578063879dcceb1461055d5780638a94b05f1461057d5780639010d07c1461059d57600080fd5b80632eb2c2d6116101e85780634e1273f4116101ac5780634e1273f4146104815780635344626a146104ae5780635c975abb146104c3578063701d240a146104db5780637ecebe00146104f0578063801dfa901461051e57600080fd5b80632eb2c2d6146103f75780632f2ff15d1461041757806336568abe146104375780633f4ba83a14610457578063479e743c1461046c57600080fd5b80630e89341c1161023a5780630e89341c1461034f5780631484bddd1461036f578063248a9ca314610384578063280f4e28146103b45780632dc2c007146103c75780632e82d895146103e257600080fd5b8062fdd58e1461027657806301ffc9a7146102a957806302fe5305146102d957806306fdde03146102fb57806308dc9f421461033c575b600080fd5b34801561028257600080fd5b506102966102913660046132e2565b61080a565b6040519081526020015b60405180910390f35b3480156102b557600080fd5b506102c96102c436600461350d565b6108a6565b60405190151581526020016102a0565b3480156102e557600080fd5b506102f96102f4366004613545565b6108b1565b005b34801561030757600080fd5b5060408051808201909152600f81526e556e69717565204964656e7469747960881b60208201525b6040516102a091906137bd565b6102f961034a36600461357f565b6108e1565b34801561035b57600080fd5b5061032f61036a3660046134b2565b610a0b565b34801561037b57600080fd5b50610296600881565b34801561039057600080fd5b5061029661039f3660046134b2565b60009081526065602052604090206001015490565b6102f96103c236600461330b565b610a9f565b3480156103d357600080fd5b506102966602f2e16f29e00081565b3480156103ee57600080fd5b50610296600381565b34801561040357600080fd5b506102f9610412366004613167565b610c4a565b34801561042357600080fd5b506102f96104323660046134ca565b610ce1565b34801561044357600080fd5b506102f96104523660046134ca565b610d08565b34801561046357600080fd5b506102f9610d2a565b34801561047857600080fd5b50610296600581565b34801561048d57600080fd5b506104a161049c366004613370565b610db6565b6040516102a0919061377c565b3480156104ba57600080fd5b50610296600681565b3480156104cf57600080fd5b5060fb5460ff166102c9565b3480156104e757600080fd5b50610296600181565b3480156104fc57600080fd5b5061029661050b36600461311b565b6101916020526000908152604090205481565b34801561052a57600080fd5b50610296600781565b34801561053f57600080fd5b50610296600281565b34801561055457600080fd5b506102f9610f17565b34801561056957600080fd5b506102f9610578366004613430565b610f9f565b34801561058957600080fd5b506102f961059836600461330b565b6110b4565b3480156105a957600080fd5b506105bd6105b83660046134ec565b611249565b6040516001600160a01b0390911681526020016102a0565b3480156105e157600080fd5b506102c96105f03660046134b2565b6101926020526000908152604090205460ff1681565b34801561061257600080fd5b506102c96106213660046134ca565b611268565b34801561063257600080fd5b5060408051808201909152600381526215525160ea1b602082015261032f565b34801561065e57600080fd5b50610296600081565b34801561067357600080fd5b50610296600080516020613c1583398151915281565b34801561069557600080fd5b506102f96106a436600461326e565b611293565b3480156106b557600080fd5b506102c961136a565b3480156106ca57600080fd5b506102966106d93660046134b2565b611389565b3480156106ea57600080fd5b506102f96106f93660046134ca565b6113a0565b34801561070a57600080fd5b50610296600a81565b34801561071f57600080fd5b50610296600981565b34801561073457600080fd5b50610296600080516020613bd583398151915281565b34801561075657600080fd5b50610296600080516020613bf583398151915281565b34801561077857600080fd5b506102c9610787366004613135565b6001600160a01b03918216600090815260ca6020908152604080832093909416825291909152205460ff1690565b3480156107c157600080fd5b50610296600481565b3480156107d657600080fd5b506102f96107e536600461320c565b6113aa565b3480156107f657600080fd5b506102f9610805366004613297565b611431565b60006001600160a01b03831661087b5760405162461bcd60e51b815260206004820152602b60248201527f455243313135353a2062616c616e636520717565727920666f7220746865207a60448201526a65726f206164647265737360a81b60648201526084015b60405180910390fd5b50600081815260c9602090815260408083206001600160a01b03861684529091529020545b92915050565b60006108a082611507565b6108b961136a565b6108d55760405162461bcd60e51b81526004016108729061394c565b6108de81611547565b50565b33848484848242106109055760405162461bcd60e51b81526004016108729061391d565b6001600160a01b03851660009081526101916020908152604080832054905161093992899289928992309291469101613629565b604051602081830303815290604052805190602001209050600061095c8261155e565b90506109b0600080516020613c158339815191526106218387878080601f0160208091040260200160405190810160405280939291908181526020018383808284376000920191909152506115b192505050565b6109cc5760405162461bcd60e51b8152600401610872906138f5565b336000818152610191602052604081208054600192906109ed9084906139ba565b909155506109fd9050338d6115cd565b505050505050505050505050565b606060cb8054610a1a90613a4f565b80601f0160208091040260200160405190810160405280929190818152602001828054610a4690613a4f565b8015610a935780601f10610a6857610100808354040283529160200191610a93565b820191906000526020600020905b815481529060010190602001808311610a7657829003601f168201915b50505050509050919050565b8484848484824210610ac35760405162461bcd60e51b81526004016108729061391d565b336000818152610191602090815260408083205481516001600160601b0319606096871b8116828601528b871b81166034830152604882018b9052606882018a90523090961b9095166088860152609c8501524660bc808601919091528151808603909101815260dc9094019052825192019190912090610b438261155e565b9050610b97600080516020613c158339815191526106218387878080601f0160208091040260200160405190810160405280939291908181526020018383808284376000920191909152506115b192505050565b610bb35760405162461bcd60e51b8152600401610872906138f5565b33600081815261019160205260408120805460019290610bd49084906139ba565b90915550610be49050338d61080a565b15610c315760405162461bcd60e51b815260206004820152601a60248201527f6d736753656e64657220616c7265616479206f776e73205549440000000000006044820152606401610872565b610c3b8d8d6115cd565b50505050505050505050505050565b6001600160a01b038516331480610c665750610c668533610787565b610ccd5760405162461bcd60e51b815260206004820152603260248201527f455243313135353a207472616e736665722063616c6c6572206973206e6f74206044820152711bdddb995c881b9bdc88185c1c1c9bdd995960721b6064820152608401610872565b610cda85858585856116f4565b5050505050565b610ceb82826118fe565b6000828152609760205260409020610d039082611924565b505050565b610d128282611939565b6000828152609760205260409020610d0390826119b3565b610d42600080516020613bf583398151915233611268565b610dac5760405162461bcd60e51b815260206004820152603560248201527f455243313135355072657365745061757365723a206d75737420686176652070604482015274617573657220726f6c6520746f20756e706175736560581b6064820152608401610872565b610db46119c8565b565b60608151835114610e1b5760405162461bcd60e51b815260206004820152602960248201527f455243313135353a206163636f756e747320616e6420696473206c656e677468604482015268040dad2e6dac2e8c6d60bb1b6064820152608401610872565b600083516001600160401b03811115610e4457634e487b7160e01b600052604160045260246000fd5b604051908082528060200260200182016040528015610e6d578160200160208202803683370190505b50905060005b8451811015610f0f57610ed4858281518110610e9f57634e487b7160e01b600052603260045260246000fd5b6020026020010151858381518110610ec757634e487b7160e01b600052603260045260246000fd5b602002602001015161080a565b828281518110610ef457634e487b7160e01b600052603260045260246000fd5b6020908102919091010152610f0881613ab6565b9050610e73565b509392505050565b610f2f600080516020613bf583398151915233611268565b610f975760405162461bcd60e51b815260206004820152603360248201527f455243313135355072657365745061757365723a206d75737420686176652070604482015272617573657220726f6c6520746f20706175736560681b6064820152608401610872565b610db4611a5b565b610fa761136a565b610fc35760405162461bcd60e51b81526004016108729061394c565b8281146110125760405162461bcd60e51b815260206004820181905260248201527f6163636f756e747320616e6420696473206c656e677468206d69736d617463686044820152606401610872565b60005b83811015610cda5782828281811061103d57634e487b7160e01b600052603260045260246000fd5b90506020020160208101906110529190613498565b610192600087878581811061107757634e487b7160e01b600052603260045260246000fd5b90506020020135815260200190815260200160002060006101000a81548160ff021916908315150217905550806110ad90613ab6565b9050611015565b84848484848242106110d85760405162461bcd60e51b81526004016108729061391d565b6001600160a01b03851660009081526101916020908152604080832054905161110c92899289928992309291469101613629565b604051602081830303815290604052805190602001209050600061112f8261155e565b9050611183600080516020613c158339815191526106218387878080601f0160208091040260200160405190810160405280939291908181526020018383808284376000920191909152506115b192505050565b61119f5760405162461bcd60e51b8152600401610872906138f5565b6001600160a01b038c1660009081526101916020526040812080548e92600192916111cb9084906139ba565b909155506111dd90508d8d6001611ad6565b60006111e98e8e61080a565b905080156112395760405162461bcd60e51b815260206004820152601c60248201527f42616c616e6365206166746572206275726e206d7573742062652030000000006044820152606401610872565b5050505050505050505050505050565b60008281526097602052604081206112619083611c41565b9392505050565b60009182526065602090815260408084206001600160a01b0393909316845291905290205460ff1690565b336001600160a01b03831614156112fe5760405162461bcd60e51b815260206004820152602960248201527f455243313135353a2073657474696e6720617070726f76616c20737461747573604482015268103337b91039b2b63360b91b6064820152608401610872565b33600081815260ca602090815260408083206001600160a01b03871680855290835292819020805460ff191686151590811790915590519081529192917f17307eab39ab6107e8899845ad3d59bd9653f200f220920489ca2b5937696c31910160405180910390a35050565b6000611384600080516020613bd583398151915233611268565b905090565b60008181526097602052604081206108a090611c4d565b610d128282611c57565b6001600160a01b0385163314806113c657506113c68533610787565b6114245760405162461bcd60e51b815260206004820152602960248201527f455243313135353a2063616c6c6572206973206e6f74206f776e6572206e6f7260448201526808185c1c1c9bdd995960ba1b6064820152608401610872565b610cda8585858585611c7d565b600054610100900460ff168061144a575060005460ff16155b6114665760405162461bcd60e51b81526004016108729061385d565b600054610100900460ff16158015611488576000805461ffff19166101011790555b6001600160a01b0383166114de5760405162461bcd60e51b815260206004820152601d60248201527f4f776e657220616464726573732063616e6e6f7420626520656d7074790000006044820152606401610872565b6114e88383611d9b565b6114f183611e34565b8015610d03576000805461ff0019169055505050565b60006001600160e01b03198216636cdb3d1360e11b148061153857506001600160e01b031982166303a24d0760e21b145b806108a057506108a082611ea9565b805161155a9060cb906020840190612ef3565b5050565b6040517f19457468657265756d205369676e6564204d6573736167653a0a3332000000006020820152603c8101829052600090605c01604051602081830303815290604052805190602001209050919050565b60008060006115c08585611ece565b91509150610f0f81611f3e565b6602f2e16f29e0003410156116245760405162461bcd60e51b815260206004820152601f60248201527f546f6b656e206d696e7420726571756972657320302e303030383320455448006044820152606401610872565b6000818152610192602052604090205460ff1615156001146116815760405162461bcd60e51b8152602060048201526016602482015275151bdad95b881a59081b9bdd081cdd5c1c1bdc9d195960521b6044820152606401610872565b61168b828261080a565b156116d85760405162461bcd60e51b815260206004820152601d60248201527f42616c616e6365206265666f7265206d696e74206d75737420626520300000006044820152606401610872565b61155a828260016040518060200160405280600081525061213a565b81518351146117565760405162461bcd60e51b815260206004820152602860248201527f455243313135353a2069647320616e6420616d6f756e7473206c656e677468206044820152670dad2e6dac2e8c6d60c31b6064820152608401610872565b6001600160a01b03841661177c5760405162461bcd60e51b815260040161087290613818565b3361178b81878787878761222b565b60005b84518110156118905760008582815181106117b957634e487b7160e01b600052603260045260246000fd5b6020026020010151905060008583815181106117e557634e487b7160e01b600052603260045260246000fd5b602090810291909101810151600084815260c9835260408082206001600160a01b038e1683529093529190912054909150818110156118365760405162461bcd60e51b8152600401610872906138ab565b600083815260c9602090815260408083206001600160a01b038e8116855292528083208585039055908b168252812080548492906118759084906139ba565b925050819055505050508061188990613ab6565b905061178e565b50846001600160a01b0316866001600160a01b0316826001600160a01b03167f4a39dc06d4c0dbc64b70af90fd698a233a518aa5d07e595d983b8c0526c8f7fb87876040516118e092919061378f565b60405180910390a46118f68187878787876122d9565b505050505050565b60008281526065602052604090206001015461191a8133612444565b610d0383836124a8565b6000611261836001600160a01b03841661252e565b6001600160a01b03811633146119a95760405162461bcd60e51b815260206004820152602f60248201527f416363657373436f6e74726f6c3a2063616e206f6e6c792072656e6f756e636560448201526e103937b632b9903337b91039b2b63360891b6064820152608401610872565b61155a828261257d565b6000611261836001600160a01b0384166125e4565b60fb5460ff16611a115760405162461bcd60e51b815260206004820152601460248201527314185d5cd8589b194e881b9bdd081c185d5cd95960621b6044820152606401610872565b60fb805460ff191690557f5db9ee0a495bf2e6ff9c91a7834c1ba4fdd244a5e8aa4e537bd38aeae4b073aa335b6040516001600160a01b03909116815260200160405180910390a1565b60fb5460ff1615611aa15760405162461bcd60e51b815260206004820152601060248201526f14185d5cd8589b194e881c185d5cd95960821b6044820152606401610872565b60fb805460ff191660011790557f62e78cea01bee320cd4e420270b5ea74000d11b0c9f74754ebdbfc544b05a258611a3e3390565b6001600160a01b038316611b385760405162461bcd60e51b815260206004820152602360248201527f455243313135353a206275726e2066726f6d20746865207a65726f206164647260448201526265737360e81b6064820152608401610872565b33611b6781856000611b4987612701565b611b5287612701565b6040518060200160405280600081525061222b565b600083815260c9602090815260408083206001600160a01b038816845290915290205482811015611be65760405162461bcd60e51b8152602060048201526024808201527f455243313135353a206275726e20616d6f756e7420657863656564732062616c604482015263616e636560e01b6064820152608401610872565b600084815260c9602090815260408083206001600160a01b0389811680865291845282852088870390558251898152938401889052909290861691600080516020613bb5833981519152910160405180910390a45050505050565b6000611261838361275a565b60006108a0825490565b600082815260656020526040902060010154611c738133612444565b610d03838361257d565b6001600160a01b038416611ca35760405162461bcd60e51b815260040161087290613818565b33611cc2818787611cb388612701565b611cbc88612701565b8761222b565b600084815260c9602090815260408083206001600160a01b038a16845290915290205483811015611d055760405162461bcd60e51b8152600401610872906138ab565b600085815260c9602090815260408083206001600160a01b038b8116855292528083208785039055908816825281208054869290611d449084906139ba565b909155505060408051868152602081018690526001600160a01b03808916928a82169291861691600080516020613bb5833981519152910160405180910390a4611d92828888888888612792565b50505050505050565b600054610100900460ff1680611db4575060005460ff16155b611dd05760405162461bcd60e51b81526004016108729061385d565b600054610100900460ff16158015611df2576000805461ffff19166101011790555b611dfa61285c565b611e0261285c565b611e0a61285c565b611e1261285c565b611e1b826128c7565b611e23612927565b611e2b61285c565b6114f18361299c565b600054610100900460ff1680611e4d575060005460ff16155b611e695760405162461bcd60e51b81526004016108729061385d565b600054610100900460ff16158015611e8b576000805461ffff19166101011790555b611e9482612a61565b801561155a576000805461ff00191690555050565b60006001600160e01b03198216635a05180f60e01b14806108a057506108a082612af6565b600080825160411415611f055760208301516040840151606085015160001a611ef987828585612b2b565b94509450505050611f37565b825160401415611f2f5760208301516040840151611f24868383612c0e565b935093505050611f37565b506000905060025b9250929050565b6000816004811115611f6057634e487b7160e01b600052602160045260246000fd5b1415611f695750565b6001816004811115611f8b57634e487b7160e01b600052602160045260246000fd5b1415611fd45760405162461bcd60e51b815260206004820152601860248201527745434453413a20696e76616c6964207369676e617475726560401b6044820152606401610872565b6002816004811115611ff657634e487b7160e01b600052602160045260246000fd5b14156120445760405162461bcd60e51b815260206004820152601f60248201527f45434453413a20696e76616c6964207369676e6174757265206c656e677468006044820152606401610872565b600381600481111561206657634e487b7160e01b600052602160045260246000fd5b14156120bf5760405162461bcd60e51b815260206004820152602260248201527f45434453413a20696e76616c6964207369676e6174757265202773272076616c604482015261756560f01b6064820152608401610872565b60048160048111156120e157634e487b7160e01b600052602160045260246000fd5b14156108de5760405162461bcd60e51b815260206004820152602260248201527f45434453413a20696e76616c6964207369676e6174757265202776272076616c604482015261756560f01b6064820152608401610872565b6001600160a01b03841661219a5760405162461bcd60e51b815260206004820152602160248201527f455243313135353a206d696e7420746f20746865207a65726f206164647265736044820152607360f81b6064820152608401610872565b336121ab81600087611cb388612701565b600084815260c9602090815260408083206001600160a01b0389168452909152812080548592906121dd9084906139ba565b909155505060408051858152602081018590526001600160a01b038088169260009291851691600080516020613bb5833981519152910160405180910390a4610cda81600087878787612792565b6001600160a01b03851615801561224a57506001600160a01b03841615155b8061226f57506001600160a01b0385161580159061226f57506001600160a01b038416155b6122cb5760405162461bcd60e51b815260206004820152602760248201527f4f6e6c79206d696e74206f72206275726e207472616e73666572732061726520604482015266185b1b1bddd95960ca1b6064820152608401610872565b6118f6868686868686612c3d565b6001600160a01b0384163b156118f65760405163bc197c8160e01b81526001600160a01b0385169063bc197c819061231d90899089908890889088906004016136d9565b602060405180830381600087803b15801561233757600080fd5b505af1925050508015612367575060408051601f3d908101601f1916820190925261236491810190613529565b60015b61241457612373613afd565b806308c379a014156123ad5750612388613b15565b8061239357506123af565b8060405162461bcd60e51b815260040161087291906137bd565b505b60405162461bcd60e51b815260206004820152603460248201527f455243313135353a207472616e7366657220746f206e6f6e20455243313135356044820152732932b1b2b4bb32b91034b6b83632b6b2b73a32b960611b6064820152608401610872565b6001600160e01b0319811663bc197c8160e01b14611d925760405162461bcd60e51b8152600401610872906137d0565b61244e8282611268565b61155a57612466816001600160a01b03166014612c4b565b612471836020612c4b565b60405160200161248292919061366a565b60408051601f198184030181529082905262461bcd60e51b8252610872916004016137bd565b6124b28282611268565b61155a5760008281526065602090815260408083206001600160a01b03851684529091529020805460ff191660011790556124ea3390565b6001600160a01b0316816001600160a01b0316837f2f8788117e7eff1d82e926ec794901d17c78024a50270940304540a733656f0d60405160405180910390a45050565b6000818152600183016020526040812054612575575081546001818101845560008481526020808220909301849055845484825282860190935260409020919091556108a0565b5060006108a0565b6125878282611268565b1561155a5760008281526065602090815260408083206001600160a01b0385168085529252808320805460ff1916905551339285917ff6391f5c32d9c69d2a47ea670b442974b53935d1edc7fd64eb21e047a839171b9190a45050565b600081815260018301602052604081205480156126f75760006126086001836139f1565b855490915060009061261c906001906139f1565b905081811461269d57600086600001828154811061264a57634e487b7160e01b600052603260045260246000fd5b906000526020600020015490508087600001848154811061267b57634e487b7160e01b600052603260045260246000fd5b6000918252602080832090910192909255918252600188019052604090208390555b85548690806126bc57634e487b7160e01b600052603160045260246000fd5b6001900381819060005260206000200160009055905585600101600086815260200190815260200160002060009055600193505050506108a0565b60009150506108a0565b6040805160018082528183019092526060916000919060208083019080368337019050509050828160008151811061274957634e487b7160e01b600052603260045260246000fd5b602090810291909101015292915050565b600082600001828154811061277f57634e487b7160e01b600052603260045260246000fd5b9060005260206000200154905092915050565b6001600160a01b0384163b156118f65760405163f23a6e6160e01b81526001600160a01b0385169063f23a6e61906127d69089908990889088908890600401613737565b602060405180830381600087803b1580156127f057600080fd5b505af1925050508015612820575060408051601f3d908101601f1916820190925261281d91810190613529565b60015b61282c57612373613afd565b6001600160e01b0319811663f23a6e6160e01b14611d925760405162461bcd60e51b8152600401610872906137d0565b600054610100900460ff1680612875575060005460ff16155b6128915760405162461bcd60e51b81526004016108729061385d565b600054610100900460ff161580156128b3576000805461ffff19166101011790555b80156108de576000805461ff001916905550565b600054610100900460ff16806128e0575060005460ff16155b6128fc5760405162461bcd60e51b81526004016108729061385d565b600054610100900460ff1615801561291e576000805461ffff19166101011790555b611e9482611547565b600054610100900460ff1680612940575060005460ff16155b61295c5760405162461bcd60e51b81526004016108729061385d565b600054610100900460ff1615801561297e576000805461ffff19166101011790555b60fb805460ff1916905580156108de576000805461ff001916905550565b600054610100900460ff16806129b5575060005460ff16155b6129d15760405162461bcd60e51b81526004016108729061385d565b600054610100900460ff161580156129f3576000805461ffff19166101011790555b612a0b600080516020613bd583398151915283612e2c565b612a23600080516020613bf583398151915283612e2c565b612a49600080516020613bf5833981519152600080516020613bd5833981519152612e36565b611e94600080516020613bd583398151915280612e36565b600054610100900460ff1680612a7a575060005460ff16155b612a965760405162461bcd60e51b81526004016108729061385d565b600054610100900460ff16158015612ab8576000805461ffff19166101011790555b612ad0600080516020613c1583398151915283612e2c565b611e94600080516020613c15833981519152600080516020613bd5833981519152612e36565b60006001600160e01b03198216637965db0b60e01b14806108a057506301ffc9a760e01b6001600160e01b03198316146108a0565b6000806fa2a8918ca85bafe22016d0b997e4df60600160ff1b03831115612b585750600090506003612c05565b8460ff16601b14158015612b7057508460ff16601c14155b15612b815750600090506004612c05565b6040805160008082526020820180845289905260ff881692820192909252606081018690526080810185905260019060a0016020604051602081039080840390855afa158015612bd5573d6000803e3d6000fd5b5050604051601f1901519150506001600160a01b038116612bfe57600060019250925050612c05565b9150600090505b94509492505050565b6000806001600160ff1b03831660ff84901c601b01612c2f87828885612b2b565b935093505050935093915050565b6118f6868686868686612e81565b60606000612c5a8360026139d2565b612c659060026139ba565b6001600160401b03811115612c8a57634e487b7160e01b600052604160045260246000fd5b6040519080825280601f01601f191660200182016040528015612cb4576020820181803683370190505b509050600360fc1b81600081518110612cdd57634e487b7160e01b600052603260045260246000fd5b60200101906001600160f81b031916908160001a905350600f60fb1b81600181518110612d1a57634e487b7160e01b600052603260045260246000fd5b60200101906001600160f81b031916908160001a9053506000612d3e8460026139d2565b612d499060016139ba565b90505b6001811115612ddd576f181899199a1a9b1b9c1cb0b131b232b360811b85600f1660108110612d8b57634e487b7160e01b600052603260045260246000fd5b1a60f81b828281518110612daf57634e487b7160e01b600052603260045260246000fd5b60200101906001600160f81b031916908160001a90535060049490941c93612dd681613a38565b9050612d4c565b5083156112615760405162461bcd60e51b815260206004820181905260248201527f537472696e67733a20686578206c656e67746820696e73756666696369656e746044820152606401610872565b610ceb8282612ee9565b600082815260656020526040808220600101805490849055905190918391839186917fbd79b86ffe0ab8e8776151514217cd7cacd52c909f66475c3af44e129f0b00ff9190a4505050565b60fb5460ff16156118f65760405162461bcd60e51b815260206004820152602c60248201527f455243313135355061757361626c653a20746f6b656e207472616e736665722060448201526b1dda1a5b19481c185d5cd95960a21b6064820152608401610872565b61155a82826124a8565b828054612eff90613a4f565b90600052602060002090601f016020900481019282612f215760008555612f67565b82601f10612f3a57805160ff1916838001178555612f67565b82800160010185558215612f67579182015b82811115612f67578251825591602001919060010190612f4c565b50612f73929150612f77565b5090565b5b80821115612f735760008155600101612f78565b80356001600160a01b0381168114612fa357600080fd5b919050565b60008083601f840112612fb9578182fd5b5081356001600160401b03811115612fcf578182fd5b6020830191508360208260051b8501011115611f3757600080fd5b600082601f830112612ffa578081fd5b8135602061300782613997565b6040516130148282613a8a565b8381528281019150858301600585901b87018401881015613033578586fd5b855b8581101561305157813584529284019290840190600101613035565b5090979650505050505050565b80358015158114612fa357600080fd5b60008083601f84011261307f578182fd5b5081356001600160401b03811115613095578182fd5b602083019150836020828501011115611f3757600080fd5b600082601f8301126130bd578081fd5b81356001600160401b038111156130d6576130d6613ae7565b6040516130ed601f8301601f191660200182613a8a565b818152846020838601011115613101578283fd5b816020850160208301379081016020019190915292915050565b60006020828403121561312c578081fd5b61126182612f8c565b60008060408385031215613147578081fd5b61315083612f8c565b915061315e60208401612f8c565b90509250929050565b600080600080600060a0868803121561317e578081fd5b61318786612f8c565b945061319560208701612f8c565b935060408601356001600160401b03808211156131b0578283fd5b6131bc89838a01612fea565b945060608801359150808211156131d1578283fd5b6131dd89838a01612fea565b935060808801359150808211156131f2578283fd5b506131ff888289016130ad565b9150509295509295909350565b600080600080600060a08688031215613223578081fd5b61322c86612f8c565b945061323a60208701612f8c565b9350604086013592506060860135915060808601356001600160401b03811115613262578182fd5b6131ff888289016130ad565b60008060408385031215613280578182fd5b61328983612f8c565b915061315e6020840161305e565b600080604083850312156132a9578182fd5b6132b283612f8c565b915060208301356001600160401b038111156132cc578182fd5b6132d8858286016130ad565b9150509250929050565b600080604083850312156132f4578182fd5b6132fd83612f8c565b946020939093013593505050565b600080600080600060808688031215613322578283fd5b61332b86612f8c565b9450602086013593506040860135925060608601356001600160401b03811115613353578182fd5b61335f8882890161306e565b969995985093965092949392505050565b60008060408385031215613382578182fd5b82356001600160401b0380821115613398578384fd5b818501915085601f8301126133ab578384fd5b813560206133b882613997565b6040516133c58282613a8a565b8381528281019150858301600585901b870184018b10156133e4578889fd5b8896505b8487101561340d576133f981612f8c565b8352600196909601959183019183016133e8565b5096505086013592505080821115613423578283fd5b506132d885828601612fea565b60008060008060408587031215613445578182fd5b84356001600160401b038082111561345b578384fd5b61346788838901612fa8565b9096509450602087013591508082111561347f578384fd5b5061348c87828801612fa8565b95989497509550505050565b6000602082840312156134a9578081fd5b6112618261305e565b6000602082840312156134c3578081fd5b5035919050565b600080604083850312156134dc578182fd5b8235915061315e60208401612f8c565b600080604083850312156134fe578182fd5b50508035926020909101359150565b60006020828403121561351e578081fd5b813561126181613b9e565b60006020828403121561353a578081fd5b815161126181613b9e565b600060208284031215613556578081fd5b81356001600160401b0381111561356b578182fd5b613577848285016130ad565b949350505050565b60008060008060608587031215613594578182fd5b843593506020850135925060408501356001600160401b038111156135b7578283fd5b61348c8782880161306e565b6000815180845260208085019450808401835b838110156135f2578151875295820195908201906001016135d6565b509495945050505050565b60008151808452613615816020860160208601613a08565b601f01601f19169290920160200192915050565b6001600160601b0319606097881b81168252601482019690965260348101949094529190941b90921660548201526068810192909252608882015260a80190565b76020b1b1b2b9b9a1b7b73a3937b61d1030b1b1b7bab73a1604d1b81526000835161369c816017850160208801613a08565b7001034b99036b4b9b9b4b733903937b6329607d1b60179184019182015283516136cd816028840160208801613a08565b01602801949350505050565b6001600160a01b0386811682528516602082015260a060408201819052600090613705908301866135c3565b828103606084015261371781866135c3565b9050828103608084015261372b81856135fd565b98975050505050505050565b6001600160a01b03868116825285166020820152604081018490526060810183905260a060808201819052600090613771908301846135fd565b979650505050505050565b60208152600061126160208301846135c3565b6040815260006137a260408301856135c3565b82810360208401526137b481856135c3565b95945050505050565b60208152600061126160208301846135fd565b60208082526028908201527f455243313135353a204552433131353552656365697665722072656a656374656040820152676420746f6b656e7360c01b606082015260800190565b60208082526025908201527f455243313135353a207472616e7366657220746f20746865207a65726f206164604082015264647265737360d81b606082015260800190565b6020808252602e908201527f496e697469616c697a61626c653a20636f6e747261637420697320616c72656160408201526d191e481a5b9a5d1a585b1a5e995960921b606082015260800190565b6020808252602a908201527f455243313135353a20696e73756666696369656e742062616c616e636520666f60408201526939103a3930b739b332b960b11b606082015260800190565b6020808252600e908201526d24b73b30b634b21039b4b3b732b960911b604082015260600190565b60208082526015908201527414da59db985d1d5c99481a185cc8195e1c1a5c9959605a1b604082015260600190565b6020808252602b908201527f4d75737420686176652061646d696e20726f6c6520746f20706572666f726d2060408201526a3a3434b99030b1ba34b7b760a91b606082015260800190565b60006001600160401b038211156139b0576139b0613ae7565b5060051b60200190565b600082198211156139cd576139cd613ad1565b500190565b60008160001904831182151516156139ec576139ec613ad1565b500290565b600082821015613a0357613a03613ad1565b500390565b60005b83811015613a23578181015183820152602001613a0b565b83811115613a32576000848401525b50505050565b600081613a4757613a47613ad1565b506000190190565b600181811c90821680613a6357607f821691505b60208210811415613a8457634e487b7160e01b600052602260045260246000fd5b50919050565b601f8201601f191681016001600160401b0381118282101715613aaf57613aaf613ae7565b6040525050565b6000600019821415613aca57613aca613ad1565b5060010190565b634e487b7160e01b600052601160045260246000fd5b634e487b7160e01b600052604160045260246000fd5b600060033d1115613b1257600481823e5160e01c5b90565b600060443d1015613b235790565b6040516003193d81016004833e81513d6001600160401b038160248401118184111715613b5257505050505090565b8285019150815181811115613b6a5750505050505090565b843d8701016020828501011115613b845750505050505090565b613b9360208286010187613a8a565b509095945050505050565b6001600160e01b0319811681146108de57600080fdfec3d58168c5ae7397731d063d5bbf3d657854427343f4c083240f7aacaa2d0f62b19546dff01e856fb3f010c267a7b1c60363cf8a4664e21cc89c26224620214e65d7a28e3265b37a6474929f336521b332c1681b933f6cb9f3376673440d862ae2f4eaae4a9751e85a3e4a7b9587827a877f29914755229b07a7b2da98285f70a26469706673582212208b31dd76814404d87e865a225597b8a850ca13ad2e35853d362f5647c85afcfa64736f6c63430008040033",
  "devdoc": {
    "author": "Goldfinch",
    "kind": "dev",
    "methods": {
      "balanceOf(address,uint256)": {
        "details": "See {IERC1155-balanceOf}. Requirements: - `account` cannot be the zero address."
      },
      "balanceOfBatch(address[],uint256[])": {
        "details": "See {IERC1155-balanceOfBatch}. Requirements: - `accounts` and `ids` must have the same length."
      },
      "burn(address,uint256,uint256,bytes)": {
        "params": {
          "account": "The account which currently owns the UID",
          "expiresAt": "The expiration time of the signature",
          "id": "The id representing the KYC type of the UniqueIdentity",
          "signature": "An EIP-191 signature of the corresponding burn params:                  (account, id, expiresAt, address(this), nonces[account], block.chainid)                  from an address with the SIGNER_ROLE."
        }
      },
      "getRoleAdmin(bytes32)": {
        "details": "Returns the admin role that controls `role`. See {grantRole} and {revokeRole}. To change a role's admin, use {_setRoleAdmin}."
      },
      "getRoleMember(bytes32,uint256)": {
        "details": "Returns one of the accounts that have `role`. `index` must be a value between 0 and {getRoleMemberCount}, non-inclusive. Role bearers are not sorted in any particular way, and their ordering may change at any point. WARNING: When using {getRoleMember} and {getRoleMemberCount}, make sure you perform all queries on the same block. See the following https://forum.openzeppelin.com/t/iterating-over-elements-on-enumerableset-in-openzeppelin-contracts/2296[forum post] for more information."
      },
      "getRoleMemberCount(bytes32)": {
        "details": "Returns the number of accounts that have `role`. Can be used together with {getRoleMember} to enumerate all bearers of a role."
      },
      "grantRole(bytes32,address)": {
        "details": "Overload {grantRole} to track enumerable memberships"
      },
      "hasRole(bytes32,address)": {
        "details": "Returns `true` if `account` has been granted `role`."
      },
      "isApprovedForAll(address,address)": {
        "details": "See {IERC1155-isApprovedForAll}."
      },
      "mint(uint256,uint256,bytes)": {
        "params": {
          "expiresAt": "The expiration time of the signature",
          "id": "The id representing the KYC type of the UniqueIdentity",
          "signature": "An EIP-191 signature of the corresponding mint params:                  account, id, expiresAt, address(this), nonces[account], block.chainid                  from an address with the SIGNER_ROLE."
        }
      },
      "mintTo(address,uint256,uint256,bytes)": {
        "params": {
          "expiresAt": "The expiration time of the signature",
          "id": "The id representing the KYC type of the UniqueIdentity",
          "recipient": "The recipient address to be minted to.",
          "signature": "An EIP-191 signature of the corresponding mintTo params:                  (account, recipient, id, expiresAt, address(this), nonces[account], block.chainid)                  from an address with the SIGNER_ROLE."
        }
      },
      "name()": {
        "details": "Gets the token name.",
        "returns": {
          "_0": "string representing the token name"
        }
      },
      "pause()": {
        "details": "Pauses all token transfers. See {ERC1155Pausable} and {Pausable-_pause}. Requirements: - the caller must have the `PAUSER_ROLE`."
      },
      "paused()": {
        "details": "Returns true if the contract is paused, and false otherwise."
      },
      "renounceRole(bytes32,address)": {
        "details": "Overload {renounceRole} to track enumerable memberships"
      },
      "revokeRole(bytes32,address)": {
        "details": "Overload {revokeRole} to track enumerable memberships"
      },
      "safeBatchTransferFrom(address,address,uint256[],uint256[],bytes)": {
        "details": "See {IERC1155-safeBatchTransferFrom}."
      },
      "safeTransferFrom(address,address,uint256,uint256,bytes)": {
        "details": "See {IERC1155-safeTransferFrom}."
      },
      "setApprovalForAll(address,bool)": {
        "details": "See {IERC1155-setApprovalForAll}."
      },
      "supportsInterface(bytes4)": {
        "details": "See {IERC165-supportsInterface}."
      },
      "symbol()": {
        "details": "Gets the token symbol.",
        "returns": {
          "_0": "string representing the token symbol"
        }
      },
      "unpause()": {
        "details": "Unpauses all token transfers. See {ERC1155Pausable} and {Pausable-_unpause}. Requirements: - the caller must have the `PAUSER_ROLE`."
      },
      "uri(uint256)": {
        "details": "See {IERC1155MetadataURI-uri}. This implementation returns the same URI for *all* token types. It relies on the token type ID substitution mechanism https://eips.ethereum.org/EIPS/eip-1155#metadata[defined in the EIP]. Clients calling this function must replace the `\\{id\\}` substring with the actual token type ID."
      }
    },
    "stateVariables": {
      "nonces": {
        "details": "We include a nonce in every hashed message, and increment the nonce as part of a state-changing operation, so as to prevent replay attacks, i.e. the reuse of a signature."
      }
    },
    "title": "UniqueIdentity",
    "version": 1
  },
  "userdoc": {
    "kind": "user",
    "methods": {
      "burn(address,uint256,uint256,bytes)": {
        "notice": "Burn a UniqueIdentity token of `id` from the `account`"
      },
      "mint(uint256,uint256,bytes)": {
        "notice": "Mint a new UniqueIdentity token to the msgSender"
      },
      "mintTo(address,uint256,uint256,bytes)": {
        "notice": "Mint a new UniqueIdentity token to the `recipient`"
      }
    },
    "notice": "UniqueIdentity is an ERC1155-compliant contract for representing the identity verification status of addresses.",
    "version": 1
  },
  "storageLayout": {
    "storage": [
      {
        "astId": 648,
        "contract": "contracts/protocol/core/UniqueIdentity.sol:UniqueIdentity",
        "label": "_initialized",
        "offset": 0,
        "slot": "0",
        "type": "t_bool"
      },
      {
        "astId": 651,
        "contract": "contracts/protocol/core/UniqueIdentity.sol:UniqueIdentity",
        "label": "_initializing",
        "offset": 1,
        "slot": "0",
        "type": "t_bool"
      },
      {
        "astId": 2454,
        "contract": "contracts/protocol/core/UniqueIdentity.sol:UniqueIdentity",
        "label": "__gap",
        "offset": 0,
        "slot": "1",
        "type": "t_array(t_uint256)50_storage"
      },
      {
        "astId": 3070,
        "contract": "contracts/protocol/core/UniqueIdentity.sol:UniqueIdentity",
        "label": "__gap",
        "offset": 0,
        "slot": "51",
        "type": "t_array(t_uint256)50_storage"
      },
      {
        "astId": 258,
        "contract": "contracts/protocol/core/UniqueIdentity.sol:UniqueIdentity",
        "label": "_roles",
        "offset": 0,
        "slot": "101",
        "type": "t_mapping(t_bytes32,t_struct(RoleData)253_storage)"
      },
      {
        "astId": 543,
        "contract": "contracts/protocol/core/UniqueIdentity.sol:UniqueIdentity",
        "label": "__gap",
        "offset": 0,
        "slot": "102",
        "type": "t_array(t_uint256)49_storage"
      },
      {
        "astId": 45,
        "contract": "contracts/protocol/core/UniqueIdentity.sol:UniqueIdentity",
        "label": "_roleMembers",
        "offset": 0,
        "slot": "151",
        "type": "t_mapping(t_bytes32,t_struct(AddressSet)3395_storage)"
      },
      {
        "astId": 208,
        "contract": "contracts/protocol/core/UniqueIdentity.sol:UniqueIdentity",
        "label": "__gap",
        "offset": 0,
        "slot": "152",
        "type": "t_array(t_uint256)49_storage"
      },
      {
        "astId": 830,
        "contract": "contracts/protocol/core/UniqueIdentity.sol:UniqueIdentity",
        "label": "_balances",
        "offset": 0,
        "slot": "201",
        "type": "t_mapping(t_uint256,t_mapping(t_address,t_uint256))"
      },
      {
        "astId": 836,
        "contract": "contracts/protocol/core/UniqueIdentity.sol:UniqueIdentity",
        "label": "_operatorApprovals",
        "offset": 0,
        "slot": "202",
        "type": "t_mapping(t_address,t_mapping(t_address,t_bool))"
      },
      {
        "astId": 838,
        "contract": "contracts/protocol/core/UniqueIdentity.sol:UniqueIdentity",
        "label": "_uri",
        "offset": 0,
        "slot": "203",
        "type": "t_string_storage"
      },
      {
        "astId": 1908,
        "contract": "contracts/protocol/core/UniqueIdentity.sol:UniqueIdentity",
        "label": "__gap",
        "offset": 0,
        "slot": "204",
        "type": "t_array(t_uint256)47_storage"
      },
      {
        "astId": 709,
        "contract": "contracts/protocol/core/UniqueIdentity.sol:UniqueIdentity",
        "label": "_paused",
        "offset": 0,
        "slot": "251",
        "type": "t_bool"
      },
      {
        "astId": 800,
        "contract": "contracts/protocol/core/UniqueIdentity.sol:UniqueIdentity",
        "label": "__gap",
        "offset": 0,
        "slot": "252",
        "type": "t_array(t_uint256)49_storage"
      },
      {
        "astId": 2150,
        "contract": "contracts/protocol/core/UniqueIdentity.sol:UniqueIdentity",
        "label": "__gap",
        "offset": 0,
        "slot": "301",
        "type": "t_array(t_uint256)50_storage"
      },
      {
        "astId": 3871,
        "contract": "contracts/protocol/core/UniqueIdentity.sol:UniqueIdentity",
        "label": "__gap",
        "offset": 0,
        "slot": "351",
        "type": "t_array(t_uint256)50_storage"
      },
      {
        "astId": 3990,
        "contract": "contracts/protocol/core/UniqueIdentity.sol:UniqueIdentity",
        "label": "nonces",
        "offset": 0,
        "slot": "401",
        "type": "t_mapping(t_address,t_uint256)"
      },
      {
        "astId": 3994,
        "contract": "contracts/protocol/core/UniqueIdentity.sol:UniqueIdentity",
        "label": "supportedUIDTypes",
        "offset": 0,
        "slot": "402",
        "type": "t_mapping(t_uint256,t_bool)"
      }
    ],
    "types": {
      "t_address": {
        "encoding": "inplace",
        "label": "address",
        "numberOfBytes": "20"
      },
      "t_array(t_bytes32)dyn_storage": {
        "base": "t_bytes32",
        "encoding": "dynamic_array",
        "label": "bytes32[]",
        "numberOfBytes": "32"
      },
      "t_array(t_uint256)47_storage": {
        "base": "t_uint256",
        "encoding": "inplace",
        "label": "uint256[47]",
        "numberOfBytes": "1504"
      },
      "t_array(t_uint256)49_storage": {
        "base": "t_uint256",
        "encoding": "inplace",
        "label": "uint256[49]",
        "numberOfBytes": "1568"
      },
      "t_array(t_uint256)50_storage": {
        "base": "t_uint256",
        "encoding": "inplace",
        "label": "uint256[50]",
        "numberOfBytes": "1600"
      },
      "t_bool": {
        "encoding": "inplace",
        "label": "bool",
        "numberOfBytes": "1"
      },
      "t_bytes32": {
        "encoding": "inplace",
        "label": "bytes32",
        "numberOfBytes": "32"
      },
      "t_mapping(t_address,t_bool)": {
        "encoding": "mapping",
        "key": "t_address",
        "label": "mapping(address => bool)",
        "numberOfBytes": "32",
        "value": "t_bool"
      },
      "t_mapping(t_address,t_mapping(t_address,t_bool))": {
        "encoding": "mapping",
        "key": "t_address",
        "label": "mapping(address => mapping(address => bool))",
        "numberOfBytes": "32",
        "value": "t_mapping(t_address,t_bool)"
      },
      "t_mapping(t_address,t_uint256)": {
        "encoding": "mapping",
        "key": "t_address",
        "label": "mapping(address => uint256)",
        "numberOfBytes": "32",
        "value": "t_uint256"
      },
      "t_mapping(t_bytes32,t_struct(AddressSet)3395_storage)": {
        "encoding": "mapping",
        "key": "t_bytes32",
        "label": "mapping(bytes32 => struct EnumerableSetUpgradeable.AddressSet)",
        "numberOfBytes": "32",
        "value": "t_struct(AddressSet)3395_storage"
      },
      "t_mapping(t_bytes32,t_struct(RoleData)253_storage)": {
        "encoding": "mapping",
        "key": "t_bytes32",
        "label": "mapping(bytes32 => struct AccessControlUpgradeable.RoleData)",
        "numberOfBytes": "32",
        "value": "t_struct(RoleData)253_storage"
      },
      "t_mapping(t_bytes32,t_uint256)": {
        "encoding": "mapping",
        "key": "t_bytes32",
        "label": "mapping(bytes32 => uint256)",
        "numberOfBytes": "32",
        "value": "t_uint256"
      },
      "t_mapping(t_uint256,t_bool)": {
        "encoding": "mapping",
        "key": "t_uint256",
        "label": "mapping(uint256 => bool)",
        "numberOfBytes": "32",
        "value": "t_bool"
      },
      "t_mapping(t_uint256,t_mapping(t_address,t_uint256))": {
        "encoding": "mapping",
        "key": "t_uint256",
        "label": "mapping(uint256 => mapping(address => uint256))",
        "numberOfBytes": "32",
        "value": "t_mapping(t_address,t_uint256)"
      },
      "t_string_storage": {
        "encoding": "bytes",
        "label": "string",
        "numberOfBytes": "32"
      },
      "t_struct(AddressSet)3395_storage": {
        "encoding": "inplace",
        "label": "struct EnumerableSetUpgradeable.AddressSet",
        "members": [
          {
            "astId": 3394,
            "contract": "contracts/protocol/core/UniqueIdentity.sol:UniqueIdentity",
            "label": "_inner",
            "offset": 0,
            "slot": "0",
            "type": "t_struct(Set)3094_storage"
          }
        ],
        "numberOfBytes": "64"
      },
      "t_struct(RoleData)253_storage": {
        "encoding": "inplace",
        "label": "struct AccessControlUpgradeable.RoleData",
        "members": [
          {
            "astId": 250,
            "contract": "contracts/protocol/core/UniqueIdentity.sol:UniqueIdentity",
            "label": "members",
            "offset": 0,
            "slot": "0",
            "type": "t_mapping(t_address,t_bool)"
          },
          {
            "astId": 252,
            "contract": "contracts/protocol/core/UniqueIdentity.sol:UniqueIdentity",
            "label": "adminRole",
            "offset": 0,
            "slot": "1",
            "type": "t_bytes32"
          }
        ],
        "numberOfBytes": "64"
      },
      "t_struct(Set)3094_storage": {
        "encoding": "inplace",
        "label": "struct EnumerableSetUpgradeable.Set",
        "members": [
          {
            "astId": 3089,
            "contract": "contracts/protocol/core/UniqueIdentity.sol:UniqueIdentity",
            "label": "_values",
            "offset": 0,
            "slot": "0",
            "type": "t_array(t_bytes32)dyn_storage"
          },
          {
            "astId": 3093,
            "contract": "contracts/protocol/core/UniqueIdentity.sol:UniqueIdentity",
            "label": "_indexes",
            "offset": 0,
            "slot": "1",
            "type": "t_mapping(t_bytes32,t_uint256)"
          }
        ],
        "numberOfBytes": "64"
      },
      "t_uint256": {
        "encoding": "inplace",
        "label": "uint256",
        "numberOfBytes": "32"
      }
    }
  }
}