{
  "address": "0x9dA94dB465C185E7De453C5dB6BdCc314395717C",
  "abi": [
    {
      "anonymous": false,
      "inputs": [
        {
          "indexed": true,
          "internalType": "address",
          "name": "account",
          "type": "address"
        },
        {
          "indexed": true,
          "internalType": "address",
          "name": "operator",
          "type": "address"
        },
        {
          "indexed": false,
          "internalType": "bool",
          "name": "approved",
          "type": "bool"
        }
      ],
      "name": "ApprovalForAll",
      "type": "event"
    },
    {
      "anonymous": false,
      "inputs": [
        {
          "indexed": false,
          "internalType": "address",
          "name": "account",
          "type": "address"
        }
      ],
      "name": "Paused",
      "type": "event"
    },
    {
      "anonymous": false,
      "inputs": [
        {
          "indexed": true,
          "internalType": "bytes32",
          "name": "role",
          "type": "bytes32"
        },
        {
          "indexed": true,
          "internalType": "bytes32",
          "name": "previousAdminRole",
          "type": "bytes32"
        },
        {
          "indexed": true,
          "internalType": "bytes32",
          "name": "newAdminRole",
          "type": "bytes32"
        }
      ],
      "name": "RoleAdminChanged",
      "type": "event"
    },
    {
      "anonymous": false,
      "inputs": [
        {
          "indexed": true,
          "internalType": "bytes32",
          "name": "role",
          "type": "bytes32"
        },
        {
          "indexed": true,
          "internalType": "address",
          "name": "account",
          "type": "address"
        },
        {
          "indexed": true,
          "internalType": "address",
          "name": "sender",
          "type": "address"
        }
      ],
      "name": "RoleGranted",
      "type": "event"
    },
    {
      "anonymous": false,
      "inputs": [
        {
          "indexed": true,
          "internalType": "bytes32",
          "name": "role",
          "type": "bytes32"
        },
        {
          "indexed": true,
          "internalType": "address",
          "name": "account",
          "type": "address"
        },
        {
          "indexed": true,
          "internalType": "address",
          "name": "sender",
          "type": "address"
        }
      ],
      "name": "RoleRevoked",
      "type": "event"
    },
    {
      "anonymous": false,
      "inputs": [
        {
          "indexed": true,
          "internalType": "address",
          "name": "operator",
          "type": "address"
        },
        {
          "indexed": true,
          "internalType": "address",
          "name": "from",
          "type": "address"
        },
        {
          "indexed": true,
          "internalType": "address",
          "name": "to",
          "type": "address"
        },
        {
          "indexed": false,
          "internalType": "uint256[]",
          "name": "ids",
          "type": "uint256[]"
        },
        {
          "indexed": false,
          "internalType": "uint256[]",
          "name": "values",
          "type": "uint256[]"
        }
      ],
      "name": "TransferBatch",
      "type": "event"
    },
    {
      "anonymous": false,
      "inputs": [
        {
          "indexed": true,
          "internalType": "address",
          "name": "operator",
          "type": "address"
        },
        {
          "indexed": true,
          "internalType": "address",
          "name": "from",
          "type": "address"
        },
        {
          "indexed": true,
          "internalType": "address",
          "name": "to",
          "type": "address"
        },
        {
          "indexed": false,
          "internalType": "uint256",
          "name": "id",
          "type": "uint256"
        },
        {
          "indexed": false,
          "internalType": "uint256",
          "name": "value",
          "type": "uint256"
        }
      ],
      "name": "TransferSingle",
      "type": "event"
    },
    {
      "anonymous": false,
      "inputs": [
        {
          "indexed": false,
          "internalType": "string",
          "name": "value",
          "type": "string"
        },
        {
          "indexed": true,
          "internalType": "uint256",
          "name": "id",
          "type": "uint256"
        }
      ],
      "name": "URI",
      "type": "event"
    },
    {
      "anonymous": false,
      "inputs": [
        {
          "indexed": false,
          "internalType": "address",
          "name": "account",
          "type": "address"
        }
      ],
      "name": "Unpaused",
      "type": "event"
    },
    {
      "inputs": [],
      "name": "DEFAULT_ADMIN_ROLE",
      "outputs": [
        {
          "internalType": "bytes32",
          "name": "",
          "type": "bytes32"
        }
      ],
      "stateMutability": "view",
      "type": "function"
    },
    {
      "inputs": [],
      "name": "ID_VERSION_0",
      "outputs": [
        {
          "internalType": "uint256",
          "name": "",
          "type": "uint256"
        }
      ],
      "stateMutability": "view",
      "type": "function"
    },
    {
      "inputs": [],
      "name": "ID_VERSION_1",
      "outputs": [
        {
          "internalType": "uint256",
          "name": "",
          "type": "uint256"
        }
      ],
      "stateMutability": "view",
      "type": "function"
    },
    {
      "inputs": [],
      "name": "ID_VERSION_10",
      "outputs": [
        {
          "internalType": "uint256",
          "name": "",
          "type": "uint256"
        }
      ],
      "stateMutability": "view",
      "type": "function"
    },
    {
      "inputs": [],
      "name": "ID_VERSION_2",
      "outputs": [
        {
          "internalType": "uint256",
          "name": "",
          "type": "uint256"
        }
      ],
      "stateMutability": "view",
      "type": "function"
    },
    {
      "inputs": [],
      "name": "ID_VERSION_3",
      "outputs": [
        {
          "internalType": "uint256",
          "name": "",
          "type": "uint256"
        }
      ],
      "stateMutability": "view",
      "type": "function"
    },
    {
      "inputs": [],
      "name": "ID_VERSION_4",
      "outputs": [
        {
          "internalType": "uint256",
          "name": "",
          "type": "uint256"
        }
      ],
      "stateMutability": "view",
      "type": "function"
    },
    {
      "inputs": [],
      "name": "ID_VERSION_5",
      "outputs": [
        {
          "internalType": "uint256",
          "name": "",
          "type": "uint256"
        }
      ],
      "stateMutability": "view",
      "type": "function"
    },
    {
      "inputs": [],
      "name": "ID_VERSION_6",
      "outputs": [
        {
          "internalType": "uint256",
          "name": "",
          "type": "uint256"
        }
      ],
      "stateMutability": "view",
      "type": "function"
    },
    {
      "inputs": [],
      "name": "ID_VERSION_7",
      "outputs": [
        {
          "internalType": "uint256",
          "name": "",
          "type": "uint256"
        }
      ],
      "stateMutability": "view",
      "type": "function"
    },
    {
      "inputs": [],
      "name": "ID_VERSION_8",
      "outputs": [
        {
          "internalType": "uint256",
          "name": "",
          "type": "uint256"
        }
      ],
      "stateMutability": "view",
      "type": "function"
    },
    {
      "inputs": [],
      "name": "ID_VERSION_9",
      "outputs": [
        {
          "internalType": "uint256",
          "name": "",
          "type": "uint256"
        }
      ],
      "stateMutability": "view",
      "type": "function"
    },
    {
      "inputs": [],
      "name": "MINT_COST_PER_TOKEN",
      "outputs": [
        {
          "internalType": "uint256",
          "name": "",
          "type": "uint256"
        }
      ],
      "stateMutability": "view",
      "type": "function"
    },
    {
      "inputs": [],
      "name": "OWNER_ROLE",
      "outputs": [
        {
          "internalType": "bytes32",
          "name": "",
          "type": "bytes32"
        }
      ],
      "stateMutability": "view",
      "type": "function"
    },
    {
      "inputs": [],
      "name": "PAUSER_ROLE",
      "outputs": [
        {
          "internalType": "bytes32",
          "name": "",
          "type": "bytes32"
        }
      ],
      "stateMutability": "view",
      "type": "function"
    },
    {
      "inputs": [],
      "name": "SIGNER_ROLE",
      "outputs": [
        {
          "internalType": "bytes32",
          "name": "",
          "type": "bytes32"
        }
      ],
      "stateMutability": "view",
      "type": "function"
    },
    {
      "inputs": [
        {
          "internalType": "address",
          "name": "account",
          "type": "address"
        },
        {
          "internalType": "uint256",
          "name": "id",
          "type": "uint256"
        }
      ],
      "name": "balanceOf",
      "outputs": [
        {
          "internalType": "uint256",
          "name": "",
          "type": "uint256"
        }
      ],
      "stateMutability": "view",
      "type": "function"
    },
    {
      "inputs": [
        {
          "internalType": "address[]",
          "name": "accounts",
          "type": "address[]"
        },
        {
          "internalType": "uint256[]",
          "name": "ids",
          "type": "uint256[]"
        }
      ],
      "name": "balanceOfBatch",
      "outputs": [
        {
          "internalType": "uint256[]",
          "name": "",
          "type": "uint256[]"
        }
      ],
      "stateMutability": "view",
      "type": "function"
    },
    {
      "inputs": [
        {
          "internalType": "address",
          "name": "account",
          "type": "address"
        },
        {
          "internalType": "uint256",
          "name": "id",
          "type": "uint256"
        },
        {
          "internalType": "uint256",
          "name": "expiresAt",
          "type": "uint256"
        },
        {
          "internalType": "bytes",
          "name": "signature",
          "type": "bytes"
        }
      ],
      "name": "burn",
      "outputs": [],
      "stateMutability": "nonpayable",
      "type": "function"
    },
    {
      "inputs": [
        {
          "internalType": "bytes32",
          "name": "role",
          "type": "bytes32"
        }
      ],
      "name": "getRoleAdmin",
      "outputs": [
        {
          "internalType": "bytes32",
          "name": "",
          "type": "bytes32"
        }
      ],
      "stateMutability": "view",
      "type": "function"
    },
    {
      "inputs": [
        {
          "internalType": "bytes32",
          "name": "role",
          "type": "bytes32"
        },
        {
          "internalType": "uint256",
          "name": "index",
          "type": "uint256"
        }
      ],
      "name": "getRoleMember",
      "outputs": [
        {
          "internalType": "address",
          "name": "",
          "type": "address"
        }
      ],
      "stateMutability": "view",
      "type": "function"
    },
    {
      "inputs": [
        {
          "internalType": "bytes32",
          "name": "role",
          "type": "bytes32"
        }
      ],
      "name": "getRoleMemberCount",
      "outputs": [
        {
          "internalType": "uint256",
          "name": "",
          "type": "uint256"
        }
      ],
      "stateMutability": "view",
      "type": "function"
    },
    {
      "inputs": [
        {
          "internalType": "bytes32",
          "name": "role",
          "type": "bytes32"
        },
        {
          "internalType": "address",
          "name": "account",
          "type": "address"
        }
      ],
      "name": "grantRole",
      "outputs": [],
      "stateMutability": "nonpayable",
      "type": "function"
    },
    {
      "inputs": [
        {
          "internalType": "bytes32",
          "name": "role",
          "type": "bytes32"
        },
        {
          "internalType": "address",
          "name": "account",
          "type": "address"
        }
      ],
      "name": "hasRole",
      "outputs": [
        {
          "internalType": "bool",
          "name": "",
          "type": "bool"
        }
      ],
      "stateMutability": "view",
      "type": "function"
    },
    {
      "inputs": [
        {
          "internalType": "address",
          "name": "owner",
          "type": "address"
        },
        {
          "internalType": "string",
          "name": "uri",
          "type": "string"
        }
      ],
      "name": "initialize",
      "outputs": [],
      "stateMutability": "nonpayable",
      "type": "function"
    },
    {
      "inputs": [],
      "name": "isAdmin",
      "outputs": [
        {
          "internalType": "bool",
          "name": "",
          "type": "bool"
        }
      ],
      "stateMutability": "view",
      "type": "function"
    },
    {
      "inputs": [
        {
          "internalType": "address",
          "name": "account",
          "type": "address"
        },
        {
          "internalType": "address",
          "name": "operator",
          "type": "address"
        }
      ],
      "name": "isApprovedForAll",
      "outputs": [
        {
          "internalType": "bool",
          "name": "",
          "type": "bool"
        }
      ],
      "stateMutability": "view",
      "type": "function"
    },
    {
      "inputs": [
        {
          "internalType": "uint256",
          "name": "id",
          "type": "uint256"
        },
        {
          "internalType": "uint256",
          "name": "expiresAt",
          "type": "uint256"
        },
        {
          "internalType": "bytes",
          "name": "signature",
          "type": "bytes"
        }
      ],
      "name": "mint",
      "outputs": [],
      "stateMutability": "payable",
      "type": "function"
    },
    {
      "inputs": [
        {
          "internalType": "address",
          "name": "",
          "type": "address"
        }
      ],
      "name": "nonces",
      "outputs": [
        {
          "internalType": "uint256",
          "name": "",
          "type": "uint256"
        }
      ],
      "stateMutability": "view",
      "type": "function"
    },
    {
      "inputs": [],
      "name": "pause",
      "outputs": [],
      "stateMutability": "nonpayable",
      "type": "function"
    },
    {
      "inputs": [],
      "name": "paused",
      "outputs": [
        {
          "internalType": "bool",
          "name": "",
          "type": "bool"
        }
      ],
      "stateMutability": "view",
      "type": "function"
    },
    {
      "inputs": [
        {
          "internalType": "bytes32",
          "name": "role",
          "type": "bytes32"
        },
        {
          "internalType": "address",
          "name": "account",
          "type": "address"
        }
      ],
      "name": "renounceRole",
      "outputs": [],
      "stateMutability": "nonpayable",
      "type": "function"
    },
    {
      "inputs": [
        {
          "internalType": "bytes32",
          "name": "role",
          "type": "bytes32"
        },
        {
          "internalType": "address",
          "name": "account",
          "type": "address"
        }
      ],
      "name": "revokeRole",
      "outputs": [],
      "stateMutability": "nonpayable",
      "type": "function"
    },
    {
      "inputs": [
        {
          "internalType": "address",
          "name": "from",
          "type": "address"
        },
        {
          "internalType": "address",
          "name": "to",
          "type": "address"
        },
        {
          "internalType": "uint256[]",
          "name": "ids",
          "type": "uint256[]"
        },
        {
          "internalType": "uint256[]",
          "name": "amounts",
          "type": "uint256[]"
        },
        {
          "internalType": "bytes",
          "name": "data",
          "type": "bytes"
        }
      ],
      "name": "safeBatchTransferFrom",
      "outputs": [],
      "stateMutability": "nonpayable",
      "type": "function"
    },
    {
      "inputs": [
        {
          "internalType": "address",
          "name": "from",
          "type": "address"
        },
        {
          "internalType": "address",
          "name": "to",
          "type": "address"
        },
        {
          "internalType": "uint256",
          "name": "id",
          "type": "uint256"
        },
        {
          "internalType": "uint256",
          "name": "amount",
          "type": "uint256"
        },
        {
          "internalType": "bytes",
          "name": "data",
          "type": "bytes"
        }
      ],
      "name": "safeTransferFrom",
      "outputs": [],
      "stateMutability": "nonpayable",
      "type": "function"
    },
    {
      "inputs": [
        {
          "internalType": "address",
          "name": "operator",
          "type": "address"
        },
        {
          "internalType": "bool",
          "name": "approved",
          "type": "bool"
        }
      ],
      "name": "setApprovalForAll",
      "outputs": [],
      "stateMutability": "nonpayable",
      "type": "function"
    },
    {
      "inputs": [
        {
          "internalType": "string",
          "name": "newuri",
          "type": "string"
        }
      ],
      "name": "setURI",
      "outputs": [],
      "stateMutability": "nonpayable",
      "type": "function"
    },
    {
      "inputs": [
        {
          "internalType": "bytes4",
          "name": "interfaceId",
          "type": "bytes4"
        }
      ],
      "name": "supportsInterface",
      "outputs": [
        {
          "internalType": "bool",
          "name": "",
          "type": "bool"
        }
      ],
      "stateMutability": "view",
      "type": "function"
    },
    {
      "inputs": [],
      "name": "unpause",
      "outputs": [],
      "stateMutability": "nonpayable",
      "type": "function"
    },
    {
      "inputs": [
        {
          "internalType": "uint256",
          "name": "",
          "type": "uint256"
        }
      ],
      "name": "uri",
      "outputs": [
        {
          "internalType": "string",
          "name": "",
          "type": "string"
        }
      ],
      "stateMutability": "view",
      "type": "function"
    }
  ],
  "transactionHash": "0x01838389a36fc8f43772c4fc708c57e1eea66499ff550f9875d31d5d1f5e37ad",
  "args": [],
  "solcInputHash": "422698881378bd4b57ea850e6613c875",
  "bytecode": "0x608060405234801561001057600080fd5b5061383b806100206000396000f3fe60806040526004361061023a5760003560e01c80637d13fb981161012e578063a22cb465116100ab578063e63ab1e91161006f578063e63ab1e91461064f578063e985e9c514610671578063f242432a146106ba578063f399e22e146106da578063f3d28c3d146106fa57600080fd5b8063a22cb465146105b8578063b6db75a0146105d8578063ca15c873146105ed578063d547741f1461060d578063e58378bb1461062d57600080fd5b806391d14854116100f257806391d148541461054c57806394b653ae1461056c5780639a1b12f514610581578063a1ebf35d14610596578063a217fddf146103d957600080fd5b80637d13fb981461049c5780637ecebe00146104b15780638456cb59146104df5780638a94b05f146104f45780639010d07c1461051457600080fd5b80632f2ff15d116101bc5780634e1273f4116101805780634e1273f4146104185780635b5419c5146104455780635c975abb1461045a5780636a8caac214610472578063759c85af1461048757600080fd5b80632f2ff15d1461039957806336568abe146103b9578063388aab5b146103d95780633c947ced146103ee5780633f4ba83a1461040357600080fd5b8063202207c711610203578063202207c7146103045780632109939a14610319578063248a9ca31461032e5780632dc2c0071461035e5780632eb2c2d61461037957600080fd5b8062fdd58e1461023f57806301ffc9a71461027257806302fe5305146102a257806308dc9f42146102c45780630e89341c146102d7575b600080fd5b34801561024b57600080fd5b5061025f61025a366004612fe0565b61070f565b6040519081526020015b60405180910390f35b34801561027e57600080fd5b5061029261028d366004613189565b6107ab565b6040519015158152602001610269565b3480156102ae57600080fd5b506102c26102bd3660046131c1565b6107b6565b005b6102c26102d23660046131fb565b61082a565b3480156102e357600080fd5b506102f76102f236600461312e565b610aa3565b6040516102699190613450565b34801561031057600080fd5b5061025f600881565b34801561032557600080fd5b5061025f600381565b34801561033a57600080fd5b5061025f61034936600461312e565b60009081526065602052604090206001015490565b34801561036a57600080fd5b5061025f6602f2e16f29e00081565b34801561038557600080fd5b506102c2610394366004612e54565b610b37565b3480156103a557600080fd5b506102c26103b4366004613146565b610bce565b3480156103c557600080fd5b506102c26103d4366004613146565b610bf5565b3480156103e557600080fd5b5061025f600081565b3480156103fa57600080fd5b5061025f600781565b34801561040f57600080fd5b506102c2610c17565b34801561042457600080fd5b5061043861043336600461306e565b610ca3565b604051610269919061340f565b34801561045157600080fd5b5061025f600581565b34801561046657600080fd5b5060fb5460ff16610292565b34801561047e57600080fd5b5061025f600481565b34801561049357600080fd5b5061025f600981565b3480156104a857600080fd5b5061025f600a81565b3480156104bd57600080fd5b5061025f6104cc366004612e08565b6101916020526000908152604090205481565b3480156104eb57600080fd5b506102c2610e04565b34801561050057600080fd5b506102c261050f366004613009565b610e8c565b34801561052057600080fd5b5061053461052f366004613168565b61106a565b6040516001600160a01b039091168152602001610269565b34801561055857600080fd5b50610292610567366004613146565b611089565b34801561057857600080fd5b5061025f600681565b34801561058d57600080fd5b5061025f600181565b3480156105a257600080fd5b5061025f6000805160206137e683398151915281565b3480156105c457600080fd5b506102c26105d3366004612f5b565b6110b4565b3480156105e457600080fd5b5061029261118b565b3480156105f957600080fd5b5061025f61060836600461312e565b6111aa565b34801561061957600080fd5b506102c2610628366004613146565b6111c1565b34801561063957600080fd5b5061025f6000805160206137a683398151915281565b34801561065b57600080fd5b5061025f6000805160206137c683398151915281565b34801561067d57600080fd5b5061029261068c366004612e22565b6001600160a01b03918216600090815260ca6020908152604080832093909416825291909152205460ff1690565b3480156106c657600080fd5b506102c26106d5366004612ef9565b6111cb565b3480156106e657600080fd5b506102c26106f5366004612f95565b611252565b34801561070657600080fd5b5061025f600281565b60006001600160a01b0383166107805760405162461bcd60e51b815260206004820152602b60248201527f455243313135353a2062616c616e636520717565727920666f7220746865207a60448201526a65726f206164647265737360a81b60648201526084015b60405180910390fd5b50600081815260c9602090815260408083206001600160a01b03861684529091529020545b92915050565b60006107a582611328565b6107be61118b565b61081e5760405162461bcd60e51b815260206004820152602b60248201527f4d75737420686176652061646d696e20726f6c6520746f20706572666f726d2060448201526a3a3434b99030b1ba34b7b760a91b6064820152608401610777565b61082781611368565b50565b33848484848242106108765760405162461bcd60e51b815260206004820152601560248201527414da59db985d1d5c99481a185cc8195e1c1a5c9959605a1b6044820152606401610777565b6001600160a01b0385166000908152610191602090815260408083205490516108aa928992899289923092914691016132b1565b60405160208183030381529060405280519060200120905060006108cd8261137f565b90506109216000805160206137e68339815191526105678387878080601f0160208091040260200160405190810160405280939291908181526020018383808284376000920191909152506113d292505050565b61095e5760405162461bcd60e51b815260206004820152600e60248201526d24b73b30b634b21039b4b3b732b960911b6044820152606401610777565b3360008181526101916020526040812080546001929061097f9084906135ab565b90915550506602f2e16f29e0003410156109db5760405162461bcd60e51b815260206004820152601f60248201527f546f6b656e206d696e7420726571756972657320302e303030383320455448006044820152606401610777565b8b15610a225760405162461bcd60e51b8152602060048201526016602482015275151bdad95b881a59081b9bdd081cdd5c1c1bdc9d195960521b6044820152606401610777565b610a2c338d61070f565b15610a795760405162461bcd60e51b815260206004820152601d60248201527f42616c616e6365206265666f7265206d696e74206d75737420626520300000006044820152606401610777565b610a95338d6001604051806020016040528060008152506113ee565b505050505050505050505050565b606060cb8054610ab290613640565b80601f0160208091040260200160405190810160405280929190818152602001828054610ade90613640565b8015610b2b5780601f10610b0057610100808354040283529160200191610b2b565b820191906000526020600020905b815481529060010190602001808311610b0e57829003601f168201915b50505050509050919050565b6001600160a01b038516331480610b535750610b53853361068c565b610bba5760405162461bcd60e51b815260206004820152603260248201527f455243313135353a207472616e736665722063616c6c6572206973206e6f74206044820152711bdddb995c881b9bdc88185c1c1c9bdd995960721b6064820152608401610777565b610bc78585858585611500565b5050505050565b610bd8828261170a565b6000828152609760205260409020610bf09082611730565b505050565b610bff8282611745565b6000828152609760205260409020610bf090826117bf565b610c2f6000805160206137c683398151915233611089565b610c995760405162461bcd60e51b815260206004820152603560248201527f455243313135355072657365745061757365723a206d75737420686176652070604482015274617573657220726f6c6520746f20756e706175736560581b6064820152608401610777565b610ca16117d4565b565b60608151835114610d085760405162461bcd60e51b815260206004820152602960248201527f455243313135353a206163636f756e747320616e6420696473206c656e677468604482015268040dad2e6dac2e8c6d60bb1b6064820152608401610777565b600083516001600160401b03811115610d3157634e487b7160e01b600052604160045260246000fd5b604051908082528060200260200182016040528015610d5a578160200160208202803683370190505b50905060005b8451811015610dfc57610dc1858281518110610d8c57634e487b7160e01b600052603260045260246000fd5b6020026020010151858381518110610db457634e487b7160e01b600052603260045260246000fd5b602002602001015161070f565b828281518110610de157634e487b7160e01b600052603260045260246000fd5b6020908102919091010152610df5816136a7565b9050610d60565b509392505050565b610e1c6000805160206137c683398151915233611089565b610e845760405162461bcd60e51b815260206004820152603360248201527f455243313135355072657365745061757365723a206d75737420686176652070604482015272617573657220726f6c6520746f20706175736560681b6064820152608401610777565b610ca1611867565b8484848484824210610ed85760405162461bcd60e51b815260206004820152601560248201527414da59db985d1d5c99481a185cc8195e1c1a5c9959605a1b6044820152606401610777565b6001600160a01b038516600090815261019160209081526040808320549051610f0c928992899289923092914691016132b1565b6040516020818303038152906040528051906020012090506000610f2f8261137f565b9050610f836000805160206137e68339815191526105678387878080601f0160208091040260200160405190810160405280939291908181526020018383808284376000920191909152506113d292505050565b610fc05760405162461bcd60e51b815260206004820152600e60248201526d24b73b30b634b21039b4b3b732b960911b6044820152606401610777565b6001600160a01b038c1660009081526101916020526040812080548e9260019291610fec9084906135ab565b90915550610ffe90508d8d60016118e2565b600061100a8e8e61070f565b9050801561105a5760405162461bcd60e51b815260206004820152601c60248201527f42616c616e6365206166746572206275726e206d7573742062652030000000006044820152606401610777565b5050505050505050505050505050565b60008281526097602052604081206110829083611a5f565b9392505050565b60009182526065602090815260408084206001600160a01b0393909316845291905290205460ff1690565b336001600160a01b038316141561111f5760405162461bcd60e51b815260206004820152602960248201527f455243313135353a2073657474696e6720617070726f76616c20737461747573604482015268103337b91039b2b63360b91b6064820152608401610777565b33600081815260ca602090815260408083206001600160a01b03871680855290835292819020805460ff191686151590811790915590519081529192917f17307eab39ab6107e8899845ad3d59bd9653f200f220920489ca2b5937696c31910160405180910390a35050565b60006111a56000805160206137a683398151915233611089565b905090565b60008181526097602052604081206107a590611a6b565b610bff8282611a75565b6001600160a01b0385163314806111e757506111e7853361068c565b6112455760405162461bcd60e51b815260206004820152602960248201527f455243313135353a2063616c6c6572206973206e6f74206f776e6572206e6f7260448201526808185c1c1c9bdd995960ba1b6064820152608401610777565b610bc78585858585611a9b565b600054610100900460ff168061126b575060005460ff16155b6112875760405162461bcd60e51b8152600401610777906134f0565b600054610100900460ff161580156112a9576000805461ffff19166101011790555b6001600160a01b0383166112ff5760405162461bcd60e51b815260206004820152601d60248201527f4f776e657220616464726573732063616e6e6f7420626520656d7074790000006044820152606401610777565b6113098383611bbc565b61131283611c55565b8015610bf0576000805461ff0019169055505050565b60006001600160e01b03198216636cdb3d1360e11b148061135957506001600160e01b031982166303a24d0760e21b145b806107a557506107a582611cca565b805161137b9060cb906020840190612c32565b5050565b6040517f19457468657265756d205369676e6564204d6573736167653a0a3332000000006020820152603c8101829052600090605c01604051602081830303815290604052805190602001209050919050565b60008060006113e18585611cef565b91509150610dfc81611d5f565b6001600160a01b03841661144e5760405162461bcd60e51b815260206004820152602160248201527f455243313135353a206d696e7420746f20746865207a65726f206164647265736044820152607360f81b6064820152608401610777565b3361146e8160008761145f88611f60565b61146888611f60565b87611fb9565b600084815260c9602090815260408083206001600160a01b0389168452909152812080548592906114a09084906135ab565b909155505060408051858152602081018590526001600160a01b0380881692600092918516917fc3d58168c5ae7397731d063d5bbf3d657854427343f4c083240f7aacaa2d0f62910160405180910390a4610bc781600087878787612067565b81518351146115625760405162461bcd60e51b815260206004820152602860248201527f455243313135353a2069647320616e6420616d6f756e7473206c656e677468206044820152670dad2e6dac2e8c6d60c31b6064820152608401610777565b6001600160a01b0384166115885760405162461bcd60e51b8152600401610777906134ab565b33611597818787878787611fb9565b60005b845181101561169c5760008582815181106115c557634e487b7160e01b600052603260045260246000fd5b6020026020010151905060008583815181106115f157634e487b7160e01b600052603260045260246000fd5b602090810291909101810151600084815260c9835260408082206001600160a01b038e1683529093529190912054909150818110156116425760405162461bcd60e51b81526004016107779061353e565b600083815260c9602090815260408083206001600160a01b038e8116855292528083208585039055908b168252812080548492906116819084906135ab565b9250508190555050505080611695906136a7565b905061159a565b50846001600160a01b0316866001600160a01b0316826001600160a01b03167f4a39dc06d4c0dbc64b70af90fd698a233a518aa5d07e595d983b8c0526c8f7fb87876040516116ec929190613422565b60405180910390a46117028187878787876121d2565b505050505050565b600082815260656020526040902060010154611726813361229c565b610bf08383612300565b6000611082836001600160a01b038416612386565b6001600160a01b03811633146117b55760405162461bcd60e51b815260206004820152602f60248201527f416363657373436f6e74726f6c3a2063616e206f6e6c792072656e6f756e636560448201526e103937b632b9903337b91039b2b63360891b6064820152608401610777565b61137b82826123d5565b6000611082836001600160a01b03841661243c565b60fb5460ff1661181d5760405162461bcd60e51b815260206004820152601460248201527314185d5cd8589b194e881b9bdd081c185d5cd95960621b6044820152606401610777565b60fb805460ff191690557f5db9ee0a495bf2e6ff9c91a7834c1ba4fdd244a5e8aa4e537bd38aeae4b073aa335b6040516001600160a01b03909116815260200160405180910390a1565b60fb5460ff16156118ad5760405162461bcd60e51b815260206004820152601060248201526f14185d5cd8589b194e881c185d5cd95960821b6044820152606401610777565b60fb805460ff191660011790557f62e78cea01bee320cd4e420270b5ea74000d11b0c9f74754ebdbfc544b05a25861184a3390565b6001600160a01b0383166119445760405162461bcd60e51b815260206004820152602360248201527f455243313135353a206275726e2066726f6d20746865207a65726f206164647260448201526265737360e81b6064820152608401610777565b336119738185600061195587611f60565b61195e87611f60565b60405180602001604052806000815250611fb9565b600083815260c9602090815260408083206001600160a01b0388168452909152902054828110156119f25760405162461bcd60e51b8152602060048201526024808201527f455243313135353a206275726e20616d6f756e7420657863656564732062616c604482015263616e636560e01b6064820152608401610777565b600084815260c9602090815260408083206001600160a01b03898116808652918452828520888703905582518981529384018890529092908616917fc3d58168c5ae7397731d063d5bbf3d657854427343f4c083240f7aacaa2d0f62910160405180910390a45050505050565b60006110828383612559565b60006107a5825490565b600082815260656020526040902060010154611a91813361229c565b610bf083836123d5565b6001600160a01b038416611ac15760405162461bcd60e51b8152600401610777906134ab565b33611ad181878761145f88611f60565b600084815260c9602090815260408083206001600160a01b038a16845290915290205483811015611b145760405162461bcd60e51b81526004016107779061353e565b600085815260c9602090815260408083206001600160a01b038b8116855292528083208785039055908816825281208054869290611b539084906135ab565b909155505060408051868152602081018690526001600160a01b03808916928a821692918616917fc3d58168c5ae7397731d063d5bbf3d657854427343f4c083240f7aacaa2d0f62910160405180910390a4611bb3828888888888612067565b50505050505050565b600054610100900460ff1680611bd5575060005460ff16155b611bf15760405162461bcd60e51b8152600401610777906134f0565b600054610100900460ff16158015611c13576000805461ffff19166101011790555b611c1b612591565b611c23612591565b611c2b612591565b611c33612591565b611c3c826125fc565b611c4461265c565b611c4c612591565b611312836126d1565b600054610100900460ff1680611c6e575060005460ff16155b611c8a5760405162461bcd60e51b8152600401610777906134f0565b600054610100900460ff16158015611cac576000805461ffff19166101011790555b611cb582612796565b801561137b576000805461ff00191690555050565b60006001600160e01b03198216635a05180f60e01b14806107a557506107a58261282b565b600080825160411415611d265760208301516040840151606085015160001a611d1a87828585612860565b94509450505050611d58565b825160401415611d505760208301516040840151611d4586838361294d565b935093505050611d58565b506000905060025b9250929050565b6000816004811115611d8157634e487b7160e01b600052602160045260246000fd5b1415611d8a5750565b6001816004811115611dac57634e487b7160e01b600052602160045260246000fd5b1415611dfa5760405162461bcd60e51b815260206004820152601860248201527f45434453413a20696e76616c6964207369676e617475726500000000000000006044820152606401610777565b6002816004811115611e1c57634e487b7160e01b600052602160045260246000fd5b1415611e6a5760405162461bcd60e51b815260206004820152601f60248201527f45434453413a20696e76616c6964207369676e6174757265206c656e677468006044820152606401610777565b6003816004811115611e8c57634e487b7160e01b600052602160045260246000fd5b1415611ee55760405162461bcd60e51b815260206004820152602260248201527f45434453413a20696e76616c6964207369676e6174757265202773272076616c604482015261756560f01b6064820152608401610777565b6004816004811115611f0757634e487b7160e01b600052602160045260246000fd5b14156108275760405162461bcd60e51b815260206004820152602260248201527f45434453413a20696e76616c6964207369676e6174757265202776272076616c604482015261756560f01b6064820152608401610777565b60408051600180825281830190925260609160009190602080830190803683370190505090508281600081518110611fa857634e487b7160e01b600052603260045260246000fd5b602090810291909101015292915050565b6001600160a01b038516158015611fd857506001600160a01b03841615155b80611ffd57506001600160a01b03851615801590611ffd57506001600160a01b038416155b6120595760405162461bcd60e51b815260206004820152602760248201527f4f6e6c79206d696e74206f72206275726e207472616e73666572732061726520604482015266185b1b1bddd95960ca1b6064820152608401610777565b61170286868686868661297c565b6001600160a01b0384163b156117025760405163f23a6e6160e01b81526001600160a01b0385169063f23a6e61906120ab90899089908890889088906004016133ca565b602060405180830381600087803b1580156120c557600080fd5b505af19250505080156120f5575060408051601f3d908101601f191682019092526120f2918101906131a5565b60015b6121a2576121016136ee565b806308c379a0141561213b5750612116613706565b80612121575061213d565b8060405162461bcd60e51b81526004016107779190613450565b505b60405162461bcd60e51b815260206004820152603460248201527f455243313135353a207472616e7366657220746f206e6f6e20455243313135356044820152732932b1b2b4bb32b91034b6b83632b6b2b73a32b960611b6064820152608401610777565b6001600160e01b0319811663f23a6e6160e01b14611bb35760405162461bcd60e51b815260040161077790613463565b6001600160a01b0384163b156117025760405163bc197c8160e01b81526001600160a01b0385169063bc197c8190612216908990899088908890889060040161336c565b602060405180830381600087803b15801561223057600080fd5b505af1925050508015612260575060408051601f3d908101601f1916820190925261225d918101906131a5565b60015b61226c576121016136ee565b6001600160e01b0319811663bc197c8160e01b14611bb35760405162461bcd60e51b815260040161077790613463565b6122a68282611089565b61137b576122be816001600160a01b0316601461298a565b6122c983602061298a565b6040516020016122da9291906132f7565b60408051601f198184030181529082905262461bcd60e51b825261077791600401613450565b61230a8282611089565b61137b5760008281526065602090815260408083206001600160a01b03851684529091529020805460ff191660011790556123423390565b6001600160a01b0316816001600160a01b0316837f2f8788117e7eff1d82e926ec794901d17c78024a50270940304540a733656f0d60405160405180910390a45050565b60008181526001830160205260408120546123cd575081546001818101845560008481526020808220909301849055845484825282860190935260409020919091556107a5565b5060006107a5565b6123df8282611089565b1561137b5760008281526065602090815260408083206001600160a01b0385168085529252808320805460ff1916905551339285917ff6391f5c32d9c69d2a47ea670b442974b53935d1edc7fd64eb21e047a839171b9190a45050565b6000818152600183016020526040812054801561254f5760006124606001836135e2565b8554909150600090612474906001906135e2565b90508181146124f55760008660000182815481106124a257634e487b7160e01b600052603260045260246000fd5b90600052602060002001549050808760000184815481106124d357634e487b7160e01b600052603260045260246000fd5b6000918252602080832090910192909255918252600188019052604090208390555b855486908061251457634e487b7160e01b600052603160045260246000fd5b6001900381819060005260206000200160009055905585600101600086815260200190815260200160002060009055600193505050506107a5565b60009150506107a5565b600082600001828154811061257e57634e487b7160e01b600052603260045260246000fd5b9060005260206000200154905092915050565b600054610100900460ff16806125aa575060005460ff16155b6125c65760405162461bcd60e51b8152600401610777906134f0565b600054610100900460ff161580156125e8576000805461ffff19166101011790555b8015610827576000805461ff001916905550565b600054610100900460ff1680612615575060005460ff16155b6126315760405162461bcd60e51b8152600401610777906134f0565b600054610100900460ff16158015612653576000805461ffff19166101011790555b611cb582611368565b600054610100900460ff1680612675575060005460ff16155b6126915760405162461bcd60e51b8152600401610777906134f0565b600054610100900460ff161580156126b3576000805461ffff19166101011790555b60fb805460ff191690558015610827576000805461ff001916905550565b600054610100900460ff16806126ea575060005460ff16155b6127065760405162461bcd60e51b8152600401610777906134f0565b600054610100900460ff16158015612728576000805461ffff19166101011790555b6127406000805160206137a683398151915283612b6b565b6127586000805160206137c683398151915283612b6b565b61277e6000805160206137c68339815191526000805160206137a6833981519152612b75565b611cb56000805160206137a683398151915280612b75565b600054610100900460ff16806127af575060005460ff16155b6127cb5760405162461bcd60e51b8152600401610777906134f0565b600054610100900460ff161580156127ed576000805461ffff19166101011790555b6128056000805160206137e683398151915283612b6b565b611cb56000805160206137e68339815191526000805160206137a6833981519152612b75565b60006001600160e01b03198216637965db0b60e01b14806107a557506301ffc9a760e01b6001600160e01b03198316146107a5565b6000807f7fffffffffffffffffffffffffffffff5d576e7357a4501ddfe92f46681b20a08311156128975750600090506003612944565b8460ff16601b141580156128af57508460ff16601c14155b156128c05750600090506004612944565b6040805160008082526020820180845289905260ff881692820192909252606081018690526080810185905260019060a0016020604051602081039080840390855afa158015612914573d6000803e3d6000fd5b5050604051601f1901519150506001600160a01b03811661293d57600060019250925050612944565b9150600090505b94509492505050565b6000806001600160ff1b03831660ff84901c601b0161296e87828885612860565b935093505050935093915050565b611702868686868686612bc0565b606060006129998360026135c3565b6129a49060026135ab565b6001600160401b038111156129c957634e487b7160e01b600052604160045260246000fd5b6040519080825280601f01601f1916602001820160405280156129f3576020820181803683370190505b509050600360fc1b81600081518110612a1c57634e487b7160e01b600052603260045260246000fd5b60200101906001600160f81b031916908160001a905350600f60fb1b81600181518110612a5957634e487b7160e01b600052603260045260246000fd5b60200101906001600160f81b031916908160001a9053506000612a7d8460026135c3565b612a889060016135ab565b90505b6001811115612b1c576f181899199a1a9b1b9c1cb0b131b232b360811b85600f1660108110612aca57634e487b7160e01b600052603260045260246000fd5b1a60f81b828281518110612aee57634e487b7160e01b600052603260045260246000fd5b60200101906001600160f81b031916908160001a90535060049490941c93612b1581613629565b9050612a8b565b5083156110825760405162461bcd60e51b815260206004820181905260248201527f537472696e67733a20686578206c656e67746820696e73756666696369656e746044820152606401610777565b610bd88282612c28565b600082815260656020526040808220600101805490849055905190918391839186917fbd79b86ffe0ab8e8776151514217cd7cacd52c909f66475c3af44e129f0b00ff9190a4505050565b60fb5460ff16156117025760405162461bcd60e51b815260206004820152602c60248201527f455243313135355061757361626c653a20746f6b656e207472616e736665722060448201526b1dda1a5b19481c185d5cd95960a21b6064820152608401610777565b61137b8282612300565b828054612c3e90613640565b90600052602060002090601f016020900481019282612c605760008555612ca6565b82601f10612c7957805160ff1916838001178555612ca6565b82800160010185558215612ca6579182015b82811115612ca6578251825591602001919060010190612c8b565b50612cb2929150612cb6565b5090565b5b80821115612cb25760008155600101612cb7565b80356001600160a01b0381168114612ce257600080fd5b919050565b600082601f830112612cf7578081fd5b81356020612d0482613588565b604051612d11828261367b565b8381528281019150858301600585901b87018401881015612d30578586fd5b855b85811015612d4e57813584529284019290840190600101612d32565b5090979650505050505050565b60008083601f840112612d6c578182fd5b5081356001600160401b03811115612d82578182fd5b602083019150836020828501011115611d5857600080fd5b600082601f830112612daa578081fd5b81356001600160401b03811115612dc357612dc36136d8565b604051612dda601f8301601f19166020018261367b565b818152846020838601011115612dee578283fd5b816020850160208301379081016020019190915292915050565b600060208284031215612e19578081fd5b61108282612ccb565b60008060408385031215612e34578081fd5b612e3d83612ccb565b9150612e4b60208401612ccb565b90509250929050565b600080600080600060a08688031215612e6b578081fd5b612e7486612ccb565b9450612e8260208701612ccb565b935060408601356001600160401b0380821115612e9d578283fd5b612ea989838a01612ce7565b94506060880135915080821115612ebe578283fd5b612eca89838a01612ce7565b93506080880135915080821115612edf578283fd5b50612eec88828901612d9a565b9150509295509295909350565b600080600080600060a08688031215612f10578081fd5b612f1986612ccb565b9450612f2760208701612ccb565b9350604086013592506060860135915060808601356001600160401b03811115612f4f578182fd5b612eec88828901612d9a565b60008060408385031215612f6d578182fd5b612f7683612ccb565b915060208301358015158114612f8a578182fd5b809150509250929050565b60008060408385031215612fa7578182fd5b612fb083612ccb565b915060208301356001600160401b03811115612fca578182fd5b612fd685828601612d9a565b9150509250929050565b60008060408385031215612ff2578182fd5b612ffb83612ccb565b946020939093013593505050565b600080600080600060808688031215613020578283fd5b61302986612ccb565b9450602086013593506040860135925060608601356001600160401b03811115613051578182fd5b61305d88828901612d5b565b969995985093965092949392505050565b60008060408385031215613080578182fd5b82356001600160401b0380821115613096578384fd5b818501915085601f8301126130a9578384fd5b813560206130b682613588565b6040516130c3828261367b565b8381528281019150858301600585901b870184018b10156130e2578889fd5b8896505b8487101561310b576130f781612ccb565b8352600196909601959183019183016130e6565b5096505086013592505080821115613121578283fd5b50612fd685828601612ce7565b60006020828403121561313f578081fd5b5035919050565b60008060408385031215613158578182fd5b82359150612e4b60208401612ccb565b6000806040838503121561317a578182fd5b50508035926020909101359150565b60006020828403121561319a578081fd5b81356110828161378f565b6000602082840312156131b6578081fd5b81516110828161378f565b6000602082840312156131d2578081fd5b81356001600160401b038111156131e7578182fd5b6131f384828501612d9a565b949350505050565b60008060008060608587031215613210578182fd5b843593506020850135925060408501356001600160401b03811115613233578283fd5b61323f87828801612d5b565b95989497509550505050565b6000815180845260208085019450808401835b8381101561327a5781518752958201959082019060010161325e565b509495945050505050565b6000815180845261329d8160208601602086016135f9565b601f01601f19169290920160200192915050565b6bffffffffffffffffffffffff19606097881b81168252601482019690965260348101949094529190941b90921660548201526068810192909252608882015260a80190565b7f416363657373436f6e74726f6c3a206163636f756e742000000000000000000081526000835161332f8160178501602088016135f9565b7001034b99036b4b9b9b4b733903937b6329607d1b60179184019182015283516133608160288401602088016135f9565b01602801949350505050565b6001600160a01b0386811682528516602082015260a0604082018190526000906133989083018661324b565b82810360608401526133aa818661324b565b905082810360808401526133be8185613285565b98975050505050505050565b6001600160a01b03868116825285166020820152604081018490526060810183905260a06080820181905260009061340490830184613285565b979650505050505050565b602081526000611082602083018461324b565b604081526000613435604083018561324b565b8281036020840152613447818561324b565b95945050505050565b6020815260006110826020830184613285565b60208082526028908201527f455243313135353a204552433131353552656365697665722072656a656374656040820152676420746f6b656e7360c01b606082015260800190565b60208082526025908201527f455243313135353a207472616e7366657220746f20746865207a65726f206164604082015264647265737360d81b606082015260800190565b6020808252602e908201527f496e697469616c697a61626c653a20636f6e747261637420697320616c72656160408201526d191e481a5b9a5d1a585b1a5e995960921b606082015260800190565b6020808252602a908201527f455243313135353a20696e73756666696369656e742062616c616e636520666f60408201526939103a3930b739b332b960b11b606082015260800190565b60006001600160401b038211156135a1576135a16136d8565b5060051b60200190565b600082198211156135be576135be6136c2565b500190565b60008160001904831182151516156135dd576135dd6136c2565b500290565b6000828210156135f4576135f46136c2565b500390565b60005b838110156136145781810151838201526020016135fc565b83811115613623576000848401525b50505050565b600081613638576136386136c2565b506000190190565b600181811c9082168061365457607f821691505b6020821081141561367557634e487b7160e01b600052602260045260246000fd5b50919050565b601f8201601f191681016001600160401b03811182821017156136a0576136a06136d8565b6040525050565b60006000198214156136bb576136bb6136c2565b5060010190565b634e487b7160e01b600052601160045260246000fd5b634e487b7160e01b600052604160045260246000fd5b600060033d111561370357600481823e5160e01c5b90565b600060443d10156137145790565b6040516003193d81016004833e81513d6001600160401b03816024840111818411171561374357505050505090565b828501915081518181111561375b5750505050505090565b843d87010160208285010111156137755750505050505090565b6137846020828601018761367b565b509095945050505050565b6001600160e01b03198116811461082757600080fdfeb19546dff01e856fb3f010c267a7b1c60363cf8a4664e21cc89c26224620214e65d7a28e3265b37a6474929f336521b332c1681b933f6cb9f3376673440d862ae2f4eaae4a9751e85a3e4a7b9587827a877f29914755229b07a7b2da98285f70a2646970667358221220e1d30e977ccca4e05c2ed604978dedaec2375d84284fc28e7a2809c80f9f2b0b64736f6c63430008040033",
  "devdoc": {
    "author": "Goldfinch",
    "kind": "dev",
    "methods": {
      "balanceOf(address,uint256)": {
        "details": "See {IERC1155-balanceOf}. Requirements: - `account` cannot be the zero address."
      },
      "balanceOfBatch(address[],uint256[])": {
        "details": "See {IERC1155-balanceOfBatch}. Requirements: - `accounts` and `ids` must have the same length."
      },
      "getRoleAdmin(bytes32)": {
        "details": "Returns the admin role that controls `role`. See {grantRole} and {revokeRole}. To change a role's admin, use {_setRoleAdmin}."
      },
      "getRoleMember(bytes32,uint256)": {
        "details": "Returns one of the accounts that have `role`. `index` must be a value between 0 and {getRoleMemberCount}, non-inclusive. Role bearers are not sorted in any particular way, and their ordering may change at any point. WARNING: When using {getRoleMember} and {getRoleMemberCount}, make sure you perform all queries on the same block. See the following https://forum.openzeppelin.com/t/iterating-over-elements-on-enumerableset-in-openzeppelin-contracts/2296[forum post] for more information."
      },
      "getRoleMemberCount(bytes32)": {
        "details": "Returns the number of accounts that have `role`. Can be used together with {getRoleMember} to enumerate all bearers of a role."
      },
      "grantRole(bytes32,address)": {
        "details": "Overload {grantRole} to track enumerable memberships"
      },
      "hasRole(bytes32,address)": {
        "details": "Returns `true` if `account` has been granted `role`."
      },
      "isApprovedForAll(address,address)": {
        "details": "See {IERC1155-isApprovedForAll}."
      },
      "pause()": {
        "details": "Pauses all token transfers. See {ERC1155Pausable} and {Pausable-_pause}. Requirements: - the caller must have the `PAUSER_ROLE`."
      },
      "paused()": {
        "details": "Returns true if the contract is paused, and false otherwise."
      },
      "renounceRole(bytes32,address)": {
        "details": "Overload {renounceRole} to track enumerable memberships"
      },
      "revokeRole(bytes32,address)": {
        "details": "Overload {revokeRole} to track enumerable memberships"
      },
      "safeBatchTransferFrom(address,address,uint256[],uint256[],bytes)": {
        "details": "See {IERC1155-safeBatchTransferFrom}."
      },
      "safeTransferFrom(address,address,uint256,uint256,bytes)": {
        "details": "See {IERC1155-safeTransferFrom}."
      },
      "setApprovalForAll(address,bool)": {
        "details": "See {IERC1155-setApprovalForAll}."
      },
      "supportsInterface(bytes4)": {
        "details": "See {IERC165-supportsInterface}."
      },
      "unpause()": {
        "details": "Unpauses all token transfers. See {ERC1155Pausable} and {Pausable-_unpause}. Requirements: - the caller must have the `PAUSER_ROLE`."
      },
      "uri(uint256)": {
        "details": "See {IERC1155MetadataURI-uri}. This implementation returns the same URI for *all* token types. It relies on the token type ID substitution mechanism https://eips.ethereum.org/EIPS/eip-1155#metadata[defined in the EIP]. Clients calling this function must replace the `\\{id\\}` substring with the actual token type ID."
      }
    },
    "stateVariables": {
      "nonces": {
        "details": "We include a nonce in every hashed message, and increment the nonce as part of a state-changing operation, so as to prevent replay attacks, i.e. the reuse of a signature."
      }
    },
    "title": "UniqueIdentity",
    "version": 1
  },
  "userdoc": {
    "kind": "user",
    "methods": {},
    "notice": "UniqueIdentity is an ERC1155-compliant contract for representing the identity verification status of addresses.",
    "version": 1
  },
  "storageLayout": {
    "storage": [
      {
        "astId": 648,
        "contract": "contracts/protocol/core/UniqueIdentity.sol:UniqueIdentity",
        "label": "_initialized",
        "offset": 0,
        "slot": "0",
        "type": "t_bool"
      },
      {
        "astId": 651,
        "contract": "contracts/protocol/core/UniqueIdentity.sol:UniqueIdentity",
        "label": "_initializing",
        "offset": 1,
        "slot": "0",
        "type": "t_bool"
      },
      {
        "astId": 2454,
        "contract": "contracts/protocol/core/UniqueIdentity.sol:UniqueIdentity",
        "label": "__gap",
        "offset": 0,
        "slot": "1",
        "type": "t_array(t_uint256)50_storage"
      },
      {
        "astId": 3070,
        "contract": "contracts/protocol/core/UniqueIdentity.sol:UniqueIdentity",
        "label": "__gap",
        "offset": 0,
        "slot": "51",
        "type": "t_array(t_uint256)50_storage"
      },
      {
        "astId": 258,
        "contract": "contracts/protocol/core/UniqueIdentity.sol:UniqueIdentity",
        "label": "_roles",
        "offset": 0,
        "slot": "101",
        "type": "t_mapping(t_bytes32,t_struct(RoleData)253_storage)"
      },
      {
        "astId": 543,
        "contract": "contracts/protocol/core/UniqueIdentity.sol:UniqueIdentity",
        "label": "__gap",
        "offset": 0,
        "slot": "102",
        "type": "t_array(t_uint256)49_storage"
      },
      {
        "astId": 45,
        "contract": "contracts/protocol/core/UniqueIdentity.sol:UniqueIdentity",
        "label": "_roleMembers",
        "offset": 0,
        "slot": "151",
        "type": "t_mapping(t_bytes32,t_struct(AddressSet)3395_storage)"
      },
      {
        "astId": 208,
        "contract": "contracts/protocol/core/UniqueIdentity.sol:UniqueIdentity",
        "label": "__gap",
        "offset": 0,
        "slot": "152",
        "type": "t_array(t_uint256)49_storage"
      },
      {
        "astId": 830,
        "contract": "contracts/protocol/core/UniqueIdentity.sol:UniqueIdentity",
        "label": "_balances",
        "offset": 0,
        "slot": "201",
        "type": "t_mapping(t_uint256,t_mapping(t_address,t_uint256))"
      },
      {
        "astId": 836,
        "contract": "contracts/protocol/core/UniqueIdentity.sol:UniqueIdentity",
        "label": "_operatorApprovals",
        "offset": 0,
        "slot": "202",
        "type": "t_mapping(t_address,t_mapping(t_address,t_bool))"
      },
      {
        "astId": 838,
        "contract": "contracts/protocol/core/UniqueIdentity.sol:UniqueIdentity",
        "label": "_uri",
        "offset": 0,
        "slot": "203",
        "type": "t_string_storage"
      },
      {
        "astId": 1908,
        "contract": "contracts/protocol/core/UniqueIdentity.sol:UniqueIdentity",
        "label": "__gap",
        "offset": 0,
        "slot": "204",
        "type": "t_array(t_uint256)47_storage"
      },
      {
        "astId": 709,
        "contract": "contracts/protocol/core/UniqueIdentity.sol:UniqueIdentity",
        "label": "_paused",
        "offset": 0,
        "slot": "251",
        "type": "t_bool"
      },
      {
        "astId": 800,
        "contract": "contracts/protocol/core/UniqueIdentity.sol:UniqueIdentity",
        "label": "__gap",
        "offset": 0,
        "slot": "252",
        "type": "t_array(t_uint256)49_storage"
      },
      {
        "astId": 2150,
        "contract": "contracts/protocol/core/UniqueIdentity.sol:UniqueIdentity",
        "label": "__gap",
        "offset": 0,
        "slot": "301",
        "type": "t_array(t_uint256)50_storage"
      },
      {
        "astId": 3871,
        "contract": "contracts/protocol/core/UniqueIdentity.sol:UniqueIdentity",
        "label": "__gap",
        "offset": 0,
        "slot": "351",
        "type": "t_array(t_uint256)50_storage"
      },
      {
        "astId": 3976,
        "contract": "contracts/protocol/core/UniqueIdentity.sol:UniqueIdentity",
        "label": "nonces",
        "offset": 0,
        "slot": "401",
        "type": "t_mapping(t_address,t_uint256)"
      }
    ],
    "types": {
      "t_address": {
        "encoding": "inplace",
        "label": "address",
        "numberOfBytes": "20"
      },
      "t_array(t_bytes32)dyn_storage": {
        "base": "t_bytes32",
        "encoding": "dynamic_array",
        "label": "bytes32[]",
        "numberOfBytes": "32"
      },
      "t_array(t_uint256)47_storage": {
        "base": "t_uint256",
        "encoding": "inplace",
        "label": "uint256[47]",
        "numberOfBytes": "1504"
      },
      "t_array(t_uint256)49_storage": {
        "base": "t_uint256",
        "encoding": "inplace",
        "label": "uint256[49]",
        "numberOfBytes": "1568"
      },
      "t_array(t_uint256)50_storage": {
        "base": "t_uint256",
        "encoding": "inplace",
        "label": "uint256[50]",
        "numberOfBytes": "1600"
      },
      "t_bool": {
        "encoding": "inplace",
        "label": "bool",
        "numberOfBytes": "1"
      },
      "t_bytes32": {
        "encoding": "inplace",
        "label": "bytes32",
        "numberOfBytes": "32"
      },
      "t_mapping(t_address,t_bool)": {
        "encoding": "mapping",
        "key": "t_address",
        "label": "mapping(address => bool)",
        "numberOfBytes": "32",
        "value": "t_bool"
      },
      "t_mapping(t_address,t_mapping(t_address,t_bool))": {
        "encoding": "mapping",
        "key": "t_address",
        "label": "mapping(address => mapping(address => bool))",
        "numberOfBytes": "32",
        "value": "t_mapping(t_address,t_bool)"
      },
      "t_mapping(t_address,t_uint256)": {
        "encoding": "mapping",
        "key": "t_address",
        "label": "mapping(address => uint256)",
        "numberOfBytes": "32",
        "value": "t_uint256"
      },
      "t_mapping(t_bytes32,t_struct(AddressSet)3395_storage)": {
        "encoding": "mapping",
        "key": "t_bytes32",
        "label": "mapping(bytes32 => struct EnumerableSetUpgradeable.AddressSet)",
        "numberOfBytes": "32",
        "value": "t_struct(AddressSet)3395_storage"
      },
      "t_mapping(t_bytes32,t_struct(RoleData)253_storage)": {
        "encoding": "mapping",
        "key": "t_bytes32",
        "label": "mapping(bytes32 => struct AccessControlUpgradeable.RoleData)",
        "numberOfBytes": "32",
        "value": "t_struct(RoleData)253_storage"
      },
      "t_mapping(t_bytes32,t_uint256)": {
        "encoding": "mapping",
        "key": "t_bytes32",
        "label": "mapping(bytes32 => uint256)",
        "numberOfBytes": "32",
        "value": "t_uint256"
      },
      "t_mapping(t_uint256,t_mapping(t_address,t_uint256))": {
        "encoding": "mapping",
        "key": "t_uint256",
        "label": "mapping(uint256 => mapping(address => uint256))",
        "numberOfBytes": "32",
        "value": "t_mapping(t_address,t_uint256)"
      },
      "t_string_storage": {
        "encoding": "bytes",
        "label": "string",
        "numberOfBytes": "32"
      },
      "t_struct(AddressSet)3395_storage": {
        "encoding": "inplace",
        "label": "struct EnumerableSetUpgradeable.AddressSet",
        "members": [
          {
            "astId": 3394,
            "contract": "contracts/protocol/core/UniqueIdentity.sol:UniqueIdentity",
            "label": "_inner",
            "offset": 0,
            "slot": "0",
            "type": "t_struct(Set)3094_storage"
          }
        ],
        "numberOfBytes": "64"
      },
      "t_struct(RoleData)253_storage": {
        "encoding": "inplace",
        "label": "struct AccessControlUpgradeable.RoleData",
        "members": [
          {
            "astId": 250,
            "contract": "contracts/protocol/core/UniqueIdentity.sol:UniqueIdentity",
            "label": "members",
            "offset": 0,
            "slot": "0",
            "type": "t_mapping(t_address,t_bool)"
          },
          {
            "astId": 252,
            "contract": "contracts/protocol/core/UniqueIdentity.sol:UniqueIdentity",
            "label": "adminRole",
            "offset": 0,
            "slot": "1",
            "type": "t_bytes32"
          }
        ],
        "numberOfBytes": "64"
      },
      "t_struct(Set)3094_storage": {
        "encoding": "inplace",
        "label": "struct EnumerableSetUpgradeable.Set",
        "members": [
          {
            "astId": 3089,
            "contract": "contracts/protocol/core/UniqueIdentity.sol:UniqueIdentity",
            "label": "_values",
            "offset": 0,
            "slot": "0",
            "type": "t_array(t_bytes32)dyn_storage"
          },
          {
            "astId": 3093,
            "contract": "contracts/protocol/core/UniqueIdentity.sol:UniqueIdentity",
            "label": "_indexes",
            "offset": 0,
            "slot": "1",
            "type": "t_mapping(t_bytes32,t_uint256)"
          }
        ],
        "numberOfBytes": "64"
      },
      "t_uint256": {
        "encoding": "inplace",
        "label": "uint256",
        "numberOfBytes": "32"
      }
    }
  }
}