{
  "address": "0xEbe478d3ef05ad340909B8061C1af08b7810cB1d",
  "abi": [
    {
      "anonymous": false,
      "inputs": [
        {
          "indexed": true,
          "internalType": "address",
          "name": "owner",
          "type": "address"
        },
        {
          "indexed": true,
          "internalType": "uint256",
          "name": "tokenId",
          "type": "uint256"
        },
        {
          "indexed": false,
          "internalType": "uint256",
          "name": "amountOfTranchedPoolRewards",
          "type": "uint256"
        },
        {
          "indexed": false,
          "internalType": "uint256",
          "name": "amountOfSeniorPoolRewards",
          "type": "uint256"
        }
      ],
      "name": "BackerRewardsClaimed",
      "type": "event"
    },
    {
      "anonymous": false,
      "inputs": [
        {
          "indexed": true,
          "internalType": "address",
          "name": "owner",
          "type": "address"
        },
        {
          "indexed": false,
          "internalType": "uint256",
          "name": "maxInterestDollarsEligible",
          "type": "uint256"
        }
      ],
      "name": "BackerRewardsSetMaxInterestDollarsEligible",
      "type": "event"
    },
    {
      "anonymous": false,
      "inputs": [
        {
          "indexed": true,
          "internalType": "address",
          "name": "owner",
          "type": "address"
        },
        {
          "indexed": false,
          "internalType": "uint256",
          "name": "totalInterestReceived",
          "type": "uint256"
        }
      ],
      "name": "BackerRewardsSetTotalInterestReceived",
      "type": "event"
    },
    {
      "anonymous": false,
      "inputs": [
        {
          "indexed": true,
          "internalType": "address",
          "name": "owner",
          "type": "address"
        },
        {
          "indexed": false,
          "internalType": "uint256",
          "name": "totalRewards",
          "type": "uint256"
        },
        {
          "indexed": false,
          "internalType": "uint256",
          "name": "totalRewardPercentOfTotalGFI",
          "type": "uint256"
        }
      ],
      "name": "BackerRewardsSetTotalRewards",
      "type": "event"
    },
    {
      "anonymous": false,
      "inputs": [
        {
          "indexed": false,
          "internalType": "address",
          "name": "account",
          "type": "address"
        }
      ],
      "name": "Paused",
      "type": "event"
    },
    {
      "anonymous": false,
      "inputs": [
        {
          "indexed": true,
          "internalType": "bytes32",
          "name": "role",
          "type": "bytes32"
        },
        {
          "indexed": true,
          "internalType": "address",
          "name": "account",
          "type": "address"
        },
        {
          "indexed": true,
          "internalType": "address",
          "name": "sender",
          "type": "address"
        }
      ],
      "name": "RoleGranted",
      "type": "event"
    },
    {
      "anonymous": false,
      "inputs": [
        {
          "indexed": true,
          "internalType": "bytes32",
          "name": "role",
          "type": "bytes32"
        },
        {
          "indexed": true,
          "internalType": "address",
          "name": "account",
          "type": "address"
        },
        {
          "indexed": true,
          "internalType": "address",
          "name": "sender",
          "type": "address"
        }
      ],
      "name": "RoleRevoked",
      "type": "event"
    },
    {
      "anonymous": false,
      "inputs": [],
      "name": "SafetyCheckTriggered",
      "type": "event"
    },
    {
      "anonymous": false,
      "inputs": [
        {
          "indexed": false,
          "internalType": "address",
          "name": "account",
          "type": "address"
        }
      ],
      "name": "Unpaused",
      "type": "event"
    },
    {
      "inputs": [],
      "name": "DEFAULT_ADMIN_ROLE",
      "outputs": [
        {
          "internalType": "bytes32",
          "name": "",
          "type": "bytes32"
        }
      ],
      "stateMutability": "view",
      "type": "function"
    },
    {
      "inputs": [],
      "name": "OWNER_ROLE",
      "outputs": [
        {
          "internalType": "bytes32",
          "name": "",
          "type": "bytes32"
        }
      ],
      "stateMutability": "view",
      "type": "function"
    },
    {
      "inputs": [],
      "name": "PAUSER_ROLE",
      "outputs": [
        {
          "internalType": "bytes32",
          "name": "",
          "type": "bytes32"
        }
      ],
      "stateMutability": "view",
      "type": "function"
    },
    {
      "inputs": [
        {
          "internalType": "address",
          "name": "owner",
          "type": "address"
        }
      ],
      "name": "__BaseUpgradeablePausable__init",
      "outputs": [],
      "stateMutability": "nonpayable",
      "type": "function"
    },
    {
      "inputs": [],
      "name": "__PauserPausable__init",
      "outputs": [],
      "stateMutability": "nonpayable",
      "type": "function"
    },
    {
      "inputs": [
        {
          "internalType": "address",
          "name": "owner",
          "type": "address"
        },
        {
          "internalType": "contract GoldfinchConfig",
          "name": "_config",
          "type": "address"
        }
      ],
      "name": "__initialize__",
      "outputs": [],
      "stateMutability": "nonpayable",
      "type": "function"
    },
    {
      "inputs": [
        {
          "internalType": "uint256",
          "name": "_interestPaymentAmount",
          "type": "uint256"
        }
      ],
      "name": "allocateRewards",
      "outputs": [],
      "stateMutability": "nonpayable",
      "type": "function"
    },
    {
      "inputs": [],
      "name": "config",
      "outputs": [
        {
          "internalType": "contract GoldfinchConfig",
          "name": "",
          "type": "address"
        }
      ],
      "stateMutability": "view",
      "type": "function"
    },
    {
      "inputs": [
        {
          "internalType": "contract ITranchedPool",
          "name": "pool",
          "type": "address"
        },
        {
          "internalType": "uint256",
          "name": "fiduSharePriceAtDrawdown",
          "type": "uint256"
        },
        {
          "internalType": "uint256",
          "name": "principalDeployedAtDrawdown",
          "type": "uint256"
        },
        {
          "internalType": "uint256",
          "name": "rewardsAccumulatorAtDrawdown",
          "type": "uint256"
        }
      ],
      "name": "forceInitializeStakingRewardsPoolInfo",
      "outputs": [],
      "stateMutability": "nonpayable",
      "type": "function"
    },
    {
      "inputs": [
        {
          "internalType": "bytes32",
          "name": "role",
          "type": "bytes32"
        }
      ],
      "name": "getRoleAdmin",
      "outputs": [
        {
          "internalType": "bytes32",
          "name": "",
          "type": "bytes32"
        }
      ],
      "stateMutability": "view",
      "type": "function"
    },
    {
      "inputs": [
        {
          "internalType": "bytes32",
          "name": "role",
          "type": "bytes32"
        },
        {
          "internalType": "uint256",
          "name": "index",
          "type": "uint256"
        }
      ],
      "name": "getRoleMember",
      "outputs": [
        {
          "internalType": "address",
          "name": "",
          "type": "address"
        }
      ],
      "stateMutability": "view",
      "type": "function"
    },
    {
      "inputs": [
        {
          "internalType": "bytes32",
          "name": "role",
          "type": "bytes32"
        }
      ],
      "name": "getRoleMemberCount",
      "outputs": [
        {
          "internalType": "uint256",
          "name": "",
          "type": "uint256"
        }
      ],
      "stateMutability": "view",
      "type": "function"
    },
    {
      "inputs": [
        {
          "internalType": "bytes32",
          "name": "role",
          "type": "bytes32"
        },
        {
          "internalType": "address",
          "name": "account",
          "type": "address"
        }
      ],
      "name": "grantRole",
      "outputs": [],
      "stateMutability": "nonpayable",
      "type": "function"
    },
    {
      "inputs": [
        {
          "internalType": "bytes32",
          "name": "role",
          "type": "bytes32"
        },
        {
          "internalType": "address",
          "name": "account",
          "type": "address"
        }
      ],
      "name": "hasRole",
      "outputs": [
        {
          "internalType": "bool",
          "name": "",
          "type": "bool"
        }
      ],
      "stateMutability": "view",
      "type": "function"
    },
    {
      "inputs": [],
      "name": "isAdmin",
      "outputs": [
        {
          "internalType": "bool",
          "name": "",
          "type": "bool"
        }
      ],
      "stateMutability": "view",
      "type": "function"
    },
    {
      "inputs": [],
      "name": "maxInterestDollarsEligible",
      "outputs": [
        {
          "internalType": "uint256",
          "name": "",
          "type": "uint256"
        }
      ],
      "stateMutability": "view",
      "type": "function"
    },
    {
      "inputs": [
        {
          "internalType": "uint256",
          "name": "sliceIndex",
          "type": "uint256"
        }
      ],
      "name": "onTranchedPoolDrawdown",
      "outputs": [],
      "stateMutability": "nonpayable",
      "type": "function"
    },
    {
      "inputs": [],
      "name": "pause",
      "outputs": [],
      "stateMutability": "nonpayable",
      "type": "function"
    },
    {
      "inputs": [],
      "name": "paused",
      "outputs": [
        {
          "internalType": "bool",
          "name": "",
          "type": "bool"
        }
      ],
      "stateMutability": "view",
      "type": "function"
    },
    {
      "inputs": [
        {
          "internalType": "contract ITranchedPool",
          "name": "",
          "type": "address"
        }
      ],
      "name": "poolStakingRewards",
      "outputs": [
        {
          "internalType": "uint256",
          "name": "accumulatedRewardsPerTokenAtLastCheckpoint",
          "type": "uint256"
        },
        {
          "internalType": "uint256",
          "name": "lastUpdateTime",
          "type": "uint256"
        }
      ],
      "stateMutability": "view",
      "type": "function"
    },
    {
      "inputs": [
        {
          "internalType": "uint256",
          "name": "tokenId",
          "type": "uint256"
        }
      ],
      "name": "poolTokenClaimableRewards",
      "outputs": [
        {
          "internalType": "uint256",
          "name": "",
          "type": "uint256"
        }
      ],
      "stateMutability": "view",
      "type": "function"
    },
    {
      "inputs": [
        {
          "internalType": "address",
          "name": "",
          "type": "address"
        }
      ],
      "name": "pools",
      "outputs": [
        {
          "internalType": "uint256",
          "name": "accRewardsPerPrincipalDollar",
          "type": "uint256"
        }
      ],
      "stateMutability": "view",
      "type": "function"
    },
    {
      "inputs": [
        {
          "internalType": "bytes32",
          "name": "role",
          "type": "bytes32"
        },
        {
          "internalType": "address",
          "name": "account",
          "type": "address"
        }
      ],
      "name": "renounceRole",
      "outputs": [],
      "stateMutability": "nonpayable",
      "type": "function"
    },
    {
      "inputs": [
        {
          "internalType": "bytes32",
          "name": "role",
          "type": "bytes32"
        },
        {
          "internalType": "address",
          "name": "account",
          "type": "address"
        }
      ],
      "name": "revokeRole",
      "outputs": [],
      "stateMutability": "nonpayable",
      "type": "function"
    },
    {
      "inputs": [
        {
          "internalType": "uint256",
          "name": "_maxInterestDollarsEligible",
          "type": "uint256"
        }
      ],
      "name": "setMaxInterestDollarsEligible",
      "outputs": [],
      "stateMutability": "nonpayable",
      "type": "function"
    },
    {
      "inputs": [
        {
          "internalType": "address",
          "name": "poolAddress",
          "type": "address"
        },
        {
          "internalType": "uint256",
          "name": "tokenId",
          "type": "uint256"
        }
      ],
      "name": "setPoolTokenAccRewardsPerPrincipalDollarAtMint",
      "outputs": [],
      "stateMutability": "nonpayable",
      "type": "function"
    },
    {
      "inputs": [
        {
          "internalType": "uint256",
          "name": "_totalInterestReceived",
          "type": "uint256"
        }
      ],
      "name": "setTotalInterestReceived",
      "outputs": [],
      "stateMutability": "nonpayable",
      "type": "function"
    },
    {
      "inputs": [
        {
          "internalType": "uint256",
          "name": "_totalRewards",
          "type": "uint256"
        }
      ],
      "name": "setTotalRewards",
      "outputs": [],
      "stateMutability": "nonpayable",
      "type": "function"
    },
    {
      "inputs": [
        {
          "internalType": "uint256",
          "name": "tokenId",
          "type": "uint256"
        }
      ],
      "name": "stakingRewardsClaimed",
      "outputs": [
        {
          "internalType": "uint256",
          "name": "",
          "type": "uint256"
        }
      ],
      "stateMutability": "view",
      "type": "function"
    },
    {
      "inputs": [
        {
          "internalType": "uint256",
          "name": "tokenId",
          "type": "uint256"
        }
      ],
      "name": "stakingRewardsEarnedSinceLastWithdraw",
      "outputs": [
        {
          "internalType": "uint256",
          "name": "",
          "type": "uint256"
        }
      ],
      "stateMutability": "view",
      "type": "function"
    },
    {
      "inputs": [
        {
          "internalType": "uint256",
          "name": "",
          "type": "uint256"
        }
      ],
      "name": "tokenStakingRewards",
      "outputs": [
        {
          "internalType": "uint256",
          "name": "accumulatedRewardsPerTokenAtLastWithdraw",
          "type": "uint256"
        }
      ],
      "stateMutability": "view",
      "type": "function"
    },
    {
      "inputs": [
        {
          "internalType": "uint256",
          "name": "",
          "type": "uint256"
        }
      ],
      "name": "tokens",
      "outputs": [
        {
          "internalType": "uint256",
          "name": "rewardsClaimed",
          "type": "uint256"
        },
        {
          "internalType": "uint256",
          "name": "accRewardsPerPrincipalDollarAtMint",
          "type": "uint256"
        }
      ],
      "stateMutability": "view",
      "type": "function"
    },
    {
      "inputs": [],
      "name": "totalInterestReceived",
      "outputs": [
        {
          "internalType": "uint256",
          "name": "",
          "type": "uint256"
        }
      ],
      "stateMutability": "view",
      "type": "function"
    },
    {
      "inputs": [],
      "name": "totalRewardPercentOfTotalGFI",
      "outputs": [
        {
          "internalType": "uint256",
          "name": "",
          "type": "uint256"
        }
      ],
      "stateMutability": "view",
      "type": "function"
    },
    {
      "inputs": [],
      "name": "totalRewards",
      "outputs": [
        {
          "internalType": "uint256",
          "name": "",
          "type": "uint256"
        }
      ],
      "stateMutability": "view",
      "type": "function"
    },
    {
      "inputs": [],
      "name": "unpause",
      "outputs": [],
      "stateMutability": "nonpayable",
      "type": "function"
    },
    {
      "inputs": [
        {
          "internalType": "uint256",
          "name": "tokenId",
          "type": "uint256"
        }
      ],
      "name": "withdraw",
      "outputs": [],
      "stateMutability": "nonpayable",
      "type": "function"
    },
    {
      "inputs": [
        {
          "internalType": "uint256[]",
          "name": "tokenIds",
          "type": "uint256[]"
        }
      ],
      "name": "withdrawMultiple",
      "outputs": [],
      "stateMutability": "nonpayable",
      "type": "function"
    }
  ],
  "transactionHash": "0xf542185c8b7b66a67b8334f3be3ee8c5a5035a9ce7ea2aeda5543585aba32516",
  "args": [],
  "solcInputHash": "a67c4f293a964d2cac7bbf8c9f65d46c",
  "bytecode": "0x608060405234801561001057600080fd5b506148fc806100206000396000f3fe608060405234801561001057600080fd5b50600436106102125760003560e01c80635f464bb211610120578063a4063dbc116100b8578063d547741f1161007c578063d547741f14610451578063e149ee8014610464578063e58378bb14610477578063e5b791061461047f578063e63ab1e91461049257610212565b8063a4063dbc14610408578063b6db75a01461041b578063b6f8fd4014610423578063ca15c87314610436578063ccf5a9711461044957610212565b80635f464bb21461037c5780636efbe6431461038f57806379502c55146103a25780638456cb59146103b757806387f5769e146103bf5780639010d07c146103c757806391d14854146103da57806392735675146103ed578063a217fddf1461040057610212565b80632e1a7d4d116101ae5780633f4ba83a116101725780633f4ba83a14610331578063440a5aeb146103395780634f64b2be1461034c578063526d81f61461035f5780635c975abb1461036757610212565b80632e1a7d4d146102c45780632f2ff15d146102d757806334cbd458146102ea57806336568abe1461030b578063369dfa841461031e57610212565b8063097616a3146102175780630c9dbe941461022c5780630de749321461024a5780630e15561a1461025d578063242a728614610265578063248a9ca3146102785780632808e69e1461028b5780632879e4de1461029e57806328fc33c7146102b1575b600080fd5b61022a610225366004613d9d565b61049a565b005b6102346105d3565b604051610241919061405b565b60405180910390f35b610234610258366004613ec7565b6105da565b610234610869565b61022a610273366004613ec7565b610870565b610234610286366004613ec7565b6108e5565b610234610299366004613ec7565b6108fa565b61022a6102ac366004613ec7565b610b7f565b61022a6102bf366004613ec7565b610be9565b61022a6102d2366004613ec7565b610cf0565b61022a6102e5366004613edf565b61125b565b6102fd6102f8366004613d9d565b61129f565b60405161024192919061481c565b61022a610319366004613edf565b6112b9565b61023461032c366004613ec7565b6112fb565b61022a61144b565b61022a610347366004613f24565b61148b565b6102fd61035a366004613ec7565b6116c9565b61022a6116e3565b61036f61176e565b6040516102419190614050565b61023461038a366004613ec7565b611777565b61022a61039d366004613e0d565b61178a565b6103aa6119a9565b6040516102419190614023565b61022a6119b9565b6102346119f7565b6103aa6103d5366004613f03565b6119fe565b61036f6103e8366004613edf565b611a1f565b61022a6103fb366004613ec7565b611a37565b610234611b5c565b610234610416366004613d9d565b611b61565b61036f611b74565b61022a610431366004613dd5565b611b95565b610234610444366004613ec7565b611c7b565b610234611c92565b61022a61045f366004613edf565b611c99565b61022a610472366004613ec7565b611cd3565b61023461209c565b61022a61048d366004613e38565b6120ae565b6102346120f9565b600054610100900460ff16806104b357506104b361210b565b806104c1575060005460ff16155b6104e65760405162461bcd60e51b81526004016104dd906145e5565b60405180910390fd5b600054610100900460ff16158015610511576000805460ff1961ff0019909116610100171660011790555b6001600160a01b0382166105375760405162461bcd60e51b81526004016104dd906144bd565b61053f612111565b610547612192565b61054f61221e565b61056760008051602061488783398151915283611295565b61057f6000805160206148a783398151915283611295565b6105a56000805160206148a78339815191526000805160206148878339815191526122ad565b6105bd600080516020614887833981519152806122ad565b80156105cf576000805461ff00191690555b5050565b6101c75481565b60006105e4613d02565b6101c3546105fa906001600160a01b03166122c2565b6001600160a01b0316638c7a63ae846040518263ffffffff1660e01b8152600401610625919061405b565b60a06040518083038186803b15801561063d57600080fd5b505afa158015610651573d6000803e3d6000fd5b505050506040513d601f19601f820116820180604052508101906106759190613f5e565b9050610680816122cd565b1561068f576000915050610864565b805160208201516000906106a2906122e9565b90506106ad826122fb565b15806106c057506106be82826123ed565b155b156106d15760009350505050610864565b6106d9613d3a565b6101ca6000846001600160a01b03166001600160a01b03168152602001908152602001600020604051806060016040529081600082015481526020016001820154815260200160028201805480602002602001604051908101604052809291908181526020016000905b828210156107a757838290600052602060002090600502016040518060a00160405290816000820154815260200160018201548152602001600282015481526020016003820154815260200160048201548152505081526020019060010190610743565b505050508152505090506107b9613d5b565b816040015183815181106107c957fe5b602002602001015190506107db613d8a565b5060008781526101cb602090815260408083208151928301909152548152906108048385612507565b905060006108128385612545565b9050600061082083836125af565b905060006108368a6040015187600001516125f1565b90506000610856670de0b6b3a7640000610850848661260c565b90612646565b9b5050505050505050505050505b919050565b6101c45481565b610878611b74565b6108945760405162461bcd60e51b81526004016104dd906146ee565b6101c58190556108a2612688565b6001600160a01b03167fbd23f227ee01d5b74d28337b4aa192bdb10824b0f2ad21e725a2f08af91ec81b826040516108da919061405b565b60405180910390a250565b60009081526065602052604090206002015490565b6101c3546000908190610915906001600160a01b03166122c2565b905061091f613d02565b60405163463d31d760e11b81526001600160a01b03831690638c7a63ae9061094b90879060040161405b565b60a06040518083038186803b15801561096357600080fd5b505afa158015610977573d6000803e3d6000fd5b505050506040513d601f19601f8201168201806040525081019061099b9190613f5e565b90506109a6816122cd565b156109b657600092505050610864565b805160208201516000906109c9906122e9565b90506109d4826122fb565b15806109e757506109e582826123ed565b155b156109f9576000945050505050610864565b610a01613d3a565b6101ca6000846001600160a01b03166001600160a01b03168152602001908152602001600020604051806060016040529081600082015481526020016001820154815260200160028201805480602002602001604051908101604052809291908181526020016000905b82821015610acf57838290600052602060002090600502016040518060a00160405290816000820154815260200160018201548152602001600282015481526020016003820154815260200160048201548152505081526020019060010190610a6b565b50505050815250509050610ae1613d5b565b81604001518381518110610af157fe5b60200260200101519050610b03613d8a565b5060008881526101cb60209081526040808320815192830182525482528301519091610b2f8385612545565b90506000610b3d82846125af565b90506000610b538a6040015187600001516125f1565b90506000610b6d670de0b6b3a7640000610850848661260c565b9e9d5050505050505050505050505050565b610b87611b74565b610ba35760405162461bcd60e51b81526004016104dd906146ee565b6101c6819055610bb1612688565b6001600160a01b03167feabaa681e9990f0da888d0feb7ec727809a7e832013b120a9a248ba6b16d5f44826040516108da919061405b565b6101c354610bff906001600160a01b03166122c2565b6001600160a01b031663b5ada6d8610c15612688565b6040518263ffffffff1660e01b8152600401610c319190614023565b60206040518083038186803b158015610c4957600080fd5b505afa158015610c5d573d6000803e3d6000fd5b505050506040513d601f19601f82011682018060405250810190610c819190613ea7565b610c9d5760405162461bcd60e51b81526004016104dd9061434a565b60c95460ff16610cbf5760405162461bcd60e51b81526004016104dd906146b7565b60c9805460ff191690558015610cd857610cd88161268c565b610ce06127c2565b5060c9805460ff19166001179055565b60975460ff1615610d135760405162461bcd60e51b81526004016104dd9061445c565b60c95460ff16610d355760405162461bcd60e51b81526004016104dd906146b7565b60c9805460ff191690556101c354600090610d58906001600160a01b03166122c2565b9050610d62613d02565b60405163463d31d760e11b81526001600160a01b03831690638c7a63ae90610d8e90869060040161405b565b60a06040518083038186803b158015610da657600080fd5b505afa158015610dba573d6000803e3d6000fd5b505050506040513d601f19601f82011682018060405250810190610dde9190613f5e565b80516101c35491925090610dfa906001600160a01b03166122c2565b6001600160a01b031663b5ada6d8826040518263ffffffff1660e01b8152600401610e259190614023565b60206040518083038186803b158015610e3d57600080fd5b505afa158015610e51573d6000803e3d6000fd5b505050506040513d601f19601f82011682018060405250810190610e759190613ea7565b610e915760405162461bcd60e51b81526004016104dd9061434a565b6040516331a9108f60e11b81526001600160a01b03841690636352211e90610ebd90879060040161405b565b60206040518083038186803b158015610ed557600080fd5b505afa158015610ee9573d6000803e3d6000fd5b505050506040513d601f19601f82011682018060405250810190610f0d9190613db9565b6001600160a01b0316336001600160a01b031614610f3d5760405162461bcd60e51b81526004016104dd906144f2565b6000819050806001600160a01b0316635c975abb6040518163ffffffff1660e01b815260040160206040518083038186803b158015610f7b57600080fd5b505afa158015610f8f573d6000803e3d6000fd5b505050506040513d601f19601f82011682018060405250810190610fb39190613ea7565b15610fd05760405162461bcd60e51b81526004016104dd906145b7565b6000829050806001600160a01b03166347195e136040518163ffffffff1660e01b815260040160206040518083038186803b15801561100e57600080fd5b505afa158015611022573d6000803e3d6000fd5b505050506040513d601f19601f820116820180604052508101906110469190613db9565b6001600160a01b03166381c17a156040518163ffffffff1660e01b815260040160206040518083038186803b15801561107e57600080fd5b505afa158015611092573d6000803e3d6000fd5b505050506040513d601f19601f820116820180604052508101906110b69190613ea7565b156110d35760405162461bcd60e51b81526004016104dd90614295565b6110dc846122cd565b156110f95760405162461bcd60e51b81526004016104dd90614788565b6000611104876112fb565b90506000611111886105da565b9050600061111f8383612a3b565b60008a81526101c8602052604090205490915061113c8185612a3b565b60008b81526101c86020526040902055821561115b5761115b8a612a60565b6101c3546111f790611175906001600160a01b0316612c9e565b6040516331a9108f60e11b81526001600160a01b038c1690636352211e906111a1908f9060040161405b565b60206040518083038186803b1580156111b957600080fd5b505afa1580156111cd573d6000803e3d6000fd5b505050506040513d601f19601f820116820180604052508101906111f19190613db9565b84612ca9565b89611200612688565b6001600160a01b03167ff282434f7158cb3a5501455a72b1946fe84ef5f1e84350beae1f3bf45ffc583e868660405161123a92919061481c565b60405180910390a3505060c9805460ff191660011790555050505050505050565b600082815260656020526040902060020154611279906103e8612688565b6112955760405162461bcd60e51b81526004016104dd90614146565b6105cf8282612ce5565b6101ca602052600090815260409020805460019091015482565b6112c1612688565b6001600160a01b0316816001600160a01b0316146112f15760405162461bcd60e51b81526004016104dd90614739565b6105cf8282612d4e565b6101c3546000908190611316906001600160a01b03166122c2565b9050611320613d02565b60405163463d31d760e11b81526001600160a01b03831690638c7a63ae9061134c90879060040161405b565b60a06040518083038186803b15801561136457600080fd5b505afa158015611378573d6000803e3d6000fd5b505050506040513d601f19601f8201168201806040525081019061139c9190613f5e565b90506113a7816122cd565b156113b757600092505050610864565b60008481526101c8602090815260408083206001015484516001600160a01b031684526101c99092528220546113ec916125af565b60008681526101c860205260408120549192509061141290670de0b6b3a764000061260c565b9050611441670de0b6b3a76400006108508361143b866114358960400151612db7565b9061260c565b906125af565b9695505050505050565b6114656000805160206148a78339815191526103e8612688565b6114815760405162461bcd60e51b81526004016104dd906142c7565b611489612dd2565b565b611493611b74565b6114af5760405162461bcd60e51b81526004016104dd906146ee565b6101c3546114c5906001600160a01b03166122c2565b6001600160a01b031663b5ada6d8856040518263ffffffff1660e01b81526004016114f09190614023565b60206040518083038186803b15801561150857600080fd5b505afa15801561151c573d6000803e3d6000fd5b505050506040513d601f19601f820116820180604052508101906115409190613ea7565b61155c5760405162461bcd60e51b81526004016104dd9061434a565b826115795760405162461bcd60e51b81526004016104dd90614633565b816115965760405162461bcd60e51b81526004016104dd90614633565b806115b35760405162461bcd60e51b81526004016104dd90614633565b6001600160a01b03841660009081526101ca602052604090206002810154600110156115f15760405162461bcd60e51b81526004016104dd9061456a565b60028101548282551515611603613d5b565b61160e868686612e3e565b9050811561166f57808360020160008154811061162757fe5b906000526020600020906005020160008201518160000155602082015181600101556040820151816002015560608201518160030155608082015181600401559050506116c0565b60028084018054600181810183556000928352602092839020855160059093020191825591840151918101919091556040830151918101919091556060820151600382015560808201516004909101555b50505050505050565b6101c8602052600090815260409020805460019091015482565b600054610100900460ff16806116fc57506116fc61210b565b8061170a575060005460ff16155b6117265760405162461bcd60e51b81526004016104dd906145e5565b600054610100900460ff16158015611751576000805460ff1961ff0019909116610100171660011790555b611759612192565b801561176b576000805461ff00191690555b50565b60975460ff1690565b6101cb6020526000908152604090205481565b6101c3546117a0906001600160a01b0316612e71565b6001600160a01b03166117b1612688565b6001600160a01b0316146117d75760405162461bcd60e51b81526004016104dd90614657565b6101c3546117ed906001600160a01b03166122c2565b6001600160a01b031663b5ada6d8836040518263ffffffff1660e01b81526004016118189190614023565b60206040518083038186803b15801561183057600080fd5b505afa158015611844573d6000803e3d6000fd5b505050506040513d601f19601f820116820180604052508101906118689190613ea7565b6118845760405162461bcd60e51b81526004016104dd9061434a565b60008181526101c86020526040902060010154156118a1576105cf565b6101c3546000906118ba906001600160a01b03166122c2565b90506118c4613d02565b60405163463d31d760e11b81526001600160a01b03831690638c7a63ae906118f090869060040161405b565b60a06040518083038186803b15801561190857600080fd5b505afa15801561191c573d6000803e3d6000fd5b505050506040513d601f19601f820116820180604052508101906119409190613f5e565b905080600001516001600160a01b0316846001600160a01b0316146119775760405162461bcd60e51b81526004016104dd906140f9565b516001600160a01b031660009081526101c960209081526040808320548584526101c890925290912060010155505050565b6101c3546001600160a01b031681565b6119d36000805160206148a78339815191526103e8612688565b6119ef5760405162461bcd60e51b81526004016104dd906142c7565b611489612ef1565b6101c65481565b6000828152606560205260408120611a169083612f4a565b90505b92915050565b6000828152606560205260408120611a169083612f56565b611a3f611b74565b611a5b5760405162461bcd60e51b81526004016104dd906146ee565b6101c48190556101c354600090611a7a906001600160a01b0316612c9e565b6001600160a01b03166318160ddd6040518163ffffffff1660e01b815260040160206040518083038186803b158015611ab257600080fd5b505afa158015611ac6573d6000803e3d6000fd5b505050506040513d601f19601f82011682018060405250810190611aea919061400b565b9050611b0760646114358361085086670de0b6b3a764000061260c565b6101c755611b13612688565b6001600160a01b03167fa75d65370da375e8498bef76d6c105c80386c2d14e939f1c680da7f9a411c609836101c754604051611b5092919061481c565b60405180910390a25050565b600081565b6101c96020526000908152604090205481565b6000611b906000805160206148878339815191526103e8612688565b905090565b600054610100900460ff1680611bae5750611bae61210b565b80611bbc575060005460ff16155b611bd85760405162461bcd60e51b81526004016104dd906145e5565b600054610100900460ff16158015611c03576000805460ff1961ff0019909116610100171660011790555b6001600160a01b03831615801590611c2357506001600160a01b03821615155b611c3f5760405162461bcd60e51b81526004016104dd906141c3565b611c488361049a565b6101c380546001600160a01b0319166001600160a01b0384161790558015611c76576000805461ff00191690555b505050565b6000818152606560205260408120611a1990612f6b565b6101c55481565b600082815260656020526040902060020154611cb7906103e8612688565b6112f15760405162461bcd60e51b81526004016104dd9061440c565b6101c354611ce9906001600160a01b03166122c2565b6001600160a01b031663b5ada6d8611cff612688565b6040518263ffffffff1660e01b8152600401611d1b9190614023565b60206040518083038186803b158015611d3357600080fd5b505afa158015611d47573d6000803e3d6000fd5b505050506040513d601f19601f82011682018060405250810190611d6b9190613ea7565b611d875760405162461bcd60e51b81526004016104dd9061434a565b60c95460ff16611da95760405162461bcd60e51b81526004016104dd906146b7565b60c9805460ff191690556000611dbd612688565b90506000611dc9612f76565b6001600160a01b03831660009081526101ca60205260409020909150611ded613d5b565b611df7848661306e565b90506000836001600160a01b031663389621866040518163ffffffff1660e01b815260040160206040518083038186803b158015611e3457600080fd5b505afa158015611e48573d6000803e3d6000fd5b505050506040513d601f19601f82011682018060405250810190611e6c919061400b565b90506000611f2984604051806060016040529081600082015481526020016001820154815260200160028201805480602002602001604051908101604052809291908181526020016000905b82821015611f1c57838290600052602060002090600502016040518060a00160405290816000820154815260200160018201548152602001600282015481526020016003820154815260200160048201548152505081526020019060010190611eb8565b5050505081525050613100565b1590508015611f3c57611f3c8483613106565b6000611f4887896123ed565b159050801561206f576101c354600090611f6a906001600160a01b0316613111565b90506000611f7786613129565b90506000826001600160a01b031663872697296040518163ffffffff1660e01b815260040160206040518083038186803b158015611fb457600080fd5b505afa158015611fc8573d6000803e3d6000fd5b505050506040513d601f19601f82011682018060405250810190611fec919061400b565b9050611ff6613d5b565b612001828489612e3e565b6001600160a01b038c1660009081526101ca602090815260408083206002908101805460018181018355918652948490208651600590960201948555928501519284019290925583015190820155606082015160038201556080909101516004909101555061207b92505050565b61207b87896000613168565b6120858584613106565b505060c9805460ff19166001179055505050505050565b60008051602061488783398151915281565b806120cb5760405162461bcd60e51b81526004016104dd90614486565b60005b81811015611c76576120f18383838181106120e557fe5b90506020020135610cf0565b6001016120ce565b6000805160206148a783398151915281565b303b1590565b600054610100900460ff168061212a575061212a61210b565b80612138575060005460ff16155b6121545760405162461bcd60e51b81526004016104dd906145e5565b600054610100900460ff16158015611759576000805460ff1961ff001990911661010017166001179055801561176b576000805461ff001916905550565b600054610100900460ff16806121ab57506121ab61210b565b806121b9575060005460ff16155b6121d55760405162461bcd60e51b81526004016104dd906145e5565b600054610100900460ff16158015612200576000805460ff1961ff0019909116610100171660011790555b6097805460ff19169055801561176b576000805461ff001916905550565b600054610100900460ff1680612237575061223761210b565b80612245575060005460ff16155b6122615760405162461bcd60e51b81526004016104dd906145e5565b600054610100900460ff1615801561228c576000805460ff1961ff0019909116610100171660011790555b60c9805460ff19166001179055801561176b576000805461ff001916905550565b60009182526065602052604090912060020155565b6000611a1982612e71565b60208101516000906122e09060026134e2565b60011492915050565b6000611a1960026108508460016125af565b6000612305613d3a565b6101ca6000846001600160a01b03166001600160a01b03168152602001908152602001600020604051806060016040529081600082015481526020016001820154815260200160028201805480602002602001604051908101604052809291908181526020016000905b828210156123d357838290600052602060002090600502016040518060a0016040529081600082015481526020016001820154815260200160028201548152602001600382015481526020016004820154815250508152602001906001019061236f565b505050508152505090506123e681613100565b9392505050565b60006123f7613d3a565b6101ca6000856001600160a01b03166001600160a01b03168152602001908152602001600020604051806060016040529081600082015481526020016001820154815260200160028201805480602002602001604051908101604052809291908181526020016000905b828210156124c557838290600052602060002090600502016040518060a00160405290816000820154815260200160018201548152602001600282015481526020016003820154815260200160048201548152505081526020019060010190612461565b50505050815250509050828160400151511180156124ff5750806040015183815181106124ee57fe5b602002602001015160800151600014155b949350505050565b80516000906125285760405162461bcd60e51b81526004016104dd90614371565b6060830151158061253d5783606001516124ff565b505051919050565b600081604001516000141561256c5760405162461bcd60e51b81526004016104dd9061420d565b82511580156125815750506040810151611a19565b6040830151845110156125a65760405162461bcd60e51b81526004016104dd90614680565b50508151611a19565b6000611a1683836040518060400160405280601e81526020017f536166654d6174683a207375627472616374696f6e206f766572666c6f77000081525061351f565b6000611a1682610850670de0b6b3a764000061143587612db7565b60008261261b57506000611a19565b8282028284828161262857fe5b0414611a165760405162461bcd60e51b81526004016104dd90614529565b6000611a1683836040518060400160405280601a81526020017f536166654d6174683a206469766973696f6e206279207a65726f00000000000081525061354b565b3390565b6101c6546101c55461269d82612db7565b106126a8575061176b565b60006126b2612688565b905060006126bf84613582565b6001600160a01b03831660008181526101c960209081526040808320815163dd0ec24160e01b815291519596508795909461275493909263dd0ec2419260048083019392829003018186803b15801561271757600080fd5b505afa15801561272b573d6000803e3d6000fd5b505050506040513d601f19601f8201168201806040525081019061274f919061400b565b612db7565b9050670de0b6b3a76400008110156127885760405160008051602061486783398151915290600090a150505050505061176b565b6127a96127a18261085087670de0b6b3a764000061260c565b835490612a3b565b82556127b58688612a3b565b6101c65550505050505050565b60006127cc612688565b90506000816001600160a01b03166347195e136040518163ffffffff1660e01b815260040160206040518083038186803b15801561280957600080fd5b505afa15801561281d573d6000803e3d6000fd5b505050506040513d601f19601f820116820180604052508101906128419190613db9565b9050600080826001600160a01b031663ce78290d6040518163ffffffff1660e01b815260040160206040518083038186803b15801561287f57600080fd5b505afa158015612893573d6000803e3d6000fd5b505050506040513d601f19601f820116820180604052508101906128b7919061400b565b118015612934575042826001600160a01b031663ce78290d6040518163ffffffff1660e01b815260040160206040518083038186803b1580156128f957600080fd5b505afa15801561290d573d6000803e3d6000fd5b505050506040513d601f19601f82011682018060405250810190612931919061400b565b11155b80156129ae5750816001600160a01b031663193501146040518163ffffffff1660e01b815260040160206040518083038186803b15801561297457600080fd5b505afa158015612988573d6000803e3d6000fd5b505050506040513d601f19601f820116820180604052508101906129ac919061400b565b155b8015612a285750816001600160a01b03166321856b366040518163ffffffff1660e01b815260040160206040518083038186803b1580156129ee57600080fd5b505afa158015612a02573d6000803e3d6000fd5b505050506040513d601f19601f82011682018060405250810190612a26919061400b565b155b90508015611c7657611c7683600161375e565b600082820183811015611a165760405162461bcd60e51b81526004016104dd90614313565b6101c354600090612a79906001600160a01b03166122c2565b9050612a83613d02565b60405163463d31d760e11b81526001600160a01b03831690638c7a63ae90612aaf90869060040161405b565b60a06040518083038186803b158015612ac757600080fd5b505afa158015612adb573d6000803e3d6000fd5b505050506040513d601f19601f82011682018060405250810190612aff9190613f5e565b9050612b0a816122cd565b15612b275760405162461bcd60e51b81526004016104dd90614788565b8051612b31613d3a565b6101ca6000836001600160a01b03166001600160a01b03168152602001908152602001600020604051806060016040529081600082015481526020016001820154815260200160028201805480602002602001604051908101604052809291908181526020016000905b82821015612bff57838290600052602060002090600502016040518060a00160405290816000820154815260200160018201548152602001600282015481526020016003820154815260200160048201548152505081526020019060010190612b9b565b505050508152505090506000612c1884602001516122e9565b9050612c22613d5b565b82604001518281518110612c3257fe5b602002602001015190506000612c488285612507565b60008981526101cb6020526040902054909150811015612c855760405160008051602061486783398151915290600090a15050505050505061176b565b60008881526101cb602052604090205550505050505050565b6000611a1982613856565b611c768383836040518060400160405280601881526020017704661696c656420746f207472616e736665722045524332360441b81525061386e565b6000828152606560205260409020612cfd9082613940565b156105cf57612d0a612688565b6001600160a01b0316816001600160a01b0316837f2f8788117e7eff1d82e926ec794901d17c78024a50270940304540a733656f0d60405160405180910390a45050565b6000828152606560205260409020612d669082613955565b156105cf57612d73612688565b6001600160a01b0316816001600160a01b0316837ff6391f5c32d9c69d2a47ea670b442974b53935d1edc7fd64eb21e047a839171b60405160405180910390a45050565b6000611a19620f424061085084670de0b6b3a764000061260c565b60975460ff16612df45760405162461bcd60e51b81526004016104dd90614195565b6097805460ff191690557f5db9ee0a495bf2e6ff9c91a7834c1ba4fdd244a5e8aa4e537bd38aeae4b073aa612e27612688565b604051612e349190614023565b60405180910390a1565b612e46613d5b565b506040805160a081018252938452602084019290925290820181905260608201819052608082015290565b60006001600160a01b03821663b93f9b0a600c5b6040518263ffffffff1660e01b8152600401612ea1919061405b565b60206040518083038186803b158015612eb957600080fd5b505afa158015612ecd573d6000803e3d6000fd5b505050506040513d601f19601f82011682018060405250810190611a199190613db9565b60975460ff1615612f145760405162461bcd60e51b81526004016104dd9061445c565b6097805460ff191660011790557f62e78cea01bee320cd4e420270b5ea74000d11b0c9f74754ebdbfc544b05a258612e27612688565b6000611a16838361396a565b6000611a16836001600160a01b0384166139af565b6000611a19826139c7565b6101c3546000908190612f91906001600160a01b03166139cb565b905042816001600160a01b031663c8f33c916040518163ffffffff1660e01b815260040160206040518083038186803b158015612fcd57600080fd5b505afa158015612fe1573d6000803e3d6000fd5b505050506040513d601f19601f82011682018060405250810190613005919061400b565b14611b905760405163ce0cf1a560e01b81526001600160a01b0382169063ce0cf1a5906130379060009060040161405b565b600060405180830381600087803b15801561305157600080fd5b505af1158015613065573d6000803e3d6000fd5b50505050905090565b613076613d5b565b6000613081836139e3565b60405163d972e8ad60e01b81529091506001600160a01b0385169063d972e8ad906130b090849060040161405b565b60a06040518083038186803b1580156130c857600080fd5b505afa1580156130dc573d6000803e3d6000fd5b505050506040513d601f19601f820116820180604052508101906124ff9190613fba565b51151590565b815542600190910155565b60006001600160a01b03821663b93f9b0a600e612e85565b6000611a1961315d613158670de0b6b3a764000061085061314d8760200151612db7565b60408801519061260c565b6139f5565b6020840151906125af565b6001600160a01b03831660009081526101ca602052604081206002810180549192918590811061319457fe5b9060005260206000209060050201905060006131ae612f76565b90506131b8613d5b565b6131c2878761306e565b90506000826001600160a01b031663389621866040518163ffffffff1660e01b815260040160206040518083038186803b1580156131ff57600080fd5b505afa158015613213573d6000803e3d6000fd5b505050506040513d601f19601f82011682018060405250810190613237919061400b565b85549091508110156132645760405160008051602061486783398151915290600090a15050505050611c76565b84546000906132749083906125af565b90506000896001600160a01b03166347195e136040518163ffffffff1660e01b815260040160206040518083038186803b1580156132b157600080fd5b505afa1580156132c5573d6000803e3d6000fd5b505050506040513d601f19601f820116820180604052508101906132e99190613db9565b6001600160a01b03166364fb2d956040518163ffffffff1660e01b815260040160206040518083038186803b15801561332157600080fd5b505afa158015613335573d6000803e3d6000fd5b505050506040513d601f19601f82011682018060405250810190613359919061400b565b42119050801561345657613453828860010154428d6001600160a01b03166347195e136040518163ffffffff1660e01b815260040160206040518083038186803b1580156133a657600080fd5b505afa1580156133ba573d6000803e3d6000fd5b505050506040513d601f19601f820116820180604052508101906133de9190613db9565b6001600160a01b03166364fb2d956040518163ffffffff1660e01b815260040160206040518083038186803b15801561341657600080fd5b505afa15801561342a573d6000803e3d6000fd5b505050506040513d601f19601f8201168201806040525081019061344e919061400b565b613a16565b91505b600061346185613129565b9050600061348a61274f8760200151610850620f42408c6001015461260c90919063ffffffff16565b905060006134a4670de0b6b3a7640000610850878561260c565b60048a01549091506134b69082612a3b565b60048a0155600189018390558a156134d357600489015460038a01555b50505050505050505050505050565b6000611a16838360405180604001604052806018815260200177536166654d6174683a206d6f64756c6f206279207a65726f60401b815250613a7d565b600081848411156135435760405162461bcd60e51b81526004016104dd9190614064565b505050900390565b6000818361356c5760405162461bcd60e51b81526004016104dd9190614064565b50600083858161357857fe5b0495945050505050565b6101c354600090819061359d906001600160a01b0316612c9e565b6001600160a01b03166318160ddd6040518163ffffffff1660e01b815260040160206040518083038186803b1580156135d557600080fd5b505afa1580156135e9573d6000803e3d6000fd5b505050506040513d601f19601f8201168201806040525081019061360d919061400b565b9050600061361a84612db7565b9050600061362a6101c654612db7565b9050600061363782613ab1565b9050600061365961274f61364a866139f5565b613653866139f5565b90612a3b565b90506101c55481111561366c57506101c5545b600061367b8361143b84613ab1565b9050600061368b6101c554613ab1565b9050600081116136ad5760405162461bcd60e51b81526004016104dd906143c1565b60006136de670de0b6b3a76400006108508a6114356064610850886108506101c7548c61260c90919063ffffffff16565b90506000613726670de0b6b3a76400006108508b6114356064610850896108506101c754611435613721670de0b6b3a7640000600161260c90919063ffffffff16565b613ab1565b9050613732818661260c565b82106137505760405162461bcd60e51b81526004016104dd906147bf565b509998505050505050505050565b6000613768612f76565b90506000816001600160a01b031663389621866040518163ffffffff1660e01b815260040160206040518083038186803b1580156137a557600080fd5b505afa1580156137b9573d6000803e3d6000fd5b505050506040513d601f19601f820116820180604052508101906137dd919061400b565b6001600160a01b03851660009081526101ca602052604090208054919250908210156138225760405160008051602061486783398151915290600090a15050506105cf565b60005b60028201548110156138445761383c868287613168565b600101613825565b5061384f8183613106565b5050505050565b60006001600160a01b03821663b93f9b0a6012612e85565b6001600160a01b0383166138945760405162461bcd60e51b81526004016104dd9061425e565b60405163a9059cbb60e01b81526000906001600160a01b0386169063a9059cbb906138c59087908790600401614037565b602060405180830381600087803b1580156138df57600080fd5b505af11580156138f3573d6000803e3d6000fd5b505050506040513d601f19601f820116820180604052508101906139179190613ea7565b905081816139385760405162461bcd60e51b81526004016104dd9190614064565b505050505050565b6000611a16836001600160a01b038416613bf2565b6000611a16836001600160a01b038416613c3c565b8154600090821061398d5760405162461bcd60e51b81526004016104dd906140b7565b82600001828154811061399c57fe5b9060005260206000200154905092915050565b60009081526001919091016020526040902054151590565b5490565b60006001600160a01b03821663b93f9b0a6015612e85565b6000611a196002611435846001612a3b565b6000611a19613a0f670de0b6b3a7640000620f4240612646565b8390612646565b600080613a2b86670de0b6b3a764000061260c565b90506000613a3985876125af565b90506000613a478383612646565b90506000613a5586896125af565b90506000613a6f670de0b6b3a7640000610850858561260c565b9a9950505050505050505050565b60008183613a9e5760405162461bcd60e51b81526004016104dd9190614064565b50828481613aa857fe5b06949350505050565b600081613ac057506000610864565b816001600160801b8210613ad95760809190911c9060401b5b600160401b8210613aef5760409190911c9060201b5b6401000000008210613b065760209190911c9060101b5b620100008210613b1b5760109190911c9060081b5b6101008210613b2f5760089190911c9060041b5b60108210613b425760049190911c9060021b5b60088210613b4e5760011b5b6001818581613b5957fe5b048201901c90506001818581613b6b57fe5b048201901c90506001818581613b7d57fe5b048201901c90506001818581613b8f57fe5b048201901c90506001818581613ba157fe5b048201901c90506001818581613bb357fe5b048201901c90506001818581613bc557fe5b048201901c90506000818581613bd757fe5b049050808210613be75780613be9565b815b95945050505050565b6000613bfe83836139af565b613c3457508154600181810184556000848152602080822090930184905584548482528286019093526040902091909155611a19565b506000611a19565b60008181526001830160205260408120548015613cf85783546000198083019190810190600090879083908110613c6f57fe5b9060005260206000200154905080876000018481548110613c8c57fe5b600091825260208083209091019290925582815260018981019092526040902090840190558654879080613cbc57fe5b60019003818190600052602060002001600090559055866001016000878152602001908152602001600020600090556001945050505050611a19565b6000915050611a19565b6040518060a0016040528060006001600160a01b03168152602001600081526020016000815260200160008152602001600081525090565b60405180606001604052806000815260200160008152602001606081525090565b6040518060a0016040528060008152602001600081526020016000815260200160008152602001600081525090565b6040518060200160405280600081525090565b600060208284031215613dae578081fd5b8135611a1681614851565b600060208284031215613dca578081fd5b8151611a1681614851565b60008060408385031215613de7578081fd5b8235613df281614851565b91506020830135613e0281614851565b809150509250929050565b60008060408385031215613e1f578182fd5b8235613e2a81614851565b946020939093013593505050565b60008060208385031215613e4a578182fd5b823567ffffffffffffffff80821115613e61578384fd5b818501915085601f830112613e74578384fd5b813581811115613e82578485fd5b8660208083028501011115613e95578485fd5b60209290920196919550909350505050565b600060208284031215613eb8578081fd5b81518015158114611a16578182fd5b600060208284031215613ed8578081fd5b5035919050565b60008060408385031215613ef1578182fd5b823591506020830135613e0281614851565b60008060408385031215613f15578182fd5b50508035926020909101359150565b60008060008060808587031215613f39578182fd5b8435613f4481614851565b966020860135965060408601359560600135945092505050565b600060a08284031215613f6f578081fd5b613f7960a061482a565b8251613f8481614851565b80825250602083015160208201526040830151604082015260608301516060820152608083015160808201528091505092915050565b600060a08284031215613fcb578081fd5b613fd560a061482a565b82518152602083015160208201526040830151604082015260608301516060820152608083015160808201528091505092915050565b60006020828403121561401c578081fd5b5051919050565b6001600160a01b0391909116815260200190565b6001600160a01b03929092168252602082015260400190565b901515815260200190565b90815260200190565b6000602080835283518082850152825b8181101561409057858101830151858201604001528201614074565b818111156140a15783604083870101525b50601f01601f1916929092016040019392505050565b60208082526022908201527f456e756d657261626c655365743a20696e646578206f7574206f6620626f756e604082015261647360f01b606082015260800190565b6020808252602d908201527f506f6f6c41646472657373206d75737420657175616c20506f6f6c546f6b656e60408201526c20706f6f6c206164647265737360981b606082015260800190565b6020808252602f908201527f416363657373436f6e74726f6c3a2073656e646572206d75737420626520616e60408201526e0818591b5a5b881d1bc819dc985b9d608a1b606082015260800190565b60208082526014908201527314185d5cd8589b194e881b9bdd081c185d5cd95960621b604082015260600190565b6020808252602a908201527f4f776e657220616e6420636f6e666967206164647265737365732063616e6e6f6040820152697420626520656d70747960b01b606082015260800190565b60208082526031908201527f756e736166653a20736c69636520616363756d756c61746f72206861736e2774604082015270081899595b881a5b9a5d1a585b1a5e9959607a1b606082015260800190565b6020808252601a908201527f43616e27742073656e6420746f207a65726f2061646472657373000000000000604082015260600190565b602080825260189082015277506f6f6c206973206c617465206f6e207061796d656e747360401b604082015260600190565b6020808252602c908201527f4d75737420686176652070617573657220726f6c6520746f20706572666f726d60408201526b103a3434b99030b1ba34b7b760a11b606082015260800190565b6020808252601b908201527f536166654d6174683a206164646974696f6e206f766572666c6f770000000000604082015260600190565b6020808252600d908201526c496e76616c696420706f6f6c2160981b604082015260600190565b60208082526030908201527f756e736166653a20706f6f6c20616363756d756c61746f72206861736e27742060408201526f1899595b881a5b9a5d1a585b1a5e995960821b606082015260800190565b6020808252602b908201527f6d6178496e746572657374446f6c6c617273456c696769626c65206d7573742060408201526a6e6f74206265207a65726f60a81b606082015260800190565b60208082526030908201527f416363657373436f6e74726f6c3a2073656e646572206d75737420626520616e60408201526f2061646d696e20746f207265766f6b6560801b606082015260800190565b60208082526010908201526f14185d5cd8589b194e881c185d5cd95960821b604082015260600190565b6020808252601e908201527f546f6b656e73496473206c656e677468206d757374206e6f7420626520300000604082015260600190565b6020808252818101527f4f776e65722063616e6e6f7420626520746865207a65726f2061646472657373604082015260600190565b6020808252601a908201527f4d757374206265206f776e6572206f6620506f6f6c546f6b656e000000000000604082015260600190565b60208082526021908201527f536166654d6174683a206d756c7469706c69636174696f6e206f766572666c6f6040820152607760f81b606082015260800190565b6020808252602d908201527f747279696e6720746f206f7665727772697465206d756c746920736c6963652060408201526c7265776172647320696e666f2160981b606082015260800190565b602080825260149082015273141bdbdb081dda5d1a191c985dc81c185d5cd95960621b604082015260600190565b6020808252602e908201527f436f6e747261637420696e7374616e63652068617320616c726561647920626560408201526d195b881a5b9a5d1a585b1a5e995960921b606082015260800190565b6020808252600a90820152690496e76616c69643a20360b41b604082015260600190565b6020808252600f908201526e496e76616c69642073656e6465722160881b604082015260600190565b6020808252601c908201527f556e657870656374656420746f6b656e20616363756d756c61746f7200000000604082015260600190565b6020808252601f908201527f5265656e7472616e637947756172643a207265656e7472616e742063616c6c00604082015260600190565b6020808252602b908201527f4d75737420686176652061646d696e20726f6c6520746f20706572666f726d2060408201526a3a3434b99030b1ba34b7b760a91b606082015260800190565b6020808252602f908201527f416363657373436f6e74726f6c3a2063616e206f6e6c792072656e6f756e636560408201526e103937b632b9903337b91039b2b63360891b606082015260800190565b6020808252601f908201527f496e656c696769626c652073656e696f72207472616e63686520746f6b656e00604082015260600190565b6020808252603d908201527f6e657747726f7373526577617264732063616e6e6f742062652067726561746560408201527f72207468656e20746865206d6178206766692070657220646f6c6c6172000000606082015260800190565b918252602082015260400190565b60405181810167ffffffffffffffff8111828210171561484957600080fd5b604052919050565b6001600160a01b038116811461176b57600080fdfe75a25907c86842cd8f301fe24ccf300b65e4b0f91b7fe55286a7d0ec33a2490eb19546dff01e856fb3f010c267a7b1c60363cf8a4664e21cc89c26224620214e65d7a28e3265b37a6474929f336521b332c1681b933f6cb9f3376673440d862aa26469706673582212206de78f5b69c5574ff5c0d76674a337088f9a853b7b35063d55f690017137a44364736f6c634300060c0033",
  "devdoc": {
    "kind": "dev",
    "methods": {
      "allocateRewards(uint256)": {
        "params": {
          "_interestPaymentAmount": "The amount of total dollars the interest payment, expects 10^6 value"
        }
      },
      "forceInitializeStakingRewardsPoolInfo(address,uint256,uint256,uint256)": {
        "details": "this is _only_ meant to be called on pools that didnt qualify for the backer rewards airdrop       but were deployed before this contract."
      },
      "getRoleAdmin(bytes32)": {
        "details": "Returns the admin role that controls `role`. See {grantRole} and {revokeRole}. To change a role's admin, use {_setRoleAdmin}."
      },
      "getRoleMember(bytes32,uint256)": {
        "details": "Returns one of the accounts that have `role`. `index` must be a value between 0 and {getRoleMemberCount}, non-inclusive. Role bearers are not sorted in any particular way, and their ordering may change at any point. WARNING: When using {getRoleMember} and {getRoleMemberCount}, make sure you perform all queries on the same block. See the following https://forum.openzeppelin.com/t/iterating-over-elements-on-enumerableset-in-openzeppelin-contracts/2296[forum post] for more information."
      },
      "getRoleMemberCount(bytes32)": {
        "details": "Returns the number of accounts that have `role`. Can be used together with {getRoleMember} to enumerate all bearers of a role."
      },
      "grantRole(bytes32,address)": {
        "details": "Grants `role` to `account`. If `account` had not been already granted `role`, emits a {RoleGranted} event. Requirements: - the caller must have ``role``'s admin role."
      },
      "hasRole(bytes32,address)": {
        "details": "Returns `true` if `account` has been granted `role`."
      },
      "onTranchedPoolDrawdown(uint256)": {
        "details": "initializes rewards info for the calling TranchedPool"
      },
      "pause()": {
        "details": "Pauses all functions guarded by Pause See {Pausable-_pause}. Requirements: - the caller must have the PAUSER_ROLE."
      },
      "paused()": {
        "details": "Returns true if the contract is paused, and false otherwise."
      },
      "poolTokenClaimableRewards(uint256)": {
        "params": {
          "tokenId": "Pool token id"
        },
        "returns": {
          "_0": "The amount of GFI claimable"
        }
      },
      "renounceRole(bytes32,address)": {
        "details": "Revokes `role` from the calling account. Roles are often managed via {grantRole} and {revokeRole}: this function's purpose is to provide a mechanism for accounts to lose their privileges if they are compromised (such as when a trusted device is misplaced). If the calling account had been granted `role`, emits a {RoleRevoked} event. Requirements: - the caller must be `account`."
      },
      "revokeRole(bytes32,address)": {
        "details": "Revokes `role` from `account`. If `account` had been granted `role`, emits a {RoleRevoked} event. Requirements: - the caller must have ``role``'s admin role."
      },
      "setMaxInterestDollarsEligible(uint256)": {
        "params": {
          "_maxInterestDollarsEligible": "The amount of interest dollars eligible for GFI rewards, expects 10^18 value"
        }
      },
      "setPoolTokenAccRewardsPerPrincipalDollarAtMint(address,uint256)": {
        "params": {
          "tokenId": "Pool token id"
        }
      },
      "setTotalInterestReceived(uint256)": {
        "params": {
          "_totalInterestReceived": "The amount of interest the protocol has received to date, expects 10^6 value"
        }
      },
      "setTotalRewards(uint256)": {
        "params": {
          "_totalRewards": "The amount of GFI rewards available, expects 10^18 value"
        }
      },
      "stakingRewardsClaimed(uint256)": {
        "params": {
          "tokenId": "Pool token id"
        },
        "returns": {
          "_0": "The amount of GFI claimed"
        }
      },
      "stakingRewardsEarnedSinceLastWithdraw(uint256)": {
        "params": {
          "tokenId": "token id to get rewards"
        },
        "returns": {
          "_0": "amount of rewards"
        }
      },
      "unpause()": {
        "details": "Unpauses the contract See {Pausable-_unpause}. Requirements: - the caller must have the Pauser role"
      },
      "withdraw(uint256)": {
        "params": {
          "tokenId": "Pool token id"
        }
      },
      "withdrawMultiple(uint256[])": {
        "params": {
          "tokenIds": "Array of pool token id"
        }
      }
    },
    "version": 1
  },
  "userdoc": {
    "events": {
      "SafetyCheckTriggered()": {
        "notice": "Emitted when a safety check fails"
      }
    },
    "kind": "user",
    "methods": {
      "allocateRewards(uint256)": {
        "notice": "Calculates the accRewardsPerPrincipalDollar for a given pool,          when a interest payment is received by the protocol"
      },
      "forceInitializeStakingRewardsPoolInfo(address,uint256,uint256,uint256)": {
        "notice": "intialize the first slice of a StakingRewardsPoolInfo"
      },
      "maxInterestDollarsEligible()": {
        "notice": "interest $ eligible for gfi rewards, times 1e18"
      },
      "onTranchedPoolDrawdown(uint256)": {
        "notice": "callback for TranchedPools when they drawdown"
      },
      "poolStakingRewards(address)": {
        "notice": "Staking rewards info for each pool"
      },
      "poolTokenClaimableRewards(uint256)": {
        "notice": "Calculate the gross available gfi rewards for a PoolToken"
      },
      "pools(address)": {
        "notice": "pool.address -> BackerRewardsInfo"
      },
      "setMaxInterestDollarsEligible(uint256)": {
        "notice": "Set the max dollars across the entire protocol that are eligible for GFI rewards"
      },
      "setPoolTokenAccRewardsPerPrincipalDollarAtMint(address,uint256)": {
        "notice": "When a pool token is minted for multiple drawdowns,  set accRewardsPerPrincipalDollarAtMint to the current accRewardsPerPrincipalDollar price"
      },
      "setTotalInterestReceived(uint256)": {
        "notice": "Set the total interest received to date. This should only be called once on contract deploy."
      },
      "setTotalRewards(uint256)": {
        "notice": "Set the total gfi rewards and the % of total GFI"
      },
      "stakingRewardsClaimed(uint256)": {
        "notice": "Calculates the amount of staking rewards already claimed for a PoolToken. This function is provided for the sake of external (e.g. frontend client) consumption; it is not necessary as an input to the mutative calculations in this contract."
      },
      "stakingRewardsEarnedSinceLastWithdraw(uint256)": {
        "notice": "Returns the amount of staking rewards earned by a given token since the last time its staking rewards were withdrawn."
      },
      "tokenStakingRewards(uint256)": {
        "notice": "Staking rewards info for each pool token"
      },
      "tokens(uint256)": {
        "notice": "poolTokenId -> BackerRewardsTokenInfo"
      },
      "totalInterestReceived()": {
        "notice": "counter of total interest repayments, times 1e6"
      },
      "totalRewardPercentOfTotalGFI()": {
        "notice": "totalRewards/totalGFISupply * 100, times 1e18"
      },
      "totalRewards()": {
        "notice": "total amount of GFI rewards available, times 1e18"
      },
      "withdraw(uint256)": {
        "notice": "PoolToken request to withdraw all allocated rewards"
      },
      "withdrawMultiple(uint256[])": {
        "notice": "PoolToken request to withdraw multiple PoolTokens allocated rewards"
      }
    },
    "version": 1
  },
  "storageLayout": {
    "storage": [
      {
        "astId": 151,
        "contract": "contracts/rewards/BackerRewards.sol:BackerRewards",
        "label": "initialized",
        "offset": 0,
        "slot": "0",
        "type": "t_bool"
      },
      {
        "astId": 154,
        "contract": "contracts/rewards/BackerRewards.sol:BackerRewards",
        "label": "initializing",
        "offset": 1,
        "slot": "0",
        "type": "t_bool"
      },
      {
        "astId": 219,
        "contract": "contracts/rewards/BackerRewards.sol:BackerRewards",
        "label": "______gap",
        "offset": 0,
        "slot": "1",
        "type": "t_array(t_uint256)50_storage"
      },
      {
        "astId": 144,
        "contract": "contracts/rewards/BackerRewards.sol:BackerRewards",
        "label": "__gap",
        "offset": 0,
        "slot": "51",
        "type": "t_array(t_uint256)50_storage"
      },
      {
        "astId": 264,
        "contract": "contracts/rewards/BackerRewards.sol:BackerRewards",
        "label": "_roles",
        "offset": 0,
        "slot": "101",
        "type": "t_mapping(t_bytes32,t_struct(RoleData)260_storage)"
      },
      {
        "astId": 509,
        "contract": "contracts/rewards/BackerRewards.sol:BackerRewards",
        "label": "__gap",
        "offset": 0,
        "slot": "102",
        "type": "t_array(t_uint256)49_storage"
      },
      {
        "astId": 4429,
        "contract": "contracts/rewards/BackerRewards.sol:BackerRewards",
        "label": "_paused",
        "offset": 0,
        "slot": "151",
        "type": "t_bool"
      },
      {
        "astId": 4518,
        "contract": "contracts/rewards/BackerRewards.sol:BackerRewards",
        "label": "__gap",
        "offset": 0,
        "slot": "152",
        "type": "t_array(t_uint256)49_storage"
      },
      {
        "astId": 4527,
        "contract": "contracts/rewards/BackerRewards.sol:BackerRewards",
        "label": "_notEntered",
        "offset": 0,
        "slot": "201",
        "type": "t_bool"
      },
      {
        "astId": 4568,
        "contract": "contracts/rewards/BackerRewards.sol:BackerRewards",
        "label": "__gap",
        "offset": 0,
        "slot": "202",
        "type": "t_array(t_uint256)49_storage"
      },
      {
        "astId": 12118,
        "contract": "contracts/rewards/BackerRewards.sol:BackerRewards",
        "label": "__gap1",
        "offset": 0,
        "slot": "251",
        "type": "t_array(t_uint256)50_storage"
      },
      {
        "astId": 12122,
        "contract": "contracts/rewards/BackerRewards.sol:BackerRewards",
        "label": "__gap2",
        "offset": 0,
        "slot": "301",
        "type": "t_array(t_uint256)50_storage"
      },
      {
        "astId": 12126,
        "contract": "contracts/rewards/BackerRewards.sol:BackerRewards",
        "label": "__gap3",
        "offset": 0,
        "slot": "351",
        "type": "t_array(t_uint256)50_storage"
      },
      {
        "astId": 12130,
        "contract": "contracts/rewards/BackerRewards.sol:BackerRewards",
        "label": "__gap4",
        "offset": 0,
        "slot": "401",
        "type": "t_array(t_uint256)50_storage"
      },
      {
        "astId": 29393,
        "contract": "contracts/rewards/BackerRewards.sol:BackerRewards",
        "label": "config",
        "offset": 0,
        "slot": "451",
        "type": "t_contract(GoldfinchConfig)17615"
      },
      {
        "astId": 29450,
        "contract": "contracts/rewards/BackerRewards.sol:BackerRewards",
        "label": "totalRewards",
        "offset": 0,
        "slot": "452",
        "type": "t_uint256"
      },
      {
        "astId": 29453,
        "contract": "contracts/rewards/BackerRewards.sol:BackerRewards",
        "label": "maxInterestDollarsEligible",
        "offset": 0,
        "slot": "453",
        "type": "t_uint256"
      },
      {
        "astId": 29456,
        "contract": "contracts/rewards/BackerRewards.sol:BackerRewards",
        "label": "totalInterestReceived",
        "offset": 0,
        "slot": "454",
        "type": "t_uint256"
      },
      {
        "astId": 29459,
        "contract": "contracts/rewards/BackerRewards.sol:BackerRewards",
        "label": "totalRewardPercentOfTotalGFI",
        "offset": 0,
        "slot": "455",
        "type": "t_uint256"
      },
      {
        "astId": 29464,
        "contract": "contracts/rewards/BackerRewards.sol:BackerRewards",
        "label": "tokens",
        "offset": 0,
        "slot": "456",
        "type": "t_mapping(t_uint256,t_struct(BackerRewardsTokenInfo)29425_storage)"
      },
      {
        "astId": 29469,
        "contract": "contracts/rewards/BackerRewards.sol:BackerRewards",
        "label": "pools",
        "offset": 0,
        "slot": "457",
        "type": "t_mapping(t_address,t_struct(BackerRewardsInfo)29420_storage)"
      },
      {
        "astId": 29474,
        "contract": "contracts/rewards/BackerRewards.sol:BackerRewards",
        "label": "poolStakingRewards",
        "offset": 0,
        "slot": "458",
        "type": "t_mapping(t_contract(ITranchedPool)10674,t_struct(StakingRewardsPoolInfo)29433_storage)"
      },
      {
        "astId": 29479,
        "contract": "contracts/rewards/BackerRewards.sol:BackerRewards",
        "label": "tokenStakingRewards",
        "offset": 0,
        "slot": "459",
        "type": "t_mapping(t_uint256,t_struct(StakingRewardsTokenInfo)29447_storage)"
      }
    ],
    "types": {
      "t_address": {
        "encoding": "inplace",
        "label": "address",
        "numberOfBytes": "20"
      },
      "t_array(t_bytes32)dyn_storage": {
        "base": "t_bytes32",
        "encoding": "dynamic_array",
        "label": "bytes32[]",
        "numberOfBytes": "32"
      },
      "t_array(t_struct(StakingRewardsSliceInfo)29444_storage)dyn_storage": {
        "base": "t_struct(StakingRewardsSliceInfo)29444_storage",
        "encoding": "dynamic_array",
        "label": "struct BackerRewards.StakingRewardsSliceInfo[]",
        "numberOfBytes": "32"
      },
      "t_array(t_uint256)49_storage": {
        "base": "t_uint256",
        "encoding": "inplace",
        "label": "uint256[49]",
        "numberOfBytes": "1568"
      },
      "t_array(t_uint256)50_storage": {
        "base": "t_uint256",
        "encoding": "inplace",
        "label": "uint256[50]",
        "numberOfBytes": "1600"
      },
      "t_bool": {
        "encoding": "inplace",
        "label": "bool",
        "numberOfBytes": "1"
      },
      "t_bytes32": {
        "encoding": "inplace",
        "label": "bytes32",
        "numberOfBytes": "32"
      },
      "t_contract(GoldfinchConfig)17615": {
        "encoding": "inplace",
        "label": "contract GoldfinchConfig",
        "numberOfBytes": "20"
      },
      "t_contract(ITranchedPool)10674": {
        "encoding": "inplace",
        "label": "contract ITranchedPool",
        "numberOfBytes": "20"
      },
      "t_mapping(t_address,t_struct(BackerRewardsInfo)29420_storage)": {
        "encoding": "mapping",
        "key": "t_address",
        "label": "mapping(address => struct BackerRewards.BackerRewardsInfo)",
        "numberOfBytes": "32",
        "value": "t_struct(BackerRewardsInfo)29420_storage"
      },
      "t_mapping(t_bytes32,t_struct(RoleData)260_storage)": {
        "encoding": "mapping",
        "key": "t_bytes32",
        "label": "mapping(bytes32 => struct AccessControlUpgradeSafe.RoleData)",
        "numberOfBytes": "32",
        "value": "t_struct(RoleData)260_storage"
      },
      "t_mapping(t_bytes32,t_uint256)": {
        "encoding": "mapping",
        "key": "t_bytes32",
        "label": "mapping(bytes32 => uint256)",
        "numberOfBytes": "32",
        "value": "t_uint256"
      },
      "t_mapping(t_contract(ITranchedPool)10674,t_struct(StakingRewardsPoolInfo)29433_storage)": {
        "encoding": "mapping",
        "key": "t_contract(ITranchedPool)10674",
        "label": "mapping(contract ITranchedPool => struct BackerRewards.StakingRewardsPoolInfo)",
        "numberOfBytes": "32",
        "value": "t_struct(StakingRewardsPoolInfo)29433_storage"
      },
      "t_mapping(t_uint256,t_struct(BackerRewardsTokenInfo)29425_storage)": {
        "encoding": "mapping",
        "key": "t_uint256",
        "label": "mapping(uint256 => struct BackerRewards.BackerRewardsTokenInfo)",
        "numberOfBytes": "32",
        "value": "t_struct(BackerRewardsTokenInfo)29425_storage"
      },
      "t_mapping(t_uint256,t_struct(StakingRewardsTokenInfo)29447_storage)": {
        "encoding": "mapping",
        "key": "t_uint256",
        "label": "mapping(uint256 => struct BackerRewards.StakingRewardsTokenInfo)",
        "numberOfBytes": "32",
        "value": "t_struct(StakingRewardsTokenInfo)29447_storage"
      },
      "t_struct(AddressSet)4204_storage": {
        "encoding": "inplace",
        "label": "struct EnumerableSet.AddressSet",
        "members": [
          {
            "astId": 4203,
            "contract": "contracts/rewards/BackerRewards.sol:BackerRewards",
            "label": "_inner",
            "offset": 0,
            "slot": "0",
            "type": "t_struct(Set)4024_storage"
          }
        ],
        "numberOfBytes": "64"
      },
      "t_struct(BackerRewardsInfo)29420_storage": {
        "encoding": "inplace",
        "label": "struct BackerRewards.BackerRewardsInfo",
        "members": [
          {
            "astId": 29419,
            "contract": "contracts/rewards/BackerRewards.sol:BackerRewards",
            "label": "accRewardsPerPrincipalDollar",
            "offset": 0,
            "slot": "0",
            "type": "t_uint256"
          }
        ],
        "numberOfBytes": "32"
      },
      "t_struct(BackerRewardsTokenInfo)29425_storage": {
        "encoding": "inplace",
        "label": "struct BackerRewards.BackerRewardsTokenInfo",
        "members": [
          {
            "astId": 29422,
            "contract": "contracts/rewards/BackerRewards.sol:BackerRewards",
            "label": "rewardsClaimed",
            "offset": 0,
            "slot": "0",
            "type": "t_uint256"
          },
          {
            "astId": 29424,
            "contract": "contracts/rewards/BackerRewards.sol:BackerRewards",
            "label": "accRewardsPerPrincipalDollarAtMint",
            "offset": 0,
            "slot": "1",
            "type": "t_uint256"
          }
        ],
        "numberOfBytes": "64"
      },
      "t_struct(RoleData)260_storage": {
        "encoding": "inplace",
        "label": "struct AccessControlUpgradeSafe.RoleData",
        "members": [
          {
            "astId": 257,
            "contract": "contracts/rewards/BackerRewards.sol:BackerRewards",
            "label": "members",
            "offset": 0,
            "slot": "0",
            "type": "t_struct(AddressSet)4204_storage"
          },
          {
            "astId": 259,
            "contract": "contracts/rewards/BackerRewards.sol:BackerRewards",
            "label": "adminRole",
            "offset": 0,
            "slot": "2",
            "type": "t_bytes32"
          }
        ],
        "numberOfBytes": "96"
      },
      "t_struct(Set)4024_storage": {
        "encoding": "inplace",
        "label": "struct EnumerableSet.Set",
        "members": [
          {
            "astId": 4019,
            "contract": "contracts/rewards/BackerRewards.sol:BackerRewards",
            "label": "_values",
            "offset": 0,
            "slot": "0",
            "type": "t_array(t_bytes32)dyn_storage"
          },
          {
            "astId": 4023,
            "contract": "contracts/rewards/BackerRewards.sol:BackerRewards",
            "label": "_indexes",
            "offset": 0,
            "slot": "1",
            "type": "t_mapping(t_bytes32,t_uint256)"
          }
        ],
        "numberOfBytes": "64"
      },
      "t_struct(StakingRewardsPoolInfo)29433_storage": {
        "encoding": "inplace",
        "label": "struct BackerRewards.StakingRewardsPoolInfo",
        "members": [
          {
            "astId": 29427,
            "contract": "contracts/rewards/BackerRewards.sol:BackerRewards",
            "label": "accumulatedRewardsPerTokenAtLastCheckpoint",
            "offset": 0,
            "slot": "0",
            "type": "t_uint256"
          },
          {
            "astId": 29429,
            "contract": "contracts/rewards/BackerRewards.sol:BackerRewards",
            "label": "lastUpdateTime",
            "offset": 0,
            "slot": "1",
            "type": "t_uint256"
          },
          {
            "astId": 29432,
            "contract": "contracts/rewards/BackerRewards.sol:BackerRewards",
            "label": "slicesInfo",
            "offset": 0,
            "slot": "2",
            "type": "t_array(t_struct(StakingRewardsSliceInfo)29444_storage)dyn_storage"
          }
        ],
        "numberOfBytes": "96"
      },
      "t_struct(StakingRewardsSliceInfo)29444_storage": {
        "encoding": "inplace",
        "label": "struct BackerRewards.StakingRewardsSliceInfo",
        "members": [
          {
            "astId": 29435,
            "contract": "contracts/rewards/BackerRewards.sol:BackerRewards",
            "label": "fiduSharePriceAtDrawdown",
            "offset": 0,
            "slot": "0",
            "type": "t_uint256"
          },
          {
            "astId": 29437,
            "contract": "contracts/rewards/BackerRewards.sol:BackerRewards",
            "label": "principalDeployedAtLastCheckpoint",
            "offset": 0,
            "slot": "1",
            "type": "t_uint256"
          },
          {
            "astId": 29439,
            "contract": "contracts/rewards/BackerRewards.sol:BackerRewards",
            "label": "accumulatedRewardsPerTokenAtDrawdown",
            "offset": 0,
            "slot": "2",
            "type": "t_uint256"
          },
          {
            "astId": 29441,
            "contract": "contracts/rewards/BackerRewards.sol:BackerRewards",
            "label": "accumulatedRewardsPerTokenAtLastCheckpoint",
            "offset": 0,
            "slot": "3",
            "type": "t_uint256"
          },
          {
            "astId": 29443,
            "contract": "contracts/rewards/BackerRewards.sol:BackerRewards",
            "label": "unrealizedAccumulatedRewardsPerTokenAtLastCheckpoint",
            "offset": 0,
            "slot": "4",
            "type": "t_uint256"
          }
        ],
        "numberOfBytes": "160"
      },
      "t_struct(StakingRewardsTokenInfo)29447_storage": {
        "encoding": "inplace",
        "label": "struct BackerRewards.StakingRewardsTokenInfo",
        "members": [
          {
            "astId": 29446,
            "contract": "contracts/rewards/BackerRewards.sol:BackerRewards",
            "label": "accumulatedRewardsPerTokenAtLastWithdraw",
            "offset": 0,
            "slot": "0",
            "type": "t_uint256"
          }
        ],
        "numberOfBytes": "32"
      },
      "t_uint256": {
        "encoding": "inplace",
        "label": "uint256",
        "numberOfBytes": "32"
      }
    }
  }
}