{
  "address": "0x3fbDe2379D1a8A26eF587E48438A51764D315b4A",
  "abi": [
    {
      "anonymous": false,
      "inputs": [
        {
          "indexed": true,
          "internalType": "address",
          "name": "who",
          "type": "address"
        },
        {
          "indexed": false,
          "internalType": "address",
          "name": "configAddress",
          "type": "address"
        }
      ],
      "name": "GoldfinchConfigUpdated",
      "type": "event"
    },
    {
      "anonymous": false,
      "inputs": [
        {
          "indexed": false,
          "internalType": "address",
          "name": "account",
          "type": "address"
        }
      ],
      "name": "Paused",
      "type": "event"
    },
    {
      "anonymous": false,
      "inputs": [
        {
          "indexed": true,
          "internalType": "bytes32",
          "name": "role",
          "type": "bytes32"
        },
        {
          "indexed": true,
          "internalType": "address",
          "name": "account",
          "type": "address"
        },
        {
          "indexed": true,
          "internalType": "address",
          "name": "sender",
          "type": "address"
        }
      ],
      "name": "RoleGranted",
      "type": "event"
    },
    {
      "anonymous": false,
      "inputs": [
        {
          "indexed": true,
          "internalType": "bytes32",
          "name": "role",
          "type": "bytes32"
        },
        {
          "indexed": true,
          "internalType": "address",
          "name": "account",
          "type": "address"
        },
        {
          "indexed": true,
          "internalType": "address",
          "name": "sender",
          "type": "address"
        }
      ],
      "name": "RoleRevoked",
      "type": "event"
    },
    {
      "anonymous": false,
      "inputs": [
        {
          "indexed": false,
          "internalType": "address",
          "name": "account",
          "type": "address"
        }
      ],
      "name": "Unpaused",
      "type": "event"
    },
    {
      "inputs": [],
      "name": "DEFAULT_ADMIN_ROLE",
      "outputs": [
        {
          "internalType": "bytes32",
          "name": "",
          "type": "bytes32"
        }
      ],
      "stateMutability": "view",
      "type": "function"
    },
    {
      "inputs": [],
      "name": "OWNER_ROLE",
      "outputs": [
        {
          "internalType": "bytes32",
          "name": "",
          "type": "bytes32"
        }
      ],
      "stateMutability": "view",
      "type": "function"
    },
    {
      "inputs": [],
      "name": "PAUSER_ROLE",
      "outputs": [
        {
          "internalType": "bytes32",
          "name": "",
          "type": "bytes32"
        }
      ],
      "stateMutability": "view",
      "type": "function"
    },
    {
      "inputs": [],
      "name": "SECONDS_PER_DAY",
      "outputs": [
        {
          "internalType": "uint256",
          "name": "",
          "type": "uint256"
        }
      ],
      "stateMutability": "view",
      "type": "function"
    },
    {
      "inputs": [
        {
          "internalType": "address",
          "name": "owner",
          "type": "address"
        }
      ],
      "name": "__BaseUpgradeablePausable__init",
      "outputs": [],
      "stateMutability": "nonpayable",
      "type": "function"
    },
    {
      "inputs": [],
      "name": "__PauserPausable__init",
      "outputs": [],
      "stateMutability": "nonpayable",
      "type": "function"
    },
    {
      "inputs": [],
      "name": "assess",
      "outputs": [
        {
          "internalType": "uint256",
          "name": "",
          "type": "uint256"
        },
        {
          "internalType": "uint256",
          "name": "",
          "type": "uint256"
        },
        {
          "internalType": "uint256",
          "name": "",
          "type": "uint256"
        }
      ],
      "stateMutability": "nonpayable",
      "type": "function"
    },
    {
      "inputs": [],
      "name": "balance",
      "outputs": [
        {
          "internalType": "uint256",
          "name": "",
          "type": "uint256"
        }
      ],
      "stateMutability": "view",
      "type": "function"
    },
    {
      "inputs": [],
      "name": "borrower",
      "outputs": [
        {
          "internalType": "address",
          "name": "",
          "type": "address"
        }
      ],
      "stateMutability": "view",
      "type": "function"
    },
    {
      "inputs": [],
      "name": "config",
      "outputs": [
        {
          "internalType": "contract GoldfinchConfig",
          "name": "",
          "type": "address"
        }
      ],
      "stateMutability": "view",
      "type": "function"
    },
    {
      "inputs": [],
      "name": "currentLimit",
      "outputs": [
        {
          "internalType": "uint256",
          "name": "",
          "type": "uint256"
        }
      ],
      "stateMutability": "view",
      "type": "function"
    },
    {
      "inputs": [
        {
          "internalType": "uint256",
          "name": "amount",
          "type": "uint256"
        }
      ],
      "name": "drawdown",
      "outputs": [],
      "stateMutability": "nonpayable",
      "type": "function"
    },
    {
      "inputs": [
        {
          "internalType": "bytes32",
          "name": "role",
          "type": "bytes32"
        }
      ],
      "name": "getRoleAdmin",
      "outputs": [
        {
          "internalType": "bytes32",
          "name": "",
          "type": "bytes32"
        }
      ],
      "stateMutability": "view",
      "type": "function"
    },
    {
      "inputs": [
        {
          "internalType": "bytes32",
          "name": "role",
          "type": "bytes32"
        },
        {
          "internalType": "uint256",
          "name": "index",
          "type": "uint256"
        }
      ],
      "name": "getRoleMember",
      "outputs": [
        {
          "internalType": "address",
          "name": "",
          "type": "address"
        }
      ],
      "stateMutability": "view",
      "type": "function"
    },
    {
      "inputs": [
        {
          "internalType": "bytes32",
          "name": "role",
          "type": "bytes32"
        }
      ],
      "name": "getRoleMemberCount",
      "outputs": [
        {
          "internalType": "uint256",
          "name": "",
          "type": "uint256"
        }
      ],
      "stateMutability": "view",
      "type": "function"
    },
    {
      "inputs": [
        {
          "internalType": "bytes32",
          "name": "role",
          "type": "bytes32"
        },
        {
          "internalType": "address",
          "name": "account",
          "type": "address"
        }
      ],
      "name": "grantRole",
      "outputs": [],
      "stateMutability": "nonpayable",
      "type": "function"
    },
    {
      "inputs": [
        {
          "internalType": "bytes32",
          "name": "role",
          "type": "bytes32"
        },
        {
          "internalType": "address",
          "name": "account",
          "type": "address"
        }
      ],
      "name": "hasRole",
      "outputs": [
        {
          "internalType": "bool",
          "name": "",
          "type": "bool"
        }
      ],
      "stateMutability": "view",
      "type": "function"
    },
    {
      "inputs": [
        {
          "internalType": "address",
          "name": "_config",
          "type": "address"
        },
        {
          "internalType": "address",
          "name": "owner",
          "type": "address"
        },
        {
          "internalType": "address",
          "name": "_borrower",
          "type": "address"
        },
        {
          "internalType": "uint256",
          "name": "_maxLimit",
          "type": "uint256"
        },
        {
          "internalType": "uint256",
          "name": "_interestApr",
          "type": "uint256"
        },
        {
          "internalType": "uint256",
          "name": "_paymentPeriodInDays",
          "type": "uint256"
        },
        {
          "internalType": "uint256",
          "name": "_termInDays",
          "type": "uint256"
        },
        {
          "internalType": "uint256",
          "name": "_lateFeeApr",
          "type": "uint256"
        },
        {
          "internalType": "uint256",
          "name": "_principalGracePeriodInDays",
          "type": "uint256"
        }
      ],
      "name": "initialize",
      "outputs": [],
      "stateMutability": "nonpayable",
      "type": "function"
    },
    {
      "inputs": [],
      "name": "interestAccruedAsOf",
      "outputs": [
        {
          "internalType": "uint256",
          "name": "",
          "type": "uint256"
        }
      ],
      "stateMutability": "view",
      "type": "function"
    },
    {
      "inputs": [],
      "name": "interestApr",
      "outputs": [
        {
          "internalType": "uint256",
          "name": "",
          "type": "uint256"
        }
      ],
      "stateMutability": "view",
      "type": "function"
    },
    {
      "inputs": [],
      "name": "interestOwed",
      "outputs": [
        {
          "internalType": "uint256",
          "name": "",
          "type": "uint256"
        }
      ],
      "stateMutability": "view",
      "type": "function"
    },
    {
      "inputs": [],
      "name": "isAdmin",
      "outputs": [
        {
          "internalType": "bool",
          "name": "",
          "type": "bool"
        }
      ],
      "stateMutability": "view",
      "type": "function"
    },
    {
      "inputs": [],
      "name": "isLate",
      "outputs": [
        {
          "internalType": "bool",
          "name": "",
          "type": "bool"
        }
      ],
      "stateMutability": "view",
      "type": "function"
    },
    {
      "inputs": [],
      "name": "lastFullPaymentTime",
      "outputs": [
        {
          "internalType": "uint256",
          "name": "",
          "type": "uint256"
        }
      ],
      "stateMutability": "view",
      "type": "function"
    },
    {
      "inputs": [],
      "name": "lateFeeApr",
      "outputs": [
        {
          "internalType": "uint256",
          "name": "",
          "type": "uint256"
        }
      ],
      "stateMutability": "view",
      "type": "function"
    },
    {
      "inputs": [],
      "name": "limit",
      "outputs": [
        {
          "internalType": "uint256",
          "name": "",
          "type": "uint256"
        }
      ],
      "stateMutability": "view",
      "type": "function"
    },
    {
      "inputs": [],
      "name": "maxLimit",
      "outputs": [
        {
          "internalType": "uint256",
          "name": "",
          "type": "uint256"
        }
      ],
      "stateMutability": "view",
      "type": "function"
    },
    {
      "inputs": [],
      "name": "nextDueTime",
      "outputs": [
        {
          "internalType": "uint256",
          "name": "",
          "type": "uint256"
        }
      ],
      "stateMutability": "view",
      "type": "function"
    },
    {
      "inputs": [],
      "name": "pause",
      "outputs": [],
      "stateMutability": "nonpayable",
      "type": "function"
    },
    {
      "inputs": [],
      "name": "paused",
      "outputs": [
        {
          "internalType": "bool",
          "name": "",
          "type": "bool"
        }
      ],
      "stateMutability": "view",
      "type": "function"
    },
    {
      "inputs": [],
      "name": "paymentPeriodInDays",
      "outputs": [
        {
          "internalType": "uint256",
          "name": "",
          "type": "uint256"
        }
      ],
      "stateMutability": "view",
      "type": "function"
    },
    {
      "inputs": [],
      "name": "principalGracePeriodInDays",
      "outputs": [
        {
          "internalType": "uint256",
          "name": "",
          "type": "uint256"
        }
      ],
      "stateMutability": "view",
      "type": "function"
    },
    {
      "inputs": [],
      "name": "principalOwed",
      "outputs": [
        {
          "internalType": "uint256",
          "name": "",
          "type": "uint256"
        }
      ],
      "stateMutability": "view",
      "type": "function"
    },
    {
      "inputs": [
        {
          "internalType": "bytes32",
          "name": "role",
          "type": "bytes32"
        },
        {
          "internalType": "address",
          "name": "account",
          "type": "address"
        }
      ],
      "name": "renounceRole",
      "outputs": [],
      "stateMutability": "nonpayable",
      "type": "function"
    },
    {
      "inputs": [
        {
          "internalType": "bytes32",
          "name": "role",
          "type": "bytes32"
        },
        {
          "internalType": "address",
          "name": "account",
          "type": "address"
        }
      ],
      "name": "revokeRole",
      "outputs": [],
      "stateMutability": "nonpayable",
      "type": "function"
    },
    {
      "inputs": [
        {
          "internalType": "uint256",
          "name": "newBalance",
          "type": "uint256"
        }
      ],
      "name": "setBalance",
      "outputs": [],
      "stateMutability": "nonpayable",
      "type": "function"
    },
    {
      "inputs": [
        {
          "internalType": "uint256",
          "name": "newInterestAccruedAsOf",
          "type": "uint256"
        }
      ],
      "name": "setInterestAccruedAsOf",
      "outputs": [],
      "stateMutability": "nonpayable",
      "type": "function"
    },
    {
      "inputs": [
        {
          "internalType": "uint256",
          "name": "newInterestOwed",
          "type": "uint256"
        }
      ],
      "name": "setInterestOwed",
      "outputs": [],
      "stateMutability": "nonpayable",
      "type": "function"
    },
    {
      "inputs": [
        {
          "internalType": "uint256",
          "name": "newLastFullPaymentTime",
          "type": "uint256"
        }
      ],
      "name": "setLastFullPaymentTime",
      "outputs": [],
      "stateMutability": "nonpayable",
      "type": "function"
    },
    {
      "inputs": [
        {
          "internalType": "uint256",
          "name": "newLateFeeApr",
          "type": "uint256"
        }
      ],
      "name": "setLateFeeApr",
      "outputs": [],
      "stateMutability": "nonpayable",
      "type": "function"
    },
    {
      "inputs": [
        {
          "internalType": "uint256",
          "name": "newAmount",
          "type": "uint256"
        }
      ],
      "name": "setLimit",
      "outputs": [],
      "stateMutability": "nonpayable",
      "type": "function"
    },
    {
      "inputs": [
        {
          "internalType": "uint256",
          "name": "newAmount",
          "type": "uint256"
        }
      ],
      "name": "setMaxLimit",
      "outputs": [],
      "stateMutability": "nonpayable",
      "type": "function"
    },
    {
      "inputs": [
        {
          "internalType": "uint256",
          "name": "newNextDueTime",
          "type": "uint256"
        }
      ],
      "name": "setNextDueTime",
      "outputs": [],
      "stateMutability": "nonpayable",
      "type": "function"
    },
    {
      "inputs": [
        {
          "internalType": "uint256",
          "name": "newPrincipalOwed",
          "type": "uint256"
        }
      ],
      "name": "setPrincipalOwed",
      "outputs": [],
      "stateMutability": "nonpayable",
      "type": "function"
    },
    {
      "inputs": [
        {
          "internalType": "uint256",
          "name": "newTermEndTime",
          "type": "uint256"
        }
      ],
      "name": "setTermEndTime",
      "outputs": [],
      "stateMutability": "nonpayable",
      "type": "function"
    },
    {
      "inputs": [
        {
          "internalType": "uint256",
          "name": "_totalInterestAccrued",
          "type": "uint256"
        }
      ],
      "name": "setTotalInterestAccrued",
      "outputs": [],
      "stateMutability": "nonpayable",
      "type": "function"
    },
    {
      "inputs": [],
      "name": "termEndTime",
      "outputs": [
        {
          "internalType": "uint256",
          "name": "",
          "type": "uint256"
        }
      ],
      "stateMutability": "view",
      "type": "function"
    },
    {
      "inputs": [],
      "name": "termInDays",
      "outputs": [
        {
          "internalType": "uint256",
          "name": "",
          "type": "uint256"
        }
      ],
      "stateMutability": "view",
      "type": "function"
    },
    {
      "inputs": [],
      "name": "termStartTime",
      "outputs": [
        {
          "internalType": "uint256",
          "name": "",
          "type": "uint256"
        }
      ],
      "stateMutability": "view",
      "type": "function"
    },
    {
      "inputs": [],
      "name": "totalInterestAccrued",
      "outputs": [
        {
          "internalType": "uint256",
          "name": "",
          "type": "uint256"
        }
      ],
      "stateMutability": "view",
      "type": "function"
    },
    {
      "inputs": [],
      "name": "unpause",
      "outputs": [],
      "stateMutability": "nonpayable",
      "type": "function"
    },
    {
      "inputs": [],
      "name": "updateGoldfinchConfig",
      "outputs": [],
      "stateMutability": "nonpayable",
      "type": "function"
    },
    {
      "inputs": [],
      "name": "withinPrincipalGracePeriod",
      "outputs": [
        {
          "internalType": "bool",
          "name": "",
          "type": "bool"
        }
      ],
      "stateMutability": "view",
      "type": "function"
    }
  ],
  "transactionHash": "0xb1371088b3a1d24eb0a91ab045f8a2d2b0e3648a48770700b69293dcb9594268",
  "args": [],
  "solcInputHash": "a67c4f293a964d2cac7bbf8c9f65d46c",
  "bytecode": "0x608060405234801561001057600080fd5b50612631806100206000396000f3fe608060405234801561001057600080fd5b50600436106102d75760003560e01c80638456cb5911610188578063b6db75a0116100e4578063d284597711610092578063d28459771461055e578063d547741f14610566578063e58378bb14610579578063e63ab1e914610581578063eabd0ce114610589578063f0b25bde14610591578063fb1669ca14610599576102d7565b8063b6db75a0146104fa578063bb4a250914610502578063bbafcb4014610515578063bf8bcee41461051d578063ca15c87314610530578063ce78290d14610543578063cf1787e61461054b576102d7565b8063a217fddf11610141578063a217fddf1461049d578063a4d66daf146104a5578063a6a25e88146104ad578063a6b1ae0d146104c4578063b3969992146104d7578063b3b8a9c7146104df578063b69ef8a8146104f2576102d7565b80638456cb59146104415780639010d07c1461044957806391d148541461045c57806396c8df371461046f57806399dd8df314610482578063a079a4dd1461048a576102d7565b80633f4ba83a11610237578063645d6225116101f0578063645d6225146103f157806364fb2d95146103f957806374f0314f1461040157806379502c55146104095780637ae14b091461041e5780637df1f1b91461043157806381c17a1514610439576102d7565b80633f4ba83a146103b4578063457147a7146103bc57806348e6f296146103d15780634f92a728146103d9578063526d81f6146103e15780635c975abb146103e9576102d7565b806321856b361161029457806321856b361461033a578063248a9ca31461034257806326a40e821461035557806327ea6f2b146103685780632f2ff15d1461037b57806336568abe1461038e57806336d91494146103a1576102d7565b8063033669cf146102dc578063097616a3146102f15780630e347f891461030457806319350114146103225780631a861d261461032a5780631cd724ac14610332575b600080fd5b6102ef6102ea366004611e86565b6105ac565b005b6102ef6102ff366004611dae565b6105df565b61030c61070f565b6040516103199190611fb8565b60405180910390f35b61030c610716565b61030c61071d565b61030c610724565b61030c61072b565b61030c610350366004611e86565b610732565b6102ef610363366004611e86565b610747565b6102ef610376366004611e86565b610771565b6102ef610389366004611e9e565b6107be565b6102ef61039c366004611e9e565b610802565b6102ef6103af366004611e86565b610844565b6102ef61086e565b6103c46108ae565b6040516103199190611fad565b61030c6108ef565b6102ef6108f6565b6102ef61098c565b6103c4610a17565b61030c610a20565b61030c610a2f565b61030c610a36565b610411610a3d565b6040516103199190611f80565b6102ef61042c366004611e86565b610a4d565b610411610a77565b6103c4610a87565b6102ef610a92565b610411610457366004611ecd565b610ad0565b6103c461046a366004611e9e565b610af1565b6102ef61047d366004611e86565b610b09565b61030c610b33565b6102ef610498366004611e86565b610b3a565b61030c610c65565b61030c610c6a565b6104b5610c71565b60405161031993929190612575565b6102ef6104d2366004611e86565b610d5d565b61030c610d87565b6102ef6104ed366004611e86565b610d8e565b61030c610db8565b6103c4610dbf565b6102ef610510366004611de6565b610ddb565b61030c610fc9565b6102ef61052b366004611e86565b610fd0565b61030c61053e366004611e86565b610ffa565b61030c611011565b6102ef610559366004611e86565b611018565b61030c611042565b6102ef610574366004611e9e565b611049565b61030c611083565b61030c611095565b61030c6110a7565b61030c6110ae565b6102ef6105a7366004611e86565b6110b5565b6105b4610dbf565b6105d95760405162461bcd60e51b81526004016105d0906124db565b60405180910390fd5b6101d255565b600054610100900460ff16806105f857506105f86110df565b80610606575060005460ff16155b6106225760405162461bcd60e51b81526004016105d0906123b4565b600054610100900460ff1615801561064d576000805460ff1961ff0019909116610100171660011790555b6001600160a01b0382166106735760405162461bcd60e51b81526004016105d0906122f7565b61067b6110e5565b610683611166565b61068b6111f2565b6106a36000805160206125bc833981519152836107f8565b6106bb6000805160206125dc833981519152836107f8565b6106e16000805160206125dc8339815191526000805160206125bc833981519152611281565b6106f96000805160206125bc83398151915280611281565b801561070b576000805461ff00191690555b5050565b6101c95481565b6101cd5481565b6101c55481565b6101d25481565b6101cc5481565b60009081526065602052604090206002015490565b61074f610dbf565b61076b5760405162461bcd60e51b81526004016105d0906124db565b6101cf55565b610779610dbf565b6107955760405162461bcd60e51b81526004016105d0906124db565b6101c5548111156107b85760405162461bcd60e51b81526004016105d090612402565b6101c455565b6000828152606560205260409020600201546107dc9061046a611296565b6107f85760405162461bcd60e51b81526004016105d090612077565b61070b828261129a565b61080a611296565b6001600160a01b0316816001600160a01b03161461083a5760405162461bcd60e51b81526004016105d090612526565b61070b8282611303565b61084c610dbf565b6108685760405162461bcd60e51b81526004016105d0906124db565b6101d155565b6108886000805160206125dc83398151915261046a611296565b6108a45760405162461bcd60e51b81526004016105d09061216e565b6108ac61136c565b565b60006101ce54600014156108c4575060016108ec565b6101c9546108e7906108d990620151806113d8565b6108e1611412565b9061143a565b421090505b90565b6101c85481565b6108fe610dbf565b61091a5760405162461bcd60e51b81526004016105d0906124db565b6101d354610930906001600160a01b031661145f565b6101d380546001600160a01b0319166001600160a01b03928316179081905560405133927f7c76c17de59691df2ef36af3938c91f69cd18ad27f67a54a38e38686f0b40c499261098292911690611f80565b60405180910390a2565b600054610100900460ff16806109a557506109a56110df565b806109b3575060005460ff16155b6109cf5760405162461bcd60e51b81526004016105d0906123b4565b600054610100900460ff161580156109fa576000805460ff1961ff0019909116610100171660011790555b610a02611166565b8015610a14576000805461ff00191690555b50565b60975460ff1690565b6000610a2a611412565b905090565b6101ce5481565b6201518081565b6101d3546001600160a01b031681565b610a55610dbf565b610a715760405162461bcd60e51b81526004016105d0906124db565b6101ce55565b6101c3546001600160a01b031681565b6000610a2a426114df565b610aac6000805160206125dc83398151915261046a611296565b610ac85760405162461bcd60e51b81526004016105d09061216e565b6108ac611523565b6000828152606560205260408120610ae8908361157c565b90505b92915050565b6000828152606560205260408120610ae89083611588565b610b11610dbf565b610b2d5760405162461bcd60e51b81526004016105d0906124db565b6101cc55565b6101c75481565b610b42610dbf565b610b5e5760405162461bcd60e51b81526004016105d0906124db565b6101c4546101cb54610b7190839061143a565b1115610b8f5760405162461bcd60e51b81526004016105d09061223a565b60008111610baf5760405162461bcd60e51b81526004016105d090612443565b6000610bb961159d565b90506101cb5460001415610c0957610bd081610d5d565b610bd981610844565b610be360006105ac565b610c0961042c610c026101c854620151806113d890919063ffffffff16565b839061143a565b600080610c15836115a1565b6101cb549193509150610c28908561143a565b6101cb819055610c399083836116a6565b610c42836114df565b15610c5f5760405162461bcd60e51b81526004016105d090612124565b50505050565b600081565b6101c45490565b6000806000610c7e610dbf565b610c9a5760405162461bcd60e51b81526004016105d0906124db565b60006101cb5411610cbd5760405162461bcd60e51b81526004016105d09061232c565b6101cf54610cc961159d565b108015610ce35750610ce1610cdc61159d565b6114df565b155b15610cf657506000915081905080610d58565b6000610d00611768565b9050610d0b81610747565b610d1361159d565b811115610d3e576101c754600090610d2e90620151806113d8565b9050610d3a8282611879565b9150505b610d50610d4a306118bb565b8261194f565b935093509350505b909192565b610d65610dbf565b610d815760405162461bcd60e51b81526004016105d0906124db565b6101d055565b6101c65481565b610d96610dbf565b610db25760405162461bcd60e51b81526004016105d0906124db565b6101cd55565b6101cb5481565b6000610a2a6000805160206125bc83398151915261046a611296565b600054610100900460ff1680610df45750610df46110df565b80610e02575060005460ff16155b610e1e5760405162461bcd60e51b81526004016105d0906123b4565b600054610100900460ff16158015610e49576000805460ff1961ff0019909116610100171660011790555b6001600160a01b038a1615801590610e6957506001600160a01b03891615155b8015610e7d57506001600160a01b03881615155b610e995760405162461bcd60e51b81526004016105d090612474565b610ea2896105df565b6101d380546001600160a01b03808d166001600160a01b031992831617928390556101c380548c83169316929092179091556101c58990556101c68890556101c78790556101c88690556101ca8590556101c9849055426101d055600091610f0a9116611ad9565b6001600160a01b031663095ea7b38b6000196040518363ffffffff1660e01b8152600401610f39929190611f94565b602060405180830381600087803b158015610f5357600080fd5b505af1158015610f67573d6000803e3d6000fd5b505050506040513d601f19601f82011682018060405250810190610f8b9190611e66565b905080610faa5760405162461bcd60e51b81526004016105d0906120f4565b508015610fbd576000805461ff00191690555b50505050505050505050565b6101d05481565b610fd8610dbf565b610ff45760405162461bcd60e51b81526004016105d0906124db565b6101c555565b6000818152606560205260408120610aeb90611ae4565b6101d15481565b611020610dbf565b61103c5760405162461bcd60e51b81526004016105d0906124db565b6101ca55565b6101cf5481565b6000828152606560205260409020600201546110679061046a611296565b61083a5760405162461bcd60e51b81526004016105d09061227d565b6000805160206125bc83398151915281565b6000805160206125dc83398151915281565b6101c45481565b6101ca5481565b6110bd610dbf565b6110d95760405162461bcd60e51b81526004016105d0906124db565b6101cb55565b303b1590565b600054610100900460ff16806110fe57506110fe6110df565b8061110c575060005460ff16155b6111285760405162461bcd60e51b81526004016105d0906123b4565b600054610100900460ff16158015610a02576000805460ff1961ff0019909116610100171660011790558015610a14576000805461ff001916905550565b600054610100900460ff168061117f575061117f6110df565b8061118d575060005460ff16155b6111a95760405162461bcd60e51b81526004016105d0906123b4565b600054610100900460ff161580156111d4576000805460ff1961ff0019909116610100171660011790555b6097805460ff191690558015610a14576000805461ff001916905550565b600054610100900460ff168061120b575061120b6110df565b80611219575060005460ff16155b6112355760405162461bcd60e51b81526004016105d0906123b4565b600054610100900460ff16158015611260576000805460ff1961ff0019909116610100171660011790555b60c9805460ff191660011790558015610a14576000805461ff001916905550565b60009182526065602052604090912060020155565b3390565b60008281526065602052604090206112b29082611aef565b1561070b576112bf611296565b6001600160a01b0316816001600160a01b0316837f2f8788117e7eff1d82e926ec794901d17c78024a50270940304540a733656f0d60405160405180910390a45050565b600082815260656020526040902061131b9082611b04565b1561070b57611328611296565b6001600160a01b0316816001600160a01b0316837ff6391f5c32d9c69d2a47ea670b442974b53935d1edc7fd64eb21e047a839171b60405160405180910390a45050565b60975460ff1661138e5760405162461bcd60e51b81526004016105d0906120c6565b6097805460ff191690557f5db9ee0a495bf2e6ff9c91a7834c1ba4fdd244a5e8aa4e537bd38aeae4b073aa6113c1611296565b6040516113ce9190611f80565b60405180910390a1565b6000826113e757506000610aeb565b828202828482816113f457fe5b0414610ae85760405162461bcd60e51b81526004016105d090612373565b6000610a2a6114306101c854620151806113d890919063ffffffff16565b6101ce5490611879565b600082820183811015610ae85760405162461bcd60e51b81526004016105d0906121ba565b60006001600160a01b03821663b93f9b0a600b5b6040518263ffffffff1660e01b815260040161148f9190611fb8565b60206040518083038186803b1580156114a757600080fd5b505afa1580156114bb573d6000803e3d6000fd5b505050506040513d601f19601f82011682018060405250810190610aeb9190611dca565b6000806114f86101d1548461187990919063ffffffff16565b905060006101cb5411801561151c57506101c75461151990620151806113d8565b81115b9392505050565b60975460ff16156115465760405162461bcd60e51b81526004016105d0906122cd565b6097805460ff191660011790557f62e78cea01bee320cd4e420270b5ea74000d11b0c9f74754ebdbfc544b05a2586113c1611296565b6000610ae88383611b19565b6000610ae8836001600160a01b038416611b5e565b4290565b60008060008073299e6e0fc560438079349f0A8d74C3d925ee59b063101c843030876115eb6101d360009054906101000a90046001600160a01b03166001600160a01b0316611b76565b6040518463ffffffff1660e01b815260040161160993929190611fc1565b604080518083038186803b15801561162057600080fd5b505af4158015611634573d6000803e3d6000fd5b505050506040513d601f19601f820116820180604052508101906116589190611f5d565b9092509050811561167f5761166c85610d5d565b6101d25461167a908361143a565b6101d2555b6101cc5461168d908361143a565b6101cd5461169b908361143a565b935093505050915091565b60c95460ff166116c85760405162461bcd60e51b81526004016105d0906124a4565b60c9805460ff191690556116db836110b5565b6116e482610b09565b6116ed81610d8e565b6101cf54821580156116fe57508015155b1561174a5760008161170e61159d565b101561173c576101c75460009061172890620151806113d8565b90506117348382611879565b91505061173f565b50805b61174881610844565b505b611755610363611768565b505060c9805460ff191660011790555050565b6101cf546101c75460009190829061178390620151806113d8565b9050600061178f61159d565b9050821580156117a2575060006101cb54115b156117bb576117b1818361143a565b93505050506108ec565b60006101cb541180156117ce5750828110155b1561181e5760006117f8836117f260016108e1836117ec888b611879565b90611ba6565b906113d8565b9050611804848261143a565b9350611813846101ce54611be8565b9450505050506108ec565b6101cb5415801561182e57508215155b1561183f57600093505050506108ec565b60006101cb5411801561185157508281105b15611861578293505050506108ec565b60405162461bcd60e51b81526004016105d0906121f1565b6000610ae883836040518060400160405280601e81526020017f536166654d6174683a207375627472616374696f6e206f766572666c6f770000815250611bfe565b6101d3546000906118d4906001600160a01b0316611ad9565b6001600160a01b03166370a08231836040518263ffffffff1660e01b81526004016118ff9190611f80565b60206040518083038186803b15801561191757600080fd5b505afa15801561192b573d6000803e3d6000fd5b505050506040513d601f19601f82011682018060405250810190610aeb9190611f45565b6000806000806000611960866115a1565b9150915061196c611d8d565b6101cb5460405163d7cc2a0360e01b815273299e6e0fc560438079349f0A8d74C3d925ee59b09163d7cc2a03916119ab918c918890889060040161258b565b60606040518083038186803b1580156119c357600080fd5b505af41580156119d7573d6000803e3d6000fd5b505050506040513d601f19601f820116820180604052508101906119fb9190611eee565b90506000611a1982602001516101cb5461187990919063ffffffff16565b9050611a3282604001518261187990919063ffffffff16565b90506000611a4c826101cb5461187990919063ffffffff16565b90506000611a7182611a6b86600001518e61187990919063ffffffff16565b90611879565b9050611aa383611a8e86600001518961187990919063ffffffff16565b6020870151611a9e908990611879565b6116a6565b8a611abf836108e187600001518561143a90919063ffffffff16565b14611ac657fe5b9251929a92995097509095505050505050565b6000610aeb82611c2a565b6000610aeb82611c42565b6000610ae8836001600160a01b038416611c46565b6000610ae8836001600160a01b038416611c90565b81546000908210611b3c5760405162461bcd60e51b81526004016105d090612035565b826000018281548110611b4b57fe5b9060005260206000200154905092915050565b60009081526001919091016020526040902054151590565b604051631f8ac6cb60e31b81526000906001600160a01b0383169063fc563658906118ff90600590600401611fb8565b6000610ae883836040518060400160405280601a81526020017f536166654d6174683a206469766973696f6e206279207a65726f000000000000815250611d56565b6000818310611bf75781610ae8565b5090919050565b60008184841115611c225760405162461bcd60e51b81526004016105d09190611fe2565b505050900390565b60006001600160a01b03821663b93f9b0a6005611473565b5490565b6000611c528383611b5e565b611c8857508154600181810184556000848152602080822090930184905584548482528286019093526040902091909155610aeb565b506000610aeb565b60008181526001830160205260408120548015611d4c5783546000198083019190810190600090879083908110611cc357fe5b9060005260206000200154905080876000018481548110611ce057fe5b600091825260208083209091019290925582815260018981019092526040902090840190558654879080611d1057fe5b60019003818190600052602060002001600090559055866001016000878152602001908152602001600020600090556001945050505050610aeb565b6000915050610aeb565b60008183611d775760405162461bcd60e51b81526004016105d09190611fe2565b506000838581611d8357fe5b0495945050505050565b60405180606001604052806000815260200160008152602001600081525090565b600060208284031215611dbf578081fd5b8135610ae8816125a6565b600060208284031215611ddb578081fd5b8151610ae8816125a6565b60008060008060008060008060006101208a8c031215611e04578485fd5b8935611e0f816125a6565b985060208a0135611e1f816125a6565b975060408a0135611e2f816125a6565b989b979a5097986060810135985060808101359760a0820135975060c0820135965060e08201359550610100909101359350915050565b600060208284031215611e77578081fd5b81518015158114610ae8578182fd5b600060208284031215611e97578081fd5b5035919050565b60008060408385031215611eb0578182fd5b823591506020830135611ec2816125a6565b809150509250929050565b60008060408385031215611edf578182fd5b50508035926020909101359150565b600060608284031215611eff578081fd5b6040516060810181811067ffffffffffffffff82111715611f1e578283fd5b80604052508251815260208301516020820152604083015160408201528091505092915050565b600060208284031215611f56578081fd5b5051919050565b60008060408385031215611f6f578182fd5b505080516020909101519092909150565b6001600160a01b0391909116815260200190565b6001600160a01b03929092168252602082015260400190565b901515815260200190565b90815260200190565b6001600160a01b039390931683526020830191909152604082015260600190565b6000602080835283518082850152825b8181101561200e57858101830151858201604001528201611ff2565b8181111561201f5783604083870101525b50601f01601f1916929092016040019392505050565b60208082526022908201527f456e756d657261626c655365743a20696e646578206f7574206f6620626f756e604082015261647360f01b606082015260800190565b6020808252602f908201527f416363657373436f6e74726f6c3a2073656e646572206d75737420626520616e60408201526e0818591b5a5b881d1bc819dc985b9d608a1b606082015260800190565b60208082526014908201527314185d5cd8589b194e881b9bdd081c185d5cd95960621b604082015260600190565b6020808252601690820152754661696c656420746f20617070726f7665205553444360501b604082015260600190565b6020808252602a908201527f43616e6e6f742064726177646f776e207768656e207061796d656e74732061726040820152696520706173742064756560b01b606082015260800190565b6020808252602c908201527f4d75737420686176652070617573657220726f6c6520746f20706572666f726d60408201526b103a3434b99030b1ba34b7b760a11b606082015260800190565b6020808252601b908201527f536166654d6174683a206164646974696f6e206f766572666c6f770000000000604082015260600190565b60208082526029908201527f4572726f723a20636f756c64206e6f742063616c63756c617465206e65787420604082015268323ab2903a34b6b29760b91b606082015260800190565b60208082526023908201527f43616e6e6f742064726177646f776e206d6f7265207468616e20746865206c696040820152621b5a5d60ea1b606082015260800190565b60208082526030908201527f416363657373436f6e74726f6c3a2073656e646572206d75737420626520616e60408201526f2061646d696e20746f207265766f6b6560801b606082015260800190565b60208082526010908201526f14185d5cd8589b194e881c185d5cd95960821b604082015260600190565b6020808252818101527f4f776e65722063616e6e6f7420626520746865207a65726f2061646472657373604082015260600190565b60208082526027908201527f4d75737420686176652062616c616e636520746f2061737365737320637265646040820152666974206c696e6560c81b606082015260800190565b60208082526021908201527f536166654d6174683a206d756c7469706c69636174696f6e206f766572666c6f6040820152607760f81b606082015260800190565b6020808252602e908201527f436f6e747261637420696e7374616e63652068617320616c726561647920626560408201526d195b881a5b9a5d1a585b1a5e995960921b606082015260800190565b60208082526021908201527f43616e6e6f74206265206d6f7265207468616e20746865206d6178206c696d696040820152601d60fa1b606082015260800190565b602080825260179082015276125b9d985b1a5908191c985dd91bdddb88185b5bdd5b9d604a1b604082015260600190565b6020808252601690820152752d32b9379030b2323932b9b9903830b9b9b2b21034b760511b604082015260600190565b6020808252601f908201527f5265656e7472616e637947756172643a207265656e7472616e742063616c6c00604082015260600190565b6020808252602b908201527f4d75737420686176652061646d696e20726f6c6520746f20706572666f726d2060408201526a3a3434b99030b1ba34b7b760a91b606082015260800190565b6020808252602f908201527f416363657373436f6e74726f6c3a2063616e206f6e6c792072656e6f756e636560408201526e103937b632b9903337b91039b2b63360891b606082015260800190565b9283526020830191909152604082015260600190565b93845260208401929092526040830152606082015260800190565b6001600160a01b0381168114610a1457600080fdfeb19546dff01e856fb3f010c267a7b1c60363cf8a4664e21cc89c26224620214e65d7a28e3265b37a6474929f336521b332c1681b933f6cb9f3376673440d862aa2646970667358221220b94ac70e2dfff1638de5ecd157ec58f479ded89d3c581fd36c2d830a1dff675664736f6c634300060c0033",
  "deployedBytecode": "0x608060405234801561001057600080fd5b50600436106102d75760003560e01c80638456cb5911610188578063b6db75a0116100e4578063d284597711610092578063d28459771461055e578063d547741f14610566578063e58378bb14610579578063e63ab1e914610581578063eabd0ce114610589578063f0b25bde14610591578063fb1669ca14610599576102d7565b8063b6db75a0146104fa578063bb4a250914610502578063bbafcb4014610515578063bf8bcee41461051d578063ca15c87314610530578063ce78290d14610543578063cf1787e61461054b576102d7565b8063a217fddf11610141578063a217fddf1461049d578063a4d66daf146104a5578063a6a25e88146104ad578063a6b1ae0d146104c4578063b3969992146104d7578063b3b8a9c7146104df578063b69ef8a8146104f2576102d7565b80638456cb59146104415780639010d07c1461044957806391d148541461045c57806396c8df371461046f57806399dd8df314610482578063a079a4dd1461048a576102d7565b80633f4ba83a11610237578063645d6225116101f0578063645d6225146103f157806364fb2d95146103f957806374f0314f1461040157806379502c55146104095780637ae14b091461041e5780637df1f1b91461043157806381c17a1514610439576102d7565b80633f4ba83a146103b4578063457147a7146103bc57806348e6f296146103d15780634f92a728146103d9578063526d81f6146103e15780635c975abb146103e9576102d7565b806321856b361161029457806321856b361461033a578063248a9ca31461034257806326a40e821461035557806327ea6f2b146103685780632f2ff15d1461037b57806336568abe1461038e57806336d91494146103a1576102d7565b8063033669cf146102dc578063097616a3146102f15780630e347f891461030457806319350114146103225780631a861d261461032a5780631cd724ac14610332575b600080fd5b6102ef6102ea366004611e86565b6105ac565b005b6102ef6102ff366004611dae565b6105df565b61030c61070f565b6040516103199190611fb8565b60405180910390f35b61030c610716565b61030c61071d565b61030c610724565b61030c61072b565b61030c610350366004611e86565b610732565b6102ef610363366004611e86565b610747565b6102ef610376366004611e86565b610771565b6102ef610389366004611e9e565b6107be565b6102ef61039c366004611e9e565b610802565b6102ef6103af366004611e86565b610844565b6102ef61086e565b6103c46108ae565b6040516103199190611fad565b61030c6108ef565b6102ef6108f6565b6102ef61098c565b6103c4610a17565b61030c610a20565b61030c610a2f565b61030c610a36565b610411610a3d565b6040516103199190611f80565b6102ef61042c366004611e86565b610a4d565b610411610a77565b6103c4610a87565b6102ef610a92565b610411610457366004611ecd565b610ad0565b6103c461046a366004611e9e565b610af1565b6102ef61047d366004611e86565b610b09565b61030c610b33565b6102ef610498366004611e86565b610b3a565b61030c610c65565b61030c610c6a565b6104b5610c71565b60405161031993929190612575565b6102ef6104d2366004611e86565b610d5d565b61030c610d87565b6102ef6104ed366004611e86565b610d8e565b61030c610db8565b6103c4610dbf565b6102ef610510366004611de6565b610ddb565b61030c610fc9565b6102ef61052b366004611e86565b610fd0565b61030c61053e366004611e86565b610ffa565b61030c611011565b6102ef610559366004611e86565b611018565b61030c611042565b6102ef610574366004611e9e565b611049565b61030c611083565b61030c611095565b61030c6110a7565b61030c6110ae565b6102ef6105a7366004611e86565b6110b5565b6105b4610dbf565b6105d95760405162461bcd60e51b81526004016105d0906124db565b60405180910390fd5b6101d255565b600054610100900460ff16806105f857506105f86110df565b80610606575060005460ff16155b6106225760405162461bcd60e51b81526004016105d0906123b4565b600054610100900460ff1615801561064d576000805460ff1961ff0019909116610100171660011790555b6001600160a01b0382166106735760405162461bcd60e51b81526004016105d0906122f7565b61067b6110e5565b610683611166565b61068b6111f2565b6106a36000805160206125bc833981519152836107f8565b6106bb6000805160206125dc833981519152836107f8565b6106e16000805160206125dc8339815191526000805160206125bc833981519152611281565b6106f96000805160206125bc83398151915280611281565b801561070b576000805461ff00191690555b5050565b6101c95481565b6101cd5481565b6101c55481565b6101d25481565b6101cc5481565b60009081526065602052604090206002015490565b61074f610dbf565b61076b5760405162461bcd60e51b81526004016105d0906124db565b6101cf55565b610779610dbf565b6107955760405162461bcd60e51b81526004016105d0906124db565b6101c5548111156107b85760405162461bcd60e51b81526004016105d090612402565b6101c455565b6000828152606560205260409020600201546107dc9061046a611296565b6107f85760405162461bcd60e51b81526004016105d090612077565b61070b828261129a565b61080a611296565b6001600160a01b0316816001600160a01b03161461083a5760405162461bcd60e51b81526004016105d090612526565b61070b8282611303565b61084c610dbf565b6108685760405162461bcd60e51b81526004016105d0906124db565b6101d155565b6108886000805160206125dc83398151915261046a611296565b6108a45760405162461bcd60e51b81526004016105d09061216e565b6108ac61136c565b565b60006101ce54600014156108c4575060016108ec565b6101c9546108e7906108d990620151806113d8565b6108e1611412565b9061143a565b421090505b90565b6101c85481565b6108fe610dbf565b61091a5760405162461bcd60e51b81526004016105d0906124db565b6101d354610930906001600160a01b031661145f565b6101d380546001600160a01b0319166001600160a01b03928316179081905560405133927f7c76c17de59691df2ef36af3938c91f69cd18ad27f67a54a38e38686f0b40c499261098292911690611f80565b60405180910390a2565b600054610100900460ff16806109a557506109a56110df565b806109b3575060005460ff16155b6109cf5760405162461bcd60e51b81526004016105d0906123b4565b600054610100900460ff161580156109fa576000805460ff1961ff0019909116610100171660011790555b610a02611166565b8015610a14576000805461ff00191690555b50565b60975460ff1690565b6000610a2a611412565b905090565b6101ce5481565b6201518081565b6101d3546001600160a01b031681565b610a55610dbf565b610a715760405162461bcd60e51b81526004016105d0906124db565b6101ce55565b6101c3546001600160a01b031681565b6000610a2a426114df565b610aac6000805160206125dc83398151915261046a611296565b610ac85760405162461bcd60e51b81526004016105d09061216e565b6108ac611523565b6000828152606560205260408120610ae8908361157c565b90505b92915050565b6000828152606560205260408120610ae89083611588565b610b11610dbf565b610b2d5760405162461bcd60e51b81526004016105d0906124db565b6101cc55565b6101c75481565b610b42610dbf565b610b5e5760405162461bcd60e51b81526004016105d0906124db565b6101c4546101cb54610b7190839061143a565b1115610b8f5760405162461bcd60e51b81526004016105d09061223a565b60008111610baf5760405162461bcd60e51b81526004016105d090612443565b6000610bb961159d565b90506101cb5460001415610c0957610bd081610d5d565b610bd981610844565b610be360006105ac565b610c0961042c610c026101c854620151806113d890919063ffffffff16565b839061143a565b600080610c15836115a1565b6101cb549193509150610c28908561143a565b6101cb819055610c399083836116a6565b610c42836114df565b15610c5f5760405162461bcd60e51b81526004016105d090612124565b50505050565b600081565b6101c45490565b6000806000610c7e610dbf565b610c9a5760405162461bcd60e51b81526004016105d0906124db565b60006101cb5411610cbd5760405162461bcd60e51b81526004016105d09061232c565b6101cf54610cc961159d565b108015610ce35750610ce1610cdc61159d565b6114df565b155b15610cf657506000915081905080610d58565b6000610d00611768565b9050610d0b81610747565b610d1361159d565b811115610d3e576101c754600090610d2e90620151806113d8565b9050610d3a8282611879565b9150505b610d50610d4a306118bb565b8261194f565b935093509350505b909192565b610d65610dbf565b610d815760405162461bcd60e51b81526004016105d0906124db565b6101d055565b6101c65481565b610d96610dbf565b610db25760405162461bcd60e51b81526004016105d0906124db565b6101cd55565b6101cb5481565b6000610a2a6000805160206125bc83398151915261046a611296565b600054610100900460ff1680610df45750610df46110df565b80610e02575060005460ff16155b610e1e5760405162461bcd60e51b81526004016105d0906123b4565b600054610100900460ff16158015610e49576000805460ff1961ff0019909116610100171660011790555b6001600160a01b038a1615801590610e6957506001600160a01b03891615155b8015610e7d57506001600160a01b03881615155b610e995760405162461bcd60e51b81526004016105d090612474565b610ea2896105df565b6101d380546001600160a01b03808d166001600160a01b031992831617928390556101c380548c83169316929092179091556101c58990556101c68890556101c78790556101c88690556101ca8590556101c9849055426101d055600091610f0a9116611ad9565b6001600160a01b031663095ea7b38b6000196040518363ffffffff1660e01b8152600401610f39929190611f94565b602060405180830381600087803b158015610f5357600080fd5b505af1158015610f67573d6000803e3d6000fd5b505050506040513d601f19601f82011682018060405250810190610f8b9190611e66565b905080610faa5760405162461bcd60e51b81526004016105d0906120f4565b508015610fbd576000805461ff00191690555b50505050505050505050565b6101d05481565b610fd8610dbf565b610ff45760405162461bcd60e51b81526004016105d0906124db565b6101c555565b6000818152606560205260408120610aeb90611ae4565b6101d15481565b611020610dbf565b61103c5760405162461bcd60e51b81526004016105d0906124db565b6101ca55565b6101cf5481565b6000828152606560205260409020600201546110679061046a611296565b61083a5760405162461bcd60e51b81526004016105d09061227d565b6000805160206125bc83398151915281565b6000805160206125dc83398151915281565b6101c45481565b6101ca5481565b6110bd610dbf565b6110d95760405162461bcd60e51b81526004016105d0906124db565b6101cb55565b303b1590565b600054610100900460ff16806110fe57506110fe6110df565b8061110c575060005460ff16155b6111285760405162461bcd60e51b81526004016105d0906123b4565b600054610100900460ff16158015610a02576000805460ff1961ff0019909116610100171660011790558015610a14576000805461ff001916905550565b600054610100900460ff168061117f575061117f6110df565b8061118d575060005460ff16155b6111a95760405162461bcd60e51b81526004016105d0906123b4565b600054610100900460ff161580156111d4576000805460ff1961ff0019909116610100171660011790555b6097805460ff191690558015610a14576000805461ff001916905550565b600054610100900460ff168061120b575061120b6110df565b80611219575060005460ff16155b6112355760405162461bcd60e51b81526004016105d0906123b4565b600054610100900460ff16158015611260576000805460ff1961ff0019909116610100171660011790555b60c9805460ff191660011790558015610a14576000805461ff001916905550565b60009182526065602052604090912060020155565b3390565b60008281526065602052604090206112b29082611aef565b1561070b576112bf611296565b6001600160a01b0316816001600160a01b0316837f2f8788117e7eff1d82e926ec794901d17c78024a50270940304540a733656f0d60405160405180910390a45050565b600082815260656020526040902061131b9082611b04565b1561070b57611328611296565b6001600160a01b0316816001600160a01b0316837ff6391f5c32d9c69d2a47ea670b442974b53935d1edc7fd64eb21e047a839171b60405160405180910390a45050565b60975460ff1661138e5760405162461bcd60e51b81526004016105d0906120c6565b6097805460ff191690557f5db9ee0a495bf2e6ff9c91a7834c1ba4fdd244a5e8aa4e537bd38aeae4b073aa6113c1611296565b6040516113ce9190611f80565b60405180910390a1565b6000826113e757506000610aeb565b828202828482816113f457fe5b0414610ae85760405162461bcd60e51b81526004016105d090612373565b6000610a2a6114306101c854620151806113d890919063ffffffff16565b6101ce5490611879565b600082820183811015610ae85760405162461bcd60e51b81526004016105d0906121ba565b60006001600160a01b03821663b93f9b0a600b5b6040518263ffffffff1660e01b815260040161148f9190611fb8565b60206040518083038186803b1580156114a757600080fd5b505afa1580156114bb573d6000803e3d6000fd5b505050506040513d601f19601f82011682018060405250810190610aeb9190611dca565b6000806114f86101d1548461187990919063ffffffff16565b905060006101cb5411801561151c57506101c75461151990620151806113d8565b81115b9392505050565b60975460ff16156115465760405162461bcd60e51b81526004016105d0906122cd565b6097805460ff191660011790557f62e78cea01bee320cd4e420270b5ea74000d11b0c9f74754ebdbfc544b05a2586113c1611296565b6000610ae88383611b19565b6000610ae8836001600160a01b038416611b5e565b4290565b60008060008073__$1dcd660c042b25ef260537b13a3f0ede49$__63101c843030876115eb6101d360009054906101000a90046001600160a01b03166001600160a01b0316611b76565b6040518463ffffffff1660e01b815260040161160993929190611fc1565b604080518083038186803b15801561162057600080fd5b505af4158015611634573d6000803e3d6000fd5b505050506040513d601f19601f820116820180604052508101906116589190611f5d565b9092509050811561167f5761166c85610d5d565b6101d25461167a908361143a565b6101d2555b6101cc5461168d908361143a565b6101cd5461169b908361143a565b935093505050915091565b60c95460ff166116c85760405162461bcd60e51b81526004016105d0906124a4565b60c9805460ff191690556116db836110b5565b6116e482610b09565b6116ed81610d8e565b6101cf54821580156116fe57508015155b1561174a5760008161170e61159d565b101561173c576101c75460009061172890620151806113d8565b90506117348382611879565b91505061173f565b50805b61174881610844565b505b611755610363611768565b505060c9805460ff191660011790555050565b6101cf546101c75460009190829061178390620151806113d8565b9050600061178f61159d565b9050821580156117a2575060006101cb54115b156117bb576117b1818361143a565b93505050506108ec565b60006101cb541180156117ce5750828110155b1561181e5760006117f8836117f260016108e1836117ec888b611879565b90611ba6565b906113d8565b9050611804848261143a565b9350611813846101ce54611be8565b9450505050506108ec565b6101cb5415801561182e57508215155b1561183f57600093505050506108ec565b60006101cb5411801561185157508281105b15611861578293505050506108ec565b60405162461bcd60e51b81526004016105d0906121f1565b6000610ae883836040518060400160405280601e81526020017f536166654d6174683a207375627472616374696f6e206f766572666c6f770000815250611bfe565b6101d3546000906118d4906001600160a01b0316611ad9565b6001600160a01b03166370a08231836040518263ffffffff1660e01b81526004016118ff9190611f80565b60206040518083038186803b15801561191757600080fd5b505afa15801561192b573d6000803e3d6000fd5b505050506040513d601f19601f82011682018060405250810190610aeb9190611f45565b6000806000806000611960866115a1565b9150915061196c611d8d565b6101cb5460405163d7cc2a0360e01b815273__$1dcd660c042b25ef260537b13a3f0ede49$__9163d7cc2a03916119ab918c918890889060040161258b565b60606040518083038186803b1580156119c357600080fd5b505af41580156119d7573d6000803e3d6000fd5b505050506040513d601f19601f820116820180604052508101906119fb9190611eee565b90506000611a1982602001516101cb5461187990919063ffffffff16565b9050611a3282604001518261187990919063ffffffff16565b90506000611a4c826101cb5461187990919063ffffffff16565b90506000611a7182611a6b86600001518e61187990919063ffffffff16565b90611879565b9050611aa383611a8e86600001518961187990919063ffffffff16565b6020870151611a9e908990611879565b6116a6565b8a611abf836108e187600001518561143a90919063ffffffff16565b14611ac657fe5b9251929a92995097509095505050505050565b6000610aeb82611c2a565b6000610aeb82611c42565b6000610ae8836001600160a01b038416611c46565b6000610ae8836001600160a01b038416611c90565b81546000908210611b3c5760405162461bcd60e51b81526004016105d090612035565b826000018281548110611b4b57fe5b9060005260206000200154905092915050565b60009081526001919091016020526040902054151590565b604051631f8ac6cb60e31b81526000906001600160a01b0383169063fc563658906118ff90600590600401611fb8565b6000610ae883836040518060400160405280601a81526020017f536166654d6174683a206469766973696f6e206279207a65726f000000000000815250611d56565b6000818310611bf75781610ae8565b5090919050565b60008184841115611c225760405162461bcd60e51b81526004016105d09190611fe2565b505050900390565b60006001600160a01b03821663b93f9b0a6005611473565b5490565b6000611c528383611b5e565b611c8857508154600181810184556000848152602080822090930184905584548482528286019093526040902091909155610aeb565b506000610aeb565b60008181526001830160205260408120548015611d4c5783546000198083019190810190600090879083908110611cc357fe5b9060005260206000200154905080876000018481548110611ce057fe5b600091825260208083209091019290925582815260018981019092526040902090840190558654879080611d1057fe5b60019003818190600052602060002001600090559055866001016000878152602001908152602001600020600090556001945050505050610aeb565b6000915050610aeb565b60008183611d775760405162461bcd60e51b81526004016105d09190611fe2565b506000838581611d8357fe5b0495945050505050565b60405180606001604052806000815260200160008152602001600081525090565b600060208284031215611dbf578081fd5b8135610ae8816125a6565b600060208284031215611ddb578081fd5b8151610ae8816125a6565b60008060008060008060008060006101208a8c031215611e04578485fd5b8935611e0f816125a6565b985060208a0135611e1f816125a6565b975060408a0135611e2f816125a6565b989b979a5097986060810135985060808101359760a0820135975060c0820135965060e08201359550610100909101359350915050565b600060208284031215611e77578081fd5b81518015158114610ae8578182fd5b600060208284031215611e97578081fd5b5035919050565b60008060408385031215611eb0578182fd5b823591506020830135611ec2816125a6565b809150509250929050565b60008060408385031215611edf578182fd5b50508035926020909101359150565b600060608284031215611eff578081fd5b6040516060810181811067ffffffffffffffff82111715611f1e578283fd5b80604052508251815260208301516020820152604083015160408201528091505092915050565b600060208284031215611f56578081fd5b5051919050565b60008060408385031215611f6f578182fd5b505080516020909101519092909150565b6001600160a01b0391909116815260200190565b6001600160a01b03929092168252602082015260400190565b901515815260200190565b90815260200190565b6001600160a01b039390931683526020830191909152604082015260600190565b6000602080835283518082850152825b8181101561200e57858101830151858201604001528201611ff2565b8181111561201f5783604083870101525b50601f01601f1916929092016040019392505050565b60208082526022908201527f456e756d657261626c655365743a20696e646578206f7574206f6620626f756e604082015261647360f01b606082015260800190565b6020808252602f908201527f416363657373436f6e74726f6c3a2073656e646572206d75737420626520616e60408201526e0818591b5a5b881d1bc819dc985b9d608a1b606082015260800190565b60208082526014908201527314185d5cd8589b194e881b9bdd081c185d5cd95960621b604082015260600190565b6020808252601690820152754661696c656420746f20617070726f7665205553444360501b604082015260600190565b6020808252602a908201527f43616e6e6f742064726177646f776e207768656e207061796d656e74732061726040820152696520706173742064756560b01b606082015260800190565b6020808252602c908201527f4d75737420686176652070617573657220726f6c6520746f20706572666f726d60408201526b103a3434b99030b1ba34b7b760a11b606082015260800190565b6020808252601b908201527f536166654d6174683a206164646974696f6e206f766572666c6f770000000000604082015260600190565b60208082526029908201527f4572726f723a20636f756c64206e6f742063616c63756c617465206e65787420604082015268323ab2903a34b6b29760b91b606082015260800190565b60208082526023908201527f43616e6e6f742064726177646f776e206d6f7265207468616e20746865206c696040820152621b5a5d60ea1b606082015260800190565b60208082526030908201527f416363657373436f6e74726f6c3a2073656e646572206d75737420626520616e60408201526f2061646d696e20746f207265766f6b6560801b606082015260800190565b60208082526010908201526f14185d5cd8589b194e881c185d5cd95960821b604082015260600190565b6020808252818101527f4f776e65722063616e6e6f7420626520746865207a65726f2061646472657373604082015260600190565b60208082526027908201527f4d75737420686176652062616c616e636520746f2061737365737320637265646040820152666974206c696e6560c81b606082015260800190565b60208082526021908201527f536166654d6174683a206d756c7469706c69636174696f6e206f766572666c6f6040820152607760f81b606082015260800190565b6020808252602e908201527f436f6e747261637420696e7374616e63652068617320616c726561647920626560408201526d195b881a5b9a5d1a585b1a5e995960921b606082015260800190565b60208082526021908201527f43616e6e6f74206265206d6f7265207468616e20746865206d6178206c696d696040820152601d60fa1b606082015260800190565b602080825260179082015276125b9d985b1a5908191c985dd91bdddb88185b5bdd5b9d604a1b604082015260600190565b6020808252601690820152752d32b9379030b2323932b9b9903830b9b9b2b21034b760511b604082015260600190565b6020808252601f908201527f5265656e7472616e637947756172643a207265656e7472616e742063616c6c00604082015260600190565b6020808252602b908201527f4d75737420686176652061646d696e20726f6c6520746f20706572666f726d2060408201526a3a3434b99030b1ba34b7b760a91b606082015260800190565b6020808252602f908201527f416363657373436f6e74726f6c3a2063616e206f6e6c792072656e6f756e636560408201526e103937b632b9903337b91039b2b63360891b606082015260800190565b9283526020830191909152604082015260600190565b93845260208401929092526040830152606082015260800190565b6001600160a01b0381168114610a1457600080fdfeb19546dff01e856fb3f010c267a7b1c60363cf8a4664e21cc89c26224620214e65d7a28e3265b37a6474929f336521b332c1681b933f6cb9f3376673440d862aa2646970667358221220b94ac70e2dfff1638de5ecd157ec58f479ded89d3c581fd36c2d830a1dff675664736f6c634300060c0033",
  "libraries": {
    "Accountant": "0x299e6e0fc560438079349f0A8d74C3d925ee59b0"
  },
  "devdoc": {
    "author": "Goldfinch",
    "kind": "dev",
    "methods": {
      "assess()": {
        "returns": {
          "_0": "Any amount remaining after applying payments towards the interest and principal",
          "_1": "Amount applied towards interest",
          "_2": "Amount applied towards principal"
        }
      },
      "drawdown(uint256)": {
        "params": {
          "amount": "The amount in USDC that has been drawndown"
        }
      },
      "getRoleAdmin(bytes32)": {
        "details": "Returns the admin role that controls `role`. See {grantRole} and {revokeRole}. To change a role's admin, use {_setRoleAdmin}."
      },
      "getRoleMember(bytes32,uint256)": {
        "details": "Returns one of the accounts that have `role`. `index` must be a value between 0 and {getRoleMemberCount}, non-inclusive. Role bearers are not sorted in any particular way, and their ordering may change at any point. WARNING: When using {getRoleMember} and {getRoleMemberCount}, make sure you perform all queries on the same block. See the following https://forum.openzeppelin.com/t/iterating-over-elements-on-enumerableset-in-openzeppelin-contracts/2296[forum post] for more information."
      },
      "getRoleMemberCount(bytes32)": {
        "details": "Returns the number of accounts that have `role`. Can be used together with {getRoleMember} to enumerate all bearers of a role."
      },
      "grantRole(bytes32,address)": {
        "details": "Grants `role` to `account`. If `account` had not been already granted `role`, emits a {RoleGranted} event. Requirements: - the caller must have ``role``'s admin role."
      },
      "hasRole(bytes32,address)": {
        "details": "Returns `true` if `account` has been granted `role`."
      },
      "pause()": {
        "details": "Pauses all functions guarded by Pause See {Pausable-_pause}. Requirements: - the caller must have the PAUSER_ROLE."
      },
      "paused()": {
        "details": "Returns true if the contract is paused, and false otherwise."
      },
      "renounceRole(bytes32,address)": {
        "details": "Revokes `role` from the calling account. Roles are often managed via {grantRole} and {revokeRole}: this function's purpose is to provide a mechanism for accounts to lose their privileges if they are compromised (such as when a trusted device is misplaced). If the calling account had been granted `role`, emits a {RoleRevoked} event. Requirements: - the caller must be `account`."
      },
      "revokeRole(bytes32,address)": {
        "details": "Revokes `role` from `account`. If `account` had been granted `role`, emits a {RoleRevoked} event. Requirements: - the caller must have ``role``'s admin role."
      },
      "unpause()": {
        "details": "Unpauses the contract See {Pausable-_unpause}. Requirements: - the caller must have the Pauser role"
      }
    },
    "title": "CreditLine",
    "version": 1
  },
  "userdoc": {
    "kind": "user",
    "methods": {
      "assess()": {
        "notice": "Triggers an assessment of the creditline. Any USDC balance available in the creditline is applied towards the interest and principal."
      },
      "drawdown(uint256)": {
        "notice": "Updates the internal accounting to track a drawdown as of current block timestamp. Does not move any money"
      },
      "updateGoldfinchConfig()": {
        "notice": "Migrates to a new goldfinch config address"
      }
    },
    "notice": "A contract that represents the agreement between Backers and  a Borrower. Includes the terms of the loan, as well as the current accounting state, such as interest owed.  A CreditLine belongs to a TranchedPool, and is fully controlled by that TranchedPool. It does not  operate in any standalone capacity. It should generally be considered internal to the TranchedPool.",
    "version": 1
  },
  "storageLayout": {
    "storage": [
      {
        "astId": 151,
        "contract": "contracts/protocol/core/CreditLine.sol:CreditLine",
        "label": "initialized",
        "offset": 0,
        "slot": "0",
        "type": "t_bool"
      },
      {
        "astId": 154,
        "contract": "contracts/protocol/core/CreditLine.sol:CreditLine",
        "label": "initializing",
        "offset": 1,
        "slot": "0",
        "type": "t_bool"
      },
      {
        "astId": 219,
        "contract": "contracts/protocol/core/CreditLine.sol:CreditLine",
        "label": "______gap",
        "offset": 0,
        "slot": "1",
        "type": "t_array(t_uint256)50_storage"
      },
      {
        "astId": 144,
        "contract": "contracts/protocol/core/CreditLine.sol:CreditLine",
        "label": "__gap",
        "offset": 0,
        "slot": "51",
        "type": "t_array(t_uint256)50_storage"
      },
      {
        "astId": 264,
        "contract": "contracts/protocol/core/CreditLine.sol:CreditLine",
        "label": "_roles",
        "offset": 0,
        "slot": "101",
        "type": "t_mapping(t_bytes32,t_struct(RoleData)260_storage)"
      },
      {
        "astId": 509,
        "contract": "contracts/protocol/core/CreditLine.sol:CreditLine",
        "label": "__gap",
        "offset": 0,
        "slot": "102",
        "type": "t_array(t_uint256)49_storage"
      },
      {
        "astId": 4429,
        "contract": "contracts/protocol/core/CreditLine.sol:CreditLine",
        "label": "_paused",
        "offset": 0,
        "slot": "151",
        "type": "t_bool"
      },
      {
        "astId": 4518,
        "contract": "contracts/protocol/core/CreditLine.sol:CreditLine",
        "label": "__gap",
        "offset": 0,
        "slot": "152",
        "type": "t_array(t_uint256)49_storage"
      },
      {
        "astId": 4527,
        "contract": "contracts/protocol/core/CreditLine.sol:CreditLine",
        "label": "_notEntered",
        "offset": 0,
        "slot": "201",
        "type": "t_bool"
      },
      {
        "astId": 4568,
        "contract": "contracts/protocol/core/CreditLine.sol:CreditLine",
        "label": "__gap",
        "offset": 0,
        "slot": "202",
        "type": "t_array(t_uint256)49_storage"
      },
      {
        "astId": 12118,
        "contract": "contracts/protocol/core/CreditLine.sol:CreditLine",
        "label": "__gap1",
        "offset": 0,
        "slot": "251",
        "type": "t_array(t_uint256)50_storage"
      },
      {
        "astId": 12122,
        "contract": "contracts/protocol/core/CreditLine.sol:CreditLine",
        "label": "__gap2",
        "offset": 0,
        "slot": "301",
        "type": "t_array(t_uint256)50_storage"
      },
      {
        "astId": 12126,
        "contract": "contracts/protocol/core/CreditLine.sol:CreditLine",
        "label": "__gap3",
        "offset": 0,
        "slot": "351",
        "type": "t_array(t_uint256)50_storage"
      },
      {
        "astId": 12130,
        "contract": "contracts/protocol/core/CreditLine.sol:CreditLine",
        "label": "__gap4",
        "offset": 0,
        "slot": "401",
        "type": "t_array(t_uint256)50_storage"
      },
      {
        "astId": 14639,
        "contract": "contracts/protocol/core/CreditLine.sol:CreditLine",
        "label": "borrower",
        "offset": 0,
        "slot": "451",
        "type": "t_address"
      },
      {
        "astId": 14641,
        "contract": "contracts/protocol/core/CreditLine.sol:CreditLine",
        "label": "currentLimit",
        "offset": 0,
        "slot": "452",
        "type": "t_uint256"
      },
      {
        "astId": 14644,
        "contract": "contracts/protocol/core/CreditLine.sol:CreditLine",
        "label": "maxLimit",
        "offset": 0,
        "slot": "453",
        "type": "t_uint256"
      },
      {
        "astId": 14647,
        "contract": "contracts/protocol/core/CreditLine.sol:CreditLine",
        "label": "interestApr",
        "offset": 0,
        "slot": "454",
        "type": "t_uint256"
      },
      {
        "astId": 14650,
        "contract": "contracts/protocol/core/CreditLine.sol:CreditLine",
        "label": "paymentPeriodInDays",
        "offset": 0,
        "slot": "455",
        "type": "t_uint256"
      },
      {
        "astId": 14653,
        "contract": "contracts/protocol/core/CreditLine.sol:CreditLine",
        "label": "termInDays",
        "offset": 0,
        "slot": "456",
        "type": "t_uint256"
      },
      {
        "astId": 14656,
        "contract": "contracts/protocol/core/CreditLine.sol:CreditLine",
        "label": "principalGracePeriodInDays",
        "offset": 0,
        "slot": "457",
        "type": "t_uint256"
      },
      {
        "astId": 14659,
        "contract": "contracts/protocol/core/CreditLine.sol:CreditLine",
        "label": "lateFeeApr",
        "offset": 0,
        "slot": "458",
        "type": "t_uint256"
      },
      {
        "astId": 14662,
        "contract": "contracts/protocol/core/CreditLine.sol:CreditLine",
        "label": "balance",
        "offset": 0,
        "slot": "459",
        "type": "t_uint256"
      },
      {
        "astId": 14665,
        "contract": "contracts/protocol/core/CreditLine.sol:CreditLine",
        "label": "interestOwed",
        "offset": 0,
        "slot": "460",
        "type": "t_uint256"
      },
      {
        "astId": 14668,
        "contract": "contracts/protocol/core/CreditLine.sol:CreditLine",
        "label": "principalOwed",
        "offset": 0,
        "slot": "461",
        "type": "t_uint256"
      },
      {
        "astId": 14671,
        "contract": "contracts/protocol/core/CreditLine.sol:CreditLine",
        "label": "termEndTime",
        "offset": 0,
        "slot": "462",
        "type": "t_uint256"
      },
      {
        "astId": 14674,
        "contract": "contracts/protocol/core/CreditLine.sol:CreditLine",
        "label": "nextDueTime",
        "offset": 0,
        "slot": "463",
        "type": "t_uint256"
      },
      {
        "astId": 14677,
        "contract": "contracts/protocol/core/CreditLine.sol:CreditLine",
        "label": "interestAccruedAsOf",
        "offset": 0,
        "slot": "464",
        "type": "t_uint256"
      },
      {
        "astId": 14680,
        "contract": "contracts/protocol/core/CreditLine.sol:CreditLine",
        "label": "lastFullPaymentTime",
        "offset": 0,
        "slot": "465",
        "type": "t_uint256"
      },
      {
        "astId": 14682,
        "contract": "contracts/protocol/core/CreditLine.sol:CreditLine",
        "label": "totalInterestAccrued",
        "offset": 0,
        "slot": "466",
        "type": "t_uint256"
      },
      {
        "astId": 14684,
        "contract": "contracts/protocol/core/CreditLine.sol:CreditLine",
        "label": "config",
        "offset": 0,
        "slot": "467",
        "type": "t_contract(GoldfinchConfig)17615"
      }
    ],
    "types": {
      "t_address": {
        "encoding": "inplace",
        "label": "address",
        "numberOfBytes": "20"
      },
      "t_array(t_bytes32)dyn_storage": {
        "base": "t_bytes32",
        "encoding": "dynamic_array",
        "label": "bytes32[]",
        "numberOfBytes": "32"
      },
      "t_array(t_uint256)49_storage": {
        "base": "t_uint256",
        "encoding": "inplace",
        "label": "uint256[49]",
        "numberOfBytes": "1568"
      },
      "t_array(t_uint256)50_storage": {
        "base": "t_uint256",
        "encoding": "inplace",
        "label": "uint256[50]",
        "numberOfBytes": "1600"
      },
      "t_bool": {
        "encoding": "inplace",
        "label": "bool",
        "numberOfBytes": "1"
      },
      "t_bytes32": {
        "encoding": "inplace",
        "label": "bytes32",
        "numberOfBytes": "32"
      },
      "t_contract(GoldfinchConfig)17615": {
        "encoding": "inplace",
        "label": "contract GoldfinchConfig",
        "numberOfBytes": "20"
      },
      "t_mapping(t_bytes32,t_struct(RoleData)260_storage)": {
        "encoding": "mapping",
        "key": "t_bytes32",
        "label": "mapping(bytes32 => struct AccessControlUpgradeSafe.RoleData)",
        "numberOfBytes": "32",
        "value": "t_struct(RoleData)260_storage"
      },
      "t_mapping(t_bytes32,t_uint256)": {
        "encoding": "mapping",
        "key": "t_bytes32",
        "label": "mapping(bytes32 => uint256)",
        "numberOfBytes": "32",
        "value": "t_uint256"
      },
      "t_struct(AddressSet)4204_storage": {
        "encoding": "inplace",
        "label": "struct EnumerableSet.AddressSet",
        "members": [
          {
            "astId": 4203,
            "contract": "contracts/protocol/core/CreditLine.sol:CreditLine",
            "label": "_inner",
            "offset": 0,
            "slot": "0",
            "type": "t_struct(Set)4024_storage"
          }
        ],
        "numberOfBytes": "64"
      },
      "t_struct(RoleData)260_storage": {
        "encoding": "inplace",
        "label": "struct AccessControlUpgradeSafe.RoleData",
        "members": [
          {
            "astId": 257,
            "contract": "contracts/protocol/core/CreditLine.sol:CreditLine",
            "label": "members",
            "offset": 0,
            "slot": "0",
            "type": "t_struct(AddressSet)4204_storage"
          },
          {
            "astId": 259,
            "contract": "contracts/protocol/core/CreditLine.sol:CreditLine",
            "label": "adminRole",
            "offset": 0,
            "slot": "2",
            "type": "t_bytes32"
          }
        ],
        "numberOfBytes": "96"
      },
      "t_struct(Set)4024_storage": {
        "encoding": "inplace",
        "label": "struct EnumerableSet.Set",
        "members": [
          {
            "astId": 4019,
            "contract": "contracts/protocol/core/CreditLine.sol:CreditLine",
            "label": "_values",
            "offset": 0,
            "slot": "0",
            "type": "t_array(t_bytes32)dyn_storage"
          },
          {
            "astId": 4023,
            "contract": "contracts/protocol/core/CreditLine.sol:CreditLine",
            "label": "_indexes",
            "offset": 0,
            "slot": "1",
            "type": "t_mapping(t_bytes32,t_uint256)"
          }
        ],
        "numberOfBytes": "64"
      },
      "t_uint256": {
        "encoding": "inplace",
        "label": "uint256",
        "numberOfBytes": "32"
      }
    }
  }
}