{
  "address": "0x957D8686C377B50897D6Ce7A94828F7A7f98F7d0",
  "abi": [
    {
      "anonymous": false,
      "inputs": [
        {
          "indexed": true,
          "internalType": "address",
          "name": "borrower",
          "type": "address"
        },
        {
          "indexed": true,
          "internalType": "address",
          "name": "creditLine",
          "type": "address"
        }
      ],
      "name": "CreditLineCreated",
      "type": "event"
    },
    {
      "anonymous": false,
      "inputs": [
        {
          "indexed": true,
          "internalType": "address",
          "name": "borrower",
          "type": "address"
        },
        {
          "indexed": true,
          "internalType": "address",
          "name": "creditLine",
          "type": "address"
        },
        {
          "indexed": false,
          "internalType": "uint256",
          "name": "drawdownAmount",
          "type": "uint256"
        }
      ],
      "name": "DrawdownMade",
      "type": "event"
    },
    {
      "anonymous": false,
      "inputs": [
        {
          "indexed": true,
          "internalType": "address",
          "name": "underwriter",
          "type": "address"
        },
        {
          "indexed": false,
          "internalType": "uint256",
          "name": "newLimit",
          "type": "uint256"
        }
      ],
      "name": "GovernanceUpdatedUnderwriterLimit",
      "type": "event"
    },
    {
      "anonymous": false,
      "inputs": [
        {
          "indexed": false,
          "internalType": "address",
          "name": "account",
          "type": "address"
        }
      ],
      "name": "Paused",
      "type": "event"
    },
    {
      "anonymous": false,
      "inputs": [
        {
          "indexed": true,
          "internalType": "address",
          "name": "payer",
          "type": "address"
        },
        {
          "indexed": true,
          "internalType": "address",
          "name": "creditLine",
          "type": "address"
        },
        {
          "indexed": false,
          "internalType": "uint256",
          "name": "interestAmount",
          "type": "uint256"
        },
        {
          "indexed": false,
          "internalType": "uint256",
          "name": "principalAmount",
          "type": "uint256"
        },
        {
          "indexed": false,
          "internalType": "uint256",
          "name": "remainingAmount",
          "type": "uint256"
        }
      ],
      "name": "PaymentApplied",
      "type": "event"
    },
    {
      "anonymous": false,
      "inputs": [
        {
          "indexed": true,
          "internalType": "address",
          "name": "payer",
          "type": "address"
        },
        {
          "indexed": true,
          "internalType": "address",
          "name": "creditLine",
          "type": "address"
        },
        {
          "indexed": false,
          "internalType": "uint256",
          "name": "paymentAmount",
          "type": "uint256"
        }
      ],
      "name": "PaymentCollected",
      "type": "event"
    },
    {
      "anonymous": false,
      "inputs": [
        {
          "indexed": true,
          "internalType": "bytes32",
          "name": "role",
          "type": "bytes32"
        },
        {
          "indexed": true,
          "internalType": "address",
          "name": "account",
          "type": "address"
        },
        {
          "indexed": true,
          "internalType": "address",
          "name": "sender",
          "type": "address"
        }
      ],
      "name": "RoleGranted",
      "type": "event"
    },
    {
      "anonymous": false,
      "inputs": [
        {
          "indexed": true,
          "internalType": "bytes32",
          "name": "role",
          "type": "bytes32"
        },
        {
          "indexed": true,
          "internalType": "address",
          "name": "account",
          "type": "address"
        },
        {
          "indexed": true,
          "internalType": "address",
          "name": "sender",
          "type": "address"
        }
      ],
      "name": "RoleRevoked",
      "type": "event"
    },
    {
      "anonymous": false,
      "inputs": [
        {
          "indexed": false,
          "internalType": "address",
          "name": "account",
          "type": "address"
        }
      ],
      "name": "Unpaused",
      "type": "event"
    },
    {
      "inputs": [],
      "name": "DEFAULT_ADMIN_ROLE",
      "outputs": [
        {
          "internalType": "bytes32",
          "name": "",
          "type": "bytes32"
        }
      ],
      "stateMutability": "view",
      "type": "function"
    },
    {
      "inputs": [],
      "name": "OWNER_ROLE",
      "outputs": [
        {
          "internalType": "bytes32",
          "name": "",
          "type": "bytes32"
        }
      ],
      "stateMutability": "view",
      "type": "function"
    },
    {
      "inputs": [],
      "name": "PAUSER_ROLE",
      "outputs": [
        {
          "internalType": "bytes32",
          "name": "",
          "type": "bytes32"
        }
      ],
      "stateMutability": "view",
      "type": "function"
    },
    {
      "inputs": [],
      "name": "SECONDS_PER_DAY",
      "outputs": [
        {
          "internalType": "uint256",
          "name": "",
          "type": "uint256"
        }
      ],
      "stateMutability": "view",
      "type": "function"
    },
    {
      "inputs": [
        {
          "internalType": "address",
          "name": "owner",
          "type": "address"
        }
      ],
      "name": "__BaseUpgradeablePausable__init",
      "outputs": [],
      "stateMutability": "nonpayable",
      "type": "function"
    },
    {
      "inputs": [],
      "name": "__PauserPausable__init",
      "outputs": [],
      "stateMutability": "nonpayable",
      "type": "function"
    },
    {
      "inputs": [
        {
          "internalType": "address",
          "name": "creditLineAddress",
          "type": "address"
        },
        {
          "internalType": "uint256",
          "name": "amount",
          "type": "uint256"
        }
      ],
      "name": "applyPayment",
      "outputs": [],
      "stateMutability": "nonpayable",
      "type": "function"
    },
    {
      "inputs": [
        {
          "internalType": "address",
          "name": "creditLineAddress",
          "type": "address"
        }
      ],
      "name": "assessCreditLine",
      "outputs": [],
      "stateMutability": "nonpayable",
      "type": "function"
    },
    {
      "inputs": [],
      "name": "config",
      "outputs": [
        {
          "internalType": "contract GoldfinchConfig",
          "name": "",
          "type": "address"
        }
      ],
      "stateMutability": "view",
      "type": "function"
    },
    {
      "inputs": [
        {
          "internalType": "address",
          "name": "creditLineAddress",
          "type": "address"
        },
        {
          "internalType": "uint256",
          "name": "amount",
          "type": "uint256"
        }
      ],
      "name": "drawdown",
      "outputs": [],
      "stateMutability": "nonpayable",
      "type": "function"
    },
    {
      "inputs": [
        {
          "internalType": "address",
          "name": "borrowerAddress",
          "type": "address"
        }
      ],
      "name": "getBorrowerCreditLines",
      "outputs": [
        {
          "internalType": "address[]",
          "name": "",
          "type": "address[]"
        }
      ],
      "stateMutability": "view",
      "type": "function"
    },
    {
      "inputs": [
        {
          "internalType": "address",
          "name": "creditLineAddress",
          "type": "address"
        },
        {
          "internalType": "uint256",
          "name": "asOf",
          "type": "uint256"
        }
      ],
      "name": "getNextPaymentAmount",
      "outputs": [
        {
          "internalType": "uint256",
          "name": "",
          "type": "uint256"
        }
      ],
      "stateMutability": "view",
      "type": "function"
    },
    {
      "inputs": [
        {
          "internalType": "bytes32",
          "name": "role",
          "type": "bytes32"
        }
      ],
      "name": "getRoleAdmin",
      "outputs": [
        {
          "internalType": "bytes32",
          "name": "",
          "type": "bytes32"
        }
      ],
      "stateMutability": "view",
      "type": "function"
    },
    {
      "inputs": [
        {
          "internalType": "bytes32",
          "name": "role",
          "type": "bytes32"
        },
        {
          "internalType": "uint256",
          "name": "index",
          "type": "uint256"
        }
      ],
      "name": "getRoleMember",
      "outputs": [
        {
          "internalType": "address",
          "name": "",
          "type": "address"
        }
      ],
      "stateMutability": "view",
      "type": "function"
    },
    {
      "inputs": [
        {
          "internalType": "bytes32",
          "name": "role",
          "type": "bytes32"
        }
      ],
      "name": "getRoleMemberCount",
      "outputs": [
        {
          "internalType": "uint256",
          "name": "",
          "type": "uint256"
        }
      ],
      "stateMutability": "view",
      "type": "function"
    },
    {
      "inputs": [
        {
          "internalType": "address",
          "name": "underwriterAddress",
          "type": "address"
        }
      ],
      "name": "getUnderwriterCreditLines",
      "outputs": [
        {
          "internalType": "address[]",
          "name": "",
          "type": "address[]"
        }
      ],
      "stateMutability": "view",
      "type": "function"
    },
    {
      "inputs": [
        {
          "internalType": "bytes32",
          "name": "role",
          "type": "bytes32"
        },
        {
          "internalType": "address",
          "name": "account",
          "type": "address"
        }
      ],
      "name": "grantRole",
      "outputs": [],
      "stateMutability": "nonpayable",
      "type": "function"
    },
    {
      "inputs": [
        {
          "internalType": "bytes32",
          "name": "role",
          "type": "bytes32"
        },
        {
          "internalType": "address",
          "name": "account",
          "type": "address"
        }
      ],
      "name": "hasRole",
      "outputs": [
        {
          "internalType": "bool",
          "name": "",
          "type": "bool"
        }
      ],
      "stateMutability": "view",
      "type": "function"
    },
    {
      "inputs": [
        {
          "internalType": "address",
          "name": "owner",
          "type": "address"
        },
        {
          "internalType": "contract GoldfinchConfig",
          "name": "_config",
          "type": "address"
        }
      ],
      "name": "initialize",
      "outputs": [],
      "stateMutability": "nonpayable",
      "type": "function"
    },
    {
      "inputs": [],
      "name": "isAdmin",
      "outputs": [
        {
          "internalType": "bool",
          "name": "",
          "type": "bool"
        }
      ],
      "stateMutability": "view",
      "type": "function"
    },
    {
      "inputs": [
        {
          "internalType": "address",
          "name": "_clToMigrate",
          "type": "address"
        },
        {
          "internalType": "address",
          "name": "borrower",
          "type": "address"
        },
        {
          "internalType": "uint256",
          "name": "termEndTime",
          "type": "uint256"
        },
        {
          "internalType": "uint256",
          "name": "nextDueTime",
          "type": "uint256"
        },
        {
          "internalType": "uint256",
          "name": "interestAccruedAsOf",
          "type": "uint256"
        },
        {
          "internalType": "uint256",
          "name": "lastFullPaymentTime",
          "type": "uint256"
        },
        {
          "internalType": "uint256",
          "name": "totalInterestPaid",
          "type": "uint256"
        }
      ],
      "name": "migrateV1CreditLine",
      "outputs": [
        {
          "internalType": "address",
          "name": "",
          "type": "address"
        },
        {
          "internalType": "address",
          "name": "",
          "type": "address"
        }
      ],
      "stateMutability": "nonpayable",
      "type": "function"
    },
    {
      "inputs": [],
      "name": "pause",
      "outputs": [],
      "stateMutability": "nonpayable",
      "type": "function"
    },
    {
      "inputs": [],
      "name": "paused",
      "outputs": [
        {
          "internalType": "bool",
          "name": "",
          "type": "bool"
        }
      ],
      "stateMutability": "view",
      "type": "function"
    },
    {
      "inputs": [
        {
          "internalType": "address",
          "name": "creditLineAddress",
          "type": "address"
        },
        {
          "internalType": "uint256",
          "name": "amount",
          "type": "uint256"
        }
      ],
      "name": "pay",
      "outputs": [],
      "stateMutability": "nonpayable",
      "type": "function"
    },
    {
      "inputs": [
        {
          "internalType": "bytes32",
          "name": "role",
          "type": "bytes32"
        },
        {
          "internalType": "address",
          "name": "account",
          "type": "address"
        }
      ],
      "name": "renounceRole",
      "outputs": [],
      "stateMutability": "nonpayable",
      "type": "function"
    },
    {
      "inputs": [
        {
          "internalType": "bytes32",
          "name": "role",
          "type": "bytes32"
        },
        {
          "internalType": "address",
          "name": "account",
          "type": "address"
        }
      ],
      "name": "revokeRole",
      "outputs": [],
      "stateMutability": "nonpayable",
      "type": "function"
    },
    {
      "inputs": [
        {
          "internalType": "address",
          "name": "underwriterAddress",
          "type": "address"
        },
        {
          "internalType": "uint256",
          "name": "limit",
          "type": "uint256"
        }
      ],
      "name": "setUnderwriterGovernanceLimit",
      "outputs": [],
      "stateMutability": "nonpayable",
      "type": "function"
    },
    {
      "inputs": [],
      "name": "totalLoansOutstanding",
      "outputs": [
        {
          "internalType": "uint256",
          "name": "",
          "type": "uint256"
        }
      ],
      "stateMutability": "view",
      "type": "function"
    },
    {
      "inputs": [],
      "name": "totalWritedowns",
      "outputs": [
        {
          "internalType": "uint256",
          "name": "",
          "type": "uint256"
        }
      ],
      "stateMutability": "view",
      "type": "function"
    },
    {
      "inputs": [
        {
          "internalType": "address",
          "name": "",
          "type": "address"
        }
      ],
      "name": "underwriters",
      "outputs": [
        {
          "internalType": "uint256",
          "name": "governanceLimit",
          "type": "uint256"
        }
      ],
      "stateMutability": "view",
      "type": "function"
    },
    {
      "inputs": [],
      "name": "unpause",
      "outputs": [],
      "stateMutability": "nonpayable",
      "type": "function"
    },
    {
      "inputs": [],
      "name": "updateGoldfinchConfig",
      "outputs": [],
      "stateMutability": "nonpayable",
      "type": "function"
    }
  ],
  "transactionHash": "0x88757cefee0c9bc1f834bcb933ee6236327b9b514024721653f911622c3dfac3",
  "args": [],
  "solcInputHash": "a67c4f293a964d2cac7bbf8c9f65d46c",
  "bytecode": "0x608060405234801561001057600080fd5b50614521806100206000396000f3fe608060405234801561001057600080fd5b50600436106101b05760003560e01c80638456cb59116100ef578063c26ff93611610092578063c26ff9361461035c578063c40768761461036f578063ca15c87314610382578063d547741f14610395578063e58378bb146103a8578063e63ab1e9146103b0578063ed80c850146103b8578063f5c7e0e2146103c0576101b0565b80638456cb59146102e25780639010d07c146102ea57806391d14854146102fd57806394a3fcad14610310578063a217fddf14610323578063a6f4487e1461032b578063b6db75a014610333578063c153696f1461033b576101b0565b80634f92a728116101575780634f92a7281461025a578063526d81f6146102625780635c975abb1461026a5780636acab9da1461027f57806374f0314f1461029257806379502c551461029a5780637d533642146102af578063844a28c3146102c2576101b0565b8063097616a3146101b55780630e4645ef146101ca578063248a9ca3146101dd5780632e0c6cfe146102065780632f2ff15d1461021957806336568abe1461022c5780633f4ba83a1461023f578063485cc95514610247575b600080fd5b6101c86101c33660046137d6565b6103d3565b005b6101c86101d83660046138a7565b61050c565b6101f06101eb3660046138f2565b6105d0565b6040516101fd9190613b58565b60405180910390f35b6101c86102143660046138a7565b6105e8565b6101c861022736600461390a565b610703565b6101c861023a36600461390a565b610747565b6101c8610789565b6101c861025536600461386f565b6107c9565b6101c86108af565b6101c861090c565b610272610997565b6040516101fd9190613b4d565b6101c861028d3660046138a7565b6109a0565b6101f0610ed7565b6102a2610ede565b6040516101fd91906139e1565b6101f06102bd3660046137d6565b610eee565b6102d56102d03660046137d6565b610f01565b6040516101fd9190613b00565b6101c8610f7b565b6102a26102f836600461392e565b610fb9565b61027261030b36600461390a565b610fda565b6101f061031e3660046138a7565b610ff2565b6101f061124e565b6101f0611253565b61027261125a565b61034e61034936600461380e565b61127b565b6040516101fd929190613a32565b6102d561036a3660046137d6565b611a39565b6101c861037d3660046138a7565b611aae565b6101f06103903660046138f2565b611b3f565b6101c86103a336600461390a565b611b56565b6101f0611b90565b6101f0611ba2565b6101f0611bb4565b6101c86103ce3660046137d6565b611bbb565b600054610100900460ff16806103ec57506103ec611e27565b806103fa575060005460ff16155b61041f5760405162461bcd60e51b8152600401610416906141c4565b60405180910390fd5b600054610100900460ff1615801561044a576000805460ff1961ff0019909116610100171660011790555b6001600160a01b0382166104705760405162461bcd60e51b815260040161041690614049565b610478611e2d565b610480611eae565b610488611f3a565b6104a06000805160206144ac8339815191528361073d565b6104b86000805160206144cc8339815191528361073d565b6104de6000805160206144cc8339815191526000805160206144ac833981519152611fc9565b6104f66000805160206144ac83398151915280611fc9565b8015610508576000805461ff00191690555b5050565b61051461125a565b6105305760405162461bcd60e51b8152600401610416906143cb565b60975460ff16156105535760405162461bcd60e51b815260040161041690613fa0565b61055c81611fde565b6105785760405162461bcd60e51b815260040161041690614245565b6001600160a01b03821660008181526101c6602052604090819020839055517f7be5403eca163f383a39c2d1f65a8fee2c9e41e7e6b150f4abfe16eaaf1d9076906105c4908490613b58565b60405180910390a25050565b6000818152606560205260409020600201545b919050565b60975460ff161561060b5760405162461bcd60e51b815260040161041690613fa0565b6001600160a01b0380831660009081526101c860205260409020548391166106455760405162461bcd60e51b81526004016104169061407e565b6000839050336001600160a01b0316816001600160a01b0316637df1f1b96040518163ffffffff1660e01b815260040160206040518083038186803b15801561068d57600080fd5b505afa1580156106a1573d6000803e3d6000fd5b505050506040513d601f19601f820116820180604052508101906106c591906137f2565b6001600160a01b0316146106eb5760405162461bcd60e51b8152600401610416906140ab565b6106fd81846106f861206b565b61206f565b50505050565b6000828152606560205260409020600201546107219061030b6121dc565b61073d5760405162461bcd60e51b815260040161041690613c29565b61050882826121e0565b61074f6121dc565b6001600160a01b0316816001600160a01b03161461077f5760405162461bcd60e51b815260040161041690614416565b6105088282612249565b6107a36000805160206144cc83398151915261030b6121dc565b6107bf5760405162461bcd60e51b815260040161041690613d8d565b6107c76122b2565b565b600054610100900460ff16806107e257506107e2611e27565b806107f0575060005460ff16155b61080c5760405162461bcd60e51b8152600401610416906141c4565b600054610100900460ff16158015610837576000805460ff1961ff0019909116610100171660011790555b6001600160a01b0383161580159061085757506001600160a01b03821615155b6108735760405162461bcd60e51b815260040161041690613ca6565b61087c836103d3565b6101c580546001600160a01b0319166001600160a01b03841617905580156108aa576000805461ff00191690555b505050565b6108b761125a565b6108d35760405162461bcd60e51b8152600401610416906143cb565b6101c5546108e9906001600160a01b031661231e565b6101c580546001600160a01b0319166001600160a01b0392909216919091179055565b600054610100900460ff16806109255750610925611e27565b80610933575060005460ff16155b61094f5760405162461bcd60e51b8152600401610416906141c4565b600054610100900460ff1615801561097a576000805460ff1961ff0019909116610100171660011790555b610982611eae565b8015610994576000805461ff00191690555b50565b60975460ff1690565b60975460ff16156109c35760405162461bcd60e51b815260040161041690613fa0565b6001600160a01b0380831660009081526101c860205260409020548391166109fd5760405162461bcd60e51b81526004016104169061407e565b3360009081526101c7602052604090208054849190610a2e5760405162461bcd60e51b815260040161041690613f09565b60008411610a4e5760405162461bcd60e51b8152600401610416906142a2565b336001600160a01b0316826001600160a01b0316637df1f1b96040518163ffffffff1660e01b815260040160206040518083038186803b158015610a9157600080fd5b505afa158015610aa5573d6000803e3d6000fd5b505050506040513d601f19601f82011682018060405250810190610ac991906137f2565b6001600160a01b031614610aef5760405162461bcd60e51b815260040161041690614178565b610af88461239e565b610b145760405162461bcd60e51b815260040161041690613fca565b6000610b1f866123b9565b9050610b2c85828561244d565b610b485760405162461bcd60e51b8152600401610416906142d9565b6000836001600160a01b031663b69ef8a86040518163ffffffff1660e01b815260040160206040518083038186803b158015610b8357600080fd5b505afa158015610b97573d6000803e3d6000fd5b505050506040513d601f19601f82011682018060405250810190610bbb91906139a6565b905080610c8d57836001600160a01b031663a6b1ae0d610bd961206b565b6040518263ffffffff1660e01b8152600401610bf59190613b58565b600060405180830381600087803b158015610c0f57600080fd5b505af1158015610c23573d6000803e3d6000fd5b50505050836001600160a01b03166336d91494610c3e61206b565b6040518263ffffffff1660e01b8152600401610c5a9190613b58565b600060405180830381600087803b158015610c7457600080fd5b505af1158015610c88573d6000803e3d6000fd5b505050505b6101c554600090610ca6906001600160a01b0316612511565b905060008315610d765783881115610ccb575082610cc4888261251c565b9750610cd0565b506000965b6040516323b872dd60e01b81526000906001600160a01b038416906323b872dd90610d03908d90339087906004016139f5565b602060405180830381600087803b158015610d1d57600080fd5b505af1158015610d31573d6000803e3d6000fd5b505050506040513d601f19601f82011682018060405250810190610d5591906138d2565b905080610d745760405162461bcd60e51b815260040161041690613e10565b505b600080610d8a88610d8561206b565b61255e565b9092509050610d99858b612706565b9450610da78886848461272b565b610db888610db361206b565b612b40565b15610dd55760405162461bcd60e51b815260040161041690613cf0565b6001600160a01b038816337f7ec4669c579321a5cf5a6b525637eb0924a93e2e11eab9d14be8b44de1116b1b610e0b8d87612706565b604051610e189190613b58565b60405180910390a38915610eca576040516335655ced60e11b81526000906001600160a01b03861690636acab9da90610e579033908f90600401613a19565b602060405180830381600087803b158015610e7157600080fd5b505af1158015610e85573d6000803e3d6000fd5b505050506040513d601f19601f82011682018060405250810190610ea991906138d2565b905080610ec85760405162461bcd60e51b815260040161041690613e10565b505b5050505050505050505050565b6201518081565b6101c5546001600160a01b031681565b6101c66020526000908152604090205481565b6001600160a01b03811660009081526101c66020908152604091829020600101805483518184028101840190945280845260609392830182828015610f6f57602002820191906000526020600020905b81546001600160a01b03168152600190910190602001808311610f51575b50505050509050919050565b610f956000805160206144cc83398151915261030b6121dc565b610fb15760405162461bcd60e51b815260040161041690613d8d565b6107c7612c08565b6000828152606560205260408120610fd19083612c61565b90505b92915050565b6000828152606560205260408120610fd19083612c6d565b6001600160a01b0380831660009081526101c86020526040812054909184911661102e5760405162461bcd60e51b81526004016104169061407e565b8261103e5761103b61206b565b92505b6000849050806001600160a01b031663d28459776040518163ffffffff1660e01b815260040160206040518083038186803b15801561107c57600080fd5b505afa158015611090573d6000803e3d6000fd5b505050506040513d601f19601f820116820180604052508101906110b491906139a6565b841080156110cb57506110c981610db361206b565b155b156110da576000925050611247565b6101c554600090819073299e6e0fc560438079349f0A8d74C3d925ee59b09063101c84309085908990611115906001600160a01b0316612c82565b6040518463ffffffff1660e01b815260040161113393929190613adf565b604080518083038186803b15801561114a57600080fd5b505af415801561115e573d6000803e3d6000fd5b505050506040513d601f19601f8201168201806040525081019061118291906139be565b9150915061124161120482856001600160a01b031663193501146040518163ffffffff1660e01b815260040160206040518083038186803b1580156111c657600080fd5b505afa1580156111da573d6000803e3d6000fd5b505050506040513d601f19601f820116820180604052508101906111fe91906139a6565b90612706565b6111fe84866001600160a01b03166321856b366040518163ffffffff1660e01b815260040160206040518083038186803b1580156111c657600080fd5b94505050505b5092915050565b600081565b6101c35481565b60006112766000805160206144ac83398151915261030b6121dc565b905090565b60008061128661125a565b6112a25760405162461bcd60e51b8152600401610416906143cb565b60008990506000816001600160a01b031663b69ef8a86040518163ffffffff1660e01b815260040160206040518083038186803b1580156112e257600080fd5b505afa1580156112f6573d6000803e3d6000fd5b505050506040513d601f19601f8201168201806040525081019061131a91906139a6565b90506000826001600160a01b031663a4d66daf6040518163ffffffff1660e01b815260040160206040518083038186803b15801561135757600080fd5b505afa15801561136b573d6000803e3d6000fd5b505050506040513d601f19601f8201168201806040525081019061138f91906139a6565b116113ac5760405162461bcd60e51b815260040161041690614012565b600081116113cc5760405162461bcd60e51b815260040161041690613d3a565b6000826001600160a01b031663500b245e6040518163ffffffff1660e01b815260040160206040518083038186803b15801561140757600080fd5b505afa15801561141b573d6000803e3d6000fd5b505050506040513d601f19601f8201168201806040525081019061143f91906139a6565b1161145c5760405162461bcd60e51b815260040161041690614337565b6001600160a01b038a166114de57816001600160a01b0316637df1f1b96040518163ffffffff1660e01b815260040160206040518083038186803b1580156114a357600080fd5b505afa1580156114b7573d6000803e3d6000fd5b505050506040513d601f19601f820116820180604052508101906114db91906137f2565b99505b6402540be400606060006114f0612cb2565b6001600160a01b031663180f0e018e6014886001600160a01b031663a4d66daf6040518163ffffffff1660e01b815260040160206040518083038186803b15801561153a57600080fd5b505afa15801561154e573d6000803e3d6000fd5b505050506040513d601f19601f8201168201806040525081019061157291906139a6565b6115ed888b6001600160a01b031663b39699926040518163ffffffff1660e01b815260040160206040518083038186803b1580156115af57600080fd5b505afa1580156115c3573d6000803e3d6000fd5b505050506040513d601f19601f820116820180604052508101906115e791906139a6565b90612d35565b8a6001600160a01b03166399dd8df36040518163ffffffff1660e01b815260040160206040518083038186803b15801561162657600080fd5b505afa15801561163a573d6000803e3d6000fd5b505050506040513d601f19601f8201168201806040525081019061165e91906139a6565b8b6001600160a01b03166348e6f2966040518163ffffffff1660e01b815260040160206040518083038186803b15801561169757600080fd5b505afa1580156116ab573d6000803e3d6000fd5b505050506040513d601f19601f820116820180604052508101906116cf91906139a6565b8c6001600160a01b031663f0b25bde6040518163ffffffff1660e01b815260040160206040518083038186803b15801561170857600080fd5b505afa15801561171c573d6000803e3d6000fd5b505050506040513d601f19601f8201168201806040525081019061174091906139a6565b6000808c6040518b63ffffffff1660e01b81526004016117699a99989796959493929190613a4c565b602060405180830381600087803b15801561178357600080fd5b505af1158015611797573d6000803e3d6000fd5b505050506040513d601f19601f820116820180604052508101906117bb91906137f2565b90506000816001600160a01b031663895465d1878f8f8f8f8f6040518763ffffffff1660e01b81526004016117f596959493929190613b61565b602060405180830381600087803b15801561180f57600080fd5b505af1158015611823573d6000803e3d6000fd5b505050506040513d601f19601f8201168201806040525081019061184791906137f2565b6040516327ea6f2b60e01b81529091506001600160a01b038716906327ea6f2b9061187790600090600401613b58565b600060405180830381600087803b15801561189157600080fd5b505af11580156118a5573d6000803e3d6000fd5b5050604051637d8b34e560e11b81526001600160a01b038916925063fb1669ca91506118d690600090600401613b58565b600060405180830381600087803b1580156118f057600080fd5b505af1158015611904573d6000803e3d6000fd5b5050505084816001600160a01b031663b69ef8a86040518163ffffffff1660e01b815260040160206040518083038186803b15801561194257600080fd5b505afa158015611956573d6000803e3d6000fd5b505050506040513d601f19601f8201168201806040525081019061197a91906139a6565b146119975760405162461bcd60e51b815260040161041690613e85565b8a816001600160a01b031663bbafcb406040518163ffffffff1660e01b815260040160206040518083038186803b1580156119d157600080fd5b505afa1580156119e5573d6000803e3d6000fd5b505050506040513d601f19601f82011682018060405250810190611a0991906139a6565b14611a265760405162461bcd60e51b815260040161041690613eba565b9e909d509b505050505050505050505050565b6001600160a01b03811660009081526101c76020908152604091829020805483518184028101840190945280845260609392830182828015610f6f576020028201919060005260206000209081546001600160a01b03168152600190910190602001808311610f515750505050509050919050565b60975460ff1615611ad15760405162461bcd60e51b815260040161041690613fa0565b6001600160a01b0380831660009081526101c86020526040902054839116611b0b5760405162461bcd60e51b81526004016104169061407e565b60008211611b2b5760405162461bcd60e51b815260040161041690614363565b82611b368184612d6f565b6106fd84611bbb565b6000818152606560205260408120610fd490612e98565b600082815260656020526040902060020154611b749061030b6121dc565b61077f5760405162461bcd60e51b815260040161041690613f50565b6000805160206144ac83398151915281565b6000805160206144cc83398151915281565b6101c45481565b60975460ff1615611bde5760405162461bcd60e51b815260040161041690613fa0565b6001600160a01b0380821660009081526101c86020526040902054829116611c185760405162461bcd60e51b81526004016104169061407e565b60008290506000816001600160a01b031663b69ef8a86040518163ffffffff1660e01b815260040160206040518083038186803b158015611c5857600080fd5b505afa158015611c6c573d6000803e3d6000fd5b505050506040513d601f19601f82011682018060405250810190611c9091906139a6565b11611cad5760405162461bcd60e51b8152600401610416906140f0565b806001600160a01b031663d28459776040518163ffffffff1660e01b815260040160206040518083038186803b158015611ce657600080fd5b505afa158015611cfa573d6000803e3d6000fd5b505050506040513d601f19601f82011682018060405250810190611d1e91906139a6565b611d2661206b565b108015611d3c5750611d3a81610db361206b565b155b15611d475750610508565b6000611d5282612ea3565b604051631352074160e11b81529091506001600160a01b038316906326a40e8290611d81908490600401613b58565b600060405180830381600087803b158015611d9b57600080fd5b505af1158015611daf573d6000803e3d6000fd5b50505050611dbb61206b565b811115611e14576000611e0462015180846001600160a01b03166399dd8df36040518163ffffffff1660e01b815260040160206040518083038186803b1580156115af57600080fd5b9050611e10828261251c565b9150505b6106fd82611e21846123b9565b8361206f565b303b1590565b600054610100900460ff1680611e465750611e46611e27565b80611e54575060005460ff16155b611e705760405162461bcd60e51b8152600401610416906141c4565b600054610100900460ff16158015610982576000805460ff1961ff0019909116610100171660011790558015610994576000805461ff001916905550565b600054610100900460ff1680611ec75750611ec7611e27565b80611ed5575060005460ff16155b611ef15760405162461bcd60e51b8152600401610416906141c4565b600054610100900460ff16158015611f1c576000805460ff1961ff0019909116610100171660011790555b6097805460ff191690558015610994576000805461ff001916905550565b600054610100900460ff1680611f535750611f53611e27565b80611f61575060005460ff16155b611f7d5760405162461bcd60e51b8152600401610416906141c4565b600054610100900460ff16158015611fa8576000805460ff1961ff0019909116610100171660011790555b60c9805460ff191660011790558015610994576000805461ff001916905550565b60009182526065602052604090912060020155565b6101c5546000906001600160a01b031663fc56365860025b6040518263ffffffff1660e01b81526004016120129190613b58565b60206040518083038186803b15801561202a57600080fd5b505afa15801561203e573d6000803e3d6000fd5b505050506040513d601f19601f8201168201806040525081019061206291906139a6565b90911115919050565b4290565b600080600061207f868686613124565b6101c55492955090935091506000906120a0906001600160a01b0316612511565b905060008311806120b15750600082115b156121d357866001600160a01b0316876001600160a01b0316637df1f1b96040518163ffffffff1660e01b815260040160206040518083038186803b1580156120f957600080fd5b505afa15801561210d573d6000803e3d6000fd5b505050506040513d601f19601f8201168201806040525081019061213191906137f2565b6001600160a01b03167f724fe786cff62c97ff230e98a332f95c5a11990e44123a00c2b8e76b0566e41185858860405161216d93929190614465565b60405180910390a36040516371bb0bab60e01b81526001600160a01b038216906371bb0bab906121a5908a9087908790600401613adf565b600060405180830381600087803b1580156121bf57600080fd5b505af1158015610eca573d6000803e3d6000fd5b50505050505050565b3390565b60008281526065602052604090206121f8908261339f565b15610508576122056121dc565b6001600160a01b0316816001600160a01b0316837f2f8788117e7eff1d82e926ec794901d17c78024a50270940304540a733656f0d60405160405180910390a45050565b600082815260656020526040902061226190826133b4565b156105085761226e6121dc565b6001600160a01b0316816001600160a01b0316837ff6391f5c32d9c69d2a47ea670b442974b53935d1edc7fd64eb21e047a839171b60405160405180910390a45050565b60975460ff166122d45760405162461bcd60e51b815260040161041690613c78565b6097805460ff191690557f5db9ee0a495bf2e6ff9c91a7834c1ba4fdd244a5e8aa4e537bd38aeae4b073aa6123076121dc565b60405161231491906139e1565b60405180910390a1565b60006001600160a01b03821663b93f9b0a600b5b6040518263ffffffff1660e01b815260040161234e9190613b58565b60206040518083038186803b15801561236657600080fd5b505afa15801561237a573d6000803e3d6000fd5b505050506040513d601f19601f82011682018060405250810190610fd491906137f2565b6101c5546000906001600160a01b031663fc56365882611ff6565b6101c5546000906123d2906001600160a01b03166133c9565b6001600160a01b03166370a08231836040518263ffffffff1660e01b81526004016123fd91906139e1565b60206040518083038186803b15801561241557600080fd5b505afa158015612429573d6000803e3d6000fd5b505050506040513d601f19601f82011682018060405250810190610fd491906139a6565b6000816001600160a01b031663a4d66daf6040518163ffffffff1660e01b815260040160206040518083038186803b15801561248857600080fd5b505afa15801561249c573d6000803e3d6000fd5b505050506040513d601f19601f820116820180604052508101906124c091906139a6565b6125078461250187866001600160a01b031663b69ef8a86040518163ffffffff1660e01b815260040160206040518083038186803b1580156111c657600080fd5b9061251c565b1115949350505050565b6000610fd4826133d4565b6000610fd183836040518060400160405280601e81526020017f536166654d6174683a207375627472616374696f6e206f766572666c6f7700008152506133eb565b60008060008073299e6e0fc560438079349f0A8d74C3d925ee59b063101c843087876125a86101c560009054906101000a90046001600160a01b03166001600160a01b0316612c82565b6040518463ffffffff1660e01b81526004016125c693929190613adf565b604080518083038186803b1580156125dd57600080fd5b505af41580156125f1573d6000803e3d6000fd5b505050506040513d601f19601f8201168201806040525081019061261591906139be565b9092509050811561267f5760405163a6b1ae0d60e01b81526001600160a01b0387169063a6b1ae0d9061264c908890600401613b58565b600060405180830381600087803b15801561266657600080fd5b505af115801561267a573d6000803e3d6000fd5b505050505b6126bc82876001600160a01b03166321856b366040518163ffffffff1660e01b815260040160206040518083038186803b1580156111c657600080fd5b6126f982886001600160a01b031663193501146040518163ffffffff1660e01b815260040160206040518083038186803b1580156111c657600080fd5b9350935050509250929050565b600082820183811015610fd15760405162461bcd60e51b815260040161041690613dd9565b60c95460ff1661274d5760405162461bcd60e51b815260040161041690614394565b60c9805460ff19169055604080516316d3df1560e31b815290516127de916001600160a01b0387169163b69ef8a891600480820192602092909190829003018186803b15801561279c57600080fd5b505afa1580156127b0573d6000803e3d6000fd5b505050506040513d601f19601f820116820180604052508101906127d491906139a6565b6101c4549061251c565b6101c455604051637d8b34e560e11b81526001600160a01b0385169063fb1669ca9061280e908690600401613b58565b600060405180830381600087803b15801561282857600080fd5b505af115801561283c573d6000803e3d6000fd5b50506040516396c8df3760e01b81526001600160a01b03871692506396c8df37915061286c908590600401613b58565b600060405180830381600087803b15801561288657600080fd5b505af115801561289a573d6000803e3d6000fd5b505060405163b3b8a9c760e01b81526001600160a01b038716925063b3b8a9c791506128ca908490600401613b58565b600060405180830381600087803b1580156128e457600080fd5b505af11580156128f8573d6000803e3d6000fd5b505050506000846001600160a01b031663d28459776040518163ffffffff1660e01b815260040160206040518083038186803b15801561293757600080fd5b505afa15801561294b573d6000803e3d6000fd5b505050506040513d601f19601f8201168201806040525081019061296f91906139a6565b90508215801561297e57508015155b15612a4d5760008161298e61206b565b10156129ea5760006129d662015180886001600160a01b03166399dd8df36040518163ffffffff1660e01b815260040160206040518083038186803b1580156115af57600080fd5b90506129e2838261251c565b9150506129ed565b50805b604051630db6452560e21b81526001600160a01b038716906336d9149490612a19908490600401613b58565b600060405180830381600087803b158015612a3357600080fd5b505af1158015612a47573d6000803e3d6000fd5b50505050505b6101c454612a5b9085612706565b6101c4556001600160a01b038516637ae14b09612a788787613417565b6040518263ffffffff1660e01b8152600401612a949190613b58565b600060405180830381600087803b158015612aae57600080fd5b505af1158015612ac2573d6000803e3d6000fd5b50505050846001600160a01b03166326a40e82612ade87612ea3565b6040518263ffffffff1660e01b8152600401612afa9190613b58565b600060405180830381600087803b158015612b1457600080fd5b505af1158015612b28573d6000803e3d6000fd5b505060c9805460ff1916600117905550505050505050565b600080612bbe846001600160a01b031663ce78290d6040518163ffffffff1660e01b815260040160206040518083038186803b158015612b7f57600080fd5b505afa158015612b93573d6000803e3d6000fd5b505050506040513d601f19601f82011682018060405250810190612bb791906139a6565b849061251c565b9050612c0062015180856001600160a01b03166399dd8df36040518163ffffffff1660e01b815260040160206040518083038186803b1580156115af57600080fd5b109392505050565b60975460ff1615612c2b5760405162461bcd60e51b815260040161041690613fa0565b6097805460ff191660011790557f62e78cea01bee320cd4e420270b5ea74000d11b0c9f74754ebdbfc544b05a2586123076121dc565b6000610fd1838361359d565b6000610fd1836001600160a01b0384166135e2565b604051631f8ac6cb60e31b81526000906001600160a01b0383169063fc563658906123fd90600590600401613b58565b6101c554604051635c9fcd8560e11b81526000916001600160a01b03169063b93f9b0a90612ce590600290600401613b58565b60206040518083038186803b158015612cfd57600080fd5b505afa158015612d11573d6000803e3d6000fd5b505050506040513d601f19601f8201168201806040525081019061127691906137f2565b600082612d4457506000610fd4565b82820282848281612d5157fe5b0414610fd15760405162461bcd60e51b815260040161041690614137565b612d788161239e565b612d945760405162461bcd60e51b815260040161041690613fca565b816001600160a01b0316336001600160a01b03167fc4036209c61f1d5aad789d2b8fa9ca23bf8b1516748d2e0be7227bf3fce67d2d83604051612dd79190613b58565b60405180910390a36101c554600090612df8906001600160a01b0316612511565b6001600160a01b03166323b872dd3385856040518463ffffffff1660e01b8152600401612e27939291906139f5565b602060405180830381600087803b158015612e4157600080fd5b505af1158015612e55573d6000803e3d6000fd5b505050506040513d601f19601f82011682018060405250810190612e7991906138d2565b9050806108aa5760405162461bcd60e51b815260040161041690614212565b6000610fd4826135fa565b600080612ee662015180846001600160a01b03166399dd8df36040518163ffffffff1660e01b815260040160206040518083038186803b1580156115af57600080fd5b90506000836001600160a01b031663b69ef8a86040518163ffffffff1660e01b815260040160206040518083038186803b158015612f2357600080fd5b505afa158015612f37573d6000803e3d6000fd5b505050506040513d601f19601f82011682018060405250810190612f5b91906139a6565b90506000846001600160a01b031663d28459776040518163ffffffff1660e01b815260040160206040518083038186803b158015612f9857600080fd5b505afa158015612fac573d6000803e3d6000fd5b505050506040513d601f19601f82011682018060405250810190612fd091906139a6565b90506000612fdc61206b565b905081158015612fec5750600083115b1561300657612ffb8185612706565b9450505050506105e3565b6000831180156130165750818110155b156130ce57600061303a856115e760016111fe83613034888a61251c565b906135fe565b90506130468382612706565b92506130c283886001600160a01b03166364fb2d956040518163ffffffff1660e01b815260040160206040518083038186803b15801561308557600080fd5b505afa158015613099573d6000803e3d6000fd5b505050506040513d601f19601f820116820180604052508101906130bd91906139a6565b613640565b955050505050506105e3565b821580156130db57508115155b156130ed5760009450505050506105e3565b6000831180156130fc57508181105b1561310c575092506105e3915050565b60405162461bcd60e51b815260040161041690613e3c565b6000806000806000613136888761255e565b915091506131426137b5565b73299e6e0fc560438079349f0A8d74C3d925ee59b063d7cc2a03898b6001600160a01b031663b69ef8a86040518163ffffffff1660e01b815260040160206040518083038186803b15801561319657600080fd5b505afa1580156131aa573d6000803e3d6000fd5b505050506040513d601f19601f820116820180604052508101906131ce91906139a6565b86866040518563ffffffff1660e01b81526004016131ef949392919061447b565b60606040518083038186803b15801561320757600080fd5b505af415801561321b573d6000803e3d6000fd5b505050506040513d601f19601f8201168201806040525081019061323f919061394f565b905060006132bc82602001518b6001600160a01b031663b69ef8a86040518163ffffffff1660e01b815260040160206040518083038186803b15801561328457600080fd5b505afa158015613298573d6000803e3d6000fd5b505050506040513d601f19601f8201168201806040525081019061250191906139a6565b90506132d582604001518261251c90919063ffffffff16565b90506000613316828c6001600160a01b031663b69ef8a86040518163ffffffff1660e01b815260040160206040518083038186803b15801561328457600080fd5b905060006133358261250186600001518e61251c90919063ffffffff16565b90506133688c8461335387600001518a61251c90919063ffffffff16565b6020880151613363908a9061251c565b61272b565b8a613384836111fe87600001518561270690919063ffffffff16565b1461338b57fe5b9251929b929a509850909650505050505050565b6000610fd1836001600160a01b038416613656565b6000610fd1836001600160a01b0384166136a0565b6000610fd482613766565b60006001600160a01b03821663b93f9b0a82612332565b6000818484111561340f5760405162461bcd60e51b81526004016104169190613b94565b505050900390565b60008161342657506000610fd4565b826001600160a01b03166364fb2d956040518163ffffffff1660e01b815260040160206040518083038186803b15801561345f57600080fd5b505afa158015613473573d6000803e3d6000fd5b505050506040513d601f19601f8201168201806040525081019061349791906139a6565b1561351457826001600160a01b03166364fb2d956040518163ffffffff1660e01b815260040160206040518083038186803b1580156134d557600080fd5b505afa1580156134e9573d6000803e3d6000fd5b505050506040513d601f19601f8201168201806040525081019061350d91906139a6565b9050610fd4565b610fd1613595846001600160a01b03166348e6f2966040518163ffffffff1660e01b815260040160206040518083038186803b15801561355357600080fd5b505afa158015613567573d6000803e3d6000fd5b505050506040513d601f19601f8201168201806040525081019061358b91906139a6565b6201518090612d35565b6111fe61206b565b815460009082106135c05760405162461bcd60e51b815260040161041690613be7565b8260000182815481106135cf57fe5b9060005260206000200154905092915050565b60009081526001919091016020526040902054151590565b5490565b6000610fd183836040518060400160405280601a81526020017f536166654d6174683a206469766973696f6e206279207a65726f00000000000081525061377e565b600081831061364f5781610fd1565b5090919050565b600061366283836135e2565b61369857508154600181810184556000848152602080822090930184905584548482528286019093526040902091909155610fd4565b506000610fd4565b6000818152600183016020526040812054801561375c57835460001980830191908101906000908790839081106136d357fe5b90600052602060002001549050808760000184815481106136f057fe5b60009182526020808320909101929092558281526001898101909252604090209084019055865487908061372057fe5b60019003818190600052602060002001600090559055866001016000878152602001908152602001600020600090556001945050505050610fd4565b6000915050610fd4565b60006001600160a01b03821663b93f9b0a6005612332565b6000818361379f5760405162461bcd60e51b81526004016104169190613b94565b5060008385816137ab57fe5b0495945050505050565b60405180606001604052806000815260200160008152602001600081525090565b6000602082840312156137e7578081fd5b8135610fd181614496565b600060208284031215613803578081fd5b8151610fd181614496565b600080600080600080600060e0888a031215613828578283fd5b873561383381614496565b9650602088013561384381614496565b96999698505050506040850135946060810135946080820135945060a0820135935060c0909101359150565b60008060408385031215613881578182fd5b823561388c81614496565b9150602083013561389c81614496565b809150509250929050565b600080604083850312156138b9578182fd5b82356138c481614496565b946020939093013593505050565b6000602082840312156138e3578081fd5b81518015158114610fd1578182fd5b600060208284031215613903578081fd5b5035919050565b6000806040838503121561391c578182fd5b82359150602083013561389c81614496565b60008060408385031215613940578182fd5b50508035926020909101359150565b600060608284031215613960578081fd5b6040516060810181811067ffffffffffffffff8211171561397f578283fd5b80604052508251815260208301516020820152604083015160408201528091505092915050565b6000602082840312156139b7578081fd5b5051919050565b600080604083850312156139d0578182fd5b505080516020909101519092909150565b6001600160a01b0391909116815260200190565b6001600160a01b039384168152919092166020820152604081019190915260600190565b6001600160a01b03929092168252602082015260400190565b6001600160a01b0392831681529116602082015260400190565b600061014080830160018060a01b038e16845260208d818601528c60408601528b60608601528a60808601528960a08601528860c08601528760e086015286610100860152826101208601528192508551808352610160860193508187019250845b81811015613aca57835185529382019392820192600101613aae565b50929f9e505050505050505050505050505050565b6001600160a01b039390931683526020830191909152604082015260600190565b6020808252825182820181905260009190848201906040850190845b81811015613b415783516001600160a01b031683529284019291840191600101613b1c565b50909695505050505050565b901515815260200190565b90815260200190565b6001600160a01b03969096168652602086019490945260408501929092526060840152608083015260a082015260c00190565b6000602080835283518082850152825b81811015613bc057858101830151858201604001528201613ba4565b81811115613bd15783604083870101525b50601f01601f1916929092016040019392505050565b60208082526022908201527f456e756d657261626c655365743a20696e646578206f7574206f6620626f756e604082015261647360f01b606082015260800190565b6020808252602f908201527f416363657373436f6e74726f6c3a2073656e646572206d75737420626520616e60408201526e0818591b5a5b881d1bc819dc985b9d608a1b606082015260800190565b60208082526014908201527314185d5cd8589b194e881b9bdd081c185d5cd95960621b604082015260600190565b6020808252602a908201527f4f776e657220616e6420636f6e666967206164647265737365732063616e6e6f6040820152697420626520656d70747960b01b606082015260800190565b6020808252602a908201527f43616e6e6f742064726177646f776e207768656e207061796d656e74732061726040820152696520706173742064756560b01b606082015260800190565b60208082526033908201527f43616e2774206d69677261746520637265646974206c696e65207468617427736040820152721031bab93932b73a363c903830b4b21037b33360691b606082015260800190565b6020808252602c908201527f4d75737420686176652070617573657220726f6c6520746f20706572666f726d60408201526b103a3434b99030b1ba34b7b760a11b606082015260800190565b6020808252601b908201527f536166654d6174683a206164646974696f6e206f766572666c6f770000000000604082015260600190565b6020808252601290820152712330b4b632b2103a3790323930bbb237bbb760711b604082015260600190565b60208082526029908201527f4572726f723a20636f756c64206e6f742063616c63756c617465206e65787420604082015268323ab2903a34b6b29760b91b606082015260800190565b6020808252818101527f42616c616e636520646964206e6f74206d6967726174652070726f7065726c79604082015260600190565b6020808252602f908201527f496e7465726573742061636372756564206173206f6620646964206e6f74206d60408201526e6967726174652070726f7065726c7960881b606082015260800190565b60208082526027908201527f4e6f20637265646974206c696e657320657869737420666f722074686973206260408201526637b93937bbb2b960c91b606082015260800190565b60208082526030908201527f416363657373436f6e74726f6c3a2073656e646572206d75737420626520616e60408201526f2061646d696e20746f207265766f6b6560801b606082015260800190565b60208082526010908201526f14185d5cd8589b194e881c185d5cd95960821b604082015260600190565b60208082526028908201527f416d6f756e74206973206f76657220746865207065722d7472616e73616374696040820152671bdb881b1a5b5a5d60c21b606082015260800190565b6020808252601f908201527f43616e2774206d69677261746520656d70747920637265646974206c696e6500604082015260600190565b6020808252818101527f4f776e65722063616e6e6f7420626520746865207a65726f2061646472657373604082015260600190565b602080825260139082015272556e6b6e6f776e20637265646974206c696e6560681b604082015260600190565b60208082526025908201527f596f7520646f206e6f742062656c6f6e6720746f207468697320637265646974604082015264206c696e6560d81b606082015260800190565b60208082526027908201527f4d75737420686176652062616c616e636520746f2061737365737320637265646040820152666974206c696e6560c81b606082015260800190565b60208082526021908201527f536166654d6174683a206d756c7469706c69636174696f6e206f766572666c6f6040820152607760f81b606082015260800190565b6020808252602c908201527f596f7520617265206e6f742074686520626f72726f776572206f66207468697360408201526b20637265646974206c696e6560a01b606082015260800190565b6020808252602e908201527f436f6e747261637420696e7374616e63652068617320616c726561647920626560408201526d195b881a5b9a5d1a585b1a5e995960921b606082015260800190565b60208082526019908201527811985a5b1959081d1bc818dbdb1b1958dd081c185e5b595b9d603a1b604082015260600190565b6020808252603a908201527f54686973206c696d69742069732067726561746572207468616e20746865206d60408201527f617820616c6c6f776564206279207468652070726f746f636f6c000000000000606082015260800190565b6020808252601c908201527f4d7573742064726177646f776e206d6f7265207468616e207a65726f00000000604082015260600190565b602080825260409082018190527f54686520626f72726f77657220646f6573206e6f74206861766520656e6f7567908201527f6820637265646974206c696d697420666f7220746869732064726177646f776e606082015260800190565b602080825260129082015271496e76616c6964206372656469746c696e6560701b604082015260600190565b6020808252601790820152764d75737420706179206d6f7265207468616e207a65726f60481b604082015260600190565b6020808252601f908201527f5265656e7472616e637947756172643a207265656e7472616e742063616c6c00604082015260600190565b6020808252602b908201527f4d75737420686176652061646d696e20726f6c6520746f20706572666f726d2060408201526a3a3434b99030b1ba34b7b760a91b606082015260800190565b6020808252602f908201527f416363657373436f6e74726f6c3a2063616e206f6e6c792072656e6f756e636560408201526e103937b632b9903337b91039b2b63360891b606082015260800190565b9283526020830191909152604082015260600190565b93845260208401929092526040830152606082015260800190565b6001600160a01b038116811461099457600080fdfeb19546dff01e856fb3f010c267a7b1c60363cf8a4664e21cc89c26224620214e65d7a28e3265b37a6474929f336521b332c1681b933f6cb9f3376673440d862aa2646970667358221220d3b58abc4936e66ea4765d17aec3efedcfb47d002dabde00e85d7b1546cb77da64736f6c634300060c0033",
  "deployedBytecode": "0x608060405234801561001057600080fd5b50600436106101b05760003560e01c80638456cb59116100ef578063c26ff93611610092578063c26ff9361461035c578063c40768761461036f578063ca15c87314610382578063d547741f14610395578063e58378bb146103a8578063e63ab1e9146103b0578063ed80c850146103b8578063f5c7e0e2146103c0576101b0565b80638456cb59146102e25780639010d07c146102ea57806391d14854146102fd57806394a3fcad14610310578063a217fddf14610323578063a6f4487e1461032b578063b6db75a014610333578063c153696f1461033b576101b0565b80634f92a728116101575780634f92a7281461025a578063526d81f6146102625780635c975abb1461026a5780636acab9da1461027f57806374f0314f1461029257806379502c551461029a5780637d533642146102af578063844a28c3146102c2576101b0565b8063097616a3146101b55780630e4645ef146101ca578063248a9ca3146101dd5780632e0c6cfe146102065780632f2ff15d1461021957806336568abe1461022c5780633f4ba83a1461023f578063485cc95514610247575b600080fd5b6101c86101c33660046137d6565b6103d3565b005b6101c86101d83660046138a7565b61050c565b6101f06101eb3660046138f2565b6105d0565b6040516101fd9190613b58565b60405180910390f35b6101c86102143660046138a7565b6105e8565b6101c861022736600461390a565b610703565b6101c861023a36600461390a565b610747565b6101c8610789565b6101c861025536600461386f565b6107c9565b6101c86108af565b6101c861090c565b610272610997565b6040516101fd9190613b4d565b6101c861028d3660046138a7565b6109a0565b6101f0610ed7565b6102a2610ede565b6040516101fd91906139e1565b6101f06102bd3660046137d6565b610eee565b6102d56102d03660046137d6565b610f01565b6040516101fd9190613b00565b6101c8610f7b565b6102a26102f836600461392e565b610fb9565b61027261030b36600461390a565b610fda565b6101f061031e3660046138a7565b610ff2565b6101f061124e565b6101f0611253565b61027261125a565b61034e61034936600461380e565b61127b565b6040516101fd929190613a32565b6102d561036a3660046137d6565b611a39565b6101c861037d3660046138a7565b611aae565b6101f06103903660046138f2565b611b3f565b6101c86103a336600461390a565b611b56565b6101f0611b90565b6101f0611ba2565b6101f0611bb4565b6101c86103ce3660046137d6565b611bbb565b600054610100900460ff16806103ec57506103ec611e27565b806103fa575060005460ff16155b61041f5760405162461bcd60e51b8152600401610416906141c4565b60405180910390fd5b600054610100900460ff1615801561044a576000805460ff1961ff0019909116610100171660011790555b6001600160a01b0382166104705760405162461bcd60e51b815260040161041690614049565b610478611e2d565b610480611eae565b610488611f3a565b6104a06000805160206144ac8339815191528361073d565b6104b86000805160206144cc8339815191528361073d565b6104de6000805160206144cc8339815191526000805160206144ac833981519152611fc9565b6104f66000805160206144ac83398151915280611fc9565b8015610508576000805461ff00191690555b5050565b61051461125a565b6105305760405162461bcd60e51b8152600401610416906143cb565b60975460ff16156105535760405162461bcd60e51b815260040161041690613fa0565b61055c81611fde565b6105785760405162461bcd60e51b815260040161041690614245565b6001600160a01b03821660008181526101c6602052604090819020839055517f7be5403eca163f383a39c2d1f65a8fee2c9e41e7e6b150f4abfe16eaaf1d9076906105c4908490613b58565b60405180910390a25050565b6000818152606560205260409020600201545b919050565b60975460ff161561060b5760405162461bcd60e51b815260040161041690613fa0565b6001600160a01b0380831660009081526101c860205260409020548391166106455760405162461bcd60e51b81526004016104169061407e565b6000839050336001600160a01b0316816001600160a01b0316637df1f1b96040518163ffffffff1660e01b815260040160206040518083038186803b15801561068d57600080fd5b505afa1580156106a1573d6000803e3d6000fd5b505050506040513d601f19601f820116820180604052508101906106c591906137f2565b6001600160a01b0316146106eb5760405162461bcd60e51b8152600401610416906140ab565b6106fd81846106f861206b565b61206f565b50505050565b6000828152606560205260409020600201546107219061030b6121dc565b61073d5760405162461bcd60e51b815260040161041690613c29565b61050882826121e0565b61074f6121dc565b6001600160a01b0316816001600160a01b03161461077f5760405162461bcd60e51b815260040161041690614416565b6105088282612249565b6107a36000805160206144cc83398151915261030b6121dc565b6107bf5760405162461bcd60e51b815260040161041690613d8d565b6107c76122b2565b565b600054610100900460ff16806107e257506107e2611e27565b806107f0575060005460ff16155b61080c5760405162461bcd60e51b8152600401610416906141c4565b600054610100900460ff16158015610837576000805460ff1961ff0019909116610100171660011790555b6001600160a01b0383161580159061085757506001600160a01b03821615155b6108735760405162461bcd60e51b815260040161041690613ca6565b61087c836103d3565b6101c580546001600160a01b0319166001600160a01b03841617905580156108aa576000805461ff00191690555b505050565b6108b761125a565b6108d35760405162461bcd60e51b8152600401610416906143cb565b6101c5546108e9906001600160a01b031661231e565b6101c580546001600160a01b0319166001600160a01b0392909216919091179055565b600054610100900460ff16806109255750610925611e27565b80610933575060005460ff16155b61094f5760405162461bcd60e51b8152600401610416906141c4565b600054610100900460ff1615801561097a576000805460ff1961ff0019909116610100171660011790555b610982611eae565b8015610994576000805461ff00191690555b50565b60975460ff1690565b60975460ff16156109c35760405162461bcd60e51b815260040161041690613fa0565b6001600160a01b0380831660009081526101c860205260409020548391166109fd5760405162461bcd60e51b81526004016104169061407e565b3360009081526101c7602052604090208054849190610a2e5760405162461bcd60e51b815260040161041690613f09565b60008411610a4e5760405162461bcd60e51b8152600401610416906142a2565b336001600160a01b0316826001600160a01b0316637df1f1b96040518163ffffffff1660e01b815260040160206040518083038186803b158015610a9157600080fd5b505afa158015610aa5573d6000803e3d6000fd5b505050506040513d601f19601f82011682018060405250810190610ac991906137f2565b6001600160a01b031614610aef5760405162461bcd60e51b815260040161041690614178565b610af88461239e565b610b145760405162461bcd60e51b815260040161041690613fca565b6000610b1f866123b9565b9050610b2c85828561244d565b610b485760405162461bcd60e51b8152600401610416906142d9565b6000836001600160a01b031663b69ef8a86040518163ffffffff1660e01b815260040160206040518083038186803b158015610b8357600080fd5b505afa158015610b97573d6000803e3d6000fd5b505050506040513d601f19601f82011682018060405250810190610bbb91906139a6565b905080610c8d57836001600160a01b031663a6b1ae0d610bd961206b565b6040518263ffffffff1660e01b8152600401610bf59190613b58565b600060405180830381600087803b158015610c0f57600080fd5b505af1158015610c23573d6000803e3d6000fd5b50505050836001600160a01b03166336d91494610c3e61206b565b6040518263ffffffff1660e01b8152600401610c5a9190613b58565b600060405180830381600087803b158015610c7457600080fd5b505af1158015610c88573d6000803e3d6000fd5b505050505b6101c554600090610ca6906001600160a01b0316612511565b905060008315610d765783881115610ccb575082610cc4888261251c565b9750610cd0565b506000965b6040516323b872dd60e01b81526000906001600160a01b038416906323b872dd90610d03908d90339087906004016139f5565b602060405180830381600087803b158015610d1d57600080fd5b505af1158015610d31573d6000803e3d6000fd5b505050506040513d601f19601f82011682018060405250810190610d5591906138d2565b905080610d745760405162461bcd60e51b815260040161041690613e10565b505b600080610d8a88610d8561206b565b61255e565b9092509050610d99858b612706565b9450610da78886848461272b565b610db888610db361206b565b612b40565b15610dd55760405162461bcd60e51b815260040161041690613cf0565b6001600160a01b038816337f7ec4669c579321a5cf5a6b525637eb0924a93e2e11eab9d14be8b44de1116b1b610e0b8d87612706565b604051610e189190613b58565b60405180910390a38915610eca576040516335655ced60e11b81526000906001600160a01b03861690636acab9da90610e579033908f90600401613a19565b602060405180830381600087803b158015610e7157600080fd5b505af1158015610e85573d6000803e3d6000fd5b505050506040513d601f19601f82011682018060405250810190610ea991906138d2565b905080610ec85760405162461bcd60e51b815260040161041690613e10565b505b5050505050505050505050565b6201518081565b6101c5546001600160a01b031681565b6101c66020526000908152604090205481565b6001600160a01b03811660009081526101c66020908152604091829020600101805483518184028101840190945280845260609392830182828015610f6f57602002820191906000526020600020905b81546001600160a01b03168152600190910190602001808311610f51575b50505050509050919050565b610f956000805160206144cc83398151915261030b6121dc565b610fb15760405162461bcd60e51b815260040161041690613d8d565b6107c7612c08565b6000828152606560205260408120610fd19083612c61565b90505b92915050565b6000828152606560205260408120610fd19083612c6d565b6001600160a01b0380831660009081526101c86020526040812054909184911661102e5760405162461bcd60e51b81526004016104169061407e565b8261103e5761103b61206b565b92505b6000849050806001600160a01b031663d28459776040518163ffffffff1660e01b815260040160206040518083038186803b15801561107c57600080fd5b505afa158015611090573d6000803e3d6000fd5b505050506040513d601f19601f820116820180604052508101906110b491906139a6565b841080156110cb57506110c981610db361206b565b155b156110da576000925050611247565b6101c554600090819073__$1dcd660c042b25ef260537b13a3f0ede49$__9063101c84309085908990611115906001600160a01b0316612c82565b6040518463ffffffff1660e01b815260040161113393929190613adf565b604080518083038186803b15801561114a57600080fd5b505af415801561115e573d6000803e3d6000fd5b505050506040513d601f19601f8201168201806040525081019061118291906139be565b9150915061124161120482856001600160a01b031663193501146040518163ffffffff1660e01b815260040160206040518083038186803b1580156111c657600080fd5b505afa1580156111da573d6000803e3d6000fd5b505050506040513d601f19601f820116820180604052508101906111fe91906139a6565b90612706565b6111fe84866001600160a01b03166321856b366040518163ffffffff1660e01b815260040160206040518083038186803b1580156111c657600080fd5b94505050505b5092915050565b600081565b6101c35481565b60006112766000805160206144ac83398151915261030b6121dc565b905090565b60008061128661125a565b6112a25760405162461bcd60e51b8152600401610416906143cb565b60008990506000816001600160a01b031663b69ef8a86040518163ffffffff1660e01b815260040160206040518083038186803b1580156112e257600080fd5b505afa1580156112f6573d6000803e3d6000fd5b505050506040513d601f19601f8201168201806040525081019061131a91906139a6565b90506000826001600160a01b031663a4d66daf6040518163ffffffff1660e01b815260040160206040518083038186803b15801561135757600080fd5b505afa15801561136b573d6000803e3d6000fd5b505050506040513d601f19601f8201168201806040525081019061138f91906139a6565b116113ac5760405162461bcd60e51b815260040161041690614012565b600081116113cc5760405162461bcd60e51b815260040161041690613d3a565b6000826001600160a01b031663500b245e6040518163ffffffff1660e01b815260040160206040518083038186803b15801561140757600080fd5b505afa15801561141b573d6000803e3d6000fd5b505050506040513d601f19601f8201168201806040525081019061143f91906139a6565b1161145c5760405162461bcd60e51b815260040161041690614337565b6001600160a01b038a166114de57816001600160a01b0316637df1f1b96040518163ffffffff1660e01b815260040160206040518083038186803b1580156114a357600080fd5b505afa1580156114b7573d6000803e3d6000fd5b505050506040513d601f19601f820116820180604052508101906114db91906137f2565b99505b6402540be400606060006114f0612cb2565b6001600160a01b031663180f0e018e6014886001600160a01b031663a4d66daf6040518163ffffffff1660e01b815260040160206040518083038186803b15801561153a57600080fd5b505afa15801561154e573d6000803e3d6000fd5b505050506040513d601f19601f8201168201806040525081019061157291906139a6565b6115ed888b6001600160a01b031663b39699926040518163ffffffff1660e01b815260040160206040518083038186803b1580156115af57600080fd5b505afa1580156115c3573d6000803e3d6000fd5b505050506040513d601f19601f820116820180604052508101906115e791906139a6565b90612d35565b8a6001600160a01b03166399dd8df36040518163ffffffff1660e01b815260040160206040518083038186803b15801561162657600080fd5b505afa15801561163a573d6000803e3d6000fd5b505050506040513d601f19601f8201168201806040525081019061165e91906139a6565b8b6001600160a01b03166348e6f2966040518163ffffffff1660e01b815260040160206040518083038186803b15801561169757600080fd5b505afa1580156116ab573d6000803e3d6000fd5b505050506040513d601f19601f820116820180604052508101906116cf91906139a6565b8c6001600160a01b031663f0b25bde6040518163ffffffff1660e01b815260040160206040518083038186803b15801561170857600080fd5b505afa15801561171c573d6000803e3d6000fd5b505050506040513d601f19601f8201168201806040525081019061174091906139a6565b6000808c6040518b63ffffffff1660e01b81526004016117699a99989796959493929190613a4c565b602060405180830381600087803b15801561178357600080fd5b505af1158015611797573d6000803e3d6000fd5b505050506040513d601f19601f820116820180604052508101906117bb91906137f2565b90506000816001600160a01b031663895465d1878f8f8f8f8f6040518763ffffffff1660e01b81526004016117f596959493929190613b61565b602060405180830381600087803b15801561180f57600080fd5b505af1158015611823573d6000803e3d6000fd5b505050506040513d601f19601f8201168201806040525081019061184791906137f2565b6040516327ea6f2b60e01b81529091506001600160a01b038716906327ea6f2b9061187790600090600401613b58565b600060405180830381600087803b15801561189157600080fd5b505af11580156118a5573d6000803e3d6000fd5b5050604051637d8b34e560e11b81526001600160a01b038916925063fb1669ca91506118d690600090600401613b58565b600060405180830381600087803b1580156118f057600080fd5b505af1158015611904573d6000803e3d6000fd5b5050505084816001600160a01b031663b69ef8a86040518163ffffffff1660e01b815260040160206040518083038186803b15801561194257600080fd5b505afa158015611956573d6000803e3d6000fd5b505050506040513d601f19601f8201168201806040525081019061197a91906139a6565b146119975760405162461bcd60e51b815260040161041690613e85565b8a816001600160a01b031663bbafcb406040518163ffffffff1660e01b815260040160206040518083038186803b1580156119d157600080fd5b505afa1580156119e5573d6000803e3d6000fd5b505050506040513d601f19601f82011682018060405250810190611a0991906139a6565b14611a265760405162461bcd60e51b815260040161041690613eba565b9e909d509b505050505050505050505050565b6001600160a01b03811660009081526101c76020908152604091829020805483518184028101840190945280845260609392830182828015610f6f576020028201919060005260206000209081546001600160a01b03168152600190910190602001808311610f515750505050509050919050565b60975460ff1615611ad15760405162461bcd60e51b815260040161041690613fa0565b6001600160a01b0380831660009081526101c86020526040902054839116611b0b5760405162461bcd60e51b81526004016104169061407e565b60008211611b2b5760405162461bcd60e51b815260040161041690614363565b82611b368184612d6f565b6106fd84611bbb565b6000818152606560205260408120610fd490612e98565b600082815260656020526040902060020154611b749061030b6121dc565b61077f5760405162461bcd60e51b815260040161041690613f50565b6000805160206144ac83398151915281565b6000805160206144cc83398151915281565b6101c45481565b60975460ff1615611bde5760405162461bcd60e51b815260040161041690613fa0565b6001600160a01b0380821660009081526101c86020526040902054829116611c185760405162461bcd60e51b81526004016104169061407e565b60008290506000816001600160a01b031663b69ef8a86040518163ffffffff1660e01b815260040160206040518083038186803b158015611c5857600080fd5b505afa158015611c6c573d6000803e3d6000fd5b505050506040513d601f19601f82011682018060405250810190611c9091906139a6565b11611cad5760405162461bcd60e51b8152600401610416906140f0565b806001600160a01b031663d28459776040518163ffffffff1660e01b815260040160206040518083038186803b158015611ce657600080fd5b505afa158015611cfa573d6000803e3d6000fd5b505050506040513d601f19601f82011682018060405250810190611d1e91906139a6565b611d2661206b565b108015611d3c5750611d3a81610db361206b565b155b15611d475750610508565b6000611d5282612ea3565b604051631352074160e11b81529091506001600160a01b038316906326a40e8290611d81908490600401613b58565b600060405180830381600087803b158015611d9b57600080fd5b505af1158015611daf573d6000803e3d6000fd5b50505050611dbb61206b565b811115611e14576000611e0462015180846001600160a01b03166399dd8df36040518163ffffffff1660e01b815260040160206040518083038186803b1580156115af57600080fd5b9050611e10828261251c565b9150505b6106fd82611e21846123b9565b8361206f565b303b1590565b600054610100900460ff1680611e465750611e46611e27565b80611e54575060005460ff16155b611e705760405162461bcd60e51b8152600401610416906141c4565b600054610100900460ff16158015610982576000805460ff1961ff0019909116610100171660011790558015610994576000805461ff001916905550565b600054610100900460ff1680611ec75750611ec7611e27565b80611ed5575060005460ff16155b611ef15760405162461bcd60e51b8152600401610416906141c4565b600054610100900460ff16158015611f1c576000805460ff1961ff0019909116610100171660011790555b6097805460ff191690558015610994576000805461ff001916905550565b600054610100900460ff1680611f535750611f53611e27565b80611f61575060005460ff16155b611f7d5760405162461bcd60e51b8152600401610416906141c4565b600054610100900460ff16158015611fa8576000805460ff1961ff0019909116610100171660011790555b60c9805460ff191660011790558015610994576000805461ff001916905550565b60009182526065602052604090912060020155565b6101c5546000906001600160a01b031663fc56365860025b6040518263ffffffff1660e01b81526004016120129190613b58565b60206040518083038186803b15801561202a57600080fd5b505afa15801561203e573d6000803e3d6000fd5b505050506040513d601f19601f8201168201806040525081019061206291906139a6565b90911115919050565b4290565b600080600061207f868686613124565b6101c55492955090935091506000906120a0906001600160a01b0316612511565b905060008311806120b15750600082115b156121d357866001600160a01b0316876001600160a01b0316637df1f1b96040518163ffffffff1660e01b815260040160206040518083038186803b1580156120f957600080fd5b505afa15801561210d573d6000803e3d6000fd5b505050506040513d601f19601f8201168201806040525081019061213191906137f2565b6001600160a01b03167f724fe786cff62c97ff230e98a332f95c5a11990e44123a00c2b8e76b0566e41185858860405161216d93929190614465565b60405180910390a36040516371bb0bab60e01b81526001600160a01b038216906371bb0bab906121a5908a9087908790600401613adf565b600060405180830381600087803b1580156121bf57600080fd5b505af1158015610eca573d6000803e3d6000fd5b50505050505050565b3390565b60008281526065602052604090206121f8908261339f565b15610508576122056121dc565b6001600160a01b0316816001600160a01b0316837f2f8788117e7eff1d82e926ec794901d17c78024a50270940304540a733656f0d60405160405180910390a45050565b600082815260656020526040902061226190826133b4565b156105085761226e6121dc565b6001600160a01b0316816001600160a01b0316837ff6391f5c32d9c69d2a47ea670b442974b53935d1edc7fd64eb21e047a839171b60405160405180910390a45050565b60975460ff166122d45760405162461bcd60e51b815260040161041690613c78565b6097805460ff191690557f5db9ee0a495bf2e6ff9c91a7834c1ba4fdd244a5e8aa4e537bd38aeae4b073aa6123076121dc565b60405161231491906139e1565b60405180910390a1565b60006001600160a01b03821663b93f9b0a600b5b6040518263ffffffff1660e01b815260040161234e9190613b58565b60206040518083038186803b15801561236657600080fd5b505afa15801561237a573d6000803e3d6000fd5b505050506040513d601f19601f82011682018060405250810190610fd491906137f2565b6101c5546000906001600160a01b031663fc56365882611ff6565b6101c5546000906123d2906001600160a01b03166133c9565b6001600160a01b03166370a08231836040518263ffffffff1660e01b81526004016123fd91906139e1565b60206040518083038186803b15801561241557600080fd5b505afa158015612429573d6000803e3d6000fd5b505050506040513d601f19601f82011682018060405250810190610fd491906139a6565b6000816001600160a01b031663a4d66daf6040518163ffffffff1660e01b815260040160206040518083038186803b15801561248857600080fd5b505afa15801561249c573d6000803e3d6000fd5b505050506040513d601f19601f820116820180604052508101906124c091906139a6565b6125078461250187866001600160a01b031663b69ef8a86040518163ffffffff1660e01b815260040160206040518083038186803b1580156111c657600080fd5b9061251c565b1115949350505050565b6000610fd4826133d4565b6000610fd183836040518060400160405280601e81526020017f536166654d6174683a207375627472616374696f6e206f766572666c6f7700008152506133eb565b60008060008073__$1dcd660c042b25ef260537b13a3f0ede49$__63101c843087876125a86101c560009054906101000a90046001600160a01b03166001600160a01b0316612c82565b6040518463ffffffff1660e01b81526004016125c693929190613adf565b604080518083038186803b1580156125dd57600080fd5b505af41580156125f1573d6000803e3d6000fd5b505050506040513d601f19601f8201168201806040525081019061261591906139be565b9092509050811561267f5760405163a6b1ae0d60e01b81526001600160a01b0387169063a6b1ae0d9061264c908890600401613b58565b600060405180830381600087803b15801561266657600080fd5b505af115801561267a573d6000803e3d6000fd5b505050505b6126bc82876001600160a01b03166321856b366040518163ffffffff1660e01b815260040160206040518083038186803b1580156111c657600080fd5b6126f982886001600160a01b031663193501146040518163ffffffff1660e01b815260040160206040518083038186803b1580156111c657600080fd5b9350935050509250929050565b600082820183811015610fd15760405162461bcd60e51b815260040161041690613dd9565b60c95460ff1661274d5760405162461bcd60e51b815260040161041690614394565b60c9805460ff19169055604080516316d3df1560e31b815290516127de916001600160a01b0387169163b69ef8a891600480820192602092909190829003018186803b15801561279c57600080fd5b505afa1580156127b0573d6000803e3d6000fd5b505050506040513d601f19601f820116820180604052508101906127d491906139a6565b6101c4549061251c565b6101c455604051637d8b34e560e11b81526001600160a01b0385169063fb1669ca9061280e908690600401613b58565b600060405180830381600087803b15801561282857600080fd5b505af115801561283c573d6000803e3d6000fd5b50506040516396c8df3760e01b81526001600160a01b03871692506396c8df37915061286c908590600401613b58565b600060405180830381600087803b15801561288657600080fd5b505af115801561289a573d6000803e3d6000fd5b505060405163b3b8a9c760e01b81526001600160a01b038716925063b3b8a9c791506128ca908490600401613b58565b600060405180830381600087803b1580156128e457600080fd5b505af11580156128f8573d6000803e3d6000fd5b505050506000846001600160a01b031663d28459776040518163ffffffff1660e01b815260040160206040518083038186803b15801561293757600080fd5b505afa15801561294b573d6000803e3d6000fd5b505050506040513d601f19601f8201168201806040525081019061296f91906139a6565b90508215801561297e57508015155b15612a4d5760008161298e61206b565b10156129ea5760006129d662015180886001600160a01b03166399dd8df36040518163ffffffff1660e01b815260040160206040518083038186803b1580156115af57600080fd5b90506129e2838261251c565b9150506129ed565b50805b604051630db6452560e21b81526001600160a01b038716906336d9149490612a19908490600401613b58565b600060405180830381600087803b158015612a3357600080fd5b505af1158015612a47573d6000803e3d6000fd5b50505050505b6101c454612a5b9085612706565b6101c4556001600160a01b038516637ae14b09612a788787613417565b6040518263ffffffff1660e01b8152600401612a949190613b58565b600060405180830381600087803b158015612aae57600080fd5b505af1158015612ac2573d6000803e3d6000fd5b50505050846001600160a01b03166326a40e82612ade87612ea3565b6040518263ffffffff1660e01b8152600401612afa9190613b58565b600060405180830381600087803b158015612b1457600080fd5b505af1158015612b28573d6000803e3d6000fd5b505060c9805460ff1916600117905550505050505050565b600080612bbe846001600160a01b031663ce78290d6040518163ffffffff1660e01b815260040160206040518083038186803b158015612b7f57600080fd5b505afa158015612b93573d6000803e3d6000fd5b505050506040513d601f19601f82011682018060405250810190612bb791906139a6565b849061251c565b9050612c0062015180856001600160a01b03166399dd8df36040518163ffffffff1660e01b815260040160206040518083038186803b1580156115af57600080fd5b109392505050565b60975460ff1615612c2b5760405162461bcd60e51b815260040161041690613fa0565b6097805460ff191660011790557f62e78cea01bee320cd4e420270b5ea74000d11b0c9f74754ebdbfc544b05a2586123076121dc565b6000610fd1838361359d565b6000610fd1836001600160a01b0384166135e2565b604051631f8ac6cb60e31b81526000906001600160a01b0383169063fc563658906123fd90600590600401613b58565b6101c554604051635c9fcd8560e11b81526000916001600160a01b03169063b93f9b0a90612ce590600290600401613b58565b60206040518083038186803b158015612cfd57600080fd5b505afa158015612d11573d6000803e3d6000fd5b505050506040513d601f19601f8201168201806040525081019061127691906137f2565b600082612d4457506000610fd4565b82820282848281612d5157fe5b0414610fd15760405162461bcd60e51b815260040161041690614137565b612d788161239e565b612d945760405162461bcd60e51b815260040161041690613fca565b816001600160a01b0316336001600160a01b03167fc4036209c61f1d5aad789d2b8fa9ca23bf8b1516748d2e0be7227bf3fce67d2d83604051612dd79190613b58565b60405180910390a36101c554600090612df8906001600160a01b0316612511565b6001600160a01b03166323b872dd3385856040518463ffffffff1660e01b8152600401612e27939291906139f5565b602060405180830381600087803b158015612e4157600080fd5b505af1158015612e55573d6000803e3d6000fd5b505050506040513d601f19601f82011682018060405250810190612e7991906138d2565b9050806108aa5760405162461bcd60e51b815260040161041690614212565b6000610fd4826135fa565b600080612ee662015180846001600160a01b03166399dd8df36040518163ffffffff1660e01b815260040160206040518083038186803b1580156115af57600080fd5b90506000836001600160a01b031663b69ef8a86040518163ffffffff1660e01b815260040160206040518083038186803b158015612f2357600080fd5b505afa158015612f37573d6000803e3d6000fd5b505050506040513d601f19601f82011682018060405250810190612f5b91906139a6565b90506000846001600160a01b031663d28459776040518163ffffffff1660e01b815260040160206040518083038186803b158015612f9857600080fd5b505afa158015612fac573d6000803e3d6000fd5b505050506040513d601f19601f82011682018060405250810190612fd091906139a6565b90506000612fdc61206b565b905081158015612fec5750600083115b1561300657612ffb8185612706565b9450505050506105e3565b6000831180156130165750818110155b156130ce57600061303a856115e760016111fe83613034888a61251c565b906135fe565b90506130468382612706565b92506130c283886001600160a01b03166364fb2d956040518163ffffffff1660e01b815260040160206040518083038186803b15801561308557600080fd5b505afa158015613099573d6000803e3d6000fd5b505050506040513d601f19601f820116820180604052508101906130bd91906139a6565b613640565b955050505050506105e3565b821580156130db57508115155b156130ed5760009450505050506105e3565b6000831180156130fc57508181105b1561310c575092506105e3915050565b60405162461bcd60e51b815260040161041690613e3c565b6000806000806000613136888761255e565b915091506131426137b5565b73__$1dcd660c042b25ef260537b13a3f0ede49$__63d7cc2a03898b6001600160a01b031663b69ef8a86040518163ffffffff1660e01b815260040160206040518083038186803b15801561319657600080fd5b505afa1580156131aa573d6000803e3d6000fd5b505050506040513d601f19601f820116820180604052508101906131ce91906139a6565b86866040518563ffffffff1660e01b81526004016131ef949392919061447b565b60606040518083038186803b15801561320757600080fd5b505af415801561321b573d6000803e3d6000fd5b505050506040513d601f19601f8201168201806040525081019061323f919061394f565b905060006132bc82602001518b6001600160a01b031663b69ef8a86040518163ffffffff1660e01b815260040160206040518083038186803b15801561328457600080fd5b505afa158015613298573d6000803e3d6000fd5b505050506040513d601f19601f8201168201806040525081019061250191906139a6565b90506132d582604001518261251c90919063ffffffff16565b90506000613316828c6001600160a01b031663b69ef8a86040518163ffffffff1660e01b815260040160206040518083038186803b15801561328457600080fd5b905060006133358261250186600001518e61251c90919063ffffffff16565b90506133688c8461335387600001518a61251c90919063ffffffff16565b6020880151613363908a9061251c565b61272b565b8a613384836111fe87600001518561270690919063ffffffff16565b1461338b57fe5b9251929b929a509850909650505050505050565b6000610fd1836001600160a01b038416613656565b6000610fd1836001600160a01b0384166136a0565b6000610fd482613766565b60006001600160a01b03821663b93f9b0a82612332565b6000818484111561340f5760405162461bcd60e51b81526004016104169190613b94565b505050900390565b60008161342657506000610fd4565b826001600160a01b03166364fb2d956040518163ffffffff1660e01b815260040160206040518083038186803b15801561345f57600080fd5b505afa158015613473573d6000803e3d6000fd5b505050506040513d601f19601f8201168201806040525081019061349791906139a6565b1561351457826001600160a01b03166364fb2d956040518163ffffffff1660e01b815260040160206040518083038186803b1580156134d557600080fd5b505afa1580156134e9573d6000803e3d6000fd5b505050506040513d601f19601f8201168201806040525081019061350d91906139a6565b9050610fd4565b610fd1613595846001600160a01b03166348e6f2966040518163ffffffff1660e01b815260040160206040518083038186803b15801561355357600080fd5b505afa158015613567573d6000803e3d6000fd5b505050506040513d601f19601f8201168201806040525081019061358b91906139a6565b6201518090612d35565b6111fe61206b565b815460009082106135c05760405162461bcd60e51b815260040161041690613be7565b8260000182815481106135cf57fe5b9060005260206000200154905092915050565b60009081526001919091016020526040902054151590565b5490565b6000610fd183836040518060400160405280601a81526020017f536166654d6174683a206469766973696f6e206279207a65726f00000000000081525061377e565b600081831061364f5781610fd1565b5090919050565b600061366283836135e2565b61369857508154600181810184556000848152602080822090930184905584548482528286019093526040902091909155610fd4565b506000610fd4565b6000818152600183016020526040812054801561375c57835460001980830191908101906000908790839081106136d357fe5b90600052602060002001549050808760000184815481106136f057fe5b60009182526020808320909101929092558281526001898101909252604090209084019055865487908061372057fe5b60019003818190600052602060002001600090559055866001016000878152602001908152602001600020600090556001945050505050610fd4565b6000915050610fd4565b60006001600160a01b03821663b93f9b0a6005612332565b6000818361379f5760405162461bcd60e51b81526004016104169190613b94565b5060008385816137ab57fe5b0495945050505050565b60405180606001604052806000815260200160008152602001600081525090565b6000602082840312156137e7578081fd5b8135610fd181614496565b600060208284031215613803578081fd5b8151610fd181614496565b600080600080600080600060e0888a031215613828578283fd5b873561383381614496565b9650602088013561384381614496565b96999698505050506040850135946060810135946080820135945060a0820135935060c0909101359150565b60008060408385031215613881578182fd5b823561388c81614496565b9150602083013561389c81614496565b809150509250929050565b600080604083850312156138b9578182fd5b82356138c481614496565b946020939093013593505050565b6000602082840312156138e3578081fd5b81518015158114610fd1578182fd5b600060208284031215613903578081fd5b5035919050565b6000806040838503121561391c578182fd5b82359150602083013561389c81614496565b60008060408385031215613940578182fd5b50508035926020909101359150565b600060608284031215613960578081fd5b6040516060810181811067ffffffffffffffff8211171561397f578283fd5b80604052508251815260208301516020820152604083015160408201528091505092915050565b6000602082840312156139b7578081fd5b5051919050565b600080604083850312156139d0578182fd5b505080516020909101519092909150565b6001600160a01b0391909116815260200190565b6001600160a01b039384168152919092166020820152604081019190915260600190565b6001600160a01b03929092168252602082015260400190565b6001600160a01b0392831681529116602082015260400190565b600061014080830160018060a01b038e16845260208d818601528c60408601528b60608601528a60808601528960a08601528860c08601528760e086015286610100860152826101208601528192508551808352610160860193508187019250845b81811015613aca57835185529382019392820192600101613aae565b50929f9e505050505050505050505050505050565b6001600160a01b039390931683526020830191909152604082015260600190565b6020808252825182820181905260009190848201906040850190845b81811015613b415783516001600160a01b031683529284019291840191600101613b1c565b50909695505050505050565b901515815260200190565b90815260200190565b6001600160a01b03969096168652602086019490945260408501929092526060840152608083015260a082015260c00190565b6000602080835283518082850152825b81811015613bc057858101830151858201604001528201613ba4565b81811115613bd15783604083870101525b50601f01601f1916929092016040019392505050565b60208082526022908201527f456e756d657261626c655365743a20696e646578206f7574206f6620626f756e604082015261647360f01b606082015260800190565b6020808252602f908201527f416363657373436f6e74726f6c3a2073656e646572206d75737420626520616e60408201526e0818591b5a5b881d1bc819dc985b9d608a1b606082015260800190565b60208082526014908201527314185d5cd8589b194e881b9bdd081c185d5cd95960621b604082015260600190565b6020808252602a908201527f4f776e657220616e6420636f6e666967206164647265737365732063616e6e6f6040820152697420626520656d70747960b01b606082015260800190565b6020808252602a908201527f43616e6e6f742064726177646f776e207768656e207061796d656e74732061726040820152696520706173742064756560b01b606082015260800190565b60208082526033908201527f43616e2774206d69677261746520637265646974206c696e65207468617427736040820152721031bab93932b73a363c903830b4b21037b33360691b606082015260800190565b6020808252602c908201527f4d75737420686176652070617573657220726f6c6520746f20706572666f726d60408201526b103a3434b99030b1ba34b7b760a11b606082015260800190565b6020808252601b908201527f536166654d6174683a206164646974696f6e206f766572666c6f770000000000604082015260600190565b6020808252601290820152712330b4b632b2103a3790323930bbb237bbb760711b604082015260600190565b60208082526029908201527f4572726f723a20636f756c64206e6f742063616c63756c617465206e65787420604082015268323ab2903a34b6b29760b91b606082015260800190565b6020808252818101527f42616c616e636520646964206e6f74206d6967726174652070726f7065726c79604082015260600190565b6020808252602f908201527f496e7465726573742061636372756564206173206f6620646964206e6f74206d60408201526e6967726174652070726f7065726c7960881b606082015260800190565b60208082526027908201527f4e6f20637265646974206c696e657320657869737420666f722074686973206260408201526637b93937bbb2b960c91b606082015260800190565b60208082526030908201527f416363657373436f6e74726f6c3a2073656e646572206d75737420626520616e60408201526f2061646d696e20746f207265766f6b6560801b606082015260800190565b60208082526010908201526f14185d5cd8589b194e881c185d5cd95960821b604082015260600190565b60208082526028908201527f416d6f756e74206973206f76657220746865207065722d7472616e73616374696040820152671bdb881b1a5b5a5d60c21b606082015260800190565b6020808252601f908201527f43616e2774206d69677261746520656d70747920637265646974206c696e6500604082015260600190565b6020808252818101527f4f776e65722063616e6e6f7420626520746865207a65726f2061646472657373604082015260600190565b602080825260139082015272556e6b6e6f776e20637265646974206c696e6560681b604082015260600190565b60208082526025908201527f596f7520646f206e6f742062656c6f6e6720746f207468697320637265646974604082015264206c696e6560d81b606082015260800190565b60208082526027908201527f4d75737420686176652062616c616e636520746f2061737365737320637265646040820152666974206c696e6560c81b606082015260800190565b60208082526021908201527f536166654d6174683a206d756c7469706c69636174696f6e206f766572666c6f6040820152607760f81b606082015260800190565b6020808252602c908201527f596f7520617265206e6f742074686520626f72726f776572206f66207468697360408201526b20637265646974206c696e6560a01b606082015260800190565b6020808252602e908201527f436f6e747261637420696e7374616e63652068617320616c726561647920626560408201526d195b881a5b9a5d1a585b1a5e995960921b606082015260800190565b60208082526019908201527811985a5b1959081d1bc818dbdb1b1958dd081c185e5b595b9d603a1b604082015260600190565b6020808252603a908201527f54686973206c696d69742069732067726561746572207468616e20746865206d60408201527f617820616c6c6f776564206279207468652070726f746f636f6c000000000000606082015260800190565b6020808252601c908201527f4d7573742064726177646f776e206d6f7265207468616e207a65726f00000000604082015260600190565b602080825260409082018190527f54686520626f72726f77657220646f6573206e6f74206861766520656e6f7567908201527f6820637265646974206c696d697420666f7220746869732064726177646f776e606082015260800190565b602080825260129082015271496e76616c6964206372656469746c696e6560701b604082015260600190565b6020808252601790820152764d75737420706179206d6f7265207468616e207a65726f60481b604082015260600190565b6020808252601f908201527f5265656e7472616e637947756172643a207265656e7472616e742063616c6c00604082015260600190565b6020808252602b908201527f4d75737420686176652061646d696e20726f6c6520746f20706572666f726d2060408201526a3a3434b99030b1ba34b7b760a91b606082015260800190565b6020808252602f908201527f416363657373436f6e74726f6c3a2063616e206f6e6c792072656e6f756e636560408201526e103937b632b9903337b91039b2b63360891b606082015260800190565b9283526020830191909152604082015260600190565b93845260208401929092526040830152606082015260800190565b6001600160a01b038116811461099457600080fdfeb19546dff01e856fb3f010c267a7b1c60363cf8a4664e21cc89c26224620214e65d7a28e3265b37a6474929f336521b332c1681b933f6cb9f3376673440d862aa2646970667358221220d3b58abc4936e66ea4765d17aec3efedcfb47d002dabde00e85d7b1546cb77da64736f6c634300060c0033",
  "libraries": {
    "Accountant": "0x299e6e0fc560438079349f0A8d74C3d925ee59b0"
  },
  "devdoc": {
    "author": "Goldfinch",
    "kind": "dev",
    "methods": {
      "assessCreditLine(address)": {
        "params": {
          "creditLineAddress": "The creditline that should be assessed."
        }
      },
      "drawdown(address,uint256)": {
        "params": {
          "amount": "The amount, in USDC atomic units, that a borrower wishes to drawdown Requirements: - the caller must be the borrower on the creditLine",
          "creditLineAddress": "The creditline from which they would like to drawdown"
        }
      },
      "getBorrowerCreditLines(address)": {
        "params": {
          "borrowerAddress": "The borrower address you would like to see the credit lines of."
        }
      },
      "getNextPaymentAmount(address,uint256)": {
        "params": {
          "asOf": "The timestamp to use for the payment calculation, if it is set to 0, uses the current time",
          "creditLineAddress": "The creditLine to calculate the payment for"
        }
      },
      "getRoleAdmin(bytes32)": {
        "details": "Returns the admin role that controls `role`. See {grantRole} and {revokeRole}. To change a role's admin, use {_setRoleAdmin}."
      },
      "getRoleMember(bytes32,uint256)": {
        "details": "Returns one of the accounts that have `role`. `index` must be a value between 0 and {getRoleMemberCount}, non-inclusive. Role bearers are not sorted in any particular way, and their ordering may change at any point. WARNING: When using {getRoleMember} and {getRoleMemberCount}, make sure you perform all queries on the same block. See the following https://forum.openzeppelin.com/t/iterating-over-elements-on-enumerableset-in-openzeppelin-contracts/2296[forum post] for more information."
      },
      "getRoleMemberCount(bytes32)": {
        "details": "Returns the number of accounts that have `role`. Can be used together with {getRoleMember} to enumerate all bearers of a role."
      },
      "getUnderwriterCreditLines(address)": {
        "params": {
          "underwriterAddress": "The underwriter address you would like to see the credit lines of."
        }
      },
      "grantRole(bytes32,address)": {
        "details": "Grants `role` to `account`. If `account` had not been already granted `role`, emits a {RoleGranted} event. Requirements: - the caller must have ``role``'s admin role."
      },
      "hasRole(bytes32,address)": {
        "details": "Returns `true` if `account` has been granted `role`."
      },
      "initialize(address,address)": {
        "params": {
          "_config": "The address of the GoldfinchConfig contract",
          "owner": "The address of who should have the \"OWNER_ROLE\" of this contract"
        }
      },
      "pause()": {
        "details": "Pauses all functions guarded by Pause See {Pausable-_pause}. Requirements: - the caller must have the PAUSER_ROLE."
      },
      "paused()": {
        "details": "Returns true if the contract is paused, and false otherwise."
      },
      "pay(address,uint256)": {
        "params": {
          "amount": "The amount, in USDC atomic units, that a borrower wishes to pay",
          "creditLineAddress": "The credit line to be paid back"
        }
      },
      "renounceRole(bytes32,address)": {
        "details": "Revokes `role` from the calling account. Roles are often managed via {grantRole} and {revokeRole}: this function's purpose is to provide a mechanism for accounts to lose their privileges if they are compromised (such as when a trusted device is misplaced). If the calling account had been granted `role`, emits a {RoleRevoked} event. Requirements: - the caller must be `account`."
      },
      "revokeRole(bytes32,address)": {
        "details": "Revokes `role` from `account`. If `account` had been granted `role`, emits a {RoleRevoked} event. Requirements: - the caller must have ``role``'s admin role."
      },
      "setUnderwriterGovernanceLimit(address,uint256)": {
        "params": {
          "limit": "What the new limit will be set to Requirements: - the caller must have the `OWNER_ROLE`.",
          "underwriterAddress": "The address of the underwriter for whom the limit shall change"
        }
      },
      "unpause()": {
        "details": "Unpauses the contract See {Pausable-_unpause}. Requirements: - the caller must have the Pauser role"
      }
    },
    "title": "Goldfinch's CreditDesk contract",
    "version": 1
  },
  "userdoc": {
    "kind": "user",
    "methods": {
      "assessCreditLine(address)": {
        "notice": "Assesses a particular creditLine. This will apply payments, which will update accounting and  distribute gains or losses back to the pool accordingly. This function is idempotent, and anyone  is allowed to call it."
      },
      "drawdown(address,uint256)": {
        "notice": "Allows a borrower to drawdown on their creditline.  `amount` USDC is sent to the borrower, and the credit line accounting is updated."
      },
      "getBorrowerCreditLines(address)": {
        "notice": "Simple getter for the creditlines of a given borrower"
      },
      "getNextPaymentAmount(address,uint256)": {
        "notice": "This function is only meant to be used by frontends. It returns the total payment due for a given creditLine as of the provided timestamp. Returns 0 if no payment is due (e.g. asOf is before the nextDueTime)"
      },
      "getUnderwriterCreditLines(address)": {
        "notice": "Simple getter for the creditlines of a given underwriter"
      },
      "initialize(address,address)": {
        "notice": "Run only once, on initialization"
      },
      "pay(address,uint256)": {
        "notice": "Allows a borrower to repay their loan. Payment is *collected* immediately (by sending it to  the individual CreditLine), but it is not *applied* unless it is after the nextDueTime, or until we assess  the credit line (ie. payment period end).  Any amounts over the minimum payment will be applied to outstanding principal (reducing the effective  interest rate). If there is still any left over, it will remain in the USDC Balance  of the CreditLine, which is held distinct from the Pool amounts, and can not be withdrawn by LP's."
      },
      "setUnderwriterGovernanceLimit(address,uint256)": {
        "notice": "Sets a particular underwriter's limit of how much credit the DAO will allow them to \"create\""
      }
    },
    "notice": "Main entry point for borrowers and underwriters.  Handles key logic for creating CreditLine's, borrowing money, repayment, etc.",
    "version": 1
  },
  "storageLayout": {
    "storage": [
      {
        "astId": 151,
        "contract": "contracts/protocol/core/CreditDesk.sol:CreditDesk",
        "label": "initialized",
        "offset": 0,
        "slot": "0",
        "type": "t_bool"
      },
      {
        "astId": 154,
        "contract": "contracts/protocol/core/CreditDesk.sol:CreditDesk",
        "label": "initializing",
        "offset": 1,
        "slot": "0",
        "type": "t_bool"
      },
      {
        "astId": 219,
        "contract": "contracts/protocol/core/CreditDesk.sol:CreditDesk",
        "label": "______gap",
        "offset": 0,
        "slot": "1",
        "type": "t_array(t_uint256)50_storage"
      },
      {
        "astId": 144,
        "contract": "contracts/protocol/core/CreditDesk.sol:CreditDesk",
        "label": "__gap",
        "offset": 0,
        "slot": "51",
        "type": "t_array(t_uint256)50_storage"
      },
      {
        "astId": 264,
        "contract": "contracts/protocol/core/CreditDesk.sol:CreditDesk",
        "label": "_roles",
        "offset": 0,
        "slot": "101",
        "type": "t_mapping(t_bytes32,t_struct(RoleData)260_storage)"
      },
      {
        "astId": 509,
        "contract": "contracts/protocol/core/CreditDesk.sol:CreditDesk",
        "label": "__gap",
        "offset": 0,
        "slot": "102",
        "type": "t_array(t_uint256)49_storage"
      },
      {
        "astId": 4429,
        "contract": "contracts/protocol/core/CreditDesk.sol:CreditDesk",
        "label": "_paused",
        "offset": 0,
        "slot": "151",
        "type": "t_bool"
      },
      {
        "astId": 4518,
        "contract": "contracts/protocol/core/CreditDesk.sol:CreditDesk",
        "label": "__gap",
        "offset": 0,
        "slot": "152",
        "type": "t_array(t_uint256)49_storage"
      },
      {
        "astId": 4527,
        "contract": "contracts/protocol/core/CreditDesk.sol:CreditDesk",
        "label": "_notEntered",
        "offset": 0,
        "slot": "201",
        "type": "t_bool"
      },
      {
        "astId": 4568,
        "contract": "contracts/protocol/core/CreditDesk.sol:CreditDesk",
        "label": "__gap",
        "offset": 0,
        "slot": "202",
        "type": "t_array(t_uint256)49_storage"
      },
      {
        "astId": 12118,
        "contract": "contracts/protocol/core/CreditDesk.sol:CreditDesk",
        "label": "__gap1",
        "offset": 0,
        "slot": "251",
        "type": "t_array(t_uint256)50_storage"
      },
      {
        "astId": 12122,
        "contract": "contracts/protocol/core/CreditDesk.sol:CreditDesk",
        "label": "__gap2",
        "offset": 0,
        "slot": "301",
        "type": "t_array(t_uint256)50_storage"
      },
      {
        "astId": 12126,
        "contract": "contracts/protocol/core/CreditDesk.sol:CreditDesk",
        "label": "__gap3",
        "offset": 0,
        "slot": "351",
        "type": "t_array(t_uint256)50_storage"
      },
      {
        "astId": 12130,
        "contract": "contracts/protocol/core/CreditDesk.sol:CreditDesk",
        "label": "__gap4",
        "offset": 0,
        "slot": "401",
        "type": "t_array(t_uint256)50_storage"
      },
      {
        "astId": 9474,
        "contract": "contracts/protocol/core/CreditDesk.sol:CreditDesk",
        "label": "totalWritedowns",
        "offset": 0,
        "slot": "451",
        "type": "t_uint256"
      },
      {
        "astId": 9476,
        "contract": "contracts/protocol/core/CreditDesk.sol:CreditDesk",
        "label": "totalLoansOutstanding",
        "offset": 0,
        "slot": "452",
        "type": "t_uint256"
      },
      {
        "astId": 13019,
        "contract": "contracts/protocol/core/CreditDesk.sol:CreditDesk",
        "label": "config",
        "offset": 0,
        "slot": "453",
        "type": "t_contract(GoldfinchConfig)17615"
      },
      {
        "astId": 13076,
        "contract": "contracts/protocol/core/CreditDesk.sol:CreditDesk",
        "label": "underwriters",
        "offset": 0,
        "slot": "454",
        "type": "t_mapping(t_address,t_struct(Underwriter)13028_storage)"
      },
      {
        "astId": 13080,
        "contract": "contracts/protocol/core/CreditDesk.sol:CreditDesk",
        "label": "borrowers",
        "offset": 0,
        "slot": "455",
        "type": "t_mapping(t_address,t_struct(Borrower)13032_storage)"
      },
      {
        "astId": 13084,
        "contract": "contracts/protocol/core/CreditDesk.sol:CreditDesk",
        "label": "creditLines",
        "offset": 0,
        "slot": "456",
        "type": "t_mapping(t_address,t_address)"
      }
    ],
    "types": {
      "t_address": {
        "encoding": "inplace",
        "label": "address",
        "numberOfBytes": "20"
      },
      "t_array(t_address)dyn_storage": {
        "base": "t_address",
        "encoding": "dynamic_array",
        "label": "address[]",
        "numberOfBytes": "32"
      },
      "t_array(t_bytes32)dyn_storage": {
        "base": "t_bytes32",
        "encoding": "dynamic_array",
        "label": "bytes32[]",
        "numberOfBytes": "32"
      },
      "t_array(t_uint256)49_storage": {
        "base": "t_uint256",
        "encoding": "inplace",
        "label": "uint256[49]",
        "numberOfBytes": "1568"
      },
      "t_array(t_uint256)50_storage": {
        "base": "t_uint256",
        "encoding": "inplace",
        "label": "uint256[50]",
        "numberOfBytes": "1600"
      },
      "t_bool": {
        "encoding": "inplace",
        "label": "bool",
        "numberOfBytes": "1"
      },
      "t_bytes32": {
        "encoding": "inplace",
        "label": "bytes32",
        "numberOfBytes": "32"
      },
      "t_contract(GoldfinchConfig)17615": {
        "encoding": "inplace",
        "label": "contract GoldfinchConfig",
        "numberOfBytes": "20"
      },
      "t_mapping(t_address,t_address)": {
        "encoding": "mapping",
        "key": "t_address",
        "label": "mapping(address => address)",
        "numberOfBytes": "32",
        "value": "t_address"
      },
      "t_mapping(t_address,t_struct(Borrower)13032_storage)": {
        "encoding": "mapping",
        "key": "t_address",
        "label": "mapping(address => struct CreditDesk.Borrower)",
        "numberOfBytes": "32",
        "value": "t_struct(Borrower)13032_storage"
      },
      "t_mapping(t_address,t_struct(Underwriter)13028_storage)": {
        "encoding": "mapping",
        "key": "t_address",
        "label": "mapping(address => struct CreditDesk.Underwriter)",
        "numberOfBytes": "32",
        "value": "t_struct(Underwriter)13028_storage"
      },
      "t_mapping(t_bytes32,t_struct(RoleData)260_storage)": {
        "encoding": "mapping",
        "key": "t_bytes32",
        "label": "mapping(bytes32 => struct AccessControlUpgradeSafe.RoleData)",
        "numberOfBytes": "32",
        "value": "t_struct(RoleData)260_storage"
      },
      "t_mapping(t_bytes32,t_uint256)": {
        "encoding": "mapping",
        "key": "t_bytes32",
        "label": "mapping(bytes32 => uint256)",
        "numberOfBytes": "32",
        "value": "t_uint256"
      },
      "t_struct(AddressSet)4204_storage": {
        "encoding": "inplace",
        "label": "struct EnumerableSet.AddressSet",
        "members": [
          {
            "astId": 4203,
            "contract": "contracts/protocol/core/CreditDesk.sol:CreditDesk",
            "label": "_inner",
            "offset": 0,
            "slot": "0",
            "type": "t_struct(Set)4024_storage"
          }
        ],
        "numberOfBytes": "64"
      },
      "t_struct(Borrower)13032_storage": {
        "encoding": "inplace",
        "label": "struct CreditDesk.Borrower",
        "members": [
          {
            "astId": 13031,
            "contract": "contracts/protocol/core/CreditDesk.sol:CreditDesk",
            "label": "creditLines",
            "offset": 0,
            "slot": "0",
            "type": "t_array(t_address)dyn_storage"
          }
        ],
        "numberOfBytes": "32"
      },
      "t_struct(RoleData)260_storage": {
        "encoding": "inplace",
        "label": "struct AccessControlUpgradeSafe.RoleData",
        "members": [
          {
            "astId": 257,
            "contract": "contracts/protocol/core/CreditDesk.sol:CreditDesk",
            "label": "members",
            "offset": 0,
            "slot": "0",
            "type": "t_struct(AddressSet)4204_storage"
          },
          {
            "astId": 259,
            "contract": "contracts/protocol/core/CreditDesk.sol:CreditDesk",
            "label": "adminRole",
            "offset": 0,
            "slot": "2",
            "type": "t_bytes32"
          }
        ],
        "numberOfBytes": "96"
      },
      "t_struct(Set)4024_storage": {
        "encoding": "inplace",
        "label": "struct EnumerableSet.Set",
        "members": [
          {
            "astId": 4019,
            "contract": "contracts/protocol/core/CreditDesk.sol:CreditDesk",
            "label": "_values",
            "offset": 0,
            "slot": "0",
            "type": "t_array(t_bytes32)dyn_storage"
          },
          {
            "astId": 4023,
            "contract": "contracts/protocol/core/CreditDesk.sol:CreditDesk",
            "label": "_indexes",
            "offset": 0,
            "slot": "1",
            "type": "t_mapping(t_bytes32,t_uint256)"
          }
        ],
        "numberOfBytes": "64"
      },
      "t_struct(Underwriter)13028_storage": {
        "encoding": "inplace",
        "label": "struct CreditDesk.Underwriter",
        "members": [
          {
            "astId": 13024,
            "contract": "contracts/protocol/core/CreditDesk.sol:CreditDesk",
            "label": "governanceLimit",
            "offset": 0,
            "slot": "0",
            "type": "t_uint256"
          },
          {
            "astId": 13027,
            "contract": "contracts/protocol/core/CreditDesk.sol:CreditDesk",
            "label": "creditLines",
            "offset": 0,
            "slot": "1",
            "type": "t_array(t_address)dyn_storage"
          }
        ],
        "numberOfBytes": "64"
      },
      "t_uint256": {
        "encoding": "inplace",
        "label": "uint256",
        "numberOfBytes": "32"
      }
    }
  }
}