{
  "address": "0x680cD8d018F2b257ef44De55eB55A12bF7d65d55",
  "abi": [
    {
      "inputs": [
        {
          "internalType": "address",
          "name": "owner",
          "type": "address"
        },
        {
          "internalType": "string",
          "name": "name",
          "type": "string"
        },
        {
          "internalType": "string",
          "name": "symbol",
          "type": "string"
        },
        {
          "internalType": "uint256",
          "name": "initialCap",
          "type": "uint256"
        }
      ],
      "stateMutability": "nonpayable",
      "type": "constructor"
    },
    {
      "anonymous": false,
      "inputs": [
        {
          "indexed": true,
          "internalType": "address",
          "name": "owner",
          "type": "address"
        },
        {
          "indexed": true,
          "internalType": "address",
          "name": "spender",
          "type": "address"
        },
        {
          "indexed": false,
          "internalType": "uint256",
          "name": "value",
          "type": "uint256"
        }
      ],
      "name": "Approval",
      "type": "event"
    },
    {
      "anonymous": false,
      "inputs": [
        {
          "indexed": true,
          "internalType": "address",
          "name": "who",
          "type": "address"
        },
        {
          "indexed": false,
          "internalType": "uint256",
          "name": "cap",
          "type": "uint256"
        }
      ],
      "name": "CapUpdated",
      "type": "event"
    },
    {
      "anonymous": false,
      "inputs": [
        {
          "indexed": false,
          "internalType": "address",
          "name": "account",
          "type": "address"
        }
      ],
      "name": "Paused",
      "type": "event"
    },
    {
      "anonymous": false,
      "inputs": [
        {
          "indexed": true,
          "internalType": "bytes32",
          "name": "role",
          "type": "bytes32"
        },
        {
          "indexed": true,
          "internalType": "bytes32",
          "name": "previousAdminRole",
          "type": "bytes32"
        },
        {
          "indexed": true,
          "internalType": "bytes32",
          "name": "newAdminRole",
          "type": "bytes32"
        }
      ],
      "name": "RoleAdminChanged",
      "type": "event"
    },
    {
      "anonymous": false,
      "inputs": [
        {
          "indexed": true,
          "internalType": "bytes32",
          "name": "role",
          "type": "bytes32"
        },
        {
          "indexed": true,
          "internalType": "address",
          "name": "account",
          "type": "address"
        },
        {
          "indexed": true,
          "internalType": "address",
          "name": "sender",
          "type": "address"
        }
      ],
      "name": "RoleGranted",
      "type": "event"
    },
    {
      "anonymous": false,
      "inputs": [
        {
          "indexed": true,
          "internalType": "bytes32",
          "name": "role",
          "type": "bytes32"
        },
        {
          "indexed": true,
          "internalType": "address",
          "name": "account",
          "type": "address"
        },
        {
          "indexed": true,
          "internalType": "address",
          "name": "sender",
          "type": "address"
        }
      ],
      "name": "RoleRevoked",
      "type": "event"
    },
    {
      "anonymous": false,
      "inputs": [
        {
          "indexed": true,
          "internalType": "address",
          "name": "from",
          "type": "address"
        },
        {
          "indexed": true,
          "internalType": "address",
          "name": "to",
          "type": "address"
        },
        {
          "indexed": false,
          "internalType": "uint256",
          "name": "value",
          "type": "uint256"
        }
      ],
      "name": "Transfer",
      "type": "event"
    },
    {
      "anonymous": false,
      "inputs": [
        {
          "indexed": false,
          "internalType": "address",
          "name": "account",
          "type": "address"
        }
      ],
      "name": "Unpaused",
      "type": "event"
    },
    {
      "inputs": [],
      "name": "DEFAULT_ADMIN_ROLE",
      "outputs": [
        {
          "internalType": "bytes32",
          "name": "",
          "type": "bytes32"
        }
      ],
      "stateMutability": "view",
      "type": "function"
    },
    {
      "inputs": [],
      "name": "MINTER_ROLE",
      "outputs": [
        {
          "internalType": "bytes32",
          "name": "",
          "type": "bytes32"
        }
      ],
      "stateMutability": "view",
      "type": "function"
    },
    {
      "inputs": [],
      "name": "OWNER_ROLE",
      "outputs": [
        {
          "internalType": "bytes32",
          "name": "",
          "type": "bytes32"
        }
      ],
      "stateMutability": "view",
      "type": "function"
    },
    {
      "inputs": [],
      "name": "PAUSER_ROLE",
      "outputs": [
        {
          "internalType": "bytes32",
          "name": "",
          "type": "bytes32"
        }
      ],
      "stateMutability": "view",
      "type": "function"
    },
    {
      "inputs": [
        {
          "internalType": "address",
          "name": "owner",
          "type": "address"
        },
        {
          "internalType": "address",
          "name": "spender",
          "type": "address"
        }
      ],
      "name": "allowance",
      "outputs": [
        {
          "internalType": "uint256",
          "name": "",
          "type": "uint256"
        }
      ],
      "stateMutability": "view",
      "type": "function"
    },
    {
      "inputs": [
        {
          "internalType": "address",
          "name": "spender",
          "type": "address"
        },
        {
          "internalType": "uint256",
          "name": "amount",
          "type": "uint256"
        }
      ],
      "name": "approve",
      "outputs": [
        {
          "internalType": "bool",
          "name": "",
          "type": "bool"
        }
      ],
      "stateMutability": "nonpayable",
      "type": "function"
    },
    {
      "inputs": [
        {
          "internalType": "address",
          "name": "account",
          "type": "address"
        }
      ],
      "name": "balanceOf",
      "outputs": [
        {
          "internalType": "uint256",
          "name": "",
          "type": "uint256"
        }
      ],
      "stateMutability": "view",
      "type": "function"
    },
    {
      "inputs": [
        {
          "internalType": "uint256",
          "name": "amount",
          "type": "uint256"
        }
      ],
      "name": "burn",
      "outputs": [],
      "stateMutability": "nonpayable",
      "type": "function"
    },
    {
      "inputs": [
        {
          "internalType": "address",
          "name": "account",
          "type": "address"
        },
        {
          "internalType": "uint256",
          "name": "amount",
          "type": "uint256"
        }
      ],
      "name": "burnFrom",
      "outputs": [],
      "stateMutability": "nonpayable",
      "type": "function"
    },
    {
      "inputs": [],
      "name": "cap",
      "outputs": [
        {
          "internalType": "uint256",
          "name": "",
          "type": "uint256"
        }
      ],
      "stateMutability": "view",
      "type": "function"
    },
    {
      "inputs": [],
      "name": "decimals",
      "outputs": [
        {
          "internalType": "uint8",
          "name": "",
          "type": "uint8"
        }
      ],
      "stateMutability": "view",
      "type": "function"
    },
    {
      "inputs": [
        {
          "internalType": "address",
          "name": "spender",
          "type": "address"
        },
        {
          "internalType": "uint256",
          "name": "subtractedValue",
          "type": "uint256"
        }
      ],
      "name": "decreaseAllowance",
      "outputs": [
        {
          "internalType": "bool",
          "name": "",
          "type": "bool"
        }
      ],
      "stateMutability": "nonpayable",
      "type": "function"
    },
    {
      "inputs": [
        {
          "internalType": "bytes32",
          "name": "role",
          "type": "bytes32"
        }
      ],
      "name": "getRoleAdmin",
      "outputs": [
        {
          "internalType": "bytes32",
          "name": "",
          "type": "bytes32"
        }
      ],
      "stateMutability": "view",
      "type": "function"
    },
    {
      "inputs": [
        {
          "internalType": "bytes32",
          "name": "role",
          "type": "bytes32"
        },
        {
          "internalType": "uint256",
          "name": "index",
          "type": "uint256"
        }
      ],
      "name": "getRoleMember",
      "outputs": [
        {
          "internalType": "address",
          "name": "",
          "type": "address"
        }
      ],
      "stateMutability": "view",
      "type": "function"
    },
    {
      "inputs": [
        {
          "internalType": "bytes32",
          "name": "role",
          "type": "bytes32"
        }
      ],
      "name": "getRoleMemberCount",
      "outputs": [
        {
          "internalType": "uint256",
          "name": "",
          "type": "uint256"
        }
      ],
      "stateMutability": "view",
      "type": "function"
    },
    {
      "inputs": [
        {
          "internalType": "bytes32",
          "name": "role",
          "type": "bytes32"
        },
        {
          "internalType": "address",
          "name": "account",
          "type": "address"
        }
      ],
      "name": "grantRole",
      "outputs": [],
      "stateMutability": "nonpayable",
      "type": "function"
    },
    {
      "inputs": [
        {
          "internalType": "bytes32",
          "name": "role",
          "type": "bytes32"
        },
        {
          "internalType": "address",
          "name": "account",
          "type": "address"
        }
      ],
      "name": "hasRole",
      "outputs": [
        {
          "internalType": "bool",
          "name": "",
          "type": "bool"
        }
      ],
      "stateMutability": "view",
      "type": "function"
    },
    {
      "inputs": [
        {
          "internalType": "address",
          "name": "spender",
          "type": "address"
        },
        {
          "internalType": "uint256",
          "name": "addedValue",
          "type": "uint256"
        }
      ],
      "name": "increaseAllowance",
      "outputs": [
        {
          "internalType": "bool",
          "name": "",
          "type": "bool"
        }
      ],
      "stateMutability": "nonpayable",
      "type": "function"
    },
    {
      "inputs": [
        {
          "internalType": "address",
          "name": "account",
          "type": "address"
        },
        {
          "internalType": "uint256",
          "name": "amount",
          "type": "uint256"
        }
      ],
      "name": "mint",
      "outputs": [],
      "stateMutability": "nonpayable",
      "type": "function"
    },
    {
      "inputs": [],
      "name": "name",
      "outputs": [
        {
          "internalType": "string",
          "name": "",
          "type": "string"
        }
      ],
      "stateMutability": "view",
      "type": "function"
    },
    {
      "inputs": [],
      "name": "pause",
      "outputs": [],
      "stateMutability": "nonpayable",
      "type": "function"
    },
    {
      "inputs": [],
      "name": "paused",
      "outputs": [
        {
          "internalType": "bool",
          "name": "",
          "type": "bool"
        }
      ],
      "stateMutability": "view",
      "type": "function"
    },
    {
      "inputs": [
        {
          "internalType": "bytes32",
          "name": "role",
          "type": "bytes32"
        },
        {
          "internalType": "address",
          "name": "account",
          "type": "address"
        }
      ],
      "name": "renounceRole",
      "outputs": [],
      "stateMutability": "nonpayable",
      "type": "function"
    },
    {
      "inputs": [
        {
          "internalType": "bytes32",
          "name": "role",
          "type": "bytes32"
        },
        {
          "internalType": "address",
          "name": "account",
          "type": "address"
        }
      ],
      "name": "revokeRole",
      "outputs": [],
      "stateMutability": "nonpayable",
      "type": "function"
    },
    {
      "inputs": [
        {
          "internalType": "uint256",
          "name": "_cap",
          "type": "uint256"
        }
      ],
      "name": "setCap",
      "outputs": [],
      "stateMutability": "nonpayable",
      "type": "function"
    },
    {
      "inputs": [],
      "name": "symbol",
      "outputs": [
        {
          "internalType": "string",
          "name": "",
          "type": "string"
        }
      ],
      "stateMutability": "view",
      "type": "function"
    },
    {
      "inputs": [],
      "name": "totalSupply",
      "outputs": [
        {
          "internalType": "uint256",
          "name": "",
          "type": "uint256"
        }
      ],
      "stateMutability": "view",
      "type": "function"
    },
    {
      "inputs": [
        {
          "internalType": "address",
          "name": "recipient",
          "type": "address"
        },
        {
          "internalType": "uint256",
          "name": "amount",
          "type": "uint256"
        }
      ],
      "name": "transfer",
      "outputs": [
        {
          "internalType": "bool",
          "name": "",
          "type": "bool"
        }
      ],
      "stateMutability": "nonpayable",
      "type": "function"
    },
    {
      "inputs": [
        {
          "internalType": "address",
          "name": "sender",
          "type": "address"
        },
        {
          "internalType": "address",
          "name": "recipient",
          "type": "address"
        },
        {
          "internalType": "uint256",
          "name": "amount",
          "type": "uint256"
        }
      ],
      "name": "transferFrom",
      "outputs": [
        {
          "internalType": "bool",
          "name": "",
          "type": "bool"
        }
      ],
      "stateMutability": "nonpayable",
      "type": "function"
    },
    {
      "inputs": [],
      "name": "unpause",
      "outputs": [],
      "stateMutability": "nonpayable",
      "type": "function"
    }
  ],
  "transactionHash": "0xeabe69b9a60c6c194c7bf6c5031e0ac42e71c32fb6d89a4f562848c4bbc22bae",
  "args": [
    "0x618C20c64cAc5211E099D355ba213790708e7462",
    "Goldfinch",
    "GFI",
    "100000000000000000000000000"
  ],
  "solcInputHash": "a67c4f293a964d2cac7bbf8c9f65d46c",
  "bytecode": "0x60806040523480156200001157600080fd5b5060405162001e5a38038062001e5a8339810160408190526200003491620003f2565b8251839083906200004d906004906020850190620002af565b50805162000063906005906020840190620002af565b50506006805461ff001960ff199091166012171690555060078190556200009a60008051602062001e3a8339815191528562000149565b620000b560008051602062001e1a8339815191528562000149565b620000d060008051602062001dfa8339815191528562000149565b620000fa60008051602062001e3a83398151915260008051602062001dfa83398151915262000159565b6200012460008051602062001e1a83398151915260008051602062001dfa83398151915262000159565b6200013f60008051602062001dfa8339815191528062000159565b5050505062000480565b620001558282620001ab565b5050565b600082815260208190526040808220600201549051839285917fbd79b86ffe0ab8e8776151514217cd7cacd52c909f66475c3af44e129f0b00ff9190a460009182526020829052604090912060020155565b600082815260208181526040909120620001d091839062000a4362000224821b17901c565b156200015557620001e062000244565b6001600160a01b0316816001600160a01b0316837f2f8788117e7eff1d82e926ec794901d17c78024a50270940304540a733656f0d60405160405180910390a45050565b60006200023b836001600160a01b03841662000248565b90505b92915050565b3390565b600062000256838362000297565b6200028e575081546001818101845560008481526020808220909301849055845484825282860190935260409020919091556200023e565b5060006200023e565b60009081526001919091016020526040902054151590565b828054600181600116156101000203166002900490600052602060002090601f016020900481019282601f10620002f257805160ff191683800117855562000322565b8280016001018555821562000322579182015b828111156200032257825182559160200191906001019062000305565b506200033092915062000334565b5090565b5b8082111562000330576000815560010162000335565b600082601f8301126200035c578081fd5b81516001600160401b038082111562000373578283fd5b6040516020601f8401601f191682018101838111838210171562000395578586fd5b80604052508194508382528681858801011115620003b257600080fd5b600092505b83831015620003d65785830181015182840182015291820191620003b7565b83831115620003e85760008185840101525b5050505092915050565b6000806000806080858703121562000408578384fd5b84516001600160a01b03811681146200041f578485fd5b60208601519094506001600160401b03808211156200043c578485fd5b6200044a888389016200034b565b9450604087015191508082111562000460578384fd5b506200046f878288016200034b565b606096909601519497939650505050565b61196a80620004906000396000f3fe608060405234801561001057600080fd5b506004361061019a5760003560e01c806370a08231116100e4578063a457c2d711610092578063a457c2d71461032a578063a9059cbb1461033d578063ca15c87314610350578063d539139314610363578063d547741f1461036b578063dd62ed3e1461037e578063e58378bb14610391578063e63ab1e9146103995761019a565b806370a08231146102b957806379cc6790146102cc5780638456cb59146102df5780639010d07c146102e757806391d148541461030757806395d89b411461031a578063a217fddf146103225761019a565b8063355274ea1161014c578063355274ea1461024257806336568abe1461024a578063395093511461025d5780633f4ba83a1461027057806340c10f191461027857806342966c681461028b57806347786d371461029e5780635c975abb146102b15761019a565b806306fdde031461019f578063095ea7b3146101bd57806318160ddd146101dd57806323b872dd146101f2578063248a9ca3146102055780632f2ff15d14610218578063313ce5671461022d575b600080fd5b6101a76103a1565b6040516101b49190611308565b60405180910390f35b6101d06101cb36600461124e565b610437565b6040516101b491906112f4565b6101e5610455565b6040516101b491906112ff565b6101d061020036600461120e565b61045b565b6101e5610213366004611278565b6104e2565b61022b610226366004611290565b6104f7565b005b610235610548565b6040516101b49190611818565b6101e5610551565b61022b610258366004611290565b610557565b6101d061026b36600461124e565b610599565b61022b6105e7565b61022b61028636600461124e565b610627565b61022b610299366004611278565b6106c3565b61022b6102ac366004611278565b6106d7565b6101d0610798565b6101e56102c73660046111bf565b6107a6565b61022b6102da36600461124e565b6107c1565b61022b610816565b6102fa6102f53660046112bf565b610854565b6040516101b491906112e0565b6101d0610315366004611290565b610873565b6101a761088b565b6101e56108ec565b6101d061033836600461124e565b6108f1565b6101d061034b36600461124e565b610959565b6101e561035e366004611278565b61096d565b6101e5610984565b61022b610379366004611290565b6109a8565b6101e561038c3660046111da565b6109e2565b6101e5610a0d565b6101e5610a31565b60048054604080516020601f600260001961010060018816150201909516949094049384018190048102820181019092528281526060939092909183018282801561042d5780601f106104025761010080835404028352916020019161042d565b820191906000526020600020905b81548152906001019060200180831161041057829003601f168201915b5050505050905090565b600061044b610444610a58565b8484610a5c565b5060015b92915050565b60035490565b6000610468848484610b10565b6104d884610474610a58565b6104d385604051806060016040528060288152602001611884602891396001600160a01b038a166000908152600260205260408120906104b2610a58565b6001600160a01b031681526020810191909152604001600020549190610c13565b610a5c565b5060019392505050565b60009081526020819052604090206002015490565b60008281526020819052604090206002015461051590610315610a58565b61053a5760405162461bcd60e51b8152600401610531906113e0565b60405180910390fd5b6105448282610c3f565b5050565b60065460ff1690565b60075481565b61055f610a58565b6001600160a01b0316816001600160a01b03161461058f5760405162461bcd60e51b815260040161053190611748565b6105448282610ca8565b600061044b6105a6610a58565b846104d385600260006105b7610a58565b6001600160a01b03908116825260208083019390935260409182016000908120918c168152925290205490610d11565b6106016000805160206118ac833981519152610315610a58565b61061d5760405162461bcd60e51b81526004016105319061150d565b610625610d36565b565b6106537f9f2df0fed2c77648de5860a4cc508cd0818c85b8b8a1ab4ceeef8d981c8956a6610315610a58565b61066f5760405162461bcd60e51b815260040161053190611720565b610677610798565b156106945760405162461bcd60e51b8152600401610531906115b8565b61069d81610da5565b6106b95760405162461bcd60e51b815260040161053190611585565b6105448282610dc4565b6106d46106ce610a58565b82610e72565b50565b6107037fb19546dff01e856fb3f010c267a7b1c60363cf8a4664e21cc89c26224620214e610315610a58565b61071f5760405162461bcd60e51b81526004016105319061162f565b610727610455565b8110156107465760405162461bcd60e51b8152600401610531906115e2565b6007819055610753610a58565b6001600160a01b03167f32fb4810d3e24ba1aa970e73c47779c970d006f8e33c4f3b696dc6fce03b61c060075460405161078d91906112ff565b60405180910390a250565b600654610100900460ff1690565b6001600160a01b031660009081526001602052604090205490565b60006107f3826040518060600160405280602481526020016118cc602491396107ec8661038c610a58565b9190610c13565b905061080783610801610a58565b83610a5c565b6108118383610e72565b505050565b6108306000805160206118ac833981519152610315610a58565b61084c5760405162461bcd60e51b81526004016105319061150d565b610625610f36565b600082815260208190526040812061086c9083610f93565b9392505050565b600082815260208190526040812061086c9083610f9f565b60058054604080516020601f600260001961010060018816150201909516949094049384018190048102820181019092528281526060939092909183018282801561042d5780601f106104025761010080835404028352916020019161042d565b600081565b600061044b6108fe610a58565b846104d3856040518060600160405280602581526020016119106025913960026000610928610a58565b6001600160a01b03908116825260208083019390935260409182016000908120918d16815292529020549190610c13565b600061044b610966610a58565b8484610b10565b600081815260208190526040812061044f90610fb4565b7f9f2df0fed2c77648de5860a4cc508cd0818c85b8b8a1ab4ceeef8d981c8956a681565b6000828152602081905260409020600201546109c690610315610a58565b61058f5760405162461bcd60e51b815260040161053190611535565b6001600160a01b03918216600090815260026020908152604080832093909416825291909152205490565b7fb19546dff01e856fb3f010c267a7b1c60363cf8a4664e21cc89c26224620214e81565b6000805160206118ac83398151915281565b600061086c836001600160a01b038416610fbf565b3390565b6001600160a01b038316610a825760405162461bcd60e51b8152600401610531906116dc565b6001600160a01b038216610aa85760405162461bcd60e51b81526004016105319061145d565b6001600160a01b0380841660008181526002602090815260408083209487168084529490915290819020849055517f8c5be1e5ebec7d5bd14f71427d1e84f3dd0314c0f7b2291e5b200ac8c7c3b92590610b039085906112ff565b60405180910390a3505050565b6001600160a01b038316610b365760405162461bcd60e51b815260040161053190611697565b6001600160a01b038216610b5c5760405162461bcd60e51b81526004016105319061139d565b610b67838383611009565b610ba48160405180606001604052806026815260200161185e602691396001600160a01b0386166000908152600160205260409020549190610c13565b6001600160a01b038085166000908152600160205260408082209390935590841681522054610bd39082610d11565b6001600160a01b0380841660008181526001602052604090819020939093559151908516906000805160206118f083398151915290610b039085906112ff565b60008184841115610c375760405162461bcd60e51b81526004016105319190611308565b505050900390565b6000828152602081905260409020610c579082610a43565b1561054457610c64610a58565b6001600160a01b0316816001600160a01b0316837f2f8788117e7eff1d82e926ec794901d17c78024a50270940304540a733656f0d60405160405180910390a45050565b6000828152602081905260409020610cc09082611014565b1561054457610ccd610a58565b6001600160a01b0316816001600160a01b0316837ff6391f5c32d9c69d2a47ea670b442974b53935d1edc7fd64eb21e047a839171b60405160405180910390a45050565b60008282018381101561086c5760405162461bcd60e51b81526004016105319061149f565b610d3e610798565b610d5a5760405162461bcd60e51b81526004016105319061142f565b6006805461ff00191690557f5db9ee0a495bf2e6ff9c91a7834c1ba4fdd244a5e8aa4e537bd38aeae4b073aa610d8e610a58565b604051610d9b91906112e0565b60405180910390a1565b6000600754610dbc83610db6610455565b90610d11565b111592915050565b6001600160a01b038216610dea5760405162461bcd60e51b815260040161053190611797565b610df660008383611009565b600354610e039082610d11565b6003556001600160a01b038216600090815260016020526040902054610e299082610d11565b6001600160a01b0383166000818152600160205260408082209390935591519091906000805160206118f083398151915290610e669085906112ff565b60405180910390a35050565b6001600160a01b038216610e985760405162461bcd60e51b815260040161053190611656565b610ea482600083611009565b610ee18160405180606001604052806022815260200161183c602291396001600160a01b0385166000908152600160205260409020549190610c13565b6001600160a01b038316600090815260016020526040902055600354610f079082611029565b6003556040516000906001600160a01b038416906000805160206118f083398151915290610e669085906112ff565b610f3e610798565b15610f5b5760405162461bcd60e51b8152600401610531906115b8565b6006805461ff0019166101001790557f62e78cea01bee320cd4e420270b5ea74000d11b0c9f74754ebdbfc544b05a258610d8e610a58565b600061086c8383611051565b600061086c836001600160a01b038416611096565b600061044f826110ae565b6000610fcb8383611096565b6110015750815460018181018455600084815260208082209093018490558454848252828601909352604090209190915561044f565b50600061044f565b6108118383836110b2565b600061086c836001600160a01b0384166110e2565b60008282111561104b5760405162461bcd60e51b8152600401610531906114d6565b50900390565b815460009082106110745760405162461bcd60e51b81526004016105319061135b565b82600001828154811061108357fe5b9060005260206000200154905092915050565b60009081526001919091016020526040902054151590565b5490565b6110bd838383610811565b6110c5610798565b156108115760405162461bcd60e51b8152600401610531906117ce565b6000818152600183016020526040812054801561119e578354600019808301919081019060009087908390811061111557fe5b906000526020600020015490508087600001848154811061113257fe5b60009182526020808320909101929092558281526001898101909252604090209084019055865487908061116257fe5b6001900381819060005260206000200160009055905586600101600087815260200190815260200160002060009055600194505050505061044f565b600091505061044f565b80356001600160a01b038116811461044f57600080fd5b6000602082840312156111d0578081fd5b61086c83836111a8565b600080604083850312156111ec578081fd5b6111f684846111a8565b915061120584602085016111a8565b90509250929050565b600080600060608486031215611222578081fd5b833561122d81611826565b9250602084013561123d81611826565b929592945050506040919091013590565b60008060408385031215611260578182fd5b61126a84846111a8565b946020939093013593505050565b600060208284031215611289578081fd5b5035919050565b600080604083850312156112a2578182fd5b8235915060208301356112b481611826565b809150509250929050565b600080604083850312156112d1578182fd5b50508035926020909101359150565b6001600160a01b0391909116815260200190565b901515815260200190565b90815260200190565b6000602080835283518082850152825b8181101561133457858101830151858201604001528201611318565b818111156113455783604083870101525b50601f01601f1916929092016040019392505050565b60208082526022908201527f456e756d657261626c655365743a20696e646578206f7574206f6620626f756e604082015261647360f01b606082015260800190565b60208082526023908201527f45524332303a207472616e7366657220746f20746865207a65726f206164647260408201526265737360e81b606082015260800190565b6020808252602f908201527f416363657373436f6e74726f6c3a2073656e646572206d75737420626520616e60408201526e0818591b5a5b881d1bc819dc985b9d608a1b606082015260800190565b60208082526014908201527314185d5cd8589b194e881b9bdd081c185d5cd95960621b604082015260600190565b60208082526022908201527f45524332303a20617070726f766520746f20746865207a65726f206164647265604082015261737360f01b606082015260800190565b6020808252601b908201527f536166654d6174683a206164646974696f6e206f766572666c6f770000000000604082015260600190565b6020808252601e908201527f536166654d6174683a207375627472616374696f6e206f766572666c6f770000604082015260600190565b6020808252600e908201526d26bab9ba103132903830bab9b2b960911b604082015260600190565b60208082526030908201527f416363657373436f6e74726f6c3a2073656e646572206d75737420626520616e60408201526f2061646d696e20746f207265766f6b6560801b606082015260800190565b602080825260199082015278043616e6e6f74206d696e74206d6f7265207468616e2063617603c1b604082015260600190565b60208082526010908201526f14185d5cd8589b194e881c185d5cd95960821b604082015260600190565b6020808252602d908201527f43616e6e6f7420646563726561736520746865206361702062656c6f7720657860408201526c697374696e6720737570706c7960981b606082015260800190565b6020808252600d908201526c26bab9ba1031329037bbb732b960991b604082015260600190565b60208082526021908201527f45524332303a206275726e2066726f6d20746865207a65726f206164647265736040820152607360f81b606082015260800190565b60208082526025908201527f45524332303a207472616e736665722066726f6d20746865207a65726f206164604082015264647265737360d81b606082015260800190565b60208082526024908201527f45524332303a20617070726f76652066726f6d20746865207a65726f206164646040820152637265737360e01b606082015260800190565b6020808252600e908201526d26bab9ba1031329036b4b73a32b960911b604082015260600190565b6020808252602f908201527f416363657373436f6e74726f6c3a2063616e206f6e6c792072656e6f756e636560408201526e103937b632b9903337b91039b2b63360891b606082015260800190565b6020808252601f908201527f45524332303a206d696e7420746f20746865207a65726f206164647265737300604082015260600190565b6020808252602a908201527f45524332305061757361626c653a20746f6b656e207472616e736665722077686040820152691a5b19481c185d5cd95960b21b606082015260800190565b60ff91909116815260200190565b6001600160a01b03811681146106d457600080fdfe45524332303a206275726e20616d6f756e7420657863656564732062616c616e636545524332303a207472616e7366657220616d6f756e7420657863656564732062616c616e636545524332303a207472616e7366657220616d6f756e74206578636565647320616c6c6f77616e636565d7a28e3265b37a6474929f336521b332c1681b933f6cb9f3376673440d862a45524332303a206275726e20616d6f756e74206578636565647320616c6c6f77616e6365ddf252ad1be2c89b69c2b068fc378daa952ba7f163c4a11628f55a4df523b3ef45524332303a2064656372656173656420616c6c6f77616e63652062656c6f77207a65726fa2646970667358221220d20eb2f4549f08b50fc2d1b0e9d8a4af7086596f57f0889599596d8e5c4d773364736f6c634300060c0033b19546dff01e856fb3f010c267a7b1c60363cf8a4664e21cc89c26224620214e65d7a28e3265b37a6474929f336521b332c1681b933f6cb9f3376673440d862a9f2df0fed2c77648de5860a4cc508cd0818c85b8b8a1ab4ceeef8d981c8956a6",
  "devdoc": {
    "author": "Goldfinch",
    "kind": "dev",
    "methods": {
      "allowance(address,address)": {
        "details": "See {IERC20-allowance}."
      },
      "approve(address,uint256)": {
        "details": "See {IERC20-approve}. Requirements: - `spender` cannot be the zero address."
      },
      "balanceOf(address)": {
        "details": "See {IERC20-balanceOf}."
      },
      "burn(uint256)": {
        "details": "Destroys `amount` tokens from the caller. See {ERC20-_burn}."
      },
      "burnFrom(address,uint256)": {
        "details": "Destroys `amount` tokens from `account`, deducting from the caller's allowance. See {ERC20-_burn} and {ERC20-allowance}. Requirements: - the caller must have allowance for ``accounts``'s tokens of at least `amount`."
      },
      "decimals()": {
        "details": "Returns the number of decimals used to get its user representation. For example, if `decimals` equals `2`, a balance of `505` tokens should be displayed to a user as `5,05` (`505 / 10 ** 2`). Tokens usually opt for a value of 18, imitating the relationship between Ether and Wei. This is the value {ERC20} uses, unless {_setupDecimals} is called. NOTE: This information is only used for _display_ purposes: it in no way affects any of the arithmetic of the contract, including {IERC20-balanceOf} and {IERC20-transfer}."
      },
      "decreaseAllowance(address,uint256)": {
        "details": "Atomically decreases the allowance granted to `spender` by the caller. This is an alternative to {approve} that can be used as a mitigation for problems described in {IERC20-approve}. Emits an {Approval} event indicating the updated allowance. Requirements: - `spender` cannot be the zero address. - `spender` must have allowance for the caller of at least `subtractedValue`."
      },
      "getRoleAdmin(bytes32)": {
        "details": "Returns the admin role that controls `role`. See {grantRole} and {revokeRole}. To change a role's admin, use {_setRoleAdmin}."
      },
      "getRoleMember(bytes32,uint256)": {
        "details": "Returns one of the accounts that have `role`. `index` must be a value between 0 and {getRoleMemberCount}, non-inclusive. Role bearers are not sorted in any particular way, and their ordering may change at any point. WARNING: When using {getRoleMember} and {getRoleMemberCount}, make sure you perform all queries on the same block. See the following https://forum.openzeppelin.com/t/iterating-over-elements-on-enumerableset-in-openzeppelin-contracts/2296[forum post] for more information."
      },
      "getRoleMemberCount(bytes32)": {
        "details": "Returns the number of accounts that have `role`. Can be used together with {getRoleMember} to enumerate all bearers of a role."
      },
      "grantRole(bytes32,address)": {
        "details": "Grants `role` to `account`. If `account` had not been already granted `role`, emits a {RoleGranted} event. Requirements: - the caller must have ``role``'s admin role."
      },
      "hasRole(bytes32,address)": {
        "details": "Returns `true` if `account` has been granted `role`."
      },
      "increaseAllowance(address,uint256)": {
        "details": "Atomically increases the allowance granted to `spender` by the caller. This is an alternative to {approve} that can be used as a mitigation for problems described in {IERC20-approve}. Emits an {Approval} event indicating the updated allowance. Requirements: - `spender` cannot be the zero address."
      },
      "mint(address,uint256)": {
        "details": "this function will fail if the caller attempts to mint over the current cap"
      },
      "name()": {
        "details": "Returns the name of the token."
      },
      "pause()": {
        "details": "Pauses all token transfers. See {ERC20Pausable} and {Pausable-_pause}. Requirements: - the caller must have the `PAUSER_ROLE`."
      },
      "paused()": {
        "details": "Returns true if the contract is paused, and false otherwise."
      },
      "renounceRole(bytes32,address)": {
        "details": "Revokes `role` from the calling account. Roles are often managed via {grantRole} and {revokeRole}: this function's purpose is to provide a mechanism for accounts to lose their privileges if they are compromised (such as when a trusted device is misplaced). If the calling account had been granted `role`, emits a {RoleRevoked} event. Requirements: - the caller must be `account`."
      },
      "revokeRole(bytes32,address)": {
        "details": "Revokes `role` from `account`. If `account` had been granted `role`, emits a {RoleRevoked} event. Requirements: - the caller must have ``role``'s admin role."
      },
      "setCap(uint256)": {
        "details": "the cap must be greater than the current total supply"
      },
      "symbol()": {
        "details": "Returns the symbol of the token, usually a shorter version of the name."
      },
      "totalSupply()": {
        "details": "See {IERC20-totalSupply}."
      },
      "transfer(address,uint256)": {
        "details": "See {IERC20-transfer}. Requirements: - `recipient` cannot be the zero address. - the caller must have a balance of at least `amount`."
      },
      "transferFrom(address,address,uint256)": {
        "details": "See {IERC20-transferFrom}. Emits an {Approval} event indicating the updated allowance. This is not required by the EIP. See the note at the beginning of {ERC20}. Requirements: - `sender` and `recipient` cannot be the zero address. - `sender` must have a balance of at least `amount`. - the caller must have allowance for ``sender``'s tokens of at least `amount`."
      },
      "unpause()": {
        "details": "Unpauses all token transfers. See {ERC20Pausable} and {Pausable-_unpause}. Requirements: - the caller must have the `PAUSER_ROLE`."
      }
    },
    "title": "GFI",
    "version": 1
  },
  "userdoc": {
    "kind": "user",
    "methods": {
      "cap()": {
        "notice": "The maximum number of tokens that can be minted"
      },
      "mint(address,uint256)": {
        "notice": "create and send tokens to a specified address"
      },
      "setCap(uint256)": {
        "notice": "sets the maximum number of tokens that can be minted"
      }
    },
    "notice": "GFI is Goldfinch's governance token.",
    "version": 1
  },
  "storageLayout": {
    "storage": [
      {
        "astId": 4679,
        "contract": "contracts/protocol/core/GFI.sol:GFI",
        "label": "_roles",
        "offset": 0,
        "slot": "0",
        "type": "t_mapping(t_bytes32,t_struct(RoleData)4675_storage)"
      },
      {
        "astId": 5829,
        "contract": "contracts/protocol/core/GFI.sol:GFI",
        "label": "_balances",
        "offset": 0,
        "slot": "1",
        "type": "t_mapping(t_address,t_uint256)"
      },
      {
        "astId": 5835,
        "contract": "contracts/protocol/core/GFI.sol:GFI",
        "label": "_allowances",
        "offset": 0,
        "slot": "2",
        "type": "t_mapping(t_address,t_mapping(t_address,t_uint256))"
      },
      {
        "astId": 5837,
        "contract": "contracts/protocol/core/GFI.sol:GFI",
        "label": "_totalSupply",
        "offset": 0,
        "slot": "3",
        "type": "t_uint256"
      },
      {
        "astId": 5839,
        "contract": "contracts/protocol/core/GFI.sol:GFI",
        "label": "_name",
        "offset": 0,
        "slot": "4",
        "type": "t_string_storage"
      },
      {
        "astId": 5841,
        "contract": "contracts/protocol/core/GFI.sol:GFI",
        "label": "_symbol",
        "offset": 0,
        "slot": "5",
        "type": "t_string_storage"
      },
      {
        "astId": 5843,
        "contract": "contracts/protocol/core/GFI.sol:GFI",
        "label": "_decimals",
        "offset": 0,
        "slot": "6",
        "type": "t_uint8"
      },
      {
        "astId": 7368,
        "contract": "contracts/protocol/core/GFI.sol:GFI",
        "label": "_paused",
        "offset": 1,
        "slot": "6",
        "type": "t_bool"
      },
      {
        "astId": 16314,
        "contract": "contracts/protocol/core/GFI.sol:GFI",
        "label": "cap",
        "offset": 0,
        "slot": "7",
        "type": "t_uint256"
      }
    ],
    "types": {
      "t_address": {
        "encoding": "inplace",
        "label": "address",
        "numberOfBytes": "20"
      },
      "t_array(t_bytes32)dyn_storage": {
        "base": "t_bytes32",
        "encoding": "dynamic_array",
        "label": "bytes32[]",
        "numberOfBytes": "32"
      },
      "t_bool": {
        "encoding": "inplace",
        "label": "bool",
        "numberOfBytes": "1"
      },
      "t_bytes32": {
        "encoding": "inplace",
        "label": "bytes32",
        "numberOfBytes": "32"
      },
      "t_mapping(t_address,t_mapping(t_address,t_uint256))": {
        "encoding": "mapping",
        "key": "t_address",
        "label": "mapping(address => mapping(address => uint256))",
        "numberOfBytes": "32",
        "value": "t_mapping(t_address,t_uint256)"
      },
      "t_mapping(t_address,t_uint256)": {
        "encoding": "mapping",
        "key": "t_address",
        "label": "mapping(address => uint256)",
        "numberOfBytes": "32",
        "value": "t_uint256"
      },
      "t_mapping(t_bytes32,t_struct(RoleData)4675_storage)": {
        "encoding": "mapping",
        "key": "t_bytes32",
        "label": "mapping(bytes32 => struct AccessControl.RoleData)",
        "numberOfBytes": "32",
        "value": "t_struct(RoleData)4675_storage"
      },
      "t_mapping(t_bytes32,t_uint256)": {
        "encoding": "mapping",
        "key": "t_bytes32",
        "label": "mapping(bytes32 => uint256)",
        "numberOfBytes": "32",
        "value": "t_uint256"
      },
      "t_string_storage": {
        "encoding": "bytes",
        "label": "string",
        "numberOfBytes": "32"
      },
      "t_struct(AddressSet)7134_storage": {
        "encoding": "inplace",
        "label": "struct EnumerableSet.AddressSet",
        "members": [
          {
            "astId": 7133,
            "contract": "contracts/protocol/core/GFI.sol:GFI",
            "label": "_inner",
            "offset": 0,
            "slot": "0",
            "type": "t_struct(Set)6869_storage"
          }
        ],
        "numberOfBytes": "64"
      },
      "t_struct(RoleData)4675_storage": {
        "encoding": "inplace",
        "label": "struct AccessControl.RoleData",
        "members": [
          {
            "astId": 4672,
            "contract": "contracts/protocol/core/GFI.sol:GFI",
            "label": "members",
            "offset": 0,
            "slot": "0",
            "type": "t_struct(AddressSet)7134_storage"
          },
          {
            "astId": 4674,
            "contract": "contracts/protocol/core/GFI.sol:GFI",
            "label": "adminRole",
            "offset": 0,
            "slot": "2",
            "type": "t_bytes32"
          }
        ],
        "numberOfBytes": "96"
      },
      "t_struct(Set)6869_storage": {
        "encoding": "inplace",
        "label": "struct EnumerableSet.Set",
        "members": [
          {
            "astId": 6864,
            "contract": "contracts/protocol/core/GFI.sol:GFI",
            "label": "_values",
            "offset": 0,
            "slot": "0",
            "type": "t_array(t_bytes32)dyn_storage"
          },
          {
            "astId": 6868,
            "contract": "contracts/protocol/core/GFI.sol:GFI",
            "label": "_indexes",
            "offset": 0,
            "slot": "1",
            "type": "t_mapping(t_bytes32,t_uint256)"
          }
        ],
        "numberOfBytes": "64"
      },
      "t_uint256": {
        "encoding": "inplace",
        "label": "uint256",
        "numberOfBytes": "32"
      },
      "t_uint8": {
        "encoding": "inplace",
        "label": "uint8",
        "numberOfBytes": "1"
      }
    }
  }
}