{
  "address": "0x29489C19bDD68EAA181bAfD6a7388F738aD23dFa",
  "abi": [
    {
      "anonymous": false,
      "inputs": [
        {
          "indexed": true,
          "internalType": "address",
          "name": "owner",
          "type": "address"
        },
        {
          "indexed": true,
          "internalType": "address",
          "name": "approved",
          "type": "address"
        },
        {
          "indexed": true,
          "internalType": "uint256",
          "name": "tokenId",
          "type": "uint256"
        }
      ],
      "name": "Approval",
      "type": "event"
    },
    {
      "anonymous": false,
      "inputs": [
        {
          "indexed": true,
          "internalType": "address",
          "name": "owner",
          "type": "address"
        },
        {
          "indexed": true,
          "internalType": "address",
          "name": "operator",
          "type": "address"
        },
        {
          "indexed": false,
          "internalType": "bool",
          "name": "approved",
          "type": "bool"
        }
      ],
      "name": "ApprovalForAll",
      "type": "event"
    },
    {
      "anonymous": false,
      "inputs": [
        {
          "indexed": true,
          "internalType": "address",
          "name": "who",
          "type": "address"
        },
        {
          "indexed": false,
          "internalType": "address",
          "name": "configAddress",
          "type": "address"
        }
      ],
      "name": "GoldfinchConfigUpdated",
      "type": "event"
    },
    {
      "anonymous": false,
      "inputs": [
        {
          "indexed": false,
          "internalType": "address",
          "name": "account",
          "type": "address"
        }
      ],
      "name": "Paused",
      "type": "event"
    },
    {
      "anonymous": false,
      "inputs": [
        {
          "indexed": true,
          "internalType": "bytes32",
          "name": "role",
          "type": "bytes32"
        },
        {
          "indexed": true,
          "internalType": "address",
          "name": "account",
          "type": "address"
        },
        {
          "indexed": true,
          "internalType": "address",
          "name": "sender",
          "type": "address"
        }
      ],
      "name": "RoleGranted",
      "type": "event"
    },
    {
      "anonymous": false,
      "inputs": [
        {
          "indexed": true,
          "internalType": "bytes32",
          "name": "role",
          "type": "bytes32"
        },
        {
          "indexed": true,
          "internalType": "address",
          "name": "account",
          "type": "address"
        },
        {
          "indexed": true,
          "internalType": "address",
          "name": "sender",
          "type": "address"
        }
      ],
      "name": "RoleRevoked",
      "type": "event"
    },
    {
      "anonymous": false,
      "inputs": [
        {
          "indexed": true,
          "internalType": "address",
          "name": "owner",
          "type": "address"
        },
        {
          "indexed": true,
          "internalType": "address",
          "name": "pool",
          "type": "address"
        },
        {
          "indexed": true,
          "internalType": "uint256",
          "name": "tokenId",
          "type": "uint256"
        }
      ],
      "name": "TokenBurned",
      "type": "event"
    },
    {
      "anonymous": false,
      "inputs": [
        {
          "indexed": true,
          "internalType": "address",
          "name": "owner",
          "type": "address"
        },
        {
          "indexed": true,
          "internalType": "address",
          "name": "pool",
          "type": "address"
        },
        {
          "indexed": true,
          "internalType": "uint256",
          "name": "tokenId",
          "type": "uint256"
        },
        {
          "indexed": false,
          "internalType": "uint256",
          "name": "amount",
          "type": "uint256"
        },
        {
          "indexed": false,
          "internalType": "uint256",
          "name": "tranche",
          "type": "uint256"
        }
      ],
      "name": "TokenMinted",
      "type": "event"
    },
    {
      "anonymous": false,
      "inputs": [
        {
          "indexed": true,
          "internalType": "address",
          "name": "owner",
          "type": "address"
        },
        {
          "indexed": true,
          "internalType": "address",
          "name": "pool",
          "type": "address"
        },
        {
          "indexed": true,
          "internalType": "uint256",
          "name": "tokenId",
          "type": "uint256"
        },
        {
          "indexed": false,
          "internalType": "uint256",
          "name": "principalWithdrawn",
          "type": "uint256"
        },
        {
          "indexed": false,
          "internalType": "uint256",
          "name": "tranche",
          "type": "uint256"
        }
      ],
      "name": "TokenPrincipalWithdrawn",
      "type": "event"
    },
    {
      "anonymous": false,
      "inputs": [
        {
          "indexed": true,
          "internalType": "address",
          "name": "owner",
          "type": "address"
        },
        {
          "indexed": true,
          "internalType": "address",
          "name": "pool",
          "type": "address"
        },
        {
          "indexed": true,
          "internalType": "uint256",
          "name": "tokenId",
          "type": "uint256"
        },
        {
          "indexed": false,
          "internalType": "uint256",
          "name": "principalRedeemed",
          "type": "uint256"
        },
        {
          "indexed": false,
          "internalType": "uint256",
          "name": "interestRedeemed",
          "type": "uint256"
        },
        {
          "indexed": false,
          "internalType": "uint256",
          "name": "tranche",
          "type": "uint256"
        }
      ],
      "name": "TokenRedeemed",
      "type": "event"
    },
    {
      "anonymous": false,
      "inputs": [
        {
          "indexed": true,
          "internalType": "address",
          "name": "from",
          "type": "address"
        },
        {
          "indexed": true,
          "internalType": "address",
          "name": "to",
          "type": "address"
        },
        {
          "indexed": true,
          "internalType": "uint256",
          "name": "tokenId",
          "type": "uint256"
        }
      ],
      "name": "Transfer",
      "type": "event"
    },
    {
      "anonymous": false,
      "inputs": [
        {
          "indexed": false,
          "internalType": "address",
          "name": "account",
          "type": "address"
        }
      ],
      "name": "Unpaused",
      "type": "event"
    },
    {
      "inputs": [],
      "name": "DEFAULT_ADMIN_ROLE",
      "outputs": [
        {
          "internalType": "bytes32",
          "name": "",
          "type": "bytes32"
        }
      ],
      "stateMutability": "view",
      "type": "function"
    },
    {
      "inputs": [],
      "name": "MINTER_ROLE",
      "outputs": [
        {
          "internalType": "bytes32",
          "name": "",
          "type": "bytes32"
        }
      ],
      "stateMutability": "view",
      "type": "function"
    },
    {
      "inputs": [],
      "name": "OWNER_ROLE",
      "outputs": [
        {
          "internalType": "bytes32",
          "name": "",
          "type": "bytes32"
        }
      ],
      "stateMutability": "view",
      "type": "function"
    },
    {
      "inputs": [],
      "name": "PAUSER_ROLE",
      "outputs": [
        {
          "internalType": "bytes32",
          "name": "",
          "type": "bytes32"
        }
      ],
      "stateMutability": "view",
      "type": "function"
    },
    {
      "inputs": [
        {
          "internalType": "address",
          "name": "owner",
          "type": "address"
        },
        {
          "internalType": "contract GoldfinchConfig",
          "name": "_config",
          "type": "address"
        }
      ],
      "name": "__initialize__",
      "outputs": [],
      "stateMutability": "nonpayable",
      "type": "function"
    },
    {
      "inputs": [],
      "name": "_tokenIdTracker",
      "outputs": [
        {
          "internalType": "uint256",
          "name": "_value",
          "type": "uint256"
        }
      ],
      "stateMutability": "view",
      "type": "function"
    },
    {
      "inputs": [
        {
          "internalType": "address",
          "name": "to",
          "type": "address"
        },
        {
          "internalType": "uint256",
          "name": "tokenId",
          "type": "uint256"
        }
      ],
      "name": "approve",
      "outputs": [],
      "stateMutability": "nonpayable",
      "type": "function"
    },
    {
      "inputs": [
        {
          "internalType": "address",
          "name": "owner",
          "type": "address"
        }
      ],
      "name": "balanceOf",
      "outputs": [
        {
          "internalType": "uint256",
          "name": "",
          "type": "uint256"
        }
      ],
      "stateMutability": "view",
      "type": "function"
    },
    {
      "inputs": [],
      "name": "baseURI",
      "outputs": [
        {
          "internalType": "string",
          "name": "",
          "type": "string"
        }
      ],
      "stateMutability": "view",
      "type": "function"
    },
    {
      "inputs": [
        {
          "internalType": "uint256",
          "name": "tokenId",
          "type": "uint256"
        }
      ],
      "name": "burn",
      "outputs": [],
      "stateMutability": "nonpayable",
      "type": "function"
    },
    {
      "inputs": [],
      "name": "config",
      "outputs": [
        {
          "internalType": "contract GoldfinchConfig",
          "name": "",
          "type": "address"
        }
      ],
      "stateMutability": "view",
      "type": "function"
    },
    {
      "inputs": [
        {
          "internalType": "uint256",
          "name": "tokenId",
          "type": "uint256"
        }
      ],
      "name": "getApproved",
      "outputs": [
        {
          "internalType": "address",
          "name": "",
          "type": "address"
        }
      ],
      "stateMutability": "view",
      "type": "function"
    },
    {
      "inputs": [
        {
          "internalType": "bytes32",
          "name": "role",
          "type": "bytes32"
        }
      ],
      "name": "getRoleAdmin",
      "outputs": [
        {
          "internalType": "bytes32",
          "name": "",
          "type": "bytes32"
        }
      ],
      "stateMutability": "view",
      "type": "function"
    },
    {
      "inputs": [
        {
          "internalType": "bytes32",
          "name": "role",
          "type": "bytes32"
        },
        {
          "internalType": "uint256",
          "name": "index",
          "type": "uint256"
        }
      ],
      "name": "getRoleMember",
      "outputs": [
        {
          "internalType": "address",
          "name": "",
          "type": "address"
        }
      ],
      "stateMutability": "view",
      "type": "function"
    },
    {
      "inputs": [
        {
          "internalType": "bytes32",
          "name": "role",
          "type": "bytes32"
        }
      ],
      "name": "getRoleMemberCount",
      "outputs": [
        {
          "internalType": "uint256",
          "name": "",
          "type": "uint256"
        }
      ],
      "stateMutability": "view",
      "type": "function"
    },
    {
      "inputs": [
        {
          "internalType": "uint256",
          "name": "tokenId",
          "type": "uint256"
        }
      ],
      "name": "getTokenInfo",
      "outputs": [
        {
          "components": [
            {
              "internalType": "address",
              "name": "pool",
              "type": "address"
            },
            {
              "internalType": "uint256",
              "name": "tranche",
              "type": "uint256"
            },
            {
              "internalType": "uint256",
              "name": "principalAmount",
              "type": "uint256"
            },
            {
              "internalType": "uint256",
              "name": "principalRedeemed",
              "type": "uint256"
            },
            {
              "internalType": "uint256",
              "name": "interestRedeemed",
              "type": "uint256"
            }
          ],
          "internalType": "struct IPoolTokens.TokenInfo",
          "name": "",
          "type": "tuple"
        }
      ],
      "stateMutability": "view",
      "type": "function"
    },
    {
      "inputs": [
        {
          "internalType": "bytes32",
          "name": "role",
          "type": "bytes32"
        },
        {
          "internalType": "address",
          "name": "account",
          "type": "address"
        }
      ],
      "name": "grantRole",
      "outputs": [],
      "stateMutability": "nonpayable",
      "type": "function"
    },
    {
      "inputs": [
        {
          "internalType": "bytes32",
          "name": "role",
          "type": "bytes32"
        },
        {
          "internalType": "address",
          "name": "account",
          "type": "address"
        }
      ],
      "name": "hasRole",
      "outputs": [
        {
          "internalType": "bool",
          "name": "",
          "type": "bool"
        }
      ],
      "stateMutability": "view",
      "type": "function"
    },
    {
      "inputs": [],
      "name": "isAdmin",
      "outputs": [
        {
          "internalType": "bool",
          "name": "",
          "type": "bool"
        }
      ],
      "stateMutability": "view",
      "type": "function"
    },
    {
      "inputs": [
        {
          "internalType": "address",
          "name": "owner",
          "type": "address"
        },
        {
          "internalType": "address",
          "name": "operator",
          "type": "address"
        }
      ],
      "name": "isApprovedForAll",
      "outputs": [
        {
          "internalType": "bool",
          "name": "",
          "type": "bool"
        }
      ],
      "stateMutability": "view",
      "type": "function"
    },
    {
      "inputs": [
        {
          "internalType": "address",
          "name": "spender",
          "type": "address"
        },
        {
          "internalType": "uint256",
          "name": "tokenId",
          "type": "uint256"
        }
      ],
      "name": "isApprovedOrOwner",
      "outputs": [
        {
          "internalType": "bool",
          "name": "",
          "type": "bool"
        }
      ],
      "stateMutability": "view",
      "type": "function"
    },
    {
      "inputs": [
        {
          "components": [
            {
              "internalType": "uint256",
              "name": "principalAmount",
              "type": "uint256"
            },
            {
              "internalType": "uint256",
              "name": "tranche",
              "type": "uint256"
            }
          ],
          "internalType": "struct IPoolTokens.MintParams",
          "name": "params",
          "type": "tuple"
        },
        {
          "internalType": "address",
          "name": "to",
          "type": "address"
        }
      ],
      "name": "mint",
      "outputs": [
        {
          "internalType": "uint256",
          "name": "tokenId",
          "type": "uint256"
        }
      ],
      "stateMutability": "nonpayable",
      "type": "function"
    },
    {
      "inputs": [],
      "name": "name",
      "outputs": [
        {
          "internalType": "string",
          "name": "",
          "type": "string"
        }
      ],
      "stateMutability": "view",
      "type": "function"
    },
    {
      "inputs": [
        {
          "internalType": "address",
          "name": "newPool",
          "type": "address"
        }
      ],
      "name": "onPoolCreated",
      "outputs": [],
      "stateMutability": "nonpayable",
      "type": "function"
    },
    {
      "inputs": [
        {
          "internalType": "uint256",
          "name": "tokenId",
          "type": "uint256"
        }
      ],
      "name": "ownerOf",
      "outputs": [
        {
          "internalType": "address",
          "name": "",
          "type": "address"
        }
      ],
      "stateMutability": "view",
      "type": "function"
    },
    {
      "inputs": [],
      "name": "pause",
      "outputs": [],
      "stateMutability": "nonpayable",
      "type": "function"
    },
    {
      "inputs": [],
      "name": "paused",
      "outputs": [
        {
          "internalType": "bool",
          "name": "",
          "type": "bool"
        }
      ],
      "stateMutability": "view",
      "type": "function"
    },
    {
      "inputs": [
        {
          "internalType": "address",
          "name": "",
          "type": "address"
        }
      ],
      "name": "pools",
      "outputs": [
        {
          "internalType": "uint256",
          "name": "totalMinted",
          "type": "uint256"
        },
        {
          "internalType": "uint256",
          "name": "totalPrincipalRedeemed",
          "type": "uint256"
        },
        {
          "internalType": "bool",
          "name": "created",
          "type": "bool"
        }
      ],
      "stateMutability": "view",
      "type": "function"
    },
    {
      "inputs": [
        {
          "internalType": "uint256",
          "name": "tokenId",
          "type": "uint256"
        },
        {
          "internalType": "uint256",
          "name": "principalRedeemed",
          "type": "uint256"
        },
        {
          "internalType": "uint256",
          "name": "interestRedeemed",
          "type": "uint256"
        }
      ],
      "name": "redeem",
      "outputs": [],
      "stateMutability": "nonpayable",
      "type": "function"
    },
    {
      "inputs": [
        {
          "internalType": "uint256",
          "name": "tokenId",
          "type": "uint256"
        },
        {
          "internalType": "uint256",
          "name": "amount",
          "type": "uint256"
        }
      ],
      "name": "reducePrincipalAmount",
      "outputs": [],
      "stateMutability": "nonpayable",
      "type": "function"
    },
    {
      "inputs": [
        {
          "internalType": "bytes32",
          "name": "role",
          "type": "bytes32"
        },
        {
          "internalType": "address",
          "name": "account",
          "type": "address"
        }
      ],
      "name": "renounceRole",
      "outputs": [],
      "stateMutability": "nonpayable",
      "type": "function"
    },
    {
      "inputs": [
        {
          "internalType": "bytes32",
          "name": "role",
          "type": "bytes32"
        },
        {
          "internalType": "address",
          "name": "account",
          "type": "address"
        }
      ],
      "name": "revokeRole",
      "outputs": [],
      "stateMutability": "nonpayable",
      "type": "function"
    },
    {
      "inputs": [
        {
          "internalType": "address",
          "name": "from",
          "type": "address"
        },
        {
          "internalType": "address",
          "name": "to",
          "type": "address"
        },
        {
          "internalType": "uint256",
          "name": "tokenId",
          "type": "uint256"
        }
      ],
      "name": "safeTransferFrom",
      "outputs": [],
      "stateMutability": "nonpayable",
      "type": "function"
    },
    {
      "inputs": [
        {
          "internalType": "address",
          "name": "from",
          "type": "address"
        },
        {
          "internalType": "address",
          "name": "to",
          "type": "address"
        },
        {
          "internalType": "uint256",
          "name": "tokenId",
          "type": "uint256"
        },
        {
          "internalType": "bytes",
          "name": "_data",
          "type": "bytes"
        }
      ],
      "name": "safeTransferFrom",
      "outputs": [],
      "stateMutability": "nonpayable",
      "type": "function"
    },
    {
      "inputs": [
        {
          "internalType": "address",
          "name": "operator",
          "type": "address"
        },
        {
          "internalType": "bool",
          "name": "approved",
          "type": "bool"
        }
      ],
      "name": "setApprovalForAll",
      "outputs": [],
      "stateMutability": "nonpayable",
      "type": "function"
    },
    {
      "inputs": [
        {
          "internalType": "bytes4",
          "name": "interfaceId",
          "type": "bytes4"
        }
      ],
      "name": "supportsInterface",
      "outputs": [
        {
          "internalType": "bool",
          "name": "",
          "type": "bool"
        }
      ],
      "stateMutability": "view",
      "type": "function"
    },
    {
      "inputs": [],
      "name": "symbol",
      "outputs": [
        {
          "internalType": "string",
          "name": "",
          "type": "string"
        }
      ],
      "stateMutability": "view",
      "type": "function"
    },
    {
      "inputs": [
        {
          "internalType": "uint256",
          "name": "index",
          "type": "uint256"
        }
      ],
      "name": "tokenByIndex",
      "outputs": [
        {
          "internalType": "uint256",
          "name": "",
          "type": "uint256"
        }
      ],
      "stateMutability": "view",
      "type": "function"
    },
    {
      "inputs": [
        {
          "internalType": "address",
          "name": "owner",
          "type": "address"
        },
        {
          "internalType": "uint256",
          "name": "index",
          "type": "uint256"
        }
      ],
      "name": "tokenOfOwnerByIndex",
      "outputs": [
        {
          "internalType": "uint256",
          "name": "",
          "type": "uint256"
        }
      ],
      "stateMutability": "view",
      "type": "function"
    },
    {
      "inputs": [
        {
          "internalType": "uint256",
          "name": "tokenId",
          "type": "uint256"
        }
      ],
      "name": "tokenURI",
      "outputs": [
        {
          "internalType": "string",
          "name": "",
          "type": "string"
        }
      ],
      "stateMutability": "view",
      "type": "function"
    },
    {
      "inputs": [
        {
          "internalType": "uint256",
          "name": "",
          "type": "uint256"
        }
      ],
      "name": "tokens",
      "outputs": [
        {
          "internalType": "address",
          "name": "pool",
          "type": "address"
        },
        {
          "internalType": "uint256",
          "name": "tranche",
          "type": "uint256"
        },
        {
          "internalType": "uint256",
          "name": "principalAmount",
          "type": "uint256"
        },
        {
          "internalType": "uint256",
          "name": "principalRedeemed",
          "type": "uint256"
        },
        {
          "internalType": "uint256",
          "name": "interestRedeemed",
          "type": "uint256"
        }
      ],
      "stateMutability": "view",
      "type": "function"
    },
    {
      "inputs": [],
      "name": "totalSupply",
      "outputs": [
        {
          "internalType": "uint256",
          "name": "",
          "type": "uint256"
        }
      ],
      "stateMutability": "view",
      "type": "function"
    },
    {
      "inputs": [
        {
          "internalType": "address",
          "name": "from",
          "type": "address"
        },
        {
          "internalType": "address",
          "name": "to",
          "type": "address"
        },
        {
          "internalType": "uint256",
          "name": "tokenId",
          "type": "uint256"
        }
      ],
      "name": "transferFrom",
      "outputs": [],
      "stateMutability": "nonpayable",
      "type": "function"
    },
    {
      "inputs": [],
      "name": "unpause",
      "outputs": [],
      "stateMutability": "nonpayable",
      "type": "function"
    },
    {
      "inputs": [],
      "name": "updateGoldfinchConfig",
      "outputs": [],
      "stateMutability": "nonpayable",
      "type": "function"
    },
    {
      "inputs": [
        {
          "internalType": "address",
          "name": "sender",
          "type": "address"
        }
      ],
      "name": "validPool",
      "outputs": [
        {
          "internalType": "bool",
          "name": "",
          "type": "bool"
        }
      ],
      "stateMutability": "view",
      "type": "function"
    },
    {
      "inputs": [
        {
          "internalType": "uint256",
          "name": "tokenId",
          "type": "uint256"
        },
        {
          "internalType": "uint256",
          "name": "principalAmount",
          "type": "uint256"
        }
      ],
      "name": "withdrawPrincipal",
      "outputs": [],
      "stateMutability": "nonpayable",
      "type": "function"
    }
  ],
  "transactionHash": "0x01b041379a909888742b14443187178e6fedd9c9ebe552d9e1dab828e9841541",
  "args": [],
  "solcInputHash": "a67c4f293a964d2cac7bbf8c9f65d46c",
  "bytecode": "0x608060405234801561001057600080fd5b50613ab5806100206000396000f3fe608060405234801561001057600080fd5b50600436106102955760003560e01c80636c0360eb11610167578063b5ada6d8116100ce578063ca15c87311610087578063ca15c8731461058d578063d5391393146105a0578063d547741f146105a8578063e58378bb146105bb578063e63ab1e9146105c3578063e985e9c5146105cb57610295565b8063b5ada6d814610526578063b6db75a014610539578063b6f8fd4014610541578063b819220514610554578063b88d4fde14610567578063c87b56dd1461057a57610295565b806391d148541161012057806391d14854146104c657806395d89b41146104d957806398bcede9146104e1578063a217fddf146104e9578063a22cb465146104f1578063a4063dbc1461050457610295565b80636c0360eb1461046857806370a082311461047057806379502c55146104835780638456cb591461048b5780638c7a63ae146104935780639010d07c146104b357610295565b806342842e0e1161020b5780634f92a728116101c45780634f92a7281461040c57806357e340ce146104145780635be57b6a146104275780635c975abb1461043a5780636352211e1461044257806366cbb0371461045557610295565b806342842e0e1461038957806342966c681461039c57806342a16b79146103af578063430c2081146103c25780634f64b2be146103d55780634f6ccce7146103f957610295565b806323b872dd1161025d57806323b872dd14610322578063248a9ca3146103355780632f2ff15d146103485780632f745c591461035b57806336568abe1461036e5780633f4ba83a1461038157610295565b806301ffc9a71461029a57806306fdde03146102c3578063081812fc146102d8578063095ea7b3146102f857806318160ddd1461030d575b600080fd5b6102ad6102a8366004612c98565b6105de565b6040516102ba9190612e8e565b60405180910390f35b6102cb610601565b6040516102ba9190612ea2565b6102eb6102e6366004612c3b565b610697565b6040516102ba9190612df6565b61030b610306366004612c10565b6106e3565b005b61031561077b565b6040516102ba9190612e99565b61030b610330366004612ac5565b61078c565b610315610343366004612c3b565b6107c4565b61030b610356366004612c53565b6107d9565b610315610369366004612c10565b610821565b61030b61037c366004612c53565b61084c565b61030b61088e565b61030b610397366004612ac5565b6108ce565b61030b6103aa366004612c3b565b6108e9565b61030b6103bd366004612c77565b610a1e565b6102ad6103d0366004612c10565b610a7e565b6103e86103e3366004612c3b565b610a8a565b6040516102ba959493929190612e60565b610315610407366004612c3b565b610ac4565b61030b610ada565b61030b610422366004612a55565b610b70565b610315610435366004612cd0565b610be5565b6102ad610d2c565b6102eb610450366004612c3b565b610d35565b61030b610463366004612c77565b610d5d565b6102cb610ef6565b61031561047e366004612a55565b610f57565b6102eb610fa0565b61030b610fb0565b6104a66104a1366004612c3b565b610fee565b6040516102ba9190613925565b6102eb6104c1366004612c77565b610fff565b6102ad6104d4366004612c53565b611017565b6102cb61102f565b610315611090565b610315611097565b61030b6104ff366004612bcd565b61109c565b610517610512366004612a55565b61116a565b6040516102ba93929190613971565b6102ad610534366004612a55565b61118f565b6102ad61119a565b61030b61054f366004612bfe565b6111b6565b61030b610562366004612d02565b611383565b61030b610575366004612b05565b61153c565b6102cb610588366004612c3b565b61157b565b61031561059b366004612c3b565b6116c5565b6103156116dc565b61030b6105b6366004612c53565b611700565b61031561173a565b61031561174c565b6102ad6105d9366004612a8d565b61175e565b6001600160e01b0319811660009081526097602052604090205460ff165b919050565b60ce8054604080516020601f600260001961010060018816150201909516949094049384018190048102820181019092528281526060939092909183018282801561068d5780601f106106625761010080835404028352916020019161068d565b820191906000526020600020905b81548152906001019060200180831161067057829003601f168201915b5050505050905090565b60006106a28261178c565b6106c75760405162461bcd60e51b81526004016106be9061352b565b60405180910390fd5b50600090815260cc60205260409020546001600160a01b031690565b60006106ee82610d35565b9050806001600160a01b0316836001600160a01b031614156107225760405162461bcd60e51b81526004016106be90613766565b806001600160a01b0316610734611799565b6001600160a01b031614806107505750610750816105d9611799565b61076c5760405162461bcd60e51b81526004016106be906133a0565b610776838361179d565b505050565b600061078760ca61180b565b905090565b61079d610797611799565b82611816565b6107b95760405162461bcd60e51b81526004016106be906137a7565b61077683838361189b565b60009081526065602052604090206002015490565b6000828152606560205260409020600201546107f7906104d4611799565b6108135760405162461bcd60e51b81526004016106be90612f42565b61081d8282611997565b5050565b6001600160a01b038216600090815260c9602052604081206108439083611a00565b90505b92915050565b610854611799565b6001600160a01b0316816001600160a01b0316146108845760405162461bcd60e51b81526004016106be906138d6565b61081d8282611a0c565b6108a8600080516020613a408339815191526104d4611799565b6108c45760405162461bcd60e51b81526004016106be9061382d565b6108cc611a75565b565b6107768383836040518060200160405280600081525061153c565b60fb5460ff161561090c5760405162461bcd60e51b81526004016106be9061334e565b61091461294a565b61091d82611ae1565b9050600061093261092c611799565b84611816565b90506000610946610941611799565b611b42565b801561096e5750610955611799565b6001600160a01b031683600001516001600160a01b0316145b9050600061097b85610d35565b905082806109865750815b6109a25760405162461bcd60e51b81526004016106be90612f91565b83604001518460600151146109c95760405162461bcd60e51b81526004016106be9061369e565b6109d285611b64565b8484600001516001600160a01b0316826001600160a01b03167fbfa41556980d157c24e8632dbb78958f8759a86b4acdea421f93dc7259fb55db60405160405180910390a45050505050565b610a2661119a565b610a425760405162461bcd60e51b81526004016106be9061388b565b6000828152610192602052604090206002810154610a609083611ba6565b60028201556003810154610a749083611ba6565b6003909101555050565b60006108438383611816565b61019260205260009081526040902080546001820154600283015460038401546004909401546001600160a01b0390931693919290919085565b600080610ad260ca84611be8565b509392505050565b610ae261119a565b610afe5760405162461bcd60e51b81526004016106be9061388b565b61019154610b14906001600160a01b0316611c04565b61019180546001600160a01b0319166001600160a01b03928316179081905560405133927f7c76c17de59691df2ef36af3938c91f69cd18ad27f67a54a38e38686f0b40c4992610b6692911690612df6565b60405180910390a2565b61019154610b86906001600160a01b0316611c84565b6001600160a01b0316610b97611799565b6001600160a01b031614610bbd5760405162461bcd60e51b81526004016106be90613577565b6001600160a01b0316600090815261019360205260409020600201805460ff19166001179055565b6000610bf2610941611799565b610c0e5760405162461bcd60e51b81526004016106be906131aa565b60fb5460ff1615610c315760405162461bcd60e51b81526004016106be9061334e565b6000610c3b611799565b9050610c478482611c9c565b9150610c538383611d5c565b61019154610c69906001600160a01b0316611e0e565b6001600160a01b0316636efbe643610c7f611799565b846040518363ffffffff1660e01b8152600401610c9d929190612e47565b600060405180830381600087803b158015610cb757600080fd5b505af1158015610ccb573d6000803e3d6000fd5b5050505081816001600160a01b0316846001600160a01b03167f188c6e7ce5cf6a45f5d4441da49a243005c388c7f4f00137378ba3d058baf01d87600001358860200135604051610d1d929190613963565b60405180910390a45092915050565b60fb5460ff1690565b600061084682604051806060016040528060298152602001613a176029913960ca9190611e19565b610d68610941611799565b610d845760405162461bcd60e51b81526004016106be906131aa565b60fb5460ff1615610da75760405162461bcd60e51b81526004016106be9061334e565b60008281526101926020526040902080546001600160a01b031680610dca611799565b6001600160a01b031614610df05760405162461bcd60e51b81526004016106be90613378565b600382015415610e125760405162461bcd60e51b81526004016106be9061373e565b8282600201541015610e365760405162461bcd60e51b81526004016106be906134fb565b6001600160a01b0381166000908152610193602052604090208054610e5b9085611ba6565b80825560018201541115610e815760405162461bcd60e51b81526004016106be90613442565b6002830154610e909085611ba6565b6002840155846001600160a01b038316610ea982610d35565b6001600160a01b03167f8577735338ca7d8f2e2b6994fe66a1afec4b581e0503bdc21550791a2a1923ef878760010154604051610ee7929190613963565b60405180910390a45050505050565b60d18054604080516020601f600260001961010060018816150201909516949094049384018190048102820181019092528281526060939092909183018282801561068d5780601f106106625761010080835404028352916020019161068d565b60006001600160a01b038216610f7f5760405162461bcd60e51b81526004016106be906133f8565b6001600160a01b038216600090815260c9602052604090206108469061180b565b610191546001600160a01b031681565b610fca600080516020613a408339815191526104d4611799565b610fe65760405162461bcd60e51b81526004016106be9061314d565b6108cc611e30565b610ff661294a565b61084682611ae1565b60008281526065602052604081206108439083611a00565b60008281526065602052604081206108439083611e89565b60cf8054604080516020601f600260001961010060018816150201909516949094049384018190048102820181019092528281526060939092909183018282801561068d5780601f106106625761010080835404028352916020019161068d565b61015f5481565b600081565b6110a4611799565b6001600160a01b0316826001600160a01b031614156110d55760405162461bcd60e51b81526004016106be90613215565b8060cd60006110e2611799565b6001600160a01b03908116825260208083019390935260409182016000908120918716808252919093529120805460ff191692151592909217909155611126611799565b6001600160a01b03167f17307eab39ab6107e8899845ad3d59bd9653f200f220920489ca2b5937696c318360405161115e9190612e8e565b60405180910390a35050565b6101936020526000908152604090208054600182015460029092015490919060ff1683565b600061084682611b42565b60006107876000805160206139f78339815191526104d4611799565b600054610100900460ff16806111cf57506111cf611e9e565b806111dd575060005460ff16155b6111f95760405162461bcd60e51b81526004016106be906135b8565b600054610100900460ff16158015611224576000805460ff1961ff0019909116610100171660011790555b6001600160a01b0383161580159061124457506001600160a01b03821615155b6112605760405162461bcd60e51b81526004016106be9061300c565b611268611ea4565b611270611ea4565b611278611f26565b6112d360405180604001604052806018815260200177476f6c6466696e636820563220506f6f6c20546f6b656e7360401b8152506040518060400160405280600981526020016811d1924b558c8b541560ba1b815250611fa4565b6112db61206a565b6112e3611ea4565b61019180546001600160a01b0319166001600160a01b038416179055611317600080516020613a4083398151915284610813565b61132f6000805160206139f783398151915284610813565b611355600080516020613a408339815191526000805160206139f78339815191526120f6565b61136d6000805160206139f7833981519152806120f6565b8015610776576000805461ff0019169055505050565b61138e610941611799565b6113aa5760405162461bcd60e51b81526004016106be906131aa565b60fb5460ff16156113cd5760405162461bcd60e51b81526004016106be9061334e565b60008381526101926020526040902080546001600160a01b0316806114045760405162461bcd60e51b81526004016106be90613248565b806001600160a01b0316611416611799565b6001600160a01b03161461143c5760405162461bcd60e51b81526004016106be906137f8565b6001600160a01b0381166000908152610193602052604090206001810154611464908661210b565b600182018190558154101561148b5760405162461bcd60e51b81526004016106be90613271565b600383015461149a908661210b565b60038401819055600284015410156114c45760405162461bcd60e51b81526004016106be906136e1565b60048301546114d3908561210b565b6004840155856001600160a01b0383166114ec82610d35565b6001600160a01b03167fda8c6dd3bef4f6eabede38563ec41a960f3fd84ccab769aa77db40494f9eee988888886001015460405161152c93929190613989565b60405180910390a4505050505050565b61154d611547611799565b83611816565b6115695760405162461bcd60e51b81526004016106be906137a7565b61157584848484612130565b50505050565b60606115868261178c565b6115a25760405162461bcd60e51b81526004016106be9061364f565b600082815260d0602090815260409182902080548351601f60026000196101006001861615020190931692909204918201849004840281018401909452808452606093928301828280156116375780601f1061160c57610100808354040283529160200191611637565b820191906000526020600020905b81548152906001019060200180831161161a57829003601f168201915b505060d154939450505050600260001961010060018416150201909116046116605790506105fc565b8051156116925760d18160405160200161167b929190612d75565b6040516020818303038152906040529150506105fc565b60d161169d84612163565b6040516020016116ae929190612d75565b604051602081830303815290604052915050919050565b60008181526065602052604081206108469061180b565b7f9f2df0fed2c77648de5860a4cc508cd0818c85b8b8a1ab4ceeef8d981c8956a681565b60008281526065602052604090206002015461171e906104d4611799565b6108845760405162461bcd60e51b81526004016106be906132fe565b6000805160206139f783398151915281565b600080516020613a4083398151915281565b6001600160a01b03918216600090815260cd6020908152604080832093909416825291909152205460ff1690565b600061084660ca8361223e565b3390565b600081815260cc6020526040902080546001600160a01b0319166001600160a01b03841690811790915581906117d282610d35565b6001600160a01b03167f8c5be1e5ebec7d5bd14f71427d1e84f3dd0314c0f7b2291e5b200ac8c7c3b92560405160405180910390a45050565b60006108468261224a565b60006118218261178c565b61183d5760405162461bcd60e51b81526004016106be906132b2565b600061184883610d35565b9050806001600160a01b0316846001600160a01b031614806118835750836001600160a01b031661187884610697565b6001600160a01b0316145b806118935750611893818561175e565b949350505050565b826001600160a01b03166118ae82610d35565b6001600160a01b0316146118d45760405162461bcd60e51b81526004016106be90613606565b6001600160a01b0382166118fa5760405162461bcd60e51b81526004016106be906131d1565b61190583838361224e565b61191060008261179d565b6001600160a01b038316600090815260c9602052604090206119329082612259565b506001600160a01b038216600090815260c9602052604090206119559082612265565b5061196260ca8284612271565b5080826001600160a01b0316846001600160a01b0316600080516020613a6083398151915260405160405180910390a4505050565b60008281526065602052604090206119af9082612287565b1561081d576119bc611799565b6001600160a01b0316816001600160a01b0316837f2f8788117e7eff1d82e926ec794901d17c78024a50270940304540a733656f0d60405160405180910390a45050565b6000610843838361229c565b6000828152606560205260409020611a2490826122e1565b1561081d57611a31611799565b6001600160a01b0316816001600160a01b0316837ff6391f5c32d9c69d2a47ea670b442974b53935d1edc7fd64eb21e047a839171b60405160405180910390a45050565b60fb5460ff16611a975760405162461bcd60e51b81526004016106be90612fde565b60fb805460ff191690557f5db9ee0a495bf2e6ff9c91a7834c1ba4fdd244a5e8aa4e537bd38aeae4b073aa611aca611799565b604051611ad79190612df6565b60405180910390a1565b611ae961294a565b5060009081526101926020908152604091829020825160a08101845281546001600160a01b0316815260018201549281019290925260028101549282019290925260038201546060820152600490910154608082015290565b6001600160a01b03166000908152610193602052604090206002015460ff1690565b60008181526101926020526040812080546001600160a01b031916815560018101829055600281018290556003810182905560040155611ba3816122f6565b50565b600061084383836040518060400160405280601e81526020017f536166654d6174683a207375627472616374696f6e206f766572666c6f7700008152506123b1565b6000808080611bf786866123dd565b9097909650945050505050565b60006001600160a01b03821663b93f9b0a600b5b6040518263ffffffff1660e01b8152600401611c349190612e99565b60206040518083038186803b158015611c4c57600080fd5b505afa158015611c60573d6000803e3d6000fd5b505050506040513d601f19601f820116820180604052508101906108469190612a71565b60006001600160a01b03821663b93f9b0a6002611c18565b6001600160a01b038116600090815261019360205260408120611cc061015f612439565b611ccb61015f61224a565b6040805160a0810182526001600160a01b0386811682526020888101358184019081528935848601818152600060608701818152608088018281528a8352610192909652979020955186546001600160a01b031916951694909417855590516001850155915160028401559251600383015591516004909101558254919350611d54919061210b565b905592915050565b6001600160a01b038216611d825760405162461bcd60e51b81526004016106be906134c6565b611d8b8161178c565b15611da85760405162461bcd60e51b81526004016106be906130df565b611db46000838361224e565b6001600160a01b038216600090815260c960205260409020611dd69082612265565b50611de360ca8284612271565b5060405181906001600160a01b03841690600090600080516020613a60833981519152908290a45050565b600061084682612442565b6000611e2684848461245a565b90505b9392505050565b60fb5460ff1615611e535760405162461bcd60e51b81526004016106be9061334e565b60fb805460ff191660011790557f62e78cea01bee320cd4e420270b5ea74000d11b0c9f74754ebdbfc544b05a258611aca611799565b6000610843836001600160a01b0384166124b9565b303b1590565b600054610100900460ff1680611ebd5750611ebd611e9e565b80611ecb575060005460ff16155b611ee75760405162461bcd60e51b81526004016106be906135b8565b600054610100900460ff16158015611f12576000805460ff1961ff0019909116610100171660011790555b8015611ba3576000805461ff001916905550565b600054610100900460ff1680611f3f5750611f3f611e9e565b80611f4d575060005460ff16155b611f695760405162461bcd60e51b81526004016106be906135b8565b600054610100900460ff16158015611f94576000805460ff1961ff0019909116610100171660011790555b611f126301ffc9a760e01b6124d1565b600054610100900460ff1680611fbd5750611fbd611e9e565b80611fcb575060005460ff16155b611fe75760405162461bcd60e51b81526004016106be906135b8565b600054610100900460ff16158015612012576000805460ff1961ff0019909116610100171660011790555b82516120259060ce906020860190612982565b5081516120399060cf906020850190612982565b5061204a6380ac58cd60e01b6124d1565b61205a635b5e139f60e01b6124d1565b61136d63780e9d6360e01b6124d1565b600054610100900460ff16806120835750612083611e9e565b80612091575060005460ff16155b6120ad5760405162461bcd60e51b81526004016106be906135b8565b600054610100900460ff161580156120d8576000805460ff1961ff0019909116610100171660011790555b60fb805460ff191690558015611ba3576000805461ff001916905550565b60009182526065602052604090912060020155565b6000828201838110156108435760405162461bcd60e51b81526004016106be90613116565b61213b84848461189b565b61214784848484612520565b6115755760405162461bcd60e51b81526004016106be90613056565b60608161218857506040805180820190915260018152600360fc1b60208201526105fc565b8160005b81156121a057600101600a8204915061218c565b60608167ffffffffffffffff811180156121b957600080fd5b506040519080825280601f01601f1916602001820160405280156121e4576020820181803683370190505b50859350905060001982015b831561223557600a840660300160f81b8282806001900393508151811061221357fe5b60200101906001600160f81b031916908160001a905350600a840493506121f0565b50949350505050565b600061084383836124b9565b5490565b61077683838361265a565b6000610843838361268a565b60006108438383612750565b6000611e2684846001600160a01b03851661279a565b6000610843836001600160a01b038416612750565b815460009082106122bf5760405162461bcd60e51b81526004016106be90612eb5565b8260000182815481106122ce57fe5b9060005260206000200154905092915050565b6000610843836001600160a01b03841661268a565b600061230182610d35565b905061230f8160008461224e565b61231a60008361179d565b600082815260d06020526040902054600260001961010060018416150201909116041561235857600082815260d06020526040812061235891612a00565b6001600160a01b038116600090815260c96020526040902061237a9083612259565b5061238660ca83612831565b5060405182906000906001600160a01b03841690600080516020613a60833981519152908390a45050565b600081848411156123d55760405162461bcd60e51b81526004016106be9190612ea2565b505050900390565b8154600090819083106124025760405162461bcd60e51b81526004016106be90613484565b600084600001848154811061241357fe5b906000526020600020906002020190508060000154816001015492509250509250929050565b80546001019055565b60006001600160a01b03821663b93f9b0a6014611c18565b6000828152600184016020526040812054828161248a5760405162461bcd60e51b81526004016106be9190612ea2565b5084600001600182038154811061249d57fe5b9060005260206000209060020201600101549150509392505050565b60009081526001919091016020526040902054151590565b6001600160e01b031980821614156124fb5760405162461bcd60e51b81526004016106be906130a8565b6001600160e01b0319166000908152609760205260409020805460ff19166001179055565b6000612534846001600160a01b031661283d565b61254057506001611893565b600060606001600160a01b038616630a85bd0160e11b61255e611799565b8988886040516024016125749493929190612e0a565b60408051601f198184030181529181526020820180516001600160e01b03166001600160e01b03199094169390931790925290516125b29190612d59565b6000604051808303816000865af19150503d80600081146125ef576040519150601f19603f3d011682016040523d82523d6000602084013e6125f4565b606091505b5091509150816126265780511561260e5780518082602001fd5b60405162461bcd60e51b81526004016106be90613056565b60008180602001905181019061263c9190612cb4565b6001600160e01b031916630a85bd0160e11b14935061189392505050565b612665838383610776565b61266d610d2c565b156107765760405162461bcd60e51b81526004016106be90612ef7565b6000818152600183016020526040812054801561274657835460001980830191908101906000908790839081106126bd57fe5b90600052602060002001549050808760000184815481106126da57fe5b60009182526020808320909101929092558281526001898101909252604090209084019055865487908061270a57fe5b60019003818190600052602060002001600090559055866001016000878152602001908152602001600020600090556001945050505050610846565b6000915050610846565b600061275c83836124b9565b61279257508154600181810184556000848152602080822090930184905584548482528286019093526040902091909155610846565b506000610846565b6000828152600184016020526040812054806127ff575050604080518082018252838152602080820184815286546001818101895560008981528481209551600290930290950191825591519082015586548684528188019092529290912055611e29565b8285600001600183038154811061281257fe5b9060005260206000209060020201600101819055506000915050611e29565b60006108438383612876565b6000813f7fc5d2460186f7233c927e7db2dcc703c0e500b653ca82273b7bfad8045d85a470818114801590611893575050151592915050565b6000818152600183016020526040812054801561274657835460001980830191908101906000908790839081106128a957fe5b90600052602060002090600202019050808760000184815481106128c957fe5b60009182526020808320845460029093020191825560019384015491840191909155835482528983019052604090209084019055865487908061290857fe5b60008281526020808220600260001990940193840201828155600190810183905592909355888152898201909252604082209190915594506108469350505050565b6040518060a0016040528060006001600160a01b03168152602001600081526020016000815260200160008152602001600081525090565b828054600181600116156101000203166002900490600052602060002090601f016020900481019282601f106129c357805160ff19168380011785556129f0565b828001600101855582156129f0579182015b828111156129f05782518255916020019190600101906129d5565b506129fc929150612a40565b5090565b50805460018160011615610100020316600290046000825580601f10612a265750611ba3565b601f016020900490600052602060002090810190611ba391905b5b808211156129fc5760008155600101612a41565b600060208284031215612a66578081fd5b8135610843816139cb565b600060208284031215612a82578081fd5b8151610843816139cb565b60008060408385031215612a9f578081fd5b8235612aaa816139cb565b91506020830135612aba816139cb565b809150509250929050565b600080600060608486031215612ad9578081fd5b8335612ae4816139cb565b92506020840135612af4816139cb565b929592945050506040919091013590565b60008060008060808587031215612b1a578081fd5b8435612b25816139cb565b9350602085810135612b36816139cb565b935060408601359250606086013567ffffffffffffffff80821115612b59578384fd5b818801915088601f830112612b6c578384fd5b813581811115612b7a578485fd5b604051601f8201601f1916810185018381118282101715612b99578687fd5b60405281815283820185018b1015612baf578586fd5b81858501868301379081019093019390935250939692955090935050565b60008060408385031215612bdf578182fd5b8235612bea816139cb565b915060208301358015158114612aba578182fd5b60008060408385031215612a9f578182fd5b60008060408385031215612c22578182fd5b8235612c2d816139cb565b946020939093013593505050565b600060208284031215612c4c578081fd5b5035919050565b60008060408385031215612c65578182fd5b823591506020830135612aba816139cb565b60008060408385031215612c89578182fd5b50508035926020909101359150565b600060208284031215612ca9578081fd5b8135610843816139e0565b600060208284031215612cc5578081fd5b8151610843816139e0565b6000808284036060811215612ce3578283fd5b6040811215612cf0578283fd5b508291506040830135612aba816139cb565b600080600060608486031215612d16578081fd5b505081359360208301359350604090920135919050565b60008151808452612d4581602086016020860161399f565b601f01601f19169290920160200192915050565b60008251612d6b81846020870161399f565b9190910192915050565b6000808454600180821660008114612d945760018114612dab57612dda565b60ff198316865260028304607f1686019350612dda565b600283048886526020808720875b83811015612dd25781548a820152908501908201612db9565b505050860193505b5050508351612ded81836020880161399f565b01949350505050565b6001600160a01b0391909116815260200190565b6001600160a01b0385811682528416602082015260408101839052608060608201819052600090612e3d90830184612d2d565b9695505050505050565b6001600160a01b03929092168252602082015260400190565b6001600160a01b03959095168552602085019390935260408401919091526060830152608082015260a00190565b901515815260200190565b90815260200190565b6000602082526108436020830184612d2d565b60208082526022908201527f456e756d657261626c655365743a20696e646578206f7574206f6620626f756e604082015261647360f01b606082015260800190565b6020808252602b908201527f4552433732315061757361626c653a20746f6b656e207472616e73666572207760408201526a1a1a5b19481c185d5cd95960aa1b606082015260800190565b6020808252602f908201527f416363657373436f6e74726f6c3a2073656e646572206d75737420626520616e60408201526e0818591b5a5b881d1bc819dc985b9d608a1b606082015260800190565b6020808252602d908201527f4552433732314275726e61626c653a2063616c6c65722063616e6e6f7420627560408201526c3937103a3434b9903a37b5b2b760991b606082015260800190565b60208082526014908201527314185d5cd8589b194e881b9bdd081c185d5cd95960621b604082015260600190565b6020808252602a908201527f4f776e657220616e6420636f6e666967206164647265737365732063616e6e6f6040820152697420626520656d70747960b01b606082015260800190565b60208082526032908201527f4552433732313a207472616e7366657220746f206e6f6e20455243373231526560408201527131b2b4bb32b91034b6b83632b6b2b73a32b960711b606082015260800190565b6020808252601c908201527f4552433136353a20696e76616c696420696e7465726661636520696400000000604082015260600190565b6020808252601c908201527f4552433732313a20746f6b656e20616c7265616479206d696e74656400000000604082015260600190565b6020808252601b908201527f536166654d6174683a206164646974696f6e206f766572666c6f770000000000604082015260600190565b6020808252603e908201527f4552433732315072657365744d696e7465725061757365724175746f49643a2060408201527f6d75737420686176652070617573657220726f6c6520746f2070617573650000606082015260800190565b6020808252600d908201526c496e76616c696420706f6f6c2160981b604082015260600190565b60208082526024908201527f4552433732313a207472616e7366657220746f20746865207a65726f206164646040820152637265737360e01b606082015260800190565b60208082526019908201527822a9219b99189d1030b8383937bb32903a379031b0b63632b960391b604082015260600190565b6020808252600f908201526e125b9d985b1a59081d1bdad95b9259608a1b604082015260600190565b60208082526021908201527f43616e6e6f742072656465656d206d6f7265207468616e207765206d696e74656040820152601960fa1b606082015260800190565b6020808252602c908201527f4552433732313a206f70657261746f7220717565727920666f72206e6f6e657860408201526b34b9ba32b73a103a37b5b2b760a11b606082015260800190565b60208082526030908201527f416363657373436f6e74726f6c3a2073656e646572206d75737420626520616e60408201526f2061646d696e20746f207265766f6b6560801b606082015260800190565b60208082526010908201526f14185d5cd8589b194e881c185d5cd95960821b604082015260600190565b6020808252600e908201526d24b73b30b634b21039b2b73232b960911b604082015260600190565b60208082526038908201527f4552433732313a20617070726f76652063616c6c6572206973206e6f74206f776040820152771b995c881b9bdc88185c1c1c9bdd995908199bdc88185b1b60421b606082015260800190565b6020808252602a908201527f4552433732313a2062616c616e636520717565727920666f7220746865207a65604082015269726f206164647265737360b01b606082015260800190565b60208082526022908201527f43616e6e6f74207769746864726177206d6f7265207468616e2072656465656d604082015261195960f21b606082015260800190565b60208082526022908201527f456e756d657261626c654d61703a20696e646578206f7574206f6620626f756e604082015261647360f01b606082015260800190565b6020808252818101527f4552433732313a206d696e7420746f20746865207a65726f2061646472657373604082015260600190565b602080825260169082015275125b9cdd59999a58da595b9d081c1c9a5b98da5c185b60521b604082015260600190565b6020808252602c908201527f4552433732313a20617070726f76656420717565727920666f72206e6f6e657860408201526b34b9ba32b73a103a37b5b2b760a11b606082015260800190565b60208082526021908201527f4f6e6c7920476f6c6466696e636820666163746f727920697320616c6c6f77656040820152601960fa1b606082015260800190565b6020808252602e908201527f436f6e747261637420696e7374616e63652068617320616c726561647920626560408201526d195b881a5b9a5d1a585b1a5e995960921b606082015260800190565b60208082526029908201527f4552433732313a207472616e73666572206f6620746f6b656e2074686174206960408201526839903737ba1037bbb760b91b606082015260800190565b6020808252602f908201527f4552433732314d657461646174613a2055524920717565727920666f72206e6f60408201526e3732bc34b9ba32b73a103a37b5b2b760891b606082015260800190565b60208082526023908201527f43616e206f6e6c79206275726e2066756c6c792072656465656d656420746f6b604082015262656e7360e81b606082015260800190565b6020808252603c908201527f43616e6e6f742072656465656d206d6f7265207468616e207072696e6369706160408201527f6c2d6465706f736974656420616d6f756e7420666f7220746f6b656e00000000606082015260800190565b6020808252600e908201526d151bdad95b881c995919595b595960921b604082015260600190565b60208082526021908201527f4552433732313a20617070726f76616c20746f2063757272656e74206f776e656040820152603960f91b606082015260800190565b60208082526031908201527f4552433732313a207472616e736665722063616c6c6572206973206e6f74206f6040820152701ddb995c881b9bdc88185c1c1c9bdd9959607a1b606082015260800190565b6020808252818101527f4f6e6c792074686520746f6b656e277320706f6f6c2063616e2072656465656d604082015260600190565b602080825260409082018190527f4552433732315072657365744d696e7465725061757365724175746f49643a20908201527f6d75737420686176652070617573657220726f6c6520746f20756e7061757365606082015260800190565b6020808252602b908201527f4d75737420686176652061646d696e20726f6c6520746f20706572666f726d2060408201526a3a3434b99030b1ba34b7b760a91b606082015260800190565b6020808252602f908201527f416363657373436f6e74726f6c3a2063616e206f6e6c792072656e6f756e636560408201526e103937b632b9903337b91039b2b63360891b606082015260800190565b81516001600160a01b031681526020808301519082015260408083015190820152606080830151908201526080918201519181019190915260a00190565b918252602082015260400190565b92835260208301919091521515604082015260600190565b9283526020830191909152604082015260600190565b60005b838110156139ba5781810151838201526020016139a2565b838111156115755750506000910152565b6001600160a01b0381168114611ba357600080fd5b6001600160e01b031981168114611ba357600080fdfeb19546dff01e856fb3f010c267a7b1c60363cf8a4664e21cc89c26224620214e4552433732313a206f776e657220717565727920666f72206e6f6e6578697374656e7420746f6b656e65d7a28e3265b37a6474929f336521b332c1681b933f6cb9f3376673440d862addf252ad1be2c89b69c2b068fc378daa952ba7f163c4a11628f55a4df523b3efa2646970667358221220455a1121172d5409f476de6731c9a8a59a8afe0e4d71ede1248a8dfd28e33c1464736f6c634300060c0033",
  "devdoc": {
    "author": "Goldfinch",
    "kind": "dev",
    "methods": {
      "approve(address,uint256)": {
        "details": "Approves another address to transfer the given token ID The zero address indicates there is no approved address. There can only be one approved address per token at a given time. Can only be called by the token owner or an approved operator.",
        "params": {
          "to": "address to be approved for the given token ID",
          "tokenId": "uint256 ID of the token to be approved"
        }
      },
      "balanceOf(address)": {
        "details": "Gets the balance of the specified address.",
        "params": {
          "owner": "address to query the balance of"
        },
        "returns": {
          "_0": "uint256 representing the amount owned by the passed address"
        }
      },
      "baseURI()": {
        "details": "Returns the base URI set via {_setBaseURI}. This will be automatically added as a prefix in {tokenURI} to each token's URI, or to the token ID if no specific URI is set for that token ID."
      },
      "burn(uint256)": {
        "details": "Burns a specific ERC721 token, and removes the data from our mappings",
        "params": {
          "tokenId": "uint256 id of the ERC721 token to be burned."
        }
      },
      "getApproved(uint256)": {
        "details": "Gets the approved address for a token ID, or zero if no address set Reverts if the token ID does not exist.",
        "params": {
          "tokenId": "uint256 ID of the token to query the approval of"
        },
        "returns": {
          "_0": "address currently approved for the given token ID"
        }
      },
      "getRoleAdmin(bytes32)": {
        "details": "Returns the admin role that controls `role`. See {grantRole} and {revokeRole}. To change a role's admin, use {_setRoleAdmin}."
      },
      "getRoleMember(bytes32,uint256)": {
        "details": "Returns one of the accounts that have `role`. `index` must be a value between 0 and {getRoleMemberCount}, non-inclusive. Role bearers are not sorted in any particular way, and their ordering may change at any point. WARNING: When using {getRoleMember} and {getRoleMemberCount}, make sure you perform all queries on the same block. See the following https://forum.openzeppelin.com/t/iterating-over-elements-on-enumerableset-in-openzeppelin-contracts/2296[forum post] for more information."
      },
      "getRoleMemberCount(bytes32)": {
        "details": "Returns the number of accounts that have `role`. Can be used together with {getRoleMember} to enumerate all bearers of a role."
      },
      "grantRole(bytes32,address)": {
        "details": "Grants `role` to `account`. If `account` had not been already granted `role`, emits a {RoleGranted} event. Requirements: - the caller must have ``role``'s admin role."
      },
      "hasRole(bytes32,address)": {
        "details": "Returns `true` if `account` has been granted `role`."
      },
      "isApprovedForAll(address,address)": {
        "details": "Tells whether an operator is approved by a given owner.",
        "params": {
          "operator": "operator address which you want to query the approval of",
          "owner": "owner address which you want to query the approval of"
        },
        "returns": {
          "_0": "bool whether the given operator is approved by the given owner"
        }
      },
      "isApprovedOrOwner(address,uint256)": {
        "params": {
          "spender": "The address to check",
          "tokenId": "The token id to check for"
        },
        "returns": {
          "_0": "True if approved to redeem/transfer/burn the token, false if not"
        }
      },
      "mint((uint256,uint256),address)": {
        "params": {
          "params": "Struct containing the tranche and the amount",
          "to": "The address that should own the position"
        },
        "returns": {
          "tokenId": "The token ID (auto-incrementing integer across all pools)"
        }
      },
      "name()": {
        "details": "Gets the token name.",
        "returns": {
          "_0": "string representing the token name"
        }
      },
      "onPoolCreated(address)": {
        "params": {
          "newPool": "The address of the newly created pool"
        }
      },
      "ownerOf(uint256)": {
        "details": "Gets the owner of the specified token ID.",
        "params": {
          "tokenId": "uint256 ID of the token to query the owner of"
        },
        "returns": {
          "_0": "address currently marked as the owner of the given token ID"
        }
      },
      "pause()": {
        "details": "Pauses all token transfers. See {ERC721Pausable} and {Pausable-_pause}. Requirements: - the caller must have the `PAUSER_ROLE`."
      },
      "paused()": {
        "details": "Returns true if the contract is paused, and false otherwise."
      },
      "redeem(uint256,uint256,uint256)": {
        "params": {
          "interestRedeemed": "The incremental amount of interest redeemed",
          "principalRedeemed": "The incremental amount of principal redeemed (cannot be more than principal deposited)",
          "tokenId": "The token id to update (must be owned by the pool calling this function)"
        }
      },
      "reducePrincipalAmount(uint256,uint256)": {
        "details": "uses safemath to prevent underflowthis function is only intended for use as part of the v2.6.0 upgrade    to rectify a bug that allowed users to create a PoolToken that had a    larger amount of principal than they actually made available to the    borrower.  This bug is fixed in v2.6.0 but still requires past pool tokens    to have their principal redeemed and deposited to be rectified.",
        "params": {
          "amount": "amount to decrease by",
          "tokenId": "id of token to decrease"
        }
      },
      "renounceRole(bytes32,address)": {
        "details": "Revokes `role` from the calling account. Roles are often managed via {grantRole} and {revokeRole}: this function's purpose is to provide a mechanism for accounts to lose their privileges if they are compromised (such as when a trusted device is misplaced). If the calling account had been granted `role`, emits a {RoleRevoked} event. Requirements: - the caller must be `account`."
      },
      "revokeRole(bytes32,address)": {
        "details": "Revokes `role` from `account`. If `account` had been granted `role`, emits a {RoleRevoked} event. Requirements: - the caller must have ``role``'s admin role."
      },
      "safeTransferFrom(address,address,uint256)": {
        "details": "Safely transfers the ownership of a given token ID to another address If the target address is a contract, it must implement {IERC721Receiver-onERC721Received}, which is called upon a safe transfer, and return the magic value `bytes4(keccak256(\"onERC721Received(address,address,uint256,bytes)\"))`; otherwise, the transfer is reverted. Requires the msg.sender to be the owner, approved, or operator",
        "params": {
          "from": "current owner of the token",
          "to": "address to receive the ownership of the given token ID",
          "tokenId": "uint256 ID of the token to be transferred"
        }
      },
      "safeTransferFrom(address,address,uint256,bytes)": {
        "details": "Safely transfers the ownership of a given token ID to another address If the target address is a contract, it must implement {IERC721Receiver-onERC721Received}, which is called upon a safe transfer, and return the magic value `bytes4(keccak256(\"onERC721Received(address,address,uint256,bytes)\"))`; otherwise, the transfer is reverted. Requires the _msgSender() to be the owner, approved, or operator",
        "params": {
          "_data": "bytes data to send along with a safe transfer check",
          "from": "current owner of the token",
          "to": "address to receive the ownership of the given token ID",
          "tokenId": "uint256 ID of the token to be transferred"
        }
      },
      "setApprovalForAll(address,bool)": {
        "details": "Sets or unsets the approval of a given operator An operator is allowed to transfer all tokens of the sender on their behalf.",
        "params": {
          "approved": "representing the status of the approval to be set",
          "operator": "operator address to set the approval"
        }
      },
      "supportsInterface(bytes4)": {
        "details": "See {IERC165-supportsInterface}. Time complexity O(1), guaranteed to always use less than 30 000 gas."
      },
      "symbol()": {
        "details": "Gets the token symbol.",
        "returns": {
          "_0": "string representing the token symbol"
        }
      },
      "tokenByIndex(uint256)": {
        "details": "Gets the token ID at a given index of all the tokens in this contract Reverts if the index is greater or equal to the total number of tokens.",
        "params": {
          "index": "uint256 representing the index to be accessed of the tokens list"
        },
        "returns": {
          "_0": "uint256 token ID at the given index of the tokens list"
        }
      },
      "tokenOfOwnerByIndex(address,uint256)": {
        "details": "Gets the token ID at a given index of the tokens list of the requested owner.",
        "params": {
          "index": "uint256 representing the index to be accessed of the requested tokens list",
          "owner": "address owning the tokens list to be accessed"
        },
        "returns": {
          "_0": "uint256 token ID at the given index of the tokens list owned by the requested address"
        }
      },
      "tokenURI(uint256)": {
        "details": "Returns the URI for a given token ID. May return an empty string. If a base URI is set (via {_setBaseURI}), it is added as a prefix to the token's own URI (via {_setTokenURI}). If there is a base URI but no token URI, the token's ID will be used as its URI when appending it to the base URI. This pattern for autogenerated token URIs can lead to large gas savings. .Examples |=== |`_setBaseURI()` |`_setTokenURI()` |`tokenURI()` | \"\" | \"\" | \"\" | \"\" | \"token.uri/123\" | \"token.uri/123\" | \"token.uri/\" | \"123\" | \"token.uri/123\" | \"token.uri/\" | \"\" | \"token.uri/<tokenId>\" |=== Requirements: - `tokenId` must exist."
      },
      "totalSupply()": {
        "details": "Gets the total amount of tokens stored by the contract.",
        "returns": {
          "_0": "uint256 representing the total amount of tokens"
        }
      },
      "transferFrom(address,address,uint256)": {
        "details": "Transfers the ownership of a given token ID to another address. Usage of this method is discouraged, use {safeTransferFrom} whenever possible. Requires the msg.sender to be the owner, approved, or operator.",
        "params": {
          "from": "current owner of the token",
          "to": "address to receive the ownership of the given token ID",
          "tokenId": "uint256 ID of the token to be transferred"
        }
      },
      "unpause()": {
        "details": "Unpauses all token transfers. See {ERC721Pausable} and {Pausable-_unpause}. Requirements: - the caller must have the `PAUSER_ROLE`."
      },
      "withdrawPrincipal(uint256,uint256)": {
        "params": {
          "principalAmount": "The incremental amount of principal redeemed (cannot be more than principal deposited)",
          "tokenId": "The token id to update (must be owned by the pool calling this function)"
        }
      }
    },
    "title": "PoolTokens",
    "version": 1
  },
  "userdoc": {
    "kind": "user",
    "methods": {
      "isApprovedOrOwner(address,uint256)": {
        "notice": "Returns a boolean representing whether the spender is the owner or the approved spender of the token"
      },
      "mint((uint256,uint256),address)": {
        "notice": "Called by pool to create a debt position in a particular tranche and amount"
      },
      "onPoolCreated(address)": {
        "notice": "Called by the GoldfinchFactory to register the pool as a valid pool. Only valid pools can mint/redeem tokens"
      },
      "redeem(uint256,uint256,uint256)": {
        "notice": "Updates a token to reflect the principal and interest amounts that have been redeemed."
      },
      "reducePrincipalAmount(uint256,uint256)": {
        "notice": "reduce a given pool token's principalAmount and principalRedeemed by a specified amount"
      },
      "updateGoldfinchConfig()": {
        "notice": "Migrates to a new goldfinch config address"
      },
      "withdrawPrincipal(uint256,uint256)": {
        "notice": "Decrement a token's principal amount. This is different from `redeem`, which captures changes to   principal and/or interest that occur when a loan is in progress."
      }
    },
    "notice": "PoolTokens is an ERC721 compliant contract, which can represent  junior tranche or senior tranche shares of any of the borrower pools.",
    "version": 1
  },
  "storageLayout": {
    "storage": [
      {
        "astId": 151,
        "contract": "contracts/protocol/core/PoolTokens.sol:PoolTokens",
        "label": "initialized",
        "offset": 0,
        "slot": "0",
        "type": "t_bool"
      },
      {
        "astId": 154,
        "contract": "contracts/protocol/core/PoolTokens.sol:PoolTokens",
        "label": "initializing",
        "offset": 1,
        "slot": "0",
        "type": "t_bool"
      },
      {
        "astId": 219,
        "contract": "contracts/protocol/core/PoolTokens.sol:PoolTokens",
        "label": "______gap",
        "offset": 0,
        "slot": "1",
        "type": "t_array(t_uint256)50_storage"
      },
      {
        "astId": 144,
        "contract": "contracts/protocol/core/PoolTokens.sol:PoolTokens",
        "label": "__gap",
        "offset": 0,
        "slot": "51",
        "type": "t_array(t_uint256)50_storage"
      },
      {
        "astId": 264,
        "contract": "contracts/protocol/core/PoolTokens.sol:PoolTokens",
        "label": "_roles",
        "offset": 0,
        "slot": "101",
        "type": "t_mapping(t_bytes32,t_struct(RoleData)260_storage)"
      },
      {
        "astId": 509,
        "contract": "contracts/protocol/core/PoolTokens.sol:PoolTokens",
        "label": "__gap",
        "offset": 0,
        "slot": "102",
        "type": "t_array(t_uint256)49_storage"
      },
      {
        "astId": 527,
        "contract": "contracts/protocol/core/PoolTokens.sol:PoolTokens",
        "label": "_supportedInterfaces",
        "offset": 0,
        "slot": "151",
        "type": "t_mapping(t_bytes4,t_bool)"
      },
      {
        "astId": 584,
        "contract": "contracts/protocol/core/PoolTokens.sol:PoolTokens",
        "label": "__gap",
        "offset": 0,
        "slot": "152",
        "type": "t_array(t_uint256)49_storage"
      },
      {
        "astId": 2269,
        "contract": "contracts/protocol/core/PoolTokens.sol:PoolTokens",
        "label": "_holderTokens",
        "offset": 0,
        "slot": "201",
        "type": "t_mapping(t_address,t_struct(UintSet)4313_storage)"
      },
      {
        "astId": 2271,
        "contract": "contracts/protocol/core/PoolTokens.sol:PoolTokens",
        "label": "_tokenOwners",
        "offset": 0,
        "slot": "202",
        "type": "t_struct(UintToAddressMap)3838_storage"
      },
      {
        "astId": 2275,
        "contract": "contracts/protocol/core/PoolTokens.sol:PoolTokens",
        "label": "_tokenApprovals",
        "offset": 0,
        "slot": "204",
        "type": "t_mapping(t_uint256,t_address)"
      },
      {
        "astId": 2281,
        "contract": "contracts/protocol/core/PoolTokens.sol:PoolTokens",
        "label": "_operatorApprovals",
        "offset": 0,
        "slot": "205",
        "type": "t_mapping(t_address,t_mapping(t_address,t_bool))"
      },
      {
        "astId": 2283,
        "contract": "contracts/protocol/core/PoolTokens.sol:PoolTokens",
        "label": "_name",
        "offset": 0,
        "slot": "206",
        "type": "t_string_storage"
      },
      {
        "astId": 2285,
        "contract": "contracts/protocol/core/PoolTokens.sol:PoolTokens",
        "label": "_symbol",
        "offset": 0,
        "slot": "207",
        "type": "t_string_storage"
      },
      {
        "astId": 2289,
        "contract": "contracts/protocol/core/PoolTokens.sol:PoolTokens",
        "label": "_tokenURIs",
        "offset": 0,
        "slot": "208",
        "type": "t_mapping(t_uint256,t_string_storage)"
      },
      {
        "astId": 2291,
        "contract": "contracts/protocol/core/PoolTokens.sol:PoolTokens",
        "label": "_baseURI",
        "offset": 0,
        "slot": "209",
        "type": "t_string_storage"
      },
      {
        "astId": 3197,
        "contract": "contracts/protocol/core/PoolTokens.sol:PoolTokens",
        "label": "__gap",
        "offset": 0,
        "slot": "210",
        "type": "t_array(t_uint256)41_storage"
      },
      {
        "astId": 4429,
        "contract": "contracts/protocol/core/PoolTokens.sol:PoolTokens",
        "label": "_paused",
        "offset": 0,
        "slot": "251",
        "type": "t_bool"
      },
      {
        "astId": 4518,
        "contract": "contracts/protocol/core/PoolTokens.sol:PoolTokens",
        "label": "__gap",
        "offset": 0,
        "slot": "252",
        "type": "t_array(t_uint256)49_storage"
      },
      {
        "astId": 3265,
        "contract": "contracts/protocol/core/PoolTokens.sol:PoolTokens",
        "label": "__gap",
        "offset": 0,
        "slot": "301",
        "type": "t_array(t_uint256)50_storage"
      },
      {
        "astId": 7677,
        "contract": "contracts/protocol/core/PoolTokens.sol:PoolTokens",
        "label": "_tokenIdTracker",
        "offset": 0,
        "slot": "351",
        "type": "t_struct(Counter)3518_storage"
      },
      {
        "astId": 7735,
        "contract": "contracts/protocol/core/PoolTokens.sol:PoolTokens",
        "label": "__gap",
        "offset": 0,
        "slot": "352",
        "type": "t_array(t_uint256)49_storage"
      },
      {
        "astId": 20102,
        "contract": "contracts/protocol/core/PoolTokens.sol:PoolTokens",
        "label": "config",
        "offset": 0,
        "slot": "401",
        "type": "t_contract(GoldfinchConfig)17615"
      },
      {
        "astId": 20116,
        "contract": "contracts/protocol/core/PoolTokens.sol:PoolTokens",
        "label": "tokens",
        "offset": 0,
        "slot": "402",
        "type": "t_mapping(t_uint256,t_struct(TokenInfo)10238_storage)"
      },
      {
        "astId": 20120,
        "contract": "contracts/protocol/core/PoolTokens.sol:PoolTokens",
        "label": "pools",
        "offset": 0,
        "slot": "403",
        "type": "t_mapping(t_address,t_struct(PoolInfo)20112_storage)"
      }
    ],
    "types": {
      "t_address": {
        "encoding": "inplace",
        "label": "address",
        "numberOfBytes": "20"
      },
      "t_array(t_bytes32)dyn_storage": {
        "base": "t_bytes32",
        "encoding": "dynamic_array",
        "label": "bytes32[]",
        "numberOfBytes": "32"
      },
      "t_array(t_struct(MapEntry)3566_storage)dyn_storage": {
        "base": "t_struct(MapEntry)3566_storage",
        "encoding": "dynamic_array",
        "label": "struct EnumerableMap.MapEntry[]",
        "numberOfBytes": "32"
      },
      "t_array(t_uint256)41_storage": {
        "base": "t_uint256",
        "encoding": "inplace",
        "label": "uint256[41]",
        "numberOfBytes": "1312"
      },
      "t_array(t_uint256)49_storage": {
        "base": "t_uint256",
        "encoding": "inplace",
        "label": "uint256[49]",
        "numberOfBytes": "1568"
      },
      "t_array(t_uint256)50_storage": {
        "base": "t_uint256",
        "encoding": "inplace",
        "label": "uint256[50]",
        "numberOfBytes": "1600"
      },
      "t_bool": {
        "encoding": "inplace",
        "label": "bool",
        "numberOfBytes": "1"
      },
      "t_bytes32": {
        "encoding": "inplace",
        "label": "bytes32",
        "numberOfBytes": "32"
      },
      "t_bytes4": {
        "encoding": "inplace",
        "label": "bytes4",
        "numberOfBytes": "4"
      },
      "t_contract(GoldfinchConfig)17615": {
        "encoding": "inplace",
        "label": "contract GoldfinchConfig",
        "numberOfBytes": "20"
      },
      "t_mapping(t_address,t_bool)": {
        "encoding": "mapping",
        "key": "t_address",
        "label": "mapping(address => bool)",
        "numberOfBytes": "32",
        "value": "t_bool"
      },
      "t_mapping(t_address,t_mapping(t_address,t_bool))": {
        "encoding": "mapping",
        "key": "t_address",
        "label": "mapping(address => mapping(address => bool))",
        "numberOfBytes": "32",
        "value": "t_mapping(t_address,t_bool)"
      },
      "t_mapping(t_address,t_struct(PoolInfo)20112_storage)": {
        "encoding": "mapping",
        "key": "t_address",
        "label": "mapping(address => struct PoolTokens.PoolInfo)",
        "numberOfBytes": "32",
        "value": "t_struct(PoolInfo)20112_storage"
      },
      "t_mapping(t_address,t_struct(UintSet)4313_storage)": {
        "encoding": "mapping",
        "key": "t_address",
        "label": "mapping(address => struct EnumerableSet.UintSet)",
        "numberOfBytes": "32",
        "value": "t_struct(UintSet)4313_storage"
      },
      "t_mapping(t_bytes32,t_struct(RoleData)260_storage)": {
        "encoding": "mapping",
        "key": "t_bytes32",
        "label": "mapping(bytes32 => struct AccessControlUpgradeSafe.RoleData)",
        "numberOfBytes": "32",
        "value": "t_struct(RoleData)260_storage"
      },
      "t_mapping(t_bytes32,t_uint256)": {
        "encoding": "mapping",
        "key": "t_bytes32",
        "label": "mapping(bytes32 => uint256)",
        "numberOfBytes": "32",
        "value": "t_uint256"
      },
      "t_mapping(t_bytes4,t_bool)": {
        "encoding": "mapping",
        "key": "t_bytes4",
        "label": "mapping(bytes4 => bool)",
        "numberOfBytes": "32",
        "value": "t_bool"
      },
      "t_mapping(t_uint256,t_address)": {
        "encoding": "mapping",
        "key": "t_uint256",
        "label": "mapping(uint256 => address)",
        "numberOfBytes": "32",
        "value": "t_address"
      },
      "t_mapping(t_uint256,t_string_storage)": {
        "encoding": "mapping",
        "key": "t_uint256",
        "label": "mapping(uint256 => string)",
        "numberOfBytes": "32",
        "value": "t_string_storage"
      },
      "t_mapping(t_uint256,t_struct(TokenInfo)10238_storage)": {
        "encoding": "mapping",
        "key": "t_uint256",
        "label": "mapping(uint256 => struct IPoolTokens.TokenInfo)",
        "numberOfBytes": "32",
        "value": "t_struct(TokenInfo)10238_storage"
      },
      "t_string_storage": {
        "encoding": "bytes",
        "label": "string",
        "numberOfBytes": "32"
      },
      "t_struct(AddressSet)4204_storage": {
        "encoding": "inplace",
        "label": "struct EnumerableSet.AddressSet",
        "members": [
          {
            "astId": 4203,
            "contract": "contracts/protocol/core/PoolTokens.sol:PoolTokens",
            "label": "_inner",
            "offset": 0,
            "slot": "0",
            "type": "t_struct(Set)4024_storage"
          }
        ],
        "numberOfBytes": "64"
      },
      "t_struct(Counter)3518_storage": {
        "encoding": "inplace",
        "label": "struct Counters.Counter",
        "members": [
          {
            "astId": 3517,
            "contract": "contracts/protocol/core/PoolTokens.sol:PoolTokens",
            "label": "_value",
            "offset": 0,
            "slot": "0",
            "type": "t_uint256"
          }
        ],
        "numberOfBytes": "32"
      },
      "t_struct(Map)3574_storage": {
        "encoding": "inplace",
        "label": "struct EnumerableMap.Map",
        "members": [
          {
            "astId": 3569,
            "contract": "contracts/protocol/core/PoolTokens.sol:PoolTokens",
            "label": "_entries",
            "offset": 0,
            "slot": "0",
            "type": "t_array(t_struct(MapEntry)3566_storage)dyn_storage"
          },
          {
            "astId": 3573,
            "contract": "contracts/protocol/core/PoolTokens.sol:PoolTokens",
            "label": "_indexes",
            "offset": 0,
            "slot": "1",
            "type": "t_mapping(t_bytes32,t_uint256)"
          }
        ],
        "numberOfBytes": "64"
      },
      "t_struct(MapEntry)3566_storage": {
        "encoding": "inplace",
        "label": "struct EnumerableMap.MapEntry",
        "members": [
          {
            "astId": 3563,
            "contract": "contracts/protocol/core/PoolTokens.sol:PoolTokens",
            "label": "_key",
            "offset": 0,
            "slot": "0",
            "type": "t_bytes32"
          },
          {
            "astId": 3565,
            "contract": "contracts/protocol/core/PoolTokens.sol:PoolTokens",
            "label": "_value",
            "offset": 0,
            "slot": "1",
            "type": "t_bytes32"
          }
        ],
        "numberOfBytes": "64"
      },
      "t_struct(PoolInfo)20112_storage": {
        "encoding": "inplace",
        "label": "struct PoolTokens.PoolInfo",
        "members": [
          {
            "astId": 20107,
            "contract": "contracts/protocol/core/PoolTokens.sol:PoolTokens",
            "label": "totalMinted",
            "offset": 0,
            "slot": "0",
            "type": "t_uint256"
          },
          {
            "astId": 20109,
            "contract": "contracts/protocol/core/PoolTokens.sol:PoolTokens",
            "label": "totalPrincipalRedeemed",
            "offset": 0,
            "slot": "1",
            "type": "t_uint256"
          },
          {
            "astId": 20111,
            "contract": "contracts/protocol/core/PoolTokens.sol:PoolTokens",
            "label": "created",
            "offset": 0,
            "slot": "2",
            "type": "t_bool"
          }
        ],
        "numberOfBytes": "96"
      },
      "t_struct(RoleData)260_storage": {
        "encoding": "inplace",
        "label": "struct AccessControlUpgradeSafe.RoleData",
        "members": [
          {
            "astId": 257,
            "contract": "contracts/protocol/core/PoolTokens.sol:PoolTokens",
            "label": "members",
            "offset": 0,
            "slot": "0",
            "type": "t_struct(AddressSet)4204_storage"
          },
          {
            "astId": 259,
            "contract": "contracts/protocol/core/PoolTokens.sol:PoolTokens",
            "label": "adminRole",
            "offset": 0,
            "slot": "2",
            "type": "t_bytes32"
          }
        ],
        "numberOfBytes": "96"
      },
      "t_struct(Set)4024_storage": {
        "encoding": "inplace",
        "label": "struct EnumerableSet.Set",
        "members": [
          {
            "astId": 4019,
            "contract": "contracts/protocol/core/PoolTokens.sol:PoolTokens",
            "label": "_values",
            "offset": 0,
            "slot": "0",
            "type": "t_array(t_bytes32)dyn_storage"
          },
          {
            "astId": 4023,
            "contract": "contracts/protocol/core/PoolTokens.sol:PoolTokens",
            "label": "_indexes",
            "offset": 0,
            "slot": "1",
            "type": "t_mapping(t_bytes32,t_uint256)"
          }
        ],
        "numberOfBytes": "64"
      },
      "t_struct(TokenInfo)10238_storage": {
        "encoding": "inplace",
        "label": "struct IPoolTokens.TokenInfo",
        "members": [
          {
            "astId": 10229,
            "contract": "contracts/protocol/core/PoolTokens.sol:PoolTokens",
            "label": "pool",
            "offset": 0,
            "slot": "0",
            "type": "t_address"
          },
          {
            "astId": 10231,
            "contract": "contracts/protocol/core/PoolTokens.sol:PoolTokens",
            "label": "tranche",
            "offset": 0,
            "slot": "1",
            "type": "t_uint256"
          },
          {
            "astId": 10233,
            "contract": "contracts/protocol/core/PoolTokens.sol:PoolTokens",
            "label": "principalAmount",
            "offset": 0,
            "slot": "2",
            "type": "t_uint256"
          },
          {
            "astId": 10235,
            "contract": "contracts/protocol/core/PoolTokens.sol:PoolTokens",
            "label": "principalRedeemed",
            "offset": 0,
            "slot": "3",
            "type": "t_uint256"
          },
          {
            "astId": 10237,
            "contract": "contracts/protocol/core/PoolTokens.sol:PoolTokens",
            "label": "interestRedeemed",
            "offset": 0,
            "slot": "4",
            "type": "t_uint256"
          }
        ],
        "numberOfBytes": "160"
      },
      "t_struct(UintSet)4313_storage": {
        "encoding": "inplace",
        "label": "struct EnumerableSet.UintSet",
        "members": [
          {
            "astId": 4312,
            "contract": "contracts/protocol/core/PoolTokens.sol:PoolTokens",
            "label": "_inner",
            "offset": 0,
            "slot": "0",
            "type": "t_struct(Set)4024_storage"
          }
        ],
        "numberOfBytes": "64"
      },
      "t_struct(UintToAddressMap)3838_storage": {
        "encoding": "inplace",
        "label": "struct EnumerableMap.UintToAddressMap",
        "members": [
          {
            "astId": 3837,
            "contract": "contracts/protocol/core/PoolTokens.sol:PoolTokens",
            "label": "_inner",
            "offset": 0,
            "slot": "0",
            "type": "t_struct(Map)3574_storage"
          }
        ],
        "numberOfBytes": "64"
      },
      "t_uint256": {
        "encoding": "inplace",
        "label": "uint256",
        "numberOfBytes": "32"
      }
    }
  }
}