{
  "address": "0x1F71d76615C514C0CCA11D933878bD86705c71d0",
  "abi": [
    {
      "anonymous": false,
      "inputs": [
        {
          "indexed": true,
          "internalType": "address",
          "name": "owner",
          "type": "address"
        },
        {
          "indexed": true,
          "internalType": "address",
          "name": "approved",
          "type": "address"
        },
        {
          "indexed": true,
          "internalType": "uint256",
          "name": "tokenId",
          "type": "uint256"
        }
      ],
      "name": "Approval",
      "type": "event"
    },
    {
      "anonymous": false,
      "inputs": [
        {
          "indexed": true,
          "internalType": "address",
          "name": "owner",
          "type": "address"
        },
        {
          "indexed": true,
          "internalType": "address",
          "name": "operator",
          "type": "address"
        },
        {
          "indexed": false,
          "internalType": "bool",
          "name": "approved",
          "type": "bool"
        }
      ],
      "name": "ApprovalForAll",
      "type": "event"
    },
    {
      "anonymous": false,
      "inputs": [
        {
          "indexed": true,
          "internalType": "address",
          "name": "user",
          "type": "address"
        },
        {
          "indexed": false,
          "internalType": "uint256",
          "name": "depositedAmount",
          "type": "uint256"
        },
        {
          "indexed": true,
          "internalType": "uint256",
          "name": "tokenId",
          "type": "uint256"
        },
        {
          "indexed": false,
          "internalType": "uint256",
          "name": "amount",
          "type": "uint256"
        }
      ],
      "name": "DepositedAndStaked",
      "type": "event"
    },
    {
      "anonymous": false,
      "inputs": [
        {
          "indexed": true,
          "internalType": "address",
          "name": "user",
          "type": "address"
        },
        {
          "indexed": false,
          "internalType": "uint256",
          "name": "fiduAmount",
          "type": "uint256"
        },
        {
          "indexed": false,
          "internalType": "uint256",
          "name": "usdcAmount",
          "type": "uint256"
        },
        {
          "indexed": false,
          "internalType": "uint256",
          "name": "tokensReceived",
          "type": "uint256"
        }
      ],
      "name": "DepositedToCurve",
      "type": "event"
    },
    {
      "anonymous": false,
      "inputs": [
        {
          "indexed": true,
          "internalType": "address",
          "name": "user",
          "type": "address"
        },
        {
          "indexed": false,
          "internalType": "uint256",
          "name": "fiduAmount",
          "type": "uint256"
        },
        {
          "indexed": false,
          "internalType": "uint256",
          "name": "usdcAmount",
          "type": "uint256"
        },
        {
          "indexed": true,
          "internalType": "uint256",
          "name": "tokenId",
          "type": "uint256"
        },
        {
          "indexed": false,
          "internalType": "uint256",
          "name": "amount",
          "type": "uint256"
        }
      ],
      "name": "DepositedToCurveAndStaked",
      "type": "event"
    },
    {
      "anonymous": false,
      "inputs": [
        {
          "indexed": true,
          "internalType": "address",
          "name": "who",
          "type": "address"
        },
        {
          "indexed": false,
          "internalType": "enum StakingRewards.StakedPositionType",
          "name": "positionType",
          "type": "uint8"
        },
        {
          "indexed": false,
          "internalType": "uint256",
          "name": "multiplier",
          "type": "uint256"
        }
      ],
      "name": "EffectiveMultiplierUpdated",
      "type": "event"
    },
    {
      "anonymous": false,
      "inputs": [
        {
          "indexed": true,
          "internalType": "address",
          "name": "who",
          "type": "address"
        },
        {
          "indexed": false,
          "internalType": "address",
          "name": "configAddress",
          "type": "address"
        }
      ],
      "name": "GoldfinchConfigUpdated",
      "type": "event"
    },
    {
      "anonymous": false,
      "inputs": [
        {
          "indexed": true,
          "internalType": "address",
          "name": "who",
          "type": "address"
        },
        {
          "indexed": false,
          "internalType": "uint256",
          "name": "maxRateAtPercent",
          "type": "uint256"
        }
      ],
      "name": "MaxRateAtPercentUpdated",
      "type": "event"
    },
    {
      "anonymous": false,
      "inputs": [
        {
          "indexed": true,
          "internalType": "address",
          "name": "who",
          "type": "address"
        },
        {
          "indexed": false,
          "internalType": "uint256",
          "name": "maxRate",
          "type": "uint256"
        }
      ],
      "name": "MaxRateUpdated",
      "type": "event"
    },
    {
      "anonymous": false,
      "inputs": [
        {
          "indexed": true,
          "internalType": "address",
          "name": "who",
          "type": "address"
        },
        {
          "indexed": false,
          "internalType": "uint256",
          "name": "minRateAtPercent",
          "type": "uint256"
        }
      ],
      "name": "MinRateAtPercentUpdated",
      "type": "event"
    },
    {
      "anonymous": false,
      "inputs": [
        {
          "indexed": true,
          "internalType": "address",
          "name": "who",
          "type": "address"
        },
        {
          "indexed": false,
          "internalType": "uint256",
          "name": "minRate",
          "type": "uint256"
        }
      ],
      "name": "MinRateUpdated",
      "type": "event"
    },
    {
      "anonymous": false,
      "inputs": [
        {
          "indexed": false,
          "internalType": "address",
          "name": "account",
          "type": "address"
        }
      ],
      "name": "Paused",
      "type": "event"
    },
    {
      "anonymous": false,
      "inputs": [
        {
          "indexed": false,
          "internalType": "uint256",
          "name": "reward",
          "type": "uint256"
        }
      ],
      "name": "RewardAdded",
      "type": "event"
    },
    {
      "anonymous": false,
      "inputs": [
        {
          "indexed": true,
          "internalType": "address",
          "name": "user",
          "type": "address"
        },
        {
          "indexed": true,
          "internalType": "uint256",
          "name": "tokenId",
          "type": "uint256"
        },
        {
          "indexed": false,
          "internalType": "uint256",
          "name": "reward",
          "type": "uint256"
        }
      ],
      "name": "RewardPaid",
      "type": "event"
    },
    {
      "anonymous": false,
      "inputs": [
        {
          "indexed": true,
          "internalType": "address",
          "name": "who",
          "type": "address"
        },
        {
          "indexed": false,
          "internalType": "uint256",
          "name": "targetCapacity",
          "type": "uint256"
        },
        {
          "indexed": false,
          "internalType": "uint256",
          "name": "minRate",
          "type": "uint256"
        },
        {
          "indexed": false,
          "internalType": "uint256",
          "name": "maxRate",
          "type": "uint256"
        },
        {
          "indexed": false,
          "internalType": "uint256",
          "name": "minRateAtPercent",
          "type": "uint256"
        },
        {
          "indexed": false,
          "internalType": "uint256",
          "name": "maxRateAtPercent",
          "type": "uint256"
        }
      ],
      "name": "RewardsParametersUpdated",
      "type": "event"
    },
    {
      "anonymous": false,
      "inputs": [
        {
          "indexed": true,
          "internalType": "bytes32",
          "name": "role",
          "type": "bytes32"
        },
        {
          "indexed": true,
          "internalType": "address",
          "name": "account",
          "type": "address"
        },
        {
          "indexed": true,
          "internalType": "address",
          "name": "sender",
          "type": "address"
        }
      ],
      "name": "RoleGranted",
      "type": "event"
    },
    {
      "anonymous": false,
      "inputs": [
        {
          "indexed": true,
          "internalType": "bytes32",
          "name": "role",
          "type": "bytes32"
        },
        {
          "indexed": true,
          "internalType": "address",
          "name": "account",
          "type": "address"
        },
        {
          "indexed": true,
          "internalType": "address",
          "name": "sender",
          "type": "address"
        }
      ],
      "name": "RoleRevoked",
      "type": "event"
    },
    {
      "anonymous": false,
      "inputs": [
        {
          "indexed": true,
          "internalType": "address",
          "name": "user",
          "type": "address"
        },
        {
          "indexed": true,
          "internalType": "uint256",
          "name": "tokenId",
          "type": "uint256"
        },
        {
          "indexed": false,
          "internalType": "uint256",
          "name": "amount",
          "type": "uint256"
        },
        {
          "indexed": false,
          "internalType": "enum StakingRewards.StakedPositionType",
          "name": "positionType",
          "type": "uint8"
        },
        {
          "indexed": false,
          "internalType": "uint256",
          "name": "baseTokenExchangeRate",
          "type": "uint256"
        }
      ],
      "name": "Staked",
      "type": "event"
    },
    {
      "anonymous": false,
      "inputs": [
        {
          "indexed": true,
          "internalType": "address",
          "name": "who",
          "type": "address"
        },
        {
          "indexed": false,
          "internalType": "uint256",
          "name": "targetCapacity",
          "type": "uint256"
        }
      ],
      "name": "TargetCapacityUpdated",
      "type": "event"
    },
    {
      "anonymous": false,
      "inputs": [
        {
          "indexed": true,
          "internalType": "address",
          "name": "from",
          "type": "address"
        },
        {
          "indexed": true,
          "internalType": "address",
          "name": "to",
          "type": "address"
        },
        {
          "indexed": true,
          "internalType": "uint256",
          "name": "tokenId",
          "type": "uint256"
        }
      ],
      "name": "Transfer",
      "type": "event"
    },
    {
      "anonymous": false,
      "inputs": [
        {
          "indexed": false,
          "internalType": "address",
          "name": "account",
          "type": "address"
        }
      ],
      "name": "Unpaused",
      "type": "event"
    },
    {
      "anonymous": false,
      "inputs": [
        {
          "indexed": true,
          "internalType": "address",
          "name": "user",
          "type": "address"
        },
        {
          "indexed": true,
          "internalType": "uint256",
          "name": "tokenId",
          "type": "uint256"
        },
        {
          "indexed": false,
          "internalType": "uint256",
          "name": "amount",
          "type": "uint256"
        },
        {
          "indexed": false,
          "internalType": "enum StakingRewards.StakedPositionType",
          "name": "positionType",
          "type": "uint8"
        }
      ],
      "name": "Unstaked",
      "type": "event"
    },
    {
      "anonymous": false,
      "inputs": [
        {
          "indexed": true,
          "internalType": "address",
          "name": "user",
          "type": "address"
        },
        {
          "indexed": false,
          "internalType": "uint256",
          "name": "usdcReceivedAmount",
          "type": "uint256"
        },
        {
          "indexed": true,
          "internalType": "uint256",
          "name": "tokenId",
          "type": "uint256"
        },
        {
          "indexed": false,
          "internalType": "uint256",
          "name": "amount",
          "type": "uint256"
        }
      ],
      "name": "UnstakedAndWithdrew",
      "type": "event"
    },
    {
      "anonymous": false,
      "inputs": [
        {
          "indexed": true,
          "internalType": "address",
          "name": "user",
          "type": "address"
        },
        {
          "indexed": false,
          "internalType": "uint256",
          "name": "usdcReceivedAmount",
          "type": "uint256"
        },
        {
          "indexed": false,
          "internalType": "uint256[]",
          "name": "tokenIds",
          "type": "uint256[]"
        },
        {
          "indexed": false,
          "internalType": "uint256[]",
          "name": "amounts",
          "type": "uint256[]"
        }
      ],
      "name": "UnstakedAndWithdrewMultiple",
      "type": "event"
    },
    {
      "anonymous": false,
      "inputs": [
        {
          "indexed": true,
          "internalType": "address",
          "name": "user",
          "type": "address"
        },
        {
          "indexed": false,
          "internalType": "uint256[]",
          "name": "tokenIds",
          "type": "uint256[]"
        },
        {
          "indexed": false,
          "internalType": "uint256[]",
          "name": "amounts",
          "type": "uint256[]"
        }
      ],
      "name": "UnstakedMultiple",
      "type": "event"
    },
    {
      "anonymous": false,
      "inputs": [
        {
          "indexed": true,
          "internalType": "address",
          "name": "who",
          "type": "address"
        },
        {
          "indexed": false,
          "internalType": "uint256",
          "name": "vestingLength",
          "type": "uint256"
        }
      ],
      "name": "VestingScheduleUpdated",
      "type": "event"
    },
    {
      "inputs": [],
      "name": "DEFAULT_ADMIN_ROLE",
      "outputs": [
        {
          "internalType": "bytes32",
          "name": "",
          "type": "bytes32"
        }
      ],
      "stateMutability": "view",
      "type": "function"
    },
    {
      "inputs": [],
      "name": "MINTER_ROLE",
      "outputs": [
        {
          "internalType": "bytes32",
          "name": "",
          "type": "bytes32"
        }
      ],
      "stateMutability": "view",
      "type": "function"
    },
    {
      "inputs": [],
      "name": "OWNER_ROLE",
      "outputs": [
        {
          "internalType": "bytes32",
          "name": "",
          "type": "bytes32"
        }
      ],
      "stateMutability": "view",
      "type": "function"
    },
    {
      "inputs": [],
      "name": "PAUSER_ROLE",
      "outputs": [
        {
          "internalType": "bytes32",
          "name": "",
          "type": "bytes32"
        }
      ],
      "stateMutability": "view",
      "type": "function"
    },
    {
      "inputs": [],
      "name": "ZAPPER_ROLE",
      "outputs": [
        {
          "internalType": "bytes32",
          "name": "",
          "type": "bytes32"
        }
      ],
      "stateMutability": "view",
      "type": "function"
    },
    {
      "inputs": [
        {
          "internalType": "address",
          "name": "owner",
          "type": "address"
        },
        {
          "internalType": "contract GoldfinchConfig",
          "name": "_config",
          "type": "address"
        }
      ],
      "name": "__initialize__",
      "outputs": [],
      "stateMutability": "nonpayable",
      "type": "function"
    },
    {
      "inputs": [],
      "name": "_tokenIdTracker",
      "outputs": [
        {
          "internalType": "uint256",
          "name": "_value",
          "type": "uint256"
        }
      ],
      "stateMutability": "view",
      "type": "function"
    },
    {
      "inputs": [],
      "name": "accumulatedRewardsPerToken",
      "outputs": [
        {
          "internalType": "uint256",
          "name": "",
          "type": "uint256"
        }
      ],
      "stateMutability": "view",
      "type": "function"
    },
    {
      "inputs": [
        {
          "internalType": "uint256",
          "name": "tokenId",
          "type": "uint256"
        },
        {
          "internalType": "uint256",
          "name": "amount",
          "type": "uint256"
        }
      ],
      "name": "addToStake",
      "outputs": [],
      "stateMutability": "nonpayable",
      "type": "function"
    },
    {
      "inputs": [
        {
          "internalType": "address",
          "name": "to",
          "type": "address"
        },
        {
          "internalType": "uint256",
          "name": "tokenId",
          "type": "uint256"
        }
      ],
      "name": "approve",
      "outputs": [],
      "stateMutability": "nonpayable",
      "type": "function"
    },
    {
      "inputs": [
        {
          "internalType": "address",
          "name": "owner",
          "type": "address"
        }
      ],
      "name": "balanceOf",
      "outputs": [
        {
          "internalType": "uint256",
          "name": "",
          "type": "uint256"
        }
      ],
      "stateMutability": "view",
      "type": "function"
    },
    {
      "inputs": [],
      "name": "baseURI",
      "outputs": [
        {
          "internalType": "string",
          "name": "",
          "type": "string"
        }
      ],
      "stateMutability": "view",
      "type": "function"
    },
    {
      "inputs": [
        {
          "internalType": "uint256",
          "name": "tokenId",
          "type": "uint256"
        }
      ],
      "name": "claimableRewards",
      "outputs": [
        {
          "internalType": "uint256",
          "name": "rewards",
          "type": "uint256"
        }
      ],
      "stateMutability": "view",
      "type": "function"
    },
    {
      "inputs": [],
      "name": "config",
      "outputs": [
        {
          "internalType": "contract GoldfinchConfig",
          "name": "",
          "type": "address"
        }
      ],
      "stateMutability": "view",
      "type": "function"
    },
    {
      "inputs": [],
      "name": "currentEarnRatePerToken",
      "outputs": [
        {
          "internalType": "uint256",
          "name": "",
          "type": "uint256"
        }
      ],
      "stateMutability": "view",
      "type": "function"
    },
    {
      "inputs": [
        {
          "internalType": "uint256",
          "name": "usdcAmount",
          "type": "uint256"
        }
      ],
      "name": "depositAndStake",
      "outputs": [],
      "stateMutability": "nonpayable",
      "type": "function"
    },
    {
      "inputs": [
        {
          "internalType": "uint256",
          "name": "fiduAmount",
          "type": "uint256"
        },
        {
          "internalType": "uint256",
          "name": "usdcAmount",
          "type": "uint256"
        }
      ],
      "name": "depositToCurve",
      "outputs": [],
      "stateMutability": "nonpayable",
      "type": "function"
    },
    {
      "inputs": [
        {
          "internalType": "uint256",
          "name": "fiduAmount",
          "type": "uint256"
        },
        {
          "internalType": "uint256",
          "name": "usdcAmount",
          "type": "uint256"
        }
      ],
      "name": "depositToCurveAndStake",
      "outputs": [],
      "stateMutability": "nonpayable",
      "type": "function"
    },
    {
      "inputs": [
        {
          "internalType": "address",
          "name": "nftRecipient",
          "type": "address"
        },
        {
          "internalType": "uint256",
          "name": "fiduAmount",
          "type": "uint256"
        },
        {
          "internalType": "uint256",
          "name": "usdcAmount",
          "type": "uint256"
        }
      ],
      "name": "depositToCurveAndStakeFrom",
      "outputs": [],
      "stateMutability": "nonpayable",
      "type": "function"
    },
    {
      "inputs": [
        {
          "internalType": "uint256",
          "name": "usdcAmount",
          "type": "uint256"
        },
        {
          "internalType": "uint256",
          "name": "deadline",
          "type": "uint256"
        },
        {
          "internalType": "uint8",
          "name": "v",
          "type": "uint8"
        },
        {
          "internalType": "bytes32",
          "name": "r",
          "type": "bytes32"
        },
        {
          "internalType": "bytes32",
          "name": "s",
          "type": "bytes32"
        }
      ],
      "name": "depositWithPermitAndStake",
      "outputs": [],
      "stateMutability": "nonpayable",
      "type": "function"
    },
    {
      "inputs": [
        {
          "internalType": "uint256",
          "name": "tokenId",
          "type": "uint256"
        }
      ],
      "name": "earnedSinceLastCheckpoint",
      "outputs": [
        {
          "internalType": "uint256",
          "name": "",
          "type": "uint256"
        }
      ],
      "stateMutability": "view",
      "type": "function"
    },
    {
      "inputs": [
        {
          "internalType": "uint256",
          "name": "tokenId",
          "type": "uint256"
        }
      ],
      "name": "getApproved",
      "outputs": [
        {
          "internalType": "address",
          "name": "",
          "type": "address"
        }
      ],
      "stateMutability": "view",
      "type": "function"
    },
    {
      "inputs": [
        {
          "internalType": "enum StakingRewards.StakedPositionType",
          "name": "positionType",
          "type": "uint8"
        }
      ],
      "name": "getBaseTokenExchangeRate",
      "outputs": [
        {
          "internalType": "uint256",
          "name": "",
          "type": "uint256"
        }
      ],
      "stateMutability": "view",
      "type": "function"
    },
    {
      "inputs": [
        {
          "internalType": "enum StakingRewards.StakedPositionType",
          "name": "positionType",
          "type": "uint8"
        }
      ],
      "name": "getEffectiveMultiplierForPositionType",
      "outputs": [
        {
          "internalType": "uint256",
          "name": "",
          "type": "uint256"
        }
      ],
      "stateMutability": "view",
      "type": "function"
    },
    {
      "inputs": [
        {
          "internalType": "uint256",
          "name": "tokenId",
          "type": "uint256"
        }
      ],
      "name": "getReward",
      "outputs": [],
      "stateMutability": "nonpayable",
      "type": "function"
    },
    {
      "inputs": [
        {
          "internalType": "bytes32",
          "name": "role",
          "type": "bytes32"
        }
      ],
      "name": "getRoleAdmin",
      "outputs": [
        {
          "internalType": "bytes32",
          "name": "",
          "type": "bytes32"
        }
      ],
      "stateMutability": "view",
      "type": "function"
    },
    {
      "inputs": [
        {
          "internalType": "bytes32",
          "name": "role",
          "type": "bytes32"
        },
        {
          "internalType": "uint256",
          "name": "index",
          "type": "uint256"
        }
      ],
      "name": "getRoleMember",
      "outputs": [
        {
          "internalType": "address",
          "name": "",
          "type": "address"
        }
      ],
      "stateMutability": "view",
      "type": "function"
    },
    {
      "inputs": [
        {
          "internalType": "bytes32",
          "name": "role",
          "type": "bytes32"
        }
      ],
      "name": "getRoleMemberCount",
      "outputs": [
        {
          "internalType": "uint256",
          "name": "",
          "type": "uint256"
        }
      ],
      "stateMutability": "view",
      "type": "function"
    },
    {
      "inputs": [
        {
          "internalType": "bytes32",
          "name": "role",
          "type": "bytes32"
        },
        {
          "internalType": "address",
          "name": "account",
          "type": "address"
        }
      ],
      "name": "grantRole",
      "outputs": [],
      "stateMutability": "nonpayable",
      "type": "function"
    },
    {
      "inputs": [
        {
          "internalType": "bytes32",
          "name": "role",
          "type": "bytes32"
        },
        {
          "internalType": "address",
          "name": "account",
          "type": "address"
        }
      ],
      "name": "hasRole",
      "outputs": [
        {
          "internalType": "bool",
          "name": "",
          "type": "bool"
        }
      ],
      "stateMutability": "view",
      "type": "function"
    },
    {
      "inputs": [],
      "name": "initZapperRole",
      "outputs": [],
      "stateMutability": "nonpayable",
      "type": "function"
    },
    {
      "inputs": [
        {
          "internalType": "address",
          "name": "owner",
          "type": "address"
        },
        {
          "internalType": "address",
          "name": "operator",
          "type": "address"
        }
      ],
      "name": "isApprovedForAll",
      "outputs": [
        {
          "internalType": "bool",
          "name": "",
          "type": "bool"
        }
      ],
      "stateMutability": "view",
      "type": "function"
    },
    {
      "inputs": [
        {
          "internalType": "uint256",
          "name": "tokenId",
          "type": "uint256"
        }
      ],
      "name": "kick",
      "outputs": [],
      "stateMutability": "nonpayable",
      "type": "function"
    },
    {
      "inputs": [],
      "name": "lastUpdateTime",
      "outputs": [
        {
          "internalType": "uint256",
          "name": "",
          "type": "uint256"
        }
      ],
      "stateMutability": "view",
      "type": "function"
    },
    {
      "inputs": [
        {
          "internalType": "uint256",
          "name": "rewards",
          "type": "uint256"
        }
      ],
      "name": "loadRewards",
      "outputs": [],
      "stateMutability": "nonpayable",
      "type": "function"
    },
    {
      "inputs": [],
      "name": "maxRate",
      "outputs": [
        {
          "internalType": "uint256",
          "name": "",
          "type": "uint256"
        }
      ],
      "stateMutability": "view",
      "type": "function"
    },
    {
      "inputs": [],
      "name": "maxRateAtPercent",
      "outputs": [
        {
          "internalType": "uint256",
          "name": "",
          "type": "uint256"
        }
      ],
      "stateMutability": "view",
      "type": "function"
    },
    {
      "inputs": [],
      "name": "minRate",
      "outputs": [
        {
          "internalType": "uint256",
          "name": "",
          "type": "uint256"
        }
      ],
      "stateMutability": "view",
      "type": "function"
    },
    {
      "inputs": [],
      "name": "minRateAtPercent",
      "outputs": [
        {
          "internalType": "uint256",
          "name": "",
          "type": "uint256"
        }
      ],
      "stateMutability": "view",
      "type": "function"
    },
    {
      "inputs": [],
      "name": "name",
      "outputs": [
        {
          "internalType": "string",
          "name": "",
          "type": "string"
        }
      ],
      "stateMutability": "view",
      "type": "function"
    },
    {
      "inputs": [
        {
          "internalType": "uint256",
          "name": "tokenId",
          "type": "uint256"
        }
      ],
      "name": "optimisticClaimable",
      "outputs": [
        {
          "internalType": "uint256",
          "name": "",
          "type": "uint256"
        }
      ],
      "stateMutability": "view",
      "type": "function"
    },
    {
      "inputs": [
        {
          "internalType": "uint256",
          "name": "tokenId",
          "type": "uint256"
        }
      ],
      "name": "ownerOf",
      "outputs": [
        {
          "internalType": "address",
          "name": "",
          "type": "address"
        }
      ],
      "stateMutability": "view",
      "type": "function"
    },
    {
      "inputs": [],
      "name": "pause",
      "outputs": [],
      "stateMutability": "nonpayable",
      "type": "function"
    },
    {
      "inputs": [],
      "name": "paused",
      "outputs": [
        {
          "internalType": "bool",
          "name": "",
          "type": "bool"
        }
      ],
      "stateMutability": "view",
      "type": "function"
    },
    {
      "inputs": [
        {
          "internalType": "uint256",
          "name": "tokenId",
          "type": "uint256"
        }
      ],
      "name": "positionCurrentEarnRate",
      "outputs": [
        {
          "internalType": "uint256",
          "name": "",
          "type": "uint256"
        }
      ],
      "stateMutability": "view",
      "type": "function"
    },
    {
      "inputs": [
        {
          "internalType": "uint256",
          "name": "",
          "type": "uint256"
        }
      ],
      "name": "positionToAccumulatedRewardsPerToken",
      "outputs": [
        {
          "internalType": "uint256",
          "name": "",
          "type": "uint256"
        }
      ],
      "stateMutability": "view",
      "type": "function"
    },
    {
      "inputs": [
        {
          "internalType": "uint256",
          "name": "",
          "type": "uint256"
        }
      ],
      "name": "positions",
      "outputs": [
        {
          "internalType": "uint256",
          "name": "amount",
          "type": "uint256"
        },
        {
          "components": [
            {
              "internalType": "uint256",
              "name": "totalUnvested",
              "type": "uint256"
            },
            {
              "internalType": "uint256",
              "name": "totalVested",
              "type": "uint256"
            },
            {
              "internalType": "uint256",
              "name": "totalPreviouslyVested",
              "type": "uint256"
            },
            {
              "internalType": "uint256",
              "name": "totalClaimed",
              "type": "uint256"
            },
            {
              "internalType": "uint256",
              "name": "startTime",
              "type": "uint256"
            },
            {
              "internalType": "uint256",
              "name": "endTime",
              "type": "uint256"
            }
          ],
          "internalType": "struct StakingRewardsVesting.Rewards",
          "name": "rewards",
          "type": "tuple"
        },
        {
          "internalType": "uint256",
          "name": "leverageMultiplier",
          "type": "uint256"
        },
        {
          "internalType": "uint256",
          "name": "lockedUntil",
          "type": "uint256"
        },
        {
          "internalType": "enum StakingRewards.StakedPositionType",
          "name": "positionType",
          "type": "uint8"
        },
        {
          "internalType": "uint256",
          "name": "unsafeEffectiveMultiplier",
          "type": "uint256"
        },
        {
          "internalType": "uint256",
          "name": "unsafeBaseTokenExchangeRate",
          "type": "uint256"
        }
      ],
      "stateMutability": "view",
      "type": "function"
    },
    {
      "inputs": [
        {
          "internalType": "bytes32",
          "name": "role",
          "type": "bytes32"
        },
        {
          "internalType": "address",
          "name": "account",
          "type": "address"
        }
      ],
      "name": "renounceRole",
      "outputs": [],
      "stateMutability": "nonpayable",
      "type": "function"
    },
    {
      "inputs": [
        {
          "internalType": "bytes32",
          "name": "role",
          "type": "bytes32"
        },
        {
          "internalType": "address",
          "name": "account",
          "type": "address"
        }
      ],
      "name": "revokeRole",
      "outputs": [],
      "stateMutability": "nonpayable",
      "type": "function"
    },
    {
      "inputs": [],
      "name": "rewardPerToken",
      "outputs": [
        {
          "internalType": "uint256",
          "name": "",
          "type": "uint256"
        }
      ],
      "stateMutability": "view",
      "type": "function"
    },
    {
      "inputs": [],
      "name": "rewardsAvailable",
      "outputs": [
        {
          "internalType": "uint256",
          "name": "",
          "type": "uint256"
        }
      ],
      "stateMutability": "view",
      "type": "function"
    },
    {
      "inputs": [
        {
          "internalType": "address",
          "name": "from",
          "type": "address"
        },
        {
          "internalType": "address",
          "name": "to",
          "type": "address"
        },
        {
          "internalType": "uint256",
          "name": "tokenId",
          "type": "uint256"
        }
      ],
      "name": "safeTransferFrom",
      "outputs": [],
      "stateMutability": "nonpayable",
      "type": "function"
    },
    {
      "inputs": [
        {
          "internalType": "address",
          "name": "from",
          "type": "address"
        },
        {
          "internalType": "address",
          "name": "to",
          "type": "address"
        },
        {
          "internalType": "uint256",
          "name": "tokenId",
          "type": "uint256"
        },
        {
          "internalType": "bytes",
          "name": "_data",
          "type": "bytes"
        }
      ],
      "name": "safeTransferFrom",
      "outputs": [],
      "stateMutability": "nonpayable",
      "type": "function"
    },
    {
      "inputs": [
        {
          "internalType": "address",
          "name": "operator",
          "type": "address"
        },
        {
          "internalType": "bool",
          "name": "approved",
          "type": "bool"
        }
      ],
      "name": "setApprovalForAll",
      "outputs": [],
      "stateMutability": "nonpayable",
      "type": "function"
    },
    {
      "inputs": [
        {
          "internalType": "uint256",
          "name": "multiplier",
          "type": "uint256"
        },
        {
          "internalType": "enum StakingRewards.StakedPositionType",
          "name": "positionType",
          "type": "uint8"
        }
      ],
      "name": "setEffectiveMultiplier",
      "outputs": [],
      "stateMutability": "nonpayable",
      "type": "function"
    },
    {
      "inputs": [
        {
          "internalType": "uint256",
          "name": "_targetCapacity",
          "type": "uint256"
        },
        {
          "internalType": "uint256",
          "name": "_minRate",
          "type": "uint256"
        },
        {
          "internalType": "uint256",
          "name": "_maxRate",
          "type": "uint256"
        },
        {
          "internalType": "uint256",
          "name": "_minRateAtPercent",
          "type": "uint256"
        },
        {
          "internalType": "uint256",
          "name": "_maxRateAtPercent",
          "type": "uint256"
        }
      ],
      "name": "setRewardsParameters",
      "outputs": [],
      "stateMutability": "nonpayable",
      "type": "function"
    },
    {
      "inputs": [
        {
          "internalType": "uint256",
          "name": "_vestingLength",
          "type": "uint256"
        }
      ],
      "name": "setVestingSchedule",
      "outputs": [],
      "stateMutability": "nonpayable",
      "type": "function"
    },
    {
      "inputs": [
        {
          "internalType": "uint256",
          "name": "amount",
          "type": "uint256"
        },
        {
          "internalType": "enum StakingRewards.StakedPositionType",
          "name": "positionType",
          "type": "uint8"
        }
      ],
      "name": "stake",
      "outputs": [],
      "stateMutability": "nonpayable",
      "type": "function"
    },
    {
      "inputs": [
        {
          "internalType": "uint256",
          "name": "tokenId",
          "type": "uint256"
        }
      ],
      "name": "stakedBalanceOf",
      "outputs": [
        {
          "internalType": "uint256",
          "name": "",
          "type": "uint256"
        }
      ],
      "stateMutability": "view",
      "type": "function"
    },
    {
      "inputs": [
        {
          "internalType": "bytes4",
          "name": "interfaceId",
          "type": "bytes4"
        }
      ],
      "name": "supportsInterface",
      "outputs": [
        {
          "internalType": "bool",
          "name": "",
          "type": "bool"
        }
      ],
      "stateMutability": "view",
      "type": "function"
    },
    {
      "inputs": [],
      "name": "symbol",
      "outputs": [
        {
          "internalType": "string",
          "name": "",
          "type": "string"
        }
      ],
      "stateMutability": "view",
      "type": "function"
    },
    {
      "inputs": [],
      "name": "targetCapacity",
      "outputs": [
        {
          "internalType": "uint256",
          "name": "",
          "type": "uint256"
        }
      ],
      "stateMutability": "view",
      "type": "function"
    },
    {
      "inputs": [
        {
          "internalType": "uint256",
          "name": "index",
          "type": "uint256"
        }
      ],
      "name": "tokenByIndex",
      "outputs": [
        {
          "internalType": "uint256",
          "name": "",
          "type": "uint256"
        }
      ],
      "stateMutability": "view",
      "type": "function"
    },
    {
      "inputs": [
        {
          "internalType": "address",
          "name": "owner",
          "type": "address"
        },
        {
          "internalType": "uint256",
          "name": "index",
          "type": "uint256"
        }
      ],
      "name": "tokenOfOwnerByIndex",
      "outputs": [
        {
          "internalType": "uint256",
          "name": "",
          "type": "uint256"
        }
      ],
      "stateMutability": "view",
      "type": "function"
    },
    {
      "inputs": [
        {
          "internalType": "uint256",
          "name": "tokenId",
          "type": "uint256"
        }
      ],
      "name": "tokenURI",
      "outputs": [
        {
          "internalType": "string",
          "name": "",
          "type": "string"
        }
      ],
      "stateMutability": "view",
      "type": "function"
    },
    {
      "inputs": [
        {
          "internalType": "address",
          "name": "owner",
          "type": "address"
        }
      ],
      "name": "totalOptimisticClaimable",
      "outputs": [
        {
          "internalType": "uint256",
          "name": "",
          "type": "uint256"
        }
      ],
      "stateMutability": "view",
      "type": "function"
    },
    {
      "inputs": [],
      "name": "totalStakedSupply",
      "outputs": [
        {
          "internalType": "uint256",
          "name": "",
          "type": "uint256"
        }
      ],
      "stateMutability": "view",
      "type": "function"
    },
    {
      "inputs": [],
      "name": "totalSupply",
      "outputs": [
        {
          "internalType": "uint256",
          "name": "",
          "type": "uint256"
        }
      ],
      "stateMutability": "view",
      "type": "function"
    },
    {
      "inputs": [
        {
          "internalType": "uint256",
          "name": "start",
          "type": "uint256"
        },
        {
          "internalType": "uint256",
          "name": "end",
          "type": "uint256"
        },
        {
          "internalType": "uint256",
          "name": "time",
          "type": "uint256"
        },
        {
          "internalType": "uint256",
          "name": "grantedAmount",
          "type": "uint256"
        }
      ],
      "name": "totalVestedAt",
      "outputs": [
        {
          "internalType": "uint256",
          "name": "rewards",
          "type": "uint256"
        }
      ],
      "stateMutability": "pure",
      "type": "function"
    },
    {
      "inputs": [
        {
          "internalType": "address",
          "name": "from",
          "type": "address"
        },
        {
          "internalType": "address",
          "name": "to",
          "type": "address"
        },
        {
          "internalType": "uint256",
          "name": "tokenId",
          "type": "uint256"
        }
      ],
      "name": "transferFrom",
      "outputs": [],
      "stateMutability": "nonpayable",
      "type": "function"
    },
    {
      "inputs": [],
      "name": "unpause",
      "outputs": [],
      "stateMutability": "nonpayable",
      "type": "function"
    },
    {
      "inputs": [
        {
          "internalType": "uint256",
          "name": "tokenId",
          "type": "uint256"
        },
        {
          "internalType": "uint256",
          "name": "amount",
          "type": "uint256"
        }
      ],
      "name": "unstake",
      "outputs": [],
      "stateMutability": "nonpayable",
      "type": "function"
    },
    {
      "inputs": [
        {
          "internalType": "uint256",
          "name": "tokenId",
          "type": "uint256"
        },
        {
          "internalType": "uint256",
          "name": "usdcAmount",
          "type": "uint256"
        }
      ],
      "name": "unstakeAndWithdraw",
      "outputs": [],
      "stateMutability": "nonpayable",
      "type": "function"
    },
    {
      "inputs": [
        {
          "internalType": "uint256",
          "name": "tokenId",
          "type": "uint256"
        },
        {
          "internalType": "uint256",
          "name": "fiduAmount",
          "type": "uint256"
        }
      ],
      "name": "unstakeAndWithdrawInFidu",
      "outputs": [],
      "stateMutability": "nonpayable",
      "type": "function"
    },
    {
      "inputs": [
        {
          "internalType": "uint256[]",
          "name": "tokenIds",
          "type": "uint256[]"
        },
        {
          "internalType": "uint256[]",
          "name": "usdcAmounts",
          "type": "uint256[]"
        }
      ],
      "name": "unstakeAndWithdrawMultiple",
      "outputs": [],
      "stateMutability": "nonpayable",
      "type": "function"
    },
    {
      "inputs": [
        {
          "internalType": "uint256[]",
          "name": "tokenIds",
          "type": "uint256[]"
        },
        {
          "internalType": "uint256[]",
          "name": "fiduAmounts",
          "type": "uint256[]"
        }
      ],
      "name": "unstakeAndWithdrawMultipleInFidu",
      "outputs": [],
      "stateMutability": "nonpayable",
      "type": "function"
    },
    {
      "inputs": [
        {
          "internalType": "uint256[]",
          "name": "tokenIds",
          "type": "uint256[]"
        },
        {
          "internalType": "uint256[]",
          "name": "amounts",
          "type": "uint256[]"
        }
      ],
      "name": "unstakeMultiple",
      "outputs": [],
      "stateMutability": "nonpayable",
      "type": "function"
    },
    {
      "inputs": [
        {
          "internalType": "uint256",
          "name": "tokenId",
          "type": "uint256"
        }
      ],
      "name": "updatePositionEffectiveMultiplier",
      "outputs": [],
      "stateMutability": "nonpayable",
      "type": "function"
    },
    {
      "inputs": [],
      "name": "vestingLength",
      "outputs": [
        {
          "internalType": "uint256",
          "name": "",
          "type": "uint256"
        }
      ],
      "stateMutability": "view",
      "type": "function"
    }
  ],
  "transactionHash": "0x244a4ffdc0c49d09c3b50fba9001d898efc8b6fd0d71313fab0db28f7a68656b",
  "args": [],
  "solcInputHash": "a67c4f293a964d2cac7bbf8c9f65d46c",
  "bytecode": "0x608060405234801561001057600080fd5b50615fe580620000216000396000f3fe608060405234801561001057600080fd5b50600436106104655760003560e01c806379502c5511610257578063b3a99b4c11610146578063d047e42d116100c3578063e7a7250a11610087578063e7a7250a14610932578063e985e9c51461093a578063ece1d6e51461094d578063f62849be14610955578063fb285ed01461096857610465565b8063d047e42d146108f4578063d539139314610907578063d547741f1461090f578063e58378bb14610922578063e63ab1e91461092a57610465565b8063c87b56dd1161010a578063c87b56dd146108ab578063c8f33c91146108be578063ca15c873146108c6578063cd3daf9d146108d9578063ce0cf1a5146108e157610465565b8063b3a99b4c1461086d578063b6f8fd4014610875578063b88d4fde14610888578063b88dffe01461089b578063bcdc3cfc146108a357610465565b806399fbab88116101d4578063a22cb46511610198578063a22cb46514610819578063a52ab1f11461082c578063a9f4939d1461083f578063aa04295f14610852578063b217f9d41461086557610465565b806399fbab88146107b25780639d29e48d146107d85780639e2c8a5b146107eb5780639f60421f146107fe578063a217fddf1461081157610465565b8063906ae4c31161021b578063906ae4c31461076957806391d148541461077c57806395d89b411461078f5780639835fc7e1461079757806398bcede9146107aa57610465565b806379502c55146107205780638456cb591461072857806387647d4b146107305780638ea26983146107435780639010d07c1461075657610465565b806330987dd81161037357806359fe8539116102f057806369d00e79116102b457806369d00e79146106cc5780636c0360eb146106df5780636c3f3be6146106e757806370a08231146106fa57806375ff490b1461070d57610465565b806359fe8539146106835780635c975abb146106965780636352211e1461069e57806364fa33f0146106b15780636702abe2146106b957610465565b806342842e0e1161033757806342842e0e1461063a57806344f414251461064d5780634a6b629d146106605780634d4e3e0c146106685780634f6ccce71461067057610465565b806330987dd8146105f1578063333ee7921461060457806336568abe14610617578063389621861461062a5780633f4ba83a1461063257610465565b806313ad357411610401578063248a9ca3116103c5578063248a9ca314610592578063252e61c3146105a557806327a3492e146105b85780632f2ff15d146105cb5780632f745c59146105de57610465565b806313ad35741461053e57806318160ddd146105515780631c4b774b1461055957806323234a9c1461056c57806323b872dd1461057f57610465565b806301ffc9a71461046a57806306fdde0314610493578063081812fc146104a8578063095ea7b3146104c85780630cb60443146104dd57806310087fb1146104f2578063106809191461050557806310aec8f914610518578063135e80591461052b575b600080fd5b61047d610478366004614ef0565b610970565b60405161048a91906152dd565b60405180910390f35b61049b610993565b60405161048a9190615308565b6104bb6104b6366004614e93565b610a2a565b60405161048a9190615182565b6104db6104d6366004614daf565b610a76565b005b6104e5610b0e565b60405161048a91906152e8565b6104db610500366004614f5f565b610b15565b6104e5610513366004614e93565b610b91565b6104db610526366004614ecf565b610ba4565b6104e5610539366004614f86565b610c5e565b6104e561054c366004614e93565b610c77565b6104e5610c9a565b6104db610567366004614e93565b610cab565b6104e561057a366004614f28565b610dd8565b6104db61058d366004614c68565b610f94565b6104e56105a0366004614e93565b610fcc565b6104db6105b3366004614ff1565b610fe1565b6104db6105c6366004614ecf565b611070565b6104db6105d9366004614eab565b611129565b6104e56105ec366004614daf565b611171565b6104db6105ff366004614ecf565b61119a565b6104db610612366004614e0e565b6111a5565b6104db610625366004614eab565b6112c7565b6104e5611309565b6104db611310565b6104db610648366004614c68565b611350565b6104db61065b366004614e0e565b61136b565b6104e56114f0565b6104e56114f7565b6104e561067e366004614e93565b611509565b6104db610691366004614e93565b61151f565b61047d6116ec565b6104bb6106ac366004614e93565b6116f5565b6104e561171d565b6104db6106c7366004614fb7565b611724565b6104db6106da366004614dda565b6117e7565b61049b6118a2565b6104e56106f5366004614e93565b611903565b6104e5610708366004614bf8565b61193a565b6104e561071b366004614f28565b611983565b6104bb6119e9565b6104db6119f9565b6104e561073e366004614e93565b611a37565b6104e5610751366004614bf8565b611a82565b6104bb610764366004614ecf565b611aca565b6104db610777366004614f5f565b611ae2565b61047d61078a366004614eab565b611bae565b61049b611bc6565b6104e56107a5366004614e93565b611c27565b6104e5611c42565b6107c56107c0366004614e93565b611c49565b60405161048a9796959493929190615dea565b6104db6107e6366004614e93565b611ccb565b6104db6107f9366004614ecf565b611d3e565b6104db61080c366004614e0e565b611dca565b6104e5611f86565b6104db610827366004614d70565b611f8b565b6104db61083a366004614e93565b612059565b6104db61084d366004614ecf565b612186565b6104e5610860366004614e93565b6122e4565b6104e56122f7565b6104e56122fe565b6104db610883366004614d9d565b612305565b6104db610896366004614ca8565b6124ad565b6104e56124ec565b6104e5612534565b61049b6108b9366004614e93565b61253b565b6104e5612685565b6104e56108d4366004614e93565b61268c565b6104e56126a3565b6104db6108ef366004614e93565b6126bb565b6104db610902366004614ecf565b612728565b6104e56127c3565b6104db61091d366004614eab565b6127e7565b6104e5612821565b6104e5612833565b6104e5612845565b61047d610948366004614c30565b61284c565b6104e561287a565b6104db610963366004614e93565b612881565b6104db61290c565b6001600160e01b0319811660009081526097602052604090205460ff165b919050565b60ce8054604080516020601f6002600019610100600188161502019095169490940493840181900481028201810190925282815260609390929091830182828015610a1f5780601f106109f457610100808354040283529160200191610a1f565b820191906000526020600020905b815481529060010190602001808311610a0257829003601f168201915b505050505090505b90565b6000610a3582612956565b610a5a5760405162461bcd60e51b8152600401610a519061595d565b60405180910390fd5b50600090815260cc60205260409020546001600160a01b031690565b6000610a81826116f5565b9050806001600160a01b0316836001600160a01b03161415610ab55760405162461bcd60e51b8152600401610a5190615ac8565b806001600160a01b0316610ac7612963565b6001600160a01b03161480610ae35750610ae381610948612963565b610aff5760405162461bcd60e51b8152600401610a51906157ca565b610b098383612967565b505050565b6101c95481565b6101915460ff16610b385760405162461bcd60e51b8152600401610a5190615bfc565b610191805460ff1916905560fb5460ff1615610b665760405162461bcd60e51b8152600401610a51906157a0565b6000610b71816129d5565b610b7d33338585612a81565b5050610191805460ff191660011790555050565b6101c76020526000908152604090205481565b6101915460ff16610bc75760405162461bcd60e51b8152600401610a5190615bfc565b610191805460ff1916905560fb5460ff1615610bf55760405162461bcd60e51b8152600401610a51906157a0565b600080610c028484612caa565b9150915083336001600160a01b03167fc3c6b9e734c21d6e8632c6a862b6de6458faa89079cbc34cc0560ed0ab78a5c68484604051610c42929190615e61565b60405180910390a35050610191805460ff191660011790555050565b6000610c6c85858585612eeb565b90505b949350505050565b6000610c94610c8583611c27565b610c8e84611a37565b90612f25565b92915050565b6000610ca660ca612f4a565b905090565b6101915460ff16610cce5760405162461bcd60e51b8152600401610a5190615bfc565b610191805460ff1916905560fb5460ff1615610cfc5760405162461bcd60e51b8152600401610a51906157a0565b80610d06816129d5565b33610d10836116f5565b6001600160a01b031614610d365760405162461bcd60e51b8152600401610a5190615493565b6000610d4183611c27565b90508015610dc55760008381526101d160205260409020610d659060010182612f55565b610d823382610d72612f70565b6001600160a01b03169190612f89565b82336001600160a01b03167fd6f2c8500df5b44f11e9e48b91ff9f1b9d81bc496d55570c2b1b75bf65243f5183604051610dbc91906152e8565b60405180910390a35b5050610191805460ff1916600117905550565b60006001826001811115610de857fe5b1415610f85576101c354600090610e07906001600160a01b0316612fdf565b6001600160a01b031663bb7b8b806040518163ffffffff1660e01b815260040160206040518083038186803b158015610e3f57600080fd5b505afa158015610e53573d6000803e3d6000fd5b505050506040513d601f19601f82011682018060405250810190610e779190614f47565b9050610e8c670de0b6b3a76400006002612fea565b8111610eaa5760405162461bcd60e51b8152600401610a51906158ae565b610ebd670de0b6b3a7640000600261302c565b8110610edb5760405162461bcd60e51b8152600401610a519061561e565b6101c354610f7d90610ef5906001600160a01b0316613066565b6001600160a01b031663872697296040518163ffffffff1660e01b815260040160206040518083038186803b158015610f2d57600080fd5b505afa158015610f41573d6000803e3d6000fd5b505050506040513d601f19601f82011682018060405250810190610f659190614f47565b610f7783670de0b6b3a764000061302c565b90612fea565b91505061098e565b50670de0b6b3a7640000919050565b610fa5610f9f612963565b82613071565b610fc15760405162461bcd60e51b8152600401610a5190615b25565b610b098383836130ee565b60009081526065602052604090206002015490565b6101c354610ff7906001600160a01b03166131fc565b6001600160a01b031663d505accf333088888888886040518863ffffffff1660e01b815260040161102e97969594939291906151d3565b600060405180830381600087803b15801561104857600080fd5b505af115801561105c573d6000803e3d6000fd5b505050506110698561151f565b5050505050565b6101915460ff166110935760405162461bcd60e51b8152600401610a5190615bfc565b610191805460ff1916905560fb5460ff16156110c15760405162461bcd60e51b8152600401610a51906157a0565b60006110cf3333858561327c565b9050336001600160a01b03167f2468986f19ca698c7a17082adcaf9889ae41bbd887038b6c7b0598015dfae75384848460405161110e93929190615e6f565b60405180910390a25050610191805460ff1916600117905550565b6000828152606560205260409020600201546111479061078a612963565b6111635760405162461bcd60e51b8152600401610a51906153c4565b61116d828261349a565b5050565b6001600160a01b038216600090815260c9602052604081206111939083613503565b9392505050565b61116d3383836117e7565b6101915460ff166111c85760405162461bcd60e51b8152600401610a5190615bfc565b610191805460ff1916905560fb5460ff16156111f65760405162461bcd60e51b8152600401610a51906157a0565b8281146112155760405162461bcd60e51b8152600401610a5190615aab565b6000805b8281101561126857600061125187878481811061123257fe5b9050602002013586868581811061124557fe5b9050602002013561350f565b905061125d8382612f25565b925050600101611219565b50336001600160a01b03167f50748d84e7c6a6cc3641eb166ac6557b87d0e389ccd714d544d961b533a9c94682878787876040516112aa959493929190615d17565b60405180910390a25050610191805460ff19166001179055505050565b6112cf612963565b6001600160a01b0316816001600160a01b0316146112ff5760405162461bcd60e51b8152600401610a5190615cc8565b61116d82826135fd565b6101c55481565b61132a600080516020615f9083398151915261078a612963565b6113465760405162461bcd60e51b8152600401610a5190615c33565b61134e613666565b565b610b09838383604051806020016040528060008152506124ad565b6101915460ff1661138e5760405162461bcd60e51b8152600401610a5190615bfc565b610191805460ff1916905560fb5460ff16156113bc5760405162461bcd60e51b8152600401610a51906157a0565b8281146113db5760405162461bcd60e51b8152600401610a5190615aab565b600060608267ffffffffffffffff811180156113f657600080fd5b50604051908082528060200260200182016040528015611420578160200160208202803683370190505b50905060005b838110156114925760008061145f89898581811061144057fe5b9050602002013588888681811061145357fe5b90506020020135612caa565b909250905061146e8583612f25565b94508084848151811061147d57fe5b60209081029190910101525050600101611426565b50336001600160a01b03167f50748d84e7c6a6cc3641eb166ac6557b87d0e389ccd714d544d961b533a9c946838888856040516114d29493929190615d50565b60405180910390a25050610191805460ff1916600117905550505050565b6101c85481565b600080516020615f4783398151915281565b60008061151760ca846136d2565b509392505050565b6101915460ff166115425760405162461bcd60e51b8152600401610a5190615bfc565b610191805460ff1916905560fb5460ff16156115705760405162461bcd60e51b8152600401610a51906157a0565b600061157b816129d5565b6115836136f0565b61159f5760405162461bcd60e51b8152600401610a51906153a8565b6101c3546000906115b8906001600160a01b0316613784565b90506115cf6001600160a01b03821633308661378f565b6101c3546000906115e8906001600160a01b0316613066565b90506115fe6001600160a01b03831682866137b0565b60405163b6b55f2560e01b81526000906001600160a01b0383169063b6b55f259061162d9088906004016152e8565b602060405180830381600087803b15801561164757600080fd5b505af115801561165b573d6000803e3d6000fd5b505050506040513d601f19601f8201168201806040525081019061167f9190614f47565b905060006116903033846000612a81565b905080336001600160a01b03167fce343194de25678e58b53205d289681a131cc2b917e7c36c8dc0d1693fd8f7ef88856040516116ce929190615e61565b60405180910390a35050610191805460ff1916600117905550505050565b60fb5460ff1690565b6000610c9482604051806060016040528060298152602001615f676029913960ca9190613855565b6101cc5481565b61172c613862565b6117485760405162461bcd60e51b8152600401610a5190615493565b6000611753816129d5565b8484101580156117635750828211155b61177f5760405162461bcd60e51b8152600401610a5190615bc0565b6101c88690556101c98590556101ca8490556101cc8390556101cb82905560405133907f8fc8630a9026e4d101945e5580ff250722a3dbc1222dac05b63a0e4a97688a65906117d79089908990899089908990615e85565b60405180910390a2505050505050565b6101915460ff1661180a5760405162461bcd60e51b8152600401610a5190615bfc565b610191805460ff1916905560fb5460ff16156118385760405162461bcd60e51b8152600401610a51906157a0565b6000611843816129d5565b60006118513330868661327c565b905060006118623087846001612a81565b905080336001600160a01b03167f70e3723ca1d6f2fd53a53844eb91671bc39574743c075044ac7ff5c2e5f489638787866040516116ce93929190615e6f565b60d18054604080516020601f6002600019610100600188161502019095169490940493840181900481028201810190925282815260609390929091830182828015610a1f5780601f106109f457610100808354040283529160200191610a1f565b6000610c9461191061387e565b60008481526101d160205260409020610f779061192c90613903565b6119346124ec565b9061302c565b60006001600160a01b0382166119625760405162461bcd60e51b8152600401610a5190615822565b6001600160a01b038216600090815260c960205260409020610c9490612f4a565b6000806101d2600084600181111561199757fe5b60018111156119a257fe5b8152602001908152602001600020541115610f85576101d260008360018111156119c857fe5b60018111156119d357fe5b815260200190815260200160002054905061098e565b6101c3546001600160a01b031681565b611a13600080516020615f9083398151915261078a612963565b611a2f5760405162461bcd60e51b8152600401610a51906155c1565b61134e613916565b6000610c94611a4461387e565b60008481526101c76020526040902054610f7790611a6a90611a646126a3565b9061396f565b60008681526101d16020526040902061193490613903565b600080805b611a908461193a565b811015611ac3576000611aa38583611171565b9050611ab8611ab182610c77565b8490612f25565b925050600101611a87565b5092915050565b60008281526065602052604081206111939083613503565b611aea613862565b611b065760405162461bcd60e51b8152600401610a5190615493565b6000611b11816129d5565b60008311611b315760405162461bcd60e51b8152600401610a519061551d565b826101d26000846001811115611b4357fe5b6001811115611b4e57fe5b8152602081019190915260400160002055611b67612963565b6001600160a01b03167f9db0606b275ca1f1e99d2544ed31141049687b5f4080f2c87812881580a1b7ee8385604051611ba19291906152f1565b60405180910390a2505050565b600082815260656020526040812061119390836139b1565b60cf8054604080516020601f6002600019610100600188161502019095169490940493840181900481028201810190925282815260609390929091830182828015610a1f5780601f106109f457610100808354040283529160200191610a1f565b60008181526101d160205260408120610c94906001016139c6565b61015f5481565b6101d1602090815260009182526040918290208054835160c081018552600183015481526002830154938101939093526003820154938301939093526004810154606083015260058101546080830152600681015460a0830152600781015460088201546009830154600a840154600b909401549293919260ff909116919087565b611cd3613862565b611cef5760405162461bcd60e51b8152600401610a5190615493565b6000611cfa816129d5565b6101cd82905560405133907f8c84e3b4df93f5b7c8d4ab6647708f5b14cacc124e22908187e30695ec54bab390611d329085906152e8565b60405180910390a25050565b6101915460ff16611d615760405162461bcd60e51b8152600401610a5190615bfc565b610191805460ff1916905560fb5460ff1615611d8f5760405162461bcd60e51b8152600401610a51906157a0565b81611d99816129d5565b611da383836139eb565b60008381526101d16020526040902060090154610dc59033908490610d729060ff16613b2b565b6101915460ff16611ded5760405162461bcd60e51b8152600401610a5190615bfc565b610191805460ff1916905560fb5460ff1615611e1b5760405162461bcd60e51b8152600401610a51906157a0565b828114611e3a5760405162461bcd60e51b8152600401610a5190615aab565b60008060005b83811015611f1c5760006101d16000898985818110611e5b57fe5b602090810292909201358352508101919091526040016000206009015460ff169050611eab888884818110611e8c57fe5b90506020020135878785818110611e9f57fe5b905060200201356139eb565b6001816001811115611eb957fe5b1415611eeb57611ee4868684818110611ece57fe5b9050602002013584612f2590919063ffffffff16565b9250611f13565b611f10868684818110611efa57fe5b9050602002013585612f2590919063ffffffff16565b93505b50600101611e40565b508115611f3257611f323383610d726000613b2b565b8015611f4757611f473382610d726001613b2b565b336001600160a01b03167ff00809a6eb66c05c314468512a79b6388957b41bc76bd7241b9cbabb129ae008878787876040516114d294939291906152ab565b600081565b611f93612963565b6001600160a01b0316826001600160a01b03161415611fc45760405162461bcd60e51b8152600401610a5190615680565b8060cd6000611fd1612963565b6001600160a01b03908116825260208083019390935260409182016000908120918716808252919093529120805460ff191692151592909217909155612015612963565b6001600160a01b03167f17307eab39ab6107e8899845ad3d59bd9653f200f220920489ca2b5937696c318360405161204d91906152dd565b60405180910390a35050565b6101915460ff1661207c5760405162461bcd60e51b8152600401610a5190615bfc565b610191805460ff1916905560fb5460ff16156120aa5760405162461bcd60e51b8152600401610a51906157a0565b806120b4816129d5565b336120be836116f5565b6001600160a01b0316146120e45760405162461bcd60e51b8152600401610a5190615493565b60008281526101d16020526040812060098101549091906121079060ff16611983565b905061211282613be4565b8110156121315760405162461bcd60e51b8152600401610a51906158ae565b600061213c83613903565b600a84018390559050600061215084613903565b905061216c81610c8e846101ce5461396f90919063ffffffff16565b6101ce555050610191805460ff1916600117905550505050565b6101915460ff166121a95760405162461bcd60e51b8152600401610a5190615bfc565b610191805460ff1916905560fb5460ff16156121d75760405162461bcd60e51b8152600401610a51906157a0565b816121e1816129d5565b6121e9613bfc565b80156121fa57506121fa3384613071565b6122165760405162461bcd60e51b8152600401610a5190615493565b60008381526101d1602052604081206009015460ff16600181111561223757fe5b146122545760405162461bcd60e51b8152600401610a51906156b3565b60008381526101d160205260409020805461226f9084612f25565b8155600061228e8461228084613c18565b61228985613be4565b613c30565b6101ce5490915061229f9082612f25565b6101ce5560098201546122cf903390309087906122be9060ff16613b2b565b6001600160a01b031692919061378f565b5050610191805460ff19166001179055505050565b60009081526101d1602052604090205490565b6101cd5481565b6101cb5481565b600054610100900460ff168061231e575061231e613c4e565b8061232c575060005460ff16155b6123485760405162461bcd60e51b8152600401610a51906159c5565b600054610100900460ff16158015612373576000805460ff1961ff0019909116610100171660011790555b61237b613c54565b612383613cd7565b6123e46040518060400160405280601e81526020017f476f6c6466696e6368205632204c50205374616b696e6720546f6b656e7300008152506040518060400160405280600a8152602001694746492d56322d4c505360b01b815250613d55565b6123ec613c54565b6123f4613c54565b6123fc613e31565b612404613ebd565b61241c600080516020615f2783398151915284611163565b612434600080516020615f9083398151915284611163565b61245a600080516020615f90833981519152600080516020615f27833981519152613f4d565b612472600080516020615f2783398151915280613f4d565b6101c380546001600160a01b0319166001600160a01b0384161790556301e133806101cd558015610b09576000805461ff0019169055505050565b6124be6124b8612963565b83613071565b6124da5760405162461bcd60e51b8152600401610a5190615b25565b6124e684848484613f62565b50505050565b6000806101c45442146124ff5742612504565b426001015b9050600061251e6101c4548361396f90919063ffffffff16565b905061252d81610f7784613f95565b9250505090565b6101ce5481565b606061254682612956565b6125625760405162461bcd60e51b8152600401610a5190615a5c565b600082815260d0602090815260409182902080548351601f60026000196101006001861615020190931692909204918201849004840281018401909452808452606093928301828280156125f75780601f106125cc576101008083540402835291602001916125f7565b820191906000526020600020905b8154815290600101906020018083116125da57829003601f168201915b505060d1549394505050506002600019610100600184161502019091160461262057905061098e565b8051156126525760d18160405160200161263b929190615101565b60405160208183030381529060405291505061098e565b60d161265d84614024565b60405160200161266e929190615101565b604051602081830303815290604052915050919050565b6101c45481565b6000818152606560205260408120610c9490612f4a565b6000610ca66126b142613f95565b6101c55490612f25565b6101915460ff166126de5760405162461bcd60e51b8152600401610a5190615bfc565b610191805460ff1916905560fb5460ff161561270c5760405162461bcd60e51b8152600401610a51906157a0565b80612716816129d5565b5050610191805460ff19166001179055565b6101915460ff1661274b5760405162461bcd60e51b8152600401610a5190615bfc565b610191805460ff1916905560fb5460ff16156127795760405162461bcd60e51b8152600401610a51906157a0565b6000612785838361350f565b905082336001600160a01b03167fc3c6b9e734c21d6e8632c6a862b6de6458faa89079cbc34cc0560ed0ab78a5c68385604051610dbc929190615e61565b7f9f2df0fed2c77648de5860a4cc508cd0818c85b8b8a1ab4ceeef8d981c8956a681565b6000828152606560205260409020600201546128059061078a612963565b6112ff5760405162461bcd60e51b8152600401610a5190615750565b600080516020615f2783398151915281565b600080516020615f9083398151915281565b6101c65481565b6001600160a01b03918216600090815260cd6020908152604080832093909416825291909152205460ff1690565b6101ca5481565b612889613862565b6128a55760405162461bcd60e51b8152600401610a5190615493565b60006128b0816129d5565b6128be3330846122be612f70565b6101c6546128cc9083612f25565b6101c6556040517fde88a922e0d3b88b24e9623efeb464919c6bf9f66857a65e2bfcf2ce87a9433d906129009084906152e8565b60405180910390a15050565b612914613862565b6129305760405162461bcd60e51b8152600401610a5190615493565b61134e600080516020615f47833981519152600080516020615f27833981519152613f4d565b6000610c9460ca836140ff565b3390565b600081815260cc6020526040902080546001600160a01b0319166001600160a01b038416908117909155819061299c826116f5565b6001600160a01b03167f8c5be1e5ebec7d5bd14f71427d1e84f3dd0314c0f7b2291e5b200ac8c7c3b92560405160405180910390a45050565b6101c5546129e16126a3565b6101c5556000612a0e6129f261387e565b6101c554610f7790612a04908661396f565b6101ce549061302c565b6101c654909150612a1f908261396f565b6101c655426101c4558215610b09576000612a3984611a37565b60008581526101d160205260409020600101805491925090612a5b9083612f25565b8155612a668161410b565b50506101c55460008481526101c76020526040902055505050565b6000808311612aa25760405162461bcd60e51b8152600401610a519061551d565b612aad61015f61416a565b612ab861015f614173565b9050612ac3816129d5565b6000612ace83610dd8565b90506000612adb84611983565b90506040518060e001604052808681526020016040518060c0016040528060008152602001600081526020016000815260200160008152602001428152602001612b316101cd5442612f2590919063ffffffff16565b81525081526020016000815260200160008152602001856001811115612b5357fe5b81526020808201849052604091820185905260008681526101d18252829020835181558382015180516001808401919091559281015160028301558084015160038301556060808201516004840155608080830151600585015560a0909201516006840155938501516007830155928401516008820155918301516009830180549192909160ff1916908381811115612be857fe5b021790555060a0820151600a82015560c090910151600b90910155612c0d8684614177565b60008381526101d160205260408120612c2590613903565b6101ce54909150612c369082612f25565b6101ce556001600160a01b0388163014612c5957612c598830886122be89613b2b565b83876001600160a01b03167fcc10169be2ad544347561e230939849af48d1714c052d7fe247d12f3decb4896888887604051612c9793929190615dc9565b60405180910390a3505050949350505050565b60008083612cb7816129d5565b612cc08561423b565b612cdc5760405162461bcd60e51b8152600401610a5190615900565b612ce46136f0565b612d005760405162461bcd60e51b8152600401610a51906153a8565b6101c354600090612d19906001600160a01b0316614266565b90506000816001600160a01b03166370a08231306040518263ffffffff1660e01b8152600401612d499190615182565b60206040518083038186803b158015612d6157600080fd5b505afa158015612d75573d6000803e3d6000fd5b505050506040513d601f19601f82011682018060405250810190612d999190614f47565b6101c354909150612db2906001600160a01b0316613066565b6001600160a01b0316632e1a7d4d876040518263ffffffff1660e01b8152600401612ddd91906152e8565b602060405180830381600087803b158015612df757600080fd5b505af1158015612e0b573d6000803e3d6000fd5b505050506040513d601f19601f82011682018060405250810190612e2f9190614f47565b9450612eb7826001600160a01b03166370a08231306040518263ffffffff1660e01b8152600401612e609190615182565b60206040518083038186803b158015612e7857600080fd5b505afa158015612e8c573d6000803e3d6000fd5b505050506040513d601f19601f82011682018060405250810190612eb09190614f47565b829061396f565b9350612ec387856139eb565b6101c354612ee19033908790610d72906001600160a01b0316613784565b5050509250929050565b6000848411612efb575080610c6f565b610c6c612f1f612f0b868861396f565b610f77612f18878a61396f565b869061302c565b83614271565b6000828201838110156111935760405162461bcd60e51b8152600401610a519061553b565b6000610c9482614173565b6003820154612f649082612f25565b82600301819055505050565b6101c354600090610ca6906001600160a01b0316614287565b610b098363a9059cbb60e01b8484604051602401612fa8929190615252565b60408051601f198184030181529190526020810180516001600160e01b03166001600160e01b031990931692909217909152614292565b6000610c9482614377565b600061119383836040518060400160405280601a81526020017f536166654d6174683a206469766973696f6e206279207a65726f00000000000081525061438f565b60008261303b57506000610c94565b8282028284828161304857fe5b04146111935760405162461bcd60e51b8152600401610a519061591c565b6000610c94826143c6565b600061307c82612956565b6130985760405162461bcd60e51b8152600401610a5190615704565b60006130a3836116f5565b9050806001600160a01b0316846001600160a01b031614806130de5750836001600160a01b03166130d384610a2a565b6001600160a01b0316145b80610c6f5750610c6f818561284c565b826001600160a01b0316613101826116f5565b6001600160a01b0316146131275760405162461bcd60e51b8152600401610a5190615a13565b6001600160a01b03821661314d5760405162461bcd60e51b8152600401610a519061563c565b6131588383836143de565b613163600082612967565b6001600160a01b038316600090815260c96020526040902061318590826143e9565b506001600160a01b038216600090815260c9602052604090206131a890826143f5565b506131b560ca8284614401565b5080826001600160a01b0316846001600160a01b03167fddf252ad1be2c89b69c2b068fc378daa952ba7f163c4a11628f55a4df523b3ef60405160405180910390a4505050565b60006001600160a01b03821663b93f9b0a60055b6040518263ffffffff1660e01b815260040161322c91906152e8565b60206040518083038186803b15801561324457600080fd5b505afa158015613258573d6000803e3d6000fd5b505050506040513d601f19601f82011682018060405250810190610c949190614c14565b60008083118061328c5750600082115b6132a85760405162461bcd60e51b8152600401610a519061551d565b6101c3546000906132c1906001600160a01b0316613784565b6101c3549091506000906132dd906001600160a01b0316614266565b6101c3549091506000906132f9906001600160a01b0316612fdf565b9050851561332a576133166001600160a01b03831689308961378f565b61332a6001600160a01b03831682886137b0565b8415613359576133456001600160a01b03841689308861378f565b6133596001600160a01b03841682876137b0565b60006133f5600a610f776009856001600160a01b0316638d8ea72760405180604001604052808e81526020018d8152506040518263ffffffff1660e01b81526004016133a5919061526b565b60206040518083038186803b1580156133bd57600080fd5b505afa1580156133d1573d6000803e3d6000fd5b505050506040513d601f19601f820116820180604052508101906119349190614f47565b604080518082018252898152602081018990529051637328333b60e01b81529192506001600160a01b03841691637328333b9161343b9185906000908e90600401615279565b602060405180830381600087803b15801561345557600080fd5b505af1158015613469573d6000803e3d6000fd5b505050506040513d601f19601f8201168201806040525081019061348d9190614f47565b9998505050505050505050565b60008281526065602052604090206134b29082614417565b1561116d576134bf612963565b6001600160a01b0316816001600160a01b0316837f2f8788117e7eff1d82e926ec794901d17c78024a50270940304540a733656f0d60405160405180910390a45050565b6000611193838361442c565b60008261351b816129d5565b6135248461423b565b6135405760405162461bcd60e51b8152600401610a5190615900565b6101c354613556906001600160a01b0316613066565b6001600160a01b03166358031d12846040518263ffffffff1660e01b815260040161358191906152e8565b602060405180830381600087803b15801561359b57600080fd5b505af11580156135af573d6000803e3d6000fd5b505050506040513d601f19601f820116820180604052508101906135d39190614f47565b91506135df84846139eb565b6101c354611ac39033908490610d72906001600160a01b0316613784565b60008281526065602052604090206136159082614471565b1561116d57613622612963565b6001600160a01b0316816001600160a01b0316837ff6391f5c32d9c69d2a47ea670b442974b53935d1edc7fd64eb21e047a839171b60405160405180910390a45050565b60fb5460ff166136885760405162461bcd60e51b8152600401610a5190615413565b60fb805460ff191690557f5db9ee0a495bf2e6ff9c91a7834c1ba4fdd244a5e8aa4e537bd38aeae4b073aa6136bb612963565b6040516136c89190615182565b60405180910390a1565b60008080806136e18686614486565b909450925050505b9250929050565b6101c354600090613709906001600160a01b03166144e2565b6001600160a01b031663a37b92c9336040518263ffffffff1660e01b81526004016137349190615182565b60206040518083038186803b15801561374c57600080fd5b505afa158015613760573d6000803e3d6000fd5b505050506040513d601f19601f82011682018060405250810190610ca69190614e77565b6000610c94826131fc565b6124e6846323b872dd60e01b858585604051602401612fa89392919061522e565b600061383482856001600160a01b031663dd62ed3e30876040518363ffffffff1660e01b81526004016137e4929190615214565b60206040518083038186803b1580156137fc57600080fd5b505afa158015613810573d6000803e3d6000fd5b505050506040513d601f19601f82011682018060405250810190610c8e9190614f47565b90506124e68463095ea7b360e01b8584604051602401612fa8929190615252565b6000610c6f8484846144ed565b6000610ca6600080516020615f2783398151915261078a612963565b600061388861454c565b6001600160a01b031663313ce5676040518163ffffffff1660e01b815260040160206040518083038186803b1580156138c057600080fd5b505afa1580156138d4573d6000803e3d6000fd5b505050506040513d601f19601f820116820180604052508101906138f89190615039565b60ff16600a0a905090565b6000610c94826000015461228084613c18565b60fb5460ff16156139395760405162461bcd60e51b8152600401610a51906157a0565b60fb805460ff191660011790557f62e78cea01bee320cd4e420270b5ea74000d11b0c9f74754ebdbfc544b05a2586136bb612963565b600061119383836040518060400160405280601e81526020017f536166654d6174683a207375627472616374696f6e206f766572666c6f770000815250614565565b6000611193836001600160a01b038416614591565b6000610c948260030154611a6484600201548560010154612f2590919063ffffffff16565b6139f53383613071565b613a115760405162461bcd60e51b8152600401610a5190615493565b60008281526101d16020526040902080548215801590613a315750808311155b613a4d5760405162461bcd60e51b8152600401610a51906159a9565b8160080154421015613a715760405162461bcd60e51b8152600401610a5190615bdc565b6000613a8984613a8085613c18565b61228986613be4565b6101ce54909150613a9a908261396f565b6101ce55613aa8828561396f565b8355613ab2613bfc565b613adf576000613ace83610f7787670de0b6b3a764000061302c565b9050613add60018501826145a9565b505b6009830154604051869133917f47efae27a70cca1d3ad8e753ab4b48a413e554d244be5c7928fdfee407c37f5d91613b1c91899160ff1690615dac565b60405180910390a35050505050565b60006001826001811115613b3b57fe5b1415613bce576101c354613b57906001600160a01b0316612fdf565b6001600160a01b031663fc0c546a6040518163ffffffff1660e01b815260040160206040518083038186803b158015613b8f57600080fd5b505afa158015613ba3573d6000803e3d6000fd5b505050506040513d601f19601f82011682018060405250810190613bc79190614c14565b905061098e565b6101c354610c94906001600160a01b0316614266565b600a81015460009015610f855750600a81015461098e565b6000610ca6600080516020615f4783398151915261078a612963565b600b81015460009015610f855750600b81015461098e565b6000610c6f670de0b6b3a7640000610f778181866119348a8a61302c565b303b1590565b600054610100900460ff1680613c6d5750613c6d613c4e565b80613c7b575060005460ff16155b613c975760405162461bcd60e51b8152600401610a51906159c5565b600054610100900460ff16158015613cc2576000805460ff1961ff0019909116610100171660011790555b8015613cd4576000805461ff00191690555b50565b600054610100900460ff1680613cf05750613cf0613c4e565b80613cfe575060005460ff16155b613d1a5760405162461bcd60e51b8152600401610a51906159c5565b600054610100900460ff16158015613d45576000805460ff1961ff0019909116610100171660011790555b613cc26301ffc9a760e01b614657565b600054610100900460ff1680613d6e5750613d6e613c4e565b80613d7c575060005460ff16155b613d985760405162461bcd60e51b8152600401610a51906159c5565b600054610100900460ff16158015613dc3576000805460ff1961ff0019909116610100171660011790555b8251613dd69060ce906020860190614b23565b508151613dea9060cf906020850190614b23565b50613dfb6380ac58cd60e01b614657565b613e0b635b5e139f60e01b614657565b613e1b63780e9d6360e01b614657565b8015610b09576000805461ff0019169055505050565b600054610100900460ff1680613e4a5750613e4a613c4e565b80613e58575060005460ff16155b613e745760405162461bcd60e51b8152600401610a51906159c5565b600054610100900460ff16158015613e9f576000805460ff1961ff0019909116610100171660011790555b60fb805460ff191690558015613cd4576000805461ff001916905550565b600054610100900460ff1680613ed65750613ed6613c4e565b80613ee4575060005460ff16155b613f005760405162461bcd60e51b8152600401610a51906159c5565b600054610100900460ff16158015613f2b576000805460ff1961ff0019909116610100171660011790555b610191805460ff191660011790558015613cd4576000805461ff001916905550565b60009182526065602052604090912060020155565b613f6d8484846130ee565b613f79848484846146a6565b6124e65760405162461bcd60e51b8152600401610a5190615441565b60006101c454821015613fba5760405162461bcd60e51b8152600401610a5190615b09565b6101ce54613fca5750600061098e565b6000613ff2613fe9613fda6147e0565b6101c45461193490879061396f565b6101c654614271565b9050600061400f6101ce54610f7761400861387e565b859061302c565b9050818111156111935760009250505061098e565b60608161404957506040805180820190915260018152600360fc1b602082015261098e565b8160005b811561406157600101600a8204915061404d565b60608167ffffffffffffffff8111801561407a57600080fd5b506040519080825280601f01601f1916602001820160405280156140a5576020820181803683370190505b50859350905060001982015b83156140f657600a840660300160f81b828280600190039350815181106140d457fe5b60200101906001600160f81b031916908160001a905350600a840493506140b1565b50949350505050565b60006111938383614591565b60006141298260040154836005015442614124866148b7565b612eeb565b9050816001015481111561116d57600061415083600101548361396f90919063ffffffff16565b835490915061415f908261396f565b835550600190910155565b80546001019055565b5490565b6001600160a01b03821661419d5760405162461bcd60e51b8152600401610a51906158cb565b6141a681612956565b156141c35760405162461bcd60e51b8152600401610a51906154e6565b6141cf600083836143de565b6001600160a01b038216600090815260c9602052604090206141f190826143f5565b506141fe60ca8284614401565b5060405181906001600160a01b038416906000907fddf252ad1be2c89b69c2b068fc378daa952ba7f163c4a11628f55a4df523b3ef908290a45050565b60008060008381526101d1602052604090206009015460ff16600181111561425f57fe5b1492915050565b6000610c94826148cb565b60008183106142805781611193565b5090919050565b6000610c94826148e3565b6142a4826001600160a01b03166148fb565b6142c05760405162461bcd60e51b8152600401610a5190615c91565b60006060836001600160a01b0316836040516142dc91906150e5565b6000604051808303816000865af19150503d8060008114614319576040519150601f19603f3d011682016040523d82523d6000602084013e61431e565b606091505b5091509150816143405760405162461bcd60e51b8152600401610a51906156cf565b8051156124e6578080602001905181019061435b9190614e77565b6124e65760405162461bcd60e51b8152600401610a5190615b76565b60006001600160a01b03821663b93f9b0a6016613210565b600081836143b05760405162461bcd60e51b8152600401610a519190615308565b5060008385816143bc57fe5b0495945050505050565b60006001600160a01b03821663b93f9b0a600e613210565b610b09838383614934565b60006111938383614964565b60006111938383614a2a565b6000610c6f84846001600160a01b038516614a74565b6000611193836001600160a01b038416614a2a565b8154600090821061444f5760405162461bcd60e51b8152600401610a519061531b565b82600001828154811061445e57fe5b9060005260206000200154905092915050565b6000611193836001600160a01b038416614964565b8154600090819083106144ab5760405162461bcd60e51b8152600401610a519061586c565b60008460000184815481106144bc57fe5b906000526020600020906002020190508060000154816001015492509250509250929050565b6000610c9482614b0b565b6000828152600184016020526040812054828161451d5760405162461bcd60e51b8152600401610a519190615308565b5084600001600182038154811061453057fe5b9060005260206000209060020201600101549150509392505050565b6101c354600090610ca6906001600160a01b0316614266565b600081848411156145895760405162461bcd60e51b8152600401610a519190615308565b505050900390565b60009081526001919091016020526040902054151590565b670de0b6b3a76400008111156145d15760405162461bcd60e51b8152600401610a5190615572565b81546000906145ee90670de0b6b3a764000090610f77908561302c565b90506000614615670de0b6b3a7640000610f7785876001015461302c90919063ffffffff16565b8454909150614624908361396f565b84556001840154614635908261396f565b600185015560028401546146499082612f25565b846002018190555050505050565b6001600160e01b031980821614156146815760405162461bcd60e51b8152600401610a51906154af565b6001600160e01b0319166000908152609760205260409020805460ff19166001179055565b60006146ba846001600160a01b03166148fb565b6146c657506001610c6f565b600060606001600160a01b038616630a85bd0160e11b6146e4612963565b8988886040516024016146fa9493929190615196565b60408051601f198184030181529181526020820180516001600160e01b03166001600160e01b031990941693909317909252905161473891906150e5565b6000604051808303816000865af19150503d8060008114614775576040519150601f19603f3d011682016040523d82523d6000602084013e61477a565b606091505b5091509150816147ac578051156147945780518082602001fd5b60405162461bcd60e51b8152600401610a5190615441565b6000818060200190518101906147c29190614f0c565b6001600160e01b031916630a85bd0160e11b149350610c6f92505050565b600080614808670de0b6b3a7640000610f776101cb546101c85461302c90919063ffffffff16565b90506000614831670de0b6b3a7640000610f776101cc546101c85461302c90919063ffffffff16565b6101ce5490915082821161484b5760009350505050610a27565b82811015614861576101ca549350505050610a27565b81811115614877576101c9549350505050610a27565b6148af6148a5614887848661396f565b610f77614894858861396f565b6101c9546101ca546119349161396f565b6101ca549061396f565b935050505090565b60018101548154600091610c949190612f25565b60006001600160a01b03821663b93f9b0a6004613210565b60006001600160a01b03821663b93f9b0a6012613210565b6000813f7fc5d2460186f7233c927e7db2dcc703c0e500b653ca82273b7bfad8045d85a470818114801590610c6f575050151592915050565b61493f838383610b09565b6149476116ec565b15610b095760405162461bcd60e51b8152600401610a519061535d565b60008181526001830160205260408120548015614a20578354600019808301919081019060009087908390811061499757fe5b90600052602060002001549050808760000184815481106149b457fe5b6000918252602080832090910192909255828152600189810190925260409020908401905586548790806149e457fe5b60019003818190600052602060002001600090559055866001016000878152602001908152602001600020600090556001945050505050610c94565b6000915050610c94565b6000614a368383614591565b614a6c57508154600181810184556000848152602080822090930184905584548482528286019093526040902091909155610c94565b506000610c94565b600082815260018401602052604081205480614ad9575050604080518082018252838152602080820184815286546001818101895560008981528481209551600290930290950191825591519082015586548684528188019092529290912055611193565b82856000016001830381548110614aec57fe5b9060005260206000209060020201600101819055506000915050611193565b60006001600160a01b03821663b93f9b0a6013613210565b828054600181600116156101000203166002900490600052602060002090601f016020900481019282601f10614b6457805160ff1916838001178555614b91565b82800160010185558215614b91579182015b82811115614b91578251825591602001919060010190614b76565b50614b9d929150614ba1565b5090565b5b80821115614b9d5760008155600101614ba2565b60008083601f840112614bc7578182fd5b50813567ffffffffffffffff811115614bde578182fd5b60208301915083602080830285010111156136e957600080fd5b600060208284031215614c09578081fd5b813561119381615ede565b600060208284031215614c25578081fd5b815161119381615ede565b60008060408385031215614c42578081fd5b8235614c4d81615ede565b91506020830135614c5d81615ede565b809150509250929050565b600080600060608486031215614c7c578081fd5b8335614c8781615ede565b92506020840135614c9781615ede565b929592945050506040919091013590565b60008060008060808587031215614cbd578081fd5b8435614cc881615ede565b9350602085810135614cd981615ede565b935060408601359250606086013567ffffffffffffffff80821115614cfc578384fd5b818801915088601f830112614d0f578384fd5b813581811115614d1d578485fd5b604051601f8201601f1916810185018381118282101715614d3c578687fd5b60405281815283820185018b1015614d52578586fd5b81858501868301379081019093019390935250939692955090935050565b60008060408385031215614d82578182fd5b8235614d8d81615ede565b91506020830135614c5d81615ef3565b60008060408385031215614c42578182fd5b60008060408385031215614dc1578182fd5b8235614dcc81615ede565b946020939093013593505050565b600080600060608486031215614dee578283fd5b8335614df981615ede565b95602085013595506040909401359392505050565b60008060008060408587031215614e23578384fd5b843567ffffffffffffffff80821115614e3a578586fd5b614e4688838901614bb6565b90965094506020870135915080821115614e5e578384fd5b50614e6b87828801614bb6565b95989497509550505050565b600060208284031215614e88578081fd5b815161119381615ef3565b600060208284031215614ea4578081fd5b5035919050565b60008060408385031215614ebd578182fd5b823591506020830135614c5d81615ede565b60008060408385031215614ee1578182fd5b50508035926020909101359150565b600060208284031215614f01578081fd5b813561119381615f01565b600060208284031215614f1d578081fd5b815161119381615f01565b600060208284031215614f39578081fd5b813560028110611193578182fd5b600060208284031215614f58578081fd5b5051919050565b60008060408385031215614f71578182fd5b82359150602083013560028110614c5d578182fd5b60008060008060808587031215614f9b578182fd5b5050823594602084013594506040840135936060013592509050565b600080600080600060a08688031215614fce578283fd5b505083359560208501359550604085013594606081013594506080013592509050565b600080600080600060a08688031215615008578283fd5b8535945060208601359350604086013561502181615f17565b94979396509394606081013594506080013592915050565b60006020828403121561504a578081fd5b815161119381615f17565b8060005b60028110156124e6578151845260209384019390910190600101615059565b81835260006001600160fb1b03831115615090578081fd5b6020830280836020870137939093016020019283525090919050565b600081518084526150c4816020860160208601615ea8565b601f01601f19169290920160200192915050565b6150e181615ed4565b9052565b600082516150f7818460208701615ea8565b9190910192915050565b6000808454600180821660008114615120576001811461513757615166565b60ff198316865260028304607f1686019350615166565b600283048886526020808720875b8381101561515e5781548a820152908501908201615145565b505050860193505b5050508351615179818360208801615ea8565b01949350505050565b6001600160a01b0391909116815260200190565b6001600160a01b03858116825284166020820152604081018390526080606082018190526000906151c9908301846150ac565b9695505050505050565b6001600160a01b0397881681529590961660208601526040850193909352606084019190915260ff16608083015260a082015260c081019190915260e00190565b6001600160a01b0392831681529116602082015260400190565b6001600160a01b039384168152919092166020820152604081019190915260600190565b6001600160a01b03929092168252602082015260400190565b60408101610c948284615055565b60a081016152878287615055565b604082019490945291151560608301526001600160a01b0316608090910152919050565b6000604082526152bf604083018688615078565b82810360208401526152d2818587615078565b979650505050505050565b901515815260200190565b90815260200190565b604081016152fe84615ed4565b9281526020015290565b60006020825261119360208301846150ac565b60208082526022908201527f456e756d657261626c655365743a20696e646578206f7574206f6620626f756e604082015261647360f01b606082015260800190565b6020808252602b908201527f4552433732315061757361626c653a20746f6b656e207472616e73666572207760408201526a1a1a5b19481c185d5cd95960aa1b606082015260800190565b60208082526002908201526111d360f21b604082015260600190565b6020808252602f908201527f416363657373436f6e74726f6c3a2073656e646572206d75737420626520616e60408201526e0818591b5a5b881d1bc819dc985b9d608a1b606082015260800190565b60208082526014908201527314185d5cd8589b194e881b9bdd081c185d5cd95960621b604082015260600190565b60208082526032908201527f4552433732313a207472616e7366657220746f206e6f6e20455243373231526560408201527131b2b4bb32b91034b6b83632b6b2b73a32b960711b606082015260800190565b602080825260029082015261105160f21b604082015260600190565b6020808252601c908201527f4552433136353a20696e76616c696420696e7465726661636520696400000000604082015260600190565b6020808252601c908201527f4552433732313a20746f6b656e20616c7265616479206d696e74656400000000604082015260600190565b6020808252600490820152635a45524f60e01b604082015260600190565b6020808252601b908201527f536166654d6174683a206164646974696f6e206f766572666c6f770000000000604082015260600190565b6020808252602f908201527f736c617368696e672070657263656e746167652063616e6e6f7420626520677260408201526e6561746572207468616e203130302560881b606082015260800190565b6020808252603e908201527f4552433732315072657365744d696e7465725061757365724175746f49643a2060408201527f6d75737420686176652070617573657220726f6c6520746f2070617573650000606082015260800190565b602080825260049082015263090928e960e31b604082015260600190565b60208082526024908201527f4552433732313a207472616e7366657220746f20746865207a65726f206164646040820152637265737360e01b606082015260800190565b60208082526019908201527822a9219b99189d1030b8383937bb32903a379031b0b63632b960391b604082015260600190565b602080825260029082015261141560f21b604082015260600190565b6020808252818101527f5361666545524332303a206c6f772d6c6576656c2063616c6c206661696c6564604082015260600190565b6020808252602c908201527f4552433732313a206f70657261746f7220717565727920666f72206e6f6e657860408201526b34b9ba32b73a103a37b5b2b760a11b606082015260800190565b60208082526030908201527f416363657373436f6e74726f6c3a2073656e646572206d75737420626520616e60408201526f2061646d696e20746f207265766f6b6560801b606082015260800190565b60208082526010908201526f14185d5cd8589b194e881c185d5cd95960821b604082015260600190565b60208082526038908201527f4552433732313a20617070726f76652063616c6c6572206973206e6f74206f776040820152771b995c881b9bdc88185c1c1c9bdd995908199bdc88185b1b60421b606082015260800190565b6020808252602a908201527f4552433732313a2062616c616e636520717565727920666f7220746865207a65604082015269726f206164647265737360b01b606082015260800190565b60208082526022908201527f456e756d657261626c654d61703a20696e646578206f7574206f6620626f756e604082015261647360f01b606082015260800190565b6020808252600390820152624c4f5760e81b604082015260600190565b6020808252818101527f4552433732313a206d696e7420746f20746865207a65726f2061646472657373604082015260600190565b602080825260029082015261435760f01b604082015260600190565b60208082526021908201527f536166654d6174683a206d756c7469706c69636174696f6e206f766572666c6f6040820152607760f81b606082015260800190565b6020808252602c908201527f4552433732313a20617070726f76656420717565727920666f72206e6f6e657860408201526b34b9ba32b73a103a37b5b2b760a11b606082015260800190565b602080825260029082015261494160f01b604082015260600190565b6020808252602e908201527f436f6e747261637420696e7374616e63652068617320616c726561647920626560408201526d195b881a5b9a5d1a585b1a5e995960921b606082015260800190565b60208082526029908201527f4552433732313a207472616e73666572206f6620746f6b656e2074686174206960408201526839903737ba1037bbb760b91b606082015260800190565b6020808252602f908201527f4552433732314d657461646174613a2055524920717565727920666f72206e6f60408201526e3732bc34b9ba32b73a103a37b5b2b760891b606082015260800190565b6020808252600390820152622622a760e91b604082015260600190565b60208082526021908201527f4552433732313a20617070726f76616c20746f2063757272656e74206f776e656040820152603960f91b606082015260800190565b602080825260029082015261125560f21b604082015260600190565b60208082526031908201527f4552433732313a207472616e736665722063616c6c6572206973206e6f74206f6040820152701ddb995c881b9bdc88185c1c1c9bdd9959607a1b606082015260800190565b6020808252602a908201527f5361666545524332303a204552433230206f7065726174696f6e20646964206e6040820152691bdd081cdd58d8d9595960b21b606082015260800190565b602080825260029082015261049560f41b604082015260600190565b6020808252600690820152651313d0d2d15160d21b604082015260600190565b6020808252601f908201527f5265656e7472616e637947756172643a207265656e7472616e742063616c6c00604082015260600190565b602080825260409082018190527f4552433732315072657365744d696e7465725061757365724175746f49643a20908201527f6d75737420686176652070617573657220726f6c6520746f20756e7061757365606082015260800190565b6020808252601f908201527f5361666545524332303a2063616c6c20746f206e6f6e2d636f6e747261637400604082015260600190565b6020808252602f908201527f416363657373436f6e74726f6c3a2063616e206f6e6c792072656e6f756e636560408201526e103937b632b9903337b91039b2b63360891b606082015260800190565b600086825260606020830152615d31606083018688615078565b8281036040840152615d44818587615078565b98975050505050505050565b60008582526020606081840152615d6b606084018688615078565b8381036040850152845180825282860191830190845b81811015615d9d57835183529284019291840191600101615d81565b50909998505050505050505050565b82815260408101615dbc83615ed4565b8260208301529392505050565b83815260608101615dd984615ed4565b602082019390935260400152919050565b60006101808201905088825287516020830152602088015160408301526040880151606083015260608801516080830152608088015160a083015260a088015160c08301528660e083015285610100830152615e4a6101208301866150d8565b610140820193909352610160015295945050505050565b918252602082015260400190565b9283526020830191909152604082015260600190565b948552602085019390935260408401919091526060830152608082015260a00190565b60005b83811015615ec3578181015183820152602001615eab565b838111156124e65750506000910152565b60028110613cd457fe5b6001600160a01b0381168114613cd457600080fd5b8015158114613cd457600080fd5b6001600160e01b031981168114613cd457600080fd5b60ff81168114613cd457600080fdfeb19546dff01e856fb3f010c267a7b1c60363cf8a4664e21cc89c26224620214ed624b04b6a86de88625cc0780256b85157c5a615db56d1357e0a97a30fde27674552433732313a206f776e657220717565727920666f72206e6f6e6578697374656e7420746f6b656e65d7a28e3265b37a6474929f336521b332c1681b933f6cb9f3376673440d862aa26469706673582212209ec23c4df206c9044131b006be9745db099911d25be077f92a7beaf43479475a64736f6c634300060c0033",
  "devdoc": {
    "kind": "dev",
    "methods": {
      "addToStake(uint256,uint256)": {
        "details": "This function checkpoints rewards and is only callable by an approved address with ZAPPER_ROLE. This   function enables the Zapper to unwind \"in-progress\" positions initiated by `Zapper.zapStakeToTranchedPool`.   That is, funds that were moved from this contract into a TranchedPool can be \"unwound\" back to their original   staked position by the Zapper as part of `Zapper.unzapToStakingRewards`.",
        "params": {
          "amount": "Amount of `stakingToken()` to be added to tokenId's position",
          "tokenId": "A staking position token ID"
        }
      },
      "approve(address,uint256)": {
        "details": "Approves another address to transfer the given token ID The zero address indicates there is no approved address. There can only be one approved address per token at a given time. Can only be called by the token owner or an approved operator.",
        "params": {
          "to": "address to be approved for the given token ID",
          "tokenId": "uint256 ID of the token to be approved"
        }
      },
      "balanceOf(address)": {
        "details": "Gets the balance of the specified address.",
        "params": {
          "owner": "address to query the balance of"
        },
        "returns": {
          "_0": "uint256 representing the amount owned by the passed address"
        }
      },
      "baseURI()": {
        "details": "Returns the base URI set via {_setBaseURI}. This will be automatically added as a prefix in {tokenURI} to each token's URI, or to the token ID if no specific URI is set for that token ID."
      },
      "claimableRewards(uint256)": {
        "returns": {
          "rewards": "Amount of rewards denominated in `rewardsToken()`"
        }
      },
      "currentEarnRatePerToken()": {
        "returns": {
          "_0": "Amount of rewards denominated in `rewardsToken().decimals()`."
        }
      },
      "depositAndStake(uint256)": {
        "params": {
          "usdcAmount": "The amount of USDC to deposit into the senior pool. All shares from deposit   will be staked."
        }
      },
      "depositToCurve(uint256,uint256)": {
        "params": {
          "fiduAmount": "The amount of FIDU to deposit",
          "usdcAmount": "The amount of USDC to deposit"
        }
      },
      "depositToCurveAndStakeFrom(address,uint256,uint256)": {
        "params": {
          "fiduAmount": "The amount of FIDU to deposit",
          "usdcAmount": "The amount of USDC to deposit"
        }
      },
      "depositWithPermitAndStake(uint256,uint256,uint8,bytes32,bytes32)": {
        "params": {
          "r": "secp256k1 signature component",
          "s": "secp256k1 signature component",
          "usdcAmount": "The amount of USDC to deposit",
          "v": "secp256k1 signature component"
        }
      },
      "earnedSinceLastCheckpoint(uint256)": {
        "params": {
          "tokenId": "A staking position token ID"
        },
        "returns": {
          "_0": "Amount of rewards denominated in `rewardsToken().decimals()`"
        }
      },
      "getApproved(uint256)": {
        "details": "Gets the approved address for a token ID, or zero if no address set Reverts if the token ID does not exist.",
        "params": {
          "tokenId": "uint256 ID of the token to query the approval of"
        },
        "returns": {
          "_0": "address currently approved for the given token ID"
        }
      },
      "getBaseTokenExchangeRate(uint8)": {
        "params": {
          "positionType": "Type of the staked postion"
        }
      },
      "getReward(uint256)": {
        "params": {
          "tokenId": "A staking position token ID"
        }
      },
      "getRoleAdmin(bytes32)": {
        "details": "Returns the admin role that controls `role`. See {grantRole} and {revokeRole}. To change a role's admin, use {_setRoleAdmin}."
      },
      "getRoleMember(bytes32,uint256)": {
        "details": "Returns one of the accounts that have `role`. `index` must be a value between 0 and {getRoleMemberCount}, non-inclusive. Role bearers are not sorted in any particular way, and their ordering may change at any point. WARNING: When using {getRoleMember} and {getRoleMemberCount}, make sure you perform all queries on the same block. See the following https://forum.openzeppelin.com/t/iterating-over-elements-on-enumerableset-in-openzeppelin-contracts/2296[forum post] for more information."
      },
      "getRoleMemberCount(bytes32)": {
        "details": "Returns the number of accounts that have `role`. Can be used together with {getRoleMember} to enumerate all bearers of a role."
      },
      "grantRole(bytes32,address)": {
        "details": "Grants `role` to `account`. If `account` had not been already granted `role`, emits a {RoleGranted} event. Requirements: - the caller must have ``role``'s admin role."
      },
      "hasRole(bytes32,address)": {
        "details": "Returns `true` if `account` has been granted `role`."
      },
      "isApprovedForAll(address,address)": {
        "details": "Tells whether an operator is approved by a given owner.",
        "params": {
          "operator": "operator address which you want to query the approval of",
          "owner": "owner address which you want to query the approval of"
        },
        "returns": {
          "_0": "bool whether the given operator is approved by the given owner"
        }
      },
      "kick(uint256)": {
        "details": "This will also checkpoint their rewards up to the current time."
      },
      "name()": {
        "details": "Gets the token name.",
        "returns": {
          "_0": "string representing the token name"
        }
      },
      "ownerOf(uint256)": {
        "details": "Gets the owner of the specified token ID.",
        "params": {
          "tokenId": "uint256 ID of the token to query the owner of"
        },
        "returns": {
          "_0": "address currently marked as the owner of the given token ID"
        }
      },
      "pause()": {
        "details": "Pauses all token transfers. See {ERC721Pausable} and {Pausable-_pause}. Requirements: - the caller must have the `PAUSER_ROLE`."
      },
      "paused()": {
        "details": "Returns true if the contract is paused, and false otherwise."
      },
      "positionCurrentEarnRate(uint256)": {
        "returns": {
          "_0": "Amount of rewards denominated in `rewardsToken().decimals()`."
        }
      },
      "renounceRole(bytes32,address)": {
        "details": "Revokes `role` from the calling account. Roles are often managed via {grantRole} and {revokeRole}: this function's purpose is to provide a mechanism for accounts to lose their privileges if they are compromised (such as when a trusted device is misplaced). If the calling account had been granted `role`, emits a {RoleRevoked} event. Requirements: - the caller must be `account`."
      },
      "revokeRole(bytes32,address)": {
        "details": "Revokes `role` from `account`. If `account` had been granted `role`, emits a {RoleRevoked} event. Requirements: - the caller must have ``role``'s admin role."
      },
      "rewardPerToken()": {
        "returns": {
          "_0": "Amount of rewards denominated in `rewardsToken().decimals()`"
        }
      },
      "safeTransferFrom(address,address,uint256)": {
        "details": "Safely transfers the ownership of a given token ID to another address If the target address is a contract, it must implement {IERC721Receiver-onERC721Received}, which is called upon a safe transfer, and return the magic value `bytes4(keccak256(\"onERC721Received(address,address,uint256,bytes)\"))`; otherwise, the transfer is reverted. Requires the msg.sender to be the owner, approved, or operator",
        "params": {
          "from": "current owner of the token",
          "to": "address to receive the ownership of the given token ID",
          "tokenId": "uint256 ID of the token to be transferred"
        }
      },
      "safeTransferFrom(address,address,uint256,bytes)": {
        "details": "Safely transfers the ownership of a given token ID to another address If the target address is a contract, it must implement {IERC721Receiver-onERC721Received}, which is called upon a safe transfer, and return the magic value `bytes4(keccak256(\"onERC721Received(address,address,uint256,bytes)\"))`; otherwise, the transfer is reverted. Requires the _msgSender() to be the owner, approved, or operator",
        "params": {
          "_data": "bytes data to send along with a safe transfer check",
          "from": "current owner of the token",
          "to": "address to receive the ownership of the given token ID",
          "tokenId": "uint256 ID of the token to be transferred"
        }
      },
      "setApprovalForAll(address,bool)": {
        "details": "Sets or unsets the approval of a given operator An operator is allowed to transfer all tokens of the sender on their behalf.",
        "params": {
          "approved": "representing the status of the approval to be set",
          "operator": "operator address to set the approval"
        }
      },
      "setEffectiveMultiplier(uint256,uint8)": {
        "params": {
          "multiplier": "the new multiplier, denominated in `MULTIPLIER_DECIMALS`",
          "positionType": "the type of the position"
        }
      },
      "stake(uint256,uint8)": {
        "details": "This function checkpoints rewards.",
        "params": {
          "amount": "The amount of `stakingToken()` to stake",
          "positionType": "The type of the staked position"
        }
      },
      "stakedBalanceOf(uint256)": {
        "details": "The value returned is the bare amount, not the effective amount. The bare amount represents   the number of tokens the user has staked for a given position.",
        "params": {
          "tokenId": "A staking position token ID"
        },
        "returns": {
          "_0": "Amount of staked tokens denominated in `stakingToken().decimals()`"
        }
      },
      "supportsInterface(bytes4)": {
        "details": "See {IERC165-supportsInterface}. Time complexity O(1), guaranteed to always use less than 30 000 gas."
      },
      "symbol()": {
        "details": "Gets the token symbol.",
        "returns": {
          "_0": "string representing the token symbol"
        }
      },
      "tokenByIndex(uint256)": {
        "details": "Gets the token ID at a given index of all the tokens in this contract Reverts if the index is greater or equal to the total number of tokens.",
        "params": {
          "index": "uint256 representing the index to be accessed of the tokens list"
        },
        "returns": {
          "_0": "uint256 token ID at the given index of the tokens list"
        }
      },
      "tokenOfOwnerByIndex(address,uint256)": {
        "details": "Gets the token ID at a given index of the tokens list of the requested owner.",
        "params": {
          "index": "uint256 representing the index to be accessed of the requested tokens list",
          "owner": "address owning the tokens list to be accessed"
        },
        "returns": {
          "_0": "uint256 token ID at the given index of the tokens list owned by the requested address"
        }
      },
      "tokenURI(uint256)": {
        "details": "Returns the URI for a given token ID. May return an empty string. If a base URI is set (via {_setBaseURI}), it is added as a prefix to the token's own URI (via {_setTokenURI}). If there is a base URI but no token URI, the token's ID will be used as its URI when appending it to the base URI. This pattern for autogenerated token URIs can lead to large gas savings. .Examples |=== |`_setBaseURI()` |`_setTokenURI()` |`tokenURI()` | \"\" | \"\" | \"\" | \"\" | \"token.uri/123\" | \"token.uri/123\" | \"token.uri/\" | \"123\" | \"token.uri/123\" | \"token.uri/\" | \"\" | \"token.uri/<tokenId>\" |=== Requirements: - `tokenId` must exist."
      },
      "totalSupply()": {
        "details": "Gets the total amount of tokens stored by the contract.",
        "returns": {
          "_0": "uint256 representing the total amount of tokens"
        }
      },
      "totalVestedAt(uint256,uint256,uint256,uint256)": {
        "returns": {
          "rewards": "Amount of rewards denominated in `rewardsToken()`"
        }
      },
      "transferFrom(address,address,uint256)": {
        "details": "Transfers the ownership of a given token ID to another address. Usage of this method is discouraged, use {safeTransferFrom} whenever possible. Requires the msg.sender to be the owner, approved, or operator.",
        "params": {
          "from": "current owner of the token",
          "to": "address to receive the ownership of the given token ID",
          "tokenId": "uint256 ID of the token to be transferred"
        }
      },
      "unpause()": {
        "details": "Unpauses all token transfers. See {ERC721Pausable} and {Pausable-_unpause}. Requirements: - the caller must have the `PAUSER_ROLE`."
      },
      "unstake(uint256,uint256)": {
        "details": "This function checkpoints rewards",
        "params": {
          "amount": "Amount of `stakingToken()` to be unstaked from the position",
          "tokenId": "A staking position token ID"
        }
      },
      "unstakeMultiple(uint256[],uint256[])": {
        "details": "This function checkpoints rewards",
        "params": {
          "amounts": "A list of amounts of `stakingToken()` to be unstaked from the position",
          "tokenIds": "A list of position token IDs"
        }
      },
      "updatePositionEffectiveMultiplier(uint256)": {
        "details": "This will also checkpoint their rewards up to the current time."
      }
    },
    "stateVariables": {
      "effectiveMultipliers": {
        "details": "A mapping of staked position types to multipliers used to denominate positions   in `baseStakingToken()`. Represented with `MULTIPLIER_DECIMALS`."
      },
      "leverageMultipliers": {
        "details": "UNUSED (definition kept for storage slot)"
      },
      "positions": {
        "details": "NFT tokenId => staked position"
      },
      "totalLeveragedStakedSupply": {
        "details": "UNUSED (definition kept for storage slot)"
      },
      "totalStakedSupply": {
        "details": "Supply of staked tokens, denominated in `stakingToken().decimals()`Note that due to the use of `unsafeBaseTokenExchangeRate` and `unsafeEffectiveMultiplier` on a StakedPosition, the sum of `amount` across all staked positions will not necessarily equal this `totalStakedSupply` value; the purpose of the base token exchange rate and the effective multiplier is to enable calculation of an \"effective amount\" -- which is what this `totalStakedSupply` represents the sum of."
      }
    },
    "version": 1
  },
  "userdoc": {
    "kind": "user",
    "methods": {
      "accumulatedRewardsPerToken()": {
        "notice": "Accumulated rewards per token at the last checkpoint"
      },
      "addToStake(uint256,uint256)": {
        "notice": "Add to an existing position without affecting vesting schedule"
      },
      "claimableRewards(uint256)": {
        "notice": "Returns the rewards claimable by a given position token at the most recent checkpoint, taking into   account vesting schedule."
      },
      "currentEarnRatePerToken()": {
        "notice": "The amount of rewards currently being earned per token per second. This amount takes into   account how many rewards are actually available for disbursal -- unlike `rewardRate()` which does not.   This function is intended for public consumption, to know the rate at which rewards are being   earned, and not as an input to the mutative calculations in this contract."
      },
      "depositAndStake(uint256)": {
        "notice": "Deposit to SeniorPool and stake your shares in the same transaction."
      },
      "depositToCurve(uint256,uint256)": {
        "notice": "Deposits FIDU and USDC to Curve on behalf of the user. The Curve LP tokens will be minted   directly to the user's address"
      },
      "depositToCurveAndStakeFrom(address,uint256,uint256)": {
        "notice": "Deposit to FIDU and USDC into the Curve LP, and stake your Curve LP tokens in the same transaction."
      },
      "depositWithPermitAndStake(uint256,uint256,uint8,bytes32,bytes32)": {
        "notice": "Identical to `depositAndStake`, except it allows for a signature to be passed that permits   this contract to move funds on behalf of the user."
      },
      "earnedSinceLastCheckpoint(uint256)": {
        "notice": "Returns rewards earned by a given position token from its last checkpoint up to the   current block timestamp."
      },
      "getBaseTokenExchangeRate(uint8)": {
        "notice": "Calculate the exchange rate that will be used to convert the original staked token amount to the   `baseStakingToken()` amount. The exchange rate is denominated in `MULTIPLIER_DECIMALS`."
      },
      "getEffectiveMultiplierForPositionType(uint8)": {
        "notice": "The effective multiplier to use with new staked positions of the provided `positionType`,   for denominating them in terms of `baseStakingToken()`. This value is denominated in `MULTIPLIER_DECIMALS`."
      },
      "getReward(uint256)": {
        "notice": "Claim rewards for a given staked position"
      },
      "kick(uint256)": {
        "notice": "\"Kick\" a user's reward multiplier. If they are past their lock-up period, their reward   multiplier will be reset to 1x."
      },
      "lastUpdateTime()": {
        "notice": "The block timestamp when rewards were last checkpointed"
      },
      "loadRewards(uint256)": {
        "notice": "Transfer rewards from msg.sender, to be used for reward distribution"
      },
      "maxRate()": {
        "notice": "The maximum total disbursed rewards per second, denominated in `rewardsToken()`"
      },
      "maxRateAtPercent()": {
        "notice": "The percent of `targetCapacity` at which the reward rate reaches `maxRate`.  Represented with `MULTIPLIER_DECIMALS`."
      },
      "minRate()": {
        "notice": "The minimum total disbursed rewards per second, denominated in `rewardsToken()`"
      },
      "minRateAtPercent()": {
        "notice": "The percent of `targetCapacity` at which the reward rate reaches `minRate`.  Represented with `MULTIPLIER_DECIMALS`."
      },
      "positionCurrentEarnRate(uint256)": {
        "notice": "The amount of rewards currently being earned per second, for a given position. This function   is intended for public consumption, to know the rate at which rewards are being earned   for a given position, and not as an input to the mutative calculations in this contract."
      },
      "positionToAccumulatedRewardsPerToken(uint256)": {
        "notice": "StakedPosition tokenId => accumulatedRewardsPerToken at the position's last checkpoint"
      },
      "rewardPerToken()": {
        "notice": "Returns accumulated rewards per token up to the current block timestamp"
      },
      "rewardsAvailable()": {
        "notice": "Total rewards available for disbursement at the last checkpoint, denominated in `rewardsToken()`"
      },
      "setEffectiveMultiplier(uint256,uint8)": {
        "notice": "Set the effective multiplier for a given staked position type. The effective multipler  is used to denominate a staked position to `baseStakingToken()`. The multiplier is represented in  `MULTIPLIER_DECIMALS`"
      },
      "stake(uint256,uint8)": {
        "notice": "Stake `stakingToken()` to earn rewards. When you call this function, you'll receive an   an NFT representing your staked position. You can present your NFT to `getReward` or `unstake`   to claim rewards or unstake your tokens respectively. Rewards vest over a schedule."
      },
      "stakedBalanceOf(uint256)": {
        "notice": "Returns the staked balance of a given position token."
      },
      "targetCapacity()": {
        "notice": "Desired supply of staked tokens. The reward rate adjusts in a range   around this value to incentivize staking or unstaking to maintain it."
      },
      "totalVestedAt(uint256,uint256,uint256,uint256)": {
        "notice": "Returns the rewards that will have vested for some position with the given params."
      },
      "unstake(uint256,uint256)": {
        "notice": "Unstake an amount of `stakingToken()` associated with a given position and transfer to msg.sender.   Unvested rewards will be forfeited, but remaining staked amount will continue to accrue rewards.   Positions that are still locked cannot be unstaked until the position's lockedUntil time has passed."
      },
      "unstakeMultiple(uint256[],uint256[])": {
        "notice": "Unstake multiple positions and transfer to msg.sender."
      },
      "updatePositionEffectiveMultiplier(uint256)": {
        "notice": "Updates a user's effective multiplier to the prevailing multiplier. This function gives   users an option to get on a higher multiplier without needing to unstake and lose their unvested tokens."
      },
      "vestingLength()": {
        "notice": "The duration in seconds over which rewards vest"
      }
    },
    "version": 1
  },
  "storageLayout": {
    "storage": [
      {
        "astId": 151,
        "contract": "contracts/rewards/StakingRewards.sol:StakingRewards",
        "label": "initialized",
        "offset": 0,
        "slot": "0",
        "type": "t_bool"
      },
      {
        "astId": 154,
        "contract": "contracts/rewards/StakingRewards.sol:StakingRewards",
        "label": "initializing",
        "offset": 1,
        "slot": "0",
        "type": "t_bool"
      },
      {
        "astId": 219,
        "contract": "contracts/rewards/StakingRewards.sol:StakingRewards",
        "label": "______gap",
        "offset": 0,
        "slot": "1",
        "type": "t_array(t_uint256)50_storage"
      },
      {
        "astId": 144,
        "contract": "contracts/rewards/StakingRewards.sol:StakingRewards",
        "label": "__gap",
        "offset": 0,
        "slot": "51",
        "type": "t_array(t_uint256)50_storage"
      },
      {
        "astId": 264,
        "contract": "contracts/rewards/StakingRewards.sol:StakingRewards",
        "label": "_roles",
        "offset": 0,
        "slot": "101",
        "type": "t_mapping(t_bytes32,t_struct(RoleData)260_storage)"
      },
      {
        "astId": 509,
        "contract": "contracts/rewards/StakingRewards.sol:StakingRewards",
        "label": "__gap",
        "offset": 0,
        "slot": "102",
        "type": "t_array(t_uint256)49_storage"
      },
      {
        "astId": 527,
        "contract": "contracts/rewards/StakingRewards.sol:StakingRewards",
        "label": "_supportedInterfaces",
        "offset": 0,
        "slot": "151",
        "type": "t_mapping(t_bytes4,t_bool)"
      },
      {
        "astId": 584,
        "contract": "contracts/rewards/StakingRewards.sol:StakingRewards",
        "label": "__gap",
        "offset": 0,
        "slot": "152",
        "type": "t_array(t_uint256)49_storage"
      },
      {
        "astId": 2269,
        "contract": "contracts/rewards/StakingRewards.sol:StakingRewards",
        "label": "_holderTokens",
        "offset": 0,
        "slot": "201",
        "type": "t_mapping(t_address,t_struct(UintSet)4313_storage)"
      },
      {
        "astId": 2271,
        "contract": "contracts/rewards/StakingRewards.sol:StakingRewards",
        "label": "_tokenOwners",
        "offset": 0,
        "slot": "202",
        "type": "t_struct(UintToAddressMap)3838_storage"
      },
      {
        "astId": 2275,
        "contract": "contracts/rewards/StakingRewards.sol:StakingRewards",
        "label": "_tokenApprovals",
        "offset": 0,
        "slot": "204",
        "type": "t_mapping(t_uint256,t_address)"
      },
      {
        "astId": 2281,
        "contract": "contracts/rewards/StakingRewards.sol:StakingRewards",
        "label": "_operatorApprovals",
        "offset": 0,
        "slot": "205",
        "type": "t_mapping(t_address,t_mapping(t_address,t_bool))"
      },
      {
        "astId": 2283,
        "contract": "contracts/rewards/StakingRewards.sol:StakingRewards",
        "label": "_name",
        "offset": 0,
        "slot": "206",
        "type": "t_string_storage"
      },
      {
        "astId": 2285,
        "contract": "contracts/rewards/StakingRewards.sol:StakingRewards",
        "label": "_symbol",
        "offset": 0,
        "slot": "207",
        "type": "t_string_storage"
      },
      {
        "astId": 2289,
        "contract": "contracts/rewards/StakingRewards.sol:StakingRewards",
        "label": "_tokenURIs",
        "offset": 0,
        "slot": "208",
        "type": "t_mapping(t_uint256,t_string_storage)"
      },
      {
        "astId": 2291,
        "contract": "contracts/rewards/StakingRewards.sol:StakingRewards",
        "label": "_baseURI",
        "offset": 0,
        "slot": "209",
        "type": "t_string_storage"
      },
      {
        "astId": 3197,
        "contract": "contracts/rewards/StakingRewards.sol:StakingRewards",
        "label": "__gap",
        "offset": 0,
        "slot": "210",
        "type": "t_array(t_uint256)41_storage"
      },
      {
        "astId": 4429,
        "contract": "contracts/rewards/StakingRewards.sol:StakingRewards",
        "label": "_paused",
        "offset": 0,
        "slot": "251",
        "type": "t_bool"
      },
      {
        "astId": 4518,
        "contract": "contracts/rewards/StakingRewards.sol:StakingRewards",
        "label": "__gap",
        "offset": 0,
        "slot": "252",
        "type": "t_array(t_uint256)49_storage"
      },
      {
        "astId": 3265,
        "contract": "contracts/rewards/StakingRewards.sol:StakingRewards",
        "label": "__gap",
        "offset": 0,
        "slot": "301",
        "type": "t_array(t_uint256)50_storage"
      },
      {
        "astId": 7677,
        "contract": "contracts/rewards/StakingRewards.sol:StakingRewards",
        "label": "_tokenIdTracker",
        "offset": 0,
        "slot": "351",
        "type": "t_struct(Counter)3518_storage"
      },
      {
        "astId": 7735,
        "contract": "contracts/rewards/StakingRewards.sol:StakingRewards",
        "label": "__gap",
        "offset": 0,
        "slot": "352",
        "type": "t_array(t_uint256)49_storage"
      },
      {
        "astId": 4527,
        "contract": "contracts/rewards/StakingRewards.sol:StakingRewards",
        "label": "_notEntered",
        "offset": 0,
        "slot": "401",
        "type": "t_bool"
      },
      {
        "astId": 4568,
        "contract": "contracts/rewards/StakingRewards.sol:StakingRewards",
        "label": "__gap",
        "offset": 0,
        "slot": "402",
        "type": "t_array(t_uint256)49_storage"
      },
      {
        "astId": 32662,
        "contract": "contracts/rewards/StakingRewards.sol:StakingRewards",
        "label": "config",
        "offset": 0,
        "slot": "451",
        "type": "t_contract(GoldfinchConfig)17615"
      },
      {
        "astId": 32665,
        "contract": "contracts/rewards/StakingRewards.sol:StakingRewards",
        "label": "lastUpdateTime",
        "offset": 0,
        "slot": "452",
        "type": "t_uint256"
      },
      {
        "astId": 32668,
        "contract": "contracts/rewards/StakingRewards.sol:StakingRewards",
        "label": "accumulatedRewardsPerToken",
        "offset": 0,
        "slot": "453",
        "type": "t_uint256"
      },
      {
        "astId": 32671,
        "contract": "contracts/rewards/StakingRewards.sol:StakingRewards",
        "label": "rewardsAvailable",
        "offset": 0,
        "slot": "454",
        "type": "t_uint256"
      },
      {
        "astId": 32676,
        "contract": "contracts/rewards/StakingRewards.sol:StakingRewards",
        "label": "positionToAccumulatedRewardsPerToken",
        "offset": 0,
        "slot": "455",
        "type": "t_mapping(t_uint256,t_uint256)"
      },
      {
        "astId": 32679,
        "contract": "contracts/rewards/StakingRewards.sol:StakingRewards",
        "label": "targetCapacity",
        "offset": 0,
        "slot": "456",
        "type": "t_uint256"
      },
      {
        "astId": 32682,
        "contract": "contracts/rewards/StakingRewards.sol:StakingRewards",
        "label": "minRate",
        "offset": 0,
        "slot": "457",
        "type": "t_uint256"
      },
      {
        "astId": 32685,
        "contract": "contracts/rewards/StakingRewards.sol:StakingRewards",
        "label": "maxRate",
        "offset": 0,
        "slot": "458",
        "type": "t_uint256"
      },
      {
        "astId": 32688,
        "contract": "contracts/rewards/StakingRewards.sol:StakingRewards",
        "label": "maxRateAtPercent",
        "offset": 0,
        "slot": "459",
        "type": "t_uint256"
      },
      {
        "astId": 32691,
        "contract": "contracts/rewards/StakingRewards.sol:StakingRewards",
        "label": "minRateAtPercent",
        "offset": 0,
        "slot": "460",
        "type": "t_uint256"
      },
      {
        "astId": 32694,
        "contract": "contracts/rewards/StakingRewards.sol:StakingRewards",
        "label": "vestingLength",
        "offset": 0,
        "slot": "461",
        "type": "t_uint256"
      },
      {
        "astId": 32697,
        "contract": "contracts/rewards/StakingRewards.sol:StakingRewards",
        "label": "totalStakedSupply",
        "offset": 0,
        "slot": "462",
        "type": "t_uint256"
      },
      {
        "astId": 32700,
        "contract": "contracts/rewards/StakingRewards.sol:StakingRewards",
        "label": "totalLeveragedStakedSupply",
        "offset": 0,
        "slot": "463",
        "type": "t_uint256"
      },
      {
        "astId": 32705,
        "contract": "contracts/rewards/StakingRewards.sol:StakingRewards",
        "label": "leverageMultipliers",
        "offset": 0,
        "slot": "464",
        "type": "t_mapping(t_enum(LockupPeriod)32571,t_uint256)"
      },
      {
        "astId": 32710,
        "contract": "contracts/rewards/StakingRewards.sol:StakingRewards",
        "label": "positions",
        "offset": 0,
        "slot": "465",
        "type": "t_mapping(t_uint256,t_struct(StakedPosition)32589_storage)"
      },
      {
        "astId": 32715,
        "contract": "contracts/rewards/StakingRewards.sol:StakingRewards",
        "label": "effectiveMultipliers",
        "offset": 0,
        "slot": "466",
        "type": "t_mapping(t_enum(StakedPositionType)32574,t_uint256)"
      }
    ],
    "types": {
      "t_address": {
        "encoding": "inplace",
        "label": "address",
        "numberOfBytes": "20"
      },
      "t_array(t_bytes32)dyn_storage": {
        "base": "t_bytes32",
        "encoding": "dynamic_array",
        "label": "bytes32[]",
        "numberOfBytes": "32"
      },
      "t_array(t_struct(MapEntry)3566_storage)dyn_storage": {
        "base": "t_struct(MapEntry)3566_storage",
        "encoding": "dynamic_array",
        "label": "struct EnumerableMap.MapEntry[]",
        "numberOfBytes": "32"
      },
      "t_array(t_uint256)41_storage": {
        "base": "t_uint256",
        "encoding": "inplace",
        "label": "uint256[41]",
        "numberOfBytes": "1312"
      },
      "t_array(t_uint256)49_storage": {
        "base": "t_uint256",
        "encoding": "inplace",
        "label": "uint256[49]",
        "numberOfBytes": "1568"
      },
      "t_array(t_uint256)50_storage": {
        "base": "t_uint256",
        "encoding": "inplace",
        "label": "uint256[50]",
        "numberOfBytes": "1600"
      },
      "t_bool": {
        "encoding": "inplace",
        "label": "bool",
        "numberOfBytes": "1"
      },
      "t_bytes32": {
        "encoding": "inplace",
        "label": "bytes32",
        "numberOfBytes": "32"
      },
      "t_bytes4": {
        "encoding": "inplace",
        "label": "bytes4",
        "numberOfBytes": "4"
      },
      "t_contract(GoldfinchConfig)17615": {
        "encoding": "inplace",
        "label": "contract GoldfinchConfig",
        "numberOfBytes": "20"
      },
      "t_enum(LockupPeriod)32571": {
        "encoding": "inplace",
        "label": "enum StakingRewards.LockupPeriod",
        "numberOfBytes": "1"
      },
      "t_enum(StakedPositionType)32574": {
        "encoding": "inplace",
        "label": "enum StakingRewards.StakedPositionType",
        "numberOfBytes": "1"
      },
      "t_mapping(t_address,t_bool)": {
        "encoding": "mapping",
        "key": "t_address",
        "label": "mapping(address => bool)",
        "numberOfBytes": "32",
        "value": "t_bool"
      },
      "t_mapping(t_address,t_mapping(t_address,t_bool))": {
        "encoding": "mapping",
        "key": "t_address",
        "label": "mapping(address => mapping(address => bool))",
        "numberOfBytes": "32",
        "value": "t_mapping(t_address,t_bool)"
      },
      "t_mapping(t_address,t_struct(UintSet)4313_storage)": {
        "encoding": "mapping",
        "key": "t_address",
        "label": "mapping(address => struct EnumerableSet.UintSet)",
        "numberOfBytes": "32",
        "value": "t_struct(UintSet)4313_storage"
      },
      "t_mapping(t_bytes32,t_struct(RoleData)260_storage)": {
        "encoding": "mapping",
        "key": "t_bytes32",
        "label": "mapping(bytes32 => struct AccessControlUpgradeSafe.RoleData)",
        "numberOfBytes": "32",
        "value": "t_struct(RoleData)260_storage"
      },
      "t_mapping(t_bytes32,t_uint256)": {
        "encoding": "mapping",
        "key": "t_bytes32",
        "label": "mapping(bytes32 => uint256)",
        "numberOfBytes": "32",
        "value": "t_uint256"
      },
      "t_mapping(t_bytes4,t_bool)": {
        "encoding": "mapping",
        "key": "t_bytes4",
        "label": "mapping(bytes4 => bool)",
        "numberOfBytes": "32",
        "value": "t_bool"
      },
      "t_mapping(t_enum(LockupPeriod)32571,t_uint256)": {
        "encoding": "mapping",
        "key": "t_enum(LockupPeriod)32571",
        "label": "mapping(enum StakingRewards.LockupPeriod => uint256)",
        "numberOfBytes": "32",
        "value": "t_uint256"
      },
      "t_mapping(t_enum(StakedPositionType)32574,t_uint256)": {
        "encoding": "mapping",
        "key": "t_enum(StakedPositionType)32574",
        "label": "mapping(enum StakingRewards.StakedPositionType => uint256)",
        "numberOfBytes": "32",
        "value": "t_uint256"
      },
      "t_mapping(t_uint256,t_address)": {
        "encoding": "mapping",
        "key": "t_uint256",
        "label": "mapping(uint256 => address)",
        "numberOfBytes": "32",
        "value": "t_address"
      },
      "t_mapping(t_uint256,t_string_storage)": {
        "encoding": "mapping",
        "key": "t_uint256",
        "label": "mapping(uint256 => string)",
        "numberOfBytes": "32",
        "value": "t_string_storage"
      },
      "t_mapping(t_uint256,t_struct(StakedPosition)32589_storage)": {
        "encoding": "mapping",
        "key": "t_uint256",
        "label": "mapping(uint256 => struct StakingRewards.StakedPosition)",
        "numberOfBytes": "32",
        "value": "t_struct(StakedPosition)32589_storage"
      },
      "t_mapping(t_uint256,t_uint256)": {
        "encoding": "mapping",
        "key": "t_uint256",
        "label": "mapping(uint256 => uint256)",
        "numberOfBytes": "32",
        "value": "t_uint256"
      },
      "t_string_storage": {
        "encoding": "bytes",
        "label": "string",
        "numberOfBytes": "32"
      },
      "t_struct(AddressSet)4204_storage": {
        "encoding": "inplace",
        "label": "struct EnumerableSet.AddressSet",
        "members": [
          {
            "astId": 4203,
            "contract": "contracts/rewards/StakingRewards.sol:StakingRewards",
            "label": "_inner",
            "offset": 0,
            "slot": "0",
            "type": "t_struct(Set)4024_storage"
          }
        ],
        "numberOfBytes": "64"
      },
      "t_struct(Counter)3518_storage": {
        "encoding": "inplace",
        "label": "struct Counters.Counter",
        "members": [
          {
            "astId": 3517,
            "contract": "contracts/rewards/StakingRewards.sol:StakingRewards",
            "label": "_value",
            "offset": 0,
            "slot": "0",
            "type": "t_uint256"
          }
        ],
        "numberOfBytes": "32"
      },
      "t_struct(Map)3574_storage": {
        "encoding": "inplace",
        "label": "struct EnumerableMap.Map",
        "members": [
          {
            "astId": 3569,
            "contract": "contracts/rewards/StakingRewards.sol:StakingRewards",
            "label": "_entries",
            "offset": 0,
            "slot": "0",
            "type": "t_array(t_struct(MapEntry)3566_storage)dyn_storage"
          },
          {
            "astId": 3573,
            "contract": "contracts/rewards/StakingRewards.sol:StakingRewards",
            "label": "_indexes",
            "offset": 0,
            "slot": "1",
            "type": "t_mapping(t_bytes32,t_uint256)"
          }
        ],
        "numberOfBytes": "64"
      },
      "t_struct(MapEntry)3566_storage": {
        "encoding": "inplace",
        "label": "struct EnumerableMap.MapEntry",
        "members": [
          {
            "astId": 3563,
            "contract": "contracts/rewards/StakingRewards.sol:StakingRewards",
            "label": "_key",
            "offset": 0,
            "slot": "0",
            "type": "t_bytes32"
          },
          {
            "astId": 3565,
            "contract": "contracts/rewards/StakingRewards.sol:StakingRewards",
            "label": "_value",
            "offset": 0,
            "slot": "1",
            "type": "t_bytes32"
          }
        ],
        "numberOfBytes": "64"
      },
      "t_struct(Rewards)11256_storage": {
        "encoding": "inplace",
        "label": "struct StakingRewardsVesting.Rewards",
        "members": [
          {
            "astId": 11245,
            "contract": "contracts/rewards/StakingRewards.sol:StakingRewards",
            "label": "totalUnvested",
            "offset": 0,
            "slot": "0",
            "type": "t_uint256"
          },
          {
            "astId": 11247,
            "contract": "contracts/rewards/StakingRewards.sol:StakingRewards",
            "label": "totalVested",
            "offset": 0,
            "slot": "1",
            "type": "t_uint256"
          },
          {
            "astId": 11249,
            "contract": "contracts/rewards/StakingRewards.sol:StakingRewards",
            "label": "totalPreviouslyVested",
            "offset": 0,
            "slot": "2",
            "type": "t_uint256"
          },
          {
            "astId": 11251,
            "contract": "contracts/rewards/StakingRewards.sol:StakingRewards",
            "label": "totalClaimed",
            "offset": 0,
            "slot": "3",
            "type": "t_uint256"
          },
          {
            "astId": 11253,
            "contract": "contracts/rewards/StakingRewards.sol:StakingRewards",
            "label": "startTime",
            "offset": 0,
            "slot": "4",
            "type": "t_uint256"
          },
          {
            "astId": 11255,
            "contract": "contracts/rewards/StakingRewards.sol:StakingRewards",
            "label": "endTime",
            "offset": 0,
            "slot": "5",
            "type": "t_uint256"
          }
        ],
        "numberOfBytes": "192"
      },
      "t_struct(RoleData)260_storage": {
        "encoding": "inplace",
        "label": "struct AccessControlUpgradeSafe.RoleData",
        "members": [
          {
            "astId": 257,
            "contract": "contracts/rewards/StakingRewards.sol:StakingRewards",
            "label": "members",
            "offset": 0,
            "slot": "0",
            "type": "t_struct(AddressSet)4204_storage"
          },
          {
            "astId": 259,
            "contract": "contracts/rewards/StakingRewards.sol:StakingRewards",
            "label": "adminRole",
            "offset": 0,
            "slot": "2",
            "type": "t_bytes32"
          }
        ],
        "numberOfBytes": "96"
      },
      "t_struct(Set)4024_storage": {
        "encoding": "inplace",
        "label": "struct EnumerableSet.Set",
        "members": [
          {
            "astId": 4019,
            "contract": "contracts/rewards/StakingRewards.sol:StakingRewards",
            "label": "_values",
            "offset": 0,
            "slot": "0",
            "type": "t_array(t_bytes32)dyn_storage"
          },
          {
            "astId": 4023,
            "contract": "contracts/rewards/StakingRewards.sol:StakingRewards",
            "label": "_indexes",
            "offset": 0,
            "slot": "1",
            "type": "t_mapping(t_bytes32,t_uint256)"
          }
        ],
        "numberOfBytes": "64"
      },
      "t_struct(StakedPosition)32589_storage": {
        "encoding": "inplace",
        "label": "struct StakingRewards.StakedPosition",
        "members": [
          {
            "astId": 32576,
            "contract": "contracts/rewards/StakingRewards.sol:StakingRewards",
            "label": "amount",
            "offset": 0,
            "slot": "0",
            "type": "t_uint256"
          },
          {
            "astId": 32578,
            "contract": "contracts/rewards/StakingRewards.sol:StakingRewards",
            "label": "rewards",
            "offset": 0,
            "slot": "1",
            "type": "t_struct(Rewards)11256_storage"
          },
          {
            "astId": 32580,
            "contract": "contracts/rewards/StakingRewards.sol:StakingRewards",
            "label": "leverageMultiplier",
            "offset": 0,
            "slot": "7",
            "type": "t_uint256"
          },
          {
            "astId": 32582,
            "contract": "contracts/rewards/StakingRewards.sol:StakingRewards",
            "label": "lockedUntil",
            "offset": 0,
            "slot": "8",
            "type": "t_uint256"
          },
          {
            "astId": 32584,
            "contract": "contracts/rewards/StakingRewards.sol:StakingRewards",
            "label": "positionType",
            "offset": 0,
            "slot": "9",
            "type": "t_enum(StakedPositionType)32574"
          },
          {
            "astId": 32586,
            "contract": "contracts/rewards/StakingRewards.sol:StakingRewards",
            "label": "unsafeEffectiveMultiplier",
            "offset": 0,
            "slot": "10",
            "type": "t_uint256"
          },
          {
            "astId": 32588,
            "contract": "contracts/rewards/StakingRewards.sol:StakingRewards",
            "label": "unsafeBaseTokenExchangeRate",
            "offset": 0,
            "slot": "11",
            "type": "t_uint256"
          }
        ],
        "numberOfBytes": "384"
      },
      "t_struct(UintSet)4313_storage": {
        "encoding": "inplace",
        "label": "struct EnumerableSet.UintSet",
        "members": [
          {
            "astId": 4312,
            "contract": "contracts/rewards/StakingRewards.sol:StakingRewards",
            "label": "_inner",
            "offset": 0,
            "slot": "0",
            "type": "t_struct(Set)4024_storage"
          }
        ],
        "numberOfBytes": "64"
      },
      "t_struct(UintToAddressMap)3838_storage": {
        "encoding": "inplace",
        "label": "struct EnumerableMap.UintToAddressMap",
        "members": [
          {
            "astId": 3837,
            "contract": "contracts/rewards/StakingRewards.sol:StakingRewards",
            "label": "_inner",
            "offset": 0,
            "slot": "0",
            "type": "t_struct(Map)3574_storage"
          }
        ],
        "numberOfBytes": "64"
      },
      "t_uint256": {
        "encoding": "inplace",
        "label": "uint256",
        "numberOfBytes": "32"
      }
    }
  }
}