{
  "address": "0xA627dBDF7979FB129ADd99F25a60c5b3141FD2E0",
  "abi": [
    {
      "inputs": [
        {
          "internalType": "uint256",
          "name": "initialSupply",
          "type": "uint256"
        },
        {
          "internalType": "uint8",
          "name": "decimals",
          "type": "uint8"
        },
        {
          "internalType": "contract IGoldfinchConfig",
          "name": "_config",
          "type": "address"
        }
      ],
      "stateMutability": "nonpayable",
      "type": "constructor"
    },
    {
      "anonymous": false,
      "inputs": [
        {
          "indexed": true,
          "internalType": "address",
          "name": "owner",
          "type": "address"
        },
        {
          "indexed": true,
          "internalType": "address",
          "name": "spender",
          "type": "address"
        },
        {
          "indexed": false,
          "internalType": "uint256",
          "name": "value",
          "type": "uint256"
        }
      ],
      "name": "Approval",
      "type": "event"
    },
    {
      "anonymous": false,
      "inputs": [
        {
          "indexed": true,
          "internalType": "address",
          "name": "from",
          "type": "address"
        },
        {
          "indexed": true,
          "internalType": "address",
          "name": "to",
          "type": "address"
        },
        {
          "indexed": false,
          "internalType": "uint256",
          "name": "value",
          "type": "uint256"
        }
      ],
      "name": "Transfer",
      "type": "event"
    },
    {
      "inputs": [],
      "name": "DOMAIN_SEPARATOR",
      "outputs": [
        {
          "internalType": "bytes32",
          "name": "",
          "type": "bytes32"
        }
      ],
      "stateMutability": "view",
      "type": "function"
    },
    {
      "inputs": [
        {
          "internalType": "uint256",
          "name": "index",
          "type": "uint256"
        },
        {
          "internalType": "uint256",
          "name": "balance",
          "type": "uint256"
        }
      ],
      "name": "_setBalance",
      "outputs": [],
      "stateMutability": "nonpayable",
      "type": "function"
    },
    {
      "inputs": [
        {
          "internalType": "uint256",
          "name": "newSlippage",
          "type": "uint256"
        }
      ],
      "name": "_setSlippage",
      "outputs": [],
      "stateMutability": "nonpayable",
      "type": "function"
    },
    {
      "inputs": [
        {
          "internalType": "uint256",
          "name": "newTotalSupply",
          "type": "uint256"
        }
      ],
      "name": "_setTotalSupply",
      "outputs": [],
      "stateMutability": "nonpayable",
      "type": "function"
    },
    {
      "inputs": [
        {
          "internalType": "uint256",
          "name": "new_virtual_price",
          "type": "uint256"
        }
      ],
      "name": "_set_virtual_price",
      "outputs": [],
      "stateMutability": "nonpayable",
      "type": "function"
    },
    {
      "inputs": [
        {
          "internalType": "uint256[2]",
          "name": "amounts",
          "type": "uint256[2]"
        },
        {
          "internalType": "uint256",
          "name": "min_mint_amount",
          "type": "uint256"
        },
        {
          "internalType": "bool",
          "name": "use_eth",
          "type": "bool"
        },
        {
          "internalType": "address",
          "name": "receiver",
          "type": "address"
        }
      ],
      "name": "add_liquidity",
      "outputs": [
        {
          "internalType": "uint256",
          "name": "",
          "type": "uint256"
        }
      ],
      "stateMutability": "nonpayable",
      "type": "function"
    },
    {
      "inputs": [
        {
          "internalType": "address",
          "name": "owner",
          "type": "address"
        },
        {
          "internalType": "address",
          "name": "spender",
          "type": "address"
        }
      ],
      "name": "allowance",
      "outputs": [
        {
          "internalType": "uint256",
          "name": "",
          "type": "uint256"
        }
      ],
      "stateMutability": "view",
      "type": "function"
    },
    {
      "inputs": [
        {
          "internalType": "address",
          "name": "spender",
          "type": "address"
        },
        {
          "internalType": "uint256",
          "name": "amount",
          "type": "uint256"
        }
      ],
      "name": "approve",
      "outputs": [
        {
          "internalType": "bool",
          "name": "",
          "type": "bool"
        }
      ],
      "stateMutability": "nonpayable",
      "type": "function"
    },
    {
      "inputs": [
        {
          "internalType": "address",
          "name": "account",
          "type": "address"
        }
      ],
      "name": "balanceOf",
      "outputs": [
        {
          "internalType": "uint256",
          "name": "",
          "type": "uint256"
        }
      ],
      "stateMutability": "view",
      "type": "function"
    },
    {
      "inputs": [
        {
          "internalType": "uint256",
          "name": "index",
          "type": "uint256"
        }
      ],
      "name": "balances",
      "outputs": [
        {
          "internalType": "uint256",
          "name": "",
          "type": "uint256"
        }
      ],
      "stateMutability": "view",
      "type": "function"
    },
    {
      "inputs": [
        {
          "internalType": "uint256[2]",
          "name": "amounts",
          "type": "uint256[2]"
        }
      ],
      "name": "calc_token_amount",
      "outputs": [
        {
          "internalType": "uint256",
          "name": "",
          "type": "uint256"
        }
      ],
      "stateMutability": "view",
      "type": "function"
    },
    {
      "inputs": [],
      "name": "config",
      "outputs": [
        {
          "internalType": "contract IGoldfinchConfig",
          "name": "",
          "type": "address"
        }
      ],
      "stateMutability": "view",
      "type": "function"
    },
    {
      "inputs": [],
      "name": "decimals",
      "outputs": [
        {
          "internalType": "uint8",
          "name": "",
          "type": "uint8"
        }
      ],
      "stateMutability": "view",
      "type": "function"
    },
    {
      "inputs": [
        {
          "internalType": "address",
          "name": "spender",
          "type": "address"
        },
        {
          "internalType": "uint256",
          "name": "subtractedValue",
          "type": "uint256"
        }
      ],
      "name": "decreaseAllowance",
      "outputs": [
        {
          "internalType": "bool",
          "name": "",
          "type": "bool"
        }
      ],
      "stateMutability": "nonpayable",
      "type": "function"
    },
    {
      "inputs": [
        {
          "internalType": "uint256",
          "name": "i",
          "type": "uint256"
        },
        {
          "internalType": "uint256",
          "name": "j",
          "type": "uint256"
        },
        {
          "internalType": "uint256",
          "name": "dx",
          "type": "uint256"
        },
        {
          "internalType": "uint256",
          "name": "min_dy",
          "type": "uint256"
        }
      ],
      "name": "exchange",
      "outputs": [
        {
          "internalType": "uint256",
          "name": "",
          "type": "uint256"
        }
      ],
      "stateMutability": "nonpayable",
      "type": "function"
    },
    {
      "inputs": [
        {
          "internalType": "uint256",
          "name": "i",
          "type": "uint256"
        },
        {
          "internalType": "uint256",
          "name": "j",
          "type": "uint256"
        },
        {
          "internalType": "uint256",
          "name": "dx",
          "type": "uint256"
        }
      ],
      "name": "get_dy",
      "outputs": [
        {
          "internalType": "uint256",
          "name": "",
          "type": "uint256"
        }
      ],
      "stateMutability": "view",
      "type": "function"
    },
    {
      "inputs": [],
      "name": "get_virtual_price",
      "outputs": [
        {
          "internalType": "uint256",
          "name": "",
          "type": "uint256"
        }
      ],
      "stateMutability": "view",
      "type": "function"
    },
    {
      "inputs": [
        {
          "internalType": "address",
          "name": "spender",
          "type": "address"
        },
        {
          "internalType": "uint256",
          "name": "addedValue",
          "type": "uint256"
        }
      ],
      "name": "increaseAllowance",
      "outputs": [
        {
          "internalType": "bool",
          "name": "",
          "type": "bool"
        }
      ],
      "stateMutability": "nonpayable",
      "type": "function"
    },
    {
      "inputs": [],
      "name": "lp_price",
      "outputs": [
        {
          "internalType": "uint256",
          "name": "",
          "type": "uint256"
        }
      ],
      "stateMutability": "view",
      "type": "function"
    },
    {
      "inputs": [],
      "name": "name",
      "outputs": [
        {
          "internalType": "string",
          "name": "",
          "type": "string"
        }
      ],
      "stateMutability": "view",
      "type": "function"
    },
    {
      "inputs": [
        {
          "internalType": "address",
          "name": "owner",
          "type": "address"
        }
      ],
      "name": "nonces",
      "outputs": [
        {
          "internalType": "uint256",
          "name": "",
          "type": "uint256"
        }
      ],
      "stateMutability": "view",
      "type": "function"
    },
    {
      "inputs": [
        {
          "internalType": "address",
          "name": "owner",
          "type": "address"
        },
        {
          "internalType": "address",
          "name": "spender",
          "type": "address"
        },
        {
          "internalType": "uint256",
          "name": "value",
          "type": "uint256"
        },
        {
          "internalType": "uint256",
          "name": "deadline",
          "type": "uint256"
        },
        {
          "internalType": "uint8",
          "name": "v",
          "type": "uint8"
        },
        {
          "internalType": "bytes32",
          "name": "r",
          "type": "bytes32"
        },
        {
          "internalType": "bytes32",
          "name": "s",
          "type": "bytes32"
        }
      ],
      "name": "permit",
      "outputs": [],
      "stateMutability": "nonpayable",
      "type": "function"
    },
    {
      "inputs": [
        {
          "internalType": "uint256",
          "name": "_amount",
          "type": "uint256"
        },
        {
          "internalType": "uint256[2]",
          "name": "min_amounts",
          "type": "uint256[2]"
        }
      ],
      "name": "remove_liquidity",
      "outputs": [
        {
          "internalType": "uint256",
          "name": "",
          "type": "uint256"
        }
      ],
      "stateMutability": "nonpayable",
      "type": "function"
    },
    {
      "inputs": [
        {
          "internalType": "uint256",
          "name": "token_amount",
          "type": "uint256"
        },
        {
          "internalType": "uint256",
          "name": "i",
          "type": "uint256"
        },
        {
          "internalType": "uint256",
          "name": "min_amount",
          "type": "uint256"
        }
      ],
      "name": "remove_liquidity_one_coin",
      "outputs": [
        {
          "internalType": "uint256",
          "name": "",
          "type": "uint256"
        }
      ],
      "stateMutability": "nonpayable",
      "type": "function"
    },
    {
      "inputs": [],
      "name": "symbol",
      "outputs": [
        {
          "internalType": "string",
          "name": "",
          "type": "string"
        }
      ],
      "stateMutability": "view",
      "type": "function"
    },
    {
      "inputs": [],
      "name": "token",
      "outputs": [
        {
          "internalType": "address",
          "name": "",
          "type": "address"
        }
      ],
      "stateMutability": "view",
      "type": "function"
    },
    {
      "inputs": [],
      "name": "totalSupply",
      "outputs": [
        {
          "internalType": "uint256",
          "name": "",
          "type": "uint256"
        }
      ],
      "stateMutability": "view",
      "type": "function"
    },
    {
      "inputs": [
        {
          "internalType": "address",
          "name": "recipient",
          "type": "address"
        },
        {
          "internalType": "uint256",
          "name": "amount",
          "type": "uint256"
        }
      ],
      "name": "transfer",
      "outputs": [
        {
          "internalType": "bool",
          "name": "",
          "type": "bool"
        }
      ],
      "stateMutability": "nonpayable",
      "type": "function"
    },
    {
      "inputs": [
        {
          "internalType": "address",
          "name": "sender",
          "type": "address"
        },
        {
          "internalType": "address",
          "name": "recipient",
          "type": "address"
        },
        {
          "internalType": "uint256",
          "name": "amount",
          "type": "uint256"
        }
      ],
      "name": "transferFrom",
      "outputs": [
        {
          "internalType": "bool",
          "name": "",
          "type": "bool"
        }
      ],
      "stateMutability": "nonpayable",
      "type": "function"
    }
  ],
  "transactionHash": "0xd2a9fe9d649f1b4be466a6c6045b8bbf8112447f65dcde9117abcc99956acd49",
  "args": [
    "10000000000000000000000000000000",
    "18",
    "0x68a55d2C626C2909f60992f688e74da06c843bF3"
  ],
  "solcInputHash": "a67c4f293a964d2cac7bbf8c9f65d46c",
  "bytecode": "0x7f6e71edae12b1b97f4d1f60370fef10105fa2faae0126114a169c64845d6126c961012052670de0b6b3a764000060088190556009819055610180604052610140818152610160919091526200005a90600a90600262000393565b50670de0b6b3a7640000600c553480156200007457600080fd5b5060405162001e1038038062001e1083398101604081905262000097916200046b565b604051806040016040528060128152602001714c5020464944552d5553444320437572766560701b81525080604051806040016040528060018152602001603160f81b815250604051806040016040528060128152602001714c5020464944552d5553444320437572766560701b8152506040518060400160405280600d81526020016c4649445555534443435552564560981b815250816003908051906020019062000146929190620003e1565b5080516200015c906004906020840190620003e1565b50506005805460ff1916601217905550815160208084019190912082519183019190912060c082905260e08190527f8b73c3c69bb8fe3d512ecc4cf759cc79239f7b179b0ffacaa9a75d522b39400f620001b562000214565b60a052620001c581848462000218565b6080526101005250620001df9350859250506200025d9050565b620001eb338462000273565b600780546001600160a01b0319166001600160a01b039290921691909117905550620005639050565b4690565b60008383836200022762000214565b306040516020016200023e959493929190620004c0565b6040516020818303038152906040528051906020012090509392505050565b6005805460ff191660ff92909216919091179055565b6001600160a01b038216620002a55760405162461bcd60e51b81526004016200029c9062000523565b60405180910390fd5b620002b3600083836200035f565b620002cf816002546200036460201b620009d11790919060201c565b6002556001600160a01b0382166000908152602081815260409091205462000302918390620009d162000364821b17901c565b6001600160a01b0383166000818152602081905260408082209390935591519091907fddf252ad1be2c89b69c2b068fc378daa952ba7f163c4a11628f55a4df523b3ef90620003539085906200055a565b60405180910390a35050565b505050565b6000828201838110156200038c5760405162461bcd60e51b81526004016200029c90620004ec565b9392505050565b8260028101928215620003cf579160200282015b82811115620003cf57825182906001600160401b0316905591602001919060010190620003a7565b50620003dd92915062000454565b5090565b828054600181600116156101000203166002900490600052602060002090601f016020900481019282601f106200042457805160ff1916838001178555620003cf565b82800160010185558215620003cf579182015b82811115620003cf57825182559160200191906001019062000437565b5b80821115620003dd576000815560010162000455565b60008060006060848603121562000480578283fd5b83519250602084015160ff8116811462000498578283fd5b60408501519092506001600160a01b0381168114620004b5578182fd5b809150509250925092565b9485526020850193909352604084019190915260608301526001600160a01b0316608082015260a00190565b6020808252601b908201527f536166654d6174683a206164646974696f6e206f766572666c6f770000000000604082015260600190565b6020808252601f908201527f45524332303a206d696e7420746f20746865207a65726f206164647265737300604082015260600190565b90815260200190565b60805160a05160c05160e0516101005161012051611863620005ad600039806108ba525080610c53525080610c95525080610c74525080610bfa525080610c2a52506118636000f3fe608060405234801561001057600080fd5b506004361061018f5760003560e01c80636e066ee2116100e4578063a457c2d711610092578063a457c2d714610322578063a9059cbb14610335578063bb7b8b8014610348578063d505accf14610350578063dcd283ea14610363578063dd62ed3e14610376578063f1dc3cc91461026d578063fc0c546a146103895761018f565b80636e066ee2146102a657806370a08231146102b95780637328333b146102cc57806379502c55146102df5780637ecebe00146102f45780638d8ea7271461030757806395d89b411461031a5761018f565b80633950935111610141578063395093511461022c5780633ba680121461023f5780634903b0d11461025257806354f0f7d514610265578063556d6e9f1461026d5780635b36389c146102805780635b41b908146102935761018f565b8063017838eb1461019457806306fdde03146101a9578063095ea7b3146101c757806318160ddd146101e757806323b872dd146101fc578063313ce5671461020f5780633644e51514610224575b600080fd5b6101a76101a236600461124a565b610391565b005b6101b1610396565b6040516101be91906113f0565b60405180910390f35b6101da6101d5366004611197565b61042d565b6040516101be919061135e565b6101ef61044b565b6040516101be9190611369565b6101da61020a3660046110e2565b610451565b6102176104d8565b6040516101be9190611786565b6101ef6104e1565b6101da61023a366004611197565b6104f0565b6101a761024d36600461124a565b61053e565b6101ef61026036600461124a565b610543565b6101ef61055a565b6101ef61027b3660046112af565b61056f565b6101ef61028e366004611262565b610578565b6101ef6102a13660046112da565b610580565b6101a76102b436600461128e565b61058a565b6101ef6102c7366004611072565b61059e565b6101ef6102da3660046111dd565b6105b9565b6102e761073f565b6040516101be9190611326565b6101ef610302366004611072565b61074e565b6101ef6103153660046111c2565b61076f565b6101b161079d565b6101da610330366004611197565b6107fe565b6101da610343366004611197565b610866565b6101ef61087a565b6101a761035e366004611122565b610880565b6101a761037136600461124a565b61099d565b6101ef6103843660046110aa565b6109a2565b6102e76109cd565b600c55565b60038054604080516020601f60026000196101006001881615020190951694909404938401819004810282018101909252828152606093909290918301828280156104225780601f106103f757610100808354040283529160200191610422565b820191906000526020600020905b81548152906001019060200180831161040557829003601f168201915b505050505090505b90565b600061044161043a6109fd565b8484610a01565b5060015b92915050565b600c5490565b600061045e848484610ab5565b6104ce8461046a6109fd565b6104c9856040518060600160405280602881526020016117e1602891396001600160a01b038a166000908152600160205260408120906104a86109fd565b6001600160a01b031681526020810191909152604001600020549190610bca565b610a01565b5060019392505050565b60055460ff1690565b60006104eb610bf6565b905090565b60006104416104fd6109fd565b846104c9856001600061050e6109fd565b6001600160a01b03908116825260208083019390935260409182016000908120918c1681529252902054906109d1565b600855565b6000600a826002811061055257fe5b015492915050565b60006104eb670de0b6b3a76400006002610cc0565b60009392505050565b600092915050565b6000949350505050565b80600a836002811061059857fe5b01555050565b6001600160a01b031660009081526020819052604090205490565b60006105c3610cfa565b85516040516323b872dd60e01b81526001600160a01b0392909216916323b872dd916105f5913391309160040161133a565b602060405180830381600087803b15801561060f57600080fd5b505af1158015610623573d6000803e3d6000fd5b505050506040513d601f19601f82011682018060405250810190610647919061122e565b50610650610d7f565b60208601516040516323b872dd60e01b81526001600160a01b0392909216916323b872dd91610685913391309160040161133a565b602060405180830381600087803b15801561069f57600080fd5b505af11580156106b3573d6000803e3d6000fd5b505050506040513d601f19601f820116820180604052508101906106d7919061122e565b506000610701670de0b6b3a76400006106fb6009546106f58a61076f565b90610cc0565b90610d9a565b90508481101561072c5760405162461bcd60e51b8152600401610723906115aa565b60405180910390fd5b6107368382610dcc565b95945050505050565b6007546001600160a01b031681565b6001600160a01b038116600090815260066020526040812061044590610e8c565b6000610445610795620f42406106fb670de0b6b3a7640000866001602002015190610cc0565b8351906109d1565b60048054604080516020601f60026000196101006001881615020190951694909404938401819004810282018101909252828152606093909290918301828280156104225780601f106103f757610100808354040283529160200191610422565b600061044161080b6109fd565b846104c98560405180606001604052806025815260200161180960259139600160006108356109fd565b6001600160a01b03908116825260208083019390935260409182016000908120918d16815292529020549190610bca565b60006104416108736109fd565b8484610ab5565b60085490565b834211156108a05760405162461bcd60e51b815260040161072390611531565b6001600160a01b03871660009081526006602052604081207f0000000000000000000000000000000000000000000000000000000000000000908990899089906108e990610e8c565b896040516020016108ff96959493929190611372565b604051602081830303815290604052805190602001209050600061092282610e90565b9050600061093282878787610ec9565b9050896001600160a01b0316816001600160a01b0316146109655760405162461bcd60e51b81526004016107239061168f565b6001600160a01b038a16600090815260066020526040902061098690610fac565b6109918a8a8a610a01565b50505050505050505050565b600955565b6001600160a01b03918216600090815260016020908152604080832093909416825291909152205490565b3090565b6000828201838110156109f65760405162461bcd60e51b8152600401610723906114fa565b9392505050565b3390565b6001600160a01b038316610a275760405162461bcd60e51b81526004016107239061170b565b6001600160a01b038216610a4d5760405162461bcd60e51b8152600401610723906114b8565b6001600160a01b0380841660008181526001602090815260408083209487168084529490915290819020849055517f8c5be1e5ebec7d5bd14f71427d1e84f3dd0314c0f7b2291e5b200ac8c7c3b92590610aa8908590611369565b60405180910390a3505050565b6001600160a01b038316610adb5760405162461bcd60e51b8152600401610723906116c6565b6001600160a01b038216610b015760405162461bcd60e51b815260040161072390611475565b610b0c838383610fb5565b610b49816040518060600160405280602681526020016117bb602691396001600160a01b0386166000908152602081905260409020549190610bca565b6001600160a01b038085166000908152602081905260408082209390935590841681522054610b7890826109d1565b6001600160a01b0380841660008181526020819052604090819020939093559151908516907fddf252ad1be2c89b69c2b068fc378daa952ba7f163c4a11628f55a4df523b3ef90610aa8908590611369565b60008184841115610bee5760405162461bcd60e51b815260040161072391906113f0565b505050900390565b60007f0000000000000000000000000000000000000000000000000000000000000000610c21610fba565b1415610c4e57507f000000000000000000000000000000000000000000000000000000000000000061042a565b610cb97f00000000000000000000000000000000000000000000000000000000000000007f00000000000000000000000000000000000000000000000000000000000000007f0000000000000000000000000000000000000000000000000000000000000000610fbe565b905061042a565b600082610ccf57506000610445565b82820282848281610cdc57fe5b04146109f65760405162461bcd60e51b81526004016107239061164e565b6007546000906001600160a01b031663b93f9b0a60045b6040518263ffffffff1660e01b8152600401610d2d9190611369565b602060405180830381600087803b158015610d4757600080fd5b505af1158015610d5b573d6000803e3d6000fd5b505050506040513d601f19601f820116820180604052508101906104eb919061108e565b6007546000906001600160a01b031663b93f9b0a6005610d11565b6000808211610dbb5760405162461bcd60e51b8152600401610723906115d5565b818381610dc457fe5b049392505050565b6001600160a01b038216610df25760405162461bcd60e51b81526004016107239061174f565b610dfe60008383610fb5565b600254610e0b90826109d1565b6002556001600160a01b038216600090815260208190526040902054610e3190826109d1565b6001600160a01b0383166000818152602081905260408082209390935591519091907fddf252ad1be2c89b69c2b068fc378daa952ba7f163c4a11628f55a4df523b3ef90610e80908590611369565b60405180910390a35050565b5490565b6000610e9a610bf6565b82604051602001610eac92919061130b565b604051602081830303815290604052805190602001209050919050565b60006fa2a8918ca85bafe22016d0b997e4df60600160ff1b03821115610f015760405162461bcd60e51b815260040161072390611568565b8360ff16601b1480610f1657508360ff16601c145b610f325760405162461bcd60e51b81526004016107239061160c565b600060018686868660405160008152602001604052604051610f5794939291906113d2565b6020604051602081039080840390855afa158015610f79573d6000803e3d6000fd5b5050604051601f1901519150506001600160a01b0381166107365760405162461bcd60e51b815260040161072390611443565b80546001019055565b505050565b4690565b6000838383610fcb610fba565b30604051602001610fe09594939291906113a6565b6040516020818303038152906040528051906020012090509392505050565b600082601f83011261100f578081fd5b6040516040810181811067ffffffffffffffff8211171561102e578283fd5b8060405250809150828460408501111561104757600080fd5b60005b600281101561106957813583526020928301929091019060010161104a565b50505092915050565b600060208284031215611083578081fd5b81356109f681611794565b60006020828403121561109f578081fd5b81516109f681611794565b600080604083850312156110bc578081fd5b82356110c781611794565b915060208301356110d781611794565b809150509250929050565b6000806000606084860312156110f6578081fd5b833561110181611794565b9250602084013561111181611794565b929592945050506040919091013590565b600080600080600080600060e0888a03121561113c578283fd5b873561114781611794565b9650602088013561115781611794565b95506040880135945060608801359350608088013560ff8116811461117a578384fd5b9699959850939692959460a0840135945060c09093013592915050565b600080604083850312156111a9578182fd5b82356111b481611794565b946020939093013593505050565b6000604082840312156111d3578081fd5b6109f68383610fff565b60008060008060a085870312156111f2578384fd5b6111fc8686610fff565b9350604085013592506060850135611213816117ac565b9150608085013561122381611794565b939692955090935050565b60006020828403121561123f578081fd5b81516109f6816117ac565b60006020828403121561125b578081fd5b5035919050565b60008060608385031215611274578182fd5b823591506112858460208501610fff565b90509250929050565b600080604083850312156112a0578182fd5b50508035926020909101359150565b6000806000606084860312156112c3578283fd5b505081359360208301359350604090920135919050565b600080600080608085870312156112ef578182fd5b5050823594602084013594506040840135936060013592509050565b61190160f01b81526002810192909252602282015260420190565b6001600160a01b0391909116815260200190565b6001600160a01b039384168152919092166020820152604081019190915260600190565b901515815260200190565b90815260200190565b9586526001600160a01b0394851660208701529290931660408501526060840152608083019190915260a082015260c00190565b9485526020850193909352604084019190915260608301526001600160a01b0316608082015260a00190565b93845260ff9290921660208401526040830152606082015260800190565b6000602080835283518082850152825b8181101561141c57858101830151858201604001528201611400565b8181111561142d5783604083870101525b50601f01601f1916929092016040019392505050565b60208082526018908201527745434453413a20696e76616c6964207369676e617475726560401b604082015260600190565b60208082526023908201527f45524332303a207472616e7366657220746f20746865207a65726f206164647260408201526265737360e81b606082015260800190565b60208082526022908201527f45524332303a20617070726f766520746f20746865207a65726f206164647265604082015261737360f01b606082015260800190565b6020808252601b908201527f536166654d6174683a206164646974696f6e206f766572666c6f770000000000604082015260600190565b6020808252601d908201527f45524332305065726d69743a206578706972656420646561646c696e65000000604082015260600190565b60208082526022908201527f45434453413a20696e76616c6964207369676e6174757265202773272076616c604082015261756560f01b606082015260800190565b6020808252601190820152700a6d8d2e0e0c2ceca40e8dede40d0d2ced607b1b604082015260600190565b6020808252601a908201527f536166654d6174683a206469766973696f6e206279207a65726f000000000000604082015260600190565b60208082526022908201527f45434453413a20696e76616c6964207369676e6174757265202776272076616c604082015261756560f01b606082015260800190565b60208082526021908201527f536166654d6174683a206d756c7469706c69636174696f6e206f766572666c6f6040820152607760f81b606082015260800190565b6020808252601e908201527f45524332305065726d69743a20696e76616c6964207369676e61747572650000604082015260600190565b60208082526025908201527f45524332303a207472616e736665722066726f6d20746865207a65726f206164604082015264647265737360d81b606082015260800190565b60208082526024908201527f45524332303a20617070726f76652066726f6d20746865207a65726f206164646040820152637265737360e01b606082015260800190565b6020808252601f908201527f45524332303a206d696e7420746f20746865207a65726f206164647265737300604082015260600190565b60ff91909116815260200190565b6001600160a01b03811681146117a957600080fd5b50565b80151581146117a957600080fdfe45524332303a207472616e7366657220616d6f756e7420657863656564732062616c616e636545524332303a207472616e7366657220616d6f756e74206578636565647320616c6c6f77616e636545524332303a2064656372656173656420616c6c6f77616e63652062656c6f77207a65726fa26469706673582212208dc60b5f1fb33595b9c230b1424ceb65773d4cd02d0e6a201ea833126f5cda3b64736f6c634300060c0033",
  "devdoc": {
    "kind": "dev",
    "methods": {
      "DOMAIN_SEPARATOR()": {
        "details": "See {IERC20Permit-DOMAIN_SEPARATOR}."
      },
      "allowance(address,address)": {
        "details": "See {IERC20-allowance}."
      },
      "approve(address,uint256)": {
        "details": "See {IERC20-approve}. Requirements: - `spender` cannot be the zero address."
      },
      "balanceOf(address)": {
        "details": "See {IERC20-balanceOf}."
      },
      "decimals()": {
        "details": "Returns the number of decimals used to get its user representation. For example, if `decimals` equals `2`, a balance of `505` tokens should be displayed to a user as `5,05` (`505 / 10 ** 2`). Tokens usually opt for a value of 18, imitating the relationship between Ether and Wei. This is the value {ERC20} uses, unless {_setupDecimals} is called. NOTE: This information is only used for _display_ purposes: it in no way affects any of the arithmetic of the contract, including {IERC20-balanceOf} and {IERC20-transfer}."
      },
      "decreaseAllowance(address,uint256)": {
        "details": "Atomically decreases the allowance granted to `spender` by the caller. This is an alternative to {approve} that can be used as a mitigation for problems described in {IERC20-approve}. Emits an {Approval} event indicating the updated allowance. Requirements: - `spender` cannot be the zero address. - `spender` must have allowance for the caller of at least `subtractedValue`."
      },
      "exchange(uint256,uint256,uint256,uint256)": {
        "details": "Left unimplemented because we're only using this in mainnet forking tests"
      },
      "get_dy(uint256,uint256,uint256)": {
        "details": "Left unimplemented because we're only using this in mainnet forking tests"
      },
      "increaseAllowance(address,uint256)": {
        "details": "Atomically increases the allowance granted to `spender` by the caller. This is an alternative to {approve} that can be used as a mitigation for problems described in {IERC20-approve}. Emits an {Approval} event indicating the updated allowance. Requirements: - `spender` cannot be the zero address."
      },
      "name()": {
        "details": "Returns the name of the token."
      },
      "nonces(address)": {
        "details": "See {IERC20Permit-nonces}."
      },
      "permit(address,address,uint256,uint256,uint8,bytes32,bytes32)": {
        "details": "See {IERC20Permit-permit}."
      },
      "remove_liquidity(uint256,uint256[2])": {
        "details": "Left unimplemented because we're only using this in mainnet forking tests"
      },
      "remove_liquidity_one_coin(uint256,uint256,uint256)": {
        "details": "Left unimplemented because we're only using this in mainnet forking tests"
      },
      "symbol()": {
        "details": "Returns the symbol of the token, usually a shorter version of the name."
      },
      "transfer(address,uint256)": {
        "details": "See {IERC20-transfer}. Requirements: - `recipient` cannot be the zero address. - the caller must have a balance of at least `amount`."
      },
      "transferFrom(address,address,uint256)": {
        "details": "See {IERC20-transferFrom}. Emits an {Approval} event indicating the updated allowance. This is not required by the EIP. See the note at the beginning of {ERC20}. Requirements: - `sender` and `recipient` cannot be the zero address. - `sender` must have a balance of at least `amount`. - the caller must have allowance for ``sender``'s tokens of at least `amount`."
      }
    },
    "version": 1
  },
  "userdoc": {
    "kind": "user",
    "methods": {
      "_setBalance(uint256,uint256)": {
        "notice": "Used to mock balances in unit tests"
      },
      "_setSlippage(uint256)": {
        "notice": "Used to mock slippage in unit tests"
      },
      "_setTotalSupply(uint256)": {
        "notice": "Used to mock the total supply in unit tests"
      },
      "add_liquidity(uint256[2],uint256,bool,address)": {
        "notice": "Mock add_liquidity function that mints Curve LP tokens"
      },
      "balances(uint256)": {
        "notice": "Used to return the mocked balances in unit tests"
      },
      "calc_token_amount(uint256[2])": {
        "notice": "Mock calc_token_amount function that returns the sum of both token amounts"
      },
      "exchange(uint256,uint256,uint256,uint256)": {
        "notice": "Mock exchange function"
      },
      "get_dy(uint256,uint256,uint256)": {
        "notice": "Mock get_dy function"
      },
      "remove_liquidity(uint256,uint256[2])": {
        "notice": "Mock remove_liquidity function"
      },
      "remove_liquidity_one_coin(uint256,uint256,uint256)": {
        "notice": "Mock remove_liquidity_one_coin function"
      },
      "totalSupply()": {
        "notice": "Used to return the mocked total supply in unit tests"
      }
    },
    "version": 1
  },
  "storageLayout": {
    "storage": [
      {
        "astId": 5829,
        "contract": "contracts/test/TestFiduUSDCCurveLP.sol:TestFiduUSDCCurveLP",
        "label": "_balances",
        "offset": 0,
        "slot": "0",
        "type": "t_mapping(t_address,t_uint256)"
      },
      {
        "astId": 5835,
        "contract": "contracts/test/TestFiduUSDCCurveLP.sol:TestFiduUSDCCurveLP",
        "label": "_allowances",
        "offset": 0,
        "slot": "1",
        "type": "t_mapping(t_address,t_mapping(t_address,t_uint256))"
      },
      {
        "astId": 5837,
        "contract": "contracts/test/TestFiduUSDCCurveLP.sol:TestFiduUSDCCurveLP",
        "label": "_totalSupply",
        "offset": 0,
        "slot": "2",
        "type": "t_uint256"
      },
      {
        "astId": 5839,
        "contract": "contracts/test/TestFiduUSDCCurveLP.sol:TestFiduUSDCCurveLP",
        "label": "_name",
        "offset": 0,
        "slot": "3",
        "type": "t_string_storage"
      },
      {
        "astId": 5841,
        "contract": "contracts/test/TestFiduUSDCCurveLP.sol:TestFiduUSDCCurveLP",
        "label": "_symbol",
        "offset": 0,
        "slot": "4",
        "type": "t_string_storage"
      },
      {
        "astId": 5843,
        "contract": "contracts/test/TestFiduUSDCCurveLP.sol:TestFiduUSDCCurveLP",
        "label": "_decimals",
        "offset": 0,
        "slot": "5",
        "type": "t_uint8"
      },
      {
        "astId": 5296,
        "contract": "contracts/test/TestFiduUSDCCurveLP.sol:TestFiduUSDCCurveLP",
        "label": "_nonces",
        "offset": 0,
        "slot": "6",
        "type": "t_mapping(t_address,t_struct(Counter)6818_storage)"
      },
      {
        "astId": 35620,
        "contract": "contracts/test/TestFiduUSDCCurveLP.sol:TestFiduUSDCCurveLP",
        "label": "config",
        "offset": 0,
        "slot": "7",
        "type": "t_contract(IGoldfinchConfig)9860"
      },
      {
        "astId": 35623,
        "contract": "contracts/test/TestFiduUSDCCurveLP.sol:TestFiduUSDCCurveLP",
        "label": "virtual_price",
        "offset": 0,
        "slot": "8",
        "type": "t_uint256"
      },
      {
        "astId": 35626,
        "contract": "contracts/test/TestFiduUSDCCurveLP.sol:TestFiduUSDCCurveLP",
        "label": "slippage",
        "offset": 0,
        "slot": "9",
        "type": "t_uint256"
      },
      {
        "astId": 35633,
        "contract": "contracts/test/TestFiduUSDCCurveLP.sol:TestFiduUSDCCurveLP",
        "label": "_balances",
        "offset": 0,
        "slot": "10",
        "type": "t_array(t_uint256)2_storage"
      },
      {
        "astId": 35636,
        "contract": "contracts/test/TestFiduUSDCCurveLP.sol:TestFiduUSDCCurveLP",
        "label": "_totalSupply",
        "offset": 0,
        "slot": "12",
        "type": "t_uint256"
      }
    ],
    "types": {
      "t_address": {
        "encoding": "inplace",
        "label": "address",
        "numberOfBytes": "20"
      },
      "t_array(t_uint256)2_storage": {
        "base": "t_uint256",
        "encoding": "inplace",
        "label": "uint256[2]",
        "numberOfBytes": "64"
      },
      "t_contract(IGoldfinchConfig)9860": {
        "encoding": "inplace",
        "label": "contract IGoldfinchConfig",
        "numberOfBytes": "20"
      },
      "t_mapping(t_address,t_mapping(t_address,t_uint256))": {
        "encoding": "mapping",
        "key": "t_address",
        "label": "mapping(address => mapping(address => uint256))",
        "numberOfBytes": "32",
        "value": "t_mapping(t_address,t_uint256)"
      },
      "t_mapping(t_address,t_struct(Counter)6818_storage)": {
        "encoding": "mapping",
        "key": "t_address",
        "label": "mapping(address => struct Counters.Counter)",
        "numberOfBytes": "32",
        "value": "t_struct(Counter)6818_storage"
      },
      "t_mapping(t_address,t_uint256)": {
        "encoding": "mapping",
        "key": "t_address",
        "label": "mapping(address => uint256)",
        "numberOfBytes": "32",
        "value": "t_uint256"
      },
      "t_string_storage": {
        "encoding": "bytes",
        "label": "string",
        "numberOfBytes": "32"
      },
      "t_struct(Counter)6818_storage": {
        "encoding": "inplace",
        "label": "struct Counters.Counter",
        "members": [
          {
            "astId": 6817,
            "contract": "contracts/test/TestFiduUSDCCurveLP.sol:TestFiduUSDCCurveLP",
            "label": "_value",
            "offset": 0,
            "slot": "0",
            "type": "t_uint256"
          }
        ],
        "numberOfBytes": "32"
      },
      "t_uint256": {
        "encoding": "inplace",
        "label": "uint256",
        "numberOfBytes": "32"
      },
      "t_uint8": {
        "encoding": "inplace",
        "label": "uint8",
        "numberOfBytes": "1"
      }
    }
  }
}