{
  "address": "0x42C341500E75A1b3fc9362dE9AC1D5122d377A8E",
  "abi": [
    {
      "anonymous": false,
      "inputs": [
        {
          "indexed": true,
          "internalType": "address",
          "name": "owner",
          "type": "address"
        },
        {
          "indexed": true,
          "internalType": "address",
          "name": "approved",
          "type": "address"
        },
        {
          "indexed": true,
          "internalType": "uint256",
          "name": "tokenId",
          "type": "uint256"
        }
      ],
      "name": "Approval",
      "type": "event"
    },
    {
      "anonymous": false,
      "inputs": [
        {
          "indexed": true,
          "internalType": "address",
          "name": "owner",
          "type": "address"
        },
        {
          "indexed": true,
          "internalType": "address",
          "name": "operator",
          "type": "address"
        },
        {
          "indexed": false,
          "internalType": "bool",
          "name": "approved",
          "type": "bool"
        }
      ],
      "name": "ApprovalForAll",
      "type": "event"
    },
    {
      "anonymous": false,
      "inputs": [
        {
          "indexed": false,
          "internalType": "address",
          "name": "account",
          "type": "address"
        }
      ],
      "name": "Paused",
      "type": "event"
    },
    {
      "anonymous": false,
      "inputs": [
        {
          "indexed": true,
          "internalType": "bytes32",
          "name": "role",
          "type": "bytes32"
        },
        {
          "indexed": true,
          "internalType": "address",
          "name": "account",
          "type": "address"
        },
        {
          "indexed": true,
          "internalType": "address",
          "name": "sender",
          "type": "address"
        }
      ],
      "name": "RoleGranted",
      "type": "event"
    },
    {
      "anonymous": false,
      "inputs": [
        {
          "indexed": true,
          "internalType": "bytes32",
          "name": "role",
          "type": "bytes32"
        },
        {
          "indexed": true,
          "internalType": "address",
          "name": "account",
          "type": "address"
        },
        {
          "indexed": true,
          "internalType": "address",
          "name": "sender",
          "type": "address"
        }
      ],
      "name": "RoleRevoked",
      "type": "event"
    },
    {
      "anonymous": false,
      "inputs": [
        {
          "indexed": true,
          "internalType": "address",
          "name": "from",
          "type": "address"
        },
        {
          "indexed": true,
          "internalType": "address",
          "name": "to",
          "type": "address"
        },
        {
          "indexed": true,
          "internalType": "uint256",
          "name": "tokenId",
          "type": "uint256"
        }
      ],
      "name": "Transfer",
      "type": "event"
    },
    {
      "anonymous": false,
      "inputs": [
        {
          "indexed": false,
          "internalType": "address",
          "name": "account",
          "type": "address"
        }
      ],
      "name": "Unpaused",
      "type": "event"
    },
    {
      "inputs": [],
      "name": "DEFAULT_ADMIN_ROLE",
      "outputs": [
        {
          "internalType": "bytes32",
          "name": "",
          "type": "bytes32"
        }
      ],
      "stateMutability": "view",
      "type": "function"
    },
    {
      "inputs": [],
      "name": "MINTER_ROLE",
      "outputs": [
        {
          "internalType": "bytes32",
          "name": "",
          "type": "bytes32"
        }
      ],
      "stateMutability": "view",
      "type": "function"
    },
    {
      "inputs": [],
      "name": "OWNER_ROLE",
      "outputs": [
        {
          "internalType": "bytes32",
          "name": "",
          "type": "bytes32"
        }
      ],
      "stateMutability": "view",
      "type": "function"
    },
    {
      "inputs": [],
      "name": "PAUSER_ROLE",
      "outputs": [
        {
          "internalType": "bytes32",
          "name": "",
          "type": "bytes32"
        }
      ],
      "stateMutability": "view",
      "type": "function"
    },
    {
      "inputs": [],
      "name": "SECONDS_PER_DAY",
      "outputs": [
        {
          "internalType": "uint256",
          "name": "",
          "type": "uint256"
        }
      ],
      "stateMutability": "view",
      "type": "function"
    },
    {
      "inputs": [
        {
          "internalType": "address",
          "name": "owner",
          "type": "address"
        },
        {
          "internalType": "contract GoldfinchConfig",
          "name": "_config",
          "type": "address"
        }
      ],
      "name": "__initialize__",
      "outputs": [],
      "stateMutability": "nonpayable",
      "type": "function"
    },
    {
      "inputs": [],
      "name": "_tokenIdTracker",
      "outputs": [
        {
          "internalType": "uint256",
          "name": "_value",
          "type": "uint256"
        }
      ],
      "stateMutability": "view",
      "type": "function"
    },
    {
      "inputs": [
        {
          "internalType": "address",
          "name": "to",
          "type": "address"
        },
        {
          "internalType": "uint256",
          "name": "tokenId",
          "type": "uint256"
        }
      ],
      "name": "approve",
      "outputs": [],
      "stateMutability": "nonpayable",
      "type": "function"
    },
    {
      "inputs": [
        {
          "internalType": "address",
          "name": "owner",
          "type": "address"
        }
      ],
      "name": "balanceOf",
      "outputs": [
        {
          "internalType": "uint256",
          "name": "",
          "type": "uint256"
        }
      ],
      "stateMutability": "view",
      "type": "function"
    },
    {
      "inputs": [],
      "name": "baseURI",
      "outputs": [
        {
          "internalType": "string",
          "name": "",
          "type": "string"
        }
      ],
      "stateMutability": "view",
      "type": "function"
    },
    {
      "inputs": [],
      "name": "config",
      "outputs": [
        {
          "internalType": "contract GoldfinchConfig",
          "name": "",
          "type": "address"
        }
      ],
      "stateMutability": "view",
      "type": "function"
    },
    {
      "inputs": [
        {
          "internalType": "contract ITranchedPool",
          "name": "tranchedPool",
          "type": "address"
        },
        {
          "internalType": "uint256",
          "name": "amount",
          "type": "uint256"
        }
      ],
      "name": "depositJunior",
      "outputs": [],
      "stateMutability": "nonpayable",
      "type": "function"
    },
    {
      "inputs": [
        {
          "internalType": "contract ITranchedPool",
          "name": "tranchedPool",
          "type": "address"
        },
        {
          "internalType": "uint256",
          "name": "amount",
          "type": "uint256"
        },
        {
          "internalType": "uint256",
          "name": "deadline",
          "type": "uint256"
        },
        {
          "internalType": "uint8",
          "name": "v",
          "type": "uint8"
        },
        {
          "internalType": "bytes32",
          "name": "r",
          "type": "bytes32"
        },
        {
          "internalType": "bytes32",
          "name": "s",
          "type": "bytes32"
        }
      ],
      "name": "depositJuniorWithPermit",
      "outputs": [],
      "stateMutability": "nonpayable",
      "type": "function"
    },
    {
      "inputs": [
        {
          "internalType": "uint256",
          "name": "amount",
          "type": "uint256"
        }
      ],
      "name": "depositSenior",
      "outputs": [],
      "stateMutability": "nonpayable",
      "type": "function"
    },
    {
      "inputs": [
        {
          "internalType": "uint256",
          "name": "amount",
          "type": "uint256"
        },
        {
          "internalType": "uint256",
          "name": "deadline",
          "type": "uint256"
        },
        {
          "internalType": "uint8",
          "name": "v",
          "type": "uint8"
        },
        {
          "internalType": "bytes32",
          "name": "r",
          "type": "bytes32"
        },
        {
          "internalType": "bytes32",
          "name": "s",
          "type": "bytes32"
        }
      ],
      "name": "depositSeniorWithPermit",
      "outputs": [],
      "stateMutability": "nonpayable",
      "type": "function"
    },
    {
      "inputs": [
        {
          "internalType": "uint256",
          "name": "",
          "type": "uint256"
        }
      ],
      "name": "fiduPositions",
      "outputs": [
        {
          "internalType": "uint256",
          "name": "amount",
          "type": "uint256"
        },
        {
          "internalType": "uint256",
          "name": "lockedUntil",
          "type": "uint256"
        }
      ],
      "stateMutability": "view",
      "type": "function"
    },
    {
      "inputs": [
        {
          "internalType": "uint256",
          "name": "tokenId",
          "type": "uint256"
        }
      ],
      "name": "getApproved",
      "outputs": [
        {
          "internalType": "address",
          "name": "",
          "type": "address"
        }
      ],
      "stateMutability": "view",
      "type": "function"
    },
    {
      "inputs": [
        {
          "internalType": "bytes32",
          "name": "role",
          "type": "bytes32"
        }
      ],
      "name": "getRoleAdmin",
      "outputs": [
        {
          "internalType": "bytes32",
          "name": "",
          "type": "bytes32"
        }
      ],
      "stateMutability": "view",
      "type": "function"
    },
    {
      "inputs": [
        {
          "internalType": "bytes32",
          "name": "role",
          "type": "bytes32"
        },
        {
          "internalType": "uint256",
          "name": "index",
          "type": "uint256"
        }
      ],
      "name": "getRoleMember",
      "outputs": [
        {
          "internalType": "address",
          "name": "",
          "type": "address"
        }
      ],
      "stateMutability": "view",
      "type": "function"
    },
    {
      "inputs": [
        {
          "internalType": "bytes32",
          "name": "role",
          "type": "bytes32"
        }
      ],
      "name": "getRoleMemberCount",
      "outputs": [
        {
          "internalType": "uint256",
          "name": "",
          "type": "uint256"
        }
      ],
      "stateMutability": "view",
      "type": "function"
    },
    {
      "inputs": [
        {
          "internalType": "bytes32",
          "name": "role",
          "type": "bytes32"
        },
        {
          "internalType": "address",
          "name": "account",
          "type": "address"
        }
      ],
      "name": "grantRole",
      "outputs": [],
      "stateMutability": "nonpayable",
      "type": "function"
    },
    {
      "inputs": [
        {
          "internalType": "bytes32",
          "name": "role",
          "type": "bytes32"
        },
        {
          "internalType": "address",
          "name": "account",
          "type": "address"
        }
      ],
      "name": "hasRole",
      "outputs": [
        {
          "internalType": "bool",
          "name": "",
          "type": "bool"
        }
      ],
      "stateMutability": "view",
      "type": "function"
    },
    {
      "inputs": [
        {
          "internalType": "address",
          "name": "owner",
          "type": "address"
        },
        {
          "internalType": "address",
          "name": "operator",
          "type": "address"
        }
      ],
      "name": "isApprovedForAll",
      "outputs": [
        {
          "internalType": "bool",
          "name": "",
          "type": "bool"
        }
      ],
      "stateMutability": "view",
      "type": "function"
    },
    {
      "inputs": [],
      "name": "name",
      "outputs": [
        {
          "internalType": "string",
          "name": "",
          "type": "string"
        }
      ],
      "stateMutability": "view",
      "type": "function"
    },
    {
      "inputs": [
        {
          "internalType": "uint256",
          "name": "tokenId",
          "type": "uint256"
        }
      ],
      "name": "ownerOf",
      "outputs": [
        {
          "internalType": "address",
          "name": "",
          "type": "address"
        }
      ],
      "stateMutability": "view",
      "type": "function"
    },
    {
      "inputs": [],
      "name": "pause",
      "outputs": [],
      "stateMutability": "nonpayable",
      "type": "function"
    },
    {
      "inputs": [],
      "name": "paused",
      "outputs": [
        {
          "internalType": "bool",
          "name": "",
          "type": "bool"
        }
      ],
      "stateMutability": "view",
      "type": "function"
    },
    {
      "inputs": [
        {
          "internalType": "uint256",
          "name": "",
          "type": "uint256"
        }
      ],
      "name": "poolTokenPositions",
      "outputs": [
        {
          "internalType": "uint256",
          "name": "tokenId",
          "type": "uint256"
        },
        {
          "internalType": "uint256",
          "name": "lockedUntil",
          "type": "uint256"
        }
      ],
      "stateMutability": "view",
      "type": "function"
    },
    {
      "inputs": [
        {
          "internalType": "bytes32",
          "name": "role",
          "type": "bytes32"
        },
        {
          "internalType": "address",
          "name": "account",
          "type": "address"
        }
      ],
      "name": "renounceRole",
      "outputs": [],
      "stateMutability": "nonpayable",
      "type": "function"
    },
    {
      "inputs": [
        {
          "internalType": "bytes32",
          "name": "role",
          "type": "bytes32"
        },
        {
          "internalType": "address",
          "name": "account",
          "type": "address"
        }
      ],
      "name": "revokeRole",
      "outputs": [],
      "stateMutability": "nonpayable",
      "type": "function"
    },
    {
      "inputs": [
        {
          "internalType": "address",
          "name": "from",
          "type": "address"
        },
        {
          "internalType": "address",
          "name": "to",
          "type": "address"
        },
        {
          "internalType": "uint256",
          "name": "tokenId",
          "type": "uint256"
        }
      ],
      "name": "safeTransferFrom",
      "outputs": [],
      "stateMutability": "nonpayable",
      "type": "function"
    },
    {
      "inputs": [
        {
          "internalType": "address",
          "name": "from",
          "type": "address"
        },
        {
          "internalType": "address",
          "name": "to",
          "type": "address"
        },
        {
          "internalType": "uint256",
          "name": "tokenId",
          "type": "uint256"
        },
        {
          "internalType": "bytes",
          "name": "_data",
          "type": "bytes"
        }
      ],
      "name": "safeTransferFrom",
      "outputs": [],
      "stateMutability": "nonpayable",
      "type": "function"
    },
    {
      "inputs": [
        {
          "internalType": "address",
          "name": "operator",
          "type": "address"
        },
        {
          "internalType": "bool",
          "name": "approved",
          "type": "bool"
        }
      ],
      "name": "setApprovalForAll",
      "outputs": [],
      "stateMutability": "nonpayable",
      "type": "function"
    },
    {
      "inputs": [
        {
          "internalType": "bytes4",
          "name": "interfaceId",
          "type": "bytes4"
        }
      ],
      "name": "supportsInterface",
      "outputs": [
        {
          "internalType": "bool",
          "name": "",
          "type": "bool"
        }
      ],
      "stateMutability": "view",
      "type": "function"
    },
    {
      "inputs": [],
      "name": "symbol",
      "outputs": [
        {
          "internalType": "string",
          "name": "",
          "type": "string"
        }
      ],
      "stateMutability": "view",
      "type": "function"
    },
    {
      "inputs": [
        {
          "internalType": "uint256",
          "name": "index",
          "type": "uint256"
        }
      ],
      "name": "tokenByIndex",
      "outputs": [
        {
          "internalType": "uint256",
          "name": "",
          "type": "uint256"
        }
      ],
      "stateMutability": "view",
      "type": "function"
    },
    {
      "inputs": [
        {
          "internalType": "address",
          "name": "owner",
          "type": "address"
        },
        {
          "internalType": "uint256",
          "name": "index",
          "type": "uint256"
        }
      ],
      "name": "tokenOfOwnerByIndex",
      "outputs": [
        {
          "internalType": "uint256",
          "name": "",
          "type": "uint256"
        }
      ],
      "stateMutability": "view",
      "type": "function"
    },
    {
      "inputs": [
        {
          "internalType": "uint256",
          "name": "tokenId",
          "type": "uint256"
        }
      ],
      "name": "tokenURI",
      "outputs": [
        {
          "internalType": "string",
          "name": "",
          "type": "string"
        }
      ],
      "stateMutability": "view",
      "type": "function"
    },
    {
      "inputs": [],
      "name": "totalSupply",
      "outputs": [
        {
          "internalType": "uint256",
          "name": "",
          "type": "uint256"
        }
      ],
      "stateMutability": "view",
      "type": "function"
    },
    {
      "inputs": [
        {
          "internalType": "address",
          "name": "from",
          "type": "address"
        },
        {
          "internalType": "address",
          "name": "to",
          "type": "address"
        },
        {
          "internalType": "uint256",
          "name": "tokenId",
          "type": "uint256"
        }
      ],
      "name": "transferFrom",
      "outputs": [],
      "stateMutability": "nonpayable",
      "type": "function"
    },
    {
      "inputs": [
        {
          "internalType": "uint256",
          "name": "tokenId",
          "type": "uint256"
        },
        {
          "internalType": "address",
          "name": "to",
          "type": "address"
        }
      ],
      "name": "transferPosition",
      "outputs": [],
      "stateMutability": "nonpayable",
      "type": "function"
    },
    {
      "inputs": [],
      "name": "unpause",
      "outputs": [],
      "stateMutability": "nonpayable",
      "type": "function"
    },
    {
      "inputs": [
        {
          "internalType": "uint256",
          "name": "tokenId",
          "type": "uint256"
        },
        {
          "internalType": "uint256",
          "name": "amount",
          "type": "uint256"
        }
      ],
      "name": "withdrawJunior",
      "outputs": [
        {
          "internalType": "uint256",
          "name": "interestWithdrawn",
          "type": "uint256"
        },
        {
          "internalType": "uint256",
          "name": "principalWithdrawn",
          "type": "uint256"
        }
      ],
      "stateMutability": "nonpayable",
      "type": "function"
    },
    {
      "inputs": [
        {
          "internalType": "uint256",
          "name": "tokenId",
          "type": "uint256"
        },
        {
          "internalType": "uint256",
          "name": "usdcAmount",
          "type": "uint256"
        }
      ],
      "name": "withdrawSenior",
      "outputs": [],
      "stateMutability": "nonpayable",
      "type": "function"
    },
    {
      "inputs": [
        {
          "internalType": "uint256",
          "name": "tokenId",
          "type": "uint256"
        },
        {
          "internalType": "uint256",
          "name": "shares",
          "type": "uint256"
        }
      ],
      "name": "withdrawSeniorInFidu",
      "outputs": [],
      "stateMutability": "nonpayable",
      "type": "function"
    }
  ],
  "transactionHash": "0x48ab2902cee9729788f50c1d7244619aeef34118b6710334a7ccde8bd771a34d",
  "args": [],
  "solcInputHash": "a67c4f293a964d2cac7bbf8c9f65d46c",
  "bytecode": "0x608060405234801561001057600080fd5b506142b0806100206000396000f3fe608060405234801561001057600080fd5b506004361061027f5760003560e01c806370a082311161015c578063a22cb465116100ce578063d3c0bdfc11610087578063d3c0bdfc1461053d578063d539139314610550578063d547741f14610558578063e58378bb1461056b578063e63ab1e914610573578063e985e9c51461057b5761027f565b8063a22cb465146104cb578063b6f8fd40146104de578063b88d4fde146104f1578063c87b56dd14610504578063ca15c87314610517578063d3af33911461052a5761027f565b80639010d07c116101205780639010d07c1461047a57806391d148541461048d57806392ffa975146104a057806395d89b41146104b357806398bcede9146104bb578063a217fddf146104c35761027f565b806370a082311461043c57806374f0314f1461044f57806379502c55146104575780637cb09f271461045f5780638456cb59146104725761027f565b80632f2ff15d116101f55780634e43773e116101b95780634e43773e146103e05780634f6ccce7146103f357806355bd513f146104065780635c975abb146104195780636352211e146104215780636c0360eb146104345761027f565b80632f2ff15d1461038c5780632f745c591461039f57806336568abe146103b25780633f4ba83a146103c557806342842e0e146103cd5761027f565b806318160ddd1161024757806318160ddd14610318578063198c3de71461032d57806319b2ed4f146103405780631a185b3a1461035357806323b872dd14610366578063248a9ca3146103795761027f565b806301ffc9a71461028457806306fdde03146102ad578063081812fc146102c2578063095ea7b3146102e257806315a0f81d146102f7575b600080fd5b610297610292366004613434565b61058e565b6040516102a4919061373c565b60405180910390f35b6102b56105b1565b6040516102a49190613750565b6102d56102d03660046133d7565b610647565b6040516102a4919061366d565b6102f56102f0366004613390565b610693565b005b61030a610305366004613413565b61072b565b6040516102a4929190614130565b610320610939565b6040516102a49190613747565b6102f561033b366004613413565b61094a565b61030a61034e3660046133d7565b610be6565b6102f561036136600461355d565b610c00565b6102f5610374366004613259565b610c8f565b6103206103873660046133d7565b610cc7565b6102f561039a3660046133ef565b610cdc565b6103206103ad366004613390565b610d24565b6102f56103c03660046133ef565b610d4f565b6102f5610d91565b6102f56103db366004613259565b610dd1565b6102f56103ee3660046133d7565b610dec565b6103206104013660046133d7565b610f8c565b6102f56104143660046133ef565b610fa2565b6102976110d9565b6102d561042f3660046133d7565b6110e2565b6102b561110a565b61032061044a3660046131e9565b61116b565b6103206111b4565b6102d56111bb565b6102f561046d366004613413565b6111cb565b6102f5611330565b6102d5610488366004613413565b61136e565b61029761049b3660046133ef565b611386565b6102f56104ae36600461346c565b61139e565b6102b561142f565b610320611490565b610320611497565b6102f56104d9366004613351565b61149c565b6102f56104ec36600461337e565b61156a565b6102f56104ff366004613299565b611727565b6102b56105123660046133d7565b611766565b6103206105253660046133d7565b6118b0565b61030a6105383660046133d7565b6118c7565b6102f561054b366004613390565b6118e1565b610320611aef565b6102f56105663660046133ef565b611b13565b610320611b4d565b610320611b5f565b610297610589366004613221565b611b71565b6001600160e01b0319811660009081526097602052604090205460ff165b919050565b60ce8054604080516020601f600260001961010060018816150201909516949094049384018190048102820181019092528281526060939092909183018282801561063d5780601f106106125761010080835404028352916020019161063d565b820191906000526020600020905b81548152906001019060200180831161062057829003601f168201915b5050505050905090565b600061065282611b9f565b6106775760405162461bcd60e51b815260040161066e90613dfc565b60405180910390fd5b50600090815260cc60205260409020546001600160a01b031690565b600061069e826110e2565b9050806001600160a01b0316836001600160a01b031614156106d25760405162461bcd60e51b815260040161066e90613f2e565b806001600160a01b03166106e4611bac565b6001600160a01b03161480610700575061070081610589611bac565b61071c5760405162461bcd60e51b815260040161066e90613c45565b6107268383611bb0565b505050565b61019154600090819060ff166107535760405162461bcd60e51b815260040161066e90614015565b610191805460ff191690558333610769826110e2565b6001600160a01b03161461078f5760405162461bcd60e51b815260040161066e90613fc0565b60008581526101c46020526040902060018101546107bf5760405162461bcd60e51b815260040161066e90613add565b6101c3546000906107d8906001600160a01b0316611c1e565b82549091506107e56130c9565b60405163463d31d760e11b81526001600160a01b03841690638c7a63ae90610811908590600401613747565b60a06040518083038186803b15801561082957600080fd5b505afa15801561083d573d6000803e3d6000fd5b505050506040513d601f19601f8201168201806040525081019061086191906134c6565b8051604051630441a3e760e41b8152919250906001600160a01b0382169063441a3e70906108959086908d90600401614130565b6040805180830381600087803b1580156108ae57600080fd5b505af11580156108c2573d6000803e3d6000fd5b505050506040513d601f19601f820116820180604052508101906108e6919061353a565b909850965060006108f78989611c29565b6101c35490915061091b90610914906001600160a01b0316611c4e565b3383611c59565b50505050505050610191805460ff1916600117905590939092509050565b600061094560ca611c95565b905090565b6101915460ff1661096d5760405162461bcd60e51b815260040161066e90614015565b610191805460ff191690558133610983826110e2565b6001600160a01b0316146109a95760405162461bcd60e51b815260040161066e90613fc0565b6101c3546000906109c2906001600160a01b0316611ca0565b6101c3549091506000906109de906001600160a01b0316611cab565b90506000826001600160a01b03166370a08231306040518263ffffffff1660e01b8152600401610a0e919061366d565b60206040518083038186803b158015610a2657600080fd5b505afa158015610a3a573d6000803e3d6000fd5b505050506040513d601f19601f82011682018060405250810190610a5e9190613522565b90506000826001600160a01b0316632e1a7d4d876040518263ffffffff1660e01b8152600401610a8e9190613747565b602060405180830381600087803b158015610aa857600080fd5b505af1158015610abc573d6000803e3d6000fd5b505050506040513d601f19601f82011682018060405250810190610ae09190613522565b90506000610b6a856001600160a01b03166370a08231306040518263ffffffff1660e01b8152600401610b13919061366d565b60206040518083038186803b158015610b2b57600080fd5b505afa158015610b3f573d6000803e3d6000fd5b505050506040513d601f19601f82011682018060405250810190610b639190613522565b8490611cb6565b60008981526101c56020526040902080549192509082811015610b9f5760405162461bcd60e51b815260040161066e906140f9565b610ba98184611cb6565b82556101c354610bcc90610bc5906001600160a01b0316611c4e565b3386611c59565b5050610191805460ff191660011790555050505050505050565b6101c4602052600090815260409020805460019091015482565b6101c354610c16906001600160a01b0316611cf8565b6001600160a01b031663d505accf333088888888886040518863ffffffff1660e01b8152600401610c4d97969594939291906136be565b600060405180830381600087803b158015610c6757600080fd5b505af1158015610c7b573d6000803e3d6000fd5b50505050610c8885610dec565b5050505050565b610ca0610c9a611bac565b82611d78565b610cbc5760405162461bcd60e51b815260040161066e90613f6f565b610726838383611dfd565b60009081526065602052604090206002015490565b600082815260656020526040902060020154610cfa9061049b611bac565b610d165760405162461bcd60e51b815260040161066e90613837565b610d208282611ef9565b5050565b6001600160a01b038216600090815260c960205260408120610d469083611f62565b90505b92915050565b610d57611bac565b6001600160a01b0316816001600160a01b031614610d875760405162461bcd60e51b815260040161066e906140aa565b610d208282611f6e565b610dab60008051602061423b83398151915261049b611bac565b610dc75760405162461bcd60e51b815260040161066e9061404c565b610dcf611fd7565b565b61072683838360405180602001604052806000815250611727565b6101915460ff16610e0f5760405162461bcd60e51b815260040161066e90614015565b610191805460ff191690556101c354610e3c90610e34906001600160a01b0316611c4e565b333084612043565b6101c354600090610e55906001600160a01b0316611cab565b9050610e61818361207f565b60405163b6b55f2560e01b81526000906001600160a01b0383169063b6b55f2590610e90908690600401613747565b602060405180830381600087803b158015610eaa57600080fd5b505af1158015610ebe573d6000803e3d6000fd5b505050506040513d601f19601f82011682018060405250810190610ee29190613522565b6101c354909150600090610f0c90610f02906001600160a01b03166120a5565b6201518090612125565b9050610f1961015f61215f565b6000610f2661015f612168565b90506040518060400160405280848152602001610f4c8442611c2990919063ffffffff16565b905260008281526101c56020908152604090912082518155910151600190910155610f77338261216c565b5050610191805460ff19166001179055505050565b600080610f9a60ca8461221e565b509392505050565b6101915460ff16610fc55760405162461bcd60e51b815260040161066e90614015565b610191805460ff1916905533610fda836110e2565b6001600160a01b0316146110005760405162461bcd60e51b815260040161066e906137a6565b60008281526101c56020526040902060018101541561105e57806001015442101561103d5760405162461bcd60e51b815260040161066e90613d5e565b611047818361223a565b60008381526101c560205260408120818155600101555b60008381526101c4602052604090206001810154156110bc57806001015442101561109b5760405162461bcd60e51b815260040161066e90613d5e565b6110a58184612264565b60008481526101c460205260408120818155600101555b6110c5846122e7565b5050610191805460ff191660011790555050565b60fb5460ff1690565b6000610d49826040518060600160405280602981526020016142126029913960ca91906123a2565b60d18054604080516020601f600260001961010060018816150201909516949094049384018190048102820181019092528281526060939092909183018282801561063d5780601f106106125761010080835404028352916020019161063d565b60006001600160a01b0382166111935760405162461bcd60e51b815260040161066e90613c9d565b6001600160a01b038216600090815260c960205260409020610d4990611c95565b6201518081565b6101c3546001600160a01b031681565b6101915460ff166111ee5760405162461bcd60e51b815260040161066e90614015565b610191805460ff191690558133611204826110e2565b6001600160a01b03161461122a5760405162461bcd60e51b815260040161066e90613fc0565b60008381526101c56020526040902080548381101561125b5760405162461bcd60e51b815260040161066e906140f9565b6112658185611cb6565b82556101c354600090611280906001600160a01b0316611cab565b6001600160a01b03166358031d12866040518263ffffffff1660e01b81526004016112ab9190613747565b602060405180830381600087803b1580156112c557600080fd5b505af11580156112d9573d6000803e3d6000fd5b505050506040513d601f19601f820116820180604052508101906112fd9190613522565b6101c35490915061131a90610914906001600160a01b0316611c4e565b5050610191805460ff1916600117905550505050565b61134a60008051602061423b83398151915261049b611bac565b6113665760405162461bcd60e51b815260040161066e90613a80565b610dcf6123b9565b6000828152606560205260408120610d469083611f62565b6000828152606560205260408120610d469083612412565b6101c3546113b4906001600160a01b0316611cf8565b6001600160a01b031663d505accf333088888888886040518863ffffffff1660e01b81526004016113eb97969594939291906136be565b600060405180830381600087803b15801561140557600080fd5b505af1158015611419573d6000803e3d6000fd5b5050505061142786866118e1565b505050505050565b60cf8054604080516020601f600260001961010060018816150201909516949094049384018190048102820181019092528281526060939092909183018282801561063d5780601f106106125761010080835404028352916020019161063d565b61015f5481565b600081565b6114a4611bac565b6001600160a01b0316826001600160a01b031614156114d55760405162461bcd60e51b815260040161066e90613b4c565b8060cd60006114e2611bac565b6001600160a01b03908116825260208083019390935260409182016000908120918716808252919093529120805460ff191692151592909217909155611526611bac565b6001600160a01b03167f17307eab39ab6107e8899845ad3d59bd9653f200f220920489ca2b5937696c318360405161155e919061373c565b60405180910390a35050565b600054610100900460ff16806115835750611583612427565b80611591575060005460ff16155b6115ad5760405162461bcd60e51b815260040161066e90613e48565b600054610100900460ff161580156115d8576000805460ff1961ff0019909116610100171660011790555b6001600160a01b038316158015906115f857506001600160a01b03821615155b6116145760405162461bcd60e51b815260040161066e906138b4565b61161c61242d565b61162461242d565b61162c6124b0565b611634612540565b6116776040518060600160405280602781526020016141eb60279139604051806040016040528060098152602001684746492d56322d414960b81b8152506125be565b61167f612684565b61168761242d565b6101c380546001600160a01b0319166001600160a01b0384161790556116bb60008051602061423b83398151915284610d16565b6116d36000805160206141cb83398151915284610d16565b6116f960008051602061423b8339815191526000805160206141cb833981519152612710565b6117116000805160206141cb83398151915280612710565b8015610726576000805461ff0019169055505050565b611738611732611bac565b83611d78565b6117545760405162461bcd60e51b815260040161066e90613f6f565b61176084848484612725565b50505050565b606061177182611b9f565b61178d5760405162461bcd60e51b815260040161066e90613edf565b600082815260d0602090815260409182902080548351601f60026000196101006001861615020190931692909204918201849004840281018401909452808452606093928301828280156118225780601f106117f757610100808354040283529160200191611822565b820191906000526020600020905b81548152906001019060200180831161180557829003601f168201915b505060d1549394505050506002600019610100600184161502019091160461184b5790506105ac565b80511561187d5760d1816040516020016118669291906135ec565b6040516020818303038152906040529150506105ac565b60d161188884612758565b6040516020016118999291906135ec565b604051602081830303815290604052915050919050565b6000818152606560205260408120610d4990611c95565b6101c5602052600090815260409020805460019091015482565b6101915460ff166119045760405162461bcd60e51b815260040161066e90614015565b610191805460ff191690556101c354611925906001600160a01b0316612833565b6001600160a01b0316633434e749336040518263ffffffff1660e01b8152600401611950919061366d565b60206040518083038186803b15801561196857600080fd5b505afa15801561197c573d6000803e3d6000fd5b505050506040513d601f19601f820116820180604052508101906119a091906133bb565b6119bc5760405162461bcd60e51b815260040161066e90613763565b6101c3546119d690610e34906001600160a01b0316611c4e565b6119e0828261207f565b604051631c57762b60e31b81526000906001600160a01b0384169063e2bbb15890611a12906002908690600401614130565b602060405180830381600087803b158015611a2c57600080fd5b505af1158015611a40573d6000803e3d6000fd5b505050506040513d601f19601f82011682018060405250810190611a649190613522565b6101c354909150600090611a8490610f02906001600160a01b03166120a5565b9050611a9161015f61215f565b6000611a9e61015f612168565b90506040518060400160405280848152602001611ac48442611c2990919063ffffffff16565b905260008281526101c46020908152604090912082518155910151600190910155610f77338261216c565b7f9f2df0fed2c77648de5860a4cc508cd0818c85b8b8a1ab4ceeef8d981c8956a681565b600082815260656020526040902060020154611b319061049b611bac565b610d875760405162461bcd60e51b815260040161066e90613bcb565b6000805160206141cb83398151915281565b60008051602061423b83398151915281565b6001600160a01b03918216600090815260cd6020908152604080832093909416825291909152205460ff1690565b6000610d4960ca8361283e565b3390565b600081815260cc6020526040902080546001600160a01b0319166001600160a01b0384169081179091558190611be5826110e2565b6001600160a01b03167f8c5be1e5ebec7d5bd14f71427d1e84f3dd0314c0f7b2291e5b200ac8c7c3b92560405160405180910390a45050565b6000610d498261284a565b600082820183811015610d465760405162461bcd60e51b815260040161066e906139f5565b6000610d4982611cf8565b6107268383836040518060400160405280601881526020017704661696c656420746f207472616e736665722045524332360441b815250612862565b6000610d4982612168565b6000610d498261292c565b6000610d4982612944565b6000610d4683836040518060400160405280601e81526020017f536166654d6174683a207375627472616374696f6e206f766572666c6f77000081525061295c565b60006001600160a01b03821663b93f9b0a60055b6040518263ffffffff1660e01b8152600401611d289190613747565b60206040518083038186803b158015611d4057600080fd5b505afa158015611d54573d6000803e3d6000fd5b505050506040513d601f19601f82011682018060405250810190610d499190613205565b6000611d8382611b9f565b611d9f5760405162461bcd60e51b815260040161066e90613b7f565b6000611daa836110e2565b9050806001600160a01b0316846001600160a01b03161480611de55750836001600160a01b0316611dda84610647565b6001600160a01b0316145b80611df55750611df58185611b71565b949350505050565b826001600160a01b0316611e10826110e2565b6001600160a01b031614611e365760405162461bcd60e51b815260040161066e90613e96565b6001600160a01b038216611e5c5760405162461bcd60e51b815260040161066e90613b08565b611e67838383612988565b611e72600082611bb0565b6001600160a01b038316600090815260c960205260409020611e9490826129c1565b506001600160a01b038216600090815260c960205260409020611eb790826129cd565b50611ec460ca82846129d9565b5080826001600160a01b0316846001600160a01b031660008051602061425b83398151915260405160405180910390a4505050565b6000828152606560205260409020611f1190826129ef565b15610d2057611f1e611bac565b6001600160a01b0316816001600160a01b0316837f2f8788117e7eff1d82e926ec794901d17c78024a50270940304540a733656f0d60405160405180910390a45050565b6000610d468383612a04565b6000828152606560205260409020611f869082612a49565b15610d2057611f93611bac565b6001600160a01b0316816001600160a01b0316837ff6391f5c32d9c69d2a47ea670b442974b53935d1edc7fd64eb21e047a839171b60405160405180910390a45050565b60fb5460ff16611ff95760405162461bcd60e51b815260040161066e90613886565b60fb805460ff191690557f5db9ee0a495bf2e6ff9c91a7834c1ba4fdd244a5e8aa4e537bd38aeae4b073aa61202c611bac565b604051612039919061366d565b60405180910390a1565b60408051808201909152601881527704661696c656420746f207472616e736665722045524332360441b6020820152610c888585858585612a5e565b6101c354600090612098906001600160a01b0316611c4e565b9050610726818484612b2a565b604051631f8ac6cb60e31b81526000906001600160a01b0383169063fc563658906120d590600890600401613747565b60206040518083038186803b1580156120ed57600080fd5b505afa158015612101573d6000803e3d6000fd5b505050506040513d601f19601f82011682018060405250810190610d499190613522565b60008261213457506000610d49565b8282028284828161214157fe5b0414610d465760405162461bcd60e51b815260040161066e90613dbb565b80546001019055565b5490565b6001600160a01b0382166121925760405162461bcd60e51b815260040161066e90613d29565b61219b81611b9f565b156121b85760405162461bcd60e51b815260040161066e906139be565b6121c460008383612988565b6001600160a01b038216600090815260c9602052604090206121e690826129cd565b506121f360ca82846129d9565b5060405181906001600160a01b0384169060009060008051602061425b833981519152908290a45050565b600080808061222d8686612b64565b9097909650945050505050565b6101c354600090612253906001600160a01b0316611ca0565b905061072681838560000154611c59565b6101c35460009061227d906001600160a01b0316611c1e565b8354604051632142170760e11b81529192506001600160a01b038316916342842e0e916122b091309187916004016136ff565b600060405180830381600087803b1580156122ca57600080fd5b505af11580156122de573d6000803e3d6000fd5b50505050505050565b60006122f2826110e2565b905061230081600084612988565b61230b600083611bb0565b600082815260d06020526040902054600260001961010060018416150201909116041561234957600082815260d06020526040812061234991613101565b6001600160a01b038116600090815260c96020526040902061236b90836129c1565b5061237760ca83612bc0565b5060405182906000906001600160a01b0384169060008051602061425b833981519152908390a45050565b60006123af848484612bcc565b90505b9392505050565b60fb5460ff16156123dc5760405162461bcd60e51b815260040161066e90613c1b565b60fb805460ff191660011790557f62e78cea01bee320cd4e420270b5ea74000d11b0c9f74754ebdbfc544b05a25861202c611bac565b6000610d46836001600160a01b038416612c2b565b303b1590565b600054610100900460ff16806124465750612446612427565b80612454575060005460ff16155b6124705760405162461bcd60e51b815260040161066e90613e48565b600054610100900460ff1615801561249b576000805460ff1961ff0019909116610100171660011790555b80156124ad576000805461ff00191690555b50565b600054610100900460ff16806124c957506124c9612427565b806124d7575060005460ff16155b6124f35760405162461bcd60e51b815260040161066e90613e48565b600054610100900460ff1615801561251e576000805460ff1961ff0019909116610100171660011790555b610191805460ff1916600117905580156124ad576000805461ff001916905550565b600054610100900460ff16806125595750612559612427565b80612567575060005460ff16155b6125835760405162461bcd60e51b815260040161066e90613e48565b600054610100900460ff161580156125ae576000805460ff1961ff0019909116610100171660011790555b61249b6301ffc9a760e01b612c43565b600054610100900460ff16806125d757506125d7612427565b806125e5575060005460ff16155b6126015760405162461bcd60e51b815260040161066e90613e48565b600054610100900460ff1615801561262c576000805460ff1961ff0019909116610100171660011790555b825161263f9060ce906020860190613145565b5081516126539060cf906020850190613145565b506126646380ac58cd60e01b612c43565b612674635b5e139f60e01b612c43565b61171163780e9d6360e01b612c43565b600054610100900460ff168061269d575061269d612427565b806126ab575060005460ff16155b6126c75760405162461bcd60e51b815260040161066e90613e48565b600054610100900460ff161580156126f2576000805460ff1961ff0019909116610100171660011790555b60fb805460ff1916905580156124ad576000805461ff001916905550565b60009182526065602052604090912060020155565b612730848484611dfd565b61273c84848484612c92565b6117605760405162461bcd60e51b815260040161066e906138fe565b60608161277d57506040805180820190915260018152600360fc1b60208201526105ac565b8160005b811561279557600101600a82049150612781565b60608167ffffffffffffffff811180156127ae57600080fd5b506040519080825280601f01601f1916602001820160405280156127d9576020820181803683370190505b50859350905060001982015b831561282a57600a840660300160f81b8282806001900393508151811061280857fe5b60200101906001600160f81b031916908160001a905350600a840493506127e5565b50949350505050565b6000610d4982612dcc565b6000610d468383612c2b565b60006001600160a01b03821663b93f9b0a600c611d0c565b6001600160a01b0383166128885760405162461bcd60e51b815260040161066e90613987565b60405163a9059cbb60e01b81526000906001600160a01b0386169063a9059cbb906128b99087908790600401613723565b602060405180830381600087803b1580156128d357600080fd5b505af11580156128e7573d6000803e3d6000fd5b505050506040513d601f19601f8201168201806040525081019061290b91906133bb565b905081816114275760405162461bcd60e51b815260040161066e9190613750565b60006001600160a01b03821663b93f9b0a6004611d0c565b60006001600160a01b03821663b93f9b0a600e611d0c565b600081848411156129805760405162461bcd60e51b815260040161066e9190613750565b505050900390565b6001600160a01b03831615806129a557506001600160a01b038216155b6107265760405162461bcd60e51b815260040161066e90613a2c565b6000610d468383612de4565b6000610d468383612eaa565b60006123af84846001600160a01b038516612ef4565b6000610d46836001600160a01b038416612eaa565b81546000908210612a275760405162461bcd60e51b815260040161066e906137f5565b826000018281548110612a3657fe5b9060005260206000200154905092915050565b6000610d46836001600160a01b038416612de4565b6001600160a01b038316612a845760405162461bcd60e51b815260040161066e90613987565b6040516323b872dd60e01b81526000906001600160a01b038716906323b872dd90612ab7908890889088906004016136ff565b602060405180830381600087803b158015612ad157600080fd5b505af1158015612ae5573d6000803e3d6000fd5b505050506040513d601f19601f82011682018060405250810190612b0991906133bb565b905081816122de5760405162461bcd60e51b815260040161066e9190613750565b60408051808201909152601781527604661696c656420746f20617070726f766520455243323604c1b602082015261176084848484612f8b565b815460009081908310612b895760405162461bcd60e51b815260040161066e90613ce7565b6000846000018481548110612b9a57fe5b906000526020600020906002020190508060000154816001015492509250509250929050565b6000610d468383612fbc565b60008281526001840160205260408120548281612bfc5760405162461bcd60e51b815260040161066e9190613750565b50846000016001820381548110612c0f57fe5b9060005260206000209060020201600101549150509392505050565b60009081526001919091016020526040902054151590565b6001600160e01b03198082161415612c6d5760405162461bcd60e51b815260040161066e90613950565b6001600160e01b0319166000908152609760205260409020805460ff19166001179055565b6000612ca6846001600160a01b0316613090565b612cb257506001611df5565b600060606001600160a01b038616630a85bd0160e11b612cd0611bac565b898888604051602401612ce69493929190613681565b60408051601f198184030181529181526020820180516001600160e01b03166001600160e01b0319909416939093179092529051612d2491906135d0565b6000604051808303816000865af19150503d8060008114612d61576040519150601f19603f3d011682016040523d82523d6000602084013e612d66565b606091505b509150915081612d9857805115612d805780518082602001fd5b60405162461bcd60e51b815260040161066e906138fe565b600081806020019051810190612dae9190613450565b6001600160e01b031916630a85bd0160e11b149350611df592505050565b60006001600160a01b03821663b93f9b0a6013611d0c565b60008181526001830160205260408120548015612ea05783546000198083019190810190600090879083908110612e1757fe5b9060005260206000200154905080876000018481548110612e3457fe5b600091825260208083209091019290925582815260018981019092526040902090840190558654879080612e6457fe5b60019003818190600052602060002001600090559055866001016000878152602001908152602001600020600090556001945050505050610d49565b6000915050610d49565b6000612eb68383612c2b565b612eec57508154600181810184556000848152602080822090930184905584548482528286019093526040902091909155610d49565b506000610d49565b600082815260018401602052604081205480612f595750506040805180820182528381526020808201848152865460018181018955600089815284812095516002909302909501918255915190820155865486845281880190925292909120556123b2565b82856000016001830381548110612f6c57fe5b90600052602060002090600202016001018190555060009150506123b2565b60405163095ea7b360e01b81526000906001600160a01b0386169063095ea7b3906128b99087908790600401613723565b60008181526001830160205260408120548015612ea05783546000198083019190810190600090879083908110612fef57fe5b906000526020600020906002020190508087600001848154811061300f57fe5b60009182526020808320845460029093020191825560019384015491840191909155835482528983019052604090209084019055865487908061304e57fe5b6000828152602080822060026000199094019384020182815560019081018390559290935588815289820190925260408220919091559450610d499350505050565b6000813f7fc5d2460186f7233c927e7db2dcc703c0e500b653ca82273b7bfad8045d85a470818114801590611df5575050151592915050565b6040518060a0016040528060006001600160a01b03168152602001600081526020016000815260200160008152602001600081525090565b50805460018160011615610100020316600290046000825580601f1061312757506124ad565b601f0160209004906000526020600020908101906124ad91906131c3565b828054600181600116156101000203166002900490600052602060002090601f016020900481019282601f1061318657805160ff19168380011785556131b3565b828001600101855582156131b3579182015b828111156131b3578251825591602001919060010190613198565b506131bf9291506131c3565b5090565b5b808211156131bf57600081556001016131c4565b803560ff81168114610d4957600080fd5b6000602082840312156131fa578081fd5b8135610d4681614191565b600060208284031215613216578081fd5b8151610d4681614191565b60008060408385031215613233578081fd5b823561323e81614191565b9150602083013561324e81614191565b809150509250929050565b60008060006060848603121561326d578081fd5b833561327881614191565b9250602084013561328881614191565b929592945050506040919091013590565b600080600080608085870312156132ae578081fd5b84356132b981614191565b93506020858101356132ca81614191565b935060408601359250606086013567ffffffffffffffff808211156132ed578384fd5b818801915088601f830112613300578384fd5b81358181111561330e578485fd5b613320601f8201601f1916850161413e565b91508082528984828501011115613335578485fd5b8084840185840137810190920192909252939692955090935050565b60008060408385031215613363578182fd5b823561336e81614191565b9150602083013561324e816141a6565b60008060408385031215613233578182fd5b600080604083850312156133a2578182fd5b82356133ad81614191565b946020939093013593505050565b6000602082840312156133cc578081fd5b8151610d46816141a6565b6000602082840312156133e8578081fd5b5035919050565b60008060408385031215613401578182fd5b82359150602083013561324e81614191565b60008060408385031215613425578182fd5b50508035926020909101359150565b600060208284031215613445578081fd5b8135610d46816141b4565b600060208284031215613461578081fd5b8151610d46816141b4565b60008060008060008060c08789031215613484578384fd5b863561348f81614191565b955060208701359450604087013593506134ac88606089016131d8565b92506080870135915060a087013590509295509295509295565b600060a082840312156134d7578081fd5b6134e160a061413e565b82516134ec81614191565b80825250602083015160208201526040830151604082015260608301516060820152608083015160808201528091505092915050565b600060208284031215613533578081fd5b5051919050565b6000806040838503121561354c578182fd5b505080516020909101519092909150565b600080600080600060a08688031215613574578283fd5b853594506020860135935061358c87604088016131d8565b94979396509394606081013594506080013592915050565b600081518084526135bc816020860160208601614165565b601f01601f19169290920160200192915050565b600082516135e2818460208701614165565b9190910192915050565b600080845460018082166000811461360b576001811461362257613651565b60ff198316865260028304607f1686019350613651565b600283048886526020808720875b838110156136495781548a820152908501908201613630565b505050860193505b5050508351613664818360208801614165565b01949350505050565b6001600160a01b0391909116815260200190565b6001600160a01b03858116825284166020820152604081018390526080606082018190526000906136b4908301846135a4565b9695505050505050565b6001600160a01b0397881681529590961660208601526040850193909352606084019190915260ff16608083015260a082015260c081019190915260e00190565b6001600160a01b039384168152919092166020820152604081019190915260600190565b6001600160a01b03929092168252602082015260400190565b901515815260200190565b90815260200190565b600060208252610d4660208301846135a4565b60208082526023908201527f54686973206164647265737320686173206e6f74206265656e20676f2d6c69736040820152621d195960ea1b606082015260800190565b6020808252602f908201527f43616e6e6f74207472616e7366657220706f736974696f6e206f6620746f6b6560408201526e37103cb7ba903237b713ba1037bbb760891b606082015260800190565b60208082526022908201527f456e756d657261626c655365743a20696e646578206f7574206f6620626f756e604082015261647360f01b606082015260800190565b6020808252602f908201527f416363657373436f6e74726f6c3a2073656e646572206d75737420626520616e60408201526e0818591b5a5b881d1bc819dc985b9d608a1b606082015260800190565b60208082526014908201527314185d5cd8589b194e881b9bdd081c185d5cd95960621b604082015260600190565b6020808252602a908201527f4f776e657220616e6420636f6e666967206164647265737365732063616e6e6f6040820152697420626520656d70747960b01b606082015260800190565b60208082526032908201527f4552433732313a207472616e7366657220746f206e6f6e20455243373231526560408201527131b2b4bb32b91034b6b83632b6b2b73a32b960711b606082015260800190565b6020808252601c908201527f4552433136353a20696e76616c696420696e7465726661636520696400000000604082015260600190565b6020808252601a908201527f43616e27742073656e6420746f207a65726f2061646472657373000000000000604082015260600190565b6020808252601c908201527f4552433732313a20746f6b656e20616c7265616479206d696e74656400000000604082015260600190565b6020808252601b908201527f536166654d6174683a206164646974696f6e206f766572666c6f770000000000604082015260600190565b60208082526034908201527f5472616e73666572526573747269637465645661756c7420746f6b656e732063604082015273185b9b9bdd081899481d1c985b9cd9995c9c995960621b606082015260800190565b6020808252603e908201527f4552433732315072657365744d696e7465725061757365724175746f49643a2060408201527f6d75737420686176652070617573657220726f6c6520746f2070617573650000606082015260800190565b602080825260119082015270506f736974696f6e20697320656d70747960781b604082015260600190565b60208082526024908201527f4552433732313a207472616e7366657220746f20746865207a65726f206164646040820152637265737360e01b606082015260800190565b60208082526019908201527822a9219b99189d1030b8383937bb32903a379031b0b63632b960391b604082015260600190565b6020808252602c908201527f4552433732313a206f70657261746f7220717565727920666f72206e6f6e657860408201526b34b9ba32b73a103a37b5b2b760a11b606082015260800190565b60208082526030908201527f416363657373436f6e74726f6c3a2073656e646572206d75737420626520616e60408201526f2061646d696e20746f207265766f6b6560801b606082015260800190565b60208082526010908201526f14185d5cd8589b194e881c185d5cd95960821b604082015260600190565b60208082526038908201527f4552433732313a20617070726f76652063616c6c6572206973206e6f74206f776040820152771b995c881b9bdc88185c1c1c9bdd995908199bdc88185b1b60421b606082015260800190565b6020808252602a908201527f4552433732313a2062616c616e636520717565727920666f7220746865207a65604082015269726f206164647265737360b01b606082015260800190565b60208082526022908201527f456e756d657261626c654d61703a20696e646578206f7574206f6620626f756e604082015261647360f01b606082015260800190565b6020808252818101527f4552433732313a206d696e7420746f20746865207a65726f2061646472657373604082015260600190565b6020808252603b908201527f556e6465726c79696e6720706f736974696f6e2063616e6e6f7420626520747260408201527f616e7366657272656420756e74696c206c6f636b6564556e74696c0000000000606082015260800190565b60208082526021908201527f536166654d6174683a206d756c7469706c69636174696f6e206f766572666c6f6040820152607760f81b606082015260800190565b6020808252602c908201527f4552433732313a20617070726f76656420717565727920666f72206e6f6e657860408201526b34b9ba32b73a103a37b5b2b760a11b606082015260800190565b6020808252602e908201527f436f6e747261637420696e7374616e63652068617320616c726561647920626560408201526d195b881a5b9a5d1a585b1a5e995960921b606082015260800190565b60208082526029908201527f4552433732313a207472616e73666572206f6620746f6b656e2074686174206960408201526839903737ba1037bbb760b91b606082015260800190565b6020808252602f908201527f4552433732314d657461646174613a2055524920717565727920666f72206e6f60408201526e3732bc34b9ba32b73a103a37b5b2b760891b606082015260800190565b60208082526021908201527f4552433732313a20617070726f76616c20746f2063757272656e74206f776e656040820152603960f91b606082015260800190565b60208082526031908201527f4552433732313a207472616e736665722063616c6c6572206973206e6f74206f6040820152701ddb995c881b9bdc88185c1c1c9bdd9959607a1b606082015260800190565b60208082526035908201527f4f6e6c792074686520746f6b656e206f776e657220697320616c6c6f776564206040820152743a379031b0b636103a3434b990333ab731ba34b7b760591b606082015260800190565b6020808252601f908201527f5265656e7472616e637947756172643a207265656e7472616e742063616c6c00604082015260600190565b602080825260409082018190527f4552433732315072657365744d696e7465725061757365724175746f49643a20908201527f6d75737420686176652070617573657220726f6c6520746f20756e7061757365606082015260800190565b6020808252602f908201527f416363657373436f6e74726f6c3a2063616e206f6e6c792072656e6f756e636560408201526e103937b632b9903337b91039b2b63360891b606082015260800190565b6020808252601e908201527f4e6f7420656e6f756768204669647520666f72207769746864726177616c0000604082015260600190565b918252602082015260400190565b60405181810167ffffffffffffffff8111828210171561415d57600080fd5b604052919050565b60005b83811015614180578181015183820152602001614168565b838111156117605750506000910152565b6001600160a01b03811681146124ad57600080fd5b80151581146124ad57600080fd5b6001600160e01b0319811681146124ad57600080fdfeb19546dff01e856fb3f010c267a7b1c60363cf8a4664e21cc89c26224620214e476f6c6466696e6368205632204163637265646974656420496e766573746f7220546f6b656e734552433732313a206f776e657220717565727920666f72206e6f6e6578697374656e7420746f6b656e65d7a28e3265b37a6474929f336521b332c1681b933f6cb9f3376673440d862addf252ad1be2c89b69c2b068fc378daa952ba7f163c4a11628f55a4df523b3efa2646970667358221220be628aa39f4d5a2e1ad653d56cddcd21427ea0c0b4c9e13beeb199a64865150364736f6c634300060c0033",
  "devdoc": {
    "kind": "dev",
    "methods": {
      "approve(address,uint256)": {
        "details": "Approves another address to transfer the given token ID The zero address indicates there is no approved address. There can only be one approved address per token at a given time. Can only be called by the token owner or an approved operator.",
        "params": {
          "to": "address to be approved for the given token ID",
          "tokenId": "uint256 ID of the token to be approved"
        }
      },
      "balanceOf(address)": {
        "details": "Gets the balance of the specified address.",
        "params": {
          "owner": "address to query the balance of"
        },
        "returns": {
          "_0": "uint256 representing the amount owned by the passed address"
        }
      },
      "baseURI()": {
        "details": "Returns the base URI set via {_setBaseURI}. This will be automatically added as a prefix in {tokenURI} to each token's URI, or to the token ID if no specific URI is set for that token ID."
      },
      "getApproved(uint256)": {
        "details": "Gets the approved address for a token ID, or zero if no address set Reverts if the token ID does not exist.",
        "params": {
          "tokenId": "uint256 ID of the token to query the approval of"
        },
        "returns": {
          "_0": "address currently approved for the given token ID"
        }
      },
      "getRoleAdmin(bytes32)": {
        "details": "Returns the admin role that controls `role`. See {grantRole} and {revokeRole}. To change a role's admin, use {_setRoleAdmin}."
      },
      "getRoleMember(bytes32,uint256)": {
        "details": "Returns one of the accounts that have `role`. `index` must be a value between 0 and {getRoleMemberCount}, non-inclusive. Role bearers are not sorted in any particular way, and their ordering may change at any point. WARNING: When using {getRoleMember} and {getRoleMemberCount}, make sure you perform all queries on the same block. See the following https://forum.openzeppelin.com/t/iterating-over-elements-on-enumerableset-in-openzeppelin-contracts/2296[forum post] for more information."
      },
      "getRoleMemberCount(bytes32)": {
        "details": "Returns the number of accounts that have `role`. Can be used together with {getRoleMember} to enumerate all bearers of a role."
      },
      "grantRole(bytes32,address)": {
        "details": "Grants `role` to `account`. If `account` had not been already granted `role`, emits a {RoleGranted} event. Requirements: - the caller must have ``role``'s admin role."
      },
      "hasRole(bytes32,address)": {
        "details": "Returns `true` if `account` has been granted `role`."
      },
      "isApprovedForAll(address,address)": {
        "details": "Tells whether an operator is approved by a given owner.",
        "params": {
          "operator": "operator address which you want to query the approval of",
          "owner": "owner address which you want to query the approval of"
        },
        "returns": {
          "_0": "bool whether the given operator is approved by the given owner"
        }
      },
      "name()": {
        "details": "Gets the token name.",
        "returns": {
          "_0": "string representing the token name"
        }
      },
      "ownerOf(uint256)": {
        "details": "Gets the owner of the specified token ID.",
        "params": {
          "tokenId": "uint256 ID of the token to query the owner of"
        },
        "returns": {
          "_0": "address currently marked as the owner of the given token ID"
        }
      },
      "pause()": {
        "details": "Pauses all token transfers. See {ERC721Pausable} and {Pausable-_pause}. Requirements: - the caller must have the `PAUSER_ROLE`."
      },
      "paused()": {
        "details": "Returns true if the contract is paused, and false otherwise."
      },
      "renounceRole(bytes32,address)": {
        "details": "Revokes `role` from the calling account. Roles are often managed via {grantRole} and {revokeRole}: this function's purpose is to provide a mechanism for accounts to lose their privileges if they are compromised (such as when a trusted device is misplaced). If the calling account had been granted `role`, emits a {RoleRevoked} event. Requirements: - the caller must be `account`."
      },
      "revokeRole(bytes32,address)": {
        "details": "Revokes `role` from `account`. If `account` had been granted `role`, emits a {RoleRevoked} event. Requirements: - the caller must have ``role``'s admin role."
      },
      "safeTransferFrom(address,address,uint256)": {
        "details": "Safely transfers the ownership of a given token ID to another address If the target address is a contract, it must implement {IERC721Receiver-onERC721Received}, which is called upon a safe transfer, and return the magic value `bytes4(keccak256(\"onERC721Received(address,address,uint256,bytes)\"))`; otherwise, the transfer is reverted. Requires the msg.sender to be the owner, approved, or operator",
        "params": {
          "from": "current owner of the token",
          "to": "address to receive the ownership of the given token ID",
          "tokenId": "uint256 ID of the token to be transferred"
        }
      },
      "safeTransferFrom(address,address,uint256,bytes)": {
        "details": "Safely transfers the ownership of a given token ID to another address If the target address is a contract, it must implement {IERC721Receiver-onERC721Received}, which is called upon a safe transfer, and return the magic value `bytes4(keccak256(\"onERC721Received(address,address,uint256,bytes)\"))`; otherwise, the transfer is reverted. Requires the _msgSender() to be the owner, approved, or operator",
        "params": {
          "_data": "bytes data to send along with a safe transfer check",
          "from": "current owner of the token",
          "to": "address to receive the ownership of the given token ID",
          "tokenId": "uint256 ID of the token to be transferred"
        }
      },
      "setApprovalForAll(address,bool)": {
        "details": "Sets or unsets the approval of a given operator An operator is allowed to transfer all tokens of the sender on their behalf.",
        "params": {
          "approved": "representing the status of the approval to be set",
          "operator": "operator address to set the approval"
        }
      },
      "supportsInterface(bytes4)": {
        "details": "See {IERC165-supportsInterface}. Time complexity O(1), guaranteed to always use less than 30 000 gas."
      },
      "symbol()": {
        "details": "Gets the token symbol.",
        "returns": {
          "_0": "string representing the token symbol"
        }
      },
      "tokenByIndex(uint256)": {
        "details": "Gets the token ID at a given index of all the tokens in this contract Reverts if the index is greater or equal to the total number of tokens.",
        "params": {
          "index": "uint256 representing the index to be accessed of the tokens list"
        },
        "returns": {
          "_0": "uint256 token ID at the given index of the tokens list"
        }
      },
      "tokenOfOwnerByIndex(address,uint256)": {
        "details": "Gets the token ID at a given index of the tokens list of the requested owner.",
        "params": {
          "index": "uint256 representing the index to be accessed of the requested tokens list",
          "owner": "address owning the tokens list to be accessed"
        },
        "returns": {
          "_0": "uint256 token ID at the given index of the tokens list owned by the requested address"
        }
      },
      "tokenURI(uint256)": {
        "details": "Returns the URI for a given token ID. May return an empty string. If a base URI is set (via {_setBaseURI}), it is added as a prefix to the token's own URI (via {_setTokenURI}). If there is a base URI but no token URI, the token's ID will be used as its URI when appending it to the base URI. This pattern for autogenerated token URIs can lead to large gas savings. .Examples |=== |`_setBaseURI()` |`_setTokenURI()` |`tokenURI()` | \"\" | \"\" | \"\" | \"\" | \"token.uri/123\" | \"token.uri/123\" | \"token.uri/\" | \"123\" | \"token.uri/123\" | \"token.uri/\" | \"\" | \"token.uri/<tokenId>\" |=== Requirements: - `tokenId` must exist."
      },
      "totalSupply()": {
        "details": "Gets the total amount of tokens stored by the contract.",
        "returns": {
          "_0": "uint256 representing the total amount of tokens"
        }
      },
      "transferFrom(address,address,uint256)": {
        "details": "Transfers the ownership of a given token ID to another address. Usage of this method is discouraged, use {safeTransferFrom} whenever possible. Requires the msg.sender to be the owner, approved, or operator.",
        "params": {
          "from": "current owner of the token",
          "to": "address to receive the ownership of the given token ID",
          "tokenId": "uint256 ID of the token to be transferred"
        }
      },
      "transferPosition(uint256,address)": {
        "details": "This method assumes that positions are mutually exclusive i.e. that the token  represents a position in either PoolTokens or Fidu, but not both."
      },
      "unpause()": {
        "details": "Unpauses all token transfers. See {ERC721Pausable} and {Pausable-_unpause}. Requirements: - the caller must have the `PAUSER_ROLE`."
      }
    },
    "version": 1
  },
  "userdoc": {
    "kind": "user",
    "methods": {},
    "version": 1
  },
  "storageLayout": {
    "storage": [
      {
        "astId": 151,
        "contract": "contracts/protocol/periphery/TransferRestrictedVault.sol:TransferRestrictedVault",
        "label": "initialized",
        "offset": 0,
        "slot": "0",
        "type": "t_bool"
      },
      {
        "astId": 154,
        "contract": "contracts/protocol/periphery/TransferRestrictedVault.sol:TransferRestrictedVault",
        "label": "initializing",
        "offset": 1,
        "slot": "0",
        "type": "t_bool"
      },
      {
        "astId": 219,
        "contract": "contracts/protocol/periphery/TransferRestrictedVault.sol:TransferRestrictedVault",
        "label": "______gap",
        "offset": 0,
        "slot": "1",
        "type": "t_array(t_uint256)50_storage"
      },
      {
        "astId": 144,
        "contract": "contracts/protocol/periphery/TransferRestrictedVault.sol:TransferRestrictedVault",
        "label": "__gap",
        "offset": 0,
        "slot": "51",
        "type": "t_array(t_uint256)50_storage"
      },
      {
        "astId": 264,
        "contract": "contracts/protocol/periphery/TransferRestrictedVault.sol:TransferRestrictedVault",
        "label": "_roles",
        "offset": 0,
        "slot": "101",
        "type": "t_mapping(t_bytes32,t_struct(RoleData)260_storage)"
      },
      {
        "astId": 509,
        "contract": "contracts/protocol/periphery/TransferRestrictedVault.sol:TransferRestrictedVault",
        "label": "__gap",
        "offset": 0,
        "slot": "102",
        "type": "t_array(t_uint256)49_storage"
      },
      {
        "astId": 527,
        "contract": "contracts/protocol/periphery/TransferRestrictedVault.sol:TransferRestrictedVault",
        "label": "_supportedInterfaces",
        "offset": 0,
        "slot": "151",
        "type": "t_mapping(t_bytes4,t_bool)"
      },
      {
        "astId": 584,
        "contract": "contracts/protocol/periphery/TransferRestrictedVault.sol:TransferRestrictedVault",
        "label": "__gap",
        "offset": 0,
        "slot": "152",
        "type": "t_array(t_uint256)49_storage"
      },
      {
        "astId": 2269,
        "contract": "contracts/protocol/periphery/TransferRestrictedVault.sol:TransferRestrictedVault",
        "label": "_holderTokens",
        "offset": 0,
        "slot": "201",
        "type": "t_mapping(t_address,t_struct(UintSet)4313_storage)"
      },
      {
        "astId": 2271,
        "contract": "contracts/protocol/periphery/TransferRestrictedVault.sol:TransferRestrictedVault",
        "label": "_tokenOwners",
        "offset": 0,
        "slot": "202",
        "type": "t_struct(UintToAddressMap)3838_storage"
      },
      {
        "astId": 2275,
        "contract": "contracts/protocol/periphery/TransferRestrictedVault.sol:TransferRestrictedVault",
        "label": "_tokenApprovals",
        "offset": 0,
        "slot": "204",
        "type": "t_mapping(t_uint256,t_address)"
      },
      {
        "astId": 2281,
        "contract": "contracts/protocol/periphery/TransferRestrictedVault.sol:TransferRestrictedVault",
        "label": "_operatorApprovals",
        "offset": 0,
        "slot": "205",
        "type": "t_mapping(t_address,t_mapping(t_address,t_bool))"
      },
      {
        "astId": 2283,
        "contract": "contracts/protocol/periphery/TransferRestrictedVault.sol:TransferRestrictedVault",
        "label": "_name",
        "offset": 0,
        "slot": "206",
        "type": "t_string_storage"
      },
      {
        "astId": 2285,
        "contract": "contracts/protocol/periphery/TransferRestrictedVault.sol:TransferRestrictedVault",
        "label": "_symbol",
        "offset": 0,
        "slot": "207",
        "type": "t_string_storage"
      },
      {
        "astId": 2289,
        "contract": "contracts/protocol/periphery/TransferRestrictedVault.sol:TransferRestrictedVault",
        "label": "_tokenURIs",
        "offset": 0,
        "slot": "208",
        "type": "t_mapping(t_uint256,t_string_storage)"
      },
      {
        "astId": 2291,
        "contract": "contracts/protocol/periphery/TransferRestrictedVault.sol:TransferRestrictedVault",
        "label": "_baseURI",
        "offset": 0,
        "slot": "209",
        "type": "t_string_storage"
      },
      {
        "astId": 3197,
        "contract": "contracts/protocol/periphery/TransferRestrictedVault.sol:TransferRestrictedVault",
        "label": "__gap",
        "offset": 0,
        "slot": "210",
        "type": "t_array(t_uint256)41_storage"
      },
      {
        "astId": 4429,
        "contract": "contracts/protocol/periphery/TransferRestrictedVault.sol:TransferRestrictedVault",
        "label": "_paused",
        "offset": 0,
        "slot": "251",
        "type": "t_bool"
      },
      {
        "astId": 4518,
        "contract": "contracts/protocol/periphery/TransferRestrictedVault.sol:TransferRestrictedVault",
        "label": "__gap",
        "offset": 0,
        "slot": "252",
        "type": "t_array(t_uint256)49_storage"
      },
      {
        "astId": 3265,
        "contract": "contracts/protocol/periphery/TransferRestrictedVault.sol:TransferRestrictedVault",
        "label": "__gap",
        "offset": 0,
        "slot": "301",
        "type": "t_array(t_uint256)50_storage"
      },
      {
        "astId": 7677,
        "contract": "contracts/protocol/periphery/TransferRestrictedVault.sol:TransferRestrictedVault",
        "label": "_tokenIdTracker",
        "offset": 0,
        "slot": "351",
        "type": "t_struct(Counter)3518_storage"
      },
      {
        "astId": 7735,
        "contract": "contracts/protocol/periphery/TransferRestrictedVault.sol:TransferRestrictedVault",
        "label": "__gap",
        "offset": 0,
        "slot": "352",
        "type": "t_array(t_uint256)49_storage"
      },
      {
        "astId": 4527,
        "contract": "contracts/protocol/periphery/TransferRestrictedVault.sol:TransferRestrictedVault",
        "label": "_notEntered",
        "offset": 0,
        "slot": "401",
        "type": "t_bool"
      },
      {
        "astId": 4568,
        "contract": "contracts/protocol/periphery/TransferRestrictedVault.sol:TransferRestrictedVault",
        "label": "__gap",
        "offset": 0,
        "slot": "402",
        "type": "t_array(t_uint256)49_storage"
      },
      {
        "astId": 27851,
        "contract": "contracts/protocol/periphery/TransferRestrictedVault.sol:TransferRestrictedVault",
        "label": "config",
        "offset": 0,
        "slot": "451",
        "type": "t_contract(GoldfinchConfig)17615"
      },
      {
        "astId": 27871,
        "contract": "contracts/protocol/periphery/TransferRestrictedVault.sol:TransferRestrictedVault",
        "label": "poolTokenPositions",
        "offset": 0,
        "slot": "452",
        "type": "t_mapping(t_uint256,t_struct(PoolTokenPosition)27862_storage)"
      },
      {
        "astId": 27875,
        "contract": "contracts/protocol/periphery/TransferRestrictedVault.sol:TransferRestrictedVault",
        "label": "fiduPositions",
        "offset": 0,
        "slot": "453",
        "type": "t_mapping(t_uint256,t_struct(FiduPosition)27867_storage)"
      }
    ],
    "types": {
      "t_address": {
        "encoding": "inplace",
        "label": "address",
        "numberOfBytes": "20"
      },
      "t_array(t_bytes32)dyn_storage": {
        "base": "t_bytes32",
        "encoding": "dynamic_array",
        "label": "bytes32[]",
        "numberOfBytes": "32"
      },
      "t_array(t_struct(MapEntry)3566_storage)dyn_storage": {
        "base": "t_struct(MapEntry)3566_storage",
        "encoding": "dynamic_array",
        "label": "struct EnumerableMap.MapEntry[]",
        "numberOfBytes": "32"
      },
      "t_array(t_uint256)41_storage": {
        "base": "t_uint256",
        "encoding": "inplace",
        "label": "uint256[41]",
        "numberOfBytes": "1312"
      },
      "t_array(t_uint256)49_storage": {
        "base": "t_uint256",
        "encoding": "inplace",
        "label": "uint256[49]",
        "numberOfBytes": "1568"
      },
      "t_array(t_uint256)50_storage": {
        "base": "t_uint256",
        "encoding": "inplace",
        "label": "uint256[50]",
        "numberOfBytes": "1600"
      },
      "t_bool": {
        "encoding": "inplace",
        "label": "bool",
        "numberOfBytes": "1"
      },
      "t_bytes32": {
        "encoding": "inplace",
        "label": "bytes32",
        "numberOfBytes": "32"
      },
      "t_bytes4": {
        "encoding": "inplace",
        "label": "bytes4",
        "numberOfBytes": "4"
      },
      "t_contract(GoldfinchConfig)17615": {
        "encoding": "inplace",
        "label": "contract GoldfinchConfig",
        "numberOfBytes": "20"
      },
      "t_mapping(t_address,t_bool)": {
        "encoding": "mapping",
        "key": "t_address",
        "label": "mapping(address => bool)",
        "numberOfBytes": "32",
        "value": "t_bool"
      },
      "t_mapping(t_address,t_mapping(t_address,t_bool))": {
        "encoding": "mapping",
        "key": "t_address",
        "label": "mapping(address => mapping(address => bool))",
        "numberOfBytes": "32",
        "value": "t_mapping(t_address,t_bool)"
      },
      "t_mapping(t_address,t_struct(UintSet)4313_storage)": {
        "encoding": "mapping",
        "key": "t_address",
        "label": "mapping(address => struct EnumerableSet.UintSet)",
        "numberOfBytes": "32",
        "value": "t_struct(UintSet)4313_storage"
      },
      "t_mapping(t_bytes32,t_struct(RoleData)260_storage)": {
        "encoding": "mapping",
        "key": "t_bytes32",
        "label": "mapping(bytes32 => struct AccessControlUpgradeSafe.RoleData)",
        "numberOfBytes": "32",
        "value": "t_struct(RoleData)260_storage"
      },
      "t_mapping(t_bytes32,t_uint256)": {
        "encoding": "mapping",
        "key": "t_bytes32",
        "label": "mapping(bytes32 => uint256)",
        "numberOfBytes": "32",
        "value": "t_uint256"
      },
      "t_mapping(t_bytes4,t_bool)": {
        "encoding": "mapping",
        "key": "t_bytes4",
        "label": "mapping(bytes4 => bool)",
        "numberOfBytes": "32",
        "value": "t_bool"
      },
      "t_mapping(t_uint256,t_address)": {
        "encoding": "mapping",
        "key": "t_uint256",
        "label": "mapping(uint256 => address)",
        "numberOfBytes": "32",
        "value": "t_address"
      },
      "t_mapping(t_uint256,t_string_storage)": {
        "encoding": "mapping",
        "key": "t_uint256",
        "label": "mapping(uint256 => string)",
        "numberOfBytes": "32",
        "value": "t_string_storage"
      },
      "t_mapping(t_uint256,t_struct(FiduPosition)27867_storage)": {
        "encoding": "mapping",
        "key": "t_uint256",
        "label": "mapping(uint256 => struct TransferRestrictedVault.FiduPosition)",
        "numberOfBytes": "32",
        "value": "t_struct(FiduPosition)27867_storage"
      },
      "t_mapping(t_uint256,t_struct(PoolTokenPosition)27862_storage)": {
        "encoding": "mapping",
        "key": "t_uint256",
        "label": "mapping(uint256 => struct TransferRestrictedVault.PoolTokenPosition)",
        "numberOfBytes": "32",
        "value": "t_struct(PoolTokenPosition)27862_storage"
      },
      "t_string_storage": {
        "encoding": "bytes",
        "label": "string",
        "numberOfBytes": "32"
      },
      "t_struct(AddressSet)4204_storage": {
        "encoding": "inplace",
        "label": "struct EnumerableSet.AddressSet",
        "members": [
          {
            "astId": 4203,
            "contract": "contracts/protocol/periphery/TransferRestrictedVault.sol:TransferRestrictedVault",
            "label": "_inner",
            "offset": 0,
            "slot": "0",
            "type": "t_struct(Set)4024_storage"
          }
        ],
        "numberOfBytes": "64"
      },
      "t_struct(Counter)3518_storage": {
        "encoding": "inplace",
        "label": "struct Counters.Counter",
        "members": [
          {
            "astId": 3517,
            "contract": "contracts/protocol/periphery/TransferRestrictedVault.sol:TransferRestrictedVault",
            "label": "_value",
            "offset": 0,
            "slot": "0",
            "type": "t_uint256"
          }
        ],
        "numberOfBytes": "32"
      },
      "t_struct(FiduPosition)27867_storage": {
        "encoding": "inplace",
        "label": "struct TransferRestrictedVault.FiduPosition",
        "members": [
          {
            "astId": 27864,
            "contract": "contracts/protocol/periphery/TransferRestrictedVault.sol:TransferRestrictedVault",
            "label": "amount",
            "offset": 0,
            "slot": "0",
            "type": "t_uint256"
          },
          {
            "astId": 27866,
            "contract": "contracts/protocol/periphery/TransferRestrictedVault.sol:TransferRestrictedVault",
            "label": "lockedUntil",
            "offset": 0,
            "slot": "1",
            "type": "t_uint256"
          }
        ],
        "numberOfBytes": "64"
      },
      "t_struct(Map)3574_storage": {
        "encoding": "inplace",
        "label": "struct EnumerableMap.Map",
        "members": [
          {
            "astId": 3569,
            "contract": "contracts/protocol/periphery/TransferRestrictedVault.sol:TransferRestrictedVault",
            "label": "_entries",
            "offset": 0,
            "slot": "0",
            "type": "t_array(t_struct(MapEntry)3566_storage)dyn_storage"
          },
          {
            "astId": 3573,
            "contract": "contracts/protocol/periphery/TransferRestrictedVault.sol:TransferRestrictedVault",
            "label": "_indexes",
            "offset": 0,
            "slot": "1",
            "type": "t_mapping(t_bytes32,t_uint256)"
          }
        ],
        "numberOfBytes": "64"
      },
      "t_struct(MapEntry)3566_storage": {
        "encoding": "inplace",
        "label": "struct EnumerableMap.MapEntry",
        "members": [
          {
            "astId": 3563,
            "contract": "contracts/protocol/periphery/TransferRestrictedVault.sol:TransferRestrictedVault",
            "label": "_key",
            "offset": 0,
            "slot": "0",
            "type": "t_bytes32"
          },
          {
            "astId": 3565,
            "contract": "contracts/protocol/periphery/TransferRestrictedVault.sol:TransferRestrictedVault",
            "label": "_value",
            "offset": 0,
            "slot": "1",
            "type": "t_bytes32"
          }
        ],
        "numberOfBytes": "64"
      },
      "t_struct(PoolTokenPosition)27862_storage": {
        "encoding": "inplace",
        "label": "struct TransferRestrictedVault.PoolTokenPosition",
        "members": [
          {
            "astId": 27859,
            "contract": "contracts/protocol/periphery/TransferRestrictedVault.sol:TransferRestrictedVault",
            "label": "tokenId",
            "offset": 0,
            "slot": "0",
            "type": "t_uint256"
          },
          {
            "astId": 27861,
            "contract": "contracts/protocol/periphery/TransferRestrictedVault.sol:TransferRestrictedVault",
            "label": "lockedUntil",
            "offset": 0,
            "slot": "1",
            "type": "t_uint256"
          }
        ],
        "numberOfBytes": "64"
      },
      "t_struct(RoleData)260_storage": {
        "encoding": "inplace",
        "label": "struct AccessControlUpgradeSafe.RoleData",
        "members": [
          {
            "astId": 257,
            "contract": "contracts/protocol/periphery/TransferRestrictedVault.sol:TransferRestrictedVault",
            "label": "members",
            "offset": 0,
            "slot": "0",
            "type": "t_struct(AddressSet)4204_storage"
          },
          {
            "astId": 259,
            "contract": "contracts/protocol/periphery/TransferRestrictedVault.sol:TransferRestrictedVault",
            "label": "adminRole",
            "offset": 0,
            "slot": "2",
            "type": "t_bytes32"
          }
        ],
        "numberOfBytes": "96"
      },
      "t_struct(Set)4024_storage": {
        "encoding": "inplace",
        "label": "struct EnumerableSet.Set",
        "members": [
          {
            "astId": 4019,
            "contract": "contracts/protocol/periphery/TransferRestrictedVault.sol:TransferRestrictedVault",
            "label": "_values",
            "offset": 0,
            "slot": "0",
            "type": "t_array(t_bytes32)dyn_storage"
          },
          {
            "astId": 4023,
            "contract": "contracts/protocol/periphery/TransferRestrictedVault.sol:TransferRestrictedVault",
            "label": "_indexes",
            "offset": 0,
            "slot": "1",
            "type": "t_mapping(t_bytes32,t_uint256)"
          }
        ],
        "numberOfBytes": "64"
      },
      "t_struct(UintSet)4313_storage": {
        "encoding": "inplace",
        "label": "struct EnumerableSet.UintSet",
        "members": [
          {
            "astId": 4312,
            "contract": "contracts/protocol/periphery/TransferRestrictedVault.sol:TransferRestrictedVault",
            "label": "_inner",
            "offset": 0,
            "slot": "0",
            "type": "t_struct(Set)4024_storage"
          }
        ],
        "numberOfBytes": "64"
      },
      "t_struct(UintToAddressMap)3838_storage": {
        "encoding": "inplace",
        "label": "struct EnumerableMap.UintToAddressMap",
        "members": [
          {
            "astId": 3837,
            "contract": "contracts/protocol/periphery/TransferRestrictedVault.sol:TransferRestrictedVault",
            "label": "_inner",
            "offset": 0,
            "slot": "0",
            "type": "t_struct(Map)3574_storage"
          }
        ],
        "numberOfBytes": "64"
      },
      "t_uint256": {
        "encoding": "inplace",
        "label": "uint256",
        "numberOfBytes": "32"
      }
    }
  }
}