{
  "address": "0x01b3C33ce0E5906E8c7E17CFEAf9D06Dca80a855",
  "abi": [
    {
      "anonymous": false,
      "inputs": [
        {
          "indexed": true,
          "internalType": "address",
          "name": "account",
          "type": "address"
        },
        {
          "indexed": true,
          "internalType": "address",
          "name": "operator",
          "type": "address"
        },
        {
          "indexed": false,
          "internalType": "bool",
          "name": "approved",
          "type": "bool"
        }
      ],
      "name": "ApprovalForAll",
      "type": "event"
    },
    {
      "anonymous": false,
      "inputs": [
        {
          "indexed": false,
          "internalType": "address",
          "name": "account",
          "type": "address"
        }
      ],
      "name": "Paused",
      "type": "event"
    },
    {
      "anonymous": false,
      "inputs": [
        {
          "indexed": true,
          "internalType": "bytes32",
          "name": "role",
          "type": "bytes32"
        },
        {
          "indexed": true,
          "internalType": "bytes32",
          "name": "previousAdminRole",
          "type": "bytes32"
        },
        {
          "indexed": true,
          "internalType": "bytes32",
          "name": "newAdminRole",
          "type": "bytes32"
        }
      ],
      "name": "RoleAdminChanged",
      "type": "event"
    },
    {
      "anonymous": false,
      "inputs": [
        {
          "indexed": true,
          "internalType": "bytes32",
          "name": "role",
          "type": "bytes32"
        },
        {
          "indexed": true,
          "internalType": "address",
          "name": "account",
          "type": "address"
        },
        {
          "indexed": true,
          "internalType": "address",
          "name": "sender",
          "type": "address"
        }
      ],
      "name": "RoleGranted",
      "type": "event"
    },
    {
      "anonymous": false,
      "inputs": [
        {
          "indexed": true,
          "internalType": "bytes32",
          "name": "role",
          "type": "bytes32"
        },
        {
          "indexed": true,
          "internalType": "address",
          "name": "account",
          "type": "address"
        },
        {
          "indexed": true,
          "internalType": "address",
          "name": "sender",
          "type": "address"
        }
      ],
      "name": "RoleRevoked",
      "type": "event"
    },
    {
      "anonymous": false,
      "inputs": [
        {
          "indexed": true,
          "internalType": "address",
          "name": "operator",
          "type": "address"
        },
        {
          "indexed": true,
          "internalType": "address",
          "name": "from",
          "type": "address"
        },
        {
          "indexed": true,
          "internalType": "address",
          "name": "to",
          "type": "address"
        },
        {
          "indexed": false,
          "internalType": "uint256[]",
          "name": "ids",
          "type": "uint256[]"
        },
        {
          "indexed": false,
          "internalType": "uint256[]",
          "name": "values",
          "type": "uint256[]"
        }
      ],
      "name": "TransferBatch",
      "type": "event"
    },
    {
      "anonymous": false,
      "inputs": [
        {
          "indexed": true,
          "internalType": "address",
          "name": "operator",
          "type": "address"
        },
        {
          "indexed": true,
          "internalType": "address",
          "name": "from",
          "type": "address"
        },
        {
          "indexed": true,
          "internalType": "address",
          "name": "to",
          "type": "address"
        },
        {
          "indexed": false,
          "internalType": "uint256",
          "name": "id",
          "type": "uint256"
        },
        {
          "indexed": false,
          "internalType": "uint256",
          "name": "value",
          "type": "uint256"
        }
      ],
      "name": "TransferSingle",
      "type": "event"
    },
    {
      "anonymous": false,
      "inputs": [
        {
          "indexed": false,
          "internalType": "string",
          "name": "value",
          "type": "string"
        },
        {
          "indexed": true,
          "internalType": "uint256",
          "name": "id",
          "type": "uint256"
        }
      ],
      "name": "URI",
      "type": "event"
    },
    {
      "anonymous": false,
      "inputs": [
        {
          "indexed": false,
          "internalType": "address",
          "name": "account",
          "type": "address"
        }
      ],
      "name": "Unpaused",
      "type": "event"
    },
    {
      "inputs": [],
      "name": "DEFAULT_ADMIN_ROLE",
      "outputs": [
        {
          "internalType": "bytes32",
          "name": "",
          "type": "bytes32"
        }
      ],
      "stateMutability": "view",
      "type": "function"
    },
    {
      "inputs": [],
      "name": "ID_TYPE_0",
      "outputs": [
        {
          "internalType": "uint256",
          "name": "",
          "type": "uint256"
        }
      ],
      "stateMutability": "view",
      "type": "function"
    },
    {
      "inputs": [],
      "name": "ID_TYPE_1",
      "outputs": [
        {
          "internalType": "uint256",
          "name": "",
          "type": "uint256"
        }
      ],
      "stateMutability": "view",
      "type": "function"
    },
    {
      "inputs": [],
      "name": "ID_TYPE_10",
      "outputs": [
        {
          "internalType": "uint256",
          "name": "",
          "type": "uint256"
        }
      ],
      "stateMutability": "view",
      "type": "function"
    },
    {
      "inputs": [],
      "name": "ID_TYPE_2",
      "outputs": [
        {
          "internalType": "uint256",
          "name": "",
          "type": "uint256"
        }
      ],
      "stateMutability": "view",
      "type": "function"
    },
    {
      "inputs": [],
      "name": "ID_TYPE_3",
      "outputs": [
        {
          "internalType": "uint256",
          "name": "",
          "type": "uint256"
        }
      ],
      "stateMutability": "view",
      "type": "function"
    },
    {
      "inputs": [],
      "name": "ID_TYPE_4",
      "outputs": [
        {
          "internalType": "uint256",
          "name": "",
          "type": "uint256"
        }
      ],
      "stateMutability": "view",
      "type": "function"
    },
    {
      "inputs": [],
      "name": "ID_TYPE_5",
      "outputs": [
        {
          "internalType": "uint256",
          "name": "",
          "type": "uint256"
        }
      ],
      "stateMutability": "view",
      "type": "function"
    },
    {
      "inputs": [],
      "name": "ID_TYPE_6",
      "outputs": [
        {
          "internalType": "uint256",
          "name": "",
          "type": "uint256"
        }
      ],
      "stateMutability": "view",
      "type": "function"
    },
    {
      "inputs": [],
      "name": "ID_TYPE_7",
      "outputs": [
        {
          "internalType": "uint256",
          "name": "",
          "type": "uint256"
        }
      ],
      "stateMutability": "view",
      "type": "function"
    },
    {
      "inputs": [],
      "name": "ID_TYPE_8",
      "outputs": [
        {
          "internalType": "uint256",
          "name": "",
          "type": "uint256"
        }
      ],
      "stateMutability": "view",
      "type": "function"
    },
    {
      "inputs": [],
      "name": "ID_TYPE_9",
      "outputs": [
        {
          "internalType": "uint256",
          "name": "",
          "type": "uint256"
        }
      ],
      "stateMutability": "view",
      "type": "function"
    },
    {
      "inputs": [],
      "name": "MINT_COST_PER_TOKEN",
      "outputs": [
        {
          "internalType": "uint256",
          "name": "",
          "type": "uint256"
        }
      ],
      "stateMutability": "view",
      "type": "function"
    },
    {
      "inputs": [],
      "name": "OWNER_ROLE",
      "outputs": [
        {
          "internalType": "bytes32",
          "name": "",
          "type": "bytes32"
        }
      ],
      "stateMutability": "view",
      "type": "function"
    },
    {
      "inputs": [],
      "name": "PAUSER_ROLE",
      "outputs": [
        {
          "internalType": "bytes32",
          "name": "",
          "type": "bytes32"
        }
      ],
      "stateMutability": "view",
      "type": "function"
    },
    {
      "inputs": [],
      "name": "SIGNER_ROLE",
      "outputs": [
        {
          "internalType": "bytes32",
          "name": "",
          "type": "bytes32"
        }
      ],
      "stateMutability": "view",
      "type": "function"
    },
    {
      "inputs": [
        {
          "internalType": "address",
          "name": "account",
          "type": "address"
        },
        {
          "internalType": "uint256",
          "name": "id",
          "type": "uint256"
        }
      ],
      "name": "balanceOf",
      "outputs": [
        {
          "internalType": "uint256",
          "name": "",
          "type": "uint256"
        }
      ],
      "stateMutability": "view",
      "type": "function"
    },
    {
      "inputs": [
        {
          "internalType": "address[]",
          "name": "accounts",
          "type": "address[]"
        },
        {
          "internalType": "uint256[]",
          "name": "ids",
          "type": "uint256[]"
        }
      ],
      "name": "balanceOfBatch",
      "outputs": [
        {
          "internalType": "uint256[]",
          "name": "",
          "type": "uint256[]"
        }
      ],
      "stateMutability": "view",
      "type": "function"
    },
    {
      "inputs": [
        {
          "internalType": "address",
          "name": "account",
          "type": "address"
        },
        {
          "internalType": "uint256",
          "name": "id",
          "type": "uint256"
        },
        {
          "internalType": "uint256",
          "name": "expiresAt",
          "type": "uint256"
        },
        {
          "internalType": "bytes",
          "name": "signature",
          "type": "bytes"
        }
      ],
      "name": "burn",
      "outputs": [],
      "stateMutability": "nonpayable",
      "type": "function"
    },
    {
      "inputs": [
        {
          "internalType": "bytes32",
          "name": "role",
          "type": "bytes32"
        }
      ],
      "name": "getRoleAdmin",
      "outputs": [
        {
          "internalType": "bytes32",
          "name": "",
          "type": "bytes32"
        }
      ],
      "stateMutability": "view",
      "type": "function"
    },
    {
      "inputs": [
        {
          "internalType": "bytes32",
          "name": "role",
          "type": "bytes32"
        },
        {
          "internalType": "uint256",
          "name": "index",
          "type": "uint256"
        }
      ],
      "name": "getRoleMember",
      "outputs": [
        {
          "internalType": "address",
          "name": "",
          "type": "address"
        }
      ],
      "stateMutability": "view",
      "type": "function"
    },
    {
      "inputs": [
        {
          "internalType": "bytes32",
          "name": "role",
          "type": "bytes32"
        }
      ],
      "name": "getRoleMemberCount",
      "outputs": [
        {
          "internalType": "uint256",
          "name": "",
          "type": "uint256"
        }
      ],
      "stateMutability": "view",
      "type": "function"
    },
    {
      "inputs": [
        {
          "internalType": "bytes32",
          "name": "role",
          "type": "bytes32"
        },
        {
          "internalType": "address",
          "name": "account",
          "type": "address"
        }
      ],
      "name": "grantRole",
      "outputs": [],
      "stateMutability": "nonpayable",
      "type": "function"
    },
    {
      "inputs": [
        {
          "internalType": "bytes32",
          "name": "role",
          "type": "bytes32"
        },
        {
          "internalType": "address",
          "name": "account",
          "type": "address"
        }
      ],
      "name": "hasRole",
      "outputs": [
        {
          "internalType": "bool",
          "name": "",
          "type": "bool"
        }
      ],
      "stateMutability": "view",
      "type": "function"
    },
    {
      "inputs": [
        {
          "internalType": "address",
          "name": "owner",
          "type": "address"
        },
        {
          "internalType": "string",
          "name": "uri",
          "type": "string"
        }
      ],
      "name": "initialize",
      "outputs": [],
      "stateMutability": "nonpayable",
      "type": "function"
    },
    {
      "inputs": [],
      "name": "isAdmin",
      "outputs": [
        {
          "internalType": "bool",
          "name": "",
          "type": "bool"
        }
      ],
      "stateMutability": "view",
      "type": "function"
    },
    {
      "inputs": [
        {
          "internalType": "address",
          "name": "account",
          "type": "address"
        },
        {
          "internalType": "address",
          "name": "operator",
          "type": "address"
        }
      ],
      "name": "isApprovedForAll",
      "outputs": [
        {
          "internalType": "bool",
          "name": "",
          "type": "bool"
        }
      ],
      "stateMutability": "view",
      "type": "function"
    },
    {
      "inputs": [
        {
          "internalType": "uint256",
          "name": "id",
          "type": "uint256"
        },
        {
          "internalType": "uint256",
          "name": "expiresAt",
          "type": "uint256"
        },
        {
          "internalType": "bytes",
          "name": "signature",
          "type": "bytes"
        }
      ],
      "name": "mint",
      "outputs": [],
      "stateMutability": "payable",
      "type": "function"
    },
    {
      "inputs": [],
      "name": "name",
      "outputs": [
        {
          "internalType": "string",
          "name": "",
          "type": "string"
        }
      ],
      "stateMutability": "pure",
      "type": "function"
    },
    {
      "inputs": [
        {
          "internalType": "address",
          "name": "",
          "type": "address"
        }
      ],
      "name": "nonces",
      "outputs": [
        {
          "internalType": "uint256",
          "name": "",
          "type": "uint256"
        }
      ],
      "stateMutability": "view",
      "type": "function"
    },
    {
      "inputs": [],
      "name": "pause",
      "outputs": [],
      "stateMutability": "nonpayable",
      "type": "function"
    },
    {
      "inputs": [],
      "name": "paused",
      "outputs": [
        {
          "internalType": "bool",
          "name": "",
          "type": "bool"
        }
      ],
      "stateMutability": "view",
      "type": "function"
    },
    {
      "inputs": [
        {
          "internalType": "bytes32",
          "name": "role",
          "type": "bytes32"
        },
        {
          "internalType": "address",
          "name": "account",
          "type": "address"
        }
      ],
      "name": "renounceRole",
      "outputs": [],
      "stateMutability": "nonpayable",
      "type": "function"
    },
    {
      "inputs": [
        {
          "internalType": "bytes32",
          "name": "role",
          "type": "bytes32"
        },
        {
          "internalType": "address",
          "name": "account",
          "type": "address"
        }
      ],
      "name": "revokeRole",
      "outputs": [],
      "stateMutability": "nonpayable",
      "type": "function"
    },
    {
      "inputs": [
        {
          "internalType": "address",
          "name": "from",
          "type": "address"
        },
        {
          "internalType": "address",
          "name": "to",
          "type": "address"
        },
        {
          "internalType": "uint256[]",
          "name": "ids",
          "type": "uint256[]"
        },
        {
          "internalType": "uint256[]",
          "name": "amounts",
          "type": "uint256[]"
        },
        {
          "internalType": "bytes",
          "name": "data",
          "type": "bytes"
        }
      ],
      "name": "safeBatchTransferFrom",
      "outputs": [],
      "stateMutability": "nonpayable",
      "type": "function"
    },
    {
      "inputs": [
        {
          "internalType": "address",
          "name": "from",
          "type": "address"
        },
        {
          "internalType": "address",
          "name": "to",
          "type": "address"
        },
        {
          "internalType": "uint256",
          "name": "id",
          "type": "uint256"
        },
        {
          "internalType": "uint256",
          "name": "amount",
          "type": "uint256"
        },
        {
          "internalType": "bytes",
          "name": "data",
          "type": "bytes"
        }
      ],
      "name": "safeTransferFrom",
      "outputs": [],
      "stateMutability": "nonpayable",
      "type": "function"
    },
    {
      "inputs": [
        {
          "internalType": "address",
          "name": "operator",
          "type": "address"
        },
        {
          "internalType": "bool",
          "name": "approved",
          "type": "bool"
        }
      ],
      "name": "setApprovalForAll",
      "outputs": [],
      "stateMutability": "nonpayable",
      "type": "function"
    },
    {
      "inputs": [
        {
          "internalType": "uint256[]",
          "name": "ids",
          "type": "uint256[]"
        },
        {
          "internalType": "bool[]",
          "name": "values",
          "type": "bool[]"
        }
      ],
      "name": "setSupportedUIDTypes",
      "outputs": [],
      "stateMutability": "nonpayable",
      "type": "function"
    },
    {
      "inputs": [
        {
          "internalType": "string",
          "name": "newuri",
          "type": "string"
        }
      ],
      "name": "setURI",
      "outputs": [],
      "stateMutability": "nonpayable",
      "type": "function"
    },
    {
      "inputs": [
        {
          "internalType": "uint256",
          "name": "",
          "type": "uint256"
        }
      ],
      "name": "supportedUIDTypes",
      "outputs": [
        {
          "internalType": "bool",
          "name": "",
          "type": "bool"
        }
      ],
      "stateMutability": "view",
      "type": "function"
    },
    {
      "inputs": [
        {
          "internalType": "bytes4",
          "name": "interfaceId",
          "type": "bytes4"
        }
      ],
      "name": "supportsInterface",
      "outputs": [
        {
          "internalType": "bool",
          "name": "",
          "type": "bool"
        }
      ],
      "stateMutability": "view",
      "type": "function"
    },
    {
      "inputs": [],
      "name": "symbol",
      "outputs": [
        {
          "internalType": "string",
          "name": "",
          "type": "string"
        }
      ],
      "stateMutability": "pure",
      "type": "function"
    },
    {
      "inputs": [],
      "name": "unpause",
      "outputs": [],
      "stateMutability": "nonpayable",
      "type": "function"
    },
    {
      "inputs": [
        {
          "internalType": "uint256",
          "name": "",
          "type": "uint256"
        }
      ],
      "name": "uri",
      "outputs": [
        {
          "internalType": "string",
          "name": "",
          "type": "string"
        }
      ],
      "stateMutability": "view",
      "type": "function"
    }
  ],
  "transactionHash": "0xe33d2594cd311b54c7146e7290b4bae0cdb86c1b010ffe9126e16c87076b10cb",
  "args": [],
  "solcInputHash": "747dacc88ddb35a6a2f9140874acf8f5",
  "bytecode": "0x608060405234801561001057600080fd5b50613a9b806100206000396000f3fe6080604052600436106102665760003560e01c80638456cb5911610144578063b6db75a0116100b6578063e58378bb1161007a578063e58378bb1461070a578063e63ab1e91461072c578063e985e9c51461074e578063ec2e8a7514610797578063f242432a146107ac578063f399e22e146107cc57600080fd5b8063b6db75a01461068b578063ca15c873146106a0578063d547741f146106c0578063ddd8f687146106e0578063e57a2a50146106f557600080fd5b806391d148541161010857806391d14854146105e857806395d89b41146106085780639b56d78814610634578063a1ebf35d14610649578063a217fddf14610634578063a22cb4651461066b57600080fd5b80638456cb591461052a578063879dcceb1461053f5780638a94b05f1461055f5780639010d07c1461057f5780639142575d146105b757600080fd5b80632f2ff15d116101dd5780635344626a116101a15780635344626a146104905780635c975abb146104a5578063701d240a146104bd5780637ecebe00146104d2578063801dfa901461050057806380f878021461051557600080fd5b80632f2ff15d146103f957806336568abe146104195780633f4ba83a14610439578063479e743c1461044e5780634e1273f41461046357600080fd5b80630e89341c1161022f5780630e89341c146103445780631484bddd14610364578063248a9ca3146103795780632dc2c007146103a95780632e82d895146103c45780632eb2c2d6146103d957600080fd5b8062fdd58e1461026b57806301ffc9a71461029e57806302fe5305146102ce57806306fdde03146102f057806308dc9f4214610331575b600080fd5b34801561027757600080fd5b5061028b61028636600461310e565b6107ec565b6040519081526020015b60405180910390f35b3480156102aa57600080fd5b506102be6102b9366004613339565b610888565b6040519015158152602001610295565b3480156102da57600080fd5b506102ee6102e9366004613371565b610893565b005b3480156102fc57600080fd5b5060408051808201909152600f81526e556e69717565204964656e7469747960881b60208201525b60405161029591906135ee565b6102ee61033f3660046133ab565b6108c3565b34801561035057600080fd5b5061032461035f3660046132de565b610b09565b34801561037057600080fd5b5061028b600881565b34801561038557600080fd5b5061028b6103943660046132de565b60009081526065602052604090206001015490565b3480156103b557600080fd5b5061028b6602f2e16f29e00081565b3480156103d057600080fd5b5061028b600381565b3480156103e557600080fd5b506102ee6103f4366004612f93565b610b9d565b34801561040557600080fd5b506102ee6104143660046132f6565b610c34565b34801561042557600080fd5b506102ee6104343660046132f6565b610c5b565b34801561044557600080fd5b506102ee610c7d565b34801561045a57600080fd5b5061028b600581565b34801561046f57600080fd5b5061048361047e36600461319c565b610d09565b60405161029591906135ad565b34801561049c57600080fd5b5061028b600681565b3480156104b157600080fd5b5060fb5460ff166102be565b3480156104c957600080fd5b5061028b600181565b3480156104de57600080fd5b5061028b6104ed366004612f47565b6101916020526000908152604090205481565b34801561050c57600080fd5b5061028b600781565b34801561052157600080fd5b5061028b600281565b34801561053657600080fd5b506102ee610e6a565b34801561054b57600080fd5b506102ee61055a36600461325c565b610ef2565b34801561056b57600080fd5b506102ee61057a366004613137565b611007565b34801561058b57600080fd5b5061059f61059a366004613318565b61119c565b6040516001600160a01b039091168152602001610295565b3480156105c357600080fd5b506102be6105d23660046132de565b6101926020526000908152604090205460ff1681565b3480156105f457600080fd5b506102be6106033660046132f6565b6111bb565b34801561061457600080fd5b5060408051808201909152600381526215525160ea1b6020820152610324565b34801561064057600080fd5b5061028b600081565b34801561065557600080fd5b5061028b600080516020613a4683398151915281565b34801561067757600080fd5b506102ee61068636600461309a565b6111e6565b34801561069757600080fd5b506102be6112bd565b3480156106ac57600080fd5b5061028b6106bb3660046132de565b6112dc565b3480156106cc57600080fd5b506102ee6106db3660046132f6565b6112f3565b3480156106ec57600080fd5b5061028b600a81565b34801561070157600080fd5b5061028b600981565b34801561071657600080fd5b5061028b600080516020613a0683398151915281565b34801561073857600080fd5b5061028b600080516020613a2683398151915281565b34801561075a57600080fd5b506102be610769366004612f61565b6001600160a01b03918216600090815260ca6020908152604080832093909416825291909152205460ff1690565b3480156107a357600080fd5b5061028b600481565b3480156107b857600080fd5b506102ee6107c7366004613038565b6112fd565b3480156107d857600080fd5b506102ee6107e73660046130c3565b611384565b60006001600160a01b03831661085d5760405162461bcd60e51b815260206004820152602b60248201527f455243313135353a2062616c616e636520717565727920666f7220746865207a60448201526a65726f206164647265737360a81b60648201526084015b60405180910390fd5b50600081815260c9602090815260408083206001600160a01b03861684529091529020545b92915050565b60006108828261145a565b61089b6112bd565b6108b75760405162461bcd60e51b81526004016108549061377d565b6108c08161149a565b50565b33848484848242106108e75760405162461bcd60e51b81526004016108549061374e565b6001600160a01b03851660009081526101916020908152604080832054905161091b92899289928992309291469101613455565b604051602081830303815290604052805190602001209050600061093e826114b1565b9050610992600080516020613a468339815191526106038387878080601f01602080910402602001604051908101604052809392919081815260200183838082843760009201919091525061150492505050565b6109ae5760405162461bcd60e51b815260040161085490613726565b336000818152610191602052604081208054600192906109cf9084906137eb565b90915550506602f2e16f29e000341015610a2b5760405162461bcd60e51b815260206004820152601f60248201527f546f6b656e206d696e7420726571756972657320302e303030383320455448006044820152606401610854565b60008c8152610192602052604090205460ff161515600114610a885760405162461bcd60e51b8152602060048201526016602482015275151bdad95b881a59081b9bdd081cdd5c1c1bdc9d195960521b6044820152606401610854565b610a92338d6107ec565b15610adf5760405162461bcd60e51b815260206004820152601d60248201527f42616c616e6365206265666f7265206d696e74206d75737420626520300000006044820152606401610854565b610afb338d600160405180602001604052806000815250611520565b505050505050505050505050565b606060cb8054610b1890613880565b80601f0160208091040260200160405190810160405280929190818152602001828054610b4490613880565b8015610b915780601f10610b6657610100808354040283529160200191610b91565b820191906000526020600020905b815481529060010190602001808311610b7457829003601f168201915b50505050509050919050565b6001600160a01b038516331480610bb95750610bb98533610769565b610c205760405162461bcd60e51b815260206004820152603260248201527f455243313135353a207472616e736665722063616c6c6572206973206e6f74206044820152711bdddb995c881b9bdc88185c1c1c9bdd995960721b6064820152608401610854565b610c2d8585858585611620565b5050505050565b610c3e828261182a565b6000828152609760205260409020610c569082611850565b505050565b610c658282611865565b6000828152609760205260409020610c5690826118df565b610c95600080516020613a26833981519152336111bb565b610cff5760405162461bcd60e51b815260206004820152603560248201527f455243313135355072657365745061757365723a206d75737420686176652070604482015274617573657220726f6c6520746f20756e706175736560581b6064820152608401610854565b610d076118f4565b565b60608151835114610d6e5760405162461bcd60e51b815260206004820152602960248201527f455243313135353a206163636f756e747320616e6420696473206c656e677468604482015268040dad2e6dac2e8c6d60bb1b6064820152608401610854565b600083516001600160401b03811115610d9757634e487b7160e01b600052604160045260246000fd5b604051908082528060200260200182016040528015610dc0578160200160208202803683370190505b50905060005b8451811015610e6257610e27858281518110610df257634e487b7160e01b600052603260045260246000fd5b6020026020010151858381518110610e1a57634e487b7160e01b600052603260045260246000fd5b60200260200101516107ec565b828281518110610e4757634e487b7160e01b600052603260045260246000fd5b6020908102919091010152610e5b816138e7565b9050610dc6565b509392505050565b610e82600080516020613a26833981519152336111bb565b610eea5760405162461bcd60e51b815260206004820152603360248201527f455243313135355072657365745061757365723a206d75737420686176652070604482015272617573657220726f6c6520746f20706175736560681b6064820152608401610854565b610d07611987565b610efa6112bd565b610f165760405162461bcd60e51b81526004016108549061377d565b828114610f655760405162461bcd60e51b815260206004820181905260248201527f6163636f756e747320616e6420696473206c656e677468206d69736d617463686044820152606401610854565b60005b83811015610c2d57828282818110610f9057634e487b7160e01b600052603260045260246000fd5b9050602002016020810190610fa591906132c4565b6101926000878785818110610fca57634e487b7160e01b600052603260045260246000fd5b90506020020135815260200190815260200160002060006101000a81548160ff02191690831515021790555080611000906138e7565b9050610f68565b848484848482421061102b5760405162461bcd60e51b81526004016108549061374e565b6001600160a01b03851660009081526101916020908152604080832054905161105f92899289928992309291469101613455565b6040516020818303038152906040528051906020012090506000611082826114b1565b90506110d6600080516020613a468339815191526106038387878080601f01602080910402602001604051908101604052809392919081815260200183838082843760009201919091525061150492505050565b6110f25760405162461bcd60e51b815260040161085490613726565b6001600160a01b038c1660009081526101916020526040812080548e926001929161111e9084906137eb565b9091555061113090508d8d6001611a02565b600061113c8e8e6107ec565b9050801561118c5760405162461bcd60e51b815260206004820152601c60248201527f42616c616e6365206166746572206275726e206d7573742062652030000000006044820152606401610854565b5050505050505050505050505050565b60008281526097602052604081206111b49083611b6d565b9392505050565b60009182526065602090815260408084206001600160a01b0393909316845291905290205460ff1690565b336001600160a01b03831614156112515760405162461bcd60e51b815260206004820152602960248201527f455243313135353a2073657474696e6720617070726f76616c20737461747573604482015268103337b91039b2b63360b91b6064820152608401610854565b33600081815260ca602090815260408083206001600160a01b03871680855290835292819020805460ff191686151590811790915590519081529192917f17307eab39ab6107e8899845ad3d59bd9653f200f220920489ca2b5937696c31910160405180910390a35050565b60006112d7600080516020613a06833981519152336111bb565b905090565b600081815260976020526040812061088290611b79565b610c658282611b83565b6001600160a01b03851633148061131957506113198533610769565b6113775760405162461bcd60e51b815260206004820152602960248201527f455243313135353a2063616c6c6572206973206e6f74206f776e6572206e6f7260448201526808185c1c1c9bdd995960ba1b6064820152608401610854565b610c2d8585858585611ba9565b600054610100900460ff168061139d575060005460ff16155b6113b95760405162461bcd60e51b81526004016108549061368e565b600054610100900460ff161580156113db576000805461ffff19166101011790555b6001600160a01b0383166114315760405162461bcd60e51b815260206004820152601d60248201527f4f776e657220616464726573732063616e6e6f7420626520656d7074790000006044820152606401610854565b61143b8383611cb8565b61144483611d51565b8015610c56576000805461ff0019169055505050565b60006001600160e01b03198216636cdb3d1360e11b148061148b57506001600160e01b031982166303a24d0760e21b145b80610882575061088282611dc6565b80516114ad9060cb906020840190612d1f565b5050565b6040517f19457468657265756d205369676e6564204d6573736167653a0a3332000000006020820152603c8101829052600090605c01604051602081830303815290604052805190602001209050919050565b60008060006115138585611deb565b91509150610e6281611e5b565b6001600160a01b0384166115805760405162461bcd60e51b815260206004820152602160248201527f455243313135353a206d696e7420746f20746865207a65726f206164647265736044820152607360f81b6064820152608401610854565b336115a08160008761159188612057565b61159a88612057565b876120b0565b600084815260c9602090815260408083206001600160a01b0389168452909152812080548592906115d29084906137eb565b909155505060408051858152602081018590526001600160a01b0380881692600092918516916000805160206139e6833981519152910160405180910390a4610c2d8160008787878761215e565b81518351146116825760405162461bcd60e51b815260206004820152602860248201527f455243313135353a2069647320616e6420616d6f756e7473206c656e677468206044820152670dad2e6dac2e8c6d60c31b6064820152608401610854565b6001600160a01b0384166116a85760405162461bcd60e51b815260040161085490613649565b336116b78187878787876120b0565b60005b84518110156117bc5760008582815181106116e557634e487b7160e01b600052603260045260246000fd5b60200260200101519050600085838151811061171157634e487b7160e01b600052603260045260246000fd5b602090810291909101810151600084815260c9835260408082206001600160a01b038e1683529093529190912054909150818110156117625760405162461bcd60e51b8152600401610854906136dc565b600083815260c9602090815260408083206001600160a01b038e8116855292528083208585039055908b168252812080548492906117a19084906137eb565b92505081905550505050806117b5906138e7565b90506116ba565b50846001600160a01b0316866001600160a01b0316826001600160a01b03167f4a39dc06d4c0dbc64b70af90fd698a233a518aa5d07e595d983b8c0526c8f7fb878760405161180c9291906135c0565b60405180910390a46118228187878787876122c9565b505050505050565b6000828152606560205260409020600101546118468133612393565b610c5683836123f7565b60006111b4836001600160a01b03841661247d565b6001600160a01b03811633146118d55760405162461bcd60e51b815260206004820152602f60248201527f416363657373436f6e74726f6c3a2063616e206f6e6c792072656e6f756e636560448201526e103937b632b9903337b91039b2b63360891b6064820152608401610854565b6114ad82826124cc565b60006111b4836001600160a01b038416612533565b60fb5460ff1661193d5760405162461bcd60e51b815260206004820152601460248201527314185d5cd8589b194e881b9bdd081c185d5cd95960621b6044820152606401610854565b60fb805460ff191690557f5db9ee0a495bf2e6ff9c91a7834c1ba4fdd244a5e8aa4e537bd38aeae4b073aa335b6040516001600160a01b03909116815260200160405180910390a1565b60fb5460ff16156119cd5760405162461bcd60e51b815260206004820152601060248201526f14185d5cd8589b194e881c185d5cd95960821b6044820152606401610854565b60fb805460ff191660011790557f62e78cea01bee320cd4e420270b5ea74000d11b0c9f74754ebdbfc544b05a25861196a3390565b6001600160a01b038316611a645760405162461bcd60e51b815260206004820152602360248201527f455243313135353a206275726e2066726f6d20746865207a65726f206164647260448201526265737360e81b6064820152608401610854565b33611a9381856000611a7587612057565b611a7e87612057565b604051806020016040528060008152506120b0565b600083815260c9602090815260408083206001600160a01b038816845290915290205482811015611b125760405162461bcd60e51b8152602060048201526024808201527f455243313135353a206275726e20616d6f756e7420657863656564732062616c604482015263616e636560e01b6064820152608401610854565b600084815260c9602090815260408083206001600160a01b03898116808652918452828520888703905582518981529384018890529092908616916000805160206139e6833981519152910160405180910390a45050505050565b60006111b48383612650565b6000610882825490565b600082815260656020526040902060010154611b9f8133612393565b610c5683836124cc565b6001600160a01b038416611bcf5760405162461bcd60e51b815260040161085490613649565b33611bdf81878761159188612057565b600084815260c9602090815260408083206001600160a01b038a16845290915290205483811015611c225760405162461bcd60e51b8152600401610854906136dc565b600085815260c9602090815260408083206001600160a01b038b8116855292528083208785039055908816825281208054869290611c619084906137eb565b909155505060408051868152602081018690526001600160a01b03808916928a821692918616916000805160206139e6833981519152910160405180910390a4611caf82888888888861215e565b50505050505050565b600054610100900460ff1680611cd1575060005460ff16155b611ced5760405162461bcd60e51b81526004016108549061368e565b600054610100900460ff16158015611d0f576000805461ffff19166101011790555b611d17612688565b611d1f612688565b611d27612688565b611d2f612688565b611d38826126f3565b611d40612753565b611d48612688565b611444836127c8565b600054610100900460ff1680611d6a575060005460ff16155b611d865760405162461bcd60e51b81526004016108549061368e565b600054610100900460ff16158015611da8576000805461ffff19166101011790555b611db18261288d565b80156114ad576000805461ff00191690555050565b60006001600160e01b03198216635a05180f60e01b1480610882575061088282612922565b600080825160411415611e225760208301516040840151606085015160001a611e1687828585612957565b94509450505050611e54565b825160401415611e4c5760208301516040840151611e41868383612a3a565b935093505050611e54565b506000905060025b9250929050565b6000816004811115611e7d57634e487b7160e01b600052602160045260246000fd5b1415611e865750565b6001816004811115611ea857634e487b7160e01b600052602160045260246000fd5b1415611ef15760405162461bcd60e51b815260206004820152601860248201527745434453413a20696e76616c6964207369676e617475726560401b6044820152606401610854565b6002816004811115611f1357634e487b7160e01b600052602160045260246000fd5b1415611f615760405162461bcd60e51b815260206004820152601f60248201527f45434453413a20696e76616c6964207369676e6174757265206c656e677468006044820152606401610854565b6003816004811115611f8357634e487b7160e01b600052602160045260246000fd5b1415611fdc5760405162461bcd60e51b815260206004820152602260248201527f45434453413a20696e76616c6964207369676e6174757265202773272076616c604482015261756560f01b6064820152608401610854565b6004816004811115611ffe57634e487b7160e01b600052602160045260246000fd5b14156108c05760405162461bcd60e51b815260206004820152602260248201527f45434453413a20696e76616c6964207369676e6174757265202776272076616c604482015261756560f01b6064820152608401610854565b6040805160018082528183019092526060916000919060208083019080368337019050509050828160008151811061209f57634e487b7160e01b600052603260045260246000fd5b602090810291909101015292915050565b6001600160a01b0385161580156120cf57506001600160a01b03841615155b806120f457506001600160a01b038516158015906120f457506001600160a01b038416155b6121505760405162461bcd60e51b815260206004820152602760248201527f4f6e6c79206d696e74206f72206275726e207472616e73666572732061726520604482015266185b1b1bddd95960ca1b6064820152608401610854565b611822868686868686612a69565b6001600160a01b0384163b156118225760405163f23a6e6160e01b81526001600160a01b0385169063f23a6e61906121a29089908990889088908890600401613568565b602060405180830381600087803b1580156121bc57600080fd5b505af19250505080156121ec575060408051601f3d908101601f191682019092526121e991810190613355565b60015b612299576121f861392e565b806308c379a01415612232575061220d613946565b806122185750612234565b8060405162461bcd60e51b815260040161085491906135ee565b505b60405162461bcd60e51b815260206004820152603460248201527f455243313135353a207472616e7366657220746f206e6f6e20455243313135356044820152732932b1b2b4bb32b91034b6b83632b6b2b73a32b960611b6064820152608401610854565b6001600160e01b0319811663f23a6e6160e01b14611caf5760405162461bcd60e51b815260040161085490613601565b6001600160a01b0384163b156118225760405163bc197c8160e01b81526001600160a01b0385169063bc197c819061230d908990899088908890889060040161350a565b602060405180830381600087803b15801561232757600080fd5b505af1925050508015612357575060408051601f3d908101601f1916820190925261235491810190613355565b60015b612363576121f861392e565b6001600160e01b0319811663bc197c8160e01b14611caf5760405162461bcd60e51b815260040161085490613601565b61239d82826111bb565b6114ad576123b5816001600160a01b03166014612a77565b6123c0836020612a77565b6040516020016123d192919061349b565b60408051601f198184030181529082905262461bcd60e51b8252610854916004016135ee565b61240182826111bb565b6114ad5760008281526065602090815260408083206001600160a01b03851684529091529020805460ff191660011790556124393390565b6001600160a01b0316816001600160a01b0316837f2f8788117e7eff1d82e926ec794901d17c78024a50270940304540a733656f0d60405160405180910390a45050565b60008181526001830160205260408120546124c457508154600181810184556000848152602080822090930184905584548482528286019093526040902091909155610882565b506000610882565b6124d682826111bb565b156114ad5760008281526065602090815260408083206001600160a01b0385168085529252808320805460ff1916905551339285917ff6391f5c32d9c69d2a47ea670b442974b53935d1edc7fd64eb21e047a839171b9190a45050565b60008181526001830160205260408120548015612646576000612557600183613822565b855490915060009061256b90600190613822565b90508181146125ec57600086600001828154811061259957634e487b7160e01b600052603260045260246000fd5b90600052602060002001549050808760000184815481106125ca57634e487b7160e01b600052603260045260246000fd5b6000918252602080832090910192909255918252600188019052604090208390555b855486908061260b57634e487b7160e01b600052603160045260246000fd5b600190038181906000526020600020016000905590558560010160008681526020019081526020016000206000905560019350505050610882565b6000915050610882565b600082600001828154811061267557634e487b7160e01b600052603260045260246000fd5b9060005260206000200154905092915050565b600054610100900460ff16806126a1575060005460ff16155b6126bd5760405162461bcd60e51b81526004016108549061368e565b600054610100900460ff161580156126df576000805461ffff19166101011790555b80156108c0576000805461ff001916905550565b600054610100900460ff168061270c575060005460ff16155b6127285760405162461bcd60e51b81526004016108549061368e565b600054610100900460ff1615801561274a576000805461ffff19166101011790555b611db18261149a565b600054610100900460ff168061276c575060005460ff16155b6127885760405162461bcd60e51b81526004016108549061368e565b600054610100900460ff161580156127aa576000805461ffff19166101011790555b60fb805460ff1916905580156108c0576000805461ff001916905550565b600054610100900460ff16806127e1575060005460ff16155b6127fd5760405162461bcd60e51b81526004016108549061368e565b600054610100900460ff1615801561281f576000805461ffff19166101011790555b612837600080516020613a0683398151915283612c58565b61284f600080516020613a2683398151915283612c58565b612875600080516020613a26833981519152600080516020613a06833981519152612c62565b611db1600080516020613a0683398151915280612c62565b600054610100900460ff16806128a6575060005460ff16155b6128c25760405162461bcd60e51b81526004016108549061368e565b600054610100900460ff161580156128e4576000805461ffff19166101011790555b6128fc600080516020613a4683398151915283612c58565b611db1600080516020613a46833981519152600080516020613a06833981519152612c62565b60006001600160e01b03198216637965db0b60e01b148061088257506301ffc9a760e01b6001600160e01b0319831614610882565b6000806fa2a8918ca85bafe22016d0b997e4df60600160ff1b038311156129845750600090506003612a31565b8460ff16601b1415801561299c57508460ff16601c14155b156129ad5750600090506004612a31565b6040805160008082526020820180845289905260ff881692820192909252606081018690526080810185905260019060a0016020604051602081039080840390855afa158015612a01573d6000803e3d6000fd5b5050604051601f1901519150506001600160a01b038116612a2a57600060019250925050612a31565b9150600090505b94509492505050565b6000806001600160ff1b03831660ff84901c601b01612a5b87828885612957565b935093505050935093915050565b611822868686868686612cad565b60606000612a86836002613803565b612a919060026137eb565b6001600160401b03811115612ab657634e487b7160e01b600052604160045260246000fd5b6040519080825280601f01601f191660200182016040528015612ae0576020820181803683370190505b509050600360fc1b81600081518110612b0957634e487b7160e01b600052603260045260246000fd5b60200101906001600160f81b031916908160001a905350600f60fb1b81600181518110612b4657634e487b7160e01b600052603260045260246000fd5b60200101906001600160f81b031916908160001a9053506000612b6a846002613803565b612b759060016137eb565b90505b6001811115612c09576f181899199a1a9b1b9c1cb0b131b232b360811b85600f1660108110612bb757634e487b7160e01b600052603260045260246000fd5b1a60f81b828281518110612bdb57634e487b7160e01b600052603260045260246000fd5b60200101906001600160f81b031916908160001a90535060049490941c93612c0281613869565b9050612b78565b5083156111b45760405162461bcd60e51b815260206004820181905260248201527f537472696e67733a20686578206c656e67746820696e73756666696369656e746044820152606401610854565b610c3e8282612d15565b600082815260656020526040808220600101805490849055905190918391839186917fbd79b86ffe0ab8e8776151514217cd7cacd52c909f66475c3af44e129f0b00ff9190a4505050565b60fb5460ff16156118225760405162461bcd60e51b815260206004820152602c60248201527f455243313135355061757361626c653a20746f6b656e207472616e736665722060448201526b1dda1a5b19481c185d5cd95960a21b6064820152608401610854565b6114ad82826123f7565b828054612d2b90613880565b90600052602060002090601f016020900481019282612d4d5760008555612d93565b82601f10612d6657805160ff1916838001178555612d93565b82800160010185558215612d93579182015b82811115612d93578251825591602001919060010190612d78565b50612d9f929150612da3565b5090565b5b80821115612d9f5760008155600101612da4565b80356001600160a01b0381168114612dcf57600080fd5b919050565b60008083601f840112612de5578182fd5b5081356001600160401b03811115612dfb578182fd5b6020830191508360208260051b8501011115611e5457600080fd5b600082601f830112612e26578081fd5b81356020612e33826137c8565b604051612e4082826138bb565b8381528281019150858301600585901b87018401881015612e5f578586fd5b855b85811015612e7d57813584529284019290840190600101612e61565b5090979650505050505050565b80358015158114612dcf57600080fd5b60008083601f840112612eab578182fd5b5081356001600160401b03811115612ec1578182fd5b602083019150836020828501011115611e5457600080fd5b600082601f830112612ee9578081fd5b81356001600160401b03811115612f0257612f02613918565b604051612f19601f8301601f1916602001826138bb565b818152846020838601011115612f2d578283fd5b816020850160208301379081016020019190915292915050565b600060208284031215612f58578081fd5b6111b482612db8565b60008060408385031215612f73578081fd5b612f7c83612db8565b9150612f8a60208401612db8565b90509250929050565b600080600080600060a08688031215612faa578081fd5b612fb386612db8565b9450612fc160208701612db8565b935060408601356001600160401b0380821115612fdc578283fd5b612fe889838a01612e16565b94506060880135915080821115612ffd578283fd5b61300989838a01612e16565b9350608088013591508082111561301e578283fd5b5061302b88828901612ed9565b9150509295509295909350565b600080600080600060a0868803121561304f578081fd5b61305886612db8565b945061306660208701612db8565b9350604086013592506060860135915060808601356001600160401b0381111561308e578182fd5b61302b88828901612ed9565b600080604083850312156130ac578182fd5b6130b583612db8565b9150612f8a60208401612e8a565b600080604083850312156130d5578182fd5b6130de83612db8565b915060208301356001600160401b038111156130f8578182fd5b61310485828601612ed9565b9150509250929050565b60008060408385031215613120578182fd5b61312983612db8565b946020939093013593505050565b60008060008060006080868803121561314e578283fd5b61315786612db8565b9450602086013593506040860135925060608601356001600160401b0381111561317f578182fd5b61318b88828901612e9a565b969995985093965092949392505050565b600080604083850312156131ae578182fd5b82356001600160401b03808211156131c4578384fd5b818501915085601f8301126131d7578384fd5b813560206131e4826137c8565b6040516131f182826138bb565b8381528281019150858301600585901b870184018b1015613210578889fd5b8896505b848710156132395761322581612db8565b835260019690960195918301918301613214565b509650508601359250508082111561324f578283fd5b5061310485828601612e16565b60008060008060408587031215613271578182fd5b84356001600160401b0380821115613287578384fd5b61329388838901612dd4565b909650945060208701359150808211156132ab578384fd5b506132b887828801612dd4565b95989497509550505050565b6000602082840312156132d5578081fd5b6111b482612e8a565b6000602082840312156132ef578081fd5b5035919050565b60008060408385031215613308578182fd5b82359150612f8a60208401612db8565b6000806040838503121561332a578182fd5b50508035926020909101359150565b60006020828403121561334a578081fd5b81356111b4816139cf565b600060208284031215613366578081fd5b81516111b4816139cf565b600060208284031215613382578081fd5b81356001600160401b03811115613397578182fd5b6133a384828501612ed9565b949350505050565b600080600080606085870312156133c0578182fd5b843593506020850135925060408501356001600160401b038111156133e3578283fd5b6132b887828801612e9a565b6000815180845260208085019450808401835b8381101561341e57815187529582019590820190600101613402565b509495945050505050565b60008151808452613441816020860160208601613839565b601f01601f19169290920160200192915050565b6bffffffffffffffffffffffff19606097881b81168252601482019690965260348101949094529190941b90921660548201526068810192909252608882015260a80190565b76020b1b1b2b9b9a1b7b73a3937b61d1030b1b1b7bab73a1604d1b8152600083516134cd816017850160208801613839565b7001034b99036b4b9b9b4b733903937b6329607d1b60179184019182015283516134fe816028840160208801613839565b01602801949350505050565b6001600160a01b0386811682528516602082015260a060408201819052600090613536908301866133ef565b828103606084015261354881866133ef565b9050828103608084015261355c8185613429565b98975050505050505050565b6001600160a01b03868116825285166020820152604081018490526060810183905260a0608082018190526000906135a290830184613429565b979650505050505050565b6020815260006111b460208301846133ef565b6040815260006135d360408301856133ef565b82810360208401526135e581856133ef565b95945050505050565b6020815260006111b46020830184613429565b60208082526028908201527f455243313135353a204552433131353552656365697665722072656a656374656040820152676420746f6b656e7360c01b606082015260800190565b60208082526025908201527f455243313135353a207472616e7366657220746f20746865207a65726f206164604082015264647265737360d81b606082015260800190565b6020808252602e908201527f496e697469616c697a61626c653a20636f6e747261637420697320616c72656160408201526d191e481a5b9a5d1a585b1a5e995960921b606082015260800190565b6020808252602a908201527f455243313135353a20696e73756666696369656e742062616c616e636520666f60408201526939103a3930b739b332b960b11b606082015260800190565b6020808252600e908201526d24b73b30b634b21039b4b3b732b960911b604082015260600190565b60208082526015908201527414da59db985d1d5c99481a185cc8195e1c1a5c9959605a1b604082015260600190565b6020808252602b908201527f4d75737420686176652061646d696e20726f6c6520746f20706572666f726d2060408201526a3a3434b99030b1ba34b7b760a91b606082015260800190565b60006001600160401b038211156137e1576137e1613918565b5060051b60200190565b600082198211156137fe576137fe613902565b500190565b600081600019048311821515161561381d5761381d613902565b500290565b60008282101561383457613834613902565b500390565b60005b8381101561385457818101518382015260200161383c565b83811115613863576000848401525b50505050565b60008161387857613878613902565b506000190190565b600181811c9082168061389457607f821691505b602082108114156138b557634e487b7160e01b600052602260045260246000fd5b50919050565b601f8201601f191681016001600160401b03811182821017156138e0576138e0613918565b6040525050565b60006000198214156138fb576138fb613902565b5060010190565b634e487b7160e01b600052601160045260246000fd5b634e487b7160e01b600052604160045260246000fd5b600060033d111561394357600481823e5160e01c5b90565b600060443d10156139545790565b6040516003193d81016004833e81513d6001600160401b03816024840111818411171561398357505050505090565b828501915081518181111561399b5750505050505090565b843d87010160208285010111156139b55750505050505090565b6139c4602082860101876138bb565b509095945050505050565b6001600160e01b0319811681146108c057600080fdfec3d58168c5ae7397731d063d5bbf3d657854427343f4c083240f7aacaa2d0f62b19546dff01e856fb3f010c267a7b1c60363cf8a4664e21cc89c26224620214e65d7a28e3265b37a6474929f336521b332c1681b933f6cb9f3376673440d862ae2f4eaae4a9751e85a3e4a7b9587827a877f29914755229b07a7b2da98285f70a2646970667358221220f2a6230de436857a708a69267f0e4514dd2e38015327166778ad7f36ad1a44e764736f6c63430008040033",
  "devdoc": {
    "author": "Goldfinch",
    "kind": "dev",
    "methods": {
      "balanceOf(address,uint256)": {
        "details": "See {IERC1155-balanceOf}. Requirements: - `account` cannot be the zero address."
      },
      "balanceOfBatch(address[],uint256[])": {
        "details": "See {IERC1155-balanceOfBatch}. Requirements: - `accounts` and `ids` must have the same length."
      },
      "getRoleAdmin(bytes32)": {
        "details": "Returns the admin role that controls `role`. See {grantRole} and {revokeRole}. To change a role's admin, use {_setRoleAdmin}."
      },
      "getRoleMember(bytes32,uint256)": {
        "details": "Returns one of the accounts that have `role`. `index` must be a value between 0 and {getRoleMemberCount}, non-inclusive. Role bearers are not sorted in any particular way, and their ordering may change at any point. WARNING: When using {getRoleMember} and {getRoleMemberCount}, make sure you perform all queries on the same block. See the following https://forum.openzeppelin.com/t/iterating-over-elements-on-enumerableset-in-openzeppelin-contracts/2296[forum post] for more information."
      },
      "getRoleMemberCount(bytes32)": {
        "details": "Returns the number of accounts that have `role`. Can be used together with {getRoleMember} to enumerate all bearers of a role."
      },
      "grantRole(bytes32,address)": {
        "details": "Overload {grantRole} to track enumerable memberships"
      },
      "hasRole(bytes32,address)": {
        "details": "Returns `true` if `account` has been granted `role`."
      },
      "isApprovedForAll(address,address)": {
        "details": "See {IERC1155-isApprovedForAll}."
      },
      "name()": {
        "details": "Gets the token name.",
        "returns": {
          "_0": "string representing the token name"
        }
      },
      "pause()": {
        "details": "Pauses all token transfers. See {ERC1155Pausable} and {Pausable-_pause}. Requirements: - the caller must have the `PAUSER_ROLE`."
      },
      "paused()": {
        "details": "Returns true if the contract is paused, and false otherwise."
      },
      "renounceRole(bytes32,address)": {
        "details": "Overload {renounceRole} to track enumerable memberships"
      },
      "revokeRole(bytes32,address)": {
        "details": "Overload {revokeRole} to track enumerable memberships"
      },
      "safeBatchTransferFrom(address,address,uint256[],uint256[],bytes)": {
        "details": "See {IERC1155-safeBatchTransferFrom}."
      },
      "safeTransferFrom(address,address,uint256,uint256,bytes)": {
        "details": "See {IERC1155-safeTransferFrom}."
      },
      "setApprovalForAll(address,bool)": {
        "details": "See {IERC1155-setApprovalForAll}."
      },
      "supportsInterface(bytes4)": {
        "details": "See {IERC165-supportsInterface}."
      },
      "symbol()": {
        "details": "Gets the token symbol.",
        "returns": {
          "_0": "string representing the token symbol"
        }
      },
      "unpause()": {
        "details": "Unpauses all token transfers. See {ERC1155Pausable} and {Pausable-_unpause}. Requirements: - the caller must have the `PAUSER_ROLE`."
      },
      "uri(uint256)": {
        "details": "See {IERC1155MetadataURI-uri}. This implementation returns the same URI for *all* token types. It relies on the token type ID substitution mechanism https://eips.ethereum.org/EIPS/eip-1155#metadata[defined in the EIP]. Clients calling this function must replace the `\\{id\\}` substring with the actual token type ID."
      }
    },
    "stateVariables": {
      "nonces": {
        "details": "We include a nonce in every hashed message, and increment the nonce as part of a state-changing operation, so as to prevent replay attacks, i.e. the reuse of a signature."
      }
    },
    "title": "UniqueIdentity",
    "version": 1
  },
  "userdoc": {
    "kind": "user",
    "methods": {},
    "notice": "UniqueIdentity is an ERC1155-compliant contract for representing the identity verification status of addresses.",
    "version": 1
  },
  "storageLayout": {
    "storage": [
      {
        "astId": 648,
        "contract": "contracts/protocol/core/UniqueIdentity.sol:UniqueIdentity",
        "label": "_initialized",
        "offset": 0,
        "slot": "0",
        "type": "t_bool"
      },
      {
        "astId": 651,
        "contract": "contracts/protocol/core/UniqueIdentity.sol:UniqueIdentity",
        "label": "_initializing",
        "offset": 1,
        "slot": "0",
        "type": "t_bool"
      },
      {
        "astId": 2454,
        "contract": "contracts/protocol/core/UniqueIdentity.sol:UniqueIdentity",
        "label": "__gap",
        "offset": 0,
        "slot": "1",
        "type": "t_array(t_uint256)50_storage"
      },
      {
        "astId": 3070,
        "contract": "contracts/protocol/core/UniqueIdentity.sol:UniqueIdentity",
        "label": "__gap",
        "offset": 0,
        "slot": "51",
        "type": "t_array(t_uint256)50_storage"
      },
      {
        "astId": 258,
        "contract": "contracts/protocol/core/UniqueIdentity.sol:UniqueIdentity",
        "label": "_roles",
        "offset": 0,
        "slot": "101",
        "type": "t_mapping(t_bytes32,t_struct(RoleData)253_storage)"
      },
      {
        "astId": 543,
        "contract": "contracts/protocol/core/UniqueIdentity.sol:UniqueIdentity",
        "label": "__gap",
        "offset": 0,
        "slot": "102",
        "type": "t_array(t_uint256)49_storage"
      },
      {
        "astId": 45,
        "contract": "contracts/protocol/core/UniqueIdentity.sol:UniqueIdentity",
        "label": "_roleMembers",
        "offset": 0,
        "slot": "151",
        "type": "t_mapping(t_bytes32,t_struct(AddressSet)3395_storage)"
      },
      {
        "astId": 208,
        "contract": "contracts/protocol/core/UniqueIdentity.sol:UniqueIdentity",
        "label": "__gap",
        "offset": 0,
        "slot": "152",
        "type": "t_array(t_uint256)49_storage"
      },
      {
        "astId": 830,
        "contract": "contracts/protocol/core/UniqueIdentity.sol:UniqueIdentity",
        "label": "_balances",
        "offset": 0,
        "slot": "201",
        "type": "t_mapping(t_uint256,t_mapping(t_address,t_uint256))"
      },
      {
        "astId": 836,
        "contract": "contracts/protocol/core/UniqueIdentity.sol:UniqueIdentity",
        "label": "_operatorApprovals",
        "offset": 0,
        "slot": "202",
        "type": "t_mapping(t_address,t_mapping(t_address,t_bool))"
      },
      {
        "astId": 838,
        "contract": "contracts/protocol/core/UniqueIdentity.sol:UniqueIdentity",
        "label": "_uri",
        "offset": 0,
        "slot": "203",
        "type": "t_string_storage"
      },
      {
        "astId": 1908,
        "contract": "contracts/protocol/core/UniqueIdentity.sol:UniqueIdentity",
        "label": "__gap",
        "offset": 0,
        "slot": "204",
        "type": "t_array(t_uint256)47_storage"
      },
      {
        "astId": 709,
        "contract": "contracts/protocol/core/UniqueIdentity.sol:UniqueIdentity",
        "label": "_paused",
        "offset": 0,
        "slot": "251",
        "type": "t_bool"
      },
      {
        "astId": 800,
        "contract": "contracts/protocol/core/UniqueIdentity.sol:UniqueIdentity",
        "label": "__gap",
        "offset": 0,
        "slot": "252",
        "type": "t_array(t_uint256)49_storage"
      },
      {
        "astId": 2150,
        "contract": "contracts/protocol/core/UniqueIdentity.sol:UniqueIdentity",
        "label": "__gap",
        "offset": 0,
        "slot": "301",
        "type": "t_array(t_uint256)50_storage"
      },
      {
        "astId": 3871,
        "contract": "contracts/protocol/core/UniqueIdentity.sol:UniqueIdentity",
        "label": "__gap",
        "offset": 0,
        "slot": "351",
        "type": "t_array(t_uint256)50_storage"
      },
      {
        "astId": 3976,
        "contract": "contracts/protocol/core/UniqueIdentity.sol:UniqueIdentity",
        "label": "nonces",
        "offset": 0,
        "slot": "401",
        "type": "t_mapping(t_address,t_uint256)"
      },
      {
        "astId": 3980,
        "contract": "contracts/protocol/core/UniqueIdentity.sol:UniqueIdentity",
        "label": "supportedUIDTypes",
        "offset": 0,
        "slot": "402",
        "type": "t_mapping(t_uint256,t_bool)"
      }
    ],
    "types": {
      "t_address": {
        "encoding": "inplace",
        "label": "address",
        "numberOfBytes": "20"
      },
      "t_array(t_bytes32)dyn_storage": {
        "base": "t_bytes32",
        "encoding": "dynamic_array",
        "label": "bytes32[]",
        "numberOfBytes": "32"
      },
      "t_array(t_uint256)47_storage": {
        "base": "t_uint256",
        "encoding": "inplace",
        "label": "uint256[47]",
        "numberOfBytes": "1504"
      },
      "t_array(t_uint256)49_storage": {
        "base": "t_uint256",
        "encoding": "inplace",
        "label": "uint256[49]",
        "numberOfBytes": "1568"
      },
      "t_array(t_uint256)50_storage": {
        "base": "t_uint256",
        "encoding": "inplace",
        "label": "uint256[50]",
        "numberOfBytes": "1600"
      },
      "t_bool": {
        "encoding": "inplace",
        "label": "bool",
        "numberOfBytes": "1"
      },
      "t_bytes32": {
        "encoding": "inplace",
        "label": "bytes32",
        "numberOfBytes": "32"
      },
      "t_mapping(t_address,t_bool)": {
        "encoding": "mapping",
        "key": "t_address",
        "label": "mapping(address => bool)",
        "numberOfBytes": "32",
        "value": "t_bool"
      },
      "t_mapping(t_address,t_mapping(t_address,t_bool))": {
        "encoding": "mapping",
        "key": "t_address",
        "label": "mapping(address => mapping(address => bool))",
        "numberOfBytes": "32",
        "value": "t_mapping(t_address,t_bool)"
      },
      "t_mapping(t_address,t_uint256)": {
        "encoding": "mapping",
        "key": "t_address",
        "label": "mapping(address => uint256)",
        "numberOfBytes": "32",
        "value": "t_uint256"
      },
      "t_mapping(t_bytes32,t_struct(AddressSet)3395_storage)": {
        "encoding": "mapping",
        "key": "t_bytes32",
        "label": "mapping(bytes32 => struct EnumerableSetUpgradeable.AddressSet)",
        "numberOfBytes": "32",
        "value": "t_struct(AddressSet)3395_storage"
      },
      "t_mapping(t_bytes32,t_struct(RoleData)253_storage)": {
        "encoding": "mapping",
        "key": "t_bytes32",
        "label": "mapping(bytes32 => struct AccessControlUpgradeable.RoleData)",
        "numberOfBytes": "32",
        "value": "t_struct(RoleData)253_storage"
      },
      "t_mapping(t_bytes32,t_uint256)": {
        "encoding": "mapping",
        "key": "t_bytes32",
        "label": "mapping(bytes32 => uint256)",
        "numberOfBytes": "32",
        "value": "t_uint256"
      },
      "t_mapping(t_uint256,t_bool)": {
        "encoding": "mapping",
        "key": "t_uint256",
        "label": "mapping(uint256 => bool)",
        "numberOfBytes": "32",
        "value": "t_bool"
      },
      "t_mapping(t_uint256,t_mapping(t_address,t_uint256))": {
        "encoding": "mapping",
        "key": "t_uint256",
        "label": "mapping(uint256 => mapping(address => uint256))",
        "numberOfBytes": "32",
        "value": "t_mapping(t_address,t_uint256)"
      },
      "t_string_storage": {
        "encoding": "bytes",
        "label": "string",
        "numberOfBytes": "32"
      },
      "t_struct(AddressSet)3395_storage": {
        "encoding": "inplace",
        "label": "struct EnumerableSetUpgradeable.AddressSet",
        "members": [
          {
            "astId": 3394,
            "contract": "contracts/protocol/core/UniqueIdentity.sol:UniqueIdentity",
            "label": "_inner",
            "offset": 0,
            "slot": "0",
            "type": "t_struct(Set)3094_storage"
          }
        ],
        "numberOfBytes": "64"
      },
      "t_struct(RoleData)253_storage": {
        "encoding": "inplace",
        "label": "struct AccessControlUpgradeable.RoleData",
        "members": [
          {
            "astId": 250,
            "contract": "contracts/protocol/core/UniqueIdentity.sol:UniqueIdentity",
            "label": "members",
            "offset": 0,
            "slot": "0",
            "type": "t_mapping(t_address,t_bool)"
          },
          {
            "astId": 252,
            "contract": "contracts/protocol/core/UniqueIdentity.sol:UniqueIdentity",
            "label": "adminRole",
            "offset": 0,
            "slot": "1",
            "type": "t_bytes32"
          }
        ],
        "numberOfBytes": "64"
      },
      "t_struct(Set)3094_storage": {
        "encoding": "inplace",
        "label": "struct EnumerableSetUpgradeable.Set",
        "members": [
          {
            "astId": 3089,
            "contract": "contracts/protocol/core/UniqueIdentity.sol:UniqueIdentity",
            "label": "_values",
            "offset": 0,
            "slot": "0",
            "type": "t_array(t_bytes32)dyn_storage"
          },
          {
            "astId": 3093,
            "contract": "contracts/protocol/core/UniqueIdentity.sol:UniqueIdentity",
            "label": "_indexes",
            "offset": 0,
            "slot": "1",
            "type": "t_mapping(t_bytes32,t_uint256)"
          }
        ],
        "numberOfBytes": "64"
      },
      "t_uint256": {
        "encoding": "inplace",
        "label": "uint256",
        "numberOfBytes": "32"
      }
    }
  }
}