{
  "address": "0xDe0Cb9eDeF1f7cEb9A4029c0193F6b55B166fE1d",
  "abi": [
    {
      "anonymous": false,
      "inputs": [
        {
          "indexed": false,
          "internalType": "address",
          "name": "account",
          "type": "address"
        }
      ],
      "name": "Paused",
      "type": "event"
    },
    {
      "anonymous": false,
      "inputs": [
        {
          "indexed": true,
          "internalType": "bytes32",
          "name": "role",
          "type": "bytes32"
        },
        {
          "indexed": true,
          "internalType": "address",
          "name": "account",
          "type": "address"
        },
        {
          "indexed": true,
          "internalType": "address",
          "name": "sender",
          "type": "address"
        }
      ],
      "name": "RoleGranted",
      "type": "event"
    },
    {
      "anonymous": false,
      "inputs": [
        {
          "indexed": true,
          "internalType": "bytes32",
          "name": "role",
          "type": "bytes32"
        },
        {
          "indexed": true,
          "internalType": "address",
          "name": "account",
          "type": "address"
        },
        {
          "indexed": true,
          "internalType": "address",
          "name": "sender",
          "type": "address"
        }
      ],
      "name": "RoleRevoked",
      "type": "event"
    },
    {
      "anonymous": false,
      "inputs": [
        {
          "indexed": false,
          "internalType": "address",
          "name": "account",
          "type": "address"
        }
      ],
      "name": "Unpaused",
      "type": "event"
    },
    {
      "inputs": [],
      "name": "DEFAULT_ADMIN_ROLE",
      "outputs": [
        {
          "internalType": "bytes32",
          "name": "",
          "type": "bytes32"
        }
      ],
      "stateMutability": "view",
      "type": "function"
    },
    {
      "inputs": [],
      "name": "OWNER_ROLE",
      "outputs": [
        {
          "internalType": "bytes32",
          "name": "",
          "type": "bytes32"
        }
      ],
      "stateMutability": "view",
      "type": "function"
    },
    {
      "inputs": [],
      "name": "PAUSER_ROLE",
      "outputs": [
        {
          "internalType": "bytes32",
          "name": "",
          "type": "bytes32"
        }
      ],
      "stateMutability": "view",
      "type": "function"
    },
    {
      "inputs": [
        {
          "internalType": "address",
          "name": "owner",
          "type": "address"
        }
      ],
      "name": "__BaseUpgradeablePausable__init",
      "outputs": [],
      "stateMutability": "nonpayable",
      "type": "function"
    },
    {
      "inputs": [],
      "name": "__PauserPausable__init",
      "outputs": [],
      "stateMutability": "nonpayable",
      "type": "function"
    },
    {
      "inputs": [
        {
          "internalType": "uint256",
          "name": "poolTokenId",
          "type": "uint256"
        }
      ],
      "name": "claimTranchedPoolZap",
      "outputs": [],
      "stateMutability": "nonpayable",
      "type": "function"
    },
    {
      "inputs": [],
      "name": "config",
      "outputs": [
        {
          "internalType": "contract GoldfinchConfig",
          "name": "",
          "type": "address"
        }
      ],
      "stateMutability": "view",
      "type": "function"
    },
    {
      "inputs": [
        {
          "internalType": "bytes32",
          "name": "role",
          "type": "bytes32"
        }
      ],
      "name": "getRoleAdmin",
      "outputs": [
        {
          "internalType": "bytes32",
          "name": "",
          "type": "bytes32"
        }
      ],
      "stateMutability": "view",
      "type": "function"
    },
    {
      "inputs": [
        {
          "internalType": "bytes32",
          "name": "role",
          "type": "bytes32"
        },
        {
          "internalType": "uint256",
          "name": "index",
          "type": "uint256"
        }
      ],
      "name": "getRoleMember",
      "outputs": [
        {
          "internalType": "address",
          "name": "",
          "type": "address"
        }
      ],
      "stateMutability": "view",
      "type": "function"
    },
    {
      "inputs": [
        {
          "internalType": "bytes32",
          "name": "role",
          "type": "bytes32"
        }
      ],
      "name": "getRoleMemberCount",
      "outputs": [
        {
          "internalType": "uint256",
          "name": "",
          "type": "uint256"
        }
      ],
      "stateMutability": "view",
      "type": "function"
    },
    {
      "inputs": [
        {
          "internalType": "bytes32",
          "name": "role",
          "type": "bytes32"
        },
        {
          "internalType": "address",
          "name": "account",
          "type": "address"
        }
      ],
      "name": "grantRole",
      "outputs": [],
      "stateMutability": "nonpayable",
      "type": "function"
    },
    {
      "inputs": [
        {
          "internalType": "bytes32",
          "name": "role",
          "type": "bytes32"
        },
        {
          "internalType": "address",
          "name": "account",
          "type": "address"
        }
      ],
      "name": "hasRole",
      "outputs": [
        {
          "internalType": "bool",
          "name": "",
          "type": "bool"
        }
      ],
      "stateMutability": "view",
      "type": "function"
    },
    {
      "inputs": [
        {
          "internalType": "address",
          "name": "owner",
          "type": "address"
        },
        {
          "internalType": "contract GoldfinchConfig",
          "name": "_config",
          "type": "address"
        }
      ],
      "name": "initialize",
      "outputs": [],
      "stateMutability": "nonpayable",
      "type": "function"
    },
    {
      "inputs": [],
      "name": "isAdmin",
      "outputs": [
        {
          "internalType": "bool",
          "name": "",
          "type": "bool"
        }
      ],
      "stateMutability": "view",
      "type": "function"
    },
    {
      "inputs": [],
      "name": "pause",
      "outputs": [],
      "stateMutability": "nonpayable",
      "type": "function"
    },
    {
      "inputs": [],
      "name": "paused",
      "outputs": [
        {
          "internalType": "bool",
          "name": "",
          "type": "bool"
        }
      ],
      "stateMutability": "view",
      "type": "function"
    },
    {
      "inputs": [
        {
          "internalType": "bytes32",
          "name": "role",
          "type": "bytes32"
        },
        {
          "internalType": "address",
          "name": "account",
          "type": "address"
        }
      ],
      "name": "renounceRole",
      "outputs": [],
      "stateMutability": "nonpayable",
      "type": "function"
    },
    {
      "inputs": [
        {
          "internalType": "bytes32",
          "name": "role",
          "type": "bytes32"
        },
        {
          "internalType": "address",
          "name": "account",
          "type": "address"
        }
      ],
      "name": "revokeRole",
      "outputs": [],
      "stateMutability": "nonpayable",
      "type": "function"
    },
    {
      "inputs": [
        {
          "internalType": "uint256",
          "name": "",
          "type": "uint256"
        }
      ],
      "name": "tranchedPoolZaps",
      "outputs": [
        {
          "internalType": "address",
          "name": "owner",
          "type": "address"
        },
        {
          "internalType": "uint256",
          "name": "stakingPositionId",
          "type": "uint256"
        }
      ],
      "stateMutability": "view",
      "type": "function"
    },
    {
      "inputs": [],
      "name": "unpause",
      "outputs": [],
      "stateMutability": "nonpayable",
      "type": "function"
    },
    {
      "inputs": [
        {
          "internalType": "uint256",
          "name": "poolTokenId",
          "type": "uint256"
        }
      ],
      "name": "unzapToStakingRewards",
      "outputs": [],
      "stateMutability": "nonpayable",
      "type": "function"
    },
    {
      "inputs": [
        {
          "internalType": "uint256",
          "name": "tokenId",
          "type": "uint256"
        },
        {
          "internalType": "uint256",
          "name": "fiduAmount",
          "type": "uint256"
        },
        {
          "internalType": "uint256",
          "name": "usdcAmount",
          "type": "uint256"
        }
      ],
      "name": "zapStakeToCurve",
      "outputs": [],
      "stateMutability": "nonpayable",
      "type": "function"
    },
    {
      "inputs": [
        {
          "internalType": "uint256",
          "name": "tokenId",
          "type": "uint256"
        },
        {
          "internalType": "contract ITranchedPool",
          "name": "tranchedPool",
          "type": "address"
        },
        {
          "internalType": "uint256",
          "name": "tranche",
          "type": "uint256"
        },
        {
          "internalType": "uint256",
          "name": "usdcAmount",
          "type": "uint256"
        }
      ],
      "name": "zapStakeToTranchedPool",
      "outputs": [],
      "stateMutability": "nonpayable",
      "type": "function"
    }
  ],
  "transactionHash": "0x1e955a61b4faa27aa2d21c0181a784872c50d18d823d7194a516f3066858c33a",
  "args": [],
  "solcInputHash": "a67c4f293a964d2cac7bbf8c9f65d46c",
  "bytecode": "0x608060405234801561001057600080fd5b50612c49806100206000396000f3fe608060405234801561001057600080fd5b506004361061014d5760003560e01c80638456cb59116100c3578063b6db75a01161007c578063b6db75a014610293578063ca15c8731461029b578063d547741f146102ae578063d68f8184146102c1578063e58378bb146102d4578063e63ab1e9146102dc5761014d565b80638456cb59146102375780639010d07c1461023f57806391d148541461025257806399bc5229146102655780639d19f9e414610278578063a217fddf1461028b5761014d565b80633f4ba83a116101155780633f4ba83a146101d7578063485cc955146101df57806348a1f0bb146101f2578063526d81f6146102055780635c975abb1461020d57806379502c55146102225761014d565b8063097616a314610152578063248a9ca3146101675780632f2ff15d1461019057806336568abe146101a35780633c539a89146101b6575b600080fd5b610165610160366004612225565b6102e4565b005b61017a6101753660046122bc565b61041d565b6040516101879190612538565b60405180910390f35b61016561019e3660046122d4565b610432565b6101656101b13660046122d4565b610476565b6101c96101c43660046122bc565b6104b8565b604051610187929190612514565b6101656104de565b6101656101ed366004612264565b61051e565b6101656102003660046122bc565b610604565b610165610862565b6102156108ed565b604051610187919061252d565b61022a6108f6565b60405161018791906124a1565b610165610906565b61022a61024d3660046122f8565b610944565b6102156102603660046122d4565b610965565b61016561027336600461243d565b61097d565b6101656102863660046123de565b610dee565b61017a61127b565b610215611280565b61017a6102a93660046122bc565b6112a1565b6101656102bc3660046122d4565b6112b8565b6101656102cf3660046122bc565b6112f2565b61017a611865565b61017a611877565b600054610100900460ff16806102fd57506102fd611889565b8061030b575060005460ff16155b6103305760405162461bcd60e51b8152600401610327906128b2565b60405180910390fd5b600054610100900460ff1615801561035b576000805460ff1961ff0019909116610100171660011790555b6001600160a01b0382166103815760405162461bcd60e51b815260040161032790612800565b61038961188f565b610391611910565b61039961199c565b6103b1600080516020612bd48339815191528361046c565b6103c9600080516020612bf48339815191528361046c565b6103ef600080516020612bf4833981519152600080516020612bd4833981519152611a2b565b610407600080516020612bd483398151915280611a2b565b8015610419576000805461ff00191690555b5050565b60009081526065602052604090206002015490565b60008281526065602052604090206002015461045090610260611a40565b61046c5760405162461bcd60e51b815260040161032790612583565b6104198282611a44565b61047e611a40565b6001600160a01b0316816001600160a01b0316146104ae5760405162461bcd60e51b815260040161032790612b3a565b6104198282611aad565b6101c460205260009081526040902080546001909101546001600160a01b039091169082565b6104f8600080516020612bf4833981519152610260611a40565b6105145760405162461bcd60e51b81526004016103279061266e565b61051c611b16565b565b600054610100900460ff16806105375750610537611889565b80610545575060005460ff16155b6105615760405162461bcd60e51b8152600401610327906128b2565b600054610100900460ff1615801561058c576000805460ff1961ff0019909116610100171660011790555b6001600160a01b038316158015906105ac57506001600160a01b03821615155b6105c85760405162461bcd60e51b815260040161032790612600565b6105d1836102e4565b6101c380546001600160a01b0319166001600160a01b03841617905580156105ff576000805461ff00191690555b505050565b60975460ff16156106275760405162461bcd60e51b8152600401610327906127ab565b60c95460ff166106495760405162461bcd60e51b815260040161032790612a05565b60c9805460ff1916905560008181526101c46020526040902080546001600160a01b0316331461068b5760405162461bcd60e51b815260040161032790612835565b6101c3546000906106a4906001600160a01b0316611b82565b90506106ae6121be565b60405163463d31d760e11b81526001600160a01b03831690638c7a63ae906106da908790600401612538565b60a06040518083038186803b1580156106f257600080fd5b505afa158015610706573d6000803e3d6000fd5b505050506040513d601f19601f8201168201806040525081019061072a9190612319565b90506107346121f6565b8151602083015160405163d972e8ad60e01b81526001600160a01b039092169163d972e8ad9161076691600401612538565b60a06040518083038186803b15801561077e57600080fd5b505afa158015610792573d6000803e3d6000fd5b505050506040513d601f19601f820116820180604052508101906107b69190612375565b905080608001516000141580156107d05750806080015142115b6107ec5760405162461bcd60e51b81526004016103279061264a565b604051632142170760e11b81526001600160a01b038416906342842e0e9061081c90309033908a906004016124f0565b600060405180830381600087803b15801561083657600080fd5b505af115801561084a573d6000803e3d6000fd5b505060c9805460ff1916600117905550505050505050565b600054610100900460ff168061087b575061087b611889565b80610889575060005460ff16155b6108a55760405162461bcd60e51b8152600401610327906128b2565b600054610100900460ff161580156108d0576000805460ff1961ff0019909116610100171660011790555b6108d8611910565b80156108ea576000805461ff00191690555b50565b60975460ff1690565b6101c3546001600160a01b031681565b610920600080516020612bf4833981519152610260611a40565b61093c5760405162461bcd60e51b81526004016103279061266e565b61051c611b8d565b600082815260656020526040812061095c9083611be6565b90505b92915050565b600082815260656020526040812061095c9083611bf2565b60975460ff16156109a05760405162461bcd60e51b8152600401610327906127ab565b60c95460ff166109c25760405162461bcd60e51b815260040161032790612a05565b60c9805460ff191690556101c3546000906109e5906001600160a01b0316611c07565b6040516331a9108f60e11b815290915033906001600160a01b03831690636352211e90610a16908890600401612538565b60206040518083038186803b158015610a2e57600080fd5b505afa158015610a42573d6000803e3d6000fd5b505050506040513d601f19601f82011682018060405250810190610a669190612248565b6001600160a01b031614610a8c5760405162461bcd60e51b81526004016103279061294b565b60405163aa04295f60e01b81526000906001600160a01b0383169063aa04295f90610abb908890600401612538565b60206040518083038186803b158015610ad357600080fd5b505afa158015610ae7573d6000803e3d6000fd5b505050506040513d601f19601f82011682018060405250810190610b0b91906123c6565b905060008411610b2d5760405162461bcd60e51b8152600401610327906127d5565b80841115610b4d5760405162461bcd60e51b815260040161032790612974565b604051639e2c8a5b60e01b81526001600160a01b03831690639e2c8a5b90610b7b9088908890600401612b89565b600060405180830381600087803b158015610b9557600080fd5b505af1158015610ba9573d6000803e3d6000fd5b50506101c354610bce9250610bc791506001600160a01b0316611c12565b8386611c1d565b8215610c17576101c354610bf690610bee906001600160a01b0316611d17565b333086611d22565b6101c354610c1790610c10906001600160a01b0316611d17565b8385611c1d565b6040516369d00e7960e01b81526001600160a01b038316906369d00e7990610c47903390889088906004016124b5565b600060405180830381600087803b158015610c6157600080fd5b505af1158015610c75573d6000803e3d6000fd5b50506101c354610c9092506001600160a01b03169050611c12565b6001600160a01b031663dd62ed3e30846040518363ffffffff1660e01b8152600401610cbd9291906124d6565b60206040518083038186803b158015610cd557600080fd5b505afa158015610ce9573d6000803e3d6000fd5b505050506040513d601f19601f82011682018060405250810190610d0d91906123c6565b15610d2a5760405162461bcd60e51b815260040161032790612a3c565b6101c354610d40906001600160a01b0316611d17565b6001600160a01b031663dd62ed3e30846040518363ffffffff1660e01b8152600401610d6d9291906124d6565b60206040518083038186803b158015610d8557600080fd5b505afa158015610d99573d6000803e3d6000fd5b505050506040513d601f19601f82011682018060405250810190610dbd91906123c6565b15610dda5760405162461bcd60e51b815260040161032790612900565b505060c9805460ff19166001179055505050565b60975460ff1615610e115760405162461bcd60e51b8152600401610327906127ab565b60c95460ff16610e335760405162461bcd60e51b815260040161032790612a05565b60c9805460ff191690556101c354600090610e56906001600160a01b0316611c07565b6101c354909150600090610e72906001600160a01b0316611d49565b9050610e7d85611d54565b610e995760405162461bcd60e51b815260040161032790612add565b6040516331a9108f60e11b815233906001600160a01b03841690636352211e90610ec7908a90600401612538565b60206040518083038186803b158015610edf57600080fd5b505afa158015610ef3573d6000803e3d6000fd5b505050506040513d601f19601f82011682018060405250810190610f179190612248565b6001600160a01b031614610f3d5760405162461bcd60e51b81526004016103279061294b565b610f4685611de8565b610f625760405162461bcd60e51b81526004016103279061285c565b60405163855cb21b60e01b81526000906001600160a01b0383169063855cb21b90610f91908790600401612538565b60206040518083038186803b158015610fa957600080fd5b505afa158015610fbd573d6000803e3d6000fd5b505050506040513d601f19601f82011682018060405250810190610fe191906123c6565b604051639e2c8a5b60e01b81529091506001600160a01b03841690639e2c8a5b90611012908a908590600401612b89565b600060405180830381600087803b15801561102c57600080fd5b505af1158015611040573d6000803e3d6000fd5b5050604051632e1a7d4d60e01b8152600092506001600160a01b0385169150632e1a7d4d90611073908890600401612538565b602060405180830381600087803b15801561108d57600080fd5b505af11580156110a1573d6000803e3d6000fd5b505050506040513d601f19601f820116820180604052508101906110c591906123c6565b90508481146110e65760405162461bcd60e51b8152600401610327906126ba565b6101c35461110790611100906001600160a01b0316611d17565b8887611c1d565b604051631c57762b60e31b81526000906001600160a01b0389169063e2bbb15890611138908a908a90600401612b89565b602060405180830381600087803b15801561115257600080fd5b505af1158015611166573d6000803e3d6000fd5b505050506040513d601f19601f8201168201806040525081019061118a91906123c6565b60408051808201825233815260208082018d815260008581526101c4909252929020905181546001600160a01b0319166001600160a01b0391821617825591516001909101556101c3549192506111e19116611d17565b6001600160a01b031663dd62ed3e308a6040518363ffffffff1660e01b815260040161120e9291906124d6565b60206040518083038186803b15801561122657600080fd5b505afa15801561123a573d6000803e3d6000fd5b505050506040513d601f19601f8201168201806040525081019061125e91906123c6565b1561084a5760405162461bcd60e51b815260040161032790612900565b600081565b600061129c600080516020612bd4833981519152610260611a40565b905090565b600081815260656020526040812061095f90611e17565b6000828152606560205260409020600201546112d690610260611a40565b6104ae5760405162461bcd60e51b81526004016103279061275b565b60975460ff16156113155760405162461bcd60e51b8152600401610327906127ab565b60c95460ff166113375760405162461bcd60e51b815260040161032790612a05565b60c9805460ff1916905560008181526101c46020526040902080546001600160a01b031633146113795760405162461bcd60e51b815260040161032790612835565b6101c354600090611392906001600160a01b0316611b82565b905061139c6121be565b60405163463d31d760e11b81526001600160a01b03831690638c7a63ae906113c8908790600401612538565b60a06040518083038186803b1580156113e057600080fd5b505afa1580156113f4573d6000803e3d6000fd5b505050506040513d601f19601f820116820180604052508101906114189190612319565b80519091506114256121f6565b602083015160405163d972e8ad60e01b81526001600160a01b0384169163d972e8ad916114559190600401612538565b60a06040518083038186803b15801561146d57600080fd5b505afa158015611481573d6000803e3d6000fd5b505050506040513d601f19601f820116820180604052508101906114a59190612375565b905080608001516000146114cb5760405162461bcd60e51b8152600401610327906126fe565b600080836001600160a01b031663aa2a7c4c896040518263ffffffff1660e01b81526004016114fa9190612538565b6040805180830381600087803b15801561151357600080fd5b505af1158015611527573d6000803e3d6000fd5b505050506040513d601f19601f8201168201806040525081019061154b919061241a565b915091508160001461156f5760405162461bcd60e51b81526004016103279061288b565b6000811161158f5760405162461bcd60e51b81526004016103279061288b565b6101c3546000906115a8906001600160a01b0316611d49565b6101c3549091506115cc906115c5906001600160a01b0316611d17565b8284611c1d565b60405163b6b55f2560e01b81526000906001600160a01b0383169063b6b55f25906115fb908690600401612538565b602060405180830381600087803b15801561161557600080fd5b505af1158015611629573d6000803e3d6000fd5b505050506040513d601f19601f8201168201806040525081019061164d91906123c6565b6101c354909150600090611669906001600160a01b0316611c07565b6101c354909150611686906115c5906001600160a01b0316611c12565b60018a015460405163a9f4939d60e01b81526001600160a01b0383169163a9f4939d916116b891908690600401612b89565b600060405180830381600087803b1580156116d257600080fd5b505af11580156116e6573d6000803e3d6000fd5b50506101c35461170192506001600160a01b03169050611d17565b6001600160a01b031663dd62ed3e30856040518363ffffffff1660e01b815260040161172e9291906124d6565b60206040518083038186803b15801561174657600080fd5b505afa15801561175a573d6000803e3d6000fd5b505050506040513d601f19601f8201168201806040525081019061177e91906123c6565b1561179b5760405162461bcd60e51b815260040161032790612900565b6101c3546117b1906001600160a01b0316611c12565b6001600160a01b031663dd62ed3e30836040518363ffffffff1660e01b81526004016117de9291906124d6565b60206040518083038186803b1580156117f657600080fd5b505afa15801561180a573d6000803e3d6000fd5b505050506040513d601f19601f8201168201806040525081019061182e91906123c6565b1561184b5760405162461bcd60e51b815260040161032790612a3c565b505060c9805460ff19166001179055505050505050505050565b600080516020612bd483398151915281565b600080516020612bf483398151915281565b303b1590565b600054610100900460ff16806118a857506118a8611889565b806118b6575060005460ff16155b6118d25760405162461bcd60e51b8152600401610327906128b2565b600054610100900460ff161580156108d8576000805460ff1961ff00199091166101001716600117905580156108ea576000805461ff001916905550565b600054610100900460ff16806119295750611929611889565b80611937575060005460ff16155b6119535760405162461bcd60e51b8152600401610327906128b2565b600054610100900460ff1615801561197e576000805460ff1961ff0019909116610100171660011790555b6097805460ff1916905580156108ea576000805461ff001916905550565b600054610100900460ff16806119b557506119b5611889565b806119c3575060005460ff16155b6119df5760405162461bcd60e51b8152600401610327906128b2565b600054610100900460ff16158015611a0a576000805460ff1961ff0019909116610100171660011790555b60c9805460ff1916600117905580156108ea576000805461ff001916905550565b60009182526065602052604090912060020155565b3390565b6000828152606560205260409020611a5c9082611e22565b1561041957611a69611a40565b6001600160a01b0316816001600160a01b0316837f2f8788117e7eff1d82e926ec794901d17c78024a50270940304540a733656f0d60405160405180910390a45050565b6000828152606560205260409020611ac59082611e37565b1561041957611ad2611a40565b6001600160a01b0316816001600160a01b0316837ff6391f5c32d9c69d2a47ea670b442974b53935d1edc7fd64eb21e047a839171b60405160405180910390a45050565b60975460ff16611b385760405162461bcd60e51b8152600401610327906125d2565b6097805460ff191690557f5db9ee0a495bf2e6ff9c91a7834c1ba4fdd244a5e8aa4e537bd38aeae4b073aa611b6b611a40565b604051611b7891906124a1565b60405180910390a1565b600061095f82611e4c565b60975460ff1615611bb05760405162461bcd60e51b8152600401610327906127ab565b6097805460ff191660011790557f62e78cea01bee320cd4e420270b5ea74000d11b0c9f74754ebdbfc544b05a258611b6b611a40565b600061095c8383611ecc565b600061095c836001600160a01b038416611f11565b600061095f82611f29565b600061095f82611f41565b801580611ca55750604051636eb1769f60e11b81526001600160a01b0384169063dd62ed3e90611c5390309086906004016124d6565b60206040518083038186803b158015611c6b57600080fd5b505afa158015611c7f573d6000803e3d6000fd5b505050506040513d601f19601f82011682018060405250810190611ca391906123c6565b155b611cc15760405162461bcd60e51b815260040161032790612a87565b6105ff8363095ea7b360e01b8484604051602401611ce0929190612514565b60408051601f198184030181529190526020810180516001600160e01b03166001600160e01b031990931692909217909152611f59565b600061095f8261203e565b611d43846323b872dd60e01b858585604051602401611ce0939291906124f0565b50505050565b600061095f82612056565b6101c354600090611d6d906001600160a01b0316611b82565b6001600160a01b031663b5ada6d8836040518263ffffffff1660e01b8152600401611d9891906124a1565b60206040518083038186803b158015611db057600080fd5b505afa158015611dc4573d6000803e3d6000fd5b505050506040513d601f19601f8201168201806040525081019061095f919061229c565b604051637ca7ad0960e11b81526000906001600160a01b0383169063f94f5a1290611d989033906004016124a1565b600061095f8261206e565b600061095c836001600160a01b038416612072565b600061095c836001600160a01b0384166120bc565b60006001600160a01b03821663b93f9b0a600c5b6040518263ffffffff1660e01b8152600401611e7c9190612538565b60206040518083038186803b158015611e9457600080fd5b505afa158015611ea8573d6000803e3d6000fd5b505050506040513d601f19601f8201168201806040525081019061095f9190612248565b81546000908210611eef5760405162461bcd60e51b815260040161032790612541565b826000018281548110611efe57fe5b9060005260206000200154905092915050565b60009081526001919091016020526040902054151590565b60006001600160a01b03821663b93f9b0a6015611e60565b60006001600160a01b03821663b93f9b0a6004611e60565b611f6b826001600160a01b0316612182565b611f875760405162461bcd60e51b815260040161032790612b03565b60006060836001600160a01b031683604051611fa39190612468565b6000604051808303816000865af19150503d8060008114611fe0576040519150601f19603f3d011682016040523d82523d6000602084013e611fe5565b606091505b5091509150816120075760405162461bcd60e51b815260040161032790612726565b805115611d435780806020019051810190612022919061229c565b611d435760405162461bcd60e51b8152600401610327906129bb565b60006001600160a01b03821663b93f9b0a6005611e60565b60006001600160a01b03821663b93f9b0a600e611e60565b5490565b600061207e8383611f11565b6120b45750815460018181018455600084815260208082209093018490558454848252828601909352604090209190915561095f565b50600061095f565b6000818152600183016020526040812054801561217857835460001980830191908101906000908790839081106120ef57fe5b906000526020600020015490508087600001848154811061210c57fe5b60009182526020808320909101929092558281526001898101909252604090209084019055865487908061213c57fe5b6001900381819060005260206000200160009055905586600101600087815260200190815260200160002060009055600194505050505061095f565b600091505061095f565b6000813f7fc5d2460186f7233c927e7db2dcc703c0e500b653ca82273b7bfad8045d85a4708181148015906121b657508115155b949350505050565b6040518060a0016040528060006001600160a01b03168152602001600081526020016000815260200160008152602001600081525090565b6040518060a0016040528060008152602001600081526020016000815260200160008152602001600081525090565b600060208284031215612236578081fd5b813561224181612bbe565b9392505050565b600060208284031215612259578081fd5b815161224181612bbe565b60008060408385031215612276578081fd5b823561228181612bbe565b9150602083013561229181612bbe565b809150509250929050565b6000602082840312156122ad578081fd5b81518015158114612241578182fd5b6000602082840312156122cd578081fd5b5035919050565b600080604083850312156122e6578182fd5b82359150602083013561229181612bbe565b6000806040838503121561230a578182fd5b50508035926020909101359150565b600060a0828403121561232a578081fd5b61233460a0612b97565b825161233f81612bbe565b80825250602083015160208201526040830151604082015260608301516060820152608083015160808201528091505092915050565b600060a08284031215612386578081fd5b61239060a0612b97565b82518152602083015160208201526040830151604082015260608301516060820152608083015160808201528091505092915050565b6000602082840312156123d7578081fd5b5051919050565b600080600080608085870312156123f3578182fd5b84359350602085013561240581612bbe565b93969395505050506040820135916060013590565b6000806040838503121561242c578182fd5b505080516020909101519092909150565b600080600060608486031215612451578081fd5b505081359360208301359350604090920135919050565b60008251815b81811015612488576020818601810151858301520161246e565b818111156124965782828501525b509190910192915050565b6001600160a01b0391909116815260200190565b6001600160a01b039390931683526020830191909152604082015260600190565b6001600160a01b0392831681529116602082015260400190565b6001600160a01b039384168152919092166020820152604081019190915260600190565b6001600160a01b03929092168252602082015260400190565b901515815260200190565b90815260200190565b60208082526022908201527f456e756d657261626c655365743a20696e646578206f7574206f6620626f756e604082015261647360f01b606082015260800190565b6020808252602f908201527f416363657373436f6e74726f6c3a2073656e646572206d75737420626520616e60408201526e0818591b5a5b881d1bc819dc985b9d608a1b606082015260800190565b60208082526014908201527314185d5cd8589b194e881b9bdd081c185d5cd95960621b604082015260600190565b6020808252602a908201527f4f776e657220616e6420636f6e666967206164647265737365732063616e6e6f6040820152697420626520656d70747960b01b606082015260800190565b6020808252600a908201526916985c081b1bd8dad95960b21b604082015260600190565b6020808252602c908201527f4d75737420686176652070617573657220726f6c6520746f20706572666f726d60408201526b103a3434b99030b1ba34b7b760a11b606082015260800190565b60208082526024908201527f57697468647261776e20616d6f756e7420213d2072657175657374656420616d6040820152631bdd5b9d60e21b606082015260800190565b6020808252600e908201526d151c985b98da19481b1bd8dad95960921b604082015260600190565b6020808252818101527f5361666545524332303a206c6f772d6c6576656c2063616c6c206661696c6564604082015260600190565b60208082526030908201527f416363657373436f6e74726f6c3a2073656e646572206d75737420626520616e60408201526f2061646d696e20746f207265766f6b6560801b606082015260800190565b60208082526010908201526f14185d5cd8589b194e881c185d5cd95960821b604082015260600190565b60208082526011908201527043616e6e6f74207a61702030204649445560781b604082015260600190565b6020808252818101527f4f776e65722063616e6e6f7420626520746865207a65726f2061646472657373604082015260600190565b6020808252600d908201526c2737ba103d30b81037bbb732b960991b604082015260600190565b6020808252601590820152741059191c995cdcc81b9bdd0819dbcb5b1a5cdd1959605a1b604082015260600190565b6020808252600d908201526c496e76616c696420737461746560981b604082015260600190565b6020808252602e908201527f436f6e747261637420696e7374616e63652068617320616c726561647920626560408201526d195b881a5b9a5d1a585b1a5e995960921b606082015260800190565b6020808252602b908201527f456e7469726520616c6c6f77616e6365206f66205553444320686173206e6f7460408201526a103132b2b7103ab9b2b21760a91b606082015260800190565b6020808252600f908201526e2737ba103a37b5b2b71037bbb732b960891b604082015260600190565b60208082526027908201527f63616e6e6f7420756e7374616b65206d6f7265207468616e207374616b65642060408201526662616c616e636560c81b606082015260800190565b6020808252602a908201527f5361666545524332303a204552433230206f7065726174696f6e20646964206e6040820152691bdd081cdd58d8d9595960b21b606082015260800190565b6020808252601f908201527f5265656e7472616e637947756172643a207265656e7472616e742063616c6c00604082015260600190565b6020808252602b908201527f456e7469726520616c6c6f77616e6365206f66204649445520686173206e6f7460408201526a103132b2b7103ab9b2b21760a91b606082015260800190565b60208082526036908201527f5361666545524332303a20617070726f76652066726f6d206e6f6e2d7a65726f60408201527520746f206e6f6e2d7a65726f20616c6c6f77616e636560501b606082015260800190565b6020808252600c908201526b125b9d985b1a59081c1bdbdb60a21b604082015260600190565b6020808252601f908201527f5361666545524332303a2063616c6c20746f206e6f6e2d636f6e747261637400604082015260600190565b6020808252602f908201527f416363657373436f6e74726f6c3a2063616e206f6e6c792072656e6f756e636560408201526e103937b632b9903337b91039b2b63360891b606082015260800190565b918252602082015260400190565b60405181810167ffffffffffffffff81118282101715612bb657600080fd5b604052919050565b6001600160a01b03811681146108ea57600080fdfeb19546dff01e856fb3f010c267a7b1c60363cf8a4664e21cc89c26224620214e65d7a28e3265b37a6474929f336521b332c1681b933f6cb9f3376673440d862aa2646970667358221220abb76252564e148f42c2459ca7d2864267f661de9288bb1d9a533361a72f881d64736f6c634300060c0033",
  "devdoc": {
    "kind": "dev",
    "methods": {
      "claimTranchedPoolZap(uint256)": {
        "params": {
          "poolTokenId": "The underyling PoolToken id created in a previously initiated zap"
        }
      },
      "getRoleAdmin(bytes32)": {
        "details": "Returns the admin role that controls `role`. See {grantRole} and {revokeRole}. To change a role's admin, use {_setRoleAdmin}."
      },
      "getRoleMember(bytes32,uint256)": {
        "details": "Returns one of the accounts that have `role`. `index` must be a value between 0 and {getRoleMemberCount}, non-inclusive. Role bearers are not sorted in any particular way, and their ordering may change at any point. WARNING: When using {getRoleMember} and {getRoleMemberCount}, make sure you perform all queries on the same block. See the following https://forum.openzeppelin.com/t/iterating-over-elements-on-enumerableset-in-openzeppelin-contracts/2296[forum post] for more information."
      },
      "getRoleMemberCount(bytes32)": {
        "details": "Returns the number of accounts that have `role`. Can be used together with {getRoleMember} to enumerate all bearers of a role."
      },
      "grantRole(bytes32,address)": {
        "details": "Grants `role` to `account`. If `account` had not been already granted `role`, emits a {RoleGranted} event. Requirements: - the caller must have ``role``'s admin role."
      },
      "hasRole(bytes32,address)": {
        "details": "Returns `true` if `account` has been granted `role`."
      },
      "pause()": {
        "details": "Pauses all functions guarded by Pause See {Pausable-_pause}. Requirements: - the caller must have the PAUSER_ROLE."
      },
      "paused()": {
        "details": "Returns true if the contract is paused, and false otherwise."
      },
      "renounceRole(bytes32,address)": {
        "details": "Revokes `role` from the calling account. Roles are often managed via {grantRole} and {revokeRole}: this function's purpose is to provide a mechanism for accounts to lose their privileges if they are compromised (such as when a trusted device is misplaced). If the calling account had been granted `role`, emits a {RoleRevoked} event. Requirements: - the caller must be `account`."
      },
      "revokeRole(bytes32,address)": {
        "details": "Revokes `role` from `account`. If `account` had been granted `role`, emits a {RoleRevoked} event. Requirements: - the caller must have ``role``'s admin role."
      },
      "unpause()": {
        "details": "Unpauses the contract See {Pausable-_unpause}. Requirements: - the caller must have the Pauser role"
      },
      "unzapToStakingRewards(uint256)": {
        "params": {
          "poolTokenId": "The underyling PoolToken id created in a previously initiated zap"
        }
      },
      "zapStakeToCurve(uint256,uint256,uint256)": {
        "params": {
          "fiduAmount": "The amount in FIDU from the staked position to zap",
          "tokenId": "A staking position token ID",
          "usdcAmount": "The amount of USDC to deposit into Curve"
        }
      },
      "zapStakeToTranchedPool(uint256,address,uint256,uint256)": {
        "details": "The minted pool token is held by this contract until either `claimZap` or   `unzap` is called",
        "params": {
          "tokenId": "A staking position token ID",
          "tranche": "The tranche ID of tranchedPool in which to deposit",
          "tranchedPool": "A TranchedPool in which to deposit",
          "usdcAmount": "The amount in USDC to zap from StakingRewards into the TranchedPool"
        }
      }
    },
    "stateVariables": {
      "tranchedPoolZaps": {
        "details": "PoolToken.id => Zap"
      }
    },
    "title": "Zapper",
    "version": 1
  },
  "userdoc": {
    "kind": "user",
    "methods": {
      "claimTranchedPoolZap(uint256)": {
        "notice": "Claim the underlying PoolToken for a zap initiated with `zapStakeToTranchePool`.  The pool token will be transferred to msg.sender if msg.sender initiated the zap and  we are past the tranche's lockedUntil time."
      },
      "unzapToStakingRewards(uint256)": {
        "notice": "Unwind a zap initiated with `zapStakeToTranchePool`.  The funds will be withdrawn from the TranchedPool and added back to the original  staked position in StakingRewards. This method can only be called when the PoolToken's  tranche has never been locked."
      },
      "zapStakeToCurve(uint256,uint256,uint256)": {
        "notice": "Zap staked FIDU into staked Curve LP tokens without losing unvested rewards  or paying a withdrawal fee."
      },
      "zapStakeToTranchedPool(uint256,address,uint256,uint256)": {
        "notice": "Zap staked FIDU into the junior tranche of a TranchedPool without losing   unvested rewards or paying a withdrawal fee"
      }
    },
    "notice": "Moves capital from the SeniorPool to TranchedPools without taking fees",
    "version": 1
  },
  "storageLayout": {
    "storage": [
      {
        "astId": 151,
        "contract": "contracts/protocol/core/Zapper.sol:Zapper",
        "label": "initialized",
        "offset": 0,
        "slot": "0",
        "type": "t_bool"
      },
      {
        "astId": 154,
        "contract": "contracts/protocol/core/Zapper.sol:Zapper",
        "label": "initializing",
        "offset": 1,
        "slot": "0",
        "type": "t_bool"
      },
      {
        "astId": 219,
        "contract": "contracts/protocol/core/Zapper.sol:Zapper",
        "label": "______gap",
        "offset": 0,
        "slot": "1",
        "type": "t_array(t_uint256)50_storage"
      },
      {
        "astId": 144,
        "contract": "contracts/protocol/core/Zapper.sol:Zapper",
        "label": "__gap",
        "offset": 0,
        "slot": "51",
        "type": "t_array(t_uint256)50_storage"
      },
      {
        "astId": 264,
        "contract": "contracts/protocol/core/Zapper.sol:Zapper",
        "label": "_roles",
        "offset": 0,
        "slot": "101",
        "type": "t_mapping(t_bytes32,t_struct(RoleData)260_storage)"
      },
      {
        "astId": 509,
        "contract": "contracts/protocol/core/Zapper.sol:Zapper",
        "label": "__gap",
        "offset": 0,
        "slot": "102",
        "type": "t_array(t_uint256)49_storage"
      },
      {
        "astId": 4429,
        "contract": "contracts/protocol/core/Zapper.sol:Zapper",
        "label": "_paused",
        "offset": 0,
        "slot": "151",
        "type": "t_bool"
      },
      {
        "astId": 4518,
        "contract": "contracts/protocol/core/Zapper.sol:Zapper",
        "label": "__gap",
        "offset": 0,
        "slot": "152",
        "type": "t_array(t_uint256)49_storage"
      },
      {
        "astId": 4527,
        "contract": "contracts/protocol/core/Zapper.sol:Zapper",
        "label": "_notEntered",
        "offset": 0,
        "slot": "201",
        "type": "t_bool"
      },
      {
        "astId": 4568,
        "contract": "contracts/protocol/core/Zapper.sol:Zapper",
        "label": "__gap",
        "offset": 0,
        "slot": "202",
        "type": "t_array(t_uint256)49_storage"
      },
      {
        "astId": 12118,
        "contract": "contracts/protocol/core/Zapper.sol:Zapper",
        "label": "__gap1",
        "offset": 0,
        "slot": "251",
        "type": "t_array(t_uint256)50_storage"
      },
      {
        "astId": 12122,
        "contract": "contracts/protocol/core/Zapper.sol:Zapper",
        "label": "__gap2",
        "offset": 0,
        "slot": "301",
        "type": "t_array(t_uint256)50_storage"
      },
      {
        "astId": 12126,
        "contract": "contracts/protocol/core/Zapper.sol:Zapper",
        "label": "__gap3",
        "offset": 0,
        "slot": "351",
        "type": "t_array(t_uint256)50_storage"
      },
      {
        "astId": 12130,
        "contract": "contracts/protocol/core/Zapper.sol:Zapper",
        "label": "__gap4",
        "offset": 0,
        "slot": "401",
        "type": "t_array(t_uint256)50_storage"
      },
      {
        "astId": 26258,
        "contract": "contracts/protocol/core/Zapper.sol:Zapper",
        "label": "config",
        "offset": 0,
        "slot": "451",
        "type": "t_contract(GoldfinchConfig)17615"
      },
      {
        "astId": 26274,
        "contract": "contracts/protocol/core/Zapper.sol:Zapper",
        "label": "tranchedPoolZaps",
        "offset": 0,
        "slot": "452",
        "type": "t_mapping(t_uint256,t_struct(Zap)26269_storage)"
      }
    ],
    "types": {
      "t_address": {
        "encoding": "inplace",
        "label": "address",
        "numberOfBytes": "20"
      },
      "t_array(t_bytes32)dyn_storage": {
        "base": "t_bytes32",
        "encoding": "dynamic_array",
        "label": "bytes32[]",
        "numberOfBytes": "32"
      },
      "t_array(t_uint256)49_storage": {
        "base": "t_uint256",
        "encoding": "inplace",
        "label": "uint256[49]",
        "numberOfBytes": "1568"
      },
      "t_array(t_uint256)50_storage": {
        "base": "t_uint256",
        "encoding": "inplace",
        "label": "uint256[50]",
        "numberOfBytes": "1600"
      },
      "t_bool": {
        "encoding": "inplace",
        "label": "bool",
        "numberOfBytes": "1"
      },
      "t_bytes32": {
        "encoding": "inplace",
        "label": "bytes32",
        "numberOfBytes": "32"
      },
      "t_contract(GoldfinchConfig)17615": {
        "encoding": "inplace",
        "label": "contract GoldfinchConfig",
        "numberOfBytes": "20"
      },
      "t_mapping(t_bytes32,t_struct(RoleData)260_storage)": {
        "encoding": "mapping",
        "key": "t_bytes32",
        "label": "mapping(bytes32 => struct AccessControlUpgradeSafe.RoleData)",
        "numberOfBytes": "32",
        "value": "t_struct(RoleData)260_storage"
      },
      "t_mapping(t_bytes32,t_uint256)": {
        "encoding": "mapping",
        "key": "t_bytes32",
        "label": "mapping(bytes32 => uint256)",
        "numberOfBytes": "32",
        "value": "t_uint256"
      },
      "t_mapping(t_uint256,t_struct(Zap)26269_storage)": {
        "encoding": "mapping",
        "key": "t_uint256",
        "label": "mapping(uint256 => struct Zapper.Zap)",
        "numberOfBytes": "32",
        "value": "t_struct(Zap)26269_storage"
      },
      "t_struct(AddressSet)4204_storage": {
        "encoding": "inplace",
        "label": "struct EnumerableSet.AddressSet",
        "members": [
          {
            "astId": 4203,
            "contract": "contracts/protocol/core/Zapper.sol:Zapper",
            "label": "_inner",
            "offset": 0,
            "slot": "0",
            "type": "t_struct(Set)4024_storage"
          }
        ],
        "numberOfBytes": "64"
      },
      "t_struct(RoleData)260_storage": {
        "encoding": "inplace",
        "label": "struct AccessControlUpgradeSafe.RoleData",
        "members": [
          {
            "astId": 257,
            "contract": "contracts/protocol/core/Zapper.sol:Zapper",
            "label": "members",
            "offset": 0,
            "slot": "0",
            "type": "t_struct(AddressSet)4204_storage"
          },
          {
            "astId": 259,
            "contract": "contracts/protocol/core/Zapper.sol:Zapper",
            "label": "adminRole",
            "offset": 0,
            "slot": "2",
            "type": "t_bytes32"
          }
        ],
        "numberOfBytes": "96"
      },
      "t_struct(Set)4024_storage": {
        "encoding": "inplace",
        "label": "struct EnumerableSet.Set",
        "members": [
          {
            "astId": 4019,
            "contract": "contracts/protocol/core/Zapper.sol:Zapper",
            "label": "_values",
            "offset": 0,
            "slot": "0",
            "type": "t_array(t_bytes32)dyn_storage"
          },
          {
            "astId": 4023,
            "contract": "contracts/protocol/core/Zapper.sol:Zapper",
            "label": "_indexes",
            "offset": 0,
            "slot": "1",
            "type": "t_mapping(t_bytes32,t_uint256)"
          }
        ],
        "numberOfBytes": "64"
      },
      "t_struct(Zap)26269_storage": {
        "encoding": "inplace",
        "label": "struct Zapper.Zap",
        "members": [
          {
            "astId": 26266,
            "contract": "contracts/protocol/core/Zapper.sol:Zapper",
            "label": "owner",
            "offset": 0,
            "slot": "0",
            "type": "t_address"
          },
          {
            "astId": 26268,
            "contract": "contracts/protocol/core/Zapper.sol:Zapper",
            "label": "stakingPositionId",
            "offset": 0,
            "slot": "1",
            "type": "t_uint256"
          }
        ],
        "numberOfBytes": "64"
      },
      "t_uint256": {
        "encoding": "inplace",
        "label": "uint256",
        "numberOfBytes": "32"
      }
    }
  }
}