{
  "address": "0x252C24f2e58C74E280bEf092466D9A61F43b3592",
  "abi": [
    {
      "inputs": [],
      "name": "BLOCKS_PER_DAY",
      "outputs": [
        {
          "internalType": "uint256",
          "name": "",
          "type": "uint256"
        }
      ],
      "stateMutability": "view",
      "type": "function"
    },
    {
      "inputs": [],
      "name": "BLOCKS_PER_YEAR",
      "outputs": [
        {
          "internalType": "uint256",
          "name": "",
          "type": "uint256"
        }
      ],
      "stateMutability": "view",
      "type": "function"
    },
    {
      "inputs": [],
      "name": "FP_SCALING_FACTOR",
      "outputs": [
        {
          "internalType": "uint256",
          "name": "",
          "type": "uint256"
        }
      ],
      "stateMutability": "view",
      "type": "function"
    },
    {
      "inputs": [],
      "name": "INTEREST_DECIMALS",
      "outputs": [
        {
          "internalType": "uint256",
          "name": "",
          "type": "uint256"
        }
      ],
      "stateMutability": "view",
      "type": "function"
    },
    {
      "inputs": [
        {
          "internalType": "uint256",
          "name": "paymentAmount",
          "type": "uint256"
        },
        {
          "internalType": "uint256",
          "name": "balance",
          "type": "uint256"
        },
        {
          "internalType": "uint256",
          "name": "interestOwed",
          "type": "uint256"
        },
        {
          "internalType": "uint256",
          "name": "principalOwed",
          "type": "uint256"
        }
      ],
      "name": "allocatePayment",
      "outputs": [
        {
          "components": [
            {
              "internalType": "uint256",
              "name": "interestPayment",
              "type": "uint256"
            },
            {
              "internalType": "uint256",
              "name": "principalPayment",
              "type": "uint256"
            },
            {
              "internalType": "uint256",
              "name": "additionalBalancePayment",
              "type": "uint256"
            }
          ],
          "internalType": "struct Accountant.PaymentAllocation",
          "name": "",
          "type": "tuple"
        }
      ],
      "stateMutability": "pure",
      "type": "function"
    },
    {
      "inputs": [
        {
          "internalType": "contract CreditLine",
          "name": "cl",
          "type": "CreditLine"
        }
      ],
      "name": "calculateAmountOwedForOneDay",
      "outputs": [
        {
          "components": [
            {
              "internalType": "uint256",
              "name": "rawValue",
              "type": "uint256"
            }
          ],
          "internalType": "struct FixedPoint.Unsigned",
          "name": "",
          "type": "tuple"
        }
      ],
      "stateMutability": "view",
      "type": "function"
    },
    {
      "inputs": [
        {
          "internalType": "contract CreditLine",
          "name": "cl",
          "type": "CreditLine"
        },
        {
          "internalType": "uint256",
          "name": "balance",
          "type": "uint256"
        },
        {
          "internalType": "uint256",
          "name": "blockNumber",
          "type": "uint256"
        },
        {
          "internalType": "uint256",
          "name": "lateFeeGracePeriodInDays",
          "type": "uint256"
        }
      ],
      "name": "calculateInterestAccrued",
      "outputs": [
        {
          "internalType": "uint256",
          "name": "",
          "type": "uint256"
        }
      ],
      "stateMutability": "view",
      "type": "function"
    },
    {
      "inputs": [
        {
          "internalType": "contract CreditLine",
          "name": "cl",
          "type": "CreditLine"
        },
        {
          "internalType": "uint256",
          "name": "blockNumber",
          "type": "uint256"
        },
        {
          "internalType": "uint256",
          "name": "lateFeeGracePeriod",
          "type": "uint256"
        }
      ],
      "name": "calculateInterestAndPrincipalAccrued",
      "outputs": [
        {
          "internalType": "uint256",
          "name": "",
          "type": "uint256"
        },
        {
          "internalType": "uint256",
          "name": "",
          "type": "uint256"
        }
      ],
      "stateMutability": "view",
      "type": "function"
    },
    {
      "inputs": [
        {
          "internalType": "contract CreditLine",
          "name": "cl",
          "type": "CreditLine"
        },
        {
          "internalType": "uint256",
          "name": "balance",
          "type": "uint256"
        },
        {
          "internalType": "uint256",
          "name": "blockNumber",
          "type": "uint256"
        }
      ],
      "name": "calculatePrincipalAccrued",
      "outputs": [
        {
          "internalType": "uint256",
          "name": "",
          "type": "uint256"
        }
      ],
      "stateMutability": "view",
      "type": "function"
    },
    {
      "inputs": [
        {
          "internalType": "contract CreditLine",
          "name": "cl",
          "type": "CreditLine"
        },
        {
          "internalType": "uint256",
          "name": "blockNumber",
          "type": "uint256"
        },
        {
          "internalType": "uint256",
          "name": "gracePeriodInDays",
          "type": "uint256"
        },
        {
          "internalType": "uint256",
          "name": "maxDaysLate",
          "type": "uint256"
        }
      ],
      "name": "calculateWritedownFor",
      "outputs": [
        {
          "internalType": "uint256",
          "name": "",
          "type": "uint256"
        },
        {
          "internalType": "uint256",
          "name": "",
          "type": "uint256"
        }
      ],
      "stateMutability": "view",
      "type": "function"
    },
    {
      "inputs": [
        {
          "internalType": "contract CreditLine",
          "name": "cl",
          "type": "CreditLine"
        },
        {
          "internalType": "uint256",
          "name": "blockNumber",
          "type": "uint256"
        },
        {
          "internalType": "uint256",
          "name": "gracePeriodInDays",
          "type": "uint256"
        }
      ],
      "name": "lateFeeApplicable",
      "outputs": [
        {
          "internalType": "bool",
          "name": "",
          "type": "bool"
        }
      ],
      "stateMutability": "view",
      "type": "function"
    }
  ],
  "transactionHash": "0x6baf089c3b69c1178e0abaff9d02a9f8e978e9f145fc93563ed95ab7a413cfe5",
  "args": [],
  "solcInputHash": "e2e6a7937b09ef08f199f5a8536ea2f5",
  "bytecode": "0x611036610026600b82828239805160001a60731461001957fe5b30600052607381538281f3fe73000000000000000000000000000000000000000030146080604052600436106100b35760003560e01c8063a14e8bc41161007b578063a14e8bc414610127578063a55119c314610147578063c9992a6f1461015a578063ca5735681461016d578063d37db1d214610180578063d7cc2a0314610188576100b3565b8063101c8430146100b8578063347dd0b4146100e25780633a5333bb1461010257806368dcfdc0146101175780636bb987fe1461011f575b600080fd5b6100cb6100c6366004610e19565b6101a8565b6040516100d9929190610fda565b60405180910390f35b6100f56100f0366004610e19565b61024c565b6040516100d99190610ed0565b61010a610361565b6040516100d99190610fd1565b61010a610369565b61010a610375565b61013a610135366004610df2565b61037b565b6040516100d99190610fc7565b61010a610155366004610e4d565b6104a5565b61010a610168366004610e19565b610695565b6100cb61017b366004610e4d565b61071d565b61010a610aa5565b61019b610196366004610e9f565b610aac565b6040516100d99190610fa6565b6000806000856001600160a01b031663b69ef8a86040518163ffffffff1660e01b815260040160206040518083038186803b1580156101e657600080fd5b505afa1580156101fa573d6000803e3d6000fd5b505050506040513d601f19601f8201168201806040525081019061021e9190610e87565b9050600061022e878388886104a5565b9050600061023d888489610695565b91989197509095505050505050565b6000806102ca856001600160a01b031663bfe976a96040518163ffffffff1660e01b815260040160206040518083038186803b15801561028b57600080fd5b505afa15801561029f573d6000803e3d6000fd5b505050506040513d601f19601f820116820180604052508101906102c39190610e87565b8590610b2c565b90506000856001600160a01b031663f0b25bde6040518163ffffffff1660e01b815260040160206040518083038186803b15801561030757600080fd5b505afa15801561031b573d6000803e3d6000fd5b505050506040513d601f19601f8201168201806040525081019061033f9190610e87565b118015610356575061035383611680610b77565b81115b9150505b9392505050565b6305f5e10081565b670de0b6b3a764000081565b61168081565b610383610dbe565b600061047e6305f5e100610478856001600160a01b031663b39699926040518163ffffffff1660e01b815260040160206040518083038186803b1580156103c957600080fd5b505afa1580156103dd573d6000803e3d6000fd5b505050506040513d601f19601f820116820180604052508101906104019190610e87565b866001600160a01b031663b69ef8a86040518163ffffffff1660e01b815260040160206040518083038186803b15801561043a57600080fd5b505afa15801561044e573d6000803e3d6000fd5b505050506040513d601f19601f820116820180604052508101906104729190610e87565b90610b77565b90610bba565b9050610488610dbe565b61049d61016d61049784610bfc565b90610c2a565b949350505050565b60008061052284876001600160a01b031663408862d96040518163ffffffff1660e01b815260040160206040518083038186803b1580156104e557600080fd5b505afa1580156104f9573d6000803e3d6000fd5b505050506040513d601f19601f8201168201806040525081019061051d9190610e87565b610c54565b905060006105308583610b2c565b905060006105b76305f5e1006104788a6001600160a01b031663b39699926040518163ffffffff1660e01b815260040160206040518083038186803b15801561057857600080fd5b505afa15801561058c573d6000803e3d6000fd5b505050506040513d601f19601f820116820180604052508101906105b09190610e87565b8a90610b77565b905060006105cc622014806104788486610b77565b90506105d989888861024c565b156106895760006106636305f5e1006104788c6001600160a01b031663f0b25bde6040518163ffffffff1660e01b815260040160206040518083038186803b15801561062457600080fd5b505afa158015610638573d6000803e3d6000fd5b505050506040513d601f19601f8201168201806040525081019061065c9190610e87565b8c90610b77565b90506000610678622014806104788488610b77565b90506106848382610c6a565b925050505b98975050505050505050565b6000836001600160a01b0316631790ebd56040518163ffffffff1660e01b815260040160206040518083038186803b1580156106d057600080fd5b505afa1580156106e4573d6000803e3d6000fd5b505050506040513d601f19601f820116820180604052508101906107089190610e87565b821061071557508161035a565b50600061035a565b600080610728610dbe565b6107318761037b565b905061073e816000610c8f565b15610750576000809250925050610a9c565b610758610dbe565b61076186610bfc565b905061076b610dbe565b60006108588a6001600160a01b031663193501146040518163ffffffff1660e01b815260040160206040518083038186803b1580156107a957600080fd5b505afa1580156107bd573d6000803e3d6000fd5b505050506040513d601f19601f820116820180604052508101906107e19190610e87565b8b6001600160a01b03166321856b366040518163ffffffff1660e01b815260040160206040518083038186803b15801561081a57600080fd5b505afa15801561082e573d6000803e3d6000fd5b505050506040513d601f19601f820116820180604052508101906108529190610e87565b90610c6a565b905061086d8461086783610bfc565b90610ca6565b9150896001600160a01b0316631790ebd56040518163ffffffff1660e01b815260040160206040518083038186803b1580156108a857600080fd5b505afa1580156108bc573d6000803e3d6000fd5b505050506040513d601f19601f820116820180604052508101906108e09190610e87565b8911156109835760006109648b6001600160a01b0316631790ebd56040518163ffffffff1660e01b815260040160206040518083038186803b15801561092557600080fd5b505afa158015610939573d6000803e3d6000fd5b505050506040513d601f19601f8201168201806040525081019061095d9190610e87565b8b90610b2c565b905061097f61097861168061049784610bfc565b8490610cd5565b9250505b61098b610dbe565b61099488610bfc565b905061099e610dbe565b6109a88486610cf8565b156109be576109b76000610bfc565b90506109e1565b6109de6109cb6001610bfc565b6109d984610867888a610d00565b610d23565b90505b6109e9610dbe565b610a70670de0b6b3a76400006104978f6001600160a01b031663b69ef8a86040518163ffffffff1660e01b815260040160206040518083038186803b158015610a3157600080fd5b505afa158015610a45573d6000803e3d6000fd5b505050506040513d601f19601f82011682018060405250810190610a699190610e87565b8590610d3a565b90506000610a8b670de0b6b3a7640000610497856064610d3a565b519151919950909750505050505050505b94509492505050565b6220148081565b610ab4610dd1565b846000610ac18583610c54565b9050610acd8282610b2c565b91506000610adb8584610c54565b9050610ae78382610b2c565b92506000610af58883610b2c565b90506000610b038583610c54565b604080516060810182529586526020860194909452928401929092525090979650505050505050565b6000610b6e83836040518060400160405280601e81526020017f536166654d6174683a207375627472616374696f6e206f766572666c6f770000815250610d5b565b90505b92915050565b600082610b8657506000610b71565b82820282848281610b9357fe5b0414610b6e5760405162461bcd60e51b8152600401610bb190610f65565b60405180910390fd5b6000610b6e83836040518060400160405280601a81526020017f536166654d6174683a206469766973696f6e206279207a65726f000000000000815250610d87565b610c04610dbe565b604080516020810190915280610c2284670de0b6b3a7640000610b77565b905292915050565b610c32610dbe565b604080516020810190915283518190610c4b9085610bba565b90529392505050565b6000818310610c635781610b6e565b5090919050565b600082820183811015610b6e5760405162461bcd60e51b8152600401610bb190610f2e565b6000610c9a82610bfc565b51835114905092915050565b610cae610dbe565b6040805160208101909152825184518291610c4b9161047890670de0b6b3a7640000610b77565b610cdd610dbe565b6040805160208101909152825184518291610c4b9190610c6a565b519051111590565b610d08610dbe565b6040805160208101909152825184518291610c4b9190610b2c565b610d2b610dbe565b8151835110610c635781610b6e565b610d42610dbe565b604080516020810190915283518190610c4b9085610b77565b60008184841115610d7f5760405162461bcd60e51b8152600401610bb19190610edb565b505050900390565b60008183610da85760405162461bcd60e51b8152600401610bb19190610edb565b506000838581610db457fe5b0495945050505050565b6040518060200160405280600081525090565b60405180606001604052806000815260200160008152602001600081525090565b600060208284031215610e03578081fd5b81356001600160a01b0381168114610b6e578182fd5b600080600060608486031215610e2d578182fd5b8335610e3881610fe8565b95602085013595506040909401359392505050565b60008060008060808587031215610e62578081fd5b8435610e6d81610fe8565b966020860135965060408601359560600135945092505050565b600060208284031215610e98578081fd5b5051919050565b60008060008060808587031215610eb4578384fd5b5050823594602084013594506040840135936060013592509050565b901515815260200190565b6000602080835283518082850152825b81811015610f0757858101830151858201604001528201610eeb565b81811115610f185783604083870101525b50601f01601f1916929092016040019392505050565b6020808252601b908201527f536166654d6174683a206164646974696f6e206f766572666c6f770000000000604082015260600190565b60208082526021908201527f536166654d6174683a206d756c7469706c69636174696f6e206f766572666c6f6040820152607760f81b606082015260800190565b81518152602080830151908201526040918201519181019190915260600190565b9051815260200190565b90815260200190565b918252602082015260400190565b6001600160a01b0381168114610ffd57600080fd5b5056fea2646970667358221220639c86567d8dd1c83f789453dd1683cdd33423327f178916dbe2faf940bdad1264736f6c634300060c0033",
  "devdoc": {
    "author": "Goldfinch",
    "kind": "dev",
    "methods": {},
    "title": "The Accountant",
    "version": 1
  },
  "userdoc": {
    "kind": "user",
    "methods": {},
    "notice": "Library for handling key financial calculations, such as interest and principal accrual.",
    "version": 1
  },
  "storageLayout": {
    "storage": [],
    "types": null
  }
}