{
  "address": "0xd8D9B5d40D82BAbE6df2ac89d52C0D0C94B4B2C2",
  "abi": [
    {
      "inputs": [],
      "name": "BLOCKS_PER_DAY",
      "outputs": [
        {
          "internalType": "uint256",
          "name": "",
          "type": "uint256"
        }
      ],
      "stateMutability": "view",
      "type": "function"
    },
    {
      "inputs": [],
      "name": "BLOCKS_PER_YEAR",
      "outputs": [
        {
          "internalType": "uint256",
          "name": "",
          "type": "uint256"
        }
      ],
      "stateMutability": "view",
      "type": "function"
    },
    {
      "inputs": [],
      "name": "FP_SCALING_FACTOR",
      "outputs": [
        {
          "internalType": "uint256",
          "name": "",
          "type": "uint256"
        }
      ],
      "stateMutability": "view",
      "type": "function"
    },
    {
      "inputs": [],
      "name": "INTEREST_DECIMALS",
      "outputs": [
        {
          "internalType": "uint256",
          "name": "",
          "type": "uint256"
        }
      ],
      "stateMutability": "view",
      "type": "function"
    },
    {
      "inputs": [
        {
          "internalType": "uint256",
          "name": "paymentAmount",
          "type": "uint256"
        },
        {
          "internalType": "uint256",
          "name": "balance",
          "type": "uint256"
        },
        {
          "internalType": "uint256",
          "name": "interestOwed",
          "type": "uint256"
        },
        {
          "internalType": "uint256",
          "name": "principalOwed",
          "type": "uint256"
        }
      ],
      "name": "allocatePayment",
      "outputs": [
        {
          "components": [
            {
              "internalType": "uint256",
              "name": "interestPayment",
              "type": "uint256"
            },
            {
              "internalType": "uint256",
              "name": "principalPayment",
              "type": "uint256"
            },
            {
              "internalType": "uint256",
              "name": "additionalBalancePayment",
              "type": "uint256"
            }
          ],
          "internalType": "struct Accountant.PaymentAllocation",
          "name": "",
          "type": "tuple"
        }
      ],
      "stateMutability": "pure",
      "type": "function"
    },
    {
      "inputs": [
        {
          "internalType": "contract CreditLine",
          "name": "cl",
          "type": "CreditLine"
        }
      ],
      "name": "calculateAmountOwedForOneDay",
      "outputs": [
        {
          "components": [
            {
              "internalType": "uint256",
              "name": "rawValue",
              "type": "uint256"
            }
          ],
          "internalType": "struct FixedPoint.Unsigned",
          "name": "",
          "type": "tuple"
        }
      ],
      "stateMutability": "view",
      "type": "function"
    },
    {
      "inputs": [
        {
          "internalType": "contract CreditLine",
          "name": "cl",
          "type": "CreditLine"
        },
        {
          "internalType": "uint256",
          "name": "blockNumber",
          "type": "uint256"
        },
        {
          "internalType": "uint256",
          "name": "lateFeeGracePeriodInDays",
          "type": "uint256"
        }
      ],
      "name": "calculateInterestAccrued",
      "outputs": [
        {
          "internalType": "uint256",
          "name": "",
          "type": "uint256"
        }
      ],
      "stateMutability": "view",
      "type": "function"
    },
    {
      "inputs": [
        {
          "internalType": "contract CreditLine",
          "name": "cl",
          "type": "CreditLine"
        },
        {
          "internalType": "uint256",
          "name": "blockNumber",
          "type": "uint256"
        },
        {
          "internalType": "uint256",
          "name": "lateFeeGracePeriod",
          "type": "uint256"
        }
      ],
      "name": "calculateInterestAndPrincipalAccrued",
      "outputs": [
        {
          "internalType": "uint256",
          "name": "",
          "type": "uint256"
        },
        {
          "internalType": "uint256",
          "name": "",
          "type": "uint256"
        }
      ],
      "stateMutability": "view",
      "type": "function"
    },
    {
      "inputs": [
        {
          "internalType": "contract CreditLine",
          "name": "cl",
          "type": "CreditLine"
        },
        {
          "internalType": "uint256",
          "name": "blockNumber",
          "type": "uint256"
        }
      ],
      "name": "calculatePrincipalAccrued",
      "outputs": [
        {
          "internalType": "uint256",
          "name": "",
          "type": "uint256"
        }
      ],
      "stateMutability": "view",
      "type": "function"
    },
    {
      "inputs": [
        {
          "internalType": "contract CreditLine",
          "name": "cl",
          "type": "CreditLine"
        },
        {
          "internalType": "uint256",
          "name": "blockNumber",
          "type": "uint256"
        },
        {
          "internalType": "uint256",
          "name": "gracePeriodInDays",
          "type": "uint256"
        },
        {
          "internalType": "uint256",
          "name": "maxDaysLate",
          "type": "uint256"
        }
      ],
      "name": "calculateWritedownFor",
      "outputs": [
        {
          "internalType": "uint256",
          "name": "",
          "type": "uint256"
        },
        {
          "internalType": "uint256",
          "name": "",
          "type": "uint256"
        }
      ],
      "stateMutability": "view",
      "type": "function"
    },
    {
      "inputs": [
        {
          "internalType": "contract CreditLine",
          "name": "cl",
          "type": "CreditLine"
        },
        {
          "internalType": "uint256",
          "name": "blockNumber",
          "type": "uint256"
        },
        {
          "internalType": "uint256",
          "name": "gracePeriodInDays",
          "type": "uint256"
        }
      ],
      "name": "lateFeeApplicable",
      "outputs": [
        {
          "internalType": "bool",
          "name": "",
          "type": "bool"
        }
      ],
      "stateMutability": "view",
      "type": "function"
    }
  ],
  "transactionHash": "0xed07804329109e18f8c21f1964c001843fb572ed4ecad524718d9631b094b28e",
  "args": [],
  "solcInputHash": "d2b64f0271131afd2f1758340059b6ad",
  "bytecode": "0x611180610026600b82828239805160001a60731461001957fe5b30600052607381538281f3fe73000000000000000000000000000000000000000030146080604052600436106100b35760003560e01c8063a14e8bc41161007b578063a14e8bc414610127578063c5b3457814610147578063ca5735681461015a578063d37db1d21461016d578063d7cc2a0314610175578063e02bba6f14610195576100b3565b8063101c8430146100b8578063347dd0b4146100e25780633a5333bb1461010257806368dcfdc0146101175780636bb987fe1461011f575b600080fd5b6100cb6100c6366004610f64565b6101a8565b6040516100d9929190611124565b60405180910390f35b6100f56100f0366004610f64565b6101d4565b6040516100d9919061101a565b61010a610363565b6040516100d9919061111b565b61010a61036b565b61010a610377565b61013a610135366004610f1e565b61037d565b6040516100d99190611111565b61010a610155366004610f39565b6104a7565b6100cb610168366004610f97565b6105a2565b61010a6109a6565b610188610183366004610fe9565b6109ad565b6040516100d991906110f0565b61010a6101a3366004610f64565b610a2d565b60008060006101b8868686610a2d565b905060006101c687876104a7565b919791965090945050505050565b600080610252856001600160a01b031663bfe976a96040518163ffffffff1660e01b815260040160206040518083038186803b15801561021357600080fd5b505afa158015610227573d6000803e3d6000fd5b505050506040513d601f19601f8201168201806040525081019061024b9190610fd1565b8590610c43565b90506102ce83866001600160a01b03166399dd8df36040518163ffffffff1660e01b815260040160206040518083038186803b15801561029157600080fd5b505afa1580156102a5573d6000803e3d6000fd5b505050506040513d601f19601f820116820180604052508101906102c99190610fd1565b610c8c565b92506000856001600160a01b031663f0b25bde6040518163ffffffff1660e01b815260040160206040518083038186803b15801561030b57600080fd5b505afa15801561031f573d6000803e3d6000fd5b505050506040513d601f19601f820116820180604052508101906103439190610fd1565b11801561035a575061035783611680610ca2565b81115b95945050505050565b6305f5e10081565b670de0b6b3a764000081565b61168081565b610385610ed3565b60006104806305f5e10061047a856001600160a01b031663b39699926040518163ffffffff1660e01b815260040160206040518083038186803b1580156103cb57600080fd5b505afa1580156103df573d6000803e3d6000fd5b505050506040513d601f19601f820116820180604052508101906104039190610fd1565b866001600160a01b031663b69ef8a86040518163ffffffff1660e01b815260040160206040518083038186803b15801561043c57600080fd5b505afa158015610450573d6000803e3d6000fd5b505050506040513d601f19601f820116820180604052508101906104749190610fd1565b90610ca2565b90610ce5565b905061048a610ed3565b61049f61016d61049984610d27565b90610d55565b949350505050565b6000826001600160a01b0316631790ebd56040518163ffffffff1660e01b815260040160206040518083038186803b1580156104e257600080fd5b505afa1580156104f6573d6000803e3d6000fd5b505050506040513d601f19601f8201168201806040525081019061051a9190610fd1565b821061059857826001600160a01b031663b69ef8a86040518163ffffffff1660e01b815260040160206040518083038186803b15801561055957600080fd5b505afa15801561056d573d6000803e3d6000fd5b505050506040513d601f19601f820116820180604052508101906105919190610fd1565b905061059c565b5060005b92915050565b6000806105ad610ed3565b6105b68761037d565b90506105c3816000610d7f565b156105d557600080925092505061099d565b6105dd610ed3565b6106676105e987610d27565b6106628a6001600160a01b03166399dd8df36040518163ffffffff1660e01b815260040160206040518083038186803b15801561062557600080fd5b505afa158015610639573d6000803e3d6000fd5b505050506040513d601f19601f8201168201806040525081019061065d9190610fd1565b610d27565b610d96565b9050610671610ed3565b600061075e8a6001600160a01b031663193501146040518163ffffffff1660e01b815260040160206040518083038186803b1580156106af57600080fd5b505afa1580156106c3573d6000803e3d6000fd5b505050506040513d601f19601f820116820180604052508101906106e79190610fd1565b8b6001600160a01b03166321856b366040518163ffffffff1660e01b815260040160206040518083038186803b15801561072057600080fd5b505afa158015610734573d6000803e3d6000fd5b505050506040513d601f19601f820116820180604052508101906107589190610fd1565b90610dad565b90506107738461076d83610d27565b90610dd2565b9150896001600160a01b0316631790ebd56040518163ffffffff1660e01b815260040160206040518083038186803b1580156107ae57600080fd5b505afa1580156107c2573d6000803e3d6000fd5b505050506040513d601f19601f820116820180604052508101906107e69190610fd1565b89111561088957600061086a8b6001600160a01b0316631790ebd56040518163ffffffff1660e01b815260040160206040518083038186803b15801561082b57600080fd5b505afa15801561083f573d6000803e3d6000fd5b505050506040513d601f19601f820116820180604052508101906108639190610fd1565b8b90610c43565b905061088561087e61168061049984610d27565b8490610e01565b9250505b610891610ed3565b61089a88610d27565b90506108a4610ed3565b6108ae8486610e24565b156108c4576108bd6000610d27565b90506108e2565b6108df6108d16001610d27565b6106628461076d888a610e2c565b90505b6108ea610ed3565b610971670de0b6b3a76400006104998f6001600160a01b031663b69ef8a86040518163ffffffff1660e01b815260040160206040518083038186803b15801561093257600080fd5b505afa158015610946573d6000803e3d6000fd5b505050506040513d601f19601f8201168201806040525081019061096a9190610fd1565b8590610e4f565b9050600061098c670de0b6b3a7640000610499856064610e4f565b519151919950909750505050505050505b94509492505050565b6220148081565b6109b5610ee6565b8460006109c28583610c8c565b90506109ce8282610c43565b915060006109dc8584610c8c565b90506109e88382610c43565b925060006109f68883610c43565b90506000610a048583610c8c565b604080516060810182529586526020860194909452928401929092525090979650505050505050565b600080610a6d84866001600160a01b031663408862d96040518163ffffffff1660e01b815260040160206040518083038186803b15801561029157600080fd5b90506000610a7b8583610c43565b90506000610b346305f5e10061047a896001600160a01b031663b39699926040518163ffffffff1660e01b815260040160206040518083038186803b158015610ac357600080fd5b505afa158015610ad7573d6000803e3d6000fd5b505050506040513d601f19601f82011682018060405250810190610afb9190610fd1565b8a6001600160a01b031663b69ef8a86040518163ffffffff1660e01b815260040160206040518083038186803b15801561043c57600080fd5b90506000610b496220148061047a8486610ca2565b9050610b568888886101d4565b15610c38576000610c126305f5e10061047a8b6001600160a01b031663f0b25bde6040518163ffffffff1660e01b815260040160206040518083038186803b158015610ba157600080fd5b505afa158015610bb5573d6000803e3d6000fd5b505050506040513d601f19601f82011682018060405250810190610bd99190610fd1565b8c6001600160a01b031663b69ef8a86040518163ffffffff1660e01b815260040160206040518083038186803b15801561043c57600080fd5b90506000610c276220148061047a8488610ca2565b9050610c338382610dad565b925050505b979650505050505050565b6000610c8583836040518060400160405280601e81526020017f536166654d6174683a207375627472616374696f6e206f766572666c6f770000815250610e70565b9392505050565b6000818310610c9b5781610c85565b5090919050565b600082610cb15750600061059c565b82820282848281610cbe57fe5b0414610c855760405162461bcd60e51b8152600401610cdc906110af565b60405180910390fd5b6000610c8583836040518060400160405280601a81526020017f536166654d6174683a206469766973696f6e206279207a65726f000000000000815250610e9c565b610d2f610ed3565b604080516020810190915280610d4d84670de0b6b3a7640000610ca2565b905292915050565b610d5d610ed3565b604080516020810190915283518190610d769085610ce5565b90529392505050565b6000610d8a82610d27565b51835114905092915050565b610d9e610ed3565b8151835110610c9b5781610c85565b600082820183811015610c855760405162461bcd60e51b8152600401610cdc90611078565b610dda610ed3565b6040805160208101909152825184518291610d769161047a90670de0b6b3a7640000610ca2565b610e09610ed3565b6040805160208101909152825184518291610d769190610dad565b519051111590565b610e34610ed3565b6040805160208101909152825184518291610d769190610c43565b610e57610ed3565b604080516020810190915283518190610d769085610ca2565b60008184841115610e945760405162461bcd60e51b8152600401610cdc9190611025565b505050900390565b60008183610ebd5760405162461bcd60e51b8152600401610cdc9190611025565b506000838581610ec957fe5b0495945050505050565b6040518060200160405280600081525090565b60405180606001604052806000815260200160008152602001600081525090565b80356001600160a01b038116811461059c57600080fd5b600060208284031215610f2f578081fd5b610c858383610f07565b60008060408385031215610f4b578081fd5b8235610f5681611132565b946020939093013593505050565b600080600060608486031215610f78578081fd5b610f828585610f07565b95602085013595506040909401359392505050565b60008060008060808587031215610fac578081fd5b8435610fb781611132565b966020860135965060408601359560600135945092505050565b600060208284031215610fe2578081fd5b5051919050565b60008060008060808587031215610ffe578384fd5b5050823594602084013594506040840135936060013592509050565b901515815260200190565b6000602080835283518082850152825b8181101561105157858101830151858201604001528201611035565b818111156110625783604083870101525b50601f01601f1916929092016040019392505050565b6020808252601b908201527f536166654d6174683a206164646974696f6e206f766572666c6f770000000000604082015260600190565b60208082526021908201527f536166654d6174683a206d756c7469706c69636174696f6e206f766572666c6f6040820152607760f81b606082015260800190565b81518152602080830151908201526040918201519181019190915260600190565b9051815260200190565b90815260200190565b918252602082015260400190565b6001600160a01b038116811461114757600080fd5b5056fea26469706673582212208f01bf4de78a30962690872ba7e0177ec4497ff12037df6433d47331c7f5e76e64736f6c634300060c0033",
  "devdoc": {
    "author": "Goldfinch",
    "kind": "dev",
    "methods": {},
    "title": "The Accountant",
    "version": 1
  },
  "userdoc": {
    "kind": "user",
    "methods": {},
    "notice": "Library for handling key financial calculations, such as interest and principal accrual.",
    "version": 1
  },
  "storageLayout": {
    "storage": [],
    "types": null
  }
}