{
  "address": "0xd3d57673bae28880376cdf89aefe4653a5c84a08",
  "abi": [
    {
      "anonymous": false,
      "inputs": [
        {
          "indexed": false,
          "internalType": "address",
          "name": "account",
          "type": "address"
        }
      ],
      "name": "Paused",
      "type": "event"
    },
    {
      "anonymous": false,
      "inputs": [
        {
          "indexed": true,
          "internalType": "bytes32",
          "name": "role",
          "type": "bytes32"
        },
        {
          "indexed": true,
          "internalType": "address",
          "name": "account",
          "type": "address"
        },
        {
          "indexed": true,
          "internalType": "address",
          "name": "sender",
          "type": "address"
        }
      ],
      "name": "RoleGranted",
      "type": "event"
    },
    {
      "anonymous": false,
      "inputs": [
        {
          "indexed": true,
          "internalType": "bytes32",
          "name": "role",
          "type": "bytes32"
        },
        {
          "indexed": true,
          "internalType": "address",
          "name": "account",
          "type": "address"
        },
        {
          "indexed": true,
          "internalType": "address",
          "name": "sender",
          "type": "address"
        }
      ],
      "name": "RoleRevoked",
      "type": "event"
    },
    {
      "anonymous": false,
      "inputs": [
        {
          "indexed": false,
          "internalType": "address",
          "name": "account",
          "type": "address"
        }
      ],
      "name": "Unpaused",
      "type": "event"
    },
    {
      "inputs": [],
      "name": "DEFAULT_ADMIN_ROLE",
      "outputs": [
        {
          "internalType": "bytes32",
          "name": "",
          "type": "bytes32"
        }
      ],
      "stateMutability": "view",
      "type": "function"
    },
    {
      "inputs": [],
      "name": "OWNER_ROLE",
      "outputs": [
        {
          "internalType": "bytes32",
          "name": "",
          "type": "bytes32"
        }
      ],
      "stateMutability": "view",
      "type": "function"
    },
    {
      "inputs": [],
      "name": "PAUSER_ROLE",
      "outputs": [
        {
          "internalType": "bytes32",
          "name": "",
          "type": "bytes32"
        }
      ],
      "stateMutability": "view",
      "type": "function"
    },
    {
      "inputs": [
        {
          "internalType": "address",
          "name": "owner",
          "type": "address"
        }
      ],
      "name": "__BaseUpgradeablePausable__init",
      "outputs": [],
      "stateMutability": "nonpayable",
      "type": "function"
    },
    {
      "inputs": [],
      "name": "__PauserPausable__init",
      "outputs": [],
      "stateMutability": "nonpayable",
      "type": "function"
    },
    {
      "inputs": [],
      "name": "config",
      "outputs": [
        {
          "internalType": "contract GoldfinchConfig",
          "name": "",
          "type": "address"
        }
      ],
      "stateMutability": "view",
      "type": "function"
    },
    {
      "inputs": [
        {
          "internalType": "address",
          "name": "creditLineAddress",
          "type": "address"
        },
        {
          "internalType": "uint256",
          "name": "amount",
          "type": "uint256"
        },
        {
          "internalType": "address",
          "name": "addressToSendTo",
          "type": "address"
        }
      ],
      "name": "drawdown",
      "outputs": [],
      "stateMutability": "nonpayable",
      "type": "function"
    },
    {
      "inputs": [
        {
          "internalType": "bytes32",
          "name": "role",
          "type": "bytes32"
        }
      ],
      "name": "getRoleAdmin",
      "outputs": [
        {
          "internalType": "bytes32",
          "name": "",
          "type": "bytes32"
        }
      ],
      "stateMutability": "view",
      "type": "function"
    },
    {
      "inputs": [
        {
          "internalType": "bytes32",
          "name": "role",
          "type": "bytes32"
        },
        {
          "internalType": "uint256",
          "name": "index",
          "type": "uint256"
        }
      ],
      "name": "getRoleMember",
      "outputs": [
        {
          "internalType": "address",
          "name": "",
          "type": "address"
        }
      ],
      "stateMutability": "view",
      "type": "function"
    },
    {
      "inputs": [
        {
          "internalType": "bytes32",
          "name": "role",
          "type": "bytes32"
        }
      ],
      "name": "getRoleMemberCount",
      "outputs": [
        {
          "internalType": "uint256",
          "name": "",
          "type": "uint256"
        }
      ],
      "stateMutability": "view",
      "type": "function"
    },
    {
      "inputs": [
        {
          "internalType": "bytes32",
          "name": "role",
          "type": "bytes32"
        },
        {
          "internalType": "address",
          "name": "account",
          "type": "address"
        }
      ],
      "name": "grantRole",
      "outputs": [],
      "stateMutability": "nonpayable",
      "type": "function"
    },
    {
      "inputs": [
        {
          "internalType": "bytes32",
          "name": "role",
          "type": "bytes32"
        },
        {
          "internalType": "address",
          "name": "account",
          "type": "address"
        }
      ],
      "name": "hasRole",
      "outputs": [
        {
          "internalType": "bool",
          "name": "",
          "type": "bool"
        }
      ],
      "stateMutability": "view",
      "type": "function"
    },
    {
      "inputs": [
        {
          "internalType": "address",
          "name": "owner",
          "type": "address"
        },
        {
          "internalType": "contract GoldfinchConfig",
          "name": "_config",
          "type": "address"
        }
      ],
      "name": "initialize",
      "outputs": [],
      "stateMutability": "nonpayable",
      "type": "function"
    },
    {
      "inputs": [],
      "name": "isAdmin",
      "outputs": [
        {
          "internalType": "bool",
          "name": "",
          "type": "bool"
        }
      ],
      "stateMutability": "view",
      "type": "function"
    },
    {
      "inputs": [
        {
          "internalType": "address",
          "name": "forwarder",
          "type": "address"
        }
      ],
      "name": "isTrustedForwarder",
      "outputs": [
        {
          "internalType": "bool",
          "name": "",
          "type": "bool"
        }
      ],
      "stateMutability": "view",
      "type": "function"
    },
    {
      "inputs": [],
      "name": "pause",
      "outputs": [],
      "stateMutability": "nonpayable",
      "type": "function"
    },
    {
      "inputs": [],
      "name": "paused",
      "outputs": [
        {
          "internalType": "bool",
          "name": "",
          "type": "bool"
        }
      ],
      "stateMutability": "view",
      "type": "function"
    },
    {
      "inputs": [
        {
          "internalType": "address",
          "name": "creditLineAddress",
          "type": "address"
        },
        {
          "internalType": "uint256",
          "name": "amount",
          "type": "uint256"
        }
      ],
      "name": "pay",
      "outputs": [],
      "stateMutability": "nonpayable",
      "type": "function"
    },
    {
      "inputs": [
        {
          "internalType": "address",
          "name": "creditLineAddress",
          "type": "address"
        },
        {
          "internalType": "uint256",
          "name": "amount",
          "type": "uint256"
        }
      ],
      "name": "payInFull",
      "outputs": [],
      "stateMutability": "nonpayable",
      "type": "function"
    },
    {
      "inputs": [
        {
          "internalType": "address[]",
          "name": "creditLines",
          "type": "address[]"
        },
        {
          "internalType": "uint256[]",
          "name": "amounts",
          "type": "uint256[]"
        }
      ],
      "name": "payMultiple",
      "outputs": [],
      "stateMutability": "nonpayable",
      "type": "function"
    },
    {
      "inputs": [
        {
          "internalType": "address",
          "name": "creditLineAddress",
          "type": "address"
        },
        {
          "internalType": "uint256",
          "name": "originAmount",
          "type": "uint256"
        },
        {
          "internalType": "address",
          "name": "fromToken",
          "type": "address"
        },
        {
          "internalType": "uint256",
          "name": "minTargetAmount",
          "type": "uint256"
        },
        {
          "internalType": "uint256[]",
          "name": "exchangeDistribution",
          "type": "uint256[]"
        }
      ],
      "name": "payWithSwapThroughOneInch",
      "outputs": [],
      "stateMutability": "nonpayable",
      "type": "function"
    },
    {
      "inputs": [
        {
          "internalType": "bytes32",
          "name": "role",
          "type": "bytes32"
        },
        {
          "internalType": "address",
          "name": "account",
          "type": "address"
        }
      ],
      "name": "renounceRole",
      "outputs": [],
      "stateMutability": "nonpayable",
      "type": "function"
    },
    {
      "inputs": [
        {
          "internalType": "bytes32",
          "name": "role",
          "type": "bytes32"
        },
        {
          "internalType": "address",
          "name": "account",
          "type": "address"
        }
      ],
      "name": "revokeRole",
      "outputs": [],
      "stateMutability": "nonpayable",
      "type": "function"
    },
    {
      "inputs": [
        {
          "internalType": "address",
          "name": "to",
          "type": "address"
        },
        {
          "internalType": "uint256",
          "name": "amount",
          "type": "uint256"
        }
      ],
      "name": "transferUSDC",
      "outputs": [],
      "stateMutability": "nonpayable",
      "type": "function"
    },
    {
      "inputs": [],
      "name": "trustedForwarder",
      "outputs": [
        {
          "internalType": "address",
          "name": "",
          "type": "address"
        }
      ],
      "stateMutability": "view",
      "type": "function"
    },
    {
      "inputs": [],
      "name": "unpause",
      "outputs": [],
      "stateMutability": "nonpayable",
      "type": "function"
    },
    {
      "inputs": [],
      "name": "versionRecipient",
      "outputs": [
        {
          "internalType": "string",
          "name": "",
          "type": "string"
        }
      ],
      "stateMutability": "view",
      "type": "function"
    }
  ],
  "transactionHash": "0x800cd707f7bd99f154fa0b6a26ca763ed9765c55d0ffb871b51098e405578c93",
  "args": [],
  "solcInputHash": "182208430cce5986c995897f9af03e7f",
  "bytecode": "0x608060405234801561001057600080fd5b50612b30806100206000396000f3fe608060405234801561001057600080fd5b50600436106101b95760003560e01c80637da0a877116100f9578063c407687611610097578063d547741f11610071578063d547741f1461034f578063e58378bb14610362578063e63ab1e91461036a578063f7aaaf3f14610372576101b9565b8063c407687614610316578063c8bc38ae14610329578063ca15c8731461033c576101b9565b80639010d07c116100d35780639010d07c146102e057806391d14854146102f3578063a217fddf14610306578063b6db75a01461030e576101b9565b80637da0a877146102bd5780638456cb59146102c55780638b032c64146102cd576101b9565b8063485cc95511610166578063572b6c0511610140578063572b6c051461026d5780635c975abb1461028d5780635e3e9fad1461029557806379502c55146102a8576101b9565b8063485cc9551461023d578063486ff0cd14610250578063526d81f614610265576101b9565b80632f2ff15d116101975780632f2ff15d1461020f57806336568abe146102225780633f4ba83a14610235576101b9565b8063097616a3146101be578063248a9ca3146101d357806328683f3f146101fc575b600080fd5b6101d16101cc3660046121a3565b610385565b005b6101e66101e13660046123dd565b610543565b6040516101f3919061257a565b60405180910390f35b6101d161020a366004612286565b610558565b6101d161021d3660046123f5565b610793565b6101d16102303660046123f5565b6107d7565b6101d1610833565b6101d161024b3660046121e2565b610885565b610258610d52565b6040516101f39190612583565b6101d1610d8a565b61028061027b3660046121a3565b610e33565b6040516101f3919061256f565b610280610e55565b6101d16102a3366004612245565b610e5e565b6102b0610f5b565b6040516101f3919061246e565b6102b0610f78565b6101d1610f95565b6101d16102db36600461221a565b610fe5565b6102b06102ee366004612419565b61120d565b6102806103013660046123f5565b61122e565b6101e6611246565b61028061124b565b6101d161032436600461221a565b61127e565b6101d16103373660046122fa565b611410565b6101e661034a3660046123dd565b61163d565b6101d161035d3660046123f5565b611654565b6101e661168e565b6101e66116b2565b6101d161038036600461221a565b6116d6565b600054610100900460ff168061039e575061039e6117cb565b806103ac575060005460ff16155b6103d15760405162461bcd60e51b81526004016103c890612913565b60405180910390fd5b600054610100900460ff1615801561041a57600080547fffffffffffffffffffffffffffffffffffffffffffffffffffffffffffffff0061ff0019909116610100171660011790555b73ffffffffffffffffffffffffffffffffffffffff821661044d5760405162461bcd60e51b81526004016103c89061284a565b6104556117d1565b61045d611870565b610465611938565b61048f7fb19546dff01e856fb3f010c267a7b1c60363cf8a4664e21cc89c26224620214e836107cd565b6104b97f65d7a28e3265b37a6474929f336521b332c1681b933f6cb9f3376673440d862a836107cd565b6105037f65d7a28e3265b37a6474929f336521b332c1681b933f6cb9f3376673440d862a7fb19546dff01e856fb3f010c267a7b1c60363cf8a4664e21cc89c26224620214e611a03565b61052d7fb19546dff01e856fb3f010c267a7b1c60363cf8a4664e21cc89c26224620214e80611a03565b801561053f576000805461ff00191690555b5050565b60009081526065602052604090206002015490565b61056061124b565b61057c5760405162461bcd60e51b81526004016103c8906129a7565b6060610586611a18565b308660405160240161059a9392919061248f565b604080517fffffffffffffffffffffffffffffffffffffffffffffffffffffffffffffffe08184030181529190526020810180517bffffffffffffffffffffffffffffffffffffffffffffffffffffffff167f23b872dd00000000000000000000000000000000000000000000000000000000179052905061061c8482611a22565b506101c4546000906106439073ffffffffffffffffffffffffffffffffffffffff16611ad8565b90506106528582888787611ae3565b6040517f70a0823100000000000000000000000000000000000000000000000000000000815260009073ffffffffffffffffffffffffffffffffffffffff8316906370a08231906106a790309060040161246e565b60206040518083038186803b1580156106bf57600080fd5b505afa1580156106d3573d6000803e3d6000fd5b505050506040513d601f19601f820116820180604052508101906106f7919061243a565b6101c45490915061071d9073ffffffffffffffffffffffffffffffffffffffff16611ba7565b73ffffffffffffffffffffffffffffffffffffffff1663c407687689836040518363ffffffff1660e01b8152600401610757929190612549565b600060405180830381600087803b15801561077157600080fd5b505af1158015610785573d6000803e3d6000fd5b505050505050505050505050565b6000828152606560205260409020600201546107b190610301611a18565b6107cd5760405162461bcd60e51b81526004016103c890612631565b61053f8282611bb2565b6107df611a18565b73ffffffffffffffffffffffffffffffffffffffff168173ffffffffffffffffffffffffffffffffffffffff16146108295760405162461bcd60e51b81526004016103c890612a04565b61053f8282611c35565b61085f7f65d7a28e3265b37a6474929f336521b332c1681b933f6cb9f3376673440d862a610301611a18565b61087b5760405162461bcd60e51b81526004016103c8906126c5565b610883611cb8565b565b600054610100900460ff168061089e575061089e6117cb565b806108ac575060005460ff16155b6108c85760405162461bcd60e51b81526004016103c890612913565b600054610100900460ff1615801561091157600080547fffffffffffffffffffffffffffffffffffffffffffffffffffffffffffffff0061ff0019909116610100171660011790555b73ffffffffffffffffffffffffffffffffffffffff83166109445760405162461bcd60e51b81526004016103c89061287f565b61094d83610385565b6101c480547fffffffffffffffffffffffff00000000000000000000000000000000000000001673ffffffffffffffffffffffffffffffffffffffff848116919091179182905561099e9116611d42565b6101c380547fffffffffffffffffffffffff00000000000000000000000000000000000000001673ffffffffffffffffffffffffffffffffffffffff9283161790556101c4546000916109f19116611dcf565b6101c454909150600090610a1a9073ffffffffffffffffffffffffffffffffffffffff16611ad8565b6101c45490915073ffffffffffffffffffffffffffffffffffffffff8083169163095ea7b391610a4a9116611df4565b7fffffffffffffffffffffffffffffffffffffffffffffffffffffffffffffffff6040518363ffffffff1660e01b8152600401610a88929190612549565b602060405180830381600087803b158015610aa257600080fd5b505af1158015610ab6573d6000803e3d6000fd5b505050506040513d601f19601f82011682018060405250810190610ada91906123bd565b506040517f095ea7b300000000000000000000000000000000000000000000000000000000815273ffffffffffffffffffffffffffffffffffffffff82169063095ea7b390610b4f9085907fffffffffffffffffffffffffffffffffffffffffffffffffffffffffffffffff90600401612549565b602060405180830381600087803b158015610b6957600080fd5b505af1158015610b7d573d6000803e3d6000fd5b505050506040513d601f19601f82011682018060405250810190610ba191906123bd565b506060827fffffffffffffffffffffffffffffffffffffffffffffffffffffffffffffffff604051602401610bd7929190612549565b604080517fffffffffffffffffffffffffffffffffffffffffffffffffffffffffffffffe08184030181529190526020810180517bffffffffffffffffffffffffffffffffffffffffffffffffffffffff167f095ea7b3000000000000000000000000000000000000000000000000000000001790529050610c6d73dac17f958d2ee523a2206206994597c13d831ec782611a22565b50827fffffffffffffffffffffffffffffffffffffffffffffffffffffffffffffffff604051602401610ca1929190612549565b604080517fffffffffffffffffffffffffffffffffffffffffffffffffffffffffffffffe08184030181529190526020810180517bffffffffffffffffffffffffffffffffffffffffffffffffffffffff167f095ea7b3000000000000000000000000000000000000000000000000000000001790529050610d37734fabb145d64652a948d72533023f6e7a623c7c5382611a22565b505050508015610d4d576000805461ff00191690555b505050565b60408051808201909152600581527f322e302e3000000000000000000000000000000000000000000000000000000060208201525b90565b600054610100900460ff1680610da35750610da36117cb565b80610db1575060005460ff16155b610dcd5760405162461bcd60e51b81526004016103c890612913565b600054610100900460ff16158015610e1657600080547fffffffffffffffffffffffffffffffffffffffffffffffffffffffffffffff0061ff0019909116610100171660011790555b610e1e611870565b8015610e30576000805461ff00191690555b50565b6101c35473ffffffffffffffffffffffffffffffffffffffff90811691161490565b60975460ff1690565b610e6661124b565b610e825760405162461bcd60e51b81526004016103c8906129a7565b6101c454610ea59073ffffffffffffffffffffffffffffffffffffffff16611ba7565b73ffffffffffffffffffffffffffffffffffffffff16636acab9da84846040518363ffffffff1660e01b8152600401610edf929190612549565b600060405180830381600087803b158015610ef957600080fd5b505af1158015610f0d573d6000803e3d6000fd5b5050505073ffffffffffffffffffffffffffffffffffffffff811615801590610f4c575073ffffffffffffffffffffffffffffffffffffffff81163014155b15610d4d57610d4d81836116d6565b6101c45473ffffffffffffffffffffffffffffffffffffffff1681565b6101c35473ffffffffffffffffffffffffffffffffffffffff1681565b610fc17f65d7a28e3265b37a6474929f336521b332c1681b933f6cb9f3376673440d862a610301611a18565b610fdd5760405162461bcd60e51b81526004016103c8906126c5565b610883611e18565b610fed61124b565b6110095760405162461bcd60e51b81526004016103c8906129a7565b6101c45460009061102f9073ffffffffffffffffffffffffffffffffffffffff16611ad8565b73ffffffffffffffffffffffffffffffffffffffff166323b872dd611052611a18565b85856040518463ffffffff1660e01b81526004016110729392919061248f565b602060405180830381600087803b15801561108c57600080fd5b505af11580156110a0573d6000803e3d6000fd5b505050506040513d601f19601f820116820180604052508101906110c491906123bd565b9050806110e35760405162461bcd60e51b81526004016103c890612970565b6101c4546111069073ffffffffffffffffffffffffffffffffffffffff16611ba7565b73ffffffffffffffffffffffffffffffffffffffff16632e0c6cfe84846040518363ffffffff1660e01b8152600401611140929190612549565b600060405180830381600087803b15801561115a57600080fd5b505af115801561116e573d6000803e3d6000fd5b505050508273ffffffffffffffffffffffffffffffffffffffff1663b69ef8a86040518163ffffffff1660e01b815260040160206040518083038186803b1580156111b857600080fd5b505afa1580156111cc573d6000803e3d6000fd5b505050506040513d601f19601f820116820180604052508101906111f0919061243a565b15610d4d5760405162461bcd60e51b81526004016103c8906128b6565b60008281526065602052604081206112259083611e8f565b90505b92915050565b60008281526065602052604081206112259083611e9b565b600081565b60006112797fb19546dff01e856fb3f010c267a7b1c60363cf8a4664e21cc89c26224620214e610301611a18565b905090565b61128661124b565b6112a25760405162461bcd60e51b81526004016103c8906129a7565b6101c4546000906112c89073ffffffffffffffffffffffffffffffffffffffff16611ad8565b73ffffffffffffffffffffffffffffffffffffffff166323b872dd6112eb611a18565b30856040518463ffffffff1660e01b815260040161130b9392919061248f565b602060405180830381600087803b15801561132557600080fd5b505af1158015611339573d6000803e3d6000fd5b505050506040513d601f19601f8201168201806040525081019061135d91906123bd565b90508061137c5760405162461bcd60e51b81526004016103c890612970565b6101c45461139f9073ffffffffffffffffffffffffffffffffffffffff16611ba7565b73ffffffffffffffffffffffffffffffffffffffff1663c407687684846040518363ffffffff1660e01b81526004016113d9929190612549565b600060405180830381600087803b1580156113f357600080fd5b505af1158015611407573d6000803e3d6000fd5b50505050505050565b61141861124b565b6114345760405162461bcd60e51b81526004016103c8906129a7565b80518251146114555760405162461bcd60e51b81526004016103c890612722565b6000805b82518110156114875782818151811061146e57fe5b6020026020010151820191508080600101915050611459565b506101c4546000906114ae9073ffffffffffffffffffffffffffffffffffffffff16611ad8565b73ffffffffffffffffffffffffffffffffffffffff166323b872dd6114d1611a18565b30856040518463ffffffff1660e01b81526004016114f19392919061248f565b602060405180830381600087803b15801561150b57600080fd5b505af115801561151f573d6000803e3d6000fd5b505050506040513d601f19601f8201168201806040525081019061154391906123bd565b9050806115625760405162461bcd60e51b81526004016103c890612970565b6101c4546000906115889073ffffffffffffffffffffffffffffffffffffffff16611ba7565b905060005b8451811015611635578173ffffffffffffffffffffffffffffffffffffffff1663c40768768783815181106115be57fe5b60200260200101518784815181106115d257fe5b60200260200101516040518363ffffffff1660e01b81526004016115f7929190612549565b600060405180830381600087803b15801561161157600080fd5b505af1158015611625573d6000803e3d6000fd5b50506001909201915061158d9050565b505050505050565b600081815260656020526040812061122890611ebd565b60008281526065602052604090206002015461167290610301611a18565b6108295760405162461bcd60e51b81526004016103c8906127b6565b7fb19546dff01e856fb3f010c267a7b1c60363cf8a4664e21cc89c26224620214e81565b7f65d7a28e3265b37a6474929f336521b332c1681b933f6cb9f3376673440d862a81565b6116de61124b565b6116fa5760405162461bcd60e51b81526004016103c8906129a7565b6101c4546000906117209073ffffffffffffffffffffffffffffffffffffffff16611ad8565b73ffffffffffffffffffffffffffffffffffffffff1663a9059cbb84846040518363ffffffff1660e01b815260040161175a929190612549565b602060405180830381600087803b15801561177457600080fd5b505af1158015611788573d6000803e3d6000fd5b505050506040513d601f19601f820116820180604052508101906117ac91906123bd565b905080610d4d5760405162461bcd60e51b81526004016103c890612970565b303b1590565b600054610100900460ff16806117ea57506117ea6117cb565b806117f8575060005460ff16155b6118145760405162461bcd60e51b81526004016103c890612913565b600054610100900460ff16158015610e1e57600080547fffffffffffffffffffffffffffffffffffffffffffffffffffffffffffffff0061ff0019909116610100171660011790558015610e30576000805461ff001916905550565b600054610100900460ff168061188957506118896117cb565b80611897575060005460ff16155b6118b35760405162461bcd60e51b81526004016103c890612913565b600054610100900460ff161580156118fc57600080547fffffffffffffffffffffffffffffffffffffffffffffffffffffffffffffff0061ff0019909116610100171660011790555b609780547fffffffffffffffffffffffffffffffffffffffffffffffffffffffffffffff001690558015610e30576000805461ff001916905550565b600054610100900460ff168061195157506119516117cb565b8061195f575060005460ff16155b61197b5760405162461bcd60e51b81526004016103c890612913565b600054610100900460ff161580156119c457600080547fffffffffffffffffffffffffffffffffffffffffffffffffffffffffffffff0061ff0019909116610100171660011790555b60c980547fffffffffffffffffffffffffffffffffffffffffffffffffffffffffffffff001660011790558015610e30576000805461ff001916905550565b60009182526065602052604090912060020155565b6000611279611ec8565b6060600060608473ffffffffffffffffffffffffffffffffffffffff1684604051611a4d9190612452565b6000604051808303816000865af19150503d8060008114611a8a576040519150601f19603f3d011682016040523d82523d6000602084013e611a8f565b606091505b50909250905081158015611aa4575060008151115b15611ab3573d6000803e3d6000fd5b81611ad05760405162461bcd60e51b81526004016103c89061277f565b949350505050565b600061122882611f18565b606085858585856000604051602401611b01969594939291906124c0565b604080517fffffffffffffffffffffffffffffffffffffffffffffffffffffffffffffffe08184030181529190526020810180517bffffffffffffffffffffffffffffffffffffffffffffffffffffffff167fe2a7515e000000000000000000000000000000000000000000000000000000001790526101c45490915061140790611ba19073ffffffffffffffffffffffffffffffffffffffff16611dcf565b82611a22565b600061122882611f3d565b6000828152606560205260409020611bca9082611f62565b1561053f57611bd7611a18565b73ffffffffffffffffffffffffffffffffffffffff168173ffffffffffffffffffffffffffffffffffffffff16837f2f8788117e7eff1d82e926ec794901d17c78024a50270940304540a733656f0d60405160405180910390a45050565b6000828152606560205260409020611c4d9082611f84565b1561053f57611c5a611a18565b73ffffffffffffffffffffffffffffffffffffffff168173ffffffffffffffffffffffffffffffffffffffff16837ff6391f5c32d9c69d2a47ea670b442974b53935d1edc7fd64eb21e047a839171b60405160405180910390a45050565b60975460ff16611cda5760405162461bcd60e51b81526004016103c89061268e565b609780547fffffffffffffffffffffffffffffffffffffffffffffffffffffffffffffff001690557f5db9ee0a495bf2e6ff9c91a7834c1ba4fdd244a5e8aa4e537bd38aeae4b073aa611d2b611a18565b604051611d38919061246e565b60405180910390a1565b600073ffffffffffffffffffffffffffffffffffffffff821663b93f9b0a60095b6040518263ffffffff1660e01b8152600401611d7f919061257a565b60206040518083038186803b158015611d9757600080fd5b505afa158015611dab573d6000803e3d6000fd5b505050506040513d601f19601f8201168201806040525081019061122891906121c6565b600073ffffffffffffffffffffffffffffffffffffffff821663b93f9b0a6008611d63565b600073ffffffffffffffffffffffffffffffffffffffff821663b93f9b0a82611d63565b60975460ff1615611e3b5760405162461bcd60e51b81526004016103c890612813565b609780547fffffffffffffffffffffffffffffffffffffffffffffffffffffffffffffff001660011790557f62e78cea01bee320cd4e420270b5ea74000d11b0c9f74754ebdbfc544b05a258611d2b611a18565b60006112258383611fa6565b60006112258373ffffffffffffffffffffffffffffffffffffffff8416611feb565b600061122882612003565b600060183610801590611edf5750611edf33610e33565b15611f1157507fffffffffffffffffffffffffffffffffffffffffffffffffffffffffffffffec36013560601c610d87565b5033610d87565b600073ffffffffffffffffffffffffffffffffffffffff821663b93f9b0a6005611d63565b600073ffffffffffffffffffffffffffffffffffffffff821663b93f9b0a6003611d63565b60006112258373ffffffffffffffffffffffffffffffffffffffff8416612007565b60006112258373ffffffffffffffffffffffffffffffffffffffff8416612051565b81546000908210611fc95760405162461bcd60e51b81526004016103c8906125d4565b826000018281548110611fd857fe5b9060005260206000200154905092915050565b60009081526001919091016020526040902054151590565b5490565b60006120138383611feb565b61204957508154600181810184556000848152602080822090930184905584548482528286019093526040902091909155611228565b506000611228565b6000818152600183016020526040812054801561212b5783547fffffffffffffffffffffffffffffffffffffffffffffffffffffffffffffffff80830191908101906000908790839081106120a257fe5b90600052602060002001549050808760000184815481106120bf57fe5b6000918252602080832090910192909255828152600189810190925260409020908401905586548790806120ef57fe5b60019003818190600052602060002001600090559055866001016000878152602001908152602001600020600090556001945050505050611228565b6000915050611228565b600082601f830112612145578081fd5b813561215861215382612a88565b612a61565b81815291506020808301908481018184028601820187101561217957600080fd5b60005b848110156121985781358452928201929082019060010161217c565b505050505092915050565b6000602082840312156121b4578081fd5b81356121bf81612ad8565b9392505050565b6000602082840312156121d7578081fd5b81516121bf81612ad8565b600080604083850312156121f4578081fd5b82356121ff81612ad8565b9150602083013561220f81612ad8565b809150509250929050565b6000806040838503121561222c578182fd5b823561223781612ad8565b946020939093013593505050565b600080600060608486031215612259578081fd5b833561226481612ad8565b925060208401359150604084013561227b81612ad8565b809150509250925092565b600080600080600060a0868803121561229d578081fd5b85356122a881612ad8565b94506020860135935060408601356122bf81612ad8565b925060608601359150608086013567ffffffffffffffff8111156122e1578182fd5b6122ed88828901612135565b9150509295509295909350565b6000806040838503121561230c578182fd5b823567ffffffffffffffff80821115612323578384fd5b818501915085601f830112612336578384fd5b813561234461215382612a88565b80828252602080830192508086018a828387028901011115612364578889fd5b8896505b8487101561238f57803561237b81612ad8565b845260019690960195928101928101612368565b5090965087013593505050808211156123a6578283fd5b506123b385828601612135565b9150509250929050565b6000602082840312156123ce578081fd5b815180151581146121bf578182fd5b6000602082840312156123ee578081fd5b5035919050565b60008060408385031215612407578182fd5b82359150602083013561220f81612ad8565b6000806040838503121561242b578182fd5b50508035926020909101359150565b60006020828403121561244b578081fd5b5051919050565b60008251612464818460208701612aa8565b9190910192915050565b73ffffffffffffffffffffffffffffffffffffffff91909116815260200190565b73ffffffffffffffffffffffffffffffffffffffff9384168152919092166020820152604081019190915260600190565b600060c0820173ffffffffffffffffffffffffffffffffffffffff808a1684526020818a168186015288604086015287606086015260c06080860152829150865180845260e0860192508188019350845b8181101561252d57845184529382019392820192600101612511565b505050809250505060ff831660a0830152979650505050505050565b73ffffffffffffffffffffffffffffffffffffffff929092168252602082015260400190565b901515815260200190565b90815260200190565b60006020825282518060208401526125a2816040850160208701612aa8565b601f017fffffffffffffffffffffffffffffffffffffffffffffffffffffffffffffffe0169190910160400192915050565b60208082526022908201527f456e756d657261626c655365743a20696e646578206f7574206f6620626f756e60408201527f6473000000000000000000000000000000000000000000000000000000000000606082015260800190565b6020808252602f908201527f416363657373436f6e74726f6c3a2073656e646572206d75737420626520616e60408201527f2061646d696e20746f206772616e740000000000000000000000000000000000606082015260800190565b60208082526014908201527f5061757361626c653a206e6f7420706175736564000000000000000000000000604082015260600190565b6020808252602c908201527f4d75737420686176652070617573657220726f6c6520746f20706572666f726d60408201527f207468697320616374696f6e0000000000000000000000000000000000000000606082015260800190565b6020808252602f908201527f4372656469746c696e657320616e6420616d6f756e7473206d7573742062652060408201527f7468652073616d65206c656e6774680000000000000000000000000000000000606082015260800190565b6020808252601a908201527f564d3a2077616c6c657420696e766f6b65207265766572746564000000000000604082015260600190565b60208082526030908201527f416363657373436f6e74726f6c3a2073656e646572206d75737420626520616e60408201527f2061646d696e20746f207265766f6b6500000000000000000000000000000000606082015260800190565b60208082526010908201527f5061757361626c653a2070617573656400000000000000000000000000000000604082015260600190565b6020808252818101527f4f776e65722063616e6e6f7420626520746865207a65726f2061646472657373604082015260600190565b60208082526015908201527f4f776e65722063616e6e6f7420626520656d7074790000000000000000000000604082015260600190565b60208082526022908201527f4661696c656420746f2066756c6c7920706179206f6666206372656469746c6960408201527f6e65000000000000000000000000000000000000000000000000000000000000606082015260800190565b6020808252602e908201527f436f6e747261637420696e7374616e63652068617320616c726561647920626560408201527f656e20696e697469616c697a6564000000000000000000000000000000000000606082015260800190565b60208082526017908201527f4661696c656420746f207472616e736665722055534443000000000000000000604082015260600190565b6020808252602b908201527f4d75737420686176652061646d696e20726f6c6520746f20706572666f726d2060408201527f7468697320616374696f6e000000000000000000000000000000000000000000606082015260800190565b6020808252602f908201527f416363657373436f6e74726f6c3a2063616e206f6e6c792072656e6f756e636560408201527f20726f6c657320666f722073656c660000000000000000000000000000000000606082015260800190565b60405181810167ffffffffffffffff81118282101715612a8057600080fd5b604052919050565b600067ffffffffffffffff821115612a9e578081fd5b5060209081020190565b60005b83811015612ac3578181015183820152602001612aab565b83811115612ad2576000848401525b50505050565b73ffffffffffffffffffffffffffffffffffffffff81168114610e3057600080fdfea2646970667358221220d34c03cf8d8d4a2c7908cf1901836644e3fd4b6b2d3f0c942f02561c47fd1f5664736f6c634300060c0033",
  "devdoc": {
    "author": "Goldfinch",
    "kind": "dev",
    "methods": {
      "drawdown(address,uint256,address)": {
        "params": {
          "addressToSendTo": "The address where they would like the funds sent. If the zero address is passed,  it will be defaulted to the contracts address (msg.sender). This is a convenience feature for when they would  like the funds sent to an exchange or alternate wallet, different from the authentication address",
          "amount": "The amount, in USDC atomic units, that a borrower wishes to drawdown",
          "creditLineAddress": "The creditline from which they would like to drawdown"
        }
      },
      "getRoleAdmin(bytes32)": {
        "details": "Returns the admin role that controls `role`. See {grantRole} and {revokeRole}. To change a role's admin, use {_setRoleAdmin}."
      },
      "getRoleMember(bytes32,uint256)": {
        "details": "Returns one of the accounts that have `role`. `index` must be a value between 0 and {getRoleMemberCount}, non-inclusive. Role bearers are not sorted in any particular way, and their ordering may change at any point. WARNING: When using {getRoleMember} and {getRoleMemberCount}, make sure you perform all queries on the same block. See the following https://forum.openzeppelin.com/t/iterating-over-elements-on-enumerableset-in-openzeppelin-contracts/2296[forum post] for more information."
      },
      "getRoleMemberCount(bytes32)": {
        "details": "Returns the number of accounts that have `role`. Can be used together with {getRoleMember} to enumerate all bearers of a role."
      },
      "grantRole(bytes32,address)": {
        "details": "Grants `role` to `account`. If `account` had not been already granted `role`, emits a {RoleGranted} event. Requirements: - the caller must have ``role``'s admin role."
      },
      "hasRole(bytes32,address)": {
        "details": "Returns `true` if `account` has been granted `role`."
      },
      "pause()": {
        "details": "Pauses all functions guarded by Pause See {Pausable-_pause}. Requirements: - the caller must have the PAUSER_ROLE."
      },
      "paused()": {
        "details": "Returns true if the contract is paused, and false otherwise."
      },
      "pay(address,uint256)": {
        "params": {
          "amount": "The amount, in USDC atomic units, that the borrower wishes to pay",
          "creditLineAddress": "The credit line to be paid back"
        }
      },
      "renounceRole(bytes32,address)": {
        "details": "Revokes `role` from the calling account. Roles are often managed via {grantRole} and {revokeRole}: this function's purpose is to provide a mechanism for accounts to lose their privileges if they are compromised (such as when a trusted device is misplaced). If the calling account had been granted `role`, emits a {RoleRevoked} event. Requirements: - the caller must be `account`."
      },
      "revokeRole(bytes32,address)": {
        "details": "Revokes `role` from `account`. If `account` had been granted `role`, emits a {RoleRevoked} event. Requirements: - the caller must have ``role``'s admin role."
      },
      "unpause()": {
        "details": "Unpauses the contract See {Pausable-_unpause}. Requirements: - the caller must have the Pauser role"
      }
    },
    "title": "Goldfinch's Borrower contract",
    "version": 1
  },
  "userdoc": {
    "kind": "user",
    "methods": {
      "drawdown(address,uint256,address)": {
        "notice": "Allows a borrower to drawdown on their creditline through the CreditDesk."
      },
      "isTrustedForwarder(address)": {
        "notice": "return if the forwarder is trusted to forward relayed transactions to us. the forwarder is required to verify the sender's signature, and verify the call is not a replay."
      },
      "pay(address,uint256)": {
        "notice": "Allows a borrower to payback loans by calling the `pay` function directly on the CreditDesk"
      }
    },
    "notice": "These contracts represent the a convenient way for a borrower to interact with Goldfinch  They are 100% optional. However, they let us add many sophisticated and convient features for borrowers  while still keeping our core protocol small and secure. We therefore expect most borrowers will use them.  This contract is the \"official\" borrower contract that will be maintained by Goldfinch governance. However,  in theory, anyone can fork or create their own version, or not use any contract at all. The core functionality  is completely agnostic to whether it is interacting with a contract or an externally owned account (EOA).",
    "version": 1
  },
  "storageLayout": {
    "storage": [
      {
        "astId": 151,
        "contract": "contracts/protocol/periphery/Borrower.sol:Borrower",
        "label": "initialized",
        "offset": 0,
        "slot": "0",
        "type": "t_bool"
      },
      {
        "astId": 154,
        "contract": "contracts/protocol/periphery/Borrower.sol:Borrower",
        "label": "initializing",
        "offset": 1,
        "slot": "0",
        "type": "t_bool"
      },
      {
        "astId": 219,
        "contract": "contracts/protocol/periphery/Borrower.sol:Borrower",
        "label": "______gap",
        "offset": 0,
        "slot": "1",
        "type": "t_array(t_uint256)50_storage"
      },
      {
        "astId": 144,
        "contract": "contracts/protocol/periphery/Borrower.sol:Borrower",
        "label": "__gap",
        "offset": 0,
        "slot": "51",
        "type": "t_array(t_uint256)50_storage"
      },
      {
        "astId": 264,
        "contract": "contracts/protocol/periphery/Borrower.sol:Borrower",
        "label": "_roles",
        "offset": 0,
        "slot": "101",
        "type": "t_mapping(t_bytes32,t_struct(RoleData)260_storage)"
      },
      {
        "astId": 509,
        "contract": "contracts/protocol/periphery/Borrower.sol:Borrower",
        "label": "__gap",
        "offset": 0,
        "slot": "102",
        "type": "t_array(t_uint256)49_storage"
      },
      {
        "astId": 2385,
        "contract": "contracts/protocol/periphery/Borrower.sol:Borrower",
        "label": "_paused",
        "offset": 0,
        "slot": "151",
        "type": "t_bool"
      },
      {
        "astId": 2474,
        "contract": "contracts/protocol/periphery/Borrower.sol:Borrower",
        "label": "__gap",
        "offset": 0,
        "slot": "152",
        "type": "t_array(t_uint256)49_storage"
      },
      {
        "astId": 2483,
        "contract": "contracts/protocol/periphery/Borrower.sol:Borrower",
        "label": "_notEntered",
        "offset": 0,
        "slot": "201",
        "type": "t_bool"
      },
      {
        "astId": 2524,
        "contract": "contracts/protocol/periphery/Borrower.sol:Borrower",
        "label": "__gap",
        "offset": 0,
        "slot": "202",
        "type": "t_array(t_uint256)49_storage"
      },
      {
        "astId": 4742,
        "contract": "contracts/protocol/periphery/Borrower.sol:Borrower",
        "label": "__gap1",
        "offset": 0,
        "slot": "251",
        "type": "t_array(t_uint256)50_storage"
      },
      {
        "astId": 4746,
        "contract": "contracts/protocol/periphery/Borrower.sol:Borrower",
        "label": "__gap2",
        "offset": 0,
        "slot": "301",
        "type": "t_array(t_uint256)50_storage"
      },
      {
        "astId": 4750,
        "contract": "contracts/protocol/periphery/Borrower.sol:Borrower",
        "label": "__gap3",
        "offset": 0,
        "slot": "351",
        "type": "t_array(t_uint256)50_storage"
      },
      {
        "astId": 4754,
        "contract": "contracts/protocol/periphery/Borrower.sol:Borrower",
        "label": "__gap4",
        "offset": 0,
        "slot": "401",
        "type": "t_array(t_uint256)50_storage"
      },
      {
        "astId": 7,
        "contract": "contracts/protocol/periphery/Borrower.sol:Borrower",
        "label": "trustedForwarder",
        "offset": 0,
        "slot": "451",
        "type": "t_address"
      },
      {
        "astId": 8898,
        "contract": "contracts/protocol/periphery/Borrower.sol:Borrower",
        "label": "config",
        "offset": 0,
        "slot": "452",
        "type": "t_contract(GoldfinchConfig)8044"
      }
    ],
    "types": {
      "t_address": {
        "encoding": "inplace",
        "label": "address",
        "numberOfBytes": "20"
      },
      "t_array(t_bytes32)dyn_storage": {
        "base": "t_bytes32",
        "encoding": "dynamic_array",
        "label": "bytes32[]",
        "numberOfBytes": "32"
      },
      "t_array(t_uint256)49_storage": {
        "base": "t_uint256",
        "encoding": "inplace",
        "label": "uint256[49]",
        "numberOfBytes": "1568"
      },
      "t_array(t_uint256)50_storage": {
        "base": "t_uint256",
        "encoding": "inplace",
        "label": "uint256[50]",
        "numberOfBytes": "1600"
      },
      "t_bool": {
        "encoding": "inplace",
        "label": "bool",
        "numberOfBytes": "1"
      },
      "t_bytes32": {
        "encoding": "inplace",
        "label": "bytes32",
        "numberOfBytes": "32"
      },
      "t_contract(GoldfinchConfig)8044": {
        "encoding": "inplace",
        "label": "contract GoldfinchConfig",
        "numberOfBytes": "20"
      },
      "t_mapping(t_bytes32,t_struct(RoleData)260_storage)": {
        "encoding": "mapping",
        "key": "t_bytes32",
        "label": "mapping(bytes32 => struct AccessControlUpgradeSafe.RoleData)",
        "numberOfBytes": "32",
        "value": "t_struct(RoleData)260_storage"
      },
      "t_mapping(t_bytes32,t_uint256)": {
        "encoding": "mapping",
        "key": "t_bytes32",
        "label": "mapping(bytes32 => uint256)",
        "numberOfBytes": "32",
        "value": "t_uint256"
      },
      "t_struct(AddressSet)2160_storage": {
        "encoding": "inplace",
        "label": "struct EnumerableSet.AddressSet",
        "members": [
          {
            "astId": 2159,
            "contract": "contracts/protocol/periphery/Borrower.sol:Borrower",
            "label": "_inner",
            "offset": 0,
            "slot": "0",
            "type": "t_struct(Set)1980_storage"
          }
        ],
        "numberOfBytes": "64"
      },
      "t_struct(RoleData)260_storage": {
        "encoding": "inplace",
        "label": "struct AccessControlUpgradeSafe.RoleData",
        "members": [
          {
            "astId": 257,
            "contract": "contracts/protocol/periphery/Borrower.sol:Borrower",
            "label": "members",
            "offset": 0,
            "slot": "0",
            "type": "t_struct(AddressSet)2160_storage"
          },
          {
            "astId": 259,
            "contract": "contracts/protocol/periphery/Borrower.sol:Borrower",
            "label": "adminRole",
            "offset": 0,
            "slot": "2",
            "type": "t_bytes32"
          }
        ],
        "numberOfBytes": "96"
      },
      "t_struct(Set)1980_storage": {
        "encoding": "inplace",
        "label": "struct EnumerableSet.Set",
        "members": [
          {
            "astId": 1975,
            "contract": "contracts/protocol/periphery/Borrower.sol:Borrower",
            "label": "_values",
            "offset": 0,
            "slot": "0",
            "type": "t_array(t_bytes32)dyn_storage"
          },
          {
            "astId": 1979,
            "contract": "contracts/protocol/periphery/Borrower.sol:Borrower",
            "label": "_indexes",
            "offset": 0,
            "slot": "1",
            "type": "t_mapping(t_bytes32,t_uint256)"
          }
        ],
        "numberOfBytes": "64"
      },
      "t_uint256": {
        "encoding": "inplace",
        "label": "uint256",
        "numberOfBytes": "32"
      }
    }
  }
}