{
  "abi": [
    {
      "inputs": [
        {
          "internalType": "uint256",
          "name": "addressKey",
          "type": "uint256"
        }
      ],
      "name": "getAddressName",
      "outputs": [
        {
          "internalType": "string",
          "name": "",
          "type": "string"
        }
      ],
      "stateMutability": "pure",
      "type": "function"
    },
    {
      "inputs": [
        {
          "internalType": "uint256",
          "name": "number",
          "type": "uint256"
        }
      ],
      "name": "getNumberName",
      "outputs": [
        {
          "internalType": "string",
          "name": "",
          "type": "string"
        }
      ],
      "stateMutability": "pure",
      "type": "function"
    }
  ],
  "address": "0xc806594acCc6265bA8b8832b237c22C2473B8b85",
  "args": [],
  "solcInputHash": "0x61965cc0b5abb55abef9f7574b76c9051fc488b5a6cbd46c33e8f9d520f338be",
  "bytecode": "0x6105d0610026600b82828239805160001a60731461001957fe5b30600052607381538281f3fe73000000000000000000000000000000000000000030146080604052600436106100405760003560e01c80631eb7045f146100455780636152a028146100d7575b600080fd5b6100626004803603602081101561005b57600080fd5b50356100f4565b6040805160208082528351818301528351919283929083019185019080838360005b8381101561009c578181015183820152602001610084565b50505050905090810190601f1680156100c95780820380516001836020036101000a031916815260200191505b509250505060405180910390f35b610062600480360360208110156100ed57600080fd5b503561032e565b6060600082600781111561010457fe5b905080600781111561011257fe5b610138575050604080518082019091526004815263141bdbdb60e21b6020820152610329565b80600781111561014457fe5b6001141561018757505060408051808201909152601881527f4372656469744c696e65496d706c656d656e746174696f6e00000000000000006020820152610329565b80600781111561019357fe5b600214156101ca5750506040805180820190915260118152704372656469744c696e65466163746f727960781b6020820152610329565b8060078111156101d657fe5b6003141561020657505060408051808201909152600a8152694372656469744465736b60b01b6020820152610329565b80600781111561021257fe5b6004141561023c5750506040805180820190915260048152634669647560e01b6020820152610329565b80600781111561024857fe5b600514156102725750506040805180820190915260048152635553444360e01b6020820152610329565b80600781111561027e57fe5b600614156102b357505060408051808201909152600f81526e54726561737572795265736572766560881b6020820152610329565b8060078111156102bf57fe5b600714156102f257505060408051808201909152600d81526c283937ba37b1b7b620b236b4b760991b6020820152610329565b60405162461bcd60e51b81526004018080602001828103825260268152602001806105506026913960400191505060405180910390fd5b919050565b6060600082600681111561033e57fe5b905080600681111561034c57fe5b61037e57505060408051808201909152601081526f151c985b9cd858dd1a5bdb931a5b5a5d60821b6020820152610329565b80600681111561038a57fe5b600114156103bf57505060408051808201909152600f81526e151bdd185b119d5b991cd31a5b5a5d608a1b6020820152610329565b8060068111156103cb57fe5b6002141561040457505060408051808201909152601381527213585e155b99195c9ddc9a5d195c931a5b5a5d606a1b6020820152610329565b80600681111561041057fe5b600314156104485750506040805180820190915260128152712932b9b2b93b32a232b737b6b4b730ba37b960711b6020820152610329565b80600681111561045457fe5b600414156104905750506040805180820190915260168152752bb4ba34323930bba332b2a232b737b6b4b730ba37b960511b6020820152610329565b80600681111561049c57fe5b600514156104d557505060408051808201909152601381527213185d195b995cdcd1dc9858d954195c9a5bd9606a1b6020820152610329565b8060068111156104e157fe5b6006141561051857505060408051808201909152601181527013185d195b995cdcd3585e14195c9a5bd9607a1b6020820152610329565b60405162461bcd60e51b81526004018080602001828103825260258152602001806105766025913960400191505060405180910390fdfe556e6b6e6f776e2076616c75652070617373656420746f20676574416464726573734e616d65556e6b6e6f776e2076616c75652070617373656420746f206765744e756d6265724e616d65a264697066735822122076a3415263166ea305e0d8d30658b9b366167157fe990d0bfc7f1068f7efd6d564736f6c63430006080033",
  "devdoc": {
    "author": "Goldfinch",
    "methods": {},
    "title": "ConfigOptions"
  },
  "userdoc": {
    "methods": {},
    "notice": "A central place for enumerating the configurable options of our GoldfinchConfig contract"
  },
  "storageLayout": {
    "storage": [],
    "types": null
  },
  "gasEstimates": {
    "creation": {
      "codeDepositCost": "297600",
      "executionCost": "362",
      "totalCost": "297962"
    },
    "external": {
      "getAddressName(uint256)": "infinite",
      "getNumberName(uint256)": "infinite"
    }
  }
}