{
  "address": "0x1EcD8779b242474f9Dd2Da08A2faAAcD94A19Bf2",
  "abi": [
    {
      "anonymous": false,
      "inputs": [
        {
          "indexed": true,
          "internalType": "address",
          "name": "borrower",
          "type": "address"
        },
        {
          "indexed": true,
          "internalType": "address",
          "name": "creditLine",
          "type": "address"
        }
      ],
      "name": "CreditLineCreated",
      "type": "event"
    },
    {
      "anonymous": false,
      "inputs": [
        {
          "indexed": true,
          "internalType": "address",
          "name": "borrower",
          "type": "address"
        },
        {
          "indexed": true,
          "internalType": "address",
          "name": "creditLine",
          "type": "address"
        },
        {
          "indexed": false,
          "internalType": "uint256",
          "name": "drawdownAmount",
          "type": "uint256"
        }
      ],
      "name": "DrawdownMade",
      "type": "event"
    },
    {
      "anonymous": false,
      "inputs": [
        {
          "indexed": true,
          "internalType": "address",
          "name": "underwriter",
          "type": "address"
        },
        {
          "indexed": false,
          "internalType": "uint256",
          "name": "newLimit",
          "type": "uint256"
        }
      ],
      "name": "GovernanceUpdatedUnderwriterLimit",
      "type": "event"
    },
    {
      "anonymous": false,
      "inputs": [
        {
          "indexed": false,
          "internalType": "address",
          "name": "account",
          "type": "address"
        }
      ],
      "name": "Paused",
      "type": "event"
    },
    {
      "anonymous": false,
      "inputs": [
        {
          "indexed": true,
          "internalType": "address",
          "name": "payer",
          "type": "address"
        },
        {
          "indexed": true,
          "internalType": "address",
          "name": "creditLine",
          "type": "address"
        },
        {
          "indexed": false,
          "internalType": "uint256",
          "name": "interestAmount",
          "type": "uint256"
        },
        {
          "indexed": false,
          "internalType": "uint256",
          "name": "principalAmount",
          "type": "uint256"
        },
        {
          "indexed": false,
          "internalType": "uint256",
          "name": "remainingAmount",
          "type": "uint256"
        }
      ],
      "name": "PaymentApplied",
      "type": "event"
    },
    {
      "anonymous": false,
      "inputs": [
        {
          "indexed": true,
          "internalType": "address",
          "name": "payer",
          "type": "address"
        },
        {
          "indexed": true,
          "internalType": "address",
          "name": "creditLine",
          "type": "address"
        },
        {
          "indexed": false,
          "internalType": "uint256",
          "name": "paymentAmount",
          "type": "uint256"
        }
      ],
      "name": "PaymentCollected",
      "type": "event"
    },
    {
      "anonymous": false,
      "inputs": [
        {
          "indexed": true,
          "internalType": "bytes32",
          "name": "role",
          "type": "bytes32"
        },
        {
          "indexed": true,
          "internalType": "address",
          "name": "account",
          "type": "address"
        },
        {
          "indexed": true,
          "internalType": "address",
          "name": "sender",
          "type": "address"
        }
      ],
      "name": "RoleGranted",
      "type": "event"
    },
    {
      "anonymous": false,
      "inputs": [
        {
          "indexed": true,
          "internalType": "bytes32",
          "name": "role",
          "type": "bytes32"
        },
        {
          "indexed": true,
          "internalType": "address",
          "name": "account",
          "type": "address"
        },
        {
          "indexed": true,
          "internalType": "address",
          "name": "sender",
          "type": "address"
        }
      ],
      "name": "RoleRevoked",
      "type": "event"
    },
    {
      "anonymous": false,
      "inputs": [
        {
          "indexed": false,
          "internalType": "address",
          "name": "account",
          "type": "address"
        }
      ],
      "name": "Unpaused",
      "type": "event"
    },
    {
      "inputs": [],
      "name": "BLOCKS_PER_DAY",
      "outputs": [
        {
          "internalType": "uint256",
          "name": "",
          "type": "uint256"
        }
      ],
      "stateMutability": "view",
      "type": "function"
    },
    {
      "inputs": [],
      "name": "DEFAULT_ADMIN_ROLE",
      "outputs": [
        {
          "internalType": "bytes32",
          "name": "",
          "type": "bytes32"
        }
      ],
      "stateMutability": "view",
      "type": "function"
    },
    {
      "inputs": [],
      "name": "OWNER_ROLE",
      "outputs": [
        {
          "internalType": "bytes32",
          "name": "",
          "type": "bytes32"
        }
      ],
      "stateMutability": "view",
      "type": "function"
    },
    {
      "inputs": [],
      "name": "PAUSER_ROLE",
      "outputs": [
        {
          "internalType": "bytes32",
          "name": "",
          "type": "bytes32"
        }
      ],
      "stateMutability": "view",
      "type": "function"
    },
    {
      "inputs": [
        {
          "internalType": "address",
          "name": "owner",
          "type": "address"
        }
      ],
      "name": "__BaseUpgradeablePausable__init",
      "outputs": [],
      "stateMutability": "nonpayable",
      "type": "function"
    },
    {
      "inputs": [],
      "name": "__PauserPausable__init",
      "outputs": [],
      "stateMutability": "nonpayable",
      "type": "function"
    },
    {
      "inputs": [
        {
          "internalType": "address",
          "name": "creditLineAddress",
          "type": "address"
        },
        {
          "internalType": "uint256",
          "name": "amount",
          "type": "uint256"
        }
      ],
      "name": "applyPayment",
      "outputs": [],
      "stateMutability": "nonpayable",
      "type": "function"
    },
    {
      "inputs": [
        {
          "internalType": "address",
          "name": "creditLineAddress",
          "type": "address"
        }
      ],
      "name": "assessCreditLine",
      "outputs": [],
      "stateMutability": "nonpayable",
      "type": "function"
    },
    {
      "inputs": [],
      "name": "config",
      "outputs": [
        {
          "internalType": "contract GoldfinchConfig",
          "name": "",
          "type": "address"
        }
      ],
      "stateMutability": "view",
      "type": "function"
    },
    {
      "inputs": [
        {
          "internalType": "address",
          "name": "_borrower",
          "type": "address"
        },
        {
          "internalType": "uint256",
          "name": "_limit",
          "type": "uint256"
        },
        {
          "internalType": "uint256",
          "name": "_interestApr",
          "type": "uint256"
        },
        {
          "internalType": "uint256",
          "name": "_paymentPeriodInDays",
          "type": "uint256"
        },
        {
          "internalType": "uint256",
          "name": "_termInDays",
          "type": "uint256"
        },
        {
          "internalType": "uint256",
          "name": "_lateFeeApr",
          "type": "uint256"
        }
      ],
      "name": "createCreditLine",
      "outputs": [
        {
          "internalType": "address",
          "name": "",
          "type": "address"
        }
      ],
      "stateMutability": "nonpayable",
      "type": "function"
    },
    {
      "inputs": [
        {
          "internalType": "address",
          "name": "creditLineAddress",
          "type": "address"
        },
        {
          "internalType": "uint256",
          "name": "amount",
          "type": "uint256"
        }
      ],
      "name": "drawdown",
      "outputs": [],
      "stateMutability": "nonpayable",
      "type": "function"
    },
    {
      "inputs": [
        {
          "internalType": "address",
          "name": "borrowerAddress",
          "type": "address"
        }
      ],
      "name": "getBorrowerCreditLines",
      "outputs": [
        {
          "internalType": "address[]",
          "name": "",
          "type": "address[]"
        }
      ],
      "stateMutability": "view",
      "type": "function"
    },
    {
      "inputs": [
        {
          "internalType": "address",
          "name": "creditLineAddress",
          "type": "address"
        },
        {
          "internalType": "uint256",
          "name": "asOfBLock",
          "type": "uint256"
        }
      ],
      "name": "getNextPaymentAmount",
      "outputs": [
        {
          "internalType": "uint256",
          "name": "",
          "type": "uint256"
        }
      ],
      "stateMutability": "view",
      "type": "function"
    },
    {
      "inputs": [
        {
          "internalType": "bytes32",
          "name": "role",
          "type": "bytes32"
        }
      ],
      "name": "getRoleAdmin",
      "outputs": [
        {
          "internalType": "bytes32",
          "name": "",
          "type": "bytes32"
        }
      ],
      "stateMutability": "view",
      "type": "function"
    },
    {
      "inputs": [
        {
          "internalType": "bytes32",
          "name": "role",
          "type": "bytes32"
        },
        {
          "internalType": "uint256",
          "name": "index",
          "type": "uint256"
        }
      ],
      "name": "getRoleMember",
      "outputs": [
        {
          "internalType": "address",
          "name": "",
          "type": "address"
        }
      ],
      "stateMutability": "view",
      "type": "function"
    },
    {
      "inputs": [
        {
          "internalType": "bytes32",
          "name": "role",
          "type": "bytes32"
        }
      ],
      "name": "getRoleMemberCount",
      "outputs": [
        {
          "internalType": "uint256",
          "name": "",
          "type": "uint256"
        }
      ],
      "stateMutability": "view",
      "type": "function"
    },
    {
      "inputs": [
        {
          "internalType": "address",
          "name": "underwriterAddress",
          "type": "address"
        }
      ],
      "name": "getUnderwriterCreditLines",
      "outputs": [
        {
          "internalType": "address[]",
          "name": "",
          "type": "address[]"
        }
      ],
      "stateMutability": "view",
      "type": "function"
    },
    {
      "inputs": [
        {
          "internalType": "bytes32",
          "name": "role",
          "type": "bytes32"
        },
        {
          "internalType": "address",
          "name": "account",
          "type": "address"
        }
      ],
      "name": "grantRole",
      "outputs": [],
      "stateMutability": "nonpayable",
      "type": "function"
    },
    {
      "inputs": [
        {
          "internalType": "bytes32",
          "name": "role",
          "type": "bytes32"
        },
        {
          "internalType": "address",
          "name": "account",
          "type": "address"
        }
      ],
      "name": "hasRole",
      "outputs": [
        {
          "internalType": "bool",
          "name": "",
          "type": "bool"
        }
      ],
      "stateMutability": "view",
      "type": "function"
    },
    {
      "inputs": [
        {
          "internalType": "address",
          "name": "owner",
          "type": "address"
        },
        {
          "internalType": "contract GoldfinchConfig",
          "name": "_config",
          "type": "address"
        }
      ],
      "name": "initialize",
      "outputs": [],
      "stateMutability": "nonpayable",
      "type": "function"
    },
    {
      "inputs": [],
      "name": "isAdmin",
      "outputs": [
        {
          "internalType": "bool",
          "name": "",
          "type": "bool"
        }
      ],
      "stateMutability": "view",
      "type": "function"
    },
    {
      "inputs": [
        {
          "internalType": "contract CreditLine",
          "name": "clToMigrate",
          "type": "address"
        },
        {
          "internalType": "address",
          "name": "borrower",
          "type": "address"
        },
        {
          "internalType": "uint256",
          "name": "limit",
          "type": "uint256"
        },
        {
          "internalType": "uint256",
          "name": "interestApr",
          "type": "uint256"
        },
        {
          "internalType": "uint256",
          "name": "paymentPeriodInDays",
          "type": "uint256"
        },
        {
          "internalType": "uint256",
          "name": "termInDays",
          "type": "uint256"
        },
        {
          "internalType": "uint256",
          "name": "lateFeeApr",
          "type": "uint256"
        }
      ],
      "name": "migrateCreditLine",
      "outputs": [],
      "stateMutability": "nonpayable",
      "type": "function"
    },
    {
      "inputs": [],
      "name": "pause",
      "outputs": [],
      "stateMutability": "nonpayable",
      "type": "function"
    },
    {
      "inputs": [],
      "name": "paused",
      "outputs": [
        {
          "internalType": "bool",
          "name": "",
          "type": "bool"
        }
      ],
      "stateMutability": "view",
      "type": "function"
    },
    {
      "inputs": [
        {
          "internalType": "address",
          "name": "creditLineAddress",
          "type": "address"
        },
        {
          "internalType": "uint256",
          "name": "amount",
          "type": "uint256"
        }
      ],
      "name": "pay",
      "outputs": [],
      "stateMutability": "nonpayable",
      "type": "function"
    },
    {
      "inputs": [
        {
          "internalType": "bytes32",
          "name": "role",
          "type": "bytes32"
        },
        {
          "internalType": "address",
          "name": "account",
          "type": "address"
        }
      ],
      "name": "renounceRole",
      "outputs": [],
      "stateMutability": "nonpayable",
      "type": "function"
    },
    {
      "inputs": [
        {
          "internalType": "bytes32",
          "name": "role",
          "type": "bytes32"
        },
        {
          "internalType": "address",
          "name": "account",
          "type": "address"
        }
      ],
      "name": "revokeRole",
      "outputs": [],
      "stateMutability": "nonpayable",
      "type": "function"
    },
    {
      "inputs": [
        {
          "internalType": "address",
          "name": "underwriterAddress",
          "type": "address"
        },
        {
          "internalType": "uint256",
          "name": "limit",
          "type": "uint256"
        }
      ],
      "name": "setUnderwriterGovernanceLimit",
      "outputs": [],
      "stateMutability": "nonpayable",
      "type": "function"
    },
    {
      "inputs": [],
      "name": "totalLoansOutstanding",
      "outputs": [
        {
          "internalType": "uint256",
          "name": "",
          "type": "uint256"
        }
      ],
      "stateMutability": "view",
      "type": "function"
    },
    {
      "inputs": [],
      "name": "totalWritedowns",
      "outputs": [
        {
          "internalType": "uint256",
          "name": "",
          "type": "uint256"
        }
      ],
      "stateMutability": "view",
      "type": "function"
    },
    {
      "inputs": [
        {
          "internalType": "address",
          "name": "",
          "type": "address"
        }
      ],
      "name": "underwriters",
      "outputs": [
        {
          "internalType": "uint256",
          "name": "governanceLimit",
          "type": "uint256"
        }
      ],
      "stateMutability": "view",
      "type": "function"
    },
    {
      "inputs": [],
      "name": "unpause",
      "outputs": [],
      "stateMutability": "nonpayable",
      "type": "function"
    }
  ],
  "transactionHash": "0x76bf8ec96940c40ae16f58c5f02f94e11942090be31e4e9f1b8098e88f9df0f6",
  "args": [],
  "solcInputHash": "182208430cce5986c995897f9af03e7f",
  "bytecode": "0x608060405234801561001057600080fd5b506150e4806100206000396000f3fe608060405234801561001057600080fd5b50600436106101f05760003560e01c80638456cb591161010f578063c26ff936116100a2578063e58378bb11610071578063e58378bb146103e5578063e63ab1e9146103ed578063ed80c850146103f5578063f5c7e0e2146103fd576101f0565b8063c26ff93614610399578063c4076876146103ac578063ca15c873146103bf578063d547741f146103d2576101f0565b806396eea87b116100de57806396eea87b1461036e578063a217fddf14610381578063a6f4487e14610389578063b6db75a014610391576101f0565b80638456cb591461032d5780639010d07c1461033557806391d148541461034857806394a3fcad1461035b576101f0565b8063526d81f6116101875780636bb987fe116101565780636bb987fe146102ea57806379502c55146102f25780637d533642146102fa578063844a28c31461030d576101f0565b8063526d81f61461029a5780635c080853146102a25780635c975abb146102c25780636acab9da146102d7576101f0565b80632f2ff15d116101c35780632f2ff15d1461025957806336568abe1461026c5780633f4ba83a1461027f578063485cc95514610287576101f0565b8063097616a3146101f55780630e4645ef1461020a578063248a9ca31461021d5780632e0c6cfe14610246575b600080fd5b61020861020336600461431c565b610410565b005b61020861021836600461438c565b6105a3565b61023061022b366004614422565b610667565b60405161023d9190614683565b60405180910390f35b61020861025436600461438c565b61067f565b61020861026736600461443a565b61079a565b61020861027a36600461443a565b6107de565b610208610820565b610208610295366004614354565b610872565b610208610934565b6102b56102b03660046143b7565b6109bf565b60405161023d9190614572565b6102ca610cf0565b60405161023d9190614678565b6102086102e536600461438c565b610cf9565b61023061123a565b6102b5611240565b61023061030836600461431c565b611250565b61032061031b36600461431c565b611263565b60405161023d919061462b565b610208611301565b6102b561034336600461445e565b611351565b6102ca61035636600461443a565b611372565b61023061036936600461438c565b61138a565b61020861037c36600461447f565b6115e3565b610230611f82565b610230611f87565b6102ca611f8e565b6103206103a736600461431c565b611fc1565b6102086103ba36600461438c565b61205a565b6102306103cd366004614422565b6120eb565b6102086103e036600461443a565b612102565b61023061213c565b610230612160565b610230612184565b61020861040b36600461431c565b61218b565b600054610100900460ff1680610429575061042961244f565b80610437575060005460ff16155b61045c5760405162461bcd60e51b815260040161045390614da9565b60405180910390fd5b600054610100900460ff16158015610487576000805460ff1961ff0019909116610100171660011790555b6001600160a01b0382166104ad5760405162461bcd60e51b815260040161045390614bc9565b6104b5612455565b6104bd6124d6565b6104c5612562565b6104ef7fb19546dff01e856fb3f010c267a7b1c60363cf8a4664e21cc89c26224620214e836107d4565b6105197f65d7a28e3265b37a6474929f336521b332c1681b933f6cb9f3376673440d862a836107d4565b6105637f65d7a28e3265b37a6474929f336521b332c1681b933f6cb9f3376673440d862a7fb19546dff01e856fb3f010c267a7b1c60363cf8a4664e21cc89c26224620214e6125f1565b61058d7fb19546dff01e856fb3f010c267a7b1c60363cf8a4664e21cc89c26224620214e806125f1565b801561059f576000805461ff00191690555b5050565b6105ab611f8e565b6105c75760405162461bcd60e51b815260040161045390614fae565b60975460ff16156105ea5760405162461bcd60e51b815260040161045390614aa1565b6105f381612606565b61060f5760405162461bcd60e51b815260040161045390614e3d565b6001600160a01b03821660008181526101c6602052604090819020839055517f7be5403eca163f383a39c2d1f65a8fee2c9e41e7e6b150f4abfe16eaaf1d90769061065b908490614683565b60405180910390a25050565b6000818152606560205260409020600201545b919050565b60975460ff16156106a25760405162461bcd60e51b815260040161045390614aa1565b6001600160a01b0380831660009081526101c860205260409020548391166106dc5760405162461bcd60e51b815260040161045390614bfe565b6000839050336001600160a01b0316816001600160a01b0316637df1f1b96040518163ffffffff1660e01b815260040160206040518083038186803b15801561072457600080fd5b505afa158015610738573d6000803e3d6000fd5b505050506040513d601f19601f8201168201806040525081019061075c9190614338565b6001600160a01b0316146107825760405162461bcd60e51b815260040161045390614c35565b610794818461078f612693565b612697565b50505050565b6000828152606560205260409020600201546107b89061035661282c565b6107d45760405162461bcd60e51b815260040161045390614797565b61059f8282612830565b6107e661282c565b6001600160a01b0316816001600160a01b0316146108165760405162461bcd60e51b81526004016104539061500b565b61059f8282612899565b61084c7f65d7a28e3265b37a6474929f336521b332c1681b933f6cb9f3376673440d862a61035661282c565b6108685760405162461bcd60e51b8152600401610453906148bf565b610870612902565b565b600054610100900460ff168061088b575061088b61244f565b80610899575060005460ff16155b6108b55760405162461bcd60e51b815260040161045390614da9565b600054610100900460ff161580156108e0576000805460ff1961ff0019909116610100171660011790555b6108e983610410565b6101c580547fffffffffffffffffffffffff0000000000000000000000000000000000000000166001600160a01b038416179055801561092f576000805461ff00191690555b505050565b600054610100900460ff168061094d575061094d61244f565b8061095b575060005460ff16155b6109775760405162461bcd60e51b815260040161045390614da9565b600054610100900460ff161580156109a2576000805460ff1961ff0019909116610100171660011790555b6109aa6124d6565b80156109bc576000805461ff00191690555b50565b60975460009060ff16156109e55760405162461bcd60e51b815260040161045390614aa1565b3360009081526101c6602090815260408083206001600160a01b038b1684526101c7909252909120610a17888361296e565b610a335760405162461bcd60e51b81526004016104539061498a565b6000610a3d6129b6565b6001600160a01b0316639390bce06040518163ffffffff1660e01b8152600401610a6690614e9a565b602060405180830381600087803b158015610a8057600080fd5b505af1158015610a94573d6000803e3d6000fd5b505050506040513d601f19601f82011682018060405250810190610ab89190614338565b90506000819050806001600160a01b031663df8fa430308d338e8e8e8e8e6040518963ffffffff1660e01b8152600401610af99897969594939291906145aa565b600060405180830381600087803b158015610b1357600080fd5b505af1158015610b27573d6000803e3d6000fd5b505050506001848101805480830182556000918252602080832090910180547fffffffffffffffffffffffff00000000000000000000000000000000000000009081166001600160a01b038881169182179093558854958601895588855283852090950180548216861790558484526101c89092526040808420805490931685179092559051908e16917fc1d7685016f2246662e70fe17df916e959813e9ab93d50c4f039c0c069c5f37191a36101c5546001600160a01b0380831691632f2ff15d917fb19546dff01e856fb3f010c267a7b1c60363cf8a4664e21cc89c26224620214e91610c169116612a52565b6040518363ffffffff1660e01b8152600401610c3392919061468c565b600060405180830381600087803b158015610c4d57600080fd5b505af1158015610c61573d6000803e3d6000fd5b50506101c5546040517f3059b7c60000000000000000000000000000000000000000000000000000000081526001600160a01b038086169450633059b7c69350610caf921690600401614572565b600060405180830381600087803b158015610cc957600080fd5b505af1158015610cdd573d6000803e3d6000fd5b50939d9c50505050505050505050505050565b60975460ff1690565b60975460ff1615610d1c5760405162461bcd60e51b815260040161045390614aa1565b6001600160a01b0380831660009081526101c86020526040902054839116610d565760405162461bcd60e51b815260040161045390614bfe565b3360009081526101c7602052604090208054849190610d875760405162461bcd60e51b8152600401610453906149e7565b60008411610da75760405162461bcd60e51b815260040161045390614eab565b336001600160a01b0316826001600160a01b0316637df1f1b96040518163ffffffff1660e01b815260040160206040518083038186803b158015610dea57600080fd5b505afa158015610dfe573d6000803e3d6000fd5b505050506040513d601f19601f82011682018060405250810190610e229190614338565b6001600160a01b031614610e485760405162461bcd60e51b815260040161045390614c35565b610e5184612ad2565b610e6d5760405162461bcd60e51b815260040161045390614ad8565b610e778483612aed565b610e935760405162461bcd60e51b815260040161045390614ee2565b6000826001600160a01b031663b69ef8a86040518163ffffffff1660e01b815260040160206040518083038186803b158015610ece57600080fd5b505afa158015610ee2573d6000803e3d6000fd5b505050506040513d601f19601f82011682018060405250810190610f069190614537565b905080610fd857826001600160a01b03166352ee365e610f24612693565b6040518263ffffffff1660e01b8152600401610f409190614683565b600060405180830381600087803b158015610f5a57600080fd5b505af1158015610f6e573d6000803e3d6000fd5b50505050826001600160a01b03166351bc4953610f89612693565b6040518263ffffffff1660e01b8152600401610fa59190614683565b600060405180830381600087803b158015610fbf57600080fd5b505af1158015610fd3573d6000803e3d6000fd5b505050505b6101c554600090610ff1906001600160a01b0316612ba6565b90506000610ffe88612bb1565b9050600081156110e7578188111561102357508061101c8882612c45565b9750611028565b506000965b6040517f23b872dd0000000000000000000000000000000000000000000000000000000081526000906001600160a01b038516906323b872dd90611074908d9033908790600401614586565b602060405180830381600087803b15801561108e57600080fd5b505af11580156110a2573d6000803e3d6000fd5b505050506040513d601f19601f820116820180604052508101906110c69190614402565b9050806110e55760405162461bcd60e51b815260040161045390614953565b505b6000806110fb886110f6612693565b612c87565b909250905061110a868b612e48565b955061111888878484612e6d565b6111218861331f565b1561113e5760405162461bcd60e51b81526004016104539061482b565b6001600160a01b038816337f7ec4669c579321a5cf5a6b525637eb0924a93e2e11eab9d14be8b44de1116b1b6111748d87612e48565b6040516111819190614683565b60405180910390a36000856001600160a01b03166323b872dd87338e6040518463ffffffff1660e01b81526004016111bb93929190614586565b602060405180830381600087803b1580156111d557600080fd5b505af11580156111e9573d6000803e3d6000fd5b505050506040513d601f19601f8201168201806040525081019061120d9190614402565b90508061122c5760405162461bcd60e51b815260040161045390614953565b505050505050505050505050565b61168081565b6101c5546001600160a01b031681565b6101c66020526000908152604090205481565b60975460609060ff16156112895760405162461bcd60e51b815260040161045390614aa1565b6001600160a01b03821660009081526101c66020908152604091829020600101805483518184028101840190945280845290918301828280156112f557602002820191906000526020600020905b81546001600160a01b031681526001909101906020018083116112d7575b50505050509050919050565b61132d7f65d7a28e3265b37a6474929f336521b332c1681b933f6cb9f3376673440d862a61035661282c565b6113495760405162461bcd60e51b8152600401610453906148bf565b6108706133ec565b60008281526065602052604081206113699083613445565b90505b92915050565b60008281526065602052604081206113699083613451565b6001600160a01b0380831660009081526101c8602052604081205490918491166113c65760405162461bcd60e51b815260040161045390614bfe565b826113d6576113d3612693565b92505b6000849050806001600160a01b031663500b245e6040518163ffffffff1660e01b815260040160206040518083038186803b15801561141457600080fd5b505afa158015611428573d6000803e3d6000fd5b505050506040513d601f19601f8201168201806040525081019061144c9190614537565b84108015611460575061145e8161331f565b155b1561146f5760009250506115dc565b6101c5546000908190732331b1640358FF0EDAc6CC8d14329df6Ae4825C89063101c843090859089906114aa906001600160a01b0316613466565b6040518463ffffffff1660e01b81526004016114c89392919061460a565b604080518083038186803b1580156114df57600080fd5b505af41580156114f3573d6000803e3d6000fd5b505050506040513d601f19601f82011682018060405250810190611517919061454f565b915091506115d661159982856001600160a01b031663193501146040518163ffffffff1660e01b815260040160206040518083038186803b15801561155b57600080fd5b505afa15801561156f573d6000803e3d6000fd5b505050506040513d601f19601f820116820180604052508101906115939190614537565b90612e48565b61159384866001600160a01b03166321856b366040518163ffffffff1660e01b815260040160206040518083038186803b15801561155b57600080fd5b94505050505b5092915050565b6115eb611f8e565b6116075760405162461bcd60e51b815260040161045390614fae565b6000876001600160a01b031663a4d66daf6040518163ffffffff1660e01b815260040160206040518083038186803b15801561164257600080fd5b505afa158015611656573d6000803e3d6000fd5b505050506040513d601f19601f8201168201806040525081019061167a9190614537565b116116975760405162461bcd60e51b815260040161045390614b92565b60006116a78787878787876109bf565b90506000819050806001600160a01b031663fb1669ca8a6001600160a01b031663b69ef8a86040518163ffffffff1660e01b815260040160206040518083038186803b1580156116f657600080fd5b505afa15801561170a573d6000803e3d6000fd5b505050506040513d601f19601f8201168201806040525081019061172e9190614537565b6040518263ffffffff1660e01b815260040161174a9190614683565b600060405180830381600087803b15801561176457600080fd5b505af1158015611778573d6000803e3d6000fd5b50505050806001600160a01b03166396c8df378a6001600160a01b03166321856b366040518163ffffffff1660e01b815260040160206040518083038186803b1580156117c457600080fd5b505afa1580156117d8573d6000803e3d6000fd5b505050506040513d601f19601f820116820180604052508101906117fc9190614537565b6040518263ffffffff1660e01b81526004016118189190614683565b600060405180830381600087803b15801561183257600080fd5b505af1158015611846573d6000803e3d6000fd5b50505050806001600160a01b031663b3b8a9c78a6001600160a01b031663193501146040518163ffffffff1660e01b815260040160206040518083038186803b15801561189257600080fd5b505afa1580156118a6573d6000803e3d6000fd5b505050506040513d601f19601f820116820180604052508101906118ca9190614537565b6040518263ffffffff1660e01b81526004016118e69190614683565b600060405180830381600087803b15801561190057600080fd5b505af1158015611914573d6000803e3d6000fd5b50505050806001600160a01b031663fb9eb9908a6001600160a01b0316631790ebd56040518163ffffffff1660e01b815260040160206040518083038186803b15801561196057600080fd5b505afa158015611974573d6000803e3d6000fd5b505050506040513d601f19601f820116820180604052508101906119989190614537565b6040518263ffffffff1660e01b81526004016119b49190614683565b600060405180830381600087803b1580156119ce57600080fd5b505af11580156119e2573d6000803e3d6000fd5b50505050806001600160a01b0316637957dda38a6001600160a01b031663500b245e6040518163ffffffff1660e01b815260040160206040518083038186803b158015611a2e57600080fd5b505afa158015611a42573d6000803e3d6000fd5b505050506040513d601f19601f82011682018060405250810190611a669190614537565b6040518263ffffffff1660e01b8152600401611a829190614683565b602060405180830381600087803b158015611a9c57600080fd5b505af1158015611ab0573d6000803e3d6000fd5b505050506040513d601f19601f82011682018060405250810190611ad49190614537565b50806001600160a01b03166352ee365e8a6001600160a01b031663408862d96040518163ffffffff1660e01b815260040160206040518083038186803b158015611b1d57600080fd5b505afa158015611b31573d6000803e3d6000fd5b505050506040513d601f19601f82011682018060405250810190611b559190614537565b6040518263ffffffff1660e01b8152600401611b719190614683565b600060405180830381600087803b158015611b8b57600080fd5b505af1158015611b9f573d6000803e3d6000fd5b50505050806001600160a01b0316632771eca88a6001600160a01b031663cc862de56040518163ffffffff1660e01b815260040160206040518083038186803b158015611beb57600080fd5b505afa158015611bff573d6000803e3d6000fd5b505050506040513d601f19601f82011682018060405250810190611c239190614537565b6040518263ffffffff1660e01b8152600401611c3f9190614683565b600060405180830381600087803b158015611c5957600080fd5b505af1158015611c6d573d6000803e3d6000fd5b50505050806001600160a01b03166351bc49538a6001600160a01b031663bfe976a96040518163ffffffff1660e01b815260040160206040518083038186803b158015611cb957600080fd5b505afa158015611ccd573d6000803e3d6000fd5b505050506040513d601f19601f82011682018060405250810190611cf19190614537565b6040518263ffffffff1660e01b8152600401611d0d9190614683565b600060405180830381600087803b158015611d2757600080fd5b505af1158015611d3b573d6000803e3d6000fd5b50506040517f27ea6f2b0000000000000000000000000000000000000000000000000000000081526001600160a01b038c1692506327ea6f2b9150611d8590600090600401614683565b600060405180830381600087803b158015611d9f57600080fd5b505af1158015611db3573d6000803e3d6000fd5b50506040517ffb1669ca0000000000000000000000000000000000000000000000000000000081526001600160a01b038c16925063fb1669ca9150611dfd90600090600401614683565b600060405180830381600087803b158015611e1757600080fd5b505af1158015611e2b573d6000803e3d6000fd5b50506101c55460009250611e4891506001600160a01b0316612ba6565b6101c5546001600160a01b03918216916323b872dd918d918691611e6c9116613496565b6001600160a01b03166370a082318f6040518263ffffffff1660e01b8152600401611e979190614572565b60206040518083038186803b158015611eaf57600080fd5b505afa158015611ec3573d6000803e3d6000fd5b505050506040513d601f19601f82011682018060405250810190611ee79190614537565b6040518463ffffffff1660e01b8152600401611f0593929190614586565b602060405180830381600087803b158015611f1f57600080fd5b505af1158015611f33573d6000803e3d6000fd5b505050506040513d601f19601f82011682018060405250810190611f579190614402565b905080611f765760405162461bcd60e51b815260040161045390614888565b50505050505050505050565b600081565b6101c35481565b6000611fbc7fb19546dff01e856fb3f010c267a7b1c60363cf8a4664e21cc89c26224620214e61035661282c565b905090565b60975460609060ff1615611fe75760405162461bcd60e51b815260040161045390614aa1565b6001600160a01b03821660009081526101c76020908152604091829020805483518184028101840190945280845290918301828280156112f5576020028201919060005260206000209081546001600160a01b031681526001909101906020018083116112d75750505050509050919050565b60975460ff161561207d5760405162461bcd60e51b815260040161045390614aa1565b6001600160a01b0380831660009081526101c860205260409020548391166120b75760405162461bcd60e51b815260040161045390614bfe565b600082116120d75760405162461bcd60e51b815260040161045390614f40565b826120e281846134a1565b6107948461218b565b600081815260656020526040812061136c906135ca565b6000828152606560205260409020600201546121209061035661282c565b6108165760405162461bcd60e51b815260040161045390614a44565b7fb19546dff01e856fb3f010c267a7b1c60363cf8a4664e21cc89c26224620214e81565b7f65d7a28e3265b37a6474929f336521b332c1681b933f6cb9f3376673440d862a81565b6101c45481565b60975460ff16156121ae5760405162461bcd60e51b815260040161045390614aa1565b6001600160a01b0380821660009081526101c860205260409020548291166121e85760405162461bcd60e51b815260040161045390614bfe565b60008290506000816001600160a01b031663b69ef8a86040518163ffffffff1660e01b815260040160206040518083038186803b15801561222857600080fd5b505afa15801561223c573d6000803e3d6000fd5b505050506040513d601f19601f820116820180604052508101906122609190614537565b1161227d5760405162461bcd60e51b815260040161045390614c92565b806001600160a01b031663500b245e6040518163ffffffff1660e01b815260040160206040518083038186803b1580156122b657600080fd5b505afa1580156122ca573d6000803e3d6000fd5b505050506040513d601f19601f820116820180604052508101906122ee9190614537565b6122f6612693565b10801561230957506123078161331f565b155b15612314575061059f565b6000816001600160a01b0316637957dda361232e846135d5565b6040518263ffffffff1660e01b815260040161234a9190614683565b602060405180830381600087803b15801561236457600080fd5b505af1158015612378573d6000803e3d6000fd5b505050506040513d601f19601f8201168201806040525081019061239c9190614537565b90506123a6612693565b81111561243c57600061242c611680846001600160a01b03166399dd8df36040518163ffffffff1660e01b815260040160206040518083038186803b1580156123ee57600080fd5b505afa158015612402573d6000803e3d6000fd5b505050506040513d601f19601f820116820180604052508101906124269190614537565b90613858565b90506124388282612c45565b9150505b6107948261244984612bb1565b83612697565b303b1590565b600054610100900460ff168061246e575061246e61244f565b8061247c575060005460ff16155b6124985760405162461bcd60e51b815260040161045390614da9565b600054610100900460ff161580156109aa576000805460ff1961ff00199091166101001716600117905580156109bc576000805461ff001916905550565b600054610100900460ff16806124ef57506124ef61244f565b806124fd575060005460ff16155b6125195760405162461bcd60e51b815260040161045390614da9565b600054610100900460ff16158015612544576000805460ff1961ff0019909116610100171660011790555b6097805460ff1916905580156109bc576000805461ff001916905550565b600054610100900460ff168061257b575061257b61244f565b80612589575060005460ff16155b6125a55760405162461bcd60e51b815260040161045390614da9565b600054610100900460ff161580156125d0576000805460ff1961ff0019909116610100171660011790555b60c9805460ff1916600117905580156109bc576000805461ff001916905550565b60009182526065602052604090912060020155565b6101c5546000906001600160a01b031663fc56365860025b6040518263ffffffff1660e01b815260040161263a9190614683565b60206040518083038186803b15801561265257600080fd5b505afa158015612666573d6000803e3d6000fd5b505050506040513d601f19601f8201168201806040525081019061268a9190614537565b90911115919050565b4390565b60008060006126a7868686613892565b6101c55492955090935091506000906126c8906001600160a01b0316612ba6565b90506126d48782613b0d565b60008311806126e35750600082115b1561282357866001600160a01b0316876001600160a01b0316637df1f1b96040518163ffffffff1660e01b815260040160206040518083038186803b15801561272b57600080fd5b505afa15801561273f573d6000803e3d6000fd5b505050506040513d601f19601f820116820180604052508101906127639190614338565b6001600160a01b03167f724fe786cff62c97ff230e98a332f95c5a11990e44123a00c2b8e76b0566e41185858860405161279f93929190615068565b60405180910390a36040517f71bb0bab0000000000000000000000000000000000000000000000000000000081526001600160a01b038216906371bb0bab906127f0908a908790879060040161460a565b600060405180830381600087803b15801561280a57600080fd5b505af115801561281e573d6000803e3d6000fd5b505050505b50505050505050565b3390565b60008281526065602052604090206128489082613de7565b1561059f5761285561282c565b6001600160a01b0316816001600160a01b0316837f2f8788117e7eff1d82e926ec794901d17c78024a50270940304540a733656f0d60405160405180910390a45050565b60008281526065602052604090206128b19082613dfc565b1561059f576128be61282c565b6001600160a01b0316816001600160a01b0316837ff6391f5c32d9c69d2a47ea670b442974b53935d1edc7fd64eb21e047a839171b60405160405180910390a45050565b60975460ff166129245760405162461bcd60e51b8152600401610453906147f4565b6097805460ff191690557f5db9ee0a495bf2e6ff9c91a7834c1ba4fdd244a5e8aa4e537bd38aeae4b073aa61295761282c565b6040516129649190614572565b60405180910390a1565b805460009061298f5760405162461bcd60e51b815260040161045390614b35565b600061299a83613e11565b905060006129a88286612e48565b845410159250505092915050565b6101c5546040517fb93f9b0a0000000000000000000000000000000000000000000000000000000081526000916001600160a01b03169063b93f9b0a90612a0290600290600401614683565b60206040518083038186803b158015612a1a57600080fd5b505afa158015612a2e573d6000803e3d6000fd5b505050506040513d601f19601f82011682018060405250810190611fbc9190614338565b60006001600160a01b03821663b93f9b0a60075b6040518263ffffffff1660e01b8152600401612a829190614683565b60206040518083038186803b158015612a9a57600080fd5b505afa158015612aae573d6000803e3d6000fd5b505050506040513d601f19601f8201168201806040525081019061136c9190614338565b6101c5546000906001600160a01b031663fc5636588261261e565b6000816001600160a01b031663a4d66daf6040518163ffffffff1660e01b815260040160206040518083038186803b158015612b2857600080fd5b505afa158015612b3c573d6000803e3d6000fd5b505050506040513d601f19601f82011682018060405250810190612b609190614537565b612b9d84846001600160a01b031663b69ef8a86040518163ffffffff1660e01b815260040160206040518083038186803b15801561155b57600080fd5b11159392505050565b600061136c82613ee5565b6101c554600090612bca906001600160a01b0316613496565b6001600160a01b03166370a08231836040518263ffffffff1660e01b8152600401612bf59190614572565b60206040518083038186803b158015612c0d57600080fd5b505afa158015612c21573d6000803e3d6000fd5b505050506040513d601f19601f8201168201806040525081019061136c9190614537565b600061136983836040518060400160405280601e81526020017f536166654d6174683a207375627472616374696f6e206f766572666c6f770000815250613efc565b600080600080732331b1640358FF0EDAc6CC8d14329df6Ae4825C863101c84308787612cd16101c560009054906101000a90046001600160a01b03166001600160a01b0316613466565b6040518463ffffffff1660e01b8152600401612cef9392919061460a565b604080518083038186803b158015612d0657600080fd5b505af4158015612d1a573d6000803e3d6000fd5b505050506040513d601f19601f82011682018060405250810190612d3e919061454f565b90925090508115612dc1576040517f52ee365e0000000000000000000000000000000000000000000000000000000081526001600160a01b038716906352ee365e90612d8e908890600401614683565b600060405180830381600087803b158015612da857600080fd5b505af1158015612dbc573d6000803e3d6000fd5b505050505b612dfe82876001600160a01b03166321856b366040518163ffffffff1660e01b815260040160206040518083038186803b15801561155b57600080fd5b612e3b82886001600160a01b031663193501146040518163ffffffff1660e01b815260040160206040518083038186803b15801561155b57600080fd5b9350935050509250929050565b6000828201838110156113695760405162461bcd60e51b81526004016104539061491c565b60c95460ff16612e8f5760405162461bcd60e51b815260040161045390614f77565b60c9805460ff19169055604080517fb69ef8a80000000000000000000000000000000000000000000000000000000081529051612f39916001600160a01b0387169163b69ef8a891600480820192602092909190829003018186803b158015612ef757600080fd5b505afa158015612f0b573d6000803e3d6000fd5b505050506040513d601f19601f82011682018060405250810190612f2f9190614537565b6101c45490612c45565b6101c4556040517ffb1669ca0000000000000000000000000000000000000000000000000000000081526001600160a01b0385169063fb1669ca90612f82908690600401614683565b600060405180830381600087803b158015612f9c57600080fd5b505af1158015612fb0573d6000803e3d6000fd5b50506040517f96c8df370000000000000000000000000000000000000000000000000000000081526001600160a01b03871692506396c8df379150612ff9908590600401614683565b600060405180830381600087803b15801561301357600080fd5b505af1158015613027573d6000803e3d6000fd5b50506040517fb3b8a9c70000000000000000000000000000000000000000000000000000000081526001600160a01b038716925063b3b8a9c79150613070908490600401614683565b600060405180830381600087803b15801561308a57600080fd5b505af115801561309e573d6000803e3d6000fd5b505050506000846001600160a01b031663500b245e6040518163ffffffff1660e01b815260040160206040518083038186803b1580156130dd57600080fd5b505afa1580156130f1573d6000803e3d6000fd5b505050506040513d601f19601f820116820180604052508101906131159190614537565b90508215801561312457508015155b1561320b57600081613134612693565b101561318f57600061317b611680886001600160a01b03166399dd8df36040518163ffffffff1660e01b815260040160206040518083038186803b1580156123ee57600080fd5b90506131878382612c45565b915050613192565b50805b6040517f51bc49530000000000000000000000000000000000000000000000000000000081526001600160a01b038716906351bc4953906131d7908490600401614683565b600060405180830381600087803b1580156131f157600080fd5b505af1158015613205573d6000803e3d6000fd5b50505050505b6101c4546132199085612e48565b6101c4556001600160a01b03851663fb9eb9906132368787613f28565b6040518263ffffffff1660e01b81526004016132529190614683565b600060405180830381600087803b15801561326c57600080fd5b505af1158015613280573d6000803e3d6000fd5b50505050846001600160a01b0316637957dda361329c876135d5565b6040518263ffffffff1660e01b81526004016132b89190614683565b602060405180830381600087803b1580156132d257600080fd5b505af11580156132e6573d6000803e3d6000fd5b505050506040513d601f19601f8201168201806040525081019061330a9190614537565b505060c9805460ff1916600117905550505050565b6000806133a4836001600160a01b031663bfe976a96040518163ffffffff1660e01b815260040160206040518083038186803b15801561335e57600080fd5b505afa158015613372573d6000803e3d6000fd5b505050506040513d601f19601f820116820180604052508101906133969190614537565b61339e612693565b90612c45565b90506133e5611680846001600160a01b03166399dd8df36040518163ffffffff1660e01b815260040160206040518083038186803b1580156123ee57600080fd5b1092915050565b60975460ff161561340f5760405162461bcd60e51b815260040161045390614aa1565b6097805460ff191660011790557f62e78cea01bee320cd4e420270b5ea74000d11b0c9f74754ebdbfc544b05a25861295761282c565b600061136983836140ad565b6000611369836001600160a01b0384166140f2565b60006001600160a01b03821663fc56365860055b6040518263ffffffff1660e01b8152600401612bf59190614683565b600061136c8261410a565b6134aa81612ad2565b6134c65760405162461bcd60e51b815260040161045390614ad8565b816001600160a01b0316336001600160a01b03167fc4036209c61f1d5aad789d2b8fa9ca23bf8b1516748d2e0be7227bf3fce67d2d836040516135099190614683565b60405180910390a36101c55460009061352a906001600160a01b0316612ba6565b6001600160a01b03166323b872dd3385856040518463ffffffff1660e01b815260040161355993929190614586565b602060405180830381600087803b15801561357357600080fd5b505af1158015613587573d6000803e3d6000fd5b505050506040513d601f19601f820116820180604052508101906135ab9190614402565b90508061092f5760405162461bcd60e51b815260040161045390614e06565b600061136c82614122565b600080613617611680846001600160a01b03166399dd8df36040518163ffffffff1660e01b815260040160206040518083038186803b1580156123ee57600080fd5b90506000836001600160a01b031663b69ef8a86040518163ffffffff1660e01b815260040160206040518083038186803b15801561365457600080fd5b505afa158015613668573d6000803e3d6000fd5b505050506040513d601f19601f8201168201806040525081019061368c9190614537565b90506000846001600160a01b031663500b245e6040518163ffffffff1660e01b815260040160206040518083038186803b1580156136c957600080fd5b505afa1580156136dd573d6000803e3d6000fd5b505050506040513d601f19601f820116820180604052508101906137019190614537565b9050600061370d612693565b90508115801561371d5750600083115b156137375761372c8185612e48565b94505050505061067a565b6000831180156137475750818110155b1561380257600061376b85612426600161159383613765888a612c45565b90614126565b905060006137798483612e48565b90506137f581896001600160a01b0316631790ebd56040518163ffffffff1660e01b815260040160206040518083038186803b1580156137b857600080fd5b505afa1580156137cc573d6000803e3d6000fd5b505050506040513d601f19601f820116820180604052508101906137f09190614537565b614168565b965050505050505061067a565b8215801561380f57508115155b1561382157600094505050505061067a565b60008311801561383057508181105b156138405750925061067a915050565b60405162461bcd60e51b815260040161045390614d4c565b6000826138675750600061136c565b8282028284828161387457fe5b04146113695760405162461bcd60e51b815260040161045390614cef565b60008060008060006138a48887612c87565b915091506138b06142fb565b732331b1640358FF0EDAc6CC8d14329df6Ae4825C863d7cc2a03898b6001600160a01b031663b69ef8a86040518163ffffffff1660e01b815260040160206040518083038186803b15801561390457600080fd5b505afa158015613918573d6000803e3d6000fd5b505050506040513d601f19601f8201168201806040525081019061393c9190614537565b86866040518563ffffffff1660e01b815260040161395d949392919061507e565b60606040518083038186803b15801561397557600080fd5b505af4158015613989573d6000803e3d6000fd5b505050506040513d601f19601f820116820180604052508101906139ad91906144e0565b90506000613a2a82602001518b6001600160a01b031663b69ef8a86040518163ffffffff1660e01b815260040160206040518083038186803b1580156139f257600080fd5b505afa158015613a06573d6000803e3d6000fd5b505050506040513d601f19601f8201168201806040525081019061339e9190614537565b9050613a43826040015182612c4590919063ffffffff16565b90506000613a84828c6001600160a01b031663b69ef8a86040518163ffffffff1660e01b815260040160206040518083038186803b1580156139f257600080fd5b90506000613aa38261339e86600001518e612c4590919063ffffffff16565b9050613ad68c84613ac187600001518a612c4590919063ffffffff16565b6020880151613ad1908a90612c45565b612e6d565b8a613af283611593876000015185612e4890919063ffffffff16565b14613af957fe5b9251929b929a509850909650505050505050565b600080732331b1640358FF0EDAc6CC8d14329df6Ae4825C863ca57356885613b33612693565b6101c554613b49906001600160a01b0316613466565b6101c554613b5f906001600160a01b031661417e565b6040518563ffffffff1660e01b8152600401613b7e94939291906146a3565b604080518083038186803b158015613b9557600080fd5b505af4158015613ba9573d6000803e3d6000fd5b505050506040513d601f19601f82011682018060405250810190613bcd919061454f565b91509150816000148015613c4f5750836001600160a01b031663cc862de56040518163ffffffff1660e01b815260040160206040518083038186803b158015613c1557600080fd5b505afa158015613c29573d6000803e3d6000fd5b505050506040513d601f19601f82011682018060405250810190613c4d9190614537565b155b15613c5b57505061059f565b600081856001600160a01b031663cc862de56040518163ffffffff1660e01b815260040160206040518083038186803b158015613c9757600080fd5b505afa158015613cab573d6000803e3d6000fd5b505050506040513d601f19601f82011682018060405250810190613ccf9190614537565b039050846001600160a01b0316632771eca8836040518263ffffffff1660e01b8152600401613cfe9190614683565b600060405180830381600087803b158015613d1857600080fd5b505af1158015613d2c573d6000803e3d6000fd5b505050506000811315613d50576101c354613d479082612c45565b6101c355613d67565b6101c354613d62906000839003612e48565b6101c3555b6040517f338744bc0000000000000000000000000000000000000000000000000000000081526001600160a01b0385169063338744bc90613dae90889085906004016145f1565b600060405180830381600087803b158015613dc857600080fd5b505af1158015613ddc573d6000803e3d6000fd5b505050505050505050565b6000611369836001600160a01b038416614196565b6000611369836001600160a01b0384166141e0565b60018101546000908190815b81811015613edc576000856001018281548110613e3657fe5b9060005260206000200160009054906101000a90046001600160a01b03169050613ed1816001600160a01b031663a4d66daf6040518163ffffffff1660e01b815260040160206040518083038186803b158015613e9257600080fd5b505afa158015613ea6573d6000803e3d6000fd5b505050506040513d601f19601f82011682018060405250810190613eca9190614537565b8590612e48565b935050600101613e1d565b50909392505050565b60006001600160a01b03821663b93f9b0a82612a66565b60008184841115613f205760405162461bcd60e51b815260040161045391906146c9565b505050900390565b600081613f375750600061136c565b826001600160a01b0316631790ebd56040518163ffffffff1660e01b815260040160206040518083038186803b158015613f7057600080fd5b505afa158015613f84573d6000803e3d6000fd5b505050506040513d601f19601f82011682018060405250810190613fa89190614537565b1561402557826001600160a01b0316631790ebd56040518163ffffffff1660e01b815260040160206040518083038186803b158015613fe657600080fd5b505afa158015613ffa573d6000803e3d6000fd5b505050506040513d601f19601f8201168201806040525081019061401e9190614537565b905061136c565b6113696140a5846001600160a01b03166348e6f2966040518163ffffffff1660e01b815260040160206040518083038186803b15801561406457600080fd5b505afa158015614078573d6000803e3d6000fd5b505050506040513d601f19601f8201168201806040525081019061409c9190614537565b61168090613858565b611593612693565b815460009082106140d05760405162461bcd60e51b81526004016104539061473a565b8260000182815481106140df57fe5b9060005260206000200154905092915050565b60009081526001919091016020526040902054151590565b60006001600160a01b03821663b93f9b0a6005612a66565b5490565b600061136983836040518060400160405280601a81526020017f536166654d6174683a206469766973696f6e206279207a65726f0000000000008152506142c4565b60008183106141775781611369565b5090919050565b60006001600160a01b03821663fc563658600661347a565b60006141a283836140f2565b6141d85750815460018181018455600084815260208082209093018490558454848252828601909352604090209190915561136c565b50600061136c565b600081815260018301602052604081205480156142ba5783547fffffffffffffffffffffffffffffffffffffffffffffffffffffffffffffffff808301919081019060009087908390811061423157fe5b906000526020600020015490508087600001848154811061424e57fe5b60009182526020808320909101929092558281526001898101909252604090209084019055865487908061427e57fe5b6001900381819060005260206000200160009055905586600101600087815260200190815260200160002060009055600194505050505061136c565b600091505061136c565b600081836142e55760405162461bcd60e51b815260040161045391906146c9565b5060008385816142f157fe5b0495945050505050565b60405180606001604052806000815260200160008152602001600081525090565b60006020828403121561432d578081fd5b813561136981615099565b600060208284031215614349578081fd5b815161136981615099565b60008060408385031215614366578081fd5b823561437181615099565b9150602083013561438181615099565b809150509250929050565b6000806040838503121561439e578182fd5b82356143a981615099565b946020939093013593505050565b60008060008060008060c087890312156143cf578182fd5b86356143da81615099565b9860208801359850604088013597606081013597506080810135965060a00135945092505050565b600060208284031215614413578081fd5b81518015158114611369578182fd5b600060208284031215614433578081fd5b5035919050565b6000806040838503121561444c578182fd5b82359150602083013561438181615099565b60008060408385031215614470578182fd5b50508035926020909101359150565b600080600080600080600060e0888a031215614499578081fd5b87356144a481615099565b965060208801356144b481615099565b96999698505050506040850135946060810135946080820135945060a0820135935060c0909101359150565b6000606082840312156144f1578081fd5b6040516060810181811067ffffffffffffffff82111715614510578283fd5b80604052508251815260208301516020820152604083015160408201528091505092915050565b600060208284031215614548578081fd5b5051919050565b60008060408385031215614561578081fd5b505080516020909101519092909150565b6001600160a01b0391909116815260200190565b6001600160a01b039384168152919092166020820152604081019190915260600190565b6001600160a01b03988916815296881660208801529490961660408601526060850192909252608084015260a083015260c082019290925260e08101919091526101000190565b6001600160a01b03929092168252602082015260400190565b6001600160a01b039390931683526020830191909152604082015260600190565b6020808252825182820181905260009190848201906040850190845b8181101561466c5783516001600160a01b031683529284019291840191600101614647565b50909695505050505050565b901515815260200190565b90815260200190565b9182526001600160a01b0316602082015260400190565b6001600160a01b0394909416845260208401929092526040830152606082015260800190565b6000602080835283518082850152825b818110156146f5578581018301518582016040015282016146d9565b818111156147065783604083870101525b50601f017fffffffffffffffffffffffffffffffffffffffffffffffffffffffffffffffe016929092016040019392505050565b60208082526022908201527f456e756d657261626c655365743a20696e646578206f7574206f6620626f756e60408201527f6473000000000000000000000000000000000000000000000000000000000000606082015260800190565b6020808252602f908201527f416363657373436f6e74726f6c3a2073656e646572206d75737420626520616e60408201527f2061646d696e20746f206772616e740000000000000000000000000000000000606082015260800190565b60208082526014908201527f5061757361626c653a206e6f7420706175736564000000000000000000000000604082015260600190565b6020808252602a908201527f43616e6e6f742064726177646f776e207768656e207061796d656e747320617260408201527f6520706173742064756500000000000000000000000000000000000000000000606082015260800190565b60208082526018908201527f4661696c656420746f207472616e736665722066756e64730000000000000000604082015260600190565b6020808252602c908201527f4d75737420686176652070617573657220726f6c6520746f20706572666f726d60408201527f207468697320616374696f6e0000000000000000000000000000000000000000606082015260800190565b6020808252601b908201527f536166654d6174683a206164646974696f6e206f766572666c6f770000000000604082015260600190565b60208082526012908201527f4661696c656420746f2064726177646f776e0000000000000000000000000000604082015260600190565b6020808252602e908201527f54686520756e6465727772697465722063616e6e6f742063726561746520746860408201527f697320637265646974206c696e65000000000000000000000000000000000000606082015260800190565b60208082526027908201527f4e6f20637265646974206c696e657320657869737420666f722074686973206260408201527f6f72726f77657200000000000000000000000000000000000000000000000000606082015260800190565b60208082526030908201527f416363657373436f6e74726f6c3a2073656e646572206d75737420626520616e60408201527f2061646d696e20746f207265766f6b6500000000000000000000000000000000606082015260800190565b60208082526010908201527f5061757361626c653a2070617573656400000000000000000000000000000000604082015260600190565b60208082526028908201527f416d6f756e74206973206f76657220746865207065722d7472616e736163746960408201527f6f6e206c696d6974000000000000000000000000000000000000000000000000606082015260800190565b6020808252602a908201527f756e64657277726974657220646f6573206e6f74206861766520676f7665726e60408201527f616e6365206c696d697400000000000000000000000000000000000000000000606082015260800190565b6020808252601f908201527f43616e2774206d69677261746520656d70747920637265646974206c696e6500604082015260600190565b6020808252818101527f4f776e65722063616e6e6f7420626520746865207a65726f2061646472657373604082015260600190565b60208082526013908201527f556e6b6e6f776e20637265646974206c696e6500000000000000000000000000604082015260600190565b60208082526025908201527f596f7520646f206e6f742062656c6f6e6720746f20746869732063726564697460408201527f206c696e65000000000000000000000000000000000000000000000000000000606082015260800190565b60208082526027908201527f4d75737420686176652062616c616e636520746f20617373657373206372656460408201527f6974206c696e6500000000000000000000000000000000000000000000000000606082015260800190565b60208082526021908201527f536166654d6174683a206d756c7469706c69636174696f6e206f766572666c6f60408201527f7700000000000000000000000000000000000000000000000000000000000000606082015260800190565b6020808252602a908201527f4572726f723a20636f756c64206e6f742063616c63756c617465206e6578742060408201527f64756520626c6f636b2e00000000000000000000000000000000000000000000606082015260800190565b6020808252602e908201527f436f6e747261637420696e7374616e63652068617320616c726561647920626560408201527f656e20696e697469616c697a6564000000000000000000000000000000000000606082015260800190565b60208082526019908201527f4661696c656420746f20636f6c6c656374207061796d656e7400000000000000604082015260600190565b6020808252603a908201527f54686973206c696d69742069732067726561746572207468616e20746865206d60408201527f617820616c6c6f776564206279207468652070726f746f636f6c000000000000606082015260800190565b602080825260009082015260400190565b6020808252601c908201527f4d7573742064726177646f776e206d6f7265207468616e207a65726f00000000604082015260600190565b602080825260409082018190527f54686520626f72726f77657220646f6573206e6f74206861766520656e6f7567908201527f6820637265646974206c696d697420666f7220746869732064726177646f776e606082015260800190565b60208082526017908201527f4d75737420706179206d6f7265207468616e207a65726f000000000000000000604082015260600190565b6020808252601f908201527f5265656e7472616e637947756172643a207265656e7472616e742063616c6c00604082015260600190565b6020808252602b908201527f4d75737420686176652061646d696e20726f6c6520746f20706572666f726d2060408201527f7468697320616374696f6e000000000000000000000000000000000000000000606082015260800190565b6020808252602f908201527f416363657373436f6e74726f6c3a2063616e206f6e6c792072656e6f756e636560408201527f20726f6c657320666f722073656c660000000000000000000000000000000000606082015260800190565b9283526020830191909152604082015260600190565b93845260208401929092526040830152606082015260800190565b6001600160a01b03811681146109bc57600080fdfea2646970667358221220614471d61975b06ccb1731e982f40f5acb98b311d36e540ffb872cec90167f7564736f6c634300060c0033",
  "deployedBytecode": "0x608060405234801561001057600080fd5b50600436106101f05760003560e01c80638456cb591161010f578063c26ff936116100a2578063e58378bb11610071578063e58378bb146103e5578063e63ab1e9146103ed578063ed80c850146103f5578063f5c7e0e2146103fd576101f0565b8063c26ff93614610399578063c4076876146103ac578063ca15c873146103bf578063d547741f146103d2576101f0565b806396eea87b116100de57806396eea87b1461036e578063a217fddf14610381578063a6f4487e14610389578063b6db75a014610391576101f0565b80638456cb591461032d5780639010d07c1461033557806391d148541461034857806394a3fcad1461035b576101f0565b8063526d81f6116101875780636bb987fe116101565780636bb987fe146102ea57806379502c55146102f25780637d533642146102fa578063844a28c31461030d576101f0565b8063526d81f61461029a5780635c080853146102a25780635c975abb146102c25780636acab9da146102d7576101f0565b80632f2ff15d116101c35780632f2ff15d1461025957806336568abe1461026c5780633f4ba83a1461027f578063485cc95514610287576101f0565b8063097616a3146101f55780630e4645ef1461020a578063248a9ca31461021d5780632e0c6cfe14610246575b600080fd5b61020861020336600461431c565b610410565b005b61020861021836600461438c565b6105a3565b61023061022b366004614422565b610667565b60405161023d9190614683565b60405180910390f35b61020861025436600461438c565b61067f565b61020861026736600461443a565b61079a565b61020861027a36600461443a565b6107de565b610208610820565b610208610295366004614354565b610872565b610208610934565b6102b56102b03660046143b7565b6109bf565b60405161023d9190614572565b6102ca610cf0565b60405161023d9190614678565b6102086102e536600461438c565b610cf9565b61023061123a565b6102b5611240565b61023061030836600461431c565b611250565b61032061031b36600461431c565b611263565b60405161023d919061462b565b610208611301565b6102b561034336600461445e565b611351565b6102ca61035636600461443a565b611372565b61023061036936600461438c565b61138a565b61020861037c36600461447f565b6115e3565b610230611f82565b610230611f87565b6102ca611f8e565b6103206103a736600461431c565b611fc1565b6102086103ba36600461438c565b61205a565b6102306103cd366004614422565b6120eb565b6102086103e036600461443a565b612102565b61023061213c565b610230612160565b610230612184565b61020861040b36600461431c565b61218b565b600054610100900460ff1680610429575061042961244f565b80610437575060005460ff16155b61045c5760405162461bcd60e51b815260040161045390614da9565b60405180910390fd5b600054610100900460ff16158015610487576000805460ff1961ff0019909116610100171660011790555b6001600160a01b0382166104ad5760405162461bcd60e51b815260040161045390614bc9565b6104b5612455565b6104bd6124d6565b6104c5612562565b6104ef7fb19546dff01e856fb3f010c267a7b1c60363cf8a4664e21cc89c26224620214e836107d4565b6105197f65d7a28e3265b37a6474929f336521b332c1681b933f6cb9f3376673440d862a836107d4565b6105637f65d7a28e3265b37a6474929f336521b332c1681b933f6cb9f3376673440d862a7fb19546dff01e856fb3f010c267a7b1c60363cf8a4664e21cc89c26224620214e6125f1565b61058d7fb19546dff01e856fb3f010c267a7b1c60363cf8a4664e21cc89c26224620214e806125f1565b801561059f576000805461ff00191690555b5050565b6105ab611f8e565b6105c75760405162461bcd60e51b815260040161045390614fae565b60975460ff16156105ea5760405162461bcd60e51b815260040161045390614aa1565b6105f381612606565b61060f5760405162461bcd60e51b815260040161045390614e3d565b6001600160a01b03821660008181526101c6602052604090819020839055517f7be5403eca163f383a39c2d1f65a8fee2c9e41e7e6b150f4abfe16eaaf1d90769061065b908490614683565b60405180910390a25050565b6000818152606560205260409020600201545b919050565b60975460ff16156106a25760405162461bcd60e51b815260040161045390614aa1565b6001600160a01b0380831660009081526101c860205260409020548391166106dc5760405162461bcd60e51b815260040161045390614bfe565b6000839050336001600160a01b0316816001600160a01b0316637df1f1b96040518163ffffffff1660e01b815260040160206040518083038186803b15801561072457600080fd5b505afa158015610738573d6000803e3d6000fd5b505050506040513d601f19601f8201168201806040525081019061075c9190614338565b6001600160a01b0316146107825760405162461bcd60e51b815260040161045390614c35565b610794818461078f612693565b612697565b50505050565b6000828152606560205260409020600201546107b89061035661282c565b6107d45760405162461bcd60e51b815260040161045390614797565b61059f8282612830565b6107e661282c565b6001600160a01b0316816001600160a01b0316146108165760405162461bcd60e51b81526004016104539061500b565b61059f8282612899565b61084c7f65d7a28e3265b37a6474929f336521b332c1681b933f6cb9f3376673440d862a61035661282c565b6108685760405162461bcd60e51b8152600401610453906148bf565b610870612902565b565b600054610100900460ff168061088b575061088b61244f565b80610899575060005460ff16155b6108b55760405162461bcd60e51b815260040161045390614da9565b600054610100900460ff161580156108e0576000805460ff1961ff0019909116610100171660011790555b6108e983610410565b6101c580547fffffffffffffffffffffffff0000000000000000000000000000000000000000166001600160a01b038416179055801561092f576000805461ff00191690555b505050565b600054610100900460ff168061094d575061094d61244f565b8061095b575060005460ff16155b6109775760405162461bcd60e51b815260040161045390614da9565b600054610100900460ff161580156109a2576000805460ff1961ff0019909116610100171660011790555b6109aa6124d6565b80156109bc576000805461ff00191690555b50565b60975460009060ff16156109e55760405162461bcd60e51b815260040161045390614aa1565b3360009081526101c6602090815260408083206001600160a01b038b1684526101c7909252909120610a17888361296e565b610a335760405162461bcd60e51b81526004016104539061498a565b6000610a3d6129b6565b6001600160a01b0316639390bce06040518163ffffffff1660e01b8152600401610a6690614e9a565b602060405180830381600087803b158015610a8057600080fd5b505af1158015610a94573d6000803e3d6000fd5b505050506040513d601f19601f82011682018060405250810190610ab89190614338565b90506000819050806001600160a01b031663df8fa430308d338e8e8e8e8e6040518963ffffffff1660e01b8152600401610af99897969594939291906145aa565b600060405180830381600087803b158015610b1357600080fd5b505af1158015610b27573d6000803e3d6000fd5b505050506001848101805480830182556000918252602080832090910180547fffffffffffffffffffffffff00000000000000000000000000000000000000009081166001600160a01b038881169182179093558854958601895588855283852090950180548216861790558484526101c89092526040808420805490931685179092559051908e16917fc1d7685016f2246662e70fe17df916e959813e9ab93d50c4f039c0c069c5f37191a36101c5546001600160a01b0380831691632f2ff15d917fb19546dff01e856fb3f010c267a7b1c60363cf8a4664e21cc89c26224620214e91610c169116612a52565b6040518363ffffffff1660e01b8152600401610c3392919061468c565b600060405180830381600087803b158015610c4d57600080fd5b505af1158015610c61573d6000803e3d6000fd5b50506101c5546040517f3059b7c60000000000000000000000000000000000000000000000000000000081526001600160a01b038086169450633059b7c69350610caf921690600401614572565b600060405180830381600087803b158015610cc957600080fd5b505af1158015610cdd573d6000803e3d6000fd5b50939d9c50505050505050505050505050565b60975460ff1690565b60975460ff1615610d1c5760405162461bcd60e51b815260040161045390614aa1565b6001600160a01b0380831660009081526101c86020526040902054839116610d565760405162461bcd60e51b815260040161045390614bfe565b3360009081526101c7602052604090208054849190610d875760405162461bcd60e51b8152600401610453906149e7565b60008411610da75760405162461bcd60e51b815260040161045390614eab565b336001600160a01b0316826001600160a01b0316637df1f1b96040518163ffffffff1660e01b815260040160206040518083038186803b158015610dea57600080fd5b505afa158015610dfe573d6000803e3d6000fd5b505050506040513d601f19601f82011682018060405250810190610e229190614338565b6001600160a01b031614610e485760405162461bcd60e51b815260040161045390614c35565b610e5184612ad2565b610e6d5760405162461bcd60e51b815260040161045390614ad8565b610e778483612aed565b610e935760405162461bcd60e51b815260040161045390614ee2565b6000826001600160a01b031663b69ef8a86040518163ffffffff1660e01b815260040160206040518083038186803b158015610ece57600080fd5b505afa158015610ee2573d6000803e3d6000fd5b505050506040513d601f19601f82011682018060405250810190610f069190614537565b905080610fd857826001600160a01b03166352ee365e610f24612693565b6040518263ffffffff1660e01b8152600401610f409190614683565b600060405180830381600087803b158015610f5a57600080fd5b505af1158015610f6e573d6000803e3d6000fd5b50505050826001600160a01b03166351bc4953610f89612693565b6040518263ffffffff1660e01b8152600401610fa59190614683565b600060405180830381600087803b158015610fbf57600080fd5b505af1158015610fd3573d6000803e3d6000fd5b505050505b6101c554600090610ff1906001600160a01b0316612ba6565b90506000610ffe88612bb1565b9050600081156110e7578188111561102357508061101c8882612c45565b9750611028565b506000965b6040517f23b872dd0000000000000000000000000000000000000000000000000000000081526000906001600160a01b038516906323b872dd90611074908d9033908790600401614586565b602060405180830381600087803b15801561108e57600080fd5b505af11580156110a2573d6000803e3d6000fd5b505050506040513d601f19601f820116820180604052508101906110c69190614402565b9050806110e55760405162461bcd60e51b815260040161045390614953565b505b6000806110fb886110f6612693565b612c87565b909250905061110a868b612e48565b955061111888878484612e6d565b6111218861331f565b1561113e5760405162461bcd60e51b81526004016104539061482b565b6001600160a01b038816337f7ec4669c579321a5cf5a6b525637eb0924a93e2e11eab9d14be8b44de1116b1b6111748d87612e48565b6040516111819190614683565b60405180910390a36000856001600160a01b03166323b872dd87338e6040518463ffffffff1660e01b81526004016111bb93929190614586565b602060405180830381600087803b1580156111d557600080fd5b505af11580156111e9573d6000803e3d6000fd5b505050506040513d601f19601f8201168201806040525081019061120d9190614402565b90508061122c5760405162461bcd60e51b815260040161045390614953565b505050505050505050505050565b61168081565b6101c5546001600160a01b031681565b6101c66020526000908152604090205481565b60975460609060ff16156112895760405162461bcd60e51b815260040161045390614aa1565b6001600160a01b03821660009081526101c66020908152604091829020600101805483518184028101840190945280845290918301828280156112f557602002820191906000526020600020905b81546001600160a01b031681526001909101906020018083116112d7575b50505050509050919050565b61132d7f65d7a28e3265b37a6474929f336521b332c1681b933f6cb9f3376673440d862a61035661282c565b6113495760405162461bcd60e51b8152600401610453906148bf565b6108706133ec565b60008281526065602052604081206113699083613445565b90505b92915050565b60008281526065602052604081206113699083613451565b6001600160a01b0380831660009081526101c8602052604081205490918491166113c65760405162461bcd60e51b815260040161045390614bfe565b826113d6576113d3612693565b92505b6000849050806001600160a01b031663500b245e6040518163ffffffff1660e01b815260040160206040518083038186803b15801561141457600080fd5b505afa158015611428573d6000803e3d6000fd5b505050506040513d601f19601f8201168201806040525081019061144c9190614537565b84108015611460575061145e8161331f565b155b1561146f5760009250506115dc565b6101c554600090819073__$1dcd660c042b25ef260537b13a3f0ede49$__9063101c843090859089906114aa906001600160a01b0316613466565b6040518463ffffffff1660e01b81526004016114c89392919061460a565b604080518083038186803b1580156114df57600080fd5b505af41580156114f3573d6000803e3d6000fd5b505050506040513d601f19601f82011682018060405250810190611517919061454f565b915091506115d661159982856001600160a01b031663193501146040518163ffffffff1660e01b815260040160206040518083038186803b15801561155b57600080fd5b505afa15801561156f573d6000803e3d6000fd5b505050506040513d601f19601f820116820180604052508101906115939190614537565b90612e48565b61159384866001600160a01b03166321856b366040518163ffffffff1660e01b815260040160206040518083038186803b15801561155b57600080fd5b94505050505b5092915050565b6115eb611f8e565b6116075760405162461bcd60e51b815260040161045390614fae565b6000876001600160a01b031663a4d66daf6040518163ffffffff1660e01b815260040160206040518083038186803b15801561164257600080fd5b505afa158015611656573d6000803e3d6000fd5b505050506040513d601f19601f8201168201806040525081019061167a9190614537565b116116975760405162461bcd60e51b815260040161045390614b92565b60006116a78787878787876109bf565b90506000819050806001600160a01b031663fb1669ca8a6001600160a01b031663b69ef8a86040518163ffffffff1660e01b815260040160206040518083038186803b1580156116f657600080fd5b505afa15801561170a573d6000803e3d6000fd5b505050506040513d601f19601f8201168201806040525081019061172e9190614537565b6040518263ffffffff1660e01b815260040161174a9190614683565b600060405180830381600087803b15801561176457600080fd5b505af1158015611778573d6000803e3d6000fd5b50505050806001600160a01b03166396c8df378a6001600160a01b03166321856b366040518163ffffffff1660e01b815260040160206040518083038186803b1580156117c457600080fd5b505afa1580156117d8573d6000803e3d6000fd5b505050506040513d601f19601f820116820180604052508101906117fc9190614537565b6040518263ffffffff1660e01b81526004016118189190614683565b600060405180830381600087803b15801561183257600080fd5b505af1158015611846573d6000803e3d6000fd5b50505050806001600160a01b031663b3b8a9c78a6001600160a01b031663193501146040518163ffffffff1660e01b815260040160206040518083038186803b15801561189257600080fd5b505afa1580156118a6573d6000803e3d6000fd5b505050506040513d601f19601f820116820180604052508101906118ca9190614537565b6040518263ffffffff1660e01b81526004016118e69190614683565b600060405180830381600087803b15801561190057600080fd5b505af1158015611914573d6000803e3d6000fd5b50505050806001600160a01b031663fb9eb9908a6001600160a01b0316631790ebd56040518163ffffffff1660e01b815260040160206040518083038186803b15801561196057600080fd5b505afa158015611974573d6000803e3d6000fd5b505050506040513d601f19601f820116820180604052508101906119989190614537565b6040518263ffffffff1660e01b81526004016119b49190614683565b600060405180830381600087803b1580156119ce57600080fd5b505af11580156119e2573d6000803e3d6000fd5b50505050806001600160a01b0316637957dda38a6001600160a01b031663500b245e6040518163ffffffff1660e01b815260040160206040518083038186803b158015611a2e57600080fd5b505afa158015611a42573d6000803e3d6000fd5b505050506040513d601f19601f82011682018060405250810190611a669190614537565b6040518263ffffffff1660e01b8152600401611a829190614683565b602060405180830381600087803b158015611a9c57600080fd5b505af1158015611ab0573d6000803e3d6000fd5b505050506040513d601f19601f82011682018060405250810190611ad49190614537565b50806001600160a01b03166352ee365e8a6001600160a01b031663408862d96040518163ffffffff1660e01b815260040160206040518083038186803b158015611b1d57600080fd5b505afa158015611b31573d6000803e3d6000fd5b505050506040513d601f19601f82011682018060405250810190611b559190614537565b6040518263ffffffff1660e01b8152600401611b719190614683565b600060405180830381600087803b158015611b8b57600080fd5b505af1158015611b9f573d6000803e3d6000fd5b50505050806001600160a01b0316632771eca88a6001600160a01b031663cc862de56040518163ffffffff1660e01b815260040160206040518083038186803b158015611beb57600080fd5b505afa158015611bff573d6000803e3d6000fd5b505050506040513d601f19601f82011682018060405250810190611c239190614537565b6040518263ffffffff1660e01b8152600401611c3f9190614683565b600060405180830381600087803b158015611c5957600080fd5b505af1158015611c6d573d6000803e3d6000fd5b50505050806001600160a01b03166351bc49538a6001600160a01b031663bfe976a96040518163ffffffff1660e01b815260040160206040518083038186803b158015611cb957600080fd5b505afa158015611ccd573d6000803e3d6000fd5b505050506040513d601f19601f82011682018060405250810190611cf19190614537565b6040518263ffffffff1660e01b8152600401611d0d9190614683565b600060405180830381600087803b158015611d2757600080fd5b505af1158015611d3b573d6000803e3d6000fd5b50506040517f27ea6f2b0000000000000000000000000000000000000000000000000000000081526001600160a01b038c1692506327ea6f2b9150611d8590600090600401614683565b600060405180830381600087803b158015611d9f57600080fd5b505af1158015611db3573d6000803e3d6000fd5b50506040517ffb1669ca0000000000000000000000000000000000000000000000000000000081526001600160a01b038c16925063fb1669ca9150611dfd90600090600401614683565b600060405180830381600087803b158015611e1757600080fd5b505af1158015611e2b573d6000803e3d6000fd5b50506101c55460009250611e4891506001600160a01b0316612ba6565b6101c5546001600160a01b03918216916323b872dd918d918691611e6c9116613496565b6001600160a01b03166370a082318f6040518263ffffffff1660e01b8152600401611e979190614572565b60206040518083038186803b158015611eaf57600080fd5b505afa158015611ec3573d6000803e3d6000fd5b505050506040513d601f19601f82011682018060405250810190611ee79190614537565b6040518463ffffffff1660e01b8152600401611f0593929190614586565b602060405180830381600087803b158015611f1f57600080fd5b505af1158015611f33573d6000803e3d6000fd5b505050506040513d601f19601f82011682018060405250810190611f579190614402565b905080611f765760405162461bcd60e51b815260040161045390614888565b50505050505050505050565b600081565b6101c35481565b6000611fbc7fb19546dff01e856fb3f010c267a7b1c60363cf8a4664e21cc89c26224620214e61035661282c565b905090565b60975460609060ff1615611fe75760405162461bcd60e51b815260040161045390614aa1565b6001600160a01b03821660009081526101c76020908152604091829020805483518184028101840190945280845290918301828280156112f5576020028201919060005260206000209081546001600160a01b031681526001909101906020018083116112d75750505050509050919050565b60975460ff161561207d5760405162461bcd60e51b815260040161045390614aa1565b6001600160a01b0380831660009081526101c860205260409020548391166120b75760405162461bcd60e51b815260040161045390614bfe565b600082116120d75760405162461bcd60e51b815260040161045390614f40565b826120e281846134a1565b6107948461218b565b600081815260656020526040812061136c906135ca565b6000828152606560205260409020600201546121209061035661282c565b6108165760405162461bcd60e51b815260040161045390614a44565b7fb19546dff01e856fb3f010c267a7b1c60363cf8a4664e21cc89c26224620214e81565b7f65d7a28e3265b37a6474929f336521b332c1681b933f6cb9f3376673440d862a81565b6101c45481565b60975460ff16156121ae5760405162461bcd60e51b815260040161045390614aa1565b6001600160a01b0380821660009081526101c860205260409020548291166121e85760405162461bcd60e51b815260040161045390614bfe565b60008290506000816001600160a01b031663b69ef8a86040518163ffffffff1660e01b815260040160206040518083038186803b15801561222857600080fd5b505afa15801561223c573d6000803e3d6000fd5b505050506040513d601f19601f820116820180604052508101906122609190614537565b1161227d5760405162461bcd60e51b815260040161045390614c92565b806001600160a01b031663500b245e6040518163ffffffff1660e01b815260040160206040518083038186803b1580156122b657600080fd5b505afa1580156122ca573d6000803e3d6000fd5b505050506040513d601f19601f820116820180604052508101906122ee9190614537565b6122f6612693565b10801561230957506123078161331f565b155b15612314575061059f565b6000816001600160a01b0316637957dda361232e846135d5565b6040518263ffffffff1660e01b815260040161234a9190614683565b602060405180830381600087803b15801561236457600080fd5b505af1158015612378573d6000803e3d6000fd5b505050506040513d601f19601f8201168201806040525081019061239c9190614537565b90506123a6612693565b81111561243c57600061242c611680846001600160a01b03166399dd8df36040518163ffffffff1660e01b815260040160206040518083038186803b1580156123ee57600080fd5b505afa158015612402573d6000803e3d6000fd5b505050506040513d601f19601f820116820180604052508101906124269190614537565b90613858565b90506124388282612c45565b9150505b6107948261244984612bb1565b83612697565b303b1590565b600054610100900460ff168061246e575061246e61244f565b8061247c575060005460ff16155b6124985760405162461bcd60e51b815260040161045390614da9565b600054610100900460ff161580156109aa576000805460ff1961ff00199091166101001716600117905580156109bc576000805461ff001916905550565b600054610100900460ff16806124ef57506124ef61244f565b806124fd575060005460ff16155b6125195760405162461bcd60e51b815260040161045390614da9565b600054610100900460ff16158015612544576000805460ff1961ff0019909116610100171660011790555b6097805460ff1916905580156109bc576000805461ff001916905550565b600054610100900460ff168061257b575061257b61244f565b80612589575060005460ff16155b6125a55760405162461bcd60e51b815260040161045390614da9565b600054610100900460ff161580156125d0576000805460ff1961ff0019909116610100171660011790555b60c9805460ff1916600117905580156109bc576000805461ff001916905550565b60009182526065602052604090912060020155565b6101c5546000906001600160a01b031663fc56365860025b6040518263ffffffff1660e01b815260040161263a9190614683565b60206040518083038186803b15801561265257600080fd5b505afa158015612666573d6000803e3d6000fd5b505050506040513d601f19601f8201168201806040525081019061268a9190614537565b90911115919050565b4390565b60008060006126a7868686613892565b6101c55492955090935091506000906126c8906001600160a01b0316612ba6565b90506126d48782613b0d565b60008311806126e35750600082115b1561282357866001600160a01b0316876001600160a01b0316637df1f1b96040518163ffffffff1660e01b815260040160206040518083038186803b15801561272b57600080fd5b505afa15801561273f573d6000803e3d6000fd5b505050506040513d601f19601f820116820180604052508101906127639190614338565b6001600160a01b03167f724fe786cff62c97ff230e98a332f95c5a11990e44123a00c2b8e76b0566e41185858860405161279f93929190615068565b60405180910390a36040517f71bb0bab0000000000000000000000000000000000000000000000000000000081526001600160a01b038216906371bb0bab906127f0908a908790879060040161460a565b600060405180830381600087803b15801561280a57600080fd5b505af115801561281e573d6000803e3d6000fd5b505050505b50505050505050565b3390565b60008281526065602052604090206128489082613de7565b1561059f5761285561282c565b6001600160a01b0316816001600160a01b0316837f2f8788117e7eff1d82e926ec794901d17c78024a50270940304540a733656f0d60405160405180910390a45050565b60008281526065602052604090206128b19082613dfc565b1561059f576128be61282c565b6001600160a01b0316816001600160a01b0316837ff6391f5c32d9c69d2a47ea670b442974b53935d1edc7fd64eb21e047a839171b60405160405180910390a45050565b60975460ff166129245760405162461bcd60e51b8152600401610453906147f4565b6097805460ff191690557f5db9ee0a495bf2e6ff9c91a7834c1ba4fdd244a5e8aa4e537bd38aeae4b073aa61295761282c565b6040516129649190614572565b60405180910390a1565b805460009061298f5760405162461bcd60e51b815260040161045390614b35565b600061299a83613e11565b905060006129a88286612e48565b845410159250505092915050565b6101c5546040517fb93f9b0a0000000000000000000000000000000000000000000000000000000081526000916001600160a01b03169063b93f9b0a90612a0290600290600401614683565b60206040518083038186803b158015612a1a57600080fd5b505afa158015612a2e573d6000803e3d6000fd5b505050506040513d601f19601f82011682018060405250810190611fbc9190614338565b60006001600160a01b03821663b93f9b0a60075b6040518263ffffffff1660e01b8152600401612a829190614683565b60206040518083038186803b158015612a9a57600080fd5b505afa158015612aae573d6000803e3d6000fd5b505050506040513d601f19601f8201168201806040525081019061136c9190614338565b6101c5546000906001600160a01b031663fc5636588261261e565b6000816001600160a01b031663a4d66daf6040518163ffffffff1660e01b815260040160206040518083038186803b158015612b2857600080fd5b505afa158015612b3c573d6000803e3d6000fd5b505050506040513d601f19601f82011682018060405250810190612b609190614537565b612b9d84846001600160a01b031663b69ef8a86040518163ffffffff1660e01b815260040160206040518083038186803b15801561155b57600080fd5b11159392505050565b600061136c82613ee5565b6101c554600090612bca906001600160a01b0316613496565b6001600160a01b03166370a08231836040518263ffffffff1660e01b8152600401612bf59190614572565b60206040518083038186803b158015612c0d57600080fd5b505afa158015612c21573d6000803e3d6000fd5b505050506040513d601f19601f8201168201806040525081019061136c9190614537565b600061136983836040518060400160405280601e81526020017f536166654d6174683a207375627472616374696f6e206f766572666c6f770000815250613efc565b60008060008073__$1dcd660c042b25ef260537b13a3f0ede49$__63101c84308787612cd16101c560009054906101000a90046001600160a01b03166001600160a01b0316613466565b6040518463ffffffff1660e01b8152600401612cef9392919061460a565b604080518083038186803b158015612d0657600080fd5b505af4158015612d1a573d6000803e3d6000fd5b505050506040513d601f19601f82011682018060405250810190612d3e919061454f565b90925090508115612dc1576040517f52ee365e0000000000000000000000000000000000000000000000000000000081526001600160a01b038716906352ee365e90612d8e908890600401614683565b600060405180830381600087803b158015612da857600080fd5b505af1158015612dbc573d6000803e3d6000fd5b505050505b612dfe82876001600160a01b03166321856b366040518163ffffffff1660e01b815260040160206040518083038186803b15801561155b57600080fd5b612e3b82886001600160a01b031663193501146040518163ffffffff1660e01b815260040160206040518083038186803b15801561155b57600080fd5b9350935050509250929050565b6000828201838110156113695760405162461bcd60e51b81526004016104539061491c565b60c95460ff16612e8f5760405162461bcd60e51b815260040161045390614f77565b60c9805460ff19169055604080517fb69ef8a80000000000000000000000000000000000000000000000000000000081529051612f39916001600160a01b0387169163b69ef8a891600480820192602092909190829003018186803b158015612ef757600080fd5b505afa158015612f0b573d6000803e3d6000fd5b505050506040513d601f19601f82011682018060405250810190612f2f9190614537565b6101c45490612c45565b6101c4556040517ffb1669ca0000000000000000000000000000000000000000000000000000000081526001600160a01b0385169063fb1669ca90612f82908690600401614683565b600060405180830381600087803b158015612f9c57600080fd5b505af1158015612fb0573d6000803e3d6000fd5b50506040517f96c8df370000000000000000000000000000000000000000000000000000000081526001600160a01b03871692506396c8df379150612ff9908590600401614683565b600060405180830381600087803b15801561301357600080fd5b505af1158015613027573d6000803e3d6000fd5b50506040517fb3b8a9c70000000000000000000000000000000000000000000000000000000081526001600160a01b038716925063b3b8a9c79150613070908490600401614683565b600060405180830381600087803b15801561308a57600080fd5b505af115801561309e573d6000803e3d6000fd5b505050506000846001600160a01b031663500b245e6040518163ffffffff1660e01b815260040160206040518083038186803b1580156130dd57600080fd5b505afa1580156130f1573d6000803e3d6000fd5b505050506040513d601f19601f820116820180604052508101906131159190614537565b90508215801561312457508015155b1561320b57600081613134612693565b101561318f57600061317b611680886001600160a01b03166399dd8df36040518163ffffffff1660e01b815260040160206040518083038186803b1580156123ee57600080fd5b90506131878382612c45565b915050613192565b50805b6040517f51bc49530000000000000000000000000000000000000000000000000000000081526001600160a01b038716906351bc4953906131d7908490600401614683565b600060405180830381600087803b1580156131f157600080fd5b505af1158015613205573d6000803e3d6000fd5b50505050505b6101c4546132199085612e48565b6101c4556001600160a01b03851663fb9eb9906132368787613f28565b6040518263ffffffff1660e01b81526004016132529190614683565b600060405180830381600087803b15801561326c57600080fd5b505af1158015613280573d6000803e3d6000fd5b50505050846001600160a01b0316637957dda361329c876135d5565b6040518263ffffffff1660e01b81526004016132b89190614683565b602060405180830381600087803b1580156132d257600080fd5b505af11580156132e6573d6000803e3d6000fd5b505050506040513d601f19601f8201168201806040525081019061330a9190614537565b505060c9805460ff1916600117905550505050565b6000806133a4836001600160a01b031663bfe976a96040518163ffffffff1660e01b815260040160206040518083038186803b15801561335e57600080fd5b505afa158015613372573d6000803e3d6000fd5b505050506040513d601f19601f820116820180604052508101906133969190614537565b61339e612693565b90612c45565b90506133e5611680846001600160a01b03166399dd8df36040518163ffffffff1660e01b815260040160206040518083038186803b1580156123ee57600080fd5b1092915050565b60975460ff161561340f5760405162461bcd60e51b815260040161045390614aa1565b6097805460ff191660011790557f62e78cea01bee320cd4e420270b5ea74000d11b0c9f74754ebdbfc544b05a25861295761282c565b600061136983836140ad565b6000611369836001600160a01b0384166140f2565b60006001600160a01b03821663fc56365860055b6040518263ffffffff1660e01b8152600401612bf59190614683565b600061136c8261410a565b6134aa81612ad2565b6134c65760405162461bcd60e51b815260040161045390614ad8565b816001600160a01b0316336001600160a01b03167fc4036209c61f1d5aad789d2b8fa9ca23bf8b1516748d2e0be7227bf3fce67d2d836040516135099190614683565b60405180910390a36101c55460009061352a906001600160a01b0316612ba6565b6001600160a01b03166323b872dd3385856040518463ffffffff1660e01b815260040161355993929190614586565b602060405180830381600087803b15801561357357600080fd5b505af1158015613587573d6000803e3d6000fd5b505050506040513d601f19601f820116820180604052508101906135ab9190614402565b90508061092f5760405162461bcd60e51b815260040161045390614e06565b600061136c82614122565b600080613617611680846001600160a01b03166399dd8df36040518163ffffffff1660e01b815260040160206040518083038186803b1580156123ee57600080fd5b90506000836001600160a01b031663b69ef8a86040518163ffffffff1660e01b815260040160206040518083038186803b15801561365457600080fd5b505afa158015613668573d6000803e3d6000fd5b505050506040513d601f19601f8201168201806040525081019061368c9190614537565b90506000846001600160a01b031663500b245e6040518163ffffffff1660e01b815260040160206040518083038186803b1580156136c957600080fd5b505afa1580156136dd573d6000803e3d6000fd5b505050506040513d601f19601f820116820180604052508101906137019190614537565b9050600061370d612693565b90508115801561371d5750600083115b156137375761372c8185612e48565b94505050505061067a565b6000831180156137475750818110155b1561380257600061376b85612426600161159383613765888a612c45565b90614126565b905060006137798483612e48565b90506137f581896001600160a01b0316631790ebd56040518163ffffffff1660e01b815260040160206040518083038186803b1580156137b857600080fd5b505afa1580156137cc573d6000803e3d6000fd5b505050506040513d601f19601f820116820180604052508101906137f09190614537565b614168565b965050505050505061067a565b8215801561380f57508115155b1561382157600094505050505061067a565b60008311801561383057508181105b156138405750925061067a915050565b60405162461bcd60e51b815260040161045390614d4c565b6000826138675750600061136c565b8282028284828161387457fe5b04146113695760405162461bcd60e51b815260040161045390614cef565b60008060008060006138a48887612c87565b915091506138b06142fb565b73__$1dcd660c042b25ef260537b13a3f0ede49$__63d7cc2a03898b6001600160a01b031663b69ef8a86040518163ffffffff1660e01b815260040160206040518083038186803b15801561390457600080fd5b505afa158015613918573d6000803e3d6000fd5b505050506040513d601f19601f8201168201806040525081019061393c9190614537565b86866040518563ffffffff1660e01b815260040161395d949392919061507e565b60606040518083038186803b15801561397557600080fd5b505af4158015613989573d6000803e3d6000fd5b505050506040513d601f19601f820116820180604052508101906139ad91906144e0565b90506000613a2a82602001518b6001600160a01b031663b69ef8a86040518163ffffffff1660e01b815260040160206040518083038186803b1580156139f257600080fd5b505afa158015613a06573d6000803e3d6000fd5b505050506040513d601f19601f8201168201806040525081019061339e9190614537565b9050613a43826040015182612c4590919063ffffffff16565b90506000613a84828c6001600160a01b031663b69ef8a86040518163ffffffff1660e01b815260040160206040518083038186803b1580156139f257600080fd5b90506000613aa38261339e86600001518e612c4590919063ffffffff16565b9050613ad68c84613ac187600001518a612c4590919063ffffffff16565b6020880151613ad1908a90612c45565b612e6d565b8a613af283611593876000015185612e4890919063ffffffff16565b14613af957fe5b9251929b929a509850909650505050505050565b60008073__$1dcd660c042b25ef260537b13a3f0ede49$__63ca57356885613b33612693565b6101c554613b49906001600160a01b0316613466565b6101c554613b5f906001600160a01b031661417e565b6040518563ffffffff1660e01b8152600401613b7e94939291906146a3565b604080518083038186803b158015613b9557600080fd5b505af4158015613ba9573d6000803e3d6000fd5b505050506040513d601f19601f82011682018060405250810190613bcd919061454f565b91509150816000148015613c4f5750836001600160a01b031663cc862de56040518163ffffffff1660e01b815260040160206040518083038186803b158015613c1557600080fd5b505afa158015613c29573d6000803e3d6000fd5b505050506040513d601f19601f82011682018060405250810190613c4d9190614537565b155b15613c5b57505061059f565b600081856001600160a01b031663cc862de56040518163ffffffff1660e01b815260040160206040518083038186803b158015613c9757600080fd5b505afa158015613cab573d6000803e3d6000fd5b505050506040513d601f19601f82011682018060405250810190613ccf9190614537565b039050846001600160a01b0316632771eca8836040518263ffffffff1660e01b8152600401613cfe9190614683565b600060405180830381600087803b158015613d1857600080fd5b505af1158015613d2c573d6000803e3d6000fd5b505050506000811315613d50576101c354613d479082612c45565b6101c355613d67565b6101c354613d62906000839003612e48565b6101c3555b6040517f338744bc0000000000000000000000000000000000000000000000000000000081526001600160a01b0385169063338744bc90613dae90889085906004016145f1565b600060405180830381600087803b158015613dc857600080fd5b505af1158015613ddc573d6000803e3d6000fd5b505050505050505050565b6000611369836001600160a01b038416614196565b6000611369836001600160a01b0384166141e0565b60018101546000908190815b81811015613edc576000856001018281548110613e3657fe5b9060005260206000200160009054906101000a90046001600160a01b03169050613ed1816001600160a01b031663a4d66daf6040518163ffffffff1660e01b815260040160206040518083038186803b158015613e9257600080fd5b505afa158015613ea6573d6000803e3d6000fd5b505050506040513d601f19601f82011682018060405250810190613eca9190614537565b8590612e48565b935050600101613e1d565b50909392505050565b60006001600160a01b03821663b93f9b0a82612a66565b60008184841115613f205760405162461bcd60e51b815260040161045391906146c9565b505050900390565b600081613f375750600061136c565b826001600160a01b0316631790ebd56040518163ffffffff1660e01b815260040160206040518083038186803b158015613f7057600080fd5b505afa158015613f84573d6000803e3d6000fd5b505050506040513d601f19601f82011682018060405250810190613fa89190614537565b1561402557826001600160a01b0316631790ebd56040518163ffffffff1660e01b815260040160206040518083038186803b158015613fe657600080fd5b505afa158015613ffa573d6000803e3d6000fd5b505050506040513d601f19601f8201168201806040525081019061401e9190614537565b905061136c565b6113696140a5846001600160a01b03166348e6f2966040518163ffffffff1660e01b815260040160206040518083038186803b15801561406457600080fd5b505afa158015614078573d6000803e3d6000fd5b505050506040513d601f19601f8201168201806040525081019061409c9190614537565b61168090613858565b611593612693565b815460009082106140d05760405162461bcd60e51b81526004016104539061473a565b8260000182815481106140df57fe5b9060005260206000200154905092915050565b60009081526001919091016020526040902054151590565b60006001600160a01b03821663b93f9b0a6005612a66565b5490565b600061136983836040518060400160405280601a81526020017f536166654d6174683a206469766973696f6e206279207a65726f0000000000008152506142c4565b60008183106141775781611369565b5090919050565b60006001600160a01b03821663fc563658600661347a565b60006141a283836140f2565b6141d85750815460018181018455600084815260208082209093018490558454848252828601909352604090209190915561136c565b50600061136c565b600081815260018301602052604081205480156142ba5783547fffffffffffffffffffffffffffffffffffffffffffffffffffffffffffffffff808301919081019060009087908390811061423157fe5b906000526020600020015490508087600001848154811061424e57fe5b60009182526020808320909101929092558281526001898101909252604090209084019055865487908061427e57fe5b6001900381819060005260206000200160009055905586600101600087815260200190815260200160002060009055600194505050505061136c565b600091505061136c565b600081836142e55760405162461bcd60e51b815260040161045391906146c9565b5060008385816142f157fe5b0495945050505050565b60405180606001604052806000815260200160008152602001600081525090565b60006020828403121561432d578081fd5b813561136981615099565b600060208284031215614349578081fd5b815161136981615099565b60008060408385031215614366578081fd5b823561437181615099565b9150602083013561438181615099565b809150509250929050565b6000806040838503121561439e578182fd5b82356143a981615099565b946020939093013593505050565b60008060008060008060c087890312156143cf578182fd5b86356143da81615099565b9860208801359850604088013597606081013597506080810135965060a00135945092505050565b600060208284031215614413578081fd5b81518015158114611369578182fd5b600060208284031215614433578081fd5b5035919050565b6000806040838503121561444c578182fd5b82359150602083013561438181615099565b60008060408385031215614470578182fd5b50508035926020909101359150565b600080600080600080600060e0888a031215614499578081fd5b87356144a481615099565b965060208801356144b481615099565b96999698505050506040850135946060810135946080820135945060a0820135935060c0909101359150565b6000606082840312156144f1578081fd5b6040516060810181811067ffffffffffffffff82111715614510578283fd5b80604052508251815260208301516020820152604083015160408201528091505092915050565b600060208284031215614548578081fd5b5051919050565b60008060408385031215614561578081fd5b505080516020909101519092909150565b6001600160a01b0391909116815260200190565b6001600160a01b039384168152919092166020820152604081019190915260600190565b6001600160a01b03988916815296881660208801529490961660408601526060850192909252608084015260a083015260c082019290925260e08101919091526101000190565b6001600160a01b03929092168252602082015260400190565b6001600160a01b039390931683526020830191909152604082015260600190565b6020808252825182820181905260009190848201906040850190845b8181101561466c5783516001600160a01b031683529284019291840191600101614647565b50909695505050505050565b901515815260200190565b90815260200190565b9182526001600160a01b0316602082015260400190565b6001600160a01b0394909416845260208401929092526040830152606082015260800190565b6000602080835283518082850152825b818110156146f5578581018301518582016040015282016146d9565b818111156147065783604083870101525b50601f017fffffffffffffffffffffffffffffffffffffffffffffffffffffffffffffffe016929092016040019392505050565b60208082526022908201527f456e756d657261626c655365743a20696e646578206f7574206f6620626f756e60408201527f6473000000000000000000000000000000000000000000000000000000000000606082015260800190565b6020808252602f908201527f416363657373436f6e74726f6c3a2073656e646572206d75737420626520616e60408201527f2061646d696e20746f206772616e740000000000000000000000000000000000606082015260800190565b60208082526014908201527f5061757361626c653a206e6f7420706175736564000000000000000000000000604082015260600190565b6020808252602a908201527f43616e6e6f742064726177646f776e207768656e207061796d656e747320617260408201527f6520706173742064756500000000000000000000000000000000000000000000606082015260800190565b60208082526018908201527f4661696c656420746f207472616e736665722066756e64730000000000000000604082015260600190565b6020808252602c908201527f4d75737420686176652070617573657220726f6c6520746f20706572666f726d60408201527f207468697320616374696f6e0000000000000000000000000000000000000000606082015260800190565b6020808252601b908201527f536166654d6174683a206164646974696f6e206f766572666c6f770000000000604082015260600190565b60208082526012908201527f4661696c656420746f2064726177646f776e0000000000000000000000000000604082015260600190565b6020808252602e908201527f54686520756e6465727772697465722063616e6e6f742063726561746520746860408201527f697320637265646974206c696e65000000000000000000000000000000000000606082015260800190565b60208082526027908201527f4e6f20637265646974206c696e657320657869737420666f722074686973206260408201527f6f72726f77657200000000000000000000000000000000000000000000000000606082015260800190565b60208082526030908201527f416363657373436f6e74726f6c3a2073656e646572206d75737420626520616e60408201527f2061646d696e20746f207265766f6b6500000000000000000000000000000000606082015260800190565b60208082526010908201527f5061757361626c653a2070617573656400000000000000000000000000000000604082015260600190565b60208082526028908201527f416d6f756e74206973206f76657220746865207065722d7472616e736163746960408201527f6f6e206c696d6974000000000000000000000000000000000000000000000000606082015260800190565b6020808252602a908201527f756e64657277726974657220646f6573206e6f74206861766520676f7665726e60408201527f616e6365206c696d697400000000000000000000000000000000000000000000606082015260800190565b6020808252601f908201527f43616e2774206d69677261746520656d70747920637265646974206c696e6500604082015260600190565b6020808252818101527f4f776e65722063616e6e6f7420626520746865207a65726f2061646472657373604082015260600190565b60208082526013908201527f556e6b6e6f776e20637265646974206c696e6500000000000000000000000000604082015260600190565b60208082526025908201527f596f7520646f206e6f742062656c6f6e6720746f20746869732063726564697460408201527f206c696e65000000000000000000000000000000000000000000000000000000606082015260800190565b60208082526027908201527f4d75737420686176652062616c616e636520746f20617373657373206372656460408201527f6974206c696e6500000000000000000000000000000000000000000000000000606082015260800190565b60208082526021908201527f536166654d6174683a206d756c7469706c69636174696f6e206f766572666c6f60408201527f7700000000000000000000000000000000000000000000000000000000000000606082015260800190565b6020808252602a908201527f4572726f723a20636f756c64206e6f742063616c63756c617465206e6578742060408201527f64756520626c6f636b2e00000000000000000000000000000000000000000000606082015260800190565b6020808252602e908201527f436f6e747261637420696e7374616e63652068617320616c726561647920626560408201527f656e20696e697469616c697a6564000000000000000000000000000000000000606082015260800190565b60208082526019908201527f4661696c656420746f20636f6c6c656374207061796d656e7400000000000000604082015260600190565b6020808252603a908201527f54686973206c696d69742069732067726561746572207468616e20746865206d60408201527f617820616c6c6f776564206279207468652070726f746f636f6c000000000000606082015260800190565b602080825260009082015260400190565b6020808252601c908201527f4d7573742064726177646f776e206d6f7265207468616e207a65726f00000000604082015260600190565b602080825260409082018190527f54686520626f72726f77657220646f6573206e6f74206861766520656e6f7567908201527f6820637265646974206c696d697420666f7220746869732064726177646f776e606082015260800190565b60208082526017908201527f4d75737420706179206d6f7265207468616e207a65726f000000000000000000604082015260600190565b6020808252601f908201527f5265656e7472616e637947756172643a207265656e7472616e742063616c6c00604082015260600190565b6020808252602b908201527f4d75737420686176652061646d696e20726f6c6520746f20706572666f726d2060408201527f7468697320616374696f6e000000000000000000000000000000000000000000606082015260800190565b6020808252602f908201527f416363657373436f6e74726f6c3a2063616e206f6e6c792072656e6f756e636560408201527f20726f6c657320666f722073656c660000000000000000000000000000000000606082015260800190565b9283526020830191909152604082015260600190565b93845260208401929092526040830152606082015260800190565b6001600160a01b03811681146109bc57600080fdfea2646970667358221220614471d61975b06ccb1731e982f40f5acb98b311d36e540ffb872cec90167f7564736f6c634300060c0033",
  "libraries": {
    "Accountant": "0x2331b1640358FF0EDAc6CC8d14329df6Ae4825C8"
  },
  "devdoc": {
    "author": "Goldfinch",
    "kind": "dev",
    "methods": {
      "assessCreditLine(address)": {
        "params": {
          "creditLineAddress": "The creditline that should be assessed."
        }
      },
      "createCreditLine(address,uint256,uint256,uint256,uint256,uint256)": {
        "params": {
          "_borrower": "The borrower for whom the CreditLine will be created",
          "_interestApr": "The interest amount, on an annualized basis (APR, so non-compounding), expressed as an integer.  We assume 8 digits of precision. For example, to submit 15.34%, you would pass up 15340000,  and 5.34% would be 5340000",
          "_lateFeeApr": "The additional interest you will pay if you are late. For example, if this is 3%, and your  normal rate is 15%, then you will pay 18% while you are late. Requirements: - the caller must be an underwriter with enough limit (see `setUnderwriterGovernanceLimit`)",
          "_limit": "The maximum amount a borrower can drawdown from this CreditLine",
          "_paymentPeriodInDays": "How many days in each payment period.  ie. the frequency with which they need to make payments.",
          "_termInDays": "Number of days in the credit term. It is used to set the `termEndBlock` upon first drawdown.  ie. The credit line should be fully paid off {_termIndays} days after the first drawdown."
        }
      },
      "drawdown(address,uint256)": {
        "params": {
          "amount": "The amount, in USDC atomic units, that a borrower wishes to drawdown Requirements: - the caller must be the borrower on the creditLine",
          "creditLineAddress": "The creditline from which they would like to drawdown"
        }
      },
      "getBorrowerCreditLines(address)": {
        "params": {
          "borrowerAddress": "The borrower address you would like to see the credit lines of."
        }
      },
      "getNextPaymentAmount(address,uint256)": {
        "params": {
          "asOfBLock": "The block to use for the payment calculation, if it is set to 0, uses the current block number",
          "creditLineAddress": "The creditLine to calculate the payment for"
        }
      },
      "getRoleAdmin(bytes32)": {
        "details": "Returns the admin role that controls `role`. See {grantRole} and {revokeRole}. To change a role's admin, use {_setRoleAdmin}."
      },
      "getRoleMember(bytes32,uint256)": {
        "details": "Returns one of the accounts that have `role`. `index` must be a value between 0 and {getRoleMemberCount}, non-inclusive. Role bearers are not sorted in any particular way, and their ordering may change at any point. WARNING: When using {getRoleMember} and {getRoleMemberCount}, make sure you perform all queries on the same block. See the following https://forum.openzeppelin.com/t/iterating-over-elements-on-enumerableset-in-openzeppelin-contracts/2296[forum post] for more information."
      },
      "getRoleMemberCount(bytes32)": {
        "details": "Returns the number of accounts that have `role`. Can be used together with {getRoleMember} to enumerate all bearers of a role."
      },
      "getUnderwriterCreditLines(address)": {
        "params": {
          "underwriterAddress": "The underwriter address you would like to see the credit lines of."
        }
      },
      "grantRole(bytes32,address)": {
        "details": "Grants `role` to `account`. If `account` had not been already granted `role`, emits a {RoleGranted} event. Requirements: - the caller must have ``role``'s admin role."
      },
      "hasRole(bytes32,address)": {
        "details": "Returns `true` if `account` has been granted `role`."
      },
      "initialize(address,address)": {
        "params": {
          "_config": "The address of the GoldfinchConfig contract",
          "owner": "The address of who should have the \"OWNER_ROLE\" of this contract"
        }
      },
      "pause()": {
        "details": "Pauses all functions guarded by Pause See {Pausable-_pause}. Requirements: - the caller must have the PAUSER_ROLE."
      },
      "paused()": {
        "details": "Returns true if the contract is paused, and false otherwise."
      },
      "pay(address,uint256)": {
        "params": {
          "amount": "The amount, in USDC atomic units, that a borrower wishes to pay",
          "creditLineAddress": "The credit line to be paid back"
        }
      },
      "renounceRole(bytes32,address)": {
        "details": "Revokes `role` from the calling account. Roles are often managed via {grantRole} and {revokeRole}: this function's purpose is to provide a mechanism for accounts to lose their privileges if they are compromised (such as when a trusted device is misplaced). If the calling account had been granted `role`, emits a {RoleRevoked} event. Requirements: - the caller must be `account`."
      },
      "revokeRole(bytes32,address)": {
        "details": "Revokes `role` from `account`. If `account` had been granted `role`, emits a {RoleRevoked} event. Requirements: - the caller must have ``role``'s admin role."
      },
      "setUnderwriterGovernanceLimit(address,uint256)": {
        "params": {
          "limit": "What the new limit will be set to Requirements: - the caller must have the `OWNER_ROLE`.",
          "underwriterAddress": "The address of the underwriter for whom the limit shall change"
        }
      },
      "unpause()": {
        "details": "Unpauses the contract See {Pausable-_unpause}. Requirements: - the caller must have the Pauser role"
      }
    },
    "title": "Goldfinch's CreditDesk contract",
    "version": 1
  },
  "userdoc": {
    "kind": "user",
    "methods": {
      "assessCreditLine(address)": {
        "notice": "Assesses a particular creditLine. This will apply payments, which will update accounting and  distribute gains or losses back to the pool accordingly. This function is idempotent, and anyone  is allowed to call it."
      },
      "createCreditLine(address,uint256,uint256,uint256,uint256,uint256)": {
        "notice": "Allows an underwriter to create a new CreditLine for a single borrower"
      },
      "drawdown(address,uint256)": {
        "notice": "Allows a borrower to drawdown on their creditline.  `amount` USDC is sent to the borrower, and the credit line accounting is updated."
      },
      "getBorrowerCreditLines(address)": {
        "notice": "Simple getter for the creditlines of a given borrower"
      },
      "getNextPaymentAmount(address,uint256)": {
        "notice": "Returns the total payment due for a given creditLine as of the provided blocknumber. Returns 0 if no payment is due (e.g. asOfBLock is before the nextDueBlock)"
      },
      "getUnderwriterCreditLines(address)": {
        "notice": "Simple getter for the creditlines of a given underwriter"
      },
      "initialize(address,address)": {
        "notice": "Run only once, on initialization"
      },
      "pay(address,uint256)": {
        "notice": "Allows a borrower to repay their loan. Payment is *collected* immediately (by sending it to  the individual CreditLine), but it is not *applied* unless it is after the nextDueBlock, or until we assess  the credit line (ie. payment period end).  Any amounts over the minimum payment will be applied to outstanding principal (reducing the effective  interest rate). If there is still any left over, it will remain in the USDC Balance  of the CreditLine, which is held distinct from the Pool amounts, and can not be withdrawn by LP's."
      },
      "setUnderwriterGovernanceLimit(address,uint256)": {
        "notice": "Sets a particular underwriter's limit of how much credit the DAO will allow them to \"create\""
      }
    },
    "notice": "Main entry point for borrowers and underwriters.  Handles key logic for creating CreditLine's, borrowing money, repayment, etc.",
    "version": 1
  },
  "storageLayout": {
    "storage": [
      {
        "astId": 151,
        "contract": "contracts/protocol/core/CreditDesk.sol:CreditDesk",
        "label": "initialized",
        "offset": 0,
        "slot": "0",
        "type": "t_bool"
      },
      {
        "astId": 154,
        "contract": "contracts/protocol/core/CreditDesk.sol:CreditDesk",
        "label": "initializing",
        "offset": 1,
        "slot": "0",
        "type": "t_bool"
      },
      {
        "astId": 219,
        "contract": "contracts/protocol/core/CreditDesk.sol:CreditDesk",
        "label": "______gap",
        "offset": 0,
        "slot": "1",
        "type": "t_array(t_uint256)50_storage"
      },
      {
        "astId": 144,
        "contract": "contracts/protocol/core/CreditDesk.sol:CreditDesk",
        "label": "__gap",
        "offset": 0,
        "slot": "51",
        "type": "t_array(t_uint256)50_storage"
      },
      {
        "astId": 264,
        "contract": "contracts/protocol/core/CreditDesk.sol:CreditDesk",
        "label": "_roles",
        "offset": 0,
        "slot": "101",
        "type": "t_mapping(t_bytes32,t_struct(RoleData)260_storage)"
      },
      {
        "astId": 509,
        "contract": "contracts/protocol/core/CreditDesk.sol:CreditDesk",
        "label": "__gap",
        "offset": 0,
        "slot": "102",
        "type": "t_array(t_uint256)49_storage"
      },
      {
        "astId": 2385,
        "contract": "contracts/protocol/core/CreditDesk.sol:CreditDesk",
        "label": "_paused",
        "offset": 0,
        "slot": "151",
        "type": "t_bool"
      },
      {
        "astId": 2474,
        "contract": "contracts/protocol/core/CreditDesk.sol:CreditDesk",
        "label": "__gap",
        "offset": 0,
        "slot": "152",
        "type": "t_array(t_uint256)49_storage"
      },
      {
        "astId": 2483,
        "contract": "contracts/protocol/core/CreditDesk.sol:CreditDesk",
        "label": "_notEntered",
        "offset": 0,
        "slot": "201",
        "type": "t_bool"
      },
      {
        "astId": 2524,
        "contract": "contracts/protocol/core/CreditDesk.sol:CreditDesk",
        "label": "__gap",
        "offset": 0,
        "slot": "202",
        "type": "t_array(t_uint256)49_storage"
      },
      {
        "astId": 4742,
        "contract": "contracts/protocol/core/CreditDesk.sol:CreditDesk",
        "label": "__gap1",
        "offset": 0,
        "slot": "251",
        "type": "t_array(t_uint256)50_storage"
      },
      {
        "astId": 4746,
        "contract": "contracts/protocol/core/CreditDesk.sol:CreditDesk",
        "label": "__gap2",
        "offset": 0,
        "slot": "301",
        "type": "t_array(t_uint256)50_storage"
      },
      {
        "astId": 4750,
        "contract": "contracts/protocol/core/CreditDesk.sol:CreditDesk",
        "label": "__gap3",
        "offset": 0,
        "slot": "351",
        "type": "t_array(t_uint256)50_storage"
      },
      {
        "astId": 4754,
        "contract": "contracts/protocol/core/CreditDesk.sol:CreditDesk",
        "label": "__gap4",
        "offset": 0,
        "slot": "401",
        "type": "t_array(t_uint256)50_storage"
      },
      {
        "astId": 4035,
        "contract": "contracts/protocol/core/CreditDesk.sol:CreditDesk",
        "label": "totalWritedowns",
        "offset": 0,
        "slot": "451",
        "type": "t_uint256"
      },
      {
        "astId": 4037,
        "contract": "contracts/protocol/core/CreditDesk.sol:CreditDesk",
        "label": "totalLoansOutstanding",
        "offset": 0,
        "slot": "452",
        "type": "t_uint256"
      },
      {
        "astId": 5319,
        "contract": "contracts/protocol/core/CreditDesk.sol:CreditDesk",
        "label": "config",
        "offset": 0,
        "slot": "453",
        "type": "t_contract(GoldfinchConfig)8044"
      },
      {
        "astId": 5376,
        "contract": "contracts/protocol/core/CreditDesk.sol:CreditDesk",
        "label": "underwriters",
        "offset": 0,
        "slot": "454",
        "type": "t_mapping(t_address,t_struct(Underwriter)5328_storage)"
      },
      {
        "astId": 5380,
        "contract": "contracts/protocol/core/CreditDesk.sol:CreditDesk",
        "label": "borrowers",
        "offset": 0,
        "slot": "455",
        "type": "t_mapping(t_address,t_struct(Borrower)5332_storage)"
      },
      {
        "astId": 5384,
        "contract": "contracts/protocol/core/CreditDesk.sol:CreditDesk",
        "label": "creditLines",
        "offset": 0,
        "slot": "456",
        "type": "t_mapping(t_address,t_address)"
      }
    ],
    "types": {
      "t_address": {
        "encoding": "inplace",
        "label": "address",
        "numberOfBytes": "20"
      },
      "t_array(t_address)dyn_storage": {
        "base": "t_address",
        "encoding": "dynamic_array",
        "label": "address[]",
        "numberOfBytes": "32"
      },
      "t_array(t_bytes32)dyn_storage": {
        "base": "t_bytes32",
        "encoding": "dynamic_array",
        "label": "bytes32[]",
        "numberOfBytes": "32"
      },
      "t_array(t_uint256)49_storage": {
        "base": "t_uint256",
        "encoding": "inplace",
        "label": "uint256[49]",
        "numberOfBytes": "1568"
      },
      "t_array(t_uint256)50_storage": {
        "base": "t_uint256",
        "encoding": "inplace",
        "label": "uint256[50]",
        "numberOfBytes": "1600"
      },
      "t_bool": {
        "encoding": "inplace",
        "label": "bool",
        "numberOfBytes": "1"
      },
      "t_bytes32": {
        "encoding": "inplace",
        "label": "bytes32",
        "numberOfBytes": "32"
      },
      "t_contract(GoldfinchConfig)8044": {
        "encoding": "inplace",
        "label": "contract GoldfinchConfig",
        "numberOfBytes": "20"
      },
      "t_mapping(t_address,t_address)": {
        "encoding": "mapping",
        "key": "t_address",
        "label": "mapping(address => address)",
        "numberOfBytes": "32",
        "value": "t_address"
      },
      "t_mapping(t_address,t_struct(Borrower)5332_storage)": {
        "encoding": "mapping",
        "key": "t_address",
        "label": "mapping(address => struct CreditDesk.Borrower)",
        "numberOfBytes": "32",
        "value": "t_struct(Borrower)5332_storage"
      },
      "t_mapping(t_address,t_struct(Underwriter)5328_storage)": {
        "encoding": "mapping",
        "key": "t_address",
        "label": "mapping(address => struct CreditDesk.Underwriter)",
        "numberOfBytes": "32",
        "value": "t_struct(Underwriter)5328_storage"
      },
      "t_mapping(t_bytes32,t_struct(RoleData)260_storage)": {
        "encoding": "mapping",
        "key": "t_bytes32",
        "label": "mapping(bytes32 => struct AccessControlUpgradeSafe.RoleData)",
        "numberOfBytes": "32",
        "value": "t_struct(RoleData)260_storage"
      },
      "t_mapping(t_bytes32,t_uint256)": {
        "encoding": "mapping",
        "key": "t_bytes32",
        "label": "mapping(bytes32 => uint256)",
        "numberOfBytes": "32",
        "value": "t_uint256"
      },
      "t_struct(AddressSet)2160_storage": {
        "encoding": "inplace",
        "label": "struct EnumerableSet.AddressSet",
        "members": [
          {
            "astId": 2159,
            "contract": "contracts/protocol/core/CreditDesk.sol:CreditDesk",
            "label": "_inner",
            "offset": 0,
            "slot": "0",
            "type": "t_struct(Set)1980_storage"
          }
        ],
        "numberOfBytes": "64"
      },
      "t_struct(Borrower)5332_storage": {
        "encoding": "inplace",
        "label": "struct CreditDesk.Borrower",
        "members": [
          {
            "astId": 5331,
            "contract": "contracts/protocol/core/CreditDesk.sol:CreditDesk",
            "label": "creditLines",
            "offset": 0,
            "slot": "0",
            "type": "t_array(t_address)dyn_storage"
          }
        ],
        "numberOfBytes": "32"
      },
      "t_struct(RoleData)260_storage": {
        "encoding": "inplace",
        "label": "struct AccessControlUpgradeSafe.RoleData",
        "members": [
          {
            "astId": 257,
            "contract": "contracts/protocol/core/CreditDesk.sol:CreditDesk",
            "label": "members",
            "offset": 0,
            "slot": "0",
            "type": "t_struct(AddressSet)2160_storage"
          },
          {
            "astId": 259,
            "contract": "contracts/protocol/core/CreditDesk.sol:CreditDesk",
            "label": "adminRole",
            "offset": 0,
            "slot": "2",
            "type": "t_bytes32"
          }
        ],
        "numberOfBytes": "96"
      },
      "t_struct(Set)1980_storage": {
        "encoding": "inplace",
        "label": "struct EnumerableSet.Set",
        "members": [
          {
            "astId": 1975,
            "contract": "contracts/protocol/core/CreditDesk.sol:CreditDesk",
            "label": "_values",
            "offset": 0,
            "slot": "0",
            "type": "t_array(t_bytes32)dyn_storage"
          },
          {
            "astId": 1979,
            "contract": "contracts/protocol/core/CreditDesk.sol:CreditDesk",
            "label": "_indexes",
            "offset": 0,
            "slot": "1",
            "type": "t_mapping(t_bytes32,t_uint256)"
          }
        ],
        "numberOfBytes": "64"
      },
      "t_struct(Underwriter)5328_storage": {
        "encoding": "inplace",
        "label": "struct CreditDesk.Underwriter",
        "members": [
          {
            "astId": 5324,
            "contract": "contracts/protocol/core/CreditDesk.sol:CreditDesk",
            "label": "governanceLimit",
            "offset": 0,
            "slot": "0",
            "type": "t_uint256"
          },
          {
            "astId": 5327,
            "contract": "contracts/protocol/core/CreditDesk.sol:CreditDesk",
            "label": "creditLines",
            "offset": 0,
            "slot": "1",
            "type": "t_array(t_address)dyn_storage"
          }
        ],
        "numberOfBytes": "64"
      },
      "t_uint256": {
        "encoding": "inplace",
        "label": "uint256",
        "numberOfBytes": "32"
      }
    }
  }
}