{
  "address": "0xC6F6e24A64e9aA81EAE3D7613cb784F427f06A47",
  "abi": [
    {
      "anonymous": false,
      "inputs": [
        {
          "indexed": true,
          "internalType": "address",
          "name": "borrower",
          "type": "address"
        },
        {
          "indexed": true,
          "internalType": "address",
          "name": "creditLine",
          "type": "address"
        }
      ],
      "name": "CreditLineCreated",
      "type": "event"
    },
    {
      "anonymous": false,
      "inputs": [
        {
          "indexed": true,
          "internalType": "address",
          "name": "borrower",
          "type": "address"
        },
        {
          "indexed": true,
          "internalType": "address",
          "name": "creditLine",
          "type": "address"
        },
        {
          "indexed": false,
          "internalType": "uint256",
          "name": "drawdownAmount",
          "type": "uint256"
        }
      ],
      "name": "DrawdownMade",
      "type": "event"
    },
    {
      "anonymous": false,
      "inputs": [
        {
          "indexed": true,
          "internalType": "address",
          "name": "underwriter",
          "type": "address"
        },
        {
          "indexed": false,
          "internalType": "uint256",
          "name": "newLimit",
          "type": "uint256"
        }
      ],
      "name": "GovernanceUpdatedUnderwriterLimit",
      "type": "event"
    },
    {
      "anonymous": false,
      "inputs": [
        {
          "indexed": false,
          "internalType": "address",
          "name": "account",
          "type": "address"
        }
      ],
      "name": "Paused",
      "type": "event"
    },
    {
      "anonymous": false,
      "inputs": [
        {
          "indexed": true,
          "internalType": "address",
          "name": "payer",
          "type": "address"
        },
        {
          "indexed": true,
          "internalType": "address",
          "name": "creditLine",
          "type": "address"
        },
        {
          "indexed": false,
          "internalType": "uint256",
          "name": "interestAmount",
          "type": "uint256"
        },
        {
          "indexed": false,
          "internalType": "uint256",
          "name": "principalAmount",
          "type": "uint256"
        },
        {
          "indexed": false,
          "internalType": "uint256",
          "name": "remainingAmount",
          "type": "uint256"
        }
      ],
      "name": "PaymentApplied",
      "type": "event"
    },
    {
      "anonymous": false,
      "inputs": [
        {
          "indexed": true,
          "internalType": "address",
          "name": "payer",
          "type": "address"
        },
        {
          "indexed": true,
          "internalType": "address",
          "name": "creditLine",
          "type": "address"
        },
        {
          "indexed": false,
          "internalType": "uint256",
          "name": "paymentAmount",
          "type": "uint256"
        }
      ],
      "name": "PaymentCollected",
      "type": "event"
    },
    {
      "anonymous": false,
      "inputs": [
        {
          "indexed": true,
          "internalType": "bytes32",
          "name": "role",
          "type": "bytes32"
        },
        {
          "indexed": true,
          "internalType": "address",
          "name": "account",
          "type": "address"
        },
        {
          "indexed": true,
          "internalType": "address",
          "name": "sender",
          "type": "address"
        }
      ],
      "name": "RoleGranted",
      "type": "event"
    },
    {
      "anonymous": false,
      "inputs": [
        {
          "indexed": true,
          "internalType": "bytes32",
          "name": "role",
          "type": "bytes32"
        },
        {
          "indexed": true,
          "internalType": "address",
          "name": "account",
          "type": "address"
        },
        {
          "indexed": true,
          "internalType": "address",
          "name": "sender",
          "type": "address"
        }
      ],
      "name": "RoleRevoked",
      "type": "event"
    },
    {
      "anonymous": false,
      "inputs": [
        {
          "indexed": false,
          "internalType": "address",
          "name": "account",
          "type": "address"
        }
      ],
      "name": "Unpaused",
      "type": "event"
    },
    {
      "inputs": [],
      "name": "BLOCKS_PER_DAY",
      "outputs": [
        {
          "internalType": "uint256",
          "name": "",
          "type": "uint256"
        }
      ],
      "stateMutability": "view",
      "type": "function"
    },
    {
      "inputs": [],
      "name": "DEFAULT_ADMIN_ROLE",
      "outputs": [
        {
          "internalType": "bytes32",
          "name": "",
          "type": "bytes32"
        }
      ],
      "stateMutability": "view",
      "type": "function"
    },
    {
      "inputs": [],
      "name": "OWNER_ROLE",
      "outputs": [
        {
          "internalType": "bytes32",
          "name": "",
          "type": "bytes32"
        }
      ],
      "stateMutability": "view",
      "type": "function"
    },
    {
      "inputs": [],
      "name": "PAUSER_ROLE",
      "outputs": [
        {
          "internalType": "bytes32",
          "name": "",
          "type": "bytes32"
        }
      ],
      "stateMutability": "view",
      "type": "function"
    },
    {
      "inputs": [
        {
          "internalType": "address",
          "name": "owner",
          "type": "address"
        }
      ],
      "name": "__BaseUpgradeablePausable__init",
      "outputs": [],
      "stateMutability": "nonpayable",
      "type": "function"
    },
    {
      "inputs": [],
      "name": "__PauserPausable__init",
      "outputs": [],
      "stateMutability": "nonpayable",
      "type": "function"
    },
    {
      "inputs": [
        {
          "internalType": "address",
          "name": "creditLineAddress",
          "type": "address"
        }
      ],
      "name": "assessCreditLine",
      "outputs": [],
      "stateMutability": "nonpayable",
      "type": "function"
    },
    {
      "inputs": [],
      "name": "config",
      "outputs": [
        {
          "internalType": "contract GoldfinchConfig",
          "name": "",
          "type": "address"
        }
      ],
      "stateMutability": "view",
      "type": "function"
    },
    {
      "inputs": [
        {
          "internalType": "address",
          "name": "_borrower",
          "type": "address"
        },
        {
          "internalType": "uint256",
          "name": "_limit",
          "type": "uint256"
        },
        {
          "internalType": "uint256",
          "name": "_interestApr",
          "type": "uint256"
        },
        {
          "internalType": "uint256",
          "name": "_paymentPeriodInDays",
          "type": "uint256"
        },
        {
          "internalType": "uint256",
          "name": "_termInDays",
          "type": "uint256"
        },
        {
          "internalType": "uint256",
          "name": "_lateFeeApr",
          "type": "uint256"
        }
      ],
      "name": "createCreditLine",
      "outputs": [
        {
          "internalType": "address",
          "name": "",
          "type": "address"
        }
      ],
      "stateMutability": "nonpayable",
      "type": "function"
    },
    {
      "inputs": [
        {
          "internalType": "uint256",
          "name": "amount",
          "type": "uint256"
        },
        {
          "internalType": "address",
          "name": "creditLineAddress",
          "type": "address"
        },
        {
          "internalType": "address",
          "name": "addressToSendTo",
          "type": "address"
        }
      ],
      "name": "drawdown",
      "outputs": [],
      "stateMutability": "nonpayable",
      "type": "function"
    },
    {
      "inputs": [
        {
          "internalType": "address",
          "name": "borrowerAddress",
          "type": "address"
        }
      ],
      "name": "getBorrowerCreditLines",
      "outputs": [
        {
          "internalType": "address[]",
          "name": "",
          "type": "address[]"
        }
      ],
      "stateMutability": "view",
      "type": "function"
    },
    {
      "inputs": [
        {
          "internalType": "bytes32",
          "name": "role",
          "type": "bytes32"
        }
      ],
      "name": "getRoleAdmin",
      "outputs": [
        {
          "internalType": "bytes32",
          "name": "",
          "type": "bytes32"
        }
      ],
      "stateMutability": "view",
      "type": "function"
    },
    {
      "inputs": [
        {
          "internalType": "bytes32",
          "name": "role",
          "type": "bytes32"
        },
        {
          "internalType": "uint256",
          "name": "index",
          "type": "uint256"
        }
      ],
      "name": "getRoleMember",
      "outputs": [
        {
          "internalType": "address",
          "name": "",
          "type": "address"
        }
      ],
      "stateMutability": "view",
      "type": "function"
    },
    {
      "inputs": [
        {
          "internalType": "bytes32",
          "name": "role",
          "type": "bytes32"
        }
      ],
      "name": "getRoleMemberCount",
      "outputs": [
        {
          "internalType": "uint256",
          "name": "",
          "type": "uint256"
        }
      ],
      "stateMutability": "view",
      "type": "function"
    },
    {
      "inputs": [
        {
          "internalType": "address",
          "name": "underwriterAddress",
          "type": "address"
        }
      ],
      "name": "getUnderwriterCreditLines",
      "outputs": [
        {
          "internalType": "address[]",
          "name": "",
          "type": "address[]"
        }
      ],
      "stateMutability": "view",
      "type": "function"
    },
    {
      "inputs": [
        {
          "internalType": "bytes32",
          "name": "role",
          "type": "bytes32"
        },
        {
          "internalType": "address",
          "name": "account",
          "type": "address"
        }
      ],
      "name": "grantRole",
      "outputs": [],
      "stateMutability": "nonpayable",
      "type": "function"
    },
    {
      "inputs": [
        {
          "internalType": "bytes32",
          "name": "role",
          "type": "bytes32"
        },
        {
          "internalType": "address",
          "name": "account",
          "type": "address"
        }
      ],
      "name": "hasRole",
      "outputs": [
        {
          "internalType": "bool",
          "name": "",
          "type": "bool"
        }
      ],
      "stateMutability": "view",
      "type": "function"
    },
    {
      "inputs": [
        {
          "internalType": "address",
          "name": "owner",
          "type": "address"
        },
        {
          "internalType": "contract GoldfinchConfig",
          "name": "_config",
          "type": "address"
        }
      ],
      "name": "initialize",
      "outputs": [],
      "stateMutability": "nonpayable",
      "type": "function"
    },
    {
      "inputs": [],
      "name": "isAdmin",
      "outputs": [
        {
          "internalType": "bool",
          "name": "",
          "type": "bool"
        }
      ],
      "stateMutability": "view",
      "type": "function"
    },
    {
      "inputs": [
        {
          "internalType": "contract CreditLine",
          "name": "clToMigrate",
          "type": "address"
        },
        {
          "internalType": "address",
          "name": "_borrower",
          "type": "address"
        },
        {
          "internalType": "uint256",
          "name": "_limit",
          "type": "uint256"
        },
        {
          "internalType": "uint256",
          "name": "_interestApr",
          "type": "uint256"
        },
        {
          "internalType": "uint256",
          "name": "_paymentPeriodInDays",
          "type": "uint256"
        },
        {
          "internalType": "uint256",
          "name": "_termInDays",
          "type": "uint256"
        },
        {
          "internalType": "uint256",
          "name": "_lateFeeApr",
          "type": "uint256"
        }
      ],
      "name": "migrateCreditLine",
      "outputs": [],
      "stateMutability": "nonpayable",
      "type": "function"
    },
    {
      "inputs": [],
      "name": "pause",
      "outputs": [],
      "stateMutability": "nonpayable",
      "type": "function"
    },
    {
      "inputs": [],
      "name": "paused",
      "outputs": [
        {
          "internalType": "bool",
          "name": "",
          "type": "bool"
        }
      ],
      "stateMutability": "view",
      "type": "function"
    },
    {
      "inputs": [
        {
          "internalType": "address",
          "name": "creditLineAddress",
          "type": "address"
        },
        {
          "internalType": "uint256",
          "name": "amount",
          "type": "uint256"
        }
      ],
      "name": "pay",
      "outputs": [],
      "stateMutability": "nonpayable",
      "type": "function"
    },
    {
      "inputs": [
        {
          "internalType": "bytes32",
          "name": "role",
          "type": "bytes32"
        },
        {
          "internalType": "address",
          "name": "account",
          "type": "address"
        }
      ],
      "name": "renounceRole",
      "outputs": [],
      "stateMutability": "nonpayable",
      "type": "function"
    },
    {
      "inputs": [
        {
          "internalType": "bytes32",
          "name": "role",
          "type": "bytes32"
        },
        {
          "internalType": "address",
          "name": "account",
          "type": "address"
        }
      ],
      "name": "revokeRole",
      "outputs": [],
      "stateMutability": "nonpayable",
      "type": "function"
    },
    {
      "inputs": [
        {
          "internalType": "address",
          "name": "underwriterAddress",
          "type": "address"
        },
        {
          "internalType": "uint256",
          "name": "limit",
          "type": "uint256"
        }
      ],
      "name": "setUnderwriterGovernanceLimit",
      "outputs": [],
      "stateMutability": "nonpayable",
      "type": "function"
    },
    {
      "inputs": [],
      "name": "totalLoansOutstanding",
      "outputs": [
        {
          "internalType": "uint256",
          "name": "",
          "type": "uint256"
        }
      ],
      "stateMutability": "view",
      "type": "function"
    },
    {
      "inputs": [],
      "name": "totalWritedowns",
      "outputs": [
        {
          "internalType": "uint256",
          "name": "",
          "type": "uint256"
        }
      ],
      "stateMutability": "view",
      "type": "function"
    },
    {
      "inputs": [
        {
          "internalType": "address",
          "name": "",
          "type": "address"
        }
      ],
      "name": "underwriters",
      "outputs": [
        {
          "internalType": "uint256",
          "name": "governanceLimit",
          "type": "uint256"
        }
      ],
      "stateMutability": "view",
      "type": "function"
    },
    {
      "inputs": [],
      "name": "unpause",
      "outputs": [],
      "stateMutability": "nonpayable",
      "type": "function"
    }
  ],
  "transactionHash": "0x6208fe597665658a745282362d6854662ce47514f13999f819df7de35003c3f3",
  "args": [],
  "solcInputHash": "7165e5314cd5e3e2cd80f83b3109ff54",
  "bytecode": "0x608060405234801561001057600080fd5b50615088806100206000396000f3fe608060405234801561001057600080fd5b50600436106101da5760003560e01c80638456cb5911610104578063c26ff936116100a2578063e58378bb11610071578063e58378bb146103a9578063e63ab1e9146103b1578063ed80c850146103b9578063f5c7e0e2146103c1576101da565b8063c26ff9361461035d578063c407687614610370578063ca15c87314610383578063d547741f14610396576101da565b806396eea87b116100de57806396eea87b14610332578063a217fddf14610345578063a6f4487e1461034d578063b6db75a014610355576101da565b80638456cb59146103045780639010d07c1461030c57806391d148541461031f576101da565b806351d33a571161017c5780636bb987fe1161014b5780636bb987fe146102c157806379502c55146102c95780637d533642146102d1578063844a28c3146102e4576101da565b806351d33a5714610271578063526d81f6146102845780635c0808531461028c5780635c975abb146102ac576101da565b80632f2ff15d116101b85780632f2ff15d1461023057806336568abe146102435780633f4ba83a14610256578063485cc9551461025e576101da565b8063097616a3146101df5780630e4645ef146101f4578063248a9ca314610207575b600080fd5b6101f26101ed3660046143a5565b6103d4565b005b6101f2610202366004614415565b61050d565b61021a6102153660046144ab565b6105d1565b604051610227919061472c565b60405180910390f35b6101f261023e3660046144c3565b6105e9565b6101f26102513660046144c3565b61062d565b6101f261066f565b6101f261026c3660046143dd565b6106af565b6101f261027f3660046145d8565b610759565b6101f2610c2f565b61029f61029a366004614440565b610cba565b604051610227919061463c565b6102b4610fa8565b6040516102279190614721565b61021a610fb1565b61029f610fb7565b61021a6102df3660046143a5565b610fc7565b6102f76102f23660046143a5565b610fda565b60405161022791906146d4565b6101f2611078565b61029f61031a3660046144e7565b6110b6565b6102b461032d3660046144c3565b6110d7565b6101f2610340366004614508565b6110ef565b61021a61199f565b61021a6119a4565b6102b46119ab565b6102f761036b3660046143a5565b6119cc565b6101f261037e366004614415565b611a65565b61021a6103913660046144ab565b611afc565b6101f26103a43660046144c3565b611b13565b61021a611b4d565b61021a611b5f565b61021a611b71565b6101f26103cf3660046143a5565b611b78565b600054610100900460ff16806103ed57506103ed611f6e565b806103fb575060005460ff16155b6104205760405162461bcd60e51b815260040161041790614d3c565b60405180910390fd5b600054610100900460ff1615801561044b576000805460ff1961ff0019909116610100171660011790555b6001600160a01b0382166104715760405162461bcd60e51b815260040161041790614bc3565b610479611f74565b610481611ff5565b610489612081565b6104a160008051602061501383398151915283610623565b6104b960008051602061503383398151915283610623565b6104df600080516020615033833981519152600080516020615013833981519152612110565b6104f760008051602061501383398151915280612110565b8015610509576000805461ff00191690555b5050565b6105156119ab565b6105315760405162461bcd60e51b815260040161041790614f32565b60975460ff16156105545760405162461bcd60e51b815260040161041790614b07565b61055d81612125565b6105795760405162461bcd60e51b815260040161041790614dc1565b6001600160a01b03821660008181526101c6602052604090819020839055517f7be5403eca163f383a39c2d1f65a8fee2c9e41e7e6b150f4abfe16eaaf1d9076906105c590849061472c565b60405180910390a25050565b6000818152606560205260409020600201545b919050565b6000828152606560205260409020600201546106079061032d6121b2565b6106235760405162461bcd60e51b815260040161041790614828565b61050982826121b6565b6106356121b2565b6001600160a01b0316816001600160a01b0316146106655760405162461bcd60e51b815260040161041790614f7d565b610509828261221f565b61068960008051602061503383398151915261032d6121b2565b6106a55760405162461bcd60e51b815260040161041790614973565b6106ad612288565b565b600054610100900460ff16806106c857506106c8611f6e565b806106d6575060005460ff16155b6106f25760405162461bcd60e51b815260040161041790614d3c565b600054610100900460ff1615801561071d576000805460ff1961ff0019909116610100171660011790555b610726836103d4565b6101c580546001600160a01b0319166001600160a01b0384161790558015610754576000805461ff00191690555b505050565b60975460ff161561077c5760405162461bcd60e51b815260040161041790614b07565b6001600160a01b0380831660009081526101c860205260409020548391166107b65760405162461bcd60e51b815260040161041790614bf8565b3360009081526101c76020526040902080548491906107e75760405162461bcd60e51b815260040161041790614a70565b600086116108075760405162461bcd60e51b815260040161041790614e2f565b336001600160a01b0316826001600160a01b0316637df1f1b96040518163ffffffff1660e01b815260040160206040518083038186803b15801561084a57600080fd5b505afa15801561085e573d6000803e3d6000fd5b505050506040513d601f19601f8201168201806040525081019061088291906143c1565b6001600160a01b0316146108a85760405162461bcd60e51b815260040161041790614c25565b6108b1866122f4565b6108cd5760405162461bcd60e51b815260040161041790614b31565b6108d7868361230f565b6108f35760405162461bcd60e51b815260040161041790614e66565b6001600160a01b038416610905573393505b816001600160a01b031663b69ef8a86040518163ffffffff1660e01b815260040160206040518083038186803b15801561093e57600080fd5b505afa158015610952573d6000803e3d6000fd5b505050506040513d601f19601f8201168201806040525081019061097691906145c0565b610a4557816001600160a01b03166352ee365e6109916123c8565b6040518263ffffffff1660e01b81526004016109ad919061472c565b600060405180830381600087803b1580156109c757600080fd5b505af11580156109db573d6000803e3d6000fd5b50505050816001600160a01b03166351bc49536109f66123c8565b6040518263ffffffff1660e01b8152600401610a12919061472c565b600060405180830381600087803b158015610a2c57600080fd5b505af1158015610a40573d6000803e3d6000fd5b505050505b600080610a5984610a546123c8565b6123cc565b915091506000610ada89866001600160a01b031663b69ef8a86040518163ffffffff1660e01b815260040160206040518083038186803b158015610a9c57600080fd5b505afa158015610ab0573d6000803e3d6000fd5b505050506040513d601f19601f82011682018060405250810190610ad491906145c0565b90612574565b9050610ae885828585612599565b610af185612a9f565b15610b0e5760405162461bcd60e51b8152600401610417906148a5565b846001600160a01b0316336001600160a01b03167f7ec4669c579321a5cf5a6b525637eb0924a93e2e11eab9d14be8b44de1116b1b8b604051610b51919061472c565b60405180910390a36101c554600090610b72906001600160a01b0316612b66565b6101c5546001600160a01b03918216916323b872dd91610b929116612b6d565b8a8d6040518463ffffffff1660e01b8152600401610bb293929190614650565b602060405180830381600087803b158015610bcc57600080fd5b505af1158015610be0573d6000803e3d6000fd5b505050506040513d601f19601f82011682018060405250810190610c04919061448b565b905080610c235760405162461bcd60e51b8152600401610417906149f6565b50505050505050505050565b600054610100900460ff1680610c485750610c48611f6e565b80610c56575060005460ff16155b610c725760405162461bcd60e51b815260040161041790614d3c565b600054610100900460ff16158015610c9d576000805460ff1961ff0019909116610100171660011790555b610ca5611ff5565b8015610cb7576000805461ff00191690555b50565b60975460009060ff1615610ce05760405162461bcd60e51b815260040161041790614b07565b3360009081526101c6602090815260408083206001600160a01b038b1684526101c7909252909120610d128883612bec565b610d2e5760405162461bcd60e51b815260040161041790614a22565b6000610d38612c34565b6001600160a01b0316639390bce06040518163ffffffff1660e01b8152600401610d6190614e1e565b602060405180830381600087803b158015610d7b57600080fd5b505af1158015610d8f573d6000803e3d6000fd5b505050506040513d601f19601f82011682018060405250810190610db391906143c1565b90506000819050806001600160a01b031663df8fa430308d338e8e8e8e8e6040518963ffffffff1660e01b8152600401610df4989796959493929190614674565b600060405180830381600087803b158015610e0e57600080fd5b505af1158015610e22573d6000803e3d6000fd5b505050506001848101805480830182556000918252602080832090910180546001600160a01b03199081166001600160a01b038881169182179093558854958601895588855283852090950180548216861790558484526101c89092526040808420805490931685179092559051908e16917fc1d7685016f2246662e70fe17df916e959813e9ab93d50c4f039c0c069c5f37191a36101c5546001600160a01b0380831691632f2ff15d9160008051602061501383398151915291610ee79116612cb7565b6040518363ffffffff1660e01b8152600401610f04929190614735565b600060405180830381600087803b158015610f1e57600080fd5b505af1158015610f32573d6000803e3d6000fd5b50506101c55460405163182cdbe360e11b81526001600160a01b038086169450633059b7c69350610f6792169060040161463c565b600060405180830381600087803b158015610f8157600080fd5b505af1158015610f95573d6000803e3d6000fd5b50939d9c50505050505050505050505050565b60975460ff1690565b61168081565b6101c5546001600160a01b031681565b6101c66020526000908152604090205481565b60975460609060ff16156110005760405162461bcd60e51b815260040161041790614b07565b6001600160a01b03821660009081526101c660209081526040918290206001018054835181840281018401909452808452909183018282801561106c57602002820191906000526020600020905b81546001600160a01b0316815260019091019060200180831161104e575b50505050509050919050565b61109260008051602061503383398151915261032d6121b2565b6110ae5760405162461bcd60e51b815260040161041790614973565b6106ad612ccf565b60008281526065602052604081206110ce9083612d28565b90505b92915050565b60008281526065602052604081206110ce9083612d34565b6110f76119ab565b6111135760405162461bcd60e51b815260040161041790614f32565b6000611123878787878787610cba565b90506000819050806001600160a01b031663fb1669ca8a6001600160a01b031663b69ef8a86040518163ffffffff1660e01b815260040160206040518083038186803b15801561117257600080fd5b505afa158015611186573d6000803e3d6000fd5b505050506040513d601f19601f820116820180604052508101906111aa91906145c0565b6040518263ffffffff1660e01b81526004016111c6919061472c565b600060405180830381600087803b1580156111e057600080fd5b505af11580156111f4573d6000803e3d6000fd5b50505050806001600160a01b03166396c8df378a6001600160a01b03166321856b366040518163ffffffff1660e01b815260040160206040518083038186803b15801561124057600080fd5b505afa158015611254573d6000803e3d6000fd5b505050506040513d601f19601f8201168201806040525081019061127891906145c0565b6040518263ffffffff1660e01b8152600401611294919061472c565b600060405180830381600087803b1580156112ae57600080fd5b505af11580156112c2573d6000803e3d6000fd5b50505050806001600160a01b031663b3b8a9c78a6001600160a01b031663193501146040518163ffffffff1660e01b815260040160206040518083038186803b15801561130e57600080fd5b505afa158015611322573d6000803e3d6000fd5b505050506040513d601f19601f8201168201806040525081019061134691906145c0565b6040518263ffffffff1660e01b8152600401611362919061472c565b600060405180830381600087803b15801561137c57600080fd5b505af1158015611390573d6000803e3d6000fd5b50505050806001600160a01b031663fb9eb9908a6001600160a01b0316631790ebd56040518163ffffffff1660e01b815260040160206040518083038186803b1580156113dc57600080fd5b505afa1580156113f0573d6000803e3d6000fd5b505050506040513d601f19601f8201168201806040525081019061141491906145c0565b6040518263ffffffff1660e01b8152600401611430919061472c565b600060405180830381600087803b15801561144a57600080fd5b505af115801561145e573d6000803e3d6000fd5b50505050806001600160a01b0316637957dda38a6001600160a01b031663500b245e6040518163ffffffff1660e01b815260040160206040518083038186803b1580156114aa57600080fd5b505afa1580156114be573d6000803e3d6000fd5b505050506040513d601f19601f820116820180604052508101906114e291906145c0565b6040518263ffffffff1660e01b81526004016114fe919061472c565b600060405180830381600087803b15801561151857600080fd5b505af115801561152c573d6000803e3d6000fd5b50505050806001600160a01b03166352ee365e8a6001600160a01b031663408862d96040518163ffffffff1660e01b815260040160206040518083038186803b15801561157857600080fd5b505afa15801561158c573d6000803e3d6000fd5b505050506040513d601f19601f820116820180604052508101906115b091906145c0565b6040518263ffffffff1660e01b81526004016115cc919061472c565b600060405180830381600087803b1580156115e657600080fd5b505af11580156115fa573d6000803e3d6000fd5b50505050806001600160a01b0316632771eca88a6001600160a01b031663cc862de56040518163ffffffff1660e01b815260040160206040518083038186803b15801561164657600080fd5b505afa15801561165a573d6000803e3d6000fd5b505050506040513d601f19601f8201168201806040525081019061167e91906145c0565b6040518263ffffffff1660e01b815260040161169a919061472c565b600060405180830381600087803b1580156116b457600080fd5b505af11580156116c8573d6000803e3d6000fd5b50505050806001600160a01b03166351bc49538a6001600160a01b031663bfe976a96040518163ffffffff1660e01b815260040160206040518083038186803b15801561171457600080fd5b505afa158015611728573d6000803e3d6000fd5b505050506040513d601f19601f8201168201806040525081019061174c91906145c0565b6040518263ffffffff1660e01b8152600401611768919061472c565b600060405180830381600087803b15801561178257600080fd5b505af1158015611796573d6000803e3d6000fd5b50506040516327ea6f2b60e01b81526001600160a01b038c1692506327ea6f2b91506117c79060009060040161472c565b600060405180830381600087803b1580156117e157600080fd5b505af11580156117f5573d6000803e3d6000fd5b5050604051637d8b34e560e11b81526001600160a01b038c16925063fb1669ca91506118269060009060040161472c565b600060405180830381600087803b15801561184057600080fd5b505af1158015611854573d6000803e3d6000fd5b50506101c5546000925061187191506001600160a01b0316612b66565b6101c5546001600160a01b03918216916323b872dd918d9186916118959116612d49565b6001600160a01b03166370a082318f6040518263ffffffff1660e01b81526004016118c0919061463c565b60206040518083038186803b1580156118d857600080fd5b505afa1580156118ec573d6000803e3d6000fd5b505050506040513d601f19601f8201168201806040525081019061191091906145c0565b6040518463ffffffff1660e01b815260040161192e93929190614650565b602060405180830381600087803b15801561194857600080fd5b505af115801561195c573d6000803e3d6000fd5b505050506040513d601f19601f82011682018060405250810190611980919061448b565b905080610c235760405162461bcd60e51b8152600401610417906148ef565b600081565b6101c35481565b60006119c760008051602061501383398151915261032d6121b2565b905090565b60975460609060ff16156119f25760405162461bcd60e51b815260040161041790614b07565b6001600160a01b03821660009081526101c760209081526040918290208054835181840281018401909452808452909183018282801561106c576020028201919060005260206000209081546001600160a01b0316815260019091019060200180831161104e5750505050509050919050565b60975460ff1615611a885760405162461bcd60e51b815260040161041790614b07565b6001600160a01b0380831660009081526101c86020526040902054839116611ac25760405162461bcd60e51b815260040161041790614bf8565b60008211611ae25760405162461bcd60e51b815260040161041790614ec4565b82611aed8184612d61565b611af684611b78565b50505050565b60008181526065602052604081206110d190612f3b565b600082815260656020526040902060020154611b319061032d6121b2565b6106655760405162461bcd60e51b815260040161041790614ab7565b60008051602061501383398151915281565b60008051602061503383398151915281565b6101c45481565b60975460ff1615611b9b5760405162461bcd60e51b815260040161041790614b07565b6001600160a01b0380821660009081526101c86020526040902054829116611bd55760405162461bcd60e51b815260040161041790614bf8565b60008290506000816001600160a01b031663b69ef8a86040518163ffffffff1660e01b815260040160206040518083038186803b158015611c1557600080fd5b505afa158015611c29573d6000803e3d6000fd5b505050506040513d601f19601f82011682018060405250810190611c4d91906145c0565b11611c6a5760405162461bcd60e51b815260040161041790614c6a565b806001600160a01b031663500b245e6040518163ffffffff1660e01b815260040160206040518083038186803b158015611ca357600080fd5b505afa158015611cb7573d6000803e3d6000fd5b505050506040513d601f19601f82011682018060405250810190611cdb91906145c0565b611ce36123c8565b108015611cf65750611cf481612a9f565b155b15611d015750610509565b806001600160a01b0316637957dda3611d1983612f46565b6040518263ffffffff1660e01b8152600401611d35919061472c565b600060405180830381600087803b158015611d4f57600080fd5b505af1158015611d63573d6000803e3d6000fd5b505050506000816001600160a01b031663500b245e6040518163ffffffff1660e01b815260040160206040518083038186803b158015611da257600080fd5b505afa158015611db6573d6000803e3d6000fd5b505050506040513d601f19601f82011682018060405250810190611dda91906145c0565b9050611de46123c8565b826001600160a01b031663500b245e6040518163ffffffff1660e01b815260040160206040518083038186803b158015611e1d57600080fd5b505afa158015611e31573d6000803e3d6000fd5b505050506040513d601f19601f82011682018060405250810190611e5591906145c0565b1115611f5b576000611eda611680846001600160a01b03166399dd8df36040518163ffffffff1660e01b815260040160206040518083038186803b158015611e9c57600080fd5b505afa158015611eb0573d6000803e3d6000fd5b505050506040513d601f19601f82011682018060405250810190611ed491906145c0565b906134a6565b9050611f5781846001600160a01b031663500b245e6040518163ffffffff1660e01b815260040160206040518083038186803b158015611f1957600080fd5b505afa158015611f2d573d6000803e3d6000fd5b505050506040513d601f19601f82011682018060405250810190611f5191906145c0565b906134e0565b9150505b611af682611f6884613522565b836135b6565b303b1590565b600054610100900460ff1680611f8d5750611f8d611f6e565b80611f9b575060005460ff16155b611fb75760405162461bcd60e51b815260040161041790614d3c565b600054610100900460ff16158015610ca5576000805460ff1961ff0019909116610100171660011790558015610cb7576000805461ff001916905550565b600054610100900460ff168061200e575061200e611f6e565b8061201c575060005460ff16155b6120385760405162461bcd60e51b815260040161041790614d3c565b600054610100900460ff16158015612063576000805460ff1961ff0019909116610100171660011790555b6097805460ff191690558015610cb7576000805461ff001916905550565b600054610100900460ff168061209a575061209a611f6e565b806120a8575060005460ff16155b6120c45760405162461bcd60e51b815260040161041790614d3c565b600054610100900460ff161580156120ef576000805460ff1961ff0019909116610100171660011790555b60c9805460ff191660011790558015610cb7576000805461ff001916905550565b60009182526065602052604090912060020155565b6101c5546000906001600160a01b031663fc56365860025b6040518263ffffffff1660e01b8152600401612159919061472c565b60206040518083038186803b15801561217157600080fd5b505afa158015612185573d6000803e3d6000fd5b505050506040513d601f19601f820116820180604052508101906121a991906145c0565b90911115919050565b3390565b60008281526065602052604090206121ce908261384e565b15610509576121db6121b2565b6001600160a01b0316816001600160a01b0316837f2f8788117e7eff1d82e926ec794901d17c78024a50270940304540a733656f0d60405160405180910390a45050565b60008281526065602052604090206122379082613863565b15610509576122446121b2565b6001600160a01b0316816001600160a01b0316837ff6391f5c32d9c69d2a47ea670b442974b53935d1edc7fd64eb21e047a839171b60405160405180910390a45050565b60975460ff166122aa5760405162461bcd60e51b815260040161041790614877565b6097805460ff191690557f5db9ee0a495bf2e6ff9c91a7834c1ba4fdd244a5e8aa4e537bd38aeae4b073aa6122dd6121b2565b6040516122ea919061463c565b60405180910390a1565b6101c5546000906001600160a01b031663fc5636588261213d565b6000816001600160a01b031663a4d66daf6040518163ffffffff1660e01b815260040160206040518083038186803b15801561234a57600080fd5b505afa15801561235e573d6000803e3d6000fd5b505050506040513d601f19601f8201168201806040525081019061238291906145c0565b6123bf84846001600160a01b031663b69ef8a86040518163ffffffff1660e01b815260040160206040518083038186803b158015610a9c57600080fd5b11159392505050565b4390565b600080600080736bc06Af8c0Ad43d026fC8BD4F98619f79363710563101c843087876124166101c560009054906101000a90046001600160a01b03166001600160a01b0316613878565b6040518463ffffffff1660e01b81526004016124349392919061474c565b604080518083038186803b15801561244b57600080fd5b505af415801561245f573d6000803e3d6000fd5b505050506040513d601f19601f820116820180604052508101906124839190614619565b909250905081156124ed576040516329771b2f60e11b81526001600160a01b038716906352ee365e906124ba90889060040161472c565b600060405180830381600087803b1580156124d457600080fd5b505af11580156124e8573d6000803e3d6000fd5b505050505b61252a82876001600160a01b03166321856b366040518163ffffffff1660e01b815260040160206040518083038186803b158015610a9c57600080fd5b61256782886001600160a01b031663193501146040518163ffffffff1660e01b815260040160206040518083038186803b158015610a9c57600080fd5b9350935050509250929050565b6000828201838110156110ce5760405162461bcd60e51b8152600401610417906149bf565b60c95460ff166125bb5760405162461bcd60e51b815260040161041790614efb565b60c9805460ff191690556125ce846138a8565b604051637d8b34e560e11b81526001600160a01b0385169063fb1669ca906125fa90869060040161472c565b600060405180830381600087803b15801561261457600080fd5b505af1158015612628573d6000803e3d6000fd5b50506040516396c8df3760e01b81526001600160a01b03871692506396c8df37915061265890859060040161472c565b600060405180830381600087803b15801561267257600080fd5b505af1158015612686573d6000803e3d6000fd5b505060405163b3b8a9c760e01b81526001600160a01b038716925063b3b8a9c791506126b690849060040161472c565b600060405180830381600087803b1580156126d057600080fd5b505af11580156126e4573d6000803e3d6000fd5b50505050836001600160a01b03166321856b366040518163ffffffff1660e01b815260040160206040518083038186803b15801561272157600080fd5b505afa158015612735573d6000803e3d6000fd5b505050506040513d601f19601f8201168201806040525081019061275991906145c0565b1580156127d55750836001600160a01b031663500b245e6040518163ffffffff1660e01b815260040160206040518083038186803b15801561279a57600080fd5b505afa1580156127ae573d6000803e3d6000fd5b505050506040513d601f19601f820116820180604052508101906127d291906145c0565b15155b156129b7576000846001600160a01b031663500b245e6040518163ffffffff1660e01b815260040160206040518083038186803b15801561281557600080fd5b505afa158015612829573d6000803e3d6000fd5b505050506040513d601f19601f8201168201806040525081019061284d91906145c0565b6128556123c8565b10156128e357600061289c611680876001600160a01b03166399dd8df36040518163ffffffff1660e01b815260040160206040518083038186803b158015611e9c57600080fd5b90506128db81876001600160a01b031663500b245e6040518163ffffffff1660e01b815260040160206040518083038186803b158015611f1957600080fd5b915050612957565b846001600160a01b031663500b245e6040518163ffffffff1660e01b815260040160206040518083038186803b15801561291c57600080fd5b505afa158015612930573d6000803e3d6000fd5b505050506040513d601f19601f8201168201806040525081019061295491906145c0565b90505b6040516351bc495360e01b81526001600160a01b038616906351bc49539061298390849060040161472c565b600060405180830381600087803b15801561299d57600080fd5b505af11580156129b1573d6000803e3d6000fd5b50505050505b6129c08461392d565b836001600160a01b031663fb9eb9906129d8866139ab565b6040518263ffffffff1660e01b81526004016129f4919061472c565b600060405180830381600087803b158015612a0e57600080fd5b505af1158015612a22573d6000803e3d6000fd5b50505050836001600160a01b0316637957dda3612a3e86612f46565b6040518263ffffffff1660e01b8152600401612a5a919061472c565b600060405180830381600087803b158015612a7457600080fd5b505af1158015612a88573d6000803e3d6000fd5b505060c9805460ff19166001179055505050505050565b600080612b1e836001600160a01b031663bfe976a96040518163ffffffff1660e01b815260040160206040518083038186803b158015612ade57600080fd5b505afa158015612af2573d6000803e3d6000fd5b505050506040513d601f19601f82011682018060405250810190612b1691906145c0565b611f516123c8565b9050612b5f611680846001600160a01b03166399dd8df36040518163ffffffff1660e01b815260040160206040518083038186803b158015611e9c57600080fd5b1092915050565b60006110d1825b60006001600160a01b03821663b93f9b0a825b6040518263ffffffff1660e01b8152600401612b9c919061472c565b60206040518083038186803b158015612bb457600080fd5b505afa158015612bc8573d6000803e3d6000fd5b505050506040513d601f19601f820116820180604052508101906110d191906143c1565b8054600090612c0d5760405162461bcd60e51b815260040161041790614b79565b6000612c1883613ba0565b90506000612c268286612574565b845410159250505092915050565b6101c554604051635c9fcd8560e11b81526000916001600160a01b03169063b93f9b0a90612c679060029060040161472c565b60206040518083038186803b158015612c7f57600080fd5b505afa158015612c93573d6000803e3d6000fd5b505050506040513d601f19601f820116820180604052508101906119c791906143c1565b60006001600160a01b03821663b93f9b0a6007612b80565b60975460ff1615612cf25760405162461bcd60e51b815260040161041790614b07565b6097805460ff191660011790557f62e78cea01bee320cd4e420270b5ea74000d11b0c9f74754ebdbfc544b05a2586122dd6121b2565b60006110ce8383613c74565b60006110ce836001600160a01b038416613cb9565b60006001600160a01b03821663b93f9b0a6005612b80565b612d6a816122f4565b612d865760405162461bcd60e51b815260040161041790614b31565b6101c5548190612d9e906001600160a01b0316612d49565b6001600160a01b03166370a08231336040518263ffffffff1660e01b8152600401612dc9919061463c565b60206040518083038186803b158015612de157600080fd5b505afa158015612df5573d6000803e3d6000fd5b505050506040513d601f19601f82011682018060405250810190612e1991906145c0565b1015612e375760405162461bcd60e51b815260040161041790614926565b816001600160a01b0316336001600160a01b03167fc4036209c61f1d5aad789d2b8fa9ca23bf8b1516748d2e0be7227bf3fce67d2d83604051612e7a919061472c565b60405180910390a36101c554600090612e9b906001600160a01b0316612b66565b6001600160a01b03166323b872dd3385856040518463ffffffff1660e01b8152600401612eca93929190614650565b602060405180830381600087803b158015612ee457600080fd5b505af1158015612ef8573d6000803e3d6000fd5b505050506040513d601f19601f82011682018060405250810190612f1c919061448b565b9050806107545760405162461bcd60e51b815260040161041790614d8a565b60006110d182613cd1565b600080612f88611680846001600160a01b03166399dd8df36040518163ffffffff1660e01b815260040160206040518083038186803b158015611e9c57600080fd5b9050826001600160a01b031663b69ef8a86040518163ffffffff1660e01b815260040160206040518083038186803b158015612fc357600080fd5b505afa158015612fd7573d6000803e3d6000fd5b505050506040513d601f19601f82011682018060405250810190612ffb91906145c0565b1580156130775750826001600160a01b031663500b245e6040518163ffffffff1660e01b815260040160206040518083038186803b15801561303c57600080fd5b505afa158015613050573d6000803e3d6000fd5b505050506040513d601f19601f8201168201806040525081019061307491906145c0565b15155b156130865760009150506105e4565b826001600160a01b031663500b245e6040518163ffffffff1660e01b815260040160206040518083038186803b1580156130bf57600080fd5b505afa1580156130d3573d6000803e3d6000fd5b505050506040513d601f19601f820116820180604052508101906130f791906145c0565b15801561317457506000836001600160a01b031663b69ef8a86040518163ffffffff1660e01b815260040160206040518083038186803b15801561313a57600080fd5b505afa15801561314e573d6000803e3d6000fd5b505050506040513d601f19601f8201168201806040525081019061317291906145c0565b115b1561318d5761318581610ad46123c8565b9150506105e4565b6000836001600160a01b031663b69ef8a86040518163ffffffff1660e01b815260040160206040518083038186803b1580156131c857600080fd5b505afa1580156131dc573d6000803e3d6000fd5b505050506040513d601f19601f8201168201806040525081019061320091906145c0565b1180156132845750826001600160a01b031663500b245e6040518163ffffffff1660e01b815260040160206040518083038186803b15801561324157600080fd5b505afa158015613255573d6000803e3d6000fd5b505050506040513d601f19601f8201168201806040525081019061327991906145c0565b6132816123c8565b10155b156133225760006132da82611ed46001610ad4866132d48a6001600160a01b031663500b245e6040518163ffffffff1660e01b815260040160206040518083038186803b158015612ade57600080fd5b90613cd5565b905061331981856001600160a01b031663500b245e6040518163ffffffff1660e01b815260040160206040518083038186803b158015610a9c57600080fd5b925050506105e4565b6000836001600160a01b031663b69ef8a86040518163ffffffff1660e01b815260040160206040518083038186803b15801561335d57600080fd5b505afa158015613371573d6000803e3d6000fd5b505050506040513d601f19601f8201168201806040525081019061339591906145c0565b1180156134185750826001600160a01b031663500b245e6040518163ffffffff1660e01b815260040160206040518083038186803b1580156133d657600080fd5b505afa1580156133ea573d6000803e3d6000fd5b505050506040513d601f19601f8201168201806040525081019061340e91906145c0565b6134166123c8565b105b1561348e57826001600160a01b031663500b245e6040518163ffffffff1660e01b815260040160206040518083038186803b15801561345657600080fd5b505afa15801561346a573d6000803e3d6000fd5b505050506040513d601f19601f8201168201806040525081019061318591906145c0565b60405162461bcd60e51b815260040161041790614cf2565b6000826134b5575060006110d1565b828202828482816134c257fe5b04146110ce5760405162461bcd60e51b815260040161041790614cb1565b60006110ce83836040518060400160405280601e81526020017f536166654d6174683a207375627472616374696f6e206f766572666c6f770000815250613d17565b6101c55460009061353b906001600160a01b0316612d49565b6001600160a01b03166370a08231836040518263ffffffff1660e01b8152600401613566919061463c565b60206040518083038186803b15801561357e57600080fd5b505afa158015613592573d6000803e3d6000fd5b505050506040513d601f19601f820116820180604052508101906110d191906145c0565b60008060006135c6868686613d43565b9250925092506135d586613f86565b811561371057856001600160a01b0316866001600160a01b0316637df1f1b96040518163ffffffff1660e01b815260040160206040518083038186803b15801561361e57600080fd5b505afa158015613632573d6000803e3d6000fd5b505050506040513d601f19601f8201168201806040525081019061365691906143c1565b6001600160a01b03167f724fe786cff62c97ff230e98a332f95c5a11990e44123a00c2b8e76b0566e41184848760405161369293929190614fcc565b60405180910390a36101c5546136b0906001600160a01b0316612b66565b6001600160a01b03166364de8a0787846040518363ffffffff1660e01b81526004016136dd9291906146bb565b600060405180830381600087803b1580156136f757600080fd5b505af115801561370b573d6000803e3d6000fd5b505050505b801561384657856001600160a01b0316866001600160a01b0316637df1f1b96040518163ffffffff1660e01b815260040160206040518083038186803b15801561375957600080fd5b505afa15801561376d573d6000803e3d6000fd5b505050506040513d601f19601f8201168201806040525081019061379191906143c1565b6001600160a01b03167f724fe786cff62c97ff230e98a332f95c5a11990e44123a00c2b8e76b0566e4118484876040516137cd93929190614fcc565b60405180910390a36101c5546137eb906001600160a01b0316612b66565b6001600160a01b031663bcfa41ba87836040518363ffffffff1660e01b81526004016138189291906146bb565b600060405180830381600087803b15801561383257600080fd5b505af1158015610c23573d6000803e3d6000fd5b505050505050565b60006110ce836001600160a01b038416614225565b60006110ce836001600160a01b03841661426f565b60006001600160a01b03821663fc56365860055b6040518263ffffffff1660e01b8152600401613566919061472c565b613926816001600160a01b031663b69ef8a86040518163ffffffff1660e01b815260040160206040518083038186803b1580156138e457600080fd5b505afa1580156138f8573d6000803e3d6000fd5b505050506040513d601f19601f8201168201806040525081019061391c91906145c0565b6101c454906134e0565b6101c45550565b613926816001600160a01b031663b69ef8a86040518163ffffffff1660e01b815260040160206040518083038186803b15801561396957600080fd5b505afa15801561397d573d6000803e3d6000fd5b505050506040513d601f19601f820116820180604052508101906139a191906145c0565b6101c45490612574565b6000816001600160a01b031663b69ef8a86040518163ffffffff1660e01b815260040160206040518083038186803b1580156139e657600080fd5b505afa1580156139fa573d6000803e3d6000fd5b505050506040513d601f19601f82011682018060405250810190613a1e91906145c0565b613a2a575060006105e4565b816001600160a01b0316631790ebd56040518163ffffffff1660e01b815260040160206040518083038186803b158015613a6357600080fd5b505afa158015613a77573d6000803e3d6000fd5b505050506040513d601f19601f82011682018060405250810190613a9b91906145c0565b15613b1857816001600160a01b0316631790ebd56040518163ffffffff1660e01b815260040160206040518083038186803b158015613ad957600080fd5b505afa158015613aed573d6000803e3d6000fd5b505050506040513d601f19601f82011682018060405250810190613b1191906145c0565b90506105e4565b6110d1613b98836001600160a01b03166348e6f2966040518163ffffffff1660e01b815260040160206040518083038186803b158015613b5757600080fd5b505afa158015613b6b573d6000803e3d6000fd5b505050506040513d601f19601f82011682018060405250810190613b8f91906145c0565b611680906134a6565b610ad46123c8565b60018101546000908190815b81811015613c6b576000856001018281548110613bc557fe5b9060005260206000200160009054906101000a90046001600160a01b03169050613c60816001600160a01b031663a4d66daf6040518163ffffffff1660e01b815260040160206040518083038186803b158015613c2157600080fd5b505afa158015613c35573d6000803e3d6000fd5b505050506040513d601f19601f82011682018060405250810190613c5991906145c0565b8590612574565b935050600101613bac565b50909392505050565b81546000908210613c975760405162461bcd60e51b8152600401610417906147e6565b826000018281548110613ca657fe5b9060005260206000200154905092915050565b60009081526001919091016020526040902054151590565b5490565b60006110ce83836040518060400160405280601a81526020017f536166654d6174683a206469766973696f6e206279207a65726f000000000000815250614335565b60008184841115613d3b5760405162461bcd60e51b81526004016104179190614793565b505050900390565b6000806000806000613d5588876123cc565b91509150613d61614384565b736bc06Af8c0Ad43d026fC8BD4F98619f79363710563d7cc2a03898b6001600160a01b031663b69ef8a86040518163ffffffff1660e01b815260040160206040518083038186803b158015613db557600080fd5b505afa158015613dc9573d6000803e3d6000fd5b505050506040513d601f19601f82011682018060405250810190613ded91906145c0565b86866040518563ffffffff1660e01b8152600401613e0e9493929190614fe2565b60606040518083038186803b158015613e2657600080fd5b505af4158015613e3a573d6000803e3d6000fd5b505050506040513d601f19601f82011682018060405250810190613e5e9190614569565b90506000613ea382602001518b6001600160a01b031663b69ef8a86040518163ffffffff1660e01b815260040160206040518083038186803b158015611f1957600080fd5b9050613ebc8260400151826134e090919063ffffffff16565b90506000613efd828c6001600160a01b031663b69ef8a86040518163ffffffff1660e01b815260040160206040518083038186803b158015611f1957600080fd5b90506000613f1c82611f5186600001518e6134e090919063ffffffff16565b9050613f4f8c84613f3a87600001518a6134e090919063ffffffff16565b6020880151613f4a908a906134e0565b612599565b8a613f6b83610ad487600001518561257490919063ffffffff16565b14613f7257fe5b9251929b929a509850909650505050505050565b600080736bc06Af8c0Ad43d026fC8BD4F98619f79363710563ca57356884613fac6123c8565b6101c554613fc2906001600160a01b0316613878565b6101c554613fd8906001600160a01b031661436c565b6040518563ffffffff1660e01b8152600401613ff7949392919061476d565b604080518083038186803b15801561400e57600080fd5b505af4158015614022573d6000803e3d6000fd5b505050506040513d601f19601f820116820180604052508101906140469190614619565b915091508160001480156140c85750826001600160a01b031663cc862de56040518163ffffffff1660e01b815260040160206040518083038186803b15801561408e57600080fd5b505afa1580156140a2573d6000803e3d6000fd5b505050506040513d601f19601f820116820180604052508101906140c691906145c0565b155b156140d4575050610cb7565b600081846001600160a01b031663cc862de56040518163ffffffff1660e01b815260040160206040518083038186803b15801561411057600080fd5b505afa158015614124573d6000803e3d6000fd5b505050506040513d601f19601f8201168201806040525081019061414891906145c0565b039050836001600160a01b0316632771eca8836040518263ffffffff1660e01b8152600401614177919061472c565b600060405180830381600087803b15801561419157600080fd5b505af11580156141a5573d6000803e3d6000fd5b50506101c5546141c092506001600160a01b03169050612b66565b6001600160a01b031663338744bc85836040518363ffffffff1660e01b81526004016141ed9291906146bb565b600060405180830381600087803b15801561420757600080fd5b505af115801561421b573d6000803e3d6000fd5b5050505050505050565b60006142318383613cb9565b614267575081546001818101845560008481526020808220909301849055845484825282860190935260409020919091556110d1565b5060006110d1565b6000818152600183016020526040812054801561432b57835460001980830191908101906000908790839081106142a257fe5b90600052602060002001549050808760000184815481106142bf57fe5b6000918252602080832090910192909255828152600189810190925260409020908401905586548790806142ef57fe5b600190038181906000526020600020016000905590558660010160008781526020019081526020016000206000905560019450505050506110d1565b60009150506110d1565b600081836143565760405162461bcd60e51b81526004016104179190614793565b50600083858161436257fe5b0495945050505050565b60006001600160a01b03821663fc563658600661388c565b60405180606001604052806000815260200160008152602001600081525090565b6000602082840312156143b6578081fd5b81356110ce81614ffd565b6000602082840312156143d2578081fd5b81516110ce81614ffd565b600080604083850312156143ef578081fd5b82356143fa81614ffd565b9150602083013561440a81614ffd565b809150509250929050565b60008060408385031215614427578182fd5b823561443281614ffd565b946020939093013593505050565b60008060008060008060c08789031215614458578182fd5b863561446381614ffd565b9860208801359850604088013597606081013597506080810135965060a00135945092505050565b60006020828403121561449c578081fd5b815180151581146110ce578182fd5b6000602082840312156144bc578081fd5b5035919050565b600080604083850312156144d5578182fd5b82359150602083013561440a81614ffd565b600080604083850312156144f9578182fd5b50508035926020909101359150565b600080600080600080600060e0888a031215614522578081fd5b873561452d81614ffd565b9650602088013561453d81614ffd565b96999698505050506040850135946060810135946080820135945060a0820135935060c0909101359150565b60006060828403121561457a578081fd5b6040516060810181811067ffffffffffffffff82111715614599578283fd5b80604052508251815260208301516020820152604083015160408201528091505092915050565b6000602082840312156145d1578081fd5b5051919050565b6000806000606084860312156145ec578081fd5b8335925060208401356145fe81614ffd565b9150604084013561460e81614ffd565b809150509250925092565b6000806040838503121561462b578182fd5b505080516020909101519092909150565b6001600160a01b0391909116815260200190565b6001600160a01b039384168152919092166020820152604081019190915260600190565b6001600160a01b03988916815296881660208801529490961660408601526060850192909252608084015260a083015260c082019290925260e08101919091526101000190565b6001600160a01b03929092168252602082015260400190565b6020808252825182820181905260009190848201906040850190845b818110156147155783516001600160a01b0316835292840192918401916001016146f0565b50909695505050505050565b901515815260200190565b90815260200190565b9182526001600160a01b0316602082015260400190565b6001600160a01b039390931683526020830191909152604082015260600190565b6001600160a01b0394909416845260208401929092526040830152606082015260800190565b6000602080835283518082850152825b818110156147bf578581018301518582016040015282016147a3565b818111156147d05783604083870101525b50601f01601f1916929092016040019392505050565b60208082526022908201527f456e756d657261626c655365743a20696e646578206f7574206f6620626f756e604082015261647360f01b606082015260800190565b6020808252602f908201527f416363657373436f6e74726f6c3a2073656e646572206d75737420626520616e60408201526e0818591b5a5b881d1bc819dc985b9d608a1b606082015260800190565b60208082526014908201527314185d5cd8589b194e881b9bdd081c185d5cd95960621b604082015260600190565b6020808252602a908201527f43616e6e6f742064726177646f776e207768656e207061796d656e74732061726040820152696520706173742064756560b01b606082015260800190565b60208082526018908201527f4661696c656420746f207472616e736665722066756e64730000000000000000604082015260600190565b6020808252602d908201527f596f75206861766520696e737566666963656e742062616c616e636520666f7260408201526c081d1a1a5cc81c185e5b595b9d609a1b606082015260800190565b6020808252602c908201527f4d75737420686176652070617573657220726f6c6520746f20706572666f726d60408201526b103a3434b99030b1ba34b7b760a11b606082015260800190565b6020808252601b908201527f536166654d6174683a206164646974696f6e206f766572666c6f770000000000604082015260600190565b6020808252601290820152712330b4b632b2103a3790323930bbb237bbb760711b604082015260600190565b6020808252602e908201527f54686520756e6465727772697465722063616e6e6f742063726561746520746860408201526d697320637265646974206c696e6560901b606082015260800190565b60208082526027908201527f4e6f20637265646974206c696e657320657869737420666f722074686973206260408201526637b93937bbb2b960c91b606082015260800190565b60208082526030908201527f416363657373436f6e74726f6c3a2073656e646572206d75737420626520616e60408201526f2061646d696e20746f207265766f6b6560801b606082015260800190565b60208082526010908201526f14185d5cd8589b194e881c185d5cd95960821b604082015260600190565b60208082526028908201527f416d6f756e74206973206f76657220746865207065722d7472616e73616374696040820152671bdb881b1a5b5a5d60c21b606082015260800190565b6020808252602a908201527f756e64657277726974657220646f6573206e6f74206861766520676f7665726e604082015269185b98d9481b1a5b5a5d60b21b606082015260800190565b6020808252818101527f4f776e65722063616e6e6f7420626520746865207a65726f2061646472657373604082015260600190565b602080825260139082015272556e6b6e6f776e20637265646974206c696e6560681b604082015260600190565b60208082526025908201527f596f7520646f206e6f742062656c6f6e6720746f207468697320637265646974604082015264206c696e6560d81b606082015260800190565b60208082526027908201527f4d75737420686176652062616c616e636520746f2061737365737320637265646040820152666974206c696e6560c81b606082015260800190565b60208082526021908201527f536166654d6174683a206d756c7469706c69636174696f6e206f766572666c6f6040820152607760f81b606082015260800190565b6020808252602a908201527f4572726f723a20636f756c64206e6f742063616c63756c617465206e65787420604082015269323ab290313637b1b59760b11b606082015260800190565b6020808252602e908201527f436f6e747261637420696e7374616e63652068617320616c726561647920626560408201526d195b881a5b9a5d1a585b1a5e995960921b606082015260800190565b60208082526019908201527f4661696c656420746f20636f6c6c656374207061796d656e7400000000000000604082015260600190565b6020808252603a908201527f54686973206c696d69742069732067726561746572207468616e20746865206d60408201527f617820616c6c6f776564206279207468652070726f746f636f6c000000000000606082015260800190565b602080825260009082015260400190565b6020808252601c908201527f4d7573742064726177646f776e206d6f7265207468616e207a65726f00000000604082015260600190565b602080825260409082018190527f54686520626f72726f77657220646f6573206e6f74206861766520656e6f7567908201527f6820637265646974206c696d697420666f7220746869732064726177646f776e606082015260800190565b60208082526017908201527f4d75737420706179206d6f7265207468616e207a65726f000000000000000000604082015260600190565b6020808252601f908201527f5265656e7472616e637947756172643a207265656e7472616e742063616c6c00604082015260600190565b6020808252602b908201527f4d75737420686176652061646d696e20726f6c6520746f20706572666f726d2060408201526a3a3434b99030b1ba34b7b760a91b606082015260800190565b6020808252602f908201527f416363657373436f6e74726f6c3a2063616e206f6e6c792072656e6f756e636560408201526e103937b632b9903337b91039b2b63360891b606082015260800190565b9283526020830191909152604082015260600190565b93845260208401929092526040830152606082015260800190565b6001600160a01b0381168114610cb757600080fdfeb19546dff01e856fb3f010c267a7b1c60363cf8a4664e21cc89c26224620214e65d7a28e3265b37a6474929f336521b332c1681b933f6cb9f3376673440d862aa2646970667358221220d88fc0be9cb00b52cf6880105371a3a4759c26509262c0d0367fb7c9c4aaad2864736f6c634300060c0033",
  "deployedBytecode": "0x608060405234801561001057600080fd5b50600436106101da5760003560e01c80638456cb5911610104578063c26ff936116100a2578063e58378bb11610071578063e58378bb146103a9578063e63ab1e9146103b1578063ed80c850146103b9578063f5c7e0e2146103c1576101da565b8063c26ff9361461035d578063c407687614610370578063ca15c87314610383578063d547741f14610396576101da565b806396eea87b116100de57806396eea87b14610332578063a217fddf14610345578063a6f4487e1461034d578063b6db75a014610355576101da565b80638456cb59146103045780639010d07c1461030c57806391d148541461031f576101da565b806351d33a571161017c5780636bb987fe1161014b5780636bb987fe146102c157806379502c55146102c95780637d533642146102d1578063844a28c3146102e4576101da565b806351d33a5714610271578063526d81f6146102845780635c0808531461028c5780635c975abb146102ac576101da565b80632f2ff15d116101b85780632f2ff15d1461023057806336568abe146102435780633f4ba83a14610256578063485cc9551461025e576101da565b8063097616a3146101df5780630e4645ef146101f4578063248a9ca314610207575b600080fd5b6101f26101ed3660046143a5565b6103d4565b005b6101f2610202366004614415565b61050d565b61021a6102153660046144ab565b6105d1565b604051610227919061472c565b60405180910390f35b6101f261023e3660046144c3565b6105e9565b6101f26102513660046144c3565b61062d565b6101f261066f565b6101f261026c3660046143dd565b6106af565b6101f261027f3660046145d8565b610759565b6101f2610c2f565b61029f61029a366004614440565b610cba565b604051610227919061463c565b6102b4610fa8565b6040516102279190614721565b61021a610fb1565b61029f610fb7565b61021a6102df3660046143a5565b610fc7565b6102f76102f23660046143a5565b610fda565b60405161022791906146d4565b6101f2611078565b61029f61031a3660046144e7565b6110b6565b6102b461032d3660046144c3565b6110d7565b6101f2610340366004614508565b6110ef565b61021a61199f565b61021a6119a4565b6102b46119ab565b6102f761036b3660046143a5565b6119cc565b6101f261037e366004614415565b611a65565b61021a6103913660046144ab565b611afc565b6101f26103a43660046144c3565b611b13565b61021a611b4d565b61021a611b5f565b61021a611b71565b6101f26103cf3660046143a5565b611b78565b600054610100900460ff16806103ed57506103ed611f6e565b806103fb575060005460ff16155b6104205760405162461bcd60e51b815260040161041790614d3c565b60405180910390fd5b600054610100900460ff1615801561044b576000805460ff1961ff0019909116610100171660011790555b6001600160a01b0382166104715760405162461bcd60e51b815260040161041790614bc3565b610479611f74565b610481611ff5565b610489612081565b6104a160008051602061501383398151915283610623565b6104b960008051602061503383398151915283610623565b6104df600080516020615033833981519152600080516020615013833981519152612110565b6104f760008051602061501383398151915280612110565b8015610509576000805461ff00191690555b5050565b6105156119ab565b6105315760405162461bcd60e51b815260040161041790614f32565b60975460ff16156105545760405162461bcd60e51b815260040161041790614b07565b61055d81612125565b6105795760405162461bcd60e51b815260040161041790614dc1565b6001600160a01b03821660008181526101c6602052604090819020839055517f7be5403eca163f383a39c2d1f65a8fee2c9e41e7e6b150f4abfe16eaaf1d9076906105c590849061472c565b60405180910390a25050565b6000818152606560205260409020600201545b919050565b6000828152606560205260409020600201546106079061032d6121b2565b6106235760405162461bcd60e51b815260040161041790614828565b61050982826121b6565b6106356121b2565b6001600160a01b0316816001600160a01b0316146106655760405162461bcd60e51b815260040161041790614f7d565b610509828261221f565b61068960008051602061503383398151915261032d6121b2565b6106a55760405162461bcd60e51b815260040161041790614973565b6106ad612288565b565b600054610100900460ff16806106c857506106c8611f6e565b806106d6575060005460ff16155b6106f25760405162461bcd60e51b815260040161041790614d3c565b600054610100900460ff1615801561071d576000805460ff1961ff0019909116610100171660011790555b610726836103d4565b6101c580546001600160a01b0319166001600160a01b0384161790558015610754576000805461ff00191690555b505050565b60975460ff161561077c5760405162461bcd60e51b815260040161041790614b07565b6001600160a01b0380831660009081526101c860205260409020548391166107b65760405162461bcd60e51b815260040161041790614bf8565b3360009081526101c76020526040902080548491906107e75760405162461bcd60e51b815260040161041790614a70565b600086116108075760405162461bcd60e51b815260040161041790614e2f565b336001600160a01b0316826001600160a01b0316637df1f1b96040518163ffffffff1660e01b815260040160206040518083038186803b15801561084a57600080fd5b505afa15801561085e573d6000803e3d6000fd5b505050506040513d601f19601f8201168201806040525081019061088291906143c1565b6001600160a01b0316146108a85760405162461bcd60e51b815260040161041790614c25565b6108b1866122f4565b6108cd5760405162461bcd60e51b815260040161041790614b31565b6108d7868361230f565b6108f35760405162461bcd60e51b815260040161041790614e66565b6001600160a01b038416610905573393505b816001600160a01b031663b69ef8a86040518163ffffffff1660e01b815260040160206040518083038186803b15801561093e57600080fd5b505afa158015610952573d6000803e3d6000fd5b505050506040513d601f19601f8201168201806040525081019061097691906145c0565b610a4557816001600160a01b03166352ee365e6109916123c8565b6040518263ffffffff1660e01b81526004016109ad919061472c565b600060405180830381600087803b1580156109c757600080fd5b505af11580156109db573d6000803e3d6000fd5b50505050816001600160a01b03166351bc49536109f66123c8565b6040518263ffffffff1660e01b8152600401610a12919061472c565b600060405180830381600087803b158015610a2c57600080fd5b505af1158015610a40573d6000803e3d6000fd5b505050505b600080610a5984610a546123c8565b6123cc565b915091506000610ada89866001600160a01b031663b69ef8a86040518163ffffffff1660e01b815260040160206040518083038186803b158015610a9c57600080fd5b505afa158015610ab0573d6000803e3d6000fd5b505050506040513d601f19601f82011682018060405250810190610ad491906145c0565b90612574565b9050610ae885828585612599565b610af185612a9f565b15610b0e5760405162461bcd60e51b8152600401610417906148a5565b846001600160a01b0316336001600160a01b03167f7ec4669c579321a5cf5a6b525637eb0924a93e2e11eab9d14be8b44de1116b1b8b604051610b51919061472c565b60405180910390a36101c554600090610b72906001600160a01b0316612b66565b6101c5546001600160a01b03918216916323b872dd91610b929116612b6d565b8a8d6040518463ffffffff1660e01b8152600401610bb293929190614650565b602060405180830381600087803b158015610bcc57600080fd5b505af1158015610be0573d6000803e3d6000fd5b505050506040513d601f19601f82011682018060405250810190610c04919061448b565b905080610c235760405162461bcd60e51b8152600401610417906149f6565b50505050505050505050565b600054610100900460ff1680610c485750610c48611f6e565b80610c56575060005460ff16155b610c725760405162461bcd60e51b815260040161041790614d3c565b600054610100900460ff16158015610c9d576000805460ff1961ff0019909116610100171660011790555b610ca5611ff5565b8015610cb7576000805461ff00191690555b50565b60975460009060ff1615610ce05760405162461bcd60e51b815260040161041790614b07565b3360009081526101c6602090815260408083206001600160a01b038b1684526101c7909252909120610d128883612bec565b610d2e5760405162461bcd60e51b815260040161041790614a22565b6000610d38612c34565b6001600160a01b0316639390bce06040518163ffffffff1660e01b8152600401610d6190614e1e565b602060405180830381600087803b158015610d7b57600080fd5b505af1158015610d8f573d6000803e3d6000fd5b505050506040513d601f19601f82011682018060405250810190610db391906143c1565b90506000819050806001600160a01b031663df8fa430308d338e8e8e8e8e6040518963ffffffff1660e01b8152600401610df4989796959493929190614674565b600060405180830381600087803b158015610e0e57600080fd5b505af1158015610e22573d6000803e3d6000fd5b505050506001848101805480830182556000918252602080832090910180546001600160a01b03199081166001600160a01b038881169182179093558854958601895588855283852090950180548216861790558484526101c89092526040808420805490931685179092559051908e16917fc1d7685016f2246662e70fe17df916e959813e9ab93d50c4f039c0c069c5f37191a36101c5546001600160a01b0380831691632f2ff15d9160008051602061501383398151915291610ee79116612cb7565b6040518363ffffffff1660e01b8152600401610f04929190614735565b600060405180830381600087803b158015610f1e57600080fd5b505af1158015610f32573d6000803e3d6000fd5b50506101c55460405163182cdbe360e11b81526001600160a01b038086169450633059b7c69350610f6792169060040161463c565b600060405180830381600087803b158015610f8157600080fd5b505af1158015610f95573d6000803e3d6000fd5b50939d9c50505050505050505050505050565b60975460ff1690565b61168081565b6101c5546001600160a01b031681565b6101c66020526000908152604090205481565b60975460609060ff16156110005760405162461bcd60e51b815260040161041790614b07565b6001600160a01b03821660009081526101c660209081526040918290206001018054835181840281018401909452808452909183018282801561106c57602002820191906000526020600020905b81546001600160a01b0316815260019091019060200180831161104e575b50505050509050919050565b61109260008051602061503383398151915261032d6121b2565b6110ae5760405162461bcd60e51b815260040161041790614973565b6106ad612ccf565b60008281526065602052604081206110ce9083612d28565b90505b92915050565b60008281526065602052604081206110ce9083612d34565b6110f76119ab565b6111135760405162461bcd60e51b815260040161041790614f32565b6000611123878787878787610cba565b90506000819050806001600160a01b031663fb1669ca8a6001600160a01b031663b69ef8a86040518163ffffffff1660e01b815260040160206040518083038186803b15801561117257600080fd5b505afa158015611186573d6000803e3d6000fd5b505050506040513d601f19601f820116820180604052508101906111aa91906145c0565b6040518263ffffffff1660e01b81526004016111c6919061472c565b600060405180830381600087803b1580156111e057600080fd5b505af11580156111f4573d6000803e3d6000fd5b50505050806001600160a01b03166396c8df378a6001600160a01b03166321856b366040518163ffffffff1660e01b815260040160206040518083038186803b15801561124057600080fd5b505afa158015611254573d6000803e3d6000fd5b505050506040513d601f19601f8201168201806040525081019061127891906145c0565b6040518263ffffffff1660e01b8152600401611294919061472c565b600060405180830381600087803b1580156112ae57600080fd5b505af11580156112c2573d6000803e3d6000fd5b50505050806001600160a01b031663b3b8a9c78a6001600160a01b031663193501146040518163ffffffff1660e01b815260040160206040518083038186803b15801561130e57600080fd5b505afa158015611322573d6000803e3d6000fd5b505050506040513d601f19601f8201168201806040525081019061134691906145c0565b6040518263ffffffff1660e01b8152600401611362919061472c565b600060405180830381600087803b15801561137c57600080fd5b505af1158015611390573d6000803e3d6000fd5b50505050806001600160a01b031663fb9eb9908a6001600160a01b0316631790ebd56040518163ffffffff1660e01b815260040160206040518083038186803b1580156113dc57600080fd5b505afa1580156113f0573d6000803e3d6000fd5b505050506040513d601f19601f8201168201806040525081019061141491906145c0565b6040518263ffffffff1660e01b8152600401611430919061472c565b600060405180830381600087803b15801561144a57600080fd5b505af115801561145e573d6000803e3d6000fd5b50505050806001600160a01b0316637957dda38a6001600160a01b031663500b245e6040518163ffffffff1660e01b815260040160206040518083038186803b1580156114aa57600080fd5b505afa1580156114be573d6000803e3d6000fd5b505050506040513d601f19601f820116820180604052508101906114e291906145c0565b6040518263ffffffff1660e01b81526004016114fe919061472c565b600060405180830381600087803b15801561151857600080fd5b505af115801561152c573d6000803e3d6000fd5b50505050806001600160a01b03166352ee365e8a6001600160a01b031663408862d96040518163ffffffff1660e01b815260040160206040518083038186803b15801561157857600080fd5b505afa15801561158c573d6000803e3d6000fd5b505050506040513d601f19601f820116820180604052508101906115b091906145c0565b6040518263ffffffff1660e01b81526004016115cc919061472c565b600060405180830381600087803b1580156115e657600080fd5b505af11580156115fa573d6000803e3d6000fd5b50505050806001600160a01b0316632771eca88a6001600160a01b031663cc862de56040518163ffffffff1660e01b815260040160206040518083038186803b15801561164657600080fd5b505afa15801561165a573d6000803e3d6000fd5b505050506040513d601f19601f8201168201806040525081019061167e91906145c0565b6040518263ffffffff1660e01b815260040161169a919061472c565b600060405180830381600087803b1580156116b457600080fd5b505af11580156116c8573d6000803e3d6000fd5b50505050806001600160a01b03166351bc49538a6001600160a01b031663bfe976a96040518163ffffffff1660e01b815260040160206040518083038186803b15801561171457600080fd5b505afa158015611728573d6000803e3d6000fd5b505050506040513d601f19601f8201168201806040525081019061174c91906145c0565b6040518263ffffffff1660e01b8152600401611768919061472c565b600060405180830381600087803b15801561178257600080fd5b505af1158015611796573d6000803e3d6000fd5b50506040516327ea6f2b60e01b81526001600160a01b038c1692506327ea6f2b91506117c79060009060040161472c565b600060405180830381600087803b1580156117e157600080fd5b505af11580156117f5573d6000803e3d6000fd5b5050604051637d8b34e560e11b81526001600160a01b038c16925063fb1669ca91506118269060009060040161472c565b600060405180830381600087803b15801561184057600080fd5b505af1158015611854573d6000803e3d6000fd5b50506101c5546000925061187191506001600160a01b0316612b66565b6101c5546001600160a01b03918216916323b872dd918d9186916118959116612d49565b6001600160a01b03166370a082318f6040518263ffffffff1660e01b81526004016118c0919061463c565b60206040518083038186803b1580156118d857600080fd5b505afa1580156118ec573d6000803e3d6000fd5b505050506040513d601f19601f8201168201806040525081019061191091906145c0565b6040518463ffffffff1660e01b815260040161192e93929190614650565b602060405180830381600087803b15801561194857600080fd5b505af115801561195c573d6000803e3d6000fd5b505050506040513d601f19601f82011682018060405250810190611980919061448b565b905080610c235760405162461bcd60e51b8152600401610417906148ef565b600081565b6101c35481565b60006119c760008051602061501383398151915261032d6121b2565b905090565b60975460609060ff16156119f25760405162461bcd60e51b815260040161041790614b07565b6001600160a01b03821660009081526101c760209081526040918290208054835181840281018401909452808452909183018282801561106c576020028201919060005260206000209081546001600160a01b0316815260019091019060200180831161104e5750505050509050919050565b60975460ff1615611a885760405162461bcd60e51b815260040161041790614b07565b6001600160a01b0380831660009081526101c86020526040902054839116611ac25760405162461bcd60e51b815260040161041790614bf8565b60008211611ae25760405162461bcd60e51b815260040161041790614ec4565b82611aed8184612d61565b611af684611b78565b50505050565b60008181526065602052604081206110d190612f3b565b600082815260656020526040902060020154611b319061032d6121b2565b6106655760405162461bcd60e51b815260040161041790614ab7565b60008051602061501383398151915281565b60008051602061503383398151915281565b6101c45481565b60975460ff1615611b9b5760405162461bcd60e51b815260040161041790614b07565b6001600160a01b0380821660009081526101c86020526040902054829116611bd55760405162461bcd60e51b815260040161041790614bf8565b60008290506000816001600160a01b031663b69ef8a86040518163ffffffff1660e01b815260040160206040518083038186803b158015611c1557600080fd5b505afa158015611c29573d6000803e3d6000fd5b505050506040513d601f19601f82011682018060405250810190611c4d91906145c0565b11611c6a5760405162461bcd60e51b815260040161041790614c6a565b806001600160a01b031663500b245e6040518163ffffffff1660e01b815260040160206040518083038186803b158015611ca357600080fd5b505afa158015611cb7573d6000803e3d6000fd5b505050506040513d601f19601f82011682018060405250810190611cdb91906145c0565b611ce36123c8565b108015611cf65750611cf481612a9f565b155b15611d015750610509565b806001600160a01b0316637957dda3611d1983612f46565b6040518263ffffffff1660e01b8152600401611d35919061472c565b600060405180830381600087803b158015611d4f57600080fd5b505af1158015611d63573d6000803e3d6000fd5b505050506000816001600160a01b031663500b245e6040518163ffffffff1660e01b815260040160206040518083038186803b158015611da257600080fd5b505afa158015611db6573d6000803e3d6000fd5b505050506040513d601f19601f82011682018060405250810190611dda91906145c0565b9050611de46123c8565b826001600160a01b031663500b245e6040518163ffffffff1660e01b815260040160206040518083038186803b158015611e1d57600080fd5b505afa158015611e31573d6000803e3d6000fd5b505050506040513d601f19601f82011682018060405250810190611e5591906145c0565b1115611f5b576000611eda611680846001600160a01b03166399dd8df36040518163ffffffff1660e01b815260040160206040518083038186803b158015611e9c57600080fd5b505afa158015611eb0573d6000803e3d6000fd5b505050506040513d601f19601f82011682018060405250810190611ed491906145c0565b906134a6565b9050611f5781846001600160a01b031663500b245e6040518163ffffffff1660e01b815260040160206040518083038186803b158015611f1957600080fd5b505afa158015611f2d573d6000803e3d6000fd5b505050506040513d601f19601f82011682018060405250810190611f5191906145c0565b906134e0565b9150505b611af682611f6884613522565b836135b6565b303b1590565b600054610100900460ff1680611f8d5750611f8d611f6e565b80611f9b575060005460ff16155b611fb75760405162461bcd60e51b815260040161041790614d3c565b600054610100900460ff16158015610ca5576000805460ff1961ff0019909116610100171660011790558015610cb7576000805461ff001916905550565b600054610100900460ff168061200e575061200e611f6e565b8061201c575060005460ff16155b6120385760405162461bcd60e51b815260040161041790614d3c565b600054610100900460ff16158015612063576000805460ff1961ff0019909116610100171660011790555b6097805460ff191690558015610cb7576000805461ff001916905550565b600054610100900460ff168061209a575061209a611f6e565b806120a8575060005460ff16155b6120c45760405162461bcd60e51b815260040161041790614d3c565b600054610100900460ff161580156120ef576000805460ff1961ff0019909116610100171660011790555b60c9805460ff191660011790558015610cb7576000805461ff001916905550565b60009182526065602052604090912060020155565b6101c5546000906001600160a01b031663fc56365860025b6040518263ffffffff1660e01b8152600401612159919061472c565b60206040518083038186803b15801561217157600080fd5b505afa158015612185573d6000803e3d6000fd5b505050506040513d601f19601f820116820180604052508101906121a991906145c0565b90911115919050565b3390565b60008281526065602052604090206121ce908261384e565b15610509576121db6121b2565b6001600160a01b0316816001600160a01b0316837f2f8788117e7eff1d82e926ec794901d17c78024a50270940304540a733656f0d60405160405180910390a45050565b60008281526065602052604090206122379082613863565b15610509576122446121b2565b6001600160a01b0316816001600160a01b0316837ff6391f5c32d9c69d2a47ea670b442974b53935d1edc7fd64eb21e047a839171b60405160405180910390a45050565b60975460ff166122aa5760405162461bcd60e51b815260040161041790614877565b6097805460ff191690557f5db9ee0a495bf2e6ff9c91a7834c1ba4fdd244a5e8aa4e537bd38aeae4b073aa6122dd6121b2565b6040516122ea919061463c565b60405180910390a1565b6101c5546000906001600160a01b031663fc5636588261213d565b6000816001600160a01b031663a4d66daf6040518163ffffffff1660e01b815260040160206040518083038186803b15801561234a57600080fd5b505afa15801561235e573d6000803e3d6000fd5b505050506040513d601f19601f8201168201806040525081019061238291906145c0565b6123bf84846001600160a01b031663b69ef8a86040518163ffffffff1660e01b815260040160206040518083038186803b158015610a9c57600080fd5b11159392505050565b4390565b60008060008073__$44894cb0e228c8872d7664995d3f4ce933$__63101c843087876124166101c560009054906101000a90046001600160a01b03166001600160a01b0316613878565b6040518463ffffffff1660e01b81526004016124349392919061474c565b604080518083038186803b15801561244b57600080fd5b505af415801561245f573d6000803e3d6000fd5b505050506040513d601f19601f820116820180604052508101906124839190614619565b909250905081156124ed576040516329771b2f60e11b81526001600160a01b038716906352ee365e906124ba90889060040161472c565b600060405180830381600087803b1580156124d457600080fd5b505af11580156124e8573d6000803e3d6000fd5b505050505b61252a82876001600160a01b03166321856b366040518163ffffffff1660e01b815260040160206040518083038186803b158015610a9c57600080fd5b61256782886001600160a01b031663193501146040518163ffffffff1660e01b815260040160206040518083038186803b158015610a9c57600080fd5b9350935050509250929050565b6000828201838110156110ce5760405162461bcd60e51b8152600401610417906149bf565b60c95460ff166125bb5760405162461bcd60e51b815260040161041790614efb565b60c9805460ff191690556125ce846138a8565b604051637d8b34e560e11b81526001600160a01b0385169063fb1669ca906125fa90869060040161472c565b600060405180830381600087803b15801561261457600080fd5b505af1158015612628573d6000803e3d6000fd5b50506040516396c8df3760e01b81526001600160a01b03871692506396c8df37915061265890859060040161472c565b600060405180830381600087803b15801561267257600080fd5b505af1158015612686573d6000803e3d6000fd5b505060405163b3b8a9c760e01b81526001600160a01b038716925063b3b8a9c791506126b690849060040161472c565b600060405180830381600087803b1580156126d057600080fd5b505af11580156126e4573d6000803e3d6000fd5b50505050836001600160a01b03166321856b366040518163ffffffff1660e01b815260040160206040518083038186803b15801561272157600080fd5b505afa158015612735573d6000803e3d6000fd5b505050506040513d601f19601f8201168201806040525081019061275991906145c0565b1580156127d55750836001600160a01b031663500b245e6040518163ffffffff1660e01b815260040160206040518083038186803b15801561279a57600080fd5b505afa1580156127ae573d6000803e3d6000fd5b505050506040513d601f19601f820116820180604052508101906127d291906145c0565b15155b156129b7576000846001600160a01b031663500b245e6040518163ffffffff1660e01b815260040160206040518083038186803b15801561281557600080fd5b505afa158015612829573d6000803e3d6000fd5b505050506040513d601f19601f8201168201806040525081019061284d91906145c0565b6128556123c8565b10156128e357600061289c611680876001600160a01b03166399dd8df36040518163ffffffff1660e01b815260040160206040518083038186803b158015611e9c57600080fd5b90506128db81876001600160a01b031663500b245e6040518163ffffffff1660e01b815260040160206040518083038186803b158015611f1957600080fd5b915050612957565b846001600160a01b031663500b245e6040518163ffffffff1660e01b815260040160206040518083038186803b15801561291c57600080fd5b505afa158015612930573d6000803e3d6000fd5b505050506040513d601f19601f8201168201806040525081019061295491906145c0565b90505b6040516351bc495360e01b81526001600160a01b038616906351bc49539061298390849060040161472c565b600060405180830381600087803b15801561299d57600080fd5b505af11580156129b1573d6000803e3d6000fd5b50505050505b6129c08461392d565b836001600160a01b031663fb9eb9906129d8866139ab565b6040518263ffffffff1660e01b81526004016129f4919061472c565b600060405180830381600087803b158015612a0e57600080fd5b505af1158015612a22573d6000803e3d6000fd5b50505050836001600160a01b0316637957dda3612a3e86612f46565b6040518263ffffffff1660e01b8152600401612a5a919061472c565b600060405180830381600087803b158015612a7457600080fd5b505af1158015612a88573d6000803e3d6000fd5b505060c9805460ff19166001179055505050505050565b600080612b1e836001600160a01b031663bfe976a96040518163ffffffff1660e01b815260040160206040518083038186803b158015612ade57600080fd5b505afa158015612af2573d6000803e3d6000fd5b505050506040513d601f19601f82011682018060405250810190612b1691906145c0565b611f516123c8565b9050612b5f611680846001600160a01b03166399dd8df36040518163ffffffff1660e01b815260040160206040518083038186803b158015611e9c57600080fd5b1092915050565b60006110d1825b60006001600160a01b03821663b93f9b0a825b6040518263ffffffff1660e01b8152600401612b9c919061472c565b60206040518083038186803b158015612bb457600080fd5b505afa158015612bc8573d6000803e3d6000fd5b505050506040513d601f19601f820116820180604052508101906110d191906143c1565b8054600090612c0d5760405162461bcd60e51b815260040161041790614b79565b6000612c1883613ba0565b90506000612c268286612574565b845410159250505092915050565b6101c554604051635c9fcd8560e11b81526000916001600160a01b03169063b93f9b0a90612c679060029060040161472c565b60206040518083038186803b158015612c7f57600080fd5b505afa158015612c93573d6000803e3d6000fd5b505050506040513d601f19601f820116820180604052508101906119c791906143c1565b60006001600160a01b03821663b93f9b0a6007612b80565b60975460ff1615612cf25760405162461bcd60e51b815260040161041790614b07565b6097805460ff191660011790557f62e78cea01bee320cd4e420270b5ea74000d11b0c9f74754ebdbfc544b05a2586122dd6121b2565b60006110ce8383613c74565b60006110ce836001600160a01b038416613cb9565b60006001600160a01b03821663b93f9b0a6005612b80565b612d6a816122f4565b612d865760405162461bcd60e51b815260040161041790614b31565b6101c5548190612d9e906001600160a01b0316612d49565b6001600160a01b03166370a08231336040518263ffffffff1660e01b8152600401612dc9919061463c565b60206040518083038186803b158015612de157600080fd5b505afa158015612df5573d6000803e3d6000fd5b505050506040513d601f19601f82011682018060405250810190612e1991906145c0565b1015612e375760405162461bcd60e51b815260040161041790614926565b816001600160a01b0316336001600160a01b03167fc4036209c61f1d5aad789d2b8fa9ca23bf8b1516748d2e0be7227bf3fce67d2d83604051612e7a919061472c565b60405180910390a36101c554600090612e9b906001600160a01b0316612b66565b6001600160a01b03166323b872dd3385856040518463ffffffff1660e01b8152600401612eca93929190614650565b602060405180830381600087803b158015612ee457600080fd5b505af1158015612ef8573d6000803e3d6000fd5b505050506040513d601f19601f82011682018060405250810190612f1c919061448b565b9050806107545760405162461bcd60e51b815260040161041790614d8a565b60006110d182613cd1565b600080612f88611680846001600160a01b03166399dd8df36040518163ffffffff1660e01b815260040160206040518083038186803b158015611e9c57600080fd5b9050826001600160a01b031663b69ef8a86040518163ffffffff1660e01b815260040160206040518083038186803b158015612fc357600080fd5b505afa158015612fd7573d6000803e3d6000fd5b505050506040513d601f19601f82011682018060405250810190612ffb91906145c0565b1580156130775750826001600160a01b031663500b245e6040518163ffffffff1660e01b815260040160206040518083038186803b15801561303c57600080fd5b505afa158015613050573d6000803e3d6000fd5b505050506040513d601f19601f8201168201806040525081019061307491906145c0565b15155b156130865760009150506105e4565b826001600160a01b031663500b245e6040518163ffffffff1660e01b815260040160206040518083038186803b1580156130bf57600080fd5b505afa1580156130d3573d6000803e3d6000fd5b505050506040513d601f19601f820116820180604052508101906130f791906145c0565b15801561317457506000836001600160a01b031663b69ef8a86040518163ffffffff1660e01b815260040160206040518083038186803b15801561313a57600080fd5b505afa15801561314e573d6000803e3d6000fd5b505050506040513d601f19601f8201168201806040525081019061317291906145c0565b115b1561318d5761318581610ad46123c8565b9150506105e4565b6000836001600160a01b031663b69ef8a86040518163ffffffff1660e01b815260040160206040518083038186803b1580156131c857600080fd5b505afa1580156131dc573d6000803e3d6000fd5b505050506040513d601f19601f8201168201806040525081019061320091906145c0565b1180156132845750826001600160a01b031663500b245e6040518163ffffffff1660e01b815260040160206040518083038186803b15801561324157600080fd5b505afa158015613255573d6000803e3d6000fd5b505050506040513d601f19601f8201168201806040525081019061327991906145c0565b6132816123c8565b10155b156133225760006132da82611ed46001610ad4866132d48a6001600160a01b031663500b245e6040518163ffffffff1660e01b815260040160206040518083038186803b158015612ade57600080fd5b90613cd5565b905061331981856001600160a01b031663500b245e6040518163ffffffff1660e01b815260040160206040518083038186803b158015610a9c57600080fd5b925050506105e4565b6000836001600160a01b031663b69ef8a86040518163ffffffff1660e01b815260040160206040518083038186803b15801561335d57600080fd5b505afa158015613371573d6000803e3d6000fd5b505050506040513d601f19601f8201168201806040525081019061339591906145c0565b1180156134185750826001600160a01b031663500b245e6040518163ffffffff1660e01b815260040160206040518083038186803b1580156133d657600080fd5b505afa1580156133ea573d6000803e3d6000fd5b505050506040513d601f19601f8201168201806040525081019061340e91906145c0565b6134166123c8565b105b1561348e57826001600160a01b031663500b245e6040518163ffffffff1660e01b815260040160206040518083038186803b15801561345657600080fd5b505afa15801561346a573d6000803e3d6000fd5b505050506040513d601f19601f8201168201806040525081019061318591906145c0565b60405162461bcd60e51b815260040161041790614cf2565b6000826134b5575060006110d1565b828202828482816134c257fe5b04146110ce5760405162461bcd60e51b815260040161041790614cb1565b60006110ce83836040518060400160405280601e81526020017f536166654d6174683a207375627472616374696f6e206f766572666c6f770000815250613d17565b6101c55460009061353b906001600160a01b0316612d49565b6001600160a01b03166370a08231836040518263ffffffff1660e01b8152600401613566919061463c565b60206040518083038186803b15801561357e57600080fd5b505afa158015613592573d6000803e3d6000fd5b505050506040513d601f19601f820116820180604052508101906110d191906145c0565b60008060006135c6868686613d43565b9250925092506135d586613f86565b811561371057856001600160a01b0316866001600160a01b0316637df1f1b96040518163ffffffff1660e01b815260040160206040518083038186803b15801561361e57600080fd5b505afa158015613632573d6000803e3d6000fd5b505050506040513d601f19601f8201168201806040525081019061365691906143c1565b6001600160a01b03167f724fe786cff62c97ff230e98a332f95c5a11990e44123a00c2b8e76b0566e41184848760405161369293929190614fcc565b60405180910390a36101c5546136b0906001600160a01b0316612b66565b6001600160a01b03166364de8a0787846040518363ffffffff1660e01b81526004016136dd9291906146bb565b600060405180830381600087803b1580156136f757600080fd5b505af115801561370b573d6000803e3d6000fd5b505050505b801561384657856001600160a01b0316866001600160a01b0316637df1f1b96040518163ffffffff1660e01b815260040160206040518083038186803b15801561375957600080fd5b505afa15801561376d573d6000803e3d6000fd5b505050506040513d601f19601f8201168201806040525081019061379191906143c1565b6001600160a01b03167f724fe786cff62c97ff230e98a332f95c5a11990e44123a00c2b8e76b0566e4118484876040516137cd93929190614fcc565b60405180910390a36101c5546137eb906001600160a01b0316612b66565b6001600160a01b031663bcfa41ba87836040518363ffffffff1660e01b81526004016138189291906146bb565b600060405180830381600087803b15801561383257600080fd5b505af1158015610c23573d6000803e3d6000fd5b505050505050565b60006110ce836001600160a01b038416614225565b60006110ce836001600160a01b03841661426f565b60006001600160a01b03821663fc56365860055b6040518263ffffffff1660e01b8152600401613566919061472c565b613926816001600160a01b031663b69ef8a86040518163ffffffff1660e01b815260040160206040518083038186803b1580156138e457600080fd5b505afa1580156138f8573d6000803e3d6000fd5b505050506040513d601f19601f8201168201806040525081019061391c91906145c0565b6101c454906134e0565b6101c45550565b613926816001600160a01b031663b69ef8a86040518163ffffffff1660e01b815260040160206040518083038186803b15801561396957600080fd5b505afa15801561397d573d6000803e3d6000fd5b505050506040513d601f19601f820116820180604052508101906139a191906145c0565b6101c45490612574565b6000816001600160a01b031663b69ef8a86040518163ffffffff1660e01b815260040160206040518083038186803b1580156139e657600080fd5b505afa1580156139fa573d6000803e3d6000fd5b505050506040513d601f19601f82011682018060405250810190613a1e91906145c0565b613a2a575060006105e4565b816001600160a01b0316631790ebd56040518163ffffffff1660e01b815260040160206040518083038186803b158015613a6357600080fd5b505afa158015613a77573d6000803e3d6000fd5b505050506040513d601f19601f82011682018060405250810190613a9b91906145c0565b15613b1857816001600160a01b0316631790ebd56040518163ffffffff1660e01b815260040160206040518083038186803b158015613ad957600080fd5b505afa158015613aed573d6000803e3d6000fd5b505050506040513d601f19601f82011682018060405250810190613b1191906145c0565b90506105e4565b6110d1613b98836001600160a01b03166348e6f2966040518163ffffffff1660e01b815260040160206040518083038186803b158015613b5757600080fd5b505afa158015613b6b573d6000803e3d6000fd5b505050506040513d601f19601f82011682018060405250810190613b8f91906145c0565b611680906134a6565b610ad46123c8565b60018101546000908190815b81811015613c6b576000856001018281548110613bc557fe5b9060005260206000200160009054906101000a90046001600160a01b03169050613c60816001600160a01b031663a4d66daf6040518163ffffffff1660e01b815260040160206040518083038186803b158015613c2157600080fd5b505afa158015613c35573d6000803e3d6000fd5b505050506040513d601f19601f82011682018060405250810190613c5991906145c0565b8590612574565b935050600101613bac565b50909392505050565b81546000908210613c975760405162461bcd60e51b8152600401610417906147e6565b826000018281548110613ca657fe5b9060005260206000200154905092915050565b60009081526001919091016020526040902054151590565b5490565b60006110ce83836040518060400160405280601a81526020017f536166654d6174683a206469766973696f6e206279207a65726f000000000000815250614335565b60008184841115613d3b5760405162461bcd60e51b81526004016104179190614793565b505050900390565b6000806000806000613d5588876123cc565b91509150613d61614384565b73__$44894cb0e228c8872d7664995d3f4ce933$__63d7cc2a03898b6001600160a01b031663b69ef8a86040518163ffffffff1660e01b815260040160206040518083038186803b158015613db557600080fd5b505afa158015613dc9573d6000803e3d6000fd5b505050506040513d601f19601f82011682018060405250810190613ded91906145c0565b86866040518563ffffffff1660e01b8152600401613e0e9493929190614fe2565b60606040518083038186803b158015613e2657600080fd5b505af4158015613e3a573d6000803e3d6000fd5b505050506040513d601f19601f82011682018060405250810190613e5e9190614569565b90506000613ea382602001518b6001600160a01b031663b69ef8a86040518163ffffffff1660e01b815260040160206040518083038186803b158015611f1957600080fd5b9050613ebc8260400151826134e090919063ffffffff16565b90506000613efd828c6001600160a01b031663b69ef8a86040518163ffffffff1660e01b815260040160206040518083038186803b158015611f1957600080fd5b90506000613f1c82611f5186600001518e6134e090919063ffffffff16565b9050613f4f8c84613f3a87600001518a6134e090919063ffffffff16565b6020880151613f4a908a906134e0565b612599565b8a613f6b83610ad487600001518561257490919063ffffffff16565b14613f7257fe5b9251929b929a509850909650505050505050565b60008073__$44894cb0e228c8872d7664995d3f4ce933$__63ca57356884613fac6123c8565b6101c554613fc2906001600160a01b0316613878565b6101c554613fd8906001600160a01b031661436c565b6040518563ffffffff1660e01b8152600401613ff7949392919061476d565b604080518083038186803b15801561400e57600080fd5b505af4158015614022573d6000803e3d6000fd5b505050506040513d601f19601f820116820180604052508101906140469190614619565b915091508160001480156140c85750826001600160a01b031663cc862de56040518163ffffffff1660e01b815260040160206040518083038186803b15801561408e57600080fd5b505afa1580156140a2573d6000803e3d6000fd5b505050506040513d601f19601f820116820180604052508101906140c691906145c0565b155b156140d4575050610cb7565b600081846001600160a01b031663cc862de56040518163ffffffff1660e01b815260040160206040518083038186803b15801561411057600080fd5b505afa158015614124573d6000803e3d6000fd5b505050506040513d601f19601f8201168201806040525081019061414891906145c0565b039050836001600160a01b0316632771eca8836040518263ffffffff1660e01b8152600401614177919061472c565b600060405180830381600087803b15801561419157600080fd5b505af11580156141a5573d6000803e3d6000fd5b50506101c5546141c092506001600160a01b03169050612b66565b6001600160a01b031663338744bc85836040518363ffffffff1660e01b81526004016141ed9291906146bb565b600060405180830381600087803b15801561420757600080fd5b505af115801561421b573d6000803e3d6000fd5b5050505050505050565b60006142318383613cb9565b614267575081546001818101845560008481526020808220909301849055845484825282860190935260409020919091556110d1565b5060006110d1565b6000818152600183016020526040812054801561432b57835460001980830191908101906000908790839081106142a257fe5b90600052602060002001549050808760000184815481106142bf57fe5b6000918252602080832090910192909255828152600189810190925260409020908401905586548790806142ef57fe5b600190038181906000526020600020016000905590558660010160008781526020019081526020016000206000905560019450505050506110d1565b60009150506110d1565b600081836143565760405162461bcd60e51b81526004016104179190614793565b50600083858161436257fe5b0495945050505050565b60006001600160a01b03821663fc563658600661388c565b60405180606001604052806000815260200160008152602001600081525090565b6000602082840312156143b6578081fd5b81356110ce81614ffd565b6000602082840312156143d2578081fd5b81516110ce81614ffd565b600080604083850312156143ef578081fd5b82356143fa81614ffd565b9150602083013561440a81614ffd565b809150509250929050565b60008060408385031215614427578182fd5b823561443281614ffd565b946020939093013593505050565b60008060008060008060c08789031215614458578182fd5b863561446381614ffd565b9860208801359850604088013597606081013597506080810135965060a00135945092505050565b60006020828403121561449c578081fd5b815180151581146110ce578182fd5b6000602082840312156144bc578081fd5b5035919050565b600080604083850312156144d5578182fd5b82359150602083013561440a81614ffd565b600080604083850312156144f9578182fd5b50508035926020909101359150565b600080600080600080600060e0888a031215614522578081fd5b873561452d81614ffd565b9650602088013561453d81614ffd565b96999698505050506040850135946060810135946080820135945060a0820135935060c0909101359150565b60006060828403121561457a578081fd5b6040516060810181811067ffffffffffffffff82111715614599578283fd5b80604052508251815260208301516020820152604083015160408201528091505092915050565b6000602082840312156145d1578081fd5b5051919050565b6000806000606084860312156145ec578081fd5b8335925060208401356145fe81614ffd565b9150604084013561460e81614ffd565b809150509250925092565b6000806040838503121561462b578182fd5b505080516020909101519092909150565b6001600160a01b0391909116815260200190565b6001600160a01b039384168152919092166020820152604081019190915260600190565b6001600160a01b03988916815296881660208801529490961660408601526060850192909252608084015260a083015260c082019290925260e08101919091526101000190565b6001600160a01b03929092168252602082015260400190565b6020808252825182820181905260009190848201906040850190845b818110156147155783516001600160a01b0316835292840192918401916001016146f0565b50909695505050505050565b901515815260200190565b90815260200190565b9182526001600160a01b0316602082015260400190565b6001600160a01b039390931683526020830191909152604082015260600190565b6001600160a01b0394909416845260208401929092526040830152606082015260800190565b6000602080835283518082850152825b818110156147bf578581018301518582016040015282016147a3565b818111156147d05783604083870101525b50601f01601f1916929092016040019392505050565b60208082526022908201527f456e756d657261626c655365743a20696e646578206f7574206f6620626f756e604082015261647360f01b606082015260800190565b6020808252602f908201527f416363657373436f6e74726f6c3a2073656e646572206d75737420626520616e60408201526e0818591b5a5b881d1bc819dc985b9d608a1b606082015260800190565b60208082526014908201527314185d5cd8589b194e881b9bdd081c185d5cd95960621b604082015260600190565b6020808252602a908201527f43616e6e6f742064726177646f776e207768656e207061796d656e74732061726040820152696520706173742064756560b01b606082015260800190565b60208082526018908201527f4661696c656420746f207472616e736665722066756e64730000000000000000604082015260600190565b6020808252602d908201527f596f75206861766520696e737566666963656e742062616c616e636520666f7260408201526c081d1a1a5cc81c185e5b595b9d609a1b606082015260800190565b6020808252602c908201527f4d75737420686176652070617573657220726f6c6520746f20706572666f726d60408201526b103a3434b99030b1ba34b7b760a11b606082015260800190565b6020808252601b908201527f536166654d6174683a206164646974696f6e206f766572666c6f770000000000604082015260600190565b6020808252601290820152712330b4b632b2103a3790323930bbb237bbb760711b604082015260600190565b6020808252602e908201527f54686520756e6465727772697465722063616e6e6f742063726561746520746860408201526d697320637265646974206c696e6560901b606082015260800190565b60208082526027908201527f4e6f20637265646974206c696e657320657869737420666f722074686973206260408201526637b93937bbb2b960c91b606082015260800190565b60208082526030908201527f416363657373436f6e74726f6c3a2073656e646572206d75737420626520616e60408201526f2061646d696e20746f207265766f6b6560801b606082015260800190565b60208082526010908201526f14185d5cd8589b194e881c185d5cd95960821b604082015260600190565b60208082526028908201527f416d6f756e74206973206f76657220746865207065722d7472616e73616374696040820152671bdb881b1a5b5a5d60c21b606082015260800190565b6020808252602a908201527f756e64657277726974657220646f6573206e6f74206861766520676f7665726e604082015269185b98d9481b1a5b5a5d60b21b606082015260800190565b6020808252818101527f4f776e65722063616e6e6f7420626520746865207a65726f2061646472657373604082015260600190565b602080825260139082015272556e6b6e6f776e20637265646974206c696e6560681b604082015260600190565b60208082526025908201527f596f7520646f206e6f742062656c6f6e6720746f207468697320637265646974604082015264206c696e6560d81b606082015260800190565b60208082526027908201527f4d75737420686176652062616c616e636520746f2061737365737320637265646040820152666974206c696e6560c81b606082015260800190565b60208082526021908201527f536166654d6174683a206d756c7469706c69636174696f6e206f766572666c6f6040820152607760f81b606082015260800190565b6020808252602a908201527f4572726f723a20636f756c64206e6f742063616c63756c617465206e65787420604082015269323ab290313637b1b59760b11b606082015260800190565b6020808252602e908201527f436f6e747261637420696e7374616e63652068617320616c726561647920626560408201526d195b881a5b9a5d1a585b1a5e995960921b606082015260800190565b60208082526019908201527f4661696c656420746f20636f6c6c656374207061796d656e7400000000000000604082015260600190565b6020808252603a908201527f54686973206c696d69742069732067726561746572207468616e20746865206d60408201527f617820616c6c6f776564206279207468652070726f746f636f6c000000000000606082015260800190565b602080825260009082015260400190565b6020808252601c908201527f4d7573742064726177646f776e206d6f7265207468616e207a65726f00000000604082015260600190565b602080825260409082018190527f54686520626f72726f77657220646f6573206e6f74206861766520656e6f7567908201527f6820637265646974206c696d697420666f7220746869732064726177646f776e606082015260800190565b60208082526017908201527f4d75737420706179206d6f7265207468616e207a65726f000000000000000000604082015260600190565b6020808252601f908201527f5265656e7472616e637947756172643a207265656e7472616e742063616c6c00604082015260600190565b6020808252602b908201527f4d75737420686176652061646d696e20726f6c6520746f20706572666f726d2060408201526a3a3434b99030b1ba34b7b760a91b606082015260800190565b6020808252602f908201527f416363657373436f6e74726f6c3a2063616e206f6e6c792072656e6f756e636560408201526e103937b632b9903337b91039b2b63360891b606082015260800190565b9283526020830191909152604082015260600190565b93845260208401929092526040830152606082015260800190565b6001600160a01b0381168114610cb757600080fdfeb19546dff01e856fb3f010c267a7b1c60363cf8a4664e21cc89c26224620214e65d7a28e3265b37a6474929f336521b332c1681b933f6cb9f3376673440d862aa2646970667358221220d88fc0be9cb00b52cf6880105371a3a4759c26509262c0d0367fb7c9c4aaad2864736f6c634300060c0033",
  "libraries": {
    "Accountant": "0x6bc06Af8c0Ad43d026fC8BD4F98619f793637105"
  },
  "devdoc": {
    "author": "Goldfinch",
    "kind": "dev",
    "methods": {
      "assessCreditLine(address)": {
        "params": {
          "creditLineAddress": "The creditline that should be assessed."
        }
      },
      "createCreditLine(address,uint256,uint256,uint256,uint256,uint256)": {
        "params": {
          "_borrower": "The borrower for whom the CreditLine will be created",
          "_interestApr": "The interest amount, on an annualized basis (APR, so non-compounding), expressed as an integer.  We assume 8 digits of precision. For example, to submit 15.34%, you would pass up 15340000,  and 5.34% would be 5340000",
          "_lateFeeApr": "The additional interest you will pay if you are late. For example, if this is 3%, and your  normal rate is 15%, then you will pay 18% while you are late. Requirements: - the caller must be an underwriter with enough limit (see `setUnderwriterGovernanceLimit`)",
          "_limit": "The maximum amount a borrower can drawdown from this CreditLine",
          "_paymentPeriodInDays": "How many days in each payment period.  ie. the frequency with which they need to make payments.",
          "_termInDays": "Number of days in the credit term. It is used to set the `termEndBlock` upon first drawdown.  ie. The credit line should be fully paid off {_termIndays} days after the first drawdown."
        }
      },
      "drawdown(uint256,address,address)": {
        "params": {
          "addressToSendTo": "The address where they would like the funds sent. If the zero address is passed,  it will be defaulted to the borrower's address (msg.sender). This is a convenience feature for when they would  like the funds sent to an exchange or alternate wallet, different from the authentication address Requirements: - the caller must be the borrower on the creditLine",
          "amount": "The amount, in USDC atomic units, that a borrower wishes to drawdown",
          "creditLineAddress": "The creditline from which they would like to drawdown"
        }
      },
      "getBorrowerCreditLines(address)": {
        "params": {
          "borrowerAddress": "The borrower address you would like to see the credit lines of."
        }
      },
      "getRoleAdmin(bytes32)": {
        "details": "Returns the admin role that controls `role`. See {grantRole} and {revokeRole}. To change a role's admin, use {_setRoleAdmin}."
      },
      "getRoleMember(bytes32,uint256)": {
        "details": "Returns one of the accounts that have `role`. `index` must be a value between 0 and {getRoleMemberCount}, non-inclusive. Role bearers are not sorted in any particular way, and their ordering may change at any point. WARNING: When using {getRoleMember} and {getRoleMemberCount}, make sure you perform all queries on the same block. See the following https://forum.openzeppelin.com/t/iterating-over-elements-on-enumerableset-in-openzeppelin-contracts/2296[forum post] for more information."
      },
      "getRoleMemberCount(bytes32)": {
        "details": "Returns the number of accounts that have `role`. Can be used together with {getRoleMember} to enumerate all bearers of a role."
      },
      "getUnderwriterCreditLines(address)": {
        "params": {
          "underwriterAddress": "The underwriter address you would like to see the credit lines of."
        }
      },
      "grantRole(bytes32,address)": {
        "details": "Grants `role` to `account`. If `account` had not been already granted `role`, emits a {RoleGranted} event. Requirements: - the caller must have ``role``'s admin role."
      },
      "hasRole(bytes32,address)": {
        "details": "Returns `true` if `account` has been granted `role`."
      },
      "initialize(address,address)": {
        "params": {
          "_config": "The address of the GoldfinchConfig contract",
          "owner": "The address of who should have the \"OWNER_ROLE\" of this contract"
        }
      },
      "pause()": {
        "details": "Pauses all functions guarded by Pause See {Pausable-_pause}. Requirements: - the caller must have the PAUSER_ROLE."
      },
      "paused()": {
        "details": "Returns true if the contract is paused, and false otherwise."
      },
      "pay(address,uint256)": {
        "params": {
          "amount": "The amount, in USDC atomic units, that a borrower wishes to pay",
          "creditLineAddress": "The credit line to be paid back"
        }
      },
      "renounceRole(bytes32,address)": {
        "details": "Revokes `role` from the calling account. Roles are often managed via {grantRole} and {revokeRole}: this function's purpose is to provide a mechanism for accounts to lose their privileges if they are compromised (such as when a trusted device is misplaced). If the calling account had been granted `role`, emits a {RoleRevoked} event. Requirements: - the caller must be `account`."
      },
      "revokeRole(bytes32,address)": {
        "details": "Revokes `role` from `account`. If `account` had been granted `role`, emits a {RoleRevoked} event. Requirements: - the caller must have ``role``'s admin role."
      },
      "setUnderwriterGovernanceLimit(address,uint256)": {
        "params": {
          "limit": "What the new limit will be set to Requirements: - the caller must have the `OWNER_ROLE`.",
          "underwriterAddress": "The address of the underwriter for whom the limit shall change"
        }
      },
      "unpause()": {
        "details": "Unpauses the contract See {Pausable-_unpause}. Requirements: - the caller must have the Pauser role"
      }
    },
    "title": "Goldfinch's CreditDesk contract",
    "version": 1
  },
  "userdoc": {
    "kind": "user",
    "methods": {
      "assessCreditLine(address)": {
        "notice": "Assesses a particular creditLine. This will apply payments, which will update accounting and  distribute gains or losses back to the pool accordingly. This function is idempotent, and anyone  is allowed to call it."
      },
      "createCreditLine(address,uint256,uint256,uint256,uint256,uint256)": {
        "notice": "Allows an underwriter to create a new CreditLine for a single borrower"
      },
      "drawdown(uint256,address,address)": {
        "notice": "Allows a borrower to drawdown on their creditline.  `amount` USDC is sent to the borrower, and the credit line accounting is updated."
      },
      "getBorrowerCreditLines(address)": {
        "notice": "Simple getter for the creditlines of a given borrower"
      },
      "getUnderwriterCreditLines(address)": {
        "notice": "Simple getter for the creditlines of a given underwriter"
      },
      "initialize(address,address)": {
        "notice": "Run only once, on initialization"
      },
      "pay(address,uint256)": {
        "notice": "Allows a borrower to repay their loan. Payment is *collected* immediately (by sending it to  the individual CreditLine), but it is not *applied* unless it is after the nextDueBlock, or until we assess  the credit line (ie. payment period end).  Any amounts over the minimum payment will be applied to outstanding principal (reducing the effective  interest rate). If there is still any left over, it will remain in the USDC Balance  of the CreditLine, which is held distinct from the Pool amounts, and can not be withdrawn by LP's."
      },
      "setUnderwriterGovernanceLimit(address,uint256)": {
        "notice": "Sets a particular underwriter's limit of how much credit the DAO will allow them to \"create\""
      }
    },
    "notice": "Main entry point for borrowers and underwriters.  Handles key logic for creating CreditLine's, borrowing money, repayment, etc.",
    "version": 1
  },
  "storageLayout": {
    "storage": [
      {
        "astId": 50,
        "contract": "contracts/protocol/CreditDesk.sol:CreditDesk",
        "label": "initialized",
        "offset": 0,
        "slot": "0",
        "type": "t_bool"
      },
      {
        "astId": 53,
        "contract": "contracts/protocol/CreditDesk.sol:CreditDesk",
        "label": "initializing",
        "offset": 1,
        "slot": "0",
        "type": "t_bool"
      },
      {
        "astId": 118,
        "contract": "contracts/protocol/CreditDesk.sol:CreditDesk",
        "label": "______gap",
        "offset": 0,
        "slot": "1",
        "type": "t_array(t_uint256)50_storage"
      },
      {
        "astId": 43,
        "contract": "contracts/protocol/CreditDesk.sol:CreditDesk",
        "label": "__gap",
        "offset": 0,
        "slot": "51",
        "type": "t_array(t_uint256)50_storage"
      },
      {
        "astId": 163,
        "contract": "contracts/protocol/CreditDesk.sol:CreditDesk",
        "label": "_roles",
        "offset": 0,
        "slot": "101",
        "type": "t_mapping(t_bytes32,t_struct(RoleData)159_storage)"
      },
      {
        "astId": 408,
        "contract": "contracts/protocol/CreditDesk.sol:CreditDesk",
        "label": "__gap",
        "offset": 0,
        "slot": "102",
        "type": "t_array(t_uint256)49_storage"
      },
      {
        "astId": 2284,
        "contract": "contracts/protocol/CreditDesk.sol:CreditDesk",
        "label": "_paused",
        "offset": 0,
        "slot": "151",
        "type": "t_bool"
      },
      {
        "astId": 2373,
        "contract": "contracts/protocol/CreditDesk.sol:CreditDesk",
        "label": "__gap",
        "offset": 0,
        "slot": "152",
        "type": "t_array(t_uint256)49_storage"
      },
      {
        "astId": 2382,
        "contract": "contracts/protocol/CreditDesk.sol:CreditDesk",
        "label": "_notEntered",
        "offset": 0,
        "slot": "201",
        "type": "t_bool"
      },
      {
        "astId": 2423,
        "contract": "contracts/protocol/CreditDesk.sol:CreditDesk",
        "label": "__gap",
        "offset": 0,
        "slot": "202",
        "type": "t_array(t_uint256)49_storage"
      },
      {
        "astId": 4613,
        "contract": "contracts/protocol/CreditDesk.sol:CreditDesk",
        "label": "__gap1",
        "offset": 0,
        "slot": "251",
        "type": "t_array(t_uint256)50_storage"
      },
      {
        "astId": 4617,
        "contract": "contracts/protocol/CreditDesk.sol:CreditDesk",
        "label": "__gap2",
        "offset": 0,
        "slot": "301",
        "type": "t_array(t_uint256)50_storage"
      },
      {
        "astId": 4621,
        "contract": "contracts/protocol/CreditDesk.sol:CreditDesk",
        "label": "__gap3",
        "offset": 0,
        "slot": "351",
        "type": "t_array(t_uint256)50_storage"
      },
      {
        "astId": 4625,
        "contract": "contracts/protocol/CreditDesk.sol:CreditDesk",
        "label": "__gap4",
        "offset": 0,
        "slot": "401",
        "type": "t_array(t_uint256)50_storage"
      },
      {
        "astId": 3934,
        "contract": "contracts/protocol/CreditDesk.sol:CreditDesk",
        "label": "totalWritedowns",
        "offset": 0,
        "slot": "451",
        "type": "t_uint256"
      },
      {
        "astId": 3936,
        "contract": "contracts/protocol/CreditDesk.sol:CreditDesk",
        "label": "totalLoansOutstanding",
        "offset": 0,
        "slot": "452",
        "type": "t_uint256"
      },
      {
        "astId": 5124,
        "contract": "contracts/protocol/CreditDesk.sol:CreditDesk",
        "label": "config",
        "offset": 0,
        "slot": "453",
        "type": "t_contract(GoldfinchConfig)7693"
      },
      {
        "astId": 5181,
        "contract": "contracts/protocol/CreditDesk.sol:CreditDesk",
        "label": "underwriters",
        "offset": 0,
        "slot": "454",
        "type": "t_mapping(t_address,t_struct(Underwriter)5133_storage)"
      },
      {
        "astId": 5185,
        "contract": "contracts/protocol/CreditDesk.sol:CreditDesk",
        "label": "borrowers",
        "offset": 0,
        "slot": "455",
        "type": "t_mapping(t_address,t_struct(Borrower)5137_storage)"
      },
      {
        "astId": 5189,
        "contract": "contracts/protocol/CreditDesk.sol:CreditDesk",
        "label": "creditLines",
        "offset": 0,
        "slot": "456",
        "type": "t_mapping(t_address,t_address)"
      }
    ],
    "types": {
      "t_address": {
        "encoding": "inplace",
        "label": "address",
        "numberOfBytes": "20"
      },
      "t_array(t_address)dyn_storage": {
        "base": "t_address",
        "encoding": "dynamic_array",
        "label": "address[]",
        "numberOfBytes": "32"
      },
      "t_array(t_bytes32)dyn_storage": {
        "base": "t_bytes32",
        "encoding": "dynamic_array",
        "label": "bytes32[]",
        "numberOfBytes": "32"
      },
      "t_array(t_uint256)49_storage": {
        "base": "t_uint256",
        "encoding": "inplace",
        "label": "uint256[49]",
        "numberOfBytes": "1568"
      },
      "t_array(t_uint256)50_storage": {
        "base": "t_uint256",
        "encoding": "inplace",
        "label": "uint256[50]",
        "numberOfBytes": "1600"
      },
      "t_bool": {
        "encoding": "inplace",
        "label": "bool",
        "numberOfBytes": "1"
      },
      "t_bytes32": {
        "encoding": "inplace",
        "label": "bytes32",
        "numberOfBytes": "32"
      },
      "t_contract(GoldfinchConfig)7693": {
        "encoding": "inplace",
        "label": "contract GoldfinchConfig",
        "numberOfBytes": "20"
      },
      "t_mapping(t_address,t_address)": {
        "encoding": "mapping",
        "key": "t_address",
        "label": "mapping(address => address)",
        "numberOfBytes": "32",
        "value": "t_address"
      },
      "t_mapping(t_address,t_struct(Borrower)5137_storage)": {
        "encoding": "mapping",
        "key": "t_address",
        "label": "mapping(address => struct CreditDesk.Borrower)",
        "numberOfBytes": "32",
        "value": "t_struct(Borrower)5137_storage"
      },
      "t_mapping(t_address,t_struct(Underwriter)5133_storage)": {
        "encoding": "mapping",
        "key": "t_address",
        "label": "mapping(address => struct CreditDesk.Underwriter)",
        "numberOfBytes": "32",
        "value": "t_struct(Underwriter)5133_storage"
      },
      "t_mapping(t_bytes32,t_struct(RoleData)159_storage)": {
        "encoding": "mapping",
        "key": "t_bytes32",
        "label": "mapping(bytes32 => struct AccessControlUpgradeSafe.RoleData)",
        "numberOfBytes": "32",
        "value": "t_struct(RoleData)159_storage"
      },
      "t_mapping(t_bytes32,t_uint256)": {
        "encoding": "mapping",
        "key": "t_bytes32",
        "label": "mapping(bytes32 => uint256)",
        "numberOfBytes": "32",
        "value": "t_uint256"
      },
      "t_struct(AddressSet)2059_storage": {
        "encoding": "inplace",
        "label": "struct EnumerableSet.AddressSet",
        "members": [
          {
            "astId": 2058,
            "contract": "contracts/protocol/CreditDesk.sol:CreditDesk",
            "label": "_inner",
            "offset": 0,
            "slot": "0",
            "type": "t_struct(Set)1879_storage"
          }
        ],
        "numberOfBytes": "64"
      },
      "t_struct(Borrower)5137_storage": {
        "encoding": "inplace",
        "label": "struct CreditDesk.Borrower",
        "members": [
          {
            "astId": 5136,
            "contract": "contracts/protocol/CreditDesk.sol:CreditDesk",
            "label": "creditLines",
            "offset": 0,
            "slot": "0",
            "type": "t_array(t_address)dyn_storage"
          }
        ],
        "numberOfBytes": "32"
      },
      "t_struct(RoleData)159_storage": {
        "encoding": "inplace",
        "label": "struct AccessControlUpgradeSafe.RoleData",
        "members": [
          {
            "astId": 156,
            "contract": "contracts/protocol/CreditDesk.sol:CreditDesk",
            "label": "members",
            "offset": 0,
            "slot": "0",
            "type": "t_struct(AddressSet)2059_storage"
          },
          {
            "astId": 158,
            "contract": "contracts/protocol/CreditDesk.sol:CreditDesk",
            "label": "adminRole",
            "offset": 0,
            "slot": "2",
            "type": "t_bytes32"
          }
        ],
        "numberOfBytes": "96"
      },
      "t_struct(Set)1879_storage": {
        "encoding": "inplace",
        "label": "struct EnumerableSet.Set",
        "members": [
          {
            "astId": 1874,
            "contract": "contracts/protocol/CreditDesk.sol:CreditDesk",
            "label": "_values",
            "offset": 0,
            "slot": "0",
            "type": "t_array(t_bytes32)dyn_storage"
          },
          {
            "astId": 1878,
            "contract": "contracts/protocol/CreditDesk.sol:CreditDesk",
            "label": "_indexes",
            "offset": 0,
            "slot": "1",
            "type": "t_mapping(t_bytes32,t_uint256)"
          }
        ],
        "numberOfBytes": "64"
      },
      "t_struct(Underwriter)5133_storage": {
        "encoding": "inplace",
        "label": "struct CreditDesk.Underwriter",
        "members": [
          {
            "astId": 5129,
            "contract": "contracts/protocol/CreditDesk.sol:CreditDesk",
            "label": "governanceLimit",
            "offset": 0,
            "slot": "0",
            "type": "t_uint256"
          },
          {
            "astId": 5132,
            "contract": "contracts/protocol/CreditDesk.sol:CreditDesk",
            "label": "creditLines",
            "offset": 0,
            "slot": "1",
            "type": "t_array(t_address)dyn_storage"
          }
        ],
        "numberOfBytes": "64"
      },
      "t_uint256": {
        "encoding": "inplace",
        "label": "uint256",
        "numberOfBytes": "32"
      }
    }
  }
}