{
  "abi": [
    {
      "anonymous": false,
      "inputs": [
        {
          "indexed": true,
          "internalType": "address",
          "name": "borrower",
          "type": "address"
        },
        {
          "indexed": true,
          "internalType": "address",
          "name": "creditLine",
          "type": "address"
        }
      ],
      "name": "CreditLineCreated",
      "type": "event"
    },
    {
      "anonymous": false,
      "inputs": [
        {
          "indexed": true,
          "internalType": "address",
          "name": "borrower",
          "type": "address"
        },
        {
          "indexed": true,
          "internalType": "address",
          "name": "creditLine",
          "type": "address"
        },
        {
          "indexed": false,
          "internalType": "uint256",
          "name": "drawdownAmount",
          "type": "uint256"
        }
      ],
      "name": "DrawdownMade",
      "type": "event"
    },
    {
      "anonymous": false,
      "inputs": [
        {
          "indexed": true,
          "internalType": "address",
          "name": "underwriter",
          "type": "address"
        },
        {
          "indexed": false,
          "internalType": "uint256",
          "name": "newLimit",
          "type": "uint256"
        }
      ],
      "name": "GovernanceUpdatedUnderwriterLimit",
      "type": "event"
    },
    {
      "anonymous": false,
      "inputs": [
        {
          "indexed": false,
          "internalType": "address",
          "name": "account",
          "type": "address"
        }
      ],
      "name": "Paused",
      "type": "event"
    },
    {
      "anonymous": false,
      "inputs": [
        {
          "indexed": true,
          "internalType": "address",
          "name": "payer",
          "type": "address"
        },
        {
          "indexed": true,
          "internalType": "address",
          "name": "creditLine",
          "type": "address"
        },
        {
          "indexed": false,
          "internalType": "uint256",
          "name": "interestAmount",
          "type": "uint256"
        },
        {
          "indexed": false,
          "internalType": "uint256",
          "name": "principalAmount",
          "type": "uint256"
        },
        {
          "indexed": false,
          "internalType": "uint256",
          "name": "remainingAmount",
          "type": "uint256"
        }
      ],
      "name": "PaymentApplied",
      "type": "event"
    },
    {
      "anonymous": false,
      "inputs": [
        {
          "indexed": true,
          "internalType": "address",
          "name": "payer",
          "type": "address"
        },
        {
          "indexed": true,
          "internalType": "address",
          "name": "creditLine",
          "type": "address"
        },
        {
          "indexed": false,
          "internalType": "uint256",
          "name": "paymentAmount",
          "type": "uint256"
        }
      ],
      "name": "PaymentCollected",
      "type": "event"
    },
    {
      "anonymous": false,
      "inputs": [
        {
          "indexed": true,
          "internalType": "bytes32",
          "name": "role",
          "type": "bytes32"
        },
        {
          "indexed": true,
          "internalType": "address",
          "name": "account",
          "type": "address"
        },
        {
          "indexed": true,
          "internalType": "address",
          "name": "sender",
          "type": "address"
        }
      ],
      "name": "RoleGranted",
      "type": "event"
    },
    {
      "anonymous": false,
      "inputs": [
        {
          "indexed": true,
          "internalType": "bytes32",
          "name": "role",
          "type": "bytes32"
        },
        {
          "indexed": true,
          "internalType": "address",
          "name": "account",
          "type": "address"
        },
        {
          "indexed": true,
          "internalType": "address",
          "name": "sender",
          "type": "address"
        }
      ],
      "name": "RoleRevoked",
      "type": "event"
    },
    {
      "anonymous": false,
      "inputs": [
        {
          "indexed": false,
          "internalType": "address",
          "name": "account",
          "type": "address"
        }
      ],
      "name": "Unpaused",
      "type": "event"
    },
    {
      "inputs": [],
      "name": "BLOCKS_PER_DAY",
      "outputs": [
        {
          "internalType": "uint256",
          "name": "",
          "type": "uint256"
        }
      ],
      "stateMutability": "view",
      "type": "function"
    },
    {
      "inputs": [],
      "name": "DEFAULT_ADMIN_ROLE",
      "outputs": [
        {
          "internalType": "bytes32",
          "name": "",
          "type": "bytes32"
        }
      ],
      "stateMutability": "view",
      "type": "function"
    },
    {
      "inputs": [],
      "name": "OWNER_ROLE",
      "outputs": [
        {
          "internalType": "bytes32",
          "name": "",
          "type": "bytes32"
        }
      ],
      "stateMutability": "view",
      "type": "function"
    },
    {
      "inputs": [],
      "name": "PAUSER_ROLE",
      "outputs": [
        {
          "internalType": "bytes32",
          "name": "",
          "type": "bytes32"
        }
      ],
      "stateMutability": "view",
      "type": "function"
    },
    {
      "inputs": [
        {
          "internalType": "address",
          "name": "owner",
          "type": "address"
        }
      ],
      "name": "__BaseUpgradeablePausable__init",
      "outputs": [],
      "stateMutability": "nonpayable",
      "type": "function"
    },
    {
      "inputs": [],
      "name": "__PauserPausable__init",
      "outputs": [],
      "stateMutability": "nonpayable",
      "type": "function"
    },
    {
      "inputs": [
        {
          "internalType": "address",
          "name": "creditLineAddress",
          "type": "address"
        }
      ],
      "name": "assessCreditLine",
      "outputs": [],
      "stateMutability": "nonpayable",
      "type": "function"
    },
    {
      "inputs": [],
      "name": "config",
      "outputs": [
        {
          "internalType": "contract GoldfinchConfig",
          "name": "",
          "type": "address"
        }
      ],
      "stateMutability": "view",
      "type": "function"
    },
    {
      "inputs": [
        {
          "internalType": "address",
          "name": "_borrower",
          "type": "address"
        },
        {
          "internalType": "uint256",
          "name": "_limit",
          "type": "uint256"
        },
        {
          "internalType": "uint256",
          "name": "_interestApr",
          "type": "uint256"
        },
        {
          "internalType": "uint256",
          "name": "_paymentPeriodInDays",
          "type": "uint256"
        },
        {
          "internalType": "uint256",
          "name": "_termInDays",
          "type": "uint256"
        }
      ],
      "name": "createCreditLine",
      "outputs": [],
      "stateMutability": "nonpayable",
      "type": "function"
    },
    {
      "inputs": [
        {
          "internalType": "uint256",
          "name": "amount",
          "type": "uint256"
        },
        {
          "internalType": "address",
          "name": "creditLineAddress",
          "type": "address"
        },
        {
          "internalType": "address",
          "name": "addressToSendTo",
          "type": "address"
        }
      ],
      "name": "drawdown",
      "outputs": [],
      "stateMutability": "nonpayable",
      "type": "function"
    },
    {
      "inputs": [
        {
          "internalType": "address",
          "name": "borrowerAddress",
          "type": "address"
        }
      ],
      "name": "getBorrowerCreditLines",
      "outputs": [
        {
          "internalType": "address[]",
          "name": "",
          "type": "address[]"
        }
      ],
      "stateMutability": "view",
      "type": "function"
    },
    {
      "inputs": [
        {
          "internalType": "bytes32",
          "name": "role",
          "type": "bytes32"
        }
      ],
      "name": "getRoleAdmin",
      "outputs": [
        {
          "internalType": "bytes32",
          "name": "",
          "type": "bytes32"
        }
      ],
      "stateMutability": "view",
      "type": "function"
    },
    {
      "inputs": [
        {
          "internalType": "bytes32",
          "name": "role",
          "type": "bytes32"
        },
        {
          "internalType": "uint256",
          "name": "index",
          "type": "uint256"
        }
      ],
      "name": "getRoleMember",
      "outputs": [
        {
          "internalType": "address",
          "name": "",
          "type": "address"
        }
      ],
      "stateMutability": "view",
      "type": "function"
    },
    {
      "inputs": [
        {
          "internalType": "bytes32",
          "name": "role",
          "type": "bytes32"
        }
      ],
      "name": "getRoleMemberCount",
      "outputs": [
        {
          "internalType": "uint256",
          "name": "",
          "type": "uint256"
        }
      ],
      "stateMutability": "view",
      "type": "function"
    },
    {
      "inputs": [
        {
          "internalType": "address",
          "name": "underwriterAddress",
          "type": "address"
        }
      ],
      "name": "getUnderwriterCreditLines",
      "outputs": [
        {
          "internalType": "address[]",
          "name": "",
          "type": "address[]"
        }
      ],
      "stateMutability": "view",
      "type": "function"
    },
    {
      "inputs": [
        {
          "internalType": "bytes32",
          "name": "role",
          "type": "bytes32"
        },
        {
          "internalType": "address",
          "name": "account",
          "type": "address"
        }
      ],
      "name": "grantRole",
      "outputs": [],
      "stateMutability": "nonpayable",
      "type": "function"
    },
    {
      "inputs": [
        {
          "internalType": "bytes32",
          "name": "role",
          "type": "bytes32"
        },
        {
          "internalType": "address",
          "name": "account",
          "type": "address"
        }
      ],
      "name": "hasRole",
      "outputs": [
        {
          "internalType": "bool",
          "name": "",
          "type": "bool"
        }
      ],
      "stateMutability": "view",
      "type": "function"
    },
    {
      "inputs": [
        {
          "internalType": "address",
          "name": "owner",
          "type": "address"
        },
        {
          "internalType": "contract GoldfinchConfig",
          "name": "_config",
          "type": "address"
        }
      ],
      "name": "initialize",
      "outputs": [],
      "stateMutability": "nonpayable",
      "type": "function"
    },
    {
      "inputs": [],
      "name": "isAdmin",
      "outputs": [
        {
          "internalType": "bool",
          "name": "",
          "type": "bool"
        }
      ],
      "stateMutability": "view",
      "type": "function"
    },
    {
      "inputs": [],
      "name": "pause",
      "outputs": [],
      "stateMutability": "nonpayable",
      "type": "function"
    },
    {
      "inputs": [],
      "name": "paused",
      "outputs": [
        {
          "internalType": "bool",
          "name": "",
          "type": "bool"
        }
      ],
      "stateMutability": "view",
      "type": "function"
    },
    {
      "inputs": [
        {
          "internalType": "address",
          "name": "creditLineAddress",
          "type": "address"
        },
        {
          "internalType": "uint256",
          "name": "amount",
          "type": "uint256"
        }
      ],
      "name": "pay",
      "outputs": [],
      "stateMutability": "nonpayable",
      "type": "function"
    },
    {
      "inputs": [
        {
          "internalType": "bytes32",
          "name": "role",
          "type": "bytes32"
        },
        {
          "internalType": "address",
          "name": "account",
          "type": "address"
        }
      ],
      "name": "renounceRole",
      "outputs": [],
      "stateMutability": "nonpayable",
      "type": "function"
    },
    {
      "inputs": [
        {
          "internalType": "bytes32",
          "name": "role",
          "type": "bytes32"
        },
        {
          "internalType": "address",
          "name": "account",
          "type": "address"
        }
      ],
      "name": "revokeRole",
      "outputs": [],
      "stateMutability": "nonpayable",
      "type": "function"
    },
    {
      "inputs": [
        {
          "internalType": "address",
          "name": "underwriterAddress",
          "type": "address"
        },
        {
          "internalType": "uint256",
          "name": "limit",
          "type": "uint256"
        }
      ],
      "name": "setUnderwriterGovernanceLimit",
      "outputs": [],
      "stateMutability": "nonpayable",
      "type": "function"
    },
    {
      "inputs": [],
      "name": "totalLoansOutstanding",
      "outputs": [
        {
          "internalType": "uint256",
          "name": "",
          "type": "uint256"
        }
      ],
      "stateMutability": "view",
      "type": "function"
    },
    {
      "inputs": [],
      "name": "totalWritedowns",
      "outputs": [
        {
          "internalType": "uint256",
          "name": "",
          "type": "uint256"
        }
      ],
      "stateMutability": "view",
      "type": "function"
    },
    {
      "inputs": [
        {
          "internalType": "address",
          "name": "",
          "type": "address"
        }
      ],
      "name": "underwriters",
      "outputs": [
        {
          "internalType": "uint256",
          "name": "governanceLimit",
          "type": "uint256"
        }
      ],
      "stateMutability": "view",
      "type": "function"
    },
    {
      "inputs": [],
      "name": "unpause",
      "outputs": [],
      "stateMutability": "nonpayable",
      "type": "function"
    }
  ],
  "address": "0xf4Eb5491C2E6DA678e08546d889B0E3dd5B378e7",
  "args": [],
  "solcInputHash": "0x61965cc0b5abb55abef9f7574b76c9051fc488b5a6cbd46c33e8f9d520f338be",
  "bytecode": "0x608060405234801561001057600080fd5b5061406b806100206000396000f3fe608060405234801561001057600080fd5b50600436106101cf5760003560e01c80638456cb5911610104578063c4076876116100a2578063e63ab1e911610071578063e63ab1e914610380578063e6a0452314610388578063ed80c8501461039b578063f5c7e0e2146103a3576101cf565b8063c40768761461033f578063ca15c87314610352578063d547741f14610365578063e58378bb14610378576101cf565b8063a217fddf116100de578063a217fddf14610314578063a6f4487e1461031c578063b6db75a014610324578063c26ff9361461032c576101cf565b80638456cb59146102e65780639010d07c146102ee57806391d1485414610301576101cf565b806351d33a57116101715780636bb987fe1161014b5780636bb987fe1461029657806379502c551461029e5780637d533642146102b3578063844a28c3146102c6576101cf565b806351d33a5714610266578063526d81f6146102795780635c975abb14610281576101cf565b80632f2ff15d116101ad5780632f2ff15d1461022557806336568abe146102385780633f4ba83a1461024b578063485cc95514610253576101cf565b8063097616a3146101d45780630e4645ef146101e9578063248a9ca3146101fc575b600080fd5b6101e76101e236600461358a565b6103b6565b005b6101e76101f73660046135fa565b6104ec565b61020f61020a366004613688565b6105bc565b60405161021c919061391a565b60405180910390f35b6101e76102333660046136a0565b6105d4565b6101e76102463660046136a0565b610618565b6101e761065a565b6101e76102613660046135c2565b61069f565b6101e7610274366004613754565b610749565b6101e7610b7f565b610289610c0a565b60405161021c919061390f565b61020f610c13565b6102a6610c19565b60405161021c9190613830565b61020f6102c136600461358a565b610c29565b6102d96102d436600461358a565b610c3c565b60405161021c91906138c2565b6101e7610cda565b6102a66102fc3660046136c4565b610d0d565b61028961030f3660046136a0565b610d34565b61020f610d52565b61020f610d57565b610289610d5e565b6102d961033a36600461358a565b610d74565b6101e761034d3660046135fa565b610e0d565b61020f610360366004613688565b610f8c565b6101e76103733660046136a0565b610fa3565b61020f610fdd565b61020f610ff4565b6101e7610396366004613625565b611000565b61020f6112d1565b6101e76103b136600461358a565b6112d8565b600054610100900460ff16806103cf57506103cf6114a1565b806103dd575060005460ff16155b6104025760405162461bcd60e51b81526004016103f990613d11565b60405180910390fd5b600054610100900460ff1615801561042d576000805460ff1961ff0019909116610100171660011790555b6001600160a01b0382166104535760405162461bcd60e51b81526004016103f990613c29565b61045b6114a7565b610463611528565b61046b6115b4565b61048860405161047a9061381a565b60405180910390208361060e565b61049760405161047a90613803565b6104c76040516104a690613803565b60405180910390206040516104ba9061381a565b6040518091039020611643565b6104d66040516104a69061381a565b80156104e8576000805461ff00191690555b5050565b6104f4610d5e565b6105105760405162461bcd60e51b81526004016103f990613f55565b60975460ff16156105335760405162461bcd60e51b81526004016103f990613bb7565b6001600160a01b03821660009081526101c66020526040902061055582611658565b6105715760405162461bcd60e51b81526004016103f990613d96565b8181556040516001600160a01b038416907f7be5403eca163f383a39c2d1f65a8fee2c9e41e7e6b150f4abfe16eaaf1d9076906105af90859061391a565b60405180910390a2505050565b6000818152606560205260409020600201545b919050565b6000828152606560205260409020600201546105f29061030f6116e5565b61060e5760405162461bcd60e51b81526004016103f9906139b5565b6104e882826116e9565b6106206116e5565b6001600160a01b0316816001600160a01b0316146106505760405162461bcd60e51b81526004016103f990613fa0565b6104e88282611758565b61067960405161066990613803565b604051809103902061030f6116e5565b6106955760405162461bcd60e51b81526004016103f990613ebf565b61069d6117c7565b565b600054610100900460ff16806106b857506106b86114a1565b806106c6575060005460ff16155b6106e25760405162461bcd60e51b81526004016103f990613d11565b600054610100900460ff1615801561070d576000805460ff1961ff0019909116610100171660011790555b610716836103b6565b6101c580546001600160a01b0319166001600160a01b0384161790558015610744576000805461ff00191690555b505050565b60975460ff161561076c5760405162461bcd60e51b81526004016103f990613bb7565b6001600160a01b0380831660009081526101c860205260409020548391166107a65760405162461bcd60e51b81526004016103f990613c5e565b600084116107c65760405162461bcd60e51b81526004016103f990613df3565b336001600160a01b0316816001600160a01b0316637df1f1b96040518163ffffffff1660e01b815260040160206040518083038186803b15801561080957600080fd5b505afa15801561081d573d6000803e3d6000fd5b505050506040513d601f19601f8201168201806040525081019061084191906135a6565b6001600160a01b0316146108675760405162461bcd60e51b81526004016103f990613c8b565b61087084611833565b61088c5760405162461bcd60e51b81526004016103f990613be1565b610896848261184e565b6108b25760405162461bcd60e51b81526004016103f990613e2a565b6108bb81611907565b156108d85760405162461bcd60e51b81526004016103f990613f2b565b6001600160a01b0382166108ea573391505b806001600160a01b031663b69ef8a86040518163ffffffff1660e01b815260040160206040518083038186803b15801561092357600080fd5b505afa158015610937573d6000803e3d6000fd5b505050506040513d601f19601f8201168201806040525081019061095b919061373c565b6109be576040516327e7b26360e01b81526001600160a01b038216906327e7b2639061098b90439060040161391a565b600060405180830381600087803b1580156109a557600080fd5b505af11580156109b9573d6000803e3d6000fd5b505050505b6000806109cb83436119cb565b915091506000610a5287856001600160a01b031663b69ef8a86040518163ffffffff1660e01b815260040160206040518083038186803b158015610a0e57600080fd5b505afa158015610a22573d6000803e3d6000fd5b505050506040513d601f19601f82011682018060405250810190610a46919061373c565b9063ffffffff611ae416565b9050610a6084828585611b09565b836001600160a01b0316336001600160a01b03167f7ec4669c579321a5cf5a6b525637eb0924a93e2e11eab9d14be8b44de1116b1b89604051610aa3919061391a565b60405180910390a36101c554600090610ac4906001600160a01b0316611d9e565b6101c5546001600160a01b03918216916323b872dd91610ae49116611da5565b888b6040518463ffffffff1660e01b8152600401610b0493929190613844565b602060405180830381600087803b158015610b1e57600080fd5b505af1158015610b32573d6000803e3d6000fd5b505050506040513d601f19601f82011682018060405250810190610b569190613668565b905080610b755760405162461bcd60e51b81526004016103f990613ab6565b5050505050505050565b600054610100900460ff1680610b985750610b986114a1565b80610ba6575060005460ff16155b610bc25760405162461bcd60e51b81526004016103f990613d11565b600054610100900460ff16158015610bed576000805460ff1961ff0019909116610100171660011790555b610bf5611528565b8015610c07576000805461ff00191690555b50565b60975460ff1690565b61168081565b6101c5546001600160a01b031681565b6101c66020526000908152604090205481565b60975460609060ff1615610c625760405162461bcd60e51b81526004016103f990613bb7565b6001600160a01b03821660009081526101c6602090815260409182902060010180548351818402810184019094528084529091830182828015610cce57602002820191906000526020600020905b81546001600160a01b03168152600190910190602001808311610cb0575b50505050509050919050565b610ce960405161066990613803565b610d055760405162461bcd60e51b81526004016103f990613b80565b61069d611e24565b6000828152606560205260408120610d2b908363ffffffff611e7d16565b90505b92915050565b6000828152606560205260408120610d2b908363ffffffff611e8916565b600081565b6101c35481565b6000610d6f6040516106699061381a565b905090565b60975460609060ff1615610d9a5760405162461bcd60e51b81526004016103f990613bb7565b6001600160a01b03821660009081526101c7602090815260409182902080548351818402810184019094528084529091830182828015610cce576020028201919060005260206000209081546001600160a01b03168152600190910190602001808311610cb05750505050509050919050565b60975460ff1615610e305760405162461bcd60e51b81526004016103f990613bb7565b6001600160a01b0382811660009081526101c8602052604090205416610e685760405162461bcd60e51b81526004016103f990613c5e565b60008111610e885760405162461bcd60e51b81526004016103f990613e88565b81610e938183611e9e565b806001600160a01b031663500b245e6040518163ffffffff1660e01b815260040160206040518083038186803b158015610ecc57600080fd5b505afa158015610ee0573d6000803e3d6000fd5b505050506040513d601f19601f82011682018060405250810190610f04919061373c565b431015610f1157506104e8565b61074481826001600160a01b031663791be83c6040518163ffffffff1660e01b815260040160206040518083038186803b158015610f4e57600080fd5b505afa158015610f62573d6000803e3d6000fd5b505050506040513d601f19601f82011682018060405250810190610f86919061373c565b4361211e565b6000818152606560205260408120610d2e9061236c565b600082815260656020526040902060020154610fc19061030f6116e5565b6106505760405162461bcd60e51b81526004016103f990613b30565b604051610fe99061381a565b604051809103902081565b604051610fe990613803565b60975460ff16156110235760405162461bcd60e51b81526004016103f990613bb7565b3360009081526101c6602090815260408083206001600160a01b03891684526101c79092529091206110558683612377565b6110715760405162461bcd60e51b81526004016103f990613ae2565b6060308833898989896040516024016110909796959493929190613868565b60408051601f198184030181529190526020810180516001600160e01b0316630568cad960e31b179052905060006110c66123a5565b6001600160a01b0316639390bce0836040518263ffffffff1660e01b81526004016110f1919061393a565b602060405180830381600087803b15801561110b57600080fd5b505af115801561111f573d6000803e3d6000fd5b505050506040513d601f19601f8201168201806040525081019061114391906135a6565b6001808601805480830182556000918252602080832090910180546001600160a01b038087166001600160a01b0319928316811790935589549586018a5589855283852090950180548216831790558184526101c89092526040808420805490931682179092559051939450849390928d16917fc1d7685016f2246662e70fe17df916e959813e9ab93d50c4f039c0c069c5f37191a3806001600160a01b0316632f2ff15d6040516111f49061381a565b6040519081900390206101c554611213906001600160a01b0316612428565b6040518363ffffffff1660e01b8152600401611230929190613923565b600060405180830381600087803b15801561124a57600080fd5b505af115801561125e573d6000803e3d6000fd5b50506101c55460405163182cdbe360e11b81526001600160a01b038086169450633059b7c69350611293921690600401613830565b600060405180830381600087803b1580156112ad57600080fd5b505af11580156112c1573d6000803e3d6000fd5b5050505050505050505050505050565b6101c45481565b60975460ff16156112fb5760405162461bcd60e51b81526004016103f990613bb7565b6001600160a01b0381811660009081526101c86020526040902054166113335760405162461bcd60e51b81526004016103f990613c5e565b6000819050806001600160a01b031663500b245e6040518163ffffffff1660e01b815260040160206040518083038186803b15801561137157600080fd5b505afa158015611385573d6000803e3d6000fd5b505050506040513d601f19601f820116820180604052508101906113a9919061373c565b4310156113b65750610c07565b6104e881826001600160a01b031663791be83c6040518163ffffffff1660e01b815260040160206040518083038186803b1580156113f357600080fd5b505afa158015611407573d6000803e3d6000fd5b505050506040513d601f19601f8201168201806040525081019061142b919061373c565b836001600160a01b031663500b245e6040518163ffffffff1660e01b815260040160206040518083038186803b15801561146457600080fd5b505afa158015611478573d6000803e3d6000fd5b505050506040513d601f19601f8201168201806040525081019061149c919061373c565b61211e565b303b1590565b600054610100900460ff16806114c057506114c06114a1565b806114ce575060005460ff16155b6114ea5760405162461bcd60e51b81526004016103f990613d11565b600054610100900460ff16158015610bf5576000805460ff1961ff0019909116610100171660011790558015610c07576000805461ff001916905550565b600054610100900460ff168061154157506115416114a1565b8061154f575060005460ff16155b61156b5760405162461bcd60e51b81526004016103f990613d11565b600054610100900460ff16158015611596576000805460ff1961ff0019909116610100171660011790555b6097805460ff191690558015610c07576000805461ff001916905550565b600054610100900460ff16806115cd57506115cd6114a1565b806115db575060005460ff16155b6115f75760405162461bcd60e51b81526004016103f990613d11565b600054610100900460ff16158015611622576000805460ff1961ff0019909116610100171660011790555b60c9805460ff191660011790558015610c07576000805461ff001916905550565b60009182526065602052604090912060020155565b6101c5546000906001600160a01b031663fc56365860025b6040518263ffffffff1660e01b815260040161168c919061391a565b60206040518083038186803b1580156116a457600080fd5b505afa1580156116b8573d6000803e3d6000fd5b505050506040513d601f19601f820116820180604052508101906116dc919061373c565b90911115919050565b3390565b6000828152606560205260409020611707908263ffffffff61244016565b156104e8576117146116e5565b6001600160a01b0316816001600160a01b0316837f2f8788117e7eff1d82e926ec794901d17c78024a50270940304540a733656f0d60405160405180910390a45050565b6000828152606560205260409020611776908263ffffffff61245516565b156104e8576117836116e5565b6001600160a01b0316816001600160a01b0316837ff6391f5c32d9c69d2a47ea670b442974b53935d1edc7fd64eb21e047a839171b60405160405180910390a45050565b60975460ff166117e95760405162461bcd60e51b81526004016103f990613a04565b6097805460ff191690557f5db9ee0a495bf2e6ff9c91a7834c1ba4fdd244a5e8aa4e537bd38aeae4b073aa61181c6116e5565b6040516118299190613830565b60405180910390a1565b6101c5546000906001600160a01b031663fc56365882611670565b6000816001600160a01b031663a4d66daf6040518163ffffffff1660e01b815260040160206040518083038186803b15801561188957600080fd5b505afa15801561189d573d6000803e3d6000fd5b505050506040513d601f19601f820116820180604052508101906118c1919061373c565b6118fe84846001600160a01b031663b69ef8a86040518163ffffffff1660e01b815260040160206040518083038186803b158015610a0e57600080fd5b11159392505050565b600080600073__$44894cb0e228c8872d7664995d3f4ce933$__63ca573568854360006119526101c560009054906101000a90046001600160a01b03166001600160a01b031661246a565b6040518563ffffffff1660e01b8152600401611971949392919061394d565b604080518083038186803b15801561198857600080fd5b505af415801561199c573d6000803e3d6000fd5b505050506040513d601f19601f820116820180604052508101906119c09190613795565b501515949350505050565b60008060008073__$44894cb0e228c8872d7664995d3f4ce933$__634678497187876040518363ffffffff1660e01b8152600401611a0a9291906138a9565b604080518083038186803b158015611a2157600080fd5b505af4158015611a35573d6000803e3d6000fd5b505050506040513d601f19601f82011682018060405250810190611a599190613795565b91509150611a9a82876001600160a01b03166321856b366040518163ffffffff1660e01b815260040160206040518083038186803b158015610a0e57600080fd5b611ad782886001600160a01b031663193501146040518163ffffffff1660e01b815260040160206040518083038186803b158015610a0e57600080fd5b9350935050509250929050565b600082820183811015610d2b5760405162461bcd60e51b81526004016103f990613a7f565b60c95460ff16611b2b5760405162461bcd60e51b81526004016103f990613ef4565b60c9805460ff19169055611b3e846124ea565b604051637d8b34e560e11b81526001600160a01b0385169063fb1669ca90611b6a90869060040161391a565b600060405180830381600087803b158015611b8457600080fd5b505af1158015611b98573d6000803e3d6000fd5b50506040516396c8df3760e01b81526001600160a01b03871692506396c8df379150611bc890859060040161391a565b600060405180830381600087803b158015611be257600080fd5b505af1158015611bf6573d6000803e3d6000fd5b505060405163b3b8a9c760e01b81526001600160a01b038716925063b3b8a9c79150611c2690849060040161391a565b600060405180830381600087803b158015611c4057600080fd5b505af1158015611c54573d6000803e3d6000fd5b50506040516327e7b26360e01b81526001600160a01b03871692506327e7b2639150611c8490439060040161391a565b600060405180830381600087803b158015611c9e57600080fd5b505af1158015611cb2573d6000803e3d6000fd5b50505050611cbf84612575565b836001600160a01b031663fb9eb990611cd7866125f9565b6040518263ffffffff1660e01b8152600401611cf3919061391a565b600060405180830381600087803b158015611d0d57600080fd5b505af1158015611d21573d6000803e3d6000fd5b50505050836001600160a01b0316637957dda3611d3d866127fb565b6040518263ffffffff1660e01b8152600401611d59919061391a565b600060405180830381600087803b158015611d7357600080fd5b505af1158015611d87573d6000803e3d6000fd5b505060c9805460ff19166001179055505050505050565b6000610d2e825b60006001600160a01b03821663b93f9b0a825b6040518263ffffffff1660e01b8152600401611dd4919061391a565b60206040518083038186803b158015611dec57600080fd5b505afa158015611e00573d6000803e3d6000fd5b505050506040513d601f19601f82011682018060405250810190610d2e91906135a6565b60975460ff1615611e475760405162461bcd60e51b81526004016103f990613bb7565b6097805460ff191660011790557f62e78cea01bee320cd4e420270b5ea74000d11b0c9f74754ebdbfc544b05a25861181c6116e5565b6000610d2b8383612d2a565b6000610d2b836001600160a01b038416612d6f565b611ea781611833565b611ec35760405162461bcd60e51b81526004016103f990613be1565b6101c5548190611edb906001600160a01b0316612d87565b6001600160a01b03166370a08231336040518263ffffffff1660e01b8152600401611f069190613830565b60206040518083038186803b158015611f1e57600080fd5b505afa158015611f32573d6000803e3d6000fd5b505050506040513d601f19601f82011682018060405250810190611f56919061373c565b1015611f745760405162461bcd60e51b81526004016103f990613a32565b6000611fb382846001600160a01b031663791be83c6040518163ffffffff1660e01b815260040160206040518083038186803b158015610a0e57600080fd5b60405163022f5fe160e21b81529091506001600160a01b038416906308bd7f8490611fe290849060040161391a565b600060405180830381600087803b158015611ffc57600080fd5b505af1158015612010573d6000803e3d6000fd5b50505050826001600160a01b0316336001600160a01b03167fc4036209c61f1d5aad789d2b8fa9ca23bf8b1516748d2e0be7227bf3fce67d2d84604051612057919061391a565b60405180910390a36101c554600090612078906001600160a01b0316611d9e565b6001600160a01b03166323b872dd3386866040518463ffffffff1660e01b81526004016120a793929190613844565b602060405180830381600087803b1580156120c157600080fd5b505af11580156120d5573d6000803e3d6000fd5b505050506040513d601f19601f820116820180604052508101906120f99190613668565b9050806121185760405162461bcd60e51b81526004016103f990613d5f565b50505050565b600080600061212e868686612d9f565b925092509250856001600160a01b03166308bd7f84846040518263ffffffff1660e01b8152600401612160919061391a565b600060405180830381600087803b15801561217a57600080fd5b505af115801561218e573d6000803e3d6000fd5b5050505061219b8661302c565b6000821561221d57506101c5546001906121bd906001600160a01b0316611d9e565b6001600160a01b03166364de8a0788856040518363ffffffff1660e01b81526004016121ea9291906138a9565b600060405180830381600087803b15801561220457600080fd5b505af1158015612218573d6000803e3d6000fd5b505050505b811561229d57506101c55460019061223d906001600160a01b0316611d9e565b6001600160a01b031663bcfa41ba88846040518363ffffffff1660e01b815260040161226a9291906138a9565b600060405180830381600087803b15801561228457600080fd5b505af1158015612298573d6000803e3d6000fd5b505050505b801561236357866001600160a01b0316876001600160a01b0316637df1f1b96040518163ffffffff1660e01b815260040160206040518083038186803b1580156122e657600080fd5b505afa1580156122fa573d6000803e3d6000fd5b505050506040513d601f19601f8201168201806040525081019061231e91906135a6565b6001600160a01b03167f724fe786cff62c97ff230e98a332f95c5a11990e44123a00c2b8e76b0566e41185858860405161235a93929190613fef565b60405180910390a35b50505050505050565b6000610d2e826132c0565b600080612383836132c4565b90506000612397828663ffffffff611ae416565b845410159250505092915050565b6101c554604051635c9fcd8560e11b81526000916001600160a01b03169063b93f9b0a906123d89060029060040161391a565b60206040518083038186803b1580156123f057600080fd5b505afa158015612404573d6000803e3d6000fd5b505050506040513d601f19601f82011682018060405250810190610d6f91906135a6565b60006001600160a01b03821663b93f9b0a6007611db8565b6000610d2b836001600160a01b038416613399565b6000610d2b836001600160a01b0384166133e3565b60006001600160a01b03821663fc56365860065b6040518263ffffffff1660e01b815260040161249a919061391a565b60206040518083038186803b1580156124b257600080fd5b505afa1580156124c6573d6000803e3d6000fd5b505050506040513d601f19601f82011682018060405250810190610d2e919061373c565b61256e816001600160a01b031663b69ef8a86040518163ffffffff1660e01b815260040160206040518083038186803b15801561252657600080fd5b505afa15801561253a573d6000803e3d6000fd5b505050506040513d601f19601f8201168201806040525081019061255e919061373c565b6101c4549063ffffffff6134a916565b6101c45550565b61256e816001600160a01b031663b69ef8a86040518163ffffffff1660e01b815260040160206040518083038186803b1580156125b157600080fd5b505afa1580156125c5573d6000803e3d6000fd5b505050506040513d601f19601f820116820180604052508101906125e9919061373c565b6101c4549063ffffffff611ae416565b600080826001600160a01b031663b69ef8a86040518163ffffffff1660e01b815260040160206040518083038186803b15801561263557600080fd5b505afa158015612649573d6000803e3d6000fd5b505050506040513d601f19601f8201168201806040525081019061266d919061373c565b1161267a575060006105cf565b816001600160a01b0316631790ebd56040518163ffffffff1660e01b815260040160206040518083038186803b1580156126b357600080fd5b505afa1580156126c7573d6000803e3d6000fd5b505050506040513d601f19601f820116820180604052508101906126eb919061373c565b1561276857816001600160a01b0316631790ebd56040518163ffffffff1660e01b815260040160206040518083038186803b15801561272957600080fd5b505afa15801561273d573d6000803e3d6000fd5b505050506040513d601f19601f82011682018060405250810190612761919061373c565b90506105cf565b610d2e6127ee836001600160a01b03166348e6f2966040518163ffffffff1660e01b815260040160206040518083038186803b1580156127a757600080fd5b505afa1580156127bb573d6000803e3d6000fd5b505050506040513d601f19601f820116820180604052508101906127df919061373c565b6116809063ffffffff6134eb16565b439063ffffffff611ae416565b600080612881611680846001600160a01b03166399dd8df36040518163ffffffff1660e01b815260040160206040518083038186803b15801561283d57600080fd5b505afa158015612851573d6000803e3d6000fd5b505050506040513d601f19601f82011682018060405250810190612875919061373c565b9063ffffffff6134eb16565b90506000836001600160a01b031663b69ef8a86040518163ffffffff1660e01b815260040160206040518083038186803b1580156128be57600080fd5b505afa1580156128d2573d6000803e3d6000fd5b505050506040513d601f19601f820116820180604052508101906128f6919061373c565b111580156129735750826001600160a01b031663500b245e6040518163ffffffff1660e01b815260040160206040518083038186803b15801561293857600080fd5b505afa15801561294c573d6000803e3d6000fd5b505050506040513d601f19601f82011682018060405250810190612970919061373c565b15155b156129825760009150506105cf565b826001600160a01b031663500b245e6040518163ffffffff1660e01b815260040160206040518083038186803b1580156129bb57600080fd5b505afa1580156129cf573d6000803e3d6000fd5b505050506040513d601f19601f820116820180604052508101906129f3919061373c565b158015612a7057506000836001600160a01b031663b69ef8a86040518163ffffffff1660e01b815260040160206040518083038186803b158015612a3657600080fd5b505afa158015612a4a573d6000803e3d6000fd5b505050506040513d601f19601f82011682018060405250810190612a6e919061373c565b115b15612a8d57612a85438263ffffffff611ae416565b9150506105cf565b6000836001600160a01b031663b69ef8a86040518163ffffffff1660e01b815260040160206040518083038186803b158015612ac857600080fd5b505afa158015612adc573d6000803e3d6000fd5b505050506040513d601f19601f82011682018060405250810190612b00919061373c565b118015612b7d5750826001600160a01b031663500b245e6040518163ffffffff1660e01b815260040160206040518083038186803b158015612b4157600080fd5b505afa158015612b55573d6000803e3d6000fd5b505050506040513d601f19601f82011682018060405250810190612b79919061373c565b4310155b15612bbf57612a8581846001600160a01b031663500b245e6040518163ffffffff1660e01b815260040160206040518083038186803b158015610a0e57600080fd5b6000836001600160a01b031663b69ef8a86040518163ffffffff1660e01b815260040160206040518083038186803b158015612bfa57600080fd5b505afa158015612c0e573d6000803e3d6000fd5b505050506040513d601f19601f82011682018060405250810190612c32919061373c565b118015612cae5750826001600160a01b031663500b245e6040518163ffffffff1660e01b815260040160206040518083038186803b158015612c7357600080fd5b505afa158015612c87573d6000803e3d6000fd5b505050506040513d601f19601f82011682018060405250810190612cab919061373c565b43105b15612d2457826001600160a01b031663500b245e6040518163ffffffff1660e01b815260040160206040518083038186803b158015612cec57600080fd5b505afa158015612d00573d6000803e3d6000fd5b505050506040513d601f19601f82011682018060405250810190612a85919061373c565b50919050565b81546000908210612d4d5760405162461bcd60e51b81526004016103f990613973565b826000018281548110612d5c57fe5b9060005260206000200154905092915050565b60009081526001919091016020526040902054151590565b60006001600160a01b03821663b93f9b0a6005611db8565b6000806000806000612db188876119cb565b91509150612dbd613569565b73__$44894cb0e228c8872d7664995d3f4ce933$__63d7cc2a03898b6001600160a01b031663b69ef8a86040518163ffffffff1660e01b815260040160206040518083038186803b158015612e1157600080fd5b505afa158015612e25573d6000803e3d6000fd5b505050506040513d601f19601f82011682018060405250810190612e49919061373c565b86866040518563ffffffff1660e01b8152600401612e6a9493929190614005565b60606040518083038186803b158015612e8257600080fd5b505af4158015612e96573d6000803e3d6000fd5b505050506040513d601f19601f82011682018060405250810190612eba91906136e5565b90506000612f4382602001518b6001600160a01b031663b69ef8a86040518163ffffffff1660e01b815260040160206040518083038186803b158015612eff57600080fd5b505afa158015612f13573d6000803e3d6000fd5b505050506040513d601f19601f82011682018060405250810190612f37919061373c565b9063ffffffff6134a916565b9050612f5c8260400151826134a990919063ffffffff16565b90506000612f9d828c6001600160a01b031663b69ef8a86040518163ffffffff1660e01b815260040160206040518083038186803b158015612eff57600080fd5b90506000612fbc82612f3786600001518e6134a990919063ffffffff16565b9050612ff58c84612fda87600001518a6134a990919063ffffffff16565b6020880151612ff0908a9063ffffffff6134a916565b611b09565b8a61301183610a46876000015185611ae490919063ffffffff16565b1461301857fe5b9251929b929a509850909650505050505050565b6101c554600090819073__$44894cb0e228c8872d7664995d3f4ce933$__9063ca5735689085904390613067906001600160a01b0316613525565b6101c55461307d906001600160a01b031661246a565b6040518563ffffffff1660e01b815260040161309c949392919061394d565b604080518083038186803b1580156130b357600080fd5b505af41580156130c7573d6000803e3d6000fd5b505050506040513d601f19601f820116820180604052508101906130eb9190613795565b9150915081600014801561316d5750826001600160a01b031663cc862de56040518163ffffffff1660e01b815260040160206040518083038186803b15801561313357600080fd5b505afa158015613147573d6000803e3d6000fd5b505050506040513d601f19601f8201168201806040525081019061316b919061373c565b155b15613179575050610c07565b600081846001600160a01b031663cc862de56040518163ffffffff1660e01b815260040160206040518083038186803b1580156131b557600080fd5b505afa1580156131c9573d6000803e3d6000fd5b505050506040513d601f19601f820116820180604052508101906131ed919061373c565b039050836001600160a01b0316632771eca8836040518263ffffffff1660e01b815260040161321c919061391a565b600060405180830381600087803b15801561323657600080fd5b505af115801561324a573d6000803e3d6000fd5b50506101c55461326592506001600160a01b03169050611d9e565b6001600160a01b031663338744bc85836040518363ffffffff1660e01b81526004016132929291906138a9565b600060405180830381600087803b1580156132ac57600080fd5b505af1158015610b75573d6000803e3d6000fd5b5490565b600080805b60018401548110156133925760008460010182815481106132e657fe5b9060005260206000200160009054906101000a90046001600160a01b03169050613387816001600160a01b031663a4d66daf6040518163ffffffff1660e01b815260040160206040518083038186803b15801561334257600080fd5b505afa158015613356573d6000803e3d6000fd5b505050506040513d601f19601f8201168201806040525081019061337a919061373c565b849063ffffffff611ae416565b9250506001016132c9565b5092915050565b60006133a58383612d6f565b6133db57508154600181810184556000848152602080822090930184905584548482528286019093526040902091909155610d2e565b506000610d2e565b6000818152600183016020526040812054801561349f578354600019808301919081019060009087908390811061341657fe5b906000526020600020015490508087600001848154811061343357fe5b60009182526020808320909101929092558281526001898101909252604090209084019055865487908061346357fe5b60019003818190600052602060002001600090559055866001016000878152602001908152602001600020600090556001945050505050610d2e565b6000915050610d2e565b6000610d2b83836040518060400160405280601e81526020017f536166654d6174683a207375627472616374696f6e206f766572666c6f77000081525061353d565b6000826134fa57506000610d2e565b8282028284828161350757fe5b0414610d2b5760405162461bcd60e51b81526004016103f990613cd0565b60006001600160a01b03821663fc563658600561247e565b600081848411156135615760405162461bcd60e51b81526004016103f9919061393a565b505050900390565b60405180606001604052806000815260200160008152602001600081525090565b60006020828403121561359b578081fd5b8135610d2b81614020565b6000602082840312156135b7578081fd5b8151610d2b81614020565b600080604083850312156135d4578081fd5b82356135df81614020565b915060208301356135ef81614020565b809150509250929050565b6000806040838503121561360c578182fd5b823561361781614020565b946020939093013593505050565b600080600080600060a0868803121561363c578081fd5b853561364781614020565b97602087013597506040870135966060810135965060800135945092505050565b600060208284031215613679578081fd5b81518015158114610d2b578182fd5b600060208284031215613699578081fd5b5035919050565b600080604083850312156136b2578182fd5b8235915060208301356135ef81614020565b600080604083850312156136d6578182fd5b50508035926020909101359150565b6000606082840312156136f6578081fd5b6040516060810181811067ffffffffffffffff82111715613715578283fd5b80604052508251815260208301516020820152604083015160408201528091505092915050565b60006020828403121561374d578081fd5b5051919050565b600080600060608486031215613768578283fd5b83359250602084013561377a81614020565b9150604084013561378a81614020565b809150509250925092565b600080604083850312156137a7578182fd5b505080516020909101519092909150565b60008151808452815b818110156137dd576020818501810151868301820152016137c1565b818111156137ee5782602083870101525b50601f01601f19169290920160200192915050565b6a5041555345525f524f4c4560a81b8152600b0190565b694f574e45525f524f4c4560b01b8152600a0190565b6001600160a01b0391909116815260200190565b6001600160a01b039384168152919092166020820152604081019190915260600190565b6001600160a01b03978816815295871660208701529390951660408501526060840191909152608083015260a082019290925260c081019190915260e00190565b6001600160a01b03929092168252602082015260400190565b6020808252825182820181905260009190848201906040850190845b818110156139035783516001600160a01b0316835292840192918401916001016138de565b50909695505050505050565b901515815260200190565b90815260200190565b9182526001600160a01b0316602082015260400190565b600060208252610d2b60208301846137b8565b6001600160a01b0394909416845260208401929092526040830152606082015260800190565b60208082526022908201527f456e756d657261626c655365743a20696e646578206f7574206f6620626f756e604082015261647360f01b606082015260800190565b6020808252602f908201527f416363657373436f6e74726f6c3a2073656e646572206d75737420626520616e60408201526e0818591b5a5b881d1bc819dc985b9d608a1b606082015260800190565b60208082526014908201527314185d5cd8589b194e881b9bdd081c185d5cd95960621b604082015260600190565b6020808252602d908201527f596f75206861766520696e737566666963656e742062616c616e636520666f7260408201526c081d1a1a5cc81c185e5b595b9d609a1b606082015260800190565b6020808252601b908201527f536166654d6174683a206164646974696f6e206f766572666c6f770000000000604082015260600190565b6020808252601290820152712330b4b632b2103a3790323930bbb237bbb760711b604082015260600190565b6020808252602e908201527f54686520756e6465727772697465722063616e6e6f742063726561746520746860408201526d697320637265646974206c696e6560901b606082015260800190565b60208082526030908201527f416363657373436f6e74726f6c3a2073656e646572206d75737420626520616e60408201526f2061646d696e20746f207265766f6b6560801b606082015260800190565b6020808252601e908201527f4d75737420686176652070617573657220726f6c6520746f2070617573650000604082015260600190565b60208082526010908201526f14185d5cd8589b194e881c185d5cd95960821b604082015260600190565b60208082526028908201527f416d6f756e74206973206f76657220746865207065722d7472616e73616374696040820152671bdb881b1a5b5a5d60c21b606082015260800190565b6020808252818101527f4f776e65722063616e6e6f7420626520746865207a65726f2061646472657373604082015260600190565b602080825260139082015272556e6b6e6f776e20637265646974206c696e6560681b604082015260600190565b60208082526025908201527f596f7520646f206e6f742062656c6f6e6720746f207468697320637265646974604082015264206c696e6560d81b606082015260800190565b60208082526021908201527f536166654d6174683a206d756c7469706c69636174696f6e206f766572666c6f6040820152607760f81b606082015260800190565b6020808252602e908201527f436f6e747261637420696e7374616e63652068617320616c726561647920626560408201526d195b881a5b9a5d1a585b1a5e995960921b606082015260800190565b60208082526019908201527f4661696c656420746f20636f6c6c656374207061796d656e7400000000000000604082015260600190565b6020808252603a908201527f54686973206c696d69742069732067726561746572207468616e20746865206d60408201527f617820616c6c6f776564206279207468652070726f746f636f6c000000000000606082015260800190565b6020808252601c908201527f4d7573742064726177646f776e206d6f7265207468616e207a65726f00000000604082015260600190565b602080825260409082018190527f54686520626f72726f77657220646f6573206e6f74206861766520656e6f7567908201527f6820637265646974206c696d697420666f7220746869732064726177646f776e606082015260800190565b60208082526017908201527f4d75737420706179206d6f7265207468616e207a65726f000000000000000000604082015260600190565b6020808252818101527f4d75737420686176652070617573657220726f6c6520746f20756e7061757365604082015260600190565b6020808252601f908201527f5265656e7472616e637947756172643a207265656e7472616e742063616c6c00604082015260600190565b60208082526010908201526f111c985dd91bdddb9cc81b1bd8dad95960821b604082015260600190565b6020808252602b908201527f4d75737420686176652061646d696e20726f6c6520746f20706572666f726d2060408201526a3a3434b99030b1ba34b7b760a91b606082015260800190565b6020808252602f908201527f416363657373436f6e74726f6c3a2063616e206f6e6c792072656e6f756e636560408201526e103937b632b9903337b91039b2b63360891b606082015260800190565b9283526020830191909152604082015260600190565b93845260208401929092526040830152606082015260800190565b6001600160a01b0381168114610c0757600080fdfea2646970667358221220554fcffd456833ca2f4d80b94a443eaf3fe621e7066231eba9fa7b6919ba882564736f6c63430006080033",
  "libraries": {
    "Accountant": "0xD8cb7C121de2C23206b059318C1Bc13876F0B42A"
  },
  "devdoc": {
    "author": "Goldfinch",
    "methods": {
      "assessCreditLine(address)": {
        "params": {
          "creditLineAddress": "The creditline that should be assessed."
        }
      },
      "createCreditLine(address,uint256,uint256,uint256,uint256)": {
        "params": {
          "_borrower": "The borrower for whom the CreditLine will be created",
          "_interestApr": "The interest amount, on an annualized basis (APR, so non-compounding), expressed as an integer. We assume 8 digits of precision. For example, to submit 15.34%, you would pass up 15340000, and 5.34% would be 5340000",
          "_limit": "The maximum amount a borrower can drawdown from this CreditLine",
          "_paymentPeriodInDays": "How many days in each payment period. ie. the frequency with which they need to make payments.",
          "_termInDays": "Number of days in the credit term. It is used to set the `termEndBlock` upon first drawdown. ie. The credit line should be fully paid off {_termIndays} days after the first drawdown.   * Requirements:   * - the caller must be an underwriter with enough limit (see `setUnderwriterGovernanceLimit`)"
        }
      },
      "drawdown(uint256,address,address)": {
        "params": {
          "addressToSendTo": "The address where they would like the funds sent. If the zero address is passed, it will be defaulted to the borrower's address (msg.sender). This is a convenience feature for when they would like the funds sent to an exchange or alternate wallet, different from the authentication address   * Requirements:   * - the caller must be the borrower on the creditLine",
          "amount": "The amount, in USDC atomic units, that a borrower wishes to drawdown",
          "creditLineAddress": "The creditline from which they would like to drawdown"
        }
      },
      "getBorrowerCreditLines(address)": {
        "params": {
          "borrowerAddress": "The borrower address you would like to see the credit lines of."
        }
      },
      "getRoleAdmin(bytes32)": {
        "details": "Returns the admin role that controls `role`. See {grantRole} and {revokeRole}.     * To change a role's admin, use {_setRoleAdmin}."
      },
      "getRoleMember(bytes32,uint256)": {
        "details": "Returns one of the accounts that have `role`. `index` must be a value between 0 and {getRoleMemberCount}, non-inclusive.     * Role bearers are not sorted in any particular way, and their ordering may change at any point.     * WARNING: When using {getRoleMember} and {getRoleMemberCount}, make sure you perform all queries on the same block. See the following https://forum.openzeppelin.com/t/iterating-over-elements-on-enumerableset-in-openzeppelin-contracts/2296[forum post] for more information."
      },
      "getRoleMemberCount(bytes32)": {
        "details": "Returns the number of accounts that have `role`. Can be used together with {getRoleMember} to enumerate all bearers of a role."
      },
      "getUnderwriterCreditLines(address)": {
        "params": {
          "underwriterAddress": "The underwriter address you would like to see the credit lines of."
        }
      },
      "grantRole(bytes32,address)": {
        "details": "Grants `role` to `account`.     * If `account` had not been already granted `role`, emits a {RoleGranted} event.     * Requirements:     * - the caller must have ``role``'s admin role."
      },
      "hasRole(bytes32,address)": {
        "details": "Returns `true` if `account` has been granted `role`."
      },
      "initialize(address,address)": {
        "params": {
          "_config": "The address of the GoldfinchConfig contract",
          "owner": "The address of who should have the \"OWNER_ROLE\" of this contract"
        }
      },
      "pause()": {
        "details": "Pauses all functions guarded by Pause   * See {Pausable-_pause}.   * Requirements:   * - the caller must have the PAUSER_ROLE."
      },
      "paused()": {
        "details": "Returns true if the contract is paused, and false otherwise."
      },
      "pay(address,uint256)": {
        "params": {
          "amount": "The amount, in USDC atomic units, that a borrower wishes to pay",
          "creditLineAddress": "The credit line to be paid back"
        }
      },
      "renounceRole(bytes32,address)": {
        "details": "Revokes `role` from the calling account.     * Roles are often managed via {grantRole} and {revokeRole}: this function's purpose is to provide a mechanism for accounts to lose their privileges if they are compromised (such as when a trusted device is misplaced).     * If the calling account had been granted `role`, emits a {RoleRevoked} event.     * Requirements:     * - the caller must be `account`."
      },
      "revokeRole(bytes32,address)": {
        "details": "Revokes `role` from `account`.     * If `account` had been granted `role`, emits a {RoleRevoked} event.     * Requirements:     * - the caller must have ``role``'s admin role."
      },
      "setUnderwriterGovernanceLimit(address,uint256)": {
        "params": {
          "limit": "What the new limit will be set to Requirements:   * - the caller must have the `OWNER_ROLE`.",
          "underwriterAddress": "The address of the underwriter for whom the limit shall change"
        }
      },
      "unpause()": {
        "details": "Unpauses the contract   * See {Pausable-_unpause}.   * Requirements:   * - the caller must have the Pauser role"
      }
    },
    "title": "Goldfinch's CreditDesk contract"
  },
  "userdoc": {
    "methods": {
      "assessCreditLine(address)": {
        "notice": "Assesses a particular creditLine. This will apply payments, which will update accounting and distribute gains or losses back to the pool accordingly. This function is idempotent, and anyone is allowed to call it."
      },
      "createCreditLine(address,uint256,uint256,uint256,uint256)": {
        "notice": "Allows an underwriter to create a new CreditLine for a single borrower"
      },
      "drawdown(uint256,address,address)": {
        "notice": "Allows a borrower to drawdown on their creditline. `amount` USDC is sent to the borrower, and the credit line accounting is updated."
      },
      "getBorrowerCreditLines(address)": {
        "notice": "Simple getter for the creditlines of a given borrower"
      },
      "getUnderwriterCreditLines(address)": {
        "notice": "Simple getter for the creditlines of a given underwriter"
      },
      "initialize(address,address)": {
        "notice": "Run only once, on initialization"
      },
      "pay(address,uint256)": {
        "notice": "Allows a borrower to repay their loan. Payment is *collected* immediately (by sending it to the individual CreditLine), but it is not *applied* unless it is after the nextDueBlock, or until we assess the credit line (ie. payment period end). Any amounts over the minimum payment will be applied to outstanding principal (reducing the effective interest rate). If there is still any left over, it will remain in the \"collectedPaymentBalance\" of the CreditLine, which is held distinct from the Pool amounts, and can not be withdrawn by LP's."
      },
      "setUnderwriterGovernanceLimit(address,uint256)": {
        "notice": "Sets a particular underwriter's limit of how much credit the DAO will allow them to \"create\""
      }
    },
    "notice": "Main entry point for borrowers and underwriters. Handles key logic for creating CreditLine's, borrowing money, repayment, etc."
  },
  "storageLayout": {
    "storage": [
      {
        "astId": 49,
        "contract": "contracts/protocol/CreditDesk.sol:CreditDesk",
        "label": "initialized",
        "offset": 0,
        "slot": "0",
        "type": "t_bool"
      },
      {
        "astId": 51,
        "contract": "contracts/protocol/CreditDesk.sol:CreditDesk",
        "label": "initializing",
        "offset": 1,
        "slot": "0",
        "type": "t_bool"
      },
      {
        "astId": 116,
        "contract": "contracts/protocol/CreditDesk.sol:CreditDesk",
        "label": "______gap",
        "offset": 0,
        "slot": "1",
        "type": "t_array(t_uint256)50_storage"
      },
      {
        "astId": 43,
        "contract": "contracts/protocol/CreditDesk.sol:CreditDesk",
        "label": "__gap",
        "offset": 0,
        "slot": "51",
        "type": "t_array(t_uint256)50_storage"
      },
      {
        "astId": 161,
        "contract": "contracts/protocol/CreditDesk.sol:CreditDesk",
        "label": "_roles",
        "offset": 0,
        "slot": "101",
        "type": "t_mapping(t_bytes32,t_struct(RoleData)157_storage)"
      },
      {
        "astId": 406,
        "contract": "contracts/protocol/CreditDesk.sol:CreditDesk",
        "label": "__gap",
        "offset": 0,
        "slot": "102",
        "type": "t_array(t_uint256)49_storage"
      },
      {
        "astId": 2282,
        "contract": "contracts/protocol/CreditDesk.sol:CreditDesk",
        "label": "_paused",
        "offset": 0,
        "slot": "151",
        "type": "t_bool"
      },
      {
        "astId": 2371,
        "contract": "contracts/protocol/CreditDesk.sol:CreditDesk",
        "label": "__gap",
        "offset": 0,
        "slot": "152",
        "type": "t_array(t_uint256)49_storage"
      },
      {
        "astId": 2380,
        "contract": "contracts/protocol/CreditDesk.sol:CreditDesk",
        "label": "_notEntered",
        "offset": 0,
        "slot": "201",
        "type": "t_bool"
      },
      {
        "astId": 2421,
        "contract": "contracts/protocol/CreditDesk.sol:CreditDesk",
        "label": "__gap",
        "offset": 0,
        "slot": "202",
        "type": "t_array(t_uint256)49_storage"
      },
      {
        "astId": 4504,
        "contract": "contracts/protocol/CreditDesk.sol:CreditDesk",
        "label": "__gap1",
        "offset": 0,
        "slot": "251",
        "type": "t_array(t_uint256)50_storage"
      },
      {
        "astId": 4508,
        "contract": "contracts/protocol/CreditDesk.sol:CreditDesk",
        "label": "__gap2",
        "offset": 0,
        "slot": "301",
        "type": "t_array(t_uint256)50_storage"
      },
      {
        "astId": 4512,
        "contract": "contracts/protocol/CreditDesk.sol:CreditDesk",
        "label": "__gap3",
        "offset": 0,
        "slot": "351",
        "type": "t_array(t_uint256)50_storage"
      },
      {
        "astId": 4516,
        "contract": "contracts/protocol/CreditDesk.sol:CreditDesk",
        "label": "__gap4",
        "offset": 0,
        "slot": "401",
        "type": "t_array(t_uint256)50_storage"
      },
      {
        "astId": 3932,
        "contract": "contracts/protocol/CreditDesk.sol:CreditDesk",
        "label": "totalWritedowns",
        "offset": 0,
        "slot": "451",
        "type": "t_uint256"
      },
      {
        "astId": 3934,
        "contract": "contracts/protocol/CreditDesk.sol:CreditDesk",
        "label": "totalLoansOutstanding",
        "offset": 0,
        "slot": "452",
        "type": "t_uint256"
      },
      {
        "astId": 5015,
        "contract": "contracts/protocol/CreditDesk.sol:CreditDesk",
        "label": "config",
        "offset": 0,
        "slot": "453",
        "type": "t_contract(GoldfinchConfig)7282"
      },
      {
        "astId": 5072,
        "contract": "contracts/protocol/CreditDesk.sol:CreditDesk",
        "label": "underwriters",
        "offset": 0,
        "slot": "454",
        "type": "t_mapping(t_address,t_struct(Underwriter)5024_storage)"
      },
      {
        "astId": 5076,
        "contract": "contracts/protocol/CreditDesk.sol:CreditDesk",
        "label": "borrowers",
        "offset": 0,
        "slot": "455",
        "type": "t_mapping(t_address,t_struct(Borrower)5028_storage)"
      },
      {
        "astId": 5080,
        "contract": "contracts/protocol/CreditDesk.sol:CreditDesk",
        "label": "creditLines",
        "offset": 0,
        "slot": "456",
        "type": "t_mapping(t_address,t_address)"
      }
    ],
    "types": {
      "t_address": {
        "encoding": "inplace",
        "label": "address",
        "numberOfBytes": "20"
      },
      "t_array(t_address)dyn_storage": {
        "base": "t_address",
        "encoding": "dynamic_array",
        "label": "address[]",
        "numberOfBytes": "32"
      },
      "t_array(t_bytes32)dyn_storage": {
        "base": "t_bytes32",
        "encoding": "dynamic_array",
        "label": "bytes32[]",
        "numberOfBytes": "32"
      },
      "t_array(t_uint256)49_storage": {
        "base": "t_uint256",
        "encoding": "inplace",
        "label": "uint256[49]",
        "numberOfBytes": "1568"
      },
      "t_array(t_uint256)50_storage": {
        "base": "t_uint256",
        "encoding": "inplace",
        "label": "uint256[50]",
        "numberOfBytes": "1600"
      },
      "t_bool": {
        "encoding": "inplace",
        "label": "bool",
        "numberOfBytes": "1"
      },
      "t_bytes32": {
        "encoding": "inplace",
        "label": "bytes32",
        "numberOfBytes": "32"
      },
      "t_contract(GoldfinchConfig)7282": {
        "encoding": "inplace",
        "label": "contract GoldfinchConfig",
        "numberOfBytes": "20"
      },
      "t_mapping(t_address,t_address)": {
        "encoding": "mapping",
        "key": "t_address",
        "label": "mapping(address => address)",
        "numberOfBytes": "32",
        "value": "t_address"
      },
      "t_mapping(t_address,t_struct(Borrower)5028_storage)": {
        "encoding": "mapping",
        "key": "t_address",
        "label": "mapping(address => struct CreditDesk.Borrower)",
        "numberOfBytes": "32",
        "value": "t_struct(Borrower)5028_storage"
      },
      "t_mapping(t_address,t_struct(Underwriter)5024_storage)": {
        "encoding": "mapping",
        "key": "t_address",
        "label": "mapping(address => struct CreditDesk.Underwriter)",
        "numberOfBytes": "32",
        "value": "t_struct(Underwriter)5024_storage"
      },
      "t_mapping(t_bytes32,t_struct(RoleData)157_storage)": {
        "encoding": "mapping",
        "key": "t_bytes32",
        "label": "mapping(bytes32 => struct AccessControlUpgradeSafe.RoleData)",
        "numberOfBytes": "32",
        "value": "t_struct(RoleData)157_storage"
      },
      "t_mapping(t_bytes32,t_uint256)": {
        "encoding": "mapping",
        "key": "t_bytes32",
        "label": "mapping(bytes32 => uint256)",
        "numberOfBytes": "32",
        "value": "t_uint256"
      },
      "t_struct(AddressSet)2057_storage": {
        "encoding": "inplace",
        "label": "struct EnumerableSet.AddressSet",
        "members": [
          {
            "astId": 2056,
            "contract": "contracts/protocol/CreditDesk.sol:CreditDesk",
            "label": "_inner",
            "offset": 0,
            "slot": "0",
            "type": "t_struct(Set)1877_storage"
          }
        ],
        "numberOfBytes": "64"
      },
      "t_struct(Borrower)5028_storage": {
        "encoding": "inplace",
        "label": "struct CreditDesk.Borrower",
        "members": [
          {
            "astId": 5027,
            "contract": "contracts/protocol/CreditDesk.sol:CreditDesk",
            "label": "creditLines",
            "offset": 0,
            "slot": "0",
            "type": "t_array(t_address)dyn_storage"
          }
        ],
        "numberOfBytes": "32"
      },
      "t_struct(RoleData)157_storage": {
        "encoding": "inplace",
        "label": "struct AccessControlUpgradeSafe.RoleData",
        "members": [
          {
            "astId": 154,
            "contract": "contracts/protocol/CreditDesk.sol:CreditDesk",
            "label": "members",
            "offset": 0,
            "slot": "0",
            "type": "t_struct(AddressSet)2057_storage"
          },
          {
            "astId": 156,
            "contract": "contracts/protocol/CreditDesk.sol:CreditDesk",
            "label": "adminRole",
            "offset": 0,
            "slot": "2",
            "type": "t_bytes32"
          }
        ],
        "numberOfBytes": "96"
      },
      "t_struct(Set)1877_storage": {
        "encoding": "inplace",
        "label": "struct EnumerableSet.Set",
        "members": [
          {
            "astId": 1872,
            "contract": "contracts/protocol/CreditDesk.sol:CreditDesk",
            "label": "_values",
            "offset": 0,
            "slot": "0",
            "type": "t_array(t_bytes32)dyn_storage"
          },
          {
            "astId": 1876,
            "contract": "contracts/protocol/CreditDesk.sol:CreditDesk",
            "label": "_indexes",
            "offset": 0,
            "slot": "1",
            "type": "t_mapping(t_bytes32,t_uint256)"
          }
        ],
        "numberOfBytes": "64"
      },
      "t_struct(Underwriter)5024_storage": {
        "encoding": "inplace",
        "label": "struct CreditDesk.Underwriter",
        "members": [
          {
            "astId": 5020,
            "contract": "contracts/protocol/CreditDesk.sol:CreditDesk",
            "label": "governanceLimit",
            "offset": 0,
            "slot": "0",
            "type": "t_uint256"
          },
          {
            "astId": 5023,
            "contract": "contracts/protocol/CreditDesk.sol:CreditDesk",
            "label": "creditLines",
            "offset": 0,
            "slot": "1",
            "type": "t_array(t_address)dyn_storage"
          }
        ],
        "numberOfBytes": "64"
      },
      "t_uint256": {
        "encoding": "inplace",
        "label": "uint256",
        "numberOfBytes": "32"
      }
    }
  },
  "gasEstimates": {
    "creation": {
      "codeDepositCost": "3298200",
      "executionCost": "3667",
      "totalCost": "3301867"
    },
    "external": {
      "BLOCKS_PER_DAY()": "273",
      "DEFAULT_ADMIN_ROLE()": "273",
      "OWNER_ROLE()": "447",
      "PAUSER_ROLE()": "380",
      "__BaseUpgradeablePausable__init(address)": "infinite",
      "__PauserPausable__init()": "infinite",
      "assessCreditLine(address)": "infinite",
      "config()": "1137",
      "createCreditLine(address,uint256,uint256,uint256,uint256)": "infinite",
      "drawdown(uint256,address,address)": "infinite",
      "getBorrowerCreditLines(address)": "infinite",
      "getRoleAdmin(bytes32)": "1274",
      "getRoleMember(bytes32,uint256)": "infinite",
      "getRoleMemberCount(bytes32)": "infinite",
      "getUnderwriterCreditLines(address)": "infinite",
      "grantRole(bytes32,address)": "infinite",
      "hasRole(bytes32,address)": "infinite",
      "initialize(address,address)": "infinite",
      "isAdmin()": "infinite",
      "pause()": "infinite",
      "paused()": "1130",
      "pay(address,uint256)": "infinite",
      "renounceRole(bytes32,address)": "infinite",
      "revokeRole(bytes32,address)": "infinite",
      "setUnderwriterGovernanceLimit(address,uint256)": "infinite",
      "totalLoansOutstanding()": "1116",
      "totalWritedowns()": "1095",
      "underwriters(address)": "1339",
      "unpause()": "infinite"
    },
    "internal": {
      "addCLToTotalLoansOutstanding(contract CreditLine)": "infinite",
      "applyPayment(contract CreditLine,uint256,uint256)": "infinite",
      "calculateNewTermEndBlock(contract CreditLine)": "infinite",
      "calculateNextDueBlock(contract CreditLine)": "infinite",
      "collectPayment(contract CreditLine,uint256)": "infinite",
      "getCreditCurrentlyExtended(struct CreditDesk.Underwriter storage pointer)": "infinite",
      "getCreditLineFactory()": "infinite",
      "getInterestAndPrincipalOwedAsOf(contract CreditLine,uint256)": "infinite",
      "handlePayment(contract CreditLine,uint256,uint256)": "infinite",
      "isLate(contract CreditLine)": "infinite",
      "subtractClFromTotalLoansOutstanding(contract CreditLine)": "infinite",
      "underwriterCanCreateThisCreditLine(uint256,struct CreditDesk.Underwriter storage pointer)": "infinite",
      "updateCreditLineAccounting(contract CreditLine,uint256,uint256,uint256)": "infinite",
      "updateWritedownAmounts(contract CreditLine)": "infinite",
      "withinCreditLimit(uint256,contract CreditLine)": "infinite",
      "withinMaxUnderwriterLimit(uint256)": "infinite",
      "withinTransactionLimit(uint256)": "infinite"
    }
  }
}