{
  "address": "0x46655D7afF0955648ffaBfCD92C8FB03973957E8",
  "abi": [
    {
      "anonymous": false,
      "inputs": [
        {
          "indexed": true,
          "internalType": "address",
          "name": "borrower",
          "type": "address"
        },
        {
          "indexed": true,
          "internalType": "address",
          "name": "owner",
          "type": "address"
        }
      ],
      "name": "BorrowerCreated",
      "type": "event"
    },
    {
      "anonymous": false,
      "inputs": [
        {
          "indexed": false,
          "internalType": "address",
          "name": "account",
          "type": "address"
        }
      ],
      "name": "Paused",
      "type": "event"
    },
    {
      "anonymous": false,
      "inputs": [
        {
          "indexed": true,
          "internalType": "bytes32",
          "name": "role",
          "type": "bytes32"
        },
        {
          "indexed": true,
          "internalType": "address",
          "name": "account",
          "type": "address"
        },
        {
          "indexed": true,
          "internalType": "address",
          "name": "sender",
          "type": "address"
        }
      ],
      "name": "RoleGranted",
      "type": "event"
    },
    {
      "anonymous": false,
      "inputs": [
        {
          "indexed": true,
          "internalType": "bytes32",
          "name": "role",
          "type": "bytes32"
        },
        {
          "indexed": true,
          "internalType": "address",
          "name": "account",
          "type": "address"
        },
        {
          "indexed": true,
          "internalType": "address",
          "name": "sender",
          "type": "address"
        }
      ],
      "name": "RoleRevoked",
      "type": "event"
    },
    {
      "anonymous": false,
      "inputs": [
        {
          "indexed": false,
          "internalType": "address",
          "name": "account",
          "type": "address"
        }
      ],
      "name": "Unpaused",
      "type": "event"
    },
    {
      "inputs": [],
      "name": "DEFAULT_ADMIN_ROLE",
      "outputs": [
        {
          "internalType": "bytes32",
          "name": "",
          "type": "bytes32"
        }
      ],
      "stateMutability": "view",
      "type": "function"
    },
    {
      "inputs": [],
      "name": "OWNER_ROLE",
      "outputs": [
        {
          "internalType": "bytes32",
          "name": "",
          "type": "bytes32"
        }
      ],
      "stateMutability": "view",
      "type": "function"
    },
    {
      "inputs": [],
      "name": "PAUSER_ROLE",
      "outputs": [
        {
          "internalType": "bytes32",
          "name": "",
          "type": "bytes32"
        }
      ],
      "stateMutability": "view",
      "type": "function"
    },
    {
      "inputs": [
        {
          "internalType": "address",
          "name": "owner",
          "type": "address"
        }
      ],
      "name": "__BaseUpgradeablePausable__init",
      "outputs": [],
      "stateMutability": "nonpayable",
      "type": "function"
    },
    {
      "inputs": [],
      "name": "__PauserPausable__init",
      "outputs": [],
      "stateMutability": "nonpayable",
      "type": "function"
    },
    {
      "inputs": [],
      "name": "config",
      "outputs": [
        {
          "internalType": "contract GoldfinchConfig",
          "name": "",
          "type": "address"
        }
      ],
      "stateMutability": "view",
      "type": "function"
    },
    {
      "inputs": [
        {
          "internalType": "address",
          "name": "owner",
          "type": "address"
        }
      ],
      "name": "createBorrower",
      "outputs": [
        {
          "internalType": "address",
          "name": "",
          "type": "address"
        }
      ],
      "stateMutability": "nonpayable",
      "type": "function"
    },
    {
      "inputs": [],
      "name": "createCreditLine",
      "outputs": [
        {
          "internalType": "address",
          "name": "",
          "type": "address"
        }
      ],
      "stateMutability": "nonpayable",
      "type": "function"
    },
    {
      "inputs": [
        {
          "internalType": "bytes32",
          "name": "role",
          "type": "bytes32"
        }
      ],
      "name": "getRoleAdmin",
      "outputs": [
        {
          "internalType": "bytes32",
          "name": "",
          "type": "bytes32"
        }
      ],
      "stateMutability": "view",
      "type": "function"
    },
    {
      "inputs": [
        {
          "internalType": "bytes32",
          "name": "role",
          "type": "bytes32"
        },
        {
          "internalType": "uint256",
          "name": "index",
          "type": "uint256"
        }
      ],
      "name": "getRoleMember",
      "outputs": [
        {
          "internalType": "address",
          "name": "",
          "type": "address"
        }
      ],
      "stateMutability": "view",
      "type": "function"
    },
    {
      "inputs": [
        {
          "internalType": "bytes32",
          "name": "role",
          "type": "bytes32"
        }
      ],
      "name": "getRoleMemberCount",
      "outputs": [
        {
          "internalType": "uint256",
          "name": "",
          "type": "uint256"
        }
      ],
      "stateMutability": "view",
      "type": "function"
    },
    {
      "inputs": [
        {
          "internalType": "bytes32",
          "name": "role",
          "type": "bytes32"
        },
        {
          "internalType": "address",
          "name": "account",
          "type": "address"
        }
      ],
      "name": "grantRole",
      "outputs": [],
      "stateMutability": "nonpayable",
      "type": "function"
    },
    {
      "inputs": [
        {
          "internalType": "bytes32",
          "name": "role",
          "type": "bytes32"
        },
        {
          "internalType": "address",
          "name": "account",
          "type": "address"
        }
      ],
      "name": "hasRole",
      "outputs": [
        {
          "internalType": "bool",
          "name": "",
          "type": "bool"
        }
      ],
      "stateMutability": "view",
      "type": "function"
    },
    {
      "inputs": [
        {
          "internalType": "address",
          "name": "owner",
          "type": "address"
        },
        {
          "internalType": "contract GoldfinchConfig",
          "name": "_config",
          "type": "address"
        }
      ],
      "name": "initialize",
      "outputs": [],
      "stateMutability": "nonpayable",
      "type": "function"
    },
    {
      "inputs": [],
      "name": "isAdmin",
      "outputs": [
        {
          "internalType": "bool",
          "name": "",
          "type": "bool"
        }
      ],
      "stateMutability": "view",
      "type": "function"
    },
    {
      "inputs": [],
      "name": "pause",
      "outputs": [],
      "stateMutability": "nonpayable",
      "type": "function"
    },
    {
      "inputs": [],
      "name": "paused",
      "outputs": [
        {
          "internalType": "bool",
          "name": "",
          "type": "bool"
        }
      ],
      "stateMutability": "view",
      "type": "function"
    },
    {
      "inputs": [
        {
          "internalType": "bytes32",
          "name": "role",
          "type": "bytes32"
        },
        {
          "internalType": "address",
          "name": "account",
          "type": "address"
        }
      ],
      "name": "renounceRole",
      "outputs": [],
      "stateMutability": "nonpayable",
      "type": "function"
    },
    {
      "inputs": [
        {
          "internalType": "bytes32",
          "name": "role",
          "type": "bytes32"
        },
        {
          "internalType": "address",
          "name": "account",
          "type": "address"
        }
      ],
      "name": "revokeRole",
      "outputs": [],
      "stateMutability": "nonpayable",
      "type": "function"
    },
    {
      "inputs": [],
      "name": "unpause",
      "outputs": [],
      "stateMutability": "nonpayable",
      "type": "function"
    }
  ],
  "transactionHash": "0xbbeeb56af447354f4a11420330db09a39dcaadc0b60e39a978f422f07282eb87",
  "args": [],
  "solcInputHash": "22a5afb6e5d500c7aaa1643d94cdf023",
  "bytecode": "0x608060405234801561001057600080fd5b50614fa9806100206000396000f3fe608060405234801561001057600080fd5b506004361061012c5760003560e01c80638456cb59116100ad578063b6db75a011610071578063b6db75a0146102eb578063ca15c873146102f3578063d547741f14610310578063e58378bb1461033c578063e63ab1e9146103445761012c565b80638456cb59146102665780638a0a61d81461026e5780639010d07c1461029457806391d14854146102b7578063a217fddf146102e35761012c565b80633f4ba83a116100f45780633f4ba83a14610204578063485cc9551461020c578063526d81f61461023a5780635c975abb1461024257806379502c551461025e5761012c565b806301b2155114610131578063097616a314610155578063248a9ca31461017d5780632f2ff15d146101ac57806336568abe146101d8575b600080fd5b61013961034c565b604080516001600160a01b039092168252519081900360200190f35b61017b6004803603602081101561016b57600080fd5b50356001600160a01b031661037e565b005b61019a6004803603602081101561019357600080fd5b5035610502565b60408051918252519081900360200190f35b61017b600480360360408110156101c257600080fd5b50803590602001356001600160a01b0316610517565b61017b600480360360408110156101ee57600080fd5b50803590602001356001600160a01b031661057f565b61017b6105e0565b61017b6004803603604081101561022257600080fd5b506001600160a01b038135811691602001351661063f565b61017b610708565b61024a6107b2565b604080519115158252519081900360200190f35b6101396107bb565b61017b6107cb565b6101396004803603602081101561028457600080fd5b50356001600160a01b0316610828565b610139600480360360408110156102aa57600080fd5b5080359060200135610904565b61024a600480360360408110156102cd57600080fd5b50803590602001356001600160a01b0316610925565b61019a61093d565b61024a610942565b61019a6004803603602081101561030957600080fd5b5035610963565b61017b6004803603604081101561032657600080fd5b50803590602001356001600160a01b031661097a565b61019a6109d3565b61019a6109e5565b60008060405161035b90610fe6565b604051809103906000f080158015610377573d6000803e3d6000fd5b5091505090565b600054610100900460ff168061039757506103976109f7565b806103a5575060005460ff16155b6103e05760405162461bcd60e51b815260040180806020018281038252602e815260200180614f17602e913960400191505060405180910390fd5b600054610100900460ff1615801561040b576000805460ff1961ff0019909116610100171660011790555b6001600160a01b038216610466576040805162461bcd60e51b815260206004820181905260248201527f4f776e65722063616e6e6f7420626520746865207a65726f2061646472657373604482015290519081900360640190fd5b61046e6109fd565b610476610a9d565b61047e610b48565b610496600080516020614ea783398151915283610575565b6104ae600080516020614ef783398151915283610575565b6104d4600080516020614ef7833981519152600080516020614ea7833981519152610bf6565b6104ec600080516020614ea783398151915280610bf6565b80156104fe576000805461ff00191690555b5050565b60009081526065602052604090206002015490565b60008281526065602052604090206002015461053a90610535610c0b565b610925565b6105755760405162461bcd60e51b815260040180806020018281038252602f815260200180614e4c602f913960400191505060405180910390fd5b6104fe8282610c0f565b610587610c0b565b6001600160a01b0316816001600160a01b0316146105d65760405162461bcd60e51b815260040180806020018281038252602f815260200180614f45602f913960400191505060405180910390fd5b6104fe8282610c78565b6105fa600080516020614ef7833981519152610535610c0b565b6106355760405162461bcd60e51b815260040180806020018281038252602c815260200180614e7b602c913960400191505060405180910390fd5b61063d610ce1565b565b600054610100900460ff168061065857506106586109f7565b80610666575060005460ff16155b6106a15760405162461bcd60e51b815260040180806020018281038252602e815260200180614f17602e913960400191505060405180910390fd5b600054610100900460ff161580156106cc576000805460ff1961ff0019909116610100171660011790555b6106d58361037e565b6101c380546001600160a01b0319166001600160a01b0384161790558015610703576000805461ff00191690555b505050565b600054610100900460ff168061072157506107216109f7565b8061072f575060005460ff16155b61076a5760405162461bcd60e51b815260040180806020018281038252602e815260200180614f17602e913960400191505060405180910390fd5b600054610100900460ff16158015610795576000805460ff1961ff0019909116610100171660011790555b61079d610a9d565b80156107af576000805461ff00191690555b50565b60975460ff1690565b6101c3546001600160a01b031681565b6107e5600080516020614ef7833981519152610535610c0b565b6108205760405162461bcd60e51b815260040180806020018281038252602c815260200180614e7b602c913960400191505060405180910390fd5b61063d610d7f565b60008060405161083790610ff3565b604051809103906000f080158015610853573d6000803e3d6000fd5b506101c3546040805163485cc95560e01b81526001600160a01b038781166004830152928316602482015290519293509083169163485cc9559160448082019260009290919082900301818387803b1580156108ae57600080fd5b505af11580156108c2573d6000803e3d6000fd5b50506040516001600160a01b038087169350841691507f884b374b5b12a7314728c27eb7563a516e71377a34acbff07a9a9d751d32b4e990600090a392915050565b600082815260656020526040812061091c9083610e00565b90505b92915050565b600082815260656020526040812061091c9083610e0c565b600081565b600061095e600080516020614ea7833981519152610535610c0b565b905090565b600081815260656020526040812061091f90610e21565b60008281526065602052604090206002015461099890610535610c0b565b6105d65760405162461bcd60e51b8152600401808060200182810382526030815260200180614ec76030913960400191505060405180910390fd5b600080516020614ea783398151915281565b600080516020614ef783398151915281565b303b1590565b600054610100900460ff1680610a165750610a166109f7565b80610a24575060005460ff16155b610a5f5760405162461bcd60e51b815260040180806020018281038252602e815260200180614f17602e913960400191505060405180910390fd5b600054610100900460ff1615801561079d576000805460ff1961ff00199091166101001716600117905580156107af576000805461ff001916905550565b600054610100900460ff1680610ab65750610ab66109f7565b80610ac4575060005460ff16155b610aff5760405162461bcd60e51b815260040180806020018281038252602e815260200180614f17602e913960400191505060405180910390fd5b600054610100900460ff16158015610b2a576000805460ff1961ff0019909116610100171660011790555b6097805460ff1916905580156107af576000805461ff001916905550565b600054610100900460ff1680610b615750610b616109f7565b80610b6f575060005460ff16155b610baa5760405162461bcd60e51b815260040180806020018281038252602e815260200180614f17602e913960400191505060405180910390fd5b600054610100900460ff16158015610bd5576000805460ff1961ff0019909116610100171660011790555b60c9805460ff1916600117905580156107af576000805461ff001916905550565b60009182526065602052604090912060020155565b3390565b6000828152606560205260409020610c279082610e2c565b156104fe57610c34610c0b565b6001600160a01b0316816001600160a01b0316837f2f8788117e7eff1d82e926ec794901d17c78024a50270940304540a733656f0d60405160405180910390a45050565b6000828152606560205260409020610c909082610e41565b156104fe57610c9d610c0b565b6001600160a01b0316816001600160a01b0316837ff6391f5c32d9c69d2a47ea670b442974b53935d1edc7fd64eb21e047a839171b60405160405180910390a45050565b60975460ff16610d2f576040805162461bcd60e51b815260206004820152601460248201527314185d5cd8589b194e881b9bdd081c185d5cd95960621b604482015290519081900360640190fd5b6097805460ff191690557f5db9ee0a495bf2e6ff9c91a7834c1ba4fdd244a5e8aa4e537bd38aeae4b073aa610d62610c0b565b604080516001600160a01b039092168252519081900360200190a1565b60975460ff1615610dca576040805162461bcd60e51b815260206004820152601060248201526f14185d5cd8589b194e881c185d5cd95960821b604482015290519081900360640190fd5b6097805460ff191660011790557f62e78cea01bee320cd4e420270b5ea74000d11b0c9f74754ebdbfc544b05a258610d62610c0b565b600061091c8383610e56565b600061091c836001600160a01b038416610eba565b600061091f82610ed2565b600061091c836001600160a01b038416610ed6565b600061091c836001600160a01b038416610f20565b81546000908210610e985760405162461bcd60e51b8152600401808060200182810382526022815260200180614e2a6022913960400191505060405180910390fd5b826000018281548110610ea757fe5b9060005260206000200154905092915050565b60009081526001919091016020526040902054151590565b5490565b6000610ee28383610eba565b610f185750815460018181018455600084815260208082209093018490558454848252828601909352604090209190915561091f565b50600061091f565b60008181526001830160205260408120548015610fdc5783546000198083019190810190600090879083908110610f5357fe5b9060005260206000200154905080876000018481548110610f7057fe5b600091825260208083209091019290925582815260018981019092526040902090840190558654879080610fa057fe5b6001900381819060005260206000200160009055905586600101600087815260200190815260200160002060009055600194505050505061091f565b600091505061091f565b6118688061100183390190565b6125c1806128698339019056fe608060405234801561001057600080fd5b50611848806100206000396000f3fe608060405234801561001057600080fd5b50600436106102695760003560e01c80639010d07c11610151578063ca15c873116100c3578063e58378bb11610087578063e58378bb1461048e578063e63ab1e914610496578063f00db2601461049e578063f0b25bde146104a6578063fb1669ca146104ae578063fb9eb990146104c157610269565b8063ca15c8731461043a578063cc862de51461044d578063cf1787e614610455578063d547741f14610468578063df8fa4301461047b57610269565b8063a4d66daf11610115578063a4d66daf146103ff578063b396999214610407578063b3b8a9c71461040f578063b69ef8a814610422578063b6db75a01461042a578063bfe976a91461043257610269565b80639010d07c146103b657806391d14854146103c957806396c8df37146103dc57806399dd8df3146103ef578063a217fddf146103f757610269565b80633f4ba83a116101ea578063526d81f6116101ae578063526d81f61461035657806352ee365e1461035e5780635c975abb146103715780637957dda3146103865780637df1f1b9146103995780638456cb59146103ae57610269565b80633f4ba83a14610323578063408862d91461032b57806348e6f29614610333578063500b245e1461033b57806351bc49531461034357610269565b80632771eca8116102315780632771eca8146102c457806327ea6f2b146102d75780632f2ff15d146102ea5780633059b7c6146102fd57806336568abe1461031057610269565b8063097616a31461026e5780631790ebd51461028357806319350114146102a157806321856b36146102a9578063248a9ca3146102b1575b600080fd5b61028161027c3660046112fb565b6104d4565b005b61028b61060d565b6040516102989190611470565b60405180910390f35b61028b610614565b61028b61061b565b61028b6102bf3660046113d0565b610622565b6102816102d23660046113d0565b610637565b6102816102e53660046113d0565b610661565b6102816102f83660046113e8565b6106b1565b61028161030b3660046112fb565b6106f5565b61028161031e3660046113e8565b6108c5565b610281610907565b61028b610947565b61028b61094e565b61028b610955565b6102816103513660046113d0565b61095c565b610281610986565b61028161036c3660046113d0565b610a11565b610379610a3b565b6040516102989190611465565b61028b6103943660046113d0565b610a44565b6103a1610a74565b6040516102989190611438565b610281610a84565b6103a16103c4366004611417565b610ac2565b6103796103d73660046113e8565b610ae3565b6102816103ea3660046113d0565b610afb565b61028b610b25565b61028b610b2c565b61028b610b31565b61028b610b38565b61028161041d3660046113d0565b610b3f565b61028b610b69565b610379610b70565b61028b610b91565b61028b6104483660046113d0565b610b98565b61028b610baf565b6102816104633660046113d0565b610bb6565b6102816104763660046113e8565b610be0565b61028161048936600461133a565b610c1a565b61028b610d53565b61028b610d65565b6103a1610d77565b61028b610d87565b6102816104bc3660046113d0565b610d8e565b6102816104cf3660046113d0565b610db8565b600054610100900460ff16806104ed57506104ed610de2565b806104fb575060005460ff16155b6105205760405162461bcd60e51b815260040161051790611663565b60405180910390fd5b600054610100900460ff1615801561054b576000805460ff1961ff0019909116610100171660011790555b6001600160a01b0382166105715760405162461bcd60e51b81526004016105179061162e565b610579610de8565b610581610e69565b610589610ef5565b6105a16000805160206117d3833981519152836106eb565b6105b96000805160206117f3833981519152836106eb565b6105df6000805160206117f38339815191526000805160206117d3833981519152610f84565b6105f76000805160206117d383398151915280610f84565b8015610609576000805461ff00191690555b5050565b6101cd5481565b6101cc5481565b6101cb5481565b60009081526065602052604090206002015490565b61063f610b70565b61065b5760405162461bcd60e51b815260040161051790611723565b6101d055565b610669610b70565b8061068f57506101c4546001600160a01b0316610684610f99565b6001600160a01b0316145b6106ab5760405162461bcd60e51b8152600401610517906116b1565b6101c555565b6000828152606560205260409020600201546106cf906103d7610f99565b6106eb5760405162461bcd60e51b8152600401610517906114bb565b6106098282610f9d565b6106fd610b70565b6107195760405162461bcd60e51b815260040161051790611723565b8060006001600160a01b03821663b93f9b0a826040518263ffffffff1660e01b81526004016107489190611470565b60206040518083038186803b15801561076057600080fd5b505afa158015610774573d6000803e3d6000fd5b505050506040513d601f19601f82011682018060405250810190610798919061131e565b905060006001600160a01b03831663b93f9b0a60056040518263ffffffff1660e01b81526004016107c99190611470565b60206040518083038186803b1580156107e157600080fd5b505afa1580156107f5573d6000803e3d6000fd5b505050506040513d601f19601f82011682018060405250810190610819919061131e565b90506000816001600160a01b031663095ea7b3846000196040518363ffffffff1660e01b815260040161084d92919061144c565b602060405180830381600087803b15801561086757600080fd5b505af115801561087b573d6000803e3d6000fd5b505050506040513d601f19601f8201168201806040525081019061089f91906113b0565b9050806108be5760405162461bcd60e51b815260040161051790611538565b5050505050565b6108cd610f99565b6001600160a01b0316816001600160a01b0316146108fd5760405162461bcd60e51b81526004016105179061176e565b6106098282611006565b6109216000805160206117f38339815191526103d7610f99565b61093d5760405162461bcd60e51b815260040161051790611568565b61094561106f565b565b6101cf5481565b6101c85481565b6101ce5481565b610964610b70565b6109805760405162461bcd60e51b815260040161051790611723565b6101d155565b600054610100900460ff168061099f575061099f610de2565b806109ad575060005460ff16155b6109c95760405162461bcd60e51b815260040161051790611663565b600054610100900460ff161580156109f4576000805460ff1961ff0019909116610100171660011790555b6109fc610e69565b8015610a0e576000805461ff00191690555b50565b610a19610b70565b610a355760405162461bcd60e51b815260040161051790611723565b6101cf55565b60975460ff1690565b6000610a4e610b70565b610a6a5760405162461bcd60e51b815260040161051790611723565b506101ce81905590565b6101c3546001600160a01b031681565b610a9e6000805160206117f38339815191526103d7610f99565b610aba5760405162461bcd60e51b815260040161051790611568565b6109456110db565b6000828152606560205260408120610ada9083611134565b90505b92915050565b6000828152606560205260408120610ada9083611140565b610b03610b70565b610b1f5760405162461bcd60e51b815260040161051790611723565b6101cb55565b6101c75481565b600081565b6101c55481565b6101c65481565b610b47610b70565b610b635760405162461bcd60e51b815260040161051790611723565b6101cc55565b6101ca5481565b6000610b8c6000805160206117d38339815191526103d7610f99565b905090565b6101d15481565b6000818152606560205260408120610add90611155565b6101d05481565b610bbe610b70565b610bda5760405162461bcd60e51b815260040161051790611723565b6101c955565b600082815260656020526040902060020154610bfe906103d7610f99565b6108fd5760405162461bcd60e51b8152600401610517906115b4565b600054610100900460ff1680610c335750610c33610de2565b80610c41575060005460ff16155b610c5d5760405162461bcd60e51b815260040161051790611663565b600054610100900460ff16158015610c88576000805460ff1961ff0019909116610100171660011790555b6001600160a01b03891615801590610ca857506001600160a01b03881615155b8015610cbc57506001600160a01b03871615155b610cd85760405162461bcd60e51b8152600401610517906116f3565b610ce1896104d4565b6101c380546001600160a01b03808b166001600160a01b0319928316179092556101c48054928a16929091169190911790556101c58690556101c68590556101c78490556101c88390556101c9829055436101cf558015610d48576000805461ff00191690555b505050505050505050565b6000805160206117d383398151915281565b6000805160206117f383398151915281565b6101c4546001600160a01b031681565b6101c95481565b610d96610b70565b610db25760405162461bcd60e51b815260040161051790611723565b6101ca55565b610dc0610b70565b610ddc5760405162461bcd60e51b815260040161051790611723565b6101cd55565b303b1590565b600054610100900460ff1680610e015750610e01610de2565b80610e0f575060005460ff16155b610e2b5760405162461bcd60e51b815260040161051790611663565b600054610100900460ff161580156109fc576000805460ff1961ff0019909116610100171660011790558015610a0e576000805461ff001916905550565b600054610100900460ff1680610e825750610e82610de2565b80610e90575060005460ff16155b610eac5760405162461bcd60e51b815260040161051790611663565b600054610100900460ff16158015610ed7576000805460ff1961ff0019909116610100171660011790555b6097805460ff191690558015610a0e576000805461ff001916905550565b600054610100900460ff1680610f0e5750610f0e610de2565b80610f1c575060005460ff16155b610f385760405162461bcd60e51b815260040161051790611663565b600054610100900460ff16158015610f63576000805460ff1961ff0019909116610100171660011790555b60c9805460ff191660011790558015610a0e576000805461ff001916905550565b60009182526065602052604090912060020155565b3390565b6000828152606560205260409020610fb59082611160565b1561060957610fc2610f99565b6001600160a01b0316816001600160a01b0316837f2f8788117e7eff1d82e926ec794901d17c78024a50270940304540a733656f0d60405160405180910390a45050565b600082815260656020526040902061101e9082611175565b156106095761102b610f99565b6001600160a01b0316816001600160a01b0316837ff6391f5c32d9c69d2a47ea670b442974b53935d1edc7fd64eb21e047a839171b60405160405180910390a45050565b60975460ff166110915760405162461bcd60e51b81526004016105179061150a565b6097805460ff191690557f5db9ee0a495bf2e6ff9c91a7834c1ba4fdd244a5e8aa4e537bd38aeae4b073aa6110c4610f99565b6040516110d19190611438565b60405180910390a1565b60975460ff16156110fe5760405162461bcd60e51b815260040161051790611604565b6097805460ff191660011790557f62e78cea01bee320cd4e420270b5ea74000d11b0c9f74754ebdbfc544b05a2586110c4610f99565b6000610ada838361118a565b6000610ada836001600160a01b0384166111cf565b6000610add826111e7565b6000610ada836001600160a01b0384166111eb565b6000610ada836001600160a01b038416611235565b815460009082106111ad5760405162461bcd60e51b815260040161051790611479565b8260000182815481106111bc57fe5b9060005260206000200154905092915050565b60009081526001919091016020526040902054151590565b5490565b60006111f783836111cf565b61122d57508154600181810184556000848152602080822090930184905584548482528286019093526040902091909155610add565b506000610add565b600081815260018301602052604081205480156112f1578354600019808301919081019060009087908390811061126857fe5b906000526020600020015490508087600001848154811061128557fe5b6000918252602080832090910192909255828152600189810190925260409020908401905586548790806112b557fe5b60019003818190600052602060002001600090559055866001016000878152602001908152602001600020600090556001945050505050610add565b6000915050610add565b60006020828403121561130c578081fd5b8135611317816117bd565b9392505050565b60006020828403121561132f578081fd5b8151611317816117bd565b600080600080600080600080610100898b031215611356578384fd5b8835611361816117bd565b97506020890135611371816117bd565b96506040890135611381816117bd565b979a96995096976060810135975060808101359660a0820135965060c0820135955060e0909101359350915050565b6000602082840312156113c1578081fd5b81518015158114611317578182fd5b6000602082840312156113e1578081fd5b5035919050565b600080604083850312156113fa578182fd5b82359150602083013561140c816117bd565b809150509250929050565b60008060408385031215611429578182fd5b50508035926020909101359150565b6001600160a01b0391909116815260200190565b6001600160a01b03929092168252602082015260400190565b901515815260200190565b90815260200190565b60208082526022908201527f456e756d657261626c655365743a20696e646578206f7574206f6620626f756e604082015261647360f01b606082015260800190565b6020808252602f908201527f416363657373436f6e74726f6c3a2073656e646572206d75737420626520616e60408201526e0818591b5a5b881d1bc819dc985b9d608a1b606082015260800190565b60208082526014908201527314185d5cd8589b194e881b9bdd081c185d5cd95960621b604082015260600190565b6020808252601690820152754661696c656420746f20617070726f7665205553444360501b604082015260600190565b6020808252602c908201527f4d75737420686176652070617573657220726f6c6520746f20706572666f726d60408201526b103a3434b99030b1ba34b7b760a11b606082015260800190565b60208082526030908201527f416363657373436f6e74726f6c3a2073656e646572206d75737420626520616e60408201526f2061646d696e20746f207265766f6b6560801b606082015260800190565b60208082526010908201526f14185d5cd8589b194e881c185d5cd95960821b604082015260600190565b6020808252818101527f4f776e65722063616e6e6f7420626520746865207a65726f2061646472657373604082015260600190565b6020808252602e908201527f436f6e747261637420696e7374616e63652068617320616c726561647920626560408201526d195b881a5b9a5d1a585b1a5e995960921b606082015260800190565b60208082526022908201527f5265737472696374656420746f206f776e6572206f7220756e6465727772697460408201526132b960f11b606082015260800190565b6020808252601690820152752d32b9379030b2323932b9b9903830b9b9b2b21034b760511b604082015260600190565b6020808252602b908201527f4d75737420686176652061646d696e20726f6c6520746f20706572666f726d2060408201526a3a3434b99030b1ba34b7b760a91b606082015260800190565b6020808252602f908201527f416363657373436f6e74726f6c3a2063616e206f6e6c792072656e6f756e636560408201526e103937b632b9903337b91039b2b63360891b606082015260800190565b6001600160a01b0381168114610a0e57600080fdfeb19546dff01e856fb3f010c267a7b1c60363cf8a4664e21cc89c26224620214e65d7a28e3265b37a6474929f336521b332c1681b933f6cb9f3376673440d862aa26469706673582212209085b43b2b3ce76605550a227a6f7315a3d944d102e836f8307ea5d843df58b264736f6c634300060c0033608060405234801561001057600080fd5b506125a1806100206000396000f3fe608060405234801561001057600080fd5b50600436106101c45760003560e01c80637da0a877116100f9578063c407687611610097578063d547741f11610071578063d547741f1461036d578063e58378bb14610380578063e63ab1e914610388578063f7aaaf3f14610390576101c4565b8063c407687614610334578063c8bc38ae14610347578063ca15c8731461035a576101c4565b80639010d07c116100d35780639010d07c146102fe57806391d1485414610311578063a217fddf14610324578063b6db75a01461032c576101c4565b80637da0a877146102db5780638456cb59146102e35780638b032c64146102eb576101c4565b8063486ff0cd11610166578063572b6c0511610140578063572b6c051461028b5780635c975abb146102ab5780635e3e9fad146102b357806379502c55146102c6576101c4565b8063486ff0cd1461025b578063526d81f61461027057806356b7b73a14610278576101c4565b806336568abe116101a257806336568abe1461021a5780633f17474a1461022d5780633f4ba83a14610240578063485cc95514610248576101c4565b8063097616a3146101c9578063248a9ca3146101de5780632f2ff15d14610207575b600080fd5b6101dc6101d7366004611c69565b6103a3565b005b6101f16101ec366004611f28565b6104dc565b6040516101fe9190612093565b60405180910390f35b6101dc610215366004611f40565b6104f1565b6101dc610228366004611f40565b610535565b6101dc61023b366004611d4c565b610577565b6101dc6106df565b6101dc610256366004611ca8565b61071f565b610263610a27565b6040516101fe919061209c565b6101dc610a47565b6101dc610286366004611dd1565b610ad2565b61029e610299366004611c69565b610c74565b6040516101fe9190612088565b61029e610c89565b6101dc6102c1366004611d0b565b610c92565b6102ce610d5b565b6040516101fe9190611fb9565b6102ce610d6b565b6101dc610d7b565b6101dc6102f9366004611ce0565b610db9565b6102ce61030c366004611f64565b610fa0565b61029e61031f366004611f40565b610fc1565b6101f1610fd9565b61029e610fde565b6101dc610342366004611ce0565b610fff565b6101dc610355366004611e45565b61115d565b6101f1610368366004611f28565b61134e565b6101dc61037b366004611f40565b611365565b6101f161139f565b6101f16113b1565b6101dc61039e366004611ce0565b6113c3565b600054610100900460ff16806103bc57506103bc61149e565b806103ca575060005460ff16155b6103ef5760405162461bcd60e51b81526004016103e690612380565b60405180910390fd5b600054610100900460ff1615801561041a576000805460ff1961ff0019909116610100171660011790555b6001600160a01b0382166104405760405162461bcd60e51b81526004016103e6906122da565b6104486114a4565b610450611525565b6104586115b1565b61047060008051602061252c8339815191528361052b565b61048860008051602061254c8339815191528361052b565b6104ae60008051602061254c83398151915260008051602061252c833981519152611640565b6104c660008051602061252c83398151915280611640565b80156104d8576000805461ff00191690555b5050565b60009081526065602052604090206002015490565b60008281526065602052604090206002015461050f9061031f611655565b61052b5760405162461bcd60e51b81526004016103e690612111565b6104d8828261165f565b61053d611655565b6001600160a01b0316816001600160a01b03161461056d5760405162461bcd60e51b81526004016103e690612450565b6104d882826116c8565b6101c45461058d906001600160a01b0316611731565b6001600160a01b0316636acab9da87876040518363ffffffff1660e01b81526004016105ba92919061206f565b600060405180830381600087803b1580156105d457600080fd5b505af11580156105e8573d6000803e3d6000fd5b50506101c45461060f925061060691506001600160a01b031661173c565b848785856117bc565b6001600160a01b0384161580159061063057506001600160a01b0384163014155b156106d7576060306040516024016106489190611fb9565b60408051601f198184030181529190526020810180516001600160e01b03166370a0823160e01b179052905060006106886106838684611823565b6118cc565b9050858160405160240161069d92919061206f565b60408051601f198184030181529190526020810180516001600160e01b031663a9059cbb60e01b17905291506106d38583611823565b5050505b505050505050565b6106f960008051602061254c83398151915261031f611655565b6107155760405162461bcd60e51b81526004016103e69061218e565b61071d6118d3565b565b600054610100900460ff1680610738575061073861149e565b80610746575060005460ff16155b6107625760405162461bcd60e51b81526004016103e690612380565b600054610100900460ff1615801561078d576000805460ff1961ff0019909116610100171660011790555b6001600160a01b0383166107b35760405162461bcd60e51b81526004016103e69061230f565b6107bc836103a3565b6101c480546001600160a01b0319166001600160a01b0384811691909117918290556107e8911661193f565b6101c380546001600160a01b0319166001600160a01b039283161790556101c4546000916108169116611957565b6101c454909150600090610832906001600160a01b031661196f565b6101c4549091506001600160a01b038083169163095ea7b391610855911661197a565b6000196040518363ffffffff1660e01b815260040161087592919061206f565b602060405180830381600087803b15801561088f57600080fd5b505af11580156108a3573d6000803e3d6000fd5b505050506040513d601f19601f820116820180604052508101906108c79190611f08565b5060405163095ea7b360e01b81526001600160a01b0382169063095ea7b3906108f89085906000199060040161206f565b602060405180830381600087803b15801561091257600080fd5b505af1158015610926573d6000803e3d6000fd5b505050506040513d601f19601f8201168201806040525081019061094a9190611f08565b5060608260001960405160240161096292919061206f565b60408051601f198184030181529190526020810180516001600160e01b031663095ea7b360e01b17905290506109ac73dac17f958d2ee523a2206206994597c13d831ec782611823565b50826000196040516024016109c292919061206f565b60408051601f198184030181529190526020810180516001600160e01b031663095ea7b360e01b1790529050610a0c734fabb145d64652a948d72533023f6e7a623c7c5382611823565b505050508015610a22576000805461ff00191690555b505050565b6040805180820190915260058152640322e302e360dc1b60208201525b90565b600054610100900460ff1680610a605750610a6061149e565b80610a6e575060005460ff16155b610a8a5760405162461bcd60e51b81526004016103e690612380565b600054610100900460ff16158015610ab5576000805460ff1961ff0019909116610100171660011790555b610abd611525565b8015610acf576000805461ff00191690555b50565b610ada610fde565b610af65760405162461bcd60e51b81526004016103e690612405565b6060610b00611655565b3086604051602401610b1493929190611fcd565b60408051601f198184030181529190526020810180516001600160e01b03166323b872dd60e01b1790529050610b4a8482611823565b506101c454600090610b64906001600160a01b031661196f565b9050610b7385828887876117bc565b6040516370a0823160e01b81526000906001600160a01b038316906370a0823190610ba2903090600401611fb9565b60206040518083038186803b158015610bba57600080fd5b505afa158015610bce573d6000803e3d6000fd5b505050506040513d601f19601f82011682018060405250810190610bf29190611f85565b6101c454909150610c0b906001600160a01b0316611731565b6001600160a01b031663c407687689836040518363ffffffff1660e01b8152600401610c3892919061206f565b600060405180830381600087803b158015610c5257600080fd5b505af1158015610c66573d6000803e3d6000fd5b505050505050505050505050565b6101c3546001600160a01b0390811691161490565b60975460ff1690565b610c9a610fde565b610cb65760405162461bcd60e51b81526004016103e690612405565b6101c454610ccc906001600160a01b0316611731565b6001600160a01b0316636acab9da84846040518363ffffffff1660e01b8152600401610cf992919061206f565b600060405180830381600087803b158015610d1357600080fd5b505af1158015610d27573d6000803e3d6000fd5b505050506001600160a01b03811615801590610d4c57506001600160a01b0381163014155b15610a2257610a2281836113c3565b6101c4546001600160a01b031681565b6101c3546001600160a01b031681565b610d9560008051602061254c83398151915261031f611655565b610db15760405162461bcd60e51b81526004016103e69061218e565b61071d611991565b610dc1610fde565b610ddd5760405162461bcd60e51b81526004016103e690612405565b6101c454600090610df6906001600160a01b031661196f565b6001600160a01b03166323b872dd610e0c611655565b85856040518463ffffffff1660e01b8152600401610e2c93929190611fcd565b602060405180830381600087803b158015610e4657600080fd5b505af1158015610e5a573d6000803e3d6000fd5b505050506040513d601f19601f82011682018060405250810190610e7e9190611f08565b905080610e9d5760405162461bcd60e51b81526004016103e6906123ce565b6101c454610eb3906001600160a01b0316611731565b6001600160a01b0316632e0c6cfe84846040518363ffffffff1660e01b8152600401610ee092919061206f565b600060405180830381600087803b158015610efa57600080fd5b505af1158015610f0e573d6000803e3d6000fd5b50505050826001600160a01b031663b69ef8a86040518163ffffffff1660e01b815260040160206040518083038186803b158015610f4b57600080fd5b505afa158015610f5f573d6000803e3d6000fd5b505050506040513d601f19601f82011682018060405250810190610f839190611f85565b15610a225760405162461bcd60e51b81526004016103e69061233e565b6000828152606560205260408120610fb890836119ea565b90505b92915050565b6000828152606560205260408120610fb890836119f6565b600081565b6000610ffa60008051602061252c83398151915261031f611655565b905090565b611007610fde565b6110235760405162461bcd60e51b81526004016103e690612405565b6101c45460009061103c906001600160a01b031661196f565b6001600160a01b03166323b872dd611052611655565b30856040518463ffffffff1660e01b815260040161107293929190611fcd565b602060405180830381600087803b15801561108c57600080fd5b505af11580156110a0573d6000803e3d6000fd5b505050506040513d601f19601f820116820180604052508101906110c49190611f08565b9050806110e35760405162461bcd60e51b81526004016103e6906123ce565b6101c4546110f9906001600160a01b0316611731565b6001600160a01b031663c407687684846040518363ffffffff1660e01b815260040161112692919061206f565b600060405180830381600087803b15801561114057600080fd5b505af1158015611154573d6000803e3d6000fd5b50505050505050565b611165610fde565b6111815760405162461bcd60e51b81526004016103e690612405565b80518251146111a25760405162461bcd60e51b81526004016103e6906121da565b6000805b82518110156111d4578281815181106111bb57fe5b60200260200101518201915080806001019150506111a6565b506101c4546000906111ee906001600160a01b031661196f565b6001600160a01b03166323b872dd611204611655565b30856040518463ffffffff1660e01b815260040161122493929190611fcd565b602060405180830381600087803b15801561123e57600080fd5b505af1158015611252573d6000803e3d6000fd5b505050506040513d601f19601f820116820180604052508101906112769190611f08565b9050806112955760405162461bcd60e51b81526004016103e6906123ce565b6101c4546000906112ae906001600160a01b0316611731565b905060005b84518110156106d757816001600160a01b031663c40768768783815181106112d757fe5b60200260200101518784815181106112eb57fe5b60200260200101516040518363ffffffff1660e01b815260040161131092919061206f565b600060405180830381600087803b15801561132a57600080fd5b505af115801561133e573d6000803e3d6000fd5b5050600190920191506112b39050565b6000818152606560205260408120610fbb90611a0b565b6000828152606560205260409020600201546113839061031f611655565b61056d5760405162461bcd60e51b81526004016103e690612260565b60008051602061252c83398151915281565b60008051602061254c83398151915281565b6113cb610fde565b6113e75760405162461bcd60e51b81526004016103e690612405565b6101c454600090611400906001600160a01b031661196f565b6001600160a01b031663a9059cbb84846040518363ffffffff1660e01b815260040161142d92919061206f565b602060405180830381600087803b15801561144757600080fd5b505af115801561145b573d6000803e3d6000fd5b505050506040513d601f19601f8201168201806040525081019061147f9190611f08565b905080610a225760405162461bcd60e51b81526004016103e6906123ce565b303b1590565b600054610100900460ff16806114bd57506114bd61149e565b806114cb575060005460ff16155b6114e75760405162461bcd60e51b81526004016103e690612380565b600054610100900460ff16158015610abd576000805460ff1961ff0019909116610100171660011790558015610acf576000805461ff001916905550565b600054610100900460ff168061153e575061153e61149e565b8061154c575060005460ff16155b6115685760405162461bcd60e51b81526004016103e690612380565b600054610100900460ff16158015611593576000805460ff1961ff0019909116610100171660011790555b6097805460ff191690558015610acf576000805461ff001916905550565b600054610100900460ff16806115ca57506115ca61149e565b806115d8575060005460ff16155b6115f45760405162461bcd60e51b81526004016103e690612380565b600054610100900460ff1615801561161f576000805460ff1961ff0019909116610100171660011790555b60c9805460ff191660011790558015610acf576000805461ff001916905550565b60009182526065602052604090912060020155565b6000610ffa611a16565b60008281526065602052604090206116779082611a48565b156104d857611684611655565b6001600160a01b0316816001600160a01b0316837f2f8788117e7eff1d82e926ec794901d17c78024a50270940304540a733656f0d60405160405180910390a45050565b60008281526065602052604090206116e09082611a5d565b156104d8576116ed611655565b6001600160a01b0316816001600160a01b0316837ff6391f5c32d9c69d2a47ea670b442974b53935d1edc7fd64eb21e047a839171b60405160405180910390a45050565b6000610fbb82611a72565b60006001600160a01b03821663b93f9b0a60055b6040518263ffffffff1660e01b815260040161176c9190612093565b60206040518083038186803b15801561178457600080fd5b505afa158015611798573d6000803e3d6000fd5b505050506040513d601f19601f82011682018060405250810190610fbb9190611c8c565b6060858585858560006040516024016117da96959493929190611ff1565b60408051601f198184030181529190526020810180516001600160e01b0316637153a8af60e11b1790526101c45490915061115490611821906001600160a01b0316611957565b825b606060006060846001600160a01b0316846040516118419190611f9d565b6000604051808303816000865af19150503d806000811461187e576040519150601f19603f3d011682016040523d82523d6000602084013e611883565b606091505b50909250905081158015611898575060008151115b156118a7573d6000803e3d6000fd5b816118c45760405162461bcd60e51b81526004016103e690612229565b949350505050565b6020015190565b60975460ff166118f55760405162461bcd60e51b81526004016103e690612160565b6097805460ff191690557f5db9ee0a495bf2e6ff9c91a7834c1ba4fdd244a5e8aa4e537bd38aeae4b073aa611928611655565b6040516119359190611fb9565b60405180910390a1565b60006001600160a01b03821663b93f9b0a6009611750565b60006001600160a01b03821663b93f9b0a6008611750565b6000610fbb8261173c565b60006001600160a01b03821663b93f9b0a82611750565b60975460ff16156119b45760405162461bcd60e51b81526004016103e6906122b0565b6097805460ff191660011790557f62e78cea01bee320cd4e420270b5ea74000d11b0c9f74754ebdbfc544b05a258611928611655565b6000610fb88383611a8a565b6000610fb8836001600160a01b038416611acf565b6000610fbb82611ae7565b600060183610801590611a2d5750611a2d33610c74565b15611a41575060131936013560601c610a44565b5033610a44565b6000610fb8836001600160a01b038416611aeb565b6000610fb8836001600160a01b038416611b35565b60006001600160a01b03821663b93f9b0a6003611750565b81546000908210611aad5760405162461bcd60e51b81526004016103e6906120cf565b826000018281548110611abc57fe5b9060005260206000200154905092915050565b60009081526001919091016020526040902054151590565b5490565b6000611af78383611acf565b611b2d57508154600181810184556000848152602080822090930184905584548482528286019093526040902091909155610fbb565b506000610fbb565b60008181526001830160205260408120548015611bf15783546000198083019190810190600090879083908110611b6857fe5b9060005260206000200154905080876000018481548110611b8557fe5b600091825260208083209091019290925582815260018981019092526040902090840190558654879080611bb557fe5b60019003818190600052602060002001600090559055866001016000878152602001908152602001600020600090556001945050505050610fbb565b6000915050610fbb565b600082601f830112611c0b578081fd5b8135611c1e611c19826124c6565b61249f565b818152915060208083019084810181840286018201871015611c3f57600080fd5b60005b84811015611c5e57813584529282019290820190600101611c42565b505050505092915050565b600060208284031215611c7a578081fd5b8135611c8581612516565b9392505050565b600060208284031215611c9d578081fd5b8151611c8581612516565b60008060408385031215611cba578081fd5b8235611cc581612516565b91506020830135611cd581612516565b809150509250929050565b60008060408385031215611cf2578182fd5b8235611cfd81612516565b946020939093013593505050565b600080600060608486031215611d1f578081fd5b8335611d2a81612516565b9250602084013591506040840135611d4181612516565b809150509250925092565b60008060008060008060c08789031215611d64578182fd5b8635611d6f81612516565b9550602087013594506040870135611d8681612516565b93506060870135611d9681612516565b92506080870135915060a087013567ffffffffffffffff811115611db8578182fd5b611dc489828a01611bfb565b9150509295509295509295565b600080600080600060a08688031215611de8578081fd5b8535611df381612516565b9450602086013593506040860135611e0a81612516565b925060608601359150608086013567ffffffffffffffff811115611e2c578182fd5b611e3888828901611bfb565b9150509295509295909350565b60008060408385031215611e57578182fd5b823567ffffffffffffffff80821115611e6e578384fd5b818501915085601f830112611e81578384fd5b8135611e8f611c19826124c6565b80828252602080830192508086018a828387028901011115611eaf578889fd5b8896505b84871015611eda578035611ec681612516565b845260019690960195928101928101611eb3565b509096508701359350505080821115611ef1578283fd5b50611efe85828601611bfb565b9150509250929050565b600060208284031215611f19578081fd5b81518015158114611c85578182fd5b600060208284031215611f39578081fd5b5035919050565b60008060408385031215611f52578182fd5b823591506020830135611cd581612516565b60008060408385031215611f76578182fd5b50508035926020909101359150565b600060208284031215611f96578081fd5b5051919050565b60008251611faf8184602087016124e6565b9190910192915050565b6001600160a01b0391909116815260200190565b6001600160a01b039384168152919092166020820152604081019190915260600190565b6001600160a01b0387811682528616602080830191909152604082018690526060820185905260c06080830181905284519083018190526000918581019160e085019190845b8181101561205357845184529382019392820192600101612037565b505050809250505060ff831660a0830152979650505050505050565b6001600160a01b03929092168252602082015260400190565b901515815260200190565b90815260200190565b60006020825282518060208401526120bb8160408501602087016124e6565b601f01601f19169190910160400192915050565b60208082526022908201527f456e756d657261626c655365743a20696e646578206f7574206f6620626f756e604082015261647360f01b606082015260800190565b6020808252602f908201527f416363657373436f6e74726f6c3a2073656e646572206d75737420626520616e60408201526e0818591b5a5b881d1bc819dc985b9d608a1b606082015260800190565b60208082526014908201527314185d5cd8589b194e881b9bdd081c185d5cd95960621b604082015260600190565b6020808252602c908201527f4d75737420686176652070617573657220726f6c6520746f20706572666f726d60408201526b103a3434b99030b1ba34b7b760a11b606082015260800190565b6020808252602f908201527f4372656469746c696e657320616e6420616d6f756e7473206d7573742062652060408201526e0e8d0ca40e6c2daca40d8cadccee8d608b1b606082015260800190565b6020808252601a908201527f564d3a2077616c6c657420696e766f6b65207265766572746564000000000000604082015260600190565b60208082526030908201527f416363657373436f6e74726f6c3a2073656e646572206d75737420626520616e60408201526f2061646d696e20746f207265766f6b6560801b606082015260800190565b60208082526010908201526f14185d5cd8589b194e881c185d5cd95960821b604082015260600190565b6020808252818101527f4f776e65722063616e6e6f7420626520746865207a65726f2061646472657373604082015260600190565b6020808252601590820152744f776e65722063616e6e6f7420626520656d70747960581b604082015260600190565b60208082526022908201527f4661696c656420746f2066756c6c7920706179206f6666206372656469746c696040820152616e6560f01b606082015260800190565b6020808252602e908201527f436f6e747261637420696e7374616e63652068617320616c726561647920626560408201526d195b881a5b9a5d1a585b1a5e995960921b606082015260800190565b60208082526017908201527f4661696c656420746f207472616e736665722055534443000000000000000000604082015260600190565b6020808252602b908201527f4d75737420686176652061646d696e20726f6c6520746f20706572666f726d2060408201526a3a3434b99030b1ba34b7b760a91b606082015260800190565b6020808252602f908201527f416363657373436f6e74726f6c3a2063616e206f6e6c792072656e6f756e636560408201526e103937b632b9903337b91039b2b63360891b606082015260800190565b60405181810167ffffffffffffffff811182821017156124be57600080fd5b604052919050565b600067ffffffffffffffff8211156124dc578081fd5b5060209081020190565b60005b838110156125015781810151838201526020016124e9565b83811115612510576000848401525b50505050565b6001600160a01b0381168114610acf57600080fdfeb19546dff01e856fb3f010c267a7b1c60363cf8a4664e21cc89c26224620214e65d7a28e3265b37a6474929f336521b332c1681b933f6cb9f3376673440d862aa2646970667358221220b8bdab517632aa378e93efc97573b8993f2e2fb1bb134d3018258f2da357d65064736f6c634300060c0033456e756d657261626c655365743a20696e646578206f7574206f6620626f756e6473416363657373436f6e74726f6c3a2073656e646572206d75737420626520616e2061646d696e20746f206772616e744d75737420686176652070617573657220726f6c6520746f20706572666f726d207468697320616374696f6eb19546dff01e856fb3f010c267a7b1c60363cf8a4664e21cc89c26224620214e416363657373436f6e74726f6c3a2073656e646572206d75737420626520616e2061646d696e20746f207265766f6b6565d7a28e3265b37a6474929f336521b332c1681b933f6cb9f3376673440d862a436f6e747261637420696e7374616e63652068617320616c7265616479206265656e20696e697469616c697a6564416363657373436f6e74726f6c3a2063616e206f6e6c792072656e6f756e636520726f6c657320666f722073656c66a264697066735822122039955de2c7a47aa207fb22e1ca19ea11797ca8ac6f2ec60f0bbbb49e0e913c9664736f6c634300060c0033",
  "devdoc": {
    "author": "Goldfinch",
    "kind": "dev",
    "methods": {
      "createBorrower(address)": {
        "params": {
          "owner": "The address that will own the new Borrower instance"
        }
      },
      "getRoleAdmin(bytes32)": {
        "details": "Returns the admin role that controls `role`. See {grantRole} and {revokeRole}. To change a role's admin, use {_setRoleAdmin}."
      },
      "getRoleMember(bytes32,uint256)": {
        "details": "Returns one of the accounts that have `role`. `index` must be a value between 0 and {getRoleMemberCount}, non-inclusive. Role bearers are not sorted in any particular way, and their ordering may change at any point. WARNING: When using {getRoleMember} and {getRoleMemberCount}, make sure you perform all queries on the same block. See the following https://forum.openzeppelin.com/t/iterating-over-elements-on-enumerableset-in-openzeppelin-contracts/2296[forum post] for more information."
      },
      "getRoleMemberCount(bytes32)": {
        "details": "Returns the number of accounts that have `role`. Can be used together with {getRoleMember} to enumerate all bearers of a role."
      },
      "grantRole(bytes32,address)": {
        "details": "Grants `role` to `account`. If `account` had not been already granted `role`, emits a {RoleGranted} event. Requirements: - the caller must have ``role``'s admin role."
      },
      "hasRole(bytes32,address)": {
        "details": "Returns `true` if `account` has been granted `role`."
      },
      "pause()": {
        "details": "Pauses all functions guarded by Pause See {Pausable-_pause}. Requirements: - the caller must have the PAUSER_ROLE."
      },
      "paused()": {
        "details": "Returns true if the contract is paused, and false otherwise."
      },
      "renounceRole(bytes32,address)": {
        "details": "Revokes `role` from the calling account. Roles are often managed via {grantRole} and {revokeRole}: this function's purpose is to provide a mechanism for accounts to lose their privileges if they are compromised (such as when a trusted device is misplaced). If the calling account had been granted `role`, emits a {RoleRevoked} event. Requirements: - the caller must be `account`."
      },
      "revokeRole(bytes32,address)": {
        "details": "Revokes `role` from `account`. If `account` had been granted `role`, emits a {RoleRevoked} event. Requirements: - the caller must have ``role``'s admin role."
      },
      "unpause()": {
        "details": "Unpauses the contract See {Pausable-_unpause}. Requirements: - the caller must have the Pauser role"
      }
    },
    "title": "CreditLineFactory",
    "version": 1
  },
  "userdoc": {
    "kind": "user",
    "methods": {
      "createBorrower(address)": {
        "notice": "Allows anyone to create a Borrower contract instance"
      }
    },
    "notice": "Contract that allows us to follow the minimal proxy pattern for creating CreditLines.  This saves us gas, and lets us easily swap out the CreditLine implementaton.",
    "version": 1
  },
  "storageLayout": {
    "storage": [
      {
        "astId": 151,
        "contract": "contracts/protocol/core/CreditLineFactory.sol:CreditLineFactory",
        "label": "initialized",
        "offset": 0,
        "slot": "0",
        "type": "t_bool"
      },
      {
        "astId": 154,
        "contract": "contracts/protocol/core/CreditLineFactory.sol:CreditLineFactory",
        "label": "initializing",
        "offset": 1,
        "slot": "0",
        "type": "t_bool"
      },
      {
        "astId": 219,
        "contract": "contracts/protocol/core/CreditLineFactory.sol:CreditLineFactory",
        "label": "______gap",
        "offset": 0,
        "slot": "1",
        "type": "t_array(t_uint256)50_storage"
      },
      {
        "astId": 144,
        "contract": "contracts/protocol/core/CreditLineFactory.sol:CreditLineFactory",
        "label": "__gap",
        "offset": 0,
        "slot": "51",
        "type": "t_array(t_uint256)50_storage"
      },
      {
        "astId": 264,
        "contract": "contracts/protocol/core/CreditLineFactory.sol:CreditLineFactory",
        "label": "_roles",
        "offset": 0,
        "slot": "101",
        "type": "t_mapping(t_bytes32,t_struct(RoleData)260_storage)"
      },
      {
        "astId": 509,
        "contract": "contracts/protocol/core/CreditLineFactory.sol:CreditLineFactory",
        "label": "__gap",
        "offset": 0,
        "slot": "102",
        "type": "t_array(t_uint256)49_storage"
      },
      {
        "astId": 2385,
        "contract": "contracts/protocol/core/CreditLineFactory.sol:CreditLineFactory",
        "label": "_paused",
        "offset": 0,
        "slot": "151",
        "type": "t_bool"
      },
      {
        "astId": 2474,
        "contract": "contracts/protocol/core/CreditLineFactory.sol:CreditLineFactory",
        "label": "__gap",
        "offset": 0,
        "slot": "152",
        "type": "t_array(t_uint256)49_storage"
      },
      {
        "astId": 2483,
        "contract": "contracts/protocol/core/CreditLineFactory.sol:CreditLineFactory",
        "label": "_notEntered",
        "offset": 0,
        "slot": "201",
        "type": "t_bool"
      },
      {
        "astId": 2524,
        "contract": "contracts/protocol/core/CreditLineFactory.sol:CreditLineFactory",
        "label": "__gap",
        "offset": 0,
        "slot": "202",
        "type": "t_array(t_uint256)49_storage"
      },
      {
        "astId": 4855,
        "contract": "contracts/protocol/core/CreditLineFactory.sol:CreditLineFactory",
        "label": "__gap1",
        "offset": 0,
        "slot": "251",
        "type": "t_array(t_uint256)50_storage"
      },
      {
        "astId": 4859,
        "contract": "contracts/protocol/core/CreditLineFactory.sol:CreditLineFactory",
        "label": "__gap2",
        "offset": 0,
        "slot": "301",
        "type": "t_array(t_uint256)50_storage"
      },
      {
        "astId": 4863,
        "contract": "contracts/protocol/core/CreditLineFactory.sol:CreditLineFactory",
        "label": "__gap3",
        "offset": 0,
        "slot": "351",
        "type": "t_array(t_uint256)50_storage"
      },
      {
        "astId": 4867,
        "contract": "contracts/protocol/core/CreditLineFactory.sol:CreditLineFactory",
        "label": "__gap4",
        "offset": 0,
        "slot": "401",
        "type": "t_array(t_uint256)50_storage"
      },
      {
        "astId": 7555,
        "contract": "contracts/protocol/core/CreditLineFactory.sol:CreditLineFactory",
        "label": "config",
        "offset": 0,
        "slot": "451",
        "type": "t_contract(GoldfinchConfig)8200"
      }
    ],
    "types": {
      "t_array(t_bytes32)dyn_storage": {
        "base": "t_bytes32",
        "encoding": "dynamic_array",
        "label": "bytes32[]",
        "numberOfBytes": "32"
      },
      "t_array(t_uint256)49_storage": {
        "base": "t_uint256",
        "encoding": "inplace",
        "label": "uint256[49]",
        "numberOfBytes": "1568"
      },
      "t_array(t_uint256)50_storage": {
        "base": "t_uint256",
        "encoding": "inplace",
        "label": "uint256[50]",
        "numberOfBytes": "1600"
      },
      "t_bool": {
        "encoding": "inplace",
        "label": "bool",
        "numberOfBytes": "1"
      },
      "t_bytes32": {
        "encoding": "inplace",
        "label": "bytes32",
        "numberOfBytes": "32"
      },
      "t_contract(GoldfinchConfig)8200": {
        "encoding": "inplace",
        "label": "contract GoldfinchConfig",
        "numberOfBytes": "20"
      },
      "t_mapping(t_bytes32,t_struct(RoleData)260_storage)": {
        "encoding": "mapping",
        "key": "t_bytes32",
        "label": "mapping(bytes32 => struct AccessControlUpgradeSafe.RoleData)",
        "numberOfBytes": "32",
        "value": "t_struct(RoleData)260_storage"
      },
      "t_mapping(t_bytes32,t_uint256)": {
        "encoding": "mapping",
        "key": "t_bytes32",
        "label": "mapping(bytes32 => uint256)",
        "numberOfBytes": "32",
        "value": "t_uint256"
      },
      "t_struct(AddressSet)2160_storage": {
        "encoding": "inplace",
        "label": "struct EnumerableSet.AddressSet",
        "members": [
          {
            "astId": 2159,
            "contract": "contracts/protocol/core/CreditLineFactory.sol:CreditLineFactory",
            "label": "_inner",
            "offset": 0,
            "slot": "0",
            "type": "t_struct(Set)1980_storage"
          }
        ],
        "numberOfBytes": "64"
      },
      "t_struct(RoleData)260_storage": {
        "encoding": "inplace",
        "label": "struct AccessControlUpgradeSafe.RoleData",
        "members": [
          {
            "astId": 257,
            "contract": "contracts/protocol/core/CreditLineFactory.sol:CreditLineFactory",
            "label": "members",
            "offset": 0,
            "slot": "0",
            "type": "t_struct(AddressSet)2160_storage"
          },
          {
            "astId": 259,
            "contract": "contracts/protocol/core/CreditLineFactory.sol:CreditLineFactory",
            "label": "adminRole",
            "offset": 0,
            "slot": "2",
            "type": "t_bytes32"
          }
        ],
        "numberOfBytes": "96"
      },
      "t_struct(Set)1980_storage": {
        "encoding": "inplace",
        "label": "struct EnumerableSet.Set",
        "members": [
          {
            "astId": 1975,
            "contract": "contracts/protocol/core/CreditLineFactory.sol:CreditLineFactory",
            "label": "_values",
            "offset": 0,
            "slot": "0",
            "type": "t_array(t_bytes32)dyn_storage"
          },
          {
            "astId": 1979,
            "contract": "contracts/protocol/core/CreditLineFactory.sol:CreditLineFactory",
            "label": "_indexes",
            "offset": 0,
            "slot": "1",
            "type": "t_mapping(t_bytes32,t_uint256)"
          }
        ],
        "numberOfBytes": "64"
      },
      "t_uint256": {
        "encoding": "inplace",
        "label": "uint256",
        "numberOfBytes": "32"
      }
    }
  }
}