{
  "address": "0x6C117c26a48d797BEBE367D28768751FA9CD102d",
  "abi": [
    {
      "anonymous": false,
      "inputs": [
        {
          "indexed": true,
          "internalType": "address",
          "name": "borrower",
          "type": "address"
        },
        {
          "indexed": true,
          "internalType": "address",
          "name": "creditLine",
          "type": "address"
        }
      ],
      "name": "CreditLineCreated",
      "type": "event"
    },
    {
      "anonymous": false,
      "inputs": [
        {
          "indexed": true,
          "internalType": "address",
          "name": "borrower",
          "type": "address"
        },
        {
          "indexed": true,
          "internalType": "address",
          "name": "creditLine",
          "type": "address"
        },
        {
          "indexed": false,
          "internalType": "uint256",
          "name": "drawdownAmount",
          "type": "uint256"
        }
      ],
      "name": "DrawdownMade",
      "type": "event"
    },
    {
      "anonymous": false,
      "inputs": [
        {
          "indexed": true,
          "internalType": "address",
          "name": "underwriter",
          "type": "address"
        },
        {
          "indexed": false,
          "internalType": "uint256",
          "name": "newLimit",
          "type": "uint256"
        }
      ],
      "name": "GovernanceUpdatedUnderwriterLimit",
      "type": "event"
    },
    {
      "anonymous": false,
      "inputs": [
        {
          "indexed": false,
          "internalType": "address",
          "name": "account",
          "type": "address"
        }
      ],
      "name": "Paused",
      "type": "event"
    },
    {
      "anonymous": false,
      "inputs": [
        {
          "indexed": true,
          "internalType": "address",
          "name": "payer",
          "type": "address"
        },
        {
          "indexed": true,
          "internalType": "address",
          "name": "creditLine",
          "type": "address"
        },
        {
          "indexed": false,
          "internalType": "uint256",
          "name": "interestAmount",
          "type": "uint256"
        },
        {
          "indexed": false,
          "internalType": "uint256",
          "name": "principalAmount",
          "type": "uint256"
        },
        {
          "indexed": false,
          "internalType": "uint256",
          "name": "remainingAmount",
          "type": "uint256"
        }
      ],
      "name": "PaymentApplied",
      "type": "event"
    },
    {
      "anonymous": false,
      "inputs": [
        {
          "indexed": true,
          "internalType": "address",
          "name": "payer",
          "type": "address"
        },
        {
          "indexed": true,
          "internalType": "address",
          "name": "creditLine",
          "type": "address"
        },
        {
          "indexed": false,
          "internalType": "uint256",
          "name": "paymentAmount",
          "type": "uint256"
        }
      ],
      "name": "PaymentCollected",
      "type": "event"
    },
    {
      "anonymous": false,
      "inputs": [
        {
          "indexed": true,
          "internalType": "bytes32",
          "name": "role",
          "type": "bytes32"
        },
        {
          "indexed": true,
          "internalType": "address",
          "name": "account",
          "type": "address"
        },
        {
          "indexed": true,
          "internalType": "address",
          "name": "sender",
          "type": "address"
        }
      ],
      "name": "RoleGranted",
      "type": "event"
    },
    {
      "anonymous": false,
      "inputs": [
        {
          "indexed": true,
          "internalType": "bytes32",
          "name": "role",
          "type": "bytes32"
        },
        {
          "indexed": true,
          "internalType": "address",
          "name": "account",
          "type": "address"
        },
        {
          "indexed": true,
          "internalType": "address",
          "name": "sender",
          "type": "address"
        }
      ],
      "name": "RoleRevoked",
      "type": "event"
    },
    {
      "anonymous": false,
      "inputs": [
        {
          "indexed": false,
          "internalType": "address",
          "name": "account",
          "type": "address"
        }
      ],
      "name": "Unpaused",
      "type": "event"
    },
    {
      "inputs": [],
      "name": "BLOCKS_PER_DAY",
      "outputs": [
        {
          "internalType": "uint256",
          "name": "",
          "type": "uint256"
        }
      ],
      "stateMutability": "view",
      "type": "function"
    },
    {
      "inputs": [],
      "name": "DEFAULT_ADMIN_ROLE",
      "outputs": [
        {
          "internalType": "bytes32",
          "name": "",
          "type": "bytes32"
        }
      ],
      "stateMutability": "view",
      "type": "function"
    },
    {
      "inputs": [],
      "name": "OWNER_ROLE",
      "outputs": [
        {
          "internalType": "bytes32",
          "name": "",
          "type": "bytes32"
        }
      ],
      "stateMutability": "view",
      "type": "function"
    },
    {
      "inputs": [],
      "name": "PAUSER_ROLE",
      "outputs": [
        {
          "internalType": "bytes32",
          "name": "",
          "type": "bytes32"
        }
      ],
      "stateMutability": "view",
      "type": "function"
    },
    {
      "inputs": [
        {
          "internalType": "address",
          "name": "owner",
          "type": "address"
        }
      ],
      "name": "__BaseUpgradeablePausable__init",
      "outputs": [],
      "stateMutability": "nonpayable",
      "type": "function"
    },
    {
      "inputs": [],
      "name": "__PauserPausable__init",
      "outputs": [],
      "stateMutability": "nonpayable",
      "type": "function"
    },
    {
      "inputs": [
        {
          "internalType": "address",
          "name": "creditLineAddress",
          "type": "address"
        },
        {
          "internalType": "uint256",
          "name": "amount",
          "type": "uint256"
        }
      ],
      "name": "applyPayment",
      "outputs": [],
      "stateMutability": "nonpayable",
      "type": "function"
    },
    {
      "inputs": [
        {
          "internalType": "address",
          "name": "creditLineAddress",
          "type": "address"
        }
      ],
      "name": "assessCreditLine",
      "outputs": [],
      "stateMutability": "nonpayable",
      "type": "function"
    },
    {
      "inputs": [],
      "name": "config",
      "outputs": [
        {
          "internalType": "contract GoldfinchConfig",
          "name": "",
          "type": "address"
        }
      ],
      "stateMutability": "view",
      "type": "function"
    },
    {
      "inputs": [
        {
          "internalType": "address",
          "name": "_borrower",
          "type": "address"
        },
        {
          "internalType": "uint256",
          "name": "_limit",
          "type": "uint256"
        },
        {
          "internalType": "uint256",
          "name": "_interestApr",
          "type": "uint256"
        },
        {
          "internalType": "uint256",
          "name": "_paymentPeriodInDays",
          "type": "uint256"
        },
        {
          "internalType": "uint256",
          "name": "_termInDays",
          "type": "uint256"
        },
        {
          "internalType": "uint256",
          "name": "_lateFeeApr",
          "type": "uint256"
        }
      ],
      "name": "createCreditLine",
      "outputs": [
        {
          "internalType": "address",
          "name": "",
          "type": "address"
        }
      ],
      "stateMutability": "nonpayable",
      "type": "function"
    },
    {
      "inputs": [
        {
          "internalType": "address",
          "name": "creditLineAddress",
          "type": "address"
        },
        {
          "internalType": "uint256",
          "name": "amount",
          "type": "uint256"
        }
      ],
      "name": "drawdown",
      "outputs": [],
      "stateMutability": "nonpayable",
      "type": "function"
    },
    {
      "inputs": [
        {
          "internalType": "address",
          "name": "borrowerAddress",
          "type": "address"
        }
      ],
      "name": "getBorrowerCreditLines",
      "outputs": [
        {
          "internalType": "address[]",
          "name": "",
          "type": "address[]"
        }
      ],
      "stateMutability": "view",
      "type": "function"
    },
    {
      "inputs": [
        {
          "internalType": "address",
          "name": "creditLineAddress",
          "type": "address"
        },
        {
          "internalType": "uint256",
          "name": "asOfBLock",
          "type": "uint256"
        }
      ],
      "name": "getNextPaymentAmount",
      "outputs": [
        {
          "internalType": "uint256",
          "name": "",
          "type": "uint256"
        }
      ],
      "stateMutability": "view",
      "type": "function"
    },
    {
      "inputs": [
        {
          "internalType": "bytes32",
          "name": "role",
          "type": "bytes32"
        }
      ],
      "name": "getRoleAdmin",
      "outputs": [
        {
          "internalType": "bytes32",
          "name": "",
          "type": "bytes32"
        }
      ],
      "stateMutability": "view",
      "type": "function"
    },
    {
      "inputs": [
        {
          "internalType": "bytes32",
          "name": "role",
          "type": "bytes32"
        },
        {
          "internalType": "uint256",
          "name": "index",
          "type": "uint256"
        }
      ],
      "name": "getRoleMember",
      "outputs": [
        {
          "internalType": "address",
          "name": "",
          "type": "address"
        }
      ],
      "stateMutability": "view",
      "type": "function"
    },
    {
      "inputs": [
        {
          "internalType": "bytes32",
          "name": "role",
          "type": "bytes32"
        }
      ],
      "name": "getRoleMemberCount",
      "outputs": [
        {
          "internalType": "uint256",
          "name": "",
          "type": "uint256"
        }
      ],
      "stateMutability": "view",
      "type": "function"
    },
    {
      "inputs": [
        {
          "internalType": "address",
          "name": "underwriterAddress",
          "type": "address"
        }
      ],
      "name": "getUnderwriterCreditLines",
      "outputs": [
        {
          "internalType": "address[]",
          "name": "",
          "type": "address[]"
        }
      ],
      "stateMutability": "view",
      "type": "function"
    },
    {
      "inputs": [
        {
          "internalType": "bytes32",
          "name": "role",
          "type": "bytes32"
        },
        {
          "internalType": "address",
          "name": "account",
          "type": "address"
        }
      ],
      "name": "grantRole",
      "outputs": [],
      "stateMutability": "nonpayable",
      "type": "function"
    },
    {
      "inputs": [
        {
          "internalType": "bytes32",
          "name": "role",
          "type": "bytes32"
        },
        {
          "internalType": "address",
          "name": "account",
          "type": "address"
        }
      ],
      "name": "hasRole",
      "outputs": [
        {
          "internalType": "bool",
          "name": "",
          "type": "bool"
        }
      ],
      "stateMutability": "view",
      "type": "function"
    },
    {
      "inputs": [
        {
          "internalType": "address",
          "name": "owner",
          "type": "address"
        },
        {
          "internalType": "contract GoldfinchConfig",
          "name": "_config",
          "type": "address"
        }
      ],
      "name": "initialize",
      "outputs": [],
      "stateMutability": "nonpayable",
      "type": "function"
    },
    {
      "inputs": [],
      "name": "isAdmin",
      "outputs": [
        {
          "internalType": "bool",
          "name": "",
          "type": "bool"
        }
      ],
      "stateMutability": "view",
      "type": "function"
    },
    {
      "inputs": [
        {
          "internalType": "contract CreditLine",
          "name": "clToMigrate",
          "type": "address"
        },
        {
          "internalType": "address",
          "name": "borrower",
          "type": "address"
        },
        {
          "internalType": "uint256",
          "name": "limit",
          "type": "uint256"
        },
        {
          "internalType": "uint256",
          "name": "interestApr",
          "type": "uint256"
        },
        {
          "internalType": "uint256",
          "name": "paymentPeriodInDays",
          "type": "uint256"
        },
        {
          "internalType": "uint256",
          "name": "termInDays",
          "type": "uint256"
        },
        {
          "internalType": "uint256",
          "name": "lateFeeApr",
          "type": "uint256"
        }
      ],
      "name": "migrateCreditLine",
      "outputs": [],
      "stateMutability": "nonpayable",
      "type": "function"
    },
    {
      "inputs": [],
      "name": "pause",
      "outputs": [],
      "stateMutability": "nonpayable",
      "type": "function"
    },
    {
      "inputs": [],
      "name": "paused",
      "outputs": [
        {
          "internalType": "bool",
          "name": "",
          "type": "bool"
        }
      ],
      "stateMutability": "view",
      "type": "function"
    },
    {
      "inputs": [
        {
          "internalType": "address",
          "name": "creditLineAddress",
          "type": "address"
        },
        {
          "internalType": "uint256",
          "name": "amount",
          "type": "uint256"
        }
      ],
      "name": "pay",
      "outputs": [],
      "stateMutability": "nonpayable",
      "type": "function"
    },
    {
      "inputs": [
        {
          "internalType": "bytes32",
          "name": "role",
          "type": "bytes32"
        },
        {
          "internalType": "address",
          "name": "account",
          "type": "address"
        }
      ],
      "name": "renounceRole",
      "outputs": [],
      "stateMutability": "nonpayable",
      "type": "function"
    },
    {
      "inputs": [
        {
          "internalType": "bytes32",
          "name": "role",
          "type": "bytes32"
        },
        {
          "internalType": "address",
          "name": "account",
          "type": "address"
        }
      ],
      "name": "revokeRole",
      "outputs": [],
      "stateMutability": "nonpayable",
      "type": "function"
    },
    {
      "inputs": [
        {
          "internalType": "address",
          "name": "underwriterAddress",
          "type": "address"
        },
        {
          "internalType": "uint256",
          "name": "limit",
          "type": "uint256"
        }
      ],
      "name": "setUnderwriterGovernanceLimit",
      "outputs": [],
      "stateMutability": "nonpayable",
      "type": "function"
    },
    {
      "inputs": [],
      "name": "totalLoansOutstanding",
      "outputs": [
        {
          "internalType": "uint256",
          "name": "",
          "type": "uint256"
        }
      ],
      "stateMutability": "view",
      "type": "function"
    },
    {
      "inputs": [],
      "name": "totalWritedowns",
      "outputs": [
        {
          "internalType": "uint256",
          "name": "",
          "type": "uint256"
        }
      ],
      "stateMutability": "view",
      "type": "function"
    },
    {
      "inputs": [
        {
          "internalType": "address",
          "name": "",
          "type": "address"
        }
      ],
      "name": "underwriters",
      "outputs": [
        {
          "internalType": "uint256",
          "name": "governanceLimit",
          "type": "uint256"
        }
      ],
      "stateMutability": "view",
      "type": "function"
    },
    {
      "inputs": [],
      "name": "unpause",
      "outputs": [],
      "stateMutability": "nonpayable",
      "type": "function"
    },
    {
      "inputs": [],
      "name": "updateGoldfinchConfig",
      "outputs": [],
      "stateMutability": "nonpayable",
      "type": "function"
    }
  ],
  "transactionHash": "0xf485032de1455382dbb89d0518da6ed3c691f8e3e8690284aefc897de763588d",
  "args": [],
  "solcInputHash": "e2e6a7937b09ef08f199f5a8536ea2f5",
  "bytecode": "0x608060405234801561001057600080fd5b50614e1a806100206000396000f3fe608060405234801561001057600080fd5b50600436106101fb5760003560e01c8063844a28c31161011a578063b6db75a0116100ad578063d547741f1161007c578063d547741f146103e5578063e58378bb146103f8578063e63ab1e914610400578063ed80c85014610408578063f5c7e0e214610410576101fb565b8063b6db75a0146103a4578063c26ff936146103ac578063c4076876146103bf578063ca15c873146103d2576101fb565b806394a3fcad116100e957806394a3fcad1461036e57806396eea87b14610381578063a217fddf14610394578063a6f4487e1461039c576101fb565b8063844a28c3146103205780638456cb59146103405780639010d07c1461034857806391d148541461035b576101fb565b80634f92a728116101925780636acab9da116101615780636acab9da146102ea5780636bb987fe146102fd57806379502c55146103055780637d5336421461030d576101fb565b80634f92a728146102a5578063526d81f6146102ad5780635c080853146102b55780635c975abb146102d5576101fb565b80632f2ff15d116101ce5780632f2ff15d1461026457806336568abe146102775780633f4ba83a1461028a578063485cc95514610292576101fb565b8063097616a3146102005780630e4645ef14610215578063248a9ca3146102285780632e0c6cfe14610251575b600080fd5b61021361020e36600461411c565b610423565b005b61021361022336600461418c565b61055c565b61023b610236366004614222565b610620565b6040516102489190614483565b60405180910390f35b61021361025f36600461418c565b610638565b61021361027236600461423a565b610753565b61021361028536600461423a565b610797565b6102136107d9565b6102136102a0366004614154565b610819565b6102136108c3565b610213610920565b6102c86102c33660046141b7565b6109ab565b6040516102489190614372565b6102dd610c90565b6040516102489190614478565b6102136102f836600461418c565b610c99565b61023b6111c8565b6102c86111ce565b61023b61031b36600461411c565b6111de565b61033361032e36600461411c565b6111f1565b604051610248919061442b565b61021361126b565b6102c861035636600461425e565b6112a9565b6102dd61036936600461423a565b6112ca565b61023b61037c36600461418c565b6112e2565b61021361038f36600461427f565b61153b565b61023b611f04565b61023b611f09565b6102dd611f10565b6103336103ba36600461411c565b611f31565b6102136103cd36600461418c565b611fa6565b61023b6103e0366004614222565b612037565b6102136103f336600461423a565b61204e565b61023b612088565b61023b61209a565b61023b6120ac565b61021361041e36600461411c565b6120b3565b600054610100900460ff168061043c575061043c612359565b8061044a575060005460ff16155b61046f5760405162461bcd60e51b815260040161046690614aa8565b60405180910390fd5b600054610100900460ff1615801561049a576000805460ff1961ff0019909116610100171660011790555b6001600160a01b0382166104c05760405162461bcd60e51b8152600401610466906148e3565b6104c861235f565b6104d06123e0565b6104d861246c565b6104f0600080516020614da58339815191528361078d565b610508600080516020614dc58339815191528361078d565b61052e600080516020614dc5833981519152600080516020614da58339815191526124fb565b610546600080516020614da5833981519152806124fb565b8015610558576000805461ff00191690555b5050565b610564611f10565b6105805760405162461bcd60e51b815260040161046690614cc4565b60975460ff16156105a35760405162461bcd60e51b8152600401610466906147f0565b6105ac81612510565b6105c85760405162461bcd60e51b815260040161046690614b2d565b6001600160a01b03821660008181526101c6602052604090819020839055517f7be5403eca163f383a39c2d1f65a8fee2c9e41e7e6b150f4abfe16eaaf1d907690610614908490614483565b60405180910390a25050565b6000818152606560205260409020600201545b919050565b60975460ff161561065b5760405162461bcd60e51b8152600401610466906147f0565b6001600160a01b0380831660009081526101c860205260409020548391166106955760405162461bcd60e51b815260040161046690614918565b6000839050336001600160a01b0316816001600160a01b0316637df1f1b96040518163ffffffff1660e01b815260040160206040518083038186803b1580156106dd57600080fd5b505afa1580156106f1573d6000803e3d6000fd5b505050506040513d601f19601f820116820180604052508101906107159190614138565b6001600160a01b03161461073b5760405162461bcd60e51b815260040161046690614945565b61074d818461074861259d565b6125a1565b50505050565b60008281526065602052604090206002015461077190610369612718565b61078d5760405162461bcd60e51b81526004016104669061455e565b610558828261271c565b61079f612718565b6001600160a01b0316816001600160a01b0316146107cf5760405162461bcd60e51b815260040161046690614d0f565b6105588282612785565b6107f3600080516020614dc5833981519152610369612718565b61080f5760405162461bcd60e51b81526004016104669061465c565b6108176127ee565b565b600054610100900460ff16806108325750610832612359565b80610840575060005460ff16155b61085c5760405162461bcd60e51b815260040161046690614aa8565b600054610100900460ff16158015610887576000805460ff1961ff0019909116610100171660011790555b61089083610423565b6101c580546001600160a01b0319166001600160a01b03841617905580156108be576000805461ff00191690555b505050565b6108cb611f10565b6108e75760405162461bcd60e51b815260040161046690614cc4565b6101c5546108fd906001600160a01b031661285a565b6101c580546001600160a01b0319166001600160a01b0392909216919091179055565b600054610100900460ff16806109395750610939612359565b80610947575060005460ff16155b6109635760405162461bcd60e51b815260040161046690614aa8565b600054610100900460ff1615801561098e576000805460ff1961ff0019909116610100171660011790555b6109966123e0565b80156109a8576000805461ff00191690555b50565b60975460009060ff16156109d15760405162461bcd60e51b8152600401610466906147f0565b3360009081526101c6602090815260408083206001600160a01b038b1684526101c7909252909120610a0388836128da565b610a1f5760405162461bcd60e51b81526004016104669061470b565b6000610a29612923565b6001600160a01b03166301b215516040518163ffffffff1660e01b8152600401602060405180830381600087803b158015610a6357600080fd5b505af1158015610a77573d6000803e3d6000fd5b505050506040513d601f19601f82011682018060405250810190610a9b9190614138565b90506000819050806001600160a01b031663df8fa430308d338e8e8e8e8e6040518963ffffffff1660e01b8152600401610adc9897969594939291906143c3565b600060405180830381600087803b158015610af657600080fd5b505af1158015610b0a573d6000803e3d6000fd5b505050506001848101805480830182556000918252602080832090910180546001600160a01b03199081166001600160a01b038881169182179093558854958601895588855283852090950180548216861790558484526101c89092526040808420805490931685179092559051908e16917fc1d7685016f2246662e70fe17df916e959813e9ab93d50c4f039c0c069c5f37191a36101c5546001600160a01b0380831691632f2ff15d91600080516020614da583398151915291610bcf91166129a6565b6040518363ffffffff1660e01b8152600401610bec92919061448c565b600060405180830381600087803b158015610c0657600080fd5b505af1158015610c1a573d6000803e3d6000fd5b50506101c55460405163182cdbe360e11b81526001600160a01b038086169450633059b7c69350610c4f921690600401614372565b600060405180830381600087803b158015610c6957600080fd5b505af1158015610c7d573d6000803e3d6000fd5b50939d9c50505050505050505050505050565b60975460ff1690565b60975460ff1615610cbc5760405162461bcd60e51b8152600401610466906147f0565b6001600160a01b0380831660009081526101c86020526040902054839116610cf65760405162461bcd60e51b815260040161046690614918565b3360009081526101c7602052604090208054849190610d275760405162461bcd60e51b815260040161046690614759565b60008411610d475760405162461bcd60e51b815260040161046690614b8a565b336001600160a01b0316826001600160a01b0316637df1f1b96040518163ffffffff1660e01b815260040160206040518083038186803b158015610d8a57600080fd5b505afa158015610d9e573d6000803e3d6000fd5b505050506040513d601f19601f82011682018060405250810190610dc29190614138565b6001600160a01b031614610de85760405162461bcd60e51b815260040161046690614a12565b610df1846129be565b610e0d5760405162461bcd60e51b81526004016104669061481a565b6000610e18866129d9565b9050610e25858285612a6d565b610e415760405162461bcd60e51b815260040161046690614bf8565b6000836001600160a01b031663b69ef8a86040518163ffffffff1660e01b815260040160206040518083038186803b158015610e7c57600080fd5b505afa158015610e90573d6000803e3d6000fd5b505050506040513d601f19601f82011682018060405250810190610eb49190614337565b905080610f8657836001600160a01b03166352ee365e610ed261259d565b6040518263ffffffff1660e01b8152600401610eee9190614483565b600060405180830381600087803b158015610f0857600080fd5b505af1158015610f1c573d6000803e3d6000fd5b50505050836001600160a01b03166351bc4953610f3761259d565b6040518263ffffffff1660e01b8152600401610f539190614483565b600060405180830381600087803b158015610f6d57600080fd5b505af1158015610f81573d6000803e3d6000fd5b505050505b6101c554600090610f9f906001600160a01b0316612b31565b90506000831561106f5783881115610fc4575082610fbd8882612b3c565b9750610fc9565b506000965b6040516323b872dd60e01b81526000906001600160a01b038416906323b872dd90610ffc908d9033908790600401614386565b602060405180830381600087803b15801561101657600080fd5b505af115801561102a573d6000803e3d6000fd5b505050506040513d601f19601f8201168201806040525081019061104e9190614202565b90508061106d5760405162461bcd60e51b8152600401610466906146df565b505b6000806110838861107e61259d565b612b7e565b9092509050611092858b612d26565b94506110a088868484612d4b565b6110a98861315f565b156110c65760405162461bcd60e51b8152600401610466906145db565b6001600160a01b038816337f7ec4669c579321a5cf5a6b525637eb0924a93e2e11eab9d14be8b44de1116b1b6110fc8d87612d26565b6040516111099190614483565b60405180910390a389156111bb576040516335655ced60e11b81526000906001600160a01b03861690636acab9da906111489033908f906004016143aa565b602060405180830381600087803b15801561116257600080fd5b505af1158015611176573d6000803e3d6000fd5b505050506040513d601f19601f8201168201806040525081019061119a9190614202565b9050806111b95760405162461bcd60e51b8152600401610466906146df565b505b5050505050505050505050565b61168081565b6101c5546001600160a01b031681565b6101c66020526000908152604090205481565b6001600160a01b03811660009081526101c6602090815260409182902060010180548351818402810184019094528084526060939283018282801561125f57602002820191906000526020600020905b81546001600160a01b03168152600190910190602001808311611241575b50505050509050919050565b611285600080516020614dc5833981519152610369612718565b6112a15760405162461bcd60e51b81526004016104669061465c565b610817613226565b60008281526065602052604081206112c1908361327f565b90505b92915050565b60008281526065602052604081206112c1908361328b565b6001600160a01b0380831660009081526101c86020526040812054909184911661131e5760405162461bcd60e51b815260040161046690614918565b8261132e5761132b61259d565b92505b6000849050806001600160a01b031663500b245e6040518163ffffffff1660e01b815260040160206040518083038186803b15801561136c57600080fd5b505afa158015611380573d6000803e3d6000fd5b505050506040513d601f19601f820116820180604052508101906113a49190614337565b841080156113b857506113b68161315f565b155b156113c7576000925050611534565b6101c5546000908190734d092fB6d2E5bb87Fae258c34959a618163b36359063101c84309085908990611402906001600160a01b03166132a0565b6040518463ffffffff1660e01b81526004016114209392919061440a565b604080518083038186803b15801561143757600080fd5b505af415801561144b573d6000803e3d6000fd5b505050506040513d601f19601f8201168201806040525081019061146f919061434f565b9150915061152e6114f182856001600160a01b031663193501146040518163ffffffff1660e01b815260040160206040518083038186803b1580156114b357600080fd5b505afa1580156114c7573d6000803e3d6000fd5b505050506040513d601f19601f820116820180604052508101906114eb9190614337565b90612d26565b6114eb84866001600160a01b03166321856b366040518163ffffffff1660e01b815260040160206040518083038186803b1580156114b357600080fd5b94505050505b5092915050565b336001600160a01b0316876001600160a01b031663f00db2606040518163ffffffff1660e01b815260040160206040518083038186803b15801561157e57600080fd5b505afa158015611592573d6000803e3d6000fd5b505050506040513d601f19601f820116820180604052508101906115b69190614138565b6001600160a01b0316146115dc5760405162461bcd60e51b815260040161046690614bc1565b6000876001600160a01b031663a4d66daf6040518163ffffffff1660e01b815260040160206040518083038186803b15801561161757600080fd5b505afa15801561162b573d6000803e3d6000fd5b505050506040513d601f19601f8201168201806040525081019061164f9190614337565b1161166c5760405162461bcd60e51b8152600401610466906148ac565b600061167c8787878787876109ab565b90506000819050806001600160a01b031663fb1669ca8a6001600160a01b031663b69ef8a86040518163ffffffff1660e01b815260040160206040518083038186803b1580156116cb57600080fd5b505afa1580156116df573d6000803e3d6000fd5b505050506040513d601f19601f820116820180604052508101906117039190614337565b6040518263ffffffff1660e01b815260040161171f9190614483565b600060405180830381600087803b15801561173957600080fd5b505af115801561174d573d6000803e3d6000fd5b50505050806001600160a01b03166396c8df378a6001600160a01b03166321856b366040518163ffffffff1660e01b815260040160206040518083038186803b15801561179957600080fd5b505afa1580156117ad573d6000803e3d6000fd5b505050506040513d601f19601f820116820180604052508101906117d19190614337565b6040518263ffffffff1660e01b81526004016117ed9190614483565b600060405180830381600087803b15801561180757600080fd5b505af115801561181b573d6000803e3d6000fd5b50505050806001600160a01b031663b3b8a9c78a6001600160a01b031663193501146040518163ffffffff1660e01b815260040160206040518083038186803b15801561186757600080fd5b505afa15801561187b573d6000803e3d6000fd5b505050506040513d601f19601f8201168201806040525081019061189f9190614337565b6040518263ffffffff1660e01b81526004016118bb9190614483565b600060405180830381600087803b1580156118d557600080fd5b505af11580156118e9573d6000803e3d6000fd5b50505050806001600160a01b031663fb9eb9908a6001600160a01b0316631790ebd56040518163ffffffff1660e01b815260040160206040518083038186803b15801561193557600080fd5b505afa158015611949573d6000803e3d6000fd5b505050506040513d601f19601f8201168201806040525081019061196d9190614337565b6040518263ffffffff1660e01b81526004016119899190614483565b600060405180830381600087803b1580156119a357600080fd5b505af11580156119b7573d6000803e3d6000fd5b50505050806001600160a01b0316637957dda38a6001600160a01b031663500b245e6040518163ffffffff1660e01b815260040160206040518083038186803b158015611a0357600080fd5b505afa158015611a17573d6000803e3d6000fd5b505050506040513d601f19601f82011682018060405250810190611a3b9190614337565b6040518263ffffffff1660e01b8152600401611a579190614483565b600060405180830381600087803b158015611a7157600080fd5b505af1158015611a85573d6000803e3d6000fd5b50505050806001600160a01b03166352ee365e8a6001600160a01b031663408862d96040518163ffffffff1660e01b815260040160206040518083038186803b158015611ad157600080fd5b505afa158015611ae5573d6000803e3d6000fd5b505050506040513d601f19601f82011682018060405250810190611b099190614337565b6040518263ffffffff1660e01b8152600401611b259190614483565b600060405180830381600087803b158015611b3f57600080fd5b505af1158015611b53573d6000803e3d6000fd5b50505050806001600160a01b0316632771eca88a6001600160a01b031663cc862de56040518163ffffffff1660e01b815260040160206040518083038186803b158015611b9f57600080fd5b505afa158015611bb3573d6000803e3d6000fd5b505050506040513d601f19601f82011682018060405250810190611bd79190614337565b6040518263ffffffff1660e01b8152600401611bf39190614483565b600060405180830381600087803b158015611c0d57600080fd5b505af1158015611c21573d6000803e3d6000fd5b50505050806001600160a01b03166351bc49538a6001600160a01b031663bfe976a96040518163ffffffff1660e01b815260040160206040518083038186803b158015611c6d57600080fd5b505afa158015611c81573d6000803e3d6000fd5b505050506040513d601f19601f82011682018060405250810190611ca59190614337565b6040518263ffffffff1660e01b8152600401611cc19190614483565b600060405180830381600087803b158015611cdb57600080fd5b505af1158015611cef573d6000803e3d6000fd5b50506040516327ea6f2b60e01b81526001600160a01b038c1692506327ea6f2b9150611d2090600090600401614483565b600060405180830381600087803b158015611d3a57600080fd5b505af1158015611d4e573d6000803e3d6000fd5b5050604051637d8b34e560e11b81526001600160a01b038c16925063fb1669ca9150611d7f90600090600401614483565b600060405180830381600087803b158015611d9957600080fd5b505af1158015611dad573d6000803e3d6000fd5b50506101c55460009250611dca91506001600160a01b0316612b31565b6101c5546001600160a01b03918216916323b872dd918d918691611dee91166132d0565b6001600160a01b03166370a082318f6040518263ffffffff1660e01b8152600401611e199190614372565b60206040518083038186803b158015611e3157600080fd5b505afa158015611e45573d6000803e3d6000fd5b505050506040513d601f19601f82011682018060405250810190611e699190614337565b6040518463ffffffff1660e01b8152600401611e8793929190614386565b602060405180830381600087803b158015611ea157600080fd5b505af1158015611eb5573d6000803e3d6000fd5b505050506040513d601f19601f82011682018060405250810190611ed99190614202565b905080611ef85760405162461bcd60e51b815260040161046690614625565b50505050505050505050565b600081565b6101c35481565b6000611f2c600080516020614da5833981519152610369612718565b905090565b6001600160a01b03811660009081526101c7602090815260409182902080548351818402810184019094528084526060939283018282801561125f576020028201919060005260206000209081546001600160a01b031681526001909101906020018083116112415750505050509050919050565b60975460ff1615611fc95760405162461bcd60e51b8152600401610466906147f0565b6001600160a01b0380831660009081526101c860205260409020548391166120035760405162461bcd60e51b815260040161046690614918565b600082116120235760405162461bcd60e51b815260040161046690614c56565b8261202e81846132db565b61074d846120b3565b60008181526065602052604081206112c490613404565b60008281526065602052604090206002015461206c90610369612718565b6107cf5760405162461bcd60e51b8152600401610466906147a0565b600080516020614da583398151915281565b600080516020614dc583398151915281565b6101c45481565b60975460ff16156120d65760405162461bcd60e51b8152600401610466906147f0565b6001600160a01b0380821660009081526101c860205260409020548291166121105760405162461bcd60e51b815260040161046690614918565b60008290506000816001600160a01b031663b69ef8a86040518163ffffffff1660e01b815260040160206040518083038186803b15801561215057600080fd5b505afa158015612164573d6000803e3d6000fd5b505050506040513d601f19601f820116820180604052508101906121889190614337565b116121a55760405162461bcd60e51b81526004016104669061498a565b806001600160a01b031663500b245e6040518163ffffffff1660e01b815260040160206040518083038186803b1580156121de57600080fd5b505afa1580156121f2573d6000803e3d6000fd5b505050506040513d601f19601f820116820180604052508101906122169190614337565b61221e61259d565b108015612231575061222f8161315f565b155b1561223c5750610558565b60006122478261340f565b604051637957dda360e01b81529091506001600160a01b03831690637957dda390612276908490600401614483565b600060405180830381600087803b15801561229057600080fd5b505af11580156122a4573d6000803e3d6000fd5b505050506122b061259d565b811115612346576000612336611680846001600160a01b03166399dd8df36040518163ffffffff1660e01b815260040160206040518083038186803b1580156122f857600080fd5b505afa15801561230c573d6000803e3d6000fd5b505050506040513d601f19601f820116820180604052508101906123309190614337565b9061368f565b90506123428282612b3c565b9150505b61074d82612353846129d9565b836125a1565b303b1590565b600054610100900460ff16806123785750612378612359565b80612386575060005460ff16155b6123a25760405162461bcd60e51b815260040161046690614aa8565b600054610100900460ff16158015610996576000805460ff1961ff00199091166101001716600117905580156109a8576000805461ff001916905550565b600054610100900460ff16806123f957506123f9612359565b80612407575060005460ff16155b6124235760405162461bcd60e51b815260040161046690614aa8565b600054610100900460ff1615801561244e576000805460ff1961ff0019909116610100171660011790555b6097805460ff1916905580156109a8576000805461ff001916905550565b600054610100900460ff16806124855750612485612359565b80612493575060005460ff16155b6124af5760405162461bcd60e51b815260040161046690614aa8565b600054610100900460ff161580156124da576000805460ff1961ff0019909116610100171660011790555b60c9805460ff1916600117905580156109a8576000805461ff001916905550565b60009182526065602052604090912060020155565b6101c5546000906001600160a01b031663fc56365860025b6040518263ffffffff1660e01b81526004016125449190614483565b60206040518083038186803b15801561255c57600080fd5b505afa158015612570573d6000803e3d6000fd5b505050506040513d601f19601f820116820180604052508101906125949190614337565b90911115919050565b4390565b60008060006125b18686866136c9565b6101c55492955090935091506000906125d2906001600160a01b0316612b31565b90506125de8782613944565b60008311806125ed5750600082115b1561270f57866001600160a01b0316876001600160a01b0316637df1f1b96040518163ffffffff1660e01b815260040160206040518083038186803b15801561263557600080fd5b505afa158015612649573d6000803e3d6000fd5b505050506040513d601f19601f8201168201806040525081019061266d9190614138565b6001600160a01b03167f724fe786cff62c97ff230e98a332f95c5a11990e44123a00c2b8e76b0566e4118585886040516126a993929190614d5e565b60405180910390a36040516371bb0bab60e01b81526001600160a01b038216906371bb0bab906126e1908a908790879060040161440a565b600060405180830381600087803b1580156126fb57600080fd5b505af11580156111bb573d6000803e3d6000fd5b50505050505050565b3390565b60008281526065602052604090206127349082613c05565b1561055857612741612718565b6001600160a01b0316816001600160a01b0316837f2f8788117e7eff1d82e926ec794901d17c78024a50270940304540a733656f0d60405160405180910390a45050565b600082815260656020526040902061279d9082613c1a565b15610558576127aa612718565b6001600160a01b0316816001600160a01b0316837ff6391f5c32d9c69d2a47ea670b442974b53935d1edc7fd64eb21e047a839171b60405160405180910390a45050565b60975460ff166128105760405162461bcd60e51b8152600401610466906145ad565b6097805460ff191690557f5db9ee0a495bf2e6ff9c91a7834c1ba4fdd244a5e8aa4e537bd38aeae4b073aa612843612718565b6040516128509190614372565b60405180910390a1565b60006001600160a01b03821663b93f9b0a600b5b6040518263ffffffff1660e01b815260040161288a9190614483565b60206040518083038186803b1580156128a257600080fd5b505afa1580156128b6573d6000803e3d6000fd5b505050506040513d601f19601f820116820180604052508101906112c49190614138565b8054600090806128fc5760405162461bcd60e51b815260040161046690614862565b600061290784613c2f565b905060006129158287612d26565b929092111595945050505050565b6101c554604051635c9fcd8560e11b81526000916001600160a01b03169063b93f9b0a9061295690600290600401614483565b60206040518083038186803b15801561296e57600080fd5b505afa158015612982573d6000803e3d6000fd5b505050506040513d601f19601f82011682018060405250810190611f2c9190614138565b60006001600160a01b03821663b93f9b0a600761286e565b6101c5546000906001600160a01b031663fc56365882612528565b6101c5546000906129f2906001600160a01b03166132d0565b6001600160a01b03166370a08231836040518263ffffffff1660e01b8152600401612a1d9190614372565b60206040518083038186803b158015612a3557600080fd5b505afa158015612a49573d6000803e3d6000fd5b505050506040513d601f19601f820116820180604052508101906112c49190614337565b6000816001600160a01b031663a4d66daf6040518163ffffffff1660e01b815260040160206040518083038186803b158015612aa857600080fd5b505afa158015612abc573d6000803e3d6000fd5b505050506040513d601f19601f82011682018060405250810190612ae09190614337565b612b2784612b2187866001600160a01b031663b69ef8a86040518163ffffffff1660e01b815260040160206040518083038186803b1580156114b357600080fd5b90612b3c565b1115949350505050565b60006112c482613d03565b60006112c183836040518060400160405280601e81526020017f536166654d6174683a207375627472616374696f6e206f766572666c6f770000815250613d1a565b600080600080734d092fB6d2E5bb87Fae258c34959a618163b363563101c84308787612bc86101c560009054906101000a90046001600160a01b03166001600160a01b03166132a0565b6040518463ffffffff1660e01b8152600401612be69392919061440a565b604080518083038186803b158015612bfd57600080fd5b505af4158015612c11573d6000803e3d6000fd5b505050506040513d601f19601f82011682018060405250810190612c35919061434f565b90925090508115612c9f576040516329771b2f60e11b81526001600160a01b038716906352ee365e90612c6c908890600401614483565b600060405180830381600087803b158015612c8657600080fd5b505af1158015612c9a573d6000803e3d6000fd5b505050505b612cdc82876001600160a01b03166321856b366040518163ffffffff1660e01b815260040160206040518083038186803b1580156114b357600080fd5b612d1982886001600160a01b031663193501146040518163ffffffff1660e01b815260040160206040518083038186803b1580156114b357600080fd5b9350935050509250929050565b6000828201838110156112c15760405162461bcd60e51b8152600401610466906146a8565b60c95460ff16612d6d5760405162461bcd60e51b815260040161046690614c8d565b60c9805460ff19169055604080516316d3df1560e31b81529051612dfe916001600160a01b0387169163b69ef8a891600480820192602092909190829003018186803b158015612dbc57600080fd5b505afa158015612dd0573d6000803e3d6000fd5b505050506040513d601f19601f82011682018060405250810190612df49190614337565b6101c45490612b3c565b6101c455604051637d8b34e560e11b81526001600160a01b0385169063fb1669ca90612e2e908690600401614483565b600060405180830381600087803b158015612e4857600080fd5b505af1158015612e5c573d6000803e3d6000fd5b50506040516396c8df3760e01b81526001600160a01b03871692506396c8df379150612e8c908590600401614483565b600060405180830381600087803b158015612ea657600080fd5b505af1158015612eba573d6000803e3d6000fd5b505060405163b3b8a9c760e01b81526001600160a01b038716925063b3b8a9c79150612eea908490600401614483565b600060405180830381600087803b158015612f0457600080fd5b505af1158015612f18573d6000803e3d6000fd5b505050506000846001600160a01b031663500b245e6040518163ffffffff1660e01b815260040160206040518083038186803b158015612f5757600080fd5b505afa158015612f6b573d6000803e3d6000fd5b505050506040513d601f19601f82011682018060405250810190612f8f9190614337565b905082158015612f9e57508015155b1561306c57600081612fae61259d565b1015613009576000612ff5611680886001600160a01b03166399dd8df36040518163ffffffff1660e01b815260040160206040518083038186803b1580156122f857600080fd5b90506130018382612b3c565b91505061300c565b50805b6040516351bc495360e01b81526001600160a01b038716906351bc495390613038908490600401614483565b600060405180830381600087803b15801561305257600080fd5b505af1158015613066573d6000803e3d6000fd5b50505050505b6101c45461307a9085612d26565b6101c4556001600160a01b03851663fb9eb9906130978787613d46565b6040518263ffffffff1660e01b81526004016130b39190614483565b600060405180830381600087803b1580156130cd57600080fd5b505af11580156130e1573d6000803e3d6000fd5b50505050846001600160a01b0316637957dda36130fd8761340f565b6040518263ffffffff1660e01b81526004016131199190614483565b600060405180830381600087803b15801561313357600080fd5b505af1158015613147573d6000803e3d6000fd5b505060c9805460ff1916600117905550505050505050565b6000806131de836001600160a01b031663bfe976a96040518163ffffffff1660e01b815260040160206040518083038186803b15801561319e57600080fd5b505afa1580156131b2573d6000803e3d6000fd5b505050506040513d601f19601f820116820180604052508101906131d69190614337565b612b2161259d565b905061321f611680846001600160a01b03166399dd8df36040518163ffffffff1660e01b815260040160206040518083038186803b1580156122f857600080fd5b1092915050565b60975460ff16156132495760405162461bcd60e51b8152600401610466906147f0565b6097805460ff191660011790557f62e78cea01bee320cd4e420270b5ea74000d11b0c9f74754ebdbfc544b05a258612843612718565b60006112c18383613ecb565b60006112c1836001600160a01b038416613f10565b60006001600160a01b03821663fc56365860055b6040518263ffffffff1660e01b8152600401612a1d9190614483565b60006112c482613f28565b6132e4816129be565b6133005760405162461bcd60e51b81526004016104669061481a565b816001600160a01b0316336001600160a01b03167fc4036209c61f1d5aad789d2b8fa9ca23bf8b1516748d2e0be7227bf3fce67d2d836040516133439190614483565b60405180910390a36101c554600090613364906001600160a01b0316612b31565b6001600160a01b03166323b872dd3385856040518463ffffffff1660e01b815260040161339393929190614386565b602060405180830381600087803b1580156133ad57600080fd5b505af11580156133c1573d6000803e3d6000fd5b505050506040513d601f19601f820116820180604052508101906133e59190614202565b9050806108be5760405162461bcd60e51b815260040161046690614af6565b60006112c482613f40565b600080613451611680846001600160a01b03166399dd8df36040518163ffffffff1660e01b815260040160206040518083038186803b1580156122f857600080fd5b90506000836001600160a01b031663b69ef8a86040518163ffffffff1660e01b815260040160206040518083038186803b15801561348e57600080fd5b505afa1580156134a2573d6000803e3d6000fd5b505050506040513d601f19601f820116820180604052508101906134c69190614337565b90506000846001600160a01b031663500b245e6040518163ffffffff1660e01b815260040160206040518083038186803b15801561350357600080fd5b505afa158015613517573d6000803e3d6000fd5b505050506040513d601f19601f8201168201806040525081019061353b9190614337565b9050600061354761259d565b9050811580156135575750600083115b15613571576135668185612d26565b945050505050610633565b6000831180156135815750818110155b156136395760006135a58561233060016114eb8361359f888a612b3c565b90613f44565b90506135b18382612d26565b925061362d83886001600160a01b0316631790ebd56040518163ffffffff1660e01b815260040160206040518083038186803b1580156135f057600080fd5b505afa158015613604573d6000803e3d6000fd5b505050506040513d601f19601f820116820180604052508101906136289190614337565b613f86565b95505050505050610633565b8215801561364657508115155b15613658576000945050505050610633565b60008311801561366757508181105b1561367757509250610633915050565b60405162461bcd60e51b815260040161046690614a5e565b60008261369e575060006112c4565b828202828482816136ab57fe5b04146112c15760405162461bcd60e51b8152600401610466906149d1565b60008060008060006136db8887612b7e565b915091506136e76140fb565b734d092fB6d2E5bb87Fae258c34959a618163b363563d7cc2a03898b6001600160a01b031663b69ef8a86040518163ffffffff1660e01b815260040160206040518083038186803b15801561373b57600080fd5b505afa15801561374f573d6000803e3d6000fd5b505050506040513d601f19601f820116820180604052508101906137739190614337565b86866040518563ffffffff1660e01b81526004016137949493929190614d74565b60606040518083038186803b1580156137ac57600080fd5b505af41580156137c0573d6000803e3d6000fd5b505050506040513d601f19601f820116820180604052508101906137e491906142e0565b9050600061386182602001518b6001600160a01b031663b69ef8a86040518163ffffffff1660e01b815260040160206040518083038186803b15801561382957600080fd5b505afa15801561383d573d6000803e3d6000fd5b505050506040513d601f19601f82011682018060405250810190612b219190614337565b905061387a826040015182612b3c90919063ffffffff16565b905060006138bb828c6001600160a01b031663b69ef8a86040518163ffffffff1660e01b815260040160206040518083038186803b15801561382957600080fd5b905060006138da82612b2186600001518e612b3c90919063ffffffff16565b905061390d8c846138f887600001518a612b3c90919063ffffffff16565b6020880151613908908a90612b3c565b612d4b565b8a613929836114eb876000015185612d2690919063ffffffff16565b1461393057fe5b9251929b929a509850909650505050505050565b600080734d092fB6d2E5bb87Fae258c34959a618163b363563ca5735688561396a61259d565b6101c554613980906001600160a01b03166132a0565b6101c554613996906001600160a01b0316613f9c565b6040518563ffffffff1660e01b81526004016139b594939291906144a3565b604080518083038186803b1580156139cc57600080fd5b505af41580156139e0573d6000803e3d6000fd5b505050506040513d601f19601f82011682018060405250810190613a04919061434f565b91509150816000148015613a865750836001600160a01b031663cc862de56040518163ffffffff1660e01b815260040160206040518083038186803b158015613a4c57600080fd5b505afa158015613a60573d6000803e3d6000fd5b505050506040513d601f19601f82011682018060405250810190613a849190614337565b155b15613a92575050610558565b600081856001600160a01b031663cc862de56040518163ffffffff1660e01b815260040160206040518083038186803b158015613ace57600080fd5b505afa158015613ae2573d6000803e3d6000fd5b505050506040513d601f19601f82011682018060405250810190613b069190614337565b039050846001600160a01b0316632771eca8836040518263ffffffff1660e01b8152600401613b359190614483565b600060405180830381600087803b158015613b4f57600080fd5b505af1158015613b63573d6000803e3d6000fd5b505050506000811315613b87576101c354613b7e9082612b3c565b6101c355613b9e565b6101c354613b99906000839003612d26565b6101c3555b604051630ce1d12f60e21b81526001600160a01b0385169063338744bc90613bcc90889085906004016143aa565b600060405180830381600087803b158015613be657600080fd5b505af1158015613bfa573d6000803e3d6000fd5b505050505050505050565b60006112c1836001600160a01b038416613fb4565b60006112c1836001600160a01b038416613ffe565b60018101546000908190815b81811015613cfa576000856001018281548110613c5457fe5b9060005260206000200160009054906101000a90046001600160a01b03169050613cef816001600160a01b031663a4d66daf6040518163ffffffff1660e01b815260040160206040518083038186803b158015613cb057600080fd5b505afa158015613cc4573d6000803e3d6000fd5b505050506040513d601f19601f82011682018060405250810190613ce89190614337565b8590612d26565b935050600101613c3b565b50909392505050565b60006001600160a01b03821663b93f9b0a8261286e565b60008184841115613d3e5760405162461bcd60e51b815260040161046691906144c9565b505050900390565b600081613d55575060006112c4565b826001600160a01b0316631790ebd56040518163ffffffff1660e01b815260040160206040518083038186803b158015613d8e57600080fd5b505afa158015613da2573d6000803e3d6000fd5b505050506040513d601f19601f82011682018060405250810190613dc69190614337565b15613e4357826001600160a01b0316631790ebd56040518163ffffffff1660e01b815260040160206040518083038186803b158015613e0457600080fd5b505afa158015613e18573d6000803e3d6000fd5b505050506040513d601f19601f82011682018060405250810190613e3c9190614337565b90506112c4565b6112c1613ec3846001600160a01b03166348e6f2966040518163ffffffff1660e01b815260040160206040518083038186803b158015613e8257600080fd5b505afa158015613e96573d6000803e3d6000fd5b505050506040513d601f19601f82011682018060405250810190613eba9190614337565b6116809061368f565b6114eb61259d565b81546000908210613eee5760405162461bcd60e51b81526004016104669061451c565b826000018281548110613efd57fe5b9060005260206000200154905092915050565b60009081526001919091016020526040902054151590565b60006001600160a01b03821663b93f9b0a600561286e565b5490565b60006112c183836040518060400160405280601a81526020017f536166654d6174683a206469766973696f6e206279207a65726f0000000000008152506140c4565b6000818310613f9557816112c1565b5090919050565b60006001600160a01b03821663fc56365860066132b4565b6000613fc08383613f10565b613ff6575081546001818101845560008481526020808220909301849055845484825282860190935260409020919091556112c4565b5060006112c4565b600081815260018301602052604081205480156140ba578354600019808301919081019060009087908390811061403157fe5b906000526020600020015490508087600001848154811061404e57fe5b60009182526020808320909101929092558281526001898101909252604090209084019055865487908061407e57fe5b600190038181906000526020600020016000905590558660010160008781526020019081526020016000206000905560019450505050506112c4565b60009150506112c4565b600081836140e55760405162461bcd60e51b815260040161046691906144c9565b5060008385816140f157fe5b0495945050505050565b60405180606001604052806000815260200160008152602001600081525090565b60006020828403121561412d578081fd5b81356112c181614d8f565b600060208284031215614149578081fd5b81516112c181614d8f565b60008060408385031215614166578081fd5b823561417181614d8f565b9150602083013561418181614d8f565b809150509250929050565b6000806040838503121561419e578182fd5b82356141a981614d8f565b946020939093013593505050565b60008060008060008060c087890312156141cf578182fd5b86356141da81614d8f565b9860208801359850604088013597606081013597506080810135965060a00135945092505050565b600060208284031215614213578081fd5b815180151581146112c1578182fd5b600060208284031215614233578081fd5b5035919050565b6000806040838503121561424c578182fd5b82359150602083013561418181614d8f565b60008060408385031215614270578182fd5b50508035926020909101359150565b600080600080600080600060e0888a031215614299578081fd5b87356142a481614d8f565b965060208801356142b481614d8f565b96999698505050506040850135946060810135946080820135945060a0820135935060c0909101359150565b6000606082840312156142f1578081fd5b6040516060810181811067ffffffffffffffff82111715614310578283fd5b80604052508251815260208301516020820152604083015160408201528091505092915050565b600060208284031215614348578081fd5b5051919050565b60008060408385031215614361578081fd5b505080516020909101519092909150565b6001600160a01b0391909116815260200190565b6001600160a01b039384168152919092166020820152604081019190915260600190565b6001600160a01b03929092168252602082015260400190565b6001600160a01b03988916815296881660208801529490961660408601526060850192909252608084015260a083015260c082019290925260e08101919091526101000190565b6001600160a01b039390931683526020830191909152604082015260600190565b6020808252825182820181905260009190848201906040850190845b8181101561446c5783516001600160a01b031683529284019291840191600101614447565b50909695505050505050565b901515815260200190565b90815260200190565b9182526001600160a01b0316602082015260400190565b6001600160a01b0394909416845260208401929092526040830152606082015260800190565b6000602080835283518082850152825b818110156144f5578581018301518582016040015282016144d9565b818111156145065783604083870101525b50601f01601f1916929092016040019392505050565b60208082526022908201527f456e756d657261626c655365743a20696e646578206f7574206f6620626f756e604082015261647360f01b606082015260800190565b6020808252602f908201527f416363657373436f6e74726f6c3a2073656e646572206d75737420626520616e60408201526e0818591b5a5b881d1bc819dc985b9d608a1b606082015260800190565b60208082526014908201527314185d5cd8589b194e881b9bdd081c185d5cd95960621b604082015260600190565b6020808252602a908201527f43616e6e6f742064726177646f776e207768656e207061796d656e74732061726040820152696520706173742064756560b01b606082015260800190565b60208082526018908201527f4661696c656420746f207472616e736665722066756e64730000000000000000604082015260600190565b6020808252602c908201527f4d75737420686176652070617573657220726f6c6520746f20706572666f726d60408201526b103a3434b99030b1ba34b7b760a11b606082015260800190565b6020808252601b908201527f536166654d6174683a206164646974696f6e206f766572666c6f770000000000604082015260600190565b6020808252601290820152712330b4b632b2103a3790323930bbb237bbb760711b604082015260600190565b6020808252602e908201527f54686520756e6465727772697465722063616e6e6f742063726561746520746860408201526d697320637265646974206c696e6560901b606082015260800190565b60208082526027908201527f4e6f20637265646974206c696e657320657869737420666f722074686973206260408201526637b93937bbb2b960c91b606082015260800190565b60208082526030908201527f416363657373436f6e74726f6c3a2073656e646572206d75737420626520616e60408201526f2061646d696e20746f207265766f6b6560801b606082015260800190565b60208082526010908201526f14185d5cd8589b194e881c185d5cd95960821b604082015260600190565b60208082526028908201527f416d6f756e74206973206f76657220746865207065722d7472616e73616374696040820152671bdb881b1a5b5a5d60c21b606082015260800190565b6020808252602a908201527f756e64657277726974657220646f6573206e6f74206861766520676f7665726e604082015269185b98d9481b1a5b5a5d60b21b606082015260800190565b6020808252601f908201527f43616e2774206d69677261746520656d70747920637265646974206c696e6500604082015260600190565b6020808252818101527f4f776e65722063616e6e6f7420626520746865207a65726f2061646472657373604082015260600190565b602080825260139082015272556e6b6e6f776e20637265646974206c696e6560681b604082015260600190565b60208082526025908201527f596f7520646f206e6f742062656c6f6e6720746f207468697320637265646974604082015264206c696e6560d81b606082015260800190565b60208082526027908201527f4d75737420686176652062616c616e636520746f2061737365737320637265646040820152666974206c696e6560c81b606082015260800190565b60208082526021908201527f536166654d6174683a206d756c7469706c69636174696f6e206f766572666c6f6040820152607760f81b606082015260800190565b6020808252602c908201527f596f7520617265206e6f742074686520626f72726f776572206f66207468697360408201526b20637265646974206c696e6560a01b606082015260800190565b6020808252602a908201527f4572726f723a20636f756c64206e6f742063616c63756c617465206e65787420604082015269323ab290313637b1b59760b11b606082015260800190565b6020808252602e908201527f436f6e747261637420696e7374616e63652068617320616c726561647920626560408201526d195b881a5b9a5d1a585b1a5e995960921b606082015260800190565b60208082526019908201527f4661696c656420746f20636f6c6c656374207061796d656e7400000000000000604082015260600190565b6020808252603a908201527f54686973206c696d69742069732067726561746572207468616e20746865206d60408201527f617820616c6c6f776564206279207468652070726f746f636f6c000000000000606082015260800190565b6020808252601c908201527f4d7573742064726177646f776e206d6f7265207468616e207a65726f00000000604082015260600190565b6020808252601e908201527f43616c6c6572206d7573742062652074686520756e6465727772697465720000604082015260600190565b602080825260409082018190527f54686520626f72726f77657220646f6573206e6f74206861766520656e6f7567908201527f6820637265646974206c696d697420666f7220746869732064726177646f776e606082015260800190565b60208082526017908201527f4d75737420706179206d6f7265207468616e207a65726f000000000000000000604082015260600190565b6020808252601f908201527f5265656e7472616e637947756172643a207265656e7472616e742063616c6c00604082015260600190565b6020808252602b908201527f4d75737420686176652061646d696e20726f6c6520746f20706572666f726d2060408201526a3a3434b99030b1ba34b7b760a91b606082015260800190565b6020808252602f908201527f416363657373436f6e74726f6c3a2063616e206f6e6c792072656e6f756e636560408201526e103937b632b9903337b91039b2b63360891b606082015260800190565b9283526020830191909152604082015260600190565b93845260208401929092526040830152606082015260800190565b6001600160a01b03811681146109a857600080fdfeb19546dff01e856fb3f010c267a7b1c60363cf8a4664e21cc89c26224620214e65d7a28e3265b37a6474929f336521b332c1681b933f6cb9f3376673440d862aa2646970667358221220892596e45a61c9d88bb3e0b0780da6180ee53c87cc9f1fca2b64b3e8fef4960664736f6c634300060c0033",
  "deployedBytecode": "0x608060405234801561001057600080fd5b50600436106101fb5760003560e01c8063844a28c31161011a578063b6db75a0116100ad578063d547741f1161007c578063d547741f146103e5578063e58378bb146103f8578063e63ab1e914610400578063ed80c85014610408578063f5c7e0e214610410576101fb565b8063b6db75a0146103a4578063c26ff936146103ac578063c4076876146103bf578063ca15c873146103d2576101fb565b806394a3fcad116100e957806394a3fcad1461036e57806396eea87b14610381578063a217fddf14610394578063a6f4487e1461039c576101fb565b8063844a28c3146103205780638456cb59146103405780639010d07c1461034857806391d148541461035b576101fb565b80634f92a728116101925780636acab9da116101615780636acab9da146102ea5780636bb987fe146102fd57806379502c55146103055780637d5336421461030d576101fb565b80634f92a728146102a5578063526d81f6146102ad5780635c080853146102b55780635c975abb146102d5576101fb565b80632f2ff15d116101ce5780632f2ff15d1461026457806336568abe146102775780633f4ba83a1461028a578063485cc95514610292576101fb565b8063097616a3146102005780630e4645ef14610215578063248a9ca3146102285780632e0c6cfe14610251575b600080fd5b61021361020e36600461411c565b610423565b005b61021361022336600461418c565b61055c565b61023b610236366004614222565b610620565b6040516102489190614483565b60405180910390f35b61021361025f36600461418c565b610638565b61021361027236600461423a565b610753565b61021361028536600461423a565b610797565b6102136107d9565b6102136102a0366004614154565b610819565b6102136108c3565b610213610920565b6102c86102c33660046141b7565b6109ab565b6040516102489190614372565b6102dd610c90565b6040516102489190614478565b6102136102f836600461418c565b610c99565b61023b6111c8565b6102c86111ce565b61023b61031b36600461411c565b6111de565b61033361032e36600461411c565b6111f1565b604051610248919061442b565b61021361126b565b6102c861035636600461425e565b6112a9565b6102dd61036936600461423a565b6112ca565b61023b61037c36600461418c565b6112e2565b61021361038f36600461427f565b61153b565b61023b611f04565b61023b611f09565b6102dd611f10565b6103336103ba36600461411c565b611f31565b6102136103cd36600461418c565b611fa6565b61023b6103e0366004614222565b612037565b6102136103f336600461423a565b61204e565b61023b612088565b61023b61209a565b61023b6120ac565b61021361041e36600461411c565b6120b3565b600054610100900460ff168061043c575061043c612359565b8061044a575060005460ff16155b61046f5760405162461bcd60e51b815260040161046690614aa8565b60405180910390fd5b600054610100900460ff1615801561049a576000805460ff1961ff0019909116610100171660011790555b6001600160a01b0382166104c05760405162461bcd60e51b8152600401610466906148e3565b6104c861235f565b6104d06123e0565b6104d861246c565b6104f0600080516020614da58339815191528361078d565b610508600080516020614dc58339815191528361078d565b61052e600080516020614dc5833981519152600080516020614da58339815191526124fb565b610546600080516020614da5833981519152806124fb565b8015610558576000805461ff00191690555b5050565b610564611f10565b6105805760405162461bcd60e51b815260040161046690614cc4565b60975460ff16156105a35760405162461bcd60e51b8152600401610466906147f0565b6105ac81612510565b6105c85760405162461bcd60e51b815260040161046690614b2d565b6001600160a01b03821660008181526101c6602052604090819020839055517f7be5403eca163f383a39c2d1f65a8fee2c9e41e7e6b150f4abfe16eaaf1d907690610614908490614483565b60405180910390a25050565b6000818152606560205260409020600201545b919050565b60975460ff161561065b5760405162461bcd60e51b8152600401610466906147f0565b6001600160a01b0380831660009081526101c860205260409020548391166106955760405162461bcd60e51b815260040161046690614918565b6000839050336001600160a01b0316816001600160a01b0316637df1f1b96040518163ffffffff1660e01b815260040160206040518083038186803b1580156106dd57600080fd5b505afa1580156106f1573d6000803e3d6000fd5b505050506040513d601f19601f820116820180604052508101906107159190614138565b6001600160a01b03161461073b5760405162461bcd60e51b815260040161046690614945565b61074d818461074861259d565b6125a1565b50505050565b60008281526065602052604090206002015461077190610369612718565b61078d5760405162461bcd60e51b81526004016104669061455e565b610558828261271c565b61079f612718565b6001600160a01b0316816001600160a01b0316146107cf5760405162461bcd60e51b815260040161046690614d0f565b6105588282612785565b6107f3600080516020614dc5833981519152610369612718565b61080f5760405162461bcd60e51b81526004016104669061465c565b6108176127ee565b565b600054610100900460ff16806108325750610832612359565b80610840575060005460ff16155b61085c5760405162461bcd60e51b815260040161046690614aa8565b600054610100900460ff16158015610887576000805460ff1961ff0019909116610100171660011790555b61089083610423565b6101c580546001600160a01b0319166001600160a01b03841617905580156108be576000805461ff00191690555b505050565b6108cb611f10565b6108e75760405162461bcd60e51b815260040161046690614cc4565b6101c5546108fd906001600160a01b031661285a565b6101c580546001600160a01b0319166001600160a01b0392909216919091179055565b600054610100900460ff16806109395750610939612359565b80610947575060005460ff16155b6109635760405162461bcd60e51b815260040161046690614aa8565b600054610100900460ff1615801561098e576000805460ff1961ff0019909116610100171660011790555b6109966123e0565b80156109a8576000805461ff00191690555b50565b60975460009060ff16156109d15760405162461bcd60e51b8152600401610466906147f0565b3360009081526101c6602090815260408083206001600160a01b038b1684526101c7909252909120610a0388836128da565b610a1f5760405162461bcd60e51b81526004016104669061470b565b6000610a29612923565b6001600160a01b03166301b215516040518163ffffffff1660e01b8152600401602060405180830381600087803b158015610a6357600080fd5b505af1158015610a77573d6000803e3d6000fd5b505050506040513d601f19601f82011682018060405250810190610a9b9190614138565b90506000819050806001600160a01b031663df8fa430308d338e8e8e8e8e6040518963ffffffff1660e01b8152600401610adc9897969594939291906143c3565b600060405180830381600087803b158015610af657600080fd5b505af1158015610b0a573d6000803e3d6000fd5b505050506001848101805480830182556000918252602080832090910180546001600160a01b03199081166001600160a01b038881169182179093558854958601895588855283852090950180548216861790558484526101c89092526040808420805490931685179092559051908e16917fc1d7685016f2246662e70fe17df916e959813e9ab93d50c4f039c0c069c5f37191a36101c5546001600160a01b0380831691632f2ff15d91600080516020614da583398151915291610bcf91166129a6565b6040518363ffffffff1660e01b8152600401610bec92919061448c565b600060405180830381600087803b158015610c0657600080fd5b505af1158015610c1a573d6000803e3d6000fd5b50506101c55460405163182cdbe360e11b81526001600160a01b038086169450633059b7c69350610c4f921690600401614372565b600060405180830381600087803b158015610c6957600080fd5b505af1158015610c7d573d6000803e3d6000fd5b50939d9c50505050505050505050505050565b60975460ff1690565b60975460ff1615610cbc5760405162461bcd60e51b8152600401610466906147f0565b6001600160a01b0380831660009081526101c86020526040902054839116610cf65760405162461bcd60e51b815260040161046690614918565b3360009081526101c7602052604090208054849190610d275760405162461bcd60e51b815260040161046690614759565b60008411610d475760405162461bcd60e51b815260040161046690614b8a565b336001600160a01b0316826001600160a01b0316637df1f1b96040518163ffffffff1660e01b815260040160206040518083038186803b158015610d8a57600080fd5b505afa158015610d9e573d6000803e3d6000fd5b505050506040513d601f19601f82011682018060405250810190610dc29190614138565b6001600160a01b031614610de85760405162461bcd60e51b815260040161046690614a12565b610df1846129be565b610e0d5760405162461bcd60e51b81526004016104669061481a565b6000610e18866129d9565b9050610e25858285612a6d565b610e415760405162461bcd60e51b815260040161046690614bf8565b6000836001600160a01b031663b69ef8a86040518163ffffffff1660e01b815260040160206040518083038186803b158015610e7c57600080fd5b505afa158015610e90573d6000803e3d6000fd5b505050506040513d601f19601f82011682018060405250810190610eb49190614337565b905080610f8657836001600160a01b03166352ee365e610ed261259d565b6040518263ffffffff1660e01b8152600401610eee9190614483565b600060405180830381600087803b158015610f0857600080fd5b505af1158015610f1c573d6000803e3d6000fd5b50505050836001600160a01b03166351bc4953610f3761259d565b6040518263ffffffff1660e01b8152600401610f539190614483565b600060405180830381600087803b158015610f6d57600080fd5b505af1158015610f81573d6000803e3d6000fd5b505050505b6101c554600090610f9f906001600160a01b0316612b31565b90506000831561106f5783881115610fc4575082610fbd8882612b3c565b9750610fc9565b506000965b6040516323b872dd60e01b81526000906001600160a01b038416906323b872dd90610ffc908d9033908790600401614386565b602060405180830381600087803b15801561101657600080fd5b505af115801561102a573d6000803e3d6000fd5b505050506040513d601f19601f8201168201806040525081019061104e9190614202565b90508061106d5760405162461bcd60e51b8152600401610466906146df565b505b6000806110838861107e61259d565b612b7e565b9092509050611092858b612d26565b94506110a088868484612d4b565b6110a98861315f565b156110c65760405162461bcd60e51b8152600401610466906145db565b6001600160a01b038816337f7ec4669c579321a5cf5a6b525637eb0924a93e2e11eab9d14be8b44de1116b1b6110fc8d87612d26565b6040516111099190614483565b60405180910390a389156111bb576040516335655ced60e11b81526000906001600160a01b03861690636acab9da906111489033908f906004016143aa565b602060405180830381600087803b15801561116257600080fd5b505af1158015611176573d6000803e3d6000fd5b505050506040513d601f19601f8201168201806040525081019061119a9190614202565b9050806111b95760405162461bcd60e51b8152600401610466906146df565b505b5050505050505050505050565b61168081565b6101c5546001600160a01b031681565b6101c66020526000908152604090205481565b6001600160a01b03811660009081526101c6602090815260409182902060010180548351818402810184019094528084526060939283018282801561125f57602002820191906000526020600020905b81546001600160a01b03168152600190910190602001808311611241575b50505050509050919050565b611285600080516020614dc5833981519152610369612718565b6112a15760405162461bcd60e51b81526004016104669061465c565b610817613226565b60008281526065602052604081206112c1908361327f565b90505b92915050565b60008281526065602052604081206112c1908361328b565b6001600160a01b0380831660009081526101c86020526040812054909184911661131e5760405162461bcd60e51b815260040161046690614918565b8261132e5761132b61259d565b92505b6000849050806001600160a01b031663500b245e6040518163ffffffff1660e01b815260040160206040518083038186803b15801561136c57600080fd5b505afa158015611380573d6000803e3d6000fd5b505050506040513d601f19601f820116820180604052508101906113a49190614337565b841080156113b857506113b68161315f565b155b156113c7576000925050611534565b6101c554600090819073__$1dcd660c042b25ef260537b13a3f0ede49$__9063101c84309085908990611402906001600160a01b03166132a0565b6040518463ffffffff1660e01b81526004016114209392919061440a565b604080518083038186803b15801561143757600080fd5b505af415801561144b573d6000803e3d6000fd5b505050506040513d601f19601f8201168201806040525081019061146f919061434f565b9150915061152e6114f182856001600160a01b031663193501146040518163ffffffff1660e01b815260040160206040518083038186803b1580156114b357600080fd5b505afa1580156114c7573d6000803e3d6000fd5b505050506040513d601f19601f820116820180604052508101906114eb9190614337565b90612d26565b6114eb84866001600160a01b03166321856b366040518163ffffffff1660e01b815260040160206040518083038186803b1580156114b357600080fd5b94505050505b5092915050565b336001600160a01b0316876001600160a01b031663f00db2606040518163ffffffff1660e01b815260040160206040518083038186803b15801561157e57600080fd5b505afa158015611592573d6000803e3d6000fd5b505050506040513d601f19601f820116820180604052508101906115b69190614138565b6001600160a01b0316146115dc5760405162461bcd60e51b815260040161046690614bc1565b6000876001600160a01b031663a4d66daf6040518163ffffffff1660e01b815260040160206040518083038186803b15801561161757600080fd5b505afa15801561162b573d6000803e3d6000fd5b505050506040513d601f19601f8201168201806040525081019061164f9190614337565b1161166c5760405162461bcd60e51b8152600401610466906148ac565b600061167c8787878787876109ab565b90506000819050806001600160a01b031663fb1669ca8a6001600160a01b031663b69ef8a86040518163ffffffff1660e01b815260040160206040518083038186803b1580156116cb57600080fd5b505afa1580156116df573d6000803e3d6000fd5b505050506040513d601f19601f820116820180604052508101906117039190614337565b6040518263ffffffff1660e01b815260040161171f9190614483565b600060405180830381600087803b15801561173957600080fd5b505af115801561174d573d6000803e3d6000fd5b50505050806001600160a01b03166396c8df378a6001600160a01b03166321856b366040518163ffffffff1660e01b815260040160206040518083038186803b15801561179957600080fd5b505afa1580156117ad573d6000803e3d6000fd5b505050506040513d601f19601f820116820180604052508101906117d19190614337565b6040518263ffffffff1660e01b81526004016117ed9190614483565b600060405180830381600087803b15801561180757600080fd5b505af115801561181b573d6000803e3d6000fd5b50505050806001600160a01b031663b3b8a9c78a6001600160a01b031663193501146040518163ffffffff1660e01b815260040160206040518083038186803b15801561186757600080fd5b505afa15801561187b573d6000803e3d6000fd5b505050506040513d601f19601f8201168201806040525081019061189f9190614337565b6040518263ffffffff1660e01b81526004016118bb9190614483565b600060405180830381600087803b1580156118d557600080fd5b505af11580156118e9573d6000803e3d6000fd5b50505050806001600160a01b031663fb9eb9908a6001600160a01b0316631790ebd56040518163ffffffff1660e01b815260040160206040518083038186803b15801561193557600080fd5b505afa158015611949573d6000803e3d6000fd5b505050506040513d601f19601f8201168201806040525081019061196d9190614337565b6040518263ffffffff1660e01b81526004016119899190614483565b600060405180830381600087803b1580156119a357600080fd5b505af11580156119b7573d6000803e3d6000fd5b50505050806001600160a01b0316637957dda38a6001600160a01b031663500b245e6040518163ffffffff1660e01b815260040160206040518083038186803b158015611a0357600080fd5b505afa158015611a17573d6000803e3d6000fd5b505050506040513d601f19601f82011682018060405250810190611a3b9190614337565b6040518263ffffffff1660e01b8152600401611a579190614483565b600060405180830381600087803b158015611a7157600080fd5b505af1158015611a85573d6000803e3d6000fd5b50505050806001600160a01b03166352ee365e8a6001600160a01b031663408862d96040518163ffffffff1660e01b815260040160206040518083038186803b158015611ad157600080fd5b505afa158015611ae5573d6000803e3d6000fd5b505050506040513d601f19601f82011682018060405250810190611b099190614337565b6040518263ffffffff1660e01b8152600401611b259190614483565b600060405180830381600087803b158015611b3f57600080fd5b505af1158015611b53573d6000803e3d6000fd5b50505050806001600160a01b0316632771eca88a6001600160a01b031663cc862de56040518163ffffffff1660e01b815260040160206040518083038186803b158015611b9f57600080fd5b505afa158015611bb3573d6000803e3d6000fd5b505050506040513d601f19601f82011682018060405250810190611bd79190614337565b6040518263ffffffff1660e01b8152600401611bf39190614483565b600060405180830381600087803b158015611c0d57600080fd5b505af1158015611c21573d6000803e3d6000fd5b50505050806001600160a01b03166351bc49538a6001600160a01b031663bfe976a96040518163ffffffff1660e01b815260040160206040518083038186803b158015611c6d57600080fd5b505afa158015611c81573d6000803e3d6000fd5b505050506040513d601f19601f82011682018060405250810190611ca59190614337565b6040518263ffffffff1660e01b8152600401611cc19190614483565b600060405180830381600087803b158015611cdb57600080fd5b505af1158015611cef573d6000803e3d6000fd5b50506040516327ea6f2b60e01b81526001600160a01b038c1692506327ea6f2b9150611d2090600090600401614483565b600060405180830381600087803b158015611d3a57600080fd5b505af1158015611d4e573d6000803e3d6000fd5b5050604051637d8b34e560e11b81526001600160a01b038c16925063fb1669ca9150611d7f90600090600401614483565b600060405180830381600087803b158015611d9957600080fd5b505af1158015611dad573d6000803e3d6000fd5b50506101c55460009250611dca91506001600160a01b0316612b31565b6101c5546001600160a01b03918216916323b872dd918d918691611dee91166132d0565b6001600160a01b03166370a082318f6040518263ffffffff1660e01b8152600401611e199190614372565b60206040518083038186803b158015611e3157600080fd5b505afa158015611e45573d6000803e3d6000fd5b505050506040513d601f19601f82011682018060405250810190611e699190614337565b6040518463ffffffff1660e01b8152600401611e8793929190614386565b602060405180830381600087803b158015611ea157600080fd5b505af1158015611eb5573d6000803e3d6000fd5b505050506040513d601f19601f82011682018060405250810190611ed99190614202565b905080611ef85760405162461bcd60e51b815260040161046690614625565b50505050505050505050565b600081565b6101c35481565b6000611f2c600080516020614da5833981519152610369612718565b905090565b6001600160a01b03811660009081526101c7602090815260409182902080548351818402810184019094528084526060939283018282801561125f576020028201919060005260206000209081546001600160a01b031681526001909101906020018083116112415750505050509050919050565b60975460ff1615611fc95760405162461bcd60e51b8152600401610466906147f0565b6001600160a01b0380831660009081526101c860205260409020548391166120035760405162461bcd60e51b815260040161046690614918565b600082116120235760405162461bcd60e51b815260040161046690614c56565b8261202e81846132db565b61074d846120b3565b60008181526065602052604081206112c490613404565b60008281526065602052604090206002015461206c90610369612718565b6107cf5760405162461bcd60e51b8152600401610466906147a0565b600080516020614da583398151915281565b600080516020614dc583398151915281565b6101c45481565b60975460ff16156120d65760405162461bcd60e51b8152600401610466906147f0565b6001600160a01b0380821660009081526101c860205260409020548291166121105760405162461bcd60e51b815260040161046690614918565b60008290506000816001600160a01b031663b69ef8a86040518163ffffffff1660e01b815260040160206040518083038186803b15801561215057600080fd5b505afa158015612164573d6000803e3d6000fd5b505050506040513d601f19601f820116820180604052508101906121889190614337565b116121a55760405162461bcd60e51b81526004016104669061498a565b806001600160a01b031663500b245e6040518163ffffffff1660e01b815260040160206040518083038186803b1580156121de57600080fd5b505afa1580156121f2573d6000803e3d6000fd5b505050506040513d601f19601f820116820180604052508101906122169190614337565b61221e61259d565b108015612231575061222f8161315f565b155b1561223c5750610558565b60006122478261340f565b604051637957dda360e01b81529091506001600160a01b03831690637957dda390612276908490600401614483565b600060405180830381600087803b15801561229057600080fd5b505af11580156122a4573d6000803e3d6000fd5b505050506122b061259d565b811115612346576000612336611680846001600160a01b03166399dd8df36040518163ffffffff1660e01b815260040160206040518083038186803b1580156122f857600080fd5b505afa15801561230c573d6000803e3d6000fd5b505050506040513d601f19601f820116820180604052508101906123309190614337565b9061368f565b90506123428282612b3c565b9150505b61074d82612353846129d9565b836125a1565b303b1590565b600054610100900460ff16806123785750612378612359565b80612386575060005460ff16155b6123a25760405162461bcd60e51b815260040161046690614aa8565b600054610100900460ff16158015610996576000805460ff1961ff00199091166101001716600117905580156109a8576000805461ff001916905550565b600054610100900460ff16806123f957506123f9612359565b80612407575060005460ff16155b6124235760405162461bcd60e51b815260040161046690614aa8565b600054610100900460ff1615801561244e576000805460ff1961ff0019909116610100171660011790555b6097805460ff1916905580156109a8576000805461ff001916905550565b600054610100900460ff16806124855750612485612359565b80612493575060005460ff16155b6124af5760405162461bcd60e51b815260040161046690614aa8565b600054610100900460ff161580156124da576000805460ff1961ff0019909116610100171660011790555b60c9805460ff1916600117905580156109a8576000805461ff001916905550565b60009182526065602052604090912060020155565b6101c5546000906001600160a01b031663fc56365860025b6040518263ffffffff1660e01b81526004016125449190614483565b60206040518083038186803b15801561255c57600080fd5b505afa158015612570573d6000803e3d6000fd5b505050506040513d601f19601f820116820180604052508101906125949190614337565b90911115919050565b4390565b60008060006125b18686866136c9565b6101c55492955090935091506000906125d2906001600160a01b0316612b31565b90506125de8782613944565b60008311806125ed5750600082115b1561270f57866001600160a01b0316876001600160a01b0316637df1f1b96040518163ffffffff1660e01b815260040160206040518083038186803b15801561263557600080fd5b505afa158015612649573d6000803e3d6000fd5b505050506040513d601f19601f8201168201806040525081019061266d9190614138565b6001600160a01b03167f724fe786cff62c97ff230e98a332f95c5a11990e44123a00c2b8e76b0566e4118585886040516126a993929190614d5e565b60405180910390a36040516371bb0bab60e01b81526001600160a01b038216906371bb0bab906126e1908a908790879060040161440a565b600060405180830381600087803b1580156126fb57600080fd5b505af11580156111bb573d6000803e3d6000fd5b50505050505050565b3390565b60008281526065602052604090206127349082613c05565b1561055857612741612718565b6001600160a01b0316816001600160a01b0316837f2f8788117e7eff1d82e926ec794901d17c78024a50270940304540a733656f0d60405160405180910390a45050565b600082815260656020526040902061279d9082613c1a565b15610558576127aa612718565b6001600160a01b0316816001600160a01b0316837ff6391f5c32d9c69d2a47ea670b442974b53935d1edc7fd64eb21e047a839171b60405160405180910390a45050565b60975460ff166128105760405162461bcd60e51b8152600401610466906145ad565b6097805460ff191690557f5db9ee0a495bf2e6ff9c91a7834c1ba4fdd244a5e8aa4e537bd38aeae4b073aa612843612718565b6040516128509190614372565b60405180910390a1565b60006001600160a01b03821663b93f9b0a600b5b6040518263ffffffff1660e01b815260040161288a9190614483565b60206040518083038186803b1580156128a257600080fd5b505afa1580156128b6573d6000803e3d6000fd5b505050506040513d601f19601f820116820180604052508101906112c49190614138565b8054600090806128fc5760405162461bcd60e51b815260040161046690614862565b600061290784613c2f565b905060006129158287612d26565b929092111595945050505050565b6101c554604051635c9fcd8560e11b81526000916001600160a01b03169063b93f9b0a9061295690600290600401614483565b60206040518083038186803b15801561296e57600080fd5b505afa158015612982573d6000803e3d6000fd5b505050506040513d601f19601f82011682018060405250810190611f2c9190614138565b60006001600160a01b03821663b93f9b0a600761286e565b6101c5546000906001600160a01b031663fc56365882612528565b6101c5546000906129f2906001600160a01b03166132d0565b6001600160a01b03166370a08231836040518263ffffffff1660e01b8152600401612a1d9190614372565b60206040518083038186803b158015612a3557600080fd5b505afa158015612a49573d6000803e3d6000fd5b505050506040513d601f19601f820116820180604052508101906112c49190614337565b6000816001600160a01b031663a4d66daf6040518163ffffffff1660e01b815260040160206040518083038186803b158015612aa857600080fd5b505afa158015612abc573d6000803e3d6000fd5b505050506040513d601f19601f82011682018060405250810190612ae09190614337565b612b2784612b2187866001600160a01b031663b69ef8a86040518163ffffffff1660e01b815260040160206040518083038186803b1580156114b357600080fd5b90612b3c565b1115949350505050565b60006112c482613d03565b60006112c183836040518060400160405280601e81526020017f536166654d6174683a207375627472616374696f6e206f766572666c6f770000815250613d1a565b60008060008073__$1dcd660c042b25ef260537b13a3f0ede49$__63101c84308787612bc86101c560009054906101000a90046001600160a01b03166001600160a01b03166132a0565b6040518463ffffffff1660e01b8152600401612be69392919061440a565b604080518083038186803b158015612bfd57600080fd5b505af4158015612c11573d6000803e3d6000fd5b505050506040513d601f19601f82011682018060405250810190612c35919061434f565b90925090508115612c9f576040516329771b2f60e11b81526001600160a01b038716906352ee365e90612c6c908890600401614483565b600060405180830381600087803b158015612c8657600080fd5b505af1158015612c9a573d6000803e3d6000fd5b505050505b612cdc82876001600160a01b03166321856b366040518163ffffffff1660e01b815260040160206040518083038186803b1580156114b357600080fd5b612d1982886001600160a01b031663193501146040518163ffffffff1660e01b815260040160206040518083038186803b1580156114b357600080fd5b9350935050509250929050565b6000828201838110156112c15760405162461bcd60e51b8152600401610466906146a8565b60c95460ff16612d6d5760405162461bcd60e51b815260040161046690614c8d565b60c9805460ff19169055604080516316d3df1560e31b81529051612dfe916001600160a01b0387169163b69ef8a891600480820192602092909190829003018186803b158015612dbc57600080fd5b505afa158015612dd0573d6000803e3d6000fd5b505050506040513d601f19601f82011682018060405250810190612df49190614337565b6101c45490612b3c565b6101c455604051637d8b34e560e11b81526001600160a01b0385169063fb1669ca90612e2e908690600401614483565b600060405180830381600087803b158015612e4857600080fd5b505af1158015612e5c573d6000803e3d6000fd5b50506040516396c8df3760e01b81526001600160a01b03871692506396c8df379150612e8c908590600401614483565b600060405180830381600087803b158015612ea657600080fd5b505af1158015612eba573d6000803e3d6000fd5b505060405163b3b8a9c760e01b81526001600160a01b038716925063b3b8a9c79150612eea908490600401614483565b600060405180830381600087803b158015612f0457600080fd5b505af1158015612f18573d6000803e3d6000fd5b505050506000846001600160a01b031663500b245e6040518163ffffffff1660e01b815260040160206040518083038186803b158015612f5757600080fd5b505afa158015612f6b573d6000803e3d6000fd5b505050506040513d601f19601f82011682018060405250810190612f8f9190614337565b905082158015612f9e57508015155b1561306c57600081612fae61259d565b1015613009576000612ff5611680886001600160a01b03166399dd8df36040518163ffffffff1660e01b815260040160206040518083038186803b1580156122f857600080fd5b90506130018382612b3c565b91505061300c565b50805b6040516351bc495360e01b81526001600160a01b038716906351bc495390613038908490600401614483565b600060405180830381600087803b15801561305257600080fd5b505af1158015613066573d6000803e3d6000fd5b50505050505b6101c45461307a9085612d26565b6101c4556001600160a01b03851663fb9eb9906130978787613d46565b6040518263ffffffff1660e01b81526004016130b39190614483565b600060405180830381600087803b1580156130cd57600080fd5b505af11580156130e1573d6000803e3d6000fd5b50505050846001600160a01b0316637957dda36130fd8761340f565b6040518263ffffffff1660e01b81526004016131199190614483565b600060405180830381600087803b15801561313357600080fd5b505af1158015613147573d6000803e3d6000fd5b505060c9805460ff1916600117905550505050505050565b6000806131de836001600160a01b031663bfe976a96040518163ffffffff1660e01b815260040160206040518083038186803b15801561319e57600080fd5b505afa1580156131b2573d6000803e3d6000fd5b505050506040513d601f19601f820116820180604052508101906131d69190614337565b612b2161259d565b905061321f611680846001600160a01b03166399dd8df36040518163ffffffff1660e01b815260040160206040518083038186803b1580156122f857600080fd5b1092915050565b60975460ff16156132495760405162461bcd60e51b8152600401610466906147f0565b6097805460ff191660011790557f62e78cea01bee320cd4e420270b5ea74000d11b0c9f74754ebdbfc544b05a258612843612718565b60006112c18383613ecb565b60006112c1836001600160a01b038416613f10565b60006001600160a01b03821663fc56365860055b6040518263ffffffff1660e01b8152600401612a1d9190614483565b60006112c482613f28565b6132e4816129be565b6133005760405162461bcd60e51b81526004016104669061481a565b816001600160a01b0316336001600160a01b03167fc4036209c61f1d5aad789d2b8fa9ca23bf8b1516748d2e0be7227bf3fce67d2d836040516133439190614483565b60405180910390a36101c554600090613364906001600160a01b0316612b31565b6001600160a01b03166323b872dd3385856040518463ffffffff1660e01b815260040161339393929190614386565b602060405180830381600087803b1580156133ad57600080fd5b505af11580156133c1573d6000803e3d6000fd5b505050506040513d601f19601f820116820180604052508101906133e59190614202565b9050806108be5760405162461bcd60e51b815260040161046690614af6565b60006112c482613f40565b600080613451611680846001600160a01b03166399dd8df36040518163ffffffff1660e01b815260040160206040518083038186803b1580156122f857600080fd5b90506000836001600160a01b031663b69ef8a86040518163ffffffff1660e01b815260040160206040518083038186803b15801561348e57600080fd5b505afa1580156134a2573d6000803e3d6000fd5b505050506040513d601f19601f820116820180604052508101906134c69190614337565b90506000846001600160a01b031663500b245e6040518163ffffffff1660e01b815260040160206040518083038186803b15801561350357600080fd5b505afa158015613517573d6000803e3d6000fd5b505050506040513d601f19601f8201168201806040525081019061353b9190614337565b9050600061354761259d565b9050811580156135575750600083115b15613571576135668185612d26565b945050505050610633565b6000831180156135815750818110155b156136395760006135a58561233060016114eb8361359f888a612b3c565b90613f44565b90506135b18382612d26565b925061362d83886001600160a01b0316631790ebd56040518163ffffffff1660e01b815260040160206040518083038186803b1580156135f057600080fd5b505afa158015613604573d6000803e3d6000fd5b505050506040513d601f19601f820116820180604052508101906136289190614337565b613f86565b95505050505050610633565b8215801561364657508115155b15613658576000945050505050610633565b60008311801561366757508181105b1561367757509250610633915050565b60405162461bcd60e51b815260040161046690614a5e565b60008261369e575060006112c4565b828202828482816136ab57fe5b04146112c15760405162461bcd60e51b8152600401610466906149d1565b60008060008060006136db8887612b7e565b915091506136e76140fb565b73__$1dcd660c042b25ef260537b13a3f0ede49$__63d7cc2a03898b6001600160a01b031663b69ef8a86040518163ffffffff1660e01b815260040160206040518083038186803b15801561373b57600080fd5b505afa15801561374f573d6000803e3d6000fd5b505050506040513d601f19601f820116820180604052508101906137739190614337565b86866040518563ffffffff1660e01b81526004016137949493929190614d74565b60606040518083038186803b1580156137ac57600080fd5b505af41580156137c0573d6000803e3d6000fd5b505050506040513d601f19601f820116820180604052508101906137e491906142e0565b9050600061386182602001518b6001600160a01b031663b69ef8a86040518163ffffffff1660e01b815260040160206040518083038186803b15801561382957600080fd5b505afa15801561383d573d6000803e3d6000fd5b505050506040513d601f19601f82011682018060405250810190612b219190614337565b905061387a826040015182612b3c90919063ffffffff16565b905060006138bb828c6001600160a01b031663b69ef8a86040518163ffffffff1660e01b815260040160206040518083038186803b15801561382957600080fd5b905060006138da82612b2186600001518e612b3c90919063ffffffff16565b905061390d8c846138f887600001518a612b3c90919063ffffffff16565b6020880151613908908a90612b3c565b612d4b565b8a613929836114eb876000015185612d2690919063ffffffff16565b1461393057fe5b9251929b929a509850909650505050505050565b60008073__$1dcd660c042b25ef260537b13a3f0ede49$__63ca5735688561396a61259d565b6101c554613980906001600160a01b03166132a0565b6101c554613996906001600160a01b0316613f9c565b6040518563ffffffff1660e01b81526004016139b594939291906144a3565b604080518083038186803b1580156139cc57600080fd5b505af41580156139e0573d6000803e3d6000fd5b505050506040513d601f19601f82011682018060405250810190613a04919061434f565b91509150816000148015613a865750836001600160a01b031663cc862de56040518163ffffffff1660e01b815260040160206040518083038186803b158015613a4c57600080fd5b505afa158015613a60573d6000803e3d6000fd5b505050506040513d601f19601f82011682018060405250810190613a849190614337565b155b15613a92575050610558565b600081856001600160a01b031663cc862de56040518163ffffffff1660e01b815260040160206040518083038186803b158015613ace57600080fd5b505afa158015613ae2573d6000803e3d6000fd5b505050506040513d601f19601f82011682018060405250810190613b069190614337565b039050846001600160a01b0316632771eca8836040518263ffffffff1660e01b8152600401613b359190614483565b600060405180830381600087803b158015613b4f57600080fd5b505af1158015613b63573d6000803e3d6000fd5b505050506000811315613b87576101c354613b7e9082612b3c565b6101c355613b9e565b6101c354613b99906000839003612d26565b6101c3555b604051630ce1d12f60e21b81526001600160a01b0385169063338744bc90613bcc90889085906004016143aa565b600060405180830381600087803b158015613be657600080fd5b505af1158015613bfa573d6000803e3d6000fd5b505050505050505050565b60006112c1836001600160a01b038416613fb4565b60006112c1836001600160a01b038416613ffe565b60018101546000908190815b81811015613cfa576000856001018281548110613c5457fe5b9060005260206000200160009054906101000a90046001600160a01b03169050613cef816001600160a01b031663a4d66daf6040518163ffffffff1660e01b815260040160206040518083038186803b158015613cb057600080fd5b505afa158015613cc4573d6000803e3d6000fd5b505050506040513d601f19601f82011682018060405250810190613ce89190614337565b8590612d26565b935050600101613c3b565b50909392505050565b60006001600160a01b03821663b93f9b0a8261286e565b60008184841115613d3e5760405162461bcd60e51b815260040161046691906144c9565b505050900390565b600081613d55575060006112c4565b826001600160a01b0316631790ebd56040518163ffffffff1660e01b815260040160206040518083038186803b158015613d8e57600080fd5b505afa158015613da2573d6000803e3d6000fd5b505050506040513d601f19601f82011682018060405250810190613dc69190614337565b15613e4357826001600160a01b0316631790ebd56040518163ffffffff1660e01b815260040160206040518083038186803b158015613e0457600080fd5b505afa158015613e18573d6000803e3d6000fd5b505050506040513d601f19601f82011682018060405250810190613e3c9190614337565b90506112c4565b6112c1613ec3846001600160a01b03166348e6f2966040518163ffffffff1660e01b815260040160206040518083038186803b158015613e8257600080fd5b505afa158015613e96573d6000803e3d6000fd5b505050506040513d601f19601f82011682018060405250810190613eba9190614337565b6116809061368f565b6114eb61259d565b81546000908210613eee5760405162461bcd60e51b81526004016104669061451c565b826000018281548110613efd57fe5b9060005260206000200154905092915050565b60009081526001919091016020526040902054151590565b60006001600160a01b03821663b93f9b0a600561286e565b5490565b60006112c183836040518060400160405280601a81526020017f536166654d6174683a206469766973696f6e206279207a65726f0000000000008152506140c4565b6000818310613f9557816112c1565b5090919050565b60006001600160a01b03821663fc56365860066132b4565b6000613fc08383613f10565b613ff6575081546001818101845560008481526020808220909301849055845484825282860190935260409020919091556112c4565b5060006112c4565b600081815260018301602052604081205480156140ba578354600019808301919081019060009087908390811061403157fe5b906000526020600020015490508087600001848154811061404e57fe5b60009182526020808320909101929092558281526001898101909252604090209084019055865487908061407e57fe5b600190038181906000526020600020016000905590558660010160008781526020019081526020016000206000905560019450505050506112c4565b60009150506112c4565b600081836140e55760405162461bcd60e51b815260040161046691906144c9565b5060008385816140f157fe5b0495945050505050565b60405180606001604052806000815260200160008152602001600081525090565b60006020828403121561412d578081fd5b81356112c181614d8f565b600060208284031215614149578081fd5b81516112c181614d8f565b60008060408385031215614166578081fd5b823561417181614d8f565b9150602083013561418181614d8f565b809150509250929050565b6000806040838503121561419e578182fd5b82356141a981614d8f565b946020939093013593505050565b60008060008060008060c087890312156141cf578182fd5b86356141da81614d8f565b9860208801359850604088013597606081013597506080810135965060a00135945092505050565b600060208284031215614213578081fd5b815180151581146112c1578182fd5b600060208284031215614233578081fd5b5035919050565b6000806040838503121561424c578182fd5b82359150602083013561418181614d8f565b60008060408385031215614270578182fd5b50508035926020909101359150565b600080600080600080600060e0888a031215614299578081fd5b87356142a481614d8f565b965060208801356142b481614d8f565b96999698505050506040850135946060810135946080820135945060a0820135935060c0909101359150565b6000606082840312156142f1578081fd5b6040516060810181811067ffffffffffffffff82111715614310578283fd5b80604052508251815260208301516020820152604083015160408201528091505092915050565b600060208284031215614348578081fd5b5051919050565b60008060408385031215614361578081fd5b505080516020909101519092909150565b6001600160a01b0391909116815260200190565b6001600160a01b039384168152919092166020820152604081019190915260600190565b6001600160a01b03929092168252602082015260400190565b6001600160a01b03988916815296881660208801529490961660408601526060850192909252608084015260a083015260c082019290925260e08101919091526101000190565b6001600160a01b039390931683526020830191909152604082015260600190565b6020808252825182820181905260009190848201906040850190845b8181101561446c5783516001600160a01b031683529284019291840191600101614447565b50909695505050505050565b901515815260200190565b90815260200190565b9182526001600160a01b0316602082015260400190565b6001600160a01b0394909416845260208401929092526040830152606082015260800190565b6000602080835283518082850152825b818110156144f5578581018301518582016040015282016144d9565b818111156145065783604083870101525b50601f01601f1916929092016040019392505050565b60208082526022908201527f456e756d657261626c655365743a20696e646578206f7574206f6620626f756e604082015261647360f01b606082015260800190565b6020808252602f908201527f416363657373436f6e74726f6c3a2073656e646572206d75737420626520616e60408201526e0818591b5a5b881d1bc819dc985b9d608a1b606082015260800190565b60208082526014908201527314185d5cd8589b194e881b9bdd081c185d5cd95960621b604082015260600190565b6020808252602a908201527f43616e6e6f742064726177646f776e207768656e207061796d656e74732061726040820152696520706173742064756560b01b606082015260800190565b60208082526018908201527f4661696c656420746f207472616e736665722066756e64730000000000000000604082015260600190565b6020808252602c908201527f4d75737420686176652070617573657220726f6c6520746f20706572666f726d60408201526b103a3434b99030b1ba34b7b760a11b606082015260800190565b6020808252601b908201527f536166654d6174683a206164646974696f6e206f766572666c6f770000000000604082015260600190565b6020808252601290820152712330b4b632b2103a3790323930bbb237bbb760711b604082015260600190565b6020808252602e908201527f54686520756e6465727772697465722063616e6e6f742063726561746520746860408201526d697320637265646974206c696e6560901b606082015260800190565b60208082526027908201527f4e6f20637265646974206c696e657320657869737420666f722074686973206260408201526637b93937bbb2b960c91b606082015260800190565b60208082526030908201527f416363657373436f6e74726f6c3a2073656e646572206d75737420626520616e60408201526f2061646d696e20746f207265766f6b6560801b606082015260800190565b60208082526010908201526f14185d5cd8589b194e881c185d5cd95960821b604082015260600190565b60208082526028908201527f416d6f756e74206973206f76657220746865207065722d7472616e73616374696040820152671bdb881b1a5b5a5d60c21b606082015260800190565b6020808252602a908201527f756e64657277726974657220646f6573206e6f74206861766520676f7665726e604082015269185b98d9481b1a5b5a5d60b21b606082015260800190565b6020808252601f908201527f43616e2774206d69677261746520656d70747920637265646974206c696e6500604082015260600190565b6020808252818101527f4f776e65722063616e6e6f7420626520746865207a65726f2061646472657373604082015260600190565b602080825260139082015272556e6b6e6f776e20637265646974206c696e6560681b604082015260600190565b60208082526025908201527f596f7520646f206e6f742062656c6f6e6720746f207468697320637265646974604082015264206c696e6560d81b606082015260800190565b60208082526027908201527f4d75737420686176652062616c616e636520746f2061737365737320637265646040820152666974206c696e6560c81b606082015260800190565b60208082526021908201527f536166654d6174683a206d756c7469706c69636174696f6e206f766572666c6f6040820152607760f81b606082015260800190565b6020808252602c908201527f596f7520617265206e6f742074686520626f72726f776572206f66207468697360408201526b20637265646974206c696e6560a01b606082015260800190565b6020808252602a908201527f4572726f723a20636f756c64206e6f742063616c63756c617465206e65787420604082015269323ab290313637b1b59760b11b606082015260800190565b6020808252602e908201527f436f6e747261637420696e7374616e63652068617320616c726561647920626560408201526d195b881a5b9a5d1a585b1a5e995960921b606082015260800190565b60208082526019908201527f4661696c656420746f20636f6c6c656374207061796d656e7400000000000000604082015260600190565b6020808252603a908201527f54686973206c696d69742069732067726561746572207468616e20746865206d60408201527f617820616c6c6f776564206279207468652070726f746f636f6c000000000000606082015260800190565b6020808252601c908201527f4d7573742064726177646f776e206d6f7265207468616e207a65726f00000000604082015260600190565b6020808252601e908201527f43616c6c6572206d7573742062652074686520756e6465727772697465720000604082015260600190565b602080825260409082018190527f54686520626f72726f77657220646f6573206e6f74206861766520656e6f7567908201527f6820637265646974206c696d697420666f7220746869732064726177646f776e606082015260800190565b60208082526017908201527f4d75737420706179206d6f7265207468616e207a65726f000000000000000000604082015260600190565b6020808252601f908201527f5265656e7472616e637947756172643a207265656e7472616e742063616c6c00604082015260600190565b6020808252602b908201527f4d75737420686176652061646d696e20726f6c6520746f20706572666f726d2060408201526a3a3434b99030b1ba34b7b760a91b606082015260800190565b6020808252602f908201527f416363657373436f6e74726f6c3a2063616e206f6e6c792072656e6f756e636560408201526e103937b632b9903337b91039b2b63360891b606082015260800190565b9283526020830191909152604082015260600190565b93845260208401929092526040830152606082015260800190565b6001600160a01b03811681146109a857600080fdfeb19546dff01e856fb3f010c267a7b1c60363cf8a4664e21cc89c26224620214e65d7a28e3265b37a6474929f336521b332c1681b933f6cb9f3376673440d862aa2646970667358221220892596e45a61c9d88bb3e0b0780da6180ee53c87cc9f1fca2b64b3e8fef4960664736f6c634300060c0033",
  "libraries": {
    "Accountant": "0x4d092fB6d2E5bb87Fae258c34959a618163b3635"
  },
  "devdoc": {
    "author": "Goldfinch",
    "kind": "dev",
    "methods": {
      "assessCreditLine(address)": {
        "params": {
          "creditLineAddress": "The creditline that should be assessed."
        }
      },
      "createCreditLine(address,uint256,uint256,uint256,uint256,uint256)": {
        "params": {
          "_borrower": "The borrower for whom the CreditLine will be created",
          "_interestApr": "The interest amount, on an annualized basis (APR, so non-compounding), expressed as an integer.  We assume 8 digits of precision. For example, to submit 15.34%, you would pass up 15340000,  and 5.34% would be 5340000",
          "_lateFeeApr": "The additional interest you will pay if you are late. For example, if this is 3%, and your  normal rate is 15%, then you will pay 18% while you are late. Requirements: - the caller must be an underwriter with enough limit (see `setUnderwriterGovernanceLimit`)",
          "_limit": "The maximum amount a borrower can drawdown from this CreditLine",
          "_paymentPeriodInDays": "How many days in each payment period.  ie. the frequency with which they need to make payments.",
          "_termInDays": "Number of days in the credit term. It is used to set the `termEndBlock` upon first drawdown.  ie. The credit line should be fully paid off {_termIndays} days after the first drawdown."
        }
      },
      "drawdown(address,uint256)": {
        "params": {
          "amount": "The amount, in USDC atomic units, that a borrower wishes to drawdown Requirements: - the caller must be the borrower on the creditLine",
          "creditLineAddress": "The creditline from which they would like to drawdown"
        }
      },
      "getBorrowerCreditLines(address)": {
        "params": {
          "borrowerAddress": "The borrower address you would like to see the credit lines of."
        }
      },
      "getNextPaymentAmount(address,uint256)": {
        "params": {
          "asOfBLock": "The block to use for the payment calculation, if it is set to 0, uses the current block number",
          "creditLineAddress": "The creditLine to calculate the payment for"
        }
      },
      "getRoleAdmin(bytes32)": {
        "details": "Returns the admin role that controls `role`. See {grantRole} and {revokeRole}. To change a role's admin, use {_setRoleAdmin}."
      },
      "getRoleMember(bytes32,uint256)": {
        "details": "Returns one of the accounts that have `role`. `index` must be a value between 0 and {getRoleMemberCount}, non-inclusive. Role bearers are not sorted in any particular way, and their ordering may change at any point. WARNING: When using {getRoleMember} and {getRoleMemberCount}, make sure you perform all queries on the same block. See the following https://forum.openzeppelin.com/t/iterating-over-elements-on-enumerableset-in-openzeppelin-contracts/2296[forum post] for more information."
      },
      "getRoleMemberCount(bytes32)": {
        "details": "Returns the number of accounts that have `role`. Can be used together with {getRoleMember} to enumerate all bearers of a role."
      },
      "getUnderwriterCreditLines(address)": {
        "params": {
          "underwriterAddress": "The underwriter address you would like to see the credit lines of."
        }
      },
      "grantRole(bytes32,address)": {
        "details": "Grants `role` to `account`. If `account` had not been already granted `role`, emits a {RoleGranted} event. Requirements: - the caller must have ``role``'s admin role."
      },
      "hasRole(bytes32,address)": {
        "details": "Returns `true` if `account` has been granted `role`."
      },
      "initialize(address,address)": {
        "params": {
          "_config": "The address of the GoldfinchConfig contract",
          "owner": "The address of who should have the \"OWNER_ROLE\" of this contract"
        }
      },
      "pause()": {
        "details": "Pauses all functions guarded by Pause See {Pausable-_pause}. Requirements: - the caller must have the PAUSER_ROLE."
      },
      "paused()": {
        "details": "Returns true if the contract is paused, and false otherwise."
      },
      "pay(address,uint256)": {
        "params": {
          "amount": "The amount, in USDC atomic units, that a borrower wishes to pay",
          "creditLineAddress": "The credit line to be paid back"
        }
      },
      "renounceRole(bytes32,address)": {
        "details": "Revokes `role` from the calling account. Roles are often managed via {grantRole} and {revokeRole}: this function's purpose is to provide a mechanism for accounts to lose their privileges if they are compromised (such as when a trusted device is misplaced). If the calling account had been granted `role`, emits a {RoleRevoked} event. Requirements: - the caller must be `account`."
      },
      "revokeRole(bytes32,address)": {
        "details": "Revokes `role` from `account`. If `account` had been granted `role`, emits a {RoleRevoked} event. Requirements: - the caller must have ``role``'s admin role."
      },
      "setUnderwriterGovernanceLimit(address,uint256)": {
        "params": {
          "limit": "What the new limit will be set to Requirements: - the caller must have the `OWNER_ROLE`.",
          "underwriterAddress": "The address of the underwriter for whom the limit shall change"
        }
      },
      "unpause()": {
        "details": "Unpauses the contract See {Pausable-_unpause}. Requirements: - the caller must have the Pauser role"
      }
    },
    "title": "Goldfinch's CreditDesk contract",
    "version": 1
  },
  "userdoc": {
    "kind": "user",
    "methods": {
      "assessCreditLine(address)": {
        "notice": "Assesses a particular creditLine. This will apply payments, which will update accounting and  distribute gains or losses back to the pool accordingly. This function is idempotent, and anyone  is allowed to call it."
      },
      "createCreditLine(address,uint256,uint256,uint256,uint256,uint256)": {
        "notice": "Allows an underwriter to create a new CreditLine for a single borrower"
      },
      "drawdown(address,uint256)": {
        "notice": "Allows a borrower to drawdown on their creditline.  `amount` USDC is sent to the borrower, and the credit line accounting is updated."
      },
      "getBorrowerCreditLines(address)": {
        "notice": "Simple getter for the creditlines of a given borrower"
      },
      "getNextPaymentAmount(address,uint256)": {
        "notice": "This function is only meant to be used by frontends. It returns the total payment due for a given creditLine as of the provided blocknumber. Returns 0 if no payment is due (e.g. asOfBLock is before the nextDueBlock)"
      },
      "getUnderwriterCreditLines(address)": {
        "notice": "Simple getter for the creditlines of a given underwriter"
      },
      "initialize(address,address)": {
        "notice": "Run only once, on initialization"
      },
      "pay(address,uint256)": {
        "notice": "Allows a borrower to repay their loan. Payment is *collected* immediately (by sending it to  the individual CreditLine), but it is not *applied* unless it is after the nextDueBlock, or until we assess  the credit line (ie. payment period end).  Any amounts over the minimum payment will be applied to outstanding principal (reducing the effective  interest rate). If there is still any left over, it will remain in the USDC Balance  of the CreditLine, which is held distinct from the Pool amounts, and can not be withdrawn by LP's."
      },
      "setUnderwriterGovernanceLimit(address,uint256)": {
        "notice": "Sets a particular underwriter's limit of how much credit the DAO will allow them to \"create\""
      }
    },
    "notice": "Main entry point for borrowers and underwriters.  Handles key logic for creating CreditLine's, borrowing money, repayment, etc.",
    "version": 1
  },
  "storageLayout": {
    "storage": [
      {
        "astId": 151,
        "contract": "contracts/protocol/core/CreditDesk.sol:CreditDesk",
        "label": "initialized",
        "offset": 0,
        "slot": "0",
        "type": "t_bool"
      },
      {
        "astId": 154,
        "contract": "contracts/protocol/core/CreditDesk.sol:CreditDesk",
        "label": "initializing",
        "offset": 1,
        "slot": "0",
        "type": "t_bool"
      },
      {
        "astId": 219,
        "contract": "contracts/protocol/core/CreditDesk.sol:CreditDesk",
        "label": "______gap",
        "offset": 0,
        "slot": "1",
        "type": "t_array(t_uint256)50_storage"
      },
      {
        "astId": 144,
        "contract": "contracts/protocol/core/CreditDesk.sol:CreditDesk",
        "label": "__gap",
        "offset": 0,
        "slot": "51",
        "type": "t_array(t_uint256)50_storage"
      },
      {
        "astId": 264,
        "contract": "contracts/protocol/core/CreditDesk.sol:CreditDesk",
        "label": "_roles",
        "offset": 0,
        "slot": "101",
        "type": "t_mapping(t_bytes32,t_struct(RoleData)260_storage)"
      },
      {
        "astId": 509,
        "contract": "contracts/protocol/core/CreditDesk.sol:CreditDesk",
        "label": "__gap",
        "offset": 0,
        "slot": "102",
        "type": "t_array(t_uint256)49_storage"
      },
      {
        "astId": 2385,
        "contract": "contracts/protocol/core/CreditDesk.sol:CreditDesk",
        "label": "_paused",
        "offset": 0,
        "slot": "151",
        "type": "t_bool"
      },
      {
        "astId": 2474,
        "contract": "contracts/protocol/core/CreditDesk.sol:CreditDesk",
        "label": "__gap",
        "offset": 0,
        "slot": "152",
        "type": "t_array(t_uint256)49_storage"
      },
      {
        "astId": 2483,
        "contract": "contracts/protocol/core/CreditDesk.sol:CreditDesk",
        "label": "_notEntered",
        "offset": 0,
        "slot": "201",
        "type": "t_bool"
      },
      {
        "astId": 2524,
        "contract": "contracts/protocol/core/CreditDesk.sol:CreditDesk",
        "label": "__gap",
        "offset": 0,
        "slot": "202",
        "type": "t_array(t_uint256)49_storage"
      },
      {
        "astId": 4836,
        "contract": "contracts/protocol/core/CreditDesk.sol:CreditDesk",
        "label": "__gap1",
        "offset": 0,
        "slot": "251",
        "type": "t_array(t_uint256)50_storage"
      },
      {
        "astId": 4840,
        "contract": "contracts/protocol/core/CreditDesk.sol:CreditDesk",
        "label": "__gap2",
        "offset": 0,
        "slot": "301",
        "type": "t_array(t_uint256)50_storage"
      },
      {
        "astId": 4844,
        "contract": "contracts/protocol/core/CreditDesk.sol:CreditDesk",
        "label": "__gap3",
        "offset": 0,
        "slot": "351",
        "type": "t_array(t_uint256)50_storage"
      },
      {
        "astId": 4848,
        "contract": "contracts/protocol/core/CreditDesk.sol:CreditDesk",
        "label": "__gap4",
        "offset": 0,
        "slot": "401",
        "type": "t_array(t_uint256)50_storage"
      },
      {
        "astId": 4128,
        "contract": "contracts/protocol/core/CreditDesk.sol:CreditDesk",
        "label": "totalWritedowns",
        "offset": 0,
        "slot": "451",
        "type": "t_uint256"
      },
      {
        "astId": 4130,
        "contract": "contracts/protocol/core/CreditDesk.sol:CreditDesk",
        "label": "totalLoansOutstanding",
        "offset": 0,
        "slot": "452",
        "type": "t_uint256"
      },
      {
        "astId": 5474,
        "contract": "contracts/protocol/core/CreditDesk.sol:CreditDesk",
        "label": "config",
        "offset": 0,
        "slot": "453",
        "type": "t_contract(GoldfinchConfig)8182"
      },
      {
        "astId": 5531,
        "contract": "contracts/protocol/core/CreditDesk.sol:CreditDesk",
        "label": "underwriters",
        "offset": 0,
        "slot": "454",
        "type": "t_mapping(t_address,t_struct(Underwriter)5483_storage)"
      },
      {
        "astId": 5535,
        "contract": "contracts/protocol/core/CreditDesk.sol:CreditDesk",
        "label": "borrowers",
        "offset": 0,
        "slot": "455",
        "type": "t_mapping(t_address,t_struct(Borrower)5487_storage)"
      },
      {
        "astId": 5539,
        "contract": "contracts/protocol/core/CreditDesk.sol:CreditDesk",
        "label": "creditLines",
        "offset": 0,
        "slot": "456",
        "type": "t_mapping(t_address,t_address)"
      }
    ],
    "types": {
      "t_address": {
        "encoding": "inplace",
        "label": "address",
        "numberOfBytes": "20"
      },
      "t_array(t_address)dyn_storage": {
        "base": "t_address",
        "encoding": "dynamic_array",
        "label": "address[]",
        "numberOfBytes": "32"
      },
      "t_array(t_bytes32)dyn_storage": {
        "base": "t_bytes32",
        "encoding": "dynamic_array",
        "label": "bytes32[]",
        "numberOfBytes": "32"
      },
      "t_array(t_uint256)49_storage": {
        "base": "t_uint256",
        "encoding": "inplace",
        "label": "uint256[49]",
        "numberOfBytes": "1568"
      },
      "t_array(t_uint256)50_storage": {
        "base": "t_uint256",
        "encoding": "inplace",
        "label": "uint256[50]",
        "numberOfBytes": "1600"
      },
      "t_bool": {
        "encoding": "inplace",
        "label": "bool",
        "numberOfBytes": "1"
      },
      "t_bytes32": {
        "encoding": "inplace",
        "label": "bytes32",
        "numberOfBytes": "32"
      },
      "t_contract(GoldfinchConfig)8182": {
        "encoding": "inplace",
        "label": "contract GoldfinchConfig",
        "numberOfBytes": "20"
      },
      "t_mapping(t_address,t_address)": {
        "encoding": "mapping",
        "key": "t_address",
        "label": "mapping(address => address)",
        "numberOfBytes": "32",
        "value": "t_address"
      },
      "t_mapping(t_address,t_struct(Borrower)5487_storage)": {
        "encoding": "mapping",
        "key": "t_address",
        "label": "mapping(address => struct CreditDesk.Borrower)",
        "numberOfBytes": "32",
        "value": "t_struct(Borrower)5487_storage"
      },
      "t_mapping(t_address,t_struct(Underwriter)5483_storage)": {
        "encoding": "mapping",
        "key": "t_address",
        "label": "mapping(address => struct CreditDesk.Underwriter)",
        "numberOfBytes": "32",
        "value": "t_struct(Underwriter)5483_storage"
      },
      "t_mapping(t_bytes32,t_struct(RoleData)260_storage)": {
        "encoding": "mapping",
        "key": "t_bytes32",
        "label": "mapping(bytes32 => struct AccessControlUpgradeSafe.RoleData)",
        "numberOfBytes": "32",
        "value": "t_struct(RoleData)260_storage"
      },
      "t_mapping(t_bytes32,t_uint256)": {
        "encoding": "mapping",
        "key": "t_bytes32",
        "label": "mapping(bytes32 => uint256)",
        "numberOfBytes": "32",
        "value": "t_uint256"
      },
      "t_struct(AddressSet)2160_storage": {
        "encoding": "inplace",
        "label": "struct EnumerableSet.AddressSet",
        "members": [
          {
            "astId": 2159,
            "contract": "contracts/protocol/core/CreditDesk.sol:CreditDesk",
            "label": "_inner",
            "offset": 0,
            "slot": "0",
            "type": "t_struct(Set)1980_storage"
          }
        ],
        "numberOfBytes": "64"
      },
      "t_struct(Borrower)5487_storage": {
        "encoding": "inplace",
        "label": "struct CreditDesk.Borrower",
        "members": [
          {
            "astId": 5486,
            "contract": "contracts/protocol/core/CreditDesk.sol:CreditDesk",
            "label": "creditLines",
            "offset": 0,
            "slot": "0",
            "type": "t_array(t_address)dyn_storage"
          }
        ],
        "numberOfBytes": "32"
      },
      "t_struct(RoleData)260_storage": {
        "encoding": "inplace",
        "label": "struct AccessControlUpgradeSafe.RoleData",
        "members": [
          {
            "astId": 257,
            "contract": "contracts/protocol/core/CreditDesk.sol:CreditDesk",
            "label": "members",
            "offset": 0,
            "slot": "0",
            "type": "t_struct(AddressSet)2160_storage"
          },
          {
            "astId": 259,
            "contract": "contracts/protocol/core/CreditDesk.sol:CreditDesk",
            "label": "adminRole",
            "offset": 0,
            "slot": "2",
            "type": "t_bytes32"
          }
        ],
        "numberOfBytes": "96"
      },
      "t_struct(Set)1980_storage": {
        "encoding": "inplace",
        "label": "struct EnumerableSet.Set",
        "members": [
          {
            "astId": 1975,
            "contract": "contracts/protocol/core/CreditDesk.sol:CreditDesk",
            "label": "_values",
            "offset": 0,
            "slot": "0",
            "type": "t_array(t_bytes32)dyn_storage"
          },
          {
            "astId": 1979,
            "contract": "contracts/protocol/core/CreditDesk.sol:CreditDesk",
            "label": "_indexes",
            "offset": 0,
            "slot": "1",
            "type": "t_mapping(t_bytes32,t_uint256)"
          }
        ],
        "numberOfBytes": "64"
      },
      "t_struct(Underwriter)5483_storage": {
        "encoding": "inplace",
        "label": "struct CreditDesk.Underwriter",
        "members": [
          {
            "astId": 5479,
            "contract": "contracts/protocol/core/CreditDesk.sol:CreditDesk",
            "label": "governanceLimit",
            "offset": 0,
            "slot": "0",
            "type": "t_uint256"
          },
          {
            "astId": 5482,
            "contract": "contracts/protocol/core/CreditDesk.sol:CreditDesk",
            "label": "creditLines",
            "offset": 0,
            "slot": "1",
            "type": "t_array(t_address)dyn_storage"
          }
        ],
        "numberOfBytes": "64"
      },
      "t_uint256": {
        "encoding": "inplace",
        "label": "uint256",
        "numberOfBytes": "32"
      }
    }
  }
}