{
  "abi": [
    {
      "anonymous": false,
      "inputs": [
        {
          "indexed": false,
          "internalType": "address",
          "name": "account",
          "type": "address"
        }
      ],
      "name": "Paused",
      "type": "event"
    },
    {
      "anonymous": false,
      "inputs": [
        {
          "indexed": true,
          "internalType": "bytes32",
          "name": "role",
          "type": "bytes32"
        },
        {
          "indexed": true,
          "internalType": "address",
          "name": "account",
          "type": "address"
        },
        {
          "indexed": true,
          "internalType": "address",
          "name": "sender",
          "type": "address"
        }
      ],
      "name": "RoleGranted",
      "type": "event"
    },
    {
      "anonymous": false,
      "inputs": [
        {
          "indexed": true,
          "internalType": "bytes32",
          "name": "role",
          "type": "bytes32"
        },
        {
          "indexed": true,
          "internalType": "address",
          "name": "account",
          "type": "address"
        },
        {
          "indexed": true,
          "internalType": "address",
          "name": "sender",
          "type": "address"
        }
      ],
      "name": "RoleRevoked",
      "type": "event"
    },
    {
      "anonymous": false,
      "inputs": [
        {
          "indexed": false,
          "internalType": "address",
          "name": "account",
          "type": "address"
        }
      ],
      "name": "Unpaused",
      "type": "event"
    },
    {
      "inputs": [],
      "name": "DEFAULT_ADMIN_ROLE",
      "outputs": [
        {
          "internalType": "bytes32",
          "name": "",
          "type": "bytes32"
        }
      ],
      "stateMutability": "view",
      "type": "function"
    },
    {
      "inputs": [],
      "name": "OWNER_ROLE",
      "outputs": [
        {
          "internalType": "bytes32",
          "name": "",
          "type": "bytes32"
        }
      ],
      "stateMutability": "view",
      "type": "function"
    },
    {
      "inputs": [],
      "name": "PAUSER_ROLE",
      "outputs": [
        {
          "internalType": "bytes32",
          "name": "",
          "type": "bytes32"
        }
      ],
      "stateMutability": "view",
      "type": "function"
    },
    {
      "inputs": [
        {
          "internalType": "address",
          "name": "owner",
          "type": "address"
        }
      ],
      "name": "__BaseUpgradeablePausable__init",
      "outputs": [],
      "stateMutability": "nonpayable",
      "type": "function"
    },
    {
      "inputs": [],
      "name": "__PauserPausable__init",
      "outputs": [],
      "stateMutability": "nonpayable",
      "type": "function"
    },
    {
      "inputs": [
        {
          "internalType": "address",
          "name": "configAddress",
          "type": "address"
        }
      ],
      "name": "authorizePool",
      "outputs": [],
      "stateMutability": "nonpayable",
      "type": "function"
    },
    {
      "inputs": [],
      "name": "balance",
      "outputs": [
        {
          "internalType": "uint256",
          "name": "",
          "type": "uint256"
        }
      ],
      "stateMutability": "view",
      "type": "function"
    },
    {
      "inputs": [],
      "name": "borrower",
      "outputs": [
        {
          "internalType": "address",
          "name": "",
          "type": "address"
        }
      ],
      "stateMutability": "view",
      "type": "function"
    },
    {
      "inputs": [],
      "name": "collectedPaymentBalance",
      "outputs": [
        {
          "internalType": "uint256",
          "name": "",
          "type": "uint256"
        }
      ],
      "stateMutability": "view",
      "type": "function"
    },
    {
      "inputs": [
        {
          "internalType": "bytes32",
          "name": "role",
          "type": "bytes32"
        }
      ],
      "name": "getRoleAdmin",
      "outputs": [
        {
          "internalType": "bytes32",
          "name": "",
          "type": "bytes32"
        }
      ],
      "stateMutability": "view",
      "type": "function"
    },
    {
      "inputs": [
        {
          "internalType": "bytes32",
          "name": "role",
          "type": "bytes32"
        },
        {
          "internalType": "uint256",
          "name": "index",
          "type": "uint256"
        }
      ],
      "name": "getRoleMember",
      "outputs": [
        {
          "internalType": "address",
          "name": "",
          "type": "address"
        }
      ],
      "stateMutability": "view",
      "type": "function"
    },
    {
      "inputs": [
        {
          "internalType": "bytes32",
          "name": "role",
          "type": "bytes32"
        }
      ],
      "name": "getRoleMemberCount",
      "outputs": [
        {
          "internalType": "uint256",
          "name": "",
          "type": "uint256"
        }
      ],
      "stateMutability": "view",
      "type": "function"
    },
    {
      "inputs": [
        {
          "internalType": "bytes32",
          "name": "role",
          "type": "bytes32"
        },
        {
          "internalType": "address",
          "name": "account",
          "type": "address"
        }
      ],
      "name": "grantRole",
      "outputs": [],
      "stateMutability": "nonpayable",
      "type": "function"
    },
    {
      "inputs": [
        {
          "internalType": "bytes32",
          "name": "role",
          "type": "bytes32"
        },
        {
          "internalType": "address",
          "name": "account",
          "type": "address"
        }
      ],
      "name": "hasRole",
      "outputs": [
        {
          "internalType": "bool",
          "name": "",
          "type": "bool"
        }
      ],
      "stateMutability": "view",
      "type": "function"
    },
    {
      "inputs": [
        {
          "internalType": "address",
          "name": "owner",
          "type": "address"
        },
        {
          "internalType": "address",
          "name": "_borrower",
          "type": "address"
        },
        {
          "internalType": "address",
          "name": "_underwriter",
          "type": "address"
        },
        {
          "internalType": "uint256",
          "name": "_limit",
          "type": "uint256"
        },
        {
          "internalType": "uint256",
          "name": "_interestApr",
          "type": "uint256"
        },
        {
          "internalType": "uint256",
          "name": "_paymentPeriodInDays",
          "type": "uint256"
        },
        {
          "internalType": "uint256",
          "name": "_termInDays",
          "type": "uint256"
        }
      ],
      "name": "initialize",
      "outputs": [],
      "stateMutability": "nonpayable",
      "type": "function"
    },
    {
      "inputs": [],
      "name": "interestApr",
      "outputs": [
        {
          "internalType": "uint256",
          "name": "",
          "type": "uint256"
        }
      ],
      "stateMutability": "view",
      "type": "function"
    },
    {
      "inputs": [],
      "name": "interestOwed",
      "outputs": [
        {
          "internalType": "uint256",
          "name": "",
          "type": "uint256"
        }
      ],
      "stateMutability": "view",
      "type": "function"
    },
    {
      "inputs": [],
      "name": "isAdmin",
      "outputs": [
        {
          "internalType": "bool",
          "name": "",
          "type": "bool"
        }
      ],
      "stateMutability": "view",
      "type": "function"
    },
    {
      "inputs": [],
      "name": "lastUpdatedBlock",
      "outputs": [
        {
          "internalType": "uint256",
          "name": "",
          "type": "uint256"
        }
      ],
      "stateMutability": "view",
      "type": "function"
    },
    {
      "inputs": [],
      "name": "limit",
      "outputs": [
        {
          "internalType": "uint256",
          "name": "",
          "type": "uint256"
        }
      ],
      "stateMutability": "view",
      "type": "function"
    },
    {
      "inputs": [],
      "name": "nextDueBlock",
      "outputs": [
        {
          "internalType": "uint256",
          "name": "",
          "type": "uint256"
        }
      ],
      "stateMutability": "view",
      "type": "function"
    },
    {
      "inputs": [],
      "name": "pause",
      "outputs": [],
      "stateMutability": "nonpayable",
      "type": "function"
    },
    {
      "inputs": [],
      "name": "paused",
      "outputs": [
        {
          "internalType": "bool",
          "name": "",
          "type": "bool"
        }
      ],
      "stateMutability": "view",
      "type": "function"
    },
    {
      "inputs": [],
      "name": "paymentPeriodInDays",
      "outputs": [
        {
          "internalType": "uint256",
          "name": "",
          "type": "uint256"
        }
      ],
      "stateMutability": "view",
      "type": "function"
    },
    {
      "inputs": [],
      "name": "principalOwed",
      "outputs": [
        {
          "internalType": "uint256",
          "name": "",
          "type": "uint256"
        }
      ],
      "stateMutability": "view",
      "type": "function"
    },
    {
      "inputs": [
        {
          "internalType": "bytes32",
          "name": "role",
          "type": "bytes32"
        },
        {
          "internalType": "address",
          "name": "account",
          "type": "address"
        }
      ],
      "name": "renounceRole",
      "outputs": [],
      "stateMutability": "nonpayable",
      "type": "function"
    },
    {
      "inputs": [
        {
          "internalType": "bytes32",
          "name": "role",
          "type": "bytes32"
        },
        {
          "internalType": "address",
          "name": "account",
          "type": "address"
        }
      ],
      "name": "revokeRole",
      "outputs": [],
      "stateMutability": "nonpayable",
      "type": "function"
    },
    {
      "inputs": [
        {
          "internalType": "uint256",
          "name": "newBalance",
          "type": "uint256"
        }
      ],
      "name": "setBalance",
      "outputs": [],
      "stateMutability": "nonpayable",
      "type": "function"
    },
    {
      "inputs": [
        {
          "internalType": "uint256",
          "name": "newCollectedPaymentBalance",
          "type": "uint256"
        }
      ],
      "name": "setCollectedPaymentBalance",
      "outputs": [],
      "stateMutability": "nonpayable",
      "type": "function"
    },
    {
      "inputs": [
        {
          "internalType": "uint256",
          "name": "newInterestOwed",
          "type": "uint256"
        }
      ],
      "name": "setInterestOwed",
      "outputs": [],
      "stateMutability": "nonpayable",
      "type": "function"
    },
    {
      "inputs": [
        {
          "internalType": "uint256",
          "name": "newLastUpdatedBlock",
          "type": "uint256"
        }
      ],
      "name": "setLastUpdatedBlock",
      "outputs": [],
      "stateMutability": "nonpayable",
      "type": "function"
    },
    {
      "inputs": [
        {
          "internalType": "uint256",
          "name": "newAmount",
          "type": "uint256"
        }
      ],
      "name": "setLimit",
      "outputs": [],
      "stateMutability": "nonpayable",
      "type": "function"
    },
    {
      "inputs": [
        {
          "internalType": "uint256",
          "name": "newNextDueBlock",
          "type": "uint256"
        }
      ],
      "name": "setNextDueBlock",
      "outputs": [],
      "stateMutability": "nonpayable",
      "type": "function"
    },
    {
      "inputs": [
        {
          "internalType": "uint256",
          "name": "newPrincipalOwed",
          "type": "uint256"
        }
      ],
      "name": "setPrincipalOwed",
      "outputs": [],
      "stateMutability": "nonpayable",
      "type": "function"
    },
    {
      "inputs": [
        {
          "internalType": "uint256",
          "name": "newTermEndBlock",
          "type": "uint256"
        }
      ],
      "name": "setTermEndBlock",
      "outputs": [],
      "stateMutability": "nonpayable",
      "type": "function"
    },
    {
      "inputs": [
        {
          "internalType": "uint256",
          "name": "newWritedownAmount",
          "type": "uint256"
        }
      ],
      "name": "setWritedownAmount",
      "outputs": [],
      "stateMutability": "nonpayable",
      "type": "function"
    },
    {
      "inputs": [],
      "name": "termEndBlock",
      "outputs": [
        {
          "internalType": "uint256",
          "name": "",
          "type": "uint256"
        }
      ],
      "stateMutability": "view",
      "type": "function"
    },
    {
      "inputs": [],
      "name": "termInDays",
      "outputs": [
        {
          "internalType": "uint256",
          "name": "",
          "type": "uint256"
        }
      ],
      "stateMutability": "view",
      "type": "function"
    },
    {
      "inputs": [],
      "name": "underwriter",
      "outputs": [
        {
          "internalType": "address",
          "name": "",
          "type": "address"
        }
      ],
      "stateMutability": "view",
      "type": "function"
    },
    {
      "inputs": [],
      "name": "unpause",
      "outputs": [],
      "stateMutability": "nonpayable",
      "type": "function"
    },
    {
      "inputs": [],
      "name": "writedownAmount",
      "outputs": [
        {
          "internalType": "uint256",
          "name": "",
          "type": "uint256"
        }
      ],
      "stateMutability": "view",
      "type": "function"
    }
  ],
  "address": "0x588cBF90FdfB47ceCF23d999BCcEEe1154fF6869",
  "args": [],
  "solcInputHash": "0x61965cc0b5abb55abef9f7574b76c9051fc488b5a6cbd46c33e8f9d520f338be",
  "bytecode": "0x608060405234801561001057600080fd5b506117e0806100206000396000f3fe608060405234801561001057600080fd5b50600436106102535760003560e01c80637df1f1b911610146578063b69ef8a8116100c3578063e58378bb11610087578063e58378bb1461045d578063e63ab1e914610465578063f00db2601461046d578063f90ce5ba14610475578063fb1669ca1461047d578063fb9eb9901461049057610253565b8063b69ef8a81461041f578063b6db75a014610427578063ca15c8731461042f578063cc862de514610442578063d547741f1461044a57610253565b806399dd8df31161010a57806399dd8df3146103ec578063a217fddf146103f4578063a4d66daf146103fc578063b396999214610404578063b3b8a9c71461040c57610253565b80637df1f1b9146103965780638456cb59146103ab5780639010d07c146103b357806391d14854146103c657806396c8df37146103d957610253565b80632f2ff15d116101d4578063500b245e11610198578063500b245e14610356578063526d81f61461035e5780635c975abb14610366578063791be83c1461037b5780637957dda31461038357610253565b80632f2ff15d1461030d5780633059b7c61461032057806336568abe146103335780633f4ba83a1461034657806348e6f2961461034e57610253565b8063248a9ca31161021b578063248a9ca3146102ae5780632771eca8146102c157806327e7b263146102d457806327ea6f2b146102e75780632b4656c8146102fa57610253565b806308bd7f8414610258578063097616a31461026d5780631790ebd514610280578063193501141461029e57806321856b36146102a6575b600080fd5b61026b61026636600461135b565b6104a3565b005b61026b61027b36600461128f565b6104d6565b610288610603565b6040516102959190611428565b60405180910390f35b61028861060a565b610288610611565b6102886102bc36600461135b565b610618565b61026b6102cf36600461135b565b61062d565b61026b6102e236600461135b565b610657565b61026b6102f536600461135b565b610681565b61026b6103083660046112ce565b6106d1565b61026b61031b366004611373565b610803565b61026b61032e36600461128f565b610847565b61026b610341366004611373565b610a17565b61026b610a59565b610288610a9e565b610288610aa5565b61026b610aac565b61036e610b37565b604051610295919061141d565b610288610b40565b61026b61039136600461135b565b610b47565b61039e610b71565b60405161029591906113f0565b61026b610b81565b61039e6103c13660046113a2565b610bb4565b61036e6103d4366004611373565b610bdb565b61026b6103e736600461135b565b610bf9565b610288610c23565b610288610c2a565b610288610c2f565b610288610c36565b61026b61041a36600461135b565b610c3d565b610288610c67565b61036e610c6e565b61028861043d36600461135b565b610c84565b610288610c9b565b61026b610458366004611373565b610ca2565b610288610cdc565b610288610cf3565b61039e610cff565b610288610d0f565b61026b61048b36600461135b565b610d16565b61026b61049e36600461135b565b610d40565b6104ab610c6e565b6104d05760405162461bcd60e51b81526004016104c7906116fb565b60405180910390fd5b6101cc55565b600054610100900460ff16806104ef57506104ef610d6a565b806104fd575060005460ff16155b6105195760405162461bcd60e51b81526004016104c790611606565b600054610100900460ff16158015610544576000805460ff1961ff0019909116610100171660011790555b6001600160a01b03821661056a5760405162461bcd60e51b81526004016104c7906115d1565b610572610d70565b61057a610df1565b610582610e7d565b61059f604051610591906113da565b60405180910390208361083d565b6105ae604051610591906113c3565b6105de6040516105bd906113c3565b60405180910390206040516105d1906113da565b6040518091039020610f0c565b6105ed6040516105bd906113da565b80156105ff576000805461ff00191690555b5050565b6101cd5481565b6101cb5481565b6101ca5481565b60009081526065602052604090206002015490565b610635610c6e565b6106515760405162461bcd60e51b81526004016104c7906116fb565b6101d055565b61065f610c6e565b61067b5760405162461bcd60e51b81526004016104c7906116fb565b6101cf55565b610689610c6e565b806106af57506101c4546001600160a01b03166106a4610f21565b6001600160a01b0316145b6106cb5760405162461bcd60e51b81526004016104c790611654565b6101c555565b600054610100900460ff16806106ea57506106ea610d6a565b806106f8575060005460ff16155b6107145760405162461bcd60e51b81526004016104c790611606565b600054610100900460ff1615801561073f576000805460ff1961ff0019909116610100171660011790555b6001600160a01b0388161580159061075f57506001600160a01b03871615155b801561077357506001600160a01b03861615155b61078f5760405162461bcd60e51b81526004016104c790611696565b610798886104d6565b6101c380546001600160a01b03808a166001600160a01b0319928316179092556101c48054928916929091169190911790556101c58590556101c68490556101c78390556101c8829055436101cf5580156107f9576000805461ff00191690555b5050505050505050565b600082815260656020526040902060020154610821906103d4610f21565b61083d5760405162461bcd60e51b81526004016104c790611473565b6105ff8282610f25565b61084f610c6e565b61086b5760405162461bcd60e51b81526004016104c7906116fb565b8060006001600160a01b03821663b93f9b0a826040518263ffffffff1660e01b815260040161089a9190611428565b60206040518083038186803b1580156108b257600080fd5b505afa1580156108c6573d6000803e3d6000fd5b505050506040513d601f19601f820116820180604052508101906108ea91906112b2565b905060006001600160a01b03831663b93f9b0a60056040518263ffffffff1660e01b815260040161091b9190611428565b60206040518083038186803b15801561093357600080fd5b505afa158015610947573d6000803e3d6000fd5b505050506040513d601f19601f8201168201806040525081019061096b91906112b2565b90506000816001600160a01b031663095ea7b3846000196040518363ffffffff1660e01b815260040161099f929190611404565b602060405180830381600087803b1580156109b957600080fd5b505af11580156109cd573d6000803e3d6000fd5b505050506040513d601f19601f820116820180604052508101906109f1919061133b565b905080610a105760405162461bcd60e51b81526004016104c7906114f0565b5050505050565b610a1f610f21565b6001600160a01b0316816001600160a01b031614610a4f5760405162461bcd60e51b81526004016104c790611746565b6105ff8282610f94565b610a78604051610a68906113c3565b60405180910390206103d4610f21565b610a945760405162461bcd60e51b81526004016104c7906116c6565b610a9c611003565b565b6101c85481565b6101ce5481565b600054610100900460ff1680610ac55750610ac5610d6a565b80610ad3575060005460ff16155b610aef5760405162461bcd60e51b81526004016104c790611606565b600054610100900460ff16158015610b1a576000805460ff1961ff0019909116610100171660011790555b610b22610df1565b8015610b34576000805461ff00191690555b50565b60975460ff1690565b6101cc5481565b610b4f610c6e565b610b6b5760405162461bcd60e51b81526004016104c7906116fb565b6101ce55565b6101c3546001600160a01b031681565b610b90604051610a68906113c3565b610bac5760405162461bcd60e51b81526004016104c790611570565b610a9c61106f565b6000828152606560205260408120610bd2908363ffffffff6110c816565b90505b92915050565b6000828152606560205260408120610bd2908363ffffffff6110d416565b610c01610c6e565b610c1d5760405162461bcd60e51b81526004016104c7906116fb565b6101ca55565b6101c75481565b600081565b6101c55481565b6101c65481565b610c45610c6e565b610c615760405162461bcd60e51b81526004016104c7906116fb565b6101cb55565b6101c95481565b6000610c7f604051610a68906113da565b905090565b6000818152606560205260408120610bd5906110e9565b6101d05481565b600082815260656020526040902060020154610cc0906103d4610f21565b610a4f5760405162461bcd60e51b81526004016104c790611520565b604051610ce8906113da565b604051809103902081565b604051610ce8906113c3565b6101c4546001600160a01b031681565b6101cf5481565b610d1e610c6e565b610d3a5760405162461bcd60e51b81526004016104c7906116fb565b6101c955565b610d48610c6e565b610d645760405162461bcd60e51b81526004016104c7906116fb565b6101cd55565b303b1590565b600054610100900460ff1680610d895750610d89610d6a565b80610d97575060005460ff16155b610db35760405162461bcd60e51b81526004016104c790611606565b600054610100900460ff16158015610b22576000805460ff1961ff0019909116610100171660011790558015610b34576000805461ff001916905550565b600054610100900460ff1680610e0a5750610e0a610d6a565b80610e18575060005460ff16155b610e345760405162461bcd60e51b81526004016104c790611606565b600054610100900460ff16158015610e5f576000805460ff1961ff0019909116610100171660011790555b6097805460ff191690558015610b34576000805461ff001916905550565b600054610100900460ff1680610e965750610e96610d6a565b80610ea4575060005460ff16155b610ec05760405162461bcd60e51b81526004016104c790611606565b600054610100900460ff16158015610eeb576000805460ff1961ff0019909116610100171660011790555b60c9805460ff191660011790558015610b34576000805461ff001916905550565b60009182526065602052604090912060020155565b3390565b6000828152606560205260409020610f43908263ffffffff6110f416565b156105ff57610f50610f21565b6001600160a01b0316816001600160a01b0316837f2f8788117e7eff1d82e926ec794901d17c78024a50270940304540a733656f0d60405160405180910390a45050565b6000828152606560205260409020610fb2908263ffffffff61110916565b156105ff57610fbf610f21565b6001600160a01b0316816001600160a01b0316837ff6391f5c32d9c69d2a47ea670b442974b53935d1edc7fd64eb21e047a839171b60405160405180910390a45050565b60975460ff166110255760405162461bcd60e51b81526004016104c7906114c2565b6097805460ff191690557f5db9ee0a495bf2e6ff9c91a7834c1ba4fdd244a5e8aa4e537bd38aeae4b073aa611058610f21565b60405161106591906113f0565b60405180910390a1565b60975460ff16156110925760405162461bcd60e51b81526004016104c7906115a7565b6097805460ff191660011790557f62e78cea01bee320cd4e420270b5ea74000d11b0c9f74754ebdbfc544b05a258611058610f21565b6000610bd2838361111e565b6000610bd2836001600160a01b038416611163565b6000610bd58261117b565b6000610bd2836001600160a01b03841661117f565b6000610bd2836001600160a01b0384166111c9565b815460009082106111415760405162461bcd60e51b81526004016104c790611431565b82600001828154811061115057fe5b9060005260206000200154905092915050565b60009081526001919091016020526040902054151590565b5490565b600061118b8383611163565b6111c157508154600181810184556000848152602080822090930184905584548482528286019093526040902091909155610bd5565b506000610bd5565b6000818152600183016020526040812054801561128557835460001980830191908101906000908790839081106111fc57fe5b906000526020600020015490508087600001848154811061121957fe5b60009182526020808320909101929092558281526001898101909252604090209084019055865487908061124957fe5b60019003818190600052602060002001600090559055866001016000878152602001908152602001600020600090556001945050505050610bd5565b6000915050610bd5565b6000602082840312156112a0578081fd5b81356112ab81611795565b9392505050565b6000602082840312156112c3578081fd5b81516112ab81611795565b600080600080600080600060e0888a0312156112e8578283fd5b87356112f381611795565b9650602088013561130381611795565b9550604088013561131381611795565b969995985095966060810135965060808101359560a0820135955060c0909101359350915050565b60006020828403121561134c578081fd5b815180151581146112ab578182fd5b60006020828403121561136c578081fd5b5035919050565b60008060408385031215611385578182fd5b82359150602083013561139781611795565b809150509250929050565b600080604083850312156113b4578182fd5b50508035926020909101359150565b6a5041555345525f524f4c4560a81b8152600b0190565b694f574e45525f524f4c4560b01b8152600a0190565b6001600160a01b0391909116815260200190565b6001600160a01b03929092168252602082015260400190565b901515815260200190565b90815260200190565b60208082526022908201527f456e756d657261626c655365743a20696e646578206f7574206f6620626f756e604082015261647360f01b606082015260800190565b6020808252602f908201527f416363657373436f6e74726f6c3a2073656e646572206d75737420626520616e60408201526e0818591b5a5b881d1bc819dc985b9d608a1b606082015260800190565b60208082526014908201527314185d5cd8589b194e881b9bdd081c185d5cd95960621b604082015260600190565b6020808252601690820152754661696c656420746f20617070726f7665205553444360501b604082015260600190565b60208082526030908201527f416363657373436f6e74726f6c3a2073656e646572206d75737420626520616e60408201526f2061646d696e20746f207265766f6b6560801b606082015260800190565b6020808252601e908201527f4d75737420686176652070617573657220726f6c6520746f2070617573650000604082015260600190565b60208082526010908201526f14185d5cd8589b194e881c185d5cd95960821b604082015260600190565b6020808252818101527f4f776e65722063616e6e6f7420626520746865207a65726f2061646472657373604082015260600190565b6020808252602e908201527f436f6e747261637420696e7374616e63652068617320616c726561647920626560408201526d195b881a5b9a5d1a585b1a5e995960921b606082015260800190565b60208082526022908201527f5265737472696374656420746f206f776e6572206f7220756e6465727772697460408201526132b960f11b606082015260800190565b6020808252601690820152752d32b9379030b2323932b9b9903830b9b9b2b21034b760511b604082015260600190565b6020808252818101527f4d75737420686176652070617573657220726f6c6520746f20756e7061757365604082015260600190565b6020808252602b908201527f4d75737420686176652061646d696e20726f6c6520746f20706572666f726d2060408201526a3a3434b99030b1ba34b7b760a91b606082015260800190565b6020808252602f908201527f416363657373436f6e74726f6c3a2063616e206f6e6c792072656e6f756e636560408201526e103937b632b9903337b91039b2b63360891b606082015260800190565b6001600160a01b0381168114610b3457600080fdfea2646970667358221220a0d7959ce78238de22bbb2be5add0aea6a73f743f1a49d266038a1bfc0aee92964736f6c63430006080033",
  "devdoc": {
    "author": "Goldfinch",
    "methods": {
      "getRoleAdmin(bytes32)": {
        "details": "Returns the admin role that controls `role`. See {grantRole} and {revokeRole}.     * To change a role's admin, use {_setRoleAdmin}."
      },
      "getRoleMember(bytes32,uint256)": {
        "details": "Returns one of the accounts that have `role`. `index` must be a value between 0 and {getRoleMemberCount}, non-inclusive.     * Role bearers are not sorted in any particular way, and their ordering may change at any point.     * WARNING: When using {getRoleMember} and {getRoleMemberCount}, make sure you perform all queries on the same block. See the following https://forum.openzeppelin.com/t/iterating-over-elements-on-enumerableset-in-openzeppelin-contracts/2296[forum post] for more information."
      },
      "getRoleMemberCount(bytes32)": {
        "details": "Returns the number of accounts that have `role`. Can be used together with {getRoleMember} to enumerate all bearers of a role."
      },
      "grantRole(bytes32,address)": {
        "details": "Grants `role` to `account`.     * If `account` had not been already granted `role`, emits a {RoleGranted} event.     * Requirements:     * - the caller must have ``role``'s admin role."
      },
      "hasRole(bytes32,address)": {
        "details": "Returns `true` if `account` has been granted `role`."
      },
      "pause()": {
        "details": "Pauses all functions guarded by Pause   * See {Pausable-_pause}.   * Requirements:   * - the caller must have the PAUSER_ROLE."
      },
      "paused()": {
        "details": "Returns true if the contract is paused, and false otherwise."
      },
      "renounceRole(bytes32,address)": {
        "details": "Revokes `role` from the calling account.     * Roles are often managed via {grantRole} and {revokeRole}: this function's purpose is to provide a mechanism for accounts to lose their privileges if they are compromised (such as when a trusted device is misplaced).     * If the calling account had been granted `role`, emits a {RoleRevoked} event.     * Requirements:     * - the caller must be `account`."
      },
      "revokeRole(bytes32,address)": {
        "details": "Revokes `role` from `account`.     * If `account` had been granted `role`, emits a {RoleRevoked} event.     * Requirements:     * - the caller must have ``role``'s admin role."
      },
      "unpause()": {
        "details": "Unpauses the contract   * See {Pausable-_unpause}.   * Requirements:   * - the caller must have the Pauser role"
      }
    },
    "title": "CreditLine"
  },
  "userdoc": {
    "methods": {},
    "notice": "A \"dumb\" state container that represents the agreement between an Underwriter and the borrower. Includes the terms of the loan, as well as the current accounting state, such as interest owed. This contract purposefully has essentially no business logic. Really just setters and getters."
  },
  "storageLayout": {
    "storage": [
      {
        "astId": 49,
        "contract": "contracts/protocol/CreditLine.sol:CreditLine",
        "label": "initialized",
        "offset": 0,
        "slot": "0",
        "type": "t_bool"
      },
      {
        "astId": 51,
        "contract": "contracts/protocol/CreditLine.sol:CreditLine",
        "label": "initializing",
        "offset": 1,
        "slot": "0",
        "type": "t_bool"
      },
      {
        "astId": 116,
        "contract": "contracts/protocol/CreditLine.sol:CreditLine",
        "label": "______gap",
        "offset": 0,
        "slot": "1",
        "type": "t_array(t_uint256)50_storage"
      },
      {
        "astId": 43,
        "contract": "contracts/protocol/CreditLine.sol:CreditLine",
        "label": "__gap",
        "offset": 0,
        "slot": "51",
        "type": "t_array(t_uint256)50_storage"
      },
      {
        "astId": 161,
        "contract": "contracts/protocol/CreditLine.sol:CreditLine",
        "label": "_roles",
        "offset": 0,
        "slot": "101",
        "type": "t_mapping(t_bytes32,t_struct(RoleData)157_storage)"
      },
      {
        "astId": 406,
        "contract": "contracts/protocol/CreditLine.sol:CreditLine",
        "label": "__gap",
        "offset": 0,
        "slot": "102",
        "type": "t_array(t_uint256)49_storage"
      },
      {
        "astId": 2282,
        "contract": "contracts/protocol/CreditLine.sol:CreditLine",
        "label": "_paused",
        "offset": 0,
        "slot": "151",
        "type": "t_bool"
      },
      {
        "astId": 2371,
        "contract": "contracts/protocol/CreditLine.sol:CreditLine",
        "label": "__gap",
        "offset": 0,
        "slot": "152",
        "type": "t_array(t_uint256)49_storage"
      },
      {
        "astId": 2380,
        "contract": "contracts/protocol/CreditLine.sol:CreditLine",
        "label": "_notEntered",
        "offset": 0,
        "slot": "201",
        "type": "t_bool"
      },
      {
        "astId": 2421,
        "contract": "contracts/protocol/CreditLine.sol:CreditLine",
        "label": "__gap",
        "offset": 0,
        "slot": "202",
        "type": "t_array(t_uint256)49_storage"
      },
      {
        "astId": 4504,
        "contract": "contracts/protocol/CreditLine.sol:CreditLine",
        "label": "__gap1",
        "offset": 0,
        "slot": "251",
        "type": "t_array(t_uint256)50_storage"
      },
      {
        "astId": 4508,
        "contract": "contracts/protocol/CreditLine.sol:CreditLine",
        "label": "__gap2",
        "offset": 0,
        "slot": "301",
        "type": "t_array(t_uint256)50_storage"
      },
      {
        "astId": 4512,
        "contract": "contracts/protocol/CreditLine.sol:CreditLine",
        "label": "__gap3",
        "offset": 0,
        "slot": "351",
        "type": "t_array(t_uint256)50_storage"
      },
      {
        "astId": 4516,
        "contract": "contracts/protocol/CreditLine.sol:CreditLine",
        "label": "__gap4",
        "offset": 0,
        "slot": "401",
        "type": "t_array(t_uint256)50_storage"
      },
      {
        "astId": 6361,
        "contract": "contracts/protocol/CreditLine.sol:CreditLine",
        "label": "borrower",
        "offset": 0,
        "slot": "451",
        "type": "t_address"
      },
      {
        "astId": 6363,
        "contract": "contracts/protocol/CreditLine.sol:CreditLine",
        "label": "underwriter",
        "offset": 0,
        "slot": "452",
        "type": "t_address"
      },
      {
        "astId": 6365,
        "contract": "contracts/protocol/CreditLine.sol:CreditLine",
        "label": "limit",
        "offset": 0,
        "slot": "453",
        "type": "t_uint256"
      },
      {
        "astId": 6367,
        "contract": "contracts/protocol/CreditLine.sol:CreditLine",
        "label": "interestApr",
        "offset": 0,
        "slot": "454",
        "type": "t_uint256"
      },
      {
        "astId": 6369,
        "contract": "contracts/protocol/CreditLine.sol:CreditLine",
        "label": "paymentPeriodInDays",
        "offset": 0,
        "slot": "455",
        "type": "t_uint256"
      },
      {
        "astId": 6371,
        "contract": "contracts/protocol/CreditLine.sol:CreditLine",
        "label": "termInDays",
        "offset": 0,
        "slot": "456",
        "type": "t_uint256"
      },
      {
        "astId": 6373,
        "contract": "contracts/protocol/CreditLine.sol:CreditLine",
        "label": "balance",
        "offset": 0,
        "slot": "457",
        "type": "t_uint256"
      },
      {
        "astId": 6375,
        "contract": "contracts/protocol/CreditLine.sol:CreditLine",
        "label": "interestOwed",
        "offset": 0,
        "slot": "458",
        "type": "t_uint256"
      },
      {
        "astId": 6377,
        "contract": "contracts/protocol/CreditLine.sol:CreditLine",
        "label": "principalOwed",
        "offset": 0,
        "slot": "459",
        "type": "t_uint256"
      },
      {
        "astId": 6379,
        "contract": "contracts/protocol/CreditLine.sol:CreditLine",
        "label": "collectedPaymentBalance",
        "offset": 0,
        "slot": "460",
        "type": "t_uint256"
      },
      {
        "astId": 6381,
        "contract": "contracts/protocol/CreditLine.sol:CreditLine",
        "label": "termEndBlock",
        "offset": 0,
        "slot": "461",
        "type": "t_uint256"
      },
      {
        "astId": 6383,
        "contract": "contracts/protocol/CreditLine.sol:CreditLine",
        "label": "nextDueBlock",
        "offset": 0,
        "slot": "462",
        "type": "t_uint256"
      },
      {
        "astId": 6385,
        "contract": "contracts/protocol/CreditLine.sol:CreditLine",
        "label": "lastUpdatedBlock",
        "offset": 0,
        "slot": "463",
        "type": "t_uint256"
      },
      {
        "astId": 6387,
        "contract": "contracts/protocol/CreditLine.sol:CreditLine",
        "label": "writedownAmount",
        "offset": 0,
        "slot": "464",
        "type": "t_uint256"
      }
    ],
    "types": {
      "t_address": {
        "encoding": "inplace",
        "label": "address",
        "numberOfBytes": "20"
      },
      "t_array(t_bytes32)dyn_storage": {
        "base": "t_bytes32",
        "encoding": "dynamic_array",
        "label": "bytes32[]",
        "numberOfBytes": "32"
      },
      "t_array(t_uint256)49_storage": {
        "base": "t_uint256",
        "encoding": "inplace",
        "label": "uint256[49]",
        "numberOfBytes": "1568"
      },
      "t_array(t_uint256)50_storage": {
        "base": "t_uint256",
        "encoding": "inplace",
        "label": "uint256[50]",
        "numberOfBytes": "1600"
      },
      "t_bool": {
        "encoding": "inplace",
        "label": "bool",
        "numberOfBytes": "1"
      },
      "t_bytes32": {
        "encoding": "inplace",
        "label": "bytes32",
        "numberOfBytes": "32"
      },
      "t_mapping(t_bytes32,t_struct(RoleData)157_storage)": {
        "encoding": "mapping",
        "key": "t_bytes32",
        "label": "mapping(bytes32 => struct AccessControlUpgradeSafe.RoleData)",
        "numberOfBytes": "32",
        "value": "t_struct(RoleData)157_storage"
      },
      "t_mapping(t_bytes32,t_uint256)": {
        "encoding": "mapping",
        "key": "t_bytes32",
        "label": "mapping(bytes32 => uint256)",
        "numberOfBytes": "32",
        "value": "t_uint256"
      },
      "t_struct(AddressSet)2057_storage": {
        "encoding": "inplace",
        "label": "struct EnumerableSet.AddressSet",
        "members": [
          {
            "astId": 2056,
            "contract": "contracts/protocol/CreditLine.sol:CreditLine",
            "label": "_inner",
            "offset": 0,
            "slot": "0",
            "type": "t_struct(Set)1877_storage"
          }
        ],
        "numberOfBytes": "64"
      },
      "t_struct(RoleData)157_storage": {
        "encoding": "inplace",
        "label": "struct AccessControlUpgradeSafe.RoleData",
        "members": [
          {
            "astId": 154,
            "contract": "contracts/protocol/CreditLine.sol:CreditLine",
            "label": "members",
            "offset": 0,
            "slot": "0",
            "type": "t_struct(AddressSet)2057_storage"
          },
          {
            "astId": 156,
            "contract": "contracts/protocol/CreditLine.sol:CreditLine",
            "label": "adminRole",
            "offset": 0,
            "slot": "2",
            "type": "t_bytes32"
          }
        ],
        "numberOfBytes": "96"
      },
      "t_struct(Set)1877_storage": {
        "encoding": "inplace",
        "label": "struct EnumerableSet.Set",
        "members": [
          {
            "astId": 1872,
            "contract": "contracts/protocol/CreditLine.sol:CreditLine",
            "label": "_values",
            "offset": 0,
            "slot": "0",
            "type": "t_array(t_bytes32)dyn_storage"
          },
          {
            "astId": 1876,
            "contract": "contracts/protocol/CreditLine.sol:CreditLine",
            "label": "_indexes",
            "offset": 0,
            "slot": "1",
            "type": "t_mapping(t_bytes32,t_uint256)"
          }
        ],
        "numberOfBytes": "64"
      },
      "t_uint256": {
        "encoding": "inplace",
        "label": "uint256",
        "numberOfBytes": "32"
      }
    }
  },
  "gasEstimates": {
    "creation": {
      "codeDepositCost": "1222400",
      "executionCost": "1268",
      "totalCost": "1223668"
    },
    "external": {
      "DEFAULT_ADMIN_ROLE()": "295",
      "OWNER_ROLE()": "380",
      "PAUSER_ROLE()": "402",
      "__BaseUpgradeablePausable__init(address)": "infinite",
      "__PauserPausable__init()": "infinite",
      "authorizePool(address)": "infinite",
      "balance()": "1073",
      "borrower()": "1116",
      "collectedPaymentBalance()": "1139",
      "getRoleAdmin(bytes32)": "1223",
      "getRoleMember(bytes32,uint256)": "infinite",
      "getRoleMemberCount(bytes32)": "infinite",
      "grantRole(bytes32,address)": "infinite",
      "hasRole(bytes32,address)": "infinite",
      "initialize(address,address,address,uint256,uint256,uint256,uint256)": "infinite",
      "interestApr()": "1139",
      "interestOwed()": "1163",
      "isAdmin()": "infinite",
      "lastUpdatedBlock()": "1138",
      "limit()": "1117",
      "nextDueBlock()": "1073",
      "pause()": "infinite",
      "paused()": "1129",
      "paymentPeriodInDays()": "1073",
      "principalOwed()": "1141",
      "renounceRole(bytes32,address)": "infinite",
      "revokeRole(bytes32,address)": "infinite",
      "setBalance(uint256)": "infinite",
      "setCollectedPaymentBalance(uint256)": "infinite",
      "setInterestOwed(uint256)": "infinite",
      "setLastUpdatedBlock(uint256)": "infinite",
      "setLimit(uint256)": "infinite",
      "setNextDueBlock(uint256)": "infinite",
      "setPrincipalOwed(uint256)": "infinite",
      "setTermEndBlock(uint256)": "infinite",
      "setWritedownAmount(uint256)": "infinite",
      "termEndBlock()": "1119",
      "termInDays()": "1162",
      "underwriter()": "1158",
      "unpause()": "infinite",
      "writedownAmount()": "1139"
    }
  }
}