{
  "address": "0xFACfec1dF2557CcaEe93184254D69DbA13e5004C",
  "abi": [
    {
      "anonymous": false,
      "inputs": [
        {
          "indexed": false,
          "internalType": "address",
          "name": "account",
          "type": "address"
        }
      ],
      "name": "Paused",
      "type": "event"
    },
    {
      "anonymous": false,
      "inputs": [
        {
          "indexed": true,
          "internalType": "bytes32",
          "name": "role",
          "type": "bytes32"
        },
        {
          "indexed": true,
          "internalType": "address",
          "name": "account",
          "type": "address"
        },
        {
          "indexed": true,
          "internalType": "address",
          "name": "sender",
          "type": "address"
        }
      ],
      "name": "RoleGranted",
      "type": "event"
    },
    {
      "anonymous": false,
      "inputs": [
        {
          "indexed": true,
          "internalType": "bytes32",
          "name": "role",
          "type": "bytes32"
        },
        {
          "indexed": true,
          "internalType": "address",
          "name": "account",
          "type": "address"
        },
        {
          "indexed": true,
          "internalType": "address",
          "name": "sender",
          "type": "address"
        }
      ],
      "name": "RoleRevoked",
      "type": "event"
    },
    {
      "anonymous": false,
      "inputs": [
        {
          "indexed": false,
          "internalType": "address",
          "name": "account",
          "type": "address"
        }
      ],
      "name": "Unpaused",
      "type": "event"
    },
    {
      "inputs": [],
      "name": "DEFAULT_ADMIN_ROLE",
      "outputs": [
        {
          "internalType": "bytes32",
          "name": "",
          "type": "bytes32"
        }
      ],
      "stateMutability": "view",
      "type": "function"
    },
    {
      "inputs": [],
      "name": "OWNER_ROLE",
      "outputs": [
        {
          "internalType": "bytes32",
          "name": "",
          "type": "bytes32"
        }
      ],
      "stateMutability": "view",
      "type": "function"
    },
    {
      "inputs": [],
      "name": "PAUSER_ROLE",
      "outputs": [
        {
          "internalType": "bytes32",
          "name": "",
          "type": "bytes32"
        }
      ],
      "stateMutability": "view",
      "type": "function"
    },
    {
      "inputs": [
        {
          "internalType": "address",
          "name": "owner",
          "type": "address"
        }
      ],
      "name": "__BaseUpgradeablePausable__init",
      "outputs": [],
      "stateMutability": "nonpayable",
      "type": "function"
    },
    {
      "inputs": [],
      "name": "__PauserPausable__init",
      "outputs": [],
      "stateMutability": "nonpayable",
      "type": "function"
    },
    {
      "inputs": [],
      "name": "config",
      "outputs": [
        {
          "internalType": "contract GoldfinchConfig",
          "name": "",
          "type": "address"
        }
      ],
      "stateMutability": "view",
      "type": "function"
    },
    {
      "inputs": [
        {
          "internalType": "bytes",
          "name": "_data",
          "type": "bytes"
        }
      ],
      "name": "createCreditLine",
      "outputs": [
        {
          "internalType": "address",
          "name": "",
          "type": "address"
        }
      ],
      "stateMutability": "nonpayable",
      "type": "function"
    },
    {
      "inputs": [
        {
          "internalType": "bytes32",
          "name": "role",
          "type": "bytes32"
        }
      ],
      "name": "getRoleAdmin",
      "outputs": [
        {
          "internalType": "bytes32",
          "name": "",
          "type": "bytes32"
        }
      ],
      "stateMutability": "view",
      "type": "function"
    },
    {
      "inputs": [
        {
          "internalType": "bytes32",
          "name": "role",
          "type": "bytes32"
        },
        {
          "internalType": "uint256",
          "name": "index",
          "type": "uint256"
        }
      ],
      "name": "getRoleMember",
      "outputs": [
        {
          "internalType": "address",
          "name": "",
          "type": "address"
        }
      ],
      "stateMutability": "view",
      "type": "function"
    },
    {
      "inputs": [
        {
          "internalType": "bytes32",
          "name": "role",
          "type": "bytes32"
        }
      ],
      "name": "getRoleMemberCount",
      "outputs": [
        {
          "internalType": "uint256",
          "name": "",
          "type": "uint256"
        }
      ],
      "stateMutability": "view",
      "type": "function"
    },
    {
      "inputs": [
        {
          "internalType": "bytes32",
          "name": "role",
          "type": "bytes32"
        },
        {
          "internalType": "address",
          "name": "account",
          "type": "address"
        }
      ],
      "name": "grantRole",
      "outputs": [],
      "stateMutability": "nonpayable",
      "type": "function"
    },
    {
      "inputs": [
        {
          "internalType": "bytes32",
          "name": "role",
          "type": "bytes32"
        },
        {
          "internalType": "address",
          "name": "account",
          "type": "address"
        }
      ],
      "name": "hasRole",
      "outputs": [
        {
          "internalType": "bool",
          "name": "",
          "type": "bool"
        }
      ],
      "stateMutability": "view",
      "type": "function"
    },
    {
      "inputs": [
        {
          "internalType": "address",
          "name": "owner",
          "type": "address"
        },
        {
          "internalType": "contract GoldfinchConfig",
          "name": "_config",
          "type": "address"
        }
      ],
      "name": "initialize",
      "outputs": [],
      "stateMutability": "nonpayable",
      "type": "function"
    },
    {
      "inputs": [],
      "name": "isAdmin",
      "outputs": [
        {
          "internalType": "bool",
          "name": "",
          "type": "bool"
        }
      ],
      "stateMutability": "view",
      "type": "function"
    },
    {
      "inputs": [],
      "name": "pause",
      "outputs": [],
      "stateMutability": "nonpayable",
      "type": "function"
    },
    {
      "inputs": [],
      "name": "paused",
      "outputs": [
        {
          "internalType": "bool",
          "name": "",
          "type": "bool"
        }
      ],
      "stateMutability": "view",
      "type": "function"
    },
    {
      "inputs": [
        {
          "internalType": "bytes32",
          "name": "role",
          "type": "bytes32"
        },
        {
          "internalType": "address",
          "name": "account",
          "type": "address"
        }
      ],
      "name": "renounceRole",
      "outputs": [],
      "stateMutability": "nonpayable",
      "type": "function"
    },
    {
      "inputs": [
        {
          "internalType": "bytes32",
          "name": "role",
          "type": "bytes32"
        },
        {
          "internalType": "address",
          "name": "account",
          "type": "address"
        }
      ],
      "name": "revokeRole",
      "outputs": [],
      "stateMutability": "nonpayable",
      "type": "function"
    },
    {
      "inputs": [],
      "name": "unpause",
      "outputs": [],
      "stateMutability": "nonpayable",
      "type": "function"
    }
  ],
  "transactionHash": "0x787bfaa37398e227ee91a0355acc66a0e771f2ca4830708d3b9fc06449aaa4f5",
  "args": [],
  "solcInputHash": "ec5b8f84a562cb473511a7a6cca44911",
  "bytecode": "0x608060405234801561001057600080fd5b506112f8806100206000396000f3fe608060405234801561001057600080fd5b50600436106101215760003560e01c80638456cb59116100ad578063b6db75a011610071578063b6db75a014610358578063ca15c87314610360578063d547741f1461037d578063e58378bb146103a9578063e63ab1e9146103b157610121565b80638456cb59146102535780639010d07c1461025b57806391d148541461027e5780639390bce0146102aa578063a217fddf1461035057610121565b80633f4ba83a116100f45780633f4ba83a146101d5578063485cc955146101dd578063526d81f61461020b5780635c975abb1461021357806379502c551461022f57610121565b8063097616a314610126578063248a9ca31461014e5780632f2ff15d1461017d57806336568abe146101a9575b600080fd5b61014c6004803603602081101561013c57600080fd5b50356001600160a01b03166103b9565b005b61016b6004803603602081101561016457600080fd5b50356105a1565b60408051918252519081900360200190f35b61014c6004803603604081101561019357600080fd5b50803590602001356001600160a01b03166105b6565b61014c600480360360408110156101bf57600080fd5b50803590602001356001600160a01b031661061e565b61014c61067f565b61014c600480360360408110156101f357600080fd5b506001600160a01b0381358116916020013516610706565b61014c6107cf565b61021b610879565b604080519115158252519081900360200190f35b610237610882565b604080516001600160a01b039092168252519081900360200190f35b61014c610892565b6102376004803603604081101561027157600080fd5b5080359060200135610917565b61021b6004803603604081101561029457600080fd5b50803590602001356001600160a01b031661093e565b610237600480360360208110156102c057600080fd5b8101906020810181356401000000008111156102db57600080fd5b8201836020820111156102ed57600080fd5b8035906020019184600183028401116401000000008311171561030f57600080fd5b91908080601f01602080910402602001604051908101604052809392919081815260200183838082843760009201919091525092955061095c945050505050565b61016b6109eb565b61021b6109f0565b61016b6004803603602081101561037657600080fd5b5035610a23565b61014c6004803603604081101561039357600080fd5b50803590602001356001600160a01b0316610a3a565b61016b610a93565b61016b610ab5565b600054610100900460ff16806103d257506103d2610ad8565b806103e0575060005460ff16155b61041b5760405162461bcd60e51b815260040180806020018281038252602e815260200180611266602e913960400191505060405180910390fd5b600054610100900460ff16158015610446576000805460ff1961ff0019909116610100171660011790555b6001600160a01b0382166104a1576040805162461bcd60e51b815260206004820181905260248201527f4f776e65722063616e6e6f7420626520746865207a65726f2061646472657373604482015290519081900360640190fd5b6104a9610ade565b6104b1610b7e565b6104b9610c29565b60408051694f574e45525f524f4c4560b01b8152905190819003600a0190206104e29083610614565b604080516a5041555345525f524f4c4560a81b8152905190819003600b01902061050c9083610614565b604080516a5041555345525f524f4c4560a81b8152815190819003600b018120694f574e45525f524f4c4560b01b8252915190819003600a0190206105519190610cd7565b60408051694f574e45525f524f4c4560b01b808252825191829003600a9081018320918352925191829003909201902061058b9190610cd7565b801561059d576000805461ff00191690555b5050565b60009081526065602052604090206002015490565b6000828152606560205260409020600201546105d9906105d4610cec565b61093e565b6106145760405162461bcd60e51b815260040180806020018281038252602f815260200180611207602f913960400191505060405180910390fd5b61059d8282610cf0565b610626610cec565b6001600160a01b0316816001600160a01b0316146106755760405162461bcd60e51b815260040180806020018281038252602f815260200180611294602f913960400191505060405180910390fd5b61059d8282610d5f565b604080516a5041555345525f524f4c4560a81b8152905190819003600b0190206106ab906105d4610cec565b6106fc576040805162461bcd60e51b815260206004820181905260248201527f4d75737420686176652070617573657220726f6c6520746f20756e7061757365604482015290519081900360640190fd5b610704610dce565b565b600054610100900460ff168061071f575061071f610ad8565b8061072d575060005460ff16155b6107685760405162461bcd60e51b815260040180806020018281038252602e815260200180611266602e913960400191505060405180910390fd5b600054610100900460ff16158015610793576000805460ff1961ff0019909116610100171660011790555b61079c836103b9565b6101c380546001600160a01b0319166001600160a01b03841617905580156107ca576000805461ff00191690555b505050565b600054610100900460ff16806107e857506107e8610ad8565b806107f6575060005460ff16155b6108315760405162461bcd60e51b815260040180806020018281038252602e815260200180611266602e913960400191505060405180910390fd5b600054610100900460ff1615801561085c576000805460ff1961ff0019909116610100171660011790555b610864610b7e565b8015610876576000805461ff00191690555b50565b60975460ff1690565b6101c3546001600160a01b031681565b604080516a5041555345525f524f4c4560a81b8152905190819003600b0190206108be906105d4610cec565b61090f576040805162461bcd60e51b815260206004820152601e60248201527f4d75737420686176652070617573657220726f6c6520746f2070617573650000604482015290519081900360640190fd5b610704610e6c565b6000828152606560205260408120610935908363ffffffff610eed16565b90505b92915050565b6000828152606560205260408120610935908363ffffffff610ef916565b6101c35460009081906001600160a01b031663b93f9b0a60016040518263ffffffff1660e01b81526004018082815260200191505060206040518083038186803b1580156109a957600080fd5b505afa1580156109bd573d6000803e3d6000fd5b505050506040513d60208110156109d357600080fd5b5051905060006109e38285610f0e565b949350505050565b600081565b60408051694f574e45525f524f4c4560b01b8152905190819003600a019020600090610a1e906105d4610cec565b905090565b60008181526065602052604081206109389061101f565b600082815260656020526040902060020154610a58906105d4610cec565b6106755760405162461bcd60e51b81526004018080602001828103825260308152602001806112366030913960400191505060405180910390fd5b60408051694f574e45525f524f4c4560b01b8152905190819003600a01902081565b604080516a5041555345525f524f4c4560a81b8152905190819003600b01902081565b303b1590565b600054610100900460ff1680610af75750610af7610ad8565b80610b05575060005460ff16155b610b405760405162461bcd60e51b815260040180806020018281038252602e815260200180611266602e913960400191505060405180910390fd5b600054610100900460ff16158015610864576000805460ff1961ff0019909116610100171660011790558015610876576000805461ff001916905550565b600054610100900460ff1680610b975750610b97610ad8565b80610ba5575060005460ff16155b610be05760405162461bcd60e51b815260040180806020018281038252602e815260200180611266602e913960400191505060405180910390fd5b600054610100900460ff16158015610c0b576000805460ff1961ff0019909116610100171660011790555b6097805460ff191690558015610876576000805461ff001916905550565b600054610100900460ff1680610c425750610c42610ad8565b80610c50575060005460ff16155b610c8b5760405162461bcd60e51b815260040180806020018281038252602e815260200180611266602e913960400191505060405180910390fd5b600054610100900460ff16158015610cb6576000805460ff1961ff0019909116610100171660011790555b60c9805460ff191660011790558015610876576000805461ff001916905550565b60009182526065602052604090912060020155565b3390565b6000828152606560205260409020610d0e908263ffffffff61102a16565b1561059d57610d1b610cec565b6001600160a01b0316816001600160a01b0316837f2f8788117e7eff1d82e926ec794901d17c78024a50270940304540a733656f0d60405160405180910390a45050565b6000828152606560205260409020610d7d908263ffffffff61103f16565b1561059d57610d8a610cec565b6001600160a01b0316816001600160a01b0316837ff6391f5c32d9c69d2a47ea670b442974b53935d1edc7fd64eb21e047a839171b60405160405180910390a45050565b60975460ff16610e1c576040805162461bcd60e51b815260206004820152601460248201527314185d5cd8589b194e881b9bdd081c185d5cd95960621b604482015290519081900360640190fd5b6097805460ff191690557f5db9ee0a495bf2e6ff9c91a7834c1ba4fdd244a5e8aa4e537bd38aeae4b073aa610e4f610cec565b604080516001600160a01b039092168252519081900360200190a1565b60975460ff1615610eb7576040805162461bcd60e51b815260206004820152601060248201526f14185d5cd8589b194e881c185d5cd95960821b604482015290519081900360640190fd5b6097805460ff191660011790557f62e78cea01bee320cd4e420270b5ea74000d11b0c9f74754ebdbfc544b05a258610e4f610cec565b60006109358383611054565b6000610935836001600160a01b0384166110b8565b6000808360601b9050604051733d602d80600a3d3981f3363d3d373d3d3d363d7360601b81528160148201526e5af43d82803e903d91602b57fd5bf360881b60288201526037816000f0925050600083511115611018576000826001600160a01b0316846040518082805190602001908083835b60208310610fa15780518252601f199092019160209182019101610f82565b6001836020036101000a0380198251168184511680821785525050505050509050019150506000604051808303816000865af19150503d8060008114611003576040519150601f19603f3d011682016040523d82523d6000602084013e611008565b606091505b505090508061101657600080fd5b505b5092915050565b6000610938826110d0565b6000610935836001600160a01b0384166110d4565b6000610935836001600160a01b03841661111e565b815460009082106110965760405162461bcd60e51b81526004018080602001828103825260228152602001806111e56022913960400191505060405180910390fd5b8260000182815481106110a557fe5b9060005260206000200154905092915050565b60009081526001919091016020526040902054151590565b5490565b60006110e083836110b8565b61111657508154600181810184556000848152602080822090930184905584548482528286019093526040902091909155610938565b506000610938565b600081815260018301602052604081205480156111da578354600019808301919081019060009087908390811061115157fe5b906000526020600020015490508087600001848154811061116e57fe5b60009182526020808320909101929092558281526001898101909252604090209084019055865487908061119e57fe5b60019003818190600052602060002001600090559055866001016000878152602001908152602001600020600090556001945050505050610938565b600091505061093856fe456e756d657261626c655365743a20696e646578206f7574206f6620626f756e6473416363657373436f6e74726f6c3a2073656e646572206d75737420626520616e2061646d696e20746f206772616e74416363657373436f6e74726f6c3a2073656e646572206d75737420626520616e2061646d696e20746f207265766f6b65436f6e747261637420696e7374616e63652068617320616c7265616479206265656e20696e697469616c697a6564416363657373436f6e74726f6c3a2063616e206f6e6c792072656e6f756e636520726f6c657320666f722073656c66a2646970667358221220bc6c6d82b63ca53a424ab91012b7d213bf3692cfb228cdc2fc681e27b30334fd64736f6c63430006080033",
  "devdoc": {
    "author": "Goldfinch",
    "methods": {
      "getRoleAdmin(bytes32)": {
        "details": "Returns the admin role that controls `role`. See {grantRole} and {revokeRole}.     * To change a role's admin, use {_setRoleAdmin}."
      },
      "getRoleMember(bytes32,uint256)": {
        "details": "Returns one of the accounts that have `role`. `index` must be a value between 0 and {getRoleMemberCount}, non-inclusive.     * Role bearers are not sorted in any particular way, and their ordering may change at any point.     * WARNING: When using {getRoleMember} and {getRoleMemberCount}, make sure you perform all queries on the same block. See the following https://forum.openzeppelin.com/t/iterating-over-elements-on-enumerableset-in-openzeppelin-contracts/2296[forum post] for more information."
      },
      "getRoleMemberCount(bytes32)": {
        "details": "Returns the number of accounts that have `role`. Can be used together with {getRoleMember} to enumerate all bearers of a role."
      },
      "grantRole(bytes32,address)": {
        "details": "Grants `role` to `account`.     * If `account` had not been already granted `role`, emits a {RoleGranted} event.     * Requirements:     * - the caller must have ``role``'s admin role."
      },
      "hasRole(bytes32,address)": {
        "details": "Returns `true` if `account` has been granted `role`."
      },
      "pause()": {
        "details": "Pauses all functions guarded by Pause   * See {Pausable-_pause}.   * Requirements:   * - the caller must have the PAUSER_ROLE."
      },
      "paused()": {
        "details": "Returns true if the contract is paused, and false otherwise."
      },
      "renounceRole(bytes32,address)": {
        "details": "Revokes `role` from the calling account.     * Roles are often managed via {grantRole} and {revokeRole}: this function's purpose is to provide a mechanism for accounts to lose their privileges if they are compromised (such as when a trusted device is misplaced).     * If the calling account had been granted `role`, emits a {RoleRevoked} event.     * Requirements:     * - the caller must be `account`."
      },
      "revokeRole(bytes32,address)": {
        "details": "Revokes `role` from `account`.     * If `account` had been granted `role`, emits a {RoleRevoked} event.     * Requirements:     * - the caller must have ``role``'s admin role."
      },
      "unpause()": {
        "details": "Unpauses the contract   * See {Pausable-_unpause}.   * Requirements:   * - the caller must have the Pauser role"
      }
    },
    "title": "CreditLineFactory"
  },
  "userdoc": {
    "methods": {},
    "notice": "Contract that allows us to follow the minimal proxy pattern for creating CreditLines. This saves us gas, and lets us easily swap out the CreditLine implementaton."
  },
  "storageLayout": {
    "storage": [
      {
        "astId": 49,
        "contract": "contracts/protocol/CreditLineFactory.sol:CreditLineFactory",
        "label": "initialized",
        "offset": 0,
        "slot": "0",
        "type": "t_bool"
      },
      {
        "astId": 51,
        "contract": "contracts/protocol/CreditLineFactory.sol:CreditLineFactory",
        "label": "initializing",
        "offset": 1,
        "slot": "0",
        "type": "t_bool"
      },
      {
        "astId": 116,
        "contract": "contracts/protocol/CreditLineFactory.sol:CreditLineFactory",
        "label": "______gap",
        "offset": 0,
        "slot": "1",
        "type": "t_array(t_uint256)50_storage"
      },
      {
        "astId": 43,
        "contract": "contracts/protocol/CreditLineFactory.sol:CreditLineFactory",
        "label": "__gap",
        "offset": 0,
        "slot": "51",
        "type": "t_array(t_uint256)50_storage"
      },
      {
        "astId": 161,
        "contract": "contracts/protocol/CreditLineFactory.sol:CreditLineFactory",
        "label": "_roles",
        "offset": 0,
        "slot": "101",
        "type": "t_mapping(t_bytes32,t_struct(RoleData)157_storage)"
      },
      {
        "astId": 406,
        "contract": "contracts/protocol/CreditLineFactory.sol:CreditLineFactory",
        "label": "__gap",
        "offset": 0,
        "slot": "102",
        "type": "t_array(t_uint256)49_storage"
      },
      {
        "astId": 2282,
        "contract": "contracts/protocol/CreditLineFactory.sol:CreditLineFactory",
        "label": "_paused",
        "offset": 0,
        "slot": "151",
        "type": "t_bool"
      },
      {
        "astId": 2371,
        "contract": "contracts/protocol/CreditLineFactory.sol:CreditLineFactory",
        "label": "__gap",
        "offset": 0,
        "slot": "152",
        "type": "t_array(t_uint256)49_storage"
      },
      {
        "astId": 2380,
        "contract": "contracts/protocol/CreditLineFactory.sol:CreditLineFactory",
        "label": "_notEntered",
        "offset": 0,
        "slot": "201",
        "type": "t_bool"
      },
      {
        "astId": 2421,
        "contract": "contracts/protocol/CreditLineFactory.sol:CreditLineFactory",
        "label": "__gap",
        "offset": 0,
        "slot": "202",
        "type": "t_array(t_uint256)49_storage"
      },
      {
        "astId": 4609,
        "contract": "contracts/protocol/CreditLineFactory.sol:CreditLineFactory",
        "label": "__gap1",
        "offset": 0,
        "slot": "251",
        "type": "t_array(t_uint256)50_storage"
      },
      {
        "astId": 4613,
        "contract": "contracts/protocol/CreditLineFactory.sol:CreditLineFactory",
        "label": "__gap2",
        "offset": 0,
        "slot": "301",
        "type": "t_array(t_uint256)50_storage"
      },
      {
        "astId": 4617,
        "contract": "contracts/protocol/CreditLineFactory.sol:CreditLineFactory",
        "label": "__gap3",
        "offset": 0,
        "slot": "351",
        "type": "t_array(t_uint256)50_storage"
      },
      {
        "astId": 4621,
        "contract": "contracts/protocol/CreditLineFactory.sol:CreditLineFactory",
        "label": "__gap4",
        "offset": 0,
        "slot": "401",
        "type": "t_array(t_uint256)50_storage"
      },
      {
        "astId": 6909,
        "contract": "contracts/protocol/CreditLineFactory.sol:CreditLineFactory",
        "label": "config",
        "offset": 0,
        "slot": "451",
        "type": "t_contract(GoldfinchConfig)7562"
      }
    ],
    "types": {
      "t_array(t_bytes32)dyn_storage": {
        "base": "t_bytes32",
        "encoding": "dynamic_array",
        "label": "bytes32[]",
        "numberOfBytes": "32"
      },
      "t_array(t_uint256)49_storage": {
        "base": "t_uint256",
        "encoding": "inplace",
        "label": "uint256[49]",
        "numberOfBytes": "1568"
      },
      "t_array(t_uint256)50_storage": {
        "base": "t_uint256",
        "encoding": "inplace",
        "label": "uint256[50]",
        "numberOfBytes": "1600"
      },
      "t_bool": {
        "encoding": "inplace",
        "label": "bool",
        "numberOfBytes": "1"
      },
      "t_bytes32": {
        "encoding": "inplace",
        "label": "bytes32",
        "numberOfBytes": "32"
      },
      "t_contract(GoldfinchConfig)7562": {
        "encoding": "inplace",
        "label": "contract GoldfinchConfig",
        "numberOfBytes": "20"
      },
      "t_mapping(t_bytes32,t_struct(RoleData)157_storage)": {
        "encoding": "mapping",
        "key": "t_bytes32",
        "label": "mapping(bytes32 => struct AccessControlUpgradeSafe.RoleData)",
        "numberOfBytes": "32",
        "value": "t_struct(RoleData)157_storage"
      },
      "t_mapping(t_bytes32,t_uint256)": {
        "encoding": "mapping",
        "key": "t_bytes32",
        "label": "mapping(bytes32 => uint256)",
        "numberOfBytes": "32",
        "value": "t_uint256"
      },
      "t_struct(AddressSet)2057_storage": {
        "encoding": "inplace",
        "label": "struct EnumerableSet.AddressSet",
        "members": [
          {
            "astId": 2056,
            "contract": "contracts/protocol/CreditLineFactory.sol:CreditLineFactory",
            "label": "_inner",
            "offset": 0,
            "slot": "0",
            "type": "t_struct(Set)1877_storage"
          }
        ],
        "numberOfBytes": "64"
      },
      "t_struct(RoleData)157_storage": {
        "encoding": "inplace",
        "label": "struct AccessControlUpgradeSafe.RoleData",
        "members": [
          {
            "astId": 154,
            "contract": "contracts/protocol/CreditLineFactory.sol:CreditLineFactory",
            "label": "members",
            "offset": 0,
            "slot": "0",
            "type": "t_struct(AddressSet)2057_storage"
          },
          {
            "astId": 156,
            "contract": "contracts/protocol/CreditLineFactory.sol:CreditLineFactory",
            "label": "adminRole",
            "offset": 0,
            "slot": "2",
            "type": "t_bytes32"
          }
        ],
        "numberOfBytes": "96"
      },
      "t_struct(Set)1877_storage": {
        "encoding": "inplace",
        "label": "struct EnumerableSet.Set",
        "members": [
          {
            "astId": 1872,
            "contract": "contracts/protocol/CreditLineFactory.sol:CreditLineFactory",
            "label": "_values",
            "offset": 0,
            "slot": "0",
            "type": "t_array(t_bytes32)dyn_storage"
          },
          {
            "astId": 1876,
            "contract": "contracts/protocol/CreditLineFactory.sol:CreditLineFactory",
            "label": "_indexes",
            "offset": 0,
            "slot": "1",
            "type": "t_mapping(t_bytes32,t_uint256)"
          }
        ],
        "numberOfBytes": "64"
      },
      "t_uint256": {
        "encoding": "inplace",
        "label": "uint256",
        "numberOfBytes": "32"
      }
    }
  }
}