{
  "address": "0xF4b5678afD6dDdE3Cd039965F5CfC98565375D20",
  "abi": [
    {
      "anonymous": false,
      "inputs": [
        {
          "indexed": true,
          "internalType": "address",
          "name": "owner",
          "type": "address"
        },
        {
          "indexed": true,
          "internalType": "address",
          "name": "spender",
          "type": "address"
        },
        {
          "indexed": false,
          "internalType": "uint256",
          "name": "value",
          "type": "uint256"
        }
      ],
      "name": "Approval",
      "type": "event"
    },
    {
      "anonymous": false,
      "inputs": [
        {
          "indexed": false,
          "internalType": "address",
          "name": "account",
          "type": "address"
        }
      ],
      "name": "Paused",
      "type": "event"
    },
    {
      "anonymous": false,
      "inputs": [
        {
          "indexed": true,
          "internalType": "bytes32",
          "name": "role",
          "type": "bytes32"
        },
        {
          "indexed": true,
          "internalType": "address",
          "name": "account",
          "type": "address"
        },
        {
          "indexed": true,
          "internalType": "address",
          "name": "sender",
          "type": "address"
        }
      ],
      "name": "RoleGranted",
      "type": "event"
    },
    {
      "anonymous": false,
      "inputs": [
        {
          "indexed": true,
          "internalType": "bytes32",
          "name": "role",
          "type": "bytes32"
        },
        {
          "indexed": true,
          "internalType": "address",
          "name": "account",
          "type": "address"
        },
        {
          "indexed": true,
          "internalType": "address",
          "name": "sender",
          "type": "address"
        }
      ],
      "name": "RoleRevoked",
      "type": "event"
    },
    {
      "anonymous": false,
      "inputs": [
        {
          "indexed": true,
          "internalType": "address",
          "name": "from",
          "type": "address"
        },
        {
          "indexed": true,
          "internalType": "address",
          "name": "to",
          "type": "address"
        },
        {
          "indexed": false,
          "internalType": "uint256",
          "name": "value",
          "type": "uint256"
        }
      ],
      "name": "Transfer",
      "type": "event"
    },
    {
      "anonymous": false,
      "inputs": [
        {
          "indexed": false,
          "internalType": "address",
          "name": "account",
          "type": "address"
        }
      ],
      "name": "Unpaused",
      "type": "event"
    },
    {
      "inputs": [],
      "name": "ASSET_LIABILITY_MATCH_THRESHOLD",
      "outputs": [
        {
          "internalType": "uint256",
          "name": "",
          "type": "uint256"
        }
      ],
      "stateMutability": "view",
      "type": "function"
    },
    {
      "inputs": [],
      "name": "DEFAULT_ADMIN_ROLE",
      "outputs": [
        {
          "internalType": "bytes32",
          "name": "",
          "type": "bytes32"
        }
      ],
      "stateMutability": "view",
      "type": "function"
    },
    {
      "inputs": [],
      "name": "MINTER_ROLE",
      "outputs": [
        {
          "internalType": "bytes32",
          "name": "",
          "type": "bytes32"
        }
      ],
      "stateMutability": "view",
      "type": "function"
    },
    {
      "inputs": [],
      "name": "OWNER_ROLE",
      "outputs": [
        {
          "internalType": "bytes32",
          "name": "",
          "type": "bytes32"
        }
      ],
      "stateMutability": "view",
      "type": "function"
    },
    {
      "inputs": [],
      "name": "PAUSER_ROLE",
      "outputs": [
        {
          "internalType": "bytes32",
          "name": "",
          "type": "bytes32"
        }
      ],
      "stateMutability": "view",
      "type": "function"
    },
    {
      "inputs": [
        {
          "internalType": "address",
          "name": "owner",
          "type": "address"
        },
        {
          "internalType": "string",
          "name": "name",
          "type": "string"
        },
        {
          "internalType": "string",
          "name": "symbol",
          "type": "string"
        },
        {
          "internalType": "contract GoldfinchConfig",
          "name": "_config",
          "type": "address"
        }
      ],
      "name": "__initialize__",
      "outputs": [],
      "stateMutability": "nonpayable",
      "type": "function"
    },
    {
      "inputs": [
        {
          "internalType": "address",
          "name": "owner",
          "type": "address"
        },
        {
          "internalType": "address",
          "name": "spender",
          "type": "address"
        }
      ],
      "name": "allowance",
      "outputs": [
        {
          "internalType": "uint256",
          "name": "",
          "type": "uint256"
        }
      ],
      "stateMutability": "view",
      "type": "function"
    },
    {
      "inputs": [
        {
          "internalType": "address",
          "name": "spender",
          "type": "address"
        },
        {
          "internalType": "uint256",
          "name": "amount",
          "type": "uint256"
        }
      ],
      "name": "approve",
      "outputs": [
        {
          "internalType": "bool",
          "name": "",
          "type": "bool"
        }
      ],
      "stateMutability": "nonpayable",
      "type": "function"
    },
    {
      "inputs": [
        {
          "internalType": "address",
          "name": "account",
          "type": "address"
        }
      ],
      "name": "balanceOf",
      "outputs": [
        {
          "internalType": "uint256",
          "name": "",
          "type": "uint256"
        }
      ],
      "stateMutability": "view",
      "type": "function"
    },
    {
      "inputs": [
        {
          "internalType": "uint256",
          "name": "amount",
          "type": "uint256"
        }
      ],
      "name": "burn",
      "outputs": [],
      "stateMutability": "nonpayable",
      "type": "function"
    },
    {
      "inputs": [
        {
          "internalType": "address",
          "name": "from",
          "type": "address"
        },
        {
          "internalType": "uint256",
          "name": "amount",
          "type": "uint256"
        }
      ],
      "name": "burnFrom",
      "outputs": [],
      "stateMutability": "nonpayable",
      "type": "function"
    },
    {
      "inputs": [],
      "name": "config",
      "outputs": [
        {
          "internalType": "contract GoldfinchConfig",
          "name": "",
          "type": "address"
        }
      ],
      "stateMutability": "view",
      "type": "function"
    },
    {
      "inputs": [],
      "name": "decimals",
      "outputs": [
        {
          "internalType": "uint8",
          "name": "",
          "type": "uint8"
        }
      ],
      "stateMutability": "view",
      "type": "function"
    },
    {
      "inputs": [
        {
          "internalType": "address",
          "name": "spender",
          "type": "address"
        },
        {
          "internalType": "uint256",
          "name": "subtractedValue",
          "type": "uint256"
        }
      ],
      "name": "decreaseAllowance",
      "outputs": [
        {
          "internalType": "bool",
          "name": "",
          "type": "bool"
        }
      ],
      "stateMutability": "nonpayable",
      "type": "function"
    },
    {
      "inputs": [
        {
          "internalType": "bytes32",
          "name": "role",
          "type": "bytes32"
        }
      ],
      "name": "getRoleAdmin",
      "outputs": [
        {
          "internalType": "bytes32",
          "name": "",
          "type": "bytes32"
        }
      ],
      "stateMutability": "view",
      "type": "function"
    },
    {
      "inputs": [
        {
          "internalType": "bytes32",
          "name": "role",
          "type": "bytes32"
        },
        {
          "internalType": "uint256",
          "name": "index",
          "type": "uint256"
        }
      ],
      "name": "getRoleMember",
      "outputs": [
        {
          "internalType": "address",
          "name": "",
          "type": "address"
        }
      ],
      "stateMutability": "view",
      "type": "function"
    },
    {
      "inputs": [
        {
          "internalType": "bytes32",
          "name": "role",
          "type": "bytes32"
        }
      ],
      "name": "getRoleMemberCount",
      "outputs": [
        {
          "internalType": "uint256",
          "name": "",
          "type": "uint256"
        }
      ],
      "stateMutability": "view",
      "type": "function"
    },
    {
      "inputs": [
        {
          "internalType": "bytes32",
          "name": "role",
          "type": "bytes32"
        },
        {
          "internalType": "address",
          "name": "account",
          "type": "address"
        }
      ],
      "name": "grantRole",
      "outputs": [],
      "stateMutability": "nonpayable",
      "type": "function"
    },
    {
      "inputs": [
        {
          "internalType": "bytes32",
          "name": "role",
          "type": "bytes32"
        },
        {
          "internalType": "address",
          "name": "account",
          "type": "address"
        }
      ],
      "name": "hasRole",
      "outputs": [
        {
          "internalType": "bool",
          "name": "",
          "type": "bool"
        }
      ],
      "stateMutability": "view",
      "type": "function"
    },
    {
      "inputs": [
        {
          "internalType": "address",
          "name": "spender",
          "type": "address"
        },
        {
          "internalType": "uint256",
          "name": "addedValue",
          "type": "uint256"
        }
      ],
      "name": "increaseAllowance",
      "outputs": [
        {
          "internalType": "bool",
          "name": "",
          "type": "bool"
        }
      ],
      "stateMutability": "nonpayable",
      "type": "function"
    },
    {
      "inputs": [
        {
          "internalType": "string",
          "name": "name",
          "type": "string"
        },
        {
          "internalType": "string",
          "name": "symbol",
          "type": "string"
        }
      ],
      "name": "initialize",
      "outputs": [],
      "stateMutability": "nonpayable",
      "type": "function"
    },
    {
      "inputs": [
        {
          "internalType": "address",
          "name": "to",
          "type": "address"
        },
        {
          "internalType": "uint256",
          "name": "amount",
          "type": "uint256"
        }
      ],
      "name": "mint",
      "outputs": [],
      "stateMutability": "nonpayable",
      "type": "function"
    },
    {
      "inputs": [
        {
          "internalType": "address",
          "name": "to",
          "type": "address"
        },
        {
          "internalType": "uint256",
          "name": "amount",
          "type": "uint256"
        }
      ],
      "name": "mintTo",
      "outputs": [],
      "stateMutability": "nonpayable",
      "type": "function"
    },
    {
      "inputs": [],
      "name": "name",
      "outputs": [
        {
          "internalType": "string",
          "name": "",
          "type": "string"
        }
      ],
      "stateMutability": "view",
      "type": "function"
    },
    {
      "inputs": [],
      "name": "pause",
      "outputs": [],
      "stateMutability": "nonpayable",
      "type": "function"
    },
    {
      "inputs": [],
      "name": "paused",
      "outputs": [
        {
          "internalType": "bool",
          "name": "",
          "type": "bool"
        }
      ],
      "stateMutability": "view",
      "type": "function"
    },
    {
      "inputs": [
        {
          "internalType": "bytes32",
          "name": "role",
          "type": "bytes32"
        },
        {
          "internalType": "address",
          "name": "account",
          "type": "address"
        }
      ],
      "name": "renounceRole",
      "outputs": [],
      "stateMutability": "nonpayable",
      "type": "function"
    },
    {
      "inputs": [
        {
          "internalType": "bytes32",
          "name": "role",
          "type": "bytes32"
        },
        {
          "internalType": "address",
          "name": "account",
          "type": "address"
        }
      ],
      "name": "revokeRole",
      "outputs": [],
      "stateMutability": "nonpayable",
      "type": "function"
    },
    {
      "inputs": [],
      "name": "symbol",
      "outputs": [
        {
          "internalType": "string",
          "name": "",
          "type": "string"
        }
      ],
      "stateMutability": "view",
      "type": "function"
    },
    {
      "inputs": [],
      "name": "totalSupply",
      "outputs": [
        {
          "internalType": "uint256",
          "name": "",
          "type": "uint256"
        }
      ],
      "stateMutability": "view",
      "type": "function"
    },
    {
      "inputs": [
        {
          "internalType": "address",
          "name": "recipient",
          "type": "address"
        },
        {
          "internalType": "uint256",
          "name": "amount",
          "type": "uint256"
        }
      ],
      "name": "transfer",
      "outputs": [
        {
          "internalType": "bool",
          "name": "",
          "type": "bool"
        }
      ],
      "stateMutability": "nonpayable",
      "type": "function"
    },
    {
      "inputs": [
        {
          "internalType": "address",
          "name": "sender",
          "type": "address"
        },
        {
          "internalType": "address",
          "name": "recipient",
          "type": "address"
        },
        {
          "internalType": "uint256",
          "name": "amount",
          "type": "uint256"
        }
      ],
      "name": "transferFrom",
      "outputs": [
        {
          "internalType": "bool",
          "name": "",
          "type": "bool"
        }
      ],
      "stateMutability": "nonpayable",
      "type": "function"
    },
    {
      "inputs": [],
      "name": "unpause",
      "outputs": [],
      "stateMutability": "nonpayable",
      "type": "function"
    }
  ],
  "transactionHash": "0x51324eabac0be51c2267aa55bc158d5b17a953b87ccc51e43003adbffa6225d4",
  "args": [],
  "solcInputHash": "182208430cce5986c995897f9af03e7f",
  "bytecode": "0x608060405234801561001057600080fd5b50612c90806100206000396000f3fe608060405234801561001057600080fd5b506004361061020b5760003560e01c806370a082311161012a578063a457c2d7116100bd578063d547741f1161008c578063e58378bb11610071578063e58378bb1461080f578063e63ab1e914610817578063f77356f01461081f5761020b565b8063d547741f1461079b578063dd62ed3e146107d45761020b565b8063a457c2d714610704578063a9059cbb1461073d578063ca15c87314610776578063d5391393146107935761020b565b80639010d07c116100f95780639010d07c1461069857806391d14854146106bb57806395d89b41146106f4578063a217fddf146106fc5761020b565b806370a08231146105f357806379502c551461062657806379cc6790146106575780638456cb59146106905761020b565b806339509351116101a2578063449a52f811610171578063449a52f81461047d5780634cd88b76146104b65780635c975abb146105e357806363be2030146105eb5761020b565b806339509351146103e65780633f4ba83a1461041f57806340c10f191461042757806342966c68146104605761020b565b8063248a9ca3116101de578063248a9ca3146103375780632f2ff15d14610354578063313ce5671461038f57806336568abe146103ad5761020b565b806306fdde0314610210578063095ea7b31461028d57806318160ddd146102da57806323b872dd146102f4575b600080fd5b610218610914565b6040805160208082528351818301528351919283929083019185019080838360005b8381101561025257818101518382015260200161023a565b50505050905090810190601f16801561027f5780820380516001836020036101000a031916815260200191505b509250505060405180910390f35b6102c6600480360360408110156102a357600080fd5b5073ffffffffffffffffffffffffffffffffffffffff81351690602001356109c8565b604080519115158252519081900360200190f35b6102e26109e6565b60408051918252519081900360200190f35b6102c66004803603606081101561030a57600080fd5b5073ffffffffffffffffffffffffffffffffffffffff8135811691602081013590911690604001356109ec565b6102e26004803603602081101561034d57600080fd5b5035610a8d565b61038d6004803603604081101561036a57600080fd5b508035906020013573ffffffffffffffffffffffffffffffffffffffff16610aa5565b005b610397610b11565b6040805160ff9092168252519081900360200190f35b61038d600480360360408110156103c357600080fd5b508035906020013573ffffffffffffffffffffffffffffffffffffffff16610b1a565b6102c6600480360360408110156103fc57600080fd5b5073ffffffffffffffffffffffffffffffffffffffff8135169060200135610b95565b61038d610bf0565b61038d6004803603604081101561043d57600080fd5b5073ffffffffffffffffffffffffffffffffffffffff8135169060200135610c61565b61038d6004803603602081101561047657600080fd5b5035610cd2565b61038d6004803603604081101561049357600080fd5b5073ffffffffffffffffffffffffffffffffffffffff8135169060200135610ce6565b61038d600480360360408110156104cc57600080fd5b8101906020810181356401000000008111156104e757600080fd5b8201836020820111156104f957600080fd5b8035906020019184600183028401116401000000008311171561051b57600080fd5b91908080601f016020809104026020016040519081016040528093929190818152602001838380828437600092019190915250929594936020810193503591505064010000000081111561056e57600080fd5b82018360208201111561058057600080fd5b803590602001918460018302840111640100000000831117156105a257600080fd5b91908080601f016020809104026020016040519081016040528093929190818152602001838380828437600092019190915250929550610d34945050505050565b6102c6610d3e565b6102e2610d47565b6102e26004803603602081101561060957600080fd5b503573ffffffffffffffffffffffffffffffffffffffff16610d4e565b61062e610d76565b6040805173ffffffffffffffffffffffffffffffffffffffff9092168252519081900360200190f35b61038d6004803603604081101561066d57600080fd5b5073ffffffffffffffffffffffffffffffffffffffff8135169060200135610d93565b61038d610e48565b61062e600480360360408110156106ae57600080fd5b5080359060200135610eb7565b6102c6600480360360408110156106d157600080fd5b508035906020013573ffffffffffffffffffffffffffffffffffffffff16610ed6565b610218610eee565b6102e2610f6d565b6102c66004803603604081101561071a57600080fd5b5073ffffffffffffffffffffffffffffffffffffffff8135169060200135610f72565b6102c66004803603604081101561075357600080fd5b5073ffffffffffffffffffffffffffffffffffffffff8135169060200135610fe7565b6102e26004803603602081101561078c57600080fd5b5035610ffb565b6102e2611012565b61038d600480360360408110156107b157600080fd5b508035906020013573ffffffffffffffffffffffffffffffffffffffff16611036565b6102e2600480360360408110156107ea57600080fd5b5073ffffffffffffffffffffffffffffffffffffffff8135811691602001351661108f565b6102e26110c7565b6102e26110eb565b61038d6004803603608081101561083557600080fd5b73ffffffffffffffffffffffffffffffffffffffff823516919081019060408101602082013564010000000081111561086d57600080fd5b82018360208201111561087f57600080fd5b803590602001918460018302840111640100000000831117156108a157600080fd5b9193909290916020810190356401000000008111156108bf57600080fd5b8201836020820111156108d157600080fd5b803590602001918460018302840111640100000000831117156108f357600080fd5b91935091503573ffffffffffffffffffffffffffffffffffffffff1661110f565b609a8054604080516020601f60027fffffffffffffffffffffffffffffffffffffffffffffffffffffffffffffffff6101006001881615020190951694909404938401819004810282018101909252828152606093909290918301828280156109be5780601f10610993576101008083540402835291602001916109be565b820191906000526020600020905b8154815290600101906020018083116109a157829003601f168201915b5050505050905090565b60006109dc6109d56113ed565b84846113f1565b5060015b92915050565b60995490565b60006109f9848484611504565b610a8384610a056113ed565b610a7e85604051806060016040528060288152602001612a0a6028913973ffffffffffffffffffffffffffffffffffffffff8a16600090815260986020526040812090610a506113ed565b73ffffffffffffffffffffffffffffffffffffffff16815260208101919091526040016000205491906116a2565b6113f1565b5060019392505050565b6000818152606560205260409020600201545b919050565b600082815260656020526040902060020154610ac890610ac36113ed565b610ed6565b610b035760405162461bcd60e51b815260040180806020018281038252602f8152602001806128e7602f913960400191505060405180910390fd5b610b0d8282611739565b5050565b609c5460ff1690565b610b226113ed565b73ffffffffffffffffffffffffffffffffffffffff168173ffffffffffffffffffffffffffffffffffffffff1614610b8b5760405162461bcd60e51b815260040180806020018281038252602f815260200180612c02602f913960400191505060405180910390fd5b610b0d82826117bc565b60006109dc610ba26113ed565b84610a7e8560986000610bb36113ed565b73ffffffffffffffffffffffffffffffffffffffff908116825260208083019390935260409182016000908120918c16815292529020549061183f565b610c1c7f65d7a28e3265b37a6474929f336521b332c1681b933f6cb9f3376673440d862a610ac36113ed565b610c575760405162461bcd60e51b81526004018080602001828103825260398152602001806129386039913960400191505060405180910390fd5b610c5f611899565b565b610c8d7f9f2df0fed2c77648de5860a4cc508cd0818c85b8b8a1ab4ceeef8d981c8956a6610ac36113ed565b610cc85760405162461bcd60e51b8152600401808060200182810382526036815260200180612a6a6036913960400191505060405180910390fd5b610b0d828261196b565b610ce3610cdd6113ed565b82611a84565b50565b610cef81611bb4565b610d2a5760405162461bcd60e51b8152600401808060200182810382526038815260200180612ba56038913960400191505060405180910390fd5b610b0d8282610c61565b610b0d8282611d33565b60fb5460ff1690565b620f424081565b73ffffffffffffffffffffffffffffffffffffffff1660009081526097602052604090205490565b6101915473ffffffffffffffffffffffffffffffffffffffff1681565b610dbf7f9f2df0fed2c77648de5860a4cc508cd0818c85b8b8a1ab4ceeef8d981c8956a6610ac36113ed565b610dfa5760405162461bcd60e51b8152600401808060200182810382526036815260200180612b146036913960400191505060405180910390fd5b610e0381611e31565b610e3e5760405162461bcd60e51b8152600401808060200182810382526038815260200180612a326038913960400191505060405180910390fd5b610b0d8282611a84565b610e747f65d7a28e3265b37a6474929f336521b332c1681b933f6cb9f3376673440d862a610ac36113ed565b610eaf5760405162461bcd60e51b8152600401808060200182810382526037815260200180612b6e6037913960400191505060405180910390fd5b610c5f611eef565b6000828152606560205260408120610ecf9083611f9b565b9392505050565b6000828152606560205260408120610ecf9083611fa7565b609b8054604080516020601f60027fffffffffffffffffffffffffffffffffffffffffffffffffffffffffffffffff6101006001881615020190951694909404938401819004810282018101909252828152606093909290918301828280156109be5780601f10610993576101008083540402835291602001916109be565b600081565b60006109dc610f7f6113ed565b84610a7e85604051806060016040528060258152602001612bdd6025913960986000610fa96113ed565b73ffffffffffffffffffffffffffffffffffffffff908116825260208083019390935260409182016000908120918d168152925290205491906116a2565b60006109dc610ff46113ed565b8484611504565b60008181526065602052604081206109e090611fc9565b7f9f2df0fed2c77648de5860a4cc508cd0818c85b8b8a1ab4ceeef8d981c8956a681565b60008281526065602052604090206002015461105490610ac36113ed565b610b8b5760405162461bcd60e51b81526004018080602001828103825260308152602001806129b96030913960400191505060405180910390fd5b73ffffffffffffffffffffffffffffffffffffffff918216600090815260986020908152604080832093909416825291909152205490565b7fb19546dff01e856fb3f010c267a7b1c60363cf8a4664e21cc89c26224620214e81565b7f65d7a28e3265b37a6474929f336521b332c1681b933f6cb9f3376673440d862a81565b600054610100900460ff16806111285750611128611fd4565b80611136575060005460ff16155b6111715760405162461bcd60e51b815260040180806020018281038252602e815260200180612aa0602e913960400191505060405180910390fd5b600054610100900460ff161580156111ba57600080547fffffffffffffffffffffffffffffffffffffffffffffffffffffffffffffff0061ff0019909116610100171660011790555b6111c2611fda565b6111ca611fda565b61123d86868080601f01602080910402602001604051908101604052809392919081815260200183838082843760009201919091525050604080516020601f8a01819004810282018101909252888152925088915087908190840183828082843760009201919091525061209992505050565b611245611fda565b61124d6121ad565b611255611fda565b61019180547fffffffffffffffffffffffff00000000000000000000000000000000000000001673ffffffffffffffffffffffffffffffffffffffff84161790556112c07f9f2df0fed2c77648de5860a4cc508cd0818c85b8b8a1ab4ceeef8d981c8956a688610b03565b6112ea7f65d7a28e3265b37a6474929f336521b332c1681b933f6cb9f3376673440d862a88610b03565b6113147fb19546dff01e856fb3f010c267a7b1c60363cf8a4664e21cc89c26224620214e88610b03565b61135e7f9f2df0fed2c77648de5860a4cc508cd0818c85b8b8a1ab4ceeef8d981c8956a67fb19546dff01e856fb3f010c267a7b1c60363cf8a4664e21cc89c26224620214e612294565b6113a87f65d7a28e3265b37a6474929f336521b332c1681b933f6cb9f3376673440d862a7fb19546dff01e856fb3f010c267a7b1c60363cf8a4664e21cc89c26224620214e612294565b6113d27fb19546dff01e856fb3f010c267a7b1c60363cf8a4664e21cc89c26224620214e80612294565b80156113e4576000805461ff00191690555b50505050505050565b3390565b73ffffffffffffffffffffffffffffffffffffffff83166114435760405162461bcd60e51b8152600401808060200182810382526024815260200180612b4a6024913960400191505060405180910390fd5b73ffffffffffffffffffffffffffffffffffffffff82166114955760405162461bcd60e51b81526004018080602001828103825260228152602001806129716022913960400191505060405180910390fd5b73ffffffffffffffffffffffffffffffffffffffff808416600081815260986020908152604080832094871680845294825291829020859055815185815291517f8c5be1e5ebec7d5bd14f71427d1e84f3dd0314c0f7b2291e5b200ac8c7c3b9259281900390910190a3505050565b73ffffffffffffffffffffffffffffffffffffffff83166115565760405162461bcd60e51b8152600401808060200182810382526025815260200180612aef6025913960400191505060405180910390fd5b73ffffffffffffffffffffffffffffffffffffffff82166115a85760405162461bcd60e51b81526004018080602001828103825260238152602001806128c46023913960400191505060405180910390fd5b6115b38383836122a9565b6115fd816040518060600160405280602681526020016129936026913973ffffffffffffffffffffffffffffffffffffffff861660009081526097602052604090205491906116a2565b73ffffffffffffffffffffffffffffffffffffffff8085166000908152609760205260408082209390935590841681522054611639908261183f565b73ffffffffffffffffffffffffffffffffffffffff80841660008181526097602090815260409182902094909455805185815290519193928716927fddf252ad1be2c89b69c2b068fc378daa952ba7f163c4a11628f55a4df523b3ef92918290030190a3505050565b600081848411156117315760405162461bcd60e51b81526004018080602001828103825283818151815260200191508051906020019080838360005b838110156116f65781810151838201526020016116de565b50505050905090810190601f1680156117235780820380516001836020036101000a031916815260200191505b509250505060405180910390fd5b505050900390565b600082815260656020526040902061175190826122b4565b15610b0d5761175e6113ed565b73ffffffffffffffffffffffffffffffffffffffff168173ffffffffffffffffffffffffffffffffffffffff16837f2f8788117e7eff1d82e926ec794901d17c78024a50270940304540a733656f0d60405160405180910390a45050565b60008281526065602052604090206117d490826122d6565b15610b0d576117e16113ed565b73ffffffffffffffffffffffffffffffffffffffff168173ffffffffffffffffffffffffffffffffffffffff16837ff6391f5c32d9c69d2a47ea670b442974b53935d1edc7fd64eb21e047a839171b60405160405180910390a45050565b600082820183811015610ecf576040805162461bcd60e51b815260206004820152601b60248201527f536166654d6174683a206164646974696f6e206f766572666c6f770000000000604482015290519081900360640190fd5b60fb5460ff166118f0576040805162461bcd60e51b815260206004820152601460248201527f5061757361626c653a206e6f7420706175736564000000000000000000000000604482015290519081900360640190fd5b60fb80547fffffffffffffffffffffffffffffffffffffffffffffffffffffffffffffff001690557f5db9ee0a495bf2e6ff9c91a7834c1ba4fdd244a5e8aa4e537bd38aeae4b073aa6119416113ed565b6040805173ffffffffffffffffffffffffffffffffffffffff9092168252519081900360200190a1565b73ffffffffffffffffffffffffffffffffffffffff82166119d3576040805162461bcd60e51b815260206004820152601f60248201527f45524332303a206d696e7420746f20746865207a65726f206164647265737300604482015290519081900360640190fd5b6119df600083836122a9565b6099546119ec908261183f565b60995573ffffffffffffffffffffffffffffffffffffffff8216600090815260976020526040902054611a1f908261183f565b73ffffffffffffffffffffffffffffffffffffffff831660008181526097602090815260408083209490945583518581529351929391927fddf252ad1be2c89b69c2b068fc378daa952ba7f163c4a11628f55a4df523b3ef9281900390910190a35050565b73ffffffffffffffffffffffffffffffffffffffff8216611ad65760405162461bcd60e51b8152600401808060200182810382526021815260200180612ace6021913960400191505060405180910390fd5b611ae2826000836122a9565b611b2c816040518060600160405280602281526020016129166022913973ffffffffffffffffffffffffffffffffffffffff851660009081526097602052604090205491906116a2565b73ffffffffffffffffffffffffffffffffffffffff8316600090815260976020526040902055609954611b5f90826122f8565b60995560408051828152905160009173ffffffffffffffffffffffffffffffffffffffff8516917fddf252ad1be2c89b69c2b068fc378daa952ba7f163c4a11628f55a4df523b3ef9181900360200190a35050565b610191546000908190611bdc9073ffffffffffffffffffffffffffffffffffffffff1661233a565b90506000611c7e611beb612345565b611c788473ffffffffffffffffffffffffffffffffffffffff1663872697296040518163ffffffff1660e01b815260040160206040518083038186803b158015611c3457600080fd5b505afa158015611c48573d6000803e3d6000fd5b505050506040513d6020811015611c5e57600080fd5b5051611c7288611c6c6109e6565b9061183f565b90612351565b906123aa565b90506000611c8b826123ec565b905060008373ffffffffffffffffffffffffffffffffffffffff166371a973056040518163ffffffff1660e01b815260040160206040518083038186803b158015611cd557600080fd5b505afa158015611ce9573d6000803e3d6000fd5b505050506040513d6020811015611cff57600080fd5b50519050818110611d2557620f4240611d1882846122f8565b1115945050505050610aa0565b620f4240611d1883836122f8565b600054610100900460ff1680611d4c5750611d4c611fd4565b80611d5a575060005460ff16155b611d955760405162461bcd60e51b815260040180806020018281038252602e815260200180612aa0602e913960400191505060405180910390fd5b600054610100900460ff16158015611dde57600080547fffffffffffffffffffffffffffffffffffffffffffffffffffffffffffffff0061ff0019909116610100171660011790555b611de6611fda565b611dee611fda565b611df88383612099565b611e00611fda565b611e086121ad565b611e10611fda565b611e1a838361240b565b8015611e2c576000805461ff00191690555b505050565b610191546000908190611e599073ffffffffffffffffffffffffffffffffffffffff1661233a565b90506000611c7e611e68612345565b611c788473ffffffffffffffffffffffffffffffffffffffff1663872697296040518163ffffffff1660e01b815260040160206040518083038186803b158015611eb157600080fd5b505afa158015611ec5573d6000803e3d6000fd5b505050506040513d6020811015611edb57600080fd5b5051611c7288611ee96109e6565b906122f8565b60fb5460ff1615611f47576040805162461bcd60e51b815260206004820152601060248201527f5061757361626c653a2070617573656400000000000000000000000000000000604482015290519081900360640190fd5b60fb80547fffffffffffffffffffffffffffffffffffffffffffffffffffffffffffffff001660011790557f62e78cea01bee320cd4e420270b5ea74000d11b0c9f74754ebdbfc544b05a2586119416113ed565b6000610ecf8383612520565b6000610ecf8373ffffffffffffffffffffffffffffffffffffffff8416612584565b60006109e08261259c565b303b1590565b600054610100900460ff1680611ff35750611ff3611fd4565b80612001575060005460ff16155b61203c5760405162461bcd60e51b815260040180806020018281038252602e815260200180612aa0602e913960400191505060405180910390fd5b600054610100900460ff1615801561208557600080547fffffffffffffffffffffffffffffffffffffffffffffffffffffffffffffff0061ff0019909116610100171660011790555b8015610ce3576000805461ff001916905550565b600054610100900460ff16806120b257506120b2611fd4565b806120c0575060005460ff16155b6120fb5760405162461bcd60e51b815260040180806020018281038252602e815260200180612aa0602e913960400191505060405180910390fd5b600054610100900460ff1615801561214457600080547fffffffffffffffffffffffffffffffffffffffffffffffffffffffffffffff0061ff0019909116610100171660011790555b825161215790609a90602086019061280e565b50815161216b90609b90602085019061280e565b50609c80547fffffffffffffffffffffffffffffffffffffffffffffffffffffffffffffff001660121790558015611e2c576000805461ff0019169055505050565b600054610100900460ff16806121c657506121c6611fd4565b806121d4575060005460ff16155b61220f5760405162461bcd60e51b815260040180806020018281038252602e815260200180612aa0602e913960400191505060405180910390fd5b600054610100900460ff1615801561225857600080547fffffffffffffffffffffffffffffffffffffffffffffffffffffffffffffff0061ff0019909116610100171660011790555b60fb80547fffffffffffffffffffffffffffffffffffffffffffffffffffffffffffffff001690558015610ce3576000805461ff001916905550565b60009182526065602052604090912060020155565b611e2c8383836125a0565b6000610ecf8373ffffffffffffffffffffffffffffffffffffffff84166125ef565b6000610ecf8373ffffffffffffffffffffffffffffffffffffffff8416612639565b6000610ecf83836040518060400160405280601e81526020017f536166654d6174683a207375627472616374696f6e206f766572666c6f7700008152506116a2565b60006109e08261271d565b670de0b6b3a764000090565b600082612360575060006109e0565b8282028284828161236d57fe5b0414610ecf5760405162461bcd60e51b81526004018080602001828103825260218152602001806129e96021913960400191505060405180910390fd5b6000610ecf83836040518060400160405280601a81526020017f536166654d6174683a206469766973696f6e206279207a65726f0000000000008152506127a2565b60006109e06124046123fc612807565b611c78612345565b83906123aa565b600054610100900460ff16806124245750612424611fd4565b80612432575060005460ff16155b61246d5760405162461bcd60e51b815260040180806020018281038252602e815260200180612aa0602e913960400191505060405180910390fd5b600054610100900460ff161580156124b657600080547fffffffffffffffffffffffffffffffffffffffffffffffffffffffffffffff0061ff0019909116610100171660011790555b6124c860006124c36113ed565b610b03565b6124f47f9f2df0fed2c77648de5860a4cc508cd0818c85b8b8a1ab4ceeef8d981c8956a66124c36113ed565b611e1a7f65d7a28e3265b37a6474929f336521b332c1681b933f6cb9f3376673440d862a6124c36113ed565b815460009082106125625760405162461bcd60e51b81526004018080602001828103825260228152602001806128a26022913960400191505060405180910390fd5b82600001828154811061257157fe5b9060005260206000200154905092915050565b60009081526001919091016020526040902054151590565b5490565b6125ab838383611e2c565b6125b3610d3e565b15611e2c5760405162461bcd60e51b815260040180806020018281038252602a815260200180612c31602a913960400191505060405180910390fd5b60006125fb8383612584565b612631575081546001818101845560008481526020808220909301849055845484825282860190935260409020919091556109e0565b5060006109e0565b600081815260018301602052604081205480156127135783547fffffffffffffffffffffffffffffffffffffffffffffffffffffffffffffffff808301919081019060009087908390811061268a57fe5b90600052602060002001549050808760000184815481106126a757fe5b6000918252602080832090910192909255828152600189810190925260409020908401905586548790806126d757fe5b600190038181906000526020600020016000905590558660010160008781526020019081526020016000206000905560019450505050506109e0565b60009150506109e0565b600073ffffffffffffffffffffffffffffffffffffffff821663b93f9b0a826040518263ffffffff1660e01b81526004018082815260200191505060206040518083038186803b15801561277057600080fd5b505afa158015612784573d6000803e3d6000fd5b505050506040513d602081101561279a57600080fd5b505192915050565b600081836127f15760405162461bcd60e51b81526020600482018181528351602484015283519092839260449091019190850190808383600083156116f65781810151838201526020016116de565b5060008385816127fd57fe5b0495945050505050565b620f424090565b828054600181600116156101000203166002900490600052602060002090601f016020900481019282601f1061284f57805160ff191683800117855561287c565b8280016001018555821561287c579182015b8281111561287c578251825591602001919060010190612861565b5061288892915061288c565b5090565b5b80821115612888576000815560010161288d56fe456e756d657261626c655365743a20696e646578206f7574206f6620626f756e647345524332303a207472616e7366657220746f20746865207a65726f2061646472657373416363657373436f6e74726f6c3a2073656e646572206d75737420626520616e2061646d696e20746f206772616e7445524332303a206275726e20616d6f756e7420657863656564732062616c616e636545524332305072657365744d696e7465725061757365723a206d75737420686176652070617573657220726f6c6520746f20756e706175736545524332303a20617070726f766520746f20746865207a65726f206164647265737345524332303a207472616e7366657220616d6f756e7420657863656564732062616c616e6365416363657373436f6e74726f6c3a2073656e646572206d75737420626520616e2061646d696e20746f207265766f6b65536166654d6174683a206d756c7469706c69636174696f6e206f766572666c6f7745524332303a207472616e7366657220616d6f756e74206578636565647320616c6c6f77616e636543616e6e6f74206275726e3a20697420776f756c642063726561746520616e2061737365742f6c696162696c697479206d69736d6174636845524332305072657365744d696e7465725061757365723a206d7573742068617665206d696e74657220726f6c6520746f206d696e74436f6e747261637420696e7374616e63652068617320616c7265616479206265656e20696e697469616c697a656445524332303a206275726e2066726f6d20746865207a65726f206164647265737345524332303a207472616e736665722066726f6d20746865207a65726f206164647265737345524332305072657365744d696e7465725061757365723a204d7573742068617665206d696e74657220726f6c6520746f206275726e45524332303a20617070726f76652066726f6d20746865207a65726f206164647265737345524332305072657365744d696e7465725061757365723a206d75737420686176652070617573657220726f6c6520746f20706175736543616e6e6f74206d696e743a20697420776f756c642063726561746520616e2061737365742f6c696162696c697479206d69736d6174636845524332303a2064656372656173656420616c6c6f77616e63652062656c6f77207a65726f416363657373436f6e74726f6c3a2063616e206f6e6c792072656e6f756e636520726f6c657320666f722073656c6645524332305061757361626c653a20746f6b656e207472616e73666572207768696c6520706175736564a26469706673582212204c26c169a05619d94634c80f0475a79b5084499960084c32746166671caf794864736f6c634300060c0033",
  "devdoc": {
    "author": "Goldfinch",
    "kind": "dev",
    "methods": {
      "allowance(address,address)": {
        "details": "See {IERC20-allowance}."
      },
      "approve(address,uint256)": {
        "details": "See {IERC20-approve}. Requirements: - `spender` cannot be the zero address."
      },
      "balanceOf(address)": {
        "details": "See {IERC20-balanceOf}."
      },
      "burn(uint256)": {
        "details": "Destroys `amount` tokens from the caller. See {ERC20-_burn}."
      },
      "burnFrom(address,uint256)": {
        "details": "Destroys `amount` tokens from `account`, deducting from the caller's allowance. See {ERC20-_burn} and {ERC20-allowance}. Requirements: - the caller must have the MINTER_ROLE"
      },
      "decimals()": {
        "details": "Returns the number of decimals used to get its user representation. For example, if `decimals` equals `2`, a balance of `505` tokens should be displayed to a user as `5,05` (`505 / 10 ** 2`). Tokens usually opt for a value of 18, imitating the relationship between Ether and Wei. This is the value {ERC20} uses, unless {_setupDecimals} is called. NOTE: This information is only used for _display_ purposes: it in no way affects any of the arithmetic of the contract, including {IERC20-balanceOf} and {IERC20-transfer}."
      },
      "decreaseAllowance(address,uint256)": {
        "details": "Atomically decreases the allowance granted to `spender` by the caller. This is an alternative to {approve} that can be used as a mitigation for problems described in {IERC20-approve}. Emits an {Approval} event indicating the updated allowance. Requirements: - `spender` cannot be the zero address. - `spender` must have allowance for the caller of at least `subtractedValue`."
      },
      "getRoleAdmin(bytes32)": {
        "details": "Returns the admin role that controls `role`. See {grantRole} and {revokeRole}. To change a role's admin, use {_setRoleAdmin}."
      },
      "getRoleMember(bytes32,uint256)": {
        "details": "Returns one of the accounts that have `role`. `index` must be a value between 0 and {getRoleMemberCount}, non-inclusive. Role bearers are not sorted in any particular way, and their ordering may change at any point. WARNING: When using {getRoleMember} and {getRoleMemberCount}, make sure you perform all queries on the same block. See the following https://forum.openzeppelin.com/t/iterating-over-elements-on-enumerableset-in-openzeppelin-contracts/2296[forum post] for more information."
      },
      "getRoleMemberCount(bytes32)": {
        "details": "Returns the number of accounts that have `role`. Can be used together with {getRoleMember} to enumerate all bearers of a role."
      },
      "grantRole(bytes32,address)": {
        "details": "Grants `role` to `account`. If `account` had not been already granted `role`, emits a {RoleGranted} event. Requirements: - the caller must have ``role``'s admin role."
      },
      "hasRole(bytes32,address)": {
        "details": "Returns `true` if `account` has been granted `role`."
      },
      "increaseAllowance(address,uint256)": {
        "details": "Atomically increases the allowance granted to `spender` by the caller. This is an alternative to {approve} that can be used as a mitigation for problems described in {IERC20-approve}. Emits an {Approval} event indicating the updated allowance. Requirements: - `spender` cannot be the zero address."
      },
      "initialize(string,string)": {
        "details": "Grants `DEFAULT_ADMIN_ROLE`, `MINTER_ROLE` and `PAUSER_ROLE` to the account that deploys the contract. See {ERC20-constructor}."
      },
      "mint(address,uint256)": {
        "details": "Creates `amount` new tokens for `to`. See {ERC20-_mint}. Requirements: - the caller must have the `MINTER_ROLE`."
      },
      "mintTo(address,uint256)": {
        "details": "Creates `amount` new tokens for `to`. See {ERC20-_mint}. Requirements: - the caller must have the `MINTER_ROLE`."
      },
      "name()": {
        "details": "Returns the name of the token."
      },
      "pause()": {
        "details": "Pauses all token transfers. See {ERC20Pausable} and {Pausable-_pause}. Requirements: - the caller must have the `PAUSER_ROLE`."
      },
      "paused()": {
        "details": "Returns true if the contract is paused, and false otherwise."
      },
      "renounceRole(bytes32,address)": {
        "details": "Revokes `role` from the calling account. Roles are often managed via {grantRole} and {revokeRole}: this function's purpose is to provide a mechanism for accounts to lose their privileges if they are compromised (such as when a trusted device is misplaced). If the calling account had been granted `role`, emits a {RoleRevoked} event. Requirements: - the caller must be `account`."
      },
      "revokeRole(bytes32,address)": {
        "details": "Revokes `role` from `account`. If `account` had been granted `role`, emits a {RoleRevoked} event. Requirements: - the caller must have ``role``'s admin role."
      },
      "symbol()": {
        "details": "Returns the symbol of the token, usually a shorter version of the name."
      },
      "totalSupply()": {
        "details": "See {IERC20-totalSupply}."
      },
      "transfer(address,uint256)": {
        "details": "See {IERC20-transfer}. Requirements: - `recipient` cannot be the zero address. - the caller must have a balance of at least `amount`."
      },
      "transferFrom(address,address,uint256)": {
        "details": "See {IERC20-transferFrom}. Emits an {Approval} event indicating the updated allowance. This is not required by the EIP. See the note at the beginning of {ERC20}; Requirements: - `sender` and `recipient` cannot be the zero address. - `sender` must have a balance of at least `amount`. - the caller must have allowance for ``sender``'s tokens of at least `amount`."
      },
      "unpause()": {
        "details": "Unpauses all token transfers. See {ERC20Pausable} and {Pausable-_unpause}. Requirements: - the caller must have the `PAUSER_ROLE`."
      }
    },
    "title": "Fidu",
    "version": 1
  },
  "userdoc": {
    "kind": "user",
    "methods": {},
    "notice": "Fidu (symbol: FIDU) is Goldfinch's liquidity token, representing shares  in the Pool. When you deposit, we mint a corresponding amount of Fidu, and when you withdraw, we  burn Fidu. The share price of the Pool implicitly represents the \"exchange rate\" between Fidu  and USDC (or whatever currencies the Pool may allow withdraws in during the future)",
    "version": 1
  },
  "storageLayout": {
    "storage": [
      {
        "astId": 151,
        "contract": "contracts/protocol/core/Fidu.sol:Fidu",
        "label": "initialized",
        "offset": 0,
        "slot": "0",
        "type": "t_bool"
      },
      {
        "astId": 154,
        "contract": "contracts/protocol/core/Fidu.sol:Fidu",
        "label": "initializing",
        "offset": 1,
        "slot": "0",
        "type": "t_bool"
      },
      {
        "astId": 219,
        "contract": "contracts/protocol/core/Fidu.sol:Fidu",
        "label": "______gap",
        "offset": 0,
        "slot": "1",
        "type": "t_array(t_uint256)50_storage"
      },
      {
        "astId": 144,
        "contract": "contracts/protocol/core/Fidu.sol:Fidu",
        "label": "__gap",
        "offset": 0,
        "slot": "51",
        "type": "t_array(t_uint256)50_storage"
      },
      {
        "astId": 264,
        "contract": "contracts/protocol/core/Fidu.sol:Fidu",
        "label": "_roles",
        "offset": 0,
        "slot": "101",
        "type": "t_mapping(t_bytes32,t_struct(RoleData)260_storage)"
      },
      {
        "astId": 509,
        "contract": "contracts/protocol/core/Fidu.sol:Fidu",
        "label": "__gap",
        "offset": 0,
        "slot": "102",
        "type": "t_array(t_uint256)49_storage"
      },
      {
        "astId": 1171,
        "contract": "contracts/protocol/core/Fidu.sol:Fidu",
        "label": "_balances",
        "offset": 0,
        "slot": "151",
        "type": "t_mapping(t_address,t_uint256)"
      },
      {
        "astId": 1177,
        "contract": "contracts/protocol/core/Fidu.sol:Fidu",
        "label": "_allowances",
        "offset": 0,
        "slot": "152",
        "type": "t_mapping(t_address,t_mapping(t_address,t_uint256))"
      },
      {
        "astId": 1179,
        "contract": "contracts/protocol/core/Fidu.sol:Fidu",
        "label": "_totalSupply",
        "offset": 0,
        "slot": "153",
        "type": "t_uint256"
      },
      {
        "astId": 1181,
        "contract": "contracts/protocol/core/Fidu.sol:Fidu",
        "label": "_name",
        "offset": 0,
        "slot": "154",
        "type": "t_string_storage"
      },
      {
        "astId": 1183,
        "contract": "contracts/protocol/core/Fidu.sol:Fidu",
        "label": "_symbol",
        "offset": 0,
        "slot": "155",
        "type": "t_string_storage"
      },
      {
        "astId": 1185,
        "contract": "contracts/protocol/core/Fidu.sol:Fidu",
        "label": "_decimals",
        "offset": 0,
        "slot": "156",
        "type": "t_uint8"
      },
      {
        "astId": 1680,
        "contract": "contracts/protocol/core/Fidu.sol:Fidu",
        "label": "__gap",
        "offset": 0,
        "slot": "157",
        "type": "t_array(t_uint256)44_storage"
      },
      {
        "astId": 1761,
        "contract": "contracts/protocol/core/Fidu.sol:Fidu",
        "label": "__gap",
        "offset": 0,
        "slot": "201",
        "type": "t_array(t_uint256)50_storage"
      },
      {
        "astId": 2385,
        "contract": "contracts/protocol/core/Fidu.sol:Fidu",
        "label": "_paused",
        "offset": 0,
        "slot": "251",
        "type": "t_bool"
      },
      {
        "astId": 2474,
        "contract": "contracts/protocol/core/Fidu.sol:Fidu",
        "label": "__gap",
        "offset": 0,
        "slot": "252",
        "type": "t_array(t_uint256)49_storage"
      },
      {
        "astId": 1826,
        "contract": "contracts/protocol/core/Fidu.sol:Fidu",
        "label": "__gap",
        "offset": 0,
        "slot": "301",
        "type": "t_array(t_uint256)50_storage"
      },
      {
        "astId": 1146,
        "contract": "contracts/protocol/core/Fidu.sol:Fidu",
        "label": "__gap",
        "offset": 0,
        "slot": "351",
        "type": "t_array(t_uint256)50_storage"
      },
      {
        "astId": 7528,
        "contract": "contracts/protocol/core/Fidu.sol:Fidu",
        "label": "config",
        "offset": 0,
        "slot": "401",
        "type": "t_contract(GoldfinchConfig)8044"
      }
    ],
    "types": {
      "t_address": {
        "encoding": "inplace",
        "label": "address",
        "numberOfBytes": "20"
      },
      "t_array(t_bytes32)dyn_storage": {
        "base": "t_bytes32",
        "encoding": "dynamic_array",
        "label": "bytes32[]",
        "numberOfBytes": "32"
      },
      "t_array(t_uint256)44_storage": {
        "base": "t_uint256",
        "encoding": "inplace",
        "label": "uint256[44]",
        "numberOfBytes": "1408"
      },
      "t_array(t_uint256)49_storage": {
        "base": "t_uint256",
        "encoding": "inplace",
        "label": "uint256[49]",
        "numberOfBytes": "1568"
      },
      "t_array(t_uint256)50_storage": {
        "base": "t_uint256",
        "encoding": "inplace",
        "label": "uint256[50]",
        "numberOfBytes": "1600"
      },
      "t_bool": {
        "encoding": "inplace",
        "label": "bool",
        "numberOfBytes": "1"
      },
      "t_bytes32": {
        "encoding": "inplace",
        "label": "bytes32",
        "numberOfBytes": "32"
      },
      "t_contract(GoldfinchConfig)8044": {
        "encoding": "inplace",
        "label": "contract GoldfinchConfig",
        "numberOfBytes": "20"
      },
      "t_mapping(t_address,t_mapping(t_address,t_uint256))": {
        "encoding": "mapping",
        "key": "t_address",
        "label": "mapping(address => mapping(address => uint256))",
        "numberOfBytes": "32",
        "value": "t_mapping(t_address,t_uint256)"
      },
      "t_mapping(t_address,t_uint256)": {
        "encoding": "mapping",
        "key": "t_address",
        "label": "mapping(address => uint256)",
        "numberOfBytes": "32",
        "value": "t_uint256"
      },
      "t_mapping(t_bytes32,t_struct(RoleData)260_storage)": {
        "encoding": "mapping",
        "key": "t_bytes32",
        "label": "mapping(bytes32 => struct AccessControlUpgradeSafe.RoleData)",
        "numberOfBytes": "32",
        "value": "t_struct(RoleData)260_storage"
      },
      "t_mapping(t_bytes32,t_uint256)": {
        "encoding": "mapping",
        "key": "t_bytes32",
        "label": "mapping(bytes32 => uint256)",
        "numberOfBytes": "32",
        "value": "t_uint256"
      },
      "t_string_storage": {
        "encoding": "bytes",
        "label": "string",
        "numberOfBytes": "32"
      },
      "t_struct(AddressSet)2160_storage": {
        "encoding": "inplace",
        "label": "struct EnumerableSet.AddressSet",
        "members": [
          {
            "astId": 2159,
            "contract": "contracts/protocol/core/Fidu.sol:Fidu",
            "label": "_inner",
            "offset": 0,
            "slot": "0",
            "type": "t_struct(Set)1980_storage"
          }
        ],
        "numberOfBytes": "64"
      },
      "t_struct(RoleData)260_storage": {
        "encoding": "inplace",
        "label": "struct AccessControlUpgradeSafe.RoleData",
        "members": [
          {
            "astId": 257,
            "contract": "contracts/protocol/core/Fidu.sol:Fidu",
            "label": "members",
            "offset": 0,
            "slot": "0",
            "type": "t_struct(AddressSet)2160_storage"
          },
          {
            "astId": 259,
            "contract": "contracts/protocol/core/Fidu.sol:Fidu",
            "label": "adminRole",
            "offset": 0,
            "slot": "2",
            "type": "t_bytes32"
          }
        ],
        "numberOfBytes": "96"
      },
      "t_struct(Set)1980_storage": {
        "encoding": "inplace",
        "label": "struct EnumerableSet.Set",
        "members": [
          {
            "astId": 1975,
            "contract": "contracts/protocol/core/Fidu.sol:Fidu",
            "label": "_values",
            "offset": 0,
            "slot": "0",
            "type": "t_array(t_bytes32)dyn_storage"
          },
          {
            "astId": 1979,
            "contract": "contracts/protocol/core/Fidu.sol:Fidu",
            "label": "_indexes",
            "offset": 0,
            "slot": "1",
            "type": "t_mapping(t_bytes32,t_uint256)"
          }
        ],
        "numberOfBytes": "64"
      },
      "t_uint256": {
        "encoding": "inplace",
        "label": "uint256",
        "numberOfBytes": "32"
      },
      "t_uint8": {
        "encoding": "inplace",
        "label": "uint8",
        "numberOfBytes": "1"
      }
    }
  }
}