{
  "address": "0x389F0C0FE2EAe0DBe2e246a13A939aE1CEB0A29C",
  "abi": [
    {
      "anonymous": false,
      "inputs": [
        {
          "indexed": true,
          "internalType": "address",
          "name": "owner",
          "type": "address"
        },
        {
          "indexed": true,
          "internalType": "address",
          "name": "spender",
          "type": "address"
        },
        {
          "indexed": false,
          "internalType": "uint256",
          "name": "value",
          "type": "uint256"
        }
      ],
      "name": "Approval",
      "type": "event"
    },
    {
      "anonymous": false,
      "inputs": [
        {
          "indexed": false,
          "internalType": "address",
          "name": "account",
          "type": "address"
        }
      ],
      "name": "Paused",
      "type": "event"
    },
    {
      "anonymous": false,
      "inputs": [
        {
          "indexed": true,
          "internalType": "bytes32",
          "name": "role",
          "type": "bytes32"
        },
        {
          "indexed": true,
          "internalType": "address",
          "name": "account",
          "type": "address"
        },
        {
          "indexed": true,
          "internalType": "address",
          "name": "sender",
          "type": "address"
        }
      ],
      "name": "RoleGranted",
      "type": "event"
    },
    {
      "anonymous": false,
      "inputs": [
        {
          "indexed": true,
          "internalType": "bytes32",
          "name": "role",
          "type": "bytes32"
        },
        {
          "indexed": true,
          "internalType": "address",
          "name": "account",
          "type": "address"
        },
        {
          "indexed": true,
          "internalType": "address",
          "name": "sender",
          "type": "address"
        }
      ],
      "name": "RoleRevoked",
      "type": "event"
    },
    {
      "anonymous": false,
      "inputs": [
        {
          "indexed": true,
          "internalType": "address",
          "name": "from",
          "type": "address"
        },
        {
          "indexed": true,
          "internalType": "address",
          "name": "to",
          "type": "address"
        },
        {
          "indexed": false,
          "internalType": "uint256",
          "name": "value",
          "type": "uint256"
        }
      ],
      "name": "Transfer",
      "type": "event"
    },
    {
      "anonymous": false,
      "inputs": [
        {
          "indexed": false,
          "internalType": "address",
          "name": "account",
          "type": "address"
        }
      ],
      "name": "Unpaused",
      "type": "event"
    },
    {
      "inputs": [],
      "name": "ASSET_LIABILITY_MATCH_THRESHOLD",
      "outputs": [
        {
          "internalType": "uint256",
          "name": "",
          "type": "uint256"
        }
      ],
      "stateMutability": "view",
      "type": "function"
    },
    {
      "inputs": [],
      "name": "DEFAULT_ADMIN_ROLE",
      "outputs": [
        {
          "internalType": "bytes32",
          "name": "",
          "type": "bytes32"
        }
      ],
      "stateMutability": "view",
      "type": "function"
    },
    {
      "inputs": [],
      "name": "MINTER_ROLE",
      "outputs": [
        {
          "internalType": "bytes32",
          "name": "",
          "type": "bytes32"
        }
      ],
      "stateMutability": "view",
      "type": "function"
    },
    {
      "inputs": [],
      "name": "OWNER_ROLE",
      "outputs": [
        {
          "internalType": "bytes32",
          "name": "",
          "type": "bytes32"
        }
      ],
      "stateMutability": "view",
      "type": "function"
    },
    {
      "inputs": [],
      "name": "PAUSER_ROLE",
      "outputs": [
        {
          "internalType": "bytes32",
          "name": "",
          "type": "bytes32"
        }
      ],
      "stateMutability": "view",
      "type": "function"
    },
    {
      "inputs": [
        {
          "internalType": "address",
          "name": "owner",
          "type": "address"
        },
        {
          "internalType": "string",
          "name": "name",
          "type": "string"
        },
        {
          "internalType": "string",
          "name": "symbol",
          "type": "string"
        },
        {
          "internalType": "contract GoldfinchConfig",
          "name": "_config",
          "type": "address"
        }
      ],
      "name": "__initialize__",
      "outputs": [],
      "stateMutability": "nonpayable",
      "type": "function"
    },
    {
      "inputs": [
        {
          "internalType": "address",
          "name": "owner",
          "type": "address"
        },
        {
          "internalType": "address",
          "name": "spender",
          "type": "address"
        }
      ],
      "name": "allowance",
      "outputs": [
        {
          "internalType": "uint256",
          "name": "",
          "type": "uint256"
        }
      ],
      "stateMutability": "view",
      "type": "function"
    },
    {
      "inputs": [
        {
          "internalType": "address",
          "name": "spender",
          "type": "address"
        },
        {
          "internalType": "uint256",
          "name": "amount",
          "type": "uint256"
        }
      ],
      "name": "approve",
      "outputs": [
        {
          "internalType": "bool",
          "name": "",
          "type": "bool"
        }
      ],
      "stateMutability": "nonpayable",
      "type": "function"
    },
    {
      "inputs": [
        {
          "internalType": "address",
          "name": "account",
          "type": "address"
        }
      ],
      "name": "balanceOf",
      "outputs": [
        {
          "internalType": "uint256",
          "name": "",
          "type": "uint256"
        }
      ],
      "stateMutability": "view",
      "type": "function"
    },
    {
      "inputs": [
        {
          "internalType": "uint256",
          "name": "amount",
          "type": "uint256"
        }
      ],
      "name": "burn",
      "outputs": [],
      "stateMutability": "nonpayable",
      "type": "function"
    },
    {
      "inputs": [
        {
          "internalType": "address",
          "name": "from",
          "type": "address"
        },
        {
          "internalType": "uint256",
          "name": "amount",
          "type": "uint256"
        }
      ],
      "name": "burnFrom",
      "outputs": [],
      "stateMutability": "nonpayable",
      "type": "function"
    },
    {
      "inputs": [],
      "name": "config",
      "outputs": [
        {
          "internalType": "contract GoldfinchConfig",
          "name": "",
          "type": "address"
        }
      ],
      "stateMutability": "view",
      "type": "function"
    },
    {
      "inputs": [],
      "name": "decimals",
      "outputs": [
        {
          "internalType": "uint8",
          "name": "",
          "type": "uint8"
        }
      ],
      "stateMutability": "view",
      "type": "function"
    },
    {
      "inputs": [
        {
          "internalType": "address",
          "name": "spender",
          "type": "address"
        },
        {
          "internalType": "uint256",
          "name": "subtractedValue",
          "type": "uint256"
        }
      ],
      "name": "decreaseAllowance",
      "outputs": [
        {
          "internalType": "bool",
          "name": "",
          "type": "bool"
        }
      ],
      "stateMutability": "nonpayable",
      "type": "function"
    },
    {
      "inputs": [
        {
          "internalType": "bytes32",
          "name": "role",
          "type": "bytes32"
        }
      ],
      "name": "getRoleAdmin",
      "outputs": [
        {
          "internalType": "bytes32",
          "name": "",
          "type": "bytes32"
        }
      ],
      "stateMutability": "view",
      "type": "function"
    },
    {
      "inputs": [
        {
          "internalType": "bytes32",
          "name": "role",
          "type": "bytes32"
        },
        {
          "internalType": "uint256",
          "name": "index",
          "type": "uint256"
        }
      ],
      "name": "getRoleMember",
      "outputs": [
        {
          "internalType": "address",
          "name": "",
          "type": "address"
        }
      ],
      "stateMutability": "view",
      "type": "function"
    },
    {
      "inputs": [
        {
          "internalType": "bytes32",
          "name": "role",
          "type": "bytes32"
        }
      ],
      "name": "getRoleMemberCount",
      "outputs": [
        {
          "internalType": "uint256",
          "name": "",
          "type": "uint256"
        }
      ],
      "stateMutability": "view",
      "type": "function"
    },
    {
      "inputs": [
        {
          "internalType": "bytes32",
          "name": "role",
          "type": "bytes32"
        },
        {
          "internalType": "address",
          "name": "account",
          "type": "address"
        }
      ],
      "name": "grantRole",
      "outputs": [],
      "stateMutability": "nonpayable",
      "type": "function"
    },
    {
      "inputs": [
        {
          "internalType": "bytes32",
          "name": "role",
          "type": "bytes32"
        },
        {
          "internalType": "address",
          "name": "account",
          "type": "address"
        }
      ],
      "name": "hasRole",
      "outputs": [
        {
          "internalType": "bool",
          "name": "",
          "type": "bool"
        }
      ],
      "stateMutability": "view",
      "type": "function"
    },
    {
      "inputs": [
        {
          "internalType": "address",
          "name": "spender",
          "type": "address"
        },
        {
          "internalType": "uint256",
          "name": "addedValue",
          "type": "uint256"
        }
      ],
      "name": "increaseAllowance",
      "outputs": [
        {
          "internalType": "bool",
          "name": "",
          "type": "bool"
        }
      ],
      "stateMutability": "nonpayable",
      "type": "function"
    },
    {
      "inputs": [
        {
          "internalType": "string",
          "name": "name",
          "type": "string"
        },
        {
          "internalType": "string",
          "name": "symbol",
          "type": "string"
        }
      ],
      "name": "initialize",
      "outputs": [],
      "stateMutability": "nonpayable",
      "type": "function"
    },
    {
      "inputs": [
        {
          "internalType": "address",
          "name": "to",
          "type": "address"
        },
        {
          "internalType": "uint256",
          "name": "amount",
          "type": "uint256"
        }
      ],
      "name": "mint",
      "outputs": [],
      "stateMutability": "nonpayable",
      "type": "function"
    },
    {
      "inputs": [
        {
          "internalType": "address",
          "name": "to",
          "type": "address"
        },
        {
          "internalType": "uint256",
          "name": "amount",
          "type": "uint256"
        }
      ],
      "name": "mintTo",
      "outputs": [],
      "stateMutability": "nonpayable",
      "type": "function"
    },
    {
      "inputs": [],
      "name": "name",
      "outputs": [
        {
          "internalType": "string",
          "name": "",
          "type": "string"
        }
      ],
      "stateMutability": "view",
      "type": "function"
    },
    {
      "inputs": [],
      "name": "pause",
      "outputs": [],
      "stateMutability": "nonpayable",
      "type": "function"
    },
    {
      "inputs": [],
      "name": "paused",
      "outputs": [
        {
          "internalType": "bool",
          "name": "",
          "type": "bool"
        }
      ],
      "stateMutability": "view",
      "type": "function"
    },
    {
      "inputs": [
        {
          "internalType": "bytes32",
          "name": "role",
          "type": "bytes32"
        },
        {
          "internalType": "address",
          "name": "account",
          "type": "address"
        }
      ],
      "name": "renounceRole",
      "outputs": [],
      "stateMutability": "nonpayable",
      "type": "function"
    },
    {
      "inputs": [
        {
          "internalType": "bytes32",
          "name": "role",
          "type": "bytes32"
        },
        {
          "internalType": "address",
          "name": "account",
          "type": "address"
        }
      ],
      "name": "revokeRole",
      "outputs": [],
      "stateMutability": "nonpayable",
      "type": "function"
    },
    {
      "inputs": [],
      "name": "symbol",
      "outputs": [
        {
          "internalType": "string",
          "name": "",
          "type": "string"
        }
      ],
      "stateMutability": "view",
      "type": "function"
    },
    {
      "inputs": [],
      "name": "totalSupply",
      "outputs": [
        {
          "internalType": "uint256",
          "name": "",
          "type": "uint256"
        }
      ],
      "stateMutability": "view",
      "type": "function"
    },
    {
      "inputs": [
        {
          "internalType": "address",
          "name": "recipient",
          "type": "address"
        },
        {
          "internalType": "uint256",
          "name": "amount",
          "type": "uint256"
        }
      ],
      "name": "transfer",
      "outputs": [
        {
          "internalType": "bool",
          "name": "",
          "type": "bool"
        }
      ],
      "stateMutability": "nonpayable",
      "type": "function"
    },
    {
      "inputs": [
        {
          "internalType": "address",
          "name": "sender",
          "type": "address"
        },
        {
          "internalType": "address",
          "name": "recipient",
          "type": "address"
        },
        {
          "internalType": "uint256",
          "name": "amount",
          "type": "uint256"
        }
      ],
      "name": "transferFrom",
      "outputs": [
        {
          "internalType": "bool",
          "name": "",
          "type": "bool"
        }
      ],
      "stateMutability": "nonpayable",
      "type": "function"
    },
    {
      "inputs": [],
      "name": "unpause",
      "outputs": [],
      "stateMutability": "nonpayable",
      "type": "function"
    },
    {
      "inputs": [],
      "name": "updateGoldfinchConfig",
      "outputs": [],
      "stateMutability": "nonpayable",
      "type": "function"
    }
  ],
  "transactionHash": "0xf1c490ce235198890aec992a23168bd1eef489aeba92f8a44c69e897e860980f",
  "args": [],
  "solcInputHash": "e2e6a7937b09ef08f199f5a8536ea2f5",
  "bytecode": "0x608060405234801561001057600080fd5b50612813806100206000396000f3fe608060405234801561001057600080fd5b50600436106102065760003560e01c806370a082311161011a578063a457c2d7116100ad578063d547741f1161007c578063d547741f146106f1578063dd62ed3e1461071d578063e58378bb1461074b578063e63ab1e914610753578063f77356f01461075b57610206565b8063a457c2d714610674578063a9059cbb146106a0578063ca15c873146106cc578063d5391393146106e957610206565b80639010d07c116100e95780639010d07c1461061557806391d148541461063857806395d89b4114610664578063a217fddf1461066c57610206565b806370a082311461059757806379502c55146105bd57806379cc6790146105e15780638456cb591461060d57610206565b8063395093511161019d578063449a52f81161016c578063449a52f81461042a5780634cd88b76146104565780634f92a7281461057f5780635c975abb1461058757806363be20301461058f57610206565b806339509351146103ad5780633f4ba83a146103d957806340c10f19146103e157806342966c681461040d57610206565b8063248a9ca3116101d9578063248a9ca3146103185780632f2ff15d14610335578063313ce5671461036357806336568abe1461038157610206565b806306fdde031461020b578063095ea7b31461028857806318160ddd146102c857806323b872dd146102e2575b600080fd5b610213610832565b6040805160208082528351818301528351919283929083019185019080838360005b8381101561024d578181015183820152602001610235565b50505050905090810190601f16801561027a5780820380516001836020036101000a031916815260200191505b509250505060405180910390f35b6102b46004803603604081101561029e57600080fd5b506001600160a01b0381351690602001356108c8565b604080519115158252519081900360200190f35b6102d06108e6565b60408051918252519081900360200190f35b6102b4600480360360608110156102f857600080fd5b506001600160a01b038135811691602081013590911690604001356108ec565b6102d06004803603602081101561032e57600080fd5b5035610973565b6103616004803603604081101561034b57600080fd5b50803590602001356001600160a01b031661098b565b005b61036b6109f7565b6040805160ff9092168252519081900360200190f35b6103616004803603604081101561039757600080fd5b50803590602001356001600160a01b0316610a00565b6102b4600480360360408110156103c357600080fd5b506001600160a01b038135169060200135610a61565b610361610aaf565b610361600480360360408110156103f757600080fd5b506001600160a01b038135169060200135610b0e565b6103616004803603602081101561042357600080fd5b5035610b6d565b6103616004803603604081101561044057600080fd5b506001600160a01b038135169060200135610b81565b6103616004803603604081101561046c57600080fd5b810190602081018135600160201b81111561048657600080fd5b82018360208201111561049857600080fd5b803590602001918460018302840111600160201b831117156104b957600080fd5b91908080601f0160208091040260200160405190810160405280939291908181526020018383808284376000920191909152509295949360208101935035915050600160201b81111561050b57600080fd5b82018360208201111561051d57600080fd5b803590602001918460018302840111600160201b8311171561053e57600080fd5b91908080601f016020809104026020016040519081016040528093929190818152602001838380828437600092019190915250929550610bcf945050505050565b610361610bd9565b6102b4610c67565b6102d0610c70565b6102d0600480360360208110156105ad57600080fd5b50356001600160a01b0316610c77565b6105c5610c92565b604080516001600160a01b039092168252519081900360200190f35b610361600480360360408110156105f757600080fd5b506001600160a01b038135169060200135610ca2565b610361610d45565b6105c56004803603604081101561062b57600080fd5b5080359060200135610da2565b6102b46004803603604081101561064e57600080fd5b50803590602001356001600160a01b0316610dc1565b610213610dd9565b6102d0610e3a565b6102b46004803603604081101561068a57600080fd5b506001600160a01b038135169060200135610e3f565b6102b4600480360360408110156106b657600080fd5b506001600160a01b038135169060200135610ea7565b6102d0600480360360208110156106e257600080fd5b5035610ebb565b6102d0610ed2565b6103616004803603604081101561070757600080fd5b50803590602001356001600160a01b0316610ee4565b6102d06004803603604081101561073357600080fd5b506001600160a01b0381358116916020013516610f3d565b6102d0610f68565b6102d0610f7a565b6103616004803603608081101561077157600080fd5b6001600160a01b038235169190810190604081016020820135600160201b81111561079b57600080fd5b8201836020820111156107ad57600080fd5b803590602001918460018302840111600160201b831117156107ce57600080fd5b919390929091602081019035600160201b8111156107eb57600080fd5b8201836020820111156107fd57600080fd5b803590602001918460018302840111600160201b8311171561081e57600080fd5b9193509150356001600160a01b0316610f8c565b609a8054604080516020601f60026000196101006001881615020190951694909404938401819004810282018101909252828152606093909290918301828280156108be5780601f10610893576101008083540402835291602001916108be565b820191906000526020600020905b8154815290600101906020018083116108a157829003601f168201915b5050505050905090565b60006108dc6108d5611197565b848461119b565b5060015b92915050565b60995490565b60006108f9848484611287565b61096984610905611197565b6109648560405180606001604052806028815260200161254d602891396001600160a01b038a16600090815260986020526040812090610943611197565b6001600160a01b0316815260208101919091526040016000205491906113e4565b61119b565b5060019392505050565b6000818152606560205260409020600201545b919050565b6000828152606560205260409020600201546109ae906109a9611197565b610dc1565b6109e95760405162461bcd60e51b815260040180806020018281038252602f8152602001806123cb602f913960400191505060405180910390fd5b6109f3828261147b565b5050565b609c5460ff1690565b610a08611197565b6001600160a01b0316816001600160a01b031614610a575760405162461bcd60e51b815260040180806020018281038252602f815260200180612785602f913960400191505060405180910390fd5b6109f382826114e4565b60006108dc610a6e611197565b846109648560986000610a7f611197565b6001600160a01b03908116825260208083019390935260409182016000908120918c16815292529020549061154d565b610ac96000805160206125758339815191526109a9611197565b610b045760405162461bcd60e51b815260040180806020018281038252603981526020018061241c6039913960400191505060405180910390fd5b610b0c6115a7565b565b610b286000805160206126318339815191526109a9611197565b610b635760405162461bcd60e51b81526004018080602001828103825260368152602001806125cd6036913960400191505060405180910390fd5b6109f38282611645565b610b7e610b78611197565b82611737565b50565b610b8a81611833565b610bc55760405162461bcd60e51b81526004018080602001828103825260388152602001806127286038913960400191505060405180910390fd5b6109f38282610b0e565b6109f3828261198b565b610bf36000805160206126318339815191526109a9611197565b610c2e5760405162461bcd60e51b815260040180806020018281038252603f815260200180612455603f913960400191505060405180910390fd5b61019154610c44906001600160a01b0316611a6b565b61019180546001600160a01b0319166001600160a01b0392909216919091179055565b60fb5460ff1690565b620f424081565b6001600160a01b031660009081526097602052604090205490565b610191546001600160a01b031681565b610cbc6000805160206126318339815191526109a9611197565b610cf75760405162461bcd60e51b81526004018080602001828103825260368152602001806126976036913960400191505060405180910390fd5b610d0081611ae5565b610d3b5760405162461bcd60e51b81526004018080602001828103825260388152602001806125956038913960400191505060405180910390fd5b6109f38282611737565b610d5f6000805160206125758339815191526109a9611197565b610d9a5760405162461bcd60e51b81526004018080602001828103825260378152602001806126f16037913960400191505060405180910390fd5b610b0c611b89565b6000828152606560205260408120610dba9083611c0a565b9392505050565b6000828152606560205260408120610dba9083611c16565b609b8054604080516020601f60026000196101006001881615020190951694909404938401819004810282018101909252828152606093909290918301828280156108be5780601f10610893576101008083540402835291602001916108be565b600081565b60006108dc610e4c611197565b84610964856040518060600160405280602581526020016127606025913960986000610e76611197565b6001600160a01b03908116825260208083019390935260409182016000908120918d168152925290205491906113e4565b60006108dc610eb4611197565b8484611287565b60008181526065602052604081206108e090611c2b565b60008051602061263183398151915281565b600082815260656020526040902060020154610f02906109a9611197565b610a575760405162461bcd60e51b81526004018080602001828103825260308152602001806124fc6030913960400191505060405180910390fd5b6001600160a01b03918216600090815260986020908152604080832093909416825291909152205490565b6000805160206124dc83398151915281565b60008051602061257583398151915281565b600054610100900460ff1680610fa55750610fa5611c36565b80610fb3575060005460ff16155b610fee5760405162461bcd60e51b815260040180806020018281038252602e815260200180612603602e913960400191505060405180910390fd5b600054610100900460ff16158015611019576000805460ff1961ff0019909116610100171660011790555b611021611c3c565b611029611c3c565b61109c86868080601f01602080910402602001604051908101604052809392919081815260200183838082843760009201919091525050604080516020601f8a018190048102820181019092528881529250889150879081908401838280828437600092019190915250611cdd92505050565b6110a4611c3c565b6110ac611db5565b6110b4611c3c565b61019180546001600160a01b0319166001600160a01b0384161790556110e8600080516020612631833981519152886109e9565b611100600080516020612575833981519152886109e9565b6111186000805160206124dc833981519152886109e9565b61113e6000805160206126318339815191526000805160206124dc833981519152611e60565b6111646000805160206125758339815191526000805160206124dc833981519152611e60565b61117c6000805160206124dc83398151915280611e60565b801561118e576000805461ff00191690555b50505050505050565b3390565b6001600160a01b0383166111e05760405162461bcd60e51b81526004018080602001828103825260248152602001806126cd6024913960400191505060405180910390fd5b6001600160a01b0382166112255760405162461bcd60e51b81526004018080602001828103825260228152602001806124946022913960400191505060405180910390fd5b6001600160a01b03808416600081815260986020908152604080832094871680845294825291829020859055815185815291517f8c5be1e5ebec7d5bd14f71427d1e84f3dd0314c0f7b2291e5b200ac8c7c3b9259281900390910190a3505050565b6001600160a01b0383166112cc5760405162461bcd60e51b81526004018080602001828103825260258152602001806126726025913960400191505060405180910390fd5b6001600160a01b0382166113115760405162461bcd60e51b81526004018080602001828103825260238152602001806123a86023913960400191505060405180910390fd5b61131c838383611e75565b611359816040518060600160405280602681526020016124b6602691396001600160a01b03861660009081526097602052604090205491906113e4565b6001600160a01b038085166000908152609760205260408082209390935590841681522054611388908261154d565b6001600160a01b0380841660008181526097602090815260409182902094909455805185815290519193928716927fddf252ad1be2c89b69c2b068fc378daa952ba7f163c4a11628f55a4df523b3ef92918290030190a3505050565b600081848411156114735760405162461bcd60e51b81526004018080602001828103825283818151815260200191508051906020019080838360005b83811015611438578181015183820152602001611420565b50505050905090810190601f1680156114655780820380516001836020036101000a031916815260200191505b509250505060405180910390fd5b505050900390565b60008281526065602052604090206114939082611e80565b156109f3576114a0611197565b6001600160a01b0316816001600160a01b0316837f2f8788117e7eff1d82e926ec794901d17c78024a50270940304540a733656f0d60405160405180910390a45050565b60008281526065602052604090206114fc9082611e95565b156109f357611509611197565b6001600160a01b0316816001600160a01b0316837ff6391f5c32d9c69d2a47ea670b442974b53935d1edc7fd64eb21e047a839171b60405160405180910390a45050565b600082820183811015610dba576040805162461bcd60e51b815260206004820152601b60248201527f536166654d6174683a206164646974696f6e206f766572666c6f770000000000604482015290519081900360640190fd5b60fb5460ff166115f5576040805162461bcd60e51b815260206004820152601460248201527314185d5cd8589b194e881b9bdd081c185d5cd95960621b604482015290519081900360640190fd5b60fb805460ff191690557f5db9ee0a495bf2e6ff9c91a7834c1ba4fdd244a5e8aa4e537bd38aeae4b073aa611628611197565b604080516001600160a01b039092168252519081900360200190a1565b6001600160a01b0382166116a0576040805162461bcd60e51b815260206004820152601f60248201527f45524332303a206d696e7420746f20746865207a65726f206164647265737300604482015290519081900360640190fd5b6116ac60008383611e75565b6099546116b9908261154d565b6099556001600160a01b0382166000908152609760205260409020546116df908261154d565b6001600160a01b03831660008181526097602090815260408083209490945583518581529351929391927fddf252ad1be2c89b69c2b068fc378daa952ba7f163c4a11628f55a4df523b3ef9281900390910190a35050565b6001600160a01b03821661177c5760405162461bcd60e51b81526004018080602001828103825260218152602001806126516021913960400191505060405180910390fd5b61178882600083611e75565b6117c5816040518060600160405280602281526020016123fa602291396001600160a01b03851660009081526097602052604090205491906113e4565b6001600160a01b0383166000908152609760205260409020556099546117eb9082611eaa565b6099556040805182815290516000916001600160a01b038516917fddf252ad1be2c89b69c2b068fc378daa952ba7f163c4a11628f55a4df523b3ef9181900360200190a35050565b61019154600090819061184e906001600160a01b0316611eec565b905060006118e361185d611ef7565b6118dd846001600160a01b031663872697296040518163ffffffff1660e01b815260040160206040518083038186803b15801561189957600080fd5b505afa1580156118ad573d6000803e3d6000fd5b505050506040513d60208110156118c357600080fd5b50516118d7886118d16108e6565b9061154d565b90611f03565b90611f5c565b905060006118f082611f9e565b90506000836001600160a01b03166371a973056040518163ffffffff1660e01b815260040160206040518083038186803b15801561192d57600080fd5b505afa158015611941573d6000803e3d6000fd5b505050506040513d602081101561195757600080fd5b5051905081811061197d57620f42406119708284611eaa565b1115945050505050610986565b620f42406119708383611eaa565b600054610100900460ff16806119a457506119a4611c36565b806119b2575060005460ff16155b6119ed5760405162461bcd60e51b815260040180806020018281038252602e815260200180612603602e913960400191505060405180910390fd5b600054610100900460ff16158015611a18576000805460ff1961ff0019909116610100171660011790555b611a20611c3c565b611a28611c3c565b611a328383611cdd565b611a3a611c3c565b611a42611db5565b611a4a611c3c565b611a548383611fbd565b8015611a66576000805461ff00191690555b505050565b60006001600160a01b03821663b93f9b0a600b5b6040518263ffffffff1660e01b81526004018082815260200191505060206040518083038186803b158015611ab357600080fd5b505afa158015611ac7573d6000803e3d6000fd5b505050506040513d6020811015611add57600080fd5b505192915050565b610191546000908190611b00906001600160a01b0316611eec565b905060006118e3611b0f611ef7565b6118dd846001600160a01b031663872697296040518163ffffffff1660e01b815260040160206040518083038186803b158015611b4b57600080fd5b505afa158015611b5f573d6000803e3d6000fd5b505050506040513d6020811015611b7557600080fd5b50516118d788611b836108e6565b90611eaa565b60fb5460ff1615611bd4576040805162461bcd60e51b815260206004820152601060248201526f14185d5cd8589b194e881c185d5cd95960821b604482015290519081900360640190fd5b60fb805460ff191660011790557f62e78cea01bee320cd4e420270b5ea74000d11b0c9f74754ebdbfc544b05a258611628611197565b6000610dba8383612090565b6000610dba836001600160a01b0384166120f4565b60006108e08261210c565b303b1590565b600054610100900460ff1680611c555750611c55611c36565b80611c63575060005460ff16155b611c9e5760405162461bcd60e51b815260040180806020018281038252602e815260200180612603602e913960400191505060405180910390fd5b600054610100900460ff16158015611cc9576000805460ff1961ff0019909116610100171660011790555b8015610b7e576000805461ff001916905550565b600054610100900460ff1680611cf65750611cf6611c36565b80611d04575060005460ff16155b611d3f5760405162461bcd60e51b815260040180806020018281038252602e815260200180612603602e913960400191505060405180910390fd5b600054610100900460ff16158015611d6a576000805460ff1961ff0019909116610100171660011790555b8251611d7d90609a9060208601906122f2565b508151611d9190609b9060208501906122f2565b50609c805460ff191660121790558015611a66576000805461ff0019169055505050565b600054610100900460ff1680611dce5750611dce611c36565b80611ddc575060005460ff16155b611e175760405162461bcd60e51b815260040180806020018281038252602e815260200180612603602e913960400191505060405180910390fd5b600054610100900460ff16158015611e42576000805460ff1961ff0019909116610100171660011790555b60fb805460ff191690558015610b7e576000805461ff001916905550565b60009182526065602052604090912060020155565b611a66838383612110565b6000610dba836001600160a01b03841661215f565b6000610dba836001600160a01b0384166121a9565b6000610dba83836040518060400160405280601e81526020017f536166654d6174683a207375627472616374696f6e206f766572666c6f7700008152506113e4565b60006108e08261226f565b670de0b6b3a764000090565b600082611f12575060006108e0565b82820282848281611f1f57fe5b0414610dba5760405162461bcd60e51b815260040180806020018281038252602181526020018061252c6021913960400191505060405180910390fd5b6000610dba83836040518060400160405280601a81526020017f536166654d6174683a206469766973696f6e206279207a65726f000000000000815250612286565b60006108e0611fb6611fae6122eb565b6118dd611ef7565b8390611f5c565b600054610100900460ff1680611fd65750611fd6611c36565b80611fe4575060005460ff16155b61201f5760405162461bcd60e51b815260040180806020018281038252602e815260200180612603602e913960400191505060405180910390fd5b600054610100900460ff1615801561204a576000805460ff1961ff0019909116610100171660011790555b61205c6000612057611197565b6109e9565b612076600080516020612631833981519152612057611197565b611a54600080516020612575833981519152612057611197565b815460009082106120d25760405162461bcd60e51b81526004018080602001828103825260228152602001806123866022913960400191505060405180910390fd5b8260000182815481106120e157fe5b9060005260206000200154905092915050565b60009081526001919091016020526040902054151590565b5490565b61211b838383611a66565b612123610c67565b15611a665760405162461bcd60e51b815260040180806020018281038252602a8152602001806127b4602a913960400191505060405180910390fd5b600061216b83836120f4565b6121a1575081546001818101845560008481526020808220909301849055845484825282860190935260409020919091556108e0565b5060006108e0565b6000818152600183016020526040812054801561226557835460001980830191908101906000908790839081106121dc57fe5b90600052602060002001549050808760000184815481106121f957fe5b60009182526020808320909101929092558281526001898101909252604090209084019055865487908061222957fe5b600190038181906000526020600020016000905590558660010160008781526020019081526020016000206000905560019450505050506108e0565b60009150506108e0565b60006001600160a01b03821663b93f9b0a82611a7f565b600081836122d55760405162461bcd60e51b8152602060048201818152835160248401528351909283926044909101919085019080838360008315611438578181015183820152602001611420565b5060008385816122e157fe5b0495945050505050565b620f424090565b828054600181600116156101000203166002900490600052602060002090601f016020900481019282601f1061233357805160ff1916838001178555612360565b82800160010185558215612360579182015b82811115612360578251825591602001919060010190612345565b5061236c929150612370565b5090565b5b8082111561236c576000815560010161237156fe456e756d657261626c655365743a20696e646578206f7574206f6620626f756e647345524332303a207472616e7366657220746f20746865207a65726f2061646472657373416363657373436f6e74726f6c3a2073656e646572206d75737420626520616e2061646d696e20746f206772616e7445524332303a206275726e20616d6f756e7420657863656564732062616c616e636545524332305072657365744d696e7465725061757365723a206d75737420686176652070617573657220726f6c6520746f20756e706175736545524332305072657365744d696e7465725061757365723a204d7573742068617665206d696e74657220726f6c6520746f206368616e676520636f6e66696745524332303a20617070726f766520746f20746865207a65726f206164647265737345524332303a207472616e7366657220616d6f756e7420657863656564732062616c616e6365b19546dff01e856fb3f010c267a7b1c60363cf8a4664e21cc89c26224620214e416363657373436f6e74726f6c3a2073656e646572206d75737420626520616e2061646d696e20746f207265766f6b65536166654d6174683a206d756c7469706c69636174696f6e206f766572666c6f7745524332303a207472616e7366657220616d6f756e74206578636565647320616c6c6f77616e636565d7a28e3265b37a6474929f336521b332c1681b933f6cb9f3376673440d862a43616e6e6f74206275726e3a20697420776f756c642063726561746520616e2061737365742f6c696162696c697479206d69736d6174636845524332305072657365744d696e7465725061757365723a206d7573742068617665206d696e74657220726f6c6520746f206d696e74436f6e747261637420696e7374616e63652068617320616c7265616479206265656e20696e697469616c697a65649f2df0fed2c77648de5860a4cc508cd0818c85b8b8a1ab4ceeef8d981c8956a645524332303a206275726e2066726f6d20746865207a65726f206164647265737345524332303a207472616e736665722066726f6d20746865207a65726f206164647265737345524332305072657365744d696e7465725061757365723a204d7573742068617665206d696e74657220726f6c6520746f206275726e45524332303a20617070726f76652066726f6d20746865207a65726f206164647265737345524332305072657365744d696e7465725061757365723a206d75737420686176652070617573657220726f6c6520746f20706175736543616e6e6f74206d696e743a20697420776f756c642063726561746520616e2061737365742f6c696162696c697479206d69736d6174636845524332303a2064656372656173656420616c6c6f77616e63652062656c6f77207a65726f416363657373436f6e74726f6c3a2063616e206f6e6c792072656e6f756e636520726f6c657320666f722073656c6645524332305061757361626c653a20746f6b656e207472616e73666572207768696c6520706175736564a2646970667358221220500d2bb5fd73f6941b445c9942a730cc179ea72704f6d2c6ccd349d07a4aacdb64736f6c634300060c0033",
  "devdoc": {
    "author": "Goldfinch",
    "kind": "dev",
    "methods": {
      "allowance(address,address)": {
        "details": "See {IERC20-allowance}."
      },
      "approve(address,uint256)": {
        "details": "See {IERC20-approve}. Requirements: - `spender` cannot be the zero address."
      },
      "balanceOf(address)": {
        "details": "See {IERC20-balanceOf}."
      },
      "burn(uint256)": {
        "details": "Destroys `amount` tokens from the caller. See {ERC20-_burn}."
      },
      "burnFrom(address,uint256)": {
        "details": "Destroys `amount` tokens from `account`, deducting from the caller's allowance. See {ERC20-_burn} and {ERC20-allowance}. Requirements: - the caller must have the MINTER_ROLE"
      },
      "decimals()": {
        "details": "Returns the number of decimals used to get its user representation. For example, if `decimals` equals `2`, a balance of `505` tokens should be displayed to a user as `5,05` (`505 / 10 ** 2`). Tokens usually opt for a value of 18, imitating the relationship between Ether and Wei. This is the value {ERC20} uses, unless {_setupDecimals} is called. NOTE: This information is only used for _display_ purposes: it in no way affects any of the arithmetic of the contract, including {IERC20-balanceOf} and {IERC20-transfer}."
      },
      "decreaseAllowance(address,uint256)": {
        "details": "Atomically decreases the allowance granted to `spender` by the caller. This is an alternative to {approve} that can be used as a mitigation for problems described in {IERC20-approve}. Emits an {Approval} event indicating the updated allowance. Requirements: - `spender` cannot be the zero address. - `spender` must have allowance for the caller of at least `subtractedValue`."
      },
      "getRoleAdmin(bytes32)": {
        "details": "Returns the admin role that controls `role`. See {grantRole} and {revokeRole}. To change a role's admin, use {_setRoleAdmin}."
      },
      "getRoleMember(bytes32,uint256)": {
        "details": "Returns one of the accounts that have `role`. `index` must be a value between 0 and {getRoleMemberCount}, non-inclusive. Role bearers are not sorted in any particular way, and their ordering may change at any point. WARNING: When using {getRoleMember} and {getRoleMemberCount}, make sure you perform all queries on the same block. See the following https://forum.openzeppelin.com/t/iterating-over-elements-on-enumerableset-in-openzeppelin-contracts/2296[forum post] for more information."
      },
      "getRoleMemberCount(bytes32)": {
        "details": "Returns the number of accounts that have `role`. Can be used together with {getRoleMember} to enumerate all bearers of a role."
      },
      "grantRole(bytes32,address)": {
        "details": "Grants `role` to `account`. If `account` had not been already granted `role`, emits a {RoleGranted} event. Requirements: - the caller must have ``role``'s admin role."
      },
      "hasRole(bytes32,address)": {
        "details": "Returns `true` if `account` has been granted `role`."
      },
      "increaseAllowance(address,uint256)": {
        "details": "Atomically increases the allowance granted to `spender` by the caller. This is an alternative to {approve} that can be used as a mitigation for problems described in {IERC20-approve}. Emits an {Approval} event indicating the updated allowance. Requirements: - `spender` cannot be the zero address."
      },
      "initialize(string,string)": {
        "details": "Grants `DEFAULT_ADMIN_ROLE`, `MINTER_ROLE` and `PAUSER_ROLE` to the account that deploys the contract. See {ERC20-constructor}."
      },
      "mint(address,uint256)": {
        "details": "Creates `amount` new tokens for `to`. See {ERC20-_mint}. Requirements: - the caller must have the `MINTER_ROLE`."
      },
      "mintTo(address,uint256)": {
        "details": "Creates `amount` new tokens for `to`. See {ERC20-_mint}. Requirements: - the caller must have the `MINTER_ROLE`."
      },
      "name()": {
        "details": "Returns the name of the token."
      },
      "pause()": {
        "details": "Pauses all token transfers. See {ERC20Pausable} and {Pausable-_pause}. Requirements: - the caller must have the `PAUSER_ROLE`."
      },
      "paused()": {
        "details": "Returns true if the contract is paused, and false otherwise."
      },
      "renounceRole(bytes32,address)": {
        "details": "Revokes `role` from the calling account. Roles are often managed via {grantRole} and {revokeRole}: this function's purpose is to provide a mechanism for accounts to lose their privileges if they are compromised (such as when a trusted device is misplaced). If the calling account had been granted `role`, emits a {RoleRevoked} event. Requirements: - the caller must be `account`."
      },
      "revokeRole(bytes32,address)": {
        "details": "Revokes `role` from `account`. If `account` had been granted `role`, emits a {RoleRevoked} event. Requirements: - the caller must have ``role``'s admin role."
      },
      "symbol()": {
        "details": "Returns the symbol of the token, usually a shorter version of the name."
      },
      "totalSupply()": {
        "details": "See {IERC20-totalSupply}."
      },
      "transfer(address,uint256)": {
        "details": "See {IERC20-transfer}. Requirements: - `recipient` cannot be the zero address. - the caller must have a balance of at least `amount`."
      },
      "transferFrom(address,address,uint256)": {
        "details": "See {IERC20-transferFrom}. Emits an {Approval} event indicating the updated allowance. This is not required by the EIP. See the note at the beginning of {ERC20}; Requirements: - `sender` and `recipient` cannot be the zero address. - `sender` must have a balance of at least `amount`. - the caller must have allowance for ``sender``'s tokens of at least `amount`."
      },
      "unpause()": {
        "details": "Unpauses all token transfers. See {ERC20Pausable} and {Pausable-_unpause}. Requirements: - the caller must have the `PAUSER_ROLE`."
      }
    },
    "title": "Fidu",
    "version": 1
  },
  "userdoc": {
    "kind": "user",
    "methods": {},
    "notice": "Fidu (symbol: FIDU) is Goldfinch's liquidity token, representing shares  in the Pool. When you deposit, we mint a corresponding amount of Fidu, and when you withdraw, we  burn Fidu. The share price of the Pool implicitly represents the \"exchange rate\" between Fidu  and USDC (or whatever currencies the Pool may allow withdraws in during the future)",
    "version": 1
  },
  "storageLayout": {
    "storage": [
      {
        "astId": 151,
        "contract": "contracts/protocol/core/Fidu.sol:Fidu",
        "label": "initialized",
        "offset": 0,
        "slot": "0",
        "type": "t_bool"
      },
      {
        "astId": 154,
        "contract": "contracts/protocol/core/Fidu.sol:Fidu",
        "label": "initializing",
        "offset": 1,
        "slot": "0",
        "type": "t_bool"
      },
      {
        "astId": 219,
        "contract": "contracts/protocol/core/Fidu.sol:Fidu",
        "label": "______gap",
        "offset": 0,
        "slot": "1",
        "type": "t_array(t_uint256)50_storage"
      },
      {
        "astId": 144,
        "contract": "contracts/protocol/core/Fidu.sol:Fidu",
        "label": "__gap",
        "offset": 0,
        "slot": "51",
        "type": "t_array(t_uint256)50_storage"
      },
      {
        "astId": 264,
        "contract": "contracts/protocol/core/Fidu.sol:Fidu",
        "label": "_roles",
        "offset": 0,
        "slot": "101",
        "type": "t_mapping(t_bytes32,t_struct(RoleData)260_storage)"
      },
      {
        "astId": 509,
        "contract": "contracts/protocol/core/Fidu.sol:Fidu",
        "label": "__gap",
        "offset": 0,
        "slot": "102",
        "type": "t_array(t_uint256)49_storage"
      },
      {
        "astId": 1171,
        "contract": "contracts/protocol/core/Fidu.sol:Fidu",
        "label": "_balances",
        "offset": 0,
        "slot": "151",
        "type": "t_mapping(t_address,t_uint256)"
      },
      {
        "astId": 1177,
        "contract": "contracts/protocol/core/Fidu.sol:Fidu",
        "label": "_allowances",
        "offset": 0,
        "slot": "152",
        "type": "t_mapping(t_address,t_mapping(t_address,t_uint256))"
      },
      {
        "astId": 1179,
        "contract": "contracts/protocol/core/Fidu.sol:Fidu",
        "label": "_totalSupply",
        "offset": 0,
        "slot": "153",
        "type": "t_uint256"
      },
      {
        "astId": 1181,
        "contract": "contracts/protocol/core/Fidu.sol:Fidu",
        "label": "_name",
        "offset": 0,
        "slot": "154",
        "type": "t_string_storage"
      },
      {
        "astId": 1183,
        "contract": "contracts/protocol/core/Fidu.sol:Fidu",
        "label": "_symbol",
        "offset": 0,
        "slot": "155",
        "type": "t_string_storage"
      },
      {
        "astId": 1185,
        "contract": "contracts/protocol/core/Fidu.sol:Fidu",
        "label": "_decimals",
        "offset": 0,
        "slot": "156",
        "type": "t_uint8"
      },
      {
        "astId": 1680,
        "contract": "contracts/protocol/core/Fidu.sol:Fidu",
        "label": "__gap",
        "offset": 0,
        "slot": "157",
        "type": "t_array(t_uint256)44_storage"
      },
      {
        "astId": 1761,
        "contract": "contracts/protocol/core/Fidu.sol:Fidu",
        "label": "__gap",
        "offset": 0,
        "slot": "201",
        "type": "t_array(t_uint256)50_storage"
      },
      {
        "astId": 2385,
        "contract": "contracts/protocol/core/Fidu.sol:Fidu",
        "label": "_paused",
        "offset": 0,
        "slot": "251",
        "type": "t_bool"
      },
      {
        "astId": 2474,
        "contract": "contracts/protocol/core/Fidu.sol:Fidu",
        "label": "__gap",
        "offset": 0,
        "slot": "252",
        "type": "t_array(t_uint256)49_storage"
      },
      {
        "astId": 1826,
        "contract": "contracts/protocol/core/Fidu.sol:Fidu",
        "label": "__gap",
        "offset": 0,
        "slot": "301",
        "type": "t_array(t_uint256)50_storage"
      },
      {
        "astId": 1146,
        "contract": "contracts/protocol/core/Fidu.sol:Fidu",
        "label": "__gap",
        "offset": 0,
        "slot": "351",
        "type": "t_array(t_uint256)50_storage"
      },
      {
        "astId": 7690,
        "contract": "contracts/protocol/core/Fidu.sol:Fidu",
        "label": "config",
        "offset": 0,
        "slot": "401",
        "type": "t_contract(GoldfinchConfig)8182"
      }
    ],
    "types": {
      "t_address": {
        "encoding": "inplace",
        "label": "address",
        "numberOfBytes": "20"
      },
      "t_array(t_bytes32)dyn_storage": {
        "base": "t_bytes32",
        "encoding": "dynamic_array",
        "label": "bytes32[]",
        "numberOfBytes": "32"
      },
      "t_array(t_uint256)44_storage": {
        "base": "t_uint256",
        "encoding": "inplace",
        "label": "uint256[44]",
        "numberOfBytes": "1408"
      },
      "t_array(t_uint256)49_storage": {
        "base": "t_uint256",
        "encoding": "inplace",
        "label": "uint256[49]",
        "numberOfBytes": "1568"
      },
      "t_array(t_uint256)50_storage": {
        "base": "t_uint256",
        "encoding": "inplace",
        "label": "uint256[50]",
        "numberOfBytes": "1600"
      },
      "t_bool": {
        "encoding": "inplace",
        "label": "bool",
        "numberOfBytes": "1"
      },
      "t_bytes32": {
        "encoding": "inplace",
        "label": "bytes32",
        "numberOfBytes": "32"
      },
      "t_contract(GoldfinchConfig)8182": {
        "encoding": "inplace",
        "label": "contract GoldfinchConfig",
        "numberOfBytes": "20"
      },
      "t_mapping(t_address,t_mapping(t_address,t_uint256))": {
        "encoding": "mapping",
        "key": "t_address",
        "label": "mapping(address => mapping(address => uint256))",
        "numberOfBytes": "32",
        "value": "t_mapping(t_address,t_uint256)"
      },
      "t_mapping(t_address,t_uint256)": {
        "encoding": "mapping",
        "key": "t_address",
        "label": "mapping(address => uint256)",
        "numberOfBytes": "32",
        "value": "t_uint256"
      },
      "t_mapping(t_bytes32,t_struct(RoleData)260_storage)": {
        "encoding": "mapping",
        "key": "t_bytes32",
        "label": "mapping(bytes32 => struct AccessControlUpgradeSafe.RoleData)",
        "numberOfBytes": "32",
        "value": "t_struct(RoleData)260_storage"
      },
      "t_mapping(t_bytes32,t_uint256)": {
        "encoding": "mapping",
        "key": "t_bytes32",
        "label": "mapping(bytes32 => uint256)",
        "numberOfBytes": "32",
        "value": "t_uint256"
      },
      "t_string_storage": {
        "encoding": "bytes",
        "label": "string",
        "numberOfBytes": "32"
      },
      "t_struct(AddressSet)2160_storage": {
        "encoding": "inplace",
        "label": "struct EnumerableSet.AddressSet",
        "members": [
          {
            "astId": 2159,
            "contract": "contracts/protocol/core/Fidu.sol:Fidu",
            "label": "_inner",
            "offset": 0,
            "slot": "0",
            "type": "t_struct(Set)1980_storage"
          }
        ],
        "numberOfBytes": "64"
      },
      "t_struct(RoleData)260_storage": {
        "encoding": "inplace",
        "label": "struct AccessControlUpgradeSafe.RoleData",
        "members": [
          {
            "astId": 257,
            "contract": "contracts/protocol/core/Fidu.sol:Fidu",
            "label": "members",
            "offset": 0,
            "slot": "0",
            "type": "t_struct(AddressSet)2160_storage"
          },
          {
            "astId": 259,
            "contract": "contracts/protocol/core/Fidu.sol:Fidu",
            "label": "adminRole",
            "offset": 0,
            "slot": "2",
            "type": "t_bytes32"
          }
        ],
        "numberOfBytes": "96"
      },
      "t_struct(Set)1980_storage": {
        "encoding": "inplace",
        "label": "struct EnumerableSet.Set",
        "members": [
          {
            "astId": 1975,
            "contract": "contracts/protocol/core/Fidu.sol:Fidu",
            "label": "_values",
            "offset": 0,
            "slot": "0",
            "type": "t_array(t_bytes32)dyn_storage"
          },
          {
            "astId": 1979,
            "contract": "contracts/protocol/core/Fidu.sol:Fidu",
            "label": "_indexes",
            "offset": 0,
            "slot": "1",
            "type": "t_mapping(t_bytes32,t_uint256)"
          }
        ],
        "numberOfBytes": "64"
      },
      "t_uint256": {
        "encoding": "inplace",
        "label": "uint256",
        "numberOfBytes": "32"
      },
      "t_uint8": {
        "encoding": "inplace",
        "label": "uint8",
        "numberOfBytes": "1"
      }
    }
  }
}