{
  "address": "0xa5E1dCAd402420cdA369caC07c6cc884A353692B",
  "abi": [
    {
      "anonymous": false,
      "inputs": [
        {
          "indexed": true,
          "internalType": "address",
          "name": "owner",
          "type": "address"
        },
        {
          "indexed": true,
          "internalType": "address",
          "name": "spender",
          "type": "address"
        },
        {
          "indexed": false,
          "internalType": "uint256",
          "name": "value",
          "type": "uint256"
        }
      ],
      "name": "Approval",
      "type": "event"
    },
    {
      "anonymous": false,
      "inputs": [
        {
          "indexed": false,
          "internalType": "address",
          "name": "account",
          "type": "address"
        }
      ],
      "name": "Paused",
      "type": "event"
    },
    {
      "anonymous": false,
      "inputs": [
        {
          "indexed": true,
          "internalType": "bytes32",
          "name": "role",
          "type": "bytes32"
        },
        {
          "indexed": true,
          "internalType": "address",
          "name": "account",
          "type": "address"
        },
        {
          "indexed": true,
          "internalType": "address",
          "name": "sender",
          "type": "address"
        }
      ],
      "name": "RoleGranted",
      "type": "event"
    },
    {
      "anonymous": false,
      "inputs": [
        {
          "indexed": true,
          "internalType": "bytes32",
          "name": "role",
          "type": "bytes32"
        },
        {
          "indexed": true,
          "internalType": "address",
          "name": "account",
          "type": "address"
        },
        {
          "indexed": true,
          "internalType": "address",
          "name": "sender",
          "type": "address"
        }
      ],
      "name": "RoleRevoked",
      "type": "event"
    },
    {
      "anonymous": false,
      "inputs": [
        {
          "indexed": true,
          "internalType": "address",
          "name": "from",
          "type": "address"
        },
        {
          "indexed": true,
          "internalType": "address",
          "name": "to",
          "type": "address"
        },
        {
          "indexed": false,
          "internalType": "uint256",
          "name": "value",
          "type": "uint256"
        }
      ],
      "name": "Transfer",
      "type": "event"
    },
    {
      "anonymous": false,
      "inputs": [
        {
          "indexed": false,
          "internalType": "address",
          "name": "account",
          "type": "address"
        }
      ],
      "name": "Unpaused",
      "type": "event"
    },
    {
      "inputs": [],
      "name": "DEFAULT_ADMIN_ROLE",
      "outputs": [
        {
          "internalType": "bytes32",
          "name": "",
          "type": "bytes32"
        }
      ],
      "stateMutability": "view",
      "type": "function"
    },
    {
      "inputs": [],
      "name": "MINTER_ROLE",
      "outputs": [
        {
          "internalType": "bytes32",
          "name": "",
          "type": "bytes32"
        }
      ],
      "stateMutability": "view",
      "type": "function"
    },
    {
      "inputs": [],
      "name": "OWNER_ROLE",
      "outputs": [
        {
          "internalType": "bytes32",
          "name": "",
          "type": "bytes32"
        }
      ],
      "stateMutability": "view",
      "type": "function"
    },
    {
      "inputs": [],
      "name": "PAUSER_ROLE",
      "outputs": [
        {
          "internalType": "bytes32",
          "name": "",
          "type": "bytes32"
        }
      ],
      "stateMutability": "view",
      "type": "function"
    },
    {
      "inputs": [
        {
          "internalType": "address",
          "name": "owner",
          "type": "address"
        },
        {
          "internalType": "string",
          "name": "name",
          "type": "string"
        },
        {
          "internalType": "string",
          "name": "symbol",
          "type": "string"
        },
        {
          "internalType": "contract GoldfinchConfig",
          "name": "_config",
          "type": "address"
        }
      ],
      "name": "__initialize__",
      "outputs": [],
      "stateMutability": "nonpayable",
      "type": "function"
    },
    {
      "inputs": [
        {
          "internalType": "address",
          "name": "owner",
          "type": "address"
        },
        {
          "internalType": "address",
          "name": "spender",
          "type": "address"
        }
      ],
      "name": "allowance",
      "outputs": [
        {
          "internalType": "uint256",
          "name": "",
          "type": "uint256"
        }
      ],
      "stateMutability": "view",
      "type": "function"
    },
    {
      "inputs": [
        {
          "internalType": "address",
          "name": "spender",
          "type": "address"
        },
        {
          "internalType": "uint256",
          "name": "amount",
          "type": "uint256"
        }
      ],
      "name": "approve",
      "outputs": [
        {
          "internalType": "bool",
          "name": "",
          "type": "bool"
        }
      ],
      "stateMutability": "nonpayable",
      "type": "function"
    },
    {
      "inputs": [
        {
          "internalType": "address",
          "name": "account",
          "type": "address"
        }
      ],
      "name": "balanceOf",
      "outputs": [
        {
          "internalType": "uint256",
          "name": "",
          "type": "uint256"
        }
      ],
      "stateMutability": "view",
      "type": "function"
    },
    {
      "inputs": [
        {
          "internalType": "uint256",
          "name": "amount",
          "type": "uint256"
        }
      ],
      "name": "burn",
      "outputs": [],
      "stateMutability": "nonpayable",
      "type": "function"
    },
    {
      "inputs": [
        {
          "internalType": "address",
          "name": "from",
          "type": "address"
        },
        {
          "internalType": "uint256",
          "name": "amount",
          "type": "uint256"
        }
      ],
      "name": "burnFrom",
      "outputs": [],
      "stateMutability": "nonpayable",
      "type": "function"
    },
    {
      "inputs": [],
      "name": "config",
      "outputs": [
        {
          "internalType": "contract GoldfinchConfig",
          "name": "",
          "type": "address"
        }
      ],
      "stateMutability": "view",
      "type": "function"
    },
    {
      "inputs": [],
      "name": "decimals",
      "outputs": [
        {
          "internalType": "uint8",
          "name": "",
          "type": "uint8"
        }
      ],
      "stateMutability": "view",
      "type": "function"
    },
    {
      "inputs": [
        {
          "internalType": "address",
          "name": "spender",
          "type": "address"
        },
        {
          "internalType": "uint256",
          "name": "subtractedValue",
          "type": "uint256"
        }
      ],
      "name": "decreaseAllowance",
      "outputs": [
        {
          "internalType": "bool",
          "name": "",
          "type": "bool"
        }
      ],
      "stateMutability": "nonpayable",
      "type": "function"
    },
    {
      "inputs": [
        {
          "internalType": "bytes32",
          "name": "role",
          "type": "bytes32"
        }
      ],
      "name": "getRoleAdmin",
      "outputs": [
        {
          "internalType": "bytes32",
          "name": "",
          "type": "bytes32"
        }
      ],
      "stateMutability": "view",
      "type": "function"
    },
    {
      "inputs": [
        {
          "internalType": "bytes32",
          "name": "role",
          "type": "bytes32"
        },
        {
          "internalType": "uint256",
          "name": "index",
          "type": "uint256"
        }
      ],
      "name": "getRoleMember",
      "outputs": [
        {
          "internalType": "address",
          "name": "",
          "type": "address"
        }
      ],
      "stateMutability": "view",
      "type": "function"
    },
    {
      "inputs": [
        {
          "internalType": "bytes32",
          "name": "role",
          "type": "bytes32"
        }
      ],
      "name": "getRoleMemberCount",
      "outputs": [
        {
          "internalType": "uint256",
          "name": "",
          "type": "uint256"
        }
      ],
      "stateMutability": "view",
      "type": "function"
    },
    {
      "inputs": [
        {
          "internalType": "bytes32",
          "name": "role",
          "type": "bytes32"
        },
        {
          "internalType": "address",
          "name": "account",
          "type": "address"
        }
      ],
      "name": "grantRole",
      "outputs": [],
      "stateMutability": "nonpayable",
      "type": "function"
    },
    {
      "inputs": [
        {
          "internalType": "bytes32",
          "name": "role",
          "type": "bytes32"
        },
        {
          "internalType": "address",
          "name": "account",
          "type": "address"
        }
      ],
      "name": "hasRole",
      "outputs": [
        {
          "internalType": "bool",
          "name": "",
          "type": "bool"
        }
      ],
      "stateMutability": "view",
      "type": "function"
    },
    {
      "inputs": [
        {
          "internalType": "address",
          "name": "spender",
          "type": "address"
        },
        {
          "internalType": "uint256",
          "name": "addedValue",
          "type": "uint256"
        }
      ],
      "name": "increaseAllowance",
      "outputs": [
        {
          "internalType": "bool",
          "name": "",
          "type": "bool"
        }
      ],
      "stateMutability": "nonpayable",
      "type": "function"
    },
    {
      "inputs": [
        {
          "internalType": "string",
          "name": "name",
          "type": "string"
        },
        {
          "internalType": "string",
          "name": "symbol",
          "type": "string"
        }
      ],
      "name": "initialize",
      "outputs": [],
      "stateMutability": "nonpayable",
      "type": "function"
    },
    {
      "inputs": [
        {
          "internalType": "address",
          "name": "to",
          "type": "address"
        },
        {
          "internalType": "uint256",
          "name": "amount",
          "type": "uint256"
        }
      ],
      "name": "mint",
      "outputs": [],
      "stateMutability": "nonpayable",
      "type": "function"
    },
    {
      "inputs": [
        {
          "internalType": "address",
          "name": "to",
          "type": "address"
        },
        {
          "internalType": "uint256",
          "name": "amount",
          "type": "uint256"
        }
      ],
      "name": "mintTo",
      "outputs": [],
      "stateMutability": "nonpayable",
      "type": "function"
    },
    {
      "inputs": [],
      "name": "name",
      "outputs": [
        {
          "internalType": "string",
          "name": "",
          "type": "string"
        }
      ],
      "stateMutability": "view",
      "type": "function"
    },
    {
      "inputs": [],
      "name": "pause",
      "outputs": [],
      "stateMutability": "nonpayable",
      "type": "function"
    },
    {
      "inputs": [],
      "name": "paused",
      "outputs": [
        {
          "internalType": "bool",
          "name": "",
          "type": "bool"
        }
      ],
      "stateMutability": "view",
      "type": "function"
    },
    {
      "inputs": [
        {
          "internalType": "bytes32",
          "name": "role",
          "type": "bytes32"
        },
        {
          "internalType": "address",
          "name": "account",
          "type": "address"
        }
      ],
      "name": "renounceRole",
      "outputs": [],
      "stateMutability": "nonpayable",
      "type": "function"
    },
    {
      "inputs": [
        {
          "internalType": "bytes32",
          "name": "role",
          "type": "bytes32"
        },
        {
          "internalType": "address",
          "name": "account",
          "type": "address"
        }
      ],
      "name": "revokeRole",
      "outputs": [],
      "stateMutability": "nonpayable",
      "type": "function"
    },
    {
      "inputs": [],
      "name": "symbol",
      "outputs": [
        {
          "internalType": "string",
          "name": "",
          "type": "string"
        }
      ],
      "stateMutability": "view",
      "type": "function"
    },
    {
      "inputs": [],
      "name": "totalSupply",
      "outputs": [
        {
          "internalType": "uint256",
          "name": "",
          "type": "uint256"
        }
      ],
      "stateMutability": "view",
      "type": "function"
    },
    {
      "inputs": [
        {
          "internalType": "address",
          "name": "recipient",
          "type": "address"
        },
        {
          "internalType": "uint256",
          "name": "amount",
          "type": "uint256"
        }
      ],
      "name": "transfer",
      "outputs": [
        {
          "internalType": "bool",
          "name": "",
          "type": "bool"
        }
      ],
      "stateMutability": "nonpayable",
      "type": "function"
    },
    {
      "inputs": [
        {
          "internalType": "address",
          "name": "sender",
          "type": "address"
        },
        {
          "internalType": "address",
          "name": "recipient",
          "type": "address"
        },
        {
          "internalType": "uint256",
          "name": "amount",
          "type": "uint256"
        }
      ],
      "name": "transferFrom",
      "outputs": [
        {
          "internalType": "bool",
          "name": "",
          "type": "bool"
        }
      ],
      "stateMutability": "nonpayable",
      "type": "function"
    },
    {
      "inputs": [],
      "name": "unpause",
      "outputs": [],
      "stateMutability": "nonpayable",
      "type": "function"
    }
  ],
  "transactionHash": "0xd7ee4ca5d59bf1cc4ee3758c144302cd7d4bab459840d6d0da6333f8d6ce9517",
  "args": [],
  "solcInputHash": "ec5b8f84a562cb473511a7a6cca44911",
  "bytecode": "0x608060405234801561001057600080fd5b50612901806100206000396000f3fe608060405234801561001057600080fd5b50600436106101f05760003560e01c806379502c551161010f578063a9059cbb116100a2578063dd62ed3e11610071578063dd62ed3e146106f7578063e58378bb14610725578063e63ab1e91461072d578063f77356f014610735576101f0565b8063a9059cbb1461067a578063ca15c873146106a6578063d5391393146106c3578063d547741f146106cb576101f0565b806391d14854116100de57806391d148541461061257806395d89b411461063e578063a217fddf14610646578063a457c2d71461064e576101f0565b806379502c551461059757806379cc6790146105bb5780638456cb59146105e75780639010d07c146105ef576101f0565b80633950935111610187578063449a52f811610156578063449a52f8146104145780634cd88b76146104405780635c975abb1461056957806370a0823114610571576101f0565b806339509351146103975780633f4ba83a146103c357806340c10f19146103cb57806342966c68146103f7576101f0565b8063248a9ca3116101c3578063248a9ca3146103025780632f2ff15d1461031f578063313ce5671461034d57806336568abe1461036b576101f0565b806306fdde03146101f5578063095ea7b31461027257806318160ddd146102b257806323b872dd146102cc575b600080fd5b6101fd610879565b6040805160208082528351818301528351919283929083019185019080838360005b8381101561023757818101518382015260200161021f565b50505050905090810190601f1680156102645780820380516001836020036101000a031916815260200191505b509250505060405180910390f35b61029e6004803603604081101561028857600080fd5b506001600160a01b038135169060200135610910565b604080519115158252519081900360200190f35b6102ba61092e565b60408051918252519081900360200190f35b61029e600480360360608110156102e257600080fd5b506001600160a01b03813581169160208101359091169060400135610934565b6102ba6004803603602081101561031857600080fd5b50356109c1565b61034b6004803603604081101561033557600080fd5b50803590602001356001600160a01b03166109d9565b005b610355610a45565b6040805160ff9092168252519081900360200190f35b61034b6004803603604081101561038157600080fd5b50803590602001356001600160a01b0316610a4e565b61029e600480360360408110156103ad57600080fd5b506001600160a01b038135169060200135610aaf565b61034b610b03565b61034b600480360360408110156103e157600080fd5b506001600160a01b038135169060200135610b74565b61034b6004803603602081101561040d57600080fd5b5035610be5565b61034b6004803603604081101561042a57600080fd5b506001600160a01b038135169060200135610bf9565b61034b6004803603604081101561045657600080fd5b810190602081018135600160201b81111561047057600080fd5b82018360208201111561048257600080fd5b803590602001918460018302840111600160201b831117156104a357600080fd5b91908080601f0160208091040260200160405190810160405280939291908181526020018383808284376000920191909152509295949360208101935035915050600160201b8111156104f557600080fd5b82018360208201111561050757600080fd5b803590602001918460018302840111600160201b8311171561052857600080fd5b91908080601f016020809104026020016040519081016040528093929190818152602001838380828437600092019190915250929550610c47945050505050565b61029e610c51565b6102ba6004803603602081101561058757600080fd5b50356001600160a01b0316610c5a565b61059f610c75565b604080516001600160a01b039092168252519081900360200190f35b61034b600480360360408110156105d157600080fd5b506001600160a01b038135169060200135610c85565b61034b610d3a565b61059f6004803603604081101561060557600080fd5b5080359060200135610da9565b61029e6004803603604081101561062857600080fd5b50803590602001356001600160a01b0316610dce565b6101fd610dec565b6102ba610e4d565b61029e6004803603604081101561066457600080fd5b506001600160a01b038135169060200135610e52565b61029e6004803603604081101561069057600080fd5b506001600160a01b038135169060200135610ec0565b6102ba600480360360208110156106bc57600080fd5b5035610ed4565b6102ba610eeb565b61034b600480360360408110156106e157600080fd5b50803590602001356001600160a01b0316610f0e565b6102ba6004803603604081101561070d57600080fd5b506001600160a01b0381358116916020013516610f67565b6102ba610f92565b6102ba610fb4565b61034b6004803603608081101561074b57600080fd5b6001600160a01b038235169190810190604081016020820135600160201b81111561077557600080fd5b82018360208201111561078757600080fd5b803590602001918460018302840111600160201b831117156107a857600080fd5b91908080601f0160208091040260200160405190810160405280939291908181526020018383808284376000920191909152509295949360208101935035915050600160201b8111156107fa57600080fd5b82018360208201111561080c57600080fd5b803590602001918460018302840111600160201b8311171561082d57600080fd5b91908080601f016020809104026020016040519081016040528093929190818152602001838380828437600092019190915250929550505090356001600160a01b03169150610fd79050565b609a8054604080516020601f60026000196101006001881615020190951694909404938401819004810282018101909252828152606093909290918301828280156109055780601f106108da57610100808354040283529160200191610905565b820191906000526020600020905b8154815290600101906020018083116108e857829003601f168201915b505050505090505b90565b600061092461091d61120e565b8484611212565b5060015b92915050565b60995490565b60006109418484846112fe565b6109b78461094d61120e565b6109b28560405180606001604052806028815260200161267b602891396001600160a01b038a1660009081526098602052604081209061098b61120e565b6001600160a01b03168152602081019190915260400160002054919063ffffffff61146716565b611212565b5060019392505050565b6000818152606560205260409020600201545b919050565b6000828152606560205260409020600201546109fc906109f761120e565b610dce565b610a375760405162461bcd60e51b815260040180806020018281038252602f815260200180612558602f913960400191505060405180910390fd5b610a4182826114fe565b5050565b609c5460ff1690565b610a5661120e565b6001600160a01b0316816001600160a01b031614610aa55760405162461bcd60e51b815260040180806020018281038252602f815260200180612873602f913960400191505060405180910390fd5b610a41828261156d565b6000610924610abc61120e565b846109b28560986000610acd61120e565b6001600160a01b03908116825260208083019390935260409182016000908120918c16815292529020549063ffffffff6115dc16565b604080516a5041555345525f524f4c4560a81b8152905190819003600b019020610b2f906109f761120e565b610b6a5760405162461bcd60e51b81526004018080602001828103825260398152602001806125a96039913960400191505060405180910390fd5b610b72611636565b565b604080516a4d494e5445525f524f4c4560a81b8152905190819003600b019020610ba0906109f761120e565b610bdb5760405162461bcd60e51b81526004018080602001828103825260368152602001806126db6036913960400191505060405180910390fd5b610a4182826116d4565b610bf6610bf061120e565b826117d2565b50565b610c02816118da565b610c3d5760405162461bcd60e51b81526004018080602001828103825260388152602001806128166038913960400191505060405180910390fd5b610a418282610b74565b610a418282611a5f565b60fb5460ff1690565b6001600160a01b031660009081526097602052604090205490565b610191546001600160a01b031681565b604080516a4d494e5445525f524f4c4560a81b8152905190819003600b019020610cb1906109f761120e565b610cec5760405162461bcd60e51b81526004018080602001828103825260368152602001806127856036913960400191505060405180910390fd5b610cf581611b3f565b610d305760405162461bcd60e51b81526004018080602001828103825260388152602001806126a36038913960400191505060405180910390fd5b610a4182826117d2565b604080516a5041555345525f524f4c4560a81b8152905190819003600b019020610d66906109f761120e565b610da15760405162461bcd60e51b81526004018080602001828103825260378152602001806127df6037913960400191505060405180910390fd5b610b72611be3565b6000828152606560205260408120610dc7908363ffffffff611c6416565b9392505050565b6000828152606560205260408120610dc7908363ffffffff611c7016565b609b8054604080516020601f60026000196101006001881615020190951694909404938401819004810282018101909252828152606093909290918301828280156109055780601f106108da57610100808354040283529160200191610905565b600081565b6000610924610e5f61120e565b846109b28560405180606001604052806025815260200161284e6025913960986000610e8961120e565b6001600160a01b03908116825260208083019390935260409182016000908120918d1681529252902054919063ffffffff61146716565b6000610924610ecd61120e565b84846112fe565b600081815260656020526040812061092890611c85565b604080516a4d494e5445525f524f4c4560a81b8152905190819003600b01902081565b600082815260656020526040902060020154610f2c906109f761120e565b610aa55760405162461bcd60e51b815260040180806020018281038252603081526020018061262a6030913960400191505060405180910390fd5b6001600160a01b03918216600090815260986020908152604080832093909416825291909152205490565b60408051694f574e45525f524f4c4560b01b8152905190819003600a01902081565b604080516a5041555345525f524f4c4560a81b8152905190819003600b01902081565b600054610100900460ff1680610ff05750610ff0611c90565b80610ffe575060005460ff16155b6110395760405162461bcd60e51b815260040180806020018281038252602e815260200180612711602e913960400191505060405180910390fd5b600054610100900460ff16158015611064576000805460ff1961ff0019909116610100171660011790555b61106c611c96565b611074611c96565b61107e8484611d37565b611086611c96565b61108e611e0f565b611096611c96565b61019180546001600160a01b0384166001600160a01b0319909116179055604080516a4d494e5445525f524f4c4560a81b8152905190819003600b0190206110de9086610a37565b604080516a5041555345525f524f4c4560a81b8152905190819003600b0190206111089086610a37565b60408051694f574e45525f524f4c4560b01b8152905190819003600a0190206111319086610a37565b604080516a4d494e5445525f524f4c4560a81b8152815190819003600b018120694f574e45525f524f4c4560b01b8252915190819003600a0190206111769190611eba565b604080516a5041555345525f524f4c4560a81b8152815190819003600b018120694f574e45525f524f4c4560b01b8252915190819003600a0190206111bb9190611eba565b60408051694f574e45525f524f4c4560b01b808252825191829003600a908101832091835292519182900390920190206111f59190611eba565b8015611207576000805461ff00191690555b5050505050565b3390565b6001600160a01b0383166112575760405162461bcd60e51b81526004018080602001828103825260248152602001806127bb6024913960400191505060405180910390fd5b6001600160a01b03821661129c5760405162461bcd60e51b81526004018080602001828103825260228152602001806125e26022913960400191505060405180910390fd5b6001600160a01b03808416600081815260986020908152604080832094871680845294825291829020859055815185815291517f8c5be1e5ebec7d5bd14f71427d1e84f3dd0314c0f7b2291e5b200ac8c7c3b9259281900390910190a3505050565b6001600160a01b0383166113435760405162461bcd60e51b81526004018080602001828103825260258152602001806127606025913960400191505060405180910390fd5b6001600160a01b0382166113885760405162461bcd60e51b81526004018080602001828103825260238152602001806125356023913960400191505060405180910390fd5b611393838383611ecf565b6113d681604051806060016040528060268152602001612604602691396001600160a01b038616600090815260976020526040902054919063ffffffff61146716565b6001600160a01b03808516600090815260976020526040808220939093559084168152205461140b908263ffffffff6115dc16565b6001600160a01b0380841660008181526097602090815260409182902094909455805185815290519193928716927fddf252ad1be2c89b69c2b068fc378daa952ba7f163c4a11628f55a4df523b3ef92918290030190a3505050565b600081848411156114f65760405162461bcd60e51b81526004018080602001828103825283818151815260200191508051906020019080838360005b838110156114bb5781810151838201526020016114a3565b50505050905090810190601f1680156114e85780820380516001836020036101000a031916815260200191505b509250505060405180910390fd5b505050900390565b600082815260656020526040902061151c908263ffffffff611eda16565b15610a415761152961120e565b6001600160a01b0316816001600160a01b0316837f2f8788117e7eff1d82e926ec794901d17c78024a50270940304540a733656f0d60405160405180910390a45050565b600082815260656020526040902061158b908263ffffffff611eef16565b15610a415761159861120e565b6001600160a01b0316816001600160a01b0316837ff6391f5c32d9c69d2a47ea670b442974b53935d1edc7fd64eb21e047a839171b60405160405180910390a45050565b600082820183811015610dc7576040805162461bcd60e51b815260206004820152601b60248201527f536166654d6174683a206164646974696f6e206f766572666c6f770000000000604482015290519081900360640190fd5b60fb5460ff16611684576040805162461bcd60e51b815260206004820152601460248201527314185d5cd8589b194e881b9bdd081c185d5cd95960621b604482015290519081900360640190fd5b60fb805460ff191690557f5db9ee0a495bf2e6ff9c91a7834c1ba4fdd244a5e8aa4e537bd38aeae4b073aa6116b761120e565b604080516001600160a01b039092168252519081900360200190a1565b6001600160a01b03821661172f576040805162461bcd60e51b815260206004820152601f60248201527f45524332303a206d696e7420746f20746865207a65726f206164647265737300604482015290519081900360640190fd5b61173b60008383611ecf565b60995461174e908263ffffffff6115dc16565b6099556001600160a01b03821660009081526097602052604090205461177a908263ffffffff6115dc16565b6001600160a01b03831660008181526097602090815260408083209490945583518581529351929391927fddf252ad1be2c89b69c2b068fc378daa952ba7f163c4a11628f55a4df523b3ef9281900390910190a35050565b6001600160a01b0382166118175760405162461bcd60e51b815260040180806020018281038252602181526020018061273f6021913960400191505060405180910390fd5b61182382600083611ecf565b61186681604051806060016040528060228152602001612587602291396001600160a01b038516600090815260976020526040902054919063ffffffff61146716565b6001600160a01b038316600090815260976020526040902055609954611892908263ffffffff611f0416565b6099556040805182815290516000916001600160a01b038516917fddf252ad1be2c89b69c2b068fc378daa952ba7f163c4a11628f55a4df523b3ef9181900360200190a35050565b6000806119966118e8611f46565b6101915461198a90611902906001600160a01b0316611f5b565b6001600160a01b031663872697296040518163ffffffff1660e01b815260040160206040518083038186803b15801561193a57600080fd5b505afa15801561194e573d6000803e3d6000fd5b505050506040513d602081101561196457600080fd5b505161197e8761197261092e565b9063ffffffff6115dc16565b9063ffffffff611f6616565b9063ffffffff611fbf16565b905060006119a382612001565b610191549091506000906119bf906001600160a01b0316611f5b565b6001600160a01b03166371a973056040518163ffffffff1660e01b815260040160206040518083038186803b1580156119f757600080fd5b505afa158015611a0b573d6000803e3d6000fd5b505050506040513d6020811015611a2157600080fd5b50519050620f4240828210611a4e5780611a41838563ffffffff611f0416565b11159450505050506109d4565b80611a41848463ffffffff611f0416565b600054610100900460ff1680611a785750611a78611c90565b80611a86575060005460ff16155b611ac15760405162461bcd60e51b815260040180806020018281038252602e815260200180612711602e913960400191505060405180910390fd5b600054610100900460ff16158015611aec576000805460ff1961ff0019909116610100171660011790555b611af4611c96565b611afc611c96565b611b068383611d37565b611b0e611c96565b611b16611e0f565b611b1e611c96565b611b288383612026565b8015611b3a576000805461ff00191690555b505050565b600080611996611b4d611f46565b6101915461198a90611b67906001600160a01b0316611f5b565b6001600160a01b031663872697296040518163ffffffff1660e01b815260040160206040518083038186803b158015611b9f57600080fd5b505afa158015611bb3573d6000803e3d6000fd5b505050506040513d6020811015611bc957600080fd5b505161197e87611bd761092e565b9063ffffffff611f0416565b60fb5460ff1615611c2e576040805162461bcd60e51b815260206004820152601060248201526f14185d5cd8589b194e881c185d5cd95960821b604482015290519081900360640190fd5b60fb805460ff191660011790557f62e78cea01bee320cd4e420270b5ea74000d11b0c9f74754ebdbfc544b05a2586116b761120e565b6000610dc7838361211d565b6000610dc7836001600160a01b038416612181565b600061092882612199565b303b1590565b600054610100900460ff1680611caf5750611caf611c90565b80611cbd575060005460ff16155b611cf85760405162461bcd60e51b815260040180806020018281038252602e815260200180612711602e913960400191505060405180910390fd5b600054610100900460ff16158015611d23576000805460ff1961ff0019909116610100171660011790555b8015610bf6576000805461ff001916905550565b600054610100900460ff1680611d505750611d50611c90565b80611d5e575060005460ff16155b611d995760405162461bcd60e51b815260040180806020018281038252602e815260200180612711602e913960400191505060405180910390fd5b600054610100900460ff16158015611dc4576000805460ff1961ff0019909116610100171660011790555b8251611dd790609a90602086019061247a565b508151611deb90609b90602085019061247a565b50609c805460ff191660121790558015611b3a576000805461ff0019169055505050565b600054610100900460ff1680611e285750611e28611c90565b80611e36575060005460ff16155b611e715760405162461bcd60e51b815260040180806020018281038252602e815260200180612711602e913960400191505060405180910390fd5b600054610100900460ff16158015611e9c576000805460ff1961ff0019909116610100171660011790555b60fb805460ff191690558015610bf6576000805461ff001916905550565b60009182526065602052604090912060020155565b611b3a83838361219d565b6000610dc7836001600160a01b0384166121ec565b6000610dc7836001600160a01b038416612236565b6000610dc783836040518060400160405280601e81526020017f536166654d6174683a207375627472616374696f6e206f766572666c6f770000815250611467565b6000611f50610a45565b60ff16600a0a905090565b6000610928826122fc565b600082611f7557506000610928565b82820282848281611f8257fe5b0414610dc75760405162461bcd60e51b815260040180806020018281038252602181526020018061265a6021913960400191505060405180910390fd5b6000610dc783836040518060400160405280601a81526020017f536166654d6174683a206469766973696f6e206279207a65726f000000000000815250612375565b60006109286120196120116123da565b61198a611f46565b839063ffffffff611fbf16565b600054610100900460ff168061203f575061203f611c90565b8061204d575060005460ff16155b6120885760405162461bcd60e51b815260040180806020018281038252602e815260200180612711602e913960400191505060405180910390fd5b600054610100900460ff161580156120b3576000805460ff1961ff0019909116610100171660011790555b6120c560006120c061120e565b610a37565b604080516a4d494e5445525f524f4c4560a81b8152905190819003600b0190206120f1906120c061120e565b604080516a5041555345525f524f4c4560a81b8152905190819003600b019020611b28906120c061120e565b8154600090821061215f5760405162461bcd60e51b81526004018080602001828103825260228152602001806125136022913960400191505060405180910390fd5b82600001828154811061216e57fe5b9060005260206000200154905092915050565b60009081526001919091016020526040902054151590565b5490565b6121a8838383611b3a565b6121b0610c51565b15611b3a5760405162461bcd60e51b815260040180806020018281038252602a8152602001806128a2602a913960400191505060405180910390fd5b60006121f88383612181565b61222e57508154600181810184556000848152602080822090930184905584548482528286019093526040902091909155610928565b506000610928565b600081815260018301602052604081205480156122f2578354600019808301919081019060009087908390811061226957fe5b906000526020600020015490508087600001848154811061228657fe5b6000918252602080832090910192909255828152600189810190925260409020908401905586548790806122b657fe5b60019003818190600052602060002001600090559055866001016000878152602001908152602001600020600090556001945050505050610928565b6000915050610928565b60006001600160a01b03821663b93f9b0a825b6040518263ffffffff1660e01b81526004018082815260200191505060206040518083038186803b15801561234357600080fd5b505afa158015612357573d6000803e3d6000fd5b505050506040513d602081101561236d57600080fd5b505192915050565b600081836123c45760405162461bcd60e51b81526020600482018181528351602484015283519092839260449091019190850190808383600083156114bb5781810151838201526020016114a3565b5060008385816123d057fe5b0495945050505050565b610191546000906123f3906001600160a01b0316612462565b6001600160a01b031663313ce5676040518163ffffffff1660e01b815260040160206040518083038186803b15801561242b57600080fd5b505afa15801561243f573d6000803e3d6000fd5b505050506040513d602081101561245557600080fd5b505160ff16600a0a905090565b60006001600160a01b03821663b93f9b0a600561230f565b828054600181600116156101000203166002900490600052602060002090601f016020900481019282601f106124bb57805160ff19168380011785556124e8565b828001600101855582156124e8579182015b828111156124e85782518255916020019190600101906124cd565b506124f49291506124f8565b5090565b61090d91905b808211156124f457600081556001016124fe56fe456e756d657261626c655365743a20696e646578206f7574206f6620626f756e647345524332303a207472616e7366657220746f20746865207a65726f2061646472657373416363657373436f6e74726f6c3a2073656e646572206d75737420626520616e2061646d696e20746f206772616e7445524332303a206275726e20616d6f756e7420657863656564732062616c616e636545524332305072657365744d696e7465725061757365723a206d75737420686176652070617573657220726f6c6520746f20756e706175736545524332303a20617070726f766520746f20746865207a65726f206164647265737345524332303a207472616e7366657220616d6f756e7420657863656564732062616c616e6365416363657373436f6e74726f6c3a2073656e646572206d75737420626520616e2061646d696e20746f207265766f6b65536166654d6174683a206d756c7469706c69636174696f6e206f766572666c6f7745524332303a207472616e7366657220616d6f756e74206578636565647320616c6c6f77616e636543616e6e6f74206275726e3a20697420776f756c642063726561746520616e2061737365742f6c696162696c697479206d69736d6174636845524332305072657365744d696e7465725061757365723a206d7573742068617665206d696e74657220726f6c6520746f206d696e74436f6e747261637420696e7374616e63652068617320616c7265616479206265656e20696e697469616c697a656445524332303a206275726e2066726f6d20746865207a65726f206164647265737345524332303a207472616e736665722066726f6d20746865207a65726f206164647265737345524332305072657365744d696e7465725061757365723a204d7573742068617665206d696e74657220726f6c6520746f206275726e45524332303a20617070726f76652066726f6d20746865207a65726f206164647265737345524332305072657365744d696e7465725061757365723a206d75737420686176652070617573657220726f6c6520746f20706175736543616e6e6f74206d696e743a20697420776f756c642063726561746520616e2061737365742f6c696162696c697479206d69736d6174636845524332303a2064656372656173656420616c6c6f77616e63652062656c6f77207a65726f416363657373436f6e74726f6c3a2063616e206f6e6c792072656e6f756e636520726f6c657320666f722073656c6645524332305061757361626c653a20746f6b656e207472616e73666572207768696c6520706175736564a264697066735822122022026e986e4475a4de84fc4f71faadc951085e8398285db0417cd0c379f631dc64736f6c63430006080033",
  "devdoc": {
    "author": "Goldfinch",
    "methods": {
      "allowance(address,address)": {
        "details": "See {IERC20-allowance}."
      },
      "approve(address,uint256)": {
        "details": "See {IERC20-approve}.     * Requirements:     * - `spender` cannot be the zero address."
      },
      "balanceOf(address)": {
        "details": "See {IERC20-balanceOf}."
      },
      "burn(uint256)": {
        "details": "Destroys `amount` tokens from the caller.     * See {ERC20-_burn}."
      },
      "burnFrom(address,uint256)": {
        "details": "Destroys `amount` tokens from `account`, deducting from the caller's allowance.   * See {ERC20-_burn} and {ERC20-allowance}.   * Requirements:   * - the caller must have the MINTER_ROLE"
      },
      "decimals()": {
        "details": "Returns the number of decimals used to get its user representation. For example, if `decimals` equals `2`, a balance of `505` tokens should be displayed to a user as `5,05` (`505 / 10 ** 2`).     * Tokens usually opt for a value of 18, imitating the relationship between Ether and Wei. This is the value {ERC20} uses, unless {_setupDecimals} is called.     * NOTE: This information is only used for _display_ purposes: it in no way affects any of the arithmetic of the contract, including {IERC20-balanceOf} and {IERC20-transfer}."
      },
      "decreaseAllowance(address,uint256)": {
        "details": "Atomically decreases the allowance granted to `spender` by the caller.     * This is an alternative to {approve} that can be used as a mitigation for problems described in {IERC20-approve}.     * Emits an {Approval} event indicating the updated allowance.     * Requirements:     * - `spender` cannot be the zero address. - `spender` must have allowance for the caller of at least `subtractedValue`."
      },
      "getRoleAdmin(bytes32)": {
        "details": "Returns the admin role that controls `role`. See {grantRole} and {revokeRole}.     * To change a role's admin, use {_setRoleAdmin}."
      },
      "getRoleMember(bytes32,uint256)": {
        "details": "Returns one of the accounts that have `role`. `index` must be a value between 0 and {getRoleMemberCount}, non-inclusive.     * Role bearers are not sorted in any particular way, and their ordering may change at any point.     * WARNING: When using {getRoleMember} and {getRoleMemberCount}, make sure you perform all queries on the same block. See the following https://forum.openzeppelin.com/t/iterating-over-elements-on-enumerableset-in-openzeppelin-contracts/2296[forum post] for more information."
      },
      "getRoleMemberCount(bytes32)": {
        "details": "Returns the number of accounts that have `role`. Can be used together with {getRoleMember} to enumerate all bearers of a role."
      },
      "grantRole(bytes32,address)": {
        "details": "Grants `role` to `account`.     * If `account` had not been already granted `role`, emits a {RoleGranted} event.     * Requirements:     * - the caller must have ``role``'s admin role."
      },
      "hasRole(bytes32,address)": {
        "details": "Returns `true` if `account` has been granted `role`."
      },
      "increaseAllowance(address,uint256)": {
        "details": "Atomically increases the allowance granted to `spender` by the caller.     * This is an alternative to {approve} that can be used as a mitigation for problems described in {IERC20-approve}.     * Emits an {Approval} event indicating the updated allowance.     * Requirements:     * - `spender` cannot be the zero address."
      },
      "initialize(string,string)": {
        "details": "Grants `DEFAULT_ADMIN_ROLE`, `MINTER_ROLE` and `PAUSER_ROLE` to the account that deploys the contract.     * See {ERC20-constructor}."
      },
      "mint(address,uint256)": {
        "details": "Creates `amount` new tokens for `to`.     * See {ERC20-_mint}.     * Requirements:     * - the caller must have the `MINTER_ROLE`."
      },
      "mintTo(address,uint256)": {
        "details": "Creates `amount` new tokens for `to`.   * See {ERC20-_mint}.   * Requirements:   * - the caller must have the `MINTER_ROLE`."
      },
      "name()": {
        "details": "Returns the name of the token."
      },
      "pause()": {
        "details": "Pauses all token transfers.     * See {ERC20Pausable} and {Pausable-_pause}.     * Requirements:     * - the caller must have the `PAUSER_ROLE`."
      },
      "paused()": {
        "details": "Returns true if the contract is paused, and false otherwise."
      },
      "renounceRole(bytes32,address)": {
        "details": "Revokes `role` from the calling account.     * Roles are often managed via {grantRole} and {revokeRole}: this function's purpose is to provide a mechanism for accounts to lose their privileges if they are compromised (such as when a trusted device is misplaced).     * If the calling account had been granted `role`, emits a {RoleRevoked} event.     * Requirements:     * - the caller must be `account`."
      },
      "revokeRole(bytes32,address)": {
        "details": "Revokes `role` from `account`.     * If `account` had been granted `role`, emits a {RoleRevoked} event.     * Requirements:     * - the caller must have ``role``'s admin role."
      },
      "symbol()": {
        "details": "Returns the symbol of the token, usually a shorter version of the name."
      },
      "totalSupply()": {
        "details": "See {IERC20-totalSupply}."
      },
      "transfer(address,uint256)": {
        "details": "See {IERC20-transfer}.     * Requirements:     * - `recipient` cannot be the zero address. - the caller must have a balance of at least `amount`."
      },
      "transferFrom(address,address,uint256)": {
        "details": "See {IERC20-transferFrom}.     * Emits an {Approval} event indicating the updated allowance. This is not required by the EIP. See the note at the beginning of {ERC20};     * Requirements: - `sender` and `recipient` cannot be the zero address. - `sender` must have a balance of at least `amount`. - the caller must have allowance for ``sender``'s tokens of at least `amount`."
      },
      "unpause()": {
        "details": "Unpauses all token transfers.     * See {ERC20Pausable} and {Pausable-_unpause}.     * Requirements:     * - the caller must have the `PAUSER_ROLE`."
      }
    },
    "title": "Fidu"
  },
  "userdoc": {
    "methods": {},
    "notice": "Fidu (symbol: FIDU) is Goldfinch's liquidity token, representing shares in the Pool. When you deposit, we mint a corresponding amount of Fidu, and when you withdraw, we burn Fidu. The share price of the Pool implicitly represents the \"exchange rate\" between Fidu and USDC (or whatever currencies the Pool may allow withdraws in during the future)"
  },
  "storageLayout": {
    "storage": [
      {
        "astId": 49,
        "contract": "contracts/protocol/Fidu.sol:Fidu",
        "label": "initialized",
        "offset": 0,
        "slot": "0",
        "type": "t_bool"
      },
      {
        "astId": 51,
        "contract": "contracts/protocol/Fidu.sol:Fidu",
        "label": "initializing",
        "offset": 1,
        "slot": "0",
        "type": "t_bool"
      },
      {
        "astId": 116,
        "contract": "contracts/protocol/Fidu.sol:Fidu",
        "label": "______gap",
        "offset": 0,
        "slot": "1",
        "type": "t_array(t_uint256)50_storage"
      },
      {
        "astId": 43,
        "contract": "contracts/protocol/Fidu.sol:Fidu",
        "label": "__gap",
        "offset": 0,
        "slot": "51",
        "type": "t_array(t_uint256)50_storage"
      },
      {
        "astId": 161,
        "contract": "contracts/protocol/Fidu.sol:Fidu",
        "label": "_roles",
        "offset": 0,
        "slot": "101",
        "type": "t_mapping(t_bytes32,t_struct(RoleData)157_storage)"
      },
      {
        "astId": 406,
        "contract": "contracts/protocol/Fidu.sol:Fidu",
        "label": "__gap",
        "offset": 0,
        "slot": "102",
        "type": "t_array(t_uint256)49_storage"
      },
      {
        "astId": 1068,
        "contract": "contracts/protocol/Fidu.sol:Fidu",
        "label": "_balances",
        "offset": 0,
        "slot": "151",
        "type": "t_mapping(t_address,t_uint256)"
      },
      {
        "astId": 1074,
        "contract": "contracts/protocol/Fidu.sol:Fidu",
        "label": "_allowances",
        "offset": 0,
        "slot": "152",
        "type": "t_mapping(t_address,t_mapping(t_address,t_uint256))"
      },
      {
        "astId": 1076,
        "contract": "contracts/protocol/Fidu.sol:Fidu",
        "label": "_totalSupply",
        "offset": 0,
        "slot": "153",
        "type": "t_uint256"
      },
      {
        "astId": 1078,
        "contract": "contracts/protocol/Fidu.sol:Fidu",
        "label": "_name",
        "offset": 0,
        "slot": "154",
        "type": "t_string_storage"
      },
      {
        "astId": 1080,
        "contract": "contracts/protocol/Fidu.sol:Fidu",
        "label": "_symbol",
        "offset": 0,
        "slot": "155",
        "type": "t_string_storage"
      },
      {
        "astId": 1082,
        "contract": "contracts/protocol/Fidu.sol:Fidu",
        "label": "_decimals",
        "offset": 0,
        "slot": "156",
        "type": "t_uint8"
      },
      {
        "astId": 1577,
        "contract": "contracts/protocol/Fidu.sol:Fidu",
        "label": "__gap",
        "offset": 0,
        "slot": "157",
        "type": "t_array(t_uint256)44_storage"
      },
      {
        "astId": 1658,
        "contract": "contracts/protocol/Fidu.sol:Fidu",
        "label": "__gap",
        "offset": 0,
        "slot": "201",
        "type": "t_array(t_uint256)50_storage"
      },
      {
        "astId": 2282,
        "contract": "contracts/protocol/Fidu.sol:Fidu",
        "label": "_paused",
        "offset": 0,
        "slot": "251",
        "type": "t_bool"
      },
      {
        "astId": 2371,
        "contract": "contracts/protocol/Fidu.sol:Fidu",
        "label": "__gap",
        "offset": 0,
        "slot": "252",
        "type": "t_array(t_uint256)49_storage"
      },
      {
        "astId": 1723,
        "contract": "contracts/protocol/Fidu.sol:Fidu",
        "label": "__gap",
        "offset": 0,
        "slot": "301",
        "type": "t_array(t_uint256)50_storage"
      },
      {
        "astId": 1043,
        "contract": "contracts/protocol/Fidu.sol:Fidu",
        "label": "__gap",
        "offset": 0,
        "slot": "351",
        "type": "t_array(t_uint256)50_storage"
      },
      {
        "astId": 7006,
        "contract": "contracts/protocol/Fidu.sol:Fidu",
        "label": "config",
        "offset": 0,
        "slot": "401",
        "type": "t_contract(GoldfinchConfig)7562"
      }
    ],
    "types": {
      "t_address": {
        "encoding": "inplace",
        "label": "address",
        "numberOfBytes": "20"
      },
      "t_array(t_bytes32)dyn_storage": {
        "base": "t_bytes32",
        "encoding": "dynamic_array",
        "label": "bytes32[]",
        "numberOfBytes": "32"
      },
      "t_array(t_uint256)44_storage": {
        "base": "t_uint256",
        "encoding": "inplace",
        "label": "uint256[44]",
        "numberOfBytes": "1408"
      },
      "t_array(t_uint256)49_storage": {
        "base": "t_uint256",
        "encoding": "inplace",
        "label": "uint256[49]",
        "numberOfBytes": "1568"
      },
      "t_array(t_uint256)50_storage": {
        "base": "t_uint256",
        "encoding": "inplace",
        "label": "uint256[50]",
        "numberOfBytes": "1600"
      },
      "t_bool": {
        "encoding": "inplace",
        "label": "bool",
        "numberOfBytes": "1"
      },
      "t_bytes32": {
        "encoding": "inplace",
        "label": "bytes32",
        "numberOfBytes": "32"
      },
      "t_contract(GoldfinchConfig)7562": {
        "encoding": "inplace",
        "label": "contract GoldfinchConfig",
        "numberOfBytes": "20"
      },
      "t_mapping(t_address,t_mapping(t_address,t_uint256))": {
        "encoding": "mapping",
        "key": "t_address",
        "label": "mapping(address => mapping(address => uint256))",
        "numberOfBytes": "32",
        "value": "t_mapping(t_address,t_uint256)"
      },
      "t_mapping(t_address,t_uint256)": {
        "encoding": "mapping",
        "key": "t_address",
        "label": "mapping(address => uint256)",
        "numberOfBytes": "32",
        "value": "t_uint256"
      },
      "t_mapping(t_bytes32,t_struct(RoleData)157_storage)": {
        "encoding": "mapping",
        "key": "t_bytes32",
        "label": "mapping(bytes32 => struct AccessControlUpgradeSafe.RoleData)",
        "numberOfBytes": "32",
        "value": "t_struct(RoleData)157_storage"
      },
      "t_mapping(t_bytes32,t_uint256)": {
        "encoding": "mapping",
        "key": "t_bytes32",
        "label": "mapping(bytes32 => uint256)",
        "numberOfBytes": "32",
        "value": "t_uint256"
      },
      "t_string_storage": {
        "encoding": "bytes",
        "label": "string",
        "numberOfBytes": "32"
      },
      "t_struct(AddressSet)2057_storage": {
        "encoding": "inplace",
        "label": "struct EnumerableSet.AddressSet",
        "members": [
          {
            "astId": 2056,
            "contract": "contracts/protocol/Fidu.sol:Fidu",
            "label": "_inner",
            "offset": 0,
            "slot": "0",
            "type": "t_struct(Set)1877_storage"
          }
        ],
        "numberOfBytes": "64"
      },
      "t_struct(RoleData)157_storage": {
        "encoding": "inplace",
        "label": "struct AccessControlUpgradeSafe.RoleData",
        "members": [
          {
            "astId": 154,
            "contract": "contracts/protocol/Fidu.sol:Fidu",
            "label": "members",
            "offset": 0,
            "slot": "0",
            "type": "t_struct(AddressSet)2057_storage"
          },
          {
            "astId": 156,
            "contract": "contracts/protocol/Fidu.sol:Fidu",
            "label": "adminRole",
            "offset": 0,
            "slot": "2",
            "type": "t_bytes32"
          }
        ],
        "numberOfBytes": "96"
      },
      "t_struct(Set)1877_storage": {
        "encoding": "inplace",
        "label": "struct EnumerableSet.Set",
        "members": [
          {
            "astId": 1872,
            "contract": "contracts/protocol/Fidu.sol:Fidu",
            "label": "_values",
            "offset": 0,
            "slot": "0",
            "type": "t_array(t_bytes32)dyn_storage"
          },
          {
            "astId": 1876,
            "contract": "contracts/protocol/Fidu.sol:Fidu",
            "label": "_indexes",
            "offset": 0,
            "slot": "1",
            "type": "t_mapping(t_bytes32,t_uint256)"
          }
        ],
        "numberOfBytes": "64"
      },
      "t_uint256": {
        "encoding": "inplace",
        "label": "uint256",
        "numberOfBytes": "32"
      },
      "t_uint8": {
        "encoding": "inplace",
        "label": "uint8",
        "numberOfBytes": "1"
      }
    }
  }
}