{
  "address": "0xDdE3EcdBdF14eD929256A4b5BEB26B778F66aa6E",
  "abi": [
    {
      "anonymous": false,
      "inputs": [
        {
          "indexed": false,
          "internalType": "address",
          "name": "owner",
          "type": "address"
        },
        {
          "indexed": false,
          "internalType": "string",
          "name": "name",
          "type": "string"
        },
        {
          "indexed": false,
          "internalType": "address",
          "name": "oldValue",
          "type": "address"
        },
        {
          "indexed": false,
          "internalType": "address",
          "name": "newValue",
          "type": "address"
        }
      ],
      "name": "AddressUpdated",
      "type": "event"
    },
    {
      "anonymous": false,
      "inputs": [
        {
          "indexed": false,
          "internalType": "address",
          "name": "owner",
          "type": "address"
        },
        {
          "indexed": false,
          "internalType": "string",
          "name": "name",
          "type": "string"
        },
        {
          "indexed": false,
          "internalType": "uint256",
          "name": "oldValue",
          "type": "uint256"
        },
        {
          "indexed": false,
          "internalType": "uint256",
          "name": "newValue",
          "type": "uint256"
        }
      ],
      "name": "NumberUpdated",
      "type": "event"
    },
    {
      "anonymous": false,
      "inputs": [
        {
          "indexed": false,
          "internalType": "address",
          "name": "account",
          "type": "address"
        }
      ],
      "name": "Paused",
      "type": "event"
    },
    {
      "anonymous": false,
      "inputs": [
        {
          "indexed": true,
          "internalType": "bytes32",
          "name": "role",
          "type": "bytes32"
        },
        {
          "indexed": true,
          "internalType": "address",
          "name": "account",
          "type": "address"
        },
        {
          "indexed": true,
          "internalType": "address",
          "name": "sender",
          "type": "address"
        }
      ],
      "name": "RoleGranted",
      "type": "event"
    },
    {
      "anonymous": false,
      "inputs": [
        {
          "indexed": true,
          "internalType": "bytes32",
          "name": "role",
          "type": "bytes32"
        },
        {
          "indexed": true,
          "internalType": "address",
          "name": "account",
          "type": "address"
        },
        {
          "indexed": true,
          "internalType": "address",
          "name": "sender",
          "type": "address"
        }
      ],
      "name": "RoleRevoked",
      "type": "event"
    },
    {
      "anonymous": false,
      "inputs": [
        {
          "indexed": false,
          "internalType": "address",
          "name": "account",
          "type": "address"
        }
      ],
      "name": "Unpaused",
      "type": "event"
    },
    {
      "inputs": [],
      "name": "DEFAULT_ADMIN_ROLE",
      "outputs": [
        {
          "internalType": "bytes32",
          "name": "",
          "type": "bytes32"
        }
      ],
      "stateMutability": "view",
      "type": "function"
    },
    {
      "inputs": [],
      "name": "OWNER_ROLE",
      "outputs": [
        {
          "internalType": "bytes32",
          "name": "",
          "type": "bytes32"
        }
      ],
      "stateMutability": "view",
      "type": "function"
    },
    {
      "inputs": [],
      "name": "PAUSER_ROLE",
      "outputs": [
        {
          "internalType": "bytes32",
          "name": "",
          "type": "bytes32"
        }
      ],
      "stateMutability": "view",
      "type": "function"
    },
    {
      "inputs": [
        {
          "internalType": "address",
          "name": "owner",
          "type": "address"
        }
      ],
      "name": "__BaseUpgradeablePausable__init",
      "outputs": [],
      "stateMutability": "nonpayable",
      "type": "function"
    },
    {
      "inputs": [],
      "name": "__PauserPausable__init",
      "outputs": [],
      "stateMutability": "nonpayable",
      "type": "function"
    },
    {
      "inputs": [
        {
          "internalType": "uint256",
          "name": "",
          "type": "uint256"
        }
      ],
      "name": "addresses",
      "outputs": [
        {
          "internalType": "address",
          "name": "",
          "type": "address"
        }
      ],
      "stateMutability": "view",
      "type": "function"
    },
    {
      "inputs": [
        {
          "internalType": "uint256",
          "name": "addressKey",
          "type": "uint256"
        }
      ],
      "name": "getAddress",
      "outputs": [
        {
          "internalType": "address",
          "name": "",
          "type": "address"
        }
      ],
      "stateMutability": "view",
      "type": "function"
    },
    {
      "inputs": [
        {
          "internalType": "uint256",
          "name": "number",
          "type": "uint256"
        }
      ],
      "name": "getNumber",
      "outputs": [
        {
          "internalType": "uint256",
          "name": "",
          "type": "uint256"
        }
      ],
      "stateMutability": "view",
      "type": "function"
    },
    {
      "inputs": [
        {
          "internalType": "bytes32",
          "name": "role",
          "type": "bytes32"
        }
      ],
      "name": "getRoleAdmin",
      "outputs": [
        {
          "internalType": "bytes32",
          "name": "",
          "type": "bytes32"
        }
      ],
      "stateMutability": "view",
      "type": "function"
    },
    {
      "inputs": [
        {
          "internalType": "bytes32",
          "name": "role",
          "type": "bytes32"
        },
        {
          "internalType": "uint256",
          "name": "index",
          "type": "uint256"
        }
      ],
      "name": "getRoleMember",
      "outputs": [
        {
          "internalType": "address",
          "name": "",
          "type": "address"
        }
      ],
      "stateMutability": "view",
      "type": "function"
    },
    {
      "inputs": [
        {
          "internalType": "bytes32",
          "name": "role",
          "type": "bytes32"
        }
      ],
      "name": "getRoleMemberCount",
      "outputs": [
        {
          "internalType": "uint256",
          "name": "",
          "type": "uint256"
        }
      ],
      "stateMutability": "view",
      "type": "function"
    },
    {
      "inputs": [
        {
          "internalType": "bytes32",
          "name": "role",
          "type": "bytes32"
        },
        {
          "internalType": "address",
          "name": "account",
          "type": "address"
        }
      ],
      "name": "grantRole",
      "outputs": [],
      "stateMutability": "nonpayable",
      "type": "function"
    },
    {
      "inputs": [
        {
          "internalType": "bytes32",
          "name": "role",
          "type": "bytes32"
        },
        {
          "internalType": "address",
          "name": "account",
          "type": "address"
        }
      ],
      "name": "hasRole",
      "outputs": [
        {
          "internalType": "bool",
          "name": "",
          "type": "bool"
        }
      ],
      "stateMutability": "view",
      "type": "function"
    },
    {
      "inputs": [
        {
          "internalType": "address",
          "name": "owner",
          "type": "address"
        }
      ],
      "name": "initialize",
      "outputs": [],
      "stateMutability": "nonpayable",
      "type": "function"
    },
    {
      "inputs": [],
      "name": "isAdmin",
      "outputs": [
        {
          "internalType": "bool",
          "name": "",
          "type": "bool"
        }
      ],
      "stateMutability": "view",
      "type": "function"
    },
    {
      "inputs": [
        {
          "internalType": "uint256",
          "name": "",
          "type": "uint256"
        }
      ],
      "name": "numbers",
      "outputs": [
        {
          "internalType": "uint256",
          "name": "",
          "type": "uint256"
        }
      ],
      "stateMutability": "view",
      "type": "function"
    },
    {
      "inputs": [],
      "name": "pause",
      "outputs": [],
      "stateMutability": "nonpayable",
      "type": "function"
    },
    {
      "inputs": [],
      "name": "paused",
      "outputs": [
        {
          "internalType": "bool",
          "name": "",
          "type": "bool"
        }
      ],
      "stateMutability": "view",
      "type": "function"
    },
    {
      "inputs": [
        {
          "internalType": "bytes32",
          "name": "role",
          "type": "bytes32"
        },
        {
          "internalType": "address",
          "name": "account",
          "type": "address"
        }
      ],
      "name": "renounceRole",
      "outputs": [],
      "stateMutability": "nonpayable",
      "type": "function"
    },
    {
      "inputs": [
        {
          "internalType": "bytes32",
          "name": "role",
          "type": "bytes32"
        },
        {
          "internalType": "address",
          "name": "account",
          "type": "address"
        }
      ],
      "name": "revokeRole",
      "outputs": [],
      "stateMutability": "nonpayable",
      "type": "function"
    },
    {
      "inputs": [
        {
          "internalType": "uint256",
          "name": "addressKey",
          "type": "uint256"
        },
        {
          "internalType": "address",
          "name": "newAddress",
          "type": "address"
        }
      ],
      "name": "setAddress",
      "outputs": [],
      "stateMutability": "nonpayable",
      "type": "function"
    },
    {
      "inputs": [
        {
          "internalType": "address",
          "name": "newCreditLine",
          "type": "address"
        }
      ],
      "name": "setCreditLineImplementation",
      "outputs": [],
      "stateMutability": "nonpayable",
      "type": "function"
    },
    {
      "inputs": [
        {
          "internalType": "uint256",
          "name": "number",
          "type": "uint256"
        },
        {
          "internalType": "uint256",
          "name": "newNumber",
          "type": "uint256"
        }
      ],
      "name": "setNumber",
      "outputs": [],
      "stateMutability": "nonpayable",
      "type": "function"
    },
    {
      "inputs": [
        {
          "internalType": "address",
          "name": "newTreasuryReserve",
          "type": "address"
        }
      ],
      "name": "setTreasuryReserve",
      "outputs": [],
      "stateMutability": "nonpayable",
      "type": "function"
    },
    {
      "inputs": [],
      "name": "unpause",
      "outputs": [],
      "stateMutability": "nonpayable",
      "type": "function"
    }
  ],
  "transactionHash": "0x7191e71b2776708009855427cbd3f6aba971b8e31fb1ec707f145538fe2aa907",
  "args": [],
  "solcInputHash": "182208430cce5986c995897f9af03e7f",
  "bytecode": "0x608060405234801561001057600080fd5b50611fec806100206000396000f3fe608060405234801561001057600080fd5b50600436106101a35760003560e01c806391d14854116100ee578063ca15c87311610097578063e58378bb11610071578063e58378bb146104cc578063e63ab1e9146104d4578063edf26d9b146104dc578063fc563658146104f9576101a3565b8063ca15c87314610459578063d39fa23314610476578063d547741f14610493576101a3565b8063b6db75a0116100c8578063b6db75a014610401578063b93f9b0a14610409578063c4d66de814610426576101a3565b806391d1485414610387578063a217fddf146103c0578063ac4ce2c6146103c8576101a3565b8063526d81f6116101505780636b19e8c71161012a5780636b19e8c7146103105780638456cb59146103335780639010d07c1461033b576101a3565b8063526d81f6146102b957806357337adb146102c15780635c975abb146102f4576101a3565b80632f2ff15d116101815780632f2ff15d1461023f57806336568abe146102785780633f4ba83a146102b1576101a3565b8063097616a3146101a85780631e7213cf146101dd578063248a9ca314610210575b600080fd5b6101db600480360360208110156101be57600080fd5b503573ffffffffffffffffffffffffffffffffffffffff16610516565b005b6101db600480360360208110156101f357600080fd5b503573ffffffffffffffffffffffffffffffffffffffff16610753565b61022d6004803603602081101561022657600080fd5b5035610a42565b60408051918252519081900360200190f35b6101db6004803603604081101561025557600080fd5b508035906020013573ffffffffffffffffffffffffffffffffffffffff16610a57565b6101db6004803603604081101561028e57600080fd5b508035906020013573ffffffffffffffffffffffffffffffffffffffff16610ad9565b6101db610b6e565b6101db610bf9565b6101db600480360360208110156102d757600080fd5b503573ffffffffffffffffffffffffffffffffffffffff16610cdb565b6102fc610d41565b604080519115158252519081900360200190f35b6101db6004803603604081101561032657600080fd5b5080359060200135610d4a565b6101db610fee565b61035e6004803603604081101561035157600080fd5b5080359060200135611077565b6040805173ffffffffffffffffffffffffffffffffffffffff9092168252519081900360200190f35b6102fc6004803603604081101561039d57600080fd5b508035906020013573ffffffffffffffffffffffffffffffffffffffff16611098565b61022d6110b0565b6101db600480360360408110156103de57600080fd5b508035906020013573ffffffffffffffffffffffffffffffffffffffff166110b5565b6102fc611419565b61035e6004803603602081101561041f57600080fd5b503561144c565b6101db6004803603602081101561043c57600080fd5b503573ffffffffffffffffffffffffffffffffffffffff16611475565b61022d6004803603602081101561046f57600080fd5b5035611543565b61022d6004803603602081101561048c57600080fd5b503561155a565b6101db600480360360408110156104a957600080fd5b508035906020013573ffffffffffffffffffffffffffffffffffffffff1661156d565b61022d6115e0565b61022d611604565b61035e600480360360208110156104f257600080fd5b5035611628565b61022d6004803603602081101561050f57600080fd5b5035611651565b600054610100900460ff168061052f575061052f611664565b8061053d575060005460ff16155b610592576040517f08c379a000000000000000000000000000000000000000000000000000000000815260040180806020018281038252602e815260200180611f0b602e913960400191505060405180910390fd5b600054610100900460ff161580156105db57600080547fffffffffffffffffffffffffffffffffffffffffffffffffffffffffffffff0061ff0019909116610100171660011790555b73ffffffffffffffffffffffffffffffffffffffff821661065d57604080517f08c379a000000000000000000000000000000000000000000000000000000000815260206004820181905260248201527f4f776e65722063616e6e6f7420626520746865207a65726f2061646472657373604482015290519081900360640190fd5b61066561166a565b61066d611742565b610675611843565b61069f7fb19546dff01e856fb3f010c267a7b1c60363cf8a4664e21cc89c26224620214e83610acf565b6106c97f65d7a28e3265b37a6474929f336521b332c1681b933f6cb9f3376673440d862a83610acf565b6107137f65d7a28e3265b37a6474929f336521b332c1681b933f6cb9f3376673440d862a7fb19546dff01e856fb3f010c267a7b1c60363cf8a4664e21cc89c26224620214e611947565b61073d7fb19546dff01e856fb3f010c267a7b1c60363cf8a4664e21cc89c26224620214e80611947565b801561074f576000805461ff00191690555b5050565b61075b611419565b6107b0576040517f08c379a000000000000000000000000000000000000000000000000000000000815260040180806020018281038252602b815260200180611f5d602b913960400191505060405180910390fd5b600060015b90507f44573a89df583c0b1e16e6c22d41b4e39de1ca341d0a234b7117ccc2bf727dc43373d3aDd31AefaE704a368Cf9343a18A5D23Cc31fb7631eb7045f846040518263ffffffff1660e01b81526004018082815260200191505060006040518083038186803b15801561082857600080fd5b505af415801561083c573d6000803e3d6000fd5b505050506040513d6000823e601f3d9081017fffffffffffffffffffffffffffffffffffffffffffffffffffffffffffffffe0168201604052602081101561088357600080fd5b81019080805160405193929190846401000000008211156108a357600080fd5b9083019060208201858111156108b857600080fd5b82516401000000008111828201881017156108d257600080fd5b82525081516020918201929091019080838360005b838110156108ff5781810151838201526020016108e7565b50505050905090810190601f16801561092c5780820380516001836020036101000a031916815260200191505b50604081815260008981526101c360209081528282205473ffffffffffffffffffffffffffffffffffffffff8a811686529081169385018490528c166060850152608081850181815289519186019190915288519397508c965093945060a0850192908801918190849084905b838110156109b1578181015183820152602001610999565b50505050905090810190601f1680156109de5780820380516001836020036101000a031916815260200191505b509550505050505060405180910390a160009081526101c36020526040902080547fffffffffffffffffffffffff00000000000000000000000000000000000000001673ffffffffffffffffffffffffffffffffffffffff92909216919091179055565b60009081526065602052604090206002015490565b600082815260656020526040902060020154610a7a90610a7561195c565b611098565b610acf576040517f08c379a000000000000000000000000000000000000000000000000000000000815260040180806020018281038252602f815260200180611e80602f913960400191505060405180910390fd5b61074f8282611960565b610ae161195c565b73ffffffffffffffffffffffffffffffffffffffff168173ffffffffffffffffffffffffffffffffffffffff1614610b64576040517f08c379a000000000000000000000000000000000000000000000000000000000815260040180806020018281038252602f815260200180611f88602f913960400191505060405180910390fd5b61074f82826119e3565b610b9a7f65d7a28e3265b37a6474929f336521b332c1681b933f6cb9f3376673440d862a610a7561195c565b610bef576040517f08c379a000000000000000000000000000000000000000000000000000000000815260040180806020018281038252602c815260200180611eaf602c913960400191505060405180910390fd5b610bf7611a66565b565b600054610100900460ff1680610c125750610c12611664565b80610c20575060005460ff16155b610c75576040517f08c379a000000000000000000000000000000000000000000000000000000000815260040180806020018281038252602e815260200180611f0b602e913960400191505060405180910390fd5b600054610100900460ff16158015610cbe57600080547fffffffffffffffffffffffffffffffffffffffffffffffffffffffffffffff0061ff0019909116610100171660011790555b610cc6611742565b8015610cd8576000805461ff00191690555b50565b610ce3611419565b610d38576040517f08c379a000000000000000000000000000000000000000000000000000000000815260040180806020018281038252602b815260200180611f5d602b913960400191505060405180910390fd5b600060066107b5565b60975460ff1690565b610d52611419565b610da7576040517f08c379a000000000000000000000000000000000000000000000000000000000815260040180806020018281038252602b815260200180611f5d602b913960400191505060405180910390fd5b7f485a2737f4b43eb26ea911f5a3e7b4716a78c477266598f4157109d5dd914d693373d3aDd31AefaE704a368Cf9343a18A5D23Cc31fb7636152a028856040518263ffffffff1660e01b81526004018082815260200191505060006040518083038186803b158015610e1857600080fd5b505af4158015610e2c573d6000803e3d6000fd5b505050506040513d6000823e601f3d9081017fffffffffffffffffffffffffffffffffffffffffffffffffffffffffffffffe01682016040526020811015610e7357600080fd5b8101908080516040519392919084640100000000821115610e9357600080fd5b908301906020820185811115610ea857600080fd5b8251640100000000811182820188101715610ec257600080fd5b82525081516020918201929091019080838360005b83811015610eef578181015183820152602001610ed7565b50505050905090810190601f168015610f1c5780820380516001836020036101000a031916815260200191505b506040525050506101c460008681526020019081526020016000205484604051808573ffffffffffffffffffffffffffffffffffffffff16815260200180602001848152602001838152602001828103825285818151815260200191508051906020019080838360005b83811015610f9e578181015183820152602001610f86565b50505050905090810190601f168015610fcb5780820380516001836020036101000a031916815260200191505b509550505050505060405180910390a160009182526101c4602052604090912055565b61101a7f65d7a28e3265b37a6474929f336521b332c1681b933f6cb9f3376673440d862a610a7561195c565b61106f576040517f08c379a000000000000000000000000000000000000000000000000000000000815260040180806020018281038252602c815260200180611eaf602c913960400191505060405180910390fd5b610bf7611b52565b600082815260656020526040812061108f9083611c18565b90505b92915050565b600082815260656020526040812061108f9083611c24565b600081565b6110bd611419565b611112576040517f08c379a000000000000000000000000000000000000000000000000000000000815260040180806020018281038252602b815260200180611f5d602b913960400191505060405180910390fd5b60008281526101c3602052604090205473ffffffffffffffffffffffffffffffffffffffff161561118e576040517f08c379a0000000000000000000000000000000000000000000000000000000008152600401808060200182810382526024815260200180611f396024913960400191505060405180910390fd5b7f44573a89df583c0b1e16e6c22d41b4e39de1ca341d0a234b7117ccc2bf727dc43373d3aDd31AefaE704a368Cf9343a18A5D23Cc31fb7631eb7045f856040518263ffffffff1660e01b81526004018082815260200191505060006040518083038186803b1580156111ff57600080fd5b505af4158015611213573d6000803e3d6000fd5b505050506040513d6000823e601f3d9081017fffffffffffffffffffffffffffffffffffffffffffffffffffffffffffffffe0168201604052602081101561125a57600080fd5b810190808051604051939291908464010000000082111561127a57600080fd5b90830190602082018581111561128f57600080fd5b82516401000000008111828201881017156112a957600080fd5b82525081516020918201929091019080838360005b838110156112d65781810151838201526020016112be565b50505050905090810190601f1680156113035780820380516001836020036101000a031916815260200191505b50604081815260008a81526101c360209081528282205473ffffffffffffffffffffffffffffffffffffffff8a811686529081169385018490528b166060850152608081850181815289519186019190915288519397508b965093945060a0850192908801918190849084905b83811015611388578181015183820152602001611370565b50505050905090810190601f1680156113b55780820380516001836020036101000a031916815260200191505b509550505050505060405180910390a160009182526101c3602052604090912080547fffffffffffffffffffffffff00000000000000000000000000000000000000001673ffffffffffffffffffffffffffffffffffffffff909216919091179055565b60006114477fb19546dff01e856fb3f010c267a7b1c60363cf8a4664e21cc89c26224620214e610a7561195c565b905090565b60009081526101c3602052604090205473ffffffffffffffffffffffffffffffffffffffff1690565b600054610100900460ff168061148e575061148e611664565b8061149c575060005460ff16155b6114f1576040517f08c379a000000000000000000000000000000000000000000000000000000000815260040180806020018281038252602e815260200180611f0b602e913960400191505060405180910390fd5b600054610100900460ff1615801561153a57600080547fffffffffffffffffffffffffffffffffffffffffffffffffffffffffffffff0061ff0019909116610100171660011790555b61073d82610516565b600081815260656020526040812061109290611c46565b6101c46020526000908152604090205481565b60008281526065602052604090206002015461158b90610a7561195c565b610b64576040517f08c379a0000000000000000000000000000000000000000000000000000000008152600401808060200182810382526030815260200180611edb6030913960400191505060405180910390fd5b7fb19546dff01e856fb3f010c267a7b1c60363cf8a4664e21cc89c26224620214e81565b7f65d7a28e3265b37a6474929f336521b332c1681b933f6cb9f3376673440d862a81565b6101c36020526000908152604090205473ffffffffffffffffffffffffffffffffffffffff1681565b60009081526101c4602052604090205490565b303b1590565b600054610100900460ff16806116835750611683611664565b80611691575060005460ff16155b6116e6576040517f08c379a000000000000000000000000000000000000000000000000000000000815260040180806020018281038252602e815260200180611f0b602e913960400191505060405180910390fd5b600054610100900460ff16158015610cc657600080547fffffffffffffffffffffffffffffffffffffffffffffffffffffffffffffff0061ff0019909116610100171660011790558015610cd8576000805461ff001916905550565b600054610100900460ff168061175b575061175b611664565b80611769575060005460ff16155b6117be576040517f08c379a000000000000000000000000000000000000000000000000000000000815260040180806020018281038252602e815260200180611f0b602e913960400191505060405180910390fd5b600054610100900460ff1615801561180757600080547fffffffffffffffffffffffffffffffffffffffffffffffffffffffffffffff0061ff0019909116610100171660011790555b609780547fffffffffffffffffffffffffffffffffffffffffffffffffffffffffffffff001690558015610cd8576000805461ff001916905550565b600054610100900460ff168061185c575061185c611664565b8061186a575060005460ff16155b6118bf576040517f08c379a000000000000000000000000000000000000000000000000000000000815260040180806020018281038252602e815260200180611f0b602e913960400191505060405180910390fd5b600054610100900460ff1615801561190857600080547fffffffffffffffffffffffffffffffffffffffffffffffffffffffffffffff0061ff0019909116610100171660011790555b60c980547fffffffffffffffffffffffffffffffffffffffffffffffffffffffffffffff001660011790558015610cd8576000805461ff001916905550565b60009182526065602052604090912060020155565b3390565b60008281526065602052604090206119789082611c51565b1561074f5761198561195c565b73ffffffffffffffffffffffffffffffffffffffff168173ffffffffffffffffffffffffffffffffffffffff16837f2f8788117e7eff1d82e926ec794901d17c78024a50270940304540a733656f0d60405160405180910390a45050565b60008281526065602052604090206119fb9082611c73565b1561074f57611a0861195c565b73ffffffffffffffffffffffffffffffffffffffff168173ffffffffffffffffffffffffffffffffffffffff16837ff6391f5c32d9c69d2a47ea670b442974b53935d1edc7fd64eb21e047a839171b60405160405180910390a45050565b60975460ff16611ad757604080517f08c379a000000000000000000000000000000000000000000000000000000000815260206004820152601460248201527f5061757361626c653a206e6f7420706175736564000000000000000000000000604482015290519081900360640190fd5b609780547fffffffffffffffffffffffffffffffffffffffffffffffffffffffffffffff001690557f5db9ee0a495bf2e6ff9c91a7834c1ba4fdd244a5e8aa4e537bd38aeae4b073aa611b2861195c565b6040805173ffffffffffffffffffffffffffffffffffffffff9092168252519081900360200190a1565b60975460ff1615611bc457604080517f08c379a000000000000000000000000000000000000000000000000000000000815260206004820152601060248201527f5061757361626c653a2070617573656400000000000000000000000000000000604482015290519081900360640190fd5b609780547fffffffffffffffffffffffffffffffffffffffffffffffffffffffffffffff001660011790557f62e78cea01bee320cd4e420270b5ea74000d11b0c9f74754ebdbfc544b05a258611b2861195c565b600061108f8383611c95565b600061108f8373ffffffffffffffffffffffffffffffffffffffff8416611d13565b600061109282611d2b565b600061108f8373ffffffffffffffffffffffffffffffffffffffff8416611d2f565b600061108f8373ffffffffffffffffffffffffffffffffffffffff8416611d79565b81546000908210611cf1576040517f08c379a0000000000000000000000000000000000000000000000000000000008152600401808060200182810382526022815260200180611e5e6022913960400191505060405180910390fd5b826000018281548110611d0057fe5b9060005260206000200154905092915050565b60009081526001919091016020526040902054151590565b5490565b6000611d3b8383611d13565b611d7157508154600181810184556000848152602080822090930184905584548482528286019093526040902091909155611092565b506000611092565b60008181526001830160205260408120548015611e535783547fffffffffffffffffffffffffffffffffffffffffffffffffffffffffffffffff8083019190810190600090879083908110611dca57fe5b9060005260206000200154905080876000018481548110611de757fe5b600091825260208083209091019290925582815260018981019092526040902090840190558654879080611e1757fe5b60019003818190600052602060002001600090559055866001016000878152602001908152602001600020600090556001945050505050611092565b600091505061109256fe456e756d657261626c655365743a20696e646578206f7574206f6620626f756e6473416363657373436f6e74726f6c3a2073656e646572206d75737420626520616e2061646d696e20746f206772616e744d75737420686176652070617573657220726f6c6520746f20706572666f726d207468697320616374696f6e416363657373436f6e74726f6c3a2073656e646572206d75737420626520616e2061646d696e20746f207265766f6b65436f6e747261637420696e7374616e63652068617320616c7265616479206265656e20696e697469616c697a6564416464726573732068617320616c7265616479206265656e20696e697469616c697a65644d75737420686176652061646d696e20726f6c6520746f20706572666f726d207468697320616374696f6e416363657373436f6e74726f6c3a2063616e206f6e6c792072656e6f756e636520726f6c657320666f722073656c66a2646970667358221220686b3c0950028ead4b29a303514691bbc237eec2b18b0c6f428cc4745e00acd564736f6c634300060c0033",
  "deployedBytecode": "0x608060405234801561001057600080fd5b50600436106101a35760003560e01c806391d14854116100ee578063ca15c87311610097578063e58378bb11610071578063e58378bb146104cc578063e63ab1e9146104d4578063edf26d9b146104dc578063fc563658146104f9576101a3565b8063ca15c87314610459578063d39fa23314610476578063d547741f14610493576101a3565b8063b6db75a0116100c8578063b6db75a014610401578063b93f9b0a14610409578063c4d66de814610426576101a3565b806391d1485414610387578063a217fddf146103c0578063ac4ce2c6146103c8576101a3565b8063526d81f6116101505780636b19e8c71161012a5780636b19e8c7146103105780638456cb59146103335780639010d07c1461033b576101a3565b8063526d81f6146102b957806357337adb146102c15780635c975abb146102f4576101a3565b80632f2ff15d116101815780632f2ff15d1461023f57806336568abe146102785780633f4ba83a146102b1576101a3565b8063097616a3146101a85780631e7213cf146101dd578063248a9ca314610210575b600080fd5b6101db600480360360208110156101be57600080fd5b503573ffffffffffffffffffffffffffffffffffffffff16610516565b005b6101db600480360360208110156101f357600080fd5b503573ffffffffffffffffffffffffffffffffffffffff16610753565b61022d6004803603602081101561022657600080fd5b5035610a42565b60408051918252519081900360200190f35b6101db6004803603604081101561025557600080fd5b508035906020013573ffffffffffffffffffffffffffffffffffffffff16610a57565b6101db6004803603604081101561028e57600080fd5b508035906020013573ffffffffffffffffffffffffffffffffffffffff16610ad9565b6101db610b6e565b6101db610bf9565b6101db600480360360208110156102d757600080fd5b503573ffffffffffffffffffffffffffffffffffffffff16610cdb565b6102fc610d41565b604080519115158252519081900360200190f35b6101db6004803603604081101561032657600080fd5b5080359060200135610d4a565b6101db610fee565b61035e6004803603604081101561035157600080fd5b5080359060200135611077565b6040805173ffffffffffffffffffffffffffffffffffffffff9092168252519081900360200190f35b6102fc6004803603604081101561039d57600080fd5b508035906020013573ffffffffffffffffffffffffffffffffffffffff16611098565b61022d6110b0565b6101db600480360360408110156103de57600080fd5b508035906020013573ffffffffffffffffffffffffffffffffffffffff166110b5565b6102fc611419565b61035e6004803603602081101561041f57600080fd5b503561144c565b6101db6004803603602081101561043c57600080fd5b503573ffffffffffffffffffffffffffffffffffffffff16611475565b61022d6004803603602081101561046f57600080fd5b5035611543565b61022d6004803603602081101561048c57600080fd5b503561155a565b6101db600480360360408110156104a957600080fd5b508035906020013573ffffffffffffffffffffffffffffffffffffffff1661156d565b61022d6115e0565b61022d611604565b61035e600480360360208110156104f257600080fd5b5035611628565b61022d6004803603602081101561050f57600080fd5b5035611651565b600054610100900460ff168061052f575061052f611664565b8061053d575060005460ff16155b610592576040517f08c379a000000000000000000000000000000000000000000000000000000000815260040180806020018281038252602e815260200180611f0b602e913960400191505060405180910390fd5b600054610100900460ff161580156105db57600080547fffffffffffffffffffffffffffffffffffffffffffffffffffffffffffffff0061ff0019909116610100171660011790555b73ffffffffffffffffffffffffffffffffffffffff821661065d57604080517f08c379a000000000000000000000000000000000000000000000000000000000815260206004820181905260248201527f4f776e65722063616e6e6f7420626520746865207a65726f2061646472657373604482015290519081900360640190fd5b61066561166a565b61066d611742565b610675611843565b61069f7fb19546dff01e856fb3f010c267a7b1c60363cf8a4664e21cc89c26224620214e83610acf565b6106c97f65d7a28e3265b37a6474929f336521b332c1681b933f6cb9f3376673440d862a83610acf565b6107137f65d7a28e3265b37a6474929f336521b332c1681b933f6cb9f3376673440d862a7fb19546dff01e856fb3f010c267a7b1c60363cf8a4664e21cc89c26224620214e611947565b61073d7fb19546dff01e856fb3f010c267a7b1c60363cf8a4664e21cc89c26224620214e80611947565b801561074f576000805461ff00191690555b5050565b61075b611419565b6107b0576040517f08c379a000000000000000000000000000000000000000000000000000000000815260040180806020018281038252602b815260200180611f5d602b913960400191505060405180910390fd5b600060015b90507f44573a89df583c0b1e16e6c22d41b4e39de1ca341d0a234b7117ccc2bf727dc43373__$5dc192ccf50d193a71bb85947e32619c12$__631eb7045f846040518263ffffffff1660e01b81526004018082815260200191505060006040518083038186803b15801561082857600080fd5b505af415801561083c573d6000803e3d6000fd5b505050506040513d6000823e601f3d9081017fffffffffffffffffffffffffffffffffffffffffffffffffffffffffffffffe0168201604052602081101561088357600080fd5b81019080805160405193929190846401000000008211156108a357600080fd5b9083019060208201858111156108b857600080fd5b82516401000000008111828201881017156108d257600080fd5b82525081516020918201929091019080838360005b838110156108ff5781810151838201526020016108e7565b50505050905090810190601f16801561092c5780820380516001836020036101000a031916815260200191505b50604081815260008981526101c360209081528282205473ffffffffffffffffffffffffffffffffffffffff8a811686529081169385018490528c166060850152608081850181815289519186019190915288519397508c965093945060a0850192908801918190849084905b838110156109b1578181015183820152602001610999565b50505050905090810190601f1680156109de5780820380516001836020036101000a031916815260200191505b509550505050505060405180910390a160009081526101c36020526040902080547fffffffffffffffffffffffff00000000000000000000000000000000000000001673ffffffffffffffffffffffffffffffffffffffff92909216919091179055565b60009081526065602052604090206002015490565b600082815260656020526040902060020154610a7a90610a7561195c565b611098565b610acf576040517f08c379a000000000000000000000000000000000000000000000000000000000815260040180806020018281038252602f815260200180611e80602f913960400191505060405180910390fd5b61074f8282611960565b610ae161195c565b73ffffffffffffffffffffffffffffffffffffffff168173ffffffffffffffffffffffffffffffffffffffff1614610b64576040517f08c379a000000000000000000000000000000000000000000000000000000000815260040180806020018281038252602f815260200180611f88602f913960400191505060405180910390fd5b61074f82826119e3565b610b9a7f65d7a28e3265b37a6474929f336521b332c1681b933f6cb9f3376673440d862a610a7561195c565b610bef576040517f08c379a000000000000000000000000000000000000000000000000000000000815260040180806020018281038252602c815260200180611eaf602c913960400191505060405180910390fd5b610bf7611a66565b565b600054610100900460ff1680610c125750610c12611664565b80610c20575060005460ff16155b610c75576040517f08c379a000000000000000000000000000000000000000000000000000000000815260040180806020018281038252602e815260200180611f0b602e913960400191505060405180910390fd5b600054610100900460ff16158015610cbe57600080547fffffffffffffffffffffffffffffffffffffffffffffffffffffffffffffff0061ff0019909116610100171660011790555b610cc6611742565b8015610cd8576000805461ff00191690555b50565b610ce3611419565b610d38576040517f08c379a000000000000000000000000000000000000000000000000000000000815260040180806020018281038252602b815260200180611f5d602b913960400191505060405180910390fd5b600060066107b5565b60975460ff1690565b610d52611419565b610da7576040517f08c379a000000000000000000000000000000000000000000000000000000000815260040180806020018281038252602b815260200180611f5d602b913960400191505060405180910390fd5b7f485a2737f4b43eb26ea911f5a3e7b4716a78c477266598f4157109d5dd914d693373__$5dc192ccf50d193a71bb85947e32619c12$__636152a028856040518263ffffffff1660e01b81526004018082815260200191505060006040518083038186803b158015610e1857600080fd5b505af4158015610e2c573d6000803e3d6000fd5b505050506040513d6000823e601f3d9081017fffffffffffffffffffffffffffffffffffffffffffffffffffffffffffffffe01682016040526020811015610e7357600080fd5b8101908080516040519392919084640100000000821115610e9357600080fd5b908301906020820185811115610ea857600080fd5b8251640100000000811182820188101715610ec257600080fd5b82525081516020918201929091019080838360005b83811015610eef578181015183820152602001610ed7565b50505050905090810190601f168015610f1c5780820380516001836020036101000a031916815260200191505b506040525050506101c460008681526020019081526020016000205484604051808573ffffffffffffffffffffffffffffffffffffffff16815260200180602001848152602001838152602001828103825285818151815260200191508051906020019080838360005b83811015610f9e578181015183820152602001610f86565b50505050905090810190601f168015610fcb5780820380516001836020036101000a031916815260200191505b509550505050505060405180910390a160009182526101c4602052604090912055565b61101a7f65d7a28e3265b37a6474929f336521b332c1681b933f6cb9f3376673440d862a610a7561195c565b61106f576040517f08c379a000000000000000000000000000000000000000000000000000000000815260040180806020018281038252602c815260200180611eaf602c913960400191505060405180910390fd5b610bf7611b52565b600082815260656020526040812061108f9083611c18565b90505b92915050565b600082815260656020526040812061108f9083611c24565b600081565b6110bd611419565b611112576040517f08c379a000000000000000000000000000000000000000000000000000000000815260040180806020018281038252602b815260200180611f5d602b913960400191505060405180910390fd5b60008281526101c3602052604090205473ffffffffffffffffffffffffffffffffffffffff161561118e576040517f08c379a0000000000000000000000000000000000000000000000000000000008152600401808060200182810382526024815260200180611f396024913960400191505060405180910390fd5b7f44573a89df583c0b1e16e6c22d41b4e39de1ca341d0a234b7117ccc2bf727dc43373__$5dc192ccf50d193a71bb85947e32619c12$__631eb7045f856040518263ffffffff1660e01b81526004018082815260200191505060006040518083038186803b1580156111ff57600080fd5b505af4158015611213573d6000803e3d6000fd5b505050506040513d6000823e601f3d9081017fffffffffffffffffffffffffffffffffffffffffffffffffffffffffffffffe0168201604052602081101561125a57600080fd5b810190808051604051939291908464010000000082111561127a57600080fd5b90830190602082018581111561128f57600080fd5b82516401000000008111828201881017156112a957600080fd5b82525081516020918201929091019080838360005b838110156112d65781810151838201526020016112be565b50505050905090810190601f1680156113035780820380516001836020036101000a031916815260200191505b50604081815260008a81526101c360209081528282205473ffffffffffffffffffffffffffffffffffffffff8a811686529081169385018490528b166060850152608081850181815289519186019190915288519397508b965093945060a0850192908801918190849084905b83811015611388578181015183820152602001611370565b50505050905090810190601f1680156113b55780820380516001836020036101000a031916815260200191505b509550505050505060405180910390a160009182526101c3602052604090912080547fffffffffffffffffffffffff00000000000000000000000000000000000000001673ffffffffffffffffffffffffffffffffffffffff909216919091179055565b60006114477fb19546dff01e856fb3f010c267a7b1c60363cf8a4664e21cc89c26224620214e610a7561195c565b905090565b60009081526101c3602052604090205473ffffffffffffffffffffffffffffffffffffffff1690565b600054610100900460ff168061148e575061148e611664565b8061149c575060005460ff16155b6114f1576040517f08c379a000000000000000000000000000000000000000000000000000000000815260040180806020018281038252602e815260200180611f0b602e913960400191505060405180910390fd5b600054610100900460ff1615801561153a57600080547fffffffffffffffffffffffffffffffffffffffffffffffffffffffffffffff0061ff0019909116610100171660011790555b61073d82610516565b600081815260656020526040812061109290611c46565b6101c46020526000908152604090205481565b60008281526065602052604090206002015461158b90610a7561195c565b610b64576040517f08c379a0000000000000000000000000000000000000000000000000000000008152600401808060200182810382526030815260200180611edb6030913960400191505060405180910390fd5b7fb19546dff01e856fb3f010c267a7b1c60363cf8a4664e21cc89c26224620214e81565b7f65d7a28e3265b37a6474929f336521b332c1681b933f6cb9f3376673440d862a81565b6101c36020526000908152604090205473ffffffffffffffffffffffffffffffffffffffff1681565b60009081526101c4602052604090205490565b303b1590565b600054610100900460ff16806116835750611683611664565b80611691575060005460ff16155b6116e6576040517f08c379a000000000000000000000000000000000000000000000000000000000815260040180806020018281038252602e815260200180611f0b602e913960400191505060405180910390fd5b600054610100900460ff16158015610cc657600080547fffffffffffffffffffffffffffffffffffffffffffffffffffffffffffffff0061ff0019909116610100171660011790558015610cd8576000805461ff001916905550565b600054610100900460ff168061175b575061175b611664565b80611769575060005460ff16155b6117be576040517f08c379a000000000000000000000000000000000000000000000000000000000815260040180806020018281038252602e815260200180611f0b602e913960400191505060405180910390fd5b600054610100900460ff1615801561180757600080547fffffffffffffffffffffffffffffffffffffffffffffffffffffffffffffff0061ff0019909116610100171660011790555b609780547fffffffffffffffffffffffffffffffffffffffffffffffffffffffffffffff001690558015610cd8576000805461ff001916905550565b600054610100900460ff168061185c575061185c611664565b8061186a575060005460ff16155b6118bf576040517f08c379a000000000000000000000000000000000000000000000000000000000815260040180806020018281038252602e815260200180611f0b602e913960400191505060405180910390fd5b600054610100900460ff1615801561190857600080547fffffffffffffffffffffffffffffffffffffffffffffffffffffffffffffff0061ff0019909116610100171660011790555b60c980547fffffffffffffffffffffffffffffffffffffffffffffffffffffffffffffff001660011790558015610cd8576000805461ff001916905550565b60009182526065602052604090912060020155565b3390565b60008281526065602052604090206119789082611c51565b1561074f5761198561195c565b73ffffffffffffffffffffffffffffffffffffffff168173ffffffffffffffffffffffffffffffffffffffff16837f2f8788117e7eff1d82e926ec794901d17c78024a50270940304540a733656f0d60405160405180910390a45050565b60008281526065602052604090206119fb9082611c73565b1561074f57611a0861195c565b73ffffffffffffffffffffffffffffffffffffffff168173ffffffffffffffffffffffffffffffffffffffff16837ff6391f5c32d9c69d2a47ea670b442974b53935d1edc7fd64eb21e047a839171b60405160405180910390a45050565b60975460ff16611ad757604080517f08c379a000000000000000000000000000000000000000000000000000000000815260206004820152601460248201527f5061757361626c653a206e6f7420706175736564000000000000000000000000604482015290519081900360640190fd5b609780547fffffffffffffffffffffffffffffffffffffffffffffffffffffffffffffff001690557f5db9ee0a495bf2e6ff9c91a7834c1ba4fdd244a5e8aa4e537bd38aeae4b073aa611b2861195c565b6040805173ffffffffffffffffffffffffffffffffffffffff9092168252519081900360200190a1565b60975460ff1615611bc457604080517f08c379a000000000000000000000000000000000000000000000000000000000815260206004820152601060248201527f5061757361626c653a2070617573656400000000000000000000000000000000604482015290519081900360640190fd5b609780547fffffffffffffffffffffffffffffffffffffffffffffffffffffffffffffff001660011790557f62e78cea01bee320cd4e420270b5ea74000d11b0c9f74754ebdbfc544b05a258611b2861195c565b600061108f8383611c95565b600061108f8373ffffffffffffffffffffffffffffffffffffffff8416611d13565b600061109282611d2b565b600061108f8373ffffffffffffffffffffffffffffffffffffffff8416611d2f565b600061108f8373ffffffffffffffffffffffffffffffffffffffff8416611d79565b81546000908210611cf1576040517f08c379a0000000000000000000000000000000000000000000000000000000008152600401808060200182810382526022815260200180611e5e6022913960400191505060405180910390fd5b826000018281548110611d0057fe5b9060005260206000200154905092915050565b60009081526001919091016020526040902054151590565b5490565b6000611d3b8383611d13565b611d7157508154600181810184556000848152602080822090930184905584548482528286019093526040902091909155611092565b506000611092565b60008181526001830160205260408120548015611e535783547fffffffffffffffffffffffffffffffffffffffffffffffffffffffffffffffff8083019190810190600090879083908110611dca57fe5b9060005260206000200154905080876000018481548110611de757fe5b600091825260208083209091019290925582815260018981019092526040902090840190558654879080611e1757fe5b60019003818190600052602060002001600090559055866001016000878152602001908152602001600020600090556001945050505050611092565b600091505061109256fe456e756d657261626c655365743a20696e646578206f7574206f6620626f756e6473416363657373436f6e74726f6c3a2073656e646572206d75737420626520616e2061646d696e20746f206772616e744d75737420686176652070617573657220726f6c6520746f20706572666f726d207468697320616374696f6e416363657373436f6e74726f6c3a2073656e646572206d75737420626520616e2061646d696e20746f207265766f6b65436f6e747261637420696e7374616e63652068617320616c7265616479206265656e20696e697469616c697a6564416464726573732068617320616c7265616479206265656e20696e697469616c697a65644d75737420686176652061646d696e20726f6c6520746f20706572666f726d207468697320616374696f6e416363657373436f6e74726f6c3a2063616e206f6e6c792072656e6f756e636520726f6c657320666f722073656c66a2646970667358221220686b3c0950028ead4b29a303514691bbc237eec2b18b0c6f428cc4745e00acd564736f6c634300060c0033",
  "libraries": {
    "ConfigOptions": "0xd3aDd31AefaE704a368Cf9343a18A5D23Cc31fb7"
  },
  "devdoc": {
    "author": "Goldfinch",
    "kind": "dev",
    "methods": {
      "getRoleAdmin(bytes32)": {
        "details": "Returns the admin role that controls `role`. See {grantRole} and {revokeRole}. To change a role's admin, use {_setRoleAdmin}."
      },
      "getRoleMember(bytes32,uint256)": {
        "details": "Returns one of the accounts that have `role`. `index` must be a value between 0 and {getRoleMemberCount}, non-inclusive. Role bearers are not sorted in any particular way, and their ordering may change at any point. WARNING: When using {getRoleMember} and {getRoleMemberCount}, make sure you perform all queries on the same block. See the following https://forum.openzeppelin.com/t/iterating-over-elements-on-enumerableset-in-openzeppelin-contracts/2296[forum post] for more information."
      },
      "getRoleMemberCount(bytes32)": {
        "details": "Returns the number of accounts that have `role`. Can be used together with {getRoleMember} to enumerate all bearers of a role."
      },
      "grantRole(bytes32,address)": {
        "details": "Grants `role` to `account`. If `account` had not been already granted `role`, emits a {RoleGranted} event. Requirements: - the caller must have ``role``'s admin role."
      },
      "hasRole(bytes32,address)": {
        "details": "Returns `true` if `account` has been granted `role`."
      },
      "pause()": {
        "details": "Pauses all functions guarded by Pause See {Pausable-_pause}. Requirements: - the caller must have the PAUSER_ROLE."
      },
      "paused()": {
        "details": "Returns true if the contract is paused, and false otherwise."
      },
      "renounceRole(bytes32,address)": {
        "details": "Revokes `role` from the calling account. Roles are often managed via {grantRole} and {revokeRole}: this function's purpose is to provide a mechanism for accounts to lose their privileges if they are compromised (such as when a trusted device is misplaced). If the calling account had been granted `role`, emits a {RoleRevoked} event. Requirements: - the caller must be `account`."
      },
      "revokeRole(bytes32,address)": {
        "details": "Revokes `role` from `account`. If `account` had been granted `role`, emits a {RoleRevoked} event. Requirements: - the caller must have ``role``'s admin role."
      },
      "unpause()": {
        "details": "Unpauses the contract See {Pausable-_unpause}. Requirements: - the caller must have the Pauser role"
      }
    },
    "title": "GoldfinchConfig",
    "version": 1
  },
  "userdoc": {
    "kind": "user",
    "methods": {},
    "notice": "This contract stores mappings of useful \"protocol config state\", giving a central place  for all other contracts to access it. For example, the TransactionLimit, or the PoolAddress. These config vars  are enumerated in the `ConfigOptions` library, and can only be changed by admins of the protocol.",
    "version": 1
  },
  "storageLayout": {
    "storage": [
      {
        "astId": 151,
        "contract": "contracts/protocol/core/GoldfinchConfig.sol:GoldfinchConfig",
        "label": "initialized",
        "offset": 0,
        "slot": "0",
        "type": "t_bool"
      },
      {
        "astId": 154,
        "contract": "contracts/protocol/core/GoldfinchConfig.sol:GoldfinchConfig",
        "label": "initializing",
        "offset": 1,
        "slot": "0",
        "type": "t_bool"
      },
      {
        "astId": 219,
        "contract": "contracts/protocol/core/GoldfinchConfig.sol:GoldfinchConfig",
        "label": "______gap",
        "offset": 0,
        "slot": "1",
        "type": "t_array(t_uint256)50_storage"
      },
      {
        "astId": 144,
        "contract": "contracts/protocol/core/GoldfinchConfig.sol:GoldfinchConfig",
        "label": "__gap",
        "offset": 0,
        "slot": "51",
        "type": "t_array(t_uint256)50_storage"
      },
      {
        "astId": 264,
        "contract": "contracts/protocol/core/GoldfinchConfig.sol:GoldfinchConfig",
        "label": "_roles",
        "offset": 0,
        "slot": "101",
        "type": "t_mapping(t_bytes32,t_struct(RoleData)260_storage)"
      },
      {
        "astId": 509,
        "contract": "contracts/protocol/core/GoldfinchConfig.sol:GoldfinchConfig",
        "label": "__gap",
        "offset": 0,
        "slot": "102",
        "type": "t_array(t_uint256)49_storage"
      },
      {
        "astId": 2385,
        "contract": "contracts/protocol/core/GoldfinchConfig.sol:GoldfinchConfig",
        "label": "_paused",
        "offset": 0,
        "slot": "151",
        "type": "t_bool"
      },
      {
        "astId": 2474,
        "contract": "contracts/protocol/core/GoldfinchConfig.sol:GoldfinchConfig",
        "label": "__gap",
        "offset": 0,
        "slot": "152",
        "type": "t_array(t_uint256)49_storage"
      },
      {
        "astId": 2483,
        "contract": "contracts/protocol/core/GoldfinchConfig.sol:GoldfinchConfig",
        "label": "_notEntered",
        "offset": 0,
        "slot": "201",
        "type": "t_bool"
      },
      {
        "astId": 2524,
        "contract": "contracts/protocol/core/GoldfinchConfig.sol:GoldfinchConfig",
        "label": "__gap",
        "offset": 0,
        "slot": "202",
        "type": "t_array(t_uint256)49_storage"
      },
      {
        "astId": 4742,
        "contract": "contracts/protocol/core/GoldfinchConfig.sol:GoldfinchConfig",
        "label": "__gap1",
        "offset": 0,
        "slot": "251",
        "type": "t_array(t_uint256)50_storage"
      },
      {
        "astId": 4746,
        "contract": "contracts/protocol/core/GoldfinchConfig.sol:GoldfinchConfig",
        "label": "__gap2",
        "offset": 0,
        "slot": "301",
        "type": "t_array(t_uint256)50_storage"
      },
      {
        "astId": 4750,
        "contract": "contracts/protocol/core/GoldfinchConfig.sol:GoldfinchConfig",
        "label": "__gap3",
        "offset": 0,
        "slot": "351",
        "type": "t_array(t_uint256)50_storage"
      },
      {
        "astId": 4754,
        "contract": "contracts/protocol/core/GoldfinchConfig.sol:GoldfinchConfig",
        "label": "__gap4",
        "offset": 0,
        "slot": "401",
        "type": "t_array(t_uint256)50_storage"
      },
      {
        "astId": 7841,
        "contract": "contracts/protocol/core/GoldfinchConfig.sol:GoldfinchConfig",
        "label": "addresses",
        "offset": 0,
        "slot": "451",
        "type": "t_mapping(t_uint256,t_address)"
      },
      {
        "astId": 7845,
        "contract": "contracts/protocol/core/GoldfinchConfig.sol:GoldfinchConfig",
        "label": "numbers",
        "offset": 0,
        "slot": "452",
        "type": "t_mapping(t_uint256,t_uint256)"
      }
    ],
    "types": {
      "t_address": {
        "encoding": "inplace",
        "label": "address",
        "numberOfBytes": "20"
      },
      "t_array(t_bytes32)dyn_storage": {
        "base": "t_bytes32",
        "encoding": "dynamic_array",
        "label": "bytes32[]",
        "numberOfBytes": "32"
      },
      "t_array(t_uint256)49_storage": {
        "base": "t_uint256",
        "encoding": "inplace",
        "label": "uint256[49]",
        "numberOfBytes": "1568"
      },
      "t_array(t_uint256)50_storage": {
        "base": "t_uint256",
        "encoding": "inplace",
        "label": "uint256[50]",
        "numberOfBytes": "1600"
      },
      "t_bool": {
        "encoding": "inplace",
        "label": "bool",
        "numberOfBytes": "1"
      },
      "t_bytes32": {
        "encoding": "inplace",
        "label": "bytes32",
        "numberOfBytes": "32"
      },
      "t_mapping(t_bytes32,t_struct(RoleData)260_storage)": {
        "encoding": "mapping",
        "key": "t_bytes32",
        "label": "mapping(bytes32 => struct AccessControlUpgradeSafe.RoleData)",
        "numberOfBytes": "32",
        "value": "t_struct(RoleData)260_storage"
      },
      "t_mapping(t_bytes32,t_uint256)": {
        "encoding": "mapping",
        "key": "t_bytes32",
        "label": "mapping(bytes32 => uint256)",
        "numberOfBytes": "32",
        "value": "t_uint256"
      },
      "t_mapping(t_uint256,t_address)": {
        "encoding": "mapping",
        "key": "t_uint256",
        "label": "mapping(uint256 => address)",
        "numberOfBytes": "32",
        "value": "t_address"
      },
      "t_mapping(t_uint256,t_uint256)": {
        "encoding": "mapping",
        "key": "t_uint256",
        "label": "mapping(uint256 => uint256)",
        "numberOfBytes": "32",
        "value": "t_uint256"
      },
      "t_struct(AddressSet)2160_storage": {
        "encoding": "inplace",
        "label": "struct EnumerableSet.AddressSet",
        "members": [
          {
            "astId": 2159,
            "contract": "contracts/protocol/core/GoldfinchConfig.sol:GoldfinchConfig",
            "label": "_inner",
            "offset": 0,
            "slot": "0",
            "type": "t_struct(Set)1980_storage"
          }
        ],
        "numberOfBytes": "64"
      },
      "t_struct(RoleData)260_storage": {
        "encoding": "inplace",
        "label": "struct AccessControlUpgradeSafe.RoleData",
        "members": [
          {
            "astId": 257,
            "contract": "contracts/protocol/core/GoldfinchConfig.sol:GoldfinchConfig",
            "label": "members",
            "offset": 0,
            "slot": "0",
            "type": "t_struct(AddressSet)2160_storage"
          },
          {
            "astId": 259,
            "contract": "contracts/protocol/core/GoldfinchConfig.sol:GoldfinchConfig",
            "label": "adminRole",
            "offset": 0,
            "slot": "2",
            "type": "t_bytes32"
          }
        ],
        "numberOfBytes": "96"
      },
      "t_struct(Set)1980_storage": {
        "encoding": "inplace",
        "label": "struct EnumerableSet.Set",
        "members": [
          {
            "astId": 1975,
            "contract": "contracts/protocol/core/GoldfinchConfig.sol:GoldfinchConfig",
            "label": "_values",
            "offset": 0,
            "slot": "0",
            "type": "t_array(t_bytes32)dyn_storage"
          },
          {
            "astId": 1979,
            "contract": "contracts/protocol/core/GoldfinchConfig.sol:GoldfinchConfig",
            "label": "_indexes",
            "offset": 0,
            "slot": "1",
            "type": "t_mapping(t_bytes32,t_uint256)"
          }
        ],
        "numberOfBytes": "64"
      },
      "t_uint256": {
        "encoding": "inplace",
        "label": "uint256",
        "numberOfBytes": "32"
      }
    }
  }
}