{
  "address": "0x5124478C75DD9ae938014D59E765F2C8E1017dA8",
  "abi": [
    {
      "anonymous": false,
      "inputs": [
        {
          "indexed": false,
          "internalType": "address",
          "name": "owner",
          "type": "address"
        },
        {
          "indexed": false,
          "internalType": "uint256",
          "name": "index",
          "type": "uint256"
        },
        {
          "indexed": false,
          "internalType": "address",
          "name": "oldValue",
          "type": "address"
        },
        {
          "indexed": false,
          "internalType": "address",
          "name": "newValue",
          "type": "address"
        }
      ],
      "name": "AddressUpdated",
      "type": "event"
    },
    {
      "anonymous": false,
      "inputs": [
        {
          "indexed": false,
          "internalType": "address",
          "name": "owner",
          "type": "address"
        },
        {
          "indexed": false,
          "internalType": "uint256",
          "name": "index",
          "type": "uint256"
        },
        {
          "indexed": false,
          "internalType": "uint256",
          "name": "oldValue",
          "type": "uint256"
        },
        {
          "indexed": false,
          "internalType": "uint256",
          "name": "newValue",
          "type": "uint256"
        }
      ],
      "name": "NumberUpdated",
      "type": "event"
    },
    {
      "anonymous": false,
      "inputs": [
        {
          "indexed": false,
          "internalType": "address",
          "name": "account",
          "type": "address"
        }
      ],
      "name": "Paused",
      "type": "event"
    },
    {
      "anonymous": false,
      "inputs": [
        {
          "indexed": true,
          "internalType": "bytes32",
          "name": "role",
          "type": "bytes32"
        },
        {
          "indexed": true,
          "internalType": "address",
          "name": "account",
          "type": "address"
        },
        {
          "indexed": true,
          "internalType": "address",
          "name": "sender",
          "type": "address"
        }
      ],
      "name": "RoleGranted",
      "type": "event"
    },
    {
      "anonymous": false,
      "inputs": [
        {
          "indexed": true,
          "internalType": "bytes32",
          "name": "role",
          "type": "bytes32"
        },
        {
          "indexed": true,
          "internalType": "address",
          "name": "account",
          "type": "address"
        },
        {
          "indexed": true,
          "internalType": "address",
          "name": "sender",
          "type": "address"
        }
      ],
      "name": "RoleRevoked",
      "type": "event"
    },
    {
      "anonymous": false,
      "inputs": [
        {
          "indexed": false,
          "internalType": "address",
          "name": "account",
          "type": "address"
        }
      ],
      "name": "Unpaused",
      "type": "event"
    },
    {
      "inputs": [],
      "name": "DEFAULT_ADMIN_ROLE",
      "outputs": [
        {
          "internalType": "bytes32",
          "name": "",
          "type": "bytes32"
        }
      ],
      "stateMutability": "view",
      "type": "function"
    },
    {
      "inputs": [],
      "name": "OWNER_ROLE",
      "outputs": [
        {
          "internalType": "bytes32",
          "name": "",
          "type": "bytes32"
        }
      ],
      "stateMutability": "view",
      "type": "function"
    },
    {
      "inputs": [],
      "name": "PAUSER_ROLE",
      "outputs": [
        {
          "internalType": "bytes32",
          "name": "",
          "type": "bytes32"
        }
      ],
      "stateMutability": "view",
      "type": "function"
    },
    {
      "inputs": [
        {
          "internalType": "address",
          "name": "owner",
          "type": "address"
        }
      ],
      "name": "__BaseUpgradeablePausable__init",
      "outputs": [],
      "stateMutability": "nonpayable",
      "type": "function"
    },
    {
      "inputs": [],
      "name": "__PauserPausable__init",
      "outputs": [],
      "stateMutability": "nonpayable",
      "type": "function"
    },
    {
      "inputs": [
        {
          "internalType": "uint256",
          "name": "",
          "type": "uint256"
        }
      ],
      "name": "addresses",
      "outputs": [
        {
          "internalType": "address",
          "name": "",
          "type": "address"
        }
      ],
      "stateMutability": "view",
      "type": "function"
    },
    {
      "inputs": [
        {
          "internalType": "uint256",
          "name": "addressKey",
          "type": "uint256"
        }
      ],
      "name": "getAddress",
      "outputs": [
        {
          "internalType": "address",
          "name": "",
          "type": "address"
        }
      ],
      "stateMutability": "view",
      "type": "function"
    },
    {
      "inputs": [
        {
          "internalType": "uint256",
          "name": "number",
          "type": "uint256"
        }
      ],
      "name": "getNumber",
      "outputs": [
        {
          "internalType": "uint256",
          "name": "",
          "type": "uint256"
        }
      ],
      "stateMutability": "view",
      "type": "function"
    },
    {
      "inputs": [
        {
          "internalType": "bytes32",
          "name": "role",
          "type": "bytes32"
        }
      ],
      "name": "getRoleAdmin",
      "outputs": [
        {
          "internalType": "bytes32",
          "name": "",
          "type": "bytes32"
        }
      ],
      "stateMutability": "view",
      "type": "function"
    },
    {
      "inputs": [
        {
          "internalType": "bytes32",
          "name": "role",
          "type": "bytes32"
        },
        {
          "internalType": "uint256",
          "name": "index",
          "type": "uint256"
        }
      ],
      "name": "getRoleMember",
      "outputs": [
        {
          "internalType": "address",
          "name": "",
          "type": "address"
        }
      ],
      "stateMutability": "view",
      "type": "function"
    },
    {
      "inputs": [
        {
          "internalType": "bytes32",
          "name": "role",
          "type": "bytes32"
        }
      ],
      "name": "getRoleMemberCount",
      "outputs": [
        {
          "internalType": "uint256",
          "name": "",
          "type": "uint256"
        }
      ],
      "stateMutability": "view",
      "type": "function"
    },
    {
      "inputs": [
        {
          "internalType": "bytes32",
          "name": "role",
          "type": "bytes32"
        },
        {
          "internalType": "address",
          "name": "account",
          "type": "address"
        }
      ],
      "name": "grantRole",
      "outputs": [],
      "stateMutability": "nonpayable",
      "type": "function"
    },
    {
      "inputs": [
        {
          "internalType": "bytes32",
          "name": "role",
          "type": "bytes32"
        },
        {
          "internalType": "address",
          "name": "account",
          "type": "address"
        }
      ],
      "name": "hasRole",
      "outputs": [
        {
          "internalType": "bool",
          "name": "",
          "type": "bool"
        }
      ],
      "stateMutability": "view",
      "type": "function"
    },
    {
      "inputs": [
        {
          "internalType": "address",
          "name": "owner",
          "type": "address"
        }
      ],
      "name": "initialize",
      "outputs": [],
      "stateMutability": "nonpayable",
      "type": "function"
    },
    {
      "inputs": [],
      "name": "isAdmin",
      "outputs": [
        {
          "internalType": "bool",
          "name": "",
          "type": "bool"
        }
      ],
      "stateMutability": "view",
      "type": "function"
    },
    {
      "inputs": [
        {
          "internalType": "uint256",
          "name": "",
          "type": "uint256"
        }
      ],
      "name": "numbers",
      "outputs": [
        {
          "internalType": "uint256",
          "name": "",
          "type": "uint256"
        }
      ],
      "stateMutability": "view",
      "type": "function"
    },
    {
      "inputs": [],
      "name": "pause",
      "outputs": [],
      "stateMutability": "nonpayable",
      "type": "function"
    },
    {
      "inputs": [],
      "name": "paused",
      "outputs": [
        {
          "internalType": "bool",
          "name": "",
          "type": "bool"
        }
      ],
      "stateMutability": "view",
      "type": "function"
    },
    {
      "inputs": [
        {
          "internalType": "bytes32",
          "name": "role",
          "type": "bytes32"
        },
        {
          "internalType": "address",
          "name": "account",
          "type": "address"
        }
      ],
      "name": "renounceRole",
      "outputs": [],
      "stateMutability": "nonpayable",
      "type": "function"
    },
    {
      "inputs": [
        {
          "internalType": "bytes32",
          "name": "role",
          "type": "bytes32"
        },
        {
          "internalType": "address",
          "name": "account",
          "type": "address"
        }
      ],
      "name": "revokeRole",
      "outputs": [],
      "stateMutability": "nonpayable",
      "type": "function"
    },
    {
      "inputs": [
        {
          "internalType": "uint256",
          "name": "addressIndex",
          "type": "uint256"
        },
        {
          "internalType": "address",
          "name": "newAddress",
          "type": "address"
        }
      ],
      "name": "setAddress",
      "outputs": [],
      "stateMutability": "nonpayable",
      "type": "function"
    },
    {
      "inputs": [
        {
          "internalType": "uint256",
          "name": "index",
          "type": "uint256"
        },
        {
          "internalType": "uint256",
          "name": "newNumber",
          "type": "uint256"
        }
      ],
      "name": "setNumber",
      "outputs": [],
      "stateMutability": "nonpayable",
      "type": "function"
    },
    {
      "inputs": [
        {
          "internalType": "address",
          "name": "newTreasuryReserve",
          "type": "address"
        }
      ],
      "name": "setTreasuryReserve",
      "outputs": [],
      "stateMutability": "nonpayable",
      "type": "function"
    },
    {
      "inputs": [],
      "name": "unpause",
      "outputs": [],
      "stateMutability": "nonpayable",
      "type": "function"
    }
  ],
  "transactionHash": "0xe28264b570e0ac90ab7a8b179e70ea2afee30ff18e544629af3454fb7818bf16",
  "args": [],
  "solcInputHash": "e2e6a7937b09ef08f199f5a8536ea2f5",
  "bytecode": "0x608060405234801561001057600080fd5b5061145f806100206000396000f3fe608060405234801561001057600080fd5b50600436106101585760003560e01c8063a217fddf116100c3578063d39fa2331161007c578063d39fa23314610390578063d547741f146103ad578063e58378bb146103d9578063e63ab1e9146103e1578063edf26d9b146103e9578063fc5636581461040657610158565b8063a217fddf146102f4578063ac4ce2c6146102fc578063b6db75a014610328578063b93f9b0a14610330578063c4d66de81461034d578063ca15c8731461037357610158565b806357337adb1161011557806357337adb1461021c5780635c975abb146102425780636b19e8c71461025e5780638456cb59146102815780639010d07c1461028957806391d14854146102c857610158565b8063097616a31461015d578063248a9ca3146101855780632f2ff15d146101b457806336568abe146101e05780633f4ba83a1461020c578063526d81f614610214575b600080fd5b6101836004803603602081101561017357600080fd5b50356001600160a01b0316610423565b005b6101a26004803603602081101561019b57600080fd5b50356105a7565b60408051918252519081900360200190f35b610183600480360360408110156101ca57600080fd5b50803590602001356001600160a01b03166105bc565b610183600480360360408110156101f657600080fd5b50803590602001356001600160a01b0316610624565b610183610685565b6101836106e4565b6101836004803603602081101561023257600080fd5b50356001600160a01b031661078e565b61024a610880565b604080519115158252519081900360200190f35b6101836004803603604081101561027457600080fd5b5080359060200135610889565b610183610935565b6102ac6004803603604081101561029f57600080fd5b5080359060200135610992565b604080516001600160a01b039092168252519081900360200190f35b61024a600480360360408110156102de57600080fd5b50803590602001356001600160a01b03166109b3565b6101a26109cb565b6101836004803603604081101561031257600080fd5b50803590602001356001600160a01b03166109d0565b61024a610af8565b6102ac6004803603602081101561034657600080fd5b5035610b19565b6101836004803603602081101561036357600080fd5b50356001600160a01b0316610b35565b6101a26004803603602081101561038957600080fd5b5035610bcb565b6101a2600480360360208110156103a657600080fd5b5035610be2565b610183600480360360408110156103c357600080fd5b50803590602001356001600160a01b0316610bf5565b6101a2610c4e565b6101a2610c60565b6102ac600480360360208110156103ff57600080fd5b5035610c72565b6101a26004803603602081101561041c57600080fd5b5035610c8e565b600054610100900460ff168061043c575061043c610ca1565b8061044a575060005460ff16155b6104855760405162461bcd60e51b815260040180806020018281038252602e81526020018061137e602e913960400191505060405180910390fd5b600054610100900460ff161580156104b0576000805460ff1961ff0019909116610100171660011790555b6001600160a01b03821661050b576040805162461bcd60e51b815260206004820181905260248201527f4f776e65722063616e6e6f7420626520746865207a65726f2061646472657373604482015290519081900360640190fd5b610513610ca7565b61051b610d47565b610523610df2565b61053b60008051602061130e8339815191528361061a565b61055360008051602061135e8339815191528361061a565b61057960008051602061135e83398151915260008051602061130e833981519152610ea0565b61059160008051602061130e83398151915280610ea0565b80156105a3576000805461ff00191690555b5050565b60009081526065602052604090206002015490565b6000828152606560205260409020600201546105df906105da610eb5565b6109b3565b61061a5760405162461bcd60e51b815260040180806020018281038252602f8152602001806112b3602f913960400191505060405180910390fd5b6105a38282610eb9565b61062c610eb5565b6001600160a01b0316816001600160a01b03161461067b5760405162461bcd60e51b815260040180806020018281038252602f8152602001806113fb602f913960400191505060405180910390fd5b6105a38282610f22565b61069f60008051602061135e8339815191526105da610eb5565b6106da5760405162461bcd60e51b815260040180806020018281038252602c8152602001806112e2602c913960400191505060405180910390fd5b6106e2610f8b565b565b600054610100900460ff16806106fd57506106fd610ca1565b8061070b575060005460ff16155b6107465760405162461bcd60e51b815260040180806020018281038252602e81526020018061137e602e913960400191505060405180910390fd5b600054610100900460ff16158015610771576000805460ff1961ff0019909116610100171660011790555b610779610d47565b801561078b576000805461ff00191690555b50565b610796610af8565b6107d15760405162461bcd60e51b815260040180806020018281038252602b8152602001806113d0602b913960400191505060405180910390fd5b600660008190526101c360209081527fea488571856c5b6c3092ee2cb12f4000f041e0920c3ee75ddfa3033a4b03ceb254604080513381529283018490526001600160a01b03918216838201529084166060830152517faebfad0d8db62d5b2e540f64d7c2be34ded04171b48ed6655286c392a879bf6c9181900360800190a160009081526101c36020526040902080546001600160a01b0319166001600160a01b0392909216919091179055565b60975460ff1690565b610891610af8565b6108cc5760405162461bcd60e51b815260040180806020018281038252602b8152602001806113d0602b913960400191505060405180910390fd5b60008281526101c46020908152604091829020548251338152918201859052818301526060810183905290517f6b54a1d7321bc1699c15f7f585030864b02ca971590f31de4acbb60eff0758c09181900360800190a160009182526101c4602052604090912055565b61094f60008051602061135e8339815191526105da610eb5565b61098a5760405162461bcd60e51b815260040180806020018281038252602c8152602001806112e2602c913960400191505060405180910390fd5b6106e2611029565b60008281526065602052604081206109aa90836110aa565b90505b92915050565b60008281526065602052604081206109aa90836110b6565b600081565b6109d8610af8565b610a135760405162461bcd60e51b815260040180806020018281038252602b8152602001806113d0602b913960400191505060405180910390fd5b60008281526101c360205260409020546001600160a01b031615610a685760405162461bcd60e51b81526004018080602001828103825260248152602001806113ac6024913960400191505060405180910390fd5b60008281526101c360209081526040918290205482513381529182018590526001600160a01b03908116828401528316606082015290517faebfad0d8db62d5b2e540f64d7c2be34ded04171b48ed6655286c392a879bf6c9181900360800190a160009182526101c3602052604090912080546001600160a01b0319166001600160a01b03909216919091179055565b6000610b1460008051602061130e8339815191526105da610eb5565b905090565b60009081526101c360205260409020546001600160a01b031690565b600054610100900460ff1680610b4e5750610b4e610ca1565b80610b5c575060005460ff16155b610b975760405162461bcd60e51b815260040180806020018281038252602e81526020018061137e602e913960400191505060405180910390fd5b600054610100900460ff16158015610bc2576000805460ff1961ff0019909116610100171660011790555b61059182610423565b60008181526065602052604081206109ad906110cb565b6101c46020526000908152604090205481565b600082815260656020526040902060020154610c13906105da610eb5565b61067b5760405162461bcd60e51b815260040180806020018281038252603081526020018061132e6030913960400191505060405180910390fd5b60008051602061130e83398151915281565b60008051602061135e83398151915281565b6101c3602052600090815260409020546001600160a01b031681565b60009081526101c4602052604090205490565b303b1590565b600054610100900460ff1680610cc05750610cc0610ca1565b80610cce575060005460ff16155b610d095760405162461bcd60e51b815260040180806020018281038252602e81526020018061137e602e913960400191505060405180910390fd5b600054610100900460ff16158015610779576000805460ff1961ff001990911661010017166001179055801561078b576000805461ff001916905550565b600054610100900460ff1680610d605750610d60610ca1565b80610d6e575060005460ff16155b610da95760405162461bcd60e51b815260040180806020018281038252602e81526020018061137e602e913960400191505060405180910390fd5b600054610100900460ff16158015610dd4576000805460ff1961ff0019909116610100171660011790555b6097805460ff19169055801561078b576000805461ff001916905550565b600054610100900460ff1680610e0b5750610e0b610ca1565b80610e19575060005460ff16155b610e545760405162461bcd60e51b815260040180806020018281038252602e81526020018061137e602e913960400191505060405180910390fd5b600054610100900460ff16158015610e7f576000805460ff1961ff0019909116610100171660011790555b60c9805460ff19166001179055801561078b576000805461ff001916905550565b60009182526065602052604090912060020155565b3390565b6000828152606560205260409020610ed190826110d6565b156105a357610ede610eb5565b6001600160a01b0316816001600160a01b0316837f2f8788117e7eff1d82e926ec794901d17c78024a50270940304540a733656f0d60405160405180910390a45050565b6000828152606560205260409020610f3a90826110eb565b156105a357610f47610eb5565b6001600160a01b0316816001600160a01b0316837ff6391f5c32d9c69d2a47ea670b442974b53935d1edc7fd64eb21e047a839171b60405160405180910390a45050565b60975460ff16610fd9576040805162461bcd60e51b815260206004820152601460248201527314185d5cd8589b194e881b9bdd081c185d5cd95960621b604482015290519081900360640190fd5b6097805460ff191690557f5db9ee0a495bf2e6ff9c91a7834c1ba4fdd244a5e8aa4e537bd38aeae4b073aa61100c610eb5565b604080516001600160a01b039092168252519081900360200190a1565b60975460ff1615611074576040805162461bcd60e51b815260206004820152601060248201526f14185d5cd8589b194e881c185d5cd95960821b604482015290519081900360640190fd5b6097805460ff191660011790557f62e78cea01bee320cd4e420270b5ea74000d11b0c9f74754ebdbfc544b05a25861100c610eb5565b60006109aa8383611100565b60006109aa836001600160a01b038416611164565b60006109ad8261117c565b60006109aa836001600160a01b038416611180565b60006109aa836001600160a01b0384166111ca565b815460009082106111425760405162461bcd60e51b81526004018080602001828103825260228152602001806112916022913960400191505060405180910390fd5b82600001828154811061115157fe5b9060005260206000200154905092915050565b60009081526001919091016020526040902054151590565b5490565b600061118c8383611164565b6111c2575081546001818101845560008481526020808220909301849055845484825282860190935260409020919091556109ad565b5060006109ad565b6000818152600183016020526040812054801561128657835460001980830191908101906000908790839081106111fd57fe5b906000526020600020015490508087600001848154811061121a57fe5b60009182526020808320909101929092558281526001898101909252604090209084019055865487908061124a57fe5b600190038181906000526020600020016000905590558660010160008781526020019081526020016000206000905560019450505050506109ad565b60009150506109ad56fe456e756d657261626c655365743a20696e646578206f7574206f6620626f756e6473416363657373436f6e74726f6c3a2073656e646572206d75737420626520616e2061646d696e20746f206772616e744d75737420686176652070617573657220726f6c6520746f20706572666f726d207468697320616374696f6eb19546dff01e856fb3f010c267a7b1c60363cf8a4664e21cc89c26224620214e416363657373436f6e74726f6c3a2073656e646572206d75737420626520616e2061646d696e20746f207265766f6b6565d7a28e3265b37a6474929f336521b332c1681b933f6cb9f3376673440d862a436f6e747261637420696e7374616e63652068617320616c7265616479206265656e20696e697469616c697a6564416464726573732068617320616c7265616479206265656e20696e697469616c697a65644d75737420686176652061646d696e20726f6c6520746f20706572666f726d207468697320616374696f6e416363657373436f6e74726f6c3a2063616e206f6e6c792072656e6f756e636520726f6c657320666f722073656c66a2646970667358221220e9758a9bd8015ae805aa43774022b296e76ca5c5f9fcdac594d3cd9f6780901464736f6c634300060c0033",
  "devdoc": {
    "author": "Goldfinch",
    "kind": "dev",
    "methods": {
      "getRoleAdmin(bytes32)": {
        "details": "Returns the admin role that controls `role`. See {grantRole} and {revokeRole}. To change a role's admin, use {_setRoleAdmin}."
      },
      "getRoleMember(bytes32,uint256)": {
        "details": "Returns one of the accounts that have `role`. `index` must be a value between 0 and {getRoleMemberCount}, non-inclusive. Role bearers are not sorted in any particular way, and their ordering may change at any point. WARNING: When using {getRoleMember} and {getRoleMemberCount}, make sure you perform all queries on the same block. See the following https://forum.openzeppelin.com/t/iterating-over-elements-on-enumerableset-in-openzeppelin-contracts/2296[forum post] for more information."
      },
      "getRoleMemberCount(bytes32)": {
        "details": "Returns the number of accounts that have `role`. Can be used together with {getRoleMember} to enumerate all bearers of a role."
      },
      "grantRole(bytes32,address)": {
        "details": "Grants `role` to `account`. If `account` had not been already granted `role`, emits a {RoleGranted} event. Requirements: - the caller must have ``role``'s admin role."
      },
      "hasRole(bytes32,address)": {
        "details": "Returns `true` if `account` has been granted `role`."
      },
      "pause()": {
        "details": "Pauses all functions guarded by Pause See {Pausable-_pause}. Requirements: - the caller must have the PAUSER_ROLE."
      },
      "paused()": {
        "details": "Returns true if the contract is paused, and false otherwise."
      },
      "renounceRole(bytes32,address)": {
        "details": "Revokes `role` from the calling account. Roles are often managed via {grantRole} and {revokeRole}: this function's purpose is to provide a mechanism for accounts to lose their privileges if they are compromised (such as when a trusted device is misplaced). If the calling account had been granted `role`, emits a {RoleRevoked} event. Requirements: - the caller must be `account`."
      },
      "revokeRole(bytes32,address)": {
        "details": "Revokes `role` from `account`. If `account` had been granted `role`, emits a {RoleRevoked} event. Requirements: - the caller must have ``role``'s admin role."
      },
      "unpause()": {
        "details": "Unpauses the contract See {Pausable-_unpause}. Requirements: - the caller must have the Pauser role"
      }
    },
    "title": "GoldfinchConfig",
    "version": 1
  },
  "userdoc": {
    "kind": "user",
    "methods": {},
    "notice": "This contract stores mappings of useful \"protocol config state\", giving a central place  for all other contracts to access it. For example, the TransactionLimit, or the PoolAddress. These config vars  are enumerated in the `ConfigOptions` library, and can only be changed by admins of the protocol.",
    "version": 1
  },
  "storageLayout": {
    "storage": [
      {
        "astId": 151,
        "contract": "contracts/protocol/core/GoldfinchConfig.sol:GoldfinchConfig",
        "label": "initialized",
        "offset": 0,
        "slot": "0",
        "type": "t_bool"
      },
      {
        "astId": 154,
        "contract": "contracts/protocol/core/GoldfinchConfig.sol:GoldfinchConfig",
        "label": "initializing",
        "offset": 1,
        "slot": "0",
        "type": "t_bool"
      },
      {
        "astId": 219,
        "contract": "contracts/protocol/core/GoldfinchConfig.sol:GoldfinchConfig",
        "label": "______gap",
        "offset": 0,
        "slot": "1",
        "type": "t_array(t_uint256)50_storage"
      },
      {
        "astId": 144,
        "contract": "contracts/protocol/core/GoldfinchConfig.sol:GoldfinchConfig",
        "label": "__gap",
        "offset": 0,
        "slot": "51",
        "type": "t_array(t_uint256)50_storage"
      },
      {
        "astId": 264,
        "contract": "contracts/protocol/core/GoldfinchConfig.sol:GoldfinchConfig",
        "label": "_roles",
        "offset": 0,
        "slot": "101",
        "type": "t_mapping(t_bytes32,t_struct(RoleData)260_storage)"
      },
      {
        "astId": 509,
        "contract": "contracts/protocol/core/GoldfinchConfig.sol:GoldfinchConfig",
        "label": "__gap",
        "offset": 0,
        "slot": "102",
        "type": "t_array(t_uint256)49_storage"
      },
      {
        "astId": 2385,
        "contract": "contracts/protocol/core/GoldfinchConfig.sol:GoldfinchConfig",
        "label": "_paused",
        "offset": 0,
        "slot": "151",
        "type": "t_bool"
      },
      {
        "astId": 2474,
        "contract": "contracts/protocol/core/GoldfinchConfig.sol:GoldfinchConfig",
        "label": "__gap",
        "offset": 0,
        "slot": "152",
        "type": "t_array(t_uint256)49_storage"
      },
      {
        "astId": 2483,
        "contract": "contracts/protocol/core/GoldfinchConfig.sol:GoldfinchConfig",
        "label": "_notEntered",
        "offset": 0,
        "slot": "201",
        "type": "t_bool"
      },
      {
        "astId": 2524,
        "contract": "contracts/protocol/core/GoldfinchConfig.sol:GoldfinchConfig",
        "label": "__gap",
        "offset": 0,
        "slot": "202",
        "type": "t_array(t_uint256)49_storage"
      },
      {
        "astId": 4836,
        "contract": "contracts/protocol/core/GoldfinchConfig.sol:GoldfinchConfig",
        "label": "__gap1",
        "offset": 0,
        "slot": "251",
        "type": "t_array(t_uint256)50_storage"
      },
      {
        "astId": 4840,
        "contract": "contracts/protocol/core/GoldfinchConfig.sol:GoldfinchConfig",
        "label": "__gap2",
        "offset": 0,
        "slot": "301",
        "type": "t_array(t_uint256)50_storage"
      },
      {
        "astId": 4844,
        "contract": "contracts/protocol/core/GoldfinchConfig.sol:GoldfinchConfig",
        "label": "__gap3",
        "offset": 0,
        "slot": "351",
        "type": "t_array(t_uint256)50_storage"
      },
      {
        "astId": 4848,
        "contract": "contracts/protocol/core/GoldfinchConfig.sol:GoldfinchConfig",
        "label": "__gap4",
        "offset": 0,
        "slot": "401",
        "type": "t_array(t_uint256)50_storage"
      },
      {
        "astId": 8024,
        "contract": "contracts/protocol/core/GoldfinchConfig.sol:GoldfinchConfig",
        "label": "addresses",
        "offset": 0,
        "slot": "451",
        "type": "t_mapping(t_uint256,t_address)"
      },
      {
        "astId": 8028,
        "contract": "contracts/protocol/core/GoldfinchConfig.sol:GoldfinchConfig",
        "label": "numbers",
        "offset": 0,
        "slot": "452",
        "type": "t_mapping(t_uint256,t_uint256)"
      }
    ],
    "types": {
      "t_address": {
        "encoding": "inplace",
        "label": "address",
        "numberOfBytes": "20"
      },
      "t_array(t_bytes32)dyn_storage": {
        "base": "t_bytes32",
        "encoding": "dynamic_array",
        "label": "bytes32[]",
        "numberOfBytes": "32"
      },
      "t_array(t_uint256)49_storage": {
        "base": "t_uint256",
        "encoding": "inplace",
        "label": "uint256[49]",
        "numberOfBytes": "1568"
      },
      "t_array(t_uint256)50_storage": {
        "base": "t_uint256",
        "encoding": "inplace",
        "label": "uint256[50]",
        "numberOfBytes": "1600"
      },
      "t_bool": {
        "encoding": "inplace",
        "label": "bool",
        "numberOfBytes": "1"
      },
      "t_bytes32": {
        "encoding": "inplace",
        "label": "bytes32",
        "numberOfBytes": "32"
      },
      "t_mapping(t_bytes32,t_struct(RoleData)260_storage)": {
        "encoding": "mapping",
        "key": "t_bytes32",
        "label": "mapping(bytes32 => struct AccessControlUpgradeSafe.RoleData)",
        "numberOfBytes": "32",
        "value": "t_struct(RoleData)260_storage"
      },
      "t_mapping(t_bytes32,t_uint256)": {
        "encoding": "mapping",
        "key": "t_bytes32",
        "label": "mapping(bytes32 => uint256)",
        "numberOfBytes": "32",
        "value": "t_uint256"
      },
      "t_mapping(t_uint256,t_address)": {
        "encoding": "mapping",
        "key": "t_uint256",
        "label": "mapping(uint256 => address)",
        "numberOfBytes": "32",
        "value": "t_address"
      },
      "t_mapping(t_uint256,t_uint256)": {
        "encoding": "mapping",
        "key": "t_uint256",
        "label": "mapping(uint256 => uint256)",
        "numberOfBytes": "32",
        "value": "t_uint256"
      },
      "t_struct(AddressSet)2160_storage": {
        "encoding": "inplace",
        "label": "struct EnumerableSet.AddressSet",
        "members": [
          {
            "astId": 2159,
            "contract": "contracts/protocol/core/GoldfinchConfig.sol:GoldfinchConfig",
            "label": "_inner",
            "offset": 0,
            "slot": "0",
            "type": "t_struct(Set)1980_storage"
          }
        ],
        "numberOfBytes": "64"
      },
      "t_struct(RoleData)260_storage": {
        "encoding": "inplace",
        "label": "struct AccessControlUpgradeSafe.RoleData",
        "members": [
          {
            "astId": 257,
            "contract": "contracts/protocol/core/GoldfinchConfig.sol:GoldfinchConfig",
            "label": "members",
            "offset": 0,
            "slot": "0",
            "type": "t_struct(AddressSet)2160_storage"
          },
          {
            "astId": 259,
            "contract": "contracts/protocol/core/GoldfinchConfig.sol:GoldfinchConfig",
            "label": "adminRole",
            "offset": 0,
            "slot": "2",
            "type": "t_bytes32"
          }
        ],
        "numberOfBytes": "96"
      },
      "t_struct(Set)1980_storage": {
        "encoding": "inplace",
        "label": "struct EnumerableSet.Set",
        "members": [
          {
            "astId": 1975,
            "contract": "contracts/protocol/core/GoldfinchConfig.sol:GoldfinchConfig",
            "label": "_values",
            "offset": 0,
            "slot": "0",
            "type": "t_array(t_bytes32)dyn_storage"
          },
          {
            "astId": 1979,
            "contract": "contracts/protocol/core/GoldfinchConfig.sol:GoldfinchConfig",
            "label": "_indexes",
            "offset": 0,
            "slot": "1",
            "type": "t_mapping(t_bytes32,t_uint256)"
          }
        ],
        "numberOfBytes": "64"
      },
      "t_uint256": {
        "encoding": "inplace",
        "label": "uint256",
        "numberOfBytes": "32"
      }
    }
  }
}