{
  "address": "0xf84461c378132aC89eBCdb8896340BC36d3b2E1e",
  "abi": [
    {
      "anonymous": false,
      "inputs": [
        {
          "indexed": false,
          "internalType": "address",
          "name": "owner",
          "type": "address"
        },
        {
          "indexed": false,
          "internalType": "string",
          "name": "name",
          "type": "string"
        },
        {
          "indexed": false,
          "internalType": "address",
          "name": "oldValue",
          "type": "address"
        },
        {
          "indexed": false,
          "internalType": "address",
          "name": "newValue",
          "type": "address"
        }
      ],
      "name": "AddressUpdated",
      "type": "event"
    },
    {
      "anonymous": false,
      "inputs": [
        {
          "indexed": false,
          "internalType": "address",
          "name": "owner",
          "type": "address"
        },
        {
          "indexed": false,
          "internalType": "string",
          "name": "name",
          "type": "string"
        },
        {
          "indexed": false,
          "internalType": "uint256",
          "name": "oldValue",
          "type": "uint256"
        },
        {
          "indexed": false,
          "internalType": "uint256",
          "name": "newValue",
          "type": "uint256"
        }
      ],
      "name": "NumberUpdated",
      "type": "event"
    },
    {
      "anonymous": false,
      "inputs": [
        {
          "indexed": false,
          "internalType": "address",
          "name": "account",
          "type": "address"
        }
      ],
      "name": "Paused",
      "type": "event"
    },
    {
      "anonymous": false,
      "inputs": [
        {
          "indexed": true,
          "internalType": "bytes32",
          "name": "role",
          "type": "bytes32"
        },
        {
          "indexed": true,
          "internalType": "address",
          "name": "account",
          "type": "address"
        },
        {
          "indexed": true,
          "internalType": "address",
          "name": "sender",
          "type": "address"
        }
      ],
      "name": "RoleGranted",
      "type": "event"
    },
    {
      "anonymous": false,
      "inputs": [
        {
          "indexed": true,
          "internalType": "bytes32",
          "name": "role",
          "type": "bytes32"
        },
        {
          "indexed": true,
          "internalType": "address",
          "name": "account",
          "type": "address"
        },
        {
          "indexed": true,
          "internalType": "address",
          "name": "sender",
          "type": "address"
        }
      ],
      "name": "RoleRevoked",
      "type": "event"
    },
    {
      "anonymous": false,
      "inputs": [
        {
          "indexed": false,
          "internalType": "address",
          "name": "account",
          "type": "address"
        }
      ],
      "name": "Unpaused",
      "type": "event"
    },
    {
      "inputs": [],
      "name": "DEFAULT_ADMIN_ROLE",
      "outputs": [
        {
          "internalType": "bytes32",
          "name": "",
          "type": "bytes32"
        }
      ],
      "stateMutability": "view",
      "type": "function"
    },
    {
      "inputs": [],
      "name": "OWNER_ROLE",
      "outputs": [
        {
          "internalType": "bytes32",
          "name": "",
          "type": "bytes32"
        }
      ],
      "stateMutability": "view",
      "type": "function"
    },
    {
      "inputs": [],
      "name": "PAUSER_ROLE",
      "outputs": [
        {
          "internalType": "bytes32",
          "name": "",
          "type": "bytes32"
        }
      ],
      "stateMutability": "view",
      "type": "function"
    },
    {
      "inputs": [
        {
          "internalType": "address",
          "name": "owner",
          "type": "address"
        }
      ],
      "name": "__BaseUpgradeablePausable__init",
      "outputs": [],
      "stateMutability": "nonpayable",
      "type": "function"
    },
    {
      "inputs": [],
      "name": "__PauserPausable__init",
      "outputs": [],
      "stateMutability": "nonpayable",
      "type": "function"
    },
    {
      "inputs": [
        {
          "internalType": "uint256",
          "name": "",
          "type": "uint256"
        }
      ],
      "name": "addresses",
      "outputs": [
        {
          "internalType": "address",
          "name": "",
          "type": "address"
        }
      ],
      "stateMutability": "view",
      "type": "function"
    },
    {
      "inputs": [
        {
          "internalType": "uint256",
          "name": "addressKey",
          "type": "uint256"
        }
      ],
      "name": "getAddress",
      "outputs": [
        {
          "internalType": "address",
          "name": "",
          "type": "address"
        }
      ],
      "stateMutability": "view",
      "type": "function"
    },
    {
      "inputs": [
        {
          "internalType": "uint256",
          "name": "number",
          "type": "uint256"
        }
      ],
      "name": "getNumber",
      "outputs": [
        {
          "internalType": "uint256",
          "name": "",
          "type": "uint256"
        }
      ],
      "stateMutability": "view",
      "type": "function"
    },
    {
      "inputs": [
        {
          "internalType": "bytes32",
          "name": "role",
          "type": "bytes32"
        }
      ],
      "name": "getRoleAdmin",
      "outputs": [
        {
          "internalType": "bytes32",
          "name": "",
          "type": "bytes32"
        }
      ],
      "stateMutability": "view",
      "type": "function"
    },
    {
      "inputs": [
        {
          "internalType": "bytes32",
          "name": "role",
          "type": "bytes32"
        },
        {
          "internalType": "uint256",
          "name": "index",
          "type": "uint256"
        }
      ],
      "name": "getRoleMember",
      "outputs": [
        {
          "internalType": "address",
          "name": "",
          "type": "address"
        }
      ],
      "stateMutability": "view",
      "type": "function"
    },
    {
      "inputs": [
        {
          "internalType": "bytes32",
          "name": "role",
          "type": "bytes32"
        }
      ],
      "name": "getRoleMemberCount",
      "outputs": [
        {
          "internalType": "uint256",
          "name": "",
          "type": "uint256"
        }
      ],
      "stateMutability": "view",
      "type": "function"
    },
    {
      "inputs": [
        {
          "internalType": "bytes32",
          "name": "role",
          "type": "bytes32"
        },
        {
          "internalType": "address",
          "name": "account",
          "type": "address"
        }
      ],
      "name": "grantRole",
      "outputs": [],
      "stateMutability": "nonpayable",
      "type": "function"
    },
    {
      "inputs": [
        {
          "internalType": "bytes32",
          "name": "role",
          "type": "bytes32"
        },
        {
          "internalType": "address",
          "name": "account",
          "type": "address"
        }
      ],
      "name": "hasRole",
      "outputs": [
        {
          "internalType": "bool",
          "name": "",
          "type": "bool"
        }
      ],
      "stateMutability": "view",
      "type": "function"
    },
    {
      "inputs": [
        {
          "internalType": "address",
          "name": "owner",
          "type": "address"
        }
      ],
      "name": "initialize",
      "outputs": [],
      "stateMutability": "nonpayable",
      "type": "function"
    },
    {
      "inputs": [],
      "name": "isAdmin",
      "outputs": [
        {
          "internalType": "bool",
          "name": "",
          "type": "bool"
        }
      ],
      "stateMutability": "view",
      "type": "function"
    },
    {
      "inputs": [
        {
          "internalType": "uint256",
          "name": "",
          "type": "uint256"
        }
      ],
      "name": "numbers",
      "outputs": [
        {
          "internalType": "uint256",
          "name": "",
          "type": "uint256"
        }
      ],
      "stateMutability": "view",
      "type": "function"
    },
    {
      "inputs": [],
      "name": "pause",
      "outputs": [],
      "stateMutability": "nonpayable",
      "type": "function"
    },
    {
      "inputs": [],
      "name": "paused",
      "outputs": [
        {
          "internalType": "bool",
          "name": "",
          "type": "bool"
        }
      ],
      "stateMutability": "view",
      "type": "function"
    },
    {
      "inputs": [
        {
          "internalType": "bytes32",
          "name": "role",
          "type": "bytes32"
        },
        {
          "internalType": "address",
          "name": "account",
          "type": "address"
        }
      ],
      "name": "renounceRole",
      "outputs": [],
      "stateMutability": "nonpayable",
      "type": "function"
    },
    {
      "inputs": [
        {
          "internalType": "bytes32",
          "name": "role",
          "type": "bytes32"
        },
        {
          "internalType": "address",
          "name": "account",
          "type": "address"
        }
      ],
      "name": "revokeRole",
      "outputs": [],
      "stateMutability": "nonpayable",
      "type": "function"
    },
    {
      "inputs": [
        {
          "internalType": "uint256",
          "name": "addressKey",
          "type": "uint256"
        },
        {
          "internalType": "address",
          "name": "newAddress",
          "type": "address"
        }
      ],
      "name": "setAddress",
      "outputs": [],
      "stateMutability": "nonpayable",
      "type": "function"
    },
    {
      "inputs": [
        {
          "internalType": "address",
          "name": "newCreditLine",
          "type": "address"
        }
      ],
      "name": "setCreditLineImplementation",
      "outputs": [],
      "stateMutability": "nonpayable",
      "type": "function"
    },
    {
      "inputs": [
        {
          "internalType": "uint256",
          "name": "number",
          "type": "uint256"
        },
        {
          "internalType": "uint256",
          "name": "newNumber",
          "type": "uint256"
        }
      ],
      "name": "setNumber",
      "outputs": [],
      "stateMutability": "nonpayable",
      "type": "function"
    },
    {
      "inputs": [
        {
          "internalType": "address",
          "name": "newTreasuryReserve",
          "type": "address"
        }
      ],
      "name": "setTreasuryReserve",
      "outputs": [],
      "stateMutability": "nonpayable",
      "type": "function"
    },
    {
      "inputs": [],
      "name": "unpause",
      "outputs": [],
      "stateMutability": "nonpayable",
      "type": "function"
    }
  ],
  "transactionHash": "0xa99a5e504bd4a4581e24318164c673043905695fa1b32fc4412e56f44427a1b3",
  "args": [],
  "solcInputHash": "ec5b8f84a562cb473511a7a6cca44911",
  "bytecode": "0x608060405234801561001057600080fd5b50611ab3806100206000396000f3fe608060405234801561001057600080fd5b50600436106101735760003560e01c806391d14854116100de578063ca15c87311610097578063e58378bb11610071578063e58378bb1461041a578063e63ab1e914610422578063edf26d9b1461042a578063fc5636581461044757610173565b8063ca15c873146103b4578063d39fa233146103d1578063d547741f146103ee57610173565b806391d1485414610309578063a217fddf14610335578063ac4ce2c61461033d578063b6db75a014610369578063b93f9b0a14610371578063c4d66de81461038e57610173565b8063526d81f611610130578063526d81f61461025557806357337adb1461025d5780635c975abb146102835780636b19e8c71461029f5780638456cb59146102c25780639010d07c146102ca57610173565b8063097616a3146101785780631e7213cf146101a0578063248a9ca3146101c65780632f2ff15d146101f557806336568abe146102215780633f4ba83a1461024d575b600080fd5b61019e6004803603602081101561018e57600080fd5b50356001600160a01b0316610464565b005b61019e600480360360208110156101b657600080fd5b50356001600160a01b031661064c565b6101e3600480360360208110156101dc57600080fd5b50356108db565b60408051918252519081900360200190f35b61019e6004803603604081101561020b57600080fd5b50803590602001356001600160a01b03166108f0565b61019e6004803603604081101561023757600080fd5b50803590602001356001600160a01b0316610958565b61019e6109b9565b61019e610a40565b61019e6004803603602081101561027357600080fd5b50356001600160a01b0316610aea565b61028b610b36565b604080519115158252519081900360200190f35b61019e600480360360408110156102b557600080fd5b5080359060200135610b3f565b61019e610dad565b6102ed600480360360408110156102e057600080fd5b5080359060200135610e32565b604080516001600160a01b039092168252519081900360200190f35b61028b6004803603604081101561031f57600080fd5b50803590602001356001600160a01b0316610e59565b6101e3610e77565b61019e6004803603604081101561035357600080fd5b50803590602001356001600160a01b0316610e7c565b61028b611159565b6102ed6004803603602081101561038757600080fd5b503561118c565b61019e600480360360208110156103a457600080fd5b50356001600160a01b03166111b8565b6101e3600480360360208110156103ca57600080fd5b503561124e565b6101e3600480360360208110156103e757600080fd5b5035611265565b61019e6004803603604081101561040457600080fd5b50803590602001356001600160a01b0316611278565b6101e36112d1565b6101e36112f3565b6102ed6004803603602081101561044057600080fd5b5035611316565b6101e36004803603602081101561045d57600080fd5b5035611332565b600054610100900460ff168061047d575061047d611355565b8061048b575060005460ff16155b6104c65760405162461bcd60e51b815260040180806020018281038252602e8152602001806119d2602e913960400191505060405180910390fd5b600054610100900460ff161580156104f1576000805460ff1961ff0019909116610100171660011790555b6001600160a01b03821661054c576040805162461bcd60e51b815260206004820181905260248201527f4f776e65722063616e6e6f7420626520746865207a65726f2061646472657373604482015290519081900360640190fd5b61055461135b565b61055c6113fb565b6105646114a6565b60408051694f574e45525f524f4c4560b01b8152905190819003600a01902061058d908361094e565b604080516a5041555345525f524f4c4560a81b8152905190819003600b0190206105b7908361094e565b604080516a5041555345525f524f4c4560a81b8152815190819003600b018120694f574e45525f524f4c4560b01b8252915190819003600a0190206105fc9190611554565b60408051694f574e45525f524f4c4560b01b808252825191829003600a908101832091835292519182900390920190206106369190611554565b8015610648576000805461ff00191690555b5050565b610654611159565b61068f5760405162461bcd60e51b815260040180806020018281038252602b815260200180611a24602b913960400191505060405180910390fd5b600060015b90506060738E1902BB5fb80822f270D9BD1dD80796A179b2BB631eb7045f836040518263ffffffff1660e01b81526004018082815260200191505060006040518083038186803b1580156106e757600080fd5b505af41580156106fb573d6000803e3d6000fd5b505050506040513d6000823e601f3d908101601f19168201604052602081101561072457600080fd5b810190808051604051939291908464010000000082111561074457600080fd5b90830190602082018581111561075957600080fd5b825164010000000081118282018810171561077357600080fd5b82525081516020918201929091019080838360005b838110156107a0578181015183820152602001610788565b50505050905090810190601f1680156107cd5780820380516001836020036101000a031916815260200191505b50604081815260008881526101c3602090815282822054338086526001600160a01b03918216948601859052908c16606086015260808286018181528a51918701919091528951999a507f44573a89df583c0b1e16e6c22d41b4e39de1ca341d0a234b7117ccc2bf727dc4999198508a97509395508b94939260a0850192880191908190849084905b8381101561086e578181015183820152602001610856565b50505050905090810190601f16801561089b5780820380516001836020036101000a031916815260200191505b509550505050505060405180910390a15060009081526101c36020526040902080546001600160a01b0319166001600160a01b0392909216919091179055565b60009081526065602052604090206002015490565b6000828152606560205260409020600201546109139061090e611569565b610e59565b61094e5760405162461bcd60e51b815260040180806020018281038252602f815260200180611973602f913960400191505060405180910390fd5b610648828261156d565b610960611569565b6001600160a01b0316816001600160a01b0316146109af5760405162461bcd60e51b815260040180806020018281038252602f815260200180611a4f602f913960400191505060405180910390fd5b61064882826115dc565b604080516a5041555345525f524f4c4560a81b8152905190819003600b0190206109e59061090e611569565b610a36576040805162461bcd60e51b815260206004820181905260248201527f4d75737420686176652070617573657220726f6c6520746f20756e7061757365604482015290519081900360640190fd5b610a3e61164b565b565b600054610100900460ff1680610a595750610a59611355565b80610a67575060005460ff16155b610aa25760405162461bcd60e51b815260040180806020018281038252602e8152602001806119d2602e913960400191505060405180910390fd5b600054610100900460ff16158015610acd576000805460ff1961ff0019909116610100171660011790555b610ad56113fb565b8015610ae7576000805461ff00191690555b50565b610af2611159565b610b2d5760405162461bcd60e51b815260040180806020018281038252602b815260200180611a24602b913960400191505060405180910390fd5b60006006610694565b60975460ff1690565b610b47611159565b610b825760405162461bcd60e51b815260040180806020018281038252602b815260200180611a24602b913960400191505060405180910390fd5b6060738E1902BB5fb80822f270D9BD1dD80796A179b2BB636152a028846040518263ffffffff1660e01b81526004018082815260200191505060006040518083038186803b158015610bd357600080fd5b505af4158015610be7573d6000803e3d6000fd5b505050506040513d6000823e601f3d908101601f191682016040526020811015610c1057600080fd5b8101908080516040519392919084640100000000821115610c3057600080fd5b908301906020820185811115610c4557600080fd5b8251640100000000811182820188101715610c5f57600080fd5b82525081516020918201929091019080838360005b83811015610c8c578181015183820152602001610c74565b50505050905090810190601f168015610cb95780820380516001836020036101000a031916815260200191505b5060405250505090507f485a2737f4b43eb26ea911f5a3e7b4716a78c477266598f4157109d5dd914d6933826101c46000878152602001908152602001600020548560405180856001600160a01b03166001600160a01b0316815260200180602001848152602001838152602001828103825285818151815260200191508051906020019080838360005b83811015610d5c578181015183820152602001610d44565b50505050905090810190601f168015610d895780820380516001836020036101000a031916815260200191505b509550505050505060405180910390a15060009182526101c4602052604090912055565b604080516a5041555345525f524f4c4560a81b8152905190819003600b019020610dd99061090e611569565b610e2a576040805162461bcd60e51b815260206004820152601e60248201527f4d75737420686176652070617573657220726f6c6520746f2070617573650000604482015290519081900360640190fd5b610a3e6116e9565b6000828152606560205260408120610e50908363ffffffff61176a16565b90505b92915050565b6000828152606560205260408120610e50908363ffffffff61177616565b600081565b610e84611159565b610ebf5760405162461bcd60e51b815260040180806020018281038252602b815260200180611a24602b913960400191505060405180910390fd5b60008281526101c360205260409020546001600160a01b031615610f145760405162461bcd60e51b8152600401808060200182810382526024815260200180611a006024913960400191505060405180910390fd5b6060738E1902BB5fb80822f270D9BD1dD80796A179b2BB631eb7045f846040518263ffffffff1660e01b81526004018082815260200191505060006040518083038186803b158015610f6557600080fd5b505af4158015610f79573d6000803e3d6000fd5b505050506040513d6000823e601f3d908101601f191682016040526020811015610fa257600080fd5b8101908080516040519392919084640100000000821115610fc257600080fd5b908301906020820185811115610fd757600080fd5b8251640100000000811182820188101715610ff157600080fd5b82525081516020918201929091019080838360005b8381101561101e578181015183820152602001611006565b50505050905090810190601f16801561104b5780820380516001836020036101000a031916815260200191505b50604081815260008981526101c3602090815282822054338086526001600160a01b03918216948601859052908b16606086015260808286018181528a51918701919091528951999a507f44573a89df583c0b1e16e6c22d41b4e39de1ca341d0a234b7117ccc2bf727dc4999198508a97509395508a94939260a0850192880191908190849084905b838110156110ec5781810151838201526020016110d4565b50505050905090810190601f1680156111195780820380516001836020036101000a031916815260200191505b509550505050505060405180910390a15060009182526101c3602052604090912080546001600160a01b0319166001600160a01b03909216919091179055565b60408051694f574e45525f524f4c4560b01b8152905190819003600a0190206000906111879061090e611569565b905090565b600081600781111561119a57fe5b505060009081526101c360205260409020546001600160a01b031690565b600054610100900460ff16806111d157506111d1611355565b806111df575060005460ff16155b61121a5760405162461bcd60e51b815260040180806020018281038252602e8152602001806119d2602e913960400191505060405180910390fd5b600054610100900460ff16158015611245576000805460ff1961ff0019909116610100171660011790555b61063682610464565b6000818152606560205260408120610e539061178b565b6101c46020526000908152604090205481565b6000828152606560205260409020600201546112969061090e611569565b6109af5760405162461bcd60e51b81526004018080602001828103825260308152602001806119a26030913960400191505060405180910390fd5b60408051694f574e45525f524f4c4560b01b8152905190819003600a01902081565b604080516a5041555345525f524f4c4560a81b8152905190819003600b01902081565b6101c3602052600090815260409020546001600160a01b031681565b600081600681111561134057fe5b505060009081526101c4602052604090205490565b303b1590565b600054610100900460ff16806113745750611374611355565b80611382575060005460ff16155b6113bd5760405162461bcd60e51b815260040180806020018281038252602e8152602001806119d2602e913960400191505060405180910390fd5b600054610100900460ff16158015610ad5576000805460ff1961ff0019909116610100171660011790558015610ae7576000805461ff001916905550565b600054610100900460ff16806114145750611414611355565b80611422575060005460ff16155b61145d5760405162461bcd60e51b815260040180806020018281038252602e8152602001806119d2602e913960400191505060405180910390fd5b600054610100900460ff16158015611488576000805460ff1961ff0019909116610100171660011790555b6097805460ff191690558015610ae7576000805461ff001916905550565b600054610100900460ff16806114bf57506114bf611355565b806114cd575060005460ff16155b6115085760405162461bcd60e51b815260040180806020018281038252602e8152602001806119d2602e913960400191505060405180910390fd5b600054610100900460ff16158015611533576000805460ff1961ff0019909116610100171660011790555b60c9805460ff191660011790558015610ae7576000805461ff001916905550565b60009182526065602052604090912060020155565b3390565b600082815260656020526040902061158b908263ffffffff61179616565b1561064857611598611569565b6001600160a01b0316816001600160a01b0316837f2f8788117e7eff1d82e926ec794901d17c78024a50270940304540a733656f0d60405160405180910390a45050565b60008281526065602052604090206115fa908263ffffffff6117ab16565b1561064857611607611569565b6001600160a01b0316816001600160a01b0316837ff6391f5c32d9c69d2a47ea670b442974b53935d1edc7fd64eb21e047a839171b60405160405180910390a45050565b60975460ff16611699576040805162461bcd60e51b815260206004820152601460248201527314185d5cd8589b194e881b9bdd081c185d5cd95960621b604482015290519081900360640190fd5b6097805460ff191690557f5db9ee0a495bf2e6ff9c91a7834c1ba4fdd244a5e8aa4e537bd38aeae4b073aa6116cc611569565b604080516001600160a01b039092168252519081900360200190a1565b60975460ff1615611734576040805162461bcd60e51b815260206004820152601060248201526f14185d5cd8589b194e881c185d5cd95960821b604482015290519081900360640190fd5b6097805460ff191660011790557f62e78cea01bee320cd4e420270b5ea74000d11b0c9f74754ebdbfc544b05a2586116cc611569565b6000610e5083836117c0565b6000610e50836001600160a01b038416611824565b6000610e538261183c565b6000610e50836001600160a01b038416611840565b6000610e50836001600160a01b03841661188a565b815460009082106118025760405162461bcd60e51b81526004018080602001828103825260228152602001806119516022913960400191505060405180910390fd5b82600001828154811061181157fe5b9060005260206000200154905092915050565b60009081526001919091016020526040902054151590565b5490565b600061184c8383611824565b61188257508154600181810184556000848152602080822090930184905584548482528286019093526040902091909155610e53565b506000610e53565b6000818152600183016020526040812054801561194657835460001980830191908101906000908790839081106118bd57fe5b90600052602060002001549050808760000184815481106118da57fe5b60009182526020808320909101929092558281526001898101909252604090209084019055865487908061190a57fe5b60019003818190600052602060002001600090559055866001016000878152602001908152602001600020600090556001945050505050610e53565b6000915050610e5356fe456e756d657261626c655365743a20696e646578206f7574206f6620626f756e6473416363657373436f6e74726f6c3a2073656e646572206d75737420626520616e2061646d696e20746f206772616e74416363657373436f6e74726f6c3a2073656e646572206d75737420626520616e2061646d696e20746f207265766f6b65436f6e747261637420696e7374616e63652068617320616c7265616479206265656e20696e697469616c697a6564416464726573732068617320616c7265616479206265656e20696e697469616c697a65644d75737420686176652061646d696e20726f6c6520746f20706572666f726d207468697320616374696f6e416363657373436f6e74726f6c3a2063616e206f6e6c792072656e6f756e636520726f6c657320666f722073656c66a2646970667358221220a7bdd0c631d7f7816c2d0cdd8cffc594053f0962b8133768570f01c193bc9e8864736f6c63430006080033",
  "deployedBytecode": "0x608060405234801561001057600080fd5b50600436106101735760003560e01c806391d14854116100de578063ca15c87311610097578063e58378bb11610071578063e58378bb1461041a578063e63ab1e914610422578063edf26d9b1461042a578063fc5636581461044757610173565b8063ca15c873146103b4578063d39fa233146103d1578063d547741f146103ee57610173565b806391d1485414610309578063a217fddf14610335578063ac4ce2c61461033d578063b6db75a014610369578063b93f9b0a14610371578063c4d66de81461038e57610173565b8063526d81f611610130578063526d81f61461025557806357337adb1461025d5780635c975abb146102835780636b19e8c71461029f5780638456cb59146102c25780639010d07c146102ca57610173565b8063097616a3146101785780631e7213cf146101a0578063248a9ca3146101c65780632f2ff15d146101f557806336568abe146102215780633f4ba83a1461024d575b600080fd5b61019e6004803603602081101561018e57600080fd5b50356001600160a01b0316610464565b005b61019e600480360360208110156101b657600080fd5b50356001600160a01b031661064c565b6101e3600480360360208110156101dc57600080fd5b50356108db565b60408051918252519081900360200190f35b61019e6004803603604081101561020b57600080fd5b50803590602001356001600160a01b03166108f0565b61019e6004803603604081101561023757600080fd5b50803590602001356001600160a01b0316610958565b61019e6109b9565b61019e610a40565b61019e6004803603602081101561027357600080fd5b50356001600160a01b0316610aea565b61028b610b36565b604080519115158252519081900360200190f35b61019e600480360360408110156102b557600080fd5b5080359060200135610b3f565b61019e610dad565b6102ed600480360360408110156102e057600080fd5b5080359060200135610e32565b604080516001600160a01b039092168252519081900360200190f35b61028b6004803603604081101561031f57600080fd5b50803590602001356001600160a01b0316610e59565b6101e3610e77565b61019e6004803603604081101561035357600080fd5b50803590602001356001600160a01b0316610e7c565b61028b611159565b6102ed6004803603602081101561038757600080fd5b503561118c565b61019e600480360360208110156103a457600080fd5b50356001600160a01b03166111b8565b6101e3600480360360208110156103ca57600080fd5b503561124e565b6101e3600480360360208110156103e757600080fd5b5035611265565b61019e6004803603604081101561040457600080fd5b50803590602001356001600160a01b0316611278565b6101e36112d1565b6101e36112f3565b6102ed6004803603602081101561044057600080fd5b5035611316565b6101e36004803603602081101561045d57600080fd5b5035611332565b600054610100900460ff168061047d575061047d611355565b8061048b575060005460ff16155b6104c65760405162461bcd60e51b815260040180806020018281038252602e8152602001806119d2602e913960400191505060405180910390fd5b600054610100900460ff161580156104f1576000805460ff1961ff0019909116610100171660011790555b6001600160a01b03821661054c576040805162461bcd60e51b815260206004820181905260248201527f4f776e65722063616e6e6f7420626520746865207a65726f2061646472657373604482015290519081900360640190fd5b61055461135b565b61055c6113fb565b6105646114a6565b60408051694f574e45525f524f4c4560b01b8152905190819003600a01902061058d908361094e565b604080516a5041555345525f524f4c4560a81b8152905190819003600b0190206105b7908361094e565b604080516a5041555345525f524f4c4560a81b8152815190819003600b018120694f574e45525f524f4c4560b01b8252915190819003600a0190206105fc9190611554565b60408051694f574e45525f524f4c4560b01b808252825191829003600a908101832091835292519182900390920190206106369190611554565b8015610648576000805461ff00191690555b5050565b610654611159565b61068f5760405162461bcd60e51b815260040180806020018281038252602b815260200180611a24602b913960400191505060405180910390fd5b600060015b9050606073__$d8abec296cbd86fcf5fa8383806f969f08$__631eb7045f836040518263ffffffff1660e01b81526004018082815260200191505060006040518083038186803b1580156106e757600080fd5b505af41580156106fb573d6000803e3d6000fd5b505050506040513d6000823e601f3d908101601f19168201604052602081101561072457600080fd5b810190808051604051939291908464010000000082111561074457600080fd5b90830190602082018581111561075957600080fd5b825164010000000081118282018810171561077357600080fd5b82525081516020918201929091019080838360005b838110156107a0578181015183820152602001610788565b50505050905090810190601f1680156107cd5780820380516001836020036101000a031916815260200191505b50604081815260008881526101c3602090815282822054338086526001600160a01b03918216948601859052908c16606086015260808286018181528a51918701919091528951999a507f44573a89df583c0b1e16e6c22d41b4e39de1ca341d0a234b7117ccc2bf727dc4999198508a97509395508b94939260a0850192880191908190849084905b8381101561086e578181015183820152602001610856565b50505050905090810190601f16801561089b5780820380516001836020036101000a031916815260200191505b509550505050505060405180910390a15060009081526101c36020526040902080546001600160a01b0319166001600160a01b0392909216919091179055565b60009081526065602052604090206002015490565b6000828152606560205260409020600201546109139061090e611569565b610e59565b61094e5760405162461bcd60e51b815260040180806020018281038252602f815260200180611973602f913960400191505060405180910390fd5b610648828261156d565b610960611569565b6001600160a01b0316816001600160a01b0316146109af5760405162461bcd60e51b815260040180806020018281038252602f815260200180611a4f602f913960400191505060405180910390fd5b61064882826115dc565b604080516a5041555345525f524f4c4560a81b8152905190819003600b0190206109e59061090e611569565b610a36576040805162461bcd60e51b815260206004820181905260248201527f4d75737420686176652070617573657220726f6c6520746f20756e7061757365604482015290519081900360640190fd5b610a3e61164b565b565b600054610100900460ff1680610a595750610a59611355565b80610a67575060005460ff16155b610aa25760405162461bcd60e51b815260040180806020018281038252602e8152602001806119d2602e913960400191505060405180910390fd5b600054610100900460ff16158015610acd576000805460ff1961ff0019909116610100171660011790555b610ad56113fb565b8015610ae7576000805461ff00191690555b50565b610af2611159565b610b2d5760405162461bcd60e51b815260040180806020018281038252602b815260200180611a24602b913960400191505060405180910390fd5b60006006610694565b60975460ff1690565b610b47611159565b610b825760405162461bcd60e51b815260040180806020018281038252602b815260200180611a24602b913960400191505060405180910390fd5b606073__$d8abec296cbd86fcf5fa8383806f969f08$__636152a028846040518263ffffffff1660e01b81526004018082815260200191505060006040518083038186803b158015610bd357600080fd5b505af4158015610be7573d6000803e3d6000fd5b505050506040513d6000823e601f3d908101601f191682016040526020811015610c1057600080fd5b8101908080516040519392919084640100000000821115610c3057600080fd5b908301906020820185811115610c4557600080fd5b8251640100000000811182820188101715610c5f57600080fd5b82525081516020918201929091019080838360005b83811015610c8c578181015183820152602001610c74565b50505050905090810190601f168015610cb95780820380516001836020036101000a031916815260200191505b5060405250505090507f485a2737f4b43eb26ea911f5a3e7b4716a78c477266598f4157109d5dd914d6933826101c46000878152602001908152602001600020548560405180856001600160a01b03166001600160a01b0316815260200180602001848152602001838152602001828103825285818151815260200191508051906020019080838360005b83811015610d5c578181015183820152602001610d44565b50505050905090810190601f168015610d895780820380516001836020036101000a031916815260200191505b509550505050505060405180910390a15060009182526101c4602052604090912055565b604080516a5041555345525f524f4c4560a81b8152905190819003600b019020610dd99061090e611569565b610e2a576040805162461bcd60e51b815260206004820152601e60248201527f4d75737420686176652070617573657220726f6c6520746f2070617573650000604482015290519081900360640190fd5b610a3e6116e9565b6000828152606560205260408120610e50908363ffffffff61176a16565b90505b92915050565b6000828152606560205260408120610e50908363ffffffff61177616565b600081565b610e84611159565b610ebf5760405162461bcd60e51b815260040180806020018281038252602b815260200180611a24602b913960400191505060405180910390fd5b60008281526101c360205260409020546001600160a01b031615610f145760405162461bcd60e51b8152600401808060200182810382526024815260200180611a006024913960400191505060405180910390fd5b606073__$d8abec296cbd86fcf5fa8383806f969f08$__631eb7045f846040518263ffffffff1660e01b81526004018082815260200191505060006040518083038186803b158015610f6557600080fd5b505af4158015610f79573d6000803e3d6000fd5b505050506040513d6000823e601f3d908101601f191682016040526020811015610fa257600080fd5b8101908080516040519392919084640100000000821115610fc257600080fd5b908301906020820185811115610fd757600080fd5b8251640100000000811182820188101715610ff157600080fd5b82525081516020918201929091019080838360005b8381101561101e578181015183820152602001611006565b50505050905090810190601f16801561104b5780820380516001836020036101000a031916815260200191505b50604081815260008981526101c3602090815282822054338086526001600160a01b03918216948601859052908b16606086015260808286018181528a51918701919091528951999a507f44573a89df583c0b1e16e6c22d41b4e39de1ca341d0a234b7117ccc2bf727dc4999198508a97509395508a94939260a0850192880191908190849084905b838110156110ec5781810151838201526020016110d4565b50505050905090810190601f1680156111195780820380516001836020036101000a031916815260200191505b509550505050505060405180910390a15060009182526101c3602052604090912080546001600160a01b0319166001600160a01b03909216919091179055565b60408051694f574e45525f524f4c4560b01b8152905190819003600a0190206000906111879061090e611569565b905090565b600081600781111561119a57fe5b505060009081526101c360205260409020546001600160a01b031690565b600054610100900460ff16806111d157506111d1611355565b806111df575060005460ff16155b61121a5760405162461bcd60e51b815260040180806020018281038252602e8152602001806119d2602e913960400191505060405180910390fd5b600054610100900460ff16158015611245576000805460ff1961ff0019909116610100171660011790555b61063682610464565b6000818152606560205260408120610e539061178b565b6101c46020526000908152604090205481565b6000828152606560205260409020600201546112969061090e611569565b6109af5760405162461bcd60e51b81526004018080602001828103825260308152602001806119a26030913960400191505060405180910390fd5b60408051694f574e45525f524f4c4560b01b8152905190819003600a01902081565b604080516a5041555345525f524f4c4560a81b8152905190819003600b01902081565b6101c3602052600090815260409020546001600160a01b031681565b600081600681111561134057fe5b505060009081526101c4602052604090205490565b303b1590565b600054610100900460ff16806113745750611374611355565b80611382575060005460ff16155b6113bd5760405162461bcd60e51b815260040180806020018281038252602e8152602001806119d2602e913960400191505060405180910390fd5b600054610100900460ff16158015610ad5576000805460ff1961ff0019909116610100171660011790558015610ae7576000805461ff001916905550565b600054610100900460ff16806114145750611414611355565b80611422575060005460ff16155b61145d5760405162461bcd60e51b815260040180806020018281038252602e8152602001806119d2602e913960400191505060405180910390fd5b600054610100900460ff16158015611488576000805460ff1961ff0019909116610100171660011790555b6097805460ff191690558015610ae7576000805461ff001916905550565b600054610100900460ff16806114bf57506114bf611355565b806114cd575060005460ff16155b6115085760405162461bcd60e51b815260040180806020018281038252602e8152602001806119d2602e913960400191505060405180910390fd5b600054610100900460ff16158015611533576000805460ff1961ff0019909116610100171660011790555b60c9805460ff191660011790558015610ae7576000805461ff001916905550565b60009182526065602052604090912060020155565b3390565b600082815260656020526040902061158b908263ffffffff61179616565b1561064857611598611569565b6001600160a01b0316816001600160a01b0316837f2f8788117e7eff1d82e926ec794901d17c78024a50270940304540a733656f0d60405160405180910390a45050565b60008281526065602052604090206115fa908263ffffffff6117ab16565b1561064857611607611569565b6001600160a01b0316816001600160a01b0316837ff6391f5c32d9c69d2a47ea670b442974b53935d1edc7fd64eb21e047a839171b60405160405180910390a45050565b60975460ff16611699576040805162461bcd60e51b815260206004820152601460248201527314185d5cd8589b194e881b9bdd081c185d5cd95960621b604482015290519081900360640190fd5b6097805460ff191690557f5db9ee0a495bf2e6ff9c91a7834c1ba4fdd244a5e8aa4e537bd38aeae4b073aa6116cc611569565b604080516001600160a01b039092168252519081900360200190a1565b60975460ff1615611734576040805162461bcd60e51b815260206004820152601060248201526f14185d5cd8589b194e881c185d5cd95960821b604482015290519081900360640190fd5b6097805460ff191660011790557f62e78cea01bee320cd4e420270b5ea74000d11b0c9f74754ebdbfc544b05a2586116cc611569565b6000610e5083836117c0565b6000610e50836001600160a01b038416611824565b6000610e538261183c565b6000610e50836001600160a01b038416611840565b6000610e50836001600160a01b03841661188a565b815460009082106118025760405162461bcd60e51b81526004018080602001828103825260228152602001806119516022913960400191505060405180910390fd5b82600001828154811061181157fe5b9060005260206000200154905092915050565b60009081526001919091016020526040902054151590565b5490565b600061184c8383611824565b61188257508154600181810184556000848152602080822090930184905584548482528286019093526040902091909155610e53565b506000610e53565b6000818152600183016020526040812054801561194657835460001980830191908101906000908790839081106118bd57fe5b90600052602060002001549050808760000184815481106118da57fe5b60009182526020808320909101929092558281526001898101909252604090209084019055865487908061190a57fe5b60019003818190600052602060002001600090559055866001016000878152602001908152602001600020600090556001945050505050610e53565b6000915050610e5356fe456e756d657261626c655365743a20696e646578206f7574206f6620626f756e6473416363657373436f6e74726f6c3a2073656e646572206d75737420626520616e2061646d696e20746f206772616e74416363657373436f6e74726f6c3a2073656e646572206d75737420626520616e2061646d696e20746f207265766f6b65436f6e747261637420696e7374616e63652068617320616c7265616479206265656e20696e697469616c697a6564416464726573732068617320616c7265616479206265656e20696e697469616c697a65644d75737420686176652061646d696e20726f6c6520746f20706572666f726d207468697320616374696f6e416363657373436f6e74726f6c3a2063616e206f6e6c792072656e6f756e636520726f6c657320666f722073656c66a2646970667358221220a7bdd0c631d7f7816c2d0cdd8cffc594053f0962b8133768570f01c193bc9e8864736f6c63430006080033",
  "libraries": {
    "ConfigOptions": "0x8E1902BB5fb80822f270D9BD1dD80796A179b2BB"
  },
  "devdoc": {
    "author": "Goldfinch",
    "methods": {
      "getRoleAdmin(bytes32)": {
        "details": "Returns the admin role that controls `role`. See {grantRole} and {revokeRole}.     * To change a role's admin, use {_setRoleAdmin}."
      },
      "getRoleMember(bytes32,uint256)": {
        "details": "Returns one of the accounts that have `role`. `index` must be a value between 0 and {getRoleMemberCount}, non-inclusive.     * Role bearers are not sorted in any particular way, and their ordering may change at any point.     * WARNING: When using {getRoleMember} and {getRoleMemberCount}, make sure you perform all queries on the same block. See the following https://forum.openzeppelin.com/t/iterating-over-elements-on-enumerableset-in-openzeppelin-contracts/2296[forum post] for more information."
      },
      "getRoleMemberCount(bytes32)": {
        "details": "Returns the number of accounts that have `role`. Can be used together with {getRoleMember} to enumerate all bearers of a role."
      },
      "grantRole(bytes32,address)": {
        "details": "Grants `role` to `account`.     * If `account` had not been already granted `role`, emits a {RoleGranted} event.     * Requirements:     * - the caller must have ``role``'s admin role."
      },
      "hasRole(bytes32,address)": {
        "details": "Returns `true` if `account` has been granted `role`."
      },
      "pause()": {
        "details": "Pauses all functions guarded by Pause   * See {Pausable-_pause}.   * Requirements:   * - the caller must have the PAUSER_ROLE."
      },
      "paused()": {
        "details": "Returns true if the contract is paused, and false otherwise."
      },
      "renounceRole(bytes32,address)": {
        "details": "Revokes `role` from the calling account.     * Roles are often managed via {grantRole} and {revokeRole}: this function's purpose is to provide a mechanism for accounts to lose their privileges if they are compromised (such as when a trusted device is misplaced).     * If the calling account had been granted `role`, emits a {RoleRevoked} event.     * Requirements:     * - the caller must be `account`."
      },
      "revokeRole(bytes32,address)": {
        "details": "Revokes `role` from `account`.     * If `account` had been granted `role`, emits a {RoleRevoked} event.     * Requirements:     * - the caller must have ``role``'s admin role."
      },
      "unpause()": {
        "details": "Unpauses the contract   * See {Pausable-_unpause}.   * Requirements:   * - the caller must have the Pauser role"
      }
    },
    "title": "GoldfinchConfig"
  },
  "userdoc": {
    "methods": {},
    "notice": "This contract stores mappings of useful \"protocol config state\", giving a central place for all other contracts to access it. For example, the TransactionLimit, or the PoolAddress. These config vars are enumerated in the `ConfigOptions` library, and can only be changed by admins of the protocol."
  },
  "storageLayout": {
    "storage": [
      {
        "astId": 49,
        "contract": "contracts/protocol/GoldfinchConfig.sol:GoldfinchConfig",
        "label": "initialized",
        "offset": 0,
        "slot": "0",
        "type": "t_bool"
      },
      {
        "astId": 51,
        "contract": "contracts/protocol/GoldfinchConfig.sol:GoldfinchConfig",
        "label": "initializing",
        "offset": 1,
        "slot": "0",
        "type": "t_bool"
      },
      {
        "astId": 116,
        "contract": "contracts/protocol/GoldfinchConfig.sol:GoldfinchConfig",
        "label": "______gap",
        "offset": 0,
        "slot": "1",
        "type": "t_array(t_uint256)50_storage"
      },
      {
        "astId": 43,
        "contract": "contracts/protocol/GoldfinchConfig.sol:GoldfinchConfig",
        "label": "__gap",
        "offset": 0,
        "slot": "51",
        "type": "t_array(t_uint256)50_storage"
      },
      {
        "astId": 161,
        "contract": "contracts/protocol/GoldfinchConfig.sol:GoldfinchConfig",
        "label": "_roles",
        "offset": 0,
        "slot": "101",
        "type": "t_mapping(t_bytes32,t_struct(RoleData)157_storage)"
      },
      {
        "astId": 406,
        "contract": "contracts/protocol/GoldfinchConfig.sol:GoldfinchConfig",
        "label": "__gap",
        "offset": 0,
        "slot": "102",
        "type": "t_array(t_uint256)49_storage"
      },
      {
        "astId": 2282,
        "contract": "contracts/protocol/GoldfinchConfig.sol:GoldfinchConfig",
        "label": "_paused",
        "offset": 0,
        "slot": "151",
        "type": "t_bool"
      },
      {
        "astId": 2371,
        "contract": "contracts/protocol/GoldfinchConfig.sol:GoldfinchConfig",
        "label": "__gap",
        "offset": 0,
        "slot": "152",
        "type": "t_array(t_uint256)49_storage"
      },
      {
        "astId": 2380,
        "contract": "contracts/protocol/GoldfinchConfig.sol:GoldfinchConfig",
        "label": "_notEntered",
        "offset": 0,
        "slot": "201",
        "type": "t_bool"
      },
      {
        "astId": 2421,
        "contract": "contracts/protocol/GoldfinchConfig.sol:GoldfinchConfig",
        "label": "__gap",
        "offset": 0,
        "slot": "202",
        "type": "t_array(t_uint256)49_storage"
      },
      {
        "astId": 4609,
        "contract": "contracts/protocol/GoldfinchConfig.sol:GoldfinchConfig",
        "label": "__gap1",
        "offset": 0,
        "slot": "251",
        "type": "t_array(t_uint256)50_storage"
      },
      {
        "astId": 4613,
        "contract": "contracts/protocol/GoldfinchConfig.sol:GoldfinchConfig",
        "label": "__gap2",
        "offset": 0,
        "slot": "301",
        "type": "t_array(t_uint256)50_storage"
      },
      {
        "astId": 4617,
        "contract": "contracts/protocol/GoldfinchConfig.sol:GoldfinchConfig",
        "label": "__gap3",
        "offset": 0,
        "slot": "351",
        "type": "t_array(t_uint256)50_storage"
      },
      {
        "astId": 4621,
        "contract": "contracts/protocol/GoldfinchConfig.sol:GoldfinchConfig",
        "label": "__gap4",
        "offset": 0,
        "slot": "401",
        "type": "t_array(t_uint256)50_storage"
      },
      {
        "astId": 7328,
        "contract": "contracts/protocol/GoldfinchConfig.sol:GoldfinchConfig",
        "label": "addresses",
        "offset": 0,
        "slot": "451",
        "type": "t_mapping(t_uint256,t_address)"
      },
      {
        "astId": 7332,
        "contract": "contracts/protocol/GoldfinchConfig.sol:GoldfinchConfig",
        "label": "numbers",
        "offset": 0,
        "slot": "452",
        "type": "t_mapping(t_uint256,t_uint256)"
      }
    ],
    "types": {
      "t_address": {
        "encoding": "inplace",
        "label": "address",
        "numberOfBytes": "20"
      },
      "t_array(t_bytes32)dyn_storage": {
        "base": "t_bytes32",
        "encoding": "dynamic_array",
        "label": "bytes32[]",
        "numberOfBytes": "32"
      },
      "t_array(t_uint256)49_storage": {
        "base": "t_uint256",
        "encoding": "inplace",
        "label": "uint256[49]",
        "numberOfBytes": "1568"
      },
      "t_array(t_uint256)50_storage": {
        "base": "t_uint256",
        "encoding": "inplace",
        "label": "uint256[50]",
        "numberOfBytes": "1600"
      },
      "t_bool": {
        "encoding": "inplace",
        "label": "bool",
        "numberOfBytes": "1"
      },
      "t_bytes32": {
        "encoding": "inplace",
        "label": "bytes32",
        "numberOfBytes": "32"
      },
      "t_mapping(t_bytes32,t_struct(RoleData)157_storage)": {
        "encoding": "mapping",
        "key": "t_bytes32",
        "label": "mapping(bytes32 => struct AccessControlUpgradeSafe.RoleData)",
        "numberOfBytes": "32",
        "value": "t_struct(RoleData)157_storage"
      },
      "t_mapping(t_bytes32,t_uint256)": {
        "encoding": "mapping",
        "key": "t_bytes32",
        "label": "mapping(bytes32 => uint256)",
        "numberOfBytes": "32",
        "value": "t_uint256"
      },
      "t_mapping(t_uint256,t_address)": {
        "encoding": "mapping",
        "key": "t_uint256",
        "label": "mapping(uint256 => address)",
        "numberOfBytes": "32",
        "value": "t_address"
      },
      "t_mapping(t_uint256,t_uint256)": {
        "encoding": "mapping",
        "key": "t_uint256",
        "label": "mapping(uint256 => uint256)",
        "numberOfBytes": "32",
        "value": "t_uint256"
      },
      "t_struct(AddressSet)2057_storage": {
        "encoding": "inplace",
        "label": "struct EnumerableSet.AddressSet",
        "members": [
          {
            "astId": 2056,
            "contract": "contracts/protocol/GoldfinchConfig.sol:GoldfinchConfig",
            "label": "_inner",
            "offset": 0,
            "slot": "0",
            "type": "t_struct(Set)1877_storage"
          }
        ],
        "numberOfBytes": "64"
      },
      "t_struct(RoleData)157_storage": {
        "encoding": "inplace",
        "label": "struct AccessControlUpgradeSafe.RoleData",
        "members": [
          {
            "astId": 154,
            "contract": "contracts/protocol/GoldfinchConfig.sol:GoldfinchConfig",
            "label": "members",
            "offset": 0,
            "slot": "0",
            "type": "t_struct(AddressSet)2057_storage"
          },
          {
            "astId": 156,
            "contract": "contracts/protocol/GoldfinchConfig.sol:GoldfinchConfig",
            "label": "adminRole",
            "offset": 0,
            "slot": "2",
            "type": "t_bytes32"
          }
        ],
        "numberOfBytes": "96"
      },
      "t_struct(Set)1877_storage": {
        "encoding": "inplace",
        "label": "struct EnumerableSet.Set",
        "members": [
          {
            "astId": 1872,
            "contract": "contracts/protocol/GoldfinchConfig.sol:GoldfinchConfig",
            "label": "_values",
            "offset": 0,
            "slot": "0",
            "type": "t_array(t_bytes32)dyn_storage"
          },
          {
            "astId": 1876,
            "contract": "contracts/protocol/GoldfinchConfig.sol:GoldfinchConfig",
            "label": "_indexes",
            "offset": 0,
            "slot": "1",
            "type": "t_mapping(t_bytes32,t_uint256)"
          }
        ],
        "numberOfBytes": "64"
      },
      "t_uint256": {
        "encoding": "inplace",
        "label": "uint256",
        "numberOfBytes": "32"
      }
    }
  }
}