{
  "address": "0xd5A8ffA4DecC54a9eAAf717AF264ca81303C5F4d",
  "abi": [
    {
      "anonymous": false,
      "inputs": [
        {
          "indexed": true,
          "internalType": "address",
          "name": "capitalProvider",
          "type": "address"
        },
        {
          "indexed": false,
          "internalType": "uint256",
          "name": "amount",
          "type": "uint256"
        },
        {
          "indexed": false,
          "internalType": "uint256",
          "name": "shares",
          "type": "uint256"
        }
      ],
      "name": "DepositMade",
      "type": "event"
    },
    {
      "anonymous": false,
      "inputs": [
        {
          "indexed": true,
          "internalType": "address",
          "name": "payer",
          "type": "address"
        },
        {
          "indexed": false,
          "internalType": "uint256",
          "name": "poolAmount",
          "type": "uint256"
        },
        {
          "indexed": false,
          "internalType": "uint256",
          "name": "reserveAmount",
          "type": "uint256"
        }
      ],
      "name": "InterestCollected",
      "type": "event"
    },
    {
      "anonymous": false,
      "inputs": [
        {
          "indexed": false,
          "internalType": "address",
          "name": "account",
          "type": "address"
        }
      ],
      "name": "Paused",
      "type": "event"
    },
    {
      "anonymous": false,
      "inputs": [
        {
          "indexed": true,
          "internalType": "address",
          "name": "payer",
          "type": "address"
        },
        {
          "indexed": false,
          "internalType": "uint256",
          "name": "amount",
          "type": "uint256"
        }
      ],
      "name": "PrincipalCollected",
      "type": "event"
    },
    {
      "anonymous": false,
      "inputs": [
        {
          "indexed": true,
          "internalType": "address",
          "name": "creditline",
          "type": "address"
        },
        {
          "indexed": false,
          "internalType": "int256",
          "name": "amount",
          "type": "int256"
        }
      ],
      "name": "PrincipalWrittendown",
      "type": "event"
    },
    {
      "anonymous": false,
      "inputs": [
        {
          "indexed": true,
          "internalType": "address",
          "name": "user",
          "type": "address"
        },
        {
          "indexed": false,
          "internalType": "uint256",
          "name": "amount",
          "type": "uint256"
        }
      ],
      "name": "ReserveFundsCollected",
      "type": "event"
    },
    {
      "anonymous": false,
      "inputs": [
        {
          "indexed": true,
          "internalType": "bytes32",
          "name": "role",
          "type": "bytes32"
        },
        {
          "indexed": true,
          "internalType": "address",
          "name": "account",
          "type": "address"
        },
        {
          "indexed": true,
          "internalType": "address",
          "name": "sender",
          "type": "address"
        }
      ],
      "name": "RoleGranted",
      "type": "event"
    },
    {
      "anonymous": false,
      "inputs": [
        {
          "indexed": true,
          "internalType": "bytes32",
          "name": "role",
          "type": "bytes32"
        },
        {
          "indexed": true,
          "internalType": "address",
          "name": "account",
          "type": "address"
        },
        {
          "indexed": true,
          "internalType": "address",
          "name": "sender",
          "type": "address"
        }
      ],
      "name": "RoleRevoked",
      "type": "event"
    },
    {
      "anonymous": false,
      "inputs": [
        {
          "indexed": true,
          "internalType": "address",
          "name": "from",
          "type": "address"
        },
        {
          "indexed": true,
          "internalType": "address",
          "name": "to",
          "type": "address"
        },
        {
          "indexed": false,
          "internalType": "uint256",
          "name": "amount",
          "type": "uint256"
        }
      ],
      "name": "TransferMade",
      "type": "event"
    },
    {
      "anonymous": false,
      "inputs": [
        {
          "indexed": false,
          "internalType": "address",
          "name": "account",
          "type": "address"
        }
      ],
      "name": "Unpaused",
      "type": "event"
    },
    {
      "anonymous": false,
      "inputs": [
        {
          "indexed": true,
          "internalType": "address",
          "name": "capitalProvider",
          "type": "address"
        },
        {
          "indexed": false,
          "internalType": "uint256",
          "name": "userAmount",
          "type": "uint256"
        },
        {
          "indexed": false,
          "internalType": "uint256",
          "name": "reserveAmount",
          "type": "uint256"
        }
      ],
      "name": "WithdrawalMade",
      "type": "event"
    },
    {
      "inputs": [],
      "name": "DEFAULT_ADMIN_ROLE",
      "outputs": [
        {
          "internalType": "bytes32",
          "name": "",
          "type": "bytes32"
        }
      ],
      "stateMutability": "view",
      "type": "function"
    },
    {
      "inputs": [],
      "name": "OWNER_ROLE",
      "outputs": [
        {
          "internalType": "bytes32",
          "name": "",
          "type": "bytes32"
        }
      ],
      "stateMutability": "view",
      "type": "function"
    },
    {
      "inputs": [],
      "name": "PAUSER_ROLE",
      "outputs": [
        {
          "internalType": "bytes32",
          "name": "",
          "type": "bytes32"
        }
      ],
      "stateMutability": "view",
      "type": "function"
    },
    {
      "inputs": [
        {
          "internalType": "address",
          "name": "owner",
          "type": "address"
        }
      ],
      "name": "__BaseUpgradeablePausable__init",
      "outputs": [],
      "stateMutability": "nonpayable",
      "type": "function"
    },
    {
      "inputs": [],
      "name": "__PauserPausable__init",
      "outputs": [],
      "stateMutability": "nonpayable",
      "type": "function"
    },
    {
      "inputs": [],
      "name": "assets",
      "outputs": [
        {
          "internalType": "uint256",
          "name": "",
          "type": "uint256"
        }
      ],
      "stateMutability": "view",
      "type": "function"
    },
    {
      "inputs": [
        {
          "internalType": "address",
          "name": "from",
          "type": "address"
        },
        {
          "internalType": "uint256",
          "name": "amount",
          "type": "uint256"
        }
      ],
      "name": "collectInterestRepayment",
      "outputs": [],
      "stateMutability": "nonpayable",
      "type": "function"
    },
    {
      "inputs": [
        {
          "internalType": "address",
          "name": "from",
          "type": "address"
        },
        {
          "internalType": "uint256",
          "name": "amount",
          "type": "uint256"
        }
      ],
      "name": "collectPrincipalRepayment",
      "outputs": [],
      "stateMutability": "nonpayable",
      "type": "function"
    },
    {
      "inputs": [],
      "name": "config",
      "outputs": [
        {
          "internalType": "contract GoldfinchConfig",
          "name": "",
          "type": "address"
        }
      ],
      "stateMutability": "view",
      "type": "function"
    },
    {
      "inputs": [
        {
          "internalType": "uint256",
          "name": "amount",
          "type": "uint256"
        }
      ],
      "name": "deposit",
      "outputs": [],
      "stateMutability": "nonpayable",
      "type": "function"
    },
    {
      "inputs": [
        {
          "internalType": "address",
          "name": "creditlineAddress",
          "type": "address"
        },
        {
          "internalType": "int256",
          "name": "writedownDelta",
          "type": "int256"
        }
      ],
      "name": "distributeLosses",
      "outputs": [],
      "stateMutability": "nonpayable",
      "type": "function"
    },
    {
      "inputs": [
        {
          "internalType": "bytes32",
          "name": "role",
          "type": "bytes32"
        }
      ],
      "name": "getRoleAdmin",
      "outputs": [
        {
          "internalType": "bytes32",
          "name": "",
          "type": "bytes32"
        }
      ],
      "stateMutability": "view",
      "type": "function"
    },
    {
      "inputs": [
        {
          "internalType": "bytes32",
          "name": "role",
          "type": "bytes32"
        },
        {
          "internalType": "uint256",
          "name": "index",
          "type": "uint256"
        }
      ],
      "name": "getRoleMember",
      "outputs": [
        {
          "internalType": "address",
          "name": "",
          "type": "address"
        }
      ],
      "stateMutability": "view",
      "type": "function"
    },
    {
      "inputs": [
        {
          "internalType": "bytes32",
          "name": "role",
          "type": "bytes32"
        }
      ],
      "name": "getRoleMemberCount",
      "outputs": [
        {
          "internalType": "uint256",
          "name": "",
          "type": "uint256"
        }
      ],
      "stateMutability": "view",
      "type": "function"
    },
    {
      "inputs": [
        {
          "internalType": "bytes32",
          "name": "role",
          "type": "bytes32"
        },
        {
          "internalType": "address",
          "name": "account",
          "type": "address"
        }
      ],
      "name": "grantRole",
      "outputs": [],
      "stateMutability": "nonpayable",
      "type": "function"
    },
    {
      "inputs": [
        {
          "internalType": "bytes32",
          "name": "role",
          "type": "bytes32"
        },
        {
          "internalType": "address",
          "name": "account",
          "type": "address"
        }
      ],
      "name": "hasRole",
      "outputs": [
        {
          "internalType": "bool",
          "name": "",
          "type": "bool"
        }
      ],
      "stateMutability": "view",
      "type": "function"
    },
    {
      "inputs": [
        {
          "internalType": "address",
          "name": "owner",
          "type": "address"
        },
        {
          "internalType": "contract GoldfinchConfig",
          "name": "_config",
          "type": "address"
        }
      ],
      "name": "initialize",
      "outputs": [],
      "stateMutability": "nonpayable",
      "type": "function"
    },
    {
      "inputs": [],
      "name": "isAdmin",
      "outputs": [
        {
          "internalType": "bool",
          "name": "",
          "type": "bool"
        }
      ],
      "stateMutability": "view",
      "type": "function"
    },
    {
      "inputs": [],
      "name": "pause",
      "outputs": [],
      "stateMutability": "nonpayable",
      "type": "function"
    },
    {
      "inputs": [],
      "name": "paused",
      "outputs": [
        {
          "internalType": "bool",
          "name": "",
          "type": "bool"
        }
      ],
      "stateMutability": "view",
      "type": "function"
    },
    {
      "inputs": [
        {
          "internalType": "bytes32",
          "name": "role",
          "type": "bytes32"
        },
        {
          "internalType": "address",
          "name": "account",
          "type": "address"
        }
      ],
      "name": "renounceRole",
      "outputs": [],
      "stateMutability": "nonpayable",
      "type": "function"
    },
    {
      "inputs": [
        {
          "internalType": "bytes32",
          "name": "role",
          "type": "bytes32"
        },
        {
          "internalType": "address",
          "name": "account",
          "type": "address"
        }
      ],
      "name": "revokeRole",
      "outputs": [],
      "stateMutability": "nonpayable",
      "type": "function"
    },
    {
      "inputs": [],
      "name": "sharePrice",
      "outputs": [
        {
          "internalType": "uint256",
          "name": "",
          "type": "uint256"
        }
      ],
      "stateMutability": "view",
      "type": "function"
    },
    {
      "inputs": [
        {
          "internalType": "address",
          "name": "from",
          "type": "address"
        },
        {
          "internalType": "address",
          "name": "to",
          "type": "address"
        },
        {
          "internalType": "uint256",
          "name": "amount",
          "type": "uint256"
        }
      ],
      "name": "transferFrom",
      "outputs": [
        {
          "internalType": "bool",
          "name": "",
          "type": "bool"
        }
      ],
      "stateMutability": "nonpayable",
      "type": "function"
    },
    {
      "inputs": [],
      "name": "unpause",
      "outputs": [],
      "stateMutability": "nonpayable",
      "type": "function"
    },
    {
      "inputs": [
        {
          "internalType": "uint256",
          "name": "amount",
          "type": "uint256"
        }
      ],
      "name": "withdraw",
      "outputs": [],
      "stateMutability": "nonpayable",
      "type": "function"
    }
  ],
  "transactionHash": "0x07b69579e9389bc005e7caf881f68a30db43cef6ed9296a84fe160f1baf8ca44",
  "args": [],
  "solcInputHash": "ec5b8f84a562cb473511a7a6cca44911",
  "bytecode": "0x608060405234801561001057600080fd5b506129aa806100206000396000f3fe608060405234801561001057600080fd5b506004361061018e5760003560e01c806379502c55116100de578063b6b55f2511610097578063ca15c87311610071578063ca15c87314610304578063d547741f14610317578063e58378bb1461032a578063e63ab1e9146103325761018e565b8063b6b55f25146102d6578063b6db75a0146102e9578063bcfa41ba146102f15761018e565b806379502c55146102835780638456cb591461029857806387269729146102a05780639010d07c146102a857806391d14854146102bb578063a217fddf146102ce5761018e565b806336568abe1161014b578063526d81f611610125578063526d81f6146102585780635c975abb1461026057806364de8a071461026857806371a973051461027b5761018e565b806336568abe1461022a5780633f4ba83a1461023d578063485cc955146102455761018e565b8063097616a31461019357806323b872dd146101a8578063248a9ca3146101d15780632e1a7d4d146101f15780632f2ff15d14610204578063338744bc14610217575b600080fd5b6101a66101a1366004612153565b61033a565b005b6101bb6101b636600461218b565b610470565b6040516101c89190612362565b60405180910390f35b6101e46101df36600461224e565b61053e565b6040516101c8919061236d565b6101a66101ff36600461224e565b610553565b6101a6610212366004612266565b6107a2565b6101a6610225366004612203565b6107e6565b6101a6610238366004612266565b6108f5565b6101a6610937565b6101a66102533660046121cb565b61097c565b6101a6610b65565b6101bb610bf0565b6101a6610276366004612203565b610bfa565b6101e4610d1a565b61028b610ef0565b6040516101c89190612311565b6101a6610f00565b6101e4610f33565b61028b6102b636600461228a565b610f3a565b6101bb6102c9366004612266565b610f61565b6101e4610f7f565b6101a66102e436600461224e565b610f84565b6101bb611100565b6101a66102ff366004612203565b611111565b6101e461031236600461224e565b6111c6565b6101a6610325366004612266565b6111dd565b6101e4611217565b6101e461122e565b600054610100900460ff1680610353575061035361123a565b80610361575060005460ff16155b6103865760405162461bcd60e51b815260040161037d906127da565b60405180910390fd5b600054610100900460ff161580156103b1576000805460ff1961ff0019909116610100171660011790555b6001600160a01b0382166103d75760405162461bcd60e51b815260040161037d9061270f565b6103df611240565b6103e76112c1565b6103ef61134d565b61040c6040516103fe906122fb565b6040518091039020836107dc565b61041b6040516103fe906122e4565b61044b60405161042a906122e4565b604051809103902060405161043e906122fb565b60405180910390206113dc565b61045a60405161042a906122fb565b801561046c576000805461ff00191690555b5050565b6101c454600090610489906001600160a01b03166113f1565b6001600160a01b0316336001600160a01b0316146104b95760405162461bcd60e51b815260040161037d90612744565b60975460ff16156104dc5760405162461bcd60e51b815260040161037d9061269d565b60006104e9858585611471565b9050836001600160a01b0316856001600160a01b03167f422971e1d1a7c8b68372f65fe1426aef054f0c6290124a929c843c5c019521d68560405161052e919061236d565b60405180910390a3949350505050565b60009081526065602052604090206002015490565b60975460ff16156105765760405162461bcd60e51b815260040161037d9061269d565b600081116105965760405162461bcd60e51b815260040161037d9061285f565b61059f8161168a565b6105bb5760405162461bcd60e51b815260040161037d906126c7565b6101c4546000906105d4906001600160a01b0316611715565b6001600160a01b03166370a08231336040518263ffffffff1660e01b81526004016105ff9190612311565b60206040518083038186803b15801561061757600080fd5b505afa15801561062b573d6000803e3d6000fd5b505050506040513d601f19601f8201168201806040525081019061064f91906122ab565b9050600061065c83611720565b90508181111561067e5760405162461bcd60e51b815260040161037d906124b8565b6101c4546000906106a89061069b906001600160a01b0316611755565b859063ffffffff6117d516565b905060006106bc858363ffffffff61181716565b9050336001600160a01b03167f2d4d49c3e017b8235c908cbaa83a2431a08f3b950712696ece2088964fd399f082846040516106f9929190612951565b60405180910390a261070c303383611471565b50610718308333611859565b6101c45461072e906001600160a01b0316611715565b6001600160a01b03166379cc679033856040518363ffffffff1660e01b815260040161075b929190612325565b600060405180830381600087803b15801561077557600080fd5b505af1158015610789573d6000803e3d6000fd5b505050506107956118e4565b61079b57fe5b5050505050565b6000828152606560205260409020600201546107c0906102c9611a57565b6107dc5760405162461bcd60e51b815260040161037d9061240b565b61046c8282611a5b565b6101c4546107fc906001600160a01b03166113f1565b6001600160a01b0316336001600160a01b03161461082c5760405162461bcd60e51b815260040161037d90612744565b60975460ff161561084f5760405162461bcd60e51b815260040161037d9061269d565b600081131561088457600061086382611aca565b6101c35490915061087a908263ffffffff611ae216565b6101c355506108b0565b60006108938260001902611aca565b6101c3549091506108aa908263ffffffff61181716565b6101c355505b816001600160a01b03167f8c23a9a70a8448cfed7aae767d71bd68857b79de2d189ee6a770619ada8b857a826040516108e9919061236d565b60405180910390a25050565b6108fd611a57565b6001600160a01b0316816001600160a01b03161461092d5760405162461bcd60e51b815260040161037d906128cb565b61046c8282611b07565b610956604051610946906122e4565b60405180910390206102c9611a57565b6109725760405162461bcd60e51b815260040161037d90612896565b61097a611b76565b565b600054610100900460ff1680610995575061099561123a565b806109a3575060005460ff16155b6109bf5760405162461bcd60e51b815260040161037d906127da565b600054610100900460ff161580156109ea576000805460ff1961ff0019909116610100171660011790555b6109f38361033a565b6101c480546001600160a01b0319166001600160a01b038416179055610a17611be2565b6101c3556101c454600090610a34906001600160a01b0316611c76565b9050806001600160a01b03166318160ddd6040518163ffffffff1660e01b815260040160206040518083038186803b158015610a6f57600080fd5b505afa158015610a83573d6000803e3d6000fd5b505050506040513d601f19601f82011682018060405250810190610aa791906122ab565b5060405163095ea7b360e01b81526000906001600160a01b0383169063095ea7b390610adb90309060001990600401612325565b602060405180830381600087803b158015610af557600080fd5b505af1158015610b09573d6000803e3d6000fd5b505050506040513d601f19601f82011682018060405250810190610b2d919061222e565b905080610b4c5760405162461bcd60e51b815260040161037d90612488565b50508015610b60576000805461ff00191690555b505050565b600054610100900460ff1680610b7e5750610b7e61123a565b80610b8c575060005460ff16155b610ba85760405162461bcd60e51b815260040161037d906127da565b600054610100900460ff16158015610bd3576000805460ff1961ff0019909116610100171660011790555b610bdb6112c1565b8015610bed576000805461ff00191690555b50565b60975460ff165b90565b6101c454610c10906001600160a01b03166113f1565b6001600160a01b0316336001600160a01b031614610c405760405162461bcd60e51b815260040161037d90612744565b60975460ff1615610c635760405162461bcd60e51b815260040161037d9061269d565b6101c454600090610c8d90610c80906001600160a01b0316611c8e565b839063ffffffff6117d516565b90506000610ca1838363ffffffff61181716565b9050836001600160a01b03167f9bbd517758fbae61197f1c1c04c8614064e89512dbaf4350dcdf76fcaa5e21618284604051610cde929190612951565b60405180910390a26000610cf182611aca565b6101c38054820190559050610d07858481611859565b610d12853084611471565b505050505050565b6101c454600090610eeb90610d37906001600160a01b0316611ca6565b6001600160a01b031663a6f4487e6040518163ffffffff1660e01b815260040160206040518083038186803b158015610d6f57600080fd5b505afa158015610d83573d6000803e3d6000fd5b505050506040513d601f19601f82011682018060405250810190610da791906122ab565b6101c454610edf90610dc1906001600160a01b0316611ca6565b6001600160a01b031663ed80c8506040518163ffffffff1660e01b815260040160206040518083038186803b158015610df957600080fd5b505afa158015610e0d573d6000803e3d6000fd5b505050506040513d601f19601f82011682018060405250810190610e3191906122ab565b6101c454610e47906001600160a01b0316611c76565b6101c4546001600160a01b03918216916370a0823191610e679116611cb1565b6040518263ffffffff1660e01b8152600401610e839190612311565b60206040518083038186803b158015610e9b57600080fd5b505afa158015610eaf573d6000803e3d6000fd5b505050506040513d601f19601f82011682018060405250810190610ed391906122ab565b9063ffffffff611ae216565b9063ffffffff61181716565b905090565b6101c4546001600160a01b031681565b610f0f604051610946906122e4565b610f2b5760405162461bcd60e51b815260040161037d90612666565b61097a611cc8565b6101c35481565b6000828152606560205260408120610f58908363ffffffff611d2116565b90505b92915050565b6000828152606560205260408120610f58908363ffffffff611d2d16565b600081565b60975460ff1615610fa75760405162461bcd60e51b815260040161037d9061269d565b60008111610fc75760405162461bcd60e51b815260040161037d9061291a565b610fd08161168a565b610fec5760405162461bcd60e51b815260040161037d906126c7565b6000610ff782611720565b9050600061100782610ed3611d42565b905061101281611dcb565b61102e5760405162461bcd60e51b815260040161037d90612583565b336001600160a01b03167f0b05f0d1cd0819f155b8a61f60baf7767c1ee49d04aeaab701df236140eb93f98484604051611069929190612951565b60405180910390a261107c333085611471565b506101c454611093906001600160a01b0316611715565b6001600160a01b031663449a52f833846040518363ffffffff1660e01b81526004016110c0929190612325565b600060405180830381600087803b1580156110da57600080fd5b505af11580156110ee573d6000803e3d6000fd5b505050506110fa6118e4565b610b6057fe5b6000610eeb604051610946906122fb565b6101c454611127906001600160a01b03166113f1565b6001600160a01b0316336001600160a01b0316146111575760405162461bcd60e51b815260040161037d90612744565b60975460ff161561117a5760405162461bcd60e51b815260040161037d9061269d565b816001600160a01b03167f8295ad220549851bab232c2a7ae2e3c53a63d2294602bc85f8d8af108778a37e826040516111b3919061236d565b60405180910390a2610b60823083611471565b6000818152606560205260408120610f5b90611e7f565b6000828152606560205260409020600201546111fb906102c9611a57565b61092d5760405162461bcd60e51b815260040161037d90612616565b604051611223906122fb565b604051809103902081565b604051611223906122e4565b303b1590565b600054610100900460ff1680611259575061125961123a565b80611267575060005460ff16155b6112835760405162461bcd60e51b815260040161037d906127da565b600054610100900460ff16158015610bdb576000805460ff1961ff0019909116610100171660011790558015610bed576000805461ff001916905550565b600054610100900460ff16806112da57506112da61123a565b806112e8575060005460ff16155b6113045760405162461bcd60e51b815260040161037d906127da565b600054610100900460ff1615801561132f576000805460ff1961ff0019909116610100171660011790555b6097805460ff191690558015610bed576000805461ff001916905550565b600054610100900460ff1680611366575061136661123a565b80611374575060005460ff16155b6113905760405162461bcd60e51b815260040161037d906127da565b600054610100900460ff161580156113bb576000805460ff1961ff0019909116610100171660011790555b60c9805460ff191660011790558015610bed576000805461ff001916905550565b60009182526065602052604090912060020155565b60006001600160a01b03821663b93f9b0a60035b6040518263ffffffff1660e01b8152600401611421919061236d565b60206040518083038186803b15801561143957600080fd5b505afa15801561144d573d6000803e3d6000fd5b505050506040513d601f19601f82011682018060405250810190610f5b919061216f565b600061147c8261168a565b6114985760405162461bcd60e51b815260040161037d906126c7565b6001600160a01b0383166114be5760405162461bcd60e51b815260040161037d90612515565b6101c4546000906114d7906001600160a01b0316611c76565b90506000816001600160a01b03166370a08231866040518263ffffffff1660e01b81526004016115079190612311565b60206040518083038186803b15801561151f57600080fd5b505afa158015611533573d6000803e3d6000fd5b505050506040513d601f19601f8201168201806040525081019061155791906122ab565b90506000826001600160a01b03166323b872dd8888886040518463ffffffff1660e01b815260040161158b9392919061233e565b602060405180830381600087803b1580156115a557600080fd5b505af11580156115b9573d6000803e3d6000fd5b505050506040513d601f19601f820116820180604052508101906115dd919061222e565b90506000836001600160a01b03166370a08231886040518263ffffffff1660e01b815260040161160d9190612311565b60206040518083038186803b15801561162557600080fd5b505afa158015611639573d6000803e3d6000fd5b505050506040513d601f19601f8201168201806040525081019061165d91906122ab565b90508281101561167f5760405162461bcd60e51b815260040161037d90612828565b509695505050505050565b6101c454604051631f8ac6cb60e31b81526000916001600160a01b03169063fc563658906116bc90849060040161236d565b60206040518083038186803b1580156116d457600080fd5b505afa1580156116e8573d6000803e3d6000fd5b505050506040513d601f19601f8201168201806040525081019061170c91906122ab565b90911115919050565b6000610f5b82611e8a565b6000610f5b6101c354611749611734611be2565b61173d86611ea2565b9063ffffffff611ec716565b9063ffffffff6117d516565b60006001600160a01b03821663fc56365860045b6040518263ffffffff1660e01b8152600401611785919061236d565b60206040518083038186803b15801561179d57600080fd5b505afa1580156117b1573d6000803e3d6000fd5b505050506040513d601f19601f82011682018060405250810190610f5b91906122ab565b6000610f5883836040518060400160405280601a81526020017f536166654d6174683a206469766973696f6e206279207a65726f000000000000815250611f01565b6000610f5883836040518060400160405280601e81526020017f536166654d6174683a207375627472616374696f6e206f766572666c6f770000815250611f38565b806001600160a01b03167ff3583f178a8d4f8888c3683f8e948faf9b6eb701c4f1fab265a6ecad1a1ddebb83604051611892919061236d565b60405180910390a26101c4546000906118bf9085906118b9906001600160a01b0316611f64565b85611471565b9050806118de5760405162461bcd60e51b815260040161037d906125d3565b50505050565b600080611a026118f2611be2565b6101c4546117499061190c906001600160a01b0316611f7c565b6001600160a01b031663872697296040518163ffffffff1660e01b815260040160206040518083038186803b15801561194457600080fd5b505afa158015611958573d6000803e3d6000fd5b505050506040513d601f19601f8201168201806040525081019061197c91906122ab565b6101c454611992906001600160a01b0316611715565b6001600160a01b03166318160ddd6040518163ffffffff1660e01b815260040160206040518083038186803b1580156119ca57600080fd5b505afa1580156119de573d6000803e3d6000fd5b505050506040513d601f19601f8201168201806040525081019061173d91906122ab565b90506000611a0f82611f87565b90506000611a1b610d1a565b9050620f4240828210611a465780611a39838563ffffffff61181716565b1115945050505050610bf7565b80611a39848463ffffffff61181716565b3390565b6000828152606560205260409020611a79908263ffffffff611f9f16565b1561046c57611a86611a57565b6001600160a01b0316816001600160a01b0316837f2f8788117e7eff1d82e926ec794901d17c78024a50270940304540a733656f0d60405160405180910390a45050565b6000610f5b611ad7611d42565b611749611734611be2565b600082820183811015610f585760405162461bcd60e51b815260040161037d9061254c565b6000828152606560205260409020611b25908263ffffffff611fb416565b1561046c57611b32611a57565b6001600160a01b0316816001600160a01b0316837ff6391f5c32d9c69d2a47ea670b442974b53935d1edc7fd64eb21e047a839171b60405160405180910390a45050565b60975460ff16611b985760405162461bcd60e51b815260040161037d9061245a565b6097805460ff191690557f5db9ee0a495bf2e6ff9c91a7834c1ba4fdd244a5e8aa4e537bd38aeae4b073aa611bcb611a57565b604051611bd89190612311565b60405180910390a1565b6101c454600090611bfb906001600160a01b0316611715565b6001600160a01b031663313ce5676040518163ffffffff1660e01b815260040160206040518083038186803b158015611c3357600080fd5b505afa158015611c47573d6000803e3d6000fd5b505050506040513d601f19601f82011682018060405250810190611c6b91906122c3565b60ff16600a0a905090565b60006001600160a01b03821663b93f9b0a6005611405565b60006001600160a01b03821663fc5636586003611769565b6000610f5b826113f1565b60006001600160a01b03821663b93f9b0a82611405565b60975460ff1615611ceb5760405162461bcd60e51b815260040161037d9061269d565b6097805460ff191660011790557f62e78cea01bee320cd4e420270b5ea74000d11b0c9f74754ebdbfc544b05a258611bcb611a57565b6000610f588383611fc9565b6000610f58836001600160a01b03841661200e565b6101c454600090611d5b906001600160a01b0316611715565b6001600160a01b03166318160ddd6040518163ffffffff1660e01b815260040160206040518083038186803b158015611d9357600080fd5b505afa158015611da7573d6000803e3d6000fd5b505050506040513d601f19601f82011682018060405250810190610eeb91906122ab565b6101c454600090611e57906001600160a01b031663fc56365860016040518263ffffffff1660e01b8152600401611e02919061236d565b60206040518083038186803b158015611e1a57600080fd5b505afa158015611e2e573d6000803e3d6000fd5b505050506040513d601f19601f82011682018060405250810190611e5291906122ab565b611ea2565b611e77611e62611be2565b6101c35461174990869063ffffffff611ec716565b111592915050565b6000610f5b82612026565b60006001600160a01b03821663b93f9b0a6004611405565b6000610f5b611eaf61202a565b611749611eba611be2565b859063ffffffff611ec716565b600082611ed657506000610f5b565b82820282848281611ee357fe5b0414610f585760405162461bcd60e51b815260040161037d90612799565b60008183611f225760405162461bcd60e51b815260040161037d9190612376565b506000838581611f2e57fe5b0495945050505050565b60008184841115611f5c5760405162461bcd60e51b815260040161037d9190612376565b505050900390565b60006001600160a01b03821663b93f9b0a6006611405565b6000610f5b82611cb1565b6000610f5b610c80611f9761202a565b611749611be2565b6000610f58836001600160a01b038416612043565b6000610f58836001600160a01b03841661208d565b81546000908210611fec5760405162461bcd60e51b815260040161037d906123c9565b826000018281548110611ffb57fe5b9060005260206000200154905092915050565b60009081526001919091016020526040902054151590565b5490565b6101c454600090611bfb906001600160a01b0316611c76565b600061204f838361200e565b61208557508154600181810184556000848152602080822090930184905584548482528286019093526040902091909155610f5b565b506000610f5b565b6000818152600183016020526040812054801561214957835460001980830191908101906000908790839081106120c057fe5b90600052602060002001549050808760000184815481106120dd57fe5b60009182526020808320909101929092558281526001898101909252604090209084019055865487908061210d57fe5b60019003818190600052602060002001600090559055866001016000878152602001908152602001600020600090556001945050505050610f5b565b6000915050610f5b565b600060208284031215612164578081fd5b8135610f588161295f565b600060208284031215612180578081fd5b8151610f588161295f565b60008060006060848603121561219f578182fd5b83356121aa8161295f565b925060208401356121ba8161295f565b929592945050506040919091013590565b600080604083850312156121dd578182fd5b82356121e88161295f565b915060208301356121f88161295f565b809150509250929050565b60008060408385031215612215578182fd5b82356122208161295f565b946020939093013593505050565b60006020828403121561223f578081fd5b81518015158114610f58578182fd5b60006020828403121561225f578081fd5b5035919050565b60008060408385031215612278578182fd5b8235915060208301356121f88161295f565b6000806040838503121561229c578182fd5b50508035926020909101359150565b6000602082840312156122bc578081fd5b5051919050565b6000602082840312156122d4578081fd5b815160ff81168114610f58578182fd5b6a5041555345525f524f4c4560a81b8152600b0190565b694f574e45525f524f4c4560b01b8152600a0190565b6001600160a01b0391909116815260200190565b6001600160a01b03929092168252602082015260400190565b6001600160a01b039384168152919092166020820152604081019190915260600190565b901515815260200190565b90815260200190565b6000602080835283518082850152825b818110156123a257858101830151858201604001528201612386565b818111156123b35783604083870101525b50601f01601f1916929092016040019392505050565b60208082526022908201527f456e756d657261626c655365743a20696e646578206f7574206f6620626f756e604082015261647360f01b606082015260800190565b6020808252602f908201527f416363657373436f6e74726f6c3a2073656e646572206d75737420626520616e60408201526e0818591b5a5b881d1bc819dc985b9d608a1b606082015260800190565b60208082526014908201527314185d5cd8589b194e881b9bdd081c185d5cd95960621b604082015260600190565b6020808252601690820152754661696c656420746f20617070726f7665205553444360501b604082015260600190565b60208082526037908201527f416d6f756e74207265717565737465642069732067726561746572207468616e60408201527f207768617420746869732061646472657373206f776e73000000000000000000606082015260800190565b6020808252601a908201527f43616e27742073656e6420746f207a65726f2061646472657373000000000000604082015260600190565b6020808252601b908201527f536166654d6174683a206164646974696f6e206f766572666c6f770000000000604082015260600190565b60208082526030908201527f4465706f73697420776f756c64207075742074686520506f6f6c206f7665722060408201526f3a3432903a37ba30b6103634b6b4ba1760811b606082015260800190565b60208082526023908201527f52657365727665207472616e7366657220776173206e6f742073756363657373604082015262199d5b60ea1b606082015260800190565b60208082526030908201527f416363657373436f6e74726f6c3a2073656e646572206d75737420626520616e60408201526f2061646d696e20746f207265766f6b6560801b606082015260800190565b6020808252601e908201527f4d75737420686176652070617573657220726f6c6520746f2070617573650000604082015260600190565b60208082526010908201526f14185d5cd8589b194e881c185d5cd95960821b604082015260600190565b60208082526028908201527f416d6f756e74206973206f76657220746865207065722d7472616e73616374696040820152671bdb881b1a5b5a5d60c21b606082015260800190565b6020808252818101527f4f776e65722063616e6e6f7420626520746865207a65726f2061646472657373604082015260600190565b60208082526035908201527f4f6e6c792074686520637265646974206465736b20697320616c6c6f776564206040820152743a379031b0b636103a3434b990333ab731ba34b7b760591b606082015260800190565b60208082526021908201527f536166654d6174683a206d756c7469706c69636174696f6e206f766572666c6f6040820152607760f81b606082015260800190565b6020808252602e908201527f436f6e747261637420696e7374616e63652068617320616c726561647920626560408201526d195b881a5b9a5d1a585b1a5e995960921b606082015260800190565b6020808252601d908201527f546f6b656e205472616e73666572204f766572666c6f77204572726f72000000604082015260600190565b6020808252601c908201527f4d757374207769746864726177206d6f7265207468616e207a65726f00000000604082015260600190565b6020808252818101527f4d75737420686176652070617573657220726f6c6520746f20756e7061757365604082015260600190565b6020808252602f908201527f416363657373436f6e74726f6c3a2063616e206f6e6c792072656e6f756e636560408201526e103937b632b9903337b91039b2b63360891b606082015260800190565b6020808252601b908201527f4d757374206465706f736974206d6f7265207468616e207a65726f0000000000604082015260600190565b918252602082015260400190565b6001600160a01b0381168114610bed57600080fdfea2646970667358221220fabee02c8676982bfd88f5e834430bf1e2c33f06ff1e61efebf34982c584fab064736f6c63430006080033",
  "devdoc": {
    "author": "Goldfinch",
    "methods": {
      "collectInterestRepayment(address,uint256)": {
        "params": {
          "amount": "the amount of USDC to move to the Pool   * Requirements: - The caller must be the Credit Desk. Not even the owner can call this function.",
          "from": "The address to take the USDC from. Implicitly, the Pool must be authorized to move USDC on behalf of `from`."
        }
      },
      "collectPrincipalRepayment(address,uint256)": {
        "params": {
          "amount": "the amount of USDC to move to the Pool   * Requirements: - The caller must be the Credit Desk. Not even the owner can call this function.",
          "from": "The address to take the USDC from. Implicitly, the Pool must be authorized to move USDC on behalf of `from`."
        }
      },
      "deposit(uint256)": {
        "params": {
          "amount": "The amount of USDC to deposit"
        }
      },
      "getRoleAdmin(bytes32)": {
        "details": "Returns the admin role that controls `role`. See {grantRole} and {revokeRole}.     * To change a role's admin, use {_setRoleAdmin}."
      },
      "getRoleMember(bytes32,uint256)": {
        "details": "Returns one of the accounts that have `role`. `index` must be a value between 0 and {getRoleMemberCount}, non-inclusive.     * Role bearers are not sorted in any particular way, and their ordering may change at any point.     * WARNING: When using {getRoleMember} and {getRoleMemberCount}, make sure you perform all queries on the same block. See the following https://forum.openzeppelin.com/t/iterating-over-elements-on-enumerableset-in-openzeppelin-contracts/2296[forum post] for more information."
      },
      "getRoleMemberCount(bytes32)": {
        "details": "Returns the number of accounts that have `role`. Can be used together with {getRoleMember} to enumerate all bearers of a role."
      },
      "grantRole(bytes32,address)": {
        "details": "Grants `role` to `account`.     * If `account` had not been already granted `role`, emits a {RoleGranted} event.     * Requirements:     * - the caller must have ``role``'s admin role."
      },
      "hasRole(bytes32,address)": {
        "details": "Returns `true` if `account` has been granted `role`."
      },
      "initialize(address,address)": {
        "params": {
          "_config": "The address of the GoldfinchConfig contract",
          "owner": "The address of who should have the \"OWNER_ROLE\" of this contract"
        }
      },
      "pause()": {
        "details": "Pauses all functions guarded by Pause   * See {Pausable-_pause}.   * Requirements:   * - the caller must have the PAUSER_ROLE."
      },
      "paused()": {
        "details": "Returns true if the contract is paused, and false otherwise."
      },
      "renounceRole(bytes32,address)": {
        "details": "Revokes `role` from the calling account.     * Roles are often managed via {grantRole} and {revokeRole}: this function's purpose is to provide a mechanism for accounts to lose their privileges if they are compromised (such as when a trusted device is misplaced).     * If the calling account had been granted `role`, emits a {RoleRevoked} event.     * Requirements:     * - the caller must be `account`."
      },
      "revokeRole(bytes32,address)": {
        "details": "Revokes `role` from `account`.     * If `account` had been granted `role`, emits a {RoleRevoked} event.     * Requirements:     * - the caller must have ``role``'s admin role."
      },
      "transferFrom(address,address,uint256)": {
        "params": {
          "amount": "the amount of USDC to move to the Pool   * Requirements: - The caller must be the Credit Desk. Not even the owner can call this function.",
          "from": "The address to take the USDC from. Implicitly, the Pool must be authorized to move USDC on behalf of `from`.",
          "to": "The address that the USDC should be moved to"
        }
      },
      "unpause()": {
        "details": "Unpauses the contract   * See {Pausable-_unpause}.   * Requirements:   * - the caller must have the Pauser role"
      },
      "withdraw(uint256)": {
        "params": {
          "amount": "The amount of USDC to withdraw"
        }
      }
    },
    "title": "Goldfinch's Pool contract"
  },
  "userdoc": {
    "methods": {
      "collectInterestRepayment(address,uint256)": {
        "notice": "Collects `amount` USDC in interest from `from` and sends it to the Pool. This also increases the share price accordingly. A portion is sent to the Goldfinch Reserve address"
      },
      "collectPrincipalRepayment(address,uint256)": {
        "notice": "Collects `amount` USDC in principal from `from` and sends it to the Pool. The key difference from `collectInterestPayment` is that this does not change the sharePrice. The reason it does not is because the principal is already baked in. ie. we implicitly assume all principal will be returned to the Pool. But if borrowers are late with payments, we have a writedown schedule that adjusts the sharePrice downwards to reflect the lowered confidence in that borrower."
      },
      "deposit(uint256)": {
        "notice": "Deposits `amount` USDC from msg.sender into the Pool, and returns you the equivalent value of FIDU tokens"
      },
      "initialize(address,address)": {
        "notice": "Run only once, on initialization"
      },
      "transferFrom(address,address,uint256)": {
        "notice": "Moves `amount` USDC from `from`, to `to`."
      },
      "withdraw(uint256)": {
        "notice": "Withdraws `amount` USDC from the Pool to msg.sender, and burns the equivalent value of FIDU tokens"
      }
    },
    "notice": "Main entry point for LP's (a.k.a. capital providers) Handles key logic for depositing and withdrawing funds from the Pool"
  },
  "storageLayout": {
    "storage": [
      {
        "astId": 49,
        "contract": "contracts/protocol/Pool.sol:Pool",
        "label": "initialized",
        "offset": 0,
        "slot": "0",
        "type": "t_bool"
      },
      {
        "astId": 51,
        "contract": "contracts/protocol/Pool.sol:Pool",
        "label": "initializing",
        "offset": 1,
        "slot": "0",
        "type": "t_bool"
      },
      {
        "astId": 116,
        "contract": "contracts/protocol/Pool.sol:Pool",
        "label": "______gap",
        "offset": 0,
        "slot": "1",
        "type": "t_array(t_uint256)50_storage"
      },
      {
        "astId": 43,
        "contract": "contracts/protocol/Pool.sol:Pool",
        "label": "__gap",
        "offset": 0,
        "slot": "51",
        "type": "t_array(t_uint256)50_storage"
      },
      {
        "astId": 161,
        "contract": "contracts/protocol/Pool.sol:Pool",
        "label": "_roles",
        "offset": 0,
        "slot": "101",
        "type": "t_mapping(t_bytes32,t_struct(RoleData)157_storage)"
      },
      {
        "astId": 406,
        "contract": "contracts/protocol/Pool.sol:Pool",
        "label": "__gap",
        "offset": 0,
        "slot": "102",
        "type": "t_array(t_uint256)49_storage"
      },
      {
        "astId": 2282,
        "contract": "contracts/protocol/Pool.sol:Pool",
        "label": "_paused",
        "offset": 0,
        "slot": "151",
        "type": "t_bool"
      },
      {
        "astId": 2371,
        "contract": "contracts/protocol/Pool.sol:Pool",
        "label": "__gap",
        "offset": 0,
        "slot": "152",
        "type": "t_array(t_uint256)49_storage"
      },
      {
        "astId": 2380,
        "contract": "contracts/protocol/Pool.sol:Pool",
        "label": "_notEntered",
        "offset": 0,
        "slot": "201",
        "type": "t_bool"
      },
      {
        "astId": 2421,
        "contract": "contracts/protocol/Pool.sol:Pool",
        "label": "__gap",
        "offset": 0,
        "slot": "202",
        "type": "t_array(t_uint256)49_storage"
      },
      {
        "astId": 4609,
        "contract": "contracts/protocol/Pool.sol:Pool",
        "label": "__gap1",
        "offset": 0,
        "slot": "251",
        "type": "t_array(t_uint256)50_storage"
      },
      {
        "astId": 4613,
        "contract": "contracts/protocol/Pool.sol:Pool",
        "label": "__gap2",
        "offset": 0,
        "slot": "301",
        "type": "t_array(t_uint256)50_storage"
      },
      {
        "astId": 4617,
        "contract": "contracts/protocol/Pool.sol:Pool",
        "label": "__gap3",
        "offset": 0,
        "slot": "351",
        "type": "t_array(t_uint256)50_storage"
      },
      {
        "astId": 4621,
        "contract": "contracts/protocol/Pool.sol:Pool",
        "label": "__gap4",
        "offset": 0,
        "slot": "401",
        "type": "t_array(t_uint256)50_storage"
      },
      {
        "astId": 4016,
        "contract": "contracts/protocol/Pool.sol:Pool",
        "label": "sharePrice",
        "offset": 0,
        "slot": "451",
        "type": "t_uint256"
      },
      {
        "astId": 7632,
        "contract": "contracts/protocol/Pool.sol:Pool",
        "label": "config",
        "offset": 0,
        "slot": "452",
        "type": "t_contract(GoldfinchConfig)7562"
      }
    ],
    "types": {
      "t_array(t_bytes32)dyn_storage": {
        "base": "t_bytes32",
        "encoding": "dynamic_array",
        "label": "bytes32[]",
        "numberOfBytes": "32"
      },
      "t_array(t_uint256)49_storage": {
        "base": "t_uint256",
        "encoding": "inplace",
        "label": "uint256[49]",
        "numberOfBytes": "1568"
      },
      "t_array(t_uint256)50_storage": {
        "base": "t_uint256",
        "encoding": "inplace",
        "label": "uint256[50]",
        "numberOfBytes": "1600"
      },
      "t_bool": {
        "encoding": "inplace",
        "label": "bool",
        "numberOfBytes": "1"
      },
      "t_bytes32": {
        "encoding": "inplace",
        "label": "bytes32",
        "numberOfBytes": "32"
      },
      "t_contract(GoldfinchConfig)7562": {
        "encoding": "inplace",
        "label": "contract GoldfinchConfig",
        "numberOfBytes": "20"
      },
      "t_mapping(t_bytes32,t_struct(RoleData)157_storage)": {
        "encoding": "mapping",
        "key": "t_bytes32",
        "label": "mapping(bytes32 => struct AccessControlUpgradeSafe.RoleData)",
        "numberOfBytes": "32",
        "value": "t_struct(RoleData)157_storage"
      },
      "t_mapping(t_bytes32,t_uint256)": {
        "encoding": "mapping",
        "key": "t_bytes32",
        "label": "mapping(bytes32 => uint256)",
        "numberOfBytes": "32",
        "value": "t_uint256"
      },
      "t_struct(AddressSet)2057_storage": {
        "encoding": "inplace",
        "label": "struct EnumerableSet.AddressSet",
        "members": [
          {
            "astId": 2056,
            "contract": "contracts/protocol/Pool.sol:Pool",
            "label": "_inner",
            "offset": 0,
            "slot": "0",
            "type": "t_struct(Set)1877_storage"
          }
        ],
        "numberOfBytes": "64"
      },
      "t_struct(RoleData)157_storage": {
        "encoding": "inplace",
        "label": "struct AccessControlUpgradeSafe.RoleData",
        "members": [
          {
            "astId": 154,
            "contract": "contracts/protocol/Pool.sol:Pool",
            "label": "members",
            "offset": 0,
            "slot": "0",
            "type": "t_struct(AddressSet)2057_storage"
          },
          {
            "astId": 156,
            "contract": "contracts/protocol/Pool.sol:Pool",
            "label": "adminRole",
            "offset": 0,
            "slot": "2",
            "type": "t_bytes32"
          }
        ],
        "numberOfBytes": "96"
      },
      "t_struct(Set)1877_storage": {
        "encoding": "inplace",
        "label": "struct EnumerableSet.Set",
        "members": [
          {
            "astId": 1872,
            "contract": "contracts/protocol/Pool.sol:Pool",
            "label": "_values",
            "offset": 0,
            "slot": "0",
            "type": "t_array(t_bytes32)dyn_storage"
          },
          {
            "astId": 1876,
            "contract": "contracts/protocol/Pool.sol:Pool",
            "label": "_indexes",
            "offset": 0,
            "slot": "1",
            "type": "t_mapping(t_bytes32,t_uint256)"
          }
        ],
        "numberOfBytes": "64"
      },
      "t_uint256": {
        "encoding": "inplace",
        "label": "uint256",
        "numberOfBytes": "32"
      }
    }
  }
}