{
  "abi": [
    {
      "anonymous": false,
      "inputs": [
        {
          "indexed": true,
          "internalType": "address",
          "name": "capitalProvider",
          "type": "address"
        },
        {
          "indexed": false,
          "internalType": "uint256",
          "name": "amount",
          "type": "uint256"
        },
        {
          "indexed": false,
          "internalType": "uint256",
          "name": "shares",
          "type": "uint256"
        }
      ],
      "name": "DepositMade",
      "type": "event"
    },
    {
      "anonymous": false,
      "inputs": [
        {
          "indexed": true,
          "internalType": "address",
          "name": "payer",
          "type": "address"
        },
        {
          "indexed": false,
          "internalType": "uint256",
          "name": "poolAmount",
          "type": "uint256"
        },
        {
          "indexed": false,
          "internalType": "uint256",
          "name": "reserveAmount",
          "type": "uint256"
        }
      ],
      "name": "InterestCollected",
      "type": "event"
    },
    {
      "anonymous": false,
      "inputs": [
        {
          "indexed": false,
          "internalType": "address",
          "name": "account",
          "type": "address"
        }
      ],
      "name": "Paused",
      "type": "event"
    },
    {
      "anonymous": false,
      "inputs": [
        {
          "indexed": true,
          "internalType": "address",
          "name": "payer",
          "type": "address"
        },
        {
          "indexed": false,
          "internalType": "uint256",
          "name": "amount",
          "type": "uint256"
        }
      ],
      "name": "PrincipalCollected",
      "type": "event"
    },
    {
      "anonymous": false,
      "inputs": [
        {
          "indexed": true,
          "internalType": "address",
          "name": "creditline",
          "type": "address"
        },
        {
          "indexed": false,
          "internalType": "int256",
          "name": "amount",
          "type": "int256"
        }
      ],
      "name": "PrincipalWrittendown",
      "type": "event"
    },
    {
      "anonymous": false,
      "inputs": [
        {
          "indexed": true,
          "internalType": "address",
          "name": "user",
          "type": "address"
        },
        {
          "indexed": false,
          "internalType": "uint256",
          "name": "amount",
          "type": "uint256"
        }
      ],
      "name": "ReserveFundsCollected",
      "type": "event"
    },
    {
      "anonymous": false,
      "inputs": [
        {
          "indexed": true,
          "internalType": "bytes32",
          "name": "role",
          "type": "bytes32"
        },
        {
          "indexed": true,
          "internalType": "address",
          "name": "account",
          "type": "address"
        },
        {
          "indexed": true,
          "internalType": "address",
          "name": "sender",
          "type": "address"
        }
      ],
      "name": "RoleGranted",
      "type": "event"
    },
    {
      "anonymous": false,
      "inputs": [
        {
          "indexed": true,
          "internalType": "bytes32",
          "name": "role",
          "type": "bytes32"
        },
        {
          "indexed": true,
          "internalType": "address",
          "name": "account",
          "type": "address"
        },
        {
          "indexed": true,
          "internalType": "address",
          "name": "sender",
          "type": "address"
        }
      ],
      "name": "RoleRevoked",
      "type": "event"
    },
    {
      "anonymous": false,
      "inputs": [
        {
          "indexed": true,
          "internalType": "address",
          "name": "from",
          "type": "address"
        },
        {
          "indexed": true,
          "internalType": "address",
          "name": "to",
          "type": "address"
        },
        {
          "indexed": false,
          "internalType": "uint256",
          "name": "amount",
          "type": "uint256"
        }
      ],
      "name": "TransferMade",
      "type": "event"
    },
    {
      "anonymous": false,
      "inputs": [
        {
          "indexed": false,
          "internalType": "address",
          "name": "account",
          "type": "address"
        }
      ],
      "name": "Unpaused",
      "type": "event"
    },
    {
      "anonymous": false,
      "inputs": [
        {
          "indexed": true,
          "internalType": "address",
          "name": "capitalProvider",
          "type": "address"
        },
        {
          "indexed": false,
          "internalType": "uint256",
          "name": "userAmount",
          "type": "uint256"
        },
        {
          "indexed": false,
          "internalType": "uint256",
          "name": "reserveAmount",
          "type": "uint256"
        }
      ],
      "name": "WithdrawalMade",
      "type": "event"
    },
    {
      "inputs": [],
      "name": "DEFAULT_ADMIN_ROLE",
      "outputs": [
        {
          "internalType": "bytes32",
          "name": "",
          "type": "bytes32"
        }
      ],
      "stateMutability": "view",
      "type": "function"
    },
    {
      "inputs": [],
      "name": "OWNER_ROLE",
      "outputs": [
        {
          "internalType": "bytes32",
          "name": "",
          "type": "bytes32"
        }
      ],
      "stateMutability": "view",
      "type": "function"
    },
    {
      "inputs": [],
      "name": "PAUSER_ROLE",
      "outputs": [
        {
          "internalType": "bytes32",
          "name": "",
          "type": "bytes32"
        }
      ],
      "stateMutability": "view",
      "type": "function"
    },
    {
      "inputs": [
        {
          "internalType": "address",
          "name": "owner",
          "type": "address"
        }
      ],
      "name": "__BaseUpgradeablePausable__init",
      "outputs": [],
      "stateMutability": "nonpayable",
      "type": "function"
    },
    {
      "inputs": [],
      "name": "__PauserPausable__init",
      "outputs": [],
      "stateMutability": "nonpayable",
      "type": "function"
    },
    {
      "inputs": [
        {
          "internalType": "address",
          "name": "from",
          "type": "address"
        },
        {
          "internalType": "uint256",
          "name": "amount",
          "type": "uint256"
        }
      ],
      "name": "collectInterestRepayment",
      "outputs": [],
      "stateMutability": "nonpayable",
      "type": "function"
    },
    {
      "inputs": [
        {
          "internalType": "address",
          "name": "from",
          "type": "address"
        },
        {
          "internalType": "uint256",
          "name": "amount",
          "type": "uint256"
        }
      ],
      "name": "collectPrincipalRepayment",
      "outputs": [],
      "stateMutability": "nonpayable",
      "type": "function"
    },
    {
      "inputs": [],
      "name": "config",
      "outputs": [
        {
          "internalType": "contract GoldfinchConfig",
          "name": "",
          "type": "address"
        }
      ],
      "stateMutability": "view",
      "type": "function"
    },
    {
      "inputs": [
        {
          "internalType": "uint256",
          "name": "amount",
          "type": "uint256"
        }
      ],
      "name": "deposit",
      "outputs": [],
      "stateMutability": "nonpayable",
      "type": "function"
    },
    {
      "inputs": [
        {
          "internalType": "address",
          "name": "creditlineAddress",
          "type": "address"
        },
        {
          "internalType": "int256",
          "name": "writedownDelta",
          "type": "int256"
        }
      ],
      "name": "distributeLosses",
      "outputs": [],
      "stateMutability": "nonpayable",
      "type": "function"
    },
    {
      "inputs": [
        {
          "internalType": "bytes32",
          "name": "role",
          "type": "bytes32"
        }
      ],
      "name": "getRoleAdmin",
      "outputs": [
        {
          "internalType": "bytes32",
          "name": "",
          "type": "bytes32"
        }
      ],
      "stateMutability": "view",
      "type": "function"
    },
    {
      "inputs": [
        {
          "internalType": "bytes32",
          "name": "role",
          "type": "bytes32"
        },
        {
          "internalType": "uint256",
          "name": "index",
          "type": "uint256"
        }
      ],
      "name": "getRoleMember",
      "outputs": [
        {
          "internalType": "address",
          "name": "",
          "type": "address"
        }
      ],
      "stateMutability": "view",
      "type": "function"
    },
    {
      "inputs": [
        {
          "internalType": "bytes32",
          "name": "role",
          "type": "bytes32"
        }
      ],
      "name": "getRoleMemberCount",
      "outputs": [
        {
          "internalType": "uint256",
          "name": "",
          "type": "uint256"
        }
      ],
      "stateMutability": "view",
      "type": "function"
    },
    {
      "inputs": [
        {
          "internalType": "bytes32",
          "name": "role",
          "type": "bytes32"
        },
        {
          "internalType": "address",
          "name": "account",
          "type": "address"
        }
      ],
      "name": "grantRole",
      "outputs": [],
      "stateMutability": "nonpayable",
      "type": "function"
    },
    {
      "inputs": [
        {
          "internalType": "bytes32",
          "name": "role",
          "type": "bytes32"
        },
        {
          "internalType": "address",
          "name": "account",
          "type": "address"
        }
      ],
      "name": "hasRole",
      "outputs": [
        {
          "internalType": "bool",
          "name": "",
          "type": "bool"
        }
      ],
      "stateMutability": "view",
      "type": "function"
    },
    {
      "inputs": [
        {
          "internalType": "address",
          "name": "owner",
          "type": "address"
        },
        {
          "internalType": "contract GoldfinchConfig",
          "name": "_config",
          "type": "address"
        }
      ],
      "name": "initialize",
      "outputs": [],
      "stateMutability": "nonpayable",
      "type": "function"
    },
    {
      "inputs": [],
      "name": "isAdmin",
      "outputs": [
        {
          "internalType": "bool",
          "name": "",
          "type": "bool"
        }
      ],
      "stateMutability": "view",
      "type": "function"
    },
    {
      "inputs": [],
      "name": "pause",
      "outputs": [],
      "stateMutability": "nonpayable",
      "type": "function"
    },
    {
      "inputs": [],
      "name": "paused",
      "outputs": [
        {
          "internalType": "bool",
          "name": "",
          "type": "bool"
        }
      ],
      "stateMutability": "view",
      "type": "function"
    },
    {
      "inputs": [
        {
          "internalType": "bytes32",
          "name": "role",
          "type": "bytes32"
        },
        {
          "internalType": "address",
          "name": "account",
          "type": "address"
        }
      ],
      "name": "renounceRole",
      "outputs": [],
      "stateMutability": "nonpayable",
      "type": "function"
    },
    {
      "inputs": [
        {
          "internalType": "bytes32",
          "name": "role",
          "type": "bytes32"
        },
        {
          "internalType": "address",
          "name": "account",
          "type": "address"
        }
      ],
      "name": "revokeRole",
      "outputs": [],
      "stateMutability": "nonpayable",
      "type": "function"
    },
    {
      "inputs": [],
      "name": "sharePrice",
      "outputs": [
        {
          "internalType": "uint256",
          "name": "",
          "type": "uint256"
        }
      ],
      "stateMutability": "view",
      "type": "function"
    },
    {
      "inputs": [
        {
          "internalType": "address",
          "name": "from",
          "type": "address"
        },
        {
          "internalType": "address",
          "name": "to",
          "type": "address"
        },
        {
          "internalType": "uint256",
          "name": "amount",
          "type": "uint256"
        }
      ],
      "name": "transferFrom",
      "outputs": [
        {
          "internalType": "bool",
          "name": "",
          "type": "bool"
        }
      ],
      "stateMutability": "nonpayable",
      "type": "function"
    },
    {
      "inputs": [],
      "name": "unpause",
      "outputs": [],
      "stateMutability": "nonpayable",
      "type": "function"
    },
    {
      "inputs": [
        {
          "internalType": "uint256",
          "name": "amount",
          "type": "uint256"
        }
      ],
      "name": "withdraw",
      "outputs": [],
      "stateMutability": "nonpayable",
      "type": "function"
    }
  ],
  "address": "0x78E2651934bA08137432F951CaEf2C102eDb05e8",
  "args": [],
  "solcInputHash": "0x61965cc0b5abb55abef9f7574b76c9051fc488b5a6cbd46c33e8f9d520f338be",
  "bytecode": "0x608060405234801561001057600080fd5b5061294c806100206000396000f3fe608060405234801561001057600080fd5b50600436106101735760003560e01c806379502c55116100de578063b6b55f2511610097578063ca15c87311610071578063ca15c873146102e1578063d547741f146102f4578063e58378bb14610307578063e63ab1e91461030f57610173565b8063b6b55f25146102b3578063b6db75a0146102c6578063bcfa41ba146102ce57610173565b806379502c55146102605780638456cb5914610275578063872697291461027d5780639010d07c1461028557806391d1485414610298578063a217fddf146102ab57610173565b806336568abe1161013057806336568abe1461020f5780633f4ba83a14610222578063485cc9551461022a578063526d81f61461023d5780635c975abb1461024557806364de8a071461024d57610173565b8063097616a31461017857806323b872dd1461018d578063248a9ca3146101b65780632e1a7d4d146101d65780632f2ff15d146101e9578063338744bc146101fc575b600080fd5b61018b6101863660046120f5565b610317565b005b6101a061019b36600461212d565b61044d565b6040516101ad9190612304565b60405180910390f35b6101c96101c43660046121f0565b61051b565b6040516101ad919061230f565b61018b6101e43660046121f0565b610530565b61018b6101f7366004612208565b61077f565b61018b61020a3660046121a5565b6107c3565b61018b61021d366004612208565b6108d2565b61018b610914565b61018b61023836600461216d565b610959565b61018b610b42565b6101a0610bcd565b61018b61025b3660046121a5565b610bd6565b610268610cf6565b6040516101ad91906122b3565b61018b610d06565b6101c9610d39565b61026861029336600461222c565b610d40565b6101a06102a6366004612208565b610d67565b6101c9610d85565b61018b6102c13660046121f0565b610d8a565b6101a0610f12565b61018b6102dc3660046121a5565b610f28565b6101c96102ef3660046121f0565b610fdd565b61018b610302366004612208565b610ff4565b6101c961102e565b6101c9611045565b600054610100900460ff16806103305750610330611051565b8061033e575060005460ff16155b6103635760405162461bcd60e51b815260040161035a9061277c565b60405180910390fd5b600054610100900460ff1615801561038e576000805460ff1961ff0019909116610100171660011790555b6001600160a01b0382166103b45760405162461bcd60e51b815260040161035a906126b1565b6103bc611057565b6103c46110d8565b6103cc611164565b6103e96040516103db9061229d565b6040518091039020836107b9565b6103f86040516103db90612286565b61042860405161040790612286565b604051809103902060405161041b9061229d565b60405180910390206111f3565b6104376040516104079061229d565b8015610449576000805461ff00191690555b5050565b6101c454600090610466906001600160a01b0316611208565b6001600160a01b0316336001600160a01b0316146104965760405162461bcd60e51b815260040161035a906126e6565b60975460ff16156104b95760405162461bcd60e51b815260040161035a9061263f565b60006104c6858585611288565b9050836001600160a01b0316856001600160a01b03167f422971e1d1a7c8b68372f65fe1426aef054f0c6290124a929c843c5c019521d68560405161050b919061230f565b60405180910390a3949350505050565b60009081526065602052604090206002015490565b60975460ff16156105535760405162461bcd60e51b815260040161035a9061263f565b600081116105735760405162461bcd60e51b815260040161035a90612801565b61057c816114a1565b6105985760405162461bcd60e51b815260040161035a90612669565b6101c4546000906105b1906001600160a01b031661152c565b6001600160a01b03166370a08231336040518263ffffffff1660e01b81526004016105dc91906122b3565b60206040518083038186803b1580156105f457600080fd5b505afa158015610608573d6000803e3d6000fd5b505050506040513d601f19601f8201168201806040525081019061062c919061224d565b9050600061063983611537565b90508181111561065b5760405162461bcd60e51b815260040161035a9061245a565b6101c45460009061068590610678906001600160a01b031661156c565b859063ffffffff6115ec16565b90506000610699858363ffffffff61162e16565b9050336001600160a01b03167f2d4d49c3e017b8235c908cbaa83a2431a08f3b950712696ece2088964fd399f082846040516106d69291906128f3565b60405180910390a26106e9303383611288565b506106f5308333611670565b6101c45461070b906001600160a01b031661152c565b6001600160a01b03166379cc679033856040518363ffffffff1660e01b81526004016107389291906122c7565b600060405180830381600087803b15801561075257600080fd5b505af1158015610766573d6000803e3d6000fd5b505050506107726116fb565b61077857fe5b5050505050565b60008281526065602052604090206002015461079d906102a66119f9565b6107b95760405162461bcd60e51b815260040161035a906123ad565b61044982826119fd565b6101c4546107d9906001600160a01b0316611208565b6001600160a01b0316336001600160a01b0316146108095760405162461bcd60e51b815260040161035a906126e6565b60975460ff161561082c5760405162461bcd60e51b815260040161035a9061263f565b600081131561086157600061084082611a6c565b6101c354909150610857908263ffffffff611a8416565b6101c3555061088d565b60006108708260001902611a6c565b6101c354909150610887908263ffffffff61162e16565b6101c355505b816001600160a01b03167f8c23a9a70a8448cfed7aae767d71bd68857b79de2d189ee6a770619ada8b857a826040516108c6919061230f565b60405180910390a25050565b6108da6119f9565b6001600160a01b0316816001600160a01b03161461090a5760405162461bcd60e51b815260040161035a9061286d565b6104498282611aa9565b61093360405161092390612286565b60405180910390206102a66119f9565b61094f5760405162461bcd60e51b815260040161035a90612838565b610957611b18565b565b600054610100900460ff16806109725750610972611051565b80610980575060005460ff16155b61099c5760405162461bcd60e51b815260040161035a9061277c565b600054610100900460ff161580156109c7576000805460ff1961ff0019909116610100171660011790555b6109d083610317565b6101c480546001600160a01b0319166001600160a01b0384161790556109f4611b84565b6101c3556101c454600090610a11906001600160a01b0316611c18565b9050806001600160a01b03166318160ddd6040518163ffffffff1660e01b815260040160206040518083038186803b158015610a4c57600080fd5b505afa158015610a60573d6000803e3d6000fd5b505050506040513d601f19601f82011682018060405250810190610a84919061224d565b5060405163095ea7b360e01b81526000906001600160a01b0383169063095ea7b390610ab8903090600019906004016122c7565b602060405180830381600087803b158015610ad257600080fd5b505af1158015610ae6573d6000803e3d6000fd5b505050506040513d601f19601f82011682018060405250810190610b0a91906121d0565b905080610b295760405162461bcd60e51b815260040161035a9061242a565b50508015610b3d576000805461ff00191690555b505050565b600054610100900460ff1680610b5b5750610b5b611051565b80610b69575060005460ff16155b610b855760405162461bcd60e51b815260040161035a9061277c565b600054610100900460ff16158015610bb0576000805460ff1961ff0019909116610100171660011790555b610bb86110d8565b8015610bca576000805461ff00191690555b50565b60975460ff1690565b6101c454610bec906001600160a01b0316611208565b6001600160a01b0316336001600160a01b031614610c1c5760405162461bcd60e51b815260040161035a906126e6565b60975460ff1615610c3f5760405162461bcd60e51b815260040161035a9061263f565b6101c454600090610c6990610c5c906001600160a01b0316611c30565b839063ffffffff6115ec16565b90506000610c7d838363ffffffff61162e16565b9050836001600160a01b03167f9bbd517758fbae61197f1c1c04c8614064e89512dbaf4350dcdf76fcaa5e21618284604051610cba9291906128f3565b60405180910390a26000610ccd82611a6c565b6101c38054820190559050610ce3858481611670565b610cee853084611288565b505050505050565b6101c4546001600160a01b031681565b610d1560405161092390612286565b610d315760405162461bcd60e51b815260040161035a90612608565b610957611c48565b6101c35481565b6000828152606560205260408120610d5e908363ffffffff611ca116565b90505b92915050565b6000828152606560205260408120610d5e908363ffffffff611cad16565b600081565b60975460ff1615610dad5760405162461bcd60e51b815260040161035a9061263f565b60008111610dcd5760405162461bcd60e51b815260040161035a906128bc565b610dd6816114a1565b610df25760405162461bcd60e51b815260040161035a90612669565b6000610dfd82611537565b90506000610e1982610e0d611cc2565b9063ffffffff611a8416565b9050610e2481611d4b565b610e405760405162461bcd60e51b815260040161035a90612525565b336001600160a01b03167f0b05f0d1cd0819f155b8a61f60baf7767c1ee49d04aeaab701df236140eb93f98484604051610e7b9291906128f3565b60405180910390a2610e8e333085611288565b506101c454610ea5906001600160a01b031661152c565b6001600160a01b031663449a52f833846040518363ffffffff1660e01b8152600401610ed29291906122c7565b600060405180830381600087803b158015610eec57600080fd5b505af1158015610f00573d6000803e3d6000fd5b50505050610f0c6116fb565b610b3d57fe5b6000610f236040516109239061229d565b905090565b6101c454610f3e906001600160a01b0316611208565b6001600160a01b0316336001600160a01b031614610f6e5760405162461bcd60e51b815260040161035a906126e6565b60975460ff1615610f915760405162461bcd60e51b815260040161035a9061263f565b816001600160a01b03167f8295ad220549851bab232c2a7ae2e3c53a63d2294602bc85f8d8af108778a37e82604051610fca919061230f565b60405180910390a2610b3d823083611288565b6000818152606560205260408120610d6190611dff565b600082815260656020526040902060020154611012906102a66119f9565b61090a5760405162461bcd60e51b815260040161035a906125b8565b60405161103a9061229d565b604051809103902081565b60405161103a90612286565b303b1590565b600054610100900460ff16806110705750611070611051565b8061107e575060005460ff16155b61109a5760405162461bcd60e51b815260040161035a9061277c565b600054610100900460ff16158015610bb8576000805460ff1961ff0019909116610100171660011790558015610bca576000805461ff001916905550565b600054610100900460ff16806110f157506110f1611051565b806110ff575060005460ff16155b61111b5760405162461bcd60e51b815260040161035a9061277c565b600054610100900460ff16158015611146576000805460ff1961ff0019909116610100171660011790555b6097805460ff191690558015610bca576000805461ff001916905550565b600054610100900460ff168061117d575061117d611051565b8061118b575060005460ff16155b6111a75760405162461bcd60e51b815260040161035a9061277c565b600054610100900460ff161580156111d2576000805460ff1961ff0019909116610100171660011790555b60c9805460ff191660011790558015610bca576000805461ff001916905550565b60009182526065602052604090912060020155565b60006001600160a01b03821663b93f9b0a60035b6040518263ffffffff1660e01b8152600401611238919061230f565b60206040518083038186803b15801561125057600080fd5b505afa158015611264573d6000803e3d6000fd5b505050506040513d601f19601f82011682018060405250810190610d619190612111565b6000611293826114a1565b6112af5760405162461bcd60e51b815260040161035a90612669565b6001600160a01b0383166112d55760405162461bcd60e51b815260040161035a906124b7565b6101c4546000906112ee906001600160a01b0316611c18565b90506000816001600160a01b03166370a08231866040518263ffffffff1660e01b815260040161131e91906122b3565b60206040518083038186803b15801561133657600080fd5b505afa15801561134a573d6000803e3d6000fd5b505050506040513d601f19601f8201168201806040525081019061136e919061224d565b90506000826001600160a01b03166323b872dd8888886040518463ffffffff1660e01b81526004016113a2939291906122e0565b602060405180830381600087803b1580156113bc57600080fd5b505af11580156113d0573d6000803e3d6000fd5b505050506040513d601f19601f820116820180604052508101906113f491906121d0565b90506000836001600160a01b03166370a08231886040518263ffffffff1660e01b815260040161142491906122b3565b60206040518083038186803b15801561143c57600080fd5b505afa158015611450573d6000803e3d6000fd5b505050506040513d601f19601f82011682018060405250810190611474919061224d565b9050828110156114965760405162461bcd60e51b815260040161035a906127ca565b509695505050505050565b6101c454604051631f8ac6cb60e31b81526000916001600160a01b03169063fc563658906114d390849060040161230f565b60206040518083038186803b1580156114eb57600080fd5b505afa1580156114ff573d6000803e3d6000fd5b505050506040513d601f19601f82011682018060405250810190611523919061224d565b90911115919050565b6000610d6182611e0a565b6000610d616101c35461156061154b611b84565b61155486611e22565b9063ffffffff611e4716565b9063ffffffff6115ec16565b60006001600160a01b03821663fc56365860045b6040518263ffffffff1660e01b815260040161159c919061230f565b60206040518083038186803b1580156115b457600080fd5b505afa1580156115c8573d6000803e3d6000fd5b505050506040513d601f19601f82011682018060405250810190610d61919061224d565b6000610d5e83836040518060400160405280601a81526020017f536166654d6174683a206469766973696f6e206279207a65726f000000000000815250611e81565b6000610d5e83836040518060400160405280601e81526020017f536166654d6174683a207375627472616374696f6e206f766572666c6f770000815250611eb8565b806001600160a01b03167ff3583f178a8d4f8888c3683f8e948faf9b6eb701c4f1fab265a6ecad1a1ddebb836040516116a9919061230f565b60405180910390a26101c4546000906116d69085906116d0906001600160a01b0316611ee4565b85611288565b9050806116f55760405162461bcd60e51b815260040161035a90612575565b50505050565b600080611819611709611b84565b6101c45461156090611723906001600160a01b0316611efc565b6001600160a01b031663872697296040518163ffffffff1660e01b815260040160206040518083038186803b15801561175b57600080fd5b505afa15801561176f573d6000803e3d6000fd5b505050506040513d601f19601f82011682018060405250810190611793919061224d565b6101c4546117a9906001600160a01b031661152c565b6001600160a01b03166318160ddd6040518163ffffffff1660e01b815260040160206040518083038186803b1580156117e157600080fd5b505afa1580156117f5573d6000803e3d6000fd5b505050506040513d601f19601f82011682018060405250810190611554919061224d565b9050600061182682611f07565b6101c4549091506000906119ee90611846906001600160a01b0316611f1f565b6001600160a01b031663a6f4487e6040518163ffffffff1660e01b815260040160206040518083038186803b15801561187e57600080fd5b505afa158015611892573d6000803e3d6000fd5b505050506040513d601f19601f820116820180604052508101906118b6919061224d565b6101c4546119e2906118d0906001600160a01b0316611f1f565b6001600160a01b031663ed80c8506040518163ffffffff1660e01b815260040160206040518083038186803b15801561190857600080fd5b505afa15801561191c573d6000803e3d6000fd5b505050506040513d601f19601f82011682018060405250810190611940919061224d565b6101c454611956906001600160a01b0316611c18565b6101c4546001600160a01b03918216916370a08231916119769116611f2a565b6040518263ffffffff1660e01b815260040161199291906122b3565b60206040518083038186803b1580156119aa57600080fd5b505afa1580156119be573d6000803e3d6000fd5b505050506040513d601f19601f82011682018060405250810190610e0d919061224d565b9063ffffffff61162e16565b919091149250505090565b3390565b6000828152606560205260409020611a1b908263ffffffff611f4116565b1561044957611a286119f9565b6001600160a01b0316816001600160a01b0316837f2f8788117e7eff1d82e926ec794901d17c78024a50270940304540a733656f0d60405160405180910390a45050565b6000610d61611a79611cc2565b61156061154b611b84565b600082820183811015610d5e5760405162461bcd60e51b815260040161035a906124ee565b6000828152606560205260409020611ac7908263ffffffff611f5616565b1561044957611ad46119f9565b6001600160a01b0316816001600160a01b0316837ff6391f5c32d9c69d2a47ea670b442974b53935d1edc7fd64eb21e047a839171b60405160405180910390a45050565b60975460ff16611b3a5760405162461bcd60e51b815260040161035a906123fc565b6097805460ff191690557f5db9ee0a495bf2e6ff9c91a7834c1ba4fdd244a5e8aa4e537bd38aeae4b073aa611b6d6119f9565b604051611b7a91906122b3565b60405180910390a1565b6101c454600090611b9d906001600160a01b031661152c565b6001600160a01b031663313ce5676040518163ffffffff1660e01b815260040160206040518083038186803b158015611bd557600080fd5b505afa158015611be9573d6000803e3d6000fd5b505050506040513d601f19601f82011682018060405250810190611c0d9190612265565b60ff16600a0a905090565b60006001600160a01b03821663b93f9b0a600561121c565b60006001600160a01b03821663fc5636586003611580565b60975460ff1615611c6b5760405162461bcd60e51b815260040161035a9061263f565b6097805460ff191660011790557f62e78cea01bee320cd4e420270b5ea74000d11b0c9f74754ebdbfc544b05a258611b6d6119f9565b6000610d5e8383611f6b565b6000610d5e836001600160a01b038416611fb0565b6101c454600090611cdb906001600160a01b031661152c565b6001600160a01b03166318160ddd6040518163ffffffff1660e01b815260040160206040518083038186803b158015611d1357600080fd5b505afa158015611d27573d6000803e3d6000fd5b505050506040513d601f19601f82011682018060405250810190610f23919061224d565b6101c454600090611dd7906001600160a01b031663fc56365860016040518263ffffffff1660e01b8152600401611d82919061230f565b60206040518083038186803b158015611d9a57600080fd5b505afa158015611dae573d6000803e3d6000fd5b505050506040513d601f19601f82011682018060405250810190611dd2919061224d565b611e22565b611df7611de2611b84565b6101c35461156090869063ffffffff611e4716565b111592915050565b6000610d6182611fc8565b60006001600160a01b03821663b93f9b0a600461121c565b6000610d61611e2f611fcc565b611560611e3a611b84565b859063ffffffff611e4716565b600082611e5657506000610d61565b82820282848281611e6357fe5b0414610d5e5760405162461bcd60e51b815260040161035a9061273b565b60008183611ea25760405162461bcd60e51b815260040161035a9190612318565b506000838581611eae57fe5b0495945050505050565b60008184841115611edc5760405162461bcd60e51b815260040161035a9190612318565b505050900390565b60006001600160a01b03821663b93f9b0a600661121c565b6000610d6182611f2a565b6000610d61610c5c611f17611fcc565b611560611b84565b6000610d6182611208565b60006001600160a01b03821663b93f9b0a8261121c565b6000610d5e836001600160a01b038416611fe5565b6000610d5e836001600160a01b03841661202f565b81546000908210611f8e5760405162461bcd60e51b815260040161035a9061236b565b826000018281548110611f9d57fe5b9060005260206000200154905092915050565b60009081526001919091016020526040902054151590565b5490565b6101c454600090611b9d906001600160a01b0316611c18565b6000611ff18383611fb0565b61202757508154600181810184556000848152602080822090930184905584548482528286019093526040902091909155610d61565b506000610d61565b600081815260018301602052604081205480156120eb578354600019808301919081019060009087908390811061206257fe5b906000526020600020015490508087600001848154811061207f57fe5b6000918252602080832090910192909255828152600189810190925260409020908401905586548790806120af57fe5b60019003818190600052602060002001600090559055866001016000878152602001908152602001600020600090556001945050505050610d61565b6000915050610d61565b600060208284031215612106578081fd5b8135610d5e81612901565b600060208284031215612122578081fd5b8151610d5e81612901565b600080600060608486031215612141578182fd5b833561214c81612901565b9250602084013561215c81612901565b929592945050506040919091013590565b6000806040838503121561217f578182fd5b823561218a81612901565b9150602083013561219a81612901565b809150509250929050565b600080604083850312156121b7578182fd5b82356121c281612901565b946020939093013593505050565b6000602082840312156121e1578081fd5b81518015158114610d5e578182fd5b600060208284031215612201578081fd5b5035919050565b6000806040838503121561221a578182fd5b82359150602083013561219a81612901565b6000806040838503121561223e578182fd5b50508035926020909101359150565b60006020828403121561225e578081fd5b5051919050565b600060208284031215612276578081fd5b815160ff81168114610d5e578182fd5b6a5041555345525f524f4c4560a81b8152600b0190565b694f574e45525f524f4c4560b01b8152600a0190565b6001600160a01b0391909116815260200190565b6001600160a01b03929092168252602082015260400190565b6001600160a01b039384168152919092166020820152604081019190915260600190565b901515815260200190565b90815260200190565b6000602080835283518082850152825b8181101561234457858101830151858201604001528201612328565b818111156123555783604083870101525b50601f01601f1916929092016040019392505050565b60208082526022908201527f456e756d657261626c655365743a20696e646578206f7574206f6620626f756e604082015261647360f01b606082015260800190565b6020808252602f908201527f416363657373436f6e74726f6c3a2073656e646572206d75737420626520616e60408201526e0818591b5a5b881d1bc819dc985b9d608a1b606082015260800190565b60208082526014908201527314185d5cd8589b194e881b9bdd081c185d5cd95960621b604082015260600190565b6020808252601690820152754661696c656420746f20617070726f7665205553444360501b604082015260600190565b60208082526037908201527f416d6f756e74207265717565737465642069732067726561746572207468616e60408201527f207768617420746869732061646472657373206f776e73000000000000000000606082015260800190565b6020808252601a908201527f43616e27742073656e6420746f207a65726f2061646472657373000000000000604082015260600190565b6020808252601b908201527f536166654d6174683a206164646974696f6e206f766572666c6f770000000000604082015260600190565b60208082526030908201527f4465706f73697420776f756c64207075742074686520506f6f6c206f7665722060408201526f3a3432903a37ba30b6103634b6b4ba1760811b606082015260800190565b60208082526023908201527f52657365727665207472616e7366657220776173206e6f742073756363657373604082015262199d5b60ea1b606082015260800190565b60208082526030908201527f416363657373436f6e74726f6c3a2073656e646572206d75737420626520616e60408201526f2061646d696e20746f207265766f6b6560801b606082015260800190565b6020808252601e908201527f4d75737420686176652070617573657220726f6c6520746f2070617573650000604082015260600190565b60208082526010908201526f14185d5cd8589b194e881c185d5cd95960821b604082015260600190565b60208082526028908201527f416d6f756e74206973206f76657220746865207065722d7472616e73616374696040820152671bdb881b1a5b5a5d60c21b606082015260800190565b6020808252818101527f4f776e65722063616e6e6f7420626520746865207a65726f2061646472657373604082015260600190565b60208082526035908201527f4f6e6c792074686520637265646974206465736b20697320616c6c6f776564206040820152743a379031b0b636103a3434b990333ab731ba34b7b760591b606082015260800190565b60208082526021908201527f536166654d6174683a206d756c7469706c69636174696f6e206f766572666c6f6040820152607760f81b606082015260800190565b6020808252602e908201527f436f6e747261637420696e7374616e63652068617320616c726561647920626560408201526d195b881a5b9a5d1a585b1a5e995960921b606082015260800190565b6020808252601d908201527f546f6b656e205472616e73666572204f766572666c6f77204572726f72000000604082015260600190565b6020808252601c908201527f4d757374207769746864726177206d6f7265207468616e207a65726f00000000604082015260600190565b6020808252818101527f4d75737420686176652070617573657220726f6c6520746f20756e7061757365604082015260600190565b6020808252602f908201527f416363657373436f6e74726f6c3a2063616e206f6e6c792072656e6f756e636560408201526e103937b632b9903337b91039b2b63360891b606082015260800190565b6020808252601b908201527f4d757374206465706f736974206d6f7265207468616e207a65726f0000000000604082015260600190565b918252602082015260400190565b6001600160a01b0381168114610bca57600080fdfea264697066735822122020b16da20c46d03ed98a2692077c0ecc4423bbf2cac33f845c2cf396a0fcd8ce64736f6c63430006080033",
  "devdoc": {
    "author": "Goldfinch",
    "methods": {
      "collectInterestRepayment(address,uint256)": {
        "params": {
          "amount": "the amount of USDC to move to the Pool   * Requirements: - The caller must be the Credit Desk. Not even the owner can call this function.",
          "from": "The address to take the USDC from. Implicitly, the Pool must be authorized to move USDC on behalf of `from`."
        }
      },
      "collectPrincipalRepayment(address,uint256)": {
        "params": {
          "amount": "the amount of USDC to move to the Pool   * Requirements: - The caller must be the Credit Desk. Not even the owner can call this function.",
          "from": "The address to take the USDC from. Implicitly, the Pool must be authorized to move USDC on behalf of `from`."
        }
      },
      "deposit(uint256)": {
        "params": {
          "amount": "The amount of USDC to deposit"
        }
      },
      "getRoleAdmin(bytes32)": {
        "details": "Returns the admin role that controls `role`. See {grantRole} and {revokeRole}.     * To change a role's admin, use {_setRoleAdmin}."
      },
      "getRoleMember(bytes32,uint256)": {
        "details": "Returns one of the accounts that have `role`. `index` must be a value between 0 and {getRoleMemberCount}, non-inclusive.     * Role bearers are not sorted in any particular way, and their ordering may change at any point.     * WARNING: When using {getRoleMember} and {getRoleMemberCount}, make sure you perform all queries on the same block. See the following https://forum.openzeppelin.com/t/iterating-over-elements-on-enumerableset-in-openzeppelin-contracts/2296[forum post] for more information."
      },
      "getRoleMemberCount(bytes32)": {
        "details": "Returns the number of accounts that have `role`. Can be used together with {getRoleMember} to enumerate all bearers of a role."
      },
      "grantRole(bytes32,address)": {
        "details": "Grants `role` to `account`.     * If `account` had not been already granted `role`, emits a {RoleGranted} event.     * Requirements:     * - the caller must have ``role``'s admin role."
      },
      "hasRole(bytes32,address)": {
        "details": "Returns `true` if `account` has been granted `role`."
      },
      "initialize(address,address)": {
        "params": {
          "_config": "The address of the GoldfinchConfig contract",
          "owner": "The address of who should have the \"OWNER_ROLE\" of this contract"
        }
      },
      "pause()": {
        "details": "Pauses all functions guarded by Pause   * See {Pausable-_pause}.   * Requirements:   * - the caller must have the PAUSER_ROLE."
      },
      "paused()": {
        "details": "Returns true if the contract is paused, and false otherwise."
      },
      "renounceRole(bytes32,address)": {
        "details": "Revokes `role` from the calling account.     * Roles are often managed via {grantRole} and {revokeRole}: this function's purpose is to provide a mechanism for accounts to lose their privileges if they are compromised (such as when a trusted device is misplaced).     * If the calling account had been granted `role`, emits a {RoleRevoked} event.     * Requirements:     * - the caller must be `account`."
      },
      "revokeRole(bytes32,address)": {
        "details": "Revokes `role` from `account`.     * If `account` had been granted `role`, emits a {RoleRevoked} event.     * Requirements:     * - the caller must have ``role``'s admin role."
      },
      "transferFrom(address,address,uint256)": {
        "params": {
          "amount": "the amount of USDC to move to the Pool   * Requirements: - The caller must be the Credit Desk. Not even the owner can call this function.",
          "from": "The address to take the USDC from. Implicitly, the Pool must be authorized to move USDC on behalf of `from`.",
          "to": "The address that the USDC should be moved to"
        }
      },
      "unpause()": {
        "details": "Unpauses the contract   * See {Pausable-_unpause}.   * Requirements:   * - the caller must have the Pauser role"
      },
      "withdraw(uint256)": {
        "params": {
          "amount": "The amount of USDC to withdraw"
        }
      }
    },
    "title": "Goldfinch's Pool contract"
  },
  "userdoc": {
    "methods": {
      "collectInterestRepayment(address,uint256)": {
        "notice": "Collects `amount` USDC in interest from `from` and sends it to the Pool. This also increases the share price accordingly. A portion is sent to the Goldfinch Reserve address"
      },
      "collectPrincipalRepayment(address,uint256)": {
        "notice": "Collects `amount` USDC in principal from `from` and sends it to the Pool. The key difference from `collectInterestPayment` is that this does not change the sharePrice. The reason it does not is because the principal is already baked in. ie. we implicitly assume all principal will be returned to the Pool. But if borrowers are late with payments, we have a writedown schedule that adjusts the sharePrice downwards to reflect the lowered confidence in that borrower."
      },
      "deposit(uint256)": {
        "notice": "Deposits `amount` USDC from msg.sender into the Pool, and returns you the equivalent value of FIDU tokens"
      },
      "initialize(address,address)": {
        "notice": "Run only once, on initialization"
      },
      "transferFrom(address,address,uint256)": {
        "notice": "Moves `amount` USDC from `from`, to `to`."
      },
      "withdraw(uint256)": {
        "notice": "Withdraws `amount` USDC from the Pool to msg.sender, and burns the equivalent value of FIDU tokens"
      }
    },
    "notice": "Main entry point for LP's (a.k.a. capital providers) Handles key logic for depositing and withdrawing funds from the Pool"
  },
  "storageLayout": {
    "storage": [
      {
        "astId": 49,
        "contract": "contracts/protocol/Pool.sol:Pool",
        "label": "initialized",
        "offset": 0,
        "slot": "0",
        "type": "t_bool"
      },
      {
        "astId": 51,
        "contract": "contracts/protocol/Pool.sol:Pool",
        "label": "initializing",
        "offset": 1,
        "slot": "0",
        "type": "t_bool"
      },
      {
        "astId": 116,
        "contract": "contracts/protocol/Pool.sol:Pool",
        "label": "______gap",
        "offset": 0,
        "slot": "1",
        "type": "t_array(t_uint256)50_storage"
      },
      {
        "astId": 43,
        "contract": "contracts/protocol/Pool.sol:Pool",
        "label": "__gap",
        "offset": 0,
        "slot": "51",
        "type": "t_array(t_uint256)50_storage"
      },
      {
        "astId": 161,
        "contract": "contracts/protocol/Pool.sol:Pool",
        "label": "_roles",
        "offset": 0,
        "slot": "101",
        "type": "t_mapping(t_bytes32,t_struct(RoleData)157_storage)"
      },
      {
        "astId": 406,
        "contract": "contracts/protocol/Pool.sol:Pool",
        "label": "__gap",
        "offset": 0,
        "slot": "102",
        "type": "t_array(t_uint256)49_storage"
      },
      {
        "astId": 2282,
        "contract": "contracts/protocol/Pool.sol:Pool",
        "label": "_paused",
        "offset": 0,
        "slot": "151",
        "type": "t_bool"
      },
      {
        "astId": 2371,
        "contract": "contracts/protocol/Pool.sol:Pool",
        "label": "__gap",
        "offset": 0,
        "slot": "152",
        "type": "t_array(t_uint256)49_storage"
      },
      {
        "astId": 2380,
        "contract": "contracts/protocol/Pool.sol:Pool",
        "label": "_notEntered",
        "offset": 0,
        "slot": "201",
        "type": "t_bool"
      },
      {
        "astId": 2421,
        "contract": "contracts/protocol/Pool.sol:Pool",
        "label": "__gap",
        "offset": 0,
        "slot": "202",
        "type": "t_array(t_uint256)49_storage"
      },
      {
        "astId": 4504,
        "contract": "contracts/protocol/Pool.sol:Pool",
        "label": "__gap1",
        "offset": 0,
        "slot": "251",
        "type": "t_array(t_uint256)50_storage"
      },
      {
        "astId": 4508,
        "contract": "contracts/protocol/Pool.sol:Pool",
        "label": "__gap2",
        "offset": 0,
        "slot": "301",
        "type": "t_array(t_uint256)50_storage"
      },
      {
        "astId": 4512,
        "contract": "contracts/protocol/Pool.sol:Pool",
        "label": "__gap3",
        "offset": 0,
        "slot": "351",
        "type": "t_array(t_uint256)50_storage"
      },
      {
        "astId": 4516,
        "contract": "contracts/protocol/Pool.sol:Pool",
        "label": "__gap4",
        "offset": 0,
        "slot": "401",
        "type": "t_array(t_uint256)50_storage"
      },
      {
        "astId": 4014,
        "contract": "contracts/protocol/Pool.sol:Pool",
        "label": "sharePrice",
        "offset": 0,
        "slot": "451",
        "type": "t_uint256"
      },
      {
        "astId": 7352,
        "contract": "contracts/protocol/Pool.sol:Pool",
        "label": "config",
        "offset": 0,
        "slot": "452",
        "type": "t_contract(GoldfinchConfig)7282"
      }
    ],
    "types": {
      "t_array(t_bytes32)dyn_storage": {
        "base": "t_bytes32",
        "encoding": "dynamic_array",
        "label": "bytes32[]",
        "numberOfBytes": "32"
      },
      "t_array(t_uint256)49_storage": {
        "base": "t_uint256",
        "encoding": "inplace",
        "label": "uint256[49]",
        "numberOfBytes": "1568"
      },
      "t_array(t_uint256)50_storage": {
        "base": "t_uint256",
        "encoding": "inplace",
        "label": "uint256[50]",
        "numberOfBytes": "1600"
      },
      "t_bool": {
        "encoding": "inplace",
        "label": "bool",
        "numberOfBytes": "1"
      },
      "t_bytes32": {
        "encoding": "inplace",
        "label": "bytes32",
        "numberOfBytes": "32"
      },
      "t_contract(GoldfinchConfig)7282": {
        "encoding": "inplace",
        "label": "contract GoldfinchConfig",
        "numberOfBytes": "20"
      },
      "t_mapping(t_bytes32,t_struct(RoleData)157_storage)": {
        "encoding": "mapping",
        "key": "t_bytes32",
        "label": "mapping(bytes32 => struct AccessControlUpgradeSafe.RoleData)",
        "numberOfBytes": "32",
        "value": "t_struct(RoleData)157_storage"
      },
      "t_mapping(t_bytes32,t_uint256)": {
        "encoding": "mapping",
        "key": "t_bytes32",
        "label": "mapping(bytes32 => uint256)",
        "numberOfBytes": "32",
        "value": "t_uint256"
      },
      "t_struct(AddressSet)2057_storage": {
        "encoding": "inplace",
        "label": "struct EnumerableSet.AddressSet",
        "members": [
          {
            "astId": 2056,
            "contract": "contracts/protocol/Pool.sol:Pool",
            "label": "_inner",
            "offset": 0,
            "slot": "0",
            "type": "t_struct(Set)1877_storage"
          }
        ],
        "numberOfBytes": "64"
      },
      "t_struct(RoleData)157_storage": {
        "encoding": "inplace",
        "label": "struct AccessControlUpgradeSafe.RoleData",
        "members": [
          {
            "astId": 154,
            "contract": "contracts/protocol/Pool.sol:Pool",
            "label": "members",
            "offset": 0,
            "slot": "0",
            "type": "t_struct(AddressSet)2057_storage"
          },
          {
            "astId": 156,
            "contract": "contracts/protocol/Pool.sol:Pool",
            "label": "adminRole",
            "offset": 0,
            "slot": "2",
            "type": "t_bytes32"
          }
        ],
        "numberOfBytes": "96"
      },
      "t_struct(Set)1877_storage": {
        "encoding": "inplace",
        "label": "struct EnumerableSet.Set",
        "members": [
          {
            "astId": 1872,
            "contract": "contracts/protocol/Pool.sol:Pool",
            "label": "_values",
            "offset": 0,
            "slot": "0",
            "type": "t_array(t_bytes32)dyn_storage"
          },
          {
            "astId": 1876,
            "contract": "contracts/protocol/Pool.sol:Pool",
            "label": "_indexes",
            "offset": 0,
            "slot": "1",
            "type": "t_mapping(t_bytes32,t_uint256)"
          }
        ],
        "numberOfBytes": "64"
      },
      "t_uint256": {
        "encoding": "inplace",
        "label": "uint256",
        "numberOfBytes": "32"
      }
    }
  },
  "gasEstimates": {
    "creation": {
      "codeDepositCost": "2114400",
      "executionCost": "2250",
      "totalCost": "2116650"
    },
    "external": {
      "DEFAULT_ADMIN_ROLE()": "361",
      "OWNER_ROLE()": "424",
      "PAUSER_ROLE()": "446",
      "__BaseUpgradeablePausable__init(address)": "infinite",
      "__PauserPausable__init()": "infinite",
      "collectInterestRepayment(address,uint256)": "infinite",
      "collectPrincipalRepayment(address,uint256)": "infinite",
      "config()": "1093",
      "deposit(uint256)": "infinite",
      "distributeLosses(address,int256)": "infinite",
      "getRoleAdmin(bytes32)": "1245",
      "getRoleMember(bytes32,uint256)": "infinite",
      "getRoleMemberCount(bytes32)": "infinite",
      "grantRole(bytes32,address)": "infinite",
      "hasRole(bytes32,address)": "infinite",
      "initialize(address,address)": "infinite",
      "isAdmin()": "infinite",
      "pause()": "infinite",
      "paused()": "1151",
      "renounceRole(bytes32,address)": "infinite",
      "revokeRole(bytes32,address)": "infinite",
      "sharePrice()": "1095",
      "transferFrom(address,address,uint256)": "infinite",
      "unpause()": "infinite",
      "withdraw(uint256)": "infinite"
    },
    "internal": {
      "assetsMatchLiabilities()": "infinite",
      "doUSDCTransfer(address,address,uint256)": "infinite",
      "fiduMantissa()": "infinite",
      "fiduToUSDC(uint256)": "infinite",
      "getNumShares(uint256)": "infinite",
      "poolWithinLimit(uint256)": "infinite",
      "sendToReserve(address,uint256,address)": "infinite",
      "totalShares()": "infinite",
      "transactionWithinLimit(uint256)": "infinite",
      "usdcMantissa()": "infinite",
      "usdcToFidu(uint256)": "infinite",
      "usdcToSharePrice(uint256)": "infinite"
    }
  }
}