{
  "address": "0x67c4BC912B84D4D15e930c0BC1d74d9Ce3630971",
  "abi": [
    {
      "anonymous": false,
      "inputs": [
        {
          "indexed": true,
          "internalType": "address",
          "name": "capitalProvider",
          "type": "address"
        },
        {
          "indexed": false,
          "internalType": "uint256",
          "name": "amount",
          "type": "uint256"
        },
        {
          "indexed": false,
          "internalType": "uint256",
          "name": "shares",
          "type": "uint256"
        }
      ],
      "name": "DepositMade",
      "type": "event"
    },
    {
      "anonymous": false,
      "inputs": [
        {
          "indexed": true,
          "internalType": "address",
          "name": "payer",
          "type": "address"
        },
        {
          "indexed": false,
          "internalType": "uint256",
          "name": "poolAmount",
          "type": "uint256"
        },
        {
          "indexed": false,
          "internalType": "uint256",
          "name": "reserveAmount",
          "type": "uint256"
        }
      ],
      "name": "InterestCollected",
      "type": "event"
    },
    {
      "anonymous": false,
      "inputs": [
        {
          "indexed": false,
          "internalType": "address",
          "name": "account",
          "type": "address"
        }
      ],
      "name": "Paused",
      "type": "event"
    },
    {
      "anonymous": false,
      "inputs": [
        {
          "indexed": true,
          "internalType": "address",
          "name": "payer",
          "type": "address"
        },
        {
          "indexed": false,
          "internalType": "uint256",
          "name": "amount",
          "type": "uint256"
        }
      ],
      "name": "PrincipalCollected",
      "type": "event"
    },
    {
      "anonymous": false,
      "inputs": [
        {
          "indexed": true,
          "internalType": "address",
          "name": "creditline",
          "type": "address"
        },
        {
          "indexed": false,
          "internalType": "int256",
          "name": "amount",
          "type": "int256"
        }
      ],
      "name": "PrincipalWrittendown",
      "type": "event"
    },
    {
      "anonymous": false,
      "inputs": [
        {
          "indexed": true,
          "internalType": "address",
          "name": "user",
          "type": "address"
        },
        {
          "indexed": false,
          "internalType": "uint256",
          "name": "amount",
          "type": "uint256"
        }
      ],
      "name": "ReserveFundsCollected",
      "type": "event"
    },
    {
      "anonymous": false,
      "inputs": [
        {
          "indexed": true,
          "internalType": "bytes32",
          "name": "role",
          "type": "bytes32"
        },
        {
          "indexed": true,
          "internalType": "address",
          "name": "account",
          "type": "address"
        },
        {
          "indexed": true,
          "internalType": "address",
          "name": "sender",
          "type": "address"
        }
      ],
      "name": "RoleGranted",
      "type": "event"
    },
    {
      "anonymous": false,
      "inputs": [
        {
          "indexed": true,
          "internalType": "bytes32",
          "name": "role",
          "type": "bytes32"
        },
        {
          "indexed": true,
          "internalType": "address",
          "name": "account",
          "type": "address"
        },
        {
          "indexed": true,
          "internalType": "address",
          "name": "sender",
          "type": "address"
        }
      ],
      "name": "RoleRevoked",
      "type": "event"
    },
    {
      "anonymous": false,
      "inputs": [
        {
          "indexed": true,
          "internalType": "address",
          "name": "from",
          "type": "address"
        },
        {
          "indexed": true,
          "internalType": "address",
          "name": "to",
          "type": "address"
        },
        {
          "indexed": false,
          "internalType": "uint256",
          "name": "amount",
          "type": "uint256"
        }
      ],
      "name": "TransferMade",
      "type": "event"
    },
    {
      "anonymous": false,
      "inputs": [
        {
          "indexed": false,
          "internalType": "address",
          "name": "account",
          "type": "address"
        }
      ],
      "name": "Unpaused",
      "type": "event"
    },
    {
      "anonymous": false,
      "inputs": [
        {
          "indexed": true,
          "internalType": "address",
          "name": "capitalProvider",
          "type": "address"
        },
        {
          "indexed": false,
          "internalType": "uint256",
          "name": "userAmount",
          "type": "uint256"
        },
        {
          "indexed": false,
          "internalType": "uint256",
          "name": "reserveAmount",
          "type": "uint256"
        }
      ],
      "name": "WithdrawalMade",
      "type": "event"
    },
    {
      "inputs": [],
      "name": "DEFAULT_ADMIN_ROLE",
      "outputs": [
        {
          "internalType": "bytes32",
          "name": "",
          "type": "bytes32"
        }
      ],
      "stateMutability": "view",
      "type": "function"
    },
    {
      "inputs": [],
      "name": "OWNER_ROLE",
      "outputs": [
        {
          "internalType": "bytes32",
          "name": "",
          "type": "bytes32"
        }
      ],
      "stateMutability": "view",
      "type": "function"
    },
    {
      "inputs": [],
      "name": "PAUSER_ROLE",
      "outputs": [
        {
          "internalType": "bytes32",
          "name": "",
          "type": "bytes32"
        }
      ],
      "stateMutability": "view",
      "type": "function"
    },
    {
      "inputs": [
        {
          "internalType": "address",
          "name": "owner",
          "type": "address"
        }
      ],
      "name": "__BaseUpgradeablePausable__init",
      "outputs": [],
      "stateMutability": "nonpayable",
      "type": "function"
    },
    {
      "inputs": [],
      "name": "__PauserPausable__init",
      "outputs": [],
      "stateMutability": "nonpayable",
      "type": "function"
    },
    {
      "inputs": [],
      "name": "assets",
      "outputs": [
        {
          "internalType": "uint256",
          "name": "",
          "type": "uint256"
        }
      ],
      "stateMutability": "view",
      "type": "function"
    },
    {
      "inputs": [
        {
          "internalType": "address",
          "name": "from",
          "type": "address"
        },
        {
          "internalType": "uint256",
          "name": "interest",
          "type": "uint256"
        },
        {
          "internalType": "uint256",
          "name": "principal",
          "type": "uint256"
        }
      ],
      "name": "collectInterestAndPrincipal",
      "outputs": [],
      "stateMutability": "nonpayable",
      "type": "function"
    },
    {
      "inputs": [],
      "name": "config",
      "outputs": [
        {
          "internalType": "contract GoldfinchConfig",
          "name": "",
          "type": "address"
        }
      ],
      "stateMutability": "view",
      "type": "function"
    },
    {
      "inputs": [
        {
          "internalType": "uint256",
          "name": "amount",
          "type": "uint256"
        }
      ],
      "name": "deposit",
      "outputs": [],
      "stateMutability": "nonpayable",
      "type": "function"
    },
    {
      "inputs": [
        {
          "internalType": "address",
          "name": "creditlineAddress",
          "type": "address"
        },
        {
          "internalType": "int256",
          "name": "writedownDelta",
          "type": "int256"
        }
      ],
      "name": "distributeLosses",
      "outputs": [],
      "stateMutability": "nonpayable",
      "type": "function"
    },
    {
      "inputs": [
        {
          "internalType": "bytes32",
          "name": "role",
          "type": "bytes32"
        }
      ],
      "name": "getRoleAdmin",
      "outputs": [
        {
          "internalType": "bytes32",
          "name": "",
          "type": "bytes32"
        }
      ],
      "stateMutability": "view",
      "type": "function"
    },
    {
      "inputs": [
        {
          "internalType": "bytes32",
          "name": "role",
          "type": "bytes32"
        },
        {
          "internalType": "uint256",
          "name": "index",
          "type": "uint256"
        }
      ],
      "name": "getRoleMember",
      "outputs": [
        {
          "internalType": "address",
          "name": "",
          "type": "address"
        }
      ],
      "stateMutability": "view",
      "type": "function"
    },
    {
      "inputs": [
        {
          "internalType": "bytes32",
          "name": "role",
          "type": "bytes32"
        }
      ],
      "name": "getRoleMemberCount",
      "outputs": [
        {
          "internalType": "uint256",
          "name": "",
          "type": "uint256"
        }
      ],
      "stateMutability": "view",
      "type": "function"
    },
    {
      "inputs": [
        {
          "internalType": "bytes32",
          "name": "role",
          "type": "bytes32"
        },
        {
          "internalType": "address",
          "name": "account",
          "type": "address"
        }
      ],
      "name": "grantRole",
      "outputs": [],
      "stateMutability": "nonpayable",
      "type": "function"
    },
    {
      "inputs": [
        {
          "internalType": "bytes32",
          "name": "role",
          "type": "bytes32"
        },
        {
          "internalType": "address",
          "name": "account",
          "type": "address"
        }
      ],
      "name": "hasRole",
      "outputs": [
        {
          "internalType": "bool",
          "name": "",
          "type": "bool"
        }
      ],
      "stateMutability": "view",
      "type": "function"
    },
    {
      "inputs": [
        {
          "internalType": "address",
          "name": "owner",
          "type": "address"
        },
        {
          "internalType": "contract GoldfinchConfig",
          "name": "_config",
          "type": "address"
        }
      ],
      "name": "initialize",
      "outputs": [],
      "stateMutability": "nonpayable",
      "type": "function"
    },
    {
      "inputs": [],
      "name": "isAdmin",
      "outputs": [
        {
          "internalType": "bool",
          "name": "",
          "type": "bool"
        }
      ],
      "stateMutability": "view",
      "type": "function"
    },
    {
      "inputs": [],
      "name": "pause",
      "outputs": [],
      "stateMutability": "nonpayable",
      "type": "function"
    },
    {
      "inputs": [],
      "name": "paused",
      "outputs": [
        {
          "internalType": "bool",
          "name": "",
          "type": "bool"
        }
      ],
      "stateMutability": "view",
      "type": "function"
    },
    {
      "inputs": [
        {
          "internalType": "bytes32",
          "name": "role",
          "type": "bytes32"
        },
        {
          "internalType": "address",
          "name": "account",
          "type": "address"
        }
      ],
      "name": "renounceRole",
      "outputs": [],
      "stateMutability": "nonpayable",
      "type": "function"
    },
    {
      "inputs": [
        {
          "internalType": "bytes32",
          "name": "role",
          "type": "bytes32"
        },
        {
          "internalType": "address",
          "name": "account",
          "type": "address"
        }
      ],
      "name": "revokeRole",
      "outputs": [],
      "stateMutability": "nonpayable",
      "type": "function"
    },
    {
      "inputs": [],
      "name": "sharePrice",
      "outputs": [
        {
          "internalType": "uint256",
          "name": "",
          "type": "uint256"
        }
      ],
      "stateMutability": "view",
      "type": "function"
    },
    {
      "inputs": [
        {
          "internalType": "address",
          "name": "from",
          "type": "address"
        },
        {
          "internalType": "address",
          "name": "to",
          "type": "address"
        },
        {
          "internalType": "uint256",
          "name": "amount",
          "type": "uint256"
        }
      ],
      "name": "transferFrom",
      "outputs": [
        {
          "internalType": "bool",
          "name": "",
          "type": "bool"
        }
      ],
      "stateMutability": "nonpayable",
      "type": "function"
    },
    {
      "inputs": [],
      "name": "unpause",
      "outputs": [],
      "stateMutability": "nonpayable",
      "type": "function"
    },
    {
      "inputs": [
        {
          "internalType": "uint256",
          "name": "amount",
          "type": "uint256"
        }
      ],
      "name": "withdraw",
      "outputs": [],
      "stateMutability": "nonpayable",
      "type": "function"
    }
  ],
  "transactionHash": "0x1e86a3438f2b2bad417cf0ef8b35ae57fe6ed57aa7f4b3ba0dde17e773f1fb06",
  "args": [],
  "solcInputHash": "182208430cce5986c995897f9af03e7f",
  "bytecode": "0x608060405234801561001057600080fd5b50612c7c806100206000396000f3fe608060405234801561001057600080fd5b50600436106101a35760003560e01c806371bb0bab116100ee578063a217fddf11610097578063ca15c87311610071578063ca15c87314610306578063d547741f14610319578063e58378bb1461032c578063e63ab1e914610334576101a3565b8063a217fddf146102e3578063b6b55f25146102eb578063b6db75a0146102fe576101a3565b806387269729116100c857806387269729146102b55780639010d07c146102bd57806391d14854146102d0576101a3565b806371bb0bab1461028557806379502c55146102985780638456cb59146102ad576101a3565b806336568abe11610150578063526d81f61161012a578063526d81f61461026d5780635c975abb1461027557806371a973051461027d576101a3565b806336568abe1461023f5780633f4ba83a14610252578063485cc9551461025a576101a3565b80632e1a7d4d116101815780632e1a7d4d146102065780632f2ff15d14610219578063338744bc1461022c576101a3565b8063097616a3146101a857806323b872dd146101bd578063248a9ca3146101e6575b600080fd5b6101bb6101b6366004612287565b61033c565b005b6101d06101cb3660046122bf565b6104dc565b6040516101dd91906124a3565b60405180910390f35b6101f96101f43660046123b6565b6105eb565b6040516101dd91906124ae565b6101bb6102143660046123b6565b610600565b6101bb6102273660046123ce565b6108d9565b6101bb61023a366004612337565b61091d565b6101bb61024d3660046123ce565b610a72565b6101bb610ace565b6101bb6102683660046122ff565b610b20565b6101bb610d8c565b6101d0610e17565b6101f9610e20565b6101bb610293366004612362565b611038565b6102a061121e565b6040516101dd919061242b565b6101bb61123b565b6101f961128b565b6102a06102cb3660046123f2565b611292565b6101d06102de3660046123ce565b6112b3565b6101f96112cb565b6101bb6102f93660046123b6565b6112d0565b6101d06114c3565b6101f96103143660046123b6565b6114f1565b6101bb6103273660046123ce565b611508565b6101f9611542565b6101f9611566565b600054610100900460ff1680610355575061035561158a565b80610363575060005460ff16155b6103885760405162461bcd60e51b815260040161037f90612a80565b60405180910390fd5b600054610100900460ff161580156103b3576000805460ff1961ff0019909116610100171660011790555b73ffffffffffffffffffffffffffffffffffffffff82166103e65760405162461bcd60e51b815260040161037f90612991565b6103ee611590565b6103f6611611565b6103fe61169d565b6104287fb19546dff01e856fb3f010c267a7b1c60363cf8a4664e21cc89c26224620214e83610913565b6104527f65d7a28e3265b37a6474929f336521b332c1681b933f6cb9f3376673440d862a83610913565b61049c7f65d7a28e3265b37a6474929f336521b332c1681b933f6cb9f3376673440d862a7fb19546dff01e856fb3f010c267a7b1c60363cf8a4664e21cc89c26224620214e61172c565b6104c67fb19546dff01e856fb3f010c267a7b1c60363cf8a4664e21cc89c26224620214e8061172c565b80156104d8576000805461ff00191690555b5050565b6101c4546000906105029073ffffffffffffffffffffffffffffffffffffffff16611741565b73ffffffffffffffffffffffffffffffffffffffff163373ffffffffffffffffffffffffffffffffffffffff161461054c5760405162461bcd60e51b815260040161037f906129c6565b60975460ff161561056f5760405162461bcd60e51b815260040161037f906128fd565b600061057c8585856117ce565b90508373ffffffffffffffffffffffffffffffffffffffff168573ffffffffffffffffffffffffffffffffffffffff167f422971e1d1a7c8b68372f65fe1426aef054f0c6290124a929c843c5c019521d6856040516105db91906124ae565b60405180910390a3949350505050565b60009081526065602052604090206002015490565b60975460ff16156106235760405162461bcd60e51b815260040161037f906128fd565b8061062d816118dd565b6106495760405162461bcd60e51b815260040161037f90612934565b60c95460ff1661066b5760405162461bcd60e51b815260040161037f90612b14565b60c9805460ff19169055816106925760405162461bcd60e51b815260040161037f90612add565b6101c4546000906106b89073ffffffffffffffffffffffffffffffffffffffff1661198e565b905060008173ffffffffffffffffffffffffffffffffffffffff166370a08231336040518263ffffffff1660e01b81526004016106f5919061242b565b60206040518083038186803b15801561070d57600080fd5b505afa158015610721573d6000803e3d6000fd5b505050506040513d601f19601f820116820180604052508101906107459190612413565b9050600061075285611999565b9050818111156107745760405162461bcd60e51b815260040161037f90612687565b6101c4546000906107a59061079e9073ffffffffffffffffffffffffffffffffffffffff166119c2565b8790611a4f565b905060006107b38783611a91565b90503373ffffffffffffffffffffffffffffffffffffffff167f2d4d49c3e017b8235c908cbaa83a2431a08f3b950712696ece2088964fd399f082846040516107fd929190612c16565b60405180910390a260006108123033846117ce565b9050806108315760405162461bcd60e51b815260040161037f9061280c565b61083c308433611ad3565b6040517f79cc679000000000000000000000000000000000000000000000000000000000815273ffffffffffffffffffffffffffffffffffffffff8716906379cc679090610890903390889060040161244c565b600060405180830381600087803b1580156108aa57600080fd5b505af11580156108be573d6000803e3d6000fd5b505060c9805460ff1916600117905550505050505050505050565b6000828152606560205260409020600201546108f7906102de611b78565b6109135760405162461bcd60e51b815260040161037f906125bc565b6104d88282611b7c565b6101c4546109409073ffffffffffffffffffffffffffffffffffffffff16611741565b73ffffffffffffffffffffffffffffffffffffffff163373ffffffffffffffffffffffffffffffffffffffff161461098a5760405162461bcd60e51b815260040161037f906129c6565b60975460ff16156109ad5760405162461bcd60e51b815260040161037f906128fd565b60008113156109dc5760006109c182611bff565b6101c3549091506109d29082611c17565b6101c35550610a20565b6000610a09827fffffffffffffffffffffffffffffffffffffffffffffffffffffffffffffffff02611bff565b6101c354909150610a1a9082611a91565b6101c355505b8173ffffffffffffffffffffffffffffffffffffffff167f8c23a9a70a8448cfed7aae767d71bd68857b79de2d189ee6a770619ada8b857a82604051610a6691906124ae565b60405180910390a25050565b610a7a611b78565b73ffffffffffffffffffffffffffffffffffffffff168173ffffffffffffffffffffffffffffffffffffffff1614610ac45760405162461bcd60e51b815260040161037f90612b82565b6104d88282611c3c565b610afa7f65d7a28e3265b37a6474929f336521b332c1681b933f6cb9f3376673440d862a6102de611b78565b610b165760405162461bcd60e51b815260040161037f9061271b565b610b1e611cbf565b565b600054610100900460ff1680610b395750610b3961158a565b80610b47575060005460ff16155b610b635760405162461bcd60e51b815260040161037f90612a80565b600054610100900460ff16158015610b8e576000805460ff1961ff0019909116610100171660011790555b610b978361033c565b6101c480547fffffffffffffffffffffffff00000000000000000000000000000000000000001673ffffffffffffffffffffffffffffffffffffffff8416179055610be0611d2b565b6101c3556101c454600090610c0a9073ffffffffffffffffffffffffffffffffffffffff16611d37565b90508073ffffffffffffffffffffffffffffffffffffffff166318160ddd6040518163ffffffff1660e01b815260040160206040518083038186803b158015610c5257600080fd5b505afa158015610c66573d6000803e3d6000fd5b505050506040513d601f19601f82011682018060405250810190610c8a9190612413565b506040517f095ea7b300000000000000000000000000000000000000000000000000000000815260009073ffffffffffffffffffffffffffffffffffffffff83169063095ea7b390610d029030907fffffffffffffffffffffffffffffffffffffffffffffffffffffffffffffffff9060040161244c565b602060405180830381600087803b158015610d1c57600080fd5b505af1158015610d30573d6000803e3d6000fd5b505050506040513d601f19601f82011682018060405250810190610d549190612396565b905080610d735760405162461bcd60e51b815260040161037f90612650565b50508015610d87576000805461ff00191690555b505050565b600054610100900460ff1680610da55750610da561158a565b80610db3575060005460ff16155b610dcf5760405162461bcd60e51b815260040161037f90612a80565b600054610100900460ff16158015610dfa576000805460ff1961ff0019909116610100171660011790555b610e02611611565b8015610e14576000805461ff00191690555b50565b60975460ff1690565b6101c45460009061103390610e4a9073ffffffffffffffffffffffffffffffffffffffff16611d42565b73ffffffffffffffffffffffffffffffffffffffff1663a6f4487e6040518163ffffffff1660e01b815260040160206040518083038186803b158015610e8f57600080fd5b505afa158015610ea3573d6000803e3d6000fd5b505050506040513d601f19601f82011682018060405250810190610ec79190612413565b6101c45461102d90610eee9073ffffffffffffffffffffffffffffffffffffffff16611d42565b73ffffffffffffffffffffffffffffffffffffffff1663ed80c8506040518163ffffffff1660e01b815260040160206040518083038186803b158015610f3357600080fd5b505afa158015610f47573d6000803e3d6000fd5b505050506040513d601f19601f82011682018060405250810190610f6b9190612413565b6101c454610f8e9073ffffffffffffffffffffffffffffffffffffffff16611d37565b6101c45473ffffffffffffffffffffffffffffffffffffffff918216916370a0823191610fbb9116611d4d565b6040518263ffffffff1660e01b8152600401610fd7919061242b565b60206040518083038186803b158015610fef57600080fd5b505afa158015611003573d6000803e3d6000fd5b505050506040513d601f19601f820116820180604052508101906110279190612413565b90611c17565b90611a91565b905090565b6101c45461105b9073ffffffffffffffffffffffffffffffffffffffff16611741565b73ffffffffffffffffffffffffffffffffffffffff163373ffffffffffffffffffffffffffffffffffffffff16146110a55760405162461bcd60e51b815260040161037f906129c6565b60975460ff16156110c85760405162461bcd60e51b815260040161037f906128fd565b6101c4546000906110f9906110f29073ffffffffffffffffffffffffffffffffffffffff16611d71565b8490611a4f565b905060006111078483611a91565b9050600061111482611bff565b6101c3549091506111259082611c17565b6101c3558115611180578573ffffffffffffffffffffffffffffffffffffffff167f9bbd517758fbae61197f1c1c04c8614064e89512dbaf4350dcdf76fcaa5e21618385604051611177929190612c16565b60405180910390a25b83156111d5578573ffffffffffffffffffffffffffffffffffffffff167f8295ad220549851bab232c2a7ae2e3c53a63d2294602bc85f8d8af108778a37e856040516111cc91906124ae565b60405180910390a25b6111e0868488611ad3565b60006111f687306111f18887611c17565b6117ce565b9050806112155760405162461bcd60e51b815260040161037f90612b4b565b50505050505050565b6101c45473ffffffffffffffffffffffffffffffffffffffff1681565b6112677f65d7a28e3265b37a6474929f336521b332c1681b933f6cb9f3376673440d862a6102de611b78565b6112835760405162461bcd60e51b815260040161037f9061271b565b610b1e611d96565b6101c35481565b60008281526065602052604081206112aa9083611def565b90505b92915050565b60008281526065602052604081206112aa9083611dfb565b600081565b60975460ff16156112f35760405162461bcd60e51b815260040161037f906128fd565b806112fd816118dd565b6113195760405162461bcd60e51b815260040161037f90612934565b60c95460ff1661133b5760405162461bcd60e51b815260040161037f90612b14565b60c9805460ff19169055816113625760405162461bcd60e51b815260040161037f90612bdf565b600061136d83611999565b9050600061137d82611027611e1d565b905061138881611ec0565b6113a45760405162461bcd60e51b815260040161037f906127af565b3373ffffffffffffffffffffffffffffffffffffffff167f0b05f0d1cd0819f155b8a61f60baf7767c1ee49d04aeaab701df236140eb93f985846040516113ec929190612c16565b60405180910390a260006114013330876117ce565b9050806114205760405162461bcd60e51b815260040161037f90612585565b6101c4546114439073ffffffffffffffffffffffffffffffffffffffff1661198e565b73ffffffffffffffffffffffffffffffffffffffff1663449a52f833856040518363ffffffff1660e01b815260040161147d92919061244c565b600060405180830381600087803b15801561149757600080fd5b505af11580156114ab573d6000803e3d6000fd5b505060c9805460ff1916600117905550505050505050565b60006110337fb19546dff01e856fb3f010c267a7b1c60363cf8a4664e21cc89c26224620214e6102de611b78565b60008181526065602052604081206112ad90611f7b565b600082815260656020526040902060020154611526906102de611b78565b610ac45760405162461bcd60e51b815260040161037f906128a0565b7fb19546dff01e856fb3f010c267a7b1c60363cf8a4664e21cc89c26224620214e81565b7f65d7a28e3265b37a6474929f336521b332c1681b933f6cb9f3376673440d862a81565b303b1590565b600054610100900460ff16806115a957506115a961158a565b806115b7575060005460ff16155b6115d35760405162461bcd60e51b815260040161037f90612a80565b600054610100900460ff16158015610e02576000805460ff1961ff0019909116610100171660011790558015610e14576000805461ff001916905550565b600054610100900460ff168061162a575061162a61158a565b80611638575060005460ff16155b6116545760405162461bcd60e51b815260040161037f90612a80565b600054610100900460ff1615801561167f576000805460ff1961ff0019909116610100171660011790555b6097805460ff191690558015610e14576000805461ff001916905550565b600054610100900460ff16806116b657506116b661158a565b806116c4575060005460ff16155b6116e05760405162461bcd60e51b815260040161037f90612a80565b600054610100900460ff1615801561170b576000805460ff1961ff0019909116610100171660011790555b60c9805460ff191660011790558015610e14576000805461ff001916905550565b60009182526065602052604090912060020155565b600073ffffffffffffffffffffffffffffffffffffffff821663b93f9b0a60035b6040518263ffffffff1660e01b815260040161177e91906124ae565b60206040518083038186803b15801561179657600080fd5b505afa1580156117aa573d6000803e3d6000fd5b505050506040513d601f19601f820116820180604052508101906112ad91906122a3565b600073ffffffffffffffffffffffffffffffffffffffff83166118035760405162461bcd60e51b815260040161037f906126e4565b6101c4546000906118299073ffffffffffffffffffffffffffffffffffffffff16611d37565b6040517f23b872dd00000000000000000000000000000000000000000000000000000000815290915073ffffffffffffffffffffffffffffffffffffffff8216906323b872dd9061188290889088908890600401612472565b602060405180830381600087803b15801561189c57600080fd5b505af11580156118b0573d6000803e3d6000fd5b505050506040513d601f19601f820116820180604052508101906118d49190612396565b95945050505050565b6101c4546040517ffc56365800000000000000000000000000000000000000000000000000000000815260009173ffffffffffffffffffffffffffffffffffffffff169063fc563658906119359084906004016124ae565b60206040518083038186803b15801561194d57600080fd5b505afa158015611961573d6000803e3d6000fd5b505050506040513d601f19601f820116820180604052508101906119859190612413565b90911115919050565b60006112ad82611f86565b60006112ad6101c3546119bc6119ad611d2b565b6119b686611fab565b90611fc6565b90611a4f565b600073ffffffffffffffffffffffffffffffffffffffff821663fc56365860045b6040518263ffffffff1660e01b81526004016119ff91906124ae565b60206040518083038186803b158015611a1757600080fd5b505afa158015611a2b573d6000803e3d6000fd5b505050506040513d601f19601f820116820180604052508101906112ad9190612413565b60006112aa83836040518060400160405280601a81526020017f536166654d6174683a206469766973696f6e206279207a65726f000000000000815250612000565b60006112aa83836040518060400160405280601e81526020017f536166654d6174683a207375627472616374696f6e206f766572666c6f770000815250612037565b8073ffffffffffffffffffffffffffffffffffffffff167ff3583f178a8d4f8888c3683f8e948faf9b6eb701c4f1fab265a6ecad1a1ddebb83604051611b1991906124ae565b60405180910390a26101c454600090611b53908590611b4d9073ffffffffffffffffffffffffffffffffffffffff16612063565b856117ce565b905080611b725760405162461bcd60e51b815260040161037f90612843565b50505050565b3390565b6000828152606560205260409020611b949082612088565b156104d857611ba1611b78565b73ffffffffffffffffffffffffffffffffffffffff168173ffffffffffffffffffffffffffffffffffffffff16837f2f8788117e7eff1d82e926ec794901d17c78024a50270940304540a733656f0d60405160405180910390a45050565b60006112ad611c0c611e1d565b6119bc6119ad611d2b565b6000828201838110156112aa5760405162461bcd60e51b815260040161037f90612778565b6000828152606560205260409020611c5490826120aa565b156104d857611c61611b78565b73ffffffffffffffffffffffffffffffffffffffff168173ffffffffffffffffffffffffffffffffffffffff16837ff6391f5c32d9c69d2a47ea670b442974b53935d1edc7fd64eb21e047a839171b60405160405180910390a45050565b60975460ff16611ce15760405162461bcd60e51b815260040161037f90612619565b6097805460ff191690557f5db9ee0a495bf2e6ff9c91a7834c1ba4fdd244a5e8aa4e537bd38aeae4b073aa611d14611b78565b604051611d21919061242b565b60405180910390a1565b670de0b6b3a764000090565b60006112ad826120cc565b60006112ad82611741565b600073ffffffffffffffffffffffffffffffffffffffff821663b93f9b0a82611762565b600073ffffffffffffffffffffffffffffffffffffffff821663fc56365860036119e3565b60975460ff1615611db95760405162461bcd60e51b815260040161037f906128fd565b6097805460ff191660011790557f62e78cea01bee320cd4e420270b5ea74000d11b0c9f74754ebdbfc544b05a258611d14611b78565b60006112aa83836120f1565b60006112aa8373ffffffffffffffffffffffffffffffffffffffff8416612136565b6101c454600090611e439073ffffffffffffffffffffffffffffffffffffffff1661198e565b73ffffffffffffffffffffffffffffffffffffffff166318160ddd6040518163ffffffff1660e01b815260040160206040518083038186803b158015611e8857600080fd5b505afa158015611e9c573d6000803e3d6000fd5b505050506040513d601f19601f820116820180604052508101906110339190612413565b6101c454600090611f599073ffffffffffffffffffffffffffffffffffffffff1663fc56365860016040518263ffffffff1660e01b8152600401611f0491906124ae565b60206040518083038186803b158015611f1c57600080fd5b505afa158015611f30573d6000803e3d6000fd5b505050506040513d601f19601f82011682018060405250810190611f549190612413565b611fab565b611f73611f64611d2b565b6101c3546119bc908690611fc6565b111592915050565b60006112ad8261214e565b600073ffffffffffffffffffffffffffffffffffffffff821663b93f9b0a6004611762565b60006112ad611fb8612152565b6119bc611fc3611d2b565b85905b600082611fd5575060006112ad565b82820282848281611fe257fe5b04146112aa5760405162461bcd60e51b815260040161037f90612a23565b600081836120215760405162461bcd60e51b815260040161037f91906124b7565b50600083858161202d57fe5b0495945050505050565b6000818484111561205b5760405162461bcd60e51b815260040161037f91906124b7565b505050900390565b600073ffffffffffffffffffffffffffffffffffffffff821663b93f9b0a6006611762565b60006112aa8373ffffffffffffffffffffffffffffffffffffffff8416612159565b60006112aa8373ffffffffffffffffffffffffffffffffffffffff84166121a3565b600073ffffffffffffffffffffffffffffffffffffffff821663b93f9b0a6005611762565b815460009082106121145760405162461bcd60e51b815260040161037f90612528565b82600001828154811061212357fe5b9060005260206000200154905092915050565b60009081526001919091016020526040902054151590565b5490565b620f424090565b60006121658383612136565b61219b575081546001818101845560008481526020808220909301849055845484825282860190935260409020919091556112ad565b5060006112ad565b6000818152600183016020526040812054801561227d5783547fffffffffffffffffffffffffffffffffffffffffffffffffffffffffffffffff80830191908101906000908790839081106121f457fe5b906000526020600020015490508087600001848154811061221157fe5b60009182526020808320909101929092558281526001898101909252604090209084019055865487908061224157fe5b600190038181906000526020600020016000905590558660010160008781526020019081526020016000206000905560019450505050506112ad565b60009150506112ad565b600060208284031215612298578081fd5b81356112aa81612c24565b6000602082840312156122b4578081fd5b81516112aa81612c24565b6000806000606084860312156122d3578182fd5b83356122de81612c24565b925060208401356122ee81612c24565b929592945050506040919091013590565b60008060408385031215612311578182fd5b823561231c81612c24565b9150602083013561232c81612c24565b809150509250929050565b60008060408385031215612349578182fd5b823561235481612c24565b946020939093013593505050565b600080600060608486031215612376578283fd5b833561238181612c24565b95602085013595506040909401359392505050565b6000602082840312156123a7578081fd5b815180151581146112aa578182fd5b6000602082840312156123c7578081fd5b5035919050565b600080604083850312156123e0578182fd5b82359150602083013561232c81612c24565b60008060408385031215612404578182fd5b50508035926020909101359150565b600060208284031215612424578081fd5b5051919050565b73ffffffffffffffffffffffffffffffffffffffff91909116815260200190565b73ffffffffffffffffffffffffffffffffffffffff929092168252602082015260400190565b73ffffffffffffffffffffffffffffffffffffffff9384168152919092166020820152604081019190915260600190565b901515815260200190565b90815260200190565b6000602080835283518082850152825b818110156124e3578581018301518582016040015282016124c7565b818111156124f45783604083870101525b50601f017fffffffffffffffffffffffffffffffffffffffffffffffffffffffffffffffe016929092016040019392505050565b60208082526022908201527f456e756d657261626c655365743a20696e646578206f7574206f6620626f756e60408201527f6473000000000000000000000000000000000000000000000000000000000000606082015260800190565b6020808252601e908201527f4661696c656420746f207472616e7366657220666f72206465706f7369740000604082015260600190565b6020808252602f908201527f416363657373436f6e74726f6c3a2073656e646572206d75737420626520616e60408201527f2061646d696e20746f206772616e740000000000000000000000000000000000606082015260800190565b60208082526014908201527f5061757361626c653a206e6f7420706175736564000000000000000000000000604082015260600190565b60208082526016908201527f4661696c656420746f20617070726f7665205553444300000000000000000000604082015260600190565b60208082526037908201527f416d6f756e74207265717565737465642069732067726561746572207468616e60408201527f207768617420746869732061646472657373206f776e73000000000000000000606082015260800190565b6020808252601a908201527f43616e27742073656e6420746f207a65726f2061646472657373000000000000604082015260600190565b6020808252602c908201527f4d75737420686176652070617573657220726f6c6520746f20706572666f726d60408201527f207468697320616374696f6e0000000000000000000000000000000000000000606082015260800190565b6020808252601b908201527f536166654d6174683a206164646974696f6e206f766572666c6f770000000000604082015260600190565b60208082526030908201527f4465706f73697420776f756c64207075742074686520506f6f6c206f7665722060408201527f74686520746f74616c206c696d69742e00000000000000000000000000000000606082015260800190565b6020808252601f908201527f4661696c656420746f207472616e7366657220666f7220776974686472617700604082015260600190565b60208082526023908201527f52657365727665207472616e7366657220776173206e6f74207375636365737360408201527f66756c0000000000000000000000000000000000000000000000000000000000606082015260800190565b60208082526030908201527f416363657373436f6e74726f6c3a2073656e646572206d75737420626520616e60408201527f2061646d696e20746f207265766f6b6500000000000000000000000000000000606082015260800190565b60208082526010908201527f5061757361626c653a2070617573656400000000000000000000000000000000604082015260600190565b60208082526028908201527f416d6f756e74206973206f76657220746865207065722d7472616e736163746960408201527f6f6e206c696d6974000000000000000000000000000000000000000000000000606082015260800190565b6020808252818101527f4f776e65722063616e6e6f7420626520746865207a65726f2061646472657373604082015260600190565b60208082526035908201527f4f6e6c792074686520637265646974206465736b20697320616c6c6f7765642060408201527f746f2063616c6c20746869732066756e6374696f6e0000000000000000000000606082015260800190565b60208082526021908201527f536166654d6174683a206d756c7469706c69636174696f6e206f766572666c6f60408201527f7700000000000000000000000000000000000000000000000000000000000000606082015260800190565b6020808252602e908201527f436f6e747261637420696e7374616e63652068617320616c726561647920626560408201527f656e20696e697469616c697a6564000000000000000000000000000000000000606082015260800190565b6020808252601c908201527f4d757374207769746864726177206d6f7265207468616e207a65726f00000000604082015260600190565b6020808252601f908201527f5265656e7472616e637947756172643a207265656e7472616e742063616c6c00604082015260600190565b6020808252601d908201527f4661696c656420746f207072696e636970616c2072657061796d656e74000000604082015260600190565b6020808252602f908201527f416363657373436f6e74726f6c3a2063616e206f6e6c792072656e6f756e636560408201527f20726f6c657320666f722073656c660000000000000000000000000000000000606082015260800190565b6020808252601b908201527f4d757374206465706f736974206d6f7265207468616e207a65726f0000000000604082015260600190565b918252602082015260400190565b73ffffffffffffffffffffffffffffffffffffffff81168114610e1457600080fdfea2646970667358221220a0d1986a13b0b86e9e2d27b3f8117799f79ad756a438cdbef2ab5dec145085d364736f6c634300060c0033",
  "devdoc": {
    "author": "Goldfinch",
    "kind": "dev",
    "methods": {
      "collectInterestAndPrincipal(address,uint256,uint256)": {
        "params": {
          "from": "The address to take the USDC from. Implicitly, the Pool  must be authorized to move USDC on behalf of `from`.",
          "interest": "the interest amount of USDC to move to the Pool",
          "principal": "the principal amount of USDC to move to the Pool Requirements:  - The caller must be the Credit Desk. Not even the owner can call this function."
        }
      },
      "deposit(uint256)": {
        "params": {
          "amount": "The amount of USDC to deposit"
        }
      },
      "getRoleAdmin(bytes32)": {
        "details": "Returns the admin role that controls `role`. See {grantRole} and {revokeRole}. To change a role's admin, use {_setRoleAdmin}."
      },
      "getRoleMember(bytes32,uint256)": {
        "details": "Returns one of the accounts that have `role`. `index` must be a value between 0 and {getRoleMemberCount}, non-inclusive. Role bearers are not sorted in any particular way, and their ordering may change at any point. WARNING: When using {getRoleMember} and {getRoleMemberCount}, make sure you perform all queries on the same block. See the following https://forum.openzeppelin.com/t/iterating-over-elements-on-enumerableset-in-openzeppelin-contracts/2296[forum post] for more information."
      },
      "getRoleMemberCount(bytes32)": {
        "details": "Returns the number of accounts that have `role`. Can be used together with {getRoleMember} to enumerate all bearers of a role."
      },
      "grantRole(bytes32,address)": {
        "details": "Grants `role` to `account`. If `account` had not been already granted `role`, emits a {RoleGranted} event. Requirements: - the caller must have ``role``'s admin role."
      },
      "hasRole(bytes32,address)": {
        "details": "Returns `true` if `account` has been granted `role`."
      },
      "initialize(address,address)": {
        "params": {
          "_config": "The address of the GoldfinchConfig contract",
          "owner": "The address of who should have the \"OWNER_ROLE\" of this contract"
        }
      },
      "pause()": {
        "details": "Pauses all functions guarded by Pause See {Pausable-_pause}. Requirements: - the caller must have the PAUSER_ROLE."
      },
      "paused()": {
        "details": "Returns true if the contract is paused, and false otherwise."
      },
      "renounceRole(bytes32,address)": {
        "details": "Revokes `role` from the calling account. Roles are often managed via {grantRole} and {revokeRole}: this function's purpose is to provide a mechanism for accounts to lose their privileges if they are compromised (such as when a trusted device is misplaced). If the calling account had been granted `role`, emits a {RoleRevoked} event. Requirements: - the caller must be `account`."
      },
      "revokeRole(bytes32,address)": {
        "details": "Revokes `role` from `account`. If `account` had been granted `role`, emits a {RoleRevoked} event. Requirements: - the caller must have ``role``'s admin role."
      },
      "transferFrom(address,address,uint256)": {
        "params": {
          "amount": "the amount of USDC to move to the Pool Requirements:  - The caller must be the Credit Desk. Not even the owner can call this function.",
          "from": "The address to take the USDC from. Implicitly, the Pool  must be authorized to move USDC on behalf of `from`.",
          "to": "The address that the USDC should be moved to"
        }
      },
      "unpause()": {
        "details": "Unpauses the contract See {Pausable-_unpause}. Requirements: - the caller must have the Pauser role"
      },
      "withdraw(uint256)": {
        "params": {
          "amount": "The amount of USDC to withdraw"
        }
      }
    },
    "title": "Goldfinch's Pool contract",
    "version": 1
  },
  "userdoc": {
    "kind": "user",
    "methods": {
      "collectInterestAndPrincipal(address,uint256,uint256)": {
        "notice": "Collects `interest` USDC in interest and `principal` in principal from `from` and sends it to the Pool.  This also increases the share price accordingly. A portion is sent to the Goldfinch Reserve address"
      },
      "deposit(uint256)": {
        "notice": "Deposits `amount` USDC from msg.sender into the Pool, and returns you the equivalent value of FIDU tokens"
      },
      "initialize(address,address)": {
        "notice": "Run only once, on initialization"
      },
      "transferFrom(address,address,uint256)": {
        "notice": "Moves `amount` USDC from `from`, to `to`."
      },
      "withdraw(uint256)": {
        "notice": "Withdraws `amount` USDC from the Pool to msg.sender, and burns the equivalent value of FIDU tokens"
      }
    },
    "notice": "Main entry point for LP's (a.k.a. capital providers)  Handles key logic for depositing and withdrawing funds from the Pool",
    "version": 1
  },
  "storageLayout": {
    "storage": [
      {
        "astId": 151,
        "contract": "contracts/protocol/core/Pool.sol:Pool",
        "label": "initialized",
        "offset": 0,
        "slot": "0",
        "type": "t_bool"
      },
      {
        "astId": 154,
        "contract": "contracts/protocol/core/Pool.sol:Pool",
        "label": "initializing",
        "offset": 1,
        "slot": "0",
        "type": "t_bool"
      },
      {
        "astId": 219,
        "contract": "contracts/protocol/core/Pool.sol:Pool",
        "label": "______gap",
        "offset": 0,
        "slot": "1",
        "type": "t_array(t_uint256)50_storage"
      },
      {
        "astId": 144,
        "contract": "contracts/protocol/core/Pool.sol:Pool",
        "label": "__gap",
        "offset": 0,
        "slot": "51",
        "type": "t_array(t_uint256)50_storage"
      },
      {
        "astId": 264,
        "contract": "contracts/protocol/core/Pool.sol:Pool",
        "label": "_roles",
        "offset": 0,
        "slot": "101",
        "type": "t_mapping(t_bytes32,t_struct(RoleData)260_storage)"
      },
      {
        "astId": 509,
        "contract": "contracts/protocol/core/Pool.sol:Pool",
        "label": "__gap",
        "offset": 0,
        "slot": "102",
        "type": "t_array(t_uint256)49_storage"
      },
      {
        "astId": 2385,
        "contract": "contracts/protocol/core/Pool.sol:Pool",
        "label": "_paused",
        "offset": 0,
        "slot": "151",
        "type": "t_bool"
      },
      {
        "astId": 2474,
        "contract": "contracts/protocol/core/Pool.sol:Pool",
        "label": "__gap",
        "offset": 0,
        "slot": "152",
        "type": "t_array(t_uint256)49_storage"
      },
      {
        "astId": 2483,
        "contract": "contracts/protocol/core/Pool.sol:Pool",
        "label": "_notEntered",
        "offset": 0,
        "slot": "201",
        "type": "t_bool"
      },
      {
        "astId": 2524,
        "contract": "contracts/protocol/core/Pool.sol:Pool",
        "label": "__gap",
        "offset": 0,
        "slot": "202",
        "type": "t_array(t_uint256)49_storage"
      },
      {
        "astId": 4742,
        "contract": "contracts/protocol/core/Pool.sol:Pool",
        "label": "__gap1",
        "offset": 0,
        "slot": "251",
        "type": "t_array(t_uint256)50_storage"
      },
      {
        "astId": 4746,
        "contract": "contracts/protocol/core/Pool.sol:Pool",
        "label": "__gap2",
        "offset": 0,
        "slot": "301",
        "type": "t_array(t_uint256)50_storage"
      },
      {
        "astId": 4750,
        "contract": "contracts/protocol/core/Pool.sol:Pool",
        "label": "__gap3",
        "offset": 0,
        "slot": "351",
        "type": "t_array(t_uint256)50_storage"
      },
      {
        "astId": 4754,
        "contract": "contracts/protocol/core/Pool.sol:Pool",
        "label": "__gap4",
        "offset": 0,
        "slot": "401",
        "type": "t_array(t_uint256)50_storage"
      },
      {
        "astId": 4135,
        "contract": "contracts/protocol/core/Pool.sol:Pool",
        "label": "sharePrice",
        "offset": 0,
        "slot": "451",
        "type": "t_uint256"
      },
      {
        "astId": 8113,
        "contract": "contracts/protocol/core/Pool.sol:Pool",
        "label": "config",
        "offset": 0,
        "slot": "452",
        "type": "t_contract(GoldfinchConfig)8044"
      }
    ],
    "types": {
      "t_array(t_bytes32)dyn_storage": {
        "base": "t_bytes32",
        "encoding": "dynamic_array",
        "label": "bytes32[]",
        "numberOfBytes": "32"
      },
      "t_array(t_uint256)49_storage": {
        "base": "t_uint256",
        "encoding": "inplace",
        "label": "uint256[49]",
        "numberOfBytes": "1568"
      },
      "t_array(t_uint256)50_storage": {
        "base": "t_uint256",
        "encoding": "inplace",
        "label": "uint256[50]",
        "numberOfBytes": "1600"
      },
      "t_bool": {
        "encoding": "inplace",
        "label": "bool",
        "numberOfBytes": "1"
      },
      "t_bytes32": {
        "encoding": "inplace",
        "label": "bytes32",
        "numberOfBytes": "32"
      },
      "t_contract(GoldfinchConfig)8044": {
        "encoding": "inplace",
        "label": "contract GoldfinchConfig",
        "numberOfBytes": "20"
      },
      "t_mapping(t_bytes32,t_struct(RoleData)260_storage)": {
        "encoding": "mapping",
        "key": "t_bytes32",
        "label": "mapping(bytes32 => struct AccessControlUpgradeSafe.RoleData)",
        "numberOfBytes": "32",
        "value": "t_struct(RoleData)260_storage"
      },
      "t_mapping(t_bytes32,t_uint256)": {
        "encoding": "mapping",
        "key": "t_bytes32",
        "label": "mapping(bytes32 => uint256)",
        "numberOfBytes": "32",
        "value": "t_uint256"
      },
      "t_struct(AddressSet)2160_storage": {
        "encoding": "inplace",
        "label": "struct EnumerableSet.AddressSet",
        "members": [
          {
            "astId": 2159,
            "contract": "contracts/protocol/core/Pool.sol:Pool",
            "label": "_inner",
            "offset": 0,
            "slot": "0",
            "type": "t_struct(Set)1980_storage"
          }
        ],
        "numberOfBytes": "64"
      },
      "t_struct(RoleData)260_storage": {
        "encoding": "inplace",
        "label": "struct AccessControlUpgradeSafe.RoleData",
        "members": [
          {
            "astId": 257,
            "contract": "contracts/protocol/core/Pool.sol:Pool",
            "label": "members",
            "offset": 0,
            "slot": "0",
            "type": "t_struct(AddressSet)2160_storage"
          },
          {
            "astId": 259,
            "contract": "contracts/protocol/core/Pool.sol:Pool",
            "label": "adminRole",
            "offset": 0,
            "slot": "2",
            "type": "t_bytes32"
          }
        ],
        "numberOfBytes": "96"
      },
      "t_struct(Set)1980_storage": {
        "encoding": "inplace",
        "label": "struct EnumerableSet.Set",
        "members": [
          {
            "astId": 1975,
            "contract": "contracts/protocol/core/Pool.sol:Pool",
            "label": "_values",
            "offset": 0,
            "slot": "0",
            "type": "t_array(t_bytes32)dyn_storage"
          },
          {
            "astId": 1979,
            "contract": "contracts/protocol/core/Pool.sol:Pool",
            "label": "_indexes",
            "offset": 0,
            "slot": "1",
            "type": "t_mapping(t_bytes32,t_uint256)"
          }
        ],
        "numberOfBytes": "64"
      },
      "t_uint256": {
        "encoding": "inplace",
        "label": "uint256",
        "numberOfBytes": "32"
      }
    }
  }
}