{
  "address": "0x13e11416c90F310B3c12398e4Ca61080F4d6837a",
  "abi": [
    {
      "anonymous": false,
      "inputs": [
        {
          "indexed": true,
          "internalType": "address",
          "name": "capitalProvider",
          "type": "address"
        },
        {
          "indexed": false,
          "internalType": "uint256",
          "name": "amount",
          "type": "uint256"
        },
        {
          "indexed": false,
          "internalType": "uint256",
          "name": "shares",
          "type": "uint256"
        }
      ],
      "name": "DepositMade",
      "type": "event"
    },
    {
      "anonymous": false,
      "inputs": [
        {
          "indexed": true,
          "internalType": "address",
          "name": "payer",
          "type": "address"
        },
        {
          "indexed": false,
          "internalType": "uint256",
          "name": "poolAmount",
          "type": "uint256"
        },
        {
          "indexed": false,
          "internalType": "uint256",
          "name": "reserveAmount",
          "type": "uint256"
        }
      ],
      "name": "InterestCollected",
      "type": "event"
    },
    {
      "anonymous": false,
      "inputs": [
        {
          "indexed": false,
          "internalType": "address",
          "name": "account",
          "type": "address"
        }
      ],
      "name": "Paused",
      "type": "event"
    },
    {
      "anonymous": false,
      "inputs": [
        {
          "indexed": true,
          "internalType": "address",
          "name": "payer",
          "type": "address"
        },
        {
          "indexed": false,
          "internalType": "uint256",
          "name": "amount",
          "type": "uint256"
        }
      ],
      "name": "PrincipalCollected",
      "type": "event"
    },
    {
      "anonymous": false,
      "inputs": [
        {
          "indexed": true,
          "internalType": "address",
          "name": "creditline",
          "type": "address"
        },
        {
          "indexed": false,
          "internalType": "int256",
          "name": "amount",
          "type": "int256"
        }
      ],
      "name": "PrincipalWrittendown",
      "type": "event"
    },
    {
      "anonymous": false,
      "inputs": [
        {
          "indexed": true,
          "internalType": "address",
          "name": "user",
          "type": "address"
        },
        {
          "indexed": false,
          "internalType": "uint256",
          "name": "amount",
          "type": "uint256"
        }
      ],
      "name": "ReserveFundsCollected",
      "type": "event"
    },
    {
      "anonymous": false,
      "inputs": [
        {
          "indexed": true,
          "internalType": "bytes32",
          "name": "role",
          "type": "bytes32"
        },
        {
          "indexed": true,
          "internalType": "address",
          "name": "account",
          "type": "address"
        },
        {
          "indexed": true,
          "internalType": "address",
          "name": "sender",
          "type": "address"
        }
      ],
      "name": "RoleGranted",
      "type": "event"
    },
    {
      "anonymous": false,
      "inputs": [
        {
          "indexed": true,
          "internalType": "bytes32",
          "name": "role",
          "type": "bytes32"
        },
        {
          "indexed": true,
          "internalType": "address",
          "name": "account",
          "type": "address"
        },
        {
          "indexed": true,
          "internalType": "address",
          "name": "sender",
          "type": "address"
        }
      ],
      "name": "RoleRevoked",
      "type": "event"
    },
    {
      "anonymous": false,
      "inputs": [
        {
          "indexed": true,
          "internalType": "address",
          "name": "from",
          "type": "address"
        },
        {
          "indexed": true,
          "internalType": "address",
          "name": "to",
          "type": "address"
        },
        {
          "indexed": false,
          "internalType": "uint256",
          "name": "amount",
          "type": "uint256"
        }
      ],
      "name": "TransferMade",
      "type": "event"
    },
    {
      "anonymous": false,
      "inputs": [
        {
          "indexed": false,
          "internalType": "address",
          "name": "account",
          "type": "address"
        }
      ],
      "name": "Unpaused",
      "type": "event"
    },
    {
      "anonymous": false,
      "inputs": [
        {
          "indexed": true,
          "internalType": "address",
          "name": "capitalProvider",
          "type": "address"
        },
        {
          "indexed": false,
          "internalType": "uint256",
          "name": "userAmount",
          "type": "uint256"
        },
        {
          "indexed": false,
          "internalType": "uint256",
          "name": "reserveAmount",
          "type": "uint256"
        }
      ],
      "name": "WithdrawalMade",
      "type": "event"
    },
    {
      "inputs": [],
      "name": "DEFAULT_ADMIN_ROLE",
      "outputs": [
        {
          "internalType": "bytes32",
          "name": "",
          "type": "bytes32"
        }
      ],
      "stateMutability": "view",
      "type": "function"
    },
    {
      "inputs": [],
      "name": "OWNER_ROLE",
      "outputs": [
        {
          "internalType": "bytes32",
          "name": "",
          "type": "bytes32"
        }
      ],
      "stateMutability": "view",
      "type": "function"
    },
    {
      "inputs": [],
      "name": "PAUSER_ROLE",
      "outputs": [
        {
          "internalType": "bytes32",
          "name": "",
          "type": "bytes32"
        }
      ],
      "stateMutability": "view",
      "type": "function"
    },
    {
      "inputs": [
        {
          "internalType": "address",
          "name": "owner",
          "type": "address"
        }
      ],
      "name": "__BaseUpgradeablePausable__init",
      "outputs": [],
      "stateMutability": "nonpayable",
      "type": "function"
    },
    {
      "inputs": [],
      "name": "__PauserPausable__init",
      "outputs": [],
      "stateMutability": "nonpayable",
      "type": "function"
    },
    {
      "inputs": [],
      "name": "assets",
      "outputs": [
        {
          "internalType": "uint256",
          "name": "",
          "type": "uint256"
        }
      ],
      "stateMutability": "view",
      "type": "function"
    },
    {
      "inputs": [
        {
          "internalType": "address",
          "name": "from",
          "type": "address"
        },
        {
          "internalType": "uint256",
          "name": "interest",
          "type": "uint256"
        },
        {
          "internalType": "uint256",
          "name": "principal",
          "type": "uint256"
        }
      ],
      "name": "collectInterestAndPrincipal",
      "outputs": [],
      "stateMutability": "nonpayable",
      "type": "function"
    },
    {
      "inputs": [],
      "name": "compoundBalance",
      "outputs": [
        {
          "internalType": "uint256",
          "name": "",
          "type": "uint256"
        }
      ],
      "stateMutability": "view",
      "type": "function"
    },
    {
      "inputs": [],
      "name": "config",
      "outputs": [
        {
          "internalType": "contract GoldfinchConfig",
          "name": "",
          "type": "address"
        }
      ],
      "stateMutability": "view",
      "type": "function"
    },
    {
      "inputs": [
        {
          "internalType": "uint256",
          "name": "amount",
          "type": "uint256"
        }
      ],
      "name": "deposit",
      "outputs": [],
      "stateMutability": "nonpayable",
      "type": "function"
    },
    {
      "inputs": [
        {
          "internalType": "address",
          "name": "creditlineAddress",
          "type": "address"
        },
        {
          "internalType": "int256",
          "name": "writedownDelta",
          "type": "int256"
        }
      ],
      "name": "distributeLosses",
      "outputs": [],
      "stateMutability": "nonpayable",
      "type": "function"
    },
    {
      "inputs": [
        {
          "internalType": "address",
          "name": "to",
          "type": "address"
        },
        {
          "internalType": "uint256",
          "name": "amount",
          "type": "uint256"
        }
      ],
      "name": "drawdown",
      "outputs": [
        {
          "internalType": "bool",
          "name": "",
          "type": "bool"
        }
      ],
      "stateMutability": "nonpayable",
      "type": "function"
    },
    {
      "inputs": [
        {
          "internalType": "bytes32",
          "name": "role",
          "type": "bytes32"
        }
      ],
      "name": "getRoleAdmin",
      "outputs": [
        {
          "internalType": "bytes32",
          "name": "",
          "type": "bytes32"
        }
      ],
      "stateMutability": "view",
      "type": "function"
    },
    {
      "inputs": [
        {
          "internalType": "bytes32",
          "name": "role",
          "type": "bytes32"
        },
        {
          "internalType": "uint256",
          "name": "index",
          "type": "uint256"
        }
      ],
      "name": "getRoleMember",
      "outputs": [
        {
          "internalType": "address",
          "name": "",
          "type": "address"
        }
      ],
      "stateMutability": "view",
      "type": "function"
    },
    {
      "inputs": [
        {
          "internalType": "bytes32",
          "name": "role",
          "type": "bytes32"
        }
      ],
      "name": "getRoleMemberCount",
      "outputs": [
        {
          "internalType": "uint256",
          "name": "",
          "type": "uint256"
        }
      ],
      "stateMutability": "view",
      "type": "function"
    },
    {
      "inputs": [
        {
          "internalType": "bytes32",
          "name": "role",
          "type": "bytes32"
        },
        {
          "internalType": "address",
          "name": "account",
          "type": "address"
        }
      ],
      "name": "grantRole",
      "outputs": [],
      "stateMutability": "nonpayable",
      "type": "function"
    },
    {
      "inputs": [
        {
          "internalType": "bytes32",
          "name": "role",
          "type": "bytes32"
        },
        {
          "internalType": "address",
          "name": "account",
          "type": "address"
        }
      ],
      "name": "hasRole",
      "outputs": [
        {
          "internalType": "bool",
          "name": "",
          "type": "bool"
        }
      ],
      "stateMutability": "view",
      "type": "function"
    },
    {
      "inputs": [
        {
          "internalType": "address",
          "name": "owner",
          "type": "address"
        },
        {
          "internalType": "contract GoldfinchConfig",
          "name": "_config",
          "type": "address"
        }
      ],
      "name": "initialize",
      "outputs": [],
      "stateMutability": "nonpayable",
      "type": "function"
    },
    {
      "inputs": [],
      "name": "isAdmin",
      "outputs": [
        {
          "internalType": "bool",
          "name": "",
          "type": "bool"
        }
      ],
      "stateMutability": "view",
      "type": "function"
    },
    {
      "inputs": [],
      "name": "pause",
      "outputs": [],
      "stateMutability": "nonpayable",
      "type": "function"
    },
    {
      "inputs": [],
      "name": "paused",
      "outputs": [
        {
          "internalType": "bool",
          "name": "",
          "type": "bool"
        }
      ],
      "stateMutability": "view",
      "type": "function"
    },
    {
      "inputs": [
        {
          "internalType": "bytes32",
          "name": "role",
          "type": "bytes32"
        },
        {
          "internalType": "address",
          "name": "account",
          "type": "address"
        }
      ],
      "name": "renounceRole",
      "outputs": [],
      "stateMutability": "nonpayable",
      "type": "function"
    },
    {
      "inputs": [
        {
          "internalType": "bytes32",
          "name": "role",
          "type": "bytes32"
        },
        {
          "internalType": "address",
          "name": "account",
          "type": "address"
        }
      ],
      "name": "revokeRole",
      "outputs": [],
      "stateMutability": "nonpayable",
      "type": "function"
    },
    {
      "inputs": [],
      "name": "sharePrice",
      "outputs": [
        {
          "internalType": "uint256",
          "name": "",
          "type": "uint256"
        }
      ],
      "stateMutability": "view",
      "type": "function"
    },
    {
      "inputs": [],
      "name": "sweepFromCompound",
      "outputs": [],
      "stateMutability": "nonpayable",
      "type": "function"
    },
    {
      "inputs": [],
      "name": "sweepToCompound",
      "outputs": [],
      "stateMutability": "nonpayable",
      "type": "function"
    },
    {
      "inputs": [
        {
          "internalType": "address",
          "name": "from",
          "type": "address"
        },
        {
          "internalType": "address",
          "name": "to",
          "type": "address"
        },
        {
          "internalType": "uint256",
          "name": "amount",
          "type": "uint256"
        }
      ],
      "name": "transferFrom",
      "outputs": [
        {
          "internalType": "bool",
          "name": "",
          "type": "bool"
        }
      ],
      "stateMutability": "nonpayable",
      "type": "function"
    },
    {
      "inputs": [],
      "name": "unpause",
      "outputs": [],
      "stateMutability": "nonpayable",
      "type": "function"
    },
    {
      "inputs": [],
      "name": "updateGoldfinchConfig",
      "outputs": [],
      "stateMutability": "nonpayable",
      "type": "function"
    },
    {
      "inputs": [
        {
          "internalType": "uint256",
          "name": "usdcAmount",
          "type": "uint256"
        }
      ],
      "name": "withdraw",
      "outputs": [],
      "stateMutability": "nonpayable",
      "type": "function"
    },
    {
      "inputs": [
        {
          "internalType": "uint256",
          "name": "fiduAmount",
          "type": "uint256"
        }
      ],
      "name": "withdrawInFidu",
      "outputs": [],
      "stateMutability": "nonpayable",
      "type": "function"
    }
  ],
  "transactionHash": "0xa201fe2dd7183bc6e3c789376dcfbabc73449d18386de11cfc9229ad5f684994",
  "args": [],
  "solcInputHash": "e2e6a7937b09ef08f199f5a8536ea2f5",
  "bytecode": "0x608060405234801561001057600080fd5b506132f0806100206000396000f3fe608060405234801561001057600080fd5b50600436106101e55760003560e01c806371bb0bab1161010f578063a217fddf116100a2578063d547741f11610071578063d547741f14610399578063e58378bb146103ac578063e63ab1e9146103b4578063f1a80e62146103bc576101e5565b8063a217fddf14610363578063b6b55f251461036b578063b6db75a01461037e578063ca15c87314610386576101e5565b80638836d902116100de5780638836d9021461032d5780639010d07c1461033557806391d14854146103485780639e4a88e11461035b576101e5565b806371bb0bab146102f557806379502c55146103085780638456cb591461031d5780638726972914610325576101e5565b80633f4ba83a1161018757806358031d121161015657806358031d12146102bf5780635c975abb146102d25780636acab9da146102da57806371a97305146102ed576101e5565b80633f4ba83a14610294578063485cc9551461029c5780634f92a728146102af578063526d81f6146102b7576101e5565b80632e1a7d4d116101c35780632e1a7d4d146102485780632f2ff15d1461025b578063338744bc1461026e57806336568abe14610281576101e5565b8063097616a3146101ea57806323b872dd146101ff578063248a9ca314610228575b600080fd5b6101fd6101f83660046127c6565b6103c4565b005b61021261020d3660046127fe565b6104fd565b60405161021f91906129bb565b60405180910390f35b61023b6102363660046128f5565b6105e8565b60405161021f91906129c6565b6101fd6102563660046128f5565b6105fd565b6101fd61026936600461290d565b610691565b6101fd61027c366004612876565b6106d5565b6101fd61028f36600461290d565b6107d8565b6101fd61081a565b6101fd6102aa36600461283e565b61085a565b6101fd610a43565b6101fd610aa0565b6101fd6102cd3660046128f5565b610b2b565b610212610bc1565b6102126102e8366004612876565b610bca565b61023b610c5b565b6101fd6103033660046128a1565b610e11565b610310610e85565b60405161021f919061296a565b6101fd610e95565b61023b610ed3565b6101fd610eda565b610310610343366004612931565b610f29565b61021261035636600461290d565b610f41565b6101fd610f59565b61023b6111bd565b6101fd6103793660046128f5565b6111c2565b61021261138e565b61023b6103943660046128f5565b6113af565b6101fd6103a736600461290d565b6113c6565b61023b611400565b61023b611412565b61023b611424565b600054610100900460ff16806103dd57506103dd61142b565b806103eb575060005460ff16155b6104105760405162461bcd60e51b815260040161040790613050565b60405180910390fd5b600054610100900460ff1615801561043b576000805460ff1961ff0019909116610100171660011790555b6001600160a01b0382166104615760405162461bcd60e51b815260040161040790612f85565b610469611431565b6104716114b2565b61047961153e565b61049160008051602061327b833981519152836106cb565b6104a960008051602061329b833981519152836106cb565b6104cf60008051602061329b83398151915260008051602061327b8339815191526115cd565b6104e760008051602061327b833981519152806115cd565b80156104f9576000805461ff00191690555b5050565b6101c454600090610516906001600160a01b03166115e2565b6001600160a01b0316336001600160a01b0316146105465760405162461bcd60e51b815260040161040790612fba565b60975460ff16156105695760405162461bcd60e51b815260040161040790612ece565b6000610576858585611662565b9050806105955760405162461bcd60e51b815260040161040790612bdc565b836001600160a01b0316856001600160a01b03167f422971e1d1a7c8b68372f65fe1426aef054f0c6290124a929c843c5c019521d6856040516105d891906129c6565b60405180910390a3949350505050565b60009081526065602052604090206002015490565b60975460ff16156106205760405162461bcd60e51b815260040161040790612ece565b60c95460ff166106425760405162461bcd60e51b81526004016104079061310c565b60c9805460ff19169055806106695760405162461bcd60e51b8152600401610407906130d5565b600061067482611731565b9050610680828261175a565b505060c9805460ff19166001179055565b6000828152606560205260409020600201546106af90610356611964565b6106cb5760405162461bcd60e51b815260040161040790612ad2565b6104f98282611968565b6101c4546106eb906001600160a01b03166115e2565b6001600160a01b0316336001600160a01b03161461071b5760405162461bcd60e51b815260040161040790612fba565b60975460ff161561073e5760405162461bcd60e51b815260040161040790612ece565b600081131561076d576000610752826119d1565b6101c35490915061076390826119e9565b6101c35550610793565b600061077c82600019026119d1565b6101c35490915061078d9082611a0e565b6101c355505b816001600160a01b03167f8c23a9a70a8448cfed7aae767d71bd68857b79de2d189ee6a770619ada8b857a826040516107cc91906129c6565b60405180910390a25050565b6107e0611964565b6001600160a01b0316816001600160a01b0316146108105760405162461bcd60e51b8152600401610407906131d1565b6104f98282611a50565b61083460008051602061329b833981519152610356611964565b6108505760405162461bcd60e51b815260040161040790612c6f565b610858611ab9565b565b600054610100900460ff1680610873575061087361142b565b80610881575060005460ff16155b61089d5760405162461bcd60e51b815260040161040790613050565b600054610100900460ff161580156108c8576000805460ff1961ff0019909116610100171660011790555b6108d1836103c4565b6101c480546001600160a01b0319166001600160a01b0384161790556108f5611b25565b6101c3556101c454600090610912906001600160a01b0316611b31565b9050806001600160a01b03166318160ddd6040518163ffffffff1660e01b815260040160206040518083038186803b15801561094d57600080fd5b505afa158015610961573d6000803e3d6000fd5b505050506040513d601f19601f820116820180604052508101906109859190612952565b5060405163095ea7b360e01b81526000906001600160a01b0383169063095ea7b3906109b99030906000199060040161297e565b602060405180830381600087803b1580156109d357600080fd5b505af11580156109e7573d6000803e3d6000fd5b505050506040513d601f19601f82011682018060405250810190610a0b91906128d5565b905080610a2a5760405162461bcd60e51b815260040161040790612b4f565b50508015610a3e576000805461ff00191690555b505050565b610a4b61138e565b610a675760405162461bcd60e51b815260040161040790613186565b6101c454610a7d906001600160a01b0316611b3c565b6101c480546001600160a01b0319166001600160a01b0392909216919091179055565b600054610100900460ff1680610ab95750610ab961142b565b80610ac7575060005460ff16155b610ae35760405162461bcd60e51b815260040161040790613050565b600054610100900460ff16158015610b0e576000805460ff1961ff0019909116610100171660011790555b610b166114b2565b8015610b28576000805461ff00191690555b50565b60975460ff1615610b4e5760405162461bcd60e51b815260040161040790612ece565b60c95460ff16610b705760405162461bcd60e51b81526004016104079061310c565b60c9805460ff1916905580610b975760405162461bcd60e51b8152600401610407906130d5565b6000610ba282611b54565b905081610baf828261175a565b505060c9805460ff1916600117905550565b60975460ff1690565b6101c454600090610be3906001600160a01b03166115e2565b6001600160a01b0316336001600160a01b031614610c135760405162461bcd60e51b815260040161040790612fba565b60975460ff1615610c365760405162461bcd60e51b815260040161040790612ece565b6101c55415610c4757610c47611b78565b610c523084846104fd565b90505b92915050565b6101c4546000908190610c76906001600160a01b0316611c18565b9050610e0b816001600160a01b031663a6f4487e6040518163ffffffff1660e01b815260040160206040518083038186803b158015610cb457600080fd5b505afa158015610cc8573d6000803e3d6000fd5b505050506040513d601f19601f82011682018060405250810190610cec9190612952565b610e05836001600160a01b031663ed80c8506040518163ffffffff1660e01b815260040160206040518083038186803b158015610d2857600080fd5b505afa158015610d3c573d6000803e3d6000fd5b505050506040513d601f19601f82011682018060405250810190610d609190612952565b6101c454610dff90610d7a906001600160a01b0316611b31565b6001600160a01b03166370a08231306040518263ffffffff1660e01b8152600401610da5919061296a565b60206040518083038186803b158015610dbd57600080fd5b505afa158015610dd1573d6000803e3d6000fd5b505050506040513d601f19601f82011682018060405250810190610df59190612952565b6101c554906119e9565b906119e9565b90611a0e565b91505090565b6101c454610e27906001600160a01b03166115e2565b6001600160a01b0316336001600160a01b031614610e575760405162461bcd60e51b815260040161040790612fba565b60975460ff1615610e7a5760405162461bcd60e51b815260040161040790612ece565b610a3e838383611c23565b6101c4546001600160a01b031681565b610eaf60008051602061329b833981519152610356611964565b610ecb5760405162461bcd60e51b815260040161040790612c6f565b610858611d69565b6101c35481565b610ee261138e565b610efe5760405162461bcd60e51b815260040161040790613186565b60975460ff1615610f215760405162461bcd60e51b815260040161040790612ece565b610858611b78565b6000828152606560205260408120610c529083611dc2565b6000828152606560205260408120610c529083611dce565b610f6161138e565b610f7d5760405162461bcd60e51b815260040161040790613186565b60975460ff1615610fa05760405162461bcd60e51b815260040161040790612ece565b6101c454600090610fb9906001600160a01b0316611b31565b90506000816001600160a01b03166370a08231306040518263ffffffff1660e01b8152600401610fe9919061296a565b60206040518083038186803b15801561100157600080fd5b505afa158015611015573d6000803e3d6000fd5b505050506040513d601f19601f820116820180604052508101906110399190612952565b6101c454909150600090611055906001600160a01b0316611de3565b90506000836001600160a01b031663095ea7b383856040518363ffffffff1660e01b815260040161108792919061297e565b602060405180830381600087803b1580156110a157600080fd5b505af11580156110b5573d6000803e3d6000fd5b505050506040513d601f19601f820116820180604052508101906110d991906128d5565b9050806110f85760405162461bcd60e51b815260040161040790613143565b6111028284611dee565b6101c454611118906001600160a01b0316611b31565b6001600160a01b031663095ea7b38360006040518363ffffffff1660e01b815260040161114692919061297e565b602060405180830381600087803b15801561116057600080fd5b505af1158015611174573d6000803e3d6000fd5b505050506040513d601f19601f8201168201806040525081019061119891906128d5565b9050806111b75760405162461bcd60e51b815260040161040790613143565b50505050565b600081565b60975460ff16156111e55760405162461bcd60e51b815260040161040790612ece565b806111ef81611ed5565b61120b5760405162461bcd60e51b815260040161040790612f3d565b60c95460ff1661122d5760405162461bcd60e51b81526004016104079061310c565b60c9805460ff19169055816112545760405162461bcd60e51b815260040161040790613220565b600061125f83611731565b9050600061126f82610dff611f60565b905061127a81611fe9565b6112965760405162461bcd60e51b815260040161040790612d46565b336001600160a01b03167f0b05f0d1cd0819f155b8a61f60baf7767c1ee49d04aeaab701df236140eb93f985846040516112d1929190613257565b60405180910390a260006112e6333087611662565b9050806113055760405162461bcd60e51b815260040161040790612a9b565b6101c45461131b906001600160a01b0316612088565b6001600160a01b031663449a52f833856040518363ffffffff1660e01b815260040161134892919061297e565b600060405180830381600087803b15801561136257600080fd5b505af1158015611376573d6000803e3d6000fd5b505060c9805460ff1916600117905550505050505050565b60006113aa60008051602061327b833981519152610356611964565b905090565b6000818152606560205260408120610c5590612093565b6000828152606560205260409020600201546113e490610356611964565b6108105760405162461bcd60e51b815260040161040790612e7e565b60008051602061327b83398151915281565b60008051602061329b83398151915281565b6101c55481565b303b1590565b600054610100900460ff168061144a575061144a61142b565b80611458575060005460ff16155b6114745760405162461bcd60e51b815260040161040790613050565b600054610100900460ff16158015610b16576000805460ff1961ff0019909116610100171660011790558015610b28576000805461ff001916905550565b600054610100900460ff16806114cb57506114cb61142b565b806114d9575060005460ff16155b6114f55760405162461bcd60e51b815260040161040790613050565b600054610100900460ff16158015611520576000805460ff1961ff0019909116610100171660011790555b6097805460ff191690558015610b28576000805461ff001916905550565b600054610100900460ff1680611557575061155761142b565b80611565575060005460ff16155b6115815760405162461bcd60e51b815260040161040790613050565b600054610100900460ff161580156115ac576000805460ff1961ff0019909116610100171660011790555b60c9805460ff191660011790558015610b28576000805461ff001916905550565b60009182526065602052604090912060020155565b60006001600160a01b03821663b93f9b0a60035b6040518263ffffffff1660e01b815260040161161291906129c6565b60206040518083038186803b15801561162a57600080fd5b505afa15801561163e573d6000803e3d6000fd5b505050506040513d601f19601f82011682018060405250810190610c5591906127e2565b60006001600160a01b03831661168a5760405162461bcd60e51b815260040161040790612c0a565b6101c4546000906116a3906001600160a01b0316611b31565b6040516323b872dd60e01b81529091506001600160a01b038216906323b872dd906116d690889088908890600401612997565b602060405180830381600087803b1580156116f057600080fd5b505af1158015611704573d6000803e3d6000fd5b505050506040513d601f19601f8201168201806040525081019061172891906128d5565b95945050505050565b6000610c556101c354611754611745611b25565b61174e8661209e565b906120b9565b906120f3565b8161176481611ed5565b6117805760405162461bcd60e51b815260040161040790612f3d565b6101c454600090611799906001600160a01b0316612088565b90506000816001600160a01b03166370a08231336040518263ffffffff1660e01b81526004016117c9919061296a565b60206040518083038186803b1580156117e157600080fd5b505afa1580156117f5573d6000803e3d6000fd5b505050506040513d601f19601f820116820180604052508101906118199190612952565b90508084111561183b5760405162461bcd60e51b815260040161040790612b7f565b6101c5541561184c5761184c611b78565b6101c45460009061187090611869906001600160a01b0316612135565b87906120f3565b9050600061187e8783611a0e565b9050336001600160a01b03167f2d4d49c3e017b8235c908cbaa83a2431a08f3b950712696ece2088964fd399f082846040516118bb929190613257565b60405180910390a260006118d0303384611662565b9050806118ef5760405162461bcd60e51b815260040161040790612dcd565b6118fa3084336121b5565b60405163079cc67960e41b81526001600160a01b038616906379cc6790906119289033908b9060040161297e565b600060405180830381600087803b15801561194257600080fd5b505af1158015611956573d6000803e3d6000fd5b505050505050505050505050565b3390565b6000828152606560205260409020611980908261223a565b156104f95761198d611964565b6001600160a01b0316816001600160a01b0316837f2f8788117e7eff1d82e926ec794901d17c78024a50270940304540a733656f0d60405160405180910390a45050565b6000610c556119de611f60565b611754611745611b25565b600082820183811015610c525760405162461bcd60e51b815260040161040790612cbb565b6000610c5283836040518060400160405280601e81526020017f536166654d6174683a207375627472616374696f6e206f766572666c6f77000081525061224f565b6000828152606560205260409020611a68908261227b565b156104f957611a75611964565b6001600160a01b0316816001600160a01b0316837ff6391f5c32d9c69d2a47ea670b442974b53935d1edc7fd64eb21e047a839171b60405160405180910390a45050565b60975460ff16611adb5760405162461bcd60e51b815260040161040790612b21565b6097805460ff191690557f5db9ee0a495bf2e6ff9c91a7834c1ba4fdd244a5e8aa4e537bd38aeae4b073aa611b0e611964565b604051611b1b919061296a565b60405180910390a1565b670de0b6b3a764000090565b6000610c5582612290565b60006001600160a01b03821663b93f9b0a600b6115f6565b6000610c55611b73611b64611b25565b6101c3546117549086906120b9565b6122a8565b6101c454600090611b91906001600160a01b0316611de3565b9050610b2881826001600160a01b03166370a08231306040518263ffffffff1660e01b8152600401611bc3919061296a565b60206040518083038186803b158015611bdb57600080fd5b505afa158015611bef573d6000803e3d6000fd5b505050506040513d601f19601f82011682018060405250810190611c139190612952565b6122c7565b6000610c55826115e2565b6101c454600090611c4790611c40906001600160a01b0316612599565b84906120f3565b90506000611c558483611a0e565b90506000611c62826119d1565b6101c354909150611c7390826119e9565b6101c3558115611cc157856001600160a01b03167f9bbd517758fbae61197f1c1c04c8614064e89512dbaf4350dcdf76fcaa5e21618385604051611cb8929190613257565b60405180910390a25b8315611d0957856001600160a01b03167f8295ad220549851bab232c2a7ae2e3c53a63d2294602bc85f8d8af108778a37e85604051611d0091906129c6565b60405180910390a25b8215611d1a57611d1a8684886121b5565b6001600160a01b0386163014611d61576000611d408730611d3b88876119e9565b611662565b905080611d5f5760405162461bcd60e51b815260040161040790612ef8565b505b505050505050565b60975460ff1615611d8c5760405162461bcd60e51b815260040161040790612ece565b6097805460ff191660011790557f62e78cea01bee320cd4e420270b5ea74000d11b0c9f74754ebdbfc544b05a258611b0e611964565b6000610c5283836125b1565b6000610c52836001600160a01b0384166125f6565b6000610c558261260e565b6101c55415611e0f5760405162461bcd60e51b815260040161040790612cf2565b80611e2c5760405162461bcd60e51b815260040161040790612a22565b60405163140e25ad60e31b81526000906001600160a01b0384169063a0712d6890611e5b9085906004016129c6565b602060405180830381600087803b158015611e7557600080fd5b505af1158015611e89573d6000803e3d6000fd5b505050506040513d601f19601f82011682018060405250810190611ead9190612952565b90508015611ecd5760405162461bcd60e51b815260040161040790612d96565b506101c55550565b6101c454604051631f8ac6cb60e31b81526000916001600160a01b03169063fc56365890611f079084906004016129c6565b60206040518083038186803b158015611f1f57600080fd5b505afa158015611f33573d6000803e3d6000fd5b505050506040513d601f19601f82011682018060405250810190611f579190612952565b90911115919050565b6101c454600090611f79906001600160a01b0316612088565b6001600160a01b03166318160ddd6040518163ffffffff1660e01b815260040160206040518083038186803b158015611fb157600080fd5b505afa158015611fc5573d6000803e3d6000fd5b505050506040513d601f19601f820116820180604052508101906113aa9190612952565b6101c454600090612075906001600160a01b031663fc56365860016040518263ffffffff1660e01b815260040161202091906129c6565b60206040518083038186803b15801561203857600080fd5b505afa15801561204c573d6000803e3d6000fd5b505050506040513d601f19601f820116820180604052508101906120709190612952565b61209e565b612080611b64611b25565b111592915050565b6000610c5582612626565b6000610c558261263e565b6000610c556120ab612642565b6117546120b6611b25565b85905b6000826120c857506000610c55565b828202828482816120d557fe5b0414610c525760405162461bcd60e51b81526004016104079061300f565b6000610c5283836040518060400160405280601a81526020017f536166654d6174683a206469766973696f6e206279207a65726f000000000000815250612649565b60006001600160a01b03821663fc56365860045b6040518263ffffffff1660e01b815260040161216591906129c6565b60206040518083038186803b15801561217d57600080fd5b505afa158015612191573d6000803e3d6000fd5b505050506040513d601f19601f82011682018060405250810190610c559190612952565b806001600160a01b03167ff3583f178a8d4f8888c3683f8e948faf9b6eb701c4f1fab265a6ecad1a1ddebb836040516121ee91906129c6565b60405180910390a26101c45460009061221b908590612215906001600160a01b0316612680565b85611662565b9050806111b75760405162461bcd60e51b815260040161040790612e04565b6000610c52836001600160a01b038416612698565b600081848411156122735760405162461bcd60e51b815260040161040791906129cf565b505050900390565b6000610c52836001600160a01b0384166126e2565b60006001600160a01b03821663b93f9b0a60056115f6565b6000610c556122c06122b8612642565b611754611b25565b83906120f3565b6101c554806122e85760405162461bcd60e51b815260040161040790612c41565b816123055760405162461bcd60e51b815260040161040790612a22565b6101c45460009061231e906001600160a01b0316611b31565b90506000816001600160a01b03166370a08231306040518263ffffffff1660e01b815260040161234e919061296a565b60206040518083038186803b15801561236657600080fd5b505afa15801561237a573d6000803e3d6000fd5b505050506040513d601f19601f8201168201806040525081019061239e9190612952565b90506000856001600160a01b031663bd6d894d6040518163ffffffff1660e01b8152600401602060405180830381600087803b1580156123dd57600080fd5b505af11580156123f1573d6000803e3d6000fd5b505050506040513d601f19601f820116820180604052508101906124159190612952565b9050600061242382876127a8565b90506000876001600160a01b031663db006a75886040518263ffffffff1660e01b815260040161245391906129c6565b602060405180830381600087803b15801561246d57600080fd5b505af1158015612481573d6000803e3d6000fd5b505050506040513d601f19601f820116820180604052508101906124a59190612952565b90506000856001600160a01b03166370a08231306040518263ffffffff1660e01b81526004016124d5919061296a565b60206040518083038186803b1580156124ed57600080fd5b505afa158015612501573d6000803e3d6000fd5b505050506040513d601f19601f820116820180604052508101906125259190612952565b905081156125455760405162461bcd60e51b815260040161040790612e47565b826125508287611a0e565b1461256d5760405162461bcd60e51b81526004016104079061309e565b60006125798489611a0e565b905061258730826000611c23565b505060006101c5555050505050505050565b60006001600160a01b03821663fc5636586003612149565b815460009082106125d45760405162461bcd60e51b815260040161040790612a59565b8260000182815481106125e357fe5b9060005260206000200154905092915050565b60009081526001919091016020526040902054151590565b60006001600160a01b03821663b93f9b0a600a6115f6565b60006001600160a01b03821663b93f9b0a60046115f6565b5490565b620f424090565b6000818361266a5760405162461bcd60e51b815260040161040791906129cf565b50600083858161267657fe5b0495945050505050565b60006001600160a01b03821663b93f9b0a60066115f6565b60006126a483836125f6565b6126da57508154600181810184556000848152602080822090930184905584548482528286019093526040902091909155610c55565b506000610c55565b6000818152600183016020526040812054801561279e578354600019808301919081019060009087908390811061271557fe5b906000526020600020015490508087600001848154811061273257fe5b60009182526020808320909101929092558281526001898101909252604090209084019055865487908061276257fe5b60019003818190600052602060002001600090559055866001016000878152602001908152602001600020600090556001945050505050610c55565b6000915050610c55565b6000600660086117286064611754662386f26fc1000081888a6120b9565b6000602082840312156127d7578081fd5b8135610c5281613265565b6000602082840312156127f3578081fd5b8151610c5281613265565b600080600060608486031215612812578182fd5b833561281d81613265565b9250602084013561282d81613265565b929592945050506040919091013590565b60008060408385031215612850578182fd5b823561285b81613265565b9150602083013561286b81613265565b809150509250929050565b60008060408385031215612888578182fd5b823561289381613265565b946020939093013593505050565b6000806000606084860312156128b5578283fd5b83356128c081613265565b95602085013595506040909401359392505050565b6000602082840312156128e6578081fd5b81518015158114610c52578182fd5b600060208284031215612906578081fd5b5035919050565b6000806040838503121561291f578182fd5b82359150602083013561286b81613265565b60008060408385031215612943578182fd5b50508035926020909101359150565b600060208284031215612963578081fd5b5051919050565b6001600160a01b0391909116815260200190565b6001600160a01b03929092168252602082015260400190565b6001600160a01b039384168152919092166020820152604081019190915260600190565b901515815260200190565b90815260200190565b6000602080835283518082850152825b818110156129fb578581018301518582016040015282016129df565b81811115612a0c5783604083870101525b50601f01601f1916929092016040019392505050565b6020808252601e908201527f416d6f756e7420746f2073776565702063616e6e6f74206265207a65726f0000604082015260600190565b60208082526022908201527f456e756d657261626c655365743a20696e646578206f7574206f6620626f756e604082015261647360f01b606082015260800190565b6020808252601e908201527f4661696c656420746f207472616e7366657220666f72206465706f7369740000604082015260600190565b6020808252602f908201527f416363657373436f6e74726f6c3a2073656e646572206d75737420626520616e60408201526e0818591b5a5b881d1bc819dc985b9d608a1b606082015260800190565b60208082526014908201527314185d5cd8589b194e881b9bdd081c185d5cd95960621b604082015260600190565b6020808252601690820152754661696c656420746f20617070726f7665205553444360501b604082015260600190565b60208082526037908201527f416d6f756e74207265717565737465642069732067726561746572207468616e60408201527f207768617420746869732061646472657373206f776e73000000000000000000606082015260800190565b6020808252601490820152731554d110c8151c985b9cd9995c8819985a5b195960621b604082015260600190565b6020808252601a908201527f43616e27742073656e6420746f207a65726f2061646472657373000000000000604082015260600190565b602080825260149082015273139bc8199d5b991cc81bdb8818dbdb5c1bdd5b9960621b604082015260600190565b6020808252602c908201527f4d75737420686176652070617573657220726f6c6520746f20706572666f726d60408201526b103a3434b99030b1ba34b7b760a11b606082015260800190565b6020808252601b908201527f536166654d6174683a206164646974696f6e206f766572666c6f770000000000604082015260600190565b60208082526034908201527f43616e6e6f74207377656570207768656e20776520616c72656164792068617660408201527365206120636f6d706f756e642062616c616e636560601b606082015260800190565b60208082526030908201527f4465706f73697420776f756c64207075742074686520506f6f6c206f7665722060408201526f3a3432903a37ba30b6103634b6b4ba1760811b606082015260800190565b60208082526018908201527f537765657020746f20636f6d706f756e64206661696c65640000000000000000604082015260600190565b6020808252601f908201527f4661696c656420746f207472616e7366657220666f7220776974686472617700604082015260600190565b60208082526023908201527f52657365727665207472616e7366657220776173206e6f742073756363657373604082015262199d5b60ea1b606082015260800190565b6020808252601a908201527f53776565702066726f6d20636f6d706f756e64206661696c6564000000000000604082015260600190565b60208082526030908201527f416363657373436f6e74726f6c3a2073656e646572206d75737420626520616e60408201526f2061646d696e20746f207265766f6b6560801b606082015260800190565b60208082526010908201526f14185d5cd8589b194e881c185d5cd95960821b604082015260600190565b60208082526025908201527f4661696c656420746f20636f6c6c656374207072696e636970616c20726570616040820152641e5b595b9d60da1b606082015260800190565b60208082526028908201527f416d6f756e74206973206f76657220746865207065722d7472616e73616374696040820152671bdb881b1a5b5a5d60c21b606082015260800190565b6020808252818101527f4f776e65722063616e6e6f7420626520746865207a65726f2061646472657373604082015260600190565b60208082526035908201527f4f6e6c792074686520637265646974206465736b20697320616c6c6f776564206040820152743a379031b0b636103a3434b990333ab731ba34b7b760591b606082015260800190565b60208082526021908201527f536166654d6174683a206d756c7469706c69636174696f6e206f766572666c6f6040820152607760f81b606082015260800190565b6020808252602e908201527f436f6e747261637420696e7374616e63652068617320616c726561647920626560408201526d195b881a5b9a5d1a585b1a5e995960921b606082015260800190565b60208082526018908201527f556e65787065637465642072656465656d20616d6f756e740000000000000000604082015260600190565b6020808252601c908201527f4d757374207769746864726177206d6f7265207468616e207a65726f00000000604082015260600190565b6020808252601f908201527f5265656e7472616e637947756172643a207265656e7472616e742063616c6c00604082015260600190565b60208082526023908201527f4661696c656420746f20617070726f7665205553444320666f7220636f6d706f6040820152621d5b9960ea1b606082015260800190565b6020808252602b908201527f4d75737420686176652061646d696e20726f6c6520746f20706572666f726d2060408201526a3a3434b99030b1ba34b7b760a91b606082015260800190565b6020808252602f908201527f416363657373436f6e74726f6c3a2063616e206f6e6c792072656e6f756e636560408201526e103937b632b9903337b91039b2b63360891b606082015260800190565b6020808252601b908201527f4d757374206465706f736974206d6f7265207468616e207a65726f0000000000604082015260600190565b918252602082015260400190565b6001600160a01b0381168114610b2857600080fdfeb19546dff01e856fb3f010c267a7b1c60363cf8a4664e21cc89c26224620214e65d7a28e3265b37a6474929f336521b332c1681b933f6cb9f3376673440d862aa2646970667358221220023c2bc1cb0872ae0b4c660b7b8cf82e2ca1c51166abc5d5067306cee28ab09d64736f6c634300060c0033",
  "devdoc": {
    "author": "Goldfinch",
    "kind": "dev",
    "methods": {
      "collectInterestAndPrincipal(address,uint256,uint256)": {
        "params": {
          "from": "The address to take the USDC from. Implicitly, the Pool  must be authorized to move USDC on behalf of `from`.",
          "interest": "the interest amount of USDC to move to the Pool",
          "principal": "the principal amount of USDC to move to the Pool Requirements:  - The caller must be the Credit Desk. Not even the owner can call this function."
        }
      },
      "deposit(uint256)": {
        "params": {
          "amount": "The amount of USDC to deposit"
        }
      },
      "drawdown(address,uint256)": {
        "params": {
          "amount": "the amount of USDC to move to the Pool Requirements:  - The caller must be the Credit Desk. Not even the owner can call this function.",
          "to": "The address that the USDC should be moved to"
        }
      },
      "getRoleAdmin(bytes32)": {
        "details": "Returns the admin role that controls `role`. See {grantRole} and {revokeRole}. To change a role's admin, use {_setRoleAdmin}."
      },
      "getRoleMember(bytes32,uint256)": {
        "details": "Returns one of the accounts that have `role`. `index` must be a value between 0 and {getRoleMemberCount}, non-inclusive. Role bearers are not sorted in any particular way, and their ordering may change at any point. WARNING: When using {getRoleMember} and {getRoleMemberCount}, make sure you perform all queries on the same block. See the following https://forum.openzeppelin.com/t/iterating-over-elements-on-enumerableset-in-openzeppelin-contracts/2296[forum post] for more information."
      },
      "getRoleMemberCount(bytes32)": {
        "details": "Returns the number of accounts that have `role`. Can be used together with {getRoleMember} to enumerate all bearers of a role."
      },
      "grantRole(bytes32,address)": {
        "details": "Grants `role` to `account`. If `account` had not been already granted `role`, emits a {RoleGranted} event. Requirements: - the caller must have ``role``'s admin role."
      },
      "hasRole(bytes32,address)": {
        "details": "Returns `true` if `account` has been granted `role`."
      },
      "initialize(address,address)": {
        "params": {
          "_config": "The address of the GoldfinchConfig contract",
          "owner": "The address of who should have the \"OWNER_ROLE\" of this contract"
        }
      },
      "pause()": {
        "details": "Pauses all functions guarded by Pause See {Pausable-_pause}. Requirements: - the caller must have the PAUSER_ROLE."
      },
      "paused()": {
        "details": "Returns true if the contract is paused, and false otherwise."
      },
      "renounceRole(bytes32,address)": {
        "details": "Revokes `role` from the calling account. Roles are often managed via {grantRole} and {revokeRole}: this function's purpose is to provide a mechanism for accounts to lose their privileges if they are compromised (such as when a trusted device is misplaced). If the calling account had been granted `role`, emits a {RoleRevoked} event. Requirements: - the caller must be `account`."
      },
      "revokeRole(bytes32,address)": {
        "details": "Revokes `role` from `account`. If `account` had been granted `role`, emits a {RoleRevoked} event. Requirements: - the caller must have ``role``'s admin role."
      },
      "transferFrom(address,address,uint256)": {
        "params": {
          "amount": "the amount of USDC to move to the Pool Requirements:  - The caller must be the Credit Desk. Not even the owner can call this function.",
          "from": "The address to take the USDC from. Implicitly, the Pool  must be authorized to move USDC on behalf of `from`.",
          "to": "The address that the USDC should be moved to"
        }
      },
      "unpause()": {
        "details": "Unpauses the contract See {Pausable-_unpause}. Requirements: - the caller must have the Pauser role"
      },
      "withdraw(uint256)": {
        "params": {
          "usdcAmount": "The amount of USDC to withdraw"
        }
      },
      "withdrawInFidu(uint256)": {
        "params": {
          "fiduAmount": "The amount of USDC to withdraw in terms of fidu shares"
        }
      }
    },
    "title": "Goldfinch's Pool contract",
    "version": 1
  },
  "userdoc": {
    "kind": "user",
    "methods": {
      "collectInterestAndPrincipal(address,uint256,uint256)": {
        "notice": "Collects `interest` USDC in interest and `principal` in principal from `from` and sends it to the Pool.  This also increases the share price accordingly. A portion is sent to the Goldfinch Reserve address"
      },
      "deposit(uint256)": {
        "notice": "Deposits `amount` USDC from msg.sender into the Pool, and returns you the equivalent value of FIDU tokens"
      },
      "drawdown(address,uint256)": {
        "notice": "Moves `amount` USDC from the pool, to `to`. This is similar to transferFrom except we sweep any balance we have from compound first and recognize interest. Meant to be called only by the credit desk on drawdown"
      },
      "initialize(address,address)": {
        "notice": "Run only once, on initialization"
      },
      "sweepFromCompound()": {
        "notice": "Moves any USDC from Compound back to the Pool, and recognizes interest earned. This is done automatically on drawdown or withdraw, but can be called manually if necessary. Requirements:  - The caller must be an admin."
      },
      "sweepToCompound()": {
        "notice": "Moves any USDC still in the Pool to Compound, and tracks the amount internally. This is done to earn interest on latent funds until we have other borrowers who can use it. Requirements:  - The caller must be an admin."
      },
      "transferFrom(address,address,uint256)": {
        "notice": "Moves `amount` USDC from `from`, to `to`."
      },
      "withdraw(uint256)": {
        "notice": "Withdraws USDC from the Pool to msg.sender, and burns the equivalent value of FIDU tokens"
      },
      "withdrawInFidu(uint256)": {
        "notice": "Withdraws USDC (denominated in FIDU terms) from the Pool to msg.sender"
      }
    },
    "notice": "Main entry point for LP's (a.k.a. capital providers)  Handles key logic for depositing and withdrawing funds from the Pool",
    "version": 1
  },
  "storageLayout": {
    "storage": [
      {
        "astId": 151,
        "contract": "contracts/protocol/core/Pool.sol:Pool",
        "label": "initialized",
        "offset": 0,
        "slot": "0",
        "type": "t_bool"
      },
      {
        "astId": 154,
        "contract": "contracts/protocol/core/Pool.sol:Pool",
        "label": "initializing",
        "offset": 1,
        "slot": "0",
        "type": "t_bool"
      },
      {
        "astId": 219,
        "contract": "contracts/protocol/core/Pool.sol:Pool",
        "label": "______gap",
        "offset": 0,
        "slot": "1",
        "type": "t_array(t_uint256)50_storage"
      },
      {
        "astId": 144,
        "contract": "contracts/protocol/core/Pool.sol:Pool",
        "label": "__gap",
        "offset": 0,
        "slot": "51",
        "type": "t_array(t_uint256)50_storage"
      },
      {
        "astId": 264,
        "contract": "contracts/protocol/core/Pool.sol:Pool",
        "label": "_roles",
        "offset": 0,
        "slot": "101",
        "type": "t_mapping(t_bytes32,t_struct(RoleData)260_storage)"
      },
      {
        "astId": 509,
        "contract": "contracts/protocol/core/Pool.sol:Pool",
        "label": "__gap",
        "offset": 0,
        "slot": "102",
        "type": "t_array(t_uint256)49_storage"
      },
      {
        "astId": 2385,
        "contract": "contracts/protocol/core/Pool.sol:Pool",
        "label": "_paused",
        "offset": 0,
        "slot": "151",
        "type": "t_bool"
      },
      {
        "astId": 2474,
        "contract": "contracts/protocol/core/Pool.sol:Pool",
        "label": "__gap",
        "offset": 0,
        "slot": "152",
        "type": "t_array(t_uint256)49_storage"
      },
      {
        "astId": 2483,
        "contract": "contracts/protocol/core/Pool.sol:Pool",
        "label": "_notEntered",
        "offset": 0,
        "slot": "201",
        "type": "t_bool"
      },
      {
        "astId": 2524,
        "contract": "contracts/protocol/core/Pool.sol:Pool",
        "label": "__gap",
        "offset": 0,
        "slot": "202",
        "type": "t_array(t_uint256)49_storage"
      },
      {
        "astId": 4836,
        "contract": "contracts/protocol/core/Pool.sol:Pool",
        "label": "__gap1",
        "offset": 0,
        "slot": "251",
        "type": "t_array(t_uint256)50_storage"
      },
      {
        "astId": 4840,
        "contract": "contracts/protocol/core/Pool.sol:Pool",
        "label": "__gap2",
        "offset": 0,
        "slot": "301",
        "type": "t_array(t_uint256)50_storage"
      },
      {
        "astId": 4844,
        "contract": "contracts/protocol/core/Pool.sol:Pool",
        "label": "__gap3",
        "offset": 0,
        "slot": "351",
        "type": "t_array(t_uint256)50_storage"
      },
      {
        "astId": 4848,
        "contract": "contracts/protocol/core/Pool.sol:Pool",
        "label": "__gap4",
        "offset": 0,
        "slot": "401",
        "type": "t_array(t_uint256)50_storage"
      },
      {
        "astId": 4228,
        "contract": "contracts/protocol/core/Pool.sol:Pool",
        "label": "sharePrice",
        "offset": 0,
        "slot": "451",
        "type": "t_uint256"
      },
      {
        "astId": 8251,
        "contract": "contracts/protocol/core/Pool.sol:Pool",
        "label": "config",
        "offset": 0,
        "slot": "452",
        "type": "t_contract(GoldfinchConfig)8182"
      },
      {
        "astId": 8256,
        "contract": "contracts/protocol/core/Pool.sol:Pool",
        "label": "compoundBalance",
        "offset": 0,
        "slot": "453",
        "type": "t_uint256"
      }
    ],
    "types": {
      "t_array(t_bytes32)dyn_storage": {
        "base": "t_bytes32",
        "encoding": "dynamic_array",
        "label": "bytes32[]",
        "numberOfBytes": "32"
      },
      "t_array(t_uint256)49_storage": {
        "base": "t_uint256",
        "encoding": "inplace",
        "label": "uint256[49]",
        "numberOfBytes": "1568"
      },
      "t_array(t_uint256)50_storage": {
        "base": "t_uint256",
        "encoding": "inplace",
        "label": "uint256[50]",
        "numberOfBytes": "1600"
      },
      "t_bool": {
        "encoding": "inplace",
        "label": "bool",
        "numberOfBytes": "1"
      },
      "t_bytes32": {
        "encoding": "inplace",
        "label": "bytes32",
        "numberOfBytes": "32"
      },
      "t_contract(GoldfinchConfig)8182": {
        "encoding": "inplace",
        "label": "contract GoldfinchConfig",
        "numberOfBytes": "20"
      },
      "t_mapping(t_bytes32,t_struct(RoleData)260_storage)": {
        "encoding": "mapping",
        "key": "t_bytes32",
        "label": "mapping(bytes32 => struct AccessControlUpgradeSafe.RoleData)",
        "numberOfBytes": "32",
        "value": "t_struct(RoleData)260_storage"
      },
      "t_mapping(t_bytes32,t_uint256)": {
        "encoding": "mapping",
        "key": "t_bytes32",
        "label": "mapping(bytes32 => uint256)",
        "numberOfBytes": "32",
        "value": "t_uint256"
      },
      "t_struct(AddressSet)2160_storage": {
        "encoding": "inplace",
        "label": "struct EnumerableSet.AddressSet",
        "members": [
          {
            "astId": 2159,
            "contract": "contracts/protocol/core/Pool.sol:Pool",
            "label": "_inner",
            "offset": 0,
            "slot": "0",
            "type": "t_struct(Set)1980_storage"
          }
        ],
        "numberOfBytes": "64"
      },
      "t_struct(RoleData)260_storage": {
        "encoding": "inplace",
        "label": "struct AccessControlUpgradeSafe.RoleData",
        "members": [
          {
            "astId": 257,
            "contract": "contracts/protocol/core/Pool.sol:Pool",
            "label": "members",
            "offset": 0,
            "slot": "0",
            "type": "t_struct(AddressSet)2160_storage"
          },
          {
            "astId": 259,
            "contract": "contracts/protocol/core/Pool.sol:Pool",
            "label": "adminRole",
            "offset": 0,
            "slot": "2",
            "type": "t_bytes32"
          }
        ],
        "numberOfBytes": "96"
      },
      "t_struct(Set)1980_storage": {
        "encoding": "inplace",
        "label": "struct EnumerableSet.Set",
        "members": [
          {
            "astId": 1975,
            "contract": "contracts/protocol/core/Pool.sol:Pool",
            "label": "_values",
            "offset": 0,
            "slot": "0",
            "type": "t_array(t_bytes32)dyn_storage"
          },
          {
            "astId": 1979,
            "contract": "contracts/protocol/core/Pool.sol:Pool",
            "label": "_indexes",
            "offset": 0,
            "slot": "1",
            "type": "t_mapping(t_bytes32,t_uint256)"
          }
        ],
        "numberOfBytes": "64"
      },
      "t_uint256": {
        "encoding": "inplace",
        "label": "uint256",
        "numberOfBytes": "32"
      }
    }
  }
}