{
  "address": "0x85234d517AB2C8AAbBd1f9bcA78d8DFADec4044A",
  "abi": [
    {
      "anonymous": false,
      "inputs": [
        {
          "indexed": false,
          "internalType": "address",
          "name": "account",
          "type": "address"
        }
      ],
      "name": "Paused",
      "type": "event"
    },
    {
      "anonymous": false,
      "inputs": [
        {
          "indexed": true,
          "internalType": "bytes32",
          "name": "role",
          "type": "bytes32"
        },
        {
          "indexed": true,
          "internalType": "address",
          "name": "account",
          "type": "address"
        },
        {
          "indexed": true,
          "internalType": "address",
          "name": "sender",
          "type": "address"
        }
      ],
      "name": "RoleGranted",
      "type": "event"
    },
    {
      "anonymous": false,
      "inputs": [
        {
          "indexed": true,
          "internalType": "bytes32",
          "name": "role",
          "type": "bytes32"
        },
        {
          "indexed": true,
          "internalType": "address",
          "name": "account",
          "type": "address"
        },
        {
          "indexed": true,
          "internalType": "address",
          "name": "sender",
          "type": "address"
        }
      ],
      "name": "RoleRevoked",
      "type": "event"
    },
    {
      "anonymous": false,
      "inputs": [
        {
          "indexed": false,
          "internalType": "address",
          "name": "account",
          "type": "address"
        }
      ],
      "name": "Unpaused",
      "type": "event"
    },
    {
      "inputs": [],
      "name": "DEFAULT_ADMIN_ROLE",
      "outputs": [
        {
          "internalType": "bytes32",
          "name": "",
          "type": "bytes32"
        }
      ],
      "stateMutability": "view",
      "type": "function"
    },
    {
      "inputs": [],
      "name": "OWNER_ROLE",
      "outputs": [
        {
          "internalType": "bytes32",
          "name": "",
          "type": "bytes32"
        }
      ],
      "stateMutability": "view",
      "type": "function"
    },
    {
      "inputs": [],
      "name": "PAUSER_ROLE",
      "outputs": [
        {
          "internalType": "bytes32",
          "name": "",
          "type": "bytes32"
        }
      ],
      "stateMutability": "view",
      "type": "function"
    },
    {
      "inputs": [
        {
          "internalType": "address",
          "name": "owner",
          "type": "address"
        }
      ],
      "name": "__BaseUpgradeablePausable__init",
      "outputs": [],
      "stateMutability": "nonpayable",
      "type": "function"
    },
    {
      "inputs": [],
      "name": "__PauserPausable__init",
      "outputs": [],
      "stateMutability": "nonpayable",
      "type": "function"
    },
    {
      "inputs": [],
      "name": "config",
      "outputs": [
        {
          "internalType": "contract GoldfinchConfig",
          "name": "",
          "type": "address"
        }
      ],
      "stateMutability": "view",
      "type": "function"
    },
    {
      "inputs": [
        {
          "internalType": "bytes",
          "name": "_data",
          "type": "bytes"
        }
      ],
      "name": "createCreditLine",
      "outputs": [
        {
          "internalType": "address",
          "name": "",
          "type": "address"
        }
      ],
      "stateMutability": "nonpayable",
      "type": "function"
    },
    {
      "inputs": [
        {
          "internalType": "bytes32",
          "name": "role",
          "type": "bytes32"
        }
      ],
      "name": "getRoleAdmin",
      "outputs": [
        {
          "internalType": "bytes32",
          "name": "",
          "type": "bytes32"
        }
      ],
      "stateMutability": "view",
      "type": "function"
    },
    {
      "inputs": [
        {
          "internalType": "bytes32",
          "name": "role",
          "type": "bytes32"
        },
        {
          "internalType": "uint256",
          "name": "index",
          "type": "uint256"
        }
      ],
      "name": "getRoleMember",
      "outputs": [
        {
          "internalType": "address",
          "name": "",
          "type": "address"
        }
      ],
      "stateMutability": "view",
      "type": "function"
    },
    {
      "inputs": [
        {
          "internalType": "bytes32",
          "name": "role",
          "type": "bytes32"
        }
      ],
      "name": "getRoleMemberCount",
      "outputs": [
        {
          "internalType": "uint256",
          "name": "",
          "type": "uint256"
        }
      ],
      "stateMutability": "view",
      "type": "function"
    },
    {
      "inputs": [
        {
          "internalType": "bytes32",
          "name": "role",
          "type": "bytes32"
        },
        {
          "internalType": "address",
          "name": "account",
          "type": "address"
        }
      ],
      "name": "grantRole",
      "outputs": [],
      "stateMutability": "nonpayable",
      "type": "function"
    },
    {
      "inputs": [
        {
          "internalType": "bytes32",
          "name": "role",
          "type": "bytes32"
        },
        {
          "internalType": "address",
          "name": "account",
          "type": "address"
        }
      ],
      "name": "hasRole",
      "outputs": [
        {
          "internalType": "bool",
          "name": "",
          "type": "bool"
        }
      ],
      "stateMutability": "view",
      "type": "function"
    },
    {
      "inputs": [
        {
          "internalType": "address",
          "name": "owner",
          "type": "address"
        },
        {
          "internalType": "contract GoldfinchConfig",
          "name": "_config",
          "type": "address"
        }
      ],
      "name": "initialize",
      "outputs": [],
      "stateMutability": "nonpayable",
      "type": "function"
    },
    {
      "inputs": [],
      "name": "isAdmin",
      "outputs": [
        {
          "internalType": "bool",
          "name": "",
          "type": "bool"
        }
      ],
      "stateMutability": "view",
      "type": "function"
    },
    {
      "inputs": [],
      "name": "pause",
      "outputs": [],
      "stateMutability": "nonpayable",
      "type": "function"
    },
    {
      "inputs": [],
      "name": "paused",
      "outputs": [
        {
          "internalType": "bool",
          "name": "",
          "type": "bool"
        }
      ],
      "stateMutability": "view",
      "type": "function"
    },
    {
      "inputs": [
        {
          "internalType": "bytes32",
          "name": "role",
          "type": "bytes32"
        },
        {
          "internalType": "address",
          "name": "account",
          "type": "address"
        }
      ],
      "name": "renounceRole",
      "outputs": [],
      "stateMutability": "nonpayable",
      "type": "function"
    },
    {
      "inputs": [
        {
          "internalType": "bytes32",
          "name": "role",
          "type": "bytes32"
        },
        {
          "internalType": "address",
          "name": "account",
          "type": "address"
        }
      ],
      "name": "revokeRole",
      "outputs": [],
      "stateMutability": "nonpayable",
      "type": "function"
    },
    {
      "inputs": [],
      "name": "unpause",
      "outputs": [],
      "stateMutability": "nonpayable",
      "type": "function"
    }
  ],
  "transactionHash": "0x518e76585bd6b822b5ec0d87432b2348e0738c197a5a4c2fbcb2771f47689862",
  "args": [],
  "solcInputHash": "e2e6a7937b09ef08f199f5a8536ea2f5",
  "bytecode": "0x608060405234801561001057600080fd5b50611268806100206000396000f3fe608060405234801561001057600080fd5b50600436106101215760003560e01c80638456cb59116100ad578063b6db75a011610071578063b6db75a014610322578063ca15c8731461032a578063d547741f14610347578063e58378bb14610373578063e63ab1e91461037b57610121565b80638456cb59146102535780639010d07c1461025b57806391d148541461027e5780639390bce0146102aa578063a217fddf1461031a57610121565b80633f4ba83a116100f45780633f4ba83a146101d5578063485cc955146101dd578063526d81f61461020b5780635c975abb1461021357806379502c551461022f57610121565b8063097616a314610126578063248a9ca31461014e5780632f2ff15d1461017d57806336568abe146101a9575b600080fd5b61014c6004803603602081101561013c57600080fd5b50356001600160a01b0316610383565b005b61016b6004803603602081101561016457600080fd5b5035610507565b60408051918252519081900360200190f35b61014c6004803603604081101561019357600080fd5b50803590602001356001600160a01b031661051c565b61014c600480360360408110156101bf57600080fd5b50803590602001356001600160a01b0316610584565b61014c6105e5565b61014c600480360360408110156101f357600080fd5b506001600160a01b0381358116916020013516610644565b61014c61070d565b61021b6107b7565b604080519115158252519081900360200190f35b6102376107c0565b604080516001600160a01b039092168252519081900360200190f35b61014c6107d0565b6102376004803603604081101561027157600080fd5b508035906020013561082d565b61021b6004803603604081101561029457600080fd5b50803590602001356001600160a01b031661084e565b610237600480360360208110156102c057600080fd5b8101906020810181356401000000008111156102db57600080fd5b8201836020820111156102ed57600080fd5b8035906020019184600183028401116401000000008311171561030f57600080fd5b509092509050610866565b61016b61092e565b61021b610933565b61016b6004803603602081101561034057600080fd5b5035610954565b61014c6004803603604081101561035d57600080fd5b50803590602001356001600160a01b031661096b565b61016b6109c4565b61016b6109d6565b600054610100900460ff168061039c575061039c6109e8565b806103aa575060005460ff16155b6103e55760405162461bcd60e51b815260040180806020018281038252602e8152602001806111d6602e913960400191505060405180910390fd5b600054610100900460ff16158015610410576000805460ff1961ff0019909116610100171660011790555b6001600160a01b03821661046b576040805162461bcd60e51b815260206004820181905260248201527f4f776e65722063616e6e6f7420626520746865207a65726f2061646472657373604482015290519081900360640190fd5b6104736109ee565b61047b610a8e565b610483610b39565b61049b6000805160206111668339815191528361057a565b6104b36000805160206111b68339815191528361057a565b6104d96000805160206111b6833981519152600080516020611166833981519152610be7565b6104f160008051602061116683398151915280610be7565b8015610503576000805461ff00191690555b5050565b60009081526065602052604090206002015490565b60008281526065602052604090206002015461053f9061053a610bfc565b61084e565b61057a5760405162461bcd60e51b815260040180806020018281038252602f81526020018061110b602f913960400191505060405180910390fd5b6105038282610c00565b61058c610bfc565b6001600160a01b0316816001600160a01b0316146105db5760405162461bcd60e51b815260040180806020018281038252602f815260200180611204602f913960400191505060405180910390fd5b6105038282610c69565b6105ff6000805160206111b683398151915261053a610bfc565b61063a5760405162461bcd60e51b815260040180806020018281038252602c81526020018061113a602c913960400191505060405180910390fd5b610642610cd2565b565b600054610100900460ff168061065d575061065d6109e8565b8061066b575060005460ff16155b6106a65760405162461bcd60e51b815260040180806020018281038252602e8152602001806111d6602e913960400191505060405180910390fd5b600054610100900460ff161580156106d1576000805460ff1961ff0019909116610100171660011790555b6106da83610383565b6101c380546001600160a01b0319166001600160a01b0384161790558015610708576000805461ff00191690555b505050565b600054610100900460ff168061072657506107266109e8565b80610734575060005460ff16155b61076f5760405162461bcd60e51b815260040180806020018281038252602e8152602001806111d6602e913960400191505060405180910390fd5b600054610100900460ff1615801561079a576000805460ff1961ff0019909116610100171660011790555b6107a2610a8e565b80156107b4576000805461ff00191690555b50565b60975460ff1690565b6101c3546001600160a01b031681565b6107ea6000805160206111b683398151915261053a610bfc565b6108255760405162461bcd60e51b815260040180806020018281038252602c81526020018061113a602c913960400191505060405180910390fd5b610642610d70565b60008281526065602052604081206108459083610df1565b90505b92915050565b60008281526065602052604081206108459083610dfd565b6101c35460009081906001600160a01b031663b93f9b0a60016040518263ffffffff1660e01b81526004018082815260200191505060206040518083038186803b1580156108b357600080fd5b505afa1580156108c7573d6000803e3d6000fd5b505050506040513d60208110156108dd57600080fd5b5051604080516020601f8701819004810282018101909252858152919250600091610925918491908890889081908401838280828437600092019190915250610e1292505050565b95945050505050565b600081565b600061094f60008051602061116683398151915261053a610bfc565b905090565b600081815260656020526040812061084890610f23565b6000828152606560205260409020600201546109899061053a610bfc565b6105db5760405162461bcd60e51b81526004018080602001828103825260308152602001806111866030913960400191505060405180910390fd5b60008051602061116683398151915281565b6000805160206111b683398151915281565b303b1590565b600054610100900460ff1680610a075750610a076109e8565b80610a15575060005460ff16155b610a505760405162461bcd60e51b815260040180806020018281038252602e8152602001806111d6602e913960400191505060405180910390fd5b600054610100900460ff161580156107a2576000805460ff1961ff00199091166101001716600117905580156107b4576000805461ff001916905550565b600054610100900460ff1680610aa75750610aa76109e8565b80610ab5575060005460ff16155b610af05760405162461bcd60e51b815260040180806020018281038252602e8152602001806111d6602e913960400191505060405180910390fd5b600054610100900460ff16158015610b1b576000805460ff1961ff0019909116610100171660011790555b6097805460ff1916905580156107b4576000805461ff001916905550565b600054610100900460ff1680610b525750610b526109e8565b80610b60575060005460ff16155b610b9b5760405162461bcd60e51b815260040180806020018281038252602e8152602001806111d6602e913960400191505060405180910390fd5b600054610100900460ff16158015610bc6576000805460ff1961ff0019909116610100171660011790555b60c9805460ff1916600117905580156107b4576000805461ff001916905550565b60009182526065602052604090912060020155565b3390565b6000828152606560205260409020610c189082610f2e565b1561050357610c25610bfc565b6001600160a01b0316816001600160a01b0316837f2f8788117e7eff1d82e926ec794901d17c78024a50270940304540a733656f0d60405160405180910390a45050565b6000828152606560205260409020610c819082610f43565b1561050357610c8e610bfc565b6001600160a01b0316816001600160a01b0316837ff6391f5c32d9c69d2a47ea670b442974b53935d1edc7fd64eb21e047a839171b60405160405180910390a45050565b60975460ff16610d20576040805162461bcd60e51b815260206004820152601460248201527314185d5cd8589b194e881b9bdd081c185d5cd95960621b604482015290519081900360640190fd5b6097805460ff191690557f5db9ee0a495bf2e6ff9c91a7834c1ba4fdd244a5e8aa4e537bd38aeae4b073aa610d53610bfc565b604080516001600160a01b039092168252519081900360200190a1565b60975460ff1615610dbb576040805162461bcd60e51b815260206004820152601060248201526f14185d5cd8589b194e881c185d5cd95960821b604482015290519081900360640190fd5b6097805460ff191660011790557f62e78cea01bee320cd4e420270b5ea74000d11b0c9f74754ebdbfc544b05a258610d53610bfc565b60006108458383610f58565b6000610845836001600160a01b038416610fbc565b6000808360601b9050604051733d602d80600a3d3981f3363d3d373d3d3d363d7360601b81528160148201526e5af43d82803e903d91602b57fd5bf360881b60288201526037816000f0925050600083511115610f1c576000826001600160a01b0316846040518082805190602001908083835b60208310610ea55780518252601f199092019160209182019101610e86565b6001836020036101000a0380198251168184511680821785525050505050509050019150506000604051808303816000865af19150503d8060008114610f07576040519150601f19603f3d011682016040523d82523d6000602084013e610f0c565b606091505b5050905080610f1a57600080fd5b505b5092915050565b600061084882610fd4565b6000610845836001600160a01b038416610fd8565b6000610845836001600160a01b038416611022565b81546000908210610f9a5760405162461bcd60e51b81526004018080602001828103825260228152602001806110e96022913960400191505060405180910390fd5b826000018281548110610fa957fe5b9060005260206000200154905092915050565b60009081526001919091016020526040902054151590565b5490565b6000610fe48383610fbc565b61101a57508154600181810184556000848152602080822090930184905584548482528286019093526040902091909155610848565b506000610848565b600081815260018301602052604081205480156110de578354600019808301919081019060009087908390811061105557fe5b906000526020600020015490508087600001848154811061107257fe5b6000918252602080832090910192909255828152600189810190925260409020908401905586548790806110a257fe5b60019003818190600052602060002001600090559055866001016000878152602001908152602001600020600090556001945050505050610848565b600091505061084856fe456e756d657261626c655365743a20696e646578206f7574206f6620626f756e6473416363657373436f6e74726f6c3a2073656e646572206d75737420626520616e2061646d696e20746f206772616e744d75737420686176652070617573657220726f6c6520746f20706572666f726d207468697320616374696f6eb19546dff01e856fb3f010c267a7b1c60363cf8a4664e21cc89c26224620214e416363657373436f6e74726f6c3a2073656e646572206d75737420626520616e2061646d696e20746f207265766f6b6565d7a28e3265b37a6474929f336521b332c1681b933f6cb9f3376673440d862a436f6e747261637420696e7374616e63652068617320616c7265616479206265656e20696e697469616c697a6564416363657373436f6e74726f6c3a2063616e206f6e6c792072656e6f756e636520726f6c657320666f722073656c66a26469706673582212207c1094ea242c24bbe1273411653715f9249d98e6e09001403108c9551d63075d64736f6c634300060c0033",
  "devdoc": {
    "author": "Goldfinch",
    "kind": "dev",
    "methods": {
      "getRoleAdmin(bytes32)": {
        "details": "Returns the admin role that controls `role`. See {grantRole} and {revokeRole}. To change a role's admin, use {_setRoleAdmin}."
      },
      "getRoleMember(bytes32,uint256)": {
        "details": "Returns one of the accounts that have `role`. `index` must be a value between 0 and {getRoleMemberCount}, non-inclusive. Role bearers are not sorted in any particular way, and their ordering may change at any point. WARNING: When using {getRoleMember} and {getRoleMemberCount}, make sure you perform all queries on the same block. See the following https://forum.openzeppelin.com/t/iterating-over-elements-on-enumerableset-in-openzeppelin-contracts/2296[forum post] for more information."
      },
      "getRoleMemberCount(bytes32)": {
        "details": "Returns the number of accounts that have `role`. Can be used together with {getRoleMember} to enumerate all bearers of a role."
      },
      "grantRole(bytes32,address)": {
        "details": "Grants `role` to `account`. If `account` had not been already granted `role`, emits a {RoleGranted} event. Requirements: - the caller must have ``role``'s admin role."
      },
      "hasRole(bytes32,address)": {
        "details": "Returns `true` if `account` has been granted `role`."
      },
      "pause()": {
        "details": "Pauses all functions guarded by Pause See {Pausable-_pause}. Requirements: - the caller must have the PAUSER_ROLE."
      },
      "paused()": {
        "details": "Returns true if the contract is paused, and false otherwise."
      },
      "renounceRole(bytes32,address)": {
        "details": "Revokes `role` from the calling account. Roles are often managed via {grantRole} and {revokeRole}: this function's purpose is to provide a mechanism for accounts to lose their privileges if they are compromised (such as when a trusted device is misplaced). If the calling account had been granted `role`, emits a {RoleRevoked} event. Requirements: - the caller must be `account`."
      },
      "revokeRole(bytes32,address)": {
        "details": "Revokes `role` from `account`. If `account` had been granted `role`, emits a {RoleRevoked} event. Requirements: - the caller must have ``role``'s admin role."
      },
      "unpause()": {
        "details": "Unpauses the contract See {Pausable-_unpause}. Requirements: - the caller must have the Pauser role"
      }
    },
    "title": "CreditLineFactory",
    "version": 1
  },
  "userdoc": {
    "kind": "user",
    "methods": {},
    "notice": "Contract that allows us to follow the minimal proxy pattern for creating CreditLines.  This saves us gas, and lets us easily swap out the CreditLine implementaton.",
    "version": 1
  },
  "storageLayout": {
    "storage": [
      {
        "astId": 50,
        "contract": "contracts/protocol/CreditLineFactory.sol:CreditLineFactory",
        "label": "initialized",
        "offset": 0,
        "slot": "0",
        "type": "t_bool"
      },
      {
        "astId": 53,
        "contract": "contracts/protocol/CreditLineFactory.sol:CreditLineFactory",
        "label": "initializing",
        "offset": 1,
        "slot": "0",
        "type": "t_bool"
      },
      {
        "astId": 118,
        "contract": "contracts/protocol/CreditLineFactory.sol:CreditLineFactory",
        "label": "______gap",
        "offset": 0,
        "slot": "1",
        "type": "t_array(t_uint256)50_storage"
      },
      {
        "astId": 43,
        "contract": "contracts/protocol/CreditLineFactory.sol:CreditLineFactory",
        "label": "__gap",
        "offset": 0,
        "slot": "51",
        "type": "t_array(t_uint256)50_storage"
      },
      {
        "astId": 163,
        "contract": "contracts/protocol/CreditLineFactory.sol:CreditLineFactory",
        "label": "_roles",
        "offset": 0,
        "slot": "101",
        "type": "t_mapping(t_bytes32,t_struct(RoleData)159_storage)"
      },
      {
        "astId": 408,
        "contract": "contracts/protocol/CreditLineFactory.sol:CreditLineFactory",
        "label": "__gap",
        "offset": 0,
        "slot": "102",
        "type": "t_array(t_uint256)49_storage"
      },
      {
        "astId": 2284,
        "contract": "contracts/protocol/CreditLineFactory.sol:CreditLineFactory",
        "label": "_paused",
        "offset": 0,
        "slot": "151",
        "type": "t_bool"
      },
      {
        "astId": 2373,
        "contract": "contracts/protocol/CreditLineFactory.sol:CreditLineFactory",
        "label": "__gap",
        "offset": 0,
        "slot": "152",
        "type": "t_array(t_uint256)49_storage"
      },
      {
        "astId": 2382,
        "contract": "contracts/protocol/CreditLineFactory.sol:CreditLineFactory",
        "label": "_notEntered",
        "offset": 0,
        "slot": "201",
        "type": "t_bool"
      },
      {
        "astId": 2423,
        "contract": "contracts/protocol/CreditLineFactory.sol:CreditLineFactory",
        "label": "__gap",
        "offset": 0,
        "slot": "202",
        "type": "t_array(t_uint256)49_storage"
      },
      {
        "astId": 4626,
        "contract": "contracts/protocol/CreditLineFactory.sol:CreditLineFactory",
        "label": "__gap1",
        "offset": 0,
        "slot": "251",
        "type": "t_array(t_uint256)50_storage"
      },
      {
        "astId": 4630,
        "contract": "contracts/protocol/CreditLineFactory.sol:CreditLineFactory",
        "label": "__gap2",
        "offset": 0,
        "slot": "301",
        "type": "t_array(t_uint256)50_storage"
      },
      {
        "astId": 4634,
        "contract": "contracts/protocol/CreditLineFactory.sol:CreditLineFactory",
        "label": "__gap3",
        "offset": 0,
        "slot": "351",
        "type": "t_array(t_uint256)50_storage"
      },
      {
        "astId": 4638,
        "contract": "contracts/protocol/CreditLineFactory.sol:CreditLineFactory",
        "label": "__gap4",
        "offset": 0,
        "slot": "401",
        "type": "t_array(t_uint256)50_storage"
      },
      {
        "astId": 7125,
        "contract": "contracts/protocol/CreditLineFactory.sol:CreditLineFactory",
        "label": "config",
        "offset": 0,
        "slot": "451",
        "type": "t_contract(GoldfinchConfig)7754"
      }
    ],
    "types": {
      "t_array(t_bytes32)dyn_storage": {
        "base": "t_bytes32",
        "encoding": "dynamic_array",
        "label": "bytes32[]",
        "numberOfBytes": "32"
      },
      "t_array(t_uint256)49_storage": {
        "base": "t_uint256",
        "encoding": "inplace",
        "label": "uint256[49]",
        "numberOfBytes": "1568"
      },
      "t_array(t_uint256)50_storage": {
        "base": "t_uint256",
        "encoding": "inplace",
        "label": "uint256[50]",
        "numberOfBytes": "1600"
      },
      "t_bool": {
        "encoding": "inplace",
        "label": "bool",
        "numberOfBytes": "1"
      },
      "t_bytes32": {
        "encoding": "inplace",
        "label": "bytes32",
        "numberOfBytes": "32"
      },
      "t_contract(GoldfinchConfig)7754": {
        "encoding": "inplace",
        "label": "contract GoldfinchConfig",
        "numberOfBytes": "20"
      },
      "t_mapping(t_bytes32,t_struct(RoleData)159_storage)": {
        "encoding": "mapping",
        "key": "t_bytes32",
        "label": "mapping(bytes32 => struct AccessControlUpgradeSafe.RoleData)",
        "numberOfBytes": "32",
        "value": "t_struct(RoleData)159_storage"
      },
      "t_mapping(t_bytes32,t_uint256)": {
        "encoding": "mapping",
        "key": "t_bytes32",
        "label": "mapping(bytes32 => uint256)",
        "numberOfBytes": "32",
        "value": "t_uint256"
      },
      "t_struct(AddressSet)2059_storage": {
        "encoding": "inplace",
        "label": "struct EnumerableSet.AddressSet",
        "members": [
          {
            "astId": 2058,
            "contract": "contracts/protocol/CreditLineFactory.sol:CreditLineFactory",
            "label": "_inner",
            "offset": 0,
            "slot": "0",
            "type": "t_struct(Set)1879_storage"
          }
        ],
        "numberOfBytes": "64"
      },
      "t_struct(RoleData)159_storage": {
        "encoding": "inplace",
        "label": "struct AccessControlUpgradeSafe.RoleData",
        "members": [
          {
            "astId": 156,
            "contract": "contracts/protocol/CreditLineFactory.sol:CreditLineFactory",
            "label": "members",
            "offset": 0,
            "slot": "0",
            "type": "t_struct(AddressSet)2059_storage"
          },
          {
            "astId": 158,
            "contract": "contracts/protocol/CreditLineFactory.sol:CreditLineFactory",
            "label": "adminRole",
            "offset": 0,
            "slot": "2",
            "type": "t_bytes32"
          }
        ],
        "numberOfBytes": "96"
      },
      "t_struct(Set)1879_storage": {
        "encoding": "inplace",
        "label": "struct EnumerableSet.Set",
        "members": [
          {
            "astId": 1874,
            "contract": "contracts/protocol/CreditLineFactory.sol:CreditLineFactory",
            "label": "_values",
            "offset": 0,
            "slot": "0",
            "type": "t_array(t_bytes32)dyn_storage"
          },
          {
            "astId": 1878,
            "contract": "contracts/protocol/CreditLineFactory.sol:CreditLineFactory",
            "label": "_indexes",
            "offset": 0,
            "slot": "1",
            "type": "t_mapping(t_bytes32,t_uint256)"
          }
        ],
        "numberOfBytes": "64"
      },
      "t_uint256": {
        "encoding": "inplace",
        "label": "uint256",
        "numberOfBytes": "32"
      }
    }
  }
}