{
  "address": "0x77666fCfC0Bf76c2445B792bC67FA3b215F7B0fd",
  "abi": [
    {
      "anonymous": false,
      "inputs": [
        {
          "indexed": false,
          "internalType": "address",
          "name": "account",
          "type": "address"
        }
      ],
      "name": "Paused",
      "type": "event"
    },
    {
      "anonymous": false,
      "inputs": [
        {
          "indexed": true,
          "internalType": "bytes32",
          "name": "role",
          "type": "bytes32"
        },
        {
          "indexed": true,
          "internalType": "address",
          "name": "account",
          "type": "address"
        },
        {
          "indexed": true,
          "internalType": "address",
          "name": "sender",
          "type": "address"
        }
      ],
      "name": "RoleGranted",
      "type": "event"
    },
    {
      "anonymous": false,
      "inputs": [
        {
          "indexed": true,
          "internalType": "bytes32",
          "name": "role",
          "type": "bytes32"
        },
        {
          "indexed": true,
          "internalType": "address",
          "name": "account",
          "type": "address"
        },
        {
          "indexed": true,
          "internalType": "address",
          "name": "sender",
          "type": "address"
        }
      ],
      "name": "RoleRevoked",
      "type": "event"
    },
    {
      "anonymous": false,
      "inputs": [
        {
          "indexed": false,
          "internalType": "address",
          "name": "account",
          "type": "address"
        }
      ],
      "name": "Unpaused",
      "type": "event"
    },
    {
      "inputs": [],
      "name": "DEFAULT_ADMIN_ROLE",
      "outputs": [
        {
          "internalType": "bytes32",
          "name": "",
          "type": "bytes32"
        }
      ],
      "stateMutability": "view",
      "type": "function"
    },
    {
      "inputs": [],
      "name": "OWNER_ROLE",
      "outputs": [
        {
          "internalType": "bytes32",
          "name": "",
          "type": "bytes32"
        }
      ],
      "stateMutability": "view",
      "type": "function"
    },
    {
      "inputs": [],
      "name": "PAUSER_ROLE",
      "outputs": [
        {
          "internalType": "bytes32",
          "name": "",
          "type": "bytes32"
        }
      ],
      "stateMutability": "view",
      "type": "function"
    },
    {
      "inputs": [
        {
          "internalType": "address",
          "name": "owner",
          "type": "address"
        }
      ],
      "name": "__BaseUpgradeablePausable__init",
      "outputs": [],
      "stateMutability": "nonpayable",
      "type": "function"
    },
    {
      "inputs": [],
      "name": "__PauserPausable__init",
      "outputs": [],
      "stateMutability": "nonpayable",
      "type": "function"
    },
    {
      "inputs": [
        {
          "internalType": "address",
          "name": "configAddress",
          "type": "address"
        }
      ],
      "name": "authorizePool",
      "outputs": [],
      "stateMutability": "nonpayable",
      "type": "function"
    },
    {
      "inputs": [],
      "name": "balance",
      "outputs": [
        {
          "internalType": "uint256",
          "name": "",
          "type": "uint256"
        }
      ],
      "stateMutability": "view",
      "type": "function"
    },
    {
      "inputs": [],
      "name": "borrower",
      "outputs": [
        {
          "internalType": "address",
          "name": "",
          "type": "address"
        }
      ],
      "stateMutability": "view",
      "type": "function"
    },
    {
      "inputs": [
        {
          "internalType": "bytes32",
          "name": "role",
          "type": "bytes32"
        }
      ],
      "name": "getRoleAdmin",
      "outputs": [
        {
          "internalType": "bytes32",
          "name": "",
          "type": "bytes32"
        }
      ],
      "stateMutability": "view",
      "type": "function"
    },
    {
      "inputs": [
        {
          "internalType": "bytes32",
          "name": "role",
          "type": "bytes32"
        },
        {
          "internalType": "uint256",
          "name": "index",
          "type": "uint256"
        }
      ],
      "name": "getRoleMember",
      "outputs": [
        {
          "internalType": "address",
          "name": "",
          "type": "address"
        }
      ],
      "stateMutability": "view",
      "type": "function"
    },
    {
      "inputs": [
        {
          "internalType": "bytes32",
          "name": "role",
          "type": "bytes32"
        }
      ],
      "name": "getRoleMemberCount",
      "outputs": [
        {
          "internalType": "uint256",
          "name": "",
          "type": "uint256"
        }
      ],
      "stateMutability": "view",
      "type": "function"
    },
    {
      "inputs": [
        {
          "internalType": "bytes32",
          "name": "role",
          "type": "bytes32"
        },
        {
          "internalType": "address",
          "name": "account",
          "type": "address"
        }
      ],
      "name": "grantRole",
      "outputs": [],
      "stateMutability": "nonpayable",
      "type": "function"
    },
    {
      "inputs": [
        {
          "internalType": "bytes32",
          "name": "role",
          "type": "bytes32"
        },
        {
          "internalType": "address",
          "name": "account",
          "type": "address"
        }
      ],
      "name": "hasRole",
      "outputs": [
        {
          "internalType": "bool",
          "name": "",
          "type": "bool"
        }
      ],
      "stateMutability": "view",
      "type": "function"
    },
    {
      "inputs": [
        {
          "internalType": "address",
          "name": "owner",
          "type": "address"
        },
        {
          "internalType": "address",
          "name": "_borrower",
          "type": "address"
        },
        {
          "internalType": "address",
          "name": "_underwriter",
          "type": "address"
        },
        {
          "internalType": "uint256",
          "name": "_limit",
          "type": "uint256"
        },
        {
          "internalType": "uint256",
          "name": "_interestApr",
          "type": "uint256"
        },
        {
          "internalType": "uint256",
          "name": "_paymentPeriodInDays",
          "type": "uint256"
        },
        {
          "internalType": "uint256",
          "name": "_termInDays",
          "type": "uint256"
        },
        {
          "internalType": "uint256",
          "name": "_lateFeeApr",
          "type": "uint256"
        }
      ],
      "name": "initialize",
      "outputs": [],
      "stateMutability": "nonpayable",
      "type": "function"
    },
    {
      "inputs": [],
      "name": "interestAccruedAsOfBlock",
      "outputs": [
        {
          "internalType": "uint256",
          "name": "",
          "type": "uint256"
        }
      ],
      "stateMutability": "view",
      "type": "function"
    },
    {
      "inputs": [],
      "name": "interestApr",
      "outputs": [
        {
          "internalType": "uint256",
          "name": "",
          "type": "uint256"
        }
      ],
      "stateMutability": "view",
      "type": "function"
    },
    {
      "inputs": [],
      "name": "interestOwed",
      "outputs": [
        {
          "internalType": "uint256",
          "name": "",
          "type": "uint256"
        }
      ],
      "stateMutability": "view",
      "type": "function"
    },
    {
      "inputs": [],
      "name": "isAdmin",
      "outputs": [
        {
          "internalType": "bool",
          "name": "",
          "type": "bool"
        }
      ],
      "stateMutability": "view",
      "type": "function"
    },
    {
      "inputs": [],
      "name": "lastFullPaymentBlock",
      "outputs": [
        {
          "internalType": "uint256",
          "name": "",
          "type": "uint256"
        }
      ],
      "stateMutability": "view",
      "type": "function"
    },
    {
      "inputs": [],
      "name": "lateFeeApr",
      "outputs": [
        {
          "internalType": "uint256",
          "name": "",
          "type": "uint256"
        }
      ],
      "stateMutability": "view",
      "type": "function"
    },
    {
      "inputs": [],
      "name": "limit",
      "outputs": [
        {
          "internalType": "uint256",
          "name": "",
          "type": "uint256"
        }
      ],
      "stateMutability": "view",
      "type": "function"
    },
    {
      "inputs": [],
      "name": "nextDueBlock",
      "outputs": [
        {
          "internalType": "uint256",
          "name": "",
          "type": "uint256"
        }
      ],
      "stateMutability": "view",
      "type": "function"
    },
    {
      "inputs": [],
      "name": "pause",
      "outputs": [],
      "stateMutability": "nonpayable",
      "type": "function"
    },
    {
      "inputs": [],
      "name": "paused",
      "outputs": [
        {
          "internalType": "bool",
          "name": "",
          "type": "bool"
        }
      ],
      "stateMutability": "view",
      "type": "function"
    },
    {
      "inputs": [],
      "name": "paymentPeriodInDays",
      "outputs": [
        {
          "internalType": "uint256",
          "name": "",
          "type": "uint256"
        }
      ],
      "stateMutability": "view",
      "type": "function"
    },
    {
      "inputs": [],
      "name": "principalOwed",
      "outputs": [
        {
          "internalType": "uint256",
          "name": "",
          "type": "uint256"
        }
      ],
      "stateMutability": "view",
      "type": "function"
    },
    {
      "inputs": [
        {
          "internalType": "bytes32",
          "name": "role",
          "type": "bytes32"
        },
        {
          "internalType": "address",
          "name": "account",
          "type": "address"
        }
      ],
      "name": "renounceRole",
      "outputs": [],
      "stateMutability": "nonpayable",
      "type": "function"
    },
    {
      "inputs": [
        {
          "internalType": "bytes32",
          "name": "role",
          "type": "bytes32"
        },
        {
          "internalType": "address",
          "name": "account",
          "type": "address"
        }
      ],
      "name": "revokeRole",
      "outputs": [],
      "stateMutability": "nonpayable",
      "type": "function"
    },
    {
      "inputs": [
        {
          "internalType": "uint256",
          "name": "newBalance",
          "type": "uint256"
        }
      ],
      "name": "setBalance",
      "outputs": [],
      "stateMutability": "nonpayable",
      "type": "function"
    },
    {
      "inputs": [
        {
          "internalType": "uint256",
          "name": "newInterestAccruedAsOfBlock",
          "type": "uint256"
        }
      ],
      "name": "setInterestAccruedAsOfBlock",
      "outputs": [],
      "stateMutability": "nonpayable",
      "type": "function"
    },
    {
      "inputs": [
        {
          "internalType": "uint256",
          "name": "newInterestOwed",
          "type": "uint256"
        }
      ],
      "name": "setInterestOwed",
      "outputs": [],
      "stateMutability": "nonpayable",
      "type": "function"
    },
    {
      "inputs": [
        {
          "internalType": "uint256",
          "name": "newLastFullPaymentBlock",
          "type": "uint256"
        }
      ],
      "name": "setLastFullPaymentBlock",
      "outputs": [],
      "stateMutability": "nonpayable",
      "type": "function"
    },
    {
      "inputs": [
        {
          "internalType": "uint256",
          "name": "newLateFeeApr",
          "type": "uint256"
        }
      ],
      "name": "setLateFeeApr",
      "outputs": [],
      "stateMutability": "nonpayable",
      "type": "function"
    },
    {
      "inputs": [
        {
          "internalType": "uint256",
          "name": "newAmount",
          "type": "uint256"
        }
      ],
      "name": "setLimit",
      "outputs": [],
      "stateMutability": "nonpayable",
      "type": "function"
    },
    {
      "inputs": [
        {
          "internalType": "uint256",
          "name": "newNextDueBlock",
          "type": "uint256"
        }
      ],
      "name": "setNextDueBlock",
      "outputs": [],
      "stateMutability": "nonpayable",
      "type": "function"
    },
    {
      "inputs": [
        {
          "internalType": "uint256",
          "name": "newPrincipalOwed",
          "type": "uint256"
        }
      ],
      "name": "setPrincipalOwed",
      "outputs": [],
      "stateMutability": "nonpayable",
      "type": "function"
    },
    {
      "inputs": [
        {
          "internalType": "uint256",
          "name": "newTermEndBlock",
          "type": "uint256"
        }
      ],
      "name": "setTermEndBlock",
      "outputs": [],
      "stateMutability": "nonpayable",
      "type": "function"
    },
    {
      "inputs": [
        {
          "internalType": "uint256",
          "name": "newWritedownAmount",
          "type": "uint256"
        }
      ],
      "name": "setWritedownAmount",
      "outputs": [],
      "stateMutability": "nonpayable",
      "type": "function"
    },
    {
      "inputs": [],
      "name": "termEndBlock",
      "outputs": [
        {
          "internalType": "uint256",
          "name": "",
          "type": "uint256"
        }
      ],
      "stateMutability": "view",
      "type": "function"
    },
    {
      "inputs": [],
      "name": "termInDays",
      "outputs": [
        {
          "internalType": "uint256",
          "name": "",
          "type": "uint256"
        }
      ],
      "stateMutability": "view",
      "type": "function"
    },
    {
      "inputs": [],
      "name": "underwriter",
      "outputs": [
        {
          "internalType": "address",
          "name": "",
          "type": "address"
        }
      ],
      "stateMutability": "view",
      "type": "function"
    },
    {
      "inputs": [],
      "name": "unpause",
      "outputs": [],
      "stateMutability": "nonpayable",
      "type": "function"
    },
    {
      "inputs": [],
      "name": "writedownAmount",
      "outputs": [
        {
          "internalType": "uint256",
          "name": "",
          "type": "uint256"
        }
      ],
      "stateMutability": "view",
      "type": "function"
    }
  ],
  "transactionHash": "0x06faa0eead1c67ce6ef3b2c9aa091ad9505a3b8320fd42bb748d74f15fbf749f",
  "args": [],
  "solcInputHash": "d2b64f0271131afd2f1758340059b6ad",
  "bytecode": "0x608060405234801561001057600080fd5b50611842806100206000396000f3fe608060405234801561001057600080fd5b50600436106102695760003560e01c80639010d07c11610151578063ca15c873116100c3578063e58378bb11610087578063e58378bb1461048e578063e63ab1e914610496578063f00db2601461049e578063f0b25bde146104a6578063fb1669ca146104ae578063fb9eb990146104c157610269565b8063ca15c8731461043a578063cc862de51461044d578063cf1787e614610455578063d547741f14610468578063df8fa4301461047b57610269565b8063a4d66daf11610115578063a4d66daf146103ff578063b396999214610407578063b3b8a9c71461040f578063b69ef8a814610422578063b6db75a01461042a578063bfe976a91461043257610269565b80639010d07c146103b657806391d14854146103c957806396c8df37146103dc57806399dd8df3146103ef578063a217fddf146103f757610269565b80633f4ba83a116101ea578063526d81f6116101ae578063526d81f61461035657806352ee365e1461035e5780635c975abb146103715780637957dda3146103865780637df1f1b9146103995780638456cb59146103ae57610269565b80633f4ba83a14610323578063408862d91461032b57806348e6f29614610333578063500b245e1461033b57806351bc49531461034357610269565b80632771eca8116102315780632771eca8146102c457806327ea6f2b146102d75780632f2ff15d146102ea5780633059b7c6146102fd57806336568abe1461031057610269565b8063097616a31461026e5780631790ebd51461028357806319350114146102a157806321856b36146102a9578063248a9ca3146102b1575b600080fd5b61028161027c3660046112f5565b6104d4565b005b61028b61060d565b604051610298919061146a565b60405180910390f35b61028b610614565b61028b61061b565b61028b6102bf3660046113ca565b610622565b6102816102d23660046113ca565b610637565b6102816102e53660046113ca565b610661565b6102816102f83660046113e2565b6106b1565b61028161030b3660046112f5565b6106f5565b61028161031e3660046113e2565b6108c5565b610281610907565b61028b610947565b61028b61094e565b61028b610955565b6102816103513660046113ca565b61095c565b610281610986565b61028161036c3660046113ca565b610a11565b610379610a3b565b604051610298919061145f565b6102816103943660046113ca565b610a44565b6103a1610a6e565b6040516102989190611432565b610281610a7e565b6103a16103c4366004611411565b610abc565b6103796103d73660046113e2565b610add565b6102816103ea3660046113ca565b610af5565b61028b610b1f565b61028b610b26565b61028b610b2b565b61028b610b32565b61028161041d3660046113ca565b610b39565b61028b610b63565b610379610b6a565b61028b610b8b565b61028b6104483660046113ca565b610b92565b61028b610ba9565b6102816104633660046113ca565b610bb0565b6102816104763660046113e2565b610bda565b610281610489366004611334565b610c14565b61028b610d4d565b61028b610d5f565b6103a1610d71565b61028b610d81565b6102816104bc3660046113ca565b610d88565b6102816104cf3660046113ca565b610db2565b600054610100900460ff16806104ed57506104ed610ddc565b806104fb575060005460ff16155b6105205760405162461bcd60e51b81526004016105179061165d565b60405180910390fd5b600054610100900460ff1615801561054b576000805460ff1961ff0019909116610100171660011790555b6001600160a01b0382166105715760405162461bcd60e51b815260040161051790611628565b610579610de2565b610581610e63565b610589610eef565b6105a16000805160206117cd833981519152836106eb565b6105b96000805160206117ed833981519152836106eb565b6105df6000805160206117ed8339815191526000805160206117cd833981519152610f7e565b6105f76000805160206117cd83398151915280610f7e565b8015610609576000805461ff00191690555b5050565b6101cd5481565b6101cc5481565b6101cb5481565b60009081526065602052604090206002015490565b61063f610b6a565b61065b5760405162461bcd60e51b81526004016105179061171d565b6101d055565b610669610b6a565b8061068f57506101c4546001600160a01b0316610684610f93565b6001600160a01b0316145b6106ab5760405162461bcd60e51b8152600401610517906116ab565b6101c555565b6000828152606560205260409020600201546106cf906103d7610f93565b6106eb5760405162461bcd60e51b8152600401610517906114b5565b6106098282610f97565b6106fd610b6a565b6107195760405162461bcd60e51b81526004016105179061171d565b8060006001600160a01b03821663b93f9b0a826040518263ffffffff1660e01b8152600401610748919061146a565b60206040518083038186803b15801561076057600080fd5b505afa158015610774573d6000803e3d6000fd5b505050506040513d601f19601f820116820180604052508101906107989190611318565b905060006001600160a01b03831663b93f9b0a60056040518263ffffffff1660e01b81526004016107c9919061146a565b60206040518083038186803b1580156107e157600080fd5b505afa1580156107f5573d6000803e3d6000fd5b505050506040513d601f19601f820116820180604052508101906108199190611318565b90506000816001600160a01b031663095ea7b3846000196040518363ffffffff1660e01b815260040161084d929190611446565b602060405180830381600087803b15801561086757600080fd5b505af115801561087b573d6000803e3d6000fd5b505050506040513d601f19601f8201168201806040525081019061089f91906113aa565b9050806108be5760405162461bcd60e51b815260040161051790611532565b5050505050565b6108cd610f93565b6001600160a01b0316816001600160a01b0316146108fd5760405162461bcd60e51b815260040161051790611768565b6106098282611000565b6109216000805160206117ed8339815191526103d7610f93565b61093d5760405162461bcd60e51b815260040161051790611562565b610945611069565b565b6101cf5481565b6101c85481565b6101ce5481565b610964610b6a565b6109805760405162461bcd60e51b81526004016105179061171d565b6101d155565b600054610100900460ff168061099f575061099f610ddc565b806109ad575060005460ff16155b6109c95760405162461bcd60e51b81526004016105179061165d565b600054610100900460ff161580156109f4576000805460ff1961ff0019909116610100171660011790555b6109fc610e63565b8015610a0e576000805461ff00191690555b50565b610a19610b6a565b610a355760405162461bcd60e51b81526004016105179061171d565b6101cf55565b60975460ff1690565b610a4c610b6a565b610a685760405162461bcd60e51b81526004016105179061171d565b6101ce55565b6101c3546001600160a01b031681565b610a986000805160206117ed8339815191526103d7610f93565b610ab45760405162461bcd60e51b815260040161051790611562565b6109456110d5565b6000828152606560205260408120610ad4908361112e565b90505b92915050565b6000828152606560205260408120610ad4908361113a565b610afd610b6a565b610b195760405162461bcd60e51b81526004016105179061171d565b6101cb55565b6101c75481565b600081565b6101c55481565b6101c65481565b610b41610b6a565b610b5d5760405162461bcd60e51b81526004016105179061171d565b6101cc55565b6101ca5481565b6000610b866000805160206117cd8339815191526103d7610f93565b905090565b6101d15481565b6000818152606560205260408120610ad79061114f565b6101d05481565b610bb8610b6a565b610bd45760405162461bcd60e51b81526004016105179061171d565b6101c955565b600082815260656020526040902060020154610bf8906103d7610f93565b6108fd5760405162461bcd60e51b8152600401610517906115ae565b600054610100900460ff1680610c2d5750610c2d610ddc565b80610c3b575060005460ff16155b610c575760405162461bcd60e51b81526004016105179061165d565b600054610100900460ff16158015610c82576000805460ff1961ff0019909116610100171660011790555b6001600160a01b03891615801590610ca257506001600160a01b03881615155b8015610cb657506001600160a01b03871615155b610cd25760405162461bcd60e51b8152600401610517906116ed565b610cdb896104d4565b6101c380546001600160a01b03808b166001600160a01b0319928316179092556101c48054928a16929091169190911790556101c58690556101c68590556101c78490556101c88390556101c9829055436101cf558015610d42576000805461ff00191690555b505050505050505050565b6000805160206117cd83398151915281565b6000805160206117ed83398151915281565b6101c4546001600160a01b031681565b6101c95481565b610d90610b6a565b610dac5760405162461bcd60e51b81526004016105179061171d565b6101ca55565b610dba610b6a565b610dd65760405162461bcd60e51b81526004016105179061171d565b6101cd55565b303b1590565b600054610100900460ff1680610dfb5750610dfb610ddc565b80610e09575060005460ff16155b610e255760405162461bcd60e51b81526004016105179061165d565b600054610100900460ff161580156109fc576000805460ff1961ff0019909116610100171660011790558015610a0e576000805461ff001916905550565b600054610100900460ff1680610e7c5750610e7c610ddc565b80610e8a575060005460ff16155b610ea65760405162461bcd60e51b81526004016105179061165d565b600054610100900460ff16158015610ed1576000805460ff1961ff0019909116610100171660011790555b6097805460ff191690558015610a0e576000805461ff001916905550565b600054610100900460ff1680610f085750610f08610ddc565b80610f16575060005460ff16155b610f325760405162461bcd60e51b81526004016105179061165d565b600054610100900460ff16158015610f5d576000805460ff1961ff0019909116610100171660011790555b60c9805460ff191660011790558015610a0e576000805461ff001916905550565b60009182526065602052604090912060020155565b3390565b6000828152606560205260409020610faf908261115a565b1561060957610fbc610f93565b6001600160a01b0316816001600160a01b0316837f2f8788117e7eff1d82e926ec794901d17c78024a50270940304540a733656f0d60405160405180910390a45050565b6000828152606560205260409020611018908261116f565b1561060957611025610f93565b6001600160a01b0316816001600160a01b0316837ff6391f5c32d9c69d2a47ea670b442974b53935d1edc7fd64eb21e047a839171b60405160405180910390a45050565b60975460ff1661108b5760405162461bcd60e51b815260040161051790611504565b6097805460ff191690557f5db9ee0a495bf2e6ff9c91a7834c1ba4fdd244a5e8aa4e537bd38aeae4b073aa6110be610f93565b6040516110cb9190611432565b60405180910390a1565b60975460ff16156110f85760405162461bcd60e51b8152600401610517906115fe565b6097805460ff191660011790557f62e78cea01bee320cd4e420270b5ea74000d11b0c9f74754ebdbfc544b05a2586110be610f93565b6000610ad48383611184565b6000610ad4836001600160a01b0384166111c9565b6000610ad7826111e1565b6000610ad4836001600160a01b0384166111e5565b6000610ad4836001600160a01b03841661122f565b815460009082106111a75760405162461bcd60e51b815260040161051790611473565b8260000182815481106111b657fe5b9060005260206000200154905092915050565b60009081526001919091016020526040902054151590565b5490565b60006111f183836111c9565b61122757508154600181810184556000848152602080822090930184905584548482528286019093526040902091909155610ad7565b506000610ad7565b600081815260018301602052604081205480156112eb578354600019808301919081019060009087908390811061126257fe5b906000526020600020015490508087600001848154811061127f57fe5b6000918252602080832090910192909255828152600189810190925260409020908401905586548790806112af57fe5b60019003818190600052602060002001600090559055866001016000878152602001908152602001600020600090556001945050505050610ad7565b6000915050610ad7565b600060208284031215611306578081fd5b8135611311816117b7565b9392505050565b600060208284031215611329578081fd5b8151611311816117b7565b600080600080600080600080610100898b031215611350578384fd5b883561135b816117b7565b9750602089013561136b816117b7565b9650604089013561137b816117b7565b979a96995096976060810135975060808101359660a0820135965060c0820135955060e0909101359350915050565b6000602082840312156113bb578081fd5b81518015158114611311578182fd5b6000602082840312156113db578081fd5b5035919050565b600080604083850312156113f4578182fd5b823591506020830135611406816117b7565b809150509250929050565b60008060408385031215611423578182fd5b50508035926020909101359150565b6001600160a01b0391909116815260200190565b6001600160a01b03929092168252602082015260400190565b901515815260200190565b90815260200190565b60208082526022908201527f456e756d657261626c655365743a20696e646578206f7574206f6620626f756e604082015261647360f01b606082015260800190565b6020808252602f908201527f416363657373436f6e74726f6c3a2073656e646572206d75737420626520616e60408201526e0818591b5a5b881d1bc819dc985b9d608a1b606082015260800190565b60208082526014908201527314185d5cd8589b194e881b9bdd081c185d5cd95960621b604082015260600190565b6020808252601690820152754661696c656420746f20617070726f7665205553444360501b604082015260600190565b6020808252602c908201527f4d75737420686176652070617573657220726f6c6520746f20706572666f726d60408201526b103a3434b99030b1ba34b7b760a11b606082015260800190565b60208082526030908201527f416363657373436f6e74726f6c3a2073656e646572206d75737420626520616e60408201526f2061646d696e20746f207265766f6b6560801b606082015260800190565b60208082526010908201526f14185d5cd8589b194e881c185d5cd95960821b604082015260600190565b6020808252818101527f4f776e65722063616e6e6f7420626520746865207a65726f2061646472657373604082015260600190565b6020808252602e908201527f436f6e747261637420696e7374616e63652068617320616c726561647920626560408201526d195b881a5b9a5d1a585b1a5e995960921b606082015260800190565b60208082526022908201527f5265737472696374656420746f206f776e6572206f7220756e6465727772697460408201526132b960f11b606082015260800190565b6020808252601690820152752d32b9379030b2323932b9b9903830b9b9b2b21034b760511b604082015260600190565b6020808252602b908201527f4d75737420686176652061646d696e20726f6c6520746f20706572666f726d2060408201526a3a3434b99030b1ba34b7b760a91b606082015260800190565b6020808252602f908201527f416363657373436f6e74726f6c3a2063616e206f6e6c792072656e6f756e636560408201526e103937b632b9903337b91039b2b63360891b606082015260800190565b6001600160a01b0381168114610a0e57600080fdfeb19546dff01e856fb3f010c267a7b1c60363cf8a4664e21cc89c26224620214e65d7a28e3265b37a6474929f336521b332c1681b933f6cb9f3376673440d862aa26469706673582212203e4f13999156913c9198820c920a86b36d25ed7fcbaabdf118976608d28e52c564736f6c634300060c0033",
  "devdoc": {
    "author": "Goldfinch",
    "kind": "dev",
    "methods": {
      "getRoleAdmin(bytes32)": {
        "details": "Returns the admin role that controls `role`. See {grantRole} and {revokeRole}. To change a role's admin, use {_setRoleAdmin}."
      },
      "getRoleMember(bytes32,uint256)": {
        "details": "Returns one of the accounts that have `role`. `index` must be a value between 0 and {getRoleMemberCount}, non-inclusive. Role bearers are not sorted in any particular way, and their ordering may change at any point. WARNING: When using {getRoleMember} and {getRoleMemberCount}, make sure you perform all queries on the same block. See the following https://forum.openzeppelin.com/t/iterating-over-elements-on-enumerableset-in-openzeppelin-contracts/2296[forum post] for more information."
      },
      "getRoleMemberCount(bytes32)": {
        "details": "Returns the number of accounts that have `role`. Can be used together with {getRoleMember} to enumerate all bearers of a role."
      },
      "grantRole(bytes32,address)": {
        "details": "Grants `role` to `account`. If `account` had not been already granted `role`, emits a {RoleGranted} event. Requirements: - the caller must have ``role``'s admin role."
      },
      "hasRole(bytes32,address)": {
        "details": "Returns `true` if `account` has been granted `role`."
      },
      "pause()": {
        "details": "Pauses all functions guarded by Pause See {Pausable-_pause}. Requirements: - the caller must have the PAUSER_ROLE."
      },
      "paused()": {
        "details": "Returns true if the contract is paused, and false otherwise."
      },
      "renounceRole(bytes32,address)": {
        "details": "Revokes `role` from the calling account. Roles are often managed via {grantRole} and {revokeRole}: this function's purpose is to provide a mechanism for accounts to lose their privileges if they are compromised (such as when a trusted device is misplaced). If the calling account had been granted `role`, emits a {RoleRevoked} event. Requirements: - the caller must be `account`."
      },
      "revokeRole(bytes32,address)": {
        "details": "Revokes `role` from `account`. If `account` had been granted `role`, emits a {RoleRevoked} event. Requirements: - the caller must have ``role``'s admin role."
      },
      "unpause()": {
        "details": "Unpauses the contract See {Pausable-_unpause}. Requirements: - the caller must have the Pauser role"
      }
    },
    "title": "CreditLine",
    "version": 1
  },
  "userdoc": {
    "kind": "user",
    "methods": {},
    "notice": "A \"dumb\" state container that represents the agreement between an Underwriter and  the borrower. Includes the terms of the loan, as well as the current accounting state, such as interest owed.  This contract purposefully has essentially no business logic. Really just setters and getters.",
    "version": 1
  },
  "storageLayout": {
    "storage": [
      {
        "astId": 50,
        "contract": "contracts/protocol/CreditLine.sol:CreditLine",
        "label": "initialized",
        "offset": 0,
        "slot": "0",
        "type": "t_bool"
      },
      {
        "astId": 53,
        "contract": "contracts/protocol/CreditLine.sol:CreditLine",
        "label": "initializing",
        "offset": 1,
        "slot": "0",
        "type": "t_bool"
      },
      {
        "astId": 118,
        "contract": "contracts/protocol/CreditLine.sol:CreditLine",
        "label": "______gap",
        "offset": 0,
        "slot": "1",
        "type": "t_array(t_uint256)50_storage"
      },
      {
        "astId": 43,
        "contract": "contracts/protocol/CreditLine.sol:CreditLine",
        "label": "__gap",
        "offset": 0,
        "slot": "51",
        "type": "t_array(t_uint256)50_storage"
      },
      {
        "astId": 163,
        "contract": "contracts/protocol/CreditLine.sol:CreditLine",
        "label": "_roles",
        "offset": 0,
        "slot": "101",
        "type": "t_mapping(t_bytes32,t_struct(RoleData)159_storage)"
      },
      {
        "astId": 408,
        "contract": "contracts/protocol/CreditLine.sol:CreditLine",
        "label": "__gap",
        "offset": 0,
        "slot": "102",
        "type": "t_array(t_uint256)49_storage"
      },
      {
        "astId": 2284,
        "contract": "contracts/protocol/CreditLine.sol:CreditLine",
        "label": "_paused",
        "offset": 0,
        "slot": "151",
        "type": "t_bool"
      },
      {
        "astId": 2373,
        "contract": "contracts/protocol/CreditLine.sol:CreditLine",
        "label": "__gap",
        "offset": 0,
        "slot": "152",
        "type": "t_array(t_uint256)49_storage"
      },
      {
        "astId": 2382,
        "contract": "contracts/protocol/CreditLine.sol:CreditLine",
        "label": "_notEntered",
        "offset": 0,
        "slot": "201",
        "type": "t_bool"
      },
      {
        "astId": 2423,
        "contract": "contracts/protocol/CreditLine.sol:CreditLine",
        "label": "__gap",
        "offset": 0,
        "slot": "202",
        "type": "t_array(t_uint256)49_storage"
      },
      {
        "astId": 4626,
        "contract": "contracts/protocol/CreditLine.sol:CreditLine",
        "label": "__gap1",
        "offset": 0,
        "slot": "251",
        "type": "t_array(t_uint256)50_storage"
      },
      {
        "astId": 4630,
        "contract": "contracts/protocol/CreditLine.sol:CreditLine",
        "label": "__gap2",
        "offset": 0,
        "slot": "301",
        "type": "t_array(t_uint256)50_storage"
      },
      {
        "astId": 4634,
        "contract": "contracts/protocol/CreditLine.sol:CreditLine",
        "label": "__gap3",
        "offset": 0,
        "slot": "351",
        "type": "t_array(t_uint256)50_storage"
      },
      {
        "astId": 4638,
        "contract": "contracts/protocol/CreditLine.sol:CreditLine",
        "label": "__gap4",
        "offset": 0,
        "slot": "401",
        "type": "t_array(t_uint256)50_storage"
      },
      {
        "astId": 6812,
        "contract": "contracts/protocol/CreditLine.sol:CreditLine",
        "label": "borrower",
        "offset": 0,
        "slot": "451",
        "type": "t_address"
      },
      {
        "astId": 6814,
        "contract": "contracts/protocol/CreditLine.sol:CreditLine",
        "label": "underwriter",
        "offset": 0,
        "slot": "452",
        "type": "t_address"
      },
      {
        "astId": 6816,
        "contract": "contracts/protocol/CreditLine.sol:CreditLine",
        "label": "limit",
        "offset": 0,
        "slot": "453",
        "type": "t_uint256"
      },
      {
        "astId": 6818,
        "contract": "contracts/protocol/CreditLine.sol:CreditLine",
        "label": "interestApr",
        "offset": 0,
        "slot": "454",
        "type": "t_uint256"
      },
      {
        "astId": 6820,
        "contract": "contracts/protocol/CreditLine.sol:CreditLine",
        "label": "paymentPeriodInDays",
        "offset": 0,
        "slot": "455",
        "type": "t_uint256"
      },
      {
        "astId": 6822,
        "contract": "contracts/protocol/CreditLine.sol:CreditLine",
        "label": "termInDays",
        "offset": 0,
        "slot": "456",
        "type": "t_uint256"
      },
      {
        "astId": 6824,
        "contract": "contracts/protocol/CreditLine.sol:CreditLine",
        "label": "lateFeeApr",
        "offset": 0,
        "slot": "457",
        "type": "t_uint256"
      },
      {
        "astId": 6826,
        "contract": "contracts/protocol/CreditLine.sol:CreditLine",
        "label": "balance",
        "offset": 0,
        "slot": "458",
        "type": "t_uint256"
      },
      {
        "astId": 6828,
        "contract": "contracts/protocol/CreditLine.sol:CreditLine",
        "label": "interestOwed",
        "offset": 0,
        "slot": "459",
        "type": "t_uint256"
      },
      {
        "astId": 6830,
        "contract": "contracts/protocol/CreditLine.sol:CreditLine",
        "label": "principalOwed",
        "offset": 0,
        "slot": "460",
        "type": "t_uint256"
      },
      {
        "astId": 6832,
        "contract": "contracts/protocol/CreditLine.sol:CreditLine",
        "label": "termEndBlock",
        "offset": 0,
        "slot": "461",
        "type": "t_uint256"
      },
      {
        "astId": 6834,
        "contract": "contracts/protocol/CreditLine.sol:CreditLine",
        "label": "nextDueBlock",
        "offset": 0,
        "slot": "462",
        "type": "t_uint256"
      },
      {
        "astId": 6836,
        "contract": "contracts/protocol/CreditLine.sol:CreditLine",
        "label": "interestAccruedAsOfBlock",
        "offset": 0,
        "slot": "463",
        "type": "t_uint256"
      },
      {
        "astId": 6838,
        "contract": "contracts/protocol/CreditLine.sol:CreditLine",
        "label": "writedownAmount",
        "offset": 0,
        "slot": "464",
        "type": "t_uint256"
      },
      {
        "astId": 6840,
        "contract": "contracts/protocol/CreditLine.sol:CreditLine",
        "label": "lastFullPaymentBlock",
        "offset": 0,
        "slot": "465",
        "type": "t_uint256"
      }
    ],
    "types": {
      "t_address": {
        "encoding": "inplace",
        "label": "address",
        "numberOfBytes": "20"
      },
      "t_array(t_bytes32)dyn_storage": {
        "base": "t_bytes32",
        "encoding": "dynamic_array",
        "label": "bytes32[]",
        "numberOfBytes": "32"
      },
      "t_array(t_uint256)49_storage": {
        "base": "t_uint256",
        "encoding": "inplace",
        "label": "uint256[49]",
        "numberOfBytes": "1568"
      },
      "t_array(t_uint256)50_storage": {
        "base": "t_uint256",
        "encoding": "inplace",
        "label": "uint256[50]",
        "numberOfBytes": "1600"
      },
      "t_bool": {
        "encoding": "inplace",
        "label": "bool",
        "numberOfBytes": "1"
      },
      "t_bytes32": {
        "encoding": "inplace",
        "label": "bytes32",
        "numberOfBytes": "32"
      },
      "t_mapping(t_bytes32,t_struct(RoleData)159_storage)": {
        "encoding": "mapping",
        "key": "t_bytes32",
        "label": "mapping(bytes32 => struct AccessControlUpgradeSafe.RoleData)",
        "numberOfBytes": "32",
        "value": "t_struct(RoleData)159_storage"
      },
      "t_mapping(t_bytes32,t_uint256)": {
        "encoding": "mapping",
        "key": "t_bytes32",
        "label": "mapping(bytes32 => uint256)",
        "numberOfBytes": "32",
        "value": "t_uint256"
      },
      "t_struct(AddressSet)2059_storage": {
        "encoding": "inplace",
        "label": "struct EnumerableSet.AddressSet",
        "members": [
          {
            "astId": 2058,
            "contract": "contracts/protocol/CreditLine.sol:CreditLine",
            "label": "_inner",
            "offset": 0,
            "slot": "0",
            "type": "t_struct(Set)1879_storage"
          }
        ],
        "numberOfBytes": "64"
      },
      "t_struct(RoleData)159_storage": {
        "encoding": "inplace",
        "label": "struct AccessControlUpgradeSafe.RoleData",
        "members": [
          {
            "astId": 156,
            "contract": "contracts/protocol/CreditLine.sol:CreditLine",
            "label": "members",
            "offset": 0,
            "slot": "0",
            "type": "t_struct(AddressSet)2059_storage"
          },
          {
            "astId": 158,
            "contract": "contracts/protocol/CreditLine.sol:CreditLine",
            "label": "adminRole",
            "offset": 0,
            "slot": "2",
            "type": "t_bytes32"
          }
        ],
        "numberOfBytes": "96"
      },
      "t_struct(Set)1879_storage": {
        "encoding": "inplace",
        "label": "struct EnumerableSet.Set",
        "members": [
          {
            "astId": 1874,
            "contract": "contracts/protocol/CreditLine.sol:CreditLine",
            "label": "_values",
            "offset": 0,
            "slot": "0",
            "type": "t_array(t_bytes32)dyn_storage"
          },
          {
            "astId": 1878,
            "contract": "contracts/protocol/CreditLine.sol:CreditLine",
            "label": "_indexes",
            "offset": 0,
            "slot": "1",
            "type": "t_mapping(t_bytes32,t_uint256)"
          }
        ],
        "numberOfBytes": "64"
      },
      "t_uint256": {
        "encoding": "inplace",
        "label": "uint256",
        "numberOfBytes": "32"
      }
    }
  }
}