{
  "abi": [
    {
      "anonymous": false,
      "inputs": [
        {
          "indexed": true,
          "internalType": "address",
          "name": "borrower",
          "type": "address"
        },
        {
          "indexed": true,
          "internalType": "address",
          "name": "creditLine",
          "type": "address"
        }
      ],
      "name": "CreditLineCreated",
      "type": "event"
    },
    {
      "anonymous": false,
      "inputs": [
        {
          "indexed": true,
          "internalType": "address",
          "name": "borrower",
          "type": "address"
        },
        {
          "indexed": true,
          "internalType": "address",
          "name": "creditLine",
          "type": "address"
        },
        {
          "indexed": false,
          "internalType": "uint256",
          "name": "drawdownAmount",
          "type": "uint256"
        }
      ],
      "name": "DrawdownMade",
      "type": "event"
    },
    {
      "anonymous": false,
      "inputs": [
        {
          "indexed": true,
          "internalType": "address",
          "name": "underwriter",
          "type": "address"
        },
        {
          "indexed": false,
          "internalType": "uint256",
          "name": "newLimit",
          "type": "uint256"
        }
      ],
      "name": "GovernanceUpdatedUnderwriterLimit",
      "type": "event"
    },
    {
      "anonymous": false,
      "inputs": [
        {
          "indexed": true,
          "internalType": "address",
          "name": "owner",
          "type": "address"
        },
        {
          "indexed": false,
          "internalType": "string",
          "name": "limitType",
          "type": "string"
        },
        {
          "indexed": false,
          "internalType": "uint256",
          "name": "amount",
          "type": "uint256"
        }
      ],
      "name": "LimitChanged",
      "type": "event"
    },
    {
      "anonymous": false,
      "inputs": [
        {
          "indexed": true,
          "internalType": "address",
          "name": "previousOwner",
          "type": "address"
        },
        {
          "indexed": true,
          "internalType": "address",
          "name": "newOwner",
          "type": "address"
        }
      ],
      "name": "OwnershipTransferred",
      "type": "event"
    },
    {
      "anonymous": false,
      "inputs": [
        {
          "indexed": false,
          "internalType": "address",
          "name": "account",
          "type": "address"
        }
      ],
      "name": "Paused",
      "type": "event"
    },
    {
      "anonymous": false,
      "inputs": [
        {
          "indexed": true,
          "internalType": "address",
          "name": "payer",
          "type": "address"
        },
        {
          "indexed": true,
          "internalType": "address",
          "name": "creditLine",
          "type": "address"
        },
        {
          "indexed": false,
          "internalType": "uint256",
          "name": "interestAmount",
          "type": "uint256"
        },
        {
          "indexed": false,
          "internalType": "uint256",
          "name": "principalAmount",
          "type": "uint256"
        },
        {
          "indexed": false,
          "internalType": "uint256",
          "name": "remainingAmount",
          "type": "uint256"
        }
      ],
      "name": "PaymentMade",
      "type": "event"
    },
    {
      "anonymous": false,
      "inputs": [
        {
          "indexed": true,
          "internalType": "address",
          "name": "oldAddress",
          "type": "address"
        },
        {
          "indexed": true,
          "internalType": "address",
          "name": "newAddress",
          "type": "address"
        }
      ],
      "name": "PoolAddressUpdated",
      "type": "event"
    },
    {
      "anonymous": false,
      "inputs": [
        {
          "indexed": true,
          "internalType": "address",
          "name": "payer",
          "type": "address"
        },
        {
          "indexed": true,
          "internalType": "address",
          "name": "creditLine",
          "type": "address"
        },
        {
          "indexed": false,
          "internalType": "uint256",
          "name": "prepaymentAmount",
          "type": "uint256"
        }
      ],
      "name": "PrepaymentMade",
      "type": "event"
    },
    {
      "anonymous": false,
      "inputs": [
        {
          "indexed": false,
          "internalType": "address",
          "name": "account",
          "type": "address"
        }
      ],
      "name": "Unpaused",
      "type": "event"
    },
    {
      "inputs": [],
      "name": "__OwnerPausable__init",
      "outputs": [],
      "stateMutability": "nonpayable",
      "type": "function"
    },
    {
      "inputs": [
        {
          "internalType": "address payable",
          "name": "creditLineAddress",
          "type": "address"
        },
        {
          "internalType": "uint256",
          "name": "amount",
          "type": "uint256"
        }
      ],
      "name": "addCollateral",
      "outputs": [],
      "stateMutability": "payable",
      "type": "function"
    },
    {
      "inputs": [
        {
          "internalType": "address",
          "name": "creditLineAddress",
          "type": "address"
        }
      ],
      "name": "assessCreditLine",
      "outputs": [],
      "stateMutability": "nonpayable",
      "type": "function"
    },
    {
      "inputs": [],
      "name": "blocksPerDay",
      "outputs": [
        {
          "internalType": "uint256",
          "name": "",
          "type": "uint256"
        }
      ],
      "stateMutability": "view",
      "type": "function"
    },
    {
      "inputs": [
        {
          "internalType": "address",
          "name": "_borrower",
          "type": "address"
        },
        {
          "internalType": "uint256",
          "name": "_limit",
          "type": "uint256"
        },
        {
          "internalType": "uint256",
          "name": "_interestApr",
          "type": "uint256"
        },
        {
          "internalType": "uint256",
          "name": "_minCollateralPercent",
          "type": "uint256"
        },
        {
          "internalType": "uint256",
          "name": "_paymentPeriodInDays",
          "type": "uint256"
        },
        {
          "internalType": "uint256",
          "name": "_termInDays",
          "type": "uint256"
        }
      ],
      "name": "createCreditLine",
      "outputs": [],
      "stateMutability": "nonpayable",
      "type": "function"
    },
    {
      "inputs": [
        {
          "internalType": "uint256",
          "name": "amount",
          "type": "uint256"
        },
        {
          "internalType": "address",
          "name": "creditLineAddress",
          "type": "address"
        }
      ],
      "name": "drawdown",
      "outputs": [],
      "stateMutability": "nonpayable",
      "type": "function"
    },
    {
      "inputs": [
        {
          "internalType": "address",
          "name": "borrowerAddress",
          "type": "address"
        }
      ],
      "name": "getBorrowerCreditLines",
      "outputs": [
        {
          "internalType": "address[]",
          "name": "",
          "type": "address[]"
        }
      ],
      "stateMutability": "view",
      "type": "function"
    },
    {
      "inputs": [
        {
          "internalType": "address",
          "name": "underwriterAddress",
          "type": "address"
        }
      ],
      "name": "getUnderwriterCreditLines",
      "outputs": [
        {
          "internalType": "address[]",
          "name": "",
          "type": "address[]"
        }
      ],
      "stateMutability": "view",
      "type": "function"
    },
    {
      "inputs": [
        {
          "internalType": "address",
          "name": "_poolAddress",
          "type": "address"
        }
      ],
      "name": "initialize",
      "outputs": [],
      "stateMutability": "nonpayable",
      "type": "function"
    },
    {
      "inputs": [],
      "name": "maxUnderwriterLimit",
      "outputs": [
        {
          "internalType": "uint256",
          "name": "",
          "type": "uint256"
        }
      ],
      "stateMutability": "view",
      "type": "function"
    },
    {
      "inputs": [],
      "name": "owner",
      "outputs": [
        {
          "internalType": "address",
          "name": "",
          "type": "address"
        }
      ],
      "stateMutability": "view",
      "type": "function"
    },
    {
      "inputs": [],
      "name": "pause",
      "outputs": [],
      "stateMutability": "nonpayable",
      "type": "function"
    },
    {
      "inputs": [],
      "name": "paused",
      "outputs": [
        {
          "internalType": "bool",
          "name": "",
          "type": "bool"
        }
      ],
      "stateMutability": "view",
      "type": "function"
    },
    {
      "inputs": [
        {
          "internalType": "address",
          "name": "creditLineAddress",
          "type": "address"
        },
        {
          "internalType": "uint256",
          "name": "amount",
          "type": "uint256"
        }
      ],
      "name": "pay",
      "outputs": [],
      "stateMutability": "payable",
      "type": "function"
    },
    {
      "inputs": [],
      "name": "poolAddress",
      "outputs": [
        {
          "internalType": "address",
          "name": "",
          "type": "address"
        }
      ],
      "stateMutability": "view",
      "type": "function"
    },
    {
      "inputs": [
        {
          "internalType": "address payable",
          "name": "creditLineAddress",
          "type": "address"
        },
        {
          "internalType": "uint256",
          "name": "amount",
          "type": "uint256"
        }
      ],
      "name": "prepay",
      "outputs": [],
      "stateMutability": "payable",
      "type": "function"
    },
    {
      "inputs": [],
      "name": "renounceOwnership",
      "outputs": [],
      "stateMutability": "nonpayable",
      "type": "function"
    },
    {
      "inputs": [
        {
          "internalType": "uint256",
          "name": "amount",
          "type": "uint256"
        }
      ],
      "name": "setMaxUnderwriterLimit",
      "outputs": [],
      "stateMutability": "nonpayable",
      "type": "function"
    },
    {
      "inputs": [
        {
          "internalType": "address",
          "name": "newPoolAddress",
          "type": "address"
        }
      ],
      "name": "setPoolAddress",
      "outputs": [
        {
          "internalType": "address",
          "name": "",
          "type": "address"
        }
      ],
      "stateMutability": "nonpayable",
      "type": "function"
    },
    {
      "inputs": [
        {
          "internalType": "uint256",
          "name": "amount",
          "type": "uint256"
        }
      ],
      "name": "setTransactionLimit",
      "outputs": [],
      "stateMutability": "nonpayable",
      "type": "function"
    },
    {
      "inputs": [
        {
          "internalType": "address",
          "name": "underwriterAddress",
          "type": "address"
        },
        {
          "internalType": "uint256",
          "name": "limit",
          "type": "uint256"
        }
      ],
      "name": "setUnderwriterGovernanceLimit",
      "outputs": [],
      "stateMutability": "nonpayable",
      "type": "function"
    },
    {
      "inputs": [],
      "name": "transactionLimit",
      "outputs": [
        {
          "internalType": "uint256",
          "name": "",
          "type": "uint256"
        }
      ],
      "stateMutability": "view",
      "type": "function"
    },
    {
      "inputs": [
        {
          "internalType": "address",
          "name": "newOwner",
          "type": "address"
        }
      ],
      "name": "transferOwnership",
      "outputs": [],
      "stateMutability": "nonpayable",
      "type": "function"
    },
    {
      "inputs": [
        {
          "internalType": "address",
          "name": "",
          "type": "address"
        }
      ],
      "name": "underwriters",
      "outputs": [
        {
          "internalType": "uint256",
          "name": "governanceLimit",
          "type": "uint256"
        }
      ],
      "stateMutability": "view",
      "type": "function"
    },
    {
      "inputs": [],
      "name": "unpause",
      "outputs": [],
      "stateMutability": "nonpayable",
      "type": "function"
    }
  ],
  "address": "0x43c494cB39Ef9DE842b71055edcD193030281F1b",
  "args": [],
  "solcInputHash": "0x2ce0ca07e6bcd92131c6b6d8618fe2d1646bff5aa52e7001ad6c5f5322abe719",
  "bytecode": "0x6080604052600060ca55600060cb5534801561001a57600080fd5b506143bc8061002a6000396000f3fe6080604052600436106101665760003560e01c80637d533642116100d1578063c4d66de81161008a578063f19605d611610064578063f19605d6146103cd578063f2fde38b146103e2578063f3b7d81514610402578063f5c7e0e21461041557610166565b8063c4d66de814610378578063e9e15b4f14610398578063f0c30cac146103b857610166565b80637d533642146102ce578063844a28c3146102ee5780638456cb591461031b5780638da5cb5b14610330578063c26ff93614610345578063c40768761461036557610166565b80635c080853116101235780635c0808531461022f5780635c975abb1461024f57806364bfa546146102715780636d75b9ee14610291578063715018a6146102a45780637216e7c8146102b957610166565b80630e4645ef1461016b5780631755ff211461018d578063200d3d49146101b85780633f4ba83a146101d8578063440c41bb146101ed5780634cfea68a1461020d575b600080fd5b34801561017757600080fd5b5061018b610186366004612d03565b610435565b005b34801561019957600080fd5b506101a261051e565b6040516101af9190612e59565b60405180910390f35b3480156101c457600080fd5b5061018b6101d3366004612dd7565b61052d565b3480156101e457600080fd5b5061018b6105c7565b3480156101f957600080fd5b5061018b610208366004612e07565b610606565b34801561021957600080fd5b50610222610aca565b6040516101af9190612f40565b34801561023b57600080fd5b5061018b61024a366004612d15565b610ad0565b34801561025b57600080fd5b50610264610cc1565b6040516101af9190612f35565b34801561027d57600080fd5b5061018b61028c366004612dd7565b610cca565b61018b61029f366004612cd8565b610d59565b3480156102b057600080fd5b5061018b610ece565b3480156102c557600080fd5b50610222610f4d565b3480156102da57600080fd5b506102226102e9366004612ca0565b610f53565b3480156102fa57600080fd5b5061030e610309366004612ca0565b610f65565b6040516101af9190612ee8565b34801561032757600080fd5b5061018b611002565b34801561033c57600080fd5b506101a261103f565b34801561035157600080fd5b5061030e610360366004612ca0565b61104e565b61018b610373366004612d03565b6110e6565b34801561038457600080fd5b5061018b610393366004612ca0565b6114c8565b3480156103a457600080fd5b506101a26103b3366004612ca0565b611566565b3480156103c457600080fd5b5061018b61168b565b3480156103d957600080fd5b50610222611693565b3480156103ee57600080fd5b5061018b6103fd366004612ca0565b611699565b61018b610410366004612cd8565b611750565b34801561042157600080fd5b5061018b610430366004612ca0565b611935565b61043d611df0565b6065546001600160a01b039081169116146104735760405162461bcd60e51b815260040161046a9061325f565b60405180910390fd5b60975460ff16156104965760405162461bcd60e51b815260040161046a90613114565b6001600160a01b038216600090815260cc602052604090206104b782611df4565b6104d35760405162461bcd60e51b815260040161046a906132e2565b8181556040516001600160a01b038416907f7be5403eca163f383a39c2d1f65a8fee2c9e41e7e6b150f4abfe16eaaf1d907690610511908590612f40565b60405180910390a2505050565b60c9546001600160a01b031681565b610535611df0565b6065546001600160a01b039081169116146105625760405162461bcd60e51b815260040161046a9061325f565b60975460ff16156105855760405162461bcd60e51b815260040161046a90613114565b60ca81905560405133907fd051fbd9d5bbce3751e47a2ff88ee7dde1a0c474fad43693046c1f6237841dc8906105bc90849061333f565b60405180910390a250565b6105cf611df0565b6065546001600160a01b039081169116146105fc5760405162461bcd60e51b815260040161046a9061325f565b610604611dfc565b565b60975460ff16156106295760405162461bcd60e51b815260040161046a90613114565b6000819050336001600160a01b0316816001600160a01b0316637df1f1b96040518163ffffffff1660e01b815260040160206040518083038186803b15801561067157600080fd5b505afa158015610685573d6000803e3d6000fd5b505050506040513d601f19601f820116820180604052508101906106a99190612cbc565b6001600160a01b0316146106cf5760405162461bcd60e51b815260040161046a90613186565b6106d7611e68565b60c95460405163c34e584160e01b81526001600160a01b039283169263c34e58419261070a929116908790600401612e91565b60206040518083038186803b15801561072257600080fd5b505afa158015610736573d6000803e3d6000fd5b505050506040513d601f19601f8201168201806040525081019061075a9190612d60565b6107765760405162461bcd60e51b815260040161046a906131cb565b61077f83611e77565b61079b5760405162461bcd60e51b815260040161046a9061313e565b6107a58382611e7f565b6107c15760405162461bcd60e51b815260040161046a90613374565b806001600160a01b031663b69ef8a86040518163ffffffff1660e01b815260040160206040518083038186803b1580156107fa57600080fd5b505afa15801561080e573d6000803e3d6000fd5b505050506040513d601f19601f820116820180604052508101906108329190612def565b61094557806001600160a01b031663fb9eb99061084e83611f3a565b6040518263ffffffff1660e01b815260040161086a9190612f40565b602060405180830381600087803b15801561088457600080fd5b505af1158015610898573d6000803e3d6000fd5b505050506040513d601f19601f820116820180604052508101906108bc9190612def565b50806001600160a01b0316637957dda36108d583611fcf565b6040518263ffffffff1660e01b81526004016108f19190612f40565b602060405180830381600087803b15801561090b57600080fd5b505af115801561091f573d6000803e3d6000fd5b505050506040513d601f19601f820116820180604052508101906109439190612def565b505b6000806109528343612162565b9150915060006109d986856001600160a01b031663b69ef8a86040518163ffffffff1660e01b815260040160206040518083038186803b15801561099557600080fd5b505afa1580156109a9573d6000803e3d6000fd5b505050506040513d601f19601f820116820180604052508101906109cd9190612def565b9063ffffffff61227b16565b90506109e7848285856122a7565b6109ef611e68565b60c9546040516323b872dd60e01b81526001600160a01b03928316926323b872dd92610a249291169033908b90600401612e6d565b602060405180830381600087803b158015610a3e57600080fd5b505af1158015610a52573d6000803e3d6000fd5b505050506040513d601f19601f82011682018060405250810190610a769190612d60565b50836001600160a01b0316336001600160a01b03167f7ec4669c579321a5cf5a6b525637eb0924a93e2e11eab9d14be8b44de1116b1b88604051610aba9190612f40565b60405180910390a3505050505050565b61168081565b60975460ff1615610af35760405162461bcd60e51b815260040161046a90613114565b33600090815260cc602090815260408083206001600160a01b038a16845260cd909252909120610b23878361255b565b610b3f5760405162461bcd60e51b815260040161046a90613094565b6000604051610b4d90612c72565b604051809103906000f080158015610b69573d6000803e3d6000fd5b506040516376dfa56160e11b81529091506001600160a01b0382169063edbf4ac290610ba5908c9033908d908d908d908d908d90600401612eaa565b600060405180830381600087803b158015610bbf57600080fd5b505af1158015610bd3573d6000803e3d6000fd5b505060c95460405163182cdbe360e11b81526001600160a01b038086169450633059b7c69350610c07921690600401612e59565b600060405180830381600087803b158015610c2157600080fd5b505af1158015610c35573d6000803e3d6000fd5b5050506001808501805480830182556000918252602080832090910180546001600160a01b038088166001600160a01b0319928316811790935588549586018955888552928420909401805490941681179093556040519293508c16917fc1d7685016f2246662e70fe17df916e959813e9ab93d50c4f039c0c069c5f3719190a3505050505050505050565b60975460ff1690565b610cd2611df0565b6065546001600160a01b03908116911614610cff5760405162461bcd60e51b815260040161046a9061325f565b60975460ff1615610d225760405162461bcd60e51b815260040161046a90613114565b60cb81905560405133907fd051fbd9d5bbce3751e47a2ff88ee7dde1a0c474fad43693046c1f6237841dc8906105bc9084906130e2565b60975460ff1615610d7c5760405162461bcd60e51b815260040161046a90613114565b81610d85611e68565b6001600160a01b03166323b872dd3385856040518463ffffffff1660e01b8152600401610db493929190612e6d565b602060405180830381600087803b158015610dce57600080fd5b505af1158015610de2573d6000803e3d6000fd5b505050506040513d601f19601f82011682018060405250810190610e069190612d60565b506000610e4683836001600160a01b031663c98c05b76040518163ffffffff1660e01b815260040160206040518083038186803b15801561099557600080fd5b6040516361cfbca160e01b81529091506001600160a01b038316906361cfbca190610e75908490600401612f40565b602060405180830381600087803b158015610e8f57600080fd5b505af1158015610ea3573d6000803e3d6000fd5b505050506040513d601f19601f82011682018060405250810190610ec79190612def565b5050505050565b610ed6611df0565b6065546001600160a01b03908116911614610f035760405162461bcd60e51b815260040161046a9061325f565b6065546040516000916001600160a01b0316907f8be0079c531659141344cd1fd0a4f28419497f9722a3daafe3b4186f6b6457e0908390a3606580546001600160a01b0319169055565b60ca5481565b60cc6020526000908152604090205481565b60975460609060ff1615610f8b5760405162461bcd60e51b815260040161046a90613114565b6001600160a01b038216600090815260cc602090815260409182902060010180548351818402810184019094528084529091830182828015610ff657602002820191906000526020600020905b81546001600160a01b03168152600190910190602001808311610fd8575b50505050509050919050565b61100a611df0565b6065546001600160a01b039081169116146110375760405162461bcd60e51b815260040161046a9061325f565b610604612589565b6065546001600160a01b031690565b60975460609060ff16156110745760405162461bcd60e51b815260040161046a90613114565b6001600160a01b038216600090815260cd602090815260409182902080548351818402810184019094528084529091830182828015610ff6576020028201919060005260206000209081546001600160a01b03168152600190910190602001808311610fd85750505050509050919050565b60975460ff16156111095760405162461bcd60e51b815260040161046a90613114565b8161111382611e77565b61112f5760405162461bcd60e51b815260040161046a9061313e565b611137611e68565b6001600160a01b031663c34e584133846040518363ffffffff1660e01b8152600401611164929190612e91565b60206040518083038186803b15801561117c57600080fd5b505afa158015611190573d6000803e3d6000fd5b505050506040513d601f19601f820116820180604052508101906111b49190612d60565b6111d05760405162461bcd60e51b815260040161046a90613010565b60008060006111e284864360016125e2565b919450925090508215611335576111f7611e68565b6001600160a01b03166323b872dd3388866040518463ffffffff1660e01b815260040161122693929190612e6d565b602060405180830381600087803b15801561124057600080fd5b505af1158015611254573d6000803e3d6000fd5b505050506040513d601f19601f820116820180604052508101906112789190612d60565b50836001600160a01b03166361cfbca16112c585876001600160a01b031663c98c05b76040518163ffffffff1660e01b815260040160206040518083038186803b15801561099557600080fd5b6040518263ffffffff1660e01b81526004016112e19190612f40565b602060405180830381600087803b1580156112fb57600080fd5b505af115801561130f573d6000803e3d6000fd5b505050506040513d601f19601f820116820180604052508101906113339190612def565b505b81156113a357611343611e68565b6001600160a01b03166364de8a0733846040518363ffffffff1660e01b8152600401611370929190612e91565b600060405180830381600087803b15801561138a57600080fd5b505af115801561139e573d6000803e3d6000fd5b505050505b8015611411576113b1611e68565b6001600160a01b031663bcfa41ba33836040518363ffffffff1660e01b81526004016113de929190612e91565b600060405180830381600087803b1580156113f857600080fd5b505af115801561140c573d6000803e3d6000fd5b505050505b836001600160a01b0316846001600160a01b0316637df1f1b96040518163ffffffff1660e01b815260040160206040518083038186803b15801561145457600080fd5b505afa158015611468573d6000803e3d6000fd5b505050506040513d601f19601f8201168201806040525081019061148c9190612cbc565b6001600160a01b03167f73bc067f8d6bb15a01636f9b76c6daa98472621717a0788af90498d8bfe69eb0848487604051610aba939291906133d2565b600054610100900460ff16806114e157506114e1612876565b806114ef575060005460ff16155b61150b5760405162461bcd60e51b815260040161046a90613294565b600054610100900460ff16158015611536576000805460ff1961ff0019909116610100171660011790555b61153e61287c565b61154661168b565b61154f82611566565b508015611562576000805461ff00191690555b5050565b6000611570611df0565b6065546001600160a01b0390811691161461159d5760405162461bcd60e51b815260040161046a9061325f565b60975460ff16156115c05760405162461bcd60e51b815260040161046a90613114565b816001600160a01b0316633a98ef396040518163ffffffff1660e01b815260040160206040518083038186803b1580156115f957600080fd5b505afa15801561160d573d6000803e3d6000fd5b505050506040513d601f19601f820116820180604052508101906116319190612def565b5060c9546040516001600160a01b038085169216907fbc265b118422e9d29f4173594a64a9c2ac4d07373e209a941f4bc8c83c38321b90600090a35060c980546001600160a01b0319166001600160a01b03831617905590565b61060461290e565b60cb5481565b6116a1611df0565b6065546001600160a01b039081169116146116ce5760405162461bcd60e51b815260040161046a9061325f565b6001600160a01b0381166116f45760405162461bcd60e51b815260040161046a90612fca565b6065546040516001600160a01b038084169216907f8be0079c531659141344cd1fd0a4f28419497f9722a3daafe3b4186f6b6457e090600090a3606580546001600160a01b0319166001600160a01b0392909216919091179055565b60975460ff16156117735760405162461bcd60e51b815260040161046a90613114565b8161177d82611e77565b6117995760405162461bcd60e51b815260040161046a9061313e565b6117a1611e68565b6001600160a01b03166323b872dd3385856040518463ffffffff1660e01b81526004016117d093929190612e6d565b602060405180830381600087803b1580156117ea57600080fd5b505af11580156117fe573d6000803e3d6000fd5b505050506040513d601f19601f820116820180604052508101906118229190612d60565b50600061186283836001600160a01b031663ca3152e56040518163ffffffff1660e01b815260040160206040518083038186803b15801561099557600080fd5b6040516320f8d09360e11b81529091506001600160a01b038316906341f1a12690611891908490600401612f40565b602060405180830381600087803b1580156118ab57600080fd5b505af11580156118bf573d6000803e3d6000fd5b505050506040513d601f19601f820116820180604052508101906118e39190612def565b50816001600160a01b0316336001600160a01b03167f83846cba5d937a7cd93b3dbb931c1cd260ce7a8ba928f072848719da0666e741856040516119279190612f40565b60405180910390a350505050565b60975460ff16156119585760405162461bcd60e51b815260040161046a90613114565b6000819050806001600160a01b031663500b245e6040518163ffffffff1660e01b815260040160206040518083038186803b15801561199657600080fd5b505afa1580156119aa573d6000803e3d6000fd5b505050506040513d601f19601f820116820180604052508101906119ce9190612def565b4310156119db5750611ded565b6000806000611acd84856001600160a01b031663ca3152e56040518163ffffffff1660e01b815260040160206040518083038186803b158015611a1d57600080fd5b505afa158015611a31573d6000803e3d6000fd5b505050506040513d601f19601f82011682018060405250810190611a559190612def565b866001600160a01b031663500b245e6040518163ffffffff1660e01b815260040160206040518083038186803b158015611a8e57600080fd5b505afa158015611aa2573d6000803e3d6000fd5b505050506040513d601f19601f82011682018060405250810190611ac69190612def565b60006125e2565b925092509250836001600160a01b03166341f1a126846040518263ffffffff1660e01b8152600401611aff9190612f40565b602060405180830381600087803b158015611b1957600080fd5b505af1158015611b2d573d6000803e3d6000fd5b505050506040513d601f19601f82011682018060405250810190611b519190612def565b50611b5a611e68565b6001600160a01b03166364de8a0733846040518363ffffffff1660e01b8152600401611b87929190612e91565b600060405180830381600087803b158015611ba157600080fd5b505af1158015611bb5573d6000803e3d6000fd5b50505050611bc1611e68565b6001600160a01b031663bcfa41ba33836040518363ffffffff1660e01b8152600401611bee929190612e91565b600060405180830381600087803b158015611c0857600080fd5b505af1158015611c1c573d6000803e3d6000fd5b50505050836001600160a01b0316637957dda3611c3886611fcf565b6040518263ffffffff1660e01b8152600401611c549190612f40565b602060405180830381600087803b158015611c6e57600080fd5b505af1158015611c82573d6000803e3d6000fd5b505050506040513d601f19601f82011682018060405250810190611ca69190612def565b506000846001600160a01b031663193501146040518163ffffffff1660e01b815260040160206040518083038186803b158015611ce257600080fd5b505afa158015611cf6573d6000803e3d6000fd5b505050506040513d601f19601f82011682018060405250810190611d1a9190612def565b1115611d2957611d2984611ded565b836001600160a01b0316846001600160a01b0316637df1f1b96040518163ffffffff1660e01b815260040160206040518083038186803b158015611d6c57600080fd5b505afa158015611d80573d6000803e3d6000fd5b505050506040513d601f19601f82011682018060405250810190611da49190612cbc565b6001600160a01b03167f73bc067f8d6bb15a01636f9b76c6daa98472621717a0788af90498d8bfe69eb0848487604051611de0939291906133d2565b60405180910390a3505050505b50565b3390565b60ca54101590565b60975460ff16611e1e5760405162461bcd60e51b815260040161046a90612f9c565b6097805460ff191690557f5db9ee0a495bf2e6ff9c91a7834c1ba4fdd244a5e8aa4e537bd38aeae4b073aa611e51611df0565b604051611e5e9190612e59565b60405180910390a1565b60c9546001600160a01b031690565b60cb54101590565b6000816001600160a01b031663a4d66daf6040518163ffffffff1660e01b815260040160206040518083038186803b158015611eba57600080fd5b505afa158015611ece573d6000803e3d6000fd5b505050506040513d601f19601f82011682018060405250810190611ef29190612def565b611f2f84846001600160a01b031663b69ef8a86040518163ffffffff1660e01b815260040160206040518083038186803b15801561099557600080fd5b111590505b92915050565b6000611f34611fc2836001600160a01b03166348e6f2966040518163ffffffff1660e01b815260040160206040518083038186803b158015611f7b57600080fd5b505afa158015611f8f573d6000803e3d6000fd5b505050506040513d601f19601f82011682018060405250810190611fb39190612def565b6116809063ffffffff61299a16565b439063ffffffff61227b16565b600080612055611680846001600160a01b03166399dd8df36040518163ffffffff1660e01b815260040160206040518083038186803b15801561201157600080fd5b505afa158015612025573d6000803e3d6000fd5b505050506040513d601f19601f820116820180604052508101906120499190612def565b9063ffffffff61299a16565b90506000836001600160a01b031663500b245e6040518163ffffffff1660e01b815260040160206040518083038186803b15801561209257600080fd5b505afa1580156120a6573d6000803e3d6000fd5b505050506040513d601f19601f820116820180604052508101906120ca9190612def565b1561214757836001600160a01b031663500b245e6040518163ffffffff1660e01b815260040160206040518083038186803b15801561210857600080fd5b505afa15801561211c573d6000803e3d6000fd5b505050506040513d601f19601f820116820180604052508101906121409190612def565b905061214a565b50435b61215a818363ffffffff61227b16565b949350505050565b60008060008073__$a2cc30817a35d2af16162c36988ade30ce$__634678497187876040518363ffffffff1660e01b81526004016121a1929190612e91565b604080518083038186803b1580156121b857600080fd5b505af41580156121cc573d6000803e3d6000fd5b505050506040513d601f19601f820116820180604052508101906121f09190612e36565b9150915061223182876001600160a01b03166321856b366040518163ffffffff1660e01b815260040160206040518083038186803b15801561099557600080fd5b61226e82886001600160a01b031663193501146040518163ffffffff1660e01b815260040160206040518083038186803b15801561099557600080fd5b9350935050509250929050565b6000828201838110156122a05760405162461bcd60e51b815260040161046a9061305d565b9392505050565b604051637d8b34e560e11b81526001600160a01b0385169063fb1669ca906122d3908690600401612f40565b602060405180830381600087803b1580156122ed57600080fd5b505af1158015612301573d6000803e3d6000fd5b505050506040513d601f19601f820116820180604052508101906123259190612def565b506040516396c8df3760e01b81526001600160a01b038516906396c8df3790612352908590600401612f40565b602060405180830381600087803b15801561236c57600080fd5b505af1158015612380573d6000803e3d6000fd5b505050506040513d601f19601f820116820180604052508101906123a49190612def565b5060405163b3b8a9c760e01b81526001600160a01b0385169063b3b8a9c7906123d1908490600401612f40565b602060405180830381600087803b1580156123eb57600080fd5b505af11580156123ff573d6000803e3d6000fd5b505050506040513d601f19601f820116820180604052508101906124239190612def565b506040516327e7b26360e01b81526001600160a01b038516906327e7b26390612450904390600401612f40565b602060405180830381600087803b15801561246a57600080fd5b505af115801561247e573d6000803e3d6000fd5b505050506040513d601f19601f820116820180604052508101906124a29190612def565b508261255557604051630fb9eb9960e41b81526001600160a01b0385169063fb9eb990906124d590600090600401612f40565b602060405180830381600087803b1580156124ef57600080fd5b505af1158015612503573d6000803e3d6000fd5b505050506040513d601f19601f820116820180604052508101906125279190612def565b50604051637957dda360e01b81526001600160a01b03851690637957dda390610e7590600090600401612f40565b50505050565b600080612567836129d4565b9050600061257b828663ffffffff61227b16565b845410159250505092915050565b60975460ff16156125ac5760405162461bcd60e51b815260040161046a90613114565b6097805460ff191660011790557f62e78cea01bee320cd4e420270b5ea74000d11b0c9f74754ebdbfc544b05a258611e51611df0565b60008060008060006125f48988612162565b91509150612600612c7f565b73__$a2cc30817a35d2af16162c36988ade30ce$__63d7cc2a038a8c6001600160a01b031663b69ef8a86040518163ffffffff1660e01b815260040160206040518083038186803b15801561265457600080fd5b505afa158015612668573d6000803e3d6000fd5b505050506040513d601f19601f8201168201806040525081019061268c9190612def565b86866040518563ffffffff1660e01b81526004016126ad94939291906133e8565b60606040518083038186803b1580156126c557600080fd5b505af41580156126d9573d6000803e3d6000fd5b505050506040513d601f19601f820116820180604052508101906126fd9190612d80565b9050600061278682602001518c6001600160a01b031663b69ef8a86040518163ffffffff1660e01b815260040160206040518083038186803b15801561274257600080fd5b505afa158015612756573d6000803e3d6000fd5b505050506040513d601f19601f8201168201806040525081019061277a9190612def565b9063ffffffff612aa916565b905087156127a75760408201516127a490829063ffffffff612aa916565b90505b60006127e6828d6001600160a01b031663b69ef8a86040518163ffffffff1660e01b815260040160206040518083038186803b15801561274257600080fd5b905060006128058261277a86600001518f612aa990919063ffffffff16565b905061283e8d8461282387600001518a612aa990919063ffffffff16565b6020880151612839908a9063ffffffff612aa916565b6122a7565b8b61285a836109cd87600001518561227b90919063ffffffff16565b1461286157fe5b9251929c929b50995090975050505050505050565b303b1590565b600054610100900460ff16806128955750612895612876565b806128a3575060005460ff16155b6128bf5760405162461bcd60e51b815260040161046a90613294565b600054610100900460ff161580156128ea576000805460ff1961ff0019909116610100171660011790555b6128f2612aeb565b6128fa612b6c565b8015611ded576000805461ff001916905550565b600054610100900460ff16806129275750612927612876565b80612935575060005460ff16155b6129515760405162461bcd60e51b815260040161046a90613294565b600054610100900460ff1615801561297c576000805460ff1961ff0019909116610100171660011790555b6097805460ff191690558015611ded576000805461ff001916905550565b6000826129a957506000611f34565b828202828482816129b657fe5b04146122a05760405162461bcd60e51b815260040161046a9061321e565b600080805b6001840154811015612aa25760008460010182815481106129f657fe5b9060005260206000200160009054906101000a90046001600160a01b03169050612a97816001600160a01b031663a4d66daf6040518163ffffffff1660e01b815260040160206040518083038186803b158015612a5257600080fd5b505afa158015612a66573d6000803e3d6000fd5b505050506040513d601f19601f82011682018060405250810190612a8a9190612def565b849063ffffffff61227b16565b9250506001016129d9565b5092915050565b60006122a083836040518060400160405280601e81526020017f536166654d6174683a207375627472616374696f6e206f766572666c6f770000815250612c46565b600054610100900460ff1680612b045750612b04612876565b80612b12575060005460ff16155b612b2e5760405162461bcd60e51b815260040161046a90613294565b600054610100900460ff161580156128fa576000805460ff1961ff0019909116610100171660011790558015611ded576000805461ff001916905550565b600054610100900460ff1680612b855750612b85612876565b80612b93575060005460ff16155b612baf5760405162461bcd60e51b815260040161046a90613294565b600054610100900460ff16158015612bda576000805460ff1961ff0019909116610100171660011790555b6000612be4611df0565b606580546001600160a01b0319166001600160a01b038316908117909155604051919250906000907f8be0079c531659141344cd1fd0a4f28419497f9722a3daafe3b4186f6b6457e0908290a3508015611ded576000805461ff001916905550565b60008184841115612c6a5760405162461bcd60e51b815260040161046a9190612f49565b505050900390565b610f6e8061341983390190565b60405180606001604052806000815260200160008152602001600081525090565b600060208284031215612cb1578081fd5b81356122a081613403565b600060208284031215612ccd578081fd5b81516122a081613403565b60008060408385031215612cea578081fd5b8235612cf581613403565b946020939093013593505050565b60008060408385031215612cea578182fd5b60008060008060008060c08789031215612d2d578182fd5b8635612d3881613403565b9860208801359850604088013597606081013597506080810135965060a00135945092505050565b600060208284031215612d71578081fd5b815180151581146122a0578182fd5b600060608284031215612d91578081fd5b6040516060810181811067ffffffffffffffff82111715612db0578283fd5b80604052508251815260208301516020820152604083015160408201528091505092915050565b600060208284031215612de8578081fd5b5035919050565b600060208284031215612e00578081fd5b5051919050565b60008060408385031215612e19578182fd5b823591506020830135612e2b81613403565b809150509250929050565b60008060408385031215612e48578182fd5b505080516020909101519092909150565b6001600160a01b0391909116815260200190565b6001600160a01b039384168152919092166020820152604081019190915260600190565b6001600160a01b03929092168252602082015260400190565b6001600160a01b03978816815295909616602086015260408501939093526060840191909152608083015260a082015260c081019190915260e00190565b6020808252825182820181905260009190848201906040850190845b81811015612f295783516001600160a01b031683529284019291840191600101612f04565b50909695505050505050565b901515815260200190565b90815260200190565b6000602080835283518082850152825b81811015612f7557858101830151858201604001528201612f59565b81811115612f865783604083870101525b50601f01601f1916929092016040019392505050565b60208082526014908201527314185d5cd8589b194e881b9bdd081c185d5cd95960621b604082015260600190565b60208082526026908201527f4f776e61626c653a206e6577206f776e657220697320746865207a65726f206160408201526564647265737360d01b606082015260800190565b6020808252602d908201527f596f75206861766520696e737566666963656e742062616c616e636520666f7260408201526c081d1a1a5cc81c185e5b595b9d609a1b606082015260800190565b6020808252601b908201527f536166654d6174683a206164646974696f6e206f766572666c6f770000000000604082015260600190565b6020808252602e908201527f54686520756e6465727772697465722063616e6e6f742063726561746520746860408201526d697320637265646974206c696e6560901b606082015260800190565b60408082526010908201526f1d1c985b9cd858dd1a5bdb931a5b5a5d60821b6060820152602081019190915260800190565b60208082526010908201526f14185d5cd8589b194e881c185d5cd95960821b604082015260600190565b60208082526028908201527f416d6f756e74206973206f76657220746865207065722d7472616e73616374696040820152671bdb881b1a5b5a5d60c21b606082015260800190565b60208082526025908201527f596f7520646f206e6f742062656c6f6e6720746f207468697320637265646974604082015264206c696e6560d81b606082015260800190565b60208082526033908201527f506f6f6c20646f6573206e6f74206861766520656e6f7567682062616c616e6360408201527232903337b9103a3434b990323930bbb237bbb760691b606082015260800190565b60208082526021908201527f536166654d6174683a206d756c7469706c69636174696f6e206f766572666c6f6040820152607760f81b606082015260800190565b6020808252818101527f4f776e61626c653a2063616c6c6572206973206e6f7420746865206f776e6572604082015260600190565b6020808252602e908201527f436f6e747261637420696e7374616e63652068617320616c726561647920626560408201526d195b881a5b9a5d1a585b1a5e995960921b606082015260800190565b6020808252603a908201527f54686973206c696d69742069732067726561746572207468616e20746865206d60408201527f617820616c6c6f776564206279207468652070726f746f636f6c000000000000606082015260800190565b6040808252601390820152721b585e155b99195c9ddc9a5d195c931a5b5a5d606a1b6060820152602081019190915260800190565b602080825260409082018190527f54686520626f72726f77657220646f6573206e6f74206861766520656e6f7567908201527f6820637265646974206c696d697420666f7220746869732064726177646f776e606082015260800190565b9283526020830191909152604082015260600190565b93845260208401929092526040830152606082015260800190565b6001600160a01b0381168114611ded57600080fdfe608060405234801561001057600080fd5b50610f4e806100206000396000f3fe608060405234801561001057600080fd5b50600436106101da5760003560e01c806396c8df3711610104578063ca3152e5116100a2578063f2fde38b11610071578063f2fde38b146103d6578063f90ce5ba146103fc578063fb1669ca14610404578063fb9eb99014610421576101da565b8063ca3152e514610370578063d8dfeb4514610378578063edbf4ac214610380578063f00db260146103ce576101da565b8063b3969992116100de578063b39699921461033b578063b3b8a9c714610343578063b69ef8a814610360578063c98c05b714610368576101da565b806396c8df371461030e57806399dd8df31461032b578063a4d66daf14610333576101da565b806341f1a1261161017c578063715018a61161014b578063715018a6146102bd5780637957dda3146102c55780637df1f1b9146102e25780638da5cb5b14610306576101da565b806341f1a1261461027357806348e6f29614610290578063500b245e1461029857806361cfbca1146102a0576101da565b806321856b36116101b857806321856b361461020957806327e7b2631461021157806327ea6f2b1461022e5780633059b7c61461024b576101da565b80630d49481d146101df5780631790ebd5146101f95780631935011414610201575b600080fd5b6101e761043e565b60408051918252519081900360200190f35b6101e7610444565b6101e761044a565b6101e7610450565b6101e76004803603602081101561022757600080fd5b5035610456565b6101e76004803603602081101561024457600080fd5b50356104b9565b6102716004803603602081101561026157600080fd5b50356001600160a01b0316610530565b005b6101e76004803603602081101561028957600080fd5b5035610676565b6101e76106d9565b6101e76106df565b6101e7600480360360208110156102b657600080fd5b50356106e5565b610271610748565b6101e7600480360360208110156102db57600080fd5b50356107ea565b6102ea61084d565b604080516001600160a01b039092168252519081900360200190f35b6102ea61085c565b6101e76004803603602081101561032457600080fd5b503561086b565b6101e76108ce565b6101e76108d4565b6101e76108da565b6101e76004803603602081101561035957600080fd5b50356108e0565b6101e7610943565b6101e7610949565b6101e761094f565b6101e7610955565b610271600480360360e081101561039657600080fd5b506001600160a01b03813581169160208101359091169060408101359060608101359060808101359060a08101359060c0013561095b565b6102ea610a59565b610271600480360360208110156103ec57600080fd5b50356001600160a01b0316610a68565b6101e7610b61565b6101e76004803603602081101561041a57600080fd5b5035610b67565b6101e76004803603602081101561043757600080fd5b5035610bca565b609c5481565b60a45481565b60a15481565b60a05481565b6000610460610c2d565b6065546001600160a01b039081169116146104b0576040805162461bcd60e51b81526020600482018190526024820152600080516020610ea9833981519152604482015290519081900360640190fd5b5060a681905590565b60006104c361085c565b6001600160a01b0316336001600160a01b031614806104ec57506098546001600160a01b031633145b6105275760405162461bcd60e51b8152600401808060200182810382526022815260200180610ef76022913960400191505060405180910390fd5b50609a81905590565b610538610c2d565b6065546001600160a01b03908116911614610588576040805162461bcd60e51b81526020600482018190526024820152600080516020610ea9833981519152604482015290519081900360640190fd5b6000816001600160a01b0316636a83b7e96040518163ffffffff1660e01b815260040160206040518083038186803b1580156105c357600080fd5b505afa1580156105d7573d6000803e3d6000fd5b505050506040513d60208110156105ed57600080fd5b50516040805163095ea7b360e01b81526001600160a01b038581166004830152600019602483015291519293509083169163095ea7b3916044808201926020929091908290030181600087803b15801561064657600080fd5b505af115801561065a573d6000803e3d6000fd5b505050506040513d602081101561067057600080fd5b50505050565b6000610680610c2d565b6065546001600160a01b039081169116146106d0576040805162461bcd60e51b81526020600482018190526024820152600080516020610ea9833981519152604482015290519081900360640190fd5b5060a281905590565b609e5481565b60a55481565b60006106ef610c2d565b6065546001600160a01b0390811691161461073f576040805162461bcd60e51b81526020600482018190526024820152600080516020610ea9833981519152604482015290519081900360640190fd5b5060a381905590565b610750610c2d565b6065546001600160a01b039081169116146107a0576040805162461bcd60e51b81526020600482018190526024820152600080516020610ea9833981519152604482015290519081900360640190fd5b6065546040516000916001600160a01b0316907f8be0079c531659141344cd1fd0a4f28419497f9722a3daafe3b4186f6b6457e0908390a3606580546001600160a01b0319169055565b60006107f4610c2d565b6065546001600160a01b03908116911614610844576040805162461bcd60e51b81526020600482018190526024820152600080516020610ea9833981519152604482015290519081900360640190fd5b5060a581905590565b6097546001600160a01b031681565b6065546001600160a01b031690565b6000610875610c2d565b6065546001600160a01b039081169116146108c5576040805162461bcd60e51b81526020600482018190526024820152600080516020610ea9833981519152604482015290519081900360640190fd5b5060a081905590565b609d5481565b609a5481565b609b5481565b60006108ea610c2d565b6065546001600160a01b0390811691161461093a576040805162461bcd60e51b81526020600482018190526024820152600080516020610ea9833981519152604482015290519081900360640190fd5b5060a181905590565b609f5481565b60a35481565b60a25481565b60995481565b600054610100900460ff16806109745750610974610c31565b80610982575060005460ff16155b6109bd5760405162461bcd60e51b815260040180806020018281038252602e815260200180610ec9602e913960400191505060405180910390fd5b600054610100900460ff161580156109e8576000805460ff1961ff0019909116610100171660011790555b6109f0610c37565b609780546001600160a01b03808b166001600160a01b03199283161790925560988054928a1692909116919091179055609a869055609b859055609c849055609d839055609e8290554360a6558015610a4f576000805461ff00191690555b5050505050505050565b6098546001600160a01b031681565b610a70610c2d565b6065546001600160a01b03908116911614610ac0576040805162461bcd60e51b81526020600482018190526024820152600080516020610ea9833981519152604482015290519081900360640190fd5b6001600160a01b038116610b055760405162461bcd60e51b8152600401808060200182810382526026815260200180610e836026913960400191505060405180910390fd5b6065546040516001600160a01b038084169216907f8be0079c531659141344cd1fd0a4f28419497f9722a3daafe3b4186f6b6457e090600090a3606580546001600160a01b0319166001600160a01b0392909216919091179055565b60a65481565b6000610b71610c2d565b6065546001600160a01b03908116911614610bc1576040805162461bcd60e51b81526020600482018190526024820152600080516020610ea9833981519152604482015290519081900360640190fd5b50609f81905590565b6000610bd4610c2d565b6065546001600160a01b03908116911614610c24576040805162461bcd60e51b81526020600482018190526024820152600080516020610ea9833981519152604482015290519081900360640190fd5b5060a481905590565b3390565b303b1590565b600054610100900460ff1680610c505750610c50610c31565b80610c5e575060005460ff16155b610c995760405162461bcd60e51b815260040180806020018281038252602e815260200180610ec9602e913960400191505060405180910390fd5b600054610100900460ff16158015610cc4576000805460ff1961ff0019909116610100171660011790555b610ccc610ce9565b610cd4610d89565b8015610ce6576000805461ff00191690555b50565b600054610100900460ff1680610d025750610d02610c31565b80610d10575060005460ff16155b610d4b5760405162461bcd60e51b815260040180806020018281038252602e815260200180610ec9602e913960400191505060405180910390fd5b600054610100900460ff16158015610cd4576000805460ff1961ff0019909116610100171660011790558015610ce6576000805461ff001916905550565b600054610100900460ff1680610da25750610da2610c31565b80610db0575060005460ff16155b610deb5760405162461bcd60e51b815260040180806020018281038252602e815260200180610ec9602e913960400191505060405180910390fd5b600054610100900460ff16158015610e16576000805460ff1961ff0019909116610100171660011790555b6000610e20610c2d565b606580546001600160a01b0319166001600160a01b038316908117909155604051919250906000907f8be0079c531659141344cd1fd0a4f28419497f9722a3daafe3b4186f6b6457e0908290a3508015610ce6576000805461ff00191690555056fe4f776e61626c653a206e6577206f776e657220697320746865207a65726f20616464726573734f776e61626c653a2063616c6c6572206973206e6f7420746865206f776e6572436f6e747261637420696e7374616e63652068617320616c7265616479206265656e20696e697469616c697a65645265737472696374656420746f206f776e6572206f7220756e646572777269746572a26469706673582212201bbb00c0cf24d22536869cc2da2c9fa399e4da9e7b2e0bf38f21a36f9c56b95b64736f6c63430006080033a26469706673582212209d1d4058d768ff5c1631f71e041e22e9cc5209d9a65ed39a26d40ed47b48114c64736f6c63430006080033",
  "libraries": {
    "Accountant": "0xaeBdBBEc6a0A44dae994cd82675eb26ACEC19Df9"
  },
  "devdoc": {
    "methods": {
      "owner()": {
        "details": "Returns the address of the current owner."
      },
      "pause()": {
        "details": "Pauses all functions guarded by Pause    * See {Pausable-_pause}.    * Requirements:    * - the caller must be the owner."
      },
      "paused()": {
        "details": "Returns true if the contract is paused, and false otherwise."
      },
      "renounceOwnership()": {
        "details": "Leaves the contract without owner. It will not be possible to call `onlyOwner` functions anymore. Can only be called by the current owner.     * NOTE: Renouncing ownership will leave the contract without an owner, thereby removing any functionality that is only available to the owner."
      },
      "transferOwnership(address)": {
        "details": "Transfers ownership of the contract to a new account (`newOwner`). Can only be called by the current owner."
      },
      "unpause()": {
        "details": "Unpauses the contract    * See {Pausable-_unpause}.    * Requirements:    * - the caller must be the owner`."
      }
    }
  },
  "userdoc": {
    "methods": {}
  },
  "storageLayout": {
    "storage": [
      {
        "astId": 49,
        "contract": "contracts/CreditDesk.sol:CreditDesk",
        "label": "initialized",
        "offset": 0,
        "slot": "0",
        "type": "t_bool"
      },
      {
        "astId": 51,
        "contract": "contracts/CreditDesk.sol:CreditDesk",
        "label": "initializing",
        "offset": 1,
        "slot": "0",
        "type": "t_bool"
      },
      {
        "astId": 116,
        "contract": "contracts/CreditDesk.sol:CreditDesk",
        "label": "______gap",
        "offset": 0,
        "slot": "1",
        "type": "t_array(t_uint256)50_storage"
      },
      {
        "astId": 43,
        "contract": "contracts/CreditDesk.sol:CreditDesk",
        "label": "__gap",
        "offset": 0,
        "slot": "51",
        "type": "t_array(t_uint256)50_storage"
      },
      {
        "astId": 128,
        "contract": "contracts/CreditDesk.sol:CreditDesk",
        "label": "_owner",
        "offset": 0,
        "slot": "101",
        "type": "t_address"
      },
      {
        "astId": 246,
        "contract": "contracts/CreditDesk.sol:CreditDesk",
        "label": "__gap",
        "offset": 0,
        "slot": "102",
        "type": "t_array(t_uint256)49_storage"
      },
      {
        "astId": 1213,
        "contract": "contracts/CreditDesk.sol:CreditDesk",
        "label": "_paused",
        "offset": 0,
        "slot": "151",
        "type": "t_bool"
      },
      {
        "astId": 1302,
        "contract": "contracts/CreditDesk.sol:CreditDesk",
        "label": "__gap",
        "offset": 0,
        "slot": "152",
        "type": "t_array(t_uint256)49_storage"
      },
      {
        "astId": 1731,
        "contract": "contracts/CreditDesk.sol:CreditDesk",
        "label": "poolAddress",
        "offset": 0,
        "slot": "201",
        "type": "t_address"
      },
      {
        "astId": 1734,
        "contract": "contracts/CreditDesk.sol:CreditDesk",
        "label": "maxUnderwriterLimit",
        "offset": 0,
        "slot": "202",
        "type": "t_uint256"
      },
      {
        "astId": 1737,
        "contract": "contracts/CreditDesk.sol:CreditDesk",
        "label": "transactionLimit",
        "offset": 0,
        "slot": "203",
        "type": "t_uint256"
      },
      {
        "astId": 1805,
        "contract": "contracts/CreditDesk.sol:CreditDesk",
        "label": "underwriters",
        "offset": 0,
        "slot": "204",
        "type": "t_mapping(t_address,t_struct(Underwriter)1743_storage)"
      },
      {
        "astId": 1809,
        "contract": "contracts/CreditDesk.sol:CreditDesk",
        "label": "borrowers",
        "offset": 0,
        "slot": "205",
        "type": "t_mapping(t_address,t_struct(Borrower)1747_storage)"
      }
    ],
    "types": {
      "t_address": {
        "encoding": "inplace",
        "label": "address",
        "numberOfBytes": "20"
      },
      "t_array(t_address)dyn_storage": {
        "base": "t_address",
        "encoding": "dynamic_array",
        "label": "address[]",
        "numberOfBytes": "32"
      },
      "t_array(t_uint256)49_storage": {
        "base": "t_uint256",
        "encoding": "inplace",
        "label": "uint256[49]",
        "numberOfBytes": "1568"
      },
      "t_array(t_uint256)50_storage": {
        "base": "t_uint256",
        "encoding": "inplace",
        "label": "uint256[50]",
        "numberOfBytes": "1600"
      },
      "t_bool": {
        "encoding": "inplace",
        "label": "bool",
        "numberOfBytes": "1"
      },
      "t_mapping(t_address,t_struct(Borrower)1747_storage)": {
        "encoding": "mapping",
        "key": "t_address",
        "label": "mapping(address => struct CreditDesk.Borrower)",
        "numberOfBytes": "32",
        "value": "t_struct(Borrower)1747_storage"
      },
      "t_mapping(t_address,t_struct(Underwriter)1743_storage)": {
        "encoding": "mapping",
        "key": "t_address",
        "label": "mapping(address => struct CreditDesk.Underwriter)",
        "numberOfBytes": "32",
        "value": "t_struct(Underwriter)1743_storage"
      },
      "t_struct(Borrower)1747_storage": {
        "encoding": "inplace",
        "label": "struct CreditDesk.Borrower",
        "members": [
          {
            "astId": 1746,
            "contract": "contracts/CreditDesk.sol:CreditDesk",
            "label": "creditLines",
            "offset": 0,
            "slot": "0",
            "type": "t_array(t_address)dyn_storage"
          }
        ],
        "numberOfBytes": "32"
      },
      "t_struct(Underwriter)1743_storage": {
        "encoding": "inplace",
        "label": "struct CreditDesk.Underwriter",
        "members": [
          {
            "astId": 1739,
            "contract": "contracts/CreditDesk.sol:CreditDesk",
            "label": "governanceLimit",
            "offset": 0,
            "slot": "0",
            "type": "t_uint256"
          },
          {
            "astId": 1742,
            "contract": "contracts/CreditDesk.sol:CreditDesk",
            "label": "creditLines",
            "offset": 0,
            "slot": "1",
            "type": "t_array(t_address)dyn_storage"
          }
        ],
        "numberOfBytes": "64"
      },
      "t_uint256": {
        "encoding": "inplace",
        "label": "uint256",
        "numberOfBytes": "32"
      }
    }
  },
  "gasEstimates": {
    "creation": {
      "codeDepositCost": "3468000",
      "executionCost": "13888",
      "totalCost": "3481888"
    },
    "external": {
      "__OwnerPausable__init()": "66017",
      "addCollateral(address,uint256)": "infinite",
      "assessCreditLine(address)": "infinite",
      "blocksPerDay()": "362",
      "createCreditLine(address,uint256,uint256,uint256,uint256,uint256)": "infinite",
      "drawdown(uint256,address)": "infinite",
      "getBorrowerCreditLines(address)": "infinite",
      "getUnderwriterCreditLines(address)": "infinite",
      "initialize(address)": "infinite",
      "maxUnderwriterLimit()": "1161",
      "owner()": "1159",
      "pause()": "infinite",
      "paused()": "1085",
      "pay(address,uint256)": "infinite",
      "poolAddress()": "1116",
      "prepay(address,uint256)": "infinite",
      "renounceOwnership()": "24312",
      "setMaxUnderwriterLimit(uint256)": "24315",
      "setPoolAddress(address)": "infinite",
      "setTransactionLimit(uint256)": "24314",
      "setUnderwriterGovernanceLimit(address,uint256)": "24493",
      "transactionLimit()": "1072",
      "transferOwnership(address)": "24499",
      "underwriters(address)": "1269",
      "unpause()": "infinite"
    },
    "internal": {
      "calculateNewTermEndBlock(contract CreditLine)": "infinite",
      "calculateNextDueBlock(contract CreditLine)": "infinite",
      "getCreditCurrentlyExtended(struct CreditDesk.Underwriter storage pointer)": "infinite",
      "getInterestAndPrincipalOwedAsOf(contract CreditLine,uint256)": "infinite",
      "getPool()": "833",
      "handleLatePayments(contract CreditLine)": "infinite",
      "handlePayment(contract CreditLine,uint256,uint256,bool)": "infinite",
      "underwriterCanCreateThisCreditLine(uint256,struct CreditDesk.Underwriter storage pointer)": "infinite",
      "updateCreditLineAccounting(contract CreditLine,uint256,uint256,uint256)": "infinite",
      "withinCreditLimit(uint256,contract CreditLine)": "infinite",
      "withinMaxUnderwriterLimit(uint256)": "821",
      "withinTransactionLimit(uint256)": "821"
    }
  }
}