{
  "address": "0x76C3F166d086E6Cc213fcE0391e5087d3F4A77Fe",
  "abi": [
    {
      "inputs": [],
      "stateMutability": "nonpayable",
      "type": "constructor"
    },
    {
      "anonymous": false,
      "inputs": [
        {
          "indexed": true,
          "internalType": "bytes32",
          "name": "domainSeparator",
          "type": "bytes32"
        },
        {
          "indexed": false,
          "internalType": "bytes",
          "name": "domainValue",
          "type": "bytes"
        }
      ],
      "name": "DomainRegistered",
      "type": "event"
    },
    {
      "anonymous": false,
      "inputs": [
        {
          "indexed": true,
          "internalType": "bytes32",
          "name": "typeHash",
          "type": "bytes32"
        },
        {
          "indexed": false,
          "internalType": "string",
          "name": "typeStr",
          "type": "string"
        }
      ],
      "name": "RequestTypeRegistered",
      "type": "event"
    },
    {
      "inputs": [],
      "name": "EIP712_DOMAIN_TYPE",
      "outputs": [
        {
          "internalType": "string",
          "name": "",
          "type": "string"
        }
      ],
      "stateMutability": "view",
      "type": "function"
    },
    {
      "inputs": [],
      "name": "GENERIC_PARAMS",
      "outputs": [
        {
          "internalType": "string",
          "name": "",
          "type": "string"
        }
      ],
      "stateMutability": "view",
      "type": "function"
    },
    {
      "inputs": [
        {
          "components": [
            {
              "internalType": "address",
              "name": "from",
              "type": "address"
            },
            {
              "internalType": "address",
              "name": "to",
              "type": "address"
            },
            {
              "internalType": "uint256",
              "name": "value",
              "type": "uint256"
            },
            {
              "internalType": "uint256",
              "name": "gas",
              "type": "uint256"
            },
            {
              "internalType": "uint256",
              "name": "nonce",
              "type": "uint256"
            },
            {
              "internalType": "bytes",
              "name": "data",
              "type": "bytes"
            }
          ],
          "internalType": "struct TestForwarder.ForwardRequest",
          "name": "req",
          "type": "tuple"
        },
        {
          "internalType": "bytes32",
          "name": "requestTypeHash",
          "type": "bytes32"
        },
        {
          "internalType": "bytes",
          "name": "suffixData",
          "type": "bytes"
        }
      ],
      "name": "_getEncoded",
      "outputs": [
        {
          "internalType": "bytes",
          "name": "",
          "type": "bytes"
        }
      ],
      "stateMutability": "pure",
      "type": "function"
    },
    {
      "inputs": [
        {
          "internalType": "bytes32",
          "name": "",
          "type": "bytes32"
        }
      ],
      "name": "domains",
      "outputs": [
        {
          "internalType": "bool",
          "name": "",
          "type": "bool"
        }
      ],
      "stateMutability": "view",
      "type": "function"
    },
    {
      "inputs": [
        {
          "components": [
            {
              "internalType": "address",
              "name": "from",
              "type": "address"
            },
            {
              "internalType": "address",
              "name": "to",
              "type": "address"
            },
            {
              "internalType": "uint256",
              "name": "value",
              "type": "uint256"
            },
            {
              "internalType": "uint256",
              "name": "gas",
              "type": "uint256"
            },
            {
              "internalType": "uint256",
              "name": "nonce",
              "type": "uint256"
            },
            {
              "internalType": "bytes",
              "name": "data",
              "type": "bytes"
            }
          ],
          "internalType": "struct TestForwarder.ForwardRequest",
          "name": "req",
          "type": "tuple"
        },
        {
          "internalType": "bytes32",
          "name": "domainSeparator",
          "type": "bytes32"
        },
        {
          "internalType": "bytes32",
          "name": "requestTypeHash",
          "type": "bytes32"
        },
        {
          "internalType": "bytes",
          "name": "suffixData",
          "type": "bytes"
        },
        {
          "internalType": "bytes",
          "name": "sig",
          "type": "bytes"
        }
      ],
      "name": "execute",
      "outputs": [
        {
          "internalType": "bool",
          "name": "success",
          "type": "bool"
        },
        {
          "internalType": "bytes",
          "name": "ret",
          "type": "bytes"
        }
      ],
      "stateMutability": "payable",
      "type": "function"
    },
    {
      "inputs": [
        {
          "internalType": "address",
          "name": "from",
          "type": "address"
        }
      ],
      "name": "getNonce",
      "outputs": [
        {
          "internalType": "uint256",
          "name": "",
          "type": "uint256"
        }
      ],
      "stateMutability": "view",
      "type": "function"
    },
    {
      "inputs": [
        {
          "internalType": "string",
          "name": "name",
          "type": "string"
        },
        {
          "internalType": "string",
          "name": "version",
          "type": "string"
        }
      ],
      "name": "registerDomainSeparator",
      "outputs": [],
      "stateMutability": "nonpayable",
      "type": "function"
    },
    {
      "inputs": [
        {
          "internalType": "string",
          "name": "typeName",
          "type": "string"
        },
        {
          "internalType": "string",
          "name": "typeSuffix",
          "type": "string"
        }
      ],
      "name": "registerRequestType",
      "outputs": [],
      "stateMutability": "nonpayable",
      "type": "function"
    },
    {
      "inputs": [
        {
          "internalType": "bytes32",
          "name": "",
          "type": "bytes32"
        }
      ],
      "name": "typeHashes",
      "outputs": [
        {
          "internalType": "bool",
          "name": "",
          "type": "bool"
        }
      ],
      "stateMutability": "view",
      "type": "function"
    },
    {
      "inputs": [
        {
          "components": [
            {
              "internalType": "address",
              "name": "from",
              "type": "address"
            },
            {
              "internalType": "address",
              "name": "to",
              "type": "address"
            },
            {
              "internalType": "uint256",
              "name": "value",
              "type": "uint256"
            },
            {
              "internalType": "uint256",
              "name": "gas",
              "type": "uint256"
            },
            {
              "internalType": "uint256",
              "name": "nonce",
              "type": "uint256"
            },
            {
              "internalType": "bytes",
              "name": "data",
              "type": "bytes"
            }
          ],
          "internalType": "struct TestForwarder.ForwardRequest",
          "name": "req",
          "type": "tuple"
        },
        {
          "internalType": "bytes32",
          "name": "domainSeparator",
          "type": "bytes32"
        },
        {
          "internalType": "bytes32",
          "name": "requestTypeHash",
          "type": "bytes32"
        },
        {
          "internalType": "bytes",
          "name": "suffixData",
          "type": "bytes"
        },
        {
          "internalType": "bytes",
          "name": "sig",
          "type": "bytes"
        }
      ],
      "name": "verify",
      "outputs": [],
      "stateMutability": "view",
      "type": "function"
    },
    {
      "stateMutability": "payable",
      "type": "receive"
    }
  ],
  "transactionHash": "0xd423924d3b04aaf84c2e4410be1e7935d9a111879b26042697d1afdc7cc440b0",
  "args": [],
  "solcInputHash": "60bf04b8c24669590397de1969e3a29e",
  "bytecode": "0x60806040523480156200001157600080fd5b5060606040518060800160405280604a815260200162001337604a9139604051602001620000409190620000c8565b60408051601f1981840301815291905290506200005d8162000064565b5062000174565b8051602080830191909120600081815291829052604091829020805460ff19166001179055905181907f64d6bce64323458c44643c51fe45113efc882082f7b7fd5f09f0d69d2eedb20290620000bc9085906200010c565b60405180910390a25050565b60006e08cdee4eec2e4c8a4cae2eacae6e85608b1b82528251620000f481600f85016020870162000141565b602960f81b600f939091019283015250601001919050565b60006020825282518060208401526200012d81604085016020870162000141565b601f01601f19169190910160400192915050565b60005b838110156200015e57818101518382015260200162000144565b838111156200016e576000848401525b50505050565b6111b380620001846000396000f3fe6080604052600436106100955760003560e01c8063c3f28abd11610059578063c3f28abd14610168578063c45c26741461017d578063c722f1771461019d578063cdf5735a146101bd578063d9210be5146101de5761009c565b8063066a310c146100a157806321fe98df146100cc5780632d0335ab146100f9578063992d82c3146101265780639c7b4592146101485761009c565b3661009c57005b600080fd5b3480156100ad57600080fd5b506100b66101fe565b6040516100c39190610e7b565b60405180910390f35b3480156100d857600080fd5b506100ec6100e7366004610b0b565b61021a565b6040516100c39190610e03565b34801561010557600080fd5b50610119610114366004610add565b61022f565b6040516100c3919061106c565b34801561013257600080fd5b50610146610141366004610b8c565b61024a565b005b34801561015457600080fd5b50610146610163366004610b23565b6102d2565b34801561017457600080fd5b506100b66103b4565b34801561018957600080fd5b506100b6610198366004610c30565b6103d0565b3480156101a957600080fd5b506100ec6101b8366004610b0b565b610445565b6101d06101cb366004610b8c565b61045a565b6040516100c3929190610e0e565b3480156101ea57600080fd5b506101466101f9366004610b23565b6105f7565b6040518060800160405280604a81526020016110e2604a913981565b60006020819052908152604090205460ff1681565b6001600160a01b031660009081526002602052604090205490565b610253876106bd565b6102c987878787878080601f01602080910402602001604051908101604052809392919081815260200183838082843760009201919091525050604080516020601f8b0181900481028201810190925289815292508991508890819084018382808284376000920191909152506106fc92505050565b50505050505050565b6000469050606060405180608001604052806052815260200161112c60529139805190602001208686604051610309929190610d03565b60405180910390208585604051610321929190610d03565b60405190819003812061033c93929186903090602001610e31565b60408051601f198184030181528282528051602080830191909120600081815260019283905293909320805460ff1916909117905592509081907f4bc68689cbe89a4a6333a3ab0a70093874da3e5bfb71e93102027f3f073687d8906103a3908590610e7b565b60405180910390a250505050505050565b60405180608001604052806052815260200161112c6052913981565b606082846000015185602001518660400151876060015188608001518960a001518051906020012060405160200161040d96959493929190610dcd565b60408051601f198184030181529082905261042d92918590602001610cc6565b60405160208183030381529060405290509392505050565b60016020526000908152604090205460ff1681565b60006060610467896106bd565b6104dd89898989898080601f01602080910402602001604051908101604052809392919081815260200183838082843760009201919091525050604080516020601f8d018190048102820181019092528b815292508b91508a90819084018382808284376000920191909152506106fc92505050565b6104e6896107da565b88602001516001600160a01b031689606001518a604001518b60a001518c60000151604051602001610519929190610d2f565b60408051601f198184030181529082905261053391610d13565b600060405180830381858888f193505050503d8060008114610571576040519150601f19603f3d011682016040523d82523d6000602084013e610576565b606091505b509092509050816105ab5780826105a95760405162461bcd60e51b81526004016105a09190610e7b565b60405180910390fd5b505b47156105eb5788516040516001600160a01b03909116904780156108fc02916000818181858888f193505050501580156105e9573d6000803e3d6000fd5b505b97509795505050505050565b60005b8381101561066857600085858381811061061057fe5b909101356001600160f81b031916915050600560fb1b81148015906106435750602960f81b6001600160f81b0319821614155b61065f5760405162461bcd60e51b81526004016105a090610efc565b506001016105fa565b50606084846040518060800160405280604a81526020016110e2604a9139858560405160200161069c959493929190610d66565b60405160208183030381529060405290506106b6816107fb565b5050505050565b608081015181516001600160a01b0316600090815260026020526040902054146106f95760405162461bcd60e51b81526004016105a090610f26565b50565b60008481526001602052604090205460ff1661072a5760405162461bcd60e51b81526004016105a090610fc7565b60008381526020819052604090205460ff166107585760405162461bcd60e51b81526004016105a090610f90565b6000846107668786866103d0565b805160209182012060405161077c939201610db2565b60408051601f19818403018152919052805160209091012086519091506001600160a01b03166107ac828461085d565b6001600160a01b0316146107d25760405162461bcd60e51b81526004016105a090611040565b505050505050565b516001600160a01b0316600090815260026020526040902080546001019055565b8051602080830191909120600081815291829052604091829020805460ff19166001179055905181907f64d6bce64323458c44643c51fe45113efc882082f7b7fd5f09f0d69d2eedb20290610851908590610e7b565b60405180910390a25050565b600081516041146108805760405162461bcd60e51b81526004016105a090610ec5565b60208201516040830151606084015160001a61089e868285856108a8565b9695505050505050565b60007f7fffffffffffffffffffffffffffffff5d576e7357a4501ddfe92f46681b20a08211156108ea5760405162461bcd60e51b81526004016105a090610f4e565b8360ff16601b14806108ff57508360ff16601c145b61091b5760405162461bcd60e51b81526004016105a090610ffe565b6000600186868686604051600081526020016040526040516109409493929190610e5d565b6020604051602081039080840390855afa158015610962573d6000803e3d6000fd5b5050604051601f1901519150506001600160a01b0381166109955760405162461bcd60e51b81526004016105a090610e8e565b95945050505050565b60008083601f8401126109af578182fd5b50813567ffffffffffffffff8111156109c6578182fd5b6020830191508360208285010111156109de57600080fd5b9250929050565b600082601f8301126109f5578081fd5b813567ffffffffffffffff811115610a0b578182fd5b610a1e601f8201601f1916602001611075565b9150808252836020828501011115610a3557600080fd5b8060208401602084013760009082016020015292915050565b600060c08284031215610a5f578081fd5b610a6960c0611075565b90508135610a76816110cc565b81526020820135610a86816110cc565b8060208301525060408201356040820152606082013560608201526080820135608082015260a082013567ffffffffffffffff811115610ac557600080fd5b610ad1848285016109e5565b60a08301525092915050565b600060208284031215610aee578081fd5b81356001600160a01b0381168114610b04578182fd5b9392505050565b600060208284031215610b1c578081fd5b5035919050565b60008060008060408587031215610b38578283fd5b843567ffffffffffffffff80821115610b4f578485fd5b610b5b8883890161099e565b90965094506020870135915080821115610b73578384fd5b50610b808782880161099e565b95989497509550505050565b600080600080600080600060a0888a031215610ba6578283fd5b873567ffffffffffffffff80821115610bbd578485fd5b610bc98b838c01610a4e565b985060208a0135975060408a0135965060608a0135915080821115610bec578485fd5b610bf88b838c0161099e565b909650945060808a0135915080821115610c10578384fd5b50610c1d8a828b0161099e565b989b979a50959850939692959293505050565b600080600060608486031215610c44578283fd5b833567ffffffffffffffff80821115610c5b578485fd5b610c6787838801610a4e565b9450602086013593506040860135915080821115610c83578283fd5b50610c90868287016109e5565b9150509250925092565b60008151808452610cb281602086016020860161109c565b601f01601f19169290920160200192915050565b60008482528351610cde81602085016020880161109c565b80830190508351610cf681602084016020880161109c565b0160200195945050505050565b6000828483379101908152919050565b60008251610d2581846020870161109c565b9190910192915050565b60008351610d4181846020880161109c565b60609390931b6bffffffffffffffffffffffff19169190920190815260140192915050565b600085878337600560fb1b8287019081528551610d8a816001840160208a0161109c565b600b60fa1b600192909101918201528385600283013790920160020191825250949350505050565b61190160f01b81526002810192909252602282015260420190565b6001600160a01b03968716815294909516602085015260408401929092526060830152608082015260a081019190915260c00190565b901515815260200190565b6000831515825260406020830152610e296040830184610c9a565b949350505050565b9485526020850193909352604084019190915260608301526001600160a01b0316608082015260a00190565b93845260ff9290921660208401526040830152606082015260800190565b600060208252610b046020830184610c9a565b60208082526018908201527f45434453413a20696e76616c6964207369676e61747572650000000000000000604082015260600190565b6020808252601f908201527f45434453413a20696e76616c6964207369676e6174757265206c656e67746800604082015260600190565b60208082526010908201526f696e76616c696420747970656e616d6560801b604082015260600190565b6020808252600e908201526d0dcdedcc6ca40dad2e6dac2e8c6d60931b604082015260600190565b60208082526022908201527f45434453413a20696e76616c6964207369676e6174757265202773272076616c604082015261756560f01b606082015260800190565b6020808252601d908201527f756e726567697374657265642072657175657374207479706568617368000000604082015260600190565b6020808252601d908201527f756e7265676973746572656420646f6d61696e20736570617261746f72000000604082015260600190565b60208082526022908201527f45434453413a20696e76616c6964207369676e6174757265202776272076616c604082015261756560f01b606082015260800190565b6020808252601290820152710e6d2cedcc2e8eae4ca40dad2e6dac2e8c6d60731b604082015260600190565b90815260200190565b60405181810167ffffffffffffffff8111828210171561109457600080fd5b604052919050565b60005b838110156110b757818101518382015260200161109f565b838111156110c6576000848401525b50505050565b6001600160a01b03811681146106f957600080fdfe616464726573732066726f6d2c6164647265737320746f2c75696e743235362076616c75652c75696e74323536206761732c75696e74323536206e6f6e63652c62797465732064617461454950373132446f6d61696e28737472696e67206e616d652c737472696e672076657273696f6e2c75696e7432353620636861696e49642c6164647265737320766572696679696e67436f6e747261637429a2646970667358221220814c082930c8a1956ee1e652ab270d5e0f65f024b8b0e02f9baf9084ad214bc564736f6c634300060c0033616464726573732066726f6d2c6164647265737320746f2c75696e743235362076616c75652c75696e74323536206761732c75696e74323536206e6f6e63652c62797465732064617461",
  "devdoc": {
    "kind": "dev",
    "methods": {},
    "version": 1
  },
  "userdoc": {
    "kind": "user",
    "methods": {},
    "version": 1
  },
  "storageLayout": {
    "storage": [
      {
        "astId": 23575,
        "contract": "contracts/test/TestForwarder.sol:TestForwarder",
        "label": "typeHashes",
        "offset": 0,
        "slot": "0",
        "type": "t_mapping(t_bytes32,t_bool)"
      },
      {
        "astId": 23579,
        "contract": "contracts/test/TestForwarder.sol:TestForwarder",
        "label": "domains",
        "offset": 0,
        "slot": "1",
        "type": "t_mapping(t_bytes32,t_bool)"
      },
      {
        "astId": 23583,
        "contract": "contracts/test/TestForwarder.sol:TestForwarder",
        "label": "nonces",
        "offset": 0,
        "slot": "2",
        "type": "t_mapping(t_address,t_uint256)"
      }
    ],
    "types": {
      "t_address": {
        "encoding": "inplace",
        "label": "address",
        "numberOfBytes": "20"
      },
      "t_bool": {
        "encoding": "inplace",
        "label": "bool",
        "numberOfBytes": "1"
      },
      "t_bytes32": {
        "encoding": "inplace",
        "label": "bytes32",
        "numberOfBytes": "32"
      },
      "t_mapping(t_address,t_uint256)": {
        "encoding": "mapping",
        "key": "t_address",
        "label": "mapping(address => uint256)",
        "numberOfBytes": "32",
        "value": "t_uint256"
      },
      "t_mapping(t_bytes32,t_bool)": {
        "encoding": "mapping",
        "key": "t_bytes32",
        "label": "mapping(bytes32 => bool)",
        "numberOfBytes": "32",
        "value": "t_bool"
      },
      "t_uint256": {
        "encoding": "inplace",
        "label": "uint256",
        "numberOfBytes": "32"
      }
    }
  }
}