{
  "address": "0x7bcB287059E871ca194474b3e538AdE985efB6A7",
  "abi": [
    {
      "anonymous": false,
      "inputs": [
        {
          "indexed": true,
          "internalType": "address",
          "name": "owner",
          "type": "address"
        },
        {
          "indexed": true,
          "internalType": "uint256",
          "name": "tokenId",
          "type": "uint256"
        },
        {
          "indexed": false,
          "internalType": "uint256",
          "name": "amountOfTranchedPoolRewards",
          "type": "uint256"
        },
        {
          "indexed": false,
          "internalType": "uint256",
          "name": "amountOfSeniorPoolRewards",
          "type": "uint256"
        }
      ],
      "name": "BackerRewardsClaimed",
      "type": "event"
    },
    {
      "anonymous": false,
      "inputs": [
        {
          "indexed": true,
          "internalType": "address",
          "name": "owner",
          "type": "address"
        },
        {
          "indexed": false,
          "internalType": "uint256",
          "name": "maxInterestDollarsEligible",
          "type": "uint256"
        }
      ],
      "name": "BackerRewardsSetMaxInterestDollarsEligible",
      "type": "event"
    },
    {
      "anonymous": false,
      "inputs": [
        {
          "indexed": true,
          "internalType": "address",
          "name": "owner",
          "type": "address"
        },
        {
          "indexed": false,
          "internalType": "uint256",
          "name": "totalInterestReceived",
          "type": "uint256"
        }
      ],
      "name": "BackerRewardsSetTotalInterestReceived",
      "type": "event"
    },
    {
      "anonymous": false,
      "inputs": [
        {
          "indexed": true,
          "internalType": "address",
          "name": "owner",
          "type": "address"
        },
        {
          "indexed": false,
          "internalType": "uint256",
          "name": "totalRewards",
          "type": "uint256"
        },
        {
          "indexed": false,
          "internalType": "uint256",
          "name": "totalRewardPercentOfTotalGFI",
          "type": "uint256"
        }
      ],
      "name": "BackerRewardsSetTotalRewards",
      "type": "event"
    },
    {
      "anonymous": false,
      "inputs": [
        {
          "indexed": false,
          "internalType": "address",
          "name": "account",
          "type": "address"
        }
      ],
      "name": "Paused",
      "type": "event"
    },
    {
      "anonymous": false,
      "inputs": [
        {
          "indexed": true,
          "internalType": "bytes32",
          "name": "role",
          "type": "bytes32"
        },
        {
          "indexed": true,
          "internalType": "address",
          "name": "account",
          "type": "address"
        },
        {
          "indexed": true,
          "internalType": "address",
          "name": "sender",
          "type": "address"
        }
      ],
      "name": "RoleGranted",
      "type": "event"
    },
    {
      "anonymous": false,
      "inputs": [
        {
          "indexed": true,
          "internalType": "bytes32",
          "name": "role",
          "type": "bytes32"
        },
        {
          "indexed": true,
          "internalType": "address",
          "name": "account",
          "type": "address"
        },
        {
          "indexed": true,
          "internalType": "address",
          "name": "sender",
          "type": "address"
        }
      ],
      "name": "RoleRevoked",
      "type": "event"
    },
    {
      "anonymous": false,
      "inputs": [],
      "name": "SafetyCheckTriggered",
      "type": "event"
    },
    {
      "anonymous": false,
      "inputs": [
        {
          "indexed": false,
          "internalType": "address",
          "name": "account",
          "type": "address"
        }
      ],
      "name": "Unpaused",
      "type": "event"
    },
    {
      "inputs": [],
      "name": "DEFAULT_ADMIN_ROLE",
      "outputs": [
        {
          "internalType": "bytes32",
          "name": "",
          "type": "bytes32"
        }
      ],
      "stateMutability": "view",
      "type": "function"
    },
    {
      "inputs": [],
      "name": "OWNER_ROLE",
      "outputs": [
        {
          "internalType": "bytes32",
          "name": "",
          "type": "bytes32"
        }
      ],
      "stateMutability": "view",
      "type": "function"
    },
    {
      "inputs": [],
      "name": "PAUSER_ROLE",
      "outputs": [
        {
          "internalType": "bytes32",
          "name": "",
          "type": "bytes32"
        }
      ],
      "stateMutability": "view",
      "type": "function"
    },
    {
      "inputs": [
        {
          "internalType": "address",
          "name": "owner",
          "type": "address"
        }
      ],
      "name": "__BaseUpgradeablePausable__init",
      "outputs": [],
      "stateMutability": "nonpayable",
      "type": "function"
    },
    {
      "inputs": [],
      "name": "__PauserPausable__init",
      "outputs": [],
      "stateMutability": "nonpayable",
      "type": "function"
    },
    {
      "inputs": [
        {
          "internalType": "address",
          "name": "owner",
          "type": "address"
        },
        {
          "internalType": "contract GoldfinchConfig",
          "name": "_config",
          "type": "address"
        }
      ],
      "name": "__initialize__",
      "outputs": [],
      "stateMutability": "nonpayable",
      "type": "function"
    },
    {
      "inputs": [
        {
          "internalType": "uint256",
          "name": "_interestPaymentAmount",
          "type": "uint256"
        }
      ],
      "name": "allocateRewards",
      "outputs": [],
      "stateMutability": "nonpayable",
      "type": "function"
    },
    {
      "inputs": [
        {
          "internalType": "uint256",
          "name": "tokenId",
          "type": "uint256"
        }
      ],
      "name": "clearTokenInfo",
      "outputs": [],
      "stateMutability": "nonpayable",
      "type": "function"
    },
    {
      "inputs": [],
      "name": "config",
      "outputs": [
        {
          "internalType": "contract GoldfinchConfig",
          "name": "",
          "type": "address"
        }
      ],
      "stateMutability": "view",
      "type": "function"
    },
    {
      "inputs": [
        {
          "internalType": "contract ITranchedPool",
          "name": "pool",
          "type": "address"
        }
      ],
      "name": "getBackerStakingRewardsPoolInfo",
      "outputs": [
        {
          "components": [
            {
              "internalType": "uint256",
              "name": "accumulatedRewardsPerTokenAtLastCheckpoint",
              "type": "uint256"
            },
            {
              "internalType": "uint256",
              "name": "lastUpdateTime",
              "type": "uint256"
            },
            {
              "components": [
                {
                  "internalType": "uint256",
                  "name": "fiduSharePriceAtDrawdown",
                  "type": "uint256"
                },
                {
                  "internalType": "uint256",
                  "name": "principalDeployedAtLastCheckpoint",
                  "type": "uint256"
                },
                {
                  "internalType": "uint256",
                  "name": "accumulatedRewardsPerTokenAtDrawdown",
                  "type": "uint256"
                },
                {
                  "internalType": "uint256",
                  "name": "accumulatedRewardsPerTokenAtLastCheckpoint",
                  "type": "uint256"
                },
                {
                  "internalType": "uint256",
                  "name": "unrealizedAccumulatedRewardsPerTokenAtLastCheckpoint",
                  "type": "uint256"
                }
              ],
              "internalType": "struct IBackerRewards.StakingRewardsSliceInfo[]",
              "name": "slicesInfo",
              "type": "tuple[]"
            }
          ],
          "internalType": "struct IBackerRewards.StakingRewardsPoolInfo",
          "name": "",
          "type": "tuple"
        }
      ],
      "stateMutability": "view",
      "type": "function"
    },
    {
      "inputs": [
        {
          "internalType": "bytes32",
          "name": "role",
          "type": "bytes32"
        }
      ],
      "name": "getRoleAdmin",
      "outputs": [
        {
          "internalType": "bytes32",
          "name": "",
          "type": "bytes32"
        }
      ],
      "stateMutability": "view",
      "type": "function"
    },
    {
      "inputs": [
        {
          "internalType": "bytes32",
          "name": "role",
          "type": "bytes32"
        },
        {
          "internalType": "uint256",
          "name": "index",
          "type": "uint256"
        }
      ],
      "name": "getRoleMember",
      "outputs": [
        {
          "internalType": "address",
          "name": "",
          "type": "address"
        }
      ],
      "stateMutability": "view",
      "type": "function"
    },
    {
      "inputs": [
        {
          "internalType": "bytes32",
          "name": "role",
          "type": "bytes32"
        }
      ],
      "name": "getRoleMemberCount",
      "outputs": [
        {
          "internalType": "uint256",
          "name": "",
          "type": "uint256"
        }
      ],
      "stateMutability": "view",
      "type": "function"
    },
    {
      "inputs": [
        {
          "internalType": "uint256",
          "name": "poolTokenId",
          "type": "uint256"
        }
      ],
      "name": "getStakingRewardsTokenInfo",
      "outputs": [
        {
          "components": [
            {
              "internalType": "uint256",
              "name": "accumulatedRewardsPerTokenAtLastWithdraw",
              "type": "uint256"
            }
          ],
          "internalType": "struct IBackerRewards.StakingRewardsTokenInfo",
          "name": "",
          "type": "tuple"
        }
      ],
      "stateMutability": "view",
      "type": "function"
    },
    {
      "inputs": [
        {
          "internalType": "uint256",
          "name": "poolTokenId",
          "type": "uint256"
        }
      ],
      "name": "getTokenInfo",
      "outputs": [
        {
          "components": [
            {
              "internalType": "uint256",
              "name": "rewardsClaimed",
              "type": "uint256"
            },
            {
              "internalType": "uint256",
              "name": "accRewardsPerPrincipalDollarAtMint",
              "type": "uint256"
            }
          ],
          "internalType": "struct IBackerRewards.BackerRewardsTokenInfo",
          "name": "",
          "type": "tuple"
        }
      ],
      "stateMutability": "view",
      "type": "function"
    },
    {
      "inputs": [
        {
          "internalType": "bytes32",
          "name": "role",
          "type": "bytes32"
        },
        {
          "internalType": "address",
          "name": "account",
          "type": "address"
        }
      ],
      "name": "grantRole",
      "outputs": [],
      "stateMutability": "nonpayable",
      "type": "function"
    },
    {
      "inputs": [
        {
          "internalType": "bytes32",
          "name": "role",
          "type": "bytes32"
        },
        {
          "internalType": "address",
          "name": "account",
          "type": "address"
        }
      ],
      "name": "hasRole",
      "outputs": [
        {
          "internalType": "bool",
          "name": "",
          "type": "bool"
        }
      ],
      "stateMutability": "view",
      "type": "function"
    },
    {
      "inputs": [],
      "name": "isAdmin",
      "outputs": [
        {
          "internalType": "bool",
          "name": "",
          "type": "bool"
        }
      ],
      "stateMutability": "view",
      "type": "function"
    },
    {
      "inputs": [],
      "name": "maxInterestDollarsEligible",
      "outputs": [
        {
          "internalType": "uint256",
          "name": "",
          "type": "uint256"
        }
      ],
      "stateMutability": "view",
      "type": "function"
    },
    {
      "inputs": [
        {
          "internalType": "uint256",
          "name": "_sliceIndex",
          "type": "uint256"
        }
      ],
      "name": "onTranchedPoolDrawdown",
      "outputs": [],
      "stateMutability": "nonpayable",
      "type": "function"
    },
    {
      "inputs": [],
      "name": "pause",
      "outputs": [],
      "stateMutability": "nonpayable",
      "type": "function"
    },
    {
      "inputs": [],
      "name": "paused",
      "outputs": [
        {
          "internalType": "bool",
          "name": "",
          "type": "bool"
        }
      ],
      "stateMutability": "view",
      "type": "function"
    },
    {
      "inputs": [
        {
          "internalType": "contract ITranchedPool",
          "name": "",
          "type": "address"
        }
      ],
      "name": "poolStakingRewards",
      "outputs": [
        {
          "internalType": "uint256",
          "name": "accumulatedRewardsPerTokenAtLastCheckpoint",
          "type": "uint256"
        },
        {
          "internalType": "uint256",
          "name": "lastUpdateTime",
          "type": "uint256"
        }
      ],
      "stateMutability": "view",
      "type": "function"
    },
    {
      "inputs": [
        {
          "internalType": "uint256",
          "name": "tokenId",
          "type": "uint256"
        }
      ],
      "name": "poolTokenClaimableRewards",
      "outputs": [
        {
          "internalType": "uint256",
          "name": "",
          "type": "uint256"
        }
      ],
      "stateMutability": "view",
      "type": "function"
    },
    {
      "inputs": [
        {
          "internalType": "address",
          "name": "",
          "type": "address"
        }
      ],
      "name": "pools",
      "outputs": [
        {
          "internalType": "uint256",
          "name": "accRewardsPerPrincipalDollar",
          "type": "uint256"
        }
      ],
      "stateMutability": "view",
      "type": "function"
    },
    {
      "inputs": [
        {
          "internalType": "bytes32",
          "name": "role",
          "type": "bytes32"
        },
        {
          "internalType": "address",
          "name": "account",
          "type": "address"
        }
      ],
      "name": "renounceRole",
      "outputs": [],
      "stateMutability": "nonpayable",
      "type": "function"
    },
    {
      "inputs": [
        {
          "internalType": "bytes32",
          "name": "role",
          "type": "bytes32"
        },
        {
          "internalType": "address",
          "name": "account",
          "type": "address"
        }
      ],
      "name": "revokeRole",
      "outputs": [],
      "stateMutability": "nonpayable",
      "type": "function"
    },
    {
      "inputs": [
        {
          "components": [
            {
              "internalType": "uint256",
              "name": "rewardsClaimed",
              "type": "uint256"
            },
            {
              "internalType": "uint256",
              "name": "accRewardsPerPrincipalDollarAtMint",
              "type": "uint256"
            }
          ],
          "internalType": "struct IBackerRewards.BackerRewardsTokenInfo",
          "name": "originalBackerRewardsTokenInfo",
          "type": "tuple"
        },
        {
          "components": [
            {
              "internalType": "uint256",
              "name": "accumulatedRewardsPerTokenAtLastWithdraw",
              "type": "uint256"
            }
          ],
          "internalType": "struct IBackerRewards.StakingRewardsTokenInfo",
          "name": "originalStakingRewardsTokenInfo",
          "type": "tuple"
        },
        {
          "internalType": "uint256",
          "name": "newTokenId",
          "type": "uint256"
        },
        {
          "internalType": "uint256",
          "name": "newRewardsClaimed",
          "type": "uint256"
        }
      ],
      "name": "setBackerAndStakingRewardsTokenInfoOnSplit",
      "outputs": [],
      "stateMutability": "nonpayable",
      "type": "function"
    },
    {
      "inputs": [
        {
          "internalType": "uint256",
          "name": "_maxInterestDollarsEligible",
          "type": "uint256"
        }
      ],
      "name": "setMaxInterestDollarsEligible",
      "outputs": [],
      "stateMutability": "nonpayable",
      "type": "function"
    },
    {
      "inputs": [
        {
          "internalType": "address",
          "name": "poolAddress",
          "type": "address"
        },
        {
          "internalType": "uint256",
          "name": "tokenId",
          "type": "uint256"
        }
      ],
      "name": "setPoolTokenAccRewardsPerPrincipalDollarAtMint",
      "outputs": [],
      "stateMutability": "nonpayable",
      "type": "function"
    },
    {
      "inputs": [
        {
          "internalType": "uint256",
          "name": "_totalInterestReceived",
          "type": "uint256"
        }
      ],
      "name": "setTotalInterestReceived",
      "outputs": [],
      "stateMutability": "nonpayable",
      "type": "function"
    },
    {
      "inputs": [
        {
          "internalType": "uint256",
          "name": "_totalRewards",
          "type": "uint256"
        }
      ],
      "name": "setTotalRewards",
      "outputs": [],
      "stateMutability": "nonpayable",
      "type": "function"
    },
    {
      "inputs": [
        {
          "internalType": "uint256",
          "name": "tokenId",
          "type": "uint256"
        }
      ],
      "name": "stakingRewardsClaimed",
      "outputs": [
        {
          "internalType": "uint256",
          "name": "",
          "type": "uint256"
        }
      ],
      "stateMutability": "view",
      "type": "function"
    },
    {
      "inputs": [
        {
          "internalType": "uint256",
          "name": "tokenId",
          "type": "uint256"
        }
      ],
      "name": "stakingRewardsEarnedSinceLastWithdraw",
      "outputs": [
        {
          "internalType": "uint256",
          "name": "",
          "type": "uint256"
        }
      ],
      "stateMutability": "view",
      "type": "function"
    },
    {
      "inputs": [
        {
          "internalType": "uint256",
          "name": "",
          "type": "uint256"
        }
      ],
      "name": "tokenStakingRewards",
      "outputs": [
        {
          "internalType": "uint256",
          "name": "accumulatedRewardsPerTokenAtLastWithdraw",
          "type": "uint256"
        }
      ],
      "stateMutability": "view",
      "type": "function"
    },
    {
      "inputs": [
        {
          "internalType": "uint256",
          "name": "",
          "type": "uint256"
        }
      ],
      "name": "tokens",
      "outputs": [
        {
          "internalType": "uint256",
          "name": "rewardsClaimed",
          "type": "uint256"
        },
        {
          "internalType": "uint256",
          "name": "accRewardsPerPrincipalDollarAtMint",
          "type": "uint256"
        }
      ],
      "stateMutability": "view",
      "type": "function"
    },
    {
      "inputs": [],
      "name": "totalInterestReceived",
      "outputs": [
        {
          "internalType": "uint256",
          "name": "",
          "type": "uint256"
        }
      ],
      "stateMutability": "view",
      "type": "function"
    },
    {
      "inputs": [],
      "name": "totalRewardPercentOfTotalGFI",
      "outputs": [
        {
          "internalType": "uint256",
          "name": "",
          "type": "uint256"
        }
      ],
      "stateMutability": "view",
      "type": "function"
    },
    {
      "inputs": [],
      "name": "totalRewards",
      "outputs": [
        {
          "internalType": "uint256",
          "name": "",
          "type": "uint256"
        }
      ],
      "stateMutability": "view",
      "type": "function"
    },
    {
      "inputs": [],
      "name": "unpause",
      "outputs": [],
      "stateMutability": "nonpayable",
      "type": "function"
    },
    {
      "inputs": [
        {
          "internalType": "uint256",
          "name": "tokenId",
          "type": "uint256"
        }
      ],
      "name": "withdraw",
      "outputs": [
        {
          "internalType": "uint256",
          "name": "",
          "type": "uint256"
        }
      ],
      "stateMutability": "nonpayable",
      "type": "function"
    },
    {
      "inputs": [
        {
          "internalType": "uint256[]",
          "name": "tokenIds",
          "type": "uint256[]"
        }
      ],
      "name": "withdrawMultiple",
      "outputs": [],
      "stateMutability": "nonpayable",
      "type": "function"
    }
  ],
  "transactionHash": "0x60656bd118ec498d98af68770226c35cd07d9b3210282fd4ac0078dfd342ec6d",
  "args": [],
  "numDeployments": 3,
  "solcInputHash": "91110cc6c32214fe98c136f8893a17cf",
  "bytecode": "0x608060405234801561001057600080fd5b50613c29806100206000396000f3fe608060405234801561001057600080fd5b506004361061025e5760003560e01c806371d5a25311610146578063b6db75a0116100c3578063d547741f11610087578063d547741f146104f0578063dfc1f3a814610503578063e149ee8014610523578063e58378bb14610536578063e5b791061461053e578063e63ab1e9146105515761025e565b8063b6db75a01461049a578063b6f8fd40146104a2578063ca15c873146104b5578063ccf5a971146104c8578063d3d64722146104d05761025e565b80639010d07c1161010a5780639010d07c1461044657806391d1485414610459578063927356751461046c578063a217fddf1461047f578063a4063dbc146104875761025e565b806371d5a253146103ee57806379502c55146104015780638456cb591461041657806387f5769e1461041e5780638c7a63ae146104265761025e565b80632f2ff15d116101df5780634f64b2be116101a35780634f64b2be14610385578063526d81f6146103985780635c975abb146103a05780635e3f5d64146103b55780635f464bb2146103c85780636efbe643146103db5761025e565b80632f2ff15d1461032357806334cbd4581461033657806336568abe14610357578063369dfa841461036a5780633f4ba83a1461037d5761025e565b8063248a9ca311610226578063248a9ca3146102c45780632808e69e146102d75780632879e4de146102ea57806328fc33c7146102fd5780632e1a7d4d146103105761025e565b8063097616a3146102635780630c9dbe94146102785780630de74932146102965780630e15561a146102a9578063242a7286146102b1575b600080fd5b61027661027136600461315c565b610559565b005b610280610692565b60405161028d9190613404565b60405180910390f35b6102806102a4366004613286565b610699565b610280610928565b6102766102bf366004613286565b61092f565b6102806102d2366004613286565b6109a4565b6102806102e5366004613286565b6109b9565b6102766102f8366004613286565b610c3e565b61027661030b366004613286565b610ca8565b61028061031e366004613286565b610da7565b61027661033136600461329e565b611324565b61034961034436600461315c565b611368565b60405161028d929190613b69565b61027661036536600461329e565b611382565b610280610378366004613286565b6113c4565b610276611514565b610349610393366004613286565b611554565b61027661156e565b6103a86115f9565b60405161028d91906133f9565b6102766103c33660046132e3565b611602565b6102806103d6366004613286565b61168b565b6102766103e93660046131cc565b61169e565b6102766103fc366004613286565b6118bd565b610409611929565b60405161028d91906133cc565b610276611939565b610280611977565b610439610434366004613286565b61197e565b60405161028d9190613abb565b6104096104543660046132c2565b6119b1565b6103a861046736600461329e565b6119d2565b61027661047a366004613286565b6119ea565b610280611b0f565b61028061049536600461315c565b611b14565b6103a8611b27565b6102766104b0366004613194565b611b48565b6102806104c3366004613286565b611c2e565b610280611c45565b6104e36104de36600461315c565b611c4c565b60405161028d9190613ad2565b6102766104fe36600461329e565b611d30565b610516610511366004613286565b611d6a565b60405161028d9190613b5f565b610276610531366004613286565b611d95565b610280611e6b565b61027661054c3660046131f7565b611e7d565b610280611ec9565b600054610100900460ff16806105725750610572611edb565b80610580575060005460ff16155b6105a55760405162461bcd60e51b815260040161059c90613864565b60405180910390fd5b600054610100900460ff161580156105d0576000805460ff1961ff0019909116610100171660011790555b6001600160a01b0382166105f65760405162461bcd60e51b815260040161059c906137ca565b6105fe611ee1565b610606611f62565b61060e611fee565b610626600080516020613bb48339815191528361135e565b61063e600080516020613bd48339815191528361135e565b610664600080516020613bd4833981519152600080516020613bb483398151915261207d565b61067c600080516020613bb48339815191528061207d565b801561068e576000805461ff00191690555b5050565b6101c75481565b60006106a36130a7565b6101c3546106b9906001600160a01b0316612092565b6001600160a01b0316638c7a63ae846040518263ffffffff1660e01b81526004016106e49190613404565b60a06040518083038186803b1580156106fc57600080fd5b505afa158015610710573d6000803e3d6000fd5b505050506040513d601f19601f820116820180604052508101906107349190613358565b905061073f8161209d565b1561074e576000915050610923565b80516020820151600090610761906120b9565b905061076c826120cb565b158061077f575061077d82826121bd565b155b156107905760009350505050610923565b6107986130df565b6101ca6000846001600160a01b03166001600160a01b03168152602001908152602001600020604051806060016040529081600082015481526020016001820154815260200160028201805480602002602001604051908101604052809291908181526020016000905b8282101561086657838290600052602060002090600502016040518060a00160405290816000820154815260200160018201548152602001600282015481526020016003820154815260200160048201548152505081526020019060010190610802565b50505050815250509050610878613100565b8160400151838151811061088857fe5b6020026020010151905061089a61312f565b5060008781526101cb602090815260408083208151928301909152548152906108c383856122d7565b905060006108d18385612315565b905060006108df838361237f565b905060006108f58a60400151876000015161239b565b90506000610915670de0b6b3a764000061090f84866123b6565b906123dd565b9b5050505050505050505050505b919050565b6101c45481565b610937611b27565b6109535760405162461bcd60e51b815260040161059c9061398d565b6101c58190556109616123f9565b6001600160a01b03167fbd23f227ee01d5b74d28337b4aa192bdb10824b0f2ad21e725a2f08af91ec81b826040516109999190613404565b60405180910390a250565b60009081526065602052604090206002015490565b6101c35460009081906109d4906001600160a01b0316612092565b90506109de6130a7565b60405163463d31d760e11b81526001600160a01b03831690638c7a63ae90610a0a908790600401613404565b60a06040518083038186803b158015610a2257600080fd5b505afa158015610a36573d6000803e3d6000fd5b505050506040513d601f19601f82011682018060405250810190610a5a9190613358565b9050610a658161209d565b15610a7557600092505050610923565b80516020820151600090610a88906120b9565b9050610a93826120cb565b1580610aa65750610aa482826121bd565b155b15610ab8576000945050505050610923565b610ac06130df565b6101ca6000846001600160a01b03166001600160a01b03168152602001908152602001600020604051806060016040529081600082015481526020016001820154815260200160028201805480602002602001604051908101604052809291908181526020016000905b82821015610b8e57838290600052602060002090600502016040518060a00160405290816000820154815260200160018201548152602001600282015481526020016003820154815260200160048201548152505081526020019060010190610b2a565b50505050815250509050610ba0613100565b81604001518381518110610bb057fe5b60200260200101519050610bc261312f565b5060008881526101cb60209081526040808320815192830182525482528301519091610bee8385612315565b90506000610bfc828461237f565b90506000610c128a60400151876000015161239b565b90506000610c2c670de0b6b3a764000061090f84866123b6565b9e9d5050505050505050505050505050565b610c46611b27565b610c625760405162461bcd60e51b815260040161059c9061398d565b6101c6819055610c706123f9565b6001600160a01b03167feabaa681e9990f0da888d0feb7ec727809a7e832013b120a9a248ba6b16d5f44826040516109999190613404565b6101c354610cbe906001600160a01b0316612092565b6001600160a01b031663b5ada6d8610cd46123f9565b6040518263ffffffff1660e01b8152600401610cf091906133cc565b60206040518083038186803b158015610d0857600080fd5b505afa158015610d1c573d6000803e3d6000fd5b505050506040513d601f19601f82011682018060405250810190610d409190613266565b610d5c5760405162461bcd60e51b815260040161059c90613657565b60c95460ff16610d7e5760405162461bcd60e51b815260040161059c90613956565b60c9805460ff191690558015610d9757610d97816123fd565b5060c9805460ff19166001179055565b60975460009060ff1615610dcd5760405162461bcd60e51b815260040161059c90613769565b60c95460ff16610def5760405162461bcd60e51b815260040161059c90613956565b60c9805460ff191690556101c354600090610e12906001600160a01b0316612092565b9050610e1c6130a7565b60405163463d31d760e11b81526001600160a01b03831690638c7a63ae90610e48908790600401613404565b60a06040518083038186803b158015610e6057600080fd5b505afa158015610e74573d6000803e3d6000fd5b505050506040513d601f19601f82011682018060405250810190610e989190613358565b80516101c35491925090610eb4906001600160a01b0316612092565b6001600160a01b031663b5ada6d8826040518263ffffffff1660e01b8152600401610edf91906133cc565b60206040518083038186803b158015610ef757600080fd5b505afa158015610f0b573d6000803e3d6000fd5b505050506040513d601f19601f82011682018060405250810190610f2f9190613266565b610f4b5760405162461bcd60e51b815260040161059c90613657565b6040516331a9108f60e11b81526001600160a01b03841690636352211e90610f77908890600401613404565b60206040518083038186803b158015610f8f57600080fd5b505afa158015610fa3573d6000803e3d6000fd5b505050506040513d601f19601f82011682018060405250810190610fc79190613178565b6001600160a01b0316336001600160a01b031614610ff75760405162461bcd60e51b815260040161059c906137ff565b6000819050806001600160a01b0316635c975abb6040518163ffffffff1660e01b815260040160206040518083038186803b15801561103557600080fd5b505afa158015611049573d6000803e3d6000fd5b505050506040513d601f19601f8201168201806040525081019061106d9190613266565b1561108a5760405162461bcd60e51b815260040161059c90613836565b6000829050806001600160a01b03166347195e136040518163ffffffff1660e01b815260040160206040518083038186803b1580156110c857600080fd5b505afa1580156110dc573d6000803e3d6000fd5b505050506040513d601f19601f820116820180604052508101906111009190613178565b6001600160a01b03166381c17a156040518163ffffffff1660e01b815260040160206040518083038186803b15801561113857600080fd5b505afa15801561114c573d6000803e3d6000fd5b505050506040513d601f19601f820116820180604052508101906111709190613266565b1561118d5760405162461bcd60e51b815260040161059c90613607565b6111968461209d565b156111b35760405162461bcd60e51b815260040161059c90613a27565b60006111be886113c4565b905060006111cb89610699565b905060006111d98383612545565b60008b81526101c860205260409020549091506111f68185612545565b60008c81526101c860205260409020558215611215576112158b612557565b6040516331a9108f60e11b81526112bd906001600160a01b038b1690636352211e90611245908f90600401613404565b60206040518083038186803b15801561125d57600080fd5b505afa158015611271573d6000803e3d6000fd5b505050506040513d601f19601f820116820180604052508101906112959190613178565b6101c35484906112ad906001600160a01b03166127a7565b6001600160a01b031691906127b2565b8a6112c66123f9565b6001600160a01b03167ff282434f7158cb3a5501455a72b1946fe84ef5f1e84350beae1f3bf45ffc583e8686604051611300929190613b69565b60405180910390a35097505050505050505060c9805460ff19166001179055919050565b600082815260656020526040902060020154611342906104676123f9565b61135e5760405162461bcd60e51b815260040161059c906134ef565b61068e82826127cd565b6101ca602052600090815260409020805460019091015482565b61138a6123f9565b6001600160a01b0316816001600160a01b0316146113ba5760405162461bcd60e51b815260040161059c906139d8565b61068e8282612836565b6101c35460009081906113df906001600160a01b0316612092565b90506113e96130a7565b60405163463d31d760e11b81526001600160a01b03831690638c7a63ae90611415908790600401613404565b60a06040518083038186803b15801561142d57600080fd5b505afa158015611441573d6000803e3d6000fd5b505050506040513d601f19601f820116820180604052508101906114659190613358565b90506114708161209d565b1561148057600092505050610923565b60008481526101c8602090815260408083206001015484516001600160a01b031684526101c99092528220546114b59161237f565b60008681526101c86020526040812054919250906114db90670de0b6b3a76400006123b6565b905061150a670de0b6b3a764000061090f83611504866114fe896040015161289f565b906123b6565b9061237f565b9695505050505050565b61152e600080516020613bd48339815191526104676123f9565b61154a5760405162461bcd60e51b815260040161059c906138b2565b6115526128ba565b565b6101c8602052600090815260409020805460019091015482565b600054610100900460ff16806115875750611587611edb565b80611595575060005460ff16155b6115b15760405162461bcd60e51b815260040161059c90613864565b600054610100900460ff161580156115dc576000805460ff1961ff0019909116610100171660011790555b6115e4611f62565b80156115f6576000805461ff00191690555b50565b60975460ff1690565b6101c354611618906001600160a01b0316612092565b6001600160a01b0316336001600160a01b0316146116485760405162461bcd60e51b815260040161059c906138f7565b60408051808201825291825260209485015185830190815260009384526101c8865281842092518355516001909201919091556101cb9093529190912090519055565b6101cb6020526000908152604090205481565b6101c3546116b4906001600160a01b0316612926565b6001600160a01b03166116c56123f9565b6001600160a01b0316146116eb5760405162461bcd60e51b815260040161059c906138ce565b6101c354611701906001600160a01b0316612092565b6001600160a01b031663b5ada6d8836040518263ffffffff1660e01b815260040161172c91906133cc565b60206040518083038186803b15801561174457600080fd5b505afa158015611758573d6000803e3d6000fd5b505050506040513d601f19601f8201168201806040525081019061177c9190613266565b6117985760405162461bcd60e51b815260040161059c90613657565b60008181526101c86020526040902060010154156117b55761068e565b6101c3546000906117ce906001600160a01b0316612092565b90506117d86130a7565b60405163463d31d760e11b81526001600160a01b03831690638c7a63ae90611804908690600401613404565b60a06040518083038186803b15801561181c57600080fd5b505afa158015611830573d6000803e3d6000fd5b505050506040513d601f19601f820116820180604052508101906118549190613358565b905080600001516001600160a01b0316846001600160a01b03161461188b5760405162461bcd60e51b815260040161059c906134a2565b516001600160a01b031660009081526101c960209081526040808320548584526101c890925290912060010155505050565b6101c3546118d3906001600160a01b0316612092565b6001600160a01b0316336001600160a01b0316146119035760405162461bcd60e51b815260040161059c906138f7565b60009081526101c8602090815260408083208381556001018390556101cb909152812055565b6101c3546001600160a01b031681565b611953600080516020613bd48339815191526104676123f9565b61196f5760405162461bcd60e51b815260040161059c906138b2565b6115526129a6565b6101c65481565b611986613142565b5060009081526101c86020908152604091829020825180840190935280548352600101549082015290565b60008281526065602052604081206119c990836129ff565b90505b92915050565b60008281526065602052604081206119c99083612a0b565b6119f2611b27565b611a0e5760405162461bcd60e51b815260040161059c9061398d565b6101c48190556101c354600090611a2d906001600160a01b03166127a7565b6001600160a01b03166318160ddd6040518163ffffffff1660e01b815260040160206040518083038186803b158015611a6557600080fd5b505afa158015611a79573d6000803e3d6000fd5b505050506040513d601f19601f82011682018060405250810190611a9d91906133b4565b9050611aba60646114fe8361090f86670de0b6b3a76400006123b6565b6101c755611ac66123f9565b6001600160a01b03167fa75d65370da375e8498bef76d6c105c80386c2d14e939f1c680da7f9a411c609836101c754604051611b03929190613b69565b60405180910390a25050565b600081565b6101c96020526000908152604090205481565b6000611b43600080516020613bb48339815191526104676123f9565b905090565b600054610100900460ff1680611b615750611b61611edb565b80611b6f575060005460ff16155b611b8b5760405162461bcd60e51b815260040161059c90613864565b600054610100900460ff16158015611bb6576000805460ff1961ff0019909116610100171660011790555b6001600160a01b03831615801590611bd657506001600160a01b03821615155b611bf25760405162461bcd60e51b815260040161059c9061356c565b611bfb83610559565b6101c380546001600160a01b0319166001600160a01b0384161790558015611c29576000805461ff00191690555b505050565b60008181526065602052604081206119cc90612a20565b6101c55481565b611c546130df565b6101ca6000836001600160a01b03166001600160a01b03168152602001908152602001600020604051806060016040529081600082015481526020016001820154815260200160028201805480602002602001604051908101604052809291908181526020016000905b82821015611d2257838290600052602060002090600502016040518060a00160405290816000820154815260200160018201548152602001600282015481526020016003820154815260200160048201548152505081526020019060010190611cbe565b505050915250909392505050565b600082815260656020526040902060020154611d4e906104676123f9565b6113ba5760405162461bcd60e51b815260040161059c90613719565b611d7261312f565b5060009081526101cb602090815260409182902082519182019092529054815290565b6101c354611dab906001600160a01b0316612092565b6001600160a01b031663b5ada6d8611dc16123f9565b6040518263ffffffff1660e01b8152600401611ddd91906133cc565b60206040518083038186803b158015611df557600080fd5b505afa158015611e09573d6000803e3d6000fd5b505050506040513d601f19601f82011682018060405250810190611e2d9190613266565b611e495760405162461bcd60e51b815260040161059c90613657565b60c95460ff16610d975760405162461bcd60e51b815260040161059c90613956565b600080516020613bb483398151915281565b80611e9a5760405162461bcd60e51b815260040161059c90613793565b60005b81811015611c2957611ec0838383818110611eb457fe5b90506020020135610da7565b50600101611e9d565b600080516020613bd483398151915281565b303b1590565b600054610100900460ff1680611efa5750611efa611edb565b80611f08575060005460ff16155b611f245760405162461bcd60e51b815260040161059c90613864565b600054610100900460ff161580156115e4576000805460ff1961ff00199091166101001716600117905580156115f6576000805461ff001916905550565b600054610100900460ff1680611f7b5750611f7b611edb565b80611f89575060005460ff16155b611fa55760405162461bcd60e51b815260040161059c90613864565b600054610100900460ff16158015611fd0576000805460ff1961ff0019909116610100171660011790555b6097805460ff1916905580156115f6576000805461ff001916905550565b600054610100900460ff16806120075750612007611edb565b80612015575060005460ff16155b6120315760405162461bcd60e51b815260040161059c90613864565b600054610100900460ff1615801561205c576000805460ff1961ff0019909116610100171660011790555b60c9805460ff1916600117905580156115f6576000805461ff001916905550565b60009182526065602052604090912060020155565b60006119cc82612926565b60208101516000906120b0906002612a2b565b60011492915050565b60006119cc600261090f84600161237f565b60006120d56130df565b6101ca6000846001600160a01b03166001600160a01b03168152602001908152602001600020604051806060016040529081600082015481526020016001820154815260200160028201805480602002602001604051908101604052809291908181526020016000905b828210156121a357838290600052602060002090600502016040518060a0016040529081600082015481526020016001820154815260200160028201548152602001600382015481526020016004820154815250508152602001906001019061213f565b505050508152505090506121b681612a47565b9392505050565b60006121c76130df565b6101ca6000856001600160a01b03166001600160a01b03168152602001908152602001600020604051806060016040529081600082015481526020016001820154815260200160028201805480602002602001604051908101604052809291908181526020016000905b8282101561229557838290600052602060002090600502016040518060a00160405290816000820154815260200160018201548152602001600282015481526020016003820154815260200160048201548152505081526020019060010190612231565b50505050815250509050828160400151511180156122cf5750806040015183815181106122be57fe5b602002602001015160800151600014155b949350505050565b80516000906122f85760405162461bcd60e51b815260040161059c9061367e565b6060830151158061230d5783606001516122cf565b505051919050565b600081604001516000141561233c5760405162461bcd60e51b815260040161059c906135b6565b825115801561235157505060408101516119cc565b6040830151845110156123765760405162461bcd60e51b815260040161059c9061391f565b505081516119cc565b60006119c9838360405180602001604052806000815250612a4d565b60006119c98261090f670de0b6b3a76400006114fe8761289f565b6000826123c5575060006119cc565b828202828482816123d257fe5b04146119c957600080fd5b60006119c9838360405180602001604052806000815250612a79565b3390565b6101c6546101c55461240e8261289f565b1061241957506115f6565b60006124236123f9565b9050600061243084612ab0565b6001600160a01b03831660008181526101c960209081526040808320815163dd0ec24160e01b81529151959650879590946124c593909263dd0ec2419260048083019392829003018186803b15801561248857600080fd5b505afa15801561249c573d6000803e3d6000fd5b505050506040513d601f19601f820116820180604052508101906124c091906133b4565b61289f565b9050670de0b6b3a764000081101561250b576040517f75a25907c86842cd8f301fe24ccf300b65e4b0f91b7fe55286a7d0ec33a2490e90600090a15050505050506115f6565b61252c6125248261090f87670de0b6b3a76400006123b6565b835490612545565b82556125388688612545565b6101c65550505050505050565b6000828201838110156119c957600080fd5b6101c354600090612570906001600160a01b0316612092565b905061257a6130a7565b60405163463d31d760e11b81526001600160a01b03831690638c7a63ae906125a6908690600401613404565b60a06040518083038186803b1580156125be57600080fd5b505afa1580156125d2573d6000803e3d6000fd5b505050506040513d601f19601f820116820180604052508101906125f69190613358565b90506126018161209d565b1561261e5760405162461bcd60e51b815260040161059c90613a27565b80516126286130df565b6101ca6000836001600160a01b03166001600160a01b03168152602001908152602001600020604051806060016040529081600082015481526020016001820154815260200160028201805480602002602001604051908101604052809291908181526020016000905b828210156126f657838290600052602060002090600502016040518060a00160405290816000820154815260200160018201548152602001600282015481526020016003820154815260200160048201548152505081526020019060010190612692565b50505050815250509050600061270f84602001516120b9565b9050612719613100565b8260400151828151811061272957fe5b60200260200101519050600061273f82856122d7565b60008981526101cb602052604090205490915081101561278e576040517f75a25907c86842cd8f301fe24ccf300b65e4b0f91b7fe55286a7d0ec33a2490e90600090a1505050505050506115f6565b60008881526101cb602052604090205550505050505050565b60006119cc82612c8c565b611c2983838360405180602001604052806000815250612ca4565b60008281526065602052604090206127e59082612d76565b1561068e576127f26123f9565b6001600160a01b0316816001600160a01b0316837f2f8788117e7eff1d82e926ec794901d17c78024a50270940304540a733656f0d60405160405180910390a45050565b600082815260656020526040902061284e9082612d8b565b1561068e5761285b6123f9565b6001600160a01b0316816001600160a01b0316837ff6391f5c32d9c69d2a47ea670b442974b53935d1edc7fd64eb21e047a839171b60405160405180910390a45050565b60006119cc620f424061090f84670de0b6b3a76400006123b6565b60975460ff166128dc5760405162461bcd60e51b815260040161059c9061353e565b6097805460ff191690557f5db9ee0a495bf2e6ff9c91a7834c1ba4fdd244a5e8aa4e537bd38aeae4b073aa61290f6123f9565b60405161291c91906133cc565b60405180910390a1565b60006001600160a01b03821663b93f9b0a600c5b6040518263ffffffff1660e01b81526004016129569190613404565b60206040518083038186803b15801561296e57600080fd5b505afa158015612982573d6000803e3d6000fd5b505050506040513d601f19601f820116820180604052508101906119cc9190613178565b60975460ff16156129c95760405162461bcd60e51b815260040161059c90613769565b6097805460ff191660011790557f62e78cea01bee320cd4e420270b5ea74000d11b0c9f74754ebdbfc544b05a25861290f6123f9565b60006119c98383612da0565b60006119c9836001600160a01b038416612de5565b60006119cc82612dfd565b60006119c9838360405180602001604052806000815250612e01565b51151590565b60008184841115612a715760405162461bcd60e51b815260040161059c919061340d565b505050900390565b60008183612a9a5760405162461bcd60e51b815260040161059c919061340d565b506000838581612aa657fe5b0495945050505050565b6101c3546000908190612acb906001600160a01b03166127a7565b6001600160a01b03166318160ddd6040518163ffffffff1660e01b815260040160206040518083038186803b158015612b0357600080fd5b505afa158015612b17573d6000803e3d6000fd5b505050506040513d601f19601f82011682018060405250810190612b3b91906133b4565b90506000612b488461289f565b90506000612b586101c65461289f565b90506000612b6582612e35565b90506000612b876124c0612b7886612f76565b612b8186612f76565b90612545565b90506101c554811115612b9a57506101c5545b6000612ba98361150484612e35565b90506000612bb96101c554612e35565b905060008111612bdb5760405162461bcd60e51b815260040161059c906136ce565b6000612c0c670de0b6b3a764000061090f8a6114fe606461090f8861090f6101c7548c6123b690919063ffffffff16565b90506000612c54670de0b6b3a764000061090f8b6114fe606461090f8961090f6101c7546114fe612c4f670de0b6b3a764000060016123b690919063ffffffff16565b612e35565b9050612c6081866123b6565b8210612c7e5760405162461bcd60e51b815260040161059c90613a5e565b509998505050505050505050565b60006001600160a01b03821663b93f9b0a601261293a565b6001600160a01b038316612cca5760405162461bcd60e51b815260040161059c90613639565b60405163a9059cbb60e01b81526000906001600160a01b0386169063a9059cbb90612cfb90879087906004016133e0565b602060405180830381600087803b158015612d1557600080fd5b505af1158015612d29573d6000803e3d6000fd5b505050506040513d601f19601f82011682018060405250810190612d4d9190613266565b90508181612d6e5760405162461bcd60e51b815260040161059c919061340d565b505050505050565b60006119c9836001600160a01b038416612f97565b60006119c9836001600160a01b038416612fe1565b81546000908210612dc35760405162461bcd60e51b815260040161059c90613460565b826000018281548110612dd257fe5b9060005260206000200154905092915050565b60009081526001919091016020526040902054151590565b5490565b60008183612e225760405162461bcd60e51b815260040161059c919061340d565b50828481612e2c57fe5b06949350505050565b600081612e4457506000610923565b816001600160801b8210612e5d5760809190911c9060401b5b600160401b8210612e735760409190911c9060201b5b6401000000008210612e8a5760209190911c9060101b5b620100008210612e9f5760109190911c9060081b5b6101008210612eb35760089190911c9060041b5b60108210612ec65760049190911c9060021b5b60088210612ed25760011b5b6001818581612edd57fe5b048201901c90506001818581612eef57fe5b048201901c90506001818581612f0157fe5b048201901c90506001818581612f1357fe5b048201901c90506001818581612f2557fe5b048201901c90506001818581612f3757fe5b048201901c90506001818581612f4957fe5b048201901c90506000818581612f5b57fe5b049050808210612f6b5780612f6d565b815b95945050505050565b60006119cc612f90670de0b6b3a7640000620f42406123dd565b83906123dd565b6000612fa38383612de5565b612fd9575081546001818101845560008481526020808220909301849055845484825282860190935260409020919091556119cc565b5060006119cc565b6000818152600183016020526040812054801561309d578354600019808301919081019060009087908390811061301457fe5b906000526020600020015490508087600001848154811061303157fe5b60009182526020808320909101929092558281526001898101909252604090209084019055865487908061306157fe5b600190038181906000526020600020016000905590558660010160008781526020019081526020016000206000905560019450505050506119cc565b60009150506119cc565b6040518060a0016040528060006001600160a01b03168152602001600081526020016000815260200160008152602001600081525090565b60405180606001604052806000815260200160008152602001606081525090565b6040518060a0016040528060008152602001600081526020016000815260200160008152602001600081525090565b6040518060200160405280600081525090565b604051806040016040528060008152602001600081525090565b60006020828403121561316d578081fd5b81356119c981613b9e565b600060208284031215613189578081fd5b81516119c981613b9e565b600080604083850312156131a6578081fd5b82356131b181613b9e565b915060208301356131c181613b9e565b809150509250929050565b600080604083850312156131de578182fd5b82356131e981613b9e565b946020939093013593505050565b60008060208385031215613209578182fd5b823567ffffffffffffffff80821115613220578384fd5b818501915085601f830112613233578384fd5b813581811115613241578485fd5b8660208083028501011115613254578485fd5b60209290920196919550909350505050565b600060208284031215613277578081fd5b815180151581146119c9578182fd5b600060208284031215613297578081fd5b5035919050565b600080604083850312156132b0578182fd5b8235915060208301356131c181613b9e565b600080604083850312156132d4578182fd5b50508035926020909101359150565b60008060008084860360a08112156132f9578283fd5b6040811215613306578283fd5b6133106040613b77565b8635815260208088013581830152909550603f1982011215613330578283fd5b5061333b6020613b77565b604086013581529396939550505060608301359260800135919050565b600060a08284031215613369578081fd5b61337360a0613b77565b825161337e81613b9e565b80825250602083015160208201526040830151604082015260608301516060820152608083015160808201528091505092915050565b6000602082840312156133c5578081fd5b5051919050565b6001600160a01b0391909116815260200190565b6001600160a01b03929092168252602082015260400190565b901515815260200190565b90815260200190565b6000602080835283518082850152825b818110156134395785810183015185820160400152820161341d565b8181111561344a5783604083870101525b50601f01601f1916929092016040019392505050565b60208082526022908201527f456e756d657261626c655365743a20696e646578206f7574206f6620626f756e604082015261647360f01b606082015260800190565b6020808252602d908201527f506f6f6c41646472657373206d75737420657175616c20506f6f6c546f6b656e60408201526c20706f6f6c206164647265737360981b606082015260800190565b6020808252602f908201527f416363657373436f6e74726f6c3a2073656e646572206d75737420626520616e60408201526e0818591b5a5b881d1bc819dc985b9d608a1b606082015260800190565b60208082526014908201527314185d5cd8589b194e881b9bdd081c185d5cd95960621b604082015260600190565b6020808252602a908201527f4f776e657220616e6420636f6e666967206164647265737365732063616e6e6f6040820152697420626520656d70747960b01b606082015260800190565b60208082526031908201527f756e736166653a20736c69636520616363756d756c61746f72206861736e2774604082015270081899595b881a5b9a5d1a585b1a5e9959607a1b606082015260800190565b602080825260189082015277506f6f6c206973206c617465206f6e207061796d656e747360401b604082015260600190565b6020808252600490820152635a45524f60e01b604082015260600190565b6020808252600d908201526c496e76616c696420706f6f6c2160981b604082015260600190565b60208082526030908201527f756e736166653a20706f6f6c20616363756d756c61746f72206861736e27742060408201526f1899595b881a5b9a5d1a585b1a5e995960821b606082015260800190565b6020808252602b908201527f6d6178496e746572657374446f6c6c617273456c696769626c65206d7573742060408201526a6e6f74206265207a65726f60a81b606082015260800190565b60208082526030908201527f416363657373436f6e74726f6c3a2073656e646572206d75737420626520616e60408201526f2061646d696e20746f207265766f6b6560801b606082015260800190565b60208082526010908201526f14185d5cd8589b194e881c185d5cd95960821b604082015260600190565b6020808252601e908201527f546f6b656e73496473206c656e677468206d757374206e6f7420626520300000604082015260600190565b6020808252818101527f4f776e65722063616e6e6f7420626520746865207a65726f2061646472657373604082015260600190565b6020808252601a908201527f4d757374206265206f776e6572206f6620506f6f6c546f6b656e000000000000604082015260600190565b602080825260149082015273141bdbdb081dda5d1a191c985dc81c185d5cd95960621b604082015260600190565b6020808252602e908201527f436f6e747261637420696e7374616e63652068617320616c726561647920626560408201526d195b881a5b9a5d1a585b1a5e995960921b606082015260800190565b6020808252600290820152614e4160f01b604082015260600190565b6020808252600f908201526e496e76616c69642073656e6465722160881b604082015260600190565b6020808252600e908201526d4e6f7420506f6f6c546f6b656e7360901b604082015260600190565b6020808252601c908201527f556e657870656374656420746f6b656e20616363756d756c61746f7200000000604082015260600190565b6020808252601f908201527f5265656e7472616e637947756172643a207265656e7472616e742063616c6c00604082015260600190565b6020808252602b908201527f4d75737420686176652061646d696e20726f6c6520746f20706572666f726d2060408201526a3a3434b99030b1ba34b7b760a91b606082015260800190565b6020808252602f908201527f416363657373436f6e74726f6c3a2063616e206f6e6c792072656e6f756e636560408201526e103937b632b9903337b91039b2b63360891b606082015260800190565b6020808252601f908201527f496e656c696769626c652073656e696f72207472616e63686520746f6b656e00604082015260600190565b6020808252603d908201527f6e657747726f7373526577617264732063616e6e6f742062652067726561746560408201527f72207468656e20746865206d6178206766692070657220646f6c6c6172000000606082015260800190565b815181526020918201519181019190915260400190565b60006020808352608080840185518386015282860151604081818801528088015191506060808189015283835180865260a09550858a0191508785019450885b81811015613b4f57855180518452898101518a85015285810151868501528481015185850152880151888401529488019491860191600101613b12565b50909a9950505050505050505050565b9051815260200190565b918252602082015260400190565b60405181810167ffffffffffffffff81118282101715613b9657600080fd5b604052919050565b6001600160a01b03811681146115f657600080fdfeb19546dff01e856fb3f010c267a7b1c60363cf8a4664e21cc89c26224620214e65d7a28e3265b37a6474929f336521b332c1681b933f6cb9f3376673440d862aa2646970667358221220638d968d71a439229b070cf1a8457336db410dd9df8e3134861c41b5ca4ccf4164736f6c634300060c0033",
  "devdoc": {
    "kind": "dev",
    "methods": {
      "allocateRewards(uint256)": {
        "params": {
          "_interestPaymentAmount": "Atomic usdc amount of the interest payment"
        }
      },
      "getRoleAdmin(bytes32)": {
        "details": "Returns the admin role that controls `role`. See {grantRole} and {revokeRole}. To change a role's admin, use {_setRoleAdmin}."
      },
      "getRoleMember(bytes32,uint256)": {
        "details": "Returns one of the accounts that have `role`. `index` must be a value between 0 and {getRoleMemberCount}, non-inclusive. Role bearers are not sorted in any particular way, and their ordering may change at any point. WARNING: When using {getRoleMember} and {getRoleMemberCount}, make sure you perform all queries on the same block. See the following https://forum.openzeppelin.com/t/iterating-over-elements-on-enumerableset-in-openzeppelin-contracts/2296[forum post] for more information."
      },
      "getRoleMemberCount(bytes32)": {
        "details": "Returns the number of accounts that have `role`. Can be used together with {getRoleMember} to enumerate all bearers of a role."
      },
      "grantRole(bytes32,address)": {
        "details": "Grants `role` to `account`. If `account` had not been already granted `role`, emits a {RoleGranted} event. Requirements: - the caller must have ``role``'s admin role."
      },
      "hasRole(bytes32,address)": {
        "details": "Returns `true` if `account` has been granted `role`."
      },
      "onTranchedPoolDrawdown(uint256)": {
        "details": "initializes rewards info for the calling TranchedPool if it's the first  drawdown for the given slice",
        "params": {
          "sliceIndex": "index of the tranched pool slice"
        }
      },
      "pause()": {
        "details": "Pauses all functions guarded by Pause See {Pausable-_pause}. Requirements: - the caller must have the PAUSER_ROLE."
      },
      "paused()": {
        "details": "Returns true if the contract is paused, and false otherwise."
      },
      "poolTokenClaimableRewards(uint256)": {
        "params": {
          "tokenId": "Pool token id"
        },
        "returns": {
          "_0": "The amount of GFI claimable"
        }
      },
      "renounceRole(bytes32,address)": {
        "details": "Revokes `role` from the calling account. Roles are often managed via {grantRole} and {revokeRole}: this function's purpose is to provide a mechanism for accounts to lose their privileges if they are compromised (such as when a trusted device is misplaced). If the calling account had been granted `role`, emits a {RoleRevoked} event. Requirements: - the caller must be `account`."
      },
      "revokeRole(bytes32,address)": {
        "details": "Revokes `role` from `account`. If `account` had been granted `role`, emits a {RoleRevoked} event. Requirements: - the caller must have ``role``'s admin role."
      },
      "setBackerAndStakingRewardsTokenInfoOnSplit((uint256,uint256),(uint256),uint256,uint256)": {
        "details": "The sum of newRewardsClaimed across the split tokens MUST be equal to (or be very slightly smaller than, in the case of rounding due to integer division) the original token's rewardsClaimed. Furthermore, they must be split proportional to the original and new token's principalAmounts. This impl validates neither of those things because only the pool tokens contract can call it, and it trusts that the PoolTokens contract doesn't call maliciously.",
        "params": {
          "newRewardsClaimed": "rewardsClaimed value for the new token.",
          "newTokenId": "id of one of the tokens in the split",
          "originalBackerRewardsTokenInfo": "backer rewards info for the pool token that was split",
          "originalStakingRewardsTokenInfo": "backer staking rewards info for the pool token that was split"
        }
      },
      "setMaxInterestDollarsEligible(uint256)": {
        "params": {
          "_maxInterestDollarsEligible": "The amount of interest dollars eligible for GFI rewards, expects 10^18 value"
        }
      },
      "setPoolTokenAccRewardsPerPrincipalDollarAtMint(address,uint256)": {
        "params": {
          "poolAddress": "Address of the pool associated with the pool token",
          "tokenId": "Pool token id"
        }
      },
      "setTotalInterestReceived(uint256)": {
        "params": {
          "_totalInterestReceived": "The amount of interest the protocol has received to date, expects 10^6 value"
        }
      },
      "setTotalRewards(uint256)": {
        "params": {
          "_totalRewards": "The amount of GFI rewards available, expects 10^18 value"
        }
      },
      "stakingRewardsClaimed(uint256)": {
        "params": {
          "tokenId": "Pool token id"
        },
        "returns": {
          "_0": "The amount of GFI claimed"
        }
      },
      "stakingRewardsEarnedSinceLastWithdraw(uint256)": {
        "params": {
          "tokenId": "token id to get rewards"
        },
        "returns": {
          "_0": "amount of rewards"
        }
      },
      "unpause()": {
        "details": "Unpauses the contract See {Pausable-_unpause}. Requirements: - the caller must have the Pauser role"
      },
      "withdraw(uint256)": {
        "params": {
          "tokenId": "Pool token id"
        },
        "returns": {
          "_0": "amount of rewards withdrawn"
        }
      },
      "withdrawMultiple(uint256[])": {
        "params": {
          "tokenIds": "Array of pool token id"
        }
      }
    },
    "version": 1
  },
  "userdoc": {
    "events": {
      "SafetyCheckTriggered()": {
        "notice": "Emitted when a safety check fails"
      }
    },
    "kind": "user",
    "methods": {
      "allocateRewards(uint256)": {
        "notice": "Calculates the accRewardsPerPrincipalDollar for a given pool,   when a interest payment is received by the protocol"
      },
      "clearTokenInfo(uint256)": {
        "notice": "Clear all BackerRewards and StakingRewards associated data for `tokenId`"
      },
      "getBackerStakingRewardsPoolInfo(address)": {
        "notice": "Get backer staking rewards for a pool"
      },
      "getStakingRewardsTokenInfo(uint256)": {
        "notice": "Get backer staking rewards metadata for a pool token"
      },
      "getTokenInfo(uint256)": {
        "notice": "Get backer rewards metadata for a pool token"
      },
      "maxInterestDollarsEligible()": {
        "notice": "interest $ eligible for gfi rewards, times 1e18"
      },
      "onTranchedPoolDrawdown(uint256)": {
        "notice": "callback for TranchedPools when they drawdown"
      },
      "poolTokenClaimableRewards(uint256)": {
        "notice": "Calculate the gross available gfi rewards for a PoolToken"
      },
      "setBackerAndStakingRewardsTokenInfoOnSplit((uint256,uint256),(uint256),uint256,uint256)": {
        "notice": "Set BackerRewards and BackerStakingRewards metadata for tokens created by a pool token split."
      },
      "setMaxInterestDollarsEligible(uint256)": {
        "notice": "Set the max dollars across the entire protocol that are eligible for GFI rewards"
      },
      "setPoolTokenAccRewardsPerPrincipalDollarAtMint(address,uint256)": {
        "notice": "When a pool token is minted for multiple drawdowns,   set accRewardsPerPrincipalDollarAtMint to the current accRewardsPerPrincipalDollar price"
      },
      "setTotalInterestReceived(uint256)": {
        "notice": "Set the total interest received to date. This should only be called once on contract deploy."
      },
      "setTotalRewards(uint256)": {
        "notice": "Set the total gfi rewards and the % of total GFI"
      },
      "stakingRewardsClaimed(uint256)": {
        "notice": "Calculates the amount of staking rewards already claimed for a PoolToken. This function is provided for the sake of external (e.g. frontend client) consumption; it is not necessary as an input to the mutative calculations in this contract."
      },
      "stakingRewardsEarnedSinceLastWithdraw(uint256)": {
        "notice": "Returns the amount of staking rewards earned by a given token since the last time its staking rewards were withdrawn."
      },
      "tokenStakingRewards(uint256)": {
        "notice": "Staking rewards info for each pool token"
      },
      "totalInterestReceived()": {
        "notice": "counter of total interest repayments, times 1e6"
      },
      "totalRewardPercentOfTotalGFI()": {
        "notice": "totalRewards/totalGFISupply * 100, times 1e18"
      },
      "totalRewards()": {
        "notice": "total amount of GFI rewards available, times 1e18"
      },
      "withdraw(uint256)": {
        "notice": "PoolToken request to withdraw all allocated rewards"
      },
      "withdrawMultiple(uint256[])": {
        "notice": "PoolToken request to withdraw multiple PoolTokens allocated rewards"
      }
    },
    "version": 1
  },
  "storageLayout": {
    "storage": [
      {
        "astId": 50,
        "contract": "contracts/rewards/BackerRewards.sol:BackerRewards",
        "label": "initialized",
        "offset": 0,
        "slot": "0",
        "type": "t_bool"
      },
      {
        "astId": 53,
        "contract": "contracts/rewards/BackerRewards.sol:BackerRewards",
        "label": "initializing",
        "offset": 1,
        "slot": "0",
        "type": "t_bool"
      },
      {
        "astId": 118,
        "contract": "contracts/rewards/BackerRewards.sol:BackerRewards",
        "label": "______gap",
        "offset": 0,
        "slot": "1",
        "type": "t_array(t_uint256)50_storage"
      },
      {
        "astId": 43,
        "contract": "contracts/rewards/BackerRewards.sol:BackerRewards",
        "label": "__gap",
        "offset": 0,
        "slot": "51",
        "type": "t_array(t_uint256)50_storage"
      },
      {
        "astId": 163,
        "contract": "contracts/rewards/BackerRewards.sol:BackerRewards",
        "label": "_roles",
        "offset": 0,
        "slot": "101",
        "type": "t_mapping(t_bytes32,t_struct(RoleData)159_storage)"
      },
      {
        "astId": 408,
        "contract": "contracts/rewards/BackerRewards.sol:BackerRewards",
        "label": "__gap",
        "offset": 0,
        "slot": "102",
        "type": "t_array(t_uint256)49_storage"
      },
      {
        "astId": 3137,
        "contract": "contracts/rewards/BackerRewards.sol:BackerRewards",
        "label": "_paused",
        "offset": 0,
        "slot": "151",
        "type": "t_bool"
      },
      {
        "astId": 3226,
        "contract": "contracts/rewards/BackerRewards.sol:BackerRewards",
        "label": "__gap",
        "offset": 0,
        "slot": "152",
        "type": "t_array(t_uint256)49_storage"
      },
      {
        "astId": 3235,
        "contract": "contracts/rewards/BackerRewards.sol:BackerRewards",
        "label": "_notEntered",
        "offset": 0,
        "slot": "201",
        "type": "t_bool"
      },
      {
        "astId": 3276,
        "contract": "contracts/rewards/BackerRewards.sol:BackerRewards",
        "label": "__gap",
        "offset": 0,
        "slot": "202",
        "type": "t_array(t_uint256)49_storage"
      },
      {
        "astId": 13299,
        "contract": "contracts/rewards/BackerRewards.sol:BackerRewards",
        "label": "__gap1",
        "offset": 0,
        "slot": "251",
        "type": "t_array(t_uint256)50_storage"
      },
      {
        "astId": 13303,
        "contract": "contracts/rewards/BackerRewards.sol:BackerRewards",
        "label": "__gap2",
        "offset": 0,
        "slot": "301",
        "type": "t_array(t_uint256)50_storage"
      },
      {
        "astId": 13307,
        "contract": "contracts/rewards/BackerRewards.sol:BackerRewards",
        "label": "__gap3",
        "offset": 0,
        "slot": "351",
        "type": "t_array(t_uint256)50_storage"
      },
      {
        "astId": 13311,
        "contract": "contracts/rewards/BackerRewards.sol:BackerRewards",
        "label": "__gap4",
        "offset": 0,
        "slot": "401",
        "type": "t_array(t_uint256)50_storage"
      },
      {
        "astId": 28410,
        "contract": "contracts/rewards/BackerRewards.sol:BackerRewards",
        "label": "config",
        "offset": 0,
        "slot": "451",
        "type": "t_contract(GoldfinchConfig)17192"
      },
      {
        "astId": 28438,
        "contract": "contracts/rewards/BackerRewards.sol:BackerRewards",
        "label": "totalRewards",
        "offset": 0,
        "slot": "452",
        "type": "t_uint256"
      },
      {
        "astId": 28442,
        "contract": "contracts/rewards/BackerRewards.sol:BackerRewards",
        "label": "maxInterestDollarsEligible",
        "offset": 0,
        "slot": "453",
        "type": "t_uint256"
      },
      {
        "astId": 28446,
        "contract": "contracts/rewards/BackerRewards.sol:BackerRewards",
        "label": "totalInterestReceived",
        "offset": 0,
        "slot": "454",
        "type": "t_uint256"
      },
      {
        "astId": 28450,
        "contract": "contracts/rewards/BackerRewards.sol:BackerRewards",
        "label": "totalRewardPercentOfTotalGFI",
        "offset": 0,
        "slot": "455",
        "type": "t_uint256"
      },
      {
        "astId": 28454,
        "contract": "contracts/rewards/BackerRewards.sol:BackerRewards",
        "label": "tokens",
        "offset": 0,
        "slot": "456",
        "type": "t_mapping(t_uint256,t_struct(BackerRewardsTokenInfo)9725_storage)"
      },
      {
        "astId": 28458,
        "contract": "contracts/rewards/BackerRewards.sol:BackerRewards",
        "label": "pools",
        "offset": 0,
        "slot": "457",
        "type": "t_mapping(t_address,t_struct(BackerRewardsInfo)9728_storage)"
      },
      {
        "astId": 28462,
        "contract": "contracts/rewards/BackerRewards.sol:BackerRewards",
        "label": "poolStakingRewards",
        "offset": 0,
        "slot": "458",
        "type": "t_mapping(t_contract(ITranchedPool)11573,t_struct(StakingRewardsPoolInfo)9736_storage)"
      },
      {
        "astId": 28467,
        "contract": "contracts/rewards/BackerRewards.sol:BackerRewards",
        "label": "tokenStakingRewards",
        "offset": 0,
        "slot": "459",
        "type": "t_mapping(t_uint256,t_struct(StakingRewardsTokenInfo)9750_storage)"
      }
    ],
    "types": {
      "t_address": {
        "encoding": "inplace",
        "label": "address",
        "numberOfBytes": "20"
      },
      "t_array(t_bytes32)dyn_storage": {
        "base": "t_bytes32",
        "encoding": "dynamic_array",
        "label": "bytes32[]",
        "numberOfBytes": "32"
      },
      "t_array(t_struct(StakingRewardsSliceInfo)9747_storage)dyn_storage": {
        "base": "t_struct(StakingRewardsSliceInfo)9747_storage",
        "encoding": "dynamic_array",
        "label": "struct IBackerRewards.StakingRewardsSliceInfo[]",
        "numberOfBytes": "32"
      },
      "t_array(t_uint256)49_storage": {
        "base": "t_uint256",
        "encoding": "inplace",
        "label": "uint256[49]",
        "numberOfBytes": "1568"
      },
      "t_array(t_uint256)50_storage": {
        "base": "t_uint256",
        "encoding": "inplace",
        "label": "uint256[50]",
        "numberOfBytes": "1600"
      },
      "t_bool": {
        "encoding": "inplace",
        "label": "bool",
        "numberOfBytes": "1"
      },
      "t_bytes32": {
        "encoding": "inplace",
        "label": "bytes32",
        "numberOfBytes": "32"
      },
      "t_contract(GoldfinchConfig)17192": {
        "encoding": "inplace",
        "label": "contract GoldfinchConfig",
        "numberOfBytes": "20"
      },
      "t_contract(ITranchedPool)11573": {
        "encoding": "inplace",
        "label": "contract ITranchedPool",
        "numberOfBytes": "20"
      },
      "t_mapping(t_address,t_struct(BackerRewardsInfo)9728_storage)": {
        "encoding": "mapping",
        "key": "t_address",
        "label": "mapping(address => struct IBackerRewards.BackerRewardsInfo)",
        "numberOfBytes": "32",
        "value": "t_struct(BackerRewardsInfo)9728_storage"
      },
      "t_mapping(t_bytes32,t_struct(RoleData)159_storage)": {
        "encoding": "mapping",
        "key": "t_bytes32",
        "label": "mapping(bytes32 => struct AccessControlUpgradeSafe.RoleData)",
        "numberOfBytes": "32",
        "value": "t_struct(RoleData)159_storage"
      },
      "t_mapping(t_bytes32,t_uint256)": {
        "encoding": "mapping",
        "key": "t_bytes32",
        "label": "mapping(bytes32 => uint256)",
        "numberOfBytes": "32",
        "value": "t_uint256"
      },
      "t_mapping(t_contract(ITranchedPool)11573,t_struct(StakingRewardsPoolInfo)9736_storage)": {
        "encoding": "mapping",
        "key": "t_contract(ITranchedPool)11573",
        "label": "mapping(contract ITranchedPool => struct IBackerRewards.StakingRewardsPoolInfo)",
        "numberOfBytes": "32",
        "value": "t_struct(StakingRewardsPoolInfo)9736_storage"
      },
      "t_mapping(t_uint256,t_struct(BackerRewardsTokenInfo)9725_storage)": {
        "encoding": "mapping",
        "key": "t_uint256",
        "label": "mapping(uint256 => struct IBackerRewards.BackerRewardsTokenInfo)",
        "numberOfBytes": "32",
        "value": "t_struct(BackerRewardsTokenInfo)9725_storage"
      },
      "t_mapping(t_uint256,t_struct(StakingRewardsTokenInfo)9750_storage)": {
        "encoding": "mapping",
        "key": "t_uint256",
        "label": "mapping(uint256 => struct IBackerRewards.StakingRewardsTokenInfo)",
        "numberOfBytes": "32",
        "value": "t_struct(StakingRewardsTokenInfo)9750_storage"
      },
      "t_struct(AddressSet)2912_storage": {
        "encoding": "inplace",
        "label": "struct EnumerableSet.AddressSet",
        "members": [
          {
            "astId": 2911,
            "contract": "contracts/rewards/BackerRewards.sol:BackerRewards",
            "label": "_inner",
            "offset": 0,
            "slot": "0",
            "type": "t_struct(Set)2732_storage"
          }
        ],
        "numberOfBytes": "64"
      },
      "t_struct(BackerRewardsInfo)9728_storage": {
        "encoding": "inplace",
        "label": "struct IBackerRewards.BackerRewardsInfo",
        "members": [
          {
            "astId": 9727,
            "contract": "contracts/rewards/BackerRewards.sol:BackerRewards",
            "label": "accRewardsPerPrincipalDollar",
            "offset": 0,
            "slot": "0",
            "type": "t_uint256"
          }
        ],
        "numberOfBytes": "32"
      },
      "t_struct(BackerRewardsTokenInfo)9725_storage": {
        "encoding": "inplace",
        "label": "struct IBackerRewards.BackerRewardsTokenInfo",
        "members": [
          {
            "astId": 9722,
            "contract": "contracts/rewards/BackerRewards.sol:BackerRewards",
            "label": "rewardsClaimed",
            "offset": 0,
            "slot": "0",
            "type": "t_uint256"
          },
          {
            "astId": 9724,
            "contract": "contracts/rewards/BackerRewards.sol:BackerRewards",
            "label": "accRewardsPerPrincipalDollarAtMint",
            "offset": 0,
            "slot": "1",
            "type": "t_uint256"
          }
        ],
        "numberOfBytes": "64"
      },
      "t_struct(RoleData)159_storage": {
        "encoding": "inplace",
        "label": "struct AccessControlUpgradeSafe.RoleData",
        "members": [
          {
            "astId": 156,
            "contract": "contracts/rewards/BackerRewards.sol:BackerRewards",
            "label": "members",
            "offset": 0,
            "slot": "0",
            "type": "t_struct(AddressSet)2912_storage"
          },
          {
            "astId": 158,
            "contract": "contracts/rewards/BackerRewards.sol:BackerRewards",
            "label": "adminRole",
            "offset": 0,
            "slot": "2",
            "type": "t_bytes32"
          }
        ],
        "numberOfBytes": "96"
      },
      "t_struct(Set)2732_storage": {
        "encoding": "inplace",
        "label": "struct EnumerableSet.Set",
        "members": [
          {
            "astId": 2727,
            "contract": "contracts/rewards/BackerRewards.sol:BackerRewards",
            "label": "_values",
            "offset": 0,
            "slot": "0",
            "type": "t_array(t_bytes32)dyn_storage"
          },
          {
            "astId": 2731,
            "contract": "contracts/rewards/BackerRewards.sol:BackerRewards",
            "label": "_indexes",
            "offset": 0,
            "slot": "1",
            "type": "t_mapping(t_bytes32,t_uint256)"
          }
        ],
        "numberOfBytes": "64"
      },
      "t_struct(StakingRewardsPoolInfo)9736_storage": {
        "encoding": "inplace",
        "label": "struct IBackerRewards.StakingRewardsPoolInfo",
        "members": [
          {
            "astId": 9730,
            "contract": "contracts/rewards/BackerRewards.sol:BackerRewards",
            "label": "accumulatedRewardsPerTokenAtLastCheckpoint",
            "offset": 0,
            "slot": "0",
            "type": "t_uint256"
          },
          {
            "astId": 9732,
            "contract": "contracts/rewards/BackerRewards.sol:BackerRewards",
            "label": "lastUpdateTime",
            "offset": 0,
            "slot": "1",
            "type": "t_uint256"
          },
          {
            "astId": 9735,
            "contract": "contracts/rewards/BackerRewards.sol:BackerRewards",
            "label": "slicesInfo",
            "offset": 0,
            "slot": "2",
            "type": "t_array(t_struct(StakingRewardsSliceInfo)9747_storage)dyn_storage"
          }
        ],
        "numberOfBytes": "96"
      },
      "t_struct(StakingRewardsSliceInfo)9747_storage": {
        "encoding": "inplace",
        "label": "struct IBackerRewards.StakingRewardsSliceInfo",
        "members": [
          {
            "astId": 9738,
            "contract": "contracts/rewards/BackerRewards.sol:BackerRewards",
            "label": "fiduSharePriceAtDrawdown",
            "offset": 0,
            "slot": "0",
            "type": "t_uint256"
          },
          {
            "astId": 9740,
            "contract": "contracts/rewards/BackerRewards.sol:BackerRewards",
            "label": "principalDeployedAtLastCheckpoint",
            "offset": 0,
            "slot": "1",
            "type": "t_uint256"
          },
          {
            "astId": 9742,
            "contract": "contracts/rewards/BackerRewards.sol:BackerRewards",
            "label": "accumulatedRewardsPerTokenAtDrawdown",
            "offset": 0,
            "slot": "2",
            "type": "t_uint256"
          },
          {
            "astId": 9744,
            "contract": "contracts/rewards/BackerRewards.sol:BackerRewards",
            "label": "accumulatedRewardsPerTokenAtLastCheckpoint",
            "offset": 0,
            "slot": "3",
            "type": "t_uint256"
          },
          {
            "astId": 9746,
            "contract": "contracts/rewards/BackerRewards.sol:BackerRewards",
            "label": "unrealizedAccumulatedRewardsPerTokenAtLastCheckpoint",
            "offset": 0,
            "slot": "4",
            "type": "t_uint256"
          }
        ],
        "numberOfBytes": "160"
      },
      "t_struct(StakingRewardsTokenInfo)9750_storage": {
        "encoding": "inplace",
        "label": "struct IBackerRewards.StakingRewardsTokenInfo",
        "members": [
          {
            "astId": 9749,
            "contract": "contracts/rewards/BackerRewards.sol:BackerRewards",
            "label": "accumulatedRewardsPerTokenAtLastWithdraw",
            "offset": 0,
            "slot": "0",
            "type": "t_uint256"
          }
        ],
        "numberOfBytes": "32"
      },
      "t_uint256": {
        "encoding": "inplace",
        "label": "uint256",
        "numberOfBytes": "32"
      }
    }
  }
}