{
  "address": "0xe7ab44418A0B80ed1748d4A58067EA9DF0d84dfa",
  "abi": [
    {
      "inputs": [
        {
          "internalType": "contract Context",
          "name": "_context",
          "type": "address"
        },
        {
          "internalType": "contract IERC20",
          "name": "_erc20",
          "type": "address"
        }
      ],
      "stateMutability": "nonpayable",
      "type": "constructor"
    },
    {
      "inputs": [],
      "name": "IntraBlockDistribution",
      "type": "error"
    },
    {
      "inputs": [],
      "name": "InvalidReceiver",
      "type": "error"
    },
    {
      "inputs": [],
      "name": "LengthMismatch",
      "type": "error"
    },
    {
      "inputs": [
        {
          "internalType": "address",
          "name": "resource",
          "type": "address"
        },
        {
          "internalType": "address",
          "name": "accessor",
          "type": "address"
        }
      ],
      "name": "RequiresOperator",
      "type": "error"
    },
    {
      "inputs": [],
      "name": "ZeroAddress",
      "type": "error"
    },
    {
      "anonymous": false,
      "inputs": [
        {
          "indexed": false,
          "internalType": "uint256",
          "name": "total",
          "type": "uint256"
        }
      ],
      "name": "Distributed",
      "type": "event"
    },
    {
      "anonymous": false,
      "inputs": [
        {
          "indexed": false,
          "internalType": "address",
          "name": "account",
          "type": "address"
        }
      ],
      "name": "Paused",
      "type": "event"
    },
    {
      "anonymous": false,
      "inputs": [
        {
          "indexed": true,
          "internalType": "address",
          "name": "payee",
          "type": "address"
        },
        {
          "indexed": false,
          "internalType": "uint256",
          "name": "share",
          "type": "uint256"
        }
      ],
      "name": "PayeeAdded",
      "type": "event"
    },
    {
      "anonymous": false,
      "inputs": [
        {
          "indexed": false,
          "internalType": "address",
          "name": "account",
          "type": "address"
        }
      ],
      "name": "Unpaused",
      "type": "event"
    },
    {
      "inputs": [],
      "name": "distribute",
      "outputs": [],
      "stateMutability": "nonpayable",
      "type": "function"
    },
    {
      "inputs": [],
      "name": "erc20",
      "outputs": [
        {
          "internalType": "contract IERC20",
          "name": "",
          "type": "address"
        }
      ],
      "stateMutability": "view",
      "type": "function"
    },
    {
      "inputs": [],
      "name": "initialize",
      "outputs": [],
      "stateMutability": "nonpayable",
      "type": "function"
    },
    {
      "inputs": [],
      "name": "lastDistributionAt",
      "outputs": [
        {
          "internalType": "uint256",
          "name": "",
          "type": "uint256"
        }
      ],
      "stateMutability": "view",
      "type": "function"
    },
    {
      "inputs": [],
      "name": "pause",
      "outputs": [],
      "stateMutability": "nonpayable",
      "type": "function"
    },
    {
      "inputs": [],
      "name": "paused",
      "outputs": [
        {
          "internalType": "bool",
          "name": "",
          "type": "bool"
        }
      ],
      "stateMutability": "view",
      "type": "function"
    },
    {
      "inputs": [
        {
          "internalType": "uint256",
          "name": "",
          "type": "uint256"
        }
      ],
      "name": "payees",
      "outputs": [
        {
          "internalType": "address",
          "name": "",
          "type": "address"
        }
      ],
      "stateMutability": "view",
      "type": "function"
    },
    {
      "inputs": [
        {
          "internalType": "address",
          "name": "payee",
          "type": "address"
        }
      ],
      "name": "pendingDistributionFor",
      "outputs": [
        {
          "internalType": "uint256",
          "name": "",
          "type": "uint256"
        }
      ],
      "stateMutability": "view",
      "type": "function"
    },
    {
      "inputs": [
        {
          "internalType": "address[]",
          "name": "_payees",
          "type": "address[]"
        },
        {
          "internalType": "uint256[]",
          "name": "_shares",
          "type": "uint256[]"
        }
      ],
      "name": "replacePayees",
      "outputs": [],
      "stateMutability": "nonpayable",
      "type": "function"
    },
    {
      "inputs": [
        {
          "internalType": "address",
          "name": "",
          "type": "address"
        }
      ],
      "name": "shares",
      "outputs": [
        {
          "internalType": "uint256",
          "name": "",
          "type": "uint256"
        }
      ],
      "stateMutability": "view",
      "type": "function"
    },
    {
      "inputs": [],
      "name": "totalShares",
      "outputs": [
        {
          "internalType": "uint256",
          "name": "",
          "type": "uint256"
        }
      ],
      "stateMutability": "view",
      "type": "function"
    },
    {
      "inputs": [],
      "name": "unpause",
      "outputs": [],
      "stateMutability": "nonpayable",
      "type": "function"
    }
  ],
  "transactionHash": "0xcf723c45072f74e22fd321a89016ac28208c135feb8c44a11a1aedf9920f770e",
  "args": [
    "0xd16BC944Bf20c86c4ED47Ce1a330a18538674C83",
    "0xA0b86991c6218b36c1d19D4a2e9Eb0cE3606eB48"
  ],
  "solcInputHash": "eac65dc40e06b4b044f441f03029567a",
  "bytecode": "0x60c060405234801561001057600080fd5b5060405161137738038061137783398101604081905261002f9161005e565b6001600160a01b039182166080521660a052610098565b6001600160a01b038116811461005b57600080fd5b50565b6000806040838503121561007157600080fd5b825161007c81610046565b602084015190925061008d81610046565b809150509250929050565b60805160a05161129e6100d960003960008181610140015281816102810152818161049801526105870152600081816101a80152610b3a015261129e6000f3fe608060405234801561001057600080fd5b50600436106100b45760003560e01c8063785e9e8611610071578063785e9e861461013b5780638129fc1c146101625780638456cb591461016a5780639035508714610172578063ce7c2ac21461017b578063e4fc6b6d1461019b57600080fd5b8063259e97d6146100b95780633a98ef39146100ce5780633cae0ecc146100ea5780633f4ba83a146100fd5780635c975abb1461010557806363037b0c1461011b575b600080fd5b6100cc6100c7366004610f7b565b6101a3565b005b6100d760655481565b6040519081526020015b60405180910390f35b6100d76100f8366004610ffc565b610254565b6100cc610326565b60335460ff1660405190151581526020016100e1565b61012e610129366004611020565b61035c565b6040516100e19190611039565b61012e7f000000000000000000000000000000000000000000000000000000000000000081565b6100cc610386565b6100cc610402565b6100d760685481565b6100d7610189366004610ffc565b60676020526000908152604090205481565b6100cc610435565b6101d57f00000000000000000000000000000000000000000000000000000000000000006001600160a01b0316610615565b604051632a6e138b60e11b81523060048201523360248201526001600160a01b0391909116906354dc27169060440160006040518083038186803b15801561021c57600080fd5b505afa158015610230573d6000803e3d6000fd5b50505050606660006102429190610e99565b61024e84848484610705565b50505050565b600060655460676000846001600160a01b03166001600160a01b03168152602001908152602001600020547f00000000000000000000000000000000000000000000000000000000000000006001600160a01b03166370a08231306040518263ffffffff1660e01b81526004016102cb9190611039565b602060405180830381865afa1580156102e8573d6000803e3d6000fd5b505050506040513d601f19601f8201168201806040525081019061030c919061104d565b610316919061107c565b610320919061109b565b92915050565b6040805180820190915263580b2a9160e01b8152633828b3cf60e21b60208201526103518133610828565b6103596108a9565b50565b6066818154811061036c57600080fd5b6000918252602090912001546001600160a01b0316905081565b600054610100900460ff168061039f575060005460ff16155b6103c45760405162461bcd60e51b81526004016103bb906110bd565b60405180910390fd5b600054610100900460ff161580156103e6576000805461ffff19166101011790555b6103ee610936565b8015610359576000805461ff001916905550565b6040805180820190915263580b2a9160e01b8152633828b3cf60e21b602082015261042d8133610828565b6103596109ab565b60335460ff16156104585760405162461bcd60e51b81526004016103bb9061110b565b426068540361047a5760405163bdb009db60e01b815260040160405180910390fd5b426068556040516370a0823160e01b81526000906001600160a01b037f000000000000000000000000000000000000000000000000000000000000000016906370a08231906104cd903090600401611039565b602060405180830381865afa1580156104ea573d6000803e3d6000fd5b505050506040513d601f19601f8201168201806040525081019061050e919061104d565b905060005b6066548110156105de5760006066828154811061053257610532611135565b60009182526020808320909101546001600160a01b0316808352606790915260408220546065549193509190610568838761107c565b610572919061109b565b905080156105ae576105ae6001600160a01b037f0000000000000000000000000000000000000000000000000000000000000000168483610a03565b6001600160a01b0383163b156105c8576105c88382610a55565b50505080806105d69061114b565b915050610513565b506040518181527fddc9c30275a04c48091f24199f9c405765de34d979d6847f5b9798a57232d2e59060200160405180910390a150565b6000816001600160a01b031663f887ea406040518163ffffffff1660e01b8152600401602060405180830381865afa158015610655573d6000803e3d6000fd5b505050506040513d601f19601f820116820180604052508101906106799190611164565b6001600160a01b0316630c0450127f9a671f6643eb8ac838fd3c79576dd800fe704b35ad30189c60f0f14dab948f2a6040518263ffffffff1660e01b81526004016106c49190611181565b602060405180830381865afa1580156106e1573d6000803e3d6000fd5b505050506040513d601f19601f820116820180604052508101906103209190611164565b828114610728576040516001621398b960e31b0319815260040160405180910390fd5b600060655561073960668585610eb7565b5060005b8181101561082157600085858381811061075957610759611135565b905060200201602081019061076e9190610ffc565b9050600084848481811061078457610784611135565b9050602002013590508060676000846001600160a01b03166001600160a01b031681526020019081526020016000208190555080606560008282546107c99190611196565b90915550506040518181526001600160a01b038316907f40c340f65e17194d14ddddb073d3c9f888e3cb52b5aae0c6c7706b4fbc905fac9060200160405180910390a2505080806108199061114b565b91505061073d565b5050505050565b6001600160a01b03811661084f5760405163d92e233d60e01b815260040160405180910390fd5b600061086283825b602002015183610b2c565b806108735750610873836001610857565b9050806108a45760405163889a56bb60e01b81523060048201526001600160a01b03831660248201526044016103bb565b505050565b60335460ff166108f25760405162461bcd60e51b815260206004820152601460248201527314185d5cd8589b194e881b9bdd081c185d5cd95960621b60448201526064016103bb565b6033805460ff191690557f5db9ee0a495bf2e6ff9c91a7834c1ba4fdd244a5e8aa4e537bd38aeae4b073aa335b60405161092c9190611039565b60405180910390a1565b600054610100900460ff168061094f575060005460ff16155b61096b5760405162461bcd60e51b81526004016103bb906110bd565b600054610100900460ff1615801561098d576000805461ffff19166101011790555b6033805460ff191690558015610359576000805461ff001916905550565b60335460ff16156109ce5760405162461bcd60e51b81526004016103bb9061110b565b6033805460ff191660011790557f62e78cea01bee320cd4e420270b5ea74000d11b0c9f74754ebdbfc544b05a25861091f3390565b604080516001600160a01b038416602482015260448082018490528251808303909101815260649091019091526020810180516001600160e01b031663a9059cbb60e01b1790526108a4908490610c37565b604051637b35092760e11b8152600481018290526001600160a01b0383169063f66a124e906024016020604051808303816000875af1925050508015610ab8575060408051601f3d908101601f19168201909252610ab5918101906111a9565b60015b610afb573d808015610ae6576040519150601f19603f3d011682016040523d82523d6000602084013e610aeb565b606091505b508051156108a457805181602001fd5b6001600160e01b03198116637b35092760e11b146108a457604051631e4ec46b60e01b815260040160405180910390fd5b6000816001600160a01b03167f00000000000000000000000000000000000000000000000000000000000000006001600160a01b031663f887ea406040518163ffffffff1660e01b8152600401602060405180830381865afa158015610b96573d6000803e3d6000fd5b505050506040513d601f19601f82011682018060405250810190610bba9190611164565b6001600160a01b0316630c045012856040518263ffffffff1660e01b8152600401610be59190611181565b602060405180830381865afa158015610c02573d6000803e3d6000fd5b505050506040513d601f19601f82011682018060405250810190610c269190611164565b6001600160a01b0316149392505050565b6000610c8c826040518060400160405280602081526020017f5361666545524332303a206c6f772d6c6576656c2063616c6c206661696c6564815250856001600160a01b0316610d099092919063ffffffff16565b8051909150156108a45780806020019051810190610caa91906111d3565b6108a45760405162461bcd60e51b815260206004820152602a60248201527f5361666545524332303a204552433230206f7065726174696f6e20646964206e6044820152691bdd081cdd58d8d9595960b21b60648201526084016103bb565b6060610d188484600085610d20565b949350505050565b606082471015610d815760405162461bcd60e51b815260206004820152602660248201527f416464726573733a20696e73756666696369656e742062616c616e636520666f6044820152651c8818d85b1b60d21b60648201526084016103bb565b600080866001600160a01b03168587604051610d9d9190611219565b60006040518083038185875af1925050503d8060008114610dda576040519150601f19603f3d011682016040523d82523d6000602084013e610ddf565b606091505b5091509150610df087838387610dfb565b979650505050505050565b60608315610e6a578251600003610e63576001600160a01b0385163b610e635760405162461bcd60e51b815260206004820152601d60248201527f416464726573733a2063616c6c20746f206e6f6e2d636f6e747261637400000060448201526064016103bb565b5081610d18565b610d188383815115610e7f5781518083602001fd5b8060405162461bcd60e51b81526004016103bb9190611235565b50805460008255906000526020600020908101906103599190610f1a565b828054828255906000526020600020908101928215610f0a579160200282015b82811115610f0a5781546001600160a01b0319166001600160a01b03843516178255602090920191600190910190610ed7565b50610f16929150610f1a565b5090565b5b80821115610f165760008155600101610f1b565b60008083601f840112610f4157600080fd5b50813567ffffffffffffffff811115610f5957600080fd5b6020830191508360208260051b8501011115610f7457600080fd5b9250929050565b60008060008060408587031215610f9157600080fd5b843567ffffffffffffffff80821115610fa957600080fd5b610fb588838901610f2f565b90965094506020870135915080821115610fce57600080fd5b50610fdb87828801610f2f565b95989497509550505050565b6001600160a01b038116811461035957600080fd5b60006020828403121561100e57600080fd5b813561101981610fe7565b9392505050565b60006020828403121561103257600080fd5b5035919050565b6001600160a01b0391909116815260200190565b60006020828403121561105f57600080fd5b5051919050565b634e487b7160e01b600052601160045260246000fd5b600081600019048311821515161561109657611096611066565b500290565b6000826110b857634e487b7160e01b600052601260045260246000fd5b500490565b6020808252602e908201527f496e697469616c697a61626c653a20636f6e747261637420697320616c72656160408201526d191e481a5b9a5d1a585b1a5e995960921b606082015260800190565b60208082526010908201526f14185d5cd8589b194e881c185d5cd95960821b604082015260600190565b634e487b7160e01b600052603260045260246000fd5b60006001820161115d5761115d611066565b5060010190565b60006020828403121561117657600080fd5b815161101981610fe7565b6001600160e01b031991909116815260200190565b8082018082111561032057610320611066565b6000602082840312156111bb57600080fd5b81516001600160e01b03198116811461101957600080fd5b6000602082840312156111e557600080fd5b8151801515811461101957600080fd5b60005b838110156112105781810151838201526020016111f8565b50506000910152565b6000825161122b8184602087016111f5565b9190910192915050565b60208152600082518060208401526112548160408501602087016111f5565b601f01601f1916919091016040019291505056fea26469706673582212200e401bbd376b5ec13015cb96f9a192fc31e62b242172f343971345a682805cf164736f6c63430008100033",
  "devdoc": {
    "author": "landakram",
    "kind": "dev",
    "methods": {
      "paused()": {
        "details": "Returns true if the contract is paused, and false otherwise."
      },
      "replacePayees(address[],uint256[])": {
        "params": {
          "_payees": "An array of addresses to receive distributions",
          "_shares": "An array of shares (ordered by `_payees`) to use for distributions"
        }
      }
    },
    "title": "ERC20Splitter",
    "version": 1
  },
  "userdoc": {
    "kind": "user",
    "methods": {
      "distribute()": {
        "notice": "Distribute the current balance to payees. If a payee is a smart contract   implementing `IERC20SplitterReceiver`, then its `onReceive` handler function will   be called after it receives its share."
      },
      "erc20()": {
        "notice": "The ERC20 that is distributed to payees"
      },
      "lastDistributionAt()": {
        "notice": "The block.timestamp when `distribute` was last called"
      },
      "payees(uint256)": {
        "notice": "A list of payees"
      },
      "replacePayees(address[],uint256[])": {
        "notice": "Replace all current payees with a new set of payees and shares"
      },
      "shares(address)": {
        "notice": "Payee shares"
      },
      "totalShares()": {
        "notice": "The total number of shares in the splitter. A payee's proportion   of the split can be calculated as its share / totalShares."
      }
    },
    "notice": "Splits the ERC20 balance of this contract amongst a list of payees.   Unlike similar splitter contracts, all shares of the balance are distributed   in a single `distribute` transaction. If a payee is a smart contract implementing   `IERC20SplitterReceiver`, then its `onReceive` handler function will be called   after it receives its share.",
    "version": 1
  },
  "storageLayout": {
    "storage": [
      {
        "astId": 663,
        "contract": "contracts/protocol/core/membership/ERC20Splitter.sol:ERC20Splitter",
        "label": "_initialized",
        "offset": 0,
        "slot": "0",
        "type": "t_bool"
      },
      {
        "astId": 666,
        "contract": "contracts/protocol/core/membership/ERC20Splitter.sol:ERC20Splitter",
        "label": "_initializing",
        "offset": 1,
        "slot": "0",
        "type": "t_bool"
      },
      {
        "astId": 3021,
        "contract": "contracts/protocol/core/membership/ERC20Splitter.sol:ERC20Splitter",
        "label": "__gap",
        "offset": 0,
        "slot": "1",
        "type": "t_array(t_uint256)50_storage"
      },
      {
        "astId": 724,
        "contract": "contracts/protocol/core/membership/ERC20Splitter.sol:ERC20Splitter",
        "label": "_paused",
        "offset": 0,
        "slot": "51",
        "type": "t_bool"
      },
      {
        "astId": 815,
        "contract": "contracts/protocol/core/membership/ERC20Splitter.sol:ERC20Splitter",
        "label": "__gap",
        "offset": 0,
        "slot": "52",
        "type": "t_array(t_uint256)49_storage"
      },
      {
        "astId": 9786,
        "contract": "contracts/protocol/core/membership/ERC20Splitter.sol:ERC20Splitter",
        "label": "totalShares",
        "offset": 0,
        "slot": "101",
        "type": "t_uint256"
      },
      {
        "astId": 9790,
        "contract": "contracts/protocol/core/membership/ERC20Splitter.sol:ERC20Splitter",
        "label": "payees",
        "offset": 0,
        "slot": "102",
        "type": "t_array(t_address)dyn_storage"
      },
      {
        "astId": 9795,
        "contract": "contracts/protocol/core/membership/ERC20Splitter.sol:ERC20Splitter",
        "label": "shares",
        "offset": 0,
        "slot": "103",
        "type": "t_mapping(t_address,t_uint256)"
      },
      {
        "astId": 9802,
        "contract": "contracts/protocol/core/membership/ERC20Splitter.sol:ERC20Splitter",
        "label": "lastDistributionAt",
        "offset": 0,
        "slot": "104",
        "type": "t_uint256"
      }
    ],
    "types": {
      "t_address": {
        "encoding": "inplace",
        "label": "address",
        "numberOfBytes": "20"
      },
      "t_array(t_address)dyn_storage": {
        "base": "t_address",
        "encoding": "dynamic_array",
        "label": "address[]",
        "numberOfBytes": "32"
      },
      "t_array(t_uint256)49_storage": {
        "base": "t_uint256",
        "encoding": "inplace",
        "label": "uint256[49]",
        "numberOfBytes": "1568"
      },
      "t_array(t_uint256)50_storage": {
        "base": "t_uint256",
        "encoding": "inplace",
        "label": "uint256[50]",
        "numberOfBytes": "1600"
      },
      "t_bool": {
        "encoding": "inplace",
        "label": "bool",
        "numberOfBytes": "1"
      },
      "t_mapping(t_address,t_uint256)": {
        "encoding": "mapping",
        "key": "t_address",
        "label": "mapping(address => uint256)",
        "numberOfBytes": "32",
        "value": "t_uint256"
      },
      "t_uint256": {
        "encoding": "inplace",
        "label": "uint256",
        "numberOfBytes": "32"
      }
    }
  }
}