{
  "address": "0x8d0C4E704be667E4320B81F6dD35adDAd3C135E0",
  "abi": [
    {
      "inputs": [
        {
          "internalType": "contract Context",
          "name": "_context",
          "type": "address"
        }
      ],
      "stateMutability": "nonpayable",
      "type": "constructor"
    },
    {
      "inputs": [],
      "name": "IndexGreaterThanTokenSupply",
      "type": "error"
    },
    {
      "inputs": [
        {
          "internalType": "uint256",
          "name": "epoch",
          "type": "uint256"
        }
      ],
      "name": "InvalidDepositEpoch",
      "type": "error"
    },
    {
      "inputs": [],
      "name": "InvalidOwnerIndex",
      "type": "error"
    },
    {
      "inputs": [
        {
          "internalType": "uint256",
          "name": "requested",
          "type": "uint256"
        },
        {
          "internalType": "uint256",
          "name": "max",
          "type": "uint256"
        }
      ],
      "name": "InvalidWithdrawAmount",
      "type": "error"
    },
    {
      "inputs": [
        {
          "internalType": "address",
          "name": "resource",
          "type": "address"
        },
        {
          "internalType": "address",
          "name": "accessor",
          "type": "address"
        }
      ],
      "name": "RequiresOperator",
      "type": "error"
    },
    {
      "inputs": [],
      "name": "ZeroAddress",
      "type": "error"
    },
    {
      "inputs": [],
      "name": "ZeroDepositAmount",
      "type": "error"
    },
    {
      "anonymous": false,
      "inputs": [
        {
          "indexed": true,
          "internalType": "address",
          "name": "owner",
          "type": "address"
        },
        {
          "indexed": true,
          "internalType": "uint256",
          "name": "positionId",
          "type": "uint256"
        },
        {
          "indexed": false,
          "internalType": "uint256",
          "name": "amount",
          "type": "uint256"
        }
      ],
      "name": "GFIDeposit",
      "type": "event"
    },
    {
      "anonymous": false,
      "inputs": [
        {
          "indexed": true,
          "internalType": "address",
          "name": "owner",
          "type": "address"
        },
        {
          "indexed": true,
          "internalType": "uint256",
          "name": "positionId",
          "type": "uint256"
        },
        {
          "indexed": false,
          "internalType": "uint256",
          "name": "withdrawnAmount",
          "type": "uint256"
        },
        {
          "indexed": false,
          "internalType": "uint256",
          "name": "remainingAmount",
          "type": "uint256"
        },
        {
          "indexed": false,
          "internalType": "uint256",
          "name": "depositTimestamp",
          "type": "uint256"
        }
      ],
      "name": "GFIWithdrawal",
      "type": "event"
    },
    {
      "inputs": [
        {
          "internalType": "address",
          "name": "addr",
          "type": "address"
        }
      ],
      "name": "balanceOf",
      "outputs": [
        {
          "internalType": "uint256",
          "name": "balance",
          "type": "uint256"
        }
      ],
      "stateMutability": "view",
      "type": "function"
    },
    {
      "inputs": [
        {
          "internalType": "address",
          "name": "owner",
          "type": "address"
        },
        {
          "internalType": "uint256",
          "name": "amount",
          "type": "uint256"
        }
      ],
      "name": "deposit",
      "outputs": [
        {
          "internalType": "uint256",
          "name": "positionId",
          "type": "uint256"
        }
      ],
      "stateMutability": "nonpayable",
      "type": "function"
    },
    {
      "inputs": [
        {
          "internalType": "uint256",
          "name": "positionId",
          "type": "uint256"
        }
      ],
      "name": "ownerOf",
      "outputs": [
        {
          "internalType": "address",
          "name": "",
          "type": "address"
        }
      ],
      "stateMutability": "view",
      "type": "function"
    },
    {
      "inputs": [
        {
          "internalType": "uint256",
          "name": "",
          "type": "uint256"
        }
      ],
      "name": "positions",
      "outputs": [
        {
          "internalType": "address",
          "name": "owner",
          "type": "address"
        },
        {
          "internalType": "uint256",
          "name": "ownedIndex",
          "type": "uint256"
        },
        {
          "internalType": "uint256",
          "name": "amount",
          "type": "uint256"
        },
        {
          "internalType": "uint256",
          "name": "depositTimestamp",
          "type": "uint256"
        }
      ],
      "stateMutability": "view",
      "type": "function"
    },
    {
      "inputs": [
        {
          "internalType": "uint256",
          "name": "index",
          "type": "uint256"
        }
      ],
      "name": "tokenByIndex",
      "outputs": [
        {
          "internalType": "uint256",
          "name": "",
          "type": "uint256"
        }
      ],
      "stateMutability": "view",
      "type": "function"
    },
    {
      "inputs": [
        {
          "internalType": "address",
          "name": "owner",
          "type": "address"
        },
        {
          "internalType": "uint256",
          "name": "index",
          "type": "uint256"
        }
      ],
      "name": "tokenOfOwnerByIndex",
      "outputs": [
        {
          "internalType": "uint256",
          "name": "",
          "type": "uint256"
        }
      ],
      "stateMutability": "view",
      "type": "function"
    },
    {
      "inputs": [],
      "name": "totalSupply",
      "outputs": [
        {
          "internalType": "uint256",
          "name": "",
          "type": "uint256"
        }
      ],
      "stateMutability": "view",
      "type": "function"
    },
    {
      "inputs": [
        {
          "internalType": "address",
          "name": "addr",
          "type": "address"
        }
      ],
      "name": "totalsOf",
      "outputs": [
        {
          "internalType": "uint256",
          "name": "eligibleAmount",
          "type": "uint256"
        },
        {
          "internalType": "uint256",
          "name": "totalAmount",
          "type": "uint256"
        }
      ],
      "stateMutability": "view",
      "type": "function"
    },
    {
      "inputs": [
        {
          "internalType": "uint256",
          "name": "positionId",
          "type": "uint256"
        }
      ],
      "name": "withdraw",
      "outputs": [
        {
          "internalType": "uint256",
          "name": "",
          "type": "uint256"
        }
      ],
      "stateMutability": "nonpayable",
      "type": "function"
    },
    {
      "inputs": [
        {
          "internalType": "uint256",
          "name": "positionId",
          "type": "uint256"
        },
        {
          "internalType": "uint256",
          "name": "amount",
          "type": "uint256"
        }
      ],
      "name": "withdraw",
      "outputs": [
        {
          "internalType": "uint256",
          "name": "",
          "type": "uint256"
        }
      ],
      "stateMutability": "nonpayable",
      "type": "function"
    }
  ],
  "transactionHash": "0x18fbf4e65aebe87982b8077a8586d7e086fad81231a878b0cdb3b153ded5aab5",
  "args": [
    "0xd16BC944Bf20c86c4ED47Ce1a330a18538674C83"
  ],
  "solcInputHash": "eac65dc40e06b4b044f441f03029567a",
  "bytecode": "0x60a060405234801561001057600080fd5b506040516112f63803806112f683398101604081905261002f91610040565b6001600160a01b0316608052610070565b60006020828403121561005257600080fd5b81516001600160a01b038116811461006957600080fd5b9392505050565b60805161124f6100a7600039600081816103fb0152818161051201528181610546015281816107290152610bd8015261124f6000f3fe608060405234801561001057600080fd5b506004361061009e5760003560e01c806347e7ef241161006657806347e7ef241461011b5780634f6ccce71461012e5780636352211e1461014157806370a082311461018257806399fbab88146101ab57600080fd5b806318160ddd146100a35780632e1a7d4d146100ba5780632f745c59146100cd578063427d7432146100e0578063441a3e7014610108575b600080fd5b6003545b6040519081526020015b60405180910390f35b6100a76100c8366004610ff3565b610214565b6100a76100db366004611024565b61023f565b6100f36100ee366004611050565b6102b5565b604080519283526020830191909152016100b1565b6100a761011636600461106d565b6102e1565b6100a7610129366004611024565b61049f565b6100a761013c366004610ff3565b610584565b61016a61014f366004610ff3565b6000908152602081905260409020546001600160a01b031690565b6040516001600160a01b0390911681526020016100b1565b6100a7610190366004611050565b6001600160a01b031660009081526001602052604090205490565b6101ea6101b9366004610ff3565b60006020819052908152604090208054600182015460028301546003909301546001600160a01b0390921692909184565b604080516001600160a01b03909516855260208501939093529183015260608201526080016100b1565b60006000805160206111fa83398151915261022f81336105b9565b6102388361061c565b9392505050565b6001600160a01b038216600090815260016020526040812054821061027757604051638f832b9b60e01b815260040160405180910390fd5b6001600160a01b03831660009081526001602052604090208054839081106102a1576102a161108f565b906000526020600020015490505b92915050565b6001600160a01b038116600090815260026020526040812081906102d8906107b6565b91509150915091565b60006000805160206111fa8339815191526102fc81336105b9565b60008481526020818152604091829020825160808101845281546001600160a01b0316815260018201549281019290925260028101549282018390526003015460608201529084111561037c57838160400151604051637d12377b60e11b8152600401610373929190918252602082015260400190565b60405180910390fd5b80604001518403610398576103908561061c565b925050610498565b600085815260208190526040812060020180548692906103b99084906110bb565b9091555050606081015181516001600160a01b031660009081526002602052604090206103e7918690610807565b805161043090856104206001600160a01b037f000000000000000000000000000000000000000000000000000000000000000016610891565b6001600160a01b03169190610981565b8481600001516001600160a01b03167ff6763bd8d37738b3bf0660478688894b97ecb4b42b87cb9edcb99022070fa54e8687856040015161047191906110bb565b606086810151604080519485526020850193909352838301529051918290030190a3839250505b5092915050565b60006000805160206111fa8339815191526104ba81336105b9565b826000036104db5760405163078e1d8560e01b815260040160405180910390fd5b6104e584846109e9565b6001600160a01b038516600090815260026020526040902090925061050a9084610acf565b61049861053f7f00000000000000000000000000000000000000000000000000000000000000006001600160a01b0316610af5565b30856105737f00000000000000000000000000000000000000000000000000000000000000006001600160a01b0316610891565b6001600160a01b0316929190610b92565b600061058f60035490565b82106105ae57604051633f7ee38f60e11b815260040160405180910390fd5b6102af8260016110ce565b6001600160a01b0381166105e05760405163d92e233d60e01b815260040160405180910390fd5b6105ea8282610bca565b6106185760405163889a56bb60e01b81523060048201526001600160a01b0382166024820152604401610373565b5050565b600081815260208181526040808320815160808101835281546001600160a01b03808216835260018085018054858901908152600287018054878a015260038801805460608901528c8c528b8b526001600160a01b031990961690975590899055948890559187905582511686529093529083209051839061069f908390610cd5565b91505080156106e7578260200151600080848660200151815481106106c6576106c661108f565b90600052602060002001548152602001908152602001600020600101819055505b604080840151606085015185516001600160a01b0316600090815260026020529290922061071792909190610807565b610756836000015184604001516104207f00000000000000000000000000000000000000000000000000000000000000006001600160a01b0316610891565b825160408085015160608087015183519283526000602084015282840152915188936001600160a01b0316927ff6763bd8d37738b3bf0660478688894b97ecb4b42b87cb9edcb99022070fa54e928290030190a350506040015192915050565b60408051606081018252825481526001830154602082015260028301549181018290526000918291906107e7610d5e565b036107fd57602081015190519094909350915050565b5193849350915050565b600061081282610d6e565b905061081c610d5e565b81111561083f57604051632029102760e21b815260048101829052602401610373565b61084884610d7d565b8284600001600082825461085c91906110bb565b9091555061086a9050610d5e565b81101561088b578284600101600082825461088591906110bb565b90915550505b50505050565b6000816001600160a01b031663f887ea406040518163ffffffff1660e01b8152600401602060405180830381865afa1580156108d1573d6000803e3d6000fd5b505050506040513d601f19601f820116820180604052508101906108f591906110e1565b6001600160a01b0316630c0450127f6fdcaa094af96c56039c701c590da2284d9e0c364f2dd8ee7d43419f0eefd2936040518263ffffffff1660e01b815260040161094091906110fe565b602060405180830381865afa15801561095d573d6000803e3d6000fd5b505050506040513d601f19601f820116820180604052508101906102af91906110e1565b6040516001600160a01b0383166024820152604481018290526109e490849063a9059cbb60e01b906064015b60408051601f198184030181529190526020810180516001600160e01b03166001600160e01b031990931692909217909152610da9565b505050565b60038054600091826109fa83611113565b909155505060038054604080516080810182526001600160a01b0380881680835260008181526001602081815286832080548288019081528789018d81524260608a019081528b87528685528a872099518a5499166001600160a01b0319909916989098178955905188850155516002880155945195909801949094558387528254938401835591825294902001829055519092508291907f536047b5fc46f9ae12405dac5cdd00128e0ca662a5d3faedb714aaf8a69f5c9190610ac19086815260200190565b60405180910390a392915050565b610ad882610d7d565b80826000016000828254610aec91906110ce565b90915550505050565b6000816001600160a01b031663f887ea406040518163ffffffff1660e01b8152600401602060405180830381865afa158015610b35573d6000803e3d6000fd5b505050506040513d601f19601f82011682018060405250810190610b5991906110e1565b6001600160a01b0316630c0450126000805160206111fa8339815191526040518263ffffffff1660e01b815260040161094091906110fe565b6040516001600160a01b038085166024830152831660448201526064810182905261088b9085906323b872dd60e01b906084016109ad565b6000816001600160a01b03167f00000000000000000000000000000000000000000000000000000000000000006001600160a01b031663f887ea406040518163ffffffff1660e01b8152600401602060405180830381865afa158015610c34573d6000803e3d6000fd5b505050506040513d601f19601f82011682018060405250810190610c5891906110e1565b6001600160a01b0316630c045012856040518263ffffffff1660e01b8152600401610c8391906110fe565b602060405180830381865afa158015610ca0573d6000803e3d6000fd5b505050506040513d601f19601f82011682018060405250810190610cc491906110e1565b6001600160a01b0316149392505050565b81546000908190610ce8906001906110bb565b915050818114801590610d3157838281548110610d0757610d0761108f565b9060005260206000200154848481548110610d2457610d2461108f565b6000918252602090912001555b83805480610d4157610d4161112c565b600190038181906000526020600020016000905590559250929050565b6000610d6942610d6e565b905090565b60006102af62093a8083611142565b8060020154610d8a610d5e565b11610d925750565b80546001820155610da1610d5e565b600290910155565b6000610dfe826040518060400160405280602081526020017f5361666545524332303a206c6f772d6c6576656c2063616c6c206661696c6564815250856001600160a01b0316610e7b9092919063ffffffff16565b8051909150156109e45780806020019051810190610e1c9190611164565b6109e45760405162461bcd60e51b815260206004820152602a60248201527f5361666545524332303a204552433230206f7065726174696f6e20646964206e6044820152691bdd081cdd58d8d9595960b21b6064820152608401610373565b6060610e8a8484600085610e92565b949350505050565b606082471015610ef35760405162461bcd60e51b815260206004820152602660248201527f416464726573733a20696e73756666696369656e742062616c616e636520666f6044820152651c8818d85b1b60d21b6064820152608401610373565b843b610f415760405162461bcd60e51b815260206004820152601d60248201527f416464726573733a2063616c6c20746f206e6f6e2d636f6e74726163740000006044820152606401610373565b600080866001600160a01b03168587604051610f5d91906111aa565b60006040518083038185875af1925050503d8060008114610f9a576040519150601f19603f3d011682016040523d82523d6000602084013e610f9f565b606091505b5091509150610faf828286610fba565b979650505050505050565b60608315610fc9575081610238565b825115610fd95782518084602001fd5b8160405162461bcd60e51b815260040161037391906111c6565b60006020828403121561100557600080fd5b5035919050565b6001600160a01b038116811461102157600080fd5b50565b6000806040838503121561103757600080fd5b82356110428161100c565b946020939093013593505050565b60006020828403121561106257600080fd5b81356102388161100c565b6000806040838503121561108057600080fd5b50508035926020909101359150565b634e487b7160e01b600052603260045260246000fd5b634e487b7160e01b600052601160045260246000fd5b818103818111156102af576102af6110a5565b808201808211156102af576102af6110a5565b6000602082840312156110f357600080fd5b81516102388161100c565b6001600160e01b031991909116815260200190565b600060018201611125576111256110a5565b5060010190565b634e487b7160e01b600052603160045260246000fd5b60008261115f57634e487b7160e01b600052601260045260246000fd5b500490565b60006020828403121561117657600080fd5b8151801515811461023857600080fd5b60005b838110156111a1578181015183820152602001611189565b50506000910152565b600082516111bc818460208701611186565b9190910192915050565b60208152600082518060208401526111e5816040850160208701611186565b601f01601f1916919091016040019291505056fe9e45de9588e74df19c5f35dd4ddf9c698e7a3e36b4004fd44cb75621507d7092a2646970667358221220f6f499f971eaef492b58bc3ae4c2c0af68c2861599098be36a64020deacdbe4c64736f6c63430008100033",
  "devdoc": {
    "author": "Goldfinch",
    "kind": "dev",
    "methods": {
      "balanceOf(address)": {
        "params": {
          "addr": "address"
        },
        "returns": {
          "balance": "positions held by address"
        }
      },
      "deposit(address,uint256)": {
        "params": {
          "amount": "how much was deposited",
          "owner": "address to account for the deposit"
        },
        "returns": {
          "positionId": "how much was deposited"
        }
      },
      "ownerOf(uint256)": {
        "params": {
          "positionId": "id of the position"
        },
        "returns": {
          "_0": "owner of the position"
        }
      },
      "tokenByIndex(uint256)": {
        "details": "Returns a position ID at a given `index` of all the positions stored by the contract.use with {totalSupply} to enumerate all positions",
        "params": {
          "index": "index to get the position ID at"
        },
        "returns": {
          "_0": "token id"
        }
      },
      "tokenOfOwnerByIndex(address,uint256)": {
        "details": "use with {balanceOf} to enumerate all of `owner`'s positions",
        "params": {
          "index": "index of the owner's balance to get the position ID of",
          "owner": "owner of the positions"
        },
        "returns": {
          "_0": "position id"
        }
      },
      "totalSupply()": {
        "returns": {
          "_0": "number of positions in the ledger"
        }
      },
      "totalsOf(address)": {
        "details": "this is used by Membership to determine how much is eligible in  the current epoch vs the next epoch.",
        "returns": {
          "eligibleAmount": "GFI amount of positions eligible for rewards",
          "totalAmount": "total GFI amount of positions"
        }
      },
      "withdraw(uint256)": {
        "params": {
          "positionId": "id of the position"
        },
        "returns": {
          "_0": "how much was withdrawn"
        }
      },
      "withdraw(uint256,uint256)": {
        "params": {
          "amount": "how much to withdraw",
          "positionId": "id of the position"
        },
        "returns": {
          "_0": "how much was withdrawn"
        }
      }
    },
    "title": "GFILedger",
    "version": 1
  },
  "userdoc": {
    "errors": {
      "IndexGreaterThanTokenSupply()": [
        {
          "notice": "Thrown when querying token supply with an index greater than the supply"
        }
      ],
      "InvalidOwnerIndex()": [
        {
          "notice": "Thrown when depositing from address(0)"
        }
      ],
      "InvalidWithdrawAmount(uint256,uint256)": [
        {
          "notice": "Thrown when withdrawing an invalid amount for a position"
        }
      ],
      "ZeroDepositAmount()": [
        {
          "notice": "Thrown when depositing zero GFI for a position"
        }
      ]
    },
    "events": {
      "GFIDeposit(address,uint256,uint256)": {
        "notice": "Emitted when a new GFI deposit has been made"
      },
      "GFIWithdrawal(address,uint256,uint256,uint256,uint256)": {
        "notice": "Emitted when a new GFI withdrawal has been made. If the remaining amount is 0, the position has bee removed"
      }
    },
    "kind": "user",
    "methods": {
      "balanceOf(address)": {
        "notice": "Get the number of GFI positions held by an address"
      },
      "constructor": {
        "notice": "Construct the contract"
      },
      "deposit(address,uint256)": {
        "notice": "Account for a new deposit by the owner."
      },
      "ownerOf(uint256)": {
        "notice": "Get the owner of a given position."
      },
      "tokenOfOwnerByIndex(address,uint256)": {
        "notice": "Returns a position ID owned by `owner` at a given `index` of its position list"
      },
      "totalSupply()": {
        "notice": "Total number of positions in the ledger"
      },
      "totalsOf(address)": {
        "notice": "Get amount of GFI of `owner`s positions, reporting what is currently  eligible and the total amount."
      },
      "withdraw(uint256)": {
        "notice": "Account for a new withdraw by the owner."
      },
      "withdraw(uint256,uint256)": {
        "notice": "Account for a new withdraw by the owner."
      }
    },
    "notice": "Track GFI held by owners and ensure the GFI has been accounted for.",
    "version": 1
  },
  "storageLayout": {
    "storage": [
      {
        "astId": 11306,
        "contract": "contracts/protocol/core/membership/GFILedger.sol:GFILedger",
        "label": "positions",
        "offset": 0,
        "slot": "0",
        "type": "t_mapping(t_uint256,t_struct(Position)6345_storage)"
      },
      {
        "astId": 11311,
        "contract": "contracts/protocol/core/membership/GFILedger.sol:GFILedger",
        "label": "owners",
        "offset": 0,
        "slot": "1",
        "type": "t_mapping(t_address,t_array(t_uint256)dyn_storage)"
      },
      {
        "astId": 11317,
        "contract": "contracts/protocol/core/membership/GFILedger.sol:GFILedger",
        "label": "totals",
        "offset": 0,
        "slot": "2",
        "type": "t_mapping(t_address,t_struct(UserEpochTotal)13995_storage)"
      },
      {
        "astId": 11319,
        "contract": "contracts/protocol/core/membership/GFILedger.sol:GFILedger",
        "label": "positionCounter",
        "offset": 0,
        "slot": "3",
        "type": "t_uint256"
      }
    ],
    "types": {
      "t_address": {
        "encoding": "inplace",
        "label": "address",
        "numberOfBytes": "20"
      },
      "t_array(t_uint256)dyn_storage": {
        "base": "t_uint256",
        "encoding": "dynamic_array",
        "label": "uint256[]",
        "numberOfBytes": "32"
      },
      "t_mapping(t_address,t_array(t_uint256)dyn_storage)": {
        "encoding": "mapping",
        "key": "t_address",
        "label": "mapping(address => uint256[])",
        "numberOfBytes": "32",
        "value": "t_array(t_uint256)dyn_storage"
      },
      "t_mapping(t_address,t_struct(UserEpochTotal)13995_storage)": {
        "encoding": "mapping",
        "key": "t_address",
        "label": "mapping(address => struct UserEpochTotal)",
        "numberOfBytes": "32",
        "value": "t_struct(UserEpochTotal)13995_storage"
      },
      "t_mapping(t_uint256,t_struct(Position)6345_storage)": {
        "encoding": "mapping",
        "key": "t_uint256",
        "label": "mapping(uint256 => struct IGFILedger.Position)",
        "numberOfBytes": "32",
        "value": "t_struct(Position)6345_storage"
      },
      "t_struct(Position)6345_storage": {
        "encoding": "inplace",
        "label": "struct IGFILedger.Position",
        "members": [
          {
            "astId": 6338,
            "contract": "contracts/protocol/core/membership/GFILedger.sol:GFILedger",
            "label": "owner",
            "offset": 0,
            "slot": "0",
            "type": "t_address"
          },
          {
            "astId": 6340,
            "contract": "contracts/protocol/core/membership/GFILedger.sol:GFILedger",
            "label": "ownedIndex",
            "offset": 0,
            "slot": "1",
            "type": "t_uint256"
          },
          {
            "astId": 6342,
            "contract": "contracts/protocol/core/membership/GFILedger.sol:GFILedger",
            "label": "amount",
            "offset": 0,
            "slot": "2",
            "type": "t_uint256"
          },
          {
            "astId": 6344,
            "contract": "contracts/protocol/core/membership/GFILedger.sol:GFILedger",
            "label": "depositTimestamp",
            "offset": 0,
            "slot": "3",
            "type": "t_uint256"
          }
        ],
        "numberOfBytes": "128"
      },
      "t_struct(UserEpochTotal)13995_storage": {
        "encoding": "inplace",
        "label": "struct UserEpochTotal",
        "members": [
          {
            "astId": 13988,
            "contract": "contracts/protocol/core/membership/GFILedger.sol:GFILedger",
            "label": "totalAmount",
            "offset": 0,
            "slot": "0",
            "type": "t_uint256"
          },
          {
            "astId": 13991,
            "contract": "contracts/protocol/core/membership/GFILedger.sol:GFILedger",
            "label": "eligibleAmount",
            "offset": 0,
            "slot": "1",
            "type": "t_uint256"
          },
          {
            "astId": 13994,
            "contract": "contracts/protocol/core/membership/GFILedger.sol:GFILedger",
            "label": "checkpointedAt",
            "offset": 0,
            "slot": "2",
            "type": "t_uint256"
          }
        ],
        "numberOfBytes": "96"
      },
      "t_uint256": {
        "encoding": "inplace",
        "label": "uint256",
        "numberOfBytes": "32"
      }
    }
  }
}