{
  "address": "0x9789114F9516E1CD2a41FDa5E9c17E984d31A22E",
  "abi": [
    {
      "anonymous": false,
      "inputs": [
        {
          "indexed": true,
          "internalType": "address",
          "name": "who",
          "type": "address"
        },
        {
          "indexed": false,
          "internalType": "address",
          "name": "configAddress",
          "type": "address"
        }
      ],
      "name": "GoldfinchConfigUpdated",
      "type": "event"
    },
    {
      "anonymous": false,
      "inputs": [
        {
          "indexed": false,
          "internalType": "address",
          "name": "account",
          "type": "address"
        }
      ],
      "name": "Paused",
      "type": "event"
    },
    {
      "anonymous": false,
      "inputs": [
        {
          "indexed": true,
          "internalType": "bytes32",
          "name": "role",
          "type": "bytes32"
        },
        {
          "indexed": true,
          "internalType": "address",
          "name": "account",
          "type": "address"
        },
        {
          "indexed": true,
          "internalType": "address",
          "name": "sender",
          "type": "address"
        }
      ],
      "name": "RoleGranted",
      "type": "event"
    },
    {
      "anonymous": false,
      "inputs": [
        {
          "indexed": true,
          "internalType": "bytes32",
          "name": "role",
          "type": "bytes32"
        },
        {
          "indexed": true,
          "internalType": "address",
          "name": "account",
          "type": "address"
        },
        {
          "indexed": true,
          "internalType": "address",
          "name": "sender",
          "type": "address"
        }
      ],
      "name": "RoleRevoked",
      "type": "event"
    },
    {
      "anonymous": false,
      "inputs": [
        {
          "indexed": false,
          "internalType": "address",
          "name": "account",
          "type": "address"
        }
      ],
      "name": "Unpaused",
      "type": "event"
    },
    {
      "inputs": [],
      "name": "DEFAULT_ADMIN_ROLE",
      "outputs": [
        {
          "internalType": "bytes32",
          "name": "",
          "type": "bytes32"
        }
      ],
      "stateMutability": "view",
      "type": "function"
    },
    {
      "inputs": [],
      "name": "ID_TYPE_0",
      "outputs": [
        {
          "internalType": "uint256",
          "name": "",
          "type": "uint256"
        }
      ],
      "stateMutability": "view",
      "type": "function"
    },
    {
      "inputs": [],
      "name": "ID_TYPE_1",
      "outputs": [
        {
          "internalType": "uint256",
          "name": "",
          "type": "uint256"
        }
      ],
      "stateMutability": "view",
      "type": "function"
    },
    {
      "inputs": [],
      "name": "ID_TYPE_10",
      "outputs": [
        {
          "internalType": "uint256",
          "name": "",
          "type": "uint256"
        }
      ],
      "stateMutability": "view",
      "type": "function"
    },
    {
      "inputs": [],
      "name": "ID_TYPE_2",
      "outputs": [
        {
          "internalType": "uint256",
          "name": "",
          "type": "uint256"
        }
      ],
      "stateMutability": "view",
      "type": "function"
    },
    {
      "inputs": [],
      "name": "ID_TYPE_3",
      "outputs": [
        {
          "internalType": "uint256",
          "name": "",
          "type": "uint256"
        }
      ],
      "stateMutability": "view",
      "type": "function"
    },
    {
      "inputs": [],
      "name": "ID_TYPE_4",
      "outputs": [
        {
          "internalType": "uint256",
          "name": "",
          "type": "uint256"
        }
      ],
      "stateMutability": "view",
      "type": "function"
    },
    {
      "inputs": [],
      "name": "ID_TYPE_5",
      "outputs": [
        {
          "internalType": "uint256",
          "name": "",
          "type": "uint256"
        }
      ],
      "stateMutability": "view",
      "type": "function"
    },
    {
      "inputs": [],
      "name": "ID_TYPE_6",
      "outputs": [
        {
          "internalType": "uint256",
          "name": "",
          "type": "uint256"
        }
      ],
      "stateMutability": "view",
      "type": "function"
    },
    {
      "inputs": [],
      "name": "ID_TYPE_7",
      "outputs": [
        {
          "internalType": "uint256",
          "name": "",
          "type": "uint256"
        }
      ],
      "stateMutability": "view",
      "type": "function"
    },
    {
      "inputs": [],
      "name": "ID_TYPE_8",
      "outputs": [
        {
          "internalType": "uint256",
          "name": "",
          "type": "uint256"
        }
      ],
      "stateMutability": "view",
      "type": "function"
    },
    {
      "inputs": [],
      "name": "ID_TYPE_9",
      "outputs": [
        {
          "internalType": "uint256",
          "name": "",
          "type": "uint256"
        }
      ],
      "stateMutability": "view",
      "type": "function"
    },
    {
      "inputs": [],
      "name": "OWNER_ROLE",
      "outputs": [
        {
          "internalType": "bytes32",
          "name": "",
          "type": "bytes32"
        }
      ],
      "stateMutability": "view",
      "type": "function"
    },
    {
      "inputs": [],
      "name": "PAUSER_ROLE",
      "outputs": [
        {
          "internalType": "bytes32",
          "name": "",
          "type": "bytes32"
        }
      ],
      "stateMutability": "view",
      "type": "function"
    },
    {
      "inputs": [],
      "name": "ZAPPER_ROLE",
      "outputs": [
        {
          "internalType": "bytes32",
          "name": "",
          "type": "bytes32"
        }
      ],
      "stateMutability": "view",
      "type": "function"
    },
    {
      "inputs": [
        {
          "internalType": "address",
          "name": "owner",
          "type": "address"
        }
      ],
      "name": "__BaseUpgradeablePausable__init",
      "outputs": [],
      "stateMutability": "nonpayable",
      "type": "function"
    },
    {
      "inputs": [],
      "name": "__PauserPausable__init",
      "outputs": [],
      "stateMutability": "nonpayable",
      "type": "function"
    },
    {
      "inputs": [
        {
          "internalType": "uint256",
          "name": "",
          "type": "uint256"
        }
      ],
      "name": "allIdTypes",
      "outputs": [
        {
          "internalType": "uint256",
          "name": "",
          "type": "uint256"
        }
      ],
      "stateMutability": "view",
      "type": "function"
    },
    {
      "inputs": [],
      "name": "config",
      "outputs": [
        {
          "internalType": "contract GoldfinchConfig",
          "name": "",
          "type": "address"
        }
      ],
      "stateMutability": "view",
      "type": "function"
    },
    {
      "inputs": [],
      "name": "getAllIdTypes",
      "outputs": [
        {
          "internalType": "uint256[]",
          "name": "",
          "type": "uint256[]"
        }
      ],
      "stateMutability": "view",
      "type": "function"
    },
    {
      "inputs": [
        {
          "internalType": "bytes32",
          "name": "role",
          "type": "bytes32"
        }
      ],
      "name": "getRoleAdmin",
      "outputs": [
        {
          "internalType": "bytes32",
          "name": "",
          "type": "bytes32"
        }
      ],
      "stateMutability": "view",
      "type": "function"
    },
    {
      "inputs": [
        {
          "internalType": "bytes32",
          "name": "role",
          "type": "bytes32"
        },
        {
          "internalType": "uint256",
          "name": "index",
          "type": "uint256"
        }
      ],
      "name": "getRoleMember",
      "outputs": [
        {
          "internalType": "address",
          "name": "",
          "type": "address"
        }
      ],
      "stateMutability": "view",
      "type": "function"
    },
    {
      "inputs": [
        {
          "internalType": "bytes32",
          "name": "role",
          "type": "bytes32"
        }
      ],
      "name": "getRoleMemberCount",
      "outputs": [
        {
          "internalType": "uint256",
          "name": "",
          "type": "uint256"
        }
      ],
      "stateMutability": "view",
      "type": "function"
    },
    {
      "inputs": [],
      "name": "getSeniorPoolIdTypes",
      "outputs": [
        {
          "internalType": "uint256[]",
          "name": "",
          "type": "uint256[]"
        }
      ],
      "stateMutability": "pure",
      "type": "function"
    },
    {
      "inputs": [
        {
          "internalType": "address",
          "name": "account",
          "type": "address"
        }
      ],
      "name": "go",
      "outputs": [
        {
          "internalType": "bool",
          "name": "",
          "type": "bool"
        }
      ],
      "stateMutability": "view",
      "type": "function"
    },
    {
      "inputs": [
        {
          "internalType": "address",
          "name": "account",
          "type": "address"
        },
        {
          "internalType": "uint256[]",
          "name": "onlyIdTypes",
          "type": "uint256[]"
        }
      ],
      "name": "goOnlyIdTypes",
      "outputs": [
        {
          "internalType": "bool",
          "name": "",
          "type": "bool"
        }
      ],
      "stateMutability": "view",
      "type": "function"
    },
    {
      "inputs": [
        {
          "internalType": "address",
          "name": "account",
          "type": "address"
        }
      ],
      "name": "goSeniorPool",
      "outputs": [
        {
          "internalType": "bool",
          "name": "",
          "type": "bool"
        }
      ],
      "stateMutability": "view",
      "type": "function"
    },
    {
      "inputs": [
        {
          "internalType": "bytes32",
          "name": "role",
          "type": "bytes32"
        },
        {
          "internalType": "address",
          "name": "account",
          "type": "address"
        }
      ],
      "name": "grantRole",
      "outputs": [],
      "stateMutability": "nonpayable",
      "type": "function"
    },
    {
      "inputs": [
        {
          "internalType": "bytes32",
          "name": "role",
          "type": "bytes32"
        },
        {
          "internalType": "address",
          "name": "account",
          "type": "address"
        }
      ],
      "name": "hasRole",
      "outputs": [
        {
          "internalType": "bool",
          "name": "",
          "type": "bool"
        }
      ],
      "stateMutability": "view",
      "type": "function"
    },
    {
      "inputs": [],
      "name": "initZapperRole",
      "outputs": [],
      "stateMutability": "nonpayable",
      "type": "function"
    },
    {
      "inputs": [
        {
          "internalType": "address",
          "name": "owner",
          "type": "address"
        },
        {
          "internalType": "contract GoldfinchConfig",
          "name": "_config",
          "type": "address"
        },
        {
          "internalType": "address",
          "name": "_uniqueIdentity",
          "type": "address"
        }
      ],
      "name": "initialize",
      "outputs": [],
      "stateMutability": "nonpayable",
      "type": "function"
    },
    {
      "inputs": [],
      "name": "isAdmin",
      "outputs": [
        {
          "internalType": "bool",
          "name": "",
          "type": "bool"
        }
      ],
      "stateMutability": "view",
      "type": "function"
    },
    {
      "inputs": [],
      "name": "legacyGoList",
      "outputs": [
        {
          "internalType": "contract GoldfinchConfig",
          "name": "",
          "type": "address"
        }
      ],
      "stateMutability": "view",
      "type": "function"
    },
    {
      "inputs": [],
      "name": "pause",
      "outputs": [],
      "stateMutability": "nonpayable",
      "type": "function"
    },
    {
      "inputs": [],
      "name": "paused",
      "outputs": [
        {
          "internalType": "bool",
          "name": "",
          "type": "bool"
        }
      ],
      "stateMutability": "view",
      "type": "function"
    },
    {
      "inputs": [],
      "name": "performUpgrade",
      "outputs": [],
      "stateMutability": "nonpayable",
      "type": "function"
    },
    {
      "inputs": [
        {
          "internalType": "bytes32",
          "name": "role",
          "type": "bytes32"
        },
        {
          "internalType": "address",
          "name": "account",
          "type": "address"
        }
      ],
      "name": "renounceRole",
      "outputs": [],
      "stateMutability": "nonpayable",
      "type": "function"
    },
    {
      "inputs": [
        {
          "internalType": "bytes32",
          "name": "role",
          "type": "bytes32"
        },
        {
          "internalType": "address",
          "name": "account",
          "type": "address"
        }
      ],
      "name": "revokeRole",
      "outputs": [],
      "stateMutability": "nonpayable",
      "type": "function"
    },
    {
      "inputs": [
        {
          "internalType": "contract GoldfinchConfig",
          "name": "_legacyGoList",
          "type": "address"
        }
      ],
      "name": "setLegacyGoList",
      "outputs": [],
      "stateMutability": "nonpayable",
      "type": "function"
    },
    {
      "inputs": [],
      "name": "uniqueIdentity",
      "outputs": [
        {
          "internalType": "address",
          "name": "",
          "type": "address"
        }
      ],
      "stateMutability": "view",
      "type": "function"
    },
    {
      "inputs": [],
      "name": "unpause",
      "outputs": [],
      "stateMutability": "nonpayable",
      "type": "function"
    }
  ],
  "transactionHash": "0xf623e4cabe47fd67d42693978f6c8b8b43ee02b738570179f96c25e871a67243",
  "args": [],
  "numDeployments": 2,
  "solcInputHash": "94913ac76e14e284866e844702da31b3",
  "bytecode": "0x608060405234801561001057600080fd5b50611b67806100206000396000f3fe608060405234801561001057600080fd5b50600436106102535760003560e01c80639010d07c11610146578063d547741f116100c3578063e85e772a11610087578063e85e772a14610436578063ec2e8a751461043e578063ef28057614610446578063f2b607811461044e578063f66256bf14610461578063fb285ed01461046957610253565b8063d547741f14610403578063ddd8f68714610416578063e57a2a501461041e578063e58378bb14610426578063e63ab1e91461042e57610253565b8063a4eca0c21161010a578063a4eca0c2146103b8578063b6db75a0146103cd578063c0c53b8b146103d5578063ca15c873146103e8578063d00d472e146103fb57610253565b80639010d07c1461037757806391d148541461038a5780639b56d7881461039d578063a217fddf1461039d578063a37b92c9146103a557610253565b8063479e743c116101d4578063701d240a11610198578063701d240a1461034257806379502c551461034a578063801dfa901461035f57806380f87802146103675780638456cb591461036f57610253565b8063479e743c1461031a5780634d4e3e0c14610322578063526d81f61461032a5780635344626a146103325780635c975abb1461033a57610253565b80632f2ff15d1161021b5780632f2ff15d146102c6578063311c5078146102d95780633434e749146102ec57806336568abe146102ff5780633f4ba83a1461031257610253565b8063097616a3146102585780631484bddd1461026d5780631852f2001461028b578063248a9ca3146102ab5780632e82d895146102be575b600080fd5b61026b610266366004611516565b610471565b005b6102756105aa565b6040516102829190611786565b60405180910390f35b61029e61029936600461154e565b6105af565b604051610282919061177b565b6102756102b9366004611670565b61088f565b6102756108a7565b61026b6102d4366004611688565b6108ac565b61026b6102e7366004611516565b6108f0565b61029e6102fa366004611516565b610937565b61026b61030d366004611688565b610945565b61026b610987565b6102756109c7565b6102756109cc565b61026b6109de565b610275610a69565b61029e610a6e565b610275610a77565b610352610a7c565b60405161028291906116f0565b610275610a8c565b610275610a91565b61026b610a96565b6103526103853660046116b7565b610ad4565b61029e610398366004611688565b610af3565b610275610b0b565b61029e6103b3366004611516565b610b10565b6103c0610b56565b6040516102829190611737565b61029e610bbf565b61026b6103e3366004611606565b610be0565b6102756103f6366004611670565b610cf9565b61026b610d10565b61026b610411366004611688565b610d3c565b610275610d76565b610275610d7b565b610275610d80565b610275610d92565b610352610da4565b610275610db4565b6103c0610db9565b61027561045c366004611670565b610e74565b610352610e89565b61026b610e99565b600054610100900460ff168061048a575061048a610ee3565b80610498575060005460ff16155b6104bd5760405162461bcd60e51b81526004016104b490611991565b60405180910390fd5b600054610100900460ff161580156104e8576000805460ff1961ff0019909116610100171660011790555b6001600160a01b03821661050e5760405162461bcd60e51b81526004016104b4906118ff565b610516610ee9565b61051e610f6a565b610526610ff6565b61053e600080516020611ad2833981519152836108e6565b610556600080516020611b12833981519152836108e6565b61057c600080516020611b12833981519152600080516020611ad2833981519152611085565b610594600080516020611ad283398151915280611085565b80156105a6576000805461ff00191690555b5050565b600881565b60006001600160a01b0383166105d75760405162461bcd60e51b81526004016104b49061184e565b6105ef600080516020611af283398151915284610af3565b156105fc57506001610889565b600061060661109a565b905060005b835181101561088257600084828151811061062257fe5b602002602001015190506000811480156106b3575060405163ad5a35e360e01b81526001600160a01b0384169063ad5a35e3906106639089906004016116f0565b60206040518083038186803b15801561067b57600080fd5b505afa15801561068f573d6000803e3d6000fd5b505050506040513d601f19601f820116820180604052508101906106b39190611650565b156106c45760019350505050610889565b6101c354604051627eeac760e11b81526000916001600160a01b03169062fdd58e906106f6908a90869060040161171e565b60206040518083038186803b15801561070e57600080fd5b505afa158015610722573d6000803e3d6000fd5b505050506040513d601f19601f8201168201806040525081019061074691906116d8565b9050801561075b576001945050505050610889565b6101c354604051627eeac760e11b81526000916001600160a01b03169062fdd58e9061078d903290879060040161171e565b60206040518083038186803b1580156107a557600080fd5b505afa1580156107b9573d6000803e3d6000fd5b505050506040513d601f19601f820116820180604052508101906107dd91906116d8565b90508015610874576101c35460405163e985e9c560e01b81526001600160a01b039091169063e985e9c5906108189032908c90600401611704565b60206040518083038186803b15801561083057600080fd5b505afa158015610844573d6000803e3d6000fd5b505050506040513d601f19601f820116820180604052508101906108689190611650565b95505050505050610889565b50505080600101905061060b565b5060009150505b92915050565b6000818152606560205260409020600201545b919050565b600381565b6000828152606560205260409020600201546108ca906103986110d2565b6108e65760405162461bcd60e51b81526004016104b4906117d1565b6105a682826110d6565b6108f8610bbf565b6109145760405162461bcd60e51b81526004016104b4906119fb565b6101c580546001600160a01b0319166001600160a01b0392909216919091179055565b600061088982610299610b56565b61094d6110d2565b6001600160a01b0316816001600160a01b03161461097d5760405162461bcd60e51b81526004016104b490611a46565b6105a6828261113f565b6109a1600080516020611b128339815191526103986110d2565b6109bd5760405162461bcd60e51b81526004016104b4906119df565b6109c56111a8565b565b600581565b600080516020611af283398151915281565b600054610100900460ff16806109f757506109f7610ee3565b80610a05575060005460ff16155b610a215760405162461bcd60e51b81526004016104b490611991565b600054610100900460ff16158015610a4c576000805460ff1961ff0019909116610100171660011790555b610a54610f6a565b8015610a66576000805461ff00191690555b50565b600681565b60975460ff1690565b600181565b6101c4546001600160a01b031681565b600781565b600281565b610ab0600080516020611b128339815191526103986110d2565b610acc5760405162461bcd60e51b81526004016104b4906119df565b6109c5611214565b6000828152606560205260408120610aec908361126d565b9392505050565b6000828152606560205260408120610aec9083611279565b600081565b6101c454600090610b29906001600160a01b031661128e565b6001600160a01b0316826001600160a01b03161415610b4a575060016108a2565b61088982610299610db9565b60408051600b8082526101808201909252606091829190602082016101608036833701905050905060005b600b811015610bb9576101c681600b8110610b9857fe5b0154828281518110610ba657fe5b6020908102919091010152600101610b81565b50905090565b6000610bdb600080516020611ad28339815191526103986110d2565b905090565b600054610100900460ff1680610bf95750610bf9610ee3565b80610c07575060005460ff16155b610c235760405162461bcd60e51b81526004016104b490611991565b600054610100900460ff16158015610c4e576000805460ff1961ff0019909116610100171660011790555b6001600160a01b03841615801590610c6e57506001600160a01b03831615155b8015610c8257506001600160a01b03821615155b610c9e5760405162461bcd60e51b81526004016104b490611934565b610ca784610471565b610caf61130e565b6101c480546001600160a01b038086166001600160a01b0319928316179092556101c38054928516929091169190911790558015610cf3576000805461ff00191690555b50505050565b600081815260656020526040812061088990611352565b610d18610bbf565b610d345760405162461bcd60e51b81526004016104b4906119fb565b6109c561130e565b600082815260656020526040902060020154610d5a906103986110d2565b61097d5760405162461bcd60e51b81526004016104b490611885565b600a81565b600981565b600080516020611ad283398151915281565b600080516020611b1283398151915281565b6101c5546001600160a01b031681565b600481565b6060610dc36114f8565b6040518060800160405280600081526020016001815260200160038152602001600481525090506060600467ffffffffffffffff81118015610e0457600080fd5b50604051908082528060200260200182016040528015610e2e578160200160208202803683370190505b50905060005b6004811015610e6d57828160048110610e4957fe5b6020020151828281518110610e5a57fe5b6020908102919091010152600101610e34565b5091505090565b6101c681600b8110610e8257fe5b0154905081565b6101c3546001600160a01b031681565b610ea1610bbf565b610ebd5760405162461bcd60e51b81526004016104b4906119fb565b6109c5600080516020611af2833981519152600080516020611ad2833981519152611085565b303b1590565b600054610100900460ff1680610f025750610f02610ee3565b80610f10575060005460ff16155b610f2c5760405162461bcd60e51b81526004016104b490611991565b600054610100900460ff16158015610a54576000805460ff1961ff0019909116610100171660011790558015610a66576000805461ff001916905550565b600054610100900460ff1680610f835750610f83610ee3565b80610f91575060005460ff16155b610fad5760405162461bcd60e51b81526004016104b490611991565b600054610100900460ff16158015610fd8576000805460ff1961ff0019909116610100171660011790555b6097805460ff191690558015610a66576000805461ff001916905550565b600054610100900460ff168061100f575061100f610ee3565b8061101d575060005460ff16155b6110395760405162461bcd60e51b81526004016104b490611991565b600054610100900460ff16158015611064576000805460ff1961ff0019909116610100171660011790555b60c9805460ff191660011790558015610a66576000805461ff001916905550565b60009182526065602052604090912060020155565b6101c5546000906001600160a01b0316156110c1576101c5546001600160a01b0316610bdb565b506101c4546001600160a01b031690565b3390565b60008281526065602052604090206110ee908261135d565b156105a6576110fb6110d2565b6001600160a01b0316816001600160a01b0316837f2f8788117e7eff1d82e926ec794901d17c78024a50270940304540a733656f0d60405160405180910390a45050565b60008281526065602052604090206111579082611372565b156105a6576111646110d2565b6001600160a01b0316816001600160a01b0316837ff6391f5c32d9c69d2a47ea670b442974b53935d1edc7fd64eb21e047a839171b60405160405180910390a45050565b60975460ff166111ca5760405162461bcd60e51b81526004016104b490611820565b6097805460ff191690557f5db9ee0a495bf2e6ff9c91a7834c1ba4fdd244a5e8aa4e537bd38aeae4b073aa6111fd6110d2565b60405161120a91906116f0565b60405180910390a1565b60975460ff16156112375760405162461bcd60e51b81526004016104b4906118d5565b6097805460ff191660011790557f62e78cea01bee320cd4e420270b5ea74000d11b0c9f74754ebdbfc544b05a2586111fd6110d2565b6000610aec8383611387565b6000610aec836001600160a01b0384166113cc565b604051635c9fcd8560e11b81526000906001600160a01b0383169063b93f9b0a906112be90601590600401611786565b60206040518083038186803b1580156112d657600080fd5b505afa1580156112ea573d6000803e3d6000fd5b505050506040513d601f19601f820116820180604052508101906108899190611532565b60006101c65560016101c75560026101c85560036101c95560046101ca5560056101cb5560066101cc5560076101cd5560086101ce5560096101cf55600a6101d055565b6000610889826113e4565b6000610aec836001600160a01b0384166113e8565b6000610aec836001600160a01b038416611432565b815460009082106113aa5760405162461bcd60e51b81526004016104b49061178f565b8260000182815481106113b957fe5b9060005260206000200154905092915050565b60009081526001919091016020526040902054151590565b5490565b60006113f483836113cc565b61142a57508154600181810184556000848152602080822090930184905584548482528286019093526040902091909155610889565b506000610889565b600081815260018301602052604081205480156114ee578354600019808301919081019060009087908390811061146557fe5b906000526020600020015490508087600001848154811061148257fe5b6000918252602080832090910192909255828152600189810190925260409020908401905586548790806114b257fe5b60019003818190600052602060002001600090559055866001016000878152602001908152602001600020600090556001945050505050610889565b6000915050610889565b60405180608001604052806004906020820280368337509192915050565b600060208284031215611527578081fd5b8135610aec81611abc565b600060208284031215611543578081fd5b8151610aec81611abc565b60008060408385031215611560578081fd5b823561156b81611abc565b915060208381013567ffffffffffffffff80821115611588578384fd5b818601915086601f83011261159b578384fd5b8135818111156115a9578485fd5b83810291506115b9848301611a95565b8181528481019084860184860187018b10156115d3578788fd5b8795505b838610156115f55780358352600195909501949186019186016115d7565b508096505050505050509250929050565b60008060006060848603121561161a578081fd5b833561162581611abc565b9250602084013561163581611abc565b9150604084013561164581611abc565b809150509250925092565b600060208284031215611661578081fd5b81518015158114610aec578182fd5b600060208284031215611681578081fd5b5035919050565b6000806040838503121561169a578182fd5b8235915060208301356116ac81611abc565b809150509250929050565b600080604083850312156116c9578182fd5b50508035926020909101359150565b6000602082840312156116e9578081fd5b5051919050565b6001600160a01b0391909116815260200190565b6001600160a01b0392831681529116602082015260400190565b6001600160a01b03929092168252602082015260400190565b6020808252825182820181905260009190848201906040850190845b8181101561176f57835183529284019291840191600101611753565b50909695505050505050565b901515815260200190565b90815260200190565b60208082526022908201527f456e756d657261626c655365743a20696e646578206f7574206f6620626f756e604082015261647360f01b606082015260800190565b6020808252602f908201527f416363657373436f6e74726f6c3a2073656e646572206d75737420626520616e60408201526e0818591b5a5b881d1bc819dc985b9d608a1b606082015260800190565b60208082526014908201527314185d5cd8589b194e881b9bdd081c185d5cd95960621b604082015260600190565b6020808252601d908201527f5a65726f2061646472657373206973206e6f7420676f2d6c6973746564000000604082015260600190565b60208082526030908201527f416363657373436f6e74726f6c3a2073656e646572206d75737420626520616e60408201526f2061646d696e20746f207265766f6b6560801b606082015260800190565b60208082526010908201526f14185d5cd8589b194e881c185d5cd95960821b604082015260600190565b6020808252818101527f4f776e65722063616e6e6f7420626520746865207a65726f2061646472657373604082015260600190565b6020808252603d908201527f4f776e657220616e6420636f6e66696720616e6420556e697175654964656e7460408201527f697479206164647265737365732063616e6e6f7420626520656d707479000000606082015260800190565b6020808252602e908201527f436f6e747261637420696e7374616e63652068617320616c726561647920626560408201526d195b881a5b9a5d1a585b1a5e995960921b606082015260800190565b6020808252600290820152614e4160f01b604082015260600190565b6020808252602b908201527f4d75737420686176652061646d696e20726f6c6520746f20706572666f726d2060408201526a3a3434b99030b1ba34b7b760a91b606082015260800190565b6020808252602f908201527f416363657373436f6e74726f6c3a2063616e206f6e6c792072656e6f756e636560408201526e103937b632b9903337b91039b2b63360891b606082015260800190565b60405181810167ffffffffffffffff81118282101715611ab457600080fd5b604052919050565b6001600160a01b0381168114610a6657600080fdfeb19546dff01e856fb3f010c267a7b1c60363cf8a4664e21cc89c26224620214ed624b04b6a86de88625cc0780256b85157c5a615db56d1357e0a97a30fde276765d7a28e3265b37a6474929f336521b332c1681b933f6cb9f3376673440d862aa2646970667358221220be08befaf777e384f6374d398dee158455347fc3e63ee87adf8a8f95dfcc817d64736f6c634300060c0033",
  "devdoc": {
    "kind": "dev",
    "methods": {
      "getRoleAdmin(bytes32)": {
        "details": "Returns the admin role that controls `role`. See {grantRole} and {revokeRole}. To change a role's admin, use {_setRoleAdmin}."
      },
      "getRoleMember(bytes32,uint256)": {
        "details": "Returns one of the accounts that have `role`. `index` must be a value between 0 and {getRoleMemberCount}, non-inclusive. Role bearers are not sorted in any particular way, and their ordering may change at any point. WARNING: When using {getRoleMember} and {getRoleMemberCount}, make sure you perform all queries on the same block. See the following https://forum.openzeppelin.com/t/iterating-over-elements-on-enumerableset-in-openzeppelin-contracts/2296[forum post] for more information."
      },
      "getRoleMemberCount(bytes32)": {
        "details": "Returns the number of accounts that have `role`. Can be used together with {getRoleMember} to enumerate all bearers of a role."
      },
      "go(address)": {
        "params": {
          "account": "The account whose go status to obtain"
        },
        "returns": {
          "_0": "The account's go status"
        }
      },
      "goOnlyIdTypes(address,uint256[])": {
        "params": {
          "account": "The account whose go status to obtain",
          "onlyIdTypes": "Array of id types to check balances"
        },
        "returns": {
          "_0": "The account's go status"
        }
      },
      "goSeniorPool(address)": {
        "params": {
          "account": "The account whose go status to obtain"
        },
        "returns": {
          "_0": "The account's go status"
        }
      },
      "grantRole(bytes32,address)": {
        "details": "Grants `role` to `account`. If `account` had not been already granted `role`, emits a {RoleGranted} event. Requirements: - the caller must have ``role``'s admin role."
      },
      "hasRole(bytes32,address)": {
        "details": "Returns `true` if `account` has been granted `role`."
      },
      "pause()": {
        "details": "Pauses all functions guarded by Pause See {Pausable-_pause}. Requirements: - the caller must have the PAUSER_ROLE."
      },
      "paused()": {
        "details": "Returns true if the contract is paused, and false otherwise."
      },
      "renounceRole(bytes32,address)": {
        "details": "Revokes `role` from the calling account. Roles are often managed via {grantRole} and {revokeRole}: this function's purpose is to provide a mechanism for accounts to lose their privileges if they are compromised (such as when a trusted device is misplaced). If the calling account had been granted `role`, emits a {RoleRevoked} event. Requirements: - the caller must be `account`."
      },
      "revokeRole(bytes32,address)": {
        "details": "Revokes `role` from `account`. If `account` had been granted `role`, emits a {RoleRevoked} event. Requirements: - the caller must have ``role``'s admin role."
      },
      "unpause()": {
        "details": "Unpauses the contract See {Pausable-_unpause}. Requirements: - the caller must have the Pauser role"
      }
    },
    "version": 1
  },
  "userdoc": {
    "kind": "user",
    "methods": {
      "getAllIdTypes()": {
        "notice": "Returns a dynamic array of all UID types"
      },
      "getSeniorPoolIdTypes()": {
        "notice": "Returns a dynamic array of UID types accepted by the senior pool"
      },
      "go(address)": {
        "notice": "Returns whether the provided account is go-listed for any UID type"
      },
      "goOnlyIdTypes(address,uint256[])": {
        "notice": "Returns whether the provided account is: 1. go-listed for use of the Goldfinch protocol for any of the provided UID token types 2. is allowed to act on behalf of the go-listed EOA initiating this transaction Go-listed is defined as: whether `balanceOf(account, id)` on the UniqueIdentity contract is non-zero (where `id` is a supported token id on UniqueIdentity), falling back to the account's status on the legacy go-list maintained on GoldfinchConfig."
      },
      "goSeniorPool(address)": {
        "notice": "Returns whether the provided account is go-listed for use of the SeniorPool on the Goldfinch protocol."
      },
      "setLegacyGoList(address)": {
        "notice": "sets the config that will be used as the source of truth for the go list instead of the config currently associated. To use the associated config for to list, set the override to the null address."
      },
      "uniqueIdentity()": {
        "notice": "Returns the address of the UniqueIdentity contract."
      }
    },
    "version": 1
  },
  "storageLayout": {
    "storage": [
      {
        "astId": 50,
        "contract": "contracts/protocol/core/Go.sol:Go",
        "label": "initialized",
        "offset": 0,
        "slot": "0",
        "type": "t_bool"
      },
      {
        "astId": 53,
        "contract": "contracts/protocol/core/Go.sol:Go",
        "label": "initializing",
        "offset": 1,
        "slot": "0",
        "type": "t_bool"
      },
      {
        "astId": 118,
        "contract": "contracts/protocol/core/Go.sol:Go",
        "label": "______gap",
        "offset": 0,
        "slot": "1",
        "type": "t_array(t_uint256)50_storage"
      },
      {
        "astId": 43,
        "contract": "contracts/protocol/core/Go.sol:Go",
        "label": "__gap",
        "offset": 0,
        "slot": "51",
        "type": "t_array(t_uint256)50_storage"
      },
      {
        "astId": 163,
        "contract": "contracts/protocol/core/Go.sol:Go",
        "label": "_roles",
        "offset": 0,
        "slot": "101",
        "type": "t_mapping(t_bytes32,t_struct(RoleData)159_storage)"
      },
      {
        "astId": 408,
        "contract": "contracts/protocol/core/Go.sol:Go",
        "label": "__gap",
        "offset": 0,
        "slot": "102",
        "type": "t_array(t_uint256)49_storage"
      },
      {
        "astId": 3017,
        "contract": "contracts/protocol/core/Go.sol:Go",
        "label": "_paused",
        "offset": 0,
        "slot": "151",
        "type": "t_bool"
      },
      {
        "astId": 3106,
        "contract": "contracts/protocol/core/Go.sol:Go",
        "label": "__gap",
        "offset": 0,
        "slot": "152",
        "type": "t_array(t_uint256)49_storage"
      },
      {
        "astId": 3115,
        "contract": "contracts/protocol/core/Go.sol:Go",
        "label": "_notEntered",
        "offset": 0,
        "slot": "201",
        "type": "t_bool"
      },
      {
        "astId": 3156,
        "contract": "contracts/protocol/core/Go.sol:Go",
        "label": "__gap",
        "offset": 0,
        "slot": "202",
        "type": "t_array(t_uint256)49_storage"
      },
      {
        "astId": 12963,
        "contract": "contracts/protocol/core/Go.sol:Go",
        "label": "__gap1",
        "offset": 0,
        "slot": "251",
        "type": "t_array(t_uint256)50_storage"
      },
      {
        "astId": 12967,
        "contract": "contracts/protocol/core/Go.sol:Go",
        "label": "__gap2",
        "offset": 0,
        "slot": "301",
        "type": "t_array(t_uint256)50_storage"
      },
      {
        "astId": 12971,
        "contract": "contracts/protocol/core/Go.sol:Go",
        "label": "__gap3",
        "offset": 0,
        "slot": "351",
        "type": "t_array(t_uint256)50_storage"
      },
      {
        "astId": 12975,
        "contract": "contracts/protocol/core/Go.sol:Go",
        "label": "__gap4",
        "offset": 0,
        "slot": "401",
        "type": "t_array(t_uint256)50_storage"
      },
      {
        "astId": 15817,
        "contract": "contracts/protocol/core/Go.sol:Go",
        "label": "uniqueIdentity",
        "offset": 0,
        "slot": "451",
        "type": "t_address"
      },
      {
        "astId": 15822,
        "contract": "contracts/protocol/core/Go.sol:Go",
        "label": "config",
        "offset": 0,
        "slot": "452",
        "type": "t_contract(GoldfinchConfig)16826"
      },
      {
        "astId": 15827,
        "contract": "contracts/protocol/core/Go.sol:Go",
        "label": "legacyGoList",
        "offset": 0,
        "slot": "453",
        "type": "t_contract(GoldfinchConfig)16826"
      },
      {
        "astId": 15831,
        "contract": "contracts/protocol/core/Go.sol:Go",
        "label": "allIdTypes",
        "offset": 0,
        "slot": "454",
        "type": "t_array(t_uint256)11_storage"
      }
    ],
    "types": {
      "t_address": {
        "encoding": "inplace",
        "label": "address",
        "numberOfBytes": "20"
      },
      "t_array(t_bytes32)dyn_storage": {
        "base": "t_bytes32",
        "encoding": "dynamic_array",
        "label": "bytes32[]",
        "numberOfBytes": "32"
      },
      "t_array(t_uint256)11_storage": {
        "base": "t_uint256",
        "encoding": "inplace",
        "label": "uint256[11]",
        "numberOfBytes": "352"
      },
      "t_array(t_uint256)49_storage": {
        "base": "t_uint256",
        "encoding": "inplace",
        "label": "uint256[49]",
        "numberOfBytes": "1568"
      },
      "t_array(t_uint256)50_storage": {
        "base": "t_uint256",
        "encoding": "inplace",
        "label": "uint256[50]",
        "numberOfBytes": "1600"
      },
      "t_bool": {
        "encoding": "inplace",
        "label": "bool",
        "numberOfBytes": "1"
      },
      "t_bytes32": {
        "encoding": "inplace",
        "label": "bytes32",
        "numberOfBytes": "32"
      },
      "t_contract(GoldfinchConfig)16826": {
        "encoding": "inplace",
        "label": "contract GoldfinchConfig",
        "numberOfBytes": "20"
      },
      "t_mapping(t_bytes32,t_struct(RoleData)159_storage)": {
        "encoding": "mapping",
        "key": "t_bytes32",
        "label": "mapping(bytes32 => struct AccessControlUpgradeSafe.RoleData)",
        "numberOfBytes": "32",
        "value": "t_struct(RoleData)159_storage"
      },
      "t_mapping(t_bytes32,t_uint256)": {
        "encoding": "mapping",
        "key": "t_bytes32",
        "label": "mapping(bytes32 => uint256)",
        "numberOfBytes": "32",
        "value": "t_uint256"
      },
      "t_struct(AddressSet)2792_storage": {
        "encoding": "inplace",
        "label": "struct EnumerableSet.AddressSet",
        "members": [
          {
            "astId": 2791,
            "contract": "contracts/protocol/core/Go.sol:Go",
            "label": "_inner",
            "offset": 0,
            "slot": "0",
            "type": "t_struct(Set)2612_storage"
          }
        ],
        "numberOfBytes": "64"
      },
      "t_struct(RoleData)159_storage": {
        "encoding": "inplace",
        "label": "struct AccessControlUpgradeSafe.RoleData",
        "members": [
          {
            "astId": 156,
            "contract": "contracts/protocol/core/Go.sol:Go",
            "label": "members",
            "offset": 0,
            "slot": "0",
            "type": "t_struct(AddressSet)2792_storage"
          },
          {
            "astId": 158,
            "contract": "contracts/protocol/core/Go.sol:Go",
            "label": "adminRole",
            "offset": 0,
            "slot": "2",
            "type": "t_bytes32"
          }
        ],
        "numberOfBytes": "96"
      },
      "t_struct(Set)2612_storage": {
        "encoding": "inplace",
        "label": "struct EnumerableSet.Set",
        "members": [
          {
            "astId": 2607,
            "contract": "contracts/protocol/core/Go.sol:Go",
            "label": "_values",
            "offset": 0,
            "slot": "0",
            "type": "t_array(t_bytes32)dyn_storage"
          },
          {
            "astId": 2611,
            "contract": "contracts/protocol/core/Go.sol:Go",
            "label": "_indexes",
            "offset": 0,
            "slot": "1",
            "type": "t_mapping(t_bytes32,t_uint256)"
          }
        ],
        "numberOfBytes": "64"
      },
      "t_uint256": {
        "encoding": "inplace",
        "label": "uint256",
        "numberOfBytes": "32"
      }
    }
  }
}