{
  "address": "0xba7B8e4ae02C33afF14e472856259DDc46B6DC21",
  "abi": [
    {
      "inputs": [
        {
          "internalType": "contract Context",
          "name": "_context",
          "type": "address"
        }
      ],
      "stateMutability": "nonpayable",
      "type": "constructor"
    },
    {
      "inputs": [],
      "name": "IndexGreaterThanTokenSupply",
      "type": "error"
    },
    {
      "inputs": [
        {
          "internalType": "uint256",
          "name": "eligibleAmount",
          "type": "uint256"
        },
        {
          "internalType": "uint256",
          "name": "nextEpochAmount",
          "type": "uint256"
        }
      ],
      "name": "InvalidHoldingsAdjustment",
      "type": "error"
    },
    {
      "inputs": [],
      "name": "NoTokensOwned",
      "type": "error"
    },
    {
      "inputs": [],
      "name": "NoTotalsInFutureEpochs",
      "type": "error"
    },
    {
      "inputs": [
        {
          "internalType": "uint256",
          "name": "tokenId",
          "type": "uint256"
        }
      ],
      "name": "NonexistantToken",
      "type": "error"
    },
    {
      "inputs": [],
      "name": "OneTokenPerAddress",
      "type": "error"
    },
    {
      "inputs": [],
      "name": "ReadOnly",
      "type": "error"
    },
    {
      "inputs": [
        {
          "internalType": "address",
          "name": "resource",
          "type": "address"
        },
        {
          "internalType": "address",
          "name": "accessor",
          "type": "address"
        }
      ],
      "name": "RequiresOperator",
      "type": "error"
    },
    {
      "inputs": [],
      "name": "ZeroAddress",
      "type": "error"
    },
    {
      "inputs": [],
      "name": "ZeroAddressInvalid",
      "type": "error"
    },
    {
      "anonymous": false,
      "inputs": [
        {
          "indexed": true,
          "internalType": "address",
          "name": "owner",
          "type": "address"
        },
        {
          "indexed": false,
          "internalType": "uint256",
          "name": "eligibleAmount",
          "type": "uint256"
        },
        {
          "indexed": false,
          "internalType": "uint256",
          "name": "nextEpochAmount",
          "type": "uint256"
        }
      ],
      "name": "AdjustedHoldings",
      "type": "event"
    },
    {
      "anonymous": false,
      "inputs": [
        {
          "indexed": true,
          "internalType": "address",
          "name": "owner",
          "type": "address"
        },
        {
          "indexed": true,
          "internalType": "address",
          "name": "approved",
          "type": "address"
        },
        {
          "indexed": true,
          "internalType": "uint256",
          "name": "tokenId",
          "type": "uint256"
        }
      ],
      "name": "Approval",
      "type": "event"
    },
    {
      "anonymous": false,
      "inputs": [
        {
          "indexed": true,
          "internalType": "address",
          "name": "owner",
          "type": "address"
        },
        {
          "indexed": true,
          "internalType": "address",
          "name": "operator",
          "type": "address"
        },
        {
          "indexed": false,
          "internalType": "bool",
          "name": "approved",
          "type": "bool"
        }
      ],
      "name": "ApprovalForAll",
      "type": "event"
    },
    {
      "anonymous": false,
      "inputs": [
        {
          "indexed": false,
          "internalType": "uint256",
          "name": "total",
          "type": "uint256"
        }
      ],
      "name": "Checkpoint",
      "type": "event"
    },
    {
      "anonymous": false,
      "inputs": [
        {
          "indexed": true,
          "internalType": "address",
          "name": "from",
          "type": "address"
        },
        {
          "indexed": true,
          "internalType": "address",
          "name": "to",
          "type": "address"
        },
        {
          "indexed": true,
          "internalType": "uint256",
          "name": "tokenId",
          "type": "uint256"
        }
      ],
      "name": "Transfer",
      "type": "event"
    },
    {
      "anonymous": false,
      "inputs": [
        {
          "indexed": false,
          "internalType": "uint256",
          "name": "eligibleAmount",
          "type": "uint256"
        },
        {
          "indexed": false,
          "internalType": "uint256",
          "name": "nextEpochAmount",
          "type": "uint256"
        }
      ],
      "name": "VaultTotalUpdate",
      "type": "event"
    },
    {
      "inputs": [
        {
          "internalType": "address",
          "name": "owner",
          "type": "address"
        },
        {
          "internalType": "uint256",
          "name": "eligibleAmount",
          "type": "uint256"
        },
        {
          "internalType": "uint256",
          "name": "nextEpochAmount",
          "type": "uint256"
        }
      ],
      "name": "adjustHoldings",
      "outputs": [
        {
          "internalType": "uint256",
          "name": "",
          "type": "uint256"
        }
      ],
      "stateMutability": "nonpayable",
      "type": "function"
    },
    {
      "inputs": [
        {
          "internalType": "address",
          "name": "",
          "type": "address"
        },
        {
          "internalType": "uint256",
          "name": "",
          "type": "uint256"
        }
      ],
      "name": "approve",
      "outputs": [],
      "stateMutability": "pure",
      "type": "function"
    },
    {
      "inputs": [
        {
          "internalType": "address",
          "name": "owner",
          "type": "address"
        }
      ],
      "name": "balanceOf",
      "outputs": [
        {
          "internalType": "uint256",
          "name": "",
          "type": "uint256"
        }
      ],
      "stateMutability": "view",
      "type": "function"
    },
    {
      "inputs": [],
      "name": "baseURI",
      "outputs": [
        {
          "internalType": "string",
          "name": "",
          "type": "string"
        }
      ],
      "stateMutability": "view",
      "type": "function"
    },
    {
      "inputs": [
        {
          "internalType": "address",
          "name": "owner",
          "type": "address"
        }
      ],
      "name": "checkpoint",
      "outputs": [],
      "stateMutability": "nonpayable",
      "type": "function"
    },
    {
      "inputs": [],
      "name": "currentTotal",
      "outputs": [
        {
          "internalType": "uint256",
          "name": "",
          "type": "uint256"
        }
      ],
      "stateMutability": "view",
      "type": "function"
    },
    {
      "inputs": [
        {
          "internalType": "address",
          "name": "owner",
          "type": "address"
        }
      ],
      "name": "currentValueOwnedBy",
      "outputs": [
        {
          "internalType": "uint256",
          "name": "",
          "type": "uint256"
        }
      ],
      "stateMutability": "view",
      "type": "function"
    },
    {
      "inputs": [
        {
          "internalType": "uint256",
          "name": "",
          "type": "uint256"
        }
      ],
      "name": "getApproved",
      "outputs": [
        {
          "internalType": "address",
          "name": "",
          "type": "address"
        }
      ],
      "stateMutability": "pure",
      "type": "function"
    },
    {
      "inputs": [],
      "name": "initialize",
      "outputs": [],
      "stateMutability": "nonpayable",
      "type": "function"
    },
    {
      "inputs": [
        {
          "internalType": "address",
          "name": "",
          "type": "address"
        },
        {
          "internalType": "address",
          "name": "",
          "type": "address"
        }
      ],
      "name": "isApprovedForAll",
      "outputs": [
        {
          "internalType": "bool",
          "name": "",
          "type": "bool"
        }
      ],
      "stateMutability": "pure",
      "type": "function"
    },
    {
      "inputs": [],
      "name": "name",
      "outputs": [
        {
          "internalType": "string",
          "name": "",
          "type": "string"
        }
      ],
      "stateMutability": "pure",
      "type": "function"
    },
    {
      "inputs": [
        {
          "internalType": "uint256",
          "name": "membershipId",
          "type": "uint256"
        }
      ],
      "name": "ownerOf",
      "outputs": [
        {
          "internalType": "address",
          "name": "owner",
          "type": "address"
        }
      ],
      "stateMutability": "view",
      "type": "function"
    },
    {
      "inputs": [
        {
          "internalType": "address",
          "name": "owner",
          "type": "address"
        }
      ],
      "name": "positionOwnedBy",
      "outputs": [
        {
          "components": [
            {
              "internalType": "address",
              "name": "owner",
              "type": "address"
            },
            {
              "internalType": "uint256",
              "name": "eligibleAmount",
              "type": "uint256"
            },
            {
              "internalType": "uint256",
              "name": "nextEpochAmount",
              "type": "uint256"
            },
            {
              "internalType": "uint256",
              "name": "createdTimestamp",
              "type": "uint256"
            },
            {
              "internalType": "uint256",
              "name": "checkpointEpoch",
              "type": "uint256"
            }
          ],
          "internalType": "struct Position",
          "name": "",
          "type": "tuple"
        }
      ],
      "stateMutability": "view",
      "type": "function"
    },
    {
      "inputs": [
        {
          "internalType": "address",
          "name": "",
          "type": "address"
        },
        {
          "internalType": "address",
          "name": "",
          "type": "address"
        },
        {
          "internalType": "uint256",
          "name": "",
          "type": "uint256"
        }
      ],
      "name": "safeTransferFrom",
      "outputs": [],
      "stateMutability": "pure",
      "type": "function"
    },
    {
      "inputs": [
        {
          "internalType": "address",
          "name": "",
          "type": "address"
        },
        {
          "internalType": "address",
          "name": "",
          "type": "address"
        },
        {
          "internalType": "uint256",
          "name": "",
          "type": "uint256"
        },
        {
          "internalType": "bytes",
          "name": "",
          "type": "bytes"
        }
      ],
      "name": "safeTransferFrom",
      "outputs": [],
      "stateMutability": "pure",
      "type": "function"
    },
    {
      "inputs": [
        {
          "internalType": "address",
          "name": "",
          "type": "address"
        },
        {
          "internalType": "bool",
          "name": "",
          "type": "bool"
        }
      ],
      "name": "setApprovalForAll",
      "outputs": [],
      "stateMutability": "pure",
      "type": "function"
    },
    {
      "inputs": [
        {
          "internalType": "string",
          "name": "uri",
          "type": "string"
        }
      ],
      "name": "setBaseURI",
      "outputs": [],
      "stateMutability": "nonpayable",
      "type": "function"
    },
    {
      "inputs": [
        {
          "internalType": "bytes4",
          "name": "id",
          "type": "bytes4"
        }
      ],
      "name": "supportsInterface",
      "outputs": [
        {
          "internalType": "bool",
          "name": "",
          "type": "bool"
        }
      ],
      "stateMutability": "pure",
      "type": "function"
    },
    {
      "inputs": [],
      "name": "symbol",
      "outputs": [
        {
          "internalType": "string",
          "name": "",
          "type": "string"
        }
      ],
      "stateMutability": "pure",
      "type": "function"
    },
    {
      "inputs": [
        {
          "internalType": "uint256",
          "name": "index",
          "type": "uint256"
        }
      ],
      "name": "tokenByIndex",
      "outputs": [
        {
          "internalType": "uint256",
          "name": "",
          "type": "uint256"
        }
      ],
      "stateMutability": "view",
      "type": "function"
    },
    {
      "inputs": [
        {
          "internalType": "address",
          "name": "owner",
          "type": "address"
        },
        {
          "internalType": "uint256",
          "name": "index",
          "type": "uint256"
        }
      ],
      "name": "tokenOfOwnerByIndex",
      "outputs": [
        {
          "internalType": "uint256",
          "name": "",
          "type": "uint256"
        }
      ],
      "stateMutability": "view",
      "type": "function"
    },
    {
      "inputs": [
        {
          "internalType": "uint256",
          "name": "tokenId",
          "type": "uint256"
        }
      ],
      "name": "tokenURI",
      "outputs": [
        {
          "internalType": "string",
          "name": "",
          "type": "string"
        }
      ],
      "stateMutability": "view",
      "type": "function"
    },
    {
      "inputs": [
        {
          "internalType": "uint256",
          "name": "epoch",
          "type": "uint256"
        }
      ],
      "name": "totalAtEpoch",
      "outputs": [
        {
          "internalType": "uint256",
          "name": "",
          "type": "uint256"
        }
      ],
      "stateMutability": "view",
      "type": "function"
    },
    {
      "inputs": [],
      "name": "totalSupply",
      "outputs": [
        {
          "internalType": "uint256",
          "name": "",
          "type": "uint256"
        }
      ],
      "stateMutability": "view",
      "type": "function"
    },
    {
      "inputs": [
        {
          "internalType": "address",
          "name": "",
          "type": "address"
        },
        {
          "internalType": "address",
          "name": "",
          "type": "address"
        },
        {
          "internalType": "uint256",
          "name": "",
          "type": "uint256"
        }
      ],
      "name": "transferFrom",
      "outputs": [],
      "stateMutability": "pure",
      "type": "function"
    }
  ],
  "transactionHash": "0xd5534450e5e62639e6572fe4051d3f76374f76fecb163873e76cafa79cbb6181",
  "args": [
    "0xd16BC944Bf20c86c4ED47Ce1a330a18538674C83"
  ],
  "solcInputHash": "eac65dc40e06b4b044f441f03029567a",
  "bytecode": "0x60a060405234801561001057600080fd5b5060405161182038038061182083398101604081905261002f91610040565b6001600160a01b0316608052610070565b60006020828403121561005257600080fd5b81516001600160a01b038116811461006957600080fd5b9392505050565b60805161178e6100926000396000818161057101526110c2015261178e6000f3fe608060405234801561001057600080fd5b50600436106101635760003560e01c80636352211e116100ce578063a22cb46511610087578063a22cb46514610300578063a350ed481461030e578063a5f2f66714610321578063a972985e1461037a578063b88d4fde1461038d578063c87b56dd1461039b578063e985e9c5146103ae57600080fd5b80636352211e1461027d5780636c0360eb146102a657806370a08231146102ae5780638129fc1c146102c15780639017a13c146102c957806395d89b41146102dc57600080fd5b80632f745c59116101205780632f745c59146102295780633da8bfc91461023c5780633de2d9721461024457806342842e0e1461021b5780634f6ccce71461025757806355f804b31461026a57600080fd5b806301ffc9a71461016857806306fdde0314610190578063081812fc146101c9578063095ea7b3146101f457806318160ddd1461020957806323b872dd1461021b575b600080fd5b61017b6101763660046111bf565b6103bc565b60405190151581526020015b60405180910390f35b6040805180820190915260148152730476f6c6466696e6368204d656d626572736869760641b60208201525b604051610187919061120d565b6101dc6101d7366004611240565b61040e565b6040516001600160a01b039091168152602001610187565b61020761020236600461126e565b610429565b005b6005545b604051908152602001610187565b61020761020236600461129a565b61020d61023736600461126e565b610442565b61020d6104a1565b61020d6102523660046112db565b6104b3565b61020d610265366004611240565b610537565b610207610278366004611341565b61056c565b6101dc61028b366004611240565b6000908152600360205260409020546001600160a01b031690565b6101bc610612565b61020d6102bc3660046112db565b6106a0565b6102076106d0565b61020d6102d7366004611240565b610793565b60408051808201909152600881526723a326a2a6a122a960c11b60208201526101bc565b610207610202366004611383565b61020d61031c3660046113c1565b610803565b61033461032f3660046112db565b610a43565b604051610187919081516001600160a01b031681526020808301519082015260408083015190820152606080830151908201526080918201519181019190915260a00190565b6102076103883660046112db565b610ade565b6102076102023660046113f6565b6101bc6103a9366004611240565b610b16565b61017b6101d7366004611469565b60006001600160e01b031982166380ac58cd60e01b14806103ed57506001600160e01b0319821663780e9d6360e01b145b8061040857506001600160e01b031982166301ffc9a760e01b145b92915050565b6000604051631a850ed760e31b815260040160405180910390fd5b604051631a850ed760e31b815260040160405180910390fd5b6001600160a01b03821660009081526004602052604081205480820361047b576040516334b5d06d60e21b815260040160405180910390fd5b821561049a57604051632316143b60e11b815260040160405180910390fd5b9392505050565b60006104ae6102d7610b94565b905090565b6001600160a01b0380821660009081526004602081815260408084205484526003808352818520825160a08101845281549097168752600181015493870193909352600283015491860191909152810154606085015201546080830181905290919061051d610b94565b111561052d576040015192915050565b6020015192915050565b600061054260055490565b821061056157604051633f7ee38f60e11b815260040160405180910390fd5b6104088260016114ad565b61059e7f00000000000000000000000000000000000000000000000000000000000000006001600160a01b0316610b9f565b604051632a6e138b60e11b81523060048201523360248201526001600160a01b0391909116906354dc27169060440160006040518083038186803b1580156105e557600080fd5b505afa1580156105f9573d6000803e3d6000fd5b506006925061060d9150839050848361155e565b505050565b6006805461061f906114d6565b80601f016020809104026020016040519081016040528092919081815260200182805461064b906114d6565b80156106985780601f1061066d57610100808354040283529160200191610698565b820191906000526020600020905b81548152906001019060200180831161067b57829003601f168201915b505050505081565b6001600160a01b0381166000908152600460205260408120546106c45760006106c7565b60015b60ff1692915050565b600054610100900460ff16806106e9575060005460ff16155b6107515760405162461bcd60e51b815260206004820152602e60248201527f496e697469616c697a61626c653a20636f6e747261637420697320616c72656160448201526d191e481a5b9a5d1a585b1a5e995960921b60648201526084015b60405180910390fd5b600054610100900460ff16158015610773576000805461ffff19166101011790555b61077b610b94565b6002558015610790576000805461ff00191690555b50565b600061079d610c8f565b8211156107bd57604051630bb92ffd60e21b815260040160405180910390fd5b6002548211156107f0576001600060025460016107da91906114ad565b8152602001908152602001600020549050919050565b5060009081526001602052604090205490565b60007f037db0999be9065c5f1306135b75a6ae2af104ed9f0d72669950e21e87a33f766108308133610ca4565b8383101561085b576040516368caeba760e01b81526004810185905260248101849052604401610748565b600061086686610d03565b905061087186610e02565b6000818152600360208181526040808420815160a08101835281546001600160a01b031681526001808301805483870190815260028501805496850196909652848801546060850152600490940154608084015288885295909452938a905590889055519192889291906108e3610b94565b8152602001908152602001600020546108fc919061161f565b61090691906114ad565b60016000610912610b94565b81526020019081526020016000208190555084816040015160016000610936610c8f565b81526020019081526020016000205461094f919061161f565b61095991906114ad565b60016000610965610c8f565b815260200190815260200160002081905550866001600160a01b03167fb5ac373069545fdd5da402c94d10b968168eb2c09893e9a1a1fd087b2b3b34b187876040516109bb929190918252602082015260400190565b60405180910390a27f32ea6f1ec4de7460c440fd872b28a1f5e867728132b4dcba7af1f3dfef775ba2600160006109f0610b94565b81526020019081526020016000205460016000610a0b610c8f565b815260200190815260200160002054604051610a31929190918252602082015260400190565b60405180910390a15095945050505050565b610a7e6040518060a0016040528060006001600160a01b03168152602001600081526020016000815260200160008152602001600081525090565b506001600160a01b039081166000908152600460208181526040808420548452600380835293819020815160a081018352815490961686526001810154928601929092526002820154908501529182015460608401520154608082015290565b7f037db0999be9065c5f1306135b75a6ae2af104ed9f0d72669950e21e87a33f76610b098133610ca4565b610b1282610e02565b5050565b606081600003610b3c57604051637705f84560e01b815260048101839052602401610748565b600554821115610b6257604051637705f84560e01b815260048101839052602401610748565b6006610b6d83610f9c565b604051602001610b7e929190611632565b6040516020818303038152906040529050919050565b60006104ae426110a5565b6000816001600160a01b031663f887ea406040518163ffffffff1660e01b8152600401602060405180830381865afa158015610bdf573d6000803e3d6000fd5b505050506040513d601f19601f82011682018060405250810190610c0391906116b9565b6001600160a01b0316630c0450127f9a671f6643eb8ac838fd3c79576dd800fe704b35ad30189c60f0f14dab948f2a6040518263ffffffff1660e01b8152600401610c4e91906116d6565b602060405180830381865afa158015610c6b573d6000803e3d6000fd5b505050506040513d601f19601f8201168201806040525081019061040891906116b9565b6000610c99610b94565b6104ae9060016114ad565b6001600160a01b038116610ccb5760405163d92e233d60e01b815260040160405180910390fd5b610cd582826110b4565b610b125760405163889a56bb60e01b81523060048201526001600160a01b0382166024820152604401610748565b60006001600160a01b038216610d2c57604051630a64406560e11b815260040160405180910390fd5b6001600160a01b0382166000908152600460205260409020548015610d515792915050565b60058054906000610d61836116eb565b9091555050600554600081815260036020819052604090912080546001600160a01b0319166001600160a01b038716178155429101559050610da1610b94565b60008281526003602090815260408083206004908101949094556001600160a01b0387168084529390915280822084905551839291907fddf252ad1be2c89b69c2b068fc378daa952ba7f163c4a11628f55a4df523b3ef908290a492915050565b6000610e0c610b94565b9050600254811115610e94576000600160006002546001610e2d91906114ad565b815260200190815260200160002054905060006002546002610e4f91906114ad565b90505b610e5d8360016114ad565b8111610e8657600081815260016020526040902082905580610e7e816116eb565b915050610e52565b50610e8f610b94565b600255505b6001600160a01b0382166000908152600460205260409020548015610f4457600081815260036020818152604092839020835160a08101855281546001600160a01b0316815260018201549281019290925260028101549382019390935290820154606082015260049091015460808201819052831115610f4257604080820151600084815260036020529190912060010155610f2f610b94565b6000838152600360205260409020600401555b505b7fde5ae8a37da230f7df39b8ea385fa1ab48e7caa55f1c25eaaef1ed8690f3699860016000610f71610b94565b815260200190815260200160002054604051610f8f91815260200190565b60405180910390a1505050565b606081600003610fc35750506040805180820190915260018152600360fc1b602082015290565b8160005b8115610fed5780610fd7816116eb565b9150610fe69050600a8361171a565b9150610fc7565b60008167ffffffffffffffff811115611008576110086114c0565b6040519080825280601f01601f191660200182016040528015611032576020820181803683370190505b5090505b841561109d5761104760018361161f565b9150611054600a8661172e565b61105f9060306114ad565b60f81b81838151811061107457611074611742565b60200101906001600160f81b031916908160001a905350611096600a8661171a565b9450611036565b949350505050565b600061040862093a808361171a565b6000816001600160a01b03167f00000000000000000000000000000000000000000000000000000000000000006001600160a01b031663f887ea406040518163ffffffff1660e01b8152600401602060405180830381865afa15801561111e573d6000803e3d6000fd5b505050506040513d601f19601f8201168201806040525081019061114291906116b9565b6001600160a01b0316630c045012856040518263ffffffff1660e01b815260040161116d91906116d6565b602060405180830381865afa15801561118a573d6000803e3d6000fd5b505050506040513d601f19601f820116820180604052508101906111ae91906116b9565b6001600160a01b0316149392505050565b6000602082840312156111d157600080fd5b81356001600160e01b03198116811461049a57600080fd5b60005b838110156112045781810151838201526020016111ec565b50506000910152565b602081526000825180602084015261122c8160408501602087016111e9565b601f01601f19169190910160400192915050565b60006020828403121561125257600080fd5b5035919050565b6001600160a01b038116811461079057600080fd5b6000806040838503121561128157600080fd5b823561128c81611259565b946020939093013593505050565b6000806000606084860312156112af57600080fd5b83356112ba81611259565b925060208401356112ca81611259565b929592945050506040919091013590565b6000602082840312156112ed57600080fd5b813561049a81611259565b60008083601f84011261130a57600080fd5b50813567ffffffffffffffff81111561132257600080fd5b60208301915083602082850101111561133a57600080fd5b9250929050565b6000806020838503121561135457600080fd5b823567ffffffffffffffff81111561136b57600080fd5b611377858286016112f8565b90969095509350505050565b6000806040838503121561139657600080fd5b82356113a181611259565b9150602083013580151581146113b657600080fd5b809150509250929050565b6000806000606084860312156113d657600080fd5b83356113e181611259565b95602085013595506040909401359392505050565b60008060008060006080868803121561140e57600080fd5b853561141981611259565b9450602086013561142981611259565b935060408601359250606086013567ffffffffffffffff81111561144c57600080fd5b611458888289016112f8565b969995985093965092949392505050565b6000806040838503121561147c57600080fd5b823561148781611259565b915060208301356113b681611259565b634e487b7160e01b600052601160045260246000fd5b8082018082111561040857610408611497565b634e487b7160e01b600052604160045260246000fd5b600181811c908216806114ea57607f821691505b60208210810361150a57634e487b7160e01b600052602260045260246000fd5b50919050565b601f82111561060d57600081815260208120601f850160051c810160208610156115375750805b601f850160051c820191505b8181101561155657828155600101611543565b505050505050565b67ffffffffffffffff831115611576576115766114c0565b61158a8361158483546114d6565b83611510565b6000601f8411600181146115be57600085156115a65750838201355b600019600387901b1c1916600186901b178355611618565b600083815260209020601f19861690835b828110156115ef57868501358255602094850194600190920191016115cf565b508682101561160c5760001960f88860031b161c19848701351681555b505060018560011b0183555b5050505050565b8181038181111561040857610408611497565b6000808454611640816114d6565b60018281168015611658576001811461166d5761169c565b60ff198416875282151583028701945061169c565b8860005260208060002060005b858110156116935781548a82015290840190820161167a565b50505082870194505b5050505083516116b08183602088016111e9565b01949350505050565b6000602082840312156116cb57600080fd5b815161049a81611259565b6001600160e01b031991909116815260200190565b6000600182016116fd576116fd611497565b5060010190565b634e487b7160e01b600052601260045260246000fd5b60008261172957611729611704565b500490565b60008261173d5761173d611704565b500690565b634e487b7160e01b600052603260045260246000fdfea2646970667358221220ef774c7db2d4ff1868e41276f302b861e7826ce08df1640db58558ea4ca4741464736f6c63430008100033",
  "devdoc": {
    "author": "Goldfinch",
    "events": {
      "Checkpoint(uint256)": {
        "params": {
          "total": "how much is stored in the vault at the current block.timestamp"
        }
      }
    },
    "kind": "dev",
    "methods": {
      "adjustHoldings(address,uint256,uint256)": {
        "params": {
          "eligibleAmount": "amount of points to apply to the current epoch",
          "nextEpochAmount": "amount of points to apply to the next epoch",
          "owner": "the owner to checkpoint"
        },
        "returns": {
          "_0": "id of the position"
        }
      },
      "balanceOf(address)": {
        "details": "Returns the number of tokens in ``owner``'s account."
      },
      "checkpoint(address)": {
        "details": "to collect rewards, this must be called before `increaseHoldings` or  `decreaseHoldings`. Those functions must call checkpoint internally  so the historical data will be lost otherwise.",
        "params": {
          "owner": "the owner to checkpoint"
        }
      },
      "currentTotal()": {
        "returns": {
          "_0": "total value in the vault as of block.timestamp"
        }
      },
      "currentValueOwnedBy(address)": {
        "params": {
          "owner": "address owning the positions"
        },
        "returns": {
          "_0": "sum of all positions held by an address"
        }
      },
      "name()": {
        "details": "Returns the token collection name."
      },
      "positionOwnedBy(address)": {
        "returns": {
          "_0": "position owned by `owner`"
        }
      },
      "symbol()": {
        "details": "Returns the token collection symbol."
      },
      "tokenByIndex(uint256)": {
        "details": "Returns a token ID at a given `index` of all the tokens stored by the contract. Use along with {totalSupply} to enumerate all tokens."
      },
      "tokenOfOwnerByIndex(address,uint256)": {
        "details": "Returns a token ID owned by `owner` at a given `index` of its token list. Use along with {balanceOf} to enumerate all of ``owner``'s tokens."
      },
      "tokenURI(uint256)": {
        "details": "Returns the Uniform Resource Identifier (URI) for `tokenId` token."
      },
      "totalAtEpoch(uint256)": {
        "returns": {
          "_0": "total value in the vault as of epoch"
        }
      },
      "totalSupply()": {
        "details": "Returns the total amount of tokens stored by the contract."
      }
    },
    "title": "MembershipVault",
    "version": 1
  },
  "userdoc": {
    "errors": {
      "IndexGreaterThanTokenSupply()": [
        {
          "notice": "Thrown when querying token supply with an index greater than the supply"
        }
      ],
      "InvalidHoldingsAdjustment(uint256,uint256)": [
        {
          "notice": "Thrown when adjusting holdings in an unsupported way"
        }
      ],
      "NoTokensOwned()": [
        {
          "notice": "Thrown when trying to access tokens from an address with no tokens"
        }
      ],
      "NoTotalsInFutureEpochs()": [
        {
          "notice": "Thrown when checking totals in future epochs"
        }
      ],
      "NonexistantToken(uint256)": [
        {
          "notice": "Thrown when requesting a nonexistant token"
        }
      ],
      "OneTokenPerAddress()": [
        {
          "notice": "Thrown when trying to access more than one token for an address"
        }
      ],
      "ZeroAddressInvalid()": [
        {
          "notice": "Thrown when depositing from address(0)"
        }
      ]
    },
    "events": {
      "AdjustedHoldings(address,uint256,uint256)": {
        "notice": "Emitted when an owner has adjusted their holdings in a vault"
      },
      "Checkpoint(uint256)": {
        "notice": "The vault has been checkpointed"
      },
      "VaultTotalUpdate(uint256,uint256)": {
        "notice": "Emitted when the total within the vault has changed"
      }
    },
    "kind": "user",
    "methods": {
      "adjustHoldings(address,uint256,uint256)": {
        "notice": "Record an adjustment in holdings. Eligible assets will update this epoch and  total assets will become eligible the subsequent epoch."
      },
      "baseURI()": {
        "notice": "base uri for the nft"
      },
      "checkpoint(address)": {
        "notice": "Checkpoint a specific owner & the vault total"
      },
      "currentTotal()": {
        "notice": "Get the total value in the vault as of block.timestamp"
      },
      "currentValueOwnedBy(address)": {
        "notice": "Get the current value of `owner`. This changes depending on the current  block.timestamp as increased holdings are not accounted for until the subsequent epoch."
      },
      "positionOwnedBy(address)": {
        "notice": "Get the position owned by `owner`"
      },
      "setBaseURI(string)": {
        "notice": "Set the base uri for the contract"
      },
      "totalAtEpoch(uint256)": {
        "notice": "Get the total value in the vault as of epoch"
      }
    },
    "notice": "Track assets held by owners in a vault, as well as the total held in the vault. Assets  are not accounted for until the next epoch for MEV protection.",
    "version": 1
  },
  "storageLayout": {
    "storage": [
      {
        "astId": 663,
        "contract": "contracts/protocol/core/membership/MembershipVault.sol:MembershipVault",
        "label": "_initialized",
        "offset": 0,
        "slot": "0",
        "type": "t_bool"
      },
      {
        "astId": 666,
        "contract": "contracts/protocol/core/membership/MembershipVault.sol:MembershipVault",
        "label": "_initializing",
        "offset": 1,
        "slot": "0",
        "type": "t_bool"
      },
      {
        "astId": 13351,
        "contract": "contracts/protocol/core/membership/MembershipVault.sol:MembershipVault",
        "label": "totalAmounts",
        "offset": 0,
        "slot": "1",
        "type": "t_mapping(t_uint256,t_uint256)"
      },
      {
        "astId": 13354,
        "contract": "contracts/protocol/core/membership/MembershipVault.sol:MembershipVault",
        "label": "checkpointEpoch",
        "offset": 0,
        "slot": "2",
        "type": "t_uint256"
      },
      {
        "astId": 13360,
        "contract": "contracts/protocol/core/membership/MembershipVault.sol:MembershipVault",
        "label": "positions",
        "offset": 0,
        "slot": "3",
        "type": "t_mapping(t_uint256,t_struct(Position)6923_storage)"
      },
      {
        "astId": 13365,
        "contract": "contracts/protocol/core/membership/MembershipVault.sol:MembershipVault",
        "label": "owners",
        "offset": 0,
        "slot": "4",
        "type": "t_mapping(t_address,t_uint256)"
      },
      {
        "astId": 13368,
        "contract": "contracts/protocol/core/membership/MembershipVault.sol:MembershipVault",
        "label": "membershipIdsTracker",
        "offset": 0,
        "slot": "5",
        "type": "t_uint256"
      },
      {
        "astId": 13371,
        "contract": "contracts/protocol/core/membership/MembershipVault.sol:MembershipVault",
        "label": "baseURI",
        "offset": 0,
        "slot": "6",
        "type": "t_string_storage"
      }
    ],
    "types": {
      "t_address": {
        "encoding": "inplace",
        "label": "address",
        "numberOfBytes": "20"
      },
      "t_bool": {
        "encoding": "inplace",
        "label": "bool",
        "numberOfBytes": "1"
      },
      "t_mapping(t_address,t_uint256)": {
        "encoding": "mapping",
        "key": "t_address",
        "label": "mapping(address => uint256)",
        "numberOfBytes": "32",
        "value": "t_uint256"
      },
      "t_mapping(t_uint256,t_struct(Position)6923_storage)": {
        "encoding": "mapping",
        "key": "t_uint256",
        "label": "mapping(uint256 => struct Position)",
        "numberOfBytes": "32",
        "value": "t_struct(Position)6923_storage"
      },
      "t_mapping(t_uint256,t_uint256)": {
        "encoding": "mapping",
        "key": "t_uint256",
        "label": "mapping(uint256 => uint256)",
        "numberOfBytes": "32",
        "value": "t_uint256"
      },
      "t_string_storage": {
        "encoding": "bytes",
        "label": "string",
        "numberOfBytes": "32"
      },
      "t_struct(Position)6923_storage": {
        "encoding": "inplace",
        "label": "struct Position",
        "members": [
          {
            "astId": 6914,
            "contract": "contracts/protocol/core/membership/MembershipVault.sol:MembershipVault",
            "label": "owner",
            "offset": 0,
            "slot": "0",
            "type": "t_address"
          },
          {
            "astId": 6916,
            "contract": "contracts/protocol/core/membership/MembershipVault.sol:MembershipVault",
            "label": "eligibleAmount",
            "offset": 0,
            "slot": "1",
            "type": "t_uint256"
          },
          {
            "astId": 6918,
            "contract": "contracts/protocol/core/membership/MembershipVault.sol:MembershipVault",
            "label": "nextEpochAmount",
            "offset": 0,
            "slot": "2",
            "type": "t_uint256"
          },
          {
            "astId": 6920,
            "contract": "contracts/protocol/core/membership/MembershipVault.sol:MembershipVault",
            "label": "createdTimestamp",
            "offset": 0,
            "slot": "3",
            "type": "t_uint256"
          },
          {
            "astId": 6922,
            "contract": "contracts/protocol/core/membership/MembershipVault.sol:MembershipVault",
            "label": "checkpointEpoch",
            "offset": 0,
            "slot": "4",
            "type": "t_uint256"
          }
        ],
        "numberOfBytes": "160"
      },
      "t_uint256": {
        "encoding": "inplace",
        "label": "uint256",
        "numberOfBytes": "32"
      }
    }
  }
}