{
  "address": "0xeC9470bAe865B656E8F3b223a8F66145505cb8c2",
  "abi": [
    {
      "anonymous": false,
      "inputs": [
        {
          "indexed": true,
          "internalType": "uint256",
          "name": "index",
          "type": "uint256"
        },
        {
          "indexed": true,
          "internalType": "address",
          "name": "account",
          "type": "address"
        },
        {
          "indexed": false,
          "internalType": "uint256",
          "name": "amount",
          "type": "uint256"
        }
      ],
      "name": "GrantAccepted",
      "type": "event"
    },
    {
      "anonymous": false,
      "inputs": [
        {
          "indexed": false,
          "internalType": "address",
          "name": "account",
          "type": "address"
        }
      ],
      "name": "Paused",
      "type": "event"
    },
    {
      "anonymous": false,
      "inputs": [
        {
          "indexed": true,
          "internalType": "bytes32",
          "name": "role",
          "type": "bytes32"
        },
        {
          "indexed": true,
          "internalType": "address",
          "name": "account",
          "type": "address"
        },
        {
          "indexed": true,
          "internalType": "address",
          "name": "sender",
          "type": "address"
        }
      ],
      "name": "RoleGranted",
      "type": "event"
    },
    {
      "anonymous": false,
      "inputs": [
        {
          "indexed": true,
          "internalType": "bytes32",
          "name": "role",
          "type": "bytes32"
        },
        {
          "indexed": true,
          "internalType": "address",
          "name": "account",
          "type": "address"
        },
        {
          "indexed": true,
          "internalType": "address",
          "name": "sender",
          "type": "address"
        }
      ],
      "name": "RoleRevoked",
      "type": "event"
    },
    {
      "anonymous": false,
      "inputs": [
        {
          "indexed": false,
          "internalType": "address",
          "name": "account",
          "type": "address"
        }
      ],
      "name": "Unpaused",
      "type": "event"
    },
    {
      "inputs": [],
      "name": "DEFAULT_ADMIN_ROLE",
      "outputs": [
        {
          "internalType": "bytes32",
          "name": "",
          "type": "bytes32"
        }
      ],
      "stateMutability": "view",
      "type": "function"
    },
    {
      "inputs": [],
      "name": "OWNER_ROLE",
      "outputs": [
        {
          "internalType": "bytes32",
          "name": "",
          "type": "bytes32"
        }
      ],
      "stateMutability": "view",
      "type": "function"
    },
    {
      "inputs": [],
      "name": "PAUSER_ROLE",
      "outputs": [
        {
          "internalType": "bytes32",
          "name": "",
          "type": "bytes32"
        }
      ],
      "stateMutability": "view",
      "type": "function"
    },
    {
      "inputs": [
        {
          "internalType": "address",
          "name": "owner",
          "type": "address"
        }
      ],
      "name": "__BaseUpgradeablePausable__init",
      "outputs": [],
      "stateMutability": "nonpayable",
      "type": "function"
    },
    {
      "inputs": [],
      "name": "__PauserPausable__init",
      "outputs": [],
      "stateMutability": "nonpayable",
      "type": "function"
    },
    {
      "inputs": [
        {
          "internalType": "uint256",
          "name": "index",
          "type": "uint256"
        },
        {
          "internalType": "uint256",
          "name": "amount",
          "type": "uint256"
        },
        {
          "internalType": "bytes32[]",
          "name": "merkleProof",
          "type": "bytes32[]"
        }
      ],
      "name": "acceptGrant",
      "outputs": [],
      "stateMutability": "nonpayable",
      "type": "function"
    },
    {
      "inputs": [
        {
          "internalType": "bytes32",
          "name": "role",
          "type": "bytes32"
        }
      ],
      "name": "getRoleAdmin",
      "outputs": [
        {
          "internalType": "bytes32",
          "name": "",
          "type": "bytes32"
        }
      ],
      "stateMutability": "view",
      "type": "function"
    },
    {
      "inputs": [
        {
          "internalType": "bytes32",
          "name": "role",
          "type": "bytes32"
        },
        {
          "internalType": "uint256",
          "name": "index",
          "type": "uint256"
        }
      ],
      "name": "getRoleMember",
      "outputs": [
        {
          "internalType": "address",
          "name": "",
          "type": "address"
        }
      ],
      "stateMutability": "view",
      "type": "function"
    },
    {
      "inputs": [
        {
          "internalType": "bytes32",
          "name": "role",
          "type": "bytes32"
        }
      ],
      "name": "getRoleMemberCount",
      "outputs": [
        {
          "internalType": "uint256",
          "name": "",
          "type": "uint256"
        }
      ],
      "stateMutability": "view",
      "type": "function"
    },
    {
      "inputs": [],
      "name": "gfi",
      "outputs": [
        {
          "internalType": "address",
          "name": "",
          "type": "address"
        }
      ],
      "stateMutability": "view",
      "type": "function"
    },
    {
      "inputs": [
        {
          "internalType": "bytes32",
          "name": "role",
          "type": "bytes32"
        },
        {
          "internalType": "address",
          "name": "account",
          "type": "address"
        }
      ],
      "name": "grantRole",
      "outputs": [],
      "stateMutability": "nonpayable",
      "type": "function"
    },
    {
      "inputs": [
        {
          "internalType": "bytes32",
          "name": "role",
          "type": "bytes32"
        },
        {
          "internalType": "address",
          "name": "account",
          "type": "address"
        }
      ],
      "name": "hasRole",
      "outputs": [
        {
          "internalType": "bool",
          "name": "",
          "type": "bool"
        }
      ],
      "stateMutability": "view",
      "type": "function"
    },
    {
      "inputs": [
        {
          "internalType": "address",
          "name": "owner",
          "type": "address"
        },
        {
          "internalType": "address",
          "name": "_gfi",
          "type": "address"
        },
        {
          "internalType": "bytes32",
          "name": "_merkleRoot",
          "type": "bytes32"
        }
      ],
      "name": "initialize",
      "outputs": [],
      "stateMutability": "nonpayable",
      "type": "function"
    },
    {
      "inputs": [],
      "name": "isAdmin",
      "outputs": [
        {
          "internalType": "bool",
          "name": "",
          "type": "bool"
        }
      ],
      "stateMutability": "view",
      "type": "function"
    },
    {
      "inputs": [
        {
          "internalType": "uint256",
          "name": "index",
          "type": "uint256"
        }
      ],
      "name": "isGrantAccepted",
      "outputs": [
        {
          "internalType": "bool",
          "name": "",
          "type": "bool"
        }
      ],
      "stateMutability": "view",
      "type": "function"
    },
    {
      "inputs": [],
      "name": "merkleRoot",
      "outputs": [
        {
          "internalType": "bytes32",
          "name": "",
          "type": "bytes32"
        }
      ],
      "stateMutability": "view",
      "type": "function"
    },
    {
      "inputs": [],
      "name": "pause",
      "outputs": [],
      "stateMutability": "nonpayable",
      "type": "function"
    },
    {
      "inputs": [],
      "name": "paused",
      "outputs": [
        {
          "internalType": "bool",
          "name": "",
          "type": "bool"
        }
      ],
      "stateMutability": "view",
      "type": "function"
    },
    {
      "inputs": [
        {
          "internalType": "bytes32",
          "name": "role",
          "type": "bytes32"
        },
        {
          "internalType": "address",
          "name": "account",
          "type": "address"
        }
      ],
      "name": "renounceRole",
      "outputs": [],
      "stateMutability": "nonpayable",
      "type": "function"
    },
    {
      "inputs": [
        {
          "internalType": "bytes32",
          "name": "role",
          "type": "bytes32"
        },
        {
          "internalType": "address",
          "name": "account",
          "type": "address"
        }
      ],
      "name": "revokeRole",
      "outputs": [],
      "stateMutability": "nonpayable",
      "type": "function"
    },
    {
      "inputs": [],
      "name": "unpause",
      "outputs": [],
      "stateMutability": "nonpayable",
      "type": "function"
    }
  ],
  "transactionHash": "0x0c3b0d9b86b39d7b514e5a070cca09eaeb617e72eb528ccf4819be781b37328e",
  "args": [],
  "solcInputHash": "ccc98fd8226eea26f3f19fdeeee195a9",
  "bytecode": "0x608060405234801561001057600080fd5b5061170b806100206000396000f3fe608060405234801561001057600080fd5b50600436106101375760003560e01c80636133f985116100b8578063a217fddf1161007c578063a217fddf14610369578063b6db75a014610371578063ca15c87314610379578063d547741f14610396578063e58378bb146103c2578063e63ab1e9146103ca57610137565b80636133f9851461026057806370d583bd146102965780638456cb59146103125780639010d07c1461031a57806391d148541461033d57610137565b806336568abe116100ff57806336568abe146101eb57806338dcb4f0146102175780633f4ba83a14610248578063526d81f6146102505780635c975abb1461025857610137565b8063097616a31461013c5780630c19b05e14610164578063248a9ca3146101885780632eb4a7ab146101b75780632f2ff15d146101bf575b600080fd5b6101626004803603602081101561015257600080fd5b50356001600160a01b03166103d2565b005b61016c610556565b604080516001600160a01b039092168252519081900360200190f35b6101a56004803603602081101561019e57600080fd5b5035610566565b60408051918252519081900360200190f35b6101a561057b565b610162600480360360408110156101d557600080fd5b50803590602001356001600160a01b0316610582565b6101626004803603604081101561020157600080fd5b50803590602001356001600160a01b03166105ea565b6102346004803603602081101561022d57600080fd5b503561064b565b604080519115158252519081900360200190f35b610162610672565b6101626106d1565b61023461077b565b6101626004803603606081101561027657600080fd5b506001600160a01b03813581169160208101359091169060400135610784565b610162600480360360608110156102ac57600080fd5b8135916020810135918101906060810160408201356401000000008111156102d357600080fd5b8201836020820111156102e557600080fd5b8035906020019184602083028401116401000000008311171561030757600080fd5b509092509050610952565b610162610b06565b61016c6004803603604081101561033057600080fd5b5080359060200135610b63565b6102346004803603604081101561035357600080fd5b50803590602001356001600160a01b0316610b84565b6101a5610b9c565b610234610ba1565b6101a56004803603602081101561038f57600080fd5b5035610bc2565b610162600480360360408110156103ac57600080fd5b50803590602001356001600160a01b0316610bd9565b6101a5610c32565b6101a5610c44565b600054610100900460ff16806103eb57506103eb610c56565b806103f9575060005460ff16155b6104345760405162461bcd60e51b815260040180806020018281038252602e81526020018061164f602e913960400191505060405180910390fd5b600054610100900460ff1615801561045f576000805460ff1961ff0019909116610100171660011790555b6001600160a01b0382166104ba576040805162461bcd60e51b815260206004820181905260248201527f4f776e65722063616e6e6f7420626520746865207a65726f2061646472657373604482015290519081900360640190fd5b6104c2610c5c565b6104ca610cfc565b6104d2610da7565b6104ea6000805160206115df833981519152836105e0565b61050260008051602061162f833981519152836105e0565b61052860008051602061162f8339815191526000805160206115df833981519152610e55565b6105406000805160206115df83398151915280610e55565b8015610552576000805461ff00191690555b5050565b6101c3546001600160a01b031681565b60009081526065602052604090206002015490565b6101c45481565b6000828152606560205260409020600201546105a5906105a0610e6a565b610b84565b6105e05760405162461bcd60e51b815260040180806020018281038252602f815260200180611584602f913960400191505060405180910390fd5b6105528282610e6e565b6105f2610e6a565b6001600160a01b0316816001600160a01b0316146106415760405162461bcd60e51b815260040180806020018281038252602f8152602001806116a7602f913960400191505060405180910390fd5b6105528282610ed7565b610100810460009081526101c56020526040902054600160ff9092169190911b9081161490565b61068c60008051602061162f8339815191526105a0610e6a565b6106c75760405162461bcd60e51b815260040180806020018281038252602c8152602001806115b3602c913960400191505060405180910390fd5b6106cf610f40565b565b600054610100900460ff16806106ea57506106ea610c56565b806106f8575060005460ff16155b6107335760405162461bcd60e51b815260040180806020018281038252602e81526020018061164f602e913960400191505060405180910390fd5b600054610100900460ff1615801561075e576000805460ff1961ff0019909116610100171660011790555b610766610cfc565b8015610778576000805461ff00191690555b50565b60975460ff1690565b600054610100900460ff168061079d575061079d610c56565b806107ab575060005460ff16155b6107e65760405162461bcd60e51b815260040180806020018281038252602e81526020018061164f602e913960400191505060405180910390fd5b600054610100900460ff16158015610811576000805460ff1961ff0019909116610100171660011790555b6001600160a01b03841661086c576040805162461bcd60e51b815260206004820152601d60248201527f4f776e657220616464726573732063616e6e6f7420626520656d707479000000604482015290519081900360640190fd5b6001600160a01b0383166108c7576040805162461bcd60e51b815260206004820152601b60248201527f47464920616464726573732063616e6e6f7420626520656d7074790000000000604482015290519081900360640190fd5b8161090f576040805162461bcd60e51b8152602060048201526013602482015272125b9d985b1a590813595c9adb19481c9bdbdd606a1b604482015290519081900360640190fd5b610918846103d2565b6101c380546001600160a01b0319166001600160a01b0385161790556101c4829055801561094c576000805461ff00191690555b50505050565b60975460ff161561099d576040805162461bcd60e51b815260206004820152601060248201526f14185d5cd8589b194e881c185d5cd95960821b604482015290519081900360640190fd5b6109a68461064b565b156109f1576040805162461bcd60e51b815260206004820152601660248201527511dc985b9d08185b1c9958591e481858d8d95c1d195960521b604482015290519081900360640190fd5b6040805160208082018790523360601b82840152605480830187905283518084039091018152607483018085528151918301919091206094928602808501840190955285825293610a6693919287928792839290910190849080828437600092019190915250506101c4549150849050610fde565b610aa7576040805162461bcd60e51b815260206004820152600d60248201526c24b73b30b634b210383937b7b360991b604482015290519081900360640190fd5b610ab085611087565b6101c354610ac8906001600160a01b031633866110af565b604080518581529051339187917f4676d6bba1b9934287b28bcfd87e5ce97507424d4f58063f157642a2f099ad279181900360200190a35050505050565b610b2060008051602061162f8339815191526105a0610e6a565b610b5b5760405162461bcd60e51b815260040180806020018281038252602c8152602001806115b3602c913960400191505060405180910390fd5b6106cf611106565b6000828152606560205260408120610b7b9083611187565b90505b92915050565b6000828152606560205260408120610b7b9083611193565b600081565b6000610bbd6000805160206115df8339815191526105a0610e6a565b905090565b6000818152606560205260408120610b7e906111a8565b600082815260656020526040902060020154610bf7906105a0610e6a565b6106415760405162461bcd60e51b81526004018080602001828103825260308152602001806115ff6030913960400191505060405180910390fd5b6000805160206115df83398151915281565b60008051602061162f83398151915281565b303b1590565b600054610100900460ff1680610c755750610c75610c56565b80610c83575060005460ff16155b610cbe5760405162461bcd60e51b815260040180806020018281038252602e81526020018061164f602e913960400191505060405180910390fd5b600054610100900460ff16158015610766576000805460ff1961ff0019909116610100171660011790558015610778576000805461ff001916905550565b600054610100900460ff1680610d155750610d15610c56565b80610d23575060005460ff16155b610d5e5760405162461bcd60e51b815260040180806020018281038252602e81526020018061164f602e913960400191505060405180910390fd5b600054610100900460ff16158015610d89576000805460ff1961ff0019909116610100171660011790555b6097805460ff191690558015610778576000805461ff001916905550565b600054610100900460ff1680610dc05750610dc0610c56565b80610dce575060005460ff16155b610e095760405162461bcd60e51b815260040180806020018281038252602e81526020018061164f602e913960400191505060405180910390fd5b600054610100900460ff16158015610e34576000805460ff1961ff0019909116610100171660011790555b60c9805460ff191660011790558015610778576000805461ff001916905550565b60009182526065602052604090912060020155565b3390565b6000828152606560205260409020610e8690826111b3565b1561055257610e93610e6a565b6001600160a01b0316816001600160a01b0316837f2f8788117e7eff1d82e926ec794901d17c78024a50270940304540a733656f0d60405160405180910390a45050565b6000828152606560205260409020610eef90826111c8565b1561055257610efc610e6a565b6001600160a01b0316816001600160a01b0316837ff6391f5c32d9c69d2a47ea670b442974b53935d1edc7fd64eb21e047a839171b60405160405180910390a45050565b60975460ff16610f8e576040805162461bcd60e51b815260206004820152601460248201527314185d5cd8589b194e881b9bdd081c185d5cd95960621b604482015290519081900360640190fd5b6097805460ff191690557f5db9ee0a495bf2e6ff9c91a7834c1ba4fdd244a5e8aa4e537bd38aeae4b073aa610fc1610e6a565b604080516001600160a01b039092168252519081900360200190a1565b600081815b855181101561107c576000868281518110610ffa57fe5b602002602001015190508083116110415782816040516020018083815260200182815260200192505050604051602081830303815290604052805190602001209250611073565b808360405160200180838152602001828152602001925050506040516020818303038152906040528051906020012092505b50600101610fe3565b509092149392505050565b610100810460009081526101c5602052604090208054600160ff9093169290921b9091179055565b604080516001600160a01b038416602482015260448082018490528251808303909101815260649091019091526020810180516001600160e01b031663a9059cbb60e01b1790526111019084906111dd565b505050565b60975460ff1615611151576040805162461bcd60e51b815260206004820152601060248201526f14185d5cd8589b194e881c185d5cd95960821b604482015290519081900360640190fd5b6097805460ff191660011790557f62e78cea01bee320cd4e420270b5ea74000d11b0c9f74754ebdbfc544b05a258610fc1610e6a565b6000610b7b8383611395565b6000610b7b836001600160a01b0384166113f9565b6000610b7e82611411565b6000610b7b836001600160a01b038416611415565b6000610b7b836001600160a01b03841661145f565b6111ef826001600160a01b0316611525565b611240576040805162461bcd60e51b815260206004820152601f60248201527f5361666545524332303a2063616c6c20746f206e6f6e2d636f6e747261637400604482015290519081900360640190fd5b60006060836001600160a01b0316836040518082805190602001908083835b6020831061127e5780518252601f19909201916020918201910161125f565b6001836020036101000a0380198251168184511680821785525050505050509050019150506000604051808303816000865af19150503d80600081146112e0576040519150601f19603f3d011682016040523d82523d6000602084013e6112e5565b606091505b50915091508161133c576040805162461bcd60e51b815260206004820181905260248201527f5361666545524332303a206c6f772d6c6576656c2063616c6c206661696c6564604482015290519081900360640190fd5b80511561094c5780806020019051602081101561135857600080fd5b505161094c5760405162461bcd60e51b815260040180806020018281038252602a81526020018061167d602a913960400191505060405180910390fd5b815460009082106113d75760405162461bcd60e51b81526004018080602001828103825260228152602001806115626022913960400191505060405180910390fd5b8260000182815481106113e657fe5b9060005260206000200154905092915050565b60009081526001919091016020526040902054151590565b5490565b600061142183836113f9565b61145757508154600181810184556000848152602080822090930184905584548482528286019093526040902091909155610b7e565b506000610b7e565b6000818152600183016020526040812054801561151b578354600019808301919081019060009087908390811061149257fe5b90600052602060002001549050808760000184815481106114af57fe5b6000918252602080832090910192909255828152600189810190925260409020908401905586548790806114df57fe5b60019003818190600052602060002001600090559055866001016000878152602001908152602001600020600090556001945050505050610b7e565b6000915050610b7e565b6000813f7fc5d2460186f7233c927e7db2dcc703c0e500b653ca82273b7bfad8045d85a47081811480159061155957508115155b94935050505056fe456e756d657261626c655365743a20696e646578206f7574206f6620626f756e6473416363657373436f6e74726f6c3a2073656e646572206d75737420626520616e2061646d696e20746f206772616e744d75737420686176652070617573657220726f6c6520746f20706572666f726d207468697320616374696f6eb19546dff01e856fb3f010c267a7b1c60363cf8a4664e21cc89c26224620214e416363657373436f6e74726f6c3a2073656e646572206d75737420626520616e2061646d696e20746f207265766f6b6565d7a28e3265b37a6474929f336521b332c1681b933f6cb9f3376673440d862a436f6e747261637420696e7374616e63652068617320616c7265616479206265656e20696e697469616c697a65645361666545524332303a204552433230206f7065726174696f6e20646964206e6f742073756363656564416363657373436f6e74726f6c3a2063616e206f6e6c792072656e6f756e636520726f6c657320666f722073656c66a2646970667358221220221f0c03127634f18cf9b4dea14d3ea10223ed5861a99945f0c8101df973bf4f64736f6c634300060c0033",
  "devdoc": {
    "kind": "dev",
    "methods": {
      "getRoleAdmin(bytes32)": {
        "details": "Returns the admin role that controls `role`. See {grantRole} and {revokeRole}. To change a role's admin, use {_setRoleAdmin}."
      },
      "getRoleMember(bytes32,uint256)": {
        "details": "Returns one of the accounts that have `role`. `index` must be a value between 0 and {getRoleMemberCount}, non-inclusive. Role bearers are not sorted in any particular way, and their ordering may change at any point. WARNING: When using {getRoleMember} and {getRoleMemberCount}, make sure you perform all queries on the same block. See the following https://forum.openzeppelin.com/t/iterating-over-elements-on-enumerableset-in-openzeppelin-contracts/2296[forum post] for more information."
      },
      "getRoleMemberCount(bytes32)": {
        "details": "Returns the number of accounts that have `role`. Can be used together with {getRoleMember} to enumerate all bearers of a role."
      },
      "grantRole(bytes32,address)": {
        "details": "Grants `role` to `account`. If `account` had not been already granted `role`, emits a {RoleGranted} event. Requirements: - the caller must have ``role``'s admin role."
      },
      "hasRole(bytes32,address)": {
        "details": "Returns `true` if `account` has been granted `role`."
      },
      "pause()": {
        "details": "Pauses all functions guarded by Pause See {Pausable-_pause}. Requirements: - the caller must have the PAUSER_ROLE."
      },
      "paused()": {
        "details": "Returns true if the contract is paused, and false otherwise."
      },
      "renounceRole(bytes32,address)": {
        "details": "Revokes `role` from the calling account. Roles are often managed via {grantRole} and {revokeRole}: this function's purpose is to provide a mechanism for accounts to lose their privileges if they are compromised (such as when a trusted device is misplaced). If the calling account had been granted `role`, emits a {RoleRevoked} event. Requirements: - the caller must be `account`."
      },
      "revokeRole(bytes32,address)": {
        "details": "Revokes `role` from `account`. If `account` had been granted `role`, emits a {RoleRevoked} event. Requirements: - the caller must have ``role``'s admin role."
      },
      "unpause()": {
        "details": "Unpauses the contract See {Pausable-_unpause}. Requirements: - the caller must have the Pauser role"
      }
    },
    "version": 1
  },
  "userdoc": {
    "events": {
      "GrantAccepted(uint256,address,uint256)": {
        "notice": "This event is triggered whenever a call to #acceptGrant succeeds."
      }
    },
    "kind": "user",
    "methods": {
      "acceptGrant(uint256,uint256,bytes32[])": {
        "notice": "Causes the sender to accept the grant consisting of the given details. Reverts if the inputs (which includes who the sender is) are invalid."
      },
      "gfi()": {
        "notice": "Returns the address of the GFI contract that is the token distributed as rewards by   this contract."
      },
      "isGrantAccepted(uint256)": {
        "notice": "Returns true if the index has been marked accepted."
      },
      "merkleRoot()": {
        "notice": "Returns the merkle root of the merkle tree containing grant details available to accept."
      }
    },
    "version": 1
  },
  "storageLayout": {
    "storage": [
      {
        "astId": 151,
        "contract": "contracts/rewards/MerkleDirectDistributor.sol:MerkleDirectDistributor",
        "label": "initialized",
        "offset": 0,
        "slot": "0",
        "type": "t_bool"
      },
      {
        "astId": 154,
        "contract": "contracts/rewards/MerkleDirectDistributor.sol:MerkleDirectDistributor",
        "label": "initializing",
        "offset": 1,
        "slot": "0",
        "type": "t_bool"
      },
      {
        "astId": 219,
        "contract": "contracts/rewards/MerkleDirectDistributor.sol:MerkleDirectDistributor",
        "label": "______gap",
        "offset": 0,
        "slot": "1",
        "type": "t_array(t_uint256)50_storage"
      },
      {
        "astId": 144,
        "contract": "contracts/rewards/MerkleDirectDistributor.sol:MerkleDirectDistributor",
        "label": "__gap",
        "offset": 0,
        "slot": "51",
        "type": "t_array(t_uint256)50_storage"
      },
      {
        "astId": 264,
        "contract": "contracts/rewards/MerkleDirectDistributor.sol:MerkleDirectDistributor",
        "label": "_roles",
        "offset": 0,
        "slot": "101",
        "type": "t_mapping(t_bytes32,t_struct(RoleData)260_storage)"
      },
      {
        "astId": 509,
        "contract": "contracts/rewards/MerkleDirectDistributor.sol:MerkleDirectDistributor",
        "label": "__gap",
        "offset": 0,
        "slot": "102",
        "type": "t_array(t_uint256)49_storage"
      },
      {
        "astId": 4429,
        "contract": "contracts/rewards/MerkleDirectDistributor.sol:MerkleDirectDistributor",
        "label": "_paused",
        "offset": 0,
        "slot": "151",
        "type": "t_bool"
      },
      {
        "astId": 4518,
        "contract": "contracts/rewards/MerkleDirectDistributor.sol:MerkleDirectDistributor",
        "label": "__gap",
        "offset": 0,
        "slot": "152",
        "type": "t_array(t_uint256)49_storage"
      },
      {
        "astId": 4527,
        "contract": "contracts/rewards/MerkleDirectDistributor.sol:MerkleDirectDistributor",
        "label": "_notEntered",
        "offset": 0,
        "slot": "201",
        "type": "t_bool"
      },
      {
        "astId": 4568,
        "contract": "contracts/rewards/MerkleDirectDistributor.sol:MerkleDirectDistributor",
        "label": "__gap",
        "offset": 0,
        "slot": "202",
        "type": "t_array(t_uint256)49_storage"
      },
      {
        "astId": 11937,
        "contract": "contracts/rewards/MerkleDirectDistributor.sol:MerkleDirectDistributor",
        "label": "__gap1",
        "offset": 0,
        "slot": "251",
        "type": "t_array(t_uint256)50_storage"
      },
      {
        "astId": 11941,
        "contract": "contracts/rewards/MerkleDirectDistributor.sol:MerkleDirectDistributor",
        "label": "__gap2",
        "offset": 0,
        "slot": "301",
        "type": "t_array(t_uint256)50_storage"
      },
      {
        "astId": 11945,
        "contract": "contracts/rewards/MerkleDirectDistributor.sol:MerkleDirectDistributor",
        "label": "__gap3",
        "offset": 0,
        "slot": "351",
        "type": "t_array(t_uint256)50_storage"
      },
      {
        "astId": 11949,
        "contract": "contracts/rewards/MerkleDirectDistributor.sol:MerkleDirectDistributor",
        "label": "__gap4",
        "offset": 0,
        "slot": "401",
        "type": "t_array(t_uint256)50_storage"
      },
      {
        "astId": 29475,
        "contract": "contracts/rewards/MerkleDirectDistributor.sol:MerkleDirectDistributor",
        "label": "gfi",
        "offset": 0,
        "slot": "451",
        "type": "t_address"
      },
      {
        "astId": 29478,
        "contract": "contracts/rewards/MerkleDirectDistributor.sol:MerkleDirectDistributor",
        "label": "merkleRoot",
        "offset": 0,
        "slot": "452",
        "type": "t_bytes32"
      },
      {
        "astId": 29482,
        "contract": "contracts/rewards/MerkleDirectDistributor.sol:MerkleDirectDistributor",
        "label": "acceptedBitMap",
        "offset": 0,
        "slot": "453",
        "type": "t_mapping(t_uint256,t_uint256)"
      }
    ],
    "types": {
      "t_address": {
        "encoding": "inplace",
        "label": "address",
        "numberOfBytes": "20"
      },
      "t_array(t_bytes32)dyn_storage": {
        "base": "t_bytes32",
        "encoding": "dynamic_array",
        "label": "bytes32[]",
        "numberOfBytes": "32"
      },
      "t_array(t_uint256)49_storage": {
        "base": "t_uint256",
        "encoding": "inplace",
        "label": "uint256[49]",
        "numberOfBytes": "1568"
      },
      "t_array(t_uint256)50_storage": {
        "base": "t_uint256",
        "encoding": "inplace",
        "label": "uint256[50]",
        "numberOfBytes": "1600"
      },
      "t_bool": {
        "encoding": "inplace",
        "label": "bool",
        "numberOfBytes": "1"
      },
      "t_bytes32": {
        "encoding": "inplace",
        "label": "bytes32",
        "numberOfBytes": "32"
      },
      "t_mapping(t_bytes32,t_struct(RoleData)260_storage)": {
        "encoding": "mapping",
        "key": "t_bytes32",
        "label": "mapping(bytes32 => struct AccessControlUpgradeSafe.RoleData)",
        "numberOfBytes": "32",
        "value": "t_struct(RoleData)260_storage"
      },
      "t_mapping(t_bytes32,t_uint256)": {
        "encoding": "mapping",
        "key": "t_bytes32",
        "label": "mapping(bytes32 => uint256)",
        "numberOfBytes": "32",
        "value": "t_uint256"
      },
      "t_mapping(t_uint256,t_uint256)": {
        "encoding": "mapping",
        "key": "t_uint256",
        "label": "mapping(uint256 => uint256)",
        "numberOfBytes": "32",
        "value": "t_uint256"
      },
      "t_struct(AddressSet)4204_storage": {
        "encoding": "inplace",
        "label": "struct EnumerableSet.AddressSet",
        "members": [
          {
            "astId": 4203,
            "contract": "contracts/rewards/MerkleDirectDistributor.sol:MerkleDirectDistributor",
            "label": "_inner",
            "offset": 0,
            "slot": "0",
            "type": "t_struct(Set)4024_storage"
          }
        ],
        "numberOfBytes": "64"
      },
      "t_struct(RoleData)260_storage": {
        "encoding": "inplace",
        "label": "struct AccessControlUpgradeSafe.RoleData",
        "members": [
          {
            "astId": 257,
            "contract": "contracts/rewards/MerkleDirectDistributor.sol:MerkleDirectDistributor",
            "label": "members",
            "offset": 0,
            "slot": "0",
            "type": "t_struct(AddressSet)4204_storage"
          },
          {
            "astId": 259,
            "contract": "contracts/rewards/MerkleDirectDistributor.sol:MerkleDirectDistributor",
            "label": "adminRole",
            "offset": 0,
            "slot": "2",
            "type": "t_bytes32"
          }
        ],
        "numberOfBytes": "96"
      },
      "t_struct(Set)4024_storage": {
        "encoding": "inplace",
        "label": "struct EnumerableSet.Set",
        "members": [
          {
            "astId": 4019,
            "contract": "contracts/rewards/MerkleDirectDistributor.sol:MerkleDirectDistributor",
            "label": "_values",
            "offset": 0,
            "slot": "0",
            "type": "t_array(t_bytes32)dyn_storage"
          },
          {
            "astId": 4023,
            "contract": "contracts/rewards/MerkleDirectDistributor.sol:MerkleDirectDistributor",
            "label": "_indexes",
            "offset": 0,
            "slot": "1",
            "type": "t_mapping(t_bytes32,t_uint256)"
          }
        ],
        "numberOfBytes": "64"
      },
      "t_uint256": {
        "encoding": "inplace",
        "label": "uint256",
        "numberOfBytes": "32"
      }
    }
  }
}