{
  "address": "0x361212F99a653B20AB6F8beDe07Cff8DeB5a5F28",
  "abi": [
    {
      "anonymous": false,
      "inputs": [
        {
          "indexed": true,
          "internalType": "address",
          "name": "capitalProvider",
          "type": "address"
        },
        {
          "indexed": false,
          "internalType": "uint256",
          "name": "amount",
          "type": "uint256"
        },
        {
          "indexed": false,
          "internalType": "uint256",
          "name": "shares",
          "type": "uint256"
        }
      ],
      "name": "DepositMade",
      "type": "event"
    },
    {
      "anonymous": false,
      "inputs": [
        {
          "indexed": false,
          "internalType": "uint256",
          "name": "newDuration",
          "type": "uint256"
        }
      ],
      "name": "EpochDurationChanged",
      "type": "event"
    },
    {
      "anonymous": false,
      "inputs": [
        {
          "indexed": true,
          "internalType": "uint256",
          "name": "epochId",
          "type": "uint256"
        },
        {
          "indexed": false,
          "internalType": "uint256",
          "name": "endTime",
          "type": "uint256"
        },
        {
          "indexed": false,
          "internalType": "uint256",
          "name": "fiduRequested",
          "type": "uint256"
        },
        {
          "indexed": false,
          "internalType": "uint256",
          "name": "usdcAllocated",
          "type": "uint256"
        },
        {
          "indexed": false,
          "internalType": "uint256",
          "name": "fiduLiquidated",
          "type": "uint256"
        }
      ],
      "name": "EpochEnded",
      "type": "event"
    },
    {
      "anonymous": false,
      "inputs": [
        {
          "indexed": true,
          "internalType": "uint256",
          "name": "epochId",
          "type": "uint256"
        },
        {
          "indexed": false,
          "internalType": "uint256",
          "name": "newEndTime",
          "type": "uint256"
        },
        {
          "indexed": false,
          "internalType": "uint256",
          "name": "oldEndTime",
          "type": "uint256"
        }
      ],
      "name": "EpochExtended",
      "type": "event"
    },
    {
      "anonymous": false,
      "inputs": [
        {
          "indexed": true,
          "internalType": "address",
          "name": "payer",
          "type": "address"
        },
        {
          "indexed": false,
          "internalType": "uint256",
          "name": "amount",
          "type": "uint256"
        }
      ],
      "name": "InterestCollected",
      "type": "event"
    },
    {
      "anonymous": false,
      "inputs": [
        {
          "indexed": true,
          "internalType": "address",
          "name": "tranchedPool",
          "type": "address"
        },
        {
          "indexed": false,
          "internalType": "uint256",
          "name": "amount",
          "type": "uint256"
        }
      ],
      "name": "InvestmentMadeInJunior",
      "type": "event"
    },
    {
      "anonymous": false,
      "inputs": [
        {
          "indexed": true,
          "internalType": "address",
          "name": "tranchedPool",
          "type": "address"
        },
        {
          "indexed": false,
          "internalType": "uint256",
          "name": "amount",
          "type": "uint256"
        }
      ],
      "name": "InvestmentMadeInSenior",
      "type": "event"
    },
    {
      "anonymous": false,
      "inputs": [
        {
          "indexed": false,
          "internalType": "address",
          "name": "account",
          "type": "address"
        }
      ],
      "name": "Paused",
      "type": "event"
    },
    {
      "anonymous": false,
      "inputs": [
        {
          "indexed": true,
          "internalType": "address",
          "name": "payer",
          "type": "address"
        },
        {
          "indexed": false,
          "internalType": "uint256",
          "name": "amount",
          "type": "uint256"
        }
      ],
      "name": "PrincipalCollected",
      "type": "event"
    },
    {
      "anonymous": false,
      "inputs": [
        {
          "indexed": true,
          "internalType": "address",
          "name": "tranchedPool",
          "type": "address"
        },
        {
          "indexed": false,
          "internalType": "int256",
          "name": "amount",
          "type": "int256"
        }
      ],
      "name": "PrincipalWrittenDown",
      "type": "event"
    },
    {
      "anonymous": false,
      "inputs": [
        {
          "indexed": true,
          "internalType": "address",
          "name": "user",
          "type": "address"
        },
        {
          "indexed": false,
          "internalType": "uint256",
          "name": "amount",
          "type": "uint256"
        }
      ],
      "name": "ReserveFundsCollected",
      "type": "event"
    },
    {
      "anonymous": false,
      "inputs": [
        {
          "indexed": true,
          "internalType": "address",
          "name": "user",
          "type": "address"
        },
        {
          "indexed": true,
          "internalType": "address",
          "name": "reserve",
          "type": "address"
        },
        {
          "indexed": false,
          "internalType": "uint256",
          "name": "amount",
          "type": "uint256"
        }
      ],
      "name": "ReserveSharesCollected",
      "type": "event"
    },
    {
      "anonymous": false,
      "inputs": [
        {
          "indexed": true,
          "internalType": "bytes32",
          "name": "role",
          "type": "bytes32"
        },
        {
          "indexed": true,
          "internalType": "address",
          "name": "account",
          "type": "address"
        },
        {
          "indexed": true,
          "internalType": "address",
          "name": "sender",
          "type": "address"
        }
      ],
      "name": "RoleGranted",
      "type": "event"
    },
    {
      "anonymous": false,
      "inputs": [
        {
          "indexed": true,
          "internalType": "bytes32",
          "name": "role",
          "type": "bytes32"
        },
        {
          "indexed": true,
          "internalType": "address",
          "name": "account",
          "type": "address"
        },
        {
          "indexed": true,
          "internalType": "address",
          "name": "sender",
          "type": "address"
        }
      ],
      "name": "RoleRevoked",
      "type": "event"
    },
    {
      "anonymous": false,
      "inputs": [
        {
          "indexed": false,
          "internalType": "address",
          "name": "account",
          "type": "address"
        }
      ],
      "name": "Unpaused",
      "type": "event"
    },
    {
      "anonymous": false,
      "inputs": [
        {
          "indexed": true,
          "internalType": "uint256",
          "name": "epochId",
          "type": "uint256"
        },
        {
          "indexed": true,
          "internalType": "uint256",
          "name": "tokenId",
          "type": "uint256"
        },
        {
          "indexed": true,
          "internalType": "address",
          "name": "operator",
          "type": "address"
        },
        {
          "indexed": false,
          "internalType": "uint256",
          "name": "fiduRequested",
          "type": "uint256"
        }
      ],
      "name": "WithdrawalAddedTo",
      "type": "event"
    },
    {
      "anonymous": false,
      "inputs": [
        {
          "indexed": true,
          "internalType": "uint256",
          "name": "epochId",
          "type": "uint256"
        },
        {
          "indexed": true,
          "internalType": "uint256",
          "name": "tokenId",
          "type": "uint256"
        },
        {
          "indexed": true,
          "internalType": "address",
          "name": "operator",
          "type": "address"
        },
        {
          "indexed": false,
          "internalType": "uint256",
          "name": "fiduCanceled",
          "type": "uint256"
        },
        {
          "indexed": false,
          "internalType": "uint256",
          "name": "reserveFidu",
          "type": "uint256"
        }
      ],
      "name": "WithdrawalCanceled",
      "type": "event"
    },
    {
      "anonymous": false,
      "inputs": [
        {
          "indexed": true,
          "internalType": "address",
          "name": "capitalProvider",
          "type": "address"
        },
        {
          "indexed": false,
          "internalType": "uint256",
          "name": "userAmount",
          "type": "uint256"
        },
        {
          "indexed": false,
          "internalType": "uint256",
          "name": "reserveAmount",
          "type": "uint256"
        }
      ],
      "name": "WithdrawalMade",
      "type": "event"
    },
    {
      "anonymous": false,
      "inputs": [
        {
          "indexed": true,
          "internalType": "uint256",
          "name": "epochId",
          "type": "uint256"
        },
        {
          "indexed": true,
          "internalType": "uint256",
          "name": "tokenId",
          "type": "uint256"
        },
        {
          "indexed": true,
          "internalType": "address",
          "name": "operator",
          "type": "address"
        },
        {
          "indexed": false,
          "internalType": "uint256",
          "name": "fiduRequested",
          "type": "uint256"
        }
      ],
      "name": "WithdrawalRequested",
      "type": "event"
    },
    {
      "inputs": [],
      "name": "DEFAULT_ADMIN_ROLE",
      "outputs": [
        {
          "internalType": "bytes32",
          "name": "",
          "type": "bytes32"
        }
      ],
      "stateMutability": "view",
      "type": "function"
    },
    {
      "inputs": [],
      "name": "OWNER_ROLE",
      "outputs": [
        {
          "internalType": "bytes32",
          "name": "",
          "type": "bytes32"
        }
      ],
      "stateMutability": "view",
      "type": "function"
    },
    {
      "inputs": [],
      "name": "PAUSER_ROLE",
      "outputs": [
        {
          "internalType": "bytes32",
          "name": "",
          "type": "bytes32"
        }
      ],
      "stateMutability": "view",
      "type": "function"
    },
    {
      "inputs": [],
      "name": "ZAPPER_ROLE",
      "outputs": [
        {
          "internalType": "bytes32",
          "name": "",
          "type": "bytes32"
        }
      ],
      "stateMutability": "view",
      "type": "function"
    },
    {
      "inputs": [
        {
          "internalType": "address",
          "name": "owner",
          "type": "address"
        }
      ],
      "name": "__BaseUpgradeablePausable__init",
      "outputs": [],
      "stateMutability": "nonpayable",
      "type": "function"
    },
    {
      "inputs": [],
      "name": "__PauserPausable__init",
      "outputs": [],
      "stateMutability": "nonpayable",
      "type": "function"
    },
    {
      "inputs": [
        {
          "internalType": "uint256",
          "name": "fiduAmount",
          "type": "uint256"
        },
        {
          "internalType": "uint256",
          "name": "tokenId",
          "type": "uint256"
        }
      ],
      "name": "addToWithdrawalRequest",
      "outputs": [],
      "stateMutability": "nonpayable",
      "type": "function"
    },
    {
      "inputs": [],
      "name": "assets",
      "outputs": [
        {
          "internalType": "uint256",
          "name": "",
          "type": "uint256"
        }
      ],
      "stateMutability": "view",
      "type": "function"
    },
    {
      "inputs": [
        {
          "internalType": "uint256",
          "name": "tokenId",
          "type": "uint256"
        }
      ],
      "name": "calculateWritedown",
      "outputs": [
        {
          "internalType": "uint256",
          "name": "",
          "type": "uint256"
        }
      ],
      "stateMutability": "view",
      "type": "function"
    },
    {
      "inputs": [
        {
          "internalType": "uint256",
          "name": "tokenId",
          "type": "uint256"
        }
      ],
      "name": "cancelWithdrawalRequest",
      "outputs": [
        {
          "internalType": "uint256",
          "name": "",
          "type": "uint256"
        }
      ],
      "stateMutability": "nonpayable",
      "type": "function"
    },
    {
      "inputs": [
        {
          "internalType": "uint256",
          "name": "tokenId",
          "type": "uint256"
        }
      ],
      "name": "claimWithdrawalRequest",
      "outputs": [
        {
          "internalType": "uint256",
          "name": "",
          "type": "uint256"
        }
      ],
      "stateMutability": "nonpayable",
      "type": "function"
    },
    {
      "inputs": [],
      "name": "config",
      "outputs": [
        {
          "internalType": "contract GoldfinchConfig",
          "name": "",
          "type": "address"
        }
      ],
      "stateMutability": "view",
      "type": "function"
    },
    {
      "inputs": [],
      "name": "currentEpoch",
      "outputs": [
        {
          "components": [
            {
              "internalType": "uint256",
              "name": "endsAt",
              "type": "uint256"
            },
            {
              "internalType": "uint256",
              "name": "fiduRequested",
              "type": "uint256"
            },
            {
              "internalType": "uint256",
              "name": "fiduLiquidated",
              "type": "uint256"
            },
            {
              "internalType": "uint256",
              "name": "usdcAllocated",
              "type": "uint256"
            }
          ],
          "internalType": "struct ISeniorPoolEpochWithdrawals.Epoch",
          "name": "",
          "type": "tuple"
        }
      ],
      "stateMutability": "view",
      "type": "function"
    },
    {
      "inputs": [
        {
          "internalType": "uint256",
          "name": "amount",
          "type": "uint256"
        }
      ],
      "name": "deposit",
      "outputs": [
        {
          "internalType": "uint256",
          "name": "depositShares",
          "type": "uint256"
        }
      ],
      "stateMutability": "nonpayable",
      "type": "function"
    },
    {
      "inputs": [
        {
          "internalType": "uint256",
          "name": "amount",
          "type": "uint256"
        },
        {
          "internalType": "uint256",
          "name": "deadline",
          "type": "uint256"
        },
        {
          "internalType": "uint8",
          "name": "v",
          "type": "uint8"
        },
        {
          "internalType": "bytes32",
          "name": "r",
          "type": "bytes32"
        },
        {
          "internalType": "bytes32",
          "name": "s",
          "type": "bytes32"
        }
      ],
      "name": "depositWithPermit",
      "outputs": [
        {
          "internalType": "uint256",
          "name": "depositShares",
          "type": "uint256"
        }
      ],
      "stateMutability": "nonpayable",
      "type": "function"
    },
    {
      "inputs": [],
      "name": "epochDuration",
      "outputs": [
        {
          "internalType": "uint256",
          "name": "",
          "type": "uint256"
        }
      ],
      "stateMutability": "view",
      "type": "function"
    },
    {
      "inputs": [
        {
          "internalType": "contract ITranchedPool",
          "name": "pool",
          "type": "address"
        }
      ],
      "name": "estimateInvestment",
      "outputs": [
        {
          "internalType": "uint256",
          "name": "",
          "type": "uint256"
        }
      ],
      "stateMutability": "view",
      "type": "function"
    },
    {
      "inputs": [
        {
          "internalType": "uint256",
          "name": "usdcAmount",
          "type": "uint256"
        }
      ],
      "name": "getNumShares",
      "outputs": [
        {
          "internalType": "uint256",
          "name": "",
          "type": "uint256"
        }
      ],
      "stateMutability": "view",
      "type": "function"
    },
    {
      "inputs": [
        {
          "internalType": "bytes32",
          "name": "role",
          "type": "bytes32"
        }
      ],
      "name": "getRoleAdmin",
      "outputs": [
        {
          "internalType": "bytes32",
          "name": "",
          "type": "bytes32"
        }
      ],
      "stateMutability": "view",
      "type": "function"
    },
    {
      "inputs": [
        {
          "internalType": "bytes32",
          "name": "role",
          "type": "bytes32"
        },
        {
          "internalType": "uint256",
          "name": "index",
          "type": "uint256"
        }
      ],
      "name": "getRoleMember",
      "outputs": [
        {
          "internalType": "address",
          "name": "",
          "type": "address"
        }
      ],
      "stateMutability": "view",
      "type": "function"
    },
    {
      "inputs": [
        {
          "internalType": "bytes32",
          "name": "role",
          "type": "bytes32"
        }
      ],
      "name": "getRoleMemberCount",
      "outputs": [
        {
          "internalType": "uint256",
          "name": "",
          "type": "uint256"
        }
      ],
      "stateMutability": "view",
      "type": "function"
    },
    {
      "inputs": [
        {
          "internalType": "bytes32",
          "name": "role",
          "type": "bytes32"
        },
        {
          "internalType": "address",
          "name": "account",
          "type": "address"
        }
      ],
      "name": "grantRole",
      "outputs": [],
      "stateMutability": "nonpayable",
      "type": "function"
    },
    {
      "inputs": [
        {
          "internalType": "bytes32",
          "name": "role",
          "type": "bytes32"
        },
        {
          "internalType": "address",
          "name": "account",
          "type": "address"
        }
      ],
      "name": "hasRole",
      "outputs": [
        {
          "internalType": "bool",
          "name": "",
          "type": "bool"
        }
      ],
      "stateMutability": "view",
      "type": "function"
    },
    {
      "inputs": [
        {
          "internalType": "address",
          "name": "owner",
          "type": "address"
        },
        {
          "internalType": "contract GoldfinchConfig",
          "name": "_config",
          "type": "address"
        }
      ],
      "name": "initialize",
      "outputs": [],
      "stateMutability": "nonpayable",
      "type": "function"
    },
    {
      "inputs": [],
      "name": "initializeEpochs",
      "outputs": [],
      "stateMutability": "nonpayable",
      "type": "function"
    },
    {
      "inputs": [
        {
          "internalType": "contract ITranchedPool",
          "name": "pool",
          "type": "address"
        }
      ],
      "name": "invest",
      "outputs": [
        {
          "internalType": "uint256",
          "name": "",
          "type": "uint256"
        }
      ],
      "stateMutability": "nonpayable",
      "type": "function"
    },
    {
      "inputs": [],
      "name": "isAdmin",
      "outputs": [
        {
          "internalType": "bool",
          "name": "",
          "type": "bool"
        }
      ],
      "stateMutability": "view",
      "type": "function"
    },
    {
      "inputs": [],
      "name": "pause",
      "outputs": [],
      "stateMutability": "nonpayable",
      "type": "function"
    },
    {
      "inputs": [],
      "name": "paused",
      "outputs": [
        {
          "internalType": "bool",
          "name": "",
          "type": "bool"
        }
      ],
      "stateMutability": "view",
      "type": "function"
    },
    {
      "inputs": [
        {
          "internalType": "uint256",
          "name": "tokenId",
          "type": "uint256"
        }
      ],
      "name": "redeem",
      "outputs": [],
      "stateMutability": "nonpayable",
      "type": "function"
    },
    {
      "inputs": [
        {
          "internalType": "bytes32",
          "name": "role",
          "type": "bytes32"
        },
        {
          "internalType": "address",
          "name": "account",
          "type": "address"
        }
      ],
      "name": "renounceRole",
      "outputs": [],
      "stateMutability": "nonpayable",
      "type": "function"
    },
    {
      "inputs": [
        {
          "internalType": "uint256",
          "name": "fiduAmount",
          "type": "uint256"
        }
      ],
      "name": "requestWithdrawal",
      "outputs": [
        {
          "internalType": "uint256",
          "name": "",
          "type": "uint256"
        }
      ],
      "stateMutability": "nonpayable",
      "type": "function"
    },
    {
      "inputs": [
        {
          "internalType": "bytes32",
          "name": "role",
          "type": "bytes32"
        },
        {
          "internalType": "address",
          "name": "account",
          "type": "address"
        }
      ],
      "name": "revokeRole",
      "outputs": [],
      "stateMutability": "nonpayable",
      "type": "function"
    },
    {
      "inputs": [
        {
          "internalType": "uint256",
          "name": "newEpochDuration",
          "type": "uint256"
        }
      ],
      "name": "setEpochDuration",
      "outputs": [],
      "stateMutability": "nonpayable",
      "type": "function"
    },
    {
      "inputs": [],
      "name": "sharePrice",
      "outputs": [
        {
          "internalType": "uint256",
          "name": "",
          "type": "uint256"
        }
      ],
      "stateMutability": "view",
      "type": "function"
    },
    {
      "inputs": [],
      "name": "sharesOutstanding",
      "outputs": [
        {
          "internalType": "uint256",
          "name": "",
          "type": "uint256"
        }
      ],
      "stateMutability": "view",
      "type": "function"
    },
    {
      "inputs": [],
      "name": "totalLoansOutstanding",
      "outputs": [
        {
          "internalType": "uint256",
          "name": "",
          "type": "uint256"
        }
      ],
      "stateMutability": "view",
      "type": "function"
    },
    {
      "inputs": [],
      "name": "totalWritedowns",
      "outputs": [
        {
          "internalType": "uint256",
          "name": "",
          "type": "uint256"
        }
      ],
      "stateMutability": "view",
      "type": "function"
    },
    {
      "inputs": [],
      "name": "unpause",
      "outputs": [],
      "stateMutability": "nonpayable",
      "type": "function"
    },
    {
      "inputs": [],
      "name": "usdcAvailable",
      "outputs": [
        {
          "internalType": "uint256",
          "name": "",
          "type": "uint256"
        }
      ],
      "stateMutability": "view",
      "type": "function"
    },
    {
      "inputs": [
        {
          "internalType": "uint256",
          "name": "usdcAmount",
          "type": "uint256"
        }
      ],
      "name": "withdraw",
      "outputs": [
        {
          "internalType": "uint256",
          "name": "amount",
          "type": "uint256"
        }
      ],
      "stateMutability": "nonpayable",
      "type": "function"
    },
    {
      "inputs": [
        {
          "internalType": "uint256",
          "name": "fiduAmount",
          "type": "uint256"
        }
      ],
      "name": "withdrawInFidu",
      "outputs": [
        {
          "internalType": "uint256",
          "name": "amount",
          "type": "uint256"
        }
      ],
      "stateMutability": "nonpayable",
      "type": "function"
    },
    {
      "inputs": [
        {
          "internalType": "uint256",
          "name": "tokenId",
          "type": "uint256"
        }
      ],
      "name": "withdrawalRequest",
      "outputs": [
        {
          "components": [
            {
              "internalType": "uint256",
              "name": "epochCursor",
              "type": "uint256"
            },
            {
              "internalType": "uint256",
              "name": "usdcWithdrawable",
              "type": "uint256"
            },
            {
              "internalType": "uint256",
              "name": "fiduRequested",
              "type": "uint256"
            }
          ],
          "internalType": "struct ISeniorPoolEpochWithdrawals.WithdrawalRequest",
          "name": "",
          "type": "tuple"
        }
      ],
      "stateMutability": "view",
      "type": "function"
    },
    {
      "inputs": [
        {
          "internalType": "uint256",
          "name": "tokenId",
          "type": "uint256"
        }
      ],
      "name": "writedown",
      "outputs": [],
      "stateMutability": "nonpayable",
      "type": "function"
    },
    {
      "inputs": [
        {
          "internalType": "uint256",
          "name": "",
          "type": "uint256"
        }
      ],
      "name": "writedownsByPoolToken",
      "outputs": [
        {
          "internalType": "uint256",
          "name": "",
          "type": "uint256"
        }
      ],
      "stateMutability": "view",
      "type": "function"
    }
  ],
  "transactionHash": "0x0d54c34ffa6a11afd95d42e69f7c171b38b99b3157d26812db165415e4e3b5c4",
  "args": [],
  "solcInputHash": "17fd27548ed6466074d1f288a8dc8836",
  "bytecode": "0x608060405234801561001057600080fd5b50614f48806100206000396000f3fe608060405234801561001057600080fd5b506004361061027f5760003560e01c806379502c551161015c578063adfa3308116100ce578063d547741f11610087578063d547741f14610505578063da4c5a9714610518578063db006a751461052b578063e58378bb1461053e578063e63ab1e914610546578063ed80c8501461054e5761027f565b8063adfa3308146104a9578063b6b55f25146104bc578063b6db75a0146104cf578063c5923023146104d7578063ca15c873146104df578063cf5f1f62146104f25761027f565b80639010d07c116101205780639010d07c1461044d57806391d1485414610460578063945ed49a146104735780639ee679e814610486578063a217fddf14610499578063a6f4487e146104a15761027f565b806379502c55146104025780637e30cdff146104175780638456cb591461042a578063855cb21b1461043257806387269729146104455761027f565b8063485cc955116101f5578063526d81f6116101b9578063526d81f6146103a257806358031d12146103aa5780635c975abb146103bd57806371a97305146103d2578063722eeec3146103da57806376671808146103ed5761027f565b8063485cc9551461034c5780634a970be71461035f5780634d4e3e0c146103725780634ff0876a1461037a5780635209cb98146103825761027f565b80632f2ff15d116102475780632f2ff15d146102f05780632f8f68df1461030357806330024dfe1461030b57806336568abe1461031e5780633f4ba83a1461033157806345b05d09146103395761027f565b806303f9c79314610284578063097616a3146102ad578063242d68c2146102c2578063248a9ca3146102ca5780632e1a7d4d146102dd575b600080fd5b61029761029236600461431e565b610556565b6040516102a491906145c0565b60405180910390f35b6102c06102bb36600461431e565b61087f565b005b6102976109af565b6102976102d83660046143ae565b610a17565b6102976102eb3660046143ae565b610a2f565b6102c06102fe3660046143c6565b610b01565b610297610b45565b6102c06103193660046143ae565b610bf6565b6102c061032c3660046143c6565b610ce7565b6102c0610d29565b6102976103473660046143ae565b610d69565b6102c061035a366004614356565b61112c565b61029761036d3660046144ba565b611251565b6102976112e6565b6102976112f8565b6103956103903660046143ae565b6112ff565b6040516102a49190614e27565b6102c06113e0565b6102976103b83660046143ae565b61146b565b6103c561153f565b6040516102a491906145b5565b610297611548565b6102976103e83660046143ae565b611565565b6103f5611637565b6040516102a49190614dfc565b61040a61167f565b6040516102a49190614523565b61029761042536600461431e565b61168f565b6102c0611750565b6102976104403660046143ae565b61178e565b6102976117a3565b61040a61045b3660046143ea565b6117aa565b6103c561046e3660046143c6565b6117c2565b6102c06104813660046143ae565b6117da565b6102976104943660046143ae565b611b2d565b610297611e2f565b610297611e34565b6102976104b73660046143ae565b611e3b565b6102976104ca3660046143ae565b6120e1565b6103c56123a3565b6102c06123bf565b6102976104ed3660046143ae565b6124ee565b6102976105003660046143ae565b612505565b6102c06105133660046143c6565b612518565b6102c06105263660046143ea565b612552565b6102c06105393660046143ae565b6127c3565b610297612966565b610297612978565b61029761298a565b60975460009060ff16156105855760405162461bcd60e51b815260040161057c90614945565b60405180910390fd5b60c95460ff166105a75760405162461bcd60e51b815260040161057c90614c98565b60c9805460ff191690556105ba82612991565b6105d65760405162461bcd60e51b815260040161057c9061496f565b6105de612a25565b506101c6546000906105f8906001600160a01b0316612a37565b90506000816001600160a01b031663ff8a4efe30866040518363ffffffff1660e01b815260040161062a9291906145f7565b60206040518083038186803b15801561064257600080fd5b505afa158015610656573d6000803e3d6000fd5b505050506040513d601f19601f8201168201806040525081019061067a919061447f565b90506000811161069c5760405162461bcd60e51b815260040161057c90614b80565b6101cd548111156106bf5760405162461bcd60e51b815260040161057c90614b57565b6101cd546106cd9082612a42565b6101cd556106db8482612a84565b6000846001600160a01b0316637976323d6040518163ffffffff1660e01b815260040160206040518083038186803b15801561071657600080fd5b505afa15801561072a573d6000803e3d6000fd5b505050506040513d601f19601f8201168201806040525081019061074e919061447f565b905060018110156107715760405162461bcd60e51b815260040161057c90614686565b600061077e826001612a42565b9050600061078b82612b29565b6101c45490915061079c9085612b3b565b6101c455604051631c57762b60e31b81526000906001600160a01b0389169063e2bbb158906107d19085908990600401614e48565b602060405180830381600087803b1580156107eb57600080fd5b505af11580156107ff573d6000803e3d6000fd5b505050506040513d601f19601f82011682018060405250810190610823919061447f565b9050876001600160a01b03167f86da25fff7a4075a94de2ffed109ca6748c3af22736eaf7efc75e3988f899d6e8660405161085e91906145c0565b60405180910390a29550505050505060c9805460ff19166001179055919050565b600054610100900460ff16806108985750610898612b60565b806108a6575060005460ff16155b6108c25760405162461bcd60e51b815260040161057c90614a46565b600054610100900460ff161580156108ed576000805460ff1961ff0019909116610100171660011790555b6001600160a01b0382166109135760405162461bcd60e51b815260040161057c906149d0565b61091b612b66565b610923612be7565b61092b612c73565b610943600080516020614eb383398151915283610b3b565b61095b600080516020614ef383398151915283610b3b565b610981600080516020614ef3833981519152600080516020614eb3833981519152612d02565b610999600080516020614eb383398151915280612d02565b80156109ab576000805461ff00191690555b5050565b60006109b961429d565b6109f86109c4612d17565b6040805160808101825282548152600183015460208201526002830154918101919091526003909101546060820152612d2d565b5060608101516101cd5491925090610a109082612a42565b9250505090565b6000818152606560205260409020600201545b919050565b60975460009060ff1615610a555760405162461bcd60e51b815260040161057c90614945565b60c95460ff16610a775760405162461bcd60e51b815260040161057c90614c98565b60c9805460ff19169055610a99600080516020614ed3833981519152336117c2565b610ab55760405162461bcd60e51b815260040161057c90614a94565b60008211610ad55760405162461bcd60e51b815260040161057c90614b04565b6000610ae08361178e565b9050610aec8382612dd4565b91505060c9805460ff19166001179055919050565b600082815260656020526040902060020154610b1f9061046e612f93565b610b3b5760405162461bcd60e51b815260040161057c906146e9565b6109ab8282612f97565b6000610b4f61429d565b610b5a6109c4612d17565b5060408101516101c65491925090610a10908290610b80906001600160a01b0316613000565b6001600160a01b03166318160ddd6040518163ffffffff1660e01b815260040160206040518083038186803b158015610bb857600080fd5b505afa158015610bcc573d6000803e3d6000fd5b505050506040513d601f19601f82011682018060405250810190610bf0919061447f565b90612a42565b610bfe6123a3565b610c1a5760405162461bcd60e51b815260040161057c90614d2b565b60008111610c3a5760405162461bcd60e51b815260040161057c90614add565b6000610c44612a25565b90504281600001541115610c91576101ce548154600091610c659190612a42565b6101ce8490559050610c8083610c7a8361300b565b90612b3b565b8083554210610c8b57fe5b50610ca5565b610ca282610c7a836000015461300b565b81555b6101ce8290556040517fc1057a49fd826ed693f6611f22b406e8f41bf73b45b6e8f757d4b14a58d6e9f190610cdb9084906145c0565b60405180910390a15050565b610cef612f93565b6001600160a01b0316816001600160a01b031614610d1f5760405162461bcd60e51b815260040161057c90614d76565b6109ab828261304a565b610d43600080516020614ef383398151915261046e612f93565b610d5f5760405162461bcd60e51b815260040161057c90614b3b565b610d676130b3565b565b60975460009060ff1615610d8f5760405162461bcd60e51b815260040161057c90614945565b60c95460ff16610db15760405162461bcd60e51b815260040161057c90614c98565b60c9805460ff191690556101c654610dd1906001600160a01b031661311f565b6001600160a01b031663a37b92c9336040518263ffffffff1660e01b8152600401610dfc9190614523565b60206040518083038186803b158015610e1457600080fd5b505afa158015610e28573d6000803e3d6000fd5b505050506040513d601f19601f82011682018060405250810190610e4c919061438e565b610e685760405162461bcd60e51b815260040161057c90614b3b565b6101c654610e7e906001600160a01b031661312a565b6001600160a01b0316636352211e836040518263ffffffff1660e01b8152600401610ea991906145c0565b60206040518083038186803b158015610ec157600080fd5b505afa158015610ed5573d6000803e3d6000fd5b505050506040513d601f19601f82011682018060405250810190610ef9919061433a565b6001600160a01b0316336001600160a01b031614610f295760405162461bcd60e51b815260040161057c90614b3b565b600080610f35846131aa565b91509150806002015460001415610f5e5760405162461bcd60e51b815260040161057c90614ab8565b6101c654600090610f77906001600160a01b03166131d0565b9050612710811115610f9b5760405162461bcd60e51b815260040161057c90614ccf565b6000610fc0612710610fba84866002015461325090919063ffffffff16565b9061328a565b90506000610fdb828560020154612a4290919063ffffffff16565b9050610ff884600201548660010154612a4290919063ffffffff16565b6001808701919091556000600286015584015461101857611018876132cc565b6101c6546110469033908390611036906001600160a01b0316613000565b6001600160a01b0316919061335f565b6101c65460009061105f906001600160a01b03166133b5565b6101c6549091506110809082908590611036906001600160a01b0316613000565b806001600160a01b0316336001600160a01b03167f2f47cf1f0d4e562a169cd1c3cbfbe9735c1fc3e12354494efb79ec1562e37272856040516110c391906145c0565b60405180910390a3336001600160a01b0316886101ca547ff88bc062cd1e95f16709f69e70c521e62602c9d2a875ad4882e8035d15eb3ad5858760405161110b929190614e48565b60405180910390a45094505050505060c9805460ff19166001179055919050565b600054610100900460ff16806111455750611145612b60565b80611153575060005460ff16155b61116f5760405162461bcd60e51b815260040161057c90614a46565b600054610100900460ff1615801561119a576000805460ff1961ff0019909116610100171660011790555b6001600160a01b038316158015906111ba57506001600160a01b03821615155b6111d65760405162461bcd60e51b815260040161057c906147e7565b6111df8361087f565b611205600080516020614ed3833981519152600080516020614eb3833981519152612d02565b6101c680546001600160a01b0319166001600160a01b038416179055670de0b6b3a76400006101c35560006101c48190556101c555801561124c576000805461ff00191690555b505050565b6101c65460009061126a906001600160a01b03166133cd565b6001600160a01b031663d505accf333089898989896040518863ffffffff1660e01b81526004016112a1979695949392919061455b565b600060405180830381600087803b1580156112bb57600080fd5b505af11580156112cf573d6000803e3d6000fd5b505050506112dc866120e1565b9695505050505050565b600080516020614ed383398151915281565b6101ce5490565b6113076142c5565b6101c65461131d906001600160a01b031661312a565b6001600160a01b0316636352211e836040518263ffffffff1660e01b815260040161134891906145c0565b60206040518083038186803b15801561136057600080fd5b505afa158015611374573d6000803e3d6000fd5b505050506040513d601f19601f82011682018060405250810190611398919061433a565b5060008281526101cc60209081526040918290208251606081018452815481526001820154928101929092526002810154928201929092526113d9906133e5565b9392505050565b600054610100900460ff16806113f957506113f9612b60565b80611407575060005460ff16155b6114235760405162461bcd60e51b815260040161057c90614a46565b600054610100900460ff1615801561144e576000805460ff1961ff0019909116610100171660011790555b611456612be7565b8015611468576000805461ff00191690555b50565b60975460009060ff16156114915760405162461bcd60e51b815260040161057c90614945565b60c95460ff166114b35760405162461bcd60e51b815260040161057c90614c98565b60c9805460ff191690556114d5600080516020614ed3833981519152336117c2565b6114f15760405162461bcd60e51b815260040161057c90614a94565b600082116115115760405162461bcd60e51b815260040161057c90614b04565b600061151c8361356a565b9050826115298282612dd4565b9250505060c9805460ff19166001179055919050565b60975460ff1690565b60006115606101c554610bf06101c454610c7a6109af565b905090565b600061156f6142e6565b6101c654611585906001600160a01b0316613579565b6001600160a01b0316638c7a63ae846040518263ffffffff1660e01b81526004016115b091906145c0565b60a06040518083038186803b1580156115c857600080fd5b505afa1580156115dc573d6000803e3d6000fd5b505050506040513d601f19601f82011682018060405250810190611600919061440b565b805160608201516040830151929350909160009161161e9190612a42565b9050600061162c8383613584565b979650505050505050565b61163f61429d565b61164761429d565b60006116546109c4612d17565b9092509050600281600281111561166757fe5b141561167957611676826136bc565b91505b50905090565b6101c6546001600160a01b031681565b600061169a82612991565b6116b65760405162461bcd60e51b815260040161057c9061496f565b6101c6546000906116cf906001600160a01b0316612a37565b604051631f999a2d60e01b81529091506001600160a01b03821690631f999a2d9061170090309087906004016145f7565b60206040518083038186803b15801561171857600080fd5b505afa15801561172c573d6000803e3d6000fd5b505050506040513d601f19601f820116820180604052508101906113d9919061447f565b61176a600080516020614ef383398151915261046e612f93565b6117865760405162461bcd60e51b815260040161057c90614b3b565b610d67613700565b600061179d826101c354613759565b92915050565b6101c35481565b60008281526065602052604081206113d99083613774565b60008281526065602052604081206113d99083613780565b60975460ff16156117fd5760405162461bcd60e51b815260040161057c90614945565b60c95460ff1661181f5760405162461bcd60e51b815260040161057c90614c98565b60c9805460ff191690556101c654600090611842906001600160a01b0316613579565b6040516331a9108f60e11b81529091506001600160a01b03821690636352211e906118719085906004016145c0565b60206040518083038186803b15801561188957600080fd5b505afa15801561189d573d6000803e3d6000fd5b505050506040513d601f19601f820116820180604052508101906118c1919061433a565b6001600160a01b0316306001600160a01b0316146118f15760405162461bcd60e51b815260040161057c90614868565b6118f96142e6565b60405163463d31d760e11b81526001600160a01b03831690638c7a63ae906119259086906004016145c0565b60a06040518083038186803b15801561193d57600080fd5b505afa158015611951573d6000803e3d6000fd5b505050506040513d601f19601f82011682018060405250810190611975919061440b565b805190915061198381612991565b61199f5760405162461bcd60e51b815260040161057c9061496f565b6119a7612a25565b50806001600160a01b031663a6a25e886040518163ffffffff1660e01b8152600401600060405180830381600087803b1580156119e357600080fd5b505af11580156119f7573d6000803e3d6000fd5b5050506060830151604084015160009250611a1191612a42565b9050600080611a208484613584565b60008981526101c96020526040902054919350915082158015611a41575080155b15611a525750505050505050611b1d565b6000611a6f611a6084613795565b611a6984613795565b906137be565b60008a81526101c9602052604090208490559050611a8c81613804565b6000811315611ab457611aab611aa18261386f565b6101c55490612a42565b6101c555611ad3565b611ace611ac4826000190261386f565b6101c55490612b3b565b6101c5555b856001600160a01b03167f176e189790e519c3382df7234bd391cc24005bf9cfaaa9de00103c208e10a27482604051611b0c91906145c0565b60405180910390a250505050505050505b5060c9805460ff19166001179055565b60975460009060ff1615611b535760405162461bcd60e51b815260040161057c90614945565b60c95460ff16611b755760405162461bcd60e51b815260040161057c90614c98565b60c9805460ff191690556101c654600090611b98906001600160a01b031661312a565b6101c654909150611bb1906001600160a01b031661311f565b6001600160a01b031663a37b92c9336040518263ffffffff1660e01b8152600401611bdc9190614523565b60206040518083038186803b158015611bf457600080fd5b505afa158015611c08573d6000803e3d6000fd5b505050506040513d601f19601f82011682018060405250810190611c2c919061438e565b611c485760405162461bcd60e51b815260040161057c90614b3b565b6040516370a0823160e01b81526001600160a01b038216906370a0823190611c74903390600401614523565b60206040518083038186803b158015611c8c57600080fd5b505afa158015611ca0573d6000803e3d6000fd5b505050506040513d601f19601f82011682018060405250810190611cc4919061447f565b15611ce15760405162461bcd60e51b815260040161057c906147bd565b6000611ceb612a25565b90506000826001600160a01b0316636a627842336040518263ffffffff1660e01b8152600401611d1b9190614523565b602060405180830381600087803b158015611d3557600080fd5b505af1158015611d49573d6000803e3d6000fd5b505050506040513d601f19601f82011682018060405250810190611d6d919061447f565b60008181526101cc602052604090206101ca54815560028101879055600184015491925090611d9c9087612b3b565b60018401556101c654611dd290339030908990611dc1906001600160a01b0316613000565b6001600160a01b0316929190613891565b336001600160a01b0316826101ca547f4bd014c167ac618c18f78afa7c88d8ca69c4e4a9321542b1bf050ed165d78e3b89604051611e1091906145c0565b60405180910390a4509250505060c9805460ff19166001179055919050565b600081565b6101c55481565b60975460009060ff1615611e615760405162461bcd60e51b815260040161057c90614945565b60c95460ff16611e835760405162461bcd60e51b815260040161057c90614c98565b60c9805460ff191690556101c654611ea3906001600160a01b031661311f565b6001600160a01b031663a37b92c9336040518263ffffffff1660e01b8152600401611ece9190614523565b60206040518083038186803b158015611ee657600080fd5b505afa158015611efa573d6000803e3d6000fd5b505050506040513d601f19601f82011682018060405250810190611f1e919061438e565b611f3a5760405162461bcd60e51b815260040161057c90614b3b565b6101c654611f50906001600160a01b031661312a565b6001600160a01b0316636352211e836040518263ffffffff1660e01b8152600401611f7b91906145c0565b60206040518083038186803b158015611f9357600080fd5b505afa158015611fa7573d6000803e3d6000fd5b505050506040513d601f19601f82011682018060405250810190611fcb919061433a565b6001600160a01b0316336001600160a01b031614611ffb5760405162461bcd60e51b815260040161057c90614b3b565b6000612006836131aa565b6001810180546000918290556101c65492945092509061203990612032906001600160a01b03166138b8565b839061328a565b905060006120478383612a42565b905083600201546000141561205f5761205f866132cc565b61206982336138d0565b6101c6546120879033908390611036906001600160a01b031661393f565b336001600160a01b03167f2d4d49c3e017b8235c908cbaa83a2431a08f3b950712696ece2088964fd399f082846040516120c2929190614e48565b60405180910390a2935050505060c9805460ff19166001179055919050565b60975460009060ff16156121075760405162461bcd60e51b815260040161057c90614945565b60c95460ff166121295760405162461bcd60e51b815260040161057c90614c98565b60c9805460ff191690556101c654612149906001600160a01b031661311f565b6001600160a01b031663a37b92c9336040518263ffffffff1660e01b81526004016121749190614523565b60206040518083038186803b15801561218c57600080fd5b505afa1580156121a0573d6000803e3d6000fd5b505050506040513d601f19601f820116820180604052508101906121c4919061438e565b6121e05760405162461bcd60e51b815260040161057c90614b3b565b600082116122005760405162461bcd60e51b815260040161057c90614dc5565b612208612a25565b506101cd546122179083612b3b565b6101cd556122248261178e565b9050336001600160a01b03167f0b05f0d1cd0819f155b8a61f60baf7767c1ee49d04aeaab701df236140eb93f98383604051612261929190614e48565b60405180910390a26101c65461227f906001600160a01b031661393f565b6001600160a01b03166323b872dd3330856040518463ffffffff1660e01b81526004016122ae93929190614537565b602060405180830381600087803b1580156122c857600080fd5b505af11580156122dc573d6000803e3d6000fd5b505050506040513d601f19601f82011682018060405250810190612300919061438e565b61231c5760405162461bcd60e51b815260040161057c906146b2565b6101c654612332906001600160a01b0316613000565b6001600160a01b031663449a52f833836040518363ffffffff1660e01b815260040161235f92919061459c565b600060405180830381600087803b15801561237957600080fd5b505af115801561238d573d6000803e3d6000fd5b5050505060c9805460ff19166001179055919050565b6000611560600080516020614eb383398151915261046e612f93565b6123c76123a3565b6123e35760405162461bcd60e51b815260040161057c90614d2b565b600080526101cb6020527f7815f96d61162a6533de7fc4199513d6e939c8cbee1627dfd11ec1fe503f0bb3541561241957600080fd5b621275006101ce556101c654612437906001600160a01b031661393f565b6001600160a01b03166370a08231306040518263ffffffff1660e01b81526004016124629190614523565b60206040518083038186803b15801561247a57600080fd5b505afa15801561248e573d6000803e3d6000fd5b505050506040513d601f19601f820116820180604052508101906124b2919061447f565b6101cd55600080526101cb602052427f7815f96d61162a6533de7fc4199513d6e939c8cbee1627dfd11ec1fe503f0bb39081556114689061394a565b600081815260656020526040812061179d906139d6565b6101c96020526000908152604090205481565b6000828152606560205260409020600201546125369061046e612f93565b610d1f5760405162461bcd60e51b815260040161057c906148f5565b60975460ff16156125755760405162461bcd60e51b815260040161057c90614945565b60c95460ff166125975760405162461bcd60e51b815260040161057c90614c98565b60c9805460ff191690556101c6546125b7906001600160a01b031661311f565b6001600160a01b031663a37b92c9336040518263ffffffff1660e01b81526004016125e29190614523565b60206040518083038186803b1580156125fa57600080fd5b505afa15801561260e573d6000803e3d6000fd5b505050506040513d601f19601f82011682018060405250810190612632919061438e565b61264e5760405162461bcd60e51b815260040161057c90614b3b565b6101c654600090612667906001600160a01b031661312a565b6040516331a9108f60e11b81529091506001600160a01b03821690636352211e906126969085906004016145c0565b60206040518083038186803b1580156126ae57600080fd5b505afa1580156126c2573d6000803e3d6000fd5b505050506040513d601f19601f820116820180604052508101906126e6919061433a565b6001600160a01b0316336001600160a01b0316146127165760405162461bcd60e51b815260040161057c90614b3b565b600080612722846131aa565b600281015491935091506127369086612b3b565b6002820155600182015461274a9086612b3b565b60018301556101ca54604051339186917f99e2edbbb2b83be9287a6f12d5ad204eb47b5a9da08ee36e58f714784d753fb690612787908a906145c0565b60405180910390a46101c6546127af90339030908890611dc1906001600160a01b0316613000565b505060c9805460ff19166001179055505050565b60975460ff16156127e65760405162461bcd60e51b815260040161057c90614945565b60c95460ff166128085760405162461bcd60e51b815260040161057c90614c98565b60c9805460ff1916905561281a612a25565b506101c654600090612834906001600160a01b0316613579565b905061283e6142e6565b60405163463d31d760e11b81526001600160a01b03831690638c7a63ae9061286a9086906004016145c0565b60a06040518083038186803b15801561288257600080fd5b505afa158015612896573d6000803e3d6000fd5b505050506040513d601f19601f820116820180604052508101906128ba919061440b565b8051604051632a8a9f1360e21b81529192509060009081906001600160a01b0384169063aa2a7c4c906128f19089906004016145c0565b6040805180830381600087803b15801561290a57600080fd5b505af115801561291e573d6000803e3d6000fd5b505050506040513d601f19601f820116820180604052508101906129429190614497565b915091506129518383836139e1565b505060c9805460ff1916600117905550505050565b600080516020614eb383398151915281565b600080516020614ef383398151915281565b6101c45481565b6101c6546000906129aa906001600160a01b0316613579565b6001600160a01b031663b5ada6d8836040518263ffffffff1660e01b81526004016129d59190614523565b60206040518083038186803b1580156129ed57600080fd5b505afa158015612a01573d6000803e3d6000fd5b505050506040513d601f19601f8201168201806040525081019061179d919061438e565b6000611560612a32612d17565b613ac7565b600061179d82613ca2565b60006113d983836040518060400160405280601e81526020017f536166654d6174683a207375627472616374696f6e206f766572666c6f770000815250613cba565b6101c654600090612a9d906001600160a01b031661393f565b60405163095ea7b360e01b81529091506001600160a01b0382169063095ea7b390612ace908690869060040161459c565b602060405180830381600087803b158015612ae857600080fd5b505af1158015612afc573d6000803e3d6000fd5b505050506040513d601f19601f82011682018060405250810190612b20919061438e565b61124c57600080fd5b600061179d6001610c7a846002613250565b6000828201838110156113d95760405162461bcd60e51b815260040161057c90614831565b303b1590565b600054610100900460ff1680612b7f5750612b7f612b60565b80612b8d575060005460ff16155b612ba95760405162461bcd60e51b815260040161057c90614a46565b600054610100900460ff16158015611456576000805460ff1961ff0019909116610100171660011790558015611468576000805461ff001916905550565b600054610100900460ff1680612c005750612c00612b60565b80612c0e575060005460ff16155b612c2a5760405162461bcd60e51b815260040161057c90614a46565b600054610100900460ff16158015612c55576000805460ff1961ff0019909116610100171660011790555b6097805460ff191690558015611468576000805461ff001916905550565b600054610100900460ff1680612c8c5750612c8c612b60565b80612c9a575060005460ff16155b612cb65760405162461bcd60e51b815260040161057c90614a46565b600054610100900460ff16158015612ce1576000805460ff1961ff0019909116610100171660011790555b60c9805460ff191660011790558015611468576000805461ff001916905550565b60009182526065602052604090912060020155565b6101ca5460009081526101cb6020526040902090565b612d3561429d565b8151600090421015612d4c57508190506000612dcf565b6000612d5b846020015161356a565b9050612d6a846000015161300b565b84526101cd541580612d7a575080155b15612d9d576101ce548451612d8e91612b3b565b84525082915060019050612dcf565b6101cd54600090612dae9083613ce6565b90506000612dbb8261178e565b604087015250606085015250829150600290505b915091565b6000612dde612a25565b506101c654600090612df8906001600160a01b0316613000565b90506000816001600160a01b03166370a08231336040518263ffffffff1660e01b8152600401612e289190614523565b60206040518083038186803b158015612e4057600080fd5b505afa158015612e54573d6000803e3d6000fd5b505050506040513d601f19601f82011682018060405250810190612e78919061447f565b905080841115612e9a5760405162461bcd60e51b815260040161057c90614766565b60408051808201909152600281526124a160f11b60208201526101cd54612ec2918790613cba565b6101cd556101c654859350612ee79033908590611036906001600160a01b031661393f565b60405163079cc67960e41b81526001600160a01b038316906379cc679090612f15903390889060040161459c565b600060405180830381600087803b158015612f2f57600080fd5b505af1158015612f43573d6000803e3d6000fd5b50505050336001600160a01b03167f2d4d49c3e017b8235c908cbaa83a2431a08f3b950712696ece2088964fd399f0846000604051612f83929190614e48565b60405180910390a2505092915050565b3390565b6000828152606560205260409020612faf9082613cfc565b156109ab57612fbc612f93565b6001600160a01b0316816001600160a01b0316837f2f8788117e7eff1d82e926ec794901d17c78024a50270940304540a733656f0d60405160405180910390a45050565b600061179d82613d11565b6000806130286101ce54610fba8542612a4290919063ffffffff16565b90506113d96130436101ce548361325090919063ffffffff16565b8490612b3b565b60008281526065602052604090206130629082613d29565b156109ab5761306f612f93565b6001600160a01b0316816001600160a01b0316837ff6391f5c32d9c69d2a47ea670b442974b53935d1edc7fd64eb21e047a839171b60405160405180910390a45050565b60975460ff166130d55760405162461bcd60e51b815260040161057c90614738565b6097805460ff191690557f5db9ee0a495bf2e6ff9c91a7834c1ba4fdd244a5e8aa4e537bd38aeae4b073aa613108612f93565b6040516131159190614523565b60405180910390a1565b600061179d82613d3e565b60006001600160a01b03821663b93f9b0a60185b6040518263ffffffff1660e01b815260040161315a91906145c0565b60206040518083038186803b15801561317257600080fd5b505afa158015613186573d6000803e3d6000fd5b505050506040513d601f19601f8201168201806040525081019061179d919061433a565b60008060006131b7612a25565b905060006131c485613d56565b91935090915050915091565b60006001600160a01b03821663fc563658600a5b6040518263ffffffff1660e01b815260040161320091906145c0565b60206040518083038186803b15801561321857600080fd5b505afa15801561322c573d6000803e3d6000fd5b505050506040513d601f19601f8201168201806040525081019061179d919061447f565b60008261325f5750600061179d565b8282028284828161326c57fe5b04146113d95760405162461bcd60e51b815260040161057c90614a05565b60006113d983836040518060400160405280601a81526020017f536166654d6174683a206469766973696f6e206279207a65726f000000000000815250613e74565b60008181526101cc6020526040812081815560018101829055600201556101c6546132ff906001600160a01b031661312a565b6001600160a01b03166342966c68826040518263ffffffff1660e01b815260040161332a91906145c0565b600060405180830381600087803b15801561334457600080fd5b505af1158015613358573d6000803e3d6000fd5b5050505050565b61124c8363a9059cbb60e01b848460405160240161337e92919061459c565b60408051601f198184030181529190526020810180516001600160e01b03166001600160e01b031990931692909217909152613eab565b60006001600160a01b03821663b93f9b0a600761313e565b60006001600160a01b03821663b93f9b0a600561313e565b6133ed6142c5565b6133f561429d565b82515b6101ca54811115801561340f575060008460400151115b1561355e576101cb600082815260200190815260200160002060405180608001604052908160008201548152602001600182015481526020016002820154815260200160038201548152505091506101ca548114156134755761347182612d2d565b5091505b600061349a8360200151610fba8760400151866060015161325090919063ffffffff16565b905060006134c18460200151610fba8860400151876040015161325090919063ffffffff16565b60408701519091506134d39082612a42565b604087015260208601516134e79083612b3b565b602087015260408401511561355457600061352e8560400151610fba64e8d4a51000613528670de0b6b3a76400008a6060015161325090919063ffffffff16565b90613250565b90506000613540886040015183613f90565b159050801561355157600060408901525b50505b50506001016133f8565b50506101ca5482525090565b600061179d826101c354613f90565b600061179d82613fb0565b60008073f0F8d382a4e1e2F26891B1a95f9Dcb89406bd4A16397aec1ab856001600160a01b03166347195e136040518163ffffffff1660e01b815260040160206040518083038186803b1580156135da57600080fd5b505afa1580156135ee573d6000803e3d6000fd5b505050506040513d601f19601f82011682018060405250810190613612919061433a565b6101c6548690429061362c906001600160a01b0316613fc8565b6101c654613642906001600160a01b0316613fe0565b6040518663ffffffff1660e01b81526004016136629594939291906145c9565b604080518083038186803b15801561367957600080fd5b505af415801561368d573d6000803e3d6000fd5b505050506040513d601f19601f820116820180604052508101906136b19190614497565b915091509250929050565b6136c461429d565b6136cc61429d565b6101ce5483516136db91612b3b565b8152604083015160208401516000916136f49190612a42565b60208301525092915050565b60975460ff16156137235760405162461bcd60e51b815260040161057c90614945565b6097805460ff191660011790557f62e78cea01bee320cd4e420270b5ea74000d11b0c9f74754ebdbfc544b05a258613108612f93565b60006113d982610fba670de0b6b3a764000061352887613ff8565b60006113d98383614013565b60006113d9836001600160a01b038416614058565b6000600160ff1b82106137ba5760405162461bcd60e51b815260040161057c90614bc2565b5090565b60008183038183128015906137d35750838113155b806137e857506000831280156137e857508381135b6113d95760405162461bcd60e51b815260040161057c90614c0a565b61380c612a25565b5060008113156138445760006138296138248361386f565b614070565b6101c35490915061383a9082612b3b565b6101c35550611468565b6000613856613824836000190261386f565b6101c3549091506138679082612a42565b6101c3555050565b6000808212156137ba5760405162461bcd60e51b815260040161057c9061499b565b6138b2846323b872dd60e01b85858560405160240161337e93929190614537565b50505050565b60006001600160a01b03821663fc56365860046131e4565b806001600160a01b03167ff3583f178a8d4f8888c3683f8e948faf9b6eb701c4f1fab265a6ecad1a1ddebb8360405161390991906145c0565b60405180910390a26101c6546109ab9061392b906001600160a01b0316614092565b6101c6548490611036906001600160a01b03165b600061179d826133cd565b60408051608081018252825481526001830154602082015260028301549181019190915260038201546060820152600090613984906136bc565b6101ca8054600190810180835560009081526101cb6020908152604080832086518155918601519382019390935584830151600282015560609094015160039094019390935590548252902092915050565b600061179d826140aa565b60006139ec83614070565b6101c3549091506139fd9082612b3b565b6101c3558215613a4957836001600160a01b03167fed3bc1b58411ea8e764b3ef8fa6b654877bc1e796a5a1a2373dfc8f1c0e0ea4884604051613a4091906145c0565b60405180910390a25b8115613aa357836001600160a01b03167f8295ad220549851bab232c2a7ae2e3c53a63d2294602bc85f8d8af108778a37e83604051613a8891906145c0565b60405180910390a26101c454613a9e9083612a42565b6101c4555b613abd82610c7a856101cd54612b3b90919063ffffffff16565b6101cd5550505050565b6000613ad161429d565b60408051608081018252845481526001850154602082015260028501549181019190915260038401546060820152600090613b0b90612d2d565b90925090506000816002811115613b1e57fe5b1415613b2e578392505050610a2a565b6001816002811115613b3c57fe5b1415613b9357835482518086556101ca5460405190917f9933f8b03549f37c2bd3c203d4e7fd82d3572bbf69a109f58225495710dba98491613b8091908590614e48565b60405180910390a2849350505050610a2a565b60408201516002850155606082015160038501819055825185556101cd54613bba91612a42565b6101cd556101ca546000613bcd8661394a565b6101c654909150613be6906001600160a01b0316613000565b6001600160a01b03166379cc67903088600201546040518363ffffffff1660e01b8152600401613c1792919061459c565b600060405180830381600087803b158015613c3157600080fd5b505af1158015613c45573d6000803e3d6000fd5b50505050817fbb4a26fa0ace13ee4da343896c20eaa44a618fb9071fdd8c2e2c960a4583189d8760000154886001015489600301548a60020154604051613c8f9493929190614e56565b60405180910390a29350610a2a92505050565b60006001600160a01b03821663b93f9b0a600f61313e565b60008184841115613cde5760405162461bcd60e51b815260040161057c9190614611565b505050900390565b6000818310613cf557816113d9565b5090919050565b60006113d9836001600160a01b0384166140ae565b60006001600160a01b03821663b93f9b0a600461313e565b60006113d9836001600160a01b0384166140f8565b60006001600160a01b03821663b93f9b0a601361313e565b60008181526101cc60205260408120805482905b6101ca5481108015613d80575060008360020154115b15613e665760008181526101cb60205260408120600181015460028601546003830154929550613db392610fba91613250565b90506000613dda8460010154610fba8760020154876002015461325090919063ffffffff16565b6002860154909150613dec9082612a42565b60028601556001850154613e009083612b3b565b600186015560028401546003850154600091613e3391610fba9064e8d4a510009061352890670de0b6b3a7640000613250565b90506000613e45876002015483613f90565b1590508015613e5657600060028801555b505060019092019150613d6a9050565b50506101ca54815592915050565b60008183613e955760405162461bcd60e51b815260040161057c9190614611565b506000838581613ea157fe5b0495945050505050565b613ebd826001600160a01b03166141be565b613ed95760405162461bcd60e51b815260040161057c90614cf4565b60006060836001600160a01b031683604051613ef59190614507565b6000604051808303816000865af19150503d8060008114613f32576040519150601f19603f3d011682016040523d82523d6000602084013e613f37565b606091505b509150915081613f595760405162461bcd60e51b815260040161057c906148c0565b8051156138b25780806020019051810190613f74919061438e565b6138b25760405162461bcd60e51b815260040161057c90614c4e565b60006113d9670de0b6b3a7640000610fba613fab8686613250565b6141fa565b60006001600160a01b03821663b93f9b0a600c61313e565b60006001600160a01b03821663fc56365860056131e4565b60006001600160a01b03821663fc56365860066131e4565b600061179d620f4240610fba84670de0b6b3a7640000613250565b815460009082106140365760405162461bcd60e51b815260040161057c90614644565b82600001828154811061404557fe5b9060005260206000200154905092915050565b60009081526001919091016020526040902054151590565b600061179d61407d614214565b610fba670de0b6b3a764000061352886613ff8565b60006001600160a01b03821663b93f9b0a600661313e565b5490565b60006140ba8383614058565b6140f05750815460018181018455600084815260208082209093018490558454848252828601909352604090209190915561179d565b50600061179d565b600081815260018301602052604081205480156141b4578354600019808301919081019060009087908390811061412b57fe5b906000526020600020015490508087600001848154811061414857fe5b60009182526020808320909101929092558281526001898101909252604090209084019055865487908061417857fe5b6001900381819060005260206000200160009055905586600101600087815260200190815260200160002060009055600194505050505061179d565b600091505061179d565b6000813f7fc5d2460186f7233c927e7db2dcc703c0e500b653ca82273b7bfad8045d85a4708181148015906141f257508115155b949350505050565b600061179d612032670de0b6b3a7640000620f424061328a565b6101c65460009061422d906001600160a01b0316613000565b6001600160a01b03166318160ddd6040518163ffffffff1660e01b815260040160206040518083038186803b15801561426557600080fd5b505afa158015614279573d6000803e3d6000fd5b505050506040513d601f19601f82011682018060405250810190611560919061447f565b6040518060800160405280600081526020016000815260200160008152602001600081525090565b60405180606001604052806000815260200160008152602001600081525090565b6040518060a0016040528060006001600160a01b03168152602001600081526020016000815260200160008152602001600081525090565b60006020828403121561432f578081fd5b81356113d981614e9d565b60006020828403121561434b578081fd5b81516113d981614e9d565b60008060408385031215614368578081fd5b823561437381614e9d565b9150602083013561438381614e9d565b809150509250929050565b60006020828403121561439f578081fd5b815180151581146113d9578182fd5b6000602082840312156143bf578081fd5b5035919050565b600080604083850312156143d8578182fd5b82359150602083013561438381614e9d565b600080604083850312156143fc578182fd5b50508035926020909101359150565b600060a0828403121561441c578081fd5b60405160a0810181811067ffffffffffffffff8211171561443b578283fd5b604052825161444981614e9d565b80825250602083015160208201526040830151604082015260608301516060820152608083015160808201528091505092915050565b600060208284031215614490578081fd5b5051919050565b600080604083850312156144a9578182fd5b505080516020909101519092909150565b600080600080600060a086880312156144d1578081fd5b8535945060208601359350604086013560ff811681146144ef578182fd5b94979396509394606081013594506080013592915050565b60008251614519818460208701614e71565b9190910192915050565b6001600160a01b0391909116815260200190565b6001600160a01b039384168152919092166020820152604081019190915260600190565b6001600160a01b0397881681529590961660208601526040850193909352606084019190915260ff16608083015260a082015260c081019190915260e00190565b6001600160a01b03929092168252602082015260400190565b901515815260200190565b90815260200190565b6001600160a01b03959095168552602085019390935260408401919091526060830152608082015260a00190565b6001600160a01b0392831681529116602082015260400190565b6000602082528251806020840152614630816040850160208701614e71565b601f01601f19169190910160400192915050565b60208082526022908201527f456e756d657261626c655365743a20696e646578206f7574206f6620626f756e604082015261647360f01b606082015260800190565b602080825260129082015271506f6f6c20686173206e6f20736c6963657360701b604082015260600190565b6020808252601e908201527f4661696c656420746f207472616e7366657220666f72206465706f7369740000604082015260600190565b6020808252602f908201527f416363657373436f6e74726f6c3a2073656e646572206d75737420626520616e60408201526e0818591b5a5b881d1bc819dc985b9d608a1b606082015260800190565b60208082526014908201527314185d5cd8589b194e881b9bdd081c185d5cd95960621b604082015260600190565b60208082526037908201527f416d6f756e74207265717565737465642069732067726561746572207468616e604082015276207768617420746869732061646472657373206f776e7360481b606082015260800190565b60208082526010908201526f115e1a5cdd1a5b99c81c995c5d595cdd60821b604082015260600190565b6020808252602a908201527f4f776e657220616e6420636f6e666967206164647265737365732063616e6e6f6040820152697420626520656d70747960b01b606082015260800190565b6020808252601b908201527f536166654d6174683a206164646974696f6e206f766572666c6f770000000000604082015260600190565b60208082526038908201527f4f6e6c7920746f6b656e73206f776e6564206279207468652073656e696f72206040820152773837b7b61031b0b7103132903bb934ba3a32b7103237bbb760411b606082015260800190565b6020808252818101527f5361666545524332303a206c6f772d6c6576656c2063616c6c206661696c6564604082015260600190565b60208082526030908201527f416363657373436f6e74726f6c3a2073656e646572206d75737420626520616e60408201526f2061646d696e20746f207265766f6b6560801b606082015260800190565b60208082526010908201526f14185d5cd8589b194e881c185d5cd95960821b604082015260600190565b602080825260129082015271141bdbdb081b5d5cdd081899481d985b1a5960721b604082015260600190565b6020808252818101527f53616665436173743a2076616c7565206d75737420626520706f736974697665604082015260600190565b6020808252818101527f4f776e65722063616e6e6f7420626520746865207a65726f2061646472657373604082015260600190565b60208082526021908201527f536166654d6174683a206d756c7469706c69636174696f6e206f766572666c6f6040820152607760f81b606082015260800190565b6020808252602e908201527f436f6e747261637420696e7374616e63652068617320616c726561647920626560408201526d195b881a5b9a5d1a585b1a5e995960921b606082015260800190565b6020808252600a90820152692737ba102d30b83832b960b11b604082015260600190565b6020808252600b908201526a10d85b9d0818d85b98d95b60aa1b604082015260600190565b6020808252600d908201526c2d32b93790323ab930ba34b7b760991b604082015260600190565b6020808252601c908201527f4d757374207769746864726177206d6f7265207468616e207a65726f00000000604082015260600190565b6020808252600290820152614e4160f01b604082015260600190565b6020808252600f908201526e6e6f7420656e6f756768207573646360881b604082015260600190565b60208082526022908201527f496e766573746d656e7420616d6f756e74206d75737420626520706f73697469604082015261766560f01b606082015260800190565b60208082526028908201527f53616665436173743a2076616c756520646f65736e27742066697420696e2061604082015267371034b73a191a9b60c11b606082015260800190565b60208082526024908201527f5369676e6564536166654d6174683a207375627472616374696f6e206f766572604082015263666c6f7760e01b606082015260800190565b6020808252602a908201527f5361666545524332303a204552433230206f7065726174696f6e20646964206e6040820152691bdd081cdd58d8d9595960b21b606082015260800190565b6020808252601f908201527f5265656e7472616e637947756172643a207265656e7472616e742063616c6c00604082015260600190565b6020808252600b908201526a496e76616c69642042707360a81b604082015260600190565b6020808252601f908201527f5361666545524332303a2063616c6c20746f206e6f6e2d636f6e747261637400604082015260600190565b6020808252602b908201527f4d75737420686176652061646d696e20726f6c6520746f20706572666f726d2060408201526a3a3434b99030b1ba34b7b760a91b606082015260800190565b6020808252602f908201527f416363657373436f6e74726f6c3a2063616e206f6e6c792072656e6f756e636560408201526e103937b632b9903337b91039b2b63360891b606082015260800190565b6020808252601b908201527f4d757374206465706f736974206d6f7265207468616e207a65726f0000000000604082015260600190565b8151815260208083015190820152604080830151908201526060918201519181019190915260800190565b81518152602080830151908201526040918201519181019190915260600190565b918252602082015260400190565b93845260208401929092526040830152606082015260800190565b60005b83811015614e8c578181015183820152602001614e74565b838111156138b25750506000910152565b6001600160a01b038116811461146857600080fdfeb19546dff01e856fb3f010c267a7b1c60363cf8a4664e21cc89c26224620214ed624b04b6a86de88625cc0780256b85157c5a615db56d1357e0a97a30fde276765d7a28e3265b37a6474929f336521b332c1681b933f6cb9f3376673440d862aa26469706673582212202bea0517267f8046e9834c584624310728f56f29c4a582d110ce683607aa110e64736f6c634300060c0033",
  "deployedBytecode": "0x608060405234801561001057600080fd5b506004361061027f5760003560e01c806379502c551161015c578063adfa3308116100ce578063d547741f11610087578063d547741f14610505578063da4c5a9714610518578063db006a751461052b578063e58378bb1461053e578063e63ab1e914610546578063ed80c8501461054e5761027f565b8063adfa3308146104a9578063b6b55f25146104bc578063b6db75a0146104cf578063c5923023146104d7578063ca15c873146104df578063cf5f1f62146104f25761027f565b80639010d07c116101205780639010d07c1461044d57806391d1485414610460578063945ed49a146104735780639ee679e814610486578063a217fddf14610499578063a6f4487e146104a15761027f565b806379502c55146104025780637e30cdff146104175780638456cb591461042a578063855cb21b1461043257806387269729146104455761027f565b8063485cc955116101f5578063526d81f6116101b9578063526d81f6146103a257806358031d12146103aa5780635c975abb146103bd57806371a97305146103d2578063722eeec3146103da57806376671808146103ed5761027f565b8063485cc9551461034c5780634a970be71461035f5780634d4e3e0c146103725780634ff0876a1461037a5780635209cb98146103825761027f565b80632f2ff15d116102475780632f2ff15d146102f05780632f8f68df1461030357806330024dfe1461030b57806336568abe1461031e5780633f4ba83a1461033157806345b05d09146103395761027f565b806303f9c79314610284578063097616a3146102ad578063242d68c2146102c2578063248a9ca3146102ca5780632e1a7d4d146102dd575b600080fd5b61029761029236600461431e565b610556565b6040516102a491906145c0565b60405180910390f35b6102c06102bb36600461431e565b61087f565b005b6102976109af565b6102976102d83660046143ae565b610a17565b6102976102eb3660046143ae565b610a2f565b6102c06102fe3660046143c6565b610b01565b610297610b45565b6102c06103193660046143ae565b610bf6565b6102c061032c3660046143c6565b610ce7565b6102c0610d29565b6102976103473660046143ae565b610d69565b6102c061035a366004614356565b61112c565b61029761036d3660046144ba565b611251565b6102976112e6565b6102976112f8565b6103956103903660046143ae565b6112ff565b6040516102a49190614e27565b6102c06113e0565b6102976103b83660046143ae565b61146b565b6103c561153f565b6040516102a491906145b5565b610297611548565b6102976103e83660046143ae565b611565565b6103f5611637565b6040516102a49190614dfc565b61040a61167f565b6040516102a49190614523565b61029761042536600461431e565b61168f565b6102c0611750565b6102976104403660046143ae565b61178e565b6102976117a3565b61040a61045b3660046143ea565b6117aa565b6103c561046e3660046143c6565b6117c2565b6102c06104813660046143ae565b6117da565b6102976104943660046143ae565b611b2d565b610297611e2f565b610297611e34565b6102976104b73660046143ae565b611e3b565b6102976104ca3660046143ae565b6120e1565b6103c56123a3565b6102c06123bf565b6102976104ed3660046143ae565b6124ee565b6102976105003660046143ae565b612505565b6102c06105133660046143c6565b612518565b6102c06105263660046143ea565b612552565b6102c06105393660046143ae565b6127c3565b610297612966565b610297612978565b61029761298a565b60975460009060ff16156105855760405162461bcd60e51b815260040161057c90614945565b60405180910390fd5b60c95460ff166105a75760405162461bcd60e51b815260040161057c90614c98565b60c9805460ff191690556105ba82612991565b6105d65760405162461bcd60e51b815260040161057c9061496f565b6105de612a25565b506101c6546000906105f8906001600160a01b0316612a37565b90506000816001600160a01b031663ff8a4efe30866040518363ffffffff1660e01b815260040161062a9291906145f7565b60206040518083038186803b15801561064257600080fd5b505afa158015610656573d6000803e3d6000fd5b505050506040513d601f19601f8201168201806040525081019061067a919061447f565b90506000811161069c5760405162461bcd60e51b815260040161057c90614b80565b6101cd548111156106bf5760405162461bcd60e51b815260040161057c90614b57565b6101cd546106cd9082612a42565b6101cd556106db8482612a84565b6000846001600160a01b0316637976323d6040518163ffffffff1660e01b815260040160206040518083038186803b15801561071657600080fd5b505afa15801561072a573d6000803e3d6000fd5b505050506040513d601f19601f8201168201806040525081019061074e919061447f565b905060018110156107715760405162461bcd60e51b815260040161057c90614686565b600061077e826001612a42565b9050600061078b82612b29565b6101c45490915061079c9085612b3b565b6101c455604051631c57762b60e31b81526000906001600160a01b0389169063e2bbb158906107d19085908990600401614e48565b602060405180830381600087803b1580156107eb57600080fd5b505af11580156107ff573d6000803e3d6000fd5b505050506040513d601f19601f82011682018060405250810190610823919061447f565b9050876001600160a01b03167f86da25fff7a4075a94de2ffed109ca6748c3af22736eaf7efc75e3988f899d6e8660405161085e91906145c0565b60405180910390a29550505050505060c9805460ff19166001179055919050565b600054610100900460ff16806108985750610898612b60565b806108a6575060005460ff16155b6108c25760405162461bcd60e51b815260040161057c90614a46565b600054610100900460ff161580156108ed576000805460ff1961ff0019909116610100171660011790555b6001600160a01b0382166109135760405162461bcd60e51b815260040161057c906149d0565b61091b612b66565b610923612be7565b61092b612c73565b610943600080516020614eb383398151915283610b3b565b61095b600080516020614ef383398151915283610b3b565b610981600080516020614ef3833981519152600080516020614eb3833981519152612d02565b610999600080516020614eb383398151915280612d02565b80156109ab576000805461ff00191690555b5050565b60006109b961429d565b6109f86109c4612d17565b6040805160808101825282548152600183015460208201526002830154918101919091526003909101546060820152612d2d565b5060608101516101cd5491925090610a109082612a42565b9250505090565b6000818152606560205260409020600201545b919050565b60975460009060ff1615610a555760405162461bcd60e51b815260040161057c90614945565b60c95460ff16610a775760405162461bcd60e51b815260040161057c90614c98565b60c9805460ff19169055610a99600080516020614ed3833981519152336117c2565b610ab55760405162461bcd60e51b815260040161057c90614a94565b60008211610ad55760405162461bcd60e51b815260040161057c90614b04565b6000610ae08361178e565b9050610aec8382612dd4565b91505060c9805460ff19166001179055919050565b600082815260656020526040902060020154610b1f9061046e612f93565b610b3b5760405162461bcd60e51b815260040161057c906146e9565b6109ab8282612f97565b6000610b4f61429d565b610b5a6109c4612d17565b5060408101516101c65491925090610a10908290610b80906001600160a01b0316613000565b6001600160a01b03166318160ddd6040518163ffffffff1660e01b815260040160206040518083038186803b158015610bb857600080fd5b505afa158015610bcc573d6000803e3d6000fd5b505050506040513d601f19601f82011682018060405250810190610bf0919061447f565b90612a42565b610bfe6123a3565b610c1a5760405162461bcd60e51b815260040161057c90614d2b565b60008111610c3a5760405162461bcd60e51b815260040161057c90614add565b6000610c44612a25565b90504281600001541115610c91576101ce548154600091610c659190612a42565b6101ce8490559050610c8083610c7a8361300b565b90612b3b565b8083554210610c8b57fe5b50610ca5565b610ca282610c7a836000015461300b565b81555b6101ce8290556040517fc1057a49fd826ed693f6611f22b406e8f41bf73b45b6e8f757d4b14a58d6e9f190610cdb9084906145c0565b60405180910390a15050565b610cef612f93565b6001600160a01b0316816001600160a01b031614610d1f5760405162461bcd60e51b815260040161057c90614d76565b6109ab828261304a565b610d43600080516020614ef383398151915261046e612f93565b610d5f5760405162461bcd60e51b815260040161057c90614b3b565b610d676130b3565b565b60975460009060ff1615610d8f5760405162461bcd60e51b815260040161057c90614945565b60c95460ff16610db15760405162461bcd60e51b815260040161057c90614c98565b60c9805460ff191690556101c654610dd1906001600160a01b031661311f565b6001600160a01b031663a37b92c9336040518263ffffffff1660e01b8152600401610dfc9190614523565b60206040518083038186803b158015610e1457600080fd5b505afa158015610e28573d6000803e3d6000fd5b505050506040513d601f19601f82011682018060405250810190610e4c919061438e565b610e685760405162461bcd60e51b815260040161057c90614b3b565b6101c654610e7e906001600160a01b031661312a565b6001600160a01b0316636352211e836040518263ffffffff1660e01b8152600401610ea991906145c0565b60206040518083038186803b158015610ec157600080fd5b505afa158015610ed5573d6000803e3d6000fd5b505050506040513d601f19601f82011682018060405250810190610ef9919061433a565b6001600160a01b0316336001600160a01b031614610f295760405162461bcd60e51b815260040161057c90614b3b565b600080610f35846131aa565b91509150806002015460001415610f5e5760405162461bcd60e51b815260040161057c90614ab8565b6101c654600090610f77906001600160a01b03166131d0565b9050612710811115610f9b5760405162461bcd60e51b815260040161057c90614ccf565b6000610fc0612710610fba84866002015461325090919063ffffffff16565b9061328a565b90506000610fdb828560020154612a4290919063ffffffff16565b9050610ff884600201548660010154612a4290919063ffffffff16565b6001808701919091556000600286015584015461101857611018876132cc565b6101c6546110469033908390611036906001600160a01b0316613000565b6001600160a01b0316919061335f565b6101c65460009061105f906001600160a01b03166133b5565b6101c6549091506110809082908590611036906001600160a01b0316613000565b806001600160a01b0316336001600160a01b03167f2f47cf1f0d4e562a169cd1c3cbfbe9735c1fc3e12354494efb79ec1562e37272856040516110c391906145c0565b60405180910390a3336001600160a01b0316886101ca547ff88bc062cd1e95f16709f69e70c521e62602c9d2a875ad4882e8035d15eb3ad5858760405161110b929190614e48565b60405180910390a45094505050505060c9805460ff19166001179055919050565b600054610100900460ff16806111455750611145612b60565b80611153575060005460ff16155b61116f5760405162461bcd60e51b815260040161057c90614a46565b600054610100900460ff1615801561119a576000805460ff1961ff0019909116610100171660011790555b6001600160a01b038316158015906111ba57506001600160a01b03821615155b6111d65760405162461bcd60e51b815260040161057c906147e7565b6111df8361087f565b611205600080516020614ed3833981519152600080516020614eb3833981519152612d02565b6101c680546001600160a01b0319166001600160a01b038416179055670de0b6b3a76400006101c35560006101c48190556101c555801561124c576000805461ff00191690555b505050565b6101c65460009061126a906001600160a01b03166133cd565b6001600160a01b031663d505accf333089898989896040518863ffffffff1660e01b81526004016112a1979695949392919061455b565b600060405180830381600087803b1580156112bb57600080fd5b505af11580156112cf573d6000803e3d6000fd5b505050506112dc866120e1565b9695505050505050565b600080516020614ed383398151915281565b6101ce5490565b6113076142c5565b6101c65461131d906001600160a01b031661312a565b6001600160a01b0316636352211e836040518263ffffffff1660e01b815260040161134891906145c0565b60206040518083038186803b15801561136057600080fd5b505afa158015611374573d6000803e3d6000fd5b505050506040513d601f19601f82011682018060405250810190611398919061433a565b5060008281526101cc60209081526040918290208251606081018452815481526001820154928101929092526002810154928201929092526113d9906133e5565b9392505050565b600054610100900460ff16806113f957506113f9612b60565b80611407575060005460ff16155b6114235760405162461bcd60e51b815260040161057c90614a46565b600054610100900460ff1615801561144e576000805460ff1961ff0019909116610100171660011790555b611456612be7565b8015611468576000805461ff00191690555b50565b60975460009060ff16156114915760405162461bcd60e51b815260040161057c90614945565b60c95460ff166114b35760405162461bcd60e51b815260040161057c90614c98565b60c9805460ff191690556114d5600080516020614ed3833981519152336117c2565b6114f15760405162461bcd60e51b815260040161057c90614a94565b600082116115115760405162461bcd60e51b815260040161057c90614b04565b600061151c8361356a565b9050826115298282612dd4565b9250505060c9805460ff19166001179055919050565b60975460ff1690565b60006115606101c554610bf06101c454610c7a6109af565b905090565b600061156f6142e6565b6101c654611585906001600160a01b0316613579565b6001600160a01b0316638c7a63ae846040518263ffffffff1660e01b81526004016115b091906145c0565b60a06040518083038186803b1580156115c857600080fd5b505afa1580156115dc573d6000803e3d6000fd5b505050506040513d601f19601f82011682018060405250810190611600919061440b565b805160608201516040830151929350909160009161161e9190612a42565b9050600061162c8383613584565b979650505050505050565b61163f61429d565b61164761429d565b60006116546109c4612d17565b9092509050600281600281111561166757fe5b141561167957611676826136bc565b91505b50905090565b6101c6546001600160a01b031681565b600061169a82612991565b6116b65760405162461bcd60e51b815260040161057c9061496f565b6101c6546000906116cf906001600160a01b0316612a37565b604051631f999a2d60e01b81529091506001600160a01b03821690631f999a2d9061170090309087906004016145f7565b60206040518083038186803b15801561171857600080fd5b505afa15801561172c573d6000803e3d6000fd5b505050506040513d601f19601f820116820180604052508101906113d9919061447f565b61176a600080516020614ef383398151915261046e612f93565b6117865760405162461bcd60e51b815260040161057c90614b3b565b610d67613700565b600061179d826101c354613759565b92915050565b6101c35481565b60008281526065602052604081206113d99083613774565b60008281526065602052604081206113d99083613780565b60975460ff16156117fd5760405162461bcd60e51b815260040161057c90614945565b60c95460ff1661181f5760405162461bcd60e51b815260040161057c90614c98565b60c9805460ff191690556101c654600090611842906001600160a01b0316613579565b6040516331a9108f60e11b81529091506001600160a01b03821690636352211e906118719085906004016145c0565b60206040518083038186803b15801561188957600080fd5b505afa15801561189d573d6000803e3d6000fd5b505050506040513d601f19601f820116820180604052508101906118c1919061433a565b6001600160a01b0316306001600160a01b0316146118f15760405162461bcd60e51b815260040161057c90614868565b6118f96142e6565b60405163463d31d760e11b81526001600160a01b03831690638c7a63ae906119259086906004016145c0565b60a06040518083038186803b15801561193d57600080fd5b505afa158015611951573d6000803e3d6000fd5b505050506040513d601f19601f82011682018060405250810190611975919061440b565b805190915061198381612991565b61199f5760405162461bcd60e51b815260040161057c9061496f565b6119a7612a25565b50806001600160a01b031663a6a25e886040518163ffffffff1660e01b8152600401600060405180830381600087803b1580156119e357600080fd5b505af11580156119f7573d6000803e3d6000fd5b5050506060830151604084015160009250611a1191612a42565b9050600080611a208484613584565b60008981526101c96020526040902054919350915082158015611a41575080155b15611a525750505050505050611b1d565b6000611a6f611a6084613795565b611a6984613795565b906137be565b60008a81526101c9602052604090208490559050611a8c81613804565b6000811315611ab457611aab611aa18261386f565b6101c55490612a42565b6101c555611ad3565b611ace611ac4826000190261386f565b6101c55490612b3b565b6101c5555b856001600160a01b03167f176e189790e519c3382df7234bd391cc24005bf9cfaaa9de00103c208e10a27482604051611b0c91906145c0565b60405180910390a250505050505050505b5060c9805460ff19166001179055565b60975460009060ff1615611b535760405162461bcd60e51b815260040161057c90614945565b60c95460ff16611b755760405162461bcd60e51b815260040161057c90614c98565b60c9805460ff191690556101c654600090611b98906001600160a01b031661312a565b6101c654909150611bb1906001600160a01b031661311f565b6001600160a01b031663a37b92c9336040518263ffffffff1660e01b8152600401611bdc9190614523565b60206040518083038186803b158015611bf457600080fd5b505afa158015611c08573d6000803e3d6000fd5b505050506040513d601f19601f82011682018060405250810190611c2c919061438e565b611c485760405162461bcd60e51b815260040161057c90614b3b565b6040516370a0823160e01b81526001600160a01b038216906370a0823190611c74903390600401614523565b60206040518083038186803b158015611c8c57600080fd5b505afa158015611ca0573d6000803e3d6000fd5b505050506040513d601f19601f82011682018060405250810190611cc4919061447f565b15611ce15760405162461bcd60e51b815260040161057c906147bd565b6000611ceb612a25565b90506000826001600160a01b0316636a627842336040518263ffffffff1660e01b8152600401611d1b9190614523565b602060405180830381600087803b158015611d3557600080fd5b505af1158015611d49573d6000803e3d6000fd5b505050506040513d601f19601f82011682018060405250810190611d6d919061447f565b60008181526101cc602052604090206101ca54815560028101879055600184015491925090611d9c9087612b3b565b60018401556101c654611dd290339030908990611dc1906001600160a01b0316613000565b6001600160a01b0316929190613891565b336001600160a01b0316826101ca547f4bd014c167ac618c18f78afa7c88d8ca69c4e4a9321542b1bf050ed165d78e3b89604051611e1091906145c0565b60405180910390a4509250505060c9805460ff19166001179055919050565b600081565b6101c55481565b60975460009060ff1615611e615760405162461bcd60e51b815260040161057c90614945565b60c95460ff16611e835760405162461bcd60e51b815260040161057c90614c98565b60c9805460ff191690556101c654611ea3906001600160a01b031661311f565b6001600160a01b031663a37b92c9336040518263ffffffff1660e01b8152600401611ece9190614523565b60206040518083038186803b158015611ee657600080fd5b505afa158015611efa573d6000803e3d6000fd5b505050506040513d601f19601f82011682018060405250810190611f1e919061438e565b611f3a5760405162461bcd60e51b815260040161057c90614b3b565b6101c654611f50906001600160a01b031661312a565b6001600160a01b0316636352211e836040518263ffffffff1660e01b8152600401611f7b91906145c0565b60206040518083038186803b158015611f9357600080fd5b505afa158015611fa7573d6000803e3d6000fd5b505050506040513d601f19601f82011682018060405250810190611fcb919061433a565b6001600160a01b0316336001600160a01b031614611ffb5760405162461bcd60e51b815260040161057c90614b3b565b6000612006836131aa565b6001810180546000918290556101c65492945092509061203990612032906001600160a01b03166138b8565b839061328a565b905060006120478383612a42565b905083600201546000141561205f5761205f866132cc565b61206982336138d0565b6101c6546120879033908390611036906001600160a01b031661393f565b336001600160a01b03167f2d4d49c3e017b8235c908cbaa83a2431a08f3b950712696ece2088964fd399f082846040516120c2929190614e48565b60405180910390a2935050505060c9805460ff19166001179055919050565b60975460009060ff16156121075760405162461bcd60e51b815260040161057c90614945565b60c95460ff166121295760405162461bcd60e51b815260040161057c90614c98565b60c9805460ff191690556101c654612149906001600160a01b031661311f565b6001600160a01b031663a37b92c9336040518263ffffffff1660e01b81526004016121749190614523565b60206040518083038186803b15801561218c57600080fd5b505afa1580156121a0573d6000803e3d6000fd5b505050506040513d601f19601f820116820180604052508101906121c4919061438e565b6121e05760405162461bcd60e51b815260040161057c90614b3b565b600082116122005760405162461bcd60e51b815260040161057c90614dc5565b612208612a25565b506101cd546122179083612b3b565b6101cd556122248261178e565b9050336001600160a01b03167f0b05f0d1cd0819f155b8a61f60baf7767c1ee49d04aeaab701df236140eb93f98383604051612261929190614e48565b60405180910390a26101c65461227f906001600160a01b031661393f565b6001600160a01b03166323b872dd3330856040518463ffffffff1660e01b81526004016122ae93929190614537565b602060405180830381600087803b1580156122c857600080fd5b505af11580156122dc573d6000803e3d6000fd5b505050506040513d601f19601f82011682018060405250810190612300919061438e565b61231c5760405162461bcd60e51b815260040161057c906146b2565b6101c654612332906001600160a01b0316613000565b6001600160a01b031663449a52f833836040518363ffffffff1660e01b815260040161235f92919061459c565b600060405180830381600087803b15801561237957600080fd5b505af115801561238d573d6000803e3d6000fd5b5050505060c9805460ff19166001179055919050565b6000611560600080516020614eb383398151915261046e612f93565b6123c76123a3565b6123e35760405162461bcd60e51b815260040161057c90614d2b565b600080526101cb6020527f7815f96d61162a6533de7fc4199513d6e939c8cbee1627dfd11ec1fe503f0bb3541561241957600080fd5b621275006101ce556101c654612437906001600160a01b031661393f565b6001600160a01b03166370a08231306040518263ffffffff1660e01b81526004016124629190614523565b60206040518083038186803b15801561247a57600080fd5b505afa15801561248e573d6000803e3d6000fd5b505050506040513d601f19601f820116820180604052508101906124b2919061447f565b6101cd55600080526101cb602052427f7815f96d61162a6533de7fc4199513d6e939c8cbee1627dfd11ec1fe503f0bb39081556114689061394a565b600081815260656020526040812061179d906139d6565b6101c96020526000908152604090205481565b6000828152606560205260409020600201546125369061046e612f93565b610d1f5760405162461bcd60e51b815260040161057c906148f5565b60975460ff16156125755760405162461bcd60e51b815260040161057c90614945565b60c95460ff166125975760405162461bcd60e51b815260040161057c90614c98565b60c9805460ff191690556101c6546125b7906001600160a01b031661311f565b6001600160a01b031663a37b92c9336040518263ffffffff1660e01b81526004016125e29190614523565b60206040518083038186803b1580156125fa57600080fd5b505afa15801561260e573d6000803e3d6000fd5b505050506040513d601f19601f82011682018060405250810190612632919061438e565b61264e5760405162461bcd60e51b815260040161057c90614b3b565b6101c654600090612667906001600160a01b031661312a565b6040516331a9108f60e11b81529091506001600160a01b03821690636352211e906126969085906004016145c0565b60206040518083038186803b1580156126ae57600080fd5b505afa1580156126c2573d6000803e3d6000fd5b505050506040513d601f19601f820116820180604052508101906126e6919061433a565b6001600160a01b0316336001600160a01b0316146127165760405162461bcd60e51b815260040161057c90614b3b565b600080612722846131aa565b600281015491935091506127369086612b3b565b6002820155600182015461274a9086612b3b565b60018301556101ca54604051339186917f99e2edbbb2b83be9287a6f12d5ad204eb47b5a9da08ee36e58f714784d753fb690612787908a906145c0565b60405180910390a46101c6546127af90339030908890611dc1906001600160a01b0316613000565b505060c9805460ff19166001179055505050565b60975460ff16156127e65760405162461bcd60e51b815260040161057c90614945565b60c95460ff166128085760405162461bcd60e51b815260040161057c90614c98565b60c9805460ff1916905561281a612a25565b506101c654600090612834906001600160a01b0316613579565b905061283e6142e6565b60405163463d31d760e11b81526001600160a01b03831690638c7a63ae9061286a9086906004016145c0565b60a06040518083038186803b15801561288257600080fd5b505afa158015612896573d6000803e3d6000fd5b505050506040513d601f19601f820116820180604052508101906128ba919061440b565b8051604051632a8a9f1360e21b81529192509060009081906001600160a01b0384169063aa2a7c4c906128f19089906004016145c0565b6040805180830381600087803b15801561290a57600080fd5b505af115801561291e573d6000803e3d6000fd5b505050506040513d601f19601f820116820180604052508101906129429190614497565b915091506129518383836139e1565b505060c9805460ff1916600117905550505050565b600080516020614eb383398151915281565b600080516020614ef383398151915281565b6101c45481565b6101c6546000906129aa906001600160a01b0316613579565b6001600160a01b031663b5ada6d8836040518263ffffffff1660e01b81526004016129d59190614523565b60206040518083038186803b1580156129ed57600080fd5b505afa158015612a01573d6000803e3d6000fd5b505050506040513d601f19601f8201168201806040525081019061179d919061438e565b6000611560612a32612d17565b613ac7565b600061179d82613ca2565b60006113d983836040518060400160405280601e81526020017f536166654d6174683a207375627472616374696f6e206f766572666c6f770000815250613cba565b6101c654600090612a9d906001600160a01b031661393f565b60405163095ea7b360e01b81529091506001600160a01b0382169063095ea7b390612ace908690869060040161459c565b602060405180830381600087803b158015612ae857600080fd5b505af1158015612afc573d6000803e3d6000fd5b505050506040513d601f19601f82011682018060405250810190612b20919061438e565b61124c57600080fd5b600061179d6001610c7a846002613250565b6000828201838110156113d95760405162461bcd60e51b815260040161057c90614831565b303b1590565b600054610100900460ff1680612b7f5750612b7f612b60565b80612b8d575060005460ff16155b612ba95760405162461bcd60e51b815260040161057c90614a46565b600054610100900460ff16158015611456576000805460ff1961ff0019909116610100171660011790558015611468576000805461ff001916905550565b600054610100900460ff1680612c005750612c00612b60565b80612c0e575060005460ff16155b612c2a5760405162461bcd60e51b815260040161057c90614a46565b600054610100900460ff16158015612c55576000805460ff1961ff0019909116610100171660011790555b6097805460ff191690558015611468576000805461ff001916905550565b600054610100900460ff1680612c8c5750612c8c612b60565b80612c9a575060005460ff16155b612cb65760405162461bcd60e51b815260040161057c90614a46565b600054610100900460ff16158015612ce1576000805460ff1961ff0019909116610100171660011790555b60c9805460ff191660011790558015611468576000805461ff001916905550565b60009182526065602052604090912060020155565b6101ca5460009081526101cb6020526040902090565b612d3561429d565b8151600090421015612d4c57508190506000612dcf565b6000612d5b846020015161356a565b9050612d6a846000015161300b565b84526101cd541580612d7a575080155b15612d9d576101ce548451612d8e91612b3b565b84525082915060019050612dcf565b6101cd54600090612dae9083613ce6565b90506000612dbb8261178e565b604087015250606085015250829150600290505b915091565b6000612dde612a25565b506101c654600090612df8906001600160a01b0316613000565b90506000816001600160a01b03166370a08231336040518263ffffffff1660e01b8152600401612e289190614523565b60206040518083038186803b158015612e4057600080fd5b505afa158015612e54573d6000803e3d6000fd5b505050506040513d601f19601f82011682018060405250810190612e78919061447f565b905080841115612e9a5760405162461bcd60e51b815260040161057c90614766565b60408051808201909152600281526124a160f11b60208201526101cd54612ec2918790613cba565b6101cd556101c654859350612ee79033908590611036906001600160a01b031661393f565b60405163079cc67960e41b81526001600160a01b038316906379cc679090612f15903390889060040161459c565b600060405180830381600087803b158015612f2f57600080fd5b505af1158015612f43573d6000803e3d6000fd5b50505050336001600160a01b03167f2d4d49c3e017b8235c908cbaa83a2431a08f3b950712696ece2088964fd399f0846000604051612f83929190614e48565b60405180910390a2505092915050565b3390565b6000828152606560205260409020612faf9082613cfc565b156109ab57612fbc612f93565b6001600160a01b0316816001600160a01b0316837f2f8788117e7eff1d82e926ec794901d17c78024a50270940304540a733656f0d60405160405180910390a45050565b600061179d82613d11565b6000806130286101ce54610fba8542612a4290919063ffffffff16565b90506113d96130436101ce548361325090919063ffffffff16565b8490612b3b565b60008281526065602052604090206130629082613d29565b156109ab5761306f612f93565b6001600160a01b0316816001600160a01b0316837ff6391f5c32d9c69d2a47ea670b442974b53935d1edc7fd64eb21e047a839171b60405160405180910390a45050565b60975460ff166130d55760405162461bcd60e51b815260040161057c90614738565b6097805460ff191690557f5db9ee0a495bf2e6ff9c91a7834c1ba4fdd244a5e8aa4e537bd38aeae4b073aa613108612f93565b6040516131159190614523565b60405180910390a1565b600061179d82613d3e565b60006001600160a01b03821663b93f9b0a60185b6040518263ffffffff1660e01b815260040161315a91906145c0565b60206040518083038186803b15801561317257600080fd5b505afa158015613186573d6000803e3d6000fd5b505050506040513d601f19601f8201168201806040525081019061179d919061433a565b60008060006131b7612a25565b905060006131c485613d56565b91935090915050915091565b60006001600160a01b03821663fc563658600a5b6040518263ffffffff1660e01b815260040161320091906145c0565b60206040518083038186803b15801561321857600080fd5b505afa15801561322c573d6000803e3d6000fd5b505050506040513d601f19601f8201168201806040525081019061179d919061447f565b60008261325f5750600061179d565b8282028284828161326c57fe5b04146113d95760405162461bcd60e51b815260040161057c90614a05565b60006113d983836040518060400160405280601a81526020017f536166654d6174683a206469766973696f6e206279207a65726f000000000000815250613e74565b60008181526101cc6020526040812081815560018101829055600201556101c6546132ff906001600160a01b031661312a565b6001600160a01b03166342966c68826040518263ffffffff1660e01b815260040161332a91906145c0565b600060405180830381600087803b15801561334457600080fd5b505af1158015613358573d6000803e3d6000fd5b5050505050565b61124c8363a9059cbb60e01b848460405160240161337e92919061459c565b60408051601f198184030181529190526020810180516001600160e01b03166001600160e01b031990931692909217909152613eab565b60006001600160a01b03821663b93f9b0a600761313e565b60006001600160a01b03821663b93f9b0a600561313e565b6133ed6142c5565b6133f561429d565b82515b6101ca54811115801561340f575060008460400151115b1561355e576101cb600082815260200190815260200160002060405180608001604052908160008201548152602001600182015481526020016002820154815260200160038201548152505091506101ca548114156134755761347182612d2d565b5091505b600061349a8360200151610fba8760400151866060015161325090919063ffffffff16565b905060006134c18460200151610fba8860400151876040015161325090919063ffffffff16565b60408701519091506134d39082612a42565b604087015260208601516134e79083612b3b565b602087015260408401511561355457600061352e8560400151610fba64e8d4a51000613528670de0b6b3a76400008a6060015161325090919063ffffffff16565b90613250565b90506000613540886040015183613f90565b159050801561355157600060408901525b50505b50506001016133f8565b50506101ca5482525090565b600061179d826101c354613f90565b600061179d82613fb0565b60008073__$1dcd660c042b25ef260537b13a3f0ede49$__6397aec1ab856001600160a01b03166347195e136040518163ffffffff1660e01b815260040160206040518083038186803b1580156135da57600080fd5b505afa1580156135ee573d6000803e3d6000fd5b505050506040513d601f19601f82011682018060405250810190613612919061433a565b6101c6548690429061362c906001600160a01b0316613fc8565b6101c654613642906001600160a01b0316613fe0565b6040518663ffffffff1660e01b81526004016136629594939291906145c9565b604080518083038186803b15801561367957600080fd5b505af415801561368d573d6000803e3d6000fd5b505050506040513d601f19601f820116820180604052508101906136b19190614497565b915091509250929050565b6136c461429d565b6136cc61429d565b6101ce5483516136db91612b3b565b8152604083015160208401516000916136f49190612a42565b60208301525092915050565b60975460ff16156137235760405162461bcd60e51b815260040161057c90614945565b6097805460ff191660011790557f62e78cea01bee320cd4e420270b5ea74000d11b0c9f74754ebdbfc544b05a258613108612f93565b60006113d982610fba670de0b6b3a764000061352887613ff8565b60006113d98383614013565b60006113d9836001600160a01b038416614058565b6000600160ff1b82106137ba5760405162461bcd60e51b815260040161057c90614bc2565b5090565b60008183038183128015906137d35750838113155b806137e857506000831280156137e857508381135b6113d95760405162461bcd60e51b815260040161057c90614c0a565b61380c612a25565b5060008113156138445760006138296138248361386f565b614070565b6101c35490915061383a9082612b3b565b6101c35550611468565b6000613856613824836000190261386f565b6101c3549091506138679082612a42565b6101c3555050565b6000808212156137ba5760405162461bcd60e51b815260040161057c9061499b565b6138b2846323b872dd60e01b85858560405160240161337e93929190614537565b50505050565b60006001600160a01b03821663fc56365860046131e4565b806001600160a01b03167ff3583f178a8d4f8888c3683f8e948faf9b6eb701c4f1fab265a6ecad1a1ddebb8360405161390991906145c0565b60405180910390a26101c6546109ab9061392b906001600160a01b0316614092565b6101c6548490611036906001600160a01b03165b600061179d826133cd565b60408051608081018252825481526001830154602082015260028301549181019190915260038201546060820152600090613984906136bc565b6101ca8054600190810180835560009081526101cb6020908152604080832086518155918601519382019390935584830151600282015560609094015160039094019390935590548252902092915050565b600061179d826140aa565b60006139ec83614070565b6101c3549091506139fd9082612b3b565b6101c3558215613a4957836001600160a01b03167fed3bc1b58411ea8e764b3ef8fa6b654877bc1e796a5a1a2373dfc8f1c0e0ea4884604051613a4091906145c0565b60405180910390a25b8115613aa357836001600160a01b03167f8295ad220549851bab232c2a7ae2e3c53a63d2294602bc85f8d8af108778a37e83604051613a8891906145c0565b60405180910390a26101c454613a9e9083612a42565b6101c4555b613abd82610c7a856101cd54612b3b90919063ffffffff16565b6101cd5550505050565b6000613ad161429d565b60408051608081018252845481526001850154602082015260028501549181019190915260038401546060820152600090613b0b90612d2d565b90925090506000816002811115613b1e57fe5b1415613b2e578392505050610a2a565b6001816002811115613b3c57fe5b1415613b9357835482518086556101ca5460405190917f9933f8b03549f37c2bd3c203d4e7fd82d3572bbf69a109f58225495710dba98491613b8091908590614e48565b60405180910390a2849350505050610a2a565b60408201516002850155606082015160038501819055825185556101cd54613bba91612a42565b6101cd556101ca546000613bcd8661394a565b6101c654909150613be6906001600160a01b0316613000565b6001600160a01b03166379cc67903088600201546040518363ffffffff1660e01b8152600401613c1792919061459c565b600060405180830381600087803b158015613c3157600080fd5b505af1158015613c45573d6000803e3d6000fd5b50505050817fbb4a26fa0ace13ee4da343896c20eaa44a618fb9071fdd8c2e2c960a4583189d8760000154886001015489600301548a60020154604051613c8f9493929190614e56565b60405180910390a29350610a2a92505050565b60006001600160a01b03821663b93f9b0a600f61313e565b60008184841115613cde5760405162461bcd60e51b815260040161057c9190614611565b505050900390565b6000818310613cf557816113d9565b5090919050565b60006113d9836001600160a01b0384166140ae565b60006001600160a01b03821663b93f9b0a600461313e565b60006113d9836001600160a01b0384166140f8565b60006001600160a01b03821663b93f9b0a601361313e565b60008181526101cc60205260408120805482905b6101ca5481108015613d80575060008360020154115b15613e665760008181526101cb60205260408120600181015460028601546003830154929550613db392610fba91613250565b90506000613dda8460010154610fba8760020154876002015461325090919063ffffffff16565b6002860154909150613dec9082612a42565b60028601556001850154613e009083612b3b565b600186015560028401546003850154600091613e3391610fba9064e8d4a510009061352890670de0b6b3a7640000613250565b90506000613e45876002015483613f90565b1590508015613e5657600060028801555b505060019092019150613d6a9050565b50506101ca54815592915050565b60008183613e955760405162461bcd60e51b815260040161057c9190614611565b506000838581613ea157fe5b0495945050505050565b613ebd826001600160a01b03166141be565b613ed95760405162461bcd60e51b815260040161057c90614cf4565b60006060836001600160a01b031683604051613ef59190614507565b6000604051808303816000865af19150503d8060008114613f32576040519150601f19603f3d011682016040523d82523d6000602084013e613f37565b606091505b509150915081613f595760405162461bcd60e51b815260040161057c906148c0565b8051156138b25780806020019051810190613f74919061438e565b6138b25760405162461bcd60e51b815260040161057c90614c4e565b60006113d9670de0b6b3a7640000610fba613fab8686613250565b6141fa565b60006001600160a01b03821663b93f9b0a600c61313e565b60006001600160a01b03821663fc56365860056131e4565b60006001600160a01b03821663fc56365860066131e4565b600061179d620f4240610fba84670de0b6b3a7640000613250565b815460009082106140365760405162461bcd60e51b815260040161057c90614644565b82600001828154811061404557fe5b9060005260206000200154905092915050565b60009081526001919091016020526040902054151590565b600061179d61407d614214565b610fba670de0b6b3a764000061352886613ff8565b60006001600160a01b03821663b93f9b0a600661313e565b5490565b60006140ba8383614058565b6140f05750815460018181018455600084815260208082209093018490558454848252828601909352604090209190915561179d565b50600061179d565b600081815260018301602052604081205480156141b4578354600019808301919081019060009087908390811061412b57fe5b906000526020600020015490508087600001848154811061414857fe5b60009182526020808320909101929092558281526001898101909252604090209084019055865487908061417857fe5b6001900381819060005260206000200160009055905586600101600087815260200190815260200160002060009055600194505050505061179d565b600091505061179d565b6000813f7fc5d2460186f7233c927e7db2dcc703c0e500b653ca82273b7bfad8045d85a4708181148015906141f257508115155b949350505050565b600061179d612032670de0b6b3a7640000620f424061328a565b6101c65460009061422d906001600160a01b0316613000565b6001600160a01b03166318160ddd6040518163ffffffff1660e01b815260040160206040518083038186803b15801561426557600080fd5b505afa158015614279573d6000803e3d6000fd5b505050506040513d601f19601f82011682018060405250810190611560919061447f565b6040518060800160405280600081526020016000815260200160008152602001600081525090565b60405180606001604052806000815260200160008152602001600081525090565b6040518060a0016040528060006001600160a01b03168152602001600081526020016000815260200160008152602001600081525090565b60006020828403121561432f578081fd5b81356113d981614e9d565b60006020828403121561434b578081fd5b81516113d981614e9d565b60008060408385031215614368578081fd5b823561437381614e9d565b9150602083013561438381614e9d565b809150509250929050565b60006020828403121561439f578081fd5b815180151581146113d9578182fd5b6000602082840312156143bf578081fd5b5035919050565b600080604083850312156143d8578182fd5b82359150602083013561438381614e9d565b600080604083850312156143fc578182fd5b50508035926020909101359150565b600060a0828403121561441c578081fd5b60405160a0810181811067ffffffffffffffff8211171561443b578283fd5b604052825161444981614e9d565b80825250602083015160208201526040830151604082015260608301516060820152608083015160808201528091505092915050565b600060208284031215614490578081fd5b5051919050565b600080604083850312156144a9578182fd5b505080516020909101519092909150565b600080600080600060a086880312156144d1578081fd5b8535945060208601359350604086013560ff811681146144ef578182fd5b94979396509394606081013594506080013592915050565b60008251614519818460208701614e71565b9190910192915050565b6001600160a01b0391909116815260200190565b6001600160a01b039384168152919092166020820152604081019190915260600190565b6001600160a01b0397881681529590961660208601526040850193909352606084019190915260ff16608083015260a082015260c081019190915260e00190565b6001600160a01b03929092168252602082015260400190565b901515815260200190565b90815260200190565b6001600160a01b03959095168552602085019390935260408401919091526060830152608082015260a00190565b6001600160a01b0392831681529116602082015260400190565b6000602082528251806020840152614630816040850160208701614e71565b601f01601f19169190910160400192915050565b60208082526022908201527f456e756d657261626c655365743a20696e646578206f7574206f6620626f756e604082015261647360f01b606082015260800190565b602080825260129082015271506f6f6c20686173206e6f20736c6963657360701b604082015260600190565b6020808252601e908201527f4661696c656420746f207472616e7366657220666f72206465706f7369740000604082015260600190565b6020808252602f908201527f416363657373436f6e74726f6c3a2073656e646572206d75737420626520616e60408201526e0818591b5a5b881d1bc819dc985b9d608a1b606082015260800190565b60208082526014908201527314185d5cd8589b194e881b9bdd081c185d5cd95960621b604082015260600190565b60208082526037908201527f416d6f756e74207265717565737465642069732067726561746572207468616e604082015276207768617420746869732061646472657373206f776e7360481b606082015260800190565b60208082526010908201526f115e1a5cdd1a5b99c81c995c5d595cdd60821b604082015260600190565b6020808252602a908201527f4f776e657220616e6420636f6e666967206164647265737365732063616e6e6f6040820152697420626520656d70747960b01b606082015260800190565b6020808252601b908201527f536166654d6174683a206164646974696f6e206f766572666c6f770000000000604082015260600190565b60208082526038908201527f4f6e6c7920746f6b656e73206f776e6564206279207468652073656e696f72206040820152773837b7b61031b0b7103132903bb934ba3a32b7103237bbb760411b606082015260800190565b6020808252818101527f5361666545524332303a206c6f772d6c6576656c2063616c6c206661696c6564604082015260600190565b60208082526030908201527f416363657373436f6e74726f6c3a2073656e646572206d75737420626520616e60408201526f2061646d696e20746f207265766f6b6560801b606082015260800190565b60208082526010908201526f14185d5cd8589b194e881c185d5cd95960821b604082015260600190565b602080825260129082015271141bdbdb081b5d5cdd081899481d985b1a5960721b604082015260600190565b6020808252818101527f53616665436173743a2076616c7565206d75737420626520706f736974697665604082015260600190565b6020808252818101527f4f776e65722063616e6e6f7420626520746865207a65726f2061646472657373604082015260600190565b60208082526021908201527f536166654d6174683a206d756c7469706c69636174696f6e206f766572666c6f6040820152607760f81b606082015260800190565b6020808252602e908201527f436f6e747261637420696e7374616e63652068617320616c726561647920626560408201526d195b881a5b9a5d1a585b1a5e995960921b606082015260800190565b6020808252600a90820152692737ba102d30b83832b960b11b604082015260600190565b6020808252600b908201526a10d85b9d0818d85b98d95b60aa1b604082015260600190565b6020808252600d908201526c2d32b93790323ab930ba34b7b760991b604082015260600190565b6020808252601c908201527f4d757374207769746864726177206d6f7265207468616e207a65726f00000000604082015260600190565b6020808252600290820152614e4160f01b604082015260600190565b6020808252600f908201526e6e6f7420656e6f756768207573646360881b604082015260600190565b60208082526022908201527f496e766573746d656e7420616d6f756e74206d75737420626520706f73697469604082015261766560f01b606082015260800190565b60208082526028908201527f53616665436173743a2076616c756520646f65736e27742066697420696e2061604082015267371034b73a191a9b60c11b606082015260800190565b60208082526024908201527f5369676e6564536166654d6174683a207375627472616374696f6e206f766572604082015263666c6f7760e01b606082015260800190565b6020808252602a908201527f5361666545524332303a204552433230206f7065726174696f6e20646964206e6040820152691bdd081cdd58d8d9595960b21b606082015260800190565b6020808252601f908201527f5265656e7472616e637947756172643a207265656e7472616e742063616c6c00604082015260600190565b6020808252600b908201526a496e76616c69642042707360a81b604082015260600190565b6020808252601f908201527f5361666545524332303a2063616c6c20746f206e6f6e2d636f6e747261637400604082015260600190565b6020808252602b908201527f4d75737420686176652061646d696e20726f6c6520746f20706572666f726d2060408201526a3a3434b99030b1ba34b7b760a91b606082015260800190565b6020808252602f908201527f416363657373436f6e74726f6c3a2063616e206f6e6c792072656e6f756e636560408201526e103937b632b9903337b91039b2b63360891b606082015260800190565b6020808252601b908201527f4d757374206465706f736974206d6f7265207468616e207a65726f0000000000604082015260600190565b8151815260208083015190820152604080830151908201526060918201519181019190915260800190565b81518152602080830151908201526040918201519181019190915260600190565b918252602082015260400190565b93845260208401929092526040830152606082015260800190565b60005b83811015614e8c578181015183820152602001614e74565b838111156138b25750506000910152565b6001600160a01b038116811461146857600080fdfeb19546dff01e856fb3f010c267a7b1c60363cf8a4664e21cc89c26224620214ed624b04b6a86de88625cc0780256b85157c5a615db56d1357e0a97a30fde276765d7a28e3265b37a6474929f336521b332c1681b933f6cb9f3376673440d862aa26469706673582212202bea0517267f8046e9834c584624310728f56f29c4a582d110ce683607aa110e64736f6c634300060c0033",
  "libraries": {
    "Accountant": "0xf0F8d382a4e1e2F26891B1a95f9Dcb89406bd4A1"
  },
  "devdoc": {
    "author": "Goldfinch",
    "kind": "dev",
    "methods": {
      "addToWithdrawalRequest(uint256,uint256)": {
        "details": "Reverts if a withdrawal with the given tokenId does not existReverts if the caller is not the owner of the given tokenTriggers a checkpoint"
      },
      "calculateWritedown(uint256)": {
        "params": {
          "tokenId": "The token reprsenting the position"
        },
        "returns": {
          "_0": "The amount in dollars the principal should be written down by"
        }
      },
      "cancelWithdrawalRequest(uint256)": {
        "details": "triggers a checkpoint",
        "returns": {
          "_0": "fiduReceived the fidu amount returned to the caller"
        }
      },
      "claimWithdrawalRequest(uint256)": {
        "details": "triggers a checkpoint"
      },
      "deposit(uint256)": {
        "params": {
          "amount": "The amount of USDC to deposit"
        }
      },
      "depositWithPermit(uint256,uint256,uint8,bytes32,bytes32)": {
        "params": {
          "amount": "The amount of USDC to deposit",
          "r": "secp256k1 signature component",
          "s": "secp256k1 signature component",
          "v": "secp256k1 signature component"
        }
      },
      "getRoleAdmin(bytes32)": {
        "details": "Returns the admin role that controls `role`. See {grantRole} and {revokeRole}. To change a role's admin, use {_setRoleAdmin}."
      },
      "getRoleMember(bytes32,uint256)": {
        "details": "Returns one of the accounts that have `role`. `index` must be a value between 0 and {getRoleMemberCount}, non-inclusive. Role bearers are not sorted in any particular way, and their ordering may change at any point. WARNING: When using {getRoleMember} and {getRoleMemberCount}, make sure you perform all queries on the same block. See the following https://forum.openzeppelin.com/t/iterating-over-elements-on-enumerableset-in-openzeppelin-contracts/2296[forum post] for more information."
      },
      "getRoleMemberCount(bytes32)": {
        "details": "Returns the number of accounts that have `role`. Can be used together with {getRoleMember} to enumerate all bearers of a role."
      },
      "grantRole(bytes32,address)": {
        "details": "Grants `role` to `account`. If `account` had not been already granted `role`, emits a {RoleGranted} event. Requirements: - the caller must have ``role``'s admin role."
      },
      "hasRole(bytes32,address)": {
        "details": "Returns `true` if `account` has been granted `role`."
      },
      "invest(address)": {
        "params": {
          "pool": "An ITranchedPool whose senior tranche should be considered for investment"
        }
      },
      "pause()": {
        "details": "Pauses all functions guarded by Pause See {Pausable-_pause}. Requirements: - the caller must have the PAUSER_ROLE."
      },
      "paused()": {
        "details": "Returns true if the contract is paused, and false otherwise."
      },
      "redeem(uint256)": {
        "details": "triggers a checkpoint",
        "params": {
          "tokenId": "the ID of an IPoolTokens token to be redeemed"
        }
      },
      "renounceRole(bytes32,address)": {
        "details": "Revokes `role` from the calling account. Roles are often managed via {grantRole} and {revokeRole}: this function's purpose is to provide a mechanism for accounts to lose their privileges if they are compromised (such as when a trusted device is misplaced). If the calling account had been granted `role`, emits a {RoleRevoked} event. Requirements: - the caller must be `account`."
      },
      "requestWithdrawal(uint256)": {
        "details": "triggers a checkpoint",
        "returns": {
          "_0": "tokenId token minted to caller"
        }
      },
      "revokeRole(bytes32,address)": {
        "details": "Revokes `role` from `account`. If `account` had been granted `role`, emits a {RoleRevoked} event. Requirements: - the caller must have ``role``'s admin role."
      },
      "setEpochDuration(uint256)": {
        "details": "Triggers a checkpoint"
      },
      "unpause()": {
        "details": "Unpauses the contract See {Pausable-_unpause}. Requirements: - the caller must have the Pauser role"
      },
      "withdraw(uint256)": {
        "params": {
          "usdcAmount": "The amount of USDC to withdraw"
        }
      },
      "withdrawInFidu(uint256)": {
        "params": {
          "fiduAmount": "The amount of USDC to withdraw in terms of FIDU shares"
        }
      },
      "writedown(uint256)": {
        "details": "triggers a checkpoint",
        "params": {
          "tokenId": "the ID of an IPoolTokens token to be considered for writedown"
        }
      }
    },
    "stateVariables": {
      "_usdcAvailable": {
        "details": "Tracks usdc available for investments, zaps, withdrawal allocations etc. Due to the time based nature of epochs, if the last epoch has ended but isn't checkpointed yet then this var doesn't reflect the true usdc available at the current timestamp. To query for the up to date usdc available without having to execute a tx, use the usdcAvailable() view fn"
      },
      "compoundBalance": {
        "details": "DEPRECATED!"
      },
      "writedowns": {
        "details": "DEPRECATED, DO NOT USE."
      },
      "writedownsByPoolToken": {
        "details": "Writedowns by PoolToken id. This is used to ensure writedowns are incremental.   Example: At t1, a pool is late and should be written down by 10%. At t2, the pool   is even later, and should be written down by 25%. This variable helps ensure that   if writedowns occur at both t1 and t2, t2's writedown is only by the delta of 15%,   rather than double-counting the writedown percent from t1."
      }
    },
    "title": "Goldfinch's SeniorPool contract",
    "version": 1
  },
  "userdoc": {
    "events": {
      "EpochDurationChanged(uint256)": {
        "notice": "Emitted when the epoch duration is changed"
      },
      "EpochEnded(uint256,uint256,uint256,uint256,uint256)": {
        "notice": "Emitted when an epoch has been checkpointed"
      },
      "EpochExtended(uint256,uint256,uint256)": {
        "notice": "Emitted when an epoch could not be finalized and is extended instead"
      },
      "WithdrawalAddedTo(uint256,uint256,address,uint256)": {
        "notice": "Emitted when a user adds to their existing withdraw request"
      },
      "WithdrawalCanceled(uint256,uint256,address,uint256,uint256)": {
        "notice": "Emitted when a withdraw request has been canceled"
      },
      "WithdrawalRequested(uint256,uint256,address,uint256)": {
        "notice": "Emitted when a new withdraw request has been created"
      }
    },
    "kind": "user",
    "methods": {
      "addToWithdrawalRequest(uint256,uint256)": {
        "notice": "Add `fiduAmount` FIDU to a withdrawal request for `tokenId`. Caller must own tokenId"
      },
      "assets()": {
        "notice": "Returns the net assests controlled by and owed to the pool"
      },
      "calculateWritedown(uint256)": {
        "notice": "Calculates the writedown amount for a particular pool position"
      },
      "cancelWithdrawalRequest(uint256)": {
        "notice": "Cancel request for tokenId. The fiduRequested (minus a fee) is returned to the caller. Caller must own tokenId."
      },
      "claimWithdrawalRequest(uint256)": {
        "notice": "Transfer the usdcWithdrawable of request for tokenId to the caller. Caller must own tokenId"
      },
      "currentEpoch()": {
        "notice": "The current withdrawal epoch"
      },
      "deposit(uint256)": {
        "notice": "Deposits `amount` USDC from msg.sender into the SeniorPool, and grants you the  equivalent value of FIDU tokens"
      },
      "depositWithPermit(uint256,uint256,uint8,bytes32,bytes32)": {
        "notice": "Identical to deposit, except it allows for a passed up signature to permit  the Senior Pool to move funds on behalf of the user, all within one transaction."
      },
      "epochDuration()": {
        "notice": "Current duration of withdrawal epochs, in seconds"
      },
      "initializeEpochs()": {
        "notice": "Initialize the epoch withdrawal system. This includes writing the          initial epoch and snapshotting usdcAvailable at the current usdc balance of          the senior pool."
      },
      "invest(address)": {
        "notice": "Invest in an ITranchedPool's senior tranche using the senior pool's strategy"
      },
      "redeem(uint256)": {
        "notice": "Redeem interest and/or principal from an ITranchedPool investment"
      },
      "requestWithdrawal(uint256)": {
        "notice": "Submit a request to withdraw `fiduAmount` of FIDU. Request is rejected if callers already owns a request token. A non-transferrable request token is minted to the caller"
      },
      "setEpochDuration(uint256)": {
        "notice": "Update epoch duration"
      },
      "sharesOutstanding()": {
        "notice": "Returns the number of shares outstanding, accounting for shares that will be burned          when an epoch checkpoint happens"
      },
      "usdcAvailable()": {
        "notice": "Returns the amount of unallocated usdc in the senior pool, taking into account         usdc that _will_ be allocated to withdrawals when a checkpoint happens"
      },
      "withdraw(uint256)": {
        "notice": "Withdraws USDC from the SeniorPool to msg.sender, and burns the equivalent value of FIDU tokens"
      },
      "withdrawInFidu(uint256)": {
        "notice": "Withdraws USDC (denominated in FIDU terms) from the SeniorPool to msg.sender"
      },
      "withdrawalRequest(uint256)": {
        "notice": "Get request by tokenId. A request is considered active if epochCursor > 0."
      },
      "writedown(uint256)": {
        "notice": "Write down an ITranchedPool investment. This will adjust the senior pool's share price  down if we're considering the investment a loss, or up if the borrower has subsequently  made repayments that restore confidence that the full loan will be repaid."
      }
    },
    "notice": "Main entry point for senior LPs (a.k.a. capital providers)  Automatically invests across borrower pools using an adjustable strategy.",
    "version": 1
  },
  "storageLayout": {
    "storage": [
      {
        "astId": 50,
        "contract": "contracts/protocol/core/SeniorPool.sol:SeniorPool",
        "label": "initialized",
        "offset": 0,
        "slot": "0",
        "type": "t_bool"
      },
      {
        "astId": 53,
        "contract": "contracts/protocol/core/SeniorPool.sol:SeniorPool",
        "label": "initializing",
        "offset": 1,
        "slot": "0",
        "type": "t_bool"
      },
      {
        "astId": 118,
        "contract": "contracts/protocol/core/SeniorPool.sol:SeniorPool",
        "label": "______gap",
        "offset": 0,
        "slot": "1",
        "type": "t_array(t_uint256)50_storage"
      },
      {
        "astId": 43,
        "contract": "contracts/protocol/core/SeniorPool.sol:SeniorPool",
        "label": "__gap",
        "offset": 0,
        "slot": "51",
        "type": "t_array(t_uint256)50_storage"
      },
      {
        "astId": 163,
        "contract": "contracts/protocol/core/SeniorPool.sol:SeniorPool",
        "label": "_roles",
        "offset": 0,
        "slot": "101",
        "type": "t_mapping(t_bytes32,t_struct(RoleData)159_storage)"
      },
      {
        "astId": 408,
        "contract": "contracts/protocol/core/SeniorPool.sol:SeniorPool",
        "label": "__gap",
        "offset": 0,
        "slot": "102",
        "type": "t_array(t_uint256)49_storage"
      },
      {
        "astId": 3017,
        "contract": "contracts/protocol/core/SeniorPool.sol:SeniorPool",
        "label": "_paused",
        "offset": 0,
        "slot": "151",
        "type": "t_bool"
      },
      {
        "astId": 3106,
        "contract": "contracts/protocol/core/SeniorPool.sol:SeniorPool",
        "label": "__gap",
        "offset": 0,
        "slot": "152",
        "type": "t_array(t_uint256)49_storage"
      },
      {
        "astId": 3115,
        "contract": "contracts/protocol/core/SeniorPool.sol:SeniorPool",
        "label": "_notEntered",
        "offset": 0,
        "slot": "201",
        "type": "t_bool"
      },
      {
        "astId": 3156,
        "contract": "contracts/protocol/core/SeniorPool.sol:SeniorPool",
        "label": "__gap",
        "offset": 0,
        "slot": "202",
        "type": "t_array(t_uint256)49_storage"
      },
      {
        "astId": 12976,
        "contract": "contracts/protocol/core/SeniorPool.sol:SeniorPool",
        "label": "__gap1",
        "offset": 0,
        "slot": "251",
        "type": "t_array(t_uint256)50_storage"
      },
      {
        "astId": 12980,
        "contract": "contracts/protocol/core/SeniorPool.sol:SeniorPool",
        "label": "__gap2",
        "offset": 0,
        "slot": "301",
        "type": "t_array(t_uint256)50_storage"
      },
      {
        "astId": 12984,
        "contract": "contracts/protocol/core/SeniorPool.sol:SeniorPool",
        "label": "__gap3",
        "offset": 0,
        "slot": "351",
        "type": "t_array(t_uint256)50_storage"
      },
      {
        "astId": 12988,
        "contract": "contracts/protocol/core/SeniorPool.sol:SeniorPool",
        "label": "__gap4",
        "offset": 0,
        "slot": "401",
        "type": "t_array(t_uint256)50_storage"
      },
      {
        "astId": 10534,
        "contract": "contracts/protocol/core/SeniorPool.sol:SeniorPool",
        "label": "sharePrice",
        "offset": 0,
        "slot": "451",
        "type": "t_uint256"
      },
      {
        "astId": 10536,
        "contract": "contracts/protocol/core/SeniorPool.sol:SeniorPool",
        "label": "totalLoansOutstanding",
        "offset": 0,
        "slot": "452",
        "type": "t_uint256"
      },
      {
        "astId": 10538,
        "contract": "contracts/protocol/core/SeniorPool.sol:SeniorPool",
        "label": "totalWritedowns",
        "offset": 0,
        "slot": "453",
        "type": "t_uint256"
      },
      {
        "astId": 18434,
        "contract": "contracts/protocol/core/SeniorPool.sol:SeniorPool",
        "label": "config",
        "offset": 0,
        "slot": "454",
        "type": "t_contract(GoldfinchConfig)16882"
      },
      {
        "astId": 18437,
        "contract": "contracts/protocol/core/SeniorPool.sol:SeniorPool",
        "label": "compoundBalance",
        "offset": 0,
        "slot": "455",
        "type": "t_uint256"
      },
      {
        "astId": 18442,
        "contract": "contracts/protocol/core/SeniorPool.sol:SeniorPool",
        "label": "writedowns",
        "offset": 0,
        "slot": "456",
        "type": "t_mapping(t_contract(ITranchedPool)11246,t_uint256)"
      },
      {
        "astId": 18447,
        "contract": "contracts/protocol/core/SeniorPool.sol:SeniorPool",
        "label": "writedownsByPoolToken",
        "offset": 0,
        "slot": "457",
        "type": "t_mapping(t_uint256,t_uint256)"
      },
      {
        "astId": 18449,
        "contract": "contracts/protocol/core/SeniorPool.sol:SeniorPool",
        "label": "_checkpointedEpochId",
        "offset": 0,
        "slot": "458",
        "type": "t_uint256"
      },
      {
        "astId": 18453,
        "contract": "contracts/protocol/core/SeniorPool.sol:SeniorPool",
        "label": "_epochs",
        "offset": 0,
        "slot": "459",
        "type": "t_mapping(t_uint256,t_struct(Epoch)10697_storage)"
      },
      {
        "astId": 18457,
        "contract": "contracts/protocol/core/SeniorPool.sol:SeniorPool",
        "label": "_withdrawalRequests",
        "offset": 0,
        "slot": "460",
        "type": "t_mapping(t_uint256,t_struct(WithdrawalRequest)10704_storage)"
      },
      {
        "astId": 18460,
        "contract": "contracts/protocol/core/SeniorPool.sol:SeniorPool",
        "label": "_usdcAvailable",
        "offset": 0,
        "slot": "461",
        "type": "t_uint256"
      },
      {
        "astId": 18462,
        "contract": "contracts/protocol/core/SeniorPool.sol:SeniorPool",
        "label": "_epochDuration",
        "offset": 0,
        "slot": "462",
        "type": "t_uint256"
      }
    ],
    "types": {
      "t_array(t_bytes32)dyn_storage": {
        "base": "t_bytes32",
        "encoding": "dynamic_array",
        "label": "bytes32[]",
        "numberOfBytes": "32"
      },
      "t_array(t_uint256)49_storage": {
        "base": "t_uint256",
        "encoding": "inplace",
        "label": "uint256[49]",
        "numberOfBytes": "1568"
      },
      "t_array(t_uint256)50_storage": {
        "base": "t_uint256",
        "encoding": "inplace",
        "label": "uint256[50]",
        "numberOfBytes": "1600"
      },
      "t_bool": {
        "encoding": "inplace",
        "label": "bool",
        "numberOfBytes": "1"
      },
      "t_bytes32": {
        "encoding": "inplace",
        "label": "bytes32",
        "numberOfBytes": "32"
      },
      "t_contract(GoldfinchConfig)16882": {
        "encoding": "inplace",
        "label": "contract GoldfinchConfig",
        "numberOfBytes": "20"
      },
      "t_contract(ITranchedPool)11246": {
        "encoding": "inplace",
        "label": "contract ITranchedPool",
        "numberOfBytes": "20"
      },
      "t_mapping(t_bytes32,t_struct(RoleData)159_storage)": {
        "encoding": "mapping",
        "key": "t_bytes32",
        "label": "mapping(bytes32 => struct AccessControlUpgradeSafe.RoleData)",
        "numberOfBytes": "32",
        "value": "t_struct(RoleData)159_storage"
      },
      "t_mapping(t_bytes32,t_uint256)": {
        "encoding": "mapping",
        "key": "t_bytes32",
        "label": "mapping(bytes32 => uint256)",
        "numberOfBytes": "32",
        "value": "t_uint256"
      },
      "t_mapping(t_contract(ITranchedPool)11246,t_uint256)": {
        "encoding": "mapping",
        "key": "t_contract(ITranchedPool)11246",
        "label": "mapping(contract ITranchedPool => uint256)",
        "numberOfBytes": "32",
        "value": "t_uint256"
      },
      "t_mapping(t_uint256,t_struct(Epoch)10697_storage)": {
        "encoding": "mapping",
        "key": "t_uint256",
        "label": "mapping(uint256 => struct ISeniorPoolEpochWithdrawals.Epoch)",
        "numberOfBytes": "32",
        "value": "t_struct(Epoch)10697_storage"
      },
      "t_mapping(t_uint256,t_struct(WithdrawalRequest)10704_storage)": {
        "encoding": "mapping",
        "key": "t_uint256",
        "label": "mapping(uint256 => struct ISeniorPoolEpochWithdrawals.WithdrawalRequest)",
        "numberOfBytes": "32",
        "value": "t_struct(WithdrawalRequest)10704_storage"
      },
      "t_mapping(t_uint256,t_uint256)": {
        "encoding": "mapping",
        "key": "t_uint256",
        "label": "mapping(uint256 => uint256)",
        "numberOfBytes": "32",
        "value": "t_uint256"
      },
      "t_struct(AddressSet)2792_storage": {
        "encoding": "inplace",
        "label": "struct EnumerableSet.AddressSet",
        "members": [
          {
            "astId": 2791,
            "contract": "contracts/protocol/core/SeniorPool.sol:SeniorPool",
            "label": "_inner",
            "offset": 0,
            "slot": "0",
            "type": "t_struct(Set)2612_storage"
          }
        ],
        "numberOfBytes": "64"
      },
      "t_struct(Epoch)10697_storage": {
        "encoding": "inplace",
        "label": "struct ISeniorPoolEpochWithdrawals.Epoch",
        "members": [
          {
            "astId": 10690,
            "contract": "contracts/protocol/core/SeniorPool.sol:SeniorPool",
            "label": "endsAt",
            "offset": 0,
            "slot": "0",
            "type": "t_uint256"
          },
          {
            "astId": 10692,
            "contract": "contracts/protocol/core/SeniorPool.sol:SeniorPool",
            "label": "fiduRequested",
            "offset": 0,
            "slot": "1",
            "type": "t_uint256"
          },
          {
            "astId": 10694,
            "contract": "contracts/protocol/core/SeniorPool.sol:SeniorPool",
            "label": "fiduLiquidated",
            "offset": 0,
            "slot": "2",
            "type": "t_uint256"
          },
          {
            "astId": 10696,
            "contract": "contracts/protocol/core/SeniorPool.sol:SeniorPool",
            "label": "usdcAllocated",
            "offset": 0,
            "slot": "3",
            "type": "t_uint256"
          }
        ],
        "numberOfBytes": "128"
      },
      "t_struct(RoleData)159_storage": {
        "encoding": "inplace",
        "label": "struct AccessControlUpgradeSafe.RoleData",
        "members": [
          {
            "astId": 156,
            "contract": "contracts/protocol/core/SeniorPool.sol:SeniorPool",
            "label": "members",
            "offset": 0,
            "slot": "0",
            "type": "t_struct(AddressSet)2792_storage"
          },
          {
            "astId": 158,
            "contract": "contracts/protocol/core/SeniorPool.sol:SeniorPool",
            "label": "adminRole",
            "offset": 0,
            "slot": "2",
            "type": "t_bytes32"
          }
        ],
        "numberOfBytes": "96"
      },
      "t_struct(Set)2612_storage": {
        "encoding": "inplace",
        "label": "struct EnumerableSet.Set",
        "members": [
          {
            "astId": 2607,
            "contract": "contracts/protocol/core/SeniorPool.sol:SeniorPool",
            "label": "_values",
            "offset": 0,
            "slot": "0",
            "type": "t_array(t_bytes32)dyn_storage"
          },
          {
            "astId": 2611,
            "contract": "contracts/protocol/core/SeniorPool.sol:SeniorPool",
            "label": "_indexes",
            "offset": 0,
            "slot": "1",
            "type": "t_mapping(t_bytes32,t_uint256)"
          }
        ],
        "numberOfBytes": "64"
      },
      "t_struct(WithdrawalRequest)10704_storage": {
        "encoding": "inplace",
        "label": "struct ISeniorPoolEpochWithdrawals.WithdrawalRequest",
        "members": [
          {
            "astId": 10699,
            "contract": "contracts/protocol/core/SeniorPool.sol:SeniorPool",
            "label": "epochCursor",
            "offset": 0,
            "slot": "0",
            "type": "t_uint256"
          },
          {
            "astId": 10701,
            "contract": "contracts/protocol/core/SeniorPool.sol:SeniorPool",
            "label": "usdcWithdrawable",
            "offset": 0,
            "slot": "1",
            "type": "t_uint256"
          },
          {
            "astId": 10703,
            "contract": "contracts/protocol/core/SeniorPool.sol:SeniorPool",
            "label": "fiduRequested",
            "offset": 0,
            "slot": "2",
            "type": "t_uint256"
          }
        ],
        "numberOfBytes": "96"
      },
      "t_uint256": {
        "encoding": "inplace",
        "label": "uint256",
        "numberOfBytes": "32"
      }
    }
  }
}