{
  "address": "0xD1a2dE34187008f908a291992eE4F35DD3CaA00E",
  "abi": [
    {
      "anonymous": false,
      "inputs": [
        {
          "indexed": true,
          "internalType": "address",
          "name": "user",
          "type": "address"
        },
        {
          "indexed": true,
          "internalType": "uint256",
          "name": "tokenId",
          "type": "uint256"
        },
        {
          "indexed": false,
          "internalType": "uint256",
          "name": "amount",
          "type": "uint256"
        },
        {
          "indexed": false,
          "internalType": "enum StakedPositionType",
          "name": "positionType",
          "type": "uint8"
        }
      ],
      "name": "AddToStake",
      "type": "event"
    },
    {
      "anonymous": false,
      "inputs": [
        {
          "indexed": true,
          "internalType": "address",
          "name": "owner",
          "type": "address"
        },
        {
          "indexed": true,
          "internalType": "address",
          "name": "approved",
          "type": "address"
        },
        {
          "indexed": true,
          "internalType": "uint256",
          "name": "tokenId",
          "type": "uint256"
        }
      ],
      "name": "Approval",
      "type": "event"
    },
    {
      "anonymous": false,
      "inputs": [
        {
          "indexed": true,
          "internalType": "address",
          "name": "owner",
          "type": "address"
        },
        {
          "indexed": true,
          "internalType": "address",
          "name": "operator",
          "type": "address"
        },
        {
          "indexed": false,
          "internalType": "bool",
          "name": "approved",
          "type": "bool"
        }
      ],
      "name": "ApprovalForAll",
      "type": "event"
    },
    {
      "anonymous": false,
      "inputs": [
        {
          "indexed": true,
          "internalType": "address",
          "name": "user",
          "type": "address"
        },
        {
          "indexed": false,
          "internalType": "uint256",
          "name": "depositedAmount",
          "type": "uint256"
        },
        {
          "indexed": true,
          "internalType": "uint256",
          "name": "tokenId",
          "type": "uint256"
        },
        {
          "indexed": false,
          "internalType": "uint256",
          "name": "amount",
          "type": "uint256"
        }
      ],
      "name": "DepositedAndStaked",
      "type": "event"
    },
    {
      "anonymous": false,
      "inputs": [
        {
          "indexed": true,
          "internalType": "address",
          "name": "user",
          "type": "address"
        },
        {
          "indexed": false,
          "internalType": "uint256",
          "name": "fiduAmount",
          "type": "uint256"
        },
        {
          "indexed": false,
          "internalType": "uint256",
          "name": "usdcAmount",
          "type": "uint256"
        },
        {
          "indexed": false,
          "internalType": "uint256",
          "name": "tokensReceived",
          "type": "uint256"
        }
      ],
      "name": "DepositedToCurve",
      "type": "event"
    },
    {
      "anonymous": false,
      "inputs": [
        {
          "indexed": true,
          "internalType": "address",
          "name": "user",
          "type": "address"
        },
        {
          "indexed": false,
          "internalType": "uint256",
          "name": "fiduAmount",
          "type": "uint256"
        },
        {
          "indexed": false,
          "internalType": "uint256",
          "name": "usdcAmount",
          "type": "uint256"
        },
        {
          "indexed": true,
          "internalType": "uint256",
          "name": "tokenId",
          "type": "uint256"
        },
        {
          "indexed": false,
          "internalType": "uint256",
          "name": "amount",
          "type": "uint256"
        }
      ],
      "name": "DepositedToCurveAndStaked",
      "type": "event"
    },
    {
      "anonymous": false,
      "inputs": [
        {
          "indexed": true,
          "internalType": "address",
          "name": "who",
          "type": "address"
        },
        {
          "indexed": false,
          "internalType": "enum StakedPositionType",
          "name": "positionType",
          "type": "uint8"
        },
        {
          "indexed": false,
          "internalType": "uint256",
          "name": "multiplier",
          "type": "uint256"
        }
      ],
      "name": "EffectiveMultiplierUpdated",
      "type": "event"
    },
    {
      "anonymous": false,
      "inputs": [
        {
          "indexed": false,
          "internalType": "address",
          "name": "account",
          "type": "address"
        }
      ],
      "name": "Paused",
      "type": "event"
    },
    {
      "anonymous": false,
      "inputs": [
        {
          "indexed": false,
          "internalType": "uint256",
          "name": "reward",
          "type": "uint256"
        }
      ],
      "name": "RewardAdded",
      "type": "event"
    },
    {
      "anonymous": false,
      "inputs": [
        {
          "indexed": true,
          "internalType": "address",
          "name": "user",
          "type": "address"
        },
        {
          "indexed": true,
          "internalType": "uint256",
          "name": "tokenId",
          "type": "uint256"
        },
        {
          "indexed": false,
          "internalType": "uint256",
          "name": "reward",
          "type": "uint256"
        }
      ],
      "name": "RewardPaid",
      "type": "event"
    },
    {
      "anonymous": false,
      "inputs": [
        {
          "indexed": false,
          "internalType": "uint256",
          "name": "reward",
          "type": "uint256"
        }
      ],
      "name": "RewardRemoved",
      "type": "event"
    },
    {
      "anonymous": false,
      "inputs": [
        {
          "indexed": true,
          "internalType": "address",
          "name": "who",
          "type": "address"
        },
        {
          "indexed": false,
          "internalType": "uint256",
          "name": "targetCapacity",
          "type": "uint256"
        },
        {
          "indexed": false,
          "internalType": "uint256",
          "name": "minRate",
          "type": "uint256"
        },
        {
          "indexed": false,
          "internalType": "uint256",
          "name": "maxRate",
          "type": "uint256"
        },
        {
          "indexed": false,
          "internalType": "uint256",
          "name": "minRateAtPercent",
          "type": "uint256"
        },
        {
          "indexed": false,
          "internalType": "uint256",
          "name": "maxRateAtPercent",
          "type": "uint256"
        }
      ],
      "name": "RewardsParametersUpdated",
      "type": "event"
    },
    {
      "anonymous": false,
      "inputs": [
        {
          "indexed": true,
          "internalType": "bytes32",
          "name": "role",
          "type": "bytes32"
        },
        {
          "indexed": true,
          "internalType": "address",
          "name": "account",
          "type": "address"
        },
        {
          "indexed": true,
          "internalType": "address",
          "name": "sender",
          "type": "address"
        }
      ],
      "name": "RoleGranted",
      "type": "event"
    },
    {
      "anonymous": false,
      "inputs": [
        {
          "indexed": true,
          "internalType": "bytes32",
          "name": "role",
          "type": "bytes32"
        },
        {
          "indexed": true,
          "internalType": "address",
          "name": "account",
          "type": "address"
        },
        {
          "indexed": true,
          "internalType": "address",
          "name": "sender",
          "type": "address"
        }
      ],
      "name": "RoleRevoked",
      "type": "event"
    },
    {
      "anonymous": false,
      "inputs": [
        {
          "indexed": true,
          "internalType": "address",
          "name": "user",
          "type": "address"
        },
        {
          "indexed": true,
          "internalType": "uint256",
          "name": "tokenId",
          "type": "uint256"
        },
        {
          "indexed": false,
          "internalType": "uint256",
          "name": "amount",
          "type": "uint256"
        },
        {
          "indexed": false,
          "internalType": "enum StakedPositionType",
          "name": "positionType",
          "type": "uint8"
        },
        {
          "indexed": false,
          "internalType": "uint256",
          "name": "baseTokenExchangeRate",
          "type": "uint256"
        }
      ],
      "name": "Staked",
      "type": "event"
    },
    {
      "anonymous": false,
      "inputs": [
        {
          "indexed": true,
          "internalType": "address",
          "name": "from",
          "type": "address"
        },
        {
          "indexed": true,
          "internalType": "address",
          "name": "to",
          "type": "address"
        },
        {
          "indexed": true,
          "internalType": "uint256",
          "name": "tokenId",
          "type": "uint256"
        }
      ],
      "name": "Transfer",
      "type": "event"
    },
    {
      "anonymous": false,
      "inputs": [
        {
          "indexed": false,
          "internalType": "address",
          "name": "account",
          "type": "address"
        }
      ],
      "name": "Unpaused",
      "type": "event"
    },
    {
      "anonymous": false,
      "inputs": [
        {
          "indexed": true,
          "internalType": "address",
          "name": "user",
          "type": "address"
        },
        {
          "indexed": true,
          "internalType": "uint256",
          "name": "tokenId",
          "type": "uint256"
        },
        {
          "indexed": false,
          "internalType": "uint256",
          "name": "amount",
          "type": "uint256"
        },
        {
          "indexed": false,
          "internalType": "enum StakedPositionType",
          "name": "positionType",
          "type": "uint8"
        }
      ],
      "name": "Unstaked",
      "type": "event"
    },
    {
      "anonymous": false,
      "inputs": [
        {
          "indexed": true,
          "internalType": "address",
          "name": "user",
          "type": "address"
        },
        {
          "indexed": false,
          "internalType": "uint256[]",
          "name": "tokenIds",
          "type": "uint256[]"
        },
        {
          "indexed": false,
          "internalType": "uint256[]",
          "name": "amounts",
          "type": "uint256[]"
        }
      ],
      "name": "UnstakedMultiple",
      "type": "event"
    },
    {
      "inputs": [],
      "name": "DEFAULT_ADMIN_ROLE",
      "outputs": [
        {
          "internalType": "bytes32",
          "name": "",
          "type": "bytes32"
        }
      ],
      "stateMutability": "view",
      "type": "function"
    },
    {
      "inputs": [],
      "name": "MINTER_ROLE",
      "outputs": [
        {
          "internalType": "bytes32",
          "name": "",
          "type": "bytes32"
        }
      ],
      "stateMutability": "view",
      "type": "function"
    },
    {
      "inputs": [],
      "name": "OWNER_ROLE",
      "outputs": [
        {
          "internalType": "bytes32",
          "name": "",
          "type": "bytes32"
        }
      ],
      "stateMutability": "view",
      "type": "function"
    },
    {
      "inputs": [],
      "name": "PAUSER_ROLE",
      "outputs": [
        {
          "internalType": "bytes32",
          "name": "",
          "type": "bytes32"
        }
      ],
      "stateMutability": "view",
      "type": "function"
    },
    {
      "inputs": [
        {
          "internalType": "address",
          "name": "owner",
          "type": "address"
        },
        {
          "internalType": "contract GoldfinchConfig",
          "name": "_config",
          "type": "address"
        }
      ],
      "name": "__initialize__",
      "outputs": [],
      "stateMutability": "nonpayable",
      "type": "function"
    },
    {
      "inputs": [],
      "name": "_tokenIdTracker",
      "outputs": [
        {
          "internalType": "uint256",
          "name": "_value",
          "type": "uint256"
        }
      ],
      "stateMutability": "view",
      "type": "function"
    },
    {
      "inputs": [],
      "name": "accumulatedRewardsPerToken",
      "outputs": [
        {
          "internalType": "uint256",
          "name": "",
          "type": "uint256"
        }
      ],
      "stateMutability": "view",
      "type": "function"
    },
    {
      "inputs": [
        {
          "internalType": "uint256",
          "name": "tokenId",
          "type": "uint256"
        },
        {
          "internalType": "uint256",
          "name": "amount",
          "type": "uint256"
        }
      ],
      "name": "addToStake",
      "outputs": [],
      "stateMutability": "nonpayable",
      "type": "function"
    },
    {
      "inputs": [
        {
          "internalType": "address",
          "name": "to",
          "type": "address"
        },
        {
          "internalType": "uint256",
          "name": "tokenId",
          "type": "uint256"
        }
      ],
      "name": "approve",
      "outputs": [],
      "stateMutability": "nonpayable",
      "type": "function"
    },
    {
      "inputs": [
        {
          "internalType": "address",
          "name": "owner",
          "type": "address"
        }
      ],
      "name": "balanceOf",
      "outputs": [
        {
          "internalType": "uint256",
          "name": "",
          "type": "uint256"
        }
      ],
      "stateMutability": "view",
      "type": "function"
    },
    {
      "inputs": [],
      "name": "baseURI",
      "outputs": [
        {
          "internalType": "string",
          "name": "",
          "type": "string"
        }
      ],
      "stateMutability": "view",
      "type": "function"
    },
    {
      "inputs": [
        {
          "internalType": "uint256",
          "name": "tokenId",
          "type": "uint256"
        }
      ],
      "name": "claimableRewards",
      "outputs": [
        {
          "internalType": "uint256",
          "name": "rewards",
          "type": "uint256"
        }
      ],
      "stateMutability": "view",
      "type": "function"
    },
    {
      "inputs": [],
      "name": "config",
      "outputs": [
        {
          "internalType": "contract GoldfinchConfig",
          "name": "",
          "type": "address"
        }
      ],
      "stateMutability": "view",
      "type": "function"
    },
    {
      "inputs": [],
      "name": "currentEarnRatePerToken",
      "outputs": [
        {
          "internalType": "uint256",
          "name": "",
          "type": "uint256"
        }
      ],
      "stateMutability": "view",
      "type": "function"
    },
    {
      "inputs": [
        {
          "internalType": "uint256",
          "name": "usdcAmount",
          "type": "uint256"
        }
      ],
      "name": "depositAndStake",
      "outputs": [
        {
          "internalType": "uint256",
          "name": "",
          "type": "uint256"
        }
      ],
      "stateMutability": "nonpayable",
      "type": "function"
    },
    {
      "inputs": [
        {
          "internalType": "uint256",
          "name": "fiduAmount",
          "type": "uint256"
        },
        {
          "internalType": "uint256",
          "name": "usdcAmount",
          "type": "uint256"
        }
      ],
      "name": "depositToCurve",
      "outputs": [],
      "stateMutability": "nonpayable",
      "type": "function"
    },
    {
      "inputs": [
        {
          "internalType": "uint256",
          "name": "fiduAmount",
          "type": "uint256"
        },
        {
          "internalType": "uint256",
          "name": "usdcAmount",
          "type": "uint256"
        }
      ],
      "name": "depositToCurveAndStake",
      "outputs": [],
      "stateMutability": "nonpayable",
      "type": "function"
    },
    {
      "inputs": [
        {
          "internalType": "address",
          "name": "nftRecipient",
          "type": "address"
        },
        {
          "internalType": "uint256",
          "name": "fiduAmount",
          "type": "uint256"
        },
        {
          "internalType": "uint256",
          "name": "usdcAmount",
          "type": "uint256"
        }
      ],
      "name": "depositToCurveAndStakeFrom",
      "outputs": [],
      "stateMutability": "nonpayable",
      "type": "function"
    },
    {
      "inputs": [
        {
          "internalType": "uint256",
          "name": "usdcAmount",
          "type": "uint256"
        },
        {
          "internalType": "uint256",
          "name": "deadline",
          "type": "uint256"
        },
        {
          "internalType": "uint8",
          "name": "v",
          "type": "uint8"
        },
        {
          "internalType": "bytes32",
          "name": "r",
          "type": "bytes32"
        },
        {
          "internalType": "bytes32",
          "name": "s",
          "type": "bytes32"
        }
      ],
      "name": "depositWithPermitAndStake",
      "outputs": [
        {
          "internalType": "uint256",
          "name": "",
          "type": "uint256"
        }
      ],
      "stateMutability": "nonpayable",
      "type": "function"
    },
    {
      "inputs": [
        {
          "internalType": "uint256",
          "name": "tokenId",
          "type": "uint256"
        }
      ],
      "name": "earnedSinceLastCheckpoint",
      "outputs": [
        {
          "internalType": "uint256",
          "name": "",
          "type": "uint256"
        }
      ],
      "stateMutability": "view",
      "type": "function"
    },
    {
      "inputs": [
        {
          "internalType": "uint256",
          "name": "tokenId",
          "type": "uint256"
        }
      ],
      "name": "getApproved",
      "outputs": [
        {
          "internalType": "address",
          "name": "",
          "type": "address"
        }
      ],
      "stateMutability": "view",
      "type": "function"
    },
    {
      "inputs": [
        {
          "internalType": "enum StakedPositionType",
          "name": "positionType",
          "type": "uint8"
        }
      ],
      "name": "getBaseTokenExchangeRate",
      "outputs": [
        {
          "internalType": "uint256",
          "name": "",
          "type": "uint256"
        }
      ],
      "stateMutability": "view",
      "type": "function"
    },
    {
      "inputs": [
        {
          "internalType": "enum StakedPositionType",
          "name": "positionType",
          "type": "uint8"
        }
      ],
      "name": "getEffectiveMultiplierForPositionType",
      "outputs": [
        {
          "internalType": "uint256",
          "name": "",
          "type": "uint256"
        }
      ],
      "stateMutability": "view",
      "type": "function"
    },
    {
      "inputs": [
        {
          "internalType": "uint256",
          "name": "tokenId",
          "type": "uint256"
        }
      ],
      "name": "getPosition",
      "outputs": [
        {
          "components": [
            {
              "internalType": "uint256",
              "name": "amount",
              "type": "uint256"
            },
            {
              "components": [
                {
                  "internalType": "uint256",
                  "name": "totalUnvested",
                  "type": "uint256"
                },
                {
                  "internalType": "uint256",
                  "name": "totalVested",
                  "type": "uint256"
                },
                {
                  "internalType": "uint256",
                  "name": "totalPreviouslyVested",
                  "type": "uint256"
                },
                {
                  "internalType": "uint256",
                  "name": "totalClaimed",
                  "type": "uint256"
                },
                {
                  "internalType": "uint256",
                  "name": "startTime",
                  "type": "uint256"
                },
                {
                  "internalType": "uint256",
                  "name": "endTime",
                  "type": "uint256"
                }
              ],
              "internalType": "struct Rewards",
              "name": "rewards",
              "type": "tuple"
            },
            {
              "internalType": "uint256",
              "name": "leverageMultiplier",
              "type": "uint256"
            },
            {
              "internalType": "uint256",
              "name": "lockedUntil",
              "type": "uint256"
            },
            {
              "internalType": "enum StakedPositionType",
              "name": "positionType",
              "type": "uint8"
            },
            {
              "internalType": "uint256",
              "name": "unsafeEffectiveMultiplier",
              "type": "uint256"
            },
            {
              "internalType": "uint256",
              "name": "unsafeBaseTokenExchangeRate",
              "type": "uint256"
            }
          ],
          "internalType": "struct StakedPosition",
          "name": "position",
          "type": "tuple"
        }
      ],
      "stateMutability": "view",
      "type": "function"
    },
    {
      "inputs": [
        {
          "internalType": "uint256",
          "name": "tokenId",
          "type": "uint256"
        }
      ],
      "name": "getReward",
      "outputs": [
        {
          "internalType": "uint256",
          "name": "",
          "type": "uint256"
        }
      ],
      "stateMutability": "nonpayable",
      "type": "function"
    },
    {
      "inputs": [
        {
          "internalType": "bytes32",
          "name": "role",
          "type": "bytes32"
        }
      ],
      "name": "getRoleAdmin",
      "outputs": [
        {
          "internalType": "bytes32",
          "name": "",
          "type": "bytes32"
        }
      ],
      "stateMutability": "view",
      "type": "function"
    },
    {
      "inputs": [
        {
          "internalType": "bytes32",
          "name": "role",
          "type": "bytes32"
        },
        {
          "internalType": "uint256",
          "name": "index",
          "type": "uint256"
        }
      ],
      "name": "getRoleMember",
      "outputs": [
        {
          "internalType": "address",
          "name": "",
          "type": "address"
        }
      ],
      "stateMutability": "view",
      "type": "function"
    },
    {
      "inputs": [
        {
          "internalType": "bytes32",
          "name": "role",
          "type": "bytes32"
        }
      ],
      "name": "getRoleMemberCount",
      "outputs": [
        {
          "internalType": "uint256",
          "name": "",
          "type": "uint256"
        }
      ],
      "stateMutability": "view",
      "type": "function"
    },
    {
      "inputs": [
        {
          "internalType": "bytes32",
          "name": "role",
          "type": "bytes32"
        },
        {
          "internalType": "address",
          "name": "account",
          "type": "address"
        }
      ],
      "name": "grantRole",
      "outputs": [],
      "stateMutability": "nonpayable",
      "type": "function"
    },
    {
      "inputs": [
        {
          "internalType": "bytes32",
          "name": "role",
          "type": "bytes32"
        },
        {
          "internalType": "address",
          "name": "account",
          "type": "address"
        }
      ],
      "name": "hasRole",
      "outputs": [
        {
          "internalType": "bool",
          "name": "",
          "type": "bool"
        }
      ],
      "stateMutability": "view",
      "type": "function"
    },
    {
      "inputs": [
        {
          "internalType": "address",
          "name": "owner",
          "type": "address"
        },
        {
          "internalType": "address",
          "name": "operator",
          "type": "address"
        }
      ],
      "name": "isApprovedForAll",
      "outputs": [
        {
          "internalType": "bool",
          "name": "",
          "type": "bool"
        }
      ],
      "stateMutability": "view",
      "type": "function"
    },
    {
      "inputs": [
        {
          "internalType": "uint256",
          "name": "tokenId",
          "type": "uint256"
        }
      ],
      "name": "kick",
      "outputs": [],
      "stateMutability": "nonpayable",
      "type": "function"
    },
    {
      "inputs": [],
      "name": "lastUpdateTime",
      "outputs": [
        {
          "internalType": "uint256",
          "name": "",
          "type": "uint256"
        }
      ],
      "stateMutability": "view",
      "type": "function"
    },
    {
      "inputs": [
        {
          "internalType": "uint256",
          "name": "rewards",
          "type": "uint256"
        }
      ],
      "name": "loadRewards",
      "outputs": [],
      "stateMutability": "nonpayable",
      "type": "function"
    },
    {
      "inputs": [],
      "name": "maxRate",
      "outputs": [
        {
          "internalType": "uint256",
          "name": "",
          "type": "uint256"
        }
      ],
      "stateMutability": "view",
      "type": "function"
    },
    {
      "inputs": [],
      "name": "maxRateAtPercent",
      "outputs": [
        {
          "internalType": "uint256",
          "name": "",
          "type": "uint256"
        }
      ],
      "stateMutability": "view",
      "type": "function"
    },
    {
      "inputs": [],
      "name": "minRate",
      "outputs": [
        {
          "internalType": "uint256",
          "name": "",
          "type": "uint256"
        }
      ],
      "stateMutability": "view",
      "type": "function"
    },
    {
      "inputs": [],
      "name": "minRateAtPercent",
      "outputs": [
        {
          "internalType": "uint256",
          "name": "",
          "type": "uint256"
        }
      ],
      "stateMutability": "view",
      "type": "function"
    },
    {
      "inputs": [],
      "name": "name",
      "outputs": [
        {
          "internalType": "string",
          "name": "",
          "type": "string"
        }
      ],
      "stateMutability": "view",
      "type": "function"
    },
    {
      "inputs": [
        {
          "internalType": "uint256",
          "name": "tokenId",
          "type": "uint256"
        }
      ],
      "name": "optimisticClaimable",
      "outputs": [
        {
          "internalType": "uint256",
          "name": "",
          "type": "uint256"
        }
      ],
      "stateMutability": "view",
      "type": "function"
    },
    {
      "inputs": [
        {
          "internalType": "uint256",
          "name": "tokenId",
          "type": "uint256"
        }
      ],
      "name": "ownerOf",
      "outputs": [
        {
          "internalType": "address",
          "name": "",
          "type": "address"
        }
      ],
      "stateMutability": "view",
      "type": "function"
    },
    {
      "inputs": [],
      "name": "pause",
      "outputs": [],
      "stateMutability": "nonpayable",
      "type": "function"
    },
    {
      "inputs": [],
      "name": "paused",
      "outputs": [
        {
          "internalType": "bool",
          "name": "",
          "type": "bool"
        }
      ],
      "stateMutability": "view",
      "type": "function"
    },
    {
      "inputs": [
        {
          "internalType": "uint256",
          "name": "tokenId",
          "type": "uint256"
        }
      ],
      "name": "positionCurrentEarnRate",
      "outputs": [
        {
          "internalType": "uint256",
          "name": "",
          "type": "uint256"
        }
      ],
      "stateMutability": "view",
      "type": "function"
    },
    {
      "inputs": [
        {
          "internalType": "uint256",
          "name": "",
          "type": "uint256"
        }
      ],
      "name": "positionToAccumulatedRewardsPerToken",
      "outputs": [
        {
          "internalType": "uint256",
          "name": "",
          "type": "uint256"
        }
      ],
      "stateMutability": "view",
      "type": "function"
    },
    {
      "inputs": [
        {
          "internalType": "uint256",
          "name": "",
          "type": "uint256"
        }
      ],
      "name": "positions",
      "outputs": [
        {
          "internalType": "uint256",
          "name": "amount",
          "type": "uint256"
        },
        {
          "components": [
            {
              "internalType": "uint256",
              "name": "totalUnvested",
              "type": "uint256"
            },
            {
              "internalType": "uint256",
              "name": "totalVested",
              "type": "uint256"
            },
            {
              "internalType": "uint256",
              "name": "totalPreviouslyVested",
              "type": "uint256"
            },
            {
              "internalType": "uint256",
              "name": "totalClaimed",
              "type": "uint256"
            },
            {
              "internalType": "uint256",
              "name": "startTime",
              "type": "uint256"
            },
            {
              "internalType": "uint256",
              "name": "endTime",
              "type": "uint256"
            }
          ],
          "internalType": "struct Rewards",
          "name": "rewards",
          "type": "tuple"
        },
        {
          "internalType": "uint256",
          "name": "leverageMultiplier",
          "type": "uint256"
        },
        {
          "internalType": "uint256",
          "name": "lockedUntil",
          "type": "uint256"
        },
        {
          "internalType": "enum StakedPositionType",
          "name": "positionType",
          "type": "uint8"
        },
        {
          "internalType": "uint256",
          "name": "unsafeEffectiveMultiplier",
          "type": "uint256"
        },
        {
          "internalType": "uint256",
          "name": "unsafeBaseTokenExchangeRate",
          "type": "uint256"
        }
      ],
      "stateMutability": "view",
      "type": "function"
    },
    {
      "inputs": [
        {
          "internalType": "uint256",
          "name": "amount",
          "type": "uint256"
        }
      ],
      "name": "removeRewards",
      "outputs": [],
      "stateMutability": "nonpayable",
      "type": "function"
    },
    {
      "inputs": [
        {
          "internalType": "bytes32",
          "name": "role",
          "type": "bytes32"
        },
        {
          "internalType": "address",
          "name": "account",
          "type": "address"
        }
      ],
      "name": "renounceRole",
      "outputs": [],
      "stateMutability": "nonpayable",
      "type": "function"
    },
    {
      "inputs": [
        {
          "internalType": "bytes32",
          "name": "role",
          "type": "bytes32"
        },
        {
          "internalType": "address",
          "name": "account",
          "type": "address"
        }
      ],
      "name": "revokeRole",
      "outputs": [],
      "stateMutability": "nonpayable",
      "type": "function"
    },
    {
      "inputs": [],
      "name": "rewardPerToken",
      "outputs": [
        {
          "internalType": "uint256",
          "name": "",
          "type": "uint256"
        }
      ],
      "stateMutability": "view",
      "type": "function"
    },
    {
      "inputs": [],
      "name": "rewardsAvailable",
      "outputs": [
        {
          "internalType": "uint256",
          "name": "",
          "type": "uint256"
        }
      ],
      "stateMutability": "view",
      "type": "function"
    },
    {
      "inputs": [
        {
          "internalType": "address",
          "name": "from",
          "type": "address"
        },
        {
          "internalType": "address",
          "name": "to",
          "type": "address"
        },
        {
          "internalType": "uint256",
          "name": "tokenId",
          "type": "uint256"
        }
      ],
      "name": "safeTransferFrom",
      "outputs": [],
      "stateMutability": "nonpayable",
      "type": "function"
    },
    {
      "inputs": [
        {
          "internalType": "address",
          "name": "from",
          "type": "address"
        },
        {
          "internalType": "address",
          "name": "to",
          "type": "address"
        },
        {
          "internalType": "uint256",
          "name": "tokenId",
          "type": "uint256"
        },
        {
          "internalType": "bytes",
          "name": "_data",
          "type": "bytes"
        }
      ],
      "name": "safeTransferFrom",
      "outputs": [],
      "stateMutability": "nonpayable",
      "type": "function"
    },
    {
      "inputs": [
        {
          "internalType": "address",
          "name": "operator",
          "type": "address"
        },
        {
          "internalType": "bool",
          "name": "approved",
          "type": "bool"
        }
      ],
      "name": "setApprovalForAll",
      "outputs": [],
      "stateMutability": "nonpayable",
      "type": "function"
    },
    {
      "inputs": [
        {
          "internalType": "string",
          "name": "baseURI_",
          "type": "string"
        }
      ],
      "name": "setBaseURI",
      "outputs": [],
      "stateMutability": "nonpayable",
      "type": "function"
    },
    {
      "inputs": [
        {
          "internalType": "uint256",
          "name": "multiplier",
          "type": "uint256"
        },
        {
          "internalType": "enum StakedPositionType",
          "name": "positionType",
          "type": "uint8"
        }
      ],
      "name": "setEffectiveMultiplier",
      "outputs": [],
      "stateMutability": "nonpayable",
      "type": "function"
    },
    {
      "inputs": [
        {
          "internalType": "uint256",
          "name": "_targetCapacity",
          "type": "uint256"
        },
        {
          "internalType": "uint256",
          "name": "_minRate",
          "type": "uint256"
        },
        {
          "internalType": "uint256",
          "name": "_maxRate",
          "type": "uint256"
        },
        {
          "internalType": "uint256",
          "name": "_minRateAtPercent",
          "type": "uint256"
        },
        {
          "internalType": "uint256",
          "name": "_maxRateAtPercent",
          "type": "uint256"
        }
      ],
      "name": "setRewardsParameters",
      "outputs": [],
      "stateMutability": "nonpayable",
      "type": "function"
    },
    {
      "inputs": [
        {
          "internalType": "uint256",
          "name": "amount",
          "type": "uint256"
        },
        {
          "internalType": "enum StakedPositionType",
          "name": "positionType",
          "type": "uint8"
        }
      ],
      "name": "stake",
      "outputs": [
        {
          "internalType": "uint256",
          "name": "",
          "type": "uint256"
        }
      ],
      "stateMutability": "nonpayable",
      "type": "function"
    },
    {
      "inputs": [
        {
          "internalType": "uint256",
          "name": "tokenId",
          "type": "uint256"
        }
      ],
      "name": "stakedBalanceOf",
      "outputs": [
        {
          "internalType": "uint256",
          "name": "",
          "type": "uint256"
        }
      ],
      "stateMutability": "view",
      "type": "function"
    },
    {
      "inputs": [
        {
          "internalType": "bytes4",
          "name": "interfaceId",
          "type": "bytes4"
        }
      ],
      "name": "supportsInterface",
      "outputs": [
        {
          "internalType": "bool",
          "name": "",
          "type": "bool"
        }
      ],
      "stateMutability": "view",
      "type": "function"
    },
    {
      "inputs": [],
      "name": "symbol",
      "outputs": [
        {
          "internalType": "string",
          "name": "",
          "type": "string"
        }
      ],
      "stateMutability": "view",
      "type": "function"
    },
    {
      "inputs": [],
      "name": "targetCapacity",
      "outputs": [
        {
          "internalType": "uint256",
          "name": "",
          "type": "uint256"
        }
      ],
      "stateMutability": "view",
      "type": "function"
    },
    {
      "inputs": [
        {
          "internalType": "uint256",
          "name": "index",
          "type": "uint256"
        }
      ],
      "name": "tokenByIndex",
      "outputs": [
        {
          "internalType": "uint256",
          "name": "",
          "type": "uint256"
        }
      ],
      "stateMutability": "view",
      "type": "function"
    },
    {
      "inputs": [
        {
          "internalType": "address",
          "name": "owner",
          "type": "address"
        },
        {
          "internalType": "uint256",
          "name": "index",
          "type": "uint256"
        }
      ],
      "name": "tokenOfOwnerByIndex",
      "outputs": [
        {
          "internalType": "uint256",
          "name": "",
          "type": "uint256"
        }
      ],
      "stateMutability": "view",
      "type": "function"
    },
    {
      "inputs": [
        {
          "internalType": "uint256",
          "name": "tokenId",
          "type": "uint256"
        }
      ],
      "name": "tokenURI",
      "outputs": [
        {
          "internalType": "string",
          "name": "",
          "type": "string"
        }
      ],
      "stateMutability": "view",
      "type": "function"
    },
    {
      "inputs": [
        {
          "internalType": "address",
          "name": "owner",
          "type": "address"
        }
      ],
      "name": "totalOptimisticClaimable",
      "outputs": [
        {
          "internalType": "uint256",
          "name": "",
          "type": "uint256"
        }
      ],
      "stateMutability": "view",
      "type": "function"
    },
    {
      "inputs": [],
      "name": "totalStakedSupply",
      "outputs": [
        {
          "internalType": "uint256",
          "name": "",
          "type": "uint256"
        }
      ],
      "stateMutability": "view",
      "type": "function"
    },
    {
      "inputs": [],
      "name": "totalSupply",
      "outputs": [
        {
          "internalType": "uint256",
          "name": "",
          "type": "uint256"
        }
      ],
      "stateMutability": "view",
      "type": "function"
    },
    {
      "inputs": [
        {
          "internalType": "uint256",
          "name": "start",
          "type": "uint256"
        },
        {
          "internalType": "uint256",
          "name": "end",
          "type": "uint256"
        },
        {
          "internalType": "uint256",
          "name": "time",
          "type": "uint256"
        },
        {
          "internalType": "uint256",
          "name": "grantedAmount",
          "type": "uint256"
        }
      ],
      "name": "totalVestedAt",
      "outputs": [
        {
          "internalType": "uint256",
          "name": "rewards",
          "type": "uint256"
        }
      ],
      "stateMutability": "pure",
      "type": "function"
    },
    {
      "inputs": [
        {
          "internalType": "address",
          "name": "from",
          "type": "address"
        },
        {
          "internalType": "address",
          "name": "to",
          "type": "address"
        },
        {
          "internalType": "uint256",
          "name": "tokenId",
          "type": "uint256"
        }
      ],
      "name": "transferFrom",
      "outputs": [],
      "stateMutability": "nonpayable",
      "type": "function"
    },
    {
      "inputs": [],
      "name": "unpause",
      "outputs": [],
      "stateMutability": "nonpayable",
      "type": "function"
    },
    {
      "inputs": [
        {
          "internalType": "uint256",
          "name": "tokenId",
          "type": "uint256"
        },
        {
          "internalType": "uint256",
          "name": "amount",
          "type": "uint256"
        }
      ],
      "name": "unstake",
      "outputs": [],
      "stateMutability": "nonpayable",
      "type": "function"
    },
    {
      "inputs": [
        {
          "internalType": "uint256[]",
          "name": "tokenIds",
          "type": "uint256[]"
        },
        {
          "internalType": "uint256[]",
          "name": "amounts",
          "type": "uint256[]"
        }
      ],
      "name": "unstakeMultiple",
      "outputs": [],
      "stateMutability": "nonpayable",
      "type": "function"
    },
    {
      "inputs": [
        {
          "internalType": "uint256",
          "name": "tokenId",
          "type": "uint256"
        }
      ],
      "name": "updatePositionEffectiveMultiplier",
      "outputs": [],
      "stateMutability": "nonpayable",
      "type": "function"
    },
    {
      "inputs": [],
      "name": "vestingLength",
      "outputs": [
        {
          "internalType": "uint256",
          "name": "",
          "type": "uint256"
        }
      ],
      "stateMutability": "view",
      "type": "function"
    }
  ],
  "transactionHash": "0x330086cb34bce6e9ec5bd905545cac0bd4148322d5e352dcc928590475021050",
  "args": [],
  "numDeployments": 3,
  "solcInputHash": "d5da84843fdfbdca016ffb7401e78399",
  "bytecode": "0x608060405234801561001057600080fd5b506158f280620000216000396000f3fe608060405234801561001057600080fd5b50600436106103f95760003560e01c806379502c5511610221578063b3a99b4c1161012b578063ce0cf1a5116100c3578063e7a7250a11610087578063e7a7250a14610885578063e985e9c51461088d578063eb02c301146108a0578063ece1d6e5146108c0578063f62849be146108c8576103f9565b8063ce0cf1a514610847578063d53913931461085a578063d547741f14610862578063e58378bb14610875578063e63ab1e91461087d576103f9565b8063b3a99b4c146107d3578063b6f8fd40146107db578063b88d4fde146107ee578063b88dffe014610801578063bcdc3cfc14610809578063c87b56dd14610811578063c8f33c9114610824578063ca15c8731461082c578063cd3daf9d1461083f576103f9565b806398bcede9116101b9578063a22cb4651161017d578063a22cb4651461077f578063a52ab1f114610792578063a9f4939d146107a5578063aa04295f146107b8578063b217f9d4146107cb576103f9565b806398bcede91461072357806399fbab881461072b5780639e2c8a5b146107515780639f60421f14610764578063a217fddf14610777576103f9565b806379502c55146106995780638456cb59146106a157806387647d4b146106a95780638ea26983146106bc5780639010d07c146106cf578063906ae4c3146106e257806391d14854146106f557806395d89b41146107085780639835fc7e14610710576103f9565b806330987dd81161032257806359fe8539116102ba57806369d00e791161027e57806369d00e79146106455780636c0360eb146106585780636c3f3be61461066057806370a082311461067357806375ff490b14610686576103f9565b806359fe8539146105fc5780635c975abb1461060f5780636352211e1461061757806364fa33f01461062a5780636702abe214610632576103f9565b806330987dd81461057257806336568abe1461058557806338962186146105985780633f4ba83a146105a05780634195fe8a146105a857806342842e0e146105bb5780634a6b629d146105ce5780634f6ccce7146105d657806355f804b3146105e9576103f9565b806318160ddd1161039557806318160ddd146104d25780631c4b774b146104da57806323234a9c146104ed57806323b872dd14610500578063248a9ca314610513578063252e61c31461052657806327a3492e146105395780632f2ff15d1461054c5780632f745c591461055f576103f9565b806301ffc9a7146103fe57806306fdde0314610427578063081812fc1461043c578063095ea7b31461045c5780630cb604431461047157806310087fb1146104865780631068091914610499578063135e8059146104ac57806313ad3574146104bf575b600080fd5b61041161040c36600461489e565b6108db565b60405161041e9190614d05565b60405180910390f35b61042f6108fe565b60405161041e9190614d30565b61044f61044a366004614841565b610995565b60405161041e9190614bb4565b61046f61046a36600461475d565b6109e1565b005b610479610a79565b60405161041e9190614d10565b610479610494366004614976565b610a80565b6104796104a7366004614841565b610b02565b6104796104ba3660046149a2565b610b15565b6104796104cd366004614841565b610b2e565b610479610b51565b6104796104e8366004614841565b610b62565b6104796104fb3660046148d6565b610c95565b61046f61050e366004614616565b610e56565b610479610521366004614841565b610e8e565b610479610534366004614a0d565b610ea3565b61046f61054736600461487d565b610f38565b61046f61055a366004614859565b610ff1565b61047961056d36600461475d565b611039565b61046f61058036600461487d565b611062565b61046f610593366004614859565b61106d565b6104796110af565b61046f6110b6565b61046f6105b6366004614841565b6110f6565b61046f6105c9366004614616565b61117f565b61047961119a565b6104796105e4366004614841565b6111a1565b61046f6105f73660046148f1565b6111b7565b61047961060a366004614841565b61121a565b6104116113ed565b61044f610625366004614841565b6113f6565b61047961141e565b61046f6106403660046149d3565b611425565b61046f610653366004614788565b6114e8565b61042f6115c1565b61047961066e366004614841565b611622565b6104796106813660046145a6565b611653565b6104796106943660046148d6565b61169c565b61044f611702565b61046f611712565b6104796106b7366004614841565b611750565b6104796106ca3660046145a6565b61179b565b61044f6106dd36600461487d565b6117e3565b61046f6106f0366004614976565b6117fb565b610411610703366004614859565b6118c7565b61042f6118df565b61047961071e366004614841565b611940565b61047961195b565b61073e610739366004614841565b611962565b60405161041e9796959493929190615751565b61046f61075f36600461487d565b6119e4565b61046f6107723660046147bc565b611a81565b610479611c70565b61046f61078d36600461471e565b611c75565b61046f6107a0366004614841565b611d43565b61046f6107b336600461487d565b611e70565b6104796107c6366004614841565b611ff0565b610479612003565b61047961200a565b61046f6107e936600461474b565b612011565b61046f6107fc366004614656565b6121b9565b6104796121f8565b610479612240565b61042f61081f366004614841565b612247565b610479612391565b61047961083a366004614841565b612398565b6104796123af565b61046f610855366004614841565b6123c7565b610479612422565b61046f610870366004614859565b612446565b610479612480565b610479612492565b6104796124a4565b61041161089b3660046145de565b6124ab565b6108b36108ae366004614841565b6124d9565b60405161041e91906156b2565b6104796125b5565b61046f6108d6366004614841565b6125bc565b6001600160e01b0319811660009081526097602052604090205460ff165b919050565b60ce8054604080516020601f600260001961010060018816150201909516949094049384018190048102820181019092528281526060939092909183018282801561098a5780601f1061095f5761010080835404028352916020019161098a565b820191906000526020600020905b81548152906001019060200180831161096d57829003601f168201915b505050505090505b90565b60006109a08261263b565b6109c55760405162461bcd60e51b81526004016109bc90615318565b60405180910390fd5b50600090815260cc60205260409020546001600160a01b031690565b60006109ec826113f6565b9050806001600160a01b0316836001600160a01b03161415610a205760405162461bcd60e51b81526004016109bc90615483565b806001600160a01b0316610a32612648565b6001600160a01b03161480610a4e5750610a4e8161089b612648565b610a6a5760405162461bcd60e51b81526004016109bc906151a1565b610a74838361264c565b505050565b6101c95481565b6101915460009060ff16610aa65760405162461bcd60e51b81526004016109bc90615597565b610191805460ff1916905560fb5460ff1615610ad45760405162461bcd60e51b81526004016109bc90615177565b6000610adf816126ba565b610aeb33338686612766565b915050610191805460ff1916600117905592915050565b6101c76020526000908152604090205481565b6000610b2385858585612b18565b90505b949350505050565b6000610b4b610b3c83611940565b610b4584611750565b90612b52565b92915050565b6000610b5d60ca612b77565b905090565b6101915460009060ff16610b885760405162461bcd60e51b81526004016109bc90615597565b610191805460ff1916905560fb5460ff1615610bb65760405162461bcd60e51b81526004016109bc90615177565b81610bc0816126ba565b33610bca846113f6565b6001600160a01b031614610bf05760405162461bcd60e51b81526004016109bc90614ebb565b6000610bfb84611940565b90508015610c7f5760008481526101d160205260409020610c1f9060010182612b82565b610c3c3382610c2c612b9d565b6001600160a01b03169190612bb6565b83336001600160a01b03167fd6f2c8500df5b44f11e9e48b91ff9f1b9d81bc496d55570c2b1b75bf65243f5183604051610c769190614d10565b60405180910390a35b915050610191805460ff19166001179055919050565b60006001826001811115610ca557fe5b1415610e47576101c354600090610cc4906001600160a01b0316612c0c565b9050610e3f816001600160a01b031663fc0c546a6040518163ffffffff1660e01b815260040160206040518083038186803b158015610d0257600080fd5b505afa158015610d16573d6000803e3d6000fd5b505050506040513d601f19601f82011682018060405250810190610d3a91906145c2565b6001600160a01b03166318160ddd6040518163ffffffff1660e01b815260040160206040518083038186803b158015610d7257600080fd5b505afa158015610d86573d6000803e3d6000fd5b505050506040513d601f19601f82011682018060405250810190610daa919061495e565b610e39670de0b6b3a7640000846001600160a01b0316634903b0d160006040518263ffffffff1660e01b8152600401610de39190614d10565b60206040518083038186803b158015610dfb57600080fd5b505afa158015610e0f573d6000803e3d6000fd5b505050506040513d601f19601f82011682018060405250810190610e33919061495e565b90612c17565b90612c51565b9150506108f9565b50670de0b6b3a7640000919050565b610e67610e61612648565b82612c93565b610e835760405162461bcd60e51b81526004016109bc906154e0565b610a74838383612d10565b60009081526065602052604090206002015490565b6101c354600090610ebc906001600160a01b0316612e1e565b6001600160a01b031663d505accf333089898989896040518863ffffffff1660e01b8152600401610ef39796959493929190614bfb565b600060405180830381600087803b158015610f0d57600080fd5b505af1158015610f21573d6000803e3d6000fd5b50505050610f2e8661121a565b9695505050505050565b6101915460ff16610f5b5760405162461bcd60e51b81526004016109bc90615597565b610191805460ff1916905560fb5460ff1615610f895760405162461bcd60e51b81526004016109bc90615177565b6000610f9733338585612e9e565b9050336001600160a01b03167f2468986f19ca698c7a17082adcaf9889ae41bbd887038b6c7b0598015dfae753848484604051610fd6939291906157ab565b60405180910390a25050610191805460ff1916600117905550565b60008281526065602052604090206002015461100f90610703612648565b61102b5760405162461bcd60e51b81526004016109bc90614dec565b611035828261306c565b5050565b6001600160a01b038216600090815260c96020526040812061105b90836130d5565b9392505050565b6110353383836114e8565b611075612648565b6001600160a01b0316816001600160a01b0316146110a55760405162461bcd60e51b81526004016109bc90615663565b61103582826130e1565b6101c55481565b6110d060008051602061589d833981519152610703612648565b6110ec5760405162461bcd60e51b81526004016109bc906155ce565b6110f461314a565b565b6110fe6131b6565b61111a5760405162461bcd60e51b81526004016109bc90614ebb565b6000611125816126ba565b6101c65461113390836131d2565b6101c6556111443383610c2c612b9d565b7f5d3a571a89edce81bd931e9d740ff7f0560940fc502a27f178f002eca691dfd9826040516111739190614d10565b60405180910390a15050565b610a74838383604051806020016040528060008152506121b9565b6101c85481565b6000806111af60ca84613214565b509392505050565b6111bf6131b6565b6111db5760405162461bcd60e51b81526004016109bc90614ebb565b61103582828080601f01602080910402602001604051908101604052809392919081815260200183838082843760009201919091525061323292505050565b6101915460009060ff166112405760405162461bcd60e51b81526004016109bc90615597565b610191805460ff1916905560fb5460ff161561126e5760405162461bcd60e51b81526004016109bc90615177565b6000611279816126ba565b611281613245565b61129d5760405162461bcd60e51b81526004016109bc90614dd0565b6101c3546000906112b6906001600160a01b03166132d9565b90506112cd6001600160a01b0382163330876132e4565b6101c3546000906112e6906001600160a01b0316613305565b90506112fc6001600160a01b0383168287613310565b60405163b6b55f2560e01b81526000906001600160a01b0383169063b6b55f259061132b908990600401614d10565b602060405180830381600087803b15801561134557600080fd5b505af1158015611359573d6000803e3d6000fd5b505050506040513d601f19601f8201168201806040525081019061137d919061495e565b9050600061138e3033846000612766565b905080336001600160a01b03167fce343194de25678e58b53205d289681a131cc2b917e7c36c8dc0d1693fd8f7ef89856040516113cc92919061579d565b60405180910390a3945050505050610191805460ff19166001179055919050565b60fb5460ff1690565b6000610b4b826040518060600160405280602981526020016158746029913960ca91906133b5565b6101cc5481565b61142d6131b6565b6114495760405162461bcd60e51b81526004016109bc90614ebb565b6000611454816126ba565b8484101580156114645750828211155b6114805760405162461bcd60e51b81526004016109bc9061557b565b6101c88690556101c98590556101ca8490556101cc8390556101cb82905560405133907f8fc8630a9026e4d101945e5580ff250722a3dbc1222dac05b63a0e4a97688a65906114d890899089908990899089906157c1565b60405180910390a2505050505050565b6101915460ff1661150b5760405162461bcd60e51b81526004016109bc90615597565b610191805460ff1916905560fb5460ff16156115395760405162461bcd60e51b81526004016109bc90615177565b6000611544816126ba565b600061155233308686612e9e565b905060006115633087846001612766565b905080336001600160a01b03167f70e3723ca1d6f2fd53a53844eb91671bc39574743c075044ac7ff5c2e5f489638787866040516115a3939291906157ab565b60405180910390a35050610191805460ff1916600117905550505050565b60d18054604080516020601f600260001961010060018816150201909516949094049384018190048102820181019092528281526060939092909183018282801561098a5780601f1061095f5761010080835404028352916020019161098a565b6000610b4b61162f6133c2565b60008481526101d160205260409020610e399061164b906133ce565b610e336121f8565b60006001600160a01b03821661167b5760405162461bcd60e51b81526004016109bc906151f9565b6001600160a01b038216600090815260c960205260409020610b4b90612b77565b6000806101d260008460018111156116b057fe5b60018111156116bb57fe5b8152602001908152602001600020541115610e47576101d260008360018111156116e157fe5b60018111156116ec57fe5b81526020019081526020016000205490506108f9565b6101c3546001600160a01b031681565b61172c60008051602061589d833981519152610703612648565b6117485760405162461bcd60e51b81526004016109bc90614f9a565b6110f46133e1565b6000610b4b61175d6133c2565b60008481526101c76020526040902054610e39906117839061177d6123af565b906131d2565b60008681526101d160205260409020610e33906133ce565b600080805b6117a984611653565b8110156117dc5760006117bc8583611039565b90506117d16117ca82610b2e565b8490612b52565b9250506001016117a0565b5092915050565b600082815260656020526040812061105b90836130d5565b6118036131b6565b61181f5760405162461bcd60e51b81526004016109bc90614ebb565b600061182a816126ba565b6000831161184a5760405162461bcd60e51b81526004016109bc90614f45565b826101d2600084600181111561185c57fe5b600181111561186757fe5b8152602081019190915260400160002055611880612648565b6001600160a01b03167f9db0606b275ca1f1e99d2544ed31141049687b5f4080f2c87812881580a1b7ee83856040516118ba929190614d19565b60405180910390a2505050565b600082815260656020526040812061105b908361343a565b60cf8054604080516020601f600260001961010060018816150201909516949094049384018190048102820181019092528281526060939092909183018282801561098a5780601f1061095f5761010080835404028352916020019161098a565b60008181526101d160205260408120610b4b9060010161344f565b61015f5481565b6101d1602090815260009182526040918290208054835160c081018552600183015481526002830154938101939093526003820154938301939093526004810154606083015260058101546080830152600681015460a0830152600781015460088201546009830154600a840154600b909401549293919260ff909116919087565b6101915460ff16611a075760405162461bcd60e51b81526004016109bc90615597565b610191805460ff1916905560fb5460ff1615611a355760405162461bcd60e51b81526004016109bc90615177565b611a3e826126ba565b611a488282613474565b60008281526101d16020526040902060090154611a6f9033908390610c2c9060ff16613554565b5050610191805460ff19166001179055565b6101915460ff16611aa45760405162461bcd60e51b81526004016109bc90615597565b610191805460ff1916905560fb5460ff1615611ad25760405162461bcd60e51b81526004016109bc90615177565b828114611af15760405162461bcd60e51b81526004016109bc90615466565b60008060005b83811015611be857611b1a878783818110611b0e57fe5b905060200201356126ba565b611b48878783818110611b2957fe5b90506020020135868684818110611b3c57fe5b90506020020135613474565b60016101d16000898985818110611b5b57fe5b602090810292909201358352508101919091526040016000206009015460ff166001811115611b8657fe5b1415611bb857611bb1858583818110611b9b57fe5b9050602002013583612b5290919063ffffffff16565b9150611be0565b611bdd858583818110611bc757fe5b9050602002013584612b5290919063ffffffff16565b92505b600101611af7565b508115611bfe57611bfe3383610c2c6000613554565b8015611c1357611c133382610c2c6001613554565b336001600160a01b03167ff00809a6eb66c05c314468512a79b6388957b41bc76bd7241b9cbabb129ae00887878787604051611c529493929190614cd3565b60405180910390a25050610191805460ff1916600117905550505050565b600081565b611c7d612648565b6001600160a01b0316826001600160a01b03161415611cae5760405162461bcd60e51b81526004016109bc9061503b565b8060cd6000611cbb612648565b6001600160a01b03908116825260208083019390935260409182016000908120918716808252919093529120805460ff191692151592909217909155611cff612648565b6001600160a01b03167f17307eab39ab6107e8899845ad3d59bd9653f200f220920489ca2b5937696c3183604051611d379190614d05565b60405180910390a35050565b6101915460ff16611d665760405162461bcd60e51b81526004016109bc90615597565b610191805460ff1916905560fb5460ff1615611d945760405162461bcd60e51b81526004016109bc90615177565b80611d9e816126ba565b33611da8836113f6565b6001600160a01b031614611dce5760405162461bcd60e51b81526004016109bc90614ebb565b60008281526101d1602052604081206009810154909190611df19060ff1661169c565b9050611dfc8261360d565b811015611e1b5760405162461bcd60e51b81526004016109bc90615285565b6000611e26836133ce565b600a840183905590506000611e3a846133ce565b9050611e5681610b45846101ce546131d290919063ffffffff16565b6101ce555050610191805460ff1916600117905550505050565b6101915460ff16611e935760405162461bcd60e51b81526004016109bc90615597565b610191805460ff1916905560fb5460ff1615611ec15760405162461bcd60e51b81526004016109bc90615177565b81611ecb816126ba565b611ed53384612c93565b611ef15760405162461bcd60e51b81526004016109bc90614ebb565b60008381526101d16020526040812090600982015460ff166001811115611f1457fe5b14611f315760405162461bcd60e51b81526004016109bc9061506e565b8054611f3d9084612b52565b8155611f67611f5d84611f4f84613625565b611f588561360d565b61363d565b6101ce5490612b52565b6101ce556009810154611f9790339030908690611f869060ff16613554565b6001600160a01b03169291906132e4565b6009810154604051859133917faa068096279f55d8fc4a30b56ce3e23e4230e75c1aa7d0d29c13c0fdabb0293791611fd491889160ff1690615713565b60405180910390a35050610191805460ff191660011790555050565b60009081526101d1602052604090205490565b6101cd5481565b6101cb5481565b600054610100900460ff168061202a575061202a61365b565b80612038575060005460ff16155b6120545760405162461bcd60e51b81526004016109bc90615380565b600054610100900460ff1615801561207f576000805460ff1961ff0019909116610100171660011790555b612087613661565b61208f6136e4565b6120f06040518060400160405280601e81526020017f476f6c6466696e6368205632204c50205374616b696e6720546f6b656e7300008152506040518060400160405280600a8152602001694746492d56322d4c505360b01b815250613762565b6120f8613661565b612100613661565b61210861383e565b6121106138ca565b6121286000805160206158548339815191528461102b565b61214060008051602061589d8339815191528461102b565b61216660008051602061589d83398151915260008051602061585483398151915261395a565b61217e6000805160206158548339815191528061395a565b6101c380546001600160a01b0319166001600160a01b0384161790556301e133806101cd558015610a74576000805461ff0019169055505050565b6121ca6121c4612648565b83612c93565b6121e65760405162461bcd60e51b81526004016109bc906154e0565b6121f28484848461396f565b50505050565b6000806101c454421461220b5742612210565b426001015b9050600061222a6101c454836131d290919063ffffffff16565b905061223981610e39846139a2565b9250505090565b6101ce5481565b60606122528261263b565b61226e5760405162461bcd60e51b81526004016109bc90615417565b600082815260d0602090815260409182902080548351601f60026000196101006001861615020190931692909204918201849004840281018401909452808452606093928301828280156123035780601f106122d857610100808354040283529160200191612303565b820191906000526020600020905b8154815290600101906020018083116122e657829003601f168201915b505060d1549394505050506002600019610100600184161502019091160461232c5790506108f9565b80511561235e5760d181604051602001612347929190614b33565b6040516020818303038152906040529150506108f9565b60d161236984613a31565b60405160200161237a929190614b33565b604051602081830303815290604052915050919050565b6101c45481565b6000818152606560205260408120610b4b90612b77565b6000610b5d6123bd426139a2565b6101c55490612b52565b6101915460ff166123ea5760405162461bcd60e51b81526004016109bc90615597565b610191805460ff1916905560fb5460ff16156124185760405162461bcd60e51b81526004016109bc90615177565b80611a6f816126ba565b7f9f2df0fed2c77648de5860a4cc508cd0818c85b8b8a1ab4ceeef8d981c8956a681565b60008281526065602052604090206002015461246490610703612648565b6110a55760405162461bcd60e51b81526004016109bc9061510b565b60008051602061585483398151915281565b60008051602061589d83398151915281565b6101c65481565b6001600160a01b03918216600090815260cd6020908152604080832093909416825291909152205460ff1690565b6124e161443e565b6101d160008381526020019081526020016000206040518060e001604052908160008201548152602001600182016040518060c00160405290816000820154815260200160018201548152602001600282015481526020016003820154815260200160048201548152602001600582015481525050815260200160078201548152602001600882015481526020016009820160009054906101000a900460ff16600181111561258c57fe5b600181111561259757fe5b8152600a8201546020820152600b9091015460409091015292915050565b6101ca5481565b6125c46131b6565b6125e05760405162461bcd60e51b81526004016109bc90614ebb565b60006125eb816126ba565b6125f9333084611f86612b9d565b6101c6546126079083612b52565b6101c6556040517fde88a922e0d3b88b24e9623efeb464919c6bf9f66857a65e2bfcf2ce87a9433d90611173908490614d10565b6000610b4b60ca83613b0c565b3390565b600081815260cc6020526040902080546001600160a01b0319166001600160a01b0384169081179091558190612681826113f6565b6001600160a01b03167f8c5be1e5ebec7d5bd14f71427d1e84f3dd0314c0f7b2291e5b200ac8c7c3b92560405160405180910390a45050565b6101c5546126c66123af565b6101c55560006126f36126d76133c2565b6101c554610e39906126e990866131d2565b6101ce5490612c17565b6101c65490915061270490826131d2565b6101c655426101c4558215610a7457600061271e84611750565b60008581526101d1602052604090206001018054919250906127409083612b52565b815561274b81613b18565b50506101c55460008481526101c76020526040902055505050565b60008083116127875760405162461bcd60e51b81526004016109bc90614f45565b61279261015f613b77565b61279d61015f613b80565b90506127a8816126ba565b60006127b383610c95565b905060006127c08461169c565b905060018460018111156127d057fe5b141561296d576101c3546000906127ef906001600160a01b0316612c0c565b905060006128bf620f4240610e39670de0b6b3a7640000610e33866001600160a01b0316634903b0d160006040518263ffffffff1660e01b81526004016128369190614d10565b60206040518083038186803b15801561284e57600080fd5b505afa158015612862573d6000803e3d6000fd5b505050506040513d601f19601f82011682018060405250810190612886919061495e565b610e39670de0b6b3a7640000896001600160a01b0316634903b0d160016040518263ffffffff1660e01b8152600401610de39190614d10565b6101c35490915061291e90606490610e3990604b906128e6906001600160a01b0316613305565b6001600160a01b031663872697296040518163ffffffff1660e01b815260040160206040518083038186803b158015610dfb57600080fd5b8111801561294e57506101c35461294b90606490610e3990607d906128e6906001600160a01b0316613305565b81105b61296a5760405162461bcd60e51b81526004016109bc9061515b565b50505b6040518060e001604052808681526020016040518060c00160405280600081526020016000815260200160008152602001600081526020014281526020016000815250815260200160008152602001600081526020018560018111156129cf57fe5b81526020808201849052604091820185905260008681526101d18252829020835181558382015180516001808401919091559281015160028301558084015160038301556060808201516004840155608080830151600585015560a0909201516006840155938501516007830155928401516008820155918301516009830180549192909160ff1916908381811115612a6457fe5b021790555060a0820151600a82015560c090910151600b90910155612a898684613b84565b60008381526101d160205260409020612aa590611f5d906133ce565b6101ce556001600160a01b0387163014612ac857612ac8873087611f8688613554565b82866001600160a01b03167fcc10169be2ad544347561e230939849af48d1714c052d7fe247d12f3decb4896878786604051612b0693929190615730565b60405180910390a35050949350505050565b6000848411612b28575080610b26565b610b23612b4c612b3886886131d2565b610e39612b45878a6131d2565b8690612c17565b83613c48565b60008282018381101561105b5760405162461bcd60e51b81526004016109bc90614f63565b6000610b4b82613b80565b6003820154612b919082612b52565b82600301819055505050565b6101c354600090610b5d906001600160a01b0316613c5e565b610a748363a9059cbb60e01b8484604051602401612bd5929190614c7a565b60408051601f198184030181529190526020810180516001600160e01b03166001600160e01b031990931692909217909152613c69565b6000610b4b82613d4e565b600082612c2657506000610b4b565b82820282848281612c3357fe5b041461105b5760405162461bcd60e51b81526004016109bc906152d7565b600061105b83836040518060400160405280601a81526020017f536166654d6174683a206469766973696f6e206279207a65726f000000000000815250613d66565b6000612c9e8261263b565b612cba5760405162461bcd60e51b81526004016109bc906150bf565b6000612cc5836113f6565b9050806001600160a01b0316846001600160a01b03161480612d005750836001600160a01b0316612cf584610995565b6001600160a01b0316145b80610b265750610b2681856124ab565b826001600160a01b0316612d23826113f6565b6001600160a01b031614612d495760405162461bcd60e51b81526004016109bc906153ce565b6001600160a01b038216612d6f5760405162461bcd60e51b81526004016109bc90614ff7565b612d7a838383613d9d565b612d8560008261264c565b6001600160a01b038316600090815260c960205260409020612da79082613da8565b506001600160a01b038216600090815260c960205260409020612dca9082613db4565b50612dd760ca8284613dc0565b5080826001600160a01b0316846001600160a01b03167fddf252ad1be2c89b69c2b068fc378daa952ba7f163c4a11628f55a4df523b3ef60405160405180910390a4505050565b60006001600160a01b03821663b93f9b0a60055b6040518263ffffffff1660e01b8152600401612e4e9190614d10565b60206040518083038186803b158015612e6657600080fd5b505afa158015612e7a573d6000803e3d6000fd5b505050506040513d601f19601f82011682018060405250810190610b4b91906145c2565b600080831180612eae5750600082115b612eca5760405162461bcd60e51b81526004016109bc90614f45565b6101c354600090612ee3906001600160a01b03166132d9565b6101c354909150600090612eff906001600160a01b0316613dd6565b6101c354909150600090612f1b906001600160a01b0316612c0c565b90508515612f4c57612f386001600160a01b0383168930896132e4565b612f4c6001600160a01b0383168288613310565b8415612f7b57612f676001600160a01b0384168930886132e4565b612f7b6001600160a01b0384168287613310565b6000612fc7600a610e396009856001600160a01b0316638d8ea72760405180604001604052808e81526020018d8152506040518263ffffffff1660e01b8152600401610de39190614c93565b604080518082018252898152602081018990529051637328333b60e01b81529192506001600160a01b03841691637328333b9161300d9185906000908e90600401614ca1565b602060405180830381600087803b15801561302757600080fd5b505af115801561303b573d6000803e3d6000fd5b505050506040513d601f19601f8201168201806040525081019061305f919061495e565b9998505050505050505050565b60008281526065602052604090206130849082613de1565b1561103557613091612648565b6001600160a01b0316816001600160a01b0316837f2f8788117e7eff1d82e926ec794901d17c78024a50270940304540a733656f0d60405160405180910390a45050565b600061105b8383613df6565b60008281526065602052604090206130f99082613e3b565b1561103557613106612648565b6001600160a01b0316816001600160a01b0316837ff6391f5c32d9c69d2a47ea670b442974b53935d1edc7fd64eb21e047a839171b60405160405180910390a45050565b60fb5460ff1661316c5760405162461bcd60e51b81526004016109bc90614e3b565b60fb805460ff191690557f5db9ee0a495bf2e6ff9c91a7834c1ba4fdd244a5e8aa4e537bd38aeae4b073aa61319f612648565b6040516131ac9190614bb4565b60405180910390a1565b6000610b5d600080516020615854833981519152610703612648565b600061105b83836040518060400160405280601e81526020017f536166654d6174683a207375627472616374696f6e206f766572666c6f770000815250613e50565b60008080806132238686613e7c565b909450925050505b9250929050565b80516110359060d190602084019061448c565b6101c35460009061325e906001600160a01b0316613ed8565b6001600160a01b031663a37b92c9336040518263ffffffff1660e01b81526004016132899190614bb4565b60206040518083038186803b1580156132a157600080fd5b505afa1580156132b5573d6000803e3d6000fd5b505050506040513d601f19601f82011682018060405250810190610b5d9190614825565b6000610b4b82612e1e565b6121f2846323b872dd60e01b858585604051602401612bd593929190614c56565b6000610b4b82613ee3565b600061339482856001600160a01b031663dd62ed3e30876040518363ffffffff1660e01b8152600401613344929190614c3c565b60206040518083038186803b15801561335c57600080fd5b505afa158015613370573d6000803e3d6000fd5b505050506040513d601f19601f82011682018060405250810190610b45919061495e565b90506121f28463095ea7b360e01b8584604051602401612bd5929190614c7a565b6000610b26848484613efb565b670de0b6b3a764000090565b6000610b4b8260000154611f4f84613625565b60fb5460ff16156134045760405162461bcd60e51b81526004016109bc90615177565b60fb805460ff191660011790557f62e78cea01bee320cd4e420270b5ea74000d11b0c9f74754ebdbfc544b05a25861319f612648565b600061105b836001600160a01b038416613f5a565b6000610b4b826003015461177d84600201548560010154612b5290919063ffffffff16565b61347e3383612c93565b61349a5760405162461bcd60e51b81526004016109bc90614ebb565b60008281526101d160205260409020805482158015906134ba5750808311155b6134d65760405162461bcd60e51b81526004016109bc90615364565b6134f96134ef846134e685613625565b611f588661360d565b6101ce54906131d2565b6101ce5561350781846131d2565b82556009820154604051859133917f47efae27a70cca1d3ad8e753ab4b48a413e554d244be5c7928fdfee407c37f5d9161354691889160ff1690615713565b60405180910390a350505050565b6000600182600181111561356457fe5b14156135f7576101c354613580906001600160a01b0316612c0c565b6001600160a01b031663fc0c546a6040518163ffffffff1660e01b815260040160206040518083038186803b1580156135b857600080fd5b505afa1580156135cc573d6000803e3d6000fd5b505050506040513d601f19601f820116820180604052508101906135f091906145c2565b90506108f9565b6101c354610b4b906001600160a01b0316613dd6565b600a81015460009015610e475750600a8101546108f9565b600b81015460009015610e475750600b8101546108f9565b6000610b26670de0b6b3a7640000610e39818186610e338a8a612c17565b303b1590565b600054610100900460ff168061367a575061367a61365b565b80613688575060005460ff16155b6136a45760405162461bcd60e51b81526004016109bc90615380565b600054610100900460ff161580156136cf576000805460ff1961ff0019909116610100171660011790555b80156136e1576000805461ff00191690555b50565b600054610100900460ff16806136fd57506136fd61365b565b8061370b575060005460ff16155b6137275760405162461bcd60e51b81526004016109bc90615380565b600054610100900460ff16158015613752576000805460ff1961ff0019909116610100171660011790555b6136cf6301ffc9a760e01b613f72565b600054610100900460ff168061377b575061377b61365b565b80613789575060005460ff16155b6137a55760405162461bcd60e51b81526004016109bc90615380565b600054610100900460ff161580156137d0576000805460ff1961ff0019909116610100171660011790555b82516137e39060ce90602086019061448c565b5081516137f79060cf90602085019061448c565b506138086380ac58cd60e01b613f72565b613818635b5e139f60e01b613f72565b61382863780e9d6360e01b613f72565b8015610a74576000805461ff0019169055505050565b600054610100900460ff1680613857575061385761365b565b80613865575060005460ff16155b6138815760405162461bcd60e51b81526004016109bc90615380565b600054610100900460ff161580156138ac576000805460ff1961ff0019909116610100171660011790555b60fb805460ff1916905580156136e1576000805461ff001916905550565b600054610100900460ff16806138e357506138e361365b565b806138f1575060005460ff16155b61390d5760405162461bcd60e51b81526004016109bc90615380565b600054610100900460ff16158015613938576000805460ff1961ff0019909116610100171660011790555b610191805460ff1916600117905580156136e1576000805461ff001916905550565b60009182526065602052604090912060020155565b61397a848484612d10565b61398684848484613fc1565b6121f25760405162461bcd60e51b81526004016109bc90614e69565b60006101c4548210156139c75760405162461bcd60e51b81526004016109bc906154c4565b6101ce546139d7575060006108f9565b60006139ff6139f66139e76140fb565b6101c454610e339087906131d2565b6101c654613c48565b90506000613a1c6101ce54610e39613a156133c2565b8590612c17565b90508181111561105b576000925050506108f9565b606081613a5657506040805180820190915260018152600360fc1b60208201526108f9565b8160005b8115613a6e57600101600a82049150613a5a565b60608167ffffffffffffffff81118015613a8757600080fd5b506040519080825280601f01601f191660200182016040528015613ab2576020820181803683370190505b50859350905060001982015b8315613b0357600a840660300160f81b82828060019003935081518110613ae157fe5b60200101906001600160f81b031916908160001a905350600a84049350613abe565b50949350505050565b600061105b8383613f5a565b6000613b368260040154836005015442613b31866141d2565b612b18565b90508160010154811115611035576000613b5d8360010154836131d290919063ffffffff16565b8354909150613b6c90826131d2565b835550600190910155565b80546001019055565b5490565b6001600160a01b038216613baa5760405162461bcd60e51b81526004016109bc906152a2565b613bb38161263b565b15613bd05760405162461bcd60e51b81526004016109bc90614f0e565b613bdc60008383613d9d565b6001600160a01b038216600090815260c960205260409020613bfe9082613db4565b50613c0b60ca8284613dc0565b5060405181906001600160a01b038416906000907fddf252ad1be2c89b69c2b068fc378daa952ba7f163c4a11628f55a4df523b3ef908290a45050565b6000818310613c57578161105b565b5090919050565b6000610b4b826141e6565b613c7b826001600160a01b03166141fe565b613c975760405162461bcd60e51b81526004016109bc9061562c565b60006060836001600160a01b031683604051613cb39190614b17565b6000604051808303816000865af19150503d8060008114613cf0576040519150601f19603f3d011682016040523d82523d6000602084013e613cf5565b606091505b509150915081613d175760405162461bcd60e51b81526004016109bc9061508a565b8051156121f25780806020019051810190613d329190614825565b6121f25760405162461bcd60e51b81526004016109bc90615531565b60006001600160a01b03821663b93f9b0a6016612e32565b60008183613d875760405162461bcd60e51b81526004016109bc9190614d30565b506000838581613d9357fe5b0495945050505050565b610a74838383614237565b600061105b8383614267565b600061105b838361432d565b6000610b2684846001600160a01b038516614377565b6000610b4b8261440e565b600061105b836001600160a01b03841661432d565b81546000908210613e195760405162461bcd60e51b81526004016109bc90614d43565b826000018281548110613e2857fe5b9060005260206000200154905092915050565b600061105b836001600160a01b038416614267565b60008184841115613e745760405162461bcd60e51b81526004016109bc9190614d30565b505050900390565b815460009081908310613ea15760405162461bcd60e51b81526004016109bc90615243565b6000846000018481548110613eb257fe5b906000526020600020906002020190508060000154816001015492509250509250929050565b6000610b4b82614426565b60006001600160a01b03821663b93f9b0a600e612e32565b60008281526001840160205260408120548281613f2b5760405162461bcd60e51b81526004016109bc9190614d30565b50846000016001820381548110613f3e57fe5b9060005260206000209060020201600101549150509392505050565b60009081526001919091016020526040902054151590565b6001600160e01b03198082161415613f9c5760405162461bcd60e51b81526004016109bc90614ed7565b6001600160e01b0319166000908152609760205260409020805460ff19166001179055565b6000613fd5846001600160a01b03166141fe565b613fe157506001610b26565b600060606001600160a01b038616630a85bd0160e11b613fff612648565b8988886040516024016140159493929190614bc8565b60408051601f198184030181529181526020820180516001600160e01b03166001600160e01b03199094169390931790925290516140539190614b17565b6000604051808303816000865af19150503d8060008114614090576040519150601f19603f3d011682016040523d82523d6000602084013e614095565b606091505b5091509150816140c7578051156140af5780518082602001fd5b60405162461bcd60e51b81526004016109bc90614e69565b6000818060200190518101906140dd91906148ba565b6001600160e01b031916630a85bd0160e11b149350610b2692505050565b600080614123670de0b6b3a7640000610e396101cb546101c854612c1790919063ffffffff16565b9050600061414c670de0b6b3a7640000610e396101cc546101c854612c1790919063ffffffff16565b6101ce549091508282116141665760009350505050610992565b8281101561417c576101ca549350505050610992565b81811115614192576101c9549350505050610992565b6141ca6141c06141a284866131d2565b610e396141af85886131d2565b6101c9546101ca54610e33916131d2565b6101ca54906131d2565b935050505090565b60018101548154600091610b4b9190612b52565b60006001600160a01b03821663b93f9b0a6012612e32565b6000813f7fc5d2460186f7233c927e7db2dcc703c0e500b653ca82273b7bfad8045d85a470818114801590610b26575050151592915050565b614242838383610a74565b61424a6113ed565b15610a745760405162461bcd60e51b81526004016109bc90614d85565b60008181526001830160205260408120548015614323578354600019808301919081019060009087908390811061429a57fe5b90600052602060002001549050808760000184815481106142b757fe5b6000918252602080832090910192909255828152600189810190925260409020908401905586548790806142e757fe5b60019003818190600052602060002001600090559055866001016000878152602001908152602001600020600090556001945050505050610b4b565b6000915050610b4b565b60006143398383613f5a565b61436f57508154600181810184556000848152602080822090930184905584548482528286019093526040902091909155610b4b565b506000610b4b565b6000828152600184016020526040812054806143dc57505060408051808201825283815260208082018481528654600181810189556000898152848120955160029093029095019182559151908201558654868452818801909252929091205561105b565b828560000160018303815481106143ef57fe5b906000526020600020906002020160010181905550600091505061105b565b60006001600160a01b03821663b93f9b0a6004612e32565b60006001600160a01b03821663b93f9b0a6013612e32565b6040518060e001604052806000815260200161445861450a565b815260200160008152602001600081526020016000600181111561447857fe5b815260200160008152602001600081525090565b828054600181600116156101000203166002900490600052602060002090601f016020900481019282601f106144cd57805160ff19168380011785556144fa565b828001600101855582156144fa579182015b828111156144fa5782518255916020019190600101906144df565b50614506929150614540565b5090565b6040518060c001604052806000815260200160008152602001600081526020016000815260200160008152602001600081525090565b5b808211156145065760008155600101614541565b60008083601f840112614566578182fd5b50813567ffffffffffffffff81111561457d578182fd5b602083019150836020808302850101111561322b57600080fd5b803560028110610b4b57600080fd5b6000602082840312156145b7578081fd5b813561105b8161581a565b6000602082840312156145d3578081fd5b815161105b8161581a565b600080604083850312156145f0578081fd5b82356145fb8161581a565b9150602083013561460b8161581a565b809150509250929050565b60008060006060848603121561462a578081fd5b83356146358161581a565b925060208401356146458161581a565b929592945050506040919091013590565b6000806000806080858703121561466b578081fd5b84356146768161581a565b93506020858101356146878161581a565b935060408601359250606086013567ffffffffffffffff808211156146aa578384fd5b818801915088601f8301126146bd578384fd5b8135818111156146cb578485fd5b604051601f8201601f19168101850183811182821017156146ea578687fd5b60405281815283820185018b1015614700578586fd5b81858501868301379081019093019390935250939692955090935050565b60008060408385031215614730578182fd5b823561473b8161581a565b9150602083013561460b8161582f565b600080604083850312156145f0578182fd5b6000806040838503121561476f578182fd5b823561477a8161581a565b946020939093013593505050565b60008060006060848603121561479c578283fd5b83356147a78161581a565b95602085013595506040909401359392505050565b600080600080604085870312156147d1578081fd5b843567ffffffffffffffff808211156147e8578283fd5b6147f488838901614555565b9096509450602087013591508082111561480c578283fd5b5061481987828801614555565b95989497509550505050565b600060208284031215614836578081fd5b815161105b8161582f565b600060208284031215614852578081fd5b5035919050565b6000806040838503121561486b578182fd5b82359150602083013561460b8161581a565b6000806040838503121561488f578182fd5b50508035926020909101359150565b6000602082840312156148af578081fd5b813561105b8161583d565b6000602082840312156148cb578081fd5b815161105b8161583d565b6000602082840312156148e7578081fd5b61105b8383614597565b60008060208385031215614903578182fd5b823567ffffffffffffffff8082111561491a578384fd5b818501915085601f83011261492d578384fd5b81358181111561493b578485fd5b86602082850101111561494c578485fd5b60209290920196919550909350505050565b60006020828403121561496f578081fd5b5051919050565b60008060408385031215614988578182fd5b823591506149998460208501614597565b90509250929050565b600080600080608085870312156149b7578182fd5b5050823594602084013594506040840135936060013592509050565b600080600080600060a086880312156149ea578283fd5b505083359560208501359550604085013594606081013594506080013592509050565b600080600080600060a08688031215614a24578283fd5b8535945060208601359350604086013560ff81168114614a42578384fd5b94979396509394606081013594506080013592915050565b8060005b60028110156121f2578151845260209384019390910190600101614a5e565b81835260006001600160fb1b03831115614a95578081fd5b6020830280836020870137939093016020019283525090919050565b60008151808452614ac98160208601602086016157e4565b601f01601f19169290920160200192915050565b805182526020810151602083015260408101516040830152606081015160608301526080810151608083015260a081015160a08301525050565b60008251614b298184602087016157e4565b9190910192915050565b6000808454600180821660008114614b525760018114614b6957614b98565b60ff198316865260028304607f1686019350614b98565b600283048886526020808720875b83811015614b905781548a820152908501908201614b77565b505050860193505b5050508351614bab8183602088016157e4565b01949350505050565b6001600160a01b0391909116815260200190565b6001600160a01b0385811682528416602082015260408101839052608060608201819052600090610f2e90830184614ab1565b6001600160a01b0397881681529590961660208601526040850193909352606084019190915260ff16608083015260a082015260c081019190915260e00190565b6001600160a01b0392831681529116602082015260400190565b6001600160a01b039384168152919092166020820152604081019190915260600190565b6001600160a01b03929092168252602082015260400190565b60408101610b4b8284614a5a565b60a08101614caf8287614a5a565b604082019490945291151560608301526001600160a01b0316608090910152919050565b600060408252614ce7604083018688614a7d565b8281036020840152614cfa818587614a7d565b979650505050505050565b901515815260200190565b90815260200190565b60408101614d2684615810565b9281526020015290565b60006020825261105b6020830184614ab1565b60208082526022908201527f456e756d657261626c655365743a20696e646578206f7574206f6620626f756e604082015261647360f01b606082015260800190565b6020808252602b908201527f4552433732315061757361626c653a20746f6b656e207472616e73666572207760408201526a1a1a5b19481c185d5cd95960aa1b606082015260800190565b60208082526002908201526111d360f21b604082015260600190565b6020808252602f908201527f416363657373436f6e74726f6c3a2073656e646572206d75737420626520616e60408201526e0818591b5a5b881d1bc819dc985b9d608a1b606082015260800190565b60208082526014908201527314185d5cd8589b194e881b9bdd081c185d5cd95960621b604082015260600190565b60208082526032908201527f4552433732313a207472616e7366657220746f206e6f6e20455243373231526560408201527131b2b4bb32b91034b6b83632b6b2b73a32b960711b606082015260800190565b602080825260029082015261105160f21b604082015260600190565b6020808252601c908201527f4552433136353a20696e76616c696420696e7465726661636520696400000000604082015260600190565b6020808252601c908201527f4552433732313a20746f6b656e20616c7265616479206d696e74656400000000604082015260600190565b6020808252600490820152635a45524f60e01b604082015260600190565b6020808252601b908201527f536166654d6174683a206164646974696f6e206f766572666c6f770000000000604082015260600190565b6020808252603e908201527f4552433732315072657365744d696e7465725061757365724175746f49643a2060408201527f6d75737420686176652070617573657220726f6c6520746f2070617573650000606082015260800190565b60208082526024908201527f4552433732313a207472616e7366657220746f20746865207a65726f206164646040820152637265737360e01b606082015260800190565b60208082526019908201527822a9219b99189d1030b8383937bb32903a379031b0b63632b960391b604082015260600190565b602080825260029082015261141560f21b604082015260600190565b6020808252818101527f5361666545524332303a206c6f772d6c6576656c2063616c6c206661696c6564604082015260600190565b6020808252602c908201527f4552433732313a206f70657261746f7220717565727920666f72206e6f6e657860408201526b34b9ba32b73a103a37b5b2b760a11b606082015260800190565b60208082526030908201527f416363657373436f6e74726f6c3a2073656e646572206d75737420626520616e60408201526f2061646d696e20746f207265766f6b6560801b606082015260800190565b602080825260029082015261494d60f01b604082015260600190565b60208082526010908201526f14185d5cd8589b194e881c185d5cd95960821b604082015260600190565b60208082526038908201527f4552433732313a20617070726f76652063616c6c6572206973206e6f74206f776040820152771b995c881b9bdc88185c1c1c9bdd995908199bdc88185b1b60421b606082015260800190565b6020808252602a908201527f4552433732313a2062616c616e636520717565727920666f7220746865207a65604082015269726f206164647265737360b01b606082015260800190565b60208082526022908201527f456e756d657261626c654d61703a20696e646578206f7574206f6620626f756e604082015261647360f01b606082015260800190565b6020808252600390820152624c4f5760e81b604082015260600190565b6020808252818101527f4552433732313a206d696e7420746f20746865207a65726f2061646472657373604082015260600190565b60208082526021908201527f536166654d6174683a206d756c7469706c69636174696f6e206f766572666c6f6040820152607760f81b606082015260800190565b6020808252602c908201527f4552433732313a20617070726f76656420717565727920666f72206e6f6e657860408201526b34b9ba32b73a103a37b5b2b760a11b606082015260800190565b602080825260029082015261494160f01b604082015260600190565b6020808252602e908201527f436f6e747261637420696e7374616e63652068617320616c726561647920626560408201526d195b881a5b9a5d1a585b1a5e995960921b606082015260800190565b60208082526029908201527f4552433732313a207472616e73666572206f6620746f6b656e2074686174206960408201526839903737ba1037bbb760b91b606082015260800190565b6020808252602f908201527f4552433732314d657461646174613a2055524920717565727920666f72206e6f60408201526e3732bc34b9ba32b73a103a37b5b2b760891b606082015260800190565b6020808252600390820152622622a760e91b604082015260600190565b60208082526021908201527f4552433732313a20617070726f76616c20746f2063757272656e74206f776e656040820152603960f91b606082015260800190565b602080825260029082015261125560f21b604082015260600190565b60208082526031908201527f4552433732313a207472616e736665722063616c6c6572206973206e6f74206f6040820152701ddb995c881b9bdc88185c1c1c9bdd9959607a1b606082015260800190565b6020808252602a908201527f5361666545524332303a204552433230206f7065726174696f6e20646964206e6040820152691bdd081cdd58d8d9595960b21b606082015260800190565b602080825260029082015261049560f41b604082015260600190565b6020808252601f908201527f5265656e7472616e637947756172643a207265656e7472616e742063616c6c00604082015260600190565b602080825260409082018190527f4552433732315072657365744d696e7465725061757365724175746f49643a20908201527f6d75737420686176652070617573657220726f6c6520746f20756e7061757365606082015260800190565b6020808252601f908201527f5361666545524332303a2063616c6c20746f206e6f6e2d636f6e747261637400604082015260600190565b6020808252602f908201527f416363657373436f6e74726f6c3a2063616e206f6e6c792072656e6f756e636560408201526e103937b632b9903337b91039b2b63360891b606082015260800190565b815181526020808301516101808301916156ce90840182614add565b50604083015160e0830152606083015161010083015260808301516156f281615810565b61012083015260a083015161014083015260c0909201516101609091015290565b8281526040810161572383615810565b8260208301529392505050565b8381526060810161574084615810565b602082019390935260400152919050565b87815261018081016157666020830189614add565b8660e08301528561010083015261577c85615810565b84610120830152836101408301528261016083015298975050505050505050565b918252602082015260400190565b9283526020830191909152604082015260600190565b948552602085019390935260408401919091526060830152608082015260a00190565b60005b838110156157ff5781810151838201526020016157e7565b838111156121f25750506000910152565b600281106136e157fe5b6001600160a01b03811681146136e157600080fd5b80151581146136e157600080fd5b6001600160e01b0319811681146136e157600080fdfeb19546dff01e856fb3f010c267a7b1c60363cf8a4664e21cc89c26224620214e4552433732313a206f776e657220717565727920666f72206e6f6e6578697374656e7420746f6b656e65d7a28e3265b37a6474929f336521b332c1681b933f6cb9f3376673440d862aa2646970667358221220d064a74f14aed76b75b9b9c05826eb979b4cbe519c3ad68996b5875b1bdac3b064736f6c634300060c0033",
  "devdoc": {
    "kind": "dev",
    "methods": {
      "addToStake(uint256,uint256)": {
        "params": {
          "amount": "Amount of `stakingToken()` to be added to tokenId's position",
          "tokenId": "A staking position token ID"
        }
      },
      "approve(address,uint256)": {
        "details": "Approves another address to transfer the given token ID The zero address indicates there is no approved address. There can only be one approved address per token at a given time. Can only be called by the token owner or an approved operator.",
        "params": {
          "to": "address to be approved for the given token ID",
          "tokenId": "uint256 ID of the token to be approved"
        }
      },
      "balanceOf(address)": {
        "details": "Gets the balance of the specified address.",
        "params": {
          "owner": "address to query the balance of"
        },
        "returns": {
          "_0": "uint256 representing the amount owned by the passed address"
        }
      },
      "baseURI()": {
        "details": "Returns the base URI set via {_setBaseURI}. This will be automatically added as a prefix in {tokenURI} to each token's URI, or to the token ID if no specific URI is set for that token ID."
      },
      "claimableRewards(uint256)": {
        "returns": {
          "rewards": "Amount of rewards denominated in `rewardsToken()`"
        }
      },
      "currentEarnRatePerToken()": {
        "returns": {
          "_0": "Amount of rewards denominated in `rewardsToken().decimals()`."
        }
      },
      "depositAndStake(uint256)": {
        "params": {
          "usdcAmount": "The amount of USDC to deposit into the senior pool. All shares from deposit   will be staked."
        }
      },
      "depositToCurve(uint256,uint256)": {
        "params": {
          "fiduAmount": "The amount of FIDU to deposit",
          "usdcAmount": "The amount of USDC to deposit"
        }
      },
      "depositToCurveAndStakeFrom(address,uint256,uint256)": {
        "params": {
          "fiduAmount": "The amount of FIDU to deposit",
          "usdcAmount": "The amount of USDC to deposit"
        }
      },
      "depositWithPermitAndStake(uint256,uint256,uint8,bytes32,bytes32)": {
        "params": {
          "r": "secp256k1 signature component",
          "s": "secp256k1 signature component",
          "usdcAmount": "The amount of USDC to deposit",
          "v": "secp256k1 signature component"
        }
      },
      "earnedSinceLastCheckpoint(uint256)": {
        "params": {
          "tokenId": "A staking position token ID"
        },
        "returns": {
          "_0": "Amount of rewards denominated in `rewardsToken().decimals()`"
        }
      },
      "getApproved(uint256)": {
        "details": "Gets the approved address for a token ID, or zero if no address set Reverts if the token ID does not exist.",
        "params": {
          "tokenId": "uint256 ID of the token to query the approval of"
        },
        "returns": {
          "_0": "address currently approved for the given token ID"
        }
      },
      "getBaseTokenExchangeRate(uint8)": {
        "params": {
          "positionType": "Type of the staked postion"
        }
      },
      "getPosition(uint256)": {
        "params": {
          "tokenId": "id of the position token"
        },
        "returns": {
          "position": "the position"
        }
      },
      "getReward(uint256)": {
        "params": {
          "tokenId": "A staking position token ID"
        },
        "returns": {
          "_0": "amount of rewards claimed"
        }
      },
      "getRoleAdmin(bytes32)": {
        "details": "Returns the admin role that controls `role`. See {grantRole} and {revokeRole}. To change a role's admin, use {_setRoleAdmin}."
      },
      "getRoleMember(bytes32,uint256)": {
        "details": "Returns one of the accounts that have `role`. `index` must be a value between 0 and {getRoleMemberCount}, non-inclusive. Role bearers are not sorted in any particular way, and their ordering may change at any point. WARNING: When using {getRoleMember} and {getRoleMemberCount}, make sure you perform all queries on the same block. See the following https://forum.openzeppelin.com/t/iterating-over-elements-on-enumerableset-in-openzeppelin-contracts/2296[forum post] for more information."
      },
      "getRoleMemberCount(bytes32)": {
        "details": "Returns the number of accounts that have `role`. Can be used together with {getRoleMember} to enumerate all bearers of a role."
      },
      "grantRole(bytes32,address)": {
        "details": "Grants `role` to `account`. If `account` had not been already granted `role`, emits a {RoleGranted} event. Requirements: - the caller must have ``role``'s admin role."
      },
      "hasRole(bytes32,address)": {
        "details": "Returns `true` if `account` has been granted `role`."
      },
      "isApprovedForAll(address,address)": {
        "details": "Tells whether an operator is approved by a given owner.",
        "params": {
          "operator": "operator address which you want to query the approval of",
          "owner": "owner address which you want to query the approval of"
        },
        "returns": {
          "_0": "bool whether the given operator is approved by the given owner"
        }
      },
      "kick(uint256)": {
        "details": "This will also checkpoint their rewards up to the current time."
      },
      "name()": {
        "details": "Gets the token name.",
        "returns": {
          "_0": "string representing the token name"
        }
      },
      "ownerOf(uint256)": {
        "details": "Gets the owner of the specified token ID.",
        "params": {
          "tokenId": "uint256 ID of the token to query the owner of"
        },
        "returns": {
          "_0": "address currently marked as the owner of the given token ID"
        }
      },
      "pause()": {
        "details": "Pauses all token transfers. See {ERC721Pausable} and {Pausable-_pause}. Requirements: - the caller must have the `PAUSER_ROLE`."
      },
      "paused()": {
        "details": "Returns true if the contract is paused, and false otherwise."
      },
      "positionCurrentEarnRate(uint256)": {
        "returns": {
          "_0": "Amount of rewards denominated in `rewardsToken().decimals()`."
        }
      },
      "renounceRole(bytes32,address)": {
        "details": "Revokes `role` from the calling account. Roles are often managed via {grantRole} and {revokeRole}: this function's purpose is to provide a mechanism for accounts to lose their privileges if they are compromised (such as when a trusted device is misplaced). If the calling account had been granted `role`, emits a {RoleRevoked} event. Requirements: - the caller must be `account`."
      },
      "revokeRole(bytes32,address)": {
        "details": "Revokes `role` from `account`. If `account` had been granted `role`, emits a {RoleRevoked} event. Requirements: - the caller must have ``role``'s admin role."
      },
      "rewardPerToken()": {
        "returns": {
          "_0": "Amount of rewards denominated in `rewardsToken().decimals()`"
        }
      },
      "safeTransferFrom(address,address,uint256)": {
        "details": "Safely transfers the ownership of a given token ID to another address If the target address is a contract, it must implement {IERC721Receiver-onERC721Received}, which is called upon a safe transfer, and return the magic value `bytes4(keccak256(\"onERC721Received(address,address,uint256,bytes)\"))`; otherwise, the transfer is reverted. Requires the msg.sender to be the owner, approved, or operator",
        "params": {
          "from": "current owner of the token",
          "to": "address to receive the ownership of the given token ID",
          "tokenId": "uint256 ID of the token to be transferred"
        }
      },
      "safeTransferFrom(address,address,uint256,bytes)": {
        "details": "Safely transfers the ownership of a given token ID to another address If the target address is a contract, it must implement {IERC721Receiver-onERC721Received}, which is called upon a safe transfer, and return the magic value `bytes4(keccak256(\"onERC721Received(address,address,uint256,bytes)\"))`; otherwise, the transfer is reverted. Requires the _msgSender() to be the owner, approved, or operator",
        "params": {
          "_data": "bytes data to send along with a safe transfer check",
          "from": "current owner of the token",
          "to": "address to receive the ownership of the given token ID",
          "tokenId": "uint256 ID of the token to be transferred"
        }
      },
      "setApprovalForAll(address,bool)": {
        "details": "Sets or unsets the approval of a given operator An operator is allowed to transfer all tokens of the sender on their behalf.",
        "params": {
          "approved": "representing the status of the approval to be set",
          "operator": "operator address to set the approval"
        }
      },
      "setEffectiveMultiplier(uint256,uint8)": {
        "params": {
          "multiplier": "the new multiplier, denominated in `MULTIPLIER_DECIMALS`",
          "positionType": "the type of the position"
        }
      },
      "stake(uint256,uint8)": {
        "details": "This function checkpoints rewards.",
        "params": {
          "amount": "The amount of `stakingToken()` to stake",
          "positionType": "The type of the staked position"
        },
        "returns": {
          "_0": "Id of the NFT representing the staked position"
        }
      },
      "stakedBalanceOf(uint256)": {
        "details": "The value returned is the bare amount, not the effective amount. The bare amount represents   the number of tokens the user has staked for a given position. The effective amount is the bare   amount multiplied by the token's underlying asset type multiplier. This multiplier is a crypto-   economic parameter determined by governance.",
        "params": {
          "tokenId": "A staking position token ID"
        },
        "returns": {
          "_0": "Amount of staked tokens denominated in `stakingToken().decimals()`"
        }
      },
      "supportsInterface(bytes4)": {
        "details": "See {IERC165-supportsInterface}. Time complexity O(1), guaranteed to always use less than 30 000 gas."
      },
      "symbol()": {
        "details": "Gets the token symbol.",
        "returns": {
          "_0": "string representing the token symbol"
        }
      },
      "tokenByIndex(uint256)": {
        "details": "Gets the token ID at a given index of all the tokens in this contract Reverts if the index is greater or equal to the total number of tokens.",
        "params": {
          "index": "uint256 representing the index to be accessed of the tokens list"
        },
        "returns": {
          "_0": "uint256 token ID at the given index of the tokens list"
        }
      },
      "tokenOfOwnerByIndex(address,uint256)": {
        "details": "Gets the token ID at a given index of the tokens list of the requested owner.",
        "params": {
          "index": "uint256 representing the index to be accessed of the requested tokens list",
          "owner": "address owning the tokens list to be accessed"
        },
        "returns": {
          "_0": "uint256 token ID at the given index of the tokens list owned by the requested address"
        }
      },
      "tokenURI(uint256)": {
        "details": "Returns the URI for a given token ID. May return an empty string. If a base URI is set (via {_setBaseURI}), it is added as a prefix to the token's own URI (via {_setTokenURI}). If there is a base URI but no token URI, the token's ID will be used as its URI when appending it to the base URI. This pattern for autogenerated token URIs can lead to large gas savings. .Examples |=== |`_setBaseURI()` |`_setTokenURI()` |`tokenURI()` | \"\" | \"\" | \"\" | \"\" | \"token.uri/123\" | \"token.uri/123\" | \"token.uri/\" | \"123\" | \"token.uri/123\" | \"token.uri/\" | \"\" | \"token.uri/<tokenId>\" |=== Requirements: - `tokenId` must exist."
      },
      "totalSupply()": {
        "details": "Gets the total amount of tokens stored by the contract.",
        "returns": {
          "_0": "uint256 representing the total amount of tokens"
        }
      },
      "totalVestedAt(uint256,uint256,uint256,uint256)": {
        "returns": {
          "rewards": "Amount of rewards denominated in `rewardsToken()`"
        }
      },
      "transferFrom(address,address,uint256)": {
        "details": "Transfers the ownership of a given token ID to another address. Usage of this method is discouraged, use {safeTransferFrom} whenever possible. Requires the msg.sender to be the owner, approved, or operator.",
        "params": {
          "from": "current owner of the token",
          "to": "address to receive the ownership of the given token ID",
          "tokenId": "uint256 ID of the token to be transferred"
        }
      },
      "unpause()": {
        "details": "Unpauses all token transfers. See {ERC721Pausable} and {Pausable-_unpause}. Requirements: - the caller must have the `PAUSER_ROLE`."
      },
      "unstake(uint256,uint256)": {
        "details": "This function checkpoints rewards",
        "params": {
          "amount": "Amount of `stakingToken()` to be unstaked from the position",
          "tokenId": "A staking position token ID"
        }
      },
      "unstakeMultiple(uint256[],uint256[])": {
        "details": "This function checkpoints rewards",
        "params": {
          "amounts": "A list of amounts of `stakingToken()` to be unstaked from the position",
          "tokenIds": "A list of position token IDs"
        }
      },
      "updatePositionEffectiveMultiplier(uint256)": {
        "details": "This will also checkpoint their rewards up to the current time."
      }
    },
    "stateVariables": {
      "effectiveMultipliers": {
        "details": "A mapping of staked position types to multipliers used to denominate positions   in `baseStakingToken()`. Represented with `MULTIPLIER_DECIMALS`."
      },
      "leverageMultipliers": {
        "details": "UNUSED (definition kept for storage slot)"
      },
      "positions": {
        "details": "NFT tokenId => staked position"
      },
      "totalLeveragedStakedSupply": {
        "details": "UNUSED (definition kept for storage slot)"
      },
      "totalStakedSupply": {
        "details": "Supply of staked tokens, denominated in `stakingToken().decimals()`Note that due to the use of `unsafeBaseTokenExchangeRate` and `unsafeEffectiveMultiplier` on a StakedPosition, the sum of `amount` across all staked positions will not necessarily equal this `totalStakedSupply` value; the purpose of the base token exchange rate and the effective multiplier is to enable calculation of an \"effective amount\" -- which is what this `totalStakedSupply` represents the sum of."
      },
      "vestingLength": {
        "details": "UNUSED (definition kept for storage slot)"
      }
    },
    "version": 1
  },
  "userdoc": {
    "kind": "user",
    "methods": {
      "accumulatedRewardsPerToken()": {
        "notice": "Accumulated rewards per token at the last checkpoint"
      },
      "addToStake(uint256,uint256)": {
        "notice": "Add `amount` to an existing FIDU position (`tokenId`)"
      },
      "claimableRewards(uint256)": {
        "notice": "Returns the rewards claimable by a given position token at the most recent checkpoint, taking into   account vesting schedule for legacy positions."
      },
      "currentEarnRatePerToken()": {
        "notice": "The amount of rewards currently being earned per token per second. This amount takes into   account how many rewards are actually available for disbursal -- unlike `rewardRate()` which does not.   This function is intended for public consumption, to know the rate at which rewards are being   earned, and not as an input to the mutative calculations in this contract."
      },
      "depositAndStake(uint256)": {
        "notice": "Deposit to SeniorPool and stake your shares in the same transaction."
      },
      "depositToCurve(uint256,uint256)": {
        "notice": "Deposits FIDU and USDC to Curve on behalf of the user. The Curve LP tokens will be minted   directly to the user's address"
      },
      "depositToCurveAndStakeFrom(address,uint256,uint256)": {
        "notice": "Deposit to FIDU and USDC into the Curve LP, and stake your Curve LP tokens in the same transaction."
      },
      "depositWithPermitAndStake(uint256,uint256,uint8,bytes32,bytes32)": {
        "notice": "Identical to `depositAndStake`, except it allows for a signature to be passed that permits   this contract to move funds on behalf of the user."
      },
      "earnedSinceLastCheckpoint(uint256)": {
        "notice": "Returns rewards earned by a given position token from its last checkpoint up to the   current block timestamp."
      },
      "getBaseTokenExchangeRate(uint8)": {
        "notice": "Calculate the exchange rate that will be used to convert the original staked token amount to the   `baseStakingToken()` amount. The exchange rate is denominated in `MULTIPLIER_DECIMALS`."
      },
      "getEffectiveMultiplierForPositionType(uint8)": {
        "notice": "The effective multiplier to use with new staked positions of the provided `positionType`,   for denominating them in terms of `baseStakingToken()`. This value is denominated in `MULTIPLIER_DECIMALS`."
      },
      "getPosition(uint256)": {
        "notice": "Get the staking rewards position"
      },
      "getReward(uint256)": {
        "notice": "Claim rewards for a given staked position"
      },
      "kick(uint256)": {
        "notice": "\"Kick\" a user's reward multiplier. If they are past their lock-up period, their reward   multiplier will be reset to 1x."
      },
      "lastUpdateTime()": {
        "notice": "The block timestamp when rewards were last checkpointed"
      },
      "loadRewards(uint256)": {
        "notice": "Transfer rewards from msg.sender, to be used for reward distribution"
      },
      "maxRate()": {
        "notice": "The maximum total disbursed rewards per second, denominated in `rewardsToken()`"
      },
      "maxRateAtPercent()": {
        "notice": "The percent of `targetCapacity` at which the reward rate reaches `maxRate`.  Represented with `MULTIPLIER_DECIMALS`."
      },
      "minRate()": {
        "notice": "The minimum total disbursed rewards per second, denominated in `rewardsToken()`"
      },
      "minRateAtPercent()": {
        "notice": "The percent of `targetCapacity` at which the reward rate reaches `minRate`.  Represented with `MULTIPLIER_DECIMALS`."
      },
      "positionCurrentEarnRate(uint256)": {
        "notice": "The amount of rewards currently being earned per second, for a given position. This function   is intended for public consumption, to know the rate at which rewards are being earned   for a given position, and not as an input to the mutative calculations in this contract."
      },
      "positionToAccumulatedRewardsPerToken(uint256)": {
        "notice": "StakedPosition tokenId => accumulatedRewardsPerToken at the position's last checkpoint"
      },
      "removeRewards(uint256)": {
        "notice": "Transfer rewards from staking rewards, to the caller"
      },
      "rewardPerToken()": {
        "notice": "Returns accumulated rewards per token up to the current block timestamp"
      },
      "rewardsAvailable()": {
        "notice": "Total rewards available for disbursement at the last checkpoint, denominated in `rewardsToken()`"
      },
      "setEffectiveMultiplier(uint256,uint8)": {
        "notice": "Set the effective multiplier for a given staked position type. The effective multipler  is used to denominate a staked position to `baseStakingToken()`. The multiplier is represented in  `MULTIPLIER_DECIMALS`"
      },
      "stake(uint256,uint8)": {
        "notice": "Stake `stakingToken()` to earn rewards. When you call this function, you'll receive an   an NFT representing your staked position. You can present your NFT to `getReward` or `unstake`   to claim rewards or unstake your tokens respectively."
      },
      "stakedBalanceOf(uint256)": {
        "notice": "Returns the staked balance of a given position token."
      },
      "targetCapacity()": {
        "notice": "Desired supply of staked tokens. The reward rate adjusts in a range   around this value to incentivize staking or unstaking to maintain it."
      },
      "totalVestedAt(uint256,uint256,uint256,uint256)": {
        "notice": "Returns the rewards that will have vested for some position with the given params."
      },
      "unstake(uint256,uint256)": {
        "notice": "Unstake an amount of `stakingToken()` (FIDU, FiduUSDCCurveLP, etc) associated with   a given position and transfer to msg.sender. Any remaining staked amount will continue to   accrue rewards."
      },
      "unstakeMultiple(uint256[],uint256[])": {
        "notice": "Unstake multiple positions and transfer to msg.sender."
      },
      "updatePositionEffectiveMultiplier(uint256)": {
        "notice": "Updates a user's effective multiplier to the prevailing multiplier. This function gives   users an option to get on a higher multiplier without needing to unstake."
      },
      "vestingLength()": {
        "notice": "The duration in seconds over which legacy rewards vest. New positions have no vesting  and earn rewards immediately."
      }
    },
    "version": 1
  },
  "storageLayout": {
    "storage": [
      {
        "astId": 50,
        "contract": "contracts/rewards/StakingRewards.sol:StakingRewards",
        "label": "initialized",
        "offset": 0,
        "slot": "0",
        "type": "t_bool"
      },
      {
        "astId": 53,
        "contract": "contracts/rewards/StakingRewards.sol:StakingRewards",
        "label": "initializing",
        "offset": 1,
        "slot": "0",
        "type": "t_bool"
      },
      {
        "astId": 118,
        "contract": "contracts/rewards/StakingRewards.sol:StakingRewards",
        "label": "______gap",
        "offset": 0,
        "slot": "1",
        "type": "t_array(t_uint256)50_storage"
      },
      {
        "astId": 43,
        "contract": "contracts/rewards/StakingRewards.sol:StakingRewards",
        "label": "__gap",
        "offset": 0,
        "slot": "51",
        "type": "t_array(t_uint256)50_storage"
      },
      {
        "astId": 163,
        "contract": "contracts/rewards/StakingRewards.sol:StakingRewards",
        "label": "_roles",
        "offset": 0,
        "slot": "101",
        "type": "t_mapping(t_bytes32,t_struct(RoleData)159_storage)"
      },
      {
        "astId": 408,
        "contract": "contracts/rewards/StakingRewards.sol:StakingRewards",
        "label": "__gap",
        "offset": 0,
        "slot": "102",
        "type": "t_array(t_uint256)49_storage"
      },
      {
        "astId": 8633,
        "contract": "contracts/rewards/StakingRewards.sol:StakingRewards",
        "label": "_supportedInterfaces",
        "offset": 0,
        "slot": "151",
        "type": "t_mapping(t_bytes4,t_bool)"
      },
      {
        "astId": 8690,
        "contract": "contracts/rewards/StakingRewards.sol:StakingRewards",
        "label": "__gap",
        "offset": 0,
        "slot": "152",
        "type": "t_array(t_uint256)49_storage"
      },
      {
        "astId": 8740,
        "contract": "contracts/rewards/StakingRewards.sol:StakingRewards",
        "label": "_holderTokens",
        "offset": 0,
        "slot": "201",
        "type": "t_mapping(t_address,t_struct(UintSet)3021_storage)"
      },
      {
        "astId": 8742,
        "contract": "contracts/rewards/StakingRewards.sol:StakingRewards",
        "label": "_tokenOwners",
        "offset": 0,
        "slot": "202",
        "type": "t_struct(UintToAddressMap)2546_storage"
      },
      {
        "astId": 8746,
        "contract": "contracts/rewards/StakingRewards.sol:StakingRewards",
        "label": "_tokenApprovals",
        "offset": 0,
        "slot": "204",
        "type": "t_mapping(t_uint256,t_address)"
      },
      {
        "astId": 8752,
        "contract": "contracts/rewards/StakingRewards.sol:StakingRewards",
        "label": "_operatorApprovals",
        "offset": 0,
        "slot": "205",
        "type": "t_mapping(t_address,t_mapping(t_address,t_bool))"
      },
      {
        "astId": 8754,
        "contract": "contracts/rewards/StakingRewards.sol:StakingRewards",
        "label": "_name",
        "offset": 0,
        "slot": "206",
        "type": "t_string_storage"
      },
      {
        "astId": 8756,
        "contract": "contracts/rewards/StakingRewards.sol:StakingRewards",
        "label": "_symbol",
        "offset": 0,
        "slot": "207",
        "type": "t_string_storage"
      },
      {
        "astId": 8760,
        "contract": "contracts/rewards/StakingRewards.sol:StakingRewards",
        "label": "_tokenURIs",
        "offset": 0,
        "slot": "208",
        "type": "t_mapping(t_uint256,t_string_storage)"
      },
      {
        "astId": 8762,
        "contract": "contracts/rewards/StakingRewards.sol:StakingRewards",
        "label": "_baseURI",
        "offset": 0,
        "slot": "209",
        "type": "t_string_storage"
      },
      {
        "astId": 9668,
        "contract": "contracts/rewards/StakingRewards.sol:StakingRewards",
        "label": "__gap",
        "offset": 0,
        "slot": "210",
        "type": "t_array(t_uint256)41_storage"
      },
      {
        "astId": 3137,
        "contract": "contracts/rewards/StakingRewards.sol:StakingRewards",
        "label": "_paused",
        "offset": 0,
        "slot": "251",
        "type": "t_bool"
      },
      {
        "astId": 3226,
        "contract": "contracts/rewards/StakingRewards.sol:StakingRewards",
        "label": "__gap",
        "offset": 0,
        "slot": "252",
        "type": "t_array(t_uint256)49_storage"
      },
      {
        "astId": 9736,
        "contract": "contracts/rewards/StakingRewards.sol:StakingRewards",
        "label": "__gap",
        "offset": 0,
        "slot": "301",
        "type": "t_array(t_uint256)50_storage"
      },
      {
        "astId": 9768,
        "contract": "contracts/rewards/StakingRewards.sol:StakingRewards",
        "label": "_tokenIdTracker",
        "offset": 0,
        "slot": "351",
        "type": "t_struct(Counter)2226_storage"
      },
      {
        "astId": 9826,
        "contract": "contracts/rewards/StakingRewards.sol:StakingRewards",
        "label": "__gap",
        "offset": 0,
        "slot": "352",
        "type": "t_array(t_uint256)49_storage"
      },
      {
        "astId": 3235,
        "contract": "contracts/rewards/StakingRewards.sol:StakingRewards",
        "label": "_notEntered",
        "offset": 0,
        "slot": "401",
        "type": "t_bool"
      },
      {
        "astId": 3276,
        "contract": "contracts/rewards/StakingRewards.sol:StakingRewards",
        "label": "__gap",
        "offset": 0,
        "slot": "402",
        "type": "t_array(t_uint256)49_storage"
      },
      {
        "astId": 34618,
        "contract": "contracts/rewards/StakingRewards.sol:StakingRewards",
        "label": "config",
        "offset": 0,
        "slot": "451",
        "type": "t_contract(GoldfinchConfig)19667"
      },
      {
        "astId": 34622,
        "contract": "contracts/rewards/StakingRewards.sol:StakingRewards",
        "label": "lastUpdateTime",
        "offset": 0,
        "slot": "452",
        "type": "t_uint256"
      },
      {
        "astId": 34626,
        "contract": "contracts/rewards/StakingRewards.sol:StakingRewards",
        "label": "accumulatedRewardsPerToken",
        "offset": 0,
        "slot": "453",
        "type": "t_uint256"
      },
      {
        "astId": 34629,
        "contract": "contracts/rewards/StakingRewards.sol:StakingRewards",
        "label": "rewardsAvailable",
        "offset": 0,
        "slot": "454",
        "type": "t_uint256"
      },
      {
        "astId": 34634,
        "contract": "contracts/rewards/StakingRewards.sol:StakingRewards",
        "label": "positionToAccumulatedRewardsPerToken",
        "offset": 0,
        "slot": "455",
        "type": "t_mapping(t_uint256,t_uint256)"
      },
      {
        "astId": 34637,
        "contract": "contracts/rewards/StakingRewards.sol:StakingRewards",
        "label": "targetCapacity",
        "offset": 0,
        "slot": "456",
        "type": "t_uint256"
      },
      {
        "astId": 34640,
        "contract": "contracts/rewards/StakingRewards.sol:StakingRewards",
        "label": "minRate",
        "offset": 0,
        "slot": "457",
        "type": "t_uint256"
      },
      {
        "astId": 34643,
        "contract": "contracts/rewards/StakingRewards.sol:StakingRewards",
        "label": "maxRate",
        "offset": 0,
        "slot": "458",
        "type": "t_uint256"
      },
      {
        "astId": 34646,
        "contract": "contracts/rewards/StakingRewards.sol:StakingRewards",
        "label": "maxRateAtPercent",
        "offset": 0,
        "slot": "459",
        "type": "t_uint256"
      },
      {
        "astId": 34649,
        "contract": "contracts/rewards/StakingRewards.sol:StakingRewards",
        "label": "minRateAtPercent",
        "offset": 0,
        "slot": "460",
        "type": "t_uint256"
      },
      {
        "astId": 34652,
        "contract": "contracts/rewards/StakingRewards.sol:StakingRewards",
        "label": "vestingLength",
        "offset": 0,
        "slot": "461",
        "type": "t_uint256"
      },
      {
        "astId": 34655,
        "contract": "contracts/rewards/StakingRewards.sol:StakingRewards",
        "label": "totalStakedSupply",
        "offset": 0,
        "slot": "462",
        "type": "t_uint256"
      },
      {
        "astId": 34658,
        "contract": "contracts/rewards/StakingRewards.sol:StakingRewards",
        "label": "totalLeveragedStakedSupply",
        "offset": 0,
        "slot": "463",
        "type": "t_uint256"
      },
      {
        "astId": 34663,
        "contract": "contracts/rewards/StakingRewards.sol:StakingRewards",
        "label": "leverageMultipliers",
        "offset": 0,
        "slot": "464",
        "type": "t_mapping(t_enum(LockupPeriod)34605,t_uint256)"
      },
      {
        "astId": 34668,
        "contract": "contracts/rewards/StakingRewards.sol:StakingRewards",
        "label": "positions",
        "offset": 0,
        "slot": "465",
        "type": "t_mapping(t_uint256,t_struct(StakedPosition)13936_storage)"
      },
      {
        "astId": 34673,
        "contract": "contracts/rewards/StakingRewards.sol:StakingRewards",
        "label": "effectiveMultipliers",
        "offset": 0,
        "slot": "466",
        "type": "t_mapping(t_enum(StakedPositionType)13908,t_uint256)"
      }
    ],
    "types": {
      "t_address": {
        "encoding": "inplace",
        "label": "address",
        "numberOfBytes": "20"
      },
      "t_array(t_bytes32)dyn_storage": {
        "base": "t_bytes32",
        "encoding": "dynamic_array",
        "label": "bytes32[]",
        "numberOfBytes": "32"
      },
      "t_array(t_struct(MapEntry)2274_storage)dyn_storage": {
        "base": "t_struct(MapEntry)2274_storage",
        "encoding": "dynamic_array",
        "label": "struct EnumerableMap.MapEntry[]",
        "numberOfBytes": "32"
      },
      "t_array(t_uint256)41_storage": {
        "base": "t_uint256",
        "encoding": "inplace",
        "label": "uint256[41]",
        "numberOfBytes": "1312"
      },
      "t_array(t_uint256)49_storage": {
        "base": "t_uint256",
        "encoding": "inplace",
        "label": "uint256[49]",
        "numberOfBytes": "1568"
      },
      "t_array(t_uint256)50_storage": {
        "base": "t_uint256",
        "encoding": "inplace",
        "label": "uint256[50]",
        "numberOfBytes": "1600"
      },
      "t_bool": {
        "encoding": "inplace",
        "label": "bool",
        "numberOfBytes": "1"
      },
      "t_bytes32": {
        "encoding": "inplace",
        "label": "bytes32",
        "numberOfBytes": "32"
      },
      "t_bytes4": {
        "encoding": "inplace",
        "label": "bytes4",
        "numberOfBytes": "4"
      },
      "t_contract(GoldfinchConfig)19667": {
        "encoding": "inplace",
        "label": "contract GoldfinchConfig",
        "numberOfBytes": "20"
      },
      "t_enum(LockupPeriod)34605": {
        "encoding": "inplace",
        "label": "enum StakingRewards.LockupPeriod",
        "numberOfBytes": "1"
      },
      "t_enum(StakedPositionType)13908": {
        "encoding": "inplace",
        "label": "enum StakedPositionType",
        "numberOfBytes": "1"
      },
      "t_mapping(t_address,t_bool)": {
        "encoding": "mapping",
        "key": "t_address",
        "label": "mapping(address => bool)",
        "numberOfBytes": "32",
        "value": "t_bool"
      },
      "t_mapping(t_address,t_mapping(t_address,t_bool))": {
        "encoding": "mapping",
        "key": "t_address",
        "label": "mapping(address => mapping(address => bool))",
        "numberOfBytes": "32",
        "value": "t_mapping(t_address,t_bool)"
      },
      "t_mapping(t_address,t_struct(UintSet)3021_storage)": {
        "encoding": "mapping",
        "key": "t_address",
        "label": "mapping(address => struct EnumerableSet.UintSet)",
        "numberOfBytes": "32",
        "value": "t_struct(UintSet)3021_storage"
      },
      "t_mapping(t_bytes32,t_struct(RoleData)159_storage)": {
        "encoding": "mapping",
        "key": "t_bytes32",
        "label": "mapping(bytes32 => struct AccessControlUpgradeSafe.RoleData)",
        "numberOfBytes": "32",
        "value": "t_struct(RoleData)159_storage"
      },
      "t_mapping(t_bytes32,t_uint256)": {
        "encoding": "mapping",
        "key": "t_bytes32",
        "label": "mapping(bytes32 => uint256)",
        "numberOfBytes": "32",
        "value": "t_uint256"
      },
      "t_mapping(t_bytes4,t_bool)": {
        "encoding": "mapping",
        "key": "t_bytes4",
        "label": "mapping(bytes4 => bool)",
        "numberOfBytes": "32",
        "value": "t_bool"
      },
      "t_mapping(t_enum(LockupPeriod)34605,t_uint256)": {
        "encoding": "mapping",
        "key": "t_enum(LockupPeriod)34605",
        "label": "mapping(enum StakingRewards.LockupPeriod => uint256)",
        "numberOfBytes": "32",
        "value": "t_uint256"
      },
      "t_mapping(t_enum(StakedPositionType)13908,t_uint256)": {
        "encoding": "mapping",
        "key": "t_enum(StakedPositionType)13908",
        "label": "mapping(enum StakedPositionType => uint256)",
        "numberOfBytes": "32",
        "value": "t_uint256"
      },
      "t_mapping(t_uint256,t_address)": {
        "encoding": "mapping",
        "key": "t_uint256",
        "label": "mapping(uint256 => address)",
        "numberOfBytes": "32",
        "value": "t_address"
      },
      "t_mapping(t_uint256,t_string_storage)": {
        "encoding": "mapping",
        "key": "t_uint256",
        "label": "mapping(uint256 => string)",
        "numberOfBytes": "32",
        "value": "t_string_storage"
      },
      "t_mapping(t_uint256,t_struct(StakedPosition)13936_storage)": {
        "encoding": "mapping",
        "key": "t_uint256",
        "label": "mapping(uint256 => struct StakedPosition)",
        "numberOfBytes": "32",
        "value": "t_struct(StakedPosition)13936_storage"
      },
      "t_mapping(t_uint256,t_uint256)": {
        "encoding": "mapping",
        "key": "t_uint256",
        "label": "mapping(uint256 => uint256)",
        "numberOfBytes": "32",
        "value": "t_uint256"
      },
      "t_string_storage": {
        "encoding": "bytes",
        "label": "string",
        "numberOfBytes": "32"
      },
      "t_struct(AddressSet)2912_storage": {
        "encoding": "inplace",
        "label": "struct EnumerableSet.AddressSet",
        "members": [
          {
            "astId": 2911,
            "contract": "contracts/rewards/StakingRewards.sol:StakingRewards",
            "label": "_inner",
            "offset": 0,
            "slot": "0",
            "type": "t_struct(Set)2732_storage"
          }
        ],
        "numberOfBytes": "64"
      },
      "t_struct(Counter)2226_storage": {
        "encoding": "inplace",
        "label": "struct Counters.Counter",
        "members": [
          {
            "astId": 2225,
            "contract": "contracts/rewards/StakingRewards.sol:StakingRewards",
            "label": "_value",
            "offset": 0,
            "slot": "0",
            "type": "t_uint256"
          }
        ],
        "numberOfBytes": "32"
      },
      "t_struct(Map)2282_storage": {
        "encoding": "inplace",
        "label": "struct EnumerableMap.Map",
        "members": [
          {
            "astId": 2277,
            "contract": "contracts/rewards/StakingRewards.sol:StakingRewards",
            "label": "_entries",
            "offset": 0,
            "slot": "0",
            "type": "t_array(t_struct(MapEntry)2274_storage)dyn_storage"
          },
          {
            "astId": 2281,
            "contract": "contracts/rewards/StakingRewards.sol:StakingRewards",
            "label": "_indexes",
            "offset": 0,
            "slot": "1",
            "type": "t_mapping(t_bytes32,t_uint256)"
          }
        ],
        "numberOfBytes": "64"
      },
      "t_struct(MapEntry)2274_storage": {
        "encoding": "inplace",
        "label": "struct EnumerableMap.MapEntry",
        "members": [
          {
            "astId": 2271,
            "contract": "contracts/rewards/StakingRewards.sol:StakingRewards",
            "label": "_key",
            "offset": 0,
            "slot": "0",
            "type": "t_bytes32"
          },
          {
            "astId": 2273,
            "contract": "contracts/rewards/StakingRewards.sol:StakingRewards",
            "label": "_value",
            "offset": 0,
            "slot": "1",
            "type": "t_bytes32"
          }
        ],
        "numberOfBytes": "64"
      },
      "t_struct(Rewards)13921_storage": {
        "encoding": "inplace",
        "label": "struct Rewards",
        "members": [
          {
            "astId": 13910,
            "contract": "contracts/rewards/StakingRewards.sol:StakingRewards",
            "label": "totalUnvested",
            "offset": 0,
            "slot": "0",
            "type": "t_uint256"
          },
          {
            "astId": 13912,
            "contract": "contracts/rewards/StakingRewards.sol:StakingRewards",
            "label": "totalVested",
            "offset": 0,
            "slot": "1",
            "type": "t_uint256"
          },
          {
            "astId": 13914,
            "contract": "contracts/rewards/StakingRewards.sol:StakingRewards",
            "label": "totalPreviouslyVested",
            "offset": 0,
            "slot": "2",
            "type": "t_uint256"
          },
          {
            "astId": 13916,
            "contract": "contracts/rewards/StakingRewards.sol:StakingRewards",
            "label": "totalClaimed",
            "offset": 0,
            "slot": "3",
            "type": "t_uint256"
          },
          {
            "astId": 13918,
            "contract": "contracts/rewards/StakingRewards.sol:StakingRewards",
            "label": "startTime",
            "offset": 0,
            "slot": "4",
            "type": "t_uint256"
          },
          {
            "astId": 13920,
            "contract": "contracts/rewards/StakingRewards.sol:StakingRewards",
            "label": "endTime",
            "offset": 0,
            "slot": "5",
            "type": "t_uint256"
          }
        ],
        "numberOfBytes": "192"
      },
      "t_struct(RoleData)159_storage": {
        "encoding": "inplace",
        "label": "struct AccessControlUpgradeSafe.RoleData",
        "members": [
          {
            "astId": 156,
            "contract": "contracts/rewards/StakingRewards.sol:StakingRewards",
            "label": "members",
            "offset": 0,
            "slot": "0",
            "type": "t_struct(AddressSet)2912_storage"
          },
          {
            "astId": 158,
            "contract": "contracts/rewards/StakingRewards.sol:StakingRewards",
            "label": "adminRole",
            "offset": 0,
            "slot": "2",
            "type": "t_bytes32"
          }
        ],
        "numberOfBytes": "96"
      },
      "t_struct(Set)2732_storage": {
        "encoding": "inplace",
        "label": "struct EnumerableSet.Set",
        "members": [
          {
            "astId": 2727,
            "contract": "contracts/rewards/StakingRewards.sol:StakingRewards",
            "label": "_values",
            "offset": 0,
            "slot": "0",
            "type": "t_array(t_bytes32)dyn_storage"
          },
          {
            "astId": 2731,
            "contract": "contracts/rewards/StakingRewards.sol:StakingRewards",
            "label": "_indexes",
            "offset": 0,
            "slot": "1",
            "type": "t_mapping(t_bytes32,t_uint256)"
          }
        ],
        "numberOfBytes": "64"
      },
      "t_struct(StakedPosition)13936_storage": {
        "encoding": "inplace",
        "label": "struct StakedPosition",
        "members": [
          {
            "astId": 13923,
            "contract": "contracts/rewards/StakingRewards.sol:StakingRewards",
            "label": "amount",
            "offset": 0,
            "slot": "0",
            "type": "t_uint256"
          },
          {
            "astId": 13925,
            "contract": "contracts/rewards/StakingRewards.sol:StakingRewards",
            "label": "rewards",
            "offset": 0,
            "slot": "1",
            "type": "t_struct(Rewards)13921_storage"
          },
          {
            "astId": 13927,
            "contract": "contracts/rewards/StakingRewards.sol:StakingRewards",
            "label": "leverageMultiplier",
            "offset": 0,
            "slot": "7",
            "type": "t_uint256"
          },
          {
            "astId": 13929,
            "contract": "contracts/rewards/StakingRewards.sol:StakingRewards",
            "label": "lockedUntil",
            "offset": 0,
            "slot": "8",
            "type": "t_uint256"
          },
          {
            "astId": 13931,
            "contract": "contracts/rewards/StakingRewards.sol:StakingRewards",
            "label": "positionType",
            "offset": 0,
            "slot": "9",
            "type": "t_enum(StakedPositionType)13908"
          },
          {
            "astId": 13933,
            "contract": "contracts/rewards/StakingRewards.sol:StakingRewards",
            "label": "unsafeEffectiveMultiplier",
            "offset": 0,
            "slot": "10",
            "type": "t_uint256"
          },
          {
            "astId": 13935,
            "contract": "contracts/rewards/StakingRewards.sol:StakingRewards",
            "label": "unsafeBaseTokenExchangeRate",
            "offset": 0,
            "slot": "11",
            "type": "t_uint256"
          }
        ],
        "numberOfBytes": "384"
      },
      "t_struct(UintSet)3021_storage": {
        "encoding": "inplace",
        "label": "struct EnumerableSet.UintSet",
        "members": [
          {
            "astId": 3020,
            "contract": "contracts/rewards/StakingRewards.sol:StakingRewards",
            "label": "_inner",
            "offset": 0,
            "slot": "0",
            "type": "t_struct(Set)2732_storage"
          }
        ],
        "numberOfBytes": "64"
      },
      "t_struct(UintToAddressMap)2546_storage": {
        "encoding": "inplace",
        "label": "struct EnumerableMap.UintToAddressMap",
        "members": [
          {
            "astId": 2545,
            "contract": "contracts/rewards/StakingRewards.sol:StakingRewards",
            "label": "_inner",
            "offset": 0,
            "slot": "0",
            "type": "t_struct(Map)2282_storage"
          }
        ],
        "numberOfBytes": "64"
      },
      "t_uint256": {
        "encoding": "inplace",
        "label": "uint256",
        "numberOfBytes": "32"
      }
    }
  }
}