{
  "address": "0xd44FE8Ec5D6cFB96A06e02e17bC109Ab98d506a5",
  "abi": [
    {
      "anonymous": false,
      "inputs": [
        {
          "indexed": true,
          "internalType": "address",
          "name": "owner",
          "type": "address"
        },
        {
          "indexed": true,
          "internalType": "address",
          "name": "clToMigrate",
          "type": "address"
        },
        {
          "indexed": false,
          "internalType": "address",
          "name": "newCl",
          "type": "address"
        },
        {
          "indexed": false,
          "internalType": "address",
          "name": "tranchedPool",
          "type": "address"
        }
      ],
      "name": "CreditLineMigrated",
      "type": "event"
    },
    {
      "anonymous": false,
      "inputs": [
        {
          "indexed": false,
          "internalType": "address",
          "name": "account",
          "type": "address"
        }
      ],
      "name": "Paused",
      "type": "event"
    },
    {
      "anonymous": false,
      "inputs": [
        {
          "indexed": true,
          "internalType": "bytes32",
          "name": "role",
          "type": "bytes32"
        },
        {
          "indexed": true,
          "internalType": "address",
          "name": "account",
          "type": "address"
        },
        {
          "indexed": true,
          "internalType": "address",
          "name": "sender",
          "type": "address"
        }
      ],
      "name": "RoleGranted",
      "type": "event"
    },
    {
      "anonymous": false,
      "inputs": [
        {
          "indexed": true,
          "internalType": "bytes32",
          "name": "role",
          "type": "bytes32"
        },
        {
          "indexed": true,
          "internalType": "address",
          "name": "account",
          "type": "address"
        },
        {
          "indexed": true,
          "internalType": "address",
          "name": "sender",
          "type": "address"
        }
      ],
      "name": "RoleRevoked",
      "type": "event"
    },
    {
      "anonymous": false,
      "inputs": [
        {
          "indexed": false,
          "internalType": "address",
          "name": "account",
          "type": "address"
        }
      ],
      "name": "Unpaused",
      "type": "event"
    },
    {
      "inputs": [],
      "name": "DEFAULT_ADMIN_ROLE",
      "outputs": [
        {
          "internalType": "bytes32",
          "name": "",
          "type": "bytes32"
        }
      ],
      "stateMutability": "view",
      "type": "function"
    },
    {
      "inputs": [],
      "name": "GO_LISTER_ROLE",
      "outputs": [
        {
          "internalType": "bytes32",
          "name": "",
          "type": "bytes32"
        }
      ],
      "stateMutability": "view",
      "type": "function"
    },
    {
      "inputs": [],
      "name": "MINTER_ROLE",
      "outputs": [
        {
          "internalType": "bytes32",
          "name": "",
          "type": "bytes32"
        }
      ],
      "stateMutability": "view",
      "type": "function"
    },
    {
      "inputs": [],
      "name": "OWNER_ROLE",
      "outputs": [
        {
          "internalType": "bytes32",
          "name": "",
          "type": "bytes32"
        }
      ],
      "stateMutability": "view",
      "type": "function"
    },
    {
      "inputs": [],
      "name": "PAUSER_ROLE",
      "outputs": [
        {
          "internalType": "bytes32",
          "name": "",
          "type": "bytes32"
        }
      ],
      "stateMutability": "view",
      "type": "function"
    },
    {
      "inputs": [
        {
          "internalType": "address",
          "name": "owner",
          "type": "address"
        }
      ],
      "name": "__BaseUpgradeablePausable__init",
      "outputs": [],
      "stateMutability": "nonpayable",
      "type": "function"
    },
    {
      "inputs": [],
      "name": "__PauserPausable__init",
      "outputs": [],
      "stateMutability": "nonpayable",
      "type": "function"
    },
    {
      "inputs": [
        {
          "internalType": "address",
          "name": "",
          "type": "address"
        }
      ],
      "name": "borrowerContracts",
      "outputs": [
        {
          "internalType": "address",
          "name": "",
          "type": "address"
        }
      ],
      "stateMutability": "view",
      "type": "function"
    },
    {
      "inputs": [
        {
          "internalType": "contract GoldfinchConfig",
          "name": "newConfig",
          "type": "address"
        },
        {
          "internalType": "address[]",
          "name": "members",
          "type": "address[]"
        }
      ],
      "name": "bulkAddToGoList",
      "outputs": [],
      "stateMutability": "nonpayable",
      "type": "function"
    },
    {
      "inputs": [
        {
          "internalType": "contract GoldfinchConfig",
          "name": "newConfig",
          "type": "address"
        }
      ],
      "name": "closeOutMigration",
      "outputs": [],
      "stateMutability": "nonpayable",
      "type": "function"
    },
    {
      "inputs": [],
      "name": "config",
      "outputs": [
        {
          "internalType": "contract GoldfinchConfig",
          "name": "",
          "type": "address"
        }
      ],
      "stateMutability": "view",
      "type": "function"
    },
    {
      "inputs": [
        {
          "internalType": "bytes32",
          "name": "role",
          "type": "bytes32"
        }
      ],
      "name": "getRoleAdmin",
      "outputs": [
        {
          "internalType": "bytes32",
          "name": "",
          "type": "bytes32"
        }
      ],
      "stateMutability": "view",
      "type": "function"
    },
    {
      "inputs": [
        {
          "internalType": "bytes32",
          "name": "role",
          "type": "bytes32"
        },
        {
          "internalType": "uint256",
          "name": "index",
          "type": "uint256"
        }
      ],
      "name": "getRoleMember",
      "outputs": [
        {
          "internalType": "address",
          "name": "",
          "type": "address"
        }
      ],
      "stateMutability": "view",
      "type": "function"
    },
    {
      "inputs": [
        {
          "internalType": "bytes32",
          "name": "role",
          "type": "bytes32"
        }
      ],
      "name": "getRoleMemberCount",
      "outputs": [
        {
          "internalType": "uint256",
          "name": "",
          "type": "uint256"
        }
      ],
      "stateMutability": "view",
      "type": "function"
    },
    {
      "inputs": [
        {
          "internalType": "bytes32",
          "name": "role",
          "type": "bytes32"
        },
        {
          "internalType": "address",
          "name": "account",
          "type": "address"
        }
      ],
      "name": "grantRole",
      "outputs": [],
      "stateMutability": "nonpayable",
      "type": "function"
    },
    {
      "inputs": [
        {
          "internalType": "bytes32",
          "name": "role",
          "type": "bytes32"
        },
        {
          "internalType": "address",
          "name": "account",
          "type": "address"
        }
      ],
      "name": "hasRole",
      "outputs": [
        {
          "internalType": "bool",
          "name": "",
          "type": "bool"
        }
      ],
      "stateMutability": "view",
      "type": "function"
    },
    {
      "inputs": [
        {
          "internalType": "address",
          "name": "owner",
          "type": "address"
        },
        {
          "internalType": "address",
          "name": "_config",
          "type": "address"
        }
      ],
      "name": "initialize",
      "outputs": [],
      "stateMutability": "nonpayable",
      "type": "function"
    },
    {
      "inputs": [],
      "name": "isAdmin",
      "outputs": [
        {
          "internalType": "bool",
          "name": "",
          "type": "bool"
        }
      ],
      "stateMutability": "view",
      "type": "function"
    },
    {
      "inputs": [
        {
          "internalType": "contract GoldfinchConfig",
          "name": "newConfig",
          "type": "address"
        },
        {
          "internalType": "address[][]",
          "name": "creditLinesToMigrate",
          "type": "address[][]"
        },
        {
          "internalType": "uint256[][]",
          "name": "migrationData",
          "type": "uint256[][]"
        }
      ],
      "name": "migrateCreditLines",
      "outputs": [],
      "stateMutability": "nonpayable",
      "type": "function"
    },
    {
      "inputs": [
        {
          "internalType": "contract GoldfinchConfig",
          "name": "newConfig",
          "type": "address"
        }
      ],
      "name": "migratePhase1",
      "outputs": [],
      "stateMutability": "nonpayable",
      "type": "function"
    },
    {
      "inputs": [],
      "name": "pause",
      "outputs": [],
      "stateMutability": "nonpayable",
      "type": "function"
    },
    {
      "inputs": [],
      "name": "paused",
      "outputs": [
        {
          "internalType": "bool",
          "name": "",
          "type": "bool"
        }
      ],
      "stateMutability": "view",
      "type": "function"
    },
    {
      "inputs": [
        {
          "internalType": "bytes32",
          "name": "role",
          "type": "bytes32"
        },
        {
          "internalType": "address",
          "name": "account",
          "type": "address"
        }
      ],
      "name": "renounceRole",
      "outputs": [],
      "stateMutability": "nonpayable",
      "type": "function"
    },
    {
      "inputs": [
        {
          "internalType": "bytes32",
          "name": "role",
          "type": "bytes32"
        },
        {
          "internalType": "address",
          "name": "account",
          "type": "address"
        }
      ],
      "name": "revokeRole",
      "outputs": [],
      "stateMutability": "nonpayable",
      "type": "function"
    },
    {
      "inputs": [],
      "name": "unpause",
      "outputs": [],
      "stateMutability": "nonpayable",
      "type": "function"
    },
    {
      "inputs": [
        {
          "internalType": "contract GoldfinchConfig",
          "name": "_config",
          "type": "address"
        },
        {
          "internalType": "address[]",
          "name": "newDeployments",
          "type": "address[]"
        }
      ],
      "name": "upgradeImplementations",
      "outputs": [],
      "stateMutability": "nonpayable",
      "type": "function"
    }
  ],
  "transactionHash": "0x0b17519491b167ab30506363dbb38ecb16e536b98c066be5cd91c542cf351fff",
  "args": [],
  "solcInputHash": "60bf04b8c24669590397de1969e3a29e",
  "bytecode": "0x608060405234801561001057600080fd5b50612919806100206000396000f3fe608060405234801561001057600080fd5b506004361061018d5760003560e01c806379502c55116100de578063ca15c87311610097578063d9e566fe11610071578063d9e566fe14610303578063e58378bb14610316578063e63ab1e91461031e578063f790228c146103265761018d565b8063ca15c873146102d5578063d5391393146102e8578063d547741f146102f05761018d565b806379502c551461028f5780638456cb59146102975780639010d07c1461029f57806391d14854146102b2578063a217fddf146102c5578063b6db75a0146102cd5761018d565b806336c1dd6c1161014b578063526d81f611610125578063526d81f61461024a5780635b51277b146102525780635c975abb1461025a578063712f9f651461026f5761018d565b806336c1dd6c1461021c5780633f4ba83a1461022f578063485cc955146102375761018d565b806258d55514610192578063097616a3146101a75780631b7e0e8a146101ba578063248a9ca3146101cd5780632f2ff15d146101f657806336568abe14610209575b600080fd5b6101a56101a036600461221a565b610339565b005b6101a56101b536600461221a565b610383565b6101a56101c836600461231c565b6104b3565b6101e06101db3660046122bf565b610734565b6040516101ed9190612517565b60405180910390f35b6101a56102043660046122d7565b610749565b6101a56102173660046122d7565b61078d565b6101a561022a36600461236f565b6107cf565b6101a5610aed565b6101a5610245366004612259565b610b2d565b6101a5610c13565b6101e0610c9d565b610262610cc1565b6040516101ed919061250c565b61028261027d36600461221a565b610cca565b6040516101ed91906123ef565b610282610ce6565b6101a5610cf6565b6102826102ad3660046122fb565b610d34565b6102626102c03660046122d7565b610d55565b6101e0610d6d565b610262610d72565b6101e06102e33660046122bf565b610d93565b6101e0610daa565b6101a56102fe3660046122d7565b610dce565b6101a561031136600461221a565b610e08565b6101e0611510565b6101e0611522565b6101a561033436600461231c565b611534565b610341610d72565b6103665760405162461bcd60e51b815260040161035d90612789565b60405180910390fd5b61036e6115bd565b610377816116f9565b61038081611a58565b50565b600054610100900460ff168061039c575061039c611bce565b806103aa575060005460ff16155b6103c65760405162461bcd60e51b815260040161035d9061273b565b600054610100900460ff161580156103f1576000805460ff1961ff0019909116610100171660011790555b6001600160a01b0382166104175760405162461bcd60e51b815260040161035d90612706565b61041f611bd4565b610427611c55565b61042f611ce1565b6104476000805160206128a483398151915283610783565b61045f6000805160206128c483398151915283610783565b6104856000805160206128c48339815191526000805160206128a4833981519152611d70565b61049d6000805160206128a483398151915280611d70565b80156104af576000805461ff00191690555b5050565b6000828260008181106104c257fe5b90506020020160208101906104d7919061221a565b90506000838360018181106104e857fe5b90506020020160208101906104fd919061221a565b905060008484600281811061050e57fe5b9050602002016020810190610523919061221a565b905060008585600381811061053457fe5b9050602002016020810190610549919061221a565b905060606000610561896001600160a01b0316611d85565b905060006105778a6001600160a01b0316611e04565b9050600061058d8b6001600160a01b0316611e1c565b905060006105a38c6001600160a01b0316611e34565b604051633112417160e01b81529091506001600160a01b038516906331124171906105d4908c90899060040161245b565b600060405180830381600087803b1580156105ee57600080fd5b505af1158015610602573d6000803e3d6000fd5b5050604051633112417160e01b81526001600160a01b038616925063311241719150610634908b90899060040161245b565b600060405180830381600087803b15801561064e57600080fd5b505af1158015610662573d6000803e3d6000fd5b5050604051633112417160e01b81526001600160a01b038516925063311241719150610694908a90899060040161245b565b600060405180830381600087803b1580156106ae57600080fd5b505af11580156106c2573d6000803e3d6000fd5b5050604051633112417160e01b81526001600160a01b0384169250633112417191506106f4908990899060040161245b565b600060405180830381600087803b15801561070e57600080fd5b505af1158015610722573d6000803e3d6000fd5b50505050505050505050505050505050565b60009081526065602052604090206002015490565b600082815260656020526040902060020154610767906102c0611e4c565b6107835760405162461bcd60e51b815260040161035d90612579565b6104af8282611e50565b610795611e4c565b6001600160a01b0316816001600160a01b0316146107c55760405162461bcd60e51b815260040161035d906127d4565b6104af8282611eb9565b6107d7610d72565b6107f35760405162461bcd60e51b815260040161035d90612789565b6000610807866001600160a01b0316611e04565b9050600061081d876001600160a01b0316611f22565b905060005b85811015610ae35736600088888481811061083957fe5b905060200281019061084b9190612831565b9150915036600088888681811061085e57fe5b90506020028101906108709190612878565b9150915060008484600081811061088357fe5b9050602002016020810190610898919061221a565b90506000858560018181106108a957fe5b90506020020160208101906108be919061221a565b6001600160a01b0380821660009081526101c460205260409020549192501680610992576040516311414c3b60e31b81526001600160a01b038a1690638a0a61d89061090e9085906004016123ef565b602060405180830381600087803b15801561092857600080fd5b505af115801561093c573d6000803e3d6000fd5b505050506040513d601f19601f82011682018060405250810190610960919061223d565b6001600160a01b0383811660009081526101c46020526040902080546001600160a01b03191691831691909117905590505b6000808b6001600160a01b031663c153696f86858a8a60008181106109b357fe5b905060200201358b8b60018181106109c757fe5b905060200201358c8c60028181106109db57fe5b905060200201358d8d60038181106109ef57fe5b905060200201358e8e6004818110610a0357fe5b905060200201356040518863ffffffff1660e01b8152600401610a2c979695949392919061241d565b6040805180830381600087803b158015610a4557600080fd5b505af1158015610a59573d6000803e3d6000fd5b505050506040513d601f19601f82011682018060405250810190610a7d9190612291565b91509150846001600160a01b0316846001600160a01b03167fe0ef67569c4dae2a7d6d86acfab7dc08ef8de0516705bba0cbb16aedad2debc68484604051610ac6929190612403565b60405180910390a350506001909701965061082295505050505050565b5050505050505050565b610b076000805160206128c48339815191526102c0611e4c565b610b235760405162461bcd60e51b815260040161035d90612640565b610b2b611f2d565b565b600054610100900460ff1680610b465750610b46611bce565b80610b54575060005460ff16155b610b705760405162461bcd60e51b815260040161035d9061273b565b600054610100900460ff16158015610b9b576000805460ff1961ff0019909116610100171660011790555b6001600160a01b03831615801590610bbb57506001600160a01b03821615155b610bd75760405162461bcd60e51b815260040161035d906125f6565b610be083610383565b6101c380546001600160a01b0319166001600160a01b0384161790558015610c0e576000805461ff00191690555b505050565b600054610100900460ff1680610c2c5750610c2c611bce565b80610c3a575060005460ff16155b610c565760405162461bcd60e51b815260040161035d9061273b565b600054610100900460ff16158015610c81576000805460ff1961ff0019909116610100171660011790555b610c89611c55565b8015610380576000805461ff001916905550565b7f4261c544cc1a84a4828404bd710bd4900df04736488a0f1af6a07d8ba25ece9881565b60975460ff1690565b6101c4602052600090815260409020546001600160a01b031681565b6101c3546001600160a01b031681565b610d106000805160206128c48339815191526102c0611e4c565b610d2c5760405162461bcd60e51b815260040161035d90612640565b610b2b611f99565b6000828152606560205260408120610d4c9083611ff2565b90505b92915050565b6000828152606560205260408120610d4c9083611ffe565b600081565b6000610d8e6000805160206128a48339815191526102c0611e4c565b905090565b6000818152606560205260408120610d4f90612013565b7f9f2df0fed2c77648de5860a4cc508cd0818c85b8b8a1ab4ceeef8d981c8956a681565b600082815260656020526040902060020154610dec906102c0611e4c565b6107c55760405162461bcd60e51b815260040161035d9061268c565b610e10610d72565b610e2c5760405162461bcd60e51b815260040161035d90612789565b6000610e40826001600160a01b0316611e1c565b90506000610e56836001600160a01b0316611e04565b90506000610e6c846001600160a01b0316611d85565b90506000610e82856001600160a01b0316611e34565b9050836001600160a01b0316633f4ba83a6040518163ffffffff1660e01b8152600401600060405180830381600087803b158015610ebf57600080fd5b505af1158015610ed3573d6000803e3d6000fd5b5050604051631b2b455f60e11b81526001600160a01b03871692506336568abe9150610f25907f9f2df0fed2c77648de5860a4cc508cd0818c85b8b8a1ab4ceeef8d981c8956a6903090600401612520565b600060405180830381600087803b158015610f3f57600080fd5b505af1158015610f53573d6000803e3d6000fd5b5050604051631b2b455f60e11b81526001600160a01b03871692506336568abe9150610f93906000805160206128a4833981519152903090600401612520565b600060405180830381600087803b158015610fad57600080fd5b505af1158015610fc1573d6000803e3d6000fd5b5050604051631b2b455f60e11b81526001600160a01b03871692506336568abe9150611001906000805160206128c4833981519152903090600401612520565b600060405180830381600087803b15801561101b57600080fd5b505af115801561102f573d6000803e3d6000fd5b5050604051631b2b455f60e11b81526001600160a01b03861692506336568abe915061106f906000805160206128a4833981519152903090600401612520565b600060405180830381600087803b15801561108957600080fd5b505af115801561109d573d6000803e3d6000fd5b5050604051631b2b455f60e11b81526001600160a01b03861692506336568abe91506110dd906000805160206128c4833981519152903090600401612520565b600060405180830381600087803b1580156110f757600080fd5b505af115801561110b573d6000803e3d6000fd5b5050604051631b2b455f60e11b81526001600160a01b03851692506336568abe915061114b906000805160206128a4833981519152903090600401612520565b600060405180830381600087803b15801561116557600080fd5b505af1158015611179573d6000803e3d6000fd5b5050604051631b2b455f60e11b81526001600160a01b03851692506336568abe91506111b9906000805160206128c4833981519152903090600401612520565b600060405180830381600087803b1580156111d357600080fd5b505af11580156111e7573d6000803e3d6000fd5b5050604051631b2b455f60e11b81526001600160a01b03841692506336568abe9150611227906000805160206128a4833981519152903090600401612520565b600060405180830381600087803b15801561124157600080fd5b505af1158015611255573d6000803e3d6000fd5b5050604051631b2b455f60e11b81526001600160a01b03841692506336568abe9150611295906000805160206128c4833981519152903090600401612520565b600060405180830381600087803b1580156112af57600080fd5b505af11580156112c3573d6000803e3d6000fd5b50506101c354604051631b2b455f60e11b81526001600160a01b0390911692506336568abe9150611308906000805160206128c4833981519152903090600401612520565b600060405180830381600087803b15801561132257600080fd5b505af1158015611336573d6000803e3d6000fd5b50506101c354604051631b2b455f60e11b81526001600160a01b0390911692506336568abe915061137b906000805160206128a4833981519152903090600401612520565b600060405180830381600087803b15801561139557600080fd5b505af11580156113a9573d6000803e3d6000fd5b5050604051631b2b455f60e11b81526001600160a01b03881692506336568abe91506113e9906000805160206128a4833981519152903090600401612520565b600060405180830381600087803b15801561140357600080fd5b505af1158015611417573d6000803e3d6000fd5b5050604051631b2b455f60e11b81526001600160a01b03881692506336568abe9150611457906000805160206128c4833981519152903090600401612520565b600060405180830381600087803b15801561147157600080fd5b505af1158015611485573d6000803e3d6000fd5b5050604051631b2b455f60e11b81526001600160a01b03881692506336568abe91506114d7907f4261c544cc1a84a4828404bd710bd4900df04736488a0f1af6a07d8ba25ece98903090600401612520565b600060405180830381600087803b1580156114f157600080fd5b505af1158015611505573d6000803e3d6000fd5b505050505050505050565b6000805160206128a483398151915281565b6000805160206128c483398151915281565b61153c610d72565b6115585760405162461bcd60e51b815260040161035d90612789565b604051630bc54cd760e11b81526001600160a01b0384169063178a99ae9061158690859085906004016124be565b600060405180830381600087803b1580156115a057600080fd5b505af11580156115b4573d6000803e3d6000fd5b50505050505050565b6101c3546115d3906001600160a01b0316611e04565b6001600160a01b0316638456cb596040518163ffffffff1660e01b8152600401600060405180830381600087803b15801561160d57600080fd5b505af1158015611621573d6000803e3d6000fd5b50506101c35461163c92506001600160a01b03169050611d85565b6001600160a01b0316638456cb596040518163ffffffff1660e01b8152600401600060405180830381600087803b15801561167657600080fd5b505af115801561168a573d6000803e3d6000fd5b50506101c3546116a592506001600160a01b03169050611e1c565b6001600160a01b0316638456cb596040518163ffffffff1660e01b8152600401600060405180830381600087803b1580156116df57600080fd5b505af11580156116f3573d6000803e3d6000fd5b50505050565b6101c354604051635626716360e11b8152600b916001600160a01b03169063ac4ce2c69061172d9084908690600401612520565b600060405180830381600087803b15801561174757600080fd5b505af115801561175b573d6000803e3d6000fd5b50506101c35461177692506001600160a01b03169050611e04565b6001600160a01b0316634f92a7286040518163ffffffff1660e01b8152600401600060405180830381600087803b1580156117b057600080fd5b505af11580156117c4573d6000803e3d6000fd5b50506101c3546117df92506001600160a01b03169050611d85565b6001600160a01b0316634f92a7286040518163ffffffff1660e01b8152600401600060405180830381600087803b15801561181957600080fd5b505af115801561182d573d6000803e3d6000fd5b50506101c35461184892506001600160a01b03169050611e1c565b6001600160a01b0316634f92a7286040518163ffffffff1660e01b8152600401600060405180830381600087803b15801561188257600080fd5b505af1158015611896573d6000803e3d6000fd5b50506101c3546118b192506001600160a01b03169050611e34565b6001600160a01b0316634f92a7286040518163ffffffff1660e01b8152600401600060405180830381600087803b1580156118eb57600080fd5b505af11580156118ff573d6000803e3d6000fd5b506007925061190c915050565b604051636b19e8c760e01b81529091506001600160a01b03831690636b19e8c7906119409084906201518090600401612823565b600060405180830381600087803b15801561195a57600080fd5b505af115801561196e573d6000803e3d6000fd5b506008925061197b915050565b604051636b19e8c760e01b81529091506001600160a01b03831690636b19e8c7906119ae90849061016d90600401612823565b600060405180830381600087803b1580156119c857600080fd5b505af11580156119dc573d6000803e3d6000fd5b50600992506119e9915050565b604051636b19e8c760e01b81529091506001600160a01b03831690636b19e8c790611a229084906729a2241af62c000090600401612823565b600060405180830381600087803b158015611a3c57600080fd5b505af1158015611a50573d6000803e3d6000fd5b505050505050565b6101c354611a6e906001600160a01b0316611e1c565b6001600160a01b0316632f2ff15d7f9f2df0fed2c77648de5860a4cc508cd0818c85b8b8a1ab4ceeef8d981c8956a6611aaf846001600160a01b031661201e565b6040518363ffffffff1660e01b8152600401611acc929190612520565b600060405180830381600087803b158015611ae657600080fd5b505af1158015611afa573d6000803e3d6000fd5b50506101c354611b1592506001600160a01b03169050611d85565b6001600160a01b0316633f4ba83a6040518163ffffffff1660e01b8152600401600060405180830381600087803b158015611b4f57600080fd5b505af1158015611b63573d6000803e3d6000fd5b50505050611b79816001600160a01b0316611d85565b6001600160a01b0316634cbceb2d6040518163ffffffff1660e01b8152600401600060405180830381600087803b158015611bb357600080fd5b505af1158015611bc7573d6000803e3d6000fd5b5050505050565b303b1590565b600054610100900460ff1680611bed5750611bed611bce565b80611bfb575060005460ff16155b611c175760405162461bcd60e51b815260040161035d9061273b565b600054610100900460ff16158015610c89576000805460ff1961ff0019909116610100171660011790558015610380576000805461ff001916905550565b600054610100900460ff1680611c6e5750611c6e611bce565b80611c7c575060005460ff16155b611c985760405162461bcd60e51b815260040161035d9061273b565b600054610100900460ff16158015611cc3576000805460ff1961ff0019909116610100171660011790555b6097805460ff191690558015610380576000805461ff001916905550565b600054610100900460ff1680611cfa5750611cfa611bce565b80611d08575060005460ff16155b611d245760405162461bcd60e51b815260040161035d9061273b565b600054610100900460ff16158015611d4f576000805460ff1961ff0019909116610100171660011790555b60c9805460ff191660011790558015610380576000805461ff001916905550565b60009182526065602052604090912060020155565b60006001600160a01b03821663b93f9b0a825b6040518263ffffffff1660e01b8152600401611db49190612517565b60206040518083038186803b158015611dcc57600080fd5b505afa158015611de0573d6000803e3d6000fd5b505050506040513d601f19601f82011682018060405250810190610d4f919061223d565b60006001600160a01b03821663b93f9b0a6003611d98565b60006001600160a01b03821663b93f9b0a6004611d98565b60006001600160a01b03821663b93f9b0a6002611d98565b3390565b6000828152606560205260409020611e689082612036565b156104af57611e75611e4c565b6001600160a01b0316816001600160a01b0316837f2f8788117e7eff1d82e926ec794901d17c78024a50270940304540a733656f0d60405160405180910390a45050565b6000828152606560205260409020611ed1908261204b565b156104af57611ede611e4c565b6001600160a01b0316816001600160a01b0316837ff6391f5c32d9c69d2a47ea670b442974b53935d1edc7fd64eb21e047a839171b60405160405180910390a45050565b6000610d4f82611e34565b60975460ff16611f4f5760405162461bcd60e51b815260040161035d906125c8565b6097805460ff191690557f5db9ee0a495bf2e6ff9c91a7834c1ba4fdd244a5e8aa4e537bd38aeae4b073aa611f82611e4c565b604051611f8f91906123ef565b60405180910390a1565b60975460ff1615611fbc5760405162461bcd60e51b815260040161035d906126dc565b6097805460ff191660011790557f62e78cea01bee320cd4e420270b5ea74000d11b0c9f74754ebdbfc544b05a258611f82611e4c565b6000610d4c8383612060565b6000610d4c836001600160a01b0384166120a5565b6000610d4f826120bd565b60006001600160a01b03821663b93f9b0a600e611d98565b6000610d4c836001600160a01b0384166120c1565b6000610d4c836001600160a01b03841661210b565b815460009082106120835760405162461bcd60e51b815260040161035d90612537565b82600001828154811061209257fe5b9060005260206000200154905092915050565b60009081526001919091016020526040902054151590565b5490565b60006120cd83836120a5565b61210357508154600181810184556000848152602080822090930184905584548482528286019093526040902091909155610d4f565b506000610d4f565b600081815260018301602052604081205480156121c7578354600019808301919081019060009087908390811061213e57fe5b906000526020600020015490508087600001848154811061215b57fe5b60009182526020808320909101929092558281526001898101909252604090209084019055865487908061218b57fe5b60019003818190600052602060002001600090559055866001016000878152602001908152602001600020600090556001945050505050610d4f565b6000915050610d4f565b60008083601f8401126121e2578182fd5b50813567ffffffffffffffff8111156121f9578182fd5b602083019150836020808302850101111561221357600080fd5b9250929050565b60006020828403121561222b578081fd5b81356122368161288e565b9392505050565b60006020828403121561224e578081fd5b81516122368161288e565b6000806040838503121561226b578081fd5b82356122768161288e565b915060208301356122868161288e565b809150509250929050565b600080604083850312156122a3578182fd5b82516122ae8161288e565b60208401519092506122868161288e565b6000602082840312156122d0578081fd5b5035919050565b600080604083850312156122e9578182fd5b8235915060208301356122868161288e565b6000806040838503121561230d578182fd5b50508035926020909101359150565b600080600060408486031215612330578081fd5b833561233b8161288e565b9250602084013567ffffffffffffffff811115612356578182fd5b612362868287016121d1565b9497909650939450505050565b600080600080600060608688031215612386578081fd5b85356123918161288e565b9450602086013567ffffffffffffffff808211156123ad578283fd5b6123b989838a016121d1565b909650945060408801359150808211156123d1578283fd5b506123de888289016121d1565b969995985093965092949392505050565b6001600160a01b0391909116815260200190565b6001600160a01b0392831681529116602082015260400190565b6001600160a01b03978816815295909616602086015260408501939093526060840191909152608083015260a082015260c081019190915260e00190565b600060018060a01b038416825260206040818401528351806040850152825b818110156124965785810183015185820160600152820161247a565b818111156124a75783606083870101525b50601f01601f191692909201606001949350505050565b60208082528181018390526000908460408401835b868110156125015782356124e68161288e565b6001600160a01b0316825291830191908301906001016124d3565b509695505050505050565b901515815260200190565b90815260200190565b9182526001600160a01b0316602082015260400190565b60208082526022908201527f456e756d657261626c655365743a20696e646578206f7574206f6620626f756e604082015261647360f01b606082015260800190565b6020808252602f908201527f416363657373436f6e74726f6c3a2073656e646572206d75737420626520616e60408201526e0818591b5a5b881d1bc819dc985b9d608a1b606082015260800190565b60208082526014908201527314185d5cd8589b194e881b9bdd081c185d5cd95960621b604082015260600190565b6020808252602a908201527f4f776e657220616e6420636f6e666967206164647265737365732063616e6e6f6040820152697420626520656d70747960b01b606082015260800190565b6020808252602c908201527f4d75737420686176652070617573657220726f6c6520746f20706572666f726d60408201526b103a3434b99030b1ba34b7b760a11b606082015260800190565b60208082526030908201527f416363657373436f6e74726f6c3a2073656e646572206d75737420626520616e60408201526f2061646d696e20746f207265766f6b6560801b606082015260800190565b60208082526010908201526f14185d5cd8589b194e881c185d5cd95960821b604082015260600190565b6020808252818101527f4f776e65722063616e6e6f7420626520746865207a65726f2061646472657373604082015260600190565b6020808252602e908201527f436f6e747261637420696e7374616e63652068617320616c726561647920626560408201526d195b881a5b9a5d1a585b1a5e995960921b606082015260800190565b6020808252602b908201527f4d75737420686176652061646d696e20726f6c6520746f20706572666f726d2060408201526a3a3434b99030b1ba34b7b760a91b606082015260800190565b6020808252602f908201527f416363657373436f6e74726f6c3a2063616e206f6e6c792072656e6f756e636560408201526e103937b632b9903337b91039b2b63360891b606082015260800190565b918252602082015260400190565b6000808335601e19843603018112612847578283fd5b83018035915067ffffffffffffffff821115612861578283fd5b602090810192508102360382131561221357600080fd5b6000808335601e19843603018112612847578182fd5b6001600160a01b038116811461038057600080fdfeb19546dff01e856fb3f010c267a7b1c60363cf8a4664e21cc89c26224620214e65d7a28e3265b37a6474929f336521b332c1681b933f6cb9f3376673440d862aa26469706673582212201c44a9906d9c14ae37b8f1680687f3d35df25b17cc464648c4fd9b78491db22464736f6c634300060c0033",
  "devdoc": {
    "author": "Goldfinch",
    "kind": "dev",
    "methods": {
      "getRoleAdmin(bytes32)": {
        "details": "Returns the admin role that controls `role`. See {grantRole} and {revokeRole}. To change a role's admin, use {_setRoleAdmin}."
      },
      "getRoleMember(bytes32,uint256)": {
        "details": "Returns one of the accounts that have `role`. `index` must be a value between 0 and {getRoleMemberCount}, non-inclusive. Role bearers are not sorted in any particular way, and their ordering may change at any point. WARNING: When using {getRoleMember} and {getRoleMemberCount}, make sure you perform all queries on the same block. See the following https://forum.openzeppelin.com/t/iterating-over-elements-on-enumerableset-in-openzeppelin-contracts/2296[forum post] for more information."
      },
      "getRoleMemberCount(bytes32)": {
        "details": "Returns the number of accounts that have `role`. Can be used together with {getRoleMember} to enumerate all bearers of a role."
      },
      "grantRole(bytes32,address)": {
        "details": "Grants `role` to `account`. If `account` had not been already granted `role`, emits a {RoleGranted} event. Requirements: - the caller must have ``role``'s admin role."
      },
      "hasRole(bytes32,address)": {
        "details": "Returns `true` if `account` has been granted `role`."
      },
      "pause()": {
        "details": "Pauses all functions guarded by Pause See {Pausable-_pause}. Requirements: - the caller must have the PAUSER_ROLE."
      },
      "paused()": {
        "details": "Returns true if the contract is paused, and false otherwise."
      },
      "renounceRole(bytes32,address)": {
        "details": "Revokes `role` from the calling account. Roles are often managed via {grantRole} and {revokeRole}: this function's purpose is to provide a mechanism for accounts to lose their privileges if they are compromised (such as when a trusted device is misplaced). If the calling account had been granted `role`, emits a {RoleRevoked} event. Requirements: - the caller must be `account`."
      },
      "revokeRole(bytes32,address)": {
        "details": "Revokes `role` from `account`. If `account` had been granted `role`, emits a {RoleRevoked} event. Requirements: - the caller must have ``role``'s admin role."
      },
      "unpause()": {
        "details": "Unpauses the contract See {Pausable-_unpause}. Requirements: - the caller must have the Pauser role"
      }
    },
    "title": "V2 Migrator Contract",
    "version": 1
  },
  "userdoc": {
    "kind": "user",
    "methods": {},
    "notice": "This is a one-time use contract solely for the purpose of migrating from our V1  to our V2 architecture. It will be temporarily granted authority from the Goldfinch governance,  and then revokes it's own authority and transfers it back to governance.",
    "version": 1
  },
  "storageLayout": {
    "storage": [
      {
        "astId": 151,
        "contract": "contracts/protocol/periphery/V2Migrator.sol:V2Migrator",
        "label": "initialized",
        "offset": 0,
        "slot": "0",
        "type": "t_bool"
      },
      {
        "astId": 154,
        "contract": "contracts/protocol/periphery/V2Migrator.sol:V2Migrator",
        "label": "initializing",
        "offset": 1,
        "slot": "0",
        "type": "t_bool"
      },
      {
        "astId": 219,
        "contract": "contracts/protocol/periphery/V2Migrator.sol:V2Migrator",
        "label": "______gap",
        "offset": 0,
        "slot": "1",
        "type": "t_array(t_uint256)50_storage"
      },
      {
        "astId": 144,
        "contract": "contracts/protocol/periphery/V2Migrator.sol:V2Migrator",
        "label": "__gap",
        "offset": 0,
        "slot": "51",
        "type": "t_array(t_uint256)50_storage"
      },
      {
        "astId": 264,
        "contract": "contracts/protocol/periphery/V2Migrator.sol:V2Migrator",
        "label": "_roles",
        "offset": 0,
        "slot": "101",
        "type": "t_mapping(t_bytes32,t_struct(RoleData)260_storage)"
      },
      {
        "astId": 509,
        "contract": "contracts/protocol/periphery/V2Migrator.sol:V2Migrator",
        "label": "__gap",
        "offset": 0,
        "slot": "102",
        "type": "t_array(t_uint256)49_storage"
      },
      {
        "astId": 4201,
        "contract": "contracts/protocol/periphery/V2Migrator.sol:V2Migrator",
        "label": "_paused",
        "offset": 0,
        "slot": "151",
        "type": "t_bool"
      },
      {
        "astId": 4290,
        "contract": "contracts/protocol/periphery/V2Migrator.sol:V2Migrator",
        "label": "__gap",
        "offset": 0,
        "slot": "152",
        "type": "t_array(t_uint256)49_storage"
      },
      {
        "astId": 4299,
        "contract": "contracts/protocol/periphery/V2Migrator.sol:V2Migrator",
        "label": "_notEntered",
        "offset": 0,
        "slot": "201",
        "type": "t_bool"
      },
      {
        "astId": 4340,
        "contract": "contracts/protocol/periphery/V2Migrator.sol:V2Migrator",
        "label": "__gap",
        "offset": 0,
        "slot": "202",
        "type": "t_array(t_uint256)49_storage"
      },
      {
        "astId": 9348,
        "contract": "contracts/protocol/periphery/V2Migrator.sol:V2Migrator",
        "label": "__gap1",
        "offset": 0,
        "slot": "251",
        "type": "t_array(t_uint256)50_storage"
      },
      {
        "astId": 9352,
        "contract": "contracts/protocol/periphery/V2Migrator.sol:V2Migrator",
        "label": "__gap2",
        "offset": 0,
        "slot": "301",
        "type": "t_array(t_uint256)50_storage"
      },
      {
        "astId": 9356,
        "contract": "contracts/protocol/periphery/V2Migrator.sol:V2Migrator",
        "label": "__gap3",
        "offset": 0,
        "slot": "351",
        "type": "t_array(t_uint256)50_storage"
      },
      {
        "astId": 9360,
        "contract": "contracts/protocol/periphery/V2Migrator.sol:V2Migrator",
        "label": "__gap4",
        "offset": 0,
        "slot": "401",
        "type": "t_array(t_uint256)50_storage"
      },
      {
        "astId": 22419,
        "contract": "contracts/protocol/periphery/V2Migrator.sol:V2Migrator",
        "label": "config",
        "offset": 0,
        "slot": "451",
        "type": "t_contract(GoldfinchConfig)13851"
      },
      {
        "astId": 22426,
        "contract": "contracts/protocol/periphery/V2Migrator.sol:V2Migrator",
        "label": "borrowerContracts",
        "offset": 0,
        "slot": "452",
        "type": "t_mapping(t_address,t_address)"
      }
    ],
    "types": {
      "t_address": {
        "encoding": "inplace",
        "label": "address",
        "numberOfBytes": "20"
      },
      "t_array(t_bytes32)dyn_storage": {
        "base": "t_bytes32",
        "encoding": "dynamic_array",
        "label": "bytes32[]",
        "numberOfBytes": "32"
      },
      "t_array(t_uint256)49_storage": {
        "base": "t_uint256",
        "encoding": "inplace",
        "label": "uint256[49]",
        "numberOfBytes": "1568"
      },
      "t_array(t_uint256)50_storage": {
        "base": "t_uint256",
        "encoding": "inplace",
        "label": "uint256[50]",
        "numberOfBytes": "1600"
      },
      "t_bool": {
        "encoding": "inplace",
        "label": "bool",
        "numberOfBytes": "1"
      },
      "t_bytes32": {
        "encoding": "inplace",
        "label": "bytes32",
        "numberOfBytes": "32"
      },
      "t_contract(GoldfinchConfig)13851": {
        "encoding": "inplace",
        "label": "contract GoldfinchConfig",
        "numberOfBytes": "20"
      },
      "t_mapping(t_address,t_address)": {
        "encoding": "mapping",
        "key": "t_address",
        "label": "mapping(address => address)",
        "numberOfBytes": "32",
        "value": "t_address"
      },
      "t_mapping(t_bytes32,t_struct(RoleData)260_storage)": {
        "encoding": "mapping",
        "key": "t_bytes32",
        "label": "mapping(bytes32 => struct AccessControlUpgradeSafe.RoleData)",
        "numberOfBytes": "32",
        "value": "t_struct(RoleData)260_storage"
      },
      "t_mapping(t_bytes32,t_uint256)": {
        "encoding": "mapping",
        "key": "t_bytes32",
        "label": "mapping(bytes32 => uint256)",
        "numberOfBytes": "32",
        "value": "t_uint256"
      },
      "t_struct(AddressSet)3976_storage": {
        "encoding": "inplace",
        "label": "struct EnumerableSet.AddressSet",
        "members": [
          {
            "astId": 3975,
            "contract": "contracts/protocol/periphery/V2Migrator.sol:V2Migrator",
            "label": "_inner",
            "offset": 0,
            "slot": "0",
            "type": "t_struct(Set)3796_storage"
          }
        ],
        "numberOfBytes": "64"
      },
      "t_struct(RoleData)260_storage": {
        "encoding": "inplace",
        "label": "struct AccessControlUpgradeSafe.RoleData",
        "members": [
          {
            "astId": 257,
            "contract": "contracts/protocol/periphery/V2Migrator.sol:V2Migrator",
            "label": "members",
            "offset": 0,
            "slot": "0",
            "type": "t_struct(AddressSet)3976_storage"
          },
          {
            "astId": 259,
            "contract": "contracts/protocol/periphery/V2Migrator.sol:V2Migrator",
            "label": "adminRole",
            "offset": 0,
            "slot": "2",
            "type": "t_bytes32"
          }
        ],
        "numberOfBytes": "96"
      },
      "t_struct(Set)3796_storage": {
        "encoding": "inplace",
        "label": "struct EnumerableSet.Set",
        "members": [
          {
            "astId": 3791,
            "contract": "contracts/protocol/periphery/V2Migrator.sol:V2Migrator",
            "label": "_values",
            "offset": 0,
            "slot": "0",
            "type": "t_array(t_bytes32)dyn_storage"
          },
          {
            "astId": 3795,
            "contract": "contracts/protocol/periphery/V2Migrator.sol:V2Migrator",
            "label": "_indexes",
            "offset": 0,
            "slot": "1",
            "type": "t_mapping(t_bytes32,t_uint256)"
          }
        ],
        "numberOfBytes": "64"
      },
      "t_uint256": {
        "encoding": "inplace",
        "label": "uint256",
        "numberOfBytes": "32"
      }
    }
  }
}