{
  "address": "0xc35c28De1eC0340A2E39514e6B7a701Ff542B8ed",
  "abi": [
    {
      "anonymous": false,
      "inputs": [
        {
          "indexed": true,
          "internalType": "address",
          "name": "owner",
          "type": "address"
        },
        {
          "indexed": true,
          "internalType": "address",
          "name": "approved",
          "type": "address"
        },
        {
          "indexed": true,
          "internalType": "uint256",
          "name": "tokenId",
          "type": "uint256"
        }
      ],
      "name": "Approval",
      "type": "event"
    },
    {
      "anonymous": false,
      "inputs": [
        {
          "indexed": true,
          "internalType": "address",
          "name": "owner",
          "type": "address"
        },
        {
          "indexed": true,
          "internalType": "address",
          "name": "operator",
          "type": "address"
        },
        {
          "indexed": false,
          "internalType": "bool",
          "name": "approved",
          "type": "bool"
        }
      ],
      "name": "ApprovalForAll",
      "type": "event"
    },
    {
      "anonymous": false,
      "inputs": [
        {
          "indexed": false,
          "internalType": "address",
          "name": "account",
          "type": "address"
        }
      ],
      "name": "Paused",
      "type": "event"
    },
    {
      "anonymous": false,
      "inputs": [
        {
          "indexed": true,
          "internalType": "bytes32",
          "name": "role",
          "type": "bytes32"
        },
        {
          "indexed": true,
          "internalType": "address",
          "name": "account",
          "type": "address"
        },
        {
          "indexed": true,
          "internalType": "address",
          "name": "sender",
          "type": "address"
        }
      ],
      "name": "RoleGranted",
      "type": "event"
    },
    {
      "anonymous": false,
      "inputs": [
        {
          "indexed": true,
          "internalType": "bytes32",
          "name": "role",
          "type": "bytes32"
        },
        {
          "indexed": true,
          "internalType": "address",
          "name": "account",
          "type": "address"
        },
        {
          "indexed": true,
          "internalType": "address",
          "name": "sender",
          "type": "address"
        }
      ],
      "name": "RoleRevoked",
      "type": "event"
    },
    {
      "anonymous": false,
      "inputs": [
        {
          "indexed": true,
          "internalType": "address",
          "name": "from",
          "type": "address"
        },
        {
          "indexed": true,
          "internalType": "address",
          "name": "to",
          "type": "address"
        },
        {
          "indexed": true,
          "internalType": "uint256",
          "name": "tokenId",
          "type": "uint256"
        }
      ],
      "name": "Transfer",
      "type": "event"
    },
    {
      "anonymous": false,
      "inputs": [
        {
          "indexed": false,
          "internalType": "address",
          "name": "account",
          "type": "address"
        }
      ],
      "name": "Unpaused",
      "type": "event"
    },
    {
      "inputs": [],
      "name": "DEFAULT_ADMIN_ROLE",
      "outputs": [
        {
          "internalType": "bytes32",
          "name": "",
          "type": "bytes32"
        }
      ],
      "stateMutability": "view",
      "type": "function"
    },
    {
      "inputs": [],
      "name": "MINTER_ROLE",
      "outputs": [
        {
          "internalType": "bytes32",
          "name": "",
          "type": "bytes32"
        }
      ],
      "stateMutability": "view",
      "type": "function"
    },
    {
      "inputs": [],
      "name": "OWNER_ROLE",
      "outputs": [
        {
          "internalType": "bytes32",
          "name": "",
          "type": "bytes32"
        }
      ],
      "stateMutability": "view",
      "type": "function"
    },
    {
      "inputs": [],
      "name": "PAUSER_ROLE",
      "outputs": [
        {
          "internalType": "bytes32",
          "name": "",
          "type": "bytes32"
        }
      ],
      "stateMutability": "view",
      "type": "function"
    },
    {
      "inputs": [
        {
          "internalType": "address",
          "name": "owner",
          "type": "address"
        },
        {
          "internalType": "contract GoldfinchConfig",
          "name": "_config",
          "type": "address"
        }
      ],
      "name": "__initialize__",
      "outputs": [],
      "stateMutability": "nonpayable",
      "type": "function"
    },
    {
      "inputs": [],
      "name": "_tokenIdTracker",
      "outputs": [
        {
          "internalType": "uint256",
          "name": "_value",
          "type": "uint256"
        }
      ],
      "stateMutability": "view",
      "type": "function"
    },
    {
      "inputs": [
        {
          "internalType": "address",
          "name": "",
          "type": "address"
        },
        {
          "internalType": "uint256",
          "name": "",
          "type": "uint256"
        }
      ],
      "name": "approve",
      "outputs": [],
      "stateMutability": "nonpayable",
      "type": "function"
    },
    {
      "inputs": [
        {
          "internalType": "address",
          "name": "owner",
          "type": "address"
        }
      ],
      "name": "balanceOf",
      "outputs": [
        {
          "internalType": "uint256",
          "name": "",
          "type": "uint256"
        }
      ],
      "stateMutability": "view",
      "type": "function"
    },
    {
      "inputs": [],
      "name": "baseURI",
      "outputs": [
        {
          "internalType": "string",
          "name": "",
          "type": "string"
        }
      ],
      "stateMutability": "view",
      "type": "function"
    },
    {
      "inputs": [
        {
          "internalType": "uint256",
          "name": "tokenId",
          "type": "uint256"
        }
      ],
      "name": "burn",
      "outputs": [],
      "stateMutability": "nonpayable",
      "type": "function"
    },
    {
      "inputs": [
        {
          "internalType": "uint256",
          "name": "tokenId",
          "type": "uint256"
        }
      ],
      "name": "getApproved",
      "outputs": [
        {
          "internalType": "address",
          "name": "",
          "type": "address"
        }
      ],
      "stateMutability": "view",
      "type": "function"
    },
    {
      "inputs": [
        {
          "internalType": "bytes32",
          "name": "role",
          "type": "bytes32"
        }
      ],
      "name": "getRoleAdmin",
      "outputs": [
        {
          "internalType": "bytes32",
          "name": "",
          "type": "bytes32"
        }
      ],
      "stateMutability": "view",
      "type": "function"
    },
    {
      "inputs": [
        {
          "internalType": "bytes32",
          "name": "role",
          "type": "bytes32"
        },
        {
          "internalType": "uint256",
          "name": "index",
          "type": "uint256"
        }
      ],
      "name": "getRoleMember",
      "outputs": [
        {
          "internalType": "address",
          "name": "",
          "type": "address"
        }
      ],
      "stateMutability": "view",
      "type": "function"
    },
    {
      "inputs": [
        {
          "internalType": "bytes32",
          "name": "role",
          "type": "bytes32"
        }
      ],
      "name": "getRoleMemberCount",
      "outputs": [
        {
          "internalType": "uint256",
          "name": "",
          "type": "uint256"
        }
      ],
      "stateMutability": "view",
      "type": "function"
    },
    {
      "inputs": [
        {
          "internalType": "bytes32",
          "name": "role",
          "type": "bytes32"
        },
        {
          "internalType": "address",
          "name": "account",
          "type": "address"
        }
      ],
      "name": "grantRole",
      "outputs": [],
      "stateMutability": "nonpayable",
      "type": "function"
    },
    {
      "inputs": [
        {
          "internalType": "bytes32",
          "name": "role",
          "type": "bytes32"
        },
        {
          "internalType": "address",
          "name": "account",
          "type": "address"
        }
      ],
      "name": "hasRole",
      "outputs": [
        {
          "internalType": "bool",
          "name": "",
          "type": "bool"
        }
      ],
      "stateMutability": "view",
      "type": "function"
    },
    {
      "inputs": [],
      "name": "isAdmin",
      "outputs": [
        {
          "internalType": "bool",
          "name": "",
          "type": "bool"
        }
      ],
      "stateMutability": "view",
      "type": "function"
    },
    {
      "inputs": [
        {
          "internalType": "address",
          "name": "owner",
          "type": "address"
        },
        {
          "internalType": "address",
          "name": "operator",
          "type": "address"
        }
      ],
      "name": "isApprovedForAll",
      "outputs": [
        {
          "internalType": "bool",
          "name": "",
          "type": "bool"
        }
      ],
      "stateMutability": "view",
      "type": "function"
    },
    {
      "inputs": [
        {
          "internalType": "address",
          "name": "receiver",
          "type": "address"
        }
      ],
      "name": "mint",
      "outputs": [
        {
          "internalType": "uint256",
          "name": "",
          "type": "uint256"
        }
      ],
      "stateMutability": "nonpayable",
      "type": "function"
    },
    {
      "inputs": [],
      "name": "name",
      "outputs": [
        {
          "internalType": "string",
          "name": "",
          "type": "string"
        }
      ],
      "stateMutability": "view",
      "type": "function"
    },
    {
      "inputs": [
        {
          "internalType": "uint256",
          "name": "tokenId",
          "type": "uint256"
        }
      ],
      "name": "ownerOf",
      "outputs": [
        {
          "internalType": "address",
          "name": "",
          "type": "address"
        }
      ],
      "stateMutability": "view",
      "type": "function"
    },
    {
      "inputs": [],
      "name": "pause",
      "outputs": [],
      "stateMutability": "nonpayable",
      "type": "function"
    },
    {
      "inputs": [],
      "name": "paused",
      "outputs": [
        {
          "internalType": "bool",
          "name": "",
          "type": "bool"
        }
      ],
      "stateMutability": "view",
      "type": "function"
    },
    {
      "inputs": [
        {
          "internalType": "bytes32",
          "name": "role",
          "type": "bytes32"
        },
        {
          "internalType": "address",
          "name": "account",
          "type": "address"
        }
      ],
      "name": "renounceRole",
      "outputs": [],
      "stateMutability": "nonpayable",
      "type": "function"
    },
    {
      "inputs": [
        {
          "internalType": "bytes32",
          "name": "role",
          "type": "bytes32"
        },
        {
          "internalType": "address",
          "name": "account",
          "type": "address"
        }
      ],
      "name": "revokeRole",
      "outputs": [],
      "stateMutability": "nonpayable",
      "type": "function"
    },
    {
      "inputs": [
        {
          "internalType": "address",
          "name": "",
          "type": "address"
        },
        {
          "internalType": "address",
          "name": "",
          "type": "address"
        },
        {
          "internalType": "uint256",
          "name": "",
          "type": "uint256"
        }
      ],
      "name": "safeTransferFrom",
      "outputs": [],
      "stateMutability": "nonpayable",
      "type": "function"
    },
    {
      "inputs": [
        {
          "internalType": "address",
          "name": "",
          "type": "address"
        },
        {
          "internalType": "address",
          "name": "",
          "type": "address"
        },
        {
          "internalType": "uint256",
          "name": "",
          "type": "uint256"
        },
        {
          "internalType": "bytes",
          "name": "",
          "type": "bytes"
        }
      ],
      "name": "safeTransferFrom",
      "outputs": [],
      "stateMutability": "nonpayable",
      "type": "function"
    },
    {
      "inputs": [
        {
          "internalType": "address",
          "name": "",
          "type": "address"
        },
        {
          "internalType": "bool",
          "name": "",
          "type": "bool"
        }
      ],
      "name": "setApprovalForAll",
      "outputs": [],
      "stateMutability": "nonpayable",
      "type": "function"
    },
    {
      "inputs": [
        {
          "internalType": "bytes4",
          "name": "interfaceId",
          "type": "bytes4"
        }
      ],
      "name": "supportsInterface",
      "outputs": [
        {
          "internalType": "bool",
          "name": "",
          "type": "bool"
        }
      ],
      "stateMutability": "view",
      "type": "function"
    },
    {
      "inputs": [],
      "name": "symbol",
      "outputs": [
        {
          "internalType": "string",
          "name": "",
          "type": "string"
        }
      ],
      "stateMutability": "view",
      "type": "function"
    },
    {
      "inputs": [
        {
          "internalType": "uint256",
          "name": "index",
          "type": "uint256"
        }
      ],
      "name": "tokenByIndex",
      "outputs": [
        {
          "internalType": "uint256",
          "name": "",
          "type": "uint256"
        }
      ],
      "stateMutability": "view",
      "type": "function"
    },
    {
      "inputs": [
        {
          "internalType": "address",
          "name": "owner",
          "type": "address"
        },
        {
          "internalType": "uint256",
          "name": "index",
          "type": "uint256"
        }
      ],
      "name": "tokenOfOwnerByIndex",
      "outputs": [
        {
          "internalType": "uint256",
          "name": "",
          "type": "uint256"
        }
      ],
      "stateMutability": "view",
      "type": "function"
    },
    {
      "inputs": [
        {
          "internalType": "uint256",
          "name": "tokenId",
          "type": "uint256"
        }
      ],
      "name": "tokenURI",
      "outputs": [
        {
          "internalType": "string",
          "name": "",
          "type": "string"
        }
      ],
      "stateMutability": "view",
      "type": "function"
    },
    {
      "inputs": [],
      "name": "totalSupply",
      "outputs": [
        {
          "internalType": "uint256",
          "name": "",
          "type": "uint256"
        }
      ],
      "stateMutability": "view",
      "type": "function"
    },
    {
      "inputs": [
        {
          "internalType": "address",
          "name": "",
          "type": "address"
        },
        {
          "internalType": "address",
          "name": "",
          "type": "address"
        },
        {
          "internalType": "uint256",
          "name": "",
          "type": "uint256"
        }
      ],
      "name": "transferFrom",
      "outputs": [],
      "stateMutability": "nonpayable",
      "type": "function"
    },
    {
      "inputs": [],
      "name": "unpause",
      "outputs": [],
      "stateMutability": "nonpayable",
      "type": "function"
    }
  ],
  "transactionHash": "0xb9946442dc8f52204096960b79a3118c44252330bb5db1420510ab6fdcfee76a",
  "args": [],
  "solcInputHash": "17fd27548ed6466074d1f288a8dc8836",
  "bytecode": "0x608060405234801561001057600080fd5b5061239b806100206000396000f3fe608060405234801561001057600080fd5b50600436106101dc5760003560e01c806370a0823111610105578063b6f8fd401161009d578063b6f8fd4014610396578063b88d4fde146103a9578063c87b56dd146103b7578063ca15c873146103ca578063d5391393146103dd578063d547741f146103e5578063e58378bb146103f8578063e63ab1e914610400578063e985e9c514610408576101dc565b806370a08231146103275780638456cb591461033a5780639010d07c1461034257806391d148541461035557806395d89b411461036857806398bcede914610370578063a217fddf14610378578063a22cb46514610380578063b6db75a01461038e576101dc565b806336568abe1161017857806336568abe146102b05780633f4ba83a146102c357806342842e0e1461026957806342966c68146102cb5780634f6ccce7146102de5780635c975abb146102f15780636352211e146102f95780636a6278421461030c5780636c0360eb1461031f576101dc565b806301ffc9a7146101e157806306fdde031461020a578063081812fc1461021f578063095ea7b31461023f57806318160ddd1461025457806323b872dd14610269578063248a9ca3146102775780632f2ff15d1461028a5780632f745c591461029d575b600080fd5b6101f46101ef366004611c5f565b61041b565b6040516102019190611d1c565b60405180910390f35b61021261043e565b6040516102019190611d30565b61023261022d366004611c02565b6104d4565b6040516102019190611d08565b61025261024d366004611bd7565b610520565b005b61025c610538565b6040516102019190611d27565b61025261024d366004611a8c565b61025c610285366004611c02565b610549565b610252610298366004611c1a565b61055e565b61025c6102ab366004611bd7565b6105a6565b6102526102be366004611c1a565b6105d1565b610252610613565b6102526102d9366004611c02565b610653565b61025c6102ec366004611c02565b6106a5565b6101f46106bb565b610232610307366004611c02565b6106c4565b61025c61031a366004611a1c565b6106ec565b61021261075f565b61025c610335366004611a1c565b6107c0565b610252610809565b610232610350366004611c3e565b610847565b6101f4610363366004611c1a565b61085f565b610212610877565b61025c6108d8565b61025c6108df565b61025261024d366004611b94565b6101f46108e4565b6102526103a4366004611bc5565b6108fe565b61025261024d366004611acc565b6102126103c5366004611c02565b610ac1565b61025c6103d8366004611c02565b610c0b565b61025c610c22565b6102526103f3366004611c1a565b610c46565b61025c610c80565b61025c610c92565b6101f4610416366004611a54565b610ca4565b6001600160e01b0319811660009081526097602052604090205460ff165b919050565b60ce8054604080516020601f60026000196101006001881615020190951694909404938401819004810282018101909252828152606093909290918301828280156104ca5780601f1061049f576101008083540402835291602001916104ca565b820191906000526020600020905b8154815290600101906020018083116104ad57829003601f168201915b5050505050905090565b60006104df82610cd2565b6105045760405162461bcd60e51b81526004016104fb906120bd565b60405180910390fd5b50600090815260cc60205260409020546001600160a01b031690565b60405162461bcd60e51b81526004016104fb906121c2565b600061054460ca610cdf565b905090565b60009081526065602052604090206002015490565b60008281526065602052604090206002015461057c90610363610cea565b6105985760405162461bcd60e51b81526004016104fb90611df0565b6105a28282610cee565b5050565b6001600160a01b038216600090815260c9602052604081206105c89083610d57565b90505b92915050565b6105d9610cea565b6001600160a01b0316816001600160a01b0316146106095760405162461bcd60e51b81526004016104fb90612242565b6105a28282610d63565b61062d600080516020612320833981519152610363610cea565b6106495760405162461bcd60e51b81526004016104fb906121e4565b610651610dcc565b565b61019154610669906001600160a01b0316610e38565b6001600160a01b0316336001600160a01b0316146106995760405162461bcd60e51b81526004016104fb906121a6565b6106a281610e43565b50565b6000806106b360ca84610f10565b509392505050565b60fb5460ff1690565b60006105cb826040518060600160405280602981526020016122f76029913960ca9190610f2c565b61019154600090610705906001600160a01b0316610e38565b6001600160a01b0316336001600160a01b0316146107355760405162461bcd60e51b81526004016104fb906121a6565b61074061015f610f43565b6107548261074f61015f610f4c565b610f50565b6105cb61015f610f4c565b60d18054604080516020601f60026000196101006001881615020190951694909404938401819004810282018101909252828152606093909290918301828280156104ca5780601f1061049f576101008083540402835291602001916104ca565b60006001600160a01b0382166107e85760405162461bcd60e51b81526004016104fb90611ffc565b6001600160a01b038216600090815260c9602052604090206105cb90610cdf565b610823600080516020612320833981519152610363610cea565b61083f5760405162461bcd60e51b81526004016104fb90611f25565b610651611014565b60008281526065602052604081206105c89083610d57565b60008281526065602052604081206105c8908361106d565b60cf8054604080516020601f60026000196101006001881615020190951694909404938401819004810282018101909252828152606093909290918301828280156104ca5780601f1061049f576101008083540402835291602001916104ca565b61015f5481565b600081565b60006105446000805160206122d78339815191523361085f565b600054610100900460ff16806109175750610917611082565b80610925575060005460ff16155b6109415760405162461bcd60e51b81526004016104fb90612109565b600054610100900460ff1615801561096c576000805460ff1961ff0019909116610100171660011790555b6001600160a01b0383161580159061098c57506001600160a01b03821615155b6109a85760405162461bcd60e51b81526004016104fb90611e6d565b6109b0611088565b6109b8611088565b6109c061110a565b610a1060405180606001604052806026815260200161234060269139604051806040016040528060168152602001754746492d53454e494f522d5749544844524157414c5360501b815250611188565b610a1861124e565b610a20611088565b61019180546001600160a01b0319166001600160a01b038416179055610a5460008051602061232083398151915284610598565b610a6c6000805160206122d783398151915284610598565b610a926000805160206123208339815191526000805160206122d78339815191526112da565b610aaa6000805160206122d7833981519152806112da565b8015610abc576000805461ff00191690555b505050565b6060610acc82610cd2565b610ae85760405162461bcd60e51b81526004016104fb90612157565b600082815260d0602090815260409182902080548351601f6002600019610100600186161502019093169290920491820184900484028101840190945280845260609392830182828015610b7d5780601f10610b5257610100808354040283529160200191610b7d565b820191906000526020600020905b815481529060010190602001808311610b6057829003601f168201915b505060d15493945050505060026000196101006001841615020190911604610ba6579050610439565b805115610bd85760d181604051602001610bc1929190611c87565b604051602081830303815290604052915050610439565b60d1610be3846112ef565b604051602001610bf4929190611c87565b604051602081830303815290604052915050919050565b60008181526065602052604081206105cb90610cdf565b7f9f2df0fed2c77648de5860a4cc508cd0818c85b8b8a1ab4ceeef8d981c8956a681565b600082815260656020526040902060020154610c6490610363610cea565b6106095760405162461bcd60e51b81526004016104fb90611f82565b6000805160206122d783398151915281565b60008051602061232083398151915281565b6001600160a01b03918216600090815260cd6020908152604080832093909416825291909152205460ff1690565b60006105cb60ca836113ca565b60006105cb82610f4c565b3390565b6000828152606560205260409020610d0690826113d6565b156105a257610d13610cea565b6001600160a01b0316816001600160a01b0316837f2f8788117e7eff1d82e926ec794901d17c78024a50270940304540a733656f0d60405160405180910390a45050565b60006105c883836113eb565b6000828152606560205260409020610d7b9082611430565b156105a257610d88610cea565b6001600160a01b0316816001600160a01b0316837ff6391f5c32d9c69d2a47ea670b442974b53935d1edc7fd64eb21e047a839171b60405160405180910390a45050565b60fb5460ff16610dee5760405162461bcd60e51b81526004016104fb90611e3f565b60fb805460ff191690557f5db9ee0a495bf2e6ff9c91a7834c1ba4fdd244a5e8aa4e537bd38aeae4b073aa610e21610cea565b604051610e2e9190611d08565b60405180910390a1565b60006105cb82611445565b6000610e4e826106c4565b9050610e5c816000846114c5565b610e676000836114d0565b600082815260d060205260409020546002600019610100600184161502019091160415610ea557600082815260d060205260408120610ea591611945565b6001600160a01b038116600090815260c960205260409020610ec7908361153e565b50610ed360ca8361154a565b5060405182906000906001600160a01b038416907fddf252ad1be2c89b69c2b068fc378daa952ba7f163c4a11628f55a4df523b3ef908390a45050565b6000808080610f1f8686611556565b9097909650945050505050565b6000610f398484846115b2565b90505b9392505050565b80546001019055565b5490565b6001600160a01b038216610f765760405162461bcd60e51b81526004016104fb90612088565b610f7f81610cd2565b15610f9c5760405162461bcd60e51b81526004016104fb90611eee565b610fa8600083836114c5565b6001600160a01b038216600090815260c960205260409020610fca9082611611565b50610fd760ca828461161d565b5060405181906001600160a01b038416906000907fddf252ad1be2c89b69c2b068fc378daa952ba7f163c4a11628f55a4df523b3ef908290a45050565b60fb5460ff16156110375760405162461bcd60e51b81526004016104fb90611fd2565b60fb805460ff191660011790557f62e78cea01bee320cd4e420270b5ea74000d11b0c9f74754ebdbfc544b05a258610e21610cea565b60006105c8836001600160a01b038416611633565b303b1590565b600054610100900460ff16806110a157506110a1611082565b806110af575060005460ff16155b6110cb5760405162461bcd60e51b81526004016104fb90612109565b600054610100900460ff161580156110f6576000805460ff1961ff0019909116610100171660011790555b80156106a2576000805461ff001916905550565b600054610100900460ff16806111235750611123611082565b80611131575060005460ff16155b61114d5760405162461bcd60e51b81526004016104fb90612109565b600054610100900460ff16158015611178576000805460ff1961ff0019909116610100171660011790555b6110f66301ffc9a760e01b61164b565b600054610100900460ff16806111a157506111a1611082565b806111af575060005460ff16155b6111cb5760405162461bcd60e51b81526004016104fb90612109565b600054610100900460ff161580156111f6576000805460ff1961ff0019909116610100171660011790555b82516112099060ce906020860190611989565b50815161121d9060cf906020850190611989565b5061122e6380ac58cd60e01b61164b565b61123e635b5e139f60e01b61164b565b610aaa63780e9d6360e01b61164b565b600054610100900460ff16806112675750611267611082565b80611275575060005460ff16155b6112915760405162461bcd60e51b81526004016104fb90612109565b600054610100900460ff161580156112bc576000805460ff1961ff0019909116610100171660011790555b60fb805460ff1916905580156106a2576000805461ff001916905550565b60009182526065602052604090912060020155565b60608161131457506040805180820190915260018152600360fc1b6020820152610439565b8160005b811561132c57600101600a82049150611318565b60608167ffffffffffffffff8111801561134557600080fd5b506040519080825280601f01601f191660200182016040528015611370576020820181803683370190505b50859350905060001982015b83156113c157600a840660300160f81b8282806001900393508151811061139f57fe5b60200101906001600160f81b031916908160001a905350600a8404935061137c565b50949350505050565b60006105c88383611633565b60006105c8836001600160a01b03841661169a565b8154600090821061140e5760405162461bcd60e51b81526004016104fb90611d63565b82600001828154811061141d57fe5b9060005260206000200154905092915050565b60006105c8836001600160a01b0384166116e4565b604051635c9fcd8560e11b81526000906001600160a01b0383169063b93f9b0a9061147590600e90600401611d27565b60206040518083038186803b15801561148d57600080fd5b505afa1580156114a1573d6000803e3d6000fd5b505050506040513d601f19601f820116820180604052508101906105cb9190611a38565b610abc8383836117aa565b600081815260cc6020526040902080546001600160a01b0319166001600160a01b0384169081179091558190611505826106c4565b6001600160a01b03167f8c5be1e5ebec7d5bd14f71427d1e84f3dd0314c0f7b2291e5b200ac8c7c3b92560405160405180910390a45050565b60006105c883836116e4565b60006105c883836117da565b81546000908190831061157b5760405162461bcd60e51b81526004016104fb90612046565b600084600001848154811061158c57fe5b906000526020600020906002020190508060000154816001015492509250509250929050565b600082815260018401602052604081205482816115e25760405162461bcd60e51b81526004016104fb9190611d30565b508460000160018203815481106115f557fe5b9060005260206000209060020201600101549150509392505050565b60006105c8838361169a565b6000610f3984846001600160a01b0385166118ae565b60009081526001919091016020526040902054151590565b6001600160e01b031980821614156116755760405162461bcd60e51b81526004016104fb90611eb7565b6001600160e01b0319166000908152609760205260409020805460ff19166001179055565b60006116a68383611633565b6116dc575081546001818101845560008481526020808220909301849055845484825282860190935260409020919091556105cb565b5060006105cb565b600081815260018301602052604081205480156117a0578354600019808301919081019060009087908390811061171757fe5b906000526020600020015490508087600001848154811061173457fe5b60009182526020808320909101929092558281526001898101909252604090209084019055865487908061176457fe5b600190038181906000526020600020016000905590558660010160008781526020019081526020016000206000905560019450505050506105cb565b60009150506105cb565b6117b5838383610abc565b6117bd6106bb565b15610abc5760405162461bcd60e51b81526004016104fb90611da5565b600081815260018301602052604081205480156117a0578354600019808301919081019060009087908390811061180d57fe5b906000526020600020906002020190508087600001848154811061182d57fe5b60009182526020808320845460029093020191825560019384015491840191909155835482528983019052604090209084019055865487908061186c57fe5b60008281526020808220600260001990940193840201828155600190810183905592909355888152898201909252604082209190915594506105cb9350505050565b600082815260018401602052604081205480611913575050604080518082018252838152602080820184815286546001818101895560008981528481209551600290930290950191825591519082015586548684528188019092529290912055610f3c565b8285600001600183038154811061192657fe5b9060005260206000209060020201600101819055506000915050610f3c565b50805460018160011615610100020316600290046000825580601f1061196b57506106a2565b601f0160209004906000526020600020908101906106a29190611a07565b828054600181600116156101000203166002900490600052602060002090601f016020900481019282601f106119ca57805160ff19168380011785556119f7565b828001600101855582156119f7579182015b828111156119f75782518255916020019190600101906119dc565b50611a03929150611a07565b5090565b5b80821115611a035760008155600101611a08565b600060208284031215611a2d578081fd5b8135610f3c816122c1565b600060208284031215611a49578081fd5b8151610f3c816122c1565b60008060408385031215611a66578081fd5b8235611a71816122c1565b91506020830135611a81816122c1565b809150509250929050565b600080600060608486031215611aa0578081fd5b8335611aab816122c1565b92506020840135611abb816122c1565b929592945050506040919091013590565b60008060008060808587031215611ae1578081fd5b8435611aec816122c1565b9350602085810135611afd816122c1565b935060408601359250606086013567ffffffffffffffff80821115611b20578384fd5b818801915088601f830112611b33578384fd5b813581811115611b41578485fd5b604051601f8201601f1916810185018381118282101715611b60578687fd5b60405281815283820185018b1015611b76578586fd5b81858501868301379081019093019390935250939692955090935050565b60008060408385031215611ba6578182fd5b8235611bb1816122c1565b915060208301358015158114611a81578182fd5b60008060408385031215611a66578182fd5b60008060408385031215611be9578182fd5b8235611bf4816122c1565b946020939093013593505050565b600060208284031215611c13578081fd5b5035919050565b60008060408385031215611c2c578182fd5b823591506020830135611a81816122c1565b60008060408385031215611c50578182fd5b50508035926020909101359150565b600060208284031215611c70578081fd5b81356001600160e01b031981168114610f3c578182fd5b6000808454600180821660008114611ca65760018114611cbd57611cec565b60ff198316865260028304607f1686019350611cec565b600283048886526020808720875b83811015611ce45781548a820152908501908201611ccb565b505050860193505b5050508351611cff818360208801612291565b01949350505050565b6001600160a01b0391909116815260200190565b901515815260200190565b90815260200190565b6000602082528251806020840152611d4f816040850160208701612291565b601f01601f19169190910160400192915050565b60208082526022908201527f456e756d657261626c655365743a20696e646578206f7574206f6620626f756e604082015261647360f01b606082015260800190565b6020808252602b908201527f4552433732315061757361626c653a20746f6b656e207472616e73666572207760408201526a1a1a5b19481c185d5cd95960aa1b606082015260800190565b6020808252602f908201527f416363657373436f6e74726f6c3a2073656e646572206d75737420626520616e60408201526e0818591b5a5b881d1bc819dc985b9d608a1b606082015260800190565b60208082526014908201527314185d5cd8589b194e881b9bdd081c185d5cd95960621b604082015260600190565b6020808252602a908201527f4f776e657220616e6420636f6e666967206164647265737365732063616e6e6f6040820152697420626520656d70747960b01b606082015260800190565b6020808252601c908201527f4552433136353a20696e76616c696420696e7465726661636520696400000000604082015260600190565b6020808252601c908201527f4552433732313a20746f6b656e20616c7265616479206d696e74656400000000604082015260600190565b6020808252603e908201527f4552433732315072657365744d696e7465725061757365724175746f49643a2060408201527f6d75737420686176652070617573657220726f6c6520746f2070617573650000606082015260800190565b60208082526030908201527f416363657373436f6e74726f6c3a2073656e646572206d75737420626520616e60408201526f2061646d696e20746f207265766f6b6560801b606082015260800190565b60208082526010908201526f14185d5cd8589b194e881c185d5cd95960821b604082015260600190565b6020808252602a908201527f4552433732313a2062616c616e636520717565727920666f7220746865207a65604082015269726f206164647265737360b01b606082015260800190565b60208082526022908201527f456e756d657261626c654d61703a20696e646578206f7574206f6620626f756e604082015261647360f01b606082015260800190565b6020808252818101527f4552433732313a206d696e7420746f20746865207a65726f2061646472657373604082015260600190565b6020808252602c908201527f4552433732313a20617070726f76656420717565727920666f72206e6f6e657860408201526b34b9ba32b73a103a37b5b2b760a11b606082015260800190565b6020808252602e908201527f436f6e747261637420696e7374616e63652068617320616c726561647920626560408201526d195b881a5b9a5d1a585b1a5e995960921b606082015260800190565b6020808252602f908201527f4552433732314d657461646174613a2055524920717565727920666f72206e6f60408201526e3732bc34b9ba32b73a103a37b5b2b760891b606082015260800190565b6020808252600290820152614e4160f01b604082015260600190565b602080825260089082015267111a5cd8589b195960c21b604082015260600190565b602080825260409082018190527f4552433732315072657365744d696e7465725061757365724175746f49643a20908201527f6d75737420686176652070617573657220726f6c6520746f20756e7061757365606082015260800190565b6020808252602f908201527f416363657373436f6e74726f6c3a2063616e206f6e6c792072656e6f756e636560408201526e103937b632b9903337b91039b2b63360891b606082015260800190565b60005b838110156122ac578181015183820152602001612294565b838111156122bb576000848401525b50505050565b6001600160a01b03811681146106a257600080fdfeb19546dff01e856fb3f010c267a7b1c60363cf8a4664e21cc89c26224620214e4552433732313a206f776e657220717565727920666f72206e6f6e6578697374656e7420746f6b656e65d7a28e3265b37a6474929f336521b332c1681b933f6cb9f3376673440d862a476f6c6466696e63682053656e696f72506f6f6c205769746864726177616c20546f6b656e73a2646970667358221220d40a3ddaaacd86f33085e62d54e7fc12e91ba9fdd0fcf9a7bf8240831e60bcd064736f6c634300060c0033",
  "devdoc": {
    "kind": "dev",
    "methods": {
      "balanceOf(address)": {
        "details": "Gets the balance of the specified address.",
        "params": {
          "owner": "address to query the balance of"
        },
        "returns": {
          "_0": "uint256 representing the amount owned by the passed address"
        }
      },
      "baseURI()": {
        "details": "Returns the base URI set via {_setBaseURI}. This will be automatically added as a prefix in {tokenURI} to each token's URI, or to the token ID if no specific URI is set for that token ID."
      },
      "burn(uint256)": {
        "details": "suceeds if and only if called by senior pool"
      },
      "getApproved(uint256)": {
        "details": "Gets the approved address for a token ID, or zero if no address set Reverts if the token ID does not exist.",
        "params": {
          "tokenId": "uint256 ID of the token to query the approval of"
        },
        "returns": {
          "_0": "address currently approved for the given token ID"
        }
      },
      "getRoleAdmin(bytes32)": {
        "details": "Returns the admin role that controls `role`. See {grantRole} and {revokeRole}. To change a role's admin, use {_setRoleAdmin}."
      },
      "getRoleMember(bytes32,uint256)": {
        "details": "Returns one of the accounts that have `role`. `index` must be a value between 0 and {getRoleMemberCount}, non-inclusive. Role bearers are not sorted in any particular way, and their ordering may change at any point. WARNING: When using {getRoleMember} and {getRoleMemberCount}, make sure you perform all queries on the same block. See the following https://forum.openzeppelin.com/t/iterating-over-elements-on-enumerableset-in-openzeppelin-contracts/2296[forum post] for more information."
      },
      "getRoleMemberCount(bytes32)": {
        "details": "Returns the number of accounts that have `role`. Can be used together with {getRoleMember} to enumerate all bearers of a role."
      },
      "grantRole(bytes32,address)": {
        "details": "Grants `role` to `account`. If `account` had not been already granted `role`, emits a {RoleGranted} event. Requirements: - the caller must have ``role``'s admin role."
      },
      "hasRole(bytes32,address)": {
        "details": "Returns `true` if `account` has been granted `role`."
      },
      "isAdmin()": {
        "returns": {
          "_0": "isAdmin True when msg.sender has OWNER_ROLE"
        }
      },
      "isApprovedForAll(address,address)": {
        "details": "Tells whether an operator is approved by a given owner.",
        "params": {
          "operator": "operator address which you want to query the approval of",
          "owner": "owner address which you want to query the approval of"
        },
        "returns": {
          "_0": "bool whether the given operator is approved by the given owner"
        }
      },
      "mint(address)": {
        "details": "succeeds if and only if called by senior pool"
      },
      "name()": {
        "details": "Gets the token name.",
        "returns": {
          "_0": "string representing the token name"
        }
      },
      "ownerOf(uint256)": {
        "details": "Gets the owner of the specified token ID.",
        "params": {
          "tokenId": "uint256 ID of the token to query the owner of"
        },
        "returns": {
          "_0": "address currently marked as the owner of the given token ID"
        }
      },
      "pause()": {
        "details": "Pauses all token transfers. See {ERC721Pausable} and {Pausable-_pause}. Requirements: - the caller must have the `PAUSER_ROLE`."
      },
      "paused()": {
        "details": "Returns true if the contract is paused, and false otherwise."
      },
      "renounceRole(bytes32,address)": {
        "details": "Revokes `role` from the calling account. Roles are often managed via {grantRole} and {revokeRole}: this function's purpose is to provide a mechanism for accounts to lose their privileges if they are compromised (such as when a trusted device is misplaced). If the calling account had been granted `role`, emits a {RoleRevoked} event. Requirements: - the caller must be `account`."
      },
      "revokeRole(bytes32,address)": {
        "details": "Revokes `role` from `account`. If `account` had been granted `role`, emits a {RoleRevoked} event. Requirements: - the caller must have ``role``'s admin role."
      },
      "supportsInterface(bytes4)": {
        "details": "See {IERC165-supportsInterface}. Time complexity O(1), guaranteed to always use less than 30 000 gas."
      },
      "symbol()": {
        "details": "Gets the token symbol.",
        "returns": {
          "_0": "string representing the token symbol"
        }
      },
      "tokenByIndex(uint256)": {
        "details": "Gets the token ID at a given index of all the tokens in this contract Reverts if the index is greater or equal to the total number of tokens.",
        "params": {
          "index": "uint256 representing the index to be accessed of the tokens list"
        },
        "returns": {
          "_0": "uint256 token ID at the given index of the tokens list"
        }
      },
      "tokenOfOwnerByIndex(address,uint256)": {
        "details": "Gets the token ID at a given index of the tokens list of the requested owner.",
        "params": {
          "index": "uint256 representing the index to be accessed of the requested tokens list",
          "owner": "address owning the tokens list to be accessed"
        },
        "returns": {
          "_0": "uint256 token ID at the given index of the tokens list owned by the requested address"
        }
      },
      "tokenURI(uint256)": {
        "details": "Returns the URI for a given token ID. May return an empty string. If a base URI is set (via {_setBaseURI}), it is added as a prefix to the token's own URI (via {_setTokenURI}). If there is a base URI but no token URI, the token's ID will be used as its URI when appending it to the base URI. This pattern for autogenerated token URIs can lead to large gas savings. .Examples |=== |`_setBaseURI()` |`_setTokenURI()` |`tokenURI()` | \"\" | \"\" | \"\" | \"\" | \"token.uri/123\" | \"token.uri/123\" | \"token.uri/\" | \"123\" | \"token.uri/123\" | \"token.uri/\" | \"\" | \"token.uri/<tokenId>\" |=== Requirements: - `tokenId` must exist."
      },
      "totalSupply()": {
        "details": "Gets the total amount of tokens stored by the contract.",
        "returns": {
          "_0": "uint256 representing the total amount of tokens"
        }
      },
      "unpause()": {
        "details": "Unpauses all token transfers. See {ERC721Pausable} and {Pausable-_unpause}. Requirements: - the caller must have the `PAUSER_ROLE`."
      }
    },
    "version": 1
  },
  "userdoc": {
    "kind": "user",
    "methods": {
      "OWNER_ROLE()": {
        "notice": "ID for OWNER_ROLE"
      },
      "burn(uint256)": {
        "notice": "Burn token `tokenId`"
      },
      "isAdmin()": {
        "notice": "Determine whether msg.sender has OWNER_ROLE"
      },
      "mint(address)": {
        "notice": "Can only be called by senior pool or protocol admin"
      }
    },
    "version": 1
  },
  "storageLayout": {
    "storage": [
      {
        "astId": 50,
        "contract": "contracts/protocol/core/WithdrawalRequestToken.sol:WithdrawalRequestToken",
        "label": "initialized",
        "offset": 0,
        "slot": "0",
        "type": "t_bool"
      },
      {
        "astId": 53,
        "contract": "contracts/protocol/core/WithdrawalRequestToken.sol:WithdrawalRequestToken",
        "label": "initializing",
        "offset": 1,
        "slot": "0",
        "type": "t_bool"
      },
      {
        "astId": 118,
        "contract": "contracts/protocol/core/WithdrawalRequestToken.sol:WithdrawalRequestToken",
        "label": "______gap",
        "offset": 0,
        "slot": "1",
        "type": "t_array(t_uint256)50_storage"
      },
      {
        "astId": 43,
        "contract": "contracts/protocol/core/WithdrawalRequestToken.sol:WithdrawalRequestToken",
        "label": "__gap",
        "offset": 0,
        "slot": "51",
        "type": "t_array(t_uint256)50_storage"
      },
      {
        "astId": 163,
        "contract": "contracts/protocol/core/WithdrawalRequestToken.sol:WithdrawalRequestToken",
        "label": "_roles",
        "offset": 0,
        "slot": "101",
        "type": "t_mapping(t_bytes32,t_struct(RoleData)159_storage)"
      },
      {
        "astId": 408,
        "contract": "contracts/protocol/core/WithdrawalRequestToken.sol:WithdrawalRequestToken",
        "label": "__gap",
        "offset": 0,
        "slot": "102",
        "type": "t_array(t_uint256)49_storage"
      },
      {
        "astId": 6866,
        "contract": "contracts/protocol/core/WithdrawalRequestToken.sol:WithdrawalRequestToken",
        "label": "_supportedInterfaces",
        "offset": 0,
        "slot": "151",
        "type": "t_mapping(t_bytes4,t_bool)"
      },
      {
        "astId": 6923,
        "contract": "contracts/protocol/core/WithdrawalRequestToken.sol:WithdrawalRequestToken",
        "label": "__gap",
        "offset": 0,
        "slot": "152",
        "type": "t_array(t_uint256)49_storage"
      },
      {
        "astId": 6973,
        "contract": "contracts/protocol/core/WithdrawalRequestToken.sol:WithdrawalRequestToken",
        "label": "_holderTokens",
        "offset": 0,
        "slot": "201",
        "type": "t_mapping(t_address,t_struct(UintSet)2901_storage)"
      },
      {
        "astId": 6975,
        "contract": "contracts/protocol/core/WithdrawalRequestToken.sol:WithdrawalRequestToken",
        "label": "_tokenOwners",
        "offset": 0,
        "slot": "202",
        "type": "t_struct(UintToAddressMap)2426_storage"
      },
      {
        "astId": 6979,
        "contract": "contracts/protocol/core/WithdrawalRequestToken.sol:WithdrawalRequestToken",
        "label": "_tokenApprovals",
        "offset": 0,
        "slot": "204",
        "type": "t_mapping(t_uint256,t_address)"
      },
      {
        "astId": 6985,
        "contract": "contracts/protocol/core/WithdrawalRequestToken.sol:WithdrawalRequestToken",
        "label": "_operatorApprovals",
        "offset": 0,
        "slot": "205",
        "type": "t_mapping(t_address,t_mapping(t_address,t_bool))"
      },
      {
        "astId": 6987,
        "contract": "contracts/protocol/core/WithdrawalRequestToken.sol:WithdrawalRequestToken",
        "label": "_name",
        "offset": 0,
        "slot": "206",
        "type": "t_string_storage"
      },
      {
        "astId": 6989,
        "contract": "contracts/protocol/core/WithdrawalRequestToken.sol:WithdrawalRequestToken",
        "label": "_symbol",
        "offset": 0,
        "slot": "207",
        "type": "t_string_storage"
      },
      {
        "astId": 6993,
        "contract": "contracts/protocol/core/WithdrawalRequestToken.sol:WithdrawalRequestToken",
        "label": "_tokenURIs",
        "offset": 0,
        "slot": "208",
        "type": "t_mapping(t_uint256,t_string_storage)"
      },
      {
        "astId": 6995,
        "contract": "contracts/protocol/core/WithdrawalRequestToken.sol:WithdrawalRequestToken",
        "label": "_baseURI",
        "offset": 0,
        "slot": "209",
        "type": "t_string_storage"
      },
      {
        "astId": 7901,
        "contract": "contracts/protocol/core/WithdrawalRequestToken.sol:WithdrawalRequestToken",
        "label": "__gap",
        "offset": 0,
        "slot": "210",
        "type": "t_array(t_uint256)41_storage"
      },
      {
        "astId": 3017,
        "contract": "contracts/protocol/core/WithdrawalRequestToken.sol:WithdrawalRequestToken",
        "label": "_paused",
        "offset": 0,
        "slot": "251",
        "type": "t_bool"
      },
      {
        "astId": 3106,
        "contract": "contracts/protocol/core/WithdrawalRequestToken.sol:WithdrawalRequestToken",
        "label": "__gap",
        "offset": 0,
        "slot": "252",
        "type": "t_array(t_uint256)49_storage"
      },
      {
        "astId": 7969,
        "contract": "contracts/protocol/core/WithdrawalRequestToken.sol:WithdrawalRequestToken",
        "label": "__gap",
        "offset": 0,
        "slot": "301",
        "type": "t_array(t_uint256)50_storage"
      },
      {
        "astId": 8001,
        "contract": "contracts/protocol/core/WithdrawalRequestToken.sol:WithdrawalRequestToken",
        "label": "_tokenIdTracker",
        "offset": 0,
        "slot": "351",
        "type": "t_struct(Counter)2106_storage"
      },
      {
        "astId": 8059,
        "contract": "contracts/protocol/core/WithdrawalRequestToken.sol:WithdrawalRequestToken",
        "label": "__gap",
        "offset": 0,
        "slot": "352",
        "type": "t_array(t_uint256)49_storage"
      },
      {
        "astId": 24538,
        "contract": "contracts/protocol/core/WithdrawalRequestToken.sol:WithdrawalRequestToken",
        "label": "config",
        "offset": 0,
        "slot": "401",
        "type": "t_contract(GoldfinchConfig)16882"
      }
    ],
    "types": {
      "t_address": {
        "encoding": "inplace",
        "label": "address",
        "numberOfBytes": "20"
      },
      "t_array(t_bytes32)dyn_storage": {
        "base": "t_bytes32",
        "encoding": "dynamic_array",
        "label": "bytes32[]",
        "numberOfBytes": "32"
      },
      "t_array(t_struct(MapEntry)2154_storage)dyn_storage": {
        "base": "t_struct(MapEntry)2154_storage",
        "encoding": "dynamic_array",
        "label": "struct EnumerableMap.MapEntry[]",
        "numberOfBytes": "32"
      },
      "t_array(t_uint256)41_storage": {
        "base": "t_uint256",
        "encoding": "inplace",
        "label": "uint256[41]",
        "numberOfBytes": "1312"
      },
      "t_array(t_uint256)49_storage": {
        "base": "t_uint256",
        "encoding": "inplace",
        "label": "uint256[49]",
        "numberOfBytes": "1568"
      },
      "t_array(t_uint256)50_storage": {
        "base": "t_uint256",
        "encoding": "inplace",
        "label": "uint256[50]",
        "numberOfBytes": "1600"
      },
      "t_bool": {
        "encoding": "inplace",
        "label": "bool",
        "numberOfBytes": "1"
      },
      "t_bytes32": {
        "encoding": "inplace",
        "label": "bytes32",
        "numberOfBytes": "32"
      },
      "t_bytes4": {
        "encoding": "inplace",
        "label": "bytes4",
        "numberOfBytes": "4"
      },
      "t_contract(GoldfinchConfig)16882": {
        "encoding": "inplace",
        "label": "contract GoldfinchConfig",
        "numberOfBytes": "20"
      },
      "t_mapping(t_address,t_bool)": {
        "encoding": "mapping",
        "key": "t_address",
        "label": "mapping(address => bool)",
        "numberOfBytes": "32",
        "value": "t_bool"
      },
      "t_mapping(t_address,t_mapping(t_address,t_bool))": {
        "encoding": "mapping",
        "key": "t_address",
        "label": "mapping(address => mapping(address => bool))",
        "numberOfBytes": "32",
        "value": "t_mapping(t_address,t_bool)"
      },
      "t_mapping(t_address,t_struct(UintSet)2901_storage)": {
        "encoding": "mapping",
        "key": "t_address",
        "label": "mapping(address => struct EnumerableSet.UintSet)",
        "numberOfBytes": "32",
        "value": "t_struct(UintSet)2901_storage"
      },
      "t_mapping(t_bytes32,t_struct(RoleData)159_storage)": {
        "encoding": "mapping",
        "key": "t_bytes32",
        "label": "mapping(bytes32 => struct AccessControlUpgradeSafe.RoleData)",
        "numberOfBytes": "32",
        "value": "t_struct(RoleData)159_storage"
      },
      "t_mapping(t_bytes32,t_uint256)": {
        "encoding": "mapping",
        "key": "t_bytes32",
        "label": "mapping(bytes32 => uint256)",
        "numberOfBytes": "32",
        "value": "t_uint256"
      },
      "t_mapping(t_bytes4,t_bool)": {
        "encoding": "mapping",
        "key": "t_bytes4",
        "label": "mapping(bytes4 => bool)",
        "numberOfBytes": "32",
        "value": "t_bool"
      },
      "t_mapping(t_uint256,t_address)": {
        "encoding": "mapping",
        "key": "t_uint256",
        "label": "mapping(uint256 => address)",
        "numberOfBytes": "32",
        "value": "t_address"
      },
      "t_mapping(t_uint256,t_string_storage)": {
        "encoding": "mapping",
        "key": "t_uint256",
        "label": "mapping(uint256 => string)",
        "numberOfBytes": "32",
        "value": "t_string_storage"
      },
      "t_string_storage": {
        "encoding": "bytes",
        "label": "string",
        "numberOfBytes": "32"
      },
      "t_struct(AddressSet)2792_storage": {
        "encoding": "inplace",
        "label": "struct EnumerableSet.AddressSet",
        "members": [
          {
            "astId": 2791,
            "contract": "contracts/protocol/core/WithdrawalRequestToken.sol:WithdrawalRequestToken",
            "label": "_inner",
            "offset": 0,
            "slot": "0",
            "type": "t_struct(Set)2612_storage"
          }
        ],
        "numberOfBytes": "64"
      },
      "t_struct(Counter)2106_storage": {
        "encoding": "inplace",
        "label": "struct Counters.Counter",
        "members": [
          {
            "astId": 2105,
            "contract": "contracts/protocol/core/WithdrawalRequestToken.sol:WithdrawalRequestToken",
            "label": "_value",
            "offset": 0,
            "slot": "0",
            "type": "t_uint256"
          }
        ],
        "numberOfBytes": "32"
      },
      "t_struct(Map)2162_storage": {
        "encoding": "inplace",
        "label": "struct EnumerableMap.Map",
        "members": [
          {
            "astId": 2157,
            "contract": "contracts/protocol/core/WithdrawalRequestToken.sol:WithdrawalRequestToken",
            "label": "_entries",
            "offset": 0,
            "slot": "0",
            "type": "t_array(t_struct(MapEntry)2154_storage)dyn_storage"
          },
          {
            "astId": 2161,
            "contract": "contracts/protocol/core/WithdrawalRequestToken.sol:WithdrawalRequestToken",
            "label": "_indexes",
            "offset": 0,
            "slot": "1",
            "type": "t_mapping(t_bytes32,t_uint256)"
          }
        ],
        "numberOfBytes": "64"
      },
      "t_struct(MapEntry)2154_storage": {
        "encoding": "inplace",
        "label": "struct EnumerableMap.MapEntry",
        "members": [
          {
            "astId": 2151,
            "contract": "contracts/protocol/core/WithdrawalRequestToken.sol:WithdrawalRequestToken",
            "label": "_key",
            "offset": 0,
            "slot": "0",
            "type": "t_bytes32"
          },
          {
            "astId": 2153,
            "contract": "contracts/protocol/core/WithdrawalRequestToken.sol:WithdrawalRequestToken",
            "label": "_value",
            "offset": 0,
            "slot": "1",
            "type": "t_bytes32"
          }
        ],
        "numberOfBytes": "64"
      },
      "t_struct(RoleData)159_storage": {
        "encoding": "inplace",
        "label": "struct AccessControlUpgradeSafe.RoleData",
        "members": [
          {
            "astId": 156,
            "contract": "contracts/protocol/core/WithdrawalRequestToken.sol:WithdrawalRequestToken",
            "label": "members",
            "offset": 0,
            "slot": "0",
            "type": "t_struct(AddressSet)2792_storage"
          },
          {
            "astId": 158,
            "contract": "contracts/protocol/core/WithdrawalRequestToken.sol:WithdrawalRequestToken",
            "label": "adminRole",
            "offset": 0,
            "slot": "2",
            "type": "t_bytes32"
          }
        ],
        "numberOfBytes": "96"
      },
      "t_struct(Set)2612_storage": {
        "encoding": "inplace",
        "label": "struct EnumerableSet.Set",
        "members": [
          {
            "astId": 2607,
            "contract": "contracts/protocol/core/WithdrawalRequestToken.sol:WithdrawalRequestToken",
            "label": "_values",
            "offset": 0,
            "slot": "0",
            "type": "t_array(t_bytes32)dyn_storage"
          },
          {
            "astId": 2611,
            "contract": "contracts/protocol/core/WithdrawalRequestToken.sol:WithdrawalRequestToken",
            "label": "_indexes",
            "offset": 0,
            "slot": "1",
            "type": "t_mapping(t_bytes32,t_uint256)"
          }
        ],
        "numberOfBytes": "64"
      },
      "t_struct(UintSet)2901_storage": {
        "encoding": "inplace",
        "label": "struct EnumerableSet.UintSet",
        "members": [
          {
            "astId": 2900,
            "contract": "contracts/protocol/core/WithdrawalRequestToken.sol:WithdrawalRequestToken",
            "label": "_inner",
            "offset": 0,
            "slot": "0",
            "type": "t_struct(Set)2612_storage"
          }
        ],
        "numberOfBytes": "64"
      },
      "t_struct(UintToAddressMap)2426_storage": {
        "encoding": "inplace",
        "label": "struct EnumerableMap.UintToAddressMap",
        "members": [
          {
            "astId": 2425,
            "contract": "contracts/protocol/core/WithdrawalRequestToken.sol:WithdrawalRequestToken",
            "label": "_inner",
            "offset": 0,
            "slot": "0",
            "type": "t_struct(Map)2162_storage"
          }
        ],
        "numberOfBytes": "64"
      },
      "t_uint256": {
        "encoding": "inplace",
        "label": "uint256",
        "numberOfBytes": "32"
      }
    }
  }
}