{
  "address": "0x41bBc58d821c7f7A11737D12562796d5d911e7e0",
  "abi": [
    {
      "anonymous": false,
      "inputs": [
        {
          "indexed": false,
          "internalType": "address",
          "name": "account",
          "type": "address"
        }
      ],
      "name": "Paused",
      "type": "event"
    },
    {
      "anonymous": false,
      "inputs": [
        {
          "indexed": true,
          "internalType": "bytes32",
          "name": "role",
          "type": "bytes32"
        },
        {
          "indexed": true,
          "internalType": "address",
          "name": "account",
          "type": "address"
        },
        {
          "indexed": true,
          "internalType": "address",
          "name": "sender",
          "type": "address"
        }
      ],
      "name": "RoleGranted",
      "type": "event"
    },
    {
      "anonymous": false,
      "inputs": [
        {
          "indexed": true,
          "internalType": "bytes32",
          "name": "role",
          "type": "bytes32"
        },
        {
          "indexed": true,
          "internalType": "address",
          "name": "account",
          "type": "address"
        },
        {
          "indexed": true,
          "internalType": "address",
          "name": "sender",
          "type": "address"
        }
      ],
      "name": "RoleRevoked",
      "type": "event"
    },
    {
      "anonymous": false,
      "inputs": [
        {
          "indexed": false,
          "internalType": "address",
          "name": "account",
          "type": "address"
        }
      ],
      "name": "Unpaused",
      "type": "event"
    },
    {
      "inputs": [],
      "name": "DEFAULT_ADMIN_ROLE",
      "outputs": [
        {
          "internalType": "bytes32",
          "name": "",
          "type": "bytes32"
        }
      ],
      "stateMutability": "view",
      "type": "function"
    },
    {
      "inputs": [],
      "name": "OWNER_ROLE",
      "outputs": [
        {
          "internalType": "bytes32",
          "name": "",
          "type": "bytes32"
        }
      ],
      "stateMutability": "view",
      "type": "function"
    },
    {
      "inputs": [],
      "name": "PAUSER_ROLE",
      "outputs": [
        {
          "internalType": "bytes32",
          "name": "",
          "type": "bytes32"
        }
      ],
      "stateMutability": "view",
      "type": "function"
    },
    {
      "inputs": [
        {
          "internalType": "address",
          "name": "owner",
          "type": "address"
        }
      ],
      "name": "__BaseUpgradeablePausable__init",
      "outputs": [],
      "stateMutability": "nonpayable",
      "type": "function"
    },
    {
      "inputs": [],
      "name": "__PauserPausable__init",
      "outputs": [],
      "stateMutability": "nonpayable",
      "type": "function"
    },
    {
      "inputs": [
        {
          "internalType": "uint256[]",
          "name": "poolTokenIds",
          "type": "uint256[]"
        }
      ],
      "name": "claimMultipleTranchedPoolZaps",
      "outputs": [],
      "stateMutability": "nonpayable",
      "type": "function"
    },
    {
      "inputs": [
        {
          "internalType": "uint256",
          "name": "poolTokenId",
          "type": "uint256"
        }
      ],
      "name": "claimTranchedPoolZap",
      "outputs": [],
      "stateMutability": "nonpayable",
      "type": "function"
    },
    {
      "inputs": [],
      "name": "config",
      "outputs": [
        {
          "internalType": "contract GoldfinchConfig",
          "name": "",
          "type": "address"
        }
      ],
      "stateMutability": "view",
      "type": "function"
    },
    {
      "inputs": [
        {
          "internalType": "bytes32",
          "name": "role",
          "type": "bytes32"
        }
      ],
      "name": "getRoleAdmin",
      "outputs": [
        {
          "internalType": "bytes32",
          "name": "",
          "type": "bytes32"
        }
      ],
      "stateMutability": "view",
      "type": "function"
    },
    {
      "inputs": [
        {
          "internalType": "bytes32",
          "name": "role",
          "type": "bytes32"
        },
        {
          "internalType": "uint256",
          "name": "index",
          "type": "uint256"
        }
      ],
      "name": "getRoleMember",
      "outputs": [
        {
          "internalType": "address",
          "name": "",
          "type": "address"
        }
      ],
      "stateMutability": "view",
      "type": "function"
    },
    {
      "inputs": [
        {
          "internalType": "bytes32",
          "name": "role",
          "type": "bytes32"
        }
      ],
      "name": "getRoleMemberCount",
      "outputs": [
        {
          "internalType": "uint256",
          "name": "",
          "type": "uint256"
        }
      ],
      "stateMutability": "view",
      "type": "function"
    },
    {
      "inputs": [
        {
          "internalType": "bytes32",
          "name": "role",
          "type": "bytes32"
        },
        {
          "internalType": "address",
          "name": "account",
          "type": "address"
        }
      ],
      "name": "grantRole",
      "outputs": [],
      "stateMutability": "nonpayable",
      "type": "function"
    },
    {
      "inputs": [
        {
          "internalType": "bytes32",
          "name": "role",
          "type": "bytes32"
        },
        {
          "internalType": "address",
          "name": "account",
          "type": "address"
        }
      ],
      "name": "hasRole",
      "outputs": [
        {
          "internalType": "bool",
          "name": "",
          "type": "bool"
        }
      ],
      "stateMutability": "view",
      "type": "function"
    },
    {
      "inputs": [
        {
          "internalType": "address",
          "name": "owner",
          "type": "address"
        },
        {
          "internalType": "contract GoldfinchConfig",
          "name": "_config",
          "type": "address"
        }
      ],
      "name": "initialize",
      "outputs": [],
      "stateMutability": "nonpayable",
      "type": "function"
    },
    {
      "inputs": [],
      "name": "isAdmin",
      "outputs": [
        {
          "internalType": "bool",
          "name": "",
          "type": "bool"
        }
      ],
      "stateMutability": "view",
      "type": "function"
    },
    {
      "inputs": [],
      "name": "pause",
      "outputs": [],
      "stateMutability": "nonpayable",
      "type": "function"
    },
    {
      "inputs": [],
      "name": "paused",
      "outputs": [
        {
          "internalType": "bool",
          "name": "",
          "type": "bool"
        }
      ],
      "stateMutability": "view",
      "type": "function"
    },
    {
      "inputs": [
        {
          "internalType": "bytes32",
          "name": "role",
          "type": "bytes32"
        },
        {
          "internalType": "address",
          "name": "account",
          "type": "address"
        }
      ],
      "name": "renounceRole",
      "outputs": [],
      "stateMutability": "nonpayable",
      "type": "function"
    },
    {
      "inputs": [
        {
          "internalType": "bytes32",
          "name": "role",
          "type": "bytes32"
        },
        {
          "internalType": "address",
          "name": "account",
          "type": "address"
        }
      ],
      "name": "revokeRole",
      "outputs": [],
      "stateMutability": "nonpayable",
      "type": "function"
    },
    {
      "inputs": [
        {
          "internalType": "uint256",
          "name": "",
          "type": "uint256"
        }
      ],
      "name": "tranchedPoolZaps",
      "outputs": [
        {
          "internalType": "address",
          "name": "owner",
          "type": "address"
        },
        {
          "internalType": "uint256",
          "name": "stakingPositionId",
          "type": "uint256"
        }
      ],
      "stateMutability": "view",
      "type": "function"
    },
    {
      "inputs": [],
      "name": "unpause",
      "outputs": [],
      "stateMutability": "nonpayable",
      "type": "function"
    },
    {
      "inputs": [
        {
          "internalType": "uint256[]",
          "name": "poolTokenIds",
          "type": "uint256[]"
        }
      ],
      "name": "unzapMultipleFromTranchedPools",
      "outputs": [],
      "stateMutability": "nonpayable",
      "type": "function"
    },
    {
      "inputs": [
        {
          "internalType": "uint256",
          "name": "poolTokenId",
          "type": "uint256"
        }
      ],
      "name": "unzapToStakingRewards",
      "outputs": [],
      "stateMutability": "nonpayable",
      "type": "function"
    },
    {
      "inputs": [
        {
          "internalType": "uint256",
          "name": "tokenId",
          "type": "uint256"
        },
        {
          "internalType": "contract ITranchedPool",
          "name": "tranchedPool",
          "type": "address"
        },
        {
          "internalType": "uint256",
          "name": "tranche",
          "type": "uint256"
        },
        {
          "internalType": "uint256",
          "name": "fiduAmount",
          "type": "uint256"
        }
      ],
      "name": "zapFiduStakeToTranchedPool",
      "outputs": [
        {
          "internalType": "uint256",
          "name": "poolTokenId",
          "type": "uint256"
        }
      ],
      "stateMutability": "nonpayable",
      "type": "function"
    },
    {
      "inputs": [
        {
          "internalType": "uint256[]",
          "name": "stakingRewardsTokenIds",
          "type": "uint256[]"
        },
        {
          "internalType": "uint256[]",
          "name": "fiduAmounts",
          "type": "uint256[]"
        },
        {
          "internalType": "contract ITranchedPool",
          "name": "tranchedPool",
          "type": "address"
        },
        {
          "internalType": "uint256",
          "name": "tranche",
          "type": "uint256"
        }
      ],
      "name": "zapMultipleToTranchedPool",
      "outputs": [
        {
          "internalType": "uint256[]",
          "name": "poolTokenIds",
          "type": "uint256[]"
        }
      ],
      "stateMutability": "nonpayable",
      "type": "function"
    },
    {
      "inputs": [
        {
          "internalType": "uint256",
          "name": "tokenId",
          "type": "uint256"
        },
        {
          "internalType": "uint256",
          "name": "fiduAmount",
          "type": "uint256"
        },
        {
          "internalType": "uint256",
          "name": "usdcAmount",
          "type": "uint256"
        }
      ],
      "name": "zapStakeToCurve",
      "outputs": [],
      "stateMutability": "nonpayable",
      "type": "function"
    },
    {
      "inputs": [
        {
          "internalType": "uint256",
          "name": "tokenId",
          "type": "uint256"
        },
        {
          "internalType": "contract ITranchedPool",
          "name": "tranchedPool",
          "type": "address"
        },
        {
          "internalType": "uint256",
          "name": "tranche",
          "type": "uint256"
        },
        {
          "internalType": "uint256",
          "name": "usdcAmount",
          "type": "uint256"
        }
      ],
      "name": "zapStakeToTranchedPool",
      "outputs": [
        {
          "internalType": "uint256",
          "name": "poolTokenId",
          "type": "uint256"
        }
      ],
      "stateMutability": "nonpayable",
      "type": "function"
    }
  ],
  "transactionHash": "0x10df424251080938473d0cbfe5954f12e967978c69668c399b031a557a626320",
  "args": [],
  "solcInputHash": "17fd27548ed6466074d1f288a8dc8836",
  "bytecode": "0x608060405234801561001057600080fd5b50613810806100206000396000f3fe608060405234801561001057600080fd5b50600436106101795760003560e01c806379502c55116100d9578063b6db75a011610087578063b6db75a014610305578063ca15c8731461030d578063d547741f14610320578063d68f818414610333578063e58378bb14610346578063e63ab1e91461034e578063f29ab5c41461035657610179565b806379502c55146102945780638456cb59146102a95780639010d07c146102b157806391d14854146102c457806399bc5229146102d75780639d19f9e4146102ea578063a217fddf146102fd57610179565b80633ccd8332116101365780633ccd8332146102165780633f4ba83a14610236578063485cc9551461023e57806348a1f0bb14610251578063526d81f6146102645780635c975abb1461026c5780636872296d1461028157610179565b8063097616a31461017e5780631c75e54814610193578063248a9ca3146101bc5780632f2ff15d146101cf57806336568abe146101e25780633c539a89146101f5575b600080fd5b61019161018c366004612bc6565b610369565b005b6101a66101a1366004612f0c565b6104a2565b6040516101b391906130aa565b60405180910390f35b6101a66101ca366004612d26565b610517565b6101916101dd366004612d3e565b61052c565b6101916101f0366004612d3e565b610570565b610208610203366004612d26565b6105b2565b6040516101b3929190613042565b610229610224366004612c7d565b6105d8565b6040516101b3919061305b565b610191610753565b61019161024c366004612c05565b610793565b61019161025f366004612d26565b610879565b6101916108e1565b61027461096c565b6040516101b3919061309f565b61019161028f366004612c3d565b610975565b61029c610a58565b6040516101b39190612fcf565b610191610a68565b61029c6102bf366004612d62565b610aa6565b6102746102d2366004612d3e565b610ac7565b6101916102e5366004612f6b565b610adf565b6101a66102f8366004612f0c565b610f50565b6101a6610fae565b610274610fb3565b6101a661031b366004612d26565b610fd4565b61019161032e366004612d3e565b610feb565b610191610341366004612d26565b611025565b6101a661107d565b6101a661108f565b610191610364366004612c3d565b6110a1565b600054610100900460ff16806103825750610382611172565b80610390575060005460ff16155b6103b55760405162461bcd60e51b81526004016103ac9061345d565b60405180910390fd5b600054610100900460ff161580156103e0576000805460ff1961ff0019909116610100171660011790555b6001600160a01b0382166104065760405162461bcd60e51b81526004016103ac9061337e565b61040e611178565b6104166111f9565b61041e611285565b61043660008051602061379b83398151915283610566565b61044e6000805160206137bb83398151915283610566565b6104746000805160206137bb83398151915260008051602061379b833981519152611314565b61048c60008051602061379b83398151915280611314565b801561049e576000805461ff00191690555b5050565b60975460009060ff16156104c85760405162461bcd60e51b81526004016103ac906132fb565b60c95460ff166104ea5760405162461bcd60e51b81526004016103ac906135cc565b60c9805460ff1916905561050085858585611329565b905060c9805460ff19166001179055949350505050565b60009081526065602052604090206002015490565b60008281526065602052604090206002015461054a906102d261177c565b6105665760405162461bcd60e51b81526004016103ac906130f5565b61049e8282611780565b61057861177c565b6001600160a01b0316816001600160a01b0316146105a85760405162461bcd60e51b81526004016103ac90613701565b61049e82826117e9565b6101c460205260009081526040902080546001909101546001600160a01b039091169082565b60975460609060ff16156105fe5760405162461bcd60e51b81526004016103ac906132fb565b60c95460ff166106205760405162461bcd60e51b81526004016103ac906135cc565b60c9805460ff191690558584146106495760405162461bcd60e51b81526004016103ac90613409565b8567ffffffffffffffff8111801561066057600080fd5b5060405190808252806020026020018201604052801561068a578160200160208202803683370190505b50905060005b8681101561073b576000811180156106cf57508787600183038181106106b257fe5b905060200201358888838181106106c557fe5b9050602002013511155b156106ec5760405162461bcd60e51b81526004016103ac90613325565b61071c8888838181106106fb57fe5b90506020020135858589898681811061071057fe5b90506020020135611329565b82828151811061072857fe5b6020908102919091010152600101610690565b5060c9805460ff191660011790559695505050505050565b61076d6000805160206137bb8339815191526102d261177c565b6107895760405162461bcd60e51b81526004016103ac906134ab565b610791611852565b565b600054610100900460ff16806107ac57506107ac611172565b806107ba575060005460ff16155b6107d65760405162461bcd60e51b81526004016103ac9061345d565b600054610100900460ff16158015610801576000805460ff1961ff0019909116610100171660011790555b6001600160a01b0383161580159061082157506001600160a01b03821615155b61083d5760405162461bcd60e51b81526004016103ac90613172565b61084683610369565b6101c380546001600160a01b0319166001600160a01b0384161790558015610874576000805461ff00191690555b505050565b60975460ff161561089c5760405162461bcd60e51b81526004016103ac906132fb565b60c95460ff166108be5760405162461bcd60e51b81526004016103ac906135cc565b60c9805460ff191690556108d1816118be565b5060c9805460ff19166001179055565b600054610100900460ff16806108fa57506108fa611172565b80610908575060005460ff16155b6109245760405162461bcd60e51b81526004016103ac9061345d565b600054610100900460ff1615801561094f576000805460ff1961ff0019909116610100171660011790555b6109576111f9565b8015610969576000805461ff00191690555b50565b60975460ff1690565b60975460ff16156109985760405162461bcd60e51b81526004016103ac906132fb565b60c95460ff166109ba5760405162461bcd60e51b81526004016103ac906135cc565b60c9805460ff1916905560005b81811015610a4657600081118015610a0657508282600183038181106109e957fe5b905060200201358383838181106109fc57fe5b9050602002013511155b15610a235760405162461bcd60e51b81526004016103ac90613325565b610a3e838383818110610a3257fe5b905060200201356118be565b6001016109c7565b505060c9805460ff1916600117905550565b6101c3546001600160a01b031681565b610a826000805160206137bb8339815191526102d261177c565b610a9e5760405162461bcd60e51b81526004016103ac906134ab565b610791611ac0565b6000828152606560205260408120610abe9083611b19565b90505b92915050565b6000828152606560205260408120610abe9083611b25565b60975460ff1615610b025760405162461bcd60e51b81526004016103ac906132fb565b60c95460ff16610b245760405162461bcd60e51b81526004016103ac906135cc565b60c9805460ff191690556101c354600090610b47906001600160a01b0316611b3a565b6040516331a9108f60e11b815290915033906001600160a01b03831690636352211e90610b789088906004016130aa565b60206040518083038186803b158015610b9057600080fd5b505afa158015610ba4573d6000803e3d6000fd5b505050506040513d601f19601f82011682018060405250810190610bc89190612be9565b6001600160a01b031614610bee5760405162461bcd60e51b81526004016103ac90613512565b60405163aa04295f60e01b81526000906001600160a01b0383169063aa04295f90610c1d9088906004016130aa565b60206040518083038186803b158015610c3557600080fd5b505afa158015610c49573d6000803e3d6000fd5b505050506040513d601f19601f82011682018060405250810190610c6d9190612ef4565b905060008411610c8f5760405162461bcd60e51b81526004016103ac90613353565b80841115610caf5760405162461bcd60e51b81526004016103ac9061353b565b604051639e2c8a5b60e01b81526001600160a01b03831690639e2c8a5b90610cdd9088908890600401613750565b600060405180830381600087803b158015610cf757600080fd5b505af1158015610d0b573d6000803e3d6000fd5b50506101c354610d309250610d2991506001600160a01b0316611b45565b8386611b50565b8215610d79576101c354610d5890610d50906001600160a01b0316611c4a565b333086611c55565b6101c354610d7990610d72906001600160a01b0316611c4a565b8385611b50565b6040516369d00e7960e01b81526001600160a01b038316906369d00e7990610da990339088908890600401612fe3565b600060405180830381600087803b158015610dc357600080fd5b505af1158015610dd7573d6000803e3d6000fd5b50506101c354610df292506001600160a01b03169050611b45565b6001600160a01b031663dd62ed3e30846040518363ffffffff1660e01b8152600401610e1f929190613004565b60206040518083038186803b158015610e3757600080fd5b505afa158015610e4b573d6000803e3d6000fd5b505050506040513d601f19601f82011682018060405250810190610e6f9190612ef4565b15610e8c5760405162461bcd60e51b81526004016103ac90613603565b6101c354610ea2906001600160a01b0316611c4a565b6001600160a01b031663dd62ed3e30846040518363ffffffff1660e01b8152600401610ecf929190613004565b60206040518083038186803b158015610ee757600080fd5b505afa158015610efb573d6000803e3d6000fd5b505050506040513d601f19601f82011682018060405250810190610f1f9190612ef4565b15610f3c5760405162461bcd60e51b81526004016103ac906134c7565b505060c9805460ff19166001179055505050565b60975460009060ff1615610f765760405162461bcd60e51b81526004016103ac906132fb565b60c95460ff16610f985760405162461bcd60e51b81526004016103ac906135cc565b60c9805460ff1916905561050085858585611c7c565b600081565b6000610fcf60008051602061379b8339815191526102d261177c565b905090565b6000818152606560205260408120610ac190612170565b600082815260656020526040902060020154611009906102d261177c565b6105a85760405162461bcd60e51b81526004016103ac906132ab565b60975460ff16156110485760405162461bcd60e51b81526004016103ac906132fb565b60c95460ff1661106a5760405162461bcd60e51b81526004016103ac906135cc565b60c9805460ff191690556108d18161217b565b60008051602061379b83398151915281565b6000805160206137bb83398151915281565b60975460ff16156110c45760405162461bcd60e51b81526004016103ac906132fb565b60c95460ff166110e65760405162461bcd60e51b81526004016103ac906135cc565b60c9805460ff1916905560005b81811015610a4657600081118015611132575082826001830381811061111557fe5b9050602002013583838381811061112857fe5b9050602002013511155b1561114f5760405162461bcd60e51b81526004016103ac90613325565b61116a83838381811061115e57fe5b9050602002013561217b565b6001016110f3565b303b1590565b600054610100900460ff16806111915750611191611172565b8061119f575060005460ff16155b6111bb5760405162461bcd60e51b81526004016103ac9061345d565b600054610100900460ff16158015610957576000805460ff1961ff0019909116610100171660011790558015610969576000805461ff001916905550565b600054610100900460ff16806112125750611212611172565b80611220575060005460ff16155b61123c5760405162461bcd60e51b81526004016103ac9061345d565b600054610100900460ff16158015611267576000805460ff1961ff0019909116610100171660011790555b6097805460ff191690558015610969576000805461ff001916905550565b600054610100900460ff168061129e575061129e611172565b806112ac575060005460ff16155b6112c85760405162461bcd60e51b81526004016103ac9061345d565b600054610100900460ff161580156112f3576000805460ff1961ff0019909116610100171660011790555b60c9805460ff191660011790558015610969576000805461ff001916905550565b60009182526065602052604090912060020155565b6101c3546000908190611344906001600160a01b0316611b3a565b6101c354909150600090611360906001600160a01b0316612692565b905061136b8661269d565b6113875760405162461bcd60e51b81526004016103ac906136a4565b6040516331a9108f60e11b815233906001600160a01b03841690636352211e906113b5908b906004016130aa565b60206040518083038186803b1580156113cd57600080fd5b505afa1580156113e1573d6000803e3d6000fd5b505050506040513d601f19601f820116820180604052508101906114059190612be9565b6001600160a01b03161461142b5760405162461bcd60e51b81526004016103ac90613512565b61143486612731565b6114505760405162461bcd60e51b81526004016103ac906133da565b600060405163eb02c30160e01b81526001600160a01b0384169063eb02c3019061147e908b906004016130aa565b6101806040518083038186803b15801561149757600080fd5b505afa1580156114ab573d6000803e3d6000fd5b505050506040513d601f19601f820116820180604052508101906114cf9190612d83565b6080015160018111156114de57fe5b146114fb5760405162461bcd60e51b81526004016103ac906131bc565b604051639e2c8a5b60e01b81526001600160a01b03831690639e2c8a5b90611529908a908890600401613750565b600060405180830381600087803b15801561154357600080fd5b505af1158015611557573d6000803e3d6000fd5b5050604051632c018e8960e11b8152600092506001600160a01b03841691506358031d129061158a9088906004016130aa565b602060405180830381600087803b1580156115a457600080fd5b505af11580156115b8573d6000803e3d6000fd5b505050506040513d601f19601f820116820180604052508101906115dc9190612ef4565b6101c354909150611600906115f9906001600160a01b0316611c4a565b8883611b50565b604051631c57762b60e31b81526001600160a01b0388169063e2bbb1589061162e9089908590600401613750565b602060405180830381600087803b15801561164857600080fd5b505af115801561165c573d6000803e3d6000fd5b505050506040513d601f19601f820116820180604052508101906116809190612ef4565b60408051808201825233815260208082018c815260008581526101c4909252929020905181546001600160a01b0319166001600160a01b0391821617825591516001909101556101c3549195506116d79116611c4a565b6001600160a01b031663dd62ed3e30896040518363ffffffff1660e01b8152600401611704929190613004565b60206040518083038186803b15801561171c57600080fd5b505afa158015611730573d6000803e3d6000fd5b505050506040513d601f19601f820116820180604052508101906117549190612ef4565b156117715760405162461bcd60e51b81526004016103ac906134c7565b505050949350505050565b3390565b60008281526065602052604090206117989082612760565b1561049e576117a561177c565b6001600160a01b0316816001600160a01b0316837f2f8788117e7eff1d82e926ec794901d17c78024a50270940304540a733656f0d60405160405180910390a45050565b60008281526065602052604090206118019082612775565b1561049e5761180e61177c565b6001600160a01b0316816001600160a01b0316837ff6391f5c32d9c69d2a47ea670b442974b53935d1edc7fd64eb21e047a839171b60405160405180910390a45050565b60975460ff166118745760405162461bcd60e51b81526004016103ac90613144565b6097805460ff191690557f5db9ee0a495bf2e6ff9c91a7834c1ba4fdd244a5e8aa4e537bd38aeae4b073aa6118a761177c565b6040516118b49190612fcf565b60405180910390a1565b60008181526101c46020526040902080546001600160a01b031633146118f65760405162461bcd60e51b81526004016103ac906133b3565b6101c35460009061190f906001600160a01b031661278a565b9050611919612b07565b60405163463d31d760e11b81526001600160a01b03831690638c7a63ae906119459087906004016130aa565b60a06040518083038186803b15801561195d57600080fd5b505afa158015611971573d6000803e3d6000fd5b505050506040513d601f19601f820116820180604052508101906119959190612e47565b905061199f612b3f565b8151602083015160405163d972e8ad60e01b81526001600160a01b039092169163d972e8ad916119d1916004016130aa565b60a06040518083038186803b1580156119e957600080fd5b505afa1580156119fd573d6000803e3d6000fd5b505050506040513d601f19601f82011682018060405250810190611a219190612ea3565b90508060800151600014158015611a3b5750806080015142115b611a575760405162461bcd60e51b81526004016103ac906131e6565b604051632142170760e11b81526001600160a01b038416906342842e0e90611a8790309033908a9060040161301e565b600060405180830381600087803b158015611aa157600080fd5b505af1158015611ab5573d6000803e3d6000fd5b505050505050505050565b60975460ff1615611ae35760405162461bcd60e51b81526004016103ac906132fb565b6097805460ff191660011790557f62e78cea01bee320cd4e420270b5ea74000d11b0c9f74754ebdbfc544b05a2586118a761177c565b6000610abe8383612795565b6000610abe836001600160a01b0384166127da565b6000610ac1826127f2565b6000610ac182612872565b801580611bd85750604051636eb1769f60e11b81526001600160a01b0384169063dd62ed3e90611b869030908690600401613004565b60206040518083038186803b158015611b9e57600080fd5b505afa158015611bb2573d6000803e3d6000fd5b505050506040513d601f19601f82011682018060405250810190611bd69190612ef4565b155b611bf45760405162461bcd60e51b81526004016103ac9061364e565b6108748363095ea7b360e01b8484604051602401611c13929190613042565b60408051601f198184030181529190526020810180516001600160e01b03166001600160e01b03199093169290921790915261288a565b6000610ac18261296f565b611c76846323b872dd60e01b858585604051602401611c139392919061301e565b50505050565b6101c3546000908190611c97906001600160a01b0316611b3a565b6101c354909150600090611cb3906001600160a01b0316612692565b9050611cbe8661269d565b611cda5760405162461bcd60e51b81526004016103ac906136a4565b6040516331a9108f60e11b815233906001600160a01b03841690636352211e90611d08908b906004016130aa565b60206040518083038186803b158015611d2057600080fd5b505afa158015611d34573d6000803e3d6000fd5b505050506040513d601f19601f82011682018060405250810190611d589190612be9565b6001600160a01b031614611d7e5760405162461bcd60e51b81526004016103ac90613512565b611d8786612731565b611da35760405162461bcd60e51b81526004016103ac906133da565b600060405163eb02c30160e01b81526001600160a01b0384169063eb02c30190611dd1908b906004016130aa565b6101806040518083038186803b158015611dea57600080fd5b505afa158015611dfe573d6000803e3d6000fd5b505050506040513d601f19601f82011682018060405250810190611e229190612d83565b608001516001811115611e3157fe5b14611e4e5760405162461bcd60e51b81526004016103ac906131bc565b60405163855cb21b60e01b81526000906001600160a01b0383169063855cb21b90611e7d9088906004016130aa565b60206040518083038186803b158015611e9557600080fd5b505afa158015611ea9573d6000803e3d6000fd5b505050506040513d601f19601f82011682018060405250810190611ecd9190612ef4565b604051639e2c8a5b60e01b81529091506001600160a01b03841690639e2c8a5b90611efe908b908590600401613750565b600060405180830381600087803b158015611f1857600080fd5b505af1158015611f2c573d6000803e3d6000fd5b5050604051632e1a7d4d60e01b8152600092506001600160a01b0385169150632e1a7d4d90611f5f9089906004016130aa565b602060405180830381600087803b158015611f7957600080fd5b505af1158015611f8d573d6000803e3d6000fd5b505050506040513d601f19601f82011682018060405250810190611fb19190612ef4565b9050858114611fd25760405162461bcd60e51b81526004016103ac9061320a565b6101c354611ff390611fec906001600160a01b0316611c4a565b8988611b50565b604051631c57762b60e31b81526001600160a01b0389169063e2bbb15890612021908a908a90600401613750565b602060405180830381600087803b15801561203b57600080fd5b505af115801561204f573d6000803e3d6000fd5b505050506040513d601f19601f820116820180604052508101906120739190612ef4565b60408051808201825233815260208082018d815260008581526101c4909252929020905181546001600160a01b0319166001600160a01b0391821617825591516001909101556101c3549196506120ca9116611c4a565b6001600160a01b031663dd62ed3e308a6040518363ffffffff1660e01b81526004016120f7929190613004565b60206040518083038186803b15801561210f57600080fd5b505afa158015612123573d6000803e3d6000fd5b505050506040513d601f19601f820116820180604052508101906121479190612ef4565b156121645760405162461bcd60e51b81526004016103ac906134c7565b50505050949350505050565b6000610ac182612987565b60008181526101c46020526040902080546001600160a01b031633146121b35760405162461bcd60e51b81526004016103ac906133b3565b6101c3546000906121cc906001600160a01b031661278a565b90506121d6612b07565b60405163463d31d760e11b81526001600160a01b03831690638c7a63ae906122029087906004016130aa565b60a06040518083038186803b15801561221a57600080fd5b505afa15801561222e573d6000803e3d6000fd5b505050506040513d601f19601f820116820180604052508101906122529190612e47565b805190915061225f612b3f565b602083015160405163d972e8ad60e01b81526001600160a01b0384169163d972e8ad9161228f91906004016130aa565b60a06040518083038186803b1580156122a757600080fd5b505afa1580156122bb573d6000803e3d6000fd5b505050506040513d601f19601f820116820180604052508101906122df9190612ea3565b905080608001516000146123055760405162461bcd60e51b81526004016103ac9061324e565b600080836001600160a01b031663aa2a7c4c896040518263ffffffff1660e01b815260040161233491906130aa565b6040805180830381600087803b15801561234d57600080fd5b505af1158015612361573d6000803e3d6000fd5b505050506040513d601f19601f820116820180604052508101906123859190612f48565b91509150816000146123a95760405162461bcd60e51b81526004016103ac90613436565b600081116123c95760405162461bcd60e51b81526004016103ac90613436565b6101c3546000906123e2906001600160a01b0316612692565b6101c354909150612406906123ff906001600160a01b0316611c4a565b8284611b50565b60405163b6b55f2560e01b81526000906001600160a01b0383169063b6b55f25906124359086906004016130aa565b602060405180830381600087803b15801561244f57600080fd5b505af1158015612463573d6000803e3d6000fd5b505050506040513d601f19601f820116820180604052508101906124879190612ef4565b6101c3549091506000906124a3906001600160a01b0316611b3a565b6101c3549091506124c0906123ff906001600160a01b0316611b45565b60018a015460405163a9f4939d60e01b81526001600160a01b0383169163a9f4939d916124f291908690600401613750565b600060405180830381600087803b15801561250c57600080fd5b505af1158015612520573d6000803e3d6000fd5b50506101c35461253b92506001600160a01b03169050611c4a565b6001600160a01b031663dd62ed3e30856040518363ffffffff1660e01b8152600401612568929190613004565b60206040518083038186803b15801561258057600080fd5b505afa158015612594573d6000803e3d6000fd5b505050506040513d601f19601f820116820180604052508101906125b89190612ef4565b156125d55760405162461bcd60e51b81526004016103ac906134c7565b6101c3546125eb906001600160a01b0316611b45565b6001600160a01b031663dd62ed3e30836040518363ffffffff1660e01b8152600401612618929190613004565b60206040518083038186803b15801561263057600080fd5b505afa158015612644573d6000803e3d6000fd5b505050506040513d601f19601f820116820180604052508101906126689190612ef4565b156126855760405162461bcd60e51b81526004016103ac90613603565b5050505050505050505050565b6000610ac18261298b565b6101c3546000906126b6906001600160a01b031661278a565b6001600160a01b031663b5ada6d8836040518263ffffffff1660e01b81526004016126e19190612fcf565b60206040518083038186803b1580156126f957600080fd5b505afa15801561270d573d6000803e3d6000fd5b505050506040513d601f19601f82011682018060405250810190610ac19190612d06565b604051637ca7ad0960e11b81526000906001600160a01b0383169063f94f5a12906126e1903390600401612fcf565b6000610abe836001600160a01b0384166129a3565b6000610abe836001600160a01b0384166129ed565b6000610ac182612ab3565b815460009082106127b85760405162461bcd60e51b81526004016103ac906130b3565b8260000182815481106127c757fe5b9060005260206000200154905092915050565b60009081526001919091016020526040902054151590565b60006001600160a01b03821663b93f9b0a60155b6040518263ffffffff1660e01b815260040161282291906130aa565b60206040518083038186803b15801561283a57600080fd5b505afa15801561284e573d6000803e3d6000fd5b505050506040513d601f19601f82011682018060405250810190610ac19190612be9565b60006001600160a01b03821663b93f9b0a6004612806565b61289c826001600160a01b0316612acb565b6128b85760405162461bcd60e51b81526004016103ac906136ca565b60006060836001600160a01b0316836040516128d49190612f96565b6000604051808303816000865af19150503d8060008114612911576040519150601f19603f3d011682016040523d82523d6000602084013e612916565b606091505b5091509150816129385760405162461bcd60e51b81526004016103ac90613276565b805115611c7657808060200190518101906129539190612d06565b611c765760405162461bcd60e51b81526004016103ac90613582565b60006001600160a01b03821663b93f9b0a6005612806565b5490565b60006001600160a01b03821663b93f9b0a600e612806565b60006129af83836127da565b6129e557508154600181810184556000848152602080822090930184905584548482528286019093526040902091909155610ac1565b506000610ac1565b60008181526001830160205260408120548015612aa95783546000198083019190810190600090879083908110612a2057fe5b9060005260206000200154905080876000018481548110612a3d57fe5b600091825260208083209091019290925582815260018981019092526040902090840190558654879080612a6d57fe5b60019003818190600052602060002001600090559055866001016000878152602001908152602001600020600090556001945050505050610ac1565b6000915050610ac1565b60006001600160a01b03821663b93f9b0a600c612806565b6000813f7fc5d2460186f7233c927e7db2dcc703c0e500b653ca82273b7bfad8045d85a470818114801590612aff57508115155b949350505050565b6040518060a0016040528060006001600160a01b03168152602001600081526020016000815260200160008152602001600081525090565b6040518060a0016040528060008152602001600081526020016000815260200160008152602001600081525090565b60008083601f840112612b7f578182fd5b50813567ffffffffffffffff811115612b96578182fd5b6020830191508360208083028501011115612bb057600080fd5b9250929050565b805160028110610ac157600080fd5b600060208284031215612bd7578081fd5b8135612be281613785565b9392505050565b600060208284031215612bfa578081fd5b8151612be281613785565b60008060408385031215612c17578081fd5b8235612c2281613785565b91506020830135612c3281613785565b809150509250929050565b60008060208385031215612c4f578182fd5b823567ffffffffffffffff811115612c65578283fd5b612c7185828601612b6e565b90969095509350505050565b60008060008060008060808789031215612c95578182fd5b863567ffffffffffffffff80821115612cac578384fd5b612cb88a838b01612b6e565b90985096506020890135915080821115612cd0578384fd5b50612cdd89828a01612b6e565b9095509350506040870135612cf181613785565b80925050606087013590509295509295509295565b600060208284031215612d17578081fd5b81518015158114612be2578182fd5b600060208284031215612d37578081fd5b5035919050565b60008060408385031215612d50578182fd5b823591506020830135612c3281613785565b60008060408385031215612d74578182fd5b50508035926020909101359150565b6000818303610180811215612d96578182fd5b612da060e061375e565b8351815260c0601f1983011215612db5578283fd5b612dbf60c061375e565b91506020840151825260408401516020830152606084015160408301526080840151606083015260a0840151608083015260c084015160a083015281602082015260e084015160408201526101008401516060820152612e23856101208601612bb7565b608082015261014084015160a08201526101609093015160c0840152509092915050565b600060a08284031215612e58578081fd5b612e6260a061375e565b8251612e6d81613785565b80825250602083015160208201526040830151604082015260608301516060820152608083015160808201528091505092915050565b600060a08284031215612eb4578081fd5b612ebe60a061375e565b82518152602083015160208201526040830151604082015260608301516060820152608083015160808201528091505092915050565b600060208284031215612f05578081fd5b5051919050565b60008060008060808587031215612f21578182fd5b843593506020850135612f3381613785565b93969395505050506040820135916060013590565b60008060408385031215612f5a578182fd5b505080516020909101519092909150565b600080600060608486031215612f7f578081fd5b505081359360208301359350604090920135919050565b60008251815b81811015612fb65760208186018101518583015201612f9c565b81811115612fc45782828501525b509190910192915050565b6001600160a01b0391909116815260200190565b6001600160a01b039390931683526020830191909152604082015260600190565b6001600160a01b0392831681529116602082015260400190565b6001600160a01b039384168152919092166020820152604081019190915260600190565b6001600160a01b03929092168252602082015260400190565b6020808252825182820181905260009190848201906040850190845b8181101561309357835183529284019291840191600101613077565b50909695505050505050565b901515815260200190565b90815260200190565b60208082526022908201527f456e756d657261626c655365743a20696e646578206f7574206f6620626f756e604082015261647360f01b606082015260800190565b6020808252602f908201527f416363657373436f6e74726f6c3a2073656e646572206d75737420626520616e60408201526e0818591b5a5b881d1bc819dc985b9d608a1b606082015260800190565b60208082526014908201527314185d5cd8589b194e881b9bdd081c185d5cd95960621b604082015260600190565b6020808252602a908201527f4f776e657220616e6420636f6e666967206164647265737365732063616e6e6f6040820152697420626520656d70747960b01b606082015260800190565b60208082526010908201526f42616420706f736974696f6e5479706560801b604082015260600190565b6020808252600a908201526916985c081b1bd8dad95960b21b604082015260600190565b60208082526024908201527f57697468647261776e20616d6f756e7420213d2072657175657374656420616d6040820152631bdd5b9d60e21b606082015260800190565b6020808252600e908201526d151c985b98da19481b1bd8dad95960921b604082015260600190565b6020808252818101527f5361666545524332303a206c6f772d6c6576656c2063616c6c206661696c6564604082015260600190565b60208082526030908201527f416363657373436f6e74726f6c3a2073656e646572206d75737420626520616e60408201526f2061646d696e20746f207265766f6b6560801b606082015260800190565b60208082526010908201526f14185d5cd8589b194e881c185d5cd95960821b604082015260600190565b602080825260149082015273151bdad95b881a591cc81b9bdd081cdbdc9d195960621b604082015260600190565b60208082526011908201527043616e6e6f74207a61702030204649445560781b604082015260600190565b6020808252818101527f4f776e65722063616e6e6f7420626520746865207a65726f2061646472657373604082015260600190565b6020808252600d908201526c2737ba103d30b81037bbb732b960991b604082015260600190565b6020808252601590820152741059191c995cdcc81b9bdd0819dbcb5b1a5cdd1959605a1b604082015260600190565b602080825260139082015272082e4e4c2f240e6d2f4ca40dad2e6dac2e8c6d606b1b604082015260600190565b6020808252600d908201526c496e76616c696420737461746560981b604082015260600190565b6020808252602e908201527f436f6e747261637420696e7374616e63652068617320616c726561647920626560408201526d195b881a5b9a5d1a585b1a5e995960921b606082015260800190565b6020808252600290820152614e4160f01b604082015260600190565b6020808252602b908201527f456e7469726520616c6c6f77616e6365206f66205553444320686173206e6f7460408201526a103132b2b7103ab9b2b21760a91b606082015260800190565b6020808252600f908201526e2737ba103a37b5b2b71037bbb732b960891b604082015260600190565b60208082526027908201527f63616e6e6f7420756e7374616b65206d6f7265207468616e207374616b65642060408201526662616c616e636560c81b606082015260800190565b6020808252602a908201527f5361666545524332303a204552433230206f7065726174696f6e20646964206e6040820152691bdd081cdd58d8d9595960b21b606082015260800190565b6020808252601f908201527f5265656e7472616e637947756172643a207265656e7472616e742063616c6c00604082015260600190565b6020808252602b908201527f456e7469726520616c6c6f77616e6365206f66204649445520686173206e6f7460408201526a103132b2b7103ab9b2b21760a91b606082015260800190565b60208082526036908201527f5361666545524332303a20617070726f76652066726f6d206e6f6e2d7a65726f60408201527520746f206e6f6e2d7a65726f20616c6c6f77616e636560501b606082015260800190565b6020808252600c908201526b125b9d985b1a59081c1bdbdb60a21b604082015260600190565b6020808252601f908201527f5361666545524332303a2063616c6c20746f206e6f6e2d636f6e747261637400604082015260600190565b6020808252602f908201527f416363657373436f6e74726f6c3a2063616e206f6e6c792072656e6f756e636560408201526e103937b632b9903337b91039b2b63360891b606082015260800190565b918252602082015260400190565b60405181810167ffffffffffffffff8111828210171561377d57600080fd5b604052919050565b6001600160a01b038116811461096957600080fdfeb19546dff01e856fb3f010c267a7b1c60363cf8a4664e21cc89c26224620214e65d7a28e3265b37a6474929f336521b332c1681b933f6cb9f3376673440d862aa26469706673582212201b5b1f0758dad13e750277ab7615c3fdcc06cd8706cff36041a49a6735a87d6b64736f6c634300060c0033",
  "devdoc": {
    "author": "Emily Hsia, Mark Hudnall, Will Johnston, Dalton Sweeney",
    "kind": "dev",
    "methods": {
      "claimMultipleTranchedPoolZaps(uint256[])": {
        "params": {
          "poolTokenIds": "PoolTokens ERC721 ids to claim. Token ids MUST be sorted ascending.   The caller MUST be the address that performed the initial zaps."
        }
      },
      "claimTranchedPoolZap(uint256)": {
        "params": {
          "poolTokenId": "The underyling PoolToken id created in a previously initiated zap"
        }
      },
      "getRoleAdmin(bytes32)": {
        "details": "Returns the admin role that controls `role`. See {grantRole} and {revokeRole}. To change a role's admin, use {_setRoleAdmin}."
      },
      "getRoleMember(bytes32,uint256)": {
        "details": "Returns one of the accounts that have `role`. `index` must be a value between 0 and {getRoleMemberCount}, non-inclusive. Role bearers are not sorted in any particular way, and their ordering may change at any point. WARNING: When using {getRoleMember} and {getRoleMemberCount}, make sure you perform all queries on the same block. See the following https://forum.openzeppelin.com/t/iterating-over-elements-on-enumerableset-in-openzeppelin-contracts/2296[forum post] for more information."
      },
      "getRoleMemberCount(bytes32)": {
        "details": "Returns the number of accounts that have `role`. Can be used together with {getRoleMember} to enumerate all bearers of a role."
      },
      "grantRole(bytes32,address)": {
        "details": "Grants `role` to `account`. If `account` had not been already granted `role`, emits a {RoleGranted} event. Requirements: - the caller must have ``role``'s admin role."
      },
      "hasRole(bytes32,address)": {
        "details": "Returns `true` if `account` has been granted `role`."
      },
      "pause()": {
        "details": "Pauses all functions guarded by Pause See {Pausable-_pause}. Requirements: - the caller must have the PAUSER_ROLE."
      },
      "paused()": {
        "details": "Returns true if the contract is paused, and false otherwise."
      },
      "renounceRole(bytes32,address)": {
        "details": "Revokes `role` from the calling account. Roles are often managed via {grantRole} and {revokeRole}: this function's purpose is to provide a mechanism for accounts to lose their privileges if they are compromised (such as when a trusted device is misplaced). If the calling account had been granted `role`, emits a {RoleRevoked} event. Requirements: - the caller must be `account`."
      },
      "revokeRole(bytes32,address)": {
        "details": "Revokes `role` from `account`. If `account` had been granted `role`, emits a {RoleRevoked} event. Requirements: - the caller must have ``role``'s admin role."
      },
      "unpause()": {
        "details": "Unpauses the contract See {Pausable-_unpause}. Requirements: - the caller must have the Pauser role"
      },
      "unzapMultipleFromTranchedPools(uint256[])": {
        "params": {
          "poolTokenIds": "PoolTokens ERC721 ids to unzap. Token ids MUST be sorted ascending.   The caller MUST be the address that performed the initial zaps."
        }
      },
      "unzapToStakingRewards(uint256)": {
        "params": {
          "poolTokenId": "The underyling PoolToken id created in a previously initiated zap"
        }
      },
      "zapFiduStakeToTranchedPool(uint256,address,uint256,uint256)": {
        "details": "The minted pool token is held by this contract until either `claimZap` or   `unzap` is called.",
        "params": {
          "fiduAmount": "amount to deposit in FIDU.",
          "tokenId": "StakingRewards ERC721 token id to zap.",
          "tranche": "id of the tranche to deposit into.",
          "tranchedPool": "TranchedPool to deposit into."
        },
        "returns": {
          "poolTokenId": "PoolTokens ERC721 id of the TranchedPool deposit."
        }
      },
      "zapMultipleToTranchedPool(uint256[],uint256[],address,uint256)": {
        "params": {
          "fiduAmounts": "FIDU amount to zap for each position such that `fiduAmounts[i]` FIDU   is zapped from position `tokenIds[i]`.",
          "stakingRewardsTokenIds": "ids of the StakingRewards ERC721 positions to zap. Token ids MUST be   sorted ascending.",
          "tranche": "id of the tranch to zap into.",
          "tranchedPool": "address of the tranched pool to zap into."
        },
        "returns": {
          "poolTokenIds": "PoolTokens ERC721 ids created by each zap action."
        }
      },
      "zapStakeToCurve(uint256,uint256,uint256)": {
        "params": {
          "fiduAmount": "The amount in FIDU from the staked position to zap",
          "tokenId": "A staking position token ID",
          "usdcAmount": "The amount of USDC to deposit into Curve"
        }
      },
      "zapStakeToTranchedPool(uint256,address,uint256,uint256)": {
        "details": "The minted pool token is held by this contract until either `claimZap` or   `unzap` is called",
        "params": {
          "tokenId": "A staking position token ID. The owner MUST perform an ERC721 approval",
          "tranche": "id of the tranche to deposit into.",
          "tranchedPool": "TranchedPool to deposit into.",
          "usdcAmount": "The USDC amount to deposit."
        },
        "returns": {
          "poolTokenId": "PoolTokens ERC721 id of the TranchedPool deposit.   for the Zapper address before calling this function."
        }
      }
    },
    "stateVariables": {
      "tranchedPoolZaps": {
        "details": "PoolToken.id => Zap"
      }
    },
    "title": "Zapper",
    "version": 1
  },
  "userdoc": {
    "kind": "user",
    "methods": {
      "claimMultipleTranchedPoolZaps(uint256[])": {
        "notice": "Claim multiple pool tokens (not necessarily from the same tranched pools). A claim   only succeeds if the tranched pool has locked."
      },
      "claimTranchedPoolZap(uint256)": {
        "notice": "Claim the underlying PoolToken for a zap initiated with `zapStakeToTranchePool`.  The pool token will be transferred to msg.sender if msg.sender initiated the zap and  we are past the tranche's lockedUntil time."
      },
      "unzapMultipleFromTranchedPools(uint256[])": {
        "notice": "Unzap multiple pool tokens (not necessarily from the same tranched pools).   You may perform this action anytime before the respective tranche locks."
      },
      "unzapToStakingRewards(uint256)": {
        "notice": "Unwind a zap initiated with `zapStakeToTranchePool`.  The funds will be withdrawn from the TranchedPool and added back to the original  staked position in StakingRewards. This method can only be called when the PoolToken's  tranche has never been locked."
      },
      "zapFiduStakeToTranchedPool(uint256,address,uint256,uint256)": {
        "notice": "Zap staked FIDU into the junior tranche of a TranchedPool without losing   unvested rewards or paying a withdrawal fee. This function is preferred over   `zapStakeToTranchedPool` for zapping an entire position because the latter   accepts a USDC amount, which cannot precisely represent FIDU due to lack of decimals."
      },
      "zapMultipleToTranchedPool(uint256[],uint256[],address,uint256)": {
        "notice": "Zap multiple StakingRewards tokens to a tranched pool."
      },
      "zapStakeToCurve(uint256,uint256,uint256)": {
        "notice": "Zap staked FIDU into staked Curve LP tokens without losing unvested rewards  or paying a withdrawal fee."
      },
      "zapStakeToTranchedPool(uint256,address,uint256,uint256)": {
        "notice": "Zap staked FIDU into the junior tranche of a TranchedPool without losing   unvested rewards or paying a withdrawal fee"
      }
    },
    "notice": "Moves capital from the SeniorPool to TranchedPools without taking fees",
    "version": 1
  },
  "storageLayout": {
    "storage": [
      {
        "astId": 50,
        "contract": "contracts/protocol/core/Zapper.sol:Zapper",
        "label": "initialized",
        "offset": 0,
        "slot": "0",
        "type": "t_bool"
      },
      {
        "astId": 53,
        "contract": "contracts/protocol/core/Zapper.sol:Zapper",
        "label": "initializing",
        "offset": 1,
        "slot": "0",
        "type": "t_bool"
      },
      {
        "astId": 118,
        "contract": "contracts/protocol/core/Zapper.sol:Zapper",
        "label": "______gap",
        "offset": 0,
        "slot": "1",
        "type": "t_array(t_uint256)50_storage"
      },
      {
        "astId": 43,
        "contract": "contracts/protocol/core/Zapper.sol:Zapper",
        "label": "__gap",
        "offset": 0,
        "slot": "51",
        "type": "t_array(t_uint256)50_storage"
      },
      {
        "astId": 163,
        "contract": "contracts/protocol/core/Zapper.sol:Zapper",
        "label": "_roles",
        "offset": 0,
        "slot": "101",
        "type": "t_mapping(t_bytes32,t_struct(RoleData)159_storage)"
      },
      {
        "astId": 408,
        "contract": "contracts/protocol/core/Zapper.sol:Zapper",
        "label": "__gap",
        "offset": 0,
        "slot": "102",
        "type": "t_array(t_uint256)49_storage"
      },
      {
        "astId": 3017,
        "contract": "contracts/protocol/core/Zapper.sol:Zapper",
        "label": "_paused",
        "offset": 0,
        "slot": "151",
        "type": "t_bool"
      },
      {
        "astId": 3106,
        "contract": "contracts/protocol/core/Zapper.sol:Zapper",
        "label": "__gap",
        "offset": 0,
        "slot": "152",
        "type": "t_array(t_uint256)49_storage"
      },
      {
        "astId": 3115,
        "contract": "contracts/protocol/core/Zapper.sol:Zapper",
        "label": "_notEntered",
        "offset": 0,
        "slot": "201",
        "type": "t_bool"
      },
      {
        "astId": 3156,
        "contract": "contracts/protocol/core/Zapper.sol:Zapper",
        "label": "__gap",
        "offset": 0,
        "slot": "202",
        "type": "t_array(t_uint256)49_storage"
      },
      {
        "astId": 12976,
        "contract": "contracts/protocol/core/Zapper.sol:Zapper",
        "label": "__gap1",
        "offset": 0,
        "slot": "251",
        "type": "t_array(t_uint256)50_storage"
      },
      {
        "astId": 12980,
        "contract": "contracts/protocol/core/Zapper.sol:Zapper",
        "label": "__gap2",
        "offset": 0,
        "slot": "301",
        "type": "t_array(t_uint256)50_storage"
      },
      {
        "astId": 12984,
        "contract": "contracts/protocol/core/Zapper.sol:Zapper",
        "label": "__gap3",
        "offset": 0,
        "slot": "351",
        "type": "t_array(t_uint256)50_storage"
      },
      {
        "astId": 12988,
        "contract": "contracts/protocol/core/Zapper.sol:Zapper",
        "label": "__gap4",
        "offset": 0,
        "slot": "401",
        "type": "t_array(t_uint256)50_storage"
      },
      {
        "astId": 24774,
        "contract": "contracts/protocol/core/Zapper.sol:Zapper",
        "label": "config",
        "offset": 0,
        "slot": "451",
        "type": "t_contract(GoldfinchConfig)16882"
      },
      {
        "astId": 24790,
        "contract": "contracts/protocol/core/Zapper.sol:Zapper",
        "label": "tranchedPoolZaps",
        "offset": 0,
        "slot": "452",
        "type": "t_mapping(t_uint256,t_struct(Zap)24785_storage)"
      }
    ],
    "types": {
      "t_address": {
        "encoding": "inplace",
        "label": "address",
        "numberOfBytes": "20"
      },
      "t_array(t_bytes32)dyn_storage": {
        "base": "t_bytes32",
        "encoding": "dynamic_array",
        "label": "bytes32[]",
        "numberOfBytes": "32"
      },
      "t_array(t_uint256)49_storage": {
        "base": "t_uint256",
        "encoding": "inplace",
        "label": "uint256[49]",
        "numberOfBytes": "1568"
      },
      "t_array(t_uint256)50_storage": {
        "base": "t_uint256",
        "encoding": "inplace",
        "label": "uint256[50]",
        "numberOfBytes": "1600"
      },
      "t_bool": {
        "encoding": "inplace",
        "label": "bool",
        "numberOfBytes": "1"
      },
      "t_bytes32": {
        "encoding": "inplace",
        "label": "bytes32",
        "numberOfBytes": "32"
      },
      "t_contract(GoldfinchConfig)16882": {
        "encoding": "inplace",
        "label": "contract GoldfinchConfig",
        "numberOfBytes": "20"
      },
      "t_mapping(t_bytes32,t_struct(RoleData)159_storage)": {
        "encoding": "mapping",
        "key": "t_bytes32",
        "label": "mapping(bytes32 => struct AccessControlUpgradeSafe.RoleData)",
        "numberOfBytes": "32",
        "value": "t_struct(RoleData)159_storage"
      },
      "t_mapping(t_bytes32,t_uint256)": {
        "encoding": "mapping",
        "key": "t_bytes32",
        "label": "mapping(bytes32 => uint256)",
        "numberOfBytes": "32",
        "value": "t_uint256"
      },
      "t_mapping(t_uint256,t_struct(Zap)24785_storage)": {
        "encoding": "mapping",
        "key": "t_uint256",
        "label": "mapping(uint256 => struct Zapper.Zap)",
        "numberOfBytes": "32",
        "value": "t_struct(Zap)24785_storage"
      },
      "t_struct(AddressSet)2792_storage": {
        "encoding": "inplace",
        "label": "struct EnumerableSet.AddressSet",
        "members": [
          {
            "astId": 2791,
            "contract": "contracts/protocol/core/Zapper.sol:Zapper",
            "label": "_inner",
            "offset": 0,
            "slot": "0",
            "type": "t_struct(Set)2612_storage"
          }
        ],
        "numberOfBytes": "64"
      },
      "t_struct(RoleData)159_storage": {
        "encoding": "inplace",
        "label": "struct AccessControlUpgradeSafe.RoleData",
        "members": [
          {
            "astId": 156,
            "contract": "contracts/protocol/core/Zapper.sol:Zapper",
            "label": "members",
            "offset": 0,
            "slot": "0",
            "type": "t_struct(AddressSet)2792_storage"
          },
          {
            "astId": 158,
            "contract": "contracts/protocol/core/Zapper.sol:Zapper",
            "label": "adminRole",
            "offset": 0,
            "slot": "2",
            "type": "t_bytes32"
          }
        ],
        "numberOfBytes": "96"
      },
      "t_struct(Set)2612_storage": {
        "encoding": "inplace",
        "label": "struct EnumerableSet.Set",
        "members": [
          {
            "astId": 2607,
            "contract": "contracts/protocol/core/Zapper.sol:Zapper",
            "label": "_values",
            "offset": 0,
            "slot": "0",
            "type": "t_array(t_bytes32)dyn_storage"
          },
          {
            "astId": 2611,
            "contract": "contracts/protocol/core/Zapper.sol:Zapper",
            "label": "_indexes",
            "offset": 0,
            "slot": "1",
            "type": "t_mapping(t_bytes32,t_uint256)"
          }
        ],
        "numberOfBytes": "64"
      },
      "t_struct(Zap)24785_storage": {
        "encoding": "inplace",
        "label": "struct Zapper.Zap",
        "members": [
          {
            "astId": 24782,
            "contract": "contracts/protocol/core/Zapper.sol:Zapper",
            "label": "owner",
            "offset": 0,
            "slot": "0",
            "type": "t_address"
          },
          {
            "astId": 24784,
            "contract": "contracts/protocol/core/Zapper.sol:Zapper",
            "label": "stakingPositionId",
            "offset": 0,
            "slot": "1",
            "type": "t_uint256"
          }
        ],
        "numberOfBytes": "64"
      },
      "t_uint256": {
        "encoding": "inplace",
        "label": "uint256",
        "numberOfBytes": "32"
      }
    }
  }
}