{
  "address": "0x3ab004AeeF421fE276a87206322a4EC525818C7a",
  "abi": [
    {
      "anonymous": false,
      "inputs": [
        {
          "indexed": true,
          "internalType": "address",
          "name": "owner",
          "type": "address"
        },
        {
          "indexed": true,
          "internalType": "address",
          "name": "approved",
          "type": "address"
        },
        {
          "indexed": true,
          "internalType": "uint256",
          "name": "tokenId",
          "type": "uint256"
        }
      ],
      "name": "Approval",
      "type": "event"
    },
    {
      "anonymous": false,
      "inputs": [
        {
          "indexed": true,
          "internalType": "address",
          "name": "owner",
          "type": "address"
        },
        {
          "indexed": true,
          "internalType": "address",
          "name": "operator",
          "type": "address"
        },
        {
          "indexed": false,
          "internalType": "bool",
          "name": "approved",
          "type": "bool"
        }
      ],
      "name": "ApprovalForAll",
      "type": "event"
    },
    {
      "anonymous": false,
      "inputs": [
        {
          "indexed": true,
          "internalType": "address",
          "name": "who",
          "type": "address"
        },
        {
          "indexed": false,
          "internalType": "address",
          "name": "configAddress",
          "type": "address"
        }
      ],
      "name": "GoldfinchConfigUpdated",
      "type": "event"
    },
    {
      "anonymous": false,
      "inputs": [
        {
          "indexed": true,
          "internalType": "uint256",
          "name": "tokenId",
          "type": "uint256"
        },
        {
          "indexed": false,
          "internalType": "uint256",
          "name": "totalUnvested",
          "type": "uint256"
        }
      ],
      "name": "GrantRevoked",
      "type": "event"
    },
    {
      "anonymous": false,
      "inputs": [
        {
          "indexed": true,
          "internalType": "address",
          "name": "user",
          "type": "address"
        },
        {
          "indexed": true,
          "internalType": "uint256",
          "name": "tokenId",
          "type": "uint256"
        },
        {
          "indexed": false,
          "internalType": "uint256",
          "name": "amount",
          "type": "uint256"
        },
        {
          "indexed": false,
          "internalType": "uint256",
          "name": "vestingLength",
          "type": "uint256"
        },
        {
          "indexed": false,
          "internalType": "uint256",
          "name": "cliffLength",
          "type": "uint256"
        },
        {
          "indexed": false,
          "internalType": "uint256",
          "name": "vestingInterval",
          "type": "uint256"
        }
      ],
      "name": "Granted",
      "type": "event"
    },
    {
      "anonymous": false,
      "inputs": [
        {
          "indexed": false,
          "internalType": "address",
          "name": "account",
          "type": "address"
        }
      ],
      "name": "Paused",
      "type": "event"
    },
    {
      "anonymous": false,
      "inputs": [
        {
          "indexed": false,
          "internalType": "uint256",
          "name": "reward",
          "type": "uint256"
        }
      ],
      "name": "RewardAdded",
      "type": "event"
    },
    {
      "anonymous": false,
      "inputs": [
        {
          "indexed": true,
          "internalType": "address",
          "name": "user",
          "type": "address"
        },
        {
          "indexed": true,
          "internalType": "uint256",
          "name": "tokenId",
          "type": "uint256"
        },
        {
          "indexed": false,
          "internalType": "uint256",
          "name": "reward",
          "type": "uint256"
        }
      ],
      "name": "RewardPaid",
      "type": "event"
    },
    {
      "anonymous": false,
      "inputs": [
        {
          "indexed": true,
          "internalType": "bytes32",
          "name": "role",
          "type": "bytes32"
        },
        {
          "indexed": true,
          "internalType": "address",
          "name": "account",
          "type": "address"
        },
        {
          "indexed": true,
          "internalType": "address",
          "name": "sender",
          "type": "address"
        }
      ],
      "name": "RoleGranted",
      "type": "event"
    },
    {
      "anonymous": false,
      "inputs": [
        {
          "indexed": true,
          "internalType": "bytes32",
          "name": "role",
          "type": "bytes32"
        },
        {
          "indexed": true,
          "internalType": "address",
          "name": "account",
          "type": "address"
        },
        {
          "indexed": true,
          "internalType": "address",
          "name": "sender",
          "type": "address"
        }
      ],
      "name": "RoleRevoked",
      "type": "event"
    },
    {
      "anonymous": false,
      "inputs": [
        {
          "indexed": true,
          "internalType": "address",
          "name": "from",
          "type": "address"
        },
        {
          "indexed": true,
          "internalType": "address",
          "name": "to",
          "type": "address"
        },
        {
          "indexed": true,
          "internalType": "uint256",
          "name": "tokenId",
          "type": "uint256"
        }
      ],
      "name": "Transfer",
      "type": "event"
    },
    {
      "anonymous": false,
      "inputs": [
        {
          "indexed": false,
          "internalType": "address",
          "name": "account",
          "type": "address"
        }
      ],
      "name": "Unpaused",
      "type": "event"
    },
    {
      "inputs": [],
      "name": "DEFAULT_ADMIN_ROLE",
      "outputs": [
        {
          "internalType": "bytes32",
          "name": "",
          "type": "bytes32"
        }
      ],
      "stateMutability": "view",
      "type": "function"
    },
    {
      "inputs": [],
      "name": "DISTRIBUTOR_ROLE",
      "outputs": [
        {
          "internalType": "bytes32",
          "name": "",
          "type": "bytes32"
        }
      ],
      "stateMutability": "view",
      "type": "function"
    },
    {
      "inputs": [],
      "name": "MINTER_ROLE",
      "outputs": [
        {
          "internalType": "bytes32",
          "name": "",
          "type": "bytes32"
        }
      ],
      "stateMutability": "view",
      "type": "function"
    },
    {
      "inputs": [],
      "name": "OWNER_ROLE",
      "outputs": [
        {
          "internalType": "bytes32",
          "name": "",
          "type": "bytes32"
        }
      ],
      "stateMutability": "view",
      "type": "function"
    },
    {
      "inputs": [],
      "name": "PAUSER_ROLE",
      "outputs": [
        {
          "internalType": "bytes32",
          "name": "",
          "type": "bytes32"
        }
      ],
      "stateMutability": "view",
      "type": "function"
    },
    {
      "inputs": [
        {
          "internalType": "address",
          "name": "owner",
          "type": "address"
        },
        {
          "internalType": "contract GoldfinchConfig",
          "name": "_config",
          "type": "address"
        },
        {
          "internalType": "uint256",
          "name": "_tokenLaunchTimeInSeconds",
          "type": "uint256"
        }
      ],
      "name": "__initialize__",
      "outputs": [],
      "stateMutability": "nonpayable",
      "type": "function"
    },
    {
      "inputs": [],
      "name": "_tokenIdTracker",
      "outputs": [
        {
          "internalType": "uint256",
          "name": "_value",
          "type": "uint256"
        }
      ],
      "stateMutability": "view",
      "type": "function"
    },
    {
      "inputs": [
        {
          "internalType": "address",
          "name": "to",
          "type": "address"
        },
        {
          "internalType": "uint256",
          "name": "tokenId",
          "type": "uint256"
        }
      ],
      "name": "approve",
      "outputs": [],
      "stateMutability": "nonpayable",
      "type": "function"
    },
    {
      "inputs": [
        {
          "internalType": "address",
          "name": "owner",
          "type": "address"
        }
      ],
      "name": "balanceOf",
      "outputs": [
        {
          "internalType": "uint256",
          "name": "",
          "type": "uint256"
        }
      ],
      "stateMutability": "view",
      "type": "function"
    },
    {
      "inputs": [],
      "name": "baseURI",
      "outputs": [
        {
          "internalType": "string",
          "name": "",
          "type": "string"
        }
      ],
      "stateMutability": "view",
      "type": "function"
    },
    {
      "inputs": [
        {
          "internalType": "uint256",
          "name": "tokenId",
          "type": "uint256"
        }
      ],
      "name": "claimableRewards",
      "outputs": [
        {
          "internalType": "uint256",
          "name": "rewards",
          "type": "uint256"
        }
      ],
      "stateMutability": "view",
      "type": "function"
    },
    {
      "inputs": [],
      "name": "config",
      "outputs": [
        {
          "internalType": "contract GoldfinchConfig",
          "name": "",
          "type": "address"
        }
      ],
      "stateMutability": "view",
      "type": "function"
    },
    {
      "inputs": [
        {
          "internalType": "uint256",
          "name": "tokenId",
          "type": "uint256"
        }
      ],
      "name": "getApproved",
      "outputs": [
        {
          "internalType": "address",
          "name": "",
          "type": "address"
        }
      ],
      "stateMutability": "view",
      "type": "function"
    },
    {
      "inputs": [
        {
          "internalType": "uint256",
          "name": "tokenId",
          "type": "uint256"
        }
      ],
      "name": "getReward",
      "outputs": [],
      "stateMutability": "nonpayable",
      "type": "function"
    },
    {
      "inputs": [
        {
          "internalType": "bytes32",
          "name": "role",
          "type": "bytes32"
        }
      ],
      "name": "getRoleAdmin",
      "outputs": [
        {
          "internalType": "bytes32",
          "name": "",
          "type": "bytes32"
        }
      ],
      "stateMutability": "view",
      "type": "function"
    },
    {
      "inputs": [
        {
          "internalType": "bytes32",
          "name": "role",
          "type": "bytes32"
        },
        {
          "internalType": "uint256",
          "name": "index",
          "type": "uint256"
        }
      ],
      "name": "getRoleMember",
      "outputs": [
        {
          "internalType": "address",
          "name": "",
          "type": "address"
        }
      ],
      "stateMutability": "view",
      "type": "function"
    },
    {
      "inputs": [
        {
          "internalType": "bytes32",
          "name": "role",
          "type": "bytes32"
        }
      ],
      "name": "getRoleMemberCount",
      "outputs": [
        {
          "internalType": "uint256",
          "name": "",
          "type": "uint256"
        }
      ],
      "stateMutability": "view",
      "type": "function"
    },
    {
      "inputs": [
        {
          "internalType": "address",
          "name": "recipient",
          "type": "address"
        },
        {
          "internalType": "uint256",
          "name": "amount",
          "type": "uint256"
        },
        {
          "internalType": "uint256",
          "name": "vestingLength",
          "type": "uint256"
        },
        {
          "internalType": "uint256",
          "name": "cliffLength",
          "type": "uint256"
        },
        {
          "internalType": "uint256",
          "name": "vestingInterval",
          "type": "uint256"
        }
      ],
      "name": "grant",
      "outputs": [
        {
          "internalType": "uint256",
          "name": "tokenId",
          "type": "uint256"
        }
      ],
      "stateMutability": "nonpayable",
      "type": "function"
    },
    {
      "inputs": [
        {
          "internalType": "bytes32",
          "name": "role",
          "type": "bytes32"
        },
        {
          "internalType": "address",
          "name": "account",
          "type": "address"
        }
      ],
      "name": "grantRole",
      "outputs": [],
      "stateMutability": "nonpayable",
      "type": "function"
    },
    {
      "inputs": [
        {
          "internalType": "uint256",
          "name": "",
          "type": "uint256"
        }
      ],
      "name": "grants",
      "outputs": [
        {
          "internalType": "uint256",
          "name": "totalGranted",
          "type": "uint256"
        },
        {
          "internalType": "uint256",
          "name": "totalClaimed",
          "type": "uint256"
        },
        {
          "internalType": "uint256",
          "name": "startTime",
          "type": "uint256"
        },
        {
          "internalType": "uint256",
          "name": "endTime",
          "type": "uint256"
        },
        {
          "internalType": "uint256",
          "name": "cliffLength",
          "type": "uint256"
        },
        {
          "internalType": "uint256",
          "name": "vestingInterval",
          "type": "uint256"
        },
        {
          "internalType": "uint256",
          "name": "revokedAt",
          "type": "uint256"
        }
      ],
      "stateMutability": "view",
      "type": "function"
    },
    {
      "inputs": [
        {
          "internalType": "bytes32",
          "name": "role",
          "type": "bytes32"
        },
        {
          "internalType": "address",
          "name": "account",
          "type": "address"
        }
      ],
      "name": "hasRole",
      "outputs": [
        {
          "internalType": "bool",
          "name": "",
          "type": "bool"
        }
      ],
      "stateMutability": "view",
      "type": "function"
    },
    {
      "inputs": [],
      "name": "isAdmin",
      "outputs": [
        {
          "internalType": "bool",
          "name": "",
          "type": "bool"
        }
      ],
      "stateMutability": "view",
      "type": "function"
    },
    {
      "inputs": [
        {
          "internalType": "address",
          "name": "owner",
          "type": "address"
        },
        {
          "internalType": "address",
          "name": "operator",
          "type": "address"
        }
      ],
      "name": "isApprovedForAll",
      "outputs": [
        {
          "internalType": "bool",
          "name": "",
          "type": "bool"
        }
      ],
      "stateMutability": "view",
      "type": "function"
    },
    {
      "inputs": [],
      "name": "isDistributor",
      "outputs": [
        {
          "internalType": "bool",
          "name": "",
          "type": "bool"
        }
      ],
      "stateMutability": "view",
      "type": "function"
    },
    {
      "inputs": [
        {
          "internalType": "uint256",
          "name": "rewards",
          "type": "uint256"
        }
      ],
      "name": "loadRewards",
      "outputs": [],
      "stateMutability": "nonpayable",
      "type": "function"
    },
    {
      "inputs": [],
      "name": "name",
      "outputs": [
        {
          "internalType": "string",
          "name": "",
          "type": "string"
        }
      ],
      "stateMutability": "view",
      "type": "function"
    },
    {
      "inputs": [
        {
          "internalType": "uint256",
          "name": "tokenId",
          "type": "uint256"
        }
      ],
      "name": "ownerOf",
      "outputs": [
        {
          "internalType": "address",
          "name": "",
          "type": "address"
        }
      ],
      "stateMutability": "view",
      "type": "function"
    },
    {
      "inputs": [],
      "name": "pause",
      "outputs": [],
      "stateMutability": "nonpayable",
      "type": "function"
    },
    {
      "inputs": [],
      "name": "paused",
      "outputs": [
        {
          "internalType": "bool",
          "name": "",
          "type": "bool"
        }
      ],
      "stateMutability": "view",
      "type": "function"
    },
    {
      "inputs": [
        {
          "internalType": "bytes32",
          "name": "role",
          "type": "bytes32"
        },
        {
          "internalType": "address",
          "name": "account",
          "type": "address"
        }
      ],
      "name": "renounceRole",
      "outputs": [],
      "stateMutability": "nonpayable",
      "type": "function"
    },
    {
      "inputs": [
        {
          "internalType": "uint256",
          "name": "tokenId",
          "type": "uint256"
        }
      ],
      "name": "revokeGrant",
      "outputs": [],
      "stateMutability": "nonpayable",
      "type": "function"
    },
    {
      "inputs": [
        {
          "internalType": "bytes32",
          "name": "role",
          "type": "bytes32"
        },
        {
          "internalType": "address",
          "name": "account",
          "type": "address"
        }
      ],
      "name": "revokeRole",
      "outputs": [],
      "stateMutability": "nonpayable",
      "type": "function"
    },
    {
      "inputs": [],
      "name": "rewardsAvailable",
      "outputs": [
        {
          "internalType": "uint256",
          "name": "",
          "type": "uint256"
        }
      ],
      "stateMutability": "view",
      "type": "function"
    },
    {
      "inputs": [],
      "name": "rewardsToken",
      "outputs": [
        {
          "internalType": "contract IERC20withDec",
          "name": "",
          "type": "address"
        }
      ],
      "stateMutability": "view",
      "type": "function"
    },
    {
      "inputs": [
        {
          "internalType": "address",
          "name": "from",
          "type": "address"
        },
        {
          "internalType": "address",
          "name": "to",
          "type": "address"
        },
        {
          "internalType": "uint256",
          "name": "tokenId",
          "type": "uint256"
        }
      ],
      "name": "safeTransferFrom",
      "outputs": [],
      "stateMutability": "nonpayable",
      "type": "function"
    },
    {
      "inputs": [
        {
          "internalType": "address",
          "name": "from",
          "type": "address"
        },
        {
          "internalType": "address",
          "name": "to",
          "type": "address"
        },
        {
          "internalType": "uint256",
          "name": "tokenId",
          "type": "uint256"
        },
        {
          "internalType": "bytes",
          "name": "_data",
          "type": "bytes"
        }
      ],
      "name": "safeTransferFrom",
      "outputs": [],
      "stateMutability": "nonpayable",
      "type": "function"
    },
    {
      "inputs": [
        {
          "internalType": "address",
          "name": "operator",
          "type": "address"
        },
        {
          "internalType": "bool",
          "name": "approved",
          "type": "bool"
        }
      ],
      "name": "setApprovalForAll",
      "outputs": [],
      "stateMutability": "nonpayable",
      "type": "function"
    },
    {
      "inputs": [
        {
          "internalType": "uint256",
          "name": "_tokenLaunchTimeInSeconds",
          "type": "uint256"
        }
      ],
      "name": "setTokenLaunchTimeInSeconds",
      "outputs": [],
      "stateMutability": "nonpayable",
      "type": "function"
    },
    {
      "inputs": [
        {
          "internalType": "bytes4",
          "name": "interfaceId",
          "type": "bytes4"
        }
      ],
      "name": "supportsInterface",
      "outputs": [
        {
          "internalType": "bool",
          "name": "",
          "type": "bool"
        }
      ],
      "stateMutability": "view",
      "type": "function"
    },
    {
      "inputs": [],
      "name": "symbol",
      "outputs": [
        {
          "internalType": "string",
          "name": "",
          "type": "string"
        }
      ],
      "stateMutability": "view",
      "type": "function"
    },
    {
      "inputs": [
        {
          "internalType": "uint256",
          "name": "index",
          "type": "uint256"
        }
      ],
      "name": "tokenByIndex",
      "outputs": [
        {
          "internalType": "uint256",
          "name": "",
          "type": "uint256"
        }
      ],
      "stateMutability": "view",
      "type": "function"
    },
    {
      "inputs": [],
      "name": "tokenLaunchTimeInSeconds",
      "outputs": [
        {
          "internalType": "uint256",
          "name": "",
          "type": "uint256"
        }
      ],
      "stateMutability": "view",
      "type": "function"
    },
    {
      "inputs": [
        {
          "internalType": "address",
          "name": "owner",
          "type": "address"
        },
        {
          "internalType": "uint256",
          "name": "index",
          "type": "uint256"
        }
      ],
      "name": "tokenOfOwnerByIndex",
      "outputs": [
        {
          "internalType": "uint256",
          "name": "",
          "type": "uint256"
        }
      ],
      "stateMutability": "view",
      "type": "function"
    },
    {
      "inputs": [
        {
          "internalType": "uint256",
          "name": "tokenId",
          "type": "uint256"
        }
      ],
      "name": "tokenURI",
      "outputs": [
        {
          "internalType": "string",
          "name": "",
          "type": "string"
        }
      ],
      "stateMutability": "view",
      "type": "function"
    },
    {
      "inputs": [],
      "name": "totalSupply",
      "outputs": [
        {
          "internalType": "uint256",
          "name": "",
          "type": "uint256"
        }
      ],
      "stateMutability": "view",
      "type": "function"
    },
    {
      "inputs": [
        {
          "internalType": "uint256",
          "name": "start",
          "type": "uint256"
        },
        {
          "internalType": "uint256",
          "name": "end",
          "type": "uint256"
        },
        {
          "internalType": "uint256",
          "name": "granted",
          "type": "uint256"
        },
        {
          "internalType": "uint256",
          "name": "cliffLength",
          "type": "uint256"
        },
        {
          "internalType": "uint256",
          "name": "vestingInterval",
          "type": "uint256"
        },
        {
          "internalType": "uint256",
          "name": "revokedAt",
          "type": "uint256"
        },
        {
          "internalType": "uint256",
          "name": "time",
          "type": "uint256"
        }
      ],
      "name": "totalVestedAt",
      "outputs": [
        {
          "internalType": "uint256",
          "name": "rewards",
          "type": "uint256"
        }
      ],
      "stateMutability": "pure",
      "type": "function"
    },
    {
      "inputs": [
        {
          "internalType": "address",
          "name": "from",
          "type": "address"
        },
        {
          "internalType": "address",
          "name": "to",
          "type": "address"
        },
        {
          "internalType": "uint256",
          "name": "tokenId",
          "type": "uint256"
        }
      ],
      "name": "transferFrom",
      "outputs": [],
      "stateMutability": "nonpayable",
      "type": "function"
    },
    {
      "inputs": [],
      "name": "unpause",
      "outputs": [],
      "stateMutability": "nonpayable",
      "type": "function"
    },
    {
      "inputs": [],
      "name": "updateGoldfinchConfig",
      "outputs": [],
      "stateMutability": "nonpayable",
      "type": "function"
    }
  ],
  "transactionHash": "0x3fd5c9f93fc4ca61900e11ccb06530c7ee4beeb10def6a28480687129678f4fe",
  "args": [],
  "solcInputHash": "09586d0fbcee1e635828b4bf555ecfc7",
  "bytecode": "0x608060405234801561001057600080fd5b50613bc7806100206000396000f3fe608060405234801561001057600080fd5b50600436106102ab5760003560e01c806370a0823111610172578063b6db75a0116100d9578063d547741f11610092578063d547741f14610570578063e58378bb14610583578063e63ab1e91461058b578063e7a7250a14610593578063e985e9c51461059b578063f0bd87cc146105ae578063f62849be146105b6576102ab565b8063b6db75a01461051f578063b88d4fde14610527578063c87b56dd1461053a578063ca15c8731461054d578063d1af0c7d14610560578063d539139314610568576102ab565b806391d148541161012b57806391d14854146104ce57806395d89b41146104e15780639835fc7e146104e957806398bcede9146104fc578063a217fddf14610504578063a22cb4651461050c576102ab565b806370a082311461047257806379502c55146104855780637d0781b41461048d5780638456cb59146104a05780638f41ab16146104a85780639010d07c146104bb576102ab565b8063248a9ca3116102165780634f6ccce7116101cf5780634f6ccce7146104215780634f92a728146104345780635c975abb1461043c5780636352211e1461044457806363b11472146104575780636c0360eb1461046a576102ab565b8063248a9ca3146103ba5780632f2ff15d146103cd5780632f745c59146103e057806336568abe146103f35780633f4ba83a1461040657806342842e0e1461040e576102ab565b806318160ddd1161026857806318160ddd1461035157806318ce4d94146103665780631c4b774b146103795780631d33267a1461038c578063205282e61461039f57806323b872dd146103a7576102ab565b806301ffc9a7146102b057806306fdde03146102d9578063081812fc146102ee578063095ea7b31461030e5780630997a514146103235780630c0debea1461032b575b600080fd5b6102c36102be366004612ced565b6105c9565b6040516102d09190612ec7565b60405180910390f35b6102e16105ec565b6040516102d09190612edb565b6103016102fc366004612c90565b610682565b6040516102d09190612e39565b61032161031c366004612c06565b6106ce565b005b6102c3610766565b61033e610339366004612c90565b610787565b6040516102d09796959493929190613a4e565b6103596107c5565b6040516102d09190612ed2565b610359610374366004612c31565b6107d1565b610321610387366004612c90565b61086f565b61032161039a366004612c90565b61098e565b610359610aa9565b6103216103b5366004612abd565b610ab0565b6103596103c8366004612c90565b610ae8565b6103216103db366004612ca8565b610afd565b6103596103ee366004612c06565b610b45565b610321610401366004612ca8565b610b70565b610321610bb2565b61032161041c366004612abd565b610bf2565b61035961042f366004612c90565b610c0d565b610321610c23565b6102c3610cd1565b610301610452366004612c90565b610cda565b610359610465366004612d25565b610d02565b6102e1610d21565b610359610480366004612a4d565b610d82565b610301610dcb565b61032161049b366004612c90565b610ddb565b610321610e05565b6103216104b6366004612bf2565b610e43565b6103016104c9366004612ccc565b611046565b6102c36104dc366004612ca8565b61105e565b6102e1611076565b6103596104f7366004612c90565b6110d7565b6103596110ef565b6103596110f6565b61032161051a366004612bc5565b6110fb565b6102c36111c9565b610321610535366004612afd565b6111e5565b6102e1610548366004612c90565b61121e565b61035961055b366004612c90565b611368565b61030161137f565b610359611398565b61032161057e366004612ca8565b6113bc565b6103596113f6565b610359611408565b61035961141a565b6102c36105a9366004612a85565b611421565b61035961144f565b6103216105c4366004612c90565b611461565b6001600160e01b0319811660009081526097602052604090205460ff165b919050565b60ce8054604080516020601f60026000196101006001881615020190951694909404938401819004810282018101909252828152606093909290918301828280156106785780601f1061064d57610100808354040283529160200191610678565b820191906000526020600020905b81548152906001019060200180831161065b57829003601f168201915b5050505050905090565b600061068d82611510565b6106b25760405162461bcd60e51b81526004016106a9906134f8565b60405180910390fd5b50600090815260cc60205260409020546001600160a01b031690565b60006106d982610cda565b9050806001600160a01b0316836001600160a01b0316141561070d5760405162461bcd60e51b81526004016106a9906136ce565b806001600160a01b031661071f61151d565b6001600160a01b0316148061073b575061073b816105a961151d565b6107575760405162461bcd60e51b81526004016106a990613367565b6107618383611521565b505050565b6000610782600080516020613ae48339815191526104dc61151d565b905090565b6101c6602052600090815260409020805460018201546002830154600384015460048501546005860154600690960154949593949293919290919087565b600061078260ca61158f565b6101915460009060ff166107f75760405162461bcd60e51b81526004016106a990613837565b610191805460ff1916905560fb5460ff16156108255760405162461bcd60e51b81526004016106a99061330d565b61082d610766565b6108495760405162461bcd60e51b81526004016106a99061362a565b610856868686868661159a565b9050610191805460ff1916600117905595945050505050565b6101915460ff166108925760405162461bcd60e51b81526004016106a990613837565b610191805460ff1916905560fb5460ff16156108c05760405162461bcd60e51b81526004016106a99061330d565b336108ca82610cda565b6001600160a01b0316146108f05760405162461bcd60e51b81526004016106a990613760565b60006108fb826110d7565b9050801561097c5760008281526101c66020526040902061091c9082611746565b610939338261092961137f565b6001600160a01b03169190611761565b81336001600160a01b03167fd6f2c8500df5b44f11e9e48b91ff9f1b9d81bc496d55570c2b1b75bf65243f51836040516109739190612ed2565b60405180910390a35b5050610191805460ff19166001179055565b60fb5460ff16156109b15760405162461bcd60e51b81526004016106a99061330d565b6109b96111c9565b6109d55760405162461bcd60e51b81526004016106a990613950565b60008181526101c6602052604090208054610a025760405162461bcd60e51b81526004016106a9906134c1565b600681015415610a245760405162461bcd60e51b81526004016106a990613787565b6000610a3082426117b7565b905060008111610a525760405162461bcd60e51b81526004016106a990613337565b6101c454610a6090826117ce565b6101c45542600683015560405183907f99b158d692e9c5440d29424d4441593c29ad41c52383617e45098ecb1fba2e0890610a9c908490612ed2565b60405180910390a2505050565b6101c55481565b610ac1610abb61151d565b826117f3565b610add5760405162461bcd60e51b81526004016106a99061370f565b610761838383611878565b60009081526065602052604090206002015490565b600082815260656020526040902060020154610b1b906104dc61151d565b610b375760405162461bcd60e51b81526004016106a990612f7b565b610b418282611986565b5050565b6001600160a01b038216600090815260c960205260408120610b6790836119ef565b90505b92915050565b610b7861151d565b6001600160a01b0316816001600160a01b031614610ba85760405162461bcd60e51b81526004016106a99061399b565b610b4182826119fb565b610bcc600080516020613b4d8339815191526104dc61151d565b610be85760405162461bcd60e51b81526004016106a9906138bb565b610bf0611a64565b565b610761838383604051806020016040528060008152506111e5565b600080610c1b60ca84611ad0565b509392505050565b610c2b6111c9565b610c475760405162461bcd60e51b81526004016106a990613950565b6101c354610c5d906001600160a01b0316611aec565b6101c380546001600160a01b0319166001600160a01b0392909216919091179055610c8661151d565b6101c3546040516001600160a01b03928316927f7c76c17de59691df2ef36af3938c91f69cd18ad27f67a54a38e38686f0b40c4992610cc792911690612e39565b60405180910390a2565b60fb5460ff1690565b6000610b6a82604051806060016040528060298152602001613b246029913960ca9190611b6c565b6000610d1388888888888888611b83565b90505b979650505050505050565b60d18054604080516020601f60026000196101006001881615020190951694909404938401819004810282018101909252828152606093909290918301828280156106785780601f1061064d57610100808354040283529160200191610678565b60006001600160a01b038216610daa5760405162461bcd60e51b81526004016106a9906133bf565b6001600160a01b038216600090815260c960205260409020610b6a9061158f565b6101c3546001600160a01b031681565b610de36111c9565b610dff5760405162461bcd60e51b81526004016106a990613950565b6101c555565b610e1f600080516020613b4d8339815191526104dc61151d565b610e3b5760405162461bcd60e51b81526004016106a990613168565b610bf0611c17565b600054610100900460ff1680610e5c5750610e5c611c70565b80610e6a575060005460ff16155b610e865760405162461bcd60e51b81526004016106a990613544565b600054610100900460ff16158015610eb1576000805460ff1961ff0019909116610100171660011790555b6001600160a01b03841615801590610ed157506001600160a01b03831615155b610eed5760405162461bcd60e51b81526004016106a990612ff8565b610ef5611c76565b610efd611cf9565b610f40604051806060016040528060258152602001613b6d602591396040518060400160405280600981526020016823a32496ab1916a1a960b91b815250611d77565b610f48611c76565b610f50611c76565b610f58611e53565b610f60611edf565b610f78600080516020613b0483398151915285610b37565b610f90600080516020613b4d83398151915285610b37565b610fa8600080516020613ae483398151915285610b37565b610fc0600080516020613b0483398151915280611f6f565b610fe6600080516020613b4d833981519152600080516020613b04833981519152611f6f565b61100c600080516020613ae4833981519152600080516020613b04833981519152611f6f565b6101c58290556101c380546001600160a01b0319166001600160a01b0385161790558015611040576000805461ff00191690555b50505050565b6000828152606560205260408120610b6790836119ef565b6000828152606560205260408120610b679083611f84565b60cf8054604080516020601f60026000196101006001881615020190951694909404938401819004810282018101909252828152606093909290918301828280156106785780601f1061064d57610100808354040283529160200191610678565b60008181526101c660205260408120610b6a90611f99565b61015f5481565b600081565b61110361151d565b6001600160a01b0316826001600160a01b031614156111345760405162461bcd60e51b81526004016106a990613209565b8060cd600061114161151d565b6001600160a01b03908116825260208083019390935260409182016000908120918716808252919093529120805460ff19169215159290921790915561118561151d565b6001600160a01b03167f17307eab39ab6107e8899845ad3d59bd9653f200f220920489ca2b5937696c31836040516111bd9190612ec7565b60405180910390a35050565b6000610782600080516020613b048339815191526104dc61151d565b6111f66111f061151d565b836117f3565b6112125760405162461bcd60e51b81526004016106a99061370f565b61104084848484611fa5565b606061122982611510565b6112455760405162461bcd60e51b81526004016106a9906135db565b600082815260d0602090815260409182902080548351601f60026000196101006001861615020190931692909204918201849004840281018401909452808452606093928301828280156112da5780601f106112af576101008083540402835291602001916112da565b820191906000526020600020905b8154815290600101906020018083116112bd57829003601f168201915b505060d154939450505050600260001961010060018416150201909116046113035790506105e7565b8051156113355760d18160405160200161131e929190612db8565b6040516020818303038152906040529150506105e7565b60d161134084611fd8565b604051602001611351929190612db8565b604051602081830303815290604052915050919050565b6000818152606560205260408120610b6a9061158f565b6101c354600090610782906001600160a01b03166120b3565b7f9f2df0fed2c77648de5860a4cc508cd0818c85b8b8a1ab4ceeef8d981c8956a681565b6000828152606560205260409020600201546113da906104dc61151d565b610ba85760405162461bcd60e51b81526004016106a9906132bd565b600080516020613b0483398151915281565b600080516020613b4d83398151915281565b6101c45481565b6001600160a01b03918216600090815260cd6020908152604080832093909416825291909152205460ff1690565b600080516020613ae483398151915281565b6114696111c9565b6114855760405162461bcd60e51b81526004016106a990613950565b600081116114a55760405162461bcd60e51b81526004016106a9906130cb565b6101c4546114b390826117ce565b6101c4556114d63330836114c561137f565b6001600160a01b03169291906120be565b7fde88a922e0d3b88b24e9623efeb464919c6bf9f66857a65e2bfcf2ce87a9433d816040516115059190612ed2565b60405180910390a150565b6000610b6a60ca836120df565b3390565b600081815260cc6020526040902080546001600160a01b0319166001600160a01b038416908117909155819061155682610cda565b6001600160a01b03167f8c5be1e5ebec7d5bd14f71427d1e84f3dd0314c0f7b2291e5b200ac8c7c3b92560405160405180910390a45050565b6000610b6a826120eb565b60008085116115bb5760405162461bcd60e51b81526004016106a9906137be565b838311156115db5760405162461bcd60e51b81526004016106a9906139ea565b6115e584836120ef565b156116025760405162461bcd60e51b81526004016106a99061367b565b6101c4548511156116255760405162461bcd60e51b81526004016106a99061386e565b6101c454611633908661212c565b6101c45561164261015f61216e565b61164d61015f6120eb565b90506040518060e00160405280868152602001600081526020016101c5548152602001611686866101c5546117ce90919063ffffffff16565b815260208082018690526040808301869052600060609384018190528581526101c683528190208451815591840151600183015583015160028201559082015160038201556080820151600482015560a0820151600582015560c0909101516006909101556116f58682612177565b80866001600160a01b03167f13fce371c40438299d0ef0c6274292b9b9989523253a77f15706673efe5863b8878787876040516117359493929190613a33565b60405180910390a395945050505050565b600182015461175590826117ce565b82600101819055505050565b6107618363a9059cbb60e01b8484604051602401611780929190612eae565b60408051601f198184030181529190526020810180516001600160e01b03166001600160e01b03199093169290921790915261223b565b6000610b676117c68484612320565b84549061212c565b600082820183811015610b675760405162461bcd60e51b81526004016106a990613131565b60006117fe82611510565b61181a5760405162461bcd60e51b81526004016106a990613271565b600061182583610cda565b9050806001600160a01b0316846001600160a01b031614806118605750836001600160a01b031661185584610682565b6001600160a01b0316145b8061187057506118708185611421565b949350505050565b826001600160a01b031661188b82610cda565b6001600160a01b0316146118b15760405162461bcd60e51b81526004016106a990613592565b6001600160a01b0382166118d75760405162461bcd60e51b81526004016106a9906131c5565b6118e2838383612349565b6118ed600082611521565b6001600160a01b038316600090815260c96020526040902061190f9082612354565b506001600160a01b038216600090815260c9602052604090206119329082612360565b5061193f60ca828461236c565b5080826001600160a01b0316846001600160a01b03167fddf252ad1be2c89b69c2b068fc378daa952ba7f163c4a11628f55a4df523b3ef60405160405180910390a4505050565b600082815260656020526040902061199e9082612382565b15610b41576119ab61151d565b6001600160a01b0316816001600160a01b0316837f2f8788117e7eff1d82e926ec794901d17c78024a50270940304540a733656f0d60405160405180910390a45050565b6000610b678383612397565b6000828152606560205260409020611a1390826123dc565b15610b4157611a2061151d565b6001600160a01b0316816001600160a01b0316837ff6391f5c32d9c69d2a47ea670b442974b53935d1edc7fd64eb21e047a839171b60405160405180910390a45050565b60fb5460ff16611a865760405162461bcd60e51b81526004016106a990612fca565b60fb805460ff191690557f5db9ee0a495bf2e6ff9c91a7834c1ba4fdd244a5e8aa4e537bd38aeae4b073aa611ab961151d565b604051611ac69190612e39565b60405180910390a1565b6000808080611adf86866123f1565b9097909650945050505050565b60006001600160a01b03821663b93f9b0a600b5b6040518263ffffffff1660e01b8152600401611b1c9190612ed2565b60206040518083038186803b158015611b3457600080fd5b505afa158015611b48573d6000803e3d6000fd5b505050506040513d601f19601f82011682018060405250810190610b6a9190612a69565b6000611b7984848461244d565b90505b9392505050565b6000611b8f88866117ce565b821015611b9e57506000610d16565b878711611bac575084610d16565b6000808411611bbb5782611bc5565b611bc584846124ac565b90506000611bdd86611bd7848d61212c565b906124c2565b90506000611bef87611bd78c8e61212c565b9050611c08611c0282611bd78c86612504565b8a6124ac565b9b9a5050505050505050505050565b60fb5460ff1615611c3a5760405162461bcd60e51b81526004016106a99061330d565b60fb805460ff191660011790557f62e78cea01bee320cd4e420270b5ea74000d11b0c9f74754ebdbfc544b05a258611ab961151d565b303b1590565b600054610100900460ff1680611c8f5750611c8f611c70565b80611c9d575060005460ff16155b611cb95760405162461bcd60e51b81526004016106a990613544565b600054610100900460ff16158015611ce4576000805460ff1961ff0019909116610100171660011790555b8015611cf6576000805461ff00191690555b50565b600054610100900460ff1680611d125750611d12611c70565b80611d20575060005460ff16155b611d3c5760405162461bcd60e51b81526004016106a990613544565b600054610100900460ff16158015611d67576000805460ff1961ff0019909116610100171660011790555b611ce46301ffc9a760e01b61253e565b600054610100900460ff1680611d905750611d90611c70565b80611d9e575060005460ff16155b611dba5760405162461bcd60e51b81526004016106a990613544565b600054610100900460ff16158015611de5576000805460ff1961ff0019909116610100171660011790555b8251611df89060ce9060208601906129ba565b508151611e0c9060cf9060208501906129ba565b50611e1d6380ac58cd60e01b61253e565b611e2d635b5e139f60e01b61253e565b611e3d63780e9d6360e01b61253e565b8015610761576000805461ff0019169055505050565b600054610100900460ff1680611e6c5750611e6c611c70565b80611e7a575060005460ff16155b611e965760405162461bcd60e51b81526004016106a990613544565b600054610100900460ff16158015611ec1576000805460ff1961ff0019909116610100171660011790555b60fb805460ff191690558015611cf6576000805461ff001916905550565b600054610100900460ff1680611ef85750611ef8611c70565b80611f06575060005460ff16155b611f225760405162461bcd60e51b81526004016106a990613544565b600054610100900460ff16158015611f4d576000805460ff1961ff0019909116610100171660011790555b610191805460ff191660011790558015611cf6576000805461ff001916905550565b60009182526065602052604090912060020155565b6000610b67836001600160a01b03841661258d565b6000610b6a82426125a5565b611fb0848484611878565b611fbc848484846125c1565b6110405760405162461bcd60e51b81526004016106a990613042565b606081611ffd57506040805180820190915260018152600360fc1b60208201526105e7565b8160005b811561201557600101600a82049150612001565b60608167ffffffffffffffff8111801561202e57600080fd5b506040519080825280601f01601f191660200182016040528015612059576020820181803683370190505b50859350905060001982015b83156120aa57600a840660300160f81b8282806001900393508151811061208857fe5b60200101906001600160f81b031916908160001a905350600a84049350612065565b50949350505050565b6000610b6a826126fb565b611040846323b872dd60e01b85858560405160240161178093929190612e8a565b6000610b67838361258d565b5490565b6000610b67838360405180604001604052806018815260200177536166654d6174683a206d6f64756c6f206279207a65726f60401b815250612713565b6000610b6783836040518060400160405280601e81526020017f536166654d6174683a207375627472616374696f6e206f766572666c6f770000815250612747565b80546001019055565b6001600160a01b03821661219d5760405162461bcd60e51b81526004016106a99061344b565b6121a681611510565b156121c35760405162461bcd60e51b81526004016106a9906130fa565b6121cf60008383612349565b6001600160a01b038216600090815260c9602052604090206121f19082612360565b506121fe60ca828461236c565b5060405181906001600160a01b038416906000907fddf252ad1be2c89b69c2b068fc378daa952ba7f163c4a11628f55a4df523b3ef908290a45050565b61224d826001600160a01b0316612773565b6122695760405162461bcd60e51b81526004016106a990613919565b60006060836001600160a01b0316836040516122859190612d9c565b6000604051808303816000865af19150503d80600081146122c2576040519150601f19603f3d011682016040523d82523d6000602084013e6122c7565b606091505b5091509150816122e95760405162461bcd60e51b81526004016106a99061323c565b80511561104057808060200190518101906123049190612c74565b6110405760405162461bcd60e51b81526004016106a9906137ed565b6000610b6783600201548460030154856000015486600401548760050154886006015488611b83565b6107618383836127ac565b6000610b6783836127dc565b6000610b6783836128a2565b6000611b7984846001600160a01b0385166128ec565b6000610b67836001600160a01b0384166128a2565b815460009082106123ba5760405162461bcd60e51b81526004016106a990612eee565b8260000182815481106123c957fe5b9060005260206000200154905092915050565b6000610b67836001600160a01b0384166127dc565b8154600090819083106124165760405162461bcd60e51b81526004016106a990613409565b600084600001848154811061242757fe5b906000526020600020906002020190508060000154816001015492509250509250929050565b6000828152600184016020526040812054828161247d5760405162461bcd60e51b81526004016106a99190612edb565b5084600001600182038154811061249057fe5b9060005260206000209060020201600101549150509392505050565b60008183106124bb5781610b67565b5090919050565b6000610b6783836040518060400160405280601a81526020017f536166654d6174683a206469766973696f6e206279207a65726f000000000000815250612983565b60008261251357506000610b6a565b8282028284828161252057fe5b0414610b675760405162461bcd60e51b81526004016106a990613480565b6001600160e01b031980821614156125685760405162461bcd60e51b81526004016106a990613094565b6001600160e01b0319166000908152609760205260409020805460ff19166001179055565b60009081526001919091016020526040902054151590565b6001820154600090610b67906125bb8585612320565b9061212c565b60006125d5846001600160a01b0316612773565b6125e157506001611870565b600060606001600160a01b038616630a85bd0160e11b6125ff61151d565b8988886040516024016126159493929190612e4d565b60408051601f198184030181529181526020820180516001600160e01b03166001600160e01b03199094169390931790925290516126539190612d9c565b6000604051808303816000865af19150503d8060008114612690576040519150601f19603f3d011682016040523d82523d6000602084013e612695565b606091505b5091509150816126c7578051156126af5780518082602001fd5b60405162461bcd60e51b81526004016106a990613042565b6000818060200190518101906126dd9190612d09565b6001600160e01b031916630a85bd0160e11b14935061187092505050565b60006001600160a01b03821663b93f9b0a6012611b00565b600081836127345760405162461bcd60e51b81526004016106a99190612edb565b5082848161273e57fe5b06949350505050565b6000818484111561276b5760405162461bcd60e51b81526004016106a99190612edb565b505050900390565b6000813f7fc5d2460186f7233c927e7db2dcc703c0e500b653ca82273b7bfad8045d85a470818114801590611870575050151592915050565b6127b7838383610761565b6127bf610cd1565b156107615760405162461bcd60e51b81526004016106a990612f30565b60008181526001830160205260408120548015612898578354600019808301919081019060009087908390811061280f57fe5b906000526020600020015490508087600001848154811061282c57fe5b60009182526020808320909101929092558281526001898101909252604090209084019055865487908061285c57fe5b60019003818190600052602060002001600090559055866001016000878152602001908152602001600020600090556001945050505050610b6a565b6000915050610b6a565b60006128ae838361258d565b6128e457508154600181810184556000848152602080822090930184905584548482528286019093526040902091909155610b6a565b506000610b6a565b600082815260018401602052604081205480612951575050604080518082018252838152602080820184815286546001818101895560008981528481209551600290930290950191825591519082015586548684528188019092529290912055611b7c565b8285600001600183038154811061296457fe5b9060005260206000209060020201600101819055506000915050611b7c565b600081836129a45760405162461bcd60e51b81526004016106a99190612edb565b5060008385816129b057fe5b0495945050505050565b828054600181600116156101000203166002900490600052602060002090601f016020900481019282601f106129fb57805160ff1916838001178555612a28565b82800160010185558215612a28579182015b82811115612a28578251825591602001919060010190612a0d565b50612a34929150612a38565b5090565b5b80821115612a345760008155600101612a39565b600060208284031215612a5e578081fd5b8135610b6781613aaa565b600060208284031215612a7a578081fd5b8151610b6781613aaa565b60008060408385031215612a97578081fd5b8235612aa281613aaa565b91506020830135612ab281613aaa565b809150509250929050565b600080600060608486031215612ad1578081fd5b8335612adc81613aaa565b92506020840135612aec81613aaa565b929592945050506040919091013590565b60008060008060808587031215612b12578081fd5b8435612b1d81613aaa565b9350602085810135612b2e81613aaa565b935060408601359250606086013567ffffffffffffffff80821115612b51578384fd5b818801915088601f830112612b64578384fd5b813581811115612b72578485fd5b604051601f8201601f1916810185018381118282101715612b91578687fd5b60405281815283820185018b1015612ba7578586fd5b81858501868301379081019093019390935250939692955090935050565b60008060408385031215612bd7578182fd5b8235612be281613aaa565b91506020830135612ab281613abf565b600080600060608486031215612ad1578283fd5b60008060408385031215612c18578182fd5b8235612c2381613aaa565b946020939093013593505050565b600080600080600060a08688031215612c48578081fd5b8535612c5381613aaa565b97602087013597506040870135966060810135965060800135945092505050565b600060208284031215612c85578081fd5b8151610b6781613abf565b600060208284031215612ca1578081fd5b5035919050565b60008060408385031215612cba578182fd5b823591506020830135612ab281613aaa565b60008060408385031215612cde578182fd5b50508035926020909101359150565b600060208284031215612cfe578081fd5b8135610b6781613acd565b600060208284031215612d1a578081fd5b8151610b6781613acd565b600080600080600080600060e0888a031215612d3f578485fd5b505085359760208701359750604087013596606081013596506080810135955060a0810135945060c0013592509050565b60008151808452612d88816020860160208601613a7e565b601f01601f19169290920160200192915050565b60008251612dae818460208701613a7e565b9190910192915050565b6000808454600180821660008114612dd75760018114612dee57612e1d565b60ff198316865260028304607f1686019350612e1d565b600283048886526020808720875b83811015612e155781548a820152908501908201612dfc565b505050860193505b5050508351612e30818360208801613a7e565b01949350505050565b6001600160a01b0391909116815260200190565b6001600160a01b0385811682528416602082015260408101839052608060608201819052600090612e8090830184612d70565b9695505050505050565b6001600160a01b039384168152919092166020820152604081019190915260600190565b6001600160a01b03929092168252602082015260400190565b901515815260200190565b90815260200190565b600060208252610b676020830184612d70565b60208082526022908201527f456e756d657261626c655365743a20696e646578206f7574206f6620626f756e604082015261647360f01b606082015260800190565b6020808252602b908201527f4552433732315061757361626c653a20746f6b656e207472616e73666572207760408201526a1a1a5b19481c185d5cd95960aa1b606082015260800190565b6020808252602f908201527f416363657373436f6e74726f6c3a2073656e646572206d75737420626520616e60408201526e0818591b5a5b881d1bc819dc985b9d608a1b606082015260800190565b60208082526014908201527314185d5cd8589b194e881b9bdd081c185d5cd95960621b604082015260600190565b6020808252602a908201527f4f776e657220616e6420636f6e666967206164647265737365732063616e6e6f6040820152697420626520656d70747960b01b606082015260800190565b60208082526032908201527f4552433732313a207472616e7366657220746f206e6f6e20455243373231526560408201527131b2b4bb32b91034b6b83632b6b2b73a32b960711b606082015260800190565b6020808252601c908201527f4552433136353a20696e76616c696420696e7465726661636520696400000000604082015260600190565b60208082526015908201527443616e6e6f74206c6f61642030207265776172647360581b604082015260600190565b6020808252601c908201527f4552433732313a20746f6b656e20616c7265616479206d696e74656400000000604082015260600190565b6020808252601b908201527f536166654d6174683a206164646974696f6e206f766572666c6f770000000000604082015260600190565b6020808252603e908201527f4552433732315072657365744d696e7465725061757365724175746f49643a2060408201527f6d75737420686176652070617573657220726f6c6520746f2070617573650000606082015260800190565b60208082526024908201527f4552433732313a207472616e7366657220746f20746865207a65726f206164646040820152637265737360e01b606082015260800190565b60208082526019908201527822a9219b99189d1030b8383937bb32903a379031b0b63632b960391b604082015260600190565b6020808252818101527f5361666545524332303a206c6f772d6c6576656c2063616c6c206661696c6564604082015260600190565b6020808252602c908201527f4552433732313a206f70657261746f7220717565727920666f72206e6f6e657860408201526b34b9ba32b73a103a37b5b2b760a11b606082015260800190565b60208082526030908201527f416363657373436f6e74726f6c3a2073656e646572206d75737420626520616e60408201526f2061646d696e20746f207265766f6b6560801b606082015260800190565b60208082526010908201526f14185d5cd8589b194e881c185d5cd95960821b604082015260600190565b60208082526016908201527511dc985b9d081a185cc8199d5b1b1e481d995cdd195960521b604082015260600190565b60208082526038908201527f4552433732313a20617070726f76652063616c6c6572206973206e6f74206f776040820152771b995c881b9bdc88185c1c1c9bdd995908199bdc88185b1b60421b606082015260800190565b6020808252602a908201527f4552433732313a2062616c616e636520717565727920666f7220746865207a65604082015269726f206164647265737360b01b606082015260800190565b60208082526022908201527f456e756d657261626c654d61703a20696e646578206f7574206f6620626f756e604082015261647360f01b606082015260800190565b6020808252818101527f4552433732313a206d696e7420746f20746865207a65726f2061646472657373604082015260600190565b60208082526021908201527f536166654d6174683a206d756c7469706c69636174696f6e206f766572666c6f6040820152607760f81b606082015260800190565b6020808252601e908201527f4772616e74206e6f7420646566696e656420666f7220746f6b656e2069640000604082015260600190565b6020808252602c908201527f4552433732313a20617070726f76656420717565727920666f72206e6f6e657860408201526b34b9ba32b73a103a37b5b2b760a11b606082015260800190565b6020808252602e908201527f436f6e747261637420696e7374616e63652068617320616c726561647920626560408201526d195b881a5b9a5d1a585b1a5e995960921b606082015260800190565b60208082526029908201527f4552433732313a207472616e73666572206f6620746f6b656e2074686174206960408201526839903737ba1037bbb760b91b606082015260800190565b6020808252602f908201527f4552433732314d657461646174613a2055524920717565727920666f72206e6f60408201526e3732bc34b9ba32b73a103a37b5b2b760891b606082015260800190565b60208082526031908201527f4d7573742068617665206469737472696275746f7220726f6c6520746f207065604082015270393337b936903a3434b99030b1ba34b7b760791b606082015260800190565b60208082526033908201527f56657374696e6720696e74657276616c206d757374206265206120666163746f6040820152720e440decc40eccae6e8d2dcce40d8cadccee8d606b1b606082015260800190565b60208082526021908201527f4552433732313a20617070726f76616c20746f2063757272656e74206f776e656040820152603960f91b606082015260800190565b60208082526031908201527f4552433732313a207472616e736665722063616c6c6572206973206e6f74206f6040820152701ddb995c881b9bdc88185c1c1c9bdd9959607a1b606082015260800190565b6020808252600d908201526c1858d8d95cdcc819195b9a5959609a1b604082015260600190565b6020808252601e908201527f4772616e742068617320616c7265616479206265656e207265766f6b65640000604082015260600190565b60208082526015908201527410d85b9b9bdd0819dc985b9d080c08185b5bdd5b9d605a1b604082015260600190565b6020808252602a908201527f5361666545524332303a204552433230206f7065726174696f6e20646964206e6040820152691bdd081cdd58d8d9595960b21b606082015260800190565b6020808252601f908201527f5265656e7472616e637947756172643a207265656e7472616e742063616c6c00604082015260600190565b6020808252602d908201527f43616e6e6f74206772616e7420616d6f756e742064756520746f20696e73756660408201526c66696369656e742066756e647360981b606082015260800190565b602080825260409082018190527f4552433732315072657365744d696e7465725061757365724175746f49643a20908201527f6d75737420686176652070617573657220726f6c6520746f20756e7061757365606082015260800190565b6020808252601f908201527f5361666545524332303a2063616c6c20746f206e6f6e2d636f6e747261637400604082015260600190565b6020808252602b908201527f4d75737420686176652061646d696e20726f6c6520746f20706572666f726d2060408201526a3a3434b99030b1ba34b7b760a91b606082015260800190565b6020808252602f908201527f416363657373436f6e74726f6c3a2063616e206f6e6c792072656e6f756e636560408201526e103937b632b9903337b91039b2b63360891b606082015260800190565b60208082526029908201527f436c696666206c656e6774682063616e6e6f74206578636565642076657374696040820152680dcce40d8cadccee8d60bb1b606082015260800190565b93845260208401929092526040830152606082015260800190565b968752602087019590955260408601939093526060850191909152608084015260a083015260c082015260e00190565b60005b83811015613a99578181015183820152602001613a81565b838111156110405750506000910152565b6001600160a01b0381168114611cf657600080fd5b8015158114611cf657600080fd5b6001600160e01b031981168114611cf657600080fdfefbd454f36a7e1a388bd6fc3ab10d434aa4578f811acbbcf33afb1c697486313cb19546dff01e856fb3f010c267a7b1c60363cf8a4664e21cc89c26224620214e4552433732313a206f776e657220717565727920666f72206e6f6e6578697374656e7420746f6b656e65d7a28e3265b37a6474929f336521b332c1681b933f6cb9f3376673440d862a476f6c6466696e636820563220436f6d6d756e697479205265776172647320546f6b656e73a2646970667358221220ca987a0ba96c6d056730ecdd998fd2dea273edeae3a857c181fa269d48bba53d64736f6c634300060c0033",
  "devdoc": {
    "kind": "dev",
    "methods": {
      "approve(address,uint256)": {
        "details": "Approves another address to transfer the given token ID The zero address indicates there is no approved address. There can only be one approved address per token at a given time. Can only be called by the token owner or an approved operator.",
        "params": {
          "to": "address to be approved for the given token ID",
          "tokenId": "uint256 ID of the token to be approved"
        }
      },
      "balanceOf(address)": {
        "details": "Gets the balance of the specified address.",
        "params": {
          "owner": "address to query the balance of"
        },
        "returns": {
          "_0": "uint256 representing the amount owned by the passed address"
        }
      },
      "baseURI()": {
        "details": "Returns the base URI set via {_setBaseURI}. This will be automatically added as a prefix in {tokenURI} to each token's URI, or to the token ID if no specific URI is set for that token ID."
      },
      "claimableRewards(uint256)": {
        "returns": {
          "rewards": "Amount of rewards denominated in `rewardsToken()`"
        }
      },
      "getApproved(uint256)": {
        "details": "Gets the approved address for a token ID, or zero if no address set Reverts if the token ID does not exist.",
        "params": {
          "tokenId": "uint256 ID of the token to query the approval of"
        },
        "returns": {
          "_0": "address currently approved for the given token ID"
        }
      },
      "getReward(uint256)": {
        "params": {
          "tokenId": "A grant token ID"
        }
      },
      "getRoleAdmin(bytes32)": {
        "details": "Returns the admin role that controls `role`. See {grantRole} and {revokeRole}. To change a role's admin, use {_setRoleAdmin}."
      },
      "getRoleMember(bytes32,uint256)": {
        "details": "Returns one of the accounts that have `role`. `index` must be a value between 0 and {getRoleMemberCount}, non-inclusive. Role bearers are not sorted in any particular way, and their ordering may change at any point. WARNING: When using {getRoleMember} and {getRoleMemberCount}, make sure you perform all queries on the same block. See the following https://forum.openzeppelin.com/t/iterating-over-elements-on-enumerableset-in-openzeppelin-contracts/2296[forum post] for more information."
      },
      "getRoleMemberCount(bytes32)": {
        "details": "Returns the number of accounts that have `role`. Can be used together with {getRoleMember} to enumerate all bearers of a role."
      },
      "grant(address,uint256,uint256,uint256,uint256)": {
        "params": {
          "amount": "The amount of `rewardsToken()` to grant.",
          "cliffLength": "The duration (in seconds) from the start of the grant, before which has elapsed the vested amount remains 0.",
          "recipient": "The recipient of the grant.",
          "vestingInterval": "The interval (in seconds) at which vesting occurs. Must be a factor of `vestingLength`.",
          "vestingLength": "The duration (in seconds) over which the grant vests."
        }
      },
      "grantRole(bytes32,address)": {
        "details": "Grants `role` to `account`. If `account` had not been already granted `role`, emits a {RoleGranted} event. Requirements: - the caller must have ``role``'s admin role."
      },
      "hasRole(bytes32,address)": {
        "details": "Returns `true` if `account` has been granted `role`."
      },
      "isApprovedForAll(address,address)": {
        "details": "Tells whether an operator is approved by a given owner.",
        "params": {
          "operator": "operator address which you want to query the approval of",
          "owner": "owner address which you want to query the approval of"
        },
        "returns": {
          "_0": "bool whether the given operator is approved by the given owner"
        }
      },
      "name()": {
        "details": "Gets the token name.",
        "returns": {
          "_0": "string representing the token name"
        }
      },
      "ownerOf(uint256)": {
        "details": "Gets the owner of the specified token ID.",
        "params": {
          "tokenId": "uint256 ID of the token to query the owner of"
        },
        "returns": {
          "_0": "address currently marked as the owner of the given token ID"
        }
      },
      "pause()": {
        "details": "Pauses all token transfers. See {ERC721Pausable} and {Pausable-_pause}. Requirements: - the caller must have the `PAUSER_ROLE`."
      },
      "paused()": {
        "details": "Returns true if the contract is paused, and false otherwise."
      },
      "renounceRole(bytes32,address)": {
        "details": "Revokes `role` from the calling account. Roles are often managed via {grantRole} and {revokeRole}: this function's purpose is to provide a mechanism for accounts to lose their privileges if they are compromised (such as when a trusted device is misplaced). If the calling account had been granted `role`, emits a {RoleRevoked} event. Requirements: - the caller must be `account`."
      },
      "revokeGrant(uint256)": {
        "params": {
          "tokenId": "The tokenId corresponding to the grant whose unvested rewards to revoke."
        }
      },
      "revokeRole(bytes32,address)": {
        "details": "Revokes `role` from `account`. If `account` had been granted `role`, emits a {RoleRevoked} event. Requirements: - the caller must have ``role``'s admin role."
      },
      "safeTransferFrom(address,address,uint256)": {
        "details": "Safely transfers the ownership of a given token ID to another address If the target address is a contract, it must implement {IERC721Receiver-onERC721Received}, which is called upon a safe transfer, and return the magic value `bytes4(keccak256(\"onERC721Received(address,address,uint256,bytes)\"))`; otherwise, the transfer is reverted. Requires the msg.sender to be the owner, approved, or operator",
        "params": {
          "from": "current owner of the token",
          "to": "address to receive the ownership of the given token ID",
          "tokenId": "uint256 ID of the token to be transferred"
        }
      },
      "safeTransferFrom(address,address,uint256,bytes)": {
        "details": "Safely transfers the ownership of a given token ID to another address If the target address is a contract, it must implement {IERC721Receiver-onERC721Received}, which is called upon a safe transfer, and return the magic value `bytes4(keccak256(\"onERC721Received(address,address,uint256,bytes)\"))`; otherwise, the transfer is reverted. Requires the _msgSender() to be the owner, approved, or operator",
        "params": {
          "_data": "bytes data to send along with a safe transfer check",
          "from": "current owner of the token",
          "to": "address to receive the ownership of the given token ID",
          "tokenId": "uint256 ID of the token to be transferred"
        }
      },
      "setApprovalForAll(address,bool)": {
        "details": "Sets or unsets the approval of a given operator An operator is allowed to transfer all tokens of the sender on their behalf.",
        "params": {
          "approved": "representing the status of the approval to be set",
          "operator": "operator address to set the approval"
        }
      },
      "supportsInterface(bytes4)": {
        "details": "See {IERC165-supportsInterface}. Time complexity O(1), guaranteed to always use less than 30 000 gas."
      },
      "symbol()": {
        "details": "Gets the token symbol.",
        "returns": {
          "_0": "string representing the token symbol"
        }
      },
      "tokenByIndex(uint256)": {
        "details": "Gets the token ID at a given index of all the tokens in this contract Reverts if the index is greater or equal to the total number of tokens.",
        "params": {
          "index": "uint256 representing the index to be accessed of the tokens list"
        },
        "returns": {
          "_0": "uint256 token ID at the given index of the tokens list"
        }
      },
      "tokenOfOwnerByIndex(address,uint256)": {
        "details": "Gets the token ID at a given index of the tokens list of the requested owner.",
        "params": {
          "index": "uint256 representing the index to be accessed of the requested tokens list",
          "owner": "address owning the tokens list to be accessed"
        },
        "returns": {
          "_0": "uint256 token ID at the given index of the tokens list owned by the requested address"
        }
      },
      "tokenURI(uint256)": {
        "details": "Returns the URI for a given token ID. May return an empty string. If a base URI is set (via {_setBaseURI}), it is added as a prefix to the token's own URI (via {_setTokenURI}). If there is a base URI but no token URI, the token's ID will be used as its URI when appending it to the base URI. This pattern for autogenerated token URIs can lead to large gas savings. .Examples |=== |`_setBaseURI()` |`_setTokenURI()` |`tokenURI()` | \"\" | \"\" | \"\" | \"\" | \"token.uri/123\" | \"token.uri/123\" | \"token.uri/\" | \"123\" | \"token.uri/123\" | \"token.uri/\" | \"\" | \"token.uri/<tokenId>\" |=== Requirements: - `tokenId` must exist."
      },
      "totalSupply()": {
        "details": "Gets the total amount of tokens stored by the contract.",
        "returns": {
          "_0": "uint256 representing the total amount of tokens"
        }
      },
      "totalVestedAt(uint256,uint256,uint256,uint256,uint256,uint256,uint256)": {
        "returns": {
          "rewards": "Amount of rewards denominated in `rewardsToken()`"
        }
      },
      "transferFrom(address,address,uint256)": {
        "details": "Transfers the ownership of a given token ID to another address. Usage of this method is discouraged, use {safeTransferFrom} whenever possible. Requires the msg.sender to be the owner, approved, or operator.",
        "params": {
          "from": "current owner of the token",
          "to": "address to receive the ownership of the given token ID",
          "tokenId": "uint256 ID of the token to be transferred"
        }
      },
      "unpause()": {
        "details": "Unpauses all token transfers. See {ERC721Pausable} and {Pausable-_unpause}. Requirements: - the caller must have the `PAUSER_ROLE`."
      }
    },
    "stateVariables": {
      "grants": {
        "details": "NFT tokenId => rewards grant"
      }
    },
    "version": 1
  },
  "userdoc": {
    "kind": "user",
    "methods": {
      "claimableRewards(uint256)": {
        "notice": "Returns the rewards claimable by a given grant token, taking into   account vesting schedule."
      },
      "getReward(uint256)": {
        "notice": "Claim rewards for a given grant"
      },
      "grant(address,uint256,uint256,uint256,uint256)": {
        "notice": "Grant rewards to a recipient. The recipient address receives an   an NFT representing their rewards grant. They can present the NFT to `getReward()`   to claim their rewards. Rewards vest over a schedule."
      },
      "loadRewards(uint256)": {
        "notice": "Transfer rewards from msg.sender, to be used for reward distribution"
      },
      "revokeGrant(uint256)": {
        "notice": "Revokes rewards that have not yet vested, for a grant. The unvested rewards are now considered available for allocation in another grant."
      },
      "rewardsAvailable()": {
        "notice": "Total rewards available for granting, denominated in `rewardsToken()`"
      },
      "rewardsToken()": {
        "notice": "The token being disbursed as rewards"
      },
      "tokenLaunchTimeInSeconds()": {
        "notice": "Token launch time in seconds. This is used in vesting."
      },
      "totalVestedAt(uint256,uint256,uint256,uint256,uint256,uint256,uint256)": {
        "notice": "Returns the rewards that will have vested for some grant with the given params."
      },
      "updateGoldfinchConfig()": {
        "notice": "updates current config"
      }
    },
    "version": 1
  },
  "storageLayout": {
    "storage": [
      {
        "astId": 151,
        "contract": "contracts/rewards/CommunityRewards.sol:CommunityRewards",
        "label": "initialized",
        "offset": 0,
        "slot": "0",
        "type": "t_bool"
      },
      {
        "astId": 154,
        "contract": "contracts/rewards/CommunityRewards.sol:CommunityRewards",
        "label": "initializing",
        "offset": 1,
        "slot": "0",
        "type": "t_bool"
      },
      {
        "astId": 219,
        "contract": "contracts/rewards/CommunityRewards.sol:CommunityRewards",
        "label": "______gap",
        "offset": 0,
        "slot": "1",
        "type": "t_array(t_uint256)50_storage"
      },
      {
        "astId": 144,
        "contract": "contracts/rewards/CommunityRewards.sol:CommunityRewards",
        "label": "__gap",
        "offset": 0,
        "slot": "51",
        "type": "t_array(t_uint256)50_storage"
      },
      {
        "astId": 264,
        "contract": "contracts/rewards/CommunityRewards.sol:CommunityRewards",
        "label": "_roles",
        "offset": 0,
        "slot": "101",
        "type": "t_mapping(t_bytes32,t_struct(RoleData)260_storage)"
      },
      {
        "astId": 509,
        "contract": "contracts/rewards/CommunityRewards.sol:CommunityRewards",
        "label": "__gap",
        "offset": 0,
        "slot": "102",
        "type": "t_array(t_uint256)49_storage"
      },
      {
        "astId": 527,
        "contract": "contracts/rewards/CommunityRewards.sol:CommunityRewards",
        "label": "_supportedInterfaces",
        "offset": 0,
        "slot": "151",
        "type": "t_mapping(t_bytes4,t_bool)"
      },
      {
        "astId": 584,
        "contract": "contracts/rewards/CommunityRewards.sol:CommunityRewards",
        "label": "__gap",
        "offset": 0,
        "slot": "152",
        "type": "t_array(t_uint256)49_storage"
      },
      {
        "astId": 2269,
        "contract": "contracts/rewards/CommunityRewards.sol:CommunityRewards",
        "label": "_holderTokens",
        "offset": 0,
        "slot": "201",
        "type": "t_mapping(t_address,t_struct(UintSet)4313_storage)"
      },
      {
        "astId": 2271,
        "contract": "contracts/rewards/CommunityRewards.sol:CommunityRewards",
        "label": "_tokenOwners",
        "offset": 0,
        "slot": "202",
        "type": "t_struct(UintToAddressMap)3838_storage"
      },
      {
        "astId": 2275,
        "contract": "contracts/rewards/CommunityRewards.sol:CommunityRewards",
        "label": "_tokenApprovals",
        "offset": 0,
        "slot": "204",
        "type": "t_mapping(t_uint256,t_address)"
      },
      {
        "astId": 2281,
        "contract": "contracts/rewards/CommunityRewards.sol:CommunityRewards",
        "label": "_operatorApprovals",
        "offset": 0,
        "slot": "205",
        "type": "t_mapping(t_address,t_mapping(t_address,t_bool))"
      },
      {
        "astId": 2283,
        "contract": "contracts/rewards/CommunityRewards.sol:CommunityRewards",
        "label": "_name",
        "offset": 0,
        "slot": "206",
        "type": "t_string_storage"
      },
      {
        "astId": 2285,
        "contract": "contracts/rewards/CommunityRewards.sol:CommunityRewards",
        "label": "_symbol",
        "offset": 0,
        "slot": "207",
        "type": "t_string_storage"
      },
      {
        "astId": 2289,
        "contract": "contracts/rewards/CommunityRewards.sol:CommunityRewards",
        "label": "_tokenURIs",
        "offset": 0,
        "slot": "208",
        "type": "t_mapping(t_uint256,t_string_storage)"
      },
      {
        "astId": 2291,
        "contract": "contracts/rewards/CommunityRewards.sol:CommunityRewards",
        "label": "_baseURI",
        "offset": 0,
        "slot": "209",
        "type": "t_string_storage"
      },
      {
        "astId": 3197,
        "contract": "contracts/rewards/CommunityRewards.sol:CommunityRewards",
        "label": "__gap",
        "offset": 0,
        "slot": "210",
        "type": "t_array(t_uint256)41_storage"
      },
      {
        "astId": 4429,
        "contract": "contracts/rewards/CommunityRewards.sol:CommunityRewards",
        "label": "_paused",
        "offset": 0,
        "slot": "251",
        "type": "t_bool"
      },
      {
        "astId": 4518,
        "contract": "contracts/rewards/CommunityRewards.sol:CommunityRewards",
        "label": "__gap",
        "offset": 0,
        "slot": "252",
        "type": "t_array(t_uint256)49_storage"
      },
      {
        "astId": 3265,
        "contract": "contracts/rewards/CommunityRewards.sol:CommunityRewards",
        "label": "__gap",
        "offset": 0,
        "slot": "301",
        "type": "t_array(t_uint256)50_storage"
      },
      {
        "astId": 7677,
        "contract": "contracts/rewards/CommunityRewards.sol:CommunityRewards",
        "label": "_tokenIdTracker",
        "offset": 0,
        "slot": "351",
        "type": "t_struct(Counter)3518_storage"
      },
      {
        "astId": 7735,
        "contract": "contracts/rewards/CommunityRewards.sol:CommunityRewards",
        "label": "__gap",
        "offset": 0,
        "slot": "352",
        "type": "t_array(t_uint256)49_storage"
      },
      {
        "astId": 4527,
        "contract": "contracts/rewards/CommunityRewards.sol:CommunityRewards",
        "label": "_notEntered",
        "offset": 0,
        "slot": "401",
        "type": "t_bool"
      },
      {
        "astId": 4568,
        "contract": "contracts/rewards/CommunityRewards.sol:CommunityRewards",
        "label": "__gap",
        "offset": 0,
        "slot": "402",
        "type": "t_array(t_uint256)49_storage"
      },
      {
        "astId": 28944,
        "contract": "contracts/rewards/CommunityRewards.sol:CommunityRewards",
        "label": "config",
        "offset": 0,
        "slot": "451",
        "type": "t_contract(GoldfinchConfig)17304"
      },
      {
        "astId": 28947,
        "contract": "contracts/rewards/CommunityRewards.sol:CommunityRewards",
        "label": "rewardsAvailable",
        "offset": 0,
        "slot": "452",
        "type": "t_uint256"
      },
      {
        "astId": 28950,
        "contract": "contracts/rewards/CommunityRewards.sol:CommunityRewards",
        "label": "tokenLaunchTimeInSeconds",
        "offset": 0,
        "slot": "453",
        "type": "t_uint256"
      },
      {
        "astId": 28955,
        "contract": "contracts/rewards/CommunityRewards.sol:CommunityRewards",
        "label": "grants",
        "offset": 0,
        "slot": "454",
        "type": "t_mapping(t_uint256,t_struct(Rewards)10701_storage)"
      }
    ],
    "types": {
      "t_address": {
        "encoding": "inplace",
        "label": "address",
        "numberOfBytes": "20"
      },
      "t_array(t_bytes32)dyn_storage": {
        "base": "t_bytes32",
        "encoding": "dynamic_array",
        "label": "bytes32[]",
        "numberOfBytes": "32"
      },
      "t_array(t_struct(MapEntry)3566_storage)dyn_storage": {
        "base": "t_struct(MapEntry)3566_storage",
        "encoding": "dynamic_array",
        "label": "struct EnumerableMap.MapEntry[]",
        "numberOfBytes": "32"
      },
      "t_array(t_uint256)41_storage": {
        "base": "t_uint256",
        "encoding": "inplace",
        "label": "uint256[41]",
        "numberOfBytes": "1312"
      },
      "t_array(t_uint256)49_storage": {
        "base": "t_uint256",
        "encoding": "inplace",
        "label": "uint256[49]",
        "numberOfBytes": "1568"
      },
      "t_array(t_uint256)50_storage": {
        "base": "t_uint256",
        "encoding": "inplace",
        "label": "uint256[50]",
        "numberOfBytes": "1600"
      },
      "t_bool": {
        "encoding": "inplace",
        "label": "bool",
        "numberOfBytes": "1"
      },
      "t_bytes32": {
        "encoding": "inplace",
        "label": "bytes32",
        "numberOfBytes": "32"
      },
      "t_bytes4": {
        "encoding": "inplace",
        "label": "bytes4",
        "numberOfBytes": "4"
      },
      "t_contract(GoldfinchConfig)17304": {
        "encoding": "inplace",
        "label": "contract GoldfinchConfig",
        "numberOfBytes": "20"
      },
      "t_mapping(t_address,t_bool)": {
        "encoding": "mapping",
        "key": "t_address",
        "label": "mapping(address => bool)",
        "numberOfBytes": "32",
        "value": "t_bool"
      },
      "t_mapping(t_address,t_mapping(t_address,t_bool))": {
        "encoding": "mapping",
        "key": "t_address",
        "label": "mapping(address => mapping(address => bool))",
        "numberOfBytes": "32",
        "value": "t_mapping(t_address,t_bool)"
      },
      "t_mapping(t_address,t_struct(UintSet)4313_storage)": {
        "encoding": "mapping",
        "key": "t_address",
        "label": "mapping(address => struct EnumerableSet.UintSet)",
        "numberOfBytes": "32",
        "value": "t_struct(UintSet)4313_storage"
      },
      "t_mapping(t_bytes32,t_struct(RoleData)260_storage)": {
        "encoding": "mapping",
        "key": "t_bytes32",
        "label": "mapping(bytes32 => struct AccessControlUpgradeSafe.RoleData)",
        "numberOfBytes": "32",
        "value": "t_struct(RoleData)260_storage"
      },
      "t_mapping(t_bytes32,t_uint256)": {
        "encoding": "mapping",
        "key": "t_bytes32",
        "label": "mapping(bytes32 => uint256)",
        "numberOfBytes": "32",
        "value": "t_uint256"
      },
      "t_mapping(t_bytes4,t_bool)": {
        "encoding": "mapping",
        "key": "t_bytes4",
        "label": "mapping(bytes4 => bool)",
        "numberOfBytes": "32",
        "value": "t_bool"
      },
      "t_mapping(t_uint256,t_address)": {
        "encoding": "mapping",
        "key": "t_uint256",
        "label": "mapping(uint256 => address)",
        "numberOfBytes": "32",
        "value": "t_address"
      },
      "t_mapping(t_uint256,t_string_storage)": {
        "encoding": "mapping",
        "key": "t_uint256",
        "label": "mapping(uint256 => string)",
        "numberOfBytes": "32",
        "value": "t_string_storage"
      },
      "t_mapping(t_uint256,t_struct(Rewards)10701_storage)": {
        "encoding": "mapping",
        "key": "t_uint256",
        "label": "mapping(uint256 => struct CommunityRewardsVesting.Rewards)",
        "numberOfBytes": "32",
        "value": "t_struct(Rewards)10701_storage"
      },
      "t_string_storage": {
        "encoding": "bytes",
        "label": "string",
        "numberOfBytes": "32"
      },
      "t_struct(AddressSet)4204_storage": {
        "encoding": "inplace",
        "label": "struct EnumerableSet.AddressSet",
        "members": [
          {
            "astId": 4203,
            "contract": "contracts/rewards/CommunityRewards.sol:CommunityRewards",
            "label": "_inner",
            "offset": 0,
            "slot": "0",
            "type": "t_struct(Set)4024_storage"
          }
        ],
        "numberOfBytes": "64"
      },
      "t_struct(Counter)3518_storage": {
        "encoding": "inplace",
        "label": "struct Counters.Counter",
        "members": [
          {
            "astId": 3517,
            "contract": "contracts/rewards/CommunityRewards.sol:CommunityRewards",
            "label": "_value",
            "offset": 0,
            "slot": "0",
            "type": "t_uint256"
          }
        ],
        "numberOfBytes": "32"
      },
      "t_struct(Map)3574_storage": {
        "encoding": "inplace",
        "label": "struct EnumerableMap.Map",
        "members": [
          {
            "astId": 3569,
            "contract": "contracts/rewards/CommunityRewards.sol:CommunityRewards",
            "label": "_entries",
            "offset": 0,
            "slot": "0",
            "type": "t_array(t_struct(MapEntry)3566_storage)dyn_storage"
          },
          {
            "astId": 3573,
            "contract": "contracts/rewards/CommunityRewards.sol:CommunityRewards",
            "label": "_indexes",
            "offset": 0,
            "slot": "1",
            "type": "t_mapping(t_bytes32,t_uint256)"
          }
        ],
        "numberOfBytes": "64"
      },
      "t_struct(MapEntry)3566_storage": {
        "encoding": "inplace",
        "label": "struct EnumerableMap.MapEntry",
        "members": [
          {
            "astId": 3563,
            "contract": "contracts/rewards/CommunityRewards.sol:CommunityRewards",
            "label": "_key",
            "offset": 0,
            "slot": "0",
            "type": "t_bytes32"
          },
          {
            "astId": 3565,
            "contract": "contracts/rewards/CommunityRewards.sol:CommunityRewards",
            "label": "_value",
            "offset": 0,
            "slot": "1",
            "type": "t_bytes32"
          }
        ],
        "numberOfBytes": "64"
      },
      "t_struct(Rewards)10701_storage": {
        "encoding": "inplace",
        "label": "struct CommunityRewardsVesting.Rewards",
        "members": [
          {
            "astId": 10688,
            "contract": "contracts/rewards/CommunityRewards.sol:CommunityRewards",
            "label": "totalGranted",
            "offset": 0,
            "slot": "0",
            "type": "t_uint256"
          },
          {
            "astId": 10690,
            "contract": "contracts/rewards/CommunityRewards.sol:CommunityRewards",
            "label": "totalClaimed",
            "offset": 0,
            "slot": "1",
            "type": "t_uint256"
          },
          {
            "astId": 10692,
            "contract": "contracts/rewards/CommunityRewards.sol:CommunityRewards",
            "label": "startTime",
            "offset": 0,
            "slot": "2",
            "type": "t_uint256"
          },
          {
            "astId": 10694,
            "contract": "contracts/rewards/CommunityRewards.sol:CommunityRewards",
            "label": "endTime",
            "offset": 0,
            "slot": "3",
            "type": "t_uint256"
          },
          {
            "astId": 10696,
            "contract": "contracts/rewards/CommunityRewards.sol:CommunityRewards",
            "label": "cliffLength",
            "offset": 0,
            "slot": "4",
            "type": "t_uint256"
          },
          {
            "astId": 10698,
            "contract": "contracts/rewards/CommunityRewards.sol:CommunityRewards",
            "label": "vestingInterval",
            "offset": 0,
            "slot": "5",
            "type": "t_uint256"
          },
          {
            "astId": 10700,
            "contract": "contracts/rewards/CommunityRewards.sol:CommunityRewards",
            "label": "revokedAt",
            "offset": 0,
            "slot": "6",
            "type": "t_uint256"
          }
        ],
        "numberOfBytes": "224"
      },
      "t_struct(RoleData)260_storage": {
        "encoding": "inplace",
        "label": "struct AccessControlUpgradeSafe.RoleData",
        "members": [
          {
            "astId": 257,
            "contract": "contracts/rewards/CommunityRewards.sol:CommunityRewards",
            "label": "members",
            "offset": 0,
            "slot": "0",
            "type": "t_struct(AddressSet)4204_storage"
          },
          {
            "astId": 259,
            "contract": "contracts/rewards/CommunityRewards.sol:CommunityRewards",
            "label": "adminRole",
            "offset": 0,
            "slot": "2",
            "type": "t_bytes32"
          }
        ],
        "numberOfBytes": "96"
      },
      "t_struct(Set)4024_storage": {
        "encoding": "inplace",
        "label": "struct EnumerableSet.Set",
        "members": [
          {
            "astId": 4019,
            "contract": "contracts/rewards/CommunityRewards.sol:CommunityRewards",
            "label": "_values",
            "offset": 0,
            "slot": "0",
            "type": "t_array(t_bytes32)dyn_storage"
          },
          {
            "astId": 4023,
            "contract": "contracts/rewards/CommunityRewards.sol:CommunityRewards",
            "label": "_indexes",
            "offset": 0,
            "slot": "1",
            "type": "t_mapping(t_bytes32,t_uint256)"
          }
        ],
        "numberOfBytes": "64"
      },
      "t_struct(UintSet)4313_storage": {
        "encoding": "inplace",
        "label": "struct EnumerableSet.UintSet",
        "members": [
          {
            "astId": 4312,
            "contract": "contracts/rewards/CommunityRewards.sol:CommunityRewards",
            "label": "_inner",
            "offset": 0,
            "slot": "0",
            "type": "t_struct(Set)4024_storage"
          }
        ],
        "numberOfBytes": "64"
      },
      "t_struct(UintToAddressMap)3838_storage": {
        "encoding": "inplace",
        "label": "struct EnumerableMap.UintToAddressMap",
        "members": [
          {
            "astId": 3837,
            "contract": "contracts/rewards/CommunityRewards.sol:CommunityRewards",
            "label": "_inner",
            "offset": 0,
            "slot": "0",
            "type": "t_struct(Map)3574_storage"
          }
        ],
        "numberOfBytes": "64"
      },
      "t_uint256": {
        "encoding": "inplace",
        "label": "uint256",
        "numberOfBytes": "32"
      }
    }
  }
}