{
  "address": "0xCc8D325aED53Df5dCcAfaaA2FF5A6715441c1E94",
  "abi": [
    {
      "anonymous": false,
      "inputs": [
        {
          "indexed": true,
          "internalType": "address",
          "name": "borrower",
          "type": "address"
        },
        {
          "indexed": true,
          "internalType": "address",
          "name": "owner",
          "type": "address"
        }
      ],
      "name": "BorrowerCreated",
      "type": "event"
    },
    {
      "anonymous": false,
      "inputs": [
        {
          "indexed": false,
          "internalType": "address",
          "name": "account",
          "type": "address"
        }
      ],
      "name": "Paused",
      "type": "event"
    },
    {
      "anonymous": false,
      "inputs": [
        {
          "indexed": true,
          "internalType": "bytes32",
          "name": "role",
          "type": "bytes32"
        },
        {
          "indexed": true,
          "internalType": "address",
          "name": "account",
          "type": "address"
        },
        {
          "indexed": true,
          "internalType": "address",
          "name": "sender",
          "type": "address"
        }
      ],
      "name": "RoleGranted",
      "type": "event"
    },
    {
      "anonymous": false,
      "inputs": [
        {
          "indexed": true,
          "internalType": "bytes32",
          "name": "role",
          "type": "bytes32"
        },
        {
          "indexed": true,
          "internalType": "address",
          "name": "account",
          "type": "address"
        },
        {
          "indexed": true,
          "internalType": "address",
          "name": "sender",
          "type": "address"
        }
      ],
      "name": "RoleRevoked",
      "type": "event"
    },
    {
      "anonymous": false,
      "inputs": [
        {
          "indexed": false,
          "internalType": "address",
          "name": "account",
          "type": "address"
        }
      ],
      "name": "Unpaused",
      "type": "event"
    },
    {
      "inputs": [],
      "name": "DEFAULT_ADMIN_ROLE",
      "outputs": [
        {
          "internalType": "bytes32",
          "name": "",
          "type": "bytes32"
        }
      ],
      "stateMutability": "view",
      "type": "function"
    },
    {
      "inputs": [],
      "name": "OWNER_ROLE",
      "outputs": [
        {
          "internalType": "bytes32",
          "name": "",
          "type": "bytes32"
        }
      ],
      "stateMutability": "view",
      "type": "function"
    },
    {
      "inputs": [],
      "name": "PAUSER_ROLE",
      "outputs": [
        {
          "internalType": "bytes32",
          "name": "",
          "type": "bytes32"
        }
      ],
      "stateMutability": "view",
      "type": "function"
    },
    {
      "inputs": [
        {
          "internalType": "address",
          "name": "owner",
          "type": "address"
        }
      ],
      "name": "__BaseUpgradeablePausable__init",
      "outputs": [],
      "stateMutability": "nonpayable",
      "type": "function"
    },
    {
      "inputs": [],
      "name": "__PauserPausable__init",
      "outputs": [],
      "stateMutability": "nonpayable",
      "type": "function"
    },
    {
      "inputs": [],
      "name": "config",
      "outputs": [
        {
          "internalType": "contract GoldfinchConfig",
          "name": "",
          "type": "address"
        }
      ],
      "stateMutability": "view",
      "type": "function"
    },
    {
      "inputs": [
        {
          "internalType": "address",
          "name": "owner",
          "type": "address"
        }
      ],
      "name": "createBorrower",
      "outputs": [
        {
          "internalType": "address",
          "name": "",
          "type": "address"
        }
      ],
      "stateMutability": "nonpayable",
      "type": "function"
    },
    {
      "inputs": [],
      "name": "createCreditLine",
      "outputs": [
        {
          "internalType": "address",
          "name": "",
          "type": "address"
        }
      ],
      "stateMutability": "nonpayable",
      "type": "function"
    },
    {
      "inputs": [
        {
          "internalType": "bytes32",
          "name": "role",
          "type": "bytes32"
        }
      ],
      "name": "getRoleAdmin",
      "outputs": [
        {
          "internalType": "bytes32",
          "name": "",
          "type": "bytes32"
        }
      ],
      "stateMutability": "view",
      "type": "function"
    },
    {
      "inputs": [
        {
          "internalType": "bytes32",
          "name": "role",
          "type": "bytes32"
        },
        {
          "internalType": "uint256",
          "name": "index",
          "type": "uint256"
        }
      ],
      "name": "getRoleMember",
      "outputs": [
        {
          "internalType": "address",
          "name": "",
          "type": "address"
        }
      ],
      "stateMutability": "view",
      "type": "function"
    },
    {
      "inputs": [
        {
          "internalType": "bytes32",
          "name": "role",
          "type": "bytes32"
        }
      ],
      "name": "getRoleMemberCount",
      "outputs": [
        {
          "internalType": "uint256",
          "name": "",
          "type": "uint256"
        }
      ],
      "stateMutability": "view",
      "type": "function"
    },
    {
      "inputs": [
        {
          "internalType": "bytes32",
          "name": "role",
          "type": "bytes32"
        },
        {
          "internalType": "address",
          "name": "account",
          "type": "address"
        }
      ],
      "name": "grantRole",
      "outputs": [],
      "stateMutability": "nonpayable",
      "type": "function"
    },
    {
      "inputs": [
        {
          "internalType": "bytes32",
          "name": "role",
          "type": "bytes32"
        },
        {
          "internalType": "address",
          "name": "account",
          "type": "address"
        }
      ],
      "name": "hasRole",
      "outputs": [
        {
          "internalType": "bool",
          "name": "",
          "type": "bool"
        }
      ],
      "stateMutability": "view",
      "type": "function"
    },
    {
      "inputs": [
        {
          "internalType": "address",
          "name": "owner",
          "type": "address"
        },
        {
          "internalType": "contract GoldfinchConfig",
          "name": "_config",
          "type": "address"
        }
      ],
      "name": "initialize",
      "outputs": [],
      "stateMutability": "nonpayable",
      "type": "function"
    },
    {
      "inputs": [],
      "name": "isAdmin",
      "outputs": [
        {
          "internalType": "bool",
          "name": "",
          "type": "bool"
        }
      ],
      "stateMutability": "view",
      "type": "function"
    },
    {
      "inputs": [],
      "name": "pause",
      "outputs": [],
      "stateMutability": "nonpayable",
      "type": "function"
    },
    {
      "inputs": [],
      "name": "paused",
      "outputs": [
        {
          "internalType": "bool",
          "name": "",
          "type": "bool"
        }
      ],
      "stateMutability": "view",
      "type": "function"
    },
    {
      "inputs": [
        {
          "internalType": "bytes32",
          "name": "role",
          "type": "bytes32"
        },
        {
          "internalType": "address",
          "name": "account",
          "type": "address"
        }
      ],
      "name": "renounceRole",
      "outputs": [],
      "stateMutability": "nonpayable",
      "type": "function"
    },
    {
      "inputs": [
        {
          "internalType": "bytes32",
          "name": "role",
          "type": "bytes32"
        },
        {
          "internalType": "address",
          "name": "account",
          "type": "address"
        }
      ],
      "name": "revokeRole",
      "outputs": [],
      "stateMutability": "nonpayable",
      "type": "function"
    },
    {
      "inputs": [],
      "name": "unpause",
      "outputs": [],
      "stateMutability": "nonpayable",
      "type": "function"
    },
    {
      "inputs": [],
      "name": "updateGoldfinchConfig",
      "outputs": [],
      "stateMutability": "nonpayable",
      "type": "function"
    }
  ],
  "transactionHash": "0xd0c9452f671f1e8af35b9e2cd1f1c63e8af56f30d0344ebfbd54912f7a8d2926",
  "args": [],
  "solcInputHash": "e2e6a7937b09ef08f199f5a8536ea2f5",
  "bytecode": "0x608060405234801561001057600080fd5b506154ff806100206000396000f3fe608060405234801561001057600080fd5b50600436106101375760003560e01c806379502c55116100b8578063a217fddf1161007c578063a217fddf146102f6578063b6db75a0146102fe578063ca15c87314610306578063d547741f14610323578063e58378bb1461034f578063e63ab1e91461035757610137565b806379502c55146102715780638456cb59146102795780638a0a61d8146102815780639010d07c146102a757806391d14854146102ca57610137565b80633f4ba83a116100ff5780633f4ba83a1461020f578063485cc955146102175780634f92a72814610245578063526d81f61461024d5780635c975abb1461025557610137565b806301b215511461013c578063097616a314610160578063248a9ca3146101885780632f2ff15d146101b757806336568abe146101e3575b600080fd5b61014461035f565b604080516001600160a01b039092168252519081900360200190f35b6101866004803603602081101561017657600080fd5b50356001600160a01b0316610391565b005b6101a56004803603602081101561019e57600080fd5b5035610515565b60408051918252519081900360200190f35b610186600480360360408110156101cd57600080fd5b50803590602001356001600160a01b031661052a565b610186600480360360408110156101f957600080fd5b50803590602001356001600160a01b0316610592565b6101866105f3565b6101866004803603604081101561022d57600080fd5b506001600160a01b0381358116916020013516610652565b61018661071b565b610186610797565b61025d610841565b604080519115158252519081900360200190f35b61014461084a565b61018661085a565b6101446004803603602081101561029757600080fd5b50356001600160a01b03166108b7565b610144600480360360408110156102bd57600080fd5b5080359060200135610993565b61025d600480360360408110156102e057600080fd5b50803590602001356001600160a01b03166109b4565b6101a56109cc565b61025d6109d1565b6101a56004803603602081101561031c57600080fd5b50356109f2565b6101866004803603604081101561033957600080fd5b50803590602001356001600160a01b0316610a09565b6101a5610a62565b6101a5610a74565b60008060405161036e906110ee565b604051809103906000f08015801561038a573d6000803e3d6000fd5b5091505090565b600054610100900460ff16806103aa57506103aa610a86565b806103b8575060005460ff16155b6103f35760405162461bcd60e51b815260040180806020018281038252602e815260200180615442602e913960400191505060405180910390fd5b600054610100900460ff1615801561041e576000805460ff1961ff0019909116610100171660011790555b6001600160a01b038216610479576040805162461bcd60e51b815260206004820181905260248201527f4f776e65722063616e6e6f7420626520746865207a65726f2061646472657373604482015290519081900360640190fd5b610481610a8c565b610489610b2c565b610491610bd7565b6104a96000805160206153d283398151915283610588565b6104c160008051602061542283398151915283610588565b6104e76000805160206154228339815191526000805160206153d2833981519152610c85565b6104ff6000805160206153d283398151915280610c85565b8015610511576000805461ff00191690555b5050565b60009081526065602052604090206002015490565b60008281526065602052604090206002015461054d90610548610c9a565b6109b4565b6105885760405162461bcd60e51b815260040180806020018281038252602f815260200180615377602f913960400191505060405180910390fd5b6105118282610c9e565b61059a610c9a565b6001600160a01b0316816001600160a01b0316146105e95760405162461bcd60e51b815260040180806020018281038252602f81526020018061549b602f913960400191505060405180910390fd5b6105118282610d07565b61060d600080516020615422833981519152610548610c9a565b6106485760405162461bcd60e51b815260040180806020018281038252602c8152602001806153a6602c913960400191505060405180910390fd5b610650610d70565b565b600054610100900460ff168061066b575061066b610a86565b80610679575060005460ff16155b6106b45760405162461bcd60e51b815260040180806020018281038252602e815260200180615442602e913960400191505060405180910390fd5b600054610100900460ff161580156106df576000805460ff1961ff0019909116610100171660011790555b6106e883610391565b6101c380546001600160a01b0319166001600160a01b0384161790558015610716576000805461ff00191690555b505050565b6107236109d1565b61075e5760405162461bcd60e51b815260040180806020018281038252602b815260200180615470602b913960400191505060405180910390fd5b6101c354610774906001600160a01b0316610e0e565b6101c380546001600160a01b0319166001600160a01b0392909216919091179055565b600054610100900460ff16806107b057506107b0610a86565b806107be575060005460ff16155b6107f95760405162461bcd60e51b815260040180806020018281038252602e815260200180615442602e913960400191505060405180910390fd5b600054610100900460ff16158015610824576000805460ff1961ff0019909116610100171660011790555b61082c610b2c565b801561083e576000805461ff00191690555b50565b60975460ff1690565b6101c3546001600160a01b031681565b610874600080516020615422833981519152610548610c9a565b6108af5760405162461bcd60e51b815260040180806020018281038252602c8152602001806153a6602c913960400191505060405180910390fd5b610650610e87565b6000806040516108c6906110fb565b604051809103906000f0801580156108e2573d6000803e3d6000fd5b506101c3546040805163485cc95560e01b81526001600160a01b038781166004830152928316602482015290519293509083169163485cc9559160448082019260009290919082900301818387803b15801561093d57600080fd5b505af1158015610951573d6000803e3d6000fd5b50506040516001600160a01b038087169350841691507f884b374b5b12a7314728c27eb7563a516e71377a34acbff07a9a9d751d32b4e990600090a392915050565b60008281526065602052604081206109ab9083610f08565b90505b92915050565b60008281526065602052604081206109ab9083610f14565b600081565b60006109ed6000805160206153d2833981519152610548610c9a565b905090565b60008181526065602052604081206109ae90610f29565b600082815260656020526040902060020154610a2790610548610c9a565b6105e95760405162461bcd60e51b81526004018080602001828103825260308152602001806153f26030913960400191505060405180910390fd5b6000805160206153d283398151915281565b60008051602061542283398151915281565b303b1590565b600054610100900460ff1680610aa55750610aa5610a86565b80610ab3575060005460ff16155b610aee5760405162461bcd60e51b815260040180806020018281038252602e815260200180615442602e913960400191505060405180910390fd5b600054610100900460ff1615801561082c576000805460ff1961ff001990911661010017166001179055801561083e576000805461ff001916905550565b600054610100900460ff1680610b455750610b45610a86565b80610b53575060005460ff16155b610b8e5760405162461bcd60e51b815260040180806020018281038252602e815260200180615442602e913960400191505060405180910390fd5b600054610100900460ff16158015610bb9576000805460ff1961ff0019909116610100171660011790555b6097805460ff19169055801561083e576000805461ff001916905550565b600054610100900460ff1680610bf05750610bf0610a86565b80610bfe575060005460ff16155b610c395760405162461bcd60e51b815260040180806020018281038252602e815260200180615442602e913960400191505060405180910390fd5b600054610100900460ff16158015610c64576000805460ff1961ff0019909116610100171660011790555b60c9805460ff19166001179055801561083e576000805461ff001916905550565b60009182526065602052604090912060020155565b3390565b6000828152606560205260409020610cb69082610f34565b1561051157610cc3610c9a565b6001600160a01b0316816001600160a01b0316837f2f8788117e7eff1d82e926ec794901d17c78024a50270940304540a733656f0d60405160405180910390a45050565b6000828152606560205260409020610d1f9082610f49565b1561051157610d2c610c9a565b6001600160a01b0316816001600160a01b0316837ff6391f5c32d9c69d2a47ea670b442974b53935d1edc7fd64eb21e047a839171b60405160405180910390a45050565b60975460ff16610dbe576040805162461bcd60e51b815260206004820152601460248201527314185d5cd8589b194e881b9bdd081c185d5cd95960621b604482015290519081900360640190fd5b6097805460ff191690557f5db9ee0a495bf2e6ff9c91a7834c1ba4fdd244a5e8aa4e537bd38aeae4b073aa610df1610c9a565b604080516001600160a01b039092168252519081900360200190a1565b60006001600160a01b03821663b93f9b0a600b6040518263ffffffff1660e01b81526004018082815260200191505060206040518083038186803b158015610e5557600080fd5b505afa158015610e69573d6000803e3d6000fd5b505050506040513d6020811015610e7f57600080fd5b505192915050565b60975460ff1615610ed2576040805162461bcd60e51b815260206004820152601060248201526f14185d5cd8589b194e881c185d5cd95960821b604482015290519081900360640190fd5b6097805460ff191660011790557f62e78cea01bee320cd4e420270b5ea74000d11b0c9f74754ebdbfc544b05a258610df1610c9a565b60006109ab8383610f5e565b60006109ab836001600160a01b038416610fc2565b60006109ae82610fda565b60006109ab836001600160a01b038416610fde565b60006109ab836001600160a01b038416611028565b81546000908210610fa05760405162461bcd60e51b81526004018080602001828103825260228152602001806153556022913960400191505060405180910390fd5b826000018281548110610faf57fe5b9060005260206000200154905092915050565b60009081526001919091016020526040902054151590565b5490565b6000610fea8383610fc2565b611020575081546001818101845560008481526020808220909301849055845484825282860190935260409020919091556109ae565b5060006109ae565b600081815260018301602052604081205480156110e4578354600019808301919081019060009087908390811061105b57fe5b906000526020600020015490508087600001848154811061107857fe5b6000918252602080832090910192909255828152600189810190925260409020908401905586548790806110a857fe5b600190038181906000526020600020016000905590558660010160008781526020019081526020016000206000905560019450505050506109ae565b60009150506109ae565b6118628061110983390190565b6129ea8061296b8339019056fe608060405234801561001057600080fd5b50611842806100206000396000f3fe608060405234801561001057600080fd5b50600436106102695760003560e01c80639010d07c11610151578063ca15c873116100c3578063e58378bb11610087578063e58378bb1461048e578063e63ab1e914610496578063f00db2601461049e578063f0b25bde146104a6578063fb1669ca146104ae578063fb9eb990146104c157610269565b8063ca15c8731461043a578063cc862de51461044d578063cf1787e614610455578063d547741f14610468578063df8fa4301461047b57610269565b8063a4d66daf11610115578063a4d66daf146103ff578063b396999214610407578063b3b8a9c71461040f578063b69ef8a814610422578063b6db75a01461042a578063bfe976a91461043257610269565b80639010d07c146103b657806391d14854146103c957806396c8df37146103dc57806399dd8df3146103ef578063a217fddf146103f757610269565b80633f4ba83a116101ea578063526d81f6116101ae578063526d81f61461035657806352ee365e1461035e5780635c975abb146103715780637957dda3146103865780637df1f1b9146103995780638456cb59146103ae57610269565b80633f4ba83a14610323578063408862d91461032b57806348e6f29614610333578063500b245e1461033b57806351bc49531461034357610269565b80632771eca8116102315780632771eca8146102c457806327ea6f2b146102d75780632f2ff15d146102ea5780633059b7c6146102fd57806336568abe1461031057610269565b8063097616a31461026e5780631790ebd51461028357806319350114146102a157806321856b36146102a9578063248a9ca3146102b1575b600080fd5b61028161027c3660046112f5565b6104d4565b005b61028b61060d565b604051610298919061146a565b60405180910390f35b61028b610614565b61028b61061b565b61028b6102bf3660046113ca565b610622565b6102816102d23660046113ca565b610637565b6102816102e53660046113ca565b610661565b6102816102f83660046113e2565b6106b1565b61028161030b3660046112f5565b6106f5565b61028161031e3660046113e2565b6108c5565b610281610907565b61028b610947565b61028b61094e565b61028b610955565b6102816103513660046113ca565b61095c565b610281610986565b61028161036c3660046113ca565b610a11565b610379610a3b565b604051610298919061145f565b6102816103943660046113ca565b610a44565b6103a1610a6e565b6040516102989190611432565b610281610a7e565b6103a16103c4366004611411565b610abc565b6103796103d73660046113e2565b610add565b6102816103ea3660046113ca565b610af5565b61028b610b1f565b61028b610b26565b61028b610b2b565b61028b610b32565b61028161041d3660046113ca565b610b39565b61028b610b63565b610379610b6a565b61028b610b8b565b61028b6104483660046113ca565b610b92565b61028b610ba9565b6102816104633660046113ca565b610bb0565b6102816104763660046113e2565b610bda565b610281610489366004611334565b610c14565b61028b610d4d565b61028b610d5f565b6103a1610d71565b61028b610d81565b6102816104bc3660046113ca565b610d88565b6102816104cf3660046113ca565b610db2565b600054610100900460ff16806104ed57506104ed610ddc565b806104fb575060005460ff16155b6105205760405162461bcd60e51b81526004016105179061165d565b60405180910390fd5b600054610100900460ff1615801561054b576000805460ff1961ff0019909116610100171660011790555b6001600160a01b0382166105715760405162461bcd60e51b815260040161051790611628565b610579610de2565b610581610e63565b610589610eef565b6105a16000805160206117cd833981519152836106eb565b6105b96000805160206117ed833981519152836106eb565b6105df6000805160206117ed8339815191526000805160206117cd833981519152610f7e565b6105f76000805160206117cd83398151915280610f7e565b8015610609576000805461ff00191690555b5050565b6101cd5481565b6101cc5481565b6101cb5481565b60009081526065602052604090206002015490565b61063f610b6a565b61065b5760405162461bcd60e51b81526004016105179061171d565b6101d055565b610669610b6a565b8061068f57506101c4546001600160a01b0316610684610f93565b6001600160a01b0316145b6106ab5760405162461bcd60e51b8152600401610517906116ab565b6101c555565b6000828152606560205260409020600201546106cf906103d7610f93565b6106eb5760405162461bcd60e51b8152600401610517906114b5565b6106098282610f97565b6106fd610b6a565b6107195760405162461bcd60e51b81526004016105179061171d565b8060006001600160a01b03821663b93f9b0a826040518263ffffffff1660e01b8152600401610748919061146a565b60206040518083038186803b15801561076057600080fd5b505afa158015610774573d6000803e3d6000fd5b505050506040513d601f19601f820116820180604052508101906107989190611318565b905060006001600160a01b03831663b93f9b0a60056040518263ffffffff1660e01b81526004016107c9919061146a565b60206040518083038186803b1580156107e157600080fd5b505afa1580156107f5573d6000803e3d6000fd5b505050506040513d601f19601f820116820180604052508101906108199190611318565b90506000816001600160a01b031663095ea7b3846000196040518363ffffffff1660e01b815260040161084d929190611446565b602060405180830381600087803b15801561086757600080fd5b505af115801561087b573d6000803e3d6000fd5b505050506040513d601f19601f8201168201806040525081019061089f91906113aa565b9050806108be5760405162461bcd60e51b815260040161051790611532565b5050505050565b6108cd610f93565b6001600160a01b0316816001600160a01b0316146108fd5760405162461bcd60e51b815260040161051790611768565b6106098282611000565b6109216000805160206117ed8339815191526103d7610f93565b61093d5760405162461bcd60e51b815260040161051790611562565b610945611069565b565b6101cf5481565b6101c85481565b6101ce5481565b610964610b6a565b6109805760405162461bcd60e51b81526004016105179061171d565b6101d155565b600054610100900460ff168061099f575061099f610ddc565b806109ad575060005460ff16155b6109c95760405162461bcd60e51b81526004016105179061165d565b600054610100900460ff161580156109f4576000805460ff1961ff0019909116610100171660011790555b6109fc610e63565b8015610a0e576000805461ff00191690555b50565b610a19610b6a565b610a355760405162461bcd60e51b81526004016105179061171d565b6101cf55565b60975460ff1690565b610a4c610b6a565b610a685760405162461bcd60e51b81526004016105179061171d565b6101ce55565b6101c3546001600160a01b031681565b610a986000805160206117ed8339815191526103d7610f93565b610ab45760405162461bcd60e51b815260040161051790611562565b6109456110d5565b6000828152606560205260408120610ad4908361112e565b90505b92915050565b6000828152606560205260408120610ad4908361113a565b610afd610b6a565b610b195760405162461bcd60e51b81526004016105179061171d565b6101cb55565b6101c75481565b600081565b6101c55481565b6101c65481565b610b41610b6a565b610b5d5760405162461bcd60e51b81526004016105179061171d565b6101cc55565b6101ca5481565b6000610b866000805160206117cd8339815191526103d7610f93565b905090565b6101d15481565b6000818152606560205260408120610ad79061114f565b6101d05481565b610bb8610b6a565b610bd45760405162461bcd60e51b81526004016105179061171d565b6101c955565b600082815260656020526040902060020154610bf8906103d7610f93565b6108fd5760405162461bcd60e51b8152600401610517906115ae565b600054610100900460ff1680610c2d5750610c2d610ddc565b80610c3b575060005460ff16155b610c575760405162461bcd60e51b81526004016105179061165d565b600054610100900460ff16158015610c82576000805460ff1961ff0019909116610100171660011790555b6001600160a01b03891615801590610ca257506001600160a01b03881615155b8015610cb657506001600160a01b03871615155b610cd25760405162461bcd60e51b8152600401610517906116ed565b610cdb896104d4565b6101c380546001600160a01b03808b166001600160a01b0319928316179092556101c48054928a16929091169190911790556101c58690556101c68590556101c78490556101c88390556101c9829055436101cf558015610d42576000805461ff00191690555b505050505050505050565b6000805160206117cd83398151915281565b6000805160206117ed83398151915281565b6101c4546001600160a01b031681565b6101c95481565b610d90610b6a565b610dac5760405162461bcd60e51b81526004016105179061171d565b6101ca55565b610dba610b6a565b610dd65760405162461bcd60e51b81526004016105179061171d565b6101cd55565b303b1590565b600054610100900460ff1680610dfb5750610dfb610ddc565b80610e09575060005460ff16155b610e255760405162461bcd60e51b81526004016105179061165d565b600054610100900460ff161580156109fc576000805460ff1961ff0019909116610100171660011790558015610a0e576000805461ff001916905550565b600054610100900460ff1680610e7c5750610e7c610ddc565b80610e8a575060005460ff16155b610ea65760405162461bcd60e51b81526004016105179061165d565b600054610100900460ff16158015610ed1576000805460ff1961ff0019909116610100171660011790555b6097805460ff191690558015610a0e576000805461ff001916905550565b600054610100900460ff1680610f085750610f08610ddc565b80610f16575060005460ff16155b610f325760405162461bcd60e51b81526004016105179061165d565b600054610100900460ff16158015610f5d576000805460ff1961ff0019909116610100171660011790555b60c9805460ff191660011790558015610a0e576000805461ff001916905550565b60009182526065602052604090912060020155565b3390565b6000828152606560205260409020610faf908261115a565b1561060957610fbc610f93565b6001600160a01b0316816001600160a01b0316837f2f8788117e7eff1d82e926ec794901d17c78024a50270940304540a733656f0d60405160405180910390a45050565b6000828152606560205260409020611018908261116f565b1561060957611025610f93565b6001600160a01b0316816001600160a01b0316837ff6391f5c32d9c69d2a47ea670b442974b53935d1edc7fd64eb21e047a839171b60405160405180910390a45050565b60975460ff1661108b5760405162461bcd60e51b815260040161051790611504565b6097805460ff191690557f5db9ee0a495bf2e6ff9c91a7834c1ba4fdd244a5e8aa4e537bd38aeae4b073aa6110be610f93565b6040516110cb9190611432565b60405180910390a1565b60975460ff16156110f85760405162461bcd60e51b8152600401610517906115fe565b6097805460ff191660011790557f62e78cea01bee320cd4e420270b5ea74000d11b0c9f74754ebdbfc544b05a2586110be610f93565b6000610ad48383611184565b6000610ad4836001600160a01b0384166111c9565b6000610ad7826111e1565b6000610ad4836001600160a01b0384166111e5565b6000610ad4836001600160a01b03841661122f565b815460009082106111a75760405162461bcd60e51b815260040161051790611473565b8260000182815481106111b657fe5b9060005260206000200154905092915050565b60009081526001919091016020526040902054151590565b5490565b60006111f183836111c9565b61122757508154600181810184556000848152602080822090930184905584548482528286019093526040902091909155610ad7565b506000610ad7565b600081815260018301602052604081205480156112eb578354600019808301919081019060009087908390811061126257fe5b906000526020600020015490508087600001848154811061127f57fe5b6000918252602080832090910192909255828152600189810190925260409020908401905586548790806112af57fe5b60019003818190600052602060002001600090559055866001016000878152602001908152602001600020600090556001945050505050610ad7565b6000915050610ad7565b600060208284031215611306578081fd5b8135611311816117b7565b9392505050565b600060208284031215611329578081fd5b8151611311816117b7565b600080600080600080600080610100898b031215611350578384fd5b883561135b816117b7565b9750602089013561136b816117b7565b9650604089013561137b816117b7565b979a96995096976060810135975060808101359660a0820135965060c0820135955060e0909101359350915050565b6000602082840312156113bb578081fd5b81518015158114611311578182fd5b6000602082840312156113db578081fd5b5035919050565b600080604083850312156113f4578182fd5b823591506020830135611406816117b7565b809150509250929050565b60008060408385031215611423578182fd5b50508035926020909101359150565b6001600160a01b0391909116815260200190565b6001600160a01b03929092168252602082015260400190565b901515815260200190565b90815260200190565b60208082526022908201527f456e756d657261626c655365743a20696e646578206f7574206f6620626f756e604082015261647360f01b606082015260800190565b6020808252602f908201527f416363657373436f6e74726f6c3a2073656e646572206d75737420626520616e60408201526e0818591b5a5b881d1bc819dc985b9d608a1b606082015260800190565b60208082526014908201527314185d5cd8589b194e881b9bdd081c185d5cd95960621b604082015260600190565b6020808252601690820152754661696c656420746f20617070726f7665205553444360501b604082015260600190565b6020808252602c908201527f4d75737420686176652070617573657220726f6c6520746f20706572666f726d60408201526b103a3434b99030b1ba34b7b760a11b606082015260800190565b60208082526030908201527f416363657373436f6e74726f6c3a2073656e646572206d75737420626520616e60408201526f2061646d696e20746f207265766f6b6560801b606082015260800190565b60208082526010908201526f14185d5cd8589b194e881c185d5cd95960821b604082015260600190565b6020808252818101527f4f776e65722063616e6e6f7420626520746865207a65726f2061646472657373604082015260600190565b6020808252602e908201527f436f6e747261637420696e7374616e63652068617320616c726561647920626560408201526d195b881a5b9a5d1a585b1a5e995960921b606082015260800190565b60208082526022908201527f5265737472696374656420746f206f776e6572206f7220756e6465727772697460408201526132b960f11b606082015260800190565b6020808252601690820152752d32b9379030b2323932b9b9903830b9b9b2b21034b760511b604082015260600190565b6020808252602b908201527f4d75737420686176652061646d696e20726f6c6520746f20706572666f726d2060408201526a3a3434b99030b1ba34b7b760a91b606082015260800190565b6020808252602f908201527f416363657373436f6e74726f6c3a2063616e206f6e6c792072656e6f756e636560408201526e103937b632b9903337b91039b2b63360891b606082015260800190565b6001600160a01b0381168114610a0e57600080fdfeb19546dff01e856fb3f010c267a7b1c60363cf8a4664e21cc89c26224620214e65d7a28e3265b37a6474929f336521b332c1681b933f6cb9f3376673440d862aa2646970667358221220efcd4c7ec14e8f47f97795290a5115a80f89141f5030ee4636c4496adc74262564736f6c634300060c0033608060405234801561001057600080fd5b506129ca806100206000396000f3fe608060405234801561001057600080fd5b50600436106101cf5760003560e01c806379502c5511610104578063a217fddf116100a2578063ca15c87311610071578063ca15c8731461038b578063d547741f1461039e578063e58378bb146103b1578063e63ab1e9146103b9576101cf565b8063a217fddf14610355578063b6db75a01461035d578063c407687614610365578063c8bc38ae14610378576101cf565b80638b032c64116100de5780638b032c64146103095780639010d07c1461031c57806391d148541461032f5780639db5dbe414610342576101cf565b806379502c55146102e45780637da0a877146102f95780638456cb5914610301576101cf565b8063486ff0cd11610171578063572b6c051161014b578063572b6c05146102965780635c975abb146102b65780635e3e9fad146102be5780636cbbbbc2146102d1576101cf565b8063486ff0cd14610266578063526d81f61461027b57806356b7b73a14610283576101cf565b806336568abe116101ad57806336568abe146102255780633f17474a146102385780633f4ba83a1461024b578063485cc95514610253576101cf565b8063097616a3146101d4578063248a9ca3146101e95780632f2ff15d14610212575b600080fd5b6101e76101e2366004611f80565b6103c1565b005b6101fc6101f736600461231a565b6104fa565b6040516102099190612485565b60405180910390f35b6101e7610220366004612332565b61050f565b6101e7610233366004612332565b610553565b6101e761024636600461209c565b610595565b6101e761071d565b6101e7610261366004611ff8565b61075d565b61026e610a24565b604051610209919061248e565b6101e7610a44565b6101e7610291366004612129565b610acf565b6102a96102a4366004611f80565b610c2e565b604051610209919061247a565b6102a9610c43565b6101e76102cc36600461205b565b610c4c565b6101e76102df366004612206565b610d34565b6102ec610fed565b60405161020991906123ab565b6102ec610ffd565b6101e761100d565b6101e7610317366004612030565b61104b565b6102ec61032a366004612356565b611232565b6102a961033d366004612332565b611253565b6101e7610350366004611fb8565b61126b565b6101fc6112e1565b6102a96112e6565b6101e7610373366004612030565b611307565b6101e761038636600461219d565b611465565b6101fc61039936600461231a565b611672565b6101e76103ac366004612332565b611689565b6101fc6116c3565b6101fc6116d5565b600054610100900460ff16806103da57506103da6116e7565b806103e8575060005460ff16155b61040d5760405162461bcd60e51b8152600401610404906127a9565b60405180910390fd5b600054610100900460ff16158015610438576000805460ff1961ff0019909116610100171660011790555b6001600160a01b03821661045e5760405162461bcd60e51b815260040161040490612703565b6104666116ed565b61046e61176e565b6104766117fa565b61048e60008051602061295583398151915283610549565b6104a660008051602061297583398151915283610549565b6104cc600080516020612975833981519152600080516020612955833981519152611889565b6104e460008051602061295583398151915280611889565b80156104f6576000805461ff00191690555b5050565b60009081526065602052604090206002015490565b60008281526065602052604090206002015461052d9061033d61189e565b6105495760405162461bcd60e51b815260040161040490612503565b6104f682826118a8565b61055b61189e565b6001600160a01b0316816001600160a01b03161461058b5760405162461bcd60e51b815260040161040490612879565b6104f68282611911565b61059d6112e6565b6105b95760405162461bcd60e51b81526004016104049061282e565b6101c4546105cf906001600160a01b031661197a565b6001600160a01b0316636acab9da88886040518363ffffffff1660e01b81526004016105fc929190612461565b600060405180830381600087803b15801561061657600080fd5b505af115801561062a573d6000803e3d6000fd5b50506101c454610684925061064891506001600160a01b0316611985565b858886868680806020026020016040519081016040528093929190818152602001838360200280828437600092019190915250611a0592505050565b6001600160a01b03851615806106a257506001600160a01b03851630145b156106b2576106af61189e565b94505b6060306040516024016106c591906123ab565b60408051601f198184030181529190526020810180516001600160e01b03166370a0823160e01b179052905060006107056107008784611a6c565b611b15565b905061071286888361126b565b505050505050505050565b61073760008051602061297583398151915261033d61189e565b6107535760405162461bcd60e51b815260040161040490612580565b61075b611b1c565b565b600054610100900460ff168061077657506107766116e7565b80610784575060005460ff16155b6107a05760405162461bcd60e51b8152600401610404906127a9565b600054610100900460ff161580156107cb576000805460ff1961ff0019909116610100171660011790555b6001600160a01b0383166107f15760405162461bcd60e51b815260040161040490612738565b6107fa836103c1565b6101c480546001600160a01b0319166001600160a01b0384811691909117918290556108269116611b88565b6101c380546001600160a01b0319166001600160a01b039283161790556101c4546000916108549116611ba0565b6101c454909150600090610870906001600160a01b0316611bb8565b6101c4549091506001600160a01b038083169163095ea7b3916108939116611bc3565b6000196040518363ffffffff1660e01b81526004016108b3929190612461565b602060405180830381600087803b1580156108cd57600080fd5b505af11580156108e1573d6000803e3d6000fd5b505050506040513d601f19601f8201168201806040525081019061090591906122fa565b5060405163095ea7b360e01b81526001600160a01b0382169063095ea7b39061093690859060001990600401612461565b602060405180830381600087803b15801561095057600080fd5b505af1158015610964573d6000803e3d6000fd5b505050506040513d601f19601f8201168201806040525081019061098891906122fa565b506060826000196040516024016109a0929190612461565b60408051601f198184030181529190526020810180516001600160e01b031663095ea7b360e01b17905290506109ea73dac17f958d2ee523a2206206994597c13d831ec782611a6c565b50610a09734fabb145d64652a948d72533023f6e7a623c7c5382611a6c565b505050508015610a1f576000805461ff00191690555b505050565b6040805180820190915260058152640322e302e360dc1b60208201525b90565b600054610100900460ff1680610a5d5750610a5d6116e7565b80610a6b575060005460ff16155b610a875760405162461bcd60e51b8152600401610404906127a9565b600054610100900460ff16158015610ab2576000805460ff1961ff0019909116610100171660011790555b610aba61176e565b8015610acc576000805461ff00191690555b50565b610ad76112e6565b610af35760405162461bcd60e51b81526004016104049061282e565b610b0683610aff61189e565b3087611bda565b6101c454600090610b1f906001600160a01b0316611bb8565b9050610b2e8482878686611a05565b6040516370a0823160e01b81526000906001600160a01b038316906370a0823190610b5d9030906004016123ab565b60206040518083038186803b158015610b7557600080fd5b505afa158015610b89573d6000803e3d6000fd5b505050506040513d601f19601f82011682018060405250810190610bad9190612377565b6101c454909150610bc6906001600160a01b031661197a565b6001600160a01b031663c407687688836040518363ffffffff1660e01b8152600401610bf3929190612461565b600060405180830381600087803b158015610c0d57600080fd5b505af1158015610c21573d6000803e3d6000fd5b5050505050505050505050565b6101c3546001600160a01b0390811691161490565b60975460ff1690565b610c546112e6565b610c705760405162461bcd60e51b81526004016104049061282e565b6101c454610c86906001600160a01b031661197a565b6001600160a01b0316636acab9da84846040518363ffffffff1660e01b8152600401610cb3929190612461565b600060405180830381600087803b158015610ccd57600080fd5b505af1158015610ce1573d6000803e3d6000fd5b505050506001600160a01b0381161580610d0357506001600160a01b03811630145b15610d1357610d1061189e565b90505b6101c454610a1f90610d2d906001600160a01b0316611985565b828461126b565b610d3c6112e6565b610d585760405162461bcd60e51b81526004016104049061282e565b8351855114610d795760405162461bcd60e51b815260040161040490612603565b6000805b8551811015610db657610dac868281518110610d9557fe5b602002602001015183611c2f90919063ffffffff16565b9150600101610d7d565b50610dc383610aff61189e565b6101c454600090610ddc906001600160a01b0316611bb8565b9050610deb8482878587611a05565b6101c454600090610e04906001600160a01b031661197a565b905060005b8751811015610ea457816001600160a01b031663c40768768a8381518110610e2d57fe5b60200260200101518a8481518110610e4157fe5b60200260200101516040518363ffffffff1660e01b8152600401610e66929190612461565b600060405180830381600087803b158015610e8057600080fd5b505af1158015610e94573d6000803e3d6000fd5b505060019092019150610e099050565b506040516370a0823160e01b81526000906001600160a01b038416906370a0823190610ed49030906004016123ab565b60206040518083038186803b158015610eec57600080fd5b505afa158015610f00573d6000803e3d6000fd5b505050506040513d601f19601f82011682018060405250810190610f249190612377565b90508015610712576000836001600160a01b031663a9059cbb8b600081518110610f4a57fe5b6020026020010151846040518363ffffffff1660e01b8152600401610f70929190612461565b602060405180830381600087803b158015610f8a57600080fd5b505af1158015610f9e573d6000803e3d6000fd5b505050506040513d601f19601f82011682018060405250810190610fc291906122fa565b905080610fe15760405162461bcd60e51b8152600401610404906127f7565b50505050505050505050565b6101c4546001600160a01b031681565b6101c3546001600160a01b031681565b61102760008051602061297583398151915261033d61189e565b6110435760405162461bcd60e51b815260040161040490612580565b61075b611c54565b6110536112e6565b61106f5760405162461bcd60e51b81526004016104049061282e565b6101c454600090611088906001600160a01b0316611bb8565b6001600160a01b03166323b872dd61109e61189e565b85856040518463ffffffff1660e01b81526004016110be939291906123bf565b602060405180830381600087803b1580156110d857600080fd5b505af11580156110ec573d6000803e3d6000fd5b505050506040513d601f19601f8201168201806040525081019061111091906122fa565b90508061112f5760405162461bcd60e51b8152600401610404906127f7565b6101c454611145906001600160a01b031661197a565b6001600160a01b0316632e0c6cfe84846040518363ffffffff1660e01b8152600401611172929190612461565b600060405180830381600087803b15801561118c57600080fd5b505af11580156111a0573d6000803e3d6000fd5b50505050826001600160a01b031663b69ef8a86040518163ffffffff1660e01b815260040160206040518083038186803b1580156111dd57600080fd5b505afa1580156111f1573d6000803e3d6000fd5b505050506040513d601f19601f820116820180604052508101906112159190612377565b15610a1f5760405162461bcd60e51b815260040161040490612767565b600082815260656020526040812061124a9083611cad565b90505b92915050565b600082815260656020526040812061124a9083611cb9565b6112736112e6565b61128f5760405162461bcd60e51b81526004016104049061282e565b606082826040516024016112a4929190612461565b60408051601f198184030181529190526020810180516001600160e01b031663a9059cbb60e01b17905290506112da8482611a6c565b5050505050565b600081565b600061130260008051602061295583398151915261033d61189e565b905090565b61130f6112e6565b61132b5760405162461bcd60e51b81526004016104049061282e565b6101c454600090611344906001600160a01b0316611bb8565b6001600160a01b03166323b872dd61135a61189e565b30856040518463ffffffff1660e01b815260040161137a939291906123bf565b602060405180830381600087803b15801561139457600080fd5b505af11580156113a8573d6000803e3d6000fd5b505050506040513d601f19601f820116820180604052508101906113cc91906122fa565b9050806113eb5760405162461bcd60e51b8152600401610404906127f7565b6101c454611401906001600160a01b031661197a565b6001600160a01b031663c407687684846040518363ffffffff1660e01b815260040161142e929190612461565b600060405180830381600087803b15801561144857600080fd5b505af115801561145c573d6000803e3d6000fd5b50505050505050565b61146d6112e6565b6114895760405162461bcd60e51b81526004016104049061282e565b8281146114a85760405162461bcd60e51b815260040161040490612603565b6000805b828110156114e3576114d98484838181106114c357fe5b9050602002013583611c2f90919063ffffffff16565b91506001016114ac565b506101c4546000906114fd906001600160a01b0316611bb8565b6001600160a01b03166323b872dd61151361189e565b30856040518463ffffffff1660e01b8152600401611533939291906123bf565b602060405180830381600087803b15801561154d57600080fd5b505af1158015611561573d6000803e3d6000fd5b505050506040513d601f19601f8201168201806040525081019061158591906122fa565b9050806115a45760405162461bcd60e51b8152600401610404906127f7565b6101c4546000906115bd906001600160a01b031661197a565b905060005b8481101561166857816001600160a01b031663c40768768989848181106115e557fe5b90506020020160208101906115fa9190611f80565b88888581811061160657fe5b905060200201356040518363ffffffff1660e01b815260040161162a929190612461565b600060405180830381600087803b15801561164457600080fd5b505af1158015611658573d6000803e3d6000fd5b5050600190920191506115c29050565b5050505050505050565b600081815260656020526040812061124d90611cce565b6000828152606560205260409020600201546116a79061033d61189e565b61058b5760405162461bcd60e51b815260040161040490612689565b60008051602061295583398151915281565b60008051602061297583398151915281565b303b1590565b600054610100900460ff168061170657506117066116e7565b80611714575060005460ff16155b6117305760405162461bcd60e51b8152600401610404906127a9565b600054610100900460ff16158015610aba576000805460ff1961ff0019909116610100171660011790558015610acc576000805461ff001916905550565b600054610100900460ff168061178757506117876116e7565b80611795575060005460ff16155b6117b15760405162461bcd60e51b8152600401610404906127a9565b600054610100900460ff161580156117dc576000805460ff1961ff0019909116610100171660011790555b6097805460ff191690558015610acc576000805461ff001916905550565b600054610100900460ff168061181357506118136116e7565b80611821575060005460ff16155b61183d5760405162461bcd60e51b8152600401610404906127a9565b600054610100900460ff16158015611868576000805460ff1961ff0019909116610100171660011790555b60c9805460ff191660011790558015610acc576000805461ff001916905550565b60009182526065602052604090912060020155565b6000611302611cd9565b60008281526065602052604090206118c09082611d0b565b156104f6576118cd61189e565b6001600160a01b0316816001600160a01b0316837f2f8788117e7eff1d82e926ec794901d17c78024a50270940304540a733656f0d60405160405180910390a45050565b60008281526065602052604090206119299082611d20565b156104f65761193661189e565b6001600160a01b0316816001600160a01b0316837ff6391f5c32d9c69d2a47ea670b442974b53935d1edc7fd64eb21e047a839171b60405160405180910390a45050565b600061124d82611d35565b60006001600160a01b03821663b93f9b0a60055b6040518263ffffffff1660e01b81526004016119b59190612485565b60206040518083038186803b1580156119cd57600080fd5b505afa1580156119e1573d6000803e3d6000fd5b505050506040513d601f19601f8201168201806040525081019061124d9190611f9c565b606085858585856000604051602401611a23969594939291906123e3565b60408051601f198184030181529190526020810180516001600160e01b0316637153a8af60e11b1790526101c45490915061145c90611a6a906001600160a01b0316611ba0565b825b606060006060846001600160a01b031684604051611a8a919061238f565b6000604051808303816000865af19150503d8060008114611ac7576040519150601f19603f3d011682016040523d82523d6000602084013e611acc565b606091505b50909250905081158015611ae1575060008151115b15611af0573d6000803e3d6000fd5b81611b0d5760405162461bcd60e51b815260040161040490612652565b949350505050565b6020015190565b60975460ff16611b3e5760405162461bcd60e51b815260040161040490612552565b6097805460ff191690557f5db9ee0a495bf2e6ff9c91a7834c1ba4fdd244a5e8aa4e537bd38aeae4b073aa611b7161189e565b604051611b7e91906123ab565b60405180910390a1565b60006001600160a01b03821663b93f9b0a6009611999565b60006001600160a01b03821663b93f9b0a6008611999565b600061124d82611985565b60006001600160a01b03821663b93f9b0a82611999565b6060838383604051602401611bf1939291906123bf565b60408051601f198184030181529190526020810180516001600160e01b03166323b872dd60e01b1790529050611c278582611a6c565b505050505050565b60008282018381101561124a5760405162461bcd60e51b8152600401610404906125cc565b60975460ff1615611c775760405162461bcd60e51b8152600401610404906126d9565b6097805460ff191660011790557f62e78cea01bee320cd4e420270b5ea74000d11b0c9f74754ebdbfc544b05a258611b7161189e565b600061124a8383611d4d565b600061124a836001600160a01b038416611d92565b600061124d82611daa565b600060183610801590611cf05750611cf033610c2e565b15611d04575060131936013560601c610a41565b5033610a41565b600061124a836001600160a01b038416611dae565b600061124a836001600160a01b038416611df8565b60006001600160a01b03821663b93f9b0a6003611999565b81546000908210611d705760405162461bcd60e51b8152600401610404906124c1565b826000018281548110611d7f57fe5b9060005260206000200154905092915050565b60009081526001919091016020526040902054151590565b5490565b6000611dba8383611d92565b611df05750815460018181018455600084815260208082209093018490558454848252828601909352604090209190915561124d565b50600061124d565b60008181526001830160205260408120548015611eb45783546000198083019190810190600090879083908110611e2b57fe5b9060005260206000200154905080876000018481548110611e4857fe5b600091825260208083209091019290925582815260018981019092526040902090840190558654879080611e7857fe5b6001900381819060005260206000200160009055905586600101600087815260200190815260200160002060009055600194505050505061124d565b600091505061124d565b803561124d8161293f565b60008083601f840112611eda578182fd5b50813567ffffffffffffffff811115611ef1578182fd5b6020830191508360208083028501011115611f0b57600080fd5b9250929050565b600082601f830112611f22578081fd5b8135611f35611f30826128ef565b6128c8565b818152915060208083019084810181840286018201871015611f5657600080fd5b60005b84811015611f7557813584529282019290820190600101611f59565b505050505092915050565b600060208284031215611f91578081fd5b813561124a8161293f565b600060208284031215611fad578081fd5b815161124a8161293f565b600080600060608486031215611fcc578182fd5b8335611fd78161293f565b92506020840135611fe78161293f565b929592945050506040919091013590565b6000806040838503121561200a578182fd5b82356120158161293f565b915060208301356120258161293f565b809150509250929050565b60008060408385031215612042578182fd5b823561204d8161293f565b946020939093013593505050565b60008060006060848603121561206f578283fd5b833561207a8161293f565b92506020840135915060408401356120918161293f565b809150509250925092565b600080600080600080600060c0888a0312156120b6578283fd5b87356120c18161293f565b96506020880135955060408801356120d88161293f565b945060608801356120e88161293f565b93506080880135925060a088013567ffffffffffffffff81111561210a578283fd5b6121168a828b01611ec9565b989b979a50959850939692959293505050565b600080600080600060a08688031215612140578081fd5b853561214b8161293f565b94506020860135935060408601356121628161293f565b925060608601359150608086013567ffffffffffffffff811115612184578182fd5b61219088828901611f12565b9150509295509295909350565b600080600080604085870312156121b2578384fd5b843567ffffffffffffffff808211156121c9578586fd5b6121d588838901611ec9565b909650945060208701359150808211156121ed578384fd5b506121fa87828801611ec9565b95989497509550505050565b600080600080600060a0868803121561221d578283fd5b853567ffffffffffffffff80821115612234578485fd5b818801915088601f830112612247578485fd5b8135612255611f30826128ef565b80828252602080830192508086018d82838702890101111561227557898afd5b8996505b8487101561229f5761228b8e82611ebe565b845260019690960195928101928101612279565b509099508a013593505050808211156122b6578485fd5b6122c289838a01611f12565b9550604088013594506122d88960608a01611ebe565b935060808801359150808211156122ed578283fd5b5061219088828901611f12565b60006020828403121561230b578081fd5b8151801515811461124a578182fd5b60006020828403121561232b578081fd5b5035919050565b60008060408385031215612344578182fd5b8235915060208301356120258161293f565b60008060408385031215612368578182fd5b50508035926020909101359150565b600060208284031215612388578081fd5b5051919050565b600082516123a181846020870161290f565b9190910192915050565b6001600160a01b0391909116815260200190565b6001600160a01b039384168152919092166020820152604081019190915260600190565b6001600160a01b0387811682528616602080830191909152604082018690526060820185905260c06080830181905284519083018190526000918581019160e085019190845b8181101561244557845184529382019392820192600101612429565b505050809250505060ff831660a0830152979650505050505050565b6001600160a01b03929092168252602082015260400190565b901515815260200190565b90815260200190565b60006020825282518060208401526124ad81604085016020870161290f565b601f01601f19169190910160400192915050565b60208082526022908201527f456e756d657261626c655365743a20696e646578206f7574206f6620626f756e604082015261647360f01b606082015260800190565b6020808252602f908201527f416363657373436f6e74726f6c3a2073656e646572206d75737420626520616e60408201526e0818591b5a5b881d1bc819dc985b9d608a1b606082015260800190565b60208082526014908201527314185d5cd8589b194e881b9bdd081c185d5cd95960621b604082015260600190565b6020808252602c908201527f4d75737420686176652070617573657220726f6c6520746f20706572666f726d60408201526b103a3434b99030b1ba34b7b760a11b606082015260800190565b6020808252601b908201527f536166654d6174683a206164646974696f6e206f766572666c6f770000000000604082015260600190565b6020808252602f908201527f4372656469746c696e657320616e6420616d6f756e7473206d7573742062652060408201526e0e8d0ca40e6c2daca40d8cadccee8d608b1b606082015260800190565b6020808252601a908201527f564d3a2077616c6c657420696e766f6b65207265766572746564000000000000604082015260600190565b60208082526030908201527f416363657373436f6e74726f6c3a2073656e646572206d75737420626520616e60408201526f2061646d696e20746f207265766f6b6560801b606082015260800190565b60208082526010908201526f14185d5cd8589b194e881c185d5cd95960821b604082015260600190565b6020808252818101527f4f776e65722063616e6e6f7420626520746865207a65726f2061646472657373604082015260600190565b6020808252601590820152744f776e65722063616e6e6f7420626520656d70747960581b604082015260600190565b60208082526022908201527f4661696c656420746f2066756c6c7920706179206f6666206372656469746c696040820152616e6560f01b606082015260800190565b6020808252602e908201527f436f6e747261637420696e7374616e63652068617320616c726561647920626560408201526d195b881a5b9a5d1a585b1a5e995960921b606082015260800190565b60208082526017908201527f4661696c656420746f207472616e736665722055534443000000000000000000604082015260600190565b6020808252602b908201527f4d75737420686176652061646d696e20726f6c6520746f20706572666f726d2060408201526a3a3434b99030b1ba34b7b760a91b606082015260800190565b6020808252602f908201527f416363657373436f6e74726f6c3a2063616e206f6e6c792072656e6f756e636560408201526e103937b632b9903337b91039b2b63360891b606082015260800190565b60405181810167ffffffffffffffff811182821017156128e757600080fd5b604052919050565b600067ffffffffffffffff821115612905578081fd5b5060209081020190565b60005b8381101561292a578181015183820152602001612912565b83811115612939576000848401525b50505050565b6001600160a01b0381168114610acc57600080fdfeb19546dff01e856fb3f010c267a7b1c60363cf8a4664e21cc89c26224620214e65d7a28e3265b37a6474929f336521b332c1681b933f6cb9f3376673440d862aa264697066735822122089d425cc3f11864e9755ea9a5b456a5a7330c9e704a89cc1038a1c1b0c6e981d64736f6c634300060c0033456e756d657261626c655365743a20696e646578206f7574206f6620626f756e6473416363657373436f6e74726f6c3a2073656e646572206d75737420626520616e2061646d696e20746f206772616e744d75737420686176652070617573657220726f6c6520746f20706572666f726d207468697320616374696f6eb19546dff01e856fb3f010c267a7b1c60363cf8a4664e21cc89c26224620214e416363657373436f6e74726f6c3a2073656e646572206d75737420626520616e2061646d696e20746f207265766f6b6565d7a28e3265b37a6474929f336521b332c1681b933f6cb9f3376673440d862a436f6e747261637420696e7374616e63652068617320616c7265616479206265656e20696e697469616c697a65644d75737420686176652061646d696e20726f6c6520746f20706572666f726d207468697320616374696f6e416363657373436f6e74726f6c3a2063616e206f6e6c792072656e6f756e636520726f6c657320666f722073656c66a26469706673582212208e0d2fee37d720881d124528d7ec8936fb3f7f91abbae62846ce18fd156c30e664736f6c634300060c0033",
  "devdoc": {
    "author": "Goldfinch",
    "kind": "dev",
    "methods": {
      "createBorrower(address)": {
        "params": {
          "owner": "The address that will own the new Borrower instance"
        }
      },
      "getRoleAdmin(bytes32)": {
        "details": "Returns the admin role that controls `role`. See {grantRole} and {revokeRole}. To change a role's admin, use {_setRoleAdmin}."
      },
      "getRoleMember(bytes32,uint256)": {
        "details": "Returns one of the accounts that have `role`. `index` must be a value between 0 and {getRoleMemberCount}, non-inclusive. Role bearers are not sorted in any particular way, and their ordering may change at any point. WARNING: When using {getRoleMember} and {getRoleMemberCount}, make sure you perform all queries on the same block. See the following https://forum.openzeppelin.com/t/iterating-over-elements-on-enumerableset-in-openzeppelin-contracts/2296[forum post] for more information."
      },
      "getRoleMemberCount(bytes32)": {
        "details": "Returns the number of accounts that have `role`. Can be used together with {getRoleMember} to enumerate all bearers of a role."
      },
      "grantRole(bytes32,address)": {
        "details": "Grants `role` to `account`. If `account` had not been already granted `role`, emits a {RoleGranted} event. Requirements: - the caller must have ``role``'s admin role."
      },
      "hasRole(bytes32,address)": {
        "details": "Returns `true` if `account` has been granted `role`."
      },
      "pause()": {
        "details": "Pauses all functions guarded by Pause See {Pausable-_pause}. Requirements: - the caller must have the PAUSER_ROLE."
      },
      "paused()": {
        "details": "Returns true if the contract is paused, and false otherwise."
      },
      "renounceRole(bytes32,address)": {
        "details": "Revokes `role` from the calling account. Roles are often managed via {grantRole} and {revokeRole}: this function's purpose is to provide a mechanism for accounts to lose their privileges if they are compromised (such as when a trusted device is misplaced). If the calling account had been granted `role`, emits a {RoleRevoked} event. Requirements: - the caller must be `account`."
      },
      "revokeRole(bytes32,address)": {
        "details": "Revokes `role` from `account`. If `account` had been granted `role`, emits a {RoleRevoked} event. Requirements: - the caller must have ``role``'s admin role."
      },
      "unpause()": {
        "details": "Unpauses the contract See {Pausable-_unpause}. Requirements: - the caller must have the Pauser role"
      }
    },
    "title": "CreditLineFactory",
    "version": 1
  },
  "userdoc": {
    "kind": "user",
    "methods": {
      "createBorrower(address)": {
        "notice": "Allows anyone to create a Borrower contract instance"
      }
    },
    "notice": "Contract that allows us to create other contracts, such as CreditLines and BorrowerContracts",
    "version": 1
  },
  "storageLayout": {
    "storage": [
      {
        "astId": 151,
        "contract": "contracts/protocol/core/CreditLineFactory.sol:CreditLineFactory",
        "label": "initialized",
        "offset": 0,
        "slot": "0",
        "type": "t_bool"
      },
      {
        "astId": 154,
        "contract": "contracts/protocol/core/CreditLineFactory.sol:CreditLineFactory",
        "label": "initializing",
        "offset": 1,
        "slot": "0",
        "type": "t_bool"
      },
      {
        "astId": 219,
        "contract": "contracts/protocol/core/CreditLineFactory.sol:CreditLineFactory",
        "label": "______gap",
        "offset": 0,
        "slot": "1",
        "type": "t_array(t_uint256)50_storage"
      },
      {
        "astId": 144,
        "contract": "contracts/protocol/core/CreditLineFactory.sol:CreditLineFactory",
        "label": "__gap",
        "offset": 0,
        "slot": "51",
        "type": "t_array(t_uint256)50_storage"
      },
      {
        "astId": 264,
        "contract": "contracts/protocol/core/CreditLineFactory.sol:CreditLineFactory",
        "label": "_roles",
        "offset": 0,
        "slot": "101",
        "type": "t_mapping(t_bytes32,t_struct(RoleData)260_storage)"
      },
      {
        "astId": 509,
        "contract": "contracts/protocol/core/CreditLineFactory.sol:CreditLineFactory",
        "label": "__gap",
        "offset": 0,
        "slot": "102",
        "type": "t_array(t_uint256)49_storage"
      },
      {
        "astId": 2385,
        "contract": "contracts/protocol/core/CreditLineFactory.sol:CreditLineFactory",
        "label": "_paused",
        "offset": 0,
        "slot": "151",
        "type": "t_bool"
      },
      {
        "astId": 2474,
        "contract": "contracts/protocol/core/CreditLineFactory.sol:CreditLineFactory",
        "label": "__gap",
        "offset": 0,
        "slot": "152",
        "type": "t_array(t_uint256)49_storage"
      },
      {
        "astId": 2483,
        "contract": "contracts/protocol/core/CreditLineFactory.sol:CreditLineFactory",
        "label": "_notEntered",
        "offset": 0,
        "slot": "201",
        "type": "t_bool"
      },
      {
        "astId": 2524,
        "contract": "contracts/protocol/core/CreditLineFactory.sol:CreditLineFactory",
        "label": "__gap",
        "offset": 0,
        "slot": "202",
        "type": "t_array(t_uint256)49_storage"
      },
      {
        "astId": 4836,
        "contract": "contracts/protocol/core/CreditLineFactory.sol:CreditLineFactory",
        "label": "__gap1",
        "offset": 0,
        "slot": "251",
        "type": "t_array(t_uint256)50_storage"
      },
      {
        "astId": 4840,
        "contract": "contracts/protocol/core/CreditLineFactory.sol:CreditLineFactory",
        "label": "__gap2",
        "offset": 0,
        "slot": "301",
        "type": "t_array(t_uint256)50_storage"
      },
      {
        "astId": 4844,
        "contract": "contracts/protocol/core/CreditLineFactory.sol:CreditLineFactory",
        "label": "__gap3",
        "offset": 0,
        "slot": "351",
        "type": "t_array(t_uint256)50_storage"
      },
      {
        "astId": 4848,
        "contract": "contracts/protocol/core/CreditLineFactory.sol:CreditLineFactory",
        "label": "__gap4",
        "offset": 0,
        "slot": "401",
        "type": "t_array(t_uint256)50_storage"
      },
      {
        "astId": 7579,
        "contract": "contracts/protocol/core/CreditLineFactory.sol:CreditLineFactory",
        "label": "config",
        "offset": 0,
        "slot": "451",
        "type": "t_contract(GoldfinchConfig)8182"
      }
    ],
    "types": {
      "t_array(t_bytes32)dyn_storage": {
        "base": "t_bytes32",
        "encoding": "dynamic_array",
        "label": "bytes32[]",
        "numberOfBytes": "32"
      },
      "t_array(t_uint256)49_storage": {
        "base": "t_uint256",
        "encoding": "inplace",
        "label": "uint256[49]",
        "numberOfBytes": "1568"
      },
      "t_array(t_uint256)50_storage": {
        "base": "t_uint256",
        "encoding": "inplace",
        "label": "uint256[50]",
        "numberOfBytes": "1600"
      },
      "t_bool": {
        "encoding": "inplace",
        "label": "bool",
        "numberOfBytes": "1"
      },
      "t_bytes32": {
        "encoding": "inplace",
        "label": "bytes32",
        "numberOfBytes": "32"
      },
      "t_contract(GoldfinchConfig)8182": {
        "encoding": "inplace",
        "label": "contract GoldfinchConfig",
        "numberOfBytes": "20"
      },
      "t_mapping(t_bytes32,t_struct(RoleData)260_storage)": {
        "encoding": "mapping",
        "key": "t_bytes32",
        "label": "mapping(bytes32 => struct AccessControlUpgradeSafe.RoleData)",
        "numberOfBytes": "32",
        "value": "t_struct(RoleData)260_storage"
      },
      "t_mapping(t_bytes32,t_uint256)": {
        "encoding": "mapping",
        "key": "t_bytes32",
        "label": "mapping(bytes32 => uint256)",
        "numberOfBytes": "32",
        "value": "t_uint256"
      },
      "t_struct(AddressSet)2160_storage": {
        "encoding": "inplace",
        "label": "struct EnumerableSet.AddressSet",
        "members": [
          {
            "astId": 2159,
            "contract": "contracts/protocol/core/CreditLineFactory.sol:CreditLineFactory",
            "label": "_inner",
            "offset": 0,
            "slot": "0",
            "type": "t_struct(Set)1980_storage"
          }
        ],
        "numberOfBytes": "64"
      },
      "t_struct(RoleData)260_storage": {
        "encoding": "inplace",
        "label": "struct AccessControlUpgradeSafe.RoleData",
        "members": [
          {
            "astId": 257,
            "contract": "contracts/protocol/core/CreditLineFactory.sol:CreditLineFactory",
            "label": "members",
            "offset": 0,
            "slot": "0",
            "type": "t_struct(AddressSet)2160_storage"
          },
          {
            "astId": 259,
            "contract": "contracts/protocol/core/CreditLineFactory.sol:CreditLineFactory",
            "label": "adminRole",
            "offset": 0,
            "slot": "2",
            "type": "t_bytes32"
          }
        ],
        "numberOfBytes": "96"
      },
      "t_struct(Set)1980_storage": {
        "encoding": "inplace",
        "label": "struct EnumerableSet.Set",
        "members": [
          {
            "astId": 1975,
            "contract": "contracts/protocol/core/CreditLineFactory.sol:CreditLineFactory",
            "label": "_values",
            "offset": 0,
            "slot": "0",
            "type": "t_array(t_bytes32)dyn_storage"
          },
          {
            "astId": 1979,
            "contract": "contracts/protocol/core/CreditLineFactory.sol:CreditLineFactory",
            "label": "_indexes",
            "offset": 0,
            "slot": "1",
            "type": "t_mapping(t_bytes32,t_uint256)"
          }
        ],
        "numberOfBytes": "64"
      },
      "t_uint256": {
        "encoding": "inplace",
        "label": "uint256",
        "numberOfBytes": "32"
      }
    }
  }
}