{
  "address": "0xA669d40148Ad225dE0AE98B8F031EcB96Eb2d8a4",
  "abi": [
    {
      "anonymous": false,
      "inputs": [
        {
          "indexed": false,
          "internalType": "address",
          "name": "account",
          "type": "address"
        }
      ],
      "name": "Paused",
      "type": "event"
    },
    {
      "anonymous": false,
      "inputs": [
        {
          "indexed": true,
          "internalType": "bytes32",
          "name": "role",
          "type": "bytes32"
        },
        {
          "indexed": true,
          "internalType": "address",
          "name": "account",
          "type": "address"
        },
        {
          "indexed": true,
          "internalType": "address",
          "name": "sender",
          "type": "address"
        }
      ],
      "name": "RoleGranted",
      "type": "event"
    },
    {
      "anonymous": false,
      "inputs": [
        {
          "indexed": true,
          "internalType": "bytes32",
          "name": "role",
          "type": "bytes32"
        },
        {
          "indexed": true,
          "internalType": "address",
          "name": "account",
          "type": "address"
        },
        {
          "indexed": true,
          "internalType": "address",
          "name": "sender",
          "type": "address"
        }
      ],
      "name": "RoleRevoked",
      "type": "event"
    },
    {
      "anonymous": false,
      "inputs": [
        {
          "indexed": false,
          "internalType": "address",
          "name": "account",
          "type": "address"
        }
      ],
      "name": "Unpaused",
      "type": "event"
    },
    {
      "inputs": [],
      "name": "DEFAULT_ADMIN_ROLE",
      "outputs": [
        {
          "internalType": "bytes32",
          "name": "",
          "type": "bytes32"
        }
      ],
      "stateMutability": "view",
      "type": "function"
    },
    {
      "inputs": [],
      "name": "OWNER_ROLE",
      "outputs": [
        {
          "internalType": "bytes32",
          "name": "",
          "type": "bytes32"
        }
      ],
      "stateMutability": "view",
      "type": "function"
    },
    {
      "inputs": [],
      "name": "PAUSER_ROLE",
      "outputs": [
        {
          "internalType": "bytes32",
          "name": "",
          "type": "bytes32"
        }
      ],
      "stateMutability": "view",
      "type": "function"
    },
    {
      "inputs": [
        {
          "internalType": "address",
          "name": "owner",
          "type": "address"
        }
      ],
      "name": "__BaseUpgradeablePausable__init",
      "outputs": [],
      "stateMutability": "nonpayable",
      "type": "function"
    },
    {
      "inputs": [],
      "name": "__PauserPausable__init",
      "outputs": [],
      "stateMutability": "nonpayable",
      "type": "function"
    },
    {
      "inputs": [],
      "name": "config",
      "outputs": [
        {
          "internalType": "contract GoldfinchConfig",
          "name": "",
          "type": "address"
        }
      ],
      "stateMutability": "view",
      "type": "function"
    },
    {
      "inputs": [
        {
          "internalType": "contract ISeniorPool",
          "name": "seniorPool",
          "type": "address"
        },
        {
          "internalType": "contract ITranchedPool",
          "name": "pool",
          "type": "address"
        }
      ],
      "name": "estimateInvestment",
      "outputs": [
        {
          "internalType": "uint256",
          "name": "",
          "type": "uint256"
        }
      ],
      "stateMutability": "view",
      "type": "function"
    },
    {
      "inputs": [],
      "name": "getLeverageRatio",
      "outputs": [
        {
          "internalType": "uint256",
          "name": "",
          "type": "uint256"
        }
      ],
      "stateMutability": "view",
      "type": "function"
    },
    {
      "inputs": [
        {
          "internalType": "bytes32",
          "name": "role",
          "type": "bytes32"
        }
      ],
      "name": "getRoleAdmin",
      "outputs": [
        {
          "internalType": "bytes32",
          "name": "",
          "type": "bytes32"
        }
      ],
      "stateMutability": "view",
      "type": "function"
    },
    {
      "inputs": [
        {
          "internalType": "bytes32",
          "name": "role",
          "type": "bytes32"
        },
        {
          "internalType": "uint256",
          "name": "index",
          "type": "uint256"
        }
      ],
      "name": "getRoleMember",
      "outputs": [
        {
          "internalType": "address",
          "name": "",
          "type": "address"
        }
      ],
      "stateMutability": "view",
      "type": "function"
    },
    {
      "inputs": [
        {
          "internalType": "bytes32",
          "name": "role",
          "type": "bytes32"
        }
      ],
      "name": "getRoleMemberCount",
      "outputs": [
        {
          "internalType": "uint256",
          "name": "",
          "type": "uint256"
        }
      ],
      "stateMutability": "view",
      "type": "function"
    },
    {
      "inputs": [
        {
          "internalType": "bytes32",
          "name": "role",
          "type": "bytes32"
        },
        {
          "internalType": "address",
          "name": "account",
          "type": "address"
        }
      ],
      "name": "grantRole",
      "outputs": [],
      "stateMutability": "nonpayable",
      "type": "function"
    },
    {
      "inputs": [
        {
          "internalType": "bytes32",
          "name": "role",
          "type": "bytes32"
        },
        {
          "internalType": "address",
          "name": "account",
          "type": "address"
        }
      ],
      "name": "hasRole",
      "outputs": [
        {
          "internalType": "bool",
          "name": "",
          "type": "bool"
        }
      ],
      "stateMutability": "view",
      "type": "function"
    },
    {
      "inputs": [
        {
          "internalType": "address",
          "name": "owner",
          "type": "address"
        },
        {
          "internalType": "contract GoldfinchConfig",
          "name": "_config",
          "type": "address"
        }
      ],
      "name": "initialize",
      "outputs": [],
      "stateMutability": "nonpayable",
      "type": "function"
    },
    {
      "inputs": [
        {
          "internalType": "contract ISeniorPool",
          "name": "seniorPool",
          "type": "address"
        },
        {
          "internalType": "contract ITranchedPool",
          "name": "pool",
          "type": "address"
        }
      ],
      "name": "invest",
      "outputs": [
        {
          "internalType": "uint256",
          "name": "",
          "type": "uint256"
        }
      ],
      "stateMutability": "view",
      "type": "function"
    },
    {
      "inputs": [],
      "name": "isAdmin",
      "outputs": [
        {
          "internalType": "bool",
          "name": "",
          "type": "bool"
        }
      ],
      "stateMutability": "view",
      "type": "function"
    },
    {
      "inputs": [],
      "name": "pause",
      "outputs": [],
      "stateMutability": "nonpayable",
      "type": "function"
    },
    {
      "inputs": [],
      "name": "paused",
      "outputs": [
        {
          "internalType": "bool",
          "name": "",
          "type": "bool"
        }
      ],
      "stateMutability": "view",
      "type": "function"
    },
    {
      "inputs": [
        {
          "internalType": "bytes32",
          "name": "role",
          "type": "bytes32"
        },
        {
          "internalType": "address",
          "name": "account",
          "type": "address"
        }
      ],
      "name": "renounceRole",
      "outputs": [],
      "stateMutability": "nonpayable",
      "type": "function"
    },
    {
      "inputs": [
        {
          "internalType": "bytes32",
          "name": "role",
          "type": "bytes32"
        },
        {
          "internalType": "address",
          "name": "account",
          "type": "address"
        }
      ],
      "name": "revokeRole",
      "outputs": [],
      "stateMutability": "nonpayable",
      "type": "function"
    },
    {
      "inputs": [],
      "name": "unpause",
      "outputs": [],
      "stateMutability": "nonpayable",
      "type": "function"
    },
    {
      "inputs": [],
      "name": "updateGoldfinchConfig",
      "outputs": [],
      "stateMutability": "nonpayable",
      "type": "function"
    }
  ],
  "transactionHash": "0xf46d9bd07b7733d5bae7d8fb16591e45dd013c8ddad8ceb7554318f5225f27b0",
  "args": [],
  "solcInputHash": "6810fd0fbb39f4621f6dd945b08843ee",
  "bytecode": "0x608060405234801561001057600080fd5b5061176f806100206000396000f3fe608060405234801561001057600080fd5b50600436106101425760003560e01c806379502c55116100b8578063b6db75a01161007c578063b6db75a014610251578063ca15c87314610259578063d547741f1461026c578063e58378bb1461027f578063e63ab1e914610287578063ff8a4efe1461028f57610142565b806379502c55146102065780638456cb591461021b5780639010d07c1461022357806391d1485414610236578063a217fddf1461024957610142565b806336568abe1161010a57806336568abe146101b35780633f4ba83a146101c6578063485cc955146101ce5780634f92a728146101e1578063526d81f6146101e95780635c975abb146101f157610142565b8063046810ac14610147578063097616a3146101655780631f999a2d1461017a578063248a9ca31461018d5780632f2ff15d146101a0575b600080fd5b61014f6102a2565b60405161015c919061135b565b60405180910390f35b6101786101733660046111e4565b6102c0565b005b61014f6101883660046112b1565b6103f9565b61014f61019b366004611254565b61051e565b6101786101ae36600461126c565b610533565b6101786101c136600461126c565b610577565b6101786105b9565b6101786101dc36600461121c565b6105f9565b6101786106df565b61017861073c565b6101f96107c7565b60405161015c9190611350565b61020e6107d0565b60405161015c919061133c565b6101786107e0565b61020e610231366004611290565b61081e565b6101f961024436600461126c565b61083d565b61014f610855565b6101f961085a565b61014f610267366004611254565b610876565b61017861027a36600461126c565b61088d565b61014f6108c7565b61014f6108d9565b61014f61029d3660046112b1565b6108eb565b6101c3546000906102bb906001600160a01b0316610a2c565b905090565b600054610100900460ff16806102d957506102d9610aac565b806102e7575060005460ff16155b61030c5760405162461bcd60e51b8152600401610303906115fc565b60405180910390fd5b600054610100900460ff16158015610337576000805460ff1961ff0019909116610100171660011790555b6001600160a01b03821661035d5760405162461bcd60e51b815260040161030390611586565b610365610ab2565b61036d610b33565b610375610bbf565b61038d6000805160206116fa8339815191528361056d565b6103a560008051602061171a8339815191528361056d565b6103cb60008051602061171a8339815191526000805160206116fa833981519152610c4e565b6103e36000805160206116fa83398151915280610c4e565b80156103f5576000805461ff00191690555b5050565b60006104036111bc565b60405163d972e8ad60e01b81526001600160a01b0384169063d972e8ad906104309060029060040161135b565b60806040518083038186803b15801561044857600080fd5b505afa15801561045c573d6000803e3d6000fd5b505050506040513d601f19601f8201168201806040525081019061048091906112c3565b905061048a6111bc565b60405163d972e8ad60e01b81526001600160a01b0385169063d972e8ad906104b79060019060040161135b565b60806040518083038186803b1580156104cf57600080fd5b505afa1580156104e3573d6000803e3d6000fd5b505050506040513d601f19601f8201168201806040525081019061050791906112c3565b90506105138282610c63565b925050505b92915050565b60009081526065602052604090206002015490565b60008281526065602052604090206002015461055190610244610cb9565b61056d5760405162461bcd60e51b8152600401610303906113f9565b6103f58282610cbd565b61057f610cb9565b6001600160a01b0316816001600160a01b0316146105af5760405162461bcd60e51b815260040161030390611695565b6103f58282610d26565b6105d360008051602061171a833981519152610244610cb9565b6105ef5760405162461bcd60e51b8152600401610303906114c0565b6105f7610d8f565b565b600054610100900460ff16806106125750610612610aac565b80610620575060005460ff16155b61063c5760405162461bcd60e51b8152600401610303906115fc565b600054610100900460ff16158015610667576000805460ff1961ff0019909116610100171660011790555b6001600160a01b0383161580159061068757506001600160a01b03821615155b6106a35760405162461bcd60e51b815260040161030390611476565b6106ac836102c0565b6101c380546001600160a01b0319166001600160a01b03841617905580156106da576000805461ff00191690555b505050565b6106e761085a565b6107035760405162461bcd60e51b81526004016103039061164a565b6101c354610719906001600160a01b0316610dfb565b6101c380546001600160a01b0319166001600160a01b0392909216919091179055565b600054610100900460ff16806107555750610755610aac565b80610763575060005460ff16155b61077f5760405162461bcd60e51b8152600401610303906115fc565b600054610100900460ff161580156107aa576000805460ff1961ff0019909116610100171660011790555b6107b2610b33565b80156107c4576000805461ff00191690555b50565b60975460ff1690565b6101c3546001600160a01b031681565b6107fa60008051602061171a833981519152610244610cb9565b6108165760405162461bcd60e51b8152600401610303906114c0565b6105f7610e7b565b60008281526065602052604081206108369083610ed4565b9392505050565b60008281526065602052604081206108369083610ee0565b600081565b60006102bb6000805160206116fa833981519152610244610cb9565b600081815260656020526040812061051890610ef5565b6000828152606560205260409020600201546108ab90610244610cb9565b6105af5760405162461bcd60e51b81526004016103039061150c565b6000805160206116fa83398151915281565b60008051602061171a83398151915281565b60006108f56111bc565b60405163d972e8ad60e01b81526001600160a01b0384169063d972e8ad906109229060029060040161135b565b60806040518083038186803b15801561093a57600080fd5b505afa15801561094e573d6000803e3d6000fd5b505050506040513d601f19601f8201168201806040525081019061097291906112c3565b905061097c6111bc565b60405163d972e8ad60e01b81526001600160a01b0385169063d972e8ad906109a99060019060040161135b565b60806040518083038186803b1580156109c157600080fd5b505afa1580156109d5573d6000803e3d6000fd5b505050506040513d601f19601f820116820180604052508101906109f991906112c3565b9050816060015160001480610a12575060008160600151115b15610a2257600092505050610518565b6105138282610c63565b604051631f8ac6cb60e31b81526000906001600160a01b0383169063fc56365890610a5c9060099060040161135b565b60206040518083038186803b158015610a7457600080fd5b505afa158015610a88573d6000803e3d6000fd5b505050506040513d601f19601f820116820180604052508101906105189190611324565b303b1590565b600054610100900460ff1680610acb5750610acb610aac565b80610ad9575060005460ff16155b610af55760405162461bcd60e51b8152600401610303906115fc565b600054610100900460ff161580156107b2576000805460ff1961ff00199091166101001716600117905580156107c4576000805461ff001916905550565b600054610100900460ff1680610b4c5750610b4c610aac565b80610b5a575060005460ff16155b610b765760405162461bcd60e51b8152600401610303906115fc565b600054610100900460ff16158015610ba1576000805460ff1961ff0019909116610100171660011790555b6097805460ff1916905580156107c4576000805461ff001916905550565b600054610100900460ff1680610bd85750610bd8610aac565b80610be6575060005460ff16155b610c025760405162461bcd60e51b8152600401610303906115fc565b600054610100900460ff16158015610c2d576000805460ff1961ff0019909116610100171660011790555b60c9805460ff1916600117905580156107c4576000805461ff001916905550565b60009182526065602052604090912060020155565b815181516000919082610c90670de0b6b3a7640000610c8a610c836102a2565b8690610f00565b90610f3a565b9050808210610ca55760009350505050610518565b610caf8183610f7c565b9695505050505050565b3390565b6000828152606560205260409020610cd59082610fbe565b156103f557610ce2610cb9565b6001600160a01b0316816001600160a01b0316837f2f8788117e7eff1d82e926ec794901d17c78024a50270940304540a733656f0d60405160405180910390a45050565b6000828152606560205260409020610d3e9082610fd3565b156103f557610d4b610cb9565b6001600160a01b0316816001600160a01b0316837ff6391f5c32d9c69d2a47ea670b442974b53935d1edc7fd64eb21e047a839171b60405160405180910390a45050565b60975460ff16610db15760405162461bcd60e51b815260040161030390611448565b6097805460ff191690557f5db9ee0a495bf2e6ff9c91a7834c1ba4fdd244a5e8aa4e537bd38aeae4b073aa610de4610cb9565b604051610df1919061133c565b60405180910390a1565b604051635c9fcd8560e11b81526000906001600160a01b0383169063b93f9b0a90610e2b90600b9060040161135b565b60206040518083038186803b158015610e4357600080fd5b505afa158015610e57573d6000803e3d6000fd5b505050506040513d601f19601f820116820180604052508101906105189190611200565b60975460ff1615610e9e5760405162461bcd60e51b81526004016103039061155c565b6097805460ff191660011790557f62e78cea01bee320cd4e420270b5ea74000d11b0c9f74754ebdbfc544b05a258610de4610cb9565b60006108368383610fe8565b6000610836836001600160a01b03841661102d565b600061051882611045565b600082610f0f57506000610518565b82820282848281610f1c57fe5b04146108365760405162461bcd60e51b8152600401610303906115bb565b600061083683836040518060400160405280601a81526020017f536166654d6174683a206469766973696f6e206279207a65726f000000000000815250611049565b600061083683836040518060400160405280601e81526020017f536166654d6174683a207375627472616374696f6e206f766572666c6f770000815250611080565b6000610836836001600160a01b0384166110ac565b6000610836836001600160a01b0384166110f6565b8154600090821061100b5760405162461bcd60e51b8152600401610303906113b7565b82600001828154811061101a57fe5b9060005260206000200154905092915050565b60009081526001919091016020526040902054151590565b5490565b6000818361106a5760405162461bcd60e51b81526004016103039190611364565b50600083858161107657fe5b0495945050505050565b600081848411156110a45760405162461bcd60e51b81526004016103039190611364565b505050900390565b60006110b8838361102d565b6110ee57508154600181810184556000848152602080822090930184905584548482528286019093526040902091909155610518565b506000610518565b600081815260018301602052604081205480156111b2578354600019808301919081019060009087908390811061112957fe5b906000526020600020015490508087600001848154811061114657fe5b60009182526020808320909101929092558281526001898101909252604090209084019055865487908061117657fe5b60019003818190600052602060002001600090559055866001016000878152602001908152602001600020600090556001945050505050610518565b6000915050610518565b6040518060800160405280600081526020016000815260200160008152602001600081525090565b6000602082840312156111f5578081fd5b8135610836816116e4565b600060208284031215611211578081fd5b8151610836816116e4565b6000806040838503121561122e578081fd5b8235611239816116e4565b91506020830135611249816116e4565b809150509250929050565b600060208284031215611265578081fd5b5035919050565b6000806040838503121561127e578182fd5b823591506020830135611249816116e4565b600080604083850312156112a2578182fd5b50508035926020909101359150565b6000806040838503121561122e578182fd5b6000608082840312156112d4578081fd5b6040516080810181811067ffffffffffffffff821117156112f3578283fd5b8060405250825181526020830151602082015260408301516040820152606083015160608201528091505092915050565b600060208284031215611335578081fd5b5051919050565b6001600160a01b0391909116815260200190565b901515815260200190565b90815260200190565b6000602080835283518082850152825b8181101561139057858101830151858201604001528201611374565b818111156113a15783604083870101525b50601f01601f1916929092016040019392505050565b60208082526022908201527f456e756d657261626c655365743a20696e646578206f7574206f6620626f756e604082015261647360f01b606082015260800190565b6020808252602f908201527f416363657373436f6e74726f6c3a2073656e646572206d75737420626520616e60408201526e0818591b5a5b881d1bc819dc985b9d608a1b606082015260800190565b60208082526014908201527314185d5cd8589b194e881b9bdd081c185d5cd95960621b604082015260600190565b6020808252602a908201527f4f776e657220616e6420636f6e666967206164647265737365732063616e6e6f6040820152697420626520656d70747960b01b606082015260800190565b6020808252602c908201527f4d75737420686176652070617573657220726f6c6520746f20706572666f726d60408201526b103a3434b99030b1ba34b7b760a11b606082015260800190565b60208082526030908201527f416363657373436f6e74726f6c3a2073656e646572206d75737420626520616e60408201526f2061646d696e20746f207265766f6b6560801b606082015260800190565b60208082526010908201526f14185d5cd8589b194e881c185d5cd95960821b604082015260600190565b6020808252818101527f4f776e65722063616e6e6f7420626520746865207a65726f2061646472657373604082015260600190565b60208082526021908201527f536166654d6174683a206d756c7469706c69636174696f6e206f766572666c6f6040820152607760f81b606082015260800190565b6020808252602e908201527f436f6e747261637420696e7374616e63652068617320616c726561647920626560408201526d195b881a5b9a5d1a585b1a5e995960921b606082015260800190565b6020808252602b908201527f4d75737420686176652061646d696e20726f6c6520746f20706572666f726d2060408201526a3a3434b99030b1ba34b7b760a91b606082015260800190565b6020808252602f908201527f416363657373436f6e74726f6c3a2063616e206f6e6c792072656e6f756e636560408201526e103937b632b9903337b91039b2b63360891b606082015260800190565b6001600160a01b03811681146107c457600080fdfeb19546dff01e856fb3f010c267a7b1c60363cf8a4664e21cc89c26224620214e65d7a28e3265b37a6474929f336521b332c1681b933f6cb9f3376673440d862aa26469706673582212201363c68401eacc62a572de895887920ebf2d445ceb5b24b1e4d81613262b0a9b64736f6c634300060c0033",
  "devdoc": {
    "kind": "dev",
    "methods": {
      "estimateInvestment(address,address)": {
        "params": {
          "pool": "The pool to invest into (as the senior)",
          "seniorPool": "The fund to invest from"
        },
        "returns": {
          "_0": "The amount of money to invest into the pool from the fund"
        }
      },
      "getRoleAdmin(bytes32)": {
        "details": "Returns the admin role that controls `role`. See {grantRole} and {revokeRole}. To change a role's admin, use {_setRoleAdmin}."
      },
      "getRoleMember(bytes32,uint256)": {
        "details": "Returns one of the accounts that have `role`. `index` must be a value between 0 and {getRoleMemberCount}, non-inclusive. Role bearers are not sorted in any particular way, and their ordering may change at any point. WARNING: When using {getRoleMember} and {getRoleMemberCount}, make sure you perform all queries on the same block. See the following https://forum.openzeppelin.com/t/iterating-over-elements-on-enumerableset-in-openzeppelin-contracts/2296[forum post] for more information."
      },
      "getRoleMemberCount(bytes32)": {
        "details": "Returns the number of accounts that have `role`. Can be used together with {getRoleMember} to enumerate all bearers of a role."
      },
      "grantRole(bytes32,address)": {
        "details": "Grants `role` to `account`. If `account` had not been already granted `role`, emits a {RoleGranted} event. Requirements: - the caller must have ``role``'s admin role."
      },
      "hasRole(bytes32,address)": {
        "details": "Returns `true` if `account` has been granted `role`."
      },
      "invest(address,address)": {
        "params": {
          "pool": "The pool to invest into (as the senior)",
          "seniorPool": "The fund to invest from"
        },
        "returns": {
          "_0": "The amount of money to invest into the pool from the fund"
        }
      },
      "pause()": {
        "details": "Pauses all functions guarded by Pause See {Pausable-_pause}. Requirements: - the caller must have the PAUSER_ROLE."
      },
      "paused()": {
        "details": "Returns true if the contract is paused, and false otherwise."
      },
      "renounceRole(bytes32,address)": {
        "details": "Revokes `role` from the calling account. Roles are often managed via {grantRole} and {revokeRole}: this function's purpose is to provide a mechanism for accounts to lose their privileges if they are compromised (such as when a trusted device is misplaced). If the calling account had been granted `role`, emits a {RoleRevoked} event. Requirements: - the caller must be `account`."
      },
      "revokeRole(bytes32,address)": {
        "details": "Revokes `role` from `account`. If `account` had been granted `role`, emits a {RoleRevoked} event. Requirements: - the caller must have ``role``'s admin role."
      },
      "unpause()": {
        "details": "Unpauses the contract See {Pausable-_unpause}. Requirements: - the caller must have the Pauser role"
      }
    },
    "version": 1
  },
  "userdoc": {
    "kind": "user",
    "methods": {
      "estimateInvestment(address,address)": {
        "notice": "Determines how much money to invest in the senior tranche based on what is committed to the junior, tranche and a fixed leverage ratio to the junior, as if all conditions for investment were met. Idempotent."
      },
      "invest(address,address)": {
        "notice": "Determines how much money to invest in the senior tranche based on what is committed to the junior tranche and a fixed leverage ratio to the junior. Idempotent."
      }
    },
    "version": 1
  },
  "storageLayout": {
    "storage": [
      {
        "astId": 151,
        "contract": "contracts/protocol/core/FixedLeverageRatioStrategy.sol:FixedLeverageRatioStrategy",
        "label": "initialized",
        "offset": 0,
        "slot": "0",
        "type": "t_bool"
      },
      {
        "astId": 154,
        "contract": "contracts/protocol/core/FixedLeverageRatioStrategy.sol:FixedLeverageRatioStrategy",
        "label": "initializing",
        "offset": 1,
        "slot": "0",
        "type": "t_bool"
      },
      {
        "astId": 219,
        "contract": "contracts/protocol/core/FixedLeverageRatioStrategy.sol:FixedLeverageRatioStrategy",
        "label": "______gap",
        "offset": 0,
        "slot": "1",
        "type": "t_array(t_uint256)50_storage"
      },
      {
        "astId": 144,
        "contract": "contracts/protocol/core/FixedLeverageRatioStrategy.sol:FixedLeverageRatioStrategy",
        "label": "__gap",
        "offset": 0,
        "slot": "51",
        "type": "t_array(t_uint256)50_storage"
      },
      {
        "astId": 264,
        "contract": "contracts/protocol/core/FixedLeverageRatioStrategy.sol:FixedLeverageRatioStrategy",
        "label": "_roles",
        "offset": 0,
        "slot": "101",
        "type": "t_mapping(t_bytes32,t_struct(RoleData)260_storage)"
      },
      {
        "astId": 509,
        "contract": "contracts/protocol/core/FixedLeverageRatioStrategy.sol:FixedLeverageRatioStrategy",
        "label": "__gap",
        "offset": 0,
        "slot": "102",
        "type": "t_array(t_uint256)49_storage"
      },
      {
        "astId": 4201,
        "contract": "contracts/protocol/core/FixedLeverageRatioStrategy.sol:FixedLeverageRatioStrategy",
        "label": "_paused",
        "offset": 0,
        "slot": "151",
        "type": "t_bool"
      },
      {
        "astId": 4290,
        "contract": "contracts/protocol/core/FixedLeverageRatioStrategy.sol:FixedLeverageRatioStrategy",
        "label": "__gap",
        "offset": 0,
        "slot": "152",
        "type": "t_array(t_uint256)49_storage"
      },
      {
        "astId": 4299,
        "contract": "contracts/protocol/core/FixedLeverageRatioStrategy.sol:FixedLeverageRatioStrategy",
        "label": "_notEntered",
        "offset": 0,
        "slot": "201",
        "type": "t_bool"
      },
      {
        "astId": 4340,
        "contract": "contracts/protocol/core/FixedLeverageRatioStrategy.sol:FixedLeverageRatioStrategy",
        "label": "__gap",
        "offset": 0,
        "slot": "202",
        "type": "t_array(t_uint256)49_storage"
      },
      {
        "astId": 9355,
        "contract": "contracts/protocol/core/FixedLeverageRatioStrategy.sol:FixedLeverageRatioStrategy",
        "label": "__gap1",
        "offset": 0,
        "slot": "251",
        "type": "t_array(t_uint256)50_storage"
      },
      {
        "astId": 9359,
        "contract": "contracts/protocol/core/FixedLeverageRatioStrategy.sol:FixedLeverageRatioStrategy",
        "label": "__gap2",
        "offset": 0,
        "slot": "301",
        "type": "t_array(t_uint256)50_storage"
      },
      {
        "astId": 9363,
        "contract": "contracts/protocol/core/FixedLeverageRatioStrategy.sol:FixedLeverageRatioStrategy",
        "label": "__gap3",
        "offset": 0,
        "slot": "351",
        "type": "t_array(t_uint256)50_storage"
      },
      {
        "astId": 9367,
        "contract": "contracts/protocol/core/FixedLeverageRatioStrategy.sol:FixedLeverageRatioStrategy",
        "label": "__gap4",
        "offset": 0,
        "slot": "401",
        "type": "t_array(t_uint256)50_storage"
      },
      {
        "astId": 13150,
        "contract": "contracts/protocol/core/FixedLeverageRatioStrategy.sol:FixedLeverageRatioStrategy",
        "label": "config",
        "offset": 0,
        "slot": "451",
        "type": "t_contract(GoldfinchConfig)13893"
      }
    ],
    "types": {
      "t_array(t_bytes32)dyn_storage": {
        "base": "t_bytes32",
        "encoding": "dynamic_array",
        "label": "bytes32[]",
        "numberOfBytes": "32"
      },
      "t_array(t_uint256)49_storage": {
        "base": "t_uint256",
        "encoding": "inplace",
        "label": "uint256[49]",
        "numberOfBytes": "1568"
      },
      "t_array(t_uint256)50_storage": {
        "base": "t_uint256",
        "encoding": "inplace",
        "label": "uint256[50]",
        "numberOfBytes": "1600"
      },
      "t_bool": {
        "encoding": "inplace",
        "label": "bool",
        "numberOfBytes": "1"
      },
      "t_bytes32": {
        "encoding": "inplace",
        "label": "bytes32",
        "numberOfBytes": "32"
      },
      "t_contract(GoldfinchConfig)13893": {
        "encoding": "inplace",
        "label": "contract GoldfinchConfig",
        "numberOfBytes": "20"
      },
      "t_mapping(t_bytes32,t_struct(RoleData)260_storage)": {
        "encoding": "mapping",
        "key": "t_bytes32",
        "label": "mapping(bytes32 => struct AccessControlUpgradeSafe.RoleData)",
        "numberOfBytes": "32",
        "value": "t_struct(RoleData)260_storage"
      },
      "t_mapping(t_bytes32,t_uint256)": {
        "encoding": "mapping",
        "key": "t_bytes32",
        "label": "mapping(bytes32 => uint256)",
        "numberOfBytes": "32",
        "value": "t_uint256"
      },
      "t_struct(AddressSet)3976_storage": {
        "encoding": "inplace",
        "label": "struct EnumerableSet.AddressSet",
        "members": [
          {
            "astId": 3975,
            "contract": "contracts/protocol/core/FixedLeverageRatioStrategy.sol:FixedLeverageRatioStrategy",
            "label": "_inner",
            "offset": 0,
            "slot": "0",
            "type": "t_struct(Set)3796_storage"
          }
        ],
        "numberOfBytes": "64"
      },
      "t_struct(RoleData)260_storage": {
        "encoding": "inplace",
        "label": "struct AccessControlUpgradeSafe.RoleData",
        "members": [
          {
            "astId": 257,
            "contract": "contracts/protocol/core/FixedLeverageRatioStrategy.sol:FixedLeverageRatioStrategy",
            "label": "members",
            "offset": 0,
            "slot": "0",
            "type": "t_struct(AddressSet)3976_storage"
          },
          {
            "astId": 259,
            "contract": "contracts/protocol/core/FixedLeverageRatioStrategy.sol:FixedLeverageRatioStrategy",
            "label": "adminRole",
            "offset": 0,
            "slot": "2",
            "type": "t_bytes32"
          }
        ],
        "numberOfBytes": "96"
      },
      "t_struct(Set)3796_storage": {
        "encoding": "inplace",
        "label": "struct EnumerableSet.Set",
        "members": [
          {
            "astId": 3791,
            "contract": "contracts/protocol/core/FixedLeverageRatioStrategy.sol:FixedLeverageRatioStrategy",
            "label": "_values",
            "offset": 0,
            "slot": "0",
            "type": "t_array(t_bytes32)dyn_storage"
          },
          {
            "astId": 3795,
            "contract": "contracts/protocol/core/FixedLeverageRatioStrategy.sol:FixedLeverageRatioStrategy",
            "label": "_indexes",
            "offset": 0,
            "slot": "1",
            "type": "t_mapping(t_bytes32,t_uint256)"
          }
        ],
        "numberOfBytes": "64"
      },
      "t_uint256": {
        "encoding": "inplace",
        "label": "uint256",
        "numberOfBytes": "32"
      }
    }
  }
}