{
  "address": "0x31C9d984995B2B2C00364C263606566BB84Ffb02",
  "abi": [
    {
      "anonymous": false,
      "inputs": [
        {
          "indexed": true,
          "internalType": "address",
          "name": "oldCreditLine",
          "type": "address"
        },
        {
          "indexed": true,
          "internalType": "address",
          "name": "newCreditLine",
          "type": "address"
        }
      ],
      "name": "CreditLineMigrated",
      "type": "event"
    },
    {
      "anonymous": false,
      "inputs": [
        {
          "indexed": true,
          "internalType": "address",
          "name": "owner",
          "type": "address"
        },
        {
          "indexed": true,
          "internalType": "uint256",
          "name": "tranche",
          "type": "uint256"
        },
        {
          "indexed": true,
          "internalType": "uint256",
          "name": "tokenId",
          "type": "uint256"
        },
        {
          "indexed": false,
          "internalType": "uint256",
          "name": "amount",
          "type": "uint256"
        }
      ],
      "name": "DepositMade",
      "type": "event"
    },
    {
      "anonymous": false,
      "inputs": [
        {
          "indexed": true,
          "internalType": "address",
          "name": "borrower",
          "type": "address"
        },
        {
          "indexed": false,
          "internalType": "uint256",
          "name": "amount",
          "type": "uint256"
        }
      ],
      "name": "DrawdownMade",
      "type": "event"
    },
    {
      "anonymous": false,
      "inputs": [
        {
          "indexed": true,
          "internalType": "address",
          "name": "pool",
          "type": "address"
        }
      ],
      "name": "DrawdownsPaused",
      "type": "event"
    },
    {
      "anonymous": false,
      "inputs": [
        {
          "indexed": true,
          "internalType": "address",
          "name": "pool",
          "type": "address"
        }
      ],
      "name": "DrawdownsUnpaused",
      "type": "event"
    },
    {
      "anonymous": false,
      "inputs": [
        {
          "indexed": true,
          "internalType": "address",
          "name": "pool",
          "type": "address"
        }
      ],
      "name": "EmergencyShutdown",
      "type": "event"
    },
    {
      "anonymous": false,
      "inputs": [
        {
          "indexed": false,
          "internalType": "address",
          "name": "account",
          "type": "address"
        }
      ],
      "name": "Paused",
      "type": "event"
    },
    {
      "anonymous": false,
      "inputs": [
        {
          "indexed": true,
          "internalType": "address",
          "name": "payer",
          "type": "address"
        },
        {
          "indexed": true,
          "internalType": "address",
          "name": "pool",
          "type": "address"
        },
        {
          "indexed": false,
          "internalType": "uint256",
          "name": "interestAmount",
          "type": "uint256"
        },
        {
          "indexed": false,
          "internalType": "uint256",
          "name": "principalAmount",
          "type": "uint256"
        },
        {
          "indexed": false,
          "internalType": "uint256",
          "name": "remainingAmount",
          "type": "uint256"
        },
        {
          "indexed": false,
          "internalType": "uint256",
          "name": "reserveAmount",
          "type": "uint256"
        }
      ],
      "name": "PaymentApplied",
      "type": "event"
    },
    {
      "anonymous": false,
      "inputs": [
        {
          "indexed": true,
          "internalType": "address",
          "name": "from",
          "type": "address"
        },
        {
          "indexed": false,
          "internalType": "uint256",
          "name": "amount",
          "type": "uint256"
        }
      ],
      "name": "ReserveFundsCollected",
      "type": "event"
    },
    {
      "anonymous": false,
      "inputs": [
        {
          "indexed": true,
          "internalType": "bytes32",
          "name": "role",
          "type": "bytes32"
        },
        {
          "indexed": true,
          "internalType": "address",
          "name": "account",
          "type": "address"
        },
        {
          "indexed": true,
          "internalType": "address",
          "name": "sender",
          "type": "address"
        }
      ],
      "name": "RoleGranted",
      "type": "event"
    },
    {
      "anonymous": false,
      "inputs": [
        {
          "indexed": true,
          "internalType": "bytes32",
          "name": "role",
          "type": "bytes32"
        },
        {
          "indexed": true,
          "internalType": "address",
          "name": "account",
          "type": "address"
        },
        {
          "indexed": true,
          "internalType": "address",
          "name": "sender",
          "type": "address"
        }
      ],
      "name": "RoleRevoked",
      "type": "event"
    },
    {
      "anonymous": false,
      "inputs": [
        {
          "indexed": false,
          "internalType": "address",
          "name": "account",
          "type": "address"
        }
      ],
      "name": "Unpaused",
      "type": "event"
    },
    {
      "anonymous": false,
      "inputs": [
        {
          "indexed": true,
          "internalType": "address",
          "name": "owner",
          "type": "address"
        },
        {
          "indexed": true,
          "internalType": "uint256",
          "name": "tranche",
          "type": "uint256"
        },
        {
          "indexed": true,
          "internalType": "uint256",
          "name": "tokenId",
          "type": "uint256"
        },
        {
          "indexed": false,
          "internalType": "uint256",
          "name": "interestWithdrawn",
          "type": "uint256"
        },
        {
          "indexed": false,
          "internalType": "uint256",
          "name": "principalWithdrawn",
          "type": "uint256"
        }
      ],
      "name": "WithdrawalMade",
      "type": "event"
    },
    {
      "inputs": [],
      "name": "DEFAULT_ADMIN_ROLE",
      "outputs": [
        {
          "internalType": "bytes32",
          "name": "",
          "type": "bytes32"
        }
      ],
      "stateMutability": "view",
      "type": "function"
    },
    {
      "inputs": [],
      "name": "FP_SCALING_FACTOR",
      "outputs": [
        {
          "internalType": "uint256",
          "name": "",
          "type": "uint256"
        }
      ],
      "stateMutability": "view",
      "type": "function"
    },
    {
      "inputs": [],
      "name": "LOCKER_ROLE",
      "outputs": [
        {
          "internalType": "bytes32",
          "name": "",
          "type": "bytes32"
        }
      ],
      "stateMutability": "view",
      "type": "function"
    },
    {
      "inputs": [],
      "name": "ONE_HUNDRED",
      "outputs": [
        {
          "internalType": "uint256",
          "name": "",
          "type": "uint256"
        }
      ],
      "stateMutability": "view",
      "type": "function"
    },
    {
      "inputs": [],
      "name": "OWNER_ROLE",
      "outputs": [
        {
          "internalType": "bytes32",
          "name": "",
          "type": "bytes32"
        }
      ],
      "stateMutability": "view",
      "type": "function"
    },
    {
      "inputs": [],
      "name": "PAUSER_ROLE",
      "outputs": [
        {
          "internalType": "bytes32",
          "name": "",
          "type": "bytes32"
        }
      ],
      "stateMutability": "view",
      "type": "function"
    },
    {
      "inputs": [],
      "name": "SECONDS_PER_DAY",
      "outputs": [
        {
          "internalType": "uint256",
          "name": "",
          "type": "uint256"
        }
      ],
      "stateMutability": "view",
      "type": "function"
    },
    {
      "inputs": [
        {
          "internalType": "address",
          "name": "owner",
          "type": "address"
        }
      ],
      "name": "__BaseUpgradeablePausable__init",
      "outputs": [],
      "stateMutability": "nonpayable",
      "type": "function"
    },
    {
      "inputs": [],
      "name": "__PauserPausable__init",
      "outputs": [],
      "stateMutability": "nonpayable",
      "type": "function"
    },
    {
      "inputs": [],
      "name": "assess",
      "outputs": [],
      "stateMutability": "nonpayable",
      "type": "function"
    },
    {
      "inputs": [
        {
          "internalType": "uint256",
          "name": "tokenId",
          "type": "uint256"
        }
      ],
      "name": "availableToWithdraw",
      "outputs": [
        {
          "internalType": "uint256",
          "name": "interestRedeemable",
          "type": "uint256"
        },
        {
          "internalType": "uint256",
          "name": "principalRedeemable",
          "type": "uint256"
        }
      ],
      "stateMutability": "view",
      "type": "function"
    },
    {
      "inputs": [],
      "name": "borrower",
      "outputs": [
        {
          "internalType": "address",
          "name": "",
          "type": "address"
        }
      ],
      "stateMutability": "view",
      "type": "function"
    },
    {
      "inputs": [],
      "name": "config",
      "outputs": [
        {
          "internalType": "contract GoldfinchConfig",
          "name": "",
          "type": "address"
        }
      ],
      "stateMutability": "view",
      "type": "function"
    },
    {
      "inputs": [],
      "name": "createdAt",
      "outputs": [
        {
          "internalType": "uint256",
          "name": "",
          "type": "uint256"
        }
      ],
      "stateMutability": "view",
      "type": "function"
    },
    {
      "inputs": [],
      "name": "creditLine",
      "outputs": [
        {
          "internalType": "contract IV2CreditLine",
          "name": "",
          "type": "address"
        }
      ],
      "stateMutability": "view",
      "type": "function"
    },
    {
      "inputs": [
        {
          "internalType": "uint256",
          "name": "tranche",
          "type": "uint256"
        },
        {
          "internalType": "uint256",
          "name": "amount",
          "type": "uint256"
        }
      ],
      "name": "deposit",
      "outputs": [
        {
          "internalType": "uint256",
          "name": "tokenId",
          "type": "uint256"
        }
      ],
      "stateMutability": "nonpayable",
      "type": "function"
    },
    {
      "inputs": [
        {
          "internalType": "uint256",
          "name": "tranche",
          "type": "uint256"
        },
        {
          "internalType": "uint256",
          "name": "amount",
          "type": "uint256"
        },
        {
          "internalType": "uint256",
          "name": "deadline",
          "type": "uint256"
        },
        {
          "internalType": "uint8",
          "name": "v",
          "type": "uint8"
        },
        {
          "internalType": "bytes32",
          "name": "r",
          "type": "bytes32"
        },
        {
          "internalType": "bytes32",
          "name": "s",
          "type": "bytes32"
        }
      ],
      "name": "depositWithPermit",
      "outputs": [
        {
          "internalType": "uint256",
          "name": "tokenId",
          "type": "uint256"
        }
      ],
      "stateMutability": "nonpayable",
      "type": "function"
    },
    {
      "inputs": [
        {
          "internalType": "uint256",
          "name": "amount",
          "type": "uint256"
        }
      ],
      "name": "drawdown",
      "outputs": [],
      "stateMutability": "nonpayable",
      "type": "function"
    },
    {
      "inputs": [],
      "name": "drawdownsPaused",
      "outputs": [
        {
          "internalType": "bool",
          "name": "",
          "type": "bool"
        }
      ],
      "stateMutability": "view",
      "type": "function"
    },
    {
      "inputs": [],
      "name": "emergencyShutdown",
      "outputs": [],
      "stateMutability": "nonpayable",
      "type": "function"
    },
    {
      "inputs": [
        {
          "internalType": "bytes32",
          "name": "role",
          "type": "bytes32"
        }
      ],
      "name": "getRoleAdmin",
      "outputs": [
        {
          "internalType": "bytes32",
          "name": "",
          "type": "bytes32"
        }
      ],
      "stateMutability": "view",
      "type": "function"
    },
    {
      "inputs": [
        {
          "internalType": "bytes32",
          "name": "role",
          "type": "bytes32"
        },
        {
          "internalType": "uint256",
          "name": "index",
          "type": "uint256"
        }
      ],
      "name": "getRoleMember",
      "outputs": [
        {
          "internalType": "address",
          "name": "",
          "type": "address"
        }
      ],
      "stateMutability": "view",
      "type": "function"
    },
    {
      "inputs": [
        {
          "internalType": "bytes32",
          "name": "role",
          "type": "bytes32"
        }
      ],
      "name": "getRoleMemberCount",
      "outputs": [
        {
          "internalType": "uint256",
          "name": "",
          "type": "uint256"
        }
      ],
      "stateMutability": "view",
      "type": "function"
    },
    {
      "inputs": [
        {
          "internalType": "uint256",
          "name": "tranche",
          "type": "uint256"
        }
      ],
      "name": "getTranche",
      "outputs": [
        {
          "components": [
            {
              "internalType": "uint256",
              "name": "principalDeposited",
              "type": "uint256"
            },
            {
              "internalType": "uint256",
              "name": "principalSharePrice",
              "type": "uint256"
            },
            {
              "internalType": "uint256",
              "name": "interestSharePrice",
              "type": "uint256"
            },
            {
              "internalType": "uint256",
              "name": "lockedUntil",
              "type": "uint256"
            }
          ],
          "internalType": "struct ITranchedPool.TrancheInfo",
          "name": "",
          "type": "tuple"
        }
      ],
      "stateMutability": "view",
      "type": "function"
    },
    {
      "inputs": [
        {
          "internalType": "bytes32",
          "name": "role",
          "type": "bytes32"
        },
        {
          "internalType": "address",
          "name": "account",
          "type": "address"
        }
      ],
      "name": "grantRole",
      "outputs": [],
      "stateMutability": "nonpayable",
      "type": "function"
    },
    {
      "inputs": [
        {
          "internalType": "bytes32",
          "name": "role",
          "type": "bytes32"
        },
        {
          "internalType": "address",
          "name": "account",
          "type": "address"
        }
      ],
      "name": "hasRole",
      "outputs": [
        {
          "internalType": "bool",
          "name": "",
          "type": "bool"
        }
      ],
      "stateMutability": "view",
      "type": "function"
    },
    {
      "inputs": [
        {
          "internalType": "address",
          "name": "_config",
          "type": "address"
        },
        {
          "internalType": "address",
          "name": "_borrower",
          "type": "address"
        },
        {
          "internalType": "uint256",
          "name": "_juniorFeePercent",
          "type": "uint256"
        },
        {
          "internalType": "uint256",
          "name": "_limit",
          "type": "uint256"
        },
        {
          "internalType": "uint256",
          "name": "_interestApr",
          "type": "uint256"
        },
        {
          "internalType": "uint256",
          "name": "_paymentPeriodInDays",
          "type": "uint256"
        },
        {
          "internalType": "uint256",
          "name": "_termInDays",
          "type": "uint256"
        },
        {
          "internalType": "uint256",
          "name": "_lateFeeApr",
          "type": "uint256"
        }
      ],
      "name": "initialize",
      "outputs": [],
      "stateMutability": "nonpayable",
      "type": "function"
    },
    {
      "inputs": [],
      "name": "interestApr",
      "outputs": [
        {
          "internalType": "uint256",
          "name": "",
          "type": "uint256"
        }
      ],
      "stateMutability": "view",
      "type": "function"
    },
    {
      "inputs": [],
      "name": "isAdmin",
      "outputs": [
        {
          "internalType": "bool",
          "name": "",
          "type": "bool"
        }
      ],
      "stateMutability": "view",
      "type": "function"
    },
    {
      "inputs": [],
      "name": "juniorFeePercent",
      "outputs": [
        {
          "internalType": "uint256",
          "name": "",
          "type": "uint256"
        }
      ],
      "stateMutability": "view",
      "type": "function"
    },
    {
      "inputs": [],
      "name": "lateFeeApr",
      "outputs": [
        {
          "internalType": "uint256",
          "name": "",
          "type": "uint256"
        }
      ],
      "stateMutability": "view",
      "type": "function"
    },
    {
      "inputs": [],
      "name": "limit",
      "outputs": [
        {
          "internalType": "uint256",
          "name": "",
          "type": "uint256"
        }
      ],
      "stateMutability": "view",
      "type": "function"
    },
    {
      "inputs": [],
      "name": "lockJuniorCapital",
      "outputs": [],
      "stateMutability": "nonpayable",
      "type": "function"
    },
    {
      "inputs": [],
      "name": "lockPool",
      "outputs": [],
      "stateMutability": "nonpayable",
      "type": "function"
    },
    {
      "inputs": [
        {
          "internalType": "address",
          "name": "newCl",
          "type": "address"
        }
      ],
      "name": "migrateAndSetNewCreditLine",
      "outputs": [],
      "stateMutability": "nonpayable",
      "type": "function"
    },
    {
      "inputs": [
        {
          "internalType": "contract IV1CreditLine",
          "name": "clToMigrate",
          "type": "address"
        },
        {
          "internalType": "uint256",
          "name": "termEndTime",
          "type": "uint256"
        },
        {
          "internalType": "uint256",
          "name": "nextDueTime",
          "type": "uint256"
        },
        {
          "internalType": "uint256",
          "name": "interestAccruedAsOf",
          "type": "uint256"
        },
        {
          "internalType": "uint256",
          "name": "lastFullPaymentTime",
          "type": "uint256"
        },
        {
          "internalType": "uint256",
          "name": "totalInterestPaid",
          "type": "uint256"
        },
        {
          "internalType": "uint256",
          "name": "totalPrincipalPaid",
          "type": "uint256"
        }
      ],
      "name": "migrateCreditLine",
      "outputs": [
        {
          "internalType": "contract IV2CreditLine",
          "name": "",
          "type": "address"
        }
      ],
      "stateMutability": "nonpayable",
      "type": "function"
    },
    {
      "inputs": [
        {
          "internalType": "address",
          "name": "_borrower",
          "type": "address"
        },
        {
          "internalType": "uint256",
          "name": "_limit",
          "type": "uint256"
        },
        {
          "internalType": "uint256",
          "name": "_interestApr",
          "type": "uint256"
        },
        {
          "internalType": "uint256",
          "name": "_paymentPeriodInDays",
          "type": "uint256"
        },
        {
          "internalType": "uint256",
          "name": "_termInDays",
          "type": "uint256"
        },
        {
          "internalType": "uint256",
          "name": "_lateFeeApr",
          "type": "uint256"
        }
      ],
      "name": "migrateCreditLine",
      "outputs": [],
      "stateMutability": "nonpayable",
      "type": "function"
    },
    {
      "inputs": [],
      "name": "migrated",
      "outputs": [
        {
          "internalType": "bool",
          "name": "",
          "type": "bool"
        }
      ],
      "stateMutability": "view",
      "type": "function"
    },
    {
      "inputs": [],
      "name": "pause",
      "outputs": [],
      "stateMutability": "nonpayable",
      "type": "function"
    },
    {
      "inputs": [],
      "name": "pauseDrawdowns",
      "outputs": [],
      "stateMutability": "nonpayable",
      "type": "function"
    },
    {
      "inputs": [],
      "name": "paused",
      "outputs": [
        {
          "internalType": "bool",
          "name": "",
          "type": "bool"
        }
      ],
      "stateMutability": "view",
      "type": "function"
    },
    {
      "inputs": [
        {
          "internalType": "uint256",
          "name": "amount",
          "type": "uint256"
        }
      ],
      "name": "pay",
      "outputs": [],
      "stateMutability": "nonpayable",
      "type": "function"
    },
    {
      "inputs": [],
      "name": "paymentPeriodInDays",
      "outputs": [
        {
          "internalType": "uint256",
          "name": "",
          "type": "uint256"
        }
      ],
      "stateMutability": "view",
      "type": "function"
    },
    {
      "inputs": [
        {
          "internalType": "bytes32",
          "name": "role",
          "type": "bytes32"
        },
        {
          "internalType": "address",
          "name": "account",
          "type": "address"
        }
      ],
      "name": "renounceRole",
      "outputs": [],
      "stateMutability": "nonpayable",
      "type": "function"
    },
    {
      "inputs": [
        {
          "internalType": "bytes32",
          "name": "role",
          "type": "bytes32"
        },
        {
          "internalType": "address",
          "name": "account",
          "type": "address"
        }
      ],
      "name": "revokeRole",
      "outputs": [],
      "stateMutability": "nonpayable",
      "type": "function"
    },
    {
      "inputs": [
        {
          "internalType": "uint256",
          "name": "sharePrice",
          "type": "uint256"
        },
        {
          "internalType": "uint256",
          "name": "totalShares",
          "type": "uint256"
        }
      ],
      "name": "sharePriceToUsdc",
      "outputs": [
        {
          "internalType": "uint256",
          "name": "",
          "type": "uint256"
        }
      ],
      "stateMutability": "pure",
      "type": "function"
    },
    {
      "inputs": [],
      "name": "termInDays",
      "outputs": [
        {
          "internalType": "uint256",
          "name": "",
          "type": "uint256"
        }
      ],
      "stateMutability": "view",
      "type": "function"
    },
    {
      "inputs": [],
      "name": "unpause",
      "outputs": [],
      "stateMutability": "nonpayable",
      "type": "function"
    },
    {
      "inputs": [],
      "name": "unpauseDrawdowns",
      "outputs": [],
      "stateMutability": "nonpayable",
      "type": "function"
    },
    {
      "inputs": [],
      "name": "updateGoldfinchConfig",
      "outputs": [],
      "stateMutability": "nonpayable",
      "type": "function"
    },
    {
      "inputs": [
        {
          "internalType": "uint256",
          "name": "amount",
          "type": "uint256"
        },
        {
          "internalType": "uint256",
          "name": "totalShares",
          "type": "uint256"
        }
      ],
      "name": "usdcToSharePrice",
      "outputs": [
        {
          "internalType": "uint256",
          "name": "",
          "type": "uint256"
        }
      ],
      "stateMutability": "pure",
      "type": "function"
    },
    {
      "inputs": [
        {
          "internalType": "uint256",
          "name": "tokenId",
          "type": "uint256"
        },
        {
          "internalType": "uint256",
          "name": "amount",
          "type": "uint256"
        }
      ],
      "name": "withdraw",
      "outputs": [
        {
          "internalType": "uint256",
          "name": "interestWithdrawn",
          "type": "uint256"
        },
        {
          "internalType": "uint256",
          "name": "principalWithdrawn",
          "type": "uint256"
        }
      ],
      "stateMutability": "nonpayable",
      "type": "function"
    },
    {
      "inputs": [
        {
          "internalType": "uint256",
          "name": "tokenId",
          "type": "uint256"
        }
      ],
      "name": "withdrawMax",
      "outputs": [
        {
          "internalType": "uint256",
          "name": "interestWithdrawn",
          "type": "uint256"
        },
        {
          "internalType": "uint256",
          "name": "principalWithdrawn",
          "type": "uint256"
        }
      ],
      "stateMutability": "nonpayable",
      "type": "function"
    }
  ],
  "transactionHash": "0x1f3df2ec6881fd02f906a1dabb2c635a822e44638f5b2d8d5080c609e889de9b",
  "args": [],
  "solcInputHash": "6810fd0fbb39f4621f6dd945b08843ee",
  "bytecode": "0x608060405234801561001057600080fd5b506159d980620000216000396000f3fe608060405234801561001057600080fd5b50600436106103275760003560e01c80638ba796af116101b8578063bf6c87c711610104578063d547741f116100a2578063e58378bb1161007c578063e58378bb146105f3578063e63ab1e9146105fb578063f0b25bde14610603578063f36213671461060b57610327565b8063d547741f146105ad578063d972e8ad146105c0578063e2bbb158146105e057610327565b8063c77d5698116100de578063c77d569814610577578063ca15c8731461057f578063cde8884514610592578063cf09e0d0146105a557610327565b8063bf6c87c714610554578063bfaa8cca1461055c578063c290d6911461056457610327565b8063a217fddf11610171578063a8f9c4fe1161014b578063a8f9c4fe14610529578063aa2a7c4c14610531578063b396999214610544578063b6db75a01461054c57610327565b8063a217fddf14610511578063a4d66daf14610519578063a6a25e881461052157610327565b80638ba796af146104aa5780639010d07c146104bd57806391d14854146104d057806399dd8df3146104e3578063a079a4dd146104eb578063a18d4176146104fe57610327565b806347195e131161027757806356ce15601161023057806374f0314f1161020a57806374f0314f1461048a57806379502c55146104925780637df1f1b91461049a5780638456cb59146104a257610327565b806356ce1560146104675780635c975abb1461047a57806368dcfdc01461048257610327565b806347195e131461042157806348e6f296146104295780634d02fe6f146104315780634f92a72814610444578063515bc3231461044c578063526d81f61461045f57610327565b80632c678c64116102e457806336568abe116102be57806336568abe146103dd5780633f4ba83a146103f05780634026478e146103f8578063441a3e701461040057610327565b80632c678c64146103ba5780632f2ff15d146103c25780633403c2fc146103d557610327565b80630174b4491461032c5780630881806c14610355578063097616a31461035f57806317f76941146103725780631fe032be14610387578063248a9ca3146103a7575b600080fd5b61033f61033a366004614db8565b610613565b60405161034c9190615030565b60405180910390f35b61035d61063a565b005b61035d61036d366004614c64565b6106a4565b61037a6107d4565b60405161034c9190615025565b61039a610395366004614dd9565b6107de565b60405161034c9190614f4c565b61033f6103b5366004614d71565b610d46565b61037a610d5b565b61035d6103d0366004614d89565b610d65565b61035d610da9565b61035d6103eb366004614d89565b610f80565b61035d610fc2565b61035d611000565b61041361040e366004614db8565b61105f565b60405161034c9291906158ef565b61039a611239565b61033f611249565b61041361043f366004614d71565b6112cc565b61035d6113b2565b61033f61045a366004614ee6565b611462565b61035d6114f9565b61035d610475366004614c64565b611584565b61037a611833565b61033f61183c565b61033f611848565b61039a61184f565b61039a61185f565b61035d6118dd565b61035d6104b8366004614c9c565b61191b565b61039a6104cb366004614db8565b611c07565b61037a6104de366004614d89565b611c1f565b61033f611c37565b61035d6104f9366004614d71565b611c7d565b61035d61050c366004614d06565b611f6d565b61033f612846565b61033f61284b565b61035d612891565b61035d6128bc565b61041361053f366004614d71565b61291b565b61033f612b16565b61037a612b5c565b61035d612b78565b61033f612bd4565b61035d610572366004614d71565b612bd9565b61033f612c2d565b61033f61058d366004614d71565b612c34565b61033f6105a0366004614db8565b612c4b565b61033f612c77565b61035d6105bb366004614d89565b612c7e565b6105d36105ce366004614d71565b612cb8565b60405161034c91906158c4565b61033f6105ee366004614db8565b612cfe565b61033f612ebe565b61033f612ed0565b61033f612ee2565b61033f612f28565b6000610631670de0b6b3a764000061062b8585612f3a565b90612f74565b90505b92915050565b61065260008051602061598483398151915233611c1f565b6106775760405162461bcd60e51b815260040161066e906154bc565b60405180910390fd5b60975460ff161561069a5760405162461bcd60e51b815260040161066e9061545d565b6106a2612fb6565b565b600054610100900460ff16806106bd57506106bd61302a565b806106cb575060005460ff16155b6106e75760405162461bcd60e51b815260040161066e906155b5565b600054610100900460ff16158015610712576000805460ff1961ff0019909116610100171660011790555b6001600160a01b0382166107385760405162461bcd60e51b815260040161066e90615508565b610740613030565b6107486130b1565b61075061313d565b61076860008051602061594483398151915283610d9f565b61078060008051602061596483398151915283610d9f565b6107a66000805160206159648339815191526000805160206159448339815191526131cc565b6107be600080516020615944833981519152806131cc565b80156107d0576000805461ff00191690555b5050565b6101c75460ff1681565b6101c5546000906107f7906001600160a01b03166131e1565b6001600160a01b0316336001600160a01b0316146108275760405162461bcd60e51b815260040161066e906152e6565b6101d05460ff161561084b5760405162461bcd60e51b815260040161066e9061538b565b60006101c360009054906101000a90046001600160a01b03169050806001600160a01b031663fb1669ca8a6001600160a01b031663b69ef8a86040518163ffffffff1660e01b815260040160206040518083038186803b1580156108ae57600080fd5b505afa1580156108c2573d6000803e3d6000fd5b505050506040513d601f19601f820116820180604052508101906108e69190614ea1565b6040518263ffffffff1660e01b81526004016109029190615030565b600060405180830381600087803b15801561091c57600080fd5b505af1158015610930573d6000803e3d6000fd5b50505050806001600160a01b03166396c8df378a6001600160a01b03166321856b366040518163ffffffff1660e01b815260040160206040518083038186803b15801561097c57600080fd5b505afa158015610990573d6000803e3d6000fd5b505050506040513d601f19601f820116820180604052508101906109b49190614ea1565b6040518263ffffffff1660e01b81526004016109d09190615030565b600060405180830381600087803b1580156109ea57600080fd5b505af11580156109fe573d6000803e3d6000fd5b50505050806001600160a01b031663b3b8a9c78a6001600160a01b031663193501146040518163ffffffff1660e01b815260040160206040518083038186803b158015610a4a57600080fd5b505afa158015610a5e573d6000803e3d6000fd5b505050506040513d601f19601f82011682018060405250810190610a829190614ea1565b6040518263ffffffff1660e01b8152600401610a9e9190615030565b600060405180830381600087803b158015610ab857600080fd5b505af1158015610acc573d6000803e3d6000fd5b5050604051637ae14b0960e01b81526001600160a01b0384169250637ae14b099150610afc908b90600401615030565b600060405180830381600087803b158015610b1657600080fd5b505af1158015610b2a573d6000803e3d6000fd5b5050604051631352074160e11b81526001600160a01b03841692506326a40e829150610b5a908a90600401615030565b600060405180830381600087803b158015610b7457600080fd5b505af1158015610b88573d6000803e3d6000fd5b505060405163a6b1ae0d60e01b81526001600160a01b038416925063a6b1ae0d9150610bb8908990600401615030565b600060405180830381600087803b158015610bd257600080fd5b505af1158015610be6573d6000803e3d6000fd5b5050604051630db6452560e21b81526001600160a01b03841692506336d914949150610c16908890600401615030565b600060405180830381600087803b158015610c3057600080fd5b505af1158015610c44573d6000803e3d6000fd5b50505050806001600160a01b031663033669cf610cd28b6001600160a01b03166321856b366040518163ffffffff1660e01b815260040160206040518083038186803b158015610c9357600080fd5b505afa158015610ca7573d6000803e3d6000fd5b505050506040513d601f19601f82011682018060405250810190610ccb9190614ea1565b8790613261565b6040518263ffffffff1660e01b8152600401610cee9190615030565b600060405180830381600087803b158015610d0857600080fd5b505af1158015610d1c573d6000803e3d6000fd5b50505050610d2b898585613286565b6101d0805460ff191660011790559050979650505050505050565b60009081526065602052604090206002015490565b6101d05460ff1681565b600082815260656020526040902060020154610d83906104de61362a565b610d9f5760405162461bcd60e51b815260040161066e906150ce565b6107d0828261362e565b610db1612b5c565b610dcd5760405162461bcd60e51b815260040161066e906157cd565b610dd5611833565b610de157610de16118dd565b6101c554600090610dfa906001600160a01b0316613697565b6101c554909150600090610e16906001600160a01b03166136a2565b90506000826001600160a01b03166370a08231306040518263ffffffff1660e01b8152600401610e469190614f4c565b60206040518083038186803b158015610e5e57600080fd5b505afa158015610e72573d6000803e3d6000fd5b505050506040513d601f19601f82011682018060405250810190610e969190614ea1565b90508015610ea957610ea98383836136ba565b6101c3546040516370a0823160e01b81526000916001600160a01b03808716926370a0823192610edd921690600401614f4c565b60206040518083038186803b158015610ef557600080fd5b505afa158015610f09573d6000803e3d6000fd5b505050506040513d601f19601f82011682018060405250810190610f2d9190614ea1565b90508015610f4f576101c354610f4f9085906001600160a01b031685846136fb565b60405130907f1fc1e771236d2e93bb9541cdcb4654ba0fd3fb615b48d829b7b365f03998512690600090a250505050565b610f8861362a565b6001600160a01b0316816001600160a01b031614610fb85760405162461bcd60e51b815260040161066e9061584f565b6107d0828261373e565b610fdc6000805160206159648339815191526104de61362a565b610ff85760405162461bcd60e51b815260040161066e906151b2565b6106a26137a7565b61101860008051602061598483398151915233611c1f565b6110345760405162461bcd60e51b815260040161066e906154bc565b60975460ff16156110575760405162461bcd60e51b815260040161066e9061545d565b6106a2613813565b6101c5546000908190849061107c906001600160a01b0316613968565b6001600160a01b031663430c208133836040518363ffffffff1660e01b81526004016110a9929190614fa1565b60206040518083038186803b1580156110c157600080fd5b505afa1580156110d5573d6000803e3d6000fd5b505050506040513d601f19601f820116820180604052508101906110f99190614d51565b6111155760405162461bcd60e51b815260040161066e906156ac565b60c95460ff166111375760405162461bcd60e51b815260040161066e90615796565b60c9805460ff1916905560975460ff16156111645760405162461bcd60e51b815260040161066e9061545d565b61116c614bd7565b6101c554611182906001600160a01b0316613968565b6001600160a01b0316638c7a63ae876040518263ffffffff1660e01b81526004016111ad9190615030565b60a06040518083038186803b1580156111c557600080fd5b505afa1580156111d9573d6000803e3d6000fd5b505050506040513d601f19601f820116820180604052508101906111fd9190614e2d565b9050600061120e8260200151613973565b905061121c818389896139b9565b9450945050505060c9805460ff1916600117905590939092509050565b6101c3546001600160a01b031681565b6101c35460408051632473794b60e11b815290516000926001600160a01b0316916348e6f296916004808301926020929190829003018186803b15801561128f57600080fd5b505afa1580156112a3573d6000803e3d6000fd5b505050506040513d601f19601f820116820180604052508101906112c79190614ea1565b905090565b6000806112d7614bd7565b6101c5546112ed906001600160a01b0316613968565b6001600160a01b0316638c7a63ae856040518263ffffffff1660e01b81526004016113189190615030565b60a06040518083038186803b15801561133057600080fd5b505afa158015611344573d6000803e3d6000fd5b505050506040513d601f19601f820116820180604052508101906113689190614e2d565b905060006113798260200151613973565b90508060030154611388613b5c565b11156113a3576113988183613b60565b9350935050506113ad565b6000809350935050505b915091565b6113ba612b5c565b6113d65760405162461bcd60e51b815260040161066e906157cd565b6101c5546113ec906001600160a01b0316613bca565b6101c580546001600160a01b0319166001600160a01b039283161790556101c354604080516309f254e560e31b815290519190921691634f92a72891600480830192600092919082900301818387803b15801561144857600080fd5b505af115801561145c573d6000803e3d6000fd5b50505050565b6101c55460009061147b906001600160a01b0316613be2565b6001600160a01b031663d505accf333089898989896040518863ffffffff1660e01b81526004016114b29796959493929190614f60565b600060405180830381600087803b1580156114cc57600080fd5b505af11580156114e0573d6000803e3d6000fd5b505050506114ee8787612cfe565b979650505050505050565b600054610100900460ff1680611512575061151261302a565b80611520575060005460ff16155b61153c5760405162461bcd60e51b815260040161066e906155b5565b600054610100900460ff16158015611567576000805460ff1961ff0019909116610100171660011790555b61156f6130b1565b8015611581576000805461ff00191690555b50565b61158c612b5c565b6115a85760405162461bcd60e51b815260040161066e906157cd565b6001600160a01b0381166115ce5760405162461bcd60e51b815260040161066e906151fe565b6101c3546101c5546001600160a01b03918216916000916115ef9116613697565b6001600160a01b03166370a08231836040518263ffffffff1660e01b815260040161161a9190614f4c565b60206040518083038186803b15801561163257600080fd5b505afa158015611646573d6000803e3d6000fd5b505050506040513d601f19601f8201168201806040525081019061166a9190614ea1565b90508015611694576101c5546116949061168c906001600160a01b0316613697565b8385846136fb565b6101c354604051637d8b34e560e11b81526001600160a01b039091169063fb1669ca906116c690600090600401615030565b600060405180830381600087803b1580156116e057600080fd5b505af11580156116f4573d6000803e3d6000fd5b50506101c3546040516327ea6f2b60e01b81526001600160a01b0390911692506327ea6f2b915061172a90600090600401615030565b600060405180830381600087803b15801561174457600080fd5b505af1158015611758573d6000803e3d6000fd5b50506101c380546001600160a01b0319166001600160a01b0387811691909117918290556040805163a4d66daf60e01b8152905192909116935063a4d66daf9250600480820192602092909190829003018186803b1580156117b957600080fd5b505afa1580156117cd573d6000803e3d6000fd5b505050506040513d601f19601f820116820180604052508101906117f19190614ea1565b506101c3546040516001600160a01b03918216918416907f987cdba0cba67c68d2c8aba6a4ba6545565eccfb3e2e5ff39579ffd94acaf9bb90600090a3505050565b60975460ff1690565b670de0b6b3a764000081565b6201518081565b6101c5546001600160a01b031681565b6101c35460408051637df1f1b960e01b815290516000926001600160a01b031691637df1f1b9916004808301926020929190829003018186803b1580156118a557600080fd5b505afa1580156118b9573d6000803e3d6000fd5b505050506040513d601f19601f820116820180604052508101906112c79190614c80565b6118f76000805160206159648339815191526104de61362a565b6119135760405162461bcd60e51b815260040161066e906151b2565b6106a2613bfa565b600054610100900460ff1680611934575061193461302a565b80611942575060005460ff16155b61195e5760405162461bcd60e51b815260040161066e906155b5565b600054610100900460ff16158015611989576000805460ff1961ff0019909116610100171660011790555b6001600160a01b038916158015906119a957506001600160a01b03881615155b6119c55760405162461bcd60e51b815260040161066e90615299565b6101c580546001600160a01b0319166001600160a01b038b811691909117918290556000916119f49116613c53565b90506001600160a01b038116611a1c5760405162461bcd60e51b815260040161066e90615354565b611a25816106a4565b604051806080016040528060008152602001611a42600180612c4b565b815260006020808301829052604092830182905283516101c855838101516101c955838301516101ca556060909301516101cb558151608081019092528152908101611a8f600180612c4b565b81526000602080830182905260409283019190915282516101cc558201516101cd558101516101ce55606001516101cf55611ace898888888888613c6b565b426101c4556101c6889055611af16000805160206159848339815191528a610d9f565b611b0960008051602061598483398151915282610d9f565b611b2f6000805160206159848339815191526000805160206159448339815191526131cc565b6101c554600090611b48906001600160a01b0316613697565b6001600160a01b031663095ea7b3306000196040518363ffffffff1660e01b8152600401611b77929190614fa1565b602060405180830381600087803b158015611b9157600080fd5b505af1158015611ba5573d6000803e3d6000fd5b505050506040513d601f19601f82011682018060405250810190611bc99190614d51565b905080611be85760405162461bcd60e51b815260040161066e9061514b565b50508015611bfc576000805461ff00191690555b505050505050505050565b60008281526065602052604081206106319083613d8d565b60008281526065602052604081206106319083613d99565b6101c354604080516399dd8df360e01b815290516000926001600160a01b0316916399dd8df3916004808301926020929190829003018186803b15801561128f57600080fd5b611c9560008051602061598483398151915233611c1f565b611cb15760405162461bcd60e51b815260040161066e906154bc565b60975460ff1615611cd45760405162461bcd60e51b815260040161066e9061545d565b6101c75460ff1615611cf85760405162461bcd60e51b815260040161066e90615603565b611d00613dae565b611d0c57611d0c613813565b6101c35460405163a079a4dd60e01b81526001600160a01b039091169063a079a4dd90611d3d908490600401615030565b600060405180830381600087803b158015611d5757600080fd5b505af1158015611d6b573d6000803e3d6000fd5b505050506000611e096101c360009054906101000a90046001600160a01b03166001600160a01b031663b69ef8a86040518163ffffffff1660e01b815260040160206040518083038186803b158015611dc357600080fd5b505afa158015611dd7573d6000803e3d6000fd5b505050506040513d601f19601f82011682018060405250810190611dfb9190614ea1565b611e03613db7565b90613dcc565b604080516080810182526101cc5481526101cd5460208201526101ce54918101919091526101cf546060820152909150611e44908290613e0e565b6101cd55604080516080810182526101c85481526101c95460208201526101ca54918101919091526101cb546060820152611e80908290613e0e565b6101c9556101c35460408051637df1f1b960e01b815290516000926001600160a01b031691637df1f1b9916004808301926020929190829003018186803b158015611eca57600080fd5b505afa158015611ede573d6000803e3d6000fd5b505050506040513d601f19601f82011682018060405250810190611f029190614c80565b6101c554909150611f2790611f1f906001600160a01b0316613697565b3083866136fb565b806001600160a01b03167f7411b87a3c039bdfd8f3510b21e8bd0736265f53513735e1f4aa7b4f306b728d84604051611f609190615030565b60405180910390a2505050565b611f75612b5c565b611f915760405162461bcd60e51b815260040161066e906157cd565b6001600160a01b038616611fb75760405162461bcd60e51b815260040161066e9061531d565b82611fd45760405162461bcd60e51b815260040161066e90615487565b81611ff15760405162461bcd60e51b815260040161066e90615701565b6101c3546001600160a01b03168061200d888888888888613c6b565b6101c3546040516001600160a01b0391821691829182918616907f987cdba0cba67c68d2c8aba6a4ba6545565eccfb3e2e5ff39579ffd94acaf9bb90600090a3816001600160a01b031663fb1669ca846001600160a01b031663b69ef8a86040518163ffffffff1660e01b815260040160206040518083038186803b15801561209557600080fd5b505afa1580156120a9573d6000803e3d6000fd5b505050506040513d601f19601f820116820180604052508101906120cd9190614ea1565b6040518263ffffffff1660e01b81526004016120e99190615030565b600060405180830381600087803b15801561210357600080fd5b505af1158015612117573d6000803e3d6000fd5b50505050816001600160a01b03166396c8df37846001600160a01b03166321856b366040518163ffffffff1660e01b815260040160206040518083038186803b15801561216357600080fd5b505afa158015612177573d6000803e3d6000fd5b505050506040513d601f19601f8201168201806040525081019061219b9190614ea1565b6040518263ffffffff1660e01b81526004016121b79190615030565b600060405180830381600087803b1580156121d157600080fd5b505af11580156121e5573d6000803e3d6000fd5b50505050816001600160a01b031663b3b8a9c7846001600160a01b031663193501146040518163ffffffff1660e01b815260040160206040518083038186803b15801561223157600080fd5b505afa158015612245573d6000803e3d6000fd5b505050506040513d601f19601f820116820180604052508101906122699190614ea1565b6040518263ffffffff1660e01b81526004016122859190615030565b600060405180830381600087803b15801561229f57600080fd5b505af11580156122b3573d6000803e3d6000fd5b50505050816001600160a01b0316637ae14b09846001600160a01b03166364fb2d956040518163ffffffff1660e01b815260040160206040518083038186803b1580156122ff57600080fd5b505afa158015612313573d6000803e3d6000fd5b505050506040513d601f19601f820116820180604052508101906123379190614ea1565b6040518263ffffffff1660e01b81526004016123539190615030565b600060405180830381600087803b15801561236d57600080fd5b505af1158015612381573d6000803e3d6000fd5b50505050816001600160a01b03166326a40e82846001600160a01b031663d28459776040518163ffffffff1660e01b815260040160206040518083038186803b1580156123cd57600080fd5b505afa1580156123e1573d6000803e3d6000fd5b505050506040513d601f19601f820116820180604052508101906124059190614ea1565b6040518263ffffffff1660e01b81526004016124219190615030565b600060405180830381600087803b15801561243b57600080fd5b505af115801561244f573d6000803e3d6000fd5b50505050816001600160a01b031663a6b1ae0d846001600160a01b031663bbafcb406040518163ffffffff1660e01b815260040160206040518083038186803b15801561249b57600080fd5b505afa1580156124af573d6000803e3d6000fd5b505050506040513d601f19601f820116820180604052508101906124d39190614ea1565b6040518263ffffffff1660e01b81526004016124ef9190615030565b600060405180830381600087803b15801561250957600080fd5b505af115801561251d573d6000803e3d6000fd5b50505050816001600160a01b03166336d91494846001600160a01b031663ce78290d6040518163ffffffff1660e01b815260040160206040518083038186803b15801561256957600080fd5b505afa15801561257d573d6000803e3d6000fd5b505050506040513d601f19601f820116820180604052508101906125a19190614ea1565b6040518263ffffffff1660e01b81526004016125bd9190615030565b600060405180830381600087803b1580156125d757600080fd5b505af11580156125eb573d6000803e3d6000fd5b50505050816001600160a01b031663033669cf846001600160a01b0316631cd724ac6040518163ffffffff1660e01b815260040160206040518083038186803b15801561263757600080fd5b505afa15801561264b573d6000803e3d6000fd5b505050506040513d601f19601f8201168201806040525081019061266f9190614ea1565b6040518263ffffffff1660e01b815260040161268b9190615030565b600060405180830381600087803b1580156126a557600080fd5b505af11580156126b9573d6000803e3d6000fd5b50506101c554600092506126d691506001600160a01b0316613697565b6001600160a01b03166370a08231866040518263ffffffff1660e01b81526004016127019190614f4c565b60206040518083038186803b15801561271957600080fd5b505afa15801561272d573d6000803e3d6000fd5b505050506040513d601f19601f820116820180604052508101906127519190614ea1565b9050801561277b576101c55461277b90612773906001600160a01b0316613697565b8684846136fb565b604051637d8b34e560e11b81526001600160a01b0385169063fb1669ca906127a890600090600401615030565b600060405180830381600087803b1580156127c257600080fd5b505af11580156127d6573d6000803e3d6000fd5b50506040516327ea6f2b60e01b81526001600160a01b03871692506327ea6f2b915061280790600090600401615030565b600060405180830381600087803b15801561282157600080fd5b505af1158015612835573d6000803e3d6000fd5b505050505050505050505050505050565b600081565b6101c3546040805163a4d66daf60e01b815290516000926001600160a01b03169163a4d66daf916004808301926020929190829003018186803b15801561128f57600080fd5b60975460ff16156128b45760405162461bcd60e51b815260040161066e9061545d565b6106a2613e33565b6128c4612b5c565b6128e05760405162461bcd60e51b815260040161066e906157cd565b6101c7805460ff1916600117905560405130907f90d9b09c68a7e1312ce22801552b47265d77db9496383d51374b4058545447d790600090a2565b6101c55460009081908390612938906001600160a01b0316613968565b6001600160a01b031663430c208133836040518363ffffffff1660e01b8152600401612965929190614fa1565b60206040518083038186803b15801561297d57600080fd5b505afa158015612991573d6000803e3d6000fd5b505050506040513d601f19601f820116820180604052508101906129b59190614d51565b6129d15760405162461bcd60e51b815260040161066e906156ac565b60c95460ff166129f35760405162461bcd60e51b815260040161066e90615796565b60c9805460ff1916905560975460ff1615612a205760405162461bcd60e51b815260040161066e9061545d565b612a28614bd7565b6101c554612a3e906001600160a01b0316613968565b6001600160a01b0316638c7a63ae866040518263ffffffff1660e01b8152600401612a699190615030565b60a06040518083038186803b158015612a8157600080fd5b505afa158015612a95573d6000803e3d6000fd5b505050506040513d601f19601f82011682018060405250810190612ab99190614e2d565b90506000612aca8260200151613973565b9050600080612ad98385613b60565b90925090506000612aea8383613261565b9050612af884868b846139b9565b9750975050505050505060c9805460ff191660011790559092909150565b6101c354604080516359cb4cc960e11b815290516000926001600160a01b03169163b3969992916004808301926020929190829003018186803b15801561128f57600080fd5b60006112c76000805160206159448339815191526104de61362a565b612b80612b5c565b612b9c5760405162461bcd60e51b815260040161066e906157cd565b6101c7805460ff1916905560405130907f7184039938737267597232635b117c924371ac877d4329f2dfa5ca674c5cc4a590600090a2565b606481565b60975460ff1615612bfc5760405162461bcd60e51b815260040161066e9061545d565b60008111612c1c5760405162461bcd60e51b815260040161066e90615731565b612c2581613fde565b611581613e33565b6101c65481565b60008181526065602052604081206106349061403f565b60008115612c6e57612c698261062b85670de0b6b3a7640000612f3a565b610631565b50600092915050565b6101c45481565b600082815260656020526040902060020154612c9c906104de61362a565b610fb85760405162461bcd60e51b815260040161066e906153e2565b612cc0614c0f565b612cc982613973565b604080516080810182528254815260018301546020820152600283015491810191909152600390910154606082015292915050565b60c95460009060ff16612d235760405162461bcd60e51b815260040161066e90615796565b60c9805460ff1916905560975460ff1615612d505760405162461bcd60e51b815260040161066e9061545d565b6000612d5b84613973565b90508060030154600014612d815760405162461bcd60e51b815260040161066e9061557e565b8054612d8d9084613261565b8155612d97614c37565b5060408051808201909152838152602081018590526101c554612dc2906001600160a01b0316613968565b6001600160a01b0316635be57b6a82336040518363ffffffff1660e01b8152600401612def92919061589e565b602060405180830381600087803b158015612e0957600080fd5b505af1158015612e1d573d6000803e3d6000fd5b505050506040513d601f19601f82011682018060405250810190612e419190614ea1565b6101c554909350612e6690612e5e906001600160a01b0316613697565b3330876136fb565b8285336001600160a01b03167fcb3ef4109dcd006671348924f00aac8398190a5ff283d6e470d74581513e103687604051612ea19190615030565b60405180910390a4505060c9805460ff1916600117905592915050565b60008051602061594483398151915281565b60008051602061596483398151915281565b6101c354604080516378592def60e11b815290516000926001600160a01b03169163f0b25bde916004808301926020929190829003018186803b15801561128f57600080fd5b60008051602061598483398151915281565b600082612f4957506000610634565b82820282848281612f5657fe5b04146106315760405162461bcd60e51b815260040161066e9061553d565b600061063183836040518060400160405280601a81526020017f536166654d6174683a206469766973696f6e206279207a65726f00000000000081525061404a565b612fbe613dae565b15612fdb5760405162461bcd60e51b815260040161066e906153b5565b6101cf5415612ffc5760405162461bcd60e51b815260040161066e90615818565b6101c55461302490613016906001600160a01b0316614081565b61301e613b5c565b90613261565b6101cf55565b303b1590565b600054610100900460ff1680613049575061304961302a565b80613057575060005460ff16155b6130735760405162461bcd60e51b815260040161066e906155b5565b600054610100900460ff1615801561156f576000805460ff1961ff0019909116610100171660011790558015611581576000805461ff001916905550565b600054610100900460ff16806130ca57506130ca61302a565b806130d8575060005460ff16155b6130f45760405162461bcd60e51b815260040161066e906155b5565b600054610100900460ff1615801561311f576000805460ff1961ff0019909116610100171660011790555b6097805460ff191690558015611581576000805461ff001916905550565b600054610100900460ff1680613156575061315661302a565b80613164575060005460ff16155b6131805760405162461bcd60e51b815260040161066e906155b5565b600054610100900460ff161580156131ab576000805460ff1961ff0019909116610100171660011790555b60c9805460ff191660011790558015611581576000805461ff001916905550565b60009182526065602052604090912060020155565b60006001600160a01b03821663b93f9b0a60035b6040518263ffffffff1660e01b81526004016132119190615030565b60206040518083038186803b15801561322957600080fd5b505afa15801561323d573d6000803e3d6000fd5b505050506040513d601f19601f820116820180604052508101906106349190614c80565b6000828201838110156106315760405162461bcd60e51b815260040161066e90615235565b61328e613dae565b156132ab5760405162461bcd60e51b815260040161066e90615768565b6000600290506000846001600160a01b031663b69ef8a86040518163ffffffff1660e01b815260040160206040518083038186803b1580156132ec57600080fd5b505afa158015613300573d6000803e3d6000fd5b505050506040513d601f19601f820116820180604052508101906133249190614ea1565b9050600061333183613973565b905080600301546000146133575760405162461bcd60e51b815260040161066e9061557e565b61336c6133648386613261565b825490613261565b8155613376614c37565b506040805180820190915281548152602081018490526101c5546000906133a5906001600160a01b0316613968565b6101c5549091506000906001600160a01b0380841691635be57b6a9186916133cd9116614101565b6040518363ffffffff1660e01b81526004016133ea92919061589e565b602060405180830381600087803b15801561340457600080fd5b505af1158015613418573d6000803e3d6000fd5b505050506040513d601f19601f8201168201806040525081019061343c9190614ea1565b60405163b819220560e01b81529091506001600160a01b0383169063b81922059061346f9084908b908d906004016158fd565b600060405180830381600087803b15801561348957600080fd5b505af115801561349d573d6000803e3d6000fd5b505050506134a9612fb6565b6134b1613813565b60006135c8613541896101c360009054906101000a90046001600160a01b03166001600160a01b031663b69ef8a86040518163ffffffff1660e01b815260040160206040518083038186803b15801561350957600080fd5b505afa15801561351d573d6000803e3d6000fd5b505050506040513d601f19601f8201168201806040525081019061301e9190614ea1565b6101c360009054906101000a90046001600160a01b03166001600160a01b031663a4d66daf6040518163ffffffff1660e01b815260040160206040518083038186803b15801561359057600080fd5b505afa1580156135a4573d6000803e3d6000fd5b505050506040513d601f19601f82011682018060405250810190611e039190614ea1565b604080516080810182526101cc5481526101cd5460208201526101ce54918101919091526101cf546060820152909150613603908290613e0e565b6101cd5560006101c95561361c898981816101cc614119565b505050505050505050505050565b3390565b6000828152606560205260409020613646908261416e565b156107d05761365361362a565b6001600160a01b0316816001600160a01b0316837f2f8788117e7eff1d82e926ec794901d17c78024a50270940304540a733656f0d60405160405180910390a45050565b600061063482613be2565b60006001600160a01b03821663b93f9b0a60066131f5565b6136f68383836040518060400160405280601881526020017704661696c656420746f207472616e736665722045524332360441b815250614183565b505050565b60408051808201909152601881527704661696c656420746f207472616e736665722045524332360441b60208201526137378585858585614255565b5050505050565b6000828152606560205260409020613756908261432a565b156107d05761376361362a565b6001600160a01b0316816001600160a01b0316837ff6391f5c32d9c69d2a47ea670b442974b53935d1edc7fd64eb21e047a839171b60405160405180910390a45050565b60975460ff166137c95760405162461bcd60e51b815260040161066e9061511d565b6097805460ff191690557f5db9ee0a495bf2e6ff9c91a7834c1ba4fdd244a5e8aa4e537bd38aeae4b073aa6137fc61362a565b6040516138099190614f4c565b60405180910390a1565b6101cf546138335760405162461bcd60e51b815260040161066e90615669565b6101c3546001600160a01b03166327ea6f2b6138dc613850613db7565b6101c360009054906101000a90046001600160a01b03166001600160a01b031663a4d66daf6040518163ffffffff1660e01b815260040160206040518083038186803b15801561389f57600080fd5b505afa1580156138b3573d6000803e3d6000fd5b505050506040513d601f19601f820116820180604052508101906138d79190614ea1565b61433f565b6040518263ffffffff1660e01b81526004016138f89190615030565b600060405180830381600087803b15801561391257600080fd5b505af1158015613926573d6000803e3d6000fd5b50506101c5546000925061394391506001600160a01b0316614081565b90506139518161301e613b5c565b6101cb556139618161301e613b5c565b6101cf5550565b600061063482614355565b600060018214806139845750600282145b6139a05760405162461bcd60e51b815260040161066e9061526c565b600182146139b0576101cc610634565b506101c8919050565b6000806000806139c98888613b60565b909250905060006139da8383613261565b9050808611156139fc5760405162461bcd60e51b815260040161066e9061563a565b8860030154613a09613b5c565b11613a265760405162461bcd60e51b815260040161066e90615432565b6003890154613a3e578854613a3b9087613dcc565b89555b6000613a4a848861433f565b90506000613a5c846138d78a85613dcc565b6101c554909150613a75906001600160a01b0316613968565b6001600160a01b031663b81922058a83856040518463ffffffff1660e01b8152600401613aa4939291906158fd565b600060405180830381600087803b158015613abe57600080fd5b505af1158015613ad2573d6000803e3d6000fd5b50506101c554613b019250613af091506001600160a01b0316613697565b3033613afc8587613261565b6136fb565b888a60200151336001600160a01b03167f92f2787b755dae547f1701582fe74c7abf277ec14db316dd01abc69cacf7a2598585604051613b429291906158ef565b60405180910390a490955093505050505b94509492505050565b4290565b6000806000613b7785600101548560400151610613565b90506000613b8d86600201548660400151610613565b9050613ba6856080015182613dcc90919063ffffffff16565b9350613bbf856060015183613dcc90919063ffffffff16565b925050509250929050565b60006001600160a01b03821663b93f9b0a600b6131f5565b60006001600160a01b03821663b93f9b0a60056131f5565b60975460ff1615613c1d5760405162461bcd60e51b815260040161066e9061545d565b6097805460ff191660011790557f62e78cea01bee320cd4e420270b5ea74000d11b0c9f74754ebdbfc544b05a2586137fc61362a565b60006001600160a01b03821663b93f9b0a60076131f5565b6101c554600090613c84906001600160a01b031661436d565b6001600160a01b03166301b215516040518163ffffffff1660e01b8152600401602060405180830381600087803b158015613cbe57600080fd5b505af1158015613cd2573d6000803e3d6000fd5b505050506040513d601f19601f82011682018060405250810190613cf69190614c80565b6101c380546001600160a01b0319166001600160a01b0383811691909117918290556101c554604051630df8fa4360e41b81529394509181169263df8fa43092613d5292169030908c908c908c908c908c908c90600401614fba565b600060405180830381600087803b158015613d6c57600080fd5b505af1158015613d80573d6000803e3d6000fd5b5050505050505050505050565b60006106318383614378565b6000610631836001600160a01b0384166143bd565b6101cb54151590565b6101c8546101cc546000916112c79190613261565b600061063183836040518060400160405280601e81526020017f536166654d6174683a207375627472616374696f6e206f766572666c6f7700008152506143d5565b600080613e1f848460000151612c4b565b9050613e2b8184614401565b949350505050565b60008060006101c360009054906101000a90046001600160a01b03166001600160a01b031663a6a25e886040518163ffffffff1660e01b8152600401606060405180830381600087803b158015613e8957600080fd5b505af1158015613e9d573d6000803e3d6000fd5b505050506040513d601f19601f82011682018060405250810190613ec19190614eb9565b9250925092506000821180613ed65750600081115b156136f6576101c354600090613eff906001600160a01b031684613efa8588613261565b614428565b9050306001600160a01b03166101c360009054906101000a90046001600160a01b03166001600160a01b0316637df1f1b96040518163ffffffff1660e01b815260040160206040518083038186803b158015613f5a57600080fd5b505afa158015613f6e573d6000803e3d6000fd5b505050506040513d601f19601f82011682018060405250810190613f929190614c80565b6001600160a01b03167fd1055dc2c2a003a83dfacb1c38db776eab5ef89d77a8f05a3512e8cf57f953ce85858886604051613fd09493929190615913565b60405180910390a350505050565b6101c55461158190613ff8906001600160a01b0316613697565b6101c35460408051808201909152601981527811985a5b1959081d1bc818dbdb1b1958dd081c185e5b595b9d603a1b602082015233916001600160a01b0316908590614255565b600061063482614690565b6000818361406b5760405162461bcd60e51b815260040161066e9190615039565b50600083858161407757fe5b0495945050505050565b60006001600160a01b03821663fc56365860075b6040518263ffffffff1660e01b81526004016140b19190615030565b60206040518083038186803b1580156140c957600080fd5b505afa1580156140dd573d6000803e3d6000fd5b505050506040513d601f19601f820116820180604052508101906106349190614ea1565b60006001600160a01b03821663b93f9b0a600e6131f5565b60008060008360000154905060006141378986600201548985614694565b600287018190556001870154919a5091506141559089908885614694565b6001870155975088935087925050509550959350505050565b6000610631836001600160a01b0384166146ed565b6001600160a01b0383166141a95760405162461bcd60e51b815260040161066e9061517b565b60405163a9059cbb60e01b81526000906001600160a01b0386169063a9059cbb906141da9087908790600401614fa1565b602060405180830381600087803b1580156141f457600080fd5b505af1158015614208573d6000803e3d6000fd5b505050506040513d601f19601f8201168201806040525081019061422c9190614d51565b9050818161424d5760405162461bcd60e51b815260040161066e9190615039565b505050505050565b6001600160a01b03831661427b5760405162461bcd60e51b815260040161066e9061517b565b6040516323b872dd60e01b81526000906001600160a01b038716906323b872dd906142ae90889088908890600401615001565b602060405180830381600087803b1580156142c857600080fd5b505af11580156142dc573d6000803e3d6000fd5b505050506040513d601f19601f820116820180604052508101906143009190614d51565b905081816143215760405162461bcd60e51b815260040161066e9190615039565b50505050505050565b6000610631836001600160a01b038416614737565b600081831061434e5781610631565b5090919050565b60006001600160a01b03821663b93f9b0a600c6131f5565b6000610634826147fd565b8154600090821061439b5760405162461bcd60e51b815260040161066e9061508c565b8260000182815481106143aa57fe5b9060005260206000200154905092915050565b60009081526001919091016020526040902054151590565b600081848411156143f95760405162461bcd60e51b815260040161066e9190615039565b505050900390565b6101c8546101cc54600091829161441791613261565b9050613e2b84846000015183614815565b6101c55460009061448890614445906001600160a01b0316613697565b85306144518688613261565b6040518060400160405280601981526020017811985a5b1959081d1bc818dbdb1b1958dd081c185e5b595b9d603a1b815250614255565b60008061449361486e565b6101c55491935091506000906144bd906144b5906001600160a01b03166149e5565b606490612f74565b604080516080810182526101c85481526101c95460208201526101ca54918101919091526101cb546060820152909150869086906000906144ff908790613e0e565b604080516080810182526101c85481526101c95460208201526101ca54918101919091526101cb54606082015290915060009061453d908790613e0e565b9050600061456d8361456661455e896101c65461326190919063ffffffff16565b606490613dcc565b6064614815565b9050600061457d86886064614815565b90506145898a82613261565b99506145958682613dcc565b95506145a6868684866101c86149fd565b6101cc5491975095506145c8906145be908890612c4b565b6101ce5490613261565b604080516080810182526101cc5481526101cd5460208201526101ce54918101919091526101cf546060820152909450614603908990613e0e565b9250614614868686866101cc6149fd565b90965094506146238686613261565b955061463185886064614815565b905061463d8a82613261565b99506146498682613dcc565b95506000945061467261465c8787613261565b60006146688989613261565b60006101cc614119565b90965094506146808a614a80565b5050505050505050509392505050565b5490565b6000808515806146a2575083155b156146b1575084905083613b53565b838610156146bd578593505b60006146c98585612c4b565b90506146d58786613dcc565b6146df8783613261565b925092505094509492505050565b60006146f983836143bd565b61472f57508154600181810184556000848152602080822090930184905584548482528286019093526040902091909155610634565b506000610634565b600081815260018301602052604081205480156147f3578354600019808301919081019060009087908390811061476a57fe5b906000526020600020015490508087600001848154811061478757fe5b6000918252602080832090910192909255828152600189810190925260409020908401905586548790806147b757fe5b60019003818190600052602060002001600090559055866001016000878152602001908152602001600020600090556001945050505050610634565b6000915050610634565b60006001600160a01b03821663b93f9b0a60026131f5565b600061481f614c51565b61482883614b2f565b9050614832614c51565b61483b85614b2f565b9050614863670de0b6b3a764000061485d886148578587614b5d565b90614b95565b90614bb6565b519695505050505050565b6000806101c360009054906101000a90046001600160a01b03166001600160a01b0316631cd724ac6040518163ffffffff1660e01b815260040160206040518083038186803b1580156148c057600080fd5b505afa1580156148d4573d6000803e3d6000fd5b505050506040513d601f19601f820116820180604052508101906148f89190614ea1565b91506101c360009054906101000a90046001600160a01b03166001600160a01b031663193501146040518163ffffffff1660e01b815260040160206040518083038186803b15801561494957600080fd5b505afa15801561495d573d6000803e3d6000fd5b505050506040513d601f19601f820116820180604052508101906149819190614ea1565b90506149df6149d86101c360009054906101000a90046001600160a01b03166001600160a01b031663b69ef8a86040518163ffffffff1660e01b815260040160206040518083038186803b158015611dc357600080fd5b8290613261565b90509091565b60006001600160a01b03821663fc5636586003614095565b80546001820154600091829180861015614a15578095505b600285015480881015614a26578097505b6000614a328983613dcc565b90506000614a408286610613565b90506000614a4e8a86613dcc565b90506000614a5c8288610613565b9050614a6b8e8e85848e614119565b909f909e509c50505050505050505050505050565b306001600160a01b03167ff3583f178a8d4f8888c3683f8e948faf9b6eb701c4f1fab265a6ecad1a1ddebb82604051614ab99190615030565b60405180910390a26101c55461158190614adb906001600160a01b0316613697565b6101c5543090614af3906001600160a01b03166136a2565b846040518060400160405280601981526020017f4661696c656420746f2073656e6420746f207265736572766500000000000000815250614255565b614b37614c51565b604080516020810190915280614b5584670de0b6b3a7640000612f3a565b905292915050565b614b65614c51565b6040805160208101909152825184518291614b8c9161062b90670de0b6b3a7640000612f3a565b90529392505050565b614b9d614c51565b604080516020810190915283518190614b8c9085612f3a565b614bbe614c51565b604080516020810190915283518190614b8c9085612f74565b6040518060a0016040528060006001600160a01b03168152602001600081526020016000815260200160008152602001600081525090565b6040518060800160405280600081526020016000815260200160008152602001600081525090565b604051806040016040528060008152602001600081525090565b6040518060200160405280600081525090565b600060208284031215614c75578081fd5b81356106318161592e565b600060208284031215614c91578081fd5b81516106318161592e565b600080600080600080600080610100898b031215614cb8578384fd5b8835614cc38161592e565b97506020890135614cd38161592e565b979a9799505050506040860135956060810135956080820135955060a0820135945060c0820135935060e0909101359150565b60008060008060008060c08789031215614d1e578182fd5b8635614d298161592e565b9860208801359850604088013597606081013597506080810135965060a00135945092505050565b600060208284031215614d62578081fd5b81518015158114610631578182fd5b600060208284031215614d82578081fd5b5035919050565b60008060408385031215614d9b578182fd5b823591506020830135614dad8161592e565b809150509250929050565b60008060408385031215614dca578182fd5b50508035926020909101359150565b600080600080600080600060e0888a031215614df3578283fd5b8735614dfe8161592e565b9960208901359950604089013598606081013598506080810135975060a0810135965060c00135945092505050565b600060a08284031215614e3e578081fd5b60405160a0810181811067ffffffffffffffff82111715614e5d578283fd5b6040528251614e6b8161592e565b80825250602083015160208201526040830151604082015260608301516060820152608083015160808201528091505092915050565b600060208284031215614eb2578081fd5b5051919050565b600080600060608486031215614ecd578081fd5b8351925060208401519150604084015190509250925092565b60008060008060008060c08789031215614efe578384fd5b863595506020870135945060408701359350606087013560ff81168114614f23578283fd5b9598949750929560808101359460a0909101359350915050565b80518252602090810151910152565b6001600160a01b0391909116815260200190565b6001600160a01b0397881681529590961660208601526040850193909352606084019190915260ff16608083015260a082015260c081019190915260e00190565b6001600160a01b03929092168252602082015260400190565b6001600160a01b03988916815296881660208801529490961660408601526060850192909252608084015260a083015260c082019290925260e08101919091526101000190565b6001600160a01b039384168152919092166020820152604081019190915260600190565b901515815260200190565b90815260200190565b6000602080835283518082850152825b8181101561506557858101830151858201604001528201615049565b818111156150765783604083870101525b50601f01601f1916929092016040019392505050565b60208082526022908201527f456e756d657261626c655365743a20696e646578206f7574206f6620626f756e604082015261647360f01b606082015260800190565b6020808252602f908201527f416363657373436f6e74726f6c3a2073656e646572206d75737420626520616e60408201526e0818591b5a5b881d1bc819dc985b9d608a1b606082015260800190565b60208082526014908201527314185d5cd8589b194e881b9bdd081c185d5cd95960621b604082015260600190565b6020808252601690820152754661696c656420746f20617070726f7665205553444360501b604082015260600190565b6020808252601a908201527f43616e27742073656e6420746f207a65726f2061646472657373000000000000604082015260600190565b6020808252602c908201527f4d75737420686176652070617573657220726f6c6520746f20706572666f726d60408201526b103a3434b99030b1ba34b7b760a11b606082015260800190565b6020808252601a908201527f4372656469746c696e652063616e6e6f7420626520656d707479000000000000604082015260600190565b6020808252601b908201527f536166654d6174683a206164646974696f6e206f766572666c6f770000000000604082015260600190565b602080825260139082015272556e737570706f72746564207472616e63686560681b604082015260600190565b6020808252602d908201527f436f6e66696720616e6420626f72726f7765722061646472657373657320636160408201526c6e6e6f7420626520656d70747960981b606082015260800190565b6020808252601e908201527f4f6e6c7920637265646974206465736b2063616e2063616c6c20746869730000604082015260600190565b6020808252601a908201527f426f72726f776572206d757374206e6f7420626520656d707479000000000000604082015260600190565b6020808252601d908201527f4f776e657220616464726573732063616e6e6f7420626520656d707479000000604082015260600190565b60208082526010908201526f105b1c9958591e481b5a59dc985d195960821b604082015260600190565b602080825260139082015272141bdbdb08185b1c9958591e481b1bd8dad959606a1b604082015260600190565b60208082526030908201527f416363657373436f6e74726f6c3a2073656e646572206d75737420626520616e60408201526f2061646d696e20746f207265766f6b6560801b606082015260800190565b602080825260119082015270151c985b98da19481a5cc81b1bd8dad959607a1b604082015260600190565b60208082526010908201526f14185d5cd8589b194e881c185d5cd95960821b604082015260600190565b6020808252818101527f5061796d656e7420706572696f64206d757374206e6f7420626520656d707479604082015260600190565b6020808252602c908201527f4d7573742068617665206c6f636b657220726f6c6520746f20706572666f726d60408201526b103a3434b99030b1ba34b7b760a11b606082015260800190565b6020808252818101527f4f776e65722063616e6e6f7420626520746865207a65726f2061646472657373604082015260600190565b60208082526021908201527f536166654d6174683a206d756c7469706c69636174696f6e206f766572666c6f6040820152607760f81b606082015260800190565b60208082526017908201527f5472616e63686520686173206265656e206c6f636b6564000000000000000000604082015260600190565b6020808252602e908201527f436f6e747261637420696e7374616e63652068617320616c726561647920626560408201526d195b881a5b9a5d1a585b1a5e995960921b606082015260800190565b6020808252601e908201527f44726177646f776e73206172652063757272656e746c79207061757365640000604082015260600190565b602080825260159082015274125b9d985b1a59081c995919595b48185b5bdd5b9d605a1b604082015260600190565b60208082526023908201527f4a756e696f72207472616e636865206d757374206265206c6f636b65642066696040820152621c9cdd60ea1b606082015260800190565b60208082526035908201527f4f6e6c792074686520746f6b656e206f776e657220697320616c6c6f776564206040820152743a379031b0b636103a3434b990333ab731ba34b7b760591b606082015260800190565b6020808252601690820152755465726d206d757374206e6f7420626520656d70747960501b604082015260600190565b60208082526017908201527f4d75737420706179206d6f7265207468616e207a65726f000000000000000000604082015260600190565b602080825260149082015273141bdbdb081a185cc81899595b881b1bd8dad95960621b604082015260600190565b6020808252601f908201527f5265656e7472616e637947756172643a207265656e7472616e742063616c6c00604082015260600190565b6020808252602b908201527f4d75737420686176652061646d696e20726f6c6520746f20706572666f726d2060408201526a3a3434b99030b1ba34b7b760a91b606082015260800190565b6020808252601d908201527f4a756e696f72207472616e63686520616c7265616479206c6f636b6564000000604082015260600190565b6020808252602f908201527f416363657373436f6e74726f6c3a2063616e206f6e6c792072656e6f756e636560408201526e103937b632b9903337b91039b2b63360891b606082015260800190565b606081016158ac8285614f3d565b6001600160a01b039290921660409190910152919050565b8151815260208083015190820152604080830151908201526060918201519181019190915260800190565b918252602082015260400190565b9283526020830191909152604082015260600190565b93845260208401929092526040830152606082015260800190565b6001600160a01b038116811461158157600080fdfeb19546dff01e856fb3f010c267a7b1c60363cf8a4664e21cc89c26224620214e65d7a28e3265b37a6474929f336521b332c1681b933f6cb9f3376673440d862aaf9a8bb3cbd6b84fbccefa71ff73e26e798553c6914585a84886212a46a90279a2646970667358221220ba6c805b6195925e912bcef8f1b0968f5ff0ffeb1428f3055b5ab19cd79acdfa64736f6c634300060c0033",
  "devdoc": {
    "kind": "dev",
    "methods": {
      "availableToWithdraw(uint256)": {
        "params": {
          "tokenId": "The token representing the position"
        },
        "returns": {
          "interestRedeemable": "The interest available to redeem",
          "principalRedeemable": "The principal available to redeem"
        }
      },
      "deposit(uint256,uint256)": {
        "params": {
          "amount": "The USDC amount to tranfer from the caller to the pool",
          "tranche": "The number representing the tranche to deposit into"
        },
        "returns": {
          "tokenId": "The tokenId of the NFT"
        }
      },
      "drawdown(uint256)": {
        "params": {
          "amount": "The amount to drawdown from the creditline (must be < limit)"
        }
      },
      "getRoleAdmin(bytes32)": {
        "details": "Returns the admin role that controls `role`. See {grantRole} and {revokeRole}. To change a role's admin, use {_setRoleAdmin}."
      },
      "getRoleMember(bytes32,uint256)": {
        "details": "Returns one of the accounts that have `role`. `index` must be a value between 0 and {getRoleMemberCount}, non-inclusive. Role bearers are not sorted in any particular way, and their ordering may change at any point. WARNING: When using {getRoleMember} and {getRoleMemberCount}, make sure you perform all queries on the same block. See the following https://forum.openzeppelin.com/t/iterating-over-elements-on-enumerableset-in-openzeppelin-contracts/2296[forum post] for more information."
      },
      "getRoleMemberCount(bytes32)": {
        "details": "Returns the number of accounts that have `role`. Can be used together with {getRoleMember} to enumerate all bearers of a role."
      },
      "grantRole(bytes32,address)": {
        "details": "Grants `role` to `account`. If `account` had not been already granted `role`, emits a {RoleGranted} event. Requirements: - the caller must have ``role``'s admin role."
      },
      "hasRole(bytes32,address)": {
        "details": "Returns `true` if `account` has been granted `role`."
      },
      "migrateCreditLine(address,uint256,uint256,uint256,uint256,uint256)": {
        "params": {
          "_borrower": "The borrower address",
          "_interestApr": "The new interest APR",
          "_lateFeeApr": "The new late fee APR",
          "_limit": "The new limit",
          "_paymentPeriodInDays": "The new payment period in days",
          "_termInDays": "The new term in days"
        }
      },
      "pause()": {
        "details": "Pauses all functions guarded by Pause See {Pausable-_pause}. Requirements: - the caller must have the PAUSER_ROLE."
      },
      "paused()": {
        "details": "Returns true if the contract is paused, and false otherwise."
      },
      "pay(uint256)": {
        "params": {
          "amount": "The amount to repay"
        }
      },
      "renounceRole(bytes32,address)": {
        "details": "Revokes `role` from the calling account. Roles are often managed via {grantRole} and {revokeRole}: this function's purpose is to provide a mechanism for accounts to lose their privileges if they are compromised (such as when a trusted device is misplaced). If the calling account had been granted `role`, emits a {RoleRevoked} event. Requirements: - the caller must be `account`."
      },
      "revokeRole(bytes32,address)": {
        "details": "Revokes `role` from `account`. If `account` had been granted `role`, emits a {RoleRevoked} event. Requirements: - the caller must have ``role``'s admin role."
      },
      "sharePriceToUsdc(uint256,uint256)": {
        "params": {
          "sharePrice": "The share price to convert",
          "totalShares": "The total shares outstanding"
        },
        "returns": {
          "_0": "The USDC amount of the input share price"
        }
      },
      "unpause()": {
        "details": "Unpauses the contract See {Pausable-_unpause}. Requirements: - the caller must have the Pauser role"
      },
      "usdcToSharePrice(uint256,uint256)": {
        "params": {
          "amount": "The USDC amount to convert",
          "totalShares": "The total shares outstanding"
        },
        "returns": {
          "_0": "The share price of the input amount"
        }
      },
      "withdraw(uint256,uint256)": {
        "params": {
          "amount": "The amount to withdraw (must be <= interest+principal currently available to withdraw)",
          "tokenId": "The NFT representing the position"
        },
        "returns": {
          "interestWithdrawn": "The interest amount that was withdrawn",
          "principalWithdrawn": "The principal amount that was withdrawn"
        }
      },
      "withdrawMax(uint256)": {
        "params": {
          "tokenId": "The NFT representing the position"
        },
        "returns": {
          "interestWithdrawn": "The interest amount that was withdrawn",
          "principalWithdrawn": "The principal amount that was withdrawn"
        }
      }
    },
    "version": 1
  },
  "userdoc": {
    "kind": "user",
    "methods": {
      "assess()": {
        "notice": "Triggers an assessment of the creditline and the applies the payments according the tranche waterfall"
      },
      "availableToWithdraw(uint256)": {
        "notice": "Determines the amount of interest and principal redeemable by a particular tokenId"
      },
      "deposit(uint256,uint256)": {
        "notice": "Deposit a USDC amount into the pool for a tranche. Mints an NFT to the caller representing the position"
      },
      "drawdown(uint256)": {
        "notice": "Draws down the funds (and locks the pool) to the borrower address. Can only be called by the borrower"
      },
      "emergencyShutdown()": {
        "notice": "Pauses the pool and sweeps any remaining funds to the treasury reserve."
      },
      "lockJuniorCapital()": {
        "notice": "Locks the junior tranche, preventing more junior deposits. Gives time for the senior to determine how much to invest (ensure leverage ratio cannot change for the period)"
      },
      "lockPool()": {
        "notice": "Locks the pool (locks both senior and junior tranches and starts the drawdown period). Beyond the drawdown period, any unused capital is available to withdraw by all depositors"
      },
      "migrateAndSetNewCreditLine(address)": {
        "notice": "Migrates to a new creditline without copying the accounting variables"
      },
      "migrateCreditLine(address,uint256,uint256,uint256,uint256,uint256)": {
        "notice": "Migrates the accounting variables from the current creditline to a brand new one"
      },
      "pauseDrawdowns()": {
        "notice": "Pauses all drawdowns (but not deposits/withdraws)"
      },
      "pay(uint256)": {
        "notice": "Allows repaying the creditline. Collects the USDC amount from the sender and triggers an assess"
      },
      "sharePriceToUsdc(uint256,uint256)": {
        "notice": "Converts share price to USDC amounts"
      },
      "unpauseDrawdowns()": {
        "notice": "Unpause drawdowns"
      },
      "updateGoldfinchConfig()": {
        "notice": "Migrates to a new goldfinch config address"
      },
      "usdcToSharePrice(uint256,uint256)": {
        "notice": "Converts USDC amounts to share price"
      },
      "withdraw(uint256,uint256)": {
        "notice": "Withdraw an already deposited amount if the funds are available"
      },
      "withdrawMax(uint256)": {
        "notice": "Similar to withdraw but will withdraw all available funds"
      }
    },
    "version": 1
  },
  "storageLayout": {
    "storage": [
      {
        "astId": 151,
        "contract": "contracts/protocol/core/MigratedTranchedPool.sol:MigratedTranchedPool",
        "label": "initialized",
        "offset": 0,
        "slot": "0",
        "type": "t_bool"
      },
      {
        "astId": 154,
        "contract": "contracts/protocol/core/MigratedTranchedPool.sol:MigratedTranchedPool",
        "label": "initializing",
        "offset": 1,
        "slot": "0",
        "type": "t_bool"
      },
      {
        "astId": 219,
        "contract": "contracts/protocol/core/MigratedTranchedPool.sol:MigratedTranchedPool",
        "label": "______gap",
        "offset": 0,
        "slot": "1",
        "type": "t_array(t_uint256)50_storage"
      },
      {
        "astId": 144,
        "contract": "contracts/protocol/core/MigratedTranchedPool.sol:MigratedTranchedPool",
        "label": "__gap",
        "offset": 0,
        "slot": "51",
        "type": "t_array(t_uint256)50_storage"
      },
      {
        "astId": 264,
        "contract": "contracts/protocol/core/MigratedTranchedPool.sol:MigratedTranchedPool",
        "label": "_roles",
        "offset": 0,
        "slot": "101",
        "type": "t_mapping(t_bytes32,t_struct(RoleData)260_storage)"
      },
      {
        "astId": 509,
        "contract": "contracts/protocol/core/MigratedTranchedPool.sol:MigratedTranchedPool",
        "label": "__gap",
        "offset": 0,
        "slot": "102",
        "type": "t_array(t_uint256)49_storage"
      },
      {
        "astId": 4201,
        "contract": "contracts/protocol/core/MigratedTranchedPool.sol:MigratedTranchedPool",
        "label": "_paused",
        "offset": 0,
        "slot": "151",
        "type": "t_bool"
      },
      {
        "astId": 4290,
        "contract": "contracts/protocol/core/MigratedTranchedPool.sol:MigratedTranchedPool",
        "label": "__gap",
        "offset": 0,
        "slot": "152",
        "type": "t_array(t_uint256)49_storage"
      },
      {
        "astId": 4299,
        "contract": "contracts/protocol/core/MigratedTranchedPool.sol:MigratedTranchedPool",
        "label": "_notEntered",
        "offset": 0,
        "slot": "201",
        "type": "t_bool"
      },
      {
        "astId": 4340,
        "contract": "contracts/protocol/core/MigratedTranchedPool.sol:MigratedTranchedPool",
        "label": "__gap",
        "offset": 0,
        "slot": "202",
        "type": "t_array(t_uint256)49_storage"
      },
      {
        "astId": 9355,
        "contract": "contracts/protocol/core/MigratedTranchedPool.sol:MigratedTranchedPool",
        "label": "__gap1",
        "offset": 0,
        "slot": "251",
        "type": "t_array(t_uint256)50_storage"
      },
      {
        "astId": 9359,
        "contract": "contracts/protocol/core/MigratedTranchedPool.sol:MigratedTranchedPool",
        "label": "__gap2",
        "offset": 0,
        "slot": "301",
        "type": "t_array(t_uint256)50_storage"
      },
      {
        "astId": 9363,
        "contract": "contracts/protocol/core/MigratedTranchedPool.sol:MigratedTranchedPool",
        "label": "__gap3",
        "offset": 0,
        "slot": "351",
        "type": "t_array(t_uint256)50_storage"
      },
      {
        "astId": 9367,
        "contract": "contracts/protocol/core/MigratedTranchedPool.sol:MigratedTranchedPool",
        "label": "__gap4",
        "offset": 0,
        "slot": "401",
        "type": "t_array(t_uint256)50_storage"
      },
      {
        "astId": 8259,
        "contract": "contracts/protocol/core/MigratedTranchedPool.sol:MigratedTranchedPool",
        "label": "creditLine",
        "offset": 0,
        "slot": "451",
        "type": "t_contract(IV2CreditLine)8537"
      },
      {
        "astId": 8261,
        "contract": "contracts/protocol/core/MigratedTranchedPool.sol:MigratedTranchedPool",
        "label": "createdAt",
        "offset": 0,
        "slot": "452",
        "type": "t_uint256"
      },
      {
        "astId": 18223,
        "contract": "contracts/protocol/core/MigratedTranchedPool.sol:MigratedTranchedPool",
        "label": "config",
        "offset": 0,
        "slot": "453",
        "type": "t_contract(GoldfinchConfig)13893"
      },
      {
        "astId": 18252,
        "contract": "contracts/protocol/core/MigratedTranchedPool.sol:MigratedTranchedPool",
        "label": "juniorFeePercent",
        "offset": 0,
        "slot": "454",
        "type": "t_uint256"
      },
      {
        "astId": 18254,
        "contract": "contracts/protocol/core/MigratedTranchedPool.sol:MigratedTranchedPool",
        "label": "drawdownsPaused",
        "offset": 0,
        "slot": "455",
        "type": "t_bool"
      },
      {
        "astId": 18256,
        "contract": "contracts/protocol/core/MigratedTranchedPool.sol:MigratedTranchedPool",
        "label": "seniorTranche",
        "offset": 0,
        "slot": "456",
        "type": "t_struct(TrancheInfo)8274_storage"
      },
      {
        "astId": 18258,
        "contract": "contracts/protocol/core/MigratedTranchedPool.sol:MigratedTranchedPool",
        "label": "juniorTranche",
        "offset": 0,
        "slot": "460",
        "type": "t_struct(TrancheInfo)8274_storage"
      },
      {
        "astId": 14210,
        "contract": "contracts/protocol/core/MigratedTranchedPool.sol:MigratedTranchedPool",
        "label": "migrated",
        "offset": 0,
        "slot": "464",
        "type": "t_bool"
      }
    ],
    "types": {
      "t_array(t_bytes32)dyn_storage": {
        "base": "t_bytes32",
        "encoding": "dynamic_array",
        "label": "bytes32[]",
        "numberOfBytes": "32"
      },
      "t_array(t_uint256)49_storage": {
        "base": "t_uint256",
        "encoding": "inplace",
        "label": "uint256[49]",
        "numberOfBytes": "1568"
      },
      "t_array(t_uint256)50_storage": {
        "base": "t_uint256",
        "encoding": "inplace",
        "label": "uint256[50]",
        "numberOfBytes": "1600"
      },
      "t_bool": {
        "encoding": "inplace",
        "label": "bool",
        "numberOfBytes": "1"
      },
      "t_bytes32": {
        "encoding": "inplace",
        "label": "bytes32",
        "numberOfBytes": "32"
      },
      "t_contract(GoldfinchConfig)13893": {
        "encoding": "inplace",
        "label": "contract GoldfinchConfig",
        "numberOfBytes": "20"
      },
      "t_contract(IV2CreditLine)8537": {
        "encoding": "inplace",
        "label": "contract IV2CreditLine",
        "numberOfBytes": "20"
      },
      "t_mapping(t_bytes32,t_struct(RoleData)260_storage)": {
        "encoding": "mapping",
        "key": "t_bytes32",
        "label": "mapping(bytes32 => struct AccessControlUpgradeSafe.RoleData)",
        "numberOfBytes": "32",
        "value": "t_struct(RoleData)260_storage"
      },
      "t_mapping(t_bytes32,t_uint256)": {
        "encoding": "mapping",
        "key": "t_bytes32",
        "label": "mapping(bytes32 => uint256)",
        "numberOfBytes": "32",
        "value": "t_uint256"
      },
      "t_struct(AddressSet)3976_storage": {
        "encoding": "inplace",
        "label": "struct EnumerableSet.AddressSet",
        "members": [
          {
            "astId": 3975,
            "contract": "contracts/protocol/core/MigratedTranchedPool.sol:MigratedTranchedPool",
            "label": "_inner",
            "offset": 0,
            "slot": "0",
            "type": "t_struct(Set)3796_storage"
          }
        ],
        "numberOfBytes": "64"
      },
      "t_struct(RoleData)260_storage": {
        "encoding": "inplace",
        "label": "struct AccessControlUpgradeSafe.RoleData",
        "members": [
          {
            "astId": 257,
            "contract": "contracts/protocol/core/MigratedTranchedPool.sol:MigratedTranchedPool",
            "label": "members",
            "offset": 0,
            "slot": "0",
            "type": "t_struct(AddressSet)3976_storage"
          },
          {
            "astId": 259,
            "contract": "contracts/protocol/core/MigratedTranchedPool.sol:MigratedTranchedPool",
            "label": "adminRole",
            "offset": 0,
            "slot": "2",
            "type": "t_bytes32"
          }
        ],
        "numberOfBytes": "96"
      },
      "t_struct(Set)3796_storage": {
        "encoding": "inplace",
        "label": "struct EnumerableSet.Set",
        "members": [
          {
            "astId": 3791,
            "contract": "contracts/protocol/core/MigratedTranchedPool.sol:MigratedTranchedPool",
            "label": "_values",
            "offset": 0,
            "slot": "0",
            "type": "t_array(t_bytes32)dyn_storage"
          },
          {
            "astId": 3795,
            "contract": "contracts/protocol/core/MigratedTranchedPool.sol:MigratedTranchedPool",
            "label": "_indexes",
            "offset": 0,
            "slot": "1",
            "type": "t_mapping(t_bytes32,t_uint256)"
          }
        ],
        "numberOfBytes": "64"
      },
      "t_struct(TrancheInfo)8274_storage": {
        "encoding": "inplace",
        "label": "struct ITranchedPool.TrancheInfo",
        "members": [
          {
            "astId": 8267,
            "contract": "contracts/protocol/core/MigratedTranchedPool.sol:MigratedTranchedPool",
            "label": "principalDeposited",
            "offset": 0,
            "slot": "0",
            "type": "t_uint256"
          },
          {
            "astId": 8269,
            "contract": "contracts/protocol/core/MigratedTranchedPool.sol:MigratedTranchedPool",
            "label": "principalSharePrice",
            "offset": 0,
            "slot": "1",
            "type": "t_uint256"
          },
          {
            "astId": 8271,
            "contract": "contracts/protocol/core/MigratedTranchedPool.sol:MigratedTranchedPool",
            "label": "interestSharePrice",
            "offset": 0,
            "slot": "2",
            "type": "t_uint256"
          },
          {
            "astId": 8273,
            "contract": "contracts/protocol/core/MigratedTranchedPool.sol:MigratedTranchedPool",
            "label": "lockedUntil",
            "offset": 0,
            "slot": "3",
            "type": "t_uint256"
          }
        ],
        "numberOfBytes": "128"
      },
      "t_uint256": {
        "encoding": "inplace",
        "label": "uint256",
        "numberOfBytes": "32"
      }
    }
  }
}