{
  "address": "0x1aa93361B1EC6db839B661326a524442ECc8071c",
  "abi": [
    {
      "anonymous": false,
      "inputs": [
        {
          "indexed": true,
          "internalType": "address",
          "name": "owner",
          "type": "address"
        },
        {
          "indexed": true,
          "internalType": "address",
          "name": "approved",
          "type": "address"
        },
        {
          "indexed": true,
          "internalType": "uint256",
          "name": "tokenId",
          "type": "uint256"
        }
      ],
      "name": "Approval",
      "type": "event"
    },
    {
      "anonymous": false,
      "inputs": [
        {
          "indexed": true,
          "internalType": "address",
          "name": "owner",
          "type": "address"
        },
        {
          "indexed": true,
          "internalType": "address",
          "name": "operator",
          "type": "address"
        },
        {
          "indexed": false,
          "internalType": "bool",
          "name": "approved",
          "type": "bool"
        }
      ],
      "name": "ApprovalForAll",
      "type": "event"
    },
    {
      "anonymous": false,
      "inputs": [
        {
          "indexed": true,
          "internalType": "address",
          "name": "who",
          "type": "address"
        },
        {
          "indexed": false,
          "internalType": "address",
          "name": "configAddress",
          "type": "address"
        }
      ],
      "name": "GoldfinchConfigUpdated",
      "type": "event"
    },
    {
      "anonymous": false,
      "inputs": [
        {
          "indexed": false,
          "internalType": "address",
          "name": "account",
          "type": "address"
        }
      ],
      "name": "Paused",
      "type": "event"
    },
    {
      "anonymous": false,
      "inputs": [
        {
          "indexed": true,
          "internalType": "bytes32",
          "name": "role",
          "type": "bytes32"
        },
        {
          "indexed": true,
          "internalType": "address",
          "name": "account",
          "type": "address"
        },
        {
          "indexed": true,
          "internalType": "address",
          "name": "sender",
          "type": "address"
        }
      ],
      "name": "RoleGranted",
      "type": "event"
    },
    {
      "anonymous": false,
      "inputs": [
        {
          "indexed": true,
          "internalType": "bytes32",
          "name": "role",
          "type": "bytes32"
        },
        {
          "indexed": true,
          "internalType": "address",
          "name": "account",
          "type": "address"
        },
        {
          "indexed": true,
          "internalType": "address",
          "name": "sender",
          "type": "address"
        }
      ],
      "name": "RoleRevoked",
      "type": "event"
    },
    {
      "anonymous": false,
      "inputs": [
        {
          "indexed": true,
          "internalType": "address",
          "name": "owner",
          "type": "address"
        },
        {
          "indexed": true,
          "internalType": "address",
          "name": "pool",
          "type": "address"
        },
        {
          "indexed": true,
          "internalType": "uint256",
          "name": "tokenId",
          "type": "uint256"
        }
      ],
      "name": "TokenBurned",
      "type": "event"
    },
    {
      "anonymous": false,
      "inputs": [
        {
          "indexed": true,
          "internalType": "address",
          "name": "owner",
          "type": "address"
        },
        {
          "indexed": true,
          "internalType": "address",
          "name": "pool",
          "type": "address"
        },
        {
          "indexed": true,
          "internalType": "uint256",
          "name": "tokenId",
          "type": "uint256"
        },
        {
          "indexed": false,
          "internalType": "uint256",
          "name": "amount",
          "type": "uint256"
        },
        {
          "indexed": false,
          "internalType": "uint256",
          "name": "tranche",
          "type": "uint256"
        }
      ],
      "name": "TokenMinted",
      "type": "event"
    },
    {
      "anonymous": false,
      "inputs": [
        {
          "indexed": true,
          "internalType": "address",
          "name": "owner",
          "type": "address"
        },
        {
          "indexed": true,
          "internalType": "address",
          "name": "pool",
          "type": "address"
        },
        {
          "indexed": true,
          "internalType": "uint256",
          "name": "tokenId",
          "type": "uint256"
        },
        {
          "indexed": false,
          "internalType": "uint256",
          "name": "principalRedeemed",
          "type": "uint256"
        },
        {
          "indexed": false,
          "internalType": "uint256",
          "name": "interestRedeemed",
          "type": "uint256"
        },
        {
          "indexed": false,
          "internalType": "uint256",
          "name": "tranche",
          "type": "uint256"
        }
      ],
      "name": "TokenRedeemed",
      "type": "event"
    },
    {
      "anonymous": false,
      "inputs": [
        {
          "indexed": true,
          "internalType": "address",
          "name": "from",
          "type": "address"
        },
        {
          "indexed": true,
          "internalType": "address",
          "name": "to",
          "type": "address"
        },
        {
          "indexed": true,
          "internalType": "uint256",
          "name": "tokenId",
          "type": "uint256"
        }
      ],
      "name": "Transfer",
      "type": "event"
    },
    {
      "anonymous": false,
      "inputs": [
        {
          "indexed": false,
          "internalType": "address",
          "name": "account",
          "type": "address"
        }
      ],
      "name": "Unpaused",
      "type": "event"
    },
    {
      "inputs": [],
      "name": "DEFAULT_ADMIN_ROLE",
      "outputs": [
        {
          "internalType": "bytes32",
          "name": "",
          "type": "bytes32"
        }
      ],
      "stateMutability": "view",
      "type": "function"
    },
    {
      "inputs": [],
      "name": "MINTER_ROLE",
      "outputs": [
        {
          "internalType": "bytes32",
          "name": "",
          "type": "bytes32"
        }
      ],
      "stateMutability": "view",
      "type": "function"
    },
    {
      "inputs": [],
      "name": "OWNER_ROLE",
      "outputs": [
        {
          "internalType": "bytes32",
          "name": "",
          "type": "bytes32"
        }
      ],
      "stateMutability": "view",
      "type": "function"
    },
    {
      "inputs": [],
      "name": "PAUSER_ROLE",
      "outputs": [
        {
          "internalType": "bytes32",
          "name": "",
          "type": "bytes32"
        }
      ],
      "stateMutability": "view",
      "type": "function"
    },
    {
      "inputs": [
        {
          "internalType": "address",
          "name": "owner",
          "type": "address"
        },
        {
          "internalType": "contract GoldfinchConfig",
          "name": "_config",
          "type": "address"
        }
      ],
      "name": "__initialize__",
      "outputs": [],
      "stateMutability": "nonpayable",
      "type": "function"
    },
    {
      "inputs": [],
      "name": "_tokenIdTracker",
      "outputs": [
        {
          "internalType": "uint256",
          "name": "_value",
          "type": "uint256"
        }
      ],
      "stateMutability": "view",
      "type": "function"
    },
    {
      "inputs": [
        {
          "internalType": "address",
          "name": "to",
          "type": "address"
        },
        {
          "internalType": "uint256",
          "name": "tokenId",
          "type": "uint256"
        }
      ],
      "name": "approve",
      "outputs": [],
      "stateMutability": "nonpayable",
      "type": "function"
    },
    {
      "inputs": [
        {
          "internalType": "address",
          "name": "owner",
          "type": "address"
        }
      ],
      "name": "balanceOf",
      "outputs": [
        {
          "internalType": "uint256",
          "name": "",
          "type": "uint256"
        }
      ],
      "stateMutability": "view",
      "type": "function"
    },
    {
      "inputs": [],
      "name": "baseURI",
      "outputs": [
        {
          "internalType": "string",
          "name": "",
          "type": "string"
        }
      ],
      "stateMutability": "view",
      "type": "function"
    },
    {
      "inputs": [
        {
          "internalType": "uint256",
          "name": "tokenId",
          "type": "uint256"
        }
      ],
      "name": "burn",
      "outputs": [],
      "stateMutability": "nonpayable",
      "type": "function"
    },
    {
      "inputs": [],
      "name": "config",
      "outputs": [
        {
          "internalType": "contract GoldfinchConfig",
          "name": "",
          "type": "address"
        }
      ],
      "stateMutability": "view",
      "type": "function"
    },
    {
      "inputs": [
        {
          "internalType": "uint256",
          "name": "tokenId",
          "type": "uint256"
        }
      ],
      "name": "getApproved",
      "outputs": [
        {
          "internalType": "address",
          "name": "",
          "type": "address"
        }
      ],
      "stateMutability": "view",
      "type": "function"
    },
    {
      "inputs": [
        {
          "internalType": "bytes32",
          "name": "role",
          "type": "bytes32"
        }
      ],
      "name": "getRoleAdmin",
      "outputs": [
        {
          "internalType": "bytes32",
          "name": "",
          "type": "bytes32"
        }
      ],
      "stateMutability": "view",
      "type": "function"
    },
    {
      "inputs": [
        {
          "internalType": "bytes32",
          "name": "role",
          "type": "bytes32"
        },
        {
          "internalType": "uint256",
          "name": "index",
          "type": "uint256"
        }
      ],
      "name": "getRoleMember",
      "outputs": [
        {
          "internalType": "address",
          "name": "",
          "type": "address"
        }
      ],
      "stateMutability": "view",
      "type": "function"
    },
    {
      "inputs": [
        {
          "internalType": "bytes32",
          "name": "role",
          "type": "bytes32"
        }
      ],
      "name": "getRoleMemberCount",
      "outputs": [
        {
          "internalType": "uint256",
          "name": "",
          "type": "uint256"
        }
      ],
      "stateMutability": "view",
      "type": "function"
    },
    {
      "inputs": [
        {
          "internalType": "uint256",
          "name": "tokenId",
          "type": "uint256"
        }
      ],
      "name": "getTokenInfo",
      "outputs": [
        {
          "components": [
            {
              "internalType": "address",
              "name": "pool",
              "type": "address"
            },
            {
              "internalType": "uint256",
              "name": "tranche",
              "type": "uint256"
            },
            {
              "internalType": "uint256",
              "name": "principalAmount",
              "type": "uint256"
            },
            {
              "internalType": "uint256",
              "name": "principalRedeemed",
              "type": "uint256"
            },
            {
              "internalType": "uint256",
              "name": "interestRedeemed",
              "type": "uint256"
            }
          ],
          "internalType": "struct IPoolTokens.TokenInfo",
          "name": "",
          "type": "tuple"
        }
      ],
      "stateMutability": "view",
      "type": "function"
    },
    {
      "inputs": [
        {
          "internalType": "bytes32",
          "name": "role",
          "type": "bytes32"
        },
        {
          "internalType": "address",
          "name": "account",
          "type": "address"
        }
      ],
      "name": "grantRole",
      "outputs": [],
      "stateMutability": "nonpayable",
      "type": "function"
    },
    {
      "inputs": [
        {
          "internalType": "bytes32",
          "name": "role",
          "type": "bytes32"
        },
        {
          "internalType": "address",
          "name": "account",
          "type": "address"
        }
      ],
      "name": "hasRole",
      "outputs": [
        {
          "internalType": "bool",
          "name": "",
          "type": "bool"
        }
      ],
      "stateMutability": "view",
      "type": "function"
    },
    {
      "inputs": [],
      "name": "isAdmin",
      "outputs": [
        {
          "internalType": "bool",
          "name": "",
          "type": "bool"
        }
      ],
      "stateMutability": "view",
      "type": "function"
    },
    {
      "inputs": [
        {
          "internalType": "address",
          "name": "owner",
          "type": "address"
        },
        {
          "internalType": "address",
          "name": "operator",
          "type": "address"
        }
      ],
      "name": "isApprovedForAll",
      "outputs": [
        {
          "internalType": "bool",
          "name": "",
          "type": "bool"
        }
      ],
      "stateMutability": "view",
      "type": "function"
    },
    {
      "inputs": [
        {
          "internalType": "address",
          "name": "spender",
          "type": "address"
        },
        {
          "internalType": "uint256",
          "name": "tokenId",
          "type": "uint256"
        }
      ],
      "name": "isApprovedOrOwner",
      "outputs": [
        {
          "internalType": "bool",
          "name": "",
          "type": "bool"
        }
      ],
      "stateMutability": "view",
      "type": "function"
    },
    {
      "inputs": [
        {
          "components": [
            {
              "internalType": "uint256",
              "name": "principalAmount",
              "type": "uint256"
            },
            {
              "internalType": "uint256",
              "name": "tranche",
              "type": "uint256"
            }
          ],
          "internalType": "struct IPoolTokens.MintParams",
          "name": "params",
          "type": "tuple"
        },
        {
          "internalType": "address",
          "name": "to",
          "type": "address"
        }
      ],
      "name": "mint",
      "outputs": [
        {
          "internalType": "uint256",
          "name": "tokenId",
          "type": "uint256"
        }
      ],
      "stateMutability": "nonpayable",
      "type": "function"
    },
    {
      "inputs": [],
      "name": "name",
      "outputs": [
        {
          "internalType": "string",
          "name": "",
          "type": "string"
        }
      ],
      "stateMutability": "view",
      "type": "function"
    },
    {
      "inputs": [
        {
          "internalType": "address",
          "name": "newPool",
          "type": "address"
        }
      ],
      "name": "onPoolCreated",
      "outputs": [],
      "stateMutability": "nonpayable",
      "type": "function"
    },
    {
      "inputs": [
        {
          "internalType": "uint256",
          "name": "tokenId",
          "type": "uint256"
        }
      ],
      "name": "ownerOf",
      "outputs": [
        {
          "internalType": "address",
          "name": "",
          "type": "address"
        }
      ],
      "stateMutability": "view",
      "type": "function"
    },
    {
      "inputs": [],
      "name": "pause",
      "outputs": [],
      "stateMutability": "nonpayable",
      "type": "function"
    },
    {
      "inputs": [],
      "name": "paused",
      "outputs": [
        {
          "internalType": "bool",
          "name": "",
          "type": "bool"
        }
      ],
      "stateMutability": "view",
      "type": "function"
    },
    {
      "inputs": [
        {
          "internalType": "address",
          "name": "",
          "type": "address"
        }
      ],
      "name": "pools",
      "outputs": [
        {
          "internalType": "uint256",
          "name": "totalMinted",
          "type": "uint256"
        },
        {
          "internalType": "uint256",
          "name": "totalPrincipalRedeemed",
          "type": "uint256"
        },
        {
          "internalType": "bool",
          "name": "created",
          "type": "bool"
        }
      ],
      "stateMutability": "view",
      "type": "function"
    },
    {
      "inputs": [
        {
          "internalType": "uint256",
          "name": "tokenId",
          "type": "uint256"
        },
        {
          "internalType": "uint256",
          "name": "principalRedeemed",
          "type": "uint256"
        },
        {
          "internalType": "uint256",
          "name": "interestRedeemed",
          "type": "uint256"
        }
      ],
      "name": "redeem",
      "outputs": [],
      "stateMutability": "nonpayable",
      "type": "function"
    },
    {
      "inputs": [
        {
          "internalType": "bytes32",
          "name": "role",
          "type": "bytes32"
        },
        {
          "internalType": "address",
          "name": "account",
          "type": "address"
        }
      ],
      "name": "renounceRole",
      "outputs": [],
      "stateMutability": "nonpayable",
      "type": "function"
    },
    {
      "inputs": [
        {
          "internalType": "bytes32",
          "name": "role",
          "type": "bytes32"
        },
        {
          "internalType": "address",
          "name": "account",
          "type": "address"
        }
      ],
      "name": "revokeRole",
      "outputs": [],
      "stateMutability": "nonpayable",
      "type": "function"
    },
    {
      "inputs": [
        {
          "internalType": "address",
          "name": "from",
          "type": "address"
        },
        {
          "internalType": "address",
          "name": "to",
          "type": "address"
        },
        {
          "internalType": "uint256",
          "name": "tokenId",
          "type": "uint256"
        }
      ],
      "name": "safeTransferFrom",
      "outputs": [],
      "stateMutability": "nonpayable",
      "type": "function"
    },
    {
      "inputs": [
        {
          "internalType": "address",
          "name": "from",
          "type": "address"
        },
        {
          "internalType": "address",
          "name": "to",
          "type": "address"
        },
        {
          "internalType": "uint256",
          "name": "tokenId",
          "type": "uint256"
        },
        {
          "internalType": "bytes",
          "name": "_data",
          "type": "bytes"
        }
      ],
      "name": "safeTransferFrom",
      "outputs": [],
      "stateMutability": "nonpayable",
      "type": "function"
    },
    {
      "inputs": [
        {
          "internalType": "address",
          "name": "operator",
          "type": "address"
        },
        {
          "internalType": "bool",
          "name": "approved",
          "type": "bool"
        }
      ],
      "name": "setApprovalForAll",
      "outputs": [],
      "stateMutability": "nonpayable",
      "type": "function"
    },
    {
      "inputs": [
        {
          "internalType": "bytes4",
          "name": "interfaceId",
          "type": "bytes4"
        }
      ],
      "name": "supportsInterface",
      "outputs": [
        {
          "internalType": "bool",
          "name": "",
          "type": "bool"
        }
      ],
      "stateMutability": "view",
      "type": "function"
    },
    {
      "inputs": [],
      "name": "symbol",
      "outputs": [
        {
          "internalType": "string",
          "name": "",
          "type": "string"
        }
      ],
      "stateMutability": "view",
      "type": "function"
    },
    {
      "inputs": [
        {
          "internalType": "uint256",
          "name": "index",
          "type": "uint256"
        }
      ],
      "name": "tokenByIndex",
      "outputs": [
        {
          "internalType": "uint256",
          "name": "",
          "type": "uint256"
        }
      ],
      "stateMutability": "view",
      "type": "function"
    },
    {
      "inputs": [
        {
          "internalType": "address",
          "name": "owner",
          "type": "address"
        },
        {
          "internalType": "uint256",
          "name": "index",
          "type": "uint256"
        }
      ],
      "name": "tokenOfOwnerByIndex",
      "outputs": [
        {
          "internalType": "uint256",
          "name": "",
          "type": "uint256"
        }
      ],
      "stateMutability": "view",
      "type": "function"
    },
    {
      "inputs": [
        {
          "internalType": "uint256",
          "name": "tokenId",
          "type": "uint256"
        }
      ],
      "name": "tokenURI",
      "outputs": [
        {
          "internalType": "string",
          "name": "",
          "type": "string"
        }
      ],
      "stateMutability": "view",
      "type": "function"
    },
    {
      "inputs": [
        {
          "internalType": "uint256",
          "name": "",
          "type": "uint256"
        }
      ],
      "name": "tokens",
      "outputs": [
        {
          "internalType": "address",
          "name": "pool",
          "type": "address"
        },
        {
          "internalType": "uint256",
          "name": "tranche",
          "type": "uint256"
        },
        {
          "internalType": "uint256",
          "name": "principalAmount",
          "type": "uint256"
        },
        {
          "internalType": "uint256",
          "name": "principalRedeemed",
          "type": "uint256"
        },
        {
          "internalType": "uint256",
          "name": "interestRedeemed",
          "type": "uint256"
        }
      ],
      "stateMutability": "view",
      "type": "function"
    },
    {
      "inputs": [],
      "name": "totalSupply",
      "outputs": [
        {
          "internalType": "uint256",
          "name": "",
          "type": "uint256"
        }
      ],
      "stateMutability": "view",
      "type": "function"
    },
    {
      "inputs": [
        {
          "internalType": "address",
          "name": "from",
          "type": "address"
        },
        {
          "internalType": "address",
          "name": "to",
          "type": "address"
        },
        {
          "internalType": "uint256",
          "name": "tokenId",
          "type": "uint256"
        }
      ],
      "name": "transferFrom",
      "outputs": [],
      "stateMutability": "nonpayable",
      "type": "function"
    },
    {
      "inputs": [],
      "name": "unpause",
      "outputs": [],
      "stateMutability": "nonpayable",
      "type": "function"
    },
    {
      "inputs": [],
      "name": "updateGoldfinchConfig",
      "outputs": [],
      "stateMutability": "nonpayable",
      "type": "function"
    },
    {
      "inputs": [
        {
          "internalType": "address",
          "name": "sender",
          "type": "address"
        }
      ],
      "name": "validPool",
      "outputs": [
        {
          "internalType": "bool",
          "name": "",
          "type": "bool"
        }
      ],
      "stateMutability": "view",
      "type": "function"
    }
  ],
  "transactionHash": "0x91eb7b617178793506cbf3e5cd67a067991c05ec3fbd27094b758eb817882142",
  "args": [],
  "solcInputHash": "09586d0fbcee1e635828b4bf555ecfc7",
  "bytecode": "0x608060405234801561001057600080fd5b506138c8806100206000396000f3fe608060405234801561001057600080fd5b506004361061027f5760003560e01c806370a082311161015c578063b5ada6d8116100ce578063ca15c87311610087578063ca15c87314610551578063d539139314610564578063d547741f1461056c578063e58378bb1461057f578063e63ab1e914610587578063e985e9c51461058f5761027f565b8063b5ada6d8146104ea578063b6db75a0146104fd578063b6f8fd4014610505578063b819220514610518578063b88d4fde1461052b578063c87b56dd1461053e5761027f565b806391d148541161012057806391d148541461048a57806395d89b411461049d57806398bcede9146104a5578063a217fddf146104ad578063a22cb465146104b5578063a4063dbc146104c85761027f565b806370a082311461043457806379502c55146104475780638456cb591461044f5780638c7a63ae146104575780639010d07c146104775761027f565b806342842e0e116101f55780634f92a728116101b95780634f92a728146103e357806357e340ce146103eb5780635be57b6a146103fe5780635c975abb146104115780636352211e146104195780636c0360eb1461042c5761027f565b806342842e0e1461037357806342966c6814610386578063430c2081146103995780634f64b2be146103ac5780634f6ccce7146103d05761027f565b806323b872dd1161024757806323b872dd1461030c578063248a9ca31461031f5780632f2ff15d146103325780632f745c591461034557806336568abe146103585780633f4ba83a1461036b5761027f565b806301ffc9a71461028457806306fdde03146102ad578063081812fc146102c2578063095ea7b3146102e257806318160ddd146102f7575b600080fd5b610297610292366004612b1c565b6105a2565b6040516102a49190612d12565b60405180910390f35b6102b56105c5565b6040516102a49190612d26565b6102d56102d0366004612abf565b61065b565b6040516102a49190612c7a565b6102f56102f0366004612a78565b6106a7565b005b6102ff61073f565b6040516102a49190612d1d565b6102f561031a366004612931565b610750565b6102ff61032d366004612abf565b610788565b6102f5610340366004612ad7565b61079d565b6102ff610353366004612a78565b6107e5565b6102f5610366366004612ad7565b610810565b6102f5610852565b6102f5610381366004612931565b610892565b6102f5610394366004612abf565b6108ad565b6102976103a7366004612a78565b6109e2565b6103bf6103ba366004612abf565b6109ee565b6040516102a4959493929190612ce4565b6102ff6103de366004612abf565b610a28565b6102f5610a3e565b6102f56103f93660046128c1565b610ad4565b6102ff61040c366004612b54565b610b49565b610297610c90565b6102d5610427366004612abf565b610c99565b6102b5610cc1565b6102ff6104423660046128c1565b610d22565b6102d5610d6b565b6102f5610d7b565b61046a610465366004612abf565b610db9565b6040516102a4919061372a565b6102d5610485366004612afb565b610dca565b610297610498366004612ad7565b610de2565b6102b5610dfa565b6102ff610e5b565b6102ff610e62565b6102f56104c3366004612a39565b610e67565b6104db6104d63660046128c1565b610f35565b6040516102a493929190613776565b6102976104f83660046128c1565b610f5a565b610297610f65565b6102f5610513366004612a66565b610f81565b6102f5610526366004612b86565b61114e565b6102f5610539366004612971565b611307565b6102b561054c366004612abf565b611346565b6102ff61055f366004612abf565b611490565b6102ff6114a7565b6102f561057a366004612ad7565b6114cb565b6102ff611505565b6102ff611517565b61029761059d3660046128f9565b611529565b6001600160e01b0319811660009081526097602052604090205460ff165b919050565b60ce8054604080516020601f60026000196101006001881615020190951694909404938401819004810282018101909252828152606093909290918301828280156106515780601f1061062657610100808354040283529160200191610651565b820191906000526020600020905b81548152906001019060200180831161063457829003601f168201915b5050505050905090565b600061066682611557565b61068b5760405162461bcd60e51b815260040161068290613358565b60405180910390fd5b50600090815260cc60205260409020546001600160a01b031690565b60006106b282610c99565b9050806001600160a01b0316836001600160a01b031614156106e65760405162461bcd60e51b81526004016106829061356b565b806001600160a01b03166106f8611564565b6001600160a01b0316148061071457506107148161059d611564565b6107305760405162461bcd60e51b81526004016106829061323f565b61073a8383611568565b505050565b600061074b60ca6115d6565b905090565b61076161075b611564565b826115e1565b61077d5760405162461bcd60e51b8152600401610682906135ac565b61073a838383611666565b60009081526065602052604090206002015490565b6000828152606560205260409020600201546107bb90610498611564565b6107d75760405162461bcd60e51b815260040161068290612e09565b6107e18282611762565b5050565b6001600160a01b038216600090815260c96020526040812061080790836117cb565b90505b92915050565b610818611564565b6001600160a01b0316816001600160a01b0316146108485760405162461bcd60e51b8152600401610682906136db565b6107e182826117d7565b61086c600080516020613853833981519152610498611564565b6108885760405162461bcd60e51b815260040161068290613632565b610890611840565b565b61073a83838360405180602001604052806000815250611307565b60fb5460ff16156108d05760405162461bcd60e51b815260040161068290613215565b6108d86127b6565b6108e1826118ac565b905060006108f66108f0611564565b846115e1565b9050600061090a610905611564565b61190d565b80156109325750610919611564565b6001600160a01b031683600001516001600160a01b0316145b9050600061093f85610c99565b9050828061094a5750815b6109665760405162461bcd60e51b815260040161068290612e58565b836040015184606001511461098d5760405162461bcd60e51b8152600401610682906134cb565b6109968561192f565b8484600001516001600160a01b0316826001600160a01b03167fbfa41556980d157c24e8632dbb78958f8759a86b4acdea421f93dc7259fb55db60405160405180910390a45050505050565b600061080783836115e1565b61019260205260009081526040902080546001820154600283015460038401546004909401546001600160a01b0390931693919290919085565b600080610a3660ca84611971565b509392505050565b610a46610f65565b610a625760405162461bcd60e51b815260040161068290613690565b61019154610a78906001600160a01b031661198d565b61019180546001600160a01b0319166001600160a01b03928316179081905560405133927f7c76c17de59691df2ef36af3938c91f69cd18ad27f67a54a38e38686f0b40c4992610aca92911690612c7a565b60405180910390a2565b61019154610aea906001600160a01b0316611a0d565b6001600160a01b0316610afb611564565b6001600160a01b031614610b215760405162461bcd60e51b8152600401610682906133a4565b6001600160a01b0316600090815261019360205260409020600201805460ff19166001179055565b6000610b56610905611564565b610b725760405162461bcd60e51b815260040161068290613071565b60fb5460ff1615610b955760405162461bcd60e51b815260040161068290613215565b6000610b9f611564565b9050610bab8482611a25565b9150610bb78383611ae5565b61019154610bcd906001600160a01b0316611b97565b6001600160a01b0316636efbe643610be3611564565b846040518363ffffffff1660e01b8152600401610c01929190612ccb565b600060405180830381600087803b158015610c1b57600080fd5b505af1158015610c2f573d6000803e3d6000fd5b5050505081816001600160a01b0316846001600160a01b03167f188c6e7ce5cf6a45f5d4441da49a243005c388c7f4f00137378ba3d058baf01d87600001358860200135604051610c81929190613768565b60405180910390a45092915050565b60fb5460ff1690565b600061080a8260405180606001604052806029815260200161382a6029913960ca9190611ba2565b60d18054604080516020601f60026000196101006001881615020190951694909404938401819004810282018101909252828152606093909290918301828280156106515780601f1061062657610100808354040283529160200191610651565b60006001600160a01b038216610d4a5760405162461bcd60e51b815260040161068290613297565b6001600160a01b038216600090815260c96020526040902061080a906115d6565b610191546001600160a01b031681565b610d95600080516020613853833981519152610498611564565b610db15760405162461bcd60e51b815260040161068290613014565b610890611bb9565b610dc16127b6565b61080a826118ac565b600082815260656020526040812061080790836117cb565b60008281526065602052604081206108079083611c12565b60cf8054604080516020601f60026000196101006001881615020190951694909404938401819004810282018101909252828152606093909290918301828280156106515780601f1061062657610100808354040283529160200191610651565b61015f5481565b600081565b610e6f611564565b6001600160a01b0316826001600160a01b03161415610ea05760405162461bcd60e51b8152600401610682906130dc565b8060cd6000610ead611564565b6001600160a01b03908116825260208083019390935260409182016000908120918716808252919093529120805460ff191692151592909217909155610ef1611564565b6001600160a01b03167f17307eab39ab6107e8899845ad3d59bd9653f200f220920489ca2b5937696c3183604051610f299190612d12565b60405180910390a35050565b6101936020526000908152604090208054600182015460029092015490919060ff1683565b600061080a8261190d565b600061074b60008051602061380a833981519152610498611564565b600054610100900460ff1680610f9a5750610f9a611c27565b80610fa8575060005460ff16155b610fc45760405162461bcd60e51b8152600401610682906133e5565b600054610100900460ff16158015610fef576000805460ff1961ff0019909116610100171660011790555b6001600160a01b0383161580159061100f57506001600160a01b03821615155b61102b5760405162461bcd60e51b815260040161068290612ed3565b611033611c2d565b61103b611c2d565b611043611caf565b61109e60405180604001604052806018815260200177476f6c6466696e636820563220506f6f6c20546f6b656e7360401b8152506040518060400160405280600981526020016811d1924b558c8b541560ba1b815250611d2d565b6110a6611df3565b6110ae611c2d565b61019180546001600160a01b0319166001600160a01b0384161790556110e2600080516020613853833981519152846107d7565b6110fa60008051602061380a833981519152846107d7565b61112060008051602061385383398151915260008051602061380a833981519152611e7f565b61113860008051602061380a83398151915280611e7f565b801561073a576000805461ff0019169055505050565b611159610905611564565b6111755760405162461bcd60e51b815260040161068290613071565b60fb5460ff16156111985760405162461bcd60e51b815260040161068290613215565b60008381526101926020526040902080546001600160a01b0316806111cf5760405162461bcd60e51b81526004016106829061310f565b806001600160a01b03166111e1611564565b6001600160a01b0316146112075760405162461bcd60e51b8152600401610682906135fd565b6001600160a01b038116600090815261019360205260409020600181015461122f9086611e94565b60018201819055815410156112565760405162461bcd60e51b815260040161068290613138565b60038301546112659086611e94565b600384018190556002840154101561128f5760405162461bcd60e51b81526004016106829061350e565b600483015461129e9085611e94565b6004840155856001600160a01b0383166112b782610c99565b6001600160a01b03167fda8c6dd3bef4f6eabede38563ec41a960f3fd84ccab769aa77db40494f9eee98888888600101546040516112f79392919061378e565b60405180910390a4505050505050565b611318611312611564565b836115e1565b6113345760405162461bcd60e51b8152600401610682906135ac565b61134084848484611eb9565b50505050565b606061135182611557565b61136d5760405162461bcd60e51b81526004016106829061347c565b600082815260d0602090815260409182902080548351601f60026000196101006001861615020190931692909204918201849004840281018401909452808452606093928301828280156114025780601f106113d757610100808354040283529160200191611402565b820191906000526020600020905b8154815290600101906020018083116113e557829003601f168201915b505060d1549394505050506002600019610100600184161502019091160461142b5790506105c0565b80511561145d5760d181604051602001611446929190612bf9565b6040516020818303038152906040529150506105c0565b60d161146884611eec565b604051602001611479929190612bf9565b604051602081830303815290604052915050919050565b600081815260656020526040812061080a906115d6565b7f9f2df0fed2c77648de5860a4cc508cd0818c85b8b8a1ab4ceeef8d981c8956a681565b6000828152606560205260409020600201546114e990610498611564565b6108485760405162461bcd60e51b8152600401610682906131c5565b60008051602061380a83398151915281565b60008051602061385383398151915281565b6001600160a01b03918216600090815260cd6020908152604080832093909416825291909152205460ff1690565b600061080a60ca83611fc7565b3390565b600081815260cc6020526040902080546001600160a01b0319166001600160a01b038416908117909155819061159d82610c99565b6001600160a01b03167f8c5be1e5ebec7d5bd14f71427d1e84f3dd0314c0f7b2291e5b200ac8c7c3b92560405160405180910390a45050565b600061080a82611fd3565b60006115ec82611557565b6116085760405162461bcd60e51b815260040161068290613179565b600061161383610c99565b9050806001600160a01b0316846001600160a01b0316148061164e5750836001600160a01b03166116438461065b565b6001600160a01b0316145b8061165e575061165e8185611529565b949350505050565b826001600160a01b031661167982610c99565b6001600160a01b03161461169f5760405162461bcd60e51b815260040161068290613433565b6001600160a01b0382166116c55760405162461bcd60e51b815260040161068290613098565b6116d0838383611fd7565b6116db600082611568565b6001600160a01b038316600090815260c9602052604090206116fd90826120c3565b506001600160a01b038216600090815260c96020526040902061172090826120cf565b5061172d60ca82846120db565b5080826001600160a01b0316846001600160a01b031660008051602061387383398151915260405160405180910390a4505050565b600082815260656020526040902061177a90826120f1565b156107e157611787611564565b6001600160a01b0316816001600160a01b0316837f2f8788117e7eff1d82e926ec794901d17c78024a50270940304540a733656f0d60405160405180910390a45050565b60006108078383612106565b60008281526065602052604090206117ef908261214b565b156107e1576117fc611564565b6001600160a01b0316816001600160a01b0316837ff6391f5c32d9c69d2a47ea670b442974b53935d1edc7fd64eb21e047a839171b60405160405180910390a45050565b60fb5460ff166118625760405162461bcd60e51b815260040161068290612ea5565b60fb805460ff191690557f5db9ee0a495bf2e6ff9c91a7834c1ba4fdd244a5e8aa4e537bd38aeae4b073aa611895611564565b6040516118a29190612c7a565b60405180910390a1565b6118b46127b6565b5060009081526101926020908152604091829020825160a08101845281546001600160a01b0316815260018201549281019290925260028101549282019290925260038201546060820152600490910154608082015290565b6001600160a01b03166000908152610193602052604090206002015460ff1690565b60008181526101926020526040812080546001600160a01b03191681556001810182905560028101829055600381018290556004015561196e81612160565b50565b6000808080611980868661221b565b9097909650945050505050565b60006001600160a01b03821663b93f9b0a600b5b6040518263ffffffff1660e01b81526004016119bd9190612d1d565b60206040518083038186803b1580156119d557600080fd5b505afa1580156119e9573d6000803e3d6000fd5b505050506040513d601f19601f8201168201806040525081019061080a91906128dd565b60006001600160a01b03821663b93f9b0a60026119a1565b6001600160a01b038116600090815261019360205260408120611a4961015f612277565b611a5461015f611fd3565b6040805160a0810182526001600160a01b0386811682526020888101358184019081528935848601818152600060608701818152608088018281528a8352610192909652979020955186546001600160a01b031916951694909417855590516001850155915160028401559251600383015591516004909101558254919350611add9190611e94565b905592915050565b6001600160a01b038216611b0b5760405162461bcd60e51b815260040161068290613323565b611b1481611557565b15611b315760405162461bcd60e51b815260040161068290612fa6565b611b3d60008383611fd7565b6001600160a01b038216600090815260c960205260409020611b5f90826120cf565b50611b6c60ca82846120db565b5060405181906001600160a01b03841690600090600080516020613873833981519152908290a45050565b600061080a82612280565b6000611baf848484612298565b90505b9392505050565b60fb5460ff1615611bdc5760405162461bcd60e51b815260040161068290613215565b60fb805460ff191660011790557f62e78cea01bee320cd4e420270b5ea74000d11b0c9f74754ebdbfc544b05a258611895611564565b6000610807836001600160a01b0384166122f7565b303b1590565b600054610100900460ff1680611c465750611c46611c27565b80611c54575060005460ff16155b611c705760405162461bcd60e51b8152600401610682906133e5565b600054610100900460ff16158015611c9b576000805460ff1961ff0019909116610100171660011790555b801561196e576000805461ff001916905550565b600054610100900460ff1680611cc85750611cc8611c27565b80611cd6575060005460ff16155b611cf25760405162461bcd60e51b8152600401610682906133e5565b600054610100900460ff16158015611d1d576000805460ff1961ff0019909116610100171660011790555b611c9b6301ffc9a760e01b61230f565b600054610100900460ff1680611d465750611d46611c27565b80611d54575060005460ff16155b611d705760405162461bcd60e51b8152600401610682906133e5565b600054610100900460ff16158015611d9b576000805460ff1961ff0019909116610100171660011790555b8251611dae9060ce9060208601906127ee565b508151611dc29060cf9060208501906127ee565b50611dd36380ac58cd60e01b61230f565b611de3635b5e139f60e01b61230f565b61113863780e9d6360e01b61230f565b600054610100900460ff1680611e0c5750611e0c611c27565b80611e1a575060005460ff16155b611e365760405162461bcd60e51b8152600401610682906133e5565b600054610100900460ff16158015611e61576000805460ff1961ff0019909116610100171660011790555b60fb805460ff19169055801561196e576000805461ff001916905550565b60009182526065602052604090912060020155565b6000828201838110156108075760405162461bcd60e51b815260040161068290612fdd565b611ec4848484611666565b611ed08484848461235e565b6113405760405162461bcd60e51b815260040161068290612f1d565b606081611f1157506040805180820190915260018152600360fc1b60208201526105c0565b8160005b8115611f2957600101600a82049150611f15565b60608167ffffffffffffffff81118015611f4257600080fd5b506040519080825280601f01601f191660200182016040528015611f6d576020820181803683370190505b50859350905060001982015b8315611fbe57600a840660300160f81b82828060019003935081518110611f9c57fe5b60200101906001600160f81b031916908160001a905350600a84049350611f79565b50949350505050565b600061080783836122f7565b5490565b60fb5460ff1615611ffa5760405162461bcd60e51b815260040161068290613215565b6001600160a01b038216158061209c575061019154612021906001600160a01b0316612498565b6001600160a01b0316633434e749836040518263ffffffff1660e01b815260040161204c9190612c7a565b60206040518083038186803b15801561206457600080fd5b505afa158015612078573d6000803e3d6000fd5b505050506040513d601f19601f8201168201806040525081019061209c9190612aa3565b6120b85760405162461bcd60e51b815260040161068290612d39565b61073a8383836124a3565b600061080783836124ae565b60006108078383612574565b6000611baf84846001600160a01b0385166125be565b6000610807836001600160a01b038416612574565b815460009082106121295760405162461bcd60e51b815260040161068290612d7c565b82600001828154811061213857fe5b9060005260206000200154905092915050565b6000610807836001600160a01b0384166124ae565b600061216b82610c99565b905061217981600084611fd7565b612184600083611568565b600082815260d0602052604090205460026000196101006001841615020190911604156121c257600082815260d0602052604081206121c29161286c565b6001600160a01b038116600090815260c9602052604090206121e490836120c3565b506121f060ca83612655565b5060405182906000906001600160a01b03841690600080516020613873833981519152908390a45050565b8154600090819083106122405760405162461bcd60e51b8152600401610682906132e1565b600084600001848154811061225157fe5b906000526020600020906002020190508060000154816001015492509250509250929050565b80546001019055565b60006001600160a01b03821663b93f9b0a60146119a1565b600082815260018401602052604081205482816122c85760405162461bcd60e51b81526004016106829190612d26565b508460000160018203815481106122db57fe5b9060005260206000209060020201600101549150509392505050565b60009081526001919091016020526040902054151590565b6001600160e01b031980821614156123395760405162461bcd60e51b815260040161068290612f6f565b6001600160e01b0319166000908152609760205260409020805460ff19166001179055565b6000612372846001600160a01b0316612661565b61237e5750600161165e565b600060606001600160a01b038616630a85bd0160e11b61239c611564565b8988886040516024016123b29493929190612c8e565b60408051601f198184030181529181526020820180516001600160e01b03166001600160e01b03199094169390931790925290516123f09190612bdd565b6000604051808303816000865af19150503d806000811461242d576040519150601f19603f3d011682016040523d82523d6000602084013e612432565b606091505b5091509150816124645780511561244c5780518082602001fd5b60405162461bcd60e51b815260040161068290612f1d565b60008180602001905181019061247a9190612b38565b6001600160e01b031916630a85bd0160e11b14935061165e92505050565b600061080a8261269a565b61073a8383836126b2565b6000818152600183016020526040812054801561256a57835460001980830191908101906000908790839081106124e157fe5b90600052602060002001549050808760000184815481106124fe57fe5b60009182526020808320909101929092558281526001898101909252604090209084019055865487908061252e57fe5b6001900381819060005260206000200160009055905586600101600087815260200190815260200160002060009055600194505050505061080a565b600091505061080a565b600061258083836122f7565b6125b65750815460018181018455600084815260208082209093018490558454848252828601909352604090209190915561080a565b50600061080a565b600082815260018401602052604081205480612623575050604080518082018252838152602080820184815286546001818101895560008981528481209551600290930290950191825591519082015586548684528188019092529290912055611bb2565b8285600001600183038154811061263657fe5b9060005260206000209060020201600101819055506000915050611bb2565b600061080783836126e2565b6000813f7fc5d2460186f7233c927e7db2dcc703c0e500b653ca82273b7bfad8045d85a47081811480159061165e575050151592915050565b60006001600160a01b03821663b93f9b0a60136119a1565b6126bd83838361073a565b6126c5610c90565b1561073a5760405162461bcd60e51b815260040161068290612dbe565b6000818152600183016020526040812054801561256a578354600019808301919081019060009087908390811061271557fe5b906000526020600020906002020190508087600001848154811061273557fe5b60009182526020808320845460029093020191825560019384015491840191909155835482528983019052604090209084019055865487908061277457fe5b600082815260208082206002600019909401938402018281556001908101839055929093558881528982019092526040822091909155945061080a9350505050565b6040518060a0016040528060006001600160a01b03168152602001600081526020016000815260200160008152602001600081525090565b828054600181600116156101000203166002900490600052602060002090601f016020900481019282601f1061282f57805160ff191683800117855561285c565b8280016001018555821561285c579182015b8281111561285c578251825591602001919060010190612841565b506128689291506128ac565b5090565b50805460018160011615610100020316600290046000825580601f10612892575061196e565b601f01602090049060005260206000209081019061196e91905b5b8082111561286857600081556001016128ad565b6000602082840312156128d2578081fd5b8135610807816137d0565b6000602082840312156128ee578081fd5b8151610807816137d0565b6000806040838503121561290b578081fd5b8235612916816137d0565b91506020830135612926816137d0565b809150509250929050565b600080600060608486031215612945578081fd5b8335612950816137d0565b92506020840135612960816137d0565b929592945050506040919091013590565b60008060008060808587031215612986578081fd5b8435612991816137d0565b93506020858101356129a2816137d0565b935060408601359250606086013567ffffffffffffffff808211156129c5578384fd5b818801915088601f8301126129d8578384fd5b8135818111156129e6578485fd5b604051601f8201601f1916810185018381118282101715612a05578687fd5b60405281815283820185018b1015612a1b578586fd5b81858501868301379081019093019390935250939692955090935050565b60008060408385031215612a4b578182fd5b8235612a56816137d0565b91506020830135612926816137e5565b6000806040838503121561290b578182fd5b60008060408385031215612a8a578182fd5b8235612a95816137d0565b946020939093013593505050565b600060208284031215612ab4578081fd5b8151610807816137e5565b600060208284031215612ad0578081fd5b5035919050565b60008060408385031215612ae9578182fd5b823591506020830135612926816137d0565b60008060408385031215612b0d578182fd5b50508035926020909101359150565b600060208284031215612b2d578081fd5b8135610807816137f3565b600060208284031215612b49578081fd5b8151610807816137f3565b6000808284036060811215612b67578283fd5b6040811215612b74578283fd5b508291506040830135612926816137d0565b600080600060608486031215612b9a578081fd5b505081359360208301359350604090920135919050565b60008151808452612bc98160208601602086016137a4565b601f01601f19169290920160200192915050565b60008251612bef8184602087016137a4565b9190910192915050565b6000808454600180821660008114612c185760018114612c2f57612c5e565b60ff198316865260028304607f1686019350612c5e565b600283048886526020808720875b83811015612c565781548a820152908501908201612c3d565b505050860193505b5050508351612c718183602088016137a4565b01949350505050565b6001600160a01b0391909116815260200190565b6001600160a01b0385811682528416602082015260408101839052608060608201819052600090612cc190830184612bb1565b9695505050505050565b6001600160a01b03929092168252602082015260400190565b6001600160a01b03959095168552602085019390935260408401919091526060830152608082015260a00190565b901515815260200190565b90815260200190565b6000602082526108076020830184612bb1565b60208082526023908201527f54686973206164647265737320686173206e6f74206265656e20676f2d6c69736040820152621d195960ea1b606082015260800190565b60208082526022908201527f456e756d657261626c655365743a20696e646578206f7574206f6620626f756e604082015261647360f01b606082015260800190565b6020808252602b908201527f4552433732315061757361626c653a20746f6b656e207472616e73666572207760408201526a1a1a5b19481c185d5cd95960aa1b606082015260800190565b6020808252602f908201527f416363657373436f6e74726f6c3a2073656e646572206d75737420626520616e60408201526e0818591b5a5b881d1bc819dc985b9d608a1b606082015260800190565b6020808252602d908201527f4552433732314275726e61626c653a2063616c6c65722063616e6e6f7420627560408201526c3937103a3434b9903a37b5b2b760991b606082015260800190565b60208082526014908201527314185d5cd8589b194e881b9bdd081c185d5cd95960621b604082015260600190565b6020808252602a908201527f4f776e657220616e6420636f6e666967206164647265737365732063616e6e6f6040820152697420626520656d70747960b01b606082015260800190565b60208082526032908201527f4552433732313a207472616e7366657220746f206e6f6e20455243373231526560408201527131b2b4bb32b91034b6b83632b6b2b73a32b960711b606082015260800190565b6020808252601c908201527f4552433136353a20696e76616c696420696e7465726661636520696400000000604082015260600190565b6020808252601c908201527f4552433732313a20746f6b656e20616c7265616479206d696e74656400000000604082015260600190565b6020808252601b908201527f536166654d6174683a206164646974696f6e206f766572666c6f770000000000604082015260600190565b6020808252603e908201527f4552433732315072657365744d696e7465725061757365724175746f49643a2060408201527f6d75737420686176652070617573657220726f6c6520746f2070617573650000606082015260800190565b6020808252600d908201526c496e76616c696420706f6f6c2160981b604082015260600190565b60208082526024908201527f4552433732313a207472616e7366657220746f20746865207a65726f206164646040820152637265737360e01b606082015260800190565b60208082526019908201527822a9219b99189d1030b8383937bb32903a379031b0b63632b960391b604082015260600190565b6020808252600f908201526e125b9d985b1a59081d1bdad95b9259608a1b604082015260600190565b60208082526021908201527f43616e6e6f742072656465656d206d6f7265207468616e207765206d696e74656040820152601960fa1b606082015260800190565b6020808252602c908201527f4552433732313a206f70657261746f7220717565727920666f72206e6f6e657860408201526b34b9ba32b73a103a37b5b2b760a11b606082015260800190565b60208082526030908201527f416363657373436f6e74726f6c3a2073656e646572206d75737420626520616e60408201526f2061646d696e20746f207265766f6b6560801b606082015260800190565b60208082526010908201526f14185d5cd8589b194e881c185d5cd95960821b604082015260600190565b60208082526038908201527f4552433732313a20617070726f76652063616c6c6572206973206e6f74206f776040820152771b995c881b9bdc88185c1c1c9bdd995908199bdc88185b1b60421b606082015260800190565b6020808252602a908201527f4552433732313a2062616c616e636520717565727920666f7220746865207a65604082015269726f206164647265737360b01b606082015260800190565b60208082526022908201527f456e756d657261626c654d61703a20696e646578206f7574206f6620626f756e604082015261647360f01b606082015260800190565b6020808252818101527f4552433732313a206d696e7420746f20746865207a65726f2061646472657373604082015260600190565b6020808252602c908201527f4552433732313a20617070726f76656420717565727920666f72206e6f6e657860408201526b34b9ba32b73a103a37b5b2b760a11b606082015260800190565b60208082526021908201527f4f6e6c7920476f6c6466696e636820666163746f727920697320616c6c6f77656040820152601960fa1b606082015260800190565b6020808252602e908201527f436f6e747261637420696e7374616e63652068617320616c726561647920626560408201526d195b881a5b9a5d1a585b1a5e995960921b606082015260800190565b60208082526029908201527f4552433732313a207472616e73666572206f6620746f6b656e2074686174206960408201526839903737ba1037bbb760b91b606082015260800190565b6020808252602f908201527f4552433732314d657461646174613a2055524920717565727920666f72206e6f60408201526e3732bc34b9ba32b73a103a37b5b2b760891b606082015260800190565b60208082526023908201527f43616e206f6e6c79206275726e2066756c6c792072656465656d656420746f6b604082015262656e7360e81b606082015260800190565b6020808252603c908201527f43616e6e6f742072656465656d206d6f7265207468616e207072696e6369706160408201527f6c2d6465706f736974656420616d6f756e7420666f7220746f6b656e00000000606082015260800190565b60208082526021908201527f4552433732313a20617070726f76616c20746f2063757272656e74206f776e656040820152603960f91b606082015260800190565b60208082526031908201527f4552433732313a207472616e736665722063616c6c6572206973206e6f74206f6040820152701ddb995c881b9bdc88185c1c1c9bdd9959607a1b606082015260800190565b6020808252818101527f4f6e6c792074686520746f6b656e277320706f6f6c2063616e2072656465656d604082015260600190565b602080825260409082018190527f4552433732315072657365744d696e7465725061757365724175746f49643a20908201527f6d75737420686176652070617573657220726f6c6520746f20756e7061757365606082015260800190565b6020808252602b908201527f4d75737420686176652061646d696e20726f6c6520746f20706572666f726d2060408201526a3a3434b99030b1ba34b7b760a91b606082015260800190565b6020808252602f908201527f416363657373436f6e74726f6c3a2063616e206f6e6c792072656e6f756e636560408201526e103937b632b9903337b91039b2b63360891b606082015260800190565b81516001600160a01b031681526020808301519082015260408083015190820152606080830151908201526080918201519181019190915260a00190565b918252602082015260400190565b92835260208301919091521515604082015260600190565b9283526020830191909152604082015260600190565b60005b838110156137bf5781810151838201526020016137a7565b838111156113405750506000910152565b6001600160a01b038116811461196e57600080fd5b801515811461196e57600080fd5b6001600160e01b03198116811461196e57600080fdfeb19546dff01e856fb3f010c267a7b1c60363cf8a4664e21cc89c26224620214e4552433732313a206f776e657220717565727920666f72206e6f6e6578697374656e7420746f6b656e65d7a28e3265b37a6474929f336521b332c1681b933f6cb9f3376673440d862addf252ad1be2c89b69c2b068fc378daa952ba7f163c4a11628f55a4df523b3efa2646970667358221220e8307b928845ce080b8b3743e24492389d371cc5482b7fe91d8065f364907bcb64736f6c634300060c0033",
  "devdoc": {
    "author": "Goldfinch",
    "kind": "dev",
    "methods": {
      "approve(address,uint256)": {
        "details": "Approves another address to transfer the given token ID The zero address indicates there is no approved address. There can only be one approved address per token at a given time. Can only be called by the token owner or an approved operator.",
        "params": {
          "to": "address to be approved for the given token ID",
          "tokenId": "uint256 ID of the token to be approved"
        }
      },
      "balanceOf(address)": {
        "details": "Gets the balance of the specified address.",
        "params": {
          "owner": "address to query the balance of"
        },
        "returns": {
          "_0": "uint256 representing the amount owned by the passed address"
        }
      },
      "baseURI()": {
        "details": "Returns the base URI set via {_setBaseURI}. This will be automatically added as a prefix in {tokenURI} to each token's URI, or to the token ID if no specific URI is set for that token ID."
      },
      "burn(uint256)": {
        "details": "Burns a specific ERC721 token, and removes the data from our mappings",
        "params": {
          "tokenId": "uint256 id of the ERC721 token to be burned."
        }
      },
      "getApproved(uint256)": {
        "details": "Gets the approved address for a token ID, or zero if no address set Reverts if the token ID does not exist.",
        "params": {
          "tokenId": "uint256 ID of the token to query the approval of"
        },
        "returns": {
          "_0": "address currently approved for the given token ID"
        }
      },
      "getRoleAdmin(bytes32)": {
        "details": "Returns the admin role that controls `role`. See {grantRole} and {revokeRole}. To change a role's admin, use {_setRoleAdmin}."
      },
      "getRoleMember(bytes32,uint256)": {
        "details": "Returns one of the accounts that have `role`. `index` must be a value between 0 and {getRoleMemberCount}, non-inclusive. Role bearers are not sorted in any particular way, and their ordering may change at any point. WARNING: When using {getRoleMember} and {getRoleMemberCount}, make sure you perform all queries on the same block. See the following https://forum.openzeppelin.com/t/iterating-over-elements-on-enumerableset-in-openzeppelin-contracts/2296[forum post] for more information."
      },
      "getRoleMemberCount(bytes32)": {
        "details": "Returns the number of accounts that have `role`. Can be used together with {getRoleMember} to enumerate all bearers of a role."
      },
      "grantRole(bytes32,address)": {
        "details": "Grants `role` to `account`. If `account` had not been already granted `role`, emits a {RoleGranted} event. Requirements: - the caller must have ``role``'s admin role."
      },
      "hasRole(bytes32,address)": {
        "details": "Returns `true` if `account` has been granted `role`."
      },
      "isApprovedForAll(address,address)": {
        "details": "Tells whether an operator is approved by a given owner.",
        "params": {
          "operator": "operator address which you want to query the approval of",
          "owner": "owner address which you want to query the approval of"
        },
        "returns": {
          "_0": "bool whether the given operator is approved by the given owner"
        }
      },
      "isApprovedOrOwner(address,uint256)": {
        "params": {
          "spender": "The address to check",
          "tokenId": "The token id to check for"
        },
        "returns": {
          "_0": "True if approved to redeem/transfer/burn the token, false if not"
        }
      },
      "mint((uint256,uint256),address)": {
        "params": {
          "params": "Struct containing the tranche and the amount",
          "to": "The address that should own the position"
        },
        "returns": {
          "tokenId": "The token ID (auto-incrementing integer across all pools)"
        }
      },
      "name()": {
        "details": "Gets the token name.",
        "returns": {
          "_0": "string representing the token name"
        }
      },
      "onPoolCreated(address)": {
        "params": {
          "newPool": "The address of the newly created pool"
        }
      },
      "ownerOf(uint256)": {
        "details": "Gets the owner of the specified token ID.",
        "params": {
          "tokenId": "uint256 ID of the token to query the owner of"
        },
        "returns": {
          "_0": "address currently marked as the owner of the given token ID"
        }
      },
      "pause()": {
        "details": "Pauses all token transfers. See {ERC721Pausable} and {Pausable-_pause}. Requirements: - the caller must have the `PAUSER_ROLE`."
      },
      "paused()": {
        "details": "Returns true if the contract is paused, and false otherwise."
      },
      "redeem(uint256,uint256,uint256)": {
        "params": {
          "interestRedeemed": "The incremental amount of interest redeemed",
          "principalRedeemed": "The incremental amount of principal redeemed (cannot be more than principal deposited)",
          "tokenId": "The token id to update (must be owned by the pool calling this function)"
        }
      },
      "renounceRole(bytes32,address)": {
        "details": "Revokes `role` from the calling account. Roles are often managed via {grantRole} and {revokeRole}: this function's purpose is to provide a mechanism for accounts to lose their privileges if they are compromised (such as when a trusted device is misplaced). If the calling account had been granted `role`, emits a {RoleRevoked} event. Requirements: - the caller must be `account`."
      },
      "revokeRole(bytes32,address)": {
        "details": "Revokes `role` from `account`. If `account` had been granted `role`, emits a {RoleRevoked} event. Requirements: - the caller must have ``role``'s admin role."
      },
      "safeTransferFrom(address,address,uint256)": {
        "details": "Safely transfers the ownership of a given token ID to another address If the target address is a contract, it must implement {IERC721Receiver-onERC721Received}, which is called upon a safe transfer, and return the magic value `bytes4(keccak256(\"onERC721Received(address,address,uint256,bytes)\"))`; otherwise, the transfer is reverted. Requires the msg.sender to be the owner, approved, or operator",
        "params": {
          "from": "current owner of the token",
          "to": "address to receive the ownership of the given token ID",
          "tokenId": "uint256 ID of the token to be transferred"
        }
      },
      "safeTransferFrom(address,address,uint256,bytes)": {
        "details": "Safely transfers the ownership of a given token ID to another address If the target address is a contract, it must implement {IERC721Receiver-onERC721Received}, which is called upon a safe transfer, and return the magic value `bytes4(keccak256(\"onERC721Received(address,address,uint256,bytes)\"))`; otherwise, the transfer is reverted. Requires the _msgSender() to be the owner, approved, or operator",
        "params": {
          "_data": "bytes data to send along with a safe transfer check",
          "from": "current owner of the token",
          "to": "address to receive the ownership of the given token ID",
          "tokenId": "uint256 ID of the token to be transferred"
        }
      },
      "setApprovalForAll(address,bool)": {
        "details": "Sets or unsets the approval of a given operator An operator is allowed to transfer all tokens of the sender on their behalf.",
        "params": {
          "approved": "representing the status of the approval to be set",
          "operator": "operator address to set the approval"
        }
      },
      "supportsInterface(bytes4)": {
        "details": "See {IERC165-supportsInterface}. Time complexity O(1), guaranteed to always use less than 30 000 gas."
      },
      "symbol()": {
        "details": "Gets the token symbol.",
        "returns": {
          "_0": "string representing the token symbol"
        }
      },
      "tokenByIndex(uint256)": {
        "details": "Gets the token ID at a given index of all the tokens in this contract Reverts if the index is greater or equal to the total number of tokens.",
        "params": {
          "index": "uint256 representing the index to be accessed of the tokens list"
        },
        "returns": {
          "_0": "uint256 token ID at the given index of the tokens list"
        }
      },
      "tokenOfOwnerByIndex(address,uint256)": {
        "details": "Gets the token ID at a given index of the tokens list of the requested owner.",
        "params": {
          "index": "uint256 representing the index to be accessed of the requested tokens list",
          "owner": "address owning the tokens list to be accessed"
        },
        "returns": {
          "_0": "uint256 token ID at the given index of the tokens list owned by the requested address"
        }
      },
      "tokenURI(uint256)": {
        "details": "Returns the URI for a given token ID. May return an empty string. If a base URI is set (via {_setBaseURI}), it is added as a prefix to the token's own URI (via {_setTokenURI}). If there is a base URI but no token URI, the token's ID will be used as its URI when appending it to the base URI. This pattern for autogenerated token URIs can lead to large gas savings. .Examples |=== |`_setBaseURI()` |`_setTokenURI()` |`tokenURI()` | \"\" | \"\" | \"\" | \"\" | \"token.uri/123\" | \"token.uri/123\" | \"token.uri/\" | \"123\" | \"token.uri/123\" | \"token.uri/\" | \"\" | \"token.uri/<tokenId>\" |=== Requirements: - `tokenId` must exist."
      },
      "totalSupply()": {
        "details": "Gets the total amount of tokens stored by the contract.",
        "returns": {
          "_0": "uint256 representing the total amount of tokens"
        }
      },
      "transferFrom(address,address,uint256)": {
        "details": "Transfers the ownership of a given token ID to another address. Usage of this method is discouraged, use {safeTransferFrom} whenever possible. Requires the msg.sender to be the owner, approved, or operator.",
        "params": {
          "from": "current owner of the token",
          "to": "address to receive the ownership of the given token ID",
          "tokenId": "uint256 ID of the token to be transferred"
        }
      },
      "unpause()": {
        "details": "Unpauses all token transfers. See {ERC721Pausable} and {Pausable-_unpause}. Requirements: - the caller must have the `PAUSER_ROLE`."
      }
    },
    "title": "PoolTokens",
    "version": 1
  },
  "userdoc": {
    "kind": "user",
    "methods": {
      "isApprovedOrOwner(address,uint256)": {
        "notice": "Returns a boolean representing whether the spender is the owner or the approved spender of the token"
      },
      "mint((uint256,uint256),address)": {
        "notice": "Called by pool to create a debt position in a particular tranche and amount"
      },
      "onPoolCreated(address)": {
        "notice": "Called by the GoldfinchFactory to register the pool as a valid pool. Only valid pools can mint/redeem tokens"
      },
      "redeem(uint256,uint256,uint256)": {
        "notice": "Updates a token to reflect the principal and interest amounts that have been redeemed."
      },
      "updateGoldfinchConfig()": {
        "notice": "Migrates to a new goldfinch config address"
      }
    },
    "notice": "PoolTokens is an ERC721 compliant contract, which can represent  junior tranche or senior tranche shares of any of the borrower pools.",
    "version": 1
  },
  "storageLayout": {
    "storage": [
      {
        "astId": 151,
        "contract": "contracts/protocol/core/PoolTokens.sol:PoolTokens",
        "label": "initialized",
        "offset": 0,
        "slot": "0",
        "type": "t_bool"
      },
      {
        "astId": 154,
        "contract": "contracts/protocol/core/PoolTokens.sol:PoolTokens",
        "label": "initializing",
        "offset": 1,
        "slot": "0",
        "type": "t_bool"
      },
      {
        "astId": 219,
        "contract": "contracts/protocol/core/PoolTokens.sol:PoolTokens",
        "label": "______gap",
        "offset": 0,
        "slot": "1",
        "type": "t_array(t_uint256)50_storage"
      },
      {
        "astId": 144,
        "contract": "contracts/protocol/core/PoolTokens.sol:PoolTokens",
        "label": "__gap",
        "offset": 0,
        "slot": "51",
        "type": "t_array(t_uint256)50_storage"
      },
      {
        "astId": 264,
        "contract": "contracts/protocol/core/PoolTokens.sol:PoolTokens",
        "label": "_roles",
        "offset": 0,
        "slot": "101",
        "type": "t_mapping(t_bytes32,t_struct(RoleData)260_storage)"
      },
      {
        "astId": 509,
        "contract": "contracts/protocol/core/PoolTokens.sol:PoolTokens",
        "label": "__gap",
        "offset": 0,
        "slot": "102",
        "type": "t_array(t_uint256)49_storage"
      },
      {
        "astId": 527,
        "contract": "contracts/protocol/core/PoolTokens.sol:PoolTokens",
        "label": "_supportedInterfaces",
        "offset": 0,
        "slot": "151",
        "type": "t_mapping(t_bytes4,t_bool)"
      },
      {
        "astId": 584,
        "contract": "contracts/protocol/core/PoolTokens.sol:PoolTokens",
        "label": "__gap",
        "offset": 0,
        "slot": "152",
        "type": "t_array(t_uint256)49_storage"
      },
      {
        "astId": 2269,
        "contract": "contracts/protocol/core/PoolTokens.sol:PoolTokens",
        "label": "_holderTokens",
        "offset": 0,
        "slot": "201",
        "type": "t_mapping(t_address,t_struct(UintSet)4313_storage)"
      },
      {
        "astId": 2271,
        "contract": "contracts/protocol/core/PoolTokens.sol:PoolTokens",
        "label": "_tokenOwners",
        "offset": 0,
        "slot": "202",
        "type": "t_struct(UintToAddressMap)3838_storage"
      },
      {
        "astId": 2275,
        "contract": "contracts/protocol/core/PoolTokens.sol:PoolTokens",
        "label": "_tokenApprovals",
        "offset": 0,
        "slot": "204",
        "type": "t_mapping(t_uint256,t_address)"
      },
      {
        "astId": 2281,
        "contract": "contracts/protocol/core/PoolTokens.sol:PoolTokens",
        "label": "_operatorApprovals",
        "offset": 0,
        "slot": "205",
        "type": "t_mapping(t_address,t_mapping(t_address,t_bool))"
      },
      {
        "astId": 2283,
        "contract": "contracts/protocol/core/PoolTokens.sol:PoolTokens",
        "label": "_name",
        "offset": 0,
        "slot": "206",
        "type": "t_string_storage"
      },
      {
        "astId": 2285,
        "contract": "contracts/protocol/core/PoolTokens.sol:PoolTokens",
        "label": "_symbol",
        "offset": 0,
        "slot": "207",
        "type": "t_string_storage"
      },
      {
        "astId": 2289,
        "contract": "contracts/protocol/core/PoolTokens.sol:PoolTokens",
        "label": "_tokenURIs",
        "offset": 0,
        "slot": "208",
        "type": "t_mapping(t_uint256,t_string_storage)"
      },
      {
        "astId": 2291,
        "contract": "contracts/protocol/core/PoolTokens.sol:PoolTokens",
        "label": "_baseURI",
        "offset": 0,
        "slot": "209",
        "type": "t_string_storage"
      },
      {
        "astId": 3197,
        "contract": "contracts/protocol/core/PoolTokens.sol:PoolTokens",
        "label": "__gap",
        "offset": 0,
        "slot": "210",
        "type": "t_array(t_uint256)41_storage"
      },
      {
        "astId": 4429,
        "contract": "contracts/protocol/core/PoolTokens.sol:PoolTokens",
        "label": "_paused",
        "offset": 0,
        "slot": "251",
        "type": "t_bool"
      },
      {
        "astId": 4518,
        "contract": "contracts/protocol/core/PoolTokens.sol:PoolTokens",
        "label": "__gap",
        "offset": 0,
        "slot": "252",
        "type": "t_array(t_uint256)49_storage"
      },
      {
        "astId": 3265,
        "contract": "contracts/protocol/core/PoolTokens.sol:PoolTokens",
        "label": "__gap",
        "offset": 0,
        "slot": "301",
        "type": "t_array(t_uint256)50_storage"
      },
      {
        "astId": 7677,
        "contract": "contracts/protocol/core/PoolTokens.sol:PoolTokens",
        "label": "_tokenIdTracker",
        "offset": 0,
        "slot": "351",
        "type": "t_struct(Counter)3518_storage"
      },
      {
        "astId": 7735,
        "contract": "contracts/protocol/core/PoolTokens.sol:PoolTokens",
        "label": "__gap",
        "offset": 0,
        "slot": "352",
        "type": "t_array(t_uint256)49_storage"
      },
      {
        "astId": 19704,
        "contract": "contracts/protocol/core/PoolTokens.sol:PoolTokens",
        "label": "config",
        "offset": 0,
        "slot": "401",
        "type": "t_contract(GoldfinchConfig)17304"
      },
      {
        "astId": 19718,
        "contract": "contracts/protocol/core/PoolTokens.sol:PoolTokens",
        "label": "tokens",
        "offset": 0,
        "slot": "402",
        "type": "t_mapping(t_uint256,t_struct(TokenInfo)10129_storage)"
      },
      {
        "astId": 19722,
        "contract": "contracts/protocol/core/PoolTokens.sol:PoolTokens",
        "label": "pools",
        "offset": 0,
        "slot": "403",
        "type": "t_mapping(t_address,t_struct(PoolInfo)19714_storage)"
      }
    ],
    "types": {
      "t_address": {
        "encoding": "inplace",
        "label": "address",
        "numberOfBytes": "20"
      },
      "t_array(t_bytes32)dyn_storage": {
        "base": "t_bytes32",
        "encoding": "dynamic_array",
        "label": "bytes32[]",
        "numberOfBytes": "32"
      },
      "t_array(t_struct(MapEntry)3566_storage)dyn_storage": {
        "base": "t_struct(MapEntry)3566_storage",
        "encoding": "dynamic_array",
        "label": "struct EnumerableMap.MapEntry[]",
        "numberOfBytes": "32"
      },
      "t_array(t_uint256)41_storage": {
        "base": "t_uint256",
        "encoding": "inplace",
        "label": "uint256[41]",
        "numberOfBytes": "1312"
      },
      "t_array(t_uint256)49_storage": {
        "base": "t_uint256",
        "encoding": "inplace",
        "label": "uint256[49]",
        "numberOfBytes": "1568"
      },
      "t_array(t_uint256)50_storage": {
        "base": "t_uint256",
        "encoding": "inplace",
        "label": "uint256[50]",
        "numberOfBytes": "1600"
      },
      "t_bool": {
        "encoding": "inplace",
        "label": "bool",
        "numberOfBytes": "1"
      },
      "t_bytes32": {
        "encoding": "inplace",
        "label": "bytes32",
        "numberOfBytes": "32"
      },
      "t_bytes4": {
        "encoding": "inplace",
        "label": "bytes4",
        "numberOfBytes": "4"
      },
      "t_contract(GoldfinchConfig)17304": {
        "encoding": "inplace",
        "label": "contract GoldfinchConfig",
        "numberOfBytes": "20"
      },
      "t_mapping(t_address,t_bool)": {
        "encoding": "mapping",
        "key": "t_address",
        "label": "mapping(address => bool)",
        "numberOfBytes": "32",
        "value": "t_bool"
      },
      "t_mapping(t_address,t_mapping(t_address,t_bool))": {
        "encoding": "mapping",
        "key": "t_address",
        "label": "mapping(address => mapping(address => bool))",
        "numberOfBytes": "32",
        "value": "t_mapping(t_address,t_bool)"
      },
      "t_mapping(t_address,t_struct(PoolInfo)19714_storage)": {
        "encoding": "mapping",
        "key": "t_address",
        "label": "mapping(address => struct PoolTokens.PoolInfo)",
        "numberOfBytes": "32",
        "value": "t_struct(PoolInfo)19714_storage"
      },
      "t_mapping(t_address,t_struct(UintSet)4313_storage)": {
        "encoding": "mapping",
        "key": "t_address",
        "label": "mapping(address => struct EnumerableSet.UintSet)",
        "numberOfBytes": "32",
        "value": "t_struct(UintSet)4313_storage"
      },
      "t_mapping(t_bytes32,t_struct(RoleData)260_storage)": {
        "encoding": "mapping",
        "key": "t_bytes32",
        "label": "mapping(bytes32 => struct AccessControlUpgradeSafe.RoleData)",
        "numberOfBytes": "32",
        "value": "t_struct(RoleData)260_storage"
      },
      "t_mapping(t_bytes32,t_uint256)": {
        "encoding": "mapping",
        "key": "t_bytes32",
        "label": "mapping(bytes32 => uint256)",
        "numberOfBytes": "32",
        "value": "t_uint256"
      },
      "t_mapping(t_bytes4,t_bool)": {
        "encoding": "mapping",
        "key": "t_bytes4",
        "label": "mapping(bytes4 => bool)",
        "numberOfBytes": "32",
        "value": "t_bool"
      },
      "t_mapping(t_uint256,t_address)": {
        "encoding": "mapping",
        "key": "t_uint256",
        "label": "mapping(uint256 => address)",
        "numberOfBytes": "32",
        "value": "t_address"
      },
      "t_mapping(t_uint256,t_string_storage)": {
        "encoding": "mapping",
        "key": "t_uint256",
        "label": "mapping(uint256 => string)",
        "numberOfBytes": "32",
        "value": "t_string_storage"
      },
      "t_mapping(t_uint256,t_struct(TokenInfo)10129_storage)": {
        "encoding": "mapping",
        "key": "t_uint256",
        "label": "mapping(uint256 => struct IPoolTokens.TokenInfo)",
        "numberOfBytes": "32",
        "value": "t_struct(TokenInfo)10129_storage"
      },
      "t_string_storage": {
        "encoding": "bytes",
        "label": "string",
        "numberOfBytes": "32"
      },
      "t_struct(AddressSet)4204_storage": {
        "encoding": "inplace",
        "label": "struct EnumerableSet.AddressSet",
        "members": [
          {
            "astId": 4203,
            "contract": "contracts/protocol/core/PoolTokens.sol:PoolTokens",
            "label": "_inner",
            "offset": 0,
            "slot": "0",
            "type": "t_struct(Set)4024_storage"
          }
        ],
        "numberOfBytes": "64"
      },
      "t_struct(Counter)3518_storage": {
        "encoding": "inplace",
        "label": "struct Counters.Counter",
        "members": [
          {
            "astId": 3517,
            "contract": "contracts/protocol/core/PoolTokens.sol:PoolTokens",
            "label": "_value",
            "offset": 0,
            "slot": "0",
            "type": "t_uint256"
          }
        ],
        "numberOfBytes": "32"
      },
      "t_struct(Map)3574_storage": {
        "encoding": "inplace",
        "label": "struct EnumerableMap.Map",
        "members": [
          {
            "astId": 3569,
            "contract": "contracts/protocol/core/PoolTokens.sol:PoolTokens",
            "label": "_entries",
            "offset": 0,
            "slot": "0",
            "type": "t_array(t_struct(MapEntry)3566_storage)dyn_storage"
          },
          {
            "astId": 3573,
            "contract": "contracts/protocol/core/PoolTokens.sol:PoolTokens",
            "label": "_indexes",
            "offset": 0,
            "slot": "1",
            "type": "t_mapping(t_bytes32,t_uint256)"
          }
        ],
        "numberOfBytes": "64"
      },
      "t_struct(MapEntry)3566_storage": {
        "encoding": "inplace",
        "label": "struct EnumerableMap.MapEntry",
        "members": [
          {
            "astId": 3563,
            "contract": "contracts/protocol/core/PoolTokens.sol:PoolTokens",
            "label": "_key",
            "offset": 0,
            "slot": "0",
            "type": "t_bytes32"
          },
          {
            "astId": 3565,
            "contract": "contracts/protocol/core/PoolTokens.sol:PoolTokens",
            "label": "_value",
            "offset": 0,
            "slot": "1",
            "type": "t_bytes32"
          }
        ],
        "numberOfBytes": "64"
      },
      "t_struct(PoolInfo)19714_storage": {
        "encoding": "inplace",
        "label": "struct PoolTokens.PoolInfo",
        "members": [
          {
            "astId": 19709,
            "contract": "contracts/protocol/core/PoolTokens.sol:PoolTokens",
            "label": "totalMinted",
            "offset": 0,
            "slot": "0",
            "type": "t_uint256"
          },
          {
            "astId": 19711,
            "contract": "contracts/protocol/core/PoolTokens.sol:PoolTokens",
            "label": "totalPrincipalRedeemed",
            "offset": 0,
            "slot": "1",
            "type": "t_uint256"
          },
          {
            "astId": 19713,
            "contract": "contracts/protocol/core/PoolTokens.sol:PoolTokens",
            "label": "created",
            "offset": 0,
            "slot": "2",
            "type": "t_bool"
          }
        ],
        "numberOfBytes": "96"
      },
      "t_struct(RoleData)260_storage": {
        "encoding": "inplace",
        "label": "struct AccessControlUpgradeSafe.RoleData",
        "members": [
          {
            "astId": 257,
            "contract": "contracts/protocol/core/PoolTokens.sol:PoolTokens",
            "label": "members",
            "offset": 0,
            "slot": "0",
            "type": "t_struct(AddressSet)4204_storage"
          },
          {
            "astId": 259,
            "contract": "contracts/protocol/core/PoolTokens.sol:PoolTokens",
            "label": "adminRole",
            "offset": 0,
            "slot": "2",
            "type": "t_bytes32"
          }
        ],
        "numberOfBytes": "96"
      },
      "t_struct(Set)4024_storage": {
        "encoding": "inplace",
        "label": "struct EnumerableSet.Set",
        "members": [
          {
            "astId": 4019,
            "contract": "contracts/protocol/core/PoolTokens.sol:PoolTokens",
            "label": "_values",
            "offset": 0,
            "slot": "0",
            "type": "t_array(t_bytes32)dyn_storage"
          },
          {
            "astId": 4023,
            "contract": "contracts/protocol/core/PoolTokens.sol:PoolTokens",
            "label": "_indexes",
            "offset": 0,
            "slot": "1",
            "type": "t_mapping(t_bytes32,t_uint256)"
          }
        ],
        "numberOfBytes": "64"
      },
      "t_struct(TokenInfo)10129_storage": {
        "encoding": "inplace",
        "label": "struct IPoolTokens.TokenInfo",
        "members": [
          {
            "astId": 10120,
            "contract": "contracts/protocol/core/PoolTokens.sol:PoolTokens",
            "label": "pool",
            "offset": 0,
            "slot": "0",
            "type": "t_address"
          },
          {
            "astId": 10122,
            "contract": "contracts/protocol/core/PoolTokens.sol:PoolTokens",
            "label": "tranche",
            "offset": 0,
            "slot": "1",
            "type": "t_uint256"
          },
          {
            "astId": 10124,
            "contract": "contracts/protocol/core/PoolTokens.sol:PoolTokens",
            "label": "principalAmount",
            "offset": 0,
            "slot": "2",
            "type": "t_uint256"
          },
          {
            "astId": 10126,
            "contract": "contracts/protocol/core/PoolTokens.sol:PoolTokens",
            "label": "principalRedeemed",
            "offset": 0,
            "slot": "3",
            "type": "t_uint256"
          },
          {
            "astId": 10128,
            "contract": "contracts/protocol/core/PoolTokens.sol:PoolTokens",
            "label": "interestRedeemed",
            "offset": 0,
            "slot": "4",
            "type": "t_uint256"
          }
        ],
        "numberOfBytes": "160"
      },
      "t_struct(UintSet)4313_storage": {
        "encoding": "inplace",
        "label": "struct EnumerableSet.UintSet",
        "members": [
          {
            "astId": 4312,
            "contract": "contracts/protocol/core/PoolTokens.sol:PoolTokens",
            "label": "_inner",
            "offset": 0,
            "slot": "0",
            "type": "t_struct(Set)4024_storage"
          }
        ],
        "numberOfBytes": "64"
      },
      "t_struct(UintToAddressMap)3838_storage": {
        "encoding": "inplace",
        "label": "struct EnumerableMap.UintToAddressMap",
        "members": [
          {
            "astId": 3837,
            "contract": "contracts/protocol/core/PoolTokens.sol:PoolTokens",
            "label": "_inner",
            "offset": 0,
            "slot": "0",
            "type": "t_struct(Map)3574_storage"
          }
        ],
        "numberOfBytes": "64"
      },
      "t_uint256": {
        "encoding": "inplace",
        "label": "uint256",
        "numberOfBytes": "32"
      }
    }
  }
}