{
  "address": "0xC124723AdDd8cfe67F7538E4d4D26B9796AdDA48",
  "abi": [
    {
      "anonymous": false,
      "inputs": [
        {
          "indexed": true,
          "internalType": "address",
          "name": "capitalProvider",
          "type": "address"
        },
        {
          "indexed": false,
          "internalType": "uint256",
          "name": "amount",
          "type": "uint256"
        },
        {
          "indexed": false,
          "internalType": "uint256",
          "name": "shares",
          "type": "uint256"
        }
      ],
      "name": "DepositMade",
      "type": "event"
    },
    {
      "anonymous": false,
      "inputs": [
        {
          "indexed": true,
          "internalType": "address",
          "name": "who",
          "type": "address"
        },
        {
          "indexed": false,
          "internalType": "address",
          "name": "configAddress",
          "type": "address"
        }
      ],
      "name": "GoldfinchConfigUpdated",
      "type": "event"
    },
    {
      "anonymous": false,
      "inputs": [
        {
          "indexed": true,
          "internalType": "address",
          "name": "payer",
          "type": "address"
        },
        {
          "indexed": false,
          "internalType": "uint256",
          "name": "amount",
          "type": "uint256"
        }
      ],
      "name": "InterestCollected",
      "type": "event"
    },
    {
      "anonymous": false,
      "inputs": [
        {
          "indexed": true,
          "internalType": "address",
          "name": "tranchedPool",
          "type": "address"
        },
        {
          "indexed": false,
          "internalType": "uint256",
          "name": "amount",
          "type": "uint256"
        }
      ],
      "name": "InvestmentMadeInJunior",
      "type": "event"
    },
    {
      "anonymous": false,
      "inputs": [
        {
          "indexed": true,
          "internalType": "address",
          "name": "tranchedPool",
          "type": "address"
        },
        {
          "indexed": false,
          "internalType": "uint256",
          "name": "amount",
          "type": "uint256"
        }
      ],
      "name": "InvestmentMadeInSenior",
      "type": "event"
    },
    {
      "anonymous": false,
      "inputs": [
        {
          "indexed": false,
          "internalType": "address",
          "name": "account",
          "type": "address"
        }
      ],
      "name": "Paused",
      "type": "event"
    },
    {
      "anonymous": false,
      "inputs": [
        {
          "indexed": true,
          "internalType": "address",
          "name": "payer",
          "type": "address"
        },
        {
          "indexed": false,
          "internalType": "uint256",
          "name": "amount",
          "type": "uint256"
        }
      ],
      "name": "PrincipalCollected",
      "type": "event"
    },
    {
      "anonymous": false,
      "inputs": [
        {
          "indexed": true,
          "internalType": "address",
          "name": "tranchedPool",
          "type": "address"
        },
        {
          "indexed": false,
          "internalType": "int256",
          "name": "amount",
          "type": "int256"
        }
      ],
      "name": "PrincipalWrittenDown",
      "type": "event"
    },
    {
      "anonymous": false,
      "inputs": [
        {
          "indexed": true,
          "internalType": "address",
          "name": "user",
          "type": "address"
        },
        {
          "indexed": false,
          "internalType": "uint256",
          "name": "amount",
          "type": "uint256"
        }
      ],
      "name": "ReserveFundsCollected",
      "type": "event"
    },
    {
      "anonymous": false,
      "inputs": [
        {
          "indexed": true,
          "internalType": "bytes32",
          "name": "role",
          "type": "bytes32"
        },
        {
          "indexed": true,
          "internalType": "address",
          "name": "account",
          "type": "address"
        },
        {
          "indexed": true,
          "internalType": "address",
          "name": "sender",
          "type": "address"
        }
      ],
      "name": "RoleGranted",
      "type": "event"
    },
    {
      "anonymous": false,
      "inputs": [
        {
          "indexed": true,
          "internalType": "bytes32",
          "name": "role",
          "type": "bytes32"
        },
        {
          "indexed": true,
          "internalType": "address",
          "name": "account",
          "type": "address"
        },
        {
          "indexed": true,
          "internalType": "address",
          "name": "sender",
          "type": "address"
        }
      ],
      "name": "RoleRevoked",
      "type": "event"
    },
    {
      "anonymous": false,
      "inputs": [
        {
          "indexed": false,
          "internalType": "address",
          "name": "account",
          "type": "address"
        }
      ],
      "name": "Unpaused",
      "type": "event"
    },
    {
      "anonymous": false,
      "inputs": [
        {
          "indexed": true,
          "internalType": "address",
          "name": "capitalProvider",
          "type": "address"
        },
        {
          "indexed": false,
          "internalType": "uint256",
          "name": "userAmount",
          "type": "uint256"
        },
        {
          "indexed": false,
          "internalType": "uint256",
          "name": "reserveAmount",
          "type": "uint256"
        }
      ],
      "name": "WithdrawalMade",
      "type": "event"
    },
    {
      "inputs": [],
      "name": "DEFAULT_ADMIN_ROLE",
      "outputs": [
        {
          "internalType": "bytes32",
          "name": "",
          "type": "bytes32"
        }
      ],
      "stateMutability": "view",
      "type": "function"
    },
    {
      "inputs": [],
      "name": "OWNER_ROLE",
      "outputs": [
        {
          "internalType": "bytes32",
          "name": "",
          "type": "bytes32"
        }
      ],
      "stateMutability": "view",
      "type": "function"
    },
    {
      "inputs": [],
      "name": "PAUSER_ROLE",
      "outputs": [
        {
          "internalType": "bytes32",
          "name": "",
          "type": "bytes32"
        }
      ],
      "stateMutability": "view",
      "type": "function"
    },
    {
      "inputs": [
        {
          "internalType": "address",
          "name": "owner",
          "type": "address"
        }
      ],
      "name": "__BaseUpgradeablePausable__init",
      "outputs": [],
      "stateMutability": "nonpayable",
      "type": "function"
    },
    {
      "inputs": [],
      "name": "__PauserPausable__init",
      "outputs": [],
      "stateMutability": "nonpayable",
      "type": "function"
    },
    {
      "inputs": [],
      "name": "assets",
      "outputs": [
        {
          "internalType": "uint256",
          "name": "",
          "type": "uint256"
        }
      ],
      "stateMutability": "view",
      "type": "function"
    },
    {
      "inputs": [
        {
          "internalType": "uint256",
          "name": "tokenId",
          "type": "uint256"
        }
      ],
      "name": "calculateWritedown",
      "outputs": [
        {
          "internalType": "uint256",
          "name": "",
          "type": "uint256"
        }
      ],
      "stateMutability": "view",
      "type": "function"
    },
    {
      "inputs": [],
      "name": "compoundBalance",
      "outputs": [
        {
          "internalType": "uint256",
          "name": "",
          "type": "uint256"
        }
      ],
      "stateMutability": "view",
      "type": "function"
    },
    {
      "inputs": [],
      "name": "config",
      "outputs": [
        {
          "internalType": "contract GoldfinchConfig",
          "name": "",
          "type": "address"
        }
      ],
      "stateMutability": "view",
      "type": "function"
    },
    {
      "inputs": [
        {
          "internalType": "uint256",
          "name": "amount",
          "type": "uint256"
        }
      ],
      "name": "deposit",
      "outputs": [
        {
          "internalType": "uint256",
          "name": "depositShares",
          "type": "uint256"
        }
      ],
      "stateMutability": "nonpayable",
      "type": "function"
    },
    {
      "inputs": [
        {
          "internalType": "uint256",
          "name": "amount",
          "type": "uint256"
        },
        {
          "internalType": "uint256",
          "name": "deadline",
          "type": "uint256"
        },
        {
          "internalType": "uint8",
          "name": "v",
          "type": "uint8"
        },
        {
          "internalType": "bytes32",
          "name": "r",
          "type": "bytes32"
        },
        {
          "internalType": "bytes32",
          "name": "s",
          "type": "bytes32"
        }
      ],
      "name": "depositWithPermit",
      "outputs": [
        {
          "internalType": "uint256",
          "name": "depositShares",
          "type": "uint256"
        }
      ],
      "stateMutability": "nonpayable",
      "type": "function"
    },
    {
      "inputs": [
        {
          "internalType": "contract ITranchedPool",
          "name": "pool",
          "type": "address"
        }
      ],
      "name": "estimateInvestment",
      "outputs": [
        {
          "internalType": "uint256",
          "name": "",
          "type": "uint256"
        }
      ],
      "stateMutability": "view",
      "type": "function"
    },
    {
      "inputs": [
        {
          "internalType": "uint256",
          "name": "amount",
          "type": "uint256"
        }
      ],
      "name": "getNumShares",
      "outputs": [
        {
          "internalType": "uint256",
          "name": "",
          "type": "uint256"
        }
      ],
      "stateMutability": "view",
      "type": "function"
    },
    {
      "inputs": [
        {
          "internalType": "bytes32",
          "name": "role",
          "type": "bytes32"
        }
      ],
      "name": "getRoleAdmin",
      "outputs": [
        {
          "internalType": "bytes32",
          "name": "",
          "type": "bytes32"
        }
      ],
      "stateMutability": "view",
      "type": "function"
    },
    {
      "inputs": [
        {
          "internalType": "bytes32",
          "name": "role",
          "type": "bytes32"
        },
        {
          "internalType": "uint256",
          "name": "index",
          "type": "uint256"
        }
      ],
      "name": "getRoleMember",
      "outputs": [
        {
          "internalType": "address",
          "name": "",
          "type": "address"
        }
      ],
      "stateMutability": "view",
      "type": "function"
    },
    {
      "inputs": [
        {
          "internalType": "bytes32",
          "name": "role",
          "type": "bytes32"
        }
      ],
      "name": "getRoleMemberCount",
      "outputs": [
        {
          "internalType": "uint256",
          "name": "",
          "type": "uint256"
        }
      ],
      "stateMutability": "view",
      "type": "function"
    },
    {
      "inputs": [
        {
          "internalType": "bytes32",
          "name": "role",
          "type": "bytes32"
        },
        {
          "internalType": "address",
          "name": "account",
          "type": "address"
        }
      ],
      "name": "grantRole",
      "outputs": [],
      "stateMutability": "nonpayable",
      "type": "function"
    },
    {
      "inputs": [
        {
          "internalType": "bytes32",
          "name": "role",
          "type": "bytes32"
        },
        {
          "internalType": "address",
          "name": "account",
          "type": "address"
        }
      ],
      "name": "hasRole",
      "outputs": [
        {
          "internalType": "bool",
          "name": "",
          "type": "bool"
        }
      ],
      "stateMutability": "view",
      "type": "function"
    },
    {
      "inputs": [
        {
          "internalType": "address",
          "name": "owner",
          "type": "address"
        },
        {
          "internalType": "contract GoldfinchConfig",
          "name": "_config",
          "type": "address"
        }
      ],
      "name": "initialize",
      "outputs": [],
      "stateMutability": "nonpayable",
      "type": "function"
    },
    {
      "inputs": [
        {
          "internalType": "contract ITranchedPool",
          "name": "pool",
          "type": "address"
        }
      ],
      "name": "invest",
      "outputs": [],
      "stateMutability": "nonpayable",
      "type": "function"
    },
    {
      "inputs": [],
      "name": "isAdmin",
      "outputs": [
        {
          "internalType": "bool",
          "name": "",
          "type": "bool"
        }
      ],
      "stateMutability": "view",
      "type": "function"
    },
    {
      "inputs": [],
      "name": "pause",
      "outputs": [],
      "stateMutability": "nonpayable",
      "type": "function"
    },
    {
      "inputs": [],
      "name": "paused",
      "outputs": [
        {
          "internalType": "bool",
          "name": "",
          "type": "bool"
        }
      ],
      "stateMutability": "view",
      "type": "function"
    },
    {
      "inputs": [
        {
          "internalType": "uint256",
          "name": "tokenId",
          "type": "uint256"
        }
      ],
      "name": "redeem",
      "outputs": [],
      "stateMutability": "nonpayable",
      "type": "function"
    },
    {
      "inputs": [
        {
          "internalType": "bytes32",
          "name": "role",
          "type": "bytes32"
        },
        {
          "internalType": "address",
          "name": "account",
          "type": "address"
        }
      ],
      "name": "renounceRole",
      "outputs": [],
      "stateMutability": "nonpayable",
      "type": "function"
    },
    {
      "inputs": [
        {
          "internalType": "bytes32",
          "name": "role",
          "type": "bytes32"
        },
        {
          "internalType": "address",
          "name": "account",
          "type": "address"
        }
      ],
      "name": "revokeRole",
      "outputs": [],
      "stateMutability": "nonpayable",
      "type": "function"
    },
    {
      "inputs": [],
      "name": "sharePrice",
      "outputs": [
        {
          "internalType": "uint256",
          "name": "",
          "type": "uint256"
        }
      ],
      "stateMutability": "view",
      "type": "function"
    },
    {
      "inputs": [],
      "name": "sweepFromCompound",
      "outputs": [],
      "stateMutability": "nonpayable",
      "type": "function"
    },
    {
      "inputs": [],
      "name": "sweepToCompound",
      "outputs": [],
      "stateMutability": "nonpayable",
      "type": "function"
    },
    {
      "inputs": [],
      "name": "totalLoansOutstanding",
      "outputs": [
        {
          "internalType": "uint256",
          "name": "",
          "type": "uint256"
        }
      ],
      "stateMutability": "view",
      "type": "function"
    },
    {
      "inputs": [],
      "name": "totalWritedowns",
      "outputs": [
        {
          "internalType": "uint256",
          "name": "",
          "type": "uint256"
        }
      ],
      "stateMutability": "view",
      "type": "function"
    },
    {
      "inputs": [],
      "name": "unpause",
      "outputs": [],
      "stateMutability": "nonpayable",
      "type": "function"
    },
    {
      "inputs": [],
      "name": "updateGoldfinchConfig",
      "outputs": [],
      "stateMutability": "nonpayable",
      "type": "function"
    },
    {
      "inputs": [
        {
          "internalType": "uint256",
          "name": "usdcAmount",
          "type": "uint256"
        }
      ],
      "name": "withdraw",
      "outputs": [
        {
          "internalType": "uint256",
          "name": "amount",
          "type": "uint256"
        }
      ],
      "stateMutability": "nonpayable",
      "type": "function"
    },
    {
      "inputs": [
        {
          "internalType": "uint256",
          "name": "fiduAmount",
          "type": "uint256"
        }
      ],
      "name": "withdrawInFidu",
      "outputs": [
        {
          "internalType": "uint256",
          "name": "amount",
          "type": "uint256"
        }
      ],
      "stateMutability": "nonpayable",
      "type": "function"
    },
    {
      "inputs": [
        {
          "internalType": "uint256",
          "name": "tokenId",
          "type": "uint256"
        }
      ],
      "name": "writedown",
      "outputs": [],
      "stateMutability": "nonpayable",
      "type": "function"
    },
    {
      "inputs": [
        {
          "internalType": "contract ITranchedPool",
          "name": "",
          "type": "address"
        }
      ],
      "name": "writedowns",
      "outputs": [
        {
          "internalType": "uint256",
          "name": "",
          "type": "uint256"
        }
      ],
      "stateMutability": "view",
      "type": "function"
    }
  ],
  "transactionHash": "0x1322d358710b61ae4d76417542924b0b8d7e08730f990526131292abadca071c",
  "args": [],
  "solcInputHash": "09586d0fbcee1e635828b4bf555ecfc7",
  "bytecode": "0x608060405234801561001057600080fd5b50614078806100206000396000f3fe608060405234801561001057600080fd5b50600436106101f75760003560e01c8063855cb21b11610120578063b6b55f25116100b8578063db006a751161007c578063db006a75146103ff578063e58378bb14610412578063e63ab1e91461041a578063ed80c85014610422578063f1a80e621461042a576101f7565b8063b6b55f25146103ab578063b6db75a0146103be578063ca15c873146103c6578063d547741f146103d9578063d78a5c65146103ec576101f7565b8063855cb21b14610337578063872697291461034a5780638836d902146103525780639010d07c1461035a57806391d148541461036d578063945ed49a146103805780639e4a88e114610393578063a217fddf1461039b578063a6f4487e146103a3576101f7565b80634f92a728116101935780634f92a728146102b4578063526d81f6146102bc57806358031d12146102c45780635c975abb146102d757806371a97305146102ec578063722eeec3146102f457806379502c55146103075780637e30cdff1461031c5780638456cb591461032f576101f7565b806303f9c793146101fc578063097616a314610211578063248a9ca3146102245780632e1a7d4d1461024d5780632f2ff15d1461026057806336568abe146102735780633f4ba83a14610286578063485cc9551461028e5780634a970be7146102a1575b600080fd5b61020f61020a366004613446565b610432565b005b61020f61021f366004613446565b61066e565b6102376102323660046134d6565b61079e565b60405161024491906136cc565b60405180910390f35b61023761025b3660046134d6565b6107b3565b61020f61026e3660046134ee565b61090f565b61020f6102813660046134ee565b610953565b61020f610995565b61020f61029c36600461347e565b6109d5565b6102376102af3660046135e2565b610d86565b61020f610e1b565b61020f610eb1565b6102376102d23660046134d6565b610f3c565b6102df61109a565b60405161024491906136c1565b6102376110a3565b6102376103023660046134d6565b611169565b61030f61123b565b604051610244919061362f565b61023761032a366004613446565b61124b565b61020f611313565b6102376103453660046134d6565b611351565b610237611380565b61020f611387565b61030f610368366004613512565b6113d6565b6102df61037b3660046134ee565b6113ee565b61020f61038e3660046134d6565b611406565b61020f6116ec565b610237611950565b610237611955565b6102376103b93660046134d6565b61195c565b6102df611bb3565b6102376103d43660046134d6565b611bcf565b61020f6103e73660046134ee565b611be6565b6102376103fa366004613446565b611c20565b61020f61040d3660046134d6565b611c33565b610237611dcd565b610237611ddf565b610237611df1565b610237611df8565b60975460ff161561045e5760405162461bcd60e51b815260040161045590613c78565b60405180910390fd5b60c95460ff166104805760405162461bcd60e51b815260040161045590613e94565b60c9805460ff1916905561049381611dff565b6104af5760405162461bcd60e51b815260040161045590613cf9565b6101c754156104c0576104c0611e93565b6101c6546000906104d9906001600160a01b0316611f33565b90506000816001600160a01b031663ff8a4efe30856040518363ffffffff1660e01b815260040161050b929190613703565b60206040518083038186803b15801561052357600080fd5b505afa158015610537573d6000803e3d6000fd5b505050506040513d601f19601f8201168201806040525081019061055b91906135a7565b90506000811161057d5760405162461bcd60e51b815260040161045590613e52565b6105878382611f3e565b604051631c57762b60e31b81526001600160a01b0384169063e2bbb158906105b6906001908590600401613fdf565b602060405180830381600087803b1580156105d057600080fd5b505af11580156105e4573d6000803e3d6000fd5b505050506040513d601f19601f8201168201806040525081019061060891906135a7565b50826001600160a01b03167f86da25fff7a4075a94de2ffed109ca6748c3af22736eaf7efc75e3988f899d6e8260405161064291906136cc565b60405180910390a26101c4546106589082611ffa565b6101c455505060c9805460ff1916600117905550565b600054610100900460ff1680610687575061068761201f565b80610695575060005460ff16155b6106b15760405162461bcd60e51b815260040161045590613d9b565b600054610100900460ff161580156106dc576000805460ff1961ff0019909116610100171660011790555b6001600160a01b0382166107025760405162461bcd60e51b815260040161045590613d25565b61070a612025565b6107126120a6565b61071a612132565b61073260008051602061400383398151915283610949565b61074a60008051602061402383398151915283610949565b6107706000805160206140238339815191526000805160206140038339815191526121c1565b610788600080516020614003833981519152806121c1565b801561079a576000805461ff00191690555b5050565b60009081526065602052604090206002015490565b60975460009060ff16156107d95760405162461bcd60e51b815260040161045590613c78565b60c95460ff166107fb5760405162461bcd60e51b815260040161045590613e94565b60c9805460ff191690556101c65461081b906001600160a01b03166121d6565b6001600160a01b031663a37b92c9336040518263ffffffff1660e01b8152600401610846919061362f565b60206040518083038186803b15801561085e57600080fd5b505afa158015610872573d6000803e3d6000fd5b505050506040513d601f19601f8201168201806040525081019061089691906134b6565b6108b25760405162461bcd60e51b815260040161045590613770565b600082116108d25760405162461bcd60e51b815260040161045590613e1b565b6101c754156108e3576108e3611e93565b60006108ee83611351565b90506108fa83826121e1565b91505060c9805460ff19166001179055919050565b60008281526065602052604090206002015461092d9061037b6123b3565b6109495760405162461bcd60e51b815260040161045590613863565b61079a82826123b7565b61095b6123b3565b6001600160a01b0316816001600160a01b03161461098b5760405162461bcd60e51b815260040161045590613f59565b61079a8282612420565b6109af60008051602061402383398151915261037b6123b3565b6109cb5760405162461bcd60e51b815260040161045590613a16565b6109d3612489565b565b600054610100900460ff16806109ee57506109ee61201f565b806109fc575060005460ff16155b610a185760405162461bcd60e51b815260040161045590613d9b565b600054610100900460ff16158015610a43576000805460ff1961ff0019909116610100171660011790555b6001600160a01b03831615801590610a6357506001600160a01b03821615155b610a7f5760405162461bcd60e51b815260040161045590613967565b610a888361066e565b6101c680546001600160a01b0319166001600160a01b038481169190911791829055610ab491166124f5565b6001600160a01b031663872697296040518163ffffffff1660e01b815260040160206040518083038186803b158015610aec57600080fd5b505afa158015610b00573d6000803e3d6000fd5b505050506040513d601f19601f82011682018060405250810190610b2491906135a7565b6101c3556101c654610b3e906001600160a01b0316612500565b6001600160a01b031663ed80c8506040518163ffffffff1660e01b815260040160206040518083038186803b158015610b7657600080fd5b505afa158015610b8a573d6000803e3d6000fd5b505050506040513d601f19601f82011682018060405250810190610bae91906135a7565b6101c4556101c654610bc8906001600160a01b0316612500565b6001600160a01b031663a6f4487e6040518163ffffffff1660e01b815260040160206040518083038186803b158015610c0057600080fd5b505afa158015610c14573d6000803e3d6000fd5b505050506040513d601f19601f82011682018060405250810190610c3891906135a7565b6101c5556101c654600090610c55906001600160a01b031661250b565b9050806001600160a01b03166318160ddd6040518163ffffffff1660e01b815260040160206040518083038186803b158015610c9057600080fd5b505afa158015610ca4573d6000803e3d6000fd5b505050506040513d601f19601f82011682018060405250810190610cc891906135a7565b5060405163095ea7b360e01b81526000906001600160a01b0383169063095ea7b390610cfc90309060001990600401613684565b602060405180830381600087803b158015610d1657600080fd5b505af1158015610d2a573d6000803e3d6000fd5b505050506040513d601f19601f82011682018060405250810190610d4e91906134b6565b905080610d6d5760405162461bcd60e51b8152600401610455906138e0565b50508015610d81576000805461ff00191690555b505050565b6101c654600090610d9f906001600160a01b0316612512565b6001600160a01b031663d505accf333089898989896040518863ffffffff1660e01b8152600401610dd69796959493929190613643565b600060405180830381600087803b158015610df057600080fd5b505af1158015610e04573d6000803e3d6000fd5b50505050610e118661195c565b9695505050505050565b610e23611bb3565b610e3f5760405162461bcd60e51b815260040161045590613f0e565b6101c654610e55906001600160a01b0316612592565b6101c680546001600160a01b0319166001600160a01b03928316179081905560405133927f7c76c17de59691df2ef36af3938c91f69cd18ad27f67a54a38e38686f0b40c4992610ea79291169061362f565b60405180910390a2565b600054610100900460ff1680610eca5750610eca61201f565b80610ed8575060005460ff16155b610ef45760405162461bcd60e51b815260040161045590613d9b565b600054610100900460ff16158015610f1f576000805460ff1961ff0019909116610100171660011790555b610f276120a6565b8015610f39576000805461ff00191690555b50565b60975460009060ff1615610f625760405162461bcd60e51b815260040161045590613c78565b60c95460ff16610f845760405162461bcd60e51b815260040161045590613e94565b60c9805460ff191690556101c654610fa4906001600160a01b03166121d6565b6001600160a01b031663a37b92c9336040518263ffffffff1660e01b8152600401610fcf919061362f565b60206040518083038186803b158015610fe757600080fd5b505afa158015610ffb573d6000803e3d6000fd5b505050506040513d601f19601f8201168201806040525081019061101f91906134b6565b61103b5760405162461bcd60e51b815260040161045590613770565b6000821161105b5760405162461bcd60e51b815260040161045590613e1b565b6101c7541561106c5761106c611e93565b6000611077836125aa565b90508261108482826121e1565b9250505060c9805460ff19166001179055919050565b60975460ff1690565b6101c5546101c4546101c65460009261116492909161115e9190611158906110d3906001600160a01b031661250b565b6001600160a01b03166370a08231306040518263ffffffff1660e01b81526004016110fe919061362f565b60206040518083038186803b15801561111657600080fd5b505afa15801561112a573d6000803e3d6000fd5b505050506040513d601f19601f8201168201806040525081019061114e91906135a7565b6101c75490611ffa565b90611ffa565b906125ce565b905090565b600061117361340e565b6101c654611189906001600160a01b0316612610565b6001600160a01b0316638c7a63ae846040518263ffffffff1660e01b81526004016111b491906136cc565b60a06040518083038186803b1580156111cc57600080fd5b505afa1580156111e0573d6000803e3d6000fd5b505050506040513d601f19601f820116820180604052508101906112049190613533565b805160608201516040830151929350909160009161122291906125ce565b90506000611230838361261b565b979650505050505050565b6101c6546001600160a01b031681565b600061125682611dff565b6112725760405162461bcd60e51b815260040161045590613cf9565b6101c65460009061128b906001600160a01b0316611f33565b604051631f999a2d60e01b81529091506001600160a01b03821690631f999a2d906112bc9030908790600401613703565b60206040518083038186803b1580156112d457600080fd5b505afa1580156112e8573d6000803e3d6000fd5b505050506040513d601f19601f8201168201806040525081019061130c91906135a7565b9392505050565b61132d60008051602061402383398151915261037b6123b3565b6113495760405162461bcd60e51b815260040161045590613a16565b6109d3612758565b600061137a6101c3546113746113656127b1565b61136e866127bd565b906127d8565b90612812565b92915050565b6101c35481565b61138f611bb3565b6113ab5760405162461bcd60e51b815260040161045590613f0e565b60975460ff16156113ce5760405162461bcd60e51b815260040161045590613c78565b6109d3611e93565b600082815260656020526040812061130c9083612854565b600082815260656020526040812061130c9083612860565b60975460ff16156114295760405162461bcd60e51b815260040161045590613c78565b60c95460ff1661144b5760405162461bcd60e51b815260040161045590613e94565b60c9805460ff191690556101c65460009061146e906001600160a01b0316612610565b6040516331a9108f60e11b81529091506001600160a01b03821690636352211e9061149d9085906004016136cc565b60206040518083038186803b1580156114b557600080fd5b505afa1580156114c9573d6000803e3d6000fd5b505050506040513d601f19601f820116820180604052508101906114ed9190613462565b6001600160a01b0316306001600160a01b03161461151d5760405162461bcd60e51b815260040161045590613aed565b61152561340e565b60405163463d31d760e11b81526001600160a01b03831690638c7a63ae906115519086906004016136cc565b60a06040518083038186803b15801561156957600080fd5b505afa15801561157d573d6000803e3d6000fd5b505050506040513d601f19601f820116820180604052508101906115a19190613533565b80519091506115af81611dff565b6115cb5760405162461bcd60e51b815260040161045590613cf9565b60006115e8836060015184604001516125ce90919063ffffffff16565b90506000806115f7848461261b565b6001600160a01b03861660009081526101c86020526040902054919350915082158015611622575080155b1561163357505050505050506116dc565b6001600160a01b03851660009081526101c86020526040902082905581810361165b81612875565b600081131561167b576101c55461167290826125ce565b6101c555611692565b6101c55461168d906000839003611ffa565b6101c5555b856001600160a01b03167f176e189790e519c3382df7234bd391cc24005bf9cfaaa9de00103c208e10a274826040516116cb91906136cc565b60405180910390a250505050505050505b5060c9805460ff19166001179055565b6116f4611bb3565b6117105760405162461bcd60e51b815260040161045590613f0e565b60975460ff16156117335760405162461bcd60e51b815260040161045590613c78565b6101c65460009061174c906001600160a01b031661250b565b90506000816001600160a01b03166370a08231306040518263ffffffff1660e01b815260040161177c919061362f565b60206040518083038186803b15801561179457600080fd5b505afa1580156117a8573d6000803e3d6000fd5b505050506040513d601f19601f820116820180604052508101906117cc91906135a7565b6101c6549091506000906117e8906001600160a01b03166128cc565b90506000836001600160a01b031663095ea7b383856040518363ffffffff1660e01b815260040161181a929190613684565b602060405180830381600087803b15801561183457600080fd5b505af1158015611848573d6000803e3d6000fd5b505050506040513d601f19601f8201168201806040525081019061186c91906134b6565b90508061188b5760405162461bcd60e51b815260040161045590613ecb565b61189582846128d7565b6101c6546118ab906001600160a01b031661250b565b6001600160a01b031663095ea7b38360006040518363ffffffff1660e01b81526004016118d9929190613684565b602060405180830381600087803b1580156118f357600080fd5b505af1158015611907573d6000803e3d6000fd5b505050506040513d601f19601f8201168201806040525081019061192b91906134b6565b90508061194a5760405162461bcd60e51b815260040161045590613ecb565b50505050565b600081565b6101c55481565b60975460009060ff16156119825760405162461bcd60e51b815260040161045590613c78565b60c95460ff166119a45760405162461bcd60e51b815260040161045590613e94565b60c9805460ff191690556101c6546119c4906001600160a01b03166121d6565b6001600160a01b031663a37b92c9336040518263ffffffff1660e01b81526004016119ef919061362f565b60206040518083038186803b158015611a0757600080fd5b505afa158015611a1b573d6000803e3d6000fd5b505050506040513d601f19601f82011682018060405250810190611a3f91906134b6565b611a5b5760405162461bcd60e51b815260040161045590613770565b60008211611a7b5760405162461bcd60e51b815260040161045590613fa8565b611a8482611351565b90506000611a94826111586129be565b9050611a9f81612a47565b611abb5760405162461bcd60e51b815260040161045590613ca2565b336001600160a01b03167f0b05f0d1cd0819f155b8a61f60baf7767c1ee49d04aeaab701df236140eb93f98484604051611af6929190613fdf565b60405180910390a26000611b0b333086612ae6565b905080611b2a5760405162461bcd60e51b81526004016104559061382c565b6101c654611b40906001600160a01b0316612bb5565b6001600160a01b031663449a52f833856040518363ffffffff1660e01b8152600401611b6d929190613684565b600060405180830381600087803b158015611b8757600080fd5b505af1158015611b9b573d6000803e3d6000fd5b50505050505060c9805460ff19166001179055919050565b600061116460008051602061400383398151915261037b6123b3565b600081815260656020526040812061137a90612bc0565b600082815260656020526040902060020154611c049061037b6123b3565b61098b5760405162461bcd60e51b815260040161045590613c28565b6101c86020526000908152604090205481565b60975460ff1615611c565760405162461bcd60e51b815260040161045590613c78565b60c95460ff16611c785760405162461bcd60e51b815260040161045590613e94565b60c9805460ff191690556101c654600090611c9b906001600160a01b0316612610565b9050611ca561340e565b60405163463d31d760e11b81526001600160a01b03831690638c7a63ae90611cd19086906004016136cc565b60a06040518083038186803b158015611ce957600080fd5b505afa158015611cfd573d6000803e3d6000fd5b505050506040513d601f19601f82011682018060405250810190611d219190613533565b8051604051632a8a9f1360e21b81529192509060009081906001600160a01b0384169063aa2a7c4c90611d589089906004016136cc565b6040805180830381600087803b158015611d7157600080fd5b505af1158015611d85573d6000803e3d6000fd5b505050506040513d601f19601f82011682018060405250810190611da991906135bf565b91509150611db8838383612bcb565b505060c9805460ff1916600117905550505050565b60008051602061400383398151915281565b60008051602061402383398151915281565b6101c45481565b6101c75481565b6101c654600090611e18906001600160a01b0316612610565b6001600160a01b031663b5ada6d8836040518263ffffffff1660e01b8152600401611e43919061362f565b60206040518083038186803b158015611e5b57600080fd5b505afa158015611e6f573d6000803e3d6000fd5b505050506040513d601f19601f8201168201806040525081019061137a91906134b6565b6101c654600090611eac906001600160a01b03166128cc565b9050610f3981826001600160a01b03166370a08231306040518263ffffffff1660e01b8152600401611ede919061362f565b60206040518083038186803b158015611ef657600080fd5b505afa158015611f0a573d6000803e3d6000fd5b505050506040513d601f19601f82011682018060405250810190611f2e91906135a7565b612c92565b600061137a82612fab565b6101c654600090611f57906001600160a01b031661250b565b90506000816001600160a01b031663095ea7b385856040518363ffffffff1660e01b8152600401611f89929190613684565b602060405180830381600087803b158015611fa357600080fd5b505af1158015611fb7573d6000803e3d6000fd5b505050506040513d601f19601f82011682018060405250810190611fdb91906134b6565b90508061194a5760405162461bcd60e51b8152600401610455906138e0565b60008282018381101561130c5760405162461bcd60e51b815260040161045590613a62565b303b1590565b600054610100900460ff168061203e575061203e61201f565b8061204c575060005460ff16155b6120685760405162461bcd60e51b815260040161045590613d9b565b600054610100900460ff16158015610f27576000805460ff1961ff0019909116610100171660011790558015610f39576000805461ff001916905550565b600054610100900460ff16806120bf57506120bf61201f565b806120cd575060005460ff16155b6120e95760405162461bcd60e51b815260040161045590613d9b565b600054610100900460ff16158015612114576000805460ff1961ff0019909116610100171660011790555b6097805460ff191690558015610f39576000805461ff001916905550565b600054610100900460ff168061214b575061214b61201f565b80612159575060005460ff16155b6121755760405162461bcd60e51b815260040161045590613d9b565b600054610100900460ff161580156121a0576000805460ff1961ff0019909116610100171660011790555b60c9805460ff191660011790558015610f39576000805461ff001916905550565b60009182526065602052604090912060020155565b600061137a82612fc3565b6101c65460009081906121fc906001600160a01b0316612bb5565b90506000816001600160a01b03166370a08231336040518263ffffffff1660e01b815260040161222c919061362f565b60206040518083038186803b15801561224457600080fd5b505afa158015612258573d6000803e3d6000fd5b505050506040513d601f19601f8201168201806040525081019061227c91906135a7565b90508084111561229e5760405162461bcd60e51b815260040161045590613910565b6101c6546000906122c2906122bb906001600160a01b0316612fdb565b8790612812565b90506122ce86826125ce565b9350336001600160a01b03167f2d4d49c3e017b8235c908cbaa83a2431a08f3b950712696ece2088964fd399f0858360405161230b929190613fdf565b60405180910390a26000612320303387612ae6565b90508061233f5760405162461bcd60e51b815260040161045590613b77565b612349823361305b565b60405163079cc67960e41b81526001600160a01b038516906379cc6790906123779033908a90600401613684565b600060405180830381600087803b15801561239157600080fd5b505af11580156123a5573d6000803e3d6000fd5b505050505050505092915050565b3390565b60008281526065602052604090206123cf90826130e0565b1561079a576123dc6123b3565b6001600160a01b0316816001600160a01b0316837f2f8788117e7eff1d82e926ec794901d17c78024a50270940304540a733656f0d60405160405180910390a45050565b600082815260656020526040902061243890826130f5565b1561079a576124456123b3565b6001600160a01b0316816001600160a01b0316837ff6391f5c32d9c69d2a47ea670b442974b53935d1edc7fd64eb21e047a839171b60405160405180910390a45050565b60975460ff166124ab5760405162461bcd60e51b8152600401610455906138b2565b6097805460ff191690557f5db9ee0a495bf2e6ff9c91a7834c1ba4fdd244a5e8aa4e537bd38aeae4b073aa6124de6123b3565b6040516124eb919061362f565b60405180910390a1565b600061137a8261310a565b600061137a82613121565b600061137a825b60006001600160a01b03821663b93f9b0a60055b6040518263ffffffff1660e01b815260040161254291906136cc565b60206040518083038186803b15801561255a57600080fd5b505afa15801561256e573d6000803e3d6000fd5b505050506040513d601f19601f8201168201806040525081019061137a9190613462565b60006001600160a01b03821663b93f9b0a600b612526565b600061137a6125c96125ba6127b1565b6101c3546113749086906127d8565b613139565b600061130c83836040518060400160405280601e81526020017f536166654d6174683a207375627472616374696f6e206f766572666c6f770000815250613151565b600061137a8261317d565b600080732C3b080C7D0AA00242Ab5Ba131F7bB937bB21d646397aec1ab856001600160a01b03166347195e136040518163ffffffff1660e01b815260040160206040518083038186803b15801561267157600080fd5b505afa158015612685573d6000803e3d6000fd5b505050506040513d601f19601f820116820180604052508101906126a99190613462565b856126b2613195565b6101c6546126c8906001600160a01b0316613199565b6101c6546126de906001600160a01b03166131b1565b6040518663ffffffff1660e01b81526004016126fe9594939291906136d5565b604080518083038186803b15801561271557600080fd5b505af4158015612729573d6000803e3d6000fd5b505050506040513d601f19601f8201168201806040525081019061274d91906135bf565b915091509250929050565b60975460ff161561277b5760405162461bcd60e51b815260040161045590613c78565b6097805460ff191660011790557f62e78cea01bee320cd4e420270b5ea74000d11b0c9f74754ebdbfc544b05a2586124de6123b3565b670de0b6b3a764000090565b600061137a6127ca6131c9565b6113746127d56127b1565b85905b6000826127e75750600061137a565b828202828482816127f457fe5b041461130c5760405162461bcd60e51b815260040161045590613d5a565b600061130c83836040518060400160405280601a81526020017f536166654d6174683a206469766973696f6e206279207a65726f0000000000008152506131d0565b600061130c8383613207565b600061130c836001600160a01b03841661324c565b60008113156128a457600061288982613264565b6101c35490915061289a9082611ffa565b6101c35550610f39565b60006128b38260001902613264565b6101c3549091506128c490826125ce565b6101c3555050565b600061137a8261327c565b6101c754156128f85760405162461bcd60e51b815260040161045590613a99565b806129155760405162461bcd60e51b8152600401610455906137b3565b60405163140e25ad60e31b81526000906001600160a01b0384169063a0712d68906129449085906004016136cc565b602060405180830381600087803b15801561295e57600080fd5b505af1158015612972573d6000803e3d6000fd5b505050506040513d601f19601f8201168201806040525081019061299691906135a7565b905080156129b65760405162461bcd60e51b815260040161045590613b45565b506101c75550565b6101c6546000906129d7906001600160a01b0316612bb5565b6001600160a01b03166318160ddd6040518163ffffffff1660e01b815260040160206040518083038186803b158015612a0f57600080fd5b505afa158015612a23573d6000803e3d6000fd5b505050506040513d601f19601f8201168201806040525081019061116491906135a7565b6101c654600090612ad3906001600160a01b031663fc56365860016040518263ffffffff1660e01b8152600401612a7e91906136cc565b60206040518083038186803b158015612a9657600080fd5b505afa158015612aaa573d6000803e3d6000fd5b505050506040513d601f19601f82011682018060405250810190612ace91906135a7565b6127bd565b612ade6125ba6127b1565b111592915050565b60006001600160a01b038316612b0e5760405162461bcd60e51b8152600401610455906139b1565b6101c654600090612b27906001600160a01b031661250b565b6040516323b872dd60e01b81529091506001600160a01b038216906323b872dd90612b5a9088908890889060040161369d565b602060405180830381600087803b158015612b7457600080fd5b505af1158015612b88573d6000803e3d6000fd5b505050506040513d601f19601f82011682018060405250810190612bac91906134b6565b95945050505050565b600061137a82613294565b600061137a826132ac565b6000612bd683613264565b6101c354909150612be79082611ffa565b6101c3558215612c3357836001600160a01b03167fed3bc1b58411ea8e764b3ef8fa6b654877bc1e796a5a1a2373dfc8f1c0e0ea4884604051612c2a91906136cc565b60405180910390a25b811561194a57836001600160a01b03167f8295ad220549851bab232c2a7ae2e3c53a63d2294602bc85f8d8af108778a37e83604051612c7291906136cc565b60405180910390a26101c454612c8890836125ce565b6101c45550505050565b6101c75480612cb35760405162461bcd60e51b8152600401610455906139e8565b81612cd05760405162461bcd60e51b8152600401610455906137b3565b6101c654600090612ce9906001600160a01b031661250b565b90506000816001600160a01b03166370a08231306040518263ffffffff1660e01b8152600401612d19919061362f565b60206040518083038186803b158015612d3157600080fd5b505afa158015612d45573d6000803e3d6000fd5b505050506040513d601f19601f82011682018060405250810190612d6991906135a7565b90506000856001600160a01b031663bd6d894d6040518163ffffffff1660e01b8152600401602060405180830381600087803b158015612da857600080fd5b505af1158015612dbc573d6000803e3d6000fd5b505050506040513d601f19601f82011682018060405250810190612de091906135a7565b90506000612dee82876132b0565b90506000876001600160a01b031663db006a75886040518263ffffffff1660e01b8152600401612e1e91906136cc565b602060405180830381600087803b158015612e3857600080fd5b505af1158015612e4c573d6000803e3d6000fd5b505050506040513d601f19601f82011682018060405250810190612e7091906135a7565b90506000856001600160a01b03166370a08231306040518263ffffffff1660e01b8152600401612ea0919061362f565b60206040518083038186803b158015612eb857600080fd5b505afa158015612ecc573d6000803e3d6000fd5b505050506040513d601f19601f82011682018060405250810190612ef091906135a7565b90508115612f105760405162461bcd60e51b815260040161045590613bf1565b82612f1b82876125ce565b14612f385760405162461bcd60e51b815260040161045590613de9565b6000612f4484896125ce565b6101c654909150600090612f6b90612f64906001600160a01b03166132ce565b8390612812565b90506000612f7983836125ce565b9050612f8730826000612bcb565b8115612f9757612f97828d61305b565b505060006101c75550505050505050505050565b60006001600160a01b03821663b93f9b0a600f612526565b60006001600160a01b03821663b93f9b0a6013612526565b60006001600160a01b03821663fc56365860045b6040518263ffffffff1660e01b815260040161300b91906136cc565b60206040518083038186803b15801561302357600080fd5b505afa158015613037573d6000803e3d6000fd5b505050506040513d601f19601f8201168201806040525081019061137a91906135a7565b806001600160a01b03167ff3583f178a8d4f8888c3683f8e948faf9b6eb701c4f1fab265a6ecad1a1ddebb8360405161309491906136cc565b60405180910390a26101c6546000906130c19030906130bb906001600160a01b03166132e6565b85612ae6565b905080610d815760405162461bcd60e51b815260040161045590613bae565b600061130c836001600160a01b0384166132fe565b600061130c836001600160a01b038416613348565b60006001600160a01b03821663b93f9b0a82612526565b60006001600160a01b03821663b93f9b0a6003612526565b600061137a612f646131496131c9565b6113746127b1565b600081848411156131755760405162461bcd60e51b8152600401610455919061371d565b505050900390565b60006001600160a01b03821663b93f9b0a600c612526565b4290565b60006001600160a01b03821663fc5636586005612fef565b60006001600160a01b03821663fc5636586006612fef565b620f424090565b600081836131f15760405162461bcd60e51b8152600401610455919061371d565b5060008385816131fd57fe5b0495945050505050565b8154600090821061322a5760405162461bcd60e51b8152600401610455906137ea565b82600001828154811061323957fe5b9060005260206000200154905092915050565b60009081526001919091016020526040902054151590565b600061137a6132716129be565b6113746113656127b1565b60006001600160a01b03821663b93f9b0a600a612526565b60006001600160a01b03821663b93f9b0a6004612526565b5490565b600060066008612bac6064611374662386f26fc1000081888a6127d8565b60006001600160a01b03821663fc5636586003612fef565b60006001600160a01b03821663b93f9b0a6006612526565b600061330a838361324c565b6133405750815460018181018455600084815260208082209093018490558454848252828601909352604090209190915561137a565b50600061137a565b60008181526001830160205260408120548015613404578354600019808301919081019060009087908390811061337b57fe5b906000526020600020015490508087600001848154811061339857fe5b6000918252602080832090910192909255828152600189810190925260409020908401905586548790806133c857fe5b6001900381819060005260206000200160009055905586600101600087815260200190815260200160002060009055600194505050505061137a565b600091505061137a565b6040518060a0016040528060006001600160a01b03168152602001600081526020016000815260200160008152602001600081525090565b600060208284031215613457578081fd5b813561130c81613fed565b600060208284031215613473578081fd5b815161130c81613fed565b60008060408385031215613490578081fd5b823561349b81613fed565b915060208301356134ab81613fed565b809150509250929050565b6000602082840312156134c7578081fd5b8151801515811461130c578182fd5b6000602082840312156134e7578081fd5b5035919050565b60008060408385031215613500578182fd5b8235915060208301356134ab81613fed565b60008060408385031215613524578182fd5b50508035926020909101359150565b600060a08284031215613544578081fd5b60405160a0810181811067ffffffffffffffff82111715613563578283fd5b604052825161357181613fed565b80825250602083015160208201526040830151604082015260608301516060820152608083015160808201528091505092915050565b6000602082840312156135b8578081fd5b5051919050565b600080604083850312156135d1578182fd5b505080516020909101519092909150565b600080600080600060a086880312156135f9578081fd5b8535945060208601359350604086013560ff81168114613617578182fd5b94979396509394606081013594506080013592915050565b6001600160a01b0391909116815260200190565b6001600160a01b0397881681529590961660208601526040850193909352606084019190915260ff16608083015260a082015260c081019190915260e00190565b6001600160a01b03929092168252602082015260400190565b6001600160a01b039384168152919092166020820152604081019190915260600190565b901515815260200190565b90815260200190565b6001600160a01b03959095168552602085019390935260408401919091526060830152608082015260a00190565b6001600160a01b0392831681529116602082015260400190565b6000602080835283518082850152825b818110156137495785810183015185820160400152820161372d565b8181111561375a5783604083870101525b50601f01601f1916929092016040019392505050565b60208082526023908201527f54686973206164647265737320686173206e6f74206265656e20676f2d6c69736040820152621d195960ea1b606082015260800190565b6020808252601e908201527f416d6f756e7420746f2073776565702063616e6e6f74206265207a65726f0000604082015260600190565b60208082526022908201527f456e756d657261626c655365743a20696e646578206f7574206f6620626f756e604082015261647360f01b606082015260800190565b6020808252601e908201527f4661696c656420746f207472616e7366657220666f72206465706f7369740000604082015260600190565b6020808252602f908201527f416363657373436f6e74726f6c3a2073656e646572206d75737420626520616e60408201526e0818591b5a5b881d1bc819dc985b9d608a1b606082015260800190565b60208082526014908201527314185d5cd8589b194e881b9bdd081c185d5cd95960621b604082015260600190565b6020808252601690820152754661696c656420746f20617070726f7665205553444360501b604082015260600190565b60208082526037908201527f416d6f756e74207265717565737465642069732067726561746572207468616e604082015276207768617420746869732061646472657373206f776e7360481b606082015260800190565b6020808252602a908201527f4f776e657220616e6420636f6e666967206164647265737365732063616e6e6f6040820152697420626520656d70747960b01b606082015260800190565b6020808252601a908201527f43616e27742073656e6420746f207a65726f2061646472657373000000000000604082015260600190565b602080825260149082015273139bc8199d5b991cc81bdb8818dbdb5c1bdd5b9960621b604082015260600190565b6020808252602c908201527f4d75737420686176652070617573657220726f6c6520746f20706572666f726d60408201526b103a3434b99030b1ba34b7b760a11b606082015260800190565b6020808252601b908201527f536166654d6174683a206164646974696f6e206f766572666c6f770000000000604082015260600190565b60208082526034908201527f43616e6e6f74207377656570207768656e20776520616c72656164792068617660408201527365206120636f6d706f756e642062616c616e636560601b606082015260800190565b60208082526038908201527f4f6e6c7920746f6b656e73206f776e6564206279207468652073656e696f72206040820152773837b7b61031b0b7103132903bb934ba3a32b7103237bbb760411b606082015260800190565b60208082526018908201527714ddd9595c081d1bc818dbdb5c1bdd5b990819985a5b195960421b604082015260600190565b6020808252601f908201527f4661696c656420746f207472616e7366657220666f7220776974686472617700604082015260600190565b60208082526023908201527f52657365727665207472616e7366657220776173206e6f742073756363657373604082015262199d5b60ea1b606082015260800190565b6020808252601a908201527f53776565702066726f6d20636f6d706f756e64206661696c6564000000000000604082015260600190565b60208082526030908201527f416363657373436f6e74726f6c3a2073656e646572206d75737420626520616e60408201526f2061646d696e20746f207265766f6b6560801b606082015260800190565b60208082526010908201526f14185d5cd8589b194e881c185d5cd95960821b604082015260600190565b60208082526037908201527f4465706f73697420776f756c6420707574207468652073656e696f7220706f6f604082015276361037bb32b9103a3432903a37ba30b6103634b6b4ba1760491b606082015260800190565b602080825260129082015271141bdbdb081b5d5cdd081899481d985b1a5960721b604082015260600190565b6020808252818101527f4f776e65722063616e6e6f7420626520746865207a65726f2061646472657373604082015260600190565b60208082526021908201527f536166654d6174683a206d756c7469706c69636174696f6e206f766572666c6f6040820152607760f81b606082015260800190565b6020808252602e908201527f436f6e747261637420696e7374616e63652068617320616c726561647920626560408201526d195b881a5b9a5d1a585b1a5e995960921b606082015260800190565b602080825260189082015277155b995e1c1958dd1959081c995919595b48185b5bdd5b9d60421b604082015260600190565b6020808252601c908201527f4d757374207769746864726177206d6f7265207468616e207a65726f00000000604082015260600190565b60208082526022908201527f496e766573746d656e7420616d6f756e74206d75737420626520706f73697469604082015261766560f01b606082015260800190565b6020808252601f908201527f5265656e7472616e637947756172643a207265656e7472616e742063616c6c00604082015260600190565b60208082526023908201527f4661696c656420746f20617070726f7665205553444320666f7220636f6d706f6040820152621d5b9960ea1b606082015260800190565b6020808252602b908201527f4d75737420686176652061646d696e20726f6c6520746f20706572666f726d2060408201526a3a3434b99030b1ba34b7b760a91b606082015260800190565b6020808252602f908201527f416363657373436f6e74726f6c3a2063616e206f6e6c792072656e6f756e636560408201526e103937b632b9903337b91039b2b63360891b606082015260800190565b6020808252601b908201527f4d757374206465706f736974206d6f7265207468616e207a65726f0000000000604082015260600190565b918252602082015260400190565b6001600160a01b0381168114610f3957600080fdfeb19546dff01e856fb3f010c267a7b1c60363cf8a4664e21cc89c26224620214e65d7a28e3265b37a6474929f336521b332c1681b933f6cb9f3376673440d862aa2646970667358221220bb7aea61cbf59acbb3924aed22b7b50176c2244cf4db57b228eb3ff4d2c2f3be64736f6c634300060c0033",
  "deployedBytecode": "0x608060405234801561001057600080fd5b50600436106101f75760003560e01c8063855cb21b11610120578063b6b55f25116100b8578063db006a751161007c578063db006a75146103ff578063e58378bb14610412578063e63ab1e91461041a578063ed80c85014610422578063f1a80e621461042a576101f7565b8063b6b55f25146103ab578063b6db75a0146103be578063ca15c873146103c6578063d547741f146103d9578063d78a5c65146103ec576101f7565b8063855cb21b14610337578063872697291461034a5780638836d902146103525780639010d07c1461035a57806391d148541461036d578063945ed49a146103805780639e4a88e114610393578063a217fddf1461039b578063a6f4487e146103a3576101f7565b80634f92a728116101935780634f92a728146102b4578063526d81f6146102bc57806358031d12146102c45780635c975abb146102d757806371a97305146102ec578063722eeec3146102f457806379502c55146103075780637e30cdff1461031c5780638456cb591461032f576101f7565b806303f9c793146101fc578063097616a314610211578063248a9ca3146102245780632e1a7d4d1461024d5780632f2ff15d1461026057806336568abe146102735780633f4ba83a14610286578063485cc9551461028e5780634a970be7146102a1575b600080fd5b61020f61020a366004613446565b610432565b005b61020f61021f366004613446565b61066e565b6102376102323660046134d6565b61079e565b60405161024491906136cc565b60405180910390f35b61023761025b3660046134d6565b6107b3565b61020f61026e3660046134ee565b61090f565b61020f6102813660046134ee565b610953565b61020f610995565b61020f61029c36600461347e565b6109d5565b6102376102af3660046135e2565b610d86565b61020f610e1b565b61020f610eb1565b6102376102d23660046134d6565b610f3c565b6102df61109a565b60405161024491906136c1565b6102376110a3565b6102376103023660046134d6565b611169565b61030f61123b565b604051610244919061362f565b61023761032a366004613446565b61124b565b61020f611313565b6102376103453660046134d6565b611351565b610237611380565b61020f611387565b61030f610368366004613512565b6113d6565b6102df61037b3660046134ee565b6113ee565b61020f61038e3660046134d6565b611406565b61020f6116ec565b610237611950565b610237611955565b6102376103b93660046134d6565b61195c565b6102df611bb3565b6102376103d43660046134d6565b611bcf565b61020f6103e73660046134ee565b611be6565b6102376103fa366004613446565b611c20565b61020f61040d3660046134d6565b611c33565b610237611dcd565b610237611ddf565b610237611df1565b610237611df8565b60975460ff161561045e5760405162461bcd60e51b815260040161045590613c78565b60405180910390fd5b60c95460ff166104805760405162461bcd60e51b815260040161045590613e94565b60c9805460ff1916905561049381611dff565b6104af5760405162461bcd60e51b815260040161045590613cf9565b6101c754156104c0576104c0611e93565b6101c6546000906104d9906001600160a01b0316611f33565b90506000816001600160a01b031663ff8a4efe30856040518363ffffffff1660e01b815260040161050b929190613703565b60206040518083038186803b15801561052357600080fd5b505afa158015610537573d6000803e3d6000fd5b505050506040513d601f19601f8201168201806040525081019061055b91906135a7565b90506000811161057d5760405162461bcd60e51b815260040161045590613e52565b6105878382611f3e565b604051631c57762b60e31b81526001600160a01b0384169063e2bbb158906105b6906001908590600401613fdf565b602060405180830381600087803b1580156105d057600080fd5b505af11580156105e4573d6000803e3d6000fd5b505050506040513d601f19601f8201168201806040525081019061060891906135a7565b50826001600160a01b03167f86da25fff7a4075a94de2ffed109ca6748c3af22736eaf7efc75e3988f899d6e8260405161064291906136cc565b60405180910390a26101c4546106589082611ffa565b6101c455505060c9805460ff1916600117905550565b600054610100900460ff1680610687575061068761201f565b80610695575060005460ff16155b6106b15760405162461bcd60e51b815260040161045590613d9b565b600054610100900460ff161580156106dc576000805460ff1961ff0019909116610100171660011790555b6001600160a01b0382166107025760405162461bcd60e51b815260040161045590613d25565b61070a612025565b6107126120a6565b61071a612132565b61073260008051602061400383398151915283610949565b61074a60008051602061402383398151915283610949565b6107706000805160206140238339815191526000805160206140038339815191526121c1565b610788600080516020614003833981519152806121c1565b801561079a576000805461ff00191690555b5050565b60009081526065602052604090206002015490565b60975460009060ff16156107d95760405162461bcd60e51b815260040161045590613c78565b60c95460ff166107fb5760405162461bcd60e51b815260040161045590613e94565b60c9805460ff191690556101c65461081b906001600160a01b03166121d6565b6001600160a01b031663a37b92c9336040518263ffffffff1660e01b8152600401610846919061362f565b60206040518083038186803b15801561085e57600080fd5b505afa158015610872573d6000803e3d6000fd5b505050506040513d601f19601f8201168201806040525081019061089691906134b6565b6108b25760405162461bcd60e51b815260040161045590613770565b600082116108d25760405162461bcd60e51b815260040161045590613e1b565b6101c754156108e3576108e3611e93565b60006108ee83611351565b90506108fa83826121e1565b91505060c9805460ff19166001179055919050565b60008281526065602052604090206002015461092d9061037b6123b3565b6109495760405162461bcd60e51b815260040161045590613863565b61079a82826123b7565b61095b6123b3565b6001600160a01b0316816001600160a01b03161461098b5760405162461bcd60e51b815260040161045590613f59565b61079a8282612420565b6109af60008051602061402383398151915261037b6123b3565b6109cb5760405162461bcd60e51b815260040161045590613a16565b6109d3612489565b565b600054610100900460ff16806109ee57506109ee61201f565b806109fc575060005460ff16155b610a185760405162461bcd60e51b815260040161045590613d9b565b600054610100900460ff16158015610a43576000805460ff1961ff0019909116610100171660011790555b6001600160a01b03831615801590610a6357506001600160a01b03821615155b610a7f5760405162461bcd60e51b815260040161045590613967565b610a888361066e565b6101c680546001600160a01b0319166001600160a01b038481169190911791829055610ab491166124f5565b6001600160a01b031663872697296040518163ffffffff1660e01b815260040160206040518083038186803b158015610aec57600080fd5b505afa158015610b00573d6000803e3d6000fd5b505050506040513d601f19601f82011682018060405250810190610b2491906135a7565b6101c3556101c654610b3e906001600160a01b0316612500565b6001600160a01b031663ed80c8506040518163ffffffff1660e01b815260040160206040518083038186803b158015610b7657600080fd5b505afa158015610b8a573d6000803e3d6000fd5b505050506040513d601f19601f82011682018060405250810190610bae91906135a7565b6101c4556101c654610bc8906001600160a01b0316612500565b6001600160a01b031663a6f4487e6040518163ffffffff1660e01b815260040160206040518083038186803b158015610c0057600080fd5b505afa158015610c14573d6000803e3d6000fd5b505050506040513d601f19601f82011682018060405250810190610c3891906135a7565b6101c5556101c654600090610c55906001600160a01b031661250b565b9050806001600160a01b03166318160ddd6040518163ffffffff1660e01b815260040160206040518083038186803b158015610c9057600080fd5b505afa158015610ca4573d6000803e3d6000fd5b505050506040513d601f19601f82011682018060405250810190610cc891906135a7565b5060405163095ea7b360e01b81526000906001600160a01b0383169063095ea7b390610cfc90309060001990600401613684565b602060405180830381600087803b158015610d1657600080fd5b505af1158015610d2a573d6000803e3d6000fd5b505050506040513d601f19601f82011682018060405250810190610d4e91906134b6565b905080610d6d5760405162461bcd60e51b8152600401610455906138e0565b50508015610d81576000805461ff00191690555b505050565b6101c654600090610d9f906001600160a01b0316612512565b6001600160a01b031663d505accf333089898989896040518863ffffffff1660e01b8152600401610dd69796959493929190613643565b600060405180830381600087803b158015610df057600080fd5b505af1158015610e04573d6000803e3d6000fd5b50505050610e118661195c565b9695505050505050565b610e23611bb3565b610e3f5760405162461bcd60e51b815260040161045590613f0e565b6101c654610e55906001600160a01b0316612592565b6101c680546001600160a01b0319166001600160a01b03928316179081905560405133927f7c76c17de59691df2ef36af3938c91f69cd18ad27f67a54a38e38686f0b40c4992610ea79291169061362f565b60405180910390a2565b600054610100900460ff1680610eca5750610eca61201f565b80610ed8575060005460ff16155b610ef45760405162461bcd60e51b815260040161045590613d9b565b600054610100900460ff16158015610f1f576000805460ff1961ff0019909116610100171660011790555b610f276120a6565b8015610f39576000805461ff00191690555b50565b60975460009060ff1615610f625760405162461bcd60e51b815260040161045590613c78565b60c95460ff16610f845760405162461bcd60e51b815260040161045590613e94565b60c9805460ff191690556101c654610fa4906001600160a01b03166121d6565b6001600160a01b031663a37b92c9336040518263ffffffff1660e01b8152600401610fcf919061362f565b60206040518083038186803b158015610fe757600080fd5b505afa158015610ffb573d6000803e3d6000fd5b505050506040513d601f19601f8201168201806040525081019061101f91906134b6565b61103b5760405162461bcd60e51b815260040161045590613770565b6000821161105b5760405162461bcd60e51b815260040161045590613e1b565b6101c7541561106c5761106c611e93565b6000611077836125aa565b90508261108482826121e1565b9250505060c9805460ff19166001179055919050565b60975460ff1690565b6101c5546101c4546101c65460009261116492909161115e9190611158906110d3906001600160a01b031661250b565b6001600160a01b03166370a08231306040518263ffffffff1660e01b81526004016110fe919061362f565b60206040518083038186803b15801561111657600080fd5b505afa15801561112a573d6000803e3d6000fd5b505050506040513d601f19601f8201168201806040525081019061114e91906135a7565b6101c75490611ffa565b90611ffa565b906125ce565b905090565b600061117361340e565b6101c654611189906001600160a01b0316612610565b6001600160a01b0316638c7a63ae846040518263ffffffff1660e01b81526004016111b491906136cc565b60a06040518083038186803b1580156111cc57600080fd5b505afa1580156111e0573d6000803e3d6000fd5b505050506040513d601f19601f820116820180604052508101906112049190613533565b805160608201516040830151929350909160009161122291906125ce565b90506000611230838361261b565b979650505050505050565b6101c6546001600160a01b031681565b600061125682611dff565b6112725760405162461bcd60e51b815260040161045590613cf9565b6101c65460009061128b906001600160a01b0316611f33565b604051631f999a2d60e01b81529091506001600160a01b03821690631f999a2d906112bc9030908790600401613703565b60206040518083038186803b1580156112d457600080fd5b505afa1580156112e8573d6000803e3d6000fd5b505050506040513d601f19601f8201168201806040525081019061130c91906135a7565b9392505050565b61132d60008051602061402383398151915261037b6123b3565b6113495760405162461bcd60e51b815260040161045590613a16565b6109d3612758565b600061137a6101c3546113746113656127b1565b61136e866127bd565b906127d8565b90612812565b92915050565b6101c35481565b61138f611bb3565b6113ab5760405162461bcd60e51b815260040161045590613f0e565b60975460ff16156113ce5760405162461bcd60e51b815260040161045590613c78565b6109d3611e93565b600082815260656020526040812061130c9083612854565b600082815260656020526040812061130c9083612860565b60975460ff16156114295760405162461bcd60e51b815260040161045590613c78565b60c95460ff1661144b5760405162461bcd60e51b815260040161045590613e94565b60c9805460ff191690556101c65460009061146e906001600160a01b0316612610565b6040516331a9108f60e11b81529091506001600160a01b03821690636352211e9061149d9085906004016136cc565b60206040518083038186803b1580156114b557600080fd5b505afa1580156114c9573d6000803e3d6000fd5b505050506040513d601f19601f820116820180604052508101906114ed9190613462565b6001600160a01b0316306001600160a01b03161461151d5760405162461bcd60e51b815260040161045590613aed565b61152561340e565b60405163463d31d760e11b81526001600160a01b03831690638c7a63ae906115519086906004016136cc565b60a06040518083038186803b15801561156957600080fd5b505afa15801561157d573d6000803e3d6000fd5b505050506040513d601f19601f820116820180604052508101906115a19190613533565b80519091506115af81611dff565b6115cb5760405162461bcd60e51b815260040161045590613cf9565b60006115e8836060015184604001516125ce90919063ffffffff16565b90506000806115f7848461261b565b6001600160a01b03861660009081526101c86020526040902054919350915082158015611622575080155b1561163357505050505050506116dc565b6001600160a01b03851660009081526101c86020526040902082905581810361165b81612875565b600081131561167b576101c55461167290826125ce565b6101c555611692565b6101c55461168d906000839003611ffa565b6101c5555b856001600160a01b03167f176e189790e519c3382df7234bd391cc24005bf9cfaaa9de00103c208e10a274826040516116cb91906136cc565b60405180910390a250505050505050505b5060c9805460ff19166001179055565b6116f4611bb3565b6117105760405162461bcd60e51b815260040161045590613f0e565b60975460ff16156117335760405162461bcd60e51b815260040161045590613c78565b6101c65460009061174c906001600160a01b031661250b565b90506000816001600160a01b03166370a08231306040518263ffffffff1660e01b815260040161177c919061362f565b60206040518083038186803b15801561179457600080fd5b505afa1580156117a8573d6000803e3d6000fd5b505050506040513d601f19601f820116820180604052508101906117cc91906135a7565b6101c6549091506000906117e8906001600160a01b03166128cc565b90506000836001600160a01b031663095ea7b383856040518363ffffffff1660e01b815260040161181a929190613684565b602060405180830381600087803b15801561183457600080fd5b505af1158015611848573d6000803e3d6000fd5b505050506040513d601f19601f8201168201806040525081019061186c91906134b6565b90508061188b5760405162461bcd60e51b815260040161045590613ecb565b61189582846128d7565b6101c6546118ab906001600160a01b031661250b565b6001600160a01b031663095ea7b38360006040518363ffffffff1660e01b81526004016118d9929190613684565b602060405180830381600087803b1580156118f357600080fd5b505af1158015611907573d6000803e3d6000fd5b505050506040513d601f19601f8201168201806040525081019061192b91906134b6565b90508061194a5760405162461bcd60e51b815260040161045590613ecb565b50505050565b600081565b6101c55481565b60975460009060ff16156119825760405162461bcd60e51b815260040161045590613c78565b60c95460ff166119a45760405162461bcd60e51b815260040161045590613e94565b60c9805460ff191690556101c6546119c4906001600160a01b03166121d6565b6001600160a01b031663a37b92c9336040518263ffffffff1660e01b81526004016119ef919061362f565b60206040518083038186803b158015611a0757600080fd5b505afa158015611a1b573d6000803e3d6000fd5b505050506040513d601f19601f82011682018060405250810190611a3f91906134b6565b611a5b5760405162461bcd60e51b815260040161045590613770565b60008211611a7b5760405162461bcd60e51b815260040161045590613fa8565b611a8482611351565b90506000611a94826111586129be565b9050611a9f81612a47565b611abb5760405162461bcd60e51b815260040161045590613ca2565b336001600160a01b03167f0b05f0d1cd0819f155b8a61f60baf7767c1ee49d04aeaab701df236140eb93f98484604051611af6929190613fdf565b60405180910390a26000611b0b333086612ae6565b905080611b2a5760405162461bcd60e51b81526004016104559061382c565b6101c654611b40906001600160a01b0316612bb5565b6001600160a01b031663449a52f833856040518363ffffffff1660e01b8152600401611b6d929190613684565b600060405180830381600087803b158015611b8757600080fd5b505af1158015611b9b573d6000803e3d6000fd5b50505050505060c9805460ff19166001179055919050565b600061116460008051602061400383398151915261037b6123b3565b600081815260656020526040812061137a90612bc0565b600082815260656020526040902060020154611c049061037b6123b3565b61098b5760405162461bcd60e51b815260040161045590613c28565b6101c86020526000908152604090205481565b60975460ff1615611c565760405162461bcd60e51b815260040161045590613c78565b60c95460ff16611c785760405162461bcd60e51b815260040161045590613e94565b60c9805460ff191690556101c654600090611c9b906001600160a01b0316612610565b9050611ca561340e565b60405163463d31d760e11b81526001600160a01b03831690638c7a63ae90611cd19086906004016136cc565b60a06040518083038186803b158015611ce957600080fd5b505afa158015611cfd573d6000803e3d6000fd5b505050506040513d601f19601f82011682018060405250810190611d219190613533565b8051604051632a8a9f1360e21b81529192509060009081906001600160a01b0384169063aa2a7c4c90611d589089906004016136cc565b6040805180830381600087803b158015611d7157600080fd5b505af1158015611d85573d6000803e3d6000fd5b505050506040513d601f19601f82011682018060405250810190611da991906135bf565b91509150611db8838383612bcb565b505060c9805460ff1916600117905550505050565b60008051602061400383398151915281565b60008051602061402383398151915281565b6101c45481565b6101c75481565b6101c654600090611e18906001600160a01b0316612610565b6001600160a01b031663b5ada6d8836040518263ffffffff1660e01b8152600401611e43919061362f565b60206040518083038186803b158015611e5b57600080fd5b505afa158015611e6f573d6000803e3d6000fd5b505050506040513d601f19601f8201168201806040525081019061137a91906134b6565b6101c654600090611eac906001600160a01b03166128cc565b9050610f3981826001600160a01b03166370a08231306040518263ffffffff1660e01b8152600401611ede919061362f565b60206040518083038186803b158015611ef657600080fd5b505afa158015611f0a573d6000803e3d6000fd5b505050506040513d601f19601f82011682018060405250810190611f2e91906135a7565b612c92565b600061137a82612fab565b6101c654600090611f57906001600160a01b031661250b565b90506000816001600160a01b031663095ea7b385856040518363ffffffff1660e01b8152600401611f89929190613684565b602060405180830381600087803b158015611fa357600080fd5b505af1158015611fb7573d6000803e3d6000fd5b505050506040513d601f19601f82011682018060405250810190611fdb91906134b6565b90508061194a5760405162461bcd60e51b8152600401610455906138e0565b60008282018381101561130c5760405162461bcd60e51b815260040161045590613a62565b303b1590565b600054610100900460ff168061203e575061203e61201f565b8061204c575060005460ff16155b6120685760405162461bcd60e51b815260040161045590613d9b565b600054610100900460ff16158015610f27576000805460ff1961ff0019909116610100171660011790558015610f39576000805461ff001916905550565b600054610100900460ff16806120bf57506120bf61201f565b806120cd575060005460ff16155b6120e95760405162461bcd60e51b815260040161045590613d9b565b600054610100900460ff16158015612114576000805460ff1961ff0019909116610100171660011790555b6097805460ff191690558015610f39576000805461ff001916905550565b600054610100900460ff168061214b575061214b61201f565b80612159575060005460ff16155b6121755760405162461bcd60e51b815260040161045590613d9b565b600054610100900460ff161580156121a0576000805460ff1961ff0019909116610100171660011790555b60c9805460ff191660011790558015610f39576000805461ff001916905550565b60009182526065602052604090912060020155565b600061137a82612fc3565b6101c65460009081906121fc906001600160a01b0316612bb5565b90506000816001600160a01b03166370a08231336040518263ffffffff1660e01b815260040161222c919061362f565b60206040518083038186803b15801561224457600080fd5b505afa158015612258573d6000803e3d6000fd5b505050506040513d601f19601f8201168201806040525081019061227c91906135a7565b90508084111561229e5760405162461bcd60e51b815260040161045590613910565b6101c6546000906122c2906122bb906001600160a01b0316612fdb565b8790612812565b90506122ce86826125ce565b9350336001600160a01b03167f2d4d49c3e017b8235c908cbaa83a2431a08f3b950712696ece2088964fd399f0858360405161230b929190613fdf565b60405180910390a26000612320303387612ae6565b90508061233f5760405162461bcd60e51b815260040161045590613b77565b612349823361305b565b60405163079cc67960e41b81526001600160a01b038516906379cc6790906123779033908a90600401613684565b600060405180830381600087803b15801561239157600080fd5b505af11580156123a5573d6000803e3d6000fd5b505050505050505092915050565b3390565b60008281526065602052604090206123cf90826130e0565b1561079a576123dc6123b3565b6001600160a01b0316816001600160a01b0316837f2f8788117e7eff1d82e926ec794901d17c78024a50270940304540a733656f0d60405160405180910390a45050565b600082815260656020526040902061243890826130f5565b1561079a576124456123b3565b6001600160a01b0316816001600160a01b0316837ff6391f5c32d9c69d2a47ea670b442974b53935d1edc7fd64eb21e047a839171b60405160405180910390a45050565b60975460ff166124ab5760405162461bcd60e51b8152600401610455906138b2565b6097805460ff191690557f5db9ee0a495bf2e6ff9c91a7834c1ba4fdd244a5e8aa4e537bd38aeae4b073aa6124de6123b3565b6040516124eb919061362f565b60405180910390a1565b600061137a8261310a565b600061137a82613121565b600061137a825b60006001600160a01b03821663b93f9b0a60055b6040518263ffffffff1660e01b815260040161254291906136cc565b60206040518083038186803b15801561255a57600080fd5b505afa15801561256e573d6000803e3d6000fd5b505050506040513d601f19601f8201168201806040525081019061137a9190613462565b60006001600160a01b03821663b93f9b0a600b612526565b600061137a6125c96125ba6127b1565b6101c3546113749086906127d8565b613139565b600061130c83836040518060400160405280601e81526020017f536166654d6174683a207375627472616374696f6e206f766572666c6f770000815250613151565b600061137a8261317d565b60008073__$1dcd660c042b25ef260537b13a3f0ede49$__6397aec1ab856001600160a01b03166347195e136040518163ffffffff1660e01b815260040160206040518083038186803b15801561267157600080fd5b505afa158015612685573d6000803e3d6000fd5b505050506040513d601f19601f820116820180604052508101906126a99190613462565b856126b2613195565b6101c6546126c8906001600160a01b0316613199565b6101c6546126de906001600160a01b03166131b1565b6040518663ffffffff1660e01b81526004016126fe9594939291906136d5565b604080518083038186803b15801561271557600080fd5b505af4158015612729573d6000803e3d6000fd5b505050506040513d601f19601f8201168201806040525081019061274d91906135bf565b915091509250929050565b60975460ff161561277b5760405162461bcd60e51b815260040161045590613c78565b6097805460ff191660011790557f62e78cea01bee320cd4e420270b5ea74000d11b0c9f74754ebdbfc544b05a2586124de6123b3565b670de0b6b3a764000090565b600061137a6127ca6131c9565b6113746127d56127b1565b85905b6000826127e75750600061137a565b828202828482816127f457fe5b041461130c5760405162461bcd60e51b815260040161045590613d5a565b600061130c83836040518060400160405280601a81526020017f536166654d6174683a206469766973696f6e206279207a65726f0000000000008152506131d0565b600061130c8383613207565b600061130c836001600160a01b03841661324c565b60008113156128a457600061288982613264565b6101c35490915061289a9082611ffa565b6101c35550610f39565b60006128b38260001902613264565b6101c3549091506128c490826125ce565b6101c3555050565b600061137a8261327c565b6101c754156128f85760405162461bcd60e51b815260040161045590613a99565b806129155760405162461bcd60e51b8152600401610455906137b3565b60405163140e25ad60e31b81526000906001600160a01b0384169063a0712d68906129449085906004016136cc565b602060405180830381600087803b15801561295e57600080fd5b505af1158015612972573d6000803e3d6000fd5b505050506040513d601f19601f8201168201806040525081019061299691906135a7565b905080156129b65760405162461bcd60e51b815260040161045590613b45565b506101c75550565b6101c6546000906129d7906001600160a01b0316612bb5565b6001600160a01b03166318160ddd6040518163ffffffff1660e01b815260040160206040518083038186803b158015612a0f57600080fd5b505afa158015612a23573d6000803e3d6000fd5b505050506040513d601f19601f8201168201806040525081019061116491906135a7565b6101c654600090612ad3906001600160a01b031663fc56365860016040518263ffffffff1660e01b8152600401612a7e91906136cc565b60206040518083038186803b158015612a9657600080fd5b505afa158015612aaa573d6000803e3d6000fd5b505050506040513d601f19601f82011682018060405250810190612ace91906135a7565b6127bd565b612ade6125ba6127b1565b111592915050565b60006001600160a01b038316612b0e5760405162461bcd60e51b8152600401610455906139b1565b6101c654600090612b27906001600160a01b031661250b565b6040516323b872dd60e01b81529091506001600160a01b038216906323b872dd90612b5a9088908890889060040161369d565b602060405180830381600087803b158015612b7457600080fd5b505af1158015612b88573d6000803e3d6000fd5b505050506040513d601f19601f82011682018060405250810190612bac91906134b6565b95945050505050565b600061137a82613294565b600061137a826132ac565b6000612bd683613264565b6101c354909150612be79082611ffa565b6101c3558215612c3357836001600160a01b03167fed3bc1b58411ea8e764b3ef8fa6b654877bc1e796a5a1a2373dfc8f1c0e0ea4884604051612c2a91906136cc565b60405180910390a25b811561194a57836001600160a01b03167f8295ad220549851bab232c2a7ae2e3c53a63d2294602bc85f8d8af108778a37e83604051612c7291906136cc565b60405180910390a26101c454612c8890836125ce565b6101c45550505050565b6101c75480612cb35760405162461bcd60e51b8152600401610455906139e8565b81612cd05760405162461bcd60e51b8152600401610455906137b3565b6101c654600090612ce9906001600160a01b031661250b565b90506000816001600160a01b03166370a08231306040518263ffffffff1660e01b8152600401612d19919061362f565b60206040518083038186803b158015612d3157600080fd5b505afa158015612d45573d6000803e3d6000fd5b505050506040513d601f19601f82011682018060405250810190612d6991906135a7565b90506000856001600160a01b031663bd6d894d6040518163ffffffff1660e01b8152600401602060405180830381600087803b158015612da857600080fd5b505af1158015612dbc573d6000803e3d6000fd5b505050506040513d601f19601f82011682018060405250810190612de091906135a7565b90506000612dee82876132b0565b90506000876001600160a01b031663db006a75886040518263ffffffff1660e01b8152600401612e1e91906136cc565b602060405180830381600087803b158015612e3857600080fd5b505af1158015612e4c573d6000803e3d6000fd5b505050506040513d601f19601f82011682018060405250810190612e7091906135a7565b90506000856001600160a01b03166370a08231306040518263ffffffff1660e01b8152600401612ea0919061362f565b60206040518083038186803b158015612eb857600080fd5b505afa158015612ecc573d6000803e3d6000fd5b505050506040513d601f19601f82011682018060405250810190612ef091906135a7565b90508115612f105760405162461bcd60e51b815260040161045590613bf1565b82612f1b82876125ce565b14612f385760405162461bcd60e51b815260040161045590613de9565b6000612f4484896125ce565b6101c654909150600090612f6b90612f64906001600160a01b03166132ce565b8390612812565b90506000612f7983836125ce565b9050612f8730826000612bcb565b8115612f9757612f97828d61305b565b505060006101c75550505050505050505050565b60006001600160a01b03821663b93f9b0a600f612526565b60006001600160a01b03821663b93f9b0a6013612526565b60006001600160a01b03821663fc56365860045b6040518263ffffffff1660e01b815260040161300b91906136cc565b60206040518083038186803b15801561302357600080fd5b505afa158015613037573d6000803e3d6000fd5b505050506040513d601f19601f8201168201806040525081019061137a91906135a7565b806001600160a01b03167ff3583f178a8d4f8888c3683f8e948faf9b6eb701c4f1fab265a6ecad1a1ddebb8360405161309491906136cc565b60405180910390a26101c6546000906130c19030906130bb906001600160a01b03166132e6565b85612ae6565b905080610d815760405162461bcd60e51b815260040161045590613bae565b600061130c836001600160a01b0384166132fe565b600061130c836001600160a01b038416613348565b60006001600160a01b03821663b93f9b0a82612526565b60006001600160a01b03821663b93f9b0a6003612526565b600061137a612f646131496131c9565b6113746127b1565b600081848411156131755760405162461bcd60e51b8152600401610455919061371d565b505050900390565b60006001600160a01b03821663b93f9b0a600c612526565b4290565b60006001600160a01b03821663fc5636586005612fef565b60006001600160a01b03821663fc5636586006612fef565b620f424090565b600081836131f15760405162461bcd60e51b8152600401610455919061371d565b5060008385816131fd57fe5b0495945050505050565b8154600090821061322a5760405162461bcd60e51b8152600401610455906137ea565b82600001828154811061323957fe5b9060005260206000200154905092915050565b60009081526001919091016020526040902054151590565b600061137a6132716129be565b6113746113656127b1565b60006001600160a01b03821663b93f9b0a600a612526565b60006001600160a01b03821663b93f9b0a6004612526565b5490565b600060066008612bac6064611374662386f26fc1000081888a6127d8565b60006001600160a01b03821663fc5636586003612fef565b60006001600160a01b03821663b93f9b0a6006612526565b600061330a838361324c565b6133405750815460018181018455600084815260208082209093018490558454848252828601909352604090209190915561137a565b50600061137a565b60008181526001830160205260408120548015613404578354600019808301919081019060009087908390811061337b57fe5b906000526020600020015490508087600001848154811061339857fe5b6000918252602080832090910192909255828152600189810190925260409020908401905586548790806133c857fe5b6001900381819060005260206000200160009055905586600101600087815260200190815260200160002060009055600194505050505061137a565b600091505061137a565b6040518060a0016040528060006001600160a01b03168152602001600081526020016000815260200160008152602001600081525090565b600060208284031215613457578081fd5b813561130c81613fed565b600060208284031215613473578081fd5b815161130c81613fed565b60008060408385031215613490578081fd5b823561349b81613fed565b915060208301356134ab81613fed565b809150509250929050565b6000602082840312156134c7578081fd5b8151801515811461130c578182fd5b6000602082840312156134e7578081fd5b5035919050565b60008060408385031215613500578182fd5b8235915060208301356134ab81613fed565b60008060408385031215613524578182fd5b50508035926020909101359150565b600060a08284031215613544578081fd5b60405160a0810181811067ffffffffffffffff82111715613563578283fd5b604052825161357181613fed565b80825250602083015160208201526040830151604082015260608301516060820152608083015160808201528091505092915050565b6000602082840312156135b8578081fd5b5051919050565b600080604083850312156135d1578182fd5b505080516020909101519092909150565b600080600080600060a086880312156135f9578081fd5b8535945060208601359350604086013560ff81168114613617578182fd5b94979396509394606081013594506080013592915050565b6001600160a01b0391909116815260200190565b6001600160a01b0397881681529590961660208601526040850193909352606084019190915260ff16608083015260a082015260c081019190915260e00190565b6001600160a01b03929092168252602082015260400190565b6001600160a01b039384168152919092166020820152604081019190915260600190565b901515815260200190565b90815260200190565b6001600160a01b03959095168552602085019390935260408401919091526060830152608082015260a00190565b6001600160a01b0392831681529116602082015260400190565b6000602080835283518082850152825b818110156137495785810183015185820160400152820161372d565b8181111561375a5783604083870101525b50601f01601f1916929092016040019392505050565b60208082526023908201527f54686973206164647265737320686173206e6f74206265656e20676f2d6c69736040820152621d195960ea1b606082015260800190565b6020808252601e908201527f416d6f756e7420746f2073776565702063616e6e6f74206265207a65726f0000604082015260600190565b60208082526022908201527f456e756d657261626c655365743a20696e646578206f7574206f6620626f756e604082015261647360f01b606082015260800190565b6020808252601e908201527f4661696c656420746f207472616e7366657220666f72206465706f7369740000604082015260600190565b6020808252602f908201527f416363657373436f6e74726f6c3a2073656e646572206d75737420626520616e60408201526e0818591b5a5b881d1bc819dc985b9d608a1b606082015260800190565b60208082526014908201527314185d5cd8589b194e881b9bdd081c185d5cd95960621b604082015260600190565b6020808252601690820152754661696c656420746f20617070726f7665205553444360501b604082015260600190565b60208082526037908201527f416d6f756e74207265717565737465642069732067726561746572207468616e604082015276207768617420746869732061646472657373206f776e7360481b606082015260800190565b6020808252602a908201527f4f776e657220616e6420636f6e666967206164647265737365732063616e6e6f6040820152697420626520656d70747960b01b606082015260800190565b6020808252601a908201527f43616e27742073656e6420746f207a65726f2061646472657373000000000000604082015260600190565b602080825260149082015273139bc8199d5b991cc81bdb8818dbdb5c1bdd5b9960621b604082015260600190565b6020808252602c908201527f4d75737420686176652070617573657220726f6c6520746f20706572666f726d60408201526b103a3434b99030b1ba34b7b760a11b606082015260800190565b6020808252601b908201527f536166654d6174683a206164646974696f6e206f766572666c6f770000000000604082015260600190565b60208082526034908201527f43616e6e6f74207377656570207768656e20776520616c72656164792068617660408201527365206120636f6d706f756e642062616c616e636560601b606082015260800190565b60208082526038908201527f4f6e6c7920746f6b656e73206f776e6564206279207468652073656e696f72206040820152773837b7b61031b0b7103132903bb934ba3a32b7103237bbb760411b606082015260800190565b60208082526018908201527714ddd9595c081d1bc818dbdb5c1bdd5b990819985a5b195960421b604082015260600190565b6020808252601f908201527f4661696c656420746f207472616e7366657220666f7220776974686472617700604082015260600190565b60208082526023908201527f52657365727665207472616e7366657220776173206e6f742073756363657373604082015262199d5b60ea1b606082015260800190565b6020808252601a908201527f53776565702066726f6d20636f6d706f756e64206661696c6564000000000000604082015260600190565b60208082526030908201527f416363657373436f6e74726f6c3a2073656e646572206d75737420626520616e60408201526f2061646d696e20746f207265766f6b6560801b606082015260800190565b60208082526010908201526f14185d5cd8589b194e881c185d5cd95960821b604082015260600190565b60208082526037908201527f4465706f73697420776f756c6420707574207468652073656e696f7220706f6f604082015276361037bb32b9103a3432903a37ba30b6103634b6b4ba1760491b606082015260800190565b602080825260129082015271141bdbdb081b5d5cdd081899481d985b1a5960721b604082015260600190565b6020808252818101527f4f776e65722063616e6e6f7420626520746865207a65726f2061646472657373604082015260600190565b60208082526021908201527f536166654d6174683a206d756c7469706c69636174696f6e206f766572666c6f6040820152607760f81b606082015260800190565b6020808252602e908201527f436f6e747261637420696e7374616e63652068617320616c726561647920626560408201526d195b881a5b9a5d1a585b1a5e995960921b606082015260800190565b602080825260189082015277155b995e1c1958dd1959081c995919595b48185b5bdd5b9d60421b604082015260600190565b6020808252601c908201527f4d757374207769746864726177206d6f7265207468616e207a65726f00000000604082015260600190565b60208082526022908201527f496e766573746d656e7420616d6f756e74206d75737420626520706f73697469604082015261766560f01b606082015260800190565b6020808252601f908201527f5265656e7472616e637947756172643a207265656e7472616e742063616c6c00604082015260600190565b60208082526023908201527f4661696c656420746f20617070726f7665205553444320666f7220636f6d706f6040820152621d5b9960ea1b606082015260800190565b6020808252602b908201527f4d75737420686176652061646d696e20726f6c6520746f20706572666f726d2060408201526a3a3434b99030b1ba34b7b760a91b606082015260800190565b6020808252602f908201527f416363657373436f6e74726f6c3a2063616e206f6e6c792072656e6f756e636560408201526e103937b632b9903337b91039b2b63360891b606082015260800190565b6020808252601b908201527f4d757374206465706f736974206d6f7265207468616e207a65726f0000000000604082015260600190565b918252602082015260400190565b6001600160a01b0381168114610f3957600080fdfeb19546dff01e856fb3f010c267a7b1c60363cf8a4664e21cc89c26224620214e65d7a28e3265b37a6474929f336521b332c1681b933f6cb9f3376673440d862aa2646970667358221220bb7aea61cbf59acbb3924aed22b7b50176c2244cf4db57b228eb3ff4d2c2f3be64736f6c634300060c0033",
  "libraries": {
    "Accountant": "0x2C3b080C7D0AA00242Ab5Ba131F7bB937bB21d64"
  },
  "devdoc": {
    "author": "Goldfinch",
    "kind": "dev",
    "methods": {
      "calculateWritedown(uint256)": {
        "params": {
          "tokenId": "The token reprsenting the position"
        },
        "returns": {
          "_0": "The amount in dollars the principal should be written down by"
        }
      },
      "deposit(uint256)": {
        "params": {
          "amount": "The amount of USDC to deposit"
        }
      },
      "depositWithPermit(uint256,uint256,uint8,bytes32,bytes32)": {
        "params": {
          "amount": "The amount of USDC to deposit",
          "r": "secp256k1 signature component",
          "s": "secp256k1 signature component",
          "v": "secp256k1 signature component"
        }
      },
      "getNumShares(uint256)": {
        "params": {
          "amount": "USDC amount to convert to FIDU"
        }
      },
      "getRoleAdmin(bytes32)": {
        "details": "Returns the admin role that controls `role`. See {grantRole} and {revokeRole}. To change a role's admin, use {_setRoleAdmin}."
      },
      "getRoleMember(bytes32,uint256)": {
        "details": "Returns one of the accounts that have `role`. `index` must be a value between 0 and {getRoleMemberCount}, non-inclusive. Role bearers are not sorted in any particular way, and their ordering may change at any point. WARNING: When using {getRoleMember} and {getRoleMemberCount}, make sure you perform all queries on the same block. See the following https://forum.openzeppelin.com/t/iterating-over-elements-on-enumerableset-in-openzeppelin-contracts/2296[forum post] for more information."
      },
      "getRoleMemberCount(bytes32)": {
        "details": "Returns the number of accounts that have `role`. Can be used together with {getRoleMember} to enumerate all bearers of a role."
      },
      "grantRole(bytes32,address)": {
        "details": "Grants `role` to `account`. If `account` had not been already granted `role`, emits a {RoleGranted} event. Requirements: - the caller must have ``role``'s admin role."
      },
      "hasRole(bytes32,address)": {
        "details": "Returns `true` if `account` has been granted `role`."
      },
      "invest(address)": {
        "params": {
          "pool": "An ITranchedPool whose senior tranche should be considered for investment"
        }
      },
      "pause()": {
        "details": "Pauses all functions guarded by Pause See {Pausable-_pause}. Requirements: - the caller must have the PAUSER_ROLE."
      },
      "paused()": {
        "details": "Returns true if the contract is paused, and false otherwise."
      },
      "redeem(uint256)": {
        "params": {
          "tokenId": "the ID of an IPoolTokens token to be redeemed"
        }
      },
      "renounceRole(bytes32,address)": {
        "details": "Revokes `role` from the calling account. Roles are often managed via {grantRole} and {revokeRole}: this function's purpose is to provide a mechanism for accounts to lose their privileges if they are compromised (such as when a trusted device is misplaced). If the calling account had been granted `role`, emits a {RoleRevoked} event. Requirements: - the caller must be `account`."
      },
      "revokeRole(bytes32,address)": {
        "details": "Revokes `role` from `account`. If `account` had been granted `role`, emits a {RoleRevoked} event. Requirements: - the caller must have ``role``'s admin role."
      },
      "unpause()": {
        "details": "Unpauses the contract See {Pausable-_unpause}. Requirements: - the caller must have the Pauser role"
      },
      "withdraw(uint256)": {
        "params": {
          "usdcAmount": "The amount of USDC to withdraw"
        }
      },
      "withdrawInFidu(uint256)": {
        "params": {
          "fiduAmount": "The amount of USDC to withdraw in terms of FIDU shares"
        }
      },
      "writedown(uint256)": {
        "params": {
          "tokenId": "the ID of an IPoolTokens token to be considered for writedown"
        }
      }
    },
    "title": "Goldfinch's SeniorPool contract",
    "version": 1
  },
  "userdoc": {
    "kind": "user",
    "methods": {
      "assets()": {
        "notice": "Returns the net assests controlled by and owed to the pool"
      },
      "calculateWritedown(uint256)": {
        "notice": "Calculates the writedown amount for a particular pool position"
      },
      "deposit(uint256)": {
        "notice": "Deposits `amount` USDC from msg.sender into the SeniorPool, and grants you the  equivalent value of FIDU tokens"
      },
      "depositWithPermit(uint256,uint256,uint8,bytes32,bytes32)": {
        "notice": "Identical to deposit, except it allows for a passed up signature to permit  the Senior Pool to move funds on behalf of the user, all within one transaction."
      },
      "getNumShares(uint256)": {
        "notice": "Converts and USDC amount to FIDU amount"
      },
      "invest(address)": {
        "notice": "Invest in an ITranchedPool's senior tranche using the senior pool's strategy"
      },
      "redeem(uint256)": {
        "notice": "Redeem interest and/or principal from an ITranchedPool investment"
      },
      "sweepFromCompound()": {
        "notice": "Moves any USDC from Compound back to the SeniorPool, and recognizes interest earned. This is done automatically on drawdown or withdraw, but can be called manually if necessary. Requirements:  - The caller must be an admin."
      },
      "sweepToCompound()": {
        "notice": "Moves any USDC still in the SeniorPool to Compound, and tracks the amount internally. This is done to earn interest on latent funds until we have other borrowers who can use it. Requirements:  - The caller must be an admin."
      },
      "updateGoldfinchConfig()": {
        "notice": "Migrates to a new goldfinch config address"
      },
      "withdraw(uint256)": {
        "notice": "Withdraws USDC from the SeniorPool to msg.sender, and burns the equivalent value of FIDU tokens"
      },
      "withdrawInFidu(uint256)": {
        "notice": "Withdraws USDC (denominated in FIDU terms) from the SeniorPool to msg.sender"
      },
      "writedown(uint256)": {
        "notice": "Write down an ITranchedPool investment. This will adjust the senior pool's share price  down if we're considering the investment a loss, or up if the borrower has subsequently  made repayments that restore confidence that the full loan will be repaid."
      }
    },
    "notice": "Main entry point for senior LPs (a.k.a. capital providers)  Automatically invests across borrower pools using an adjustable strategy.",
    "version": 1
  },
  "storageLayout": {
    "storage": [
      {
        "astId": 151,
        "contract": "contracts/protocol/core/SeniorPool.sol:SeniorPool",
        "label": "initialized",
        "offset": 0,
        "slot": "0",
        "type": "t_bool"
      },
      {
        "astId": 154,
        "contract": "contracts/protocol/core/SeniorPool.sol:SeniorPool",
        "label": "initializing",
        "offset": 1,
        "slot": "0",
        "type": "t_bool"
      },
      {
        "astId": 219,
        "contract": "contracts/protocol/core/SeniorPool.sol:SeniorPool",
        "label": "______gap",
        "offset": 0,
        "slot": "1",
        "type": "t_array(t_uint256)50_storage"
      },
      {
        "astId": 144,
        "contract": "contracts/protocol/core/SeniorPool.sol:SeniorPool",
        "label": "__gap",
        "offset": 0,
        "slot": "51",
        "type": "t_array(t_uint256)50_storage"
      },
      {
        "astId": 264,
        "contract": "contracts/protocol/core/SeniorPool.sol:SeniorPool",
        "label": "_roles",
        "offset": 0,
        "slot": "101",
        "type": "t_mapping(t_bytes32,t_struct(RoleData)260_storage)"
      },
      {
        "astId": 509,
        "contract": "contracts/protocol/core/SeniorPool.sol:SeniorPool",
        "label": "__gap",
        "offset": 0,
        "slot": "102",
        "type": "t_array(t_uint256)49_storage"
      },
      {
        "astId": 4429,
        "contract": "contracts/protocol/core/SeniorPool.sol:SeniorPool",
        "label": "_paused",
        "offset": 0,
        "slot": "151",
        "type": "t_bool"
      },
      {
        "astId": 4518,
        "contract": "contracts/protocol/core/SeniorPool.sol:SeniorPool",
        "label": "__gap",
        "offset": 0,
        "slot": "152",
        "type": "t_array(t_uint256)49_storage"
      },
      {
        "astId": 4527,
        "contract": "contracts/protocol/core/SeniorPool.sol:SeniorPool",
        "label": "_notEntered",
        "offset": 0,
        "slot": "201",
        "type": "t_bool"
      },
      {
        "astId": 4568,
        "contract": "contracts/protocol/core/SeniorPool.sol:SeniorPool",
        "label": "__gap",
        "offset": 0,
        "slot": "202",
        "type": "t_array(t_uint256)49_storage"
      },
      {
        "astId": 11937,
        "contract": "contracts/protocol/core/SeniorPool.sol:SeniorPool",
        "label": "__gap1",
        "offset": 0,
        "slot": "251",
        "type": "t_array(t_uint256)50_storage"
      },
      {
        "astId": 11941,
        "contract": "contracts/protocol/core/SeniorPool.sol:SeniorPool",
        "label": "__gap2",
        "offset": 0,
        "slot": "301",
        "type": "t_array(t_uint256)50_storage"
      },
      {
        "astId": 11945,
        "contract": "contracts/protocol/core/SeniorPool.sol:SeniorPool",
        "label": "__gap3",
        "offset": 0,
        "slot": "351",
        "type": "t_array(t_uint256)50_storage"
      },
      {
        "astId": 11949,
        "contract": "contracts/protocol/core/SeniorPool.sol:SeniorPool",
        "label": "__gap4",
        "offset": 0,
        "slot": "401",
        "type": "t_array(t_uint256)50_storage"
      },
      {
        "astId": 10192,
        "contract": "contracts/protocol/core/SeniorPool.sol:SeniorPool",
        "label": "sharePrice",
        "offset": 0,
        "slot": "451",
        "type": "t_uint256"
      },
      {
        "astId": 10194,
        "contract": "contracts/protocol/core/SeniorPool.sol:SeniorPool",
        "label": "totalLoansOutstanding",
        "offset": 0,
        "slot": "452",
        "type": "t_uint256"
      },
      {
        "astId": 10196,
        "contract": "contracts/protocol/core/SeniorPool.sol:SeniorPool",
        "label": "totalWritedowns",
        "offset": 0,
        "slot": "453",
        "type": "t_uint256"
      },
      {
        "astId": 20356,
        "contract": "contracts/protocol/core/SeniorPool.sol:SeniorPool",
        "label": "config",
        "offset": 0,
        "slot": "454",
        "type": "t_contract(GoldfinchConfig)17304"
      },
      {
        "astId": 20364,
        "contract": "contracts/protocol/core/SeniorPool.sol:SeniorPool",
        "label": "compoundBalance",
        "offset": 0,
        "slot": "455",
        "type": "t_uint256"
      },
      {
        "astId": 20368,
        "contract": "contracts/protocol/core/SeniorPool.sol:SeniorPool",
        "label": "writedowns",
        "offset": 0,
        "slot": "456",
        "type": "t_mapping(t_contract(ITranchedPool)10493,t_uint256)"
      }
    ],
    "types": {
      "t_array(t_bytes32)dyn_storage": {
        "base": "t_bytes32",
        "encoding": "dynamic_array",
        "label": "bytes32[]",
        "numberOfBytes": "32"
      },
      "t_array(t_uint256)49_storage": {
        "base": "t_uint256",
        "encoding": "inplace",
        "label": "uint256[49]",
        "numberOfBytes": "1568"
      },
      "t_array(t_uint256)50_storage": {
        "base": "t_uint256",
        "encoding": "inplace",
        "label": "uint256[50]",
        "numberOfBytes": "1600"
      },
      "t_bool": {
        "encoding": "inplace",
        "label": "bool",
        "numberOfBytes": "1"
      },
      "t_bytes32": {
        "encoding": "inplace",
        "label": "bytes32",
        "numberOfBytes": "32"
      },
      "t_contract(GoldfinchConfig)17304": {
        "encoding": "inplace",
        "label": "contract GoldfinchConfig",
        "numberOfBytes": "20"
      },
      "t_contract(ITranchedPool)10493": {
        "encoding": "inplace",
        "label": "contract ITranchedPool",
        "numberOfBytes": "20"
      },
      "t_mapping(t_bytes32,t_struct(RoleData)260_storage)": {
        "encoding": "mapping",
        "key": "t_bytes32",
        "label": "mapping(bytes32 => struct AccessControlUpgradeSafe.RoleData)",
        "numberOfBytes": "32",
        "value": "t_struct(RoleData)260_storage"
      },
      "t_mapping(t_bytes32,t_uint256)": {
        "encoding": "mapping",
        "key": "t_bytes32",
        "label": "mapping(bytes32 => uint256)",
        "numberOfBytes": "32",
        "value": "t_uint256"
      },
      "t_mapping(t_contract(ITranchedPool)10493,t_uint256)": {
        "encoding": "mapping",
        "key": "t_contract(ITranchedPool)10493",
        "label": "mapping(contract ITranchedPool => uint256)",
        "numberOfBytes": "32",
        "value": "t_uint256"
      },
      "t_struct(AddressSet)4204_storage": {
        "encoding": "inplace",
        "label": "struct EnumerableSet.AddressSet",
        "members": [
          {
            "astId": 4203,
            "contract": "contracts/protocol/core/SeniorPool.sol:SeniorPool",
            "label": "_inner",
            "offset": 0,
            "slot": "0",
            "type": "t_struct(Set)4024_storage"
          }
        ],
        "numberOfBytes": "64"
      },
      "t_struct(RoleData)260_storage": {
        "encoding": "inplace",
        "label": "struct AccessControlUpgradeSafe.RoleData",
        "members": [
          {
            "astId": 257,
            "contract": "contracts/protocol/core/SeniorPool.sol:SeniorPool",
            "label": "members",
            "offset": 0,
            "slot": "0",
            "type": "t_struct(AddressSet)4204_storage"
          },
          {
            "astId": 259,
            "contract": "contracts/protocol/core/SeniorPool.sol:SeniorPool",
            "label": "adminRole",
            "offset": 0,
            "slot": "2",
            "type": "t_bytes32"
          }
        ],
        "numberOfBytes": "96"
      },
      "t_struct(Set)4024_storage": {
        "encoding": "inplace",
        "label": "struct EnumerableSet.Set",
        "members": [
          {
            "astId": 4019,
            "contract": "contracts/protocol/core/SeniorPool.sol:SeniorPool",
            "label": "_values",
            "offset": 0,
            "slot": "0",
            "type": "t_array(t_bytes32)dyn_storage"
          },
          {
            "astId": 4023,
            "contract": "contracts/protocol/core/SeniorPool.sol:SeniorPool",
            "label": "_indexes",
            "offset": 0,
            "slot": "1",
            "type": "t_mapping(t_bytes32,t_uint256)"
          }
        ],
        "numberOfBytes": "64"
      },
      "t_uint256": {
        "encoding": "inplace",
        "label": "uint256",
        "numberOfBytes": "32"
      }
    }
  }
}