{
  "address": "0x3b37bb16AF81319d956591EcDbA354b41D1b2AFf",
  "abi": [
    {
      "anonymous": false,
      "inputs": [
        {
          "indexed": true,
          "internalType": "address",
          "name": "capitalProvider",
          "type": "address"
        },
        {
          "indexed": false,
          "internalType": "uint256",
          "name": "amount",
          "type": "uint256"
        },
        {
          "indexed": false,
          "internalType": "uint256",
          "name": "shares",
          "type": "uint256"
        }
      ],
      "name": "DepositMade",
      "type": "event"
    },
    {
      "anonymous": false,
      "inputs": [
        {
          "indexed": true,
          "internalType": "address",
          "name": "payer",
          "type": "address"
        },
        {
          "indexed": false,
          "internalType": "uint256",
          "name": "amount",
          "type": "uint256"
        }
      ],
      "name": "InterestCollected",
      "type": "event"
    },
    {
      "anonymous": false,
      "inputs": [
        {
          "indexed": true,
          "internalType": "address",
          "name": "tranchedPool",
          "type": "address"
        },
        {
          "indexed": false,
          "internalType": "uint256",
          "name": "amount",
          "type": "uint256"
        }
      ],
      "name": "InvestmentMade",
      "type": "event"
    },
    {
      "anonymous": false,
      "inputs": [
        {
          "indexed": false,
          "internalType": "address",
          "name": "account",
          "type": "address"
        }
      ],
      "name": "Paused",
      "type": "event"
    },
    {
      "anonymous": false,
      "inputs": [
        {
          "indexed": true,
          "internalType": "address",
          "name": "payer",
          "type": "address"
        },
        {
          "indexed": false,
          "internalType": "uint256",
          "name": "amount",
          "type": "uint256"
        }
      ],
      "name": "PrincipalCollected",
      "type": "event"
    },
    {
      "anonymous": false,
      "inputs": [
        {
          "indexed": true,
          "internalType": "address",
          "name": "tranchedPool",
          "type": "address"
        },
        {
          "indexed": false,
          "internalType": "int256",
          "name": "amount",
          "type": "int256"
        }
      ],
      "name": "PrincipalWrittenDown",
      "type": "event"
    },
    {
      "anonymous": false,
      "inputs": [
        {
          "indexed": true,
          "internalType": "address",
          "name": "user",
          "type": "address"
        },
        {
          "indexed": false,
          "internalType": "uint256",
          "name": "amount",
          "type": "uint256"
        }
      ],
      "name": "ReserveFundsCollected",
      "type": "event"
    },
    {
      "anonymous": false,
      "inputs": [
        {
          "indexed": true,
          "internalType": "bytes32",
          "name": "role",
          "type": "bytes32"
        },
        {
          "indexed": true,
          "internalType": "address",
          "name": "account",
          "type": "address"
        },
        {
          "indexed": true,
          "internalType": "address",
          "name": "sender",
          "type": "address"
        }
      ],
      "name": "RoleGranted",
      "type": "event"
    },
    {
      "anonymous": false,
      "inputs": [
        {
          "indexed": true,
          "internalType": "bytes32",
          "name": "role",
          "type": "bytes32"
        },
        {
          "indexed": true,
          "internalType": "address",
          "name": "account",
          "type": "address"
        },
        {
          "indexed": true,
          "internalType": "address",
          "name": "sender",
          "type": "address"
        }
      ],
      "name": "RoleRevoked",
      "type": "event"
    },
    {
      "anonymous": false,
      "inputs": [
        {
          "indexed": false,
          "internalType": "address",
          "name": "account",
          "type": "address"
        }
      ],
      "name": "Unpaused",
      "type": "event"
    },
    {
      "anonymous": false,
      "inputs": [
        {
          "indexed": true,
          "internalType": "address",
          "name": "capitalProvider",
          "type": "address"
        },
        {
          "indexed": false,
          "internalType": "uint256",
          "name": "userAmount",
          "type": "uint256"
        },
        {
          "indexed": false,
          "internalType": "uint256",
          "name": "reserveAmount",
          "type": "uint256"
        }
      ],
      "name": "WithdrawalMade",
      "type": "event"
    },
    {
      "inputs": [],
      "name": "DEFAULT_ADMIN_ROLE",
      "outputs": [
        {
          "internalType": "bytes32",
          "name": "",
          "type": "bytes32"
        }
      ],
      "stateMutability": "view",
      "type": "function"
    },
    {
      "inputs": [],
      "name": "OWNER_ROLE",
      "outputs": [
        {
          "internalType": "bytes32",
          "name": "",
          "type": "bytes32"
        }
      ],
      "stateMutability": "view",
      "type": "function"
    },
    {
      "inputs": [],
      "name": "PAUSER_ROLE",
      "outputs": [
        {
          "internalType": "bytes32",
          "name": "",
          "type": "bytes32"
        }
      ],
      "stateMutability": "view",
      "type": "function"
    },
    {
      "inputs": [
        {
          "internalType": "address",
          "name": "owner",
          "type": "address"
        }
      ],
      "name": "__BaseUpgradeablePausable__init",
      "outputs": [],
      "stateMutability": "nonpayable",
      "type": "function"
    },
    {
      "inputs": [],
      "name": "__PauserPausable__init",
      "outputs": [],
      "stateMutability": "nonpayable",
      "type": "function"
    },
    {
      "inputs": [],
      "name": "assets",
      "outputs": [
        {
          "internalType": "uint256",
          "name": "",
          "type": "uint256"
        }
      ],
      "stateMutability": "view",
      "type": "function"
    },
    {
      "inputs": [
        {
          "internalType": "uint256",
          "name": "tokenId",
          "type": "uint256"
        }
      ],
      "name": "calculateWritedown",
      "outputs": [
        {
          "internalType": "uint256",
          "name": "",
          "type": "uint256"
        }
      ],
      "stateMutability": "view",
      "type": "function"
    },
    {
      "inputs": [],
      "name": "compoundBalance",
      "outputs": [
        {
          "internalType": "uint256",
          "name": "",
          "type": "uint256"
        }
      ],
      "stateMutability": "view",
      "type": "function"
    },
    {
      "inputs": [],
      "name": "config",
      "outputs": [
        {
          "internalType": "contract GoldfinchConfig",
          "name": "",
          "type": "address"
        }
      ],
      "stateMutability": "view",
      "type": "function"
    },
    {
      "inputs": [
        {
          "internalType": "uint256",
          "name": "amount",
          "type": "uint256"
        }
      ],
      "name": "deposit",
      "outputs": [
        {
          "internalType": "uint256",
          "name": "depositShares",
          "type": "uint256"
        }
      ],
      "stateMutability": "nonpayable",
      "type": "function"
    },
    {
      "inputs": [
        {
          "internalType": "uint256",
          "name": "amount",
          "type": "uint256"
        },
        {
          "internalType": "uint256",
          "name": "deadline",
          "type": "uint256"
        },
        {
          "internalType": "uint8",
          "name": "v",
          "type": "uint8"
        },
        {
          "internalType": "bytes32",
          "name": "r",
          "type": "bytes32"
        },
        {
          "internalType": "bytes32",
          "name": "s",
          "type": "bytes32"
        }
      ],
      "name": "depositWithPermit",
      "outputs": [
        {
          "internalType": "uint256",
          "name": "depositShares",
          "type": "uint256"
        }
      ],
      "stateMutability": "nonpayable",
      "type": "function"
    },
    {
      "inputs": [
        {
          "internalType": "contract ITranchedPool",
          "name": "pool",
          "type": "address"
        }
      ],
      "name": "estimateInvestment",
      "outputs": [
        {
          "internalType": "uint256",
          "name": "",
          "type": "uint256"
        }
      ],
      "stateMutability": "view",
      "type": "function"
    },
    {
      "inputs": [
        {
          "internalType": "uint256",
          "name": "amount",
          "type": "uint256"
        }
      ],
      "name": "getNumShares",
      "outputs": [
        {
          "internalType": "uint256",
          "name": "",
          "type": "uint256"
        }
      ],
      "stateMutability": "view",
      "type": "function"
    },
    {
      "inputs": [
        {
          "internalType": "bytes32",
          "name": "role",
          "type": "bytes32"
        }
      ],
      "name": "getRoleAdmin",
      "outputs": [
        {
          "internalType": "bytes32",
          "name": "",
          "type": "bytes32"
        }
      ],
      "stateMutability": "view",
      "type": "function"
    },
    {
      "inputs": [
        {
          "internalType": "bytes32",
          "name": "role",
          "type": "bytes32"
        },
        {
          "internalType": "uint256",
          "name": "index",
          "type": "uint256"
        }
      ],
      "name": "getRoleMember",
      "outputs": [
        {
          "internalType": "address",
          "name": "",
          "type": "address"
        }
      ],
      "stateMutability": "view",
      "type": "function"
    },
    {
      "inputs": [
        {
          "internalType": "bytes32",
          "name": "role",
          "type": "bytes32"
        }
      ],
      "name": "getRoleMemberCount",
      "outputs": [
        {
          "internalType": "uint256",
          "name": "",
          "type": "uint256"
        }
      ],
      "stateMutability": "view",
      "type": "function"
    },
    {
      "inputs": [
        {
          "internalType": "bytes32",
          "name": "role",
          "type": "bytes32"
        },
        {
          "internalType": "address",
          "name": "account",
          "type": "address"
        }
      ],
      "name": "grantRole",
      "outputs": [],
      "stateMutability": "nonpayable",
      "type": "function"
    },
    {
      "inputs": [
        {
          "internalType": "bytes32",
          "name": "role",
          "type": "bytes32"
        },
        {
          "internalType": "address",
          "name": "account",
          "type": "address"
        }
      ],
      "name": "hasRole",
      "outputs": [
        {
          "internalType": "bool",
          "name": "",
          "type": "bool"
        }
      ],
      "stateMutability": "view",
      "type": "function"
    },
    {
      "inputs": [
        {
          "internalType": "address",
          "name": "owner",
          "type": "address"
        },
        {
          "internalType": "contract GoldfinchConfig",
          "name": "_config",
          "type": "address"
        }
      ],
      "name": "initialize",
      "outputs": [],
      "stateMutability": "nonpayable",
      "type": "function"
    },
    {
      "inputs": [
        {
          "internalType": "contract ITranchedPool",
          "name": "pool",
          "type": "address"
        }
      ],
      "name": "invest",
      "outputs": [],
      "stateMutability": "nonpayable",
      "type": "function"
    },
    {
      "inputs": [],
      "name": "isAdmin",
      "outputs": [
        {
          "internalType": "bool",
          "name": "",
          "type": "bool"
        }
      ],
      "stateMutability": "view",
      "type": "function"
    },
    {
      "inputs": [],
      "name": "pause",
      "outputs": [],
      "stateMutability": "nonpayable",
      "type": "function"
    },
    {
      "inputs": [],
      "name": "paused",
      "outputs": [
        {
          "internalType": "bool",
          "name": "",
          "type": "bool"
        }
      ],
      "stateMutability": "view",
      "type": "function"
    },
    {
      "inputs": [
        {
          "internalType": "uint256",
          "name": "tokenId",
          "type": "uint256"
        }
      ],
      "name": "redeem",
      "outputs": [],
      "stateMutability": "nonpayable",
      "type": "function"
    },
    {
      "inputs": [
        {
          "internalType": "bytes32",
          "name": "role",
          "type": "bytes32"
        },
        {
          "internalType": "address",
          "name": "account",
          "type": "address"
        }
      ],
      "name": "renounceRole",
      "outputs": [],
      "stateMutability": "nonpayable",
      "type": "function"
    },
    {
      "inputs": [
        {
          "internalType": "bytes32",
          "name": "role",
          "type": "bytes32"
        },
        {
          "internalType": "address",
          "name": "account",
          "type": "address"
        }
      ],
      "name": "revokeRole",
      "outputs": [],
      "stateMutability": "nonpayable",
      "type": "function"
    },
    {
      "inputs": [],
      "name": "sharePrice",
      "outputs": [
        {
          "internalType": "uint256",
          "name": "",
          "type": "uint256"
        }
      ],
      "stateMutability": "view",
      "type": "function"
    },
    {
      "inputs": [],
      "name": "sweepFromCompound",
      "outputs": [],
      "stateMutability": "nonpayable",
      "type": "function"
    },
    {
      "inputs": [],
      "name": "sweepToCompound",
      "outputs": [],
      "stateMutability": "nonpayable",
      "type": "function"
    },
    {
      "inputs": [],
      "name": "totalLoansOutstanding",
      "outputs": [
        {
          "internalType": "uint256",
          "name": "",
          "type": "uint256"
        }
      ],
      "stateMutability": "view",
      "type": "function"
    },
    {
      "inputs": [],
      "name": "totalWritedowns",
      "outputs": [
        {
          "internalType": "uint256",
          "name": "",
          "type": "uint256"
        }
      ],
      "stateMutability": "view",
      "type": "function"
    },
    {
      "inputs": [],
      "name": "unpause",
      "outputs": [],
      "stateMutability": "nonpayable",
      "type": "function"
    },
    {
      "inputs": [],
      "name": "updateGoldfinchConfig",
      "outputs": [],
      "stateMutability": "nonpayable",
      "type": "function"
    },
    {
      "inputs": [
        {
          "internalType": "uint256",
          "name": "usdcAmount",
          "type": "uint256"
        }
      ],
      "name": "withdraw",
      "outputs": [
        {
          "internalType": "uint256",
          "name": "amount",
          "type": "uint256"
        }
      ],
      "stateMutability": "nonpayable",
      "type": "function"
    },
    {
      "inputs": [
        {
          "internalType": "uint256",
          "name": "fiduAmount",
          "type": "uint256"
        }
      ],
      "name": "withdrawInFidu",
      "outputs": [
        {
          "internalType": "uint256",
          "name": "amount",
          "type": "uint256"
        }
      ],
      "stateMutability": "nonpayable",
      "type": "function"
    },
    {
      "inputs": [
        {
          "internalType": "uint256",
          "name": "tokenId",
          "type": "uint256"
        }
      ],
      "name": "writedown",
      "outputs": [],
      "stateMutability": "nonpayable",
      "type": "function"
    },
    {
      "inputs": [
        {
          "internalType": "contract ITranchedPool",
          "name": "",
          "type": "address"
        }
      ],
      "name": "writedowns",
      "outputs": [
        {
          "internalType": "uint256",
          "name": "",
          "type": "uint256"
        }
      ],
      "stateMutability": "view",
      "type": "function"
    }
  ],
  "transactionHash": "0x9b1dc8c20faedadb4126e5c99a8f2cbe35388326196e28ed340febb112aec347",
  "args": [],
  "solcInputHash": "6810fd0fbb39f4621f6dd945b08843ee",
  "bytecode": "0x608060405234801561001057600080fd5b50613e75806100206000396000f3fe608060405234801561001057600080fd5b50600436106102275760003560e01c8063855cb21b11610130578063b6b55f25116100b8578063db006a751161007c578063db006a751461042f578063e58378bb14610442578063e63ab1e91461044a578063ed80c85014610452578063f1a80e621461045a57610227565b8063b6b55f25146103db578063b6db75a0146103ee578063ca15c873146103f6578063d547741f14610409578063d78a5c651461041c57610227565b806391d14854116100ff57806391d148541461039d578063945ed49a146103b05780639e4a88e1146103c3578063a217fddf146103cb578063a6f4487e146103d357610227565b8063855cb21b14610367578063872697291461037a5780638836d902146103825780639010d07c1461038a57610227565b80634f92a728116101b357806371a973051161018257806371a973051461031c578063722eeec31461032457806379502c55146103375780637e30cdff1461034c5780638456cb591461035f57610227565b80634f92a728146102e4578063526d81f6146102ec57806358031d12146102f45780635c975abb1461030757610227565b80632f2ff15d116101fa5780632f2ff15d1461029057806336568abe146102a35780633f4ba83a146102b6578063485cc955146102be5780634a970be7146102d157610227565b806303f9c7931461022c578063097616a314610241578063248a9ca3146102545780632e1a7d4d1461027d575b600080fd5b61023f61023a366004613278565b610462565b005b61023f61024f366004613278565b6106c2565b610267610262366004613308565b6107f2565b60405161027491906134fe565b60405180910390f35b61026761028b366004613308565b610807565b61023f61029e366004613320565b6108b3565b61023f6102b1366004613320565b6108f7565b61023f610939565b61023f6102cc3660046132b0565b610979565b6102676102df366004613414565b610d2a565b61023f610dbf565b61023f610e1c565b610267610302366004613308565b610ea7565b61030f610f55565b60405161027491906134f3565b610267610f5e565b610267610332366004613308565b611024565b61033f6110f8565b6040516102749190613461565b61026761035a366004613278565b611108565b61023f6111d0565b610267610375366004613308565b61120e565b61026761123d565b61023f611244565b61033f610398366004613344565b611293565b61030f6103ab366004613320565b6112ab565b61023f6103be366004613308565b6112c3565b61023f6115cd565b610267611831565b610267611836565b6102676103e9366004613308565b61183d565b61030f6119e4565b610267610404366004613308565b611a00565b61023f610417366004613320565b611a17565b61026761042a366004613278565b611a51565b61023f61043d366004613308565b611a64565b610267611c22565b610267611c34565b610267611c46565b610267611c4d565b60975460ff161561048e5760405162461bcd60e51b815260040161048590613a77565b60405180910390fd5b60c95460ff166104b05760405162461bcd60e51b815260040161048590613c91565b60c9805460ff191690556104c26119e4565b6104de5760405162461bcd60e51b815260040161048590613d0b565b6104e781611c54565b6105035760405162461bcd60e51b815260040161048590613aa1565b6101c7541561051457610514611ce8565b6101c65460009061052d906001600160a01b0316611d88565b90506000816001600160a01b031663ff8a4efe30856040518363ffffffff1660e01b815260040161055f929190613535565b60206040518083038186803b15801561057757600080fd5b505afa15801561058b573d6000803e3d6000fd5b505050506040513d601f19601f820116820180604052508101906105af91906133d9565b9050600081116105d15760405162461bcd60e51b815260040161048590613bff565b6105db8382611d93565b604051631c57762b60e31b81526001600160a01b0384169063e2bbb1589061060a906001908590600401613ddc565b602060405180830381600087803b15801561062457600080fd5b505af1158015610638573d6000803e3d6000fd5b505050506040513d601f19601f8201168201806040525081019061065c91906133d9565b50826001600160a01b03167f07146ef3ff2146eaf34fa4d392d4c56663333b682654b3123bf270f9ec529f318260405161069691906134fe565b60405180910390a26101c4546106ac9082611e4f565b6101c455505060c9805460ff1916600117905550565b600054610100900460ff16806106db57506106db611e74565b806106e9575060005460ff16155b6107055760405162461bcd60e51b815260040161048590613b43565b600054610100900460ff16158015610730576000805460ff1961ff0019909116610100171660011790555b6001600160a01b0382166107565760405162461bcd60e51b815260040161048590613acd565b61075e611e7a565b610766611efb565b61076e611f87565b610786600080516020613e00833981519152836108ed565b61079e600080516020613e20833981519152836108ed565b6107c4600080516020613e20833981519152600080516020613e00833981519152612016565b6107dc600080516020613e0083398151915280612016565b80156107ee576000805461ff00191690555b5050565b60009081526065602052604090206002015490565b60975460009060ff161561082d5760405162461bcd60e51b815260040161048590613a77565b60c95460ff1661084f5760405162461bcd60e51b815260040161048590613c91565b60c9805460ff19169055816108765760405162461bcd60e51b815260040161048590613bc8565b6101c7541561088757610887611ce8565b60006108928361120e565b905061089e838261202b565b91505060c9805460ff19166001179055919050565b6000828152606560205260409020600201546108d1906103ab6121fd565b6108ed5760405162461bcd60e51b815260040161048590613652565b6107ee8282612201565b6108ff6121fd565b6001600160a01b0316816001600160a01b03161461092f5760405162461bcd60e51b815260040161048590613d56565b6107ee828261226a565b610953600080516020613e208339815191526103ab6121fd565b61096f5760405162461bcd60e51b81526004016104859061380b565b6109776122d3565b565b600054610100900460ff16806109925750610992611e74565b806109a0575060005460ff16155b6109bc5760405162461bcd60e51b815260040161048590613b43565b600054610100900460ff161580156109e7576000805460ff1961ff0019909116610100171660011790555b6001600160a01b03831615801590610a0757506001600160a01b03821615155b610a235760405162461bcd60e51b81526004016104859061375c565b610a2c836106c2565b6101c680546001600160a01b0319166001600160a01b038481169190911791829055610a58911661233f565b6001600160a01b031663872697296040518163ffffffff1660e01b815260040160206040518083038186803b158015610a9057600080fd5b505afa158015610aa4573d6000803e3d6000fd5b505050506040513d601f19601f82011682018060405250810190610ac891906133d9565b6101c3556101c654610ae2906001600160a01b031661234a565b6001600160a01b031663ed80c8506040518163ffffffff1660e01b815260040160206040518083038186803b158015610b1a57600080fd5b505afa158015610b2e573d6000803e3d6000fd5b505050506040513d601f19601f82011682018060405250810190610b5291906133d9565b6101c4556101c654610b6c906001600160a01b031661234a565b6001600160a01b031663a6f4487e6040518163ffffffff1660e01b815260040160206040518083038186803b158015610ba457600080fd5b505afa158015610bb8573d6000803e3d6000fd5b505050506040513d601f19601f82011682018060405250810190610bdc91906133d9565b6101c5556101c654600090610bf9906001600160a01b0316612355565b9050806001600160a01b03166318160ddd6040518163ffffffff1660e01b815260040160206040518083038186803b158015610c3457600080fd5b505afa158015610c48573d6000803e3d6000fd5b505050506040513d601f19601f82011682018060405250810190610c6c91906133d9565b5060405163095ea7b360e01b81526000906001600160a01b0383169063095ea7b390610ca0903090600019906004016134b6565b602060405180830381600087803b158015610cba57600080fd5b505af1158015610cce573d6000803e3d6000fd5b505050506040513d601f19601f82011682018060405250810190610cf291906132e8565b905080610d115760405162461bcd60e51b8152600401610485906136cf565b50508015610d25576000805461ff00191690555b505050565b6101c654600090610d43906001600160a01b031661235c565b6001600160a01b031663d505accf333089898989896040518863ffffffff1660e01b8152600401610d7a9796959493929190613475565b600060405180830381600087803b158015610d9457600080fd5b505af1158015610da8573d6000803e3d6000fd5b50505050610db58661183d565b9695505050505050565b610dc76119e4565b610de35760405162461bcd60e51b815260040161048590613d0b565b6101c654610df9906001600160a01b03166123dc565b6101c680546001600160a01b0319166001600160a01b0392909216919091179055565b600054610100900460ff1680610e355750610e35611e74565b80610e43575060005460ff16155b610e5f5760405162461bcd60e51b815260040161048590613b43565b600054610100900460ff16158015610e8a576000805460ff1961ff0019909116610100171660011790555b610e92611efb565b8015610ea4576000805461ff00191690555b50565b60975460009060ff1615610ecd5760405162461bcd60e51b815260040161048590613a77565b60c95460ff16610eef5760405162461bcd60e51b815260040161048590613c91565b60c9805460ff1916905581610f165760405162461bcd60e51b815260040161048590613bc8565b6101c75415610f2757610f27611ce8565b6000610f32836123f4565b905082610f3f828261202b565b9250505060c9805460ff19166001179055919050565b60975460ff1690565b6101c5546101c4546101c65460009261101f929091611019919061101390610f8e906001600160a01b0316612355565b6001600160a01b03166370a08231306040518263ffffffff1660e01b8152600401610fb99190613461565b60206040518083038186803b158015610fd157600080fd5b505afa158015610fe5573d6000803e3d6000fd5b505050506040513d601f19601f8201168201806040525081019061100991906133d9565b6101c75490611e4f565b90611e4f565b90612418565b905090565b600061102e613240565b6101c654611044906001600160a01b031661245a565b6001600160a01b0316638c7a63ae846040518263ffffffff1660e01b815260040161106f91906134fe565b60a06040518083038186803b15801561108757600080fd5b505afa15801561109b573d6000803e3d6000fd5b505050506040513d601f19601f820116820180604052508101906110bf9190613365565b80516060820151604083015192935090916000916110dd9190612418565b90506000806110ec8484612465565b98975050505050505050565b6101c6546001600160a01b031681565b600061111382611c54565b61112f5760405162461bcd60e51b815260040161048590613aa1565b6101c654600090611148906001600160a01b0316611d88565b604051631f999a2d60e01b81529091506001600160a01b03821690631f999a2d906111799030908790600401613535565b60206040518083038186803b15801561119157600080fd5b505afa1580156111a5573d6000803e3d6000fd5b505050506040513d601f19601f820116820180604052508101906111c991906133d9565b9392505050565b6111ea600080516020613e208339815191526103ab6121fd565b6112065760405162461bcd60e51b81526004016104859061380b565b6109776125a2565b60006112376101c3546112316112226125fb565b61122b86612607565b90612622565b9061265c565b92915050565b6101c35481565b61124c6119e4565b6112685760405162461bcd60e51b815260040161048590613d0b565b60975460ff161561128b5760405162461bcd60e51b815260040161048590613a77565b610977611ce8565b60008281526065602052604081206111c9908361269e565b60008281526065602052604081206111c990836126aa565b60975460ff16156112e65760405162461bcd60e51b815260040161048590613a77565b60c95460ff166113085760405162461bcd60e51b815260040161048590613c91565b60c9805460ff1916905561131a6119e4565b6113365760405162461bcd60e51b815260040161048590613d0b565b6101c65460009061134f906001600160a01b031661245a565b6040516331a9108f60e11b81529091506001600160a01b03821690636352211e9061137e9085906004016134fe565b60206040518083038186803b15801561139657600080fd5b505afa1580156113aa573d6000803e3d6000fd5b505050506040513d601f19601f820116820180604052508101906113ce9190613294565b6001600160a01b0316306001600160a01b0316146113fe5760405162461bcd60e51b8152600401610485906139ca565b611406613240565b60405163463d31d760e11b81526001600160a01b03831690638c7a63ae906114329086906004016134fe565b60a06040518083038186803b15801561144a57600080fd5b505afa15801561145e573d6000803e3d6000fd5b505050506040513d601f19601f820116820180604052508101906114829190613365565b805190915061149081611c54565b6114ac5760405162461bcd60e51b815260040161048590613aa1565b60006114c98360600151846040015161241890919063ffffffff16565b90506000806114d88484612465565b6001600160a01b03861660009081526101c86020526040902054919350915082158015611503575080155b1561151457505050505050506115bd565b6001600160a01b03851660009081526101c86020526040902082905581810361153c816126bf565b600081131561155c576101c5546115539082612418565b6101c555611573565b6101c55461156e906000839003611e4f565b6101c5555b856001600160a01b03167f176e189790e519c3382df7234bd391cc24005bf9cfaaa9de00103c208e10a274826040516115ac91906134fe565b60405180910390a250505050505050505b5060c9805460ff19166001179055565b6115d56119e4565b6115f15760405162461bcd60e51b815260040161048590613d0b565b60975460ff16156116145760405162461bcd60e51b815260040161048590613a77565b6101c65460009061162d906001600160a01b0316612355565b90506000816001600160a01b03166370a08231306040518263ffffffff1660e01b815260040161165d9190613461565b60206040518083038186803b15801561167557600080fd5b505afa158015611689573d6000803e3d6000fd5b505050506040513d601f19601f820116820180604052508101906116ad91906133d9565b6101c6549091506000906116c9906001600160a01b0316612716565b90506000836001600160a01b031663095ea7b383856040518363ffffffff1660e01b81526004016116fb9291906134b6565b602060405180830381600087803b15801561171557600080fd5b505af1158015611729573d6000803e3d6000fd5b505050506040513d601f19601f8201168201806040525081019061174d91906132e8565b90508061176c5760405162461bcd60e51b815260040161048590613cc8565b6117768284612721565b6101c65461178c906001600160a01b0316612355565b6001600160a01b031663095ea7b38360006040518363ffffffff1660e01b81526004016117ba9291906134b6565b602060405180830381600087803b1580156117d457600080fd5b505af11580156117e8573d6000803e3d6000fd5b505050506040513d601f19601f8201168201806040525081019061180c91906132e8565b90508061182b5760405162461bcd60e51b815260040161048590613cc8565b50505050565b600081565b6101c55481565b60975460009060ff16156118635760405162461bcd60e51b815260040161048590613a77565b60c95460ff166118855760405162461bcd60e51b815260040161048590613c91565b60c9805460ff19169055816118ac5760405162461bcd60e51b815260040161048590613da5565b6118b58261120e565b905060006118c582611013612808565b90506118d081612891565b6118ec5760405162461bcd60e51b815260040161048590613c41565b336001600160a01b03167f0b05f0d1cd0819f155b8a61f60baf7767c1ee49d04aeaab701df236140eb93f98484604051611927929190613ddc565b60405180910390a2600061193c333086612930565b90508061195b5760405162461bcd60e51b81526004016104859061361b565b6101c654611971906001600160a01b03166129ff565b6001600160a01b031663449a52f833856040518363ffffffff1660e01b815260040161199e9291906134b6565b600060405180830381600087803b1580156119b857600080fd5b505af11580156119cc573d6000803e3d6000fd5b50505050505060c9805460ff19166001179055919050565b600061101f600080516020613e008339815191526103ab6121fd565b600081815260656020526040812061123790612a0a565b600082815260656020526040902060020154611a35906103ab6121fd565b61092f5760405162461bcd60e51b815260040161048590613a27565b6101c86020526000908152604090205481565b60975460ff1615611a875760405162461bcd60e51b815260040161048590613a77565b60c95460ff16611aa95760405162461bcd60e51b815260040161048590613c91565b60c9805460ff19169055611abb6119e4565b611ad75760405162461bcd60e51b815260040161048590613d0b565b6101c654600090611af0906001600160a01b031661245a565b9050611afa613240565b60405163463d31d760e11b81526001600160a01b03831690638c7a63ae90611b269086906004016134fe565b60a06040518083038186803b158015611b3e57600080fd5b505afa158015611b52573d6000803e3d6000fd5b505050506040513d601f19601f82011682018060405250810190611b769190613365565b8051604051632a8a9f1360e21b81529192509060009081906001600160a01b0384169063aa2a7c4c90611bad9089906004016134fe565b6040805180830381600087803b158015611bc657600080fd5b505af1158015611bda573d6000803e3d6000fd5b505050506040513d601f19601f82011682018060405250810190611bfe91906133f1565b91509150611c0d838383612a15565b505060c9805460ff1916600117905550505050565b600080516020613e0083398151915281565b600080516020613e2083398151915281565b6101c45481565b6101c75481565b6101c654600090611c6d906001600160a01b031661245a565b6001600160a01b031663b5ada6d8836040518263ffffffff1660e01b8152600401611c989190613461565b60206040518083038186803b158015611cb057600080fd5b505afa158015611cc4573d6000803e3d6000fd5b505050506040513d601f19601f8201168201806040525081019061123791906132e8565b6101c654600090611d01906001600160a01b0316612716565b9050610ea481826001600160a01b03166370a08231306040518263ffffffff1660e01b8152600401611d339190613461565b60206040518083038186803b158015611d4b57600080fd5b505afa158015611d5f573d6000803e3d6000fd5b505050506040513d601f19601f82011682018060405250810190611d8391906133d9565b612adc565b600061123782612df5565b6101c654600090611dac906001600160a01b0316612355565b90506000816001600160a01b031663095ea7b385856040518363ffffffff1660e01b8152600401611dde9291906134b6565b602060405180830381600087803b158015611df857600080fd5b505af1158015611e0c573d6000803e3d6000fd5b505050506040513d601f19601f82011682018060405250810190611e3091906132e8565b90508061182b5760405162461bcd60e51b8152600401610485906136cf565b6000828201838110156111c95760405162461bcd60e51b815260040161048590613857565b303b1590565b600054610100900460ff1680611e935750611e93611e74565b80611ea1575060005460ff16155b611ebd5760405162461bcd60e51b815260040161048590613b43565b600054610100900460ff16158015610e92576000805460ff1961ff0019909116610100171660011790558015610ea4576000805461ff001916905550565b600054610100900460ff1680611f145750611f14611e74565b80611f22575060005460ff16155b611f3e5760405162461bcd60e51b815260040161048590613b43565b600054610100900460ff16158015611f69576000805460ff1961ff0019909116610100171660011790555b6097805460ff191690558015610ea4576000805461ff001916905550565b600054610100900460ff1680611fa05750611fa0611e74565b80611fae575060005460ff16155b611fca5760405162461bcd60e51b815260040161048590613b43565b600054610100900460ff16158015611ff5576000805460ff1961ff0019909116610100171660011790555b60c9805460ff191660011790558015610ea4576000805461ff001916905550565b60009182526065602052604090912060020155565b6101c6546000908190612046906001600160a01b03166129ff565b90506000816001600160a01b03166370a08231336040518263ffffffff1660e01b81526004016120769190613461565b60206040518083038186803b15801561208e57600080fd5b505afa1580156120a2573d6000803e3d6000fd5b505050506040513d601f19601f820116820180604052508101906120c691906133d9565b9050808411156120e85760405162461bcd60e51b8152600401610485906136ff565b6101c65460009061210c90612105906001600160a01b0316612e0d565b879061265c565b90506121188682612418565b9350336001600160a01b03167f2d4d49c3e017b8235c908cbaa83a2431a08f3b950712696ece2088964fd399f08583604051612155929190613ddc565b60405180910390a2600061216a303387612930565b9050806121895760405162461bcd60e51b815260040161048590613919565b6121938233612e8d565b60405163079cc67960e41b81526001600160a01b038516906379cc6790906121c19033908a906004016134b6565b600060405180830381600087803b1580156121db57600080fd5b505af11580156121ef573d6000803e3d6000fd5b505050505050505092915050565b3390565b60008281526065602052604090206122199082612f12565b156107ee576122266121fd565b6001600160a01b0316816001600160a01b0316837f2f8788117e7eff1d82e926ec794901d17c78024a50270940304540a733656f0d60405160405180910390a45050565b60008281526065602052604090206122829082612f27565b156107ee5761228f6121fd565b6001600160a01b0316816001600160a01b0316837ff6391f5c32d9c69d2a47ea670b442974b53935d1edc7fd64eb21e047a839171b60405160405180910390a45050565b60975460ff166122f55760405162461bcd60e51b8152600401610485906136a1565b6097805460ff191690557f5db9ee0a495bf2e6ff9c91a7834c1ba4fdd244a5e8aa4e537bd38aeae4b073aa6123286121fd565b6040516123359190613461565b60405180910390a1565b600061123782612f3c565b600061123782612f53565b6000611237825b60006001600160a01b03821663b93f9b0a60055b6040518263ffffffff1660e01b815260040161238c91906134fe565b60206040518083038186803b1580156123a457600080fd5b505afa1580156123b8573d6000803e3d6000fd5b505050506040513d601f19601f820116820180604052508101906112379190613294565b60006001600160a01b03821663b93f9b0a600b612370565b60006112376124136124046125fb565b6101c354611231908690612622565b612f6b565b60006111c983836040518060400160405280601e81526020017f536166654d6174683a207375627472616374696f6e206f766572666c6f770000815250612f83565b600061123782612faf565b6000807337CF6E5D79034D253C6DF9f6fa095510AA196F126397aec1ab856001600160a01b03166347195e136040518163ffffffff1660e01b815260040160206040518083038186803b1580156124bb57600080fd5b505afa1580156124cf573d6000803e3d6000fd5b505050506040513d601f19601f820116820180604052508101906124f39190613294565b856124fc612fc7565b6101c654612512906001600160a01b0316612fcb565b6101c654612528906001600160a01b0316612fe3565b6040518663ffffffff1660e01b8152600401612548959493929190613507565b604080518083038186803b15801561255f57600080fd5b505af4158015612573573d6000803e3d6000fd5b505050506040513d601f19601f8201168201806040525081019061259791906133f1565b915091509250929050565b60975460ff16156125c55760405162461bcd60e51b815260040161048590613a77565b6097805460ff191660011790557f62e78cea01bee320cd4e420270b5ea74000d11b0c9f74754ebdbfc544b05a2586123286121fd565b670de0b6b3a764000090565b6000611237612614612ffb565b61123161261f6125fb565b85905b60008261263157506000611237565b8282028284828161263e57fe5b04146111c95760405162461bcd60e51b815260040161048590613b02565b60006111c983836040518060400160405280601a81526020017f536166654d6174683a206469766973696f6e206279207a65726f000000000000815250613002565b60006111c98383613039565b60006111c9836001600160a01b03841661307e565b60008113156126ee5760006126d382613096565b6101c3549091506126e49082611e4f565b6101c35550610ea4565b60006126fd8260001902613096565b6101c35490915061270e9082612418565b6101c3555050565b6000611237826130ae565b6101c754156127425760405162461bcd60e51b81526004016104859061388e565b8061275f5760405162461bcd60e51b8152600401610485906135a2565b60405163140e25ad60e31b81526000906001600160a01b0384169063a0712d689061278e9085906004016134fe565b602060405180830381600087803b1580156127a857600080fd5b505af11580156127bc573d6000803e3d6000fd5b505050506040513d601f19601f820116820180604052508101906127e091906133d9565b905080156128005760405162461bcd60e51b8152600401610485906138e2565b506101c75550565b6101c654600090612821906001600160a01b03166129ff565b6001600160a01b03166318160ddd6040518163ffffffff1660e01b815260040160206040518083038186803b15801561285957600080fd5b505afa15801561286d573d6000803e3d6000fd5b505050506040513d601f19601f8201168201806040525081019061101f91906133d9565b6101c65460009061291d906001600160a01b031663fc56365860016040518263ffffffff1660e01b81526004016128c891906134fe565b60206040518083038186803b1580156128e057600080fd5b505afa1580156128f4573d6000803e3d6000fd5b505050506040513d601f19601f8201168201806040525081019061291891906133d9565b612607565b6129286124046125fb565b111592915050565b60006001600160a01b0383166129585760405162461bcd60e51b8152600401610485906137a6565b6101c654600090612971906001600160a01b0316612355565b6040516323b872dd60e01b81529091506001600160a01b038216906323b872dd906129a4908890889088906004016134cf565b602060405180830381600087803b1580156129be57600080fd5b505af11580156129d2573d6000803e3d6000fd5b505050506040513d601f19601f820116820180604052508101906129f691906132e8565b95945050505050565b6000611237826130c6565b6000611237826130de565b6000612a2083613096565b6101c354909150612a319082611e4f565b6101c3558215612a7d57836001600160a01b03167fed3bc1b58411ea8e764b3ef8fa6b654877bc1e796a5a1a2373dfc8f1c0e0ea4884604051612a7491906134fe565b60405180910390a25b811561182b57836001600160a01b03167f8295ad220549851bab232c2a7ae2e3c53a63d2294602bc85f8d8af108778a37e83604051612abc91906134fe565b60405180910390a26101c454612ad29083612418565b6101c45550505050565b6101c75480612afd5760405162461bcd60e51b8152600401610485906137dd565b81612b1a5760405162461bcd60e51b8152600401610485906135a2565b6101c654600090612b33906001600160a01b0316612355565b90506000816001600160a01b03166370a08231306040518263ffffffff1660e01b8152600401612b639190613461565b60206040518083038186803b158015612b7b57600080fd5b505afa158015612b8f573d6000803e3d6000fd5b505050506040513d601f19601f82011682018060405250810190612bb391906133d9565b90506000856001600160a01b031663bd6d894d6040518163ffffffff1660e01b8152600401602060405180830381600087803b158015612bf257600080fd5b505af1158015612c06573d6000803e3d6000fd5b505050506040513d601f19601f82011682018060405250810190612c2a91906133d9565b90506000612c3882876130e2565b90506000876001600160a01b031663db006a75886040518263ffffffff1660e01b8152600401612c6891906134fe565b602060405180830381600087803b158015612c8257600080fd5b505af1158015612c96573d6000803e3d6000fd5b505050506040513d601f19601f82011682018060405250810190612cba91906133d9565b90506000856001600160a01b03166370a08231306040518263ffffffff1660e01b8152600401612cea9190613461565b60206040518083038186803b158015612d0257600080fd5b505afa158015612d16573d6000803e3d6000fd5b505050506040513d601f19601f82011682018060405250810190612d3a91906133d9565b90508115612d5a5760405162461bcd60e51b815260040161048590613993565b82612d658287612418565b14612d825760405162461bcd60e51b815260040161048590613b91565b6000612d8e8489612418565b6101c654909150600090612db590612dae906001600160a01b0316613100565b839061265c565b90506000612dc38383612418565b9050612dd130826000612a15565b8115612de157612de1828d612e8d565b505060006101c75550505050505050505050565b60006001600160a01b03821663b93f9b0a600f612370565b60006001600160a01b03821663fc56365860045b6040518263ffffffff1660e01b8152600401612e3d91906134fe565b60206040518083038186803b158015612e5557600080fd5b505afa158015612e69573d6000803e3d6000fd5b505050506040513d601f19601f8201168201806040525081019061123791906133d9565b806001600160a01b03167ff3583f178a8d4f8888c3683f8e948faf9b6eb701c4f1fab265a6ecad1a1ddebb83604051612ec691906134fe565b60405180910390a26101c654600090612ef3903090612eed906001600160a01b0316613118565b85612930565b905080610d255760405162461bcd60e51b815260040161048590613950565b60006111c9836001600160a01b038416613130565b60006111c9836001600160a01b03841661317a565b60006001600160a01b03821663b93f9b0a82612370565b60006001600160a01b03821663b93f9b0a6003612370565b6000611237612dae612f7b612ffb565b6112316125fb565b60008184841115612fa75760405162461bcd60e51b8152600401610485919061354f565b505050900390565b60006001600160a01b03821663b93f9b0a600c612370565b4290565b60006001600160a01b03821663fc5636586005612e21565b60006001600160a01b03821663fc5636586006612e21565b620f424090565b600081836130235760405162461bcd60e51b8152600401610485919061354f565b50600083858161302f57fe5b0495945050505050565b8154600090821061305c5760405162461bcd60e51b8152600401610485906135d9565b82600001828154811061306b57fe5b9060005260206000200154905092915050565b60009081526001919091016020526040902054151590565b60006112376130a3612808565b6112316112226125fb565b60006001600160a01b03821663b93f9b0a600a612370565b60006001600160a01b03821663b93f9b0a6004612370565b5490565b6000600660086129f66064611231662386f26fc1000081888a612622565b60006001600160a01b03821663fc5636586003612e21565b60006001600160a01b03821663b93f9b0a6006612370565b600061313c838361307e565b61317257508154600181810184556000848152602080822090930184905584548482528286019093526040902091909155611237565b506000611237565b6000818152600183016020526040812054801561323657835460001980830191908101906000908790839081106131ad57fe5b90600052602060002001549050808760000184815481106131ca57fe5b6000918252602080832090910192909255828152600189810190925260409020908401905586548790806131fa57fe5b60019003818190600052602060002001600090559055866001016000878152602001908152602001600020600090556001945050505050611237565b6000915050611237565b6040518060a0016040528060006001600160a01b03168152602001600081526020016000815260200160008152602001600081525090565b600060208284031215613289578081fd5b81356111c981613dea565b6000602082840312156132a5578081fd5b81516111c981613dea565b600080604083850312156132c2578081fd5b82356132cd81613dea565b915060208301356132dd81613dea565b809150509250929050565b6000602082840312156132f9578081fd5b815180151581146111c9578182fd5b600060208284031215613319578081fd5b5035919050565b60008060408385031215613332578182fd5b8235915060208301356132dd81613dea565b60008060408385031215613356578182fd5b50508035926020909101359150565b600060a08284031215613376578081fd5b60405160a0810181811067ffffffffffffffff82111715613395578283fd5b60405282516133a381613dea565b80825250602083015160208201526040830151604082015260608301516060820152608083015160808201528091505092915050565b6000602082840312156133ea578081fd5b5051919050565b60008060408385031215613403578182fd5b505080516020909101519092909150565b600080600080600060a0868803121561342b578081fd5b8535945060208601359350604086013560ff81168114613449578182fd5b94979396509394606081013594506080013592915050565b6001600160a01b0391909116815260200190565b6001600160a01b0397881681529590961660208601526040850193909352606084019190915260ff16608083015260a082015260c081019190915260e00190565b6001600160a01b03929092168252602082015260400190565b6001600160a01b039384168152919092166020820152604081019190915260600190565b901515815260200190565b90815260200190565b6001600160a01b03959095168552602085019390935260408401919091526060830152608082015260a00190565b6001600160a01b0392831681529116602082015260400190565b6000602080835283518082850152825b8181101561357b5785810183015185820160400152820161355f565b8181111561358c5783604083870101525b50601f01601f1916929092016040019392505050565b6020808252601e908201527f416d6f756e7420746f2073776565702063616e6e6f74206265207a65726f0000604082015260600190565b60208082526022908201527f456e756d657261626c655365743a20696e646578206f7574206f6620626f756e604082015261647360f01b606082015260800190565b6020808252601e908201527f4661696c656420746f207472616e7366657220666f72206465706f7369740000604082015260600190565b6020808252602f908201527f416363657373436f6e74726f6c3a2073656e646572206d75737420626520616e60408201526e0818591b5a5b881d1bc819dc985b9d608a1b606082015260800190565b60208082526014908201527314185d5cd8589b194e881b9bdd081c185d5cd95960621b604082015260600190565b6020808252601690820152754661696c656420746f20617070726f7665205553444360501b604082015260600190565b60208082526037908201527f416d6f756e74207265717565737465642069732067726561746572207468616e60408201527f207768617420746869732061646472657373206f776e73000000000000000000606082015260800190565b6020808252602a908201527f4f776e657220616e6420636f6e666967206164647265737365732063616e6e6f6040820152697420626520656d70747960b01b606082015260800190565b6020808252601a908201527f43616e27742073656e6420746f207a65726f2061646472657373000000000000604082015260600190565b602080825260149082015273139bc8199d5b991cc81bdb8818dbdb5c1bdd5b9960621b604082015260600190565b6020808252602c908201527f4d75737420686176652070617573657220726f6c6520746f20706572666f726d60408201526b103a3434b99030b1ba34b7b760a11b606082015260800190565b6020808252601b908201527f536166654d6174683a206164646974696f6e206f766572666c6f770000000000604082015260600190565b60208082526034908201527f43616e6e6f74207377656570207768656e20776520616c72656164792068617660408201527365206120636f6d706f756e642062616c616e636560601b606082015260800190565b60208082526018908201527f537765657020746f20636f6d706f756e64206661696c65640000000000000000604082015260600190565b6020808252601f908201527f4661696c656420746f207472616e7366657220666f7220776974686472617700604082015260600190565b60208082526023908201527f52657365727665207472616e7366657220776173206e6f742073756363657373604082015262199d5b60ea1b606082015260800190565b6020808252601a908201527f53776565702066726f6d20636f6d706f756e64206661696c6564000000000000604082015260600190565b60208082526038908201527f4f6e6c7920746f6b656e73206f776e6564206279207468652073656e696f722060408201527f66756e642063616e206265207772697474656e20646f776e0000000000000000606082015260800190565b60208082526030908201527f416363657373436f6e74726f6c3a2073656e646572206d75737420626520616e60408201526f2061646d696e20746f207265766f6b6560801b606082015260800190565b60208082526010908201526f14185d5cd8589b194e881c185d5cd95960821b604082015260600190565b602080825260129082015271141bdbdb081b5d5cdd081899481d985b1a5960721b604082015260600190565b6020808252818101527f4f776e65722063616e6e6f7420626520746865207a65726f2061646472657373604082015260600190565b60208082526021908201527f536166654d6174683a206d756c7469706c69636174696f6e206f766572666c6f6040820152607760f81b606082015260800190565b6020808252602e908201527f436f6e747261637420696e7374616e63652068617320616c726561647920626560408201526d195b881a5b9a5d1a585b1a5e995960921b606082015260800190565b60208082526018908201527f556e65787065637465642072656465656d20616d6f756e740000000000000000604082015260600190565b6020808252601c908201527f4d757374207769746864726177206d6f7265207468616e207a65726f00000000604082015260600190565b60208082526022908201527f496e766573746d656e7420616d6f756e74206d75737420626520706f73697469604082015261766560f01b606082015260800190565b60208082526030908201527f4465706f73697420776f756c6420707574207468652066756e64206f7665722060408201526f3a3432903a37ba30b6103634b6b4ba1760811b606082015260800190565b6020808252601f908201527f5265656e7472616e637947756172643a207265656e7472616e742063616c6c00604082015260600190565b60208082526023908201527f4661696c656420746f20617070726f7665205553444320666f7220636f6d706f6040820152621d5b9960ea1b606082015260800190565b6020808252602b908201527f4d75737420686176652061646d696e20726f6c6520746f20706572666f726d2060408201526a3a3434b99030b1ba34b7b760a91b606082015260800190565b6020808252602f908201527f416363657373436f6e74726f6c3a2063616e206f6e6c792072656e6f756e636560408201526e103937b632b9903337b91039b2b63360891b606082015260800190565b6020808252601b908201527f4d757374206465706f736974206d6f7265207468616e207a65726f0000000000604082015260600190565b918252602082015260400190565b6001600160a01b0381168114610ea457600080fdfeb19546dff01e856fb3f010c267a7b1c60363cf8a4664e21cc89c26224620214e65d7a28e3265b37a6474929f336521b332c1681b933f6cb9f3376673440d862aa26469706673582212204e61b147ba22591b81ae112f538411837a201ab8630d02cb1030d9e8447f31a864736f6c634300060c0033",
  "deployedBytecode": "0x608060405234801561001057600080fd5b50600436106102275760003560e01c8063855cb21b11610130578063b6b55f25116100b8578063db006a751161007c578063db006a751461042f578063e58378bb14610442578063e63ab1e91461044a578063ed80c85014610452578063f1a80e621461045a57610227565b8063b6b55f25146103db578063b6db75a0146103ee578063ca15c873146103f6578063d547741f14610409578063d78a5c651461041c57610227565b806391d14854116100ff57806391d148541461039d578063945ed49a146103b05780639e4a88e1146103c3578063a217fddf146103cb578063a6f4487e146103d357610227565b8063855cb21b14610367578063872697291461037a5780638836d902146103825780639010d07c1461038a57610227565b80634f92a728116101b357806371a973051161018257806371a973051461031c578063722eeec31461032457806379502c55146103375780637e30cdff1461034c5780638456cb591461035f57610227565b80634f92a728146102e4578063526d81f6146102ec57806358031d12146102f45780635c975abb1461030757610227565b80632f2ff15d116101fa5780632f2ff15d1461029057806336568abe146102a35780633f4ba83a146102b6578063485cc955146102be5780634a970be7146102d157610227565b806303f9c7931461022c578063097616a314610241578063248a9ca3146102545780632e1a7d4d1461027d575b600080fd5b61023f61023a366004613278565b610462565b005b61023f61024f366004613278565b6106c2565b610267610262366004613308565b6107f2565b60405161027491906134fe565b60405180910390f35b61026761028b366004613308565b610807565b61023f61029e366004613320565b6108b3565b61023f6102b1366004613320565b6108f7565b61023f610939565b61023f6102cc3660046132b0565b610979565b6102676102df366004613414565b610d2a565b61023f610dbf565b61023f610e1c565b610267610302366004613308565b610ea7565b61030f610f55565b60405161027491906134f3565b610267610f5e565b610267610332366004613308565b611024565b61033f6110f8565b6040516102749190613461565b61026761035a366004613278565b611108565b61023f6111d0565b610267610375366004613308565b61120e565b61026761123d565b61023f611244565b61033f610398366004613344565b611293565b61030f6103ab366004613320565b6112ab565b61023f6103be366004613308565b6112c3565b61023f6115cd565b610267611831565b610267611836565b6102676103e9366004613308565b61183d565b61030f6119e4565b610267610404366004613308565b611a00565b61023f610417366004613320565b611a17565b61026761042a366004613278565b611a51565b61023f61043d366004613308565b611a64565b610267611c22565b610267611c34565b610267611c46565b610267611c4d565b60975460ff161561048e5760405162461bcd60e51b815260040161048590613a77565b60405180910390fd5b60c95460ff166104b05760405162461bcd60e51b815260040161048590613c91565b60c9805460ff191690556104c26119e4565b6104de5760405162461bcd60e51b815260040161048590613d0b565b6104e781611c54565b6105035760405162461bcd60e51b815260040161048590613aa1565b6101c7541561051457610514611ce8565b6101c65460009061052d906001600160a01b0316611d88565b90506000816001600160a01b031663ff8a4efe30856040518363ffffffff1660e01b815260040161055f929190613535565b60206040518083038186803b15801561057757600080fd5b505afa15801561058b573d6000803e3d6000fd5b505050506040513d601f19601f820116820180604052508101906105af91906133d9565b9050600081116105d15760405162461bcd60e51b815260040161048590613bff565b6105db8382611d93565b604051631c57762b60e31b81526001600160a01b0384169063e2bbb1589061060a906001908590600401613ddc565b602060405180830381600087803b15801561062457600080fd5b505af1158015610638573d6000803e3d6000fd5b505050506040513d601f19601f8201168201806040525081019061065c91906133d9565b50826001600160a01b03167f07146ef3ff2146eaf34fa4d392d4c56663333b682654b3123bf270f9ec529f318260405161069691906134fe565b60405180910390a26101c4546106ac9082611e4f565b6101c455505060c9805460ff1916600117905550565b600054610100900460ff16806106db57506106db611e74565b806106e9575060005460ff16155b6107055760405162461bcd60e51b815260040161048590613b43565b600054610100900460ff16158015610730576000805460ff1961ff0019909116610100171660011790555b6001600160a01b0382166107565760405162461bcd60e51b815260040161048590613acd565b61075e611e7a565b610766611efb565b61076e611f87565b610786600080516020613e00833981519152836108ed565b61079e600080516020613e20833981519152836108ed565b6107c4600080516020613e20833981519152600080516020613e00833981519152612016565b6107dc600080516020613e0083398151915280612016565b80156107ee576000805461ff00191690555b5050565b60009081526065602052604090206002015490565b60975460009060ff161561082d5760405162461bcd60e51b815260040161048590613a77565b60c95460ff1661084f5760405162461bcd60e51b815260040161048590613c91565b60c9805460ff19169055816108765760405162461bcd60e51b815260040161048590613bc8565b6101c7541561088757610887611ce8565b60006108928361120e565b905061089e838261202b565b91505060c9805460ff19166001179055919050565b6000828152606560205260409020600201546108d1906103ab6121fd565b6108ed5760405162461bcd60e51b815260040161048590613652565b6107ee8282612201565b6108ff6121fd565b6001600160a01b0316816001600160a01b03161461092f5760405162461bcd60e51b815260040161048590613d56565b6107ee828261226a565b610953600080516020613e208339815191526103ab6121fd565b61096f5760405162461bcd60e51b81526004016104859061380b565b6109776122d3565b565b600054610100900460ff16806109925750610992611e74565b806109a0575060005460ff16155b6109bc5760405162461bcd60e51b815260040161048590613b43565b600054610100900460ff161580156109e7576000805460ff1961ff0019909116610100171660011790555b6001600160a01b03831615801590610a0757506001600160a01b03821615155b610a235760405162461bcd60e51b81526004016104859061375c565b610a2c836106c2565b6101c680546001600160a01b0319166001600160a01b038481169190911791829055610a58911661233f565b6001600160a01b031663872697296040518163ffffffff1660e01b815260040160206040518083038186803b158015610a9057600080fd5b505afa158015610aa4573d6000803e3d6000fd5b505050506040513d601f19601f82011682018060405250810190610ac891906133d9565b6101c3556101c654610ae2906001600160a01b031661234a565b6001600160a01b031663ed80c8506040518163ffffffff1660e01b815260040160206040518083038186803b158015610b1a57600080fd5b505afa158015610b2e573d6000803e3d6000fd5b505050506040513d601f19601f82011682018060405250810190610b5291906133d9565b6101c4556101c654610b6c906001600160a01b031661234a565b6001600160a01b031663a6f4487e6040518163ffffffff1660e01b815260040160206040518083038186803b158015610ba457600080fd5b505afa158015610bb8573d6000803e3d6000fd5b505050506040513d601f19601f82011682018060405250810190610bdc91906133d9565b6101c5556101c654600090610bf9906001600160a01b0316612355565b9050806001600160a01b03166318160ddd6040518163ffffffff1660e01b815260040160206040518083038186803b158015610c3457600080fd5b505afa158015610c48573d6000803e3d6000fd5b505050506040513d601f19601f82011682018060405250810190610c6c91906133d9565b5060405163095ea7b360e01b81526000906001600160a01b0383169063095ea7b390610ca0903090600019906004016134b6565b602060405180830381600087803b158015610cba57600080fd5b505af1158015610cce573d6000803e3d6000fd5b505050506040513d601f19601f82011682018060405250810190610cf291906132e8565b905080610d115760405162461bcd60e51b8152600401610485906136cf565b50508015610d25576000805461ff00191690555b505050565b6101c654600090610d43906001600160a01b031661235c565b6001600160a01b031663d505accf333089898989896040518863ffffffff1660e01b8152600401610d7a9796959493929190613475565b600060405180830381600087803b158015610d9457600080fd5b505af1158015610da8573d6000803e3d6000fd5b50505050610db58661183d565b9695505050505050565b610dc76119e4565b610de35760405162461bcd60e51b815260040161048590613d0b565b6101c654610df9906001600160a01b03166123dc565b6101c680546001600160a01b0319166001600160a01b0392909216919091179055565b600054610100900460ff1680610e355750610e35611e74565b80610e43575060005460ff16155b610e5f5760405162461bcd60e51b815260040161048590613b43565b600054610100900460ff16158015610e8a576000805460ff1961ff0019909116610100171660011790555b610e92611efb565b8015610ea4576000805461ff00191690555b50565b60975460009060ff1615610ecd5760405162461bcd60e51b815260040161048590613a77565b60c95460ff16610eef5760405162461bcd60e51b815260040161048590613c91565b60c9805460ff1916905581610f165760405162461bcd60e51b815260040161048590613bc8565b6101c75415610f2757610f27611ce8565b6000610f32836123f4565b905082610f3f828261202b565b9250505060c9805460ff19166001179055919050565b60975460ff1690565b6101c5546101c4546101c65460009261101f929091611019919061101390610f8e906001600160a01b0316612355565b6001600160a01b03166370a08231306040518263ffffffff1660e01b8152600401610fb99190613461565b60206040518083038186803b158015610fd157600080fd5b505afa158015610fe5573d6000803e3d6000fd5b505050506040513d601f19601f8201168201806040525081019061100991906133d9565b6101c75490611e4f565b90611e4f565b90612418565b905090565b600061102e613240565b6101c654611044906001600160a01b031661245a565b6001600160a01b0316638c7a63ae846040518263ffffffff1660e01b815260040161106f91906134fe565b60a06040518083038186803b15801561108757600080fd5b505afa15801561109b573d6000803e3d6000fd5b505050506040513d601f19601f820116820180604052508101906110bf9190613365565b80516060820151604083015192935090916000916110dd9190612418565b90506000806110ec8484612465565b98975050505050505050565b6101c6546001600160a01b031681565b600061111382611c54565b61112f5760405162461bcd60e51b815260040161048590613aa1565b6101c654600090611148906001600160a01b0316611d88565b604051631f999a2d60e01b81529091506001600160a01b03821690631f999a2d906111799030908790600401613535565b60206040518083038186803b15801561119157600080fd5b505afa1580156111a5573d6000803e3d6000fd5b505050506040513d601f19601f820116820180604052508101906111c991906133d9565b9392505050565b6111ea600080516020613e208339815191526103ab6121fd565b6112065760405162461bcd60e51b81526004016104859061380b565b6109776125a2565b60006112376101c3546112316112226125fb565b61122b86612607565b90612622565b9061265c565b92915050565b6101c35481565b61124c6119e4565b6112685760405162461bcd60e51b815260040161048590613d0b565b60975460ff161561128b5760405162461bcd60e51b815260040161048590613a77565b610977611ce8565b60008281526065602052604081206111c9908361269e565b60008281526065602052604081206111c990836126aa565b60975460ff16156112e65760405162461bcd60e51b815260040161048590613a77565b60c95460ff166113085760405162461bcd60e51b815260040161048590613c91565b60c9805460ff1916905561131a6119e4565b6113365760405162461bcd60e51b815260040161048590613d0b565b6101c65460009061134f906001600160a01b031661245a565b6040516331a9108f60e11b81529091506001600160a01b03821690636352211e9061137e9085906004016134fe565b60206040518083038186803b15801561139657600080fd5b505afa1580156113aa573d6000803e3d6000fd5b505050506040513d601f19601f820116820180604052508101906113ce9190613294565b6001600160a01b0316306001600160a01b0316146113fe5760405162461bcd60e51b8152600401610485906139ca565b611406613240565b60405163463d31d760e11b81526001600160a01b03831690638c7a63ae906114329086906004016134fe565b60a06040518083038186803b15801561144a57600080fd5b505afa15801561145e573d6000803e3d6000fd5b505050506040513d601f19601f820116820180604052508101906114829190613365565b805190915061149081611c54565b6114ac5760405162461bcd60e51b815260040161048590613aa1565b60006114c98360600151846040015161241890919063ffffffff16565b90506000806114d88484612465565b6001600160a01b03861660009081526101c86020526040902054919350915082158015611503575080155b1561151457505050505050506115bd565b6001600160a01b03851660009081526101c86020526040902082905581810361153c816126bf565b600081131561155c576101c5546115539082612418565b6101c555611573565b6101c55461156e906000839003611e4f565b6101c5555b856001600160a01b03167f176e189790e519c3382df7234bd391cc24005bf9cfaaa9de00103c208e10a274826040516115ac91906134fe565b60405180910390a250505050505050505b5060c9805460ff19166001179055565b6115d56119e4565b6115f15760405162461bcd60e51b815260040161048590613d0b565b60975460ff16156116145760405162461bcd60e51b815260040161048590613a77565b6101c65460009061162d906001600160a01b0316612355565b90506000816001600160a01b03166370a08231306040518263ffffffff1660e01b815260040161165d9190613461565b60206040518083038186803b15801561167557600080fd5b505afa158015611689573d6000803e3d6000fd5b505050506040513d601f19601f820116820180604052508101906116ad91906133d9565b6101c6549091506000906116c9906001600160a01b0316612716565b90506000836001600160a01b031663095ea7b383856040518363ffffffff1660e01b81526004016116fb9291906134b6565b602060405180830381600087803b15801561171557600080fd5b505af1158015611729573d6000803e3d6000fd5b505050506040513d601f19601f8201168201806040525081019061174d91906132e8565b90508061176c5760405162461bcd60e51b815260040161048590613cc8565b6117768284612721565b6101c65461178c906001600160a01b0316612355565b6001600160a01b031663095ea7b38360006040518363ffffffff1660e01b81526004016117ba9291906134b6565b602060405180830381600087803b1580156117d457600080fd5b505af11580156117e8573d6000803e3d6000fd5b505050506040513d601f19601f8201168201806040525081019061180c91906132e8565b90508061182b5760405162461bcd60e51b815260040161048590613cc8565b50505050565b600081565b6101c55481565b60975460009060ff16156118635760405162461bcd60e51b815260040161048590613a77565b60c95460ff166118855760405162461bcd60e51b815260040161048590613c91565b60c9805460ff19169055816118ac5760405162461bcd60e51b815260040161048590613da5565b6118b58261120e565b905060006118c582611013612808565b90506118d081612891565b6118ec5760405162461bcd60e51b815260040161048590613c41565b336001600160a01b03167f0b05f0d1cd0819f155b8a61f60baf7767c1ee49d04aeaab701df236140eb93f98484604051611927929190613ddc565b60405180910390a2600061193c333086612930565b90508061195b5760405162461bcd60e51b81526004016104859061361b565b6101c654611971906001600160a01b03166129ff565b6001600160a01b031663449a52f833856040518363ffffffff1660e01b815260040161199e9291906134b6565b600060405180830381600087803b1580156119b857600080fd5b505af11580156119cc573d6000803e3d6000fd5b50505050505060c9805460ff19166001179055919050565b600061101f600080516020613e008339815191526103ab6121fd565b600081815260656020526040812061123790612a0a565b600082815260656020526040902060020154611a35906103ab6121fd565b61092f5760405162461bcd60e51b815260040161048590613a27565b6101c86020526000908152604090205481565b60975460ff1615611a875760405162461bcd60e51b815260040161048590613a77565b60c95460ff16611aa95760405162461bcd60e51b815260040161048590613c91565b60c9805460ff19169055611abb6119e4565b611ad75760405162461bcd60e51b815260040161048590613d0b565b6101c654600090611af0906001600160a01b031661245a565b9050611afa613240565b60405163463d31d760e11b81526001600160a01b03831690638c7a63ae90611b269086906004016134fe565b60a06040518083038186803b158015611b3e57600080fd5b505afa158015611b52573d6000803e3d6000fd5b505050506040513d601f19601f82011682018060405250810190611b769190613365565b8051604051632a8a9f1360e21b81529192509060009081906001600160a01b0384169063aa2a7c4c90611bad9089906004016134fe565b6040805180830381600087803b158015611bc657600080fd5b505af1158015611bda573d6000803e3d6000fd5b505050506040513d601f19601f82011682018060405250810190611bfe91906133f1565b91509150611c0d838383612a15565b505060c9805460ff1916600117905550505050565b600080516020613e0083398151915281565b600080516020613e2083398151915281565b6101c45481565b6101c75481565b6101c654600090611c6d906001600160a01b031661245a565b6001600160a01b031663b5ada6d8836040518263ffffffff1660e01b8152600401611c989190613461565b60206040518083038186803b158015611cb057600080fd5b505afa158015611cc4573d6000803e3d6000fd5b505050506040513d601f19601f8201168201806040525081019061123791906132e8565b6101c654600090611d01906001600160a01b0316612716565b9050610ea481826001600160a01b03166370a08231306040518263ffffffff1660e01b8152600401611d339190613461565b60206040518083038186803b158015611d4b57600080fd5b505afa158015611d5f573d6000803e3d6000fd5b505050506040513d601f19601f82011682018060405250810190611d8391906133d9565b612adc565b600061123782612df5565b6101c654600090611dac906001600160a01b0316612355565b90506000816001600160a01b031663095ea7b385856040518363ffffffff1660e01b8152600401611dde9291906134b6565b602060405180830381600087803b158015611df857600080fd5b505af1158015611e0c573d6000803e3d6000fd5b505050506040513d601f19601f82011682018060405250810190611e3091906132e8565b90508061182b5760405162461bcd60e51b8152600401610485906136cf565b6000828201838110156111c95760405162461bcd60e51b815260040161048590613857565b303b1590565b600054610100900460ff1680611e935750611e93611e74565b80611ea1575060005460ff16155b611ebd5760405162461bcd60e51b815260040161048590613b43565b600054610100900460ff16158015610e92576000805460ff1961ff0019909116610100171660011790558015610ea4576000805461ff001916905550565b600054610100900460ff1680611f145750611f14611e74565b80611f22575060005460ff16155b611f3e5760405162461bcd60e51b815260040161048590613b43565b600054610100900460ff16158015611f69576000805460ff1961ff0019909116610100171660011790555b6097805460ff191690558015610ea4576000805461ff001916905550565b600054610100900460ff1680611fa05750611fa0611e74565b80611fae575060005460ff16155b611fca5760405162461bcd60e51b815260040161048590613b43565b600054610100900460ff16158015611ff5576000805460ff1961ff0019909116610100171660011790555b60c9805460ff191660011790558015610ea4576000805461ff001916905550565b60009182526065602052604090912060020155565b6101c6546000908190612046906001600160a01b03166129ff565b90506000816001600160a01b03166370a08231336040518263ffffffff1660e01b81526004016120769190613461565b60206040518083038186803b15801561208e57600080fd5b505afa1580156120a2573d6000803e3d6000fd5b505050506040513d601f19601f820116820180604052508101906120c691906133d9565b9050808411156120e85760405162461bcd60e51b8152600401610485906136ff565b6101c65460009061210c90612105906001600160a01b0316612e0d565b879061265c565b90506121188682612418565b9350336001600160a01b03167f2d4d49c3e017b8235c908cbaa83a2431a08f3b950712696ece2088964fd399f08583604051612155929190613ddc565b60405180910390a2600061216a303387612930565b9050806121895760405162461bcd60e51b815260040161048590613919565b6121938233612e8d565b60405163079cc67960e41b81526001600160a01b038516906379cc6790906121c19033908a906004016134b6565b600060405180830381600087803b1580156121db57600080fd5b505af11580156121ef573d6000803e3d6000fd5b505050505050505092915050565b3390565b60008281526065602052604090206122199082612f12565b156107ee576122266121fd565b6001600160a01b0316816001600160a01b0316837f2f8788117e7eff1d82e926ec794901d17c78024a50270940304540a733656f0d60405160405180910390a45050565b60008281526065602052604090206122829082612f27565b156107ee5761228f6121fd565b6001600160a01b0316816001600160a01b0316837ff6391f5c32d9c69d2a47ea670b442974b53935d1edc7fd64eb21e047a839171b60405160405180910390a45050565b60975460ff166122f55760405162461bcd60e51b8152600401610485906136a1565b6097805460ff191690557f5db9ee0a495bf2e6ff9c91a7834c1ba4fdd244a5e8aa4e537bd38aeae4b073aa6123286121fd565b6040516123359190613461565b60405180910390a1565b600061123782612f3c565b600061123782612f53565b6000611237825b60006001600160a01b03821663b93f9b0a60055b6040518263ffffffff1660e01b815260040161238c91906134fe565b60206040518083038186803b1580156123a457600080fd5b505afa1580156123b8573d6000803e3d6000fd5b505050506040513d601f19601f820116820180604052508101906112379190613294565b60006001600160a01b03821663b93f9b0a600b612370565b60006112376124136124046125fb565b6101c354611231908690612622565b612f6b565b60006111c983836040518060400160405280601e81526020017f536166654d6174683a207375627472616374696f6e206f766572666c6f770000815250612f83565b600061123782612faf565b60008073__$1dcd660c042b25ef260537b13a3f0ede49$__6397aec1ab856001600160a01b03166347195e136040518163ffffffff1660e01b815260040160206040518083038186803b1580156124bb57600080fd5b505afa1580156124cf573d6000803e3d6000fd5b505050506040513d601f19601f820116820180604052508101906124f39190613294565b856124fc612fc7565b6101c654612512906001600160a01b0316612fcb565b6101c654612528906001600160a01b0316612fe3565b6040518663ffffffff1660e01b8152600401612548959493929190613507565b604080518083038186803b15801561255f57600080fd5b505af4158015612573573d6000803e3d6000fd5b505050506040513d601f19601f8201168201806040525081019061259791906133f1565b915091509250929050565b60975460ff16156125c55760405162461bcd60e51b815260040161048590613a77565b6097805460ff191660011790557f62e78cea01bee320cd4e420270b5ea74000d11b0c9f74754ebdbfc544b05a2586123286121fd565b670de0b6b3a764000090565b6000611237612614612ffb565b61123161261f6125fb565b85905b60008261263157506000611237565b8282028284828161263e57fe5b04146111c95760405162461bcd60e51b815260040161048590613b02565b60006111c983836040518060400160405280601a81526020017f536166654d6174683a206469766973696f6e206279207a65726f000000000000815250613002565b60006111c98383613039565b60006111c9836001600160a01b03841661307e565b60008113156126ee5760006126d382613096565b6101c3549091506126e49082611e4f565b6101c35550610ea4565b60006126fd8260001902613096565b6101c35490915061270e9082612418565b6101c3555050565b6000611237826130ae565b6101c754156127425760405162461bcd60e51b81526004016104859061388e565b8061275f5760405162461bcd60e51b8152600401610485906135a2565b60405163140e25ad60e31b81526000906001600160a01b0384169063a0712d689061278e9085906004016134fe565b602060405180830381600087803b1580156127a857600080fd5b505af11580156127bc573d6000803e3d6000fd5b505050506040513d601f19601f820116820180604052508101906127e091906133d9565b905080156128005760405162461bcd60e51b8152600401610485906138e2565b506101c75550565b6101c654600090612821906001600160a01b03166129ff565b6001600160a01b03166318160ddd6040518163ffffffff1660e01b815260040160206040518083038186803b15801561285957600080fd5b505afa15801561286d573d6000803e3d6000fd5b505050506040513d601f19601f8201168201806040525081019061101f91906133d9565b6101c65460009061291d906001600160a01b031663fc56365860016040518263ffffffff1660e01b81526004016128c891906134fe565b60206040518083038186803b1580156128e057600080fd5b505afa1580156128f4573d6000803e3d6000fd5b505050506040513d601f19601f8201168201806040525081019061291891906133d9565b612607565b6129286124046125fb565b111592915050565b60006001600160a01b0383166129585760405162461bcd60e51b8152600401610485906137a6565b6101c654600090612971906001600160a01b0316612355565b6040516323b872dd60e01b81529091506001600160a01b038216906323b872dd906129a4908890889088906004016134cf565b602060405180830381600087803b1580156129be57600080fd5b505af11580156129d2573d6000803e3d6000fd5b505050506040513d601f19601f820116820180604052508101906129f691906132e8565b95945050505050565b6000611237826130c6565b6000611237826130de565b6000612a2083613096565b6101c354909150612a319082611e4f565b6101c3558215612a7d57836001600160a01b03167fed3bc1b58411ea8e764b3ef8fa6b654877bc1e796a5a1a2373dfc8f1c0e0ea4884604051612a7491906134fe565b60405180910390a25b811561182b57836001600160a01b03167f8295ad220549851bab232c2a7ae2e3c53a63d2294602bc85f8d8af108778a37e83604051612abc91906134fe565b60405180910390a26101c454612ad29083612418565b6101c45550505050565b6101c75480612afd5760405162461bcd60e51b8152600401610485906137dd565b81612b1a5760405162461bcd60e51b8152600401610485906135a2565b6101c654600090612b33906001600160a01b0316612355565b90506000816001600160a01b03166370a08231306040518263ffffffff1660e01b8152600401612b639190613461565b60206040518083038186803b158015612b7b57600080fd5b505afa158015612b8f573d6000803e3d6000fd5b505050506040513d601f19601f82011682018060405250810190612bb391906133d9565b90506000856001600160a01b031663bd6d894d6040518163ffffffff1660e01b8152600401602060405180830381600087803b158015612bf257600080fd5b505af1158015612c06573d6000803e3d6000fd5b505050506040513d601f19601f82011682018060405250810190612c2a91906133d9565b90506000612c3882876130e2565b90506000876001600160a01b031663db006a75886040518263ffffffff1660e01b8152600401612c6891906134fe565b602060405180830381600087803b158015612c8257600080fd5b505af1158015612c96573d6000803e3d6000fd5b505050506040513d601f19601f82011682018060405250810190612cba91906133d9565b90506000856001600160a01b03166370a08231306040518263ffffffff1660e01b8152600401612cea9190613461565b60206040518083038186803b158015612d0257600080fd5b505afa158015612d16573d6000803e3d6000fd5b505050506040513d601f19601f82011682018060405250810190612d3a91906133d9565b90508115612d5a5760405162461bcd60e51b815260040161048590613993565b82612d658287612418565b14612d825760405162461bcd60e51b815260040161048590613b91565b6000612d8e8489612418565b6101c654909150600090612db590612dae906001600160a01b0316613100565b839061265c565b90506000612dc38383612418565b9050612dd130826000612a15565b8115612de157612de1828d612e8d565b505060006101c75550505050505050505050565b60006001600160a01b03821663b93f9b0a600f612370565b60006001600160a01b03821663fc56365860045b6040518263ffffffff1660e01b8152600401612e3d91906134fe565b60206040518083038186803b158015612e5557600080fd5b505afa158015612e69573d6000803e3d6000fd5b505050506040513d601f19601f8201168201806040525081019061123791906133d9565b806001600160a01b03167ff3583f178a8d4f8888c3683f8e948faf9b6eb701c4f1fab265a6ecad1a1ddebb83604051612ec691906134fe565b60405180910390a26101c654600090612ef3903090612eed906001600160a01b0316613118565b85612930565b905080610d255760405162461bcd60e51b815260040161048590613950565b60006111c9836001600160a01b038416613130565b60006111c9836001600160a01b03841661317a565b60006001600160a01b03821663b93f9b0a82612370565b60006001600160a01b03821663b93f9b0a6003612370565b6000611237612dae612f7b612ffb565b6112316125fb565b60008184841115612fa75760405162461bcd60e51b8152600401610485919061354f565b505050900390565b60006001600160a01b03821663b93f9b0a600c612370565b4290565b60006001600160a01b03821663fc5636586005612e21565b60006001600160a01b03821663fc5636586006612e21565b620f424090565b600081836130235760405162461bcd60e51b8152600401610485919061354f565b50600083858161302f57fe5b0495945050505050565b8154600090821061305c5760405162461bcd60e51b8152600401610485906135d9565b82600001828154811061306b57fe5b9060005260206000200154905092915050565b60009081526001919091016020526040902054151590565b60006112376130a3612808565b6112316112226125fb565b60006001600160a01b03821663b93f9b0a600a612370565b60006001600160a01b03821663b93f9b0a6004612370565b5490565b6000600660086129f66064611231662386f26fc1000081888a612622565b60006001600160a01b03821663fc5636586003612e21565b60006001600160a01b03821663b93f9b0a6006612370565b600061313c838361307e565b61317257508154600181810184556000848152602080822090930184905584548482528286019093526040902091909155611237565b506000611237565b6000818152600183016020526040812054801561323657835460001980830191908101906000908790839081106131ad57fe5b90600052602060002001549050808760000184815481106131ca57fe5b6000918252602080832090910192909255828152600189810190925260409020908401905586548790806131fa57fe5b60019003818190600052602060002001600090559055866001016000878152602001908152602001600020600090556001945050505050611237565b6000915050611237565b6040518060a0016040528060006001600160a01b03168152602001600081526020016000815260200160008152602001600081525090565b600060208284031215613289578081fd5b81356111c981613dea565b6000602082840312156132a5578081fd5b81516111c981613dea565b600080604083850312156132c2578081fd5b82356132cd81613dea565b915060208301356132dd81613dea565b809150509250929050565b6000602082840312156132f9578081fd5b815180151581146111c9578182fd5b600060208284031215613319578081fd5b5035919050565b60008060408385031215613332578182fd5b8235915060208301356132dd81613dea565b60008060408385031215613356578182fd5b50508035926020909101359150565b600060a08284031215613376578081fd5b60405160a0810181811067ffffffffffffffff82111715613395578283fd5b60405282516133a381613dea565b80825250602083015160208201526040830151604082015260608301516060820152608083015160808201528091505092915050565b6000602082840312156133ea578081fd5b5051919050565b60008060408385031215613403578182fd5b505080516020909101519092909150565b600080600080600060a0868803121561342b578081fd5b8535945060208601359350604086013560ff81168114613449578182fd5b94979396509394606081013594506080013592915050565b6001600160a01b0391909116815260200190565b6001600160a01b0397881681529590961660208601526040850193909352606084019190915260ff16608083015260a082015260c081019190915260e00190565b6001600160a01b03929092168252602082015260400190565b6001600160a01b039384168152919092166020820152604081019190915260600190565b901515815260200190565b90815260200190565b6001600160a01b03959095168552602085019390935260408401919091526060830152608082015260a00190565b6001600160a01b0392831681529116602082015260400190565b6000602080835283518082850152825b8181101561357b5785810183015185820160400152820161355f565b8181111561358c5783604083870101525b50601f01601f1916929092016040019392505050565b6020808252601e908201527f416d6f756e7420746f2073776565702063616e6e6f74206265207a65726f0000604082015260600190565b60208082526022908201527f456e756d657261626c655365743a20696e646578206f7574206f6620626f756e604082015261647360f01b606082015260800190565b6020808252601e908201527f4661696c656420746f207472616e7366657220666f72206465706f7369740000604082015260600190565b6020808252602f908201527f416363657373436f6e74726f6c3a2073656e646572206d75737420626520616e60408201526e0818591b5a5b881d1bc819dc985b9d608a1b606082015260800190565b60208082526014908201527314185d5cd8589b194e881b9bdd081c185d5cd95960621b604082015260600190565b6020808252601690820152754661696c656420746f20617070726f7665205553444360501b604082015260600190565b60208082526037908201527f416d6f756e74207265717565737465642069732067726561746572207468616e60408201527f207768617420746869732061646472657373206f776e73000000000000000000606082015260800190565b6020808252602a908201527f4f776e657220616e6420636f6e666967206164647265737365732063616e6e6f6040820152697420626520656d70747960b01b606082015260800190565b6020808252601a908201527f43616e27742073656e6420746f207a65726f2061646472657373000000000000604082015260600190565b602080825260149082015273139bc8199d5b991cc81bdb8818dbdb5c1bdd5b9960621b604082015260600190565b6020808252602c908201527f4d75737420686176652070617573657220726f6c6520746f20706572666f726d60408201526b103a3434b99030b1ba34b7b760a11b606082015260800190565b6020808252601b908201527f536166654d6174683a206164646974696f6e206f766572666c6f770000000000604082015260600190565b60208082526034908201527f43616e6e6f74207377656570207768656e20776520616c72656164792068617660408201527365206120636f6d706f756e642062616c616e636560601b606082015260800190565b60208082526018908201527f537765657020746f20636f6d706f756e64206661696c65640000000000000000604082015260600190565b6020808252601f908201527f4661696c656420746f207472616e7366657220666f7220776974686472617700604082015260600190565b60208082526023908201527f52657365727665207472616e7366657220776173206e6f742073756363657373604082015262199d5b60ea1b606082015260800190565b6020808252601a908201527f53776565702066726f6d20636f6d706f756e64206661696c6564000000000000604082015260600190565b60208082526038908201527f4f6e6c7920746f6b656e73206f776e6564206279207468652073656e696f722060408201527f66756e642063616e206265207772697474656e20646f776e0000000000000000606082015260800190565b60208082526030908201527f416363657373436f6e74726f6c3a2073656e646572206d75737420626520616e60408201526f2061646d696e20746f207265766f6b6560801b606082015260800190565b60208082526010908201526f14185d5cd8589b194e881c185d5cd95960821b604082015260600190565b602080825260129082015271141bdbdb081b5d5cdd081899481d985b1a5960721b604082015260600190565b6020808252818101527f4f776e65722063616e6e6f7420626520746865207a65726f2061646472657373604082015260600190565b60208082526021908201527f536166654d6174683a206d756c7469706c69636174696f6e206f766572666c6f6040820152607760f81b606082015260800190565b6020808252602e908201527f436f6e747261637420696e7374616e63652068617320616c726561647920626560408201526d195b881a5b9a5d1a585b1a5e995960921b606082015260800190565b60208082526018908201527f556e65787065637465642072656465656d20616d6f756e740000000000000000604082015260600190565b6020808252601c908201527f4d757374207769746864726177206d6f7265207468616e207a65726f00000000604082015260600190565b60208082526022908201527f496e766573746d656e7420616d6f756e74206d75737420626520706f73697469604082015261766560f01b606082015260800190565b60208082526030908201527f4465706f73697420776f756c6420707574207468652066756e64206f7665722060408201526f3a3432903a37ba30b6103634b6b4ba1760811b606082015260800190565b6020808252601f908201527f5265656e7472616e637947756172643a207265656e7472616e742063616c6c00604082015260600190565b60208082526023908201527f4661696c656420746f20617070726f7665205553444320666f7220636f6d706f6040820152621d5b9960ea1b606082015260800190565b6020808252602b908201527f4d75737420686176652061646d696e20726f6c6520746f20706572666f726d2060408201526a3a3434b99030b1ba34b7b760a91b606082015260800190565b6020808252602f908201527f416363657373436f6e74726f6c3a2063616e206f6e6c792072656e6f756e636560408201526e103937b632b9903337b91039b2b63360891b606082015260800190565b6020808252601b908201527f4d757374206465706f736974206d6f7265207468616e207a65726f0000000000604082015260600190565b918252602082015260400190565b6001600160a01b0381168114610ea457600080fdfeb19546dff01e856fb3f010c267a7b1c60363cf8a4664e21cc89c26224620214e65d7a28e3265b37a6474929f336521b332c1681b933f6cb9f3376673440d862aa26469706673582212204e61b147ba22591b81ae112f538411837a201ab8630d02cb1030d9e8447f31a864736f6c634300060c0033",
  "libraries": {
    "Accountant": "0x37CF6E5D79034D253C6DF9f6fa095510AA196F12"
  },
  "devdoc": {
    "author": "Goldfinch",
    "kind": "dev",
    "methods": {
      "calculateWritedown(uint256)": {
        "params": {
          "tokenId": "The token reprsenting the position"
        },
        "returns": {
          "_0": "The amount in dollars the principal should be written down by"
        }
      },
      "deposit(uint256)": {
        "params": {
          "amount": "The amount of USDC to deposit"
        }
      },
      "depositWithPermit(uint256,uint256,uint8,bytes32,bytes32)": {
        "params": {
          "amount": "The amount of USDC to deposit",
          "r": "secp256k1 signature component",
          "s": "secp256k1 signature component",
          "v": "secp256k1 signature component"
        }
      },
      "getNumShares(uint256)": {
        "params": {
          "amount": "USDC amount to convert to FIDU"
        }
      },
      "getRoleAdmin(bytes32)": {
        "details": "Returns the admin role that controls `role`. See {grantRole} and {revokeRole}. To change a role's admin, use {_setRoleAdmin}."
      },
      "getRoleMember(bytes32,uint256)": {
        "details": "Returns one of the accounts that have `role`. `index` must be a value between 0 and {getRoleMemberCount}, non-inclusive. Role bearers are not sorted in any particular way, and their ordering may change at any point. WARNING: When using {getRoleMember} and {getRoleMemberCount}, make sure you perform all queries on the same block. See the following https://forum.openzeppelin.com/t/iterating-over-elements-on-enumerableset-in-openzeppelin-contracts/2296[forum post] for more information."
      },
      "getRoleMemberCount(bytes32)": {
        "details": "Returns the number of accounts that have `role`. Can be used together with {getRoleMember} to enumerate all bearers of a role."
      },
      "grantRole(bytes32,address)": {
        "details": "Grants `role` to `account`. If `account` had not been already granted `role`, emits a {RoleGranted} event. Requirements: - the caller must have ``role``'s admin role."
      },
      "hasRole(bytes32,address)": {
        "details": "Returns `true` if `account` has been granted `role`."
      },
      "invest(address)": {
        "params": {
          "pool": "An ITranchedPool that should be considered for investment"
        }
      },
      "pause()": {
        "details": "Pauses all functions guarded by Pause See {Pausable-_pause}. Requirements: - the caller must have the PAUSER_ROLE."
      },
      "paused()": {
        "details": "Returns true if the contract is paused, and false otherwise."
      },
      "redeem(uint256)": {
        "params": {
          "tokenId": "the ID of an IPoolTokens token to be redeemed"
        }
      },
      "renounceRole(bytes32,address)": {
        "details": "Revokes `role` from the calling account. Roles are often managed via {grantRole} and {revokeRole}: this function's purpose is to provide a mechanism for accounts to lose their privileges if they are compromised (such as when a trusted device is misplaced). If the calling account had been granted `role`, emits a {RoleRevoked} event. Requirements: - the caller must be `account`."
      },
      "revokeRole(bytes32,address)": {
        "details": "Revokes `role` from `account`. If `account` had been granted `role`, emits a {RoleRevoked} event. Requirements: - the caller must have ``role``'s admin role."
      },
      "unpause()": {
        "details": "Unpauses the contract See {Pausable-_unpause}. Requirements: - the caller must have the Pauser role"
      },
      "withdraw(uint256)": {
        "params": {
          "usdcAmount": "The amount of USDC to withdraw"
        }
      },
      "withdrawInFidu(uint256)": {
        "params": {
          "fiduAmount": "The amount of USDC to withdraw in terms of FIDU shares"
        }
      },
      "writedown(uint256)": {
        "params": {
          "tokenId": "the ID of an IPoolTokens token to be considered for writedown"
        }
      }
    },
    "title": "Goldfinch's SeniorPool contract",
    "version": 1
  },
  "userdoc": {
    "kind": "user",
    "methods": {
      "assets()": {
        "notice": "Returns the net assests controlled by and owed to the pool"
      },
      "calculateWritedown(uint256)": {
        "notice": "Calculates the writedown amount for a particular pool position"
      },
      "deposit(uint256)": {
        "notice": "Deposits `amount` USDC from msg.sender into the SeniorPool, and grants you the  equivalent value of FIDU tokens"
      },
      "depositWithPermit(uint256,uint256,uint8,bytes32,bytes32)": {
        "notice": "Identical to deposit, except it allows for a passed up signature to permit  the Senior Pool to move funds on behalf of the user, all within one transaction."
      },
      "getNumShares(uint256)": {
        "notice": "Converts and USDC amount to FIDU amount"
      },
      "invest(address)": {
        "notice": "Invest in an ITranchedPool using the fund's strategy"
      },
      "redeem(uint256)": {
        "notice": "Redeem interest and/or principal from an ITranchedPool investment"
      },
      "sweepFromCompound()": {
        "notice": "Moves any USDC from Compound back to the SeniorPool, and recognizes interest earned. This is done automatically on drawdown or withdraw, but can be called manually if necessary. Requirements:  - The caller must be an admin."
      },
      "sweepToCompound()": {
        "notice": "Moves any USDC still in the SeniorPool to Compound, and tracks the amount internally. This is done to earn interest on latent funds until we have other borrowers who can use it. Requirements:  - The caller must be an admin."
      },
      "updateGoldfinchConfig()": {
        "notice": "Migrates to a new goldfinch config address"
      },
      "withdraw(uint256)": {
        "notice": "Withdraws USDC from the SeniorPool to msg.sender, and burns the equivalent value of FIDU tokens"
      },
      "withdrawInFidu(uint256)": {
        "notice": "Withdraws USDC (denominated in FIDU terms) from the SeniorPool to msg.sender"
      },
      "writedown(uint256)": {
        "notice": "Write down an ITranchedPool investment. This will adjust the fund's share price  down if we're considering the investment a loss, or up if the borrower has subsequently  made repayments that restore confidence that the full loan will be repaid."
      }
    },
    "notice": "Main entry point for senior LPs (a.k.a. capital providers)  Automatically invests across borrower pools using an adjustable strategy.",
    "version": 1
  },
  "storageLayout": {
    "storage": [
      {
        "astId": 151,
        "contract": "contracts/protocol/core/SeniorPool.sol:SeniorPool",
        "label": "initialized",
        "offset": 0,
        "slot": "0",
        "type": "t_bool"
      },
      {
        "astId": 154,
        "contract": "contracts/protocol/core/SeniorPool.sol:SeniorPool",
        "label": "initializing",
        "offset": 1,
        "slot": "0",
        "type": "t_bool"
      },
      {
        "astId": 219,
        "contract": "contracts/protocol/core/SeniorPool.sol:SeniorPool",
        "label": "______gap",
        "offset": 0,
        "slot": "1",
        "type": "t_array(t_uint256)50_storage"
      },
      {
        "astId": 144,
        "contract": "contracts/protocol/core/SeniorPool.sol:SeniorPool",
        "label": "__gap",
        "offset": 0,
        "slot": "51",
        "type": "t_array(t_uint256)50_storage"
      },
      {
        "astId": 264,
        "contract": "contracts/protocol/core/SeniorPool.sol:SeniorPool",
        "label": "_roles",
        "offset": 0,
        "slot": "101",
        "type": "t_mapping(t_bytes32,t_struct(RoleData)260_storage)"
      },
      {
        "astId": 509,
        "contract": "contracts/protocol/core/SeniorPool.sol:SeniorPool",
        "label": "__gap",
        "offset": 0,
        "slot": "102",
        "type": "t_array(t_uint256)49_storage"
      },
      {
        "astId": 4201,
        "contract": "contracts/protocol/core/SeniorPool.sol:SeniorPool",
        "label": "_paused",
        "offset": 0,
        "slot": "151",
        "type": "t_bool"
      },
      {
        "astId": 4290,
        "contract": "contracts/protocol/core/SeniorPool.sol:SeniorPool",
        "label": "__gap",
        "offset": 0,
        "slot": "152",
        "type": "t_array(t_uint256)49_storage"
      },
      {
        "astId": 4299,
        "contract": "contracts/protocol/core/SeniorPool.sol:SeniorPool",
        "label": "_notEntered",
        "offset": 0,
        "slot": "201",
        "type": "t_bool"
      },
      {
        "astId": 4340,
        "contract": "contracts/protocol/core/SeniorPool.sol:SeniorPool",
        "label": "__gap",
        "offset": 0,
        "slot": "202",
        "type": "t_array(t_uint256)49_storage"
      },
      {
        "astId": 9355,
        "contract": "contracts/protocol/core/SeniorPool.sol:SeniorPool",
        "label": "__gap1",
        "offset": 0,
        "slot": "251",
        "type": "t_array(t_uint256)50_storage"
      },
      {
        "astId": 9359,
        "contract": "contracts/protocol/core/SeniorPool.sol:SeniorPool",
        "label": "__gap2",
        "offset": 0,
        "slot": "301",
        "type": "t_array(t_uint256)50_storage"
      },
      {
        "astId": 9363,
        "contract": "contracts/protocol/core/SeniorPool.sol:SeniorPool",
        "label": "__gap3",
        "offset": 0,
        "slot": "351",
        "type": "t_array(t_uint256)50_storage"
      },
      {
        "astId": 9367,
        "contract": "contracts/protocol/core/SeniorPool.sol:SeniorPool",
        "label": "__gap4",
        "offset": 0,
        "slot": "401",
        "type": "t_array(t_uint256)50_storage"
      },
      {
        "astId": 8141,
        "contract": "contracts/protocol/core/SeniorPool.sol:SeniorPool",
        "label": "sharePrice",
        "offset": 0,
        "slot": "451",
        "type": "t_uint256"
      },
      {
        "astId": 8143,
        "contract": "contracts/protocol/core/SeniorPool.sol:SeniorPool",
        "label": "totalLoansOutstanding",
        "offset": 0,
        "slot": "452",
        "type": "t_uint256"
      },
      {
        "astId": 8145,
        "contract": "contracts/protocol/core/SeniorPool.sol:SeniorPool",
        "label": "totalWritedowns",
        "offset": 0,
        "slot": "453",
        "type": "t_uint256"
      },
      {
        "astId": 16617,
        "contract": "contracts/protocol/core/SeniorPool.sol:SeniorPool",
        "label": "config",
        "offset": 0,
        "slot": "454",
        "type": "t_contract(GoldfinchConfig)13893"
      },
      {
        "astId": 16625,
        "contract": "contracts/protocol/core/SeniorPool.sol:SeniorPool",
        "label": "compoundBalance",
        "offset": 0,
        "slot": "455",
        "type": "t_uint256"
      },
      {
        "astId": 16629,
        "contract": "contracts/protocol/core/SeniorPool.sol:SeniorPool",
        "label": "writedowns",
        "offset": 0,
        "slot": "456",
        "type": "t_mapping(t_contract(ITranchedPool)8375,t_uint256)"
      }
    ],
    "types": {
      "t_array(t_bytes32)dyn_storage": {
        "base": "t_bytes32",
        "encoding": "dynamic_array",
        "label": "bytes32[]",
        "numberOfBytes": "32"
      },
      "t_array(t_uint256)49_storage": {
        "base": "t_uint256",
        "encoding": "inplace",
        "label": "uint256[49]",
        "numberOfBytes": "1568"
      },
      "t_array(t_uint256)50_storage": {
        "base": "t_uint256",
        "encoding": "inplace",
        "label": "uint256[50]",
        "numberOfBytes": "1600"
      },
      "t_bool": {
        "encoding": "inplace",
        "label": "bool",
        "numberOfBytes": "1"
      },
      "t_bytes32": {
        "encoding": "inplace",
        "label": "bytes32",
        "numberOfBytes": "32"
      },
      "t_contract(GoldfinchConfig)13893": {
        "encoding": "inplace",
        "label": "contract GoldfinchConfig",
        "numberOfBytes": "20"
      },
      "t_contract(ITranchedPool)8375": {
        "encoding": "inplace",
        "label": "contract ITranchedPool",
        "numberOfBytes": "20"
      },
      "t_mapping(t_bytes32,t_struct(RoleData)260_storage)": {
        "encoding": "mapping",
        "key": "t_bytes32",
        "label": "mapping(bytes32 => struct AccessControlUpgradeSafe.RoleData)",
        "numberOfBytes": "32",
        "value": "t_struct(RoleData)260_storage"
      },
      "t_mapping(t_bytes32,t_uint256)": {
        "encoding": "mapping",
        "key": "t_bytes32",
        "label": "mapping(bytes32 => uint256)",
        "numberOfBytes": "32",
        "value": "t_uint256"
      },
      "t_mapping(t_contract(ITranchedPool)8375,t_uint256)": {
        "encoding": "mapping",
        "key": "t_contract(ITranchedPool)8375",
        "label": "mapping(contract ITranchedPool => uint256)",
        "numberOfBytes": "32",
        "value": "t_uint256"
      },
      "t_struct(AddressSet)3976_storage": {
        "encoding": "inplace",
        "label": "struct EnumerableSet.AddressSet",
        "members": [
          {
            "astId": 3975,
            "contract": "contracts/protocol/core/SeniorPool.sol:SeniorPool",
            "label": "_inner",
            "offset": 0,
            "slot": "0",
            "type": "t_struct(Set)3796_storage"
          }
        ],
        "numberOfBytes": "64"
      },
      "t_struct(RoleData)260_storage": {
        "encoding": "inplace",
        "label": "struct AccessControlUpgradeSafe.RoleData",
        "members": [
          {
            "astId": 257,
            "contract": "contracts/protocol/core/SeniorPool.sol:SeniorPool",
            "label": "members",
            "offset": 0,
            "slot": "0",
            "type": "t_struct(AddressSet)3976_storage"
          },
          {
            "astId": 259,
            "contract": "contracts/protocol/core/SeniorPool.sol:SeniorPool",
            "label": "adminRole",
            "offset": 0,
            "slot": "2",
            "type": "t_bytes32"
          }
        ],
        "numberOfBytes": "96"
      },
      "t_struct(Set)3796_storage": {
        "encoding": "inplace",
        "label": "struct EnumerableSet.Set",
        "members": [
          {
            "astId": 3791,
            "contract": "contracts/protocol/core/SeniorPool.sol:SeniorPool",
            "label": "_values",
            "offset": 0,
            "slot": "0",
            "type": "t_array(t_bytes32)dyn_storage"
          },
          {
            "astId": 3795,
            "contract": "contracts/protocol/core/SeniorPool.sol:SeniorPool",
            "label": "_indexes",
            "offset": 0,
            "slot": "1",
            "type": "t_mapping(t_bytes32,t_uint256)"
          }
        ],
        "numberOfBytes": "64"
      },
      "t_uint256": {
        "encoding": "inplace",
        "label": "uint256",
        "numberOfBytes": "32"
      }
    }
  }
}