{
  "address": "0x229E0451aEA114be3579D7692B0d14466C9956F1",
  "abi": [
    {
      "anonymous": false,
      "inputs": [
        {
          "indexed": true,
          "internalType": "address",
          "name": "oldCreditLine",
          "type": "address"
        },
        {
          "indexed": true,
          "internalType": "address",
          "name": "newCreditLine",
          "type": "address"
        }
      ],
      "name": "CreditLineMigrated",
      "type": "event"
    },
    {
      "anonymous": false,
      "inputs": [
        {
          "indexed": true,
          "internalType": "address",
          "name": "owner",
          "type": "address"
        },
        {
          "indexed": true,
          "internalType": "uint256",
          "name": "tranche",
          "type": "uint256"
        },
        {
          "indexed": true,
          "internalType": "uint256",
          "name": "tokenId",
          "type": "uint256"
        },
        {
          "indexed": false,
          "internalType": "uint256",
          "name": "amount",
          "type": "uint256"
        }
      ],
      "name": "DepositMade",
      "type": "event"
    },
    {
      "anonymous": false,
      "inputs": [
        {
          "indexed": true,
          "internalType": "address",
          "name": "borrower",
          "type": "address"
        },
        {
          "indexed": false,
          "internalType": "uint256",
          "name": "amount",
          "type": "uint256"
        }
      ],
      "name": "DrawdownMade",
      "type": "event"
    },
    {
      "anonymous": false,
      "inputs": [
        {
          "indexed": true,
          "internalType": "address",
          "name": "pool",
          "type": "address"
        }
      ],
      "name": "DrawdownsPaused",
      "type": "event"
    },
    {
      "anonymous": false,
      "inputs": [
        {
          "indexed": true,
          "internalType": "address",
          "name": "pool",
          "type": "address"
        }
      ],
      "name": "DrawdownsUnpaused",
      "type": "event"
    },
    {
      "anonymous": false,
      "inputs": [
        {
          "indexed": true,
          "internalType": "address",
          "name": "pool",
          "type": "address"
        }
      ],
      "name": "EmergencyShutdown",
      "type": "event"
    },
    {
      "anonymous": false,
      "inputs": [
        {
          "indexed": false,
          "internalType": "address",
          "name": "account",
          "type": "address"
        }
      ],
      "name": "Paused",
      "type": "event"
    },
    {
      "anonymous": false,
      "inputs": [
        {
          "indexed": true,
          "internalType": "address",
          "name": "payer",
          "type": "address"
        },
        {
          "indexed": true,
          "internalType": "address",
          "name": "pool",
          "type": "address"
        },
        {
          "indexed": false,
          "internalType": "uint256",
          "name": "interestAmount",
          "type": "uint256"
        },
        {
          "indexed": false,
          "internalType": "uint256",
          "name": "principalAmount",
          "type": "uint256"
        },
        {
          "indexed": false,
          "internalType": "uint256",
          "name": "remainingAmount",
          "type": "uint256"
        },
        {
          "indexed": false,
          "internalType": "uint256",
          "name": "reserveAmount",
          "type": "uint256"
        }
      ],
      "name": "PaymentApplied",
      "type": "event"
    },
    {
      "anonymous": false,
      "inputs": [
        {
          "indexed": true,
          "internalType": "address",
          "name": "from",
          "type": "address"
        },
        {
          "indexed": false,
          "internalType": "uint256",
          "name": "amount",
          "type": "uint256"
        }
      ],
      "name": "ReserveFundsCollected",
      "type": "event"
    },
    {
      "anonymous": false,
      "inputs": [
        {
          "indexed": true,
          "internalType": "bytes32",
          "name": "role",
          "type": "bytes32"
        },
        {
          "indexed": true,
          "internalType": "address",
          "name": "account",
          "type": "address"
        },
        {
          "indexed": true,
          "internalType": "address",
          "name": "sender",
          "type": "address"
        }
      ],
      "name": "RoleGranted",
      "type": "event"
    },
    {
      "anonymous": false,
      "inputs": [
        {
          "indexed": true,
          "internalType": "bytes32",
          "name": "role",
          "type": "bytes32"
        },
        {
          "indexed": true,
          "internalType": "address",
          "name": "account",
          "type": "address"
        },
        {
          "indexed": true,
          "internalType": "address",
          "name": "sender",
          "type": "address"
        }
      ],
      "name": "RoleRevoked",
      "type": "event"
    },
    {
      "anonymous": false,
      "inputs": [
        {
          "indexed": false,
          "internalType": "address",
          "name": "account",
          "type": "address"
        }
      ],
      "name": "Unpaused",
      "type": "event"
    },
    {
      "anonymous": false,
      "inputs": [
        {
          "indexed": true,
          "internalType": "address",
          "name": "owner",
          "type": "address"
        },
        {
          "indexed": true,
          "internalType": "uint256",
          "name": "tranche",
          "type": "uint256"
        },
        {
          "indexed": true,
          "internalType": "uint256",
          "name": "tokenId",
          "type": "uint256"
        },
        {
          "indexed": false,
          "internalType": "uint256",
          "name": "interestWithdrawn",
          "type": "uint256"
        },
        {
          "indexed": false,
          "internalType": "uint256",
          "name": "principalWithdrawn",
          "type": "uint256"
        }
      ],
      "name": "WithdrawalMade",
      "type": "event"
    },
    {
      "inputs": [],
      "name": "DEFAULT_ADMIN_ROLE",
      "outputs": [
        {
          "internalType": "bytes32",
          "name": "",
          "type": "bytes32"
        }
      ],
      "stateMutability": "view",
      "type": "function"
    },
    {
      "inputs": [],
      "name": "FP_SCALING_FACTOR",
      "outputs": [
        {
          "internalType": "uint256",
          "name": "",
          "type": "uint256"
        }
      ],
      "stateMutability": "view",
      "type": "function"
    },
    {
      "inputs": [],
      "name": "LOCKER_ROLE",
      "outputs": [
        {
          "internalType": "bytes32",
          "name": "",
          "type": "bytes32"
        }
      ],
      "stateMutability": "view",
      "type": "function"
    },
    {
      "inputs": [],
      "name": "ONE_HUNDRED",
      "outputs": [
        {
          "internalType": "uint256",
          "name": "",
          "type": "uint256"
        }
      ],
      "stateMutability": "view",
      "type": "function"
    },
    {
      "inputs": [],
      "name": "OWNER_ROLE",
      "outputs": [
        {
          "internalType": "bytes32",
          "name": "",
          "type": "bytes32"
        }
      ],
      "stateMutability": "view",
      "type": "function"
    },
    {
      "inputs": [],
      "name": "PAUSER_ROLE",
      "outputs": [
        {
          "internalType": "bytes32",
          "name": "",
          "type": "bytes32"
        }
      ],
      "stateMutability": "view",
      "type": "function"
    },
    {
      "inputs": [],
      "name": "SECONDS_PER_DAY",
      "outputs": [
        {
          "internalType": "uint256",
          "name": "",
          "type": "uint256"
        }
      ],
      "stateMutability": "view",
      "type": "function"
    },
    {
      "inputs": [
        {
          "internalType": "address",
          "name": "owner",
          "type": "address"
        }
      ],
      "name": "__BaseUpgradeablePausable__init",
      "outputs": [],
      "stateMutability": "nonpayable",
      "type": "function"
    },
    {
      "inputs": [],
      "name": "__PauserPausable__init",
      "outputs": [],
      "stateMutability": "nonpayable",
      "type": "function"
    },
    {
      "inputs": [],
      "name": "assess",
      "outputs": [],
      "stateMutability": "nonpayable",
      "type": "function"
    },
    {
      "inputs": [
        {
          "internalType": "uint256",
          "name": "tokenId",
          "type": "uint256"
        }
      ],
      "name": "availableToWithdraw",
      "outputs": [
        {
          "internalType": "uint256",
          "name": "interestRedeemable",
          "type": "uint256"
        },
        {
          "internalType": "uint256",
          "name": "principalRedeemable",
          "type": "uint256"
        }
      ],
      "stateMutability": "view",
      "type": "function"
    },
    {
      "inputs": [],
      "name": "borrower",
      "outputs": [
        {
          "internalType": "address",
          "name": "",
          "type": "address"
        }
      ],
      "stateMutability": "view",
      "type": "function"
    },
    {
      "inputs": [],
      "name": "config",
      "outputs": [
        {
          "internalType": "contract GoldfinchConfig",
          "name": "",
          "type": "address"
        }
      ],
      "stateMutability": "view",
      "type": "function"
    },
    {
      "inputs": [],
      "name": "createdAt",
      "outputs": [
        {
          "internalType": "uint256",
          "name": "",
          "type": "uint256"
        }
      ],
      "stateMutability": "view",
      "type": "function"
    },
    {
      "inputs": [],
      "name": "creditLine",
      "outputs": [
        {
          "internalType": "contract IV2CreditLine",
          "name": "",
          "type": "address"
        }
      ],
      "stateMutability": "view",
      "type": "function"
    },
    {
      "inputs": [
        {
          "internalType": "uint256",
          "name": "tranche",
          "type": "uint256"
        },
        {
          "internalType": "uint256",
          "name": "amount",
          "type": "uint256"
        }
      ],
      "name": "deposit",
      "outputs": [
        {
          "internalType": "uint256",
          "name": "tokenId",
          "type": "uint256"
        }
      ],
      "stateMutability": "nonpayable",
      "type": "function"
    },
    {
      "inputs": [
        {
          "internalType": "uint256",
          "name": "tranche",
          "type": "uint256"
        },
        {
          "internalType": "uint256",
          "name": "amount",
          "type": "uint256"
        },
        {
          "internalType": "uint256",
          "name": "deadline",
          "type": "uint256"
        },
        {
          "internalType": "uint8",
          "name": "v",
          "type": "uint8"
        },
        {
          "internalType": "bytes32",
          "name": "r",
          "type": "bytes32"
        },
        {
          "internalType": "bytes32",
          "name": "s",
          "type": "bytes32"
        }
      ],
      "name": "depositWithPermit",
      "outputs": [
        {
          "internalType": "uint256",
          "name": "tokenId",
          "type": "uint256"
        }
      ],
      "stateMutability": "nonpayable",
      "type": "function"
    },
    {
      "inputs": [
        {
          "internalType": "uint256",
          "name": "amount",
          "type": "uint256"
        }
      ],
      "name": "drawdown",
      "outputs": [],
      "stateMutability": "nonpayable",
      "type": "function"
    },
    {
      "inputs": [],
      "name": "drawdownsPaused",
      "outputs": [
        {
          "internalType": "bool",
          "name": "",
          "type": "bool"
        }
      ],
      "stateMutability": "view",
      "type": "function"
    },
    {
      "inputs": [],
      "name": "emergencyShutdown",
      "outputs": [],
      "stateMutability": "nonpayable",
      "type": "function"
    },
    {
      "inputs": [
        {
          "internalType": "bytes32",
          "name": "role",
          "type": "bytes32"
        }
      ],
      "name": "getRoleAdmin",
      "outputs": [
        {
          "internalType": "bytes32",
          "name": "",
          "type": "bytes32"
        }
      ],
      "stateMutability": "view",
      "type": "function"
    },
    {
      "inputs": [
        {
          "internalType": "bytes32",
          "name": "role",
          "type": "bytes32"
        },
        {
          "internalType": "uint256",
          "name": "index",
          "type": "uint256"
        }
      ],
      "name": "getRoleMember",
      "outputs": [
        {
          "internalType": "address",
          "name": "",
          "type": "address"
        }
      ],
      "stateMutability": "view",
      "type": "function"
    },
    {
      "inputs": [
        {
          "internalType": "bytes32",
          "name": "role",
          "type": "bytes32"
        }
      ],
      "name": "getRoleMemberCount",
      "outputs": [
        {
          "internalType": "uint256",
          "name": "",
          "type": "uint256"
        }
      ],
      "stateMutability": "view",
      "type": "function"
    },
    {
      "inputs": [
        {
          "internalType": "uint256",
          "name": "tranche",
          "type": "uint256"
        }
      ],
      "name": "getTranche",
      "outputs": [
        {
          "components": [
            {
              "internalType": "uint256",
              "name": "principalDeposited",
              "type": "uint256"
            },
            {
              "internalType": "uint256",
              "name": "principalSharePrice",
              "type": "uint256"
            },
            {
              "internalType": "uint256",
              "name": "interestSharePrice",
              "type": "uint256"
            },
            {
              "internalType": "uint256",
              "name": "lockedUntil",
              "type": "uint256"
            }
          ],
          "internalType": "struct ITranchedPool.TrancheInfo",
          "name": "",
          "type": "tuple"
        }
      ],
      "stateMutability": "view",
      "type": "function"
    },
    {
      "inputs": [
        {
          "internalType": "bytes32",
          "name": "role",
          "type": "bytes32"
        },
        {
          "internalType": "address",
          "name": "account",
          "type": "address"
        }
      ],
      "name": "grantRole",
      "outputs": [],
      "stateMutability": "nonpayable",
      "type": "function"
    },
    {
      "inputs": [
        {
          "internalType": "bytes32",
          "name": "role",
          "type": "bytes32"
        },
        {
          "internalType": "address",
          "name": "account",
          "type": "address"
        }
      ],
      "name": "hasRole",
      "outputs": [
        {
          "internalType": "bool",
          "name": "",
          "type": "bool"
        }
      ],
      "stateMutability": "view",
      "type": "function"
    },
    {
      "inputs": [
        {
          "internalType": "address",
          "name": "_config",
          "type": "address"
        },
        {
          "internalType": "address",
          "name": "_borrower",
          "type": "address"
        },
        {
          "internalType": "uint256",
          "name": "_juniorFeePercent",
          "type": "uint256"
        },
        {
          "internalType": "uint256",
          "name": "_limit",
          "type": "uint256"
        },
        {
          "internalType": "uint256",
          "name": "_interestApr",
          "type": "uint256"
        },
        {
          "internalType": "uint256",
          "name": "_paymentPeriodInDays",
          "type": "uint256"
        },
        {
          "internalType": "uint256",
          "name": "_termInDays",
          "type": "uint256"
        },
        {
          "internalType": "uint256",
          "name": "_lateFeeApr",
          "type": "uint256"
        }
      ],
      "name": "initialize",
      "outputs": [],
      "stateMutability": "nonpayable",
      "type": "function"
    },
    {
      "inputs": [],
      "name": "interestApr",
      "outputs": [
        {
          "internalType": "uint256",
          "name": "",
          "type": "uint256"
        }
      ],
      "stateMutability": "view",
      "type": "function"
    },
    {
      "inputs": [],
      "name": "isAdmin",
      "outputs": [
        {
          "internalType": "bool",
          "name": "",
          "type": "bool"
        }
      ],
      "stateMutability": "view",
      "type": "function"
    },
    {
      "inputs": [],
      "name": "juniorFeePercent",
      "outputs": [
        {
          "internalType": "uint256",
          "name": "",
          "type": "uint256"
        }
      ],
      "stateMutability": "view",
      "type": "function"
    },
    {
      "inputs": [],
      "name": "lateFeeApr",
      "outputs": [
        {
          "internalType": "uint256",
          "name": "",
          "type": "uint256"
        }
      ],
      "stateMutability": "view",
      "type": "function"
    },
    {
      "inputs": [],
      "name": "limit",
      "outputs": [
        {
          "internalType": "uint256",
          "name": "",
          "type": "uint256"
        }
      ],
      "stateMutability": "view",
      "type": "function"
    },
    {
      "inputs": [],
      "name": "lockJuniorCapital",
      "outputs": [],
      "stateMutability": "nonpayable",
      "type": "function"
    },
    {
      "inputs": [],
      "name": "lockPool",
      "outputs": [],
      "stateMutability": "nonpayable",
      "type": "function"
    },
    {
      "inputs": [
        {
          "internalType": "address",
          "name": "newCl",
          "type": "address"
        }
      ],
      "name": "migrateAndSetNewCreditLine",
      "outputs": [],
      "stateMutability": "nonpayable",
      "type": "function"
    },
    {
      "inputs": [
        {
          "internalType": "address",
          "name": "_borrower",
          "type": "address"
        },
        {
          "internalType": "uint256",
          "name": "_limit",
          "type": "uint256"
        },
        {
          "internalType": "uint256",
          "name": "_interestApr",
          "type": "uint256"
        },
        {
          "internalType": "uint256",
          "name": "_paymentPeriodInDays",
          "type": "uint256"
        },
        {
          "internalType": "uint256",
          "name": "_termInDays",
          "type": "uint256"
        },
        {
          "internalType": "uint256",
          "name": "_lateFeeApr",
          "type": "uint256"
        }
      ],
      "name": "migrateCreditLine",
      "outputs": [],
      "stateMutability": "nonpayable",
      "type": "function"
    },
    {
      "inputs": [],
      "name": "pause",
      "outputs": [],
      "stateMutability": "nonpayable",
      "type": "function"
    },
    {
      "inputs": [],
      "name": "pauseDrawdowns",
      "outputs": [],
      "stateMutability": "nonpayable",
      "type": "function"
    },
    {
      "inputs": [],
      "name": "paused",
      "outputs": [
        {
          "internalType": "bool",
          "name": "",
          "type": "bool"
        }
      ],
      "stateMutability": "view",
      "type": "function"
    },
    {
      "inputs": [
        {
          "internalType": "uint256",
          "name": "amount",
          "type": "uint256"
        }
      ],
      "name": "pay",
      "outputs": [],
      "stateMutability": "nonpayable",
      "type": "function"
    },
    {
      "inputs": [],
      "name": "paymentPeriodInDays",
      "outputs": [
        {
          "internalType": "uint256",
          "name": "",
          "type": "uint256"
        }
      ],
      "stateMutability": "view",
      "type": "function"
    },
    {
      "inputs": [
        {
          "internalType": "bytes32",
          "name": "role",
          "type": "bytes32"
        },
        {
          "internalType": "address",
          "name": "account",
          "type": "address"
        }
      ],
      "name": "renounceRole",
      "outputs": [],
      "stateMutability": "nonpayable",
      "type": "function"
    },
    {
      "inputs": [
        {
          "internalType": "bytes32",
          "name": "role",
          "type": "bytes32"
        },
        {
          "internalType": "address",
          "name": "account",
          "type": "address"
        }
      ],
      "name": "revokeRole",
      "outputs": [],
      "stateMutability": "nonpayable",
      "type": "function"
    },
    {
      "inputs": [
        {
          "internalType": "uint256",
          "name": "sharePrice",
          "type": "uint256"
        },
        {
          "internalType": "uint256",
          "name": "totalShares",
          "type": "uint256"
        }
      ],
      "name": "sharePriceToUsdc",
      "outputs": [
        {
          "internalType": "uint256",
          "name": "",
          "type": "uint256"
        }
      ],
      "stateMutability": "pure",
      "type": "function"
    },
    {
      "inputs": [],
      "name": "termInDays",
      "outputs": [
        {
          "internalType": "uint256",
          "name": "",
          "type": "uint256"
        }
      ],
      "stateMutability": "view",
      "type": "function"
    },
    {
      "inputs": [],
      "name": "unpause",
      "outputs": [],
      "stateMutability": "nonpayable",
      "type": "function"
    },
    {
      "inputs": [],
      "name": "unpauseDrawdowns",
      "outputs": [],
      "stateMutability": "nonpayable",
      "type": "function"
    },
    {
      "inputs": [],
      "name": "updateGoldfinchConfig",
      "outputs": [],
      "stateMutability": "nonpayable",
      "type": "function"
    },
    {
      "inputs": [
        {
          "internalType": "uint256",
          "name": "amount",
          "type": "uint256"
        },
        {
          "internalType": "uint256",
          "name": "totalShares",
          "type": "uint256"
        }
      ],
      "name": "usdcToSharePrice",
      "outputs": [
        {
          "internalType": "uint256",
          "name": "",
          "type": "uint256"
        }
      ],
      "stateMutability": "pure",
      "type": "function"
    },
    {
      "inputs": [
        {
          "internalType": "uint256",
          "name": "tokenId",
          "type": "uint256"
        },
        {
          "internalType": "uint256",
          "name": "amount",
          "type": "uint256"
        }
      ],
      "name": "withdraw",
      "outputs": [
        {
          "internalType": "uint256",
          "name": "interestWithdrawn",
          "type": "uint256"
        },
        {
          "internalType": "uint256",
          "name": "principalWithdrawn",
          "type": "uint256"
        }
      ],
      "stateMutability": "nonpayable",
      "type": "function"
    },
    {
      "inputs": [
        {
          "internalType": "uint256",
          "name": "tokenId",
          "type": "uint256"
        }
      ],
      "name": "withdrawMax",
      "outputs": [
        {
          "internalType": "uint256",
          "name": "interestWithdrawn",
          "type": "uint256"
        },
        {
          "internalType": "uint256",
          "name": "principalWithdrawn",
          "type": "uint256"
        }
      ],
      "stateMutability": "nonpayable",
      "type": "function"
    }
  ],
  "transactionHash": "0x5feec4ec066a5b29d8bd7e67461e6fc3db42f0733e86a6ba8a082ec0db5737a9",
  "args": [],
  "solcInputHash": "6810fd0fbb39f4621f6dd945b08843ee",
  "bytecode": "0x608060405234801561001057600080fd5b50614f4f806100206000396000f3fe608060405234801561001057600080fd5b50600436106102f15760003560e01c80639010d07c1161019d578063bfaa8cca116100e9578063d547741f116100a2578063e58378bb1161007c578063e58378bb146105a2578063e63ab1e9146105aa578063f0b25bde146105b2578063f3621367146105ba576102f1565b8063d547741f1461055c578063d972e8ad1461056f578063e2bbb1581461058f576102f1565b8063bfaa8cca1461050b578063c290d69114610513578063c77d569814610526578063ca15c8731461052e578063cde8884514610541578063cf09e0d014610554576102f1565b8063a4d66daf11610156578063aa2a7c4c11610130578063aa2a7c4c146104e0578063b3969992146104f3578063b6db75a0146104fb578063bf6c87c714610503576102f1565b8063a4d66daf146104c8578063a6a25e88146104d0578063a8f9c4fe146104d8576102f1565b80639010d07c1461046c57806391d148541461047f57806399dd8df314610492578063a079a4dd1461049a578063a18d4176146104ad578063a217fddf146104c0576102f1565b806348e6f2961161025c5780635c975abb1161021557806379502c55116101ef57806379502c55146104415780637df1f1b9146104495780638456cb59146104515780638ba796af14610459576102f1565b80635c975abb1461042957806368dcfdc01461043157806374f0314f14610439576102f1565b806348e6f296146103d85780634d02fe6f146103e05780634f92a728146103f3578063515bc323146103fb578063526d81f61461040e57806356ce156014610416576102f1565b80633403c2fc116102ae5780633403c2fc1461037757806336568abe1461037f5780633f4ba83a146103925780634026478e1461039a578063441a3e70146103a257806347195e13146103c3576102f1565b80630174b449146102f65780630881806c1461031f578063097616a31461032957806317f769411461033c578063248a9ca3146103515780632f2ff15d14610364575b600080fd5b610309610304366004614421565b6105c2565b6040516103169190614636565b60405180910390f35b6103276105e9565b005b6103276103373660046142cd565b610653565b610344610783565b604051610316919061462b565b61030961035f3660046143da565b61078d565b6103276103723660046143f2565b6107a2565b6103276107e6565b61032761038d3660046143f2565b6109bd565b6103276109ff565b610327610a3d565b6103b56103b0366004614421565b610a9c565b604051610316929190614e65565b6103cb610c76565b6040516103169190614552565b610309610c86565b6103b56103ee3660046143da565b610d09565b610327610def565b6103096104093660046144fb565b610e9f565b610327610f36565b6103276104243660046142cd565b610fc1565b610344611270565b610309611279565b610309611285565b6103cb61128c565b6103cb61129c565b61032761131a565b610327610467366004614305565b611358565b6103cb61047a366004614421565b611644565b61034461048d3660046143f2565b61165c565b610309611674565b6103276104a83660046143da565b6116ba565b6103276104bb36600461436f565b6119aa565b610309612283565b610309612288565b6103276122ce565b6103276122f9565b6103b56104ee3660046143da565b612358565b610309612553565b610344612599565b6103276125b5565b610309612611565b6103276105213660046143da565b612616565b61030961266a565b61030961053c3660046143da565b612671565b61030961054f366004614421565b612688565b6103096126b4565b61032761056a3660046143f2565b6126bb565b61058261057d3660046143da565b6126f5565b6040516103169190614e3a565b61030961059d366004614421565b61273b565b6103096128fb565b61030961290d565b61030961291f565b610309612965565b60006105e0670de0b6b3a76400006105da8585612977565b906129b1565b90505b92915050565b610601600080516020614efa8339815191523361165c565b6106265760405162461bcd60e51b815260040161061d90614a61565b60405180910390fd5b60975460ff16156106495760405162461bcd60e51b815260040161061d90614a02565b6106516129f3565b565b600054610100900460ff168061066c575061066c612a67565b8061067a575060005460ff16155b6106965760405162461bcd60e51b815260040161061d90614b5a565b600054610100900460ff161580156106c1576000805460ff1961ff0019909116610100171660011790555b6001600160a01b0382166106e75760405162461bcd60e51b815260040161061d90614aad565b6106ef612a6d565b6106f7612aee565b6106ff612b7a565b610717600080516020614eba833981519152836107dc565b61072f600080516020614eda833981519152836107dc565b610755600080516020614eda833981519152600080516020614eba833981519152612c09565b61076d600080516020614eba83398151915280612c09565b801561077f576000805461ff00191690555b5050565b6101c75460ff1681565b60009081526065602052604090206002015490565b6000828152606560205260409020600201546107c09061048d612c1e565b6107dc5760405162461bcd60e51b815260040161061d906146d4565b61077f8282612c22565b6107ee612599565b61080a5760405162461bcd60e51b815260040161061d90614d44565b610812611270565b61081e5761081e61131a565b6101c554600090610837906001600160a01b0316612c8b565b6101c554909150600090610853906001600160a01b0316612c96565b90506000826001600160a01b03166370a08231306040518263ffffffff1660e01b81526004016108839190614552565b60206040518083038186803b15801561089b57600080fd5b505afa1580156108af573d6000803e3d6000fd5b505050506040513d601f19601f820116820180604052508101906108d391906144b6565b905080156108e6576108e6838383612d16565b6101c3546040516370a0823160e01b81526000916001600160a01b03808716926370a082319261091a921690600401614552565b60206040518083038186803b15801561093257600080fd5b505afa158015610946573d6000803e3d6000fd5b505050506040513d601f19601f8201168201806040525081019061096a91906144b6565b9050801561098c576101c35461098c9085906001600160a01b03168584612d57565b60405130907f1fc1e771236d2e93bb9541cdcb4654ba0fd3fb615b48d829b7b365f03998512690600090a250505050565b6109c5612c1e565b6001600160a01b0316816001600160a01b0316146109f55760405162461bcd60e51b815260040161061d90614dc6565b61077f8282612d9a565b610a19600080516020614eda83398151915261048d612c1e565b610a355760405162461bcd60e51b815260040161061d906147b8565b610651612e03565b610a55600080516020614efa8339815191523361165c565b610a715760405162461bcd60e51b815260040161061d90614a61565b60975460ff1615610a945760405162461bcd60e51b815260040161061d90614a02565b610651612e6f565b6101c55460009081908490610ab9906001600160a01b0316612fc4565b6001600160a01b031663430c208133836040518363ffffffff1660e01b8152600401610ae69291906145a7565b60206040518083038186803b158015610afe57600080fd5b505afa158015610b12573d6000803e3d6000fd5b505050506040513d601f19601f82011682018060405250810190610b3691906143ba565b610b525760405162461bcd60e51b815260040161061d90614c51565b60c95460ff16610b745760405162461bcd60e51b815260040161061d90614d0d565b60c9805460ff1916905560975460ff1615610ba15760405162461bcd60e51b815260040161061d90614a02565b610ba9614240565b6101c554610bbf906001600160a01b0316612fc4565b6001600160a01b0316638c7a63ae876040518263ffffffff1660e01b8152600401610bea9190614636565b60a06040518083038186803b158015610c0257600080fd5b505afa158015610c16573d6000803e3d6000fd5b505050506040513d601f19601f82011682018060405250810190610c3a9190614442565b90506000610c4b8260200151612fcf565b9050610c5981838989613015565b9450945050505060c9805460ff1916600117905590939092509050565b6101c3546001600160a01b031681565b6101c35460408051632473794b60e11b815290516000926001600160a01b0316916348e6f296916004808301926020929190829003018186803b158015610ccc57600080fd5b505afa158015610ce0573d6000803e3d6000fd5b505050506040513d601f19601f82011682018060405250810190610d0491906144b6565b905090565b600080610d14614240565b6101c554610d2a906001600160a01b0316612fc4565b6001600160a01b0316638c7a63ae856040518263ffffffff1660e01b8152600401610d559190614636565b60a06040518083038186803b158015610d6d57600080fd5b505afa158015610d81573d6000803e3d6000fd5b505050506040513d601f19601f82011682018060405250810190610da59190614442565b90506000610db68260200151612fcf565b90508060030154610dc56131b8565b1115610de057610dd581836131bc565b935093505050610dea565b6000809350935050505b915091565b610df7612599565b610e135760405162461bcd60e51b815260040161061d90614d44565b6101c554610e29906001600160a01b0316613226565b6101c580546001600160a01b0319166001600160a01b039283161790556101c354604080516309f254e560e31b815290519190921691634f92a72891600480830192600092919082900301818387803b158015610e8557600080fd5b505af1158015610e99573d6000803e3d6000fd5b50505050565b6101c554600090610eb8906001600160a01b031661323e565b6001600160a01b031663d505accf333089898989896040518863ffffffff1660e01b8152600401610eef9796959493929190614566565b600060405180830381600087803b158015610f0957600080fd5b505af1158015610f1d573d6000803e3d6000fd5b50505050610f2b878761273b565b979650505050505050565b600054610100900460ff1680610f4f5750610f4f612a67565b80610f5d575060005460ff16155b610f795760405162461bcd60e51b815260040161061d90614b5a565b600054610100900460ff16158015610fa4576000805460ff1961ff0019909116610100171660011790555b610fac612aee565b8015610fbe576000805461ff00191690555b50565b610fc9612599565b610fe55760405162461bcd60e51b815260040161061d90614d44565b6001600160a01b03811661100b5760405162461bcd60e51b815260040161061d90614804565b6101c3546101c5546001600160a01b039182169160009161102c9116612c8b565b6001600160a01b03166370a08231836040518263ffffffff1660e01b81526004016110579190614552565b60206040518083038186803b15801561106f57600080fd5b505afa158015611083573d6000803e3d6000fd5b505050506040513d601f19601f820116820180604052508101906110a791906144b6565b905080156110d1576101c5546110d1906110c9906001600160a01b0316612c8b565b838584612d57565b6101c354604051637d8b34e560e11b81526001600160a01b039091169063fb1669ca9061110390600090600401614636565b600060405180830381600087803b15801561111d57600080fd5b505af1158015611131573d6000803e3d6000fd5b50506101c3546040516327ea6f2b60e01b81526001600160a01b0390911692506327ea6f2b915061116790600090600401614636565b600060405180830381600087803b15801561118157600080fd5b505af1158015611195573d6000803e3d6000fd5b50506101c380546001600160a01b0319166001600160a01b0387811691909117918290556040805163a4d66daf60e01b8152905192909116935063a4d66daf9250600480820192602092909190829003018186803b1580156111f657600080fd5b505afa15801561120a573d6000803e3d6000fd5b505050506040513d601f19601f8201168201806040525081019061122e91906144b6565b506101c3546040516001600160a01b03918216918416907f987cdba0cba67c68d2c8aba6a4ba6545565eccfb3e2e5ff39579ffd94acaf9bb90600090a3505050565b60975460ff1690565b670de0b6b3a764000081565b6201518081565b6101c5546001600160a01b031681565b6101c35460408051637df1f1b960e01b815290516000926001600160a01b031691637df1f1b9916004808301926020929190829003018186803b1580156112e257600080fd5b505afa1580156112f6573d6000803e3d6000fd5b505050506040513d601f19601f82011682018060405250810190610d0491906142e9565b611334600080516020614eda83398151915261048d612c1e565b6113505760405162461bcd60e51b815260040161061d906147b8565b610651613256565b600054610100900460ff16806113715750611371612a67565b8061137f575060005460ff16155b61139b5760405162461bcd60e51b815260040161061d90614b5a565b600054610100900460ff161580156113c6576000805460ff1961ff0019909116610100171660011790555b6001600160a01b038916158015906113e657506001600160a01b03881615155b6114025760405162461bcd60e51b815260040161061d9061489f565b6101c580546001600160a01b0319166001600160a01b038b8116919091179182905560009161143191166132af565b90506001600160a01b0381166114595760405162461bcd60e51b815260040161061d90614923565b61146281610653565b60405180608001604052806000815260200161147f600180612688565b815260006020808301829052604092830182905283516101c855838101516101c955838301516101ca556060909301516101cb5581516080810190925281529081016114cc600180612688565b81526000602080830182905260409283019190915282516101cc558201516101cd558101516101ce55606001516101cf5561150b8988888888886132c7565b426101c4556101c688905561152e600080516020614efa8339815191528a6107dc565b611546600080516020614efa833981519152826107dc565b61156c600080516020614efa833981519152600080516020614eba833981519152612c09565b6101c554600090611585906001600160a01b0316612c8b565b6001600160a01b031663095ea7b3306000196040518363ffffffff1660e01b81526004016115b49291906145a7565b602060405180830381600087803b1580156115ce57600080fd5b505af11580156115e2573d6000803e3d6000fd5b505050506040513d601f19601f8201168201806040525081019061160691906143ba565b9050806116255760405162461bcd60e51b815260040161061d90614751565b50508015611639576000805461ff00191690555b505050505050505050565b60008281526065602052604081206105e090836133e9565b60008281526065602052604081206105e090836133f5565b6101c354604080516399dd8df360e01b815290516000926001600160a01b0316916399dd8df3916004808301926020929190829003018186803b158015610ccc57600080fd5b6116d2600080516020614efa8339815191523361165c565b6116ee5760405162461bcd60e51b815260040161061d90614a61565b60975460ff16156117115760405162461bcd60e51b815260040161061d90614a02565b6101c75460ff16156117355760405162461bcd60e51b815260040161061d90614ba8565b61173d61340a565b61174957611749612e6f565b6101c35460405163a079a4dd60e01b81526001600160a01b039091169063a079a4dd9061177a908490600401614636565b600060405180830381600087803b15801561179457600080fd5b505af11580156117a8573d6000803e3d6000fd5b5050505060006118466101c360009054906101000a90046001600160a01b03166001600160a01b031663b69ef8a86040518163ffffffff1660e01b815260040160206040518083038186803b15801561180057600080fd5b505afa158015611814573d6000803e3d6000fd5b505050506040513d601f19601f8201168201806040525081019061183891906144b6565b611840613413565b90613428565b604080516080810182526101cc5481526101cd5460208201526101ce54918101919091526101cf54606082015290915061188190829061346a565b6101cd55604080516080810182526101c85481526101c95460208201526101ca54918101919091526101cb5460608201526118bd90829061346a565b6101c9556101c35460408051637df1f1b960e01b815290516000926001600160a01b031691637df1f1b9916004808301926020929190829003018186803b15801561190757600080fd5b505afa15801561191b573d6000803e3d6000fd5b505050506040513d601f19601f8201168201806040525081019061193f91906142e9565b6101c5549091506119649061195c906001600160a01b0316612c8b565b308386612d57565b806001600160a01b03167f7411b87a3c039bdfd8f3510b21e8bd0736265f53513735e1f4aa7b4f306b728d8460405161199d9190614636565b60405180910390a2505050565b6119b2612599565b6119ce5760405162461bcd60e51b815260040161061d90614d44565b6001600160a01b0386166119f45760405162461bcd60e51b815260040161061d906148ec565b82611a115760405162461bcd60e51b815260040161061d90614a2c565b81611a2e5760405162461bcd60e51b815260040161061d90614ca6565b6101c3546001600160a01b031680611a4a8888888888886132c7565b6101c3546040516001600160a01b0391821691829182918616907f987cdba0cba67c68d2c8aba6a4ba6545565eccfb3e2e5ff39579ffd94acaf9bb90600090a3816001600160a01b031663fb1669ca846001600160a01b031663b69ef8a86040518163ffffffff1660e01b815260040160206040518083038186803b158015611ad257600080fd5b505afa158015611ae6573d6000803e3d6000fd5b505050506040513d601f19601f82011682018060405250810190611b0a91906144b6565b6040518263ffffffff1660e01b8152600401611b269190614636565b600060405180830381600087803b158015611b4057600080fd5b505af1158015611b54573d6000803e3d6000fd5b50505050816001600160a01b03166396c8df37846001600160a01b03166321856b366040518163ffffffff1660e01b815260040160206040518083038186803b158015611ba057600080fd5b505afa158015611bb4573d6000803e3d6000fd5b505050506040513d601f19601f82011682018060405250810190611bd891906144b6565b6040518263ffffffff1660e01b8152600401611bf49190614636565b600060405180830381600087803b158015611c0e57600080fd5b505af1158015611c22573d6000803e3d6000fd5b50505050816001600160a01b031663b3b8a9c7846001600160a01b031663193501146040518163ffffffff1660e01b815260040160206040518083038186803b158015611c6e57600080fd5b505afa158015611c82573d6000803e3d6000fd5b505050506040513d601f19601f82011682018060405250810190611ca691906144b6565b6040518263ffffffff1660e01b8152600401611cc29190614636565b600060405180830381600087803b158015611cdc57600080fd5b505af1158015611cf0573d6000803e3d6000fd5b50505050816001600160a01b0316637ae14b09846001600160a01b03166364fb2d956040518163ffffffff1660e01b815260040160206040518083038186803b158015611d3c57600080fd5b505afa158015611d50573d6000803e3d6000fd5b505050506040513d601f19601f82011682018060405250810190611d7491906144b6565b6040518263ffffffff1660e01b8152600401611d909190614636565b600060405180830381600087803b158015611daa57600080fd5b505af1158015611dbe573d6000803e3d6000fd5b50505050816001600160a01b03166326a40e82846001600160a01b031663d28459776040518163ffffffff1660e01b815260040160206040518083038186803b158015611e0a57600080fd5b505afa158015611e1e573d6000803e3d6000fd5b505050506040513d601f19601f82011682018060405250810190611e4291906144b6565b6040518263ffffffff1660e01b8152600401611e5e9190614636565b600060405180830381600087803b158015611e7857600080fd5b505af1158015611e8c573d6000803e3d6000fd5b50505050816001600160a01b031663a6b1ae0d846001600160a01b031663bbafcb406040518163ffffffff1660e01b815260040160206040518083038186803b158015611ed857600080fd5b505afa158015611eec573d6000803e3d6000fd5b505050506040513d601f19601f82011682018060405250810190611f1091906144b6565b6040518263ffffffff1660e01b8152600401611f2c9190614636565b600060405180830381600087803b158015611f4657600080fd5b505af1158015611f5a573d6000803e3d6000fd5b50505050816001600160a01b03166336d91494846001600160a01b031663ce78290d6040518163ffffffff1660e01b815260040160206040518083038186803b158015611fa657600080fd5b505afa158015611fba573d6000803e3d6000fd5b505050506040513d601f19601f82011682018060405250810190611fde91906144b6565b6040518263ffffffff1660e01b8152600401611ffa9190614636565b600060405180830381600087803b15801561201457600080fd5b505af1158015612028573d6000803e3d6000fd5b50505050816001600160a01b031663033669cf846001600160a01b0316631cd724ac6040518163ffffffff1660e01b815260040160206040518083038186803b15801561207457600080fd5b505afa158015612088573d6000803e3d6000fd5b505050506040513d601f19601f820116820180604052508101906120ac91906144b6565b6040518263ffffffff1660e01b81526004016120c89190614636565b600060405180830381600087803b1580156120e257600080fd5b505af11580156120f6573d6000803e3d6000fd5b50506101c5546000925061211391506001600160a01b0316612c8b565b6001600160a01b03166370a08231866040518263ffffffff1660e01b815260040161213e9190614552565b60206040518083038186803b15801561215657600080fd5b505afa15801561216a573d6000803e3d6000fd5b505050506040513d601f19601f8201168201806040525081019061218e91906144b6565b905080156121b8576101c5546121b8906121b0906001600160a01b0316612c8b565b868484612d57565b604051637d8b34e560e11b81526001600160a01b0385169063fb1669ca906121e590600090600401614636565b600060405180830381600087803b1580156121ff57600080fd5b505af1158015612213573d6000803e3d6000fd5b50506040516327ea6f2b60e01b81526001600160a01b03871692506327ea6f2b915061224490600090600401614636565b600060405180830381600087803b15801561225e57600080fd5b505af1158015612272573d6000803e3d6000fd5b505050505050505050505050505050565b600081565b6101c3546040805163a4d66daf60e01b815290516000926001600160a01b03169163a4d66daf916004808301926020929190829003018186803b158015610ccc57600080fd5b60975460ff16156122f15760405162461bcd60e51b815260040161061d90614a02565b61065161348f565b612301612599565b61231d5760405162461bcd60e51b815260040161061d90614d44565b6101c7805460ff1916600117905560405130907f90d9b09c68a7e1312ce22801552b47265d77db9496383d51374b4058545447d790600090a2565b6101c55460009081908390612375906001600160a01b0316612fc4565b6001600160a01b031663430c208133836040518363ffffffff1660e01b81526004016123a29291906145a7565b60206040518083038186803b1580156123ba57600080fd5b505afa1580156123ce573d6000803e3d6000fd5b505050506040513d601f19601f820116820180604052508101906123f291906143ba565b61240e5760405162461bcd60e51b815260040161061d90614c51565b60c95460ff166124305760405162461bcd60e51b815260040161061d90614d0d565b60c9805460ff1916905560975460ff161561245d5760405162461bcd60e51b815260040161061d90614a02565b612465614240565b6101c55461247b906001600160a01b0316612fc4565b6001600160a01b0316638c7a63ae866040518263ffffffff1660e01b81526004016124a69190614636565b60a06040518083038186803b1580156124be57600080fd5b505afa1580156124d2573d6000803e3d6000fd5b505050506040513d601f19601f820116820180604052508101906124f69190614442565b905060006125078260200151612fcf565b905060008061251683856131bc565b90925090506000612527838361363a565b905061253584868b84613015565b9750975050505050505060c9805460ff191660011790559092909150565b6101c354604080516359cb4cc960e11b815290516000926001600160a01b03169163b3969992916004808301926020929190829003018186803b158015610ccc57600080fd5b6000610d04600080516020614eba83398151915261048d612c1e565b6125bd612599565b6125d95760405162461bcd60e51b815260040161061d90614d44565b6101c7805460ff1916905560405130907f7184039938737267597232635b117c924371ac877d4329f2dfa5ca674c5cc4a590600090a2565b606481565b60975460ff16156126395760405162461bcd60e51b815260040161061d90614a02565b600081116126595760405162461bcd60e51b815260040161061d90614cd6565b6126628161365f565b610fbe61348f565b6101c65481565b60008181526065602052604081206105e3906136c0565b600081156126ab576126a6826105da85670de0b6b3a7640000612977565b6105e0565b50600092915050565b6101c45481565b6000828152606560205260409020600201546126d99061048d612c1e565b6109f55760405162461bcd60e51b815260040161061d90614987565b6126fd614278565b61270682612fcf565b604080516080810182528254815260018301546020820152600283015491810191909152600390910154606082015292915050565b60c95460009060ff166127605760405162461bcd60e51b815260040161061d90614d0d565b60c9805460ff1916905560975460ff161561278d5760405162461bcd60e51b815260040161061d90614a02565b600061279884612fcf565b905080600301546000146127be5760405162461bcd60e51b815260040161061d90614b23565b80546127ca908461363a565b81556127d46142a0565b5060408051808201909152838152602081018590526101c5546127ff906001600160a01b0316612fc4565b6001600160a01b0316635be57b6a82336040518363ffffffff1660e01b815260040161282c929190614e15565b602060405180830381600087803b15801561284657600080fd5b505af115801561285a573d6000803e3d6000fd5b505050506040513d601f19601f8201168201806040525081019061287e91906144b6565b6101c5549093506128a39061289b906001600160a01b0316612c8b565b333087612d57565b8285336001600160a01b03167fcb3ef4109dcd006671348924f00aac8398190a5ff283d6e470d74581513e1036876040516128de9190614636565b60405180910390a4505060c9805460ff1916600117905592915050565b600080516020614eba83398151915281565b600080516020614eda83398151915281565b6101c354604080516378592def60e11b815290516000926001600160a01b03169163f0b25bde916004808301926020929190829003018186803b158015610ccc57600080fd5b600080516020614efa83398151915281565b600082612986575060006105e3565b8282028284828161299357fe5b04146105e05760405162461bcd60e51b815260040161061d90614ae2565b60006105e083836040518060400160405280601a81526020017f536166654d6174683a206469766973696f6e206279207a65726f0000000000008152506136cb565b6129fb61340a565b15612a185760405162461bcd60e51b815260040161061d9061495a565b6101cf5415612a395760405162461bcd60e51b815260040161061d90614d8f565b6101c554612a6190612a53906001600160a01b0316613702565b612a5b6131b8565b9061363a565b6101cf55565b303b1590565b600054610100900460ff1680612a865750612a86612a67565b80612a94575060005460ff16155b612ab05760405162461bcd60e51b815260040161061d90614b5a565b600054610100900460ff16158015610fac576000805460ff1961ff0019909116610100171660011790558015610fbe576000805461ff001916905550565b600054610100900460ff1680612b075750612b07612a67565b80612b15575060005460ff16155b612b315760405162461bcd60e51b815260040161061d90614b5a565b600054610100900460ff16158015612b5c576000805460ff1961ff0019909116610100171660011790555b6097805460ff191690558015610fbe576000805461ff001916905550565b600054610100900460ff1680612b935750612b93612a67565b80612ba1575060005460ff16155b612bbd5760405162461bcd60e51b815260040161061d90614b5a565b600054610100900460ff16158015612be8576000805460ff1961ff0019909116610100171660011790555b60c9805460ff191660011790558015610fbe576000805461ff001916905550565b60009182526065602052604090912060020155565b3390565b6000828152606560205260409020612c3a9082613782565b1561077f57612c47612c1e565b6001600160a01b0316816001600160a01b0316837f2f8788117e7eff1d82e926ec794901d17c78024a50270940304540a733656f0d60405160405180910390a45050565b60006105e38261323e565b60006001600160a01b03821663b93f9b0a60065b6040518263ffffffff1660e01b8152600401612cc69190614636565b60206040518083038186803b158015612cde57600080fd5b505afa158015612cf2573d6000803e3d6000fd5b505050506040513d601f19601f820116820180604052508101906105e391906142e9565b612d528383836040518060400160405280601881526020017704661696c656420746f207472616e736665722045524332360441b815250613797565b505050565b60408051808201909152601881527704661696c656420746f207472616e736665722045524332360441b6020820152612d938585858585613869565b5050505050565b6000828152606560205260409020612db2908261393e565b1561077f57612dbf612c1e565b6001600160a01b0316816001600160a01b0316837ff6391f5c32d9c69d2a47ea670b442974b53935d1edc7fd64eb21e047a839171b60405160405180910390a45050565b60975460ff16612e255760405162461bcd60e51b815260040161061d90614723565b6097805460ff191690557f5db9ee0a495bf2e6ff9c91a7834c1ba4fdd244a5e8aa4e537bd38aeae4b073aa612e58612c1e565b604051612e659190614552565b60405180910390a1565b6101cf54612e8f5760405162461bcd60e51b815260040161061d90614c0e565b6101c3546001600160a01b03166327ea6f2b612f38612eac613413565b6101c360009054906101000a90046001600160a01b03166001600160a01b031663a4d66daf6040518163ffffffff1660e01b815260040160206040518083038186803b158015612efb57600080fd5b505afa158015612f0f573d6000803e3d6000fd5b505050506040513d601f19601f82011682018060405250810190612f3391906144b6565b613953565b6040518263ffffffff1660e01b8152600401612f549190614636565b600060405180830381600087803b158015612f6e57600080fd5b505af1158015612f82573d6000803e3d6000fd5b50506101c55460009250612f9f91506001600160a01b0316613702565b9050612fad81612a5b6131b8565b6101cb55612fbd81612a5b6131b8565b6101cf5550565b60006105e382613969565b60006001821480612fe05750600282145b612ffc5760405162461bcd60e51b815260040161061d90614872565b6001821461300c576101cc6105e3565b506101c8919050565b60008060008061302588886131bc565b90925090506000613036838361363a565b9050808611156130585760405162461bcd60e51b815260040161061d90614bdf565b88600301546130656131b8565b116130825760405162461bcd60e51b815260040161061d906149d7565b600389015461309a5788546130979087613428565b89555b60006130a68488613953565b905060006130b884612f338a85613428565b6101c5549091506130d1906001600160a01b0316612fc4565b6001600160a01b031663b81922058a83856040518463ffffffff1660e01b815260040161310093929190614e73565b600060405180830381600087803b15801561311a57600080fd5b505af115801561312e573d6000803e3d6000fd5b50506101c55461315d925061314c91506001600160a01b0316612c8b565b3033613158858761363a565b612d57565b888a60200151336001600160a01b03167f92f2787b755dae547f1701582fe74c7abf277ec14db316dd01abc69cacf7a259858560405161319e929190614e65565b60405180910390a490955093505050505b94509492505050565b4290565b60008060006131d3856001015485604001516105c2565b905060006131e9866002015486604001516105c2565b905061320285608001518261342890919063ffffffff16565b935061321b85606001518361342890919063ffffffff16565b925050509250929050565b60006001600160a01b03821663b93f9b0a600b612caa565b60006001600160a01b03821663b93f9b0a6005612caa565b60975460ff16156132795760405162461bcd60e51b815260040161061d90614a02565b6097805460ff191660011790557f62e78cea01bee320cd4e420270b5ea74000d11b0c9f74754ebdbfc544b05a258612e58612c1e565b60006001600160a01b03821663b93f9b0a6007612caa565b6101c5546000906132e0906001600160a01b0316613981565b6001600160a01b03166301b215516040518163ffffffff1660e01b8152600401602060405180830381600087803b15801561331a57600080fd5b505af115801561332e573d6000803e3d6000fd5b505050506040513d601f19601f8201168201806040525081019061335291906142e9565b6101c380546001600160a01b0319166001600160a01b0383811691909117918290556101c554604051630df8fa4360e41b81529394509181169263df8fa430926133ae92169030908c908c908c908c908c908c906004016145c0565b600060405180830381600087803b1580156133c857600080fd5b505af11580156133dc573d6000803e3d6000fd5b5050505050505050505050565b60006105e0838361398c565b60006105e0836001600160a01b0384166139d1565b6101cb54151590565b6101c8546101cc54600091610d04919061363a565b60006105e083836040518060400160405280601e81526020017f536166654d6174683a207375627472616374696f6e206f766572666c6f7700008152506139e9565b60008061347b848460000151612688565b90506134878184613a15565b949350505050565b60008060006101c360009054906101000a90046001600160a01b03166001600160a01b031663a6a25e886040518163ffffffff1660e01b8152600401606060405180830381600087803b1580156134e557600080fd5b505af11580156134f9573d6000803e3d6000fd5b505050506040513d601f19601f8201168201806040525081019061351d91906144ce565b92509250925060008211806135325750600081115b15612d52576101c35460009061355b906001600160a01b031684613556858861363a565b613a3c565b9050306001600160a01b03166101c360009054906101000a90046001600160a01b03166001600160a01b0316637df1f1b96040518163ffffffff1660e01b815260040160206040518083038186803b1580156135b657600080fd5b505afa1580156135ca573d6000803e3d6000fd5b505050506040513d601f19601f820116820180604052508101906135ee91906142e9565b6001600160a01b03167fd1055dc2c2a003a83dfacb1c38db776eab5ef89d77a8f05a3512e8cf57f953ce8585888660405161362c9493929190614e89565b60405180910390a350505050565b6000828201838110156105e05760405162461bcd60e51b815260040161061d9061483b565b6101c554610fbe90613679906001600160a01b0316612c8b565b6101c35460408051808201909152601981527811985a5b1959081d1bc818dbdb1b1958dd081c185e5b595b9d603a1b602082015233916001600160a01b0316908590613869565b60006105e382613ca4565b600081836136ec5760405162461bcd60e51b815260040161061d919061463f565b5060008385816136f857fe5b0495945050505050565b60006001600160a01b03821663fc56365860075b6040518263ffffffff1660e01b81526004016137329190614636565b60206040518083038186803b15801561374a57600080fd5b505afa15801561375e573d6000803e3d6000fd5b505050506040513d601f19601f820116820180604052508101906105e391906144b6565b60006105e0836001600160a01b038416613ca8565b6001600160a01b0383166137bd5760405162461bcd60e51b815260040161061d90614781565b60405163a9059cbb60e01b81526000906001600160a01b0386169063a9059cbb906137ee90879087906004016145a7565b602060405180830381600087803b15801561380857600080fd5b505af115801561381c573d6000803e3d6000fd5b505050506040513d601f19601f8201168201806040525081019061384091906143ba565b905081816138615760405162461bcd60e51b815260040161061d919061463f565b505050505050565b6001600160a01b03831661388f5760405162461bcd60e51b815260040161061d90614781565b6040516323b872dd60e01b81526000906001600160a01b038716906323b872dd906138c290889088908890600401614607565b602060405180830381600087803b1580156138dc57600080fd5b505af11580156138f0573d6000803e3d6000fd5b505050506040513d601f19601f8201168201806040525081019061391491906143ba565b905081816139355760405162461bcd60e51b815260040161061d919061463f565b50505050505050565b60006105e0836001600160a01b038416613cf2565b600081831061396257816105e0565b5090919050565b60006001600160a01b03821663b93f9b0a600c612caa565b60006105e382613db8565b815460009082106139af5760405162461bcd60e51b815260040161061d90614692565b8260000182815481106139be57fe5b9060005260206000200154905092915050565b60009081526001919091016020526040902054151590565b60008184841115613a0d5760405162461bcd60e51b815260040161061d919061463f565b505050900390565b6101c8546101cc546000918291613a2b9161363a565b905061348784846000015183613dd0565b6101c554600090613a9c90613a59906001600160a01b0316612c8b565b8530613a65868861363a565b6040518060400160405280601981526020017811985a5b1959081d1bc818dbdb1b1958dd081c185e5b595b9d603a1b815250613869565b600080613aa7613e29565b6101c5549193509150600090613ad190613ac9906001600160a01b0316613fa0565b6064906129b1565b604080516080810182526101c85481526101c95460208201526101ca54918101919091526101cb54606082015290915086908690600090613b1390879061346a565b604080516080810182526101c85481526101c95460208201526101ca54918101919091526101cb546060820152909150600090613b5190879061346a565b90506000613b8183613b7a613b72896101c65461363a90919063ffffffff16565b606490613428565b6064613dd0565b90506000613b9186886064613dd0565b9050613b9d8a8261363a565b9950613ba98682613428565b9550613bba868684866101c8613fb8565b6101cc549197509550613bdc90613bd2908890612688565b6101ce549061363a565b604080516080810182526101cc5481526101cd5460208201526101ce54918101919091526101cf546060820152909450613c1790899061346a565b9250613c28868686866101cc613fb8565b9096509450613c37868661363a565b9550613c4585886064613dd0565b9050613c518a8261363a565b9950613c5d8682613428565b955060009450613c86613c70878761363a565b6000613c7c898961363a565b60006101cc61403b565b9096509450613c948a614090565b5050505050505050509392505050565b5490565b6000613cb483836139d1565b613cea575081546001818101845560008481526020808220909301849055845484825282860190935260409020919091556105e3565b5060006105e3565b60008181526001830160205260408120548015613dae5783546000198083019190810190600090879083908110613d2557fe5b9060005260206000200154905080876000018481548110613d4257fe5b600091825260208083209091019290925582815260018981019092526040902090840190558654879080613d7257fe5b600190038181906000526020600020016000905590558660010160008781526020019081526020016000206000905560019450505050506105e3565b60009150506105e3565b60006001600160a01b03821663b93f9b0a6002612caa565b6000613dda6142ba565b613de38361413f565b9050613ded6142ba565b613df68561413f565b9050613e1e670de0b6b3a7640000613e1888613e12858761416d565b906141a5565b906141c6565b519695505050505050565b6000806101c360009054906101000a90046001600160a01b03166001600160a01b0316631cd724ac6040518163ffffffff1660e01b815260040160206040518083038186803b158015613e7b57600080fd5b505afa158015613e8f573d6000803e3d6000fd5b505050506040513d601f19601f82011682018060405250810190613eb391906144b6565b91506101c360009054906101000a90046001600160a01b03166001600160a01b031663193501146040518163ffffffff1660e01b815260040160206040518083038186803b158015613f0457600080fd5b505afa158015613f18573d6000803e3d6000fd5b505050506040513d601f19601f82011682018060405250810190613f3c91906144b6565b9050613f9a613f936101c360009054906101000a90046001600160a01b03166001600160a01b031663b69ef8a86040518163ffffffff1660e01b815260040160206040518083038186803b15801561180057600080fd5b829061363a565b90509091565b60006001600160a01b03821663fc5636586003613716565b80546001820154600091829180861015613fd0578095505b600285015480881015613fe1578097505b6000613fed8983613428565b90506000613ffb82866105c2565b905060006140098a86613428565b9050600061401782886105c2565b90506140268e8e85848e61403b565b909f909e509c50505050505050505050505050565b600080600083600001549050600061405989866002015489856141e7565b600287018190556001870154919a50915061407790899088856141e7565b6001870155975088935087925050509550959350505050565b306001600160a01b03167ff3583f178a8d4f8888c3683f8e948faf9b6eb701c4f1fab265a6ecad1a1ddebb826040516140c99190614636565b60405180910390a26101c554610fbe906140eb906001600160a01b0316612c8b565b6101c5543090614103906001600160a01b0316612c96565b846040518060400160405280601981526020017f4661696c656420746f2073656e6420746f207265736572766500000000000000815250613869565b6141476142ba565b60408051602081019091528061416584670de0b6b3a7640000612977565b905292915050565b6141756142ba565b604080516020810190915282518451829161419c916105da90670de0b6b3a7640000612977565b90529392505050565b6141ad6142ba565b60408051602081019091528351819061419c9085612977565b6141ce6142ba565b60408051602081019091528351819061419c90856129b1565b6000808515806141f5575083155b156142045750849050836131af565b83861015614210578593505b600061421c8585612688565b90506142288786613428565b614232878361363a565b925092505094509492505050565b6040518060a0016040528060006001600160a01b03168152602001600081526020016000815260200160008152602001600081525090565b6040518060800160405280600081526020016000815260200160008152602001600081525090565b604051806040016040528060008152602001600081525090565b6040518060200160405280600081525090565b6000602082840312156142de578081fd5b81356105e081614ea4565b6000602082840312156142fa578081fd5b81516105e081614ea4565b600080600080600080600080610100898b031215614321578384fd5b883561432c81614ea4565b9750602089013561433c81614ea4565b979a9799505050506040860135956060810135956080820135955060a0820135945060c0820135935060e0909101359150565b60008060008060008060c08789031215614387578182fd5b863561439281614ea4565b9860208801359850604088013597606081013597506080810135965060a00135945092505050565b6000602082840312156143cb578081fd5b815180151581146105e0578182fd5b6000602082840312156143eb578081fd5b5035919050565b60008060408385031215614404578182fd5b82359150602083013561441681614ea4565b809150509250929050565b60008060408385031215614433578182fd5b50508035926020909101359150565b600060a08284031215614453578081fd5b60405160a0810181811067ffffffffffffffff82111715614472578283fd5b604052825161448081614ea4565b80825250602083015160208201526040830151604082015260608301516060820152608083015160808201528091505092915050565b6000602082840312156144c7578081fd5b5051919050565b6000806000606084860312156144e2578283fd5b8351925060208401519150604084015190509250925092565b60008060008060008060c08789031215614513578384fd5b863595506020870135945060408701359350606087013560ff81168114614538578283fd5b9598949750929560808101359460a0909101359350915050565b6001600160a01b0391909116815260200190565b6001600160a01b0397881681529590961660208601526040850193909352606084019190915260ff16608083015260a082015260c081019190915260e00190565b6001600160a01b03929092168252602082015260400190565b6001600160a01b03988916815296881660208801529490961660408601526060850192909252608084015260a083015260c082019290925260e08101919091526101000190565b6001600160a01b039384168152919092166020820152604081019190915260600190565b901515815260200190565b90815260200190565b6000602080835283518082850152825b8181101561466b5785810183015185820160400152820161464f565b8181111561467c5783604083870101525b50601f01601f1916929092016040019392505050565b60208082526022908201527f456e756d657261626c655365743a20696e646578206f7574206f6620626f756e604082015261647360f01b606082015260800190565b6020808252602f908201527f416363657373436f6e74726f6c3a2073656e646572206d75737420626520616e60408201526e0818591b5a5b881d1bc819dc985b9d608a1b606082015260800190565b60208082526014908201527314185d5cd8589b194e881b9bdd081c185d5cd95960621b604082015260600190565b6020808252601690820152754661696c656420746f20617070726f7665205553444360501b604082015260600190565b6020808252601a908201527f43616e27742073656e6420746f207a65726f2061646472657373000000000000604082015260600190565b6020808252602c908201527f4d75737420686176652070617573657220726f6c6520746f20706572666f726d60408201526b103a3434b99030b1ba34b7b760a11b606082015260800190565b6020808252601a908201527f4372656469746c696e652063616e6e6f7420626520656d707479000000000000604082015260600190565b6020808252601b908201527f536166654d6174683a206164646974696f6e206f766572666c6f770000000000604082015260600190565b602080825260139082015272556e737570706f72746564207472616e63686560681b604082015260600190565b6020808252602d908201527f436f6e66696720616e6420626f72726f7765722061646472657373657320636160408201526c6e6e6f7420626520656d70747960981b606082015260800190565b6020808252601a908201527f426f72726f776572206d757374206e6f7420626520656d707479000000000000604082015260600190565b6020808252601d908201527f4f776e657220616464726573732063616e6e6f7420626520656d707479000000604082015260600190565b602080825260139082015272141bdbdb08185b1c9958591e481b1bd8dad959606a1b604082015260600190565b60208082526030908201527f416363657373436f6e74726f6c3a2073656e646572206d75737420626520616e60408201526f2061646d696e20746f207265766f6b6560801b606082015260800190565b602080825260119082015270151c985b98da19481a5cc81b1bd8dad959607a1b604082015260600190565b60208082526010908201526f14185d5cd8589b194e881c185d5cd95960821b604082015260600190565b6020808252818101527f5061796d656e7420706572696f64206d757374206e6f7420626520656d707479604082015260600190565b6020808252602c908201527f4d7573742068617665206c6f636b657220726f6c6520746f20706572666f726d60408201526b103a3434b99030b1ba34b7b760a11b606082015260800190565b6020808252818101527f4f776e65722063616e6e6f7420626520746865207a65726f2061646472657373604082015260600190565b60208082526021908201527f536166654d6174683a206d756c7469706c69636174696f6e206f766572666c6f6040820152607760f81b606082015260800190565b60208082526017908201527f5472616e63686520686173206265656e206c6f636b6564000000000000000000604082015260600190565b6020808252602e908201527f436f6e747261637420696e7374616e63652068617320616c726561647920626560408201526d195b881a5b9a5d1a585b1a5e995960921b606082015260800190565b6020808252601e908201527f44726177646f776e73206172652063757272656e746c79207061757365640000604082015260600190565b602080825260159082015274125b9d985b1a59081c995919595b48185b5bdd5b9d605a1b604082015260600190565b60208082526023908201527f4a756e696f72207472616e636865206d757374206265206c6f636b65642066696040820152621c9cdd60ea1b606082015260800190565b60208082526035908201527f4f6e6c792074686520746f6b656e206f776e657220697320616c6c6f776564206040820152743a379031b0b636103a3434b990333ab731ba34b7b760591b606082015260800190565b6020808252601690820152755465726d206d757374206e6f7420626520656d70747960501b604082015260600190565b60208082526017908201527f4d75737420706179206d6f7265207468616e207a65726f000000000000000000604082015260600190565b6020808252601f908201527f5265656e7472616e637947756172643a207265656e7472616e742063616c6c00604082015260600190565b6020808252602b908201527f4d75737420686176652061646d696e20726f6c6520746f20706572666f726d2060408201526a3a3434b99030b1ba34b7b760a91b606082015260800190565b6020808252601d908201527f4a756e696f72207472616e63686520616c7265616479206c6f636b6564000000604082015260600190565b6020808252602f908201527f416363657373436f6e74726f6c3a2063616e206f6e6c792072656e6f756e636560408201526e103937b632b9903337b91039b2b63360891b606082015260800190565b82518152602092830151928101929092526001600160a01b0316604082015260600190565b8151815260208083015190820152604080830151908201526060918201519181019190915260800190565b918252602082015260400190565b9283526020830191909152604082015260600190565b93845260208401929092526040830152606082015260800190565b6001600160a01b0381168114610fbe57600080fdfeb19546dff01e856fb3f010c267a7b1c60363cf8a4664e21cc89c26224620214e65d7a28e3265b37a6474929f336521b332c1681b933f6cb9f3376673440d862aaf9a8bb3cbd6b84fbccefa71ff73e26e798553c6914585a84886212a46a90279a26469706673582212206f953f4a3ffc46f84d69e3d8757192b3954807e9029b3bdf21988bb8d8e9372564736f6c634300060c0033",
  "devdoc": {
    "kind": "dev",
    "methods": {
      "availableToWithdraw(uint256)": {
        "params": {
          "tokenId": "The token representing the position"
        },
        "returns": {
          "interestRedeemable": "The interest available to redeem",
          "principalRedeemable": "The principal available to redeem"
        }
      },
      "deposit(uint256,uint256)": {
        "params": {
          "amount": "The USDC amount to tranfer from the caller to the pool",
          "tranche": "The number representing the tranche to deposit into"
        },
        "returns": {
          "tokenId": "The tokenId of the NFT"
        }
      },
      "drawdown(uint256)": {
        "params": {
          "amount": "The amount to drawdown from the creditline (must be < limit)"
        }
      },
      "getRoleAdmin(bytes32)": {
        "details": "Returns the admin role that controls `role`. See {grantRole} and {revokeRole}. To change a role's admin, use {_setRoleAdmin}."
      },
      "getRoleMember(bytes32,uint256)": {
        "details": "Returns one of the accounts that have `role`. `index` must be a value between 0 and {getRoleMemberCount}, non-inclusive. Role bearers are not sorted in any particular way, and their ordering may change at any point. WARNING: When using {getRoleMember} and {getRoleMemberCount}, make sure you perform all queries on the same block. See the following https://forum.openzeppelin.com/t/iterating-over-elements-on-enumerableset-in-openzeppelin-contracts/2296[forum post] for more information."
      },
      "getRoleMemberCount(bytes32)": {
        "details": "Returns the number of accounts that have `role`. Can be used together with {getRoleMember} to enumerate all bearers of a role."
      },
      "grantRole(bytes32,address)": {
        "details": "Grants `role` to `account`. If `account` had not been already granted `role`, emits a {RoleGranted} event. Requirements: - the caller must have ``role``'s admin role."
      },
      "hasRole(bytes32,address)": {
        "details": "Returns `true` if `account` has been granted `role`."
      },
      "migrateCreditLine(address,uint256,uint256,uint256,uint256,uint256)": {
        "params": {
          "_borrower": "The borrower address",
          "_interestApr": "The new interest APR",
          "_lateFeeApr": "The new late fee APR",
          "_limit": "The new limit",
          "_paymentPeriodInDays": "The new payment period in days",
          "_termInDays": "The new term in days"
        }
      },
      "pause()": {
        "details": "Pauses all functions guarded by Pause See {Pausable-_pause}. Requirements: - the caller must have the PAUSER_ROLE."
      },
      "paused()": {
        "details": "Returns true if the contract is paused, and false otherwise."
      },
      "pay(uint256)": {
        "params": {
          "amount": "The amount to repay"
        }
      },
      "renounceRole(bytes32,address)": {
        "details": "Revokes `role` from the calling account. Roles are often managed via {grantRole} and {revokeRole}: this function's purpose is to provide a mechanism for accounts to lose their privileges if they are compromised (such as when a trusted device is misplaced). If the calling account had been granted `role`, emits a {RoleRevoked} event. Requirements: - the caller must be `account`."
      },
      "revokeRole(bytes32,address)": {
        "details": "Revokes `role` from `account`. If `account` had been granted `role`, emits a {RoleRevoked} event. Requirements: - the caller must have ``role``'s admin role."
      },
      "sharePriceToUsdc(uint256,uint256)": {
        "params": {
          "sharePrice": "The share price to convert",
          "totalShares": "The total shares outstanding"
        },
        "returns": {
          "_0": "The USDC amount of the input share price"
        }
      },
      "unpause()": {
        "details": "Unpauses the contract See {Pausable-_unpause}. Requirements: - the caller must have the Pauser role"
      },
      "usdcToSharePrice(uint256,uint256)": {
        "params": {
          "amount": "The USDC amount to convert",
          "totalShares": "The total shares outstanding"
        },
        "returns": {
          "_0": "The share price of the input amount"
        }
      },
      "withdraw(uint256,uint256)": {
        "params": {
          "amount": "The amount to withdraw (must be <= interest+principal currently available to withdraw)",
          "tokenId": "The NFT representing the position"
        },
        "returns": {
          "interestWithdrawn": "The interest amount that was withdrawn",
          "principalWithdrawn": "The principal amount that was withdrawn"
        }
      },
      "withdrawMax(uint256)": {
        "params": {
          "tokenId": "The NFT representing the position"
        },
        "returns": {
          "interestWithdrawn": "The interest amount that was withdrawn",
          "principalWithdrawn": "The principal amount that was withdrawn"
        }
      }
    },
    "version": 1
  },
  "userdoc": {
    "kind": "user",
    "methods": {
      "assess()": {
        "notice": "Triggers an assessment of the creditline and the applies the payments according the tranche waterfall"
      },
      "availableToWithdraw(uint256)": {
        "notice": "Determines the amount of interest and principal redeemable by a particular tokenId"
      },
      "deposit(uint256,uint256)": {
        "notice": "Deposit a USDC amount into the pool for a tranche. Mints an NFT to the caller representing the position"
      },
      "drawdown(uint256)": {
        "notice": "Draws down the funds (and locks the pool) to the borrower address. Can only be called by the borrower"
      },
      "emergencyShutdown()": {
        "notice": "Pauses the pool and sweeps any remaining funds to the treasury reserve."
      },
      "lockJuniorCapital()": {
        "notice": "Locks the junior tranche, preventing more junior deposits. Gives time for the senior to determine how much to invest (ensure leverage ratio cannot change for the period)"
      },
      "lockPool()": {
        "notice": "Locks the pool (locks both senior and junior tranches and starts the drawdown period). Beyond the drawdown period, any unused capital is available to withdraw by all depositors"
      },
      "migrateAndSetNewCreditLine(address)": {
        "notice": "Migrates to a new creditline without copying the accounting variables"
      },
      "migrateCreditLine(address,uint256,uint256,uint256,uint256,uint256)": {
        "notice": "Migrates the accounting variables from the current creditline to a brand new one"
      },
      "pauseDrawdowns()": {
        "notice": "Pauses all drawdowns (but not deposits/withdraws)"
      },
      "pay(uint256)": {
        "notice": "Allows repaying the creditline. Collects the USDC amount from the sender and triggers an assess"
      },
      "sharePriceToUsdc(uint256,uint256)": {
        "notice": "Converts share price to USDC amounts"
      },
      "unpauseDrawdowns()": {
        "notice": "Unpause drawdowns"
      },
      "updateGoldfinchConfig()": {
        "notice": "Migrates to a new goldfinch config address"
      },
      "usdcToSharePrice(uint256,uint256)": {
        "notice": "Converts USDC amounts to share price"
      },
      "withdraw(uint256,uint256)": {
        "notice": "Withdraw an already deposited amount if the funds are available"
      },
      "withdrawMax(uint256)": {
        "notice": "Similar to withdraw but will withdraw all available funds"
      }
    },
    "version": 1
  },
  "storageLayout": {
    "storage": [
      {
        "astId": 151,
        "contract": "contracts/protocol/core/TranchedPool.sol:TranchedPool",
        "label": "initialized",
        "offset": 0,
        "slot": "0",
        "type": "t_bool"
      },
      {
        "astId": 154,
        "contract": "contracts/protocol/core/TranchedPool.sol:TranchedPool",
        "label": "initializing",
        "offset": 1,
        "slot": "0",
        "type": "t_bool"
      },
      {
        "astId": 219,
        "contract": "contracts/protocol/core/TranchedPool.sol:TranchedPool",
        "label": "______gap",
        "offset": 0,
        "slot": "1",
        "type": "t_array(t_uint256)50_storage"
      },
      {
        "astId": 144,
        "contract": "contracts/protocol/core/TranchedPool.sol:TranchedPool",
        "label": "__gap",
        "offset": 0,
        "slot": "51",
        "type": "t_array(t_uint256)50_storage"
      },
      {
        "astId": 264,
        "contract": "contracts/protocol/core/TranchedPool.sol:TranchedPool",
        "label": "_roles",
        "offset": 0,
        "slot": "101",
        "type": "t_mapping(t_bytes32,t_struct(RoleData)260_storage)"
      },
      {
        "astId": 509,
        "contract": "contracts/protocol/core/TranchedPool.sol:TranchedPool",
        "label": "__gap",
        "offset": 0,
        "slot": "102",
        "type": "t_array(t_uint256)49_storage"
      },
      {
        "astId": 4201,
        "contract": "contracts/protocol/core/TranchedPool.sol:TranchedPool",
        "label": "_paused",
        "offset": 0,
        "slot": "151",
        "type": "t_bool"
      },
      {
        "astId": 4290,
        "contract": "contracts/protocol/core/TranchedPool.sol:TranchedPool",
        "label": "__gap",
        "offset": 0,
        "slot": "152",
        "type": "t_array(t_uint256)49_storage"
      },
      {
        "astId": 4299,
        "contract": "contracts/protocol/core/TranchedPool.sol:TranchedPool",
        "label": "_notEntered",
        "offset": 0,
        "slot": "201",
        "type": "t_bool"
      },
      {
        "astId": 4340,
        "contract": "contracts/protocol/core/TranchedPool.sol:TranchedPool",
        "label": "__gap",
        "offset": 0,
        "slot": "202",
        "type": "t_array(t_uint256)49_storage"
      },
      {
        "astId": 9355,
        "contract": "contracts/protocol/core/TranchedPool.sol:TranchedPool",
        "label": "__gap1",
        "offset": 0,
        "slot": "251",
        "type": "t_array(t_uint256)50_storage"
      },
      {
        "astId": 9359,
        "contract": "contracts/protocol/core/TranchedPool.sol:TranchedPool",
        "label": "__gap2",
        "offset": 0,
        "slot": "301",
        "type": "t_array(t_uint256)50_storage"
      },
      {
        "astId": 9363,
        "contract": "contracts/protocol/core/TranchedPool.sol:TranchedPool",
        "label": "__gap3",
        "offset": 0,
        "slot": "351",
        "type": "t_array(t_uint256)50_storage"
      },
      {
        "astId": 9367,
        "contract": "contracts/protocol/core/TranchedPool.sol:TranchedPool",
        "label": "__gap4",
        "offset": 0,
        "slot": "401",
        "type": "t_array(t_uint256)50_storage"
      },
      {
        "astId": 8259,
        "contract": "contracts/protocol/core/TranchedPool.sol:TranchedPool",
        "label": "creditLine",
        "offset": 0,
        "slot": "451",
        "type": "t_contract(IV2CreditLine)8537"
      },
      {
        "astId": 8261,
        "contract": "contracts/protocol/core/TranchedPool.sol:TranchedPool",
        "label": "createdAt",
        "offset": 0,
        "slot": "452",
        "type": "t_uint256"
      },
      {
        "astId": 18223,
        "contract": "contracts/protocol/core/TranchedPool.sol:TranchedPool",
        "label": "config",
        "offset": 0,
        "slot": "453",
        "type": "t_contract(GoldfinchConfig)13893"
      },
      {
        "astId": 18252,
        "contract": "contracts/protocol/core/TranchedPool.sol:TranchedPool",
        "label": "juniorFeePercent",
        "offset": 0,
        "slot": "454",
        "type": "t_uint256"
      },
      {
        "astId": 18254,
        "contract": "contracts/protocol/core/TranchedPool.sol:TranchedPool",
        "label": "drawdownsPaused",
        "offset": 0,
        "slot": "455",
        "type": "t_bool"
      },
      {
        "astId": 18256,
        "contract": "contracts/protocol/core/TranchedPool.sol:TranchedPool",
        "label": "seniorTranche",
        "offset": 0,
        "slot": "456",
        "type": "t_struct(TrancheInfo)8274_storage"
      },
      {
        "astId": 18258,
        "contract": "contracts/protocol/core/TranchedPool.sol:TranchedPool",
        "label": "juniorTranche",
        "offset": 0,
        "slot": "460",
        "type": "t_struct(TrancheInfo)8274_storage"
      }
    ],
    "types": {
      "t_array(t_bytes32)dyn_storage": {
        "base": "t_bytes32",
        "encoding": "dynamic_array",
        "label": "bytes32[]",
        "numberOfBytes": "32"
      },
      "t_array(t_uint256)49_storage": {
        "base": "t_uint256",
        "encoding": "inplace",
        "label": "uint256[49]",
        "numberOfBytes": "1568"
      },
      "t_array(t_uint256)50_storage": {
        "base": "t_uint256",
        "encoding": "inplace",
        "label": "uint256[50]",
        "numberOfBytes": "1600"
      },
      "t_bool": {
        "encoding": "inplace",
        "label": "bool",
        "numberOfBytes": "1"
      },
      "t_bytes32": {
        "encoding": "inplace",
        "label": "bytes32",
        "numberOfBytes": "32"
      },
      "t_contract(GoldfinchConfig)13893": {
        "encoding": "inplace",
        "label": "contract GoldfinchConfig",
        "numberOfBytes": "20"
      },
      "t_contract(IV2CreditLine)8537": {
        "encoding": "inplace",
        "label": "contract IV2CreditLine",
        "numberOfBytes": "20"
      },
      "t_mapping(t_bytes32,t_struct(RoleData)260_storage)": {
        "encoding": "mapping",
        "key": "t_bytes32",
        "label": "mapping(bytes32 => struct AccessControlUpgradeSafe.RoleData)",
        "numberOfBytes": "32",
        "value": "t_struct(RoleData)260_storage"
      },
      "t_mapping(t_bytes32,t_uint256)": {
        "encoding": "mapping",
        "key": "t_bytes32",
        "label": "mapping(bytes32 => uint256)",
        "numberOfBytes": "32",
        "value": "t_uint256"
      },
      "t_struct(AddressSet)3976_storage": {
        "encoding": "inplace",
        "label": "struct EnumerableSet.AddressSet",
        "members": [
          {
            "astId": 3975,
            "contract": "contracts/protocol/core/TranchedPool.sol:TranchedPool",
            "label": "_inner",
            "offset": 0,
            "slot": "0",
            "type": "t_struct(Set)3796_storage"
          }
        ],
        "numberOfBytes": "64"
      },
      "t_struct(RoleData)260_storage": {
        "encoding": "inplace",
        "label": "struct AccessControlUpgradeSafe.RoleData",
        "members": [
          {
            "astId": 257,
            "contract": "contracts/protocol/core/TranchedPool.sol:TranchedPool",
            "label": "members",
            "offset": 0,
            "slot": "0",
            "type": "t_struct(AddressSet)3976_storage"
          },
          {
            "astId": 259,
            "contract": "contracts/protocol/core/TranchedPool.sol:TranchedPool",
            "label": "adminRole",
            "offset": 0,
            "slot": "2",
            "type": "t_bytes32"
          }
        ],
        "numberOfBytes": "96"
      },
      "t_struct(Set)3796_storage": {
        "encoding": "inplace",
        "label": "struct EnumerableSet.Set",
        "members": [
          {
            "astId": 3791,
            "contract": "contracts/protocol/core/TranchedPool.sol:TranchedPool",
            "label": "_values",
            "offset": 0,
            "slot": "0",
            "type": "t_array(t_bytes32)dyn_storage"
          },
          {
            "astId": 3795,
            "contract": "contracts/protocol/core/TranchedPool.sol:TranchedPool",
            "label": "_indexes",
            "offset": 0,
            "slot": "1",
            "type": "t_mapping(t_bytes32,t_uint256)"
          }
        ],
        "numberOfBytes": "64"
      },
      "t_struct(TrancheInfo)8274_storage": {
        "encoding": "inplace",
        "label": "struct ITranchedPool.TrancheInfo",
        "members": [
          {
            "astId": 8267,
            "contract": "contracts/protocol/core/TranchedPool.sol:TranchedPool",
            "label": "principalDeposited",
            "offset": 0,
            "slot": "0",
            "type": "t_uint256"
          },
          {
            "astId": 8269,
            "contract": "contracts/protocol/core/TranchedPool.sol:TranchedPool",
            "label": "principalSharePrice",
            "offset": 0,
            "slot": "1",
            "type": "t_uint256"
          },
          {
            "astId": 8271,
            "contract": "contracts/protocol/core/TranchedPool.sol:TranchedPool",
            "label": "interestSharePrice",
            "offset": 0,
            "slot": "2",
            "type": "t_uint256"
          },
          {
            "astId": 8273,
            "contract": "contracts/protocol/core/TranchedPool.sol:TranchedPool",
            "label": "lockedUntil",
            "offset": 0,
            "slot": "3",
            "type": "t_uint256"
          }
        ],
        "numberOfBytes": "128"
      },
      "t_uint256": {
        "encoding": "inplace",
        "label": "uint256",
        "numberOfBytes": "32"
      }
    }
  }
}