{
  "address": "0x5e524CBA7Db6b609F94ff010e1efE54A39F23e16",
  "abi": [
    {
      "anonymous": false,
      "inputs": [
        {
          "indexed": true,
          "internalType": "address",
          "name": "oldCreditLine",
          "type": "address"
        },
        {
          "indexed": true,
          "internalType": "address",
          "name": "newCreditLine",
          "type": "address"
        }
      ],
      "name": "CreditLineMigrated",
      "type": "event"
    },
    {
      "anonymous": false,
      "inputs": [
        {
          "indexed": true,
          "internalType": "address",
          "name": "owner",
          "type": "address"
        },
        {
          "indexed": true,
          "internalType": "uint256",
          "name": "tranche",
          "type": "uint256"
        },
        {
          "indexed": true,
          "internalType": "uint256",
          "name": "tokenId",
          "type": "uint256"
        },
        {
          "indexed": false,
          "internalType": "uint256",
          "name": "amount",
          "type": "uint256"
        }
      ],
      "name": "DepositMade",
      "type": "event"
    },
    {
      "anonymous": false,
      "inputs": [
        {
          "indexed": true,
          "internalType": "address",
          "name": "borrower",
          "type": "address"
        },
        {
          "indexed": false,
          "internalType": "uint256",
          "name": "amount",
          "type": "uint256"
        }
      ],
      "name": "DrawdownMade",
      "type": "event"
    },
    {
      "anonymous": false,
      "inputs": [
        {
          "indexed": true,
          "internalType": "address",
          "name": "pool",
          "type": "address"
        }
      ],
      "name": "DrawdownsPaused",
      "type": "event"
    },
    {
      "anonymous": false,
      "inputs": [
        {
          "indexed": true,
          "internalType": "address",
          "name": "pool",
          "type": "address"
        }
      ],
      "name": "DrawdownsUnpaused",
      "type": "event"
    },
    {
      "anonymous": false,
      "inputs": [
        {
          "indexed": true,
          "internalType": "address",
          "name": "pool",
          "type": "address"
        }
      ],
      "name": "EmergencyShutdown",
      "type": "event"
    },
    {
      "anonymous": false,
      "inputs": [
        {
          "indexed": true,
          "internalType": "address",
          "name": "who",
          "type": "address"
        },
        {
          "indexed": false,
          "internalType": "address",
          "name": "configAddress",
          "type": "address"
        }
      ],
      "name": "GoldfinchConfigUpdated",
      "type": "event"
    },
    {
      "anonymous": false,
      "inputs": [
        {
          "indexed": false,
          "internalType": "address",
          "name": "account",
          "type": "address"
        }
      ],
      "name": "Paused",
      "type": "event"
    },
    {
      "anonymous": false,
      "inputs": [
        {
          "indexed": true,
          "internalType": "address",
          "name": "payer",
          "type": "address"
        },
        {
          "indexed": true,
          "internalType": "address",
          "name": "pool",
          "type": "address"
        },
        {
          "indexed": false,
          "internalType": "uint256",
          "name": "interestAmount",
          "type": "uint256"
        },
        {
          "indexed": false,
          "internalType": "uint256",
          "name": "principalAmount",
          "type": "uint256"
        },
        {
          "indexed": false,
          "internalType": "uint256",
          "name": "remainingAmount",
          "type": "uint256"
        },
        {
          "indexed": false,
          "internalType": "uint256",
          "name": "reserveAmount",
          "type": "uint256"
        }
      ],
      "name": "PaymentApplied",
      "type": "event"
    },
    {
      "anonymous": false,
      "inputs": [
        {
          "indexed": true,
          "internalType": "address",
          "name": "from",
          "type": "address"
        },
        {
          "indexed": false,
          "internalType": "uint256",
          "name": "amount",
          "type": "uint256"
        }
      ],
      "name": "ReserveFundsCollected",
      "type": "event"
    },
    {
      "anonymous": false,
      "inputs": [
        {
          "indexed": true,
          "internalType": "bytes32",
          "name": "role",
          "type": "bytes32"
        },
        {
          "indexed": true,
          "internalType": "address",
          "name": "account",
          "type": "address"
        },
        {
          "indexed": true,
          "internalType": "address",
          "name": "sender",
          "type": "address"
        }
      ],
      "name": "RoleGranted",
      "type": "event"
    },
    {
      "anonymous": false,
      "inputs": [
        {
          "indexed": true,
          "internalType": "bytes32",
          "name": "role",
          "type": "bytes32"
        },
        {
          "indexed": true,
          "internalType": "address",
          "name": "account",
          "type": "address"
        },
        {
          "indexed": true,
          "internalType": "address",
          "name": "sender",
          "type": "address"
        }
      ],
      "name": "RoleRevoked",
      "type": "event"
    },
    {
      "anonymous": false,
      "inputs": [
        {
          "indexed": true,
          "internalType": "address",
          "name": "pool",
          "type": "address"
        },
        {
          "indexed": true,
          "internalType": "uint256",
          "name": "tranche",
          "type": "uint256"
        },
        {
          "indexed": false,
          "internalType": "uint256",
          "name": "principalSharePrice",
          "type": "uint256"
        },
        {
          "indexed": false,
          "internalType": "int256",
          "name": "principalDelta",
          "type": "int256"
        },
        {
          "indexed": false,
          "internalType": "uint256",
          "name": "interestSharePrice",
          "type": "uint256"
        },
        {
          "indexed": false,
          "internalType": "int256",
          "name": "interestDelta",
          "type": "int256"
        }
      ],
      "name": "SharePriceUpdated",
      "type": "event"
    },
    {
      "anonymous": false,
      "inputs": [
        {
          "indexed": true,
          "internalType": "address",
          "name": "pool",
          "type": "address"
        },
        {
          "indexed": false,
          "internalType": "uint256",
          "name": "sliceId",
          "type": "uint256"
        }
      ],
      "name": "SliceCreated",
      "type": "event"
    },
    {
      "anonymous": false,
      "inputs": [
        {
          "indexed": true,
          "internalType": "address",
          "name": "pool",
          "type": "address"
        },
        {
          "indexed": false,
          "internalType": "uint256",
          "name": "trancheId",
          "type": "uint256"
        },
        {
          "indexed": false,
          "internalType": "uint256",
          "name": "lockedUntil",
          "type": "uint256"
        }
      ],
      "name": "TrancheLocked",
      "type": "event"
    },
    {
      "anonymous": false,
      "inputs": [
        {
          "indexed": false,
          "internalType": "address",
          "name": "account",
          "type": "address"
        }
      ],
      "name": "Unpaused",
      "type": "event"
    },
    {
      "anonymous": false,
      "inputs": [
        {
          "indexed": true,
          "internalType": "address",
          "name": "owner",
          "type": "address"
        },
        {
          "indexed": true,
          "internalType": "uint256",
          "name": "tranche",
          "type": "uint256"
        },
        {
          "indexed": true,
          "internalType": "uint256",
          "name": "tokenId",
          "type": "uint256"
        },
        {
          "indexed": false,
          "internalType": "uint256",
          "name": "interestWithdrawn",
          "type": "uint256"
        },
        {
          "indexed": false,
          "internalType": "uint256",
          "name": "principalWithdrawn",
          "type": "uint256"
        }
      ],
      "name": "WithdrawalMade",
      "type": "event"
    },
    {
      "inputs": [],
      "name": "DEFAULT_ADMIN_ROLE",
      "outputs": [
        {
          "internalType": "bytes32",
          "name": "",
          "type": "bytes32"
        }
      ],
      "stateMutability": "view",
      "type": "function"
    },
    {
      "inputs": [],
      "name": "FP_SCALING_FACTOR",
      "outputs": [
        {
          "internalType": "uint256",
          "name": "",
          "type": "uint256"
        }
      ],
      "stateMutability": "view",
      "type": "function"
    },
    {
      "inputs": [],
      "name": "LOCKER_ROLE",
      "outputs": [
        {
          "internalType": "bytes32",
          "name": "",
          "type": "bytes32"
        }
      ],
      "stateMutability": "view",
      "type": "function"
    },
    {
      "inputs": [],
      "name": "NUM_TRANCHES_PER_SLICE",
      "outputs": [
        {
          "internalType": "uint256",
          "name": "",
          "type": "uint256"
        }
      ],
      "stateMutability": "view",
      "type": "function"
    },
    {
      "inputs": [],
      "name": "ONE_HUNDRED",
      "outputs": [
        {
          "internalType": "uint256",
          "name": "",
          "type": "uint256"
        }
      ],
      "stateMutability": "view",
      "type": "function"
    },
    {
      "inputs": [],
      "name": "OWNER_ROLE",
      "outputs": [
        {
          "internalType": "bytes32",
          "name": "",
          "type": "bytes32"
        }
      ],
      "stateMutability": "view",
      "type": "function"
    },
    {
      "inputs": [],
      "name": "PAUSER_ROLE",
      "outputs": [
        {
          "internalType": "bytes32",
          "name": "",
          "type": "bytes32"
        }
      ],
      "stateMutability": "view",
      "type": "function"
    },
    {
      "inputs": [],
      "name": "SECONDS_PER_DAY",
      "outputs": [
        {
          "internalType": "uint256",
          "name": "",
          "type": "uint256"
        }
      ],
      "stateMutability": "view",
      "type": "function"
    },
    {
      "inputs": [],
      "name": "SENIOR_ROLE",
      "outputs": [
        {
          "internalType": "bytes32",
          "name": "",
          "type": "bytes32"
        }
      ],
      "stateMutability": "view",
      "type": "function"
    },
    {
      "inputs": [
        {
          "internalType": "address",
          "name": "owner",
          "type": "address"
        }
      ],
      "name": "__BaseUpgradeablePausable__init",
      "outputs": [],
      "stateMutability": "nonpayable",
      "type": "function"
    },
    {
      "inputs": [],
      "name": "__PauserPausable__init",
      "outputs": [],
      "stateMutability": "nonpayable",
      "type": "function"
    },
    {
      "inputs": [
        {
          "internalType": "uint256",
          "name": "",
          "type": "uint256"
        }
      ],
      "name": "allowedUIDTypes",
      "outputs": [
        {
          "internalType": "uint256",
          "name": "",
          "type": "uint256"
        }
      ],
      "stateMutability": "view",
      "type": "function"
    },
    {
      "inputs": [],
      "name": "assess",
      "outputs": [],
      "stateMutability": "nonpayable",
      "type": "function"
    },
    {
      "inputs": [
        {
          "internalType": "uint256",
          "name": "tokenId",
          "type": "uint256"
        }
      ],
      "name": "availableToWithdraw",
      "outputs": [
        {
          "internalType": "uint256",
          "name": "interestRedeemable",
          "type": "uint256"
        },
        {
          "internalType": "uint256",
          "name": "principalRedeemable",
          "type": "uint256"
        }
      ],
      "stateMutability": "view",
      "type": "function"
    },
    {
      "inputs": [],
      "name": "config",
      "outputs": [
        {
          "internalType": "contract GoldfinchConfig",
          "name": "",
          "type": "address"
        }
      ],
      "stateMutability": "view",
      "type": "function"
    },
    {
      "inputs": [],
      "name": "createdAt",
      "outputs": [
        {
          "internalType": "uint256",
          "name": "",
          "type": "uint256"
        }
      ],
      "stateMutability": "view",
      "type": "function"
    },
    {
      "inputs": [],
      "name": "creditLine",
      "outputs": [
        {
          "internalType": "contract IV2CreditLine",
          "name": "",
          "type": "address"
        }
      ],
      "stateMutability": "view",
      "type": "function"
    },
    {
      "inputs": [
        {
          "internalType": "uint256",
          "name": "tranche",
          "type": "uint256"
        },
        {
          "internalType": "uint256",
          "name": "amount",
          "type": "uint256"
        }
      ],
      "name": "deposit",
      "outputs": [
        {
          "internalType": "uint256",
          "name": "tokenId",
          "type": "uint256"
        }
      ],
      "stateMutability": "nonpayable",
      "type": "function"
    },
    {
      "inputs": [
        {
          "internalType": "uint256",
          "name": "tranche",
          "type": "uint256"
        },
        {
          "internalType": "uint256",
          "name": "amount",
          "type": "uint256"
        },
        {
          "internalType": "uint256",
          "name": "deadline",
          "type": "uint256"
        },
        {
          "internalType": "uint8",
          "name": "v",
          "type": "uint8"
        },
        {
          "internalType": "bytes32",
          "name": "r",
          "type": "bytes32"
        },
        {
          "internalType": "bytes32",
          "name": "s",
          "type": "bytes32"
        }
      ],
      "name": "depositWithPermit",
      "outputs": [
        {
          "internalType": "uint256",
          "name": "tokenId",
          "type": "uint256"
        }
      ],
      "stateMutability": "nonpayable",
      "type": "function"
    },
    {
      "inputs": [
        {
          "internalType": "uint256",
          "name": "amount",
          "type": "uint256"
        }
      ],
      "name": "drawdown",
      "outputs": [],
      "stateMutability": "nonpayable",
      "type": "function"
    },
    {
      "inputs": [],
      "name": "drawdownsPaused",
      "outputs": [
        {
          "internalType": "bool",
          "name": "",
          "type": "bool"
        }
      ],
      "stateMutability": "view",
      "type": "function"
    },
    {
      "inputs": [],
      "name": "emergencyShutdown",
      "outputs": [],
      "stateMutability": "nonpayable",
      "type": "function"
    },
    {
      "inputs": [],
      "name": "fundableAt",
      "outputs": [
        {
          "internalType": "uint256",
          "name": "",
          "type": "uint256"
        }
      ],
      "stateMutability": "view",
      "type": "function"
    },
    {
      "inputs": [
        {
          "internalType": "bytes32",
          "name": "role",
          "type": "bytes32"
        }
      ],
      "name": "getRoleAdmin",
      "outputs": [
        {
          "internalType": "bytes32",
          "name": "",
          "type": "bytes32"
        }
      ],
      "stateMutability": "view",
      "type": "function"
    },
    {
      "inputs": [
        {
          "internalType": "bytes32",
          "name": "role",
          "type": "bytes32"
        },
        {
          "internalType": "uint256",
          "name": "index",
          "type": "uint256"
        }
      ],
      "name": "getRoleMember",
      "outputs": [
        {
          "internalType": "address",
          "name": "",
          "type": "address"
        }
      ],
      "stateMutability": "view",
      "type": "function"
    },
    {
      "inputs": [
        {
          "internalType": "bytes32",
          "name": "role",
          "type": "bytes32"
        }
      ],
      "name": "getRoleMemberCount",
      "outputs": [
        {
          "internalType": "uint256",
          "name": "",
          "type": "uint256"
        }
      ],
      "stateMutability": "view",
      "type": "function"
    },
    {
      "inputs": [
        {
          "internalType": "uint256",
          "name": "tranche",
          "type": "uint256"
        }
      ],
      "name": "getTranche",
      "outputs": [
        {
          "components": [
            {
              "internalType": "uint256",
              "name": "id",
              "type": "uint256"
            },
            {
              "internalType": "uint256",
              "name": "principalDeposited",
              "type": "uint256"
            },
            {
              "internalType": "uint256",
              "name": "principalSharePrice",
              "type": "uint256"
            },
            {
              "internalType": "uint256",
              "name": "interestSharePrice",
              "type": "uint256"
            },
            {
              "internalType": "uint256",
              "name": "lockedUntil",
              "type": "uint256"
            }
          ],
          "internalType": "struct ITranchedPool.TrancheInfo",
          "name": "",
          "type": "tuple"
        }
      ],
      "stateMutability": "view",
      "type": "function"
    },
    {
      "inputs": [
        {
          "internalType": "bytes32",
          "name": "role",
          "type": "bytes32"
        },
        {
          "internalType": "address",
          "name": "account",
          "type": "address"
        }
      ],
      "name": "grantRole",
      "outputs": [],
      "stateMutability": "nonpayable",
      "type": "function"
    },
    {
      "inputs": [
        {
          "internalType": "bytes32",
          "name": "role",
          "type": "bytes32"
        },
        {
          "internalType": "address",
          "name": "account",
          "type": "address"
        }
      ],
      "name": "hasRole",
      "outputs": [
        {
          "internalType": "bool",
          "name": "",
          "type": "bool"
        }
      ],
      "stateMutability": "view",
      "type": "function"
    },
    {
      "inputs": [
        {
          "internalType": "address",
          "name": "_config",
          "type": "address"
        },
        {
          "internalType": "address",
          "name": "_borrower",
          "type": "address"
        },
        {
          "internalType": "uint256",
          "name": "_juniorFeePercent",
          "type": "uint256"
        },
        {
          "internalType": "uint256",
          "name": "_limit",
          "type": "uint256"
        },
        {
          "internalType": "uint256",
          "name": "_interestApr",
          "type": "uint256"
        },
        {
          "internalType": "uint256",
          "name": "_paymentPeriodInDays",
          "type": "uint256"
        },
        {
          "internalType": "uint256",
          "name": "_termInDays",
          "type": "uint256"
        },
        {
          "internalType": "uint256",
          "name": "_lateFeeApr",
          "type": "uint256"
        },
        {
          "internalType": "uint256",
          "name": "_principalGracePeriodInDays",
          "type": "uint256"
        },
        {
          "internalType": "uint256",
          "name": "_fundableAt",
          "type": "uint256"
        },
        {
          "internalType": "uint256[]",
          "name": "_allowedUIDTypes",
          "type": "uint256[]"
        }
      ],
      "name": "initialize",
      "outputs": [],
      "stateMutability": "nonpayable",
      "type": "function"
    },
    {
      "inputs": [
        {
          "internalType": "uint256",
          "name": "_fundableAt",
          "type": "uint256"
        }
      ],
      "name": "initializeNextSlice",
      "outputs": [],
      "stateMutability": "nonpayable",
      "type": "function"
    },
    {
      "inputs": [],
      "name": "isAdmin",
      "outputs": [
        {
          "internalType": "bool",
          "name": "",
          "type": "bool"
        }
      ],
      "stateMutability": "view",
      "type": "function"
    },
    {
      "inputs": [],
      "name": "juniorFeePercent",
      "outputs": [
        {
          "internalType": "uint256",
          "name": "",
          "type": "uint256"
        }
      ],
      "stateMutability": "view",
      "type": "function"
    },
    {
      "inputs": [],
      "name": "lockJuniorCapital",
      "outputs": [],
      "stateMutability": "nonpayable",
      "type": "function"
    },
    {
      "inputs": [],
      "name": "lockPool",
      "outputs": [],
      "stateMutability": "nonpayable",
      "type": "function"
    },
    {
      "inputs": [
        {
          "internalType": "address",
          "name": "newCl",
          "type": "address"
        }
      ],
      "name": "migrateAndSetNewCreditLine",
      "outputs": [],
      "stateMutability": "nonpayable",
      "type": "function"
    },
    {
      "inputs": [
        {
          "internalType": "address",
          "name": "_borrower",
          "type": "address"
        },
        {
          "internalType": "uint256",
          "name": "_maxLimit",
          "type": "uint256"
        },
        {
          "internalType": "uint256",
          "name": "_interestApr",
          "type": "uint256"
        },
        {
          "internalType": "uint256",
          "name": "_paymentPeriodInDays",
          "type": "uint256"
        },
        {
          "internalType": "uint256",
          "name": "_termInDays",
          "type": "uint256"
        },
        {
          "internalType": "uint256",
          "name": "_lateFeeApr",
          "type": "uint256"
        },
        {
          "internalType": "uint256",
          "name": "_principalGracePeriodInDays",
          "type": "uint256"
        }
      ],
      "name": "migrateCreditLine",
      "outputs": [],
      "stateMutability": "nonpayable",
      "type": "function"
    },
    {
      "inputs": [],
      "name": "numSlices",
      "outputs": [
        {
          "internalType": "uint256",
          "name": "",
          "type": "uint256"
        }
      ],
      "stateMutability": "view",
      "type": "function"
    },
    {
      "inputs": [],
      "name": "pause",
      "outputs": [],
      "stateMutability": "nonpayable",
      "type": "function"
    },
    {
      "inputs": [],
      "name": "pauseDrawdowns",
      "outputs": [],
      "stateMutability": "nonpayable",
      "type": "function"
    },
    {
      "inputs": [],
      "name": "paused",
      "outputs": [
        {
          "internalType": "bool",
          "name": "",
          "type": "bool"
        }
      ],
      "stateMutability": "view",
      "type": "function"
    },
    {
      "inputs": [
        {
          "internalType": "uint256",
          "name": "amount",
          "type": "uint256"
        }
      ],
      "name": "pay",
      "outputs": [],
      "stateMutability": "nonpayable",
      "type": "function"
    },
    {
      "inputs": [
        {
          "internalType": "uint256",
          "name": "",
          "type": "uint256"
        }
      ],
      "name": "poolSlices",
      "outputs": [
        {
          "components": [
            {
              "internalType": "uint256",
              "name": "id",
              "type": "uint256"
            },
            {
              "internalType": "uint256",
              "name": "principalDeposited",
              "type": "uint256"
            },
            {
              "internalType": "uint256",
              "name": "principalSharePrice",
              "type": "uint256"
            },
            {
              "internalType": "uint256",
              "name": "interestSharePrice",
              "type": "uint256"
            },
            {
              "internalType": "uint256",
              "name": "lockedUntil",
              "type": "uint256"
            }
          ],
          "internalType": "struct ITranchedPool.TrancheInfo",
          "name": "seniorTranche",
          "type": "tuple"
        },
        {
          "components": [
            {
              "internalType": "uint256",
              "name": "id",
              "type": "uint256"
            },
            {
              "internalType": "uint256",
              "name": "principalDeposited",
              "type": "uint256"
            },
            {
              "internalType": "uint256",
              "name": "principalSharePrice",
              "type": "uint256"
            },
            {
              "internalType": "uint256",
              "name": "interestSharePrice",
              "type": "uint256"
            },
            {
              "internalType": "uint256",
              "name": "lockedUntil",
              "type": "uint256"
            }
          ],
          "internalType": "struct ITranchedPool.TrancheInfo",
          "name": "juniorTranche",
          "type": "tuple"
        },
        {
          "internalType": "uint256",
          "name": "totalInterestAccrued",
          "type": "uint256"
        },
        {
          "internalType": "uint256",
          "name": "principalDeployed",
          "type": "uint256"
        }
      ],
      "stateMutability": "view",
      "type": "function"
    },
    {
      "inputs": [
        {
          "internalType": "bytes32",
          "name": "role",
          "type": "bytes32"
        },
        {
          "internalType": "address",
          "name": "account",
          "type": "address"
        }
      ],
      "name": "renounceRole",
      "outputs": [],
      "stateMutability": "nonpayable",
      "type": "function"
    },
    {
      "inputs": [
        {
          "internalType": "bytes32",
          "name": "role",
          "type": "bytes32"
        },
        {
          "internalType": "address",
          "name": "account",
          "type": "address"
        }
      ],
      "name": "revokeRole",
      "outputs": [],
      "stateMutability": "nonpayable",
      "type": "function"
    },
    {
      "inputs": [
        {
          "internalType": "uint256[]",
          "name": "ids",
          "type": "uint256[]"
        }
      ],
      "name": "setAllowedUIDTypes",
      "outputs": [],
      "stateMutability": "nonpayable",
      "type": "function"
    },
    {
      "inputs": [
        {
          "internalType": "uint256",
          "name": "newFundableAt",
          "type": "uint256"
        }
      ],
      "name": "setFundableAt",
      "outputs": [],
      "stateMutability": "nonpayable",
      "type": "function"
    },
    {
      "inputs": [
        {
          "internalType": "uint256",
          "name": "newAmount",
          "type": "uint256"
        }
      ],
      "name": "setLimit",
      "outputs": [],
      "stateMutability": "nonpayable",
      "type": "function"
    },
    {
      "inputs": [
        {
          "internalType": "uint256",
          "name": "newAmount",
          "type": "uint256"
        }
      ],
      "name": "setMaxLimit",
      "outputs": [],
      "stateMutability": "nonpayable",
      "type": "function"
    },
    {
      "inputs": [
        {
          "internalType": "uint256",
          "name": "sharePrice",
          "type": "uint256"
        },
        {
          "internalType": "uint256",
          "name": "totalShares",
          "type": "uint256"
        }
      ],
      "name": "sharePriceToUsdc",
      "outputs": [
        {
          "internalType": "uint256",
          "name": "",
          "type": "uint256"
        }
      ],
      "stateMutability": "pure",
      "type": "function"
    },
    {
      "inputs": [],
      "name": "totalDeployed",
      "outputs": [
        {
          "internalType": "uint256",
          "name": "",
          "type": "uint256"
        }
      ],
      "stateMutability": "view",
      "type": "function"
    },
    {
      "inputs": [],
      "name": "totalJuniorDeposits",
      "outputs": [
        {
          "internalType": "uint256",
          "name": "",
          "type": "uint256"
        }
      ],
      "stateMutability": "view",
      "type": "function"
    },
    {
      "inputs": [],
      "name": "unpause",
      "outputs": [],
      "stateMutability": "nonpayable",
      "type": "function"
    },
    {
      "inputs": [],
      "name": "unpauseDrawdowns",
      "outputs": [],
      "stateMutability": "nonpayable",
      "type": "function"
    },
    {
      "inputs": [],
      "name": "updateGoldfinchConfig",
      "outputs": [],
      "stateMutability": "nonpayable",
      "type": "function"
    },
    {
      "inputs": [
        {
          "internalType": "uint256",
          "name": "amount",
          "type": "uint256"
        },
        {
          "internalType": "uint256",
          "name": "totalShares",
          "type": "uint256"
        }
      ],
      "name": "usdcToSharePrice",
      "outputs": [
        {
          "internalType": "uint256",
          "name": "",
          "type": "uint256"
        }
      ],
      "stateMutability": "pure",
      "type": "function"
    },
    {
      "inputs": [
        {
          "internalType": "uint256",
          "name": "tokenId",
          "type": "uint256"
        },
        {
          "internalType": "uint256",
          "name": "amount",
          "type": "uint256"
        }
      ],
      "name": "withdraw",
      "outputs": [
        {
          "internalType": "uint256",
          "name": "interestWithdrawn",
          "type": "uint256"
        },
        {
          "internalType": "uint256",
          "name": "principalWithdrawn",
          "type": "uint256"
        }
      ],
      "stateMutability": "nonpayable",
      "type": "function"
    },
    {
      "inputs": [
        {
          "internalType": "uint256",
          "name": "tokenId",
          "type": "uint256"
        }
      ],
      "name": "withdrawMax",
      "outputs": [
        {
          "internalType": "uint256",
          "name": "interestWithdrawn",
          "type": "uint256"
        },
        {
          "internalType": "uint256",
          "name": "principalWithdrawn",
          "type": "uint256"
        }
      ],
      "stateMutability": "nonpayable",
      "type": "function"
    },
    {
      "inputs": [
        {
          "internalType": "uint256[]",
          "name": "tokenIds",
          "type": "uint256[]"
        },
        {
          "internalType": "uint256[]",
          "name": "amounts",
          "type": "uint256[]"
        }
      ],
      "name": "withdrawMultiple",
      "outputs": [],
      "stateMutability": "nonpayable",
      "type": "function"
    }
  ],
  "transactionHash": "0xb90712f268b92ad11d59369ba576d81f25785fa04d21c2a0c341228a26fc9cba",
  "args": [],
  "solcInputHash": "09586d0fbcee1e635828b4bf555ecfc7",
  "bytecode": "0x608060405234801561001057600080fd5b50615f4180620000216000396000f3fe608060405234801561001057600080fd5b50600436106103195760003560e01c806380b65431116101a9578063bf8bcee4116100ef578063d547741f1161009d578063d547741f14610619578063d972e8ad1461062c578063dd0ec2411461064c578063e2a657f914610654578063e2bbb15814610667578063e58378bb1461067a578063e63ab1e914610682578063f36213671461068a57610319565b8063bf8bcee4146105b5578063bfaa8cca146105c8578063c290d691146105d0578063c77d5698146105e3578063ca15c873146105eb578063cde88845146105fe578063cf09e0d01461061157610319565b8063a6a25e8811610157578063a6a25e8814610549578063a8deac0e14610551578063a8f9c4fe14610564578063aa2a7c4c1461056c578063ae6c857a1461057f578063b6db75a014610592578063b9317d861461059a578063bf6c87c7146105ad57610319565b806380b65431146104ca5780638456cb59146104ed5780639010d07c146104f557806391d14854146105085780639d1105301461051b578063a079a4dd1461052e578063a217fddf1461054157610319565b8063441a3e701161026e57806356ce15601161021c57806356ce1560146104745780635c975abb146104875780635eb185a21461048f57806368dcfdc01461049757806374f0314f1461049f57806378bcd604146104a757806379502c55146104ba5780637976323d146104c257610319565b8063441a3e701461040057806344c08f231461042157806347195e13146104295780634d02fe6f1461043e5780634f92a72814610451578063515bc32314610459578063526d81f61461046c57610319565b806327ea6f2b116102cb57806327ea6f2b146103a75780632ae754be146103ba5780632f2ff15d146103c25780633403c2fc146103d557806336568abe146103dd5780633f4ba83a146103f05780634026478e146103f857610319565b80630174b4491461031e5780630881806c14610347578063097616a3146103515780630cfb14b01461036457806317f769411461036c5780631fe032be14610381578063248a9ca314610394575b600080fd5b61033161032c366004614fbf565b610692565b60405161033e9190615353565b60405180910390f35b61034f610727565b005b61034f61035f366004614d63565b6107a1565b6103316108d1565b6103746108d8565b60405161033e9190615348565b61034f61038f366004614e5b565b6108e2565b6103316103a2366004614f78565b610ca4565b61034f6103b5366004614f78565b610cb9565b610331610d44565b61034f6103d0366004614f90565b610d56565b61034f610d9a565b61034f6103eb366004614f90565b610f71565b61034f610fb3565b61034f610ff1565b61041361040e366004614fbf565b611050565b60405161033e929190615e0b565b610331611178565b61043161117d565b60405161033e9190615187565b61041361044c366004614f78565b61118d565b61034f611273565b6103316104673660046150d2565b611369565b61034f611400565b61034f610482366004614d63565b61148a565b6103746116d8565b6103316116e1565b6103316116e8565b6103316116f4565b61034f6104b5366004614f78565b6116fb565b610431611911565b610331611921565b6104dd6104d8366004614f78565b611928565b60405161033e9493929190615d6f565b61034f6119de565b610431610503366004614fbf565b611a1c565b610374610516366004614f90565b611a34565b61034f610529366004614eef565b611a4c565b61034f61053c366004614f78565b611aae565b610331611f9b565b61034f611fa0565b61034f61055f366004614d9b565b611fcb565b61034f61236a565b61041361057a366004614f78565b6123c9565b61034f61058d366004614f78565b612512565b61037461254c565b61034f6105a8366004614eaf565b61256d565b61034f612625565b61034f6105c3366004614f78565b612681565b6103316126d6565b61034f6105de366004614f78565b6126db565b61033161272f565b6103316105f9366004614f78565b612736565b61033161060c366004614fbf565b61274d565b610331612789565b61034f610627366004614f90565b612790565b61063f61063a366004614f78565b6127ca565b60405161033e9190615d61565b61033161281a565b610331610662366004614f78565b612867565b610331610675366004614fbf565b612886565b610331612b85565b610331612b97565b610331612ba9565b604051630174b44960e01b815260009073DabCc280ab22ca12332CeFBFFb26Abb22393EC1c90630174b449906106ce9086908690600401615e0b565b60206040518083038186803b1580156106e657600080fd5b505af41580156106fa573d6000803e3d6000fd5b505050506040513d601f19601f8201168201806040525081019061071e919061508d565b90505b92915050565b61073f600080516020615eec83398151915233611a34565b6107645760405162461bcd60e51b815260040161075b9061599b565b60405180910390fd5b60975460ff16156107875760405162461bcd60e51b815260040161075b90615883565b6101cb5461079f9061079a906001612bbb565b612bfd565b565b600054610100900460ff16806107ba57506107ba612d05565b806107c8575060005460ff16155b6107e45760405162461bcd60e51b815260040161075b90615a0b565b600054610100900460ff1615801561080f576000805460ff1961ff0019909116610100171660011790555b6001600160a01b0382166108355760405162461bcd60e51b815260040161075b90615909565b61083d612d0b565b610845612d8c565b61084d612e18565b610865600080516020615e6c83398151915283610d90565b61087d600080516020615eac83398151915283610d90565b6108a3600080516020615eac833981519152600080516020615e6c833981519152612ea7565b6108bb600080516020615e6c83398151915280612ea7565b80156108cd576000805461ff00191690555b5050565b6101c95481565b6101c75460ff1681565b6108ea61254c565b6109065760405162461bcd60e51b815260040161075b90615c6b565b6001600160a01b03871661092c5760405162461bcd60e51b815260040161075b90615777565b836109495760405162461bcd60e51b815260040161075b906158ad565b826109665760405162461bcd60e51b815260040161075b90615b47565b6101c3546001600160a01b031661098288888888888888612ebc565b6101c3546040516001623df69160e21b031981526001600160a01b039091169073DabCc280ab22ca12332CeFBFFb26Abb22393EC1c9063ff0825bc906109ce9085908590600401615250565b60006040518083038186803b1580156109e657600080fd5b505af41580156109fa573d6000803e3d6000fd5b50506040516302a7e68560e21b815273DabCc280ab22ca12332CeFBFFb26Abb22393EC1c9250630a9f9a149150610a35908590600401615187565b60006040518083038186803b158015610a4d57600080fd5b505af4158015610a61573d6000803e3d6000fd5b505050506000826001600160a01b0316637df1f1b96040518163ffffffff1660e01b815260040160206040518083038186803b158015610aa057600080fd5b505afa158015610ab4573d6000803e3d6000fd5b505050506040513d601f19601f82011682018060405250810190610ad89190614d7f565b90506000826001600160a01b0316637df1f1b96040518163ffffffff1660e01b815260040160206040518083038186803b158015610b1557600080fd5b505afa158015610b29573d6000803e3d6000fd5b505050506040513d601f19601f82011682018060405250810190610b4d9190614d7f565b9050806001600160a01b0316826001600160a01b031614610b9857610b80600080516020615eec83398151915283612790565b610b98600080516020615eec83398151915282610d56565b6101c554600090610bb1906001600160a01b0316612fe1565b6001600160a01b03166370a08231866040518263ffffffff1660e01b8152600401610bdc9190615187565b60206040518083038186803b158015610bf457600080fd5b505afa158015610c08573d6000803e3d6000fd5b505050506040513d601f19601f82011682018060405250810190610c2c919061508d565b90508015610c56576101c554610c5690610c4e906001600160a01b0316612fe1565b868684612fec565b836001600160a01b0316856001600160a01b03167f987cdba0cba67c68d2c8aba6a4ba6545565eccfb3e2e5ff39579ffd94acaf9bb60405160405180910390a3505050505050505050505050565b60009081526065602052604090206002015490565b610cc161254c565b610cdd5760405162461bcd60e51b815260040161075b90615c6b565b6101c3546040516327ea6f2b60e01b81526001600160a01b03909116906327ea6f2b90610d0e908490600401615353565b600060405180830381600087803b158015610d2857600080fd5b505af1158015610d3c573d6000803e3d6000fd5b505050505b50565b600080516020615ecc83398151915281565b600082815260656020526040902060020154610d7490610516613028565b610d905760405162461bcd60e51b815260040161075b906153f1565b6108cd828261302c565b610da261254c565b610dbe5760405162461bcd60e51b815260040161075b90615c6b565b610dc66116d8565b610dd257610dd26119de565b6101c554600090610deb906001600160a01b0316612fe1565b6101c554909150600090610e07906001600160a01b0316613095565b90506000826001600160a01b03166370a08231306040518263ffffffff1660e01b8152600401610e379190615187565b60206040518083038186803b158015610e4f57600080fd5b505afa158015610e63573d6000803e3d6000fd5b505050506040513d601f19601f82011682018060405250810190610e87919061508d565b90508015610e9a57610e9a838383613115565b6101c3546040516370a0823160e01b81526000916001600160a01b03808716926370a0823192610ece921690600401615187565b60206040518083038186803b158015610ee657600080fd5b505afa158015610efa573d6000803e3d6000fd5b505050506040513d601f19601f82011682018060405250810190610f1e919061508d565b90508015610f40576101c354610f409085906001600160a01b03168584612fec565b60405130907f1fc1e771236d2e93bb9541cdcb4654ba0fd3fb615b48d829b7b365f03998512690600090a250505050565b610f79613028565b6001600160a01b0316816001600160a01b031614610fa95760405162461bcd60e51b815260040161075b90615ced565b6108cd8282613151565b610fcd600080516020615eac833981519152610516613028565b610fe95760405162461bcd60e51b815260040161075b9061558c565b61079f6131ba565b611009600080516020615eec83398151915233611a34565b6110255760405162461bcd60e51b815260040161075b9061599b565b60975460ff16156110485760405162461bcd60e51b815260040161075b90615883565b61079f613226565b60c954600090819060ff166110775760405162461bcd60e51b815260040161075b90615c08565b60c9805460ff1916905560975460ff16156110a45760405162461bcd60e51b815260040161075b90615883565b6110ac614be7565b6101c5546110c2906001600160a01b03166135da565b6001600160a01b0316638c7a63ae866040518263ffffffff1660e01b81526004016110ed9190615353565b60a06040518083038186803b15801561110557600080fd5b505afa158015611119573d6000803e3d6000fd5b505050506040513d601f19601f8201168201806040525081019061113d9190615031565b9050600061114e82602001516135e5565b905061115c81838888613695565b93509350505060c9805460ff1916600117905590939092509050565b600281565b6101c3546001600160a01b031681565b600080611198614be7565b6101c5546111ae906001600160a01b03166135da565b6001600160a01b0316638c7a63ae856040518263ffffffff1660e01b81526004016111d99190615353565b60a06040518083038186803b1580156111f157600080fd5b505afa158015611205573d6000803e3d6000fd5b505050506040513d601f19601f820116820180604052508101906112299190615031565b9050600061123a82602001516135e5565b905080600401546112496139be565b11156112645761125981836139c2565b93509350505061126e565b6000809350935050505b915091565b61127b61254c565b6112975760405162461bcd60e51b815260040161075b90615c6b565b6101c5546112ad906001600160a01b0316613a2d565b6101c580546001600160a01b0319166001600160a01b039283161790556101c354604080516309f254e560e31b815290519190921691634f92a72891600480830192600092919082900301818387803b15801561130957600080fd5b505af115801561131d573d6000803e3d6000fd5b50506101c5546040513393507f7c76c17de59691df2ef36af3938c91f69cd18ad27f67a54a38e38686f0b40c49925061135f916001600160a01b031690615187565b60405180910390a2565b6101c554600090611382906001600160a01b0316613a45565b6001600160a01b031663d505accf333089898989896040518863ffffffff1660e01b81526004016113b9979695949392919061519b565b600060405180830381600087803b1580156113d357600080fd5b505af11580156113e7573d6000803e3d6000fd5b505050506113f58787612886565b979650505050505050565b600054610100900460ff16806114195750611419612d05565b80611427575060005460ff16155b6114435760405162461bcd60e51b815260040161075b90615a0b565b600054610100900460ff1615801561146e576000805460ff1961ff0019909116610100171660011790555b611476612d8c565b8015610d41576000805461ff001916905550565b61149261254c565b6114ae5760405162461bcd60e51b815260040161075b90615c6b565b6001600160a01b0381166114d45760405162461bcd60e51b815260040161075b906155d8565b6101c3546101c5546001600160a01b03918216916000916114f59116612fe1565b6001600160a01b03166370a08231836040518263ffffffff1660e01b81526004016115209190615187565b60206040518083038186803b15801561153857600080fd5b505afa15801561154c573d6000803e3d6000fd5b505050506040513d601f19601f82011682018060405250810190611570919061508d565b9050801561159a576101c55461159a90611592906001600160a01b0316612fe1565b838584612fec565b6040516302a7e68560e21b815273DabCc280ab22ca12332CeFBFFb26Abb22393EC1c90630a9f9a14906115d1908590600401615187565b60006040518083038186803b1580156115e957600080fd5b505af41580156115fd573d6000803e3d6000fd5b50506101c380546001600160a01b0319166001600160a01b0387811691909117918290556040805163a4d66daf60e01b8152905192909116935063a4d66daf9250600480820192602092909190829003018186803b15801561165e57600080fd5b505afa158015611672573d6000803e3d6000fd5b505050506040513d601f19601f82011682018060405250810190611696919061508d565b506101c3546040516001600160a01b03918216918416907f987cdba0cba67c68d2c8aba6a4ba6545565eccfb3e2e5ff39579ffd94acaf9bb90600090a3505050565b60975460ff1690565b6101ca5481565b670de0b6b3a764000081565b6201518081565b611713600080516020615eec83398151915233611a34565b61172f5760405162461bcd60e51b815260040161075b9061599b565b60975460ff16156117525760405162461bcd60e51b815260040161075b90615883565b61175a613a5d565b6117765760405162461bcd60e51b815260040161075b906156a5565b6101c360009054906101000a90046001600160a01b03166001600160a01b03166381c17a156040518163ffffffff1660e01b815260040160206040518083038186803b1580156117c557600080fd5b505afa1580156117d9573d6000803e3d6000fd5b505050506040513d601f19601f820116820180604052508101906117fd9190614f58565b1561181a5760405162461bcd60e51b815260040161075b906158dd565b6101c360009054906101000a90046001600160a01b03166001600160a01b031663457147a76040518163ffffffff1660e01b815260040160206040518083038186803b15801561186957600080fd5b505afa15801561187d573d6000803e3d6000fd5b505050506040513d601f19601f820116820180604052508101906118a19190614f58565b6118bd5760405162461bcd60e51b815260040161075b90615646565b6118c681613a97565b6101cb5430907f3420dd9c54d6a8846edd2fb39a41c30c31e7bc95b43655dae59f47cc913b60d5906118f9906001612bbb565b6040516119069190615353565b60405180910390a250565b6101c5546001600160a01b031681565b6101cb5490565b6101cb818154811061193657fe5b90600052602060002090600c0201600091509050806000016040518060a00160405290816000820154815260200160018201548152602001600282015481526020016003820154815260200160048201548152505090806005016040518060a0016040529081600082015481526020016001820154815260200160028201548152602001600382015481526020016004820154815250509080600a01549080600b0154905084565b6119f8600080516020615eac833981519152610516613028565b611a145760405162461bcd60e51b815260040161075b9061558c565b61079f613bfe565b600082815260656020526040812061071e9083613c57565b600082815260656020526040812061071e9083613c63565b828114611a6b5760405162461bcd60e51b815260040161075b90615740565b60005b81811015610d3c57611aa4858583818110611a8557fe5b90506020020135848484818110611a9857fe5b90506020020135611050565b5050600101611a6e565b611ac6600080516020615eec83398151915233611a34565b611ae25760405162461bcd60e51b815260040161075b9061599b565b60975460ff1615611b055760405162461bcd60e51b815260040161075b90615883565b6101c75460ff1615611b295760405162461bcd60e51b815260040161075b9061593e565b611b31613a5d565b611b3d57611b3d613226565b6101cb805460009190611b51906001612bbb565b81548110611b5b57fe5b90600052602060002090600c020190506000611b8582600501600201548360050160010154610692565b9050611ba9611ba283600001600201548460000160010154610692565b8290613c78565b905080831115611bcb5760405162461bcd60e51b815260040161075b906154f7565b6101c35460405163a079a4dd60e01b81526001600160a01b039091169063a079a4dd90611bfc908690600401615353565b600060405180830381600087803b158015611c1657600080fd5b505af1158015611c2a573d6000803e3d6000fd5b505050506000611c438483612bbb90919063ffffffff16565b600784015460028501546040805160a081018252600588015481526006880154602082015280820184905260088801546060820152600988015460808201529051634ec167e960e11b81529394509192909173DabCc280ab22ca12332CeFBFFb26Abb22393EC1c91639d82cfd291611cc19187908a90600401615d9f565b60206040518083038186803b158015611cd957600080fd5b505af4158015611ced573d6000803e3d6000fd5b505050506040513d601f19601f82011682018060405250810190611d11919061508d565b60078601556040805160a08101825286548152600187015460208201526002870154818301526003870154606082015260048088015460808301529151634ec167e960e11b815273DabCc280ab22ca12332CeFBFFb26Abb22393EC1c92639d82cfd292611d8492909188918b9101615d9f565b60206040518083038186803b158015611d9c57600080fd5b505af4158015611db0573d6000803e3d6000fd5b505050506040513d601f19601f82011682018060405250810190611dd4919061508d565b6002860155600b850154611de89087613c78565b600b8601556101c954611dfb9087613c78565b6101c9556101c35460408051637df1f1b960e01b815290516000926001600160a01b031691637df1f1b9916004808301926020929190829003018186803b158015611e4557600080fd5b505afa158015611e59573d6000803e3d6000fd5b505050506040513d601f19601f82011682018060405250810190611e7d9190614d7f565b6101c554909150611ea290611e9a906001600160a01b0316612fe1565b30838a612fec565b806001600160a01b03167f7411b87a3c039bdfd8f3510b21e8bd0736265f53513735e1f4aa7b4f306b728d88604051611edb9190615353565b60405180910390a26005860154600787015430907f42a55d7508b1c40b53524cf7cc2558b0f6bc7c4f262a3e929b65cd48bec2b68790611f1b8782612bbb565b60088b0154604051611f34939260009081039291615df0565b60405180910390a38554600287015430907f42a55d7508b1c40b53524cf7cc2558b0f6bc7c4f262a3e929b65cd48bec2b68790611f718682612bbb565b60038b0154604051611f8a939260009081039291615df0565b60405180910390a350505050505050565b600081565b60975460ff1615611fc35760405162461bcd60e51b815260040161075b90615883565b61079f613c9d565b600054610100900460ff1680611fe45750611fe4612d05565b80611ff2575060005460ff16155b61200e5760405162461bcd60e51b815260040161075b90615a0b565b600054610100900460ff16158015612039576000805460ff1961ff0019909116610100171660011790555b6001600160a01b038d161580159061205957506001600160a01b038c1615155b6120755760405162461bcd60e51b815260040161075b90615ba8565b8c6101c560006101000a8154816001600160a01b0302191690836001600160a01b0316021790555060006120c76101c560009054906101000a90046001600160a01b03166001600160a01b03166142b5565b90506001600160a01b0381166120ef5760405162461bcd60e51b815260040161075b90615565565b6120f8816107a1565b61210185613a97565b6121108d8c8c8c8c8c8c612ebc565b426101c4556101c68c9055826121d457612128614c1f565b60408051602081019091526101c554819061214b906001600160a01b03166142cd565b6001600160a01b0316639b56d7886040518163ffffffff1660e01b815260040160206040518083038186803b15801561218357600080fd5b505afa158015612197573d6000803e3d6000fd5b505050506040513d601f19601f820116820180604052508101906121bb919061508d565b905290506121cd6101c8826001614c3d565b50506121e3565b6121e16101c88585614c88565b505b6121fb600080516020615eec8339815191528e610d90565b612213600080516020615eec83398151915282610d90565b612239600080516020615eec833981519152600080516020615e6c833981519152612ea7565b61225f600080516020615ecc833981519152600080516020615e6c833981519152612ea7565b6101c55461228e90600080516020615ecc83398151915290612289906001600160a01b03166142d8565b610d90565b6101c5546000906122a7906001600160a01b0316612fe1565b6001600160a01b031663095ea7b3306000196040518363ffffffff1660e01b81526004016122d6929190615237565b602060405180830381600087803b1580156122f057600080fd5b505af1158015612304573d6000803e3d6000fd5b505050506040513d601f19601f820116820180604052508101906123289190614f58565b9050806123475760405162461bcd60e51b815260040161075b9061546e565b5050801561235b576000805461ff00191690555b50505050505050505050505050565b61237261254c565b61238e5760405162461bcd60e51b815260040161075b90615c6b565b6101c7805460ff1916600117905560405130907f90d9b09c68a7e1312ce22801552b47265d77db9496383d51374b4058545447d790600090a2565b60c954600090819060ff166123f05760405162461bcd60e51b815260040161075b90615c08565b60c9805460ff1916905560975460ff161561241d5760405162461bcd60e51b815260040161075b90615883565b612425614be7565b6101c55461243b906001600160a01b03166135da565b6001600160a01b0316638c7a63ae856040518263ffffffff1660e01b81526004016124669190615353565b60a06040518083038186803b15801561247e57600080fd5b505afa158015612492573d6000803e3d6000fd5b505050506040513d601f19601f820116820180604052508101906124b69190615031565b905060006124c782602001516135e5565b90506000806124d683856139c2565b909250905060006124e78383613c78565b90506124f584868a84613695565b96509650505050505060c9805460ff191660011790559092909150565b61252a600080516020615eec83398151915233611a34565b6125465760405162461bcd60e51b815260040161075b9061599b565b6101ca55565b6000612568600080516020615e6c833981519152610516613028565b905090565b612585600080516020615eec83398151915233611a34565b6125a15760405162461bcd60e51b815260040161075b9061599b565b6101cb6000815481106125b057fe5b90600052602060002090600c02016005016001015460001480156125f757506101cb6000815481106125de57fe5b90600052602060002090600c0201600001600101546000145b6126135760405162461bcd60e51b815260040161075b90615bd9565b6126206101c88383614c88565b505050565b61262d61254c565b6126495760405162461bcd60e51b815260040161075b90615c6b565b6101c7805460ff1916905560405130907f7184039938737267597232635b117c924371ac877d4329f2dfa5ca674c5cc4a590600090a2565b61268961254c565b6126a55760405162461bcd60e51b815260040161075b90615c6b565b6101c354604051632fe2f3b960e21b81526001600160a01b039091169063bf8bcee490610d0e908490600401615353565b606481565b60975460ff16156126fe5760405162461bcd60e51b815260040161075b90615883565b6000811161271e5760405162461bcd60e51b815260040161075b90615b77565b612727816142e3565b610d41613c9d565b6101c65481565b600081815260656020526040812061072190614344565b60405163cde8884560e01b815260009073DabCc280ab22ca12332CeFBFFb26Abb22393EC1c9063cde88845906106ce9086908690600401615e0b565b6101c45481565b6000828152606560205260409020600201546127ae90610516613028565b610fa95760405162461bcd60e51b815260040161075b906157db565b6127d2614cc3565b6127db826135e5565b6040805160a081018252825481526001830154602082015260028301549181019190915260038201546060820152600490910154608082015292915050565b60008060005b6101cb54811015612861576128576101cb828154811061283c57fe5b600091825260209091206006600c9092020101548390613c78565b9150600101612820565b50905090565b6101c8818154811061287557fe5b600091825260209091200154905081565b60c95460009060ff166128ab5760405162461bcd60e51b815260040161075b90615c08565b60c9805460ff1916905560975460ff16156128d85760405162461bcd60e51b815260040161075b90615883565b60006128e3846135e5565b905080600401546000146129095760405162461bcd60e51b815260040161075b9061567d565b600083116129295760405162461bcd60e51b815260040161075b90615856565b6101c55461293f906001600160a01b03166142cd565b6001600160a01b0316631852f200336101c86040518363ffffffff1660e01b815260040161296e9291906151dc565b60206040518083038186803b15801561298657600080fd5b505afa15801561299a573d6000803e3d6000fd5b505050506040513d601f19601f820116820180604052508101906129be9190614f58565b6129da5760405162461bcd60e51b815260040161075b9061596c565b6101ca5442116129fc5760405162461bcd60e51b815260040161075b90615ab9565b8054612a079061434f565b15612a4257612a26600080516020615ecc833981519152610516613028565b612a425760405162461bcd60e51b815260040161075b906154ce565b6001810154612a519084613c78565b6001820155612a5e614cf2565b5060408051808201909152838152602081018590526101c554612a89906001600160a01b03166135da565b6001600160a01b0316635be57b6a82336040518363ffffffff1660e01b8152600401612ab6929190615d3c565b602060405180830381600087803b158015612ad057600080fd5b505af1158015612ae4573d6000803e3d6000fd5b505050506040513d601f19601f82011682018060405250810190612b08919061508d565b6101c554909350612b2d90612b25906001600160a01b0316612fe1565b333087612fec565b8285336001600160a01b03167fcb3ef4109dcd006671348924f00aac8398190a5ff283d6e470d74581513e103687604051612b689190615353565b60405180910390a4505060c9805460ff1916600117905592915050565b600080516020615e6c83398151915281565b600080516020615eac83398151915281565b600080516020615eec83398151915281565b600061071e83836040518060400160405280601e81526020017f536166654d6174683a207375627472616374696f6e206f766572666c6f770000815250614365565b612c05613a5d565b15612c225760405162461bcd60e51b815260040161075b906157ae565b6101cb8181548110612c3057fe5b90600052602060002090600c020160050160040154600014612c645760405162461bcd60e51b815260040161075b90615cb6565b6101c554600090612c8f90612c81906001600160a01b0316614391565b612c896139be565b90613c78565b9050806101cb8381548110612ca057fe5b600091825260209091206009600c9092020101556101cb80543091600080516020615e8c8339815191529185908110612cd557fe5b90600052602060002090600c02016005016000015483604051612cf9929190615e0b565b60405180910390a25050565b303b1590565b600054610100900460ff1680612d245750612d24612d05565b80612d32575060005460ff16155b612d4e5760405162461bcd60e51b815260040161075b90615a0b565b600054610100900460ff16158015611476576000805460ff1961ff0019909116610100171660011790558015610d41576000805461ff001916905550565b600054610100900460ff1680612da55750612da5612d05565b80612db3575060005460ff16155b612dcf5760405162461bcd60e51b815260040161075b90615a0b565b600054610100900460ff16158015612dfa576000805460ff1961ff0019909116610100171660011790555b6097805460ff191690558015610d41576000805461ff001916905550565b600054610100900460ff1680612e315750612e31612d05565b80612e3f575060005460ff16155b612e5b5760405162461bcd60e51b815260040161075b90615a0b565b600054610100900460ff16158015612e86576000805460ff1961ff0019909116610100171660011790555b60c9805460ff191660011790558015610d41576000805461ff001916905550565b60009182526065602052604090912060020155565b6101c554600090612ed5906001600160a01b0316614411565b6001600160a01b03166301b215516040518163ffffffff1660e01b8152600401602060405180830381600087803b158015612f0f57600080fd5b505af1158015612f23573d6000803e3d6000fd5b505050506040513d601f19601f82011682018060405250810190612f479190614d7f565b6101c380546001600160a01b0319166001600160a01b0383811691909117918290556101c55460405163bb4a250960e01b81529394509181169263bb4a250992612fa592169030908d908d908d908d908d908d908d9060040161526a565b600060405180830381600087803b158015612fbf57600080fd5b505af1158015612fd3573d6000803e3d6000fd5b505050505050505050505050565b600061072182613a45565b60408051808201909152601881527704661696c656420746f207472616e736665722045524332360441b6020820152610d3c858585858561441c565b3390565b600082815260656020526040902061304490826144f1565b156108cd57613051613028565b6001600160a01b0316816001600160a01b0316837f2f8788117e7eff1d82e926ec794901d17c78024a50270940304540a733656f0d60405160405180910390a45050565b60006001600160a01b03821663b93f9b0a60065b6040518263ffffffff1660e01b81526004016130c59190615353565b60206040518083038186803b1580156130dd57600080fd5b505afa1580156130f1573d6000803e3d6000fd5b505050506040513d601f19601f820116820180604052508101906107219190614d7f565b6126208383836040518060400160405280601881526020017704661696c656420746f207472616e736665722045524332360441b815250614506565b600082815260656020526040902061316990826145d8565b156108cd57613176613028565b6001600160a01b0316816001600160a01b0316837ff6391f5c32d9c69d2a47ea670b442974b53935d1edc7fd64eb21e047a839171b60405160405180910390a45050565b60975460ff166131dc5760405162461bcd60e51b815260040161075b90615440565b6097805460ff191690557f5db9ee0a495bf2e6ff9c91a7834c1ba4fdd244a5e8aa4e537bd38aeae4b073aa61320f613028565b60405161321c9190615187565b60405180910390a1565b6101cb54600090613238906001612bbb565b905060006101cb828154811061324a57fe5b90600052602060002090600c0201600501600401541161327c5760405162461bcd60e51b815260040161075b906156dc565b6101cb818154811061328a57fe5b90600052602060002090600c0201600001600401546000146132be5760405162461bcd60e51b815260040161075b90615a59565b600061330e6101cb83815481106132d157fe5b90600052602060002090600c0201600001600101546101cb84815481106132f457fe5b600091825260209091206006600c90920201015490613c78565b6101c3546040805163a4d66daf60e01b815290519293506001600160a01b03909116916327ea6f2b9161342c916133a0918691869163a4d66daf916004808301926020929190829003018186803b15801561336857600080fd5b505afa15801561337c573d6000803e3d6000fd5b505050506040513d601f19601f82011682018060405250810190612c89919061508d565b6101c360009054906101000a90046001600160a01b03166001600160a01b0316631a861d266040518163ffffffff1660e01b815260040160206040518083038186803b1580156133ef57600080fd5b505afa158015613403573d6000803e3d6000fd5b505050506040513d601f19601f82011682018060405250810190613427919061508d565b6145ed565b6040518263ffffffff1660e01b81526004016134489190615353565b600060405180830381600087803b15801561346257600080fd5b505af1158015613476573d6000803e3d6000fd5b50506101c5546000925061349391506001600160a01b0316614391565b90506134a181612c896139be565b6101cb84815481106134af57fe5b600091825260209091206004600c9092020101556134cf81612c896139be565b6101cb84815481106134dd57fe5b600091825260209091206009600c9092020101556101cb80543091600080516020615e8c833981519152918690811061351257fe5b90600052602060002090600c0201600001600001546101cb868154811061353557fe5b90600052602060002090600c020160000160040154604051613558929190615e0b565b60405180910390a2306001600160a01b0316600080516020615e8c8339815191526101cb858154811061358757fe5b90600052602060002090600c0201600501600001546101cb86815481106135aa57fe5b90600052602060002090600c0201600501600401546040516135cd929190615e0b565b60405180910390a2505050565b600061072182614603565b6000808211801561360457506101cb5461360090600261461b565b8211155b6136205760405162461bcd60e51b815260040161075b90615713565b600061364c600161364660026136406136398883614655565b8890613c78565b90614692565b90612bbb565b905060006101cb828154811061365e57fe5b600091825260208220600c90910201915061367a856002614655565b60011461368a578160050161368c565b815b95945050505050565b6101c55460009081906136b0906001600160a01b03166135da565b6001600160a01b031663430c208133866040518363ffffffff1660e01b81526004016136dd929190615237565b60206040518083038186803b1580156136f557600080fd5b505afa158015613709573d6000803e3d6000fd5b505050506040513d601f19601f8201168201806040525081019061372d9190614f58565b6137495760405162461bcd60e51b815260040161075b90615b1e565b6101c55461375f906001600160a01b03166142cd565b6001600160a01b0316631852f200336101c86040518363ffffffff1660e01b815260040161378e9291906151dc565b60206040518083038186803b1580156137a657600080fd5b505afa1580156137ba573d6000803e3d6000fd5b505050506040513d601f19601f820116820180604052508101906137de9190614f58565b6137fa5760405162461bcd60e51b815260040161075b9061596c565b6000831161381a5760405162461bcd60e51b815260040161075b90615ae7565b60008061382788886139c2565b909250905060006138388383613c78565b90508086111561385a5760405162461bcd60e51b815260040161075b90615a8a565b88600401546138676139be565b116138845760405162461bcd60e51b815260040161075b9061582b565b60048901546138a257600189015461389c9087612bbb565b60018a01555b60006138ae84886145ed565b905060006138c0846134278a85612bbb565b6101c5549091506138d9906001600160a01b03166135da565b6001600160a01b031663b81922058a83856040518463ffffffff1660e01b815260040161390893929190615e19565b600060405180830381600087803b15801561392257600080fd5b505af1158015613936573d6000803e3d6000fd5b50506101c554613965925061395491506001600160a01b0316612fe1565b30336139608587613c78565b612fec565b888a60200151336001600160a01b03167f92f2787b755dae547f1701582fe74c7abf277ec14db316dd01abc69cacf7a25985856040516139a6929190615e0b565b60405180910390a4909a909950975050505050505050565b4290565b60008060006139d985600201548560400151610692565b905060006139ef86600301548660400151610692565b9050613a08856080015182612bbb90919063ffffffff16565b9350613a21856060015183612bbb90919063ffffffff16565b925050505b9250929050565b60006001600160a01b03821663b93f9b0a600b6130a9565b60006001600160a01b03821663b93f9b0a60056130a9565b6101cb80546000918291613a72906001612bbb565b81548110613a7c57fe5b90600052602060002090600c02016000016004015411905090565b6101cb5460058110613abb5760405162461bcd60e51b815260040161075b9061549e565b6040805161012081019091526101cb90806080810180613ae16001612c8988600261461b565b815260200160008152602001613af860018061274d565b815260200160008152602001600081525081526020016040518060a00160405280613b326002612c8960028961461b90919063ffffffff16565b815260200160008152602001613b4960018061274d565b81526000602080830182905260409283018290529284528383018190529281018390528454600181810187559584529282902084518051600c90950290910193845580830151958401959095558481015160028401556060808601516003850155608095860151600485015584830151805160058601559283015160068501558282015160078501558281015160088501559190940151600983015592820151600a820155910151600b90910155506101ca55565b60975460ff1615613c215760405162461bcd60e51b815260040161075b90615883565b6097805460ff191660011790557f62e78cea01bee320cd4e420270b5ea74000d11b0c9f74754ebdbfc544b05a25861320f613028565b600061071e83836146d4565b600061071e836001600160a01b038416614719565b60008282018381101561071e5760405162461bcd60e51b815260040161075b9061560f565b613ca5613a5d565b613cc15760405162461bcd60e51b815260040161075b90615c3f565b6101c35460408051630735c92b60e21b815290516000926001600160a01b031691631cd724ac916004808301926020929190829003018186803b158015613d0757600080fd5b505afa158015613d1b573d6000803e3d6000fd5b505050506040513d601f19601f82011682018060405250810190613d3f919061508d565b905060008060006101c360009054906101000a90046001600160a01b03166001600160a01b031663a6a25e886040518163ffffffff1660e01b8152600401606060405180830381600087803b158015613d9757600080fd5b505af1158015613dab573d6000803e3d6000fd5b505050506040513d601f19601f82011682018060405250810190613dcf91906150a5565b925092509250613e60846101c360009054906101000a90046001600160a01b03166001600160a01b0316631cd724ac6040518163ffffffff1660e01b815260040160206040518083038186803b158015613e2857600080fd5b505afa158015613e3c573d6000803e3d6000fd5b505050506040513d601f19601f82011682018060405250810190613646919061508d565b6101cb5490945060609067ffffffffffffffff81118015613e8057600080fd5b50604051908082528060200260200182016040528015613eaa578160200160208202803683370190505b50905060005b6101cb5481101561408e57600073DabCc280ab22ca12332CeFBFFb26Abb22393EC1c63cee38ee4886101cb8581548110613ee657fe5b90600052602060002090600c0201600b01546101c9546040518463ffffffff1660e01b8152600401613f1a93929190615e19565b60206040518083038186803b158015613f3257600080fd5b505af4158015613f46573d6000803e3d6000fd5b505050506040513d601f19601f82011682018060405250810190613f6a919061508d565b905073DabCc280ab22ca12332CeFBFFb26Abb22393EC1c63cee38ee4856101cb8581548110613f9557fe5b90600052602060002090600c0201600b01546101c9546040518463ffffffff1660e01b8152600401613fc993929190615e19565b60206040518083038186803b158015613fe157600080fd5b505af4158015613ff5573d6000803e3d6000fd5b505050506040513d601f19601f82011682018060405250810190614019919061508d565b83838151811061402557fe5b602002602001018181525050614063816101cb848154811061404357fe5b90600052602060002090600c0201600a0154613c7890919063ffffffff16565b6101cb838154811061407157fe5b60009182526020909120600a600c90920201015550600101613eb0565b50600083118061409e5750600082115b15610d3c576101c3546000906140c7906001600160a01b0316856140c28689613c78565b614731565b905060005b6101cb548110156141745761411c8382815181106140e657fe5b60200260200101516101cb83815481106140fc57fe5b90600052602060002090600c0201600b0154612bbb90919063ffffffff16565b6101cb828154811061412a57fe5b90600052602060002090600c0201600b018190555061416883828151811061414e57fe5b60200260200101516101c954612bbb90919063ffffffff16565b6101c9556001016140cc565b506101c55461418b906001600160a01b031661493a565b6001600160a01b03166328fc33c7856040518263ffffffff1660e01b81526004016141b69190615353565b600060405180830381600087803b1580156141d057600080fd5b505af11580156141e4573d6000803e3d6000fd5b50506101c35460408051637df1f1b960e01b815290513094506001600160a01b039092169250637df1f1b9916004808301926020929190829003018186803b15801561422f57600080fd5b505afa158015614243573d6000803e3d6000fd5b505050506040513d601f19601f820116820180604052508101906142679190614d7f565b6001600160a01b03167fd1055dc2c2a003a83dfacb1c38db776eab5ef89d77a8f05a3512e8cf57f953ce868689866040516142a59493929190615df0565b60405180910390a3505050505050565b60006001600160a01b03821663b93f9b0a60076130a9565b600061072182614945565b60006107218261495d565b6101c554610d41906142fd906001600160a01b0316612fe1565b6101c35460408051808201909152601981527811985a5b1959081d1bc818dbdb1b1958dd081c185e5b595b9d603a1b602082015233916001600160a01b031690859061441c565b600061072182614975565b600061435c826002614655565b60011492915050565b600081848411156143895760405162461bcd60e51b815260040161075b919061535c565b505050900390565b60006001600160a01b03821663fc56365860075b6040518263ffffffff1660e01b81526004016143c19190615353565b60206040518083038186803b1580156143d957600080fd5b505afa1580156143ed573d6000803e3d6000fd5b505050506040513d601f19601f82011682018060405250810190610721919061508d565b600061072182614979565b6001600160a01b0383166144425760405162461bcd60e51b815260040161075b9061552e565b6040516323b872dd60e01b81526000906001600160a01b038716906323b872dd90614475908890889088906004016152ba565b602060405180830381600087803b15801561448f57600080fd5b505af11580156144a3573d6000803e3d6000fd5b505050506040513d601f19601f820116820180604052508101906144c79190614f58565b905081816144e85760405162461bcd60e51b815260040161075b919061535c565b50505050505050565b600061071e836001600160a01b038416614991565b6001600160a01b03831661452c5760405162461bcd60e51b815260040161075b9061552e565b60405163a9059cbb60e01b81526000906001600160a01b0386169063a9059cbb9061455d9087908790600401615237565b602060405180830381600087803b15801561457757600080fd5b505af115801561458b573d6000803e3d6000fd5b505050506040513d601f19601f820116820180604052508101906145af9190614f58565b905081816145d05760405162461bcd60e51b815260040161075b919061535c565b505050505050565b600061071e836001600160a01b0384166149db565b60008183106145fc578161071e565b5090919050565b60006001600160a01b03821663b93f9b0a600c6130a9565b60008261462a57506000610721565b8282028284828161463757fe5b041461071e5760405162461bcd60e51b815260040161075b906159ca565b600061071e838360405180604001604052806018815260200177536166654d6174683a206d6f64756c6f206279207a65726f60401b815250614aa1565b600061071e83836040518060400160405280601a81526020017f536166654d6174683a206469766973696f6e206279207a65726f000000000000815250614ad5565b815460009082106146f75760405162461bcd60e51b815260040161075b906153af565b82600001828154811061470657fe5b9060005260206000200154905092915050565b60009081526001919091016020526040902054151590565b6101c5546000906147919061474e906001600160a01b0316612fe1565b853061475a8688613c78565b6040518060400160405280601981526020017811985a5b1959081d1bc818dbdb1b1958dd081c185e5b595b9d603a1b81525061441c565b6101c5546000906147b6906147ae906001600160a01b0316614b0c565b606490614692565b90506147c0614cc3565b6101c9546101c3546101c6546040516385bd324d60e01b815273DabCc280ab22ca12332CeFBFFb26Abb22393EC1c936385bd324d9361481a936101cb938c938c938b9391926001600160a01b03909116919060040161530f565b60a06040518083038186803b15801561483257600080fd5b505af4158015614846573d6000803e3d6000fd5b505050506040513d601f19601f8201168201806040525081019061486a9190614fe0565b805160208201516101c9546101c35460405163060f0a6d60e31b81529495506149269473DabCc280ab22ca12332CeFBFFb26Abb22393EC1c946330785368946148cb946101cb94929391928b926001600160a01b03909116906004016152de565b60206040518083038186803b1580156148e357600080fd5b505af41580156148f7573d6000803e3d6000fd5b505050506040513d601f19601f8201168201806040525081019061491b919061508d565b604083015190613c78565b925061493183614b24565b50509392505050565b600061072182614bcf565b60006001600160a01b03821663b93f9b0a60136130a9565b60006001600160a01b03821663b93f9b0a600e6130a9565b5490565b60006001600160a01b03821663b93f9b0a60026130a9565b600061499d8383614719565b6149d357508154600181810184556000848152602080822090930184905584548482528286019093526040902091909155610721565b506000610721565b60008181526001830160205260408120548015614a975783546000198083019190810190600090879083908110614a0e57fe5b9060005260206000200154905080876000018481548110614a2b57fe5b600091825260208083209091019290925582815260018981019092526040902090840190558654879080614a5b57fe5b60019003818190600052602060002001600090559055866001016000878152602001908152602001600020600090556001945050505050610721565b6000915050610721565b60008183614ac25760405162461bcd60e51b815260040161075b919061535c565b50828481614acc57fe5b06949350505050565b60008183614af65760405162461bcd60e51b815260040161075b919061535c565b506000838581614b0257fe5b0495945050505050565b60006001600160a01b03821663fc56365860036143a5565b306001600160a01b03167ff3583f178a8d4f8888c3683f8e948faf9b6eb701c4f1fab265a6ecad1a1ddebb82604051614b5d9190615353565b60405180910390a26101c554610d4190614b7f906001600160a01b0316612fe1565b6101c5543090614b97906001600160a01b0316613095565b84604051806040016040528060198152602001784661696c656420746f2073656e6420746f207265736572766560381b81525061441c565b60006001600160a01b03821663b93f9b0a60146130a9565b6040518060a0016040528060006001600160a01b03168152602001600081526020016000815260200160008152602001600081525090565b60405180602001604052806001906020820280368337509192915050565b828054828255906000526020600020908101928215614c78579160200282015b82811115614c78578251825591602001919060010190614c5d565b50614c84929150614d0c565b5090565b828054828255906000526020600020908101928215614c78579160200282015b82811115614c78578235825591602001919060010190614ca8565b6040518060a0016040528060008152602001600081526020016000815260200160008152602001600081525090565b604051806040016040528060008152602001600081525090565b5b80821115614c845760008155600101614d0d565b60008083601f840112614d32578182fd5b50813567ffffffffffffffff811115614d49578182fd5b6020830191508360208083028501011115613a2657600080fd5b600060208284031215614d74578081fd5b813561071e81615e56565b600060208284031215614d90578081fd5b815161071e81615e56565b6000806000806000806000806000806000806101608d8f031215614dbd578788fd5b614dc78d35615e56565b8c359b50614dd860208e0135615e56565b60208d01359a5060408d0135995060608d0135985060808d0135975060a08d0135965060c08d0135955060e08d013594506101008d013593506101208d0135925067ffffffffffffffff6101408e01351115614e32578081fd5b614e438e6101408f01358f01614d21565b81935080925050509295989b509295989b509295989b565b600080600080600080600060e0888a031215614e75578283fd5b8735614e8081615e56565b9960208901359950604089013598606081013598506080810135975060a0810135965060c00135945092505050565b60008060208385031215614ec1578182fd5b823567ffffffffffffffff811115614ed7578283fd5b614ee385828601614d21565b90969095509350505050565b60008060008060408587031215614f04578384fd5b843567ffffffffffffffff80821115614f1b578586fd5b614f2788838901614d21565b90965094506020870135915080821115614f3f578384fd5b50614f4c87828801614d21565b95989497509550505050565b600060208284031215614f69578081fd5b8151801515811461071e578182fd5b600060208284031215614f89578081fd5b5035919050565b60008060408385031215614fa2578182fd5b823591506020830135614fb481615e56565b809150509250929050565b60008060408385031215614fd1578182fd5b50508035926020909101359150565b600060a08284031215614ff1578081fd5b614ffb60a0615e2f565b82518152602083015160208201526040830151604082015260608301516060820152608083015160808201528091505092915050565b600060a08284031215615042578081fd5b61504c60a0615e2f565b825161505781615e56565b80825250602083015160208201526040830151604082015260608301516060820152608083015160808201528091505092915050565b60006020828403121561509e578081fd5b5051919050565b6000806000606084860312156150b9578081fd5b8351925060208401519150604084015190509250925092565b60008060008060008060c087890312156150ea578384fd5b863595506020870135945060408701359350606087013560ff8116811461510f578283fd5b9598949750929560808101359460a0909101359350915050565b80518252602081015160208301526040810151604083015260608101516060830152608081015160808301525050565b8054825260018101546020830152600281015460408301526003810154606083015260040154608090910152565b6001600160a01b0391909116815260200190565b6001600160a01b0397881681529590961660208601526040850193909352606084019190915260ff16608083015260a082015260c081019190915260e00190565b6001600160a01b0383168152604060208083018290528354918301829052600084815281812090929091906060850190845b8181101561522a5784548352600194850194928401920161520e565b5090979650505050505050565b6001600160a01b03929092168252602082015260400190565b6001600160a01b0392831681529116602082015260400190565b6001600160a01b03998a16815297891660208901529590971660408701526060860193909352608085019190915260a084015260c083015260e08201929092526101008101919091526101200190565b6001600160a01b039384168152919092166020820152604081019190915260600190565b95865260208601949094526040850192909252606084015260808301526001600160a01b031660a082015260c00190565b96875260208701959095526040860193909352606085019190915260808401526001600160a01b031660a083015260c082015260e00190565b901515815260200190565b90815260200190565b6000602080835283518082850152825b818110156153885785810183015185820160400152820161536c565b818111156153995783604083870101525b50601f01601f1916929092016040019392505050565b60208082526022908201527f456e756d657261626c655365743a20696e646578206f7574206f6620626f756e604082015261647360f01b606082015260800190565b6020808252602f908201527f416363657373436f6e74726f6c3a2073656e646572206d75737420626520616e60408201526e0818591b5a5b881d1bc819dc985b9d608a1b606082015260800190565b60208082526014908201527314185d5cd8589b194e881b9bdd081c185d5cd95960621b604082015260600190565b6020808252601690820152754661696c656420746f20617070726f7665205553444360501b604082015260600190565b60208082526016908201527543616e6e6f7420657863656564203520736c6963657360501b604082015260600190565b6020808252600f908201526e5265712053454e494f525f524f4c4560881b604082015260600190565b6020808252601b908201527f496e73756666696369656e742066756e647320696e20736c6963650000000000604082015260600190565b6020808252601a908201527f43616e27742073656e6420746f207a65726f2061646472657373000000000000604082015260600190565b6020808252600d908201526c13dddb995c881a5b9d985b1a59609a1b604082015260600190565b6020808252602c908201527f4d75737420686176652070617573657220726f6c6520746f20706572666f726d60408201526b103a3434b99030b1ba34b7b760a11b606082015260800190565b6020808252601a908201527f4372656469746c696e652063616e6e6f7420626520656d707479000000000000604082015260600190565b6020808252601b908201527f536166654d6174683a206164646974696f6e206f766572666c6f770000000000604082015260600190565b6020808252601d908201527f4265796f6e64207072696e636970616c20677261636520706572696f64000000604082015260600190565b6020808252600e908201526d151c985b98da19481b1bd8dad95960921b604082015260600190565b6020808252601a908201527f43757272656e7420736c696365207374696c6c20616374697665000000000000604082015260600190565b6020808252601d908201527f4a756e696f72207472616e636865206d757374206265206c6f636b6564000000604082015260600190565b602080825260139082015272556e737570706f72746564207472616e63686560681b604082015260600190565b6020808252601e908201527f546f6b656e7349647320616e6420416d6f756e7473206d69736d617463680000604082015260600190565b6020808252601a908201527f426f72726f776572206d757374206e6f7420626520656d707479000000000000604082015260600190565b602080825260139082015272141bdbdb08185b1c9958591e481b1bd8dad959606a1b604082015260600190565b60208082526030908201527f416363657373436f6e74726f6c3a2073656e646572206d75737420626520616e60408201526f2061646d696e20746f207265766f6b6560801b606082015260800190565b602080825260119082015270151c985b98da19481a5cc81b1bd8dad959607a1b604082015260600190565b6020808252601390820152724d757374206465706f736974203e207a65726f60681b604082015260600190565b60208082526010908201526f14185d5cd8589b194e881c185d5cd95960821b604082015260600190565b60208082526016908201527514185e5b595b9d081c195c9a5bd9081a5b9d985b1a5960521b604082015260600190565b6020808252601290820152714372656469746c696e65206973206c61746560701b604082015260600190565b6020808252818101527f4f776e65722063616e6e6f7420626520746865207a65726f2061646472657373604082015260600190565b602080825260149082015273111c985dd91bdddb9cc8185c99481c185d5cd95960621b604082015260600190565b6020808252601590820152741059191c995cdcc81b9bdd0819dbcb5b1a5cdd1959605a1b604082015260600190565b6020808252601590820152744d7573742068617665206c6f636b657220726f6c6560581b604082015260600190565b60208082526021908201527f536166654d6174683a206d756c7469706c69636174696f6e206f766572666c6f6040820152607760f81b606082015260800190565b6020808252602e908201527f436f6e747261637420696e7374616e63652068617320616c726561647920626560408201526d195b881a5b9a5d1a585b1a5e995960921b606082015260800190565b602080825260179082015276131bd8dac818d85b9b9bdd08189948195e1d195b991959604a1b604082015260600190565b602080825260159082015274125b9d985b1a59081c995919595b48185b5bdd5b9d605a1b604082015260600190565b6020808252601490820152734e6f74206f70656e20666f722066756e64696e6760601b604082015260600190565b6020808252601c908201527f4d757374207769746864726177206d6f7265207468616e207a65726f00000000604082015260600190565b6020808252600f908201526e2737ba103a37b5b2b71037bbb732b960891b604082015260600190565b6020808252601690820152755465726d206d757374206e6f7420626520656d70747960501b604082015260600190565b6020808252601790820152764d75737420706179206d6f7265207468616e207a65726f60481b604082015260600190565b60208082526017908201527610dbdb999a59cbd89bdc9c9bddd95c881a5b9d985b1a59604a1b604082015260600190565b6020808252601590820152744d757374206e6f7420686176652062616c616e636560581b604082015260600190565b6020808252601f908201527f5265656e7472616e637947756172643a207265656e7472616e742063616c6c00604082015260600190565b602080825260129082015271141bdbdb081a5cc81b9bdd081b1bd8dad95960721b604082015260600190565b6020808252602b908201527f4d75737420686176652061646d696e20726f6c6520746f20706572666f726d2060408201526a3a3434b99030b1ba34b7b760a91b606082015260800190565b6020808252601d908201527f4a756e696f72207472616e63686520616c7265616479206c6f636b6564000000604082015260600190565b6020808252602f908201527f416363657373436f6e74726f6c3a2063616e206f6e6c792072656e6f756e636560408201526e103937b632b9903337b91039b2b63360891b606082015260800190565b82518152602092830151928101929092526001600160a01b0316604082015260600190565b60a081016107218284615129565b6101808101615d7e8287615129565b615d8b60a0830186615129565b610140820193909352610160015292915050565b6102408101615dae8286615129565b8360a0830152615dc160c0830184615159565b615dd2610160830160058501615159565b600a830154610200830152600b830154610220830152949350505050565b93845260208401929092526040830152606082015260800190565b918252602082015260400190565b9283526020830191909152604082015260600190565b60405181810167ffffffffffffffff81118282101715615e4e57600080fd5b604052919050565b6001600160a01b0381168114610d4157600080fdfeb19546dff01e856fb3f010c267a7b1c60363cf8a4664e21cc89c26224620214ef839b119f21fb055e13aebac51bca6b308f52ec2d8db8306ce4d092d964e5bd065d7a28e3265b37a6474929f336521b332c1681b933f6cb9f3376673440d862a956624bfbe09c0e98e645d61eba0de4ce88e8cceabdb00fead208d19a8e1209baf9a8bb3cbd6b84fbccefa71ff73e26e798553c6914585a84886212a46a90279a26469706673582212206734d8970bb50091c68032a6270e2929188dce8fa48aad6a30c23cf570f5015164736f6c634300060c0033",
  "deployedBytecode": "0x608060405234801561001057600080fd5b50600436106103195760003560e01c806380b65431116101a9578063bf8bcee4116100ef578063d547741f1161009d578063d547741f14610619578063d972e8ad1461062c578063dd0ec2411461064c578063e2a657f914610654578063e2bbb15814610667578063e58378bb1461067a578063e63ab1e914610682578063f36213671461068a57610319565b8063bf8bcee4146105b5578063bfaa8cca146105c8578063c290d691146105d0578063c77d5698146105e3578063ca15c873146105eb578063cde88845146105fe578063cf09e0d01461061157610319565b8063a6a25e8811610157578063a6a25e8814610549578063a8deac0e14610551578063a8f9c4fe14610564578063aa2a7c4c1461056c578063ae6c857a1461057f578063b6db75a014610592578063b9317d861461059a578063bf6c87c7146105ad57610319565b806380b65431146104ca5780638456cb59146104ed5780639010d07c146104f557806391d14854146105085780639d1105301461051b578063a079a4dd1461052e578063a217fddf1461054157610319565b8063441a3e701161026e57806356ce15601161021c57806356ce1560146104745780635c975abb146104875780635eb185a21461048f57806368dcfdc01461049757806374f0314f1461049f57806378bcd604146104a757806379502c55146104ba5780637976323d146104c257610319565b8063441a3e701461040057806344c08f231461042157806347195e13146104295780634d02fe6f1461043e5780634f92a72814610451578063515bc32314610459578063526d81f61461046c57610319565b806327ea6f2b116102cb57806327ea6f2b146103a75780632ae754be146103ba5780632f2ff15d146103c25780633403c2fc146103d557806336568abe146103dd5780633f4ba83a146103f05780634026478e146103f857610319565b80630174b4491461031e5780630881806c14610347578063097616a3146103515780630cfb14b01461036457806317f769411461036c5780631fe032be14610381578063248a9ca314610394575b600080fd5b61033161032c366004614fbf565b610692565b60405161033e9190615353565b60405180910390f35b61034f610727565b005b61034f61035f366004614d63565b6107a1565b6103316108d1565b6103746108d8565b60405161033e9190615348565b61034f61038f366004614e5b565b6108e2565b6103316103a2366004614f78565b610ca4565b61034f6103b5366004614f78565b610cb9565b610331610d44565b61034f6103d0366004614f90565b610d56565b61034f610d9a565b61034f6103eb366004614f90565b610f71565b61034f610fb3565b61034f610ff1565b61041361040e366004614fbf565b611050565b60405161033e929190615e0b565b610331611178565b61043161117d565b60405161033e9190615187565b61041361044c366004614f78565b61118d565b61034f611273565b6103316104673660046150d2565b611369565b61034f611400565b61034f610482366004614d63565b61148a565b6103746116d8565b6103316116e1565b6103316116e8565b6103316116f4565b61034f6104b5366004614f78565b6116fb565b610431611911565b610331611921565b6104dd6104d8366004614f78565b611928565b60405161033e9493929190615d6f565b61034f6119de565b610431610503366004614fbf565b611a1c565b610374610516366004614f90565b611a34565b61034f610529366004614eef565b611a4c565b61034f61053c366004614f78565b611aae565b610331611f9b565b61034f611fa0565b61034f61055f366004614d9b565b611fcb565b61034f61236a565b61041361057a366004614f78565b6123c9565b61034f61058d366004614f78565b612512565b61037461254c565b61034f6105a8366004614eaf565b61256d565b61034f612625565b61034f6105c3366004614f78565b612681565b6103316126d6565b61034f6105de366004614f78565b6126db565b61033161272f565b6103316105f9366004614f78565b612736565b61033161060c366004614fbf565b61274d565b610331612789565b61034f610627366004614f90565b612790565b61063f61063a366004614f78565b6127ca565b60405161033e9190615d61565b61033161281a565b610331610662366004614f78565b612867565b610331610675366004614fbf565b612886565b610331612b85565b610331612b97565b610331612ba9565b604051630174b44960e01b815260009073__$07e8ed413e81d51a5dfb2d8e1b1fa75af5$__90630174b449906106ce9086908690600401615e0b565b60206040518083038186803b1580156106e657600080fd5b505af41580156106fa573d6000803e3d6000fd5b505050506040513d601f19601f8201168201806040525081019061071e919061508d565b90505b92915050565b61073f600080516020615eec83398151915233611a34565b6107645760405162461bcd60e51b815260040161075b9061599b565b60405180910390fd5b60975460ff16156107875760405162461bcd60e51b815260040161075b90615883565b6101cb5461079f9061079a906001612bbb565b612bfd565b565b600054610100900460ff16806107ba57506107ba612d05565b806107c8575060005460ff16155b6107e45760405162461bcd60e51b815260040161075b90615a0b565b600054610100900460ff1615801561080f576000805460ff1961ff0019909116610100171660011790555b6001600160a01b0382166108355760405162461bcd60e51b815260040161075b90615909565b61083d612d0b565b610845612d8c565b61084d612e18565b610865600080516020615e6c83398151915283610d90565b61087d600080516020615eac83398151915283610d90565b6108a3600080516020615eac833981519152600080516020615e6c833981519152612ea7565b6108bb600080516020615e6c83398151915280612ea7565b80156108cd576000805461ff00191690555b5050565b6101c95481565b6101c75460ff1681565b6108ea61254c565b6109065760405162461bcd60e51b815260040161075b90615c6b565b6001600160a01b03871661092c5760405162461bcd60e51b815260040161075b90615777565b836109495760405162461bcd60e51b815260040161075b906158ad565b826109665760405162461bcd60e51b815260040161075b90615b47565b6101c3546001600160a01b031661098288888888888888612ebc565b6101c3546040516001623df69160e21b031981526001600160a01b039091169073__$07e8ed413e81d51a5dfb2d8e1b1fa75af5$__9063ff0825bc906109ce9085908590600401615250565b60006040518083038186803b1580156109e657600080fd5b505af41580156109fa573d6000803e3d6000fd5b50506040516302a7e68560e21b815273__$07e8ed413e81d51a5dfb2d8e1b1fa75af5$__9250630a9f9a149150610a35908590600401615187565b60006040518083038186803b158015610a4d57600080fd5b505af4158015610a61573d6000803e3d6000fd5b505050506000826001600160a01b0316637df1f1b96040518163ffffffff1660e01b815260040160206040518083038186803b158015610aa057600080fd5b505afa158015610ab4573d6000803e3d6000fd5b505050506040513d601f19601f82011682018060405250810190610ad89190614d7f565b90506000826001600160a01b0316637df1f1b96040518163ffffffff1660e01b815260040160206040518083038186803b158015610b1557600080fd5b505afa158015610b29573d6000803e3d6000fd5b505050506040513d601f19601f82011682018060405250810190610b4d9190614d7f565b9050806001600160a01b0316826001600160a01b031614610b9857610b80600080516020615eec83398151915283612790565b610b98600080516020615eec83398151915282610d56565b6101c554600090610bb1906001600160a01b0316612fe1565b6001600160a01b03166370a08231866040518263ffffffff1660e01b8152600401610bdc9190615187565b60206040518083038186803b158015610bf457600080fd5b505afa158015610c08573d6000803e3d6000fd5b505050506040513d601f19601f82011682018060405250810190610c2c919061508d565b90508015610c56576101c554610c5690610c4e906001600160a01b0316612fe1565b868684612fec565b836001600160a01b0316856001600160a01b03167f987cdba0cba67c68d2c8aba6a4ba6545565eccfb3e2e5ff39579ffd94acaf9bb60405160405180910390a3505050505050505050505050565b60009081526065602052604090206002015490565b610cc161254c565b610cdd5760405162461bcd60e51b815260040161075b90615c6b565b6101c3546040516327ea6f2b60e01b81526001600160a01b03909116906327ea6f2b90610d0e908490600401615353565b600060405180830381600087803b158015610d2857600080fd5b505af1158015610d3c573d6000803e3d6000fd5b505050505b50565b600080516020615ecc83398151915281565b600082815260656020526040902060020154610d7490610516613028565b610d905760405162461bcd60e51b815260040161075b906153f1565b6108cd828261302c565b610da261254c565b610dbe5760405162461bcd60e51b815260040161075b90615c6b565b610dc66116d8565b610dd257610dd26119de565b6101c554600090610deb906001600160a01b0316612fe1565b6101c554909150600090610e07906001600160a01b0316613095565b90506000826001600160a01b03166370a08231306040518263ffffffff1660e01b8152600401610e379190615187565b60206040518083038186803b158015610e4f57600080fd5b505afa158015610e63573d6000803e3d6000fd5b505050506040513d601f19601f82011682018060405250810190610e87919061508d565b90508015610e9a57610e9a838383613115565b6101c3546040516370a0823160e01b81526000916001600160a01b03808716926370a0823192610ece921690600401615187565b60206040518083038186803b158015610ee657600080fd5b505afa158015610efa573d6000803e3d6000fd5b505050506040513d601f19601f82011682018060405250810190610f1e919061508d565b90508015610f40576101c354610f409085906001600160a01b03168584612fec565b60405130907f1fc1e771236d2e93bb9541cdcb4654ba0fd3fb615b48d829b7b365f03998512690600090a250505050565b610f79613028565b6001600160a01b0316816001600160a01b031614610fa95760405162461bcd60e51b815260040161075b90615ced565b6108cd8282613151565b610fcd600080516020615eac833981519152610516613028565b610fe95760405162461bcd60e51b815260040161075b9061558c565b61079f6131ba565b611009600080516020615eec83398151915233611a34565b6110255760405162461bcd60e51b815260040161075b9061599b565b60975460ff16156110485760405162461bcd60e51b815260040161075b90615883565b61079f613226565b60c954600090819060ff166110775760405162461bcd60e51b815260040161075b90615c08565b60c9805460ff1916905560975460ff16156110a45760405162461bcd60e51b815260040161075b90615883565b6110ac614be7565b6101c5546110c2906001600160a01b03166135da565b6001600160a01b0316638c7a63ae866040518263ffffffff1660e01b81526004016110ed9190615353565b60a06040518083038186803b15801561110557600080fd5b505afa158015611119573d6000803e3d6000fd5b505050506040513d601f19601f8201168201806040525081019061113d9190615031565b9050600061114e82602001516135e5565b905061115c81838888613695565b93509350505060c9805460ff1916600117905590939092509050565b600281565b6101c3546001600160a01b031681565b600080611198614be7565b6101c5546111ae906001600160a01b03166135da565b6001600160a01b0316638c7a63ae856040518263ffffffff1660e01b81526004016111d99190615353565b60a06040518083038186803b1580156111f157600080fd5b505afa158015611205573d6000803e3d6000fd5b505050506040513d601f19601f820116820180604052508101906112299190615031565b9050600061123a82602001516135e5565b905080600401546112496139be565b11156112645761125981836139c2565b93509350505061126e565b6000809350935050505b915091565b61127b61254c565b6112975760405162461bcd60e51b815260040161075b90615c6b565b6101c5546112ad906001600160a01b0316613a2d565b6101c580546001600160a01b0319166001600160a01b039283161790556101c354604080516309f254e560e31b815290519190921691634f92a72891600480830192600092919082900301818387803b15801561130957600080fd5b505af115801561131d573d6000803e3d6000fd5b50506101c5546040513393507f7c76c17de59691df2ef36af3938c91f69cd18ad27f67a54a38e38686f0b40c49925061135f916001600160a01b031690615187565b60405180910390a2565b6101c554600090611382906001600160a01b0316613a45565b6001600160a01b031663d505accf333089898989896040518863ffffffff1660e01b81526004016113b9979695949392919061519b565b600060405180830381600087803b1580156113d357600080fd5b505af11580156113e7573d6000803e3d6000fd5b505050506113f58787612886565b979650505050505050565b600054610100900460ff16806114195750611419612d05565b80611427575060005460ff16155b6114435760405162461bcd60e51b815260040161075b90615a0b565b600054610100900460ff1615801561146e576000805460ff1961ff0019909116610100171660011790555b611476612d8c565b8015610d41576000805461ff001916905550565b61149261254c565b6114ae5760405162461bcd60e51b815260040161075b90615c6b565b6001600160a01b0381166114d45760405162461bcd60e51b815260040161075b906155d8565b6101c3546101c5546001600160a01b03918216916000916114f59116612fe1565b6001600160a01b03166370a08231836040518263ffffffff1660e01b81526004016115209190615187565b60206040518083038186803b15801561153857600080fd5b505afa15801561154c573d6000803e3d6000fd5b505050506040513d601f19601f82011682018060405250810190611570919061508d565b9050801561159a576101c55461159a90611592906001600160a01b0316612fe1565b838584612fec565b6040516302a7e68560e21b815273__$07e8ed413e81d51a5dfb2d8e1b1fa75af5$__90630a9f9a14906115d1908590600401615187565b60006040518083038186803b1580156115e957600080fd5b505af41580156115fd573d6000803e3d6000fd5b50506101c380546001600160a01b0319166001600160a01b0387811691909117918290556040805163a4d66daf60e01b8152905192909116935063a4d66daf9250600480820192602092909190829003018186803b15801561165e57600080fd5b505afa158015611672573d6000803e3d6000fd5b505050506040513d601f19601f82011682018060405250810190611696919061508d565b506101c3546040516001600160a01b03918216918416907f987cdba0cba67c68d2c8aba6a4ba6545565eccfb3e2e5ff39579ffd94acaf9bb90600090a3505050565b60975460ff1690565b6101ca5481565b670de0b6b3a764000081565b6201518081565b611713600080516020615eec83398151915233611a34565b61172f5760405162461bcd60e51b815260040161075b9061599b565b60975460ff16156117525760405162461bcd60e51b815260040161075b90615883565b61175a613a5d565b6117765760405162461bcd60e51b815260040161075b906156a5565b6101c360009054906101000a90046001600160a01b03166001600160a01b03166381c17a156040518163ffffffff1660e01b815260040160206040518083038186803b1580156117c557600080fd5b505afa1580156117d9573d6000803e3d6000fd5b505050506040513d601f19601f820116820180604052508101906117fd9190614f58565b1561181a5760405162461bcd60e51b815260040161075b906158dd565b6101c360009054906101000a90046001600160a01b03166001600160a01b031663457147a76040518163ffffffff1660e01b815260040160206040518083038186803b15801561186957600080fd5b505afa15801561187d573d6000803e3d6000fd5b505050506040513d601f19601f820116820180604052508101906118a19190614f58565b6118bd5760405162461bcd60e51b815260040161075b90615646565b6118c681613a97565b6101cb5430907f3420dd9c54d6a8846edd2fb39a41c30c31e7bc95b43655dae59f47cc913b60d5906118f9906001612bbb565b6040516119069190615353565b60405180910390a250565b6101c5546001600160a01b031681565b6101cb5490565b6101cb818154811061193657fe5b90600052602060002090600c0201600091509050806000016040518060a00160405290816000820154815260200160018201548152602001600282015481526020016003820154815260200160048201548152505090806005016040518060a0016040529081600082015481526020016001820154815260200160028201548152602001600382015481526020016004820154815250509080600a01549080600b0154905084565b6119f8600080516020615eac833981519152610516613028565b611a145760405162461bcd60e51b815260040161075b9061558c565b61079f613bfe565b600082815260656020526040812061071e9083613c57565b600082815260656020526040812061071e9083613c63565b828114611a6b5760405162461bcd60e51b815260040161075b90615740565b60005b81811015610d3c57611aa4858583818110611a8557fe5b90506020020135848484818110611a9857fe5b90506020020135611050565b5050600101611a6e565b611ac6600080516020615eec83398151915233611a34565b611ae25760405162461bcd60e51b815260040161075b9061599b565b60975460ff1615611b055760405162461bcd60e51b815260040161075b90615883565b6101c75460ff1615611b295760405162461bcd60e51b815260040161075b9061593e565b611b31613a5d565b611b3d57611b3d613226565b6101cb805460009190611b51906001612bbb565b81548110611b5b57fe5b90600052602060002090600c020190506000611b8582600501600201548360050160010154610692565b9050611ba9611ba283600001600201548460000160010154610692565b8290613c78565b905080831115611bcb5760405162461bcd60e51b815260040161075b906154f7565b6101c35460405163a079a4dd60e01b81526001600160a01b039091169063a079a4dd90611bfc908690600401615353565b600060405180830381600087803b158015611c1657600080fd5b505af1158015611c2a573d6000803e3d6000fd5b505050506000611c438483612bbb90919063ffffffff16565b600784015460028501546040805160a081018252600588015481526006880154602082015280820184905260088801546060820152600988015460808201529051634ec167e960e11b81529394509192909173__$07e8ed413e81d51a5dfb2d8e1b1fa75af5$__91639d82cfd291611cc19187908a90600401615d9f565b60206040518083038186803b158015611cd957600080fd5b505af4158015611ced573d6000803e3d6000fd5b505050506040513d601f19601f82011682018060405250810190611d11919061508d565b60078601556040805160a08101825286548152600187015460208201526002870154818301526003870154606082015260048088015460808301529151634ec167e960e11b815273__$07e8ed413e81d51a5dfb2d8e1b1fa75af5$__92639d82cfd292611d8492909188918b9101615d9f565b60206040518083038186803b158015611d9c57600080fd5b505af4158015611db0573d6000803e3d6000fd5b505050506040513d601f19601f82011682018060405250810190611dd4919061508d565b6002860155600b850154611de89087613c78565b600b8601556101c954611dfb9087613c78565b6101c9556101c35460408051637df1f1b960e01b815290516000926001600160a01b031691637df1f1b9916004808301926020929190829003018186803b158015611e4557600080fd5b505afa158015611e59573d6000803e3d6000fd5b505050506040513d601f19601f82011682018060405250810190611e7d9190614d7f565b6101c554909150611ea290611e9a906001600160a01b0316612fe1565b30838a612fec565b806001600160a01b03167f7411b87a3c039bdfd8f3510b21e8bd0736265f53513735e1f4aa7b4f306b728d88604051611edb9190615353565b60405180910390a26005860154600787015430907f42a55d7508b1c40b53524cf7cc2558b0f6bc7c4f262a3e929b65cd48bec2b68790611f1b8782612bbb565b60088b0154604051611f34939260009081039291615df0565b60405180910390a38554600287015430907f42a55d7508b1c40b53524cf7cc2558b0f6bc7c4f262a3e929b65cd48bec2b68790611f718682612bbb565b60038b0154604051611f8a939260009081039291615df0565b60405180910390a350505050505050565b600081565b60975460ff1615611fc35760405162461bcd60e51b815260040161075b90615883565b61079f613c9d565b600054610100900460ff1680611fe45750611fe4612d05565b80611ff2575060005460ff16155b61200e5760405162461bcd60e51b815260040161075b90615a0b565b600054610100900460ff16158015612039576000805460ff1961ff0019909116610100171660011790555b6001600160a01b038d161580159061205957506001600160a01b038c1615155b6120755760405162461bcd60e51b815260040161075b90615ba8565b8c6101c560006101000a8154816001600160a01b0302191690836001600160a01b0316021790555060006120c76101c560009054906101000a90046001600160a01b03166001600160a01b03166142b5565b90506001600160a01b0381166120ef5760405162461bcd60e51b815260040161075b90615565565b6120f8816107a1565b61210185613a97565b6121108d8c8c8c8c8c8c612ebc565b426101c4556101c68c9055826121d457612128614c1f565b60408051602081019091526101c554819061214b906001600160a01b03166142cd565b6001600160a01b0316639b56d7886040518163ffffffff1660e01b815260040160206040518083038186803b15801561218357600080fd5b505afa158015612197573d6000803e3d6000fd5b505050506040513d601f19601f820116820180604052508101906121bb919061508d565b905290506121cd6101c8826001614c3d565b50506121e3565b6121e16101c88585614c88565b505b6121fb600080516020615eec8339815191528e610d90565b612213600080516020615eec83398151915282610d90565b612239600080516020615eec833981519152600080516020615e6c833981519152612ea7565b61225f600080516020615ecc833981519152600080516020615e6c833981519152612ea7565b6101c55461228e90600080516020615ecc83398151915290612289906001600160a01b03166142d8565b610d90565b6101c5546000906122a7906001600160a01b0316612fe1565b6001600160a01b031663095ea7b3306000196040518363ffffffff1660e01b81526004016122d6929190615237565b602060405180830381600087803b1580156122f057600080fd5b505af1158015612304573d6000803e3d6000fd5b505050506040513d601f19601f820116820180604052508101906123289190614f58565b9050806123475760405162461bcd60e51b815260040161075b9061546e565b5050801561235b576000805461ff00191690555b50505050505050505050505050565b61237261254c565b61238e5760405162461bcd60e51b815260040161075b90615c6b565b6101c7805460ff1916600117905560405130907f90d9b09c68a7e1312ce22801552b47265d77db9496383d51374b4058545447d790600090a2565b60c954600090819060ff166123f05760405162461bcd60e51b815260040161075b90615c08565b60c9805460ff1916905560975460ff161561241d5760405162461bcd60e51b815260040161075b90615883565b612425614be7565b6101c55461243b906001600160a01b03166135da565b6001600160a01b0316638c7a63ae856040518263ffffffff1660e01b81526004016124669190615353565b60a06040518083038186803b15801561247e57600080fd5b505afa158015612492573d6000803e3d6000fd5b505050506040513d601f19601f820116820180604052508101906124b69190615031565b905060006124c782602001516135e5565b90506000806124d683856139c2565b909250905060006124e78383613c78565b90506124f584868a84613695565b96509650505050505060c9805460ff191660011790559092909150565b61252a600080516020615eec83398151915233611a34565b6125465760405162461bcd60e51b815260040161075b9061599b565b6101ca55565b6000612568600080516020615e6c833981519152610516613028565b905090565b612585600080516020615eec83398151915233611a34565b6125a15760405162461bcd60e51b815260040161075b9061599b565b6101cb6000815481106125b057fe5b90600052602060002090600c02016005016001015460001480156125f757506101cb6000815481106125de57fe5b90600052602060002090600c0201600001600101546000145b6126135760405162461bcd60e51b815260040161075b90615bd9565b6126206101c88383614c88565b505050565b61262d61254c565b6126495760405162461bcd60e51b815260040161075b90615c6b565b6101c7805460ff1916905560405130907f7184039938737267597232635b117c924371ac877d4329f2dfa5ca674c5cc4a590600090a2565b61268961254c565b6126a55760405162461bcd60e51b815260040161075b90615c6b565b6101c354604051632fe2f3b960e21b81526001600160a01b039091169063bf8bcee490610d0e908490600401615353565b606481565b60975460ff16156126fe5760405162461bcd60e51b815260040161075b90615883565b6000811161271e5760405162461bcd60e51b815260040161075b90615b77565b612727816142e3565b610d41613c9d565b6101c65481565b600081815260656020526040812061072190614344565b60405163cde8884560e01b815260009073__$07e8ed413e81d51a5dfb2d8e1b1fa75af5$__9063cde88845906106ce9086908690600401615e0b565b6101c45481565b6000828152606560205260409020600201546127ae90610516613028565b610fa95760405162461bcd60e51b815260040161075b906157db565b6127d2614cc3565b6127db826135e5565b6040805160a081018252825481526001830154602082015260028301549181019190915260038201546060820152600490910154608082015292915050565b60008060005b6101cb54811015612861576128576101cb828154811061283c57fe5b600091825260209091206006600c9092020101548390613c78565b9150600101612820565b50905090565b6101c8818154811061287557fe5b600091825260209091200154905081565b60c95460009060ff166128ab5760405162461bcd60e51b815260040161075b90615c08565b60c9805460ff1916905560975460ff16156128d85760405162461bcd60e51b815260040161075b90615883565b60006128e3846135e5565b905080600401546000146129095760405162461bcd60e51b815260040161075b9061567d565b600083116129295760405162461bcd60e51b815260040161075b90615856565b6101c55461293f906001600160a01b03166142cd565b6001600160a01b0316631852f200336101c86040518363ffffffff1660e01b815260040161296e9291906151dc565b60206040518083038186803b15801561298657600080fd5b505afa15801561299a573d6000803e3d6000fd5b505050506040513d601f19601f820116820180604052508101906129be9190614f58565b6129da5760405162461bcd60e51b815260040161075b9061596c565b6101ca5442116129fc5760405162461bcd60e51b815260040161075b90615ab9565b8054612a079061434f565b15612a4257612a26600080516020615ecc833981519152610516613028565b612a425760405162461bcd60e51b815260040161075b906154ce565b6001810154612a519084613c78565b6001820155612a5e614cf2565b5060408051808201909152838152602081018590526101c554612a89906001600160a01b03166135da565b6001600160a01b0316635be57b6a82336040518363ffffffff1660e01b8152600401612ab6929190615d3c565b602060405180830381600087803b158015612ad057600080fd5b505af1158015612ae4573d6000803e3d6000fd5b505050506040513d601f19601f82011682018060405250810190612b08919061508d565b6101c554909350612b2d90612b25906001600160a01b0316612fe1565b333087612fec565b8285336001600160a01b03167fcb3ef4109dcd006671348924f00aac8398190a5ff283d6e470d74581513e103687604051612b689190615353565b60405180910390a4505060c9805460ff1916600117905592915050565b600080516020615e6c83398151915281565b600080516020615eac83398151915281565b600080516020615eec83398151915281565b600061071e83836040518060400160405280601e81526020017f536166654d6174683a207375627472616374696f6e206f766572666c6f770000815250614365565b612c05613a5d565b15612c225760405162461bcd60e51b815260040161075b906157ae565b6101cb8181548110612c3057fe5b90600052602060002090600c020160050160040154600014612c645760405162461bcd60e51b815260040161075b90615cb6565b6101c554600090612c8f90612c81906001600160a01b0316614391565b612c896139be565b90613c78565b9050806101cb8381548110612ca057fe5b600091825260209091206009600c9092020101556101cb80543091600080516020615e8c8339815191529185908110612cd557fe5b90600052602060002090600c02016005016000015483604051612cf9929190615e0b565b60405180910390a25050565b303b1590565b600054610100900460ff1680612d245750612d24612d05565b80612d32575060005460ff16155b612d4e5760405162461bcd60e51b815260040161075b90615a0b565b600054610100900460ff16158015611476576000805460ff1961ff0019909116610100171660011790558015610d41576000805461ff001916905550565b600054610100900460ff1680612da55750612da5612d05565b80612db3575060005460ff16155b612dcf5760405162461bcd60e51b815260040161075b90615a0b565b600054610100900460ff16158015612dfa576000805460ff1961ff0019909116610100171660011790555b6097805460ff191690558015610d41576000805461ff001916905550565b600054610100900460ff1680612e315750612e31612d05565b80612e3f575060005460ff16155b612e5b5760405162461bcd60e51b815260040161075b90615a0b565b600054610100900460ff16158015612e86576000805460ff1961ff0019909116610100171660011790555b60c9805460ff191660011790558015610d41576000805461ff001916905550565b60009182526065602052604090912060020155565b6101c554600090612ed5906001600160a01b0316614411565b6001600160a01b03166301b215516040518163ffffffff1660e01b8152600401602060405180830381600087803b158015612f0f57600080fd5b505af1158015612f23573d6000803e3d6000fd5b505050506040513d601f19601f82011682018060405250810190612f479190614d7f565b6101c380546001600160a01b0319166001600160a01b0383811691909117918290556101c55460405163bb4a250960e01b81529394509181169263bb4a250992612fa592169030908d908d908d908d908d908d908d9060040161526a565b600060405180830381600087803b158015612fbf57600080fd5b505af1158015612fd3573d6000803e3d6000fd5b505050505050505050505050565b600061072182613a45565b60408051808201909152601881527704661696c656420746f207472616e736665722045524332360441b6020820152610d3c858585858561441c565b3390565b600082815260656020526040902061304490826144f1565b156108cd57613051613028565b6001600160a01b0316816001600160a01b0316837f2f8788117e7eff1d82e926ec794901d17c78024a50270940304540a733656f0d60405160405180910390a45050565b60006001600160a01b03821663b93f9b0a60065b6040518263ffffffff1660e01b81526004016130c59190615353565b60206040518083038186803b1580156130dd57600080fd5b505afa1580156130f1573d6000803e3d6000fd5b505050506040513d601f19601f820116820180604052508101906107219190614d7f565b6126208383836040518060400160405280601881526020017704661696c656420746f207472616e736665722045524332360441b815250614506565b600082815260656020526040902061316990826145d8565b156108cd57613176613028565b6001600160a01b0316816001600160a01b0316837ff6391f5c32d9c69d2a47ea670b442974b53935d1edc7fd64eb21e047a839171b60405160405180910390a45050565b60975460ff166131dc5760405162461bcd60e51b815260040161075b90615440565b6097805460ff191690557f5db9ee0a495bf2e6ff9c91a7834c1ba4fdd244a5e8aa4e537bd38aeae4b073aa61320f613028565b60405161321c9190615187565b60405180910390a1565b6101cb54600090613238906001612bbb565b905060006101cb828154811061324a57fe5b90600052602060002090600c0201600501600401541161327c5760405162461bcd60e51b815260040161075b906156dc565b6101cb818154811061328a57fe5b90600052602060002090600c0201600001600401546000146132be5760405162461bcd60e51b815260040161075b90615a59565b600061330e6101cb83815481106132d157fe5b90600052602060002090600c0201600001600101546101cb84815481106132f457fe5b600091825260209091206006600c90920201015490613c78565b6101c3546040805163a4d66daf60e01b815290519293506001600160a01b03909116916327ea6f2b9161342c916133a0918691869163a4d66daf916004808301926020929190829003018186803b15801561336857600080fd5b505afa15801561337c573d6000803e3d6000fd5b505050506040513d601f19601f82011682018060405250810190612c89919061508d565b6101c360009054906101000a90046001600160a01b03166001600160a01b0316631a861d266040518163ffffffff1660e01b815260040160206040518083038186803b1580156133ef57600080fd5b505afa158015613403573d6000803e3d6000fd5b505050506040513d601f19601f82011682018060405250810190613427919061508d565b6145ed565b6040518263ffffffff1660e01b81526004016134489190615353565b600060405180830381600087803b15801561346257600080fd5b505af1158015613476573d6000803e3d6000fd5b50506101c5546000925061349391506001600160a01b0316614391565b90506134a181612c896139be565b6101cb84815481106134af57fe5b600091825260209091206004600c9092020101556134cf81612c896139be565b6101cb84815481106134dd57fe5b600091825260209091206009600c9092020101556101cb80543091600080516020615e8c833981519152918690811061351257fe5b90600052602060002090600c0201600001600001546101cb868154811061353557fe5b90600052602060002090600c020160000160040154604051613558929190615e0b565b60405180910390a2306001600160a01b0316600080516020615e8c8339815191526101cb858154811061358757fe5b90600052602060002090600c0201600501600001546101cb86815481106135aa57fe5b90600052602060002090600c0201600501600401546040516135cd929190615e0b565b60405180910390a2505050565b600061072182614603565b6000808211801561360457506101cb5461360090600261461b565b8211155b6136205760405162461bcd60e51b815260040161075b90615713565b600061364c600161364660026136406136398883614655565b8890613c78565b90614692565b90612bbb565b905060006101cb828154811061365e57fe5b600091825260208220600c90910201915061367a856002614655565b60011461368a578160050161368c565b815b95945050505050565b6101c55460009081906136b0906001600160a01b03166135da565b6001600160a01b031663430c208133866040518363ffffffff1660e01b81526004016136dd929190615237565b60206040518083038186803b1580156136f557600080fd5b505afa158015613709573d6000803e3d6000fd5b505050506040513d601f19601f8201168201806040525081019061372d9190614f58565b6137495760405162461bcd60e51b815260040161075b90615b1e565b6101c55461375f906001600160a01b03166142cd565b6001600160a01b0316631852f200336101c86040518363ffffffff1660e01b815260040161378e9291906151dc565b60206040518083038186803b1580156137a657600080fd5b505afa1580156137ba573d6000803e3d6000fd5b505050506040513d601f19601f820116820180604052508101906137de9190614f58565b6137fa5760405162461bcd60e51b815260040161075b9061596c565b6000831161381a5760405162461bcd60e51b815260040161075b90615ae7565b60008061382788886139c2565b909250905060006138388383613c78565b90508086111561385a5760405162461bcd60e51b815260040161075b90615a8a565b88600401546138676139be565b116138845760405162461bcd60e51b815260040161075b9061582b565b60048901546138a257600189015461389c9087612bbb565b60018a01555b60006138ae84886145ed565b905060006138c0846134278a85612bbb565b6101c5549091506138d9906001600160a01b03166135da565b6001600160a01b031663b81922058a83856040518463ffffffff1660e01b815260040161390893929190615e19565b600060405180830381600087803b15801561392257600080fd5b505af1158015613936573d6000803e3d6000fd5b50506101c554613965925061395491506001600160a01b0316612fe1565b30336139608587613c78565b612fec565b888a60200151336001600160a01b03167f92f2787b755dae547f1701582fe74c7abf277ec14db316dd01abc69cacf7a25985856040516139a6929190615e0b565b60405180910390a4909a909950975050505050505050565b4290565b60008060006139d985600201548560400151610692565b905060006139ef86600301548660400151610692565b9050613a08856080015182612bbb90919063ffffffff16565b9350613a21856060015183612bbb90919063ffffffff16565b925050505b9250929050565b60006001600160a01b03821663b93f9b0a600b6130a9565b60006001600160a01b03821663b93f9b0a60056130a9565b6101cb80546000918291613a72906001612bbb565b81548110613a7c57fe5b90600052602060002090600c02016000016004015411905090565b6101cb5460058110613abb5760405162461bcd60e51b815260040161075b9061549e565b6040805161012081019091526101cb90806080810180613ae16001612c8988600261461b565b815260200160008152602001613af860018061274d565b815260200160008152602001600081525081526020016040518060a00160405280613b326002612c8960028961461b90919063ffffffff16565b815260200160008152602001613b4960018061274d565b81526000602080830182905260409283018290529284528383018190529281018390528454600181810187559584529282902084518051600c90950290910193845580830151958401959095558481015160028401556060808601516003850155608095860151600485015584830151805160058601559283015160068501558282015160078501558281015160088501559190940151600983015592820151600a820155910151600b90910155506101ca55565b60975460ff1615613c215760405162461bcd60e51b815260040161075b90615883565b6097805460ff191660011790557f62e78cea01bee320cd4e420270b5ea74000d11b0c9f74754ebdbfc544b05a25861320f613028565b600061071e83836146d4565b600061071e836001600160a01b038416614719565b60008282018381101561071e5760405162461bcd60e51b815260040161075b9061560f565b613ca5613a5d565b613cc15760405162461bcd60e51b815260040161075b90615c3f565b6101c35460408051630735c92b60e21b815290516000926001600160a01b031691631cd724ac916004808301926020929190829003018186803b158015613d0757600080fd5b505afa158015613d1b573d6000803e3d6000fd5b505050506040513d601f19601f82011682018060405250810190613d3f919061508d565b905060008060006101c360009054906101000a90046001600160a01b03166001600160a01b031663a6a25e886040518163ffffffff1660e01b8152600401606060405180830381600087803b158015613d9757600080fd5b505af1158015613dab573d6000803e3d6000fd5b505050506040513d601f19601f82011682018060405250810190613dcf91906150a5565b925092509250613e60846101c360009054906101000a90046001600160a01b03166001600160a01b0316631cd724ac6040518163ffffffff1660e01b815260040160206040518083038186803b158015613e2857600080fd5b505afa158015613e3c573d6000803e3d6000fd5b505050506040513d601f19601f82011682018060405250810190613646919061508d565b6101cb5490945060609067ffffffffffffffff81118015613e8057600080fd5b50604051908082528060200260200182016040528015613eaa578160200160208202803683370190505b50905060005b6101cb5481101561408e57600073__$07e8ed413e81d51a5dfb2d8e1b1fa75af5$__63cee38ee4886101cb8581548110613ee657fe5b90600052602060002090600c0201600b01546101c9546040518463ffffffff1660e01b8152600401613f1a93929190615e19565b60206040518083038186803b158015613f3257600080fd5b505af4158015613f46573d6000803e3d6000fd5b505050506040513d601f19601f82011682018060405250810190613f6a919061508d565b905073__$07e8ed413e81d51a5dfb2d8e1b1fa75af5$__63cee38ee4856101cb8581548110613f9557fe5b90600052602060002090600c0201600b01546101c9546040518463ffffffff1660e01b8152600401613fc993929190615e19565b60206040518083038186803b158015613fe157600080fd5b505af4158015613ff5573d6000803e3d6000fd5b505050506040513d601f19601f82011682018060405250810190614019919061508d565b83838151811061402557fe5b602002602001018181525050614063816101cb848154811061404357fe5b90600052602060002090600c0201600a0154613c7890919063ffffffff16565b6101cb838154811061407157fe5b60009182526020909120600a600c90920201015550600101613eb0565b50600083118061409e5750600082115b15610d3c576101c3546000906140c7906001600160a01b0316856140c28689613c78565b614731565b905060005b6101cb548110156141745761411c8382815181106140e657fe5b60200260200101516101cb83815481106140fc57fe5b90600052602060002090600c0201600b0154612bbb90919063ffffffff16565b6101cb828154811061412a57fe5b90600052602060002090600c0201600b018190555061416883828151811061414e57fe5b60200260200101516101c954612bbb90919063ffffffff16565b6101c9556001016140cc565b506101c55461418b906001600160a01b031661493a565b6001600160a01b03166328fc33c7856040518263ffffffff1660e01b81526004016141b69190615353565b600060405180830381600087803b1580156141d057600080fd5b505af11580156141e4573d6000803e3d6000fd5b50506101c35460408051637df1f1b960e01b815290513094506001600160a01b039092169250637df1f1b9916004808301926020929190829003018186803b15801561422f57600080fd5b505afa158015614243573d6000803e3d6000fd5b505050506040513d601f19601f820116820180604052508101906142679190614d7f565b6001600160a01b03167fd1055dc2c2a003a83dfacb1c38db776eab5ef89d77a8f05a3512e8cf57f953ce868689866040516142a59493929190615df0565b60405180910390a3505050505050565b60006001600160a01b03821663b93f9b0a60076130a9565b600061072182614945565b60006107218261495d565b6101c554610d41906142fd906001600160a01b0316612fe1565b6101c35460408051808201909152601981527811985a5b1959081d1bc818dbdb1b1958dd081c185e5b595b9d603a1b602082015233916001600160a01b031690859061441c565b600061072182614975565b600061435c826002614655565b60011492915050565b600081848411156143895760405162461bcd60e51b815260040161075b919061535c565b505050900390565b60006001600160a01b03821663fc56365860075b6040518263ffffffff1660e01b81526004016143c19190615353565b60206040518083038186803b1580156143d957600080fd5b505afa1580156143ed573d6000803e3d6000fd5b505050506040513d601f19601f82011682018060405250810190610721919061508d565b600061072182614979565b6001600160a01b0383166144425760405162461bcd60e51b815260040161075b9061552e565b6040516323b872dd60e01b81526000906001600160a01b038716906323b872dd90614475908890889088906004016152ba565b602060405180830381600087803b15801561448f57600080fd5b505af11580156144a3573d6000803e3d6000fd5b505050506040513d601f19601f820116820180604052508101906144c79190614f58565b905081816144e85760405162461bcd60e51b815260040161075b919061535c565b50505050505050565b600061071e836001600160a01b038416614991565b6001600160a01b03831661452c5760405162461bcd60e51b815260040161075b9061552e565b60405163a9059cbb60e01b81526000906001600160a01b0386169063a9059cbb9061455d9087908790600401615237565b602060405180830381600087803b15801561457757600080fd5b505af115801561458b573d6000803e3d6000fd5b505050506040513d601f19601f820116820180604052508101906145af9190614f58565b905081816145d05760405162461bcd60e51b815260040161075b919061535c565b505050505050565b600061071e836001600160a01b0384166149db565b60008183106145fc578161071e565b5090919050565b60006001600160a01b03821663b93f9b0a600c6130a9565b60008261462a57506000610721565b8282028284828161463757fe5b041461071e5760405162461bcd60e51b815260040161075b906159ca565b600061071e838360405180604001604052806018815260200177536166654d6174683a206d6f64756c6f206279207a65726f60401b815250614aa1565b600061071e83836040518060400160405280601a81526020017f536166654d6174683a206469766973696f6e206279207a65726f000000000000815250614ad5565b815460009082106146f75760405162461bcd60e51b815260040161075b906153af565b82600001828154811061470657fe5b9060005260206000200154905092915050565b60009081526001919091016020526040902054151590565b6101c5546000906147919061474e906001600160a01b0316612fe1565b853061475a8688613c78565b6040518060400160405280601981526020017811985a5b1959081d1bc818dbdb1b1958dd081c185e5b595b9d603a1b81525061441c565b6101c5546000906147b6906147ae906001600160a01b0316614b0c565b606490614692565b90506147c0614cc3565b6101c9546101c3546101c6546040516385bd324d60e01b815273__$07e8ed413e81d51a5dfb2d8e1b1fa75af5$__936385bd324d9361481a936101cb938c938c938b9391926001600160a01b03909116919060040161530f565b60a06040518083038186803b15801561483257600080fd5b505af4158015614846573d6000803e3d6000fd5b505050506040513d601f19601f8201168201806040525081019061486a9190614fe0565b805160208201516101c9546101c35460405163060f0a6d60e31b81529495506149269473__$07e8ed413e81d51a5dfb2d8e1b1fa75af5$__946330785368946148cb946101cb94929391928b926001600160a01b03909116906004016152de565b60206040518083038186803b1580156148e357600080fd5b505af41580156148f7573d6000803e3d6000fd5b505050506040513d601f19601f8201168201806040525081019061491b919061508d565b604083015190613c78565b925061493183614b24565b50509392505050565b600061072182614bcf565b60006001600160a01b03821663b93f9b0a60136130a9565b60006001600160a01b03821663b93f9b0a600e6130a9565b5490565b60006001600160a01b03821663b93f9b0a60026130a9565b600061499d8383614719565b6149d357508154600181810184556000848152602080822090930184905584548482528286019093526040902091909155610721565b506000610721565b60008181526001830160205260408120548015614a975783546000198083019190810190600090879083908110614a0e57fe5b9060005260206000200154905080876000018481548110614a2b57fe5b600091825260208083209091019290925582815260018981019092526040902090840190558654879080614a5b57fe5b60019003818190600052602060002001600090559055866001016000878152602001908152602001600020600090556001945050505050610721565b6000915050610721565b60008183614ac25760405162461bcd60e51b815260040161075b919061535c565b50828481614acc57fe5b06949350505050565b60008183614af65760405162461bcd60e51b815260040161075b919061535c565b506000838581614b0257fe5b0495945050505050565b60006001600160a01b03821663fc56365860036143a5565b306001600160a01b03167ff3583f178a8d4f8888c3683f8e948faf9b6eb701c4f1fab265a6ecad1a1ddebb82604051614b5d9190615353565b60405180910390a26101c554610d4190614b7f906001600160a01b0316612fe1565b6101c5543090614b97906001600160a01b0316613095565b84604051806040016040528060198152602001784661696c656420746f2073656e6420746f207265736572766560381b81525061441c565b60006001600160a01b03821663b93f9b0a60146130a9565b6040518060a0016040528060006001600160a01b03168152602001600081526020016000815260200160008152602001600081525090565b60405180602001604052806001906020820280368337509192915050565b828054828255906000526020600020908101928215614c78579160200282015b82811115614c78578251825591602001919060010190614c5d565b50614c84929150614d0c565b5090565b828054828255906000526020600020908101928215614c78579160200282015b82811115614c78578235825591602001919060010190614ca8565b6040518060a0016040528060008152602001600081526020016000815260200160008152602001600081525090565b604051806040016040528060008152602001600081525090565b5b80821115614c845760008155600101614d0d565b60008083601f840112614d32578182fd5b50813567ffffffffffffffff811115614d49578182fd5b6020830191508360208083028501011115613a2657600080fd5b600060208284031215614d74578081fd5b813561071e81615e56565b600060208284031215614d90578081fd5b815161071e81615e56565b6000806000806000806000806000806000806101608d8f031215614dbd578788fd5b614dc78d35615e56565b8c359b50614dd860208e0135615e56565b60208d01359a5060408d0135995060608d0135985060808d0135975060a08d0135965060c08d0135955060e08d013594506101008d013593506101208d0135925067ffffffffffffffff6101408e01351115614e32578081fd5b614e438e6101408f01358f01614d21565b81935080925050509295989b509295989b509295989b565b600080600080600080600060e0888a031215614e75578283fd5b8735614e8081615e56565b9960208901359950604089013598606081013598506080810135975060a0810135965060c00135945092505050565b60008060208385031215614ec1578182fd5b823567ffffffffffffffff811115614ed7578283fd5b614ee385828601614d21565b90969095509350505050565b60008060008060408587031215614f04578384fd5b843567ffffffffffffffff80821115614f1b578586fd5b614f2788838901614d21565b90965094506020870135915080821115614f3f578384fd5b50614f4c87828801614d21565b95989497509550505050565b600060208284031215614f69578081fd5b8151801515811461071e578182fd5b600060208284031215614f89578081fd5b5035919050565b60008060408385031215614fa2578182fd5b823591506020830135614fb481615e56565b809150509250929050565b60008060408385031215614fd1578182fd5b50508035926020909101359150565b600060a08284031215614ff1578081fd5b614ffb60a0615e2f565b82518152602083015160208201526040830151604082015260608301516060820152608083015160808201528091505092915050565b600060a08284031215615042578081fd5b61504c60a0615e2f565b825161505781615e56565b80825250602083015160208201526040830151604082015260608301516060820152608083015160808201528091505092915050565b60006020828403121561509e578081fd5b5051919050565b6000806000606084860312156150b9578081fd5b8351925060208401519150604084015190509250925092565b60008060008060008060c087890312156150ea578384fd5b863595506020870135945060408701359350606087013560ff8116811461510f578283fd5b9598949750929560808101359460a0909101359350915050565b80518252602081015160208301526040810151604083015260608101516060830152608081015160808301525050565b8054825260018101546020830152600281015460408301526003810154606083015260040154608090910152565b6001600160a01b0391909116815260200190565b6001600160a01b0397881681529590961660208601526040850193909352606084019190915260ff16608083015260a082015260c081019190915260e00190565b6001600160a01b0383168152604060208083018290528354918301829052600084815281812090929091906060850190845b8181101561522a5784548352600194850194928401920161520e565b5090979650505050505050565b6001600160a01b03929092168252602082015260400190565b6001600160a01b0392831681529116602082015260400190565b6001600160a01b03998a16815297891660208901529590971660408701526060860193909352608085019190915260a084015260c083015260e08201929092526101008101919091526101200190565b6001600160a01b039384168152919092166020820152604081019190915260600190565b95865260208601949094526040850192909252606084015260808301526001600160a01b031660a082015260c00190565b96875260208701959095526040860193909352606085019190915260808401526001600160a01b031660a083015260c082015260e00190565b901515815260200190565b90815260200190565b6000602080835283518082850152825b818110156153885785810183015185820160400152820161536c565b818111156153995783604083870101525b50601f01601f1916929092016040019392505050565b60208082526022908201527f456e756d657261626c655365743a20696e646578206f7574206f6620626f756e604082015261647360f01b606082015260800190565b6020808252602f908201527f416363657373436f6e74726f6c3a2073656e646572206d75737420626520616e60408201526e0818591b5a5b881d1bc819dc985b9d608a1b606082015260800190565b60208082526014908201527314185d5cd8589b194e881b9bdd081c185d5cd95960621b604082015260600190565b6020808252601690820152754661696c656420746f20617070726f7665205553444360501b604082015260600190565b60208082526016908201527543616e6e6f7420657863656564203520736c6963657360501b604082015260600190565b6020808252600f908201526e5265712053454e494f525f524f4c4560881b604082015260600190565b6020808252601b908201527f496e73756666696369656e742066756e647320696e20736c6963650000000000604082015260600190565b6020808252601a908201527f43616e27742073656e6420746f207a65726f2061646472657373000000000000604082015260600190565b6020808252600d908201526c13dddb995c881a5b9d985b1a59609a1b604082015260600190565b6020808252602c908201527f4d75737420686176652070617573657220726f6c6520746f20706572666f726d60408201526b103a3434b99030b1ba34b7b760a11b606082015260800190565b6020808252601a908201527f4372656469746c696e652063616e6e6f7420626520656d707479000000000000604082015260600190565b6020808252601b908201527f536166654d6174683a206164646974696f6e206f766572666c6f770000000000604082015260600190565b6020808252601d908201527f4265796f6e64207072696e636970616c20677261636520706572696f64000000604082015260600190565b6020808252600e908201526d151c985b98da19481b1bd8dad95960921b604082015260600190565b6020808252601a908201527f43757272656e7420736c696365207374696c6c20616374697665000000000000604082015260600190565b6020808252601d908201527f4a756e696f72207472616e636865206d757374206265206c6f636b6564000000604082015260600190565b602080825260139082015272556e737570706f72746564207472616e63686560681b604082015260600190565b6020808252601e908201527f546f6b656e7349647320616e6420416d6f756e7473206d69736d617463680000604082015260600190565b6020808252601a908201527f426f72726f776572206d757374206e6f7420626520656d707479000000000000604082015260600190565b602080825260139082015272141bdbdb08185b1c9958591e481b1bd8dad959606a1b604082015260600190565b60208082526030908201527f416363657373436f6e74726f6c3a2073656e646572206d75737420626520616e60408201526f2061646d696e20746f207265766f6b6560801b606082015260800190565b602080825260119082015270151c985b98da19481a5cc81b1bd8dad959607a1b604082015260600190565b6020808252601390820152724d757374206465706f736974203e207a65726f60681b604082015260600190565b60208082526010908201526f14185d5cd8589b194e881c185d5cd95960821b604082015260600190565b60208082526016908201527514185e5b595b9d081c195c9a5bd9081a5b9d985b1a5960521b604082015260600190565b6020808252601290820152714372656469746c696e65206973206c61746560701b604082015260600190565b6020808252818101527f4f776e65722063616e6e6f7420626520746865207a65726f2061646472657373604082015260600190565b602080825260149082015273111c985dd91bdddb9cc8185c99481c185d5cd95960621b604082015260600190565b6020808252601590820152741059191c995cdcc81b9bdd0819dbcb5b1a5cdd1959605a1b604082015260600190565b6020808252601590820152744d7573742068617665206c6f636b657220726f6c6560581b604082015260600190565b60208082526021908201527f536166654d6174683a206d756c7469706c69636174696f6e206f766572666c6f6040820152607760f81b606082015260800190565b6020808252602e908201527f436f6e747261637420696e7374616e63652068617320616c726561647920626560408201526d195b881a5b9a5d1a585b1a5e995960921b606082015260800190565b602080825260179082015276131bd8dac818d85b9b9bdd08189948195e1d195b991959604a1b604082015260600190565b602080825260159082015274125b9d985b1a59081c995919595b48185b5bdd5b9d605a1b604082015260600190565b6020808252601490820152734e6f74206f70656e20666f722066756e64696e6760601b604082015260600190565b6020808252601c908201527f4d757374207769746864726177206d6f7265207468616e207a65726f00000000604082015260600190565b6020808252600f908201526e2737ba103a37b5b2b71037bbb732b960891b604082015260600190565b6020808252601690820152755465726d206d757374206e6f7420626520656d70747960501b604082015260600190565b6020808252601790820152764d75737420706179206d6f7265207468616e207a65726f60481b604082015260600190565b60208082526017908201527610dbdb999a59cbd89bdc9c9bddd95c881a5b9d985b1a59604a1b604082015260600190565b6020808252601590820152744d757374206e6f7420686176652062616c616e636560581b604082015260600190565b6020808252601f908201527f5265656e7472616e637947756172643a207265656e7472616e742063616c6c00604082015260600190565b602080825260129082015271141bdbdb081a5cc81b9bdd081b1bd8dad95960721b604082015260600190565b6020808252602b908201527f4d75737420686176652061646d696e20726f6c6520746f20706572666f726d2060408201526a3a3434b99030b1ba34b7b760a91b606082015260800190565b6020808252601d908201527f4a756e696f72207472616e63686520616c7265616479206c6f636b6564000000604082015260600190565b6020808252602f908201527f416363657373436f6e74726f6c3a2063616e206f6e6c792072656e6f756e636560408201526e103937b632b9903337b91039b2b63360891b606082015260800190565b82518152602092830151928101929092526001600160a01b0316604082015260600190565b60a081016107218284615129565b6101808101615d7e8287615129565b615d8b60a0830186615129565b610140820193909352610160015292915050565b6102408101615dae8286615129565b8360a0830152615dc160c0830184615159565b615dd2610160830160058501615159565b600a830154610200830152600b830154610220830152949350505050565b93845260208401929092526040830152606082015260800190565b918252602082015260400190565b9283526020830191909152604082015260600190565b60405181810167ffffffffffffffff81118282101715615e4e57600080fd5b604052919050565b6001600160a01b0381168114610d4157600080fdfeb19546dff01e856fb3f010c267a7b1c60363cf8a4664e21cc89c26224620214ef839b119f21fb055e13aebac51bca6b308f52ec2d8db8306ce4d092d964e5bd065d7a28e3265b37a6474929f336521b332c1681b933f6cb9f3376673440d862a956624bfbe09c0e98e645d61eba0de4ce88e8cceabdb00fead208d19a8e1209baf9a8bb3cbd6b84fbccefa71ff73e26e798553c6914585a84886212a46a90279a26469706673582212206734d8970bb50091c68032a6270e2929188dce8fa48aad6a30c23cf570f5015164736f6c634300060c0033",
  "libraries": {
    "TranchingLogic": "0xDabCc280ab22ca12332CeFBFFb26Abb22393EC1c"
  },
  "devdoc": {
    "kind": "dev",
    "methods": {
      "availableToWithdraw(uint256)": {
        "params": {
          "tokenId": "The token representing the position"
        },
        "returns": {
          "interestRedeemable": "The interest available to redeem",
          "principalRedeemable": "The principal available to redeem"
        }
      },
      "deposit(uint256,uint256)": {
        "params": {
          "amount": "The USDC amount to tranfer from the caller to the pool",
          "tranche": "The number representing the tranche to deposit into"
        },
        "returns": {
          "tokenId": "The tokenId of the NFT"
        }
      },
      "drawdown(uint256)": {
        "params": {
          "amount": "The amount to drawdown from the creditline (must be < limit)"
        }
      },
      "getRoleAdmin(bytes32)": {
        "details": "Returns the admin role that controls `role`. See {grantRole} and {revokeRole}. To change a role's admin, use {_setRoleAdmin}."
      },
      "getRoleMember(bytes32,uint256)": {
        "details": "Returns one of the accounts that have `role`. `index` must be a value between 0 and {getRoleMemberCount}, non-inclusive. Role bearers are not sorted in any particular way, and their ordering may change at any point. WARNING: When using {getRoleMember} and {getRoleMemberCount}, make sure you perform all queries on the same block. See the following https://forum.openzeppelin.com/t/iterating-over-elements-on-enumerableset-in-openzeppelin-contracts/2296[forum post] for more information."
      },
      "getRoleMemberCount(bytes32)": {
        "details": "Returns the number of accounts that have `role`. Can be used together with {getRoleMember} to enumerate all bearers of a role."
      },
      "grantRole(bytes32,address)": {
        "details": "Grants `role` to `account`. If `account` had not been already granted `role`, emits a {RoleGranted} event. Requirements: - the caller must have ``role``'s admin role."
      },
      "hasRole(bytes32,address)": {
        "details": "Returns `true` if `account` has been granted `role`."
      },
      "migrateCreditLine(address,uint256,uint256,uint256,uint256,uint256,uint256)": {
        "params": {
          "_borrower": "The borrower address",
          "_interestApr": "The new interest APR",
          "_lateFeeApr": "The new late fee APR",
          "_maxLimit": "The new max limit",
          "_paymentPeriodInDays": "The new payment period in days",
          "_termInDays": "The new term in days"
        }
      },
      "pause()": {
        "details": "Pauses all functions guarded by Pause See {Pausable-_pause}. Requirements: - the caller must have the PAUSER_ROLE."
      },
      "paused()": {
        "details": "Returns true if the contract is paused, and false otherwise."
      },
      "pay(uint256)": {
        "params": {
          "amount": "The amount to repay"
        }
      },
      "renounceRole(bytes32,address)": {
        "details": "Revokes `role` from the calling account. Roles are often managed via {grantRole} and {revokeRole}: this function's purpose is to provide a mechanism for accounts to lose their privileges if they are compromised (such as when a trusted device is misplaced). If the calling account had been granted `role`, emits a {RoleRevoked} event. Requirements: - the caller must be `account`."
      },
      "revokeRole(bytes32,address)": {
        "details": "Revokes `role` from `account`. If `account` had been granted `role`, emits a {RoleRevoked} event. Requirements: - the caller must have ``role``'s admin role."
      },
      "sharePriceToUsdc(uint256,uint256)": {
        "params": {
          "sharePrice": "The share price to convert",
          "totalShares": "The total shares outstanding"
        },
        "returns": {
          "_0": "The USDC amount of the input share price"
        }
      },
      "totalJuniorDeposits()": {
        "returns": {
          "_0": "The total USDC amount deposited into all junior tranches"
        }
      },
      "unpause()": {
        "details": "Unpauses the contract See {Pausable-_unpause}. Requirements: - the caller must have the Pauser role"
      },
      "usdcToSharePrice(uint256,uint256)": {
        "params": {
          "amount": "The USDC amount to convert",
          "totalShares": "The total shares outstanding"
        },
        "returns": {
          "_0": "The share price of the input amount"
        }
      },
      "withdraw(uint256,uint256)": {
        "params": {
          "amount": "The amount to withdraw (must be <= interest+principal currently available to withdraw)",
          "tokenId": "The NFT representing the position"
        },
        "returns": {
          "interestWithdrawn": "The interest amount that was withdrawn",
          "principalWithdrawn": "The principal amount that was withdrawn"
        }
      },
      "withdrawMax(uint256)": {
        "params": {
          "tokenId": "The NFT representing the position"
        },
        "returns": {
          "interestWithdrawn": "The interest amount that was withdrawn",
          "principalWithdrawn": "The principal amount that was withdrawn"
        }
      },
      "withdrawMultiple(uint256[],uint256[])": {
        "params": {
          "amounts": "An array of amounts to withdraw from the corresponding tokenIds",
          "tokenIds": "An array of tokens ids representing the position"
        }
      }
    },
    "version": 1
  },
  "userdoc": {
    "kind": "user",
    "methods": {
      "assess()": {
        "notice": "Triggers an assessment of the creditline and the applies the payments according the tranche waterfall"
      },
      "availableToWithdraw(uint256)": {
        "notice": "Determines the amount of interest and principal redeemable by a particular tokenId"
      },
      "deposit(uint256,uint256)": {
        "notice": "Deposit a USDC amount into the pool for a tranche. Mints an NFT to the caller representing the position"
      },
      "drawdown(uint256)": {
        "notice": "Draws down the funds (and locks the pool) to the borrower address. Can only be called by the borrower"
      },
      "emergencyShutdown()": {
        "notice": "Pauses the pool and sweeps any remaining funds to the treasury reserve."
      },
      "lockJuniorCapital()": {
        "notice": "Locks the junior tranche, preventing more junior deposits. Gives time for the senior to determine how much to invest (ensure leverage ratio cannot change for the period)"
      },
      "lockPool()": {
        "notice": "Locks the pool (locks both senior and junior tranches and starts the drawdown period). Beyond the drawdown period, any unused capital is available to withdraw by all depositors"
      },
      "migrateAndSetNewCreditLine(address)": {
        "notice": "Migrates to a new creditline without copying the accounting variables"
      },
      "migrateCreditLine(address,uint256,uint256,uint256,uint256,uint256,uint256)": {
        "notice": "Migrates the accounting variables from the current creditline to a brand new one"
      },
      "pauseDrawdowns()": {
        "notice": "Pauses all drawdowns (but not deposits/withdraws)"
      },
      "pay(uint256)": {
        "notice": "Allows repaying the creditline. Collects the USDC amount from the sender and triggers an assess"
      },
      "sharePriceToUsdc(uint256,uint256)": {
        "notice": "Converts share price to USDC amounts"
      },
      "totalJuniorDeposits()": {
        "notice": "Returns the total junior capital deposited"
      },
      "unpauseDrawdowns()": {
        "notice": "Unpause drawdowns"
      },
      "updateGoldfinchConfig()": {
        "notice": "Migrates to a new goldfinch config address"
      },
      "usdcToSharePrice(uint256,uint256)": {
        "notice": "Converts USDC amounts to share price"
      },
      "withdraw(uint256,uint256)": {
        "notice": "Withdraw an already deposited amount if the funds are available"
      },
      "withdrawMax(uint256)": {
        "notice": "Similar to withdraw but will withdraw all available funds"
      },
      "withdrawMultiple(uint256[],uint256[])": {
        "notice": "Withdraw from many tokens (that the sender owns) in a single transaction"
      }
    },
    "version": 1
  },
  "storageLayout": {
    "storage": [
      {
        "astId": 151,
        "contract": "contracts/protocol/core/TranchedPool.sol:TranchedPool",
        "label": "initialized",
        "offset": 0,
        "slot": "0",
        "type": "t_bool"
      },
      {
        "astId": 154,
        "contract": "contracts/protocol/core/TranchedPool.sol:TranchedPool",
        "label": "initializing",
        "offset": 1,
        "slot": "0",
        "type": "t_bool"
      },
      {
        "astId": 219,
        "contract": "contracts/protocol/core/TranchedPool.sol:TranchedPool",
        "label": "______gap",
        "offset": 0,
        "slot": "1",
        "type": "t_array(t_uint256)50_storage"
      },
      {
        "astId": 144,
        "contract": "contracts/protocol/core/TranchedPool.sol:TranchedPool",
        "label": "__gap",
        "offset": 0,
        "slot": "51",
        "type": "t_array(t_uint256)50_storage"
      },
      {
        "astId": 264,
        "contract": "contracts/protocol/core/TranchedPool.sol:TranchedPool",
        "label": "_roles",
        "offset": 0,
        "slot": "101",
        "type": "t_mapping(t_bytes32,t_struct(RoleData)260_storage)"
      },
      {
        "astId": 509,
        "contract": "contracts/protocol/core/TranchedPool.sol:TranchedPool",
        "label": "__gap",
        "offset": 0,
        "slot": "102",
        "type": "t_array(t_uint256)49_storage"
      },
      {
        "astId": 4429,
        "contract": "contracts/protocol/core/TranchedPool.sol:TranchedPool",
        "label": "_paused",
        "offset": 0,
        "slot": "151",
        "type": "t_bool"
      },
      {
        "astId": 4518,
        "contract": "contracts/protocol/core/TranchedPool.sol:TranchedPool",
        "label": "__gap",
        "offset": 0,
        "slot": "152",
        "type": "t_array(t_uint256)49_storage"
      },
      {
        "astId": 4527,
        "contract": "contracts/protocol/core/TranchedPool.sol:TranchedPool",
        "label": "_notEntered",
        "offset": 0,
        "slot": "201",
        "type": "t_bool"
      },
      {
        "astId": 4568,
        "contract": "contracts/protocol/core/TranchedPool.sol:TranchedPool",
        "label": "__gap",
        "offset": 0,
        "slot": "202",
        "type": "t_array(t_uint256)49_storage"
      },
      {
        "astId": 11937,
        "contract": "contracts/protocol/core/TranchedPool.sol:TranchedPool",
        "label": "__gap1",
        "offset": 0,
        "slot": "251",
        "type": "t_array(t_uint256)50_storage"
      },
      {
        "astId": 11941,
        "contract": "contracts/protocol/core/TranchedPool.sol:TranchedPool",
        "label": "__gap2",
        "offset": 0,
        "slot": "301",
        "type": "t_array(t_uint256)50_storage"
      },
      {
        "astId": 11945,
        "contract": "contracts/protocol/core/TranchedPool.sol:TranchedPool",
        "label": "__gap3",
        "offset": 0,
        "slot": "351",
        "type": "t_array(t_uint256)50_storage"
      },
      {
        "astId": 11949,
        "contract": "contracts/protocol/core/TranchedPool.sol:TranchedPool",
        "label": "__gap4",
        "offset": 0,
        "slot": "401",
        "type": "t_array(t_uint256)50_storage"
      },
      {
        "astId": 10317,
        "contract": "contracts/protocol/core/TranchedPool.sol:TranchedPool",
        "label": "creditLine",
        "offset": 0,
        "slot": "451",
        "type": "t_contract(IV2CreditLine)10675"
      },
      {
        "astId": 10319,
        "contract": "contracts/protocol/core/TranchedPool.sol:TranchedPool",
        "label": "createdAt",
        "offset": 0,
        "slot": "452",
        "type": "t_uint256"
      },
      {
        "astId": 22008,
        "contract": "contracts/protocol/core/TranchedPool.sol:TranchedPool",
        "label": "config",
        "offset": 0,
        "slot": "453",
        "type": "t_contract(GoldfinchConfig)17304"
      },
      {
        "astId": 22045,
        "contract": "contracts/protocol/core/TranchedPool.sol:TranchedPool",
        "label": "juniorFeePercent",
        "offset": 0,
        "slot": "454",
        "type": "t_uint256"
      },
      {
        "astId": 22047,
        "contract": "contracts/protocol/core/TranchedPool.sol:TranchedPool",
        "label": "drawdownsPaused",
        "offset": 0,
        "slot": "455",
        "type": "t_bool"
      },
      {
        "astId": 22050,
        "contract": "contracts/protocol/core/TranchedPool.sol:TranchedPool",
        "label": "allowedUIDTypes",
        "offset": 0,
        "slot": "456",
        "type": "t_array(t_uint256)dyn_storage"
      },
      {
        "astId": 22052,
        "contract": "contracts/protocol/core/TranchedPool.sol:TranchedPool",
        "label": "totalDeployed",
        "offset": 0,
        "slot": "457",
        "type": "t_uint256"
      },
      {
        "astId": 22054,
        "contract": "contracts/protocol/core/TranchedPool.sol:TranchedPool",
        "label": "fundableAt",
        "offset": 0,
        "slot": "458",
        "type": "t_uint256"
      },
      {
        "astId": 22057,
        "contract": "contracts/protocol/core/TranchedPool.sol:TranchedPool",
        "label": "poolSlices",
        "offset": 0,
        "slot": "459",
        "type": "t_array(t_struct(PoolSlice)10343_storage)dyn_storage"
      }
    ],
    "types": {
      "t_array(t_bytes32)dyn_storage": {
        "base": "t_bytes32",
        "encoding": "dynamic_array",
        "label": "bytes32[]",
        "numberOfBytes": "32"
      },
      "t_array(t_struct(PoolSlice)10343_storage)dyn_storage": {
        "base": "t_struct(PoolSlice)10343_storage",
        "encoding": "dynamic_array",
        "label": "struct ITranchedPool.PoolSlice[]",
        "numberOfBytes": "32"
      },
      "t_array(t_uint256)49_storage": {
        "base": "t_uint256",
        "encoding": "inplace",
        "label": "uint256[49]",
        "numberOfBytes": "1568"
      },
      "t_array(t_uint256)50_storage": {
        "base": "t_uint256",
        "encoding": "inplace",
        "label": "uint256[50]",
        "numberOfBytes": "1600"
      },
      "t_array(t_uint256)dyn_storage": {
        "base": "t_uint256",
        "encoding": "dynamic_array",
        "label": "uint256[]",
        "numberOfBytes": "32"
      },
      "t_bool": {
        "encoding": "inplace",
        "label": "bool",
        "numberOfBytes": "1"
      },
      "t_bytes32": {
        "encoding": "inplace",
        "label": "bytes32",
        "numberOfBytes": "32"
      },
      "t_contract(GoldfinchConfig)17304": {
        "encoding": "inplace",
        "label": "contract GoldfinchConfig",
        "numberOfBytes": "20"
      },
      "t_contract(IV2CreditLine)10675": {
        "encoding": "inplace",
        "label": "contract IV2CreditLine",
        "numberOfBytes": "20"
      },
      "t_mapping(t_bytes32,t_struct(RoleData)260_storage)": {
        "encoding": "mapping",
        "key": "t_bytes32",
        "label": "mapping(bytes32 => struct AccessControlUpgradeSafe.RoleData)",
        "numberOfBytes": "32",
        "value": "t_struct(RoleData)260_storage"
      },
      "t_mapping(t_bytes32,t_uint256)": {
        "encoding": "mapping",
        "key": "t_bytes32",
        "label": "mapping(bytes32 => uint256)",
        "numberOfBytes": "32",
        "value": "t_uint256"
      },
      "t_struct(AddressSet)4204_storage": {
        "encoding": "inplace",
        "label": "struct EnumerableSet.AddressSet",
        "members": [
          {
            "astId": 4203,
            "contract": "contracts/protocol/core/TranchedPool.sol:TranchedPool",
            "label": "_inner",
            "offset": 0,
            "slot": "0",
            "type": "t_struct(Set)4024_storage"
          }
        ],
        "numberOfBytes": "64"
      },
      "t_struct(PoolSlice)10343_storage": {
        "encoding": "inplace",
        "label": "struct ITranchedPool.PoolSlice",
        "members": [
          {
            "astId": 10336,
            "contract": "contracts/protocol/core/TranchedPool.sol:TranchedPool",
            "label": "seniorTranche",
            "offset": 0,
            "slot": "0",
            "type": "t_struct(TrancheInfo)10334_storage"
          },
          {
            "astId": 10338,
            "contract": "contracts/protocol/core/TranchedPool.sol:TranchedPool",
            "label": "juniorTranche",
            "offset": 0,
            "slot": "5",
            "type": "t_struct(TrancheInfo)10334_storage"
          },
          {
            "astId": 10340,
            "contract": "contracts/protocol/core/TranchedPool.sol:TranchedPool",
            "label": "totalInterestAccrued",
            "offset": 0,
            "slot": "10",
            "type": "t_uint256"
          },
          {
            "astId": 10342,
            "contract": "contracts/protocol/core/TranchedPool.sol:TranchedPool",
            "label": "principalDeployed",
            "offset": 0,
            "slot": "11",
            "type": "t_uint256"
          }
        ],
        "numberOfBytes": "384"
      },
      "t_struct(RoleData)260_storage": {
        "encoding": "inplace",
        "label": "struct AccessControlUpgradeSafe.RoleData",
        "members": [
          {
            "astId": 257,
            "contract": "contracts/protocol/core/TranchedPool.sol:TranchedPool",
            "label": "members",
            "offset": 0,
            "slot": "0",
            "type": "t_struct(AddressSet)4204_storage"
          },
          {
            "astId": 259,
            "contract": "contracts/protocol/core/TranchedPool.sol:TranchedPool",
            "label": "adminRole",
            "offset": 0,
            "slot": "2",
            "type": "t_bytes32"
          }
        ],
        "numberOfBytes": "96"
      },
      "t_struct(Set)4024_storage": {
        "encoding": "inplace",
        "label": "struct EnumerableSet.Set",
        "members": [
          {
            "astId": 4019,
            "contract": "contracts/protocol/core/TranchedPool.sol:TranchedPool",
            "label": "_values",
            "offset": 0,
            "slot": "0",
            "type": "t_array(t_bytes32)dyn_storage"
          },
          {
            "astId": 4023,
            "contract": "contracts/protocol/core/TranchedPool.sol:TranchedPool",
            "label": "_indexes",
            "offset": 0,
            "slot": "1",
            "type": "t_mapping(t_bytes32,t_uint256)"
          }
        ],
        "numberOfBytes": "64"
      },
      "t_struct(TrancheInfo)10334_storage": {
        "encoding": "inplace",
        "label": "struct ITranchedPool.TrancheInfo",
        "members": [
          {
            "astId": 10325,
            "contract": "contracts/protocol/core/TranchedPool.sol:TranchedPool",
            "label": "id",
            "offset": 0,
            "slot": "0",
            "type": "t_uint256"
          },
          {
            "astId": 10327,
            "contract": "contracts/protocol/core/TranchedPool.sol:TranchedPool",
            "label": "principalDeposited",
            "offset": 0,
            "slot": "1",
            "type": "t_uint256"
          },
          {
            "astId": 10329,
            "contract": "contracts/protocol/core/TranchedPool.sol:TranchedPool",
            "label": "principalSharePrice",
            "offset": 0,
            "slot": "2",
            "type": "t_uint256"
          },
          {
            "astId": 10331,
            "contract": "contracts/protocol/core/TranchedPool.sol:TranchedPool",
            "label": "interestSharePrice",
            "offset": 0,
            "slot": "3",
            "type": "t_uint256"
          },
          {
            "astId": 10333,
            "contract": "contracts/protocol/core/TranchedPool.sol:TranchedPool",
            "label": "lockedUntil",
            "offset": 0,
            "slot": "4",
            "type": "t_uint256"
          }
        ],
        "numberOfBytes": "160"
      },
      "t_uint256": {
        "encoding": "inplace",
        "label": "uint256",
        "numberOfBytes": "32"
      }
    }
  }
}